{
  "abi": [
    {
      "inputs": [
        {
          "internalType": "contract IJBDirectory",
          "name": "_directory",
          "type": "address"
        },
        {
          "internalType": "contract IJBTiered721DelegateDeployer",
          "name": "_tiered721HookDeployer",
          "type": "address"
        },
        {
          "internalType": "contract IJBController3_1",
          "name": "_controller",
          "type": "address"
        },
        {
          "internalType": "contract CroptopPublisher",
          "name": "_publisher",
          "type": "address"
        }
      ],
      "stateMutability": "nonpayable",
      "type": "constructor"
    },
    {
      "inputs": [],
      "name": "BAD_BOOST_SEQUENCE",
      "type": "error"
    },
    {
      "inputs": [],
      "name": "RECONFIGURATION_ALREADY_SCHEDULED",
      "type": "error"
    },
    {
      "inputs": [],
      "name": "RECONFIGURATION_NOT_POSSIBLE",
      "type": "error"
    },
    {
      "inputs": [],
      "name": "UNAUTHORIZED",
      "type": "error"
    },
    {
      "inputs": [
        {
          "internalType": "uint256",
          "name": "",
          "type": "uint256"
        }
      ],
      "name": "boostOperatorPermissionIndexes",
      "outputs": [
        {
          "internalType": "uint256",
          "name": "",
          "type": "uint256"
        }
      ],
      "stateMutability": "view",
      "type": "function"
    },
    {
      "inputs": [
        {
          "internalType": "uint256",
          "name": "_revnetId",
          "type": "uint256"
        }
      ],
      "name": "boostsOf",
      "outputs": [
        {
          "components": [
            {
              "internalType": "uint128",
              "name": "rate",
              "type": "uint128"
            },
            {
              "internalType": "uint128",
              "name": "startsAtOrAfter",
              "type": "uint128"
            }
          ],
          "internalType": "struct Boost[]",
          "name": "",
          "type": "tuple[]"
        }
      ],
      "stateMutability": "view",
      "type": "function"
    },
    {
      "inputs": [
        {
          "internalType": "uint256",
          "name": "",
          "type": "uint256"
        }
      ],
      "name": "buybackHookOf",
      "outputs": [
        {
          "internalType": "contract IJBGenericBuybackDelegate",
          "name": "",
          "type": "address"
        }
      ],
      "stateMutability": "view",
      "type": "function"
    },
    {
      "inputs": [
        {
          "internalType": "uint256",
          "name": "",
          "type": "uint256"
        }
      ],
      "name": "buybackHookPermissionIndexes",
      "outputs": [
        {
          "internalType": "uint256",
          "name": "",
          "type": "uint256"
        }
      ],
      "stateMutability": "view",
      "type": "function"
    },
    {
      "inputs": [],
      "name": "controller",
      "outputs": [
        {
          "internalType": "contract IJBController3_1",
          "name": "",
          "type": "address"
        }
      ],
      "stateMutability": "view",
      "type": "function"
    },
    {
      "inputs": [
        {
          "internalType": "uint256",
          "name": "",
          "type": "uint256"
        }
      ],
      "name": "croptopPermissionIndexes",
      "outputs": [
        {
          "internalType": "uint256",
          "name": "",
          "type": "uint256"
        }
      ],
      "stateMutability": "view",
      "type": "function"
    },
    {
      "inputs": [
        {
          "internalType": "uint256",
          "name": "_revnetId",
          "type": "uint256"
        }
      ],
      "name": "currentBoostNumberOf",
      "outputs": [
        {
          "internalType": "uint256",
          "name": "",
          "type": "uint256"
        }
      ],
      "stateMutability": "view",
      "type": "function"
    },
    {
      "inputs": [
        {
          "internalType": "address",
          "name": "_boostOperator",
          "type": "address"
        },
        {
          "components": [
            {
              "internalType": "string",
              "name": "content",
              "type": "string"
            },
            {
              "internalType": "uint256",
              "name": "domain",
              "type": "uint256"
            }
          ],
          "internalType": "struct JBProjectMetadata",
          "name": "_revnetMetadata",
          "type": "tuple"
        },
        {
          "internalType": "string",
          "name": "_name",
          "type": "string"
        },
        {
          "internalType": "string",
          "name": "_symbol",
          "type": "string"
        },
        {
          "components": [
            {
              "internalType": "uint256",
              "name": "initialIssuanceRate",
              "type": "uint256"
            },
            {
              "internalType": "uint256",
              "name": "premintTokenAmount",
              "type": "uint256"
            },
            {
              "internalType": "uint256",
              "name": "priceCeilingIncreaseFrequency",
              "type": "uint256"
            },
            {
              "internalType": "uint256",
              "name": "priceCeilingIncreasePercentage",
              "type": "uint256"
            },
            {
              "internalType": "uint256",
              "name": "priceFloorTaxIntensity",
              "type": "uint256"
            },
            {
              "components": [
                {
                  "internalType": "uint128",
                  "name": "rate",
                  "type": "uint128"
                },
                {
                  "internalType": "uint128",
                  "name": "startsAtOrAfter",
                  "type": "uint128"
                }
              ],
              "internalType": "struct Boost[]",
              "name": "boosts",
              "type": "tuple[]"
            }
          ],
          "internalType": "struct RevnetParams",
          "name": "_revnetData",
          "type": "tuple"
        },
        {
          "internalType": "contract IJBPaymentTerminal[]",
          "name": "_terminals",
          "type": "address[]"
        },
        {
          "components": [
            {
              "internalType": "contract IJBGenericBuybackDelegate",
              "name": "hook",
              "type": "address"
            },
            {
              "components": [
                {
                  "internalType": "address",
                  "name": "token",
                  "type": "address"
                },
                {
                  "internalType": "uint24",
                  "name": "fee",
                  "type": "uint24"
                },
                {
                  "internalType": "uint32",
                  "name": "twapWindow",
                  "type": "uint32"
                },
                {
                  "internalType": "uint32",
                  "name": "twapSlippageTolerance",
                  "type": "uint32"
                }
              ],
              "internalType": "struct BuybackPool[]",
              "name": "pools",
              "type": "tuple[]"
            }
          ],
          "internalType": "struct BuybackHookSetupData",
          "name": "_buybackHookSetupData",
          "type": "tuple"
        },
        {
          "components": [
            {
              "internalType": "string",
              "name": "name",
              "type": "string"
            },
            {
              "internalType": "string",
              "name": "symbol",
              "type": "string"
            },
            {
              "internalType": "contract IJBFundingCycleStore",
              "name": "fundingCycleStore",
              "type": "address"
            },
            {
              "internalType": "string",
              "name": "baseUri",
              "type": "string"
            },
            {
              "internalType": "contract IJB721TokenUriResolver",
              "name": "tokenUriResolver",
              "type": "address"
            },
            {
              "internalType": "string",
              "name": "contractUri",
              "type": "string"
            },
            {
              "components": [
                {
                  "components": [
                    {
                      "internalType": "uint104",
                      "name": "price",
                      "type": "uint104"
                    },
                    {
                      "internalType": "uint32",
                      "name": "initialQuantity",
                      "type": "uint32"
                    },
                    {
                      "internalType": "uint32",
                      "name": "votingUnits",
                      "type": "uint32"
                    },
                    {
                      "internalType": "uint16",
                      "name": "reservedRate",
                      "type": "uint16"
                    },
                    {
                      "internalType": "address",
                      "name": "reservedTokenBeneficiary",
                      "type": "address"
                    },
                    {
                      "internalType": "bytes32",
                      "name": "encodedIPFSUri",
                      "type": "bytes32"
                    },
                    {
                      "internalType": "uint24",
                      "name": "category",
                      "type": "uint24"
                    },
                    {
                      "internalType": "bool",
                      "name": "allowManualMint",
                      "type": "bool"
                    },
                    {
                      "internalType": "bool",
                      "name": "shouldUseReservedTokenBeneficiaryAsDefault",
                      "type": "bool"
                    },
                    {
                      "internalType": "bool",
                      "name": "transfersPausable",
                      "type": "bool"
                    },
                    {
                      "internalType": "bool",
                      "name": "useVotingUnits",
                      "type": "bool"
                    }
                  ],
                  "internalType": "struct JB721TierParams[]",
                  "name": "tiers",
                  "type": "tuple[]"
                },
                {
                  "internalType": "uint48",
                  "name": "currency",
                  "type": "uint48"
                },
                {
                  "internalType": "uint48",
                  "name": "decimals",
                  "type": "uint48"
                },
                {
                  "internalType": "contract IJBPrices",
                  "name": "prices",
                  "type": "address"
                }
              ],
              "internalType": "struct JB721PricingParams",
              "name": "pricing",
              "type": "tuple"
            },
            {
              "internalType": "address",
              "name": "reservedTokenBeneficiary",
              "type": "address"
            },
            {
              "internalType": "contract IJBTiered721DelegateStore",
              "name": "store",
              "type": "address"
            },
            {
              "components": [
                {
                  "internalType": "bool",
                  "name": "lockReservedTokenChanges",
                  "type": "bool"
                },
                {
                  "internalType": "bool",
                  "name": "lockVotingUnitChanges",
                  "type": "bool"
                },
                {
                  "internalType": "bool",
                  "name": "lockManualMintingChanges",
                  "type": "bool"
                },
                {
                  "internalType": "bool",
                  "name": "preventOverspending",
                  "type": "bool"
                }
              ],
              "internalType": "struct JBTiered721Flags",
              "name": "flags",
              "type": "tuple"
            },
            {
              "internalType": "enum JB721GovernanceType",
              "name": "governanceType",
              "type": "uint8"
            }
          ],
          "internalType": "struct JBDeployTiered721DelegateData",
          "name": "_tiered721SetupData",
          "type": "tuple"
        },
        {
          "components": [
            {
              "internalType": "contract IJBPayDelegate3_1_1",
              "name": "delegate",
              "type": "address"
            },
            {
              "internalType": "uint256",
              "name": "amount",
              "type": "uint256"
            },
            {
              "internalType": "bytes",
              "name": "metadata",
              "type": "bytes"
            }
          ],
          "internalType": "struct JBPayDelegateAllocation3_1_1[]",
          "name": "_otherPayHooks",
          "type": "tuple[]"
        },
        {
          "internalType": "uint8",
          "name": "_extraCycleMetadata",
          "type": "uint8"
        },
        {
          "components": [
            {
              "internalType": "address",
              "name": "nft",
              "type": "address"
            },
            {
              "internalType": "uint256",
              "name": "category",
              "type": "uint256"
            },
            {
              "internalType": "uint256",
              "name": "minimumPrice",
              "type": "uint256"
            },
            {
              "internalType": "uint256",
              "name": "minimumTotalSupply",
              "type": "uint256"
            },
            {
              "internalType": "uint256",
              "name": "maximumTotalSupply",
              "type": "uint256"
            },
            {
              "internalType": "address[]",
              "name": "allowedAddresses",
              "type": "address[]"
            }
          ],
          "internalType": "struct AllowedPost[]",
          "name": "_allowedPosts",
          "type": "tuple[]"
        }
      ],
      "name": "deployCroptopRevnetFor",
      "outputs": [
        {
          "internalType": "uint256",
          "name": "revnetId",
          "type": "uint256"
        }
      ],
      "stateMutability": "nonpayable",
      "type": "function"
    },
    {
      "inputs": [
        {
          "internalType": "address",
          "name": "_boostOperator",
          "type": "address"
        },
        {
          "components": [
            {
              "internalType": "string",
              "name": "content",
              "type": "string"
            },
            {
              "internalType": "uint256",
              "name": "domain",
              "type": "uint256"
            }
          ],
          "internalType": "struct JBProjectMetadata",
          "name": "_revnetMetadata",
          "type": "tuple"
        },
        {
          "internalType": "string",
          "name": "_name",
          "type": "string"
        },
        {
          "internalType": "string",
          "name": "_symbol",
          "type": "string"
        },
        {
          "components": [
            {
              "internalType": "uint256",
              "name": "initialIssuanceRate",
              "type": "uint256"
            },
            {
              "internalType": "uint256",
              "name": "premintTokenAmount",
              "type": "uint256"
            },
            {
              "internalType": "uint256",
              "name": "priceCeilingIncreaseFrequency",
              "type": "uint256"
            },
            {
              "internalType": "uint256",
              "name": "priceCeilingIncreasePercentage",
              "type": "uint256"
            },
            {
              "internalType": "uint256",
              "name": "priceFloorTaxIntensity",
              "type": "uint256"
            },
            {
              "components": [
                {
                  "internalType": "uint128",
                  "name": "rate",
                  "type": "uint128"
                },
                {
                  "internalType": "uint128",
                  "name": "startsAtOrAfter",
                  "type": "uint128"
                }
              ],
              "internalType": "struct Boost[]",
              "name": "boosts",
              "type": "tuple[]"
            }
          ],
          "internalType": "struct RevnetParams",
          "name": "_revnetData",
          "type": "tuple"
        },
        {
          "internalType": "contract IJBPaymentTerminal[]",
          "name": "_terminals",
          "type": "address[]"
        },
        {
          "components": [
            {
              "internalType": "contract IJBGenericBuybackDelegate",
              "name": "hook",
              "type": "address"
            },
            {
              "components": [
                {
                  "internalType": "address",
                  "name": "token",
                  "type": "address"
                },
                {
                  "internalType": "uint24",
                  "name": "fee",
                  "type": "uint24"
                },
                {
                  "internalType": "uint32",
                  "name": "twapWindow",
                  "type": "uint32"
                },
                {
                  "internalType": "uint32",
                  "name": "twapSlippageTolerance",
                  "type": "uint32"
                }
              ],
              "internalType": "struct BuybackPool[]",
              "name": "pools",
              "type": "tuple[]"
            }
          ],
          "internalType": "struct BuybackHookSetupData",
          "name": "_buybackHookSetupData",
          "type": "tuple"
        },
        {
          "components": [
            {
              "internalType": "contract IJBPayDelegate3_1_1",
              "name": "delegate",
              "type": "address"
            },
            {
              "internalType": "uint256",
              "name": "amount",
              "type": "uint256"
            },
            {
              "internalType": "bytes",
              "name": "metadata",
              "type": "bytes"
            }
          ],
          "internalType": "struct JBPayDelegateAllocation3_1_1[]",
          "name": "_payHooks",
          "type": "tuple[]"
        },
        {
          "internalType": "uint8",
          "name": "_extraCycleMetadata",
          "type": "uint8"
        }
      ],
      "name": "deployPayHookNetworkFor",
      "outputs": [
        {
          "internalType": "uint256",
          "name": "revnetId",
          "type": "uint256"
        }
      ],
      "stateMutability": "nonpayable",
      "type": "function"
    },
    {
      "inputs": [
        {
          "internalType": "address",
          "name": "_boostOperator",
          "type": "address"
        },
        {
          "components": [
            {
              "internalType": "string",
              "name": "content",
              "type": "string"
            },
            {
              "internalType": "uint256",
              "name": "domain",
              "type": "uint256"
            }
          ],
          "internalType": "struct JBProjectMetadata",
          "name": "_revnetMetadata",
          "type": "tuple"
        },
        {
          "internalType": "string",
          "name": "_name",
          "type": "string"
        },
        {
          "internalType": "string",
          "name": "_symbol",
          "type": "string"
        },
        {
          "components": [
            {
              "internalType": "uint256",
              "name": "initialIssuanceRate",
              "type": "uint256"
            },
            {
              "internalType": "uint256",
              "name": "premintTokenAmount",
              "type": "uint256"
            },
            {
              "internalType": "uint256",
              "name": "priceCeilingIncreaseFrequency",
              "type": "uint256"
            },
            {
              "internalType": "uint256",
              "name": "priceCeilingIncreasePercentage",
              "type": "uint256"
            },
            {
              "internalType": "uint256",
              "name": "priceFloorTaxIntensity",
              "type": "uint256"
            },
            {
              "components": [
                {
                  "internalType": "uint128",
                  "name": "rate",
                  "type": "uint128"
                },
                {
                  "internalType": "uint128",
                  "name": "startsAtOrAfter",
                  "type": "uint128"
                }
              ],
              "internalType": "struct Boost[]",
              "name": "boosts",
              "type": "tuple[]"
            }
          ],
          "internalType": "struct RevnetParams",
          "name": "_revnetData",
          "type": "tuple"
        },
        {
          "internalType": "contract IJBPaymentTerminal[]",
          "name": "_terminals",
          "type": "address[]"
        },
        {
          "components": [
            {
              "internalType": "contract IJBGenericBuybackDelegate",
              "name": "hook",
              "type": "address"
            },
            {
              "components": [
                {
                  "internalType": "address",
                  "name": "token",
                  "type": "address"
                },
                {
                  "internalType": "uint24",
                  "name": "fee",
                  "type": "uint24"
                },
                {
                  "internalType": "uint32",
                  "name": "twapWindow",
                  "type": "uint32"
                },
                {
                  "internalType": "uint32",
                  "name": "twapSlippageTolerance",
                  "type": "uint32"
                }
              ],
              "internalType": "struct BuybackPool[]",
              "name": "pools",
              "type": "tuple[]"
            }
          ],
          "internalType": "struct BuybackHookSetupData",
          "name": "_buybackHookSetupData",
          "type": "tuple"
        }
      ],
      "name": "deployRevnetFor",
      "outputs": [
        {
          "internalType": "uint256",
          "name": "revnetId",
          "type": "uint256"
        }
      ],
      "stateMutability": "nonpayable",
      "type": "function"
    },
    {
      "inputs": [
        {
          "internalType": "address",
          "name": "_boostOperator",
          "type": "address"
        },
        {
          "components": [
            {
              "internalType": "string",
              "name": "content",
              "type": "string"
            },
            {
              "internalType": "uint256",
              "name": "domain",
              "type": "uint256"
            }
          ],
          "internalType": "struct JBProjectMetadata",
          "name": "_revnetMetadata",
          "type": "tuple"
        },
        {
          "internalType": "string",
          "name": "_name",
          "type": "string"
        },
        {
          "internalType": "string",
          "name": "_symbol",
          "type": "string"
        },
        {
          "components": [
            {
              "internalType": "uint256",
              "name": "initialIssuanceRate",
              "type": "uint256"
            },
            {
              "internalType": "uint256",
              "name": "premintTokenAmount",
              "type": "uint256"
            },
            {
              "internalType": "uint256",
              "name": "priceCeilingIncreaseFrequency",
              "type": "uint256"
            },
            {
              "internalType": "uint256",
              "name": "priceCeilingIncreasePercentage",
              "type": "uint256"
            },
            {
              "internalType": "uint256",
              "name": "priceFloorTaxIntensity",
              "type": "uint256"
            },
            {
              "components": [
                {
                  "internalType": "uint128",
                  "name": "rate",
                  "type": "uint128"
                },
                {
                  "internalType": "uint128",
                  "name": "startsAtOrAfter",
                  "type": "uint128"
                }
              ],
              "internalType": "struct Boost[]",
              "name": "boosts",
              "type": "tuple[]"
            }
          ],
          "internalType": "struct RevnetParams",
          "name": "_revnetData",
          "type": "tuple"
        },
        {
          "internalType": "contract IJBPaymentTerminal[]",
          "name": "_terminals",
          "type": "address[]"
        },
        {
          "components": [
            {
              "internalType": "contract IJBGenericBuybackDelegate",
              "name": "hook",
              "type": "address"
            },
            {
              "components": [
                {
                  "internalType": "address",
                  "name": "token",
                  "type": "address"
                },
                {
                  "internalType": "uint24",
                  "name": "fee",
                  "type": "uint24"
                },
                {
                  "internalType": "uint32",
                  "name": "twapWindow",
                  "type": "uint32"
                },
                {
                  "internalType": "uint32",
                  "name": "twapSlippageTolerance",
                  "type": "uint32"
                }
              ],
              "internalType": "struct BuybackPool[]",
              "name": "pools",
              "type": "tuple[]"
            }
          ],
          "internalType": "struct BuybackHookSetupData",
          "name": "_buybackHookSetupData",
          "type": "tuple"
        },
        {
          "components": [
            {
              "internalType": "string",
              "name": "name",
              "type": "string"
            },
            {
              "internalType": "string",
              "name": "symbol",
              "type": "string"
            },
            {
              "internalType": "contract IJBFundingCycleStore",
              "name": "fundingCycleStore",
              "type": "address"
            },
            {
              "internalType": "string",
              "name": "baseUri",
              "type": "string"
            },
            {
              "internalType": "contract IJB721TokenUriResolver",
              "name": "tokenUriResolver",
              "type": "address"
            },
            {
              "internalType": "string",
              "name": "contractUri",
              "type": "string"
            },
            {
              "components": [
                {
                  "components": [
                    {
                      "internalType": "uint104",
                      "name": "price",
                      "type": "uint104"
                    },
                    {
                      "internalType": "uint32",
                      "name": "initialQuantity",
                      "type": "uint32"
                    },
                    {
                      "internalType": "uint32",
                      "name": "votingUnits",
                      "type": "uint32"
                    },
                    {
                      "internalType": "uint16",
                      "name": "reservedRate",
                      "type": "uint16"
                    },
                    {
                      "internalType": "address",
                      "name": "reservedTokenBeneficiary",
                      "type": "address"
                    },
                    {
                      "internalType": "bytes32",
                      "name": "encodedIPFSUri",
                      "type": "bytes32"
                    },
                    {
                      "internalType": "uint24",
                      "name": "category",
                      "type": "uint24"
                    },
                    {
                      "internalType": "bool",
                      "name": "allowManualMint",
                      "type": "bool"
                    },
                    {
                      "internalType": "bool",
                      "name": "shouldUseReservedTokenBeneficiaryAsDefault",
                      "type": "bool"
                    },
                    {
                      "internalType": "bool",
                      "name": "transfersPausable",
                      "type": "bool"
                    },
                    {
                      "internalType": "bool",
                      "name": "useVotingUnits",
                      "type": "bool"
                    }
                  ],
                  "internalType": "struct JB721TierParams[]",
                  "name": "tiers",
                  "type": "tuple[]"
                },
                {
                  "internalType": "uint48",
                  "name": "currency",
                  "type": "uint48"
                },
                {
                  "internalType": "uint48",
                  "name": "decimals",
                  "type": "uint48"
                },
                {
                  "internalType": "contract IJBPrices",
                  "name": "prices",
                  "type": "address"
                }
              ],
              "internalType": "struct JB721PricingParams",
              "name": "pricing",
              "type": "tuple"
            },
            {
              "internalType": "address",
              "name": "reservedTokenBeneficiary",
              "type": "address"
            },
            {
              "internalType": "contract IJBTiered721DelegateStore",
              "name": "store",
              "type": "address"
            },
            {
              "components": [
                {
                  "internalType": "bool",
                  "name": "lockReservedTokenChanges",
                  "type": "bool"
                },
                {
                  "internalType": "bool",
                  "name": "lockVotingUnitChanges",
                  "type": "bool"
                },
                {
                  "internalType": "bool",
                  "name": "lockManualMintingChanges",
                  "type": "bool"
                },
                {
                  "internalType": "bool",
                  "name": "preventOverspending",
                  "type": "bool"
                }
              ],
              "internalType": "struct JBTiered721Flags",
              "name": "flags",
              "type": "tuple"
            },
            {
              "internalType": "enum JB721GovernanceType",
              "name": "governanceType",
              "type": "uint8"
            }
          ],
          "internalType": "struct JBDeployTiered721DelegateData",
          "name": "_tiered721SetupData",
          "type": "tuple"
        },
        {
          "components": [
            {
              "internalType": "contract IJBPayDelegate3_1_1",
              "name": "delegate",
              "type": "address"
            },
            {
              "internalType": "uint256",
              "name": "amount",
              "type": "uint256"
            },
            {
              "internalType": "bytes",
              "name": "metadata",
              "type": "bytes"
            }
          ],
          "internalType": "struct JBPayDelegateAllocation3_1_1[]",
          "name": "_otherPayHooks",
          "type": "tuple[]"
        },
        {
          "internalType": "uint8",
          "name": "_extraCycleMetadata",
          "type": "uint8"
        }
      ],
      "name": "deployTiered721RevnetFor",
      "outputs": [
        {
          "internalType": "uint256",
          "name": "revnetId",
          "type": "uint256"
        }
      ],
      "stateMutability": "nonpayable",
      "type": "function"
    },
    {
      "inputs": [],
      "name": "directory",
      "outputs": [
        {
          "internalType": "contract IJBDirectory",
          "name": "",
          "type": "address"
        }
      ],
      "stateMutability": "view",
      "type": "function"
    },
    {
      "inputs": [
        {
          "internalType": "address",
          "name": "_operator",
          "type": "address"
        },
        {
          "internalType": "address",
          "name": "_from",
          "type": "address"
        },
        {
          "internalType": "uint256",
          "name": "_tokenId",
          "type": "uint256"
        },
        {
          "internalType": "bytes",
          "name": "_data",
          "type": "bytes"
        }
      ],
      "name": "onERC721Received",
      "outputs": [
        {
          "internalType": "bytes4",
          "name": "",
          "type": "bytes4"
        }
      ],
      "stateMutability": "view",
      "type": "function"
    },
    {
      "inputs": [
        {
          "internalType": "uint256",
          "name": "",
          "type": "uint256"
        },
        {
          "internalType": "uint256",
          "name": "",
          "type": "uint256"
        }
      ],
      "name": "payHooksOf",
      "outputs": [
        {
          "internalType": "contract IJBPayDelegate3_1_1",
          "name": "delegate",
          "type": "address"
        },
        {
          "internalType": "uint256",
          "name": "amount",
          "type": "uint256"
        },
        {
          "internalType": "bytes",
          "name": "metadata",
          "type": "bytes"
        }
      ],
      "stateMutability": "view",
      "type": "function"
    },
    {
      "inputs": [
        {
          "components": [
            {
              "internalType": "contract IJBPaymentTerminal",
              "name": "terminal",
              "type": "address"
            },
            {
              "internalType": "address",
              "name": "payer",
              "type": "address"
            },
            {
              "components": [
                {
                  "internalType": "address",
                  "name": "token",
                  "type": "address"
                },
                {
                  "internalType": "uint256",
                  "name": "value",
                  "type": "uint256"
                },
                {
                  "internalType": "uint256",
                  "name": "decimals",
                  "type": "uint256"
                },
                {
                  "internalType": "uint256",
                  "name": "currency",
                  "type": "uint256"
                }
              ],
              "internalType": "struct JBTokenAmount",
              "name": "amount",
              "type": "tuple"
            },
            {
              "internalType": "uint256",
              "name": "projectId",
              "type": "uint256"
            },
            {
              "internalType": "uint256",
              "name": "currentFundingCycleConfiguration",
              "type": "uint256"
            },
            {
              "internalType": "address",
              "name": "beneficiary",
              "type": "address"
            },
            {
              "internalType": "uint256",
              "name": "weight",
              "type": "uint256"
            },
            {
              "internalType": "uint256",
              "name": "reservedRate",
              "type": "uint256"
            },
            {
              "internalType": "string",
              "name": "memo",
              "type": "string"
            },
            {
              "internalType": "bytes",
              "name": "metadata",
              "type": "bytes"
            }
          ],
          "internalType": "struct JBPayParamsData",
          "name": "_data",
          "type": "tuple"
        }
      ],
      "name": "payParams",
      "outputs": [
        {
          "internalType": "uint256",
          "name": "weight",
          "type": "uint256"
        },
        {
          "internalType": "string",
          "name": "memo",
          "type": "string"
        },
        {
          "components": [
            {
              "internalType": "contract IJBPayDelegate3_1_1",
              "name": "delegate",
              "type": "address"
            },
            {
              "internalType": "uint256",
              "name": "amount",
              "type": "uint256"
            },
            {
              "internalType": "bytes",
              "name": "metadata",
              "type": "bytes"
            }
          ],
          "internalType": "struct JBPayDelegateAllocation3_1_1[]",
          "name": "payHooks",
          "type": "tuple[]"
        }
      ],
      "stateMutability": "view",
      "type": "function"
    },
    {
      "inputs": [],
      "name": "publisher",
      "outputs": [
        {
          "internalType": "contract CroptopPublisher",
          "name": "",
          "type": "address"
        }
      ],
      "stateMutability": "view",
      "type": "function"
    },
    {
      "inputs": [
        {
          "components": [
            {
              "internalType": "contract IJBPaymentTerminal",
              "name": "terminal",
              "type": "address"
            },
            {
              "internalType": "address",
              "name": "holder",
              "type": "address"
            },
            {
              "internalType": "uint256",
              "name": "projectId",
              "type": "uint256"
            },
            {
              "internalType": "uint256",
              "name": "currentFundingCycleConfiguration",
              "type": "uint256"
            },
            {
              "internalType": "uint256",
              "name": "tokenCount",
              "type": "uint256"
            },
            {
              "internalType": "uint256",
              "name": "totalSupply",
              "type": "uint256"
            },
            {
              "internalType": "uint256",
              "name": "overflow",
              "type": "uint256"
            },
            {
              "components": [
                {
                  "internalType": "address",
                  "name": "token",
                  "type": "address"
                },
                {
                  "internalType": "uint256",
                  "name": "value",
                  "type": "uint256"
                },
                {
                  "internalType": "uint256",
                  "name": "decimals",
                  "type": "uint256"
                },
                {
                  "internalType": "uint256",
                  "name": "currency",
                  "type": "uint256"
                }
              ],
              "internalType": "struct JBTokenAmount",
              "name": "reclaimAmount",
              "type": "tuple"
            },
            {
              "internalType": "bool",
              "name": "useTotalOverflow",
              "type": "bool"
            },
            {
              "internalType": "uint256",
              "name": "redemptionRate",
              "type": "uint256"
            },
            {
              "internalType": "string",
              "name": "memo",
              "type": "string"
            },
            {
              "internalType": "bytes",
              "name": "metadata",
              "type": "bytes"
            }
          ],
          "internalType": "struct JBRedeemParamsData",
          "name": "_data",
          "type": "tuple"
        }
      ],
      "name": "redeemParams",
      "outputs": [
        {
          "internalType": "uint256",
          "name": "",
          "type": "uint256"
        },
        {
          "internalType": "string",
          "name": "",
          "type": "string"
        },
        {
          "components": [
            {
              "internalType": "contract IJBRedemptionDelegate3_1_1",
              "name": "delegate",
              "type": "address"
            },
            {
              "internalType": "uint256",
              "name": "amount",
              "type": "uint256"
            },
            {
              "internalType": "bytes",
              "name": "metadata",
              "type": "bytes"
            }
          ],
          "internalType": "struct JBRedemptionDelegateAllocation3_1_1[]",
          "name": "",
          "type": "tuple[]"
        }
      ],
      "stateMutability": "view",
      "type": "function"
    },
    {
      "inputs": [
        {
          "internalType": "uint256",
          "name": "_revnetId",
          "type": "uint256"
        },
        {
          "internalType": "address",
          "name": "_newBoostOperator",
          "type": "address"
        }
      ],
      "name": "replaceBoostOperatorOf",
      "outputs": [],
      "stateMutability": "nonpayable",
      "type": "function"
    },
    {
      "inputs": [
        {
          "internalType": "uint256",
          "name": "_revnetId",
          "type": "uint256"
        }
      ],
      "name": "scheduleNextBoostOf",
      "outputs": [],
      "stateMutability": "nonpayable",
      "type": "function"
    },
    {
      "inputs": [
        {
          "internalType": "bytes4",
          "name": "_interfaceId",
          "type": "bytes4"
        }
      ],
      "name": "supportsInterface",
      "outputs": [
        {
          "internalType": "bool",
          "name": "",
          "type": "bool"
        }
      ],
      "stateMutability": "view",
      "type": "function"
    },
    {
      "inputs": [],
      "name": "tiered721HookDeployer",
      "outputs": [
        {
          "internalType": "contract IJBTiered721DelegateDeployer",
          "name": "",
          "type": "address"
        }
      ],
      "stateMutability": "view",
      "type": "function"
    }
  ],
  "bytecode": {
    "object": "0x60e06040523480156200001157600080fd5b506040516200629438038062006294833981016040819052620000349162000125565b6001600160a01b0391821660805260018054808201825560127fb10e2d527612073b26eecdfd717e6a320cf44b4afac2b0732d9fcbe2b7fa0cf6918201558154808301835560189101556005805480830190915560097f036b6384b5eca791c62761152d0c79bb0604c104a5fb6f4eb0703f3154bb3db09091015593821660a05291811660c052600680546001600160a01b0319169290911691909117905560078054918201815560005260157fa66cc928b5edb82af9bd49922954155ab7b0942694bea4ce44661d9a8736c688909101556200018d565b6001600160a01b03811681146200012257600080fd5b50565b600080600080608085870312156200013c57600080fd5b845162000149816200010c565b60208601519094506200015c816200010c565b60408601519093506200016f816200010c565b606086015190925062000182816200010c565b939692955090935050565b60805160a05160c05161603d62000257600039600081816103720152610ace0152600081816103bf0152818161063901526108c301526000818161041b015281816107af01528181610bdd01528181610d9001528181610f6a01528181611163015281816112710152818161138a015281816116560152818161173501528181611a8f01528181611b9d01528181611cb601528181611fb70152818161207f0152818161226601528181612404015281816129d801528181612c3401526131c8015261603d6000f3fe608060405234801561001057600080fd5b50600436106101775760003560e01c80637a56f982116100d8578063b58e84cc1161008c578063d46cf17111610066578063d46cf171146103e1578063ec3004ac14610403578063f77c47911461041657600080fd5b8063b58e84cc14610394578063b82f18c1146103a7578063c41c2f24146103ba57600080fd5b8063a51cfd18116100bd578063a51cfd181461032b578063ad0116691461034d578063ade6b6db1461036d57600080fd5b80637a56f982146102e95780638c72c54e1461030b57600080fd5b806334116e8f1161012f578063440cfb7b11610114578063440cfb7b1461026657806348dc59b61461027b5780637249a7731461028e57600080fd5b806334116e8f14610240578063429216981461025357600080fd5b8063086e941b11610160578063086e941b146101c8578063145cae6a146101e9578063150b7a02146101fc57600080fd5b806301a7d01a1461017c57806301ffc9a7146101a5575b600080fd5b61018f61018a366004613353565b61043d565b60405161019c919061336c565b60405180910390f35b6101b86101b33660046133d1565b6104d3565b604051901515815260200161019c565b6101db6101d6366004613353565b61056c565b60405190815260200161019c565b6101db6101f7366004614015565b61058d565b61020f61020a3660046141aa565b6107ab565b6040517fffffffff00000000000000000000000000000000000000000000000000000000909116815260200161019c565b6101db61024e366004614249565b6108bf565b6101db610261366004613353565b610bcb565b6102796102743660046143ac565b610bdb565b005b6101db6102893660046143dc565b611153565b6102c461029c366004613353565b60036020526000908152604090205473ffffffffffffffffffffffffffffffffffffffff1681565b60405173ffffffffffffffffffffffffffffffffffffffff909116815260200161019c565b6102fc6102f73660046144e3565b611934565b60405161019c93929190614573565b6006546102c49073ffffffffffffffffffffffffffffffffffffffff1681565b61033e6103393660046145b1565b611a17565b60405161019c939291906145ed565b6101db61035b366004613353565b60026020526000908152604090205481565b6102c47f000000000000000000000000000000000000000000000000000000000000000081565b6101db6103a23660046146b6565b611a7f565b6101db6103b5366004613353565b612615565b6102c47f000000000000000000000000000000000000000000000000000000000000000081565b6103f46103ef3660046147f3565b612625565b60405161019c9392919061482f565b610279610411366004613353565b61298f565b6102c47f000000000000000000000000000000000000000000000000000000000000000081565b600081815260208181526040808320805482518185028101850190935280835260609492939192909184015b828210156104c857600084815260209081902060408051808201909152908401546fffffffffffffffffffffffffffffffff80821683527001000000000000000000000000000000009091041681830152825260019092019101610469565b505050509050919050565b60007fffffffff0000000000000000000000000000000000000000000000000000000082167f71700c6900000000000000000000000000000000000000000000000000000000148061056657507f150b7a02000000000000000000000000000000000000000000000000000000007fffffffff000000000000000000000000000000000000000000000000000000008316145b92915050565b6005818154811061057c57600080fd5b600091825260209091200154905081565b60006105a18c8c8c8c8c8c8c8c8c8c6108bf565b90508151600014610637576006546040517f200e8ae400000000000000000000000000000000000000000000000000000000815273ffffffffffffffffffffffffffffffffffffffff9091169063200e8ae49061060490849086906004016148e6565b600060405180830381600087803b15801561061e57600080fd5b505af1158015610632573d6000803e3d6000fd5b505050505b7f000000000000000000000000000000000000000000000000000000000000000073ffffffffffffffffffffffffffffffffffffffff1663ad007d636040518163ffffffff1660e01b8152600401602060405180830381865afa1580156106a2573d6000803e3d6000fd5b505050506040513d601f19601f820116820180604052508101906106c691906149ee565b6040805160608101825260065473ffffffffffffffffffffffffffffffffffffffff90811682526020808301869052600780548551818402810184018752818152969093169563529cdd2e95850193909283018282801561074657602002820191906000526020600020905b815481526020019060010190808311610732575b50505050508152506040518263ffffffff1660e01b815260040161076a9190614a0b565b600060405180830381600087803b15801561078457600080fd5b505af1158015610798573d6000803e3d6000fd5b505050509b9a5050505050505050505050565b60007f000000000000000000000000000000000000000000000000000000000000000073ffffffffffffffffffffffffffffffffffffffff16638b79543c6040518163ffffffff1660e01b8152600401602060405180830381865afa158015610818573d6000803e3d6000fd5b505050506040513d601f19601f8201168201806040525081019061083c91906149ee565b73ffffffffffffffffffffffffffffffffffffffff163373ffffffffffffffffffffffffffffffffffffffff161461087357600080fd5b73ffffffffffffffffffffffffffffffffffffffff85161561089457600080fd5b507f150b7a020000000000000000000000000000000000000000000000000000000095945050505050565b60007f000000000000000000000000000000000000000000000000000000000000000073ffffffffffffffffffffffffffffffffffffffff16638b79543c6040518163ffffffff1660e01b8152600401602060405180830381865afa15801561092c573d6000803e3d6000fd5b505050506040513d601f19601f8201168201806040525081019061095091906149ee565b73ffffffffffffffffffffffffffffffffffffffff166306661abd6040518163ffffffff1660e01b8152600401602060405180830381865afa15801561099a573d6000803e3d6000fd5b505050506040513d601f19601f820116820180604052508101906109be9190614a7c565b6109c9906001614ac4565b835190915060006109db826001614ac4565b67ffffffffffffffff8111156109f3576109f361344f565b604051908082528060200260200182016040528015610a4057816020015b60408051606080820183526000808352602083015291810191909152815260200190600190039081610a115790505b50905060005b82811015610a8d57858181518110610a6057610a60614ad7565b6020026020010151828281518110610a7a57610a7a614ad7565b6020908102919091010152600101610a46565b506040517f70d7f24900000000000000000000000000000000000000000000000000000000815260009073ffffffffffffffffffffffffffffffffffffffff7f000000000000000000000000000000000000000000000000000000000000000016906370d7f24990610b059087908b90600401614c8a565b6020604051808303816000875af1158015610b24573d6000803e3d6000fd5b505050506040513d601f19601f82011682018060405250810190610b4891906149ee565b905060405180606001604052808273ffffffffffffffffffffffffffffffffffffffff1681526020016000815260200160405180602001604052806000815250815250828481518110610b9d57610b9d614ad7565b6020026020010181905250610bb98e8e8e8e8e8e8e898d611a7f565b505050509a9950505050505050505050565b6007818154811061057c57600080fd5b7f000000000000000000000000000000000000000000000000000000000000000073ffffffffffffffffffffffffffffffffffffffff16632bdfe0046040518163ffffffff1660e01b8152600401602060405180830381865afa158015610c46573d6000803e3d6000fd5b505050506040513d601f19601f82011682018060405250810190610c6a91906149ee565b73ffffffffffffffffffffffffffffffffffffffff1663ad007d636040518163ffffffff1660e01b8152600401602060405180830381865afa158015610cb4573d6000803e3d6000fd5b505050506040513d601f19601f82011682018060405250810190610cd891906149ee565b73ffffffffffffffffffffffffffffffffffffffff16630f5932f033308560016040518563ffffffff1660e01b8152600401610d179493929190614e7d565b602060405180830381865afa158015610d34573d6000803e3d6000fd5b505050506040513d601f19601f82011682018060405250810190610d589190614ec7565b610d8e576040517f075fd2b100000000000000000000000000000000000000000000000000000000815260040160405180910390fd5b7f000000000000000000000000000000000000000000000000000000000000000073ffffffffffffffffffffffffffffffffffffffff16632bdfe0046040518163ffffffff1660e01b8152600401602060405180830381865afa158015610df9573d6000803e3d6000fd5b505050506040513d601f19601f82011682018060405250810190610e1d91906149ee565b73ffffffffffffffffffffffffffffffffffffffff1663ad007d636040518163ffffffff1660e01b8152600401602060405180830381865afa158015610e67573d6000803e3d6000fd5b505050506040513d601f19601f82011682018060405250810190610e8b91906149ee565b73ffffffffffffffffffffffffffffffffffffffff1663529cdd2e60405180606001604052803373ffffffffffffffffffffffffffffffffffffffff168152602001858152602001600067ffffffffffffffff811115610eed57610eed61344f565b604051908082528060200260200182016040528015610f16578160200160208202803683370190505b508152506040518263ffffffff1660e01b8152600401610f369190614a0b565b600060405180830381600087803b158015610f5057600080fd5b505af1158015610f64573d6000803e3d6000fd5b505050507f000000000000000000000000000000000000000000000000000000000000000073ffffffffffffffffffffffffffffffffffffffff16632bdfe0046040518163ffffffff1660e01b8152600401602060405180830381865afa158015610fd3573d6000803e3d6000fd5b505050506040513d601f19601f82011682018060405250810190610ff791906149ee565b73ffffffffffffffffffffffffffffffffffffffff1663ad007d636040518163ffffffff1660e01b8152600401602060405180830381865afa158015611041573d6000803e3d6000fd5b505050506040513d601f19601f8201168201806040525081019061106591906149ee565b73ffffffffffffffffffffffffffffffffffffffff1663529cdd2e60405180606001604052808473ffffffffffffffffffffffffffffffffffffffff16815260200185815260200160018054806020026020016040519081016040528092919081815260200182805480156110f957602002820191906000526020600020905b8154815260200190600101908083116110e5575b50505050508152506040518263ffffffff1660e01b815260040161111d9190614a0b565b600060405180830381600087803b15801561113757600080fd5b505af115801561114b573d6000803e3d6000fd5b505050505050565b60008061115f89612d67565b90507f000000000000000000000000000000000000000000000000000000000000000073ffffffffffffffffffffffffffffffffffffffff16638b79543c6040518163ffffffff1660e01b8152600401602060405180830381865afa1580156111cc573d6000803e3d6000fd5b505050506040513d601f19601f820116820180604052508101906111f091906149ee565b73ffffffffffffffffffffffffffffffffffffffff1663666d87a0308a6040518363ffffffff1660e01b815260040161122a929190614ee4565b6020604051808303816000875af1158015611249573d6000803e3d6000fd5b505050506040513d601f19601f8201168201806040525081019061126d9190614a7c565b91507f000000000000000000000000000000000000000000000000000000000000000073ffffffffffffffffffffffffffffffffffffffff1663619306306040518163ffffffff1660e01b8152600401602060405180830381865afa1580156112da573d6000803e3d6000fd5b505050506040513d601f19601f820116820180604052508101906112fe91906149ee565b73ffffffffffffffffffffffffffffffffffffffff1663a7f2a70b8389896040518463ffffffff1660e01b815260040161133a93929190614f32565b6020604051808303816000875af1158015611359573d6000803e3d6000fd5b505050506040513d601f19601f8201168201806040525081019061137d91906149ee565b506113888284612eed565b7f000000000000000000000000000000000000000000000000000000000000000073ffffffffffffffffffffffffffffffffffffffff1663111d861b836040518060800160405280896040015181526020018960000151670de0b6b3a76400006113f29190614f5d565b815260608a01516020808301919091526000604092830181905282516102a0810190935261024083018181526102608401829052610280840191909152825260a08b0151519082019015611468578a60a0015160008151811061145757611457614ad7565b60200260200101516000015161146b565b60005b6fffffffffffffffffffffffffffffffff1681526020018a608001516127106114949190614f74565b815260006020820181905260408201819052606082018190526080820181905260a0808301829052600160c0840181905260e0840183905261010084018390526101208401839052610140840183905261016084018390526101808401526101a083018290528a5173ffffffffffffffffffffffffffffffffffffffff166101c08401526101e0909201528a01515115611550578960a0015160008151811061153f5761153f614ad7565b602002602001015160200151611553565b60005b6040805160008082526020820190925288916115e2565b6115cf6040518060c00160405280600073ffffffffffffffffffffffffffffffffffffffff168152602001600073ffffffffffffffffffffffffffffffffffffffff168152602001600081526020016000815260200160008152602001600081525090565b81526020019060019003908161156a5790505b508b6040518863ffffffff1660e01b81526004016116069796959493929190615263565b6020604051808303816000875af1158015611625573d6000803e3d6000fd5b505050506040513d601f19601f820116820180604052508101906116499190614a7c565b50602085015115611733577f000000000000000000000000000000000000000000000000000000000000000073ffffffffffffffffffffffffffffffffffffffff16638ae9c07b838760200151670de0b6b3a76400006116a99190614f5d565b8c8a6040516020016116bb9190615393565b6040516020818303038152906040526000806040518763ffffffff1660e01b81526004016116ee969594939291906153ff565b6020604051808303816000875af115801561170d573d6000803e3d6000fd5b505050506040513d601f19601f820116820180604052508101906117319190614a7c565b505b7f000000000000000000000000000000000000000000000000000000000000000073ffffffffffffffffffffffffffffffffffffffff16632bdfe0046040518163ffffffff1660e01b8152600401602060405180830381865afa15801561179e573d6000803e3d6000fd5b505050506040513d601f19601f820116820180604052508101906117c291906149ee565b73ffffffffffffffffffffffffffffffffffffffff1663ad007d636040518163ffffffff1660e01b8152600401602060405180830381865afa15801561180c573d6000803e3d6000fd5b505050506040513d601f19601f8201168201806040525081019061183091906149ee565b73ffffffffffffffffffffffffffffffffffffffff1663529cdd2e60405180606001604052808c73ffffffffffffffffffffffffffffffffffffffff16815260200185815260200160018054806020026020016040519081016040528092919081815260200182805480156118c457602002820191906000526020600020905b8154815260200190600101908083116118b0575b50505050508152506040518263ffffffff1660e01b81526004016118e89190614a0b565b600060405180830381600087803b15801561190257600080fd5b505af1158015611916573d6000803e3d6000fd5b50505050611928828660a00151613020565b50979650505050505050565b6004602052816000526040600020818154811061195057600080fd5b600091825260209091206003909102018054600182015460028301805473ffffffffffffffffffffffffffffffffffffffff90931695509093509061199490615454565b80601f01602080910402602001604051908101604052809291908181526020018280546119c090615454565b8015611a0d5780601f106119e257610100808354040283529160200191611a0d565b820191906000526020600020905b8154815290600101906020018083116119f057829003601f168201915b5050505050905083565b604080516000808252602082019092526060908190839081611a63565b60408051606080820183526000808352602083015291810191909152815260200190600190039081611a345790505b5060408051602081019091526000815291969195509350915050565b600080611a8b8b612d67565b90507f000000000000000000000000000000000000000000000000000000000000000073ffffffffffffffffffffffffffffffffffffffff16638b79543c6040518163ffffffff1660e01b8152600401602060405180830381865afa158015611af8573d6000803e3d6000fd5b505050506040513d601f19601f82011682018060405250810190611b1c91906149ee565b73ffffffffffffffffffffffffffffffffffffffff1663666d87a0308c6040518363ffffffff1660e01b8152600401611b56929190614ee4565b6020604051808303816000875af1158015611b75573d6000803e3d6000fd5b505050506040513d601f19601f82011682018060405250810190611b999190614a7c565b91507f000000000000000000000000000000000000000000000000000000000000000073ffffffffffffffffffffffffffffffffffffffff1663619306306040518163ffffffff1660e01b8152600401602060405180830381865afa158015611c06573d6000803e3d6000fd5b505050506040513d601f19601f82011682018060405250810190611c2a91906149ee565b73ffffffffffffffffffffffffffffffffffffffff1663a7f2a70b838b8b6040518463ffffffff1660e01b8152600401611c6693929190614f32565b6020604051808303816000875af1158015611c85573d6000803e3d6000fd5b505050506040513d601f19601f82011682018060405250810190611ca991906149ee565b50611cb48286612eed565b7f000000000000000000000000000000000000000000000000000000000000000073ffffffffffffffffffffffffffffffffffffffff1663111d861b8360405180608001604052808b60400151815260200160128c60000151611d1791906155c7565b815260608c01516020808301919091526000604092830181905282516102a0810190935261024083018181526102608401829052610280840191909152825260a08d0151519082019015611d8d578c60a00151600081518110611d7c57611d7c614ad7565b602002602001015160000151611d90565b60005b6fffffffffffffffffffffffffffffffff1681526020018c60800151612710611db99190614f74565b815260006020820181905260408201819052606082018190526080820181905260a0808301829052600160c0840181905260e0840183905261010084018390526101208401839052610140840183905261016084018390526101808401526101a0830191909152306101c083015260ff8a166101e0909201919091528c01515115611e66578b60a00151600081518110611e5557611e55614ad7565b602002602001015160200151611e69565b60005b604080516000808252602082019092528891611ef8565b611ee56040518060c00160405280600073ffffffffffffffffffffffffffffffffffffffff168152602001600073ffffffffffffffffffffffffffffffffffffffff168152602001600081526020016000815260200160008152602001600081525090565b815260200190600190039081611e805790505b508d6040518863ffffffff1660e01b8152600401611f1c9796959493929190615263565b6020604051808303816000875af1158015611f3b573d6000803e3d6000fd5b505050506040513d601f19601f82011682018060405250810190611f5f9190614a7c565b508451600083815260036020908152604090912080547fffffffffffffffffffffffff00000000000000000000000000000000000000001673ffffffffffffffffffffffffffffffffffffffff9384161790558801517f000000000000000000000000000000000000000000000000000000000000000090911690638ae9c07b908490611ff490670de0b6b3a7640000614f5d565b8e8c6040516020016120069190615393565b6040516020818303038152906040526000806040518763ffffffff1660e01b8152600401612039969594939291906153ff565b6020604051808303816000875af1158015612058573d6000803e3d6000fd5b505050506040513d601f19601f8201168201806040525081019061207c9190614a7c565b507f000000000000000000000000000000000000000000000000000000000000000073ffffffffffffffffffffffffffffffffffffffff16632bdfe0046040518163ffffffff1660e01b8152600401602060405180830381865afa1580156120e8573d6000803e3d6000fd5b505050506040513d601f19601f8201168201806040525081019061210c91906149ee565b73ffffffffffffffffffffffffffffffffffffffff1663ad007d636040518163ffffffff1660e01b8152600401602060405180830381865afa158015612156573d6000803e3d6000fd5b505050506040513d601f19601f8201168201806040525081019061217a91906149ee565b73ffffffffffffffffffffffffffffffffffffffff1663529cdd2e60405180606001604052808e73ffffffffffffffffffffffffffffffffffffffff168152602001858152602001600180548060200260200160405190810160405280929190818152602001828054801561220e57602002820191906000526020600020905b8154815260200190600101908083116121fa575b50505050508152506040518263ffffffff1660e01b81526004016122329190614a0b565b600060405180830381600087803b15801561224c57600080fd5b505af1158015612260573d6000803e3d6000fd5b505050507f000000000000000000000000000000000000000000000000000000000000000073ffffffffffffffffffffffffffffffffffffffff16632bdfe0046040518163ffffffff1660e01b8152600401602060405180830381865afa1580156122cf573d6000803e3d6000fd5b505050506040513d601f19601f820116820180604052508101906122f391906149ee565b73ffffffffffffffffffffffffffffffffffffffff1663ad007d636040518163ffffffff1660e01b8152600401602060405180830381865afa15801561233d573d6000803e3d6000fd5b505050506040513d601f19601f8201168201806040525081019061236191906149ee565b85516040517f0f5932f000000000000000000000000000000000000000000000000000000000815273ffffffffffffffffffffffffffffffffffffffff9290921691630f5932f0916123bd913090600090600590600401614e7d565b602060405180830381865afa1580156123da573d6000803e3d6000fd5b505050506040513d601f19601f820116820180604052508101906123fe9190614ec7565b6125ef577f000000000000000000000000000000000000000000000000000000000000000073ffffffffffffffffffffffffffffffffffffffff16632bdfe0046040518163ffffffff1660e01b8152600401602060405180830381865afa15801561246d573d6000803e3d6000fd5b505050506040513d601f19601f8201168201806040525081019061249191906149ee565b73ffffffffffffffffffffffffffffffffffffffff1663ad007d636040518163ffffffff1660e01b8152600401602060405180830381865afa1580156124db573d6000803e3d6000fd5b505050506040513d601f19601f820116820180604052508101906124ff91906149ee565b73ffffffffffffffffffffffffffffffffffffffff1663529cdd2e6040518060600160405280886000015173ffffffffffffffffffffffffffffffffffffffff16815260200160008152602001600580548060200260200160405190810160405280929190818152602001828054801561259857602002820191906000526020600020905b815481526020019060010190808311612584575b50505050508152506040518263ffffffff1660e01b81526004016125bc9190614a0b565b600060405180830381600087803b1580156125d657600080fd5b505af11580156125ea573d6000803e3d6000fd5b505050505b6125fd828860a00151613020565b61260782856130ba565b509998505050505050505050565b6001818154811061057c57600080fd5b60c08101356000908152600360205260408082205490517fd46cf1710000000000000000000000000000000000000000000000000000000081526060918291829173ffffffffffffffffffffffffffffffffffffffff169063d46cf171906126919088906004016156cc565b600060405180830381865afa1580156126ae573d6000803e3d6000fd5b505050506040513d6000823e601f3d9081017fffffffffffffffffffffffffffffffffffffffffffffffffffffffffffffffe01682016040526126f49190810190615840565b805160c089013560009081526004602090815260408083208054825181850281018501909352808352979b5094975092151595919450919291849084015b828210156128235760008481526020908190206040805160608101825260038602909201805473ffffffffffffffffffffffffffffffffffffffff1683526001810154938301939093526002830180549293929184019161279290615454565b80601f01602080910402602001604051908101604052809291908181526020018280546127be90615454565b801561280b5780601f106127e05761010080835404028352916020019161280b565b820191906000526020600020905b8154815290600101906020018083116127ee57829003601f168201915b50505050508152505081526020019060010190612732565b5050505090506000815190508261283b57600061283e565b60015b61284b9060ff1682614ac4565b67ffffffffffffffff8111156128635761286361344f565b6040519080825280602002602001820160405280156128b057816020015b604080516060808201835260008083526020830152918101919091528152602001906001900390816128815790505b50945060005b818110156128fd578281815181106128d0576128d0614ad7565b60200260200101518682815181106128ea576128ea614ad7565b60209081029190910101526001016128b6565b50821561293d578360008151811061291757612917614ad7565b602002602001015185828151811061293157612931614ad7565b60200260200101819052505b61294b6101608901896159b9565b8080601f016020809104026020016040519081016040528093929190818152602001838380828437600092019190915250999b929a50969850909650505050505050565b6040517f1f51045300000000000000000000000000000000000000000000000000000000815260048101829052600090819073ffffffffffffffffffffffffffffffffffffffff7f00000000000000000000000000000000000000000000000000000000000000001690631f510453906024016103c060405180830381865afa158015612a20573d6000803e3d6000fd5b505050506040513d601f19601f82011682018060405250810190612a449190615bda565b5060008581526002602052604081208054939550919350919082612a6783615c91565b90915550600085815260208190526040902054909150801580612a8957508082145b80612a98575042846060015110155b15612acf576040517fc97554fa00000000000000000000000000000000000000000000000000000000815260040160405180910390fd5b6000858152602081905260408120805484908110612aef57612aef614ad7565b6000918252602080832060408051808201825293909101546fffffffffffffffffffffffffffffffff808216855270010000000000000000000000000000000090910481168484019081528251608080820185528c810151825281860188905260c0808e01518387015260608084018a905286516102a08101885261024081018b815261026082018c905261028082018c905281528951909616868901528d87015196860196909652948401889052830187905260a0830187905292820186905260e08201869052610100820186905261012082018690526101408201869052610160820186905261018082018690526101a082018690526101c082018690526101e0820195909552610200808a015173ffffffffffffffffffffffffffffffffffffffff908116918301919091526102208a810151908301529451928a01519395507f00000000000000000000000000000000000000000000000000000000000000009094169363badbdf28938b9390612c6b908590613183565b6040805160008082526020820190925290612cf9565b612ce66040518060c00160405280600073ffffffffffffffffffffffffffffffffffffffff168152602001600073ffffffffffffffffffffffffffffffffffffffff168152602001600081526020016000815260200160008152602001600081525090565b815260200190600190039081612c815790505b506040518763ffffffff1660e01b8152600401612d1b96959493929190615cc9565b6020604051808303816000875af1158015612d3a573d6000803e3d6000fd5b505050506040513d601f19601f82011682018060405250810190612d5e9190614a7c565b50505050505050565b604080516001808252818301909252606091816020015b604080518082019091526000815260606020820152815260200190600190039081612d7e57505060408051600180825281830190925291925060009190602082015b6040805160e08101825260008082526020808301829052928201819052606082018190526080820181905260a0820181905260c082015282527fffffffffffffffffffffffffffffffffffffffffffffffffffffffffffffffff909201910181612dc05790505090506040518060e00160405280600015158152602001600015158152602001633b9aca008152602001600081526020018473ffffffffffffffffffffffffffffffffffffffff16815260200160008152602001600073ffffffffffffffffffffffffffffffffffffffff1681525081600081518110612ea857612ea8614ad7565b60200260200101819052506040518060400160405280600281526020018281525082600081518110612edc57612edc614ad7565b602002602001018190525050919050565b602081810151516040805160808101825260008082529381018490529081018390526060810183905290915b828110156130195783602001518181518110612f3757612f37614ad7565b6020908102919091018101518551918101516040808301516060840151845192517f7b621d3a000000000000000000000000000000000000000000000000000000008152600481018c905262ffffff909416602485015263ffffffff918216604485015216606483015273ffffffffffffffffffffffffffffffffffffffff9081166084830152919450911690637b621d3a9060a4016020604051808303816000875af1158015612fec573d6000803e3d6000fd5b505050506040513d601f19601f8201168201806040525081019061301091906149ee565b50600101612f19565b5050505050565b805160018111156130b55760015b818110156130b3576000848152602081905260409020835184908390811061305857613058614ad7565b602090810291909101810151825460018181018555600094855293839020825192909301516fffffffffffffffffffffffffffffffff908116700100000000000000000000000000000000029216919091179101550161302e565b505b505050565b805160005b818110156130b3578281815181106130d9576130d9614ad7565b602002602001015160046000868152602001908152602001600020828154811061310557613105614ad7565b600091825260209182902083516003929092020180547fffffffffffffffffffffffff00000000000000000000000000000000000000001673ffffffffffffffffffffffffffffffffffffffff909216919091178155908201516001820155604082015160028201906131789082615def565b5050506001016130bf565b604080516001808252818301909252606091816020015b60408051808201909152600081526060602082015281526020019060019003908161319a57905050905060007f000000000000000000000000000000000000000000000000000000000000000073ffffffffffffffffffffffffffffffffffffffff16632bdfe0046040518163ffffffff1660e01b8152600401602060405180830381865afa158015613231573d6000803e3d6000fd5b505050506040513d601f19601f8201168201806040525081019061325591906149ee565b6040517f69e11cc500000000000000000000000000000000000000000000000000000000815260048101869052602481018590526002604482015273ffffffffffffffffffffffffffffffffffffffff91909116906369e11cc590606401600060405180830381865afa1580156132d0573d6000803e3d6000fd5b505050506040513d6000823e601f3d9081017fffffffffffffffffffffffffffffffffffffffffffffffffffffffffffffffe01682016040526133169190810190615f09565b9050604051806040016040528060028152602001828152508260008151811061334157613341614ad7565b60200260200101819052505092915050565b60006020828403121561336557600080fd5b5035919050565b602080825282518282018190526000919060409081850190868401855b828110156133c457815180516fffffffffffffffffffffffffffffffff90811686529087015116868501529284019290850190600101613389565b5091979650505050505050565b6000602082840312156133e357600080fd5b81357fffffffff000000000000000000000000000000000000000000000000000000008116811461341357600080fd5b9392505050565b73ffffffffffffffffffffffffffffffffffffffff8116811461343c57600080fd5b50565b803561344a8161341a565b919050565b7f4e487b7100000000000000000000000000000000000000000000000000000000600052604160045260246000fd5b6040805190810167ffffffffffffffff811182821017156134a1576134a161344f565b60405290565b60405160c0810167ffffffffffffffff811182821017156134a1576134a161344f565b6040516080810167ffffffffffffffff811182821017156134a1576134a161344f565b604051610160810167ffffffffffffffff811182821017156134a1576134a161344f565b6040516060810167ffffffffffffffff811182821017156134a1576134a161344f565b604051610240810167ffffffffffffffff811182821017156134a1576134a161344f565b604051610120810167ffffffffffffffff811182821017156134a1576134a161344f565b60405160e0810167ffffffffffffffff811182821017156134a1576134a161344f565b604051601f82017fffffffffffffffffffffffffffffffffffffffffffffffffffffffffffffffe016810167ffffffffffffffff811182821017156135e6576135e661344f565b604052919050565b600067ffffffffffffffff8211156136085761360861344f565b50601f017fffffffffffffffffffffffffffffffffffffffffffffffffffffffffffffffe01660200190565b6000613647613642846135ee565b61359f565b905082815283838301111561365b57600080fd5b828260208301376000602084830101529392505050565b600082601f83011261368357600080fd5b61341383833560208501613634565b6000604082840312156136a457600080fd5b6136ac61347e565b9050813567ffffffffffffffff8111156136c557600080fd5b6136d184828501613672565b8252506020820135602082015292915050565b600067ffffffffffffffff8211156136fe576136fe61344f565b5060051b60200190565b80356fffffffffffffffffffffffffffffffff8116811461344a57600080fd5b600060c0828403121561373a57600080fd5b6137426134a7565b9050813581526020808301358183015260408084013581840152606084013560608401526080840135608084015260a084013567ffffffffffffffff81111561378a57600080fd5b8401601f8101861361379b57600080fd5b80356137a9613642826136e4565b81815260069190911b820184019084810190888311156137c857600080fd5b928501925b828410156138165784848a0312156137e55760008081fd5b6137ed61347e565b6137f685613708565b8152613803878601613708565b81880152825292840192908501906137cd565b60a087015250939695505050505050565b600082601f83011261383857600080fd5b81356020613848613642836136e4565b82815260059290921b8401810191818101908684111561386757600080fd5b8286015b8481101561388b57803561387e8161341a565b835291830191830161386b565b509695505050505050565b803562ffffff8116811461344a57600080fd5b803563ffffffff8116811461344a57600080fd5b600060408083850312156138d057600080fd5b6138d861347e565b915082356138e58161341a565b825260208381013567ffffffffffffffff81111561390257600080fd5b8401601f8101861361391357600080fd5b8035613921613642826136e4565b81815260079190911b8201830190838101908883111561394057600080fd5b928401925b828410156139b4576080848a03121561395e5760008081fd5b6139666134ca565b84356139718161341a565b815261397e858701613896565b8682015261398d8786016138a9565b87820152606061399e8187016138a9565b9082015282526080939093019290840190613945565b808588015250505050505092915050565b80356cffffffffffffffffffffffffff8116811461344a57600080fd5b803561ffff8116811461344a57600080fd5b801515811461343c57600080fd5b803561344a816139f4565b803565ffffffffffff8116811461344a57600080fd5b60006080808385031215613a3657600080fd5b613a3e6134ca565b9150823567ffffffffffffffff811115613a5757600080fd5b8301601f81018513613a6857600080fd5b80356020613a78613642836136e4565b8281526101609283028401820192828201919089851115613a9857600080fd5b948301945b84861015613b795780868b031215613ab55760008081fd5b613abd6134ed565b613ac6876139c5565b8152613ad38588016138a9565b858201526040613ae48189016138a9565b908201526060613af58882016139e2565b90820152613b0487890161343f565b8189015260a0878101359082015260c0613b1f818901613896565b9082015260e0613b30888201613a02565b90820152610100613b42888201613a02565b90820152610120613b54888201613a02565b90820152610140613b66888201613a02565b9082015283529485019491830191613a9d565b50865250613b88868201613a0d565b8186015250505050613b9c60408301613a0d565b6040820152613bad6060830161343f565b606082015292915050565b600060808284031215613bca57600080fd5b613bd26134ca565b90508135613bdf816139f4565b81526020820135613bef816139f4565b60208201526040820135613c02816139f4565b60408201526060820135613bad816139f4565b80356002811061344a57600080fd5b60006101c08284031215613c3757600080fd5b613c3f6134ed565b9050813567ffffffffffffffff80821115613c5957600080fd5b613c6585838601613672565b83526020840135915080821115613c7b57600080fd5b613c8785838601613672565b6020840152613c986040850161343f565b60408401526060840135915080821115613cb157600080fd5b613cbd85838601613672565b6060840152613cce6080850161343f565b608084015260a0840135915080821115613ce757600080fd5b613cf385838601613672565b60a084015260c0840135915080821115613d0c57600080fd5b50613d1984828501613a23565b60c083015250613d2b60e0830161343f565b60e0820152610100613d3e81840161343f565b90820152610120613d5184848301613bb8565b90820152613d626101a08301613c15565b61014082015292915050565b600082601f830112613d7f57600080fd5b81356020613d8f613642836136e4565b82815260059290921b84018101918181019086841115613dae57600080fd5b8286015b8481101561388b57803567ffffffffffffffff80821115613dd35760008081fd5b81890191506060807fffffffffffffffffffffffffffffffffffffffffffffffffffffffffffffffe0848d03011215613e0c5760008081fd5b613e14613511565b87840135613e218161341a565b815260408481013589830152918401359183831115613e405760008081fd5b82850194508c603f860112613e5757600093508384fd5b613e678d8a870135838801613634565b908201528652505050918301918301613db2565b803560ff8116811461344a57600080fd5b600082601f830112613e9d57600080fd5b81356020613ead613642836136e4565b828152600592831b8501820192828201919087851115613ecc57600080fd5b8387015b8581101561400857803567ffffffffffffffff80821115613ef15760008081fd5b818a01915060c0807fffffffffffffffffffffffffffffffffffffffffffffffffffffffffffffffe0848e03011215613f2a5760008081fd5b613f326134a7565b88840135613f3f8161341a565b808252506040808501358a830152606080860135828401526080808701358285015260a0915081870135818501525083860135935084841115613f825760008081fd5b83860195508e603f870112613f9957600094508485fd5b8a8601359450613fab613642866136e4565b85815294881b86018201948b810194508f861115613fc95760008081fd5b958201955b85871015613ff35786359250613fe38361341a565b828552958b0195938b0193613fce565b90830152508752505050928401928401613ed0565b5090979650505050505050565b60008060008060008060008060008060006101608c8e03121561403757600080fd5b6140408c61343f565b9a5067ffffffffffffffff8060208e0135111561405c57600080fd5b61406c8e60208f01358f01613692565b9a508060408e0135111561407f57600080fd5b61408f8e60408f01358f01613672565b99508060608e013511156140a257600080fd5b6140b28e60608f01358f01613672565b98508060808e013511156140c557600080fd5b6140d58e60808f01358f01613728565b97508060a08e013511156140e857600080fd5b6140f88e60a08f01358f01613827565b96508060c08e0135111561410b57600080fd5b61411b8e60c08f01358f016138bd565b95508060e08e0135111561412e57600080fd5b61413e8e60e08f01358f01613c24565b9450806101008e0135111561415257600080fd5b6141638e6101008f01358f01613d6e565b93506141726101208e01613e7b565b9250806101408e0135111561418657600080fd5b506141988d6101408e01358e01613e8c565b90509295989b509295989b9093969950565b6000806000806000608086880312156141c257600080fd5b85356141cd8161341a565b945060208601356141dd8161341a565b935060408601359250606086013567ffffffffffffffff8082111561420157600080fd5b818801915088601f83011261421557600080fd5b81358181111561422457600080fd5b89602082850101111561423657600080fd5b9699959850939650602001949392505050565b6000806000806000806000806000806101408b8d03121561426957600080fd5b6142728b61343f565b995060208b013567ffffffffffffffff8082111561428f57600080fd5b61429b8e838f01613692565b9a5060408d01359150808211156142b157600080fd5b6142bd8e838f01613672565b995060608d01359150808211156142d357600080fd5b6142df8e838f01613672565b985060808d01359150808211156142f557600080fd5b6143018e838f01613728565b975060a08d013591508082111561431757600080fd5b6143238e838f01613827565b965060c08d013591508082111561433957600080fd5b6143458e838f016138bd565b955060e08d013591508082111561435b57600080fd5b6143678e838f01613c24565b94506101008d013591508082111561437e57600080fd5b5061438b8d828e01613d6e565b92505061439b6101208c01613e7b565b90509295989b9194979a5092959850565b600080604083850312156143bf57600080fd5b8235915060208301356143d18161341a565b809150509250929050565b600080600080600080600060e0888a0312156143f757600080fd5b6144008861343f565b9650602088013567ffffffffffffffff8082111561441d57600080fd5b6144298b838c01613692565b975060408a013591508082111561443f57600080fd5b61444b8b838c01613672565b965060608a013591508082111561446157600080fd5b61446d8b838c01613672565b955060808a013591508082111561448357600080fd5b61448f8b838c01613728565b945060a08a01359150808211156144a557600080fd5b6144b18b838c01613827565b935060c08a01359150808211156144c757600080fd5b506144d48a828b016138bd565b91505092959891949750929550565b600080604083850312156144f657600080fd5b50508035926020909101359150565b60005b83811015614520578181015183820152602001614508565b50506000910152565b60008151808452614541816020860160208601614505565b601f017fffffffffffffffffffffffffffffffffffffffffffffffffffffffffffffffe0169290920160200192915050565b73ffffffffffffffffffffffffffffffffffffffff841681528260208201526060604082015260006145a86060830184614529565b95945050505050565b6000602082840312156145c357600080fd5b813567ffffffffffffffff8111156145da57600080fd5b82016101e0818503121561341357600080fd5b600060608583526020818185015261460782850187614529565b6040858203818701528187518084528484019150848160051b850101858a0160005b838110156146a4578683037fffffffffffffffffffffffffffffffffffffffffffffffffffffffffffffffe00185528151805173ffffffffffffffffffffffffffffffffffffffff16845288810151898501528601518684018a90526146918a850182614529565b9589019593505090870190600101614629565b50909c9b505050505050505050505050565b60008060008060008060008060006101208a8c0312156146d557600080fd5b6146de8a61343f565b985060208a013567ffffffffffffffff808211156146fb57600080fd5b6147078d838e01613692565b995060408c013591508082111561471d57600080fd5b6147298d838e01613672565b985060608c013591508082111561473f57600080fd5b61474b8d838e01613672565b975060808c013591508082111561476157600080fd5b61476d8d838e01613728565b965060a08c013591508082111561478357600080fd5b61478f8d838e01613827565b955060c08c01359150808211156147a557600080fd5b6147b18d838e016138bd565b945060e08c01359150808211156147c757600080fd5b506147d48c828d01613d6e565b9250506147e46101008b01613e7b565b90509295985092959850929598565b60006020828403121561480557600080fd5b813567ffffffffffffffff81111561481c57600080fd5b82016101a0818503121561341357600080fd5b600060608583526020818185015261484982850187614529565b6040858203818701528187518084528484019150848160051b850101858a0160005b838110156146a4578683037fffffffffffffffffffffffffffffffffffffffffffffffffffffffffffffffe00185528151805173ffffffffffffffffffffffffffffffffffffffff16845288810151898501528601518684018a90526148d38a850182614529565b958901959350509087019060010161486b565b6000604080830185845260208281860152818651808452606093508387019150838160051b8801018389016000805b848110156149dd578a84037fffffffffffffffffffffffffffffffffffffffffffffffffffffffffffffffa00186528251805173ffffffffffffffffffffffffffffffffffffffff908116865288820151898701528a8201518b870152898201518a8701526080808301519087015260a09182015160c0928701839052805192870183905289019160e087019185915b808310156149c757845182168452938b0193928b0192600192909201916149a5565b5050509688019694505091860191600101614915565b50919b9a5050505050505050505050565b600060208284031215614a0057600080fd5b81516134138161341a565b600060208083526080830173ffffffffffffffffffffffffffffffffffffffff85511682850152818501516040850152604085015160608086015281815180845260a0870191508483019350600092505b8083101561388b5783518252928401926001929092019190840190614a5c565b600060208284031215614a8e57600080fd5b5051919050565b7f4e487b7100000000000000000000000000000000000000000000000000000000600052601160045260246000fd5b8082018082111561056657610566614a95565b7f4e487b7100000000000000000000000000000000000000000000000000000000600052603260045260246000fd5b80516080808452815184820181905260009260a0916020918201918388019190865b82811015614beb57845180516cffffffffffffffffffffffffff1685528281015163ffffffff908116848701526040808301519091169086015260608082015161ffff16908601528781015173ffffffffffffffffffffffffffffffffffffffff1688860152868101518786015260c08082015162ffffff169086015260e0808201511515908601526101008082015115159086015261012080820151151590860152610140908101511515908501529381019361016090930192600101614b28565b508781015165ffffffffffff81168a8301529550505060408601519350614c1c604088018565ffffffffffff169052565b60608601519350614c45606088018573ffffffffffffffffffffffffffffffffffffffff169052565b9695505050505050565b60028110614c86577f4e487b7100000000000000000000000000000000000000000000000000000000600052602160045260246000fd5b9052565b82815260406020820152600082516101c06040840152614cae610200840182614529565b905060208401517fffffffffffffffffffffffffffffffffffffffffffffffffffffffffffffffc080858403016060860152614cea8383614529565b925060408601519150614d15608086018373ffffffffffffffffffffffffffffffffffffffff169052565b60608601519150808584030160a0860152614d308383614529565b925060808601519150614d5b60c086018373ffffffffffffffffffffffffffffffffffffffff169052565b60a08601519150808584030160e0860152614d768383614529565b925060c08601519150610100818685030181870152614d958484614b06565b935060e087015192506101209150614dc48287018473ffffffffffffffffffffffffffffffffffffffff169052565b8601519150610140614ded8682018473ffffffffffffffffffffffffffffffffffffffff169052565b908601518051151561016087015260208101511515610180870152604081015115156101a08701526060015115156101c08601528501519050614e346101e0850182614c4f565b50949350505050565b6000815480845260208085019450836000528060002060005b83811015614e7257815487529582019560019182019101614e56565b509495945050505050565b600073ffffffffffffffffffffffffffffffffffffffff808716835280861660208401525083604083015260806060830152614c456080830184614e3d565b805161344a816139f4565b600060208284031215614ed957600080fd5b8151613413816139f4565b73ffffffffffffffffffffffffffffffffffffffff831681526040602082015260008251604080840152614f1b6080840182614529565b905060208401516060840152809150509392505050565b838152606060208201526000614f4b6060830185614529565b8281036040840152614c458185614529565b808202811582820484141761056657610566614a95565b8181038181111561056657610566614a95565b614fac8282518051151582526020808201511515908301526040908101511515910152565b6020810151606083015260408101516080830152606081015160a08301526080810151614fdd60c084018215159052565b5060a081015180151560e08401525060c08101516101006150018185018315159052565b60e083015191506101206150188186018415159052565b9083015191506101409061502f8583018415159052565b83015191506101606150448582018415159052565b9083015191506101809061505b8583018415159052565b83015191506101a06150708582018415159052565b9083015191506101c0906150878583018415159052565b83015191506101e061509c8582018415159052565b908301519150610200906150b38583018415159052565b83015191506102206150c88582018415159052565b9083015173ffffffffffffffffffffffffffffffffffffffff16610240850152909101516102609092019190915250565b600081518084526020808501808196508360051b810191508286016000805b868110156151d8578385038a52825180518652860151604087870181905281518188018190529188019160609081890190865b818110156151c15785518051151584528c81015115158d8501528581015186850152848101518585015260808082015173ffffffffffffffffffffffffffffffffffffffff9081169186019190915260a0808301519086015260c0918201511690840152948b019460e09092019160010161514b565b50509c89019c975050509286019250600101615118565b509298975050505050505050565b600081518084526020808501945080840160005b83811015614e72578151805173ffffffffffffffffffffffffffffffffffffffff908116895284820151168489015260408082015190890152606080820151908901526080808201519089015260a0908101519088015260c090960195908201906001016151fa565b60006103c089835260206152b08185018b80518252602081015160208301526040810151604083015273ffffffffffffffffffffffffffffffffffffffff60608201511660608301525050565b6152bd60a085018a614f87565b6fffffffffffffffffffffffffffffffff8816610320850152816103408501526152e9828501886150f9565b91508382036103608501526152fe82876151e6565b848103610380860152855180825282870193509082019060005b8181101561534a57845173ffffffffffffffffffffffffffffffffffffffff1683529383019391830191600101615318565b50508481036103a0860152600f81527f7265766e6574206465706c6f79656400000000000000000000000000000000006020820152604081019c9b505050505050505050505050565b7f24000000000000000000000000000000000000000000000000000000000000008152600082516153cb816001850160208701614505565b7f207072656d696e746564000000000000000000000000000000000000000000006001939091019283015250600b01919050565b86815285602082015273ffffffffffffffffffffffffffffffffffffffff8516604082015260c06060820152600061543a60c0830186614529565b93151560808301525090151560a090910152949350505050565b600181811c9082168061546857607f821691505b6020821081036154a1577f4e487b7100000000000000000000000000000000000000000000000000000000600052602260045260246000fd5b50919050565b600181815b8085111561550057817fffffffffffffffffffffffffffffffffffffffffffffffffffffffffffffffff048211156154e6576154e6614a95565b808516156154f357918102915b93841c93908002906154ac565b509250929050565b60008261551757506001610566565b8161552457506000610566565b816001811461553a576002811461554457615560565b6001915050610566565b60ff84111561555557615555614a95565b50506001821b610566565b5060208310610133831016604e8410600b8410161715615583575081810a610566565b61558d83836154a7565b807fffffffffffffffffffffffffffffffffffffffffffffffffffffffffffffffff048211156155bf576155bf614a95565b029392505050565b600061341360ff841683615508565b80356155e18161341a565b73ffffffffffffffffffffffffffffffffffffffff1682526020818101359083015260408082013590830152606090810135910152565b60008083357fffffffffffffffffffffffffffffffffffffffffffffffffffffffffffffffe184360301811261564d57600080fd5b830160208101925035905067ffffffffffffffff81111561566d57600080fd5b80360382131561567c57600080fd5b9250929050565b8183528181602085013750600060208284010152600060207fffffffffffffffffffffffffffffffffffffffffffffffffffffffffffffffe0601f840116840101905092915050565b602081526156fa602082016156e08461343f565b73ffffffffffffffffffffffffffffffffffffffff169052565b60006157086020840161343f565b73ffffffffffffffffffffffffffffffffffffffff811660408401525061573560608301604085016155d6565b60c083013560e083015261010060e08401358184015261575681850161343f565b905061012061577c8185018373ffffffffffffffffffffffffffffffffffffffff169052565b610140915080850135828501525061016081850135818501526157a181860186615618565b925090506101a061018081818701526157bf6101c087018585615683565b93506157cd81880188615618565b935090507fffffffffffffffffffffffffffffffffffffffffffffffffffffffffffffffe08685030182870152615805848483615683565b979650505050505050565b600061581e613642846135ee565b905082815283838301111561583257600080fd5b613413836020830184614505565b60008060006060848603121561585557600080fd5b8351925060208085015167ffffffffffffffff8082111561587557600080fd5b818701915087601f83011261588957600080fd5b615897888351858501615810565b945060408701519150808211156158ad57600080fd5b818701915087601f8301126158c157600080fd5b81516158cf613642826136e4565b81815260059190911b8301840190848101908a8311156158ee57600080fd5b8585015b838110156159a85780518581111561590957600080fd5b86016060818e037fffffffffffffffffffffffffffffffffffffffffffffffffffffffffffffffe001121561593d57600080fd5b615945613511565b888201516159528161341a565b815260408201518982015260608201518781111561596f57600080fd5b8083019250508d603f83011261598457600080fd5b6159958e8a84015160408501615810565b60408201528452509186019186016158f2565b508096505050505050509250925092565b60008083357fffffffffffffffffffffffffffffffffffffffffffffffffffffffffffffffe18436030181126159ee57600080fd5b83018035915067ffffffffffffffff821115615a0957600080fd5b60200191503681900382131561567c57600080fd5b805161344a8161341a565b600060608284031215615a3b57600080fd5b615a43613511565b90508151615a50816139f4565b81526020820151615a60816139f4565b60208201526040820151615a73816139f4565b604082015292915050565b60006102808284031215615a9157600080fd5b615a99613534565b9050615aa58383615a29565b8152606082015160208201526080820151604082015260a08201516060820152615ad160c08301614ebc565b6080820152615ae260e08301614ebc565b60a0820152610100615af5818401614ebc565b60c0830152610120615b08818501614ebc565b60e0840152610140615b1b818601614ebc565b838501526101609250615b2f838601614ebc565b828501526101809150615b43828601614ebc565b908401526101a0615b55858201614ebc565b838501526101c09250615b69838601614ebc565b828501526101e09150615b7d828601614ebc565b90840152610200615b8f858201614ebc565b838501526102209250615ba3838601614ebc565b82850152615bb46102408601615a1e565b818501525050610260830151818301525092915050565b80516003811061344a57600080fd5b60008060008385036103c0811215615bf157600080fd5b61012080821215615c0157600080fd5b615c09613558565b9150855182526020860151602083015260408601516040830152606086015160608301526080860151608083015260a086015160a083015260c086015160c0830152615c5760e08701615a1e565b60e0830152610100808701518184015250819450615c7787828801615a7e565b93505050615c886103a08501615bcb565b90509250925092565b60007fffffffffffffffffffffffffffffffffffffffffffffffffffffffffffffffff8203615cc257615cc2614a95565b5060010190565b60006103a0888352615d15602084018980518252602081015160208301526040810151604083015273ffffffffffffffffffffffffffffffffffffffff60608201511660608301525050565b615d2260a0840188614f87565b6fffffffffffffffffffffffffffffffff861661032084015280610340840152615d4e818401866150f9565b9050828103610360840152615d6381856151e6565b838103610380909401939093525050601681527f7265766e657420626f6f7374207363686564756c65640000000000000000000060208201526040019695505050505050565b601f8211156130b557600081815260208120601f850160051c81016020861015615dd05750805b601f850160051c820191505b8181101561114b57828155600101615ddc565b815167ffffffffffffffff811115615e0957615e0961344f565b615e1d81615e178454615454565b84615da9565b602080601f831160018114615e705760008415615e3a5750858301515b7fffffffffffffffffffffffffffffffffffffffffffffffffffffffffffffffff600386901b1c1916600185901b17855561114b565b6000858152602081207fffffffffffffffffffffffffffffffffffffffffffffffffffffffffffffffe08616915b82811015615ebd57888601518255948401946001909101908401615e9e565b5085821015615ef957878501517fffffffffffffffffffffffffffffffffffffffffffffffffffffffffffffffff600388901b60f8161c191681555b5050505050600190811b01905550565b60006020808385031215615f1c57600080fd5b825167ffffffffffffffff811115615f3357600080fd5b8301601f81018513615f4457600080fd5b8051615f52613642826136e4565b81815260e09182028301840191848201919088841115615f7157600080fd5b938501935b838510156119285780858a031215615f8e5760008081fd5b615f9661357c565b8551615fa1816139f4565b815285870151615fb0816139f4565b818801526040868101519082015260608087015190820152608080870151615fd78161341a565b9082015260a0868101519082015260c080870151615ff48161341a565b9082015283529384019391850191615f7656fea26469706673582212200a72a99663dbee330e55e367c6903708ced6e5b19902085dd413c14d7d6cdaad64736f6c63430008150033",
    "linkReferences": {}
  },
  "methodIdentifiers": {
    "boostOperatorPermissionIndexes(uint256)": "b82f18c1",
    "boostsOf(uint256)": "01a7d01a",
    "buybackHookOf(uint256)": "7249a773",
    "buybackHookPermissionIndexes(uint256)": "086e941b",
    "controller()": "f77c4791",
    "croptopPermissionIndexes(uint256)": "42921698",
    "currentBoostNumberOf(uint256)": "ad011669",
    "deployCroptopRevnetFor(address,(string,uint256),string,string,(uint256,uint256,uint256,uint256,uint256,(uint128,uint128)[]),address[],(address,(address,uint24,uint32,uint32)[]),(string,string,address,string,address,string,((uint104,uint32,uint32,uint16,address,bytes32,uint24,bool,bool,bool,bool)[],uint48,uint48,address),address,address,(bool,bool,bool,bool),uint8),(address,uint256,bytes)[],uint8,(address,uint256,uint256,uint256,uint256,address[])[])": "145cae6a",
    "deployPayHookNetworkFor(address,(string,uint256),string,string,(uint256,uint256,uint256,uint256,uint256,(uint128,uint128)[]),address[],(address,(address,uint24,uint32,uint32)[]),(address,uint256,bytes)[],uint8)": "b58e84cc",
    "deployRevnetFor(address,(string,uint256),string,string,(uint256,uint256,uint256,uint256,uint256,(uint128,uint128)[]),address[],(address,(address,uint24,uint32,uint32)[]))": "48dc59b6",
    "deployTiered721RevnetFor(address,(string,uint256),string,string,(uint256,uint256,uint256,uint256,uint256,(uint128,uint128)[]),address[],(address,(address,uint24,uint32,uint32)[]),(string,string,address,string,address,string,((uint104,uint32,uint32,uint16,address,bytes32,uint24,bool,bool,bool,bool)[],uint48,uint48,address),address,address,(bool,bool,bool,bool),uint8),(address,uint256,bytes)[],uint8)": "34116e8f",
    "directory()": "c41c2f24",
    "onERC721Received(address,address,uint256,bytes)": "150b7a02",
    "payHooksOf(uint256,uint256)": "7a56f982",
    "payParams((address,address,(address,uint256,uint256,uint256),uint256,uint256,address,uint256,uint256,string,bytes))": "d46cf171",
    "publisher()": "8c72c54e",
    "redeemParams((address,address,uint256,uint256,uint256,uint256,uint256,(address,uint256,uint256,uint256),bool,uint256,string,bytes))": "a51cfd18",
    "replaceBoostOperatorOf(uint256,address)": "440cfb7b",
    "scheduleNextBoostOf(uint256)": "ec3004ac",
    "supportsInterface(bytes4)": "01ffc9a7",
    "tiered721HookDeployer()": "ade6b6db"
  },
  "id": 103
}