{
  "abi": [
    {
      "inputs": [],
      "name": "ETH",
      "outputs": [
        {
          "internalType": "address",
          "name": "",
          "type": "address"
        }
      ],
      "stateMutability": "view",
      "type": "function"
    }
  ],
  "bytecode": {
    "object": "0x609f610038600b82828239805160001a607314602b57634e487b7160e01b600052600060045260246000fd5b30600052607381538281f3fe730000000000000000000000000000000000000000301460806040526004361060335760003560e01c80638322fff2146038575b600080fd5b604061eeee81565b60405173ffffffffffffffffffffffffffffffffffffffff909116815260200160405180910390f3fea2646970667358221220b37b160c7d0e632855ae79943256fd644825090c2939e32066869f096ca0232164736f6c63430008150033",
    "linkReferences": {}
  },
  "methodIdentifiers": {
    "ETH()": "8322fff2"
  },
  "id": 74
}