{
  "abi": [
    {
      "inputs": [
        {
          "internalType": "contract CroptopPublisher",
          "name": "_publisher",
          "type": "address"
        },
        {
          "internalType": "contract IJBDirectory",
          "name": "_directory",
          "type": "address"
        },
        {
          "internalType": "contract IJBTiered721DelegateDeployer",
          "name": "_delegateDeployer",
          "type": "address"
        },
        {
          "internalType": "contract IJBController3_1",
          "name": "_controller",
          "type": "address"
        }
      ],
      "stateMutability": "nonpayable",
      "type": "constructor"
    },
    {
      "inputs": [],
      "name": "BAD_DEV_TAX_SEQUENCE",
      "type": "error"
    },
    {
      "inputs": [],
      "name": "RECONFIGURATION_ALREADY_SCHEDULED",
      "type": "error"
    },
    {
      "inputs": [],
      "name": "RECONFIGURATION_NOT_POSSIBLE",
      "type": "error"
    },
    {
      "inputs": [
        {
          "internalType": "uint256",
          "name": "",
          "type": "uint256"
        }
      ],
      "name": "buybackDelegateDataSourceOf",
      "outputs": [
        {
          "internalType": "contract IJBGenericBuybackDelegate",
          "name": "",
          "type": "address"
        }
      ],
      "stateMutability": "view",
      "type": "function"
    },
    {
      "inputs": [
        {
          "internalType": "uint256",
          "name": "",
          "type": "uint256"
        }
      ],
      "name": "buybackDelegatePermissionIndexes",
      "outputs": [
        {
          "internalType": "uint256",
          "name": "",
          "type": "uint256"
        }
      ],
      "stateMutability": "view",
      "type": "function"
    },
    {
      "inputs": [],
      "name": "controller",
      "outputs": [
        {
          "internalType": "contract IJBController3_1",
          "name": "",
          "type": "address"
        }
      ],
      "stateMutability": "view",
      "type": "function"
    },
    {
      "inputs": [
        {
          "internalType": "uint256",
          "name": "",
          "type": "uint256"
        }
      ],
      "name": "croptopPermissionIndexes",
      "outputs": [
        {
          "internalType": "uint256",
          "name": "",
          "type": "uint256"
        }
      ],
      "stateMutability": "view",
      "type": "function"
    },
    {
      "inputs": [
        {
          "internalType": "uint256",
          "name": "networkId",
          "type": "uint256"
        }
      ],
      "name": "currentDevTaxPeriodNumberOf",
      "outputs": [
        {
          "internalType": "uint256",
          "name": "",
          "type": "uint256"
        }
      ],
      "stateMutability": "view",
      "type": "function"
    },
    {
      "inputs": [
        {
          "internalType": "uint256",
          "name": "",
          "type": "uint256"
        },
        {
          "internalType": "uint256",
          "name": "",
          "type": "uint256"
        }
      ],
      "name": "delegateAllocationsOf",
      "outputs": [
        {
          "internalType": "contract IJBPayDelegate3_1_1",
          "name": "delegate",
          "type": "address"
        },
        {
          "internalType": "uint256",
          "name": "amount",
          "type": "uint256"
        },
        {
          "internalType": "bytes",
          "name": "metadata",
          "type": "bytes"
        }
      ],
      "stateMutability": "view",
      "type": "function"
    },
    {
      "inputs": [],
      "name": "delegateDeployer",
      "outputs": [
        {
          "internalType": "contract IJBTiered721DelegateDeployer",
          "name": "",
          "type": "address"
        }
      ],
      "stateMutability": "view",
      "type": "function"
    },
    {
      "inputs": [
        {
          "internalType": "address",
          "name": "_operator",
          "type": "address"
        },
        {
          "components": [
            {
              "internalType": "string",
              "name": "content",
              "type": "string"
            },
            {
              "internalType": "uint256",
              "name": "domain",
              "type": "uint256"
            }
          ],
          "internalType": "struct JBProjectMetadata",
          "name": "_networkMetadata",
          "type": "tuple"
        },
        {
          "internalType": "string",
          "name": "_name",
          "type": "string"
        },
        {
          "internalType": "string",
          "name": "_symbol",
          "type": "string"
        },
        {
          "components": [
            {
              "internalType": "uint256",
              "name": "initialIssuanceRate",
              "type": "uint256"
            },
            {
              "internalType": "uint256",
              "name": "premintTokenAmount",
              "type": "uint256"
            },
            {
              "internalType": "uint256",
              "name": "generationTax",
              "type": "uint256"
            },
            {
              "internalType": "uint256",
              "name": "generationDuration",
              "type": "uint256"
            },
            {
              "internalType": "uint256",
              "name": "exitTaxRate",
              "type": "uint256"
            },
            {
              "components": [
                {
                  "internalType": "uint128",
                  "name": "rate",
                  "type": "uint128"
                },
                {
                  "internalType": "uint128",
                  "name": "startsAtOrAfter",
                  "type": "uint128"
                }
              ],
              "internalType": "struct DevTaxPeriod[]",
              "name": "devTaxPeriods",
              "type": "tuple[]"
            },
            {
              "internalType": "uint24",
              "name": "poolFee",
              "type": "uint24"
            }
          ],
          "internalType": "struct BasicRetailistJBParams",
          "name": "_data",
          "type": "tuple"
        },
        {
          "internalType": "contract IJBPaymentTerminal[]",
          "name": "_terminals",
          "type": "address[]"
        },
        {
          "internalType": "contract IJBGenericBuybackDelegate",
          "name": "_buybackDelegate",
          "type": "address"
        }
      ],
      "name": "deployBasicNetworkFor",
      "outputs": [
        {
          "internalType": "uint256",
          "name": "networkId",
          "type": "uint256"
        }
      ],
      "stateMutability": "nonpayable",
      "type": "function"
    },
    {
      "inputs": [
        {
          "internalType": "address",
          "name": "_operator",
          "type": "address"
        },
        {
          "components": [
            {
              "internalType": "string",
              "name": "content",
              "type": "string"
            },
            {
              "internalType": "uint256",
              "name": "domain",
              "type": "uint256"
            }
          ],
          "internalType": "struct JBProjectMetadata",
          "name": "_networkMetadata",
          "type": "tuple"
        },
        {
          "internalType": "string",
          "name": "_name",
          "type": "string"
        },
        {
          "internalType": "string",
          "name": "_symbol",
          "type": "string"
        },
        {
          "components": [
            {
              "internalType": "uint256",
              "name": "initialIssuanceRate",
              "type": "uint256"
            },
            {
              "internalType": "uint256",
              "name": "premintTokenAmount",
              "type": "uint256"
            },
            {
              "internalType": "uint256",
              "name": "generationTax",
              "type": "uint256"
            },
            {
              "internalType": "uint256",
              "name": "generationDuration",
              "type": "uint256"
            },
            {
              "internalType": "uint256",
              "name": "exitTaxRate",
              "type": "uint256"
            },
            {
              "components": [
                {
                  "internalType": "uint128",
                  "name": "rate",
                  "type": "uint128"
                },
                {
                  "internalType": "uint128",
                  "name": "startsAtOrAfter",
                  "type": "uint128"
                }
              ],
              "internalType": "struct DevTaxPeriod[]",
              "name": "devTaxPeriods",
              "type": "tuple[]"
            },
            {
              "internalType": "uint24",
              "name": "poolFee",
              "type": "uint24"
            }
          ],
          "internalType": "struct BasicRetailistJBParams",
          "name": "_data",
          "type": "tuple"
        },
        {
          "internalType": "contract IJBPaymentTerminal[]",
          "name": "_terminals",
          "type": "address[]"
        },
        {
          "internalType": "contract IJBGenericBuybackDelegate",
          "name": "_buybackDelegate",
          "type": "address"
        },
        {
          "components": [
            {
              "internalType": "string",
              "name": "name",
              "type": "string"
            },
            {
              "internalType": "string",
              "name": "symbol",
              "type": "string"
            },
            {
              "internalType": "contract IJBFundingCycleStore",
              "name": "fundingCycleStore",
              "type": "address"
            },
            {
              "internalType": "string",
              "name": "baseUri",
              "type": "string"
            },
            {
              "internalType": "contract IJB721TokenUriResolver",
              "name": "tokenUriResolver",
              "type": "address"
            },
            {
              "internalType": "string",
              "name": "contractUri",
              "type": "string"
            },
            {
              "components": [
                {
                  "components": [
                    {
                      "internalType": "uint104",
                      "name": "price",
                      "type": "uint104"
                    },
                    {
                      "internalType": "uint32",
                      "name": "initialQuantity",
                      "type": "uint32"
                    },
                    {
                      "internalType": "uint32",
                      "name": "votingUnits",
                      "type": "uint32"
                    },
                    {
                      "internalType": "uint16",
                      "name": "reservedRate",
                      "type": "uint16"
                    },
                    {
                      "internalType": "address",
                      "name": "reservedTokenBeneficiary",
                      "type": "address"
                    },
                    {
                      "internalType": "bytes32",
                      "name": "encodedIPFSUri",
                      "type": "bytes32"
                    },
                    {
                      "internalType": "uint24",
                      "name": "category",
                      "type": "uint24"
                    },
                    {
                      "internalType": "bool",
                      "name": "allowManualMint",
                      "type": "bool"
                    },
                    {
                      "internalType": "bool",
                      "name": "shouldUseReservedTokenBeneficiaryAsDefault",
                      "type": "bool"
                    },
                    {
                      "internalType": "bool",
                      "name": "transfersPausable",
                      "type": "bool"
                    },
                    {
                      "internalType": "bool",
                      "name": "useVotingUnits",
                      "type": "bool"
                    }
                  ],
                  "internalType": "struct JB721TierParams[]",
                  "name": "tiers",
                  "type": "tuple[]"
                },
                {
                  "internalType": "uint48",
                  "name": "currency",
                  "type": "uint48"
                },
                {
                  "internalType": "uint48",
                  "name": "decimals",
                  "type": "uint48"
                },
                {
                  "internalType": "contract IJBPrices",
                  "name": "prices",
                  "type": "address"
                }
              ],
              "internalType": "struct JB721PricingParams",
              "name": "pricing",
              "type": "tuple"
            },
            {
              "internalType": "address",
              "name": "reservedTokenBeneficiary",
              "type": "address"
            },
            {
              "internalType": "contract IJBTiered721DelegateStore",
              "name": "store",
              "type": "address"
            },
            {
              "components": [
                {
                  "internalType": "bool",
                  "name": "lockReservedTokenChanges",
                  "type": "bool"
                },
                {
                  "internalType": "bool",
                  "name": "lockVotingUnitChanges",
                  "type": "bool"
                },
                {
                  "internalType": "bool",
                  "name": "lockManualMintingChanges",
                  "type": "bool"
                },
                {
                  "internalType": "bool",
                  "name": "preventOverspending",
                  "type": "bool"
                }
              ],
              "internalType": "struct JBTiered721Flags",
              "name": "flags",
              "type": "tuple"
            },
            {
              "internalType": "enum JB721GovernanceType",
              "name": "governanceType",
              "type": "uint8"
            }
          ],
          "internalType": "struct JBDeployTiered721DelegateData",
          "name": "_deployTiered721DelegateData",
          "type": "tuple"
        },
        {
          "components": [
            {
              "internalType": "contract IJBPayDelegate3_1_1",
              "name": "delegate",
              "type": "address"
            },
            {
              "internalType": "uint256",
              "name": "amount",
              "type": "uint256"
            },
            {
              "internalType": "bytes",
              "name": "metadata",
              "type": "bytes"
            }
          ],
          "internalType": "struct JBPayDelegateAllocation3_1_1[]",
          "name": "_otherDelegateAllocations",
          "type": "tuple[]"
        },
        {
          "internalType": "uint8",
          "name": "_extraFundingCycleMetadata",
          "type": "uint8"
        },
        {
          "components": [
            {
              "internalType": "address",
              "name": "nft",
              "type": "address"
            },
            {
              "internalType": "uint256",
              "name": "category",
              "type": "uint256"
            },
            {
              "internalType": "uint256",
              "name": "minimumPrice",
              "type": "uint256"
            },
            {
              "internalType": "uint256",
              "name": "minimumTotalSupply",
              "type": "uint256"
            },
            {
              "internalType": "uint256",
              "name": "maximumTotalSupply",
              "type": "uint256"
            },
            {
              "internalType": "address[]",
              "name": "allowedAddresses",
              "type": "address[]"
            }
          ],
          "internalType": "struct AllowedPost[]",
          "name": "_allowedPosts",
          "type": "tuple[]"
        }
      ],
      "name": "deployCroptopTiered721PayAllocatorNetworkFor",
      "outputs": [
        {
          "internalType": "uint256",
          "name": "networkId",
          "type": "uint256"
        }
      ],
      "stateMutability": "nonpayable",
      "type": "function"
    },
    {
      "inputs": [
        {
          "internalType": "address",
          "name": "_operator",
          "type": "address"
        },
        {
          "components": [
            {
              "internalType": "string",
              "name": "content",
              "type": "string"
            },
            {
              "internalType": "uint256",
              "name": "domain",
              "type": "uint256"
            }
          ],
          "internalType": "struct JBProjectMetadata",
          "name": "_networkMetadata",
          "type": "tuple"
        },
        {
          "internalType": "string",
          "name": "_name",
          "type": "string"
        },
        {
          "internalType": "string",
          "name": "_symbol",
          "type": "string"
        },
        {
          "components": [
            {
              "internalType": "uint256",
              "name": "initialIssuanceRate",
              "type": "uint256"
            },
            {
              "internalType": "uint256",
              "name": "premintTokenAmount",
              "type": "uint256"
            },
            {
              "internalType": "uint256",
              "name": "generationTax",
              "type": "uint256"
            },
            {
              "internalType": "uint256",
              "name": "generationDuration",
              "type": "uint256"
            },
            {
              "internalType": "uint256",
              "name": "exitTaxRate",
              "type": "uint256"
            },
            {
              "components": [
                {
                  "internalType": "uint128",
                  "name": "rate",
                  "type": "uint128"
                },
                {
                  "internalType": "uint128",
                  "name": "startsAtOrAfter",
                  "type": "uint128"
                }
              ],
              "internalType": "struct DevTaxPeriod[]",
              "name": "devTaxPeriods",
              "type": "tuple[]"
            },
            {
              "internalType": "uint24",
              "name": "poolFee",
              "type": "uint24"
            }
          ],
          "internalType": "struct BasicRetailistJBParams",
          "name": "_data",
          "type": "tuple"
        },
        {
          "internalType": "contract IJBPaymentTerminal[]",
          "name": "_terminals",
          "type": "address[]"
        },
        {
          "internalType": "contract IJBGenericBuybackDelegate",
          "name": "_buybackDelegate",
          "type": "address"
        },
        {
          "components": [
            {
              "internalType": "contract IJBPayDelegate3_1_1",
              "name": "delegate",
              "type": "address"
            },
            {
              "internalType": "uint256",
              "name": "amount",
              "type": "uint256"
            },
            {
              "internalType": "bytes",
              "name": "metadata",
              "type": "bytes"
            }
          ],
          "internalType": "struct JBPayDelegateAllocation3_1_1[]",
          "name": "_delegateAllocations",
          "type": "tuple[]"
        },
        {
          "internalType": "uint8",
          "name": "_extraFundingCycleMetadata",
          "type": "uint8"
        }
      ],
      "name": "deployPayAllocatorNetworkFor",
      "outputs": [
        {
          "internalType": "uint256",
          "name": "networkId",
          "type": "uint256"
        }
      ],
      "stateMutability": "nonpayable",
      "type": "function"
    },
    {
      "inputs": [
        {
          "internalType": "address",
          "name": "_operator",
          "type": "address"
        },
        {
          "components": [
            {
              "internalType": "string",
              "name": "content",
              "type": "string"
            },
            {
              "internalType": "uint256",
              "name": "domain",
              "type": "uint256"
            }
          ],
          "internalType": "struct JBProjectMetadata",
          "name": "_networkMetadata",
          "type": "tuple"
        },
        {
          "internalType": "string",
          "name": "_name",
          "type": "string"
        },
        {
          "internalType": "string",
          "name": "_symbol",
          "type": "string"
        },
        {
          "components": [
            {
              "internalType": "uint256",
              "name": "initialIssuanceRate",
              "type": "uint256"
            },
            {
              "internalType": "uint256",
              "name": "premintTokenAmount",
              "type": "uint256"
            },
            {
              "internalType": "uint256",
              "name": "generationTax",
              "type": "uint256"
            },
            {
              "internalType": "uint256",
              "name": "generationDuration",
              "type": "uint256"
            },
            {
              "internalType": "uint256",
              "name": "exitTaxRate",
              "type": "uint256"
            },
            {
              "components": [
                {
                  "internalType": "uint128",
                  "name": "rate",
                  "type": "uint128"
                },
                {
                  "internalType": "uint128",
                  "name": "startsAtOrAfter",
                  "type": "uint128"
                }
              ],
              "internalType": "struct DevTaxPeriod[]",
              "name": "devTaxPeriods",
              "type": "tuple[]"
            },
            {
              "internalType": "uint24",
              "name": "poolFee",
              "type": "uint24"
            }
          ],
          "internalType": "struct BasicRetailistJBParams",
          "name": "_data",
          "type": "tuple"
        },
        {
          "internalType": "contract IJBPaymentTerminal[]",
          "name": "_terminals",
          "type": "address[]"
        },
        {
          "internalType": "contract IJBGenericBuybackDelegate",
          "name": "_buybackDelegate",
          "type": "address"
        },
        {
          "components": [
            {
              "internalType": "string",
              "name": "name",
              "type": "string"
            },
            {
              "internalType": "string",
              "name": "symbol",
              "type": "string"
            },
            {
              "internalType": "contract IJBFundingCycleStore",
              "name": "fundingCycleStore",
              "type": "address"
            },
            {
              "internalType": "string",
              "name": "baseUri",
              "type": "string"
            },
            {
              "internalType": "contract IJB721TokenUriResolver",
              "name": "tokenUriResolver",
              "type": "address"
            },
            {
              "internalType": "string",
              "name": "contractUri",
              "type": "string"
            },
            {
              "components": [
                {
                  "components": [
                    {
                      "internalType": "uint104",
                      "name": "price",
                      "type": "uint104"
                    },
                    {
                      "internalType": "uint32",
                      "name": "initialQuantity",
                      "type": "uint32"
                    },
                    {
                      "internalType": "uint32",
                      "name": "votingUnits",
                      "type": "uint32"
                    },
                    {
                      "internalType": "uint16",
                      "name": "reservedRate",
                      "type": "uint16"
                    },
                    {
                      "internalType": "address",
                      "name": "reservedTokenBeneficiary",
                      "type": "address"
                    },
                    {
                      "internalType": "bytes32",
                      "name": "encodedIPFSUri",
                      "type": "bytes32"
                    },
                    {
                      "internalType": "uint24",
                      "name": "category",
                      "type": "uint24"
                    },
                    {
                      "internalType": "bool",
                      "name": "allowManualMint",
                      "type": "bool"
                    },
                    {
                      "internalType": "bool",
                      "name": "shouldUseReservedTokenBeneficiaryAsDefault",
                      "type": "bool"
                    },
                    {
                      "internalType": "bool",
                      "name": "transfersPausable",
                      "type": "bool"
                    },
                    {
                      "internalType": "bool",
                      "name": "useVotingUnits",
                      "type": "bool"
                    }
                  ],
                  "internalType": "struct JB721TierParams[]",
                  "name": "tiers",
                  "type": "tuple[]"
                },
                {
                  "internalType": "uint48",
                  "name": "currency",
                  "type": "uint48"
                },
                {
                  "internalType": "uint48",
                  "name": "decimals",
                  "type": "uint48"
                },
                {
                  "internalType": "contract IJBPrices",
                  "name": "prices",
                  "type": "address"
                }
              ],
              "internalType": "struct JB721PricingParams",
              "name": "pricing",
              "type": "tuple"
            },
            {
              "internalType": "address",
              "name": "reservedTokenBeneficiary",
              "type": "address"
            },
            {
              "internalType": "contract IJBTiered721DelegateStore",
              "name": "store",
              "type": "address"
            },
            {
              "components": [
                {
                  "internalType": "bool",
                  "name": "lockReservedTokenChanges",
                  "type": "bool"
                },
                {
                  "internalType": "bool",
                  "name": "lockVotingUnitChanges",
                  "type": "bool"
                },
                {
                  "internalType": "bool",
                  "name": "lockManualMintingChanges",
                  "type": "bool"
                },
                {
                  "internalType": "bool",
                  "name": "preventOverspending",
                  "type": "bool"
                }
              ],
              "internalType": "struct JBTiered721Flags",
              "name": "flags",
              "type": "tuple"
            },
            {
              "internalType": "enum JB721GovernanceType",
              "name": "governanceType",
              "type": "uint8"
            }
          ],
          "internalType": "struct JBDeployTiered721DelegateData",
          "name": "_deployTiered721DelegateData",
          "type": "tuple"
        },
        {
          "components": [
            {
              "internalType": "contract IJBPayDelegate3_1_1",
              "name": "delegate",
              "type": "address"
            },
            {
              "internalType": "uint256",
              "name": "amount",
              "type": "uint256"
            },
            {
              "internalType": "bytes",
              "name": "metadata",
              "type": "bytes"
            }
          ],
          "internalType": "struct JBPayDelegateAllocation3_1_1[]",
          "name": "_otherDelegateAllocations",
          "type": "tuple[]"
        },
        {
          "internalType": "uint8",
          "name": "_extraFundingCycleMetadata",
          "type": "uint8"
        }
      ],
      "name": "deployTiered721PayAllocatorNetworkFor",
      "outputs": [
        {
          "internalType": "uint256",
          "name": "networkId",
          "type": "uint256"
        }
      ],
      "stateMutability": "nonpayable",
      "type": "function"
    },
    {
      "inputs": [
        {
          "internalType": "uint256",
          "name": "networkId",
          "type": "uint256"
        },
        {
          "internalType": "uint256",
          "name": "",
          "type": "uint256"
        }
      ],
      "name": "devTaxPeriodsOf",
      "outputs": [
        {
          "internalType": "uint128",
          "name": "rate",
          "type": "uint128"
        },
        {
          "internalType": "uint128",
          "name": "startsAtOrAfter",
          "type": "uint128"
        }
      ],
      "stateMutability": "view",
      "type": "function"
    },
    {
      "inputs": [],
      "name": "directory",
      "outputs": [
        {
          "internalType": "contract IJBDirectory",
          "name": "",
          "type": "address"
        }
      ],
      "stateMutability": "view",
      "type": "function"
    },
    {
      "inputs": [
        {
          "internalType": "address",
          "name": "_operator",
          "type": "address"
        },
        {
          "internalType": "address",
          "name": "_from",
          "type": "address"
        },
        {
          "internalType": "uint256",
          "name": "_tokenId",
          "type": "uint256"
        },
        {
          "internalType": "bytes",
          "name": "_data",
          "type": "bytes"
        }
      ],
      "name": "onERC721Received",
      "outputs": [
        {
          "internalType": "bytes4",
          "name": "",
          "type": "bytes4"
        }
      ],
      "stateMutability": "view",
      "type": "function"
    },
    {
      "inputs": [
        {
          "internalType": "uint256",
          "name": "",
          "type": "uint256"
        }
      ],
      "name": "operatorPermissionIndexes",
      "outputs": [
        {
          "internalType": "uint256",
          "name": "",
          "type": "uint256"
        }
      ],
      "stateMutability": "view",
      "type": "function"
    },
    {
      "inputs": [
        {
          "components": [
            {
              "internalType": "contract IJBPaymentTerminal",
              "name": "terminal",
              "type": "address"
            },
            {
              "internalType": "address",
              "name": "payer",
              "type": "address"
            },
            {
              "components": [
                {
                  "internalType": "address",
                  "name": "token",
                  "type": "address"
                },
                {
                  "internalType": "uint256",
                  "name": "value",
                  "type": "uint256"
                },
                {
                  "internalType": "uint256",
                  "name": "decimals",
                  "type": "uint256"
                },
                {
                  "internalType": "uint256",
                  "name": "currency",
                  "type": "uint256"
                }
              ],
              "internalType": "struct JBTokenAmount",
              "name": "amount",
              "type": "tuple"
            },
            {
              "internalType": "uint256",
              "name": "projectId",
              "type": "uint256"
            },
            {
              "internalType": "uint256",
              "name": "currentFundingCycleConfiguration",
              "type": "uint256"
            },
            {
              "internalType": "address",
              "name": "beneficiary",
              "type": "address"
            },
            {
              "internalType": "uint256",
              "name": "weight",
              "type": "uint256"
            },
            {
              "internalType": "uint256",
              "name": "reservedRate",
              "type": "uint256"
            },
            {
              "internalType": "string",
              "name": "memo",
              "type": "string"
            },
            {
              "internalType": "bytes",
              "name": "metadata",
              "type": "bytes"
            }
          ],
          "internalType": "struct JBPayParamsData",
          "name": "_data",
          "type": "tuple"
        }
      ],
      "name": "payParams",
      "outputs": [
        {
          "internalType": "uint256",
          "name": "weight",
          "type": "uint256"
        },
        {
          "internalType": "string",
          "name": "memo",
          "type": "string"
        },
        {
          "components": [
            {
              "internalType": "contract IJBPayDelegate3_1_1",
              "name": "delegate",
              "type": "address"
            },
            {
              "internalType": "uint256",
              "name": "amount",
              "type": "uint256"
            },
            {
              "internalType": "bytes",
              "name": "metadata",
              "type": "bytes"
            }
          ],
          "internalType": "struct JBPayDelegateAllocation3_1_1[]",
          "name": "delegateAllocations",
          "type": "tuple[]"
        }
      ],
      "stateMutability": "view",
      "type": "function"
    },
    {
      "inputs": [],
      "name": "publisher",
      "outputs": [
        {
          "internalType": "contract CroptopPublisher",
          "name": "",
          "type": "address"
        }
      ],
      "stateMutability": "view",
      "type": "function"
    },
    {
      "inputs": [
        {
          "components": [
            {
              "internalType": "contract IJBPaymentTerminal",
              "name": "terminal",
              "type": "address"
            },
            {
              "internalType": "address",
              "name": "holder",
              "type": "address"
            },
            {
              "internalType": "uint256",
              "name": "projectId",
              "type": "uint256"
            },
            {
              "internalType": "uint256",
              "name": "currentFundingCycleConfiguration",
              "type": "uint256"
            },
            {
              "internalType": "uint256",
              "name": "tokenCount",
              "type": "uint256"
            },
            {
              "internalType": "uint256",
              "name": "totalSupply",
              "type": "uint256"
            },
            {
              "internalType": "uint256",
              "name": "overflow",
              "type": "uint256"
            },
            {
              "components": [
                {
                  "internalType": "address",
                  "name": "token",
                  "type": "address"
                },
                {
                  "internalType": "uint256",
                  "name": "value",
                  "type": "uint256"
                },
                {
                  "internalType": "uint256",
                  "name": "decimals",
                  "type": "uint256"
                },
                {
                  "internalType": "uint256",
                  "name": "currency",
                  "type": "uint256"
                }
              ],
              "internalType": "struct JBTokenAmount",
              "name": "reclaimAmount",
              "type": "tuple"
            },
            {
              "internalType": "bool",
              "name": "useTotalOverflow",
              "type": "bool"
            },
            {
              "internalType": "uint256",
              "name": "redemptionRate",
              "type": "uint256"
            },
            {
              "internalType": "string",
              "name": "memo",
              "type": "string"
            },
            {
              "internalType": "bytes",
              "name": "metadata",
              "type": "bytes"
            }
          ],
          "internalType": "struct JBRedeemParamsData",
          "name": "_data",
          "type": "tuple"
        }
      ],
      "name": "redeemParams",
      "outputs": [
        {
          "internalType": "uint256",
          "name": "",
          "type": "uint256"
        },
        {
          "internalType": "string",
          "name": "",
          "type": "string"
        },
        {
          "components": [
            {
              "internalType": "contract IJBRedemptionDelegate3_1_1",
              "name": "delegate",
              "type": "address"
            },
            {
              "internalType": "uint256",
              "name": "amount",
              "type": "uint256"
            },
            {
              "internalType": "bytes",
              "name": "metadata",
              "type": "bytes"
            }
          ],
          "internalType": "struct JBRedemptionDelegateAllocation3_1_1[]",
          "name": "",
          "type": "tuple[]"
        }
      ],
      "stateMutability": "view",
      "type": "function"
    },
    {
      "inputs": [
        {
          "internalType": "uint256",
          "name": "_networkId",
          "type": "uint256"
        }
      ],
      "name": "scheduleNextDevTaxPeriodOf",
      "outputs": [],
      "stateMutability": "nonpayable",
      "type": "function"
    },
    {
      "inputs": [
        {
          "internalType": "bytes4",
          "name": "_interfaceId",
          "type": "bytes4"
        }
      ],
      "name": "supportsInterface",
      "outputs": [
        {
          "internalType": "bool",
          "name": "",
          "type": "bool"
        }
      ],
      "stateMutability": "view",
      "type": "function"
    }
  ],
  "bytecode": {
    "object": "0x60e06040523480156200001157600080fd5b5060405162005c3938038062005c3983398101604081905262000034916200012b565b6001600160a01b03908116608052600080546001808201835560127f290decd9548b62a8d60345a988386fc84ba6bc95484008f6362f93160ef3e563928301558254808201845560189201919091556005805480830190915560097f036b6384b5eca791c62761152d0c79bb0604c104a5fb6f4eb0703f3154bb3db09091015593821660a05291811660c052600680546001600160a01b031916949091169390931790925560078054918201815590915260157fa66cc928b5edb82af9bd49922954155ab7b0942694bea4ce44661d9a8736c6889091015562000193565b6001600160a01b03811681146200012857600080fd5b50565b600080600080608085870312156200014257600080fd5b84516200014f8162000112565b6020860151909450620001628162000112565b6040860151909350620001758162000112565b6060860151909250620001888162000112565b939692955090935050565b60805160a05160c0516159f862000241600039600081816102a901526126530152600081816103960152818161244801526128cd015260008181610415015281816105190152818161077701528181610a5301528181610b6101528181610e12015281816110cd015281816111a4015281816113ac015281816116720152818161178001528181611a3101528181611d3201528181611e0901528181611ff0015261217201526159f86000f3fe608060405234801561001057600080fd5b506004361061016c5760003560e01c80639e8c513a116100cd578063abc603e311610081578063d46cf17111610066578063d46cf171146103b8578063ef8eadd5146103da578063f77c47911461041057600080fd5b8063abc603e31461036f578063c41c2f241461039157600080fd5b8063a26711ae116100b2578063a26711ae146102fe578063a51cfd181461033a578063a9d513591461035c57600080fd5b80639e8c513a146102cb5780639f665eee146102de57600080fd5b80634d757720116101245780635bd26667116101095780635bd266671461024c5780638c72c54e1461025f5780638f3d964b146102a457600080fd5b80634d75772014610226578063522aa5511461023957600080fd5b80630a801f47116101555780630a801f47146101ae578063150b7a02146101cf578063429216981461021357600080fd5b806301ffc9a7146101715780630310850e14610199575b600080fd5b61018461017f366004612fe8565b610437565b60405190151581526020015b60405180910390f35b6101ac6101a7366004613031565b6104d0565b005b6101c16101bc3660046134f2565b6108cd565b604051908152602001610190565b6101e26101dd3660046135e5565b6113a8565b6040517fffffffff000000000000000000000000000000000000000000000000000000009091168152602001610190565b6101c1610221366004613031565b6114bc565b6101c1610234366004613031565b6114dd565b6101c16102473660046137a2565b6114ed565b6101c161025a366004613c88565b612444565b60065461027f9073ffffffffffffffffffffffffffffffffffffffff1681565b60405173ffffffffffffffffffffffffffffffffffffffff9091168152602001610190565b61027f7f000000000000000000000000000000000000000000000000000000000000000081565b6101c16102d9366004613031565b612750565b6101c16102ec366004613031565b60026020526000908152604090205481565b61031161030c366004613dd7565b612760565b604080516fffffffffffffffffffffffffffffffff938416815292909116602083015201610190565b61034d610348366004613df9565b6127b9565b60405161019093929190613ea3565b6101c161036a3660046140f5565b612821565b61038261037d366004613dd7565b612a3f565b60405161019093929190614275565b61027f7f000000000000000000000000000000000000000000000000000000000000000081565b6103cb6103c63660046142b3565b612b22565b604051610190939291906142ef565b61027f6103e8366004613031565b60036020526000908152604090205473ffffffffffffffffffffffffffffffffffffffff1681565b61027f7f000000000000000000000000000000000000000000000000000000000000000081565b60007fffffffff0000000000000000000000000000000000000000000000000000000082167f71700c690000000000000000000000000000000000000000000000000000000014806104ca57507f150b7a02000000000000000000000000000000000000000000000000000000007fffffffff000000000000000000000000000000000000000000000000000000008316145b92915050565b6040517f1f51045300000000000000000000000000000000000000000000000000000000815260048101829052600090819073ffffffffffffffffffffffffffffffffffffffff7f00000000000000000000000000000000000000000000000000000000000000001690631f510453906024016103c060405180830381865afa158015610561573d6000803e3d6000fd5b505050506040513d601f19601f82011682018060405250810190610585919061456d565b50600085815260026020526040812080549395509193509182906105a890614653565b91829055506000858152600160205260409020549091508015806105cb57508082145b806105d95750428460600151115b15610610576040517fc97554fa00000000000000000000000000000000000000000000000000000000815260040160405180910390fd5b60008581526001602052604081208054849081106106305761063061468b565b6000918252602080832060408051808201825293909101546fffffffffffffffffffffffffffffffff808216855270010000000000000000000000000000000090910481168484019081528251608080820185528c810151825281860188905260c0808e01518387015260608084018a905286516102a08101885261024081018b815261026082018c905261028082018c905281528951909616868901528d87015186880152850189905290840188905260a08401889052830187905260e08301879052610100830187905261012083018790526101408301879052610160830187905261018083018790526101a083018790526101c083018790526101e08301879052610200808c015173ffffffffffffffffffffffffffffffffffffffff908116918501919091526102208c81015190850152915184518881529586019094529496507f0000000000000000000000000000000000000000000000000000000000000000169463badbdf28948c949093916107d0565b6040805180820190915260008152606060208201528152602001906001900390816107a85790505b50604080516000808252602082019092529061085f565b61084c6040518060c00160405280600073ffffffffffffffffffffffffffffffffffffffff168152602001600073ffffffffffffffffffffffffffffffffffffffff168152602001600081526020016000815260200160008152602001600081525090565b8152602001906001900390816107e75790505b506040518763ffffffff1660e01b8152600401610881969594939291906149a1565b6020604051808303816000875af11580156108a0573d6000803e3d6000fd5b505050506040513d601f19601f820116820180604052508101906108c49190614aa7565b50505050505050565b604080516001808252818301909252600091829190816020015b6040805180820190915260008152606060208201528152602001906001900390816108e757505060408051600180825281830190925291925060009190602082015b6040805160e08101825260008082526020808301829052928201819052606082018190526080820181905260a0820181905260c082015282527fffffffffffffffffffffffffffffffffffffffffffffffffffffffffffffffff9092019101816109295790505090506040518060e00160405280600015158152602001600015158152602001633b9aca008152602001600081526020018b73ffffffffffffffffffffffffffffffffffffffff16815260200160008152602001600073ffffffffffffffffffffffffffffffffffffffff1681525081600181518110610a1157610a1161468b565b60200260200101819052506040518060400160405280600281526020018281525082600081518110610a4557610a4561468b565b6020026020010181905250507f000000000000000000000000000000000000000000000000000000000000000073ffffffffffffffffffffffffffffffffffffffff16638b79543c6040518163ffffffff1660e01b8152600401602060405180830381865afa158015610abc573d6000803e3d6000fd5b505050506040513d601f19601f82011682018060405250810190610ae09190614ac0565b73ffffffffffffffffffffffffffffffffffffffff1663666d87a0308a6040518363ffffffff1660e01b8152600401610b1a929190614add565b6020604051808303816000875af1158015610b39573d6000803e3d6000fd5b505050506040513d601f19601f82011682018060405250810190610b5d9190614aa7565b91507f000000000000000000000000000000000000000000000000000000000000000073ffffffffffffffffffffffffffffffffffffffff1663619306306040518163ffffffff1660e01b8152600401602060405180830381865afa158015610bca573d6000803e3d6000fd5b505050506040513d601f19601f82011682018060405250810190610bee9190614ac0565b73ffffffffffffffffffffffffffffffffffffffff1663a7f2a70b8389896040518463ffffffff1660e01b8152600401610c2a93929190614b2b565b6020604051808303816000875af1158015610c49573d6000803e3d6000fd5b505050506040513d601f19601f82011682018060405250810190610c6d9190614ac0565b508273ffffffffffffffffffffffffffffffffffffffff16637b621d3a838760c001518673ffffffffffffffffffffffffffffffffffffffff166360b3042c6040518163ffffffff1660e01b8152600401602060405180830381865afa158015610cdb573d6000803e3d6000fd5b505050506040513d601f19601f82011682018060405250810190610cff9190614aa7565b8773ffffffffffffffffffffffffffffffffffffffff1663737a79966040518163ffffffff1660e01b8152600401602060405180830381865afa158015610d4a573d6000803e3d6000fd5b505050506040513d601f19601f82011682018060405250810190610d6e9190614aa7565b6040517fffffffff0000000000000000000000000000000000000000000000000000000060e087901b168152600481019490945262ffffff909216602484015263ffffffff908116604484015216606482015261eeee608482015260a4016020604051808303816000875af1158015610deb573d6000803e3d6000fd5b505050506040513d601f19601f82011682018060405250810190610e0f9190614ac0565b507f000000000000000000000000000000000000000000000000000000000000000073ffffffffffffffffffffffffffffffffffffffff1663111d861b8360405180608001604052808960600151815260200160128a60000151610e739190614c80565b81526040808b0151602080840191909152600092820183905281516102a081019092526102408201838152610260830184905261028083019390935291815260a08b015151909182019015610eea578a60a00151600081518110610ed957610ed961468b565b602002602001015160000151610eed565b60005b6fffffffffffffffffffffffffffffffff1681526020018a60800151612710610f169190614c8f565b815260006020820181905260408201819052606082018190526080820181905260a0808301829052600160c0840181905260e0840183905261010084018390526101208401839052610140840183905261016084018390526101808401526101a0830182905273ffffffffffffffffffffffffffffffffffffffff8b166101c08401526101e0909201528a01515115610fd1578960a00151600081518110610fc057610fc061468b565b602002602001015160200151610fd4565b60005b604080516000808252602082019092528891611063565b6110506040518060c00160405280600073ffffffffffffffffffffffffffffffffffffffff168152602001600073ffffffffffffffffffffffffffffffffffffffff168152602001600081526020016000815260200160008152602001600081525090565b815260200190600190039081610feb5790505b508b6040518863ffffffff1660e01b81526004016110879796959493929190614ca2565b6020604051808303816000875af11580156110a6573d6000803e3d6000fd5b505050506040513d601f19601f820116820180604052508101906110ca9190614aa7565b507f000000000000000000000000000000000000000000000000000000000000000073ffffffffffffffffffffffffffffffffffffffff16638ae9c07b83601288602001516111199190614c80565b8c8a60405160200161112b9190614dd2565b6040516020818303038152906040526000806040518763ffffffff1660e01b815260040161115e96959493929190614e17565b6020604051808303816000875af115801561117d573d6000803e3d6000fd5b505050506040513d601f19601f820116820180604052508101906111a19190614aa7565b507f000000000000000000000000000000000000000000000000000000000000000073ffffffffffffffffffffffffffffffffffffffff16632bdfe0046040518163ffffffff1660e01b8152600401602060405180830381865afa15801561120d573d6000803e3d6000fd5b505050506040513d601f19601f820116820180604052508101906112319190614ac0565b73ffffffffffffffffffffffffffffffffffffffff1663ad007d636040518163ffffffff1660e01b8152600401602060405180830381865afa15801561127b573d6000803e3d6000fd5b505050506040513d601f19601f8201168201806040525081019061129f9190614ac0565b73ffffffffffffffffffffffffffffffffffffffff1663529cdd2e60405180606001604052808c73ffffffffffffffffffffffffffffffffffffffff168152602001858152602001600080548060200260200160405190810160405280929190818152602001828054801561133357602002820191906000526020600020905b81548152602001906001019080831161131f575b50505050508152506040518263ffffffff1660e01b81526004016113579190614e6c565b600060405180830381600087803b15801561137157600080fd5b505af1158015611385573d6000803e3d6000fd5b5050505061139c828660a001518760600151612e8c565b50979650505050505050565b60007f000000000000000000000000000000000000000000000000000000000000000073ffffffffffffffffffffffffffffffffffffffff16638b79543c6040518163ffffffff1660e01b8152600401602060405180830381865afa158015611415573d6000803e3d6000fd5b505050506040513d601f19601f820116820180604052508101906114399190614ac0565b73ffffffffffffffffffffffffffffffffffffffff163373ffffffffffffffffffffffffffffffffffffffff161461147057600080fd5b73ffffffffffffffffffffffffffffffffffffffff85161561149157600080fd5b507f150b7a020000000000000000000000000000000000000000000000000000000095945050505050565b600781815481106114cc57600080fd5b600091825260209091200154905081565b600081815481106114cc57600080fd5b604080516001808252818301909252600091829190816020015b60408051808201909152600081526060602082015281526020019060019003908161150757505060408051600180825281830190925291925060009190602082015b6040805160e08101825260008082526020808301829052928201819052606082018190526080820181905260a0820181905260c082015282527fffffffffffffffffffffffffffffffffffffffffffffffffffffffffffffffff9092019101816115495790505090506040518060e00160405280600015158152602001600015158152602001633b9aca008152602001600081526020018d73ffffffffffffffffffffffffffffffffffffffff16815260200160008152602001600073ffffffffffffffffffffffffffffffffffffffff16815250816001815181106116315761163161468b565b602002602001018190525060405180604001604052806002815260200182815250826000815181106116655761166561468b565b60200260200101819052507f000000000000000000000000000000000000000000000000000000000000000073ffffffffffffffffffffffffffffffffffffffff16638b79543c6040518163ffffffff1660e01b8152600401602060405180830381865afa1580156116db573d6000803e3d6000fd5b505050506040513d601f19601f820116820180604052508101906116ff9190614ac0565b73ffffffffffffffffffffffffffffffffffffffff1663666d87a0308d6040518363ffffffff1660e01b8152600401611739929190614add565b6020604051808303816000875af1158015611758573d6000803e3d6000fd5b505050506040513d601f19601f8201168201806040525081019061177c9190614aa7565b92507f000000000000000000000000000000000000000000000000000000000000000073ffffffffffffffffffffffffffffffffffffffff1663619306306040518163ffffffff1660e01b8152600401602060405180830381865afa1580156117e9573d6000803e3d6000fd5b505050506040513d601f19601f8201168201806040525081019061180d9190614ac0565b73ffffffffffffffffffffffffffffffffffffffff1663a7f2a70b848c8c6040518463ffffffff1660e01b815260040161184993929190614b2b565b6020604051808303816000875af1158015611868573d6000803e3d6000fd5b505050506040513d601f19601f8201168201806040525081019061188c9190614ac0565b508573ffffffffffffffffffffffffffffffffffffffff16637b621d3a848a60c001518973ffffffffffffffffffffffffffffffffffffffff166360b3042c6040518163ffffffff1660e01b8152600401602060405180830381865afa1580156118fa573d6000803e3d6000fd5b505050506040513d601f19601f8201168201806040525081019061191e9190614aa7565b8a73ffffffffffffffffffffffffffffffffffffffff1663737a79966040518163ffffffff1660e01b8152600401602060405180830381865afa158015611969573d6000803e3d6000fd5b505050506040513d601f19601f8201168201806040525081019061198d9190614aa7565b6040517fffffffff0000000000000000000000000000000000000000000000000000000060e087901b168152600481019490945262ffffff909216602484015263ffffffff908116604484015216606482015261eeee608482015260a4016020604051808303816000875af1158015611a0a573d6000803e3d6000fd5b505050506040513d601f19601f82011682018060405250810190611a2e9190614ac0565b507f000000000000000000000000000000000000000000000000000000000000000073ffffffffffffffffffffffffffffffffffffffff1663111d861b8460405180608001604052808c60600151815260200160128d60000151611a929190614c80565b81526040808e0151602080840191909152600092820183905281516102a081019092526102408201838152610260830184905261028083019390935291815260a08e015151909182019015611b09578d60a00151600081518110611af857611af861468b565b602002602001015160000151611b0c565b60005b6fffffffffffffffffffffffffffffffff1681526020018d60800151612710611b359190614c8f565b815260006020820181905260408201819052606082018190526080820181905260a0808301829052600160c0840181905260e0840183905261010084018390526101208401839052610140840183905261016084018390526101808401526101a0830191909152306101c083015260ff8b166101e0909201919091528d01515115611be2578c60a00151600081518110611bd157611bd161468b565b602002602001015160200151611be5565b60005b604080516000808252602082019092528991611c74565b611c616040518060c00160405280600073ffffffffffffffffffffffffffffffffffffffff168152602001600073ffffffffffffffffffffffffffffffffffffffff168152602001600081526020016000815260200160008152602001600081525090565b815260200190600190039081611bfc5790505b508e6040518863ffffffff1660e01b8152600401611c989796959493929190614ca2565b6020604051808303816000875af1158015611cb7573d6000803e3d6000fd5b505050506040513d601f19601f82011682018060405250810190611cdb9190614aa7565b505050836003600083815260200190815260200160002060006101000a81548173ffffffffffffffffffffffffffffffffffffffff021916908373ffffffffffffffffffffffffffffffffffffffff1602179055507f000000000000000000000000000000000000000000000000000000000000000073ffffffffffffffffffffffffffffffffffffffff16638ae9c07b8260128960200151611d7e9190614c80565b8d8b604051602001611d909190614dd2565b6040516020818303038152906040526000806040518763ffffffff1660e01b8152600401611dc396959493929190614e17565b6020604051808303816000875af1158015611de2573d6000803e3d6000fd5b505050506040513d601f19601f82011682018060405250810190611e069190614aa7565b507f000000000000000000000000000000000000000000000000000000000000000073ffffffffffffffffffffffffffffffffffffffff16632bdfe0046040518163ffffffff1660e01b8152600401602060405180830381865afa158015611e72573d6000803e3d6000fd5b505050506040513d601f19601f82011682018060405250810190611e969190614ac0565b73ffffffffffffffffffffffffffffffffffffffff1663ad007d636040518163ffffffff1660e01b8152600401602060405180830381865afa158015611ee0573d6000803e3d6000fd5b505050506040513d601f19601f82011682018060405250810190611f049190614ac0565b73ffffffffffffffffffffffffffffffffffffffff1663529cdd2e60405180606001604052808d73ffffffffffffffffffffffffffffffffffffffff1681526020018481526020016000805480602002602001604051908101604052809291908181526020018280548015611f9857602002820191906000526020600020905b815481526020019060010190808311611f84575b50505050508152506040518263ffffffff1660e01b8152600401611fbc9190614e6c565b600060405180830381600087803b158015611fd657600080fd5b505af1158015611fea573d6000803e3d6000fd5b505050507f000000000000000000000000000000000000000000000000000000000000000073ffffffffffffffffffffffffffffffffffffffff16632bdfe0046040518163ffffffff1660e01b8152600401602060405180830381865afa158015612059573d6000803e3d6000fd5b505050506040513d601f19601f8201168201806040525081019061207d9190614ac0565b73ffffffffffffffffffffffffffffffffffffffff1663ad007d636040518163ffffffff1660e01b8152600401602060405180830381865afa1580156120c7573d6000803e3d6000fd5b505050506040513d601f19601f820116820180604052508101906120eb9190614ac0565b73ffffffffffffffffffffffffffffffffffffffff16630f5932f08530600060056040518563ffffffff1660e01b815260040161212b9493929190614edd565b602060405180830381865afa158015612148573d6000803e3d6000fd5b505050506040513d601f19601f8201168201806040525081019061216c9190614f59565b612359577f000000000000000000000000000000000000000000000000000000000000000073ffffffffffffffffffffffffffffffffffffffff16632bdfe0046040518163ffffffff1660e01b8152600401602060405180830381865afa1580156121db573d6000803e3d6000fd5b505050506040513d601f19601f820116820180604052508101906121ff9190614ac0565b73ffffffffffffffffffffffffffffffffffffffff1663ad007d636040518163ffffffff1660e01b8152600401602060405180830381865afa158015612249573d6000803e3d6000fd5b505050506040513d601f19601f8201168201806040525081019061226d9190614ac0565b73ffffffffffffffffffffffffffffffffffffffff1663529cdd2e60405180606001604052808773ffffffffffffffffffffffffffffffffffffffff16815260200160008152602001600580548060200260200160405190810160405280929190818152602001828054801561230257602002820191906000526020600020905b8154815260200190600101908083116122ee575b50505050508152506040518263ffffffff1660e01b81526004016123269190614e6c565b600060405180830381600087803b15801561234057600080fd5b505af1158015612354573d6000803e3d6000fd5b505050505b61236c818760a001518860600151612e8c565b825160005b818110156124355784818151811061238b5761238b61468b565b60200260200101516004600085815260200190815260200160002082815481106123b7576123b761468b565b600091825260209182902083516003929092020180547fffffffffffffffffffffffff00000000000000000000000000000000000000001673ffffffffffffffffffffffffffffffffffffffff9092169190911781559082015160018201556040820151600282019061242a9082615018565b505050600101612371565b50509998505050505050505050565b60007f000000000000000000000000000000000000000000000000000000000000000073ffffffffffffffffffffffffffffffffffffffff16638b79543c6040518163ffffffff1660e01b8152600401602060405180830381865afa1580156124b1573d6000803e3d6000fd5b505050506040513d601f19601f820116820180604052508101906124d59190614ac0565b73ffffffffffffffffffffffffffffffffffffffff166306661abd6040518163ffffffff1660e01b8152600401602060405180830381865afa15801561251f573d6000803e3d6000fd5b505050506040513d601f19601f820116820180604052508101906125439190614aa7565b61254e906001615132565b83519091506000612560826001615132565b67ffffffffffffffff8111156125785761257861307f565b6040519080825280602002602001820160405280156125c557816020015b604080516060808201835260008083526020830152918101919091528152602001906001900390816125965790505b50905060005b82811015612612578581815181106125e5576125e561468b565b60200260200101518282815181106125ff576125ff61468b565b60209081029190910101526001016125cb565b506040517f70d7f24900000000000000000000000000000000000000000000000000000000815260009073ffffffffffffffffffffffffffffffffffffffff7f000000000000000000000000000000000000000000000000000000000000000016906370d7f2499061268a9087908b906004016152bf565b6020604051808303816000875af11580156126a9573d6000803e3d6000fd5b505050506040513d601f19601f820116820180604052508101906126cd9190614ac0565b905060405180606001604052808273ffffffffffffffffffffffffffffffffffffffff16815260200160008152602001604051806020016040528060008152508152508284815181106127225761272261468b565b60200260200101819052505061273f8d8d8d8d8d8d8d888c6114ed565b5050509a9950505050505050505050565b600581815481106114cc57600080fd5b6001602052816000526040600020818154811061277c57600080fd5b6000918252602090912001546fffffffffffffffffffffffffffffffff808216935070010000000000000000000000000000000090910416905082565b604080516000808252602082019092526060908190839081612805565b604080516060808201835260008083526020830152918101919091528152602001906001900390816127d65790505b5060408051602081019091526000815291969195509350915050565b60006128358c8c8c8c8c8c8c8c8c8c612444565b905081516000146128cb576006546040517f200e8ae400000000000000000000000000000000000000000000000000000000815273ffffffffffffffffffffffffffffffffffffffff9091169063200e8ae4906128989084908690600401615472565b600060405180830381600087803b1580156128b257600080fd5b505af11580156128c6573d6000803e3d6000fd5b505050505b7f000000000000000000000000000000000000000000000000000000000000000073ffffffffffffffffffffffffffffffffffffffff1663ad007d636040518163ffffffff1660e01b8152600401602060405180830381865afa158015612936573d6000803e3d6000fd5b505050506040513d601f19601f8201168201806040525081019061295a9190614ac0565b6040805160608101825260065473ffffffffffffffffffffffffffffffffffffffff90811682526020808301869052600780548551818402810184018752818152969093169563529cdd2e9585019390928301828280156129da57602002820191906000526020600020905b8154815260200190600101908083116129c6575b50505050508152506040518263ffffffff1660e01b81526004016129fe9190614e6c565b600060405180830381600087803b158015612a1857600080fd5b505af1158015612a2c573d6000803e3d6000fd5b505050509b9a5050505050505050505050565b60046020528160005260406000208181548110612a5b57600080fd5b600091825260209091206003909102018054600182015460028301805473ffffffffffffffffffffffffffffffffffffffff909316955090935090612a9f90614f76565b80601f0160208091040260200160405190810160405280929190818152602001828054612acb90614f76565b8015612b185780601f10612aed57610100808354040283529160200191612b18565b820191906000526020600020905b815481529060010190602001808311612afb57829003601f168201915b5050505050905083565b60c08101356000908152600360205260408082205490517fd46cf1710000000000000000000000000000000000000000000000000000000081526060918291829173ffffffffffffffffffffffffffffffffffffffff169063d46cf17190612b8e908890600401615670565b600060405180830381865afa158015612bab573d6000803e3d6000fd5b505050506040513d6000823e601f3d9081017fffffffffffffffffffffffffffffffffffffffffffffffffffffffffffffffe0168201604052612bf191908101906157e4565b805160c089013560009081526004602090815260408083208054825181850281018501909352808352979b5094975092151595919450919291849084015b82821015612d205760008481526020908190206040805160608101825260038602909201805473ffffffffffffffffffffffffffffffffffffffff16835260018101549383019390935260028301805492939291840191612c8f90614f76565b80601f0160208091040260200160405190810160405280929190818152602001828054612cbb90614f76565b8015612d085780601f10612cdd57610100808354040283529160200191612d08565b820191906000526020600020905b815481529060010190602001808311612ceb57829003601f168201915b50505050508152505081526020019060010190612c2f565b50505050905060008151905082612d38576000612d3b565b60015b612d489060ff1682615132565b67ffffffffffffffff811115612d6057612d6061307f565b604051908082528060200260200182016040528015612dad57816020015b60408051606080820183526000808352602083015291810191909152815260200190600190039081612d7e5790505b50945060005b81811015612dfa57828181518110612dcd57612dcd61468b565b6020026020010151868281518110612de757612de761468b565b6020908102919091010152600101612db3565b508215612e3a5783600081518110612e1457612e1461468b565b6020026020010151858281518110612e2e57612e2e61468b565b60200260200101819052505b612e4861016089018961595d565b8080601f016020809104026020016040519081016040528093929190818152602001838380828437600092019190915250999b929a50969850909650505050505050565b81518015612fe25760005b81811015612fe0578015801590612f2157508284612eb6600184614c8f565b81518110612ec657612ec661468b565b6020026020010151602001516fffffffffffffffffffffffffffffffff16612eee9190615132565b848281518110612f0057612f0061468b565b6020026020010151602001516fffffffffffffffffffffffffffffffff1611155b15612f58576040517fc5c2978500000000000000000000000000000000000000000000000000000000815260040160405180910390fd5b838181518110612f6a57612f6a61468b565b6020026020010151600160008781526020019081526020016000208281548110612f9657612f9661468b565b6000918252602091829020835193909201516fffffffffffffffffffffffffffffffff90811670010000000000000000000000000000000002931692909217910155600101612e97565b505b50505050565b600060208284031215612ffa57600080fd5b81357fffffffff000000000000000000000000000000000000000000000000000000008116811461302a57600080fd5b9392505050565b60006020828403121561304357600080fd5b5035919050565b73ffffffffffffffffffffffffffffffffffffffff8116811461306c57600080fd5b50565b803561307a8161304a565b919050565b7f4e487b7100000000000000000000000000000000000000000000000000000000600052604160045260246000fd5b6040805190810167ffffffffffffffff811182821017156130d1576130d161307f565b60405290565b60405160e0810167ffffffffffffffff811182821017156130d1576130d161307f565b6040516060810167ffffffffffffffff811182821017156130d1576130d161307f565b6040516080810167ffffffffffffffff811182821017156130d1576130d161307f565b604051610160810167ffffffffffffffff811182821017156130d1576130d161307f565b60405160c0810167ffffffffffffffff811182821017156130d1576130d161307f565b604051610240810167ffffffffffffffff811182821017156130d1576130d161307f565b604051610120810167ffffffffffffffff811182821017156130d1576130d161307f565b604051601f82017fffffffffffffffffffffffffffffffffffffffffffffffffffffffffffffffe016810167ffffffffffffffff811182821017156132165761321661307f565b604052919050565b600067ffffffffffffffff8211156132385761323861307f565b50601f017fffffffffffffffffffffffffffffffffffffffffffffffffffffffffffffffe01660200190565b60006132776132728461321e565b6131cf565b905082815283838301111561328b57600080fd5b828260208301376000602084830101529392505050565b600082601f8301126132b357600080fd5b61302a83833560208501613264565b6000604082840312156132d457600080fd5b6132dc6130ae565b9050813567ffffffffffffffff8111156132f557600080fd5b613301848285016132a2565b8252506020820135602082015292915050565b600067ffffffffffffffff82111561332e5761332e61307f565b5060051b60200190565b80356fffffffffffffffffffffffffffffffff8116811461307a57600080fd5b600082601f83011261336957600080fd5b8135602061337961327283613314565b82815260069290921b8401810191818101908684111561339857600080fd5b8286015b848110156133e557604081890312156133b55760008081fd5b6133bd6130ae565b6133c682613338565b81526133d3858301613338565b8186015283529183019160400161339c565b509695505050505050565b803562ffffff8116811461307a57600080fd5b600060e0828403121561341557600080fd5b61341d6130d7565b9050813581526020820135602082015260408201356040820152606082013560608201526080820135608082015260a082013567ffffffffffffffff81111561346557600080fd5b61347184828501613358565b60a08301525061348360c083016133f0565b60c082015292915050565b600082601f83011261349f57600080fd5b813560206134af61327283613314565b82815260059290921b840181019181810190868411156134ce57600080fd5b8286015b848110156133e55780356134e58161304a565b83529183019183016134d2565b600080600080600080600060e0888a03121561350d57600080fd5b6135168861306f565b9650602088013567ffffffffffffffff8082111561353357600080fd5b61353f8b838c016132c2565b975060408a013591508082111561355557600080fd5b6135618b838c016132a2565b965060608a013591508082111561357757600080fd5b6135838b838c016132a2565b955060808a013591508082111561359957600080fd5b6135a58b838c01613403565b945060a08a01359150808211156135bb57600080fd5b506135c88a828b0161348e565b9250506135d760c0890161306f565b905092959891949750929550565b6000806000806000608086880312156135fd57600080fd5b85356136088161304a565b945060208601356136188161304a565b935060408601359250606086013567ffffffffffffffff8082111561363c57600080fd5b818801915088601f83011261365057600080fd5b81358181111561365f57600080fd5b89602082850101111561367157600080fd5b9699959850939650602001949392505050565b600082601f83011261369557600080fd5b813560206136a561327283613314565b82815260059290921b840181019181810190868411156136c457600080fd5b8286015b848110156133e557803567ffffffffffffffff808211156136e95760008081fd5b81890191506060807fffffffffffffffffffffffffffffffffffffffffffffffffffffffffffffffe0848d030112156137225760008081fd5b61372a6130fa565b878401356137378161304a565b8152604084810135898301529184013591838311156137565760008081fd5b82850194508c603f86011261376d57600093508384fd5b61377d8d8a870135838801613264565b9082015286525050509183019183016136c8565b803560ff8116811461307a57600080fd5b60008060008060008060008060006101208a8c0312156137c157600080fd5b6137ca8a61306f565b985060208a013567ffffffffffffffff808211156137e757600080fd5b6137f38d838e016132c2565b995060408c013591508082111561380957600080fd5b6138158d838e016132a2565b985060608c013591508082111561382b57600080fd5b6138378d838e016132a2565b975060808c013591508082111561384d57600080fd5b6138598d838e01613403565b965060a08c013591508082111561386f57600080fd5b61387b8d838e0161348e565b955061388960c08d0161306f565b945060e08c013591508082111561389f57600080fd5b506138ac8c828d01613684565b9250506138bc6101008b01613791565b90509295985092959850929598565b80356cffffffffffffffffffffffffff8116811461307a57600080fd5b803563ffffffff8116811461307a57600080fd5b803561ffff8116811461307a57600080fd5b801515811461306c57600080fd5b803561307a8161390e565b803565ffffffffffff8116811461307a57600080fd5b6000608080838503121561395057600080fd5b61395861311d565b9150823567ffffffffffffffff81111561397157600080fd5b8301601f8101851361398257600080fd5b8035602061399261327283613314565b82815261016092830284018201928282019190898511156139b257600080fd5b948301945b84861015613a935780868b0312156139cf5760008081fd5b6139d7613140565b6139e0876138cb565b81526139ed8588016138e8565b8582015260406139fe8189016138e8565b908201526060613a0f8882016138fc565b90820152613a1e87890161306f565b8189015260a0878101359082015260c0613a398189016133f0565b9082015260e0613a4a88820161391c565b90820152610100613a5c88820161391c565b90820152610120613a6e88820161391c565b90820152610140613a8088820161391c565b90820152835294850194918301916139b7565b50865250613aa2868201613927565b8186015250505050613ab660408301613927565b6040820152613ac76060830161306f565b606082015292915050565b600060808284031215613ae457600080fd5b613aec61311d565b90508135613af98161390e565b81526020820135613b098161390e565b60208201526040820135613b1c8161390e565b60408201526060820135613ac78161390e565b80356002811061307a57600080fd5b60006101c08284031215613b5157600080fd5b613b59613140565b9050813567ffffffffffffffff80821115613b7357600080fd5b613b7f858386016132a2565b83526020840135915080821115613b9557600080fd5b613ba1858386016132a2565b6020840152613bb26040850161306f565b60408401526060840135915080821115613bcb57600080fd5b613bd7858386016132a2565b6060840152613be86080850161306f565b608084015260a0840135915080821115613c0157600080fd5b613c0d858386016132a2565b60a084015260c0840135915080821115613c2657600080fd5b50613c338482850161393d565b60c083015250613c4560e0830161306f565b60e0820152610100613c5881840161306f565b90820152610120613c6b84848301613ad2565b90820152613c7c6101a08301613b2f565b61014082015292915050565b6000806000806000806000806000806101408b8d031215613ca857600080fd5b613cb18b61306f565b995060208b013567ffffffffffffffff80821115613cce57600080fd5b613cda8e838f016132c2565b9a5060408d0135915080821115613cf057600080fd5b613cfc8e838f016132a2565b995060608d0135915080821115613d1257600080fd5b613d1e8e838f016132a2565b985060808d0135915080821115613d3457600080fd5b613d408e838f01613403565b975060a08d0135915080821115613d5657600080fd5b613d628e838f0161348e565b9650613d7060c08e0161306f565b955060e08d0135915080821115613d8657600080fd5b613d928e838f01613b3e565b94506101008d0135915080821115613da957600080fd5b50613db68d828e01613684565b925050613dc66101208c01613791565b90509295989b9194979a5092959850565b60008060408385031215613dea57600080fd5b50508035926020909101359150565b600060208284031215613e0b57600080fd5b813567ffffffffffffffff811115613e2257600080fd5b82016101e0818503121561302a57600080fd5b60005b83811015613e50578181015183820152602001613e38565b50506000910152565b60008151808452613e71816020860160208601613e35565b601f017fffffffffffffffffffffffffffffffffffffffffffffffffffffffffffffffe0169290920160200192915050565b6000606085835260208181850152613ebd82850187613e59565b6040858203818701528187518084528484019150848160051b850101858a0160005b83811015613f5a578683037fffffffffffffffffffffffffffffffffffffffffffffffffffffffffffffffe00185528151805173ffffffffffffffffffffffffffffffffffffffff16845288810151898501528601518684018a9052613f478a850182613e59565b9589019593505090870190600101613edf565b50909c9b505050505050505050505050565b600082601f830112613f7d57600080fd5b81356020613f8d61327283613314565b828152600592831b8501820192828201919087851115613fac57600080fd5b8387015b858110156140e857803567ffffffffffffffff80821115613fd15760008081fd5b818a01915060c0807fffffffffffffffffffffffffffffffffffffffffffffffffffffffffffffffe0848e0301121561400a5760008081fd5b614012613164565b8884013561401f8161304a565b808252506040808501358a830152606080860135828401526080808701358285015260a09150818701358185015250838601359350848411156140625760008081fd5b83860195508e603f87011261407957600094508485fd5b8a860135945061408b61327286613314565b85815294881b86018201948b810194508f8611156140a95760008081fd5b958201955b858710156140d357863592506140c38361304a565b828552958b0195938b01936140ae565b90830152508752505050928401928401613fb0565b5090979650505050505050565b60008060008060008060008060008060006101608c8e03121561411757600080fd5b6141208c61306f565b9a5067ffffffffffffffff8060208e0135111561413c57600080fd5b61414c8e60208f01358f016132c2565b9a508060408e0135111561415f57600080fd5b61416f8e60408f01358f016132a2565b99508060608e0135111561418257600080fd5b6141928e60608f01358f016132a2565b98508060808e013511156141a557600080fd5b6141b58e60808f01358f01613403565b97508060a08e013511156141c857600080fd5b6141d88e60a08f01358f0161348e565b96506141e660c08e0161306f565b95508060e08e013511156141f957600080fd5b6142098e60e08f01358f01613b3e565b9450806101008e0135111561421d57600080fd5b61422e8e6101008f01358f01613684565b935061423d6101208e01613791565b9250806101408e0135111561425157600080fd5b506142638d6101408e01358e01613f6c565b90509295989b509295989b9093969950565b73ffffffffffffffffffffffffffffffffffffffff841681528260208201526060604082015260006142aa6060830184613e59565b95945050505050565b6000602082840312156142c557600080fd5b813567ffffffffffffffff8111156142dc57600080fd5b82016101a0818503121561302a57600080fd5b600060608583526020818185015261430982850187613e59565b6040858203818701528187518084528484019150848160051b850101858a0160005b83811015613f5a578683037fffffffffffffffffffffffffffffffffffffffffffffffffffffffffffffffe00185528151805173ffffffffffffffffffffffffffffffffffffffff16845288810151898501528601518684018a90526143938a850182613e59565b958901959350509087019060010161432b565b805161307a8161304a565b805161307a8161390e565b6000606082840312156143ce57600080fd5b6143d66130fa565b905081516143e38161390e565b815260208201516143f38161390e565b602082015260408201516144068161390e565b604082015292915050565b6000610280828403121561442457600080fd5b61442c613187565b905061443883836143bc565b8152606082015160208201526080820151604082015260a0820151606082015261446460c083016143b1565b608082015261447560e083016143b1565b60a08201526101006144888184016143b1565b60c083015261012061449b8185016143b1565b60e08401526101406144ae8186016143b1565b8385015261016092506144c28386016143b1565b8285015261018091506144d68286016143b1565b908401526101a06144e88582016143b1565b838501526101c092506144fc8386016143b1565b828501526101e091506145108286016143b1565b908401526102006145228582016143b1565b8385015261022092506145368386016143b1565b8285015261454761024086016143a6565b818501525050610260830151818301525092915050565b80516003811061307a57600080fd5b60008060008385036103c081121561458457600080fd5b6101208082121561459457600080fd5b61459c6131ab565b9150855182526020860151602083015260408601516040830152606086015160608301526080860151608083015260a086015160a083015260c086015160c08301526145ea60e087016143a6565b60e083015261010080870151818401525081945061460a87828801614411565b9350505061461b6103a0850161455e565b90509250925092565b7f4e487b7100000000000000000000000000000000000000000000000000000000600052601160045260246000fd5b60007fffffffffffffffffffffffffffffffffffffffffffffffffffffffffffffffff820361468457614684614624565b5060010190565b7f4e487b7100000000000000000000000000000000000000000000000000000000600052603260045260246000fd5b6146df8282518051151582526020808201511515908301526040908101511515910152565b6020810151606083015260408101516080830152606081015160a0830152608081015161471060c084018215159052565b5060a081015180151560e08401525060c08101516101006147348185018315159052565b60e0830151915061012061474b8186018415159052565b908301519150610140906147628583018415159052565b83015191506101606147778582018415159052565b9083015191506101809061478e8583018415159052565b83015191506101a06147a38582018415159052565b9083015191506101c0906147ba8583018415159052565b83015191506101e06147cf8582018415159052565b908301519150610200906147e68583018415159052565b83015191506102206147fb8582018415159052565b9083015173ffffffffffffffffffffffffffffffffffffffff16610240850152909101516102609092019190915250565b600081518084526020808501808196508360051b810191508286016000805b8681101561490b578385038a52825180518652860151604087870181905281518188018190529188019160609081890190865b818110156148f45785518051151584528c81015115158d8501528581015186850152848101518585015260808082015173ffffffffffffffffffffffffffffffffffffffff9081169186019190915260a0808301519086015260c0918201511690840152948b019460e09092019160010161487e565b50509c89019c97505050928601925060010161484b565b509298975050505050505050565b600081518084526020808501945080840160005b83811015614996578151805173ffffffffffffffffffffffffffffffffffffffff908116895284820151168489015260408082015190890152606080820151908901526080808201519089015260a0908101519088015260c0909601959082019060010161492d565b509495945050505050565b60006103a08883526149ed602084018980518252602081015160208301526040810151604083015273ffffffffffffffffffffffffffffffffffffffff60608201511660608301525050565b6149fa60a08401886146ba565b6fffffffffffffffffffffffffffffffff861661032084015280610340840152614a268184018661482c565b9050828103610360840152614a3b8185614919565b838103610380909401939093525050603281527f5363686564756c6564206e657874206465762074617820706572696f64206f6660208201527f2052657461696c697374206e6574776f726b000000000000000000000000000060408201526060019695505050505050565b600060208284031215614ab957600080fd5b5051919050565b600060208284031215614ad257600080fd5b815161302a8161304a565b73ffffffffffffffffffffffffffffffffffffffff831681526040602082015260008251604080840152614b146080840182613e59565b905060208401516060840152809150509392505050565b838152606060208201526000614b446060830185613e59565b8281036040840152614b568185613e59565b9695505050505050565b600181815b80851115614bb957817fffffffffffffffffffffffffffffffffffffffffffffffffffffffffffffffff04821115614b9f57614b9f614624565b80851615614bac57918102915b93841c9390800290614b65565b509250929050565b600082614bd0575060016104ca565b81614bdd575060006104ca565b8160018114614bf35760028114614bfd57614c19565b60019150506104ca565b60ff841115614c0e57614c0e614624565b50506001821b6104ca565b5060208310610133831016604e8410600b8410161715614c3c575081810a6104ca565b614c468383614b60565b807fffffffffffffffffffffffffffffffffffffffffffffffffffffffffffffffff04821115614c7857614c78614624565b029392505050565b600061302a60ff841683614bc1565b818103818111156104ca576104ca614624565b60006103c08983526020614cef8185018b80518252602081015160208301526040810151604083015273ffffffffffffffffffffffffffffffffffffffff60608201511660608301525050565b614cfc60a085018a6146ba565b6fffffffffffffffffffffffffffffffff881661032085015281610340850152614d288285018861482c565b9150838203610360850152614d3d8287614919565b848103610380860152855180825282870193509082019060005b81811015614d8957845173ffffffffffffffffffffffffffffffffffffffff1683529383019391830191600101614d57565b50508481036103a0860152601a81527f4465706c6f7965642052657461696c697374206e6574776f726b0000000000006020820152604081019c9b505050505050505050505050565b7f5072656d696e7465642024000000000000000000000000000000000000000000815260008251614e0a81600b850160208701613e35565b91909101600b0192915050565b86815285602082015273ffffffffffffffffffffffffffffffffffffffff8516604082015260c060608201526000614e5260c0830186613e59565b93151560808301525090151560a090910152949350505050565b600060208083526080830173ffffffffffffffffffffffffffffffffffffffff85511682850152818501516040850152604085015160608086015281815180845260a0870191508483019350600092505b808310156133e55783518252928401926001929092019190840190614ebd565b60006080820173ffffffffffffffffffffffffffffffffffffffff808816845260208188168186015286604086015260806060860152829150855480845260a0860192508660005281600020935060005b81811015614f4a57845484526001948501949383019301614f2e565b50919998505050505050505050565b600060208284031215614f6b57600080fd5b815161302a8161390e565b600181811c90821680614f8a57607f821691505b602082108103614fc3577f4e487b7100000000000000000000000000000000000000000000000000000000600052602260045260246000fd5b50919050565b601f82111561501357600081815260208120601f850160051c81016020861015614ff05750805b601f850160051c820191505b8181101561500f57828155600101614ffc565b5050505b505050565b815167ffffffffffffffff8111156150325761503261307f565b615046816150408454614f76565b84614fc9565b602080601f83116001811461509957600084156150635750858301515b7fffffffffffffffffffffffffffffffffffffffffffffffffffffffffffffffff600386901b1c1916600185901b17855561500f565b6000858152602081207fffffffffffffffffffffffffffffffffffffffffffffffffffffffffffffffe08616915b828110156150e6578886015182559484019460019091019084016150c7565b508582101561512257878501517fffffffffffffffffffffffffffffffffffffffffffffffffffffffffffffffff600388901b60f8161c191681555b5050505050600190811b01905550565b808201808211156104ca576104ca614624565b80516080808452815184820181905260009260a0916020918201918388019190865b8281101561522a57845180516cffffffffffffffffffffffffff1685528281015163ffffffff908116848701526040808301519091169086015260608082015161ffff16908601528781015173ffffffffffffffffffffffffffffffffffffffff1688860152868101518786015260c08082015162ffffff169086015260e0808201511515908601526101008082015115159086015261012080820151151590860152610140908101511515908501529381019361016090930192600101615167565b508781015165ffffffffffff81168a830152955050506040860151935061525b604088018565ffffffffffff169052565b60608601519350614b56606088018573ffffffffffffffffffffffffffffffffffffffff169052565b600281106152bb577f4e487b7100000000000000000000000000000000000000000000000000000000600052602160045260246000fd5b9052565b82815260406020820152600082516101c060408401526152e3610200840182613e59565b905060208401517fffffffffffffffffffffffffffffffffffffffffffffffffffffffffffffffc08085840301606086015261531f8383613e59565b92506040860151915061534a608086018373ffffffffffffffffffffffffffffffffffffffff169052565b60608601519150808584030160a08601526153658383613e59565b92506080860151915061539060c086018373ffffffffffffffffffffffffffffffffffffffff169052565b60a08601519150808584030160e08601526153ab8383613e59565b925060c086015191506101008186850301818701526153ca8484615145565b935060e0870151925061012091506153f98287018473ffffffffffffffffffffffffffffffffffffffff169052565b86015191506101406154228682018473ffffffffffffffffffffffffffffffffffffffff169052565b908601518051151561016087015260208101511515610180870152604081015115156101a08701526060015115156101c086015285015190506154696101e0850182615284565b50949350505050565b6000604080830185845260208281860152818651808452606093508387019150838160051b8801018389016000805b84811015615569578a84037fffffffffffffffffffffffffffffffffffffffffffffffffffffffffffffffa00186528251805173ffffffffffffffffffffffffffffffffffffffff908116865288820151898701528a8201518b870152898201518a8701526080808301519087015260a09182015160c0928701839052805192870183905289019160e087019185915b8083101561555357845182168452938b0193928b019260019290920191615531565b50505096880196945050918601916001016154a1565b50919b9a5050505050505050505050565b80356155858161304a565b73ffffffffffffffffffffffffffffffffffffffff1682526020818101359083015260408082013590830152606090810135910152565b60008083357fffffffffffffffffffffffffffffffffffffffffffffffffffffffffffffffe18436030181126155f157600080fd5b830160208101925035905067ffffffffffffffff81111561561157600080fd5b80360382131561562057600080fd5b9250929050565b8183528181602085013750600060208284010152600060207fffffffffffffffffffffffffffffffffffffffffffffffffffffffffffffffe0601f840116840101905092915050565b6020815261569e602082016156848461306f565b73ffffffffffffffffffffffffffffffffffffffff169052565b60006156ac6020840161306f565b73ffffffffffffffffffffffffffffffffffffffff81166040840152506156d9606083016040850161557a565b60c083013560e083015261010060e0840135818401526156fa81850161306f565b90506101206157208185018373ffffffffffffffffffffffffffffffffffffffff169052565b61014091508085013582850152506101608185013581850152615745818601866155bc565b925090506101a061018081818701526157636101c087018585615627565b9350615771818801886155bc565b935090507fffffffffffffffffffffffffffffffffffffffffffffffffffffffffffffffe086850301828701526157a9848483615627565b979650505050505050565b60006157c26132728461321e565b90508281528383830111156157d657600080fd5b61302a836020830184613e35565b6000806000606084860312156157f957600080fd5b8351925060208085015167ffffffffffffffff8082111561581957600080fd5b818701915087601f83011261582d57600080fd5b61583b8883518585016157b4565b9450604087015191508082111561585157600080fd5b818701915087601f83011261586557600080fd5b815161587361327282613314565b81815260059190911b8301840190848101908a83111561589257600080fd5b8585015b8381101561594c578051858111156158ad57600080fd5b86016060818e037fffffffffffffffffffffffffffffffffffffffffffffffffffffffffffffffe00112156158e157600080fd5b6158e96130fa565b888201516158f68161304a565b815260408201518982015260608201518781111561591357600080fd5b8083019250508d603f83011261592857600080fd5b6159398e8a840151604085016157b4565b6040820152845250918601918601615896565b508096505050505050509250925092565b60008083357fffffffffffffffffffffffffffffffffffffffffffffffffffffffffffffffe184360301811261599257600080fd5b83018035915067ffffffffffffffff8211156159ad57600080fd5b60200191503681900382131561562057600080fdfea264697066735822122021c4a901d220bf2086aba188d87ed7f32f7e0ec35cd8b0cf3d38fcceb397c3ef64736f6c63430008150033",
    "linkReferences": {}
  },
  "methodIdentifiers": {
    "buybackDelegateDataSourceOf(uint256)": "ef8eadd5",
    "buybackDelegatePermissionIndexes(uint256)": "9e8c513a",
    "controller()": "f77c4791",
    "croptopPermissionIndexes(uint256)": "42921698",
    "currentDevTaxPeriodNumberOf(uint256)": "9f665eee",
    "delegateAllocationsOf(uint256,uint256)": "abc603e3",
    "delegateDeployer()": "8f3d964b",
    "deployBasicNetworkFor(address,(string,uint256),string,string,(uint256,uint256,uint256,uint256,uint256,(uint128,uint128)[],uint24),address[],address)": "0a801f47",
    "deployCroptopTiered721PayAllocatorNetworkFor(address,(string,uint256),string,string,(uint256,uint256,uint256,uint256,uint256,(uint128,uint128)[],uint24),address[],address,(string,string,address,string,address,string,((uint104,uint32,uint32,uint16,address,bytes32,uint24,bool,bool,bool,bool)[],uint48,uint48,address),address,address,(bool,bool,bool,bool),uint8),(address,uint256,bytes)[],uint8,(address,uint256,uint256,uint256,uint256,address[])[])": "a9d51359",
    "deployPayAllocatorNetworkFor(address,(string,uint256),string,string,(uint256,uint256,uint256,uint256,uint256,(uint128,uint128)[],uint24),address[],address,(address,uint256,bytes)[],uint8)": "522aa551",
    "deployTiered721PayAllocatorNetworkFor(address,(string,uint256),string,string,(uint256,uint256,uint256,uint256,uint256,(uint128,uint128)[],uint24),address[],address,(string,string,address,string,address,string,((uint104,uint32,uint32,uint16,address,bytes32,uint24,bool,bool,bool,bool)[],uint48,uint48,address),address,address,(bool,bool,bool,bool),uint8),(address,uint256,bytes)[],uint8)": "5bd26667",
    "devTaxPeriodsOf(uint256,uint256)": "a26711ae",
    "directory()": "c41c2f24",
    "onERC721Received(address,address,uint256,bytes)": "150b7a02",
    "operatorPermissionIndexes(uint256)": "4d757720",
    "payParams((address,address,(address,uint256,uint256,uint256),uint256,uint256,address,uint256,uint256,string,bytes))": "d46cf171",
    "publisher()": "8c72c54e",
    "redeemParams((address,address,uint256,uint256,uint256,uint256,uint256,(address,uint256,uint256,uint256),bool,uint256,string,bytes))": "a51cfd18",
    "scheduleNextDevTaxPeriodOf(uint256)": "0310850e",
    "supportsInterface(bytes4)": "01ffc9a7"
  },
  "id": 103
}