{
  "abi": [
    {
      "inputs": [
        {
          "internalType": "contract CroptopPublisher",
          "name": "_publisher",
          "type": "address"
        },
        {
          "internalType": "contract IJBDirectory",
          "name": "_directory",
          "type": "address"
        },
        {
          "internalType": "contract IJBTiered721DelegateDeployer",
          "name": "_delegateDeployer",
          "type": "address"
        },
        {
          "internalType": "contract IJBController3_1",
          "name": "_controller",
          "type": "address"
        }
      ],
      "stateMutability": "nonpayable",
      "type": "constructor"
    },
    {
      "inputs": [],
      "name": "BAD_DEV_TAX_SEQUENCE",
      "type": "error"
    },
    {
      "inputs": [],
      "name": "RECONFIGURATION_ALREADY_SCHEDULED",
      "type": "error"
    },
    {
      "inputs": [],
      "name": "RECONFIGURATION_NOT_POSSIBLE",
      "type": "error"
    },
    {
      "inputs": [
        {
          "internalType": "uint256",
          "name": "",
          "type": "uint256"
        }
      ],
      "name": "buybackDelegateDataSourceOf",
      "outputs": [
        {
          "internalType": "contract IJBGenericBuybackDelegate",
          "name": "",
          "type": "address"
        }
      ],
      "stateMutability": "view",
      "type": "function"
    },
    {
      "inputs": [
        {
          "internalType": "uint256",
          "name": "",
          "type": "uint256"
        }
      ],
      "name": "buybackDelegatePermissionIndexes",
      "outputs": [
        {
          "internalType": "uint256",
          "name": "",
          "type": "uint256"
        }
      ],
      "stateMutability": "view",
      "type": "function"
    },
    {
      "inputs": [],
      "name": "controller",
      "outputs": [
        {
          "internalType": "contract IJBController3_1",
          "name": "",
          "type": "address"
        }
      ],
      "stateMutability": "view",
      "type": "function"
    },
    {
      "inputs": [
        {
          "internalType": "uint256",
          "name": "",
          "type": "uint256"
        }
      ],
      "name": "croptopPermissionIndexes",
      "outputs": [
        {
          "internalType": "uint256",
          "name": "",
          "type": "uint256"
        }
      ],
      "stateMutability": "view",
      "type": "function"
    },
    {
      "inputs": [
        {
          "internalType": "uint256",
          "name": "_networkId",
          "type": "uint256"
        }
      ],
      "name": "currentDevTaxPeriodNumberOf",
      "outputs": [
        {
          "internalType": "uint256",
          "name": "",
          "type": "uint256"
        }
      ],
      "stateMutability": "view",
      "type": "function"
    },
    {
      "inputs": [
        {
          "internalType": "uint256",
          "name": "",
          "type": "uint256"
        },
        {
          "internalType": "uint256",
          "name": "",
          "type": "uint256"
        }
      ],
      "name": "delegateAllocationsOf",
      "outputs": [
        {
          "internalType": "contract IJBPayDelegate3_1_1",
          "name": "delegate",
          "type": "address"
        },
        {
          "internalType": "uint256",
          "name": "amount",
          "type": "uint256"
        },
        {
          "internalType": "bytes",
          "name": "metadata",
          "type": "bytes"
        }
      ],
      "stateMutability": "view",
      "type": "function"
    },
    {
      "inputs": [],
      "name": "delegateDeployer",
      "outputs": [
        {
          "internalType": "contract IJBTiered721DelegateDeployer",
          "name": "",
          "type": "address"
        }
      ],
      "stateMutability": "view",
      "type": "function"
    },
    {
      "inputs": [
        {
          "internalType": "address",
          "name": "_operator",
          "type": "address"
        },
        {
          "components": [
            {
              "internalType": "string",
              "name": "content",
              "type": "string"
            },
            {
              "internalType": "uint256",
              "name": "domain",
              "type": "uint256"
            }
          ],
          "internalType": "struct JBProjectMetadata",
          "name": "_networkMetadata",
          "type": "tuple"
        },
        {
          "internalType": "string",
          "name": "_name",
          "type": "string"
        },
        {
          "internalType": "string",
          "name": "_symbol",
          "type": "string"
        },
        {
          "components": [
            {
              "internalType": "uint256",
              "name": "initialIssuanceRate",
              "type": "uint256"
            },
            {
              "internalType": "uint256",
              "name": "premintTokenAmount",
              "type": "uint256"
            },
            {
              "internalType": "uint256",
              "name": "generationTax",
              "type": "uint256"
            },
            {
              "internalType": "uint256",
              "name": "generationDuration",
              "type": "uint256"
            },
            {
              "internalType": "uint256",
              "name": "exitTaxRate",
              "type": "uint256"
            },
            {
              "components": [
                {
                  "internalType": "uint128",
                  "name": "rate",
                  "type": "uint128"
                },
                {
                  "internalType": "uint128",
                  "name": "startsAtOrAfter",
                  "type": "uint128"
                }
              ],
              "internalType": "struct DevTaxPeriod[]",
              "name": "devTaxPeriods",
              "type": "tuple[]"
            },
            {
              "internalType": "uint24",
              "name": "poolFee",
              "type": "uint24"
            }
          ],
          "internalType": "struct BasicRetailistJBParams",
          "name": "_data",
          "type": "tuple"
        },
        {
          "internalType": "contract IJBPaymentTerminal[]",
          "name": "_terminals",
          "type": "address[]"
        },
        {
          "internalType": "contract IJBGenericBuybackDelegate",
          "name": "_buybackDelegate",
          "type": "address"
        }
      ],
      "name": "deployBasicNetworkFor",
      "outputs": [
        {
          "internalType": "uint256",
          "name": "networkId",
          "type": "uint256"
        }
      ],
      "stateMutability": "nonpayable",
      "type": "function"
    },
    {
      "inputs": [
        {
          "internalType": "address",
          "name": "_operator",
          "type": "address"
        },
        {
          "components": [
            {
              "internalType": "string",
              "name": "content",
              "type": "string"
            },
            {
              "internalType": "uint256",
              "name": "domain",
              "type": "uint256"
            }
          ],
          "internalType": "struct JBProjectMetadata",
          "name": "_networkMetadata",
          "type": "tuple"
        },
        {
          "internalType": "string",
          "name": "_name",
          "type": "string"
        },
        {
          "internalType": "string",
          "name": "_symbol",
          "type": "string"
        },
        {
          "components": [
            {
              "internalType": "uint256",
              "name": "initialIssuanceRate",
              "type": "uint256"
            },
            {
              "internalType": "uint256",
              "name": "premintTokenAmount",
              "type": "uint256"
            },
            {
              "internalType": "uint256",
              "name": "generationTax",
              "type": "uint256"
            },
            {
              "internalType": "uint256",
              "name": "generationDuration",
              "type": "uint256"
            },
            {
              "internalType": "uint256",
              "name": "exitTaxRate",
              "type": "uint256"
            },
            {
              "components": [
                {
                  "internalType": "uint128",
                  "name": "rate",
                  "type": "uint128"
                },
                {
                  "internalType": "uint128",
                  "name": "startsAtOrAfter",
                  "type": "uint128"
                }
              ],
              "internalType": "struct DevTaxPeriod[]",
              "name": "devTaxPeriods",
              "type": "tuple[]"
            },
            {
              "internalType": "uint24",
              "name": "poolFee",
              "type": "uint24"
            }
          ],
          "internalType": "struct BasicRetailistJBParams",
          "name": "_data",
          "type": "tuple"
        },
        {
          "internalType": "contract IJBPaymentTerminal[]",
          "name": "_terminals",
          "type": "address[]"
        },
        {
          "internalType": "contract IJBGenericBuybackDelegate",
          "name": "_buybackDelegate",
          "type": "address"
        },
        {
          "components": [
            {
              "internalType": "string",
              "name": "name",
              "type": "string"
            },
            {
              "internalType": "string",
              "name": "symbol",
              "type": "string"
            },
            {
              "internalType": "contract IJBFundingCycleStore",
              "name": "fundingCycleStore",
              "type": "address"
            },
            {
              "internalType": "string",
              "name": "baseUri",
              "type": "string"
            },
            {
              "internalType": "contract IJB721TokenUriResolver",
              "name": "tokenUriResolver",
              "type": "address"
            },
            {
              "internalType": "string",
              "name": "contractUri",
              "type": "string"
            },
            {
              "components": [
                {
                  "components": [
                    {
                      "internalType": "uint104",
                      "name": "price",
                      "type": "uint104"
                    },
                    {
                      "internalType": "uint32",
                      "name": "initialQuantity",
                      "type": "uint32"
                    },
                    {
                      "internalType": "uint32",
                      "name": "votingUnits",
                      "type": "uint32"
                    },
                    {
                      "internalType": "uint16",
                      "name": "reservedRate",
                      "type": "uint16"
                    },
                    {
                      "internalType": "address",
                      "name": "reservedTokenBeneficiary",
                      "type": "address"
                    },
                    {
                      "internalType": "bytes32",
                      "name": "encodedIPFSUri",
                      "type": "bytes32"
                    },
                    {
                      "internalType": "uint24",
                      "name": "category",
                      "type": "uint24"
                    },
                    {
                      "internalType": "bool",
                      "name": "allowManualMint",
                      "type": "bool"
                    },
                    {
                      "internalType": "bool",
                      "name": "shouldUseReservedTokenBeneficiaryAsDefault",
                      "type": "bool"
                    },
                    {
                      "internalType": "bool",
                      "name": "transfersPausable",
                      "type": "bool"
                    },
                    {
                      "internalType": "bool",
                      "name": "useVotingUnits",
                      "type": "bool"
                    }
                  ],
                  "internalType": "struct JB721TierParams[]",
                  "name": "tiers",
                  "type": "tuple[]"
                },
                {
                  "internalType": "uint48",
                  "name": "currency",
                  "type": "uint48"
                },
                {
                  "internalType": "uint48",
                  "name": "decimals",
                  "type": "uint48"
                },
                {
                  "internalType": "contract IJBPrices",
                  "name": "prices",
                  "type": "address"
                }
              ],
              "internalType": "struct JB721PricingParams",
              "name": "pricing",
              "type": "tuple"
            },
            {
              "internalType": "address",
              "name": "reservedTokenBeneficiary",
              "type": "address"
            },
            {
              "internalType": "contract IJBTiered721DelegateStore",
              "name": "store",
              "type": "address"
            },
            {
              "components": [
                {
                  "internalType": "bool",
                  "name": "lockReservedTokenChanges",
                  "type": "bool"
                },
                {
                  "internalType": "bool",
                  "name": "lockVotingUnitChanges",
                  "type": "bool"
                },
                {
                  "internalType": "bool",
                  "name": "lockManualMintingChanges",
                  "type": "bool"
                },
                {
                  "internalType": "bool",
                  "name": "preventOverspending",
                  "type": "bool"
                }
              ],
              "internalType": "struct JBTiered721Flags",
              "name": "flags",
              "type": "tuple"
            },
            {
              "internalType": "enum JB721GovernanceType",
              "name": "governanceType",
              "type": "uint8"
            }
          ],
          "internalType": "struct JBDeployTiered721DelegateData",
          "name": "_deployTiered721DelegateData",
          "type": "tuple"
        },
        {
          "components": [
            {
              "internalType": "contract IJBPayDelegate3_1_1",
              "name": "delegate",
              "type": "address"
            },
            {
              "internalType": "uint256",
              "name": "amount",
              "type": "uint256"
            },
            {
              "internalType": "bytes",
              "name": "metadata",
              "type": "bytes"
            }
          ],
          "internalType": "struct JBPayDelegateAllocation3_1_1[]",
          "name": "_otherDelegateAllocations",
          "type": "tuple[]"
        },
        {
          "internalType": "uint8",
          "name": "_extraFundingCycleMetadata",
          "type": "uint8"
        },
        {
          "components": [
            {
              "internalType": "address",
              "name": "nft",
              "type": "address"
            },
            {
              "internalType": "uint256",
              "name": "category",
              "type": "uint256"
            },
            {
              "internalType": "uint256",
              "name": "minimumPrice",
              "type": "uint256"
            },
            {
              "internalType": "uint256",
              "name": "minimumTotalSupply",
              "type": "uint256"
            },
            {
              "internalType": "uint256",
              "name": "maximumTotalSupply",
              "type": "uint256"
            },
            {
              "internalType": "address[]",
              "name": "allowedAddresses",
              "type": "address[]"
            }
          ],
          "internalType": "struct AllowedPost[]",
          "name": "_allowedPosts",
          "type": "tuple[]"
        }
      ],
      "name": "deployCroptopTiered721PayAllocatorNetworkFor",
      "outputs": [
        {
          "internalType": "uint256",
          "name": "networkId",
          "type": "uint256"
        }
      ],
      "stateMutability": "nonpayable",
      "type": "function"
    },
    {
      "inputs": [
        {
          "internalType": "address",
          "name": "_operator",
          "type": "address"
        },
        {
          "components": [
            {
              "internalType": "string",
              "name": "content",
              "type": "string"
            },
            {
              "internalType": "uint256",
              "name": "domain",
              "type": "uint256"
            }
          ],
          "internalType": "struct JBProjectMetadata",
          "name": "_networkMetadata",
          "type": "tuple"
        },
        {
          "internalType": "string",
          "name": "_name",
          "type": "string"
        },
        {
          "internalType": "string",
          "name": "_symbol",
          "type": "string"
        },
        {
          "components": [
            {
              "internalType": "uint256",
              "name": "initialIssuanceRate",
              "type": "uint256"
            },
            {
              "internalType": "uint256",
              "name": "premintTokenAmount",
              "type": "uint256"
            },
            {
              "internalType": "uint256",
              "name": "generationTax",
              "type": "uint256"
            },
            {
              "internalType": "uint256",
              "name": "generationDuration",
              "type": "uint256"
            },
            {
              "internalType": "uint256",
              "name": "exitTaxRate",
              "type": "uint256"
            },
            {
              "components": [
                {
                  "internalType": "uint128",
                  "name": "rate",
                  "type": "uint128"
                },
                {
                  "internalType": "uint128",
                  "name": "startsAtOrAfter",
                  "type": "uint128"
                }
              ],
              "internalType": "struct DevTaxPeriod[]",
              "name": "devTaxPeriods",
              "type": "tuple[]"
            },
            {
              "internalType": "uint24",
              "name": "poolFee",
              "type": "uint24"
            }
          ],
          "internalType": "struct BasicRetailistJBParams",
          "name": "_data",
          "type": "tuple"
        },
        {
          "internalType": "contract IJBPaymentTerminal[]",
          "name": "_terminals",
          "type": "address[]"
        },
        {
          "internalType": "contract IJBGenericBuybackDelegate",
          "name": "_buybackDelegate",
          "type": "address"
        },
        {
          "components": [
            {
              "internalType": "contract IJBPayDelegate3_1_1",
              "name": "delegate",
              "type": "address"
            },
            {
              "internalType": "uint256",
              "name": "amount",
              "type": "uint256"
            },
            {
              "internalType": "bytes",
              "name": "metadata",
              "type": "bytes"
            }
          ],
          "internalType": "struct JBPayDelegateAllocation3_1_1[]",
          "name": "_delegateAllocations",
          "type": "tuple[]"
        },
        {
          "internalType": "uint8",
          "name": "_extraFundingCycleMetadata",
          "type": "uint8"
        }
      ],
      "name": "deployPayAllocatorNetworkFor",
      "outputs": [
        {
          "internalType": "uint256",
          "name": "networkId",
          "type": "uint256"
        }
      ],
      "stateMutability": "nonpayable",
      "type": "function"
    },
    {
      "inputs": [
        {
          "internalType": "address",
          "name": "_operator",
          "type": "address"
        },
        {
          "components": [
            {
              "internalType": "string",
              "name": "content",
              "type": "string"
            },
            {
              "internalType": "uint256",
              "name": "domain",
              "type": "uint256"
            }
          ],
          "internalType": "struct JBProjectMetadata",
          "name": "_networkMetadata",
          "type": "tuple"
        },
        {
          "internalType": "string",
          "name": "_name",
          "type": "string"
        },
        {
          "internalType": "string",
          "name": "_symbol",
          "type": "string"
        },
        {
          "components": [
            {
              "internalType": "uint256",
              "name": "initialIssuanceRate",
              "type": "uint256"
            },
            {
              "internalType": "uint256",
              "name": "premintTokenAmount",
              "type": "uint256"
            },
            {
              "internalType": "uint256",
              "name": "generationTax",
              "type": "uint256"
            },
            {
              "internalType": "uint256",
              "name": "generationDuration",
              "type": "uint256"
            },
            {
              "internalType": "uint256",
              "name": "exitTaxRate",
              "type": "uint256"
            },
            {
              "components": [
                {
                  "internalType": "uint128",
                  "name": "rate",
                  "type": "uint128"
                },
                {
                  "internalType": "uint128",
                  "name": "startsAtOrAfter",
                  "type": "uint128"
                }
              ],
              "internalType": "struct DevTaxPeriod[]",
              "name": "devTaxPeriods",
              "type": "tuple[]"
            },
            {
              "internalType": "uint24",
              "name": "poolFee",
              "type": "uint24"
            }
          ],
          "internalType": "struct BasicRetailistJBParams",
          "name": "_data",
          "type": "tuple"
        },
        {
          "internalType": "contract IJBPaymentTerminal[]",
          "name": "_terminals",
          "type": "address[]"
        },
        {
          "internalType": "contract IJBGenericBuybackDelegate",
          "name": "_buybackDelegate",
          "type": "address"
        },
        {
          "components": [
            {
              "internalType": "string",
              "name": "name",
              "type": "string"
            },
            {
              "internalType": "string",
              "name": "symbol",
              "type": "string"
            },
            {
              "internalType": "contract IJBFundingCycleStore",
              "name": "fundingCycleStore",
              "type": "address"
            },
            {
              "internalType": "string",
              "name": "baseUri",
              "type": "string"
            },
            {
              "internalType": "contract IJB721TokenUriResolver",
              "name": "tokenUriResolver",
              "type": "address"
            },
            {
              "internalType": "string",
              "name": "contractUri",
              "type": "string"
            },
            {
              "components": [
                {
                  "components": [
                    {
                      "internalType": "uint104",
                      "name": "price",
                      "type": "uint104"
                    },
                    {
                      "internalType": "uint32",
                      "name": "initialQuantity",
                      "type": "uint32"
                    },
                    {
                      "internalType": "uint32",
                      "name": "votingUnits",
                      "type": "uint32"
                    },
                    {
                      "internalType": "uint16",
                      "name": "reservedRate",
                      "type": "uint16"
                    },
                    {
                      "internalType": "address",
                      "name": "reservedTokenBeneficiary",
                      "type": "address"
                    },
                    {
                      "internalType": "bytes32",
                      "name": "encodedIPFSUri",
                      "type": "bytes32"
                    },
                    {
                      "internalType": "uint24",
                      "name": "category",
                      "type": "uint24"
                    },
                    {
                      "internalType": "bool",
                      "name": "allowManualMint",
                      "type": "bool"
                    },
                    {
                      "internalType": "bool",
                      "name": "shouldUseReservedTokenBeneficiaryAsDefault",
                      "type": "bool"
                    },
                    {
                      "internalType": "bool",
                      "name": "transfersPausable",
                      "type": "bool"
                    },
                    {
                      "internalType": "bool",
                      "name": "useVotingUnits",
                      "type": "bool"
                    }
                  ],
                  "internalType": "struct JB721TierParams[]",
                  "name": "tiers",
                  "type": "tuple[]"
                },
                {
                  "internalType": "uint48",
                  "name": "currency",
                  "type": "uint48"
                },
                {
                  "internalType": "uint48",
                  "name": "decimals",
                  "type": "uint48"
                },
                {
                  "internalType": "contract IJBPrices",
                  "name": "prices",
                  "type": "address"
                }
              ],
              "internalType": "struct JB721PricingParams",
              "name": "pricing",
              "type": "tuple"
            },
            {
              "internalType": "address",
              "name": "reservedTokenBeneficiary",
              "type": "address"
            },
            {
              "internalType": "contract IJBTiered721DelegateStore",
              "name": "store",
              "type": "address"
            },
            {
              "components": [
                {
                  "internalType": "bool",
                  "name": "lockReservedTokenChanges",
                  "type": "bool"
                },
                {
                  "internalType": "bool",
                  "name": "lockVotingUnitChanges",
                  "type": "bool"
                },
                {
                  "internalType": "bool",
                  "name": "lockManualMintingChanges",
                  "type": "bool"
                },
                {
                  "internalType": "bool",
                  "name": "preventOverspending",
                  "type": "bool"
                }
              ],
              "internalType": "struct JBTiered721Flags",
              "name": "flags",
              "type": "tuple"
            },
            {
              "internalType": "enum JB721GovernanceType",
              "name": "governanceType",
              "type": "uint8"
            }
          ],
          "internalType": "struct JBDeployTiered721DelegateData",
          "name": "_deployTiered721DelegateData",
          "type": "tuple"
        },
        {
          "components": [
            {
              "internalType": "contract IJBPayDelegate3_1_1",
              "name": "delegate",
              "type": "address"
            },
            {
              "internalType": "uint256",
              "name": "amount",
              "type": "uint256"
            },
            {
              "internalType": "bytes",
              "name": "metadata",
              "type": "bytes"
            }
          ],
          "internalType": "struct JBPayDelegateAllocation3_1_1[]",
          "name": "_otherDelegateAllocations",
          "type": "tuple[]"
        },
        {
          "internalType": "uint8",
          "name": "_extraFundingCycleMetadata",
          "type": "uint8"
        }
      ],
      "name": "deployTiered721PayAllocatorNetworkFor",
      "outputs": [
        {
          "internalType": "uint256",
          "name": "networkId",
          "type": "uint256"
        }
      ],
      "stateMutability": "nonpayable",
      "type": "function"
    },
    {
      "inputs": [
        {
          "internalType": "uint256",
          "name": "_networkId",
          "type": "uint256"
        }
      ],
      "name": "devTaxPeriodsOf",
      "outputs": [
        {
          "components": [
            {
              "internalType": "uint128",
              "name": "rate",
              "type": "uint128"
            },
            {
              "internalType": "uint128",
              "name": "startsAtOrAfter",
              "type": "uint128"
            }
          ],
          "internalType": "struct DevTaxPeriod[]",
          "name": "",
          "type": "tuple[]"
        }
      ],
      "stateMutability": "view",
      "type": "function"
    },
    {
      "inputs": [],
      "name": "directory",
      "outputs": [
        {
          "internalType": "contract IJBDirectory",
          "name": "",
          "type": "address"
        }
      ],
      "stateMutability": "view",
      "type": "function"
    },
    {
      "inputs": [
        {
          "internalType": "address",
          "name": "_operator",
          "type": "address"
        },
        {
          "internalType": "address",
          "name": "_from",
          "type": "address"
        },
        {
          "internalType": "uint256",
          "name": "_tokenId",
          "type": "uint256"
        },
        {
          "internalType": "bytes",
          "name": "_data",
          "type": "bytes"
        }
      ],
      "name": "onERC721Received",
      "outputs": [
        {
          "internalType": "bytes4",
          "name": "",
          "type": "bytes4"
        }
      ],
      "stateMutability": "view",
      "type": "function"
    },
    {
      "inputs": [
        {
          "internalType": "uint256",
          "name": "",
          "type": "uint256"
        }
      ],
      "name": "operatorPermissionIndexes",
      "outputs": [
        {
          "internalType": "uint256",
          "name": "",
          "type": "uint256"
        }
      ],
      "stateMutability": "view",
      "type": "function"
    },
    {
      "inputs": [
        {
          "components": [
            {
              "internalType": "contract IJBPaymentTerminal",
              "name": "terminal",
              "type": "address"
            },
            {
              "internalType": "address",
              "name": "payer",
              "type": "address"
            },
            {
              "components": [
                {
                  "internalType": "address",
                  "name": "token",
                  "type": "address"
                },
                {
                  "internalType": "uint256",
                  "name": "value",
                  "type": "uint256"
                },
                {
                  "internalType": "uint256",
                  "name": "decimals",
                  "type": "uint256"
                },
                {
                  "internalType": "uint256",
                  "name": "currency",
                  "type": "uint256"
                }
              ],
              "internalType": "struct JBTokenAmount",
              "name": "amount",
              "type": "tuple"
            },
            {
              "internalType": "uint256",
              "name": "projectId",
              "type": "uint256"
            },
            {
              "internalType": "uint256",
              "name": "currentFundingCycleConfiguration",
              "type": "uint256"
            },
            {
              "internalType": "address",
              "name": "beneficiary",
              "type": "address"
            },
            {
              "internalType": "uint256",
              "name": "weight",
              "type": "uint256"
            },
            {
              "internalType": "uint256",
              "name": "reservedRate",
              "type": "uint256"
            },
            {
              "internalType": "string",
              "name": "memo",
              "type": "string"
            },
            {
              "internalType": "bytes",
              "name": "metadata",
              "type": "bytes"
            }
          ],
          "internalType": "struct JBPayParamsData",
          "name": "_data",
          "type": "tuple"
        }
      ],
      "name": "payParams",
      "outputs": [
        {
          "internalType": "uint256",
          "name": "weight",
          "type": "uint256"
        },
        {
          "internalType": "string",
          "name": "memo",
          "type": "string"
        },
        {
          "components": [
            {
              "internalType": "contract IJBPayDelegate3_1_1",
              "name": "delegate",
              "type": "address"
            },
            {
              "internalType": "uint256",
              "name": "amount",
              "type": "uint256"
            },
            {
              "internalType": "bytes",
              "name": "metadata",
              "type": "bytes"
            }
          ],
          "internalType": "struct JBPayDelegateAllocation3_1_1[]",
          "name": "delegateAllocations",
          "type": "tuple[]"
        }
      ],
      "stateMutability": "view",
      "type": "function"
    },
    {
      "inputs": [],
      "name": "publisher",
      "outputs": [
        {
          "internalType": "contract CroptopPublisher",
          "name": "",
          "type": "address"
        }
      ],
      "stateMutability": "view",
      "type": "function"
    },
    {
      "inputs": [
        {
          "components": [
            {
              "internalType": "contract IJBPaymentTerminal",
              "name": "terminal",
              "type": "address"
            },
            {
              "internalType": "address",
              "name": "holder",
              "type": "address"
            },
            {
              "internalType": "uint256",
              "name": "projectId",
              "type": "uint256"
            },
            {
              "internalType": "uint256",
              "name": "currentFundingCycleConfiguration",
              "type": "uint256"
            },
            {
              "internalType": "uint256",
              "name": "tokenCount",
              "type": "uint256"
            },
            {
              "internalType": "uint256",
              "name": "totalSupply",
              "type": "uint256"
            },
            {
              "internalType": "uint256",
              "name": "overflow",
              "type": "uint256"
            },
            {
              "components": [
                {
                  "internalType": "address",
                  "name": "token",
                  "type": "address"
                },
                {
                  "internalType": "uint256",
                  "name": "value",
                  "type": "uint256"
                },
                {
                  "internalType": "uint256",
                  "name": "decimals",
                  "type": "uint256"
                },
                {
                  "internalType": "uint256",
                  "name": "currency",
                  "type": "uint256"
                }
              ],
              "internalType": "struct JBTokenAmount",
              "name": "reclaimAmount",
              "type": "tuple"
            },
            {
              "internalType": "bool",
              "name": "useTotalOverflow",
              "type": "bool"
            },
            {
              "internalType": "uint256",
              "name": "redemptionRate",
              "type": "uint256"
            },
            {
              "internalType": "string",
              "name": "memo",
              "type": "string"
            },
            {
              "internalType": "bytes",
              "name": "metadata",
              "type": "bytes"
            }
          ],
          "internalType": "struct JBRedeemParamsData",
          "name": "_data",
          "type": "tuple"
        }
      ],
      "name": "redeemParams",
      "outputs": [
        {
          "internalType": "uint256",
          "name": "",
          "type": "uint256"
        },
        {
          "internalType": "string",
          "name": "",
          "type": "string"
        },
        {
          "components": [
            {
              "internalType": "contract IJBRedemptionDelegate3_1_1",
              "name": "delegate",
              "type": "address"
            },
            {
              "internalType": "uint256",
              "name": "amount",
              "type": "uint256"
            },
            {
              "internalType": "bytes",
              "name": "metadata",
              "type": "bytes"
            }
          ],
          "internalType": "struct JBRedemptionDelegateAllocation3_1_1[]",
          "name": "",
          "type": "tuple[]"
        }
      ],
      "stateMutability": "view",
      "type": "function"
    },
    {
      "inputs": [
        {
          "internalType": "uint256",
          "name": "_networkId",
          "type": "uint256"
        }
      ],
      "name": "scheduleNextDevTaxPeriodOf",
      "outputs": [],
      "stateMutability": "nonpayable",
      "type": "function"
    },
    {
      "inputs": [
        {
          "internalType": "bytes4",
          "name": "_interfaceId",
          "type": "bytes4"
        }
      ],
      "name": "supportsInterface",
      "outputs": [
        {
          "internalType": "bool",
          "name": "",
          "type": "bool"
        }
      ],
      "stateMutability": "view",
      "type": "function"
    }
  ],
  "bytecode": {
    "object": "0x60e06040523480156200001157600080fd5b5060405162005e0338038062005e03833981016040819052620000349162000126565b6001600160a01b0390811660805260018054808201825560127fb10e2d527612073b26eecdfd717e6a320cf44b4afac2b0732d9fcbe2b7fa0cf6918201558154808301835560189101556005805480830190915560097f036b6384b5eca791c62761152d0c79bb0604c104a5fb6f4eb0703f3154bb3db09091015592811660a05290811660c052600680546001600160a01b031916939091169290921790915560078054918201815560005260157fa66cc928b5edb82af9bd49922954155ab7b0942694bea4ce44661d9a8736c688909101556200018e565b6001600160a01b03811681146200012357600080fd5b50565b600080600080608085870312156200013d57600080fd5b84516200014a816200010d565b60208601519094506200015d816200010d565b604086015190935062000170816200010d565b606086015190925062000183816200010d565b939692955090935050565b60805160a05160c051615bc062000243600039600081816102c901526123bc01526000818161037a015281816121b101526125dd0152600081816103f9015281816104fd015281816107590152818161089c015281816109aa01528181610c5b01528181610f1601528181610fed015281816111f5015281816113dc015281816114ea0152818161179b01528181611a9a01528181611b7101528181611d5801528181611eda0152612be10152615bc06000f3fe608060405234801561001057600080fd5b506004361061016c5760003560e01c80638f3d964b116100cd578063abc603e311610081578063d46cf17111610066578063d46cf1711461039c578063ef8eadd5146103be578063f77c4791146103f457600080fd5b8063abc603e314610353578063c41c2f241461037557600080fd5b80639f665eee116100b25780639f665eee146102fe578063a51cfd181461031e578063a9d513591461034057600080fd5b80638f3d964b146102c45780639e8c513a146102eb57600080fd5b80634292169811610124578063522aa55111610109578063522aa551146102595780635bd266671461026c5780638c72c54e1461027f57600080fd5b806342921698146102335780634d7577201461024657600080fd5b80630a801f47116101555780630a801f47146101ae578063150b7a02146101cf578063263950ae1461021357600080fd5b806301ffc9a7146101715780630310850e14610199575b600080fd5b61018461017f36600461304d565b61041b565b60405190151581526020015b60405180910390f35b6101ac6101a7366004613096565b6104b4565b005b6101c16101bc366004613557565b61088c565b604051908152602001610190565b6101e26101dd36600461364a565b6111f1565b6040517fffffffff000000000000000000000000000000000000000000000000000000009091168152602001610190565b610226610221366004613096565b611305565b60405161019091906136e9565b6101c1610241366004613096565b61139b565b6101c1610254366004613096565b6113bc565b6101c161026736600461386c565b6113cc565b6101c161027a366004613d52565b6121ad565b60065461029f9073ffffffffffffffffffffffffffffffffffffffff1681565b60405173ffffffffffffffffffffffffffffffffffffffff9091168152602001610190565b61029f7f000000000000000000000000000000000000000000000000000000000000000081565b6101c16102f9366004613096565b6124b9565b6101c161030c366004613096565b60026020526000908152604090205481565b61033161032c366004613ea1565b6124c9565b60405161019093929190613f4b565b6101c161034e36600461419d565b612531565b61036661036136600461431d565b61274f565b6040516101909392919061433f565b61029f7f000000000000000000000000000000000000000000000000000000000000000081565b6103af6103aa36600461437d565b612832565b604051610190939291906143b9565b61029f6103cc366004613096565b60036020526000908152604090205473ffffffffffffffffffffffffffffffffffffffff1681565b61029f7f000000000000000000000000000000000000000000000000000000000000000081565b60007fffffffff0000000000000000000000000000000000000000000000000000000082167f71700c690000000000000000000000000000000000000000000000000000000014806104ae57507f150b7a02000000000000000000000000000000000000000000000000000000007fffffffff000000000000000000000000000000000000000000000000000000008316145b92915050565b6040517f1f51045300000000000000000000000000000000000000000000000000000000815260048101829052600090819073ffffffffffffffffffffffffffffffffffffffff7f00000000000000000000000000000000000000000000000000000000000000001690631f510453906024016103c060405180830381865afa158015610545573d6000803e3d6000fd5b505050506040513d601f19601f820116820180604052508101906105699190614637565b506000858152600260205260408120805493955091935091829061058c9061471d565b91829055506000858152602081905260409020549091508015806105af57508082145b806105bd5750428460600151115b156105f4576040517fc97554fa00000000000000000000000000000000000000000000000000000000815260040160405180910390fd5b600085815260208190526040812080548490811061061457610614614755565b6000918252602080832060408051808201825293909101546fffffffffffffffffffffffffffffffff808216855270010000000000000000000000000000000090910481168484019081528251608080820185528c810151825281860188905260c0808e01518387015260608084018a905286516102a08101885261024081018b815261026082018c905261028082018c905281528951909616868901528d87015196860196909652948401889052830187905260a0830187905292820186905260e08201869052610100820186905261012082018690526101408201869052610160820186905261018082018690526101a082018690526101c082018690526101e0820195909552610200808a015173ffffffffffffffffffffffffffffffffffffffff908116918301919091526102208a810151908301529451928a01519395507f00000000000000000000000000000000000000000000000000000000000000009094169363badbdf28938b9390610790908590612b9c565b604080516000808252602082019092529061081e565b61080b6040518060c00160405280600073ffffffffffffffffffffffffffffffffffffffff168152602001600073ffffffffffffffffffffffffffffffffffffffff168152602001600081526020016000815260200160008152602001600081525090565b8152602001906001900390816107a65790505b506040518763ffffffff1660e01b815260040161084096959493929190614a6b565b6020604051808303816000875af115801561085f573d6000803e3d6000fd5b505050506040513d601f19601f820116820180604052508101906108839190614b71565b50505050505050565b60008061089889612d6c565b90507f000000000000000000000000000000000000000000000000000000000000000073ffffffffffffffffffffffffffffffffffffffff16638b79543c6040518163ffffffff1660e01b8152600401602060405180830381865afa158015610905573d6000803e3d6000fd5b505050506040513d601f19601f820116820180604052508101906109299190614b8a565b73ffffffffffffffffffffffffffffffffffffffff1663666d87a0308a6040518363ffffffff1660e01b8152600401610963929190614ba7565b6020604051808303816000875af1158015610982573d6000803e3d6000fd5b505050506040513d601f19601f820116820180604052508101906109a69190614b71565b91507f000000000000000000000000000000000000000000000000000000000000000073ffffffffffffffffffffffffffffffffffffffff1663619306306040518163ffffffff1660e01b8152600401602060405180830381865afa158015610a13573d6000803e3d6000fd5b505050506040513d601f19601f82011682018060405250810190610a379190614b8a565b73ffffffffffffffffffffffffffffffffffffffff1663a7f2a70b8389896040518463ffffffff1660e01b8152600401610a7393929190614bf5565b6020604051808303816000875af1158015610a92573d6000803e3d6000fd5b505050506040513d601f19601f82011682018060405250810190610ab69190614b8a565b508273ffffffffffffffffffffffffffffffffffffffff16637b621d3a838760c001518673ffffffffffffffffffffffffffffffffffffffff166360b3042c6040518163ffffffff1660e01b8152600401602060405180830381865afa158015610b24573d6000803e3d6000fd5b505050506040513d601f19601f82011682018060405250810190610b489190614b71565b8773ffffffffffffffffffffffffffffffffffffffff1663737a79966040518163ffffffff1660e01b8152600401602060405180830381865afa158015610b93573d6000803e3d6000fd5b505050506040513d601f19601f82011682018060405250810190610bb79190614b71565b6040517fffffffff0000000000000000000000000000000000000000000000000000000060e087901b168152600481019490945262ffffff909216602484015263ffffffff908116604484015216606482015261eeee608482015260a4016020604051808303816000875af1158015610c34573d6000803e3d6000fd5b505050506040513d601f19601f82011682018060405250810190610c589190614b8a565b507f000000000000000000000000000000000000000000000000000000000000000073ffffffffffffffffffffffffffffffffffffffff1663111d861b8360405180608001604052808960600151815260200160128a60000151610cbc9190614d4a565b81526040808b0151602080840191909152600092820183905281516102a081019092526102408201838152610260830184905261028083019390935291815260a08b015151909182019015610d33578a60a00151600081518110610d2257610d22614755565b602002602001015160000151610d36565b60005b6fffffffffffffffffffffffffffffffff1681526020018a60800151612710610d5f9190614d59565b815260006020820181905260408201819052606082018190526080820181905260a0808301829052600160c0840181905260e0840183905261010084018390526101208401839052610140840183905261016084018390526101808401526101a0830182905273ffffffffffffffffffffffffffffffffffffffff8b166101c08401526101e0909201528a01515115610e1a578960a00151600081518110610e0957610e09614755565b602002602001015160200151610e1d565b60005b604080516000808252602082019092528891610eac565b610e996040518060c00160405280600073ffffffffffffffffffffffffffffffffffffffff168152602001600073ffffffffffffffffffffffffffffffffffffffff168152602001600081526020016000815260200160008152602001600081525090565b815260200190600190039081610e345790505b508b6040518863ffffffff1660e01b8152600401610ed09796959493929190614d6c565b6020604051808303816000875af1158015610eef573d6000803e3d6000fd5b505050506040513d601f19601f82011682018060405250810190610f139190614b71565b507f000000000000000000000000000000000000000000000000000000000000000073ffffffffffffffffffffffffffffffffffffffff16638ae9c07b8360128860200151610f629190614d4a565b8c8a604051602001610f749190614e9c565b6040516020818303038152906040526000806040518763ffffffff1660e01b8152600401610fa796959493929190614ee1565b6020604051808303816000875af1158015610fc6573d6000803e3d6000fd5b505050506040513d601f19601f82011682018060405250810190610fea9190614b71565b507f000000000000000000000000000000000000000000000000000000000000000073ffffffffffffffffffffffffffffffffffffffff16632bdfe0046040518163ffffffff1660e01b8152600401602060405180830381865afa158015611056573d6000803e3d6000fd5b505050506040513d601f19601f8201168201806040525081019061107a9190614b8a565b73ffffffffffffffffffffffffffffffffffffffff1663ad007d636040518163ffffffff1660e01b8152600401602060405180830381865afa1580156110c4573d6000803e3d6000fd5b505050506040513d601f19601f820116820180604052508101906110e89190614b8a565b73ffffffffffffffffffffffffffffffffffffffff1663529cdd2e60405180606001604052808c73ffffffffffffffffffffffffffffffffffffffff168152602001858152602001600180548060200260200160405190810160405280929190818152602001828054801561117c57602002820191906000526020600020905b815481526020019060010190808311611168575b50505050508152506040518263ffffffff1660e01b81526004016111a09190614f36565b600060405180830381600087803b1580156111ba57600080fd5b505af11580156111ce573d6000803e3d6000fd5b505050506111e5828660a001518760600151612ef2565b50979650505050505050565b60007f000000000000000000000000000000000000000000000000000000000000000073ffffffffffffffffffffffffffffffffffffffff16638b79543c6040518163ffffffff1660e01b8152600401602060405180830381865afa15801561125e573d6000803e3d6000fd5b505050506040513d601f19601f820116820180604052508101906112829190614b8a565b73ffffffffffffffffffffffffffffffffffffffff163373ffffffffffffffffffffffffffffffffffffffff16146112b957600080fd5b73ffffffffffffffffffffffffffffffffffffffff8516156112da57600080fd5b507f150b7a020000000000000000000000000000000000000000000000000000000095945050505050565b600081815260208181526040808320805482518185028101850190935280835260609492939192909184015b8282101561139057600084815260209081902060408051808201909152908401546fffffffffffffffffffffffffffffffff80821683527001000000000000000000000000000000009091041681830152825260019092019101611331565b505050509050919050565b600781815481106113ab57600080fd5b600091825260209091200154905081565b600181815481106113ab57600080fd5b6000806113d88b612d6c565b90507f000000000000000000000000000000000000000000000000000000000000000073ffffffffffffffffffffffffffffffffffffffff16638b79543c6040518163ffffffff1660e01b8152600401602060405180830381865afa158015611445573d6000803e3d6000fd5b505050506040513d601f19601f820116820180604052508101906114699190614b8a565b73ffffffffffffffffffffffffffffffffffffffff1663666d87a0308c6040518363ffffffff1660e01b81526004016114a3929190614ba7565b6020604051808303816000875af11580156114c2573d6000803e3d6000fd5b505050506040513d601f19601f820116820180604052508101906114e69190614b71565b91507f000000000000000000000000000000000000000000000000000000000000000073ffffffffffffffffffffffffffffffffffffffff1663619306306040518163ffffffff1660e01b8152600401602060405180830381865afa158015611553573d6000803e3d6000fd5b505050506040513d601f19601f820116820180604052508101906115779190614b8a565b73ffffffffffffffffffffffffffffffffffffffff1663a7f2a70b838b8b6040518463ffffffff1660e01b81526004016115b393929190614bf5565b6020604051808303816000875af11580156115d2573d6000803e3d6000fd5b505050506040513d601f19601f820116820180604052508101906115f69190614b8a565b508473ffffffffffffffffffffffffffffffffffffffff16637b621d3a838960c001518873ffffffffffffffffffffffffffffffffffffffff166360b3042c6040518163ffffffff1660e01b8152600401602060405180830381865afa158015611664573d6000803e3d6000fd5b505050506040513d601f19601f820116820180604052508101906116889190614b71565b8973ffffffffffffffffffffffffffffffffffffffff1663737a79966040518163ffffffff1660e01b8152600401602060405180830381865afa1580156116d3573d6000803e3d6000fd5b505050506040513d601f19601f820116820180604052508101906116f79190614b71565b6040517fffffffff0000000000000000000000000000000000000000000000000000000060e087901b168152600481019490945262ffffff909216602484015263ffffffff908116604484015216606482015261eeee608482015260a4016020604051808303816000875af1158015611774573d6000803e3d6000fd5b505050506040513d601f19601f820116820180604052508101906117989190614b8a565b507f000000000000000000000000000000000000000000000000000000000000000073ffffffffffffffffffffffffffffffffffffffff1663111d861b8360405180608001604052808b60600151815260200160128c600001516117fc9190614d4a565b81526040808d0151602080840191909152600092820183905281516102a081019092526102408201838152610260830184905261028083019390935291815260a08d015151909182019015611873578c60a0015160008151811061186257611862614755565b602002602001015160000151611876565b60005b6fffffffffffffffffffffffffffffffff1681526020018c6080015161271061189f9190614d59565b815260006020820181905260408201819052606082018190526080820181905260a0808301829052600160c0840181905260e0840183905261010084018390526101208401839052610140840183905261016084018390526101808401526101a0830191909152306101c083015260ff8a166101e0909201919091528c0151511561194c578b60a0015160008151811061193b5761193b614755565b60200260200101516020015161194f565b60005b6040805160008082526020820190925288916119de565b6119cb6040518060c00160405280600073ffffffffffffffffffffffffffffffffffffffff168152602001600073ffffffffffffffffffffffffffffffffffffffff168152602001600081526020016000815260200160008152602001600081525090565b8152602001906001900390816119665790505b508d6040518863ffffffff1660e01b8152600401611a029796959493929190614d6c565b6020604051808303816000875af1158015611a21573d6000803e3d6000fd5b505050506040513d601f19601f82011682018060405250810190611a459190614b71565b50846003600084815260200190815260200160002060006101000a81548173ffffffffffffffffffffffffffffffffffffffff021916908373ffffffffffffffffffffffffffffffffffffffff1602179055507f000000000000000000000000000000000000000000000000000000000000000073ffffffffffffffffffffffffffffffffffffffff16638ae9c07b8360128a60200151611ae69190614d4a565b8e8c604051602001611af89190614e9c565b6040516020818303038152906040526000806040518763ffffffff1660e01b8152600401611b2b96959493929190614ee1565b6020604051808303816000875af1158015611b4a573d6000803e3d6000fd5b505050506040513d601f19601f82011682018060405250810190611b6e9190614b71565b507f000000000000000000000000000000000000000000000000000000000000000073ffffffffffffffffffffffffffffffffffffffff16632bdfe0046040518163ffffffff1660e01b8152600401602060405180830381865afa158015611bda573d6000803e3d6000fd5b505050506040513d601f19601f82011682018060405250810190611bfe9190614b8a565b73ffffffffffffffffffffffffffffffffffffffff1663ad007d636040518163ffffffff1660e01b8152600401602060405180830381865afa158015611c48573d6000803e3d6000fd5b505050506040513d601f19601f82011682018060405250810190611c6c9190614b8a565b73ffffffffffffffffffffffffffffffffffffffff1663529cdd2e60405180606001604052808e73ffffffffffffffffffffffffffffffffffffffff1681526020018581526020016001805480602002602001604051908101604052809291908181526020018280548015611d0057602002820191906000526020600020905b815481526020019060010190808311611cec575b50505050508152506040518263ffffffff1660e01b8152600401611d249190614f36565b600060405180830381600087803b158015611d3e57600080fd5b505af1158015611d52573d6000803e3d6000fd5b505050507f000000000000000000000000000000000000000000000000000000000000000073ffffffffffffffffffffffffffffffffffffffff16632bdfe0046040518163ffffffff1660e01b8152600401602060405180830381865afa158015611dc1573d6000803e3d6000fd5b505050506040513d601f19601f82011682018060405250810190611de59190614b8a565b73ffffffffffffffffffffffffffffffffffffffff1663ad007d636040518163ffffffff1660e01b8152600401602060405180830381865afa158015611e2f573d6000803e3d6000fd5b505050506040513d601f19601f82011682018060405250810190611e539190614b8a565b73ffffffffffffffffffffffffffffffffffffffff16630f5932f08630600060056040518563ffffffff1660e01b8152600401611e939493929190614fa7565b602060405180830381865afa158015611eb0573d6000803e3d6000fd5b505050506040513d601f19601f82011682018060405250810190611ed49190615023565b6120c1577f000000000000000000000000000000000000000000000000000000000000000073ffffffffffffffffffffffffffffffffffffffff16632bdfe0046040518163ffffffff1660e01b8152600401602060405180830381865afa158015611f43573d6000803e3d6000fd5b505050506040513d601f19601f82011682018060405250810190611f679190614b8a565b73ffffffffffffffffffffffffffffffffffffffff1663ad007d636040518163ffffffff1660e01b8152600401602060405180830381865afa158015611fb1573d6000803e3d6000fd5b505050506040513d601f19601f82011682018060405250810190611fd59190614b8a565b73ffffffffffffffffffffffffffffffffffffffff1663529cdd2e60405180606001604052808873ffffffffffffffffffffffffffffffffffffffff16815260200160008152602001600580548060200260200160405190810160405280929190818152602001828054801561206a57602002820191906000526020600020905b815481526020019060010190808311612056575b50505050508152506040518263ffffffff1660e01b815260040161208e9190614f36565b600060405180830381600087803b1580156120a857600080fd5b505af11580156120bc573d6000803e3d6000fd5b505050505b6120d4828860a001518960600151612ef2565b835160005b8181101561219d578581815181106120f3576120f3614755565b602002602001015160046000868152602001908152602001600020828154811061211f5761211f614755565b600091825260209182902083516003929092020180547fffffffffffffffffffffffff00000000000000000000000000000000000000001673ffffffffffffffffffffffffffffffffffffffff9092169190911781559082015160018201556040820151600282019061219290826150e2565b5050506001016120d9565b5050509998505050505050505050565b60007f000000000000000000000000000000000000000000000000000000000000000073ffffffffffffffffffffffffffffffffffffffff16638b79543c6040518163ffffffff1660e01b8152600401602060405180830381865afa15801561221a573d6000803e3d6000fd5b505050506040513d601f19601f8201168201806040525081019061223e9190614b8a565b73ffffffffffffffffffffffffffffffffffffffff166306661abd6040518163ffffffff1660e01b8152600401602060405180830381865afa158015612288573d6000803e3d6000fd5b505050506040513d601f19601f820116820180604052508101906122ac9190614b71565b6122b79060016151fc565b835190915060006122c98260016151fc565b67ffffffffffffffff8111156122e1576122e16130e4565b60405190808252806020026020018201604052801561232e57816020015b604080516060808201835260008083526020830152918101919091528152602001906001900390816122ff5790505b50905060005b8281101561237b5785818151811061234e5761234e614755565b602002602001015182828151811061236857612368614755565b6020908102919091010152600101612334565b506040517f70d7f24900000000000000000000000000000000000000000000000000000000815260009073ffffffffffffffffffffffffffffffffffffffff7f000000000000000000000000000000000000000000000000000000000000000016906370d7f249906123f39087908b90600401615389565b6020604051808303816000875af1158015612412573d6000803e3d6000fd5b505050506040513d601f19601f820116820180604052508101906124369190614b8a565b905060405180606001604052808273ffffffffffffffffffffffffffffffffffffffff168152602001600081526020016040518060200160405280600081525081525082848151811061248b5761248b614755565b6020026020010181905250506124a88d8d8d8d8d8d8d888c6113cc565b5050509a9950505050505050505050565b600581815481106113ab57600080fd5b604080516000808252602082019092526060908190839081612515565b604080516060808201835260008083526020830152918101919091528152602001906001900390816124e65790505b5060408051602081019091526000815291969195509350915050565b60006125458c8c8c8c8c8c8c8c8c8c6121ad565b905081516000146125db576006546040517f200e8ae400000000000000000000000000000000000000000000000000000000815273ffffffffffffffffffffffffffffffffffffffff9091169063200e8ae4906125a8908490869060040161553c565b600060405180830381600087803b1580156125c257600080fd5b505af11580156125d6573d6000803e3d6000fd5b505050505b7f000000000000000000000000000000000000000000000000000000000000000073ffffffffffffffffffffffffffffffffffffffff1663ad007d636040518163ffffffff1660e01b8152600401602060405180830381865afa158015612646573d6000803e3d6000fd5b505050506040513d601f19601f8201168201806040525081019061266a9190614b8a565b6040805160608101825260065473ffffffffffffffffffffffffffffffffffffffff90811682526020808301869052600780548551818402810184018752818152969093169563529cdd2e9585019390928301828280156126ea57602002820191906000526020600020905b8154815260200190600101908083116126d6575b50505050508152506040518263ffffffff1660e01b815260040161270e9190614f36565b600060405180830381600087803b15801561272857600080fd5b505af115801561273c573d6000803e3d6000fd5b505050509b9a5050505050505050505050565b6004602052816000526040600020818154811061276b57600080fd5b600091825260209091206003909102018054600182015460028301805473ffffffffffffffffffffffffffffffffffffffff9093169550909350906127af90615040565b80601f01602080910402602001604051908101604052809291908181526020018280546127db90615040565b80156128285780601f106127fd57610100808354040283529160200191612828565b820191906000526020600020905b81548152906001019060200180831161280b57829003601f168201915b5050505050905083565b60c08101356000908152600360205260408082205490517fd46cf1710000000000000000000000000000000000000000000000000000000081526060918291829173ffffffffffffffffffffffffffffffffffffffff169063d46cf1719061289e90889060040161573a565b600060405180830381865afa1580156128bb573d6000803e3d6000fd5b505050506040513d6000823e601f3d9081017fffffffffffffffffffffffffffffffffffffffffffffffffffffffffffffffe016820160405261290191908101906158ae565b805160c089013560009081526004602090815260408083208054825181850281018501909352808352979b5094975092151595919450919291849084015b82821015612a305760008481526020908190206040805160608101825260038602909201805473ffffffffffffffffffffffffffffffffffffffff1683526001810154938301939093526002830180549293929184019161299f90615040565b80601f01602080910402602001604051908101604052809291908181526020018280546129cb90615040565b8015612a185780601f106129ed57610100808354040283529160200191612a18565b820191906000526020600020905b8154815290600101906020018083116129fb57829003601f168201915b5050505050815250508152602001906001019061293f565b50505050905060008151905082612a48576000612a4b565b60015b612a589060ff16826151fc565b67ffffffffffffffff811115612a7057612a706130e4565b604051908082528060200260200182016040528015612abd57816020015b60408051606080820183526000808352602083015291810191909152815260200190600190039081612a8e5790505b50945060005b81811015612b0a57828181518110612add57612add614755565b6020026020010151868281518110612af757612af7614755565b6020908102919091010152600101612ac3565b508215612b4a5783600081518110612b2457612b24614755565b6020026020010151858281518110612b3e57612b3e614755565b60200260200101819052505b612b58610160890189615a27565b8080601f016020809104026020016040519081016040528093929190818152602001838380828437600092019190915250999b929a50969850909650505050505050565b604080516001808252818301909252606091816020015b604080518082019091526000815260606020820152815260200190600190039081612bb357905050905060007f000000000000000000000000000000000000000000000000000000000000000073ffffffffffffffffffffffffffffffffffffffff16632bdfe0046040518163ffffffff1660e01b8152600401602060405180830381865afa158015612c4a573d6000803e3d6000fd5b505050506040513d601f19601f82011682018060405250810190612c6e9190614b8a565b6040517f69e11cc500000000000000000000000000000000000000000000000000000000815260048101869052602481018590526002604482015273ffffffffffffffffffffffffffffffffffffffff91909116906369e11cc590606401600060405180830381865afa158015612ce9573d6000803e3d6000fd5b505050506040513d6000823e601f3d9081017fffffffffffffffffffffffffffffffffffffffffffffffffffffffffffffffe0168201604052612d2f9190810190615a8c565b90506040518060400160405280600281526020018281525082600081518110612d5a57612d5a614755565b60200260200101819052505092915050565b604080516001808252818301909252606091816020015b604080518082019091526000815260606020820152815260200190600190039081612d8357505060408051600180825281830190925291925060009190602082015b6040805160e08101825260008082526020808301829052928201819052606082018190526080820181905260a0820181905260c082015282527fffffffffffffffffffffffffffffffffffffffffffffffffffffffffffffffff909201910181612dc55790505090506040518060e00160405280600015158152602001600015158152602001633b9aca008152602001600081526020018473ffffffffffffffffffffffffffffffffffffffff16815260200160008152602001600073ffffffffffffffffffffffffffffffffffffffff1681525081600181518110612ead57612ead614755565b60200260200101819052506040518060400160405280600281526020018281525082600081518110612ee157612ee1614755565b602002602001018190525050919050565b815180156130475760005b81811015613045578015801590612f8757508284612f1c600184614d59565b81518110612f2c57612f2c614755565b6020026020010151602001516fffffffffffffffffffffffffffffffff16612f5491906151fc565b848281518110612f6657612f66614755565b6020026020010151602001516fffffffffffffffffffffffffffffffff1611155b15612fbe576040517fc5c2978500000000000000000000000000000000000000000000000000000000815260040160405180910390fd5b838181518110612fd057612fd0614755565b60200260200101516000808781526020019081526020016000208281548110612ffb57612ffb614755565b6000918252602091829020835193909201516fffffffffffffffffffffffffffffffff90811670010000000000000000000000000000000002931692909217910155600101612efd565b505b50505050565b60006020828403121561305f57600080fd5b81357fffffffff000000000000000000000000000000000000000000000000000000008116811461308f57600080fd5b9392505050565b6000602082840312156130a857600080fd5b5035919050565b73ffffffffffffffffffffffffffffffffffffffff811681146130d157600080fd5b50565b80356130df816130af565b919050565b7f4e487b7100000000000000000000000000000000000000000000000000000000600052604160045260246000fd5b6040805190810167ffffffffffffffff81118282101715613136576131366130e4565b60405290565b60405160e0810167ffffffffffffffff81118282101715613136576131366130e4565b6040516060810167ffffffffffffffff81118282101715613136576131366130e4565b6040516080810167ffffffffffffffff81118282101715613136576131366130e4565b604051610160810167ffffffffffffffff81118282101715613136576131366130e4565b60405160c0810167ffffffffffffffff81118282101715613136576131366130e4565b604051610240810167ffffffffffffffff81118282101715613136576131366130e4565b604051610120810167ffffffffffffffff81118282101715613136576131366130e4565b604051601f82017fffffffffffffffffffffffffffffffffffffffffffffffffffffffffffffffe016810167ffffffffffffffff8111828210171561327b5761327b6130e4565b604052919050565b600067ffffffffffffffff82111561329d5761329d6130e4565b50601f017fffffffffffffffffffffffffffffffffffffffffffffffffffffffffffffffe01660200190565b60006132dc6132d784613283565b613234565b90508281528383830111156132f057600080fd5b828260208301376000602084830101529392505050565b600082601f83011261331857600080fd5b61308f838335602085016132c9565b60006040828403121561333957600080fd5b613341613113565b9050813567ffffffffffffffff81111561335a57600080fd5b61336684828501613307565b8252506020820135602082015292915050565b600067ffffffffffffffff821115613393576133936130e4565b5060051b60200190565b80356fffffffffffffffffffffffffffffffff811681146130df57600080fd5b600082601f8301126133ce57600080fd5b813560206133de6132d783613379565b82815260069290921b840181019181810190868411156133fd57600080fd5b8286015b8481101561344a576040818903121561341a5760008081fd5b613422613113565b61342b8261339d565b815261343885830161339d565b81860152835291830191604001613401565b509695505050505050565b803562ffffff811681146130df57600080fd5b600060e0828403121561347a57600080fd5b61348261313c565b9050813581526020820135602082015260408201356040820152606082013560608201526080820135608082015260a082013567ffffffffffffffff8111156134ca57600080fd5b6134d6848285016133bd565b60a0830152506134e860c08301613455565b60c082015292915050565b600082601f83011261350457600080fd5b813560206135146132d783613379565b82815260059290921b8401810191818101908684111561353357600080fd5b8286015b8481101561344a57803561354a816130af565b8352918301918301613537565b600080600080600080600060e0888a03121561357257600080fd5b61357b886130d4565b9650602088013567ffffffffffffffff8082111561359857600080fd5b6135a48b838c01613327565b975060408a01359150808211156135ba57600080fd5b6135c68b838c01613307565b965060608a01359150808211156135dc57600080fd5b6135e88b838c01613307565b955060808a01359150808211156135fe57600080fd5b61360a8b838c01613468565b945060a08a013591508082111561362057600080fd5b5061362d8a828b016134f3565b92505061363c60c089016130d4565b905092959891949750929550565b60008060008060006080868803121561366257600080fd5b853561366d816130af565b9450602086013561367d816130af565b935060408601359250606086013567ffffffffffffffff808211156136a157600080fd5b818801915088601f8301126136b557600080fd5b8135818111156136c457600080fd5b8960208285010111156136d657600080fd5b9699959850939650602001949392505050565b602080825282518282018190526000919060409081850190868401855b8281101561374157815180516fffffffffffffffffffffffffffffffff90811686529087015116868501529284019290850190600101613706565b5091979650505050505050565b600082601f83011261375f57600080fd5b8135602061376f6132d783613379565b82815260059290921b8401810191818101908684111561378e57600080fd5b8286015b8481101561344a57803567ffffffffffffffff808211156137b35760008081fd5b81890191506060807fffffffffffffffffffffffffffffffffffffffffffffffffffffffffffffffe0848d030112156137ec5760008081fd5b6137f461315f565b87840135613801816130af565b8152604084810135898301529184013591838311156138205760008081fd5b82850194508c603f86011261383757600093508384fd5b6138478d8a8701358388016132c9565b908201528652505050918301918301613792565b803560ff811681146130df57600080fd5b60008060008060008060008060006101208a8c03121561388b57600080fd5b6138948a6130d4565b985060208a013567ffffffffffffffff808211156138b157600080fd5b6138bd8d838e01613327565b995060408c01359150808211156138d357600080fd5b6138df8d838e01613307565b985060608c01359150808211156138f557600080fd5b6139018d838e01613307565b975060808c013591508082111561391757600080fd5b6139238d838e01613468565b965060a08c013591508082111561393957600080fd5b6139458d838e016134f3565b955061395360c08d016130d4565b945060e08c013591508082111561396957600080fd5b506139768c828d0161374e565b9250506139866101008b0161385b565b90509295985092959850929598565b80356cffffffffffffffffffffffffff811681146130df57600080fd5b803563ffffffff811681146130df57600080fd5b803561ffff811681146130df57600080fd5b80151581146130d157600080fd5b80356130df816139d8565b803565ffffffffffff811681146130df57600080fd5b60006080808385031215613a1a57600080fd5b613a22613182565b9150823567ffffffffffffffff811115613a3b57600080fd5b8301601f81018513613a4c57600080fd5b80356020613a5c6132d783613379565b8281526101609283028401820192828201919089851115613a7c57600080fd5b948301945b84861015613b5d5780868b031215613a995760008081fd5b613aa16131a5565b613aaa87613995565b8152613ab78588016139b2565b858201526040613ac88189016139b2565b908201526060613ad98882016139c6565b90820152613ae88789016130d4565b8189015260a0878101359082015260c0613b03818901613455565b9082015260e0613b148882016139e6565b90820152610100613b268882016139e6565b90820152610120613b388882016139e6565b90820152610140613b4a8882016139e6565b9082015283529485019491830191613a81565b50865250613b6c8682016139f1565b8186015250505050613b80604083016139f1565b6040820152613b91606083016130d4565b606082015292915050565b600060808284031215613bae57600080fd5b613bb6613182565b90508135613bc3816139d8565b81526020820135613bd3816139d8565b60208201526040820135613be6816139d8565b60408201526060820135613b91816139d8565b8035600281106130df57600080fd5b60006101c08284031215613c1b57600080fd5b613c236131a5565b9050813567ffffffffffffffff80821115613c3d57600080fd5b613c4985838601613307565b83526020840135915080821115613c5f57600080fd5b613c6b85838601613307565b6020840152613c7c604085016130d4565b60408401526060840135915080821115613c9557600080fd5b613ca185838601613307565b6060840152613cb2608085016130d4565b608084015260a0840135915080821115613ccb57600080fd5b613cd785838601613307565b60a084015260c0840135915080821115613cf057600080fd5b50613cfd84828501613a07565b60c083015250613d0f60e083016130d4565b60e0820152610100613d228184016130d4565b90820152610120613d3584848301613b9c565b90820152613d466101a08301613bf9565b61014082015292915050565b6000806000806000806000806000806101408b8d031215613d7257600080fd5b613d7b8b6130d4565b995060208b013567ffffffffffffffff80821115613d9857600080fd5b613da48e838f01613327565b9a5060408d0135915080821115613dba57600080fd5b613dc68e838f01613307565b995060608d0135915080821115613ddc57600080fd5b613de88e838f01613307565b985060808d0135915080821115613dfe57600080fd5b613e0a8e838f01613468565b975060a08d0135915080821115613e2057600080fd5b613e2c8e838f016134f3565b9650613e3a60c08e016130d4565b955060e08d0135915080821115613e5057600080fd5b613e5c8e838f01613c08565b94506101008d0135915080821115613e7357600080fd5b50613e808d828e0161374e565b925050613e906101208c0161385b565b90509295989b9194979a5092959850565b600060208284031215613eb357600080fd5b813567ffffffffffffffff811115613eca57600080fd5b82016101e0818503121561308f57600080fd5b60005b83811015613ef8578181015183820152602001613ee0565b50506000910152565b60008151808452613f19816020860160208601613edd565b601f017fffffffffffffffffffffffffffffffffffffffffffffffffffffffffffffffe0169290920160200192915050565b6000606085835260208181850152613f6582850187613f01565b6040858203818701528187518084528484019150848160051b850101858a0160005b83811015614002578683037fffffffffffffffffffffffffffffffffffffffffffffffffffffffffffffffe00185528151805173ffffffffffffffffffffffffffffffffffffffff16845288810151898501528601518684018a9052613fef8a850182613f01565b9589019593505090870190600101613f87565b50909c9b505050505050505050505050565b600082601f83011261402557600080fd5b813560206140356132d783613379565b828152600592831b850182019282820191908785111561405457600080fd5b8387015b8581101561419057803567ffffffffffffffff808211156140795760008081fd5b818a01915060c0807fffffffffffffffffffffffffffffffffffffffffffffffffffffffffffffffe0848e030112156140b25760008081fd5b6140ba6131c9565b888401356140c7816130af565b808252506040808501358a830152606080860135828401526080808701358285015260a091508187013581850152508386013593508484111561410a5760008081fd5b83860195508e603f87011261412157600094508485fd5b8a86013594506141336132d786613379565b85815294881b86018201948b810194508f8611156141515760008081fd5b958201955b8587101561417b578635925061416b836130af565b828552958b0195938b0193614156565b90830152508752505050928401928401614058565b5090979650505050505050565b60008060008060008060008060008060006101608c8e0312156141bf57600080fd5b6141c88c6130d4565b9a5067ffffffffffffffff8060208e013511156141e457600080fd5b6141f48e60208f01358f01613327565b9a508060408e0135111561420757600080fd5b6142178e60408f01358f01613307565b99508060608e0135111561422a57600080fd5b61423a8e60608f01358f01613307565b98508060808e0135111561424d57600080fd5b61425d8e60808f01358f01613468565b97508060a08e0135111561427057600080fd5b6142808e60a08f01358f016134f3565b965061428e60c08e016130d4565b95508060e08e013511156142a157600080fd5b6142b18e60e08f01358f01613c08565b9450806101008e013511156142c557600080fd5b6142d68e6101008f01358f0161374e565b93506142e56101208e0161385b565b9250806101408e013511156142f957600080fd5b5061430b8d6101408e01358e01614014565b90509295989b509295989b9093969950565b6000806040838503121561433057600080fd5b50508035926020909101359150565b73ffffffffffffffffffffffffffffffffffffffff841681528260208201526060604082015260006143746060830184613f01565b95945050505050565b60006020828403121561438f57600080fd5b813567ffffffffffffffff8111156143a657600080fd5b82016101a0818503121561308f57600080fd5b60006060858352602081818501526143d382850187613f01565b6040858203818701528187518084528484019150848160051b850101858a0160005b83811015614002578683037fffffffffffffffffffffffffffffffffffffffffffffffffffffffffffffffe00185528151805173ffffffffffffffffffffffffffffffffffffffff16845288810151898501528601518684018a905261445d8a850182613f01565b95890195935050908701906001016143f5565b80516130df816130af565b80516130df816139d8565b60006060828403121561449857600080fd5b6144a061315f565b905081516144ad816139d8565b815260208201516144bd816139d8565b602082015260408201516144d0816139d8565b604082015292915050565b600061028082840312156144ee57600080fd5b6144f66131ec565b90506145028383614486565b8152606082015160208201526080820151604082015260a0820151606082015261452e60c0830161447b565b608082015261453f60e0830161447b565b60a082015261010061455281840161447b565b60c083015261012061456581850161447b565b60e084015261014061457881860161447b565b83850152610160925061458c83860161447b565b8285015261018091506145a082860161447b565b908401526101a06145b285820161447b565b838501526101c092506145c683860161447b565b828501526101e091506145da82860161447b565b908401526102006145ec85820161447b565b83850152610220925061460083860161447b565b828501526146116102408601614470565b818501525050610260830151818301525092915050565b8051600381106130df57600080fd5b60008060008385036103c081121561464e57600080fd5b6101208082121561465e57600080fd5b614666613210565b9150855182526020860151602083015260408601516040830152606086015160608301526080860151608083015260a086015160a083015260c086015160c08301526146b460e08701614470565b60e08301526101008087015181840152508194506146d4878288016144db565b935050506146e56103a08501614628565b90509250925092565b7f4e487b7100000000000000000000000000000000000000000000000000000000600052601160045260246000fd5b60007fffffffffffffffffffffffffffffffffffffffffffffffffffffffffffffffff820361474e5761474e6146ee565b5060010190565b7f4e487b7100000000000000000000000000000000000000000000000000000000600052603260045260246000fd5b6147a98282518051151582526020808201511515908301526040908101511515910152565b6020810151606083015260408101516080830152606081015160a083015260808101516147da60c084018215159052565b5060a081015180151560e08401525060c08101516101006147fe8185018315159052565b60e083015191506101206148158186018415159052565b9083015191506101409061482c8583018415159052565b83015191506101606148418582018415159052565b908301519150610180906148588583018415159052565b83015191506101a061486d8582018415159052565b9083015191506101c0906148848583018415159052565b83015191506101e06148998582018415159052565b908301519150610200906148b08583018415159052565b83015191506102206148c58582018415159052565b9083015173ffffffffffffffffffffffffffffffffffffffff16610240850152909101516102609092019190915250565b600081518084526020808501808196508360051b810191508286016000805b868110156149d5578385038a52825180518652860151604087870181905281518188018190529188019160609081890190865b818110156149be5785518051151584528c81015115158d8501528581015186850152848101518585015260808082015173ffffffffffffffffffffffffffffffffffffffff9081169186019190915260a0808301519086015260c0918201511690840152948b019460e090920191600101614948565b50509c89019c975050509286019250600101614915565b509298975050505050505050565b600081518084526020808501945080840160005b83811015614a60578151805173ffffffffffffffffffffffffffffffffffffffff908116895284820151168489015260408082015190890152606080820151908901526080808201519089015260a0908101519088015260c090960195908201906001016149f7565b509495945050505050565b60006103a0888352614ab7602084018980518252602081015160208301526040810151604083015273ffffffffffffffffffffffffffffffffffffffff60608201511660608301525050565b614ac460a0840188614784565b6fffffffffffffffffffffffffffffffff861661032084015280610340840152614af0818401866148f6565b9050828103610360840152614b0581856149e3565b838103610380909401939093525050603281527f5363686564756c6564206e657874206465762074617820706572696f64206f6660208201527f2052657461696c697374206e6574776f726b000000000000000000000000000060408201526060019695505050505050565b600060208284031215614b8357600080fd5b5051919050565b600060208284031215614b9c57600080fd5b815161308f816130af565b73ffffffffffffffffffffffffffffffffffffffff831681526040602082015260008251604080840152614bde6080840182613f01565b905060208401516060840152809150509392505050565b838152606060208201526000614c0e6060830185613f01565b8281036040840152614c208185613f01565b9695505050505050565b600181815b80851115614c8357817fffffffffffffffffffffffffffffffffffffffffffffffffffffffffffffffff04821115614c6957614c696146ee565b80851615614c7657918102915b93841c9390800290614c2f565b509250929050565b600082614c9a575060016104ae565b81614ca7575060006104ae565b8160018114614cbd5760028114614cc757614ce3565b60019150506104ae565b60ff841115614cd857614cd86146ee565b50506001821b6104ae565b5060208310610133831016604e8410600b8410161715614d06575081810a6104ae565b614d108383614c2a565b807fffffffffffffffffffffffffffffffffffffffffffffffffffffffffffffffff04821115614d4257614d426146ee565b029392505050565b600061308f60ff841683614c8b565b818103818111156104ae576104ae6146ee565b60006103c08983526020614db98185018b80518252602081015160208301526040810151604083015273ffffffffffffffffffffffffffffffffffffffff60608201511660608301525050565b614dc660a085018a614784565b6fffffffffffffffffffffffffffffffff881661032085015281610340850152614df2828501886148f6565b9150838203610360850152614e0782876149e3565b848103610380860152855180825282870193509082019060005b81811015614e5357845173ffffffffffffffffffffffffffffffffffffffff1683529383019391830191600101614e21565b50508481036103a0860152601a81527f4465706c6f7965642052657461696c697374206e6574776f726b0000000000006020820152604081019c9b505050505050505050505050565b7f5072656d696e7465642024000000000000000000000000000000000000000000815260008251614ed481600b850160208701613edd565b91909101600b0192915050565b86815285602082015273ffffffffffffffffffffffffffffffffffffffff8516604082015260c060608201526000614f1c60c0830186613f01565b93151560808301525090151560a090910152949350505050565b600060208083526080830173ffffffffffffffffffffffffffffffffffffffff85511682850152818501516040850152604085015160608086015281815180845260a0870191508483019350600092505b8083101561344a5783518252928401926001929092019190840190614f87565b60006080820173ffffffffffffffffffffffffffffffffffffffff808816845260208188168186015286604086015260806060860152829150855480845260a0860192508660005281600020935060005b8181101561501457845484526001948501949383019301614ff8565b50919998505050505050505050565b60006020828403121561503557600080fd5b815161308f816139d8565b600181811c9082168061505457607f821691505b60208210810361508d577f4e487b7100000000000000000000000000000000000000000000000000000000600052602260045260246000fd5b50919050565b601f8211156150dd57600081815260208120601f850160051c810160208610156150ba5750805b601f850160051c820191505b818110156150d9578281556001016150c6565b5050505b505050565b815167ffffffffffffffff8111156150fc576150fc6130e4565b6151108161510a8454615040565b84615093565b602080601f831160018114615163576000841561512d5750858301515b7fffffffffffffffffffffffffffffffffffffffffffffffffffffffffffffffff600386901b1c1916600185901b1785556150d9565b6000858152602081207fffffffffffffffffffffffffffffffffffffffffffffffffffffffffffffffe08616915b828110156151b057888601518255948401946001909101908401615191565b50858210156151ec57878501517fffffffffffffffffffffffffffffffffffffffffffffffffffffffffffffffff600388901b60f8161c191681555b5050505050600190811b01905550565b808201808211156104ae576104ae6146ee565b80516080808452815184820181905260009260a0916020918201918388019190865b828110156152f457845180516cffffffffffffffffffffffffff1685528281015163ffffffff908116848701526040808301519091169086015260608082015161ffff16908601528781015173ffffffffffffffffffffffffffffffffffffffff1688860152868101518786015260c08082015162ffffff169086015260e0808201511515908601526101008082015115159086015261012080820151151590860152610140908101511515908501529381019361016090930192600101615231565b508781015165ffffffffffff81168a8301529550505060408601519350615325604088018565ffffffffffff169052565b60608601519350614c20606088018573ffffffffffffffffffffffffffffffffffffffff169052565b60028110615385577f4e487b7100000000000000000000000000000000000000000000000000000000600052602160045260246000fd5b9052565b82815260406020820152600082516101c060408401526153ad610200840182613f01565b905060208401517fffffffffffffffffffffffffffffffffffffffffffffffffffffffffffffffc0808584030160608601526153e98383613f01565b925060408601519150615414608086018373ffffffffffffffffffffffffffffffffffffffff169052565b60608601519150808584030160a086015261542f8383613f01565b92506080860151915061545a60c086018373ffffffffffffffffffffffffffffffffffffffff169052565b60a08601519150808584030160e08601526154758383613f01565b925060c08601519150610100818685030181870152615494848461520f565b935060e0870151925061012091506154c38287018473ffffffffffffffffffffffffffffffffffffffff169052565b86015191506101406154ec8682018473ffffffffffffffffffffffffffffffffffffffff169052565b908601518051151561016087015260208101511515610180870152604081015115156101a08701526060015115156101c086015285015190506155336101e085018261534e565b50949350505050565b6000604080830185845260208281860152818651808452606093508387019150838160051b8801018389016000805b84811015615633578a84037fffffffffffffffffffffffffffffffffffffffffffffffffffffffffffffffa00186528251805173ffffffffffffffffffffffffffffffffffffffff908116865288820151898701528a8201518b870152898201518a8701526080808301519087015260a09182015160c0928701839052805192870183905289019160e087019185915b8083101561561d57845182168452938b0193928b0192600192909201916155fb565b505050968801969450509186019160010161556b565b50919b9a5050505050505050505050565b803561564f816130af565b73ffffffffffffffffffffffffffffffffffffffff1682526020818101359083015260408082013590830152606090810135910152565b60008083357fffffffffffffffffffffffffffffffffffffffffffffffffffffffffffffffe18436030181126156bb57600080fd5b830160208101925035905067ffffffffffffffff8111156156db57600080fd5b8036038213156156ea57600080fd5b9250929050565b8183528181602085013750600060208284010152600060207fffffffffffffffffffffffffffffffffffffffffffffffffffffffffffffffe0601f840116840101905092915050565b602081526157686020820161574e846130d4565b73ffffffffffffffffffffffffffffffffffffffff169052565b6000615776602084016130d4565b73ffffffffffffffffffffffffffffffffffffffff81166040840152506157a36060830160408501615644565b60c083013560e083015261010060e0840135818401526157c48185016130d4565b90506101206157ea8185018373ffffffffffffffffffffffffffffffffffffffff169052565b6101409150808501358285015250610160818501358185015261580f81860186615686565b925090506101a0610180818187015261582d6101c0870185856156f1565b935061583b81880188615686565b935090507fffffffffffffffffffffffffffffffffffffffffffffffffffffffffffffffe086850301828701526158738484836156f1565b979650505050505050565b600061588c6132d784613283565b90508281528383830111156158a057600080fd5b61308f836020830184613edd565b6000806000606084860312156158c357600080fd5b8351925060208085015167ffffffffffffffff808211156158e357600080fd5b818701915087601f8301126158f757600080fd5b61590588835185850161587e565b9450604087015191508082111561591b57600080fd5b818701915087601f83011261592f57600080fd5b815161593d6132d782613379565b81815260059190911b8301840190848101908a83111561595c57600080fd5b8585015b83811015615a165780518581111561597757600080fd5b86016060818e037fffffffffffffffffffffffffffffffffffffffffffffffffffffffffffffffe00112156159ab57600080fd5b6159b361315f565b888201516159c0816130af565b81526040820151898201526060820151878111156159dd57600080fd5b8083019250508d603f8301126159f257600080fd5b615a038e8a8401516040850161587e565b6040820152845250918601918601615960565b508096505050505050509250925092565b60008083357fffffffffffffffffffffffffffffffffffffffffffffffffffffffffffffffe1843603018112615a5c57600080fd5b83018035915067ffffffffffffffff821115615a7757600080fd5b6020019150368190038213156156ea57600080fd5b60006020808385031215615a9f57600080fd5b825167ffffffffffffffff811115615ab657600080fd5b8301601f81018513615ac757600080fd5b8051615ad56132d782613379565b81815260e09182028301840191848201919088841115615af457600080fd5b938501935b838510156111e55780858a031215615b115760008081fd5b615b1961313c565b8551615b24816139d8565b815285870151615b33816139d8565b818801526040868101519082015260608087015190820152608080870151615b5a816130af565b9082015260a0868101519082015260c080870151615b77816130af565b9082015283529384019391850191615af956fea26469706673582212205e71a267f0b15512b217c6b9e03107a7e287ad0ab4ae531d5957d8a95166338564736f6c63430008150033",
    "linkReferences": {}
  },
  "methodIdentifiers": {
    "buybackDelegateDataSourceOf(uint256)": "ef8eadd5",
    "buybackDelegatePermissionIndexes(uint256)": "9e8c513a",
    "controller()": "f77c4791",
    "croptopPermissionIndexes(uint256)": "42921698",
    "currentDevTaxPeriodNumberOf(uint256)": "9f665eee",
    "delegateAllocationsOf(uint256,uint256)": "abc603e3",
    "delegateDeployer()": "8f3d964b",
    "deployBasicNetworkFor(address,(string,uint256),string,string,(uint256,uint256,uint256,uint256,uint256,(uint128,uint128)[],uint24),address[],address)": "0a801f47",
    "deployCroptopTiered721PayAllocatorNetworkFor(address,(string,uint256),string,string,(uint256,uint256,uint256,uint256,uint256,(uint128,uint128)[],uint24),address[],address,(string,string,address,string,address,string,((uint104,uint32,uint32,uint16,address,bytes32,uint24,bool,bool,bool,bool)[],uint48,uint48,address),address,address,(bool,bool,bool,bool),uint8),(address,uint256,bytes)[],uint8,(address,uint256,uint256,uint256,uint256,address[])[])": "a9d51359",
    "deployPayAllocatorNetworkFor(address,(string,uint256),string,string,(uint256,uint256,uint256,uint256,uint256,(uint128,uint128)[],uint24),address[],address,(address,uint256,bytes)[],uint8)": "522aa551",
    "deployTiered721PayAllocatorNetworkFor(address,(string,uint256),string,string,(uint256,uint256,uint256,uint256,uint256,(uint128,uint128)[],uint24),address[],address,(string,string,address,string,address,string,((uint104,uint32,uint32,uint16,address,bytes32,uint24,bool,bool,bool,bool)[],uint48,uint48,address),address,address,(bool,bool,bool,bool),uint8),(address,uint256,bytes)[],uint8)": "5bd26667",
    "devTaxPeriodsOf(uint256)": "263950ae",
    "directory()": "c41c2f24",
    "onERC721Received(address,address,uint256,bytes)": "150b7a02",
    "operatorPermissionIndexes(uint256)": "4d757720",
    "payParams((address,address,(address,uint256,uint256,uint256),uint256,uint256,address,uint256,uint256,string,bytes))": "d46cf171",
    "publisher()": "8c72c54e",
    "redeemParams((address,address,uint256,uint256,uint256,uint256,uint256,(address,uint256,uint256,uint256),bool,uint256,string,bytes))": "a51cfd18",
    "scheduleNextDevTaxPeriodOf(uint256)": "0310850e",
    "supportsInterface(bytes4)": "01ffc9a7"
  },
  "id": 103
}