{
  "abi": [
    {
      "inputs": [
        {
          "internalType": "contract CroptopPublisher",
          "name": "_publisher",
          "type": "address"
        },
        {
          "internalType": "contract IJBDirectory",
          "name": "_directory",
          "type": "address"
        },
        {
          "internalType": "contract IJBTiered721DelegateDeployer",
          "name": "_delegateDeployer",
          "type": "address"
        },
        {
          "internalType": "contract IJBController3_1",
          "name": "_controller",
          "type": "address"
        }
      ],
      "stateMutability": "nonpayable",
      "type": "constructor"
    },
    {
      "inputs": [],
      "name": "BAD_DEV_TAX_SEQUENCE",
      "type": "error"
    },
    {
      "inputs": [],
      "name": "RECONFIGURATION_ALREADY_SCHEDULED",
      "type": "error"
    },
    {
      "inputs": [],
      "name": "RECONFIGURATION_NOT_POSSIBLE",
      "type": "error"
    },
    {
      "inputs": [
        {
          "internalType": "uint256",
          "name": "",
          "type": "uint256"
        }
      ],
      "name": "buybackDelegateDataSourceOf",
      "outputs": [
        {
          "internalType": "contract IJBGenericBuybackDelegate",
          "name": "",
          "type": "address"
        }
      ],
      "stateMutability": "view",
      "type": "function"
    },
    {
      "inputs": [
        {
          "internalType": "uint256",
          "name": "",
          "type": "uint256"
        }
      ],
      "name": "buybackDelegatePermissionIndexes",
      "outputs": [
        {
          "internalType": "uint256",
          "name": "",
          "type": "uint256"
        }
      ],
      "stateMutability": "view",
      "type": "function"
    },
    {
      "inputs": [],
      "name": "controller",
      "outputs": [
        {
          "internalType": "contract IJBController3_1",
          "name": "",
          "type": "address"
        }
      ],
      "stateMutability": "view",
      "type": "function"
    },
    {
      "inputs": [
        {
          "internalType": "uint256",
          "name": "",
          "type": "uint256"
        }
      ],
      "name": "croptopPermissionIndexes",
      "outputs": [
        {
          "internalType": "uint256",
          "name": "",
          "type": "uint256"
        }
      ],
      "stateMutability": "view",
      "type": "function"
    },
    {
      "inputs": [
        {
          "internalType": "uint256",
          "name": "_networkId",
          "type": "uint256"
        }
      ],
      "name": "currentDevTaxPeriodNumberOf",
      "outputs": [
        {
          "internalType": "uint256",
          "name": "",
          "type": "uint256"
        }
      ],
      "stateMutability": "view",
      "type": "function"
    },
    {
      "inputs": [
        {
          "internalType": "uint256",
          "name": "",
          "type": "uint256"
        },
        {
          "internalType": "uint256",
          "name": "",
          "type": "uint256"
        }
      ],
      "name": "delegateAllocationsOf",
      "outputs": [
        {
          "internalType": "contract IJBPayDelegate3_1_1",
          "name": "delegate",
          "type": "address"
        },
        {
          "internalType": "uint256",
          "name": "amount",
          "type": "uint256"
        },
        {
          "internalType": "bytes",
          "name": "metadata",
          "type": "bytes"
        }
      ],
      "stateMutability": "view",
      "type": "function"
    },
    {
      "inputs": [],
      "name": "delegateDeployer",
      "outputs": [
        {
          "internalType": "contract IJBTiered721DelegateDeployer",
          "name": "",
          "type": "address"
        }
      ],
      "stateMutability": "view",
      "type": "function"
    },
    {
      "inputs": [
        {
          "internalType": "address",
          "name": "_operator",
          "type": "address"
        },
        {
          "components": [
            {
              "internalType": "string",
              "name": "content",
              "type": "string"
            },
            {
              "internalType": "uint256",
              "name": "domain",
              "type": "uint256"
            }
          ],
          "internalType": "struct JBProjectMetadata",
          "name": "_networkMetadata",
          "type": "tuple"
        },
        {
          "internalType": "string",
          "name": "_name",
          "type": "string"
        },
        {
          "internalType": "string",
          "name": "_symbol",
          "type": "string"
        },
        {
          "components": [
            {
              "internalType": "uint256",
              "name": "initialIssuanceRate",
              "type": "uint256"
            },
            {
              "internalType": "uint256",
              "name": "premintTokenAmount",
              "type": "uint256"
            },
            {
              "internalType": "uint256",
              "name": "generationTax",
              "type": "uint256"
            },
            {
              "internalType": "uint256",
              "name": "generationDuration",
              "type": "uint256"
            },
            {
              "internalType": "uint256",
              "name": "exitTaxRate",
              "type": "uint256"
            },
            {
              "components": [
                {
                  "internalType": "uint128",
                  "name": "rate",
                  "type": "uint128"
                },
                {
                  "internalType": "uint128",
                  "name": "startsAtOrAfter",
                  "type": "uint128"
                }
              ],
              "internalType": "struct DevTaxPeriod[]",
              "name": "devTaxPeriods",
              "type": "tuple[]"
            }
          ],
          "internalType": "struct BasicRetailistJBParams",
          "name": "_data",
          "type": "tuple"
        },
        {
          "internalType": "contract IJBPaymentTerminal[]",
          "name": "_terminals",
          "type": "address[]"
        },
        {
          "components": [
            {
              "internalType": "contract IJBGenericBuybackDelegate",
              "name": "delegate",
              "type": "address"
            },
            {
              "components": [
                {
                  "internalType": "address",
                  "name": "token",
                  "type": "address"
                },
                {
                  "internalType": "uint24",
                  "name": "fee",
                  "type": "uint24"
                },
                {
                  "internalType": "uint32",
                  "name": "secondsAgo",
                  "type": "uint32"
                },
                {
                  "internalType": "uint32",
                  "name": "delta",
                  "type": "uint32"
                }
              ],
              "internalType": "struct BuybackDelegatePool[]",
              "name": "pools",
              "type": "tuple[]"
            }
          ],
          "internalType": "struct BuybackDelegateSetup",
          "name": "_buybackDelegateSetup",
          "type": "tuple"
        }
      ],
      "name": "deployBasicNetworkFor",
      "outputs": [
        {
          "internalType": "uint256",
          "name": "networkId",
          "type": "uint256"
        }
      ],
      "stateMutability": "nonpayable",
      "type": "function"
    },
    {
      "inputs": [
        {
          "internalType": "address",
          "name": "_operator",
          "type": "address"
        },
        {
          "components": [
            {
              "internalType": "string",
              "name": "content",
              "type": "string"
            },
            {
              "internalType": "uint256",
              "name": "domain",
              "type": "uint256"
            }
          ],
          "internalType": "struct JBProjectMetadata",
          "name": "_networkMetadata",
          "type": "tuple"
        },
        {
          "internalType": "string",
          "name": "_name",
          "type": "string"
        },
        {
          "internalType": "string",
          "name": "_symbol",
          "type": "string"
        },
        {
          "components": [
            {
              "internalType": "uint256",
              "name": "initialIssuanceRate",
              "type": "uint256"
            },
            {
              "internalType": "uint256",
              "name": "premintTokenAmount",
              "type": "uint256"
            },
            {
              "internalType": "uint256",
              "name": "generationTax",
              "type": "uint256"
            },
            {
              "internalType": "uint256",
              "name": "generationDuration",
              "type": "uint256"
            },
            {
              "internalType": "uint256",
              "name": "exitTaxRate",
              "type": "uint256"
            },
            {
              "components": [
                {
                  "internalType": "uint128",
                  "name": "rate",
                  "type": "uint128"
                },
                {
                  "internalType": "uint128",
                  "name": "startsAtOrAfter",
                  "type": "uint128"
                }
              ],
              "internalType": "struct DevTaxPeriod[]",
              "name": "devTaxPeriods",
              "type": "tuple[]"
            }
          ],
          "internalType": "struct BasicRetailistJBParams",
          "name": "_data",
          "type": "tuple"
        },
        {
          "internalType": "contract IJBPaymentTerminal[]",
          "name": "_terminals",
          "type": "address[]"
        },
        {
          "components": [
            {
              "internalType": "contract IJBGenericBuybackDelegate",
              "name": "delegate",
              "type": "address"
            },
            {
              "components": [
                {
                  "internalType": "address",
                  "name": "token",
                  "type": "address"
                },
                {
                  "internalType": "uint24",
                  "name": "fee",
                  "type": "uint24"
                },
                {
                  "internalType": "uint32",
                  "name": "secondsAgo",
                  "type": "uint32"
                },
                {
                  "internalType": "uint32",
                  "name": "delta",
                  "type": "uint32"
                }
              ],
              "internalType": "struct BuybackDelegatePool[]",
              "name": "pools",
              "type": "tuple[]"
            }
          ],
          "internalType": "struct BuybackDelegateSetup",
          "name": "_buybackDelegateSetup",
          "type": "tuple"
        },
        {
          "components": [
            {
              "internalType": "string",
              "name": "name",
              "type": "string"
            },
            {
              "internalType": "string",
              "name": "symbol",
              "type": "string"
            },
            {
              "internalType": "contract IJBFundingCycleStore",
              "name": "fundingCycleStore",
              "type": "address"
            },
            {
              "internalType": "string",
              "name": "baseUri",
              "type": "string"
            },
            {
              "internalType": "contract IJB721TokenUriResolver",
              "name": "tokenUriResolver",
              "type": "address"
            },
            {
              "internalType": "string",
              "name": "contractUri",
              "type": "string"
            },
            {
              "components": [
                {
                  "components": [
                    {
                      "internalType": "uint104",
                      "name": "price",
                      "type": "uint104"
                    },
                    {
                      "internalType": "uint32",
                      "name": "initialQuantity",
                      "type": "uint32"
                    },
                    {
                      "internalType": "uint32",
                      "name": "votingUnits",
                      "type": "uint32"
                    },
                    {
                      "internalType": "uint16",
                      "name": "reservedRate",
                      "type": "uint16"
                    },
                    {
                      "internalType": "address",
                      "name": "reservedTokenBeneficiary",
                      "type": "address"
                    },
                    {
                      "internalType": "bytes32",
                      "name": "encodedIPFSUri",
                      "type": "bytes32"
                    },
                    {
                      "internalType": "uint24",
                      "name": "category",
                      "type": "uint24"
                    },
                    {
                      "internalType": "bool",
                      "name": "allowManualMint",
                      "type": "bool"
                    },
                    {
                      "internalType": "bool",
                      "name": "shouldUseReservedTokenBeneficiaryAsDefault",
                      "type": "bool"
                    },
                    {
                      "internalType": "bool",
                      "name": "transfersPausable",
                      "type": "bool"
                    },
                    {
                      "internalType": "bool",
                      "name": "useVotingUnits",
                      "type": "bool"
                    }
                  ],
                  "internalType": "struct JB721TierParams[]",
                  "name": "tiers",
                  "type": "tuple[]"
                },
                {
                  "internalType": "uint48",
                  "name": "currency",
                  "type": "uint48"
                },
                {
                  "internalType": "uint48",
                  "name": "decimals",
                  "type": "uint48"
                },
                {
                  "internalType": "contract IJBPrices",
                  "name": "prices",
                  "type": "address"
                }
              ],
              "internalType": "struct JB721PricingParams",
              "name": "pricing",
              "type": "tuple"
            },
            {
              "internalType": "address",
              "name": "reservedTokenBeneficiary",
              "type": "address"
            },
            {
              "internalType": "contract IJBTiered721DelegateStore",
              "name": "store",
              "type": "address"
            },
            {
              "components": [
                {
                  "internalType": "bool",
                  "name": "lockReservedTokenChanges",
                  "type": "bool"
                },
                {
                  "internalType": "bool",
                  "name": "lockVotingUnitChanges",
                  "type": "bool"
                },
                {
                  "internalType": "bool",
                  "name": "lockManualMintingChanges",
                  "type": "bool"
                },
                {
                  "internalType": "bool",
                  "name": "preventOverspending",
                  "type": "bool"
                }
              ],
              "internalType": "struct JBTiered721Flags",
              "name": "flags",
              "type": "tuple"
            },
            {
              "internalType": "enum JB721GovernanceType",
              "name": "governanceType",
              "type": "uint8"
            }
          ],
          "internalType": "struct JBDeployTiered721DelegateData",
          "name": "_deployTiered721DelegateData",
          "type": "tuple"
        },
        {
          "components": [
            {
              "internalType": "contract IJBPayDelegate3_1_1",
              "name": "delegate",
              "type": "address"
            },
            {
              "internalType": "uint256",
              "name": "amount",
              "type": "uint256"
            },
            {
              "internalType": "bytes",
              "name": "metadata",
              "type": "bytes"
            }
          ],
          "internalType": "struct JBPayDelegateAllocation3_1_1[]",
          "name": "_otherDelegateAllocations",
          "type": "tuple[]"
        },
        {
          "internalType": "uint8",
          "name": "_extraFundingCycleMetadata",
          "type": "uint8"
        },
        {
          "components": [
            {
              "internalType": "address",
              "name": "nft",
              "type": "address"
            },
            {
              "internalType": "uint256",
              "name": "category",
              "type": "uint256"
            },
            {
              "internalType": "uint256",
              "name": "minimumPrice",
              "type": "uint256"
            },
            {
              "internalType": "uint256",
              "name": "minimumTotalSupply",
              "type": "uint256"
            },
            {
              "internalType": "uint256",
              "name": "maximumTotalSupply",
              "type": "uint256"
            },
            {
              "internalType": "address[]",
              "name": "allowedAddresses",
              "type": "address[]"
            }
          ],
          "internalType": "struct AllowedPost[]",
          "name": "_allowedPosts",
          "type": "tuple[]"
        }
      ],
      "name": "deployCroptopTiered721PayAllocatorNetworkFor",
      "outputs": [
        {
          "internalType": "uint256",
          "name": "networkId",
          "type": "uint256"
        }
      ],
      "stateMutability": "nonpayable",
      "type": "function"
    },
    {
      "inputs": [
        {
          "internalType": "address",
          "name": "_operator",
          "type": "address"
        },
        {
          "components": [
            {
              "internalType": "string",
              "name": "content",
              "type": "string"
            },
            {
              "internalType": "uint256",
              "name": "domain",
              "type": "uint256"
            }
          ],
          "internalType": "struct JBProjectMetadata",
          "name": "_networkMetadata",
          "type": "tuple"
        },
        {
          "internalType": "string",
          "name": "_name",
          "type": "string"
        },
        {
          "internalType": "string",
          "name": "_symbol",
          "type": "string"
        },
        {
          "components": [
            {
              "internalType": "uint256",
              "name": "initialIssuanceRate",
              "type": "uint256"
            },
            {
              "internalType": "uint256",
              "name": "premintTokenAmount",
              "type": "uint256"
            },
            {
              "internalType": "uint256",
              "name": "generationTax",
              "type": "uint256"
            },
            {
              "internalType": "uint256",
              "name": "generationDuration",
              "type": "uint256"
            },
            {
              "internalType": "uint256",
              "name": "exitTaxRate",
              "type": "uint256"
            },
            {
              "components": [
                {
                  "internalType": "uint128",
                  "name": "rate",
                  "type": "uint128"
                },
                {
                  "internalType": "uint128",
                  "name": "startsAtOrAfter",
                  "type": "uint128"
                }
              ],
              "internalType": "struct DevTaxPeriod[]",
              "name": "devTaxPeriods",
              "type": "tuple[]"
            }
          ],
          "internalType": "struct BasicRetailistJBParams",
          "name": "_data",
          "type": "tuple"
        },
        {
          "internalType": "contract IJBPaymentTerminal[]",
          "name": "_terminals",
          "type": "address[]"
        },
        {
          "components": [
            {
              "internalType": "contract IJBGenericBuybackDelegate",
              "name": "delegate",
              "type": "address"
            },
            {
              "components": [
                {
                  "internalType": "address",
                  "name": "token",
                  "type": "address"
                },
                {
                  "internalType": "uint24",
                  "name": "fee",
                  "type": "uint24"
                },
                {
                  "internalType": "uint32",
                  "name": "secondsAgo",
                  "type": "uint32"
                },
                {
                  "internalType": "uint32",
                  "name": "delta",
                  "type": "uint32"
                }
              ],
              "internalType": "struct BuybackDelegatePool[]",
              "name": "pools",
              "type": "tuple[]"
            }
          ],
          "internalType": "struct BuybackDelegateSetup",
          "name": "_buybackDelegateSetup",
          "type": "tuple"
        },
        {
          "components": [
            {
              "internalType": "contract IJBPayDelegate3_1_1",
              "name": "delegate",
              "type": "address"
            },
            {
              "internalType": "uint256",
              "name": "amount",
              "type": "uint256"
            },
            {
              "internalType": "bytes",
              "name": "metadata",
              "type": "bytes"
            }
          ],
          "internalType": "struct JBPayDelegateAllocation3_1_1[]",
          "name": "_delegateAllocations",
          "type": "tuple[]"
        },
        {
          "internalType": "uint8",
          "name": "_extraFundingCycleMetadata",
          "type": "uint8"
        }
      ],
      "name": "deployPayAllocatorNetworkFor",
      "outputs": [
        {
          "internalType": "uint256",
          "name": "networkId",
          "type": "uint256"
        }
      ],
      "stateMutability": "nonpayable",
      "type": "function"
    },
    {
      "inputs": [
        {
          "internalType": "address",
          "name": "_operator",
          "type": "address"
        },
        {
          "components": [
            {
              "internalType": "string",
              "name": "content",
              "type": "string"
            },
            {
              "internalType": "uint256",
              "name": "domain",
              "type": "uint256"
            }
          ],
          "internalType": "struct JBProjectMetadata",
          "name": "_networkMetadata",
          "type": "tuple"
        },
        {
          "internalType": "string",
          "name": "_name",
          "type": "string"
        },
        {
          "internalType": "string",
          "name": "_symbol",
          "type": "string"
        },
        {
          "components": [
            {
              "internalType": "uint256",
              "name": "initialIssuanceRate",
              "type": "uint256"
            },
            {
              "internalType": "uint256",
              "name": "premintTokenAmount",
              "type": "uint256"
            },
            {
              "internalType": "uint256",
              "name": "generationTax",
              "type": "uint256"
            },
            {
              "internalType": "uint256",
              "name": "generationDuration",
              "type": "uint256"
            },
            {
              "internalType": "uint256",
              "name": "exitTaxRate",
              "type": "uint256"
            },
            {
              "components": [
                {
                  "internalType": "uint128",
                  "name": "rate",
                  "type": "uint128"
                },
                {
                  "internalType": "uint128",
                  "name": "startsAtOrAfter",
                  "type": "uint128"
                }
              ],
              "internalType": "struct DevTaxPeriod[]",
              "name": "devTaxPeriods",
              "type": "tuple[]"
            }
          ],
          "internalType": "struct BasicRetailistJBParams",
          "name": "_data",
          "type": "tuple"
        },
        {
          "internalType": "contract IJBPaymentTerminal[]",
          "name": "_terminals",
          "type": "address[]"
        },
        {
          "components": [
            {
              "internalType": "contract IJBGenericBuybackDelegate",
              "name": "delegate",
              "type": "address"
            },
            {
              "components": [
                {
                  "internalType": "address",
                  "name": "token",
                  "type": "address"
                },
                {
                  "internalType": "uint24",
                  "name": "fee",
                  "type": "uint24"
                },
                {
                  "internalType": "uint32",
                  "name": "secondsAgo",
                  "type": "uint32"
                },
                {
                  "internalType": "uint32",
                  "name": "delta",
                  "type": "uint32"
                }
              ],
              "internalType": "struct BuybackDelegatePool[]",
              "name": "pools",
              "type": "tuple[]"
            }
          ],
          "internalType": "struct BuybackDelegateSetup",
          "name": "_buybackDelegateSetup",
          "type": "tuple"
        },
        {
          "components": [
            {
              "internalType": "string",
              "name": "name",
              "type": "string"
            },
            {
              "internalType": "string",
              "name": "symbol",
              "type": "string"
            },
            {
              "internalType": "contract IJBFundingCycleStore",
              "name": "fundingCycleStore",
              "type": "address"
            },
            {
              "internalType": "string",
              "name": "baseUri",
              "type": "string"
            },
            {
              "internalType": "contract IJB721TokenUriResolver",
              "name": "tokenUriResolver",
              "type": "address"
            },
            {
              "internalType": "string",
              "name": "contractUri",
              "type": "string"
            },
            {
              "components": [
                {
                  "components": [
                    {
                      "internalType": "uint104",
                      "name": "price",
                      "type": "uint104"
                    },
                    {
                      "internalType": "uint32",
                      "name": "initialQuantity",
                      "type": "uint32"
                    },
                    {
                      "internalType": "uint32",
                      "name": "votingUnits",
                      "type": "uint32"
                    },
                    {
                      "internalType": "uint16",
                      "name": "reservedRate",
                      "type": "uint16"
                    },
                    {
                      "internalType": "address",
                      "name": "reservedTokenBeneficiary",
                      "type": "address"
                    },
                    {
                      "internalType": "bytes32",
                      "name": "encodedIPFSUri",
                      "type": "bytes32"
                    },
                    {
                      "internalType": "uint24",
                      "name": "category",
                      "type": "uint24"
                    },
                    {
                      "internalType": "bool",
                      "name": "allowManualMint",
                      "type": "bool"
                    },
                    {
                      "internalType": "bool",
                      "name": "shouldUseReservedTokenBeneficiaryAsDefault",
                      "type": "bool"
                    },
                    {
                      "internalType": "bool",
                      "name": "transfersPausable",
                      "type": "bool"
                    },
                    {
                      "internalType": "bool",
                      "name": "useVotingUnits",
                      "type": "bool"
                    }
                  ],
                  "internalType": "struct JB721TierParams[]",
                  "name": "tiers",
                  "type": "tuple[]"
                },
                {
                  "internalType": "uint48",
                  "name": "currency",
                  "type": "uint48"
                },
                {
                  "internalType": "uint48",
                  "name": "decimals",
                  "type": "uint48"
                },
                {
                  "internalType": "contract IJBPrices",
                  "name": "prices",
                  "type": "address"
                }
              ],
              "internalType": "struct JB721PricingParams",
              "name": "pricing",
              "type": "tuple"
            },
            {
              "internalType": "address",
              "name": "reservedTokenBeneficiary",
              "type": "address"
            },
            {
              "internalType": "contract IJBTiered721DelegateStore",
              "name": "store",
              "type": "address"
            },
            {
              "components": [
                {
                  "internalType": "bool",
                  "name": "lockReservedTokenChanges",
                  "type": "bool"
                },
                {
                  "internalType": "bool",
                  "name": "lockVotingUnitChanges",
                  "type": "bool"
                },
                {
                  "internalType": "bool",
                  "name": "lockManualMintingChanges",
                  "type": "bool"
                },
                {
                  "internalType": "bool",
                  "name": "preventOverspending",
                  "type": "bool"
                }
              ],
              "internalType": "struct JBTiered721Flags",
              "name": "flags",
              "type": "tuple"
            },
            {
              "internalType": "enum JB721GovernanceType",
              "name": "governanceType",
              "type": "uint8"
            }
          ],
          "internalType": "struct JBDeployTiered721DelegateData",
          "name": "_deployTiered721DelegateData",
          "type": "tuple"
        },
        {
          "components": [
            {
              "internalType": "contract IJBPayDelegate3_1_1",
              "name": "delegate",
              "type": "address"
            },
            {
              "internalType": "uint256",
              "name": "amount",
              "type": "uint256"
            },
            {
              "internalType": "bytes",
              "name": "metadata",
              "type": "bytes"
            }
          ],
          "internalType": "struct JBPayDelegateAllocation3_1_1[]",
          "name": "_otherDelegateAllocations",
          "type": "tuple[]"
        },
        {
          "internalType": "uint8",
          "name": "_extraFundingCycleMetadata",
          "type": "uint8"
        }
      ],
      "name": "deployTiered721PayAllocatorNetworkFor",
      "outputs": [
        {
          "internalType": "uint256",
          "name": "networkId",
          "type": "uint256"
        }
      ],
      "stateMutability": "nonpayable",
      "type": "function"
    },
    {
      "inputs": [
        {
          "internalType": "uint256",
          "name": "_networkId",
          "type": "uint256"
        }
      ],
      "name": "devTaxPeriodsOf",
      "outputs": [
        {
          "components": [
            {
              "internalType": "uint128",
              "name": "rate",
              "type": "uint128"
            },
            {
              "internalType": "uint128",
              "name": "startsAtOrAfter",
              "type": "uint128"
            }
          ],
          "internalType": "struct DevTaxPeriod[]",
          "name": "",
          "type": "tuple[]"
        }
      ],
      "stateMutability": "view",
      "type": "function"
    },
    {
      "inputs": [],
      "name": "directory",
      "outputs": [
        {
          "internalType": "contract IJBDirectory",
          "name": "",
          "type": "address"
        }
      ],
      "stateMutability": "view",
      "type": "function"
    },
    {
      "inputs": [
        {
          "internalType": "address",
          "name": "_operator",
          "type": "address"
        },
        {
          "internalType": "address",
          "name": "_from",
          "type": "address"
        },
        {
          "internalType": "uint256",
          "name": "_tokenId",
          "type": "uint256"
        },
        {
          "internalType": "bytes",
          "name": "_data",
          "type": "bytes"
        }
      ],
      "name": "onERC721Received",
      "outputs": [
        {
          "internalType": "bytes4",
          "name": "",
          "type": "bytes4"
        }
      ],
      "stateMutability": "view",
      "type": "function"
    },
    {
      "inputs": [
        {
          "internalType": "uint256",
          "name": "",
          "type": "uint256"
        }
      ],
      "name": "operatorPermissionIndexes",
      "outputs": [
        {
          "internalType": "uint256",
          "name": "",
          "type": "uint256"
        }
      ],
      "stateMutability": "view",
      "type": "function"
    },
    {
      "inputs": [
        {
          "components": [
            {
              "internalType": "contract IJBPaymentTerminal",
              "name": "terminal",
              "type": "address"
            },
            {
              "internalType": "address",
              "name": "payer",
              "type": "address"
            },
            {
              "components": [
                {
                  "internalType": "address",
                  "name": "token",
                  "type": "address"
                },
                {
                  "internalType": "uint256",
                  "name": "value",
                  "type": "uint256"
                },
                {
                  "internalType": "uint256",
                  "name": "decimals",
                  "type": "uint256"
                },
                {
                  "internalType": "uint256",
                  "name": "currency",
                  "type": "uint256"
                }
              ],
              "internalType": "struct JBTokenAmount",
              "name": "amount",
              "type": "tuple"
            },
            {
              "internalType": "uint256",
              "name": "projectId",
              "type": "uint256"
            },
            {
              "internalType": "uint256",
              "name": "currentFundingCycleConfiguration",
              "type": "uint256"
            },
            {
              "internalType": "address",
              "name": "beneficiary",
              "type": "address"
            },
            {
              "internalType": "uint256",
              "name": "weight",
              "type": "uint256"
            },
            {
              "internalType": "uint256",
              "name": "reservedRate",
              "type": "uint256"
            },
            {
              "internalType": "string",
              "name": "memo",
              "type": "string"
            },
            {
              "internalType": "bytes",
              "name": "metadata",
              "type": "bytes"
            }
          ],
          "internalType": "struct JBPayParamsData",
          "name": "_data",
          "type": "tuple"
        }
      ],
      "name": "payParams",
      "outputs": [
        {
          "internalType": "uint256",
          "name": "weight",
          "type": "uint256"
        },
        {
          "internalType": "string",
          "name": "memo",
          "type": "string"
        },
        {
          "components": [
            {
              "internalType": "contract IJBPayDelegate3_1_1",
              "name": "delegate",
              "type": "address"
            },
            {
              "internalType": "uint256",
              "name": "amount",
              "type": "uint256"
            },
            {
              "internalType": "bytes",
              "name": "metadata",
              "type": "bytes"
            }
          ],
          "internalType": "struct JBPayDelegateAllocation3_1_1[]",
          "name": "delegateAllocations",
          "type": "tuple[]"
        }
      ],
      "stateMutability": "view",
      "type": "function"
    },
    {
      "inputs": [],
      "name": "publisher",
      "outputs": [
        {
          "internalType": "contract CroptopPublisher",
          "name": "",
          "type": "address"
        }
      ],
      "stateMutability": "view",
      "type": "function"
    },
    {
      "inputs": [
        {
          "components": [
            {
              "internalType": "contract IJBPaymentTerminal",
              "name": "terminal",
              "type": "address"
            },
            {
              "internalType": "address",
              "name": "holder",
              "type": "address"
            },
            {
              "internalType": "uint256",
              "name": "projectId",
              "type": "uint256"
            },
            {
              "internalType": "uint256",
              "name": "currentFundingCycleConfiguration",
              "type": "uint256"
            },
            {
              "internalType": "uint256",
              "name": "tokenCount",
              "type": "uint256"
            },
            {
              "internalType": "uint256",
              "name": "totalSupply",
              "type": "uint256"
            },
            {
              "internalType": "uint256",
              "name": "overflow",
              "type": "uint256"
            },
            {
              "components": [
                {
                  "internalType": "address",
                  "name": "token",
                  "type": "address"
                },
                {
                  "internalType": "uint256",
                  "name": "value",
                  "type": "uint256"
                },
                {
                  "internalType": "uint256",
                  "name": "decimals",
                  "type": "uint256"
                },
                {
                  "internalType": "uint256",
                  "name": "currency",
                  "type": "uint256"
                }
              ],
              "internalType": "struct JBTokenAmount",
              "name": "reclaimAmount",
              "type": "tuple"
            },
            {
              "internalType": "bool",
              "name": "useTotalOverflow",
              "type": "bool"
            },
            {
              "internalType": "uint256",
              "name": "redemptionRate",
              "type": "uint256"
            },
            {
              "internalType": "string",
              "name": "memo",
              "type": "string"
            },
            {
              "internalType": "bytes",
              "name": "metadata",
              "type": "bytes"
            }
          ],
          "internalType": "struct JBRedeemParamsData",
          "name": "_data",
          "type": "tuple"
        }
      ],
      "name": "redeemParams",
      "outputs": [
        {
          "internalType": "uint256",
          "name": "",
          "type": "uint256"
        },
        {
          "internalType": "string",
          "name": "",
          "type": "string"
        },
        {
          "components": [
            {
              "internalType": "contract IJBRedemptionDelegate3_1_1",
              "name": "delegate",
              "type": "address"
            },
            {
              "internalType": "uint256",
              "name": "amount",
              "type": "uint256"
            },
            {
              "internalType": "bytes",
              "name": "metadata",
              "type": "bytes"
            }
          ],
          "internalType": "struct JBRedemptionDelegateAllocation3_1_1[]",
          "name": "",
          "type": "tuple[]"
        }
      ],
      "stateMutability": "view",
      "type": "function"
    },
    {
      "inputs": [
        {
          "internalType": "uint256",
          "name": "_networkId",
          "type": "uint256"
        }
      ],
      "name": "scheduleNextDevTaxPeriodOf",
      "outputs": [],
      "stateMutability": "nonpayable",
      "type": "function"
    },
    {
      "inputs": [
        {
          "internalType": "bytes4",
          "name": "_interfaceId",
          "type": "bytes4"
        }
      ],
      "name": "supportsInterface",
      "outputs": [
        {
          "internalType": "bool",
          "name": "",
          "type": "bool"
        }
      ],
      "stateMutability": "view",
      "type": "function"
    }
  ],
  "bytecode": {
    "object": "0x60e06040523480156200001157600080fd5b5060405162005d7d38038062005d7d833981016040819052620000349162000126565b6001600160a01b0390811660805260018054808201825560127fb10e2d527612073b26eecdfd717e6a320cf44b4afac2b0732d9fcbe2b7fa0cf6918201558154808301835560189101556005805480830190915560097f036b6384b5eca791c62761152d0c79bb0604c104a5fb6f4eb0703f3154bb3db09091015592811660a05290811660c052600680546001600160a01b031916939091169290921790915560078054918201815560005260157fa66cc928b5edb82af9bd49922954155ab7b0942694bea4ce44661d9a8736c688909101556200018e565b6001600160a01b03811681146200012357600080fd5b50565b600080600080608085870312156200013d57600080fd5b84516200014a816200010d565b60208601519094506200015d816200010d565b604086015190935062000170816200010d565b606086015190925062000183816200010d565b939692955090935050565b60805160a05160c051615b3a62000243600039600081816102dc01526121f901526000818161037a01528181611e470152611fee0152600081816103f9015281816104fd0152818161075a0152818161089d015281816109ab01528181610ac401528181610dc601528181610e880152818161106f0152818161120d0152818161142701528181611547015281816116550152818161176e01528181611a2a01528181611b0101526128000152615b3a6000f3fe608060405234801561001057600080fd5b506004361061016c5760003560e01c80638c72c54e116100cd578063abc603e311610081578063d46cf17111610066578063d46cf1711461039c578063ef8eadd5146103be578063f77c4791146103f457600080fd5b8063abc603e314610353578063c41c2f241461037557600080fd5b80639e8c513a116100b25780639e8c513a146102fe5780639f665eee14610311578063a51cfd181461033157600080fd5b80638c72c54e146102925780638f3d964b146102d757600080fd5b8063263950ae11610124578063429216981161010957806342921698146102595780634d7577201461026c578063838340941461027f57600080fd5b8063263950ae14610226578063381eb9181461024657600080fd5b806310c5f4461161015557806310c5f446146101ae578063150b7a02146101cf578063256b83701461021357600080fd5b806301ffc9a7146101715780630310850e14610199575b600080fd5b61018461017f366004612e66565b61041b565b60405190151581526020015b60405180910390f35b6101ac6101a7366004612eaf565b6104b4565b005b6101c16101bc366004613591565b61088d565b604051908152602001610190565b6101e26101dd3660046136ce565b611423565b6040517fffffffff000000000000000000000000000000000000000000000000000000009091168152602001610190565b6101c161022136600461376d565b611537565b610239610234366004612eaf565b611d05565b6040516101909190613874565b6101c1610254366004613e0b565b611d9b565b6101c1610267366004612eaf565b611fb9565b6101c161027a366004612eaf565b611fda565b6101c161028d366004613fa0565b611fea565b6006546102b29073ffffffffffffffffffffffffffffffffffffffff1681565b60405173ffffffffffffffffffffffffffffffffffffffff9091168152602001610190565b6102b27f000000000000000000000000000000000000000000000000000000000000000081565b6101c161030c366004612eaf565b6122f6565b6101c161031f366004612eaf565b60026020526000908152604090205481565b61034461033f366004614103565b612306565b604051610190939291906141ad565b610366610361366004614276565b61236e565b60405161019093929190614298565b6102b27f000000000000000000000000000000000000000000000000000000000000000081565b6103af6103aa3660046142d6565b612451565b60405161019093929190614312565b6102b26103cc366004612eaf565b60036020526000908152604090205473ffffffffffffffffffffffffffffffffffffffff1681565b6102b27f000000000000000000000000000000000000000000000000000000000000000081565b60007fffffffff0000000000000000000000000000000000000000000000000000000082167f71700c690000000000000000000000000000000000000000000000000000000014806104ae57507f150b7a02000000000000000000000000000000000000000000000000000000007fffffffff000000000000000000000000000000000000000000000000000000008316145b92915050565b6040517f1f51045300000000000000000000000000000000000000000000000000000000815260048101829052600090819073ffffffffffffffffffffffffffffffffffffffff7f00000000000000000000000000000000000000000000000000000000000000001690631f510453906024016103c060405180830381865afa158015610545573d6000803e3d6000fd5b505050506040513d601f19601f820116820180604052508101906105699190614590565b506000858152600260205260408120805493955091935091829061058c90614676565b91829055506000858152602081905260409020549091508015806105af57508082145b806105be575042846060015110155b156105f5576040517fc97554fa00000000000000000000000000000000000000000000000000000000815260040160405180910390fd5b6000858152602081905260408120805484908110610615576106156146ae565b6000918252602080832060408051808201825293909101546fffffffffffffffffffffffffffffffff808216855270010000000000000000000000000000000090910481168484019081528251608080820185528c810151825281860188905260c0808e01518387015260608084018a905286516102a08101885261024081018b815261026082018c905261028082018c905281528951909616868901528d87015196860196909652948401889052830187905260a0830187905292820186905260e08201869052610100820186905261012082018690526101408201869052610160820186905261018082018690526101a082018690526101c082018690526101e0820195909552610200808a015173ffffffffffffffffffffffffffffffffffffffff908116918301919091526102208a810151908301529451928a01519395507f00000000000000000000000000000000000000000000000000000000000000009094169363badbdf28938b93906107919085906127bb565b604080516000808252602082019092529061081f565b61080c6040518060c00160405280600073ffffffffffffffffffffffffffffffffffffffff168152602001600073ffffffffffffffffffffffffffffffffffffffff168152602001600081526020016000815260200160008152602001600081525090565b8152602001906001900390816107a75790505b506040518763ffffffff1660e01b8152600401610841969594939291906149e5565b6020604051808303816000875af1158015610860573d6000803e3d6000fd5b505050506040513d601f19601f820116820180604052508101906108849190614aeb565b50505050505050565b6000806108998b61298b565b90507f000000000000000000000000000000000000000000000000000000000000000073ffffffffffffffffffffffffffffffffffffffff16638b79543c6040518163ffffffff1660e01b8152600401602060405180830381865afa158015610906573d6000803e3d6000fd5b505050506040513d601f19601f8201168201806040525081019061092a9190614b04565b73ffffffffffffffffffffffffffffffffffffffff1663666d87a0308c6040518363ffffffff1660e01b8152600401610964929190614b21565b6020604051808303816000875af1158015610983573d6000803e3d6000fd5b505050506040513d601f19601f820116820180604052508101906109a79190614aeb565b91507f000000000000000000000000000000000000000000000000000000000000000073ffffffffffffffffffffffffffffffffffffffff1663619306306040518163ffffffff1660e01b8152600401602060405180830381865afa158015610a14573d6000803e3d6000fd5b505050506040513d601f19601f82011682018060405250810190610a389190614b04565b73ffffffffffffffffffffffffffffffffffffffff1663a7f2a70b838b8b6040518463ffffffff1660e01b8152600401610a7493929190614b6f565b6020604051808303816000875af1158015610a93573d6000803e3d6000fd5b505050506040513d601f19601f82011682018060405250810190610ab79190614b04565b50610ac28286612b11565b7f000000000000000000000000000000000000000000000000000000000000000073ffffffffffffffffffffffffffffffffffffffff1663111d861b8360405180608001604052808b60600151815260200160128c60000151610b259190614cc4565b81526040808d0151602080840191909152600092820183905281516102a081019092526102408201838152610260830184905261028083019390935291815260a08d015151909182019015610b9c578c60a00151600081518110610b8b57610b8b6146ae565b602002602001015160000151610b9f565b60005b6fffffffffffffffffffffffffffffffff1681526020018c60800151612710610bc89190614cd3565b815260006020820181905260408201819052606082018190526080820181905260a0808301829052600160c0840181905260e0840183905261010084018390526101208401839052610140840183905261016084018390526101808401526101a0830191909152306101c083015260ff8a166101e0909201919091528c01515115610c75578b60a00151600081518110610c6457610c646146ae565b602002602001015160200151610c78565b60005b604080516000808252602082019092528891610d07565b610cf46040518060c00160405280600073ffffffffffffffffffffffffffffffffffffffff168152602001600073ffffffffffffffffffffffffffffffffffffffff168152602001600081526020016000815260200160008152602001600081525090565b815260200190600190039081610c8f5790505b508d6040518863ffffffff1660e01b8152600401610d2b9796959493929190614ce6565b6020604051808303816000875af1158015610d4a573d6000803e3d6000fd5b505050506040513d601f19601f82011682018060405250810190610d6e9190614aeb565b508451600083815260036020908152604090912080547fffffffffffffffffffffffff00000000000000000000000000000000000000001673ffffffffffffffffffffffffffffffffffffffff9384161790558801517f000000000000000000000000000000000000000000000000000000000000000090911690638ae9c07b908490610dfd90601290614cc4565b8e8c604051602001610e0f9190614e16565b6040516020818303038152906040526000806040518763ffffffff1660e01b8152600401610e4296959493929190614e5b565b6020604051808303816000875af1158015610e61573d6000803e3d6000fd5b505050506040513d601f19601f82011682018060405250810190610e859190614aeb565b507f000000000000000000000000000000000000000000000000000000000000000073ffffffffffffffffffffffffffffffffffffffff16632bdfe0046040518163ffffffff1660e01b8152600401602060405180830381865afa158015610ef1573d6000803e3d6000fd5b505050506040513d601f19601f82011682018060405250810190610f159190614b04565b73ffffffffffffffffffffffffffffffffffffffff1663ad007d636040518163ffffffff1660e01b8152600401602060405180830381865afa158015610f5f573d6000803e3d6000fd5b505050506040513d601f19601f82011682018060405250810190610f839190614b04565b73ffffffffffffffffffffffffffffffffffffffff1663529cdd2e60405180606001604052808e73ffffffffffffffffffffffffffffffffffffffff168152602001858152602001600180548060200260200160405190810160405280929190818152602001828054801561101757602002820191906000526020600020905b815481526020019060010190808311611003575b50505050508152506040518263ffffffff1660e01b815260040161103b9190614eb0565b600060405180830381600087803b15801561105557600080fd5b505af1158015611069573d6000803e3d6000fd5b505050507f000000000000000000000000000000000000000000000000000000000000000073ffffffffffffffffffffffffffffffffffffffff16632bdfe0046040518163ffffffff1660e01b8152600401602060405180830381865afa1580156110d8573d6000803e3d6000fd5b505050506040513d601f19601f820116820180604052508101906110fc9190614b04565b73ffffffffffffffffffffffffffffffffffffffff1663ad007d636040518163ffffffff1660e01b8152600401602060405180830381865afa158015611146573d6000803e3d6000fd5b505050506040513d601f19601f8201168201806040525081019061116a9190614b04565b85516040517f0f5932f000000000000000000000000000000000000000000000000000000000815273ffffffffffffffffffffffffffffffffffffffff9290921691630f5932f0916111c6913090600090600590600401614f21565b602060405180830381865afa1580156111e3573d6000803e3d6000fd5b505050506040513d601f19601f820116820180604052508101906112079190614f9d565b6113f8577f000000000000000000000000000000000000000000000000000000000000000073ffffffffffffffffffffffffffffffffffffffff16632bdfe0046040518163ffffffff1660e01b8152600401602060405180830381865afa158015611276573d6000803e3d6000fd5b505050506040513d601f19601f8201168201806040525081019061129a9190614b04565b73ffffffffffffffffffffffffffffffffffffffff1663ad007d636040518163ffffffff1660e01b8152600401602060405180830381865afa1580156112e4573d6000803e3d6000fd5b505050506040513d601f19601f820116820180604052508101906113089190614b04565b73ffffffffffffffffffffffffffffffffffffffff1663529cdd2e6040518060600160405280886000015173ffffffffffffffffffffffffffffffffffffffff1681526020016000815260200160058054806020026020016040519081016040528092919081815260200182805480156113a157602002820191906000526020600020905b81548152602001906001019080831161138d575b50505050508152506040518263ffffffff1660e01b81526004016113c59190614eb0565b600060405180830381600087803b1580156113df57600080fd5b505af11580156113f3573d6000803e3d6000fd5b505050505b61140b828860a001518960600151612c44565b6114158285612d9d565b509998505050505050505050565b60007f000000000000000000000000000000000000000000000000000000000000000073ffffffffffffffffffffffffffffffffffffffff16638b79543c6040518163ffffffff1660e01b8152600401602060405180830381865afa158015611490573d6000803e3d6000fd5b505050506040513d601f19601f820116820180604052508101906114b49190614b04565b73ffffffffffffffffffffffffffffffffffffffff163373ffffffffffffffffffffffffffffffffffffffff16146114eb57600080fd5b73ffffffffffffffffffffffffffffffffffffffff85161561150c57600080fd5b507f150b7a020000000000000000000000000000000000000000000000000000000095945050505050565b6000806115438961298b565b90507f000000000000000000000000000000000000000000000000000000000000000073ffffffffffffffffffffffffffffffffffffffff16638b79543c6040518163ffffffff1660e01b8152600401602060405180830381865afa1580156115b0573d6000803e3d6000fd5b505050506040513d601f19601f820116820180604052508101906115d49190614b04565b73ffffffffffffffffffffffffffffffffffffffff1663666d87a0308a6040518363ffffffff1660e01b815260040161160e929190614b21565b6020604051808303816000875af115801561162d573d6000803e3d6000fd5b505050506040513d601f19601f820116820180604052508101906116519190614aeb565b91507f000000000000000000000000000000000000000000000000000000000000000073ffffffffffffffffffffffffffffffffffffffff1663619306306040518163ffffffff1660e01b8152600401602060405180830381865afa1580156116be573d6000803e3d6000fd5b505050506040513d601f19601f820116820180604052508101906116e29190614b04565b73ffffffffffffffffffffffffffffffffffffffff1663a7f2a70b8389896040518463ffffffff1660e01b815260040161171e93929190614b6f565b6020604051808303816000875af115801561173d573d6000803e3d6000fd5b505050506040513d601f19601f820116820180604052508101906117619190614b04565b5061176c8284612b11565b7f000000000000000000000000000000000000000000000000000000000000000073ffffffffffffffffffffffffffffffffffffffff1663111d861b8360405180608001604052808960600151815260200160128a600001516117cf9190614cc4565b81526040808b0151602080840191909152600092820183905281516102a081019092526102408201838152610260830184905261028083019390935291815260a08b015151909182019015611846578a60a00151600081518110611835576118356146ae565b602002602001015160000151611849565b60005b6fffffffffffffffffffffffffffffffff1681526020018a608001516127106118729190614cd3565b815260006020820181905260408201819052606082018190526080820181905260a0808301829052600160c0840181905260e0840183905261010084018390526101208401839052610140840183905261016084018390526101808401526101a083018290528a5173ffffffffffffffffffffffffffffffffffffffff166101c08401526101e0909201528a0151511561192e578960a0015160008151811061191d5761191d6146ae565b602002602001015160200151611931565b60005b6040805160008082526020820190925288916119c0565b6119ad6040518060c00160405280600073ffffffffffffffffffffffffffffffffffffffff168152602001600073ffffffffffffffffffffffffffffffffffffffff168152602001600081526020016000815260200160008152602001600081525090565b8152602001906001900390816119485790505b508b6040518863ffffffff1660e01b81526004016119e49796959493929190614ce6565b6020604051808303816000875af1158015611a03573d6000803e3d6000fd5b505050506040513d601f19601f82011682018060405250810190611a279190614aeb565b507f000000000000000000000000000000000000000000000000000000000000000073ffffffffffffffffffffffffffffffffffffffff16638ae9c07b8360128860200151611a769190614cc4565b8c8a604051602001611a889190614e16565b6040516020818303038152906040526000806040518763ffffffff1660e01b8152600401611abb96959493929190614e5b565b6020604051808303816000875af1158015611ada573d6000803e3d6000fd5b505050506040513d601f19601f82011682018060405250810190611afe9190614aeb565b507f000000000000000000000000000000000000000000000000000000000000000073ffffffffffffffffffffffffffffffffffffffff16632bdfe0046040518163ffffffff1660e01b8152600401602060405180830381865afa158015611b6a573d6000803e3d6000fd5b505050506040513d601f19601f82011682018060405250810190611b8e9190614b04565b73ffffffffffffffffffffffffffffffffffffffff1663ad007d636040518163ffffffff1660e01b8152600401602060405180830381865afa158015611bd8573d6000803e3d6000fd5b505050506040513d601f19601f82011682018060405250810190611bfc9190614b04565b73ffffffffffffffffffffffffffffffffffffffff1663529cdd2e60405180606001604052808c73ffffffffffffffffffffffffffffffffffffffff1681526020018581526020016001805480602002602001604051908101604052809291908181526020018280548015611c9057602002820191906000526020600020905b815481526020019060010190808311611c7c575b50505050508152506040518263ffffffff1660e01b8152600401611cb49190614eb0565b600060405180830381600087803b158015611cce57600080fd5b505af1158015611ce2573d6000803e3d6000fd5b50505050611cf9828660a001518760600151612c44565b50979650505050505050565b600081815260208181526040808320805482518185028101850190935280835260609492939192909184015b82821015611d9057600084815260209081902060408051808201909152908401546fffffffffffffffffffffffffffffffff80821683527001000000000000000000000000000000009091041681830152825260019092019101611d31565b505050509050919050565b6000611daf8c8c8c8c8c8c8c8c8c8c611fea565b90508151600014611e45576006546040517f200e8ae400000000000000000000000000000000000000000000000000000000815273ffffffffffffffffffffffffffffffffffffffff9091169063200e8ae490611e129084908690600401614fba565b600060405180830381600087803b158015611e2c57600080fd5b505af1158015611e40573d6000803e3d6000fd5b505050505b7f000000000000000000000000000000000000000000000000000000000000000073ffffffffffffffffffffffffffffffffffffffff1663ad007d636040518163ffffffff1660e01b8152600401602060405180830381865afa158015611eb0573d6000803e3d6000fd5b505050506040513d601f19601f82011682018060405250810190611ed49190614b04565b6040805160608101825260065473ffffffffffffffffffffffffffffffffffffffff90811682526020808301869052600780548551818402810184018752818152969093169563529cdd2e958501939092830182828015611f5457602002820191906000526020600020905b815481526020019060010190808311611f40575b50505050508152506040518263ffffffff1660e01b8152600401611f789190614eb0565b600060405180830381600087803b158015611f9257600080fd5b505af1158015611fa6573d6000803e3d6000fd5b505050509b9a5050505050505050505050565b60078181548110611fc957600080fd5b600091825260209091200154905081565b60018181548110611fc957600080fd5b60007f000000000000000000000000000000000000000000000000000000000000000073ffffffffffffffffffffffffffffffffffffffff16638b79543c6040518163ffffffff1660e01b8152600401602060405180830381865afa158015612057573d6000803e3d6000fd5b505050506040513d601f19601f8201168201806040525081019061207b9190614b04565b73ffffffffffffffffffffffffffffffffffffffff166306661abd6040518163ffffffff1660e01b8152600401602060405180830381865afa1580156120c5573d6000803e3d6000fd5b505050506040513d601f19601f820116820180604052508101906120e99190614aeb565b6120f49060016150c2565b835190915060006121068260016150c2565b67ffffffffffffffff81111561211e5761211e612efd565b60405190808252806020026020018201604052801561216b57816020015b6040805160608082018352600080835260208301529181019190915281526020019060019003908161213c5790505b50905060005b828110156121b85785818151811061218b5761218b6146ae565b60200260200101518282815181106121a5576121a56146ae565b6020908102919091010152600101612171565b506040517f70d7f24900000000000000000000000000000000000000000000000000000000815260009073ffffffffffffffffffffffffffffffffffffffff7f000000000000000000000000000000000000000000000000000000000000000016906370d7f249906122309087908b9060040161524f565b6020604051808303816000875af115801561224f573d6000803e3d6000fd5b505050506040513d601f19601f820116820180604052508101906122739190614b04565b905060405180606001604052808273ffffffffffffffffffffffffffffffffffffffff16815260200160008152602001604051806020016040528060008152508152508284815181106122c8576122c86146ae565b60200260200101819052506122e48e8e8e8e8e8e8e898d61088d565b505050509a9950505050505050505050565b60058181548110611fc957600080fd5b604080516000808252602082019092526060908190839081612352565b604080516060808201835260008083526020830152918101919091528152602001906001900390816123235790505b5060408051602081019091526000815291969195509350915050565b6004602052816000526040600020818154811061238a57600080fd5b600091825260209091206003909102018054600182015460028301805473ffffffffffffffffffffffffffffffffffffffff9093169550909350906123ce90615402565b80601f01602080910402602001604051908101604052809291908181526020018280546123fa90615402565b80156124475780601f1061241c57610100808354040283529160200191612447565b820191906000526020600020905b81548152906001019060200180831161242a57829003601f168201915b5050505050905083565b60c08101356000908152600360205260408082205490517fd46cf1710000000000000000000000000000000000000000000000000000000081526060918291829173ffffffffffffffffffffffffffffffffffffffff169063d46cf171906124bd90889060040161554b565b600060405180830381865afa1580156124da573d6000803e3d6000fd5b505050506040513d6000823e601f3d9081017fffffffffffffffffffffffffffffffffffffffffffffffffffffffffffffffe016820160405261252091908101906156bf565b805160c089013560009081526004602090815260408083208054825181850281018501909352808352979b5094975092151595919450919291849084015b8282101561264f5760008481526020908190206040805160608101825260038602909201805473ffffffffffffffffffffffffffffffffffffffff168352600181015493830193909352600283018054929392918401916125be90615402565b80601f01602080910402602001604051908101604052809291908181526020018280546125ea90615402565b80156126375780601f1061260c57610100808354040283529160200191612637565b820191906000526020600020905b81548152906001019060200180831161261a57829003601f168201915b5050505050815250508152602001906001019061255e565b5050505090506000815190508261266757600061266a565b60015b6126779060ff16826150c2565b67ffffffffffffffff81111561268f5761268f612efd565b6040519080825280602002602001820160405280156126dc57816020015b604080516060808201835260008083526020830152918101919091528152602001906001900390816126ad5790505b50945060005b81811015612729578281815181106126fc576126fc6146ae565b6020026020010151868281518110612716576127166146ae565b60209081029190910101526001016126e2565b5082156127695783600081518110612743576127436146ae565b602002602001015185828151811061275d5761275d6146ae565b60200260200101819052505b612777610160890189615838565b8080601f016020809104026020016040519081016040528093929190818152602001838380828437600092019190915250999b929a50969850909650505050505050565b604080516001808252818301909252606091816020015b6040805180820190915260008152606060208201528152602001906001900390816127d257905050905060007f000000000000000000000000000000000000000000000000000000000000000073ffffffffffffffffffffffffffffffffffffffff16632bdfe0046040518163ffffffff1660e01b8152600401602060405180830381865afa158015612869573d6000803e3d6000fd5b505050506040513d601f19601f8201168201806040525081019061288d9190614b04565b6040517f69e11cc500000000000000000000000000000000000000000000000000000000815260048101869052602481018590526002604482015273ffffffffffffffffffffffffffffffffffffffff91909116906369e11cc590606401600060405180830381865afa158015612908573d6000803e3d6000fd5b505050506040513d6000823e601f3d9081017fffffffffffffffffffffffffffffffffffffffffffffffffffffffffffffffe016820160405261294e919081019061589d565b90506040518060400160405280600281526020018281525082600081518110612979576129796146ae565b60200260200101819052505092915050565b604080516001808252818301909252606091816020015b6040805180820190915260008152606060208201528152602001906001900390816129a257505060408051600180825281830190925291925060009190602082015b6040805160e08101825260008082526020808301829052928201819052606082018190526080820181905260a0820181905260c082015282527fffffffffffffffffffffffffffffffffffffffffffffffffffffffffffffffff9092019101816129e45790505090506040518060e00160405280600015158152602001600015158152602001633b9aca008152602001600081526020018473ffffffffffffffffffffffffffffffffffffffff16815260200160008152602001600073ffffffffffffffffffffffffffffffffffffffff1681525081600181518110612acc57612acc6146ae565b60200260200101819052506040518060400160405280600281526020018281525082600081518110612b0057612b006146ae565b602002602001018190525050919050565b602081810151516040805160808101825260008082529381018490529081018390526060810183905290915b82811015612c3d5783602001518181518110612b5b57612b5b6146ae565b6020908102919091018101518551918101516040808301516060840151845192517f7b621d3a000000000000000000000000000000000000000000000000000000008152600481018c905262ffffff909416602485015263ffffffff918216604485015216606483015273ffffffffffffffffffffffffffffffffffffffff9081166084830152919450911690637b621d3a9060a4016020604051808303816000875af1158015612c10573d6000803e3d6000fd5b505050506040513d601f19601f82011682018060405250810190612c349190614b04565b50600101612b3d565b5050505050565b81518015612d975760005b81811015612c3d578015801590612cd957508284612c6e600184614cd3565b81518110612c7e57612c7e6146ae565b6020026020010151602001516fffffffffffffffffffffffffffffffff16612ca691906150c2565b848281518110612cb857612cb86146ae565b6020026020010151602001516fffffffffffffffffffffffffffffffff1611155b15612d10576040517fc5c2978500000000000000000000000000000000000000000000000000000000815260040160405180910390fd5b838181518110612d2257612d226146ae565b60200260200101516000808781526020019081526020016000208281548110612d4d57612d4d6146ae565b6000918252602091829020835193909201516fffffffffffffffffffffffffffffffff90811670010000000000000000000000000000000002931692909217910155600101612c4f565b50505050565b805160005b81811015612d9757828181518110612dbc57612dbc6146ae565b6020026020010151600460008681526020019081526020016000208281548110612de857612de86146ae565b600091825260209182902083516003929092020180547fffffffffffffffffffffffff00000000000000000000000000000000000000001673ffffffffffffffffffffffffffffffffffffffff90921691909117815590820151600182015560408201516002820190612e5b90826159ea565b505050600101612da2565b600060208284031215612e7857600080fd5b81357fffffffff0000000000000000000000000000000000000000000000000000000081168114612ea857600080fd5b9392505050565b600060208284031215612ec157600080fd5b5035919050565b73ffffffffffffffffffffffffffffffffffffffff81168114612eea57600080fd5b50565b8035612ef881612ec8565b919050565b7f4e487b7100000000000000000000000000000000000000000000000000000000600052604160045260246000fd5b6040805190810167ffffffffffffffff81118282101715612f4f57612f4f612efd565b60405290565b60405160c0810167ffffffffffffffff81118282101715612f4f57612f4f612efd565b6040516080810167ffffffffffffffff81118282101715612f4f57612f4f612efd565b6040516060810167ffffffffffffffff81118282101715612f4f57612f4f612efd565b604051610160810167ffffffffffffffff81118282101715612f4f57612f4f612efd565b604051610240810167ffffffffffffffff81118282101715612f4f57612f4f612efd565b604051610120810167ffffffffffffffff81118282101715612f4f57612f4f612efd565b60405160e0810167ffffffffffffffff81118282101715612f4f57612f4f612efd565b604051601f82017fffffffffffffffffffffffffffffffffffffffffffffffffffffffffffffffe016810167ffffffffffffffff8111828210171561309457613094612efd565b604052919050565b600067ffffffffffffffff8211156130b6576130b6612efd565b50601f017fffffffffffffffffffffffffffffffffffffffffffffffffffffffffffffffe01660200190565b60006130f56130f08461309c565b61304d565b905082815283838301111561310957600080fd5b828260208301376000602084830101529392505050565b600082601f83011261313157600080fd5b612ea8838335602085016130e2565b60006040828403121561315257600080fd5b61315a612f2c565b9050813567ffffffffffffffff81111561317357600080fd5b61317f84828501613120565b8252506020820135602082015292915050565b600067ffffffffffffffff8211156131ac576131ac612efd565b5060051b60200190565b80356fffffffffffffffffffffffffffffffff81168114612ef857600080fd5b600060c082840312156131e857600080fd5b6131f0612f55565b9050813581526020808301358183015260408084013581840152606084013560608401526080840135608084015260a084013567ffffffffffffffff81111561323857600080fd5b8401601f8101861361324957600080fd5b80356132576130f082613192565b81815260069190911b8201840190848101908883111561327657600080fd5b928501925b828410156132c45784848a0312156132935760008081fd5b61329b612f2c565b6132a4856131b6565b81526132b18786016131b6565b818801528252928401929085019061327b565b60a087015250939695505050505050565b600082601f8301126132e657600080fd5b813560206132f66130f083613192565b82815260059290921b8401810191818101908684111561331557600080fd5b8286015b8481101561333957803561332c81612ec8565b8352918301918301613319565b509695505050505050565b803562ffffff81168114612ef857600080fd5b803563ffffffff81168114612ef857600080fd5b6000604080838503121561337e57600080fd5b613386612f2c565b9150823561339381612ec8565b825260208381013567ffffffffffffffff8111156133b057600080fd5b8401601f810186136133c157600080fd5b80356133cf6130f082613192565b81815260079190911b820183019083810190888311156133ee57600080fd5b928401925b82841015613462576080848a03121561340c5760008081fd5b613414612f78565b843561341f81612ec8565b815261342c858701613344565b8682015261343b878601613357565b87820152606061344c818701613357565b90820152825260809390930192908401906133f3565b808588015250505050505092915050565b600082601f83011261348457600080fd5b813560206134946130f083613192565b82815260059290921b840181019181810190868411156134b357600080fd5b8286015b8481101561333957803567ffffffffffffffff808211156134d85760008081fd5b81890191506060807fffffffffffffffffffffffffffffffffffffffffffffffffffffffffffffffe0848d030112156135115760008081fd5b613519612f9b565b8784013561352681612ec8565b8152604084810135898301529184013591838311156135455760008081fd5b82850194508c603f86011261355c57600093508384fd5b61356c8d8a8701358388016130e2565b9082015286525050509183019183016134b7565b803560ff81168114612ef857600080fd5b60008060008060008060008060006101208a8c0312156135b057600080fd5b6135b98a612eed565b985060208a013567ffffffffffffffff808211156135d657600080fd5b6135e28d838e01613140565b995060408c01359150808211156135f857600080fd5b6136048d838e01613120565b985060608c013591508082111561361a57600080fd5b6136268d838e01613120565b975060808c013591508082111561363c57600080fd5b6136488d838e016131d6565b965060a08c013591508082111561365e57600080fd5b61366a8d838e016132d5565b955060c08c013591508082111561368057600080fd5b61368c8d838e0161336b565b945060e08c01359150808211156136a257600080fd5b506136af8c828d01613473565b9250506136bf6101008b01613580565b90509295985092959850929598565b6000806000806000608086880312156136e657600080fd5b85356136f181612ec8565b9450602086013561370181612ec8565b935060408601359250606086013567ffffffffffffffff8082111561372557600080fd5b818801915088601f83011261373957600080fd5b81358181111561374857600080fd5b89602082850101111561375a57600080fd5b9699959850939650602001949392505050565b600080600080600080600060e0888a03121561378857600080fd5b61379188612eed565b9650602088013567ffffffffffffffff808211156137ae57600080fd5b6137ba8b838c01613140565b975060408a01359150808211156137d057600080fd5b6137dc8b838c01613120565b965060608a01359150808211156137f257600080fd5b6137fe8b838c01613120565b955060808a013591508082111561381457600080fd5b6138208b838c016131d6565b945060a08a013591508082111561383657600080fd5b6138428b838c016132d5565b935060c08a013591508082111561385857600080fd5b506138658a828b0161336b565b91505092959891949750929550565b602080825282518282018190526000919060409081850190868401855b828110156138cc57815180516fffffffffffffffffffffffffffffffff90811686529087015116868501529284019290850190600101613891565b5091979650505050505050565b80356cffffffffffffffffffffffffff81168114612ef857600080fd5b803561ffff81168114612ef857600080fd5b8015158114612eea57600080fd5b8035612ef881613908565b803565ffffffffffff81168114612ef857600080fd5b6000608080838503121561394a57600080fd5b613952612f78565b9150823567ffffffffffffffff81111561396b57600080fd5b8301601f8101851361397c57600080fd5b8035602061398c6130f083613192565b82815261016092830284018201928282019190898511156139ac57600080fd5b948301945b84861015613a8d5780868b0312156139c95760008081fd5b6139d1612fbe565b6139da876138d9565b81526139e7858801613357565b8582015260406139f8818901613357565b908201526060613a098882016138f6565b90820152613a18878901612eed565b8189015260a0878101359082015260c0613a33818901613344565b9082015260e0613a44888201613916565b90820152610100613a56888201613916565b90820152610120613a68888201613916565b90820152610140613a7a888201613916565b90820152835294850194918301916139b1565b50865250613a9c868201613921565b8186015250505050613ab060408301613921565b6040820152613ac160608301612eed565b606082015292915050565b600060808284031215613ade57600080fd5b613ae6612f78565b90508135613af381613908565b81526020820135613b0381613908565b60208201526040820135613b1681613908565b60408201526060820135613ac181613908565b803560028110612ef857600080fd5b60006101c08284031215613b4b57600080fd5b613b53612fbe565b9050813567ffffffffffffffff80821115613b6d57600080fd5b613b7985838601613120565b83526020840135915080821115613b8f57600080fd5b613b9b85838601613120565b6020840152613bac60408501612eed565b60408401526060840135915080821115613bc557600080fd5b613bd185838601613120565b6060840152613be260808501612eed565b608084015260a0840135915080821115613bfb57600080fd5b613c0785838601613120565b60a084015260c0840135915080821115613c2057600080fd5b50613c2d84828501613937565b60c083015250613c3f60e08301612eed565b60e0820152610100613c52818401612eed565b90820152610120613c6584848301613acc565b90820152613c766101a08301613b29565b61014082015292915050565b600082601f830112613c9357600080fd5b81356020613ca36130f083613192565b828152600592831b8501820192828201919087851115613cc257600080fd5b8387015b85811015613dfe57803567ffffffffffffffff80821115613ce75760008081fd5b818a01915060c0807fffffffffffffffffffffffffffffffffffffffffffffffffffffffffffffffe0848e03011215613d205760008081fd5b613d28612f55565b88840135613d3581612ec8565b808252506040808501358a830152606080860135828401526080808701358285015260a0915081870135818501525083860135935084841115613d785760008081fd5b83860195508e603f870112613d8f57600094508485fd5b8a8601359450613da16130f086613192565b85815294881b86018201948b810194508f861115613dbf5760008081fd5b958201955b85871015613de95786359250613dd983612ec8565b828552958b0195938b0193613dc4565b90830152508752505050928401928401613cc6565b5090979650505050505050565b60008060008060008060008060008060006101608c8e031215613e2d57600080fd5b613e368c612eed565b9a5067ffffffffffffffff8060208e01351115613e5257600080fd5b613e628e60208f01358f01613140565b9a508060408e01351115613e7557600080fd5b613e858e60408f01358f01613120565b99508060608e01351115613e9857600080fd5b613ea88e60608f01358f01613120565b98508060808e01351115613ebb57600080fd5b613ecb8e60808f01358f016131d6565b97508060a08e01351115613ede57600080fd5b613eee8e60a08f01358f016132d5565b96508060c08e01351115613f0157600080fd5b613f118e60c08f01358f0161336b565b95508060e08e01351115613f2457600080fd5b613f348e60e08f01358f01613b38565b9450806101008e01351115613f4857600080fd5b613f598e6101008f01358f01613473565b9350613f686101208e01613580565b9250806101408e01351115613f7c57600080fd5b50613f8e8d6101408e01358e01613c82565b90509295989b509295989b9093969950565b6000806000806000806000806000806101408b8d031215613fc057600080fd5b613fc98b612eed565b995060208b013567ffffffffffffffff80821115613fe657600080fd5b613ff28e838f01613140565b9a5060408d013591508082111561400857600080fd5b6140148e838f01613120565b995060608d013591508082111561402a57600080fd5b6140368e838f01613120565b985060808d013591508082111561404c57600080fd5b6140588e838f016131d6565b975060a08d013591508082111561406e57600080fd5b61407a8e838f016132d5565b965060c08d013591508082111561409057600080fd5b61409c8e838f0161336b565b955060e08d01359150808211156140b257600080fd5b6140be8e838f01613b38565b94506101008d01359150808211156140d557600080fd5b506140e28d828e01613473565b9250506140f26101208c01613580565b90509295989b9194979a5092959850565b60006020828403121561411557600080fd5b813567ffffffffffffffff81111561412c57600080fd5b82016101e08185031215612ea857600080fd5b60005b8381101561415a578181015183820152602001614142565b50506000910152565b6000815180845261417b81602086016020860161413f565b601f017fffffffffffffffffffffffffffffffffffffffffffffffffffffffffffffffe0169290920160200192915050565b60006060858352602081818501526141c782850187614163565b6040858203818701528187518084528484019150848160051b850101858a0160005b83811015614264578683037fffffffffffffffffffffffffffffffffffffffffffffffffffffffffffffffe00185528151805173ffffffffffffffffffffffffffffffffffffffff16845288810151898501528601518684018a90526142518a850182614163565b95890195935050908701906001016141e9565b50909c9b505050505050505050505050565b6000806040838503121561428957600080fd5b50508035926020909101359150565b73ffffffffffffffffffffffffffffffffffffffff841681528260208201526060604082015260006142cd6060830184614163565b95945050505050565b6000602082840312156142e857600080fd5b813567ffffffffffffffff8111156142ff57600080fd5b82016101a08185031215612ea857600080fd5b600060608583526020818185015261432c82850187614163565b6040858203818701528187518084528484019150848160051b850101858a0160005b83811015614264578683037fffffffffffffffffffffffffffffffffffffffffffffffffffffffffffffffe00185528151805173ffffffffffffffffffffffffffffffffffffffff16845288810151898501528601518684018a90526143b68a850182614163565b958901959350509087019060010161434e565b8051612ef881612ec8565b8051612ef881613908565b6000606082840312156143f157600080fd5b6143f9612f9b565b9050815161440681613908565b8152602082015161441681613908565b6020820152604082015161442981613908565b604082015292915050565b6000610280828403121561444757600080fd5b61444f612fe2565b905061445b83836143df565b8152606082015160208201526080820151604082015260a0820151606082015261448760c083016143d4565b608082015261449860e083016143d4565b60a08201526101006144ab8184016143d4565b60c08301526101206144be8185016143d4565b60e08401526101406144d18186016143d4565b8385015261016092506144e58386016143d4565b8285015261018091506144f98286016143d4565b908401526101a061450b8582016143d4565b838501526101c0925061451f8386016143d4565b828501526101e091506145338286016143d4565b908401526102006145458582016143d4565b8385015261022092506145598386016143d4565b8285015261456a61024086016143c9565b818501525050610260830151818301525092915050565b805160038110612ef857600080fd5b60008060008385036103c08112156145a757600080fd5b610120808212156145b757600080fd5b6145bf613006565b9150855182526020860151602083015260408601516040830152606086015160608301526080860151608083015260a086015160a083015260c086015160c083015261460d60e087016143c9565b60e083015261010080870151818401525081945061462d87828801614434565b9350505061463e6103a08501614581565b90509250925092565b7f4e487b7100000000000000000000000000000000000000000000000000000000600052601160045260246000fd5b60007fffffffffffffffffffffffffffffffffffffffffffffffffffffffffffffffff82036146a7576146a7614647565b5060010190565b7f4e487b7100000000000000000000000000000000000000000000000000000000600052603260045260246000fd5b6147028282518051151582526020808201511515908301526040908101511515910152565b6020810151606083015260408101516080830152606081015160a0830152608081015161473360c084018215159052565b5060a081015180151560e08401525060c08101516101006147578185018315159052565b60e0830151915061012061476e8186018415159052565b908301519150610140906147858583018415159052565b830151915061016061479a8582018415159052565b908301519150610180906147b18583018415159052565b83015191506101a06147c68582018415159052565b9083015191506101c0906147dd8583018415159052565b83015191506101e06147f28582018415159052565b908301519150610200906148098583018415159052565b830151915061022061481e8582018415159052565b9083015173ffffffffffffffffffffffffffffffffffffffff16610240850152909101516102609092019190915250565b600082825180855260208086019550808260051b8401018186016000805b8581101561494f578684037fffffffffffffffffffffffffffffffffffffffffffffffffffffffffffffffe0018a52825180518552850151604086860181905281518187018190529187019160609081880190865b818110156149385785518051151584528b81015115158c8501528581015186850152848101518585015260808082015173ffffffffffffffffffffffffffffffffffffffff9081169186019190915260a0808301519086015260c0918201511690840152948a019460e0909201916001016148c2565b50509c88019c96505050928501925060010161486d565b509198975050505050505050565b600081518084526020808501945080840160005b838110156149da578151805173ffffffffffffffffffffffffffffffffffffffff908116895284820151168489015260408082015190890152606080820151908901526080808201519089015260a0908101519088015260c09096019590820190600101614971565b509495945050505050565b60006103a0888352614a31602084018980518252602081015160208301526040810151604083015273ffffffffffffffffffffffffffffffffffffffff60608201511660608301525050565b614a3e60a08401886146dd565b6fffffffffffffffffffffffffffffffff861661032084015280610340840152614a6a8184018661484f565b9050828103610360840152614a7f818561495d565b838103610380909401939093525050603281527f5363686564756c6564206e657874206465762074617820706572696f64206f6660208201527f2052657461696c697374206e6574776f726b000000000000000000000000000060408201526060019695505050505050565b600060208284031215614afd57600080fd5b5051919050565b600060208284031215614b1657600080fd5b8151612ea881612ec8565b73ffffffffffffffffffffffffffffffffffffffff831681526040602082015260008251604080840152614b586080840182614163565b905060208401516060840152809150509392505050565b838152606060208201526000614b886060830185614163565b8281036040840152614b9a8185614163565b9695505050505050565b600181815b80851115614bfd57817fffffffffffffffffffffffffffffffffffffffffffffffffffffffffffffffff04821115614be357614be3614647565b80851615614bf057918102915b93841c9390800290614ba9565b509250929050565b600082614c14575060016104ae565b81614c21575060006104ae565b8160018114614c375760028114614c4157614c5d565b60019150506104ae565b60ff841115614c5257614c52614647565b50506001821b6104ae565b5060208310610133831016604e8410600b8410161715614c80575081810a6104ae565b614c8a8383614ba4565b807fffffffffffffffffffffffffffffffffffffffffffffffffffffffffffffffff04821115614cbc57614cbc614647565b029392505050565b6000612ea860ff841683614c05565b818103818111156104ae576104ae614647565b60006103c08983526020614d338185018b80518252602081015160208301526040810151604083015273ffffffffffffffffffffffffffffffffffffffff60608201511660608301525050565b614d4060a085018a6146dd565b6fffffffffffffffffffffffffffffffff881661032085015281610340850152614d6c8285018861484f565b9150838203610360850152614d81828761495d565b848103610380860152855180825282870193509082019060005b81811015614dcd57845173ffffffffffffffffffffffffffffffffffffffff1683529383019391830191600101614d9b565b50508481036103a0860152601a81527f4465706c6f7965642052657461696c697374206e6574776f726b0000000000006020820152604081019c9b505050505050505050505050565b7f5072656d696e7465642024000000000000000000000000000000000000000000815260008251614e4e81600b85016020870161413f565b91909101600b0192915050565b86815285602082015273ffffffffffffffffffffffffffffffffffffffff8516604082015260c060608201526000614e9660c0830186614163565b93151560808301525090151560a090910152949350505050565b600060208083526080830173ffffffffffffffffffffffffffffffffffffffff85511682850152818501516040850152604085015160608086015281815180845260a0870191508483019350600092505b808310156133395783518252928401926001929092019190840190614f01565b60006080820173ffffffffffffffffffffffffffffffffffffffff808816845260208188168186015286604086015260806060860152829150855480845260a0860192508660005281600020935060005b81811015614f8e57845484526001948501949383019301614f72565b50919998505050505050505050565b600060208284031215614faf57600080fd5b8151612ea881613908565b6000604080830185845260208281860152818651808452606093508387019150838160051b8801018389016000805b848110156150b1578a84037fffffffffffffffffffffffffffffffffffffffffffffffffffffffffffffffa00186528251805173ffffffffffffffffffffffffffffffffffffffff908116865288820151898701528a8201518b870152898201518a8701526080808301519087015260a09182015160c0928701839052805192870183905289019160e087019185915b8083101561509b57845182168452938b0193928b019260019290920191615079565b5050509688019694505091860191600101614fe9565b50919b9a5050505050505050505050565b808201808211156104ae576104ae614647565b80516080808452815184820181905260009260a0916020918201918388019190865b828110156151ba57845180516cffffffffffffffffffffffffff1685528281015163ffffffff908116848701526040808301519091169086015260608082015161ffff16908601528781015173ffffffffffffffffffffffffffffffffffffffff1688860152868101518786015260c08082015162ffffff169086015260e08082015115159086015261010080820151151590860152610120808201511515908601526101409081015115159085015293810193610160909301926001016150f7565b508781015165ffffffffffff81168a83015295505050604086015193506151eb604088018565ffffffffffff169052565b60608601519350614b9a606088018573ffffffffffffffffffffffffffffffffffffffff169052565b6002811061524b577f4e487b7100000000000000000000000000000000000000000000000000000000600052602160045260246000fd5b9052565b82815260406020820152600082516101c06040840152615273610200840182614163565b905060208401517fffffffffffffffffffffffffffffffffffffffffffffffffffffffffffffffc0808584030160608601526152af8383614163565b9250604086015191506152da608086018373ffffffffffffffffffffffffffffffffffffffff169052565b60608601519150808584030160a08601526152f58383614163565b92506080860151915061532060c086018373ffffffffffffffffffffffffffffffffffffffff169052565b60a08601519150808584030160e086015261533b8383614163565b925060c0860151915061010081868503018187015261535a84846150d5565b935060e0870151925061012091506153898287018473ffffffffffffffffffffffffffffffffffffffff169052565b86015191506101406153b28682018473ffffffffffffffffffffffffffffffffffffffff169052565b908601518051151561016087015260208101511515610180870152604081015115156101a08701526060015115156101c086015285015190506153f96101e0850182615214565b50949350505050565b600181811c9082168061541657607f821691505b60208210810361544f577f4e487b7100000000000000000000000000000000000000000000000000000000600052602260045260246000fd5b50919050565b803561546081612ec8565b73ffffffffffffffffffffffffffffffffffffffff1682526020818101359083015260408082013590830152606090810135910152565b60008083357fffffffffffffffffffffffffffffffffffffffffffffffffffffffffffffffe18436030181126154cc57600080fd5b830160208101925035905067ffffffffffffffff8111156154ec57600080fd5b8036038213156154fb57600080fd5b9250929050565b8183528181602085013750600060208284010152600060207fffffffffffffffffffffffffffffffffffffffffffffffffffffffffffffffe0601f840116840101905092915050565b602081526155796020820161555f84612eed565b73ffffffffffffffffffffffffffffffffffffffff169052565b600061558760208401612eed565b73ffffffffffffffffffffffffffffffffffffffff81166040840152506155b46060830160408501615455565b60c083013560e083015261010060e0840135818401526155d5818501612eed565b90506101206155fb8185018373ffffffffffffffffffffffffffffffffffffffff169052565b6101409150808501358285015250610160818501358185015261562081860186615497565b925090506101a0610180818187015261563e6101c087018585615502565b935061564c81880188615497565b935090507fffffffffffffffffffffffffffffffffffffffffffffffffffffffffffffffe08685030182870152615684848483615502565b979650505050505050565b600061569d6130f08461309c565b90508281528383830111156156b157600080fd5b612ea883602083018461413f565b6000806000606084860312156156d457600080fd5b8351925060208085015167ffffffffffffffff808211156156f457600080fd5b818701915087601f83011261570857600080fd5b61571688835185850161568f565b9450604087015191508082111561572c57600080fd5b818701915087601f83011261574057600080fd5b815161574e6130f082613192565b81815260059190911b8301840190848101908a83111561576d57600080fd5b8585015b838110156158275780518581111561578857600080fd5b86016060818e037fffffffffffffffffffffffffffffffffffffffffffffffffffffffffffffffe00112156157bc57600080fd5b6157c4612f9b565b888201516157d181612ec8565b81526040820151898201526060820151878111156157ee57600080fd5b8083019250508d603f83011261580357600080fd5b6158148e8a8401516040850161568f565b6040820152845250918601918601615771565b508096505050505050509250925092565b60008083357fffffffffffffffffffffffffffffffffffffffffffffffffffffffffffffffe184360301811261586d57600080fd5b83018035915067ffffffffffffffff82111561588857600080fd5b6020019150368190038213156154fb57600080fd5b600060208083850312156158b057600080fd5b825167ffffffffffffffff8111156158c757600080fd5b8301601f810185136158d857600080fd5b80516158e66130f082613192565b81815260e0918202830184019184820191908884111561590557600080fd5b938501935b83851015611cf95780858a0312156159225760008081fd5b61592a61302a565b855161593581613908565b81528587015161594481613908565b81880152604086810151908201526060808701519082015260808087015161596b81612ec8565b9082015260a0868101519082015260c08087015161598881612ec8565b908201528352938401939185019161590a565b601f8211156159e557600081815260208120601f850160051c810160208610156159c25750805b601f850160051c820191505b818110156159e1578281556001016159ce565b5050505b505050565b815167ffffffffffffffff811115615a0457615a04612efd565b615a1881615a128454615402565b8461599b565b602080601f831160018114615a6b5760008415615a355750858301515b7fffffffffffffffffffffffffffffffffffffffffffffffffffffffffffffffff600386901b1c1916600185901b1785556159e1565b6000858152602081207fffffffffffffffffffffffffffffffffffffffffffffffffffffffffffffffe08616915b82811015615ab857888601518255948401946001909101908401615a99565b5085821015615af457878501517fffffffffffffffffffffffffffffffffffffffffffffffffffffffffffffffff600388901b60f8161c191681555b5050505050600190811b0190555056fea2646970667358221220204dda2c4d8e528e6999483bf6ea77fae83beafbab4a335af8e384a73d3615c864736f6c63430008150033",
    "linkReferences": {}
  },
  "methodIdentifiers": {
    "buybackDelegateDataSourceOf(uint256)": "ef8eadd5",
    "buybackDelegatePermissionIndexes(uint256)": "9e8c513a",
    "controller()": "f77c4791",
    "croptopPermissionIndexes(uint256)": "42921698",
    "currentDevTaxPeriodNumberOf(uint256)": "9f665eee",
    "delegateAllocationsOf(uint256,uint256)": "abc603e3",
    "delegateDeployer()": "8f3d964b",
    "deployBasicNetworkFor(address,(string,uint256),string,string,(uint256,uint256,uint256,uint256,uint256,(uint128,uint128)[]),address[],(address,(address,uint24,uint32,uint32)[]))": "256b8370",
    "deployCroptopTiered721PayAllocatorNetworkFor(address,(string,uint256),string,string,(uint256,uint256,uint256,uint256,uint256,(uint128,uint128)[]),address[],(address,(address,uint24,uint32,uint32)[]),(string,string,address,string,address,string,((uint104,uint32,uint32,uint16,address,bytes32,uint24,bool,bool,bool,bool)[],uint48,uint48,address),address,address,(bool,bool,bool,bool),uint8),(address,uint256,bytes)[],uint8,(address,uint256,uint256,uint256,uint256,address[])[])": "381eb918",
    "deployPayAllocatorNetworkFor(address,(string,uint256),string,string,(uint256,uint256,uint256,uint256,uint256,(uint128,uint128)[]),address[],(address,(address,uint24,uint32,uint32)[]),(address,uint256,bytes)[],uint8)": "10c5f446",
    "deployTiered721PayAllocatorNetworkFor(address,(string,uint256),string,string,(uint256,uint256,uint256,uint256,uint256,(uint128,uint128)[]),address[],(address,(address,uint24,uint32,uint32)[]),(string,string,address,string,address,string,((uint104,uint32,uint32,uint16,address,bytes32,uint24,bool,bool,bool,bool)[],uint48,uint48,address),address,address,(bool,bool,bool,bool),uint8),(address,uint256,bytes)[],uint8)": "83834094",
    "devTaxPeriodsOf(uint256)": "263950ae",
    "directory()": "c41c2f24",
    "onERC721Received(address,address,uint256,bytes)": "150b7a02",
    "operatorPermissionIndexes(uint256)": "4d757720",
    "payParams((address,address,(address,uint256,uint256,uint256),uint256,uint256,address,uint256,uint256,string,bytes))": "d46cf171",
    "publisher()": "8c72c54e",
    "redeemParams((address,address,uint256,uint256,uint256,uint256,uint256,(address,uint256,uint256,uint256),bool,uint256,string,bytes))": "a51cfd18",
    "scheduleNextDevTaxPeriodOf(uint256)": "0310850e",
    "supportsInterface(bytes4)": "01ffc9a7"
  },
  "id": 103
}