{
  "abi": [
    {
      "inputs": [
        {
          "internalType": "contract CroptopPublisher",
          "name": "_publisher",
          "type": "address"
        },
        {
          "internalType": "contract IJBDirectory",
          "name": "_directory",
          "type": "address"
        },
        {
          "internalType": "contract IJBTiered721DelegateDeployer",
          "name": "_delegateDeployer",
          "type": "address"
        },
        {
          "internalType": "contract IJBController3_1",
          "name": "_controller",
          "type": "address"
        }
      ],
      "stateMutability": "nonpayable",
      "type": "constructor"
    },
    {
      "inputs": [],
      "name": "BAD_DEV_TAX_SEQUENCE",
      "type": "error"
    },
    {
      "inputs": [],
      "name": "RECONFIGURATION_ALREADY_SCHEDULED",
      "type": "error"
    },
    {
      "inputs": [],
      "name": "RECONFIGURATION_NOT_POSSIBLE",
      "type": "error"
    },
    {
      "inputs": [
        {
          "internalType": "uint256",
          "name": "",
          "type": "uint256"
        }
      ],
      "name": "buybackDelegateDataSourceOf",
      "outputs": [
        {
          "internalType": "contract IJBGenericBuybackDelegate",
          "name": "",
          "type": "address"
        }
      ],
      "stateMutability": "view",
      "type": "function"
    },
    {
      "inputs": [
        {
          "internalType": "uint256",
          "name": "",
          "type": "uint256"
        }
      ],
      "name": "buybackDelegatePermissionIndexes",
      "outputs": [
        {
          "internalType": "uint256",
          "name": "",
          "type": "uint256"
        }
      ],
      "stateMutability": "view",
      "type": "function"
    },
    {
      "inputs": [],
      "name": "controller",
      "outputs": [
        {
          "internalType": "contract IJBController3_1",
          "name": "",
          "type": "address"
        }
      ],
      "stateMutability": "view",
      "type": "function"
    },
    {
      "inputs": [
        {
          "internalType": "uint256",
          "name": "",
          "type": "uint256"
        }
      ],
      "name": "croptopPermissionIndexes",
      "outputs": [
        {
          "internalType": "uint256",
          "name": "",
          "type": "uint256"
        }
      ],
      "stateMutability": "view",
      "type": "function"
    },
    {
      "inputs": [
        {
          "internalType": "uint256",
          "name": "_networkId",
          "type": "uint256"
        }
      ],
      "name": "currentDevTaxPeriodNumberOf",
      "outputs": [
        {
          "internalType": "uint256",
          "name": "",
          "type": "uint256"
        }
      ],
      "stateMutability": "view",
      "type": "function"
    },
    {
      "inputs": [
        {
          "internalType": "uint256",
          "name": "",
          "type": "uint256"
        },
        {
          "internalType": "uint256",
          "name": "",
          "type": "uint256"
        }
      ],
      "name": "delegateAllocationsOf",
      "outputs": [
        {
          "internalType": "contract IJBPayDelegate3_1_1",
          "name": "delegate",
          "type": "address"
        },
        {
          "internalType": "uint256",
          "name": "amount",
          "type": "uint256"
        },
        {
          "internalType": "bytes",
          "name": "metadata",
          "type": "bytes"
        }
      ],
      "stateMutability": "view",
      "type": "function"
    },
    {
      "inputs": [],
      "name": "delegateDeployer",
      "outputs": [
        {
          "internalType": "contract IJBTiered721DelegateDeployer",
          "name": "",
          "type": "address"
        }
      ],
      "stateMutability": "view",
      "type": "function"
    },
    {
      "inputs": [
        {
          "internalType": "address",
          "name": "_operator",
          "type": "address"
        },
        {
          "components": [
            {
              "internalType": "string",
              "name": "content",
              "type": "string"
            },
            {
              "internalType": "uint256",
              "name": "domain",
              "type": "uint256"
            }
          ],
          "internalType": "struct JBProjectMetadata",
          "name": "_networkMetadata",
          "type": "tuple"
        },
        {
          "internalType": "string",
          "name": "_name",
          "type": "string"
        },
        {
          "internalType": "string",
          "name": "_symbol",
          "type": "string"
        },
        {
          "components": [
            {
              "internalType": "uint256",
              "name": "initialIssuanceRate",
              "type": "uint256"
            },
            {
              "internalType": "uint256",
              "name": "premintTokenAmount",
              "type": "uint256"
            },
            {
              "internalType": "uint256",
              "name": "generationTax",
              "type": "uint256"
            },
            {
              "internalType": "uint256",
              "name": "generationDuration",
              "type": "uint256"
            },
            {
              "internalType": "uint256",
              "name": "exitTaxRate",
              "type": "uint256"
            },
            {
              "components": [
                {
                  "internalType": "uint128",
                  "name": "rate",
                  "type": "uint128"
                },
                {
                  "internalType": "uint128",
                  "name": "startsAtOrAfter",
                  "type": "uint128"
                }
              ],
              "internalType": "struct DevTaxPeriod[]",
              "name": "devTaxPeriods",
              "type": "tuple[]"
            },
            {
              "internalType": "uint24",
              "name": "poolFee",
              "type": "uint24"
            }
          ],
          "internalType": "struct BasicRetailistJBParams",
          "name": "_data",
          "type": "tuple"
        },
        {
          "internalType": "contract IJBPaymentTerminal[]",
          "name": "_terminals",
          "type": "address[]"
        },
        {
          "internalType": "contract IJBGenericBuybackDelegate",
          "name": "_buybackDelegate",
          "type": "address"
        }
      ],
      "name": "deployBasicNetworkFor",
      "outputs": [
        {
          "internalType": "uint256",
          "name": "networkId",
          "type": "uint256"
        }
      ],
      "stateMutability": "nonpayable",
      "type": "function"
    },
    {
      "inputs": [
        {
          "internalType": "address",
          "name": "_operator",
          "type": "address"
        },
        {
          "components": [
            {
              "internalType": "string",
              "name": "content",
              "type": "string"
            },
            {
              "internalType": "uint256",
              "name": "domain",
              "type": "uint256"
            }
          ],
          "internalType": "struct JBProjectMetadata",
          "name": "_networkMetadata",
          "type": "tuple"
        },
        {
          "internalType": "string",
          "name": "_name",
          "type": "string"
        },
        {
          "internalType": "string",
          "name": "_symbol",
          "type": "string"
        },
        {
          "components": [
            {
              "internalType": "uint256",
              "name": "initialIssuanceRate",
              "type": "uint256"
            },
            {
              "internalType": "uint256",
              "name": "premintTokenAmount",
              "type": "uint256"
            },
            {
              "internalType": "uint256",
              "name": "generationTax",
              "type": "uint256"
            },
            {
              "internalType": "uint256",
              "name": "generationDuration",
              "type": "uint256"
            },
            {
              "internalType": "uint256",
              "name": "exitTaxRate",
              "type": "uint256"
            },
            {
              "components": [
                {
                  "internalType": "uint128",
                  "name": "rate",
                  "type": "uint128"
                },
                {
                  "internalType": "uint128",
                  "name": "startsAtOrAfter",
                  "type": "uint128"
                }
              ],
              "internalType": "struct DevTaxPeriod[]",
              "name": "devTaxPeriods",
              "type": "tuple[]"
            },
            {
              "internalType": "uint24",
              "name": "poolFee",
              "type": "uint24"
            }
          ],
          "internalType": "struct BasicRetailistJBParams",
          "name": "_data",
          "type": "tuple"
        },
        {
          "internalType": "contract IJBPaymentTerminal[]",
          "name": "_terminals",
          "type": "address[]"
        },
        {
          "internalType": "contract IJBGenericBuybackDelegate",
          "name": "_buybackDelegate",
          "type": "address"
        },
        {
          "components": [
            {
              "internalType": "string",
              "name": "name",
              "type": "string"
            },
            {
              "internalType": "string",
              "name": "symbol",
              "type": "string"
            },
            {
              "internalType": "contract IJBFundingCycleStore",
              "name": "fundingCycleStore",
              "type": "address"
            },
            {
              "internalType": "string",
              "name": "baseUri",
              "type": "string"
            },
            {
              "internalType": "contract IJB721TokenUriResolver",
              "name": "tokenUriResolver",
              "type": "address"
            },
            {
              "internalType": "string",
              "name": "contractUri",
              "type": "string"
            },
            {
              "components": [
                {
                  "components": [
                    {
                      "internalType": "uint104",
                      "name": "price",
                      "type": "uint104"
                    },
                    {
                      "internalType": "uint32",
                      "name": "initialQuantity",
                      "type": "uint32"
                    },
                    {
                      "internalType": "uint32",
                      "name": "votingUnits",
                      "type": "uint32"
                    },
                    {
                      "internalType": "uint16",
                      "name": "reservedRate",
                      "type": "uint16"
                    },
                    {
                      "internalType": "address",
                      "name": "reservedTokenBeneficiary",
                      "type": "address"
                    },
                    {
                      "internalType": "bytes32",
                      "name": "encodedIPFSUri",
                      "type": "bytes32"
                    },
                    {
                      "internalType": "uint24",
                      "name": "category",
                      "type": "uint24"
                    },
                    {
                      "internalType": "bool",
                      "name": "allowManualMint",
                      "type": "bool"
                    },
                    {
                      "internalType": "bool",
                      "name": "shouldUseReservedTokenBeneficiaryAsDefault",
                      "type": "bool"
                    },
                    {
                      "internalType": "bool",
                      "name": "transfersPausable",
                      "type": "bool"
                    },
                    {
                      "internalType": "bool",
                      "name": "useVotingUnits",
                      "type": "bool"
                    }
                  ],
                  "internalType": "struct JB721TierParams[]",
                  "name": "tiers",
                  "type": "tuple[]"
                },
                {
                  "internalType": "uint48",
                  "name": "currency",
                  "type": "uint48"
                },
                {
                  "internalType": "uint48",
                  "name": "decimals",
                  "type": "uint48"
                },
                {
                  "internalType": "contract IJBPrices",
                  "name": "prices",
                  "type": "address"
                }
              ],
              "internalType": "struct JB721PricingParams",
              "name": "pricing",
              "type": "tuple"
            },
            {
              "internalType": "address",
              "name": "reservedTokenBeneficiary",
              "type": "address"
            },
            {
              "internalType": "contract IJBTiered721DelegateStore",
              "name": "store",
              "type": "address"
            },
            {
              "components": [
                {
                  "internalType": "bool",
                  "name": "lockReservedTokenChanges",
                  "type": "bool"
                },
                {
                  "internalType": "bool",
                  "name": "lockVotingUnitChanges",
                  "type": "bool"
                },
                {
                  "internalType": "bool",
                  "name": "lockManualMintingChanges",
                  "type": "bool"
                },
                {
                  "internalType": "bool",
                  "name": "preventOverspending",
                  "type": "bool"
                }
              ],
              "internalType": "struct JBTiered721Flags",
              "name": "flags",
              "type": "tuple"
            },
            {
              "internalType": "enum JB721GovernanceType",
              "name": "governanceType",
              "type": "uint8"
            }
          ],
          "internalType": "struct JBDeployTiered721DelegateData",
          "name": "_deployTiered721DelegateData",
          "type": "tuple"
        },
        {
          "components": [
            {
              "internalType": "contract IJBPayDelegate3_1_1",
              "name": "delegate",
              "type": "address"
            },
            {
              "internalType": "uint256",
              "name": "amount",
              "type": "uint256"
            },
            {
              "internalType": "bytes",
              "name": "metadata",
              "type": "bytes"
            }
          ],
          "internalType": "struct JBPayDelegateAllocation3_1_1[]",
          "name": "_otherDelegateAllocations",
          "type": "tuple[]"
        },
        {
          "internalType": "uint8",
          "name": "_extraFundingCycleMetadata",
          "type": "uint8"
        },
        {
          "components": [
            {
              "internalType": "address",
              "name": "nft",
              "type": "address"
            },
            {
              "internalType": "uint256",
              "name": "category",
              "type": "uint256"
            },
            {
              "internalType": "uint256",
              "name": "minimumPrice",
              "type": "uint256"
            },
            {
              "internalType": "uint256",
              "name": "minimumTotalSupply",
              "type": "uint256"
            },
            {
              "internalType": "uint256",
              "name": "maximumTotalSupply",
              "type": "uint256"
            },
            {
              "internalType": "address[]",
              "name": "allowedAddresses",
              "type": "address[]"
            }
          ],
          "internalType": "struct AllowedPost[]",
          "name": "_allowedPosts",
          "type": "tuple[]"
        }
      ],
      "name": "deployCroptopTiered721PayAllocatorNetworkFor",
      "outputs": [
        {
          "internalType": "uint256",
          "name": "networkId",
          "type": "uint256"
        }
      ],
      "stateMutability": "nonpayable",
      "type": "function"
    },
    {
      "inputs": [
        {
          "internalType": "address",
          "name": "_operator",
          "type": "address"
        },
        {
          "components": [
            {
              "internalType": "string",
              "name": "content",
              "type": "string"
            },
            {
              "internalType": "uint256",
              "name": "domain",
              "type": "uint256"
            }
          ],
          "internalType": "struct JBProjectMetadata",
          "name": "_networkMetadata",
          "type": "tuple"
        },
        {
          "internalType": "string",
          "name": "_name",
          "type": "string"
        },
        {
          "internalType": "string",
          "name": "_symbol",
          "type": "string"
        },
        {
          "components": [
            {
              "internalType": "uint256",
              "name": "initialIssuanceRate",
              "type": "uint256"
            },
            {
              "internalType": "uint256",
              "name": "premintTokenAmount",
              "type": "uint256"
            },
            {
              "internalType": "uint256",
              "name": "generationTax",
              "type": "uint256"
            },
            {
              "internalType": "uint256",
              "name": "generationDuration",
              "type": "uint256"
            },
            {
              "internalType": "uint256",
              "name": "exitTaxRate",
              "type": "uint256"
            },
            {
              "components": [
                {
                  "internalType": "uint128",
                  "name": "rate",
                  "type": "uint128"
                },
                {
                  "internalType": "uint128",
                  "name": "startsAtOrAfter",
                  "type": "uint128"
                }
              ],
              "internalType": "struct DevTaxPeriod[]",
              "name": "devTaxPeriods",
              "type": "tuple[]"
            },
            {
              "internalType": "uint24",
              "name": "poolFee",
              "type": "uint24"
            }
          ],
          "internalType": "struct BasicRetailistJBParams",
          "name": "_data",
          "type": "tuple"
        },
        {
          "internalType": "contract IJBPaymentTerminal[]",
          "name": "_terminals",
          "type": "address[]"
        },
        {
          "internalType": "contract IJBGenericBuybackDelegate",
          "name": "_buybackDelegate",
          "type": "address"
        },
        {
          "components": [
            {
              "internalType": "contract IJBPayDelegate3_1_1",
              "name": "delegate",
              "type": "address"
            },
            {
              "internalType": "uint256",
              "name": "amount",
              "type": "uint256"
            },
            {
              "internalType": "bytes",
              "name": "metadata",
              "type": "bytes"
            }
          ],
          "internalType": "struct JBPayDelegateAllocation3_1_1[]",
          "name": "_delegateAllocations",
          "type": "tuple[]"
        },
        {
          "internalType": "uint8",
          "name": "_extraFundingCycleMetadata",
          "type": "uint8"
        }
      ],
      "name": "deployPayAllocatorNetworkFor",
      "outputs": [
        {
          "internalType": "uint256",
          "name": "networkId",
          "type": "uint256"
        }
      ],
      "stateMutability": "nonpayable",
      "type": "function"
    },
    {
      "inputs": [
        {
          "internalType": "address",
          "name": "_operator",
          "type": "address"
        },
        {
          "components": [
            {
              "internalType": "string",
              "name": "content",
              "type": "string"
            },
            {
              "internalType": "uint256",
              "name": "domain",
              "type": "uint256"
            }
          ],
          "internalType": "struct JBProjectMetadata",
          "name": "_networkMetadata",
          "type": "tuple"
        },
        {
          "internalType": "string",
          "name": "_name",
          "type": "string"
        },
        {
          "internalType": "string",
          "name": "_symbol",
          "type": "string"
        },
        {
          "components": [
            {
              "internalType": "uint256",
              "name": "initialIssuanceRate",
              "type": "uint256"
            },
            {
              "internalType": "uint256",
              "name": "premintTokenAmount",
              "type": "uint256"
            },
            {
              "internalType": "uint256",
              "name": "generationTax",
              "type": "uint256"
            },
            {
              "internalType": "uint256",
              "name": "generationDuration",
              "type": "uint256"
            },
            {
              "internalType": "uint256",
              "name": "exitTaxRate",
              "type": "uint256"
            },
            {
              "components": [
                {
                  "internalType": "uint128",
                  "name": "rate",
                  "type": "uint128"
                },
                {
                  "internalType": "uint128",
                  "name": "startsAtOrAfter",
                  "type": "uint128"
                }
              ],
              "internalType": "struct DevTaxPeriod[]",
              "name": "devTaxPeriods",
              "type": "tuple[]"
            },
            {
              "internalType": "uint24",
              "name": "poolFee",
              "type": "uint24"
            }
          ],
          "internalType": "struct BasicRetailistJBParams",
          "name": "_data",
          "type": "tuple"
        },
        {
          "internalType": "contract IJBPaymentTerminal[]",
          "name": "_terminals",
          "type": "address[]"
        },
        {
          "internalType": "contract IJBGenericBuybackDelegate",
          "name": "_buybackDelegate",
          "type": "address"
        },
        {
          "components": [
            {
              "internalType": "string",
              "name": "name",
              "type": "string"
            },
            {
              "internalType": "string",
              "name": "symbol",
              "type": "string"
            },
            {
              "internalType": "contract IJBFundingCycleStore",
              "name": "fundingCycleStore",
              "type": "address"
            },
            {
              "internalType": "string",
              "name": "baseUri",
              "type": "string"
            },
            {
              "internalType": "contract IJB721TokenUriResolver",
              "name": "tokenUriResolver",
              "type": "address"
            },
            {
              "internalType": "string",
              "name": "contractUri",
              "type": "string"
            },
            {
              "components": [
                {
                  "components": [
                    {
                      "internalType": "uint104",
                      "name": "price",
                      "type": "uint104"
                    },
                    {
                      "internalType": "uint32",
                      "name": "initialQuantity",
                      "type": "uint32"
                    },
                    {
                      "internalType": "uint32",
                      "name": "votingUnits",
                      "type": "uint32"
                    },
                    {
                      "internalType": "uint16",
                      "name": "reservedRate",
                      "type": "uint16"
                    },
                    {
                      "internalType": "address",
                      "name": "reservedTokenBeneficiary",
                      "type": "address"
                    },
                    {
                      "internalType": "bytes32",
                      "name": "encodedIPFSUri",
                      "type": "bytes32"
                    },
                    {
                      "internalType": "uint24",
                      "name": "category",
                      "type": "uint24"
                    },
                    {
                      "internalType": "bool",
                      "name": "allowManualMint",
                      "type": "bool"
                    },
                    {
                      "internalType": "bool",
                      "name": "shouldUseReservedTokenBeneficiaryAsDefault",
                      "type": "bool"
                    },
                    {
                      "internalType": "bool",
                      "name": "transfersPausable",
                      "type": "bool"
                    },
                    {
                      "internalType": "bool",
                      "name": "useVotingUnits",
                      "type": "bool"
                    }
                  ],
                  "internalType": "struct JB721TierParams[]",
                  "name": "tiers",
                  "type": "tuple[]"
                },
                {
                  "internalType": "uint48",
                  "name": "currency",
                  "type": "uint48"
                },
                {
                  "internalType": "uint48",
                  "name": "decimals",
                  "type": "uint48"
                },
                {
                  "internalType": "contract IJBPrices",
                  "name": "prices",
                  "type": "address"
                }
              ],
              "internalType": "struct JB721PricingParams",
              "name": "pricing",
              "type": "tuple"
            },
            {
              "internalType": "address",
              "name": "reservedTokenBeneficiary",
              "type": "address"
            },
            {
              "internalType": "contract IJBTiered721DelegateStore",
              "name": "store",
              "type": "address"
            },
            {
              "components": [
                {
                  "internalType": "bool",
                  "name": "lockReservedTokenChanges",
                  "type": "bool"
                },
                {
                  "internalType": "bool",
                  "name": "lockVotingUnitChanges",
                  "type": "bool"
                },
                {
                  "internalType": "bool",
                  "name": "lockManualMintingChanges",
                  "type": "bool"
                },
                {
                  "internalType": "bool",
                  "name": "preventOverspending",
                  "type": "bool"
                }
              ],
              "internalType": "struct JBTiered721Flags",
              "name": "flags",
              "type": "tuple"
            },
            {
              "internalType": "enum JB721GovernanceType",
              "name": "governanceType",
              "type": "uint8"
            }
          ],
          "internalType": "struct JBDeployTiered721DelegateData",
          "name": "_deployTiered721DelegateData",
          "type": "tuple"
        },
        {
          "components": [
            {
              "internalType": "contract IJBPayDelegate3_1_1",
              "name": "delegate",
              "type": "address"
            },
            {
              "internalType": "uint256",
              "name": "amount",
              "type": "uint256"
            },
            {
              "internalType": "bytes",
              "name": "metadata",
              "type": "bytes"
            }
          ],
          "internalType": "struct JBPayDelegateAllocation3_1_1[]",
          "name": "_otherDelegateAllocations",
          "type": "tuple[]"
        },
        {
          "internalType": "uint8",
          "name": "_extraFundingCycleMetadata",
          "type": "uint8"
        }
      ],
      "name": "deployTiered721PayAllocatorNetworkFor",
      "outputs": [
        {
          "internalType": "uint256",
          "name": "networkId",
          "type": "uint256"
        }
      ],
      "stateMutability": "nonpayable",
      "type": "function"
    },
    {
      "inputs": [
        {
          "internalType": "uint256",
          "name": "_networkId",
          "type": "uint256"
        }
      ],
      "name": "devTaxPeriodsOf",
      "outputs": [
        {
          "components": [
            {
              "internalType": "uint128",
              "name": "rate",
              "type": "uint128"
            },
            {
              "internalType": "uint128",
              "name": "startsAtOrAfter",
              "type": "uint128"
            }
          ],
          "internalType": "struct DevTaxPeriod[]",
          "name": "",
          "type": "tuple[]"
        }
      ],
      "stateMutability": "view",
      "type": "function"
    },
    {
      "inputs": [],
      "name": "directory",
      "outputs": [
        {
          "internalType": "contract IJBDirectory",
          "name": "",
          "type": "address"
        }
      ],
      "stateMutability": "view",
      "type": "function"
    },
    {
      "inputs": [
        {
          "internalType": "address",
          "name": "_operator",
          "type": "address"
        },
        {
          "internalType": "address",
          "name": "_from",
          "type": "address"
        },
        {
          "internalType": "uint256",
          "name": "_tokenId",
          "type": "uint256"
        },
        {
          "internalType": "bytes",
          "name": "_data",
          "type": "bytes"
        }
      ],
      "name": "onERC721Received",
      "outputs": [
        {
          "internalType": "bytes4",
          "name": "",
          "type": "bytes4"
        }
      ],
      "stateMutability": "view",
      "type": "function"
    },
    {
      "inputs": [
        {
          "internalType": "uint256",
          "name": "",
          "type": "uint256"
        }
      ],
      "name": "operatorPermissionIndexes",
      "outputs": [
        {
          "internalType": "uint256",
          "name": "",
          "type": "uint256"
        }
      ],
      "stateMutability": "view",
      "type": "function"
    },
    {
      "inputs": [
        {
          "components": [
            {
              "internalType": "contract IJBPaymentTerminal",
              "name": "terminal",
              "type": "address"
            },
            {
              "internalType": "address",
              "name": "payer",
              "type": "address"
            },
            {
              "components": [
                {
                  "internalType": "address",
                  "name": "token",
                  "type": "address"
                },
                {
                  "internalType": "uint256",
                  "name": "value",
                  "type": "uint256"
                },
                {
                  "internalType": "uint256",
                  "name": "decimals",
                  "type": "uint256"
                },
                {
                  "internalType": "uint256",
                  "name": "currency",
                  "type": "uint256"
                }
              ],
              "internalType": "struct JBTokenAmount",
              "name": "amount",
              "type": "tuple"
            },
            {
              "internalType": "uint256",
              "name": "projectId",
              "type": "uint256"
            },
            {
              "internalType": "uint256",
              "name": "currentFundingCycleConfiguration",
              "type": "uint256"
            },
            {
              "internalType": "address",
              "name": "beneficiary",
              "type": "address"
            },
            {
              "internalType": "uint256",
              "name": "weight",
              "type": "uint256"
            },
            {
              "internalType": "uint256",
              "name": "reservedRate",
              "type": "uint256"
            },
            {
              "internalType": "string",
              "name": "memo",
              "type": "string"
            },
            {
              "internalType": "bytes",
              "name": "metadata",
              "type": "bytes"
            }
          ],
          "internalType": "struct JBPayParamsData",
          "name": "_data",
          "type": "tuple"
        }
      ],
      "name": "payParams",
      "outputs": [
        {
          "internalType": "uint256",
          "name": "weight",
          "type": "uint256"
        },
        {
          "internalType": "string",
          "name": "memo",
          "type": "string"
        },
        {
          "components": [
            {
              "internalType": "contract IJBPayDelegate3_1_1",
              "name": "delegate",
              "type": "address"
            },
            {
              "internalType": "uint256",
              "name": "amount",
              "type": "uint256"
            },
            {
              "internalType": "bytes",
              "name": "metadata",
              "type": "bytes"
            }
          ],
          "internalType": "struct JBPayDelegateAllocation3_1_1[]",
          "name": "delegateAllocations",
          "type": "tuple[]"
        }
      ],
      "stateMutability": "view",
      "type": "function"
    },
    {
      "inputs": [],
      "name": "publisher",
      "outputs": [
        {
          "internalType": "contract CroptopPublisher",
          "name": "",
          "type": "address"
        }
      ],
      "stateMutability": "view",
      "type": "function"
    },
    {
      "inputs": [
        {
          "components": [
            {
              "internalType": "contract IJBPaymentTerminal",
              "name": "terminal",
              "type": "address"
            },
            {
              "internalType": "address",
              "name": "holder",
              "type": "address"
            },
            {
              "internalType": "uint256",
              "name": "projectId",
              "type": "uint256"
            },
            {
              "internalType": "uint256",
              "name": "currentFundingCycleConfiguration",
              "type": "uint256"
            },
            {
              "internalType": "uint256",
              "name": "tokenCount",
              "type": "uint256"
            },
            {
              "internalType": "uint256",
              "name": "totalSupply",
              "type": "uint256"
            },
            {
              "internalType": "uint256",
              "name": "overflow",
              "type": "uint256"
            },
            {
              "components": [
                {
                  "internalType": "address",
                  "name": "token",
                  "type": "address"
                },
                {
                  "internalType": "uint256",
                  "name": "value",
                  "type": "uint256"
                },
                {
                  "internalType": "uint256",
                  "name": "decimals",
                  "type": "uint256"
                },
                {
                  "internalType": "uint256",
                  "name": "currency",
                  "type": "uint256"
                }
              ],
              "internalType": "struct JBTokenAmount",
              "name": "reclaimAmount",
              "type": "tuple"
            },
            {
              "internalType": "bool",
              "name": "useTotalOverflow",
              "type": "bool"
            },
            {
              "internalType": "uint256",
              "name": "redemptionRate",
              "type": "uint256"
            },
            {
              "internalType": "string",
              "name": "memo",
              "type": "string"
            },
            {
              "internalType": "bytes",
              "name": "metadata",
              "type": "bytes"
            }
          ],
          "internalType": "struct JBRedeemParamsData",
          "name": "_data",
          "type": "tuple"
        }
      ],
      "name": "redeemParams",
      "outputs": [
        {
          "internalType": "uint256",
          "name": "",
          "type": "uint256"
        },
        {
          "internalType": "string",
          "name": "",
          "type": "string"
        },
        {
          "components": [
            {
              "internalType": "contract IJBRedemptionDelegate3_1_1",
              "name": "delegate",
              "type": "address"
            },
            {
              "internalType": "uint256",
              "name": "amount",
              "type": "uint256"
            },
            {
              "internalType": "bytes",
              "name": "metadata",
              "type": "bytes"
            }
          ],
          "internalType": "struct JBRedemptionDelegateAllocation3_1_1[]",
          "name": "",
          "type": "tuple[]"
        }
      ],
      "stateMutability": "view",
      "type": "function"
    },
    {
      "inputs": [
        {
          "internalType": "uint256",
          "name": "_networkId",
          "type": "uint256"
        }
      ],
      "name": "scheduleNextDevTaxPeriodOf",
      "outputs": [],
      "stateMutability": "nonpayable",
      "type": "function"
    },
    {
      "inputs": [
        {
          "internalType": "bytes4",
          "name": "_interfaceId",
          "type": "bytes4"
        }
      ],
      "name": "supportsInterface",
      "outputs": [
        {
          "internalType": "bool",
          "name": "",
          "type": "bool"
        }
      ],
      "stateMutability": "view",
      "type": "function"
    }
  ],
  "bytecode": {
    "object": "0x60e06040523480156200001157600080fd5b5060405162005e0b38038062005e0b833981016040819052620000349162000126565b6001600160a01b0390811660805260018054808201825560127fb10e2d527612073b26eecdfd717e6a320cf44b4afac2b0732d9fcbe2b7fa0cf6918201558154808301835560189101556005805480830190915560097f036b6384b5eca791c62761152d0c79bb0604c104a5fb6f4eb0703f3154bb3db09091015592811660a05290811660c052600680546001600160a01b031916939091169290921790915560078054918201815560005260157fa66cc928b5edb82af9bd49922954155ab7b0942694bea4ce44661d9a8736c688909101556200018e565b6001600160a01b03811681146200012357600080fd5b50565b600080600080608085870312156200013d57600080fd5b84516200014a816200010d565b60208601519094506200015d816200010d565b604086015190935062000170816200010d565b606086015190925062000183816200010d565b939692955090935050565b60805160a05160c051615bc862000243600039600081816102c901526122fb01526000818161037a015281816120f0015261251c0152600081816103f9015281816104fd015281816107590152818161089c015281816109aa01528181610c5b01528181610f1601528181610fed015281816111f5015281816113dc015281816114ea0152818161179b01528181611a9a01528181611b7101528181611d5801528181611eda0152612b200152615bc86000f3fe608060405234801561001057600080fd5b506004361061016c5760003560e01c80638f3d964b116100cd578063abc603e311610081578063d46cf17111610066578063d46cf1711461039c578063ef8eadd5146103be578063f77c4791146103f457600080fd5b8063abc603e314610353578063c41c2f241461037557600080fd5b80639f665eee116100b25780639f665eee146102fe578063a51cfd181461031e578063a9d513591461034057600080fd5b80638f3d964b146102c45780639e8c513a146102eb57600080fd5b80634292169811610124578063522aa55111610109578063522aa551146102595780635bd266671461026c5780638c72c54e1461027f57600080fd5b806342921698146102335780634d7577201461024657600080fd5b80630a801f47116101555780630a801f47146101ae578063150b7a02146101cf578063263950ae1461021357600080fd5b806301ffc9a7146101715780630310850e14610199575b600080fd5b61018461017f366004613055565b61041b565b60405190151581526020015b60405180910390f35b6101ac6101a736600461309e565b6104b4565b005b6101c16101bc36600461355f565b61088c565b604051908152602001610190565b6101e26101dd366004613652565b6111f1565b6040517fffffffff000000000000000000000000000000000000000000000000000000009091168152602001610190565b61022661022136600461309e565b611305565b60405161019091906136f1565b6101c161024136600461309e565b61139b565b6101c161025436600461309e565b6113bc565b6101c1610267366004613874565b6113cc565b6101c161027a366004613d5a565b6120ec565b60065461029f9073ffffffffffffffffffffffffffffffffffffffff1681565b60405173ffffffffffffffffffffffffffffffffffffffff9091168152602001610190565b61029f7f000000000000000000000000000000000000000000000000000000000000000081565b6101c16102f936600461309e565b6123f8565b6101c161030c36600461309e565b60026020526000908152604090205481565b61033161032c366004613ea9565b612408565b60405161019093929190613f53565b6101c161034e3660046141a5565b612470565b610366610361366004614325565b61268e565b60405161019093929190614347565b61029f7f000000000000000000000000000000000000000000000000000000000000000081565b6103af6103aa366004614385565b612771565b604051610190939291906143c1565b61029f6103cc36600461309e565b60036020526000908152604090205473ffffffffffffffffffffffffffffffffffffffff1681565b61029f7f000000000000000000000000000000000000000000000000000000000000000081565b60007fffffffff0000000000000000000000000000000000000000000000000000000082167f71700c690000000000000000000000000000000000000000000000000000000014806104ae57507f150b7a02000000000000000000000000000000000000000000000000000000007fffffffff000000000000000000000000000000000000000000000000000000008316145b92915050565b6040517f1f51045300000000000000000000000000000000000000000000000000000000815260048101829052600090819073ffffffffffffffffffffffffffffffffffffffff7f00000000000000000000000000000000000000000000000000000000000000001690631f510453906024016103c060405180830381865afa158015610545573d6000803e3d6000fd5b505050506040513d601f19601f82011682018060405250810190610569919061463f565b506000858152600260205260408120805493955091935091829061058c90614725565b91829055506000858152602081905260409020549091508015806105af57508082145b806105bd5750428460600151115b156105f4576040517fc97554fa00000000000000000000000000000000000000000000000000000000815260040160405180910390fd5b60008581526020819052604081208054849081106106145761061461475d565b6000918252602080832060408051808201825293909101546fffffffffffffffffffffffffffffffff808216855270010000000000000000000000000000000090910481168484019081528251608080820185528c810151825281860188905260c0808e01518387015260608084018a905286516102a08101885261024081018b815261026082018c905261028082018c905281528951909616868901528d87015196860196909652948401889052830187905260a0830187905292820186905260e08201869052610100820186905261012082018690526101408201869052610160820186905261018082018690526101a082018690526101c082018690526101e0820195909552610200808a015173ffffffffffffffffffffffffffffffffffffffff908116918301919091526102208a810151908301529451928a01519395507f00000000000000000000000000000000000000000000000000000000000000009094169363badbdf28938b9390610790908590612adb565b604080516000808252602082019092529061081e565b61080b6040518060c00160405280600073ffffffffffffffffffffffffffffffffffffffff168152602001600073ffffffffffffffffffffffffffffffffffffffff168152602001600081526020016000815260200160008152602001600081525090565b8152602001906001900390816107a65790505b506040518763ffffffff1660e01b815260040161084096959493929190614a73565b6020604051808303816000875af115801561085f573d6000803e3d6000fd5b505050506040513d601f19601f820116820180604052508101906108839190614b79565b50505050505050565b60008061089889612cab565b90507f000000000000000000000000000000000000000000000000000000000000000073ffffffffffffffffffffffffffffffffffffffff16638b79543c6040518163ffffffff1660e01b8152600401602060405180830381865afa158015610905573d6000803e3d6000fd5b505050506040513d601f19601f820116820180604052508101906109299190614b92565b73ffffffffffffffffffffffffffffffffffffffff1663666d87a0308a6040518363ffffffff1660e01b8152600401610963929190614baf565b6020604051808303816000875af1158015610982573d6000803e3d6000fd5b505050506040513d601f19601f820116820180604052508101906109a69190614b79565b91507f000000000000000000000000000000000000000000000000000000000000000073ffffffffffffffffffffffffffffffffffffffff1663619306306040518163ffffffff1660e01b8152600401602060405180830381865afa158015610a13573d6000803e3d6000fd5b505050506040513d601f19601f82011682018060405250810190610a379190614b92565b73ffffffffffffffffffffffffffffffffffffffff1663a7f2a70b8389896040518463ffffffff1660e01b8152600401610a7393929190614bfd565b6020604051808303816000875af1158015610a92573d6000803e3d6000fd5b505050506040513d601f19601f82011682018060405250810190610ab69190614b92565b508273ffffffffffffffffffffffffffffffffffffffff16637b621d3a838760c001518673ffffffffffffffffffffffffffffffffffffffff166360b3042c6040518163ffffffff1660e01b8152600401602060405180830381865afa158015610b24573d6000803e3d6000fd5b505050506040513d601f19601f82011682018060405250810190610b489190614b79565b8773ffffffffffffffffffffffffffffffffffffffff1663737a79966040518163ffffffff1660e01b8152600401602060405180830381865afa158015610b93573d6000803e3d6000fd5b505050506040513d601f19601f82011682018060405250810190610bb79190614b79565b6040517fffffffff0000000000000000000000000000000000000000000000000000000060e087901b168152600481019490945262ffffff909216602484015263ffffffff908116604484015216606482015261eeee608482015260a4016020604051808303816000875af1158015610c34573d6000803e3d6000fd5b505050506040513d601f19601f82011682018060405250810190610c589190614b92565b507f000000000000000000000000000000000000000000000000000000000000000073ffffffffffffffffffffffffffffffffffffffff1663111d861b8360405180608001604052808960600151815260200160128a60000151610cbc9190614d52565b81526040808b0151602080840191909152600092820183905281516102a081019092526102408201838152610260830184905261028083019390935291815260a08b015151909182019015610d33578a60a00151600081518110610d2257610d2261475d565b602002602001015160000151610d36565b60005b6fffffffffffffffffffffffffffffffff1681526020018a60800151612710610d5f9190614d61565b815260006020820181905260408201819052606082018190526080820181905260a0808301829052600160c0840181905260e0840183905261010084018390526101208401839052610140840183905261016084018390526101808401526101a0830182905273ffffffffffffffffffffffffffffffffffffffff8b166101c08401526101e0909201528a01515115610e1a578960a00151600081518110610e0957610e0961475d565b602002602001015160200151610e1d565b60005b604080516000808252602082019092528891610eac565b610e996040518060c00160405280600073ffffffffffffffffffffffffffffffffffffffff168152602001600073ffffffffffffffffffffffffffffffffffffffff168152602001600081526020016000815260200160008152602001600081525090565b815260200190600190039081610e345790505b508b6040518863ffffffff1660e01b8152600401610ed09796959493929190614d74565b6020604051808303816000875af1158015610eef573d6000803e3d6000fd5b505050506040513d601f19601f82011682018060405250810190610f139190614b79565b507f000000000000000000000000000000000000000000000000000000000000000073ffffffffffffffffffffffffffffffffffffffff16638ae9c07b8360128860200151610f629190614d52565b8c8a604051602001610f749190614ea4565b6040516020818303038152906040526000806040518763ffffffff1660e01b8152600401610fa796959493929190614ee9565b6020604051808303816000875af1158015610fc6573d6000803e3d6000fd5b505050506040513d601f19601f82011682018060405250810190610fea9190614b79565b507f000000000000000000000000000000000000000000000000000000000000000073ffffffffffffffffffffffffffffffffffffffff16632bdfe0046040518163ffffffff1660e01b8152600401602060405180830381865afa158015611056573d6000803e3d6000fd5b505050506040513d601f19601f8201168201806040525081019061107a9190614b92565b73ffffffffffffffffffffffffffffffffffffffff1663ad007d636040518163ffffffff1660e01b8152600401602060405180830381865afa1580156110c4573d6000803e3d6000fd5b505050506040513d601f19601f820116820180604052508101906110e89190614b92565b73ffffffffffffffffffffffffffffffffffffffff1663529cdd2e60405180606001604052808c73ffffffffffffffffffffffffffffffffffffffff168152602001858152602001600180548060200260200160405190810160405280929190818152602001828054801561117c57602002820191906000526020600020905b815481526020019060010190808311611168575b50505050508152506040518263ffffffff1660e01b81526004016111a09190614f3e565b600060405180830381600087803b1580156111ba57600080fd5b505af11580156111ce573d6000803e3d6000fd5b505050506111e5828660a001518760600151612e31565b50979650505050505050565b60007f000000000000000000000000000000000000000000000000000000000000000073ffffffffffffffffffffffffffffffffffffffff16638b79543c6040518163ffffffff1660e01b8152600401602060405180830381865afa15801561125e573d6000803e3d6000fd5b505050506040513d601f19601f820116820180604052508101906112829190614b92565b73ffffffffffffffffffffffffffffffffffffffff163373ffffffffffffffffffffffffffffffffffffffff16146112b957600080fd5b73ffffffffffffffffffffffffffffffffffffffff8516156112da57600080fd5b507f150b7a020000000000000000000000000000000000000000000000000000000095945050505050565b600081815260208181526040808320805482518185028101850190935280835260609492939192909184015b8282101561139057600084815260209081902060408051808201909152908401546fffffffffffffffffffffffffffffffff80821683527001000000000000000000000000000000009091041681830152825260019092019101611331565b505050509050919050565b600781815481106113ab57600080fd5b600091825260209091200154905081565b600181815481106113ab57600080fd5b6000806113d88b612cab565b90507f000000000000000000000000000000000000000000000000000000000000000073ffffffffffffffffffffffffffffffffffffffff16638b79543c6040518163ffffffff1660e01b8152600401602060405180830381865afa158015611445573d6000803e3d6000fd5b505050506040513d601f19601f820116820180604052508101906114699190614b92565b73ffffffffffffffffffffffffffffffffffffffff1663666d87a0308c6040518363ffffffff1660e01b81526004016114a3929190614baf565b6020604051808303816000875af11580156114c2573d6000803e3d6000fd5b505050506040513d601f19601f820116820180604052508101906114e69190614b79565b91507f000000000000000000000000000000000000000000000000000000000000000073ffffffffffffffffffffffffffffffffffffffff1663619306306040518163ffffffff1660e01b8152600401602060405180830381865afa158015611553573d6000803e3d6000fd5b505050506040513d601f19601f820116820180604052508101906115779190614b92565b73ffffffffffffffffffffffffffffffffffffffff1663a7f2a70b838b8b6040518463ffffffff1660e01b81526004016115b393929190614bfd565b6020604051808303816000875af11580156115d2573d6000803e3d6000fd5b505050506040513d601f19601f820116820180604052508101906115f69190614b92565b508473ffffffffffffffffffffffffffffffffffffffff16637b621d3a838960c001518873ffffffffffffffffffffffffffffffffffffffff166360b3042c6040518163ffffffff1660e01b8152600401602060405180830381865afa158015611664573d6000803e3d6000fd5b505050506040513d601f19601f820116820180604052508101906116889190614b79565b8973ffffffffffffffffffffffffffffffffffffffff1663737a79966040518163ffffffff1660e01b8152600401602060405180830381865afa1580156116d3573d6000803e3d6000fd5b505050506040513d601f19601f820116820180604052508101906116f79190614b79565b6040517fffffffff0000000000000000000000000000000000000000000000000000000060e087901b168152600481019490945262ffffff909216602484015263ffffffff908116604484015216606482015261eeee608482015260a4016020604051808303816000875af1158015611774573d6000803e3d6000fd5b505050506040513d601f19601f820116820180604052508101906117989190614b92565b507f000000000000000000000000000000000000000000000000000000000000000073ffffffffffffffffffffffffffffffffffffffff1663111d861b8360405180608001604052808b60600151815260200160128c600001516117fc9190614d52565b81526040808d0151602080840191909152600092820183905281516102a081019092526102408201838152610260830184905261028083019390935291815260a08d015151909182019015611873578c60a001516000815181106118625761186261475d565b602002602001015160000151611876565b60005b6fffffffffffffffffffffffffffffffff1681526020018c6080015161271061189f9190614d61565b815260006020820181905260408201819052606082018190526080820181905260a0808301829052600160c0840181905260e0840183905261010084018390526101208401839052610140840183905261016084018390526101808401526101a0830191909152306101c083015260ff8a166101e0909201919091528c0151511561194c578b60a0015160008151811061193b5761193b61475d565b60200260200101516020015161194f565b60005b6040805160008082526020820190925288916119de565b6119cb6040518060c00160405280600073ffffffffffffffffffffffffffffffffffffffff168152602001600073ffffffffffffffffffffffffffffffffffffffff168152602001600081526020016000815260200160008152602001600081525090565b8152602001906001900390816119665790505b508d6040518863ffffffff1660e01b8152600401611a029796959493929190614d74565b6020604051808303816000875af1158015611a21573d6000803e3d6000fd5b505050506040513d601f19601f82011682018060405250810190611a459190614b79565b50846003600084815260200190815260200160002060006101000a81548173ffffffffffffffffffffffffffffffffffffffff021916908373ffffffffffffffffffffffffffffffffffffffff1602179055507f000000000000000000000000000000000000000000000000000000000000000073ffffffffffffffffffffffffffffffffffffffff16638ae9c07b8360128a60200151611ae69190614d52565b8e8c604051602001611af89190614ea4565b6040516020818303038152906040526000806040518763ffffffff1660e01b8152600401611b2b96959493929190614ee9565b6020604051808303816000875af1158015611b4a573d6000803e3d6000fd5b505050506040513d601f19601f82011682018060405250810190611b6e9190614b79565b507f000000000000000000000000000000000000000000000000000000000000000073ffffffffffffffffffffffffffffffffffffffff16632bdfe0046040518163ffffffff1660e01b8152600401602060405180830381865afa158015611bda573d6000803e3d6000fd5b505050506040513d601f19601f82011682018060405250810190611bfe9190614b92565b73ffffffffffffffffffffffffffffffffffffffff1663ad007d636040518163ffffffff1660e01b8152600401602060405180830381865afa158015611c48573d6000803e3d6000fd5b505050506040513d601f19601f82011682018060405250810190611c6c9190614b92565b73ffffffffffffffffffffffffffffffffffffffff1663529cdd2e60405180606001604052808e73ffffffffffffffffffffffffffffffffffffffff1681526020018581526020016001805480602002602001604051908101604052809291908181526020018280548015611d0057602002820191906000526020600020905b815481526020019060010190808311611cec575b50505050508152506040518263ffffffff1660e01b8152600401611d249190614f3e565b600060405180830381600087803b158015611d3e57600080fd5b505af1158015611d52573d6000803e3d6000fd5b505050507f000000000000000000000000000000000000000000000000000000000000000073ffffffffffffffffffffffffffffffffffffffff16632bdfe0046040518163ffffffff1660e01b8152600401602060405180830381865afa158015611dc1573d6000803e3d6000fd5b505050506040513d601f19601f82011682018060405250810190611de59190614b92565b73ffffffffffffffffffffffffffffffffffffffff1663ad007d636040518163ffffffff1660e01b8152600401602060405180830381865afa158015611e2f573d6000803e3d6000fd5b505050506040513d601f19601f82011682018060405250810190611e539190614b92565b73ffffffffffffffffffffffffffffffffffffffff16630f5932f08630600060056040518563ffffffff1660e01b8152600401611e939493929190614faf565b602060405180830381865afa158015611eb0573d6000803e3d6000fd5b505050506040513d601f19601f82011682018060405250810190611ed4919061502b565b6120c1577f000000000000000000000000000000000000000000000000000000000000000073ffffffffffffffffffffffffffffffffffffffff16632bdfe0046040518163ffffffff1660e01b8152600401602060405180830381865afa158015611f43573d6000803e3d6000fd5b505050506040513d601f19601f82011682018060405250810190611f679190614b92565b73ffffffffffffffffffffffffffffffffffffffff1663ad007d636040518163ffffffff1660e01b8152600401602060405180830381865afa158015611fb1573d6000803e3d6000fd5b505050506040513d601f19601f82011682018060405250810190611fd59190614b92565b73ffffffffffffffffffffffffffffffffffffffff1663529cdd2e60405180606001604052808873ffffffffffffffffffffffffffffffffffffffff16815260200160008152602001600580548060200260200160405190810160405280929190818152602001828054801561206a57602002820191906000526020600020905b815481526020019060010190808311612056575b50505050508152506040518263ffffffff1660e01b815260040161208e9190614f3e565b600060405180830381600087803b1580156120a857600080fd5b505af11580156120bc573d6000803e3d6000fd5b505050505b6120d4828860a001518960600151612e31565b6120de8285612f8c565b509998505050505050505050565b60007f000000000000000000000000000000000000000000000000000000000000000073ffffffffffffffffffffffffffffffffffffffff16638b79543c6040518163ffffffff1660e01b8152600401602060405180830381865afa158015612159573d6000803e3d6000fd5b505050506040513d601f19601f8201168201806040525081019061217d9190614b92565b73ffffffffffffffffffffffffffffffffffffffff166306661abd6040518163ffffffff1660e01b8152600401602060405180830381865afa1580156121c7573d6000803e3d6000fd5b505050506040513d601f19601f820116820180604052508101906121eb9190614b79565b6121f6906001615048565b83519091506000612208826001615048565b67ffffffffffffffff811115612220576122206130ec565b60405190808252806020026020018201604052801561226d57816020015b6040805160608082018352600080835260208301529181019190915281526020019060019003908161223e5790505b50905060005b828110156122ba5785818151811061228d5761228d61475d565b60200260200101518282815181106122a7576122a761475d565b6020908102919091010152600101612273565b506040517f70d7f24900000000000000000000000000000000000000000000000000000000815260009073ffffffffffffffffffffffffffffffffffffffff7f000000000000000000000000000000000000000000000000000000000000000016906370d7f249906123329087908b906004016151d5565b6020604051808303816000875af1158015612351573d6000803e3d6000fd5b505050506040513d601f19601f820116820180604052508101906123759190614b92565b905060405180606001604052808273ffffffffffffffffffffffffffffffffffffffff16815260200160008152602001604051806020016040528060008152508152508284815181106123ca576123ca61475d565b60200260200101819052506123e68e8e8e8e8e8e8e898d6113cc565b505050509a9950505050505050505050565b600581815481106113ab57600080fd5b604080516000808252602082019092526060908190839081612454565b604080516060808201835260008083526020830152918101919091528152602001906001900390816124255790505b5060408051602081019091526000815291969195509350915050565b60006124848c8c8c8c8c8c8c8c8c8c6120ec565b9050815160001461251a576006546040517f200e8ae400000000000000000000000000000000000000000000000000000000815273ffffffffffffffffffffffffffffffffffffffff9091169063200e8ae4906124e79084908690600401615388565b600060405180830381600087803b15801561250157600080fd5b505af1158015612515573d6000803e3d6000fd5b505050505b7f000000000000000000000000000000000000000000000000000000000000000073ffffffffffffffffffffffffffffffffffffffff1663ad007d636040518163ffffffff1660e01b8152600401602060405180830381865afa158015612585573d6000803e3d6000fd5b505050506040513d601f19601f820116820180604052508101906125a99190614b92565b6040805160608101825260065473ffffffffffffffffffffffffffffffffffffffff90811682526020808301869052600780548551818402810184018752818152969093169563529cdd2e95850193909283018282801561262957602002820191906000526020600020905b815481526020019060010190808311612615575b50505050508152506040518263ffffffff1660e01b815260040161264d9190614f3e565b600060405180830381600087803b15801561266757600080fd5b505af115801561267b573d6000803e3d6000fd5b505050509b9a5050505050505050505050565b600460205281600052604060002081815481106126aa57600080fd5b600091825260209091206003909102018054600182015460028301805473ffffffffffffffffffffffffffffffffffffffff9093169550909350906126ee90615490565b80601f016020809104026020016040519081016040528092919081815260200182805461271a90615490565b80156127675780601f1061273c57610100808354040283529160200191612767565b820191906000526020600020905b81548152906001019060200180831161274a57829003601f168201915b5050505050905083565b60c08101356000908152600360205260408082205490517fd46cf1710000000000000000000000000000000000000000000000000000000081526060918291829173ffffffffffffffffffffffffffffffffffffffff169063d46cf171906127dd9088906004016155d9565b600060405180830381865afa1580156127fa573d6000803e3d6000fd5b505050506040513d6000823e601f3d9081017fffffffffffffffffffffffffffffffffffffffffffffffffffffffffffffffe0168201604052612840919081019061574d565b805160c089013560009081526004602090815260408083208054825181850281018501909352808352979b5094975092151595919450919291849084015b8282101561296f5760008481526020908190206040805160608101825260038602909201805473ffffffffffffffffffffffffffffffffffffffff168352600181015493830193909352600283018054929392918401916128de90615490565b80601f016020809104026020016040519081016040528092919081815260200182805461290a90615490565b80156129575780601f1061292c57610100808354040283529160200191612957565b820191906000526020600020905b81548152906001019060200180831161293a57829003601f168201915b5050505050815250508152602001906001019061287e565b5050505090506000815190508261298757600061298a565b60015b6129979060ff1682615048565b67ffffffffffffffff8111156129af576129af6130ec565b6040519080825280602002602001820160405280156129fc57816020015b604080516060808201835260008083526020830152918101919091528152602001906001900390816129cd5790505b50945060005b81811015612a4957828181518110612a1c57612a1c61475d565b6020026020010151868281518110612a3657612a3661475d565b6020908102919091010152600101612a02565b508215612a895783600081518110612a6357612a6361475d565b6020026020010151858281518110612a7d57612a7d61475d565b60200260200101819052505b612a976101608901896158c6565b8080601f016020809104026020016040519081016040528093929190818152602001838380828437600092019190915250999b929a50969850909650505050505050565b604080516001808252818301909252606091816020015b604080518082019091526000815260606020820152815260200190600190039081612af257905050905060007f000000000000000000000000000000000000000000000000000000000000000073ffffffffffffffffffffffffffffffffffffffff16632bdfe0046040518163ffffffff1660e01b8152600401602060405180830381865afa158015612b89573d6000803e3d6000fd5b505050506040513d601f19601f82011682018060405250810190612bad9190614b92565b6040517f69e11cc500000000000000000000000000000000000000000000000000000000815260048101869052602481018590526002604482015273ffffffffffffffffffffffffffffffffffffffff91909116906369e11cc590606401600060405180830381865afa158015612c28573d6000803e3d6000fd5b505050506040513d6000823e601f3d9081017fffffffffffffffffffffffffffffffffffffffffffffffffffffffffffffffe0168201604052612c6e919081019061592b565b90506040518060400160405280600281526020018281525082600081518110612c9957612c9961475d565b60200260200101819052505092915050565b604080516001808252818301909252606091816020015b604080518082019091526000815260606020820152815260200190600190039081612cc257505060408051600180825281830190925291925060009190602082015b6040805160e08101825260008082526020808301829052928201819052606082018190526080820181905260a0820181905260c082015282527fffffffffffffffffffffffffffffffffffffffffffffffffffffffffffffffff909201910181612d045790505090506040518060e00160405280600015158152602001600015158152602001633b9aca008152602001600081526020018473ffffffffffffffffffffffffffffffffffffffff16815260200160008152602001600073ffffffffffffffffffffffffffffffffffffffff1681525081600181518110612dec57612dec61475d565b60200260200101819052506040518060400160405280600281526020018281525082600081518110612e2057612e2061475d565b602002602001018190525050919050565b81518015612f865760005b81811015612f84578015801590612ec657508284612e5b600184614d61565b81518110612e6b57612e6b61475d565b6020026020010151602001516fffffffffffffffffffffffffffffffff16612e939190615048565b848281518110612ea557612ea561475d565b6020026020010151602001516fffffffffffffffffffffffffffffffff1611155b15612efd576040517fc5c2978500000000000000000000000000000000000000000000000000000000815260040160405180910390fd5b838181518110612f0f57612f0f61475d565b60200260200101516000808781526020019081526020016000208281548110612f3a57612f3a61475d565b6000918252602091829020835193909201516fffffffffffffffffffffffffffffffff90811670010000000000000000000000000000000002931692909217910155600101612e3c565b505b50505050565b805160005b81811015612f8657828181518110612fab57612fab61475d565b6020026020010151600460008681526020019081526020016000208281548110612fd757612fd761475d565b600091825260209182902083516003929092020180547fffffffffffffffffffffffff00000000000000000000000000000000000000001673ffffffffffffffffffffffffffffffffffffffff9092169190911781559082015160018201556040820151600282019061304a9082615a78565b505050600101612f91565b60006020828403121561306757600080fd5b81357fffffffff000000000000000000000000000000000000000000000000000000008116811461309757600080fd5b9392505050565b6000602082840312156130b057600080fd5b5035919050565b73ffffffffffffffffffffffffffffffffffffffff811681146130d957600080fd5b50565b80356130e7816130b7565b919050565b7f4e487b7100000000000000000000000000000000000000000000000000000000600052604160045260246000fd5b6040805190810167ffffffffffffffff8111828210171561313e5761313e6130ec565b60405290565b60405160e0810167ffffffffffffffff8111828210171561313e5761313e6130ec565b6040516060810167ffffffffffffffff8111828210171561313e5761313e6130ec565b6040516080810167ffffffffffffffff8111828210171561313e5761313e6130ec565b604051610160810167ffffffffffffffff8111828210171561313e5761313e6130ec565b60405160c0810167ffffffffffffffff8111828210171561313e5761313e6130ec565b604051610240810167ffffffffffffffff8111828210171561313e5761313e6130ec565b604051610120810167ffffffffffffffff8111828210171561313e5761313e6130ec565b604051601f82017fffffffffffffffffffffffffffffffffffffffffffffffffffffffffffffffe016810167ffffffffffffffff81118282101715613283576132836130ec565b604052919050565b600067ffffffffffffffff8211156132a5576132a56130ec565b50601f017fffffffffffffffffffffffffffffffffffffffffffffffffffffffffffffffe01660200190565b60006132e46132df8461328b565b61323c565b90508281528383830111156132f857600080fd5b828260208301376000602084830101529392505050565b600082601f83011261332057600080fd5b613097838335602085016132d1565b60006040828403121561334157600080fd5b61334961311b565b9050813567ffffffffffffffff81111561336257600080fd5b61336e8482850161330f565b8252506020820135602082015292915050565b600067ffffffffffffffff82111561339b5761339b6130ec565b5060051b60200190565b80356fffffffffffffffffffffffffffffffff811681146130e757600080fd5b600082601f8301126133d657600080fd5b813560206133e66132df83613381565b82815260069290921b8401810191818101908684111561340557600080fd5b8286015b8481101561345257604081890312156134225760008081fd5b61342a61311b565b613433826133a5565b81526134408583016133a5565b81860152835291830191604001613409565b509695505050505050565b803562ffffff811681146130e757600080fd5b600060e0828403121561348257600080fd5b61348a613144565b9050813581526020820135602082015260408201356040820152606082013560608201526080820135608082015260a082013567ffffffffffffffff8111156134d257600080fd5b6134de848285016133c5565b60a0830152506134f060c0830161345d565b60c082015292915050565b600082601f83011261350c57600080fd5b8135602061351c6132df83613381565b82815260059290921b8401810191818101908684111561353b57600080fd5b8286015b84811015613452578035613552816130b7565b835291830191830161353f565b600080600080600080600060e0888a03121561357a57600080fd5b613583886130dc565b9650602088013567ffffffffffffffff808211156135a057600080fd5b6135ac8b838c0161332f565b975060408a01359150808211156135c257600080fd5b6135ce8b838c0161330f565b965060608a01359150808211156135e457600080fd5b6135f08b838c0161330f565b955060808a013591508082111561360657600080fd5b6136128b838c01613470565b945060a08a013591508082111561362857600080fd5b506136358a828b016134fb565b92505061364460c089016130dc565b905092959891949750929550565b60008060008060006080868803121561366a57600080fd5b8535613675816130b7565b94506020860135613685816130b7565b935060408601359250606086013567ffffffffffffffff808211156136a957600080fd5b818801915088601f8301126136bd57600080fd5b8135818111156136cc57600080fd5b8960208285010111156136de57600080fd5b9699959850939650602001949392505050565b602080825282518282018190526000919060409081850190868401855b8281101561374957815180516fffffffffffffffffffffffffffffffff9081168652908701511686850152928401929085019060010161370e565b5091979650505050505050565b600082601f83011261376757600080fd5b813560206137776132df83613381565b82815260059290921b8401810191818101908684111561379657600080fd5b8286015b8481101561345257803567ffffffffffffffff808211156137bb5760008081fd5b81890191506060807fffffffffffffffffffffffffffffffffffffffffffffffffffffffffffffffe0848d030112156137f45760008081fd5b6137fc613167565b87840135613809816130b7565b8152604084810135898301529184013591838311156138285760008081fd5b82850194508c603f86011261383f57600093508384fd5b61384f8d8a8701358388016132d1565b90820152865250505091830191830161379a565b803560ff811681146130e757600080fd5b60008060008060008060008060006101208a8c03121561389357600080fd5b61389c8a6130dc565b985060208a013567ffffffffffffffff808211156138b957600080fd5b6138c58d838e0161332f565b995060408c01359150808211156138db57600080fd5b6138e78d838e0161330f565b985060608c01359150808211156138fd57600080fd5b6139098d838e0161330f565b975060808c013591508082111561391f57600080fd5b61392b8d838e01613470565b965060a08c013591508082111561394157600080fd5b61394d8d838e016134fb565b955061395b60c08d016130dc565b945060e08c013591508082111561397157600080fd5b5061397e8c828d01613756565b92505061398e6101008b01613863565b90509295985092959850929598565b80356cffffffffffffffffffffffffff811681146130e757600080fd5b803563ffffffff811681146130e757600080fd5b803561ffff811681146130e757600080fd5b80151581146130d957600080fd5b80356130e7816139e0565b803565ffffffffffff811681146130e757600080fd5b60006080808385031215613a2257600080fd5b613a2a61318a565b9150823567ffffffffffffffff811115613a4357600080fd5b8301601f81018513613a5457600080fd5b80356020613a646132df83613381565b8281526101609283028401820192828201919089851115613a8457600080fd5b948301945b84861015613b655780868b031215613aa15760008081fd5b613aa96131ad565b613ab28761399d565b8152613abf8588016139ba565b858201526040613ad08189016139ba565b908201526060613ae18882016139ce565b90820152613af08789016130dc565b8189015260a0878101359082015260c0613b0b81890161345d565b9082015260e0613b1c8882016139ee565b90820152610100613b2e8882016139ee565b90820152610120613b408882016139ee565b90820152610140613b528882016139ee565b9082015283529485019491830191613a89565b50865250613b748682016139f9565b8186015250505050613b88604083016139f9565b6040820152613b99606083016130dc565b606082015292915050565b600060808284031215613bb657600080fd5b613bbe61318a565b90508135613bcb816139e0565b81526020820135613bdb816139e0565b60208201526040820135613bee816139e0565b60408201526060820135613b99816139e0565b8035600281106130e757600080fd5b60006101c08284031215613c2357600080fd5b613c2b6131ad565b9050813567ffffffffffffffff80821115613c4557600080fd5b613c518583860161330f565b83526020840135915080821115613c6757600080fd5b613c738583860161330f565b6020840152613c84604085016130dc565b60408401526060840135915080821115613c9d57600080fd5b613ca98583860161330f565b6060840152613cba608085016130dc565b608084015260a0840135915080821115613cd357600080fd5b613cdf8583860161330f565b60a084015260c0840135915080821115613cf857600080fd5b50613d0584828501613a0f565b60c083015250613d1760e083016130dc565b60e0820152610100613d2a8184016130dc565b90820152610120613d3d84848301613ba4565b90820152613d4e6101a08301613c01565b61014082015292915050565b6000806000806000806000806000806101408b8d031215613d7a57600080fd5b613d838b6130dc565b995060208b013567ffffffffffffffff80821115613da057600080fd5b613dac8e838f0161332f565b9a5060408d0135915080821115613dc257600080fd5b613dce8e838f0161330f565b995060608d0135915080821115613de457600080fd5b613df08e838f0161330f565b985060808d0135915080821115613e0657600080fd5b613e128e838f01613470565b975060a08d0135915080821115613e2857600080fd5b613e348e838f016134fb565b9650613e4260c08e016130dc565b955060e08d0135915080821115613e5857600080fd5b613e648e838f01613c10565b94506101008d0135915080821115613e7b57600080fd5b50613e888d828e01613756565b925050613e986101208c01613863565b90509295989b9194979a5092959850565b600060208284031215613ebb57600080fd5b813567ffffffffffffffff811115613ed257600080fd5b82016101e0818503121561309757600080fd5b60005b83811015613f00578181015183820152602001613ee8565b50506000910152565b60008151808452613f21816020860160208601613ee5565b601f017fffffffffffffffffffffffffffffffffffffffffffffffffffffffffffffffe0169290920160200192915050565b6000606085835260208181850152613f6d82850187613f09565b6040858203818701528187518084528484019150848160051b850101858a0160005b8381101561400a578683037fffffffffffffffffffffffffffffffffffffffffffffffffffffffffffffffe00185528151805173ffffffffffffffffffffffffffffffffffffffff16845288810151898501528601518684018a9052613ff78a850182613f09565b9589019593505090870190600101613f8f565b50909c9b505050505050505050505050565b600082601f83011261402d57600080fd5b8135602061403d6132df83613381565b828152600592831b850182019282820191908785111561405c57600080fd5b8387015b8581101561419857803567ffffffffffffffff808211156140815760008081fd5b818a01915060c0807fffffffffffffffffffffffffffffffffffffffffffffffffffffffffffffffe0848e030112156140ba5760008081fd5b6140c26131d1565b888401356140cf816130b7565b808252506040808501358a830152606080860135828401526080808701358285015260a09150818701358185015250838601359350848411156141125760008081fd5b83860195508e603f87011261412957600094508485fd5b8a860135945061413b6132df86613381565b85815294881b86018201948b810194508f8611156141595760008081fd5b958201955b858710156141835786359250614173836130b7565b828552958b0195938b019361415e565b90830152508752505050928401928401614060565b5090979650505050505050565b60008060008060008060008060008060006101608c8e0312156141c757600080fd5b6141d08c6130dc565b9a5067ffffffffffffffff8060208e013511156141ec57600080fd5b6141fc8e60208f01358f0161332f565b9a508060408e0135111561420f57600080fd5b61421f8e60408f01358f0161330f565b99508060608e0135111561423257600080fd5b6142428e60608f01358f0161330f565b98508060808e0135111561425557600080fd5b6142658e60808f01358f01613470565b97508060a08e0135111561427857600080fd5b6142888e60a08f01358f016134fb565b965061429660c08e016130dc565b95508060e08e013511156142a957600080fd5b6142b98e60e08f01358f01613c10565b9450806101008e013511156142cd57600080fd5b6142de8e6101008f01358f01613756565b93506142ed6101208e01613863565b9250806101408e0135111561430157600080fd5b506143138d6101408e01358e0161401c565b90509295989b509295989b9093969950565b6000806040838503121561433857600080fd5b50508035926020909101359150565b73ffffffffffffffffffffffffffffffffffffffff8416815282602082015260606040820152600061437c6060830184613f09565b95945050505050565b60006020828403121561439757600080fd5b813567ffffffffffffffff8111156143ae57600080fd5b82016101a0818503121561309757600080fd5b60006060858352602081818501526143db82850187613f09565b6040858203818701528187518084528484019150848160051b850101858a0160005b8381101561400a578683037fffffffffffffffffffffffffffffffffffffffffffffffffffffffffffffffe00185528151805173ffffffffffffffffffffffffffffffffffffffff16845288810151898501528601518684018a90526144658a850182613f09565b95890195935050908701906001016143fd565b80516130e7816130b7565b80516130e7816139e0565b6000606082840312156144a057600080fd5b6144a8613167565b905081516144b5816139e0565b815260208201516144c5816139e0565b602082015260408201516144d8816139e0565b604082015292915050565b600061028082840312156144f657600080fd5b6144fe6131f4565b905061450a838361448e565b8152606082015160208201526080820151604082015260a0820151606082015261453660c08301614483565b608082015261454760e08301614483565b60a082015261010061455a818401614483565b60c083015261012061456d818501614483565b60e0840152610140614580818601614483565b838501526101609250614594838601614483565b8285015261018091506145a8828601614483565b908401526101a06145ba858201614483565b838501526101c092506145ce838601614483565b828501526101e091506145e2828601614483565b908401526102006145f4858201614483565b838501526102209250614608838601614483565b828501526146196102408601614478565b818501525050610260830151818301525092915050565b8051600381106130e757600080fd5b60008060008385036103c081121561465657600080fd5b6101208082121561466657600080fd5b61466e613218565b9150855182526020860151602083015260408601516040830152606086015160608301526080860151608083015260a086015160a083015260c086015160c08301526146bc60e08701614478565b60e08301526101008087015181840152508194506146dc878288016144e3565b935050506146ed6103a08501614630565b90509250925092565b7f4e487b7100000000000000000000000000000000000000000000000000000000600052601160045260246000fd5b60007fffffffffffffffffffffffffffffffffffffffffffffffffffffffffffffffff8203614756576147566146f6565b5060010190565b7f4e487b7100000000000000000000000000000000000000000000000000000000600052603260045260246000fd5b6147b18282518051151582526020808201511515908301526040908101511515910152565b6020810151606083015260408101516080830152606081015160a083015260808101516147e260c084018215159052565b5060a081015180151560e08401525060c08101516101006148068185018315159052565b60e0830151915061012061481d8186018415159052565b908301519150610140906148348583018415159052565b83015191506101606148498582018415159052565b908301519150610180906148608583018415159052565b83015191506101a06148758582018415159052565b9083015191506101c09061488c8583018415159052565b83015191506101e06148a18582018415159052565b908301519150610200906148b88583018415159052565b83015191506102206148cd8582018415159052565b9083015173ffffffffffffffffffffffffffffffffffffffff16610240850152909101516102609092019190915250565b600081518084526020808501808196508360051b810191508286016000805b868110156149dd578385038a52825180518652860151604087870181905281518188018190529188019160609081890190865b818110156149c65785518051151584528c81015115158d8501528581015186850152848101518585015260808082015173ffffffffffffffffffffffffffffffffffffffff9081169186019190915260a0808301519086015260c0918201511690840152948b019460e090920191600101614950565b50509c89019c97505050928601925060010161491d565b509298975050505050505050565b600081518084526020808501945080840160005b83811015614a68578151805173ffffffffffffffffffffffffffffffffffffffff908116895284820151168489015260408082015190890152606080820151908901526080808201519089015260a0908101519088015260c090960195908201906001016149ff565b509495945050505050565b60006103a0888352614abf602084018980518252602081015160208301526040810151604083015273ffffffffffffffffffffffffffffffffffffffff60608201511660608301525050565b614acc60a084018861478c565b6fffffffffffffffffffffffffffffffff861661032084015280610340840152614af8818401866148fe565b9050828103610360840152614b0d81856149eb565b838103610380909401939093525050603281527f5363686564756c6564206e657874206465762074617820706572696f64206f6660208201527f2052657461696c697374206e6574776f726b000000000000000000000000000060408201526060019695505050505050565b600060208284031215614b8b57600080fd5b5051919050565b600060208284031215614ba457600080fd5b8151613097816130b7565b73ffffffffffffffffffffffffffffffffffffffff831681526040602082015260008251604080840152614be66080840182613f09565b905060208401516060840152809150509392505050565b838152606060208201526000614c166060830185613f09565b8281036040840152614c288185613f09565b9695505050505050565b600181815b80851115614c8b57817fffffffffffffffffffffffffffffffffffffffffffffffffffffffffffffffff04821115614c7157614c716146f6565b80851615614c7e57918102915b93841c9390800290614c37565b509250929050565b600082614ca2575060016104ae565b81614caf575060006104ae565b8160018114614cc55760028114614ccf57614ceb565b60019150506104ae565b60ff841115614ce057614ce06146f6565b50506001821b6104ae565b5060208310610133831016604e8410600b8410161715614d0e575081810a6104ae565b614d188383614c32565b807fffffffffffffffffffffffffffffffffffffffffffffffffffffffffffffffff04821115614d4a57614d4a6146f6565b029392505050565b600061309760ff841683614c93565b818103818111156104ae576104ae6146f6565b60006103c08983526020614dc18185018b80518252602081015160208301526040810151604083015273ffffffffffffffffffffffffffffffffffffffff60608201511660608301525050565b614dce60a085018a61478c565b6fffffffffffffffffffffffffffffffff881661032085015281610340850152614dfa828501886148fe565b9150838203610360850152614e0f82876149eb565b848103610380860152855180825282870193509082019060005b81811015614e5b57845173ffffffffffffffffffffffffffffffffffffffff1683529383019391830191600101614e29565b50508481036103a0860152601a81527f4465706c6f7965642052657461696c697374206e6574776f726b0000000000006020820152604081019c9b505050505050505050505050565b7f5072656d696e7465642024000000000000000000000000000000000000000000815260008251614edc81600b850160208701613ee5565b91909101600b0192915050565b86815285602082015273ffffffffffffffffffffffffffffffffffffffff8516604082015260c060608201526000614f2460c0830186613f09565b93151560808301525090151560a090910152949350505050565b600060208083526080830173ffffffffffffffffffffffffffffffffffffffff85511682850152818501516040850152604085015160608086015281815180845260a0870191508483019350600092505b808310156134525783518252928401926001929092019190840190614f8f565b60006080820173ffffffffffffffffffffffffffffffffffffffff808816845260208188168186015286604086015260806060860152829150855480845260a0860192508660005281600020935060005b8181101561501c57845484526001948501949383019301615000565b50919998505050505050505050565b60006020828403121561503d57600080fd5b8151613097816139e0565b808201808211156104ae576104ae6146f6565b80516080808452815184820181905260009260a0916020918201918388019190865b8281101561514057845180516cffffffffffffffffffffffffff1685528281015163ffffffff908116848701526040808301519091169086015260608082015161ffff16908601528781015173ffffffffffffffffffffffffffffffffffffffff1688860152868101518786015260c08082015162ffffff169086015260e080820151151590860152610100808201511515908601526101208082015115159086015261014090810151151590850152938101936101609093019260010161507d565b508781015165ffffffffffff81168a8301529550505060408601519350615171604088018565ffffffffffff169052565b60608601519350614c28606088018573ffffffffffffffffffffffffffffffffffffffff169052565b600281106151d1577f4e487b7100000000000000000000000000000000000000000000000000000000600052602160045260246000fd5b9052565b82815260406020820152600082516101c060408401526151f9610200840182613f09565b905060208401517fffffffffffffffffffffffffffffffffffffffffffffffffffffffffffffffc0808584030160608601526152358383613f09565b925060408601519150615260608086018373ffffffffffffffffffffffffffffffffffffffff169052565b60608601519150808584030160a086015261527b8383613f09565b9250608086015191506152a660c086018373ffffffffffffffffffffffffffffffffffffffff169052565b60a08601519150808584030160e08601526152c18383613f09565b925060c086015191506101008186850301818701526152e0848461505b565b935060e08701519250610120915061530f8287018473ffffffffffffffffffffffffffffffffffffffff169052565b86015191506101406153388682018473ffffffffffffffffffffffffffffffffffffffff169052565b908601518051151561016087015260208101511515610180870152604081015115156101a08701526060015115156101c0860152850151905061537f6101e085018261519a565b50949350505050565b6000604080830185845260208281860152818651808452606093508387019150838160051b8801018389016000805b8481101561547f578a84037fffffffffffffffffffffffffffffffffffffffffffffffffffffffffffffffa00186528251805173ffffffffffffffffffffffffffffffffffffffff908116865288820151898701528a8201518b870152898201518a8701526080808301519087015260a09182015160c0928701839052805192870183905289019160e087019185915b8083101561546957845182168452938b0193928b019260019290920191615447565b50505096880196945050918601916001016153b7565b50919b9a5050505050505050505050565b600181811c908216806154a457607f821691505b6020821081036154dd577f4e487b7100000000000000000000000000000000000000000000000000000000600052602260045260246000fd5b50919050565b80356154ee816130b7565b73ffffffffffffffffffffffffffffffffffffffff1682526020818101359083015260408082013590830152606090810135910152565b60008083357fffffffffffffffffffffffffffffffffffffffffffffffffffffffffffffffe184360301811261555a57600080fd5b830160208101925035905067ffffffffffffffff81111561557a57600080fd5b80360382131561558957600080fd5b9250929050565b8183528181602085013750600060208284010152600060207fffffffffffffffffffffffffffffffffffffffffffffffffffffffffffffffe0601f840116840101905092915050565b60208152615607602082016155ed846130dc565b73ffffffffffffffffffffffffffffffffffffffff169052565b6000615615602084016130dc565b73ffffffffffffffffffffffffffffffffffffffff811660408401525061564260608301604085016154e3565b60c083013560e083015261010060e0840135818401526156638185016130dc565b90506101206156898185018373ffffffffffffffffffffffffffffffffffffffff169052565b610140915080850135828501525061016081850135818501526156ae81860186615525565b925090506101a061018081818701526156cc6101c087018585615590565b93506156da81880188615525565b935090507fffffffffffffffffffffffffffffffffffffffffffffffffffffffffffffffe08685030182870152615712848483615590565b979650505050505050565b600061572b6132df8461328b565b905082815283838301111561573f57600080fd5b613097836020830184613ee5565b60008060006060848603121561576257600080fd5b8351925060208085015167ffffffffffffffff8082111561578257600080fd5b818701915087601f83011261579657600080fd5b6157a488835185850161571d565b945060408701519150808211156157ba57600080fd5b818701915087601f8301126157ce57600080fd5b81516157dc6132df82613381565b81815260059190911b8301840190848101908a8311156157fb57600080fd5b8585015b838110156158b55780518581111561581657600080fd5b86016060818e037fffffffffffffffffffffffffffffffffffffffffffffffffffffffffffffffe001121561584a57600080fd5b615852613167565b8882015161585f816130b7565b815260408201518982015260608201518781111561587c57600080fd5b8083019250508d603f83011261589157600080fd5b6158a28e8a8401516040850161571d565b60408201528452509186019186016157ff565b508096505050505050509250925092565b60008083357fffffffffffffffffffffffffffffffffffffffffffffffffffffffffffffffe18436030181126158fb57600080fd5b83018035915067ffffffffffffffff82111561591657600080fd5b60200191503681900382131561558957600080fd5b6000602080838503121561593e57600080fd5b825167ffffffffffffffff81111561595557600080fd5b8301601f8101851361596657600080fd5b80516159746132df82613381565b81815260e0918202830184019184820191908884111561599357600080fd5b938501935b838510156111e55780858a0312156159b05760008081fd5b6159b8613144565b85516159c3816139e0565b8152858701516159d2816139e0565b8188015260408681015190820152606080870151908201526080808701516159f9816130b7565b9082015260a0868101519082015260c080870151615a16816130b7565b9082015283529384019391850191615998565b601f821115615a7357600081815260208120601f850160051c81016020861015615a505750805b601f850160051c820191505b81811015615a6f57828155600101615a5c565b5050505b505050565b815167ffffffffffffffff811115615a9257615a926130ec565b615aa681615aa08454615490565b84615a29565b602080601f831160018114615af95760008415615ac35750858301515b7fffffffffffffffffffffffffffffffffffffffffffffffffffffffffffffffff600386901b1c1916600185901b178555615a6f565b6000858152602081207fffffffffffffffffffffffffffffffffffffffffffffffffffffffffffffffe08616915b82811015615b4657888601518255948401946001909101908401615b27565b5085821015615b8257878501517fffffffffffffffffffffffffffffffffffffffffffffffffffffffffffffffff600388901b60f8161c191681555b5050505050600190811b0190555056fea26469706673582212209ab9346e56bd8776d7264a134949c188107addfc8a8392d5a11dbe472e36fefb64736f6c63430008150033",
    "linkReferences": {}
  },
  "methodIdentifiers": {
    "buybackDelegateDataSourceOf(uint256)": "ef8eadd5",
    "buybackDelegatePermissionIndexes(uint256)": "9e8c513a",
    "controller()": "f77c4791",
    "croptopPermissionIndexes(uint256)": "42921698",
    "currentDevTaxPeriodNumberOf(uint256)": "9f665eee",
    "delegateAllocationsOf(uint256,uint256)": "abc603e3",
    "delegateDeployer()": "8f3d964b",
    "deployBasicNetworkFor(address,(string,uint256),string,string,(uint256,uint256,uint256,uint256,uint256,(uint128,uint128)[],uint24),address[],address)": "0a801f47",
    "deployCroptopTiered721PayAllocatorNetworkFor(address,(string,uint256),string,string,(uint256,uint256,uint256,uint256,uint256,(uint128,uint128)[],uint24),address[],address,(string,string,address,string,address,string,((uint104,uint32,uint32,uint16,address,bytes32,uint24,bool,bool,bool,bool)[],uint48,uint48,address),address,address,(bool,bool,bool,bool),uint8),(address,uint256,bytes)[],uint8,(address,uint256,uint256,uint256,uint256,address[])[])": "a9d51359",
    "deployPayAllocatorNetworkFor(address,(string,uint256),string,string,(uint256,uint256,uint256,uint256,uint256,(uint128,uint128)[],uint24),address[],address,(address,uint256,bytes)[],uint8)": "522aa551",
    "deployTiered721PayAllocatorNetworkFor(address,(string,uint256),string,string,(uint256,uint256,uint256,uint256,uint256,(uint128,uint128)[],uint24),address[],address,(string,string,address,string,address,string,((uint104,uint32,uint32,uint16,address,bytes32,uint24,bool,bool,bool,bool)[],uint48,uint48,address),address,address,(bool,bool,bool,bool),uint8),(address,uint256,bytes)[],uint8)": "5bd26667",
    "devTaxPeriodsOf(uint256)": "263950ae",
    "directory()": "c41c2f24",
    "onERC721Received(address,address,uint256,bytes)": "150b7a02",
    "operatorPermissionIndexes(uint256)": "4d757720",
    "payParams((address,address,(address,uint256,uint256,uint256),uint256,uint256,address,uint256,uint256,string,bytes))": "d46cf171",
    "publisher()": "8c72c54e",
    "redeemParams((address,address,uint256,uint256,uint256,uint256,uint256,(address,uint256,uint256,uint256),bool,uint256,string,bytes))": "a51cfd18",
    "scheduleNextDevTaxPeriodOf(uint256)": "0310850e",
    "supportsInterface(bytes4)": "01ffc9a7"
  },
  "id": 103
}