{
  "abi": [
    {
      "inputs": [
        {
          "internalType": "contract CroptopPublisher",
          "name": "_publisher",
          "type": "address"
        },
        {
          "internalType": "contract IJBDirectory",
          "name": "_directory",
          "type": "address"
        },
        {
          "internalType": "contract IJBTiered721DelegateDeployer",
          "name": "_delegateDeployer",
          "type": "address"
        },
        {
          "internalType": "contract IJBController3_1",
          "name": "_controller",
          "type": "address"
        },
        {
          "internalType": "contract IJBGenericBuybackDelegate",
          "name": "_buybackDelegate",
          "type": "address"
        }
      ],
      "stateMutability": "nonpayable",
      "type": "constructor"
    },
    {
      "inputs": [],
      "name": "RECONFIGURATION_ALREADY_SCHEDULED",
      "type": "error"
    },
    {
      "inputs": [],
      "name": "buybackDelegate",
      "outputs": [
        {
          "internalType": "contract IJBGenericBuybackDelegate",
          "name": "",
          "type": "address"
        }
      ],
      "stateMutability": "view",
      "type": "function"
    },
    {
      "inputs": [],
      "name": "controller",
      "outputs": [
        {
          "internalType": "contract IJBController3_1",
          "name": "",
          "type": "address"
        }
      ],
      "stateMutability": "view",
      "type": "function"
    },
    {
      "inputs": [
        {
          "internalType": "uint256",
          "name": "",
          "type": "uint256"
        }
      ],
      "name": "croptopPermissionIndexes",
      "outputs": [
        {
          "internalType": "uint256",
          "name": "",
          "type": "uint256"
        }
      ],
      "stateMutability": "view",
      "type": "function"
    },
    {
      "inputs": [
        {
          "internalType": "uint256",
          "name": "",
          "type": "uint256"
        },
        {
          "internalType": "uint256",
          "name": "",
          "type": "uint256"
        }
      ],
      "name": "delegateAllocationsOf",
      "outputs": [
        {
          "internalType": "contract IJBPayDelegate3_1_1",
          "name": "delegate",
          "type": "address"
        },
        {
          "internalType": "uint256",
          "name": "amount",
          "type": "uint256"
        },
        {
          "internalType": "bytes",
          "name": "metadata",
          "type": "bytes"
        }
      ],
      "stateMutability": "view",
      "type": "function"
    },
    {
      "inputs": [],
      "name": "delegateDeployer",
      "outputs": [
        {
          "internalType": "contract IJBTiered721DelegateDeployer",
          "name": "",
          "type": "address"
        }
      ],
      "stateMutability": "view",
      "type": "function"
    },
    {
      "inputs": [
        {
          "internalType": "address",
          "name": "_operator",
          "type": "address"
        },
        {
          "components": [
            {
              "internalType": "string",
              "name": "content",
              "type": "string"
            },
            {
              "internalType": "uint256",
              "name": "domain",
              "type": "uint256"
            }
          ],
          "internalType": "struct JBProjectMetadata",
          "name": "_projectMetadata",
          "type": "tuple"
        },
        {
          "internalType": "string",
          "name": "_name",
          "type": "string"
        },
        {
          "internalType": "string",
          "name": "_symbol",
          "type": "string"
        },
        {
          "components": [
            {
              "internalType": "uint256",
              "name": "initialIssuanceRate",
              "type": "uint256"
            },
            {
              "internalType": "uint256",
              "name": "premintTokenAmount",
              "type": "uint256"
            },
            {
              "internalType": "uint256",
              "name": "discountRate",
              "type": "uint256"
            },
            {
              "internalType": "uint256",
              "name": "cycleDurations",
              "type": "uint256"
            },
            {
              "internalType": "uint256",
              "name": "redemptionRate",
              "type": "uint256"
            },
            {
              "internalType": "uint256",
              "name": "reservedRate",
              "type": "uint256"
            },
            {
              "internalType": "uint48",
              "name": "reservedRateDuration",
              "type": "uint48"
            },
            {
              "internalType": "uint24",
              "name": "poolFee",
              "type": "uint24"
            }
          ],
          "internalType": "struct BasicRetailistJBParams",
          "name": "_data",
          "type": "tuple"
        },
        {
          "internalType": "contract IJBPaymentTerminal[]",
          "name": "_terminals",
          "type": "address[]"
        }
      ],
      "name": "deployBasicProjectFor",
      "outputs": [
        {
          "internalType": "uint256",
          "name": "projectId",
          "type": "uint256"
        }
      ],
      "stateMutability": "nonpayable",
      "type": "function"
    },
    {
      "inputs": [
        {
          "internalType": "address",
          "name": "_operator",
          "type": "address"
        },
        {
          "components": [
            {
              "internalType": "string",
              "name": "content",
              "type": "string"
            },
            {
              "internalType": "uint256",
              "name": "domain",
              "type": "uint256"
            }
          ],
          "internalType": "struct JBProjectMetadata",
          "name": "_projectMetadata",
          "type": "tuple"
        },
        {
          "internalType": "string",
          "name": "_name",
          "type": "string"
        },
        {
          "internalType": "string",
          "name": "_symbol",
          "type": "string"
        },
        {
          "components": [
            {
              "internalType": "uint256",
              "name": "initialIssuanceRate",
              "type": "uint256"
            },
            {
              "internalType": "uint256",
              "name": "premintTokenAmount",
              "type": "uint256"
            },
            {
              "internalType": "uint256",
              "name": "discountRate",
              "type": "uint256"
            },
            {
              "internalType": "uint256",
              "name": "cycleDurations",
              "type": "uint256"
            },
            {
              "internalType": "uint256",
              "name": "redemptionRate",
              "type": "uint256"
            },
            {
              "internalType": "uint256",
              "name": "reservedRate",
              "type": "uint256"
            },
            {
              "internalType": "uint48",
              "name": "reservedRateDuration",
              "type": "uint48"
            },
            {
              "internalType": "uint24",
              "name": "poolFee",
              "type": "uint24"
            }
          ],
          "internalType": "struct BasicRetailistJBParams",
          "name": "_data",
          "type": "tuple"
        },
        {
          "internalType": "contract IJBPaymentTerminal[]",
          "name": "_terminals",
          "type": "address[]"
        },
        {
          "components": [
            {
              "internalType": "string",
              "name": "name",
              "type": "string"
            },
            {
              "internalType": "string",
              "name": "symbol",
              "type": "string"
            },
            {
              "internalType": "contract IJBFundingCycleStore",
              "name": "fundingCycleStore",
              "type": "address"
            },
            {
              "internalType": "string",
              "name": "baseUri",
              "type": "string"
            },
            {
              "internalType": "contract IJB721TokenUriResolver",
              "name": "tokenUriResolver",
              "type": "address"
            },
            {
              "internalType": "string",
              "name": "contractUri",
              "type": "string"
            },
            {
              "components": [
                {
                  "components": [
                    {
                      "internalType": "uint104",
                      "name": "price",
                      "type": "uint104"
                    },
                    {
                      "internalType": "uint32",
                      "name": "initialQuantity",
                      "type": "uint32"
                    },
                    {
                      "internalType": "uint32",
                      "name": "votingUnits",
                      "type": "uint32"
                    },
                    {
                      "internalType": "uint16",
                      "name": "reservedRate",
                      "type": "uint16"
                    },
                    {
                      "internalType": "address",
                      "name": "reservedTokenBeneficiary",
                      "type": "address"
                    },
                    {
                      "internalType": "bytes32",
                      "name": "encodedIPFSUri",
                      "type": "bytes32"
                    },
                    {
                      "internalType": "uint24",
                      "name": "category",
                      "type": "uint24"
                    },
                    {
                      "internalType": "bool",
                      "name": "allowManualMint",
                      "type": "bool"
                    },
                    {
                      "internalType": "bool",
                      "name": "shouldUseReservedTokenBeneficiaryAsDefault",
                      "type": "bool"
                    },
                    {
                      "internalType": "bool",
                      "name": "transfersPausable",
                      "type": "bool"
                    },
                    {
                      "internalType": "bool",
                      "name": "useVotingUnits",
                      "type": "bool"
                    }
                  ],
                  "internalType": "struct JB721TierParams[]",
                  "name": "tiers",
                  "type": "tuple[]"
                },
                {
                  "internalType": "uint48",
                  "name": "currency",
                  "type": "uint48"
                },
                {
                  "internalType": "uint48",
                  "name": "decimals",
                  "type": "uint48"
                },
                {
                  "internalType": "contract IJBPrices",
                  "name": "prices",
                  "type": "address"
                }
              ],
              "internalType": "struct JB721PricingParams",
              "name": "pricing",
              "type": "tuple"
            },
            {
              "internalType": "address",
              "name": "reservedTokenBeneficiary",
              "type": "address"
            },
            {
              "internalType": "contract IJBTiered721DelegateStore",
              "name": "store",
              "type": "address"
            },
            {
              "components": [
                {
                  "internalType": "bool",
                  "name": "lockReservedTokenChanges",
                  "type": "bool"
                },
                {
                  "internalType": "bool",
                  "name": "lockVotingUnitChanges",
                  "type": "bool"
                },
                {
                  "internalType": "bool",
                  "name": "lockManualMintingChanges",
                  "type": "bool"
                },
                {
                  "internalType": "bool",
                  "name": "preventOverspending",
                  "type": "bool"
                }
              ],
              "internalType": "struct JBTiered721Flags",
              "name": "flags",
              "type": "tuple"
            },
            {
              "internalType": "enum JB721GovernanceType",
              "name": "governanceType",
              "type": "uint8"
            }
          ],
          "internalType": "struct JBDeployTiered721DelegateData",
          "name": "_deployTiered721DelegateData",
          "type": "tuple"
        },
        {
          "components": [
            {
              "internalType": "contract IJBPayDelegate3_1_1",
              "name": "delegate",
              "type": "address"
            },
            {
              "internalType": "uint256",
              "name": "amount",
              "type": "uint256"
            },
            {
              "internalType": "bytes",
              "name": "metadata",
              "type": "bytes"
            }
          ],
          "internalType": "struct JBPayDelegateAllocation3_1_1[]",
          "name": "_otherDelegateAllocations",
          "type": "tuple[]"
        },
        {
          "internalType": "uint8",
          "name": "_extraFundingCycleMetadata",
          "type": "uint8"
        },
        {
          "components": [
            {
              "internalType": "address",
              "name": "nft",
              "type": "address"
            },
            {
              "internalType": "uint256",
              "name": "category",
              "type": "uint256"
            },
            {
              "internalType": "uint256",
              "name": "minimumPrice",
              "type": "uint256"
            },
            {
              "internalType": "uint256",
              "name": "minimumTotalSupply",
              "type": "uint256"
            },
            {
              "internalType": "uint256",
              "name": "maximumTotalSupply",
              "type": "uint256"
            },
            {
              "internalType": "address[]",
              "name": "allowedAddresses",
              "type": "address[]"
            }
          ],
          "internalType": "struct AllowedPost[]",
          "name": "_allowedPosts",
          "type": "tuple[]"
        }
      ],
      "name": "deployCroptopTiered721PayAllocatorProjectFor",
      "outputs": [
        {
          "internalType": "uint256",
          "name": "projectId",
          "type": "uint256"
        }
      ],
      "stateMutability": "nonpayable",
      "type": "function"
    },
    {
      "inputs": [
        {
          "internalType": "address",
          "name": "_operator",
          "type": "address"
        },
        {
          "components": [
            {
              "internalType": "string",
              "name": "content",
              "type": "string"
            },
            {
              "internalType": "uint256",
              "name": "domain",
              "type": "uint256"
            }
          ],
          "internalType": "struct JBProjectMetadata",
          "name": "_projectMetadata",
          "type": "tuple"
        },
        {
          "internalType": "string",
          "name": "_name",
          "type": "string"
        },
        {
          "internalType": "string",
          "name": "_symbol",
          "type": "string"
        },
        {
          "components": [
            {
              "internalType": "uint256",
              "name": "initialIssuanceRate",
              "type": "uint256"
            },
            {
              "internalType": "uint256",
              "name": "premintTokenAmount",
              "type": "uint256"
            },
            {
              "internalType": "uint256",
              "name": "discountRate",
              "type": "uint256"
            },
            {
              "internalType": "uint256",
              "name": "cycleDurations",
              "type": "uint256"
            },
            {
              "internalType": "uint256",
              "name": "redemptionRate",
              "type": "uint256"
            },
            {
              "internalType": "uint256",
              "name": "reservedRate",
              "type": "uint256"
            },
            {
              "internalType": "uint48",
              "name": "reservedRateDuration",
              "type": "uint48"
            },
            {
              "internalType": "uint24",
              "name": "poolFee",
              "type": "uint24"
            }
          ],
          "internalType": "struct BasicRetailistJBParams",
          "name": "_data",
          "type": "tuple"
        },
        {
          "internalType": "contract IJBPaymentTerminal[]",
          "name": "_terminals",
          "type": "address[]"
        },
        {
          "components": [
            {
              "internalType": "contract IJBPayDelegate3_1_1",
              "name": "delegate",
              "type": "address"
            },
            {
              "internalType": "uint256",
              "name": "amount",
              "type": "uint256"
            },
            {
              "internalType": "bytes",
              "name": "metadata",
              "type": "bytes"
            }
          ],
          "internalType": "struct JBPayDelegateAllocation3_1_1[]",
          "name": "_delegateAllocations",
          "type": "tuple[]"
        },
        {
          "internalType": "uint8",
          "name": "_extraFundingCycleMetadata",
          "type": "uint8"
        }
      ],
      "name": "deployPayAllocatorProjectFor",
      "outputs": [
        {
          "internalType": "uint256",
          "name": "projectId",
          "type": "uint256"
        }
      ],
      "stateMutability": "nonpayable",
      "type": "function"
    },
    {
      "inputs": [
        {
          "internalType": "address",
          "name": "_operator",
          "type": "address"
        },
        {
          "components": [
            {
              "internalType": "string",
              "name": "content",
              "type": "string"
            },
            {
              "internalType": "uint256",
              "name": "domain",
              "type": "uint256"
            }
          ],
          "internalType": "struct JBProjectMetadata",
          "name": "_projectMetadata",
          "type": "tuple"
        },
        {
          "internalType": "string",
          "name": "_name",
          "type": "string"
        },
        {
          "internalType": "string",
          "name": "_symbol",
          "type": "string"
        },
        {
          "components": [
            {
              "internalType": "uint256",
              "name": "initialIssuanceRate",
              "type": "uint256"
            },
            {
              "internalType": "uint256",
              "name": "premintTokenAmount",
              "type": "uint256"
            },
            {
              "internalType": "uint256",
              "name": "discountRate",
              "type": "uint256"
            },
            {
              "internalType": "uint256",
              "name": "cycleDurations",
              "type": "uint256"
            },
            {
              "internalType": "uint256",
              "name": "redemptionRate",
              "type": "uint256"
            },
            {
              "internalType": "uint256",
              "name": "reservedRate",
              "type": "uint256"
            },
            {
              "internalType": "uint48",
              "name": "reservedRateDuration",
              "type": "uint48"
            },
            {
              "internalType": "uint24",
              "name": "poolFee",
              "type": "uint24"
            }
          ],
          "internalType": "struct BasicRetailistJBParams",
          "name": "_data",
          "type": "tuple"
        },
        {
          "internalType": "contract IJBPaymentTerminal[]",
          "name": "_terminals",
          "type": "address[]"
        },
        {
          "components": [
            {
              "internalType": "string",
              "name": "name",
              "type": "string"
            },
            {
              "internalType": "string",
              "name": "symbol",
              "type": "string"
            },
            {
              "internalType": "contract IJBFundingCycleStore",
              "name": "fundingCycleStore",
              "type": "address"
            },
            {
              "internalType": "string",
              "name": "baseUri",
              "type": "string"
            },
            {
              "internalType": "contract IJB721TokenUriResolver",
              "name": "tokenUriResolver",
              "type": "address"
            },
            {
              "internalType": "string",
              "name": "contractUri",
              "type": "string"
            },
            {
              "components": [
                {
                  "components": [
                    {
                      "internalType": "uint104",
                      "name": "price",
                      "type": "uint104"
                    },
                    {
                      "internalType": "uint32",
                      "name": "initialQuantity",
                      "type": "uint32"
                    },
                    {
                      "internalType": "uint32",
                      "name": "votingUnits",
                      "type": "uint32"
                    },
                    {
                      "internalType": "uint16",
                      "name": "reservedRate",
                      "type": "uint16"
                    },
                    {
                      "internalType": "address",
                      "name": "reservedTokenBeneficiary",
                      "type": "address"
                    },
                    {
                      "internalType": "bytes32",
                      "name": "encodedIPFSUri",
                      "type": "bytes32"
                    },
                    {
                      "internalType": "uint24",
                      "name": "category",
                      "type": "uint24"
                    },
                    {
                      "internalType": "bool",
                      "name": "allowManualMint",
                      "type": "bool"
                    },
                    {
                      "internalType": "bool",
                      "name": "shouldUseReservedTokenBeneficiaryAsDefault",
                      "type": "bool"
                    },
                    {
                      "internalType": "bool",
                      "name": "transfersPausable",
                      "type": "bool"
                    },
                    {
                      "internalType": "bool",
                      "name": "useVotingUnits",
                      "type": "bool"
                    }
                  ],
                  "internalType": "struct JB721TierParams[]",
                  "name": "tiers",
                  "type": "tuple[]"
                },
                {
                  "internalType": "uint48",
                  "name": "currency",
                  "type": "uint48"
                },
                {
                  "internalType": "uint48",
                  "name": "decimals",
                  "type": "uint48"
                },
                {
                  "internalType": "contract IJBPrices",
                  "name": "prices",
                  "type": "address"
                }
              ],
              "internalType": "struct JB721PricingParams",
              "name": "pricing",
              "type": "tuple"
            },
            {
              "internalType": "address",
              "name": "reservedTokenBeneficiary",
              "type": "address"
            },
            {
              "internalType": "contract IJBTiered721DelegateStore",
              "name": "store",
              "type": "address"
            },
            {
              "components": [
                {
                  "internalType": "bool",
                  "name": "lockReservedTokenChanges",
                  "type": "bool"
                },
                {
                  "internalType": "bool",
                  "name": "lockVotingUnitChanges",
                  "type": "bool"
                },
                {
                  "internalType": "bool",
                  "name": "lockManualMintingChanges",
                  "type": "bool"
                },
                {
                  "internalType": "bool",
                  "name": "preventOverspending",
                  "type": "bool"
                }
              ],
              "internalType": "struct JBTiered721Flags",
              "name": "flags",
              "type": "tuple"
            },
            {
              "internalType": "enum JB721GovernanceType",
              "name": "governanceType",
              "type": "uint8"
            }
          ],
          "internalType": "struct JBDeployTiered721DelegateData",
          "name": "_deployTiered721DelegateData",
          "type": "tuple"
        },
        {
          "components": [
            {
              "internalType": "contract IJBPayDelegate3_1_1",
              "name": "delegate",
              "type": "address"
            },
            {
              "internalType": "uint256",
              "name": "amount",
              "type": "uint256"
            },
            {
              "internalType": "bytes",
              "name": "metadata",
              "type": "bytes"
            }
          ],
          "internalType": "struct JBPayDelegateAllocation3_1_1[]",
          "name": "_otherDelegateAllocations",
          "type": "tuple[]"
        },
        {
          "internalType": "uint8",
          "name": "_extraFundingCycleMetadata",
          "type": "uint8"
        }
      ],
      "name": "deployTiered721PayAllocatorProjectFor",
      "outputs": [
        {
          "internalType": "uint256",
          "name": "projectId",
          "type": "uint256"
        }
      ],
      "stateMutability": "nonpayable",
      "type": "function"
    },
    {
      "inputs": [],
      "name": "directory",
      "outputs": [
        {
          "internalType": "contract IJBDirectory",
          "name": "",
          "type": "address"
        }
      ],
      "stateMutability": "view",
      "type": "function"
    },
    {
      "inputs": [
        {
          "internalType": "address",
          "name": "_operator",
          "type": "address"
        },
        {
          "internalType": "address",
          "name": "_from",
          "type": "address"
        },
        {
          "internalType": "uint256",
          "name": "_tokenId",
          "type": "uint256"
        },
        {
          "internalType": "bytes",
          "name": "_data",
          "type": "bytes"
        }
      ],
      "name": "onERC721Received",
      "outputs": [
        {
          "internalType": "bytes4",
          "name": "",
          "type": "bytes4"
        }
      ],
      "stateMutability": "view",
      "type": "function"
    },
    {
      "inputs": [
        {
          "components": [
            {
              "internalType": "contract IJBPaymentTerminal",
              "name": "terminal",
              "type": "address"
            },
            {
              "internalType": "address",
              "name": "payer",
              "type": "address"
            },
            {
              "components": [
                {
                  "internalType": "address",
                  "name": "token",
                  "type": "address"
                },
                {
                  "internalType": "uint256",
                  "name": "value",
                  "type": "uint256"
                },
                {
                  "internalType": "uint256",
                  "name": "decimals",
                  "type": "uint256"
                },
                {
                  "internalType": "uint256",
                  "name": "currency",
                  "type": "uint256"
                }
              ],
              "internalType": "struct JBTokenAmount",
              "name": "amount",
              "type": "tuple"
            },
            {
              "internalType": "uint256",
              "name": "projectId",
              "type": "uint256"
            },
            {
              "internalType": "uint256",
              "name": "currentFundingCycleConfiguration",
              "type": "uint256"
            },
            {
              "internalType": "address",
              "name": "beneficiary",
              "type": "address"
            },
            {
              "internalType": "uint256",
              "name": "weight",
              "type": "uint256"
            },
            {
              "internalType": "uint256",
              "name": "reservedRate",
              "type": "uint256"
            },
            {
              "internalType": "string",
              "name": "memo",
              "type": "string"
            },
            {
              "internalType": "bytes",
              "name": "metadata",
              "type": "bytes"
            }
          ],
          "internalType": "struct JBPayParamsData",
          "name": "_data",
          "type": "tuple"
        }
      ],
      "name": "payParams",
      "outputs": [
        {
          "internalType": "uint256",
          "name": "weight",
          "type": "uint256"
        },
        {
          "internalType": "string",
          "name": "memo",
          "type": "string"
        },
        {
          "components": [
            {
              "internalType": "contract IJBPayDelegate3_1_1",
              "name": "delegate",
              "type": "address"
            },
            {
              "internalType": "uint256",
              "name": "amount",
              "type": "uint256"
            },
            {
              "internalType": "bytes",
              "name": "metadata",
              "type": "bytes"
            }
          ],
          "internalType": "struct JBPayDelegateAllocation3_1_1[]",
          "name": "delegateAllocations",
          "type": "tuple[]"
        }
      ],
      "stateMutability": "view",
      "type": "function"
    },
    {
      "inputs": [
        {
          "internalType": "uint256",
          "name": "",
          "type": "uint256"
        }
      ],
      "name": "permissionIndexes",
      "outputs": [
        {
          "internalType": "uint256",
          "name": "",
          "type": "uint256"
        }
      ],
      "stateMutability": "view",
      "type": "function"
    },
    {
      "inputs": [],
      "name": "publisher",
      "outputs": [
        {
          "internalType": "contract CroptopPublisher",
          "name": "",
          "type": "address"
        }
      ],
      "stateMutability": "view",
      "type": "function"
    },
    {
      "inputs": [
        {
          "internalType": "uint256",
          "name": "projectId",
          "type": "uint256"
        }
      ],
      "name": "reconfigurationStartTimestampOf",
      "outputs": [
        {
          "internalType": "uint256",
          "name": "",
          "type": "uint256"
        }
      ],
      "stateMutability": "view",
      "type": "function"
    },
    {
      "inputs": [
        {
          "components": [
            {
              "internalType": "contract IJBPaymentTerminal",
              "name": "terminal",
              "type": "address"
            },
            {
              "internalType": "address",
              "name": "holder",
              "type": "address"
            },
            {
              "internalType": "uint256",
              "name": "projectId",
              "type": "uint256"
            },
            {
              "internalType": "uint256",
              "name": "currentFundingCycleConfiguration",
              "type": "uint256"
            },
            {
              "internalType": "uint256",
              "name": "tokenCount",
              "type": "uint256"
            },
            {
              "internalType": "uint256",
              "name": "totalSupply",
              "type": "uint256"
            },
            {
              "internalType": "uint256",
              "name": "overflow",
              "type": "uint256"
            },
            {
              "components": [
                {
                  "internalType": "address",
                  "name": "token",
                  "type": "address"
                },
                {
                  "internalType": "uint256",
                  "name": "value",
                  "type": "uint256"
                },
                {
                  "internalType": "uint256",
                  "name": "decimals",
                  "type": "uint256"
                },
                {
                  "internalType": "uint256",
                  "name": "currency",
                  "type": "uint256"
                }
              ],
              "internalType": "struct JBTokenAmount",
              "name": "reclaimAmount",
              "type": "tuple"
            },
            {
              "internalType": "bool",
              "name": "useTotalOverflow",
              "type": "bool"
            },
            {
              "internalType": "uint256",
              "name": "redemptionRate",
              "type": "uint256"
            },
            {
              "internalType": "string",
              "name": "memo",
              "type": "string"
            },
            {
              "internalType": "bytes",
              "name": "metadata",
              "type": "bytes"
            }
          ],
          "internalType": "struct JBRedeemParamsData",
          "name": "_data",
          "type": "tuple"
        }
      ],
      "name": "redeemParams",
      "outputs": [
        {
          "internalType": "uint256",
          "name": "",
          "type": "uint256"
        },
        {
          "internalType": "string",
          "name": "",
          "type": "string"
        },
        {
          "components": [
            {
              "internalType": "contract IJBRedemptionDelegate3_1_1",
              "name": "delegate",
              "type": "address"
            },
            {
              "internalType": "uint256",
              "name": "amount",
              "type": "uint256"
            },
            {
              "internalType": "bytes",
              "name": "metadata",
              "type": "bytes"
            }
          ],
          "internalType": "struct JBRedemptionDelegateAllocation3_1_1[]",
          "name": "",
          "type": "tuple[]"
        }
      ],
      "stateMutability": "view",
      "type": "function"
    },
    {
      "inputs": [
        {
          "internalType": "uint256",
          "name": "_projectId",
          "type": "uint256"
        }
      ],
      "name": "scheduleReconfigurationOf",
      "outputs": [],
      "stateMutability": "nonpayable",
      "type": "function"
    },
    {
      "inputs": [
        {
          "internalType": "bytes4",
          "name": "_interfaceId",
          "type": "bytes4"
        }
      ],
      "name": "supportsInterface",
      "outputs": [
        {
          "internalType": "bool",
          "name": "",
          "type": "bool"
        }
      ],
      "stateMutability": "view",
      "type": "function"
    }
  ],
  "bytecode": {
    "object": "0x6101006040523480156200001257600080fd5b506040516200531038038062005310833981016040819052620000359162000100565b6001600160a01b03918216608052811660a052600080546001808201835560127f290decd9548b62a8d60345a988386fc84ba6bc95484008f6362f93160ef3e5639283015582548082018455601892019190915593821660c05291811660e052600380546001600160a01b031916949091169390931790925560048054918201815590915260157f8a35acfbc15ff81a39ae7d344fd709f28e8600b4aa8c65c6b64bfe7fe36bd19b9091015562000180565b6001600160a01b0381168114620000fd57600080fd5b50565b600080600080600060a086880312156200011957600080fd5b85516200012681620000e7565b60208701519095506200013981620000e7565b60408701519094506200014c81620000e7565b60608701519093506200015f81620000e7565b60808701519092506200017281620000e7565b809150509295509295909350565b60805160a05160c05160e0516150ae620002626000396000818161026d015261115d0152600081816102fe0152818161105101526117700152600081816103250152818161090c01528181610945015281816109d401528181610c2c01528181611a37015281816121270152818161216001526121ef01526000818161038101528181610440015281816106d6015281816107e401528181610b0501528181610d6701528181610e290152818161138a0152818161153d01528181611ef101528181611fff0152818161232001528181612560015261262201526150ae6000f3fe608060405234801561001057600080fd5b50600436106101365760003560e01c80639483e771116100b2578063c41c2f2411610081578063d46cf17111610066578063d46cf17114610347578063f108924114610369578063f77c47911461037c57600080fd5b8063c41c2f24146102f9578063d39675251461032057600080fd5b80639483e7711461028f5780639a659941146102a2578063a51cfd18146102b5578063abc603e3146102d757600080fd5b80633ce6d3e211610109578063560f7b03116100ee578063560f7b03146102035780638c72c54e146102235780638f3d964b1461026857600080fd5b80633ce6d3e2146101db57806342921698146101f057600080fd5b806301ffc9a71461013b578063150b7a0214610163578063179d2ada146101a757806331ff35fd146101c8575b600080fd5b61014e610149366004612915565b6103a3565b60405190151581526020015b60405180910390f35b6101766101713660046129dc565b61043c565b6040517fffffffff00000000000000000000000000000000000000000000000000000000909116815260200161015a565b6101ba6101b5366004612c6b565b610550565b60405190815260200161015a565b6101ba6101d63660046132d7565b61104d565b6101ee6101e936600461341a565b611341565b005b6101ba6101fe36600461341a565b611692565b6101ba61021136600461341a565b60016020526000908152604090205481565b6003546102439073ffffffffffffffffffffffffffffffffffffffff1681565b60405173ffffffffffffffffffffffffffffffffffffffff909116815260200161015a565b6102437f000000000000000000000000000000000000000000000000000000000000000081565b6101ba61029d36600461341a565b6116b3565b6101ba6102b03660046135bc565b6116c3565b6102c86102c3366004613753565b6118e3565b60405161015a939291906137fd565b6102ea6102e53660046138c6565b61194b565b60405161015a939291906138e8565b6102437f000000000000000000000000000000000000000000000000000000000000000081565b6102437f000000000000000000000000000000000000000000000000000000000000000081565b61035a610355366004613926565b611a2e565b60405161015a93929190613962565b6101ba610377366004613a19565b611d6b565b6102437f000000000000000000000000000000000000000000000000000000000000000081565b60007fffffffff0000000000000000000000000000000000000000000000000000000082167f71700c6900000000000000000000000000000000000000000000000000000000148061043657507f150b7a02000000000000000000000000000000000000000000000000000000007fffffffff000000000000000000000000000000000000000000000000000000008316145b92915050565b60007f000000000000000000000000000000000000000000000000000000000000000073ffffffffffffffffffffffffffffffffffffffff16638b79543c6040518163ffffffff1660e01b8152600401602060405180830381865afa1580156104a9573d6000803e3d6000fd5b505050506040513d601f19601f820116820180604052508101906104cd9190613b2f565b73ffffffffffffffffffffffffffffffffffffffff163373ffffffffffffffffffffffffffffffffffffffff161461050457600080fd5b73ffffffffffffffffffffffffffffffffffffffff85161561052557600080fd5b507f150b7a020000000000000000000000000000000000000000000000000000000095945050505050565b604080516001808252818301909252600091829190816020015b60408051808201909152600081526060602082015281526020019060019003908161056a57505060408051600180825281830190925291925060009190602082015b6040805160e08101825260008082526020808301829052928201819052606082018190526080820181905260a0820181905260c082015282527fffffffffffffffffffffffffffffffffffffffffffffffffffffffffffffffff9092019101816105ac5790505090506040518060e00160405280600015158152602001600015158152602001633b9aca008152602001600081526020018c73ffffffffffffffffffffffffffffffffffffffff16815260200160008152602001600073ffffffffffffffffffffffffffffffffffffffff168152508160018151811061069457610694613b4c565b602002602001018190525060405180604001604052806002815260200182815250826000815181106106c8576106c8613b4c565b6020026020010181905250507f000000000000000000000000000000000000000000000000000000000000000073ffffffffffffffffffffffffffffffffffffffff16638b79543c6040518163ffffffff1660e01b8152600401602060405180830381865afa15801561073f573d6000803e3d6000fd5b505050506040513d601f19601f820116820180604052508101906107639190613b2f565b73ffffffffffffffffffffffffffffffffffffffff1663666d87a0308b6040518363ffffffff1660e01b815260040161079d929190613c28565b6020604051808303816000875af11580156107bc573d6000803e3d6000fd5b505050506040513d601f19601f820116820180604052508101906107e09190613c80565b91507f000000000000000000000000000000000000000000000000000000000000000073ffffffffffffffffffffffffffffffffffffffff1663619306306040518163ffffffff1660e01b8152600401602060405180830381865afa15801561084d573d6000803e3d6000fd5b505050506040513d601f19601f820116820180604052508101906108719190613b2f565b73ffffffffffffffffffffffffffffffffffffffff1663a7f2a70b838a8a8a8a6040518663ffffffff1660e01b81526004016108b1959493929190613c99565b6020604051808303816000875af11580156108d0573d6000803e3d6000fd5b505050506040513d601f19601f820116820180604052508101906108f49190613b2f565b5073ffffffffffffffffffffffffffffffffffffffff7f000000000000000000000000000000000000000000000000000000000000000016637b621d3a83610943610100880160e08901613cd2565b7f000000000000000000000000000000000000000000000000000000000000000073ffffffffffffffffffffffffffffffffffffffff166360b3042c6040518163ffffffff1660e01b8152600401602060405180830381865afa1580156109ae573d6000803e3d6000fd5b505050506040513d601f19601f820116820180604052508101906109d29190613c80565b7f000000000000000000000000000000000000000000000000000000000000000073ffffffffffffffffffffffffffffffffffffffff1663737a79966040518163ffffffff1660e01b8152600401602060405180830381865afa158015610a3d573d6000803e3d6000fd5b505050506040513d601f19601f82011682018060405250810190610a619190613c80565b6040517fffffffff0000000000000000000000000000000000000000000000000000000060e087901b168152600481019490945262ffffff909216602484015263ffffffff908116604484015216606482015261eeee608482015260a4016020604051808303816000875af1158015610ade573d6000803e3d6000fd5b505050506040513d601f19601f82011682018060405250810190610b029190613b2f565b507f000000000000000000000000000000000000000000000000000000000000000073ffffffffffffffffffffffffffffffffffffffff1663111d861b8360405180608001604052808860600135815260200160128960000135610b669190613e3c565b8152604089810135602080840191909152600092820183905281516102a081018352610240810184815261026082018590526102808201859052815260a0808d0135828401526080808e013583860152606083018690528201859052810184905260c0810184905260e081018490526001610100820181905261012082018590526101408201859052610160820185905261018082018590526101a082018590526101c08201526101e0810184905273ffffffffffffffffffffffffffffffffffffffff7f00000000000000000000000000000000000000000000000000000000000000001661020082015261022081018490528251848152918201909252909190879082610ce8565b610cd56040518060c00160405280600073ffffffffffffffffffffffffffffffffffffffff168152602001600073ffffffffffffffffffffffffffffffffffffffff168152602001600081526020016000815260200160008152602001600081525090565b815260200190600190039081610c705790505b508a6040518863ffffffff1660e01b8152600401610d0c9796959493929190614132565b6020604051808303816000875af1158015610d2b573d6000803e3d6000fd5b505050506040513d601f19601f82011682018060405250810190610d4f9190613c80565b5073ffffffffffffffffffffffffffffffffffffffff7f000000000000000000000000000000000000000000000000000000000000000016638ae9c07b83610d9c60126020890135613e3c565b8d8a8a604051602001610db0929190614250565b6040516020818303038152906040526000806040518763ffffffff1660e01b8152600401610de396959493929190614289565b6020604051808303816000875af1158015610e02573d6000803e3d6000fd5b505050506040513d601f19601f82011682018060405250810190610e269190613c80565b507f000000000000000000000000000000000000000000000000000000000000000073ffffffffffffffffffffffffffffffffffffffff16632bdfe0046040518163ffffffff1660e01b8152600401602060405180830381865afa158015610e92573d6000803e3d6000fd5b505050506040513d601f19601f82011682018060405250810190610eb69190613b2f565b73ffffffffffffffffffffffffffffffffffffffff1663ad007d636040518163ffffffff1660e01b8152600401602060405180830381865afa158015610f00573d6000803e3d6000fd5b505050506040513d601f19601f82011682018060405250810190610f249190613b2f565b73ffffffffffffffffffffffffffffffffffffffff1663529cdd2e60405180606001604052808d73ffffffffffffffffffffffffffffffffffffffff1681526020018581526020016000805480602002602001604051908101604052809291908181526020018280548015610fb857602002820191906000526020600020905b815481526020019060010190808311610fa4575b50505050508152506040518263ffffffff1660e01b8152600401610fdc91906142de565b600060405180830381600087803b158015610ff657600080fd5b505af115801561100a573d6000803e3d6000fd5b5061101f9250505060e0850160c0860161434f565b6110319065ffffffffffff164261436a565b6000838152600160205260409020555098975050505050505050565b60007f000000000000000000000000000000000000000000000000000000000000000073ffffffffffffffffffffffffffffffffffffffff16638b79543c6040518163ffffffff1660e01b8152600401602060405180830381865afa1580156110ba573d6000803e3d6000fd5b505050506040513d601f19601f820116820180604052508101906110de9190613b2f565b73ffffffffffffffffffffffffffffffffffffffff166306661abd6040518163ffffffff1660e01b8152600401602060405180830381865afa158015611128573d6000803e3d6000fd5b505050506040513d601f19601f8201168201806040525081019061114c9190613c80565b61115790600161436a565b905060007f000000000000000000000000000000000000000000000000000000000000000073ffffffffffffffffffffffffffffffffffffffff166370d7f24983876040518363ffffffff1660e01b81526004016111b6929190614501565b6020604051808303816000875af11580156111d5573d6000803e3d6000fd5b505050506040513d601f19601f820116820180604052508101906111f99190613b2f565b8451909150600061120b82600161436a565b67ffffffffffffffff81111561122357611223612a7a565b60405190808252806020026020018201604052801561127057816020015b604080516060808201835260008083526020830152918101919091528152602001906001900390816112415790505b50905060005b828110156112bd5786818151811061129057611290613b4c565b60200260200101518282815181106112aa576112aa613b4c565b6020908102919091010152600101611276565b5060405180606001604052808473ffffffffffffffffffffffffffffffffffffffff168152602001600081526020016040518060200160405280600081525081525081838151811061131157611311613b4c565b602002602001018190525061132e8f8f8f8f8f8f8f8f898e611d6b565b505050509b9a5050505050505050505050565b6040517f1f51045300000000000000000000000000000000000000000000000000000000815260048101829052600090819073ffffffffffffffffffffffffffffffffffffffff7f00000000000000000000000000000000000000000000000000000000000000001690631f510453906024016103c060405180830381865afa1580156113d2573d6000803e3d6000fd5b505050506040513d601f19601f820116820180604052508101906113f6919061487b565b5081519193509150600114611437576040517fc97554fa00000000000000000000000000000000000000000000000000000000815260040160405180910390fd5b60408051608080820183528481015182526000602080840182905260c08088015185870152606080860184905286516102a0810188526102408101858152610260820186905261028082018690528152808401859052888801518189015290810184905293840183905260a08401839052830182905260e08301829052610100830182905261012083018290526101408301829052610160830182905261018083018290526101a083018290526101c083018290526101e083018290526102008087015173ffffffffffffffffffffffffffffffffffffffff908116918501919091526102208781015190850152888352600182528583205486518481529283019096527f0000000000000000000000000000000000000000000000000000000000000000169463badbdf289489949093909290611598565b6040805180820190915260008152606060208201528152602001906001900390816115705790505b506040805160008082526020820190925290611627565b6116146040518060c00160405280600073ffffffffffffffffffffffffffffffffffffffff168152602001600073ffffffffffffffffffffffffffffffffffffffff168152602001600081526020016000815260200160008152602001600081525090565b8152602001906001900390816115af5790505b506040518763ffffffff1660e01b815260040161164996959493929190614932565b6020604051808303816000875af1158015611668573d6000803e3d6000fd5b505050506040513d601f19601f8201168201806040525081019061168c9190613c80565b50505050565b600481815481106116a257600080fd5b600091825260209091200154905081565b600081815481106116a257600080fd5b60006116d88d8d8d8d8d8d8d8d8d8d8d61104d565b9050815160001461176e576003546040517f200e8ae400000000000000000000000000000000000000000000000000000000815273ffffffffffffffffffffffffffffffffffffffff9091169063200e8ae49061173b9084908690600401614a26565b600060405180830381600087803b15801561175557600080fd5b505af1158015611769573d6000803e3d6000fd5b505050505b7f000000000000000000000000000000000000000000000000000000000000000073ffffffffffffffffffffffffffffffffffffffff1663ad007d636040518163ffffffff1660e01b8152600401602060405180830381865afa1580156117d9573d6000803e3d6000fd5b505050506040513d601f19601f820116820180604052508101906117fd9190613b2f565b6040805160608101825260035473ffffffffffffffffffffffffffffffffffffffff90811682526020808301869052600480548551818402810184018752818152969093169563529cdd2e95850193909283018282801561187d57602002820191906000526020600020905b815481526020019060010190808311611869575b50505050508152506040518263ffffffff1660e01b81526004016118a191906142de565b600060405180830381600087803b1580156118bb57600080fd5b505af11580156118cf573d6000803e3d6000fd5b505050509c9b505050505050505050505050565b60408051600080825260208201909252606090819083908161192f565b604080516060808201835260008083526020830152918101919091528152602001906001900390816119005790505b5060408051602081019091526000815291969195509350915050565b6002602052816000526040600020818154811061196757600080fd5b600091825260209091206003909102018054600182015460028301805473ffffffffffffffffffffffffffffffffffffffff9093169550909350906119ab90614b2e565b80601f01602080910402602001604051908101604052809291908181526020018280546119d790614b2e565b8015611a245780601f106119f957610100808354040283529160200191611a24565b820191906000526020600020905b815481529060010190602001808311611a0757829003601f168201915b5050505050905083565b600060608060607f000000000000000000000000000000000000000000000000000000000000000073ffffffffffffffffffffffffffffffffffffffff1663d46cf171866040518263ffffffff1660e01b8152600401611a8e9190614bbd565b600060405180830381865afa158015611aab573d6000803e3d6000fd5b505050506040513d6000823e601f3d9081017fffffffffffffffffffffffffffffffffffffffffffffffffffffffffffffffe0168201604052611af19190810190614d31565b60c088013560009081526002602090815260408083208054825181850281018501909352808352969a509396509194919350849084015b82821015611c195760008481526020908190206040805160608101825260038602909201805473ffffffffffffffffffffffffffffffffffffffff16835260018101549383019390935260028301805492939291840191611b8890614b2e565b80601f0160208091040260200160405190810160405280929190818152602001828054611bb490614b2e565b8015611c015780601f10611bd657610100808354040283529160200191611c01565b820191906000526020600020905b815481529060010190602001808311611be457829003601f168201915b50505050508152505081526020019060010190611b28565b50508251929350611c2f9150829050600161436a565b67ffffffffffffffff811115611c4757611c47612a7a565b604051908082528060200260200182016040528015611c9457816020015b60408051606080820183526000808352602083015291810191909152815260200190600190039081611c655790505b50935060005b81811015611ce157828181518110611cb457611cb4613b4c565b6020026020010151858281518110611cce57611cce613b4c565b6020908102919091010152600101611c9a565b5082600081518110611cf557611cf5613b4c565b6020026020010151848281518110611d0f57611d0f613b4c565b6020908102919091010152611d28610160880188614eaa565b8080601f016020809104026020016040519081016040528093929190818152602001838380828437600092019190915250989a9299509597509095505050505050565b604080516001808252818301909252600091829190816020015b604080518082019091526000815260606020820152815260200190600190039081611d8557505060408051600180825281830190925291925060009190602082015b6040805160e08101825260008082526020808301829052928201819052606082018190526080820181905260a0820181905260c082015282527fffffffffffffffffffffffffffffffffffffffffffffffffffffffffffffffff909201910181611dc75790505090506040518060e00160405280600015158152602001600015158152602001633b9aca008152602001600081526020018e73ffffffffffffffffffffffffffffffffffffffff16815260200160008152602001600073ffffffffffffffffffffffffffffffffffffffff1681525081600181518110611eaf57611eaf613b4c565b60200260200101819052506040518060400160405280600281526020018281525082600081518110611ee357611ee3613b4c565b6020026020010181905250507f000000000000000000000000000000000000000000000000000000000000000073ffffffffffffffffffffffffffffffffffffffff16638b79543c6040518163ffffffff1660e01b8152600401602060405180830381865afa158015611f5a573d6000803e3d6000fd5b505050506040513d601f19601f82011682018060405250810190611f7e9190613b2f565b73ffffffffffffffffffffffffffffffffffffffff1663666d87a0308d6040518363ffffffff1660e01b8152600401611fb8929190613c28565b6020604051808303816000875af1158015611fd7573d6000803e3d6000fd5b505050506040513d601f19601f82011682018060405250810190611ffb9190613c80565b91507f000000000000000000000000000000000000000000000000000000000000000073ffffffffffffffffffffffffffffffffffffffff1663619306306040518163ffffffff1660e01b8152600401602060405180830381865afa158015612068573d6000803e3d6000fd5b505050506040513d601f19601f8201168201806040525081019061208c9190613b2f565b73ffffffffffffffffffffffffffffffffffffffff1663a7f2a70b838c8c8c8c6040518663ffffffff1660e01b81526004016120cc959493929190613c99565b6020604051808303816000875af11580156120eb573d6000803e3d6000fd5b505050506040513d601f19601f8201168201806040525081019061210f9190613b2f565b5073ffffffffffffffffffffffffffffffffffffffff7f000000000000000000000000000000000000000000000000000000000000000016637b621d3a8361215e6101008a0160e08b01613cd2565b7f000000000000000000000000000000000000000000000000000000000000000073ffffffffffffffffffffffffffffffffffffffff166360b3042c6040518163ffffffff1660e01b8152600401602060405180830381865afa1580156121c9573d6000803e3d6000fd5b505050506040513d601f19601f820116820180604052508101906121ed9190613c80565b7f000000000000000000000000000000000000000000000000000000000000000073ffffffffffffffffffffffffffffffffffffffff1663737a79966040518163ffffffff1660e01b8152600401602060405180830381865afa158015612258573d6000803e3d6000fd5b505050506040513d601f19601f8201168201806040525081019061227c9190613c80565b6040517fffffffff0000000000000000000000000000000000000000000000000000000060e087901b168152600481019490945262ffffff909216602484015263ffffffff908116604484015216606482015261eeee608482015260a4016020604051808303816000875af11580156122f9573d6000803e3d6000fd5b505050506040513d601f19601f8201168201806040525081019061231d9190613b2f565b507f000000000000000000000000000000000000000000000000000000000000000073ffffffffffffffffffffffffffffffffffffffff1663111d861b8360405180608001604052808a60600135815260200160128b600001356123819190613e3c565b81526040808c0135602080840191909152600092820183905281516102a081018352610240810184815261026082018590526102808201859052815260a0808f0135928201929092526080808f01359382019390935260608101849052918201839052810182905260c0810182905260e081018290526001610100820181905261012082018390526101408201839052610160820183905261018082018390526101a082018390526101c08201526101e081018290523061020082015260ff89166102208201529086816040519080825280602002602001820160405280156124e157816020015b6124ce6040518060c00160405280600073ffffffffffffffffffffffffffffffffffffffff168152602001600073ffffffffffffffffffffffffffffffffffffffff168152602001600081526020016000815260200160008152602001600081525090565b8152602001906001900390816124695790505b508c6040518863ffffffff1660e01b81526004016125059796959493929190614132565b6020604051808303816000875af1158015612524573d6000803e3d6000fd5b505050506040513d601f19601f820116820180604052508101906125489190613c80565b5073ffffffffffffffffffffffffffffffffffffffff7f000000000000000000000000000000000000000000000000000000000000000016638ae9c07b83612595601260208b0135613e3c565b8f8c8c6040516020016125a9929190614250565b6040516020818303038152906040526000806040518763ffffffff1660e01b81526004016125dc96959493929190614289565b6020604051808303816000875af11580156125fb573d6000803e3d6000fd5b505050506040513d601f19601f8201168201806040525081019061261f9190613c80565b507f000000000000000000000000000000000000000000000000000000000000000073ffffffffffffffffffffffffffffffffffffffff16632bdfe0046040518163ffffffff1660e01b8152600401602060405180830381865afa15801561268b573d6000803e3d6000fd5b505050506040513d601f19601f820116820180604052508101906126af9190613b2f565b73ffffffffffffffffffffffffffffffffffffffff1663ad007d636040518163ffffffff1660e01b8152600401602060405180830381865afa1580156126f9573d6000803e3d6000fd5b505050506040513d601f19601f8201168201806040525081019061271d9190613b2f565b73ffffffffffffffffffffffffffffffffffffffff1663529cdd2e60405180606001604052808f73ffffffffffffffffffffffffffffffffffffffff16815260200185815260200160008054806020026020016040519081016040528092919081815260200182805480156127b157602002820191906000526020600020905b81548152602001906001019080831161279d575b50505050508152506040518263ffffffff1660e01b81526004016127d591906142de565b600060405180830381600087803b1580156127ef57600080fd5b505af1158015612803573d6000803e3d6000fd5b506128189250505060e0870160c0880161434f565b61282a9065ffffffffffff164261436a565b6000838152600160205260408120919091558451905b818110156129045785818151811061285a5761285a613b4c565b602002602001015160026000868152602001908152602001600020828154811061288657612886613b4c565b600091825260209182902083516003929092020180547fffffffffffffffffffffffff00000000000000000000000000000000000000001673ffffffffffffffffffffffffffffffffffffffff909216919091178155908201516001820155604082015160028201906128f99082614f5e565b505050600101612840565b5050509a9950505050505050505050565b60006020828403121561292757600080fd5b81357fffffffff000000000000000000000000000000000000000000000000000000008116811461295757600080fd5b9392505050565b73ffffffffffffffffffffffffffffffffffffffff8116811461298057600080fd5b50565b803561298e8161295e565b919050565b60008083601f8401126129a557600080fd5b50813567ffffffffffffffff8111156129bd57600080fd5b6020830191508360208285010111156129d557600080fd5b9250929050565b6000806000806000608086880312156129f457600080fd5b85356129ff8161295e565b94506020860135612a0f8161295e565b935060408601359250606086013567ffffffffffffffff811115612a3257600080fd5b612a3e88828901612993565b969995985093965092949392505050565b600060408284031215612a6157600080fd5b50919050565b60006101008284031215612a6157600080fd5b7f4e487b7100000000000000000000000000000000000000000000000000000000600052604160045260246000fd5b6040516080810167ffffffffffffffff81118282101715612acc57612acc612a7a565b60405290565b604051610160810167ffffffffffffffff81118282101715612acc57612acc612a7a565b6040516060810167ffffffffffffffff81118282101715612acc57612acc612a7a565b60405160c0810167ffffffffffffffff81118282101715612acc57612acc612a7a565b604051610240810167ffffffffffffffff81118282101715612acc57612acc612a7a565b604051610120810167ffffffffffffffff81118282101715612acc57612acc612a7a565b604051601f82017fffffffffffffffffffffffffffffffffffffffffffffffffffffffffffffffe016810167ffffffffffffffff81118282101715612bcb57612bcb612a7a565b604052919050565b600067ffffffffffffffff821115612bed57612bed612a7a565b5060051b60200190565b600082601f830112612c0857600080fd5b81356020612c1d612c1883612bd3565b612b84565b82815260059290921b84018101918181019086841115612c3c57600080fd5b8286015b84811015612c60578035612c538161295e565b8352918301918301612c40565b509695505050505050565b6000806000806000806000806101a0898b031215612c8857600080fd5b612c9189612983565b9750602089013567ffffffffffffffff80821115612cae57600080fd5b612cba8c838d01612a4f565b985060408b0135915080821115612cd057600080fd5b612cdc8c838d01612993565b909850965060608b0135915080821115612cf557600080fd5b612d018c838d01612993565b9096509450849150612d168c60808d01612a67565b93506101808b0135915080821115612d2d57600080fd5b50612d3a8b828c01612bf7565b9150509295985092959890939650565b600067ffffffffffffffff821115612d6457612d64612a7a565b50601f017fffffffffffffffffffffffffffffffffffffffffffffffffffffffffffffffe01660200190565b6000612d9e612c1884612d4a565b9050828152838383011115612db257600080fd5b828260208301376000602084830101529392505050565b600082601f830112612dda57600080fd5b61295783833560208501612d90565b80356cffffffffffffffffffffffffff8116811461298e57600080fd5b803563ffffffff8116811461298e57600080fd5b803561ffff8116811461298e57600080fd5b803562ffffff8116811461298e57600080fd5b801515811461298057600080fd5b803561298e81612e3f565b803565ffffffffffff8116811461298e57600080fd5b60006080808385031215612e8157600080fd5b612e89612aa9565b9150823567ffffffffffffffff811115612ea257600080fd5b8301601f81018513612eb357600080fd5b80356020612ec3612c1883612bd3565b8281526101609283028401820192828201919089851115612ee357600080fd5b948301945b84861015612fc45780868b031215612f005760008081fd5b612f08612ad2565b612f1187612de9565b8152612f1e858801612e06565b858201526040612f2f818901612e06565b908201526060612f40888201612e1a565b90820152612f4f878901612983565b8189015260a0878101359082015260c0612f6a818901612e2c565b9082015260e0612f7b888201612e4d565b90820152610100612f8d888201612e4d565b90820152610120612f9f888201612e4d565b90820152610140612fb1888201612e4d565b9082015283529485019491830191612ee8565b50865250612fd3868201612e58565b8186015250505050612fe760408301612e58565b6040820152612ff860608301612983565b606082015292915050565b60006080828403121561301557600080fd5b61301d612aa9565b9050813561302a81612e3f565b8152602082013561303a81612e3f565b6020820152604082013561304d81612e3f565b60408201526060820135612ff881612e3f565b80356002811061298e57600080fd5b60006101c0828403121561308257600080fd5b61308a612ad2565b9050813567ffffffffffffffff808211156130a457600080fd5b6130b085838601612dc9565b835260208401359150808211156130c657600080fd5b6130d285838601612dc9565b60208401526130e360408501612983565b604084015260608401359150808211156130fc57600080fd5b61310885838601612dc9565b606084015261311960808501612983565b608084015260a084013591508082111561313257600080fd5b61313e85838601612dc9565b60a084015260c084013591508082111561315757600080fd5b5061316484828501612e6e565b60c08301525061317660e08301612983565b60e0820152610100613189818401612983565b9082015261012061319c84848301613003565b908201526131ad6101a08301613060565b61014082015292915050565b600082601f8301126131ca57600080fd5b813560206131da612c1883612bd3565b82815260059290921b840181019181810190868411156131f957600080fd5b8286015b84811015612c6057803567ffffffffffffffff8082111561321e5760008081fd5b81890191506060807fffffffffffffffffffffffffffffffffffffffffffffffffffffffffffffffe0848d030112156132575760008081fd5b61325f612af6565b8784013561326c8161295e565b81526040848101358983015291840135918383111561328b5760008081fd5b82850194508c603f8601126132a257600093508384fd5b6132b28d8a870135838801612d90565b9082015286525050509183019183016131fd565b803560ff8116811461298e57600080fd5b60008060008060008060008060008060006102008c8e0312156132f957600080fd5b6133028c612983565b9a5067ffffffffffffffff8060208e0135111561331e57600080fd5b61332e8e60208f01358f01612a4f565b9a508060408e0135111561334157600080fd5b6133518e60408f01358f01612993565b909a50985060608d013581101561336757600080fd5b6133778e60608f01358f01612993565b90985096506133898e60808f01612a67565b9550806101808e0135111561339d57600080fd5b6133ae8e6101808f01358f01612bf7565b9450806101a08e013511156133c257600080fd5b6133d38e6101a08f01358f0161306f565b9350806101c08e013511156133e757600080fd5b506133f98d6101c08e01358e016131b9565b91506134086101e08d016132c6565b90509295989b509295989b9093969950565b60006020828403121561342c57600080fd5b5035919050565b600082601f83011261344457600080fd5b81356020613454612c1883612bd3565b828152600592831b850182019282820191908785111561347357600080fd5b8387015b858110156135af57803567ffffffffffffffff808211156134985760008081fd5b818a01915060c0807fffffffffffffffffffffffffffffffffffffffffffffffffffffffffffffffe0848e030112156134d15760008081fd5b6134d9612b19565b888401356134e68161295e565b808252506040808501358a830152606080860135828401526080808701358285015260a09150818701358185015250838601359350848411156135295760008081fd5b83860195508e603f87011261354057600094508485fd5b8a8601359450613552612c1886612bd3565b85815294881b86018201948b810194508f8611156135705760008081fd5b958201955b8587101561359a578635925061358a8361295e565b828552958b0195938b0193613575565b90830152508752505050928401928401613477565b5090979650505050505050565b6000806000806000806000806000806000806102208d8f0312156135df57600080fd5b6135e88d612983565b9b5067ffffffffffffffff60208e0135111561360357600080fd5b6136138e60208f01358f01612a4f565b9a5067ffffffffffffffff60408e0135111561362e57600080fd5b61363e8e60408f01358f01612993565b909a50985067ffffffffffffffff60608e0135111561365c57600080fd5b61366c8e60608f01358f01612993565b909850965061367e8e60808f01612a67565b955067ffffffffffffffff6101808e0135111561369a57600080fd5b6136ab8e6101808f01358f01612bf7565b945067ffffffffffffffff6101a08e013511156136c757600080fd5b6136d88e6101a08f01358f0161306f565b935067ffffffffffffffff6101c08e013511156136f457600080fd5b6137058e6101c08f01358f016131b9565b92506137146101e08e016132c6565b915067ffffffffffffffff6102008e0135111561373057600080fd5b6137418e6102008f01358f01613433565b90509295989b509295989b509295989b565b60006020828403121561376557600080fd5b813567ffffffffffffffff81111561377c57600080fd5b82016101e0818503121561295757600080fd5b60005b838110156137aa578181015183820152602001613792565b50506000910152565b600081518084526137cb81602086016020860161378f565b601f017fffffffffffffffffffffffffffffffffffffffffffffffffffffffffffffffe0169290920160200192915050565b6000606085835260208181850152613817828501876137b3565b6040858203818701528187518084528484019150848160051b850101858a0160005b838110156138b4578683037fffffffffffffffffffffffffffffffffffffffffffffffffffffffffffffffe00185528151805173ffffffffffffffffffffffffffffffffffffffff16845288810151898501528601518684018a90526138a18a8501826137b3565b9589019593505090870190600101613839565b50909c9b505050505050505050505050565b600080604083850312156138d957600080fd5b50508035926020909101359150565b73ffffffffffffffffffffffffffffffffffffffff8416815282602082015260606040820152600061391d60608301846137b3565b95945050505050565b60006020828403121561393857600080fd5b813567ffffffffffffffff81111561394f57600080fd5b82016101a0818503121561295757600080fd5b600060608583526020818185015261397c828501876137b3565b6040858203818701528187518084528484019150848160051b850101858a0160005b838110156138b4578683037fffffffffffffffffffffffffffffffffffffffffffffffffffffffffffffffe00185528151805173ffffffffffffffffffffffffffffffffffffffff16845288810151898501528601518684018a9052613a068a8501826137b3565b958901959350509087019060010161399e565b6000806000806000806000806000806101e08b8d031215613a3957600080fd5b613a428b612983565b995060208b013567ffffffffffffffff80821115613a5f57600080fd5b613a6b8e838f01612a4f565b9a5060408d0135915080821115613a8157600080fd5b613a8d8e838f01612993565b909a50985060608d0135915080821115613aa657600080fd5b613ab28e838f01612993565b9098509650869150613ac78e60808f01612a67565b95506101808d0135915080821115613ade57600080fd5b613aea8e838f01612bf7565b94506101a08d0135915080821115613b0157600080fd5b50613b0e8d828e016131b9565b925050613b1e6101c08c016132c6565b90509295989b9194979a5092959850565b600060208284031215613b4157600080fd5b81516129578161295e565b7f4e487b7100000000000000000000000000000000000000000000000000000000600052603260045260246000fd5b60008083357fffffffffffffffffffffffffffffffffffffffffffffffffffffffffffffffe1843603018112613bb057600080fd5b830160208101925035905067ffffffffffffffff811115613bd057600080fd5b8036038213156129d557600080fd5b8183528181602085013750600060208284010152600060207fffffffffffffffffffffffffffffffffffffffffffffffffffffffffffffffe0601f840116840101905092915050565b73ffffffffffffffffffffffffffffffffffffffff83168152604060208201526000613c548384613b7b565b604080850152613c68608085018284613bdf565b91505060208401356060840152809150509392505050565b600060208284031215613c9257600080fd5b5051919050565b858152606060208201526000613cb3606083018688613bdf565b8281036040840152613cc6818587613bdf565b98975050505050505050565b600060208284031215613ce457600080fd5b61295782612e2c565b7f4e487b7100000000000000000000000000000000000000000000000000000000600052601160045260246000fd5b600181815b80851115613d7557817fffffffffffffffffffffffffffffffffffffffffffffffffffffffffffffffff04821115613d5b57613d5b613ced565b80851615613d6857918102915b93841c9390800290613d21565b509250929050565b600082613d8c57506001610436565b81613d9957506000610436565b8160018114613daf5760028114613db957613dd5565b6001915050610436565b60ff841115613dca57613dca613ced565b50506001821b610436565b5060208310610133831016604e8410600b8410161715613df8575081810a610436565b613e028383613d1c565b807fffffffffffffffffffffffffffffffffffffffffffffffffffffffffffffffff04821115613e3457613e34613ced565b029392505050565b600061295760ff841683613d7d565b613e708282518051151582526020808201511515908301526040908101511515910152565b6020810151606083015260408101516080830152606081015160a08301526080810151613ea160c084018215159052565b5060a081015180151560e08401525060c0810151610100613ec58185018315159052565b60e08301519150610120613edc8186018415159052565b90830151915061014090613ef38583018415159052565b8301519150610160613f088582018415159052565b90830151915061018090613f1f8583018415159052565b83015191506101a0613f348582018415159052565b9083015191506101c090613f4b8583018415159052565b83015191506101e0613f608582018415159052565b90830151915061020090613f778583018415159052565b8301519150610220613f8c8582018415159052565b9083015173ffffffffffffffffffffffffffffffffffffffff16610240850152909101516102609092019190915250565b600081518084526020808501808196508360051b810191508286016000805b8681101561409c578385038a52825180518652860151604087870181905281518188018190529188019160609081890190865b818110156140855785518051151584528c81015115158d8501528581015186850152848101518585015260808082015173ffffffffffffffffffffffffffffffffffffffff9081169186019190915260a0808301519086015260c0918201511690840152948b019460e09092019160010161400f565b50509c89019c975050509286019250600101613fdc565b509298975050505050505050565b600081518084526020808501945080840160005b83811015614127578151805173ffffffffffffffffffffffffffffffffffffffff908116895284820151168489015260408082015190890152606080820151908901526080808201519089015260a0908101519088015260c090960195908201906001016140be565b509495945050505050565b60006103c0898352602061417f8185018b80518252602081015160208301526040810151604083015273ffffffffffffffffffffffffffffffffffffffff60608201511660608301525050565b61418c60a085018a613e4b565b87610320850152816103408501526141a682850188613fbd565b91508382036103608501526141bb82876140aa565b848103610380860152855180825282870193509082019060005b8181101561420757845173ffffffffffffffffffffffffffffffffffffffff16835293830193918301916001016141d5565b50508481036103a0860152601b81527f4465706c6f7965642052657461696c69737420747265617375727900000000006020820152604081019c9b505050505050505050505050565b7f5072656d696e746564202400000000000000000000000000000000000000000081528183600b83013760009101600b01908152919050565b86815285602082015273ffffffffffffffffffffffffffffffffffffffff8516604082015260c0606082015260006142c460c08301866137b3565b93151560808301525090151560a090910152949350505050565b600060208083526080830173ffffffffffffffffffffffffffffffffffffffff85511682850152818501516040850152604085015160608086015281815180845260a0870191508483019350600092505b80831015612c60578351825292840192600192909201919084019061432f565b60006020828403121561436157600080fd5b61295782612e58565b8082018082111561043657610436613ced565b80516080808452815184820181905260009260a0916020918201918388019190865b8281101561446257845180516cffffffffffffffffffffffffff1685528281015163ffffffff908116848701526040808301519091169086015260608082015161ffff16908601528781015173ffffffffffffffffffffffffffffffffffffffff1688860152868101518786015260c08082015162ffffff169086015260e080820151151590860152610100808201511515908601526101208082015115159086015261014090810151151590850152938101936101609093019260010161439f565b508781015165ffffffffffff81168a8301529550505060408601519350614493604088018565ffffffffffff169052565b606086015193506144bc606088018573ffffffffffffffffffffffffffffffffffffffff169052565b9695505050505050565b600281106144fd577f4e487b7100000000000000000000000000000000000000000000000000000000600052602160045260246000fd5b9052565b82815260406020820152600082516101c060408401526145256102008401826137b3565b905060208401517fffffffffffffffffffffffffffffffffffffffffffffffffffffffffffffffc08085840301606086015261456183836137b3565b92506040860151915061458c608086018373ffffffffffffffffffffffffffffffffffffffff169052565b60608601519150808584030160a08601526145a783836137b3565b9250608086015191506145d260c086018373ffffffffffffffffffffffffffffffffffffffff169052565b60a08601519150808584030160e08601526145ed83836137b3565b925060c0860151915061010081868503018187015261460c848461437d565b935060e08701519250610120915061463b8287018473ffffffffffffffffffffffffffffffffffffffff169052565b86015191506101406146648682018473ffffffffffffffffffffffffffffffffffffffff169052565b908601518051151561016087015260208101511515610180870152604081015115156101a08701526060015115156101c086015285015190506146ab6101e08501826144c6565b50949350505050565b805161298e8161295e565b805161298e81612e3f565b6000606082840312156146dc57600080fd5b6146e4612af6565b905081516146f181612e3f565b8152602082015161470181612e3f565b6020820152604082015161471481612e3f565b604082015292915050565b6000610280828403121561473257600080fd5b61473a612b3c565b905061474683836146ca565b8152606082015160208201526080820151604082015260a0820151606082015261477260c083016146bf565b608082015261478360e083016146bf565b60a08201526101006147968184016146bf565b60c08301526101206147a98185016146bf565b60e08401526101406147bc8186016146bf565b8385015261016092506147d08386016146bf565b8285015261018091506147e48286016146bf565b908401526101a06147f68582016146bf565b838501526101c0925061480a8386016146bf565b828501526101e0915061481e8286016146bf565b908401526102006148308582016146bf565b8385015261022092506148448386016146bf565b8285015261485561024086016146b4565b818501525050610260830151818301525092915050565b80516003811061298e57600080fd5b60008060008385036103c081121561489257600080fd5b610120808212156148a257600080fd5b6148aa612b60565b9150855182526020860151602083015260408601516040830152606086015160608301526080860151608083015260a086015160a083015260c086015160c08301526148f860e087016146b4565b60e08301526101008087015181840152508194506149188782880161471f565b935050506149296103a0850161486c565b90509250925092565b60006103a088835261497e602084018980518252602081015160208301526040810151604083015273ffffffffffffffffffffffffffffffffffffffff60608201511660608301525050565b61498b60a0840188613e4b565b85610320840152806103408401526149a581840186613fbd565b90508281036103608401526149ba81856140aa565b838103610380909401939093525050602c81527f5363686564756c656420626f6f737420657870697279206f662052657461696c60208201527f697374207472656173757279000000000000000000000000000000000000000060408201526060019695505050505050565b6000604080830185845260208281860152818651808452606093508387019150838160051b8801018389016000805b84811015614b1d578a84037fffffffffffffffffffffffffffffffffffffffffffffffffffffffffffffffa00186528251805173ffffffffffffffffffffffffffffffffffffffff908116865288820151898701528a8201518b870152898201518a8701526080808301519087015260a09182015160c0928701839052805192870183905289019160e087019185915b80831015614b0757845182168452938b0193928b019260019290920191614ae5565b5050509688019694505091860191600101614a55565b50919b9a5050505050505050505050565b600181811c90821680614b4257607f821691505b602082108103612a61577f4e487b7100000000000000000000000000000000000000000000000000000000600052602260045260246000fd5b8035614b868161295e565b73ffffffffffffffffffffffffffffffffffffffff1682526020818101359083015260408082013590830152606090810135910152565b60208152614beb60208201614bd184612983565b73ffffffffffffffffffffffffffffffffffffffff169052565b6000614bf960208401612983565b73ffffffffffffffffffffffffffffffffffffffff8116604084015250614c266060830160408501614b7b565b60c083013560e083015261010060e084013581840152614c47818501612983565b9050610120614c6d8185018373ffffffffffffffffffffffffffffffffffffffff169052565b61014091508085013582850152506101608185013581850152614c9281860186613b7b565b925090506101a06101808181870152614cb06101c087018585613bdf565b9350614cbe81880188613b7b565b935090507fffffffffffffffffffffffffffffffffffffffffffffffffffffffffffffffe08685030182870152614cf6848483613bdf565b979650505050505050565b6000614d0f612c1884612d4a565b9050828152838383011115614d2357600080fd5b61295783602083018461378f565b600080600060608486031215614d4657600080fd5b8351925060208085015167ffffffffffffffff80821115614d6657600080fd5b818701915087601f830112614d7a57600080fd5b614d88888351858501614d01565b94506040870151915080821115614d9e57600080fd5b818701915087601f830112614db257600080fd5b8151614dc0612c1882612bd3565b81815260059190911b8301840190848101908a831115614ddf57600080fd5b8585015b83811015614e9957805185811115614dfa57600080fd5b86016060818e037fffffffffffffffffffffffffffffffffffffffffffffffffffffffffffffffe0011215614e2e57600080fd5b614e36612af6565b88820151614e438161295e565b8152604082015189820152606082015187811115614e6057600080fd5b8083019250508d603f830112614e7557600080fd5b614e868e8a84015160408501614d01565b6040820152845250918601918601614de3565b508096505050505050509250925092565b60008083357fffffffffffffffffffffffffffffffffffffffffffffffffffffffffffffffe1843603018112614edf57600080fd5b83018035915067ffffffffffffffff821115614efa57600080fd5b6020019150368190038213156129d557600080fd5b601f821115614f5957600081815260208120601f850160051c81016020861015614f365750805b601f850160051c820191505b81811015614f5557828155600101614f42565b5050505b505050565b815167ffffffffffffffff811115614f7857614f78612a7a565b614f8c81614f868454614b2e565b84614f0f565b602080601f831160018114614fdf5760008415614fa95750858301515b7fffffffffffffffffffffffffffffffffffffffffffffffffffffffffffffffff600386901b1c1916600185901b178555614f55565b6000858152602081207fffffffffffffffffffffffffffffffffffffffffffffffffffffffffffffffe08616915b8281101561502c5788860151825594840194600190910190840161500d565b508582101561506857878501517fffffffffffffffffffffffffffffffffffffffffffffffffffffffffffffffff600388901b60f8161c191681555b5050505050600190811b0190555056fea2646970667358221220b26dff25dd8fbd6d3dabc64ab0c1ac43b915383d1aefc2794936fd16a7d5d21464736f6c63430008150033",
    "linkReferences": {}
  },
  "methodIdentifiers": {
    "buybackDelegate()": "d3967525",
    "controller()": "f77c4791",
    "croptopPermissionIndexes(uint256)": "42921698",
    "delegateAllocationsOf(uint256,uint256)": "abc603e3",
    "delegateDeployer()": "8f3d964b",
    "deployBasicProjectFor(address,(string,uint256),string,string,(uint256,uint256,uint256,uint256,uint256,uint256,uint48,uint24),address[])": "179d2ada",
    "deployCroptopTiered721PayAllocatorProjectFor(address,(string,uint256),string,string,(uint256,uint256,uint256,uint256,uint256,uint256,uint48,uint24),address[],(string,string,address,string,address,string,((uint104,uint32,uint32,uint16,address,bytes32,uint24,bool,bool,bool,bool)[],uint48,uint48,address),address,address,(bool,bool,bool,bool),uint8),(address,uint256,bytes)[],uint8,(address,uint256,uint256,uint256,uint256,address[])[])": "9a659941",
    "deployPayAllocatorProjectFor(address,(string,uint256),string,string,(uint256,uint256,uint256,uint256,uint256,uint256,uint48,uint24),address[],(address,uint256,bytes)[],uint8)": "f1089241",
    "deployTiered721PayAllocatorProjectFor(address,(string,uint256),string,string,(uint256,uint256,uint256,uint256,uint256,uint256,uint48,uint24),address[],(string,string,address,string,address,string,((uint104,uint32,uint32,uint16,address,bytes32,uint24,bool,bool,bool,bool)[],uint48,uint48,address),address,address,(bool,bool,bool,bool),uint8),(address,uint256,bytes)[],uint8)": "31ff35fd",
    "directory()": "c41c2f24",
    "onERC721Received(address,address,uint256,bytes)": "150b7a02",
    "payParams((address,address,(address,uint256,uint256,uint256),uint256,uint256,address,uint256,uint256,string,bytes))": "d46cf171",
    "permissionIndexes(uint256)": "9483e771",
    "publisher()": "8c72c54e",
    "reconfigurationStartTimestampOf(uint256)": "560f7b03",
    "redeemParams((address,address,uint256,uint256,uint256,uint256,uint256,(address,uint256,uint256,uint256),bool,uint256,string,bytes))": "a51cfd18",
    "scheduleReconfigurationOf(uint256)": "3ce6d3e2",
    "supportsInterface(bytes4)": "01ffc9a7"
  },
  "id": 103
}