{
  "abi": [
    {
      "inputs": [
        {
          "internalType": "contract CroptopPublisher",
          "name": "_publisher",
          "type": "address"
        },
        {
          "internalType": "contract IJBDirectory",
          "name": "_directory",
          "type": "address"
        },
        {
          "internalType": "contract IJBTiered721DelegateDeployer",
          "name": "_delegateDeployer",
          "type": "address"
        },
        {
          "internalType": "contract IJBController3_1",
          "name": "_controller",
          "type": "address"
        },
        {
          "internalType": "contract IJBPayoutRedemptionPaymentTerminal3_1_1",
          "name": "_terminal",
          "type": "address"
        }
      ],
      "stateMutability": "nonpayable",
      "type": "constructor"
    },
    {
      "inputs": [],
      "name": "RECONFIGURATION_ALREADY_SCHEDULED",
      "type": "error"
    },
    {
      "inputs": [
        {
          "internalType": "uint256",
          "name": "",
          "type": "uint256"
        }
      ],
      "name": "buybackDelegateDataSourceOf",
      "outputs": [
        {
          "internalType": "contract IJBFundingCycleDataSource3_1_1",
          "name": "",
          "type": "address"
        }
      ],
      "stateMutability": "view",
      "type": "function"
    },
    {
      "inputs": [],
      "name": "controller",
      "outputs": [
        {
          "internalType": "contract IJBController3_1",
          "name": "",
          "type": "address"
        }
      ],
      "stateMutability": "view",
      "type": "function"
    },
    {
      "inputs": [
        {
          "internalType": "uint256",
          "name": "",
          "type": "uint256"
        }
      ],
      "name": "croptopPermissionIndexes",
      "outputs": [
        {
          "internalType": "uint256",
          "name": "",
          "type": "uint256"
        }
      ],
      "stateMutability": "view",
      "type": "function"
    },
    {
      "inputs": [
        {
          "internalType": "uint256",
          "name": "",
          "type": "uint256"
        },
        {
          "internalType": "uint256",
          "name": "",
          "type": "uint256"
        }
      ],
      "name": "delegateAllocationsOf",
      "outputs": [
        {
          "internalType": "contract IJBPayDelegate3_1_1",
          "name": "delegate",
          "type": "address"
        },
        {
          "internalType": "uint256",
          "name": "amount",
          "type": "uint256"
        },
        {
          "internalType": "bytes",
          "name": "metadata",
          "type": "bytes"
        }
      ],
      "stateMutability": "view",
      "type": "function"
    },
    {
      "inputs": [],
      "name": "delegateDeployer",
      "outputs": [
        {
          "internalType": "contract IJBTiered721DelegateDeployer",
          "name": "",
          "type": "address"
        }
      ],
      "stateMutability": "view",
      "type": "function"
    },
    {
      "inputs": [
        {
          "internalType": "address",
          "name": "_operator",
          "type": "address"
        },
        {
          "components": [
            {
              "internalType": "string",
              "name": "content",
              "type": "string"
            },
            {
              "internalType": "uint256",
              "name": "domain",
              "type": "uint256"
            }
          ],
          "internalType": "struct JBProjectMetadata",
          "name": "_projectMetadata",
          "type": "tuple"
        },
        {
          "internalType": "string",
          "name": "_name",
          "type": "string"
        },
        {
          "internalType": "string",
          "name": "_symbol",
          "type": "string"
        },
        {
          "components": [
            {
              "internalType": "uint256",
              "name": "initialIssuanceRate",
              "type": "uint256"
            },
            {
              "internalType": "uint256",
              "name": "premintTokenAmount",
              "type": "uint256"
            },
            {
              "internalType": "uint256",
              "name": "discountRate",
              "type": "uint256"
            },
            {
              "internalType": "uint256",
              "name": "cycleDurations",
              "type": "uint256"
            },
            {
              "internalType": "uint256",
              "name": "redemptionRate",
              "type": "uint256"
            },
            {
              "internalType": "uint256",
              "name": "reservedRate",
              "type": "uint256"
            },
            {
              "internalType": "uint48",
              "name": "reservedRateDuration",
              "type": "uint48"
            }
          ],
          "internalType": "struct BasicRetailistJBParams",
          "name": "_data",
          "type": "tuple"
        }
      ],
      "name": "deployBasicProjectFor",
      "outputs": [
        {
          "internalType": "uint256",
          "name": "projectId",
          "type": "uint256"
        }
      ],
      "stateMutability": "nonpayable",
      "type": "function"
    },
    {
      "inputs": [
        {
          "internalType": "address",
          "name": "_operator",
          "type": "address"
        },
        {
          "components": [
            {
              "internalType": "string",
              "name": "content",
              "type": "string"
            },
            {
              "internalType": "uint256",
              "name": "domain",
              "type": "uint256"
            }
          ],
          "internalType": "struct JBProjectMetadata",
          "name": "_projectMetadata",
          "type": "tuple"
        },
        {
          "internalType": "string",
          "name": "_name",
          "type": "string"
        },
        {
          "internalType": "string",
          "name": "_symbol",
          "type": "string"
        },
        {
          "components": [
            {
              "internalType": "uint256",
              "name": "initialIssuanceRate",
              "type": "uint256"
            },
            {
              "internalType": "uint256",
              "name": "premintTokenAmount",
              "type": "uint256"
            },
            {
              "internalType": "uint256",
              "name": "discountRate",
              "type": "uint256"
            },
            {
              "internalType": "uint256",
              "name": "cycleDurations",
              "type": "uint256"
            },
            {
              "internalType": "uint256",
              "name": "redemptionRate",
              "type": "uint256"
            },
            {
              "internalType": "uint256",
              "name": "reservedRate",
              "type": "uint256"
            },
            {
              "internalType": "uint48",
              "name": "reservedRateDuration",
              "type": "uint48"
            }
          ],
          "internalType": "struct BasicRetailistJBParams",
          "name": "_data",
          "type": "tuple"
        },
        {
          "components": [
            {
              "internalType": "string",
              "name": "name",
              "type": "string"
            },
            {
              "internalType": "string",
              "name": "symbol",
              "type": "string"
            },
            {
              "internalType": "contract IJBFundingCycleStore",
              "name": "fundingCycleStore",
              "type": "address"
            },
            {
              "internalType": "string",
              "name": "baseUri",
              "type": "string"
            },
            {
              "internalType": "contract IJB721TokenUriResolver",
              "name": "tokenUriResolver",
              "type": "address"
            },
            {
              "internalType": "string",
              "name": "contractUri",
              "type": "string"
            },
            {
              "components": [
                {
                  "components": [
                    {
                      "internalType": "uint104",
                      "name": "price",
                      "type": "uint104"
                    },
                    {
                      "internalType": "uint32",
                      "name": "initialQuantity",
                      "type": "uint32"
                    },
                    {
                      "internalType": "uint32",
                      "name": "votingUnits",
                      "type": "uint32"
                    },
                    {
                      "internalType": "uint16",
                      "name": "reservedRate",
                      "type": "uint16"
                    },
                    {
                      "internalType": "address",
                      "name": "reservedTokenBeneficiary",
                      "type": "address"
                    },
                    {
                      "internalType": "bytes32",
                      "name": "encodedIPFSUri",
                      "type": "bytes32"
                    },
                    {
                      "internalType": "uint24",
                      "name": "category",
                      "type": "uint24"
                    },
                    {
                      "internalType": "bool",
                      "name": "allowManualMint",
                      "type": "bool"
                    },
                    {
                      "internalType": "bool",
                      "name": "shouldUseReservedTokenBeneficiaryAsDefault",
                      "type": "bool"
                    },
                    {
                      "internalType": "bool",
                      "name": "transfersPausable",
                      "type": "bool"
                    },
                    {
                      "internalType": "bool",
                      "name": "useVotingUnits",
                      "type": "bool"
                    }
                  ],
                  "internalType": "struct JB721TierParams[]",
                  "name": "tiers",
                  "type": "tuple[]"
                },
                {
                  "internalType": "uint48",
                  "name": "currency",
                  "type": "uint48"
                },
                {
                  "internalType": "uint48",
                  "name": "decimals",
                  "type": "uint48"
                },
                {
                  "internalType": "contract IJBPrices",
                  "name": "prices",
                  "type": "address"
                }
              ],
              "internalType": "struct JB721PricingParams",
              "name": "pricing",
              "type": "tuple"
            },
            {
              "internalType": "address",
              "name": "reservedTokenBeneficiary",
              "type": "address"
            },
            {
              "internalType": "contract IJBTiered721DelegateStore",
              "name": "store",
              "type": "address"
            },
            {
              "components": [
                {
                  "internalType": "bool",
                  "name": "lockReservedTokenChanges",
                  "type": "bool"
                },
                {
                  "internalType": "bool",
                  "name": "lockVotingUnitChanges",
                  "type": "bool"
                },
                {
                  "internalType": "bool",
                  "name": "lockManualMintingChanges",
                  "type": "bool"
                },
                {
                  "internalType": "bool",
                  "name": "preventOverspending",
                  "type": "bool"
                }
              ],
              "internalType": "struct JBTiered721Flags",
              "name": "flags",
              "type": "tuple"
            },
            {
              "internalType": "enum JB721GovernanceType",
              "name": "governanceType",
              "type": "uint8"
            }
          ],
          "internalType": "struct JBDeployTiered721DelegateData",
          "name": "_deployTiered721DelegateData",
          "type": "tuple"
        },
        {
          "components": [
            {
              "internalType": "contract IJBPayDelegate3_1_1",
              "name": "delegate",
              "type": "address"
            },
            {
              "internalType": "uint256",
              "name": "amount",
              "type": "uint256"
            },
            {
              "internalType": "bytes",
              "name": "metadata",
              "type": "bytes"
            }
          ],
          "internalType": "struct JBPayDelegateAllocation3_1_1[]",
          "name": "_otherDelegateAllocations",
          "type": "tuple[]"
        },
        {
          "internalType": "uint8",
          "name": "_extraFundingCycleMetadata",
          "type": "uint8"
        }
      ],
      "name": "deployCroptopTiered721PayAllocatorProjectFor",
      "outputs": [
        {
          "internalType": "uint256",
          "name": "projectId",
          "type": "uint256"
        }
      ],
      "stateMutability": "nonpayable",
      "type": "function"
    },
    {
      "inputs": [
        {
          "internalType": "address",
          "name": "_operator",
          "type": "address"
        },
        {
          "components": [
            {
              "internalType": "string",
              "name": "content",
              "type": "string"
            },
            {
              "internalType": "uint256",
              "name": "domain",
              "type": "uint256"
            }
          ],
          "internalType": "struct JBProjectMetadata",
          "name": "_projectMetadata",
          "type": "tuple"
        },
        {
          "internalType": "string",
          "name": "_name",
          "type": "string"
        },
        {
          "internalType": "string",
          "name": "_symbol",
          "type": "string"
        },
        {
          "components": [
            {
              "internalType": "uint256",
              "name": "initialIssuanceRate",
              "type": "uint256"
            },
            {
              "internalType": "uint256",
              "name": "premintTokenAmount",
              "type": "uint256"
            },
            {
              "internalType": "uint256",
              "name": "discountRate",
              "type": "uint256"
            },
            {
              "internalType": "uint256",
              "name": "cycleDurations",
              "type": "uint256"
            },
            {
              "internalType": "uint256",
              "name": "redemptionRate",
              "type": "uint256"
            },
            {
              "internalType": "uint256",
              "name": "reservedRate",
              "type": "uint256"
            },
            {
              "internalType": "uint48",
              "name": "reservedRateDuration",
              "type": "uint48"
            }
          ],
          "internalType": "struct BasicRetailistJBParams",
          "name": "_data",
          "type": "tuple"
        },
        {
          "components": [
            {
              "internalType": "contract IJBPayDelegate3_1_1",
              "name": "delegate",
              "type": "address"
            },
            {
              "internalType": "uint256",
              "name": "amount",
              "type": "uint256"
            },
            {
              "internalType": "bytes",
              "name": "metadata",
              "type": "bytes"
            }
          ],
          "internalType": "struct JBPayDelegateAllocation3_1_1[]",
          "name": "_delegateAllocations",
          "type": "tuple[]"
        },
        {
          "internalType": "uint8",
          "name": "_extraFundingCycleMetadata",
          "type": "uint8"
        }
      ],
      "name": "deployPayAllocatorProjectFor",
      "outputs": [
        {
          "internalType": "uint256",
          "name": "projectId",
          "type": "uint256"
        }
      ],
      "stateMutability": "nonpayable",
      "type": "function"
    },
    {
      "inputs": [
        {
          "internalType": "address",
          "name": "_operator",
          "type": "address"
        },
        {
          "components": [
            {
              "internalType": "string",
              "name": "content",
              "type": "string"
            },
            {
              "internalType": "uint256",
              "name": "domain",
              "type": "uint256"
            }
          ],
          "internalType": "struct JBProjectMetadata",
          "name": "_projectMetadata",
          "type": "tuple"
        },
        {
          "internalType": "string",
          "name": "_name",
          "type": "string"
        },
        {
          "internalType": "string",
          "name": "_symbol",
          "type": "string"
        },
        {
          "components": [
            {
              "internalType": "uint256",
              "name": "initialIssuanceRate",
              "type": "uint256"
            },
            {
              "internalType": "uint256",
              "name": "premintTokenAmount",
              "type": "uint256"
            },
            {
              "internalType": "uint256",
              "name": "discountRate",
              "type": "uint256"
            },
            {
              "internalType": "uint256",
              "name": "cycleDurations",
              "type": "uint256"
            },
            {
              "internalType": "uint256",
              "name": "redemptionRate",
              "type": "uint256"
            },
            {
              "internalType": "uint256",
              "name": "reservedRate",
              "type": "uint256"
            },
            {
              "internalType": "uint48",
              "name": "reservedRateDuration",
              "type": "uint48"
            }
          ],
          "internalType": "struct BasicRetailistJBParams",
          "name": "_data",
          "type": "tuple"
        },
        {
          "components": [
            {
              "internalType": "string",
              "name": "name",
              "type": "string"
            },
            {
              "internalType": "string",
              "name": "symbol",
              "type": "string"
            },
            {
              "internalType": "contract IJBFundingCycleStore",
              "name": "fundingCycleStore",
              "type": "address"
            },
            {
              "internalType": "string",
              "name": "baseUri",
              "type": "string"
            },
            {
              "internalType": "contract IJB721TokenUriResolver",
              "name": "tokenUriResolver",
              "type": "address"
            },
            {
              "internalType": "string",
              "name": "contractUri",
              "type": "string"
            },
            {
              "components": [
                {
                  "components": [
                    {
                      "internalType": "uint104",
                      "name": "price",
                      "type": "uint104"
                    },
                    {
                      "internalType": "uint32",
                      "name": "initialQuantity",
                      "type": "uint32"
                    },
                    {
                      "internalType": "uint32",
                      "name": "votingUnits",
                      "type": "uint32"
                    },
                    {
                      "internalType": "uint16",
                      "name": "reservedRate",
                      "type": "uint16"
                    },
                    {
                      "internalType": "address",
                      "name": "reservedTokenBeneficiary",
                      "type": "address"
                    },
                    {
                      "internalType": "bytes32",
                      "name": "encodedIPFSUri",
                      "type": "bytes32"
                    },
                    {
                      "internalType": "uint24",
                      "name": "category",
                      "type": "uint24"
                    },
                    {
                      "internalType": "bool",
                      "name": "allowManualMint",
                      "type": "bool"
                    },
                    {
                      "internalType": "bool",
                      "name": "shouldUseReservedTokenBeneficiaryAsDefault",
                      "type": "bool"
                    },
                    {
                      "internalType": "bool",
                      "name": "transfersPausable",
                      "type": "bool"
                    },
                    {
                      "internalType": "bool",
                      "name": "useVotingUnits",
                      "type": "bool"
                    }
                  ],
                  "internalType": "struct JB721TierParams[]",
                  "name": "tiers",
                  "type": "tuple[]"
                },
                {
                  "internalType": "uint48",
                  "name": "currency",
                  "type": "uint48"
                },
                {
                  "internalType": "uint48",
                  "name": "decimals",
                  "type": "uint48"
                },
                {
                  "internalType": "contract IJBPrices",
                  "name": "prices",
                  "type": "address"
                }
              ],
              "internalType": "struct JB721PricingParams",
              "name": "pricing",
              "type": "tuple"
            },
            {
              "internalType": "address",
              "name": "reservedTokenBeneficiary",
              "type": "address"
            },
            {
              "internalType": "contract IJBTiered721DelegateStore",
              "name": "store",
              "type": "address"
            },
            {
              "components": [
                {
                  "internalType": "bool",
                  "name": "lockReservedTokenChanges",
                  "type": "bool"
                },
                {
                  "internalType": "bool",
                  "name": "lockVotingUnitChanges",
                  "type": "bool"
                },
                {
                  "internalType": "bool",
                  "name": "lockManualMintingChanges",
                  "type": "bool"
                },
                {
                  "internalType": "bool",
                  "name": "preventOverspending",
                  "type": "bool"
                }
              ],
              "internalType": "struct JBTiered721Flags",
              "name": "flags",
              "type": "tuple"
            },
            {
              "internalType": "enum JB721GovernanceType",
              "name": "governanceType",
              "type": "uint8"
            }
          ],
          "internalType": "struct JBDeployTiered721DelegateData",
          "name": "_deployTiered721DelegateData",
          "type": "tuple"
        },
        {
          "components": [
            {
              "internalType": "contract IJBPayDelegate3_1_1",
              "name": "delegate",
              "type": "address"
            },
            {
              "internalType": "uint256",
              "name": "amount",
              "type": "uint256"
            },
            {
              "internalType": "bytes",
              "name": "metadata",
              "type": "bytes"
            }
          ],
          "internalType": "struct JBPayDelegateAllocation3_1_1[]",
          "name": "_otherDelegateAllocations",
          "type": "tuple[]"
        },
        {
          "internalType": "uint8",
          "name": "_extraFundingCycleMetadata",
          "type": "uint8"
        }
      ],
      "name": "deployTiered721PayAllocatorProjectFor",
      "outputs": [
        {
          "internalType": "uint256",
          "name": "projectId",
          "type": "uint256"
        }
      ],
      "stateMutability": "nonpayable",
      "type": "function"
    },
    {
      "inputs": [],
      "name": "directory",
      "outputs": [
        {
          "internalType": "contract IJBDirectory",
          "name": "",
          "type": "address"
        }
      ],
      "stateMutability": "view",
      "type": "function"
    },
    {
      "inputs": [
        {
          "internalType": "address",
          "name": "_operator",
          "type": "address"
        },
        {
          "internalType": "address",
          "name": "_from",
          "type": "address"
        },
        {
          "internalType": "uint256",
          "name": "_tokenId",
          "type": "uint256"
        },
        {
          "internalType": "bytes",
          "name": "_data",
          "type": "bytes"
        }
      ],
      "name": "onERC721Received",
      "outputs": [
        {
          "internalType": "bytes4",
          "name": "",
          "type": "bytes4"
        }
      ],
      "stateMutability": "view",
      "type": "function"
    },
    {
      "inputs": [
        {
          "components": [
            {
              "internalType": "contract IJBPaymentTerminal",
              "name": "terminal",
              "type": "address"
            },
            {
              "internalType": "address",
              "name": "payer",
              "type": "address"
            },
            {
              "components": [
                {
                  "internalType": "address",
                  "name": "token",
                  "type": "address"
                },
                {
                  "internalType": "uint256",
                  "name": "value",
                  "type": "uint256"
                },
                {
                  "internalType": "uint256",
                  "name": "decimals",
                  "type": "uint256"
                },
                {
                  "internalType": "uint256",
                  "name": "currency",
                  "type": "uint256"
                }
              ],
              "internalType": "struct JBTokenAmount",
              "name": "amount",
              "type": "tuple"
            },
            {
              "internalType": "uint256",
              "name": "projectId",
              "type": "uint256"
            },
            {
              "internalType": "uint256",
              "name": "currentFundingCycleConfiguration",
              "type": "uint256"
            },
            {
              "internalType": "address",
              "name": "beneficiary",
              "type": "address"
            },
            {
              "internalType": "uint256",
              "name": "weight",
              "type": "uint256"
            },
            {
              "internalType": "uint256",
              "name": "reservedRate",
              "type": "uint256"
            },
            {
              "internalType": "string",
              "name": "memo",
              "type": "string"
            },
            {
              "internalType": "bytes",
              "name": "metadata",
              "type": "bytes"
            }
          ],
          "internalType": "struct JBPayParamsData",
          "name": "_data",
          "type": "tuple"
        }
      ],
      "name": "payParams",
      "outputs": [
        {
          "internalType": "uint256",
          "name": "weight",
          "type": "uint256"
        },
        {
          "internalType": "string",
          "name": "memo",
          "type": "string"
        },
        {
          "components": [
            {
              "internalType": "contract IJBPayDelegate3_1_1",
              "name": "delegate",
              "type": "address"
            },
            {
              "internalType": "uint256",
              "name": "amount",
              "type": "uint256"
            },
            {
              "internalType": "bytes",
              "name": "metadata",
              "type": "bytes"
            }
          ],
          "internalType": "struct JBPayDelegateAllocation3_1_1[]",
          "name": "delegateAllocations",
          "type": "tuple[]"
        }
      ],
      "stateMutability": "view",
      "type": "function"
    },
    {
      "inputs": [
        {
          "internalType": "uint256",
          "name": "",
          "type": "uint256"
        }
      ],
      "name": "permissionIndexes",
      "outputs": [
        {
          "internalType": "uint256",
          "name": "",
          "type": "uint256"
        }
      ],
      "stateMutability": "view",
      "type": "function"
    },
    {
      "inputs": [],
      "name": "publisher",
      "outputs": [
        {
          "internalType": "contract CroptopPublisher",
          "name": "",
          "type": "address"
        }
      ],
      "stateMutability": "view",
      "type": "function"
    },
    {
      "inputs": [
        {
          "internalType": "uint256",
          "name": "projectId",
          "type": "uint256"
        }
      ],
      "name": "reconfigurationStartTimestampOf",
      "outputs": [
        {
          "internalType": "uint256",
          "name": "",
          "type": "uint256"
        }
      ],
      "stateMutability": "view",
      "type": "function"
    },
    {
      "inputs": [
        {
          "components": [
            {
              "internalType": "contract IJBPaymentTerminal",
              "name": "terminal",
              "type": "address"
            },
            {
              "internalType": "address",
              "name": "holder",
              "type": "address"
            },
            {
              "internalType": "uint256",
              "name": "projectId",
              "type": "uint256"
            },
            {
              "internalType": "uint256",
              "name": "currentFundingCycleConfiguration",
              "type": "uint256"
            },
            {
              "internalType": "uint256",
              "name": "tokenCount",
              "type": "uint256"
            },
            {
              "internalType": "uint256",
              "name": "totalSupply",
              "type": "uint256"
            },
            {
              "internalType": "uint256",
              "name": "overflow",
              "type": "uint256"
            },
            {
              "components": [
                {
                  "internalType": "address",
                  "name": "token",
                  "type": "address"
                },
                {
                  "internalType": "uint256",
                  "name": "value",
                  "type": "uint256"
                },
                {
                  "internalType": "uint256",
                  "name": "decimals",
                  "type": "uint256"
                },
                {
                  "internalType": "uint256",
                  "name": "currency",
                  "type": "uint256"
                }
              ],
              "internalType": "struct JBTokenAmount",
              "name": "reclaimAmount",
              "type": "tuple"
            },
            {
              "internalType": "bool",
              "name": "useTotalOverflow",
              "type": "bool"
            },
            {
              "internalType": "uint256",
              "name": "redemptionRate",
              "type": "uint256"
            },
            {
              "internalType": "string",
              "name": "memo",
              "type": "string"
            },
            {
              "internalType": "bytes",
              "name": "metadata",
              "type": "bytes"
            }
          ],
          "internalType": "struct JBRedeemParamsData",
          "name": "_data",
          "type": "tuple"
        }
      ],
      "name": "redeemParams",
      "outputs": [
        {
          "internalType": "uint256",
          "name": "",
          "type": "uint256"
        },
        {
          "internalType": "string",
          "name": "",
          "type": "string"
        },
        {
          "components": [
            {
              "internalType": "contract IJBRedemptionDelegate3_1_1",
              "name": "delegate",
              "type": "address"
            },
            {
              "internalType": "uint256",
              "name": "amount",
              "type": "uint256"
            },
            {
              "internalType": "bytes",
              "name": "metadata",
              "type": "bytes"
            }
          ],
          "internalType": "struct JBRedemptionDelegateAllocation3_1_1[]",
          "name": "",
          "type": "tuple[]"
        }
      ],
      "stateMutability": "view",
      "type": "function"
    },
    {
      "inputs": [
        {
          "internalType": "uint256",
          "name": "_projectId",
          "type": "uint256"
        }
      ],
      "name": "scheduleReconfigurationOf",
      "outputs": [],
      "stateMutability": "nonpayable",
      "type": "function"
    },
    {
      "inputs": [
        {
          "internalType": "bytes4",
          "name": "_interfaceId",
          "type": "bytes4"
        }
      ],
      "name": "supportsInterface",
      "outputs": [
        {
          "internalType": "bool",
          "name": "",
          "type": "bool"
        }
      ],
      "stateMutability": "view",
      "type": "function"
    },
    {
      "inputs": [
        {
          "internalType": "uint256",
          "name": "",
          "type": "uint256"
        }
      ],
      "name": "terminals",
      "outputs": [
        {
          "internalType": "contract IJBPaymentTerminal",
          "name": "",
          "type": "address"
        }
      ],
      "stateMutability": "view",
      "type": "function"
    }
  ],
  "bytecode": {
    "object": "0x60e06040523480156200001157600080fd5b50604051620049f4380380620049f4833981016040819052620000349162000122565b6001600160a01b0391821660805260008054600181810183557f290decd9548b62a8d60345a988386fc84ba6bc95484008f6362f93160ef3e56390910180549385166001600160a01b03199485161790558054808201825560127fb10e2d527612073b26eecdfd717e6a320cf44b4afac2b0732d9fcbe2b7fa0cf69091015594831660a05292821660c052600580549590921694169390931790925560068054918201815590915260157ff652222313e28459528d920b65115c16c04f3efc82aaedc97be59f3f377c0d3f90910155620001a2565b6001600160a01b03811681146200011f57600080fd5b50565b600080600080600060a086880312156200013b57600080fd5b8551620001488162000109565b60208701519095506200015b8162000109565b60408701519094506200016e8162000109565b6060870151909350620001818162000109565b6080870151909250620001948162000109565b809150509295509295909350565b60805160a05160c0516147ab62000249600039600081816102ae015261202901526000818161032c015281816104c701528181611f1d01526120670152600081816103be015281816107bd015281816108cd015281816109e301528181610c2601528181610ce801528181610f120152818161106b0152818161121e0152818161151a0152818161162a0152818161178401528181611a0c0152611acc01526147ab6000f3fe608060405234801561001057600080fd5b50600436106101515760003560e01c80638c72c54e116100cd578063c41c2f2411610081578063d46cf17111610066578063d46cf17114610361578063ef8eadd514610383578063f77c4791146103b957600080fd5b8063c41c2f2414610327578063c7e221d71461034e57600080fd5b80639483e771116100b25780639483e771146102d0578063a51cfd18146102e3578063abc603e31461030557600080fd5b80638c72c54e146102895780638f3d964b146102a957600080fd5b8063150b7a0211610124578063429216981161010957806342921698146102435780634e777fd714610256578063560f7b031461026957600080fd5b8063150b7a02146101ea5780633ce6d3e21461022e57600080fd5b806301ffc9a7146101565780630219758e1461017e5780630a3d4b1b146101b65780630e53d9cc146101d7575b600080fd5b610169610164366004612573565b6103e0565b60405190151581526020015b60405180910390f35b61019161018c3660046125bc565b610479565b60405173ffffffffffffffffffffffffffffffffffffffff9091168152602001610175565b6101c96101c4366004612894565b6104b0565b604051908152602001610175565b6101c96101e53660046129e4565b610637565b6101fd6101f8366004612aa6565b610f0e565b6040517fffffffff000000000000000000000000000000000000000000000000000000009091168152602001610175565b61024161023c3660046125bc565b611022565b005b6101c96102513660046125bc565b611373565b6101c9610264366004612c41565b611394565b6101c96102773660046125bc565b60026020526000908152604090205481565b6005546101919073ffffffffffffffffffffffffffffffffffffffff1681565b6101917f000000000000000000000000000000000000000000000000000000000000000081565b6101c96102de3660046125bc565b611dbe565b6102f66102f1366004612d16565b611dce565b60405161017593929190612dc0565b610318610313366004612e89565b611e36565b60405161017593929190612eab565b6101917f000000000000000000000000000000000000000000000000000000000000000081565b6101c961035c366004612894565b611f19565b61037461036f366004612ee9565b61222a565b60405161017593929190612f25565b6101916103913660046125bc565b60036020526000908152604090205473ffffffffffffffffffffffffffffffffffffffff1681565b6101917f000000000000000000000000000000000000000000000000000000000000000081565b60007fffffffff0000000000000000000000000000000000000000000000000000000082167f71700c6900000000000000000000000000000000000000000000000000000000148061047357507f150b7a02000000000000000000000000000000000000000000000000000000007fffffffff000000000000000000000000000000000000000000000000000000008316145b92915050565b6000818154811061048957600080fd5b60009182526020909120015473ffffffffffffffffffffffffffffffffffffffff16905081565b60006104c38a8a8a8a8a8a8a8a8a611f19565b90507f000000000000000000000000000000000000000000000000000000000000000073ffffffffffffffffffffffffffffffffffffffff1663ad007d636040518163ffffffff1660e01b8152600401602060405180830381865afa158015610530573d6000803e3d6000fd5b505050506040513d601f19601f820116820180604052508101906105549190612fdc565b6040805160608101825260055473ffffffffffffffffffffffffffffffffffffffff90811682526020808301869052600680548551818402810184018752818152969093169563529cdd2e9585019390928301828280156105d457602002820191906000526020600020905b8154815260200190600101908083116105c0575b50505050508152506040518263ffffffff1660e01b81526004016105f89190612ff9565b600060405180830381600087803b15801561061257600080fd5b505af1158015610626573d6000803e3d6000fd5b505050509998505050505050505050565b604080516001808252818301909252600091829190816020015b60408051808201909152600081526060602082015281526020019060019003908161065157505060408051600180825281830190925291925060009190602082015b6040805160e08101825260008082526020808301829052928201819052606082018190526080820181905260a0820181905260c082015282527fffffffffffffffffffffffffffffffffffffffffffffffffffffffffffffffff9092019101816106935790505090506040518060e00160405280600015158152602001600015158152602001633b9aca008152602001600081526020018b73ffffffffffffffffffffffffffffffffffffffff16815260200160008152602001600073ffffffffffffffffffffffffffffffffffffffff168152508160018151811061077b5761077b61306a565b602002602001018190525060405180604001604052806002815260200182815250826000815181106107af576107af61306a565b6020026020010181905250507f000000000000000000000000000000000000000000000000000000000000000073ffffffffffffffffffffffffffffffffffffffff16638b79543c6040518163ffffffff1660e01b8152600401602060405180830381865afa158015610826573d6000803e3d6000fd5b505050506040513d601f19601f8201168201806040525081019061084a9190612fdc565b73ffffffffffffffffffffffffffffffffffffffff1663666d87a0308a6040518363ffffffff1660e01b8152600401610884929190613146565b6020604051808303816000875af11580156108a3573d6000803e3d6000fd5b505050506040513d601f19601f820116820180604052508101906108c7919061319e565b915060007f000000000000000000000000000000000000000000000000000000000000000073ffffffffffffffffffffffffffffffffffffffff1663619306306040518163ffffffff1660e01b8152600401602060405180830381865afa158015610936573d6000803e3d6000fd5b505050506040513d601f19601f8201168201806040525081019061095a9190612fdc565b73ffffffffffffffffffffffffffffffffffffffff1663a7f2a70b848a8a8a8a6040518663ffffffff1660e01b815260040161099a9594939291906131b7565b6020604051808303816000875af11580156109b9573d6000803e3d6000fd5b505050506040513d601f19601f820116820180604052508101906109dd9190612fdc565b905060007f000000000000000000000000000000000000000000000000000000000000000073ffffffffffffffffffffffffffffffffffffffff1663111d861b8560405180608001604052808960600135815260200160128a60000135610a44919061333f565b815260408a810135602080840191909152600092820183905281516102a081018352610240810184815261026082018590526102808201859052815260a0808e0135828401526080808f013583860152606083018690528201859052810184905260c0810184905260e081018490526001610100820181905261012082018590526101408201859052610160820185905261018082018590526101a082018590526101c08201526101e0810184905273ffffffffffffffffffffffffffffffffffffffff891661020082015261022081018490528251848152918201909252909190899082610ba6565b610b936040518060c00160405280600073ffffffffffffffffffffffffffffffffffffffff168152602001600073ffffffffffffffffffffffffffffffffffffffff168152602001600081526020016000815260200160008152602001600081525090565b815260200190600190039081610b2e5790505b5060006040518863ffffffff1660e01b8152600401610bcb9796959493929190613635565b6020604051808303816000875af1158015610bea573d6000803e3d6000fd5b505050506040513d601f19601f82011682018060405250810190610c0e919061319e565b5073ffffffffffffffffffffffffffffffffffffffff7f000000000000000000000000000000000000000000000000000000000000000016638ae9c07b85610c5b601260208a013561333f565b8e8b8b604051602001610c6f929190613756565b6040516020818303038152906040526000806040518763ffffffff1660e01b8152600401610ca2969594939291906137b3565b6020604051808303816000875af1158015610cc1573d6000803e3d6000fd5b505050506040513d601f19601f82011682018060405250810190610ce5919061319e565b507f000000000000000000000000000000000000000000000000000000000000000073ffffffffffffffffffffffffffffffffffffffff16632bdfe0046040518163ffffffff1660e01b8152600401602060405180830381865afa158015610d51573d6000803e3d6000fd5b505050506040513d601f19601f82011682018060405250810190610d759190612fdc565b73ffffffffffffffffffffffffffffffffffffffff1663ad007d636040518163ffffffff1660e01b8152600401602060405180830381865afa158015610dbf573d6000803e3d6000fd5b505050506040513d601f19601f82011682018060405250810190610de39190612fdc565b73ffffffffffffffffffffffffffffffffffffffff1663529cdd2e60405180606001604052808e73ffffffffffffffffffffffffffffffffffffffff1681526020018781526020016001805480602002602001604051908101604052809291908181526020018280548015610e7757602002820191906000526020600020905b815481526020019060010190808311610e63575b50505050508152506040518263ffffffff1660e01b8152600401610e9b9190612ff9565b600060405180830381600087803b158015610eb557600080fd5b505af1158015610ec9573d6000803e3d6000fd5b50610ede9250505060e0860160c0870161381e565b610ef09065ffffffffffff1642613839565b60008581526002602052604090205550919998505050505050505050565b60007f000000000000000000000000000000000000000000000000000000000000000073ffffffffffffffffffffffffffffffffffffffff16638b79543c6040518163ffffffff1660e01b8152600401602060405180830381865afa158015610f7b573d6000803e3d6000fd5b505050506040513d601f19601f82011682018060405250810190610f9f9190612fdc565b73ffffffffffffffffffffffffffffffffffffffff163373ffffffffffffffffffffffffffffffffffffffff1614610fd657600080fd5b73ffffffffffffffffffffffffffffffffffffffff851615610ff757600080fd5b507f150b7a020000000000000000000000000000000000000000000000000000000095945050505050565b6040517f1f51045300000000000000000000000000000000000000000000000000000000815260048101829052600090819073ffffffffffffffffffffffffffffffffffffffff7f00000000000000000000000000000000000000000000000000000000000000001690631f510453906024016103c060405180830381865afa1580156110b3573d6000803e3d6000fd5b505050506040513d601f19601f820116820180604052508101906110d79190613a21565b5081519193509150600114611118576040517fc97554fa00000000000000000000000000000000000000000000000000000000815260040160405180910390fd5b60408051608080820183528481015182526000602080840182905260c08088015185870152606080860184905286516102a0810188526102408101858152610260820186905261028082018690528152808401859052888801518189015290810184905293840183905260a08401839052830182905260e08301829052610100830182905261012083018290526101408301829052610160830182905261018083018290526101a083018290526101c083018290526101e083018290526102008087015173ffffffffffffffffffffffffffffffffffffffff908116918501919091526102208781015190850152888352600282528583205486518481529283019096527f0000000000000000000000000000000000000000000000000000000000000000169463badbdf289489949093909290611279565b6040805180820190915260008152606060208201528152602001906001900390816112515790505b506040805160008082526020820190925290611308565b6112f56040518060c00160405280600073ffffffffffffffffffffffffffffffffffffffff168152602001600073ffffffffffffffffffffffffffffffffffffffff168152602001600081526020016000815260200160008152602001600081525090565b8152602001906001900390816112905790505b506040518763ffffffff1660e01b815260040161132a96959493929190613ad8565b6020604051808303816000875af1158015611349573d6000803e3d6000fd5b505050506040513d601f19601f8201168201806040525081019061136d919061319e565b50505050565b6006818154811061138357600080fd5b600091825260209091200154905081565b604080516001808252818301909252600091829190816020015b6040805180820190915260008152606060208201528152602001906001900390816113ae57505060408051600180825281830190925291925060009190602082015b6040805160e08101825260008082526020808301829052928201819052606082018190526080820181905260a0820181905260c082015282527fffffffffffffffffffffffffffffffffffffffffffffffffffffffffffffffff9092019101816113f05790505090506040518060e00160405280600015158152602001600015158152602001633b9aca008152602001600081526020018b73ffffffffffffffffffffffffffffffffffffffff16815260200160008152602001600073ffffffffffffffffffffffffffffffffffffffff16815250816001815181106114d8576114d861306a565b6020026020010181905250604051806040016040528060028152602001828152508260008151811061150c5761150c61306a565b6020026020010181905250507f000000000000000000000000000000000000000000000000000000000000000073ffffffffffffffffffffffffffffffffffffffff16638b79543c6040518163ffffffff1660e01b8152600401602060405180830381865afa158015611583573d6000803e3d6000fd5b505050506040513d601f19601f820116820180604052508101906115a79190612fdc565b73ffffffffffffffffffffffffffffffffffffffff1663666d87a0308a6040518363ffffffff1660e01b81526004016115e1929190613bcc565b6020604051808303816000875af1158015611600573d6000803e3d6000fd5b505050506040513d601f19601f82011682018060405250810190611624919061319e565b915060007f000000000000000000000000000000000000000000000000000000000000000073ffffffffffffffffffffffffffffffffffffffff1663619306306040518163ffffffff1660e01b8152600401602060405180830381865afa158015611693573d6000803e3d6000fd5b505050506040513d601f19601f820116820180604052508101906116b79190612fdc565b73ffffffffffffffffffffffffffffffffffffffff1663a7f2a70b848a8a6040518463ffffffff1660e01b81526004016116f393929190613c1a565b6020604051808303816000875af1158015611712573d6000803e3d6000fd5b505050506040513d601f19601f820116820180604052508101906117369190612fdc565b600084815260036020908152604080832080547fffffffffffffffffffffffff000000000000000000000000000000000000000016905580516080810190915260608a0135815292935090917f000000000000000000000000000000000000000000000000000000000000000073ffffffffffffffffffffffffffffffffffffffff169163111d861b91879181016117d060128d3561333f565b81526020018b604001358152602001600073ffffffffffffffffffffffffffffffffffffffff1681525060405180610240016040528060405180606001604052806000151581526020016000151581526020016000151581525081526020018c60a0013581526020018c608001358152602001600081526020016000151581526020016000151581526020016000151581526020016000151581526020016001151581526020016000151581526020016000151581526020016000151581526020016000151581526020016000151581526020016001151581526020016000151581526020013073ffffffffffffffffffffffffffffffffffffffff1681526020018a60ff16815250600088600067ffffffffffffffff8111156118f6576118f661260a565b60405190808252806020026020018201604052801561198c57816020015b6119796040518060c00160405280600073ffffffffffffffffffffffffffffffffffffffff168152602001600073ffffffffffffffffffffffffffffffffffffffff168152602001600081526020016000815260200160008152602001600081525090565b8152602001906001900390816119145790505b5060006040518863ffffffff1660e01b81526004016119b19796959493929190613635565b6020604051808303816000875af11580156119d0573d6000803e3d6000fd5b505050506040513d601f19601f820116820180604052508101906119f4919061319e565b5073ffffffffffffffffffffffffffffffffffffffff7f000000000000000000000000000000000000000000000000000000000000000016638ae9c07b85611a41601260208c013561333f565b8e8c604051602001611a539190613c4f565b6040516020818303038152906040526000806040518763ffffffff1660e01b8152600401611a86969594939291906137b3565b6020604051808303816000875af1158015611aa5573d6000803e3d6000fd5b505050506040513d601f19601f82011682018060405250810190611ac9919061319e565b507f000000000000000000000000000000000000000000000000000000000000000073ffffffffffffffffffffffffffffffffffffffff16632bdfe0046040518163ffffffff1660e01b8152600401602060405180830381865afa158015611b35573d6000803e3d6000fd5b505050506040513d601f19601f82011682018060405250810190611b599190612fdc565b73ffffffffffffffffffffffffffffffffffffffff1663ad007d636040518163ffffffff1660e01b8152600401602060405180830381865afa158015611ba3573d6000803e3d6000fd5b505050506040513d601f19601f82011682018060405250810190611bc79190612fdc565b73ffffffffffffffffffffffffffffffffffffffff1663529cdd2e60405180606001604052808e73ffffffffffffffffffffffffffffffffffffffff1681526020018781526020016001805480602002602001604051908101604052809291908181526020018280548015611c5b57602002820191906000526020600020905b815481526020019060010190808311611c47575b50505050508152506040518263ffffffff1660e01b8152600401611c7f9190612ff9565b600060405180830381600087803b158015611c9957600080fd5b505af1158015611cad573d6000803e3d6000fd5b50611cc29250505060e0880160c0890161381e565b611cd49065ffffffffffff1642613839565b6000858152600260205260408120919091558651905b81811015611dae57878181518110611d0457611d0461306a565b6020026020010151600460008881526020019081526020016000208281548110611d3057611d3061306a565b600091825260209182902083516003929092020180547fffffffffffffffffffffffff00000000000000000000000000000000000000001673ffffffffffffffffffffffffffffffffffffffff90921691909117815590820151600182015560408201516002820190611da39082613d57565b505050600101611cea565b5050505050979650505050505050565b6001818154811061138357600080fd5b604080516000808252602082019092526060908190839081611e1a565b60408051606080820183526000808352602083015291810191909152815260200190600190039081611deb5790505b5060408051602081019091526000815291969195509350915050565b60046020528160005260406000208181548110611e5257600080fd5b600091825260209091206003909102018054600182015460028301805473ffffffffffffffffffffffffffffffffffffffff909316955090935090611e9690613cbb565b80601f0160208091040260200160405190810160405280929190818152602001828054611ec290613cbb565b8015611f0f5780601f10611ee457610100808354040283529160200191611f0f565b820191906000526020600020905b815481529060010190602001808311611ef257829003601f168201915b5050505050905083565b60007f000000000000000000000000000000000000000000000000000000000000000073ffffffffffffffffffffffffffffffffffffffff16638b79543c6040518163ffffffff1660e01b8152600401602060405180830381865afa158015611f86573d6000803e3d6000fd5b505050506040513d601f19601f82011682018060405250810190611faa9190612fdc565b73ffffffffffffffffffffffffffffffffffffffff166306661abd6040518163ffffffff1660e01b8152600401602060405180830381865afa158015611ff4573d6000803e3d6000fd5b505050506040513d601f19601f82011682018060405250810190612018919061319e565b612023906001613839565b905060007f000000000000000000000000000000000000000000000000000000000000000073ffffffffffffffffffffffffffffffffffffffff1663cb5720fb83887f00000000000000000000000000000000000000000000000000000000000000006040518463ffffffff1660e01b81526004016120a4939291906141a2565b6020604051808303816000875af11580156120c3573d6000803e3d6000fd5b505050506040513d601f19601f820116820180604052508101906120e79190612fdc565b90508360006120f7826001613839565b67ffffffffffffffff81111561210f5761210f61260a565b60405190808252806020026020018201604052801561215c57816020015b6040805160608082018352600080835260208301529181019190915281526020019060019003908161212d5790505b50905060005b828110156121bc5787878281811061217c5761217c61306a565b905060200281019061218e9190614397565b612197906143d5565b8282815181106121a9576121a961306a565b6020908102919091010152600101612162565b5060405180606001604052808473ffffffffffffffffffffffffffffffffffffffff16815260200160008152602001604051806020016040528060008152508152508183815181106122105761221061306a565b60200260200101819052506106268d8d8d8d8d868b611394565b60c08101356000908152600360205260408082205490517fd46cf1710000000000000000000000000000000000000000000000000000000081526060918291829173ffffffffffffffffffffffffffffffffffffffff169063d46cf17190612296908890600401614423565b600060405180830381865afa1580156122b3573d6000803e3d6000fd5b505050506040513d6000823e601f3d9081017fffffffffffffffffffffffffffffffffffffffffffffffffffffffffffffffe01682016040526122f99190810190614597565b60c088013560009081526004602090815260408083208054825181850281018501909352808352969a509396509194919350849084015b828210156124215760008481526020908190206040805160608101825260038602909201805473ffffffffffffffffffffffffffffffffffffffff1683526001810154938301939093526002830180549293929184019161239090613cbb565b80601f01602080910402602001604051908101604052809291908181526020018280546123bc90613cbb565b80156124095780601f106123de57610100808354040283529160200191612409565b820191906000526020600020905b8154815290600101906020018083116123ec57829003601f168201915b50505050508152505081526020019060010190612330565b5050825192935061243791508290506001613839565b67ffffffffffffffff81111561244f5761244f61260a565b60405190808252806020026020018201604052801561249c57816020015b6040805160608082018352600080835260208301529181019190915281526020019060019003908161246d5790505b50935060005b818110156124e9578281815181106124bc576124bc61306a565b60200260200101518582815181106124d6576124d661306a565b60209081029190910101526001016124a2565b50826000815181106124fd576124fd61306a565b60200260200101518482815181106125175761251761306a565b6020908102919091010152612530610160880188614710565b8080601f016020809104026020016040519081016040528093929190818152602001838380828437600092019190915250989a9299509597509095505050505050565b60006020828403121561258557600080fd5b81357fffffffff00000000000000000000000000000000000000000000000000000000811681146125b557600080fd5b9392505050565b6000602082840312156125ce57600080fd5b5035919050565b73ffffffffffffffffffffffffffffffffffffffff811681146125f757600080fd5b50565b8035612605816125d5565b919050565b7f4e487b7100000000000000000000000000000000000000000000000000000000600052604160045260246000fd5b6040516060810167ffffffffffffffff8111828210171561265c5761265c61260a565b60405290565b604051610240810167ffffffffffffffff8111828210171561265c5761265c61260a565b604051610120810167ffffffffffffffff8111828210171561265c5761265c61260a565b604051601f82017fffffffffffffffffffffffffffffffffffffffffffffffffffffffffffffffe016810167ffffffffffffffff811182821017156126f1576126f161260a565b604052919050565b600067ffffffffffffffff8211156127135761271361260a565b50601f017fffffffffffffffffffffffffffffffffffffffffffffffffffffffffffffffe01660200190565b600061275261274d846126f9565b6126aa565b905082815283838301111561276657600080fd5b828260208301376000602084830101529392505050565b600082601f83011261278e57600080fd5b6125b58383356020850161273f565b6000604082840312156127af57600080fd5b6040516040810167ffffffffffffffff82821081831117156127d3576127d361260a565b8160405282935084359150808211156127eb57600080fd5b506127f88582860161277d565b825250602083013560208201525092915050565b600060e0828403121561281e57600080fd5b50919050565b60006101c0828403121561281e57600080fd5b60008083601f84011261284957600080fd5b50813567ffffffffffffffff81111561286157600080fd5b6020830191508360208260051b850101111561287c57600080fd5b9250929050565b803560ff8116811461260557600080fd5b60008060008060008060008060006101c08a8c0312156128b357600080fd5b6128bc8a6125fa565b985060208a013567ffffffffffffffff808211156128d957600080fd5b6128e58d838e0161279d565b995060408c01359150808211156128fb57600080fd5b6129078d838e0161277d565b985060608c013591508082111561291d57600080fd5b6129298d838e0161277d565b97506129388d60808e0161280c565b96506101608c013591508082111561294f57600080fd5b61295b8d838e01612824565b95506101808c013591508082111561297257600080fd5b5061297f8c828d01612837565b909450925061299390506101a08b01612883565b90509295985092959850929598565b60008083601f8401126129b457600080fd5b50813567ffffffffffffffff8111156129cc57600080fd5b60208301915083602082850101111561287c57600080fd5b6000806000806000806000610160888a031215612a0057600080fd5b8735612a0b816125d5565b9650602088013567ffffffffffffffff80821115612a2857600080fd5b908901906040828c031215612a3c57600080fd5b90965060408901359080821115612a5257600080fd5b612a5e8b838c016129a2565b909750955060608a0135915080821115612a7757600080fd5b50612a848a828b016129a2565b9094509250612a9890508960808a0161280c565b905092959891949750929550565b600080600080600060808688031215612abe57600080fd5b8535612ac9816125d5565b94506020860135612ad9816125d5565b935060408601359250606086013567ffffffffffffffff811115612afc57600080fd5b612b08888289016129a2565b969995985093965092949392505050565b600067ffffffffffffffff821115612b3357612b3361260a565b5060051b60200190565b600060608284031215612b4f57600080fd5b612b57612639565b90508135612b64816125d5565b815260208281013590820152604082013567ffffffffffffffff811115612b8a57600080fd5b8201601f81018413612b9b57600080fd5b612baa8482356020840161273f565b60408301525092915050565b600082601f830112612bc757600080fd5b81356020612bd761274d83612b19565b82815260059290921b84018101918181019086841115612bf657600080fd5b8286015b84811015612c3657803567ffffffffffffffff811115612c1a5760008081fd5b612c288986838b0101612b3d565b845250918301918301612bfa565b509695505050505050565b60008060008060008060006101a0888a031215612c5d57600080fd5b612c66886125fa565b9650602088013567ffffffffffffffff80821115612c8357600080fd5b612c8f8b838c0161279d565b975060408a0135915080821115612ca557600080fd5b612cb18b838c0161277d565b965060608a0135915080821115612cc757600080fd5b612cd38b838c0161277d565b9550612ce28b60808c0161280c565b94506101608a0135915080821115612cf957600080fd5b50612d068a828b01612bb6565b925050612a986101808901612883565b600060208284031215612d2857600080fd5b813567ffffffffffffffff811115612d3f57600080fd5b82016101e081850312156125b557600080fd5b60005b83811015612d6d578181015183820152602001612d55565b50506000910152565b60008151808452612d8e816020860160208601612d52565b601f017fffffffffffffffffffffffffffffffffffffffffffffffffffffffffffffffe0169290920160200192915050565b6000606085835260208181850152612dda82850187612d76565b6040858203818701528187518084528484019150848160051b850101858a0160005b83811015612e77578683037fffffffffffffffffffffffffffffffffffffffffffffffffffffffffffffffe00185528151805173ffffffffffffffffffffffffffffffffffffffff16845288810151898501528601518684018a9052612e648a850182612d76565b9589019593505090870190600101612dfc565b50909c9b505050505050505050505050565b60008060408385031215612e9c57600080fd5b50508035926020909101359150565b73ffffffffffffffffffffffffffffffffffffffff84168152826020820152606060408201526000612ee06060830184612d76565b95945050505050565b600060208284031215612efb57600080fd5b813567ffffffffffffffff811115612f1257600080fd5b82016101a081850312156125b557600080fd5b6000606085835260208181850152612f3f82850187612d76565b6040858203818701528187518084528484019150848160051b850101858a0160005b83811015612e77578683037fffffffffffffffffffffffffffffffffffffffffffffffffffffffffffffffe00185528151805173ffffffffffffffffffffffffffffffffffffffff16845288810151898501528601518684018a9052612fc98a850182612d76565b9589019593505090870190600101612f61565b600060208284031215612fee57600080fd5b81516125b5816125d5565b600060208083526080830173ffffffffffffffffffffffffffffffffffffffff85511682850152818501516040850152604085015160608086015281815180845260a0870191508483019350600092505b80831015612c36578351825292840192600192909201919084019061304a565b7f4e487b7100000000000000000000000000000000000000000000000000000000600052603260045260246000fd5b60008083357fffffffffffffffffffffffffffffffffffffffffffffffffffffffffffffffe18436030181126130ce57600080fd5b830160208101925035905067ffffffffffffffff8111156130ee57600080fd5b80360382131561287c57600080fd5b8183528181602085013750600060208284010152600060207fffffffffffffffffffffffffffffffffffffffffffffffffffffffffffffffe0601f840116840101905092915050565b73ffffffffffffffffffffffffffffffffffffffff831681526040602082015260006131728384613099565b6040808501526131866080850182846130fd565b91505060208401356060840152809150509392505050565b6000602082840312156131b057600080fd5b5051919050565b8581526060602082015260006131d16060830186886130fd565b82810360408401526131e48185876130fd565b98975050505050505050565b7f4e487b7100000000000000000000000000000000000000000000000000000000600052601160045260246000fd5b600181815b8085111561327857817fffffffffffffffffffffffffffffffffffffffffffffffffffffffffffffffff0482111561325e5761325e6131f0565b8085161561326b57918102915b93841c9390800290613224565b509250929050565b60008261328f57506001610473565b8161329c57506000610473565b81600181146132b257600281146132bc576132d8565b6001915050610473565b60ff8411156132cd576132cd6131f0565b50506001821b610473565b5060208310610133831016604e8410600b84101617156132fb575081810a610473565b613305838361321f565b807fffffffffffffffffffffffffffffffffffffffffffffffffffffffffffffffff04821115613337576133376131f0565b029392505050565b60006125b560ff841683613280565b6133738282518051151582526020808201511515908301526040908101511515910152565b6020810151606083015260408101516080830152606081015160a083015260808101516133a460c084018215159052565b5060a081015180151560e08401525060c08101516101006133c88185018315159052565b60e083015191506101206133df8186018415159052565b908301519150610140906133f68583018415159052565b830151915061016061340b8582018415159052565b908301519150610180906134228583018415159052565b83015191506101a06134378582018415159052565b9083015191506101c09061344e8583018415159052565b83015191506101e06134638582018415159052565b9083015191506102009061347a8583018415159052565b830151915061022061348f8582018415159052565b9083015173ffffffffffffffffffffffffffffffffffffffff16610240850152909101516102609092019190915250565b600081518084526020808501808196508360051b810191508286016000805b8681101561359f578385038a52825180518652860151604087870181905281518188018190529188019160609081890190865b818110156135885785518051151584528c81015115158d8501528581015186850152848101518585015260808082015173ffffffffffffffffffffffffffffffffffffffff9081169186019190915260a0808301519086015260c0918201511690840152948b019460e090920191600101613512565b50509c89019c9750505092860192506001016134df565b509298975050505050505050565b600081518084526020808501945080840160005b8381101561362a578151805173ffffffffffffffffffffffffffffffffffffffff908116895284820151168489015260408082015190890152606080820151908901526080808201519089015260a0908101519088015260c090960195908201906001016135c1565b509495945050505050565b60006103c089835260206136828185018b80518252602081015160208301526040810151604083015273ffffffffffffffffffffffffffffffffffffffff60608201511660608301525050565b61368f60a085018a61334e565b87610320850152816103408501526136a9828501886134c0565b91508382036103608501526136be82876135ad565b848103610380860152855480825260008781528381209450918301915b8181101561370d57845473ffffffffffffffffffffffffffffffffffffffff16835260019485019492840192016136db565b50508481036103a0860152601b81527f4465706c6f7965642052657461696c69737420747265617375727900000000006020820152604081019c9b505050505050505050505050565b7f5072656d696e746564200000000000000000000000000000000000000000000081528183600a8301377f20746f6b656e732e0000000000000000000000000000000000000000000000009101600a810191909152601201919050565b86815285602082015273ffffffffffffffffffffffffffffffffffffffff8516604082015260c0606082015260006137ee60c0830186612d76565b93151560808301525090151560a090910152949350505050565b803565ffffffffffff8116811461260557600080fd5b60006020828403121561383057600080fd5b6125b582613808565b80820180821115610473576104736131f0565b8051612605816125d5565b80151581146125f757600080fd5b805161260581613857565b60006060828403121561388257600080fd5b61388a612639565b9050815161389781613857565b815260208201516138a781613857565b602082015260408201516138ba81613857565b604082015292915050565b600061028082840312156138d857600080fd5b6138e0612662565b90506138ec8383613870565b8152606082015160208201526080820151604082015260a0820151606082015261391860c08301613865565b608082015261392960e08301613865565b60a082015261010061393c818401613865565b60c083015261012061394f818501613865565b60e0840152610140613962818601613865565b838501526101609250613976838601613865565b82850152610180915061398a828601613865565b908401526101a061399c858201613865565b838501526101c092506139b0838601613865565b828501526101e091506139c4828601613865565b908401526102006139d6858201613865565b8385015261022092506139ea838601613865565b828501526139fb610240860161384c565b818501525050610260830151818301525092915050565b80516003811061260557600080fd5b60008060008385036103c0811215613a3857600080fd5b61012080821215613a4857600080fd5b613a50612686565b9150855182526020860151602083015260408601516040830152606086015160608301526080860151608083015260a086015160a083015260c086015160c0830152613a9e60e0870161384c565b60e0830152610100808701518184015250819450613abe878288016138c5565b93505050613acf6103a08501613a12565b90509250925092565b60006103a0888352613b24602084018980518252602081015160208301526040810151604083015273ffffffffffffffffffffffffffffffffffffffff60608201511660608301525050565b613b3160a084018861334e565b8561032084015280610340840152613b4b818401866134c0565b9050828103610360840152613b6081856135ad565b838103610380909401939093525050603481527f5363686564756c6564207265736572766564207261746520657870697279206f60208201527f662052657461696c69737420747265617375727900000000000000000000000060408201526060019695505050505050565b73ffffffffffffffffffffffffffffffffffffffff831681526040602082015260008251604080840152613c036080840182612d76565b905060208401516060840152809150509392505050565b838152606060208201526000613c336060830185612d76565b8281036040840152613c458185612d76565b9695505050505050565b7f5072656d696e7465642000000000000000000000000000000000000000000000815260008251613c8781600a850160208701612d52565b7f20746f6b656e732e000000000000000000000000000000000000000000000000600a939091019283015250601201919050565b600181811c90821680613ccf57607f821691505b60208210810361281e577f4e487b7100000000000000000000000000000000000000000000000000000000600052602260045260246000fd5b601f821115613d5257600081815260208120601f850160051c81016020861015613d2f5750805b601f850160051c820191505b81811015613d4e57828155600101613d3b565b5050505b505050565b815167ffffffffffffffff811115613d7157613d7161260a565b613d8581613d7f8454613cbb565b84613d08565b602080601f831160018114613dd85760008415613da25750858301515b7fffffffffffffffffffffffffffffffffffffffffffffffffffffffffffffffff600386901b1c1916600185901b178555613d4e565b6000858152602081207fffffffffffffffffffffffffffffffffffffffffffffffffffffffffffffffe08616915b82811015613e2557888601518255948401946001909101908401613e06565b5085821015613e6157878501517fffffffffffffffffffffffffffffffffffffffffffffffffffffffffffffffff600388901b60f8161c191681555b5050505050600190811b01905550565b600082357fffffffffffffffffffffffffffffffffffffffffffffffffffffffffffffff81833603018112613ea557600080fd5b90910192915050565b80356cffffffffffffffffffffffffff8116811461260557600080fd5b803563ffffffff8116811461260557600080fd5b803561ffff8116811461260557600080fd5b803562ffffff8116811461260557600080fd5b803561260581613857565b6000608080840183357fffffffffffffffffffffffffffffffffffffffffffffffffffffffffffffffe1853603018112613f4857600080fd5b8401602081810191359067ffffffffffffffff821115613f6757600080fd5b6101608083023603841315613f7b57600080fd5b8589529382905260a09384890160005b8481101561409657613fb382613fa088613eae565b6cffffffffffffffffffffffffff169052565b613fbe848701613ecb565b63ffffffff16848301526040613fd5878201613ecb565b63ffffffff16908301526060613fec878201613edf565b61ffff1690830152613fff8689016125fa565b73ffffffffffffffffffffffffffffffffffffffff1688830152858701358783015260c061402e818801613ef1565b62ffffff169083015260e0614044878201613f04565b151590830152610100614058878201613f04565b15159083015261012061406c878201613f04565b151590830152610140614080878201613f04565b1515908301529482019490820190600101613f8b565b506140a2838a01613808565b65ffffffffffff81168b85015296506140bd60408a01613808565b65ffffffffffff811660408c015296506140d960608a016125fa565b73ffffffffffffffffffffffffffffffffffffffff811660608c015296509998505050505050505050565b803561410f81613857565b15158252602081013561412181613857565b15156020830152604081013561413681613857565b15156040830152606081013561414b81613857565b8015156060840152505050565b80356002811061260557600080fd5b6002811061419e577f4e487b7100000000000000000000000000000000000000000000000000000000600052602160045260246000fd5b9052565b8381526060602082015260006141b88485613099565b6101c060608501526141cf610220850182846130fd565b9150506141df6020860186613099565b7fffffffffffffffffffffffffffffffffffffffffffffffffffffffffffffffa0808685030160808701526142158483856130fd565b9350614223604089016125fa565b73ffffffffffffffffffffffffffffffffffffffff811660a0880152925061424e6060890189613099565b93509150808685030160c08701526142678484846130fd565b9350614275608089016125fa565b73ffffffffffffffffffffffffffffffffffffffff811660e088015292506142a060a0890189613099565b935091506101008187860301818801526142bb8585856130fd565b94506142ca60c08a018a613e71565b935061012092508187860301838801526142e48585613f0f565b94506142f260e08a016125fa565b73ffffffffffffffffffffffffffffffffffffffff8116610140890152935061431c818a016125fa565b9350505061434361016086018373ffffffffffffffffffffffffffffffffffffffff169052565b6143536101808601828901614104565b50506143626101a08601614158565b614370610200850182614167565b5073ffffffffffffffffffffffffffffffffffffffff841660408401529050949350505050565b600082357fffffffffffffffffffffffffffffffffffffffffffffffffffffffffffffffa18336030181126143cb57600080fd5b9190910192915050565b60006104733683612b3d565b80356143ec816125d5565b73ffffffffffffffffffffffffffffffffffffffff1682526020818101359083015260408082013590830152606090810135910152565b6020815261445160208201614437846125fa565b73ffffffffffffffffffffffffffffffffffffffff169052565b600061445f602084016125fa565b73ffffffffffffffffffffffffffffffffffffffff811660408401525061448c60608301604085016143e1565b60c083013560e083015261010060e0840135818401526144ad8185016125fa565b90506101206144d38185018373ffffffffffffffffffffffffffffffffffffffff169052565b610140915080850135828501525061016081850135818501526144f881860186613099565b925090506101a061018081818701526145166101c0870185856130fd565b935061452481880188613099565b935090507fffffffffffffffffffffffffffffffffffffffffffffffffffffffffffffffe0868503018287015261455c8484836130fd565b979650505050505050565b600061457561274d846126f9565b905082815283838301111561458957600080fd5b6125b5836020830184612d52565b6000806000606084860312156145ac57600080fd5b8351925060208085015167ffffffffffffffff808211156145cc57600080fd5b818701915087601f8301126145e057600080fd5b6145ee888351858501614567565b9450604087015191508082111561460457600080fd5b818701915087601f83011261461857600080fd5b815161462661274d82612b19565b81815260059190911b8301840190848101908a83111561464557600080fd5b8585015b838110156146ff5780518581111561466057600080fd5b86016060818e037fffffffffffffffffffffffffffffffffffffffffffffffffffffffffffffffe001121561469457600080fd5b61469c612639565b888201516146a9816125d5565b81526040820151898201526060820151878111156146c657600080fd5b8083019250508d603f8301126146db57600080fd5b6146ec8e8a84015160408501614567565b6040820152845250918601918601614649565b508096505050505050509250925092565b60008083357fffffffffffffffffffffffffffffffffffffffffffffffffffffffffffffffe184360301811261474557600080fd5b83018035915067ffffffffffffffff82111561476057600080fd5b60200191503681900382131561287c57600080fdfea264697066735822122020445a071c60432338143757d457072d125f9942765be9227965d4a1ea1a6c4764736f6c63430008140033",
    "linkReferences": {}
  },
  "methodIdentifiers": {
    "buybackDelegateDataSourceOf(uint256)": "ef8eadd5",
    "controller()": "f77c4791",
    "croptopPermissionIndexes(uint256)": "42921698",
    "delegateAllocationsOf(uint256,uint256)": "abc603e3",
    "delegateDeployer()": "8f3d964b",
    "deployBasicProjectFor(address,(string,uint256),string,string,(uint256,uint256,uint256,uint256,uint256,uint256,uint48))": "0e53d9cc",
    "deployCroptopTiered721PayAllocatorProjectFor(address,(string,uint256),string,string,(uint256,uint256,uint256,uint256,uint256,uint256,uint48),(string,string,address,string,address,string,((uint104,uint32,uint32,uint16,address,bytes32,uint24,bool,bool,bool,bool)[],uint48,uint48,address),address,address,(bool,bool,bool,bool),uint8),(address,uint256,bytes)[],uint8)": "0a3d4b1b",
    "deployPayAllocatorProjectFor(address,(string,uint256),string,string,(uint256,uint256,uint256,uint256,uint256,uint256,uint48),(address,uint256,bytes)[],uint8)": "4e777fd7",
    "deployTiered721PayAllocatorProjectFor(address,(string,uint256),string,string,(uint256,uint256,uint256,uint256,uint256,uint256,uint48),(string,string,address,string,address,string,((uint104,uint32,uint32,uint16,address,bytes32,uint24,bool,bool,bool,bool)[],uint48,uint48,address),address,address,(bool,bool,bool,bool),uint8),(address,uint256,bytes)[],uint8)": "c7e221d7",
    "directory()": "c41c2f24",
    "onERC721Received(address,address,uint256,bytes)": "150b7a02",
    "payParams((address,address,(address,uint256,uint256,uint256),uint256,uint256,address,uint256,uint256,string,bytes))": "d46cf171",
    "permissionIndexes(uint256)": "9483e771",
    "publisher()": "8c72c54e",
    "reconfigurationStartTimestampOf(uint256)": "560f7b03",
    "redeemParams((address,address,uint256,uint256,uint256,uint256,uint256,(address,uint256,uint256,uint256),bool,uint256,string,bytes))": "a51cfd18",
    "scheduleReconfigurationOf(uint256)": "3ce6d3e2",
    "supportsInterface(bytes4)": "01ffc9a7",
    "terminals(uint256)": "0219758e"
  },
  "id": 73
}