{
  "abi": [
    {
      "inputs": [
        {
          "internalType": "contract CroptopPublisher",
          "name": "_publisher",
          "type": "address"
        },
        {
          "internalType": "contract IJBDirectory",
          "name": "_directory",
          "type": "address"
        },
        {
          "internalType": "contract IJBTiered721DelegateDeployer",
          "name": "_delegateDeployer",
          "type": "address"
        },
        {
          "internalType": "contract IJBController3_1",
          "name": "_controller",
          "type": "address"
        },
        {
          "internalType": "contract IJBPayoutRedemptionPaymentTerminal3_1_1",
          "name": "_terminal",
          "type": "address"
        },
        {
          "internalType": "contract IJBGenericBuybackDelegate",
          "name": "_buybackDelegate",
          "type": "address"
        }
      ],
      "stateMutability": "nonpayable",
      "type": "constructor"
    },
    {
      "inputs": [],
      "name": "RECONFIGURATION_ALREADY_SCHEDULED",
      "type": "error"
    },
    {
      "inputs": [],
      "name": "buybackDelegate",
      "outputs": [
        {
          "internalType": "contract IJBGenericBuybackDelegate",
          "name": "",
          "type": "address"
        }
      ],
      "stateMutability": "view",
      "type": "function"
    },
    {
      "inputs": [],
      "name": "controller",
      "outputs": [
        {
          "internalType": "contract IJBController3_1",
          "name": "",
          "type": "address"
        }
      ],
      "stateMutability": "view",
      "type": "function"
    },
    {
      "inputs": [
        {
          "internalType": "uint256",
          "name": "",
          "type": "uint256"
        }
      ],
      "name": "croptopPermissionIndexes",
      "outputs": [
        {
          "internalType": "uint256",
          "name": "",
          "type": "uint256"
        }
      ],
      "stateMutability": "view",
      "type": "function"
    },
    {
      "inputs": [
        {
          "internalType": "uint256",
          "name": "",
          "type": "uint256"
        },
        {
          "internalType": "uint256",
          "name": "",
          "type": "uint256"
        }
      ],
      "name": "delegateAllocationsOf",
      "outputs": [
        {
          "internalType": "contract IJBPayDelegate3_1_1",
          "name": "delegate",
          "type": "address"
        },
        {
          "internalType": "uint256",
          "name": "amount",
          "type": "uint256"
        },
        {
          "internalType": "bytes",
          "name": "metadata",
          "type": "bytes"
        }
      ],
      "stateMutability": "view",
      "type": "function"
    },
    {
      "inputs": [],
      "name": "delegateDeployer",
      "outputs": [
        {
          "internalType": "contract IJBTiered721DelegateDeployer",
          "name": "",
          "type": "address"
        }
      ],
      "stateMutability": "view",
      "type": "function"
    },
    {
      "inputs": [
        {
          "internalType": "address",
          "name": "_operator",
          "type": "address"
        },
        {
          "components": [
            {
              "internalType": "string",
              "name": "content",
              "type": "string"
            },
            {
              "internalType": "uint256",
              "name": "domain",
              "type": "uint256"
            }
          ],
          "internalType": "struct JBProjectMetadata",
          "name": "_projectMetadata",
          "type": "tuple"
        },
        {
          "internalType": "string",
          "name": "_name",
          "type": "string"
        },
        {
          "internalType": "string",
          "name": "_symbol",
          "type": "string"
        },
        {
          "components": [
            {
              "internalType": "uint256",
              "name": "initialIssuanceRate",
              "type": "uint256"
            },
            {
              "internalType": "uint256",
              "name": "premintTokenAmount",
              "type": "uint256"
            },
            {
              "internalType": "uint256",
              "name": "discountRate",
              "type": "uint256"
            },
            {
              "internalType": "uint256",
              "name": "cycleDurations",
              "type": "uint256"
            },
            {
              "internalType": "uint256",
              "name": "redemptionRate",
              "type": "uint256"
            },
            {
              "internalType": "uint256",
              "name": "reservedRate",
              "type": "uint256"
            },
            {
              "internalType": "uint48",
              "name": "reservedRateDuration",
              "type": "uint48"
            },
            {
              "internalType": "uint24",
              "name": "poolFee",
              "type": "uint24"
            }
          ],
          "internalType": "struct BasicRetailistJBParams",
          "name": "_data",
          "type": "tuple"
        }
      ],
      "name": "deployBasicProjectFor",
      "outputs": [
        {
          "internalType": "uint256",
          "name": "projectId",
          "type": "uint256"
        }
      ],
      "stateMutability": "nonpayable",
      "type": "function"
    },
    {
      "inputs": [
        {
          "internalType": "address",
          "name": "_operator",
          "type": "address"
        },
        {
          "components": [
            {
              "internalType": "string",
              "name": "content",
              "type": "string"
            },
            {
              "internalType": "uint256",
              "name": "domain",
              "type": "uint256"
            }
          ],
          "internalType": "struct JBProjectMetadata",
          "name": "_projectMetadata",
          "type": "tuple"
        },
        {
          "internalType": "string",
          "name": "_name",
          "type": "string"
        },
        {
          "internalType": "string",
          "name": "_symbol",
          "type": "string"
        },
        {
          "components": [
            {
              "internalType": "uint256",
              "name": "initialIssuanceRate",
              "type": "uint256"
            },
            {
              "internalType": "uint256",
              "name": "premintTokenAmount",
              "type": "uint256"
            },
            {
              "internalType": "uint256",
              "name": "discountRate",
              "type": "uint256"
            },
            {
              "internalType": "uint256",
              "name": "cycleDurations",
              "type": "uint256"
            },
            {
              "internalType": "uint256",
              "name": "redemptionRate",
              "type": "uint256"
            },
            {
              "internalType": "uint256",
              "name": "reservedRate",
              "type": "uint256"
            },
            {
              "internalType": "uint48",
              "name": "reservedRateDuration",
              "type": "uint48"
            },
            {
              "internalType": "uint24",
              "name": "poolFee",
              "type": "uint24"
            }
          ],
          "internalType": "struct BasicRetailistJBParams",
          "name": "_data",
          "type": "tuple"
        },
        {
          "components": [
            {
              "internalType": "string",
              "name": "name",
              "type": "string"
            },
            {
              "internalType": "string",
              "name": "symbol",
              "type": "string"
            },
            {
              "internalType": "contract IJBFundingCycleStore",
              "name": "fundingCycleStore",
              "type": "address"
            },
            {
              "internalType": "string",
              "name": "baseUri",
              "type": "string"
            },
            {
              "internalType": "contract IJB721TokenUriResolver",
              "name": "tokenUriResolver",
              "type": "address"
            },
            {
              "internalType": "string",
              "name": "contractUri",
              "type": "string"
            },
            {
              "components": [
                {
                  "components": [
                    {
                      "internalType": "uint104",
                      "name": "price",
                      "type": "uint104"
                    },
                    {
                      "internalType": "uint32",
                      "name": "initialQuantity",
                      "type": "uint32"
                    },
                    {
                      "internalType": "uint32",
                      "name": "votingUnits",
                      "type": "uint32"
                    },
                    {
                      "internalType": "uint16",
                      "name": "reservedRate",
                      "type": "uint16"
                    },
                    {
                      "internalType": "address",
                      "name": "reservedTokenBeneficiary",
                      "type": "address"
                    },
                    {
                      "internalType": "bytes32",
                      "name": "encodedIPFSUri",
                      "type": "bytes32"
                    },
                    {
                      "internalType": "uint24",
                      "name": "category",
                      "type": "uint24"
                    },
                    {
                      "internalType": "bool",
                      "name": "allowManualMint",
                      "type": "bool"
                    },
                    {
                      "internalType": "bool",
                      "name": "shouldUseReservedTokenBeneficiaryAsDefault",
                      "type": "bool"
                    },
                    {
                      "internalType": "bool",
                      "name": "transfersPausable",
                      "type": "bool"
                    },
                    {
                      "internalType": "bool",
                      "name": "useVotingUnits",
                      "type": "bool"
                    }
                  ],
                  "internalType": "struct JB721TierParams[]",
                  "name": "tiers",
                  "type": "tuple[]"
                },
                {
                  "internalType": "uint48",
                  "name": "currency",
                  "type": "uint48"
                },
                {
                  "internalType": "uint48",
                  "name": "decimals",
                  "type": "uint48"
                },
                {
                  "internalType": "contract IJBPrices",
                  "name": "prices",
                  "type": "address"
                }
              ],
              "internalType": "struct JB721PricingParams",
              "name": "pricing",
              "type": "tuple"
            },
            {
              "internalType": "address",
              "name": "reservedTokenBeneficiary",
              "type": "address"
            },
            {
              "internalType": "contract IJBTiered721DelegateStore",
              "name": "store",
              "type": "address"
            },
            {
              "components": [
                {
                  "internalType": "bool",
                  "name": "lockReservedTokenChanges",
                  "type": "bool"
                },
                {
                  "internalType": "bool",
                  "name": "lockVotingUnitChanges",
                  "type": "bool"
                },
                {
                  "internalType": "bool",
                  "name": "lockManualMintingChanges",
                  "type": "bool"
                },
                {
                  "internalType": "bool",
                  "name": "preventOverspending",
                  "type": "bool"
                }
              ],
              "internalType": "struct JBTiered721Flags",
              "name": "flags",
              "type": "tuple"
            },
            {
              "internalType": "enum JB721GovernanceType",
              "name": "governanceType",
              "type": "uint8"
            }
          ],
          "internalType": "struct JBDeployTiered721DelegateData",
          "name": "_deployTiered721DelegateData",
          "type": "tuple"
        },
        {
          "components": [
            {
              "internalType": "contract IJBPayDelegate3_1_1",
              "name": "delegate",
              "type": "address"
            },
            {
              "internalType": "uint256",
              "name": "amount",
              "type": "uint256"
            },
            {
              "internalType": "bytes",
              "name": "metadata",
              "type": "bytes"
            }
          ],
          "internalType": "struct JBPayDelegateAllocation3_1_1[]",
          "name": "_otherDelegateAllocations",
          "type": "tuple[]"
        },
        {
          "internalType": "uint8",
          "name": "_extraFundingCycleMetadata",
          "type": "uint8"
        },
        {
          "components": [
            {
              "internalType": "address",
              "name": "nft",
              "type": "address"
            },
            {
              "internalType": "uint256",
              "name": "category",
              "type": "uint256"
            },
            {
              "internalType": "uint256",
              "name": "minimumPrice",
              "type": "uint256"
            },
            {
              "internalType": "uint256",
              "name": "minimumTotalSupply",
              "type": "uint256"
            },
            {
              "internalType": "uint256",
              "name": "maximumTotalSupply",
              "type": "uint256"
            },
            {
              "internalType": "address[]",
              "name": "allowedAddresses",
              "type": "address[]"
            }
          ],
          "internalType": "struct AllowedPost[]",
          "name": "_allowedPosts",
          "type": "tuple[]"
        }
      ],
      "name": "deployCroptopTiered721PayAllocatorProjectFor",
      "outputs": [
        {
          "internalType": "uint256",
          "name": "projectId",
          "type": "uint256"
        }
      ],
      "stateMutability": "nonpayable",
      "type": "function"
    },
    {
      "inputs": [
        {
          "internalType": "address",
          "name": "_operator",
          "type": "address"
        },
        {
          "components": [
            {
              "internalType": "string",
              "name": "content",
              "type": "string"
            },
            {
              "internalType": "uint256",
              "name": "domain",
              "type": "uint256"
            }
          ],
          "internalType": "struct JBProjectMetadata",
          "name": "_projectMetadata",
          "type": "tuple"
        },
        {
          "internalType": "string",
          "name": "_name",
          "type": "string"
        },
        {
          "internalType": "string",
          "name": "_symbol",
          "type": "string"
        },
        {
          "components": [
            {
              "internalType": "uint256",
              "name": "initialIssuanceRate",
              "type": "uint256"
            },
            {
              "internalType": "uint256",
              "name": "premintTokenAmount",
              "type": "uint256"
            },
            {
              "internalType": "uint256",
              "name": "discountRate",
              "type": "uint256"
            },
            {
              "internalType": "uint256",
              "name": "cycleDurations",
              "type": "uint256"
            },
            {
              "internalType": "uint256",
              "name": "redemptionRate",
              "type": "uint256"
            },
            {
              "internalType": "uint256",
              "name": "reservedRate",
              "type": "uint256"
            },
            {
              "internalType": "uint48",
              "name": "reservedRateDuration",
              "type": "uint48"
            },
            {
              "internalType": "uint24",
              "name": "poolFee",
              "type": "uint24"
            }
          ],
          "internalType": "struct BasicRetailistJBParams",
          "name": "_data",
          "type": "tuple"
        },
        {
          "components": [
            {
              "internalType": "contract IJBPayDelegate3_1_1",
              "name": "delegate",
              "type": "address"
            },
            {
              "internalType": "uint256",
              "name": "amount",
              "type": "uint256"
            },
            {
              "internalType": "bytes",
              "name": "metadata",
              "type": "bytes"
            }
          ],
          "internalType": "struct JBPayDelegateAllocation3_1_1[]",
          "name": "_delegateAllocations",
          "type": "tuple[]"
        },
        {
          "internalType": "uint8",
          "name": "_extraFundingCycleMetadata",
          "type": "uint8"
        }
      ],
      "name": "deployPayAllocatorProjectFor",
      "outputs": [
        {
          "internalType": "uint256",
          "name": "projectId",
          "type": "uint256"
        }
      ],
      "stateMutability": "nonpayable",
      "type": "function"
    },
    {
      "inputs": [
        {
          "internalType": "address",
          "name": "_operator",
          "type": "address"
        },
        {
          "components": [
            {
              "internalType": "string",
              "name": "content",
              "type": "string"
            },
            {
              "internalType": "uint256",
              "name": "domain",
              "type": "uint256"
            }
          ],
          "internalType": "struct JBProjectMetadata",
          "name": "_projectMetadata",
          "type": "tuple"
        },
        {
          "internalType": "string",
          "name": "_name",
          "type": "string"
        },
        {
          "internalType": "string",
          "name": "_symbol",
          "type": "string"
        },
        {
          "components": [
            {
              "internalType": "uint256",
              "name": "initialIssuanceRate",
              "type": "uint256"
            },
            {
              "internalType": "uint256",
              "name": "premintTokenAmount",
              "type": "uint256"
            },
            {
              "internalType": "uint256",
              "name": "discountRate",
              "type": "uint256"
            },
            {
              "internalType": "uint256",
              "name": "cycleDurations",
              "type": "uint256"
            },
            {
              "internalType": "uint256",
              "name": "redemptionRate",
              "type": "uint256"
            },
            {
              "internalType": "uint256",
              "name": "reservedRate",
              "type": "uint256"
            },
            {
              "internalType": "uint48",
              "name": "reservedRateDuration",
              "type": "uint48"
            },
            {
              "internalType": "uint24",
              "name": "poolFee",
              "type": "uint24"
            }
          ],
          "internalType": "struct BasicRetailistJBParams",
          "name": "_data",
          "type": "tuple"
        },
        {
          "components": [
            {
              "internalType": "string",
              "name": "name",
              "type": "string"
            },
            {
              "internalType": "string",
              "name": "symbol",
              "type": "string"
            },
            {
              "internalType": "contract IJBFundingCycleStore",
              "name": "fundingCycleStore",
              "type": "address"
            },
            {
              "internalType": "string",
              "name": "baseUri",
              "type": "string"
            },
            {
              "internalType": "contract IJB721TokenUriResolver",
              "name": "tokenUriResolver",
              "type": "address"
            },
            {
              "internalType": "string",
              "name": "contractUri",
              "type": "string"
            },
            {
              "components": [
                {
                  "components": [
                    {
                      "internalType": "uint104",
                      "name": "price",
                      "type": "uint104"
                    },
                    {
                      "internalType": "uint32",
                      "name": "initialQuantity",
                      "type": "uint32"
                    },
                    {
                      "internalType": "uint32",
                      "name": "votingUnits",
                      "type": "uint32"
                    },
                    {
                      "internalType": "uint16",
                      "name": "reservedRate",
                      "type": "uint16"
                    },
                    {
                      "internalType": "address",
                      "name": "reservedTokenBeneficiary",
                      "type": "address"
                    },
                    {
                      "internalType": "bytes32",
                      "name": "encodedIPFSUri",
                      "type": "bytes32"
                    },
                    {
                      "internalType": "uint24",
                      "name": "category",
                      "type": "uint24"
                    },
                    {
                      "internalType": "bool",
                      "name": "allowManualMint",
                      "type": "bool"
                    },
                    {
                      "internalType": "bool",
                      "name": "shouldUseReservedTokenBeneficiaryAsDefault",
                      "type": "bool"
                    },
                    {
                      "internalType": "bool",
                      "name": "transfersPausable",
                      "type": "bool"
                    },
                    {
                      "internalType": "bool",
                      "name": "useVotingUnits",
                      "type": "bool"
                    }
                  ],
                  "internalType": "struct JB721TierParams[]",
                  "name": "tiers",
                  "type": "tuple[]"
                },
                {
                  "internalType": "uint48",
                  "name": "currency",
                  "type": "uint48"
                },
                {
                  "internalType": "uint48",
                  "name": "decimals",
                  "type": "uint48"
                },
                {
                  "internalType": "contract IJBPrices",
                  "name": "prices",
                  "type": "address"
                }
              ],
              "internalType": "struct JB721PricingParams",
              "name": "pricing",
              "type": "tuple"
            },
            {
              "internalType": "address",
              "name": "reservedTokenBeneficiary",
              "type": "address"
            },
            {
              "internalType": "contract IJBTiered721DelegateStore",
              "name": "store",
              "type": "address"
            },
            {
              "components": [
                {
                  "internalType": "bool",
                  "name": "lockReservedTokenChanges",
                  "type": "bool"
                },
                {
                  "internalType": "bool",
                  "name": "lockVotingUnitChanges",
                  "type": "bool"
                },
                {
                  "internalType": "bool",
                  "name": "lockManualMintingChanges",
                  "type": "bool"
                },
                {
                  "internalType": "bool",
                  "name": "preventOverspending",
                  "type": "bool"
                }
              ],
              "internalType": "struct JBTiered721Flags",
              "name": "flags",
              "type": "tuple"
            },
            {
              "internalType": "enum JB721GovernanceType",
              "name": "governanceType",
              "type": "uint8"
            }
          ],
          "internalType": "struct JBDeployTiered721DelegateData",
          "name": "_deployTiered721DelegateData",
          "type": "tuple"
        },
        {
          "components": [
            {
              "internalType": "contract IJBPayDelegate3_1_1",
              "name": "delegate",
              "type": "address"
            },
            {
              "internalType": "uint256",
              "name": "amount",
              "type": "uint256"
            },
            {
              "internalType": "bytes",
              "name": "metadata",
              "type": "bytes"
            }
          ],
          "internalType": "struct JBPayDelegateAllocation3_1_1[]",
          "name": "_otherDelegateAllocations",
          "type": "tuple[]"
        },
        {
          "internalType": "uint8",
          "name": "_extraFundingCycleMetadata",
          "type": "uint8"
        }
      ],
      "name": "deployTiered721PayAllocatorProjectFor",
      "outputs": [
        {
          "internalType": "uint256",
          "name": "projectId",
          "type": "uint256"
        }
      ],
      "stateMutability": "nonpayable",
      "type": "function"
    },
    {
      "inputs": [],
      "name": "directory",
      "outputs": [
        {
          "internalType": "contract IJBDirectory",
          "name": "",
          "type": "address"
        }
      ],
      "stateMutability": "view",
      "type": "function"
    },
    {
      "inputs": [
        {
          "internalType": "address",
          "name": "_operator",
          "type": "address"
        },
        {
          "internalType": "address",
          "name": "_from",
          "type": "address"
        },
        {
          "internalType": "uint256",
          "name": "_tokenId",
          "type": "uint256"
        },
        {
          "internalType": "bytes",
          "name": "_data",
          "type": "bytes"
        }
      ],
      "name": "onERC721Received",
      "outputs": [
        {
          "internalType": "bytes4",
          "name": "",
          "type": "bytes4"
        }
      ],
      "stateMutability": "view",
      "type": "function"
    },
    {
      "inputs": [
        {
          "components": [
            {
              "internalType": "contract IJBPaymentTerminal",
              "name": "terminal",
              "type": "address"
            },
            {
              "internalType": "address",
              "name": "payer",
              "type": "address"
            },
            {
              "components": [
                {
                  "internalType": "address",
                  "name": "token",
                  "type": "address"
                },
                {
                  "internalType": "uint256",
                  "name": "value",
                  "type": "uint256"
                },
                {
                  "internalType": "uint256",
                  "name": "decimals",
                  "type": "uint256"
                },
                {
                  "internalType": "uint256",
                  "name": "currency",
                  "type": "uint256"
                }
              ],
              "internalType": "struct JBTokenAmount",
              "name": "amount",
              "type": "tuple"
            },
            {
              "internalType": "uint256",
              "name": "projectId",
              "type": "uint256"
            },
            {
              "internalType": "uint256",
              "name": "currentFundingCycleConfiguration",
              "type": "uint256"
            },
            {
              "internalType": "address",
              "name": "beneficiary",
              "type": "address"
            },
            {
              "internalType": "uint256",
              "name": "weight",
              "type": "uint256"
            },
            {
              "internalType": "uint256",
              "name": "reservedRate",
              "type": "uint256"
            },
            {
              "internalType": "string",
              "name": "memo",
              "type": "string"
            },
            {
              "internalType": "bytes",
              "name": "metadata",
              "type": "bytes"
            }
          ],
          "internalType": "struct JBPayParamsData",
          "name": "_data",
          "type": "tuple"
        }
      ],
      "name": "payParams",
      "outputs": [
        {
          "internalType": "uint256",
          "name": "weight",
          "type": "uint256"
        },
        {
          "internalType": "string",
          "name": "memo",
          "type": "string"
        },
        {
          "components": [
            {
              "internalType": "contract IJBPayDelegate3_1_1",
              "name": "delegate",
              "type": "address"
            },
            {
              "internalType": "uint256",
              "name": "amount",
              "type": "uint256"
            },
            {
              "internalType": "bytes",
              "name": "metadata",
              "type": "bytes"
            }
          ],
          "internalType": "struct JBPayDelegateAllocation3_1_1[]",
          "name": "delegateAllocations",
          "type": "tuple[]"
        }
      ],
      "stateMutability": "view",
      "type": "function"
    },
    {
      "inputs": [
        {
          "internalType": "uint256",
          "name": "",
          "type": "uint256"
        }
      ],
      "name": "permissionIndexes",
      "outputs": [
        {
          "internalType": "uint256",
          "name": "",
          "type": "uint256"
        }
      ],
      "stateMutability": "view",
      "type": "function"
    },
    {
      "inputs": [],
      "name": "publisher",
      "outputs": [
        {
          "internalType": "contract CroptopPublisher",
          "name": "",
          "type": "address"
        }
      ],
      "stateMutability": "view",
      "type": "function"
    },
    {
      "inputs": [
        {
          "internalType": "uint256",
          "name": "projectId",
          "type": "uint256"
        }
      ],
      "name": "reconfigurationStartTimestampOf",
      "outputs": [
        {
          "internalType": "uint256",
          "name": "",
          "type": "uint256"
        }
      ],
      "stateMutability": "view",
      "type": "function"
    },
    {
      "inputs": [
        {
          "components": [
            {
              "internalType": "contract IJBPaymentTerminal",
              "name": "terminal",
              "type": "address"
            },
            {
              "internalType": "address",
              "name": "holder",
              "type": "address"
            },
            {
              "internalType": "uint256",
              "name": "projectId",
              "type": "uint256"
            },
            {
              "internalType": "uint256",
              "name": "currentFundingCycleConfiguration",
              "type": "uint256"
            },
            {
              "internalType": "uint256",
              "name": "tokenCount",
              "type": "uint256"
            },
            {
              "internalType": "uint256",
              "name": "totalSupply",
              "type": "uint256"
            },
            {
              "internalType": "uint256",
              "name": "overflow",
              "type": "uint256"
            },
            {
              "components": [
                {
                  "internalType": "address",
                  "name": "token",
                  "type": "address"
                },
                {
                  "internalType": "uint256",
                  "name": "value",
                  "type": "uint256"
                },
                {
                  "internalType": "uint256",
                  "name": "decimals",
                  "type": "uint256"
                },
                {
                  "internalType": "uint256",
                  "name": "currency",
                  "type": "uint256"
                }
              ],
              "internalType": "struct JBTokenAmount",
              "name": "reclaimAmount",
              "type": "tuple"
            },
            {
              "internalType": "bool",
              "name": "useTotalOverflow",
              "type": "bool"
            },
            {
              "internalType": "uint256",
              "name": "redemptionRate",
              "type": "uint256"
            },
            {
              "internalType": "string",
              "name": "memo",
              "type": "string"
            },
            {
              "internalType": "bytes",
              "name": "metadata",
              "type": "bytes"
            }
          ],
          "internalType": "struct JBRedeemParamsData",
          "name": "_data",
          "type": "tuple"
        }
      ],
      "name": "redeemParams",
      "outputs": [
        {
          "internalType": "uint256",
          "name": "",
          "type": "uint256"
        },
        {
          "internalType": "string",
          "name": "",
          "type": "string"
        },
        {
          "components": [
            {
              "internalType": "contract IJBRedemptionDelegate3_1_1",
              "name": "delegate",
              "type": "address"
            },
            {
              "internalType": "uint256",
              "name": "amount",
              "type": "uint256"
            },
            {
              "internalType": "bytes",
              "name": "metadata",
              "type": "bytes"
            }
          ],
          "internalType": "struct JBRedemptionDelegateAllocation3_1_1[]",
          "name": "",
          "type": "tuple[]"
        }
      ],
      "stateMutability": "view",
      "type": "function"
    },
    {
      "inputs": [
        {
          "internalType": "uint256",
          "name": "_projectId",
          "type": "uint256"
        }
      ],
      "name": "scheduleReconfigurationOf",
      "outputs": [],
      "stateMutability": "nonpayable",
      "type": "function"
    },
    {
      "inputs": [
        {
          "internalType": "bytes4",
          "name": "_interfaceId",
          "type": "bytes4"
        }
      ],
      "name": "supportsInterface",
      "outputs": [
        {
          "internalType": "bool",
          "name": "",
          "type": "bool"
        }
      ],
      "stateMutability": "view",
      "type": "function"
    },
    {
      "inputs": [
        {
          "internalType": "uint256",
          "name": "",
          "type": "uint256"
        }
      ],
      "name": "terminals",
      "outputs": [
        {
          "internalType": "contract IJBPaymentTerminal",
          "name": "",
          "type": "address"
        }
      ],
      "stateMutability": "view",
      "type": "function"
    }
  ],
  "bytecode": {
    "object": "0x6101006040523480156200001257600080fd5b50604051620050fe380380620050fe833981016040819052620000359162000134565b6001600160a01b03928316608052821660a05260008054600181810183557f290decd9548b62a8d60345a988386fc84ba6bc95484008f6362f93160ef3e56390910180549385166001600160a01b03199485161790558054808201825560127fb10e2d527612073b26eecdfd717e6a320cf44b4afac2b0732d9fcbe2b7fa0cf69182015581548083018355601891015594831660c05292821660e052600480549590921694169390931790925560058054918201815590915260157f036b6384b5eca791c62761152d0c79bb0604c104a5fb6f4eb0703f3154bb3db090910155620001c8565b6001600160a01b03811681146200013157600080fd5b50565b60008060008060008060c087890312156200014e57600080fd5b86516200015b816200011b565b60208801519096506200016e816200011b565b604088015190955062000181816200011b565b606088015190945062000194816200011b565b6080880151909350620001a7816200011b565b60a0880151909250620001ba816200011b565b809150509295509295509295565b60805160a05160c05160e051614e54620002aa60003960008181610288015261243a01526000818161032c015281816120d5015261232e0152600081816103660152818161096d015281816109a601528181610a3501528181611883015281816118bc0152818161194b01528181611ba301526126330152600081816103af015281816104a50152818161073b0152818161084901528181610b6601528181610d9501528181610e550152818161118e015281816113410152818161164d0152818161175b01528181611a7c01528181611cdf0152611da10152614e546000f3fe608060405234801561001057600080fd5b50600436106101515760003560e01c80639483e771116100cd578063c41c2f2411610081578063d396752511610066578063d396752514610361578063d46cf17114610388578063f77c4791146103aa57600080fd5b8063c41c2f2414610327578063cfdc11b91461034e57600080fd5b8063a51cfd18116100b2578063a51cfd18146102d0578063ab69fea5146102f2578063abc603e31461030557600080fd5b80639483e771146102aa5780639a739a6d146102bd57600080fd5b80633ce6d3e211610124578063560f7b0311610109578063560f7b03146102435780638c72c54e146102635780638f3d964b1461028357600080fd5b80633ce6d3e21461021b578063429216981461023057600080fd5b806301ffc9a7146101565780630219758e1461017e578063150b7a02146101b6578063181f8e80146101fa575b600080fd5b610169610164366004612967565b6103d1565b60405190151581526020015b60405180910390f35b61019161018c3660046129b0565b61046a565b60405173ffffffffffffffffffffffffffffffffffffffff9091168152602001610175565b6101c96101c4366004612a47565b6104a1565b6040517fffffffff000000000000000000000000000000000000000000000000000000009091168152602001610175565b61020d610208366004612e0e565b6105b5565b604051908152602001610175565b61022e6102293660046129b0565b611145565b005b61020d61023e3660046129b0565b611496565b61020d6102513660046129b0565b60026020526000908152604090205481565b6004546101919073ffffffffffffffffffffffffffffffffffffffff1681565b6101917f000000000000000000000000000000000000000000000000000000000000000081565b61020d6102b83660046129b0565b6114b7565b61020d6102cb366004612ef1565b6114c7565b6102e36102de366004612fa5565b611fc4565b6040516101759392919061304f565b61020d610300366004613170565b61202c565b6103186103133660046132b6565b612247565b604051610175939291906132d8565b6101917f000000000000000000000000000000000000000000000000000000000000000081565b61020d61035c366004613316565b61232a565b6101917f000000000000000000000000000000000000000000000000000000000000000081565b61039b610396366004613424565b61262a565b60405161017593929190613460565b6101917f000000000000000000000000000000000000000000000000000000000000000081565b60007fffffffff0000000000000000000000000000000000000000000000000000000082167f71700c6900000000000000000000000000000000000000000000000000000000148061046457507f150b7a02000000000000000000000000000000000000000000000000000000007fffffffff000000000000000000000000000000000000000000000000000000008316145b92915050565b6000818154811061047a57600080fd5b60009182526020909120015473ffffffffffffffffffffffffffffffffffffffff16905081565b60007f000000000000000000000000000000000000000000000000000000000000000073ffffffffffffffffffffffffffffffffffffffff16638b79543c6040518163ffffffff1660e01b8152600401602060405180830381865afa15801561050e573d6000803e3d6000fd5b505050506040513d601f19601f820116820180604052508101906105329190613517565b73ffffffffffffffffffffffffffffffffffffffff163373ffffffffffffffffffffffffffffffffffffffff161461056957600080fd5b73ffffffffffffffffffffffffffffffffffffffff85161561058a57600080fd5b507f150b7a020000000000000000000000000000000000000000000000000000000095945050505050565b604080516001808252818301909252600091829190816020015b6040805180820190915260008152606060208201528152602001906001900390816105cf57505060408051600180825281830190925291925060009190602082015b6040805160e08101825260008082526020808301829052928201819052606082018190526080820181905260a0820181905260c082015282527fffffffffffffffffffffffffffffffffffffffffffffffffffffffffffffffff9092019101816106115790505090506040518060e00160405280600015158152602001600015158152602001633b9aca008152602001600081526020018b73ffffffffffffffffffffffffffffffffffffffff16815260200160008152602001600073ffffffffffffffffffffffffffffffffffffffff16815250816001815181106106f9576106f9613534565b6020026020010181905250604051806040016040528060028152602001828152508260008151811061072d5761072d613534565b6020026020010181905250507f000000000000000000000000000000000000000000000000000000000000000073ffffffffffffffffffffffffffffffffffffffff16638b79543c6040518163ffffffff1660e01b8152600401602060405180830381865afa1580156107a4573d6000803e3d6000fd5b505050506040513d601f19601f820116820180604052508101906107c89190613517565b73ffffffffffffffffffffffffffffffffffffffff1663666d87a0308a6040518363ffffffff1660e01b8152600401610802929190613563565b6020604051808303816000875af1158015610821573d6000803e3d6000fd5b505050506040513d601f19601f8201168201806040525081019061084591906135b1565b91507f000000000000000000000000000000000000000000000000000000000000000073ffffffffffffffffffffffffffffffffffffffff1663619306306040518163ffffffff1660e01b8152600401602060405180830381865afa1580156108b2573d6000803e3d6000fd5b505050506040513d601f19601f820116820180604052508101906108d69190613517565b73ffffffffffffffffffffffffffffffffffffffff1663a7f2a70b8389896040518463ffffffff1660e01b8152600401610912939291906135ca565b6020604051808303816000875af1158015610931573d6000803e3d6000fd5b505050506040513d601f19601f820116820180604052508101906109559190613517565b5073ffffffffffffffffffffffffffffffffffffffff7f000000000000000000000000000000000000000000000000000000000000000016637b621d3a836109a4610100890160e08a01613612565b7f000000000000000000000000000000000000000000000000000000000000000073ffffffffffffffffffffffffffffffffffffffff166360b3042c6040518163ffffffff1660e01b8152600401602060405180830381865afa158015610a0f573d6000803e3d6000fd5b505050506040513d601f19601f82011682018060405250810190610a3391906135b1565b7f000000000000000000000000000000000000000000000000000000000000000073ffffffffffffffffffffffffffffffffffffffff1663737a79966040518163ffffffff1660e01b8152600401602060405180830381865afa158015610a9e573d6000803e3d6000fd5b505050506040513d601f19601f82011682018060405250810190610ac291906135b1565b6040517fffffffff0000000000000000000000000000000000000000000000000000000060e087901b168152600481019490945262ffffff909216602484015263ffffffff908116604484015216606482015261eeee608482015260a4016020604051808303816000875af1158015610b3f573d6000803e3d6000fd5b505050506040513d601f19601f82011682018060405250810190610b639190613517565b507f000000000000000000000000000000000000000000000000000000000000000073ffffffffffffffffffffffffffffffffffffffff1663111d861b8360405180608001604052808960600135815260200160128a60000135610bc7919061377c565b815260408a810135602080840191909152600092820183905281516102a081018352610240810184815261026082018590526102808201859052815260a0808e0135828401526080808f013583860152606083018690528201859052810184905260c0810184905260e081018490526001610100820181905261012082018590526101408201859052610160820185905261018082018590526101a082018590526101c08201526101e081018490523061020082015260ff8b166102208201528251848152918201909252909190879082610d15565b610d026040518060c00160405280600073ffffffffffffffffffffffffffffffffffffffff168152602001600073ffffffffffffffffffffffffffffffffffffffff168152602001600081526020016000815260200160008152602001600081525090565b815260200190600190039081610c9d5790505b5060006040518863ffffffff1660e01b8152600401610d3a9796959493929190613a72565b6020604051808303816000875af1158015610d59573d6000803e3d6000fd5b505050506040513d601f19601f82011682018060405250810190610d7d91906135b1565b5073ffffffffffffffffffffffffffffffffffffffff7f000000000000000000000000000000000000000000000000000000000000000016638ae9c07b83610dca601260208a013561377c565b8c8a604051602001610ddc9190613b93565b6040516020818303038152906040526000806040518763ffffffff1660e01b8152600401610e0f96959493929190613bd8565b6020604051808303816000875af1158015610e2e573d6000803e3d6000fd5b505050506040513d601f19601f82011682018060405250810190610e5291906135b1565b507f000000000000000000000000000000000000000000000000000000000000000073ffffffffffffffffffffffffffffffffffffffff16632bdfe0046040518163ffffffff1660e01b8152600401602060405180830381865afa158015610ebe573d6000803e3d6000fd5b505050506040513d601f19601f82011682018060405250810190610ee29190613517565b73ffffffffffffffffffffffffffffffffffffffff1663ad007d636040518163ffffffff1660e01b8152600401602060405180830381865afa158015610f2c573d6000803e3d6000fd5b505050506040513d601f19601f82011682018060405250810190610f509190613517565b73ffffffffffffffffffffffffffffffffffffffff1663529cdd2e60405180606001604052808c73ffffffffffffffffffffffffffffffffffffffff1681526020018581526020016001805480602002602001604051908101604052809291908181526020018280548015610fe457602002820191906000526020600020905b815481526020019060010190808311610fd0575b50505050508152506040518263ffffffff1660e01b81526004016110089190613c2d565b600060405180830381600087803b15801561102257600080fd5b505af1158015611036573d6000803e3d6000fd5b5061104b9250505060e0860160c08701613cb4565b61105d9065ffffffffffff1642613ccf565b6000838152600260205260408120919091558451905b818110156111375785818151811061108d5761108d613534565b60200260200101516003600086815260200190815260200160002082815481106110b9576110b9613534565b600091825260209182902083516003929092020180547fffffffffffffffffffffffff00000000000000000000000000000000000000001673ffffffffffffffffffffffffffffffffffffffff9092169190911781559082015160018201556040820151600282019061112c9082613d7e565b505050600101611073565b505050979650505050505050565b6040517f1f51045300000000000000000000000000000000000000000000000000000000815260048101829052600090819073ffffffffffffffffffffffffffffffffffffffff7f00000000000000000000000000000000000000000000000000000000000000001690631f510453906024016103c060405180830381865afa1580156111d6573d6000803e3d6000fd5b505050506040513d601f19601f820116820180604052508101906111fa919061406d565b508151919350915060011461123b576040517fc97554fa00000000000000000000000000000000000000000000000000000000815260040160405180910390fd5b60408051608080820183528481015182526000602080840182905260c08088015185870152606080860184905286516102a0810188526102408101858152610260820186905261028082018690528152808401859052888801518189015290810184905293840183905260a08401839052830182905260e08301829052610100830182905261012083018290526101408301829052610160830182905261018083018290526101a083018290526101c083018290526101e083018290526102008087015173ffffffffffffffffffffffffffffffffffffffff908116918501919091526102208781015190850152888352600282528583205486518481529283019096527f0000000000000000000000000000000000000000000000000000000000000000169463badbdf28948994909390929061139c565b6040805180820190915260008152606060208201528152602001906001900390816113745790505b50604080516000808252602082019092529061142b565b6114186040518060c00160405280600073ffffffffffffffffffffffffffffffffffffffff168152602001600073ffffffffffffffffffffffffffffffffffffffff168152602001600081526020016000815260200160008152602001600081525090565b8152602001906001900390816113b35790505b506040518763ffffffff1660e01b815260040161144d96959493929190614124565b6020604051808303816000875af115801561146c573d6000803e3d6000fd5b505050506040513d601f19601f8201168201806040525081019061149091906135b1565b50505050565b600581815481106114a657600080fd5b600091825260209091200154905081565b600181815481106114a657600080fd5b604080516001808252818301909252600091829190816020015b6040805180820190915260008152606060208201528152602001906001900390816114e157505060408051600180825281830190925291925060009190602082015b6040805160e08101825260008082526020808301829052928201819052606082018190526080820181905260a0820181905260c082015282527fffffffffffffffffffffffffffffffffffffffffffffffffffffffffffffffff9092019101816115235790505090506040518060e00160405280600015158152602001600015158152602001633b9aca008152602001600081526020018b73ffffffffffffffffffffffffffffffffffffffff16815260200160008152602001600073ffffffffffffffffffffffffffffffffffffffff168152508160018151811061160b5761160b613534565b6020026020010181905250604051806040016040528060028152602001828152508260008151811061163f5761163f613534565b6020026020010181905250507f000000000000000000000000000000000000000000000000000000000000000073ffffffffffffffffffffffffffffffffffffffff16638b79543c6040518163ffffffff1660e01b8152600401602060405180830381865afa1580156116b6573d6000803e3d6000fd5b505050506040513d601f19601f820116820180604052508101906116da9190613517565b73ffffffffffffffffffffffffffffffffffffffff1663666d87a0308a6040518363ffffffff1660e01b81526004016117149291906142c5565b6020604051808303816000875af1158015611733573d6000803e3d6000fd5b505050506040513d601f19601f8201168201806040525081019061175791906135b1565b91507f000000000000000000000000000000000000000000000000000000000000000073ffffffffffffffffffffffffffffffffffffffff1663619306306040518163ffffffff1660e01b8152600401602060405180830381865afa1580156117c4573d6000803e3d6000fd5b505050506040513d601f19601f820116820180604052508101906117e89190613517565b73ffffffffffffffffffffffffffffffffffffffff1663a7f2a70b83898989896040518663ffffffff1660e01b815260040161182895949392919061431d565b6020604051808303816000875af1158015611847573d6000803e3d6000fd5b505050506040513d601f19601f8201168201806040525081019061186b9190613517565b5073ffffffffffffffffffffffffffffffffffffffff7f000000000000000000000000000000000000000000000000000000000000000016637b621d3a836118ba610100870160e08801613612565b7f000000000000000000000000000000000000000000000000000000000000000073ffffffffffffffffffffffffffffffffffffffff166360b3042c6040518163ffffffff1660e01b8152600401602060405180830381865afa158015611925573d6000803e3d6000fd5b505050506040513d601f19601f8201168201806040525081019061194991906135b1565b7f000000000000000000000000000000000000000000000000000000000000000073ffffffffffffffffffffffffffffffffffffffff1663737a79966040518163ffffffff1660e01b8152600401602060405180830381865afa1580156119b4573d6000803e3d6000fd5b505050506040513d601f19601f820116820180604052508101906119d891906135b1565b6040517fffffffff0000000000000000000000000000000000000000000000000000000060e087901b168152600481019490945262ffffff909216602484015263ffffffff908116604484015216606482015261eeee608482015260a4016020604051808303816000875af1158015611a55573d6000803e3d6000fd5b505050506040513d601f19601f82011682018060405250810190611a799190613517565b507f000000000000000000000000000000000000000000000000000000000000000073ffffffffffffffffffffffffffffffffffffffff1663111d861b8360405180608001604052808760600135815260200160128860000135611add919061377c565b8152604088810135602080840191909152600092820183905281516102a081018352610240810184815261026082018590526102808201859052815260a0808c0135828401526080808d013583860152606083018690528201859052810184905260c0810184905260e081018490526001610100820181905261012082018590526101408201859052610160820185905261018082018590526101a082018590526101c08201526101e0810184905273ffffffffffffffffffffffffffffffffffffffff7f00000000000000000000000000000000000000000000000000000000000000001661020082015261022081018490528251848152918201909252909190879082611c5f565b611c4c6040518060c00160405280600073ffffffffffffffffffffffffffffffffffffffff168152602001600073ffffffffffffffffffffffffffffffffffffffff168152602001600081526020016000815260200160008152602001600081525090565b815260200190600190039081611be75790505b5060006040518863ffffffff1660e01b8152600401611c849796959493929190613a72565b6020604051808303816000875af1158015611ca3573d6000803e3d6000fd5b505050506040513d601f19601f82011682018060405250810190611cc791906135b1565b5073ffffffffffffffffffffffffffffffffffffffff7f000000000000000000000000000000000000000000000000000000000000000016638ae9c07b83611d146012602088013561377c565b8c8989604051602001611d28929190614356565b6040516020818303038152906040526000806040518763ffffffff1660e01b8152600401611d5b96959493929190613bd8565b6020604051808303816000875af1158015611d7a573d6000803e3d6000fd5b505050506040513d601f19601f82011682018060405250810190611d9e91906135b1565b507f000000000000000000000000000000000000000000000000000000000000000073ffffffffffffffffffffffffffffffffffffffff16632bdfe0046040518163ffffffff1660e01b8152600401602060405180830381865afa158015611e0a573d6000803e3d6000fd5b505050506040513d601f19601f82011682018060405250810190611e2e9190613517565b73ffffffffffffffffffffffffffffffffffffffff1663ad007d636040518163ffffffff1660e01b8152600401602060405180830381865afa158015611e78573d6000803e3d6000fd5b505050506040513d601f19601f82011682018060405250810190611e9c9190613517565b73ffffffffffffffffffffffffffffffffffffffff1663529cdd2e60405180606001604052808c73ffffffffffffffffffffffffffffffffffffffff1681526020018581526020016001805480602002602001604051908101604052809291908181526020018280548015611f3057602002820191906000526020600020905b815481526020019060010190808311611f1c575b50505050508152506040518263ffffffff1660e01b8152600401611f549190613c2d565b600060405180830381600087803b158015611f6e57600080fd5b505af1158015611f82573d6000803e3d6000fd5b50611f979250505060e0840160c08501613cb4565b611fa99065ffffffffffff1642613ccf565b60008381526002602052604090205550979650505050505050565b604080516000808252602082019092526060908190839081612010565b60408051606080820183526000808352602083015291810191909152815260200190600190039081611fe15790505b5060408051602081019091526000815291969195509350915050565b600061203f8c8c8c8c8c8c8c8c8c61232a565b905081156120d357600480546040517f200e8ae400000000000000000000000000000000000000000000000000000000815273ffffffffffffffffffffffffffffffffffffffff9091169163200e8ae4916120a091859188918891016143da565b600060405180830381600087803b1580156120ba57600080fd5b505af11580156120ce573d6000803e3d6000fd5b505050505b7f000000000000000000000000000000000000000000000000000000000000000073ffffffffffffffffffffffffffffffffffffffff1663ad007d636040518163ffffffff1660e01b8152600401602060405180830381865afa15801561213e573d6000803e3d6000fd5b505050506040513d601f19601f820116820180604052508101906121629190613517565b6040805160608101825260045473ffffffffffffffffffffffffffffffffffffffff90811682526020808301869052600580548551818402810184018752818152969093169563529cdd2e9585019390928301828280156121e257602002820191906000526020600020905b8154815260200190600101908083116121ce575b50505050508152506040518263ffffffff1660e01b81526004016122069190613c2d565b600060405180830381600087803b15801561222057600080fd5b505af1158015612234573d6000803e3d6000fd5b505050509b9a5050505050505050505050565b6003602052816000526040600020818154811061226357600080fd5b600091825260209091206003909102018054600182015460028301805473ffffffffffffffffffffffffffffffffffffffff9093169550909350906122a790613ce2565b80601f01602080910402602001604051908101604052809291908181526020018280546122d390613ce2565b80156123205780601f106122f557610100808354040283529160200191612320565b820191906000526020600020905b81548152906001019060200180831161230357829003601f168201915b5050505050905083565b60007f000000000000000000000000000000000000000000000000000000000000000073ffffffffffffffffffffffffffffffffffffffff16638b79543c6040518163ffffffff1660e01b8152600401602060405180830381865afa158015612397573d6000803e3d6000fd5b505050506040513d601f19601f820116820180604052508101906123bb9190613517565b73ffffffffffffffffffffffffffffffffffffffff166306661abd6040518163ffffffff1660e01b8152600401602060405180830381865afa158015612405573d6000803e3d6000fd5b505050506040513d601f19601f8201168201806040525081019061242991906135b1565b612434906001613ccf565b905060007f000000000000000000000000000000000000000000000000000000000000000073ffffffffffffffffffffffffffffffffffffffff166370d7f24983886040518363ffffffff1660e01b815260040161249392919061486a565b6020604051808303816000875af11580156124b2573d6000803e3d6000fd5b505050506040513d601f19601f820116820180604052508101906124d69190613517565b90508360006124e6826001613ccf565b67ffffffffffffffff8111156124fe576124fe612aba565b60405190808252806020026020018201604052801561254b57816020015b6040805160608082018352600080835260208301529181019190915281526020019060019003908161251c5790505b50905060005b828110156125ab5787878281811061256b5761256b613534565b905060200281019061257d9190614a40565b61258690614a7e565b82828151811061259857612598613534565b6020908102919091010152600101612551565b5060405180606001604052808473ffffffffffffffffffffffffffffffffffffffff16815260200160008152602001604051806020016040528060008152508152508183815181106125ff576125ff613534565b60200260200101819052506126198d8d8d8d8d868b6105b5565b505050509998505050505050505050565b600060608060607f000000000000000000000000000000000000000000000000000000000000000073ffffffffffffffffffffffffffffffffffffffff1663d46cf171866040518263ffffffff1660e01b815260040161268a9190614acc565b600060405180830381865afa1580156126a7573d6000803e3d6000fd5b505050506040513d6000823e601f3d9081017fffffffffffffffffffffffffffffffffffffffffffffffffffffffffffffffe01682016040526126ed9190810190614c40565b60c088013560009081526003602090815260408083208054825181850281018501909352808352969a509396509194919350849084015b828210156128155760008481526020908190206040805160608101825260038602909201805473ffffffffffffffffffffffffffffffffffffffff1683526001810154938301939093526002830180549293929184019161278490613ce2565b80601f01602080910402602001604051908101604052809291908181526020018280546127b090613ce2565b80156127fd5780601f106127d2576101008083540402835291602001916127fd565b820191906000526020600020905b8154815290600101906020018083116127e057829003601f168201915b50505050508152505081526020019060010190612724565b5050825192935061282b91508290506001613ccf565b67ffffffffffffffff81111561284357612843612aba565b60405190808252806020026020018201604052801561289057816020015b604080516060808201835260008083526020830152918101919091528152602001906001900390816128615790505b50935060005b818110156128dd578281815181106128b0576128b0613534565b60200260200101518582815181106128ca576128ca613534565b6020908102919091010152600101612896565b50826000815181106128f1576128f1613534565b602002602001015184828151811061290b5761290b613534565b6020908102919091010152612924610160880188614db9565b8080601f016020809104026020016040519081016040528093929190818152602001838380828437600092019190915250989a9299509597509095505050505050565b60006020828403121561297957600080fd5b81357fffffffff00000000000000000000000000000000000000000000000000000000811681146129a957600080fd5b9392505050565b6000602082840312156129c257600080fd5b5035919050565b73ffffffffffffffffffffffffffffffffffffffff811681146129eb57600080fd5b50565b80356129f9816129c9565b919050565b60008083601f840112612a1057600080fd5b50813567ffffffffffffffff811115612a2857600080fd5b602083019150836020828501011115612a4057600080fd5b9250929050565b600080600080600060808688031215612a5f57600080fd5b8535612a6a816129c9565b94506020860135612a7a816129c9565b935060408601359250606086013567ffffffffffffffff811115612a9d57600080fd5b612aa9888289016129fe565b969995985093965092949392505050565b7f4e487b7100000000000000000000000000000000000000000000000000000000600052604160045260246000fd5b6040516060810167ffffffffffffffff81118282101715612b0c57612b0c612aba565b60405290565b604051610240810167ffffffffffffffff81118282101715612b0c57612b0c612aba565b604051610120810167ffffffffffffffff81118282101715612b0c57612b0c612aba565b604051601f82017fffffffffffffffffffffffffffffffffffffffffffffffffffffffffffffffe016810167ffffffffffffffff81118282101715612ba157612ba1612aba565b604052919050565b600067ffffffffffffffff821115612bc357612bc3612aba565b50601f017fffffffffffffffffffffffffffffffffffffffffffffffffffffffffffffffe01660200190565b6000612c02612bfd84612ba9565b612b5a565b9050828152838383011115612c1657600080fd5b828260208301376000602084830101529392505050565b600082601f830112612c3e57600080fd5b6129a983833560208501612bef565b600060408284031215612c5f57600080fd5b6040516040810167ffffffffffffffff8282108183111715612c8357612c83612aba565b816040528293508435915080821115612c9b57600080fd5b50612ca885828601612c2d565b825250602083013560208201525092915050565b60006101008284031215612ccf57600080fd5b50919050565b600067ffffffffffffffff821115612cef57612cef612aba565b5060051b60200190565b600060608284031215612d0b57600080fd5b612d13612ae9565b90508135612d20816129c9565b815260208281013590820152604082013567ffffffffffffffff811115612d4657600080fd5b8201601f81018413612d5757600080fd5b612d6684823560208401612bef565b60408301525092915050565b600082601f830112612d8357600080fd5b81356020612d93612bfd83612cd5565b82815260059290921b84018101918181019086841115612db257600080fd5b8286015b84811015612df257803567ffffffffffffffff811115612dd65760008081fd5b612de48986838b0101612cf9565b845250918301918301612db6565b509695505050505050565b803560ff811681146129f957600080fd5b60008060008060008060006101c0888a031215612e2a57600080fd5b612e33886129ee565b9650602088013567ffffffffffffffff80821115612e5057600080fd5b612e5c8b838c01612c4d565b975060408a0135915080821115612e7257600080fd5b612e7e8b838c01612c2d565b965060608a0135915080821115612e9457600080fd5b612ea08b838c01612c2d565b9550612eaf8b60808c01612cbc565b94506101808a0135915080821115612ec657600080fd5b50612ed38a828b01612d72565b925050612ee36101a08901612dfd565b905092959891949750929550565b6000806000806000806000610180888a031215612f0d57600080fd5b8735612f18816129c9565b9650602088013567ffffffffffffffff80821115612f3557600080fd5b908901906040828c031215612f4957600080fd5b90965060408901359080821115612f5f57600080fd5b612f6b8b838c016129fe565b909750955060608a0135915080821115612f8457600080fd5b50612f918a828b016129fe565b9094509250612ee390508960808a01612cbc565b600060208284031215612fb757600080fd5b813567ffffffffffffffff811115612fce57600080fd5b82016101e081850312156129a957600080fd5b60005b83811015612ffc578181015183820152602001612fe4565b50506000910152565b6000815180845261301d816020860160208601612fe1565b601f017fffffffffffffffffffffffffffffffffffffffffffffffffffffffffffffffe0169290920160200192915050565b600060608583526020818185015261306982850187613005565b6040858203818701528187518084528484019150848160051b850101858a0160005b83811015613106578683037fffffffffffffffffffffffffffffffffffffffffffffffffffffffffffffffe00185528151805173ffffffffffffffffffffffffffffffffffffffff16845288810151898501528601518684018a90526130f38a850182613005565b958901959350509087019060010161308b565b50909c9b505050505050505050505050565b60006101c08284031215612ccf57600080fd5b60008083601f84011261313d57600080fd5b50813567ffffffffffffffff81111561315557600080fd5b6020830191508360208260051b8501011115612a4057600080fd5b60008060008060008060008060008060006102008c8e03121561319257600080fd5b61319b8c6129ee565b9a5067ffffffffffffffff8060208e013511156131b757600080fd5b6131c78e60208f01358f01612c4d565b9a508060408e013511156131da57600080fd5b6131ea8e60408f01358f01612c2d565b99508060608e013511156131fd57600080fd5b61320d8e60608f01358f01612c2d565b985061321c8e60808f01612cbc565b9750806101808e0135111561323057600080fd5b6132418e6101808f01358f01613118565b9650806101a08e0135111561325557600080fd5b6132668e6101a08f01358f0161312b565b90965094506132786101c08e01612dfd565b9350806101e08e0135111561328c57600080fd5b5061329e8d6101e08e01358e0161312b565b81935080925050509295989b509295989b9093969950565b600080604083850312156132c957600080fd5b50508035926020909101359150565b73ffffffffffffffffffffffffffffffffffffffff8416815282602082015260606040820152600061330d6060830184613005565b95945050505050565b60008060008060008060008060006101e08a8c03121561333557600080fd5b61333e8a6129ee565b985060208a013567ffffffffffffffff8082111561335b57600080fd5b6133678d838e01612c4d565b995060408c013591508082111561337d57600080fd5b6133898d838e01612c2d565b985060608c013591508082111561339f57600080fd5b6133ab8d838e01612c2d565b97506133ba8d60808e01612cbc565b96506101808c01359150808211156133d157600080fd5b6133dd8d838e01613118565b95506101a08c01359150808211156133f457600080fd5b506134018c828d0161312b565b909450925061341590506101c08b01612dfd565b90509295985092959850929598565b60006020828403121561343657600080fd5b813567ffffffffffffffff81111561344d57600080fd5b82016101a081850312156129a957600080fd5b600060608583526020818185015261347a82850187613005565b6040858203818701528187518084528484019150848160051b850101858a0160005b83811015613106578683037fffffffffffffffffffffffffffffffffffffffffffffffffffffffffffffffe00185528151805173ffffffffffffffffffffffffffffffffffffffff16845288810151898501528601518684018a90526135048a850182613005565b958901959350509087019060010161349c565b60006020828403121561352957600080fd5b81516129a9816129c9565b7f4e487b7100000000000000000000000000000000000000000000000000000000600052603260045260246000fd5b73ffffffffffffffffffffffffffffffffffffffff83168152604060208201526000825160408084015261359a6080840182613005565b905060208401516060840152809150509392505050565b6000602082840312156135c357600080fd5b5051919050565b8381526060602082015260006135e36060830185613005565b82810360408401526135f58185613005565b9695505050505050565b803562ffffff811681146129f957600080fd5b60006020828403121561362457600080fd5b6129a9826135ff565b7f4e487b7100000000000000000000000000000000000000000000000000000000600052601160045260246000fd5b600181815b808511156136b557817fffffffffffffffffffffffffffffffffffffffffffffffffffffffffffffffff0482111561369b5761369b61362d565b808516156136a857918102915b93841c9390800290613661565b509250929050565b6000826136cc57506001610464565b816136d957506000610464565b81600181146136ef57600281146136f957613715565b6001915050610464565b60ff84111561370a5761370a61362d565b50506001821b610464565b5060208310610133831016604e8410600b8410161715613738575081810a610464565b613742838361365c565b807fffffffffffffffffffffffffffffffffffffffffffffffffffffffffffffffff048211156137745761377461362d565b029392505050565b60006129a960ff8416836136bd565b6137b08282518051151582526020808201511515908301526040908101511515910152565b6020810151606083015260408101516080830152606081015160a083015260808101516137e160c084018215159052565b5060a081015180151560e08401525060c08101516101006138058185018315159052565b60e0830151915061012061381c8186018415159052565b908301519150610140906138338583018415159052565b83015191506101606138488582018415159052565b9083015191506101809061385f8583018415159052565b83015191506101a06138748582018415159052565b9083015191506101c09061388b8583018415159052565b83015191506101e06138a08582018415159052565b908301519150610200906138b78583018415159052565b83015191506102206138cc8582018415159052565b9083015173ffffffffffffffffffffffffffffffffffffffff16610240850152909101516102609092019190915250565b600081518084526020808501808196508360051b810191508286016000805b868110156139dc578385038a52825180518652860151604087870181905281518188018190529188019160609081890190865b818110156139c55785518051151584528c81015115158d8501528581015186850152848101518585015260808082015173ffffffffffffffffffffffffffffffffffffffff9081169186019190915260a0808301519086015260c0918201511690840152948b019460e09092019160010161394f565b50509c89019c97505050928601925060010161391c565b509298975050505050505050565b600081518084526020808501945080840160005b83811015613a67578151805173ffffffffffffffffffffffffffffffffffffffff908116895284820151168489015260408082015190890152606080820151908901526080808201519089015260a0908101519088015260c090960195908201906001016139fe565b509495945050505050565b60006103c08983526020613abf8185018b80518252602081015160208301526040810151604083015273ffffffffffffffffffffffffffffffffffffffff60608201511660608301525050565b613acc60a085018a61378b565b8761032085015281610340850152613ae6828501886138fd565b9150838203610360850152613afb82876139ea565b848103610380860152855480825260008781528381209450918301915b81811015613b4a57845473ffffffffffffffffffffffffffffffffffffffff1683526001948501949284019201613b18565b50508481036103a0860152601b81527f4465706c6f7965642052657461696c69737420747265617375727900000000006020820152604081019c9b505050505050505050505050565b7f5072656d696e7465642024000000000000000000000000000000000000000000815260008251613bcb81600b850160208701612fe1565b91909101600b0192915050565b86815285602082015273ffffffffffffffffffffffffffffffffffffffff8516604082015260c060608201526000613c1360c0830186613005565b93151560808301525090151560a090910152949350505050565b600060208083526080830173ffffffffffffffffffffffffffffffffffffffff85511682850152818501516040850152604085015160608086015281815180845260a0870191508483019350600092505b80831015612df25783518252928401926001929092019190840190613c7e565b803565ffffffffffff811681146129f957600080fd5b600060208284031215613cc657600080fd5b6129a982613c9e565b808201808211156104645761046461362d565b600181811c90821680613cf657607f821691505b602082108103612ccf577f4e487b7100000000000000000000000000000000000000000000000000000000600052602260045260246000fd5b601f821115613d7957600081815260208120601f850160051c81016020861015613d565750805b601f850160051c820191505b81811015613d7557828155600101613d62565b5050505b505050565b815167ffffffffffffffff811115613d9857613d98612aba565b613dac81613da68454613ce2565b84613d2f565b602080601f831160018114613dff5760008415613dc95750858301515b7fffffffffffffffffffffffffffffffffffffffffffffffffffffffffffffffff600386901b1c1916600185901b178555613d75565b6000858152602081207fffffffffffffffffffffffffffffffffffffffffffffffffffffffffffffffe08616915b82811015613e4c57888601518255948401946001909101908401613e2d565b5085821015613e8857878501517fffffffffffffffffffffffffffffffffffffffffffffffffffffffffffffffff600388901b60f8161c191681555b5050505050600190811b01905550565b80516129f9816129c9565b80151581146129eb57600080fd5b80516129f981613ea3565b600060608284031215613ece57600080fd5b613ed6612ae9565b90508151613ee381613ea3565b81526020820151613ef381613ea3565b60208201526040820151613f0681613ea3565b604082015292915050565b60006102808284031215613f2457600080fd5b613f2c612b12565b9050613f388383613ebc565b8152606082015160208201526080820151604082015260a08201516060820152613f6460c08301613eb1565b6080820152613f7560e08301613eb1565b60a0820152610100613f88818401613eb1565b60c0830152610120613f9b818501613eb1565b60e0840152610140613fae818601613eb1565b838501526101609250613fc2838601613eb1565b828501526101809150613fd6828601613eb1565b908401526101a0613fe8858201613eb1565b838501526101c09250613ffc838601613eb1565b828501526101e09150614010828601613eb1565b90840152610200614022858201613eb1565b838501526102209250614036838601613eb1565b828501526140476102408601613e98565b818501525050610260830151818301525092915050565b8051600381106129f957600080fd5b60008060008385036103c081121561408457600080fd5b6101208082121561409457600080fd5b61409c612b36565b9150855182526020860151602083015260408601516040830152606086015160608301526080860151608083015260a086015160a083015260c086015160c08301526140ea60e08701613e98565b60e083015261010080870151818401525081945061410a87828801613f11565b9350505061411b6103a0850161405e565b90509250925092565b60006103a0888352614170602084018980518252602081015160208301526040810151604083015273ffffffffffffffffffffffffffffffffffffffff60608201511660608301525050565b61417d60a084018861378b565b8561032084015280610340840152614197818401866138fd565b90508281036103608401526141ac81856139ea565b838103610380909401939093525050602c81527f5363686564756c656420626f6f737420657870697279206f662052657461696c60208201527f697374207472656173757279000000000000000000000000000000000000000060408201526060019695505050505050565b60008083357fffffffffffffffffffffffffffffffffffffffffffffffffffffffffffffffe184360301811261424d57600080fd5b830160208101925035905067ffffffffffffffff81111561426d57600080fd5b803603821315612a4057600080fd5b8183528181602085013750600060208284010152600060207fffffffffffffffffffffffffffffffffffffffffffffffffffffffffffffffe0601f840116840101905092915050565b73ffffffffffffffffffffffffffffffffffffffff831681526040602082015260006142f18384614218565b60408085015261430560808501828461427c565b91505060208401356060840152809150509392505050565b85815260606020820152600061433760608301868861427c565b828103604084015261434a81858761427c565b98975050505050505050565b7f5072656d696e746564202400000000000000000000000000000000000000000081528183600b83013760009101600b01908152919050565b8183526000602080850194508260005b85811015613a675781356143b2816129c9565b73ffffffffffffffffffffffffffffffffffffffff168752958201959082019060010161439f565b8381526040602080830182905282820184905260009190606090818501600587811b8701840189875b8a81101561453b577fffffffffffffffffffffffffffffffffffffffffffffffffffffffffffffffa08a840301855281357fffffffffffffffffffffffffffffffffffffffffffffffffffffffffffffff418d360301811261446457600080fd5b8c0160c08135614473816129c9565b73ffffffffffffffffffffffffffffffffffffffff1685528188013588860152898201358a86015288820135898601526080808301359086015260a080830135368490037fffffffffffffffffffffffffffffffffffffffffffffffffffffffffffffffe10181126144e457600080fd5b90920188810192903567ffffffffffffffff81111561450257600080fd5b80881b360384131561451357600080fd5b8282880152614525838801828661438f565b988a019896505050928701925050600101614403565b50909b9a5050505050505050505050565b600082357fffffffffffffffffffffffffffffffffffffffffffffffffffffffffffffff8183360301811261458057600080fd5b90910192915050565b80356cffffffffffffffffffffffffff811681146129f957600080fd5b803563ffffffff811681146129f957600080fd5b803561ffff811681146129f957600080fd5b80356129f981613ea3565b6000608080840183357fffffffffffffffffffffffffffffffffffffffffffffffffffffffffffffffe185360301811261461057600080fd5b8401602081810191359067ffffffffffffffff82111561462f57600080fd5b610160808302360384131561464357600080fd5b8589529382905260a09384890160005b8481101561475e5761467b8261466888614589565b6cffffffffffffffffffffffffff169052565b6146868487016145a6565b63ffffffff1684830152604061469d8782016145a6565b63ffffffff169083015260606146b48782016145ba565b61ffff16908301526146c78689016129ee565b73ffffffffffffffffffffffffffffffffffffffff1688830152858701358783015260c06146f68188016135ff565b62ffffff169083015260e061470c8782016145cc565b1515908301526101006147208782016145cc565b1515908301526101206147348782016145cc565b1515908301526101406147488782016145cc565b1515908301529482019490820190600101614653565b5061476a838a01613c9e565b65ffffffffffff81168b850152965061478560408a01613c9e565b65ffffffffffff811660408c015296506147a160608a016129ee565b73ffffffffffffffffffffffffffffffffffffffff811660608c015296509998505050505050505050565b80356147d781613ea3565b1515825260208101356147e981613ea3565b1515602083015260408101356147fe81613ea3565b15156040830152606081013561481381613ea3565b8015156060840152505050565b8035600281106129f957600080fd5b60028110614866577f4e487b7100000000000000000000000000000000000000000000000000000000600052602160045260246000fd5b9052565b8281526040602082015260006148808384614218565b6101c060408501526148976102008501828461427c565b9150506148a76020850185614218565b7fffffffffffffffffffffffffffffffffffffffffffffffffffffffffffffffc0808685030160608701526148dd84838561427c565b93506148eb604088016129ee565b73ffffffffffffffffffffffffffffffffffffffff8116608088015292506149166060880188614218565b93509150808685030160a087015261492f84848461427c565b935061493d608088016129ee565b73ffffffffffffffffffffffffffffffffffffffff811660c0880152925061496860a0880188614218565b93509150808685030160e087015261498184848461427c565b935061499060c088018861454c565b92506101009150808685030182870152506149ab83836145d7565b92506149b960e087016129ee565b91506101206149df8187018473ffffffffffffffffffffffffffffffffffffffff169052565b6149ea8288016129ee565b73ffffffffffffffffffffffffffffffffffffffff81166101408801529250614a1961016087018289016147cc565b505050614a296101a08501614820565b614a376101e085018261482f565b50949350505050565b600082357fffffffffffffffffffffffffffffffffffffffffffffffffffffffffffffffa1833603018112614a7457600080fd5b9190910192915050565b60006104643683612cf9565b8035614a95816129c9565b73ffffffffffffffffffffffffffffffffffffffff1682526020818101359083015260408082013590830152606090810135910152565b60208152614afa60208201614ae0846129ee565b73ffffffffffffffffffffffffffffffffffffffff169052565b6000614b08602084016129ee565b73ffffffffffffffffffffffffffffffffffffffff8116604084015250614b356060830160408501614a8a565b60c083013560e083015261010060e084013581840152614b568185016129ee565b9050610120614b7c8185018373ffffffffffffffffffffffffffffffffffffffff169052565b61014091508085013582850152506101608185013581850152614ba181860186614218565b925090506101a06101808181870152614bbf6101c08701858561427c565b9350614bcd81880188614218565b935090507fffffffffffffffffffffffffffffffffffffffffffffffffffffffffffffffe08685030182870152614c0584848361427c565b979650505050505050565b6000614c1e612bfd84612ba9565b9050828152838383011115614c3257600080fd5b6129a9836020830184612fe1565b600080600060608486031215614c5557600080fd5b8351925060208085015167ffffffffffffffff80821115614c7557600080fd5b818701915087601f830112614c8957600080fd5b614c97888351858501614c10565b94506040870151915080821115614cad57600080fd5b818701915087601f830112614cc157600080fd5b8151614ccf612bfd82612cd5565b81815260059190911b8301840190848101908a831115614cee57600080fd5b8585015b83811015614da857805185811115614d0957600080fd5b86016060818e037fffffffffffffffffffffffffffffffffffffffffffffffffffffffffffffffe0011215614d3d57600080fd5b614d45612ae9565b88820151614d52816129c9565b8152604082015189820152606082015187811115614d6f57600080fd5b8083019250508d603f830112614d8457600080fd5b614d958e8a84015160408501614c10565b6040820152845250918601918601614cf2565b508096505050505050509250925092565b60008083357fffffffffffffffffffffffffffffffffffffffffffffffffffffffffffffffe1843603018112614dee57600080fd5b83018035915067ffffffffffffffff821115614e0957600080fd5b602001915036819003821315612a4057600080fdfea26469706673582212202c424e1931eb642f95278e451d9d8a69bd6c9a1c93380d4818e2d8e5894dd3fc64736f6c63430008150033",
    "linkReferences": {}
  },
  "methodIdentifiers": {
    "buybackDelegate()": "d3967525",
    "controller()": "f77c4791",
    "croptopPermissionIndexes(uint256)": "42921698",
    "delegateAllocationsOf(uint256,uint256)": "abc603e3",
    "delegateDeployer()": "8f3d964b",
    "deployBasicProjectFor(address,(string,uint256),string,string,(uint256,uint256,uint256,uint256,uint256,uint256,uint48,uint24))": "9a739a6d",
    "deployCroptopTiered721PayAllocatorProjectFor(address,(string,uint256),string,string,(uint256,uint256,uint256,uint256,uint256,uint256,uint48,uint24),(string,string,address,string,address,string,((uint104,uint32,uint32,uint16,address,bytes32,uint24,bool,bool,bool,bool)[],uint48,uint48,address),address,address,(bool,bool,bool,bool),uint8),(address,uint256,bytes)[],uint8,(address,uint256,uint256,uint256,uint256,address[])[])": "ab69fea5",
    "deployPayAllocatorProjectFor(address,(string,uint256),string,string,(uint256,uint256,uint256,uint256,uint256,uint256,uint48,uint24),(address,uint256,bytes)[],uint8)": "181f8e80",
    "deployTiered721PayAllocatorProjectFor(address,(string,uint256),string,string,(uint256,uint256,uint256,uint256,uint256,uint256,uint48,uint24),(string,string,address,string,address,string,((uint104,uint32,uint32,uint16,address,bytes32,uint24,bool,bool,bool,bool)[],uint48,uint48,address),address,address,(bool,bool,bool,bool),uint8),(address,uint256,bytes)[],uint8)": "cfdc11b9",
    "directory()": "c41c2f24",
    "onERC721Received(address,address,uint256,bytes)": "150b7a02",
    "payParams((address,address,(address,uint256,uint256,uint256),uint256,uint256,address,uint256,uint256,string,bytes))": "d46cf171",
    "permissionIndexes(uint256)": "9483e771",
    "publisher()": "8c72c54e",
    "reconfigurationStartTimestampOf(uint256)": "560f7b03",
    "redeemParams((address,address,uint256,uint256,uint256,uint256,uint256,(address,uint256,uint256,uint256),bool,uint256,string,bytes))": "a51cfd18",
    "scheduleReconfigurationOf(uint256)": "3ce6d3e2",
    "supportsInterface(bytes4)": "01ffc9a7",
    "terminals(uint256)": "0219758e"
  },
  "id": 103
}