{
  "abi": [
    {
      "inputs": [
        {
          "internalType": "contract CroptopPublisher",
          "name": "_publisher",
          "type": "address"
        },
        {
          "internalType": "contract IJBDirectory",
          "name": "_directory",
          "type": "address"
        },
        {
          "internalType": "contract IJBTiered721DelegateDeployer",
          "name": "_delegateDeployer",
          "type": "address"
        },
        {
          "internalType": "contract IJBController3_1",
          "name": "_controller",
          "type": "address"
        }
      ],
      "stateMutability": "nonpayable",
      "type": "constructor"
    },
    {
      "inputs": [],
      "name": "RECONFIGURATION_ALREADY_SCHEDULED",
      "type": "error"
    },
    {
      "inputs": [
        {
          "internalType": "uint256",
          "name": "",
          "type": "uint256"
        }
      ],
      "name": "buybackDelegateDataSourceOf",
      "outputs": [
        {
          "internalType": "contract IJBGenericBuybackDelegate",
          "name": "",
          "type": "address"
        }
      ],
      "stateMutability": "view",
      "type": "function"
    },
    {
      "inputs": [],
      "name": "controller",
      "outputs": [
        {
          "internalType": "contract IJBController3_1",
          "name": "",
          "type": "address"
        }
      ],
      "stateMutability": "view",
      "type": "function"
    },
    {
      "inputs": [
        {
          "internalType": "uint256",
          "name": "",
          "type": "uint256"
        }
      ],
      "name": "croptopPermissionIndexes",
      "outputs": [
        {
          "internalType": "uint256",
          "name": "",
          "type": "uint256"
        }
      ],
      "stateMutability": "view",
      "type": "function"
    },
    {
      "inputs": [
        {
          "internalType": "uint256",
          "name": "",
          "type": "uint256"
        },
        {
          "internalType": "uint256",
          "name": "",
          "type": "uint256"
        }
      ],
      "name": "delegateAllocationsOf",
      "outputs": [
        {
          "internalType": "contract IJBPayDelegate3_1_1",
          "name": "delegate",
          "type": "address"
        },
        {
          "internalType": "uint256",
          "name": "amount",
          "type": "uint256"
        },
        {
          "internalType": "bytes",
          "name": "metadata",
          "type": "bytes"
        }
      ],
      "stateMutability": "view",
      "type": "function"
    },
    {
      "inputs": [],
      "name": "delegateDeployer",
      "outputs": [
        {
          "internalType": "contract IJBTiered721DelegateDeployer",
          "name": "",
          "type": "address"
        }
      ],
      "stateMutability": "view",
      "type": "function"
    },
    {
      "inputs": [
        {
          "internalType": "address",
          "name": "_operator",
          "type": "address"
        },
        {
          "components": [
            {
              "internalType": "string",
              "name": "content",
              "type": "string"
            },
            {
              "internalType": "uint256",
              "name": "domain",
              "type": "uint256"
            }
          ],
          "internalType": "struct JBProjectMetadata",
          "name": "_projectMetadata",
          "type": "tuple"
        },
        {
          "internalType": "string",
          "name": "_name",
          "type": "string"
        },
        {
          "internalType": "string",
          "name": "_symbol",
          "type": "string"
        },
        {
          "components": [
            {
              "internalType": "uint256",
              "name": "initialIssuanceRate",
              "type": "uint256"
            },
            {
              "internalType": "uint256",
              "name": "premintTokenAmount",
              "type": "uint256"
            },
            {
              "internalType": "uint256",
              "name": "issuanceReductionRate",
              "type": "uint256"
            },
            {
              "internalType": "uint256",
              "name": "generationDuration",
              "type": "uint256"
            },
            {
              "internalType": "uint256",
              "name": "exitTaxRate",
              "type": "uint256"
            },
            {
              "internalType": "uint256",
              "name": "devTaxRate",
              "type": "uint256"
            },
            {
              "internalType": "uint48",
              "name": "devTaxDuration",
              "type": "uint48"
            },
            {
              "internalType": "uint24",
              "name": "poolFee",
              "type": "uint24"
            }
          ],
          "internalType": "struct BasicRetailistJBParams",
          "name": "_data",
          "type": "tuple"
        },
        {
          "internalType": "contract IJBPaymentTerminal[]",
          "name": "_terminals",
          "type": "address[]"
        },
        {
          "internalType": "contract IJBGenericBuybackDelegate",
          "name": "_buybackDelegate",
          "type": "address"
        }
      ],
      "name": "deployBasicProjectFor",
      "outputs": [
        {
          "internalType": "uint256",
          "name": "projectId",
          "type": "uint256"
        }
      ],
      "stateMutability": "nonpayable",
      "type": "function"
    },
    {
      "inputs": [
        {
          "internalType": "address",
          "name": "_operator",
          "type": "address"
        },
        {
          "components": [
            {
              "internalType": "string",
              "name": "content",
              "type": "string"
            },
            {
              "internalType": "uint256",
              "name": "domain",
              "type": "uint256"
            }
          ],
          "internalType": "struct JBProjectMetadata",
          "name": "_projectMetadata",
          "type": "tuple"
        },
        {
          "internalType": "string",
          "name": "_name",
          "type": "string"
        },
        {
          "internalType": "string",
          "name": "_symbol",
          "type": "string"
        },
        {
          "components": [
            {
              "internalType": "uint256",
              "name": "initialIssuanceRate",
              "type": "uint256"
            },
            {
              "internalType": "uint256",
              "name": "premintTokenAmount",
              "type": "uint256"
            },
            {
              "internalType": "uint256",
              "name": "issuanceReductionRate",
              "type": "uint256"
            },
            {
              "internalType": "uint256",
              "name": "generationDuration",
              "type": "uint256"
            },
            {
              "internalType": "uint256",
              "name": "exitTaxRate",
              "type": "uint256"
            },
            {
              "internalType": "uint256",
              "name": "devTaxRate",
              "type": "uint256"
            },
            {
              "internalType": "uint48",
              "name": "devTaxDuration",
              "type": "uint48"
            },
            {
              "internalType": "uint24",
              "name": "poolFee",
              "type": "uint24"
            }
          ],
          "internalType": "struct BasicRetailistJBParams",
          "name": "_data",
          "type": "tuple"
        },
        {
          "internalType": "contract IJBPaymentTerminal[]",
          "name": "_terminals",
          "type": "address[]"
        },
        {
          "internalType": "contract IJBGenericBuybackDelegate",
          "name": "_buybackDelegate",
          "type": "address"
        },
        {
          "components": [
            {
              "internalType": "string",
              "name": "name",
              "type": "string"
            },
            {
              "internalType": "string",
              "name": "symbol",
              "type": "string"
            },
            {
              "internalType": "contract IJBFundingCycleStore",
              "name": "fundingCycleStore",
              "type": "address"
            },
            {
              "internalType": "string",
              "name": "baseUri",
              "type": "string"
            },
            {
              "internalType": "contract IJB721TokenUriResolver",
              "name": "tokenUriResolver",
              "type": "address"
            },
            {
              "internalType": "string",
              "name": "contractUri",
              "type": "string"
            },
            {
              "components": [
                {
                  "components": [
                    {
                      "internalType": "uint104",
                      "name": "price",
                      "type": "uint104"
                    },
                    {
                      "internalType": "uint32",
                      "name": "initialQuantity",
                      "type": "uint32"
                    },
                    {
                      "internalType": "uint32",
                      "name": "votingUnits",
                      "type": "uint32"
                    },
                    {
                      "internalType": "uint16",
                      "name": "reservedRate",
                      "type": "uint16"
                    },
                    {
                      "internalType": "address",
                      "name": "reservedTokenBeneficiary",
                      "type": "address"
                    },
                    {
                      "internalType": "bytes32",
                      "name": "encodedIPFSUri",
                      "type": "bytes32"
                    },
                    {
                      "internalType": "uint24",
                      "name": "category",
                      "type": "uint24"
                    },
                    {
                      "internalType": "bool",
                      "name": "allowManualMint",
                      "type": "bool"
                    },
                    {
                      "internalType": "bool",
                      "name": "shouldUseReservedTokenBeneficiaryAsDefault",
                      "type": "bool"
                    },
                    {
                      "internalType": "bool",
                      "name": "transfersPausable",
                      "type": "bool"
                    },
                    {
                      "internalType": "bool",
                      "name": "useVotingUnits",
                      "type": "bool"
                    }
                  ],
                  "internalType": "struct JB721TierParams[]",
                  "name": "tiers",
                  "type": "tuple[]"
                },
                {
                  "internalType": "uint48",
                  "name": "currency",
                  "type": "uint48"
                },
                {
                  "internalType": "uint48",
                  "name": "decimals",
                  "type": "uint48"
                },
                {
                  "internalType": "contract IJBPrices",
                  "name": "prices",
                  "type": "address"
                }
              ],
              "internalType": "struct JB721PricingParams",
              "name": "pricing",
              "type": "tuple"
            },
            {
              "internalType": "address",
              "name": "reservedTokenBeneficiary",
              "type": "address"
            },
            {
              "internalType": "contract IJBTiered721DelegateStore",
              "name": "store",
              "type": "address"
            },
            {
              "components": [
                {
                  "internalType": "bool",
                  "name": "lockReservedTokenChanges",
                  "type": "bool"
                },
                {
                  "internalType": "bool",
                  "name": "lockVotingUnitChanges",
                  "type": "bool"
                },
                {
                  "internalType": "bool",
                  "name": "lockManualMintingChanges",
                  "type": "bool"
                },
                {
                  "internalType": "bool",
                  "name": "preventOverspending",
                  "type": "bool"
                }
              ],
              "internalType": "struct JBTiered721Flags",
              "name": "flags",
              "type": "tuple"
            },
            {
              "internalType": "enum JB721GovernanceType",
              "name": "governanceType",
              "type": "uint8"
            }
          ],
          "internalType": "struct JBDeployTiered721DelegateData",
          "name": "_deployTiered721DelegateData",
          "type": "tuple"
        },
        {
          "components": [
            {
              "internalType": "contract IJBPayDelegate3_1_1",
              "name": "delegate",
              "type": "address"
            },
            {
              "internalType": "uint256",
              "name": "amount",
              "type": "uint256"
            },
            {
              "internalType": "bytes",
              "name": "metadata",
              "type": "bytes"
            }
          ],
          "internalType": "struct JBPayDelegateAllocation3_1_1[]",
          "name": "_otherDelegateAllocations",
          "type": "tuple[]"
        },
        {
          "internalType": "uint8",
          "name": "_extraFundingCycleMetadata",
          "type": "uint8"
        },
        {
          "components": [
            {
              "internalType": "address",
              "name": "nft",
              "type": "address"
            },
            {
              "internalType": "uint256",
              "name": "category",
              "type": "uint256"
            },
            {
              "internalType": "uint256",
              "name": "minimumPrice",
              "type": "uint256"
            },
            {
              "internalType": "uint256",
              "name": "minimumTotalSupply",
              "type": "uint256"
            },
            {
              "internalType": "uint256",
              "name": "maximumTotalSupply",
              "type": "uint256"
            },
            {
              "internalType": "address[]",
              "name": "allowedAddresses",
              "type": "address[]"
            }
          ],
          "internalType": "struct AllowedPost[]",
          "name": "_allowedPosts",
          "type": "tuple[]"
        }
      ],
      "name": "deployCroptopTiered721PayAllocatorProjectFor",
      "outputs": [
        {
          "internalType": "uint256",
          "name": "projectId",
          "type": "uint256"
        }
      ],
      "stateMutability": "nonpayable",
      "type": "function"
    },
    {
      "inputs": [
        {
          "internalType": "address",
          "name": "_operator",
          "type": "address"
        },
        {
          "components": [
            {
              "internalType": "string",
              "name": "content",
              "type": "string"
            },
            {
              "internalType": "uint256",
              "name": "domain",
              "type": "uint256"
            }
          ],
          "internalType": "struct JBProjectMetadata",
          "name": "_projectMetadata",
          "type": "tuple"
        },
        {
          "internalType": "string",
          "name": "_name",
          "type": "string"
        },
        {
          "internalType": "string",
          "name": "_symbol",
          "type": "string"
        },
        {
          "components": [
            {
              "internalType": "uint256",
              "name": "initialIssuanceRate",
              "type": "uint256"
            },
            {
              "internalType": "uint256",
              "name": "premintTokenAmount",
              "type": "uint256"
            },
            {
              "internalType": "uint256",
              "name": "issuanceReductionRate",
              "type": "uint256"
            },
            {
              "internalType": "uint256",
              "name": "generationDuration",
              "type": "uint256"
            },
            {
              "internalType": "uint256",
              "name": "exitTaxRate",
              "type": "uint256"
            },
            {
              "internalType": "uint256",
              "name": "devTaxRate",
              "type": "uint256"
            },
            {
              "internalType": "uint48",
              "name": "devTaxDuration",
              "type": "uint48"
            },
            {
              "internalType": "uint24",
              "name": "poolFee",
              "type": "uint24"
            }
          ],
          "internalType": "struct BasicRetailistJBParams",
          "name": "_data",
          "type": "tuple"
        },
        {
          "internalType": "contract IJBPaymentTerminal[]",
          "name": "_terminals",
          "type": "address[]"
        },
        {
          "internalType": "contract IJBGenericBuybackDelegate",
          "name": "_buybackDelegate",
          "type": "address"
        },
        {
          "components": [
            {
              "internalType": "contract IJBPayDelegate3_1_1",
              "name": "delegate",
              "type": "address"
            },
            {
              "internalType": "uint256",
              "name": "amount",
              "type": "uint256"
            },
            {
              "internalType": "bytes",
              "name": "metadata",
              "type": "bytes"
            }
          ],
          "internalType": "struct JBPayDelegateAllocation3_1_1[]",
          "name": "_delegateAllocations",
          "type": "tuple[]"
        },
        {
          "internalType": "uint8",
          "name": "_extraFundingCycleMetadata",
          "type": "uint8"
        }
      ],
      "name": "deployPayAllocatorProjectFor",
      "outputs": [
        {
          "internalType": "uint256",
          "name": "projectId",
          "type": "uint256"
        }
      ],
      "stateMutability": "nonpayable",
      "type": "function"
    },
    {
      "inputs": [
        {
          "internalType": "address",
          "name": "_operator",
          "type": "address"
        },
        {
          "components": [
            {
              "internalType": "string",
              "name": "content",
              "type": "string"
            },
            {
              "internalType": "uint256",
              "name": "domain",
              "type": "uint256"
            }
          ],
          "internalType": "struct JBProjectMetadata",
          "name": "_projectMetadata",
          "type": "tuple"
        },
        {
          "internalType": "string",
          "name": "_name",
          "type": "string"
        },
        {
          "internalType": "string",
          "name": "_symbol",
          "type": "string"
        },
        {
          "components": [
            {
              "internalType": "uint256",
              "name": "initialIssuanceRate",
              "type": "uint256"
            },
            {
              "internalType": "uint256",
              "name": "premintTokenAmount",
              "type": "uint256"
            },
            {
              "internalType": "uint256",
              "name": "issuanceReductionRate",
              "type": "uint256"
            },
            {
              "internalType": "uint256",
              "name": "generationDuration",
              "type": "uint256"
            },
            {
              "internalType": "uint256",
              "name": "exitTaxRate",
              "type": "uint256"
            },
            {
              "internalType": "uint256",
              "name": "devTaxRate",
              "type": "uint256"
            },
            {
              "internalType": "uint48",
              "name": "devTaxDuration",
              "type": "uint48"
            },
            {
              "internalType": "uint24",
              "name": "poolFee",
              "type": "uint24"
            }
          ],
          "internalType": "struct BasicRetailistJBParams",
          "name": "_data",
          "type": "tuple"
        },
        {
          "internalType": "contract IJBPaymentTerminal[]",
          "name": "_terminals",
          "type": "address[]"
        },
        {
          "internalType": "contract IJBGenericBuybackDelegate",
          "name": "_buybackDelegate",
          "type": "address"
        },
        {
          "components": [
            {
              "internalType": "string",
              "name": "name",
              "type": "string"
            },
            {
              "internalType": "string",
              "name": "symbol",
              "type": "string"
            },
            {
              "internalType": "contract IJBFundingCycleStore",
              "name": "fundingCycleStore",
              "type": "address"
            },
            {
              "internalType": "string",
              "name": "baseUri",
              "type": "string"
            },
            {
              "internalType": "contract IJB721TokenUriResolver",
              "name": "tokenUriResolver",
              "type": "address"
            },
            {
              "internalType": "string",
              "name": "contractUri",
              "type": "string"
            },
            {
              "components": [
                {
                  "components": [
                    {
                      "internalType": "uint104",
                      "name": "price",
                      "type": "uint104"
                    },
                    {
                      "internalType": "uint32",
                      "name": "initialQuantity",
                      "type": "uint32"
                    },
                    {
                      "internalType": "uint32",
                      "name": "votingUnits",
                      "type": "uint32"
                    },
                    {
                      "internalType": "uint16",
                      "name": "reservedRate",
                      "type": "uint16"
                    },
                    {
                      "internalType": "address",
                      "name": "reservedTokenBeneficiary",
                      "type": "address"
                    },
                    {
                      "internalType": "bytes32",
                      "name": "encodedIPFSUri",
                      "type": "bytes32"
                    },
                    {
                      "internalType": "uint24",
                      "name": "category",
                      "type": "uint24"
                    },
                    {
                      "internalType": "bool",
                      "name": "allowManualMint",
                      "type": "bool"
                    },
                    {
                      "internalType": "bool",
                      "name": "shouldUseReservedTokenBeneficiaryAsDefault",
                      "type": "bool"
                    },
                    {
                      "internalType": "bool",
                      "name": "transfersPausable",
                      "type": "bool"
                    },
                    {
                      "internalType": "bool",
                      "name": "useVotingUnits",
                      "type": "bool"
                    }
                  ],
                  "internalType": "struct JB721TierParams[]",
                  "name": "tiers",
                  "type": "tuple[]"
                },
                {
                  "internalType": "uint48",
                  "name": "currency",
                  "type": "uint48"
                },
                {
                  "internalType": "uint48",
                  "name": "decimals",
                  "type": "uint48"
                },
                {
                  "internalType": "contract IJBPrices",
                  "name": "prices",
                  "type": "address"
                }
              ],
              "internalType": "struct JB721PricingParams",
              "name": "pricing",
              "type": "tuple"
            },
            {
              "internalType": "address",
              "name": "reservedTokenBeneficiary",
              "type": "address"
            },
            {
              "internalType": "contract IJBTiered721DelegateStore",
              "name": "store",
              "type": "address"
            },
            {
              "components": [
                {
                  "internalType": "bool",
                  "name": "lockReservedTokenChanges",
                  "type": "bool"
                },
                {
                  "internalType": "bool",
                  "name": "lockVotingUnitChanges",
                  "type": "bool"
                },
                {
                  "internalType": "bool",
                  "name": "lockManualMintingChanges",
                  "type": "bool"
                },
                {
                  "internalType": "bool",
                  "name": "preventOverspending",
                  "type": "bool"
                }
              ],
              "internalType": "struct JBTiered721Flags",
              "name": "flags",
              "type": "tuple"
            },
            {
              "internalType": "enum JB721GovernanceType",
              "name": "governanceType",
              "type": "uint8"
            }
          ],
          "internalType": "struct JBDeployTiered721DelegateData",
          "name": "_deployTiered721DelegateData",
          "type": "tuple"
        },
        {
          "components": [
            {
              "internalType": "contract IJBPayDelegate3_1_1",
              "name": "delegate",
              "type": "address"
            },
            {
              "internalType": "uint256",
              "name": "amount",
              "type": "uint256"
            },
            {
              "internalType": "bytes",
              "name": "metadata",
              "type": "bytes"
            }
          ],
          "internalType": "struct JBPayDelegateAllocation3_1_1[]",
          "name": "_otherDelegateAllocations",
          "type": "tuple[]"
        },
        {
          "internalType": "uint8",
          "name": "_extraFundingCycleMetadata",
          "type": "uint8"
        }
      ],
      "name": "deployTiered721PayAllocatorProjectFor",
      "outputs": [
        {
          "internalType": "uint256",
          "name": "projectId",
          "type": "uint256"
        }
      ],
      "stateMutability": "nonpayable",
      "type": "function"
    },
    {
      "inputs": [],
      "name": "directory",
      "outputs": [
        {
          "internalType": "contract IJBDirectory",
          "name": "",
          "type": "address"
        }
      ],
      "stateMutability": "view",
      "type": "function"
    },
    {
      "inputs": [
        {
          "internalType": "address",
          "name": "_operator",
          "type": "address"
        },
        {
          "internalType": "address",
          "name": "_from",
          "type": "address"
        },
        {
          "internalType": "uint256",
          "name": "_tokenId",
          "type": "uint256"
        },
        {
          "internalType": "bytes",
          "name": "_data",
          "type": "bytes"
        }
      ],
      "name": "onERC721Received",
      "outputs": [
        {
          "internalType": "bytes4",
          "name": "",
          "type": "bytes4"
        }
      ],
      "stateMutability": "view",
      "type": "function"
    },
    {
      "inputs": [
        {
          "components": [
            {
              "internalType": "contract IJBPaymentTerminal",
              "name": "terminal",
              "type": "address"
            },
            {
              "internalType": "address",
              "name": "payer",
              "type": "address"
            },
            {
              "components": [
                {
                  "internalType": "address",
                  "name": "token",
                  "type": "address"
                },
                {
                  "internalType": "uint256",
                  "name": "value",
                  "type": "uint256"
                },
                {
                  "internalType": "uint256",
                  "name": "decimals",
                  "type": "uint256"
                },
                {
                  "internalType": "uint256",
                  "name": "currency",
                  "type": "uint256"
                }
              ],
              "internalType": "struct JBTokenAmount",
              "name": "amount",
              "type": "tuple"
            },
            {
              "internalType": "uint256",
              "name": "projectId",
              "type": "uint256"
            },
            {
              "internalType": "uint256",
              "name": "currentFundingCycleConfiguration",
              "type": "uint256"
            },
            {
              "internalType": "address",
              "name": "beneficiary",
              "type": "address"
            },
            {
              "internalType": "uint256",
              "name": "weight",
              "type": "uint256"
            },
            {
              "internalType": "uint256",
              "name": "reservedRate",
              "type": "uint256"
            },
            {
              "internalType": "string",
              "name": "memo",
              "type": "string"
            },
            {
              "internalType": "bytes",
              "name": "metadata",
              "type": "bytes"
            }
          ],
          "internalType": "struct JBPayParamsData",
          "name": "_data",
          "type": "tuple"
        }
      ],
      "name": "payParams",
      "outputs": [
        {
          "internalType": "uint256",
          "name": "weight",
          "type": "uint256"
        },
        {
          "internalType": "string",
          "name": "memo",
          "type": "string"
        },
        {
          "components": [
            {
              "internalType": "contract IJBPayDelegate3_1_1",
              "name": "delegate",
              "type": "address"
            },
            {
              "internalType": "uint256",
              "name": "amount",
              "type": "uint256"
            },
            {
              "internalType": "bytes",
              "name": "metadata",
              "type": "bytes"
            }
          ],
          "internalType": "struct JBPayDelegateAllocation3_1_1[]",
          "name": "delegateAllocations",
          "type": "tuple[]"
        }
      ],
      "stateMutability": "view",
      "type": "function"
    },
    {
      "inputs": [
        {
          "internalType": "uint256",
          "name": "",
          "type": "uint256"
        }
      ],
      "name": "permissionIndexes",
      "outputs": [
        {
          "internalType": "uint256",
          "name": "",
          "type": "uint256"
        }
      ],
      "stateMutability": "view",
      "type": "function"
    },
    {
      "inputs": [],
      "name": "publisher",
      "outputs": [
        {
          "internalType": "contract CroptopPublisher",
          "name": "",
          "type": "address"
        }
      ],
      "stateMutability": "view",
      "type": "function"
    },
    {
      "inputs": [
        {
          "internalType": "uint256",
          "name": "projectId",
          "type": "uint256"
        }
      ],
      "name": "reconfigurationStartTimestampOf",
      "outputs": [
        {
          "internalType": "uint256",
          "name": "",
          "type": "uint256"
        }
      ],
      "stateMutability": "view",
      "type": "function"
    },
    {
      "inputs": [
        {
          "components": [
            {
              "internalType": "contract IJBPaymentTerminal",
              "name": "terminal",
              "type": "address"
            },
            {
              "internalType": "address",
              "name": "holder",
              "type": "address"
            },
            {
              "internalType": "uint256",
              "name": "projectId",
              "type": "uint256"
            },
            {
              "internalType": "uint256",
              "name": "currentFundingCycleConfiguration",
              "type": "uint256"
            },
            {
              "internalType": "uint256",
              "name": "tokenCount",
              "type": "uint256"
            },
            {
              "internalType": "uint256",
              "name": "totalSupply",
              "type": "uint256"
            },
            {
              "internalType": "uint256",
              "name": "overflow",
              "type": "uint256"
            },
            {
              "components": [
                {
                  "internalType": "address",
                  "name": "token",
                  "type": "address"
                },
                {
                  "internalType": "uint256",
                  "name": "value",
                  "type": "uint256"
                },
                {
                  "internalType": "uint256",
                  "name": "decimals",
                  "type": "uint256"
                },
                {
                  "internalType": "uint256",
                  "name": "currency",
                  "type": "uint256"
                }
              ],
              "internalType": "struct JBTokenAmount",
              "name": "reclaimAmount",
              "type": "tuple"
            },
            {
              "internalType": "bool",
              "name": "useTotalOverflow",
              "type": "bool"
            },
            {
              "internalType": "uint256",
              "name": "redemptionRate",
              "type": "uint256"
            },
            {
              "internalType": "string",
              "name": "memo",
              "type": "string"
            },
            {
              "internalType": "bytes",
              "name": "metadata",
              "type": "bytes"
            }
          ],
          "internalType": "struct JBRedeemParamsData",
          "name": "_data",
          "type": "tuple"
        }
      ],
      "name": "redeemParams",
      "outputs": [
        {
          "internalType": "uint256",
          "name": "",
          "type": "uint256"
        },
        {
          "internalType": "string",
          "name": "",
          "type": "string"
        },
        {
          "components": [
            {
              "internalType": "contract IJBRedemptionDelegate3_1_1",
              "name": "delegate",
              "type": "address"
            },
            {
              "internalType": "uint256",
              "name": "amount",
              "type": "uint256"
            },
            {
              "internalType": "bytes",
              "name": "metadata",
              "type": "bytes"
            }
          ],
          "internalType": "struct JBRedemptionDelegateAllocation3_1_1[]",
          "name": "",
          "type": "tuple[]"
        }
      ],
      "stateMutability": "view",
      "type": "function"
    },
    {
      "inputs": [
        {
          "internalType": "uint256",
          "name": "_projectId",
          "type": "uint256"
        }
      ],
      "name": "scheduleReconfigurationOf",
      "outputs": [],
      "stateMutability": "nonpayable",
      "type": "function"
    },
    {
      "inputs": [
        {
          "internalType": "bytes4",
          "name": "_interfaceId",
          "type": "bytes4"
        }
      ],
      "name": "supportsInterface",
      "outputs": [
        {
          "internalType": "bool",
          "name": "",
          "type": "bool"
        }
      ],
      "stateMutability": "view",
      "type": "function"
    }
  ],
  "bytecode": {
    "object": "0x60e06040523480156200001157600080fd5b50604051620052af380380620052af8339810160408190526200003491620000fa565b6001600160a01b03908116608052600080546001808201835560127f290decd9548b62a8d60345a988386fc84ba6bc95484008f6362f93160ef3e5639283015582548082018455601892019190915593821660a05291811660c052600480546001600160a01b031916949091169390931790925560058054918201815590915260157f036b6384b5eca791c62761152d0c79bb0604c104a5fb6f4eb0703f3154bb3db09091015562000162565b6001600160a01b0381168114620000f757600080fd5b50565b600080600080608085870312156200011157600080fd5b84516200011e81620000e1565b60208601519094506200013181620000e1565b60408601519093506200014481620000e1565b60608601519092506200015781620000e1565b939692955090935050565b60805160a05160c0516150ad620002026000396000818161026d01526119db0152600081816102eb015281816114ff01526117d00152600081816103900152818161044f015281816106e4015281816107f201528181610aa301528181610d2601528181610dfd0152818161112b015281816112de01528181611fa7015281816120b501528181612366015281816125a6015261267d01526150ad6000f3fe608060405234801561001057600080fd5b50600436106101365760003560e01c80639483e771116100b2578063cc28d77f11610081578063d87b09e311610066578063d87b09e314610342578063ef8eadd514610355578063f77c47911461038b57600080fd5b8063cc28d77f1461030d578063d46cf1711461032057600080fd5b80639483e7711461028f578063a51cfd18146102a2578063abc603e3146102c4578063c41c2f24146102e657600080fd5b80634292169811610109578063560f7b03116100ee578063560f7b03146102035780638c72c54e146102235780638f3d964b1461026857600080fd5b806342921698146101dd57806342f6c2fe146101f057600080fd5b806301ffc9a71461013b578063150b7a02146101635780631f84209a146101a75780633ce6d3e2146101c8575b600080fd5b61014e610149366004612894565b6103b2565b60405190151581526020015b60405180910390f35b610176610171366004612912565b61044b565b6040517fffffffff00000000000000000000000000000000000000000000000000000000909116815260200161015a565b6101ba6101b5366004612e95565b61055f565b60405190815260200161015a565b6101db6101d6366004612fae565b6110e2565b005b6101ba6101eb366004612fae565b611433565b6101ba6101fe3660046134f7565b611454565b6101ba610211366004612fae565b60016020526000908152604090205481565b6004546102439073ffffffffffffffffffffffffffffffffffffffff1681565b60405173ffffffffffffffffffffffffffffffffffffffff909116815260200161015a565b6102437f000000000000000000000000000000000000000000000000000000000000000081565b6101ba61029d366004612fae565b611671565b6102b56102b0366004613668565b611681565b60405161015a93929190613712565b6102d76102d23660046137db565b6116e9565b60405161015a939291906137fd565b6102437f000000000000000000000000000000000000000000000000000000000000000081565b6101ba61031b36600461383b565b6117cc565b61033361032e36600461397a565b611ad8565b60405161015a939291906139b6565b6101ba610350366004613a6d565b611e21565b610243610363366004612fae565b60026020526000908152604090205473ffffffffffffffffffffffffffffffffffffffff1681565b6102437f000000000000000000000000000000000000000000000000000000000000000081565b60007fffffffff0000000000000000000000000000000000000000000000000000000082167f71700c6900000000000000000000000000000000000000000000000000000000148061044557507f150b7a02000000000000000000000000000000000000000000000000000000007fffffffff000000000000000000000000000000000000000000000000000000008316145b92915050565b60007f000000000000000000000000000000000000000000000000000000000000000073ffffffffffffffffffffffffffffffffffffffff16638b79543c6040518163ffffffff1660e01b8152600401602060405180830381865afa1580156104b8573d6000803e3d6000fd5b505050506040513d601f19601f820116820180604052508101906104dc9190613b50565b73ffffffffffffffffffffffffffffffffffffffff163373ffffffffffffffffffffffffffffffffffffffff161461051357600080fd5b73ffffffffffffffffffffffffffffffffffffffff85161561053457600080fd5b507f150b7a020000000000000000000000000000000000000000000000000000000095945050505050565b604080516001808252818301909252600091829190816020015b60408051808201909152600081526060602082015281526020019060019003908161057957505060408051600180825281830190925291925060009190602082015b6040805160e08101825260008082526020808301829052928201819052606082018190526080820181905260a0820181905260c082015282527fffffffffffffffffffffffffffffffffffffffffffffffffffffffffffffffff9092019101816105bb5790505090506040518060e00160405280600015158152602001600015158152602001633b9aca008152602001600081526020018d73ffffffffffffffffffffffffffffffffffffffff16815260200160008152602001600073ffffffffffffffffffffffffffffffffffffffff16815250816001815181106106a3576106a3613b6d565b602002602001018190525060405180604001604052806002815260200182815250826000815181106106d7576106d7613b6d565b60200260200101819052507f000000000000000000000000000000000000000000000000000000000000000073ffffffffffffffffffffffffffffffffffffffff16638b79543c6040518163ffffffff1660e01b8152600401602060405180830381865afa15801561074d573d6000803e3d6000fd5b505050506040513d601f19601f820116820180604052508101906107719190613b50565b73ffffffffffffffffffffffffffffffffffffffff1663666d87a0308d6040518363ffffffff1660e01b81526004016107ab929190613b9c565b6020604051808303816000875af11580156107ca573d6000803e3d6000fd5b505050506040513d601f19601f820116820180604052508101906107ee9190613bea565b92507f000000000000000000000000000000000000000000000000000000000000000073ffffffffffffffffffffffffffffffffffffffff1663619306306040518163ffffffff1660e01b8152600401602060405180830381865afa15801561085b573d6000803e3d6000fd5b505050506040513d601f19601f8201168201806040525081019061087f9190613b50565b73ffffffffffffffffffffffffffffffffffffffff1663a7f2a70b848c8c6040518463ffffffff1660e01b81526004016108bb93929190613c03565b6020604051808303816000875af11580156108da573d6000803e3d6000fd5b505050506040513d601f19601f820116820180604052508101906108fe9190613b50565b508573ffffffffffffffffffffffffffffffffffffffff16637b621d3a848a60e001518973ffffffffffffffffffffffffffffffffffffffff166360b3042c6040518163ffffffff1660e01b8152600401602060405180830381865afa15801561096c573d6000803e3d6000fd5b505050506040513d601f19601f820116820180604052508101906109909190613bea565b8a73ffffffffffffffffffffffffffffffffffffffff1663737a79966040518163ffffffff1660e01b8152600401602060405180830381865afa1580156109db573d6000803e3d6000fd5b505050506040513d601f19601f820116820180604052508101906109ff9190613bea565b6040517fffffffff0000000000000000000000000000000000000000000000000000000060e087901b168152600481019490945262ffffff909216602484015263ffffffff908116604484015216606482015261eeee608482015260a4016020604051808303816000875af1158015610a7c573d6000803e3d6000fd5b505050506040513d601f19601f82011682018060405250810190610aa09190613b50565b507f000000000000000000000000000000000000000000000000000000000000000073ffffffffffffffffffffffffffffffffffffffff1663111d861b8460405180608001604052808c60600151815260200160128d60000151610b049190613d87565b81526040808e0151602080840191909152600092820183905281516102a0810183526102408101848152610260820185905261028082019490945292835260a08f01519083015260808e015190820190610b6090612710613d96565b8152600060208083018290526040808401839052606084018390526080840183905260a08401839052600160c0850181905260e0850184905261010085018490526101208501849052610140850184905261016085018490526101808501526101a08401839052306101c085015260ff8d166101e090940193909352825182815290810190925290889082610c68565b610c556040518060c00160405280600073ffffffffffffffffffffffffffffffffffffffff168152602001600073ffffffffffffffffffffffffffffffffffffffff168152602001600081526020016000815260200160008152602001600081525090565b815260200190600190039081610bf05790505b508e6040518863ffffffff1660e01b8152600401610c8c9796959493929190614090565b6020604051808303816000875af1158015610cab573d6000803e3d6000fd5b505050506040513d601f19601f82011682018060405250810190610ccf9190613bea565b505050836002600083815260200190815260200160002060006101000a81548173ffffffffffffffffffffffffffffffffffffffff021916908373ffffffffffffffffffffffffffffffffffffffff1602179055507f000000000000000000000000000000000000000000000000000000000000000073ffffffffffffffffffffffffffffffffffffffff16638ae9c07b8260128960200151610d729190613d87565b8d8b604051602001610d8491906141ae565b6040516020818303038152906040526000806040518763ffffffff1660e01b8152600401610db7969594939291906141f3565b6020604051808303816000875af1158015610dd6573d6000803e3d6000fd5b505050506040513d601f19601f82011682018060405250810190610dfa9190613bea565b507f000000000000000000000000000000000000000000000000000000000000000073ffffffffffffffffffffffffffffffffffffffff16632bdfe0046040518163ffffffff1660e01b8152600401602060405180830381865afa158015610e66573d6000803e3d6000fd5b505050506040513d601f19601f82011682018060405250810190610e8a9190613b50565b73ffffffffffffffffffffffffffffffffffffffff1663ad007d636040518163ffffffff1660e01b8152600401602060405180830381865afa158015610ed4573d6000803e3d6000fd5b505050506040513d601f19601f82011682018060405250810190610ef89190613b50565b73ffffffffffffffffffffffffffffffffffffffff1663529cdd2e60405180606001604052808d73ffffffffffffffffffffffffffffffffffffffff1681526020018481526020016000805480602002602001604051908101604052809291908181526020018280548015610f8c57602002820191906000526020600020905b815481526020019060010190808311610f78575b50505050508152506040518263ffffffff1660e01b8152600401610fb09190614248565b600060405180830381600087803b158015610fca57600080fd5b505af1158015610fde573d6000803e3d6000fd5b50505060c0870151610ff9915065ffffffffffff16426142b9565b6000828152600160205260408120919091558351905b818110156110d35784818151811061102957611029613b6d565b602002602001015160036000858152602001908152602001600020828154811061105557611055613b6d565b600091825260209182902083516003929092020180547fffffffffffffffffffffffff00000000000000000000000000000000000000001673ffffffffffffffffffffffffffffffffffffffff909216919091178155908201516001820155604082015160028201906110c8908261436e565b50505060010161100f565b50509998505050505050505050565b6040517f1f51045300000000000000000000000000000000000000000000000000000000815260048101829052600090819073ffffffffffffffffffffffffffffffffffffffff7f00000000000000000000000000000000000000000000000000000000000000001690631f510453906024016103c060405180830381865afa158015611173573d6000803e3d6000fd5b505050506040513d601f19601f82011682018060405250810190611197919061464f565b50815191935091506001146111d8576040517fc97554fa00000000000000000000000000000000000000000000000000000000815260040160405180910390fd5b60408051608080820183528481015182526000602080840182905260c08088015185870152606080860184905286516102a0810188526102408101858152610260820186905261028082018690528152808401859052888801518189015290810184905293840183905260a08401839052830182905260e08301829052610100830182905261012083018290526101408301829052610160830182905261018083018290526101a083018290526101c083018290526101e083018290526102008087015173ffffffffffffffffffffffffffffffffffffffff908116918501919091526102208781015190850152888352600182528583205486518481529283019096527f0000000000000000000000000000000000000000000000000000000000000000169463badbdf289489949093909290611339565b6040805180820190915260008152606060208201528152602001906001900390816113115790505b5060408051600080825260208201909252906113c8565b6113b56040518060c00160405280600073ffffffffffffffffffffffffffffffffffffffff168152602001600073ffffffffffffffffffffffffffffffffffffffff168152602001600081526020016000815260200160008152602001600081525090565b8152602001906001900390816113505790505b506040518763ffffffff1660e01b81526004016113ea96959493929190614706565b6020604051808303816000875af1158015611409573d6000803e3d6000fd5b505050506040513d601f19601f8201168201806040525081019061142d9190613bea565b50505050565b6005818154811061144357600080fd5b600091825260209091200154905081565b60006114688c8c8c8c8c8c8c8c8c8c6117cc565b905081516000146114fd57600480546040517f200e8ae400000000000000000000000000000000000000000000000000000000815273ffffffffffffffffffffffffffffffffffffffff9091169163200e8ae4916114ca9185918791016147fa565b600060405180830381600087803b1580156114e457600080fd5b505af11580156114f8573d6000803e3d6000fd5b505050505b7f000000000000000000000000000000000000000000000000000000000000000073ffffffffffffffffffffffffffffffffffffffff1663ad007d636040518163ffffffff1660e01b8152600401602060405180830381865afa158015611568573d6000803e3d6000fd5b505050506040513d601f19601f8201168201806040525081019061158c9190613b50565b6040805160608101825260045473ffffffffffffffffffffffffffffffffffffffff90811682526020808301869052600580548551818402810184018752818152969093169563529cdd2e95850193909283018282801561160c57602002820191906000526020600020905b8154815260200190600101908083116115f8575b50505050508152506040518263ffffffff1660e01b81526004016116309190614248565b600060405180830381600087803b15801561164a57600080fd5b505af115801561165e573d6000803e3d6000fd5b505050509b9a5050505050505050505050565b6000818154811061144357600080fd5b6040805160008082526020820190925260609081908390816116cd565b6040805160608082018352600080835260208301529181019190915281526020019060019003908161169e5790505b5060408051602081019091526000815291969195509350915050565b6003602052816000526040600020818154811061170557600080fd5b600091825260209091206003909102018054600182015460028301805473ffffffffffffffffffffffffffffffffffffffff909316955090935090611749906142cc565b80601f0160208091040260200160405190810160405280929190818152602001828054611775906142cc565b80156117c25780601f10611797576101008083540402835291602001916117c2565b820191906000526020600020905b8154815290600101906020018083116117a557829003601f168201915b5050505050905083565b60007f000000000000000000000000000000000000000000000000000000000000000073ffffffffffffffffffffffffffffffffffffffff16638b79543c6040518163ffffffff1660e01b8152600401602060405180830381865afa158015611839573d6000803e3d6000fd5b505050506040513d601f19601f8201168201806040525081019061185d9190613b50565b73ffffffffffffffffffffffffffffffffffffffff166306661abd6040518163ffffffff1660e01b8152600401602060405180830381865afa1580156118a7573d6000803e3d6000fd5b505050506040513d601f19601f820116820180604052508101906118cb9190613bea565b6118d69060016142b9565b835190915060006118e88260016142b9565b67ffffffffffffffff811115611900576119006129b1565b60405190808252806020026020018201604052801561194d57816020015b6040805160608082018352600080835260208301529181019190915281526020019060019003908161191e5790505b50905060005b8281101561199a5785818151811061196d5761196d613b6d565b602002602001015182828151811061198757611987613b6d565b6020908102919091010152600101611953565b506040517f70d7f24900000000000000000000000000000000000000000000000000000000815260009073ffffffffffffffffffffffffffffffffffffffff7f000000000000000000000000000000000000000000000000000000000000000016906370d7f24990611a129087908b90600401614a7c565b6020604051808303816000875af1158015611a31573d6000803e3d6000fd5b505050506040513d601f19601f82011682018060405250810190611a559190613b50565b905060405180606001604052808273ffffffffffffffffffffffffffffffffffffffff1681526020016000815260200160405180602001604052806000815250815250828481518110611aaa57611aaa613b6d565b602002602001018190525050611ac78d8d8d8d8d8d8d888c61055f565b5050509a9950505050505050505050565b60c08101356000908152600260205260408082205490517fd46cf1710000000000000000000000000000000000000000000000000000000081526060918291829173ffffffffffffffffffffffffffffffffffffffff169063d46cf17190611b44908890600401614d25565b600060405180830381865afa158015611b61573d6000803e3d6000fd5b505050506040513d6000823e601f3d9081017fffffffffffffffffffffffffffffffffffffffffffffffffffffffffffffffe0168201604052611ba79190810190614e99565b60c088013560009081526003602090815260408083208054825181850281018501909352808352969a509396509194919350849084015b82821015611ccf5760008481526020908190206040805160608101825260038602909201805473ffffffffffffffffffffffffffffffffffffffff16835260018101549383019390935260028301805492939291840191611c3e906142cc565b80601f0160208091040260200160405190810160405280929190818152602001828054611c6a906142cc565b8015611cb75780601f10611c8c57610100808354040283529160200191611cb7565b820191906000526020600020905b815481529060010190602001808311611c9a57829003601f168201915b50505050508152505081526020019060010190611bde565b50508251929350611ce5915082905060016142b9565b67ffffffffffffffff811115611cfd57611cfd6129b1565b604051908082528060200260200182016040528015611d4a57816020015b60408051606080820183526000808352602083015291810191909152815260200190600190039081611d1b5790505b50935060005b81811015611d9757828181518110611d6a57611d6a613b6d565b6020026020010151858281518110611d8457611d84613b6d565b6020908102919091010152600101611d50565b5082600081518110611dab57611dab613b6d565b6020026020010151848281518110611dc557611dc5613b6d565b6020908102919091010152611dde610160880188615012565b8080601f016020809104026020016040519081016040528093929190818152602001838380828437600092019190915250989a9299509597509095505050505050565b604080516001808252818301909252600091829190816020015b604080518082019091526000815260606020820152815260200190600190039081611e3b57505060408051600180825281830190925291925060009190602082015b6040805160e08101825260008082526020808301829052928201819052606082018190526080820181905260a0820181905260c082015282527fffffffffffffffffffffffffffffffffffffffffffffffffffffffffffffffff909201910181611e7d5790505090506040518060e00160405280600015158152602001600015158152602001633b9aca008152602001600081526020018b73ffffffffffffffffffffffffffffffffffffffff16815260200160008152602001600073ffffffffffffffffffffffffffffffffffffffff1681525081600181518110611f6557611f65613b6d565b60200260200101819052506040518060400160405280600281526020018281525082600081518110611f9957611f99613b6d565b6020026020010181905250507f000000000000000000000000000000000000000000000000000000000000000073ffffffffffffffffffffffffffffffffffffffff16638b79543c6040518163ffffffff1660e01b8152600401602060405180830381865afa158015612010573d6000803e3d6000fd5b505050506040513d601f19601f820116820180604052508101906120349190613b50565b73ffffffffffffffffffffffffffffffffffffffff1663666d87a0308a6040518363ffffffff1660e01b815260040161206e929190613b9c565b6020604051808303816000875af115801561208d573d6000803e3d6000fd5b505050506040513d601f19601f820116820180604052508101906120b19190613bea565b91507f000000000000000000000000000000000000000000000000000000000000000073ffffffffffffffffffffffffffffffffffffffff1663619306306040518163ffffffff1660e01b8152600401602060405180830381865afa15801561211e573d6000803e3d6000fd5b505050506040513d601f19601f820116820180604052508101906121429190613b50565b73ffffffffffffffffffffffffffffffffffffffff1663a7f2a70b8389896040518463ffffffff1660e01b815260040161217e93929190613c03565b6020604051808303816000875af115801561219d573d6000803e3d6000fd5b505050506040513d601f19601f820116820180604052508101906121c19190613b50565b508273ffffffffffffffffffffffffffffffffffffffff16637b621d3a838760e001518673ffffffffffffffffffffffffffffffffffffffff166360b3042c6040518163ffffffff1660e01b8152600401602060405180830381865afa15801561222f573d6000803e3d6000fd5b505050506040513d601f19601f820116820180604052508101906122539190613bea565b8773ffffffffffffffffffffffffffffffffffffffff1663737a79966040518163ffffffff1660e01b8152600401602060405180830381865afa15801561229e573d6000803e3d6000fd5b505050506040513d601f19601f820116820180604052508101906122c29190613bea565b6040517fffffffff0000000000000000000000000000000000000000000000000000000060e087901b168152600481019490945262ffffff909216602484015263ffffffff908116604484015216606482015261eeee608482015260a4016020604051808303816000875af115801561233f573d6000803e3d6000fd5b505050506040513d601f19601f820116820180604052508101906123639190613b50565b507f000000000000000000000000000000000000000000000000000000000000000073ffffffffffffffffffffffffffffffffffffffff1663111d861b8360405180608001604052808960600151815260200160128a600001516123c79190613d87565b81526040808b0151602080840191909152600092820183905281516102a0810183526102408101848152610260820185905261028082019490945292835260a08c01519083015260808b01519082019061242390612710613d96565b8152600060208083018290526040808401839052606084018390526080840183905260a08401839052600160c0850181905260e0850184905261010085018490526101208501849052610140850184905261016085018490526101808501526101a0840183905273ffffffffffffffffffffffffffffffffffffffff8c166101c08501526101e090930182905282518281529081019092529087908261253c565b6125296040518060c00160405280600073ffffffffffffffffffffffffffffffffffffffff168152602001600073ffffffffffffffffffffffffffffffffffffffff168152602001600081526020016000815260200160008152602001600081525090565b8152602001906001900390816124c45790505b508b6040518863ffffffff1660e01b81526004016125609796959493929190614090565b6020604051808303816000875af115801561257f573d6000803e3d6000fd5b505050506040513d601f19601f820116820180604052508101906125a39190613bea565b507f000000000000000000000000000000000000000000000000000000000000000073ffffffffffffffffffffffffffffffffffffffff16638ae9c07b83601288602001516125f29190613d87565b8c8a60405160200161260491906141ae565b6040516020818303038152906040526000806040518763ffffffff1660e01b8152600401612637969594939291906141f3565b6020604051808303816000875af1158015612656573d6000803e3d6000fd5b505050506040513d601f19601f8201168201806040525081019061267a9190613bea565b507f000000000000000000000000000000000000000000000000000000000000000073ffffffffffffffffffffffffffffffffffffffff16632bdfe0046040518163ffffffff1660e01b8152600401602060405180830381865afa1580156126e6573d6000803e3d6000fd5b505050506040513d601f19601f8201168201806040525081019061270a9190613b50565b73ffffffffffffffffffffffffffffffffffffffff1663ad007d636040518163ffffffff1660e01b8152600401602060405180830381865afa158015612754573d6000803e3d6000fd5b505050506040513d601f19601f820116820180604052508101906127789190613b50565b73ffffffffffffffffffffffffffffffffffffffff1663529cdd2e60405180606001604052808c73ffffffffffffffffffffffffffffffffffffffff168152602001858152602001600080548060200260200160405190810160405280929190818152602001828054801561280c57602002820191906000526020600020905b8154815260200190600101908083116127f8575b50505050508152506040518263ffffffff1660e01b81526004016128309190614248565b600060405180830381600087803b15801561284a57600080fd5b505af115801561285e573d6000803e3d6000fd5b50505060c0860151612879915065ffffffffffff16426142b9565b60008381526001602052604090205550979650505050505050565b6000602082840312156128a657600080fd5b81357fffffffff00000000000000000000000000000000000000000000000000000000811681146128d657600080fd5b9392505050565b73ffffffffffffffffffffffffffffffffffffffff811681146128ff57600080fd5b50565b803561290d816128dd565b919050565b60008060008060006080868803121561292a57600080fd5b8535612935816128dd565b94506020860135612945816128dd565b935060408601359250606086013567ffffffffffffffff8082111561296957600080fd5b818801915088601f83011261297d57600080fd5b81358181111561298c57600080fd5b89602082850101111561299e57600080fd5b9699959850939650602001949392505050565b7f4e487b7100000000000000000000000000000000000000000000000000000000600052604160045260246000fd5b6040516060810167ffffffffffffffff81118282101715612a0357612a036129b1565b60405290565b6040516080810167ffffffffffffffff81118282101715612a0357612a036129b1565b604051610160810167ffffffffffffffff81118282101715612a0357612a036129b1565b60405160c0810167ffffffffffffffff81118282101715612a0357612a036129b1565b604051610240810167ffffffffffffffff81118282101715612a0357612a036129b1565b604051610120810167ffffffffffffffff81118282101715612a0357612a036129b1565b604051601f82017fffffffffffffffffffffffffffffffffffffffffffffffffffffffffffffffe016810167ffffffffffffffff81118282101715612b0257612b026129b1565b604052919050565b600067ffffffffffffffff821115612b2457612b246129b1565b50601f017fffffffffffffffffffffffffffffffffffffffffffffffffffffffffffffffe01660200190565b6000612b63612b5e84612b0a565b612abb565b9050828152838383011115612b7757600080fd5b828260208301376000602084830101529392505050565b600082601f830112612b9f57600080fd5b6128d683833560208501612b50565b600060408284031215612bc057600080fd5b6040516040810167ffffffffffffffff8282108183111715612be457612be46129b1565b816040528293508435915080821115612bfc57600080fd5b50612c0985828601612b8e565b825250602083013560208201525092915050565b803565ffffffffffff8116811461290d57600080fd5b803562ffffff8116811461290d57600080fd5b6000610100808385031215612c5a57600080fd5b6040519081019067ffffffffffffffff82118183101715612c7d57612c7d6129b1565b81604052809250833581526020840135602082015260408401356040820152606084013560608201526080840135608082015260a084013560a0820152612cc660c08501612c1d565b60c0820152612cd760e08501612c33565b60e0820152505092915050565b600067ffffffffffffffff821115612cfe57612cfe6129b1565b5060051b60200190565b600082601f830112612d1957600080fd5b81356020612d29612b5e83612ce4565b82815260059290921b84018101918181019086841115612d4857600080fd5b8286015b84811015612d6c578035612d5f816128dd565b8352918301918301612d4c565b509695505050505050565b600082601f830112612d8857600080fd5b81356020612d98612b5e83612ce4565b82815260059290921b84018101918181019086841115612db757600080fd5b8286015b84811015612d6c57803567ffffffffffffffff80821115612ddc5760008081fd5b81890191506060807fffffffffffffffffffffffffffffffffffffffffffffffffffffffffffffffe0848d03011215612e155760008081fd5b612e1d6129e0565b87840135612e2a816128dd565b815260408481013589830152918401359183831115612e495760008081fd5b82850194508c603f860112612e6057600093508384fd5b612e708d8a870135838801612b50565b908201528652505050918301918301612dbb565b803560ff8116811461290d57600080fd5b60008060008060008060008060006102008a8c031215612eb457600080fd5b612ebd8a612902565b985060208a013567ffffffffffffffff80821115612eda57600080fd5b612ee68d838e01612bae565b995060408c0135915080821115612efc57600080fd5b612f088d838e01612b8e565b985060608c0135915080821115612f1e57600080fd5b612f2a8d838e01612b8e565b9750612f398d60808e01612c46565b96506101808c0135915080821115612f5057600080fd5b612f5c8d838e01612d08565b9550612f6b6101a08d01612902565b94506101c08c0135915080821115612f8257600080fd5b50612f8f8c828d01612d77565b925050612f9f6101e08b01612e84565b90509295985092959850929598565b600060208284031215612fc057600080fd5b5035919050565b80356cffffffffffffffffffffffffff8116811461290d57600080fd5b803563ffffffff8116811461290d57600080fd5b803561ffff8116811461290d57600080fd5b80151581146128ff57600080fd5b803561290d8161300a565b6000608080838503121561303657600080fd5b61303e612a09565b9150823567ffffffffffffffff81111561305757600080fd5b8301601f8101851361306857600080fd5b80356020613078612b5e83612ce4565b828152610160928302840182019282820191908985111561309857600080fd5b948301945b848610156131795780868b0312156130b55760008081fd5b6130bd612a2c565b6130c687612fc7565b81526130d3858801612fe4565b8582015260406130e4818901612fe4565b9082015260606130f5888201612ff8565b90820152613104878901612902565b8189015260a0878101359082015260c061311f818901612c33565b9082015260e0613130888201613018565b90820152610100613142888201613018565b90820152610120613154888201613018565b90820152610140613166888201613018565b908201528352948501949183019161309d565b50865250613188868201612c1d565b818601525050505061319c60408301612c1d565b60408201526131ad60608301612902565b606082015292915050565b6000608082840312156131ca57600080fd5b6131d2612a09565b905081356131df8161300a565b815260208201356131ef8161300a565b602082015260408201356132028161300a565b604082015260608201356131ad8161300a565b80356002811061290d57600080fd5b60006101c0828403121561323757600080fd5b61323f612a2c565b9050813567ffffffffffffffff8082111561325957600080fd5b61326585838601612b8e565b8352602084013591508082111561327b57600080fd5b61328785838601612b8e565b602084015261329860408501612902565b604084015260608401359150808211156132b157600080fd5b6132bd85838601612b8e565b60608401526132ce60808501612902565b608084015260a08401359150808211156132e757600080fd5b6132f385838601612b8e565b60a084015260c084013591508082111561330c57600080fd5b5061331984828501613023565b60c08301525061332b60e08301612902565b60e082015261010061333e818401612902565b90820152610120613351848483016131b8565b908201526133626101a08301613215565b61014082015292915050565b600082601f83011261337f57600080fd5b8135602061338f612b5e83612ce4565b828152600592831b85018201928282019190878511156133ae57600080fd5b8387015b858110156134ea57803567ffffffffffffffff808211156133d35760008081fd5b818a01915060c0807fffffffffffffffffffffffffffffffffffffffffffffffffffffffffffffffe0848e0301121561340c5760008081fd5b613414612a50565b88840135613421816128dd565b808252506040808501358a830152606080860135828401526080808701358285015260a09150818701358185015250838601359350848411156134645760008081fd5b83860195508e603f87011261347b57600094508485fd5b8a860135945061348d612b5e86612ce4565b85815294881b86018201948b810194508f8611156134ab5760008081fd5b958201955b858710156134d557863592506134c5836128dd565b828552958b0195938b01936134b0565b908301525087525050509284019284016133b2565b5090979650505050505050565b60008060008060008060008060008060006102408c8e03121561351957600080fd5b6135228c612902565b9a5067ffffffffffffffff8060208e0135111561353e57600080fd5b61354e8e60208f01358f01612bae565b9a508060408e0135111561356157600080fd5b6135718e60408f01358f01612b8e565b99508060608e0135111561358457600080fd5b6135948e60608f01358f01612b8e565b98506135a38e60808f01612c46565b9750806101808e013511156135b757600080fd5b6135c88e6101808f01358f01612d08565b96506135d76101a08e01612902565b9550806101c08e013511156135eb57600080fd5b6135fc8e6101c08f01358f01613224565b9450806101e08e0135111561361057600080fd5b6136218e6101e08f01358f01612d77565b93506136306102008e01612e84565b9250806102208e0135111561364457600080fd5b506136568d6102208e01358e0161336e565b90509295989b509295989b9093969950565b60006020828403121561367a57600080fd5b813567ffffffffffffffff81111561369157600080fd5b82016101e081850312156128d657600080fd5b60005b838110156136bf5781810151838201526020016136a7565b50506000910152565b600081518084526136e08160208601602086016136a4565b601f017fffffffffffffffffffffffffffffffffffffffffffffffffffffffffffffffe0169290920160200192915050565b600060608583526020818185015261372c828501876136c8565b6040858203818701528187518084528484019150848160051b850101858a0160005b838110156137c9578683037fffffffffffffffffffffffffffffffffffffffffffffffffffffffffffffffe00185528151805173ffffffffffffffffffffffffffffffffffffffff16845288810151898501528601518684018a90526137b68a8501826136c8565b958901959350509087019060010161374e565b50909c9b505050505050505050505050565b600080604083850312156137ee57600080fd5b50508035926020909101359150565b73ffffffffffffffffffffffffffffffffffffffff8416815282602082015260606040820152600061383260608301846136c8565b95945050505050565b6000806000806000806000806000806102208b8d03121561385b57600080fd5b6138648b612902565b995060208b013567ffffffffffffffff8082111561388157600080fd5b61388d8e838f01612bae565b9a5060408d01359150808211156138a357600080fd5b6138af8e838f01612b8e565b995060608d01359150808211156138c557600080fd5b6138d18e838f01612b8e565b98506138e08e60808f01612c46565b97506101808d01359150808211156138f757600080fd5b6139038e838f01612d08565b96506139126101a08e01612902565b95506101c08d013591508082111561392957600080fd5b6139358e838f01613224565b94506101e08d013591508082111561394c57600080fd5b506139598d828e01612d77565b9250506139696102008c01612e84565b90509295989b9194979a5092959850565b60006020828403121561398c57600080fd5b813567ffffffffffffffff8111156139a357600080fd5b82016101a081850312156128d657600080fd5b60006060858352602081818501526139d0828501876136c8565b6040858203818701528187518084528484019150848160051b850101858a0160005b838110156137c9578683037fffffffffffffffffffffffffffffffffffffffffffffffffffffffffffffffe00185528151805173ffffffffffffffffffffffffffffffffffffffff16845288810151898501528601518684018a9052613a5a8a8501826136c8565b95890195935050908701906001016139f2565b60008060008060008060006101c0888a031215613a8957600080fd5b613a9288612902565b9650602088013567ffffffffffffffff80821115613aaf57600080fd5b613abb8b838c01612bae565b975060408a0135915080821115613ad157600080fd5b613add8b838c01612b8e565b965060608a0135915080821115613af357600080fd5b613aff8b838c01612b8e565b9550613b0e8b60808c01612c46565b94506101808a0135915080821115613b2557600080fd5b50613b328a828b01612d08565b925050613b426101a08901612902565b905092959891949750929550565b600060208284031215613b6257600080fd5b81516128d6816128dd565b7f4e487b7100000000000000000000000000000000000000000000000000000000600052603260045260246000fd5b73ffffffffffffffffffffffffffffffffffffffff831681526040602082015260008251604080840152613bd360808401826136c8565b905060208401516060840152809150509392505050565b600060208284031215613bfc57600080fd5b5051919050565b838152606060208201526000613c1c60608301856136c8565b8281036040840152613c2e81856136c8565b9695505050505050565b7f4e487b7100000000000000000000000000000000000000000000000000000000600052601160045260246000fd5b600181815b80851115613cc057817fffffffffffffffffffffffffffffffffffffffffffffffffffffffffffffffff04821115613ca657613ca6613c38565b80851615613cb357918102915b93841c9390800290613c6c565b509250929050565b600082613cd757506001610445565b81613ce457506000610445565b8160018114613cfa5760028114613d0457613d20565b6001915050610445565b60ff841115613d1557613d15613c38565b50506001821b610445565b5060208310610133831016604e8410600b8410161715613d43575081810a610445565b613d4d8383613c67565b807fffffffffffffffffffffffffffffffffffffffffffffffffffffffffffffffff04821115613d7f57613d7f613c38565b029392505050565b60006128d660ff841683613cc8565b8181038181111561044557610445613c38565b613dce8282518051151582526020808201511515908301526040908101511515910152565b6020810151606083015260408101516080830152606081015160a08301526080810151613dff60c084018215159052565b5060a081015180151560e08401525060c0810151610100613e238185018315159052565b60e08301519150610120613e3a8186018415159052565b90830151915061014090613e518583018415159052565b8301519150610160613e668582018415159052565b90830151915061018090613e7d8583018415159052565b83015191506101a0613e928582018415159052565b9083015191506101c090613ea98583018415159052565b83015191506101e0613ebe8582018415159052565b90830151915061020090613ed58583018415159052565b8301519150610220613eea8582018415159052565b9083015173ffffffffffffffffffffffffffffffffffffffff16610240850152909101516102609092019190915250565b600081518084526020808501808196508360051b810191508286016000805b86811015613ffa578385038a52825180518652860151604087870181905281518188018190529188019160609081890190865b81811015613fe35785518051151584528c81015115158d8501528581015186850152848101518585015260808082015173ffffffffffffffffffffffffffffffffffffffff9081169186019190915260a0808301519086015260c0918201511690840152948b019460e090920191600101613f6d565b50509c89019c975050509286019250600101613f3a565b509298975050505050505050565b600081518084526020808501945080840160005b83811015614085578151805173ffffffffffffffffffffffffffffffffffffffff908116895284820151168489015260408082015190890152606080820151908901526080808201519089015260a0908101519088015260c0909601959082019060010161401c565b509495945050505050565b60006103c089835260206140dd8185018b80518252602081015160208301526040810151604083015273ffffffffffffffffffffffffffffffffffffffff60608201511660608301525050565b6140ea60a085018a613da9565b876103208501528161034085015261410482850188613f1b565b91508382036103608501526141198287614008565b848103610380860152855180825282870193509082019060005b8181101561416557845173ffffffffffffffffffffffffffffffffffffffff1683529383019391830191600101614133565b50508481036103a0860152601b81527f4465706c6f7965642052657461696c69737420747265617375727900000000006020820152604081019c9b505050505050505050505050565b7f5072656d696e74656420240000000000000000000000000000000000000000008152600082516141e681600b8501602087016136a4565b91909101600b0192915050565b86815285602082015273ffffffffffffffffffffffffffffffffffffffff8516604082015260c06060820152600061422e60c08301866136c8565b93151560808301525090151560a090910152949350505050565b600060208083526080830173ffffffffffffffffffffffffffffffffffffffff85511682850152818501516040850152604085015160608086015281815180845260a0870191508483019350600092505b80831015612d6c5783518252928401926001929092019190840190614299565b8082018082111561044557610445613c38565b600181811c908216806142e057607f821691505b602082108103614319577f4e487b7100000000000000000000000000000000000000000000000000000000600052602260045260246000fd5b50919050565b601f82111561436957600081815260208120601f850160051c810160208610156143465750805b601f850160051c820191505b8181101561436557828155600101614352565b5050505b505050565b815167ffffffffffffffff811115614388576143886129b1565b61439c8161439684546142cc565b8461431f565b602080601f8311600181146143ef57600084156143b95750858301515b7fffffffffffffffffffffffffffffffffffffffffffffffffffffffffffffffff600386901b1c1916600185901b178555614365565b6000858152602081207fffffffffffffffffffffffffffffffffffffffffffffffffffffffffffffffe08616915b8281101561443c5788860151825594840194600190910190840161441d565b508582101561447857878501517fffffffffffffffffffffffffffffffffffffffffffffffffffffffffffffffff600388901b60f8161c191681555b5050505050600190811b01905550565b805161290d816128dd565b805161290d8161300a565b6000606082840312156144b057600080fd5b6144b86129e0565b905081516144c58161300a565b815260208201516144d58161300a565b602082015260408201516144e88161300a565b604082015292915050565b6000610280828403121561450657600080fd5b61450e612a73565b905061451a838361449e565b8152606082015160208201526080820151604082015260a0820151606082015261454660c08301614493565b608082015261455760e08301614493565b60a082015261010061456a818401614493565b60c083015261012061457d818501614493565b60e0840152610140614590818601614493565b8385015261016092506145a4838601614493565b8285015261018091506145b8828601614493565b908401526101a06145ca858201614493565b838501526101c092506145de838601614493565b828501526101e091506145f2828601614493565b90840152610200614604858201614493565b838501526102209250614618838601614493565b828501526146296102408601614488565b818501525050610260830151818301525092915050565b80516003811061290d57600080fd5b60008060008385036103c081121561466657600080fd5b6101208082121561467657600080fd5b61467e612a97565b9150855182526020860151602083015260408601516040830152606086015160608301526080860151608083015260a086015160a083015260c086015160c08301526146cc60e08701614488565b60e08301526101008087015181840152508194506146ec878288016144f3565b935050506146fd6103a08501614640565b90509250925092565b60006103a0888352614752602084018980518252602081015160208301526040810151604083015273ffffffffffffffffffffffffffffffffffffffff60608201511660608301525050565b61475f60a0840188613da9565b856103208401528061034084015261477981840186613f1b565b905082810361036084015261478e8185614008565b838103610380909401939093525050602c81527f5363686564756c656420626f6f737420657870697279206f662052657461696c60208201527f697374207472656173757279000000000000000000000000000000000000000060408201526060019695505050505050565b6000604080830185845260208281860152818651808452606093508387019150838160051b8801018389016000805b848110156148f1578a84037fffffffffffffffffffffffffffffffffffffffffffffffffffffffffffffffa00186528251805173ffffffffffffffffffffffffffffffffffffffff908116865288820151898701528a8201518b870152898201518a8701526080808301519087015260a09182015160c0928701839052805192870183905289019160e087019185915b808310156148db57845182168452938b0193928b0192600192909201916148b9565b5050509688019694505091860191600101614829565b50919b9a5050505050505050505050565b80516080808452815184820181905260009260a0916020918201918388019190865b828110156149e757845180516cffffffffffffffffffffffffff1685528281015163ffffffff908116848701526040808301519091169086015260608082015161ffff16908601528781015173ffffffffffffffffffffffffffffffffffffffff1688860152868101518786015260c08082015162ffffff169086015260e0808201511515908601526101008082015115159086015261012080820151151590860152610140908101511515908501529381019361016090930192600101614924565b508781015165ffffffffffff81168a8301529550505060408601519350614a18604088018565ffffffffffff169052565b60608601519350613c2e606088018573ffffffffffffffffffffffffffffffffffffffff169052565b60028110614a78577f4e487b7100000000000000000000000000000000000000000000000000000000600052602160045260246000fd5b9052565b82815260406020820152600082516101c06040840152614aa06102008401826136c8565b905060208401517fffffffffffffffffffffffffffffffffffffffffffffffffffffffffffffffc080858403016060860152614adc83836136c8565b925060408601519150614b07608086018373ffffffffffffffffffffffffffffffffffffffff169052565b60608601519150808584030160a0860152614b2283836136c8565b925060808601519150614b4d60c086018373ffffffffffffffffffffffffffffffffffffffff169052565b60a08601519150808584030160e0860152614b6883836136c8565b925060c08601519150610100818685030181870152614b878484614902565b935060e087015192506101209150614bb68287018473ffffffffffffffffffffffffffffffffffffffff169052565b8601519150610140614bdf8682018473ffffffffffffffffffffffffffffffffffffffff169052565b908601518051151561016087015260208101511515610180870152604081015115156101a08701526060015115156101c08601528501519050614c266101e0850182614a41565b50949350505050565b8035614c3a816128dd565b73ffffffffffffffffffffffffffffffffffffffff1682526020818101359083015260408082013590830152606090810135910152565b60008083357fffffffffffffffffffffffffffffffffffffffffffffffffffffffffffffffe1843603018112614ca657600080fd5b830160208101925035905067ffffffffffffffff811115614cc657600080fd5b803603821315614cd557600080fd5b9250929050565b8183528181602085013750600060208284010152600060207fffffffffffffffffffffffffffffffffffffffffffffffffffffffffffffffe0601f840116840101905092915050565b60208152614d5360208201614d3984612902565b73ffffffffffffffffffffffffffffffffffffffff169052565b6000614d6160208401612902565b73ffffffffffffffffffffffffffffffffffffffff8116604084015250614d8e6060830160408501614c2f565b60c083013560e083015261010060e084013581840152614daf818501612902565b9050610120614dd58185018373ffffffffffffffffffffffffffffffffffffffff169052565b61014091508085013582850152506101608185013581850152614dfa81860186614c71565b925090506101a06101808181870152614e186101c087018585614cdc565b9350614e2681880188614c71565b935090507fffffffffffffffffffffffffffffffffffffffffffffffffffffffffffffffe08685030182870152614e5e848483614cdc565b979650505050505050565b6000614e77612b5e84612b0a565b9050828152838383011115614e8b57600080fd5b6128d68360208301846136a4565b600080600060608486031215614eae57600080fd5b8351925060208085015167ffffffffffffffff80821115614ece57600080fd5b818701915087601f830112614ee257600080fd5b614ef0888351858501614e69565b94506040870151915080821115614f0657600080fd5b818701915087601f830112614f1a57600080fd5b8151614f28612b5e82612ce4565b81815260059190911b8301840190848101908a831115614f4757600080fd5b8585015b8381101561500157805185811115614f6257600080fd5b86016060818e037fffffffffffffffffffffffffffffffffffffffffffffffffffffffffffffffe0011215614f9657600080fd5b614f9e6129e0565b88820151614fab816128dd565b8152604082015189820152606082015187811115614fc857600080fd5b8083019250508d603f830112614fdd57600080fd5b614fee8e8a84015160408501614e69565b6040820152845250918601918601614f4b565b508096505050505050509250925092565b60008083357fffffffffffffffffffffffffffffffffffffffffffffffffffffffffffffffe184360301811261504757600080fd5b83018035915067ffffffffffffffff82111561506257600080fd5b602001915036819003821315614cd557600080fdfea2646970667358221220c0dadff89ec39058893d87523c52fd2ec0559b593e78381a357d9b4e27b26bf964736f6c63430008150033",
    "linkReferences": {}
  },
  "methodIdentifiers": {
    "buybackDelegateDataSourceOf(uint256)": "ef8eadd5",
    "controller()": "f77c4791",
    "croptopPermissionIndexes(uint256)": "42921698",
    "delegateAllocationsOf(uint256,uint256)": "abc603e3",
    "delegateDeployer()": "8f3d964b",
    "deployBasicProjectFor(address,(string,uint256),string,string,(uint256,uint256,uint256,uint256,uint256,uint256,uint48,uint24),address[],address)": "d87b09e3",
    "deployCroptopTiered721PayAllocatorProjectFor(address,(string,uint256),string,string,(uint256,uint256,uint256,uint256,uint256,uint256,uint48,uint24),address[],address,(string,string,address,string,address,string,((uint104,uint32,uint32,uint16,address,bytes32,uint24,bool,bool,bool,bool)[],uint48,uint48,address),address,address,(bool,bool,bool,bool),uint8),(address,uint256,bytes)[],uint8,(address,uint256,uint256,uint256,uint256,address[])[])": "42f6c2fe",
    "deployPayAllocatorProjectFor(address,(string,uint256),string,string,(uint256,uint256,uint256,uint256,uint256,uint256,uint48,uint24),address[],address,(address,uint256,bytes)[],uint8)": "1f84209a",
    "deployTiered721PayAllocatorProjectFor(address,(string,uint256),string,string,(uint256,uint256,uint256,uint256,uint256,uint256,uint48,uint24),address[],address,(string,string,address,string,address,string,((uint104,uint32,uint32,uint16,address,bytes32,uint24,bool,bool,bool,bool)[],uint48,uint48,address),address,address,(bool,bool,bool,bool),uint8),(address,uint256,bytes)[],uint8)": "cc28d77f",
    "directory()": "c41c2f24",
    "onERC721Received(address,address,uint256,bytes)": "150b7a02",
    "payParams((address,address,(address,uint256,uint256,uint256),uint256,uint256,address,uint256,uint256,string,bytes))": "d46cf171",
    "permissionIndexes(uint256)": "9483e771",
    "publisher()": "8c72c54e",
    "reconfigurationStartTimestampOf(uint256)": "560f7b03",
    "redeemParams((address,address,uint256,uint256,uint256,uint256,uint256,(address,uint256,uint256,uint256),bool,uint256,string,bytes))": "a51cfd18",
    "scheduleReconfigurationOf(uint256)": "3ce6d3e2",
    "supportsInterface(bytes4)": "01ffc9a7"
  },
  "id": 103
}