{
  "abi": [
    {
      "inputs": [
        {
          "internalType": "contract CroptopPublisher",
          "name": "_publisher",
          "type": "address"
        },
        {
          "internalType": "contract IJBDirectory",
          "name": "_directory",
          "type": "address"
        },
        {
          "internalType": "contract IJBTiered721DelegateDeployer",
          "name": "_delegateDeployer",
          "type": "address"
        },
        {
          "internalType": "contract IJBController3_1",
          "name": "_controller",
          "type": "address"
        },
        {
          "internalType": "contract IJBPayoutRedemptionPaymentTerminal3_1_1",
          "name": "_terminal",
          "type": "address"
        },
        {
          "internalType": "contract IJBGenericBuybackDelegate",
          "name": "_buybackDelegate",
          "type": "address"
        }
      ],
      "stateMutability": "nonpayable",
      "type": "constructor"
    },
    {
      "inputs": [],
      "name": "RECONFIGURATION_ALREADY_SCHEDULED",
      "type": "error"
    },
    {
      "inputs": [],
      "name": "buybackDelegate",
      "outputs": [
        {
          "internalType": "contract IJBGenericBuybackDelegate",
          "name": "",
          "type": "address"
        }
      ],
      "stateMutability": "view",
      "type": "function"
    },
    {
      "inputs": [],
      "name": "controller",
      "outputs": [
        {
          "internalType": "contract IJBController3_1",
          "name": "",
          "type": "address"
        }
      ],
      "stateMutability": "view",
      "type": "function"
    },
    {
      "inputs": [
        {
          "internalType": "uint256",
          "name": "",
          "type": "uint256"
        }
      ],
      "name": "croptopPermissionIndexes",
      "outputs": [
        {
          "internalType": "uint256",
          "name": "",
          "type": "uint256"
        }
      ],
      "stateMutability": "view",
      "type": "function"
    },
    {
      "inputs": [
        {
          "internalType": "uint256",
          "name": "",
          "type": "uint256"
        },
        {
          "internalType": "uint256",
          "name": "",
          "type": "uint256"
        }
      ],
      "name": "delegateAllocationsOf",
      "outputs": [
        {
          "internalType": "contract IJBPayDelegate3_1_1",
          "name": "delegate",
          "type": "address"
        },
        {
          "internalType": "uint256",
          "name": "amount",
          "type": "uint256"
        },
        {
          "internalType": "bytes",
          "name": "metadata",
          "type": "bytes"
        }
      ],
      "stateMutability": "view",
      "type": "function"
    },
    {
      "inputs": [],
      "name": "delegateDeployer",
      "outputs": [
        {
          "internalType": "contract IJBTiered721DelegateDeployer",
          "name": "",
          "type": "address"
        }
      ],
      "stateMutability": "view",
      "type": "function"
    },
    {
      "inputs": [
        {
          "internalType": "address",
          "name": "_operator",
          "type": "address"
        },
        {
          "components": [
            {
              "internalType": "string",
              "name": "content",
              "type": "string"
            },
            {
              "internalType": "uint256",
              "name": "domain",
              "type": "uint256"
            }
          ],
          "internalType": "struct JBProjectMetadata",
          "name": "_projectMetadata",
          "type": "tuple"
        },
        {
          "internalType": "string",
          "name": "_name",
          "type": "string"
        },
        {
          "internalType": "string",
          "name": "_symbol",
          "type": "string"
        },
        {
          "components": [
            {
              "internalType": "uint256",
              "name": "initialIssuanceRate",
              "type": "uint256"
            },
            {
              "internalType": "uint256",
              "name": "premintTokenAmount",
              "type": "uint256"
            },
            {
              "internalType": "uint256",
              "name": "discountRate",
              "type": "uint256"
            },
            {
              "internalType": "uint256",
              "name": "cycleDurations",
              "type": "uint256"
            },
            {
              "internalType": "uint256",
              "name": "redemptionRate",
              "type": "uint256"
            },
            {
              "internalType": "uint256",
              "name": "reservedRate",
              "type": "uint256"
            },
            {
              "internalType": "uint48",
              "name": "reservedRateDuration",
              "type": "uint48"
            }
          ],
          "internalType": "struct BasicRetailistJBParams",
          "name": "_data",
          "type": "tuple"
        }
      ],
      "name": "deployBasicProjectFor",
      "outputs": [
        {
          "internalType": "uint256",
          "name": "projectId",
          "type": "uint256"
        }
      ],
      "stateMutability": "nonpayable",
      "type": "function"
    },
    {
      "inputs": [
        {
          "internalType": "address",
          "name": "_operator",
          "type": "address"
        },
        {
          "components": [
            {
              "internalType": "string",
              "name": "content",
              "type": "string"
            },
            {
              "internalType": "uint256",
              "name": "domain",
              "type": "uint256"
            }
          ],
          "internalType": "struct JBProjectMetadata",
          "name": "_projectMetadata",
          "type": "tuple"
        },
        {
          "internalType": "string",
          "name": "_name",
          "type": "string"
        },
        {
          "internalType": "string",
          "name": "_symbol",
          "type": "string"
        },
        {
          "components": [
            {
              "internalType": "uint256",
              "name": "initialIssuanceRate",
              "type": "uint256"
            },
            {
              "internalType": "uint256",
              "name": "premintTokenAmount",
              "type": "uint256"
            },
            {
              "internalType": "uint256",
              "name": "discountRate",
              "type": "uint256"
            },
            {
              "internalType": "uint256",
              "name": "cycleDurations",
              "type": "uint256"
            },
            {
              "internalType": "uint256",
              "name": "redemptionRate",
              "type": "uint256"
            },
            {
              "internalType": "uint256",
              "name": "reservedRate",
              "type": "uint256"
            },
            {
              "internalType": "uint48",
              "name": "reservedRateDuration",
              "type": "uint48"
            }
          ],
          "internalType": "struct BasicRetailistJBParams",
          "name": "_data",
          "type": "tuple"
        },
        {
          "components": [
            {
              "internalType": "string",
              "name": "name",
              "type": "string"
            },
            {
              "internalType": "string",
              "name": "symbol",
              "type": "string"
            },
            {
              "internalType": "contract IJBFundingCycleStore",
              "name": "fundingCycleStore",
              "type": "address"
            },
            {
              "internalType": "string",
              "name": "baseUri",
              "type": "string"
            },
            {
              "internalType": "contract IJB721TokenUriResolver",
              "name": "tokenUriResolver",
              "type": "address"
            },
            {
              "internalType": "string",
              "name": "contractUri",
              "type": "string"
            },
            {
              "components": [
                {
                  "components": [
                    {
                      "internalType": "uint104",
                      "name": "price",
                      "type": "uint104"
                    },
                    {
                      "internalType": "uint32",
                      "name": "initialQuantity",
                      "type": "uint32"
                    },
                    {
                      "internalType": "uint32",
                      "name": "votingUnits",
                      "type": "uint32"
                    },
                    {
                      "internalType": "uint16",
                      "name": "reservedRate",
                      "type": "uint16"
                    },
                    {
                      "internalType": "address",
                      "name": "reservedTokenBeneficiary",
                      "type": "address"
                    },
                    {
                      "internalType": "bytes32",
                      "name": "encodedIPFSUri",
                      "type": "bytes32"
                    },
                    {
                      "internalType": "uint24",
                      "name": "category",
                      "type": "uint24"
                    },
                    {
                      "internalType": "bool",
                      "name": "allowManualMint",
                      "type": "bool"
                    },
                    {
                      "internalType": "bool",
                      "name": "shouldUseReservedTokenBeneficiaryAsDefault",
                      "type": "bool"
                    },
                    {
                      "internalType": "bool",
                      "name": "transfersPausable",
                      "type": "bool"
                    },
                    {
                      "internalType": "bool",
                      "name": "useVotingUnits",
                      "type": "bool"
                    }
                  ],
                  "internalType": "struct JB721TierParams[]",
                  "name": "tiers",
                  "type": "tuple[]"
                },
                {
                  "internalType": "uint48",
                  "name": "currency",
                  "type": "uint48"
                },
                {
                  "internalType": "uint48",
                  "name": "decimals",
                  "type": "uint48"
                },
                {
                  "internalType": "contract IJBPrices",
                  "name": "prices",
                  "type": "address"
                }
              ],
              "internalType": "struct JB721PricingParams",
              "name": "pricing",
              "type": "tuple"
            },
            {
              "internalType": "address",
              "name": "reservedTokenBeneficiary",
              "type": "address"
            },
            {
              "internalType": "contract IJBTiered721DelegateStore",
              "name": "store",
              "type": "address"
            },
            {
              "components": [
                {
                  "internalType": "bool",
                  "name": "lockReservedTokenChanges",
                  "type": "bool"
                },
                {
                  "internalType": "bool",
                  "name": "lockVotingUnitChanges",
                  "type": "bool"
                },
                {
                  "internalType": "bool",
                  "name": "lockManualMintingChanges",
                  "type": "bool"
                },
                {
                  "internalType": "bool",
                  "name": "preventOverspending",
                  "type": "bool"
                }
              ],
              "internalType": "struct JBTiered721Flags",
              "name": "flags",
              "type": "tuple"
            },
            {
              "internalType": "enum JB721GovernanceType",
              "name": "governanceType",
              "type": "uint8"
            }
          ],
          "internalType": "struct JBDeployTiered721DelegateData",
          "name": "_deployTiered721DelegateData",
          "type": "tuple"
        },
        {
          "components": [
            {
              "internalType": "contract IJBPayDelegate3_1_1",
              "name": "delegate",
              "type": "address"
            },
            {
              "internalType": "uint256",
              "name": "amount",
              "type": "uint256"
            },
            {
              "internalType": "bytes",
              "name": "metadata",
              "type": "bytes"
            }
          ],
          "internalType": "struct JBPayDelegateAllocation3_1_1[]",
          "name": "_otherDelegateAllocations",
          "type": "tuple[]"
        },
        {
          "internalType": "uint8",
          "name": "_extraFundingCycleMetadata",
          "type": "uint8"
        },
        {
          "components": [
            {
              "internalType": "address",
              "name": "nft",
              "type": "address"
            },
            {
              "internalType": "uint256",
              "name": "category",
              "type": "uint256"
            },
            {
              "internalType": "uint256",
              "name": "minimumPrice",
              "type": "uint256"
            },
            {
              "internalType": "uint256",
              "name": "minimumTotalSupply",
              "type": "uint256"
            },
            {
              "internalType": "uint256",
              "name": "maximumTotalSupply",
              "type": "uint256"
            },
            {
              "internalType": "address[]",
              "name": "allowedAddresses",
              "type": "address[]"
            }
          ],
          "internalType": "struct AllowedPost[]",
          "name": "_allowedPosts",
          "type": "tuple[]"
        }
      ],
      "name": "deployCroptopTiered721PayAllocatorProjectFor",
      "outputs": [
        {
          "internalType": "uint256",
          "name": "projectId",
          "type": "uint256"
        }
      ],
      "stateMutability": "nonpayable",
      "type": "function"
    },
    {
      "inputs": [
        {
          "internalType": "address",
          "name": "_operator",
          "type": "address"
        },
        {
          "components": [
            {
              "internalType": "string",
              "name": "content",
              "type": "string"
            },
            {
              "internalType": "uint256",
              "name": "domain",
              "type": "uint256"
            }
          ],
          "internalType": "struct JBProjectMetadata",
          "name": "_projectMetadata",
          "type": "tuple"
        },
        {
          "internalType": "string",
          "name": "_name",
          "type": "string"
        },
        {
          "internalType": "string",
          "name": "_symbol",
          "type": "string"
        },
        {
          "components": [
            {
              "internalType": "uint256",
              "name": "initialIssuanceRate",
              "type": "uint256"
            },
            {
              "internalType": "uint256",
              "name": "premintTokenAmount",
              "type": "uint256"
            },
            {
              "internalType": "uint256",
              "name": "discountRate",
              "type": "uint256"
            },
            {
              "internalType": "uint256",
              "name": "cycleDurations",
              "type": "uint256"
            },
            {
              "internalType": "uint256",
              "name": "redemptionRate",
              "type": "uint256"
            },
            {
              "internalType": "uint256",
              "name": "reservedRate",
              "type": "uint256"
            },
            {
              "internalType": "uint48",
              "name": "reservedRateDuration",
              "type": "uint48"
            }
          ],
          "internalType": "struct BasicRetailistJBParams",
          "name": "_data",
          "type": "tuple"
        },
        {
          "components": [
            {
              "internalType": "contract IJBPayDelegate3_1_1",
              "name": "delegate",
              "type": "address"
            },
            {
              "internalType": "uint256",
              "name": "amount",
              "type": "uint256"
            },
            {
              "internalType": "bytes",
              "name": "metadata",
              "type": "bytes"
            }
          ],
          "internalType": "struct JBPayDelegateAllocation3_1_1[]",
          "name": "_delegateAllocations",
          "type": "tuple[]"
        },
        {
          "internalType": "uint8",
          "name": "_extraFundingCycleMetadata",
          "type": "uint8"
        }
      ],
      "name": "deployPayAllocatorProjectFor",
      "outputs": [
        {
          "internalType": "uint256",
          "name": "projectId",
          "type": "uint256"
        }
      ],
      "stateMutability": "nonpayable",
      "type": "function"
    },
    {
      "inputs": [
        {
          "internalType": "address",
          "name": "_operator",
          "type": "address"
        },
        {
          "components": [
            {
              "internalType": "string",
              "name": "content",
              "type": "string"
            },
            {
              "internalType": "uint256",
              "name": "domain",
              "type": "uint256"
            }
          ],
          "internalType": "struct JBProjectMetadata",
          "name": "_projectMetadata",
          "type": "tuple"
        },
        {
          "internalType": "string",
          "name": "_name",
          "type": "string"
        },
        {
          "internalType": "string",
          "name": "_symbol",
          "type": "string"
        },
        {
          "components": [
            {
              "internalType": "uint256",
              "name": "initialIssuanceRate",
              "type": "uint256"
            },
            {
              "internalType": "uint256",
              "name": "premintTokenAmount",
              "type": "uint256"
            },
            {
              "internalType": "uint256",
              "name": "discountRate",
              "type": "uint256"
            },
            {
              "internalType": "uint256",
              "name": "cycleDurations",
              "type": "uint256"
            },
            {
              "internalType": "uint256",
              "name": "redemptionRate",
              "type": "uint256"
            },
            {
              "internalType": "uint256",
              "name": "reservedRate",
              "type": "uint256"
            },
            {
              "internalType": "uint48",
              "name": "reservedRateDuration",
              "type": "uint48"
            }
          ],
          "internalType": "struct BasicRetailistJBParams",
          "name": "_data",
          "type": "tuple"
        },
        {
          "components": [
            {
              "internalType": "string",
              "name": "name",
              "type": "string"
            },
            {
              "internalType": "string",
              "name": "symbol",
              "type": "string"
            },
            {
              "internalType": "contract IJBFundingCycleStore",
              "name": "fundingCycleStore",
              "type": "address"
            },
            {
              "internalType": "string",
              "name": "baseUri",
              "type": "string"
            },
            {
              "internalType": "contract IJB721TokenUriResolver",
              "name": "tokenUriResolver",
              "type": "address"
            },
            {
              "internalType": "string",
              "name": "contractUri",
              "type": "string"
            },
            {
              "components": [
                {
                  "components": [
                    {
                      "internalType": "uint104",
                      "name": "price",
                      "type": "uint104"
                    },
                    {
                      "internalType": "uint32",
                      "name": "initialQuantity",
                      "type": "uint32"
                    },
                    {
                      "internalType": "uint32",
                      "name": "votingUnits",
                      "type": "uint32"
                    },
                    {
                      "internalType": "uint16",
                      "name": "reservedRate",
                      "type": "uint16"
                    },
                    {
                      "internalType": "address",
                      "name": "reservedTokenBeneficiary",
                      "type": "address"
                    },
                    {
                      "internalType": "bytes32",
                      "name": "encodedIPFSUri",
                      "type": "bytes32"
                    },
                    {
                      "internalType": "uint24",
                      "name": "category",
                      "type": "uint24"
                    },
                    {
                      "internalType": "bool",
                      "name": "allowManualMint",
                      "type": "bool"
                    },
                    {
                      "internalType": "bool",
                      "name": "shouldUseReservedTokenBeneficiaryAsDefault",
                      "type": "bool"
                    },
                    {
                      "internalType": "bool",
                      "name": "transfersPausable",
                      "type": "bool"
                    },
                    {
                      "internalType": "bool",
                      "name": "useVotingUnits",
                      "type": "bool"
                    }
                  ],
                  "internalType": "struct JB721TierParams[]",
                  "name": "tiers",
                  "type": "tuple[]"
                },
                {
                  "internalType": "uint48",
                  "name": "currency",
                  "type": "uint48"
                },
                {
                  "internalType": "uint48",
                  "name": "decimals",
                  "type": "uint48"
                },
                {
                  "internalType": "contract IJBPrices",
                  "name": "prices",
                  "type": "address"
                }
              ],
              "internalType": "struct JB721PricingParams",
              "name": "pricing",
              "type": "tuple"
            },
            {
              "internalType": "address",
              "name": "reservedTokenBeneficiary",
              "type": "address"
            },
            {
              "internalType": "contract IJBTiered721DelegateStore",
              "name": "store",
              "type": "address"
            },
            {
              "components": [
                {
                  "internalType": "bool",
                  "name": "lockReservedTokenChanges",
                  "type": "bool"
                },
                {
                  "internalType": "bool",
                  "name": "lockVotingUnitChanges",
                  "type": "bool"
                },
                {
                  "internalType": "bool",
                  "name": "lockManualMintingChanges",
                  "type": "bool"
                },
                {
                  "internalType": "bool",
                  "name": "preventOverspending",
                  "type": "bool"
                }
              ],
              "internalType": "struct JBTiered721Flags",
              "name": "flags",
              "type": "tuple"
            },
            {
              "internalType": "enum JB721GovernanceType",
              "name": "governanceType",
              "type": "uint8"
            }
          ],
          "internalType": "struct JBDeployTiered721DelegateData",
          "name": "_deployTiered721DelegateData",
          "type": "tuple"
        },
        {
          "components": [
            {
              "internalType": "contract IJBPayDelegate3_1_1",
              "name": "delegate",
              "type": "address"
            },
            {
              "internalType": "uint256",
              "name": "amount",
              "type": "uint256"
            },
            {
              "internalType": "bytes",
              "name": "metadata",
              "type": "bytes"
            }
          ],
          "internalType": "struct JBPayDelegateAllocation3_1_1[]",
          "name": "_otherDelegateAllocations",
          "type": "tuple[]"
        },
        {
          "internalType": "uint8",
          "name": "_extraFundingCycleMetadata",
          "type": "uint8"
        }
      ],
      "name": "deployTiered721PayAllocatorProjectFor",
      "outputs": [
        {
          "internalType": "uint256",
          "name": "projectId",
          "type": "uint256"
        }
      ],
      "stateMutability": "nonpayable",
      "type": "function"
    },
    {
      "inputs": [],
      "name": "directory",
      "outputs": [
        {
          "internalType": "contract IJBDirectory",
          "name": "",
          "type": "address"
        }
      ],
      "stateMutability": "view",
      "type": "function"
    },
    {
      "inputs": [
        {
          "internalType": "address",
          "name": "_operator",
          "type": "address"
        },
        {
          "internalType": "address",
          "name": "_from",
          "type": "address"
        },
        {
          "internalType": "uint256",
          "name": "_tokenId",
          "type": "uint256"
        },
        {
          "internalType": "bytes",
          "name": "_data",
          "type": "bytes"
        }
      ],
      "name": "onERC721Received",
      "outputs": [
        {
          "internalType": "bytes4",
          "name": "",
          "type": "bytes4"
        }
      ],
      "stateMutability": "view",
      "type": "function"
    },
    {
      "inputs": [
        {
          "components": [
            {
              "internalType": "contract IJBPaymentTerminal",
              "name": "terminal",
              "type": "address"
            },
            {
              "internalType": "address",
              "name": "payer",
              "type": "address"
            },
            {
              "components": [
                {
                  "internalType": "address",
                  "name": "token",
                  "type": "address"
                },
                {
                  "internalType": "uint256",
                  "name": "value",
                  "type": "uint256"
                },
                {
                  "internalType": "uint256",
                  "name": "decimals",
                  "type": "uint256"
                },
                {
                  "internalType": "uint256",
                  "name": "currency",
                  "type": "uint256"
                }
              ],
              "internalType": "struct JBTokenAmount",
              "name": "amount",
              "type": "tuple"
            },
            {
              "internalType": "uint256",
              "name": "projectId",
              "type": "uint256"
            },
            {
              "internalType": "uint256",
              "name": "currentFundingCycleConfiguration",
              "type": "uint256"
            },
            {
              "internalType": "address",
              "name": "beneficiary",
              "type": "address"
            },
            {
              "internalType": "uint256",
              "name": "weight",
              "type": "uint256"
            },
            {
              "internalType": "uint256",
              "name": "reservedRate",
              "type": "uint256"
            },
            {
              "internalType": "string",
              "name": "memo",
              "type": "string"
            },
            {
              "internalType": "bytes",
              "name": "metadata",
              "type": "bytes"
            }
          ],
          "internalType": "struct JBPayParamsData",
          "name": "_data",
          "type": "tuple"
        }
      ],
      "name": "payParams",
      "outputs": [
        {
          "internalType": "uint256",
          "name": "weight",
          "type": "uint256"
        },
        {
          "internalType": "string",
          "name": "memo",
          "type": "string"
        },
        {
          "components": [
            {
              "internalType": "contract IJBPayDelegate3_1_1",
              "name": "delegate",
              "type": "address"
            },
            {
              "internalType": "uint256",
              "name": "amount",
              "type": "uint256"
            },
            {
              "internalType": "bytes",
              "name": "metadata",
              "type": "bytes"
            }
          ],
          "internalType": "struct JBPayDelegateAllocation3_1_1[]",
          "name": "delegateAllocations",
          "type": "tuple[]"
        }
      ],
      "stateMutability": "view",
      "type": "function"
    },
    {
      "inputs": [
        {
          "internalType": "uint256",
          "name": "",
          "type": "uint256"
        }
      ],
      "name": "permissionIndexes",
      "outputs": [
        {
          "internalType": "uint256",
          "name": "",
          "type": "uint256"
        }
      ],
      "stateMutability": "view",
      "type": "function"
    },
    {
      "inputs": [],
      "name": "publisher",
      "outputs": [
        {
          "internalType": "contract CroptopPublisher",
          "name": "",
          "type": "address"
        }
      ],
      "stateMutability": "view",
      "type": "function"
    },
    {
      "inputs": [
        {
          "internalType": "uint256",
          "name": "projectId",
          "type": "uint256"
        }
      ],
      "name": "reconfigurationStartTimestampOf",
      "outputs": [
        {
          "internalType": "uint256",
          "name": "",
          "type": "uint256"
        }
      ],
      "stateMutability": "view",
      "type": "function"
    },
    {
      "inputs": [
        {
          "components": [
            {
              "internalType": "contract IJBPaymentTerminal",
              "name": "terminal",
              "type": "address"
            },
            {
              "internalType": "address",
              "name": "holder",
              "type": "address"
            },
            {
              "internalType": "uint256",
              "name": "projectId",
              "type": "uint256"
            },
            {
              "internalType": "uint256",
              "name": "currentFundingCycleConfiguration",
              "type": "uint256"
            },
            {
              "internalType": "uint256",
              "name": "tokenCount",
              "type": "uint256"
            },
            {
              "internalType": "uint256",
              "name": "totalSupply",
              "type": "uint256"
            },
            {
              "internalType": "uint256",
              "name": "overflow",
              "type": "uint256"
            },
            {
              "components": [
                {
                  "internalType": "address",
                  "name": "token",
                  "type": "address"
                },
                {
                  "internalType": "uint256",
                  "name": "value",
                  "type": "uint256"
                },
                {
                  "internalType": "uint256",
                  "name": "decimals",
                  "type": "uint256"
                },
                {
                  "internalType": "uint256",
                  "name": "currency",
                  "type": "uint256"
                }
              ],
              "internalType": "struct JBTokenAmount",
              "name": "reclaimAmount",
              "type": "tuple"
            },
            {
              "internalType": "bool",
              "name": "useTotalOverflow",
              "type": "bool"
            },
            {
              "internalType": "uint256",
              "name": "redemptionRate",
              "type": "uint256"
            },
            {
              "internalType": "string",
              "name": "memo",
              "type": "string"
            },
            {
              "internalType": "bytes",
              "name": "metadata",
              "type": "bytes"
            }
          ],
          "internalType": "struct JBRedeemParamsData",
          "name": "_data",
          "type": "tuple"
        }
      ],
      "name": "redeemParams",
      "outputs": [
        {
          "internalType": "uint256",
          "name": "",
          "type": "uint256"
        },
        {
          "internalType": "string",
          "name": "",
          "type": "string"
        },
        {
          "components": [
            {
              "internalType": "contract IJBRedemptionDelegate3_1_1",
              "name": "delegate",
              "type": "address"
            },
            {
              "internalType": "uint256",
              "name": "amount",
              "type": "uint256"
            },
            {
              "internalType": "bytes",
              "name": "metadata",
              "type": "bytes"
            }
          ],
          "internalType": "struct JBRedemptionDelegateAllocation3_1_1[]",
          "name": "",
          "type": "tuple[]"
        }
      ],
      "stateMutability": "view",
      "type": "function"
    },
    {
      "inputs": [
        {
          "internalType": "uint256",
          "name": "_projectId",
          "type": "uint256"
        }
      ],
      "name": "scheduleReconfigurationOf",
      "outputs": [],
      "stateMutability": "nonpayable",
      "type": "function"
    },
    {
      "inputs": [
        {
          "internalType": "bytes4",
          "name": "_interfaceId",
          "type": "bytes4"
        }
      ],
      "name": "supportsInterface",
      "outputs": [
        {
          "internalType": "bool",
          "name": "",
          "type": "bool"
        }
      ],
      "stateMutability": "view",
      "type": "function"
    },
    {
      "inputs": [
        {
          "internalType": "uint256",
          "name": "",
          "type": "uint256"
        }
      ],
      "name": "terminals",
      "outputs": [
        {
          "internalType": "contract IJBPaymentTerminal",
          "name": "",
          "type": "address"
        }
      ],
      "stateMutability": "view",
      "type": "function"
    }
  ],
  "bytecode": {
    "object": "0x6101006040523480156200001257600080fd5b506040516200510f3803806200510f833981016040819052620000359162000134565b6001600160a01b03928316608052821660a05260008054600181810183557f290decd9548b62a8d60345a988386fc84ba6bc95484008f6362f93160ef3e56390910180549385166001600160a01b03199485161790558054808201825560127fb10e2d527612073b26eecdfd717e6a320cf44b4afac2b0732d9fcbe2b7fa0cf69182015581548083018355601891015594831660c05292821660e052600480549590921694169390931790925560058054918201815590915260157f036b6384b5eca791c62761152d0c79bb0604c104a5fb6f4eb0703f3154bb3db090910155620001c8565b6001600160a01b03811681146200013157600080fd5b50565b60008060008060008060c087890312156200014e57600080fd5b86516200015b816200011b565b60208801519096506200016e816200011b565b604088015190955062000181816200011b565b606088015190945062000194816200011b565b6080880151909350620001a7816200011b565b60a0880151909250620001ba816200011b565b809150509295509295509295565b60805160a05160c05160e051614e65620002aa600039600081816102ae015261241c01526000818161032c0152818161203f015261231001526000818161036601528181610848015281816108870152818161091601528181610b6e015281816117b8015281816117f70152818161188601526126150152600081816103af015281816106270152818161073501528181610a4701528181610caa01528181610d6c01528181610f93015281816110ec0152818161129f0152818161159b015281816116a9015281816119b701528181611be60152611ca60152614e656000f3fe608060405234801561001057600080fd5b50600436106101515760003560e01c80638c72c54e116100cd578063c41c2f2411610081578063d396752511610066578063d396752514610361578063d46cf17114610388578063f77c4791146103aa57600080fd5b8063c41c2f2414610327578063c7e221d71461034e57600080fd5b80639483e771116100b25780639483e771146102d0578063a51cfd18146102e3578063abc603e31461030557600080fd5b80638c72c54e146102895780638f3d964b146102a957600080fd5b80633ce6d3e2116101245780634e777fd7116101095780634e777fd714610243578063560f7b0314610256578063604baabe1461027657600080fd5b80633ce6d3e21461021b578063429216981461023057600080fd5b806301ffc9a7146101565780630219758e1461017e5780630e53d9cc146101b6578063150b7a02146101d7575b600080fd5b610169610164366004612949565b6103d1565b60405190151581526020015b60405180910390f35b61019161018c366004612992565b61046a565b60405173ffffffffffffffffffffffffffffffffffffffff9091168152602001610175565b6101c96101c4366004612a41565b6104a1565b604051908152602001610175565b6101ea6101e5366004612b03565b610f8f565b6040517fffffffff000000000000000000000000000000000000000000000000000000009091168152602001610175565b61022e610229366004612992565b6110a3565b005b6101c961023e366004612992565b6113f4565b6101c9610251366004612eb1565b611415565b6101c9610264366004612992565b60026020526000908152604090205481565b6101c9610284366004612fde565b611f96565b6004546101919073ffffffffffffffffffffffffffffffffffffffff1681565b6101917f000000000000000000000000000000000000000000000000000000000000000081565b6101c96102de366004612992565b6121b1565b6102f66102f1366004613124565b6121c1565b604051610175939291906131ce565b610318610313366004613297565b612229565b604051610175939291906132b9565b6101917f000000000000000000000000000000000000000000000000000000000000000081565b6101c961035c3660046132f7565b61230c565b6101917f000000000000000000000000000000000000000000000000000000000000000081565b61039b610396366004613405565b61260c565b60405161017593929190613441565b6101917f000000000000000000000000000000000000000000000000000000000000000081565b60007fffffffff0000000000000000000000000000000000000000000000000000000082167f71700c6900000000000000000000000000000000000000000000000000000000148061046457507f150b7a02000000000000000000000000000000000000000000000000000000007fffffffff000000000000000000000000000000000000000000000000000000008316145b92915050565b6000818154811061047a57600080fd5b60009182526020909120015473ffffffffffffffffffffffffffffffffffffffff16905081565b604080516001808252818301909252600091829190816020015b6040805180820190915260008152606060208201528152602001906001900390816104bb57505060408051600180825281830190925291925060009190602082015b6040805160e08101825260008082526020808301829052928201819052606082018190526080820181905260a0820181905260c082015282527fffffffffffffffffffffffffffffffffffffffffffffffffffffffffffffffff9092019101816104fd5790505090506040518060e00160405280600015158152602001600015158152602001633b9aca008152602001600081526020018b73ffffffffffffffffffffffffffffffffffffffff16815260200160008152602001600073ffffffffffffffffffffffffffffffffffffffff16815250816001815181106105e5576105e56134f8565b60200260200101819052506040518060400160405280600281526020018281525082600081518110610619576106196134f8565b6020026020010181905250507f000000000000000000000000000000000000000000000000000000000000000073ffffffffffffffffffffffffffffffffffffffff16638b79543c6040518163ffffffff1660e01b8152600401602060405180830381865afa158015610690573d6000803e3d6000fd5b505050506040513d601f19601f820116820180604052508101906106b49190613527565b73ffffffffffffffffffffffffffffffffffffffff1663666d87a0308a6040518363ffffffff1660e01b81526004016106ee9291906135f1565b6020604051808303816000875af115801561070d573d6000803e3d6000fd5b505050506040513d601f19601f820116820180604052508101906107319190613649565b91507f000000000000000000000000000000000000000000000000000000000000000073ffffffffffffffffffffffffffffffffffffffff1663619306306040518163ffffffff1660e01b8152600401602060405180830381865afa15801561079e573d6000803e3d6000fd5b505050506040513d601f19601f820116820180604052508101906107c29190613527565b73ffffffffffffffffffffffffffffffffffffffff1663a7f2a70b83898989896040518663ffffffff1660e01b8152600401610802959493929190613662565b6020604051808303816000875af1158015610821573d6000803e3d6000fd5b505050506040513d601f19601f820116820180604052508101906108459190613527565b507f000000000000000000000000000000000000000000000000000000000000000073ffffffffffffffffffffffffffffffffffffffff16637b621d3a8360017f000000000000000000000000000000000000000000000000000000000000000073ffffffffffffffffffffffffffffffffffffffff166360b3042c6040518163ffffffff1660e01b8152600401602060405180830381865afa1580156108f0573d6000803e3d6000fd5b505050506040513d601f19601f820116820180604052508101906109149190613649565b7f000000000000000000000000000000000000000000000000000000000000000073ffffffffffffffffffffffffffffffffffffffff1663737a79966040518163ffffffff1660e01b8152600401602060405180830381865afa15801561097f573d6000803e3d6000fd5b505050506040513d601f19601f820116820180604052508101906109a39190613649565b6040517fffffffff0000000000000000000000000000000000000000000000000000000060e087901b168152600481019490945262ffffff909216602484015263ffffffff908116604484015216606482015261eeee608482015260a4016020604051808303816000875af1158015610a20573d6000803e3d6000fd5b505050506040513d601f19601f82011682018060405250810190610a449190613527565b507f000000000000000000000000000000000000000000000000000000000000000073ffffffffffffffffffffffffffffffffffffffff1663111d861b8360405180608001604052808760600135815260200160128860000135610aa891906137ea565b8152604088810135602080840191909152600092820183905281516102a081018352610240810184815261026082018590526102808201859052815260a0808c0135828401526080808d013583860152606083018690528201859052810184905260c0810184905260e081018490526001610100820181905261012082018590526101408201859052610160820185905261018082018590526101a082018590526101c08201526101e0810184905273ffffffffffffffffffffffffffffffffffffffff7f00000000000000000000000000000000000000000000000000000000000000001661020082015261022081018490528251848152918201909252909190879082610c2a565b610c176040518060c00160405280600073ffffffffffffffffffffffffffffffffffffffff168152602001600073ffffffffffffffffffffffffffffffffffffffff168152602001600081526020016000815260200160008152602001600081525090565b815260200190600190039081610bb25790505b5060006040518863ffffffff1660e01b8152600401610c4f9796959493929190613ae0565b6020604051808303816000875af1158015610c6e573d6000803e3d6000fd5b505050506040513d601f19601f82011682018060405250810190610c929190613649565b5073ffffffffffffffffffffffffffffffffffffffff7f000000000000000000000000000000000000000000000000000000000000000016638ae9c07b83610cdf601260208801356137ea565b8c8989604051602001610cf3929190613c01565b6040516020818303038152906040526000806040518763ffffffff1660e01b8152600401610d2696959493929190613c5e565b6020604051808303816000875af1158015610d45573d6000803e3d6000fd5b505050506040513d601f19601f82011682018060405250810190610d699190613649565b507f000000000000000000000000000000000000000000000000000000000000000073ffffffffffffffffffffffffffffffffffffffff16632bdfe0046040518163ffffffff1660e01b8152600401602060405180830381865afa158015610dd5573d6000803e3d6000fd5b505050506040513d601f19601f82011682018060405250810190610df99190613527565b73ffffffffffffffffffffffffffffffffffffffff1663ad007d636040518163ffffffff1660e01b8152600401602060405180830381865afa158015610e43573d6000803e3d6000fd5b505050506040513d601f19601f82011682018060405250810190610e679190613527565b73ffffffffffffffffffffffffffffffffffffffff1663529cdd2e60405180606001604052808c73ffffffffffffffffffffffffffffffffffffffff1681526020018581526020016001805480602002602001604051908101604052809291908181526020018280548015610efb57602002820191906000526020600020905b815481526020019060010190808311610ee7575b50505050508152506040518263ffffffff1660e01b8152600401610f1f9190613cb3565b600060405180830381600087803b158015610f3957600080fd5b505af1158015610f4d573d6000803e3d6000fd5b50610f629250505060e0840160c08501613d3a565b610f749065ffffffffffff1642613d55565b60008381526002602052604090205550979650505050505050565b60007f000000000000000000000000000000000000000000000000000000000000000073ffffffffffffffffffffffffffffffffffffffff16638b79543c6040518163ffffffff1660e01b8152600401602060405180830381865afa158015610ffc573d6000803e3d6000fd5b505050506040513d601f19601f820116820180604052508101906110209190613527565b73ffffffffffffffffffffffffffffffffffffffff163373ffffffffffffffffffffffffffffffffffffffff161461105757600080fd5b73ffffffffffffffffffffffffffffffffffffffff85161561107857600080fd5b507f150b7a020000000000000000000000000000000000000000000000000000000095945050505050565b6040517f1f51045300000000000000000000000000000000000000000000000000000000815260048101829052600090819073ffffffffffffffffffffffffffffffffffffffff7f00000000000000000000000000000000000000000000000000000000000000001690631f510453906024016103c060405180830381865afa158015611134573d6000803e3d6000fd5b505050506040513d601f19601f820116820180604052508101906111589190613f3d565b5081519193509150600114611199576040517fc97554fa00000000000000000000000000000000000000000000000000000000815260040160405180910390fd5b60408051608080820183528481015182526000602080840182905260c08088015185870152606080860184905286516102a0810188526102408101858152610260820186905261028082018690528152808401859052888801518189015290810184905293840183905260a08401839052830182905260e08301829052610100830182905261012083018290526101408301829052610160830182905261018083018290526101a083018290526101c083018290526101e083018290526102008087015173ffffffffffffffffffffffffffffffffffffffff908116918501919091526102208781015190850152888352600282528583205486518481529283019096527f0000000000000000000000000000000000000000000000000000000000000000169463badbdf2894899490939092906112fa565b6040805180820190915260008152606060208201528152602001906001900390816112d25790505b506040805160008082526020820190925290611389565b6113766040518060c00160405280600073ffffffffffffffffffffffffffffffffffffffff168152602001600073ffffffffffffffffffffffffffffffffffffffff168152602001600081526020016000815260200160008152602001600081525090565b8152602001906001900390816113115790505b506040518763ffffffff1660e01b81526004016113ab96959493929190613ff4565b6020604051808303816000875af11580156113ca573d6000803e3d6000fd5b505050506040513d601f19601f820116820180604052508101906113ee9190613649565b50505050565b6005818154811061140457600080fd5b600091825260209091200154905081565b604080516001808252818301909252600091829190816020015b60408051808201909152600081526060602082015281526020019060019003908161142f57505060408051600180825281830190925291925060009190602082015b6040805160e08101825260008082526020808301829052928201819052606082018190526080820181905260a0820181905260c082015282527fffffffffffffffffffffffffffffffffffffffffffffffffffffffffffffffff9092019101816114715790505090506040518060e00160405280600015158152602001600015158152602001633b9aca008152602001600081526020018b73ffffffffffffffffffffffffffffffffffffffff16815260200160008152602001600073ffffffffffffffffffffffffffffffffffffffff1681525081600181518110611559576115596134f8565b6020026020010181905250604051806040016040528060028152602001828152508260008151811061158d5761158d6134f8565b6020026020010181905250507f000000000000000000000000000000000000000000000000000000000000000073ffffffffffffffffffffffffffffffffffffffff16638b79543c6040518163ffffffff1660e01b8152600401602060405180830381865afa158015611604573d6000803e3d6000fd5b505050506040513d601f19601f820116820180604052508101906116289190613527565b73ffffffffffffffffffffffffffffffffffffffff1663666d87a0308a6040518363ffffffff1660e01b81526004016116629291906140e8565b6020604051808303816000875af1158015611681573d6000803e3d6000fd5b505050506040513d601f19601f820116820180604052508101906116a59190613649565b91507f000000000000000000000000000000000000000000000000000000000000000073ffffffffffffffffffffffffffffffffffffffff1663619306306040518163ffffffff1660e01b8152600401602060405180830381865afa158015611712573d6000803e3d6000fd5b505050506040513d601f19601f820116820180604052508101906117369190613527565b73ffffffffffffffffffffffffffffffffffffffff1663a7f2a70b8389896040518463ffffffff1660e01b815260040161177293929190614136565b6020604051808303816000875af1158015611791573d6000803e3d6000fd5b505050506040513d601f19601f820116820180604052508101906117b59190613527565b507f000000000000000000000000000000000000000000000000000000000000000073ffffffffffffffffffffffffffffffffffffffff16637b621d3a8360017f000000000000000000000000000000000000000000000000000000000000000073ffffffffffffffffffffffffffffffffffffffff166360b3042c6040518163ffffffff1660e01b8152600401602060405180830381865afa158015611860573d6000803e3d6000fd5b505050506040513d601f19601f820116820180604052508101906118849190613649565b7f000000000000000000000000000000000000000000000000000000000000000073ffffffffffffffffffffffffffffffffffffffff1663737a79966040518163ffffffff1660e01b8152600401602060405180830381865afa1580156118ef573d6000803e3d6000fd5b505050506040513d601f19601f820116820180604052508101906119139190613649565b6040517fffffffff0000000000000000000000000000000000000000000000000000000060e087901b168152600481019490945262ffffff909216602484015263ffffffff908116604484015216606482015261eeee608482015260a4016020604051808303816000875af1158015611990573d6000803e3d6000fd5b505050506040513d601f19601f820116820180604052508101906119b49190613527565b507f000000000000000000000000000000000000000000000000000000000000000073ffffffffffffffffffffffffffffffffffffffff1663111d861b8360405180608001604052808960600135815260200160128a60000135611a1891906137ea565b815260408a810135602080840191909152600092820183905281516102a081018352610240810184815261026082018590526102808201859052815260a0808e0135828401526080808f013583860152606083018690528201859052810184905260c0810184905260e081018490526001610100820181905261012082018590526101408201859052610160820185905261018082018590526101a082018590526101c08201526101e081018490523061020082015260ff8b166102208201528251848152918201909252909190879082611b66565b611b536040518060c00160405280600073ffffffffffffffffffffffffffffffffffffffff168152602001600073ffffffffffffffffffffffffffffffffffffffff168152602001600081526020016000815260200160008152602001600081525090565b815260200190600190039081611aee5790505b5060006040518863ffffffff1660e01b8152600401611b8b9796959493929190613ae0565b6020604051808303816000875af1158015611baa573d6000803e3d6000fd5b505050506040513d601f19601f82011682018060405250810190611bce9190613649565b5073ffffffffffffffffffffffffffffffffffffffff7f000000000000000000000000000000000000000000000000000000000000000016638ae9c07b83611c1b601260208a01356137ea565b8c8a604051602001611c2d919061416b565b6040516020818303038152906040526000806040518763ffffffff1660e01b8152600401611c6096959493929190613c5e565b6020604051808303816000875af1158015611c7f573d6000803e3d6000fd5b505050506040513d601f19601f82011682018060405250810190611ca39190613649565b507f000000000000000000000000000000000000000000000000000000000000000073ffffffffffffffffffffffffffffffffffffffff16632bdfe0046040518163ffffffff1660e01b8152600401602060405180830381865afa158015611d0f573d6000803e3d6000fd5b505050506040513d601f19601f82011682018060405250810190611d339190613527565b73ffffffffffffffffffffffffffffffffffffffff1663ad007d636040518163ffffffff1660e01b8152600401602060405180830381865afa158015611d7d573d6000803e3d6000fd5b505050506040513d601f19601f82011682018060405250810190611da19190613527565b73ffffffffffffffffffffffffffffffffffffffff1663529cdd2e60405180606001604052808c73ffffffffffffffffffffffffffffffffffffffff1681526020018581526020016001805480602002602001604051908101604052809291908181526020018280548015611e3557602002820191906000526020600020905b815481526020019060010190808311611e21575b50505050508152506040518263ffffffff1660e01b8152600401611e599190613cb3565b600060405180830381600087803b158015611e7357600080fd5b505af1158015611e87573d6000803e3d6000fd5b50611e9c9250505060e0860160c08701613d3a565b611eae9065ffffffffffff1642613d55565b6000838152600260205260408120919091558451905b81811015611f8857858181518110611ede57611ede6134f8565b6020026020010151600360008681526020019081526020016000208281548110611f0a57611f0a6134f8565b600091825260209182902083516003929092020180547fffffffffffffffffffffffff00000000000000000000000000000000000000001673ffffffffffffffffffffffffffffffffffffffff90921691909117815590820151600182015560408201516002820190611f7d9082614273565b505050600101611ec4565b505050979650505050505050565b6000611fa98c8c8c8c8c8c8c8c8c61230c565b9050811561203d57600480546040517f200e8ae400000000000000000000000000000000000000000000000000000000815273ffffffffffffffffffffffffffffffffffffffff9091169163200e8ae49161200a91859188918891016143d8565b600060405180830381600087803b15801561202457600080fd5b505af1158015612038573d6000803e3d6000fd5b505050505b7f000000000000000000000000000000000000000000000000000000000000000073ffffffffffffffffffffffffffffffffffffffff1663ad007d636040518163ffffffff1660e01b8152600401602060405180830381865afa1580156120a8573d6000803e3d6000fd5b505050506040513d601f19601f820116820180604052508101906120cc9190613527565b6040805160608101825260045473ffffffffffffffffffffffffffffffffffffffff90811682526020808301869052600580548551818402810184018752818152969093169563529cdd2e95850193909283018282801561214c57602002820191906000526020600020905b815481526020019060010190808311612138575b50505050508152506040518263ffffffff1660e01b81526004016121709190613cb3565b600060405180830381600087803b15801561218a57600080fd5b505af115801561219e573d6000803e3d6000fd5b505050509b9a5050505050505050505050565b6001818154811061140457600080fd5b60408051600080825260208201909252606090819083908161220d565b604080516060808201835260008083526020830152918101919091528152602001906001900390816121de5790505b5060408051602081019091526000815291969195509350915050565b6003602052816000526040600020818154811061224557600080fd5b600091825260209091206003909102018054600182015460028301805473ffffffffffffffffffffffffffffffffffffffff909316955090935090612289906141d7565b80601f01602080910402602001604051908101604052809291908181526020018280546122b5906141d7565b80156123025780601f106122d757610100808354040283529160200191612302565b820191906000526020600020905b8154815290600101906020018083116122e557829003601f168201915b5050505050905083565b60007f000000000000000000000000000000000000000000000000000000000000000073ffffffffffffffffffffffffffffffffffffffff16638b79543c6040518163ffffffff1660e01b8152600401602060405180830381865afa158015612379573d6000803e3d6000fd5b505050506040513d601f19601f8201168201806040525081019061239d9190613527565b73ffffffffffffffffffffffffffffffffffffffff166306661abd6040518163ffffffff1660e01b8152600401602060405180830381865afa1580156123e7573d6000803e3d6000fd5b505050506040513d601f19601f8201168201806040525081019061240b9190613649565b612416906001613d55565b905060007f000000000000000000000000000000000000000000000000000000000000000073ffffffffffffffffffffffffffffffffffffffff166370d7f24983886040518363ffffffff1660e01b815260040161247592919061487b565b6020604051808303816000875af1158015612494573d6000803e3d6000fd5b505050506040513d601f19601f820116820180604052508101906124b89190613527565b90508360006124c8826001613d55565b67ffffffffffffffff8111156124e0576124e0612b76565b60405190808252806020026020018201604052801561252d57816020015b604080516060808201835260008083526020830152918101919091528152602001906001900390816124fe5790505b50905060005b8281101561258d5787878281811061254d5761254d6134f8565b905060200281019061255f9190614a51565b61256890614a8f565b82828151811061257a5761257a6134f8565b6020908102919091010152600101612533565b5060405180606001604052808473ffffffffffffffffffffffffffffffffffffffff16815260200160008152602001604051806020016040528060008152508152508183815181106125e1576125e16134f8565b60200260200101819052506125fb8d8d8d8d8d868b611415565b505050509998505050505050505050565b600060608060607f000000000000000000000000000000000000000000000000000000000000000073ffffffffffffffffffffffffffffffffffffffff1663d46cf171866040518263ffffffff1660e01b815260040161266c9190614add565b600060405180830381865afa158015612689573d6000803e3d6000fd5b505050506040513d6000823e601f3d9081017fffffffffffffffffffffffffffffffffffffffffffffffffffffffffffffffe01682016040526126cf9190810190614c51565b60c088013560009081526003602090815260408083208054825181850281018501909352808352969a509396509194919350849084015b828210156127f75760008481526020908190206040805160608101825260038602909201805473ffffffffffffffffffffffffffffffffffffffff16835260018101549383019390935260028301805492939291840191612766906141d7565b80601f0160208091040260200160405190810160405280929190818152602001828054612792906141d7565b80156127df5780601f106127b4576101008083540402835291602001916127df565b820191906000526020600020905b8154815290600101906020018083116127c257829003601f168201915b50505050508152505081526020019060010190612706565b5050825192935061280d91508290506001613d55565b67ffffffffffffffff81111561282557612825612b76565b60405190808252806020026020018201604052801561287257816020015b604080516060808201835260008083526020830152918101919091528152602001906001900390816128435790505b50935060005b818110156128bf57828181518110612892576128926134f8565b60200260200101518582815181106128ac576128ac6134f8565b6020908102919091010152600101612878565b50826000815181106128d3576128d36134f8565b60200260200101518482815181106128ed576128ed6134f8565b6020908102919091010152612906610160880188614dca565b8080601f016020809104026020016040519081016040528093929190818152602001838380828437600092019190915250989a9299509597509095505050505050565b60006020828403121561295b57600080fd5b81357fffffffff000000000000000000000000000000000000000000000000000000008116811461298b57600080fd5b9392505050565b6000602082840312156129a457600080fd5b5035919050565b73ffffffffffffffffffffffffffffffffffffffff811681146129cd57600080fd5b50565b80356129db816129ab565b919050565b60008083601f8401126129f257600080fd5b50813567ffffffffffffffff811115612a0a57600080fd5b602083019150836020828501011115612a2257600080fd5b9250929050565b600060e08284031215612a3b57600080fd5b50919050565b6000806000806000806000610160888a031215612a5d57600080fd5b8735612a68816129ab565b9650602088013567ffffffffffffffff80821115612a8557600080fd5b908901906040828c031215612a9957600080fd5b90965060408901359080821115612aaf57600080fd5b612abb8b838c016129e0565b909750955060608a0135915080821115612ad457600080fd5b50612ae18a828b016129e0565b9094509250612af590508960808a01612a29565b905092959891949750929550565b600080600080600060808688031215612b1b57600080fd5b8535612b26816129ab565b94506020860135612b36816129ab565b935060408601359250606086013567ffffffffffffffff811115612b5957600080fd5b612b65888289016129e0565b969995985093965092949392505050565b7f4e487b7100000000000000000000000000000000000000000000000000000000600052604160045260246000fd5b6040516060810167ffffffffffffffff81118282101715612bc857612bc8612b76565b60405290565b604051610240810167ffffffffffffffff81118282101715612bc857612bc8612b76565b604051610120810167ffffffffffffffff81118282101715612bc857612bc8612b76565b604051601f82017fffffffffffffffffffffffffffffffffffffffffffffffffffffffffffffffe016810167ffffffffffffffff81118282101715612c5d57612c5d612b76565b604052919050565b600067ffffffffffffffff821115612c7f57612c7f612b76565b50601f017fffffffffffffffffffffffffffffffffffffffffffffffffffffffffffffffe01660200190565b6000612cbe612cb984612c65565b612c16565b9050828152838383011115612cd257600080fd5b828260208301376000602084830101529392505050565b600082601f830112612cfa57600080fd5b61298b83833560208501612cab565b600060408284031215612d1b57600080fd5b6040516040810167ffffffffffffffff8282108183111715612d3f57612d3f612b76565b816040528293508435915080821115612d5757600080fd5b50612d6485828601612ce9565b825250602083013560208201525092915050565b600067ffffffffffffffff821115612d9257612d92612b76565b5060051b60200190565b600060608284031215612dae57600080fd5b612db6612ba5565b90508135612dc3816129ab565b815260208281013590820152604082013567ffffffffffffffff811115612de957600080fd5b8201601f81018413612dfa57600080fd5b612e0984823560208401612cab565b60408301525092915050565b600082601f830112612e2657600080fd5b81356020612e36612cb983612d78565b82815260059290921b84018101918181019086841115612e5557600080fd5b8286015b84811015612e9557803567ffffffffffffffff811115612e795760008081fd5b612e878986838b0101612d9c565b845250918301918301612e59565b509695505050505050565b803560ff811681146129db57600080fd5b60008060008060008060006101a0888a031215612ecd57600080fd5b612ed6886129d0565b9650602088013567ffffffffffffffff80821115612ef357600080fd5b612eff8b838c01612d09565b975060408a0135915080821115612f1557600080fd5b612f218b838c01612ce9565b965060608a0135915080821115612f3757600080fd5b612f438b838c01612ce9565b9550612f528b60808c01612a29565b94506101608a0135915080821115612f6957600080fd5b50612f768a828b01612e15565b925050612af56101808901612ea0565b60006101c08284031215612a3b57600080fd5b60008083601f840112612fab57600080fd5b50813567ffffffffffffffff811115612fc357600080fd5b6020830191508360208260051b8501011115612a2257600080fd5b60008060008060008060008060008060006101e08c8e03121561300057600080fd5b6130098c6129d0565b9a5067ffffffffffffffff8060208e0135111561302557600080fd5b6130358e60208f01358f01612d09565b9a508060408e0135111561304857600080fd5b6130588e60408f01358f01612ce9565b99508060608e0135111561306b57600080fd5b61307b8e60608f01358f01612ce9565b985061308a8e60808f01612a29565b9750806101608e0135111561309e57600080fd5b6130af8e6101608f01358f01612f86565b9650806101808e013511156130c357600080fd5b6130d48e6101808f01358f01612f99565b90965094506130e66101a08e01612ea0565b9350806101c08e013511156130fa57600080fd5b5061310c8d6101c08e01358e01612f99565b81935080925050509295989b509295989b9093969950565b60006020828403121561313657600080fd5b813567ffffffffffffffff81111561314d57600080fd5b82016101e0818503121561298b57600080fd5b60005b8381101561317b578181015183820152602001613163565b50506000910152565b6000815180845261319c816020860160208601613160565b601f017fffffffffffffffffffffffffffffffffffffffffffffffffffffffffffffffe0169290920160200192915050565b60006060858352602081818501526131e882850187613184565b6040858203818701528187518084528484019150848160051b850101858a0160005b83811015613285578683037fffffffffffffffffffffffffffffffffffffffffffffffffffffffffffffffe00185528151805173ffffffffffffffffffffffffffffffffffffffff16845288810151898501528601518684018a90526132728a850182613184565b958901959350509087019060010161320a565b50909c9b505050505050505050505050565b600080604083850312156132aa57600080fd5b50508035926020909101359150565b73ffffffffffffffffffffffffffffffffffffffff841681528260208201526060604082015260006132ee6060830184613184565b95945050505050565b60008060008060008060008060006101c08a8c03121561331657600080fd5b61331f8a6129d0565b985060208a013567ffffffffffffffff8082111561333c57600080fd5b6133488d838e01612d09565b995060408c013591508082111561335e57600080fd5b61336a8d838e01612ce9565b985060608c013591508082111561338057600080fd5b61338c8d838e01612ce9565b975061339b8d60808e01612a29565b96506101608c01359150808211156133b257600080fd5b6133be8d838e01612f86565b95506101808c01359150808211156133d557600080fd5b506133e28c828d01612f99565b90945092506133f690506101a08b01612ea0565b90509295985092959850929598565b60006020828403121561341757600080fd5b813567ffffffffffffffff81111561342e57600080fd5b82016101a0818503121561298b57600080fd5b600060608583526020818185015261345b82850187613184565b6040858203818701528187518084528484019150848160051b850101858a0160005b83811015613285578683037fffffffffffffffffffffffffffffffffffffffffffffffffffffffffffffffe00185528151805173ffffffffffffffffffffffffffffffffffffffff16845288810151898501528601518684018a90526134e58a850182613184565b958901959350509087019060010161347d565b7f4e487b7100000000000000000000000000000000000000000000000000000000600052603260045260246000fd5b60006020828403121561353957600080fd5b815161298b816129ab565b60008083357fffffffffffffffffffffffffffffffffffffffffffffffffffffffffffffffe184360301811261357957600080fd5b830160208101925035905067ffffffffffffffff81111561359957600080fd5b803603821315612a2257600080fd5b8183528181602085013750600060208284010152600060207fffffffffffffffffffffffffffffffffffffffffffffffffffffffffffffffe0601f840116840101905092915050565b73ffffffffffffffffffffffffffffffffffffffff8316815260406020820152600061361d8384613544565b6040808501526136316080850182846135a8565b91505060208401356060840152809150509392505050565b60006020828403121561365b57600080fd5b5051919050565b85815260606020820152600061367c6060830186886135a8565b828103604084015261368f8185876135a8565b98975050505050505050565b7f4e487b7100000000000000000000000000000000000000000000000000000000600052601160045260246000fd5b600181815b8085111561372357817fffffffffffffffffffffffffffffffffffffffffffffffffffffffffffffffff048211156137095761370961369b565b8085161561371657918102915b93841c93908002906136cf565b509250929050565b60008261373a57506001610464565b8161374757506000610464565b816001811461375d576002811461376757613783565b6001915050610464565b60ff8411156137785761377861369b565b50506001821b610464565b5060208310610133831016604e8410600b84101617156137a6575081810a610464565b6137b083836136ca565b807fffffffffffffffffffffffffffffffffffffffffffffffffffffffffffffffff048211156137e2576137e261369b565b029392505050565b600061298b60ff84168361372b565b61381e8282518051151582526020808201511515908301526040908101511515910152565b6020810151606083015260408101516080830152606081015160a0830152608081015161384f60c084018215159052565b5060a081015180151560e08401525060c08101516101006138738185018315159052565b60e0830151915061012061388a8186018415159052565b908301519150610140906138a18583018415159052565b83015191506101606138b68582018415159052565b908301519150610180906138cd8583018415159052565b83015191506101a06138e28582018415159052565b9083015191506101c0906138f98583018415159052565b83015191506101e061390e8582018415159052565b908301519150610200906139258583018415159052565b830151915061022061393a8582018415159052565b9083015173ffffffffffffffffffffffffffffffffffffffff16610240850152909101516102609092019190915250565b600081518084526020808501808196508360051b810191508286016000805b86811015613a4a578385038a52825180518652860151604087870181905281518188018190529188019160609081890190865b81811015613a335785518051151584528c81015115158d8501528581015186850152848101518585015260808082015173ffffffffffffffffffffffffffffffffffffffff9081169186019190915260a0808301519086015260c0918201511690840152948b019460e0909201916001016139bd565b50509c89019c97505050928601925060010161398a565b509298975050505050505050565b600081518084526020808501945080840160005b83811015613ad5578151805173ffffffffffffffffffffffffffffffffffffffff908116895284820151168489015260408082015190890152606080820151908901526080808201519089015260a0908101519088015260c09096019590820190600101613a6c565b509495945050505050565b60006103c08983526020613b2d8185018b80518252602081015160208301526040810151604083015273ffffffffffffffffffffffffffffffffffffffff60608201511660608301525050565b613b3a60a085018a6137f9565b8761032085015281610340850152613b548285018861396b565b9150838203610360850152613b698287613a58565b848103610380860152855480825260008781528381209450918301915b81811015613bb857845473ffffffffffffffffffffffffffffffffffffffff1683526001948501949284019201613b86565b50508481036103a0860152601b81527f4465706c6f7965642052657461696c69737420747265617375727900000000006020820152604081019c9b505050505050505050505050565b7f5072656d696e746564200000000000000000000000000000000000000000000081528183600a8301377f20746f6b656e732e0000000000000000000000000000000000000000000000009101600a810191909152601201919050565b86815285602082015273ffffffffffffffffffffffffffffffffffffffff8516604082015260c060608201526000613c9960c0830186613184565b93151560808301525090151560a090910152949350505050565b600060208083526080830173ffffffffffffffffffffffffffffffffffffffff85511682850152818501516040850152604085015160608086015281815180845260a0870191508483019350600092505b80831015612e955783518252928401926001929092019190840190613d04565b803565ffffffffffff811681146129db57600080fd5b600060208284031215613d4c57600080fd5b61298b82613d24565b808201808211156104645761046461369b565b80516129db816129ab565b80151581146129cd57600080fd5b80516129db81613d73565b600060608284031215613d9e57600080fd5b613da6612ba5565b90508151613db381613d73565b81526020820151613dc381613d73565b60208201526040820151613dd681613d73565b604082015292915050565b60006102808284031215613df457600080fd5b613dfc612bce565b9050613e088383613d8c565b8152606082015160208201526080820151604082015260a08201516060820152613e3460c08301613d81565b6080820152613e4560e08301613d81565b60a0820152610100613e58818401613d81565b60c0830152610120613e6b818501613d81565b60e0840152610140613e7e818601613d81565b838501526101609250613e92838601613d81565b828501526101809150613ea6828601613d81565b908401526101a0613eb8858201613d81565b838501526101c09250613ecc838601613d81565b828501526101e09150613ee0828601613d81565b90840152610200613ef2858201613d81565b838501526102209250613f06838601613d81565b82850152613f176102408601613d68565b818501525050610260830151818301525092915050565b8051600381106129db57600080fd5b60008060008385036103c0811215613f5457600080fd5b61012080821215613f6457600080fd5b613f6c612bf2565b9150855182526020860151602083015260408601516040830152606086015160608301526080860151608083015260a086015160a083015260c086015160c0830152613fba60e08701613d68565b60e0830152610100808701518184015250819450613fda87828801613de1565b93505050613feb6103a08501613f2e565b90509250925092565b60006103a0888352614040602084018980518252602081015160208301526040810151604083015273ffffffffffffffffffffffffffffffffffffffff60608201511660608301525050565b61404d60a08401886137f9565b85610320840152806103408401526140678184018661396b565b905082810361036084015261407c8185613a58565b838103610380909401939093525050602c81527f5363686564756c656420626f6f737420657870697279206f662052657461696c60208201527f697374207472656173757279000000000000000000000000000000000000000060408201526060019695505050505050565b73ffffffffffffffffffffffffffffffffffffffff83168152604060208201526000825160408084015261411f6080840182613184565b905060208401516060840152809150509392505050565b83815260606020820152600061414f6060830185613184565b82810360408401526141618185613184565b9695505050505050565b7f5072656d696e74656420000000000000000000000000000000000000000000008152600082516141a381600a850160208701613160565b7f20746f6b656e732e000000000000000000000000000000000000000000000000600a939091019283015250601201919050565b600181811c908216806141eb57607f821691505b602082108103612a3b577f4e487b7100000000000000000000000000000000000000000000000000000000600052602260045260246000fd5b601f82111561426e57600081815260208120601f850160051c8101602086101561424b5750805b601f850160051c820191505b8181101561426a57828155600101614257565b5050505b505050565b815167ffffffffffffffff81111561428d5761428d612b76565b6142a18161429b84546141d7565b84614224565b602080601f8311600181146142f457600084156142be5750858301515b7fffffffffffffffffffffffffffffffffffffffffffffffffffffffffffffffff600386901b1c1916600185901b17855561426a565b6000858152602081207fffffffffffffffffffffffffffffffffffffffffffffffffffffffffffffffe08616915b8281101561434157888601518255948401946001909101908401614322565b508582101561437d57878501517fffffffffffffffffffffffffffffffffffffffffffffffffffffffffffffffff600388901b60f8161c191681555b5050505050600190811b01905550565b8183526000602080850194508260005b85811015613ad55781356143b0816129ab565b73ffffffffffffffffffffffffffffffffffffffff168752958201959082019060010161439d565b8381526040602080830182905282820184905260009190606090818501600587811b8701840189875b8a811015614539577fffffffffffffffffffffffffffffffffffffffffffffffffffffffffffffffa08a840301855281357fffffffffffffffffffffffffffffffffffffffffffffffffffffffffffffff418d360301811261446257600080fd5b8c0160c08135614471816129ab565b73ffffffffffffffffffffffffffffffffffffffff1685528188013588860152898201358a86015288820135898601526080808301359086015260a080830135368490037fffffffffffffffffffffffffffffffffffffffffffffffffffffffffffffffe10181126144e257600080fd5b90920188810192903567ffffffffffffffff81111561450057600080fd5b80881b360384131561451157600080fd5b8282880152614523838801828661438d565b988a019896505050928701925050600101614401565b50909b9a5050505050505050505050565b600082357fffffffffffffffffffffffffffffffffffffffffffffffffffffffffffffff8183360301811261457e57600080fd5b90910192915050565b80356cffffffffffffffffffffffffff811681146129db57600080fd5b803563ffffffff811681146129db57600080fd5b803561ffff811681146129db57600080fd5b803562ffffff811681146129db57600080fd5b80356129db81613d73565b6000608080840183357fffffffffffffffffffffffffffffffffffffffffffffffffffffffffffffffe185360301811261462157600080fd5b8401602081810191359067ffffffffffffffff82111561464057600080fd5b610160808302360384131561465457600080fd5b8589529382905260a09384890160005b8481101561476f5761468c8261467988614587565b6cffffffffffffffffffffffffff169052565b6146978487016145a4565b63ffffffff168483015260406146ae8782016145a4565b63ffffffff169083015260606146c58782016145b8565b61ffff16908301526146d88689016129d0565b73ffffffffffffffffffffffffffffffffffffffff1688830152858701358783015260c06147078188016145ca565b62ffffff169083015260e061471d8782016145dd565b1515908301526101006147318782016145dd565b1515908301526101206147458782016145dd565b1515908301526101406147598782016145dd565b1515908301529482019490820190600101614664565b5061477b838a01613d24565b65ffffffffffff81168b850152965061479660408a01613d24565b65ffffffffffff811660408c015296506147b260608a016129d0565b73ffffffffffffffffffffffffffffffffffffffff811660608c015296509998505050505050505050565b80356147e881613d73565b1515825260208101356147fa81613d73565b15156020830152604081013561480f81613d73565b15156040830152606081013561482481613d73565b8015156060840152505050565b8035600281106129db57600080fd5b60028110614877577f4e487b7100000000000000000000000000000000000000000000000000000000600052602160045260246000fd5b9052565b8281526040602082015260006148918384613544565b6101c060408501526148a8610200850182846135a8565b9150506148b86020850185613544565b7fffffffffffffffffffffffffffffffffffffffffffffffffffffffffffffffc0808685030160608701526148ee8483856135a8565b93506148fc604088016129d0565b73ffffffffffffffffffffffffffffffffffffffff8116608088015292506149276060880188613544565b93509150808685030160a08701526149408484846135a8565b935061494e608088016129d0565b73ffffffffffffffffffffffffffffffffffffffff811660c0880152925061497960a0880188613544565b93509150808685030160e08701526149928484846135a8565b93506149a160c088018861454a565b92506101009150808685030182870152506149bc83836145e8565b92506149ca60e087016129d0565b91506101206149f08187018473ffffffffffffffffffffffffffffffffffffffff169052565b6149fb8288016129d0565b73ffffffffffffffffffffffffffffffffffffffff81166101408801529250614a2a61016087018289016147dd565b505050614a3a6101a08501614831565b614a486101e0850182614840565b50949350505050565b600082357fffffffffffffffffffffffffffffffffffffffffffffffffffffffffffffffa1833603018112614a8557600080fd5b9190910192915050565b60006104643683612d9c565b8035614aa6816129ab565b73ffffffffffffffffffffffffffffffffffffffff1682526020818101359083015260408082013590830152606090810135910152565b60208152614b0b60208201614af1846129d0565b73ffffffffffffffffffffffffffffffffffffffff169052565b6000614b19602084016129d0565b73ffffffffffffffffffffffffffffffffffffffff8116604084015250614b466060830160408501614a9b565b60c083013560e083015261010060e084013581840152614b678185016129d0565b9050610120614b8d8185018373ffffffffffffffffffffffffffffffffffffffff169052565b61014091508085013582850152506101608185013581850152614bb281860186613544565b925090506101a06101808181870152614bd06101c0870185856135a8565b9350614bde81880188613544565b935090507fffffffffffffffffffffffffffffffffffffffffffffffffffffffffffffffe08685030182870152614c168484836135a8565b979650505050505050565b6000614c2f612cb984612c65565b9050828152838383011115614c4357600080fd5b61298b836020830184613160565b600080600060608486031215614c6657600080fd5b8351925060208085015167ffffffffffffffff80821115614c8657600080fd5b818701915087601f830112614c9a57600080fd5b614ca8888351858501614c21565b94506040870151915080821115614cbe57600080fd5b818701915087601f830112614cd257600080fd5b8151614ce0612cb982612d78565b81815260059190911b8301840190848101908a831115614cff57600080fd5b8585015b83811015614db957805185811115614d1a57600080fd5b86016060818e037fffffffffffffffffffffffffffffffffffffffffffffffffffffffffffffffe0011215614d4e57600080fd5b614d56612ba5565b88820151614d63816129ab565b8152604082015189820152606082015187811115614d8057600080fd5b8083019250508d603f830112614d9557600080fd5b614da68e8a84015160408501614c21565b6040820152845250918601918601614d03565b508096505050505050509250925092565b60008083357fffffffffffffffffffffffffffffffffffffffffffffffffffffffffffffffe1843603018112614dff57600080fd5b83018035915067ffffffffffffffff821115614e1a57600080fd5b602001915036819003821315612a2257600080fdfea2646970667358221220b06dafb225af29d602bfdf42c968132954b68ba023cffd2ef467e0b586b1acf464736f6c63430008150033",
    "linkReferences": {}
  },
  "methodIdentifiers": {
    "buybackDelegate()": "d3967525",
    "controller()": "f77c4791",
    "croptopPermissionIndexes(uint256)": "42921698",
    "delegateAllocationsOf(uint256,uint256)": "abc603e3",
    "delegateDeployer()": "8f3d964b",
    "deployBasicProjectFor(address,(string,uint256),string,string,(uint256,uint256,uint256,uint256,uint256,uint256,uint48))": "0e53d9cc",
    "deployCroptopTiered721PayAllocatorProjectFor(address,(string,uint256),string,string,(uint256,uint256,uint256,uint256,uint256,uint256,uint48),(string,string,address,string,address,string,((uint104,uint32,uint32,uint16,address,bytes32,uint24,bool,bool,bool,bool)[],uint48,uint48,address),address,address,(bool,bool,bool,bool),uint8),(address,uint256,bytes)[],uint8,(address,uint256,uint256,uint256,uint256,address[])[])": "604baabe",
    "deployPayAllocatorProjectFor(address,(string,uint256),string,string,(uint256,uint256,uint256,uint256,uint256,uint256,uint48),(address,uint256,bytes)[],uint8)": "4e777fd7",
    "deployTiered721PayAllocatorProjectFor(address,(string,uint256),string,string,(uint256,uint256,uint256,uint256,uint256,uint256,uint48),(string,string,address,string,address,string,((uint104,uint32,uint32,uint16,address,bytes32,uint24,bool,bool,bool,bool)[],uint48,uint48,address),address,address,(bool,bool,bool,bool),uint8),(address,uint256,bytes)[],uint8)": "c7e221d7",
    "directory()": "c41c2f24",
    "onERC721Received(address,address,uint256,bytes)": "150b7a02",
    "payParams((address,address,(address,uint256,uint256,uint256),uint256,uint256,address,uint256,uint256,string,bytes))": "d46cf171",
    "permissionIndexes(uint256)": "9483e771",
    "publisher()": "8c72c54e",
    "reconfigurationStartTimestampOf(uint256)": "560f7b03",
    "redeemParams((address,address,uint256,uint256,uint256,uint256,uint256,(address,uint256,uint256,uint256),bool,uint256,string,bytes))": "a51cfd18",
    "scheduleReconfigurationOf(uint256)": "3ce6d3e2",
    "supportsInterface(bytes4)": "01ffc9a7",
    "terminals(uint256)": "0219758e"
  },
  "id": 112
}