{
  "abi": [
    {
      "inputs": [
        {
          "internalType": "contract CroptopPublisher",
          "name": "_publisher",
          "type": "address"
        },
        {
          "internalType": "contract IJBDirectory",
          "name": "_directory",
          "type": "address"
        },
        {
          "internalType": "contract IJBTiered721DelegateDeployer",
          "name": "_delegateDeployer",
          "type": "address"
        },
        {
          "internalType": "contract IJBController3_1",
          "name": "_controller",
          "type": "address"
        }
      ],
      "stateMutability": "nonpayable",
      "type": "constructor"
    },
    {
      "inputs": [],
      "name": "RECONFIGURATION_ALREADY_SCHEDULED",
      "type": "error"
    },
    {
      "inputs": [
        {
          "internalType": "uint256",
          "name": "",
          "type": "uint256"
        }
      ],
      "name": "buybackDelegateDataSourceOf",
      "outputs": [
        {
          "internalType": "contract IJBFundingCycleDataSource3_1_1",
          "name": "",
          "type": "address"
        }
      ],
      "stateMutability": "view",
      "type": "function"
    },
    {
      "inputs": [],
      "name": "controller",
      "outputs": [
        {
          "internalType": "contract IJBController3_1",
          "name": "",
          "type": "address"
        }
      ],
      "stateMutability": "view",
      "type": "function"
    },
    {
      "inputs": [
        {
          "internalType": "uint256",
          "name": "",
          "type": "uint256"
        }
      ],
      "name": "croptopPermissionIndexes",
      "outputs": [
        {
          "internalType": "uint256",
          "name": "",
          "type": "uint256"
        }
      ],
      "stateMutability": "view",
      "type": "function"
    },
    {
      "inputs": [
        {
          "internalType": "uint256",
          "name": "",
          "type": "uint256"
        },
        {
          "internalType": "uint256",
          "name": "",
          "type": "uint256"
        }
      ],
      "name": "delegateAllocationsOf",
      "outputs": [
        {
          "internalType": "contract IJBPayDelegate3_1_1",
          "name": "delegate",
          "type": "address"
        },
        {
          "internalType": "uint256",
          "name": "amount",
          "type": "uint256"
        },
        {
          "internalType": "bytes",
          "name": "metadata",
          "type": "bytes"
        }
      ],
      "stateMutability": "view",
      "type": "function"
    },
    {
      "inputs": [],
      "name": "delegateDeployer",
      "outputs": [
        {
          "internalType": "contract IJBTiered721DelegateDeployer",
          "name": "",
          "type": "address"
        }
      ],
      "stateMutability": "view",
      "type": "function"
    },
    {
      "inputs": [
        {
          "internalType": "address",
          "name": "_operator",
          "type": "address"
        },
        {
          "components": [
            {
              "internalType": "string",
              "name": "content",
              "type": "string"
            },
            {
              "internalType": "uint256",
              "name": "domain",
              "type": "uint256"
            }
          ],
          "internalType": "struct JBProjectMetadata",
          "name": "_projectMetadata",
          "type": "tuple"
        },
        {
          "internalType": "string",
          "name": "_name",
          "type": "string"
        },
        {
          "internalType": "string",
          "name": "_symbol",
          "type": "string"
        },
        {
          "components": [
            {
              "internalType": "uint256",
              "name": "initialIssuanceRate",
              "type": "uint256"
            },
            {
              "internalType": "uint256",
              "name": "premintTokenAmount",
              "type": "uint256"
            },
            {
              "internalType": "uint256",
              "name": "discountRate",
              "type": "uint256"
            },
            {
              "internalType": "uint256",
              "name": "cycleDurations",
              "type": "uint256"
            },
            {
              "internalType": "uint256",
              "name": "redemptionRate",
              "type": "uint256"
            },
            {
              "internalType": "uint256",
              "name": "reservedRate",
              "type": "uint256"
            },
            {
              "internalType": "uint48",
              "name": "reservedRateDuration",
              "type": "uint48"
            },
            {
              "internalType": "uint24",
              "name": "poolFee",
              "type": "uint24"
            }
          ],
          "internalType": "struct BasicRetailistJBParams",
          "name": "_data",
          "type": "tuple"
        },
        {
          "internalType": "contract IJBPaymentTerminal[]",
          "name": "_terminals",
          "type": "address[]"
        },
        {
          "internalType": "contract IJBGenericBuybackDelegate",
          "name": "_buybackDelegate",
          "type": "address"
        }
      ],
      "name": "deployBasicProjectFor",
      "outputs": [
        {
          "internalType": "uint256",
          "name": "projectId",
          "type": "uint256"
        }
      ],
      "stateMutability": "nonpayable",
      "type": "function"
    },
    {
      "inputs": [
        {
          "internalType": "address",
          "name": "_operator",
          "type": "address"
        },
        {
          "components": [
            {
              "internalType": "string",
              "name": "content",
              "type": "string"
            },
            {
              "internalType": "uint256",
              "name": "domain",
              "type": "uint256"
            }
          ],
          "internalType": "struct JBProjectMetadata",
          "name": "_projectMetadata",
          "type": "tuple"
        },
        {
          "internalType": "string",
          "name": "_name",
          "type": "string"
        },
        {
          "internalType": "string",
          "name": "_symbol",
          "type": "string"
        },
        {
          "components": [
            {
              "internalType": "uint256",
              "name": "initialIssuanceRate",
              "type": "uint256"
            },
            {
              "internalType": "uint256",
              "name": "premintTokenAmount",
              "type": "uint256"
            },
            {
              "internalType": "uint256",
              "name": "discountRate",
              "type": "uint256"
            },
            {
              "internalType": "uint256",
              "name": "cycleDurations",
              "type": "uint256"
            },
            {
              "internalType": "uint256",
              "name": "redemptionRate",
              "type": "uint256"
            },
            {
              "internalType": "uint256",
              "name": "reservedRate",
              "type": "uint256"
            },
            {
              "internalType": "uint48",
              "name": "reservedRateDuration",
              "type": "uint48"
            },
            {
              "internalType": "uint24",
              "name": "poolFee",
              "type": "uint24"
            }
          ],
          "internalType": "struct BasicRetailistJBParams",
          "name": "_data",
          "type": "tuple"
        },
        {
          "internalType": "contract IJBPaymentTerminal[]",
          "name": "_terminals",
          "type": "address[]"
        },
        {
          "internalType": "contract IJBGenericBuybackDelegate",
          "name": "_buybackDelegate",
          "type": "address"
        },
        {
          "components": [
            {
              "internalType": "string",
              "name": "name",
              "type": "string"
            },
            {
              "internalType": "string",
              "name": "symbol",
              "type": "string"
            },
            {
              "internalType": "contract IJBFundingCycleStore",
              "name": "fundingCycleStore",
              "type": "address"
            },
            {
              "internalType": "string",
              "name": "baseUri",
              "type": "string"
            },
            {
              "internalType": "contract IJB721TokenUriResolver",
              "name": "tokenUriResolver",
              "type": "address"
            },
            {
              "internalType": "string",
              "name": "contractUri",
              "type": "string"
            },
            {
              "components": [
                {
                  "components": [
                    {
                      "internalType": "uint104",
                      "name": "price",
                      "type": "uint104"
                    },
                    {
                      "internalType": "uint32",
                      "name": "initialQuantity",
                      "type": "uint32"
                    },
                    {
                      "internalType": "uint32",
                      "name": "votingUnits",
                      "type": "uint32"
                    },
                    {
                      "internalType": "uint16",
                      "name": "reservedRate",
                      "type": "uint16"
                    },
                    {
                      "internalType": "address",
                      "name": "reservedTokenBeneficiary",
                      "type": "address"
                    },
                    {
                      "internalType": "bytes32",
                      "name": "encodedIPFSUri",
                      "type": "bytes32"
                    },
                    {
                      "internalType": "uint24",
                      "name": "category",
                      "type": "uint24"
                    },
                    {
                      "internalType": "bool",
                      "name": "allowManualMint",
                      "type": "bool"
                    },
                    {
                      "internalType": "bool",
                      "name": "shouldUseReservedTokenBeneficiaryAsDefault",
                      "type": "bool"
                    },
                    {
                      "internalType": "bool",
                      "name": "transfersPausable",
                      "type": "bool"
                    },
                    {
                      "internalType": "bool",
                      "name": "useVotingUnits",
                      "type": "bool"
                    }
                  ],
                  "internalType": "struct JB721TierParams[]",
                  "name": "tiers",
                  "type": "tuple[]"
                },
                {
                  "internalType": "uint48",
                  "name": "currency",
                  "type": "uint48"
                },
                {
                  "internalType": "uint48",
                  "name": "decimals",
                  "type": "uint48"
                },
                {
                  "internalType": "contract IJBPrices",
                  "name": "prices",
                  "type": "address"
                }
              ],
              "internalType": "struct JB721PricingParams",
              "name": "pricing",
              "type": "tuple"
            },
            {
              "internalType": "address",
              "name": "reservedTokenBeneficiary",
              "type": "address"
            },
            {
              "internalType": "contract IJBTiered721DelegateStore",
              "name": "store",
              "type": "address"
            },
            {
              "components": [
                {
                  "internalType": "bool",
                  "name": "lockReservedTokenChanges",
                  "type": "bool"
                },
                {
                  "internalType": "bool",
                  "name": "lockVotingUnitChanges",
                  "type": "bool"
                },
                {
                  "internalType": "bool",
                  "name": "lockManualMintingChanges",
                  "type": "bool"
                },
                {
                  "internalType": "bool",
                  "name": "preventOverspending",
                  "type": "bool"
                }
              ],
              "internalType": "struct JBTiered721Flags",
              "name": "flags",
              "type": "tuple"
            },
            {
              "internalType": "enum JB721GovernanceType",
              "name": "governanceType",
              "type": "uint8"
            }
          ],
          "internalType": "struct JBDeployTiered721DelegateData",
          "name": "_deployTiered721DelegateData",
          "type": "tuple"
        },
        {
          "components": [
            {
              "internalType": "contract IJBPayDelegate3_1_1",
              "name": "delegate",
              "type": "address"
            },
            {
              "internalType": "uint256",
              "name": "amount",
              "type": "uint256"
            },
            {
              "internalType": "bytes",
              "name": "metadata",
              "type": "bytes"
            }
          ],
          "internalType": "struct JBPayDelegateAllocation3_1_1[]",
          "name": "_otherDelegateAllocations",
          "type": "tuple[]"
        },
        {
          "internalType": "uint8",
          "name": "_extraFundingCycleMetadata",
          "type": "uint8"
        },
        {
          "components": [
            {
              "internalType": "address",
              "name": "nft",
              "type": "address"
            },
            {
              "internalType": "uint256",
              "name": "category",
              "type": "uint256"
            },
            {
              "internalType": "uint256",
              "name": "minimumPrice",
              "type": "uint256"
            },
            {
              "internalType": "uint256",
              "name": "minimumTotalSupply",
              "type": "uint256"
            },
            {
              "internalType": "uint256",
              "name": "maximumTotalSupply",
              "type": "uint256"
            },
            {
              "internalType": "address[]",
              "name": "allowedAddresses",
              "type": "address[]"
            }
          ],
          "internalType": "struct AllowedPost[]",
          "name": "_allowedPosts",
          "type": "tuple[]"
        }
      ],
      "name": "deployCroptopTiered721PayAllocatorProjectFor",
      "outputs": [
        {
          "internalType": "uint256",
          "name": "projectId",
          "type": "uint256"
        }
      ],
      "stateMutability": "nonpayable",
      "type": "function"
    },
    {
      "inputs": [
        {
          "internalType": "address",
          "name": "_operator",
          "type": "address"
        },
        {
          "components": [
            {
              "internalType": "string",
              "name": "content",
              "type": "string"
            },
            {
              "internalType": "uint256",
              "name": "domain",
              "type": "uint256"
            }
          ],
          "internalType": "struct JBProjectMetadata",
          "name": "_projectMetadata",
          "type": "tuple"
        },
        {
          "internalType": "string",
          "name": "_name",
          "type": "string"
        },
        {
          "internalType": "string",
          "name": "_symbol",
          "type": "string"
        },
        {
          "components": [
            {
              "internalType": "uint256",
              "name": "initialIssuanceRate",
              "type": "uint256"
            },
            {
              "internalType": "uint256",
              "name": "premintTokenAmount",
              "type": "uint256"
            },
            {
              "internalType": "uint256",
              "name": "discountRate",
              "type": "uint256"
            },
            {
              "internalType": "uint256",
              "name": "cycleDurations",
              "type": "uint256"
            },
            {
              "internalType": "uint256",
              "name": "redemptionRate",
              "type": "uint256"
            },
            {
              "internalType": "uint256",
              "name": "reservedRate",
              "type": "uint256"
            },
            {
              "internalType": "uint48",
              "name": "reservedRateDuration",
              "type": "uint48"
            },
            {
              "internalType": "uint24",
              "name": "poolFee",
              "type": "uint24"
            }
          ],
          "internalType": "struct BasicRetailistJBParams",
          "name": "_data",
          "type": "tuple"
        },
        {
          "internalType": "contract IJBPaymentTerminal[]",
          "name": "_terminals",
          "type": "address[]"
        },
        {
          "internalType": "contract IJBGenericBuybackDelegate",
          "name": "_buybackDelegate",
          "type": "address"
        },
        {
          "components": [
            {
              "internalType": "contract IJBPayDelegate3_1_1",
              "name": "delegate",
              "type": "address"
            },
            {
              "internalType": "uint256",
              "name": "amount",
              "type": "uint256"
            },
            {
              "internalType": "bytes",
              "name": "metadata",
              "type": "bytes"
            }
          ],
          "internalType": "struct JBPayDelegateAllocation3_1_1[]",
          "name": "_delegateAllocations",
          "type": "tuple[]"
        },
        {
          "internalType": "uint8",
          "name": "_extraFundingCycleMetadata",
          "type": "uint8"
        }
      ],
      "name": "deployPayAllocatorProjectFor",
      "outputs": [
        {
          "internalType": "uint256",
          "name": "projectId",
          "type": "uint256"
        }
      ],
      "stateMutability": "nonpayable",
      "type": "function"
    },
    {
      "inputs": [
        {
          "internalType": "address",
          "name": "_operator",
          "type": "address"
        },
        {
          "components": [
            {
              "internalType": "string",
              "name": "content",
              "type": "string"
            },
            {
              "internalType": "uint256",
              "name": "domain",
              "type": "uint256"
            }
          ],
          "internalType": "struct JBProjectMetadata",
          "name": "_projectMetadata",
          "type": "tuple"
        },
        {
          "internalType": "string",
          "name": "_name",
          "type": "string"
        },
        {
          "internalType": "string",
          "name": "_symbol",
          "type": "string"
        },
        {
          "components": [
            {
              "internalType": "uint256",
              "name": "initialIssuanceRate",
              "type": "uint256"
            },
            {
              "internalType": "uint256",
              "name": "premintTokenAmount",
              "type": "uint256"
            },
            {
              "internalType": "uint256",
              "name": "discountRate",
              "type": "uint256"
            },
            {
              "internalType": "uint256",
              "name": "cycleDurations",
              "type": "uint256"
            },
            {
              "internalType": "uint256",
              "name": "redemptionRate",
              "type": "uint256"
            },
            {
              "internalType": "uint256",
              "name": "reservedRate",
              "type": "uint256"
            },
            {
              "internalType": "uint48",
              "name": "reservedRateDuration",
              "type": "uint48"
            },
            {
              "internalType": "uint24",
              "name": "poolFee",
              "type": "uint24"
            }
          ],
          "internalType": "struct BasicRetailistJBParams",
          "name": "_data",
          "type": "tuple"
        },
        {
          "internalType": "contract IJBPaymentTerminal[]",
          "name": "_terminals",
          "type": "address[]"
        },
        {
          "internalType": "contract IJBGenericBuybackDelegate",
          "name": "_buybackDelegate",
          "type": "address"
        },
        {
          "components": [
            {
              "internalType": "string",
              "name": "name",
              "type": "string"
            },
            {
              "internalType": "string",
              "name": "symbol",
              "type": "string"
            },
            {
              "internalType": "contract IJBFundingCycleStore",
              "name": "fundingCycleStore",
              "type": "address"
            },
            {
              "internalType": "string",
              "name": "baseUri",
              "type": "string"
            },
            {
              "internalType": "contract IJB721TokenUriResolver",
              "name": "tokenUriResolver",
              "type": "address"
            },
            {
              "internalType": "string",
              "name": "contractUri",
              "type": "string"
            },
            {
              "components": [
                {
                  "components": [
                    {
                      "internalType": "uint104",
                      "name": "price",
                      "type": "uint104"
                    },
                    {
                      "internalType": "uint32",
                      "name": "initialQuantity",
                      "type": "uint32"
                    },
                    {
                      "internalType": "uint32",
                      "name": "votingUnits",
                      "type": "uint32"
                    },
                    {
                      "internalType": "uint16",
                      "name": "reservedRate",
                      "type": "uint16"
                    },
                    {
                      "internalType": "address",
                      "name": "reservedTokenBeneficiary",
                      "type": "address"
                    },
                    {
                      "internalType": "bytes32",
                      "name": "encodedIPFSUri",
                      "type": "bytes32"
                    },
                    {
                      "internalType": "uint24",
                      "name": "category",
                      "type": "uint24"
                    },
                    {
                      "internalType": "bool",
                      "name": "allowManualMint",
                      "type": "bool"
                    },
                    {
                      "internalType": "bool",
                      "name": "shouldUseReservedTokenBeneficiaryAsDefault",
                      "type": "bool"
                    },
                    {
                      "internalType": "bool",
                      "name": "transfersPausable",
                      "type": "bool"
                    },
                    {
                      "internalType": "bool",
                      "name": "useVotingUnits",
                      "type": "bool"
                    }
                  ],
                  "internalType": "struct JB721TierParams[]",
                  "name": "tiers",
                  "type": "tuple[]"
                },
                {
                  "internalType": "uint48",
                  "name": "currency",
                  "type": "uint48"
                },
                {
                  "internalType": "uint48",
                  "name": "decimals",
                  "type": "uint48"
                },
                {
                  "internalType": "contract IJBPrices",
                  "name": "prices",
                  "type": "address"
                }
              ],
              "internalType": "struct JB721PricingParams",
              "name": "pricing",
              "type": "tuple"
            },
            {
              "internalType": "address",
              "name": "reservedTokenBeneficiary",
              "type": "address"
            },
            {
              "internalType": "contract IJBTiered721DelegateStore",
              "name": "store",
              "type": "address"
            },
            {
              "components": [
                {
                  "internalType": "bool",
                  "name": "lockReservedTokenChanges",
                  "type": "bool"
                },
                {
                  "internalType": "bool",
                  "name": "lockVotingUnitChanges",
                  "type": "bool"
                },
                {
                  "internalType": "bool",
                  "name": "lockManualMintingChanges",
                  "type": "bool"
                },
                {
                  "internalType": "bool",
                  "name": "preventOverspending",
                  "type": "bool"
                }
              ],
              "internalType": "struct JBTiered721Flags",
              "name": "flags",
              "type": "tuple"
            },
            {
              "internalType": "enum JB721GovernanceType",
              "name": "governanceType",
              "type": "uint8"
            }
          ],
          "internalType": "struct JBDeployTiered721DelegateData",
          "name": "_deployTiered721DelegateData",
          "type": "tuple"
        },
        {
          "components": [
            {
              "internalType": "contract IJBPayDelegate3_1_1",
              "name": "delegate",
              "type": "address"
            },
            {
              "internalType": "uint256",
              "name": "amount",
              "type": "uint256"
            },
            {
              "internalType": "bytes",
              "name": "metadata",
              "type": "bytes"
            }
          ],
          "internalType": "struct JBPayDelegateAllocation3_1_1[]",
          "name": "_otherDelegateAllocations",
          "type": "tuple[]"
        },
        {
          "internalType": "uint8",
          "name": "_extraFundingCycleMetadata",
          "type": "uint8"
        }
      ],
      "name": "deployTiered721PayAllocatorProjectFor",
      "outputs": [
        {
          "internalType": "uint256",
          "name": "projectId",
          "type": "uint256"
        }
      ],
      "stateMutability": "nonpayable",
      "type": "function"
    },
    {
      "inputs": [],
      "name": "directory",
      "outputs": [
        {
          "internalType": "contract IJBDirectory",
          "name": "",
          "type": "address"
        }
      ],
      "stateMutability": "view",
      "type": "function"
    },
    {
      "inputs": [
        {
          "internalType": "address",
          "name": "_operator",
          "type": "address"
        },
        {
          "internalType": "address",
          "name": "_from",
          "type": "address"
        },
        {
          "internalType": "uint256",
          "name": "_tokenId",
          "type": "uint256"
        },
        {
          "internalType": "bytes",
          "name": "_data",
          "type": "bytes"
        }
      ],
      "name": "onERC721Received",
      "outputs": [
        {
          "internalType": "bytes4",
          "name": "",
          "type": "bytes4"
        }
      ],
      "stateMutability": "view",
      "type": "function"
    },
    {
      "inputs": [
        {
          "components": [
            {
              "internalType": "contract IJBPaymentTerminal",
              "name": "terminal",
              "type": "address"
            },
            {
              "internalType": "address",
              "name": "payer",
              "type": "address"
            },
            {
              "components": [
                {
                  "internalType": "address",
                  "name": "token",
                  "type": "address"
                },
                {
                  "internalType": "uint256",
                  "name": "value",
                  "type": "uint256"
                },
                {
                  "internalType": "uint256",
                  "name": "decimals",
                  "type": "uint256"
                },
                {
                  "internalType": "uint256",
                  "name": "currency",
                  "type": "uint256"
                }
              ],
              "internalType": "struct JBTokenAmount",
              "name": "amount",
              "type": "tuple"
            },
            {
              "internalType": "uint256",
              "name": "projectId",
              "type": "uint256"
            },
            {
              "internalType": "uint256",
              "name": "currentFundingCycleConfiguration",
              "type": "uint256"
            },
            {
              "internalType": "address",
              "name": "beneficiary",
              "type": "address"
            },
            {
              "internalType": "uint256",
              "name": "weight",
              "type": "uint256"
            },
            {
              "internalType": "uint256",
              "name": "reservedRate",
              "type": "uint256"
            },
            {
              "internalType": "string",
              "name": "memo",
              "type": "string"
            },
            {
              "internalType": "bytes",
              "name": "metadata",
              "type": "bytes"
            }
          ],
          "internalType": "struct JBPayParamsData",
          "name": "_data",
          "type": "tuple"
        }
      ],
      "name": "payParams",
      "outputs": [
        {
          "internalType": "uint256",
          "name": "weight",
          "type": "uint256"
        },
        {
          "internalType": "string",
          "name": "memo",
          "type": "string"
        },
        {
          "components": [
            {
              "internalType": "contract IJBPayDelegate3_1_1",
              "name": "delegate",
              "type": "address"
            },
            {
              "internalType": "uint256",
              "name": "amount",
              "type": "uint256"
            },
            {
              "internalType": "bytes",
              "name": "metadata",
              "type": "bytes"
            }
          ],
          "internalType": "struct JBPayDelegateAllocation3_1_1[]",
          "name": "delegateAllocations",
          "type": "tuple[]"
        }
      ],
      "stateMutability": "view",
      "type": "function"
    },
    {
      "inputs": [
        {
          "internalType": "uint256",
          "name": "",
          "type": "uint256"
        }
      ],
      "name": "permissionIndexes",
      "outputs": [
        {
          "internalType": "uint256",
          "name": "",
          "type": "uint256"
        }
      ],
      "stateMutability": "view",
      "type": "function"
    },
    {
      "inputs": [],
      "name": "publisher",
      "outputs": [
        {
          "internalType": "contract CroptopPublisher",
          "name": "",
          "type": "address"
        }
      ],
      "stateMutability": "view",
      "type": "function"
    },
    {
      "inputs": [
        {
          "internalType": "uint256",
          "name": "projectId",
          "type": "uint256"
        }
      ],
      "name": "reconfigurationStartTimestampOf",
      "outputs": [
        {
          "internalType": "uint256",
          "name": "",
          "type": "uint256"
        }
      ],
      "stateMutability": "view",
      "type": "function"
    },
    {
      "inputs": [
        {
          "components": [
            {
              "internalType": "contract IJBPaymentTerminal",
              "name": "terminal",
              "type": "address"
            },
            {
              "internalType": "address",
              "name": "holder",
              "type": "address"
            },
            {
              "internalType": "uint256",
              "name": "projectId",
              "type": "uint256"
            },
            {
              "internalType": "uint256",
              "name": "currentFundingCycleConfiguration",
              "type": "uint256"
            },
            {
              "internalType": "uint256",
              "name": "tokenCount",
              "type": "uint256"
            },
            {
              "internalType": "uint256",
              "name": "totalSupply",
              "type": "uint256"
            },
            {
              "internalType": "uint256",
              "name": "overflow",
              "type": "uint256"
            },
            {
              "components": [
                {
                  "internalType": "address",
                  "name": "token",
                  "type": "address"
                },
                {
                  "internalType": "uint256",
                  "name": "value",
                  "type": "uint256"
                },
                {
                  "internalType": "uint256",
                  "name": "decimals",
                  "type": "uint256"
                },
                {
                  "internalType": "uint256",
                  "name": "currency",
                  "type": "uint256"
                }
              ],
              "internalType": "struct JBTokenAmount",
              "name": "reclaimAmount",
              "type": "tuple"
            },
            {
              "internalType": "bool",
              "name": "useTotalOverflow",
              "type": "bool"
            },
            {
              "internalType": "uint256",
              "name": "redemptionRate",
              "type": "uint256"
            },
            {
              "internalType": "string",
              "name": "memo",
              "type": "string"
            },
            {
              "internalType": "bytes",
              "name": "metadata",
              "type": "bytes"
            }
          ],
          "internalType": "struct JBRedeemParamsData",
          "name": "_data",
          "type": "tuple"
        }
      ],
      "name": "redeemParams",
      "outputs": [
        {
          "internalType": "uint256",
          "name": "",
          "type": "uint256"
        },
        {
          "internalType": "string",
          "name": "",
          "type": "string"
        },
        {
          "components": [
            {
              "internalType": "contract IJBRedemptionDelegate3_1_1",
              "name": "delegate",
              "type": "address"
            },
            {
              "internalType": "uint256",
              "name": "amount",
              "type": "uint256"
            },
            {
              "internalType": "bytes",
              "name": "metadata",
              "type": "bytes"
            }
          ],
          "internalType": "struct JBRedemptionDelegateAllocation3_1_1[]",
          "name": "",
          "type": "tuple[]"
        }
      ],
      "stateMutability": "view",
      "type": "function"
    },
    {
      "inputs": [
        {
          "internalType": "uint256",
          "name": "_projectId",
          "type": "uint256"
        }
      ],
      "name": "scheduleReconfigurationOf",
      "outputs": [],
      "stateMutability": "nonpayable",
      "type": "function"
    },
    {
      "inputs": [
        {
          "internalType": "bytes4",
          "name": "_interfaceId",
          "type": "bytes4"
        }
      ],
      "name": "supportsInterface",
      "outputs": [
        {
          "internalType": "bool",
          "name": "",
          "type": "bool"
        }
      ],
      "stateMutability": "view",
      "type": "function"
    }
  ],
  "bytecode": {
    "object": "0x60e06040523480156200001157600080fd5b50604051620052e1380380620052e18339810160408190526200003491620000fa565b6001600160a01b03908116608052600080546001808201835560127f290decd9548b62a8d60345a988386fc84ba6bc95484008f6362f93160ef3e5639283015582548082018455601892019190915593821660a05291811660c052600480546001600160a01b031916949091169390931790925560058054918201815590915260157f036b6384b5eca791c62761152d0c79bb0604c104a5fb6f4eb0703f3154bb3db09091015562000162565b6001600160a01b0381168114620000f757600080fd5b50565b600080600080608085870312156200011157600080fd5b84516200011e81620000e1565b60208601519094506200013181620000e1565b60408601519093506200014481620000e1565b60608601519092506200015781620000e1565b939692955090935050565b60805160a05160c0516150df620002026000396000818161026d0152611a330152600081816102eb0152818161155701526118280152600081816103900152818161044f015281816106e4015281816107f201528181610aa301528181610d7e01528181610e55015281816111830152818161133601528181611fff0152818161210d015281816123be015281816125eb01526126c201526150df6000f3fe608060405234801561001057600080fd5b50600436106101365760003560e01c80639483e771116100b2578063cc28d77f11610081578063d87b09e311610066578063d87b09e314610342578063ef8eadd514610355578063f77c47911461038b57600080fd5b8063cc28d77f1461030d578063d46cf1711461032057600080fd5b80639483e7711461028f578063a51cfd18146102a2578063abc603e3146102c4578063c41c2f24146102e657600080fd5b80634292169811610109578063560f7b03116100ee578063560f7b03146102035780638c72c54e146102235780638f3d964b1461026857600080fd5b806342921698146101dd57806342f6c2fe146101f057600080fd5b806301ffc9a71461013b578063150b7a02146101635780631f84209a146101a75780633ce6d3e2146101c8575b600080fd5b61014e6101493660046128d9565b6103b2565b60405190151581526020015b60405180910390f35b610176610171366004612957565b61044b565b6040517fffffffff00000000000000000000000000000000000000000000000000000000909116815260200161015a565b6101ba6101b5366004612eda565b61055f565b60405190815260200161015a565b6101db6101d6366004612ff3565b61113a565b005b6101ba6101eb366004612ff3565b61148b565b6101ba6101fe36600461353c565b6114ac565b6101ba610211366004612ff3565b60016020526000908152604090205481565b6004546102439073ffffffffffffffffffffffffffffffffffffffff1681565b60405173ffffffffffffffffffffffffffffffffffffffff909116815260200161015a565b6102437f000000000000000000000000000000000000000000000000000000000000000081565b6101ba61029d366004612ff3565b6116c9565b6102b56102b03660046136ad565b6116d9565b60405161015a93929190613757565b6102d76102d2366004613820565b611741565b60405161015a93929190613842565b6102437f000000000000000000000000000000000000000000000000000000000000000081565b6101ba61031b366004613880565b611824565b61033361032e3660046139bf565b611b30565b60405161015a939291906139fb565b6101ba610350366004613ab2565b611e79565b610243610363366004612ff3565b60026020526000908152604090205473ffffffffffffffffffffffffffffffffffffffff1681565b6102437f000000000000000000000000000000000000000000000000000000000000000081565b60007fffffffff0000000000000000000000000000000000000000000000000000000082167f71700c6900000000000000000000000000000000000000000000000000000000148061044557507f150b7a02000000000000000000000000000000000000000000000000000000007fffffffff000000000000000000000000000000000000000000000000000000008316145b92915050565b60007f000000000000000000000000000000000000000000000000000000000000000073ffffffffffffffffffffffffffffffffffffffff16638b79543c6040518163ffffffff1660e01b8152600401602060405180830381865afa1580156104b8573d6000803e3d6000fd5b505050506040513d601f19601f820116820180604052508101906104dc9190613b95565b73ffffffffffffffffffffffffffffffffffffffff163373ffffffffffffffffffffffffffffffffffffffff161461051357600080fd5b73ffffffffffffffffffffffffffffffffffffffff85161561053457600080fd5b507f150b7a020000000000000000000000000000000000000000000000000000000095945050505050565b604080516001808252818301909252600091829190816020015b60408051808201909152600081526060602082015281526020019060019003908161057957505060408051600180825281830190925291925060009190602082015b6040805160e08101825260008082526020808301829052928201819052606082018190526080820181905260a0820181905260c082015282527fffffffffffffffffffffffffffffffffffffffffffffffffffffffffffffffff9092019101816105bb5790505090506040518060e00160405280600015158152602001600015158152602001633b9aca008152602001600081526020018d73ffffffffffffffffffffffffffffffffffffffff16815260200160008152602001600073ffffffffffffffffffffffffffffffffffffffff16815250816001815181106106a3576106a3613bb2565b602002602001018190525060405180604001604052806002815260200182815250826000815181106106d7576106d7613bb2565b60200260200101819052507f000000000000000000000000000000000000000000000000000000000000000073ffffffffffffffffffffffffffffffffffffffff16638b79543c6040518163ffffffff1660e01b8152600401602060405180830381865afa15801561074d573d6000803e3d6000fd5b505050506040513d601f19601f820116820180604052508101906107719190613b95565b73ffffffffffffffffffffffffffffffffffffffff1663666d87a0308d6040518363ffffffff1660e01b81526004016107ab929190613be1565b6020604051808303816000875af11580156107ca573d6000803e3d6000fd5b505050506040513d601f19601f820116820180604052508101906107ee9190613c2f565b92507f000000000000000000000000000000000000000000000000000000000000000073ffffffffffffffffffffffffffffffffffffffff1663619306306040518163ffffffff1660e01b8152600401602060405180830381865afa15801561085b573d6000803e3d6000fd5b505050506040513d601f19601f8201168201806040525081019061087f9190613b95565b73ffffffffffffffffffffffffffffffffffffffff1663a7f2a70b848c8c6040518463ffffffff1660e01b81526004016108bb93929190613c48565b6020604051808303816000875af11580156108da573d6000803e3d6000fd5b505050506040513d601f19601f820116820180604052508101906108fe9190613b95565b508573ffffffffffffffffffffffffffffffffffffffff16637b621d3a848a60e001518973ffffffffffffffffffffffffffffffffffffffff166360b3042c6040518163ffffffff1660e01b8152600401602060405180830381865afa15801561096c573d6000803e3d6000fd5b505050506040513d601f19601f820116820180604052508101906109909190613c2f565b8a73ffffffffffffffffffffffffffffffffffffffff1663737a79966040518163ffffffff1660e01b8152600401602060405180830381865afa1580156109db573d6000803e3d6000fd5b505050506040513d601f19601f820116820180604052508101906109ff9190613c2f565b6040517fffffffff0000000000000000000000000000000000000000000000000000000060e087901b168152600481019490945262ffffff909216602484015263ffffffff908116604484015216606482015261eeee608482015260a4016020604051808303816000875af1158015610a7c573d6000803e3d6000fd5b505050506040513d601f19601f82011682018060405250810190610aa09190613b95565b507f000000000000000000000000000000000000000000000000000000000000000073ffffffffffffffffffffffffffffffffffffffff1663111d861b8460405180608001604052808c60600151815260200160128d60000151610b049190613dcc565b81526020018c604001518152602001600073ffffffffffffffffffffffffffffffffffffffff1681525060405180610240016040528060405180606001604052806000151581526020016000151581526020016000151581525081526020018d60a0015181526020018d608001518152602001600081526020016000151581526020016000151581526020016000151581526020016000151581526020016001151581526020016000151581526020016000151581526020016000151581526020016000151581526020016000151581526020016001151581526020016000151581526020013073ffffffffffffffffffffffffffffffffffffffff1681526020018960ff16815250600087600067ffffffffffffffff811115610c2a57610c2a6129f6565b604051908082528060200260200182016040528015610cc057816020015b610cad6040518060c00160405280600073ffffffffffffffffffffffffffffffffffffffff168152602001600073ffffffffffffffffffffffffffffffffffffffff168152602001600081526020016000815260200160008152602001600081525090565b815260200190600190039081610c485790505b508e6040518863ffffffff1660e01b8152600401610ce497969594939291906140c2565b6020604051808303816000875af1158015610d03573d6000803e3d6000fd5b505050506040513d601f19601f82011682018060405250810190610d279190613c2f565b505050836002600083815260200190815260200160002060006101000a81548173ffffffffffffffffffffffffffffffffffffffff021916908373ffffffffffffffffffffffffffffffffffffffff1602179055507f000000000000000000000000000000000000000000000000000000000000000073ffffffffffffffffffffffffffffffffffffffff16638ae9c07b8260128960200151610dca9190613dcc565b8d8b604051602001610ddc91906141e0565b6040516020818303038152906040526000806040518763ffffffff1660e01b8152600401610e0f96959493929190614225565b6020604051808303816000875af1158015610e2e573d6000803e3d6000fd5b505050506040513d601f19601f82011682018060405250810190610e529190613c2f565b507f000000000000000000000000000000000000000000000000000000000000000073ffffffffffffffffffffffffffffffffffffffff16632bdfe0046040518163ffffffff1660e01b8152600401602060405180830381865afa158015610ebe573d6000803e3d6000fd5b505050506040513d601f19601f82011682018060405250810190610ee29190613b95565b73ffffffffffffffffffffffffffffffffffffffff1663ad007d636040518163ffffffff1660e01b8152600401602060405180830381865afa158015610f2c573d6000803e3d6000fd5b505050506040513d601f19601f82011682018060405250810190610f509190613b95565b73ffffffffffffffffffffffffffffffffffffffff1663529cdd2e60405180606001604052808d73ffffffffffffffffffffffffffffffffffffffff1681526020018481526020016000805480602002602001604051908101604052809291908181526020018280548015610fe457602002820191906000526020600020905b815481526020019060010190808311610fd0575b50505050508152506040518263ffffffff1660e01b8152600401611008919061427a565b600060405180830381600087803b15801561102257600080fd5b505af1158015611036573d6000803e3d6000fd5b50505060c0870151611051915065ffffffffffff16426142eb565b6000828152600160205260408120919091558351905b8181101561112b5784818151811061108157611081613bb2565b60200260200101516003600085815260200190815260200160002082815481106110ad576110ad613bb2565b600091825260209182902083516003929092020180547fffffffffffffffffffffffff00000000000000000000000000000000000000001673ffffffffffffffffffffffffffffffffffffffff9092169190911781559082015160018201556040820151600282019061112090826143a0565b505050600101611067565b50509998505050505050505050565b6040517f1f51045300000000000000000000000000000000000000000000000000000000815260048101829052600090819073ffffffffffffffffffffffffffffffffffffffff7f00000000000000000000000000000000000000000000000000000000000000001690631f510453906024016103c060405180830381865afa1580156111cb573d6000803e3d6000fd5b505050506040513d601f19601f820116820180604052508101906111ef9190614681565b5081519193509150600114611230576040517fc97554fa00000000000000000000000000000000000000000000000000000000815260040160405180910390fd5b60408051608080820183528481015182526000602080840182905260c08088015185870152606080860184905286516102a0810188526102408101858152610260820186905261028082018690528152808401859052888801518189015290810184905293840183905260a08401839052830182905260e08301829052610100830182905261012083018290526101408301829052610160830182905261018083018290526101a083018290526101c083018290526101e083018290526102008087015173ffffffffffffffffffffffffffffffffffffffff908116918501919091526102208781015190850152888352600182528583205486518481529283019096527f0000000000000000000000000000000000000000000000000000000000000000169463badbdf289489949093909290611391565b6040805180820190915260008152606060208201528152602001906001900390816113695790505b506040805160008082526020820190925290611420565b61140d6040518060c00160405280600073ffffffffffffffffffffffffffffffffffffffff168152602001600073ffffffffffffffffffffffffffffffffffffffff168152602001600081526020016000815260200160008152602001600081525090565b8152602001906001900390816113a85790505b506040518763ffffffff1660e01b815260040161144296959493929190614738565b6020604051808303816000875af1158015611461573d6000803e3d6000fd5b505050506040513d601f19601f820116820180604052508101906114859190613c2f565b50505050565b6005818154811061149b57600080fd5b600091825260209091200154905081565b60006114c08c8c8c8c8c8c8c8c8c8c611824565b9050815160001461155557600480546040517f200e8ae400000000000000000000000000000000000000000000000000000000815273ffffffffffffffffffffffffffffffffffffffff9091169163200e8ae49161152291859187910161482c565b600060405180830381600087803b15801561153c57600080fd5b505af1158015611550573d6000803e3d6000fd5b505050505b7f000000000000000000000000000000000000000000000000000000000000000073ffffffffffffffffffffffffffffffffffffffff1663ad007d636040518163ffffffff1660e01b8152600401602060405180830381865afa1580156115c0573d6000803e3d6000fd5b505050506040513d601f19601f820116820180604052508101906115e49190613b95565b6040805160608101825260045473ffffffffffffffffffffffffffffffffffffffff90811682526020808301869052600580548551818402810184018752818152969093169563529cdd2e95850193909283018282801561166457602002820191906000526020600020905b815481526020019060010190808311611650575b50505050508152506040518263ffffffff1660e01b8152600401611688919061427a565b600060405180830381600087803b1580156116a257600080fd5b505af11580156116b6573d6000803e3d6000fd5b505050509b9a5050505050505050505050565b6000818154811061149b57600080fd5b604080516000808252602082019092526060908190839081611725565b604080516060808201835260008083526020830152918101919091528152602001906001900390816116f65790505b5060408051602081019091526000815291969195509350915050565b6003602052816000526040600020818154811061175d57600080fd5b600091825260209091206003909102018054600182015460028301805473ffffffffffffffffffffffffffffffffffffffff9093169550909350906117a1906142fe565b80601f01602080910402602001604051908101604052809291908181526020018280546117cd906142fe565b801561181a5780601f106117ef5761010080835404028352916020019161181a565b820191906000526020600020905b8154815290600101906020018083116117fd57829003601f168201915b5050505050905083565b60007f000000000000000000000000000000000000000000000000000000000000000073ffffffffffffffffffffffffffffffffffffffff16638b79543c6040518163ffffffff1660e01b8152600401602060405180830381865afa158015611891573d6000803e3d6000fd5b505050506040513d601f19601f820116820180604052508101906118b59190613b95565b73ffffffffffffffffffffffffffffffffffffffff166306661abd6040518163ffffffff1660e01b8152600401602060405180830381865afa1580156118ff573d6000803e3d6000fd5b505050506040513d601f19601f820116820180604052508101906119239190613c2f565b61192e9060016142eb565b835190915060006119408260016142eb565b67ffffffffffffffff811115611958576119586129f6565b6040519080825280602002602001820160405280156119a557816020015b604080516060808201835260008083526020830152918101919091528152602001906001900390816119765790505b50905060005b828110156119f2578581815181106119c5576119c5613bb2565b60200260200101518282815181106119df576119df613bb2565b60209081029190910101526001016119ab565b506040517f70d7f24900000000000000000000000000000000000000000000000000000000815260009073ffffffffffffffffffffffffffffffffffffffff7f000000000000000000000000000000000000000000000000000000000000000016906370d7f24990611a6a9087908b90600401614aae565b6020604051808303816000875af1158015611a89573d6000803e3d6000fd5b505050506040513d601f19601f82011682018060405250810190611aad9190613b95565b905060405180606001604052808273ffffffffffffffffffffffffffffffffffffffff1681526020016000815260200160405180602001604052806000815250815250828481518110611b0257611b02613bb2565b602002602001018190525050611b1f8d8d8d8d8d8d8d888c61055f565b5050509a9950505050505050505050565b60c08101356000908152600260205260408082205490517fd46cf1710000000000000000000000000000000000000000000000000000000081526060918291829173ffffffffffffffffffffffffffffffffffffffff169063d46cf17190611b9c908890600401614d57565b600060405180830381865afa158015611bb9573d6000803e3d6000fd5b505050506040513d6000823e601f3d9081017fffffffffffffffffffffffffffffffffffffffffffffffffffffffffffffffe0168201604052611bff9190810190614ecb565b60c088013560009081526003602090815260408083208054825181850281018501909352808352969a509396509194919350849084015b82821015611d275760008481526020908190206040805160608101825260038602909201805473ffffffffffffffffffffffffffffffffffffffff16835260018101549383019390935260028301805492939291840191611c96906142fe565b80601f0160208091040260200160405190810160405280929190818152602001828054611cc2906142fe565b8015611d0f5780601f10611ce457610100808354040283529160200191611d0f565b820191906000526020600020905b815481529060010190602001808311611cf257829003601f168201915b50505050508152505081526020019060010190611c36565b50508251929350611d3d915082905060016142eb565b67ffffffffffffffff811115611d5557611d556129f6565b604051908082528060200260200182016040528015611da257816020015b60408051606080820183526000808352602083015291810191909152815260200190600190039081611d735790505b50935060005b81811015611def57828181518110611dc257611dc2613bb2565b6020026020010151858281518110611ddc57611ddc613bb2565b6020908102919091010152600101611da8565b5082600081518110611e0357611e03613bb2565b6020026020010151848281518110611e1d57611e1d613bb2565b6020908102919091010152611e36610160880188615044565b8080601f016020809104026020016040519081016040528093929190818152602001838380828437600092019190915250989a9299509597509095505050505050565b604080516001808252818301909252600091829190816020015b604080518082019091526000815260606020820152815260200190600190039081611e9357505060408051600180825281830190925291925060009190602082015b6040805160e08101825260008082526020808301829052928201819052606082018190526080820181905260a0820181905260c082015282527fffffffffffffffffffffffffffffffffffffffffffffffffffffffffffffffff909201910181611ed55790505090506040518060e00160405280600015158152602001600015158152602001633b9aca008152602001600081526020018b73ffffffffffffffffffffffffffffffffffffffff16815260200160008152602001600073ffffffffffffffffffffffffffffffffffffffff1681525081600181518110611fbd57611fbd613bb2565b60200260200101819052506040518060400160405280600281526020018281525082600081518110611ff157611ff1613bb2565b6020026020010181905250507f000000000000000000000000000000000000000000000000000000000000000073ffffffffffffffffffffffffffffffffffffffff16638b79543c6040518163ffffffff1660e01b8152600401602060405180830381865afa158015612068573d6000803e3d6000fd5b505050506040513d601f19601f8201168201806040525081019061208c9190613b95565b73ffffffffffffffffffffffffffffffffffffffff1663666d87a0308a6040518363ffffffff1660e01b81526004016120c6929190613be1565b6020604051808303816000875af11580156120e5573d6000803e3d6000fd5b505050506040513d601f19601f820116820180604052508101906121099190613c2f565b91507f000000000000000000000000000000000000000000000000000000000000000073ffffffffffffffffffffffffffffffffffffffff1663619306306040518163ffffffff1660e01b8152600401602060405180830381865afa158015612176573d6000803e3d6000fd5b505050506040513d601f19601f8201168201806040525081019061219a9190613b95565b73ffffffffffffffffffffffffffffffffffffffff1663a7f2a70b8389896040518463ffffffff1660e01b81526004016121d693929190613c48565b6020604051808303816000875af11580156121f5573d6000803e3d6000fd5b505050506040513d601f19601f820116820180604052508101906122199190613b95565b508273ffffffffffffffffffffffffffffffffffffffff16637b621d3a838760e001518673ffffffffffffffffffffffffffffffffffffffff166360b3042c6040518163ffffffff1660e01b8152600401602060405180830381865afa158015612287573d6000803e3d6000fd5b505050506040513d601f19601f820116820180604052508101906122ab9190613c2f565b8773ffffffffffffffffffffffffffffffffffffffff1663737a79966040518163ffffffff1660e01b8152600401602060405180830381865afa1580156122f6573d6000803e3d6000fd5b505050506040513d601f19601f8201168201806040525081019061231a9190613c2f565b6040517fffffffff0000000000000000000000000000000000000000000000000000000060e087901b168152600481019490945262ffffff909216602484015263ffffffff908116604484015216606482015261eeee608482015260a4016020604051808303816000875af1158015612397573d6000803e3d6000fd5b505050506040513d601f19601f820116820180604052508101906123bb9190613b95565b507f000000000000000000000000000000000000000000000000000000000000000073ffffffffffffffffffffffffffffffffffffffff1663111d861b8360405180608001604052808960600151815260200160128a6000015161241f9190613dcc565b815260408a810151602080840191909152600092820183905281516102a081018352610240810184815261026082018590526102808201859052815260a0808e0151828401526080808f015183860152606083018690528201859052810184905260c0810184905260e081018490526001610100820181905261012082018590526101408201859052610160820185905261018082018590526101a082018590526101c08201526101e0810184905273ffffffffffffffffffffffffffffffffffffffff8b1661020082015261022081018490528251848152918201909252909190879082612581565b61256e6040518060c00160405280600073ffffffffffffffffffffffffffffffffffffffff168152602001600073ffffffffffffffffffffffffffffffffffffffff168152602001600081526020016000815260200160008152602001600081525090565b8152602001906001900390816125095790505b508b6040518863ffffffff1660e01b81526004016125a597969594939291906140c2565b6020604051808303816000875af11580156125c4573d6000803e3d6000fd5b505050506040513d601f19601f820116820180604052508101906125e89190613c2f565b507f000000000000000000000000000000000000000000000000000000000000000073ffffffffffffffffffffffffffffffffffffffff16638ae9c07b83601288602001516126379190613dcc565b8c8a60405160200161264991906141e0565b6040516020818303038152906040526000806040518763ffffffff1660e01b815260040161267c96959493929190614225565b6020604051808303816000875af115801561269b573d6000803e3d6000fd5b505050506040513d601f19601f820116820180604052508101906126bf9190613c2f565b507f000000000000000000000000000000000000000000000000000000000000000073ffffffffffffffffffffffffffffffffffffffff16632bdfe0046040518163ffffffff1660e01b8152600401602060405180830381865afa15801561272b573d6000803e3d6000fd5b505050506040513d601f19601f8201168201806040525081019061274f9190613b95565b73ffffffffffffffffffffffffffffffffffffffff1663ad007d636040518163ffffffff1660e01b8152600401602060405180830381865afa158015612799573d6000803e3d6000fd5b505050506040513d601f19601f820116820180604052508101906127bd9190613b95565b73ffffffffffffffffffffffffffffffffffffffff1663529cdd2e60405180606001604052808c73ffffffffffffffffffffffffffffffffffffffff168152602001858152602001600080548060200260200160405190810160405280929190818152602001828054801561285157602002820191906000526020600020905b81548152602001906001019080831161283d575b50505050508152506040518263ffffffff1660e01b8152600401612875919061427a565b600060405180830381600087803b15801561288f57600080fd5b505af11580156128a3573d6000803e3d6000fd5b50505060c08601516128be915065ffffffffffff16426142eb565b60008381526001602052604090205550979650505050505050565b6000602082840312156128eb57600080fd5b81357fffffffff000000000000000000000000000000000000000000000000000000008116811461291b57600080fd5b9392505050565b73ffffffffffffffffffffffffffffffffffffffff8116811461294457600080fd5b50565b803561295281612922565b919050565b60008060008060006080868803121561296f57600080fd5b853561297a81612922565b9450602086013561298a81612922565b935060408601359250606086013567ffffffffffffffff808211156129ae57600080fd5b818801915088601f8301126129c257600080fd5b8135818111156129d157600080fd5b8960208285010111156129e357600080fd5b9699959850939650602001949392505050565b7f4e487b7100000000000000000000000000000000000000000000000000000000600052604160045260246000fd5b6040516060810167ffffffffffffffff81118282101715612a4857612a486129f6565b60405290565b6040516080810167ffffffffffffffff81118282101715612a4857612a486129f6565b604051610160810167ffffffffffffffff81118282101715612a4857612a486129f6565b60405160c0810167ffffffffffffffff81118282101715612a4857612a486129f6565b604051610240810167ffffffffffffffff81118282101715612a4857612a486129f6565b604051610120810167ffffffffffffffff81118282101715612a4857612a486129f6565b604051601f82017fffffffffffffffffffffffffffffffffffffffffffffffffffffffffffffffe016810167ffffffffffffffff81118282101715612b4757612b476129f6565b604052919050565b600067ffffffffffffffff821115612b6957612b696129f6565b50601f017fffffffffffffffffffffffffffffffffffffffffffffffffffffffffffffffe01660200190565b6000612ba8612ba384612b4f565b612b00565b9050828152838383011115612bbc57600080fd5b828260208301376000602084830101529392505050565b600082601f830112612be457600080fd5b61291b83833560208501612b95565b600060408284031215612c0557600080fd5b6040516040810167ffffffffffffffff8282108183111715612c2957612c296129f6565b816040528293508435915080821115612c4157600080fd5b50612c4e85828601612bd3565b825250602083013560208201525092915050565b803565ffffffffffff8116811461295257600080fd5b803562ffffff8116811461295257600080fd5b6000610100808385031215612c9f57600080fd5b6040519081019067ffffffffffffffff82118183101715612cc257612cc26129f6565b81604052809250833581526020840135602082015260408401356040820152606084013560608201526080840135608082015260a084013560a0820152612d0b60c08501612c62565b60c0820152612d1c60e08501612c78565b60e0820152505092915050565b600067ffffffffffffffff821115612d4357612d436129f6565b5060051b60200190565b600082601f830112612d5e57600080fd5b81356020612d6e612ba383612d29565b82815260059290921b84018101918181019086841115612d8d57600080fd5b8286015b84811015612db1578035612da481612922565b8352918301918301612d91565b509695505050505050565b600082601f830112612dcd57600080fd5b81356020612ddd612ba383612d29565b82815260059290921b84018101918181019086841115612dfc57600080fd5b8286015b84811015612db157803567ffffffffffffffff80821115612e215760008081fd5b81890191506060807fffffffffffffffffffffffffffffffffffffffffffffffffffffffffffffffe0848d03011215612e5a5760008081fd5b612e62612a25565b87840135612e6f81612922565b815260408481013589830152918401359183831115612e8e5760008081fd5b82850194508c603f860112612ea557600093508384fd5b612eb58d8a870135838801612b95565b908201528652505050918301918301612e00565b803560ff8116811461295257600080fd5b60008060008060008060008060006102008a8c031215612ef957600080fd5b612f028a612947565b985060208a013567ffffffffffffffff80821115612f1f57600080fd5b612f2b8d838e01612bf3565b995060408c0135915080821115612f4157600080fd5b612f4d8d838e01612bd3565b985060608c0135915080821115612f6357600080fd5b612f6f8d838e01612bd3565b9750612f7e8d60808e01612c8b565b96506101808c0135915080821115612f9557600080fd5b612fa18d838e01612d4d565b9550612fb06101a08d01612947565b94506101c08c0135915080821115612fc757600080fd5b50612fd48c828d01612dbc565b925050612fe46101e08b01612ec9565b90509295985092959850929598565b60006020828403121561300557600080fd5b5035919050565b80356cffffffffffffffffffffffffff8116811461295257600080fd5b803563ffffffff8116811461295257600080fd5b803561ffff8116811461295257600080fd5b801515811461294457600080fd5b80356129528161304f565b6000608080838503121561307b57600080fd5b613083612a4e565b9150823567ffffffffffffffff81111561309c57600080fd5b8301601f810185136130ad57600080fd5b803560206130bd612ba383612d29565b82815261016092830284018201928282019190898511156130dd57600080fd5b948301945b848610156131be5780868b0312156130fa5760008081fd5b613102612a71565b61310b8761300c565b8152613118858801613029565b858201526040613129818901613029565b90820152606061313a88820161303d565b90820152613149878901612947565b8189015260a0878101359082015260c0613164818901612c78565b9082015260e061317588820161305d565b9082015261010061318788820161305d565b9082015261012061319988820161305d565b908201526101406131ab88820161305d565b90820152835294850194918301916130e2565b508652506131cd868201612c62565b81860152505050506131e160408301612c62565b60408201526131f260608301612947565b606082015292915050565b60006080828403121561320f57600080fd5b613217612a4e565b905081356132248161304f565b815260208201356132348161304f565b602082015260408201356132478161304f565b604082015260608201356131f28161304f565b80356002811061295257600080fd5b60006101c0828403121561327c57600080fd5b613284612a71565b9050813567ffffffffffffffff8082111561329e57600080fd5b6132aa85838601612bd3565b835260208401359150808211156132c057600080fd5b6132cc85838601612bd3565b60208401526132dd60408501612947565b604084015260608401359150808211156132f657600080fd5b61330285838601612bd3565b606084015261331360808501612947565b608084015260a084013591508082111561332c57600080fd5b61333885838601612bd3565b60a084015260c084013591508082111561335157600080fd5b5061335e84828501613068565b60c08301525061337060e08301612947565b60e0820152610100613383818401612947565b90820152610120613396848483016131fd565b908201526133a76101a0830161325a565b61014082015292915050565b600082601f8301126133c457600080fd5b813560206133d4612ba383612d29565b828152600592831b85018201928282019190878511156133f357600080fd5b8387015b8581101561352f57803567ffffffffffffffff808211156134185760008081fd5b818a01915060c0807fffffffffffffffffffffffffffffffffffffffffffffffffffffffffffffffe0848e030112156134515760008081fd5b613459612a95565b8884013561346681612922565b808252506040808501358a830152606080860135828401526080808701358285015260a09150818701358185015250838601359350848411156134a95760008081fd5b83860195508e603f8701126134c057600094508485fd5b8a86013594506134d2612ba386612d29565b85815294881b86018201948b810194508f8611156134f05760008081fd5b958201955b8587101561351a578635925061350a83612922565b828552958b0195938b01936134f5565b908301525087525050509284019284016133f7565b5090979650505050505050565b60008060008060008060008060008060006102408c8e03121561355e57600080fd5b6135678c612947565b9a5067ffffffffffffffff8060208e0135111561358357600080fd5b6135938e60208f01358f01612bf3565b9a508060408e013511156135a657600080fd5b6135b68e60408f01358f01612bd3565b99508060608e013511156135c957600080fd5b6135d98e60608f01358f01612bd3565b98506135e88e60808f01612c8b565b9750806101808e013511156135fc57600080fd5b61360d8e6101808f01358f01612d4d565b965061361c6101a08e01612947565b9550806101c08e0135111561363057600080fd5b6136418e6101c08f01358f01613269565b9450806101e08e0135111561365557600080fd5b6136668e6101e08f01358f01612dbc565b93506136756102008e01612ec9565b9250806102208e0135111561368957600080fd5b5061369b8d6102208e01358e016133b3565b90509295989b509295989b9093969950565b6000602082840312156136bf57600080fd5b813567ffffffffffffffff8111156136d657600080fd5b82016101e0818503121561291b57600080fd5b60005b838110156137045781810151838201526020016136ec565b50506000910152565b600081518084526137258160208601602086016136e9565b601f017fffffffffffffffffffffffffffffffffffffffffffffffffffffffffffffffe0169290920160200192915050565b60006060858352602081818501526137718285018761370d565b6040858203818701528187518084528484019150848160051b850101858a0160005b8381101561380e578683037fffffffffffffffffffffffffffffffffffffffffffffffffffffffffffffffe00185528151805173ffffffffffffffffffffffffffffffffffffffff16845288810151898501528601518684018a90526137fb8a85018261370d565b9589019593505090870190600101613793565b50909c9b505050505050505050505050565b6000806040838503121561383357600080fd5b50508035926020909101359150565b73ffffffffffffffffffffffffffffffffffffffff84168152826020820152606060408201526000613877606083018461370d565b95945050505050565b6000806000806000806000806000806102208b8d0312156138a057600080fd5b6138a98b612947565b995060208b013567ffffffffffffffff808211156138c657600080fd5b6138d28e838f01612bf3565b9a5060408d01359150808211156138e857600080fd5b6138f48e838f01612bd3565b995060608d013591508082111561390a57600080fd5b6139168e838f01612bd3565b98506139258e60808f01612c8b565b97506101808d013591508082111561393c57600080fd5b6139488e838f01612d4d565b96506139576101a08e01612947565b95506101c08d013591508082111561396e57600080fd5b61397a8e838f01613269565b94506101e08d013591508082111561399157600080fd5b5061399e8d828e01612dbc565b9250506139ae6102008c01612ec9565b90509295989b9194979a5092959850565b6000602082840312156139d157600080fd5b813567ffffffffffffffff8111156139e857600080fd5b82016101a0818503121561291b57600080fd5b6000606085835260208181850152613a158285018761370d565b6040858203818701528187518084528484019150848160051b850101858a0160005b8381101561380e578683037fffffffffffffffffffffffffffffffffffffffffffffffffffffffffffffffe00185528151805173ffffffffffffffffffffffffffffffffffffffff16845288810151898501528601518684018a9052613a9f8a85018261370d565b9589019593505090870190600101613a37565b60008060008060008060006101c0888a031215613ace57600080fd5b613ad788612947565b9650602088013567ffffffffffffffff80821115613af457600080fd5b613b008b838c01612bf3565b975060408a0135915080821115613b1657600080fd5b613b228b838c01612bd3565b965060608a0135915080821115613b3857600080fd5b613b448b838c01612bd3565b9550613b538b60808c01612c8b565b94506101808a0135915080821115613b6a57600080fd5b50613b778a828b01612d4d565b925050613b876101a08901612947565b905092959891949750929550565b600060208284031215613ba757600080fd5b815161291b81612922565b7f4e487b7100000000000000000000000000000000000000000000000000000000600052603260045260246000fd5b73ffffffffffffffffffffffffffffffffffffffff831681526040602082015260008251604080840152613c18608084018261370d565b905060208401516060840152809150509392505050565b600060208284031215613c4157600080fd5b5051919050565b838152606060208201526000613c61606083018561370d565b8281036040840152613c73818561370d565b9695505050505050565b7f4e487b7100000000000000000000000000000000000000000000000000000000600052601160045260246000fd5b600181815b80851115613d0557817fffffffffffffffffffffffffffffffffffffffffffffffffffffffffffffffff04821115613ceb57613ceb613c7d565b80851615613cf857918102915b93841c9390800290613cb1565b509250929050565b600082613d1c57506001610445565b81613d2957506000610445565b8160018114613d3f5760028114613d4957613d65565b6001915050610445565b60ff841115613d5a57613d5a613c7d565b50506001821b610445565b5060208310610133831016604e8410600b8410161715613d88575081810a610445565b613d928383613cac565b807fffffffffffffffffffffffffffffffffffffffffffffffffffffffffffffffff04821115613dc457613dc4613c7d565b029392505050565b600061291b60ff841683613d0d565b613e008282518051151582526020808201511515908301526040908101511515910152565b6020810151606083015260408101516080830152606081015160a08301526080810151613e3160c084018215159052565b5060a081015180151560e08401525060c0810151610100613e558185018315159052565b60e08301519150610120613e6c8186018415159052565b90830151915061014090613e838583018415159052565b8301519150610160613e988582018415159052565b90830151915061018090613eaf8583018415159052565b83015191506101a0613ec48582018415159052565b9083015191506101c090613edb8583018415159052565b83015191506101e0613ef08582018415159052565b90830151915061020090613f078583018415159052565b8301519150610220613f1c8582018415159052565b9083015173ffffffffffffffffffffffffffffffffffffffff16610240850152909101516102609092019190915250565b600081518084526020808501808196508360051b810191508286016000805b8681101561402c578385038a52825180518652860151604087870181905281518188018190529188019160609081890190865b818110156140155785518051151584528c81015115158d8501528581015186850152848101518585015260808082015173ffffffffffffffffffffffffffffffffffffffff9081169186019190915260a0808301519086015260c0918201511690840152948b019460e090920191600101613f9f565b50509c89019c975050509286019250600101613f6c565b509298975050505050505050565b600081518084526020808501945080840160005b838110156140b7578151805173ffffffffffffffffffffffffffffffffffffffff908116895284820151168489015260408082015190890152606080820151908901526080808201519089015260a0908101519088015260c0909601959082019060010161404e565b509495945050505050565b60006103c0898352602061410f8185018b80518252602081015160208301526040810151604083015273ffffffffffffffffffffffffffffffffffffffff60608201511660608301525050565b61411c60a085018a613ddb565b876103208501528161034085015261413682850188613f4d565b915083820361036085015261414b828761403a565b848103610380860152855180825282870193509082019060005b8181101561419757845173ffffffffffffffffffffffffffffffffffffffff1683529383019391830191600101614165565b50508481036103a0860152601b81527f4465706c6f7965642052657461696c69737420747265617375727900000000006020820152604081019c9b505050505050505050505050565b7f5072656d696e746564202400000000000000000000000000000000000000000081526000825161421881600b8501602087016136e9565b91909101600b0192915050565b86815285602082015273ffffffffffffffffffffffffffffffffffffffff8516604082015260c06060820152600061426060c083018661370d565b93151560808301525090151560a090910152949350505050565b600060208083526080830173ffffffffffffffffffffffffffffffffffffffff85511682850152818501516040850152604085015160608086015281815180845260a0870191508483019350600092505b80831015612db157835182529284019260019290920191908401906142cb565b8082018082111561044557610445613c7d565b600181811c9082168061431257607f821691505b60208210810361434b577f4e487b7100000000000000000000000000000000000000000000000000000000600052602260045260246000fd5b50919050565b601f82111561439b57600081815260208120601f850160051c810160208610156143785750805b601f850160051c820191505b8181101561439757828155600101614384565b5050505b505050565b815167ffffffffffffffff8111156143ba576143ba6129f6565b6143ce816143c884546142fe565b84614351565b602080601f83116001811461442157600084156143eb5750858301515b7fffffffffffffffffffffffffffffffffffffffffffffffffffffffffffffffff600386901b1c1916600185901b178555614397565b6000858152602081207fffffffffffffffffffffffffffffffffffffffffffffffffffffffffffffffe08616915b8281101561446e5788860151825594840194600190910190840161444f565b50858210156144aa57878501517fffffffffffffffffffffffffffffffffffffffffffffffffffffffffffffffff600388901b60f8161c191681555b5050505050600190811b01905550565b805161295281612922565b80516129528161304f565b6000606082840312156144e257600080fd5b6144ea612a25565b905081516144f78161304f565b815260208201516145078161304f565b6020820152604082015161451a8161304f565b604082015292915050565b6000610280828403121561453857600080fd5b614540612ab8565b905061454c83836144d0565b8152606082015160208201526080820151604082015260a0820151606082015261457860c083016144c5565b608082015261458960e083016144c5565b60a082015261010061459c8184016144c5565b60c08301526101206145af8185016144c5565b60e08401526101406145c28186016144c5565b8385015261016092506145d68386016144c5565b8285015261018091506145ea8286016144c5565b908401526101a06145fc8582016144c5565b838501526101c092506146108386016144c5565b828501526101e091506146248286016144c5565b908401526102006146368582016144c5565b83850152610220925061464a8386016144c5565b8285015261465b61024086016144ba565b818501525050610260830151818301525092915050565b80516003811061295257600080fd5b60008060008385036103c081121561469857600080fd5b610120808212156146a857600080fd5b6146b0612adc565b9150855182526020860151602083015260408601516040830152606086015160608301526080860151608083015260a086015160a083015260c086015160c08301526146fe60e087016144ba565b60e083015261010080870151818401525081945061471e87828801614525565b9350505061472f6103a08501614672565b90509250925092565b60006103a0888352614784602084018980518252602081015160208301526040810151604083015273ffffffffffffffffffffffffffffffffffffffff60608201511660608301525050565b61479160a0840188613ddb565b85610320840152806103408401526147ab81840186613f4d565b90508281036103608401526147c0818561403a565b838103610380909401939093525050602c81527f5363686564756c656420626f6f737420657870697279206f662052657461696c60208201527f697374207472656173757279000000000000000000000000000000000000000060408201526060019695505050505050565b6000604080830185845260208281860152818651808452606093508387019150838160051b8801018389016000805b84811015614923578a84037fffffffffffffffffffffffffffffffffffffffffffffffffffffffffffffffa00186528251805173ffffffffffffffffffffffffffffffffffffffff908116865288820151898701528a8201518b870152898201518a8701526080808301519087015260a09182015160c0928701839052805192870183905289019160e087019185915b8083101561490d57845182168452938b0193928b0192600192909201916148eb565b505050968801969450509186019160010161485b565b50919b9a5050505050505050505050565b80516080808452815184820181905260009260a0916020918201918388019190865b82811015614a1957845180516cffffffffffffffffffffffffff1685528281015163ffffffff908116848701526040808301519091169086015260608082015161ffff16908601528781015173ffffffffffffffffffffffffffffffffffffffff1688860152868101518786015260c08082015162ffffff169086015260e0808201511515908601526101008082015115159086015261012080820151151590860152610140908101511515908501529381019361016090930192600101614956565b508781015165ffffffffffff81168a8301529550505060408601519350614a4a604088018565ffffffffffff169052565b60608601519350613c73606088018573ffffffffffffffffffffffffffffffffffffffff169052565b60028110614aaa577f4e487b7100000000000000000000000000000000000000000000000000000000600052602160045260246000fd5b9052565b82815260406020820152600082516101c06040840152614ad261020084018261370d565b905060208401517fffffffffffffffffffffffffffffffffffffffffffffffffffffffffffffffc080858403016060860152614b0e838361370d565b925060408601519150614b39608086018373ffffffffffffffffffffffffffffffffffffffff169052565b60608601519150808584030160a0860152614b54838361370d565b925060808601519150614b7f60c086018373ffffffffffffffffffffffffffffffffffffffff169052565b60a08601519150808584030160e0860152614b9a838361370d565b925060c08601519150610100818685030181870152614bb98484614934565b935060e087015192506101209150614be88287018473ffffffffffffffffffffffffffffffffffffffff169052565b8601519150610140614c118682018473ffffffffffffffffffffffffffffffffffffffff169052565b908601518051151561016087015260208101511515610180870152604081015115156101a08701526060015115156101c08601528501519050614c586101e0850182614a73565b50949350505050565b8035614c6c81612922565b73ffffffffffffffffffffffffffffffffffffffff1682526020818101359083015260408082013590830152606090810135910152565b60008083357fffffffffffffffffffffffffffffffffffffffffffffffffffffffffffffffe1843603018112614cd857600080fd5b830160208101925035905067ffffffffffffffff811115614cf857600080fd5b803603821315614d0757600080fd5b9250929050565b8183528181602085013750600060208284010152600060207fffffffffffffffffffffffffffffffffffffffffffffffffffffffffffffffe0601f840116840101905092915050565b60208152614d8560208201614d6b84612947565b73ffffffffffffffffffffffffffffffffffffffff169052565b6000614d9360208401612947565b73ffffffffffffffffffffffffffffffffffffffff8116604084015250614dc06060830160408501614c61565b60c083013560e083015261010060e084013581840152614de1818501612947565b9050610120614e078185018373ffffffffffffffffffffffffffffffffffffffff169052565b61014091508085013582850152506101608185013581850152614e2c81860186614ca3565b925090506101a06101808181870152614e4a6101c087018585614d0e565b9350614e5881880188614ca3565b935090507fffffffffffffffffffffffffffffffffffffffffffffffffffffffffffffffe08685030182870152614e90848483614d0e565b979650505050505050565b6000614ea9612ba384612b4f565b9050828152838383011115614ebd57600080fd5b61291b8360208301846136e9565b600080600060608486031215614ee057600080fd5b8351925060208085015167ffffffffffffffff80821115614f0057600080fd5b818701915087601f830112614f1457600080fd5b614f22888351858501614e9b565b94506040870151915080821115614f3857600080fd5b818701915087601f830112614f4c57600080fd5b8151614f5a612ba382612d29565b81815260059190911b8301840190848101908a831115614f7957600080fd5b8585015b8381101561503357805185811115614f9457600080fd5b86016060818e037fffffffffffffffffffffffffffffffffffffffffffffffffffffffffffffffe0011215614fc857600080fd5b614fd0612a25565b88820151614fdd81612922565b8152604082015189820152606082015187811115614ffa57600080fd5b8083019250508d603f83011261500f57600080fd5b6150208e8a84015160408501614e9b565b6040820152845250918601918601614f7d565b508096505050505050509250925092565b60008083357fffffffffffffffffffffffffffffffffffffffffffffffffffffffffffffffe184360301811261507957600080fd5b83018035915067ffffffffffffffff82111561509457600080fd5b602001915036819003821315614d0757600080fdfea26469706673582212207a75e2bcb55261c92faaf0aee1ded83993ac3f31b2a0b0c7a571d2da7b5df4db64736f6c63430008150033",
    "linkReferences": {}
  },
  "methodIdentifiers": {
    "buybackDelegateDataSourceOf(uint256)": "ef8eadd5",
    "controller()": "f77c4791",
    "croptopPermissionIndexes(uint256)": "42921698",
    "delegateAllocationsOf(uint256,uint256)": "abc603e3",
    "delegateDeployer()": "8f3d964b",
    "deployBasicProjectFor(address,(string,uint256),string,string,(uint256,uint256,uint256,uint256,uint256,uint256,uint48,uint24),address[],address)": "d87b09e3",
    "deployCroptopTiered721PayAllocatorProjectFor(address,(string,uint256),string,string,(uint256,uint256,uint256,uint256,uint256,uint256,uint48,uint24),address[],address,(string,string,address,string,address,string,((uint104,uint32,uint32,uint16,address,bytes32,uint24,bool,bool,bool,bool)[],uint48,uint48,address),address,address,(bool,bool,bool,bool),uint8),(address,uint256,bytes)[],uint8,(address,uint256,uint256,uint256,uint256,address[])[])": "42f6c2fe",
    "deployPayAllocatorProjectFor(address,(string,uint256),string,string,(uint256,uint256,uint256,uint256,uint256,uint256,uint48,uint24),address[],address,(address,uint256,bytes)[],uint8)": "1f84209a",
    "deployTiered721PayAllocatorProjectFor(address,(string,uint256),string,string,(uint256,uint256,uint256,uint256,uint256,uint256,uint48,uint24),address[],address,(string,string,address,string,address,string,((uint104,uint32,uint32,uint16,address,bytes32,uint24,bool,bool,bool,bool)[],uint48,uint48,address),address,address,(bool,bool,bool,bool),uint8),(address,uint256,bytes)[],uint8)": "cc28d77f",
    "directory()": "c41c2f24",
    "onERC721Received(address,address,uint256,bytes)": "150b7a02",
    "payParams((address,address,(address,uint256,uint256,uint256),uint256,uint256,address,uint256,uint256,string,bytes))": "d46cf171",
    "permissionIndexes(uint256)": "9483e771",
    "publisher()": "8c72c54e",
    "reconfigurationStartTimestampOf(uint256)": "560f7b03",
    "redeemParams((address,address,uint256,uint256,uint256,uint256,uint256,(address,uint256,uint256,uint256),bool,uint256,string,bytes))": "a51cfd18",
    "scheduleReconfigurationOf(uint256)": "3ce6d3e2",
    "supportsInterface(bytes4)": "01ffc9a7"
  },
  "id": 88
}