{
  "abi": [
    {
      "inputs": [
        {
          "internalType": "contract CroptopPublisher",
          "name": "_publisher",
          "type": "address"
        },
        {
          "internalType": "contract IJBDirectory",
          "name": "_directory",
          "type": "address"
        },
        {
          "internalType": "contract IJBTiered721DelegateDeployer",
          "name": "_delegateDeployer",
          "type": "address"
        },
        {
          "internalType": "contract IJBController3_1",
          "name": "_controller",
          "type": "address"
        },
        {
          "internalType": "contract IJBPayoutRedemptionPaymentTerminal3_1_1",
          "name": "_terminal",
          "type": "address"
        }
      ],
      "stateMutability": "nonpayable",
      "type": "constructor"
    },
    {
      "inputs": [],
      "name": "RECONFIGURATION_ALREADY_SCHEDULED",
      "type": "error"
    },
    {
      "inputs": [
        {
          "internalType": "uint256",
          "name": "",
          "type": "uint256"
        }
      ],
      "name": "buybackDelegateDataSourceOf",
      "outputs": [
        {
          "internalType": "contract IJBFundingCycleDataSource3_1_1",
          "name": "",
          "type": "address"
        }
      ],
      "stateMutability": "view",
      "type": "function"
    },
    {
      "inputs": [],
      "name": "controller",
      "outputs": [
        {
          "internalType": "contract IJBController3_1",
          "name": "",
          "type": "address"
        }
      ],
      "stateMutability": "view",
      "type": "function"
    },
    {
      "inputs": [
        {
          "internalType": "uint256",
          "name": "",
          "type": "uint256"
        }
      ],
      "name": "croptopPermissionIndexes",
      "outputs": [
        {
          "internalType": "uint256",
          "name": "",
          "type": "uint256"
        }
      ],
      "stateMutability": "view",
      "type": "function"
    },
    {
      "inputs": [
        {
          "internalType": "uint256",
          "name": "",
          "type": "uint256"
        },
        {
          "internalType": "uint256",
          "name": "",
          "type": "uint256"
        }
      ],
      "name": "delegateAllocationsOf",
      "outputs": [
        {
          "internalType": "contract IJBPayDelegate3_1_1",
          "name": "delegate",
          "type": "address"
        },
        {
          "internalType": "uint256",
          "name": "amount",
          "type": "uint256"
        },
        {
          "internalType": "bytes",
          "name": "metadata",
          "type": "bytes"
        }
      ],
      "stateMutability": "view",
      "type": "function"
    },
    {
      "inputs": [],
      "name": "delegateDeployer",
      "outputs": [
        {
          "internalType": "contract IJBTiered721DelegateDeployer",
          "name": "",
          "type": "address"
        }
      ],
      "stateMutability": "view",
      "type": "function"
    },
    {
      "inputs": [
        {
          "internalType": "address",
          "name": "_operator",
          "type": "address"
        },
        {
          "components": [
            {
              "internalType": "string",
              "name": "content",
              "type": "string"
            },
            {
              "internalType": "uint256",
              "name": "domain",
              "type": "uint256"
            }
          ],
          "internalType": "struct JBProjectMetadata",
          "name": "_projectMetadata",
          "type": "tuple"
        },
        {
          "internalType": "string",
          "name": "_name",
          "type": "string"
        },
        {
          "internalType": "string",
          "name": "_symbol",
          "type": "string"
        },
        {
          "components": [
            {
              "internalType": "uint256",
              "name": "initialIssuanceRate",
              "type": "uint256"
            },
            {
              "internalType": "uint256",
              "name": "premintTokenAmount",
              "type": "uint256"
            },
            {
              "internalType": "uint256",
              "name": "discountRate",
              "type": "uint256"
            },
            {
              "internalType": "uint256",
              "name": "cycleDurations",
              "type": "uint256"
            },
            {
              "internalType": "uint256",
              "name": "redemptionRate",
              "type": "uint256"
            },
            {
              "internalType": "uint256",
              "name": "reservedRate",
              "type": "uint256"
            },
            {
              "internalType": "uint48",
              "name": "reservedRateDuration",
              "type": "uint48"
            }
          ],
          "internalType": "struct BasicRetailistJBParams",
          "name": "_data",
          "type": "tuple"
        }
      ],
      "name": "deployBasicProjectFor",
      "outputs": [
        {
          "internalType": "uint256",
          "name": "projectId",
          "type": "uint256"
        }
      ],
      "stateMutability": "nonpayable",
      "type": "function"
    },
    {
      "inputs": [
        {
          "internalType": "address",
          "name": "_operator",
          "type": "address"
        },
        {
          "components": [
            {
              "internalType": "string",
              "name": "content",
              "type": "string"
            },
            {
              "internalType": "uint256",
              "name": "domain",
              "type": "uint256"
            }
          ],
          "internalType": "struct JBProjectMetadata",
          "name": "_projectMetadata",
          "type": "tuple"
        },
        {
          "internalType": "string",
          "name": "_name",
          "type": "string"
        },
        {
          "internalType": "string",
          "name": "_symbol",
          "type": "string"
        },
        {
          "components": [
            {
              "internalType": "uint256",
              "name": "initialIssuanceRate",
              "type": "uint256"
            },
            {
              "internalType": "uint256",
              "name": "premintTokenAmount",
              "type": "uint256"
            },
            {
              "internalType": "uint256",
              "name": "discountRate",
              "type": "uint256"
            },
            {
              "internalType": "uint256",
              "name": "cycleDurations",
              "type": "uint256"
            },
            {
              "internalType": "uint256",
              "name": "redemptionRate",
              "type": "uint256"
            },
            {
              "internalType": "uint256",
              "name": "reservedRate",
              "type": "uint256"
            },
            {
              "internalType": "uint48",
              "name": "reservedRateDuration",
              "type": "uint48"
            }
          ],
          "internalType": "struct BasicRetailistJBParams",
          "name": "_data",
          "type": "tuple"
        },
        {
          "components": [
            {
              "internalType": "string",
              "name": "name",
              "type": "string"
            },
            {
              "internalType": "string",
              "name": "symbol",
              "type": "string"
            },
            {
              "internalType": "contract IJBFundingCycleStore",
              "name": "fundingCycleStore",
              "type": "address"
            },
            {
              "internalType": "string",
              "name": "baseUri",
              "type": "string"
            },
            {
              "internalType": "contract IJB721TokenUriResolver",
              "name": "tokenUriResolver",
              "type": "address"
            },
            {
              "internalType": "string",
              "name": "contractUri",
              "type": "string"
            },
            {
              "components": [
                {
                  "components": [
                    {
                      "internalType": "uint104",
                      "name": "price",
                      "type": "uint104"
                    },
                    {
                      "internalType": "uint32",
                      "name": "initialQuantity",
                      "type": "uint32"
                    },
                    {
                      "internalType": "uint32",
                      "name": "votingUnits",
                      "type": "uint32"
                    },
                    {
                      "internalType": "uint16",
                      "name": "reservedRate",
                      "type": "uint16"
                    },
                    {
                      "internalType": "address",
                      "name": "reservedTokenBeneficiary",
                      "type": "address"
                    },
                    {
                      "internalType": "bytes32",
                      "name": "encodedIPFSUri",
                      "type": "bytes32"
                    },
                    {
                      "internalType": "uint24",
                      "name": "category",
                      "type": "uint24"
                    },
                    {
                      "internalType": "bool",
                      "name": "allowManualMint",
                      "type": "bool"
                    },
                    {
                      "internalType": "bool",
                      "name": "shouldUseReservedTokenBeneficiaryAsDefault",
                      "type": "bool"
                    },
                    {
                      "internalType": "bool",
                      "name": "transfersPausable",
                      "type": "bool"
                    },
                    {
                      "internalType": "bool",
                      "name": "useVotingUnits",
                      "type": "bool"
                    }
                  ],
                  "internalType": "struct JB721TierParams[]",
                  "name": "tiers",
                  "type": "tuple[]"
                },
                {
                  "internalType": "uint48",
                  "name": "currency",
                  "type": "uint48"
                },
                {
                  "internalType": "uint48",
                  "name": "decimals",
                  "type": "uint48"
                },
                {
                  "internalType": "contract IJBPrices",
                  "name": "prices",
                  "type": "address"
                }
              ],
              "internalType": "struct JB721PricingParams",
              "name": "pricing",
              "type": "tuple"
            },
            {
              "internalType": "address",
              "name": "reservedTokenBeneficiary",
              "type": "address"
            },
            {
              "internalType": "contract IJBTiered721DelegateStore",
              "name": "store",
              "type": "address"
            },
            {
              "components": [
                {
                  "internalType": "bool",
                  "name": "lockReservedTokenChanges",
                  "type": "bool"
                },
                {
                  "internalType": "bool",
                  "name": "lockVotingUnitChanges",
                  "type": "bool"
                },
                {
                  "internalType": "bool",
                  "name": "lockManualMintingChanges",
                  "type": "bool"
                },
                {
                  "internalType": "bool",
                  "name": "preventOverspending",
                  "type": "bool"
                }
              ],
              "internalType": "struct JBTiered721Flags",
              "name": "flags",
              "type": "tuple"
            },
            {
              "internalType": "enum JB721GovernanceType",
              "name": "governanceType",
              "type": "uint8"
            }
          ],
          "internalType": "struct JBDeployTiered721DelegateData",
          "name": "_deployTiered721DelegateData",
          "type": "tuple"
        },
        {
          "components": [
            {
              "internalType": "contract IJBPayDelegate3_1_1",
              "name": "delegate",
              "type": "address"
            },
            {
              "internalType": "uint256",
              "name": "amount",
              "type": "uint256"
            },
            {
              "internalType": "bytes",
              "name": "metadata",
              "type": "bytes"
            }
          ],
          "internalType": "struct JBPayDelegateAllocation3_1_1[]",
          "name": "_otherDelegateAllocations",
          "type": "tuple[]"
        },
        {
          "internalType": "uint8",
          "name": "_extraFundingCycleMetadata",
          "type": "uint8"
        },
        {
          "components": [
            {
              "internalType": "address",
              "name": "nft",
              "type": "address"
            },
            {
              "internalType": "uint256",
              "name": "category",
              "type": "uint256"
            },
            {
              "internalType": "uint256",
              "name": "minimumPrice",
              "type": "uint256"
            },
            {
              "internalType": "uint256",
              "name": "minimumTotalSupply",
              "type": "uint256"
            },
            {
              "internalType": "uint256",
              "name": "maximumTotalSupply",
              "type": "uint256"
            },
            {
              "internalType": "address[]",
              "name": "allowedAddresses",
              "type": "address[]"
            }
          ],
          "internalType": "struct AllowedPost[]",
          "name": "_allowedPosts",
          "type": "tuple[]"
        }
      ],
      "name": "deployCroptopTiered721PayAllocatorProjectFor",
      "outputs": [
        {
          "internalType": "uint256",
          "name": "projectId",
          "type": "uint256"
        }
      ],
      "stateMutability": "nonpayable",
      "type": "function"
    },
    {
      "inputs": [
        {
          "internalType": "address",
          "name": "_operator",
          "type": "address"
        },
        {
          "components": [
            {
              "internalType": "string",
              "name": "content",
              "type": "string"
            },
            {
              "internalType": "uint256",
              "name": "domain",
              "type": "uint256"
            }
          ],
          "internalType": "struct JBProjectMetadata",
          "name": "_projectMetadata",
          "type": "tuple"
        },
        {
          "internalType": "string",
          "name": "_name",
          "type": "string"
        },
        {
          "internalType": "string",
          "name": "_symbol",
          "type": "string"
        },
        {
          "components": [
            {
              "internalType": "uint256",
              "name": "initialIssuanceRate",
              "type": "uint256"
            },
            {
              "internalType": "uint256",
              "name": "premintTokenAmount",
              "type": "uint256"
            },
            {
              "internalType": "uint256",
              "name": "discountRate",
              "type": "uint256"
            },
            {
              "internalType": "uint256",
              "name": "cycleDurations",
              "type": "uint256"
            },
            {
              "internalType": "uint256",
              "name": "redemptionRate",
              "type": "uint256"
            },
            {
              "internalType": "uint256",
              "name": "reservedRate",
              "type": "uint256"
            },
            {
              "internalType": "uint48",
              "name": "reservedRateDuration",
              "type": "uint48"
            }
          ],
          "internalType": "struct BasicRetailistJBParams",
          "name": "_data",
          "type": "tuple"
        },
        {
          "components": [
            {
              "internalType": "contract IJBPayDelegate3_1_1",
              "name": "delegate",
              "type": "address"
            },
            {
              "internalType": "uint256",
              "name": "amount",
              "type": "uint256"
            },
            {
              "internalType": "bytes",
              "name": "metadata",
              "type": "bytes"
            }
          ],
          "internalType": "struct JBPayDelegateAllocation3_1_1[]",
          "name": "_delegateAllocations",
          "type": "tuple[]"
        },
        {
          "internalType": "uint8",
          "name": "_extraFundingCycleMetadata",
          "type": "uint8"
        }
      ],
      "name": "deployPayAllocatorProjectFor",
      "outputs": [
        {
          "internalType": "uint256",
          "name": "projectId",
          "type": "uint256"
        }
      ],
      "stateMutability": "nonpayable",
      "type": "function"
    },
    {
      "inputs": [
        {
          "internalType": "address",
          "name": "_operator",
          "type": "address"
        },
        {
          "components": [
            {
              "internalType": "string",
              "name": "content",
              "type": "string"
            },
            {
              "internalType": "uint256",
              "name": "domain",
              "type": "uint256"
            }
          ],
          "internalType": "struct JBProjectMetadata",
          "name": "_projectMetadata",
          "type": "tuple"
        },
        {
          "internalType": "string",
          "name": "_name",
          "type": "string"
        },
        {
          "internalType": "string",
          "name": "_symbol",
          "type": "string"
        },
        {
          "components": [
            {
              "internalType": "uint256",
              "name": "initialIssuanceRate",
              "type": "uint256"
            },
            {
              "internalType": "uint256",
              "name": "premintTokenAmount",
              "type": "uint256"
            },
            {
              "internalType": "uint256",
              "name": "discountRate",
              "type": "uint256"
            },
            {
              "internalType": "uint256",
              "name": "cycleDurations",
              "type": "uint256"
            },
            {
              "internalType": "uint256",
              "name": "redemptionRate",
              "type": "uint256"
            },
            {
              "internalType": "uint256",
              "name": "reservedRate",
              "type": "uint256"
            },
            {
              "internalType": "uint48",
              "name": "reservedRateDuration",
              "type": "uint48"
            }
          ],
          "internalType": "struct BasicRetailistJBParams",
          "name": "_data",
          "type": "tuple"
        },
        {
          "components": [
            {
              "internalType": "string",
              "name": "name",
              "type": "string"
            },
            {
              "internalType": "string",
              "name": "symbol",
              "type": "string"
            },
            {
              "internalType": "contract IJBFundingCycleStore",
              "name": "fundingCycleStore",
              "type": "address"
            },
            {
              "internalType": "string",
              "name": "baseUri",
              "type": "string"
            },
            {
              "internalType": "contract IJB721TokenUriResolver",
              "name": "tokenUriResolver",
              "type": "address"
            },
            {
              "internalType": "string",
              "name": "contractUri",
              "type": "string"
            },
            {
              "components": [
                {
                  "components": [
                    {
                      "internalType": "uint104",
                      "name": "price",
                      "type": "uint104"
                    },
                    {
                      "internalType": "uint32",
                      "name": "initialQuantity",
                      "type": "uint32"
                    },
                    {
                      "internalType": "uint32",
                      "name": "votingUnits",
                      "type": "uint32"
                    },
                    {
                      "internalType": "uint16",
                      "name": "reservedRate",
                      "type": "uint16"
                    },
                    {
                      "internalType": "address",
                      "name": "reservedTokenBeneficiary",
                      "type": "address"
                    },
                    {
                      "internalType": "bytes32",
                      "name": "encodedIPFSUri",
                      "type": "bytes32"
                    },
                    {
                      "internalType": "uint24",
                      "name": "category",
                      "type": "uint24"
                    },
                    {
                      "internalType": "bool",
                      "name": "allowManualMint",
                      "type": "bool"
                    },
                    {
                      "internalType": "bool",
                      "name": "shouldUseReservedTokenBeneficiaryAsDefault",
                      "type": "bool"
                    },
                    {
                      "internalType": "bool",
                      "name": "transfersPausable",
                      "type": "bool"
                    },
                    {
                      "internalType": "bool",
                      "name": "useVotingUnits",
                      "type": "bool"
                    }
                  ],
                  "internalType": "struct JB721TierParams[]",
                  "name": "tiers",
                  "type": "tuple[]"
                },
                {
                  "internalType": "uint48",
                  "name": "currency",
                  "type": "uint48"
                },
                {
                  "internalType": "uint48",
                  "name": "decimals",
                  "type": "uint48"
                },
                {
                  "internalType": "contract IJBPrices",
                  "name": "prices",
                  "type": "address"
                }
              ],
              "internalType": "struct JB721PricingParams",
              "name": "pricing",
              "type": "tuple"
            },
            {
              "internalType": "address",
              "name": "reservedTokenBeneficiary",
              "type": "address"
            },
            {
              "internalType": "contract IJBTiered721DelegateStore",
              "name": "store",
              "type": "address"
            },
            {
              "components": [
                {
                  "internalType": "bool",
                  "name": "lockReservedTokenChanges",
                  "type": "bool"
                },
                {
                  "internalType": "bool",
                  "name": "lockVotingUnitChanges",
                  "type": "bool"
                },
                {
                  "internalType": "bool",
                  "name": "lockManualMintingChanges",
                  "type": "bool"
                },
                {
                  "internalType": "bool",
                  "name": "preventOverspending",
                  "type": "bool"
                }
              ],
              "internalType": "struct JBTiered721Flags",
              "name": "flags",
              "type": "tuple"
            },
            {
              "internalType": "enum JB721GovernanceType",
              "name": "governanceType",
              "type": "uint8"
            }
          ],
          "internalType": "struct JBDeployTiered721DelegateData",
          "name": "_deployTiered721DelegateData",
          "type": "tuple"
        },
        {
          "components": [
            {
              "internalType": "contract IJBPayDelegate3_1_1",
              "name": "delegate",
              "type": "address"
            },
            {
              "internalType": "uint256",
              "name": "amount",
              "type": "uint256"
            },
            {
              "internalType": "bytes",
              "name": "metadata",
              "type": "bytes"
            }
          ],
          "internalType": "struct JBPayDelegateAllocation3_1_1[]",
          "name": "_otherDelegateAllocations",
          "type": "tuple[]"
        },
        {
          "internalType": "uint8",
          "name": "_extraFundingCycleMetadata",
          "type": "uint8"
        }
      ],
      "name": "deployTiered721PayAllocatorProjectFor",
      "outputs": [
        {
          "internalType": "uint256",
          "name": "projectId",
          "type": "uint256"
        }
      ],
      "stateMutability": "nonpayable",
      "type": "function"
    },
    {
      "inputs": [],
      "name": "directory",
      "outputs": [
        {
          "internalType": "contract IJBDirectory",
          "name": "",
          "type": "address"
        }
      ],
      "stateMutability": "view",
      "type": "function"
    },
    {
      "inputs": [
        {
          "internalType": "address",
          "name": "_operator",
          "type": "address"
        },
        {
          "internalType": "address",
          "name": "_from",
          "type": "address"
        },
        {
          "internalType": "uint256",
          "name": "_tokenId",
          "type": "uint256"
        },
        {
          "internalType": "bytes",
          "name": "_data",
          "type": "bytes"
        }
      ],
      "name": "onERC721Received",
      "outputs": [
        {
          "internalType": "bytes4",
          "name": "",
          "type": "bytes4"
        }
      ],
      "stateMutability": "view",
      "type": "function"
    },
    {
      "inputs": [
        {
          "components": [
            {
              "internalType": "contract IJBPaymentTerminal",
              "name": "terminal",
              "type": "address"
            },
            {
              "internalType": "address",
              "name": "payer",
              "type": "address"
            },
            {
              "components": [
                {
                  "internalType": "address",
                  "name": "token",
                  "type": "address"
                },
                {
                  "internalType": "uint256",
                  "name": "value",
                  "type": "uint256"
                },
                {
                  "internalType": "uint256",
                  "name": "decimals",
                  "type": "uint256"
                },
                {
                  "internalType": "uint256",
                  "name": "currency",
                  "type": "uint256"
                }
              ],
              "internalType": "struct JBTokenAmount",
              "name": "amount",
              "type": "tuple"
            },
            {
              "internalType": "uint256",
              "name": "projectId",
              "type": "uint256"
            },
            {
              "internalType": "uint256",
              "name": "currentFundingCycleConfiguration",
              "type": "uint256"
            },
            {
              "internalType": "address",
              "name": "beneficiary",
              "type": "address"
            },
            {
              "internalType": "uint256",
              "name": "weight",
              "type": "uint256"
            },
            {
              "internalType": "uint256",
              "name": "reservedRate",
              "type": "uint256"
            },
            {
              "internalType": "string",
              "name": "memo",
              "type": "string"
            },
            {
              "internalType": "bytes",
              "name": "metadata",
              "type": "bytes"
            }
          ],
          "internalType": "struct JBPayParamsData",
          "name": "_data",
          "type": "tuple"
        }
      ],
      "name": "payParams",
      "outputs": [
        {
          "internalType": "uint256",
          "name": "weight",
          "type": "uint256"
        },
        {
          "internalType": "string",
          "name": "memo",
          "type": "string"
        },
        {
          "components": [
            {
              "internalType": "contract IJBPayDelegate3_1_1",
              "name": "delegate",
              "type": "address"
            },
            {
              "internalType": "uint256",
              "name": "amount",
              "type": "uint256"
            },
            {
              "internalType": "bytes",
              "name": "metadata",
              "type": "bytes"
            }
          ],
          "internalType": "struct JBPayDelegateAllocation3_1_1[]",
          "name": "delegateAllocations",
          "type": "tuple[]"
        }
      ],
      "stateMutability": "view",
      "type": "function"
    },
    {
      "inputs": [
        {
          "internalType": "uint256",
          "name": "",
          "type": "uint256"
        }
      ],
      "name": "permissionIndexes",
      "outputs": [
        {
          "internalType": "uint256",
          "name": "",
          "type": "uint256"
        }
      ],
      "stateMutability": "view",
      "type": "function"
    },
    {
      "inputs": [],
      "name": "publisher",
      "outputs": [
        {
          "internalType": "contract CroptopPublisher",
          "name": "",
          "type": "address"
        }
      ],
      "stateMutability": "view",
      "type": "function"
    },
    {
      "inputs": [
        {
          "internalType": "uint256",
          "name": "projectId",
          "type": "uint256"
        }
      ],
      "name": "reconfigurationStartTimestampOf",
      "outputs": [
        {
          "internalType": "uint256",
          "name": "",
          "type": "uint256"
        }
      ],
      "stateMutability": "view",
      "type": "function"
    },
    {
      "inputs": [
        {
          "components": [
            {
              "internalType": "contract IJBPaymentTerminal",
              "name": "terminal",
              "type": "address"
            },
            {
              "internalType": "address",
              "name": "holder",
              "type": "address"
            },
            {
              "internalType": "uint256",
              "name": "projectId",
              "type": "uint256"
            },
            {
              "internalType": "uint256",
              "name": "currentFundingCycleConfiguration",
              "type": "uint256"
            },
            {
              "internalType": "uint256",
              "name": "tokenCount",
              "type": "uint256"
            },
            {
              "internalType": "uint256",
              "name": "totalSupply",
              "type": "uint256"
            },
            {
              "internalType": "uint256",
              "name": "overflow",
              "type": "uint256"
            },
            {
              "components": [
                {
                  "internalType": "address",
                  "name": "token",
                  "type": "address"
                },
                {
                  "internalType": "uint256",
                  "name": "value",
                  "type": "uint256"
                },
                {
                  "internalType": "uint256",
                  "name": "decimals",
                  "type": "uint256"
                },
                {
                  "internalType": "uint256",
                  "name": "currency",
                  "type": "uint256"
                }
              ],
              "internalType": "struct JBTokenAmount",
              "name": "reclaimAmount",
              "type": "tuple"
            },
            {
              "internalType": "bool",
              "name": "useTotalOverflow",
              "type": "bool"
            },
            {
              "internalType": "uint256",
              "name": "redemptionRate",
              "type": "uint256"
            },
            {
              "internalType": "string",
              "name": "memo",
              "type": "string"
            },
            {
              "internalType": "bytes",
              "name": "metadata",
              "type": "bytes"
            }
          ],
          "internalType": "struct JBRedeemParamsData",
          "name": "_data",
          "type": "tuple"
        }
      ],
      "name": "redeemParams",
      "outputs": [
        {
          "internalType": "uint256",
          "name": "",
          "type": "uint256"
        },
        {
          "internalType": "string",
          "name": "",
          "type": "string"
        },
        {
          "components": [
            {
              "internalType": "contract IJBRedemptionDelegate3_1_1",
              "name": "delegate",
              "type": "address"
            },
            {
              "internalType": "uint256",
              "name": "amount",
              "type": "uint256"
            },
            {
              "internalType": "bytes",
              "name": "metadata",
              "type": "bytes"
            }
          ],
          "internalType": "struct JBRedemptionDelegateAllocation3_1_1[]",
          "name": "",
          "type": "tuple[]"
        }
      ],
      "stateMutability": "view",
      "type": "function"
    },
    {
      "inputs": [
        {
          "internalType": "uint256",
          "name": "_projectId",
          "type": "uint256"
        }
      ],
      "name": "scheduleReconfigurationOf",
      "outputs": [],
      "stateMutability": "nonpayable",
      "type": "function"
    },
    {
      "inputs": [
        {
          "internalType": "bytes4",
          "name": "_interfaceId",
          "type": "bytes4"
        }
      ],
      "name": "supportsInterface",
      "outputs": [
        {
          "internalType": "bool",
          "name": "",
          "type": "bool"
        }
      ],
      "stateMutability": "view",
      "type": "function"
    },
    {
      "inputs": [
        {
          "internalType": "uint256",
          "name": "",
          "type": "uint256"
        }
      ],
      "name": "terminals",
      "outputs": [
        {
          "internalType": "contract IJBPaymentTerminal",
          "name": "",
          "type": "address"
        }
      ],
      "stateMutability": "view",
      "type": "function"
    }
  ],
  "bytecode": {
    "object": "0x60e06040523480156200001157600080fd5b5060405162004d9d38038062004d9d833981016040819052620000349162000122565b6001600160a01b0391821660805260008054600181810183557f290decd9548b62a8d60345a988386fc84ba6bc95484008f6362f93160ef3e56390910180549385166001600160a01b03199485161790558054808201825560127fb10e2d527612073b26eecdfd717e6a320cf44b4afac2b0732d9fcbe2b7fa0cf69091015594831660a05292821660c052600580549590921694169390931790925560068054918201815590915260157ff652222313e28459528d920b65115c16c04f3efc82aaedc97be59f3f377c0d3f90910155620001a2565b6001600160a01b03811681146200011f57600080fd5b50565b600080600080600060a086880312156200013b57600080fd5b8551620001488162000109565b60208701519095506200015b8162000109565b60408701519094506200016e8162000109565b6060870151909350620001818162000109565b6080870151909250620001948162000109565b809150509295509295909350565b60805160a05160c051614b5462000249600039600081816102ae01526120be01526000818161032c01528181611ce101528181611fb201526120fc0152600081816103be01528181610636015281816107460152818161085c01528181610a9f01528181610b6101528181610d8b01528181610ee40152818161109701528181611393015281816114a3015281816115fd0152818161188501526119450152614b546000f3fe608060405234801561001057600080fd5b50600436106101515760003560e01c80638c72c54e116100cd578063c41c2f2411610081578063d46cf17111610066578063d46cf17114610361578063ef8eadd514610383578063f77c4791146103b957600080fd5b8063c41c2f2414610327578063c7e221d71461034e57600080fd5b80639483e771116100b25780639483e771146102d0578063a51cfd18146102e3578063abc603e31461030557600080fd5b80638c72c54e146102895780638f3d964b146102a957600080fd5b80633ce6d3e2116101245780634e777fd7116101095780634e777fd714610243578063560f7b0314610256578063604baabe1461027657600080fd5b80633ce6d3e21461021b578063429216981461023057600080fd5b806301ffc9a7146101565780630219758e1461017e5780630e53d9cc146101b6578063150b7a02146101d7575b600080fd5b610169610164366004612619565b6103e0565b60405190151581526020015b60405180910390f35b61019161018c366004612662565b610479565b60405173ffffffffffffffffffffffffffffffffffffffff9091168152602001610175565b6101c96101c4366004612711565b6104b0565b604051908152602001610175565b6101ea6101e53660046127d3565b610d87565b6040517fffffffff000000000000000000000000000000000000000000000000000000009091168152602001610175565b61022e610229366004612662565b610e9b565b005b6101c961023e366004612662565b6111ec565b6101c9610251366004612b81565b61120d565b6101c9610264366004612662565b60026020526000908152604090205481565b6101c9610284366004612cae565b611c37565b6005546101919073ffffffffffffffffffffffffffffffffffffffff1681565b6101917f000000000000000000000000000000000000000000000000000000000000000081565b6101c96102de366004612662565b611e53565b6102f66102f1366004612df4565b611e63565b60405161017593929190612e9e565b610318610313366004612f67565b611ecb565b60405161017593929190612f89565b6101917f000000000000000000000000000000000000000000000000000000000000000081565b6101c961035c366004612fc7565b611fae565b61037461036f3660046130d5565b6122d0565b60405161017593929190613111565b610191610391366004612662565b60036020526000908152604090205473ffffffffffffffffffffffffffffffffffffffff1681565b6101917f000000000000000000000000000000000000000000000000000000000000000081565b60007fffffffff0000000000000000000000000000000000000000000000000000000082167f71700c6900000000000000000000000000000000000000000000000000000000148061047357507f150b7a02000000000000000000000000000000000000000000000000000000007fffffffff000000000000000000000000000000000000000000000000000000008316145b92915050565b6000818154811061048957600080fd5b60009182526020909120015473ffffffffffffffffffffffffffffffffffffffff16905081565b604080516001808252818301909252600091829190816020015b6040805180820190915260008152606060208201528152602001906001900390816104ca57505060408051600180825281830190925291925060009190602082015b6040805160e08101825260008082526020808301829052928201819052606082018190526080820181905260a0820181905260c082015282527fffffffffffffffffffffffffffffffffffffffffffffffffffffffffffffffff90920191018161050c5790505090506040518060e00160405280600015158152602001600015158152602001633b9aca008152602001600081526020018b73ffffffffffffffffffffffffffffffffffffffff16815260200160008152602001600073ffffffffffffffffffffffffffffffffffffffff16815250816001815181106105f4576105f46131c8565b60200260200101819052506040518060400160405280600281526020018281525082600081518110610628576106286131c8565b6020026020010181905250507f000000000000000000000000000000000000000000000000000000000000000073ffffffffffffffffffffffffffffffffffffffff16638b79543c6040518163ffffffff1660e01b8152600401602060405180830381865afa15801561069f573d6000803e3d6000fd5b505050506040513d601f19601f820116820180604052508101906106c391906131f7565b73ffffffffffffffffffffffffffffffffffffffff1663666d87a0308a6040518363ffffffff1660e01b81526004016106fd9291906132c1565b6020604051808303816000875af115801561071c573d6000803e3d6000fd5b505050506040513d601f19601f820116820180604052508101906107409190613319565b915060007f000000000000000000000000000000000000000000000000000000000000000073ffffffffffffffffffffffffffffffffffffffff1663619306306040518163ffffffff1660e01b8152600401602060405180830381865afa1580156107af573d6000803e3d6000fd5b505050506040513d601f19601f820116820180604052508101906107d391906131f7565b73ffffffffffffffffffffffffffffffffffffffff1663a7f2a70b848a8a8a8a6040518663ffffffff1660e01b8152600401610813959493929190613332565b6020604051808303816000875af1158015610832573d6000803e3d6000fd5b505050506040513d601f19601f8201168201806040525081019061085691906131f7565b905060007f000000000000000000000000000000000000000000000000000000000000000073ffffffffffffffffffffffffffffffffffffffff1663111d861b8560405180608001604052808960600135815260200160128a600001356108bd91906134ba565b815260408a810135602080840191909152600092820183905281516102a081018352610240810184815261026082018590526102808201859052815260a0808e0135828401526080808f013583860152606083018690528201859052810184905260c0810184905260e081018490526001610100820181905261012082018590526101408201859052610160820185905261018082018590526101a082018590526101c08201526101e0810184905273ffffffffffffffffffffffffffffffffffffffff891661020082015261022081018490528251848152918201909252909190899082610a1f565b610a0c6040518060c00160405280600073ffffffffffffffffffffffffffffffffffffffff168152602001600073ffffffffffffffffffffffffffffffffffffffff168152602001600081526020016000815260200160008152602001600081525090565b8152602001906001900390816109a75790505b5060006040518863ffffffff1660e01b8152600401610a4497969594939291906137b0565b6020604051808303816000875af1158015610a63573d6000803e3d6000fd5b505050506040513d601f19601f82011682018060405250810190610a879190613319565b5073ffffffffffffffffffffffffffffffffffffffff7f000000000000000000000000000000000000000000000000000000000000000016638ae9c07b85610ad4601260208a01356134ba565b8e8b8b604051602001610ae89291906138d1565b6040516020818303038152906040526000806040518763ffffffff1660e01b8152600401610b1b9695949392919061392e565b6020604051808303816000875af1158015610b3a573d6000803e3d6000fd5b505050506040513d601f19601f82011682018060405250810190610b5e9190613319565b507f000000000000000000000000000000000000000000000000000000000000000073ffffffffffffffffffffffffffffffffffffffff16632bdfe0046040518163ffffffff1660e01b8152600401602060405180830381865afa158015610bca573d6000803e3d6000fd5b505050506040513d601f19601f82011682018060405250810190610bee91906131f7565b73ffffffffffffffffffffffffffffffffffffffff1663ad007d636040518163ffffffff1660e01b8152600401602060405180830381865afa158015610c38573d6000803e3d6000fd5b505050506040513d601f19601f82011682018060405250810190610c5c91906131f7565b73ffffffffffffffffffffffffffffffffffffffff1663529cdd2e60405180606001604052808e73ffffffffffffffffffffffffffffffffffffffff1681526020018781526020016001805480602002602001604051908101604052809291908181526020018280548015610cf057602002820191906000526020600020905b815481526020019060010190808311610cdc575b50505050508152506040518263ffffffff1660e01b8152600401610d149190613983565b600060405180830381600087803b158015610d2e57600080fd5b505af1158015610d42573d6000803e3d6000fd5b50610d579250505060e0860160c08701613a0a565b610d699065ffffffffffff1642613a25565b60008581526002602052604090205550919998505050505050505050565b60007f000000000000000000000000000000000000000000000000000000000000000073ffffffffffffffffffffffffffffffffffffffff16638b79543c6040518163ffffffff1660e01b8152600401602060405180830381865afa158015610df4573d6000803e3d6000fd5b505050506040513d601f19601f82011682018060405250810190610e1891906131f7565b73ffffffffffffffffffffffffffffffffffffffff163373ffffffffffffffffffffffffffffffffffffffff1614610e4f57600080fd5b73ffffffffffffffffffffffffffffffffffffffff851615610e7057600080fd5b507f150b7a020000000000000000000000000000000000000000000000000000000095945050505050565b6040517f1f51045300000000000000000000000000000000000000000000000000000000815260048101829052600090819073ffffffffffffffffffffffffffffffffffffffff7f00000000000000000000000000000000000000000000000000000000000000001690631f510453906024016103c060405180830381865afa158015610f2c573d6000803e3d6000fd5b505050506040513d601f19601f82011682018060405250810190610f509190613c0d565b5081519193509150600114610f91576040517fc97554fa00000000000000000000000000000000000000000000000000000000815260040160405180910390fd5b60408051608080820183528481015182526000602080840182905260c08088015185870152606080860184905286516102a0810188526102408101858152610260820186905261028082018690528152808401859052888801518189015290810184905293840183905260a08401839052830182905260e08301829052610100830182905261012083018290526101408301829052610160830182905261018083018290526101a083018290526101c083018290526101e083018290526102008087015173ffffffffffffffffffffffffffffffffffffffff908116918501919091526102208781015190850152888352600282528583205486518481529283019096527f0000000000000000000000000000000000000000000000000000000000000000169463badbdf2894899490939092906110f2565b6040805180820190915260008152606060208201528152602001906001900390816110ca5790505b506040805160008082526020820190925290611181565b61116e6040518060c00160405280600073ffffffffffffffffffffffffffffffffffffffff168152602001600073ffffffffffffffffffffffffffffffffffffffff168152602001600081526020016000815260200160008152602001600081525090565b8152602001906001900390816111095790505b506040518763ffffffff1660e01b81526004016111a396959493929190613cc4565b6020604051808303816000875af11580156111c2573d6000803e3d6000fd5b505050506040513d601f19601f820116820180604052508101906111e69190613319565b50505050565b600681815481106111fc57600080fd5b600091825260209091200154905081565b604080516001808252818301909252600091829190816020015b60408051808201909152600081526060602082015281526020019060019003908161122757505060408051600180825281830190925291925060009190602082015b6040805160e08101825260008082526020808301829052928201819052606082018190526080820181905260a0820181905260c082015282527fffffffffffffffffffffffffffffffffffffffffffffffffffffffffffffffff9092019101816112695790505090506040518060e00160405280600015158152602001600015158152602001633b9aca008152602001600081526020018b73ffffffffffffffffffffffffffffffffffffffff16815260200160008152602001600073ffffffffffffffffffffffffffffffffffffffff1681525081600181518110611351576113516131c8565b60200260200101819052506040518060400160405280600281526020018281525082600081518110611385576113856131c8565b6020026020010181905250507f000000000000000000000000000000000000000000000000000000000000000073ffffffffffffffffffffffffffffffffffffffff16638b79543c6040518163ffffffff1660e01b8152600401602060405180830381865afa1580156113fc573d6000803e3d6000fd5b505050506040513d601f19601f8201168201806040525081019061142091906131f7565b73ffffffffffffffffffffffffffffffffffffffff1663666d87a0308a6040518363ffffffff1660e01b815260040161145a929190613db8565b6020604051808303816000875af1158015611479573d6000803e3d6000fd5b505050506040513d601f19601f8201168201806040525081019061149d9190613319565b915060007f000000000000000000000000000000000000000000000000000000000000000073ffffffffffffffffffffffffffffffffffffffff1663619306306040518163ffffffff1660e01b8152600401602060405180830381865afa15801561150c573d6000803e3d6000fd5b505050506040513d601f19601f8201168201806040525081019061153091906131f7565b73ffffffffffffffffffffffffffffffffffffffff1663a7f2a70b848a8a6040518463ffffffff1660e01b815260040161156c93929190613e06565b6020604051808303816000875af115801561158b573d6000803e3d6000fd5b505050506040513d601f19601f820116820180604052508101906115af91906131f7565b600084815260036020908152604080832080547fffffffffffffffffffffffff000000000000000000000000000000000000000016905580516080810190915260608a0135815292935090917f000000000000000000000000000000000000000000000000000000000000000073ffffffffffffffffffffffffffffffffffffffff169163111d861b918791810161164960128d356134ba565b81526020018b604001358152602001600073ffffffffffffffffffffffffffffffffffffffff1681525060405180610240016040528060405180606001604052806000151581526020016000151581526020016000151581525081526020018c60a0013581526020018c608001358152602001600081526020016000151581526020016000151581526020016000151581526020016000151581526020016001151581526020016000151581526020016000151581526020016000151581526020016000151581526020016000151581526020016001151581526020016000151581526020013073ffffffffffffffffffffffffffffffffffffffff1681526020018a60ff16815250600088600067ffffffffffffffff81111561176f5761176f612846565b60405190808252806020026020018201604052801561180557816020015b6117f26040518060c00160405280600073ffffffffffffffffffffffffffffffffffffffff168152602001600073ffffffffffffffffffffffffffffffffffffffff168152602001600081526020016000815260200160008152602001600081525090565b81526020019060019003908161178d5790505b5060006040518863ffffffff1660e01b815260040161182a97969594939291906137b0565b6020604051808303816000875af1158015611849573d6000803e3d6000fd5b505050506040513d601f19601f8201168201806040525081019061186d9190613319565b5073ffffffffffffffffffffffffffffffffffffffff7f000000000000000000000000000000000000000000000000000000000000000016638ae9c07b856118ba601260208c01356134ba565b8e8c6040516020016118cc9190613e3b565b6040516020818303038152906040526000806040518763ffffffff1660e01b81526004016118ff9695949392919061392e565b6020604051808303816000875af115801561191e573d6000803e3d6000fd5b505050506040513d601f19601f820116820180604052508101906119429190613319565b507f000000000000000000000000000000000000000000000000000000000000000073ffffffffffffffffffffffffffffffffffffffff16632bdfe0046040518163ffffffff1660e01b8152600401602060405180830381865afa1580156119ae573d6000803e3d6000fd5b505050506040513d601f19601f820116820180604052508101906119d291906131f7565b73ffffffffffffffffffffffffffffffffffffffff1663ad007d636040518163ffffffff1660e01b8152600401602060405180830381865afa158015611a1c573d6000803e3d6000fd5b505050506040513d601f19601f82011682018060405250810190611a4091906131f7565b73ffffffffffffffffffffffffffffffffffffffff1663529cdd2e60405180606001604052808e73ffffffffffffffffffffffffffffffffffffffff1681526020018781526020016001805480602002602001604051908101604052809291908181526020018280548015611ad457602002820191906000526020600020905b815481526020019060010190808311611ac0575b50505050508152506040518263ffffffff1660e01b8152600401611af89190613983565b600060405180830381600087803b158015611b1257600080fd5b505af1158015611b26573d6000803e3d6000fd5b50611b3b9250505060e0880160c08901613a0a565b611b4d9065ffffffffffff1642613a25565b6000858152600260205260408120919091558651905b81811015611c2757878181518110611b7d57611b7d6131c8565b6020026020010151600460008881526020019081526020016000208281548110611ba957611ba96131c8565b600091825260209182902083516003929092020180547fffffffffffffffffffffffff00000000000000000000000000000000000000001673ffffffffffffffffffffffffffffffffffffffff90921691909117815590820151600182015560408201516002820190611c1c9082613f43565b505050600101611b63565b5050505050979650505050505050565b6000611c4a8c8c8c8c8c8c8c8c8c611fae565b90508115611cdf576005546040517f200e8ae400000000000000000000000000000000000000000000000000000000815273ffffffffffffffffffffffffffffffffffffffff9091169063200e8ae490611cac908490879087906004016140a8565b600060405180830381600087803b158015611cc657600080fd5b505af1158015611cda573d6000803e3d6000fd5b505050505b7f000000000000000000000000000000000000000000000000000000000000000073ffffffffffffffffffffffffffffffffffffffff1663ad007d636040518163ffffffff1660e01b8152600401602060405180830381865afa158015611d4a573d6000803e3d6000fd5b505050506040513d601f19601f82011682018060405250810190611d6e91906131f7565b6040805160608101825260055473ffffffffffffffffffffffffffffffffffffffff90811682526020808301869052600680548551818402810184018752818152969093169563529cdd2e958501939092830182828015611dee57602002820191906000526020600020905b815481526020019060010190808311611dda575b50505050508152506040518263ffffffff1660e01b8152600401611e129190613983565b600060405180830381600087803b158015611e2c57600080fd5b505af1158015611e40573d6000803e3d6000fd5b505050509b9a5050505050505050505050565b600181815481106111fc57600080fd5b604080516000808252602082019092526060908190839081611eaf565b60408051606080820183526000808352602083015291810191909152815260200190600190039081611e805790505b5060408051602081019091526000815291969195509350915050565b60046020528160005260406000208181548110611ee757600080fd5b600091825260209091206003909102018054600182015460028301805473ffffffffffffffffffffffffffffffffffffffff909316955090935090611f2b90613ea7565b80601f0160208091040260200160405190810160405280929190818152602001828054611f5790613ea7565b8015611fa45780601f10611f7957610100808354040283529160200191611fa4565b820191906000526020600020905b815481529060010190602001808311611f8757829003601f168201915b5050505050905083565b60007f000000000000000000000000000000000000000000000000000000000000000073ffffffffffffffffffffffffffffffffffffffff16638b79543c6040518163ffffffff1660e01b8152600401602060405180830381865afa15801561201b573d6000803e3d6000fd5b505050506040513d601f19601f8201168201806040525081019061203f91906131f7565b73ffffffffffffffffffffffffffffffffffffffff166306661abd6040518163ffffffff1660e01b8152600401602060405180830381865afa158015612089573d6000803e3d6000fd5b505050506040513d601f19601f820116820180604052508101906120ad9190613319565b6120b8906001613a25565b905060007f000000000000000000000000000000000000000000000000000000000000000073ffffffffffffffffffffffffffffffffffffffff1663cb5720fb83887f00000000000000000000000000000000000000000000000000000000000000006040518463ffffffff1660e01b81526004016121399392919061454b565b6020604051808303816000875af1158015612158573d6000803e3d6000fd5b505050506040513d601f19601f8201168201806040525081019061217c91906131f7565b905083600061218c826001613a25565b67ffffffffffffffff8111156121a4576121a4612846565b6040519080825280602002602001820160405280156121f157816020015b604080516060808201835260008083526020830152918101919091528152602001906001900390816121c25790505b50905060005b8281101561225157878782818110612211576122116131c8565b90506020028101906122239190614740565b61222c9061477e565b82828151811061223e5761223e6131c8565b60209081029190910101526001016121f7565b5060405180606001604052808473ffffffffffffffffffffffffffffffffffffffff16815260200160008152602001604051806020016040528060008152508152508183815181106122a5576122a56131c8565b60200260200101819052506122bf8d8d8d8d8d868b61120d565b505050509998505050505050505050565b60c08101356000908152600360205260408082205490517fd46cf1710000000000000000000000000000000000000000000000000000000081526060918291829173ffffffffffffffffffffffffffffffffffffffff169063d46cf1719061233c9088906004016147cc565b600060405180830381865afa158015612359573d6000803e3d6000fd5b505050506040513d6000823e601f3d9081017fffffffffffffffffffffffffffffffffffffffffffffffffffffffffffffffe016820160405261239f9190810190614940565b60c088013560009081526004602090815260408083208054825181850281018501909352808352969a509396509194919350849084015b828210156124c75760008481526020908190206040805160608101825260038602909201805473ffffffffffffffffffffffffffffffffffffffff1683526001810154938301939093526002830180549293929184019161243690613ea7565b80601f016020809104026020016040519081016040528092919081815260200182805461246290613ea7565b80156124af5780601f10612484576101008083540402835291602001916124af565b820191906000526020600020905b81548152906001019060200180831161249257829003601f168201915b505050505081525050815260200190600101906123d6565b505082519293506124dd91508290506001613a25565b67ffffffffffffffff8111156124f5576124f5612846565b60405190808252806020026020018201604052801561254257816020015b604080516060808201835260008083526020830152918101919091528152602001906001900390816125135790505b50935060005b8181101561258f57828181518110612562576125626131c8565b602002602001015185828151811061257c5761257c6131c8565b6020908102919091010152600101612548565b50826000815181106125a3576125a36131c8565b60200260200101518482815181106125bd576125bd6131c8565b60209081029190910101526125d6610160880188614ab9565b8080601f016020809104026020016040519081016040528093929190818152602001838380828437600092019190915250989a9299509597509095505050505050565b60006020828403121561262b57600080fd5b81357fffffffff000000000000000000000000000000000000000000000000000000008116811461265b57600080fd5b9392505050565b60006020828403121561267457600080fd5b5035919050565b73ffffffffffffffffffffffffffffffffffffffff8116811461269d57600080fd5b50565b80356126ab8161267b565b919050565b60008083601f8401126126c257600080fd5b50813567ffffffffffffffff8111156126da57600080fd5b6020830191508360208285010111156126f257600080fd5b9250929050565b600060e0828403121561270b57600080fd5b50919050565b6000806000806000806000610160888a03121561272d57600080fd5b87356127388161267b565b9650602088013567ffffffffffffffff8082111561275557600080fd5b908901906040828c03121561276957600080fd5b9096506040890135908082111561277f57600080fd5b61278b8b838c016126b0565b909750955060608a01359150808211156127a457600080fd5b506127b18a828b016126b0565b90945092506127c590508960808a016126f9565b905092959891949750929550565b6000806000806000608086880312156127eb57600080fd5b85356127f68161267b565b945060208601356128068161267b565b935060408601359250606086013567ffffffffffffffff81111561282957600080fd5b612835888289016126b0565b969995985093965092949392505050565b7f4e487b7100000000000000000000000000000000000000000000000000000000600052604160045260246000fd5b6040516060810167ffffffffffffffff8111828210171561289857612898612846565b60405290565b604051610240810167ffffffffffffffff8111828210171561289857612898612846565b604051610120810167ffffffffffffffff8111828210171561289857612898612846565b604051601f82017fffffffffffffffffffffffffffffffffffffffffffffffffffffffffffffffe016810167ffffffffffffffff8111828210171561292d5761292d612846565b604052919050565b600067ffffffffffffffff82111561294f5761294f612846565b50601f017fffffffffffffffffffffffffffffffffffffffffffffffffffffffffffffffe01660200190565b600061298e61298984612935565b6128e6565b90508281528383830111156129a257600080fd5b828260208301376000602084830101529392505050565b600082601f8301126129ca57600080fd5b61265b8383356020850161297b565b6000604082840312156129eb57600080fd5b6040516040810167ffffffffffffffff8282108183111715612a0f57612a0f612846565b816040528293508435915080821115612a2757600080fd5b50612a34858286016129b9565b825250602083013560208201525092915050565b600067ffffffffffffffff821115612a6257612a62612846565b5060051b60200190565b600060608284031215612a7e57600080fd5b612a86612875565b90508135612a938161267b565b815260208281013590820152604082013567ffffffffffffffff811115612ab957600080fd5b8201601f81018413612aca57600080fd5b612ad98482356020840161297b565b60408301525092915050565b600082601f830112612af657600080fd5b81356020612b0661298983612a48565b82815260059290921b84018101918181019086841115612b2557600080fd5b8286015b84811015612b6557803567ffffffffffffffff811115612b495760008081fd5b612b578986838b0101612a6c565b845250918301918301612b29565b509695505050505050565b803560ff811681146126ab57600080fd5b60008060008060008060006101a0888a031215612b9d57600080fd5b612ba6886126a0565b9650602088013567ffffffffffffffff80821115612bc357600080fd5b612bcf8b838c016129d9565b975060408a0135915080821115612be557600080fd5b612bf18b838c016129b9565b965060608a0135915080821115612c0757600080fd5b612c138b838c016129b9565b9550612c228b60808c016126f9565b94506101608a0135915080821115612c3957600080fd5b50612c468a828b01612ae5565b9250506127c56101808901612b70565b60006101c0828403121561270b57600080fd5b60008083601f840112612c7b57600080fd5b50813567ffffffffffffffff811115612c9357600080fd5b6020830191508360208260051b85010111156126f257600080fd5b60008060008060008060008060008060006101e08c8e031215612cd057600080fd5b612cd98c6126a0565b9a5067ffffffffffffffff8060208e01351115612cf557600080fd5b612d058e60208f01358f016129d9565b9a508060408e01351115612d1857600080fd5b612d288e60408f01358f016129b9565b99508060608e01351115612d3b57600080fd5b612d4b8e60608f01358f016129b9565b9850612d5a8e60808f016126f9565b9750806101608e01351115612d6e57600080fd5b612d7f8e6101608f01358f01612c56565b9650806101808e01351115612d9357600080fd5b612da48e6101808f01358f01612c69565b9096509450612db66101a08e01612b70565b9350806101c08e01351115612dca57600080fd5b50612ddc8d6101c08e01358e01612c69565b81935080925050509295989b509295989b9093969950565b600060208284031215612e0657600080fd5b813567ffffffffffffffff811115612e1d57600080fd5b82016101e0818503121561265b57600080fd5b60005b83811015612e4b578181015183820152602001612e33565b50506000910152565b60008151808452612e6c816020860160208601612e30565b601f017fffffffffffffffffffffffffffffffffffffffffffffffffffffffffffffffe0169290920160200192915050565b6000606085835260208181850152612eb882850187612e54565b6040858203818701528187518084528484019150848160051b850101858a0160005b83811015612f55578683037fffffffffffffffffffffffffffffffffffffffffffffffffffffffffffffffe00185528151805173ffffffffffffffffffffffffffffffffffffffff16845288810151898501528601518684018a9052612f428a850182612e54565b9589019593505090870190600101612eda565b50909c9b505050505050505050505050565b60008060408385031215612f7a57600080fd5b50508035926020909101359150565b73ffffffffffffffffffffffffffffffffffffffff84168152826020820152606060408201526000612fbe6060830184612e54565b95945050505050565b60008060008060008060008060006101c08a8c031215612fe657600080fd5b612fef8a6126a0565b985060208a013567ffffffffffffffff8082111561300c57600080fd5b6130188d838e016129d9565b995060408c013591508082111561302e57600080fd5b61303a8d838e016129b9565b985060608c013591508082111561305057600080fd5b61305c8d838e016129b9565b975061306b8d60808e016126f9565b96506101608c013591508082111561308257600080fd5b61308e8d838e01612c56565b95506101808c01359150808211156130a557600080fd5b506130b28c828d01612c69565b90945092506130c690506101a08b01612b70565b90509295985092959850929598565b6000602082840312156130e757600080fd5b813567ffffffffffffffff8111156130fe57600080fd5b82016101a0818503121561265b57600080fd5b600060608583526020818185015261312b82850187612e54565b6040858203818701528187518084528484019150848160051b850101858a0160005b83811015612f55578683037fffffffffffffffffffffffffffffffffffffffffffffffffffffffffffffffe00185528151805173ffffffffffffffffffffffffffffffffffffffff16845288810151898501528601518684018a90526131b58a850182612e54565b958901959350509087019060010161314d565b7f4e487b7100000000000000000000000000000000000000000000000000000000600052603260045260246000fd5b60006020828403121561320957600080fd5b815161265b8161267b565b60008083357fffffffffffffffffffffffffffffffffffffffffffffffffffffffffffffffe184360301811261324957600080fd5b830160208101925035905067ffffffffffffffff81111561326957600080fd5b8036038213156126f257600080fd5b8183528181602085013750600060208284010152600060207fffffffffffffffffffffffffffffffffffffffffffffffffffffffffffffffe0601f840116840101905092915050565b73ffffffffffffffffffffffffffffffffffffffff831681526040602082015260006132ed8384613214565b604080850152613301608085018284613278565b91505060208401356060840152809150509392505050565b60006020828403121561332b57600080fd5b5051919050565b85815260606020820152600061334c606083018688613278565b828103604084015261335f818587613278565b98975050505050505050565b7f4e487b7100000000000000000000000000000000000000000000000000000000600052601160045260246000fd5b600181815b808511156133f357817fffffffffffffffffffffffffffffffffffffffffffffffffffffffffffffffff048211156133d9576133d961336b565b808516156133e657918102915b93841c939080029061339f565b509250929050565b60008261340a57506001610473565b8161341757506000610473565b816001811461342d576002811461343757613453565b6001915050610473565b60ff8411156134485761344861336b565b50506001821b610473565b5060208310610133831016604e8410600b8410161715613476575081810a610473565b613480838361339a565b807fffffffffffffffffffffffffffffffffffffffffffffffffffffffffffffffff048211156134b2576134b261336b565b029392505050565b600061265b60ff8416836133fb565b6134ee8282518051151582526020808201511515908301526040908101511515910152565b6020810151606083015260408101516080830152606081015160a0830152608081015161351f60c084018215159052565b5060a081015180151560e08401525060c08101516101006135438185018315159052565b60e0830151915061012061355a8186018415159052565b908301519150610140906135718583018415159052565b83015191506101606135868582018415159052565b9083015191506101809061359d8583018415159052565b83015191506101a06135b28582018415159052565b9083015191506101c0906135c98583018415159052565b83015191506101e06135de8582018415159052565b908301519150610200906135f58583018415159052565b830151915061022061360a8582018415159052565b9083015173ffffffffffffffffffffffffffffffffffffffff16610240850152909101516102609092019190915250565b600081518084526020808501808196508360051b810191508286016000805b8681101561371a578385038a52825180518652860151604087870181905281518188018190529188019160609081890190865b818110156137035785518051151584528c81015115158d8501528581015186850152848101518585015260808082015173ffffffffffffffffffffffffffffffffffffffff9081169186019190915260a0808301519086015260c0918201511690840152948b019460e09092019160010161368d565b50509c89019c97505050928601925060010161365a565b509298975050505050505050565b600081518084526020808501945080840160005b838110156137a5578151805173ffffffffffffffffffffffffffffffffffffffff908116895284820151168489015260408082015190890152606080820151908901526080808201519089015260a0908101519088015260c0909601959082019060010161373c565b509495945050505050565b60006103c089835260206137fd8185018b80518252602081015160208301526040810151604083015273ffffffffffffffffffffffffffffffffffffffff60608201511660608301525050565b61380a60a085018a6134c9565b87610320850152816103408501526138248285018861363b565b91508382036103608501526138398287613728565b848103610380860152855480825260008781528381209450918301915b8181101561388857845473ffffffffffffffffffffffffffffffffffffffff1683526001948501949284019201613856565b50508481036103a0860152601b81527f4465706c6f7965642052657461696c69737420747265617375727900000000006020820152604081019c9b505050505050505050505050565b7f5072656d696e746564200000000000000000000000000000000000000000000081528183600a8301377f20746f6b656e732e0000000000000000000000000000000000000000000000009101600a810191909152601201919050565b86815285602082015273ffffffffffffffffffffffffffffffffffffffff8516604082015260c06060820152600061396960c0830186612e54565b93151560808301525090151560a090910152949350505050565b600060208083526080830173ffffffffffffffffffffffffffffffffffffffff85511682850152818501516040850152604085015160608086015281815180845260a0870191508483019350600092505b80831015612b6557835182529284019260019290920191908401906139d4565b803565ffffffffffff811681146126ab57600080fd5b600060208284031215613a1c57600080fd5b61265b826139f4565b808201808211156104735761047361336b565b80516126ab8161267b565b801515811461269d57600080fd5b80516126ab81613a43565b600060608284031215613a6e57600080fd5b613a76612875565b90508151613a8381613a43565b81526020820151613a9381613a43565b60208201526040820151613aa681613a43565b604082015292915050565b60006102808284031215613ac457600080fd5b613acc61289e565b9050613ad88383613a5c565b8152606082015160208201526080820151604082015260a08201516060820152613b0460c08301613a51565b6080820152613b1560e08301613a51565b60a0820152610100613b28818401613a51565b60c0830152610120613b3b818501613a51565b60e0840152610140613b4e818601613a51565b838501526101609250613b62838601613a51565b828501526101809150613b76828601613a51565b908401526101a0613b88858201613a51565b838501526101c09250613b9c838601613a51565b828501526101e09150613bb0828601613a51565b90840152610200613bc2858201613a51565b838501526102209250613bd6838601613a51565b82850152613be76102408601613a38565b818501525050610260830151818301525092915050565b8051600381106126ab57600080fd5b60008060008385036103c0811215613c2457600080fd5b61012080821215613c3457600080fd5b613c3c6128c2565b9150855182526020860151602083015260408601516040830152606086015160608301526080860151608083015260a086015160a083015260c086015160c0830152613c8a60e08701613a38565b60e0830152610100808701518184015250819450613caa87828801613ab1565b93505050613cbb6103a08501613bfe565b90509250925092565b60006103a0888352613d10602084018980518252602081015160208301526040810151604083015273ffffffffffffffffffffffffffffffffffffffff60608201511660608301525050565b613d1d60a08401886134c9565b8561032084015280610340840152613d378184018661363b565b9050828103610360840152613d4c8185613728565b838103610380909401939093525050603481527f5363686564756c6564207265736572766564207261746520657870697279206f60208201527f662052657461696c69737420747265617375727900000000000000000000000060408201526060019695505050505050565b73ffffffffffffffffffffffffffffffffffffffff831681526040602082015260008251604080840152613def6080840182612e54565b905060208401516060840152809150509392505050565b838152606060208201526000613e1f6060830185612e54565b8281036040840152613e318185612e54565b9695505050505050565b7f5072656d696e7465642000000000000000000000000000000000000000000000815260008251613e7381600a850160208701612e30565b7f20746f6b656e732e000000000000000000000000000000000000000000000000600a939091019283015250601201919050565b600181811c90821680613ebb57607f821691505b60208210810361270b577f4e487b7100000000000000000000000000000000000000000000000000000000600052602260045260246000fd5b601f821115613f3e57600081815260208120601f850160051c81016020861015613f1b5750805b601f850160051c820191505b81811015613f3a57828155600101613f27565b5050505b505050565b815167ffffffffffffffff811115613f5d57613f5d612846565b613f7181613f6b8454613ea7565b84613ef4565b602080601f831160018114613fc45760008415613f8e5750858301515b7fffffffffffffffffffffffffffffffffffffffffffffffffffffffffffffffff600386901b1c1916600185901b178555613f3a565b6000858152602081207fffffffffffffffffffffffffffffffffffffffffffffffffffffffffffffffe08616915b8281101561401157888601518255948401946001909101908401613ff2565b508582101561404d57878501517fffffffffffffffffffffffffffffffffffffffffffffffffffffffffffffffff600388901b60f8161c191681555b5050505050600190811b01905550565b8183526000602080850194508260005b858110156137a55781356140808161267b565b73ffffffffffffffffffffffffffffffffffffffff168752958201959082019060010161406d565b8381526040602080830182905282820184905260009190606090818501600587811b8701840189875b8a811015614209577fffffffffffffffffffffffffffffffffffffffffffffffffffffffffffffffa08a840301855281357fffffffffffffffffffffffffffffffffffffffffffffffffffffffffffffff418d360301811261413257600080fd5b8c0160c081356141418161267b565b73ffffffffffffffffffffffffffffffffffffffff1685528188013588860152898201358a86015288820135898601526080808301359086015260a080830135368490037fffffffffffffffffffffffffffffffffffffffffffffffffffffffffffffffe10181126141b257600080fd5b90920188810192903567ffffffffffffffff8111156141d057600080fd5b80881b36038413156141e157600080fd5b82828801526141f3838801828661405d565b988a0198965050509287019250506001016140d1565b50909b9a5050505050505050505050565b600082357fffffffffffffffffffffffffffffffffffffffffffffffffffffffffffffff8183360301811261424e57600080fd5b90910192915050565b80356cffffffffffffffffffffffffff811681146126ab57600080fd5b803563ffffffff811681146126ab57600080fd5b803561ffff811681146126ab57600080fd5b803562ffffff811681146126ab57600080fd5b80356126ab81613a43565b6000608080840183357fffffffffffffffffffffffffffffffffffffffffffffffffffffffffffffffe18536030181126142f157600080fd5b8401602081810191359067ffffffffffffffff82111561431057600080fd5b610160808302360384131561432457600080fd5b8589529382905260a09384890160005b8481101561443f5761435c8261434988614257565b6cffffffffffffffffffffffffff169052565b614367848701614274565b63ffffffff1684830152604061437e878201614274565b63ffffffff16908301526060614395878201614288565b61ffff16908301526143a88689016126a0565b73ffffffffffffffffffffffffffffffffffffffff1688830152858701358783015260c06143d781880161429a565b62ffffff169083015260e06143ed8782016142ad565b1515908301526101006144018782016142ad565b1515908301526101206144158782016142ad565b1515908301526101406144298782016142ad565b1515908301529482019490820190600101614334565b5061444b838a016139f4565b65ffffffffffff81168b850152965061446660408a016139f4565b65ffffffffffff811660408c0152965061448260608a016126a0565b73ffffffffffffffffffffffffffffffffffffffff811660608c015296509998505050505050505050565b80356144b881613a43565b1515825260208101356144ca81613a43565b1515602083015260408101356144df81613a43565b1515604083015260608101356144f481613a43565b8015156060840152505050565b8035600281106126ab57600080fd5b60028110614547577f4e487b7100000000000000000000000000000000000000000000000000000000600052602160045260246000fd5b9052565b8381526060602082015260006145618485613214565b6101c0606085015261457861022085018284613278565b9150506145886020860186613214565b7fffffffffffffffffffffffffffffffffffffffffffffffffffffffffffffffa0808685030160808701526145be848385613278565b93506145cc604089016126a0565b73ffffffffffffffffffffffffffffffffffffffff811660a088015292506145f76060890189613214565b93509150808685030160c0870152614610848484613278565b935061461e608089016126a0565b73ffffffffffffffffffffffffffffffffffffffff811660e0880152925061464960a0890189613214565b93509150610100818786030181880152614664858585613278565b945061467360c08a018a61421a565b9350610120925081878603018388015261468d85856142b8565b945061469b60e08a016126a0565b73ffffffffffffffffffffffffffffffffffffffff811661014089015293506146c5818a016126a0565b935050506146ec61016086018373ffffffffffffffffffffffffffffffffffffffff169052565b6146fc61018086018289016144ad565b505061470b6101a08601614501565b614719610200850182614510565b5073ffffffffffffffffffffffffffffffffffffffff841660408401529050949350505050565b600082357fffffffffffffffffffffffffffffffffffffffffffffffffffffffffffffffa183360301811261477457600080fd5b9190910192915050565b60006104733683612a6c565b80356147958161267b565b73ffffffffffffffffffffffffffffffffffffffff1682526020818101359083015260408082013590830152606090810135910152565b602081526147fa602082016147e0846126a0565b73ffffffffffffffffffffffffffffffffffffffff169052565b6000614808602084016126a0565b73ffffffffffffffffffffffffffffffffffffffff8116604084015250614835606083016040850161478a565b60c083013560e083015261010060e0840135818401526148568185016126a0565b905061012061487c8185018373ffffffffffffffffffffffffffffffffffffffff169052565b610140915080850135828501525061016081850135818501526148a181860186613214565b925090506101a061018081818701526148bf6101c087018585613278565b93506148cd81880188613214565b935090507fffffffffffffffffffffffffffffffffffffffffffffffffffffffffffffffe08685030182870152614905848483613278565b979650505050505050565b600061491e61298984612935565b905082815283838301111561493257600080fd5b61265b836020830184612e30565b60008060006060848603121561495557600080fd5b8351925060208085015167ffffffffffffffff8082111561497557600080fd5b818701915087601f83011261498957600080fd5b614997888351858501614910565b945060408701519150808211156149ad57600080fd5b818701915087601f8301126149c157600080fd5b81516149cf61298982612a48565b81815260059190911b8301840190848101908a8311156149ee57600080fd5b8585015b83811015614aa857805185811115614a0957600080fd5b86016060818e037fffffffffffffffffffffffffffffffffffffffffffffffffffffffffffffffe0011215614a3d57600080fd5b614a45612875565b88820151614a528161267b565b8152604082015189820152606082015187811115614a6f57600080fd5b8083019250508d603f830112614a8457600080fd5b614a958e8a84015160408501614910565b60408201528452509186019186016149f2565b508096505050505050509250925092565b60008083357fffffffffffffffffffffffffffffffffffffffffffffffffffffffffffffffe1843603018112614aee57600080fd5b83018035915067ffffffffffffffff821115614b0957600080fd5b6020019150368190038213156126f257600080fdfea2646970667358221220746827104a0bb90f733c162d1cfd1ac8236adcc2aee555f07af26780e2c0978464736f6c63430008140033",
    "linkReferences": {}
  },
  "methodIdentifiers": {
    "buybackDelegateDataSourceOf(uint256)": "ef8eadd5",
    "controller()": "f77c4791",
    "croptopPermissionIndexes(uint256)": "42921698",
    "delegateAllocationsOf(uint256,uint256)": "abc603e3",
    "delegateDeployer()": "8f3d964b",
    "deployBasicProjectFor(address,(string,uint256),string,string,(uint256,uint256,uint256,uint256,uint256,uint256,uint48))": "0e53d9cc",
    "deployCroptopTiered721PayAllocatorProjectFor(address,(string,uint256),string,string,(uint256,uint256,uint256,uint256,uint256,uint256,uint48),(string,string,address,string,address,string,((uint104,uint32,uint32,uint16,address,bytes32,uint24,bool,bool,bool,bool)[],uint48,uint48,address),address,address,(bool,bool,bool,bool),uint8),(address,uint256,bytes)[],uint8,(address,uint256,uint256,uint256,uint256,address[])[])": "604baabe",
    "deployPayAllocatorProjectFor(address,(string,uint256),string,string,(uint256,uint256,uint256,uint256,uint256,uint256,uint48),(address,uint256,bytes)[],uint8)": "4e777fd7",
    "deployTiered721PayAllocatorProjectFor(address,(string,uint256),string,string,(uint256,uint256,uint256,uint256,uint256,uint256,uint48),(string,string,address,string,address,string,((uint104,uint32,uint32,uint16,address,bytes32,uint24,bool,bool,bool,bool)[],uint48,uint48,address),address,address,(bool,bool,bool,bool),uint8),(address,uint256,bytes)[],uint8)": "c7e221d7",
    "directory()": "c41c2f24",
    "onERC721Received(address,address,uint256,bytes)": "150b7a02",
    "payParams((address,address,(address,uint256,uint256,uint256),uint256,uint256,address,uint256,uint256,string,bytes))": "d46cf171",
    "permissionIndexes(uint256)": "9483e771",
    "publisher()": "8c72c54e",
    "reconfigurationStartTimestampOf(uint256)": "560f7b03",
    "redeemParams((address,address,uint256,uint256,uint256,uint256,uint256,(address,uint256,uint256,uint256),bool,uint256,string,bytes))": "a51cfd18",
    "scheduleReconfigurationOf(uint256)": "3ce6d3e2",
    "supportsInterface(bytes4)": "01ffc9a7",
    "terminals(uint256)": "0219758e"
  },
  "id": 73
}