{
  "abi": [
    {
      "inputs": [
        {
          "internalType": "contract IJBDirectory",
          "name": "_directory",
          "type": "address"
        },
        {
          "internalType": "contract IJBTiered721DelegateDeployer",
          "name": "_delegateDeployer",
          "type": "address"
        },
        {
          "internalType": "contract IJBController3_1",
          "name": "_controller",
          "type": "address"
        },
        {
          "internalType": "contract IJBPayoutRedemptionPaymentTerminal3_1_1",
          "name": "_terminal",
          "type": "address"
        }
      ],
      "stateMutability": "nonpayable",
      "type": "constructor"
    },
    {
      "inputs": [],
      "name": "RECONFIGURATION_ALREADY_SCHEDULED",
      "type": "error"
    },
    {
      "inputs": [
        {
          "internalType": "uint256",
          "name": "",
          "type": "uint256"
        }
      ],
      "name": "buybackDelegateDataSourceOf",
      "outputs": [
        {
          "internalType": "contract IJBFundingCycleDataSource3_1_1",
          "name": "",
          "type": "address"
        }
      ],
      "stateMutability": "view",
      "type": "function"
    },
    {
      "inputs": [],
      "name": "controller",
      "outputs": [
        {
          "internalType": "contract IJBController3_1",
          "name": "",
          "type": "address"
        }
      ],
      "stateMutability": "view",
      "type": "function"
    },
    {
      "inputs": [
        {
          "internalType": "uint256",
          "name": "",
          "type": "uint256"
        },
        {
          "internalType": "uint256",
          "name": "",
          "type": "uint256"
        }
      ],
      "name": "delegateAllocationsOf",
      "outputs": [
        {
          "internalType": "contract IJBPayDelegate3_1_1",
          "name": "delegate",
          "type": "address"
        },
        {
          "internalType": "uint256",
          "name": "amount",
          "type": "uint256"
        },
        {
          "internalType": "bytes",
          "name": "metadata",
          "type": "bytes"
        }
      ],
      "stateMutability": "view",
      "type": "function"
    },
    {
      "inputs": [],
      "name": "delegateDeployer",
      "outputs": [
        {
          "internalType": "contract IJBTiered721DelegateDeployer",
          "name": "",
          "type": "address"
        }
      ],
      "stateMutability": "view",
      "type": "function"
    },
    {
      "inputs": [
        {
          "internalType": "address",
          "name": "_operator",
          "type": "address"
        },
        {
          "components": [
            {
              "internalType": "string",
              "name": "content",
              "type": "string"
            },
            {
              "internalType": "uint256",
              "name": "domain",
              "type": "uint256"
            }
          ],
          "internalType": "struct JBProjectMetadata",
          "name": "_projectMetadata",
          "type": "tuple"
        },
        {
          "internalType": "string",
          "name": "_name",
          "type": "string"
        },
        {
          "internalType": "string",
          "name": "_symbol",
          "type": "string"
        },
        {
          "components": [
            {
              "internalType": "uint256",
              "name": "initialIssuanceRate",
              "type": "uint256"
            },
            {
              "internalType": "uint256",
              "name": "premintTokenAmount",
              "type": "uint256"
            },
            {
              "internalType": "uint256",
              "name": "discountRate",
              "type": "uint256"
            },
            {
              "internalType": "uint256",
              "name": "discountPeriod",
              "type": "uint256"
            },
            {
              "internalType": "uint256",
              "name": "redemptionRate",
              "type": "uint256"
            },
            {
              "internalType": "uint256",
              "name": "reservedRate",
              "type": "uint256"
            },
            {
              "internalType": "uint48",
              "name": "reservedRateDuration",
              "type": "uint48"
            }
          ],
          "internalType": "struct BasicRetailistJBParams",
          "name": "_data",
          "type": "tuple"
        }
      ],
      "name": "deployBasicProjectFor",
      "outputs": [
        {
          "internalType": "uint256",
          "name": "projectId",
          "type": "uint256"
        }
      ],
      "stateMutability": "nonpayable",
      "type": "function"
    },
    {
      "inputs": [
        {
          "internalType": "address",
          "name": "_operator",
          "type": "address"
        },
        {
          "components": [
            {
              "internalType": "string",
              "name": "content",
              "type": "string"
            },
            {
              "internalType": "uint256",
              "name": "domain",
              "type": "uint256"
            }
          ],
          "internalType": "struct JBProjectMetadata",
          "name": "_projectMetadata",
          "type": "tuple"
        },
        {
          "internalType": "string",
          "name": "_name",
          "type": "string"
        },
        {
          "internalType": "string",
          "name": "_symbol",
          "type": "string"
        },
        {
          "components": [
            {
              "internalType": "uint256",
              "name": "initialIssuanceRate",
              "type": "uint256"
            },
            {
              "internalType": "uint256",
              "name": "premintTokenAmount",
              "type": "uint256"
            },
            {
              "internalType": "uint256",
              "name": "discountRate",
              "type": "uint256"
            },
            {
              "internalType": "uint256",
              "name": "discountPeriod",
              "type": "uint256"
            },
            {
              "internalType": "uint256",
              "name": "redemptionRate",
              "type": "uint256"
            },
            {
              "internalType": "uint256",
              "name": "reservedRate",
              "type": "uint256"
            },
            {
              "internalType": "uint48",
              "name": "reservedRateDuration",
              "type": "uint48"
            }
          ],
          "internalType": "struct BasicRetailistJBParams",
          "name": "_data",
          "type": "tuple"
        },
        {
          "components": [
            {
              "internalType": "contract IJBPayDelegate3_1_1",
              "name": "delegate",
              "type": "address"
            },
            {
              "internalType": "uint256",
              "name": "amount",
              "type": "uint256"
            },
            {
              "internalType": "bytes",
              "name": "metadata",
              "type": "bytes"
            }
          ],
          "internalType": "struct JBPayDelegateAllocation3_1_1[]",
          "name": "_delegateAllocations",
          "type": "tuple[]"
        },
        {
          "internalType": "uint256",
          "name": "_metadata",
          "type": "uint256"
        }
      ],
      "name": "deployPayAllocatorProjectFor",
      "outputs": [
        {
          "internalType": "uint256",
          "name": "projectId",
          "type": "uint256"
        }
      ],
      "stateMutability": "nonpayable",
      "type": "function"
    },
    {
      "inputs": [
        {
          "internalType": "address",
          "name": "_operator",
          "type": "address"
        },
        {
          "components": [
            {
              "internalType": "string",
              "name": "content",
              "type": "string"
            },
            {
              "internalType": "uint256",
              "name": "domain",
              "type": "uint256"
            }
          ],
          "internalType": "struct JBProjectMetadata",
          "name": "_projectMetadata",
          "type": "tuple"
        },
        {
          "internalType": "string",
          "name": "_name",
          "type": "string"
        },
        {
          "internalType": "string",
          "name": "_symbol",
          "type": "string"
        },
        {
          "components": [
            {
              "internalType": "uint256",
              "name": "initialIssuanceRate",
              "type": "uint256"
            },
            {
              "internalType": "uint256",
              "name": "premintTokenAmount",
              "type": "uint256"
            },
            {
              "internalType": "uint256",
              "name": "discountRate",
              "type": "uint256"
            },
            {
              "internalType": "uint256",
              "name": "discountPeriod",
              "type": "uint256"
            },
            {
              "internalType": "uint256",
              "name": "redemptionRate",
              "type": "uint256"
            },
            {
              "internalType": "uint256",
              "name": "reservedRate",
              "type": "uint256"
            },
            {
              "internalType": "uint48",
              "name": "reservedRateDuration",
              "type": "uint48"
            }
          ],
          "internalType": "struct BasicRetailistJBParams",
          "name": "_data",
          "type": "tuple"
        },
        {
          "components": [
            {
              "internalType": "contract IJBPayDelegate3_1_1",
              "name": "delegate",
              "type": "address"
            },
            {
              "internalType": "uint256",
              "name": "amount",
              "type": "uint256"
            },
            {
              "internalType": "bytes",
              "name": "metadata",
              "type": "bytes"
            }
          ],
          "internalType": "struct JBPayDelegateAllocation3_1_1[]",
          "name": "_delegateAllocations",
          "type": "tuple[]"
        },
        {
          "internalType": "uint256",
          "name": "_metadata",
          "type": "uint256"
        },
        {
          "components": [
            {
              "internalType": "string",
              "name": "name",
              "type": "string"
            },
            {
              "internalType": "string",
              "name": "symbol",
              "type": "string"
            },
            {
              "internalType": "contract IJBFundingCycleStore",
              "name": "fundingCycleStore",
              "type": "address"
            },
            {
              "internalType": "string",
              "name": "baseUri",
              "type": "string"
            },
            {
              "internalType": "contract IJB721TokenUriResolver",
              "name": "tokenUriResolver",
              "type": "address"
            },
            {
              "internalType": "string",
              "name": "contractUri",
              "type": "string"
            },
            {
              "components": [
                {
                  "components": [
                    {
                      "internalType": "uint104",
                      "name": "price",
                      "type": "uint104"
                    },
                    {
                      "internalType": "uint32",
                      "name": "initialQuantity",
                      "type": "uint32"
                    },
                    {
                      "internalType": "uint32",
                      "name": "votingUnits",
                      "type": "uint32"
                    },
                    {
                      "internalType": "uint16",
                      "name": "reservedRate",
                      "type": "uint16"
                    },
                    {
                      "internalType": "address",
                      "name": "reservedTokenBeneficiary",
                      "type": "address"
                    },
                    {
                      "internalType": "bytes32",
                      "name": "encodedIPFSUri",
                      "type": "bytes32"
                    },
                    {
                      "internalType": "uint24",
                      "name": "category",
                      "type": "uint24"
                    },
                    {
                      "internalType": "bool",
                      "name": "allowManualMint",
                      "type": "bool"
                    },
                    {
                      "internalType": "bool",
                      "name": "shouldUseReservedTokenBeneficiaryAsDefault",
                      "type": "bool"
                    },
                    {
                      "internalType": "bool",
                      "name": "transfersPausable",
                      "type": "bool"
                    },
                    {
                      "internalType": "bool",
                      "name": "useVotingUnits",
                      "type": "bool"
                    }
                  ],
                  "internalType": "struct JB721TierParams[]",
                  "name": "tiers",
                  "type": "tuple[]"
                },
                {
                  "internalType": "uint48",
                  "name": "currency",
                  "type": "uint48"
                },
                {
                  "internalType": "uint48",
                  "name": "decimals",
                  "type": "uint48"
                },
                {
                  "internalType": "contract IJBPrices",
                  "name": "prices",
                  "type": "address"
                }
              ],
              "internalType": "struct JB721PricingParams",
              "name": "pricing",
              "type": "tuple"
            },
            {
              "internalType": "address",
              "name": "reservedTokenBeneficiary",
              "type": "address"
            },
            {
              "internalType": "contract IJBTiered721DelegateStore",
              "name": "store",
              "type": "address"
            },
            {
              "components": [
                {
                  "internalType": "bool",
                  "name": "lockReservedTokenChanges",
                  "type": "bool"
                },
                {
                  "internalType": "bool",
                  "name": "lockVotingUnitChanges",
                  "type": "bool"
                },
                {
                  "internalType": "bool",
                  "name": "lockManualMintingChanges",
                  "type": "bool"
                },
                {
                  "internalType": "bool",
                  "name": "preventOverspending",
                  "type": "bool"
                }
              ],
              "internalType": "struct JBTiered721Flags",
              "name": "flags",
              "type": "tuple"
            },
            {
              "internalType": "enum JB721GovernanceType",
              "name": "governanceType",
              "type": "uint8"
            }
          ],
          "internalType": "struct JBDeployTiered721DelegateData",
          "name": "_deployTiered721DelegateData",
          "type": "tuple"
        }
      ],
      "name": "deployTiered721PayAllocatorProjectFor",
      "outputs": [
        {
          "internalType": "uint256",
          "name": "projectId",
          "type": "uint256"
        }
      ],
      "stateMutability": "nonpayable",
      "type": "function"
    },
    {
      "inputs": [],
      "name": "directory",
      "outputs": [
        {
          "internalType": "contract IJBDirectory",
          "name": "",
          "type": "address"
        }
      ],
      "stateMutability": "view",
      "type": "function"
    },
    {
      "inputs": [
        {
          "internalType": "address",
          "name": "_operator",
          "type": "address"
        },
        {
          "internalType": "address",
          "name": "_from",
          "type": "address"
        },
        {
          "internalType": "uint256",
          "name": "_tokenId",
          "type": "uint256"
        },
        {
          "internalType": "bytes",
          "name": "_data",
          "type": "bytes"
        }
      ],
      "name": "onERC721Received",
      "outputs": [
        {
          "internalType": "bytes4",
          "name": "",
          "type": "bytes4"
        }
      ],
      "stateMutability": "view",
      "type": "function"
    },
    {
      "inputs": [
        {
          "components": [
            {
              "internalType": "contract IJBPaymentTerminal",
              "name": "terminal",
              "type": "address"
            },
            {
              "internalType": "address",
              "name": "payer",
              "type": "address"
            },
            {
              "components": [
                {
                  "internalType": "address",
                  "name": "token",
                  "type": "address"
                },
                {
                  "internalType": "uint256",
                  "name": "value",
                  "type": "uint256"
                },
                {
                  "internalType": "uint256",
                  "name": "decimals",
                  "type": "uint256"
                },
                {
                  "internalType": "uint256",
                  "name": "currency",
                  "type": "uint256"
                }
              ],
              "internalType": "struct JBTokenAmount",
              "name": "amount",
              "type": "tuple"
            },
            {
              "internalType": "uint256",
              "name": "projectId",
              "type": "uint256"
            },
            {
              "internalType": "uint256",
              "name": "currentFundingCycleConfiguration",
              "type": "uint256"
            },
            {
              "internalType": "address",
              "name": "beneficiary",
              "type": "address"
            },
            {
              "internalType": "uint256",
              "name": "weight",
              "type": "uint256"
            },
            {
              "internalType": "uint256",
              "name": "reservedRate",
              "type": "uint256"
            },
            {
              "internalType": "string",
              "name": "memo",
              "type": "string"
            },
            {
              "internalType": "bytes",
              "name": "metadata",
              "type": "bytes"
            }
          ],
          "internalType": "struct JBPayParamsData",
          "name": "_data",
          "type": "tuple"
        }
      ],
      "name": "payParams",
      "outputs": [
        {
          "internalType": "uint256",
          "name": "weight",
          "type": "uint256"
        },
        {
          "internalType": "string",
          "name": "memo",
          "type": "string"
        },
        {
          "components": [
            {
              "internalType": "contract IJBPayDelegate3_1_1",
              "name": "delegate",
              "type": "address"
            },
            {
              "internalType": "uint256",
              "name": "amount",
              "type": "uint256"
            },
            {
              "internalType": "bytes",
              "name": "metadata",
              "type": "bytes"
            }
          ],
          "internalType": "struct JBPayDelegateAllocation3_1_1[]",
          "name": "delegateAllocations",
          "type": "tuple[]"
        }
      ],
      "stateMutability": "view",
      "type": "function"
    },
    {
      "inputs": [
        {
          "internalType": "uint256",
          "name": "",
          "type": "uint256"
        }
      ],
      "name": "permissionIndexes",
      "outputs": [
        {
          "internalType": "uint256",
          "name": "",
          "type": "uint256"
        }
      ],
      "stateMutability": "view",
      "type": "function"
    },
    {
      "inputs": [
        {
          "internalType": "uint256",
          "name": "projectId",
          "type": "uint256"
        }
      ],
      "name": "reconfigurationStartTimestampOf",
      "outputs": [
        {
          "internalType": "uint256",
          "name": "",
          "type": "uint256"
        }
      ],
      "stateMutability": "view",
      "type": "function"
    },
    {
      "inputs": [
        {
          "components": [
            {
              "internalType": "contract IJBPaymentTerminal",
              "name": "terminal",
              "type": "address"
            },
            {
              "internalType": "address",
              "name": "holder",
              "type": "address"
            },
            {
              "internalType": "uint256",
              "name": "projectId",
              "type": "uint256"
            },
            {
              "internalType": "uint256",
              "name": "currentFundingCycleConfiguration",
              "type": "uint256"
            },
            {
              "internalType": "uint256",
              "name": "tokenCount",
              "type": "uint256"
            },
            {
              "internalType": "uint256",
              "name": "totalSupply",
              "type": "uint256"
            },
            {
              "internalType": "uint256",
              "name": "overflow",
              "type": "uint256"
            },
            {
              "components": [
                {
                  "internalType": "address",
                  "name": "token",
                  "type": "address"
                },
                {
                  "internalType": "uint256",
                  "name": "value",
                  "type": "uint256"
                },
                {
                  "internalType": "uint256",
                  "name": "decimals",
                  "type": "uint256"
                },
                {
                  "internalType": "uint256",
                  "name": "currency",
                  "type": "uint256"
                }
              ],
              "internalType": "struct JBTokenAmount",
              "name": "reclaimAmount",
              "type": "tuple"
            },
            {
              "internalType": "bool",
              "name": "useTotalOverflow",
              "type": "bool"
            },
            {
              "internalType": "uint256",
              "name": "redemptionRate",
              "type": "uint256"
            },
            {
              "internalType": "string",
              "name": "memo",
              "type": "string"
            },
            {
              "internalType": "bytes",
              "name": "metadata",
              "type": "bytes"
            }
          ],
          "internalType": "struct JBRedeemParamsData",
          "name": "_data",
          "type": "tuple"
        }
      ],
      "name": "redeemParams",
      "outputs": [
        {
          "internalType": "uint256",
          "name": "",
          "type": "uint256"
        },
        {
          "internalType": "string",
          "name": "",
          "type": "string"
        },
        {
          "components": [
            {
              "internalType": "contract IJBRedemptionDelegate3_1_1",
              "name": "delegate",
              "type": "address"
            },
            {
              "internalType": "uint256",
              "name": "amount",
              "type": "uint256"
            },
            {
              "internalType": "bytes",
              "name": "metadata",
              "type": "bytes"
            }
          ],
          "internalType": "struct JBRedemptionDelegateAllocation3_1_1[]",
          "name": "",
          "type": "tuple[]"
        }
      ],
      "stateMutability": "view",
      "type": "function"
    },
    {
      "inputs": [
        {
          "internalType": "uint256",
          "name": "_projectId",
          "type": "uint256"
        }
      ],
      "name": "scheduleReconfigurationOf",
      "outputs": [],
      "stateMutability": "nonpayable",
      "type": "function"
    },
    {
      "inputs": [
        {
          "internalType": "bytes4",
          "name": "_interfaceId",
          "type": "bytes4"
        }
      ],
      "name": "supportsInterface",
      "outputs": [
        {
          "internalType": "bool",
          "name": "",
          "type": "bool"
        }
      ],
      "stateMutability": "view",
      "type": "function"
    },
    {
      "inputs": [
        {
          "internalType": "uint256",
          "name": "",
          "type": "uint256"
        }
      ],
      "name": "terminals",
      "outputs": [
        {
          "internalType": "contract IJBPaymentTerminal",
          "name": "",
          "type": "address"
        }
      ],
      "stateMutability": "view",
      "type": "function"
    }
  ],
  "bytecode": {
    "object": "0x60e06040523480156200001157600080fd5b5060405162004762380380620047628339810160408190526200003491620000e1565b6001600160a01b0391821660805260008054600180820183557f290decd9548b62a8d60345a988386fc84ba6bc95484008f6362f93160ef3e56390910180546001600160a01b031916938516939093179092558154808301835591905260127fb10e2d527612073b26eecdfd717e6a320cf44b4afac2b0732d9fcbe2b7fa0cf69091015591821660a0521660c05262000149565b6001600160a01b0381168114620000de57600080fd5b50565b60008060008060808587031215620000f857600080fd5b84516200010581620000c8565b60208601519094506200011881620000c8565b60408601519093506200012b81620000c8565b60608601519092506200013e81620000c8565b939692955090935050565b60805160a05160c051614579620001e960003960008181610217015261214101526000818161029501528181612035015261217f0152600081816103140152818161059f015281816106af015281816107c501528181610a0801528181610aca01528181610cf401528181610e4d01528181611000015281816112db015281816113eb01528181611545015281816117ca015261188a01526145796000f3fe608060405234801561001057600080fd5b50600436106101005760003560e01c80639483e77111610097578063d46cf17111610066578063d46cf171146102b7578063ef8eadd5146102d9578063f77c47911461030f578063f7f221441461033657600080fd5b80639483e77114610239578063a51cfd181461024c578063abc603e31461026e578063c41c2f241461029057600080fd5b80633ce6d3e2116100d35780633ce6d3e2146101ca578063560f7b03146101df5780638a7cf022146101ff5780638f3d964b1461021257600080fd5b806301ffc9a7146101055780630219758e1461012d5780630e53d9cc14610165578063150b7a0214610186575b600080fd5b610118610113366004612353565b610349565b60405190151581526020015b60405180910390f35b61014061013b36600461239c565b6103e2565b60405173ffffffffffffffffffffffffffffffffffffffff9091168152602001610124565b61017861017336600461244b565b610419565b604051908152602001610124565b61019961019436600461250d565b610cf0565b6040517fffffffff000000000000000000000000000000000000000000000000000000009091168152602001610124565b6101dd6101d836600461239c565b610e04565b005b6101786101ed36600461239c565b60026020526000908152604090205481565b61017861020d3660046128aa565b611155565b6101407f000000000000000000000000000000000000000000000000000000000000000081565b61017861024736600461239c565b611b7c565b61025f61025a366004612986565b611b9d565b60405161012493929190612a30565b61028161027c366004612af9565b611c05565b60405161012493929190612b1b565b6101407f000000000000000000000000000000000000000000000000000000000000000081565b6102ca6102c5366004612b59565b611ce8565b60405161012493929190612b95565b6101406102e736600461239c565b60036020526000908152604090205473ffffffffffffffffffffffffffffffffffffffff1681565b6101407f000000000000000000000000000000000000000000000000000000000000000081565b610178610344366004612ca4565b612031565b60007fffffffff0000000000000000000000000000000000000000000000000000000082167f71700c690000000000000000000000000000000000000000000000000000000014806103dc57507f150b7a02000000000000000000000000000000000000000000000000000000007fffffffff000000000000000000000000000000000000000000000000000000008316145b92915050565b600081815481106103f257600080fd5b60009182526020909120015473ffffffffffffffffffffffffffffffffffffffff16905081565b604080516001808252818301909252600091829190816020015b60408051808201909152600081526060602082015281526020019060019003908161043357505060408051600180825281830190925291925060009190602082015b6040805160e08101825260008082526020808301829052928201819052606082018190526080820181905260a0820181905260c082015282527fffffffffffffffffffffffffffffffffffffffffffffffffffffffffffffffff9092019101816104755790505090506040518060e00160405280600015158152602001600015158152602001633b9aca008152602001600081526020018b73ffffffffffffffffffffffffffffffffffffffff16815260200160008152602001600073ffffffffffffffffffffffffffffffffffffffff168152508160018151811061055d5761055d612daa565b6020026020010181905250604051806040016040528060028152602001828152508260008151811061059157610591612daa565b6020026020010181905250507f000000000000000000000000000000000000000000000000000000000000000073ffffffffffffffffffffffffffffffffffffffff16638b79543c6040518163ffffffff1660e01b8152600401602060405180830381865afa158015610608573d6000803e3d6000fd5b505050506040513d601f19601f8201168201806040525081019061062c9190612dd9565b73ffffffffffffffffffffffffffffffffffffffff1663666d87a0308a6040518363ffffffff1660e01b8152600401610666929190612ea3565b6020604051808303816000875af1158015610685573d6000803e3d6000fd5b505050506040513d601f19601f820116820180604052508101906106a99190612efb565b915060007f000000000000000000000000000000000000000000000000000000000000000073ffffffffffffffffffffffffffffffffffffffff1663619306306040518163ffffffff1660e01b8152600401602060405180830381865afa158015610718573d6000803e3d6000fd5b505050506040513d601f19601f8201168201806040525081019061073c9190612dd9565b73ffffffffffffffffffffffffffffffffffffffff1663a7f2a70b848a8a8a8a6040518663ffffffff1660e01b815260040161077c959493929190612f14565b6020604051808303816000875af115801561079b573d6000803e3d6000fd5b505050506040513d601f19601f820116820180604052508101906107bf9190612dd9565b905060007f000000000000000000000000000000000000000000000000000000000000000073ffffffffffffffffffffffffffffffffffffffff1663111d861b8560405180608001604052808960600135815260200160128a60000135610826919061309c565b815260408a810135602080840191909152600092820183905281516102a081018352610240810184815261026082018590526102808201859052815260a0808e0135828401526080808f013583860152606083018690528201859052810184905260c0810184905260e081018490526001610100820181905261012082018590526101408201859052610160820185905261018082018590526101a082018590526101c08201526101e0810184905273ffffffffffffffffffffffffffffffffffffffff891661020082015261022081018490528251848152918201909252909190899082610988565b6109756040518060c00160405280600073ffffffffffffffffffffffffffffffffffffffff168152602001600073ffffffffffffffffffffffffffffffffffffffff168152602001600081526020016000815260200160008152602001600081525090565b8152602001906001900390816109105790505b5060006040518863ffffffff1660e01b81526004016109ad9796959493929190613392565b6020604051808303816000875af11580156109cc573d6000803e3d6000fd5b505050506040513d601f19601f820116820180604052508101906109f09190612efb565b5073ffffffffffffffffffffffffffffffffffffffff7f000000000000000000000000000000000000000000000000000000000000000016638ae9c07b85610a3d601260208a013561309c565b8e8b8b604051602001610a519291906134b3565b6040516020818303038152906040526000806040518763ffffffff1660e01b8152600401610a8496959493929190613510565b6020604051808303816000875af1158015610aa3573d6000803e3d6000fd5b505050506040513d601f19601f82011682018060405250810190610ac79190612efb565b507f000000000000000000000000000000000000000000000000000000000000000073ffffffffffffffffffffffffffffffffffffffff16632bdfe0046040518163ffffffff1660e01b8152600401602060405180830381865afa158015610b33573d6000803e3d6000fd5b505050506040513d601f19601f82011682018060405250810190610b579190612dd9565b73ffffffffffffffffffffffffffffffffffffffff1663ad007d636040518163ffffffff1660e01b8152600401602060405180830381865afa158015610ba1573d6000803e3d6000fd5b505050506040513d601f19601f82011682018060405250810190610bc59190612dd9565b73ffffffffffffffffffffffffffffffffffffffff1663529cdd2e60405180606001604052808e73ffffffffffffffffffffffffffffffffffffffff1681526020018781526020016001805480602002602001604051908101604052809291908181526020018280548015610c5957602002820191906000526020600020905b815481526020019060010190808311610c45575b50505050508152506040518263ffffffff1660e01b8152600401610c7d9190613565565b600060405180830381600087803b158015610c9757600080fd5b505af1158015610cab573d6000803e3d6000fd5b50610cc09250505060e0860160c087016135ec565b610cd29065ffffffffffff1642613607565b60008581526002602052604090205550919998505050505050505050565b60007f000000000000000000000000000000000000000000000000000000000000000073ffffffffffffffffffffffffffffffffffffffff16638b79543c6040518163ffffffff1660e01b8152600401602060405180830381865afa158015610d5d573d6000803e3d6000fd5b505050506040513d601f19601f82011682018060405250810190610d819190612dd9565b73ffffffffffffffffffffffffffffffffffffffff163373ffffffffffffffffffffffffffffffffffffffff1614610db857600080fd5b73ffffffffffffffffffffffffffffffffffffffff851615610dd957600080fd5b507f150b7a020000000000000000000000000000000000000000000000000000000095945050505050565b6040517f1f51045300000000000000000000000000000000000000000000000000000000815260048101829052600090819073ffffffffffffffffffffffffffffffffffffffff7f00000000000000000000000000000000000000000000000000000000000000001690631f510453906024016103c060405180830381865afa158015610e95573d6000803e3d6000fd5b505050506040513d601f19601f82011682018060405250810190610eb991906137ef565b5081519193509150600114610efa576040517fc97554fa00000000000000000000000000000000000000000000000000000000815260040160405180910390fd5b60408051608080820183528481015182526000602080840182905260c08088015185870152606080860184905286516102a0810188526102408101858152610260820186905261028082018690528152808401859052888801518189015290810184905293840183905260a08401839052830182905260e08301829052610100830182905261012083018290526101408301829052610160830182905261018083018290526101a083018290526101c083018290526101e083018290526102008087015173ffffffffffffffffffffffffffffffffffffffff908116918501919091526102208781015190850152888352600282528583205486518481529283019096527f0000000000000000000000000000000000000000000000000000000000000000169463badbdf28948994909390929061105b565b6040805180820190915260008152606060208201528152602001906001900390816110335790505b5060408051600080825260208201909252906110ea565b6110d76040518060c00160405280600073ffffffffffffffffffffffffffffffffffffffff168152602001600073ffffffffffffffffffffffffffffffffffffffff168152602001600081526020016000815260200160008152602001600081525090565b8152602001906001900390816110725790505b506040518763ffffffff1660e01b815260040161110c969594939291906138a6565b6020604051808303816000875af115801561112b573d6000803e3d6000fd5b505050506040513d601f19601f8201168201806040525081019061114f9190612efb565b50505050565b604080516001808252818301909252600091829190816020015b60408051808201909152600081526060602082015281526020019060019003908161116f57505060408051600180825281830190925291925060009190602082015b6040805160e08101825260008082526020808301829052928201819052606082018190526080820181905260a0820181905260c082015282527fffffffffffffffffffffffffffffffffffffffffffffffffffffffffffffffff9092019101816111b15790505090506040518060e00160405280600015158152602001600015158152602001633b9aca008152602001600081526020018b73ffffffffffffffffffffffffffffffffffffffff16815260200160008152602001600073ffffffffffffffffffffffffffffffffffffffff168152508160018151811061129957611299612daa565b602002602001018190525060405180604001604052806002815260200182815250826000815181106112cd576112cd612daa565b6020026020010181905250507f000000000000000000000000000000000000000000000000000000000000000073ffffffffffffffffffffffffffffffffffffffff16638b79543c6040518163ffffffff1660e01b8152600401602060405180830381865afa158015611344573d6000803e3d6000fd5b505050506040513d601f19601f820116820180604052508101906113689190612dd9565b73ffffffffffffffffffffffffffffffffffffffff1663666d87a0308a6040518363ffffffff1660e01b81526004016113a292919061399a565b6020604051808303816000875af11580156113c1573d6000803e3d6000fd5b505050506040513d601f19601f820116820180604052508101906113e59190612efb565b915060007f000000000000000000000000000000000000000000000000000000000000000073ffffffffffffffffffffffffffffffffffffffff1663619306306040518163ffffffff1660e01b8152600401602060405180830381865afa158015611454573d6000803e3d6000fd5b505050506040513d601f19601f820116820180604052508101906114789190612dd9565b73ffffffffffffffffffffffffffffffffffffffff1663a7f2a70b848a8a6040518463ffffffff1660e01b81526004016114b4939291906139e8565b6020604051808303816000875af11580156114d3573d6000803e3d6000fd5b505050506040513d601f19601f820116820180604052508101906114f79190612dd9565b600084815260036020908152604080832080547fffffffffffffffffffffffff000000000000000000000000000000000000000016905580516080810190915260608a0135815292935090917f000000000000000000000000000000000000000000000000000000000000000073ffffffffffffffffffffffffffffffffffffffff169163111d861b918791810161159160128d3561309c565b81526020018b604001358152602001600073ffffffffffffffffffffffffffffffffffffffff1681525060405180610240016040528060405180606001604052806000151581526020016000151581526020016000151581525081526020018c60a0013581526020018c608001358152602001600081526020016000151581526020016000151581526020016000151581526020016000151581526020016001151581526020016000151581526020016000151581526020016000151581526020016000151581526020016000151581526020016001151581526020016000151581526020013073ffffffffffffffffffffffffffffffffffffffff1681526020018a815250600088600067ffffffffffffffff8111156116b4576116b4612580565b60405190808252806020026020018201604052801561174a57816020015b6117376040518060c00160405280600073ffffffffffffffffffffffffffffffffffffffff168152602001600073ffffffffffffffffffffffffffffffffffffffff168152602001600081526020016000815260200160008152602001600081525090565b8152602001906001900390816116d25790505b5060006040518863ffffffff1660e01b815260040161176f9796959493929190613392565b6020604051808303816000875af115801561178e573d6000803e3d6000fd5b505050506040513d601f19601f820116820180604052508101906117b29190612efb565b5073ffffffffffffffffffffffffffffffffffffffff7f000000000000000000000000000000000000000000000000000000000000000016638ae9c07b856117ff601260208c013561309c565b8e8c6040516020016118119190613a1d565b6040516020818303038152906040526000806040518763ffffffff1660e01b815260040161184496959493929190613510565b6020604051808303816000875af1158015611863573d6000803e3d6000fd5b505050506040513d601f19601f820116820180604052508101906118879190612efb565b507f000000000000000000000000000000000000000000000000000000000000000073ffffffffffffffffffffffffffffffffffffffff16632bdfe0046040518163ffffffff1660e01b8152600401602060405180830381865afa1580156118f3573d6000803e3d6000fd5b505050506040513d601f19601f820116820180604052508101906119179190612dd9565b73ffffffffffffffffffffffffffffffffffffffff1663ad007d636040518163ffffffff1660e01b8152600401602060405180830381865afa158015611961573d6000803e3d6000fd5b505050506040513d601f19601f820116820180604052508101906119859190612dd9565b73ffffffffffffffffffffffffffffffffffffffff1663529cdd2e60405180606001604052808e73ffffffffffffffffffffffffffffffffffffffff1681526020018781526020016001805480602002602001604051908101604052809291908181526020018280548015611a1957602002820191906000526020600020905b815481526020019060010190808311611a05575b50505050508152506040518263ffffffff1660e01b8152600401611a3d9190613565565b600060405180830381600087803b158015611a5757600080fd5b505af1158015611a6b573d6000803e3d6000fd5b50611a809250505060e0880160c089016135ec565b611a929065ffffffffffff1642613607565b6000858152600260205260408120919091558651905b81811015611b6c57878181518110611ac257611ac2612daa565b6020026020010151600460008881526020019081526020016000208281548110611aee57611aee612daa565b600091825260209182902083516003929092020180547fffffffffffffffffffffffff00000000000000000000000000000000000000001673ffffffffffffffffffffffffffffffffffffffff90921691909117815590820151600182015560408201516002820190611b619082613b25565b505050600101611aa8565b5050505050979650505050505050565b60018181548110611b8c57600080fd5b600091825260209091200154905081565b604080516000808252602082019092526060908190839081611be9565b60408051606080820183526000808352602083015291810191909152815260200190600190039081611bba5790505b5060408051602081019091526000815291969195509350915050565b60046020528160005260406000208181548110611c2157600080fd5b600091825260209091206003909102018054600182015460028301805473ffffffffffffffffffffffffffffffffffffffff909316955090935090611c6590613a89565b80601f0160208091040260200160405190810160405280929190818152602001828054611c9190613a89565b8015611cde5780601f10611cb357610100808354040283529160200191611cde565b820191906000526020600020905b815481529060010190602001808311611cc157829003601f168201915b5050505050905083565b60c08101356000908152600360205260408082205490517fd46cf1710000000000000000000000000000000000000000000000000000000081526060918291829173ffffffffffffffffffffffffffffffffffffffff169063d46cf17190611d54908890600401613c81565b600060405180830381865afa158015611d71573d6000803e3d6000fd5b505050506040513d6000823e601f3d9081017fffffffffffffffffffffffffffffffffffffffffffffffffffffffffffffffe0168201604052611db79190810190613df5565b60c088013560009081526004602090815260408083208054825181850281018501909352808352969a509396509194919350849084015b82821015611edf5760008481526020908190206040805160608101825260038602909201805473ffffffffffffffffffffffffffffffffffffffff16835260018101549383019390935260028301805492939291840191611e4e90613a89565b80601f0160208091040260200160405190810160405280929190818152602001828054611e7a90613a89565b8015611ec75780601f10611e9c57610100808354040283529160200191611ec7565b820191906000526020600020905b815481529060010190602001808311611eaa57829003601f168201915b50505050508152505081526020019060010190611dee565b50508251929350611ef591508290506001613607565b67ffffffffffffffff811115611f0d57611f0d612580565b604051908082528060200260200182016040528015611f5a57816020015b60408051606080820183526000808352602083015291810191909152815260200190600190039081611f2b5790505b50935060005b81811015611fa757828181518110611f7a57611f7a612daa565b6020026020010151858281518110611f9457611f94612daa565b6020908102919091010152600101611f60565b5082600081518110611fbb57611fbb612daa565b6020026020010151848281518110611fd557611fd5612daa565b6020908102919091010152611fee610160880188613f6e565b8080601f016020809104026020016040519081016040528093929190818152602001838380828437600092019190915250989a9299509597509095505050505050565b60007f000000000000000000000000000000000000000000000000000000000000000073ffffffffffffffffffffffffffffffffffffffff16638b79543c6040518163ffffffff1660e01b8152600401602060405180830381865afa15801561209e573d6000803e3d6000fd5b505050506040513d601f19601f820116820180604052508101906120c29190612dd9565b73ffffffffffffffffffffffffffffffffffffffff166306661abd6040518163ffffffff1660e01b8152600401602060405180830381865afa15801561210c573d6000803e3d6000fd5b505050506040513d601f19601f820116820180604052508101906121309190612efb565b61213b906001613607565b905060007f000000000000000000000000000000000000000000000000000000000000000073ffffffffffffffffffffffffffffffffffffffff1663cb5720fb83857f00000000000000000000000000000000000000000000000000000000000000006040518463ffffffff1660e01b81526004016121bc93929190614304565b6020604051808303816000875af11580156121db573d6000803e3d6000fd5b505050506040513d601f19601f820116820180604052508101906121ff9190612dd9565b905084600061220f826001613607565b67ffffffffffffffff81111561222757612227612580565b60405190808252806020026020018201604052801561227457816020015b604080516060808201835260008083526020830152918101919091528152602001906001900390816122455790505b50905060005b828110156122d45788888281811061229457612294612daa565b90506020028101906122a691906144f9565b6122af90614537565b8282815181106122c1576122c1612daa565b602090810291909101015260010161227a565b5060405180606001604052808473ffffffffffffffffffffffffffffffffffffffff168152602001600081526020016040518060200160405280600081525081525081838151811061232857612328612daa565b60200260200101819052506123428d8d8d8d8d868c611155565b9d9c50505050505050505050505050565b60006020828403121561236557600080fd5b81357fffffffff000000000000000000000000000000000000000000000000000000008116811461239557600080fd5b9392505050565b6000602082840312156123ae57600080fd5b5035919050565b73ffffffffffffffffffffffffffffffffffffffff811681146123d757600080fd5b50565b80356123e5816123b5565b919050565b60008083601f8401126123fc57600080fd5b50813567ffffffffffffffff81111561241457600080fd5b60208301915083602082850101111561242c57600080fd5b9250929050565b600060e0828403121561244557600080fd5b50919050565b6000806000806000806000610160888a03121561246757600080fd5b8735612472816123b5565b9650602088013567ffffffffffffffff8082111561248f57600080fd5b908901906040828c0312156124a357600080fd5b909650604089013590808211156124b957600080fd5b6124c58b838c016123ea565b909750955060608a01359150808211156124de57600080fd5b506124eb8a828b016123ea565b90945092506124ff90508960808a01612433565b905092959891949750929550565b60008060008060006080868803121561252557600080fd5b8535612530816123b5565b94506020860135612540816123b5565b935060408601359250606086013567ffffffffffffffff81111561256357600080fd5b61256f888289016123ea565b969995985093965092949392505050565b7f4e487b7100000000000000000000000000000000000000000000000000000000600052604160045260246000fd5b6040516060810167ffffffffffffffff811182821017156125d2576125d2612580565b60405290565b604051610240810167ffffffffffffffff811182821017156125d2576125d2612580565b604051610120810167ffffffffffffffff811182821017156125d2576125d2612580565b604051601f82017fffffffffffffffffffffffffffffffffffffffffffffffffffffffffffffffe016810167ffffffffffffffff8111828210171561266757612667612580565b604052919050565b600067ffffffffffffffff82111561268957612689612580565b50601f017fffffffffffffffffffffffffffffffffffffffffffffffffffffffffffffffe01660200190565b60006126c86126c38461266f565b612620565b90508281528383830111156126dc57600080fd5b828260208301376000602084830101529392505050565b600082601f83011261270457600080fd5b612395838335602085016126b5565b60006040828403121561272557600080fd5b6040516040810167ffffffffffffffff828210818311171561274957612749612580565b81604052829350843591508082111561276157600080fd5b5061276e858286016126f3565b825250602083013560208201525092915050565b600067ffffffffffffffff82111561279c5761279c612580565b5060051b60200190565b6000606082840312156127b857600080fd5b6127c06125af565b905081356127cd816123b5565b815260208281013590820152604082013567ffffffffffffffff8111156127f357600080fd5b8201601f8101841361280457600080fd5b612813848235602084016126b5565b60408301525092915050565b600082601f83011261283057600080fd5b813560206128406126c383612782565b82815260059290921b8401810191818101908684111561285f57600080fd5b8286015b8481101561289f57803567ffffffffffffffff8111156128835760008081fd5b6128918986838b01016127a6565b845250918301918301612863565b509695505050505050565b60008060008060008060006101a0888a0312156128c657600080fd5b6128cf886123da565b9650602088013567ffffffffffffffff808211156128ec57600080fd5b6128f88b838c01612713565b975060408a013591508082111561290e57600080fd5b61291a8b838c016126f3565b965060608a013591508082111561293057600080fd5b61293c8b838c016126f3565b955061294b8b60808c01612433565b94506101608a013591508082111561296257600080fd5b5061296f8a828b0161281f565b925050610180880135905092959891949750929550565b60006020828403121561299857600080fd5b813567ffffffffffffffff8111156129af57600080fd5b82016101e0818503121561239557600080fd5b60005b838110156129dd5781810151838201526020016129c5565b50506000910152565b600081518084526129fe8160208601602086016129c2565b601f017fffffffffffffffffffffffffffffffffffffffffffffffffffffffffffffffe0169290920160200192915050565b6000606085835260208181850152612a4a828501876129e6565b6040858203818701528187518084528484019150848160051b850101858a0160005b83811015612ae7578683037fffffffffffffffffffffffffffffffffffffffffffffffffffffffffffffffe00185528151805173ffffffffffffffffffffffffffffffffffffffff16845288810151898501528601518684018a9052612ad48a8501826129e6565b9589019593505090870190600101612a6c565b50909c9b505050505050505050505050565b60008060408385031215612b0c57600080fd5b50508035926020909101359150565b73ffffffffffffffffffffffffffffffffffffffff84168152826020820152606060408201526000612b5060608301846129e6565b95945050505050565b600060208284031215612b6b57600080fd5b813567ffffffffffffffff811115612b8257600080fd5b82016101a0818503121561239557600080fd5b6000606085835260208181850152612baf828501876129e6565b6040858203818701528187518084528484019150848160051b850101858a0160005b83811015612ae7578683037fffffffffffffffffffffffffffffffffffffffffffffffffffffffffffffffe00185528151805173ffffffffffffffffffffffffffffffffffffffff16845288810151898501528601518684018a9052612c398a8501826129e6565b9589019593505090870190600101612bd1565b60008083601f840112612c5e57600080fd5b50813567ffffffffffffffff811115612c7657600080fd5b6020830191508360208260051b850101111561242c57600080fd5b60006101c0828403121561244557600080fd5b60008060008060008060008060006101c08a8c031215612cc357600080fd5b612ccc8a6123da565b985060208a013567ffffffffffffffff80821115612ce957600080fd5b612cf58d838e01612713565b995060408c0135915080821115612d0b57600080fd5b612d178d838e016126f3565b985060608c0135915080821115612d2d57600080fd5b612d398d838e016126f3565b9750612d488d60808e01612433565b96506101608c0135915080821115612d5f57600080fd5b612d6b8d838e01612c4c565b90965094506101808c013593506101a08c0135915080821115612d8d57600080fd5b50612d9a8c828d01612c91565b9150509295985092959850929598565b7f4e487b7100000000000000000000000000000000000000000000000000000000600052603260045260246000fd5b600060208284031215612deb57600080fd5b8151612395816123b5565b60008083357fffffffffffffffffffffffffffffffffffffffffffffffffffffffffffffffe1843603018112612e2b57600080fd5b830160208101925035905067ffffffffffffffff811115612e4b57600080fd5b80360382131561242c57600080fd5b8183528181602085013750600060208284010152600060207fffffffffffffffffffffffffffffffffffffffffffffffffffffffffffffffe0601f840116840101905092915050565b73ffffffffffffffffffffffffffffffffffffffff83168152604060208201526000612ecf8384612df6565b604080850152612ee3608085018284612e5a565b91505060208401356060840152809150509392505050565b600060208284031215612f0d57600080fd5b5051919050565b858152606060208201526000612f2e606083018688612e5a565b8281036040840152612f41818587612e5a565b98975050505050505050565b7f4e487b7100000000000000000000000000000000000000000000000000000000600052601160045260246000fd5b600181815b80851115612fd557817fffffffffffffffffffffffffffffffffffffffffffffffffffffffffffffffff04821115612fbb57612fbb612f4d565b80851615612fc857918102915b93841c9390800290612f81565b509250929050565b600082612fec575060016103dc565b81612ff9575060006103dc565b816001811461300f576002811461301957613035565b60019150506103dc565b60ff84111561302a5761302a612f4d565b50506001821b6103dc565b5060208310610133831016604e8410600b8410161715613058575081810a6103dc565b6130628383612f7c565b807fffffffffffffffffffffffffffffffffffffffffffffffffffffffffffffffff0482111561309457613094612f4d565b029392505050565b600061239560ff841683612fdd565b6130d08282518051151582526020808201511515908301526040908101511515910152565b6020810151606083015260408101516080830152606081015160a0830152608081015161310160c084018215159052565b5060a081015180151560e08401525060c08101516101006131258185018315159052565b60e0830151915061012061313c8186018415159052565b908301519150610140906131538583018415159052565b83015191506101606131688582018415159052565b9083015191506101809061317f8583018415159052565b83015191506101a06131948582018415159052565b9083015191506101c0906131ab8583018415159052565b83015191506101e06131c08582018415159052565b908301519150610200906131d78583018415159052565b83015191506102206131ec8582018415159052565b9083015173ffffffffffffffffffffffffffffffffffffffff16610240850152909101516102609092019190915250565b600081518084526020808501808196508360051b810191508286016000805b868110156132fc578385038a52825180518652860151604087870181905281518188018190529188019160609081890190865b818110156132e55785518051151584528c81015115158d8501528581015186850152848101518585015260808082015173ffffffffffffffffffffffffffffffffffffffff9081169186019190915260a0808301519086015260c0918201511690840152948b019460e09092019160010161326f565b50509c89019c97505050928601925060010161323c565b509298975050505050505050565b600081518084526020808501945080840160005b83811015613387578151805173ffffffffffffffffffffffffffffffffffffffff908116895284820151168489015260408082015190890152606080820151908901526080808201519089015260a0908101519088015260c0909601959082019060010161331e565b509495945050505050565b60006103c089835260206133df8185018b80518252602081015160208301526040810151604083015273ffffffffffffffffffffffffffffffffffffffff60608201511660608301525050565b6133ec60a085018a6130ab565b87610320850152816103408501526134068285018861321d565b915083820361036085015261341b828761330a565b848103610380860152855480825260008781528381209450918301915b8181101561346a57845473ffffffffffffffffffffffffffffffffffffffff1683526001948501949284019201613438565b50508481036103a0860152601b81527f4465706c6f7965642052657461696c69737420747265617375727900000000006020820152604081019c9b505050505050505050505050565b7f5072656d696e746564200000000000000000000000000000000000000000000081528183600a8301377f20746f6b656e732e0000000000000000000000000000000000000000000000009101600a810191909152601201919050565b86815285602082015273ffffffffffffffffffffffffffffffffffffffff8516604082015260c06060820152600061354b60c08301866129e6565b93151560808301525090151560a090910152949350505050565b600060208083526080830173ffffffffffffffffffffffffffffffffffffffff85511682850152818501516040850152604085015160608086015281815180845260a0870191508483019350600092505b8083101561289f57835182529284019260019290920191908401906135b6565b803565ffffffffffff811681146123e557600080fd5b6000602082840312156135fe57600080fd5b612395826135d6565b808201808211156103dc576103dc612f4d565b80516123e5816123b5565b80151581146123d757600080fd5b80516123e581613625565b60006060828403121561365057600080fd5b6136586125af565b9050815161366581613625565b8152602082015161367581613625565b6020820152604082015161368881613625565b604082015292915050565b600061028082840312156136a657600080fd5b6136ae6125d8565b90506136ba838361363e565b8152606082015160208201526080820151604082015260a082015160608201526136e660c08301613633565b60808201526136f760e08301613633565b60a082015261010061370a818401613633565b60c083015261012061371d818501613633565b60e0840152610140613730818601613633565b838501526101609250613744838601613633565b828501526101809150613758828601613633565b908401526101a061376a858201613633565b838501526101c0925061377e838601613633565b828501526101e09150613792828601613633565b908401526102006137a4858201613633565b8385015261022092506137b8838601613633565b828501526137c9610240860161361a565b818501525050610260830151818301525092915050565b8051600381106123e557600080fd5b60008060008385036103c081121561380657600080fd5b6101208082121561381657600080fd5b61381e6125fc565b9150855182526020860151602083015260408601516040830152606086015160608301526080860151608083015260a086015160a083015260c086015160c083015261386c60e0870161361a565b60e083015261010080870151818401525081945061388c87828801613693565b9350505061389d6103a085016137e0565b90509250925092565b60006103a08883526138f2602084018980518252602081015160208301526040810151604083015273ffffffffffffffffffffffffffffffffffffffff60608201511660608301525050565b6138ff60a08401886130ab565b85610320840152806103408401526139198184018661321d565b905082810361036084015261392e818561330a565b838103610380909401939093525050603481527f5363686564756c6564207265736572766564207261746520657870697279206f60208201527f662052657461696c69737420747265617375727900000000000000000000000060408201526060019695505050505050565b73ffffffffffffffffffffffffffffffffffffffff8316815260406020820152600082516040808401526139d160808401826129e6565b905060208401516060840152809150509392505050565b838152606060208201526000613a0160608301856129e6565b8281036040840152613a1381856129e6565b9695505050505050565b7f5072656d696e7465642000000000000000000000000000000000000000000000815260008251613a5581600a8501602087016129c2565b7f20746f6b656e732e000000000000000000000000000000000000000000000000600a939091019283015250601201919050565b600181811c90821680613a9d57607f821691505b602082108103612445577f4e487b7100000000000000000000000000000000000000000000000000000000600052602260045260246000fd5b601f821115613b2057600081815260208120601f850160051c81016020861015613afd5750805b601f850160051c820191505b81811015613b1c57828155600101613b09565b5050505b505050565b815167ffffffffffffffff811115613b3f57613b3f612580565b613b5381613b4d8454613a89565b84613ad6565b602080601f831160018114613ba65760008415613b705750858301515b7fffffffffffffffffffffffffffffffffffffffffffffffffffffffffffffffff600386901b1c1916600185901b178555613b1c565b6000858152602081207fffffffffffffffffffffffffffffffffffffffffffffffffffffffffffffffe08616915b82811015613bf357888601518255948401946001909101908401613bd4565b5085821015613c2f57878501517fffffffffffffffffffffffffffffffffffffffffffffffffffffffffffffffff600388901b60f8161c191681555b5050505050600190811b01905550565b8035613c4a816123b5565b73ffffffffffffffffffffffffffffffffffffffff1682526020818101359083015260408082013590830152606090810135910152565b60208152613caf60208201613c95846123da565b73ffffffffffffffffffffffffffffffffffffffff169052565b6000613cbd602084016123da565b73ffffffffffffffffffffffffffffffffffffffff8116604084015250613cea6060830160408501613c3f565b60c083013560e083015261010060e084013581840152613d0b8185016123da565b9050610120613d318185018373ffffffffffffffffffffffffffffffffffffffff169052565b61014091508085013582850152506101608185013581850152613d5681860186612df6565b925090506101a06101808181870152613d746101c087018585612e5a565b9350613d8281880188612df6565b935090507fffffffffffffffffffffffffffffffffffffffffffffffffffffffffffffffe08685030182870152613dba848483612e5a565b979650505050505050565b6000613dd36126c38461266f565b9050828152838383011115613de757600080fd5b6123958360208301846129c2565b600080600060608486031215613e0a57600080fd5b8351925060208085015167ffffffffffffffff80821115613e2a57600080fd5b818701915087601f830112613e3e57600080fd5b613e4c888351858501613dc5565b94506040870151915080821115613e6257600080fd5b818701915087601f830112613e7657600080fd5b8151613e846126c382612782565b81815260059190911b8301840190848101908a831115613ea357600080fd5b8585015b83811015613f5d57805185811115613ebe57600080fd5b86016060818e037fffffffffffffffffffffffffffffffffffffffffffffffffffffffffffffffe0011215613ef257600080fd5b613efa6125af565b88820151613f07816123b5565b8152604082015189820152606082015187811115613f2457600080fd5b8083019250508d603f830112613f3957600080fd5b613f4a8e8a84015160408501613dc5565b6040820152845250918601918601613ea7565b508096505050505050509250925092565b60008083357fffffffffffffffffffffffffffffffffffffffffffffffffffffffffffffffe1843603018112613fa357600080fd5b83018035915067ffffffffffffffff821115613fbe57600080fd5b60200191503681900382131561242c57600080fd5b600082357fffffffffffffffffffffffffffffffffffffffffffffffffffffffffffffff8183360301811261400757600080fd5b90910192915050565b80356cffffffffffffffffffffffffff811681146123e557600080fd5b803563ffffffff811681146123e557600080fd5b803561ffff811681146123e557600080fd5b803562ffffff811681146123e557600080fd5b80356123e581613625565b6000608080840183357fffffffffffffffffffffffffffffffffffffffffffffffffffffffffffffffe18536030181126140aa57600080fd5b8401602081810191359067ffffffffffffffff8211156140c957600080fd5b61016080830236038413156140dd57600080fd5b8589529382905260a09384890160005b848110156141f8576141158261410288614010565b6cffffffffffffffffffffffffff169052565b61412084870161402d565b63ffffffff1684830152604061413787820161402d565b63ffffffff1690830152606061414e878201614041565b61ffff16908301526141618689016123da565b73ffffffffffffffffffffffffffffffffffffffff1688830152858701358783015260c0614190818801614053565b62ffffff169083015260e06141a6878201614066565b1515908301526101006141ba878201614066565b1515908301526101206141ce878201614066565b1515908301526101406141e2878201614066565b15159083015294820194908201906001016140ed565b50614204838a016135d6565b65ffffffffffff81168b850152965061421f60408a016135d6565b65ffffffffffff811660408c0152965061423b60608a016123da565b73ffffffffffffffffffffffffffffffffffffffff811660608c015296509998505050505050505050565b803561427181613625565b15158252602081013561428381613625565b15156020830152604081013561429881613625565b1515604083015260608101356142ad81613625565b8015156060840152505050565b8035600281106123e557600080fd5b60028110614300577f4e487b7100000000000000000000000000000000000000000000000000000000600052602160045260246000fd5b9052565b83815260606020820152600061431a8485612df6565b6101c0606085015261433161022085018284612e5a565b9150506143416020860186612df6565b7fffffffffffffffffffffffffffffffffffffffffffffffffffffffffffffffa080868503016080870152614377848385612e5a565b9350614385604089016123da565b73ffffffffffffffffffffffffffffffffffffffff811660a088015292506143b06060890189612df6565b93509150808685030160c08701526143c9848484612e5a565b93506143d7608089016123da565b73ffffffffffffffffffffffffffffffffffffffff811660e0880152925061440260a0890189612df6565b9350915061010081878603018188015261441d858585612e5a565b945061442c60c08a018a613fd3565b935061012092508187860301838801526144468585614071565b945061445460e08a016123da565b73ffffffffffffffffffffffffffffffffffffffff8116610140890152935061447e818a016123da565b935050506144a561016086018373ffffffffffffffffffffffffffffffffffffffff169052565b6144b56101808601828901614266565b50506144c46101a086016142ba565b6144d26102008501826142c9565b5073ffffffffffffffffffffffffffffffffffffffff841660408401529050949350505050565b600082357fffffffffffffffffffffffffffffffffffffffffffffffffffffffffffffffa183360301811261452d57600080fd5b9190910192915050565b60006103dc36836127a656fea2646970667358221220fa9f009ce31b71c2b01c7ac6e8429ad9ce5b640105addffda0c7df84e65f5c3864736f6c63430008140033",
    "linkReferences": {}
  },
  "methodIdentifiers": {
    "buybackDelegateDataSourceOf(uint256)": "ef8eadd5",
    "controller()": "f77c4791",
    "delegateAllocationsOf(uint256,uint256)": "abc603e3",
    "delegateDeployer()": "8f3d964b",
    "deployBasicProjectFor(address,(string,uint256),string,string,(uint256,uint256,uint256,uint256,uint256,uint256,uint48))": "0e53d9cc",
    "deployPayAllocatorProjectFor(address,(string,uint256),string,string,(uint256,uint256,uint256,uint256,uint256,uint256,uint48),(address,uint256,bytes)[],uint256)": "8a7cf022",
    "deployTiered721PayAllocatorProjectFor(address,(string,uint256),string,string,(uint256,uint256,uint256,uint256,uint256,uint256,uint48),(address,uint256,bytes)[],uint256,(string,string,address,string,address,string,((uint104,uint32,uint32,uint16,address,bytes32,uint24,bool,bool,bool,bool)[],uint48,uint48,address),address,address,(bool,bool,bool,bool),uint8))": "f7f22144",
    "directory()": "c41c2f24",
    "onERC721Received(address,address,uint256,bytes)": "150b7a02",
    "payParams((address,address,(address,uint256,uint256,uint256),uint256,uint256,address,uint256,uint256,string,bytes))": "d46cf171",
    "permissionIndexes(uint256)": "9483e771",
    "reconfigurationStartTimestampOf(uint256)": "560f7b03",
    "redeemParams((address,address,uint256,uint256,uint256,uint256,uint256,(address,uint256,uint256,uint256),bool,uint256,string,bytes))": "a51cfd18",
    "scheduleReconfigurationOf(uint256)": "3ce6d3e2",
    "supportsInterface(bytes4)": "01ffc9a7",
    "terminals(uint256)": "0219758e"
  },
  "id": 71
}