{
  "abi": [
    {
      "inputs": [
        {
          "internalType": "contract IJBController3_1",
          "name": "_controller",
          "type": "address"
        }
      ],
      "stateMutability": "nonpayable",
      "type": "constructor"
    },
    {
      "inputs": [],
      "name": "BAD_BOOST_SEQUENCE",
      "type": "error"
    },
    {
      "inputs": [],
      "name": "RECONFIGURATION_ALREADY_SCHEDULED",
      "type": "error"
    },
    {
      "inputs": [],
      "name": "RECONFIGURATION_NOT_POSSIBLE",
      "type": "error"
    },
    {
      "inputs": [],
      "name": "UNAUTHORIZED",
      "type": "error"
    },
    {
      "inputs": [
        {
          "internalType": "uint256",
          "name": "",
          "type": "uint256"
        }
      ],
      "name": "boostOperatorPermissionIndexes",
      "outputs": [
        {
          "internalType": "uint256",
          "name": "",
          "type": "uint256"
        }
      ],
      "stateMutability": "view",
      "type": "function"
    },
    {
      "inputs": [
        {
          "internalType": "uint256",
          "name": "_revnetId",
          "type": "uint256"
        }
      ],
      "name": "boostsOf",
      "outputs": [
        {
          "components": [
            {
              "internalType": "uint128",
              "name": "rate",
              "type": "uint128"
            },
            {
              "internalType": "uint128",
              "name": "startsAtOrAfter",
              "type": "uint128"
            }
          ],
          "internalType": "struct Boost[]",
          "name": "",
          "type": "tuple[]"
        }
      ],
      "stateMutability": "view",
      "type": "function"
    },
    {
      "inputs": [
        {
          "internalType": "uint256",
          "name": "",
          "type": "uint256"
        }
      ],
      "name": "buybackHookOf",
      "outputs": [
        {
          "internalType": "contract IJBGenericBuybackDelegate",
          "name": "",
          "type": "address"
        }
      ],
      "stateMutability": "view",
      "type": "function"
    },
    {
      "inputs": [
        {
          "internalType": "uint256",
          "name": "",
          "type": "uint256"
        }
      ],
      "name": "buybackHookPermissionIndexes",
      "outputs": [
        {
          "internalType": "uint256",
          "name": "",
          "type": "uint256"
        }
      ],
      "stateMutability": "view",
      "type": "function"
    },
    {
      "inputs": [],
      "name": "controller",
      "outputs": [
        {
          "internalType": "contract IJBController3_1",
          "name": "",
          "type": "address"
        }
      ],
      "stateMutability": "view",
      "type": "function"
    },
    {
      "inputs": [
        {
          "internalType": "uint256",
          "name": "_revnetId",
          "type": "uint256"
        }
      ],
      "name": "currentBoostNumberOf",
      "outputs": [
        {
          "internalType": "uint256",
          "name": "",
          "type": "uint256"
        }
      ],
      "stateMutability": "view",
      "type": "function"
    },
    {
      "inputs": [
        {
          "internalType": "address",
          "name": "_boostOperator",
          "type": "address"
        },
        {
          "components": [
            {
              "internalType": "string",
              "name": "content",
              "type": "string"
            },
            {
              "internalType": "uint256",
              "name": "domain",
              "type": "uint256"
            }
          ],
          "internalType": "struct JBProjectMetadata",
          "name": "_revnetMetadata",
          "type": "tuple"
        },
        {
          "internalType": "string",
          "name": "_name",
          "type": "string"
        },
        {
          "internalType": "string",
          "name": "_symbol",
          "type": "string"
        },
        {
          "components": [
            {
              "internalType": "uint256",
              "name": "initialIssuanceRate",
              "type": "uint256"
            },
            {
              "internalType": "uint256",
              "name": "premintTokenAmount",
              "type": "uint256"
            },
            {
              "internalType": "uint256",
              "name": "priceCeilingIncreaseFrequency",
              "type": "uint256"
            },
            {
              "internalType": "uint256",
              "name": "priceCeilingIncreasePercentage",
              "type": "uint256"
            },
            {
              "internalType": "uint256",
              "name": "priceFloorTaxIntensity",
              "type": "uint256"
            },
            {
              "components": [
                {
                  "internalType": "uint128",
                  "name": "rate",
                  "type": "uint128"
                },
                {
                  "internalType": "uint128",
                  "name": "startsAtOrAfter",
                  "type": "uint128"
                }
              ],
              "internalType": "struct Boost[]",
              "name": "boosts",
              "type": "tuple[]"
            }
          ],
          "internalType": "struct RevnetParams",
          "name": "_revnetData",
          "type": "tuple"
        },
        {
          "internalType": "contract IJBPaymentTerminal[]",
          "name": "_terminals",
          "type": "address[]"
        },
        {
          "components": [
            {
              "internalType": "contract IJBGenericBuybackDelegate",
              "name": "hook",
              "type": "address"
            },
            {
              "components": [
                {
                  "internalType": "address",
                  "name": "token",
                  "type": "address"
                },
                {
                  "internalType": "uint24",
                  "name": "fee",
                  "type": "uint24"
                },
                {
                  "internalType": "uint32",
                  "name": "twapWindow",
                  "type": "uint32"
                },
                {
                  "internalType": "uint32",
                  "name": "twapSlippageTolerance",
                  "type": "uint32"
                }
              ],
              "internalType": "struct BuybackPool[]",
              "name": "pools",
              "type": "tuple[]"
            }
          ],
          "internalType": "struct BuybackHookSetupData",
          "name": "_buybackHookSetupData",
          "type": "tuple"
        },
        {
          "components": [
            {
              "internalType": "contract IJBPayDelegate3_1_1",
              "name": "delegate",
              "type": "address"
            },
            {
              "internalType": "uint256",
              "name": "amount",
              "type": "uint256"
            },
            {
              "internalType": "bytes",
              "name": "metadata",
              "type": "bytes"
            }
          ],
          "internalType": "struct JBPayDelegateAllocation3_1_1[]",
          "name": "_payHooks",
          "type": "tuple[]"
        },
        {
          "internalType": "uint8",
          "name": "_extraCycleMetadata",
          "type": "uint8"
        }
      ],
      "name": "deployPayHookNetworkFor",
      "outputs": [
        {
          "internalType": "uint256",
          "name": "revnetId",
          "type": "uint256"
        }
      ],
      "stateMutability": "nonpayable",
      "type": "function"
    },
    {
      "inputs": [
        {
          "internalType": "address",
          "name": "_boostOperator",
          "type": "address"
        },
        {
          "components": [
            {
              "internalType": "string",
              "name": "content",
              "type": "string"
            },
            {
              "internalType": "uint256",
              "name": "domain",
              "type": "uint256"
            }
          ],
          "internalType": "struct JBProjectMetadata",
          "name": "_revnetMetadata",
          "type": "tuple"
        },
        {
          "internalType": "string",
          "name": "_name",
          "type": "string"
        },
        {
          "internalType": "string",
          "name": "_symbol",
          "type": "string"
        },
        {
          "components": [
            {
              "internalType": "uint256",
              "name": "initialIssuanceRate",
              "type": "uint256"
            },
            {
              "internalType": "uint256",
              "name": "premintTokenAmount",
              "type": "uint256"
            },
            {
              "internalType": "uint256",
              "name": "priceCeilingIncreaseFrequency",
              "type": "uint256"
            },
            {
              "internalType": "uint256",
              "name": "priceCeilingIncreasePercentage",
              "type": "uint256"
            },
            {
              "internalType": "uint256",
              "name": "priceFloorTaxIntensity",
              "type": "uint256"
            },
            {
              "components": [
                {
                  "internalType": "uint128",
                  "name": "rate",
                  "type": "uint128"
                },
                {
                  "internalType": "uint128",
                  "name": "startsAtOrAfter",
                  "type": "uint128"
                }
              ],
              "internalType": "struct Boost[]",
              "name": "boosts",
              "type": "tuple[]"
            }
          ],
          "internalType": "struct RevnetParams",
          "name": "_revnetData",
          "type": "tuple"
        },
        {
          "internalType": "contract IJBPaymentTerminal[]",
          "name": "_terminals",
          "type": "address[]"
        },
        {
          "components": [
            {
              "internalType": "contract IJBGenericBuybackDelegate",
              "name": "hook",
              "type": "address"
            },
            {
              "components": [
                {
                  "internalType": "address",
                  "name": "token",
                  "type": "address"
                },
                {
                  "internalType": "uint24",
                  "name": "fee",
                  "type": "uint24"
                },
                {
                  "internalType": "uint32",
                  "name": "twapWindow",
                  "type": "uint32"
                },
                {
                  "internalType": "uint32",
                  "name": "twapSlippageTolerance",
                  "type": "uint32"
                }
              ],
              "internalType": "struct BuybackPool[]",
              "name": "pools",
              "type": "tuple[]"
            }
          ],
          "internalType": "struct BuybackHookSetupData",
          "name": "_buybackHookSetupData",
          "type": "tuple"
        }
      ],
      "name": "deployRevnetFor",
      "outputs": [
        {
          "internalType": "uint256",
          "name": "revnetId",
          "type": "uint256"
        }
      ],
      "stateMutability": "nonpayable",
      "type": "function"
    },
    {
      "inputs": [
        {
          "internalType": "address",
          "name": "_operator",
          "type": "address"
        },
        {
          "internalType": "address",
          "name": "_from",
          "type": "address"
        },
        {
          "internalType": "uint256",
          "name": "_tokenId",
          "type": "uint256"
        },
        {
          "internalType": "bytes",
          "name": "_data",
          "type": "bytes"
        }
      ],
      "name": "onERC721Received",
      "outputs": [
        {
          "internalType": "bytes4",
          "name": "",
          "type": "bytes4"
        }
      ],
      "stateMutability": "view",
      "type": "function"
    },
    {
      "inputs": [
        {
          "internalType": "uint256",
          "name": "",
          "type": "uint256"
        },
        {
          "internalType": "uint256",
          "name": "",
          "type": "uint256"
        }
      ],
      "name": "payHooksOf",
      "outputs": [
        {
          "internalType": "contract IJBPayDelegate3_1_1",
          "name": "delegate",
          "type": "address"
        },
        {
          "internalType": "uint256",
          "name": "amount",
          "type": "uint256"
        },
        {
          "internalType": "bytes",
          "name": "metadata",
          "type": "bytes"
        }
      ],
      "stateMutability": "view",
      "type": "function"
    },
    {
      "inputs": [
        {
          "components": [
            {
              "internalType": "contract IJBPaymentTerminal",
              "name": "terminal",
              "type": "address"
            },
            {
              "internalType": "address",
              "name": "payer",
              "type": "address"
            },
            {
              "components": [
                {
                  "internalType": "address",
                  "name": "token",
                  "type": "address"
                },
                {
                  "internalType": "uint256",
                  "name": "value",
                  "type": "uint256"
                },
                {
                  "internalType": "uint256",
                  "name": "decimals",
                  "type": "uint256"
                },
                {
                  "internalType": "uint256",
                  "name": "currency",
                  "type": "uint256"
                }
              ],
              "internalType": "struct JBTokenAmount",
              "name": "amount",
              "type": "tuple"
            },
            {
              "internalType": "uint256",
              "name": "projectId",
              "type": "uint256"
            },
            {
              "internalType": "uint256",
              "name": "currentFundingCycleConfiguration",
              "type": "uint256"
            },
            {
              "internalType": "address",
              "name": "beneficiary",
              "type": "address"
            },
            {
              "internalType": "uint256",
              "name": "weight",
              "type": "uint256"
            },
            {
              "internalType": "uint256",
              "name": "reservedRate",
              "type": "uint256"
            },
            {
              "internalType": "string",
              "name": "memo",
              "type": "string"
            },
            {
              "internalType": "bytes",
              "name": "metadata",
              "type": "bytes"
            }
          ],
          "internalType": "struct JBPayParamsData",
          "name": "_data",
          "type": "tuple"
        }
      ],
      "name": "payParams",
      "outputs": [
        {
          "internalType": "uint256",
          "name": "weight",
          "type": "uint256"
        },
        {
          "internalType": "string",
          "name": "memo",
          "type": "string"
        },
        {
          "components": [
            {
              "internalType": "contract IJBPayDelegate3_1_1",
              "name": "delegate",
              "type": "address"
            },
            {
              "internalType": "uint256",
              "name": "amount",
              "type": "uint256"
            },
            {
              "internalType": "bytes",
              "name": "metadata",
              "type": "bytes"
            }
          ],
          "internalType": "struct JBPayDelegateAllocation3_1_1[]",
          "name": "payHooks",
          "type": "tuple[]"
        }
      ],
      "stateMutability": "view",
      "type": "function"
    },
    {
      "inputs": [
        {
          "components": [
            {
              "internalType": "contract IJBPaymentTerminal",
              "name": "terminal",
              "type": "address"
            },
            {
              "internalType": "address",
              "name": "holder",
              "type": "address"
            },
            {
              "internalType": "uint256",
              "name": "projectId",
              "type": "uint256"
            },
            {
              "internalType": "uint256",
              "name": "currentFundingCycleConfiguration",
              "type": "uint256"
            },
            {
              "internalType": "uint256",
              "name": "tokenCount",
              "type": "uint256"
            },
            {
              "internalType": "uint256",
              "name": "totalSupply",
              "type": "uint256"
            },
            {
              "internalType": "uint256",
              "name": "overflow",
              "type": "uint256"
            },
            {
              "components": [
                {
                  "internalType": "address",
                  "name": "token",
                  "type": "address"
                },
                {
                  "internalType": "uint256",
                  "name": "value",
                  "type": "uint256"
                },
                {
                  "internalType": "uint256",
                  "name": "decimals",
                  "type": "uint256"
                },
                {
                  "internalType": "uint256",
                  "name": "currency",
                  "type": "uint256"
                }
              ],
              "internalType": "struct JBTokenAmount",
              "name": "reclaimAmount",
              "type": "tuple"
            },
            {
              "internalType": "bool",
              "name": "useTotalOverflow",
              "type": "bool"
            },
            {
              "internalType": "uint256",
              "name": "redemptionRate",
              "type": "uint256"
            },
            {
              "internalType": "string",
              "name": "memo",
              "type": "string"
            },
            {
              "internalType": "bytes",
              "name": "metadata",
              "type": "bytes"
            }
          ],
          "internalType": "struct JBRedeemParamsData",
          "name": "_data",
          "type": "tuple"
        }
      ],
      "name": "redeemParams",
      "outputs": [
        {
          "internalType": "uint256",
          "name": "",
          "type": "uint256"
        },
        {
          "internalType": "string",
          "name": "",
          "type": "string"
        },
        {
          "components": [
            {
              "internalType": "contract IJBRedemptionDelegate3_1_1",
              "name": "delegate",
              "type": "address"
            },
            {
              "internalType": "uint256",
              "name": "amount",
              "type": "uint256"
            },
            {
              "internalType": "bytes",
              "name": "metadata",
              "type": "bytes"
            }
          ],
          "internalType": "struct JBRedemptionDelegateAllocation3_1_1[]",
          "name": "",
          "type": "tuple[]"
        }
      ],
      "stateMutability": "view",
      "type": "function"
    },
    {
      "inputs": [
        {
          "internalType": "uint256",
          "name": "_revnetId",
          "type": "uint256"
        },
        {
          "internalType": "address",
          "name": "_newBoostOperator",
          "type": "address"
        }
      ],
      "name": "replaceBoostOperatorOf",
      "outputs": [],
      "stateMutability": "nonpayable",
      "type": "function"
    },
    {
      "inputs": [
        {
          "internalType": "uint256",
          "name": "_revnetId",
          "type": "uint256"
        }
      ],
      "name": "scheduleNextBoostOf",
      "outputs": [],
      "stateMutability": "nonpayable",
      "type": "function"
    },
    {
      "inputs": [
        {
          "internalType": "bytes4",
          "name": "_interfaceId",
          "type": "bytes4"
        }
      ],
      "name": "supportsInterface",
      "outputs": [
        {
          "internalType": "bool",
          "name": "",
          "type": "bool"
        }
      ],
      "stateMutability": "view",
      "type": "function"
    }
  ],
  "bytecode": {
    "object": "0x60a06040523480156200001157600080fd5b5060405162004f9f38038062004f9f8339810160408190526200003491620000b5565b6001600160a01b031660805260018054808201825560127fb10e2d527612073b26eecdfd717e6a320cf44b4afac2b0732d9fcbe2b7fa0cf69182015581548083018355601891015560058054918201815560005260097f036b6384b5eca791c62761152d0c79bb0604c104a5fb6f4eb0703f3154bb3db090910155620000e7565b600060208284031215620000c857600080fd5b81516001600160a01b0381168114620000e057600080fd5b9392505050565b608051614e1762000188600039600081816102f2015281816104680152818161057a0152818161072d0152818161090701528181610b0001528181610c0e01528181610d2701528181610ff3015281816110d2015281816114310152818161153f015281816116580152818161195901528181611a2101528181611c0801528181611da60152818161237f015281816125dc0152612c2f0152614e176000f3fe608060405234801561001057600080fd5b50600436106100f55760003560e01c80637a56f98211610097578063b82f18c111610066578063b82f18c1146102a5578063d46cf171146102b8578063ec3004ac146102da578063f77c4791146102ed57600080fd5b80637a56f9821461022e578063a51cfd1814610250578063ad01166914610272578063b58e84cc1461029257600080fd5b8063150b7a02116100d3578063150b7a0214610167578063440cfb7b146101ab57806348dc59b6146101c05780637249a773146101d357600080fd5b806301a7d01a146100fa57806301ffc9a714610123578063086e941b14610146575b600080fd5b61010d610108366004612dba565b610314565b60405161011a9190612dd3565b60405180910390f35b610136610131366004612e38565b6103aa565b604051901515815260200161011a565b610159610154366004612dba565b610443565b60405190815260200161011a565b61017a610175366004612eb6565b610464565b6040517fffffffff00000000000000000000000000000000000000000000000000000000909116815260200161011a565b6101be6101b9366004612f55565b610578565b005b6101596101ce3660046134cf565b610af0565b6102096101e1366004612dba565b60036020526000908152604090205473ffffffffffffffffffffffffffffffffffffffff1681565b60405173ffffffffffffffffffffffffffffffffffffffff909116815260200161011a565b61024161023c3660046135d6565b6112d6565b60405161011a93929190613666565b61026361025e3660046136a4565b6113b9565b60405161011a939291906136e0565b610159610280366004612dba565b60026020526000908152604090205481565b6101596102a03660046138c7565b611421565b6101596102b3366004612dba565b611fbc565b6102cb6102c6366004613a04565b611fcc565b60405161011a93929190613a40565b6101be6102e8366004612dba565b612336565b6102097f000000000000000000000000000000000000000000000000000000000000000081565b600081815260208181526040808320805482518185028101850190935280835260609492939192909184015b8282101561039f57600084815260209081902060408051808201909152908401546fffffffffffffffffffffffffffffffff80821683527001000000000000000000000000000000009091041681830152825260019092019101610340565b505050509050919050565b60007fffffffff0000000000000000000000000000000000000000000000000000000082167f71700c6900000000000000000000000000000000000000000000000000000000148061043d57507f150b7a02000000000000000000000000000000000000000000000000000000007fffffffff000000000000000000000000000000000000000000000000000000008316145b92915050565b6005818154811061045357600080fd5b600091825260209091200154905081565b60007f000000000000000000000000000000000000000000000000000000000000000073ffffffffffffffffffffffffffffffffffffffff16638b79543c6040518163ffffffff1660e01b8152600401602060405180830381865afa1580156104d1573d6000803e3d6000fd5b505050506040513d601f19601f820116820180604052508101906104f59190613af7565b73ffffffffffffffffffffffffffffffffffffffff163373ffffffffffffffffffffffffffffffffffffffff161461052c57600080fd5b73ffffffffffffffffffffffffffffffffffffffff85161561054d57600080fd5b507f150b7a020000000000000000000000000000000000000000000000000000000095945050505050565b7f000000000000000000000000000000000000000000000000000000000000000073ffffffffffffffffffffffffffffffffffffffff16632bdfe0046040518163ffffffff1660e01b8152600401602060405180830381865afa1580156105e3573d6000803e3d6000fd5b505050506040513d601f19601f820116820180604052508101906106079190613af7565b73ffffffffffffffffffffffffffffffffffffffff1663ad007d636040518163ffffffff1660e01b8152600401602060405180830381865afa158015610651573d6000803e3d6000fd5b505050506040513d601f19601f820116820180604052508101906106759190613af7565b73ffffffffffffffffffffffffffffffffffffffff16630f5932f033308560016040518563ffffffff1660e01b81526004016106b49493929190613b54565b602060405180830381865afa1580156106d1573d6000803e3d6000fd5b505050506040513d601f19601f820116820180604052508101906106f59190613bad565b61072b576040517f075fd2b100000000000000000000000000000000000000000000000000000000815260040160405180910390fd5b7f000000000000000000000000000000000000000000000000000000000000000073ffffffffffffffffffffffffffffffffffffffff16632bdfe0046040518163ffffffff1660e01b8152600401602060405180830381865afa158015610796573d6000803e3d6000fd5b505050506040513d601f19601f820116820180604052508101906107ba9190613af7565b73ffffffffffffffffffffffffffffffffffffffff1663ad007d636040518163ffffffff1660e01b8152600401602060405180830381865afa158015610804573d6000803e3d6000fd5b505050506040513d601f19601f820116820180604052508101906108289190613af7565b73ffffffffffffffffffffffffffffffffffffffff1663529cdd2e60405180606001604052803373ffffffffffffffffffffffffffffffffffffffff168152602001858152602001600067ffffffffffffffff81111561088a5761088a612f85565b6040519080825280602002602001820160405280156108b3578160200160208202803683370190505b508152506040518263ffffffff1660e01b81526004016108d39190613bc8565b600060405180830381600087803b1580156108ed57600080fd5b505af1158015610901573d6000803e3d6000fd5b505050507f000000000000000000000000000000000000000000000000000000000000000073ffffffffffffffffffffffffffffffffffffffff16632bdfe0046040518163ffffffff1660e01b8152600401602060405180830381865afa158015610970573d6000803e3d6000fd5b505050506040513d601f19601f820116820180604052508101906109949190613af7565b73ffffffffffffffffffffffffffffffffffffffff1663ad007d636040518163ffffffff1660e01b8152600401602060405180830381865afa1580156109de573d6000803e3d6000fd5b505050506040513d601f19601f82011682018060405250810190610a029190613af7565b73ffffffffffffffffffffffffffffffffffffffff1663529cdd2e60405180606001604052808473ffffffffffffffffffffffffffffffffffffffff1681526020018581526020016001805480602002602001604051908101604052809291908181526020018280548015610a9657602002820191906000526020600020905b815481526020019060010190808311610a82575b50505050508152506040518263ffffffff1660e01b8152600401610aba9190613bc8565b600060405180830381600087803b158015610ad457600080fd5b505af1158015610ae8573d6000803e3d6000fd5b505050505050565b600080610afc8961270f565b90507f000000000000000000000000000000000000000000000000000000000000000073ffffffffffffffffffffffffffffffffffffffff16638b79543c6040518163ffffffff1660e01b8152600401602060405180830381865afa158015610b69573d6000803e3d6000fd5b505050506040513d601f19601f82011682018060405250810190610b8d9190613af7565b73ffffffffffffffffffffffffffffffffffffffff1663666d87a0308a6040518363ffffffff1660e01b8152600401610bc7929190613c39565b6020604051808303816000875af1158015610be6573d6000803e3d6000fd5b505050506040513d601f19601f82011682018060405250810190610c0a9190613c87565b91507f000000000000000000000000000000000000000000000000000000000000000073ffffffffffffffffffffffffffffffffffffffff1663619306306040518163ffffffff1660e01b8152600401602060405180830381865afa158015610c77573d6000803e3d6000fd5b505050506040513d601f19601f82011682018060405250810190610c9b9190613af7565b73ffffffffffffffffffffffffffffffffffffffff1663a7f2a70b8389896040518463ffffffff1660e01b8152600401610cd793929190613ca0565b6020604051808303816000875af1158015610cf6573d6000803e3d6000fd5b505050506040513d601f19601f82011682018060405250810190610d1a9190613af7565b50610d258284612895565b7f000000000000000000000000000000000000000000000000000000000000000073ffffffffffffffffffffffffffffffffffffffff1663111d861b836040518060800160405280896040015181526020018960000151670de0b6b3a7640000610d8f9190613cfa565b815260608a01516020808301919091526000604092830181905282516102a0810190935261024083018181526102608401829052610280840191909152825260a08b0151519082019015610e05578a60a00151600081518110610df457610df4613d11565b602002602001015160000151610e08565b60005b6fffffffffffffffffffffffffffffffff1681526020018a60800151612710610e319190613d40565b815260006020820181905260408201819052606082018190526080820181905260a0808301829052600160c0840181905260e0840183905261010084018390526101208401839052610140840183905261016084018390526101808401526101a083018290528a5173ffffffffffffffffffffffffffffffffffffffff166101c08401526101e0909201528a01515115610eed578960a00151600081518110610edc57610edc613d11565b602002602001015160200151610ef0565b60005b604080516000808252602082019092528891610f7f565b610f6c6040518060c00160405280600073ffffffffffffffffffffffffffffffffffffffff168152602001600073ffffffffffffffffffffffffffffffffffffffff168152602001600081526020016000815260200160008152602001600081525090565b815260200190600190039081610f075790505b508b6040518863ffffffff1660e01b8152600401610fa3979695949392919061402f565b6020604051808303816000875af1158015610fc2573d6000803e3d6000fd5b505050506040513d601f19601f82011682018060405250810190610fe69190613c87565b506020850151156110d0577f000000000000000000000000000000000000000000000000000000000000000073ffffffffffffffffffffffffffffffffffffffff16638ae9c07b838760200151670de0b6b3a76400006110469190613cfa565b8c8a604051602001611058919061415f565b6040516020818303038152906040526000806040518763ffffffff1660e01b815260040161108b969594939291906141cb565b6020604051808303816000875af11580156110aa573d6000803e3d6000fd5b505050506040513d601f19601f820116820180604052508101906110ce9190613c87565b505b7f000000000000000000000000000000000000000000000000000000000000000073ffffffffffffffffffffffffffffffffffffffff16632bdfe0046040518163ffffffff1660e01b8152600401602060405180830381865afa15801561113b573d6000803e3d6000fd5b505050506040513d601f19601f8201168201806040525081019061115f9190613af7565b73ffffffffffffffffffffffffffffffffffffffff1663ad007d636040518163ffffffff1660e01b8152600401602060405180830381865afa1580156111a9573d6000803e3d6000fd5b505050506040513d601f19601f820116820180604052508101906111cd9190613af7565b73ffffffffffffffffffffffffffffffffffffffff1663529cdd2e60405180606001604052808c73ffffffffffffffffffffffffffffffffffffffff168152602001858152602001600180548060200260200160405190810160405280929190818152602001828054801561126157602002820191906000526020600020905b81548152602001906001019080831161124d575b50505050508152506040518263ffffffff1660e01b81526004016112859190613bc8565b600060405180830381600087803b15801561129f57600080fd5b505af11580156112b3573d6000803e3d6000fd5b505050506112ca828660a0015187604001516129c8565b50979650505050505050565b600460205281600052604060002081815481106112f257600080fd5b600091825260209091206003909102018054600182015460028301805473ffffffffffffffffffffffffffffffffffffffff90931695509093509061133690614220565b80601f016020809104026020016040519081016040528092919081815260200182805461136290614220565b80156113af5780601f10611384576101008083540402835291602001916113af565b820191906000526020600020905b81548152906001019060200180831161139257829003601f168201915b5050505050905083565b604080516000808252602082019092526060908190839081611405565b604080516060808201835260008083526020830152918101919091528152602001906001900390816113d65790505b5060408051602081019091526000815291969195509350915050565b60008061142d8b61270f565b90507f000000000000000000000000000000000000000000000000000000000000000073ffffffffffffffffffffffffffffffffffffffff16638b79543c6040518163ffffffff1660e01b8152600401602060405180830381865afa15801561149a573d6000803e3d6000fd5b505050506040513d601f19601f820116820180604052508101906114be9190613af7565b73ffffffffffffffffffffffffffffffffffffffff1663666d87a0308c6040518363ffffffff1660e01b81526004016114f8929190613c39565b6020604051808303816000875af1158015611517573d6000803e3d6000fd5b505050506040513d601f19601f8201168201806040525081019061153b9190613c87565b91507f000000000000000000000000000000000000000000000000000000000000000073ffffffffffffffffffffffffffffffffffffffff1663619306306040518163ffffffff1660e01b8152600401602060405180830381865afa1580156115a8573d6000803e3d6000fd5b505050506040513d601f19601f820116820180604052508101906115cc9190613af7565b73ffffffffffffffffffffffffffffffffffffffff1663a7f2a70b838b8b6040518463ffffffff1660e01b815260040161160893929190613ca0565b6020604051808303816000875af1158015611627573d6000803e3d6000fd5b505050506040513d601f19601f8201168201806040525081019061164b9190613af7565b506116568286612895565b7f000000000000000000000000000000000000000000000000000000000000000073ffffffffffffffffffffffffffffffffffffffff1663111d861b8360405180608001604052808b60400151815260200160128c600001516116b99190614393565b815260608c01516020808301919091526000604092830181905282516102a0810190935261024083018181526102608401829052610280840191909152825260a08d015151908201901561172f578c60a0015160008151811061171e5761171e613d11565b602002602001015160000151611732565b60005b6fffffffffffffffffffffffffffffffff1681526020018c6080015161271061175b9190613d40565b815260006020820181905260408201819052606082018190526080820181905260a0808301829052600160c0840181905260e0840183905261010084018390526101208401839052610140840183905261016084018390526101808401526101a0830191909152306101c083015260ff8a166101e0909201919091528c01515115611808578b60a001516000815181106117f7576117f7613d11565b60200260200101516020015161180b565b60005b60408051600080825260208201909252889161189a565b6118876040518060c00160405280600073ffffffffffffffffffffffffffffffffffffffff168152602001600073ffffffffffffffffffffffffffffffffffffffff168152602001600081526020016000815260200160008152602001600081525090565b8152602001906001900390816118225790505b508d6040518863ffffffff1660e01b81526004016118be979695949392919061402f565b6020604051808303816000875af11580156118dd573d6000803e3d6000fd5b505050506040513d601f19601f820116820180604052508101906119019190613c87565b508451600083815260036020908152604090912080547fffffffffffffffffffffffff00000000000000000000000000000000000000001673ffffffffffffffffffffffffffffffffffffffff9384161790558801517f000000000000000000000000000000000000000000000000000000000000000090911690638ae9c07b90849061199690670de0b6b3a7640000613cfa565b8e8c6040516020016119a8919061415f565b6040516020818303038152906040526000806040518763ffffffff1660e01b81526004016119db969594939291906141cb565b6020604051808303816000875af11580156119fa573d6000803e3d6000fd5b505050506040513d601f19601f82011682018060405250810190611a1e9190613c87565b507f000000000000000000000000000000000000000000000000000000000000000073ffffffffffffffffffffffffffffffffffffffff16632bdfe0046040518163ffffffff1660e01b8152600401602060405180830381865afa158015611a8a573d6000803e3d6000fd5b505050506040513d601f19601f82011682018060405250810190611aae9190613af7565b73ffffffffffffffffffffffffffffffffffffffff1663ad007d636040518163ffffffff1660e01b8152600401602060405180830381865afa158015611af8573d6000803e3d6000fd5b505050506040513d601f19601f82011682018060405250810190611b1c9190613af7565b73ffffffffffffffffffffffffffffffffffffffff1663529cdd2e60405180606001604052808e73ffffffffffffffffffffffffffffffffffffffff1681526020018581526020016001805480602002602001604051908101604052809291908181526020018280548015611bb057602002820191906000526020600020905b815481526020019060010190808311611b9c575b50505050508152506040518263ffffffff1660e01b8152600401611bd49190613bc8565b600060405180830381600087803b158015611bee57600080fd5b505af1158015611c02573d6000803e3d6000fd5b505050507f000000000000000000000000000000000000000000000000000000000000000073ffffffffffffffffffffffffffffffffffffffff16632bdfe0046040518163ffffffff1660e01b8152600401602060405180830381865afa158015611c71573d6000803e3d6000fd5b505050506040513d601f19601f82011682018060405250810190611c959190613af7565b73ffffffffffffffffffffffffffffffffffffffff1663ad007d636040518163ffffffff1660e01b8152600401602060405180830381865afa158015611cdf573d6000803e3d6000fd5b505050506040513d601f19601f82011682018060405250810190611d039190613af7565b85516040517f0f5932f000000000000000000000000000000000000000000000000000000000815273ffffffffffffffffffffffffffffffffffffffff9290921691630f5932f091611d5f913090600090600590600401613b54565b602060405180830381865afa158015611d7c573d6000803e3d6000fd5b505050506040513d601f19601f82011682018060405250810190611da09190613bad565b611f91577f000000000000000000000000000000000000000000000000000000000000000073ffffffffffffffffffffffffffffffffffffffff16632bdfe0046040518163ffffffff1660e01b8152600401602060405180830381865afa158015611e0f573d6000803e3d6000fd5b505050506040513d601f19601f82011682018060405250810190611e339190613af7565b73ffffffffffffffffffffffffffffffffffffffff1663ad007d636040518163ffffffff1660e01b8152600401602060405180830381865afa158015611e7d573d6000803e3d6000fd5b505050506040513d601f19601f82011682018060405250810190611ea19190613af7565b73ffffffffffffffffffffffffffffffffffffffff1663529cdd2e6040518060600160405280886000015173ffffffffffffffffffffffffffffffffffffffff168152602001600081526020016005805480602002602001604051908101604052809291908181526020018280548015611f3a57602002820191906000526020600020905b815481526020019060010190808311611f26575b50505050508152506040518263ffffffff1660e01b8152600401611f5e9190613bc8565b600060405180830381600087803b158015611f7857600080fd5b505af1158015611f8c573d6000803e3d6000fd5b505050505b611fa4828860a0015189604001516129c8565b611fae8285612b1b565b509998505050505050505050565b6001818154811061045357600080fd5b60c08101356000908152600360205260408082205490517fd46cf1710000000000000000000000000000000000000000000000000000000081526060918291829173ffffffffffffffffffffffffffffffffffffffff169063d46cf17190612038908890600401614498565b600060405180830381865afa158015612055573d6000803e3d6000fd5b505050506040513d6000823e601f3d9081017fffffffffffffffffffffffffffffffffffffffffffffffffffffffffffffffe016820160405261209b919081019061460c565b805160c089013560009081526004602090815260408083208054825181850281018501909352808352979b5094975092151595919450919291849084015b828210156121ca5760008481526020908190206040805160608101825260038602909201805473ffffffffffffffffffffffffffffffffffffffff1683526001810154938301939093526002830180549293929184019161213990614220565b80601f016020809104026020016040519081016040528092919081815260200182805461216590614220565b80156121b25780601f10612187576101008083540402835291602001916121b2565b820191906000526020600020905b81548152906001019060200180831161219557829003601f168201915b505050505081525050815260200190600101906120d9565b505050509050600081519050826121e25760006121e5565b60015b6121f29060ff1682614785565b67ffffffffffffffff81111561220a5761220a612f85565b60405190808252806020026020018201604052801561225757816020015b604080516060808201835260008083526020830152918101919091528152602001906001900390816122285790505b50945060005b818110156122a45782818151811061227757612277613d11565b602002602001015186828151811061229157612291613d11565b602090810291909101015260010161225d565b5082156122e457836000815181106122be576122be613d11565b60200260200101518582815181106122d8576122d8613d11565b60200260200101819052505b6122f2610160890189614798565b8080601f016020809104026020016040519081016040528093929190818152602001838380828437600092019190915250999b929a50969850909650505050505050565b6040517f1f51045300000000000000000000000000000000000000000000000000000000815260048101829052600090819073ffffffffffffffffffffffffffffffffffffffff7f00000000000000000000000000000000000000000000000000000000000000001690631f510453906024016103c060405180830381865afa1580156123c7573d6000803e3d6000fd5b505050506040513d601f19601f820116820180604052508101906123eb91906149b3565b506000858152600260205260408120805493955091935091829061240e90614a6a565b918290555060008581526020819052604090205490915080158061243157508082145b80612440575042846060015110155b15612477576040517fc97554fa00000000000000000000000000000000000000000000000000000000815260040160405180910390fd5b600085815260208190526040812080548490811061249757612497613d11565b6000918252602080832060408051808201825293909101546fffffffffffffffffffffffffffffffff808216855270010000000000000000000000000000000090910481168484019081528251608080820185528c810151825281860188905260c0808e01518387015260608084018a905286516102a08101885261024081018b815261026082018c905261028082018c905281528951909616868901528d87015196860196909652948401889052830187905260a0830187905292820186905260e08201869052610100820186905261012082018690526101408201869052610160820186905261018082018690526101a082018690526101c082018690526101e0820195909552610200808a015173ffffffffffffffffffffffffffffffffffffffff908116918301919091526102208a810151908301529451928a01519395507f00000000000000000000000000000000000000000000000000000000000000009094169363badbdf28938b9390612613908590612bea565b60408051600080825260208201909252906126a1565b61268e6040518060c00160405280600073ffffffffffffffffffffffffffffffffffffffff168152602001600073ffffffffffffffffffffffffffffffffffffffff168152602001600081526020016000815260200160008152602001600081525090565b8152602001906001900390816126295790505b506040518763ffffffff1660e01b81526004016126c396959493929190614aa2565b6020604051808303816000875af11580156126e2573d6000803e3d6000fd5b505050506040513d601f19601f820116820180604052508101906127069190613c87565b50505050505050565b604080516001808252818301909252606091816020015b60408051808201909152600081526060602082015281526020019060019003908161272657505060408051600180825281830190925291925060009190602082015b6040805160e08101825260008082526020808301829052928201819052606082018190526080820181905260a0820181905260c082015282527fffffffffffffffffffffffffffffffffffffffffffffffffffffffffffffffff9092019101816127685790505090506040518060e00160405280600015158152602001600015158152602001633b9aca008152602001600081526020018473ffffffffffffffffffffffffffffffffffffffff16815260200160008152602001600073ffffffffffffffffffffffffffffffffffffffff168152508160018151811061285057612850613d11565b6020026020010181905250604051806040016040528060028152602001828152508260008151811061288457612884613d11565b602002602001018190525050919050565b602081810151516040805160808101825260008082529381018490529081018390526060810183905290915b828110156129c157836020015181815181106128df576128df613d11565b6020908102919091018101518551918101516040808301516060840151845192517f7b621d3a000000000000000000000000000000000000000000000000000000008152600481018c905262ffffff909416602485015263ffffffff918216604485015216606483015273ffffffffffffffffffffffffffffffffffffffff9081166084830152919450911690637b621d3a9060a4016020604051808303816000875af1158015612994573d6000803e3d6000fd5b505050506040513d601f19601f820116820180604052508101906129b89190613af7565b506001016128c1565b5050505050565b8151604080518082019091526000808252602082015281156129c15760005b82811015610ae857848181518110612a0157612a01613d11565b6020026020010151915080600014158015612a7657508385612a24600184613d40565b81518110612a3457612a34613d11565b6020026020010151602001516fffffffffffffffffffffffffffffffff16612a5c9190614785565b82602001516fffffffffffffffffffffffffffffffff1611155b15612aad576040517f2d9548a900000000000000000000000000000000000000000000000000000000815260040160405180910390fd5b816000808881526020019081526020016000208281548110612ad157612ad1613d11565b6000918252602091829020835193909201516fffffffffffffffffffffffffffffffff908116700100000000000000000000000000000000029316929092179101556001016129e7565b805160005b81811015612be457828181518110612b3a57612b3a613d11565b6020026020010151600460008681526020019081526020016000208281548110612b6657612b66613d11565b600091825260209182902083516003929092020180547fffffffffffffffffffffffff00000000000000000000000000000000000000001673ffffffffffffffffffffffffffffffffffffffff90921691909117815590820151600182015560408201516002820190612bd99082614bcd565b505050600101612b20565b50505050565b604080516001808252818301909252606091816020015b604080518082019091526000815260606020820152815260200190600190039081612c0157905050905060007f000000000000000000000000000000000000000000000000000000000000000073ffffffffffffffffffffffffffffffffffffffff16632bdfe0046040518163ffffffff1660e01b8152600401602060405180830381865afa158015612c98573d6000803e3d6000fd5b505050506040513d601f19601f82011682018060405250810190612cbc9190613af7565b6040517f69e11cc500000000000000000000000000000000000000000000000000000000815260048101869052602481018590526002604482015273ffffffffffffffffffffffffffffffffffffffff91909116906369e11cc590606401600060405180830381865afa158015612d37573d6000803e3d6000fd5b505050506040513d6000823e601f3d9081017fffffffffffffffffffffffffffffffffffffffffffffffffffffffffffffffe0168201604052612d7d9190810190614ce7565b90506040518060400160405280600281526020018281525082600081518110612da857612da8613d11565b60200260200101819052505092915050565b600060208284031215612dcc57600080fd5b5035919050565b602080825282518282018190526000919060409081850190868401855b82811015612e2b57815180516fffffffffffffffffffffffffffffffff90811686529087015116868501529284019290850190600101612df0565b5091979650505050505050565b600060208284031215612e4a57600080fd5b81357fffffffff0000000000000000000000000000000000000000000000000000000081168114612e7a57600080fd5b9392505050565b73ffffffffffffffffffffffffffffffffffffffff81168114612ea357600080fd5b50565b8035612eb181612e81565b919050565b600080600080600060808688031215612ece57600080fd5b8535612ed981612e81565b94506020860135612ee981612e81565b935060408601359250606086013567ffffffffffffffff80821115612f0d57600080fd5b818801915088601f830112612f2157600080fd5b813581811115612f3057600080fd5b896020828501011115612f4257600080fd5b9699959850939650602001949392505050565b60008060408385031215612f6857600080fd5b823591506020830135612f7a81612e81565b809150509250929050565b7f4e487b7100000000000000000000000000000000000000000000000000000000600052604160045260246000fd5b6040805190810167ffffffffffffffff81118282101715612fd757612fd7612f85565b60405290565b60405160c0810167ffffffffffffffff81118282101715612fd757612fd7612f85565b6040516080810167ffffffffffffffff81118282101715612fd757612fd7612f85565b6040516060810167ffffffffffffffff81118282101715612fd757612fd7612f85565b604051610240810167ffffffffffffffff81118282101715612fd757612fd7612f85565b604051610120810167ffffffffffffffff81118282101715612fd757612fd7612f85565b60405160e0810167ffffffffffffffff81118282101715612fd757612fd7612f85565b604051601f82017fffffffffffffffffffffffffffffffffffffffffffffffffffffffffffffffe016810167ffffffffffffffff811182821017156130f8576130f8612f85565b604052919050565b600067ffffffffffffffff82111561311a5761311a612f85565b50601f017fffffffffffffffffffffffffffffffffffffffffffffffffffffffffffffffe01660200190565b600061315961315484613100565b6130b1565b905082815283838301111561316d57600080fd5b828260208301376000602084830101529392505050565b600082601f83011261319557600080fd5b612e7a83833560208501613146565b6000604082840312156131b657600080fd5b6131be612fb4565b9050813567ffffffffffffffff8111156131d757600080fd5b6131e384828501613184565b8252506020820135602082015292915050565b600067ffffffffffffffff82111561321057613210612f85565b5060051b60200190565b80356fffffffffffffffffffffffffffffffff81168114612eb157600080fd5b600060c0828403121561324c57600080fd5b613254612fdd565b9050813581526020808301358183015260408084013581840152606084013560608401526080840135608084015260a084013567ffffffffffffffff81111561329c57600080fd5b8401601f810186136132ad57600080fd5b80356132bb613154826131f6565b81815260069190911b820184019084810190888311156132da57600080fd5b928501925b828410156133285784848a0312156132f75760008081fd5b6132ff612fb4565b6133088561321a565b815261331587860161321a565b81880152825292840192908501906132df565b60a087015250939695505050505050565b600082601f83011261334a57600080fd5b8135602061335a613154836131f6565b82815260059290921b8401810191818101908684111561337957600080fd5b8286015b8481101561339d57803561339081612e81565b835291830191830161337d565b509695505050505050565b803563ffffffff81168114612eb157600080fd5b600060408083850312156133cf57600080fd5b6133d7612fb4565b915082356133e481612e81565b825260208381013567ffffffffffffffff81111561340157600080fd5b8401601f8101861361341257600080fd5b8035613420613154826131f6565b81815260079190911b8201830190838101908883111561343f57600080fd5b928401925b828410156134be576080848a03121561345d5760008081fd5b613465613000565b843561347081612e81565b81528486013562ffffff811681146134885760008081fd5b818701526134978588016133a8565b8782015260606134a88187016133a8565b9082015282526080939093019290840190613444565b808588015250505050505092915050565b600080600080600080600060e0888a0312156134ea57600080fd5b6134f388612ea6565b9650602088013567ffffffffffffffff8082111561351057600080fd5b61351c8b838c016131a4565b975060408a013591508082111561353257600080fd5b61353e8b838c01613184565b965060608a013591508082111561355457600080fd5b6135608b838c01613184565b955060808a013591508082111561357657600080fd5b6135828b838c0161323a565b945060a08a013591508082111561359857600080fd5b6135a48b838c01613339565b935060c08a01359150808211156135ba57600080fd5b506135c78a828b016133bc565b91505092959891949750929550565b600080604083850312156135e957600080fd5b50508035926020909101359150565b60005b838110156136135781810151838201526020016135fb565b50506000910152565b600081518084526136348160208601602086016135f8565b601f017fffffffffffffffffffffffffffffffffffffffffffffffffffffffffffffffe0169290920160200192915050565b73ffffffffffffffffffffffffffffffffffffffff8416815282602082015260606040820152600061369b606083018461361c565b95945050505050565b6000602082840312156136b657600080fd5b813567ffffffffffffffff8111156136cd57600080fd5b82016101e08185031215612e7a57600080fd5b60006060858352602081818501526136fa8285018761361c565b6040858203818701528187518084528484019150848160051b850101858a0160005b83811015613797578683037fffffffffffffffffffffffffffffffffffffffffffffffffffffffffffffffe00185528151805173ffffffffffffffffffffffffffffffffffffffff16845288810151898501528601518684018a90526137848a85018261361c565b958901959350509087019060010161371c565b50909c9b505050505050505050505050565b600082601f8301126137ba57600080fd5b813560206137ca613154836131f6565b82815260059290921b840181019181810190868411156137e957600080fd5b8286015b8481101561339d57803567ffffffffffffffff8082111561380e5760008081fd5b81890191506060807fffffffffffffffffffffffffffffffffffffffffffffffffffffffffffffffe0848d030112156138475760008081fd5b61384f613023565b8784013561385c81612e81565b81526040848101358983015291840135918383111561387b5760008081fd5b82850194508c603f86011261389257600093508384fd5b6138a28d8a870135838801613146565b9082015286525050509183019183016137ed565b803560ff81168114612eb157600080fd5b60008060008060008060008060006101208a8c0312156138e657600080fd5b6138ef8a612ea6565b985060208a013567ffffffffffffffff8082111561390c57600080fd5b6139188d838e016131a4565b995060408c013591508082111561392e57600080fd5b61393a8d838e01613184565b985060608c013591508082111561395057600080fd5b61395c8d838e01613184565b975060808c013591508082111561397257600080fd5b61397e8d838e0161323a565b965060a08c013591508082111561399457600080fd5b6139a08d838e01613339565b955060c08c01359150808211156139b657600080fd5b6139c28d838e016133bc565b945060e08c01359150808211156139d857600080fd5b506139e58c828d016137a9565b9250506139f56101008b016138b6565b90509295985092959850929598565b600060208284031215613a1657600080fd5b813567ffffffffffffffff811115613a2d57600080fd5b82016101a08185031215612e7a57600080fd5b6000606085835260208181850152613a5a8285018761361c565b6040858203818701528187518084528484019150848160051b850101858a0160005b83811015613797578683037fffffffffffffffffffffffffffffffffffffffffffffffffffffffffffffffe00185528151805173ffffffffffffffffffffffffffffffffffffffff16845288810151898501528601518684018a9052613ae48a85018261361c565b9589019593505090870190600101613a7c565b600060208284031215613b0957600080fd5b8151612e7a81612e81565b6000815480845260208085019450836000528060002060005b83811015613b4957815487529582019560019182019101613b2d565b509495945050505050565b600073ffffffffffffffffffffffffffffffffffffffff808716835280861660208401525083604083015260806060830152613b936080830184613b14565b9695505050505050565b80518015158114612eb157600080fd5b600060208284031215613bbf57600080fd5b612e7a82613b9d565b600060208083526080830173ffffffffffffffffffffffffffffffffffffffff85511682850152818501516040850152604085015160608086015281815180845260a0870191508483019350600092505b8083101561339d5783518252928401926001929092019190840190613c19565b73ffffffffffffffffffffffffffffffffffffffff831681526040602082015260008251604080840152613c70608084018261361c565b905060208401516060840152809150509392505050565b600060208284031215613c9957600080fd5b5051919050565b838152606060208201526000613cb9606083018561361c565b8281036040840152613b93818561361c565b7f4e487b7100000000000000000000000000000000000000000000000000000000600052601160045260246000fd5b808202811582820484141761043d5761043d613ccb565b7f4e487b7100000000000000000000000000000000000000000000000000000000600052603260045260246000fd5b8181038181111561043d5761043d613ccb565b613d788282518051151582526020808201511515908301526040908101511515910152565b6020810151606083015260408101516080830152606081015160a08301526080810151613da960c084018215159052565b5060a081015180151560e08401525060c0810151610100613dcd8185018315159052565b60e08301519150610120613de48186018415159052565b90830151915061014090613dfb8583018415159052565b8301519150610160613e108582018415159052565b90830151915061018090613e278583018415159052565b83015191506101a0613e3c8582018415159052565b9083015191506101c090613e538583018415159052565b83015191506101e0613e688582018415159052565b90830151915061020090613e7f8583018415159052565b8301519150610220613e948582018415159052565b9083015173ffffffffffffffffffffffffffffffffffffffff16610240850152909101516102609092019190915250565b600081518084526020808501808196508360051b810191508286016000805b86811015613fa4578385038a52825180518652860151604087870181905281518188018190529188019160609081890190865b81811015613f8d5785518051151584528c81015115158d8501528581015186850152848101518585015260808082015173ffffffffffffffffffffffffffffffffffffffff9081169186019190915260a0808301519086015260c0918201511690840152948b019460e090920191600101613f17565b50509c89019c975050509286019250600101613ee4565b509298975050505050505050565b600081518084526020808501945080840160005b83811015613b49578151805173ffffffffffffffffffffffffffffffffffffffff908116895284820151168489015260408082015190890152606080820151908901526080808201519089015260a0908101519088015260c09096019590820190600101613fc6565b60006103c0898352602061407c8185018b80518252602081015160208301526040810151604083015273ffffffffffffffffffffffffffffffffffffffff60608201511660608301525050565b61408960a085018a613d53565b6fffffffffffffffffffffffffffffffff8816610320850152816103408501526140b582850188613ec5565b91508382036103608501526140ca8287613fb2565b848103610380860152855180825282870193509082019060005b8181101561411657845173ffffffffffffffffffffffffffffffffffffffff16835293830193918301916001016140e4565b50508481036103a0860152600f81527f7265766e6574206465706c6f79656400000000000000000000000000000000006020820152604081019c9b505050505050505050505050565b7f24000000000000000000000000000000000000000000000000000000000000008152600082516141978160018501602087016135f8565b7f207072656d696e746564000000000000000000000000000000000000000000006001939091019283015250600b01919050565b86815285602082015273ffffffffffffffffffffffffffffffffffffffff8516604082015260c06060820152600061420660c083018661361c565b93151560808301525090151560a090910152949350505050565b600181811c9082168061423457607f821691505b60208210810361426d577f4e487b7100000000000000000000000000000000000000000000000000000000600052602260045260246000fd5b50919050565b600181815b808511156142cc57817fffffffffffffffffffffffffffffffffffffffffffffffffffffffffffffffff048211156142b2576142b2613ccb565b808516156142bf57918102915b93841c9390800290614278565b509250929050565b6000826142e35750600161043d565b816142f05750600061043d565b816001811461430657600281146143105761432c565b600191505061043d565b60ff84111561432157614321613ccb565b50506001821b61043d565b5060208310610133831016604e8410600b841016171561434f575081810a61043d565b6143598383614273565b807fffffffffffffffffffffffffffffffffffffffffffffffffffffffffffffffff0482111561438b5761438b613ccb565b029392505050565b6000612e7a60ff8416836142d4565b80356143ad81612e81565b73ffffffffffffffffffffffffffffffffffffffff1682526020818101359083015260408082013590830152606090810135910152565b60008083357fffffffffffffffffffffffffffffffffffffffffffffffffffffffffffffffe184360301811261441957600080fd5b830160208101925035905067ffffffffffffffff81111561443957600080fd5b80360382131561444857600080fd5b9250929050565b8183528181602085013750600060208284010152600060207fffffffffffffffffffffffffffffffffffffffffffffffffffffffffffffffe0601f840116840101905092915050565b602081526144c6602082016144ac84612ea6565b73ffffffffffffffffffffffffffffffffffffffff169052565b60006144d460208401612ea6565b73ffffffffffffffffffffffffffffffffffffffff811660408401525061450160608301604085016143a2565b60c083013560e083015261010060e084013581840152614522818501612ea6565b90506101206145488185018373ffffffffffffffffffffffffffffffffffffffff169052565b6101409150808501358285015250610160818501358185015261456d818601866143e4565b925090506101a0610180818187015261458b6101c08701858561444f565b9350614599818801886143e4565b935090507fffffffffffffffffffffffffffffffffffffffffffffffffffffffffffffffe086850301828701526145d184848361444f565b979650505050505050565b60006145ea61315484613100565b90508281528383830111156145fe57600080fd5b612e7a8360208301846135f8565b60008060006060848603121561462157600080fd5b8351925060208085015167ffffffffffffffff8082111561464157600080fd5b818701915087601f83011261465557600080fd5b6146638883518585016145dc565b9450604087015191508082111561467957600080fd5b818701915087601f83011261468d57600080fd5b815161469b613154826131f6565b81815260059190911b8301840190848101908a8311156146ba57600080fd5b8585015b83811015614774578051858111156146d557600080fd5b86016060818e037fffffffffffffffffffffffffffffffffffffffffffffffffffffffffffffffe001121561470957600080fd5b614711613023565b8882015161471e81612e81565b815260408201518982015260608201518781111561473b57600080fd5b8083019250508d603f83011261475057600080fd5b6147618e8a840151604085016145dc565b60408201528452509186019186016146be565b508096505050505050509250925092565b8082018082111561043d5761043d613ccb565b60008083357fffffffffffffffffffffffffffffffffffffffffffffffffffffffffffffffe18436030181126147cd57600080fd5b83018035915067ffffffffffffffff8211156147e857600080fd5b60200191503681900382131561444857600080fd5b8051612eb181612e81565b60006060828403121561481a57600080fd5b614822613023565b905061482d82613b9d565b815261483b60208301613b9d565b602082015261484c60408301613b9d565b604082015292915050565b6000610280828403121561486a57600080fd5b614872613046565b905061487e8383614808565b8152606082015160208201526080820151604082015260a082015160608201526148aa60c08301613b9d565b60808201526148bb60e08301613b9d565b60a08201526101006148ce818401613b9d565b60c08301526101206148e1818501613b9d565b60e08401526101406148f4818601613b9d565b838501526101609250614908838601613b9d565b82850152610180915061491c828601613b9d565b908401526101a061492e858201613b9d565b838501526101c09250614942838601613b9d565b828501526101e09150614956828601613b9d565b90840152610200614968858201613b9d565b83850152610220925061497c838601613b9d565b8285015261498d61024086016147fd565b818501525050610260830151818301525092915050565b805160038110612eb157600080fd5b60008060008385036103c08112156149ca57600080fd5b610120808212156149da57600080fd5b6149e261306a565b9150855182526020860151602083015260408601516040830152606086015160608301526080860151608083015260a086015160a083015260c086015160c0830152614a3060e087016147fd565b60e0830152610100808701518184015250819450614a5087828801614857565b93505050614a616103a085016149a4565b90509250925092565b60007fffffffffffffffffffffffffffffffffffffffffffffffffffffffffffffffff8203614a9b57614a9b613ccb565b5060010190565b60006103a0888352614aee602084018980518252602081015160208301526040810151604083015273ffffffffffffffffffffffffffffffffffffffff60608201511660608301525050565b614afb60a0840188613d53565b6fffffffffffffffffffffffffffffffff861661032084015280610340840152614b2781840186613ec5565b9050828103610360840152614b3c8185613fb2565b838103610380909401939093525050601681527f7265766e657420626f6f7374207363686564756c65640000000000000000000060208201526040019695505050505050565b601f821115614bc857600081815260208120601f850160051c81016020861015614ba95750805b601f850160051c820191505b81811015610ae857828155600101614bb5565b505050565b815167ffffffffffffffff811115614be757614be7612f85565b614bfb81614bf58454614220565b84614b82565b602080601f831160018114614c4e5760008415614c185750858301515b7fffffffffffffffffffffffffffffffffffffffffffffffffffffffffffffffff600386901b1c1916600185901b178555610ae8565b6000858152602081207fffffffffffffffffffffffffffffffffffffffffffffffffffffffffffffffe08616915b82811015614c9b57888601518255948401946001909101908401614c7c565b5085821015614cd757878501517fffffffffffffffffffffffffffffffffffffffffffffffffffffffffffffffff600388901b60f8161c191681555b5050505050600190811b01905550565b60006020808385031215614cfa57600080fd5b825167ffffffffffffffff811115614d1157600080fd5b8301601f81018513614d2257600080fd5b8051614d30613154826131f6565b81815260e09182028301840191848201919088841115614d4f57600080fd5b938501935b838510156112ca5780858a031215614d6c5760008081fd5b614d7461308e565b614d7d86613b9d565b8152614d8a878701613b9d565b818801526040868101519082015260608087015190820152608080870151614db181612e81565b9082015260a0868101519082015260c080870151614dce81612e81565b9082015283529384019391850191614d5456fea264697066735822122043a3179aa7be3775bf92ab9dd1279f66c660070733c73ad15f5b53cc42e3bac364736f6c63430008150033",
    "linkReferences": {}
  },
  "methodIdentifiers": {
    "boostOperatorPermissionIndexes(uint256)": "b82f18c1",
    "boostsOf(uint256)": "01a7d01a",
    "buybackHookOf(uint256)": "7249a773",
    "buybackHookPermissionIndexes(uint256)": "086e941b",
    "controller()": "f77c4791",
    "currentBoostNumberOf(uint256)": "ad011669",
    "deployPayHookNetworkFor(address,(string,uint256),string,string,(uint256,uint256,uint256,uint256,uint256,(uint128,uint128)[]),address[],(address,(address,uint24,uint32,uint32)[]),(address,uint256,bytes)[],uint8)": "b58e84cc",
    "deployRevnetFor(address,(string,uint256),string,string,(uint256,uint256,uint256,uint256,uint256,(uint128,uint128)[]),address[],(address,(address,uint24,uint32,uint32)[]))": "48dc59b6",
    "onERC721Received(address,address,uint256,bytes)": "150b7a02",
    "payHooksOf(uint256,uint256)": "7a56f982",
    "payParams((address,address,(address,uint256,uint256,uint256),uint256,uint256,address,uint256,uint256,string,bytes))": "d46cf171",
    "redeemParams((address,address,uint256,uint256,uint256,uint256,uint256,(address,uint256,uint256,uint256),bool,uint256,string,bytes))": "a51cfd18",
    "replaceBoostOperatorOf(uint256,address)": "440cfb7b",
    "scheduleNextBoostOf(uint256)": "ec3004ac",
    "supportsInterface(bytes4)": "01ffc9a7"
  },
  "id": 104
}