{
  "abi": [
    {
      "inputs": [
        {
          "internalType": "contract IJBController3_1",
          "name": "_controller",
          "type": "address"
        }
      ],
      "stateMutability": "nonpayable",
      "type": "constructor"
    },
    {
      "inputs": [],
      "name": "BAD_BOOST_SEQUENCE",
      "type": "error"
    },
    {
      "inputs": [],
      "name": "RECONFIGURATION_ALREADY_SCHEDULED",
      "type": "error"
    },
    {
      "inputs": [],
      "name": "RECONFIGURATION_NOT_POSSIBLE",
      "type": "error"
    },
    {
      "inputs": [],
      "name": "UNAUTHORIZED",
      "type": "error"
    },
    {
      "inputs": [
        {
          "internalType": "uint256",
          "name": "",
          "type": "uint256"
        }
      ],
      "name": "boostOperatorPermissionIndexes",
      "outputs": [
        {
          "internalType": "uint256",
          "name": "",
          "type": "uint256"
        }
      ],
      "stateMutability": "view",
      "type": "function"
    },
    {
      "inputs": [
        {
          "internalType": "uint256",
          "name": "_revnetId",
          "type": "uint256"
        }
      ],
      "name": "boostsOf",
      "outputs": [
        {
          "components": [
            {
              "internalType": "uint128",
              "name": "rate",
              "type": "uint128"
            },
            {
              "internalType": "uint128",
              "name": "startsAtOrAfter",
              "type": "uint128"
            }
          ],
          "internalType": "struct Boost[]",
          "name": "",
          "type": "tuple[]"
        }
      ],
      "stateMutability": "view",
      "type": "function"
    },
    {
      "inputs": [
        {
          "internalType": "uint256",
          "name": "",
          "type": "uint256"
        }
      ],
      "name": "buybackHookOf",
      "outputs": [
        {
          "internalType": "contract IJBGenericBuybackDelegate",
          "name": "",
          "type": "address"
        }
      ],
      "stateMutability": "view",
      "type": "function"
    },
    {
      "inputs": [
        {
          "internalType": "uint256",
          "name": "",
          "type": "uint256"
        }
      ],
      "name": "buybackHookPermissionIndexes",
      "outputs": [
        {
          "internalType": "uint256",
          "name": "",
          "type": "uint256"
        }
      ],
      "stateMutability": "view",
      "type": "function"
    },
    {
      "inputs": [],
      "name": "controller",
      "outputs": [
        {
          "internalType": "contract IJBController3_1",
          "name": "",
          "type": "address"
        }
      ],
      "stateMutability": "view",
      "type": "function"
    },
    {
      "inputs": [
        {
          "internalType": "uint256",
          "name": "_revnetId",
          "type": "uint256"
        }
      ],
      "name": "currentBoostNumberOf",
      "outputs": [
        {
          "internalType": "uint256",
          "name": "",
          "type": "uint256"
        }
      ],
      "stateMutability": "view",
      "type": "function"
    },
    {
      "inputs": [
        {
          "internalType": "address",
          "name": "_boostOperator",
          "type": "address"
        },
        {
          "components": [
            {
              "internalType": "string",
              "name": "content",
              "type": "string"
            },
            {
              "internalType": "uint256",
              "name": "domain",
              "type": "uint256"
            }
          ],
          "internalType": "struct JBProjectMetadata",
          "name": "_revnetMetadata",
          "type": "tuple"
        },
        {
          "internalType": "string",
          "name": "_name",
          "type": "string"
        },
        {
          "internalType": "string",
          "name": "_symbol",
          "type": "string"
        },
        {
          "components": [
            {
              "internalType": "uint256",
              "name": "initialIssuanceRate",
              "type": "uint256"
            },
            {
              "internalType": "uint256",
              "name": "premintTokenAmount",
              "type": "uint256"
            },
            {
              "internalType": "uint256",
              "name": "priceCeilingIncreaseFrequency",
              "type": "uint256"
            },
            {
              "internalType": "uint256",
              "name": "priceCeilingIncreasePercentage",
              "type": "uint256"
            },
            {
              "internalType": "uint256",
              "name": "priceFloorTaxIntensity",
              "type": "uint256"
            },
            {
              "components": [
                {
                  "internalType": "uint128",
                  "name": "rate",
                  "type": "uint128"
                },
                {
                  "internalType": "uint128",
                  "name": "startsAtOrAfter",
                  "type": "uint128"
                }
              ],
              "internalType": "struct Boost[]",
              "name": "boosts",
              "type": "tuple[]"
            }
          ],
          "internalType": "struct RevnetParams",
          "name": "_revnetData",
          "type": "tuple"
        },
        {
          "internalType": "contract IJBPaymentTerminal[]",
          "name": "_terminals",
          "type": "address[]"
        },
        {
          "components": [
            {
              "internalType": "contract IJBGenericBuybackDelegate",
              "name": "hook",
              "type": "address"
            },
            {
              "components": [
                {
                  "internalType": "address",
                  "name": "token",
                  "type": "address"
                },
                {
                  "internalType": "uint24",
                  "name": "fee",
                  "type": "uint24"
                },
                {
                  "internalType": "uint32",
                  "name": "twapWindow",
                  "type": "uint32"
                },
                {
                  "internalType": "uint32",
                  "name": "twapSlippageTolerance",
                  "type": "uint32"
                }
              ],
              "internalType": "struct BuybackPool[]",
              "name": "pools",
              "type": "tuple[]"
            }
          ],
          "internalType": "struct BuybackHookSetupData",
          "name": "_buybackHookSetupData",
          "type": "tuple"
        },
        {
          "components": [
            {
              "internalType": "contract IJBPayDelegate3_1_1",
              "name": "delegate",
              "type": "address"
            },
            {
              "internalType": "uint256",
              "name": "amount",
              "type": "uint256"
            },
            {
              "internalType": "bytes",
              "name": "metadata",
              "type": "bytes"
            }
          ],
          "internalType": "struct JBPayDelegateAllocation3_1_1[]",
          "name": "_payHooks",
          "type": "tuple[]"
        },
        {
          "internalType": "uint8",
          "name": "_extraCycleMetadata",
          "type": "uint8"
        }
      ],
      "name": "deployPayHookNetworkFor",
      "outputs": [
        {
          "internalType": "uint256",
          "name": "revnetId",
          "type": "uint256"
        }
      ],
      "stateMutability": "nonpayable",
      "type": "function"
    },
    {
      "inputs": [
        {
          "internalType": "address",
          "name": "_boostOperator",
          "type": "address"
        },
        {
          "components": [
            {
              "internalType": "string",
              "name": "content",
              "type": "string"
            },
            {
              "internalType": "uint256",
              "name": "domain",
              "type": "uint256"
            }
          ],
          "internalType": "struct JBProjectMetadata",
          "name": "_revnetMetadata",
          "type": "tuple"
        },
        {
          "internalType": "string",
          "name": "_name",
          "type": "string"
        },
        {
          "internalType": "string",
          "name": "_symbol",
          "type": "string"
        },
        {
          "components": [
            {
              "internalType": "uint256",
              "name": "initialIssuanceRate",
              "type": "uint256"
            },
            {
              "internalType": "uint256",
              "name": "premintTokenAmount",
              "type": "uint256"
            },
            {
              "internalType": "uint256",
              "name": "priceCeilingIncreaseFrequency",
              "type": "uint256"
            },
            {
              "internalType": "uint256",
              "name": "priceCeilingIncreasePercentage",
              "type": "uint256"
            },
            {
              "internalType": "uint256",
              "name": "priceFloorTaxIntensity",
              "type": "uint256"
            },
            {
              "components": [
                {
                  "internalType": "uint128",
                  "name": "rate",
                  "type": "uint128"
                },
                {
                  "internalType": "uint128",
                  "name": "startsAtOrAfter",
                  "type": "uint128"
                }
              ],
              "internalType": "struct Boost[]",
              "name": "boosts",
              "type": "tuple[]"
            }
          ],
          "internalType": "struct RevnetParams",
          "name": "_revnetData",
          "type": "tuple"
        },
        {
          "internalType": "contract IJBPaymentTerminal[]",
          "name": "_terminals",
          "type": "address[]"
        },
        {
          "components": [
            {
              "internalType": "contract IJBGenericBuybackDelegate",
              "name": "hook",
              "type": "address"
            },
            {
              "components": [
                {
                  "internalType": "address",
                  "name": "token",
                  "type": "address"
                },
                {
                  "internalType": "uint24",
                  "name": "fee",
                  "type": "uint24"
                },
                {
                  "internalType": "uint32",
                  "name": "twapWindow",
                  "type": "uint32"
                },
                {
                  "internalType": "uint32",
                  "name": "twapSlippageTolerance",
                  "type": "uint32"
                }
              ],
              "internalType": "struct BuybackPool[]",
              "name": "pools",
              "type": "tuple[]"
            }
          ],
          "internalType": "struct BuybackHookSetupData",
          "name": "_buybackHookSetupData",
          "type": "tuple"
        }
      ],
      "name": "deployRevnetFor",
      "outputs": [
        {
          "internalType": "uint256",
          "name": "revnetId",
          "type": "uint256"
        }
      ],
      "stateMutability": "nonpayable",
      "type": "function"
    },
    {
      "inputs": [
        {
          "internalType": "address",
          "name": "_operator",
          "type": "address"
        },
        {
          "internalType": "address",
          "name": "_from",
          "type": "address"
        },
        {
          "internalType": "uint256",
          "name": "_tokenId",
          "type": "uint256"
        },
        {
          "internalType": "bytes",
          "name": "_data",
          "type": "bytes"
        }
      ],
      "name": "onERC721Received",
      "outputs": [
        {
          "internalType": "bytes4",
          "name": "",
          "type": "bytes4"
        }
      ],
      "stateMutability": "view",
      "type": "function"
    },
    {
      "inputs": [
        {
          "internalType": "uint256",
          "name": "",
          "type": "uint256"
        },
        {
          "internalType": "uint256",
          "name": "",
          "type": "uint256"
        }
      ],
      "name": "payHooksOf",
      "outputs": [
        {
          "internalType": "contract IJBPayDelegate3_1_1",
          "name": "delegate",
          "type": "address"
        },
        {
          "internalType": "uint256",
          "name": "amount",
          "type": "uint256"
        },
        {
          "internalType": "bytes",
          "name": "metadata",
          "type": "bytes"
        }
      ],
      "stateMutability": "view",
      "type": "function"
    },
    {
      "inputs": [
        {
          "components": [
            {
              "internalType": "contract IJBPaymentTerminal",
              "name": "terminal",
              "type": "address"
            },
            {
              "internalType": "address",
              "name": "payer",
              "type": "address"
            },
            {
              "components": [
                {
                  "internalType": "address",
                  "name": "token",
                  "type": "address"
                },
                {
                  "internalType": "uint256",
                  "name": "value",
                  "type": "uint256"
                },
                {
                  "internalType": "uint256",
                  "name": "decimals",
                  "type": "uint256"
                },
                {
                  "internalType": "uint256",
                  "name": "currency",
                  "type": "uint256"
                }
              ],
              "internalType": "struct JBTokenAmount",
              "name": "amount",
              "type": "tuple"
            },
            {
              "internalType": "uint256",
              "name": "projectId",
              "type": "uint256"
            },
            {
              "internalType": "uint256",
              "name": "currentFundingCycleConfiguration",
              "type": "uint256"
            },
            {
              "internalType": "address",
              "name": "beneficiary",
              "type": "address"
            },
            {
              "internalType": "uint256",
              "name": "weight",
              "type": "uint256"
            },
            {
              "internalType": "uint256",
              "name": "reservedRate",
              "type": "uint256"
            },
            {
              "internalType": "string",
              "name": "memo",
              "type": "string"
            },
            {
              "internalType": "bytes",
              "name": "metadata",
              "type": "bytes"
            }
          ],
          "internalType": "struct JBPayParamsData",
          "name": "_data",
          "type": "tuple"
        }
      ],
      "name": "payParams",
      "outputs": [
        {
          "internalType": "uint256",
          "name": "weight",
          "type": "uint256"
        },
        {
          "internalType": "string",
          "name": "memo",
          "type": "string"
        },
        {
          "components": [
            {
              "internalType": "contract IJBPayDelegate3_1_1",
              "name": "delegate",
              "type": "address"
            },
            {
              "internalType": "uint256",
              "name": "amount",
              "type": "uint256"
            },
            {
              "internalType": "bytes",
              "name": "metadata",
              "type": "bytes"
            }
          ],
          "internalType": "struct JBPayDelegateAllocation3_1_1[]",
          "name": "payHooks",
          "type": "tuple[]"
        }
      ],
      "stateMutability": "view",
      "type": "function"
    },
    {
      "inputs": [
        {
          "components": [
            {
              "internalType": "contract IJBPaymentTerminal",
              "name": "terminal",
              "type": "address"
            },
            {
              "internalType": "address",
              "name": "holder",
              "type": "address"
            },
            {
              "internalType": "uint256",
              "name": "projectId",
              "type": "uint256"
            },
            {
              "internalType": "uint256",
              "name": "currentFundingCycleConfiguration",
              "type": "uint256"
            },
            {
              "internalType": "uint256",
              "name": "tokenCount",
              "type": "uint256"
            },
            {
              "internalType": "uint256",
              "name": "totalSupply",
              "type": "uint256"
            },
            {
              "internalType": "uint256",
              "name": "overflow",
              "type": "uint256"
            },
            {
              "components": [
                {
                  "internalType": "address",
                  "name": "token",
                  "type": "address"
                },
                {
                  "internalType": "uint256",
                  "name": "value",
                  "type": "uint256"
                },
                {
                  "internalType": "uint256",
                  "name": "decimals",
                  "type": "uint256"
                },
                {
                  "internalType": "uint256",
                  "name": "currency",
                  "type": "uint256"
                }
              ],
              "internalType": "struct JBTokenAmount",
              "name": "reclaimAmount",
              "type": "tuple"
            },
            {
              "internalType": "bool",
              "name": "useTotalOverflow",
              "type": "bool"
            },
            {
              "internalType": "uint256",
              "name": "redemptionRate",
              "type": "uint256"
            },
            {
              "internalType": "string",
              "name": "memo",
              "type": "string"
            },
            {
              "internalType": "bytes",
              "name": "metadata",
              "type": "bytes"
            }
          ],
          "internalType": "struct JBRedeemParamsData",
          "name": "_data",
          "type": "tuple"
        }
      ],
      "name": "redeemParams",
      "outputs": [
        {
          "internalType": "uint256",
          "name": "",
          "type": "uint256"
        },
        {
          "internalType": "string",
          "name": "",
          "type": "string"
        },
        {
          "components": [
            {
              "internalType": "contract IJBRedemptionDelegate3_1_1",
              "name": "delegate",
              "type": "address"
            },
            {
              "internalType": "uint256",
              "name": "amount",
              "type": "uint256"
            },
            {
              "internalType": "bytes",
              "name": "metadata",
              "type": "bytes"
            }
          ],
          "internalType": "struct JBRedemptionDelegateAllocation3_1_1[]",
          "name": "",
          "type": "tuple[]"
        }
      ],
      "stateMutability": "view",
      "type": "function"
    },
    {
      "inputs": [
        {
          "internalType": "uint256",
          "name": "_revnetId",
          "type": "uint256"
        },
        {
          "internalType": "address",
          "name": "_newBoostOperator",
          "type": "address"
        }
      ],
      "name": "replaceBoostOperatorOf",
      "outputs": [],
      "stateMutability": "nonpayable",
      "type": "function"
    },
    {
      "inputs": [
        {
          "internalType": "uint256",
          "name": "_revnetId",
          "type": "uint256"
        }
      ],
      "name": "scheduleNextBoostOf",
      "outputs": [],
      "stateMutability": "nonpayable",
      "type": "function"
    },
    {
      "inputs": [
        {
          "internalType": "bytes4",
          "name": "_interfaceId",
          "type": "bytes4"
        }
      ],
      "name": "supportsInterface",
      "outputs": [
        {
          "internalType": "bool",
          "name": "",
          "type": "bool"
        }
      ],
      "stateMutability": "view",
      "type": "function"
    }
  ],
  "bytecode": {
    "object": "0x60a06040523480156200001157600080fd5b5060405162004ed038038062004ed08339810160408190526200003491620000b5565b6001600160a01b031660805260018054808201825560127fb10e2d527612073b26eecdfd717e6a320cf44b4afac2b0732d9fcbe2b7fa0cf69182015581548083018355601891015560058054918201815560005260097f036b6384b5eca791c62761152d0c79bb0604c104a5fb6f4eb0703f3154bb3db090910155620000e7565b600060208284031215620000c857600080fd5b81516001600160a01b0381168114620000e057600080fd5b9392505050565b608051614d4862000188600039600081816102f2015281816104680152818161057a0152818161072d0152818161090701528181610b0001528181610c0e01528181610d2701528181610ff3015281816110d20152818161142c0152818161153a015281816116530152818161195401528181611a1c01528181611c0301528181611da101528181612375015281816125d10152612b650152614d486000f3fe608060405234801561001057600080fd5b50600436106100f55760003560e01c80637a56f98211610097578063b82f18c111610066578063b82f18c1146102a5578063d46cf171146102b8578063ec3004ac146102da578063f77c4791146102ed57600080fd5b80637a56f9821461022e578063a51cfd1814610250578063ad01166914610272578063b58e84cc1461029257600080fd5b8063150b7a02116100d3578063150b7a0214610167578063440cfb7b146101ab57806348dc59b6146101c05780637249a773146101d357600080fd5b806301a7d01a146100fa57806301ffc9a714610123578063086e941b14610146575b600080fd5b61010d610108366004612cf0565b610314565b60405161011a9190612d09565b60405180910390f35b610136610131366004612d6e565b6103aa565b604051901515815260200161011a565b610159610154366004612cf0565b610443565b60405190815260200161011a565b61017a610175366004612dec565b610464565b6040517fffffffff00000000000000000000000000000000000000000000000000000000909116815260200161011a565b6101be6101b9366004612e8b565b610578565b005b6101596101ce366004613405565b610af0565b6102096101e1366004612cf0565b60036020526000908152604090205473ffffffffffffffffffffffffffffffffffffffff1681565b60405173ffffffffffffffffffffffffffffffffffffffff909116815260200161011a565b61024161023c36600461350c565b6112d1565b60405161011a9392919061359c565b61026361025e3660046135da565b6113b4565b60405161011a93929190613616565b610159610280366004612cf0565b60026020526000908152604090205481565b6101596102a03660046137fd565b61141c565b6101596102b3366004612cf0565b611fb2565b6102cb6102c636600461393a565b611fc2565b60405161011a93929190613976565b6101be6102e8366004612cf0565b61232c565b6102097f000000000000000000000000000000000000000000000000000000000000000081565b600081815260208181526040808320805482518185028101850190935280835260609492939192909184015b8282101561039f57600084815260209081902060408051808201909152908401546fffffffffffffffffffffffffffffffff80821683527001000000000000000000000000000000009091041681830152825260019092019101610340565b505050509050919050565b60007fffffffff0000000000000000000000000000000000000000000000000000000082167f71700c6900000000000000000000000000000000000000000000000000000000148061043d57507f150b7a02000000000000000000000000000000000000000000000000000000007fffffffff000000000000000000000000000000000000000000000000000000008316145b92915050565b6005818154811061045357600080fd5b600091825260209091200154905081565b60007f000000000000000000000000000000000000000000000000000000000000000073ffffffffffffffffffffffffffffffffffffffff16638b79543c6040518163ffffffff1660e01b8152600401602060405180830381865afa1580156104d1573d6000803e3d6000fd5b505050506040513d601f19601f820116820180604052508101906104f59190613a2d565b73ffffffffffffffffffffffffffffffffffffffff163373ffffffffffffffffffffffffffffffffffffffff161461052c57600080fd5b73ffffffffffffffffffffffffffffffffffffffff85161561054d57600080fd5b507f150b7a020000000000000000000000000000000000000000000000000000000095945050505050565b7f000000000000000000000000000000000000000000000000000000000000000073ffffffffffffffffffffffffffffffffffffffff16632bdfe0046040518163ffffffff1660e01b8152600401602060405180830381865afa1580156105e3573d6000803e3d6000fd5b505050506040513d601f19601f820116820180604052508101906106079190613a2d565b73ffffffffffffffffffffffffffffffffffffffff1663ad007d636040518163ffffffff1660e01b8152600401602060405180830381865afa158015610651573d6000803e3d6000fd5b505050506040513d601f19601f820116820180604052508101906106759190613a2d565b73ffffffffffffffffffffffffffffffffffffffff16630f5932f033308560016040518563ffffffff1660e01b81526004016106b49493929190613a8a565b602060405180830381865afa1580156106d1573d6000803e3d6000fd5b505050506040513d601f19601f820116820180604052508101906106f59190613ae3565b61072b576040517f075fd2b100000000000000000000000000000000000000000000000000000000815260040160405180910390fd5b7f000000000000000000000000000000000000000000000000000000000000000073ffffffffffffffffffffffffffffffffffffffff16632bdfe0046040518163ffffffff1660e01b8152600401602060405180830381865afa158015610796573d6000803e3d6000fd5b505050506040513d601f19601f820116820180604052508101906107ba9190613a2d565b73ffffffffffffffffffffffffffffffffffffffff1663ad007d636040518163ffffffff1660e01b8152600401602060405180830381865afa158015610804573d6000803e3d6000fd5b505050506040513d601f19601f820116820180604052508101906108289190613a2d565b73ffffffffffffffffffffffffffffffffffffffff1663529cdd2e60405180606001604052803373ffffffffffffffffffffffffffffffffffffffff168152602001858152602001600067ffffffffffffffff81111561088a5761088a612ebb565b6040519080825280602002602001820160405280156108b3578160200160208202803683370190505b508152506040518263ffffffff1660e01b81526004016108d39190613afe565b600060405180830381600087803b1580156108ed57600080fd5b505af1158015610901573d6000803e3d6000fd5b505050507f000000000000000000000000000000000000000000000000000000000000000073ffffffffffffffffffffffffffffffffffffffff16632bdfe0046040518163ffffffff1660e01b8152600401602060405180830381865afa158015610970573d6000803e3d6000fd5b505050506040513d601f19601f820116820180604052508101906109949190613a2d565b73ffffffffffffffffffffffffffffffffffffffff1663ad007d636040518163ffffffff1660e01b8152600401602060405180830381865afa1580156109de573d6000803e3d6000fd5b505050506040513d601f19601f82011682018060405250810190610a029190613a2d565b73ffffffffffffffffffffffffffffffffffffffff1663529cdd2e60405180606001604052808473ffffffffffffffffffffffffffffffffffffffff1681526020018581526020016001805480602002602001604051908101604052809291908181526020018280548015610a9657602002820191906000526020600020905b815481526020019060010190808311610a82575b50505050508152506040518263ffffffff1660e01b8152600401610aba9190613afe565b600060405180830381600087803b158015610ad457600080fd5b505af1158015610ae8573d6000803e3d6000fd5b505050505050565b600080610afc89612704565b90507f000000000000000000000000000000000000000000000000000000000000000073ffffffffffffffffffffffffffffffffffffffff16638b79543c6040518163ffffffff1660e01b8152600401602060405180830381865afa158015610b69573d6000803e3d6000fd5b505050506040513d601f19601f82011682018060405250810190610b8d9190613a2d565b73ffffffffffffffffffffffffffffffffffffffff1663666d87a0308a6040518363ffffffff1660e01b8152600401610bc7929190613b6f565b6020604051808303816000875af1158015610be6573d6000803e3d6000fd5b505050506040513d601f19601f82011682018060405250810190610c0a9190613bbd565b91507f000000000000000000000000000000000000000000000000000000000000000073ffffffffffffffffffffffffffffffffffffffff1663619306306040518163ffffffff1660e01b8152600401602060405180830381865afa158015610c77573d6000803e3d6000fd5b505050506040513d601f19601f82011682018060405250810190610c9b9190613a2d565b73ffffffffffffffffffffffffffffffffffffffff1663a7f2a70b8389896040518463ffffffff1660e01b8152600401610cd793929190613bd6565b6020604051808303816000875af1158015610cf6573d6000803e3d6000fd5b505050506040513d601f19601f82011682018060405250810190610d1a9190613a2d565b50610d25828461288a565b7f000000000000000000000000000000000000000000000000000000000000000073ffffffffffffffffffffffffffffffffffffffff1663111d861b836040518060800160405280896040015181526020018960000151670de0b6b3a7640000610d8f9190613c30565b815260608a01516020808301919091526000604092830181905282516102a0810190935261024083018181526102608401829052610280840191909152825260a08b0151519082019015610e05578a60a00151600081518110610df457610df4613c47565b602002602001015160000151610e08565b60005b6fffffffffffffffffffffffffffffffff1681526020018a60800151612710610e319190613c76565b815260006020820181905260408201819052606082018190526080820181905260a0808301829052600160c0840181905260e0840183905261010084018390526101208401839052610140840183905261016084018390526101808401526101a083018290528a5173ffffffffffffffffffffffffffffffffffffffff166101c08401526101e0909201528a01515115610eed578960a00151600081518110610edc57610edc613c47565b602002602001015160200151610ef0565b60005b604080516000808252602082019092528891610f7f565b610f6c6040518060c00160405280600073ffffffffffffffffffffffffffffffffffffffff168152602001600073ffffffffffffffffffffffffffffffffffffffff168152602001600081526020016000815260200160008152602001600081525090565b815260200190600190039081610f075790505b508b6040518863ffffffff1660e01b8152600401610fa39796959493929190613f65565b6020604051808303816000875af1158015610fc2573d6000803e3d6000fd5b505050506040513d601f19601f82011682018060405250810190610fe69190613bbd565b506020850151156110d0577f000000000000000000000000000000000000000000000000000000000000000073ffffffffffffffffffffffffffffffffffffffff16638ae9c07b838760200151670de0b6b3a76400006110469190613c30565b8c8a6040516020016110589190614095565b6040516020818303038152906040526000806040518763ffffffff1660e01b815260040161108b96959493929190614101565b6020604051808303816000875af11580156110aa573d6000803e3d6000fd5b505050506040513d601f19601f820116820180604052508101906110ce9190613bbd565b505b7f000000000000000000000000000000000000000000000000000000000000000073ffffffffffffffffffffffffffffffffffffffff16632bdfe0046040518163ffffffff1660e01b8152600401602060405180830381865afa15801561113b573d6000803e3d6000fd5b505050506040513d601f19601f8201168201806040525081019061115f9190613a2d565b73ffffffffffffffffffffffffffffffffffffffff1663ad007d636040518163ffffffff1660e01b8152600401602060405180830381865afa1580156111a9573d6000803e3d6000fd5b505050506040513d601f19601f820116820180604052508101906111cd9190613a2d565b73ffffffffffffffffffffffffffffffffffffffff1663529cdd2e60405180606001604052808c73ffffffffffffffffffffffffffffffffffffffff168152602001858152602001600180548060200260200160405190810160405280929190818152602001828054801561126157602002820191906000526020600020905b81548152602001906001019080831161124d575b50505050508152506040518263ffffffff1660e01b81526004016112859190613afe565b600060405180830381600087803b15801561129f57600080fd5b505af11580156112b3573d6000803e3d6000fd5b505050506112c5828660a001516129bd565b50979650505050505050565b600460205281600052604060002081815481106112ed57600080fd5b600091825260209091206003909102018054600182015460028301805473ffffffffffffffffffffffffffffffffffffffff90931695509093509061133190614156565b80601f016020809104026020016040519081016040528092919081815260200182805461135d90614156565b80156113aa5780601f1061137f576101008083540402835291602001916113aa565b820191906000526020600020905b81548152906001019060200180831161138d57829003601f168201915b5050505050905083565b604080516000808252602082019092526060908190839081611400565b604080516060808201835260008083526020830152918101919091528152602001906001900390816113d15790505b5060408051602081019091526000815291969195509350915050565b6000806114288b612704565b90507f000000000000000000000000000000000000000000000000000000000000000073ffffffffffffffffffffffffffffffffffffffff16638b79543c6040518163ffffffff1660e01b8152600401602060405180830381865afa158015611495573d6000803e3d6000fd5b505050506040513d601f19601f820116820180604052508101906114b99190613a2d565b73ffffffffffffffffffffffffffffffffffffffff1663666d87a0308c6040518363ffffffff1660e01b81526004016114f3929190613b6f565b6020604051808303816000875af1158015611512573d6000803e3d6000fd5b505050506040513d601f19601f820116820180604052508101906115369190613bbd565b91507f000000000000000000000000000000000000000000000000000000000000000073ffffffffffffffffffffffffffffffffffffffff1663619306306040518163ffffffff1660e01b8152600401602060405180830381865afa1580156115a3573d6000803e3d6000fd5b505050506040513d601f19601f820116820180604052508101906115c79190613a2d565b73ffffffffffffffffffffffffffffffffffffffff1663a7f2a70b838b8b6040518463ffffffff1660e01b815260040161160393929190613bd6565b6020604051808303816000875af1158015611622573d6000803e3d6000fd5b505050506040513d601f19601f820116820180604052508101906116469190613a2d565b50611651828661288a565b7f000000000000000000000000000000000000000000000000000000000000000073ffffffffffffffffffffffffffffffffffffffff1663111d861b8360405180608001604052808b60400151815260200160128c600001516116b491906142c9565b815260608c01516020808301919091526000604092830181905282516102a0810190935261024083018181526102608401829052610280840191909152825260a08d015151908201901561172a578c60a0015160008151811061171957611719613c47565b60200260200101516000015161172d565b60005b6fffffffffffffffffffffffffffffffff1681526020018c608001516127106117569190613c76565b815260006020820181905260408201819052606082018190526080820181905260a0808301829052600160c0840181905260e0840183905261010084018390526101208401839052610140840183905261016084018390526101808401526101a0830191909152306101c083015260ff8a166101e0909201919091528c01515115611803578b60a001516000815181106117f2576117f2613c47565b602002602001015160200151611806565b60005b604080516000808252602082019092528891611895565b6118826040518060c00160405280600073ffffffffffffffffffffffffffffffffffffffff168152602001600073ffffffffffffffffffffffffffffffffffffffff168152602001600081526020016000815260200160008152602001600081525090565b81526020019060019003908161181d5790505b508d6040518863ffffffff1660e01b81526004016118b99796959493929190613f65565b6020604051808303816000875af11580156118d8573d6000803e3d6000fd5b505050506040513d601f19601f820116820180604052508101906118fc9190613bbd565b508451600083815260036020908152604090912080547fffffffffffffffffffffffff00000000000000000000000000000000000000001673ffffffffffffffffffffffffffffffffffffffff9384161790558801517f000000000000000000000000000000000000000000000000000000000000000090911690638ae9c07b90849061199190670de0b6b3a7640000613c30565b8e8c6040516020016119a39190614095565b6040516020818303038152906040526000806040518763ffffffff1660e01b81526004016119d696959493929190614101565b6020604051808303816000875af11580156119f5573d6000803e3d6000fd5b505050506040513d601f19601f82011682018060405250810190611a199190613bbd565b507f000000000000000000000000000000000000000000000000000000000000000073ffffffffffffffffffffffffffffffffffffffff16632bdfe0046040518163ffffffff1660e01b8152600401602060405180830381865afa158015611a85573d6000803e3d6000fd5b505050506040513d601f19601f82011682018060405250810190611aa99190613a2d565b73ffffffffffffffffffffffffffffffffffffffff1663ad007d636040518163ffffffff1660e01b8152600401602060405180830381865afa158015611af3573d6000803e3d6000fd5b505050506040513d601f19601f82011682018060405250810190611b179190613a2d565b73ffffffffffffffffffffffffffffffffffffffff1663529cdd2e60405180606001604052808e73ffffffffffffffffffffffffffffffffffffffff1681526020018581526020016001805480602002602001604051908101604052809291908181526020018280548015611bab57602002820191906000526020600020905b815481526020019060010190808311611b97575b50505050508152506040518263ffffffff1660e01b8152600401611bcf9190613afe565b600060405180830381600087803b158015611be957600080fd5b505af1158015611bfd573d6000803e3d6000fd5b505050507f000000000000000000000000000000000000000000000000000000000000000073ffffffffffffffffffffffffffffffffffffffff16632bdfe0046040518163ffffffff1660e01b8152600401602060405180830381865afa158015611c6c573d6000803e3d6000fd5b505050506040513d601f19601f82011682018060405250810190611c909190613a2d565b73ffffffffffffffffffffffffffffffffffffffff1663ad007d636040518163ffffffff1660e01b8152600401602060405180830381865afa158015611cda573d6000803e3d6000fd5b505050506040513d601f19601f82011682018060405250810190611cfe9190613a2d565b85516040517f0f5932f000000000000000000000000000000000000000000000000000000000815273ffffffffffffffffffffffffffffffffffffffff9290921691630f5932f091611d5a913090600090600590600401613a8a565b602060405180830381865afa158015611d77573d6000803e3d6000fd5b505050506040513d601f19601f82011682018060405250810190611d9b9190613ae3565b611f8c577f000000000000000000000000000000000000000000000000000000000000000073ffffffffffffffffffffffffffffffffffffffff16632bdfe0046040518163ffffffff1660e01b8152600401602060405180830381865afa158015611e0a573d6000803e3d6000fd5b505050506040513d601f19601f82011682018060405250810190611e2e9190613a2d565b73ffffffffffffffffffffffffffffffffffffffff1663ad007d636040518163ffffffff1660e01b8152600401602060405180830381865afa158015611e78573d6000803e3d6000fd5b505050506040513d601f19601f82011682018060405250810190611e9c9190613a2d565b73ffffffffffffffffffffffffffffffffffffffff1663529cdd2e6040518060600160405280886000015173ffffffffffffffffffffffffffffffffffffffff168152602001600081526020016005805480602002602001604051908101604052809291908181526020018280548015611f3557602002820191906000526020600020905b815481526020019060010190808311611f21575b50505050508152506040518263ffffffff1660e01b8152600401611f599190613afe565b600060405180830381600087803b158015611f7357600080fd5b505af1158015611f87573d6000803e3d6000fd5b505050505b611f9a828860a001516129bd565b611fa48285612a57565b509998505050505050505050565b6001818154811061045357600080fd5b60c08101356000908152600360205260408082205490517fd46cf1710000000000000000000000000000000000000000000000000000000081526060918291829173ffffffffffffffffffffffffffffffffffffffff169063d46cf1719061202e9088906004016143ce565b600060405180830381865afa15801561204b573d6000803e3d6000fd5b505050506040513d6000823e601f3d9081017fffffffffffffffffffffffffffffffffffffffffffffffffffffffffffffffe01682016040526120919190810190614542565b805160c089013560009081526004602090815260408083208054825181850281018501909352808352979b5094975092151595919450919291849084015b828210156121c05760008481526020908190206040805160608101825260038602909201805473ffffffffffffffffffffffffffffffffffffffff1683526001810154938301939093526002830180549293929184019161212f90614156565b80601f016020809104026020016040519081016040528092919081815260200182805461215b90614156565b80156121a85780601f1061217d576101008083540402835291602001916121a8565b820191906000526020600020905b81548152906001019060200180831161218b57829003601f168201915b505050505081525050815260200190600101906120cf565b505050509050600081519050826121d85760006121db565b60015b6121e89060ff16826146bb565b67ffffffffffffffff81111561220057612200612ebb565b60405190808252806020026020018201604052801561224d57816020015b6040805160608082018352600080835260208301529181019190915281526020019060019003908161221e5790505b50945060005b8181101561229a5782818151811061226d5761226d613c47565b602002602001015186828151811061228757612287613c47565b6020908102919091010152600101612253565b5082156122da57836000815181106122b4576122b4613c47565b60200260200101518582815181106122ce576122ce613c47565b60200260200101819052505b6122e86101608901896146ce565b8080601f016020809104026020016040519081016040528093929190818152602001838380828437600092019190915250999b929a50969850909650505050505050565b6040517f1f51045300000000000000000000000000000000000000000000000000000000815260048101829052600090819073ffffffffffffffffffffffffffffffffffffffff7f00000000000000000000000000000000000000000000000000000000000000001690631f510453906024016103c060405180830381865afa1580156123bd573d6000803e3d6000fd5b505050506040513d601f19601f820116820180604052508101906123e191906148e9565b5060008581526002602052604081208054939550919350919082612404836149a0565b9091555060008581526020819052604090205490915080158061242657508082145b80612435575042846060015110155b1561246c576040517fc97554fa00000000000000000000000000000000000000000000000000000000815260040160405180910390fd5b600085815260208190526040812080548490811061248c5761248c613c47565b6000918252602080832060408051808201825293909101546fffffffffffffffffffffffffffffffff808216855270010000000000000000000000000000000090910481168484019081528251608080820185528c810151825281860188905260c0808e01518387015260608084018a905286516102a08101885261024081018b815261026082018c905261028082018c905281528951909616868901528d87015196860196909652948401889052830187905260a0830187905292820186905260e08201869052610100820186905261012082018690526101408201869052610160820186905261018082018690526101a082018690526101c082018690526101e0820195909552610200808a015173ffffffffffffffffffffffffffffffffffffffff908116918301919091526102208a810151908301529451928a01519395507f00000000000000000000000000000000000000000000000000000000000000009094169363badbdf28938b9390612608908590612b20565b6040805160008082526020820190925290612696565b6126836040518060c00160405280600073ffffffffffffffffffffffffffffffffffffffff168152602001600073ffffffffffffffffffffffffffffffffffffffff168152602001600081526020016000815260200160008152602001600081525090565b81526020019060019003908161261e5790505b506040518763ffffffff1660e01b81526004016126b8969594939291906149d8565b6020604051808303816000875af11580156126d7573d6000803e3d6000fd5b505050506040513d601f19601f820116820180604052508101906126fb9190613bbd565b50505050505050565b604080516001808252818301909252606091816020015b60408051808201909152600081526060602082015281526020019060019003908161271b57505060408051600180825281830190925291925060009190602082015b6040805160e08101825260008082526020808301829052928201819052606082018190526080820181905260a0820181905260c082015282527fffffffffffffffffffffffffffffffffffffffffffffffffffffffffffffffff90920191018161275d5790505090506040518060e00160405280600015158152602001600015158152602001633b9aca008152602001600081526020018473ffffffffffffffffffffffffffffffffffffffff16815260200160008152602001600073ffffffffffffffffffffffffffffffffffffffff168152508160008151811061284557612845613c47565b6020026020010181905250604051806040016040528060028152602001828152508260008151811061287957612879613c47565b602002602001018190525050919050565b602081810151516040805160808101825260008082529381018490529081018390526060810183905290915b828110156129b657836020015181815181106128d4576128d4613c47565b6020908102919091018101518551918101516040808301516060840151845192517f7b621d3a000000000000000000000000000000000000000000000000000000008152600481018c905262ffffff909416602485015263ffffffff918216604485015216606483015273ffffffffffffffffffffffffffffffffffffffff9081166084830152919450911690637b621d3a9060a4016020604051808303816000875af1158015612989573d6000803e3d6000fd5b505050506040513d601f19601f820116820180604052508101906129ad9190613a2d565b506001016128b6565b5050505050565b80516001811115612a525760015b81811015612a5057600084815260208190526040902083518490839081106129f5576129f5613c47565b602090810291909101810151825460018181018555600094855293839020825192909301516fffffffffffffffffffffffffffffffff90811670010000000000000000000000000000000002921691909117910155016129cb565b505b505050565b805160005b81811015612a5057828181518110612a7657612a76613c47565b6020026020010151600460008681526020019081526020016000208281548110612aa257612aa2613c47565b600091825260209182902083516003929092020180547fffffffffffffffffffffffff00000000000000000000000000000000000000001673ffffffffffffffffffffffffffffffffffffffff90921691909117815590820151600182015560408201516002820190612b159082614afe565b505050600101612a5c565b604080516001808252818301909252606091816020015b604080518082019091526000815260606020820152815260200190600190039081612b3757905050905060007f000000000000000000000000000000000000000000000000000000000000000073ffffffffffffffffffffffffffffffffffffffff16632bdfe0046040518163ffffffff1660e01b8152600401602060405180830381865afa158015612bce573d6000803e3d6000fd5b505050506040513d601f19601f82011682018060405250810190612bf29190613a2d565b6040517f69e11cc500000000000000000000000000000000000000000000000000000000815260048101869052602481018590526002604482015273ffffffffffffffffffffffffffffffffffffffff91909116906369e11cc590606401600060405180830381865afa158015612c6d573d6000803e3d6000fd5b505050506040513d6000823e601f3d9081017fffffffffffffffffffffffffffffffffffffffffffffffffffffffffffffffe0168201604052612cb39190810190614c18565b90506040518060400160405280600281526020018281525082600081518110612cde57612cde613c47565b60200260200101819052505092915050565b600060208284031215612d0257600080fd5b5035919050565b602080825282518282018190526000919060409081850190868401855b82811015612d6157815180516fffffffffffffffffffffffffffffffff90811686529087015116868501529284019290850190600101612d26565b5091979650505050505050565b600060208284031215612d8057600080fd5b81357fffffffff0000000000000000000000000000000000000000000000000000000081168114612db057600080fd5b9392505050565b73ffffffffffffffffffffffffffffffffffffffff81168114612dd957600080fd5b50565b8035612de781612db7565b919050565b600080600080600060808688031215612e0457600080fd5b8535612e0f81612db7565b94506020860135612e1f81612db7565b935060408601359250606086013567ffffffffffffffff80821115612e4357600080fd5b818801915088601f830112612e5757600080fd5b813581811115612e6657600080fd5b896020828501011115612e7857600080fd5b9699959850939650602001949392505050565b60008060408385031215612e9e57600080fd5b823591506020830135612eb081612db7565b809150509250929050565b7f4e487b7100000000000000000000000000000000000000000000000000000000600052604160045260246000fd5b6040805190810167ffffffffffffffff81118282101715612f0d57612f0d612ebb565b60405290565b60405160c0810167ffffffffffffffff81118282101715612f0d57612f0d612ebb565b6040516080810167ffffffffffffffff81118282101715612f0d57612f0d612ebb565b6040516060810167ffffffffffffffff81118282101715612f0d57612f0d612ebb565b604051610240810167ffffffffffffffff81118282101715612f0d57612f0d612ebb565b604051610120810167ffffffffffffffff81118282101715612f0d57612f0d612ebb565b60405160e0810167ffffffffffffffff81118282101715612f0d57612f0d612ebb565b604051601f82017fffffffffffffffffffffffffffffffffffffffffffffffffffffffffffffffe016810167ffffffffffffffff8111828210171561302e5761302e612ebb565b604052919050565b600067ffffffffffffffff82111561305057613050612ebb565b50601f017fffffffffffffffffffffffffffffffffffffffffffffffffffffffffffffffe01660200190565b600061308f61308a84613036565b612fe7565b90508281528383830111156130a357600080fd5b828260208301376000602084830101529392505050565b600082601f8301126130cb57600080fd5b612db08383356020850161307c565b6000604082840312156130ec57600080fd5b6130f4612eea565b9050813567ffffffffffffffff81111561310d57600080fd5b613119848285016130ba565b8252506020820135602082015292915050565b600067ffffffffffffffff82111561314657613146612ebb565b5060051b60200190565b80356fffffffffffffffffffffffffffffffff81168114612de757600080fd5b600060c0828403121561318257600080fd5b61318a612f13565b9050813581526020808301358183015260408084013581840152606084013560608401526080840135608084015260a084013567ffffffffffffffff8111156131d257600080fd5b8401601f810186136131e357600080fd5b80356131f161308a8261312c565b81815260069190911b8201840190848101908883111561321057600080fd5b928501925b8284101561325e5784848a03121561322d5760008081fd5b613235612eea565b61323e85613150565b815261324b878601613150565b8188015282529284019290850190613215565b60a087015250939695505050505050565b600082601f83011261328057600080fd5b8135602061329061308a8361312c565b82815260059290921b840181019181810190868411156132af57600080fd5b8286015b848110156132d35780356132c681612db7565b83529183019183016132b3565b509695505050505050565b803563ffffffff81168114612de757600080fd5b6000604080838503121561330557600080fd5b61330d612eea565b9150823561331a81612db7565b825260208381013567ffffffffffffffff81111561333757600080fd5b8401601f8101861361334857600080fd5b803561335661308a8261312c565b81815260079190911b8201830190838101908883111561337557600080fd5b928401925b828410156133f4576080848a0312156133935760008081fd5b61339b612f36565b84356133a681612db7565b81528486013562ffffff811681146133be5760008081fd5b818701526133cd8588016132de565b8782015260606133de8187016132de565b908201528252608093909301929084019061337a565b808588015250505050505092915050565b600080600080600080600060e0888a03121561342057600080fd5b61342988612ddc565b9650602088013567ffffffffffffffff8082111561344657600080fd5b6134528b838c016130da565b975060408a013591508082111561346857600080fd5b6134748b838c016130ba565b965060608a013591508082111561348a57600080fd5b6134968b838c016130ba565b955060808a01359150808211156134ac57600080fd5b6134b88b838c01613170565b945060a08a01359150808211156134ce57600080fd5b6134da8b838c0161326f565b935060c08a01359150808211156134f057600080fd5b506134fd8a828b016132f2565b91505092959891949750929550565b6000806040838503121561351f57600080fd5b50508035926020909101359150565b60005b83811015613549578181015183820152602001613531565b50506000910152565b6000815180845261356a81602086016020860161352e565b601f017fffffffffffffffffffffffffffffffffffffffffffffffffffffffffffffffe0169290920160200192915050565b73ffffffffffffffffffffffffffffffffffffffff841681528260208201526060604082015260006135d16060830184613552565b95945050505050565b6000602082840312156135ec57600080fd5b813567ffffffffffffffff81111561360357600080fd5b82016101e08185031215612db057600080fd5b600060608583526020818185015261363082850187613552565b6040858203818701528187518084528484019150848160051b850101858a0160005b838110156136cd578683037fffffffffffffffffffffffffffffffffffffffffffffffffffffffffffffffe00185528151805173ffffffffffffffffffffffffffffffffffffffff16845288810151898501528601518684018a90526136ba8a850182613552565b9589019593505090870190600101613652565b50909c9b505050505050505050505050565b600082601f8301126136f057600080fd5b8135602061370061308a8361312c565b82815260059290921b8401810191818101908684111561371f57600080fd5b8286015b848110156132d357803567ffffffffffffffff808211156137445760008081fd5b81890191506060807fffffffffffffffffffffffffffffffffffffffffffffffffffffffffffffffe0848d0301121561377d5760008081fd5b613785612f59565b8784013561379281612db7565b8152604084810135898301529184013591838311156137b15760008081fd5b82850194508c603f8601126137c857600093508384fd5b6137d88d8a87013583880161307c565b908201528652505050918301918301613723565b803560ff81168114612de757600080fd5b60008060008060008060008060006101208a8c03121561381c57600080fd5b6138258a612ddc565b985060208a013567ffffffffffffffff8082111561384257600080fd5b61384e8d838e016130da565b995060408c013591508082111561386457600080fd5b6138708d838e016130ba565b985060608c013591508082111561388657600080fd5b6138928d838e016130ba565b975060808c01359150808211156138a857600080fd5b6138b48d838e01613170565b965060a08c01359150808211156138ca57600080fd5b6138d68d838e0161326f565b955060c08c01359150808211156138ec57600080fd5b6138f88d838e016132f2565b945060e08c013591508082111561390e57600080fd5b5061391b8c828d016136df565b92505061392b6101008b016137ec565b90509295985092959850929598565b60006020828403121561394c57600080fd5b813567ffffffffffffffff81111561396357600080fd5b82016101a08185031215612db057600080fd5b600060608583526020818185015261399082850187613552565b6040858203818701528187518084528484019150848160051b850101858a0160005b838110156136cd578683037fffffffffffffffffffffffffffffffffffffffffffffffffffffffffffffffe00185528151805173ffffffffffffffffffffffffffffffffffffffff16845288810151898501528601518684018a9052613a1a8a850182613552565b95890195935050908701906001016139b2565b600060208284031215613a3f57600080fd5b8151612db081612db7565b6000815480845260208085019450836000528060002060005b83811015613a7f57815487529582019560019182019101613a63565b509495945050505050565b600073ffffffffffffffffffffffffffffffffffffffff808716835280861660208401525083604083015260806060830152613ac96080830184613a4a565b9695505050505050565b80518015158114612de757600080fd5b600060208284031215613af557600080fd5b612db082613ad3565b600060208083526080830173ffffffffffffffffffffffffffffffffffffffff85511682850152818501516040850152604085015160608086015281815180845260a0870191508483019350600092505b808310156132d35783518252928401926001929092019190840190613b4f565b73ffffffffffffffffffffffffffffffffffffffff831681526040602082015260008251604080840152613ba66080840182613552565b905060208401516060840152809150509392505050565b600060208284031215613bcf57600080fd5b5051919050565b838152606060208201526000613bef6060830185613552565b8281036040840152613ac98185613552565b7f4e487b7100000000000000000000000000000000000000000000000000000000600052601160045260246000fd5b808202811582820484141761043d5761043d613c01565b7f4e487b7100000000000000000000000000000000000000000000000000000000600052603260045260246000fd5b8181038181111561043d5761043d613c01565b613cae8282518051151582526020808201511515908301526040908101511515910152565b6020810151606083015260408101516080830152606081015160a08301526080810151613cdf60c084018215159052565b5060a081015180151560e08401525060c0810151610100613d038185018315159052565b60e08301519150610120613d1a8186018415159052565b90830151915061014090613d318583018415159052565b8301519150610160613d468582018415159052565b90830151915061018090613d5d8583018415159052565b83015191506101a0613d728582018415159052565b9083015191506101c090613d898583018415159052565b83015191506101e0613d9e8582018415159052565b90830151915061020090613db58583018415159052565b8301519150610220613dca8582018415159052565b9083015173ffffffffffffffffffffffffffffffffffffffff16610240850152909101516102609092019190915250565b600081518084526020808501808196508360051b810191508286016000805b86811015613eda578385038a52825180518652860151604087870181905281518188018190529188019160609081890190865b81811015613ec35785518051151584528c81015115158d8501528581015186850152848101518585015260808082015173ffffffffffffffffffffffffffffffffffffffff9081169186019190915260a0808301519086015260c0918201511690840152948b019460e090920191600101613e4d565b50509c89019c975050509286019250600101613e1a565b509298975050505050505050565b600081518084526020808501945080840160005b83811015613a7f578151805173ffffffffffffffffffffffffffffffffffffffff908116895284820151168489015260408082015190890152606080820151908901526080808201519089015260a0908101519088015260c09096019590820190600101613efc565b60006103c08983526020613fb28185018b80518252602081015160208301526040810151604083015273ffffffffffffffffffffffffffffffffffffffff60608201511660608301525050565b613fbf60a085018a613c89565b6fffffffffffffffffffffffffffffffff881661032085015281610340850152613feb82850188613dfb565b91508382036103608501526140008287613ee8565b848103610380860152855180825282870193509082019060005b8181101561404c57845173ffffffffffffffffffffffffffffffffffffffff168352938301939183019160010161401a565b50508481036103a0860152600f81527f7265766e6574206465706c6f79656400000000000000000000000000000000006020820152604081019c9b505050505050505050505050565b7f24000000000000000000000000000000000000000000000000000000000000008152600082516140cd81600185016020870161352e565b7f207072656d696e746564000000000000000000000000000000000000000000006001939091019283015250600b01919050565b86815285602082015273ffffffffffffffffffffffffffffffffffffffff8516604082015260c06060820152600061413c60c0830186613552565b93151560808301525090151560a090910152949350505050565b600181811c9082168061416a57607f821691505b6020821081036141a3577f4e487b7100000000000000000000000000000000000000000000000000000000600052602260045260246000fd5b50919050565b600181815b8085111561420257817fffffffffffffffffffffffffffffffffffffffffffffffffffffffffffffffff048211156141e8576141e8613c01565b808516156141f557918102915b93841c93908002906141ae565b509250929050565b6000826142195750600161043d565b816142265750600061043d565b816001811461423c576002811461424657614262565b600191505061043d565b60ff84111561425757614257613c01565b50506001821b61043d565b5060208310610133831016604e8410600b8410161715614285575081810a61043d565b61428f83836141a9565b807fffffffffffffffffffffffffffffffffffffffffffffffffffffffffffffffff048211156142c1576142c1613c01565b029392505050565b6000612db060ff84168361420a565b80356142e381612db7565b73ffffffffffffffffffffffffffffffffffffffff1682526020818101359083015260408082013590830152606090810135910152565b60008083357fffffffffffffffffffffffffffffffffffffffffffffffffffffffffffffffe184360301811261434f57600080fd5b830160208101925035905067ffffffffffffffff81111561436f57600080fd5b80360382131561437e57600080fd5b9250929050565b8183528181602085013750600060208284010152600060207fffffffffffffffffffffffffffffffffffffffffffffffffffffffffffffffe0601f840116840101905092915050565b602081526143fc602082016143e284612ddc565b73ffffffffffffffffffffffffffffffffffffffff169052565b600061440a60208401612ddc565b73ffffffffffffffffffffffffffffffffffffffff811660408401525061443760608301604085016142d8565b60c083013560e083015261010060e084013581840152614458818501612ddc565b905061012061447e8185018373ffffffffffffffffffffffffffffffffffffffff169052565b610140915080850135828501525061016081850135818501526144a38186018661431a565b925090506101a061018081818701526144c16101c087018585614385565b93506144cf8188018861431a565b935090507fffffffffffffffffffffffffffffffffffffffffffffffffffffffffffffffe08685030182870152614507848483614385565b979650505050505050565b600061452061308a84613036565b905082815283838301111561453457600080fd5b612db083602083018461352e565b60008060006060848603121561455757600080fd5b8351925060208085015167ffffffffffffffff8082111561457757600080fd5b818701915087601f83011261458b57600080fd5b614599888351858501614512565b945060408701519150808211156145af57600080fd5b818701915087601f8301126145c357600080fd5b81516145d161308a8261312c565b81815260059190911b8301840190848101908a8311156145f057600080fd5b8585015b838110156146aa5780518581111561460b57600080fd5b86016060818e037fffffffffffffffffffffffffffffffffffffffffffffffffffffffffffffffe001121561463f57600080fd5b614647612f59565b8882015161465481612db7565b815260408201518982015260608201518781111561467157600080fd5b8083019250508d603f83011261468657600080fd5b6146978e8a84015160408501614512565b60408201528452509186019186016145f4565b508096505050505050509250925092565b8082018082111561043d5761043d613c01565b60008083357fffffffffffffffffffffffffffffffffffffffffffffffffffffffffffffffe184360301811261470357600080fd5b83018035915067ffffffffffffffff82111561471e57600080fd5b60200191503681900382131561437e57600080fd5b8051612de781612db7565b60006060828403121561475057600080fd5b614758612f59565b905061476382613ad3565b815261477160208301613ad3565b602082015261478260408301613ad3565b604082015292915050565b600061028082840312156147a057600080fd5b6147a8612f7c565b90506147b4838361473e565b8152606082015160208201526080820151604082015260a082015160608201526147e060c08301613ad3565b60808201526147f160e08301613ad3565b60a0820152610100614804818401613ad3565b60c0830152610120614817818501613ad3565b60e084015261014061482a818601613ad3565b83850152610160925061483e838601613ad3565b828501526101809150614852828601613ad3565b908401526101a0614864858201613ad3565b838501526101c09250614878838601613ad3565b828501526101e0915061488c828601613ad3565b9084015261020061489e858201613ad3565b8385015261022092506148b2838601613ad3565b828501526148c36102408601614733565b818501525050610260830151818301525092915050565b805160038110612de757600080fd5b60008060008385036103c081121561490057600080fd5b6101208082121561491057600080fd5b614918612fa0565b9150855182526020860151602083015260408601516040830152606086015160608301526080860151608083015260a086015160a083015260c086015160c083015261496660e08701614733565b60e08301526101008087015181840152508194506149868782880161478d565b935050506149976103a085016148da565b90509250925092565b60007fffffffffffffffffffffffffffffffffffffffffffffffffffffffffffffffff82036149d1576149d1613c01565b5060010190565b60006103a0888352614a24602084018980518252602081015160208301526040810151604083015273ffffffffffffffffffffffffffffffffffffffff60608201511660608301525050565b614a3160a0840188613c89565b6fffffffffffffffffffffffffffffffff861661032084015280610340840152614a5d81840186613dfb565b9050828103610360840152614a728185613ee8565b838103610380909401939093525050601681527f7265766e657420626f6f7374207363686564756c65640000000000000000000060208201526040019695505050505050565b601f821115612a5257600081815260208120601f850160051c81016020861015614adf5750805b601f850160051c820191505b81811015610ae857828155600101614aeb565b815167ffffffffffffffff811115614b1857614b18612ebb565b614b2c81614b268454614156565b84614ab8565b602080601f831160018114614b7f5760008415614b495750858301515b7fffffffffffffffffffffffffffffffffffffffffffffffffffffffffffffffff600386901b1c1916600185901b178555610ae8565b6000858152602081207fffffffffffffffffffffffffffffffffffffffffffffffffffffffffffffffe08616915b82811015614bcc57888601518255948401946001909101908401614bad565b5085821015614c0857878501517fffffffffffffffffffffffffffffffffffffffffffffffffffffffffffffffff600388901b60f8161c191681555b5050505050600190811b01905550565b60006020808385031215614c2b57600080fd5b825167ffffffffffffffff811115614c4257600080fd5b8301601f81018513614c5357600080fd5b8051614c6161308a8261312c565b81815260e09182028301840191848201919088841115614c8057600080fd5b938501935b838510156112c55780858a031215614c9d5760008081fd5b614ca5612fc4565b614cae86613ad3565b8152614cbb878701613ad3565b818801526040868101519082015260608087015190820152608080870151614ce281612db7565b9082015260a0868101519082015260c080870151614cff81612db7565b9082015283529384019391850191614c8556fea264697066735822122061a91dc13aeeb903cf0b2c77e68609fe0103264902dd572da5fdec3ad227303a64736f6c63430008140033",
    "linkReferences": {}
  },
  "methodIdentifiers": {
    "boostOperatorPermissionIndexes(uint256)": "b82f18c1",
    "boostsOf(uint256)": "01a7d01a",
    "buybackHookOf(uint256)": "7249a773",
    "buybackHookPermissionIndexes(uint256)": "086e941b",
    "controller()": "f77c4791",
    "currentBoostNumberOf(uint256)": "ad011669",
    "deployPayHookNetworkFor(address,(string,uint256),string,string,(uint256,uint256,uint256,uint256,uint256,(uint128,uint128)[]),address[],(address,(address,uint24,uint32,uint32)[]),(address,uint256,bytes)[],uint8)": "b58e84cc",
    "deployRevnetFor(address,(string,uint256),string,string,(uint256,uint256,uint256,uint256,uint256,(uint128,uint128)[]),address[],(address,(address,uint24,uint32,uint32)[]))": "48dc59b6",
    "onERC721Received(address,address,uint256,bytes)": "150b7a02",
    "payHooksOf(uint256,uint256)": "7a56f982",
    "payParams((address,address,(address,uint256,uint256,uint256),uint256,uint256,address,uint256,uint256,string,bytes))": "d46cf171",
    "redeemParams((address,address,uint256,uint256,uint256,uint256,uint256,(address,uint256,uint256,uint256),bool,uint256,string,bytes))": "a51cfd18",
    "replaceBoostOperatorOf(uint256,address)": "440cfb7b",
    "scheduleNextBoostOf(uint256)": "ec3004ac",
    "supportsInterface(bytes4)": "01ffc9a7"
  },
  "id": 112
}