{
  "abi": [
    {
      "inputs": [
        {
          "internalType": "contract IJBController3_1",
          "name": "_controller",
          "type": "address"
        },
        {
          "internalType": "contract IJBPayoutRedemptionPaymentTerminal3_1_1",
          "name": "_terminal",
          "type": "address"
        }
      ],
      "stateMutability": "nonpayable",
      "type": "constructor"
    },
    {
      "inputs": [],
      "name": "RECONFIGURATION_ALREADY_SCHEDULED",
      "type": "error"
    },
    {
      "inputs": [],
      "name": "controller",
      "outputs": [
        {
          "internalType": "contract IJBController3_1",
          "name": "",
          "type": "address"
        }
      ],
      "stateMutability": "view",
      "type": "function"
    },
    {
      "inputs": [
        {
          "internalType": "address",
          "name": "_operator",
          "type": "address"
        },
        {
          "components": [
            {
              "internalType": "string",
              "name": "content",
              "type": "string"
            },
            {
              "internalType": "uint256",
              "name": "domain",
              "type": "uint256"
            }
          ],
          "internalType": "struct JBProjectMetadata",
          "name": "_projectMetadata",
          "type": "tuple"
        },
        {
          "internalType": "string",
          "name": "_name",
          "type": "string"
        },
        {
          "internalType": "string",
          "name": "_symbol",
          "type": "string"
        },
        {
          "components": [
            {
              "internalType": "uint256",
              "name": "initialIssuanceRate",
              "type": "uint256"
            },
            {
              "internalType": "uint256",
              "name": "premintTokenAmount",
              "type": "uint256"
            },
            {
              "internalType": "uint256",
              "name": "discountRate",
              "type": "uint256"
            },
            {
              "internalType": "uint256",
              "name": "discountPeriod",
              "type": "uint256"
            },
            {
              "internalType": "uint256",
              "name": "redemptionRate",
              "type": "uint256"
            },
            {
              "internalType": "uint256",
              "name": "reservedRate",
              "type": "uint256"
            },
            {
              "internalType": "uint48",
              "name": "reservedRateDuration",
              "type": "uint48"
            }
          ],
          "internalType": "struct BasicRetailistJBParams",
          "name": "_data",
          "type": "tuple"
        }
      ],
      "name": "deployBasicProjectFor",
      "outputs": [
        {
          "internalType": "uint256",
          "name": "projectId",
          "type": "uint256"
        }
      ],
      "stateMutability": "nonpayable",
      "type": "function"
    },
    {
      "inputs": [
        {
          "internalType": "address",
          "name": "_operator",
          "type": "address"
        },
        {
          "internalType": "address",
          "name": "_from",
          "type": "address"
        },
        {
          "internalType": "uint256",
          "name": "_tokenId",
          "type": "uint256"
        },
        {
          "internalType": "bytes",
          "name": "_data",
          "type": "bytes"
        }
      ],
      "name": "onERC721Received",
      "outputs": [
        {
          "internalType": "bytes4",
          "name": "",
          "type": "bytes4"
        }
      ],
      "stateMutability": "view",
      "type": "function"
    },
    {
      "inputs": [
        {
          "internalType": "uint256",
          "name": "",
          "type": "uint256"
        }
      ],
      "name": "permissionIndexes",
      "outputs": [
        {
          "internalType": "uint256",
          "name": "",
          "type": "uint256"
        }
      ],
      "stateMutability": "view",
      "type": "function"
    },
    {
      "inputs": [
        {
          "internalType": "uint256",
          "name": "projectId",
          "type": "uint256"
        }
      ],
      "name": "reconfigurationStartTimestampOf",
      "outputs": [
        {
          "internalType": "uint256",
          "name": "",
          "type": "uint256"
        }
      ],
      "stateMutability": "view",
      "type": "function"
    },
    {
      "inputs": [
        {
          "internalType": "uint256",
          "name": "_projectId",
          "type": "uint256"
        }
      ],
      "name": "scheduleReconfigurationOf",
      "outputs": [],
      "stateMutability": "nonpayable",
      "type": "function"
    },
    {
      "inputs": [
        {
          "internalType": "bytes4",
          "name": "_interfaceId",
          "type": "bytes4"
        }
      ],
      "name": "supportsInterface",
      "outputs": [
        {
          "internalType": "bool",
          "name": "",
          "type": "bool"
        }
      ],
      "stateMutability": "view",
      "type": "function"
    },
    {
      "inputs": [
        {
          "internalType": "uint256",
          "name": "",
          "type": "uint256"
        }
      ],
      "name": "terminals",
      "outputs": [
        {
          "internalType": "contract IJBPaymentTerminal",
          "name": "",
          "type": "address"
        }
      ],
      "stateMutability": "view",
      "type": "function"
    }
  ],
  "bytecode": {
    "object": "0x60a06040523480156200001157600080fd5b506040516200207c3803806200207c8339810160408190526200003491620000d7565b6001600160a01b0391821660805260008054600180820183557f290decd9548b62a8d60345a988386fc84ba6bc95484008f6362f93160ef3e56390910180546001600160a01b031916939094169290921790925580548082018255915260127fb10e2d527612073b26eecdfd717e6a320cf44b4afac2b0732d9fcbe2b7fa0cf69091015562000116565b6001600160a01b0381168114620000d457600080fd5b50565b60008060408385031215620000eb57600080fd5b8251620000f881620000be565b60208401519092506200010b81620000be565b809150509250929050565b608051611f126200016a600039600081816101e1015281816103c0015281816104d0015281816105e601528181610829015281816108eb01528181610b1501528181610c6e0152610e210152611f126000f3fe608060405234801561001057600080fd5b50600436106100885760003560e01c80633ce6d3e21161005b5780633ce6d3e214610194578063560f7b03146101a95780639483e771146101c9578063f77c4791146101dc57600080fd5b806301ffc9a71461008d5780630219758e146100f75780630e53d9cc1461012f578063150b7a0214610150575b600080fd5b6100e261009b366004610f97565b7fffffffff00000000000000000000000000000000000000000000000000000000167f150b7a02000000000000000000000000000000000000000000000000000000001490565b60405190151581526020015b60405180910390f35b61010a610105366004610fe0565b610203565b60405173ffffffffffffffffffffffffffffffffffffffff90911681526020016100ee565b61014261013d366004611067565b61023a565b6040519081526020016100ee565b61016361015e366004611151565b610b11565b6040517fffffffff0000000000000000000000000000000000000000000000000000000090911681526020016100ee565b6101a76101a2366004610fe0565b610c25565b005b6101426101b7366004610fe0565b60026020526000908152604090205481565b6101426101d7366004610fe0565b610f76565b61010a7f000000000000000000000000000000000000000000000000000000000000000081565b6000818154811061021357600080fd5b60009182526020909120015473ffffffffffffffffffffffffffffffffffffffff16905081565b604080516001808252818301909252600091829190816020015b60408051808201909152600081526060602082015281526020019060019003908161025457505060408051600180825281830190925291925060009190602082015b6040805160e08101825260008082526020808301829052928201819052606082018190526080820181905260a0820181905260c082015282527fffffffffffffffffffffffffffffffffffffffffffffffffffffffffffffffff9092019101816102965790505090506040518060e00160405280600015158152602001600015158152602001633b9aca008152602001600081526020018b73ffffffffffffffffffffffffffffffffffffffff16815260200160008152602001600073ffffffffffffffffffffffffffffffffffffffff168152508160018151811061037e5761037e6111c4565b602002602001018190525060405180604001604052806002815260200182815250826000815181106103b2576103b26111c4565b6020026020010181905250507f000000000000000000000000000000000000000000000000000000000000000073ffffffffffffffffffffffffffffffffffffffff16638b79543c6040518163ffffffff1660e01b8152600401602060405180830381865afa158015610429573d6000803e3d6000fd5b505050506040513d601f19601f8201168201806040525081019061044d91906111f3565b73ffffffffffffffffffffffffffffffffffffffff1663666d87a0308a6040518363ffffffff1660e01b8152600401610487929190611259565b6020604051808303816000875af11580156104a6573d6000803e3d6000fd5b505050506040513d601f19601f820116820180604052508101906104ca9190611305565b915060007f000000000000000000000000000000000000000000000000000000000000000073ffffffffffffffffffffffffffffffffffffffff1663619306306040518163ffffffff1660e01b8152600401602060405180830381865afa158015610539573d6000803e3d6000fd5b505050506040513d601f19601f8201168201806040525081019061055d91906111f3565b73ffffffffffffffffffffffffffffffffffffffff1663a7f2a70b848a8a8a8a6040518663ffffffff1660e01b815260040161059d95949392919061131e565b6020604051808303816000875af11580156105bc573d6000803e3d6000fd5b505050506040513d601f19601f820116820180604052508101906105e091906111f3565b905060007f000000000000000000000000000000000000000000000000000000000000000073ffffffffffffffffffffffffffffffffffffffff1663111d861b8560405180608001604052808960600135815260200160128a6000013561064791906114a8565b815260408a810135602080840191909152600092820183905281516102a081018352610240810184815261026082018590526102808201859052815260a0808e0135828401526080808f013583860152606083018690528201859052810184905260c0810184905260e081018490526001610100820181905261012082018590526101408201859052610160820185905261018082018590526101a082018590526101c08201526101e0810184905273ffffffffffffffffffffffffffffffffffffffff8916610200820152610220810184905282518481529182019092529091908990826107a9565b6107966040518060c00160405280600073ffffffffffffffffffffffffffffffffffffffff168152602001600073ffffffffffffffffffffffffffffffffffffffff168152602001600081526020016000815260200160008152602001600081525090565b8152602001906001900390816107315790505b5060006040518863ffffffff1660e01b81526004016107ce979695949392919061179e565b6020604051808303816000875af11580156107ed573d6000803e3d6000fd5b505050506040513d601f19601f820116820180604052508101906108119190611305565b5073ffffffffffffffffffffffffffffffffffffffff7f000000000000000000000000000000000000000000000000000000000000000016638ae9c07b8561085e601260208a01356114a8565b8e8b8b6040516020016108729291906118bf565b6040516020818303038152906040526000806040518763ffffffff1660e01b81526004016108a59695949392919061191c565b6020604051808303816000875af11580156108c4573d6000803e3d6000fd5b505050506040513d601f19601f820116820180604052508101906108e89190611305565b507f000000000000000000000000000000000000000000000000000000000000000073ffffffffffffffffffffffffffffffffffffffff16632bdfe0046040518163ffffffff1660e01b8152600401602060405180830381865afa158015610954573d6000803e3d6000fd5b505050506040513d601f19601f8201168201806040525081019061097891906111f3565b73ffffffffffffffffffffffffffffffffffffffff1663ad007d636040518163ffffffff1660e01b8152600401602060405180830381865afa1580156109c2573d6000803e3d6000fd5b505050506040513d601f19601f820116820180604052508101906109e691906111f3565b73ffffffffffffffffffffffffffffffffffffffff1663529cdd2e60405180606001604052808e73ffffffffffffffffffffffffffffffffffffffff1681526020018781526020016001805480602002602001604051908101604052809291908181526020018280548015610a7a57602002820191906000526020600020905b815481526020019060010190808311610a66575b50505050508152506040518263ffffffff1660e01b8152600401610a9e91906119cc565b600060405180830381600087803b158015610ab857600080fd5b505af1158015610acc573d6000803e3d6000fd5b50610ae19250505060e0860160c08701611a48565b610af39065ffffffffffff1642611a70565b60008581526002602052604090205550919998505050505050505050565b60007f000000000000000000000000000000000000000000000000000000000000000073ffffffffffffffffffffffffffffffffffffffff16638b79543c6040518163ffffffff1660e01b8152600401602060405180830381865afa158015610b7e573d6000803e3d6000fd5b505050506040513d601f19601f82011682018060405250810190610ba291906111f3565b73ffffffffffffffffffffffffffffffffffffffff163373ffffffffffffffffffffffffffffffffffffffff1614610bd957600080fd5b73ffffffffffffffffffffffffffffffffffffffff851615610bfa57600080fd5b507f150b7a020000000000000000000000000000000000000000000000000000000095945050505050565b6040517f1f51045300000000000000000000000000000000000000000000000000000000815260048101829052600090819073ffffffffffffffffffffffffffffffffffffffff7f00000000000000000000000000000000000000000000000000000000000000001690631f510453906024016103c060405180830381865afa158015610cb6573d6000803e3d6000fd5b505050506040513d601f19601f82011682018060405250810190610cda9190611d31565b5081519193509150600114610d1b576040517fc97554fa00000000000000000000000000000000000000000000000000000000815260040160405180910390fd5b60408051608080820183528481015182526000602080840182905260c08088015185870152606080860184905286516102a0810188526102408101858152610260820186905261028082018690528152808401859052888801518189015290810184905293840183905260a08401839052830182905260e08301829052610100830182905261012083018290526101408301829052610160830182905261018083018290526101a083018290526101c083018290526101e083018290526102008087015173ffffffffffffffffffffffffffffffffffffffff908116918501919091526102208781015190850152888352600282528583205486518481529283019096527f0000000000000000000000000000000000000000000000000000000000000000169463badbdf289489949093909290610e7c565b604080518082019091526000815260606020820152815260200190600190039081610e545790505b506040805160008082526020820190925290610f0b565b610ef86040518060c00160405280600073ffffffffffffffffffffffffffffffffffffffff168152602001600073ffffffffffffffffffffffffffffffffffffffff168152602001600081526020016000815260200160008152602001600081525090565b815260200190600190039081610e935790505b506040518763ffffffff1660e01b8152600401610f2d96959493929190611de8565b6020604051808303816000875af1158015610f4c573d6000803e3d6000fd5b505050506040513d601f19601f82011682018060405250810190610f709190611305565b50505050565b60018181548110610f8657600080fd5b600091825260209091200154905081565b600060208284031215610fa957600080fd5b81357fffffffff0000000000000000000000000000000000000000000000000000000081168114610fd957600080fd5b9392505050565b600060208284031215610ff257600080fd5b5035919050565b73ffffffffffffffffffffffffffffffffffffffff8116811461101b57600080fd5b50565b60008083601f84011261103057600080fd5b50813567ffffffffffffffff81111561104857600080fd5b60208301915083602082850101111561106057600080fd5b9250929050565b600080600080600080600087890361016081121561108457600080fd5b883561108f81610ff9565b9750602089013567ffffffffffffffff808211156110ac57600080fd5b908a01906040828d0312156110c057600080fd5b90975060408a013590808211156110d657600080fd5b6110e28c838d0161101e565b909850965060608b01359150808211156110fb57600080fd5b506111088b828c0161101e565b90955093505060e07fffffffffffffffffffffffffffffffffffffffffffffffffffffffffffffff808201121561113e57600080fd5b5060808801905092959891949750929550565b60008060008060006080868803121561116957600080fd5b853561117481610ff9565b9450602086013561118481610ff9565b935060408601359250606086013567ffffffffffffffff8111156111a757600080fd5b6111b38882890161101e565b969995985093965092949392505050565b7f4e487b7100000000000000000000000000000000000000000000000000000000600052603260045260246000fd5b60006020828403121561120557600080fd5b8151610fd981610ff9565b8183528181602085013750600060208284010152600060207fffffffffffffffffffffffffffffffffffffffffffffffffffffffffffffffe0601f840116840101905092915050565b73ffffffffffffffffffffffffffffffffffffffff8316815260406020820152600082357fffffffffffffffffffffffffffffffffffffffffffffffffffffffffffffffe18436030181126112ad57600080fd5b830160208101903567ffffffffffffffff8111156112ca57600080fd5b8036038213156112d957600080fd5b6040808501526112ed608085018284611210565b91505060208401356060840152809150509392505050565b60006020828403121561131757600080fd5b5051919050565b858152606060208201526000611338606083018688611210565b828103604084015261134b818587611210565b98975050505050505050565b7f4e487b7100000000000000000000000000000000000000000000000000000000600052601160045260246000fd5b600181815b808511156113df57817fffffffffffffffffffffffffffffffffffffffffffffffffffffffffffffffff048211156113c5576113c5611357565b808516156113d257918102915b93841c939080029061138b565b509250929050565b6000826113f6575060016114a2565b81611403575060006114a2565b816001811461141957600281146114235761143f565b60019150506114a2565b60ff84111561143457611434611357565b50506001821b6114a2565b5060208310610133831016604e8410600b8410161715611462575081810a6114a2565b61146c8383611386565b807fffffffffffffffffffffffffffffffffffffffffffffffffffffffffffffffff0482111561149e5761149e611357565b0290505b92915050565b6000610fd960ff8416836113e7565b6114dc8282518051151582526020808201511515908301526040908101511515910152565b6020810151606083015260408101516080830152606081015160a0830152608081015161150d60c084018215159052565b5060a081015180151560e08401525060c08101516101006115318185018315159052565b60e083015191506101206115488186018415159052565b9083015191506101409061155f8583018415159052565b83015191506101606115748582018415159052565b9083015191506101809061158b8583018415159052565b83015191506101a06115a08582018415159052565b9083015191506101c0906115b78583018415159052565b83015191506101e06115cc8582018415159052565b908301519150610200906115e38583018415159052565b83015191506102206115f88582018415159052565b9083015173ffffffffffffffffffffffffffffffffffffffff16610240850152909101516102609092019190915250565b600081518084526020808501808196508360051b810191508286016000805b86811015611708578385038a52825180518652860151604087870181905281518188018190529188019160609081890190865b818110156116f15785518051151584528c81015115158d8501528581015186850152848101518585015260808082015173ffffffffffffffffffffffffffffffffffffffff9081169186019190915260a0808301519086015260c0918201511690840152948b019460e09092019160010161167b565b50509c89019c975050509286019250600101611648565b509298975050505050505050565b600081518084526020808501945080840160005b83811015611793578151805173ffffffffffffffffffffffffffffffffffffffff908116895284820151168489015260408082015190890152606080820151908901526080808201519089015260a0908101519088015260c0909601959082019060010161172a565b509495945050505050565b60006103c089835260206117eb8185018b80518252602081015160208301526040810151604083015273ffffffffffffffffffffffffffffffffffffffff60608201511660608301525050565b6117f860a085018a6114b7565b876103208501528161034085015261181282850188611629565b91508382036103608501526118278287611716565b848103610380860152855480825260008781528381209450918301915b8181101561187657845473ffffffffffffffffffffffffffffffffffffffff1683526001948501949284019201611844565b50508481036103a0860152601b81527f4465706c6f7965642052657461696c69737420747265617375727900000000006020820152604081019c9b505050505050505050505050565b7f5072656d696e746564200000000000000000000000000000000000000000000081528183600a8301377f20746f6b656e732e0000000000000000000000000000000000000000000000009101600a810191909152601201919050565b86815260006020878184015273ffffffffffffffffffffffffffffffffffffffff8716604084015260c0606084015285518060c085015260005b818110156119725787810183015185820160e001528201611956565b50600060e0828601015260e07fffffffffffffffffffffffffffffffffffffffffffffffffffffffffffffffe0601f830116850101925050506119b9608083018515159052565b82151560a0830152979650505050505050565b600060208083526080830173ffffffffffffffffffffffffffffffffffffffff85511682850152818501516040850152604085015160608086015281815180845260a0870191508483019350600092505b80831015611a3d5783518252928401926001929092019190840190611a1d565b509695505050505050565b600060208284031215611a5a57600080fd5b813565ffffffffffff81168114610fd957600080fd5b808201808211156114a2576114a2611357565b604051610240810167ffffffffffffffff81118282101715611ace577f4e487b7100000000000000000000000000000000000000000000000000000000600052604160045260246000fd5b60405290565b604051610120810167ffffffffffffffff81118282101715611ace577f4e487b7100000000000000000000000000000000000000000000000000000000600052604160045260246000fd5b8051611b2a81610ff9565b919050565b80518015158114611b2a57600080fd5b600060608284031215611b5157600080fd5b6040516060810181811067ffffffffffffffff82111715611b9b577f4e487b7100000000000000000000000000000000000000000000000000000000600052604160045260246000fd5b604052905080611baa83611b2f565b8152611bb860208401611b2f565b6020820152611bc960408401611b2f565b60408201525092915050565b60006102808284031215611be857600080fd5b611bf0611a83565b9050611bfc8383611b3f565b8152606082015160208201526080820151604082015260a08201516060820152611c2860c08301611b2f565b6080820152611c3960e08301611b2f565b60a0820152610100611c4c818401611b2f565b60c0830152610120611c5f818501611b2f565b60e0840152610140611c72818601611b2f565b838501526101609250611c86838601611b2f565b828501526101809150611c9a828601611b2f565b908401526101a0611cac858201611b2f565b838501526101c09250611cc0838601611b2f565b828501526101e09150611cd4828601611b2f565b90840152610200611ce6858201611b2f565b838501526102209250611cfa838601611b2f565b82850152611d0b6102408601611b1f565b818501525050610260830151818301525092915050565b805160038110611b2a57600080fd5b60008060008385036103c0811215611d4857600080fd5b61012080821215611d5857600080fd5b611d60611ad4565b9150855182526020860151602083015260408601516040830152606086015160608301526080860151608083015260a086015160a083015260c086015160c0830152611dae60e08701611b1f565b60e0830152610100808701518184015250819450611dce87828801611bd5565b93505050611ddf6103a08501611d22565b90509250925092565b60006103a0888352611e34602084018980518252602081015160208301526040810151604083015273ffffffffffffffffffffffffffffffffffffffff60608201511660608301525050565b611e4160a08401886114b7565b8561032084015280610340840152611e5b81840186611629565b9050828103610360840152611e708185611716565b838103610380909401939093525050603481527f5363686564756c6564207265736572766564207261746520657870697279206f60208201527f662052657461696c6973742074726561737572790000000000000000000000006040820152606001969550505050505056fea26469706673582212205962f2d0c6fa7cb7dc68853930248d66e972580364aa645ad29c1f4f278cdcb964736f6c63430008140033",
    "linkReferences": {}
  },
  "methodIdentifiers": {
    "controller()": "f77c4791",
    "deployBasicProjectFor(address,(string,uint256),string,string,(uint256,uint256,uint256,uint256,uint256,uint256,uint48))": "0e53d9cc",
    "onERC721Received(address,address,uint256,bytes)": "150b7a02",
    "permissionIndexes(uint256)": "9483e771",
    "reconfigurationStartTimestampOf(uint256)": "560f7b03",
    "scheduleReconfigurationOf(uint256)": "3ce6d3e2",
    "supportsInterface(bytes4)": "01ffc9a7",
    "terminals(uint256)": "0219758e"
  },
  "id": 82
}