{
  "abi": [
    {
      "inputs": [
        {
          "internalType": "contract IJBController3_1",
          "name": "_controller",
          "type": "address"
        }
      ],
      "stateMutability": "nonpayable",
      "type": "constructor"
    },
    {
      "inputs": [],
      "name": "RECONFIGURATION_ALREADY_SCHEDULED",
      "type": "error"
    },
    {
      "inputs": [],
      "name": "controller",
      "outputs": [
        {
          "internalType": "contract IJBController3_1",
          "name": "",
          "type": "address"
        }
      ],
      "stateMutability": "view",
      "type": "function"
    },
    {
      "inputs": [
        {
          "internalType": "address",
          "name": "_operator",
          "type": "address"
        },
        {
          "components": [
            {
              "internalType": "string",
              "name": "content",
              "type": "string"
            },
            {
              "internalType": "uint256",
              "name": "domain",
              "type": "uint256"
            }
          ],
          "internalType": "struct JBProjectMetadata",
          "name": "_projectMetadata",
          "type": "tuple"
        },
        {
          "internalType": "string",
          "name": "_name",
          "type": "string"
        },
        {
          "internalType": "string",
          "name": "_symbol",
          "type": "string"
        },
        {
          "components": [
            {
              "internalType": "uint256",
              "name": "initialIssuanceRate",
              "type": "uint256"
            },
            {
              "internalType": "uint256",
              "name": "premintTokenAmount",
              "type": "uint256"
            },
            {
              "internalType": "uint256",
              "name": "discountRate",
              "type": "uint256"
            },
            {
              "internalType": "uint256",
              "name": "cycleDurations",
              "type": "uint256"
            },
            {
              "internalType": "uint256",
              "name": "redemptionRate",
              "type": "uint256"
            },
            {
              "internalType": "uint256",
              "name": "reservedRate",
              "type": "uint256"
            },
            {
              "internalType": "uint48",
              "name": "reservedRateDuration",
              "type": "uint48"
            },
            {
              "internalType": "uint24",
              "name": "poolFee",
              "type": "uint24"
            }
          ],
          "internalType": "struct BasicRetailistJBParams",
          "name": "_data",
          "type": "tuple"
        },
        {
          "internalType": "contract IJBPaymentTerminal[]",
          "name": "_terminals",
          "type": "address[]"
        },
        {
          "internalType": "contract IJBGenericBuybackDelegate",
          "name": "_buybackDelegate",
          "type": "address"
        }
      ],
      "name": "deployBasicProjectFor",
      "outputs": [
        {
          "internalType": "uint256",
          "name": "projectId",
          "type": "uint256"
        }
      ],
      "stateMutability": "nonpayable",
      "type": "function"
    },
    {
      "inputs": [
        {
          "internalType": "address",
          "name": "_operator",
          "type": "address"
        },
        {
          "internalType": "address",
          "name": "_from",
          "type": "address"
        },
        {
          "internalType": "uint256",
          "name": "_tokenId",
          "type": "uint256"
        },
        {
          "internalType": "bytes",
          "name": "_data",
          "type": "bytes"
        }
      ],
      "name": "onERC721Received",
      "outputs": [
        {
          "internalType": "bytes4",
          "name": "",
          "type": "bytes4"
        }
      ],
      "stateMutability": "view",
      "type": "function"
    },
    {
      "inputs": [
        {
          "internalType": "uint256",
          "name": "",
          "type": "uint256"
        }
      ],
      "name": "permissionIndexes",
      "outputs": [
        {
          "internalType": "uint256",
          "name": "",
          "type": "uint256"
        }
      ],
      "stateMutability": "view",
      "type": "function"
    },
    {
      "inputs": [
        {
          "internalType": "uint256",
          "name": "projectId",
          "type": "uint256"
        }
      ],
      "name": "reconfigurationStartTimestampOf",
      "outputs": [
        {
          "internalType": "uint256",
          "name": "",
          "type": "uint256"
        }
      ],
      "stateMutability": "view",
      "type": "function"
    },
    {
      "inputs": [
        {
          "internalType": "uint256",
          "name": "_projectId",
          "type": "uint256"
        }
      ],
      "name": "scheduleReconfigurationOf",
      "outputs": [],
      "stateMutability": "nonpayable",
      "type": "function"
    },
    {
      "inputs": [
        {
          "internalType": "bytes4",
          "name": "_interfaceId",
          "type": "bytes4"
        }
      ],
      "name": "supportsInterface",
      "outputs": [
        {
          "internalType": "bool",
          "name": "",
          "type": "bool"
        }
      ],
      "stateMutability": "view",
      "type": "function"
    }
  ],
  "bytecode": {
    "object": "0x60a060405234801561001057600080fd5b50604051620022a8380380620022a883398101604081905261003191610084565b6001600160a01b0316608052600080546001818101835582805260127f290decd9548b62a8d60345a988386fc84ba6bc95484008f6362f93160ef3e56392830155825490810190925560189101556100b4565b60006020828403121561009657600080fd5b81516001600160a01b03811681146100ad57600080fd5b9392505050565b6080516121a0620001086000396000818161019e015281816101e901528181610342015281816104f5015281816107f1015281816108ff01528181610bb001528181610ddd0152610eb401526121a06000f3fe608060405234801561001057600080fd5b506004361061007d5760003560e01c8063560f7b031161005b578063560f7b03146101455780639483e77114610173578063d87b09e314610186578063f77c47911461019957600080fd5b806301ffc9a714610082578063150b7a02146100ec5780633ce6d3e214610130575b600080fd5b6100d76100903660046110cb565b7fffffffff00000000000000000000000000000000000000000000000000000000167f150b7a02000000000000000000000000000000000000000000000000000000001490565b60405190151581526020015b60405180910390f35b6100ff6100fa366004611149565b6101e5565b6040517fffffffff0000000000000000000000000000000000000000000000000000000090911681526020016100e3565b61014361013e3660046111e8565b6102f9565b005b6101656101533660046111e8565b60016020526000908152604090205481565b6040519081526020016100e3565b6101656101813660046111e8565b61064a565b610165610194366004611512565b61066b565b6101c07f000000000000000000000000000000000000000000000000000000000000000081565b60405173ffffffffffffffffffffffffffffffffffffffff90911681526020016100e3565b60007f000000000000000000000000000000000000000000000000000000000000000073ffffffffffffffffffffffffffffffffffffffff16638b79543c6040518163ffffffff1660e01b8152600401602060405180830381865afa158015610252573d6000803e3d6000fd5b505050506040513d601f19601f8201168201806040525081019061027691906115f5565b73ffffffffffffffffffffffffffffffffffffffff163373ffffffffffffffffffffffffffffffffffffffff16146102ad57600080fd5b73ffffffffffffffffffffffffffffffffffffffff8516156102ce57600080fd5b507f150b7a020000000000000000000000000000000000000000000000000000000095945050505050565b6040517f1f51045300000000000000000000000000000000000000000000000000000000815260048101829052600090819073ffffffffffffffffffffffffffffffffffffffff7f00000000000000000000000000000000000000000000000000000000000000001690631f510453906024016103c060405180830381865afa15801561038a573d6000803e3d6000fd5b505050506040513d601f19601f820116820180604052508101906103ae91906117f8565b50815191935091506001146103ef576040517fc97554fa00000000000000000000000000000000000000000000000000000000815260040160405180910390fd5b60408051608080820183528481015182526000602080840182905260c08088015185870152606080860184905286516102a0810188526102408101858152610260820186905261028082018690528152808401859052888801518189015290810184905293840183905260a08401839052830182905260e08301829052610100830182905261012083018290526101408301829052610160830182905261018083018290526101a083018290526101c083018290526101e083018290526102008087015173ffffffffffffffffffffffffffffffffffffffff908116918501919091526102208781015190850152888352600182528583205486518481529283019096527f0000000000000000000000000000000000000000000000000000000000000000169463badbdf289489949093909290610550565b6040805180820190915260008152606060208201528152602001906001900390816105285790505b5060408051600080825260208201909252906105df565b6105cc6040518060c00160405280600073ffffffffffffffffffffffffffffffffffffffff168152602001600073ffffffffffffffffffffffffffffffffffffffff168152602001600081526020016000815260200160008152602001600081525090565b8152602001906001900390816105675790505b506040518763ffffffff1660e01b815260040161060196959493929190611b96565b6020604051808303816000875af1158015610620573d6000803e3d6000fd5b505050506040513d601f19601f820116820180604052508101906106449190611c8a565b50505050565b6000818154811061065a57600080fd5b600091825260209091200154905081565b604080516001808252818301909252600091829190816020015b60408051808201909152600081526060602082015281526020019060019003908161068557505060408051600180825281830190925291925060009190602082015b6040805160e08101825260008082526020808301829052928201819052606082018190526080820181905260a0820181905260c082015282527fffffffffffffffffffffffffffffffffffffffffffffffffffffffffffffffff9092019101816106c75790505090506040518060e00160405280600015158152602001600015158152602001633b9aca008152602001600081526020018b73ffffffffffffffffffffffffffffffffffffffff16815260200160008152602001600073ffffffffffffffffffffffffffffffffffffffff16815250816001815181106107af576107af611ca3565b602002602001018190525060405180604001604052806002815260200182815250826000815181106107e3576107e3611ca3565b6020026020010181905250507f000000000000000000000000000000000000000000000000000000000000000073ffffffffffffffffffffffffffffffffffffffff16638b79543c6040518163ffffffff1660e01b8152600401602060405180830381865afa15801561085a573d6000803e3d6000fd5b505050506040513d601f19601f8201168201806040525081019061087e91906115f5565b73ffffffffffffffffffffffffffffffffffffffff1663666d87a0308a6040518363ffffffff1660e01b81526004016108b8929190611d40565b6020604051808303816000875af11580156108d7573d6000803e3d6000fd5b505050506040513d601f19601f820116820180604052508101906108fb9190611c8a565b91507f000000000000000000000000000000000000000000000000000000000000000073ffffffffffffffffffffffffffffffffffffffff1663619306306040518163ffffffff1660e01b8152600401602060405180830381865afa158015610968573d6000803e3d6000fd5b505050506040513d601f19601f8201168201806040525081019061098c91906115f5565b73ffffffffffffffffffffffffffffffffffffffff1663a7f2a70b8389896040518463ffffffff1660e01b81526004016109c893929190611d8e565b6020604051808303816000875af11580156109e7573d6000803e3d6000fd5b505050506040513d601f19601f82011682018060405250810190610a0b91906115f5565b508273ffffffffffffffffffffffffffffffffffffffff16637b621d3a838760e001518673ffffffffffffffffffffffffffffffffffffffff166360b3042c6040518163ffffffff1660e01b8152600401602060405180830381865afa158015610a79573d6000803e3d6000fd5b505050506040513d601f19601f82011682018060405250810190610a9d9190611c8a565b8773ffffffffffffffffffffffffffffffffffffffff1663737a79966040518163ffffffff1660e01b8152600401602060405180830381865afa158015610ae8573d6000803e3d6000fd5b505050506040513d601f19601f82011682018060405250810190610b0c9190611c8a565b6040517fffffffff0000000000000000000000000000000000000000000000000000000060e087901b168152600481019490945262ffffff909216602484015263ffffffff908116604484015216606482015261eeee608482015260a4016020604051808303816000875af1158015610b89573d6000803e3d6000fd5b505050506040513d601f19601f82011682018060405250810190610bad91906115f5565b507f000000000000000000000000000000000000000000000000000000000000000073ffffffffffffffffffffffffffffffffffffffff1663111d861b8360405180608001604052808960600151815260200160128a60000151610c119190611f14565b815260408a810151602080840191909152600092820183905281516102a081018352610240810184815261026082018590526102808201859052815260a0808e0151828401526080808f015183860152606083018690528201859052810184905260c0810184905260e081018490526001610100820181905261012082018590526101408201859052610160820185905261018082018590526101a082018590526101c08201526101e0810184905273ffffffffffffffffffffffffffffffffffffffff8b1661020082015261022081018490528251848152918201909252909190879082610d73565b610d606040518060c00160405280600073ffffffffffffffffffffffffffffffffffffffff168152602001600073ffffffffffffffffffffffffffffffffffffffff168152602001600081526020016000815260200160008152602001600081525090565b815260200190600190039081610cfb5790505b508b6040518863ffffffff1660e01b8152600401610d979796959493929190611f23565b6020604051808303816000875af1158015610db6573d6000803e3d6000fd5b505050506040513d601f19601f82011682018060405250810190610dda9190611c8a565b507f000000000000000000000000000000000000000000000000000000000000000073ffffffffffffffffffffffffffffffffffffffff16638ae9c07b8360128860200151610e299190611f14565b8c8a604051602001610e3b9190612041565b6040516020818303038152906040526000806040518763ffffffff1660e01b8152600401610e6e96959493929190612086565b6020604051808303816000875af1158015610e8d573d6000803e3d6000fd5b505050506040513d601f19601f82011682018060405250810190610eb19190611c8a565b507f000000000000000000000000000000000000000000000000000000000000000073ffffffffffffffffffffffffffffffffffffffff16632bdfe0046040518163ffffffff1660e01b8152600401602060405180830381865afa158015610f1d573d6000803e3d6000fd5b505050506040513d601f19601f82011682018060405250810190610f4191906115f5565b73ffffffffffffffffffffffffffffffffffffffff1663ad007d636040518163ffffffff1660e01b8152600401602060405180830381865afa158015610f8b573d6000803e3d6000fd5b505050506040513d601f19601f82011682018060405250810190610faf91906115f5565b73ffffffffffffffffffffffffffffffffffffffff1663529cdd2e60405180606001604052808c73ffffffffffffffffffffffffffffffffffffffff168152602001858152602001600080548060200260200160405190810160405280929190818152602001828054801561104357602002820191906000526020600020905b81548152602001906001019080831161102f575b50505050508152506040518263ffffffff1660e01b815260040161106791906120db565b600060405180830381600087803b15801561108157600080fd5b505af1158015611095573d6000803e3d6000fd5b50505060c08601516110b0915065ffffffffffff1642612157565b60008381526001602052604090205550979650505050505050565b6000602082840312156110dd57600080fd5b81357fffffffff000000000000000000000000000000000000000000000000000000008116811461110d57600080fd5b9392505050565b73ffffffffffffffffffffffffffffffffffffffff8116811461113657600080fd5b50565b803561114481611114565b919050565b60008060008060006080868803121561116157600080fd5b853561116c81611114565b9450602086013561117c81611114565b935060408601359250606086013567ffffffffffffffff808211156111a057600080fd5b818801915088601f8301126111b457600080fd5b8135818111156111c357600080fd5b8960208285010111156111d557600080fd5b9699959850939650602001949392505050565b6000602082840312156111fa57600080fd5b5035919050565b7f4e487b7100000000000000000000000000000000000000000000000000000000600052604160045260246000fd5b604051610100810167ffffffffffffffff8111828210171561125457611254611201565b60405290565b604051610240810167ffffffffffffffff8111828210171561125457611254611201565b604051610120810167ffffffffffffffff8111828210171561125457611254611201565b604051601f82017fffffffffffffffffffffffffffffffffffffffffffffffffffffffffffffffe016810167ffffffffffffffff811182821017156112e9576112e9611201565b604052919050565b600082601f83011261130257600080fd5b813567ffffffffffffffff81111561131c5761131c611201565b61134d60207fffffffffffffffffffffffffffffffffffffffffffffffffffffffffffffffe0601f840116016112a2565b81815284602083860101111561136257600080fd5b816020850160208301376000918101602001919091529392505050565b60006040828403121561139157600080fd5b6040516040810167ffffffffffffffff82821081831117156113b5576113b5611201565b8160405282935084359150808211156113cd57600080fd5b506113da858286016112f1565b825250602083013560208201525092915050565b803562ffffff8116811461114457600080fd5b6000610100828403121561141457600080fd5b61141c611230565b9050813581526020820135602082015260408201356040820152606082013560608201526080820135608082015260a082013560a082015260c082013565ffffffffffff8116811461146d57600080fd5b60c082015261147e60e083016113ee565b60e082015292915050565b600082601f83011261149a57600080fd5b8135602067ffffffffffffffff8211156114b6576114b6611201565b8160051b6114c58282016112a2565b92835284810182019282810190878511156114df57600080fd5b83870192505b848310156115075782356114f881611114565b825291830191908301906114e5565b979650505050505050565b60008060008060008060006101c0888a03121561152e57600080fd5b61153788611139565b9650602088013567ffffffffffffffff8082111561155457600080fd5b6115608b838c0161137f565b975060408a013591508082111561157657600080fd5b6115828b838c016112f1565b965060608a013591508082111561159857600080fd5b6115a48b838c016112f1565b95506115b38b60808c01611401565b94506101808a01359150808211156115ca57600080fd5b506115d78a828b01611489565b9250506115e76101a08901611139565b905092959891949750929550565b60006020828403121561160757600080fd5b815161110d81611114565b805161114481611114565b8051801515811461114457600080fd5b60006060828403121561163f57600080fd5b6040516060810181811067ffffffffffffffff8211171561166257611662611201565b6040529050806116718361161d565b815261167f6020840161161d565b60208201526116906040840161161d565b60408201525092915050565b600061028082840312156116af57600080fd5b6116b761125a565b90506116c3838361162d565b8152606082015160208201526080820151604082015260a082015160608201526116ef60c0830161161d565b608082015261170060e0830161161d565b60a082015261010061171381840161161d565b60c083015261012061172681850161161d565b60e084015261014061173981860161161d565b83850152610160925061174d83860161161d565b82850152610180915061176182860161161d565b908401526101a061177385820161161d565b838501526101c0925061178783860161161d565b828501526101e0915061179b82860161161d565b908401526102006117ad85820161161d565b8385015261022092506117c183860161161d565b828501526117d26102408601611612565b818501525050610260830151818301525092915050565b80516003811061114457600080fd5b60008060008385036103c081121561180f57600080fd5b6101208082121561181f57600080fd5b61182761127e565b9150855182526020860151602083015260408601516040830152606086015160608301526080860151608083015260a086015160a083015260c086015160c083015261187560e08701611612565b60e08301526101008087015181840152508194506118958782880161169c565b935050506118a66103a085016117e9565b90509250925092565b6118d48282518051151582526020808201511515908301526040908101511515910152565b6020810151606083015260408101516080830152606081015160a0830152608081015161190560c084018215159052565b5060a081015180151560e08401525060c08101516101006119298185018315159052565b60e083015191506101206119408186018415159052565b908301519150610140906119578583018415159052565b830151915061016061196c8582018415159052565b908301519150610180906119838583018415159052565b83015191506101a06119988582018415159052565b9083015191506101c0906119af8583018415159052565b83015191506101e06119c48582018415159052565b908301519150610200906119db8583018415159052565b83015191506102206119f08582018415159052565b9083015173ffffffffffffffffffffffffffffffffffffffff16610240850152909101516102609092019190915250565b600081518084526020808501808196508360051b810191508286016000805b86811015611b00578385038a52825180518652860151604087870181905281518188018190529188019160609081890190865b81811015611ae95785518051151584528c81015115158d8501528581015186850152848101518585015260808082015173ffffffffffffffffffffffffffffffffffffffff9081169186019190915260a0808301519086015260c0918201511690840152948b019460e090920191600101611a73565b50509c89019c975050509286019250600101611a40565b509298975050505050505050565b600081518084526020808501945080840160005b83811015611b8b578151805173ffffffffffffffffffffffffffffffffffffffff908116895284820151168489015260408082015190890152606080820151908901526080808201519089015260a0908101519088015260c09096019590820190600101611b22565b509495945050505050565b60006103a0888352611be2602084018980518252602081015160208301526040810151604083015273ffffffffffffffffffffffffffffffffffffffff60608201511660608301525050565b611bef60a08401886118af565b8561032084015280610340840152611c0981840186611a21565b9050828103610360840152611c1e8185611b0e565b838103610380909401939093525050602c81527f5363686564756c656420626f6f737420657870697279206f662052657461696c60208201527f697374207472656173757279000000000000000000000000000000000000000060408201526060019695505050505050565b600060208284031215611c9c57600080fd5b5051919050565b7f4e487b7100000000000000000000000000000000000000000000000000000000600052603260045260246000fd5b60005b83811015611ced578181015183820152602001611cd5565b50506000910152565b60008151808452611d0e816020860160208601611cd2565b601f017fffffffffffffffffffffffffffffffffffffffffffffffffffffffffffffffe0169290920160200192915050565b73ffffffffffffffffffffffffffffffffffffffff831681526040602082015260008251604080840152611d776080840182611cf6565b905060208401516060840152809150509392505050565b838152606060208201526000611da76060830185611cf6565b8281036040840152611db98185611cf6565b9695505050505050565b7f4e487b7100000000000000000000000000000000000000000000000000000000600052601160045260246000fd5b600181815b80851115611e4b57817fffffffffffffffffffffffffffffffffffffffffffffffffffffffffffffffff04821115611e3157611e31611dc3565b80851615611e3e57918102915b93841c9390800290611df7565b509250929050565b600082611e6257506001611f0e565b81611e6f57506000611f0e565b8160018114611e855760028114611e8f57611eab565b6001915050611f0e565b60ff841115611ea057611ea0611dc3565b50506001821b611f0e565b5060208310610133831016604e8410600b8410161715611ece575081810a611f0e565b611ed88383611df2565b807fffffffffffffffffffffffffffffffffffffffffffffffffffffffffffffffff04821115611f0a57611f0a611dc3565b0290505b92915050565b600061110d60ff841683611e53565b60006103c08983526020611f708185018b80518252602081015160208301526040810151604083015273ffffffffffffffffffffffffffffffffffffffff60608201511660608301525050565b611f7d60a085018a6118af565b8761032085015281610340850152611f9782850188611a21565b9150838203610360850152611fac8287611b0e565b848103610380860152855180825282870193509082019060005b81811015611ff857845173ffffffffffffffffffffffffffffffffffffffff1683529383019391830191600101611fc6565b50508481036103a0860152601b81527f4465706c6f7965642052657461696c69737420747265617375727900000000006020820152604081019c9b505050505050505050505050565b7f5072656d696e746564202400000000000000000000000000000000000000000081526000825161207981600b850160208701611cd2565b91909101600b0192915050565b86815285602082015273ffffffffffffffffffffffffffffffffffffffff8516604082015260c0606082015260006120c160c0830186611cf6565b93151560808301525090151560a090910152949350505050565b600060208083526080830173ffffffffffffffffffffffffffffffffffffffff85511682850152818501516040850152604085015160608086015281815180845260a0870191508483019350600092505b8083101561214c578351825292840192600192909201919084019061212c565b509695505050505050565b80820180821115611f0e57611f0e611dc356fea2646970667358221220874f9f3db3f4b70b15a488d95ca82ea99b0ace101844259ccf2bd16eedd6349864736f6c63430008150033",
    "linkReferences": {}
  },
  "methodIdentifiers": {
    "controller()": "f77c4791",
    "deployBasicProjectFor(address,(string,uint256),string,string,(uint256,uint256,uint256,uint256,uint256,uint256,uint48,uint24),address[],address)": "d87b09e3",
    "onERC721Received(address,address,uint256,bytes)": "150b7a02",
    "permissionIndexes(uint256)": "9483e771",
    "reconfigurationStartTimestampOf(uint256)": "560f7b03",
    "scheduleReconfigurationOf(uint256)": "3ce6d3e2",
    "supportsInterface(bytes4)": "01ffc9a7"
  },
  "id": 102
}