{
  "abi": [
    {
      "inputs": [
        {
          "internalType": "contract IJBController3_1",
          "name": "_controller",
          "type": "address"
        }
      ],
      "stateMutability": "nonpayable",
      "type": "constructor"
    },
    {
      "inputs": [],
      "name": "BAD_DEV_TAX_SEQUENCE",
      "type": "error"
    },
    {
      "inputs": [],
      "name": "RECONFIGURATION_ALREADY_SCHEDULED",
      "type": "error"
    },
    {
      "inputs": [],
      "name": "RECONFIGURATION_NOT_POSSIBLE",
      "type": "error"
    },
    {
      "inputs": [],
      "name": "controller",
      "outputs": [
        {
          "internalType": "contract IJBController3_1",
          "name": "",
          "type": "address"
        }
      ],
      "stateMutability": "view",
      "type": "function"
    },
    {
      "inputs": [
        {
          "internalType": "uint256",
          "name": "networkId",
          "type": "uint256"
        }
      ],
      "name": "currentDevTaxPeriodNumberOf",
      "outputs": [
        {
          "internalType": "uint256",
          "name": "",
          "type": "uint256"
        }
      ],
      "stateMutability": "view",
      "type": "function"
    },
    {
      "inputs": [
        {
          "internalType": "address",
          "name": "_operator",
          "type": "address"
        },
        {
          "components": [
            {
              "internalType": "string",
              "name": "content",
              "type": "string"
            },
            {
              "internalType": "uint256",
              "name": "domain",
              "type": "uint256"
            }
          ],
          "internalType": "struct JBProjectMetadata",
          "name": "_networkMetadata",
          "type": "tuple"
        },
        {
          "internalType": "string",
          "name": "_name",
          "type": "string"
        },
        {
          "internalType": "string",
          "name": "_symbol",
          "type": "string"
        },
        {
          "components": [
            {
              "internalType": "uint256",
              "name": "initialIssuanceRate",
              "type": "uint256"
            },
            {
              "internalType": "uint256",
              "name": "premintTokenAmount",
              "type": "uint256"
            },
            {
              "internalType": "uint256",
              "name": "generationTax",
              "type": "uint256"
            },
            {
              "internalType": "uint256",
              "name": "generationDuration",
              "type": "uint256"
            },
            {
              "internalType": "uint256",
              "name": "exitTaxRate",
              "type": "uint256"
            },
            {
              "components": [
                {
                  "internalType": "uint128",
                  "name": "rate",
                  "type": "uint128"
                },
                {
                  "internalType": "uint128",
                  "name": "startsAtOrAfter",
                  "type": "uint128"
                }
              ],
              "internalType": "struct DevTaxPeriod[]",
              "name": "devTaxPeriods",
              "type": "tuple[]"
            },
            {
              "internalType": "uint24",
              "name": "poolFee",
              "type": "uint24"
            }
          ],
          "internalType": "struct BasicRetailistJBParams",
          "name": "_data",
          "type": "tuple"
        },
        {
          "internalType": "contract IJBPaymentTerminal[]",
          "name": "_terminals",
          "type": "address[]"
        },
        {
          "internalType": "contract IJBGenericBuybackDelegate",
          "name": "_buybackDelegate",
          "type": "address"
        }
      ],
      "name": "deployBasicNetworkFor",
      "outputs": [
        {
          "internalType": "uint256",
          "name": "networkId",
          "type": "uint256"
        }
      ],
      "stateMutability": "nonpayable",
      "type": "function"
    },
    {
      "inputs": [
        {
          "internalType": "uint256",
          "name": "networkId",
          "type": "uint256"
        },
        {
          "internalType": "uint256",
          "name": "",
          "type": "uint256"
        }
      ],
      "name": "devTaxPeriodsOf",
      "outputs": [
        {
          "internalType": "uint128",
          "name": "rate",
          "type": "uint128"
        },
        {
          "internalType": "uint128",
          "name": "startsAtOrAfter",
          "type": "uint128"
        }
      ],
      "stateMutability": "view",
      "type": "function"
    },
    {
      "inputs": [
        {
          "internalType": "address",
          "name": "_operator",
          "type": "address"
        },
        {
          "internalType": "address",
          "name": "_from",
          "type": "address"
        },
        {
          "internalType": "uint256",
          "name": "_tokenId",
          "type": "uint256"
        },
        {
          "internalType": "bytes",
          "name": "_data",
          "type": "bytes"
        }
      ],
      "name": "onERC721Received",
      "outputs": [
        {
          "internalType": "bytes4",
          "name": "",
          "type": "bytes4"
        }
      ],
      "stateMutability": "view",
      "type": "function"
    },
    {
      "inputs": [
        {
          "internalType": "uint256",
          "name": "",
          "type": "uint256"
        }
      ],
      "name": "operatorPermissionIndexes",
      "outputs": [
        {
          "internalType": "uint256",
          "name": "",
          "type": "uint256"
        }
      ],
      "stateMutability": "view",
      "type": "function"
    },
    {
      "inputs": [
        {
          "internalType": "uint256",
          "name": "_networkId",
          "type": "uint256"
        }
      ],
      "name": "scheduleNextDevTaxPeriodOf",
      "outputs": [],
      "stateMutability": "nonpayable",
      "type": "function"
    },
    {
      "inputs": [
        {
          "internalType": "bytes4",
          "name": "_interfaceId",
          "type": "bytes4"
        }
      ],
      "name": "supportsInterface",
      "outputs": [
        {
          "internalType": "bool",
          "name": "",
          "type": "bool"
        }
      ],
      "stateMutability": "view",
      "type": "function"
    }
  ],
  "bytecode": {
    "object": "0x60a06040523480156200001157600080fd5b506040516200272b3803806200272b833981016040819052620000349162000088565b6001600160a01b0316608052600080546001818101835582805260127f290decd9548b62a8d60345a988386fc84ba6bc95484008f6362f93160ef3e5639283015582549081019092556018910155620000ba565b6000602082840312156200009b57600080fd5b81516001600160a01b0381168114620000b357600080fd5b9392505050565b60805161261d6200010e600039600081816101e501528181610275015281816104d3015281816107af015281816108bd01528181610b6e01528181610e2901528181610f000152611108015261261d6000f3fe608060405234801561001057600080fd5b50600436106100885760003560e01c80634d7577201161005b5780634d757720146101715780639f665eee14610184578063a26711ae146101a4578063f77c4791146101e057600080fd5b806301ffc9a71461008d5780630310850e146100f75780630a801f471461010c578063150b7a021461012d575b600080fd5b6100e261009b3660046113ee565b7fffffffff00000000000000000000000000000000000000000000000000000000167f150b7a02000000000000000000000000000000000000000000000000000000001490565b60405190151581526020015b60405180910390f35b61010a610105366004611437565b61022c565b005b61011f61011a36600461185a565b610629565b6040519081526020016100ee565b61014061013b36600461194d565b611104565b6040517fffffffff0000000000000000000000000000000000000000000000000000000090911681526020016100ee565b61011f61017f366004611437565b611218565b61011f610192366004611437565b60026020526000908152604090205481565b6101b76101b23660046119ec565b611239565b604080516fffffffffffffffffffffffffffffffff9384168152929091166020830152016100ee565b6102077f000000000000000000000000000000000000000000000000000000000000000081565b60405173ffffffffffffffffffffffffffffffffffffffff90911681526020016100ee565b6040517f1f51045300000000000000000000000000000000000000000000000000000000815260048101829052600090819073ffffffffffffffffffffffffffffffffffffffff7f00000000000000000000000000000000000000000000000000000000000000001690631f510453906024016103c060405180830381865afa1580156102bd573d6000803e3d6000fd5b505050506040513d601f19601f820116820180604052508101906102e19190611bf4565b506000858152600260205260408120805493955091935091829061030490611cda565b918290555060008581526001602052604090205490915080158061032757508082145b806103355750428460600151115b1561036c576040517fc97554fa00000000000000000000000000000000000000000000000000000000815260040160405180910390fd5b600085815260016020526040812080548490811061038c5761038c611d12565b6000918252602080832060408051808201825293909101546fffffffffffffffffffffffffffffffff808216855270010000000000000000000000000000000090910481168484019081528251608080820185528c810151825281860188905260c0808e01518387015260608084018a905286516102a08101885261024081018b815261026082018c905261028082018c905281528951909616868901528d87015186880152850189905290840188905260a08401889052830187905260e08301879052610100830187905261012083018790526101408301879052610160830187905261018083018790526101a083018790526101c083018790526101e08301879052610200808c015173ffffffffffffffffffffffffffffffffffffffff908116918501919091526102208c81015190850152915184518881529586019094529496507f0000000000000000000000000000000000000000000000000000000000000000169463badbdf28948c9490939161052c565b6040805180820190915260008152606060208201528152602001906001900390816105045790505b5060408051600080825260208201909252906105bb565b6105a86040518060c00160405280600073ffffffffffffffffffffffffffffffffffffffff168152602001600073ffffffffffffffffffffffffffffffffffffffff168152602001600081526020016000815260200160008152602001600081525090565b8152602001906001900390816105435790505b506040518763ffffffff1660e01b81526004016105dd96959493929190612028565b6020604051808303816000875af11580156105fc573d6000803e3d6000fd5b505050506040513d601f19601f82011682018060405250810190610620919061212e565b50505050505050565b604080516001808252818301909252600091829190816020015b60408051808201909152600081526060602082015281526020019060019003908161064357505060408051600180825281830190925291925060009190602082015b6040805160e08101825260008082526020808301829052928201819052606082018190526080820181905260a0820181905260c082015282527fffffffffffffffffffffffffffffffffffffffffffffffffffffffffffffffff9092019101816106855790505090506040518060e00160405280600015158152602001600015158152602001633b9aca008152602001600081526020018b73ffffffffffffffffffffffffffffffffffffffff16815260200160008152602001600073ffffffffffffffffffffffffffffffffffffffff168152508160018151811061076d5761076d611d12565b602002602001018190525060405180604001604052806002815260200182815250826000815181106107a1576107a1611d12565b6020026020010181905250507f000000000000000000000000000000000000000000000000000000000000000073ffffffffffffffffffffffffffffffffffffffff16638b79543c6040518163ffffffff1660e01b8152600401602060405180830381865afa158015610818573d6000803e3d6000fd5b505050506040513d601f19601f8201168201806040525081019061083c9190612147565b73ffffffffffffffffffffffffffffffffffffffff1663666d87a0308a6040518363ffffffff1660e01b81526004016108769291906121d2565b6020604051808303816000875af1158015610895573d6000803e3d6000fd5b505050506040513d601f19601f820116820180604052508101906108b9919061212e565b91507f000000000000000000000000000000000000000000000000000000000000000073ffffffffffffffffffffffffffffffffffffffff1663619306306040518163ffffffff1660e01b8152600401602060405180830381865afa158015610926573d6000803e3d6000fd5b505050506040513d601f19601f8201168201806040525081019061094a9190612147565b73ffffffffffffffffffffffffffffffffffffffff1663a7f2a70b8389896040518463ffffffff1660e01b815260040161098693929190612220565b6020604051808303816000875af11580156109a5573d6000803e3d6000fd5b505050506040513d601f19601f820116820180604052508101906109c99190612147565b508273ffffffffffffffffffffffffffffffffffffffff16637b621d3a838760c001518673ffffffffffffffffffffffffffffffffffffffff166360b3042c6040518163ffffffff1660e01b8152600401602060405180830381865afa158015610a37573d6000803e3d6000fd5b505050506040513d601f19601f82011682018060405250810190610a5b919061212e565b8773ffffffffffffffffffffffffffffffffffffffff1663737a79966040518163ffffffff1660e01b8152600401602060405180830381865afa158015610aa6573d6000803e3d6000fd5b505050506040513d601f19601f82011682018060405250810190610aca919061212e565b6040517fffffffff0000000000000000000000000000000000000000000000000000000060e087901b168152600481019490945262ffffff909216602484015263ffffffff908116604484015216606482015261eeee608482015260a4016020604051808303816000875af1158015610b47573d6000803e3d6000fd5b505050506040513d601f19601f82011682018060405250810190610b6b9190612147565b507f000000000000000000000000000000000000000000000000000000000000000073ffffffffffffffffffffffffffffffffffffffff1663111d861b8360405180608001604052808960600151815260200160128a60000151610bcf9190612377565b81526040808b0151602080840191909152600092820183905281516102a081019092526102408201838152610260830184905261028083019390935291815260a08b015151909182019015610c46578a60a00151600081518110610c3557610c35611d12565b602002602001015160000151610c49565b60005b6fffffffffffffffffffffffffffffffff1681526020018a60800151612710610c729190612386565b815260006020820181905260408201819052606082018190526080820181905260a0808301829052600160c0840181905260e0840183905261010084018390526101208401839052610140840183905261016084018390526101808401526101a0830182905273ffffffffffffffffffffffffffffffffffffffff8b166101c08401526101e0909201528a01515115610d2d578960a00151600081518110610d1c57610d1c611d12565b602002602001015160200151610d30565b60005b604080516000808252602082019092528891610dbf565b610dac6040518060c00160405280600073ffffffffffffffffffffffffffffffffffffffff168152602001600073ffffffffffffffffffffffffffffffffffffffff168152602001600081526020016000815260200160008152602001600081525090565b815260200190600190039081610d475790505b508b6040518863ffffffff1660e01b8152600401610de39796959493929190612399565b6020604051808303816000875af1158015610e02573d6000803e3d6000fd5b505050506040513d601f19601f82011682018060405250810190610e26919061212e565b507f000000000000000000000000000000000000000000000000000000000000000073ffffffffffffffffffffffffffffffffffffffff16638ae9c07b8360128860200151610e759190612377565b8c8a604051602001610e8791906124c9565b6040516020818303038152906040526000806040518763ffffffff1660e01b8152600401610eba9695949392919061250e565b6020604051808303816000875af1158015610ed9573d6000803e3d6000fd5b505050506040513d601f19601f82011682018060405250810190610efd919061212e565b507f000000000000000000000000000000000000000000000000000000000000000073ffffffffffffffffffffffffffffffffffffffff16632bdfe0046040518163ffffffff1660e01b8152600401602060405180830381865afa158015610f69573d6000803e3d6000fd5b505050506040513d601f19601f82011682018060405250810190610f8d9190612147565b73ffffffffffffffffffffffffffffffffffffffff1663ad007d636040518163ffffffff1660e01b8152600401602060405180830381865afa158015610fd7573d6000803e3d6000fd5b505050506040513d601f19601f82011682018060405250810190610ffb9190612147565b73ffffffffffffffffffffffffffffffffffffffff1663529cdd2e60405180606001604052808c73ffffffffffffffffffffffffffffffffffffffff168152602001858152602001600080548060200260200160405190810160405280929190818152602001828054801561108f57602002820191906000526020600020905b81548152602001906001019080831161107b575b50505050508152506040518263ffffffff1660e01b81526004016110b39190612563565b600060405180830381600087803b1580156110cd57600080fd5b505af11580156110e1573d6000803e3d6000fd5b505050506110f8828660a001518760600151611292565b50979650505050505050565b60007f000000000000000000000000000000000000000000000000000000000000000073ffffffffffffffffffffffffffffffffffffffff16638b79543c6040518163ffffffff1660e01b8152600401602060405180830381865afa158015611171573d6000803e3d6000fd5b505050506040513d601f19601f820116820180604052508101906111959190612147565b73ffffffffffffffffffffffffffffffffffffffff163373ffffffffffffffffffffffffffffffffffffffff16146111cc57600080fd5b73ffffffffffffffffffffffffffffffffffffffff8516156111ed57600080fd5b507f150b7a020000000000000000000000000000000000000000000000000000000095945050505050565b6000818154811061122857600080fd5b600091825260209091200154905081565b6001602052816000526040600020818154811061125557600080fd5b6000918252602090912001546fffffffffffffffffffffffffffffffff808216935070010000000000000000000000000000000090910416905082565b815180156113e85760005b818110156113e6578015801590611327575082846112bc600184612386565b815181106112cc576112cc611d12565b6020026020010151602001516fffffffffffffffffffffffffffffffff166112f491906125d4565b84828151811061130657611306611d12565b6020026020010151602001516fffffffffffffffffffffffffffffffff1611155b1561135e576040517fc5c2978500000000000000000000000000000000000000000000000000000000815260040160405180910390fd5b83818151811061137057611370611d12565b602002602001015160016000878152602001908152602001600020828154811061139c5761139c611d12565b6000918252602091829020835193909201516fffffffffffffffffffffffffffffffff9081167001000000000000000000000000000000000293169290921791015560010161129d565b505b50505050565b60006020828403121561140057600080fd5b81357fffffffff000000000000000000000000000000000000000000000000000000008116811461143057600080fd5b9392505050565b60006020828403121561144957600080fd5b5035919050565b73ffffffffffffffffffffffffffffffffffffffff8116811461147257600080fd5b50565b803561148081611450565b919050565b7f4e487b7100000000000000000000000000000000000000000000000000000000600052604160045260246000fd5b6040805190810167ffffffffffffffff811182821017156114d7576114d7611485565b60405290565b60405160e0810167ffffffffffffffff811182821017156114d7576114d7611485565b604051610240810167ffffffffffffffff811182821017156114d7576114d7611485565b604051610120810167ffffffffffffffff811182821017156114d7576114d7611485565b604051601f82017fffffffffffffffffffffffffffffffffffffffffffffffffffffffffffffffe016810167ffffffffffffffff8111828210171561158f5761158f611485565b604052919050565b600082601f8301126115a857600080fd5b813567ffffffffffffffff8111156115c2576115c2611485565b6115f360207fffffffffffffffffffffffffffffffffffffffffffffffffffffffffffffffe0601f84011601611548565b81815284602083860101111561160857600080fd5b816020850160208301376000918101602001919091529392505050565b60006040828403121561163757600080fd5b61163f6114b4565b9050813567ffffffffffffffff81111561165857600080fd5b61166484828501611597565b8252506020820135602082015292915050565b600067ffffffffffffffff82111561169157611691611485565b5060051b60200190565b80356fffffffffffffffffffffffffffffffff8116811461148057600080fd5b600082601f8301126116cc57600080fd5b813560206116e16116dc83611677565b611548565b82815260069290921b8401810191818101908684111561170057600080fd5b8286015b8481101561174d576040818903121561171d5760008081fd5b6117256114b4565b61172e8261169b565b815261173b85830161169b565b81860152835291830191604001611704565b509695505050505050565b803562ffffff8116811461148057600080fd5b600060e0828403121561177d57600080fd5b6117856114dd565b9050813581526020820135602082015260408201356040820152606082013560608201526080820135608082015260a082013567ffffffffffffffff8111156117cd57600080fd5b6117d9848285016116bb565b60a0830152506117eb60c08301611758565b60c082015292915050565b600082601f83011261180757600080fd5b813560206118176116dc83611677565b82815260059290921b8401810191818101908684111561183657600080fd5b8286015b8481101561174d57803561184d81611450565b835291830191830161183a565b600080600080600080600060e0888a03121561187557600080fd5b61187e88611475565b9650602088013567ffffffffffffffff8082111561189b57600080fd5b6118a78b838c01611625565b975060408a01359150808211156118bd57600080fd5b6118c98b838c01611597565b965060608a01359150808211156118df57600080fd5b6118eb8b838c01611597565b955060808a013591508082111561190157600080fd5b61190d8b838c0161176b565b945060a08a013591508082111561192357600080fd5b506119308a828b016117f6565b92505061193f60c08901611475565b905092959891949750929550565b60008060008060006080868803121561196557600080fd5b853561197081611450565b9450602086013561198081611450565b935060408601359250606086013567ffffffffffffffff808211156119a457600080fd5b818801915088601f8301126119b857600080fd5b8135818111156119c757600080fd5b8960208285010111156119d957600080fd5b9699959850939650602001949392505050565b600080604083850312156119ff57600080fd5b50508035926020909101359150565b805161148081611450565b8051801515811461148057600080fd5b600060608284031215611a3b57600080fd5b6040516060810181811067ffffffffffffffff82111715611a5e57611a5e611485565b604052905080611a6d83611a19565b8152611a7b60208401611a19565b6020820152611a8c60408401611a19565b60408201525092915050565b60006102808284031215611aab57600080fd5b611ab3611500565b9050611abf8383611a29565b8152606082015160208201526080820151604082015260a08201516060820152611aeb60c08301611a19565b6080820152611afc60e08301611a19565b60a0820152610100611b0f818401611a19565b60c0830152610120611b22818501611a19565b60e0840152610140611b35818601611a19565b838501526101609250611b49838601611a19565b828501526101809150611b5d828601611a19565b908401526101a0611b6f858201611a19565b838501526101c09250611b83838601611a19565b828501526101e09150611b97828601611a19565b90840152610200611ba9858201611a19565b838501526102209250611bbd838601611a19565b82850152611bce6102408601611a0e565b818501525050610260830151818301525092915050565b80516003811061148057600080fd5b60008060008385036103c0811215611c0b57600080fd5b61012080821215611c1b57600080fd5b611c23611524565b9150855182526020860151602083015260408601516040830152606086015160608301526080860151608083015260a086015160a083015260c086015160c0830152611c7160e08701611a0e565b60e0830152610100808701518184015250819450611c9187828801611a98565b93505050611ca26103a08501611be5565b90509250925092565b7f4e487b7100000000000000000000000000000000000000000000000000000000600052601160045260246000fd5b60007fffffffffffffffffffffffffffffffffffffffffffffffffffffffffffffffff8203611d0b57611d0b611cab565b5060010190565b7f4e487b7100000000000000000000000000000000000000000000000000000000600052603260045260246000fd5b611d668282518051151582526020808201511515908301526040908101511515910152565b6020810151606083015260408101516080830152606081015160a08301526080810151611d9760c084018215159052565b5060a081015180151560e08401525060c0810151610100611dbb8185018315159052565b60e08301519150610120611dd28186018415159052565b90830151915061014090611de98583018415159052565b8301519150610160611dfe8582018415159052565b90830151915061018090611e158583018415159052565b83015191506101a0611e2a8582018415159052565b9083015191506101c090611e418583018415159052565b83015191506101e0611e568582018415159052565b90830151915061020090611e6d8583018415159052565b8301519150610220611e828582018415159052565b9083015173ffffffffffffffffffffffffffffffffffffffff16610240850152909101516102609092019190915250565b600081518084526020808501808196508360051b810191508286016000805b86811015611f92578385038a52825180518652860151604087870181905281518188018190529188019160609081890190865b81811015611f7b5785518051151584528c81015115158d8501528581015186850152848101518585015260808082015173ffffffffffffffffffffffffffffffffffffffff9081169186019190915260a0808301519086015260c0918201511690840152948b019460e090920191600101611f05565b50509c89019c975050509286019250600101611ed2565b509298975050505050505050565b600081518084526020808501945080840160005b8381101561201d578151805173ffffffffffffffffffffffffffffffffffffffff908116895284820151168489015260408082015190890152606080820151908901526080808201519089015260a0908101519088015260c09096019590820190600101611fb4565b509495945050505050565b60006103a0888352612074602084018980518252602081015160208301526040810151604083015273ffffffffffffffffffffffffffffffffffffffff60608201511660608301525050565b61208160a0840188611d41565b6fffffffffffffffffffffffffffffffff8616610320840152806103408401526120ad81840186611eb3565b90508281036103608401526120c28185611fa0565b838103610380909401939093525050603281527f5363686564756c6564206e657874206465762074617820706572696f64206f6660208201527f2052657461696c697374206e6574776f726b000000000000000000000000000060408201526060019695505050505050565b60006020828403121561214057600080fd5b5051919050565b60006020828403121561215957600080fd5b815161143081611450565b60005b8381101561217f578181015183820152602001612167565b50506000910152565b600081518084526121a0816020860160208601612164565b601f017fffffffffffffffffffffffffffffffffffffffffffffffffffffffffffffffe0169290920160200192915050565b73ffffffffffffffffffffffffffffffffffffffff8316815260406020820152600082516040808401526122096080840182612188565b905060208401516060840152809150509392505050565b8381526060602082015260006122396060830185612188565b828103604084015261224b8185612188565b9695505050505050565b600181815b808511156122ae57817fffffffffffffffffffffffffffffffffffffffffffffffffffffffffffffffff0482111561229457612294611cab565b808516156122a157918102915b93841c939080029061225a565b509250929050565b6000826122c557506001612371565b816122d257506000612371565b81600181146122e857600281146122f25761230e565b6001915050612371565b60ff84111561230357612303611cab565b50506001821b612371565b5060208310610133831016604e8410600b8410161715612331575081810a612371565b61233b8383612255565b807fffffffffffffffffffffffffffffffffffffffffffffffffffffffffffffffff0482111561236d5761236d611cab565b0290505b92915050565b600061143060ff8416836122b6565b8181038181111561237157612371611cab565b60006103c089835260206123e68185018b80518252602081015160208301526040810151604083015273ffffffffffffffffffffffffffffffffffffffff60608201511660608301525050565b6123f360a085018a611d41565b6fffffffffffffffffffffffffffffffff88166103208501528161034085015261241f82850188611eb3565b91508382036103608501526124348287611fa0565b848103610380860152855180825282870193509082019060005b8181101561248057845173ffffffffffffffffffffffffffffffffffffffff168352938301939183019160010161244e565b50508481036103a0860152601a81527f4465706c6f7965642052657461696c697374206e6574776f726b0000000000006020820152604081019c9b505050505050505050505050565b7f5072656d696e746564202400000000000000000000000000000000000000000081526000825161250181600b850160208701612164565b91909101600b0192915050565b86815285602082015273ffffffffffffffffffffffffffffffffffffffff8516604082015260c06060820152600061254960c0830186612188565b93151560808301525090151560a090910152949350505050565b600060208083526080830173ffffffffffffffffffffffffffffffffffffffff85511682850152818501516040850152604085015160608086015281815180845260a0870191508483019350600092505b8083101561174d57835182529284019260019290920191908401906125b4565b8082018082111561237157612371611cab56fea2646970667358221220be5d602596177a2c22606cfe0484dd58fc41185bdf3eb73c75177bba13e479ad64736f6c63430008150033",
    "linkReferences": {}
  },
  "methodIdentifiers": {
    "controller()": "f77c4791",
    "currentDevTaxPeriodNumberOf(uint256)": "9f665eee",
    "deployBasicNetworkFor(address,(string,uint256),string,string,(uint256,uint256,uint256,uint256,uint256,(uint128,uint128)[],uint24),address[],address)": "0a801f47",
    "devTaxPeriodsOf(uint256,uint256)": "a26711ae",
    "onERC721Received(address,address,uint256,bytes)": "150b7a02",
    "operatorPermissionIndexes(uint256)": "4d757720",
    "scheduleNextDevTaxPeriodOf(uint256)": "0310850e",
    "supportsInterface(bytes4)": "01ffc9a7"
  },
  "id": 102
}