{
  "abi": [
    {
      "inputs": [
        {
          "internalType": "contract IJBController3_1",
          "name": "_controller",
          "type": "address"
        },
        {
          "internalType": "contract IJBPayoutRedemptionPaymentTerminal3_1_1",
          "name": "_terminal",
          "type": "address"
        },
        {
          "internalType": "contract IJBGenericBuybackDelegate",
          "name": "_buybackDelegate",
          "type": "address"
        }
      ],
      "stateMutability": "nonpayable",
      "type": "constructor"
    },
    {
      "inputs": [],
      "name": "RECONFIGURATION_ALREADY_SCHEDULED",
      "type": "error"
    },
    {
      "inputs": [],
      "name": "buybackDelegate",
      "outputs": [
        {
          "internalType": "contract IJBGenericBuybackDelegate",
          "name": "",
          "type": "address"
        }
      ],
      "stateMutability": "view",
      "type": "function"
    },
    {
      "inputs": [],
      "name": "controller",
      "outputs": [
        {
          "internalType": "contract IJBController3_1",
          "name": "",
          "type": "address"
        }
      ],
      "stateMutability": "view",
      "type": "function"
    },
    {
      "inputs": [
        {
          "internalType": "address",
          "name": "_operator",
          "type": "address"
        },
        {
          "components": [
            {
              "internalType": "string",
              "name": "content",
              "type": "string"
            },
            {
              "internalType": "uint256",
              "name": "domain",
              "type": "uint256"
            }
          ],
          "internalType": "struct JBProjectMetadata",
          "name": "_projectMetadata",
          "type": "tuple"
        },
        {
          "internalType": "string",
          "name": "_name",
          "type": "string"
        },
        {
          "internalType": "string",
          "name": "_symbol",
          "type": "string"
        },
        {
          "components": [
            {
              "internalType": "uint256",
              "name": "initialIssuanceRate",
              "type": "uint256"
            },
            {
              "internalType": "uint256",
              "name": "premintTokenAmount",
              "type": "uint256"
            },
            {
              "internalType": "uint256",
              "name": "discountRate",
              "type": "uint256"
            },
            {
              "internalType": "uint256",
              "name": "cycleDurations",
              "type": "uint256"
            },
            {
              "internalType": "uint256",
              "name": "redemptionRate",
              "type": "uint256"
            },
            {
              "internalType": "uint256",
              "name": "reservedRate",
              "type": "uint256"
            },
            {
              "internalType": "uint48",
              "name": "reservedRateDuration",
              "type": "uint48"
            }
          ],
          "internalType": "struct BasicRetailistJBParams",
          "name": "_data",
          "type": "tuple"
        }
      ],
      "name": "deployBasicProjectFor",
      "outputs": [
        {
          "internalType": "uint256",
          "name": "projectId",
          "type": "uint256"
        }
      ],
      "stateMutability": "nonpayable",
      "type": "function"
    },
    {
      "inputs": [
        {
          "internalType": "address",
          "name": "_operator",
          "type": "address"
        },
        {
          "internalType": "address",
          "name": "_from",
          "type": "address"
        },
        {
          "internalType": "uint256",
          "name": "_tokenId",
          "type": "uint256"
        },
        {
          "internalType": "bytes",
          "name": "_data",
          "type": "bytes"
        }
      ],
      "name": "onERC721Received",
      "outputs": [
        {
          "internalType": "bytes4",
          "name": "",
          "type": "bytes4"
        }
      ],
      "stateMutability": "view",
      "type": "function"
    },
    {
      "inputs": [
        {
          "internalType": "uint256",
          "name": "",
          "type": "uint256"
        }
      ],
      "name": "permissionIndexes",
      "outputs": [
        {
          "internalType": "uint256",
          "name": "",
          "type": "uint256"
        }
      ],
      "stateMutability": "view",
      "type": "function"
    },
    {
      "inputs": [
        {
          "internalType": "uint256",
          "name": "projectId",
          "type": "uint256"
        }
      ],
      "name": "reconfigurationStartTimestampOf",
      "outputs": [
        {
          "internalType": "uint256",
          "name": "",
          "type": "uint256"
        }
      ],
      "stateMutability": "view",
      "type": "function"
    },
    {
      "inputs": [
        {
          "internalType": "uint256",
          "name": "_projectId",
          "type": "uint256"
        }
      ],
      "name": "scheduleReconfigurationOf",
      "outputs": [],
      "stateMutability": "nonpayable",
      "type": "function"
    },
    {
      "inputs": [
        {
          "internalType": "bytes4",
          "name": "_interfaceId",
          "type": "bytes4"
        }
      ],
      "name": "supportsInterface",
      "outputs": [
        {
          "internalType": "bool",
          "name": "",
          "type": "bool"
        }
      ],
      "stateMutability": "view",
      "type": "function"
    },
    {
      "inputs": [
        {
          "internalType": "uint256",
          "name": "",
          "type": "uint256"
        }
      ],
      "name": "terminals",
      "outputs": [
        {
          "internalType": "contract IJBPaymentTerminal",
          "name": "",
          "type": "address"
        }
      ],
      "stateMutability": "view",
      "type": "function"
    }
  ],
  "bytecode": {
    "object": "0x60c06040523480156200001157600080fd5b5060405162002324380380620023248339810160408190526200003491620000eb565b6001600160a01b03928316608052821660a05260008054600180820183557f290decd9548b62a8d60345a988386fc84ba6bc95484008f6362f93160ef3e56390910180546001600160a01b0319169390941692909217909255805480820182559181905260127fb10e2d527612073b26eecdfd717e6a320cf44b4afac2b0732d9fcbe2b7fa0cf692830155805480820190915560189101556200013f565b6001600160a01b0381168114620000e857600080fd5b50565b6000806000606084860312156200010157600080fd5b83516200010e81620000d2565b60208501519093506200012181620000d2565b60408501519092506200013481620000d2565b809150509250925092565b60805160a05161216b620001b9600039600081816101fc0152818161062301528181610662015281816106f1015261094901526000818161022301528181610402015281816105100152818161082201528181610a8501528181610b4701528181610d6e01528181610ec7015261107a015261216b6000f3fe608060405234801561001057600080fd5b50600436106100a35760003560e01c80633ce6d3e2116100765780639483e7711161005b5780639483e771146101e4578063d3967525146101f7578063f77c47911461021e57600080fd5b80633ce6d3e2146101af578063560f7b03146101c457600080fd5b806301ffc9a7146100a85780630219758e146101125780630e53d9cc1461014a578063150b7a021461016b575b600080fd5b6100fd6100b63660046111f0565b7fffffffff00000000000000000000000000000000000000000000000000000000167f150b7a02000000000000000000000000000000000000000000000000000000001490565b60405190151581526020015b60405180910390f35b610125610120366004611239565b610245565b60405173ffffffffffffffffffffffffffffffffffffffff9091168152602001610109565b61015d6101583660046112c0565b61027c565b604051908152602001610109565b61017e6101793660046113aa565b610d6a565b6040517fffffffff000000000000000000000000000000000000000000000000000000009091168152602001610109565b6101c26101bd366004611239565b610e7e565b005b61015d6101d2366004611239565b60026020526000908152604090205481565b61015d6101f2366004611239565b6111cf565b6101257f000000000000000000000000000000000000000000000000000000000000000081565b6101257f000000000000000000000000000000000000000000000000000000000000000081565b6000818154811061025557600080fd5b60009182526020909120015473ffffffffffffffffffffffffffffffffffffffff16905081565b604080516001808252818301909252600091829190816020015b60408051808201909152600081526060602082015281526020019060019003908161029657505060408051600180825281830190925291925060009190602082015b6040805160e08101825260008082526020808301829052928201819052606082018190526080820181905260a0820181905260c082015282527fffffffffffffffffffffffffffffffffffffffffffffffffffffffffffffffff9092019101816102d85790505090506040518060e00160405280600015158152602001600015158152602001633b9aca008152602001600081526020018b73ffffffffffffffffffffffffffffffffffffffff16815260200160008152602001600073ffffffffffffffffffffffffffffffffffffffff16815250816001815181106103c0576103c061141d565b602002602001018190525060405180604001604052806002815260200182815250826000815181106103f4576103f461141d565b6020026020010181905250507f000000000000000000000000000000000000000000000000000000000000000073ffffffffffffffffffffffffffffffffffffffff16638b79543c6040518163ffffffff1660e01b8152600401602060405180830381865afa15801561046b573d6000803e3d6000fd5b505050506040513d601f19601f8201168201806040525081019061048f919061144c565b73ffffffffffffffffffffffffffffffffffffffff1663666d87a0308a6040518363ffffffff1660e01b81526004016104c99291906114b2565b6020604051808303816000875af11580156104e8573d6000803e3d6000fd5b505050506040513d601f19601f8201168201806040525081019061050c919061155e565b91507f000000000000000000000000000000000000000000000000000000000000000073ffffffffffffffffffffffffffffffffffffffff1663619306306040518163ffffffff1660e01b8152600401602060405180830381865afa158015610579573d6000803e3d6000fd5b505050506040513d601f19601f8201168201806040525081019061059d919061144c565b73ffffffffffffffffffffffffffffffffffffffff1663a7f2a70b83898989896040518663ffffffff1660e01b81526004016105dd959493929190611577565b6020604051808303816000875af11580156105fc573d6000803e3d6000fd5b505050506040513d601f19601f82011682018060405250810190610620919061144c565b507f000000000000000000000000000000000000000000000000000000000000000073ffffffffffffffffffffffffffffffffffffffff16637b621d3a8360017f000000000000000000000000000000000000000000000000000000000000000073ffffffffffffffffffffffffffffffffffffffff166360b3042c6040518163ffffffff1660e01b8152600401602060405180830381865afa1580156106cb573d6000803e3d6000fd5b505050506040513d601f19601f820116820180604052508101906106ef919061155e565b7f000000000000000000000000000000000000000000000000000000000000000073ffffffffffffffffffffffffffffffffffffffff1663737a79966040518163ffffffff1660e01b8152600401602060405180830381865afa15801561075a573d6000803e3d6000fd5b505050506040513d601f19601f8201168201806040525081019061077e919061155e565b6040517fffffffff0000000000000000000000000000000000000000000000000000000060e087901b168152600481019490945262ffffff909216602484015263ffffffff908116604484015216606482015261eeee608482015260a4016020604051808303816000875af11580156107fb573d6000803e3d6000fd5b505050506040513d601f19601f8201168201806040525081019061081f919061144c565b507f000000000000000000000000000000000000000000000000000000000000000073ffffffffffffffffffffffffffffffffffffffff1663111d861b83604051806080016040528087606001358152602001601288600001356108839190611701565b8152604088810135602080840191909152600092820183905281516102a081018352610240810184815261026082018590526102808201859052815260a0808c0135828401526080808d013583860152606083018690528201859052810184905260c0810184905260e081018490526001610100820181905261012082018590526101408201859052610160820185905261018082018590526101a082018590526101c08201526101e0810184905273ffffffffffffffffffffffffffffffffffffffff7f00000000000000000000000000000000000000000000000000000000000000001661020082015261022081018490528251848152918201909252909190879082610a05565b6109f26040518060c00160405280600073ffffffffffffffffffffffffffffffffffffffff168152602001600073ffffffffffffffffffffffffffffffffffffffff168152602001600081526020016000815260200160008152602001600081525090565b81526020019060019003908161098d5790505b5060006040518863ffffffff1660e01b8152600401610a2a97969594939291906119f7565b6020604051808303816000875af1158015610a49573d6000803e3d6000fd5b505050506040513d601f19601f82011682018060405250810190610a6d919061155e565b5073ffffffffffffffffffffffffffffffffffffffff7f000000000000000000000000000000000000000000000000000000000000000016638ae9c07b83610aba60126020880135611701565b8c8989604051602001610ace929190611b18565b6040516020818303038152906040526000806040518763ffffffff1660e01b8152600401610b0196959493929190611b75565b6020604051808303816000875af1158015610b20573d6000803e3d6000fd5b505050506040513d601f19601f82011682018060405250810190610b44919061155e565b507f000000000000000000000000000000000000000000000000000000000000000073ffffffffffffffffffffffffffffffffffffffff16632bdfe0046040518163ffffffff1660e01b8152600401602060405180830381865afa158015610bb0573d6000803e3d6000fd5b505050506040513d601f19601f82011682018060405250810190610bd4919061144c565b73ffffffffffffffffffffffffffffffffffffffff1663ad007d636040518163ffffffff1660e01b8152600401602060405180830381865afa158015610c1e573d6000803e3d6000fd5b505050506040513d601f19601f82011682018060405250810190610c42919061144c565b73ffffffffffffffffffffffffffffffffffffffff1663529cdd2e60405180606001604052808c73ffffffffffffffffffffffffffffffffffffffff1681526020018581526020016001805480602002602001604051908101604052809291908181526020018280548015610cd657602002820191906000526020600020905b815481526020019060010190808311610cc2575b50505050508152506040518263ffffffff1660e01b8152600401610cfa9190611c25565b600060405180830381600087803b158015610d1457600080fd5b505af1158015610d28573d6000803e3d6000fd5b50610d3d9250505060e0840160c08501611ca1565b610d4f9065ffffffffffff1642611cc9565b60008381526002602052604090205550979650505050505050565b60007f000000000000000000000000000000000000000000000000000000000000000073ffffffffffffffffffffffffffffffffffffffff16638b79543c6040518163ffffffff1660e01b8152600401602060405180830381865afa158015610dd7573d6000803e3d6000fd5b505050506040513d601f19601f82011682018060405250810190610dfb919061144c565b73ffffffffffffffffffffffffffffffffffffffff163373ffffffffffffffffffffffffffffffffffffffff1614610e3257600080fd5b73ffffffffffffffffffffffffffffffffffffffff851615610e5357600080fd5b507f150b7a020000000000000000000000000000000000000000000000000000000095945050505050565b6040517f1f51045300000000000000000000000000000000000000000000000000000000815260048101829052600090819073ffffffffffffffffffffffffffffffffffffffff7f00000000000000000000000000000000000000000000000000000000000000001690631f510453906024016103c060405180830381865afa158015610f0f573d6000803e3d6000fd5b505050506040513d601f19601f82011682018060405250810190610f339190611f8a565b5081519193509150600114610f74576040517fc97554fa00000000000000000000000000000000000000000000000000000000815260040160405180910390fd5b60408051608080820183528481015182526000602080840182905260c08088015185870152606080860184905286516102a0810188526102408101858152610260820186905261028082018690528152808401859052888801518189015290810184905293840183905260a08401839052830182905260e08301829052610100830182905261012083018290526101408301829052610160830182905261018083018290526101a083018290526101c083018290526101e083018290526102008087015173ffffffffffffffffffffffffffffffffffffffff908116918501919091526102208781015190850152888352600282528583205486518481529283019096527f0000000000000000000000000000000000000000000000000000000000000000169463badbdf2894899490939092906110d5565b6040805180820190915260008152606060208201528152602001906001900390816110ad5790505b506040805160008082526020820190925290611164565b6111516040518060c00160405280600073ffffffffffffffffffffffffffffffffffffffff168152602001600073ffffffffffffffffffffffffffffffffffffffff168152602001600081526020016000815260200160008152602001600081525090565b8152602001906001900390816110ec5790505b506040518763ffffffff1660e01b815260040161118696959493929190612041565b6020604051808303816000875af11580156111a5573d6000803e3d6000fd5b505050506040513d601f19601f820116820180604052508101906111c9919061155e565b50505050565b600181815481106111df57600080fd5b600091825260209091200154905081565b60006020828403121561120257600080fd5b81357fffffffff000000000000000000000000000000000000000000000000000000008116811461123257600080fd5b9392505050565b60006020828403121561124b57600080fd5b5035919050565b73ffffffffffffffffffffffffffffffffffffffff8116811461127457600080fd5b50565b60008083601f84011261128957600080fd5b50813567ffffffffffffffff8111156112a157600080fd5b6020830191508360208285010111156112b957600080fd5b9250929050565b60008060008060008060008789036101608112156112dd57600080fd5b88356112e881611252565b9750602089013567ffffffffffffffff8082111561130557600080fd5b908a01906040828d03121561131957600080fd5b90975060408a0135908082111561132f57600080fd5b61133b8c838d01611277565b909850965060608b013591508082111561135457600080fd5b506113618b828c01611277565b90955093505060e07fffffffffffffffffffffffffffffffffffffffffffffffffffffffffffffff808201121561139757600080fd5b5060808801905092959891949750929550565b6000806000806000608086880312156113c257600080fd5b85356113cd81611252565b945060208601356113dd81611252565b935060408601359250606086013567ffffffffffffffff81111561140057600080fd5b61140c88828901611277565b969995985093965092949392505050565b7f4e487b7100000000000000000000000000000000000000000000000000000000600052603260045260246000fd5b60006020828403121561145e57600080fd5b815161123281611252565b8183528181602085013750600060208284010152600060207fffffffffffffffffffffffffffffffffffffffffffffffffffffffffffffffe0601f840116840101905092915050565b73ffffffffffffffffffffffffffffffffffffffff8316815260406020820152600082357fffffffffffffffffffffffffffffffffffffffffffffffffffffffffffffffe184360301811261150657600080fd5b830160208101903567ffffffffffffffff81111561152357600080fd5b80360382131561153257600080fd5b604080850152611546608085018284611469565b91505060208401356060840152809150509392505050565b60006020828403121561157057600080fd5b5051919050565b858152606060208201526000611591606083018688611469565b82810360408401526115a4818587611469565b98975050505050505050565b7f4e487b7100000000000000000000000000000000000000000000000000000000600052601160045260246000fd5b600181815b8085111561163857817fffffffffffffffffffffffffffffffffffffffffffffffffffffffffffffffff0482111561161e5761161e6115b0565b8085161561162b57918102915b93841c93908002906115e4565b509250929050565b60008261164f575060016116fb565b8161165c575060006116fb565b8160018114611672576002811461167c57611698565b60019150506116fb565b60ff84111561168d5761168d6115b0565b50506001821b6116fb565b5060208310610133831016604e8410600b84101617156116bb575081810a6116fb565b6116c583836115df565b807fffffffffffffffffffffffffffffffffffffffffffffffffffffffffffffffff048211156116f7576116f76115b0565b0290505b92915050565b600061123260ff841683611640565b6117358282518051151582526020808201511515908301526040908101511515910152565b6020810151606083015260408101516080830152606081015160a0830152608081015161176660c084018215159052565b5060a081015180151560e08401525060c081015161010061178a8185018315159052565b60e083015191506101206117a18186018415159052565b908301519150610140906117b88583018415159052565b83015191506101606117cd8582018415159052565b908301519150610180906117e48583018415159052565b83015191506101a06117f98582018415159052565b9083015191506101c0906118108583018415159052565b83015191506101e06118258582018415159052565b9083015191506102009061183c8583018415159052565b83015191506102206118518582018415159052565b9083015173ffffffffffffffffffffffffffffffffffffffff16610240850152909101516102609092019190915250565b600081518084526020808501808196508360051b810191508286016000805b86811015611961578385038a52825180518652860151604087870181905281518188018190529188019160609081890190865b8181101561194a5785518051151584528c81015115158d8501528581015186850152848101518585015260808082015173ffffffffffffffffffffffffffffffffffffffff9081169186019190915260a0808301519086015260c0918201511690840152948b019460e0909201916001016118d4565b50509c89019c9750505092860192506001016118a1565b509298975050505050505050565b600081518084526020808501945080840160005b838110156119ec578151805173ffffffffffffffffffffffffffffffffffffffff908116895284820151168489015260408082015190890152606080820151908901526080808201519089015260a0908101519088015260c09096019590820190600101611983565b509495945050505050565b60006103c08983526020611a448185018b80518252602081015160208301526040810151604083015273ffffffffffffffffffffffffffffffffffffffff60608201511660608301525050565b611a5160a085018a611710565b8761032085015281610340850152611a6b82850188611882565b9150838203610360850152611a80828761196f565b848103610380860152855480825260008781528381209450918301915b81811015611acf57845473ffffffffffffffffffffffffffffffffffffffff1683526001948501949284019201611a9d565b50508481036103a0860152601b81527f4465706c6f7965642052657461696c69737420747265617375727900000000006020820152604081019c9b505050505050505050505050565b7f5072656d696e746564200000000000000000000000000000000000000000000081528183600a8301377f20746f6b656e732e0000000000000000000000000000000000000000000000009101600a810191909152601201919050565b86815260006020878184015273ffffffffffffffffffffffffffffffffffffffff8716604084015260c0606084015285518060c085015260005b81811015611bcb5787810183015185820160e001528201611baf565b50600060e0828601015260e07fffffffffffffffffffffffffffffffffffffffffffffffffffffffffffffffe0601f83011685010192505050611c12608083018515159052565b82151560a0830152979650505050505050565b600060208083526080830173ffffffffffffffffffffffffffffffffffffffff85511682850152818501516040850152604085015160608086015281815180845260a0870191508483019350600092505b80831015611c965783518252928401926001929092019190840190611c76565b509695505050505050565b600060208284031215611cb357600080fd5b813565ffffffffffff8116811461123257600080fd5b808201808211156116fb576116fb6115b0565b604051610240810167ffffffffffffffff81118282101715611d27577f4e487b7100000000000000000000000000000000000000000000000000000000600052604160045260246000fd5b60405290565b604051610120810167ffffffffffffffff81118282101715611d27577f4e487b7100000000000000000000000000000000000000000000000000000000600052604160045260246000fd5b8051611d8381611252565b919050565b80518015158114611d8357600080fd5b600060608284031215611daa57600080fd5b6040516060810181811067ffffffffffffffff82111715611df4577f4e487b7100000000000000000000000000000000000000000000000000000000600052604160045260246000fd5b604052905080611e0383611d88565b8152611e1160208401611d88565b6020820152611e2260408401611d88565b60408201525092915050565b60006102808284031215611e4157600080fd5b611e49611cdc565b9050611e558383611d98565b8152606082015160208201526080820151604082015260a08201516060820152611e8160c08301611d88565b6080820152611e9260e08301611d88565b60a0820152610100611ea5818401611d88565b60c0830152610120611eb8818501611d88565b60e0840152610140611ecb818601611d88565b838501526101609250611edf838601611d88565b828501526101809150611ef3828601611d88565b908401526101a0611f05858201611d88565b838501526101c09250611f19838601611d88565b828501526101e09150611f2d828601611d88565b90840152610200611f3f858201611d88565b838501526102209250611f53838601611d88565b82850152611f646102408601611d78565b818501525050610260830151818301525092915050565b805160038110611d8357600080fd5b60008060008385036103c0811215611fa157600080fd5b61012080821215611fb157600080fd5b611fb9611d2d565b9150855182526020860151602083015260408601516040830152606086015160608301526080860151608083015260a086015160a083015260c086015160c083015261200760e08701611d78565b60e083015261010080870151818401525081945061202787828801611e2e565b935050506120386103a08501611f7b565b90509250925092565b60006103a088835261208d602084018980518252602081015160208301526040810151604083015273ffffffffffffffffffffffffffffffffffffffff60608201511660608301525050565b61209a60a0840188611710565b85610320840152806103408401526120b481840186611882565b90508281036103608401526120c9818561196f565b838103610380909401939093525050602c81527f5363686564756c656420626f6f737420657870697279206f662052657461696c60208201527f69737420747265617375727900000000000000000000000000000000000000006040820152606001969550505050505056fea2646970667358221220cdd49df7b547cbafc90219863a86175a6321f277ee0d2d4fa8deaf7197155a0d64736f6c63430008150033",
    "linkReferences": {}
  },
  "methodIdentifiers": {
    "buybackDelegate()": "d3967525",
    "controller()": "f77c4791",
    "deployBasicProjectFor(address,(string,uint256),string,string,(uint256,uint256,uint256,uint256,uint256,uint256,uint48))": "0e53d9cc",
    "onERC721Received(address,address,uint256,bytes)": "150b7a02",
    "permissionIndexes(uint256)": "9483e771",
    "reconfigurationStartTimestampOf(uint256)": "560f7b03",
    "scheduleReconfigurationOf(uint256)": "3ce6d3e2",
    "supportsInterface(bytes4)": "01ffc9a7",
    "terminals(uint256)": "0219758e"
  },
  "id": 111
}