{
  "abi": [
    {
      "inputs": [
        {
          "internalType": "contract IJBController3_1",
          "name": "_controller",
          "type": "address"
        }
      ],
      "stateMutability": "nonpayable",
      "type": "constructor"
    },
    {
      "inputs": [],
      "name": "BAD_DEV_TAX_SEQUENCE",
      "type": "error"
    },
    {
      "inputs": [],
      "name": "RECONFIGURATION_ALREADY_SCHEDULED",
      "type": "error"
    },
    {
      "inputs": [],
      "name": "RECONFIGURATION_NOT_POSSIBLE",
      "type": "error"
    },
    {
      "inputs": [],
      "name": "controller",
      "outputs": [
        {
          "internalType": "contract IJBController3_1",
          "name": "",
          "type": "address"
        }
      ],
      "stateMutability": "view",
      "type": "function"
    },
    {
      "inputs": [
        {
          "internalType": "uint256",
          "name": "_networkId",
          "type": "uint256"
        }
      ],
      "name": "currentDevTaxPeriodNumberOf",
      "outputs": [
        {
          "internalType": "uint256",
          "name": "",
          "type": "uint256"
        }
      ],
      "stateMutability": "view",
      "type": "function"
    },
    {
      "inputs": [
        {
          "internalType": "address",
          "name": "_operator",
          "type": "address"
        },
        {
          "components": [
            {
              "internalType": "string",
              "name": "content",
              "type": "string"
            },
            {
              "internalType": "uint256",
              "name": "domain",
              "type": "uint256"
            }
          ],
          "internalType": "struct JBProjectMetadata",
          "name": "_networkMetadata",
          "type": "tuple"
        },
        {
          "internalType": "string",
          "name": "_name",
          "type": "string"
        },
        {
          "internalType": "string",
          "name": "_symbol",
          "type": "string"
        },
        {
          "components": [
            {
              "internalType": "uint256",
              "name": "initialIssuanceRate",
              "type": "uint256"
            },
            {
              "internalType": "uint256",
              "name": "premintTokenAmount",
              "type": "uint256"
            },
            {
              "internalType": "uint256",
              "name": "generationTax",
              "type": "uint256"
            },
            {
              "internalType": "uint256",
              "name": "generationDuration",
              "type": "uint256"
            },
            {
              "internalType": "uint256",
              "name": "exitTaxRate",
              "type": "uint256"
            },
            {
              "components": [
                {
                  "internalType": "uint128",
                  "name": "rate",
                  "type": "uint128"
                },
                {
                  "internalType": "uint128",
                  "name": "startsAtOrAfter",
                  "type": "uint128"
                }
              ],
              "internalType": "struct DevTaxPeriod[]",
              "name": "devTaxPeriods",
              "type": "tuple[]"
            },
            {
              "internalType": "uint24",
              "name": "poolFee",
              "type": "uint24"
            }
          ],
          "internalType": "struct BasicRetailistJBParams",
          "name": "_data",
          "type": "tuple"
        },
        {
          "internalType": "contract IJBPaymentTerminal[]",
          "name": "_terminals",
          "type": "address[]"
        },
        {
          "internalType": "contract IJBGenericBuybackDelegate",
          "name": "_buybackDelegate",
          "type": "address"
        }
      ],
      "name": "deployBasicNetworkFor",
      "outputs": [
        {
          "internalType": "uint256",
          "name": "networkId",
          "type": "uint256"
        }
      ],
      "stateMutability": "nonpayable",
      "type": "function"
    },
    {
      "inputs": [
        {
          "internalType": "uint256",
          "name": "_networkId",
          "type": "uint256"
        }
      ],
      "name": "devTaxPeriodsOf",
      "outputs": [
        {
          "components": [
            {
              "internalType": "uint128",
              "name": "rate",
              "type": "uint128"
            },
            {
              "internalType": "uint128",
              "name": "startsAtOrAfter",
              "type": "uint128"
            }
          ],
          "internalType": "struct DevTaxPeriod[]",
          "name": "",
          "type": "tuple[]"
        }
      ],
      "stateMutability": "view",
      "type": "function"
    },
    {
      "inputs": [
        {
          "internalType": "address",
          "name": "_operator",
          "type": "address"
        },
        {
          "internalType": "address",
          "name": "_from",
          "type": "address"
        },
        {
          "internalType": "uint256",
          "name": "_tokenId",
          "type": "uint256"
        },
        {
          "internalType": "bytes",
          "name": "_data",
          "type": "bytes"
        }
      ],
      "name": "onERC721Received",
      "outputs": [
        {
          "internalType": "bytes4",
          "name": "",
          "type": "bytes4"
        }
      ],
      "stateMutability": "view",
      "type": "function"
    },
    {
      "inputs": [
        {
          "internalType": "uint256",
          "name": "",
          "type": "uint256"
        }
      ],
      "name": "operatorPermissionIndexes",
      "outputs": [
        {
          "internalType": "uint256",
          "name": "",
          "type": "uint256"
        }
      ],
      "stateMutability": "view",
      "type": "function"
    },
    {
      "inputs": [
        {
          "internalType": "uint256",
          "name": "_networkId",
          "type": "uint256"
        }
      ],
      "name": "scheduleNextDevTaxPeriodOf",
      "outputs": [],
      "stateMutability": "nonpayable",
      "type": "function"
    },
    {
      "inputs": [
        {
          "internalType": "bytes4",
          "name": "_interfaceId",
          "type": "bytes4"
        }
      ],
      "name": "supportsInterface",
      "outputs": [
        {
          "internalType": "bool",
          "name": "",
          "type": "bool"
        }
      ],
      "stateMutability": "view",
      "type": "function"
    }
  ],
  "bytecode": {
    "object": "0x60a06040523480156200001157600080fd5b5060405162002a6b38038062002a6b833981016040819052620000349162000088565b6001600160a01b0316608052600180548082018255600082905260127fb10e2d527612073b26eecdfd717e6a320cf44b4afac2b0732d9fcbe2b7fa0cf69182015581548083019092556018910155620000ba565b6000602082840312156200009b57600080fd5b81516001600160a01b0381168114620000b357600080fd5b9392505050565b60805161295662000115600039600081816101c901528181610259015281816104b5015281816105f801528181610706015281816109b701528181610c7201528181610d4901528181610f51015261115d01526129566000f3fe608060405234801561001057600080fd5b50600436106100885760003560e01c8063263950ae1161005b578063263950ae146101715780634d757720146101915780639f665eee146101a4578063f77c4791146101c457600080fd5b806301ffc9a71461008d5780630310850e146100f75780630a801f471461010c578063150b7a021461012d575b600080fd5b6100e261009b3660046115c9565b7fffffffff00000000000000000000000000000000000000000000000000000000167f150b7a02000000000000000000000000000000000000000000000000000000001490565b60405190151581526020015b60405180910390f35b61010a610105366004611612565b610210565b005b61011f61011a366004611a35565b6105e8565b6040519081526020016100ee565b61014061013b366004611b28565b610f4d565b6040517fffffffff0000000000000000000000000000000000000000000000000000000090911681526020016100ee565b61018461017f366004611612565b611061565b6040516100ee9190611bc7565b61011f61019f366004611612565b6110f7565b61011f6101b2366004611612565b60026020526000908152604090205481565b6101eb7f000000000000000000000000000000000000000000000000000000000000000081565b60405173ffffffffffffffffffffffffffffffffffffffff90911681526020016100ee565b6040517f1f51045300000000000000000000000000000000000000000000000000000000815260048101829052600090819073ffffffffffffffffffffffffffffffffffffffff7f00000000000000000000000000000000000000000000000000000000000000001690631f510453906024016103c060405180830381865afa1580156102a1573d6000803e3d6000fd5b505050506040513d601f19601f820116820180604052508101906102c59190611e12565b50600085815260026020526040812080549395509193509182906102e890611ef8565b918290555060008581526020819052604090205490915080158061030b57508082145b806103195750428460600151115b15610350576040517fc97554fa00000000000000000000000000000000000000000000000000000000815260040160405180910390fd5b600085815260208190526040812080548490811061037057610370611f30565b6000918252602080832060408051808201825293909101546fffffffffffffffffffffffffffffffff808216855270010000000000000000000000000000000090910481168484019081528251608080820185528c810151825281860188905260c0808e01518387015260608084018a905286516102a08101885261024081018b815261026082018c905261028082018c905281528951909616868901528d87015196860196909652948401889052830187905260a0830187905292820186905260e08201869052610100820186905261012082018690526101408201869052610160820186905261018082018690526101a082018690526101c082018690526101e0820195909552610200808a015173ffffffffffffffffffffffffffffffffffffffff908116918301919091526102208a810151908301529451928a01519395507f00000000000000000000000000000000000000000000000000000000000000009094169363badbdf28938b93906104ec908590611118565b604080516000808252602082019092529061057a565b6105676040518060c00160405280600073ffffffffffffffffffffffffffffffffffffffff168152602001600073ffffffffffffffffffffffffffffffffffffffff168152602001600081526020016000815260200160008152602001600081525090565b8152602001906001900390816105025790505b506040518763ffffffff1660e01b815260040161059c96959493929190612267565b6020604051808303816000875af11580156105bb573d6000803e3d6000fd5b505050506040513d601f19601f820116820180604052508101906105df919061236d565b50505050505050565b6000806105f4896112e8565b90507f000000000000000000000000000000000000000000000000000000000000000073ffffffffffffffffffffffffffffffffffffffff16638b79543c6040518163ffffffff1660e01b8152600401602060405180830381865afa158015610661573d6000803e3d6000fd5b505050506040513d601f19601f820116820180604052508101906106859190612386565b73ffffffffffffffffffffffffffffffffffffffff1663666d87a0308a6040518363ffffffff1660e01b81526004016106bf929190612411565b6020604051808303816000875af11580156106de573d6000803e3d6000fd5b505050506040513d601f19601f82011682018060405250810190610702919061236d565b91507f000000000000000000000000000000000000000000000000000000000000000073ffffffffffffffffffffffffffffffffffffffff1663619306306040518163ffffffff1660e01b8152600401602060405180830381865afa15801561076f573d6000803e3d6000fd5b505050506040513d601f19601f820116820180604052508101906107939190612386565b73ffffffffffffffffffffffffffffffffffffffff1663a7f2a70b8389896040518463ffffffff1660e01b81526004016107cf9392919061245f565b6020604051808303816000875af11580156107ee573d6000803e3d6000fd5b505050506040513d601f19601f820116820180604052508101906108129190612386565b508273ffffffffffffffffffffffffffffffffffffffff16637b621d3a838760c001518673ffffffffffffffffffffffffffffffffffffffff166360b3042c6040518163ffffffff1660e01b8152600401602060405180830381865afa158015610880573d6000803e3d6000fd5b505050506040513d601f19601f820116820180604052508101906108a4919061236d565b8773ffffffffffffffffffffffffffffffffffffffff1663737a79966040518163ffffffff1660e01b8152600401602060405180830381865afa1580156108ef573d6000803e3d6000fd5b505050506040513d601f19601f82011682018060405250810190610913919061236d565b6040517fffffffff0000000000000000000000000000000000000000000000000000000060e087901b168152600481019490945262ffffff909216602484015263ffffffff908116604484015216606482015261eeee608482015260a4016020604051808303816000875af1158015610990573d6000803e3d6000fd5b505050506040513d601f19601f820116820180604052508101906109b49190612386565b507f000000000000000000000000000000000000000000000000000000000000000073ffffffffffffffffffffffffffffffffffffffff1663111d861b8360405180608001604052808960600151815260200160128a60000151610a1891906125b6565b81526040808b0151602080840191909152600092820183905281516102a081019092526102408201838152610260830184905261028083019390935291815260a08b015151909182019015610a8f578a60a00151600081518110610a7e57610a7e611f30565b602002602001015160000151610a92565b60005b6fffffffffffffffffffffffffffffffff1681526020018a60800151612710610abb91906125c5565b815260006020820181905260408201819052606082018190526080820181905260a0808301829052600160c0840181905260e0840183905261010084018390526101208401839052610140840183905261016084018390526101808401526101a0830182905273ffffffffffffffffffffffffffffffffffffffff8b166101c08401526101e0909201528a01515115610b76578960a00151600081518110610b6557610b65611f30565b602002602001015160200151610b79565b60005b604080516000808252602082019092528891610c08565b610bf56040518060c00160405280600073ffffffffffffffffffffffffffffffffffffffff168152602001600073ffffffffffffffffffffffffffffffffffffffff168152602001600081526020016000815260200160008152602001600081525090565b815260200190600190039081610b905790505b508b6040518863ffffffff1660e01b8152600401610c2c97969594939291906125d8565b6020604051808303816000875af1158015610c4b573d6000803e3d6000fd5b505050506040513d601f19601f82011682018060405250810190610c6f919061236d565b507f000000000000000000000000000000000000000000000000000000000000000073ffffffffffffffffffffffffffffffffffffffff16638ae9c07b8360128860200151610cbe91906125b6565b8c8a604051602001610cd09190612708565b6040516020818303038152906040526000806040518763ffffffff1660e01b8152600401610d039695949392919061274d565b6020604051808303816000875af1158015610d22573d6000803e3d6000fd5b505050506040513d601f19601f82011682018060405250810190610d46919061236d565b507f000000000000000000000000000000000000000000000000000000000000000073ffffffffffffffffffffffffffffffffffffffff16632bdfe0046040518163ffffffff1660e01b8152600401602060405180830381865afa158015610db2573d6000803e3d6000fd5b505050506040513d601f19601f82011682018060405250810190610dd69190612386565b73ffffffffffffffffffffffffffffffffffffffff1663ad007d636040518163ffffffff1660e01b8152600401602060405180830381865afa158015610e20573d6000803e3d6000fd5b505050506040513d601f19601f82011682018060405250810190610e449190612386565b73ffffffffffffffffffffffffffffffffffffffff1663529cdd2e60405180606001604052808c73ffffffffffffffffffffffffffffffffffffffff1681526020018581526020016001805480602002602001604051908101604052809291908181526020018280548015610ed857602002820191906000526020600020905b815481526020019060010190808311610ec4575b50505050508152506040518263ffffffff1660e01b8152600401610efc91906127a2565b600060405180830381600087803b158015610f1657600080fd5b505af1158015610f2a573d6000803e3d6000fd5b50505050610f41828660a00151876060015161146e565b50979650505050505050565b60007f000000000000000000000000000000000000000000000000000000000000000073ffffffffffffffffffffffffffffffffffffffff16638b79543c6040518163ffffffff1660e01b8152600401602060405180830381865afa158015610fba573d6000803e3d6000fd5b505050506040513d601f19601f82011682018060405250810190610fde9190612386565b73ffffffffffffffffffffffffffffffffffffffff163373ffffffffffffffffffffffffffffffffffffffff161461101557600080fd5b73ffffffffffffffffffffffffffffffffffffffff85161561103657600080fd5b507f150b7a020000000000000000000000000000000000000000000000000000000095945050505050565b600081815260208181526040808320805482518185028101850190935280835260609492939192909184015b828210156110ec57600084815260209081902060408051808201909152908401546fffffffffffffffffffffffffffffffff8082168352700100000000000000000000000000000000909104168183015282526001909201910161108d565b505050509050919050565b6001818154811061110757600080fd5b600091825260209091200154905081565b604080516001808252818301909252606091816020015b60408051808201909152600081526060602082015281526020019060019003908161112f57905050905060007f000000000000000000000000000000000000000000000000000000000000000073ffffffffffffffffffffffffffffffffffffffff16632bdfe0046040518163ffffffff1660e01b8152600401602060405180830381865afa1580156111c6573d6000803e3d6000fd5b505050506040513d601f19601f820116820180604052508101906111ea9190612386565b6040517f69e11cc500000000000000000000000000000000000000000000000000000000815260048101869052602481018590526002604482015273ffffffffffffffffffffffffffffffffffffffff91909116906369e11cc590606401600060405180830381865afa158015611265573d6000803e3d6000fd5b505050506040513d6000823e601f3d9081017fffffffffffffffffffffffffffffffffffffffffffffffffffffffffffffffe01682016040526112ab9190810190612813565b905060405180604001604052806002815260200182815250826000815181106112d6576112d6611f30565b60200260200101819052505092915050565b604080516001808252818301909252606091816020015b6040805180820190915260008152606060208201528152602001906001900390816112ff57505060408051600180825281830190925291925060009190602082015b6040805160e08101825260008082526020808301829052928201819052606082018190526080820181905260a0820181905260c082015282527fffffffffffffffffffffffffffffffffffffffffffffffffffffffffffffffff9092019101816113415790505090506040518060e00160405280600015158152602001600015158152602001633b9aca008152602001600081526020018473ffffffffffffffffffffffffffffffffffffffff16815260200160008152602001600073ffffffffffffffffffffffffffffffffffffffff168152508160018151811061142957611429611f30565b6020026020010181905250604051806040016040528060028152602001828152508260008151811061145d5761145d611f30565b602002602001018190525050919050565b815180156115c35760005b818110156115c1578015801590611503575082846114986001846125c5565b815181106114a8576114a8611f30565b6020026020010151602001516fffffffffffffffffffffffffffffffff166114d0919061290d565b8482815181106114e2576114e2611f30565b6020026020010151602001516fffffffffffffffffffffffffffffffff1611155b1561153a576040517fc5c2978500000000000000000000000000000000000000000000000000000000815260040160405180910390fd5b83818151811061154c5761154c611f30565b6020026020010151600080878152602001908152602001600020828154811061157757611577611f30565b6000918252602091829020835193909201516fffffffffffffffffffffffffffffffff90811670010000000000000000000000000000000002931692909217910155600101611479565b505b50505050565b6000602082840312156115db57600080fd5b81357fffffffff000000000000000000000000000000000000000000000000000000008116811461160b57600080fd5b9392505050565b60006020828403121561162457600080fd5b5035919050565b73ffffffffffffffffffffffffffffffffffffffff8116811461164d57600080fd5b50565b803561165b8161162b565b919050565b7f4e487b7100000000000000000000000000000000000000000000000000000000600052604160045260246000fd5b6040805190810167ffffffffffffffff811182821017156116b2576116b2611660565b60405290565b60405160e0810167ffffffffffffffff811182821017156116b2576116b2611660565b604051610240810167ffffffffffffffff811182821017156116b2576116b2611660565b604051610120810167ffffffffffffffff811182821017156116b2576116b2611660565b604051601f82017fffffffffffffffffffffffffffffffffffffffffffffffffffffffffffffffe016810167ffffffffffffffff8111828210171561176a5761176a611660565b604052919050565b600082601f83011261178357600080fd5b813567ffffffffffffffff81111561179d5761179d611660565b6117ce60207fffffffffffffffffffffffffffffffffffffffffffffffffffffffffffffffe0601f84011601611723565b8181528460208386010111156117e357600080fd5b816020850160208301376000918101602001919091529392505050565b60006040828403121561181257600080fd5b61181a61168f565b9050813567ffffffffffffffff81111561183357600080fd5b61183f84828501611772565b8252506020820135602082015292915050565b600067ffffffffffffffff82111561186c5761186c611660565b5060051b60200190565b80356fffffffffffffffffffffffffffffffff8116811461165b57600080fd5b600082601f8301126118a757600080fd5b813560206118bc6118b783611852565b611723565b82815260069290921b840181019181810190868411156118db57600080fd5b8286015b8481101561192857604081890312156118f85760008081fd5b61190061168f565b61190982611876565b8152611916858301611876565b818601528352918301916040016118df565b509695505050505050565b803562ffffff8116811461165b57600080fd5b600060e0828403121561195857600080fd5b6119606116b8565b9050813581526020820135602082015260408201356040820152606082013560608201526080820135608082015260a082013567ffffffffffffffff8111156119a857600080fd5b6119b484828501611896565b60a0830152506119c660c08301611933565b60c082015292915050565b600082601f8301126119e257600080fd5b813560206119f26118b783611852565b82815260059290921b84018101918181019086841115611a1157600080fd5b8286015b84811015611928578035611a288161162b565b8352918301918301611a15565b600080600080600080600060e0888a031215611a5057600080fd5b611a5988611650565b9650602088013567ffffffffffffffff80821115611a7657600080fd5b611a828b838c01611800565b975060408a0135915080821115611a9857600080fd5b611aa48b838c01611772565b965060608a0135915080821115611aba57600080fd5b611ac68b838c01611772565b955060808a0135915080821115611adc57600080fd5b611ae88b838c01611946565b945060a08a0135915080821115611afe57600080fd5b50611b0b8a828b016119d1565b925050611b1a60c08901611650565b905092959891949750929550565b600080600080600060808688031215611b4057600080fd5b8535611b4b8161162b565b94506020860135611b5b8161162b565b935060408601359250606086013567ffffffffffffffff80821115611b7f57600080fd5b818801915088601f830112611b9357600080fd5b813581811115611ba257600080fd5b896020828501011115611bb457600080fd5b9699959850939650602001949392505050565b602080825282518282018190526000919060409081850190868401855b82811015611c1f57815180516fffffffffffffffffffffffffffffffff90811686529087015116868501529284019290850190600101611be4565b5091979650505050505050565b805161165b8161162b565b8051801515811461165b57600080fd5b600060608284031215611c5957600080fd5b6040516060810181811067ffffffffffffffff82111715611c7c57611c7c611660565b604052905080611c8b83611c37565b8152611c9960208401611c37565b6020820152611caa60408401611c37565b60408201525092915050565b60006102808284031215611cc957600080fd5b611cd16116db565b9050611cdd8383611c47565b8152606082015160208201526080820151604082015260a08201516060820152611d0960c08301611c37565b6080820152611d1a60e08301611c37565b60a0820152610100611d2d818401611c37565b60c0830152610120611d40818501611c37565b60e0840152610140611d53818601611c37565b838501526101609250611d67838601611c37565b828501526101809150611d7b828601611c37565b908401526101a0611d8d858201611c37565b838501526101c09250611da1838601611c37565b828501526101e09150611db5828601611c37565b90840152610200611dc7858201611c37565b838501526102209250611ddb838601611c37565b82850152611dec6102408601611c2c565b818501525050610260830151818301525092915050565b80516003811061165b57600080fd5b60008060008385036103c0811215611e2957600080fd5b61012080821215611e3957600080fd5b611e416116ff565b9150855182526020860151602083015260408601516040830152606086015160608301526080860151608083015260a086015160a083015260c086015160c0830152611e8f60e08701611c2c565b60e0830152610100808701518184015250819450611eaf87828801611cb6565b93505050611ec06103a08501611e03565b90509250925092565b7f4e487b7100000000000000000000000000000000000000000000000000000000600052601160045260246000fd5b60007fffffffffffffffffffffffffffffffffffffffffffffffffffffffffffffffff8203611f2957611f29611ec9565b5060010190565b7f4e487b7100000000000000000000000000000000000000000000000000000000600052603260045260246000fd5b611f848282518051151582526020808201511515908301526040908101511515910152565b6020810151606083015260408101516080830152606081015160a08301526080810151611fb560c084018215159052565b5060a081015180151560e08401525060c0810151610100611fd98185018315159052565b60e08301519150610120611ff08186018415159052565b908301519150610140906120078583018415159052565b830151915061016061201c8582018415159052565b908301519150610180906120338583018415159052565b83015191506101a06120488582018415159052565b9083015191506101c09061205f8583018415159052565b83015191506101e06120748582018415159052565b9083015191506102009061208b8583018415159052565b83015191506102206120a08582018415159052565b9083015173ffffffffffffffffffffffffffffffffffffffff16610240850152909101516102609092019190915250565b600082825180855260208086019550808260051b8401018186016000805b858110156121d1578684037fffffffffffffffffffffffffffffffffffffffffffffffffffffffffffffffe0018a52825180518552850151604086860181905281518187018190529187019160609081880190865b818110156121ba5785518051151584528b81015115158c8501528581015186850152848101518585015260808082015173ffffffffffffffffffffffffffffffffffffffff9081169186019190915260a0808301519086015260c0918201511690840152948a019460e090920191600101612144565b50509c88019c9650505092850192506001016120ef565b509198975050505050505050565b600081518084526020808501945080840160005b8381101561225c578151805173ffffffffffffffffffffffffffffffffffffffff908116895284820151168489015260408082015190890152606080820151908901526080808201519089015260a0908101519088015260c090960195908201906001016121f3565b509495945050505050565b60006103a08883526122b3602084018980518252602081015160208301526040810151604083015273ffffffffffffffffffffffffffffffffffffffff60608201511660608301525050565b6122c060a0840188611f5f565b6fffffffffffffffffffffffffffffffff8616610320840152806103408401526122ec818401866120d1565b905082810361036084015261230181856121df565b838103610380909401939093525050603281527f5363686564756c6564206e657874206465762074617820706572696f64206f6660208201527f2052657461696c697374206e6574776f726b000000000000000000000000000060408201526060019695505050505050565b60006020828403121561237f57600080fd5b5051919050565b60006020828403121561239857600080fd5b815161160b8161162b565b60005b838110156123be5781810151838201526020016123a6565b50506000910152565b600081518084526123df8160208601602086016123a3565b601f017fffffffffffffffffffffffffffffffffffffffffffffffffffffffffffffffe0169290920160200192915050565b73ffffffffffffffffffffffffffffffffffffffff83168152604060208201526000825160408084015261244860808401826123c7565b905060208401516060840152809150509392505050565b83815260606020820152600061247860608301856123c7565b828103604084015261248a81856123c7565b9695505050505050565b600181815b808511156124ed57817fffffffffffffffffffffffffffffffffffffffffffffffffffffffffffffffff048211156124d3576124d3611ec9565b808516156124e057918102915b93841c9390800290612499565b509250929050565b600082612504575060016125b0565b81612511575060006125b0565b816001811461252757600281146125315761254d565b60019150506125b0565b60ff84111561254257612542611ec9565b50506001821b6125b0565b5060208310610133831016604e8410600b8410161715612570575081810a6125b0565b61257a8383612494565b807fffffffffffffffffffffffffffffffffffffffffffffffffffffffffffffffff048211156125ac576125ac611ec9565b0290505b92915050565b600061160b60ff8416836124f5565b818103818111156125b0576125b0611ec9565b60006103c089835260206126258185018b80518252602081015160208301526040810151604083015273ffffffffffffffffffffffffffffffffffffffff60608201511660608301525050565b61263260a085018a611f5f565b6fffffffffffffffffffffffffffffffff88166103208501528161034085015261265e828501886120d1565b915083820361036085015261267382876121df565b848103610380860152855180825282870193509082019060005b818110156126bf57845173ffffffffffffffffffffffffffffffffffffffff168352938301939183019160010161268d565b50508481036103a0860152601a81527f4465706c6f7965642052657461696c697374206e6574776f726b0000000000006020820152604081019c9b505050505050505050505050565b7f5072656d696e746564202400000000000000000000000000000000000000000081526000825161274081600b8501602087016123a3565b91909101600b0192915050565b86815285602082015273ffffffffffffffffffffffffffffffffffffffff8516604082015260c06060820152600061278860c08301866123c7565b93151560808301525090151560a090910152949350505050565b600060208083526080830173ffffffffffffffffffffffffffffffffffffffff85511682850152818501516040850152604085015160608086015281815180845260a0870191508483019350600092505b8083101561192857835182529284019260019290920191908401906127f3565b6000602080838503121561282657600080fd5b825167ffffffffffffffff81111561283d57600080fd5b8301601f8101851361284e57600080fd5b805161285c6118b782611852565b81815260e0918202830184019184820191908884111561287b57600080fd5b938501935b83851015610f415780858a0312156128985760008081fd5b6128a06116b8565b6128a986611c37565b81526128b6878701611c37565b8188015260408681015190820152606080870151908201526080808701516128dd8161162b565b9082015260a0868101519082015260c0808701516128fa8161162b565b9082015283529384019391850191612880565b808201808211156125b0576125b0611ec956fea2646970667358221220ece01429ec162b91e16da5246375f36c12d43665bf409dda0af00bd0ccb0771864736f6c63430008150033",
    "linkReferences": {}
  },
  "methodIdentifiers": {
    "controller()": "f77c4791",
    "currentDevTaxPeriodNumberOf(uint256)": "9f665eee",
    "deployBasicNetworkFor(address,(string,uint256),string,string,(uint256,uint256,uint256,uint256,uint256,(uint128,uint128)[],uint24),address[],address)": "0a801f47",
    "devTaxPeriodsOf(uint256)": "263950ae",
    "onERC721Received(address,address,uint256,bytes)": "150b7a02",
    "operatorPermissionIndexes(uint256)": "4d757720",
    "scheduleNextDevTaxPeriodOf(uint256)": "0310850e",
    "supportsInterface(bytes4)": "01ffc9a7"
  },
  "id": 102
}