{
  "abi": [
    {
      "inputs": [
        {
          "internalType": "contract IJBController3_1",
          "name": "_controller",
          "type": "address"
        },
        {
          "internalType": "contract IJBPayoutRedemptionPaymentTerminal3_1_1",
          "name": "_terminal",
          "type": "address"
        },
        {
          "internalType": "contract IJBGenericBuybackDelegate",
          "name": "_buybackDelegate",
          "type": "address"
        }
      ],
      "stateMutability": "nonpayable",
      "type": "constructor"
    },
    {
      "inputs": [],
      "name": "RECONFIGURATION_ALREADY_SCHEDULED",
      "type": "error"
    },
    {
      "inputs": [],
      "name": "buybackDelegate",
      "outputs": [
        {
          "internalType": "contract IJBGenericBuybackDelegate",
          "name": "",
          "type": "address"
        }
      ],
      "stateMutability": "view",
      "type": "function"
    },
    {
      "inputs": [],
      "name": "controller",
      "outputs": [
        {
          "internalType": "contract IJBController3_1",
          "name": "",
          "type": "address"
        }
      ],
      "stateMutability": "view",
      "type": "function"
    },
    {
      "inputs": [
        {
          "internalType": "address",
          "name": "_operator",
          "type": "address"
        },
        {
          "components": [
            {
              "internalType": "string",
              "name": "content",
              "type": "string"
            },
            {
              "internalType": "uint256",
              "name": "domain",
              "type": "uint256"
            }
          ],
          "internalType": "struct JBProjectMetadata",
          "name": "_projectMetadata",
          "type": "tuple"
        },
        {
          "internalType": "string",
          "name": "_name",
          "type": "string"
        },
        {
          "internalType": "string",
          "name": "_symbol",
          "type": "string"
        },
        {
          "components": [
            {
              "internalType": "uint256",
              "name": "initialIssuanceRate",
              "type": "uint256"
            },
            {
              "internalType": "uint256",
              "name": "premintTokenAmount",
              "type": "uint256"
            },
            {
              "internalType": "uint256",
              "name": "discountRate",
              "type": "uint256"
            },
            {
              "internalType": "uint256",
              "name": "cycleDurations",
              "type": "uint256"
            },
            {
              "internalType": "uint256",
              "name": "redemptionRate",
              "type": "uint256"
            },
            {
              "internalType": "uint256",
              "name": "reservedRate",
              "type": "uint256"
            },
            {
              "internalType": "uint48",
              "name": "reservedRateDuration",
              "type": "uint48"
            },
            {
              "internalType": "uint24",
              "name": "poolFee",
              "type": "uint24"
            }
          ],
          "internalType": "struct BasicRetailistJBParams",
          "name": "_data",
          "type": "tuple"
        }
      ],
      "name": "deployBasicProjectFor",
      "outputs": [
        {
          "internalType": "uint256",
          "name": "projectId",
          "type": "uint256"
        }
      ],
      "stateMutability": "nonpayable",
      "type": "function"
    },
    {
      "inputs": [
        {
          "internalType": "address",
          "name": "_operator",
          "type": "address"
        },
        {
          "internalType": "address",
          "name": "_from",
          "type": "address"
        },
        {
          "internalType": "uint256",
          "name": "_tokenId",
          "type": "uint256"
        },
        {
          "internalType": "bytes",
          "name": "_data",
          "type": "bytes"
        }
      ],
      "name": "onERC721Received",
      "outputs": [
        {
          "internalType": "bytes4",
          "name": "",
          "type": "bytes4"
        }
      ],
      "stateMutability": "view",
      "type": "function"
    },
    {
      "inputs": [
        {
          "internalType": "uint256",
          "name": "",
          "type": "uint256"
        }
      ],
      "name": "permissionIndexes",
      "outputs": [
        {
          "internalType": "uint256",
          "name": "",
          "type": "uint256"
        }
      ],
      "stateMutability": "view",
      "type": "function"
    },
    {
      "inputs": [
        {
          "internalType": "uint256",
          "name": "projectId",
          "type": "uint256"
        }
      ],
      "name": "reconfigurationStartTimestampOf",
      "outputs": [
        {
          "internalType": "uint256",
          "name": "",
          "type": "uint256"
        }
      ],
      "stateMutability": "view",
      "type": "function"
    },
    {
      "inputs": [
        {
          "internalType": "uint256",
          "name": "_projectId",
          "type": "uint256"
        }
      ],
      "name": "scheduleReconfigurationOf",
      "outputs": [],
      "stateMutability": "nonpayable",
      "type": "function"
    },
    {
      "inputs": [
        {
          "internalType": "bytes4",
          "name": "_interfaceId",
          "type": "bytes4"
        }
      ],
      "name": "supportsInterface",
      "outputs": [
        {
          "internalType": "bool",
          "name": "",
          "type": "bool"
        }
      ],
      "stateMutability": "view",
      "type": "function"
    },
    {
      "inputs": [
        {
          "internalType": "uint256",
          "name": "",
          "type": "uint256"
        }
      ],
      "name": "terminals",
      "outputs": [
        {
          "internalType": "contract IJBPaymentTerminal",
          "name": "",
          "type": "address"
        }
      ],
      "stateMutability": "view",
      "type": "function"
    }
  ],
  "bytecode": {
    "object": "0x60c06040523480156200001157600080fd5b5060405162002335380380620023358339810160408190526200003491620000eb565b6001600160a01b03928316608052821660a05260008054600180820183557f290decd9548b62a8d60345a988386fc84ba6bc95484008f6362f93160ef3e56390910180546001600160a01b0319169390941692909217909255805480820182559181905260127fb10e2d527612073b26eecdfd717e6a320cf44b4afac2b0732d9fcbe2b7fa0cf692830155805480820190915560189101556200013f565b6001600160a01b0381168114620000e857600080fd5b50565b6000806000606084860312156200010157600080fd5b83516200010e81620000d2565b60208501519093506200012181620000d2565b60408501519092506200013481620000d2565b809150509250925092565b60805160a05161217c620001b9600039600081816101fc01528181610abe01528181610af701528181610b860152610dde01526000818161022301528181610280015281816103d90152818161058c015281816108880152818161099601528181610cb701528181610f1a0152610fdc015261217c6000f3fe608060405234801561001057600080fd5b50600436106100a35760003560e01c8063560f7b03116100765780639a739a6d1161005b5780639a739a6d146101e4578063d3967525146101f7578063f77c47911461021e57600080fd5b8063560f7b03146101a35780639483e771146101d157600080fd5b806301ffc9a7146100a85780630219758e14610112578063150b7a021461014a5780633ce6d3e21461018e575b600080fd5b6100fd6100b63660046111ff565b7fffffffff00000000000000000000000000000000000000000000000000000000167f150b7a02000000000000000000000000000000000000000000000000000000001490565b60405190151581526020015b60405180910390f35b610125610120366004611248565b610245565b60405173ffffffffffffffffffffffffffffffffffffffff9091168152602001610109565b61015d6101583660046112cf565b61027c565b6040517fffffffff000000000000000000000000000000000000000000000000000000009091168152602001610109565b6101a161019c366004611248565b610390565b005b6101c36101b1366004611248565b60026020526000908152604090205481565b604051908152602001610109565b6101c36101df366004611248565b6106e1565b6101c36101f2366004611342565b610702565b6101257f000000000000000000000000000000000000000000000000000000000000000081565b6101257f000000000000000000000000000000000000000000000000000000000000000081565b6000818154811061025557600080fd5b60009182526020909120015473ffffffffffffffffffffffffffffffffffffffff16905081565b60007f000000000000000000000000000000000000000000000000000000000000000073ffffffffffffffffffffffffffffffffffffffff16638b79543c6040518163ffffffff1660e01b8152600401602060405180830381865afa1580156102e9573d6000803e3d6000fd5b505050506040513d601f19601f8201168201806040525081019061030d919061142d565b73ffffffffffffffffffffffffffffffffffffffff163373ffffffffffffffffffffffffffffffffffffffff161461034457600080fd5b73ffffffffffffffffffffffffffffffffffffffff85161561036557600080fd5b507f150b7a020000000000000000000000000000000000000000000000000000000095945050505050565b6040517f1f51045300000000000000000000000000000000000000000000000000000000815260048101829052600090819073ffffffffffffffffffffffffffffffffffffffff7f00000000000000000000000000000000000000000000000000000000000000001690631f510453906024016103c060405180830381865afa158015610421573d6000803e3d6000fd5b505050506040513d601f19601f8201168201806040525081019061044591906116f8565b5081519193509150600114610486576040517fc97554fa00000000000000000000000000000000000000000000000000000000815260040160405180910390fd5b60408051608080820183528481015182526000602080840182905260c08088015185870152606080860184905286516102a0810188526102408101858152610260820186905261028082018690528152808401859052888801518189015290810184905293840183905260a08401839052830182905260e08301829052610100830182905261012083018290526101408301829052610160830182905261018083018290526101a083018290526101c083018290526101e083018290526102008087015173ffffffffffffffffffffffffffffffffffffffff908116918501919091526102208781015190850152888352600282528583205486518481529283019096527f0000000000000000000000000000000000000000000000000000000000000000169463badbdf2894899490939092906105e7565b6040805180820190915260008152606060208201528152602001906001900390816105bf5790505b506040805160008082526020820190925290610676565b6106636040518060c00160405280600073ffffffffffffffffffffffffffffffffffffffff168152602001600073ffffffffffffffffffffffffffffffffffffffff168152602001600081526020016000815260200160008152602001600081525090565b8152602001906001900390816105fe5790505b506040518763ffffffff1660e01b815260040161069896959493929190611a96565b6020604051808303816000875af11580156106b7573d6000803e3d6000fd5b505050506040513d601f19601f820116820180604052508101906106db9190611b8a565b50505050565b600181815481106106f157600080fd5b600091825260209091200154905081565b604080516001808252818301909252600091829190816020015b60408051808201909152600081526060602082015281526020019060019003908161071c57505060408051600180825281830190925291925060009190602082015b6040805160e08101825260008082526020808301829052928201819052606082018190526080820181905260a0820181905260c082015282527fffffffffffffffffffffffffffffffffffffffffffffffffffffffffffffffff90920191018161075e5790505090506040518060e00160405280600015158152602001600015158152602001633b9aca008152602001600081526020018b73ffffffffffffffffffffffffffffffffffffffff16815260200160008152602001600073ffffffffffffffffffffffffffffffffffffffff168152508160018151811061084657610846611ba3565b6020026020010181905250604051806040016040528060028152602001828152508260008151811061087a5761087a611ba3565b6020026020010181905250507f000000000000000000000000000000000000000000000000000000000000000073ffffffffffffffffffffffffffffffffffffffff16638b79543c6040518163ffffffff1660e01b8152600401602060405180830381865afa1580156108f1573d6000803e3d6000fd5b505050506040513d601f19601f82011682018060405250810190610915919061142d565b73ffffffffffffffffffffffffffffffffffffffff1663666d87a0308a6040518363ffffffff1660e01b815260040161094f929190611c1b565b6020604051808303816000875af115801561096e573d6000803e3d6000fd5b505050506040513d601f19601f820116820180604052508101906109929190611b8a565b91507f000000000000000000000000000000000000000000000000000000000000000073ffffffffffffffffffffffffffffffffffffffff1663619306306040518163ffffffff1660e01b8152600401602060405180830381865afa1580156109ff573d6000803e3d6000fd5b505050506040513d601f19601f82011682018060405250810190610a23919061142d565b73ffffffffffffffffffffffffffffffffffffffff1663a7f2a70b83898989896040518663ffffffff1660e01b8152600401610a63959493929190611cc7565b6020604051808303816000875af1158015610a82573d6000803e3d6000fd5b505050506040513d601f19601f82011682018060405250810190610aa6919061142d565b5073ffffffffffffffffffffffffffffffffffffffff7f000000000000000000000000000000000000000000000000000000000000000016637b621d3a83610af5610100870160e08801611d00565b7f000000000000000000000000000000000000000000000000000000000000000073ffffffffffffffffffffffffffffffffffffffff166360b3042c6040518163ffffffff1660e01b8152600401602060405180830381865afa158015610b60573d6000803e3d6000fd5b505050506040513d601f19601f82011682018060405250810190610b849190611b8a565b7f000000000000000000000000000000000000000000000000000000000000000073ffffffffffffffffffffffffffffffffffffffff1663737a79966040518163ffffffff1660e01b8152600401602060405180830381865afa158015610bef573d6000803e3d6000fd5b505050506040513d601f19601f82011682018060405250810190610c139190611b8a565b6040517fffffffff0000000000000000000000000000000000000000000000000000000060e087901b168152600481019490945262ffffff909216602484015263ffffffff908116604484015216606482015261eeee608482015260a4016020604051808303816000875af1158015610c90573d6000803e3d6000fd5b505050506040513d601f19601f82011682018060405250810190610cb4919061142d565b507f000000000000000000000000000000000000000000000000000000000000000073ffffffffffffffffffffffffffffffffffffffff1663111d861b8360405180608001604052808760600135815260200160128860000135610d189190611e76565b8152604088810135602080840191909152600092820183905281516102a081018352610240810184815261026082018590526102808201859052815260a0808c0135828401526080808d013583860152606083018690528201859052810184905260c0810184905260e081018490526001610100820181905261012082018590526101408201859052610160820185905261018082018590526101a082018590526101c08201526101e0810184905273ffffffffffffffffffffffffffffffffffffffff7f00000000000000000000000000000000000000000000000000000000000000001661020082015261022081018490528251848152918201909252909190879082610e9a565b610e876040518060c00160405280600073ffffffffffffffffffffffffffffffffffffffff168152602001600073ffffffffffffffffffffffffffffffffffffffff168152602001600081526020016000815260200160008152602001600081525090565b815260200190600190039081610e225790505b5060006040518863ffffffff1660e01b8152600401610ebf9796959493929190611e85565b6020604051808303816000875af1158015610ede573d6000803e3d6000fd5b505050506040513d601f19601f82011682018060405250810190610f029190611b8a565b5073ffffffffffffffffffffffffffffffffffffffff7f000000000000000000000000000000000000000000000000000000000000000016638ae9c07b83610f4f60126020880135611e76565b8c8989604051602001610f63929190611fa6565b6040516020818303038152906040526000806040518763ffffffff1660e01b8152600401610f9696959493929190611fdf565b6020604051808303816000875af1158015610fb5573d6000803e3d6000fd5b505050506040513d601f19601f82011682018060405250810190610fd99190611b8a565b507f000000000000000000000000000000000000000000000000000000000000000073ffffffffffffffffffffffffffffffffffffffff16632bdfe0046040518163ffffffff1660e01b8152600401602060405180830381865afa158015611045573d6000803e3d6000fd5b505050506040513d601f19601f82011682018060405250810190611069919061142d565b73ffffffffffffffffffffffffffffffffffffffff1663ad007d636040518163ffffffff1660e01b8152600401602060405180830381865afa1580156110b3573d6000803e3d6000fd5b505050506040513d601f19601f820116820180604052508101906110d7919061142d565b73ffffffffffffffffffffffffffffffffffffffff1663529cdd2e60405180606001604052808c73ffffffffffffffffffffffffffffffffffffffff168152602001858152602001600180548060200260200160405190810160405280929190818152602001828054801561116b57602002820191906000526020600020905b815481526020019060010190808311611157575b50505050508152506040518263ffffffff1660e01b815260040161118f919061208f565b600060405180830381600087803b1580156111a957600080fd5b505af11580156111bd573d6000803e3d6000fd5b506111d29250505060e0840160c0850161210b565b6111e49065ffffffffffff1642612133565b60008381526002602052604090205550979650505050505050565b60006020828403121561121157600080fd5b81357fffffffff000000000000000000000000000000000000000000000000000000008116811461124157600080fd5b9392505050565b60006020828403121561125a57600080fd5b5035919050565b73ffffffffffffffffffffffffffffffffffffffff8116811461128357600080fd5b50565b60008083601f84011261129857600080fd5b50813567ffffffffffffffff8111156112b057600080fd5b6020830191508360208285010111156112c857600080fd5b9250929050565b6000806000806000608086880312156112e757600080fd5b85356112f281611261565b9450602086013561130281611261565b935060408601359250606086013567ffffffffffffffff81111561132557600080fd5b61133188828901611286565b969995985093965092949392505050565b600080600080600080600087890361018081121561135f57600080fd5b883561136a81611261565b9750602089013567ffffffffffffffff8082111561138757600080fd5b908a01906040828d03121561139b57600080fd5b90975060408a013590808211156113b157600080fd5b6113bd8c838d01611286565b909850965060608b01359150808211156113d657600080fd5b506113e38b828c01611286565b9095509350506101007fffffffffffffffffffffffffffffffffffffffffffffffffffffffffffffff808201121561141a57600080fd5b5060808801905092959891949750929550565b60006020828403121561143f57600080fd5b815161124181611261565b604051610240810167ffffffffffffffff81118282101715611495577f4e487b7100000000000000000000000000000000000000000000000000000000600052604160045260246000fd5b60405290565b604051610120810167ffffffffffffffff81118282101715611495577f4e487b7100000000000000000000000000000000000000000000000000000000600052604160045260246000fd5b80516114f181611261565b919050565b805180151581146114f157600080fd5b60006060828403121561151857600080fd5b6040516060810181811067ffffffffffffffff82111715611562577f4e487b7100000000000000000000000000000000000000000000000000000000600052604160045260246000fd5b604052905080611571836114f6565b815261157f602084016114f6565b6020820152611590604084016114f6565b60408201525092915050565b600061028082840312156115af57600080fd5b6115b761144a565b90506115c38383611506565b8152606082015160208201526080820151604082015260a082015160608201526115ef60c083016114f6565b608082015261160060e083016114f6565b60a08201526101006116138184016114f6565b60c08301526101206116268185016114f6565b60e08401526101406116398186016114f6565b83850152610160925061164d8386016114f6565b8285015261018091506116618286016114f6565b908401526101a06116738582016114f6565b838501526101c092506116878386016114f6565b828501526101e0915061169b8286016114f6565b908401526102006116ad8582016114f6565b8385015261022092506116c18386016114f6565b828501526116d261024086016114e6565b818501525050610260830151818301525092915050565b8051600381106114f157600080fd5b60008060008385036103c081121561170f57600080fd5b6101208082121561171f57600080fd5b61172761149b565b9150855182526020860151602083015260408601516040830152606086015160608301526080860151608083015260a086015160a083015260c086015160c083015261177560e087016114e6565b60e08301526101008087015181840152508194506117958782880161159c565b935050506117a66103a085016116e9565b90509250925092565b6117d48282518051151582526020808201511515908301526040908101511515910152565b6020810151606083015260408101516080830152606081015160a0830152608081015161180560c084018215159052565b5060a081015180151560e08401525060c08101516101006118298185018315159052565b60e083015191506101206118408186018415159052565b908301519150610140906118578583018415159052565b830151915061016061186c8582018415159052565b908301519150610180906118838583018415159052565b83015191506101a06118988582018415159052565b9083015191506101c0906118af8583018415159052565b83015191506101e06118c48582018415159052565b908301519150610200906118db8583018415159052565b83015191506102206118f08582018415159052565b9083015173ffffffffffffffffffffffffffffffffffffffff16610240850152909101516102609092019190915250565b600081518084526020808501808196508360051b810191508286016000805b86811015611a00578385038a52825180518652860151604087870181905281518188018190529188019160609081890190865b818110156119e95785518051151584528c81015115158d8501528581015186850152848101518585015260808082015173ffffffffffffffffffffffffffffffffffffffff9081169186019190915260a0808301519086015260c0918201511690840152948b019460e090920191600101611973565b50509c89019c975050509286019250600101611940565b509298975050505050505050565b600081518084526020808501945080840160005b83811015611a8b578151805173ffffffffffffffffffffffffffffffffffffffff908116895284820151168489015260408082015190890152606080820151908901526080808201519089015260a0908101519088015260c09096019590820190600101611a22565b509495945050505050565b60006103a0888352611ae2602084018980518252602081015160208301526040810151604083015273ffffffffffffffffffffffffffffffffffffffff60608201511660608301525050565b611aef60a08401886117af565b8561032084015280610340840152611b0981840186611921565b9050828103610360840152611b1e8185611a0e565b838103610380909401939093525050602c81527f5363686564756c656420626f6f737420657870697279206f662052657461696c60208201527f697374207472656173757279000000000000000000000000000000000000000060408201526060019695505050505050565b600060208284031215611b9c57600080fd5b5051919050565b7f4e487b7100000000000000000000000000000000000000000000000000000000600052603260045260246000fd5b8183528181602085013750600060208284010152600060207fffffffffffffffffffffffffffffffffffffffffffffffffffffffffffffffe0601f840116840101905092915050565b73ffffffffffffffffffffffffffffffffffffffff8316815260406020820152600082357fffffffffffffffffffffffffffffffffffffffffffffffffffffffffffffffe1843603018112611c6f57600080fd5b830160208101903567ffffffffffffffff811115611c8c57600080fd5b803603821315611c9b57600080fd5b604080850152611caf608085018284611bd2565b91505060208401356060840152809150509392505050565b858152606060208201526000611ce1606083018688611bd2565b8281036040840152611cf4818587611bd2565b98975050505050505050565b600060208284031215611d1257600080fd5b813562ffffff8116811461124157600080fd5b7f4e487b7100000000000000000000000000000000000000000000000000000000600052601160045260246000fd5b600181815b80851115611dad57817fffffffffffffffffffffffffffffffffffffffffffffffffffffffffffffffff04821115611d9357611d93611d25565b80851615611da057918102915b93841c9390800290611d59565b509250929050565b600082611dc457506001611e70565b81611dd157506000611e70565b8160018114611de75760028114611df157611e0d565b6001915050611e70565b60ff841115611e0257611e02611d25565b50506001821b611e70565b5060208310610133831016604e8410600b8410161715611e30575081810a611e70565b611e3a8383611d54565b807fffffffffffffffffffffffffffffffffffffffffffffffffffffffffffffffff04821115611e6c57611e6c611d25565b0290505b92915050565b600061124160ff841683611db5565b60006103c08983526020611ed28185018b80518252602081015160208301526040810151604083015273ffffffffffffffffffffffffffffffffffffffff60608201511660608301525050565b611edf60a085018a6117af565b8761032085015281610340850152611ef982850188611921565b9150838203610360850152611f0e8287611a0e565b848103610380860152855480825260008781528381209450918301915b81811015611f5d57845473ffffffffffffffffffffffffffffffffffffffff1683526001948501949284019201611f2b565b50508481036103a0860152601b81527f4465706c6f7965642052657461696c69737420747265617375727900000000006020820152604081019c9b505050505050505050505050565b7f5072656d696e746564202400000000000000000000000000000000000000000081528183600b83013760009101600b01908152919050565b86815260006020878184015273ffffffffffffffffffffffffffffffffffffffff8716604084015260c0606084015285518060c085015260005b818110156120355787810183015185820160e001528201612019565b50600060e0828601015260e07fffffffffffffffffffffffffffffffffffffffffffffffffffffffffffffffe0601f8301168501019250505061207c608083018515159052565b82151560a0830152979650505050505050565b600060208083526080830173ffffffffffffffffffffffffffffffffffffffff85511682850152818501516040850152604085015160608086015281815180845260a0870191508483019350600092505b8083101561210057835182529284019260019290920191908401906120e0565b509695505050505050565b60006020828403121561211d57600080fd5b813565ffffffffffff8116811461124157600080fd5b80820180821115611e7057611e70611d2556fea2646970667358221220e6612bcfe6c96da0b366069b3241620c77df7e2536fc8ba134e01c0d0c86285564736f6c63430008150033",
    "linkReferences": {}
  },
  "methodIdentifiers": {
    "buybackDelegate()": "d3967525",
    "controller()": "f77c4791",
    "deployBasicProjectFor(address,(string,uint256),string,string,(uint256,uint256,uint256,uint256,uint256,uint256,uint48,uint24))": "9a739a6d",
    "onERC721Received(address,address,uint256,bytes)": "150b7a02",
    "permissionIndexes(uint256)": "9483e771",
    "reconfigurationStartTimestampOf(uint256)": "560f7b03",
    "scheduleReconfigurationOf(uint256)": "3ce6d3e2",
    "supportsInterface(bytes4)": "01ffc9a7",
    "terminals(uint256)": "0219758e"
  },
  "id": 102
}