{
  "abi": [
    {
      "inputs": [
        {
          "internalType": "contract IJBController3_1",
          "name": "_controller",
          "type": "address"
        }
      ],
      "stateMutability": "nonpayable",
      "type": "constructor"
    },
    {
      "inputs": [],
      "name": "RECONFIGURATION_ALREADY_SCHEDULED",
      "type": "error"
    },
    {
      "inputs": [],
      "name": "controller",
      "outputs": [
        {
          "internalType": "contract IJBController3_1",
          "name": "",
          "type": "address"
        }
      ],
      "stateMutability": "view",
      "type": "function"
    },
    {
      "inputs": [
        {
          "internalType": "address",
          "name": "_operator",
          "type": "address"
        },
        {
          "components": [
            {
              "internalType": "string",
              "name": "content",
              "type": "string"
            },
            {
              "internalType": "uint256",
              "name": "domain",
              "type": "uint256"
            }
          ],
          "internalType": "struct JBProjectMetadata",
          "name": "_projectMetadata",
          "type": "tuple"
        },
        {
          "internalType": "string",
          "name": "_name",
          "type": "string"
        },
        {
          "internalType": "string",
          "name": "_symbol",
          "type": "string"
        },
        {
          "components": [
            {
              "internalType": "uint256",
              "name": "initialIssuanceRate",
              "type": "uint256"
            },
            {
              "internalType": "uint256",
              "name": "premintTokenAmount",
              "type": "uint256"
            },
            {
              "internalType": "uint256",
              "name": "generationTax",
              "type": "uint256"
            },
            {
              "internalType": "uint256",
              "name": "generationDuration",
              "type": "uint256"
            },
            {
              "internalType": "uint256",
              "name": "exitTaxRate",
              "type": "uint256"
            },
            {
              "internalType": "uint256",
              "name": "devTaxRate",
              "type": "uint256"
            },
            {
              "internalType": "uint48",
              "name": "devTaxDuration",
              "type": "uint48"
            },
            {
              "internalType": "uint24",
              "name": "poolFee",
              "type": "uint24"
            }
          ],
          "internalType": "struct BasicRetailistJBParams",
          "name": "_data",
          "type": "tuple"
        },
        {
          "internalType": "contract IJBPaymentTerminal[]",
          "name": "_terminals",
          "type": "address[]"
        },
        {
          "internalType": "contract IJBGenericBuybackDelegate",
          "name": "_buybackDelegate",
          "type": "address"
        }
      ],
      "name": "deployBasicProjectFor",
      "outputs": [
        {
          "internalType": "uint256",
          "name": "projectId",
          "type": "uint256"
        }
      ],
      "stateMutability": "nonpayable",
      "type": "function"
    },
    {
      "inputs": [
        {
          "internalType": "address",
          "name": "_operator",
          "type": "address"
        },
        {
          "internalType": "address",
          "name": "_from",
          "type": "address"
        },
        {
          "internalType": "uint256",
          "name": "_tokenId",
          "type": "uint256"
        },
        {
          "internalType": "bytes",
          "name": "_data",
          "type": "bytes"
        }
      ],
      "name": "onERC721Received",
      "outputs": [
        {
          "internalType": "bytes4",
          "name": "",
          "type": "bytes4"
        }
      ],
      "stateMutability": "view",
      "type": "function"
    },
    {
      "inputs": [
        {
          "internalType": "uint256",
          "name": "",
          "type": "uint256"
        }
      ],
      "name": "operatorPermissionIndexes",
      "outputs": [
        {
          "internalType": "uint256",
          "name": "",
          "type": "uint256"
        }
      ],
      "stateMutability": "view",
      "type": "function"
    },
    {
      "inputs": [
        {
          "internalType": "uint256",
          "name": "projectId",
          "type": "uint256"
        }
      ],
      "name": "reconfigurationStartTimestampOf",
      "outputs": [
        {
          "internalType": "uint256",
          "name": "",
          "type": "uint256"
        }
      ],
      "stateMutability": "view",
      "type": "function"
    },
    {
      "inputs": [
        {
          "internalType": "uint256",
          "name": "_projectId",
          "type": "uint256"
        }
      ],
      "name": "scheduleReconfigurationOf",
      "outputs": [],
      "stateMutability": "nonpayable",
      "type": "function"
    },
    {
      "inputs": [
        {
          "internalType": "bytes4",
          "name": "_interfaceId",
          "type": "bytes4"
        }
      ],
      "name": "supportsInterface",
      "outputs": [
        {
          "internalType": "bool",
          "name": "",
          "type": "bool"
        }
      ],
      "stateMutability": "view",
      "type": "function"
    }
  ],
  "bytecode": {
    "object": "0x60a060405234801561001057600080fd5b50604051620022ce380380620022ce83398101604081905261003191610084565b6001600160a01b0316608052600080546001818101835582805260127f290decd9548b62a8d60345a988386fc84ba6bc95484008f6362f93160ef3e56392830155825490810190925560189101556100b4565b60006020828403121561009657600080fd5b81516001600160a01b03811681146100ad57600080fd5b9392505050565b6080516121c6620001086000396000818161019e015281816101e901528181610342015281816104f5015281816107f1015281816108ff01528181610bb001528181610df00152610ec701526121c66000f3fe608060405234801561001057600080fd5b506004361061007d5760003560e01c80634d7577201161005b5780634d75772014610145578063560f7b0314610166578063d87b09e314610186578063f77c47911461019957600080fd5b806301ffc9a714610082578063150b7a02146100ec5780633ce6d3e214610130575b600080fd5b6100d76100903660046110de565b7fffffffff00000000000000000000000000000000000000000000000000000000167f150b7a02000000000000000000000000000000000000000000000000000000001490565b60405190151581526020015b60405180910390f35b6100ff6100fa36600461115c565b6101e5565b6040517fffffffff0000000000000000000000000000000000000000000000000000000090911681526020016100e3565b61014361013e3660046111fb565b6102f9565b005b6101586101533660046111fb565b61064a565b6040519081526020016100e3565b6101586101743660046111fb565b60016020526000908152604090205481565b610158610194366004611525565b61066b565b6101c07f000000000000000000000000000000000000000000000000000000000000000081565b60405173ffffffffffffffffffffffffffffffffffffffff90911681526020016100e3565b60007f000000000000000000000000000000000000000000000000000000000000000073ffffffffffffffffffffffffffffffffffffffff16638b79543c6040518163ffffffff1660e01b8152600401602060405180830381865afa158015610252573d6000803e3d6000fd5b505050506040513d601f19601f820116820180604052508101906102769190611608565b73ffffffffffffffffffffffffffffffffffffffff163373ffffffffffffffffffffffffffffffffffffffff16146102ad57600080fd5b73ffffffffffffffffffffffffffffffffffffffff8516156102ce57600080fd5b507f150b7a020000000000000000000000000000000000000000000000000000000095945050505050565b6040517f1f51045300000000000000000000000000000000000000000000000000000000815260048101829052600090819073ffffffffffffffffffffffffffffffffffffffff7f00000000000000000000000000000000000000000000000000000000000000001690631f510453906024016103c060405180830381865afa15801561038a573d6000803e3d6000fd5b505050506040513d601f19601f820116820180604052508101906103ae919061180b565b50815191935091506001146103ef576040517fc97554fa00000000000000000000000000000000000000000000000000000000815260040160405180910390fd5b60408051608080820183528481015182526000602080840182905260c08088015185870152606080860184905286516102a0810188526102408101858152610260820186905261028082018690528152808401859052888801518189015290810184905293840183905260a08401839052830182905260e08301829052610100830182905261012083018290526101408301829052610160830182905261018083018290526101a083018290526101c083018290526101e083018290526102008087015173ffffffffffffffffffffffffffffffffffffffff908116918501919091526102208781015190850152888352600182528583205486518481529283019096527f0000000000000000000000000000000000000000000000000000000000000000169463badbdf289489949093909290610550565b6040805180820190915260008152606060208201528152602001906001900390816105285790505b5060408051600080825260208201909252906105df565b6105cc6040518060c00160405280600073ffffffffffffffffffffffffffffffffffffffff168152602001600073ffffffffffffffffffffffffffffffffffffffff168152602001600081526020016000815260200160008152602001600081525090565b8152602001906001900390816105675790505b506040518763ffffffff1660e01b815260040161060196959493929190611ba9565b6020604051808303816000875af1158015610620573d6000803e3d6000fd5b505050506040513d601f19601f820116820180604052508101906106449190611c9d565b50505050565b6000818154811061065a57600080fd5b600091825260209091200154905081565b604080516001808252818301909252600091829190816020015b60408051808201909152600081526060602082015281526020019060019003908161068557505060408051600180825281830190925291925060009190602082015b6040805160e08101825260008082526020808301829052928201819052606082018190526080820181905260a0820181905260c082015282527fffffffffffffffffffffffffffffffffffffffffffffffffffffffffffffffff9092019101816106c75790505090506040518060e00160405280600015158152602001600015158152602001633b9aca008152602001600081526020018b73ffffffffffffffffffffffffffffffffffffffff16815260200160008152602001600073ffffffffffffffffffffffffffffffffffffffff16815250816001815181106107af576107af611cb6565b602002602001018190525060405180604001604052806002815260200182815250826000815181106107e3576107e3611cb6565b6020026020010181905250507f000000000000000000000000000000000000000000000000000000000000000073ffffffffffffffffffffffffffffffffffffffff16638b79543c6040518163ffffffff1660e01b8152600401602060405180830381865afa15801561085a573d6000803e3d6000fd5b505050506040513d601f19601f8201168201806040525081019061087e9190611608565b73ffffffffffffffffffffffffffffffffffffffff1663666d87a0308a6040518363ffffffff1660e01b81526004016108b8929190611d53565b6020604051808303816000875af11580156108d7573d6000803e3d6000fd5b505050506040513d601f19601f820116820180604052508101906108fb9190611c9d565b91507f000000000000000000000000000000000000000000000000000000000000000073ffffffffffffffffffffffffffffffffffffffff1663619306306040518163ffffffff1660e01b8152600401602060405180830381865afa158015610968573d6000803e3d6000fd5b505050506040513d601f19601f8201168201806040525081019061098c9190611608565b73ffffffffffffffffffffffffffffffffffffffff1663a7f2a70b8389896040518463ffffffff1660e01b81526004016109c893929190611da1565b6020604051808303816000875af11580156109e7573d6000803e3d6000fd5b505050506040513d601f19601f82011682018060405250810190610a0b9190611608565b508273ffffffffffffffffffffffffffffffffffffffff16637b621d3a838760e001518673ffffffffffffffffffffffffffffffffffffffff166360b3042c6040518163ffffffff1660e01b8152600401602060405180830381865afa158015610a79573d6000803e3d6000fd5b505050506040513d601f19601f82011682018060405250810190610a9d9190611c9d565b8773ffffffffffffffffffffffffffffffffffffffff1663737a79966040518163ffffffff1660e01b8152600401602060405180830381865afa158015610ae8573d6000803e3d6000fd5b505050506040513d601f19601f82011682018060405250810190610b0c9190611c9d565b6040517fffffffff0000000000000000000000000000000000000000000000000000000060e087901b168152600481019490945262ffffff909216602484015263ffffffff908116604484015216606482015261eeee608482015260a4016020604051808303816000875af1158015610b89573d6000803e3d6000fd5b505050506040513d601f19601f82011682018060405250810190610bad9190611608565b507f000000000000000000000000000000000000000000000000000000000000000073ffffffffffffffffffffffffffffffffffffffff1663111d861b8360405180608001604052808960600151815260200160128a60000151610c119190611f27565b81526040808b0151602080840191909152600092820183905281516102a0810183526102408101848152610260820185905261028082019490945292835260a08c01519083015260808b015190820190610c6d90612710611f36565b8152600060208083018290526040808401839052606084018390526080840183905260a08401839052600160c0850181905260e0850184905261010085018490526101208501849052610140850184905261016085018490526101808501526101a0840183905273ffffffffffffffffffffffffffffffffffffffff8c166101c08501526101e0909301829052825182815290810190925290879082610d86565b610d736040518060c00160405280600073ffffffffffffffffffffffffffffffffffffffff168152602001600073ffffffffffffffffffffffffffffffffffffffff168152602001600081526020016000815260200160008152602001600081525090565b815260200190600190039081610d0e5790505b508b6040518863ffffffff1660e01b8152600401610daa9796959493929190611f49565b6020604051808303816000875af1158015610dc9573d6000803e3d6000fd5b505050506040513d601f19601f82011682018060405250810190610ded9190611c9d565b507f000000000000000000000000000000000000000000000000000000000000000073ffffffffffffffffffffffffffffffffffffffff16638ae9c07b8360128860200151610e3c9190611f27565b8c8a604051602001610e4e9190612067565b6040516020818303038152906040526000806040518763ffffffff1660e01b8152600401610e81969594939291906120ac565b6020604051808303816000875af1158015610ea0573d6000803e3d6000fd5b505050506040513d601f19601f82011682018060405250810190610ec49190611c9d565b507f000000000000000000000000000000000000000000000000000000000000000073ffffffffffffffffffffffffffffffffffffffff16632bdfe0046040518163ffffffff1660e01b8152600401602060405180830381865afa158015610f30573d6000803e3d6000fd5b505050506040513d601f19601f82011682018060405250810190610f549190611608565b73ffffffffffffffffffffffffffffffffffffffff1663ad007d636040518163ffffffff1660e01b8152600401602060405180830381865afa158015610f9e573d6000803e3d6000fd5b505050506040513d601f19601f82011682018060405250810190610fc29190611608565b73ffffffffffffffffffffffffffffffffffffffff1663529cdd2e60405180606001604052808c73ffffffffffffffffffffffffffffffffffffffff168152602001858152602001600080548060200260200160405190810160405280929190818152602001828054801561105657602002820191906000526020600020905b815481526020019060010190808311611042575b50505050508152506040518263ffffffff1660e01b815260040161107a9190612101565b600060405180830381600087803b15801561109457600080fd5b505af11580156110a8573d6000803e3d6000fd5b50505060c08601516110c3915065ffffffffffff164261217d565b60008381526001602052604090205550979650505050505050565b6000602082840312156110f057600080fd5b81357fffffffff000000000000000000000000000000000000000000000000000000008116811461112057600080fd5b9392505050565b73ffffffffffffffffffffffffffffffffffffffff8116811461114957600080fd5b50565b803561115781611127565b919050565b60008060008060006080868803121561117457600080fd5b853561117f81611127565b9450602086013561118f81611127565b935060408601359250606086013567ffffffffffffffff808211156111b357600080fd5b818801915088601f8301126111c757600080fd5b8135818111156111d657600080fd5b8960208285010111156111e857600080fd5b9699959850939650602001949392505050565b60006020828403121561120d57600080fd5b5035919050565b7f4e487b7100000000000000000000000000000000000000000000000000000000600052604160045260246000fd5b604051610100810167ffffffffffffffff8111828210171561126757611267611214565b60405290565b604051610240810167ffffffffffffffff8111828210171561126757611267611214565b604051610120810167ffffffffffffffff8111828210171561126757611267611214565b604051601f82017fffffffffffffffffffffffffffffffffffffffffffffffffffffffffffffffe016810167ffffffffffffffff811182821017156112fc576112fc611214565b604052919050565b600082601f83011261131557600080fd5b813567ffffffffffffffff81111561132f5761132f611214565b61136060207fffffffffffffffffffffffffffffffffffffffffffffffffffffffffffffffe0601f840116016112b5565b81815284602083860101111561137557600080fd5b816020850160208301376000918101602001919091529392505050565b6000604082840312156113a457600080fd5b6040516040810167ffffffffffffffff82821081831117156113c8576113c8611214565b8160405282935084359150808211156113e057600080fd5b506113ed85828601611304565b825250602083013560208201525092915050565b803562ffffff8116811461115757600080fd5b6000610100828403121561142757600080fd5b61142f611243565b9050813581526020820135602082015260408201356040820152606082013560608201526080820135608082015260a082013560a082015260c082013565ffffffffffff8116811461148057600080fd5b60c082015261149160e08301611401565b60e082015292915050565b600082601f8301126114ad57600080fd5b8135602067ffffffffffffffff8211156114c9576114c9611214565b8160051b6114d88282016112b5565b92835284810182019282810190878511156114f257600080fd5b83870192505b8483101561151a57823561150b81611127565b825291830191908301906114f8565b979650505050505050565b60008060008060008060006101c0888a03121561154157600080fd5b61154a8861114c565b9650602088013567ffffffffffffffff8082111561156757600080fd5b6115738b838c01611392565b975060408a013591508082111561158957600080fd5b6115958b838c01611304565b965060608a01359150808211156115ab57600080fd5b6115b78b838c01611304565b95506115c68b60808c01611414565b94506101808a01359150808211156115dd57600080fd5b506115ea8a828b0161149c565b9250506115fa6101a0890161114c565b905092959891949750929550565b60006020828403121561161a57600080fd5b815161112081611127565b805161115781611127565b8051801515811461115757600080fd5b60006060828403121561165257600080fd5b6040516060810181811067ffffffffffffffff8211171561167557611675611214565b60405290508061168483611630565b815261169260208401611630565b60208201526116a360408401611630565b60408201525092915050565b600061028082840312156116c257600080fd5b6116ca61126d565b90506116d68383611640565b8152606082015160208201526080820151604082015260a0820151606082015261170260c08301611630565b608082015261171360e08301611630565b60a0820152610100611726818401611630565b60c0830152610120611739818501611630565b60e084015261014061174c818601611630565b838501526101609250611760838601611630565b828501526101809150611774828601611630565b908401526101a0611786858201611630565b838501526101c0925061179a838601611630565b828501526101e091506117ae828601611630565b908401526102006117c0858201611630565b8385015261022092506117d4838601611630565b828501526117e56102408601611625565b818501525050610260830151818301525092915050565b80516003811061115757600080fd5b60008060008385036103c081121561182257600080fd5b6101208082121561183257600080fd5b61183a611291565b9150855182526020860151602083015260408601516040830152606086015160608301526080860151608083015260a086015160a083015260c086015160c083015261188860e08701611625565b60e08301526101008087015181840152508194506118a8878288016116af565b935050506118b96103a085016117fc565b90509250925092565b6118e78282518051151582526020808201511515908301526040908101511515910152565b6020810151606083015260408101516080830152606081015160a0830152608081015161191860c084018215159052565b5060a081015180151560e08401525060c081015161010061193c8185018315159052565b60e083015191506101206119538186018415159052565b9083015191506101409061196a8583018415159052565b830151915061016061197f8582018415159052565b908301519150610180906119968583018415159052565b83015191506101a06119ab8582018415159052565b9083015191506101c0906119c28583018415159052565b83015191506101e06119d78582018415159052565b908301519150610200906119ee8583018415159052565b8301519150610220611a038582018415159052565b9083015173ffffffffffffffffffffffffffffffffffffffff16610240850152909101516102609092019190915250565b600081518084526020808501808196508360051b810191508286016000805b86811015611b13578385038a52825180518652860151604087870181905281518188018190529188019160609081890190865b81811015611afc5785518051151584528c81015115158d8501528581015186850152848101518585015260808082015173ffffffffffffffffffffffffffffffffffffffff9081169186019190915260a0808301519086015260c0918201511690840152948b019460e090920191600101611a86565b50509c89019c975050509286019250600101611a53565b509298975050505050505050565b600081518084526020808501945080840160005b83811015611b9e578151805173ffffffffffffffffffffffffffffffffffffffff908116895284820151168489015260408082015190890152606080820151908901526080808201519089015260a0908101519088015260c09096019590820190600101611b35565b509495945050505050565b60006103a0888352611bf5602084018980518252602081015160208301526040810151604083015273ffffffffffffffffffffffffffffffffffffffff60608201511660608301525050565b611c0260a08401886118c2565b8561032084015280610340840152611c1c81840186611a34565b9050828103610360840152611c318185611b21565b838103610380909401939093525050602c81527f5363686564756c656420626f6f737420657870697279206f662052657461696c60208201527f697374207472656173757279000000000000000000000000000000000000000060408201526060019695505050505050565b600060208284031215611caf57600080fd5b5051919050565b7f4e487b7100000000000000000000000000000000000000000000000000000000600052603260045260246000fd5b60005b83811015611d00578181015183820152602001611ce8565b50506000910152565b60008151808452611d21816020860160208601611ce5565b601f017fffffffffffffffffffffffffffffffffffffffffffffffffffffffffffffffe0169290920160200192915050565b73ffffffffffffffffffffffffffffffffffffffff831681526040602082015260008251604080840152611d8a6080840182611d09565b905060208401516060840152809150509392505050565b838152606060208201526000611dba6060830185611d09565b8281036040840152611dcc8185611d09565b9695505050505050565b7f4e487b7100000000000000000000000000000000000000000000000000000000600052601160045260246000fd5b600181815b80851115611e5e57817fffffffffffffffffffffffffffffffffffffffffffffffffffffffffffffffff04821115611e4457611e44611dd6565b80851615611e5157918102915b93841c9390800290611e0a565b509250929050565b600082611e7557506001611f21565b81611e8257506000611f21565b8160018114611e985760028114611ea257611ebe565b6001915050611f21565b60ff841115611eb357611eb3611dd6565b50506001821b611f21565b5060208310610133831016604e8410600b8410161715611ee1575081810a611f21565b611eeb8383611e05565b807fffffffffffffffffffffffffffffffffffffffffffffffffffffffffffffffff04821115611f1d57611f1d611dd6565b0290505b92915050565b600061112060ff841683611e66565b81810381811115611f2157611f21611dd6565b60006103c08983526020611f968185018b80518252602081015160208301526040810151604083015273ffffffffffffffffffffffffffffffffffffffff60608201511660608301525050565b611fa360a085018a6118c2565b8761032085015281610340850152611fbd82850188611a34565b9150838203610360850152611fd28287611b21565b848103610380860152855180825282870193509082019060005b8181101561201e57845173ffffffffffffffffffffffffffffffffffffffff1683529383019391830191600101611fec565b50508481036103a0860152601b81527f4465706c6f7965642052657461696c69737420747265617375727900000000006020820152604081019c9b505050505050505050505050565b7f5072656d696e746564202400000000000000000000000000000000000000000081526000825161209f81600b850160208701611ce5565b91909101600b0192915050565b86815285602082015273ffffffffffffffffffffffffffffffffffffffff8516604082015260c0606082015260006120e760c0830186611d09565b93151560808301525090151560a090910152949350505050565b600060208083526080830173ffffffffffffffffffffffffffffffffffffffff85511682850152818501516040850152604085015160608086015281815180845260a0870191508483019350600092505b808310156121725783518252928401926001929092019190840190612152565b509695505050505050565b80820180821115611f2157611f21611dd656fea26469706673582212205f5bd7a036a9f094a061a3cada366a023a22b91e5b4aed73d9c8b5a5f3bfc94f64736f6c63430008150033",
    "linkReferences": {}
  },
  "methodIdentifiers": {
    "controller()": "f77c4791",
    "deployBasicProjectFor(address,(string,uint256),string,string,(uint256,uint256,uint256,uint256,uint256,uint256,uint48,uint24),address[],address)": "d87b09e3",
    "onERC721Received(address,address,uint256,bytes)": "150b7a02",
    "operatorPermissionIndexes(uint256)": "4d757720",
    "reconfigurationStartTimestampOf(uint256)": "560f7b03",
    "scheduleReconfigurationOf(uint256)": "3ce6d3e2",
    "supportsInterface(bytes4)": "01ffc9a7"
  },
  "id": 102
}