{
  "abi": [
    {
      "inputs": [
        {
          "internalType": "contract IJBController3_1",
          "name": "_controller",
          "type": "address"
        }
      ],
      "stateMutability": "nonpayable",
      "type": "constructor"
    },
    {
      "inputs": [],
      "name": "BAD_DEV_TAX_SEQUENCE",
      "type": "error"
    },
    {
      "inputs": [],
      "name": "RECONFIGURATION_ALREADY_SCHEDULED",
      "type": "error"
    },
    {
      "inputs": [],
      "name": "RECONFIGURATION_NOT_POSSIBLE",
      "type": "error"
    },
    {
      "inputs": [],
      "name": "controller",
      "outputs": [
        {
          "internalType": "contract IJBController3_1",
          "name": "",
          "type": "address"
        }
      ],
      "stateMutability": "view",
      "type": "function"
    },
    {
      "inputs": [
        {
          "internalType": "uint256",
          "name": "_networkId",
          "type": "uint256"
        }
      ],
      "name": "currentDevTaxPeriodNumberOf",
      "outputs": [
        {
          "internalType": "uint256",
          "name": "",
          "type": "uint256"
        }
      ],
      "stateMutability": "view",
      "type": "function"
    },
    {
      "inputs": [
        {
          "internalType": "address",
          "name": "_operator",
          "type": "address"
        },
        {
          "components": [
            {
              "internalType": "string",
              "name": "content",
              "type": "string"
            },
            {
              "internalType": "uint256",
              "name": "domain",
              "type": "uint256"
            }
          ],
          "internalType": "struct JBProjectMetadata",
          "name": "_networkMetadata",
          "type": "tuple"
        },
        {
          "internalType": "string",
          "name": "_name",
          "type": "string"
        },
        {
          "internalType": "string",
          "name": "_symbol",
          "type": "string"
        },
        {
          "components": [
            {
              "internalType": "uint256",
              "name": "initialIssuanceRate",
              "type": "uint256"
            },
            {
              "internalType": "uint256",
              "name": "premintTokenAmount",
              "type": "uint256"
            },
            {
              "internalType": "uint256",
              "name": "generationTax",
              "type": "uint256"
            },
            {
              "internalType": "uint256",
              "name": "generationDuration",
              "type": "uint256"
            },
            {
              "internalType": "uint256",
              "name": "exitTaxRate",
              "type": "uint256"
            },
            {
              "components": [
                {
                  "internalType": "uint128",
                  "name": "rate",
                  "type": "uint128"
                },
                {
                  "internalType": "uint128",
                  "name": "startsAtOrAfter",
                  "type": "uint128"
                }
              ],
              "internalType": "struct DevTaxPeriod[]",
              "name": "devTaxPeriods",
              "type": "tuple[]"
            }
          ],
          "internalType": "struct BasicRetailistJBParams",
          "name": "_data",
          "type": "tuple"
        },
        {
          "internalType": "contract IJBPaymentTerminal[]",
          "name": "_terminals",
          "type": "address[]"
        },
        {
          "components": [
            {
              "internalType": "contract IJBGenericBuybackDelegate",
              "name": "delegate",
              "type": "address"
            },
            {
              "components": [
                {
                  "internalType": "address",
                  "name": "token",
                  "type": "address"
                },
                {
                  "internalType": "uint24",
                  "name": "fee",
                  "type": "uint24"
                },
                {
                  "internalType": "uint32",
                  "name": "secondsAgo",
                  "type": "uint32"
                },
                {
                  "internalType": "uint32",
                  "name": "delta",
                  "type": "uint32"
                }
              ],
              "internalType": "struct BuybackDelegatePool[]",
              "name": "pools",
              "type": "tuple[]"
            }
          ],
          "internalType": "struct BuybackDelegateSetup",
          "name": "_buybackDelegateSetup",
          "type": "tuple"
        }
      ],
      "name": "deployBasicNetworkFor",
      "outputs": [
        {
          "internalType": "uint256",
          "name": "networkId",
          "type": "uint256"
        }
      ],
      "stateMutability": "nonpayable",
      "type": "function"
    },
    {
      "inputs": [
        {
          "internalType": "uint256",
          "name": "_networkId",
          "type": "uint256"
        }
      ],
      "name": "devTaxPeriodsOf",
      "outputs": [
        {
          "components": [
            {
              "internalType": "uint128",
              "name": "rate",
              "type": "uint128"
            },
            {
              "internalType": "uint128",
              "name": "startsAtOrAfter",
              "type": "uint128"
            }
          ],
          "internalType": "struct DevTaxPeriod[]",
          "name": "",
          "type": "tuple[]"
        }
      ],
      "stateMutability": "view",
      "type": "function"
    },
    {
      "inputs": [
        {
          "internalType": "address",
          "name": "_operator",
          "type": "address"
        },
        {
          "internalType": "address",
          "name": "_from",
          "type": "address"
        },
        {
          "internalType": "uint256",
          "name": "_tokenId",
          "type": "uint256"
        },
        {
          "internalType": "bytes",
          "name": "_data",
          "type": "bytes"
        }
      ],
      "name": "onERC721Received",
      "outputs": [
        {
          "internalType": "bytes4",
          "name": "",
          "type": "bytes4"
        }
      ],
      "stateMutability": "view",
      "type": "function"
    },
    {
      "inputs": [
        {
          "internalType": "uint256",
          "name": "",
          "type": "uint256"
        }
      ],
      "name": "operatorPermissionIndexes",
      "outputs": [
        {
          "internalType": "uint256",
          "name": "",
          "type": "uint256"
        }
      ],
      "stateMutability": "view",
      "type": "function"
    },
    {
      "inputs": [
        {
          "internalType": "uint256",
          "name": "_networkId",
          "type": "uint256"
        }
      ],
      "name": "scheduleNextDevTaxPeriodOf",
      "outputs": [],
      "stateMutability": "nonpayable",
      "type": "function"
    },
    {
      "inputs": [
        {
          "internalType": "bytes4",
          "name": "_interfaceId",
          "type": "bytes4"
        }
      ],
      "name": "supportsInterface",
      "outputs": [
        {
          "internalType": "bool",
          "name": "",
          "type": "bool"
        }
      ],
      "stateMutability": "view",
      "type": "function"
    }
  ],
  "bytecode": {
    "object": "0x60a06040523480156200001157600080fd5b5060405162002b3a38038062002b3a833981016040819052620000349162000088565b6001600160a01b0316608052600180548082018255600082905260127fb10e2d527612073b26eecdfd717e6a320cf44b4afac2b0732d9fcbe2b7fa0cf69182015581548083019092556018910155620000ba565b6000602082840312156200009b57600080fd5b81516001600160a01b0381168114620000b357600080fd5b9392505050565b608051612a2562000115600039600081816101c901528181610259015281816104b6015281816105ed0152818161070d0152818161081b0152818161093401528181610bf001528181610cc70152610fc70152612a256000f3fe608060405234801561001057600080fd5b50600436106100885760003560e01c8063263950ae1161005b578063263950ae146101715780634d757720146101915780639f665eee146101a4578063f77c4791146101c457600080fd5b806301ffc9a71461008d5780630310850e146100f7578063150b7a021461010c578063256b837014610150575b600080fd5b6100e261009b366004611564565b7fffffffff00000000000000000000000000000000000000000000000000000000167f150b7a02000000000000000000000000000000000000000000000000000000001490565b60405190151581526020015b60405180910390f35b61010a6101053660046115ad565b610210565b005b61011f61011a3660046115fb565b6105e9565b6040517fffffffff0000000000000000000000000000000000000000000000000000000090911681526020016100ee565b61016361015e366004611bb0565b6106fd565b6040519081526020016100ee565b61018461017f3660046115ad565b610ecb565b6040516100ee9190611cb7565b61016361019f3660046115ad565b610f61565b6101636101b23660046115ad565b60026020526000908152604090205481565b6101eb7f000000000000000000000000000000000000000000000000000000000000000081565b60405173ffffffffffffffffffffffffffffffffffffffff90911681526020016100ee565b6040517f1f51045300000000000000000000000000000000000000000000000000000000815260048101829052600090819073ffffffffffffffffffffffffffffffffffffffff7f00000000000000000000000000000000000000000000000000000000000000001690631f510453906024016103c060405180830381865afa1580156102a1573d6000803e3d6000fd5b505050506040513d601f19601f820116820180604052508101906102c59190611f02565b50600085815260026020526040812080549395509193509182906102e890611fe8565b918290555060008581526020819052604090205490915080158061030b57508082145b8061031a575042846060015110155b15610351576040517fc97554fa00000000000000000000000000000000000000000000000000000000815260040160405180910390fd5b600085815260208190526040812080548490811061037157610371612020565b6000918252602080832060408051808201825293909101546fffffffffffffffffffffffffffffffff808216855270010000000000000000000000000000000090910481168484019081528251608080820185528c810151825281860188905260c0808e01518387015260608084018a905286516102a08101885261024081018b815261026082018c905261028082018c905281528951909616868901528d87015196860196909652948401889052830187905260a0830187905292820186905260e08201869052610100820186905261012082018690526101408201869052610160820186905261018082018690526101a082018690526101c082018690526101e0820195909552610200808a015173ffffffffffffffffffffffffffffffffffffffff908116918301919091526102208a810151908301529451928a01519395507f00000000000000000000000000000000000000000000000000000000000000009094169363badbdf28938b93906104ed908590610f82565b604080516000808252602082019092529061057b565b6105686040518060c00160405280600073ffffffffffffffffffffffffffffffffffffffff168152602001600073ffffffffffffffffffffffffffffffffffffffff168152602001600081526020016000815260200160008152602001600081525090565b8152602001906001900390816105035790505b506040518763ffffffff1660e01b815260040161059d96959493929190612336565b6020604051808303816000875af11580156105bc573d6000803e3d6000fd5b505050506040513d601f19601f820116820180604052508101906105e0919061243c565b50505050505050565b60007f000000000000000000000000000000000000000000000000000000000000000073ffffffffffffffffffffffffffffffffffffffff16638b79543c6040518163ffffffff1660e01b8152600401602060405180830381865afa158015610656573d6000803e3d6000fd5b505050506040513d601f19601f8201168201806040525081019061067a9190612455565b73ffffffffffffffffffffffffffffffffffffffff163373ffffffffffffffffffffffffffffffffffffffff16146106b157600080fd5b73ffffffffffffffffffffffffffffffffffffffff8516156106d257600080fd5b507f150b7a020000000000000000000000000000000000000000000000000000000095945050505050565b60008061070989611152565b90507f000000000000000000000000000000000000000000000000000000000000000073ffffffffffffffffffffffffffffffffffffffff16638b79543c6040518163ffffffff1660e01b8152600401602060405180830381865afa158015610776573d6000803e3d6000fd5b505050506040513d601f19601f8201168201806040525081019061079a9190612455565b73ffffffffffffffffffffffffffffffffffffffff1663666d87a0308a6040518363ffffffff1660e01b81526004016107d49291906124e0565b6020604051808303816000875af11580156107f3573d6000803e3d6000fd5b505050506040513d601f19601f82011682018060405250810190610817919061243c565b91507f000000000000000000000000000000000000000000000000000000000000000073ffffffffffffffffffffffffffffffffffffffff1663619306306040518163ffffffff1660e01b8152600401602060405180830381865afa158015610884573d6000803e3d6000fd5b505050506040513d601f19601f820116820180604052508101906108a89190612455565b73ffffffffffffffffffffffffffffffffffffffff1663a7f2a70b8389896040518463ffffffff1660e01b81526004016108e49392919061252e565b6020604051808303816000875af1158015610903573d6000803e3d6000fd5b505050506040513d601f19601f820116820180604052508101906109279190612455565b5061093282846112d8565b7f000000000000000000000000000000000000000000000000000000000000000073ffffffffffffffffffffffffffffffffffffffff1663111d861b8360405180608001604052808960600151815260200160128a600001516109959190612685565b81526040808b0151602080840191909152600092820183905281516102a081019092526102408201838152610260830184905261028083019390935291815260a08b015151909182019015610a0c578a60a001516000815181106109fb576109fb612020565b602002602001015160000151610a0f565b60005b6fffffffffffffffffffffffffffffffff1681526020018a60800151612710610a389190612694565b815260006020820181905260408201819052606082018190526080820181905260a0808301829052600160c0840181905260e0840183905261010084018390526101208401839052610140840183905261016084018390526101808401526101a083018290528a5173ffffffffffffffffffffffffffffffffffffffff166101c08401526101e0909201528a01515115610af4578960a00151600081518110610ae357610ae3612020565b602002602001015160200151610af7565b60005b604080516000808252602082019092528891610b86565b610b736040518060c00160405280600073ffffffffffffffffffffffffffffffffffffffff168152602001600073ffffffffffffffffffffffffffffffffffffffff168152602001600081526020016000815260200160008152602001600081525090565b815260200190600190039081610b0e5790505b508b6040518863ffffffff1660e01b8152600401610baa97969594939291906126a7565b6020604051808303816000875af1158015610bc9573d6000803e3d6000fd5b505050506040513d601f19601f82011682018060405250810190610bed919061243c565b507f000000000000000000000000000000000000000000000000000000000000000073ffffffffffffffffffffffffffffffffffffffff16638ae9c07b8360128860200151610c3c9190612685565b8c8a604051602001610c4e91906127d7565b6040516020818303038152906040526000806040518763ffffffff1660e01b8152600401610c819695949392919061281c565b6020604051808303816000875af1158015610ca0573d6000803e3d6000fd5b505050506040513d601f19601f82011682018060405250810190610cc4919061243c565b507f000000000000000000000000000000000000000000000000000000000000000073ffffffffffffffffffffffffffffffffffffffff16632bdfe0046040518163ffffffff1660e01b8152600401602060405180830381865afa158015610d30573d6000803e3d6000fd5b505050506040513d601f19601f82011682018060405250810190610d549190612455565b73ffffffffffffffffffffffffffffffffffffffff1663ad007d636040518163ffffffff1660e01b8152600401602060405180830381865afa158015610d9e573d6000803e3d6000fd5b505050506040513d601f19601f82011682018060405250810190610dc29190612455565b73ffffffffffffffffffffffffffffffffffffffff1663529cdd2e60405180606001604052808c73ffffffffffffffffffffffffffffffffffffffff1681526020018581526020016001805480602002602001604051908101604052809291908181526020018280548015610e5657602002820191906000526020600020905b815481526020019060010190808311610e42575b50505050508152506040518263ffffffff1660e01b8152600401610e7a9190612871565b600060405180830381600087803b158015610e9457600080fd5b505af1158015610ea8573d6000803e3d6000fd5b50505050610ebf828660a00151876060015161140b565b50979650505050505050565b600081815260208181526040808320805482518185028101850190935280835260609492939192909184015b82821015610f5657600084815260209081902060408051808201909152908401546fffffffffffffffffffffffffffffffff80821683527001000000000000000000000000000000009091041681830152825260019092019101610ef7565b505050509050919050565b60018181548110610f7157600080fd5b600091825260209091200154905081565b604080516001808252818301909252606091816020015b604080518082019091526000815260606020820152815260200190600190039081610f9957905050905060007f000000000000000000000000000000000000000000000000000000000000000073ffffffffffffffffffffffffffffffffffffffff16632bdfe0046040518163ffffffff1660e01b8152600401602060405180830381865afa158015611030573d6000803e3d6000fd5b505050506040513d601f19601f820116820180604052508101906110549190612455565b6040517f69e11cc500000000000000000000000000000000000000000000000000000000815260048101869052602481018590526002604482015273ffffffffffffffffffffffffffffffffffffffff91909116906369e11cc590606401600060405180830381865afa1580156110cf573d6000803e3d6000fd5b505050506040513d6000823e601f3d9081017fffffffffffffffffffffffffffffffffffffffffffffffffffffffffffffffe016820160405261111591908101906128e2565b9050604051806040016040528060028152602001828152508260008151811061114057611140612020565b60200260200101819052505092915050565b604080516001808252818301909252606091816020015b60408051808201909152600081526060602082015281526020019060019003908161116957505060408051600180825281830190925291925060009190602082015b6040805160e08101825260008082526020808301829052928201819052606082018190526080820181905260a0820181905260c082015282527fffffffffffffffffffffffffffffffffffffffffffffffffffffffffffffffff9092019101816111ab5790505090506040518060e00160405280600015158152602001600015158152602001633b9aca008152602001600081526020018473ffffffffffffffffffffffffffffffffffffffff16815260200160008152602001600073ffffffffffffffffffffffffffffffffffffffff168152508160018151811061129357611293612020565b602002602001018190525060405180604001604052806002815260200182815250826000815181106112c7576112c7612020565b602002602001018190525050919050565b602081810151516040805160808101825260008082529381018490529081018390526060810183905290915b82811015611404578360200151818151811061132257611322612020565b6020908102919091018101518551918101516040808301516060840151845192517f7b621d3a000000000000000000000000000000000000000000000000000000008152600481018c905262ffffff909416602485015263ffffffff918216604485015216606483015273ffffffffffffffffffffffffffffffffffffffff9081166084830152919450911690637b621d3a9060a4016020604051808303816000875af11580156113d7573d6000803e3d6000fd5b505050506040513d601f19601f820116820180604052508101906113fb9190612455565b50600101611304565b5050505050565b8151801561155e5760005b818110156114045780158015906114a057508284611435600184612694565b8151811061144557611445612020565b6020026020010151602001516fffffffffffffffffffffffffffffffff1661146d91906129dc565b84828151811061147f5761147f612020565b6020026020010151602001516fffffffffffffffffffffffffffffffff1611155b156114d7576040517fc5c2978500000000000000000000000000000000000000000000000000000000815260040160405180910390fd5b8381815181106114e9576114e9612020565b6020026020010151600080878152602001908152602001600020828154811061151457611514612020565b6000918252602091829020835193909201516fffffffffffffffffffffffffffffffff90811670010000000000000000000000000000000002931692909217910155600101611416565b50505050565b60006020828403121561157657600080fd5b81357fffffffff00000000000000000000000000000000000000000000000000000000811681146115a657600080fd5b9392505050565b6000602082840312156115bf57600080fd5b5035919050565b73ffffffffffffffffffffffffffffffffffffffff811681146115e857600080fd5b50565b80356115f6816115c6565b919050565b60008060008060006080868803121561161357600080fd5b853561161e816115c6565b9450602086013561162e816115c6565b935060408601359250606086013567ffffffffffffffff8082111561165257600080fd5b818801915088601f83011261166657600080fd5b81358181111561167557600080fd5b89602082850101111561168757600080fd5b9699959850939650602001949392505050565b7f4e487b7100000000000000000000000000000000000000000000000000000000600052604160045260246000fd5b6040805190810167ffffffffffffffff811182821017156116ec576116ec61169a565b60405290565b60405160c0810167ffffffffffffffff811182821017156116ec576116ec61169a565b6040516080810167ffffffffffffffff811182821017156116ec576116ec61169a565b604051610240810167ffffffffffffffff811182821017156116ec576116ec61169a565b604051610120810167ffffffffffffffff811182821017156116ec576116ec61169a565b60405160e0810167ffffffffffffffff811182821017156116ec576116ec61169a565b604051601f82017fffffffffffffffffffffffffffffffffffffffffffffffffffffffffffffffe016810167ffffffffffffffff811182821017156117ea576117ea61169a565b604052919050565b600082601f83011261180357600080fd5b813567ffffffffffffffff81111561181d5761181d61169a565b61184e60207fffffffffffffffffffffffffffffffffffffffffffffffffffffffffffffffe0601f840116016117a3565b81815284602083860101111561186357600080fd5b816020850160208301376000918101602001919091529392505050565b60006040828403121561189257600080fd5b61189a6116c9565b9050813567ffffffffffffffff8111156118b357600080fd5b6118bf848285016117f2565b8252506020820135602082015292915050565b600067ffffffffffffffff8211156118ec576118ec61169a565b5060051b60200190565b80356fffffffffffffffffffffffffffffffff811681146115f657600080fd5b600060c0828403121561192857600080fd5b6119306116f2565b9050813581526020808301358183015260408084013581840152606084013560608401526080840135608084015260a084013567ffffffffffffffff81111561197857600080fd5b8401601f8101861361198957600080fd5b803561199c611997826118d2565b6117a3565b81815260069190911b820184019084810190888311156119bb57600080fd5b928501925b82841015611a095784848a0312156119d85760008081fd5b6119e06116c9565b6119e9856118f6565b81526119f68786016118f6565b81880152825292840192908501906119c0565b60a087015250939695505050505050565b600082601f830112611a2b57600080fd5b81356020611a3b611997836118d2565b82815260059290921b84018101918181019086841115611a5a57600080fd5b8286015b84811015611a7e578035611a71816115c6565b8352918301918301611a5e565b509695505050505050565b803563ffffffff811681146115f657600080fd5b60006040808385031215611ab057600080fd5b611ab86116c9565b91508235611ac5816115c6565b825260208381013567ffffffffffffffff811115611ae257600080fd5b8401601f81018613611af357600080fd5b8035611b01611997826118d2565b81815260079190911b82018301908381019088831115611b2057600080fd5b928401925b82841015611b9f576080848a031215611b3e5760008081fd5b611b46611715565b8435611b51816115c6565b81528486013562ffffff81168114611b695760008081fd5b81870152611b78858801611a89565b878201526060611b89818701611a89565b9082015282526080939093019290840190611b25565b808588015250505050505092915050565b600080600080600080600060e0888a031215611bcb57600080fd5b611bd4886115eb565b9650602088013567ffffffffffffffff80821115611bf157600080fd5b611bfd8b838c01611880565b975060408a0135915080821115611c1357600080fd5b611c1f8b838c016117f2565b965060608a0135915080821115611c3557600080fd5b611c418b838c016117f2565b955060808a0135915080821115611c5757600080fd5b611c638b838c01611916565b945060a08a0135915080821115611c7957600080fd5b611c858b838c01611a1a565b935060c08a0135915080821115611c9b57600080fd5b50611ca88a828b01611a9d565b91505092959891949750929550565b602080825282518282018190526000919060409081850190868401855b82811015611d0f57815180516fffffffffffffffffffffffffffffffff90811686529087015116868501529284019290850190600101611cd4565b5091979650505050505050565b80516115f6816115c6565b805180151581146115f657600080fd5b600060608284031215611d4957600080fd5b6040516060810181811067ffffffffffffffff82111715611d6c57611d6c61169a565b604052905080611d7b83611d27565b8152611d8960208401611d27565b6020820152611d9a60408401611d27565b60408201525092915050565b60006102808284031215611db957600080fd5b611dc1611738565b9050611dcd8383611d37565b8152606082015160208201526080820151604082015260a08201516060820152611df960c08301611d27565b6080820152611e0a60e08301611d27565b60a0820152610100611e1d818401611d27565b60c0830152610120611e30818501611d27565b60e0840152610140611e43818601611d27565b838501526101609250611e57838601611d27565b828501526101809150611e6b828601611d27565b908401526101a0611e7d858201611d27565b838501526101c09250611e91838601611d27565b828501526101e09150611ea5828601611d27565b90840152610200611eb7858201611d27565b838501526102209250611ecb838601611d27565b82850152611edc6102408601611d1c565b818501525050610260830151818301525092915050565b8051600381106115f657600080fd5b60008060008385036103c0811215611f1957600080fd5b61012080821215611f2957600080fd5b611f3161175c565b9150855182526020860151602083015260408601516040830152606086015160608301526080860151608083015260a086015160a083015260c086015160c0830152611f7f60e08701611d1c565b60e0830152610100808701518184015250819450611f9f87828801611da6565b93505050611fb06103a08501611ef3565b90509250925092565b7f4e487b7100000000000000000000000000000000000000000000000000000000600052601160045260246000fd5b60007fffffffffffffffffffffffffffffffffffffffffffffffffffffffffffffffff820361201957612019611fb9565b5060010190565b7f4e487b7100000000000000000000000000000000000000000000000000000000600052603260045260246000fd5b6120748282518051151582526020808201511515908301526040908101511515910152565b6020810151606083015260408101516080830152606081015160a083015260808101516120a560c084018215159052565b5060a081015180151560e08401525060c08101516101006120c98185018315159052565b60e083015191506101206120e08186018415159052565b908301519150610140906120f78583018415159052565b830151915061016061210c8582018415159052565b908301519150610180906121238583018415159052565b83015191506101a06121388582018415159052565b9083015191506101c09061214f8583018415159052565b83015191506101e06121648582018415159052565b9083015191506102009061217b8583018415159052565b83015191506102206121908582018415159052565b9083015173ffffffffffffffffffffffffffffffffffffffff16610240850152909101516102609092019190915250565b600081518084526020808501808196508360051b810191508286016000805b868110156122a0578385038a52825180518652860151604087870181905281518188018190529188019160609081890190865b818110156122895785518051151584528c81015115158d8501528581015186850152848101518585015260808082015173ffffffffffffffffffffffffffffffffffffffff9081169186019190915260a0808301519086015260c0918201511690840152948b019460e090920191600101612213565b50509c89019c9750505092860192506001016121e0565b509298975050505050505050565b600081518084526020808501945080840160005b8381101561232b578151805173ffffffffffffffffffffffffffffffffffffffff908116895284820151168489015260408082015190890152606080820151908901526080808201519089015260a0908101519088015260c090960195908201906001016122c2565b509495945050505050565b60006103a0888352612382602084018980518252602081015160208301526040810151604083015273ffffffffffffffffffffffffffffffffffffffff60608201511660608301525050565b61238f60a084018861204f565b6fffffffffffffffffffffffffffffffff8616610320840152806103408401526123bb818401866121c1565b90508281036103608401526123d081856122ae565b838103610380909401939093525050603281527f5363686564756c6564206e657874206465762074617820706572696f64206f6660208201527f2052657461696c697374206e6574776f726b000000000000000000000000000060408201526060019695505050505050565b60006020828403121561244e57600080fd5b5051919050565b60006020828403121561246757600080fd5b81516115a6816115c6565b60005b8381101561248d578181015183820152602001612475565b50506000910152565b600081518084526124ae816020860160208601612472565b601f017fffffffffffffffffffffffffffffffffffffffffffffffffffffffffffffffe0169290920160200192915050565b73ffffffffffffffffffffffffffffffffffffffff8316815260406020820152600082516040808401526125176080840182612496565b905060208401516060840152809150509392505050565b8381526060602082015260006125476060830185612496565b82810360408401526125598185612496565b9695505050505050565b600181815b808511156125bc57817fffffffffffffffffffffffffffffffffffffffffffffffffffffffffffffffff048211156125a2576125a2611fb9565b808516156125af57918102915b93841c9390800290612568565b509250929050565b6000826125d35750600161267f565b816125e05750600061267f565b81600181146125f657600281146126005761261c565b600191505061267f565b60ff84111561261157612611611fb9565b50506001821b61267f565b5060208310610133831016604e8410600b841016171561263f575081810a61267f565b6126498383612563565b807fffffffffffffffffffffffffffffffffffffffffffffffffffffffffffffffff0482111561267b5761267b611fb9565b0290505b92915050565b60006115a660ff8416836125c4565b8181038181111561267f5761267f611fb9565b60006103c089835260206126f48185018b80518252602081015160208301526040810151604083015273ffffffffffffffffffffffffffffffffffffffff60608201511660608301525050565b61270160a085018a61204f565b6fffffffffffffffffffffffffffffffff88166103208501528161034085015261272d828501886121c1565b915083820361036085015261274282876122ae565b848103610380860152855180825282870193509082019060005b8181101561278e57845173ffffffffffffffffffffffffffffffffffffffff168352938301939183019160010161275c565b50508481036103a0860152601a81527f4465706c6f7965642052657461696c697374206e6574776f726b0000000000006020820152604081019c9b505050505050505050505050565b7f5072656d696e746564202400000000000000000000000000000000000000000081526000825161280f81600b850160208701612472565b91909101600b0192915050565b86815285602082015273ffffffffffffffffffffffffffffffffffffffff8516604082015260c06060820152600061285760c0830186612496565b93151560808301525090151560a090910152949350505050565b600060208083526080830173ffffffffffffffffffffffffffffffffffffffff85511682850152818501516040850152604085015160608086015281815180845260a0870191508483019350600092505b80831015611a7e57835182529284019260019290920191908401906128c2565b600060208083850312156128f557600080fd5b825167ffffffffffffffff81111561290c57600080fd5b8301601f8101851361291d57600080fd5b805161292b611997826118d2565b81815260e0918202830184019184820191908884111561294a57600080fd5b938501935b83851015610ebf5780858a0312156129675760008081fd5b61296f611780565b61297886611d27565b8152612985878701611d27565b8188015260408681015190820152606080870151908201526080808701516129ac816115c6565b9082015260a0868101519082015260c0808701516129c9816115c6565b908201528352938401939185019161294f565b8082018082111561267f5761267f611fb956fea2646970667358221220165ceb4c8e8b733bc5e96a123977a61895f679cc3e3608ef7095585a9ca4879064736f6c63430008150033",
    "linkReferences": {}
  },
  "methodIdentifiers": {
    "controller()": "f77c4791",
    "currentDevTaxPeriodNumberOf(uint256)": "9f665eee",
    "deployBasicNetworkFor(address,(string,uint256),string,string,(uint256,uint256,uint256,uint256,uint256,(uint128,uint128)[]),address[],(address,(address,uint24,uint32,uint32)[]))": "256b8370",
    "devTaxPeriodsOf(uint256)": "263950ae",
    "onERC721Received(address,address,uint256,bytes)": "150b7a02",
    "operatorPermissionIndexes(uint256)": "4d757720",
    "scheduleNextDevTaxPeriodOf(uint256)": "0310850e",
    "supportsInterface(bytes4)": "01ffc9a7"
  },
  "id": 111
}