{
  "abi": [
    {
      "inputs": [
        {
          "internalType": "contract IJBController3_1",
          "name": "_controller",
          "type": "address"
        },
        {
          "internalType": "contract IJBGenericBuybackDelegate",
          "name": "_buybackDelegate",
          "type": "address"
        }
      ],
      "stateMutability": "nonpayable",
      "type": "constructor"
    },
    {
      "inputs": [],
      "name": "RECONFIGURATION_ALREADY_SCHEDULED",
      "type": "error"
    },
    {
      "inputs": [],
      "name": "buybackDelegate",
      "outputs": [
        {
          "internalType": "contract IJBGenericBuybackDelegate",
          "name": "",
          "type": "address"
        }
      ],
      "stateMutability": "view",
      "type": "function"
    },
    {
      "inputs": [],
      "name": "controller",
      "outputs": [
        {
          "internalType": "contract IJBController3_1",
          "name": "",
          "type": "address"
        }
      ],
      "stateMutability": "view",
      "type": "function"
    },
    {
      "inputs": [
        {
          "internalType": "address",
          "name": "_operator",
          "type": "address"
        },
        {
          "components": [
            {
              "internalType": "string",
              "name": "content",
              "type": "string"
            },
            {
              "internalType": "uint256",
              "name": "domain",
              "type": "uint256"
            }
          ],
          "internalType": "struct JBProjectMetadata",
          "name": "_projectMetadata",
          "type": "tuple"
        },
        {
          "internalType": "string",
          "name": "_name",
          "type": "string"
        },
        {
          "internalType": "string",
          "name": "_symbol",
          "type": "string"
        },
        {
          "components": [
            {
              "internalType": "uint256",
              "name": "initialIssuanceRate",
              "type": "uint256"
            },
            {
              "internalType": "uint256",
              "name": "premintTokenAmount",
              "type": "uint256"
            },
            {
              "internalType": "uint256",
              "name": "discountRate",
              "type": "uint256"
            },
            {
              "internalType": "uint256",
              "name": "cycleDurations",
              "type": "uint256"
            },
            {
              "internalType": "uint256",
              "name": "redemptionRate",
              "type": "uint256"
            },
            {
              "internalType": "uint256",
              "name": "reservedRate",
              "type": "uint256"
            },
            {
              "internalType": "uint48",
              "name": "reservedRateDuration",
              "type": "uint48"
            },
            {
              "internalType": "uint24",
              "name": "poolFee",
              "type": "uint24"
            }
          ],
          "internalType": "struct BasicRetailistJBParams",
          "name": "_data",
          "type": "tuple"
        },
        {
          "internalType": "contract IJBPaymentTerminal[]",
          "name": "_terminals",
          "type": "address[]"
        }
      ],
      "name": "deployBasicProjectFor",
      "outputs": [
        {
          "internalType": "uint256",
          "name": "projectId",
          "type": "uint256"
        }
      ],
      "stateMutability": "nonpayable",
      "type": "function"
    },
    {
      "inputs": [
        {
          "internalType": "address",
          "name": "_operator",
          "type": "address"
        },
        {
          "internalType": "address",
          "name": "_from",
          "type": "address"
        },
        {
          "internalType": "uint256",
          "name": "_tokenId",
          "type": "uint256"
        },
        {
          "internalType": "bytes",
          "name": "_data",
          "type": "bytes"
        }
      ],
      "name": "onERC721Received",
      "outputs": [
        {
          "internalType": "bytes4",
          "name": "",
          "type": "bytes4"
        }
      ],
      "stateMutability": "view",
      "type": "function"
    },
    {
      "inputs": [
        {
          "internalType": "uint256",
          "name": "",
          "type": "uint256"
        }
      ],
      "name": "permissionIndexes",
      "outputs": [
        {
          "internalType": "uint256",
          "name": "",
          "type": "uint256"
        }
      ],
      "stateMutability": "view",
      "type": "function"
    },
    {
      "inputs": [
        {
          "internalType": "uint256",
          "name": "projectId",
          "type": "uint256"
        }
      ],
      "name": "reconfigurationStartTimestampOf",
      "outputs": [
        {
          "internalType": "uint256",
          "name": "",
          "type": "uint256"
        }
      ],
      "stateMutability": "view",
      "type": "function"
    },
    {
      "inputs": [
        {
          "internalType": "uint256",
          "name": "_projectId",
          "type": "uint256"
        }
      ],
      "name": "scheduleReconfigurationOf",
      "outputs": [],
      "stateMutability": "nonpayable",
      "type": "function"
    },
    {
      "inputs": [
        {
          "internalType": "bytes4",
          "name": "_interfaceId",
          "type": "bytes4"
        }
      ],
      "name": "supportsInterface",
      "outputs": [
        {
          "internalType": "bool",
          "name": "",
          "type": "bool"
        }
      ],
      "stateMutability": "view",
      "type": "function"
    }
  ],
  "bytecode": {
    "object": "0x60c06040523480156200001157600080fd5b5060405162002314380380620023148339810160408190526200003491620000a7565b6001600160a01b039182166080521660a052600080546001818101835582805260127f290decd9548b62a8d60345a988386fc84ba6bc95484008f6362f93160ef3e5639283015582549081019092556018910155620000e6565b6001600160a01b0381168114620000a457600080fd5b50565b60008060408385031215620000bb57600080fd5b8251620000c8816200008e565b6020840151909250620000db816200008e565b809150509250929050565b60805160a0516121b462000160600039600081816101a9015281816106e701528181610720015281816107af0152610a070152600081816101f50152818161021b015281816104b1015281816105bf015281816108e001528181610b4201528181610c0401528181610e71015261102401526121b46000f3fe608060405234801561001057600080fd5b50600436106100885760003560e01c8063560f7b031161005b578063560f7b03146101715780639483e77114610191578063d3967525146101a4578063f77c4791146101f057600080fd5b806301ffc9a71461008d578063150b7a02146100f7578063179d2ada1461013b5780633ce6d3e21461015c575b600080fd5b6100e261009b36600461119a565b7fffffffff00000000000000000000000000000000000000000000000000000000167f150b7a02000000000000000000000000000000000000000000000000000000001490565b60405190151581526020015b60405180910390f35b61010a610105366004611261565b610217565b6040517fffffffff0000000000000000000000000000000000000000000000000000000090911681526020016100ee565b61014e61014936600461143e565b61032b565b6040519081526020016100ee565b61016f61016a36600461151d565b610e28565b005b61014e61017f36600461151d565b60016020526000908152604090205481565b61014e61019f36600461151d565b611179565b6101cb7f000000000000000000000000000000000000000000000000000000000000000081565b60405173ffffffffffffffffffffffffffffffffffffffff90911681526020016100ee565b6101cb7f000000000000000000000000000000000000000000000000000000000000000081565b60007f000000000000000000000000000000000000000000000000000000000000000073ffffffffffffffffffffffffffffffffffffffff16638b79543c6040518163ffffffff1660e01b8152600401602060405180830381865afa158015610284573d6000803e3d6000fd5b505050506040513d601f19601f820116820180604052508101906102a89190611536565b73ffffffffffffffffffffffffffffffffffffffff163373ffffffffffffffffffffffffffffffffffffffff16146102df57600080fd5b73ffffffffffffffffffffffffffffffffffffffff85161561030057600080fd5b507f150b7a020000000000000000000000000000000000000000000000000000000095945050505050565b604080516001808252818301909252600091829190816020015b60408051808201909152600081526060602082015281526020019060019003908161034557505060408051600180825281830190925291925060009190602082015b6040805160e08101825260008082526020808301829052928201819052606082018190526080820181905260a0820181905260c082015282527fffffffffffffffffffffffffffffffffffffffffffffffffffffffffffffffff9092019101816103875790505090506040518060e00160405280600015158152602001600015158152602001633b9aca008152602001600081526020018c73ffffffffffffffffffffffffffffffffffffffff16815260200160008152602001600073ffffffffffffffffffffffffffffffffffffffff168152508160018151811061046f5761046f611553565b602002602001018190525060405180604001604052806002815260200182815250826000815181106104a3576104a3611553565b6020026020010181905250507f000000000000000000000000000000000000000000000000000000000000000073ffffffffffffffffffffffffffffffffffffffff16638b79543c6040518163ffffffff1660e01b8152600401602060405180830381865afa15801561051a573d6000803e3d6000fd5b505050506040513d601f19601f8201168201806040525081019061053e9190611536565b73ffffffffffffffffffffffffffffffffffffffff1663666d87a0308b6040518363ffffffff1660e01b81526004016105789291906115cb565b6020604051808303816000875af1158015610597573d6000803e3d6000fd5b505050506040513d601f19601f820116820180604052508101906105bb9190611677565b91507f000000000000000000000000000000000000000000000000000000000000000073ffffffffffffffffffffffffffffffffffffffff1663619306306040518163ffffffff1660e01b8152600401602060405180830381865afa158015610628573d6000803e3d6000fd5b505050506040513d601f19601f8201168201806040525081019061064c9190611536565b73ffffffffffffffffffffffffffffffffffffffff1663a7f2a70b838a8a8a8a6040518663ffffffff1660e01b815260040161068c959493929190611690565b6020604051808303816000875af11580156106ab573d6000803e3d6000fd5b505050506040513d601f19601f820116820180604052508101906106cf9190611536565b5073ffffffffffffffffffffffffffffffffffffffff7f000000000000000000000000000000000000000000000000000000000000000016637b621d3a8361071e610100880160e089016116c9565b7f000000000000000000000000000000000000000000000000000000000000000073ffffffffffffffffffffffffffffffffffffffff166360b3042c6040518163ffffffff1660e01b8152600401602060405180830381865afa158015610789573d6000803e3d6000fd5b505050506040513d601f19601f820116820180604052508101906107ad9190611677565b7f000000000000000000000000000000000000000000000000000000000000000073ffffffffffffffffffffffffffffffffffffffff1663737a79966040518163ffffffff1660e01b8152600401602060405180830381865afa158015610818573d6000803e3d6000fd5b505050506040513d601f19601f8201168201806040525081019061083c9190611677565b6040517fffffffff0000000000000000000000000000000000000000000000000000000060e087901b168152600481019490945262ffffff909216602484015263ffffffff908116604484015216606482015261eeee608482015260a4016020604051808303816000875af11580156108b9573d6000803e3d6000fd5b505050506040513d601f19601f820116820180604052508101906108dd9190611536565b507f000000000000000000000000000000000000000000000000000000000000000073ffffffffffffffffffffffffffffffffffffffff1663111d861b8360405180608001604052808860600135815260200160128960000135610941919061183f565b8152604089810135602080840191909152600092820183905281516102a081018352610240810184815261026082018590526102808201859052815260a0808d0135828401526080808e013583860152606083018690528201859052810184905260c0810184905260e081018490526001610100820181905261012082018590526101408201859052610160820185905261018082018590526101a082018590526101c08201526101e0810184905273ffffffffffffffffffffffffffffffffffffffff7f00000000000000000000000000000000000000000000000000000000000000001661020082015261022081018490528251848152918201909252909190879082610ac3565b610ab06040518060c00160405280600073ffffffffffffffffffffffffffffffffffffffff168152602001600073ffffffffffffffffffffffffffffffffffffffff168152602001600081526020016000815260200160008152602001600081525090565b815260200190600190039081610a4b5790505b508a6040518863ffffffff1660e01b8152600401610ae79796959493929190611b35565b6020604051808303816000875af1158015610b06573d6000803e3d6000fd5b505050506040513d601f19601f82011682018060405250810190610b2a9190611677565b5073ffffffffffffffffffffffffffffffffffffffff7f000000000000000000000000000000000000000000000000000000000000000016638ae9c07b83610b776012602089013561183f565b8d8a8a604051602001610b8b929190611c53565b6040516020818303038152906040526000806040518763ffffffff1660e01b8152600401610bbe96959493929190611c8c565b6020604051808303816000875af1158015610bdd573d6000803e3d6000fd5b505050506040513d601f19601f82011682018060405250810190610c019190611677565b507f000000000000000000000000000000000000000000000000000000000000000073ffffffffffffffffffffffffffffffffffffffff16632bdfe0046040518163ffffffff1660e01b8152600401602060405180830381865afa158015610c6d573d6000803e3d6000fd5b505050506040513d601f19601f82011682018060405250810190610c919190611536565b73ffffffffffffffffffffffffffffffffffffffff1663ad007d636040518163ffffffff1660e01b8152600401602060405180830381865afa158015610cdb573d6000803e3d6000fd5b505050506040513d601f19601f82011682018060405250810190610cff9190611536565b73ffffffffffffffffffffffffffffffffffffffff1663529cdd2e60405180606001604052808d73ffffffffffffffffffffffffffffffffffffffff1681526020018581526020016000805480602002602001604051908101604052809291908181526020018280548015610d9357602002820191906000526020600020905b815481526020019060010190808311610d7f575b50505050508152506040518263ffffffff1660e01b8152600401610db79190611d36565b600060405180830381600087803b158015610dd157600080fd5b505af1158015610de5573d6000803e3d6000fd5b50610dfa9250505060e0850160c08601611db2565b610e0c9065ffffffffffff1642611dda565b6000838152600160205260409020555098975050505050505050565b6040517f1f51045300000000000000000000000000000000000000000000000000000000815260048101829052600090819073ffffffffffffffffffffffffffffffffffffffff7f00000000000000000000000000000000000000000000000000000000000000001690631f510453906024016103c060405180830381865afa158015610eb9573d6000803e3d6000fd5b505050506040513d601f19601f82011682018060405250810190610edd9190611fd3565b5081519193509150600114610f1e576040517fc97554fa00000000000000000000000000000000000000000000000000000000815260040160405180910390fd5b60408051608080820183528481015182526000602080840182905260c08088015185870152606080860184905286516102a0810188526102408101858152610260820186905261028082018690528152808401859052888801518189015290810184905293840183905260a08401839052830182905260e08301829052610100830182905261012083018290526101408301829052610160830182905261018083018290526101a083018290526101c083018290526101e083018290526102008087015173ffffffffffffffffffffffffffffffffffffffff908116918501919091526102208781015190850152888352600182528583205486518481529283019096527f0000000000000000000000000000000000000000000000000000000000000000169463badbdf28948994909390929061107f565b6040805180820190915260008152606060208201528152602001906001900390816110575790505b50604080516000808252602082019092529061110e565b6110fb6040518060c00160405280600073ffffffffffffffffffffffffffffffffffffffff168152602001600073ffffffffffffffffffffffffffffffffffffffff168152602001600081526020016000815260200160008152602001600081525090565b8152602001906001900390816110965790505b506040518763ffffffff1660e01b81526004016111309695949392919061208a565b6020604051808303816000875af115801561114f573d6000803e3d6000fd5b505050506040513d601f19601f820116820180604052508101906111739190611677565b50505050565b6000818154811061118957600080fd5b600091825260209091200154905081565b6000602082840312156111ac57600080fd5b81357fffffffff00000000000000000000000000000000000000000000000000000000811681146111dc57600080fd5b9392505050565b73ffffffffffffffffffffffffffffffffffffffff8116811461120557600080fd5b50565b8035611213816111e3565b919050565b60008083601f84011261122a57600080fd5b50813567ffffffffffffffff81111561124257600080fd5b60208301915083602082850101111561125a57600080fd5b9250929050565b60008060008060006080868803121561127957600080fd5b8535611284816111e3565b94506020860135611294816111e3565b935060408601359250606086013567ffffffffffffffff8111156112b757600080fd5b6112c388828901611218565b969995985093965092949392505050565b6000604082840312156112e657600080fd5b50919050565b600061010082840312156112e657600080fd5b7f4e487b7100000000000000000000000000000000000000000000000000000000600052604160045260246000fd5b604051610240810167ffffffffffffffff81118282101715611352576113526112ff565b60405290565b604051610120810167ffffffffffffffff81118282101715611352576113526112ff565b600082601f83011261138d57600080fd5b8135602067ffffffffffffffff808311156113aa576113aa6112ff565b8260051b6040517fffffffffffffffffffffffffffffffffffffffffffffffffffffffffffffffe0603f830116810181811084821117156113ed576113ed6112ff565b60405293845285810183019383810192508785111561140b57600080fd5b83870191505b84821015611433578135611424816111e3565b83529183019190830190611411565b979650505050505050565b6000806000806000806000806101a0898b03121561145b57600080fd5b61146489611208565b9750602089013567ffffffffffffffff8082111561148157600080fd5b61148d8c838d016112d4565b985060408b01359150808211156114a357600080fd5b6114af8c838d01611218565b909850965060608b01359150808211156114c857600080fd5b6114d48c838d01611218565b90965094508491506114e98c60808d016112ec565b93506101808b013591508082111561150057600080fd5b5061150d8b828c0161137c565b9150509295985092959890939650565b60006020828403121561152f57600080fd5b5035919050565b60006020828403121561154857600080fd5b81516111dc816111e3565b7f4e487b7100000000000000000000000000000000000000000000000000000000600052603260045260246000fd5b8183528181602085013750600060208284010152600060207fffffffffffffffffffffffffffffffffffffffffffffffffffffffffffffffe0601f840116840101905092915050565b73ffffffffffffffffffffffffffffffffffffffff8316815260406020820152600082357fffffffffffffffffffffffffffffffffffffffffffffffffffffffffffffffe184360301811261161f57600080fd5b830160208101903567ffffffffffffffff81111561163c57600080fd5b80360382131561164b57600080fd5b60408085015261165f608085018284611582565b91505060208401356060840152809150509392505050565b60006020828403121561168957600080fd5b5051919050565b8581526060602082015260006116aa606083018688611582565b82810360408401526116bd818587611582565b98975050505050505050565b6000602082840312156116db57600080fd5b813562ffffff811681146111dc57600080fd5b7f4e487b7100000000000000000000000000000000000000000000000000000000600052601160045260246000fd5b600181815b8085111561177657817fffffffffffffffffffffffffffffffffffffffffffffffffffffffffffffffff0482111561175c5761175c6116ee565b8085161561176957918102915b93841c9390800290611722565b509250929050565b60008261178d57506001611839565b8161179a57506000611839565b81600181146117b057600281146117ba576117d6565b6001915050611839565b60ff8411156117cb576117cb6116ee565b50506001821b611839565b5060208310610133831016604e8410600b84101617156117f9575081810a611839565b611803838361171d565b807fffffffffffffffffffffffffffffffffffffffffffffffffffffffffffffffff04821115611835576118356116ee565b0290505b92915050565b60006111dc60ff84168361177e565b6118738282518051151582526020808201511515908301526040908101511515910152565b6020810151606083015260408101516080830152606081015160a083015260808101516118a460c084018215159052565b5060a081015180151560e08401525060c08101516101006118c88185018315159052565b60e083015191506101206118df8186018415159052565b908301519150610140906118f68583018415159052565b830151915061016061190b8582018415159052565b908301519150610180906119228583018415159052565b83015191506101a06119378582018415159052565b9083015191506101c09061194e8583018415159052565b83015191506101e06119638582018415159052565b9083015191506102009061197a8583018415159052565b830151915061022061198f8582018415159052565b9083015173ffffffffffffffffffffffffffffffffffffffff16610240850152909101516102609092019190915250565b600081518084526020808501808196508360051b810191508286016000805b86811015611a9f578385038a52825180518652860151604087870181905281518188018190529188019160609081890190865b81811015611a885785518051151584528c81015115158d8501528581015186850152848101518585015260808082015173ffffffffffffffffffffffffffffffffffffffff9081169186019190915260a0808301519086015260c0918201511690840152948b019460e090920191600101611a12565b50509c89019c9750505092860192506001016119df565b509298975050505050505050565b600081518084526020808501945080840160005b83811015611b2a578151805173ffffffffffffffffffffffffffffffffffffffff908116895284820151168489015260408082015190890152606080820151908901526080808201519089015260a0908101519088015260c09096019590820190600101611ac1565b509495945050505050565b60006103c08983526020611b828185018b80518252602081015160208301526040810151604083015273ffffffffffffffffffffffffffffffffffffffff60608201511660608301525050565b611b8f60a085018a61184e565b8761032085015281610340850152611ba9828501886119c0565b9150838203610360850152611bbe8287611aad565b848103610380860152855180825282870193509082019060005b81811015611c0a57845173ffffffffffffffffffffffffffffffffffffffff1683529383019391830191600101611bd8565b50508481036103a0860152601b81527f4465706c6f7965642052657461696c69737420747265617375727900000000006020820152604081019c9b505050505050505050505050565b7f5072656d696e746564202400000000000000000000000000000000000000000081528183600b83013760009101600b01908152919050565b86815260006020878184015273ffffffffffffffffffffffffffffffffffffffff8716604084015260c0606084015285518060c085015260005b81811015611ce25787810183015185820160e001528201611cc6565b50600060e0828601015260e07fffffffffffffffffffffffffffffffffffffffffffffffffffffffffffffffe0601f83011685010192505050611d29608083018515159052565b82151560a0830152611433565b600060208083526080830173ffffffffffffffffffffffffffffffffffffffff85511682850152818501516040850152604085015160608086015281815180845260a0870191508483019350600092505b80831015611da75783518252928401926001929092019190840190611d87565b509695505050505050565b600060208284031215611dc457600080fd5b813565ffffffffffff811681146111dc57600080fd5b80820180821115611839576118396116ee565b8051611213816111e3565b8051801515811461121357600080fd5b600060608284031215611e1a57600080fd5b6040516060810181811067ffffffffffffffff82111715611e3d57611e3d6112ff565b604052905080611e4c83611df8565b8152611e5a60208401611df8565b6020820152611e6b60408401611df8565b60408201525092915050565b60006102808284031215611e8a57600080fd5b611e9261132e565b9050611e9e8383611e08565b8152606082015160208201526080820151604082015260a08201516060820152611eca60c08301611df8565b6080820152611edb60e08301611df8565b60a0820152610100611eee818401611df8565b60c0830152610120611f01818501611df8565b60e0840152610140611f14818601611df8565b838501526101609250611f28838601611df8565b828501526101809150611f3c828601611df8565b908401526101a0611f4e858201611df8565b838501526101c09250611f62838601611df8565b828501526101e09150611f76828601611df8565b90840152610200611f88858201611df8565b838501526102209250611f9c838601611df8565b82850152611fad6102408601611ded565b818501525050610260830151818301525092915050565b80516003811061121357600080fd5b60008060008385036103c0811215611fea57600080fd5b61012080821215611ffa57600080fd5b612002611358565b9150855182526020860151602083015260408601516040830152606086015160608301526080860151608083015260a086015160a083015260c086015160c083015261205060e08701611ded565b60e083015261010080870151818401525081945061207087828801611e77565b935050506120816103a08501611fc4565b90509250925092565b60006103a08883526120d6602084018980518252602081015160208301526040810151604083015273ffffffffffffffffffffffffffffffffffffffff60608201511660608301525050565b6120e360a084018861184e565b85610320840152806103408401526120fd818401866119c0565b90508281036103608401526121128185611aad565b838103610380909401939093525050602c81527f5363686564756c656420626f6f737420657870697279206f662052657461696c60208201527f69737420747265617375727900000000000000000000000000000000000000006040820152606001969550505050505056fea26469706673582212202c2858eed8c4b7264a7143b5e7e24498f34ed27e670edde7b85f3c83f0aa65f364736f6c63430008150033",
    "linkReferences": {}
  },
  "methodIdentifiers": {
    "buybackDelegate()": "d3967525",
    "controller()": "f77c4791",
    "deployBasicProjectFor(address,(string,uint256),string,string,(uint256,uint256,uint256,uint256,uint256,uint256,uint48,uint24),address[])": "179d2ada",
    "onERC721Received(address,address,uint256,bytes)": "150b7a02",
    "permissionIndexes(uint256)": "9483e771",
    "reconfigurationStartTimestampOf(uint256)": "560f7b03",
    "scheduleReconfigurationOf(uint256)": "3ce6d3e2",
    "supportsInterface(bytes4)": "01ffc9a7"
  },
  "id": 102
}