{
  "abi": [
    {
      "inputs": [
        {
          "internalType": "contract IJBController3_1",
          "name": "_controller",
          "type": "address"
        },
        {
          "internalType": "contract IJBPayoutRedemptionPaymentTerminal3_1_1",
          "name": "_terminal",
          "type": "address"
        }
      ],
      "stateMutability": "nonpayable",
      "type": "constructor"
    },
    {
      "inputs": [],
      "name": "RECONFIGURATION_ALREADY_SCHEDULED",
      "type": "error"
    },
    {
      "inputs": [],
      "name": "controller",
      "outputs": [
        {
          "internalType": "contract IJBController3_1",
          "name": "",
          "type": "address"
        }
      ],
      "stateMutability": "view",
      "type": "function"
    },
    {
      "inputs": [
        {
          "internalType": "address",
          "name": "_operator",
          "type": "address"
        },
        {
          "components": [
            {
              "internalType": "string",
              "name": "content",
              "type": "string"
            },
            {
              "internalType": "uint256",
              "name": "domain",
              "type": "uint256"
            }
          ],
          "internalType": "struct JBProjectMetadata",
          "name": "_projectMetadata",
          "type": "tuple"
        },
        {
          "internalType": "string",
          "name": "_name",
          "type": "string"
        },
        {
          "internalType": "string",
          "name": "_symbol",
          "type": "string"
        },
        {
          "components": [
            {
              "internalType": "uint256",
              "name": "initialIssuanceRate",
              "type": "uint256"
            },
            {
              "internalType": "uint256",
              "name": "premintTokenAmount",
              "type": "uint256"
            },
            {
              "internalType": "uint256",
              "name": "discountRate",
              "type": "uint256"
            },
            {
              "internalType": "uint256",
              "name": "discountPeriod",
              "type": "uint256"
            },
            {
              "internalType": "uint256",
              "name": "redemptionRate",
              "type": "uint256"
            },
            {
              "internalType": "uint256",
              "name": "reservedRate",
              "type": "uint256"
            },
            {
              "internalType": "uint48",
              "name": "reservedRateDuration",
              "type": "uint48"
            }
          ],
          "internalType": "struct BasicRetailistJBParams",
          "name": "_data",
          "type": "tuple"
        }
      ],
      "name": "deployProjectFor",
      "outputs": [
        {
          "internalType": "uint256",
          "name": "projectId",
          "type": "uint256"
        }
      ],
      "stateMutability": "nonpayable",
      "type": "function"
    },
    {
      "inputs": [
        {
          "internalType": "address",
          "name": "_operator",
          "type": "address"
        },
        {
          "internalType": "address",
          "name": "_from",
          "type": "address"
        },
        {
          "internalType": "uint256",
          "name": "_tokenId",
          "type": "uint256"
        },
        {
          "internalType": "bytes",
          "name": "_data",
          "type": "bytes"
        }
      ],
      "name": "onERC721Received",
      "outputs": [
        {
          "internalType": "bytes4",
          "name": "",
          "type": "bytes4"
        }
      ],
      "stateMutability": "view",
      "type": "function"
    },
    {
      "inputs": [
        {
          "internalType": "uint256",
          "name": "",
          "type": "uint256"
        }
      ],
      "name": "permissionIndexes",
      "outputs": [
        {
          "internalType": "uint256",
          "name": "",
          "type": "uint256"
        }
      ],
      "stateMutability": "view",
      "type": "function"
    },
    {
      "inputs": [
        {
          "internalType": "uint256",
          "name": "projectId",
          "type": "uint256"
        }
      ],
      "name": "reconfigurationStartTimestampOf",
      "outputs": [
        {
          "internalType": "uint256",
          "name": "",
          "type": "uint256"
        }
      ],
      "stateMutability": "view",
      "type": "function"
    },
    {
      "inputs": [
        {
          "internalType": "uint256",
          "name": "_projectId",
          "type": "uint256"
        }
      ],
      "name": "scheduleReconfigurationOf",
      "outputs": [],
      "stateMutability": "nonpayable",
      "type": "function"
    },
    {
      "inputs": [
        {
          "internalType": "bytes4",
          "name": "_interfaceId",
          "type": "bytes4"
        }
      ],
      "name": "supportsInterface",
      "outputs": [
        {
          "internalType": "bool",
          "name": "",
          "type": "bool"
        }
      ],
      "stateMutability": "view",
      "type": "function"
    },
    {
      "inputs": [
        {
          "internalType": "uint256",
          "name": "",
          "type": "uint256"
        }
      ],
      "name": "terminals",
      "outputs": [
        {
          "internalType": "contract IJBPaymentTerminal",
          "name": "",
          "type": "address"
        }
      ],
      "stateMutability": "view",
      "type": "function"
    }
  ],
  "bytecode": {
    "object": "0x60a06040523480156200001157600080fd5b506040516200207c3803806200207c8339810160408190526200003491620000d7565b6001600160a01b0391821660805260008054600180820183557f290decd9548b62a8d60345a988386fc84ba6bc95484008f6362f93160ef3e56390910180546001600160a01b031916939094169290921790925580548082018255915260127fb10e2d527612073b26eecdfd717e6a320cf44b4afac2b0732d9fcbe2b7fa0cf69091015562000116565b6001600160a01b0381168114620000d457600080fd5b50565b60008060408385031215620000eb57600080fd5b8251620000f881620000be565b60208401519092506200010b81620000be565b809150509250929050565b608051611f126200016a600039600081816101e10152818161023e015281816103970152818161054a015281816108250152818161093501528181610a4b01528181610c8e0152610d500152611f126000f3fe608060405234801561001057600080fd5b50600436106100885760003560e01c8063560f7b031161005b578063560f7b031461018857806379925560146101b65780639483e771146101c9578063f77c4791146101dc57600080fd5b806301ffc9a71461008d5780630219758e146100f7578063150b7a021461012f5780633ce6d3e214610173575b600080fd5b6100e261009b366004610f97565b7fffffffff00000000000000000000000000000000000000000000000000000000167f150b7a02000000000000000000000000000000000000000000000000000000001490565b60405190151581526020015b60405180910390f35b61010a610105366004610fe0565b610203565b60405173ffffffffffffffffffffffffffffffffffffffff90911681526020016100ee565b61014261013d366004611067565b61023a565b6040517fffffffff0000000000000000000000000000000000000000000000000000000090911681526020016100ee565b610186610181366004610fe0565b61034e565b005b6101a8610196366004610fe0565b60026020526000908152604090205481565b6040519081526020016100ee565b6101a86101c43660046110da565b61069f565b6101a86101d7366004610fe0565b610f76565b61010a7f000000000000000000000000000000000000000000000000000000000000000081565b6000818154811061021357600080fd5b60009182526020909120015473ffffffffffffffffffffffffffffffffffffffff16905081565b60007f000000000000000000000000000000000000000000000000000000000000000073ffffffffffffffffffffffffffffffffffffffff16638b79543c6040518163ffffffff1660e01b8152600401602060405180830381865afa1580156102a7573d6000803e3d6000fd5b505050506040513d601f19601f820116820180604052508101906102cb91906111c4565b73ffffffffffffffffffffffffffffffffffffffff163373ffffffffffffffffffffffffffffffffffffffff161461030257600080fd5b73ffffffffffffffffffffffffffffffffffffffff85161561032357600080fd5b507f150b7a020000000000000000000000000000000000000000000000000000000095945050505050565b6040517f1f51045300000000000000000000000000000000000000000000000000000000815260048101829052600090819073ffffffffffffffffffffffffffffffffffffffff7f00000000000000000000000000000000000000000000000000000000000000001690631f510453906024016103c060405180830381865afa1580156103df573d6000803e3d6000fd5b505050506040513d601f19601f82011682018060405250810190610403919061148f565b5081519193509150600114610444576040517fc97554fa00000000000000000000000000000000000000000000000000000000815260040160405180910390fd5b60408051608080820183528481015182526000602080840182905260c08088015185870152606080860184905286516102a0810188526102408101858152610260820186905261028082018690528152808401859052888801518189015290810184905293840183905260a08401839052830182905260e08301829052610100830182905261012083018290526101408301829052610160830182905261018083018290526101a083018290526101c083018290526101e083018290526102008087015173ffffffffffffffffffffffffffffffffffffffff908116918501919091526102208781015190850152888352600282528583205486518481529283019096527f0000000000000000000000000000000000000000000000000000000000000000169463badbdf2894899490939092906105a5565b60408051808201909152600081526060602082015281526020019060019003908161057d5790505b506040805160008082526020820190925290610634565b6106216040518060c00160405280600073ffffffffffffffffffffffffffffffffffffffff168152602001600073ffffffffffffffffffffffffffffffffffffffff168152602001600081526020016000815260200160008152602001600081525090565b8152602001906001900390816105bc5790505b506040518763ffffffff1660e01b81526004016106569695949392919061182d565b6020604051808303816000875af1158015610675573d6000803e3d6000fd5b505050506040513d601f19601f820116820180604052508101906106999190611921565b50505050565b604080516001808252818301909252600091829190816020015b6040805180820190915260008152606060208201528152602001906001900390816106b957505060408051600180825281830190925291925060009190602082015b6040805160e08101825260008082526020808301829052928201819052606082018190526080820181905260a0820181905260c082015282527fffffffffffffffffffffffffffffffffffffffffffffffffffffffffffffffff9092019101816106fb5790505090506040518060e00160405280600015158152602001600015158152602001633b9aca008152602001600081526020018b73ffffffffffffffffffffffffffffffffffffffff16815260200160008152602001600073ffffffffffffffffffffffffffffffffffffffff16815250816001815181106107e3576107e361193a565b602002602001018190525060405180604001604052806002815260200182815250826000815181106108175761081761193a565b6020026020010181905250507f000000000000000000000000000000000000000000000000000000000000000073ffffffffffffffffffffffffffffffffffffffff16638b79543c6040518163ffffffff1660e01b8152600401602060405180830381865afa15801561088e573d6000803e3d6000fd5b505050506040513d601f19601f820116820180604052508101906108b291906111c4565b73ffffffffffffffffffffffffffffffffffffffff1663666d87a0308a6040518363ffffffff1660e01b81526004016108ec9291906119b2565b6020604051808303816000875af115801561090b573d6000803e3d6000fd5b505050506040513d601f19601f8201168201806040525081019061092f9190611921565b915060007f000000000000000000000000000000000000000000000000000000000000000073ffffffffffffffffffffffffffffffffffffffff1663619306306040518163ffffffff1660e01b8152600401602060405180830381865afa15801561099e573d6000803e3d6000fd5b505050506040513d601f19601f820116820180604052508101906109c291906111c4565b73ffffffffffffffffffffffffffffffffffffffff1663a7f2a70b848a8a8a8a6040518663ffffffff1660e01b8152600401610a02959493929190611a5e565b6020604051808303816000875af1158015610a21573d6000803e3d6000fd5b505050506040513d601f19601f82011682018060405250810190610a4591906111c4565b905060007f000000000000000000000000000000000000000000000000000000000000000073ffffffffffffffffffffffffffffffffffffffff1663111d861b8560405180608001604052808960600135815260200160128a60000135610aac9190611be8565b815260408a810135602080840191909152600092820183905281516102a081018352610240810184815261026082018590526102808201859052815260a0808e0135828401526080808f013583860152606083018690528201859052810184905260c0810184905260e081018490526001610100820181905261012082018590526101408201859052610160820185905261018082018590526101a082018590526101c08201526101e0810184905273ffffffffffffffffffffffffffffffffffffffff891661020082015261022081018490528251848152918201909252909190899082610c0e565b610bfb6040518060c00160405280600073ffffffffffffffffffffffffffffffffffffffff168152602001600073ffffffffffffffffffffffffffffffffffffffff168152602001600081526020016000815260200160008152602001600081525090565b815260200190600190039081610b965790505b5060006040518863ffffffff1660e01b8152600401610c339796959493929190611bf7565b6020604051808303816000875af1158015610c52573d6000803e3d6000fd5b505050506040513d601f19601f82011682018060405250810190610c769190611921565b5073ffffffffffffffffffffffffffffffffffffffff7f000000000000000000000000000000000000000000000000000000000000000016638ae9c07b85610cc3601260208a0135611be8565b8e8b8b604051602001610cd7929190611d18565b6040516020818303038152906040526000806040518763ffffffff1660e01b8152600401610d0a96959493929190611d75565b6020604051808303816000875af1158015610d29573d6000803e3d6000fd5b505050506040513d601f19601f82011682018060405250810190610d4d9190611921565b507f000000000000000000000000000000000000000000000000000000000000000073ffffffffffffffffffffffffffffffffffffffff16632bdfe0046040518163ffffffff1660e01b8152600401602060405180830381865afa158015610db9573d6000803e3d6000fd5b505050506040513d601f19601f82011682018060405250810190610ddd91906111c4565b73ffffffffffffffffffffffffffffffffffffffff1663ad007d636040518163ffffffff1660e01b8152600401602060405180830381865afa158015610e27573d6000803e3d6000fd5b505050506040513d601f19601f82011682018060405250810190610e4b91906111c4565b73ffffffffffffffffffffffffffffffffffffffff1663529cdd2e60405180606001604052808e73ffffffffffffffffffffffffffffffffffffffff1681526020018781526020016001805480602002602001604051908101604052809291908181526020018280548015610edf57602002820191906000526020600020905b815481526020019060010190808311610ecb575b50505050508152506040518263ffffffff1660e01b8152600401610f039190611e25565b600060405180830381600087803b158015610f1d57600080fd5b505af1158015610f31573d6000803e3d6000fd5b50610f469250505060e0860160c08701611ea1565b610f589065ffffffffffff1642611ec9565b60008581526002602052604090205550919998505050505050505050565b60018181548110610f8657600080fd5b600091825260209091200154905081565b600060208284031215610fa957600080fd5b81357fffffffff0000000000000000000000000000000000000000000000000000000081168114610fd957600080fd5b9392505050565b600060208284031215610ff257600080fd5b5035919050565b73ffffffffffffffffffffffffffffffffffffffff8116811461101b57600080fd5b50565b60008083601f84011261103057600080fd5b50813567ffffffffffffffff81111561104857600080fd5b60208301915083602082850101111561106057600080fd5b9250929050565b60008060008060006080868803121561107f57600080fd5b853561108a81610ff9565b9450602086013561109a81610ff9565b935060408601359250606086013567ffffffffffffffff8111156110bd57600080fd5b6110c98882890161101e565b969995985093965092949392505050565b60008060008060008060008789036101608112156110f757600080fd5b883561110281610ff9565b9750602089013567ffffffffffffffff8082111561111f57600080fd5b908a01906040828d03121561113357600080fd5b90975060408a0135908082111561114957600080fd5b6111558c838d0161101e565b909850965060608b013591508082111561116e57600080fd5b5061117b8b828c0161101e565b90955093505060e07fffffffffffffffffffffffffffffffffffffffffffffffffffffffffffffff80820112156111b157600080fd5b5060808801905092959891949750929550565b6000602082840312156111d657600080fd5b8151610fd981610ff9565b604051610240810167ffffffffffffffff8111828210171561122c577f4e487b7100000000000000000000000000000000000000000000000000000000600052604160045260246000fd5b60405290565b604051610120810167ffffffffffffffff8111828210171561122c577f4e487b7100000000000000000000000000000000000000000000000000000000600052604160045260246000fd5b805161128881610ff9565b919050565b8051801515811461128857600080fd5b6000606082840312156112af57600080fd5b6040516060810181811067ffffffffffffffff821117156112f9577f4e487b7100000000000000000000000000000000000000000000000000000000600052604160045260246000fd5b6040529050806113088361128d565b81526113166020840161128d565b60208201526113276040840161128d565b60408201525092915050565b6000610280828403121561134657600080fd5b61134e6111e1565b905061135a838361129d565b8152606082015160208201526080820151604082015260a0820151606082015261138660c0830161128d565b608082015261139760e0830161128d565b60a08201526101006113aa81840161128d565b60c08301526101206113bd81850161128d565b60e08401526101406113d081860161128d565b8385015261016092506113e483860161128d565b8285015261018091506113f882860161128d565b908401526101a061140a85820161128d565b838501526101c0925061141e83860161128d565b828501526101e0915061143282860161128d565b9084015261020061144485820161128d565b83850152610220925061145883860161128d565b82850152611469610240860161127d565b818501525050610260830151818301525092915050565b80516003811061128857600080fd5b60008060008385036103c08112156114a657600080fd5b610120808212156114b657600080fd5b6114be611232565b9150855182526020860151602083015260408601516040830152606086015160608301526080860151608083015260a086015160a083015260c086015160c083015261150c60e0870161127d565b60e083015261010080870151818401525081945061152c87828801611333565b9350505061153d6103a08501611480565b90509250925092565b61156b8282518051151582526020808201511515908301526040908101511515910152565b6020810151606083015260408101516080830152606081015160a0830152608081015161159c60c084018215159052565b5060a081015180151560e08401525060c08101516101006115c08185018315159052565b60e083015191506101206115d78186018415159052565b908301519150610140906115ee8583018415159052565b83015191506101606116038582018415159052565b9083015191506101809061161a8583018415159052565b83015191506101a061162f8582018415159052565b9083015191506101c0906116468583018415159052565b83015191506101e061165b8582018415159052565b908301519150610200906116728583018415159052565b83015191506102206116878582018415159052565b9083015173ffffffffffffffffffffffffffffffffffffffff16610240850152909101516102609092019190915250565b600081518084526020808501808196508360051b810191508286016000805b86811015611797578385038a52825180518652860151604087870181905281518188018190529188019160609081890190865b818110156117805785518051151584528c81015115158d8501528581015186850152848101518585015260808082015173ffffffffffffffffffffffffffffffffffffffff9081169186019190915260a0808301519086015260c0918201511690840152948b019460e09092019160010161170a565b50509c89019c9750505092860192506001016116d7565b509298975050505050505050565b600081518084526020808501945080840160005b83811015611822578151805173ffffffffffffffffffffffffffffffffffffffff908116895284820151168489015260408082015190890152606080820151908901526080808201519089015260a0908101519088015260c090960195908201906001016117b9565b509495945050505050565b60006103a0888352611879602084018980518252602081015160208301526040810151604083015273ffffffffffffffffffffffffffffffffffffffff60608201511660608301525050565b61188660a0840188611546565b85610320840152806103408401526118a0818401866116b8565b90508281036103608401526118b581856117a5565b838103610380909401939093525050603481527f5363686564756c6564207265736572766564207261746520657870697279206f60208201527f662052657461696c69737420747265617375727900000000000000000000000060408201526060019695505050505050565b60006020828403121561193357600080fd5b5051919050565b7f4e487b7100000000000000000000000000000000000000000000000000000000600052603260045260246000fd5b8183528181602085013750600060208284010152600060207fffffffffffffffffffffffffffffffffffffffffffffffffffffffffffffffe0601f840116840101905092915050565b73ffffffffffffffffffffffffffffffffffffffff8316815260406020820152600082357fffffffffffffffffffffffffffffffffffffffffffffffffffffffffffffffe1843603018112611a0657600080fd5b830160208101903567ffffffffffffffff811115611a2357600080fd5b803603821315611a3257600080fd5b604080850152611a46608085018284611969565b91505060208401356060840152809150509392505050565b858152606060208201526000611a78606083018688611969565b8281036040840152611a8b818587611969565b98975050505050505050565b7f4e487b7100000000000000000000000000000000000000000000000000000000600052601160045260246000fd5b600181815b80851115611b1f57817fffffffffffffffffffffffffffffffffffffffffffffffffffffffffffffffff04821115611b0557611b05611a97565b80851615611b1257918102915b93841c9390800290611acb565b509250929050565b600082611b3657506001611be2565b81611b4357506000611be2565b8160018114611b595760028114611b6357611b7f565b6001915050611be2565b60ff841115611b7457611b74611a97565b50506001821b611be2565b5060208310610133831016604e8410600b8410161715611ba2575081810a611be2565b611bac8383611ac6565b807fffffffffffffffffffffffffffffffffffffffffffffffffffffffffffffffff04821115611bde57611bde611a97565b0290505b92915050565b6000610fd960ff841683611b27565b60006103c08983526020611c448185018b80518252602081015160208301526040810151604083015273ffffffffffffffffffffffffffffffffffffffff60608201511660608301525050565b611c5160a085018a611546565b8761032085015281610340850152611c6b828501886116b8565b9150838203610360850152611c8082876117a5565b848103610380860152855480825260008781528381209450918301915b81811015611ccf57845473ffffffffffffffffffffffffffffffffffffffff1683526001948501949284019201611c9d565b50508481036103a0860152601b81527f4465706c6f7965642052657461696c69737420747265617375727900000000006020820152604081019c9b505050505050505050505050565b7f5072656d696e746564200000000000000000000000000000000000000000000081528183600a8301377f20746f6b656e732e0000000000000000000000000000000000000000000000009101600a810191909152601201919050565b86815260006020878184015273ffffffffffffffffffffffffffffffffffffffff8716604084015260c0606084015285518060c085015260005b81811015611dcb5787810183015185820160e001528201611daf565b50600060e0828601015260e07fffffffffffffffffffffffffffffffffffffffffffffffffffffffffffffffe0601f83011685010192505050611e12608083018515159052565b82151560a0830152979650505050505050565b600060208083526080830173ffffffffffffffffffffffffffffffffffffffff85511682850152818501516040850152604085015160608086015281815180845260a0870191508483019350600092505b80831015611e965783518252928401926001929092019190840190611e76565b509695505050505050565b600060208284031215611eb357600080fd5b813565ffffffffffff81168114610fd957600080fd5b80820180821115611be257611be2611a9756fea2646970667358221220cbc6199766aa67fc2756b5083710387c568c63f43eef2f2228628b06edab669764736f6c63430008140033",
    "linkReferences": {}
  },
  "methodIdentifiers": {
    "controller()": "f77c4791",
    "deployProjectFor(address,(string,uint256),string,string,(uint256,uint256,uint256,uint256,uint256,uint256,uint48))": "79925560",
    "onERC721Received(address,address,uint256,bytes)": "150b7a02",
    "permissionIndexes(uint256)": "9483e771",
    "reconfigurationStartTimestampOf(uint256)": "560f7b03",
    "scheduleReconfigurationOf(uint256)": "3ce6d3e2",
    "supportsInterface(bytes4)": "01ffc9a7",
    "terminals(uint256)": "0219758e"
  },
  "id": 69
}