{
  "abi": [
    {
      "inputs": [
        {
          "internalType": "contract IJBController3_1",
          "name": "_controller",
          "type": "address"
        },
        {
          "internalType": "contract IJBPayoutRedemptionPaymentTerminal3_1_1",
          "name": "_terminal",
          "type": "address"
        }
      ],
      "stateMutability": "nonpayable",
      "type": "constructor"
    },
    {
      "inputs": [],
      "name": "RECONFIGURATION_ALREADY_SCHEDULED",
      "type": "error"
    },
    {
      "inputs": [],
      "name": "controller",
      "outputs": [
        {
          "internalType": "contract IJBController3_1",
          "name": "",
          "type": "address"
        }
      ],
      "stateMutability": "view",
      "type": "function"
    },
    {
      "inputs": [
        {
          "internalType": "address",
          "name": "_operator",
          "type": "address"
        },
        {
          "components": [
            {
              "internalType": "string",
              "name": "content",
              "type": "string"
            },
            {
              "internalType": "uint256",
              "name": "domain",
              "type": "uint256"
            }
          ],
          "internalType": "struct JBProjectMetadata",
          "name": "_projectMetadata",
          "type": "tuple"
        },
        {
          "internalType": "string",
          "name": "_name",
          "type": "string"
        },
        {
          "internalType": "string",
          "name": "_symbol",
          "type": "string"
        },
        {
          "components": [
            {
              "internalType": "uint256",
              "name": "initialIssuanceRate",
              "type": "uint256"
            },
            {
              "internalType": "uint256",
              "name": "premintTokenAmount",
              "type": "uint256"
            },
            {
              "internalType": "uint256",
              "name": "discountRate",
              "type": "uint256"
            },
            {
              "internalType": "uint256",
              "name": "discountPeriod",
              "type": "uint256"
            },
            {
              "internalType": "uint256",
              "name": "redemptionRate",
              "type": "uint256"
            },
            {
              "internalType": "uint256",
              "name": "reservedRate",
              "type": "uint256"
            },
            {
              "internalType": "uint48",
              "name": "reservedRateDuration",
              "type": "uint48"
            }
          ],
          "internalType": "struct BasicRetailistJBParams",
          "name": "_data",
          "type": "tuple"
        }
      ],
      "name": "deployProjectFor",
      "outputs": [
        {
          "internalType": "uint256",
          "name": "projectId",
          "type": "uint256"
        }
      ],
      "stateMutability": "nonpayable",
      "type": "function"
    },
    {
      "inputs": [
        {
          "internalType": "address",
          "name": "_operator",
          "type": "address"
        },
        {
          "internalType": "address",
          "name": "_from",
          "type": "address"
        },
        {
          "internalType": "uint256",
          "name": "_tokenId",
          "type": "uint256"
        },
        {
          "internalType": "bytes",
          "name": "_data",
          "type": "bytes"
        }
      ],
      "name": "onERC721Received",
      "outputs": [
        {
          "internalType": "bytes4",
          "name": "",
          "type": "bytes4"
        }
      ],
      "stateMutability": "view",
      "type": "function"
    },
    {
      "inputs": [
        {
          "internalType": "uint256",
          "name": "",
          "type": "uint256"
        }
      ],
      "name": "permissionIndexes",
      "outputs": [
        {
          "internalType": "uint256",
          "name": "",
          "type": "uint256"
        }
      ],
      "stateMutability": "view",
      "type": "function"
    },
    {
      "inputs": [
        {
          "internalType": "uint256",
          "name": "projectId",
          "type": "uint256"
        }
      ],
      "name": "reconfigurationStartTimestampOf",
      "outputs": [
        {
          "internalType": "uint256",
          "name": "",
          "type": "uint256"
        }
      ],
      "stateMutability": "view",
      "type": "function"
    },
    {
      "inputs": [
        {
          "internalType": "uint256",
          "name": "_projectId",
          "type": "uint256"
        }
      ],
      "name": "scheduleReconfigurationOf",
      "outputs": [],
      "stateMutability": "nonpayable",
      "type": "function"
    },
    {
      "inputs": [
        {
          "internalType": "uint256",
          "name": "",
          "type": "uint256"
        }
      ],
      "name": "terminals",
      "outputs": [
        {
          "internalType": "contract IJBPaymentTerminal",
          "name": "",
          "type": "address"
        }
      ],
      "stateMutability": "view",
      "type": "function"
    }
  ],
  "bytecode": {
    "object": "0x60a06040523480156200001157600080fd5b5060405162001fbe38038062001fbe8339810160408190526200003491620000d7565b6001600160a01b0391821660805260008054600180820183557f290decd9548b62a8d60345a988386fc84ba6bc95484008f6362f93160ef3e56390910180546001600160a01b031916939094169290921790925580548082018255915260127fb10e2d527612073b26eecdfd717e6a320cf44b4afac2b0732d9fcbe2b7fa0cf69091015562000116565b6001600160a01b0381168114620000d457600080fd5b50565b60008060408385031215620000eb57600080fd5b8251620000f881620000be565b60208401519092506200010b81620000be565b809150509250929050565b608051611e546200016a60003960008181610171015281816101ce01528181610327015281816104b9015281816107a9015281816108b9015281816109cf01528181610c120152610cd40152611e546000f3fe608060405234801561001057600080fd5b506004361061007d5760003560e01c8063560f7b031161005b578063560f7b031461011857806379925560146101465780639483e77114610159578063f77c47911461016c57600080fd5b80630219758e14610082578063150b7a02146100bf5780633ce6d3e214610103575b600080fd5b610095610090366004610f1b565b610193565b60405173ffffffffffffffffffffffffffffffffffffffff90911681526020015b60405180910390f35b6100d26100cd366004610fa2565b6101ca565b6040517fffffffff0000000000000000000000000000000000000000000000000000000090911681526020016100b6565b610116610111366004610f1b565b6102de565b005b610138610126366004610f1b565b60026020526000908152604090205481565b6040519081526020016100b6565b610138610154366004611015565b610623565b610138610167366004610f1b565b610efa565b6100957f000000000000000000000000000000000000000000000000000000000000000081565b600081815481106101a357600080fd5b60009182526020909120015473ffffffffffffffffffffffffffffffffffffffff16905081565b60007f000000000000000000000000000000000000000000000000000000000000000073ffffffffffffffffffffffffffffffffffffffff16638b79543c6040518163ffffffff1660e01b8152600401602060405180830381865afa158015610237573d6000803e3d6000fd5b505050506040513d601f19601f8201168201806040525081019061025b91906110ff565b73ffffffffffffffffffffffffffffffffffffffff163373ffffffffffffffffffffffffffffffffffffffff161461029257600080fd5b73ffffffffffffffffffffffffffffffffffffffff8516156102b357600080fd5b507f150b7a020000000000000000000000000000000000000000000000000000000095945050505050565b6040517f1f51045300000000000000000000000000000000000000000000000000000000815260048101829052600090819073ffffffffffffffffffffffffffffffffffffffff7f00000000000000000000000000000000000000000000000000000000000000001690631f510453906024016103c060405180830381865afa15801561036f573d6000803e3d6000fd5b505050506040513d601f19601f8201168201806040525081019061039391906113d1565b50815191935091506001146103d4576040517fc97554fa00000000000000000000000000000000000000000000000000000000815260040160405180910390fd5b60408051608080820183528481015182526000602080840182905260c08088015185870152606080860184905286516102a0810188526102408101858152610260820186905261028082018690528152808401859052888801518189015290810184905293840183905260a08401839052830182905260e08301829052610100830182905261012083018290526101408301829052610160830182905261018083018290526101a083018290526101c083018290526101e0830182905261020083018290526102208301829052878252600281528482205485518381529182019095527f000000000000000000000000000000000000000000000000000000000000000073ffffffffffffffffffffffffffffffffffffffff169463badbdf289489949093909290610529565b6040805180820190915260008152606060208201528152602001906001900390816105015790505b5060408051600080825260208201909252906105b8565b6105a56040518060c00160405280600073ffffffffffffffffffffffffffffffffffffffff168152602001600073ffffffffffffffffffffffffffffffffffffffff168152602001600081526020016000815260200160008152602001600081525090565b8152602001906001900390816105405790505b506040518763ffffffff1660e01b81526004016105da9695949392919061176f565b6020604051808303816000875af11580156105f9573d6000803e3d6000fd5b505050506040513d601f19601f8201168201806040525081019061061d9190611863565b50505050565b604080516001808252818301909252600091829190816020015b60408051808201909152600081526060602082015281526020019060019003908161063d57505060408051600180825281830190925291925060009190602082015b6040805160e08101825260008082526020808301829052928201819052606082018190526080820181905260a0820181905260c082015282527fffffffffffffffffffffffffffffffffffffffffffffffffffffffffffffffff90920191018161067f5790505090506040518060e00160405280600015158152602001600015158152602001633b9aca008152602001600081526020018b73ffffffffffffffffffffffffffffffffffffffff16815260200160008152602001600073ffffffffffffffffffffffffffffffffffffffff16815250816001815181106107675761076761187c565b6020026020010181905250604051806040016040528060028152602001828152508260008151811061079b5761079b61187c565b6020026020010181905250507f000000000000000000000000000000000000000000000000000000000000000073ffffffffffffffffffffffffffffffffffffffff16638b79543c6040518163ffffffff1660e01b8152600401602060405180830381865afa158015610812573d6000803e3d6000fd5b505050506040513d601f19601f8201168201806040525081019061083691906110ff565b73ffffffffffffffffffffffffffffffffffffffff1663666d87a0308a6040518363ffffffff1660e01b81526004016108709291906118f4565b6020604051808303816000875af115801561088f573d6000803e3d6000fd5b505050506040513d601f19601f820116820180604052508101906108b39190611863565b915060007f000000000000000000000000000000000000000000000000000000000000000073ffffffffffffffffffffffffffffffffffffffff1663619306306040518163ffffffff1660e01b8152600401602060405180830381865afa158015610922573d6000803e3d6000fd5b505050506040513d601f19601f8201168201806040525081019061094691906110ff565b73ffffffffffffffffffffffffffffffffffffffff1663a7f2a70b848a8a8a8a6040518663ffffffff1660e01b81526004016109869594939291906119a0565b6020604051808303816000875af11580156109a5573d6000803e3d6000fd5b505050506040513d601f19601f820116820180604052508101906109c991906110ff565b905060007f000000000000000000000000000000000000000000000000000000000000000073ffffffffffffffffffffffffffffffffffffffff1663111d861b8560405180608001604052808960600135815260200160128a60000135610a309190611b2a565b815260408a810135602080840191909152600092820183905281516102a081018352610240810184815261026082018590526102808201859052815260a0808e0135828401526080808f013583860152606083018690528201859052810184905260c0810184905260e081018490526001610100820181905261012082018590526101408201859052610160820185905261018082018590526101a082018590526101c08201526101e0810184905273ffffffffffffffffffffffffffffffffffffffff891661020082015261022081018490528251848152918201909252909190899082610b92565b610b7f6040518060c00160405280600073ffffffffffffffffffffffffffffffffffffffff168152602001600073ffffffffffffffffffffffffffffffffffffffff168152602001600081526020016000815260200160008152602001600081525090565b815260200190600190039081610b1a5790505b5060006040518863ffffffff1660e01b8152600401610bb79796959493929190611b39565b6020604051808303816000875af1158015610bd6573d6000803e3d6000fd5b505050506040513d601f19601f82011682018060405250810190610bfa9190611863565b5073ffffffffffffffffffffffffffffffffffffffff7f000000000000000000000000000000000000000000000000000000000000000016638ae9c07b85610c47601260208a0135611b2a565b8e8b8b604051602001610c5b929190611c5a565b6040516020818303038152906040526000806040518763ffffffff1660e01b8152600401610c8e96959493929190611cb7565b6020604051808303816000875af1158015610cad573d6000803e3d6000fd5b505050506040513d601f19601f82011682018060405250810190610cd19190611863565b507f000000000000000000000000000000000000000000000000000000000000000073ffffffffffffffffffffffffffffffffffffffff16632bdfe0046040518163ffffffff1660e01b8152600401602060405180830381865afa158015610d3d573d6000803e3d6000fd5b505050506040513d601f19601f82011682018060405250810190610d6191906110ff565b73ffffffffffffffffffffffffffffffffffffffff1663ad007d636040518163ffffffff1660e01b8152600401602060405180830381865afa158015610dab573d6000803e3d6000fd5b505050506040513d601f19601f82011682018060405250810190610dcf91906110ff565b73ffffffffffffffffffffffffffffffffffffffff1663529cdd2e60405180606001604052808e73ffffffffffffffffffffffffffffffffffffffff1681526020018781526020016001805480602002602001604051908101604052809291908181526020018280548015610e6357602002820191906000526020600020905b815481526020019060010190808311610e4f575b50505050508152506040518263ffffffff1660e01b8152600401610e879190611d67565b600060405180830381600087803b158015610ea157600080fd5b505af1158015610eb5573d6000803e3d6000fd5b50610eca9250505060e0860160c08701611de3565b610edc9065ffffffffffff1642611e0b565b60008581526002602052604090205550919998505050505050505050565b60018181548110610f0a57600080fd5b600091825260209091200154905081565b600060208284031215610f2d57600080fd5b5035919050565b73ffffffffffffffffffffffffffffffffffffffff81168114610f5657600080fd5b50565b60008083601f840112610f6b57600080fd5b50813567ffffffffffffffff811115610f8357600080fd5b602083019150836020828501011115610f9b57600080fd5b9250929050565b600080600080600060808688031215610fba57600080fd5b8535610fc581610f34565b94506020860135610fd581610f34565b935060408601359250606086013567ffffffffffffffff811115610ff857600080fd5b61100488828901610f59565b969995985093965092949392505050565b600080600080600080600087890361016081121561103257600080fd5b883561103d81610f34565b9750602089013567ffffffffffffffff8082111561105a57600080fd5b908a01906040828d03121561106e57600080fd5b90975060408a0135908082111561108457600080fd5b6110908c838d01610f59565b909850965060608b01359150808211156110a957600080fd5b506110b68b828c01610f59565b90955093505060e07fffffffffffffffffffffffffffffffffffffffffffffffffffffffffffffff80820112156110ec57600080fd5b5060808801905092959891949750929550565b60006020828403121561111157600080fd5b815161111c81610f34565b9392505050565b604051610240810167ffffffffffffffff8111828210171561116e577f4e487b7100000000000000000000000000000000000000000000000000000000600052604160045260246000fd5b60405290565b604051610120810167ffffffffffffffff8111828210171561116e577f4e487b7100000000000000000000000000000000000000000000000000000000600052604160045260246000fd5b80516111ca81610f34565b919050565b805180151581146111ca57600080fd5b6000606082840312156111f157600080fd5b6040516060810181811067ffffffffffffffff8211171561123b577f4e487b7100000000000000000000000000000000000000000000000000000000600052604160045260246000fd5b60405290508061124a836111cf565b8152611258602084016111cf565b6020820152611269604084016111cf565b60408201525092915050565b6000610280828403121561128857600080fd5b611290611123565b905061129c83836111df565b8152606082015160208201526080820151604082015260a082015160608201526112c860c083016111cf565b60808201526112d960e083016111cf565b60a08201526101006112ec8184016111cf565b60c08301526101206112ff8185016111cf565b60e08401526101406113128186016111cf565b8385015261016092506113268386016111cf565b82850152610180915061133a8286016111cf565b908401526101a061134c8582016111cf565b838501526101c092506113608386016111cf565b828501526101e091506113748286016111cf565b908401526102006113868582016111cf565b83850152610220925061139a8386016111cf565b828501526113ab61024086016111bf565b818501525050610260830151818301525092915050565b8051600381106111ca57600080fd5b60008060008385036103c08112156113e857600080fd5b610120808212156113f857600080fd5b611400611174565b9150855182526020860151602083015260408601516040830152606086015160608301526080860151608083015260a086015160a083015260c086015160c083015261144e60e087016111bf565b60e083015261010080870151818401525081945061146e87828801611275565b9350505061147f6103a085016113c2565b90509250925092565b6114ad8282518051151582526020808201511515908301526040908101511515910152565b6020810151606083015260408101516080830152606081015160a083015260808101516114de60c084018215159052565b5060a081015180151560e08401525060c08101516101006115028185018315159052565b60e083015191506101206115198186018415159052565b908301519150610140906115308583018415159052565b83015191506101606115458582018415159052565b9083015191506101809061155c8583018415159052565b83015191506101a06115718582018415159052565b9083015191506101c0906115888583018415159052565b83015191506101e061159d8582018415159052565b908301519150610200906115b48583018415159052565b83015191506102206115c98582018415159052565b9083015173ffffffffffffffffffffffffffffffffffffffff16610240850152909101516102609092019190915250565b600081518084526020808501808196508360051b810191508286016000805b868110156116d9578385038a52825180518652860151604087870181905281518188018190529188019160609081890190865b818110156116c25785518051151584528c81015115158d8501528581015186850152848101518585015260808082015173ffffffffffffffffffffffffffffffffffffffff9081169186019190915260a0808301519086015260c0918201511690840152948b019460e09092019160010161164c565b50509c89019c975050509286019250600101611619565b509298975050505050505050565b600081518084526020808501945080840160005b83811015611764578151805173ffffffffffffffffffffffffffffffffffffffff908116895284820151168489015260408082015190890152606080820151908901526080808201519089015260a0908101519088015260c090960195908201906001016116fb565b509495945050505050565b60006103a08883526117bb602084018980518252602081015160208301526040810151604083015273ffffffffffffffffffffffffffffffffffffffff60608201511660608301525050565b6117c860a0840188611488565b85610320840152806103408401526117e2818401866115fa565b90508281036103608401526117f781856116e7565b838103610380909401939093525050603481527f5363686564756c6564207265736572766564207261746520657870697279206f60208201527f662052657461696c69737420747265617375727900000000000000000000000060408201526060019695505050505050565b60006020828403121561187557600080fd5b5051919050565b7f4e487b7100000000000000000000000000000000000000000000000000000000600052603260045260246000fd5b8183528181602085013750600060208284010152600060207fffffffffffffffffffffffffffffffffffffffffffffffffffffffffffffffe0601f840116840101905092915050565b73ffffffffffffffffffffffffffffffffffffffff8316815260406020820152600082357fffffffffffffffffffffffffffffffffffffffffffffffffffffffffffffffe184360301811261194857600080fd5b830160208101903567ffffffffffffffff81111561196557600080fd5b80360382131561197457600080fd5b6040808501526119886080850182846118ab565b91505060208401356060840152809150509392505050565b8581526060602082015260006119ba6060830186886118ab565b82810360408401526119cd8185876118ab565b98975050505050505050565b7f4e487b7100000000000000000000000000000000000000000000000000000000600052601160045260246000fd5b600181815b80851115611a6157817fffffffffffffffffffffffffffffffffffffffffffffffffffffffffffffffff04821115611a4757611a476119d9565b80851615611a5457918102915b93841c9390800290611a0d565b509250929050565b600082611a7857506001611b24565b81611a8557506000611b24565b8160018114611a9b5760028114611aa557611ac1565b6001915050611b24565b60ff841115611ab657611ab66119d9565b50506001821b611b24565b5060208310610133831016604e8410600b8410161715611ae4575081810a611b24565b611aee8383611a08565b807fffffffffffffffffffffffffffffffffffffffffffffffffffffffffffffffff04821115611b2057611b206119d9565b0290505b92915050565b600061111c60ff841683611a69565b60006103c08983526020611b868185018b80518252602081015160208301526040810151604083015273ffffffffffffffffffffffffffffffffffffffff60608201511660608301525050565b611b9360a085018a611488565b8761032085015281610340850152611bad828501886115fa565b9150838203610360850152611bc282876116e7565b848103610380860152855480825260008781528381209450918301915b81811015611c1157845473ffffffffffffffffffffffffffffffffffffffff1683526001948501949284019201611bdf565b50508481036103a0860152601b81527f4465706c6f7965642052657461696c69737420747265617375727900000000006020820152604081019c9b505050505050505050505050565b7f5072656d696e746564200000000000000000000000000000000000000000000081528183600a8301377f20746f6b656e732e0000000000000000000000000000000000000000000000009101600a810191909152601201919050565b86815260006020878184015273ffffffffffffffffffffffffffffffffffffffff8716604084015260c0606084015285518060c085015260005b81811015611d0d5787810183015185820160e001528201611cf1565b50600060e0828601015260e07fffffffffffffffffffffffffffffffffffffffffffffffffffffffffffffffe0601f83011685010192505050611d54608083018515159052565b82151560a0830152979650505050505050565b600060208083526080830173ffffffffffffffffffffffffffffffffffffffff85511682850152818501516040850152604085015160608086015281815180845260a0870191508483019350600092505b80831015611dd85783518252928401926001929092019190840190611db8565b509695505050505050565b600060208284031215611df557600080fd5b813565ffffffffffff8116811461111c57600080fd5b80820180821115611b2457611b246119d956fea2646970667358221220f2c9f61301a15ffb097b922c2ead24696d25f31e56b38f452f6bde64dd4e2f3a64736f6c63430008140033",
    "linkReferences": {}
  },
  "methodIdentifiers": {
    "controller()": "f77c4791",
    "deployProjectFor(address,(string,uint256),string,string,(uint256,uint256,uint256,uint256,uint256,uint256,uint48))": "79925560",
    "onERC721Received(address,address,uint256,bytes)": "150b7a02",
    "permissionIndexes(uint256)": "9483e771",
    "reconfigurationStartTimestampOf(uint256)": "560f7b03",
    "scheduleReconfigurationOf(uint256)": "3ce6d3e2",
    "terminals(uint256)": "0219758e"
  },
  "id": 64
}