{
	"_format": "sphinx-sol-ct-artifact-1",
	"merkleRoot": "0x2df8f06620610415d6ef29d718ef30921b087659677ae2a0ba469618a8ab2a2b",
	"contractName": "REVBasicDeployer",
	"address": "0x586431a0CF041d868034E7446Cb6cbDe43566088",
	"abi": [
		{
			"type": "constructor",
			"inputs": [
				{
					"name": "controller",
					"type": "address",
					"internalType": "contract IJBController"
				},
				{
					"name": "suckerRegistry",
					"type": "address",
					"internalType": "contract IBPSuckerRegistry"
				},
				{
					"name": "trustedForwarder",
					"type": "address",
					"internalType": "address"
				}
			],
			"stateMutability": "nonpayable"
		},
		{
			"type": "function",
			"name": "CONTROLLER",
			"inputs": [],
			"outputs": [
				{
					"name": "",
					"type": "address",
					"internalType": "contract IJBController"
				}
			],
			"stateMutability": "view"
		},
		{
			"type": "function",
			"name": "EXIT_DELAY",
			"inputs": [],
			"outputs": [
				{
					"name": "",
					"type": "uint256",
					"internalType": "uint256"
				}
			],
			"stateMutability": "view"
		},
		{
			"type": "function",
			"name": "SUCKER_REGISTRY",
			"inputs": [],
			"outputs": [
				{
					"name": "",
					"type": "address",
					"internalType": "contract IBPSuckerRegistry"
				}
			],
			"stateMutability": "view"
		},
		{
			"type": "function",
			"name": "beforePayRecordedWith",
			"inputs": [
				{
					"name": "context",
					"type": "tuple",
					"internalType": "struct JBBeforePayRecordedContext",
					"components": [
						{
							"name": "terminal",
							"type": "address",
							"internalType": "address"
						},
						{
							"name": "payer",
							"type": "address",
							"internalType": "address"
						},
						{
							"name": "amount",
							"type": "tuple",
							"internalType": "struct JBTokenAmount",
							"components": [
								{
									"name": "token",
									"type": "address",
									"internalType": "address"
								},
								{
									"name": "value",
									"type": "uint256",
									"internalType": "uint256"
								},
								{
									"name": "decimals",
									"type": "uint256",
									"internalType": "uint256"
								},
								{
									"name": "currency",
									"type": "uint256",
									"internalType": "uint256"
								}
							]
						},
						{
							"name": "projectId",
							"type": "uint256",
							"internalType": "uint256"
						},
						{
							"name": "rulesetId",
							"type": "uint256",
							"internalType": "uint256"
						},
						{
							"name": "beneficiary",
							"type": "address",
							"internalType": "address"
						},
						{
							"name": "weight",
							"type": "uint256",
							"internalType": "uint256"
						},
						{
							"name": "reservedRate",
							"type": "uint256",
							"internalType": "uint256"
						},
						{
							"name": "metadata",
							"type": "bytes",
							"internalType": "bytes"
						}
					]
				}
			],
			"outputs": [
				{
					"name": "weight",
					"type": "uint256",
					"internalType": "uint256"
				},
				{
					"name": "hookSpecifications",
					"type": "tuple[]",
					"internalType": "struct JBPayHookSpecification[]",
					"components": [
						{
							"name": "hook",
							"type": "address",
							"internalType": "contract IJBPayHook"
						},
						{
							"name": "amount",
							"type": "uint256",
							"internalType": "uint256"
						},
						{
							"name": "metadata",
							"type": "bytes",
							"internalType": "bytes"
						}
					]
				}
			],
			"stateMutability": "view"
		},
		{
			"type": "function",
			"name": "beforeRedeemRecordedWith",
			"inputs": [
				{
					"name": "context",
					"type": "tuple",
					"internalType": "struct JBBeforeRedeemRecordedContext",
					"components": [
						{
							"name": "terminal",
							"type": "address",
							"internalType": "address"
						},
						{
							"name": "holder",
							"type": "address",
							"internalType": "address"
						},
						{
							"name": "projectId",
							"type": "uint256",
							"internalType": "uint256"
						},
						{
							"name": "rulesetId",
							"type": "uint256",
							"internalType": "uint256"
						},
						{
							"name": "redeemCount",
							"type": "uint256",
							"internalType": "uint256"
						},
						{
							"name": "totalSupply",
							"type": "uint256",
							"internalType": "uint256"
						},
						{
							"name": "surplus",
							"type": "tuple",
							"internalType": "struct JBTokenAmount",
							"components": [
								{
									"name": "token",
									"type": "address",
									"internalType": "address"
								},
								{
									"name": "value",
									"type": "uint256",
									"internalType": "uint256"
								},
								{
									"name": "decimals",
									"type": "uint256",
									"internalType": "uint256"
								},
								{
									"name": "currency",
									"type": "uint256",
									"internalType": "uint256"
								}
							]
						},
						{
							"name": "useTotalSurplus",
							"type": "bool",
							"internalType": "bool"
						},
						{
							"name": "redemptionRate",
							"type": "uint256",
							"internalType": "uint256"
						},
						{
							"name": "metadata",
							"type": "bytes",
							"internalType": "bytes"
						}
					]
				}
			],
			"outputs": [
				{
					"name": "",
					"type": "uint256",
					"internalType": "uint256"
				},
				{
					"name": "",
					"type": "uint256",
					"internalType": "uint256"
				},
				{
					"name": "",
					"type": "uint256",
					"internalType": "uint256"
				},
				{
					"name": "specifications",
					"type": "tuple[]",
					"internalType": "struct JBRedeemHookSpecification[]",
					"components": [
						{
							"name": "hook",
							"type": "address",
							"internalType": "contract IJBRedeemHook"
						},
						{
							"name": "amount",
							"type": "uint256",
							"internalType": "uint256"
						},
						{
							"name": "metadata",
							"type": "bytes",
							"internalType": "bytes"
						}
					]
				}
			],
			"stateMutability": "view"
		},
		{
			"type": "function",
			"name": "buybackHookOf",
			"inputs": [
				{
					"name": "revnetId",
					"type": "uint256",
					"internalType": "uint256"
				}
			],
			"outputs": [
				{
					"name": "buybackHook",
					"type": "address",
					"internalType": "contract IJBRulesetDataHook"
				}
			],
			"stateMutability": "view"
		},
		{
			"type": "function",
			"name": "deploySuckersFor",
			"inputs": [
				{
					"name": "revnetId",
					"type": "uint256",
					"internalType": "uint256"
				},
				{
					"name": "encodedConfiguration",
					"type": "bytes",
					"internalType": "bytes"
				},
				{
					"name": "suckerDeploymentConfiguration",
					"type": "tuple",
					"internalType": "struct REVSuckerDeploymentConfig",
					"components": [
						{
							"name": "deployerConfigurations",
							"type": "tuple[]",
							"internalType": "struct BPSuckerDeployerConfig[]",
							"components": [
								{
									"name": "deployer",
									"type": "address",
									"internalType": "contract IBPSuckerDeployer"
								},
								{
									"name": "mappings",
									"type": "tuple[]",
									"internalType": "struct BPTokenMapping[]",
									"components": [
										{
											"name": "localToken",
											"type": "address",
											"internalType": "address"
										},
										{
											"name": "minGas",
											"type": "uint32",
											"internalType": "uint32"
										},
										{
											"name": "remoteToken",
											"type": "address",
											"internalType": "address"
										},
										{
											"name": "minBridgeAmount",
											"type": "uint256",
											"internalType": "uint256"
										}
									]
								}
							]
						},
						{
							"name": "salt",
							"type": "bytes32",
							"internalType": "bytes32"
						}
					]
				}
			],
			"outputs": [],
			"stateMutability": "nonpayable"
		},
		{
			"type": "function",
			"name": "exitDelayOf",
			"inputs": [
				{
					"name": "revnetId",
					"type": "uint256",
					"internalType": "uint256"
				}
			],
			"outputs": [
				{
					"name": "exitDelay",
					"type": "uint256",
					"internalType": "uint256"
				}
			],
			"stateMutability": "view"
		},
		{
			"type": "function",
			"name": "hasMintPermissionFor",
			"inputs": [
				{
					"name": "revnetId",
					"type": "uint256",
					"internalType": "uint256"
				},
				{
					"name": "addr",
					"type": "address",
					"internalType": "address"
				}
			],
			"outputs": [
				{
					"name": "",
					"type": "bool",
					"internalType": "bool"
				}
			],
			"stateMutability": "view"
		},
		{
			"type": "function",
			"name": "isTrustedForwarder",
			"inputs": [
				{
					"name": "forwarder",
					"type": "address",
					"internalType": "address"
				}
			],
			"outputs": [
				{
					"name": "",
					"type": "bool",
					"internalType": "bool"
				}
			],
			"stateMutability": "view"
		},
		{
			"type": "function",
			"name": "launchRevnetFor",
			"inputs": [
				{
					"name": "revnetId",
					"type": "uint256",
					"internalType": "uint256"
				},
				{
					"name": "configuration",
					"type": "tuple",
					"internalType": "struct REVConfig",
					"components": [
						{
							"name": "description",
							"type": "tuple",
							"internalType": "struct REVDescription",
							"components": [
								{
									"name": "name",
									"type": "string",
									"internalType": "string"
								},
								{
									"name": "ticker",
									"type": "string",
									"internalType": "string"
								},
								{
									"name": "uri",
									"type": "string",
									"internalType": "string"
								},
								{
									"name": "salt",
									"type": "bytes32",
									"internalType": "bytes32"
								}
							]
						},
						{
							"name": "baseCurrency",
							"type": "uint32",
							"internalType": "uint32"
						},
						{
							"name": "premintTokenAmount",
							"type": "uint256",
							"internalType": "uint256"
						},
						{
							"name": "premintChainId",
							"type": "uint256",
							"internalType": "uint256"
						},
						{
							"name": "initialSplitOperator",
							"type": "address",
							"internalType": "address"
						},
						{
							"name": "stageConfigurations",
							"type": "tuple[]",
							"internalType": "struct REVStageConfig[]",
							"components": [
								{
									"name": "startsAtOrAfter",
									"type": "uint40",
									"internalType": "uint40"
								},
								{
									"name": "splitRate",
									"type": "uint16",
									"internalType": "uint16"
								},
								{
									"name": "initialIssuanceRate",
									"type": "uint112",
									"internalType": "uint112"
								},
								{
									"name": "priceCeilingIncreaseFrequency",
									"type": "uint40",
									"internalType": "uint40"
								},
								{
									"name": "priceCeilingIncreasePercentage",
									"type": "uint32",
									"internalType": "uint32"
								},
								{
									"name": "priceFloorTaxIntensity",
									"type": "uint16",
									"internalType": "uint16"
								}
							]
						}
					]
				},
				{
					"name": "terminalConfigurations",
					"type": "tuple[]",
					"internalType": "struct JBTerminalConfig[]",
					"components": [
						{
							"name": "terminal",
							"type": "address",
							"internalType": "contract IJBTerminal"
						},
						{
							"name": "tokensToAccept",
							"type": "address[]",
							"internalType": "address[]"
						}
					]
				},
				{
					"name": "buybackHookConfiguration",
					"type": "tuple",
					"internalType": "struct REVBuybackHookConfig",
					"components": [
						{
							"name": "hook",
							"type": "address",
							"internalType": "contract IJBBuybackHook"
						},
						{
							"name": "poolConfigurations",
							"type": "tuple[]",
							"internalType": "struct REVBuybackPoolConfig[]",
							"components": [
								{
									"name": "token",
									"type": "address",
									"internalType": "address"
								},
								{
									"name": "fee",
									"type": "uint24",
									"internalType": "uint24"
								},
								{
									"name": "twapWindow",
									"type": "uint32",
									"internalType": "uint32"
								},
								{
									"name": "twapSlippageTolerance",
									"type": "uint32",
									"internalType": "uint32"
								}
							]
						}
					]
				},
				{
					"name": "suckerDeploymentConfiguration",
					"type": "tuple",
					"internalType": "struct REVSuckerDeploymentConfig",
					"components": [
						{
							"name": "deployerConfigurations",
							"type": "tuple[]",
							"internalType": "struct BPSuckerDeployerConfig[]",
							"components": [
								{
									"name": "deployer",
									"type": "address",
									"internalType": "contract IBPSuckerDeployer"
								},
								{
									"name": "mappings",
									"type": "tuple[]",
									"internalType": "struct BPTokenMapping[]",
									"components": [
										{
											"name": "localToken",
											"type": "address",
											"internalType": "address"
										},
										{
											"name": "minGas",
											"type": "uint32",
											"internalType": "uint32"
										},
										{
											"name": "remoteToken",
											"type": "address",
											"internalType": "address"
										},
										{
											"name": "minBridgeAmount",
											"type": "uint256",
											"internalType": "uint256"
										}
									]
								}
							]
						},
						{
							"name": "salt",
							"type": "bytes32",
							"internalType": "bytes32"
						}
					]
				}
			],
			"outputs": [
				{
					"name": "",
					"type": "uint256",
					"internalType": "uint256"
				}
			],
			"stateMutability": "nonpayable"
		},
		{
			"type": "function",
			"name": "onERC721Received",
			"inputs": [
				{
					"name": "operator",
					"type": "address",
					"internalType": "address"
				},
				{
					"name": "",
					"type": "address",
					"internalType": "address"
				},
				{
					"name": "tokenId",
					"type": "uint256",
					"internalType": "uint256"
				},
				{
					"name": "data",
					"type": "bytes",
					"internalType": "bytes"
				}
			],
			"outputs": [
				{
					"name": "",
					"type": "bytes4",
					"internalType": "bytes4"
				}
			],
			"stateMutability": "view"
		},
		{
			"type": "function",
			"name": "payHookSpecificationsOf",
			"inputs": [
				{
					"name": "revnetId",
					"type": "uint256",
					"internalType": "uint256"
				}
			],
			"outputs": [
				{
					"name": "",
					"type": "tuple[]",
					"internalType": "struct JBPayHookSpecification[]",
					"components": [
						{
							"name": "hook",
							"type": "address",
							"internalType": "contract IJBPayHook"
						},
						{
							"name": "amount",
							"type": "uint256",
							"internalType": "uint256"
						},
						{
							"name": "metadata",
							"type": "bytes",
							"internalType": "bytes"
						}
					]
				}
			],
			"stateMutability": "view"
		},
		{
			"type": "function",
			"name": "replaceSplitOperatorOf",
			"inputs": [
				{
					"name": "revnetId",
					"type": "uint256",
					"internalType": "uint256"
				},
				{
					"name": "newSplitOperator",
					"type": "address",
					"internalType": "address"
				}
			],
			"outputs": [],
			"stateMutability": "nonpayable"
		},
		{
			"type": "function",
			"name": "supportsInterface",
			"inputs": [
				{
					"name": "interfaceId",
					"type": "bytes4",
					"internalType": "bytes4"
				}
			],
			"outputs": [
				{
					"name": "",
					"type": "bool",
					"internalType": "bool"
				}
			],
			"stateMutability": "view"
		},
		{
			"type": "function",
			"name": "trustedForwarder",
			"inputs": [],
			"outputs": [
				{
					"name": "",
					"type": "address",
					"internalType": "address"
				}
			],
			"stateMutability": "view"
		},
		{
			"type": "event",
			"name": "DeployRevnet",
			"inputs": [
				{
					"name": "revnetId",
					"type": "uint256",
					"indexed": true,
					"internalType": "uint256"
				},
				{
					"name": "configuration",
					"type": "tuple",
					"indexed": false,
					"internalType": "struct REVConfig",
					"components": [
						{
							"name": "description",
							"type": "tuple",
							"internalType": "struct REVDescription",
							"components": [
								{
									"name": "name",
									"type": "string",
									"internalType": "string"
								},
								{
									"name": "ticker",
									"type": "string",
									"internalType": "string"
								},
								{
									"name": "uri",
									"type": "string",
									"internalType": "string"
								},
								{
									"name": "salt",
									"type": "bytes32",
									"internalType": "bytes32"
								}
							]
						},
						{
							"name": "baseCurrency",
							"type": "uint32",
							"internalType": "uint32"
						},
						{
							"name": "premintTokenAmount",
							"type": "uint256",
							"internalType": "uint256"
						},
						{
							"name": "premintChainId",
							"type": "uint256",
							"internalType": "uint256"
						},
						{
							"name": "initialSplitOperator",
							"type": "address",
							"internalType": "address"
						},
						{
							"name": "stageConfigurations",
							"type": "tuple[]",
							"internalType": "struct REVStageConfig[]",
							"components": [
								{
									"name": "startsAtOrAfter",
									"type": "uint40",
									"internalType": "uint40"
								},
								{
									"name": "splitRate",
									"type": "uint16",
									"internalType": "uint16"
								},
								{
									"name": "initialIssuanceRate",
									"type": "uint112",
									"internalType": "uint112"
								},
								{
									"name": "priceCeilingIncreaseFrequency",
									"type": "uint40",
									"internalType": "uint40"
								},
								{
									"name": "priceCeilingIncreasePercentage",
									"type": "uint32",
									"internalType": "uint32"
								},
								{
									"name": "priceFloorTaxIntensity",
									"type": "uint16",
									"internalType": "uint16"
								}
							]
						}
					]
				},
				{
					"name": "terminalConfigurations",
					"type": "tuple[]",
					"indexed": false,
					"internalType": "struct JBTerminalConfig[]",
					"components": [
						{
							"name": "terminal",
							"type": "address",
							"internalType": "contract IJBTerminal"
						},
						{
							"name": "tokensToAccept",
							"type": "address[]",
							"internalType": "address[]"
						}
					]
				},
				{
					"name": "buybackHookConfiguration",
					"type": "tuple",
					"indexed": false,
					"internalType": "struct REVBuybackHookConfig",
					"components": [
						{
							"name": "hook",
							"type": "address",
							"internalType": "contract IJBBuybackHook"
						},
						{
							"name": "poolConfigurations",
							"type": "tuple[]",
							"internalType": "struct REVBuybackPoolConfig[]",
							"components": [
								{
									"name": "token",
									"type": "address",
									"internalType": "address"
								},
								{
									"name": "fee",
									"type": "uint24",
									"internalType": "uint24"
								},
								{
									"name": "twapWindow",
									"type": "uint32",
									"internalType": "uint32"
								},
								{
									"name": "twapSlippageTolerance",
									"type": "uint32",
									"internalType": "uint32"
								}
							]
						}
					]
				},
				{
					"name": "suckerDeploymentConfiguration",
					"type": "tuple",
					"indexed": false,
					"internalType": "struct REVSuckerDeploymentConfig",
					"components": [
						{
							"name": "deployerConfigurations",
							"type": "tuple[]",
							"internalType": "struct BPSuckerDeployerConfig[]",
							"components": [
								{
									"name": "deployer",
									"type": "address",
									"internalType": "contract IBPSuckerDeployer"
								},
								{
									"name": "mappings",
									"type": "tuple[]",
									"internalType": "struct BPTokenMapping[]",
									"components": [
										{
											"name": "localToken",
											"type": "address",
											"internalType": "address"
										},
										{
											"name": "minGas",
											"type": "uint32",
											"internalType": "uint32"
										},
										{
											"name": "remoteToken",
											"type": "address",
											"internalType": "address"
										},
										{
											"name": "minBridgeAmount",
											"type": "uint256",
											"internalType": "uint256"
										}
									]
								}
							]
						},
						{
							"name": "salt",
							"type": "bytes32",
							"internalType": "bytes32"
						}
					]
				},
				{
					"name": "rulesetConfigurations",
					"type": "tuple[]",
					"indexed": false,
					"internalType": "struct JBRulesetConfig[]",
					"components": [
						{
							"name": "mustStartAtOrAfter",
							"type": "uint256",
							"internalType": "uint256"
						},
						{
							"name": "duration",
							"type": "uint256",
							"internalType": "uint256"
						},
						{
							"name": "weight",
							"type": "uint256",
							"internalType": "uint256"
						},
						{
							"name": "decayRate",
							"type": "uint256",
							"internalType": "uint256"
						},
						{
							"name": "approvalHook",
							"type": "address",
							"internalType": "contract IJBRulesetApprovalHook"
						},
						{
							"name": "metadata",
							"type": "tuple",
							"internalType": "struct JBRulesetMetadata",
							"components": [
								{
									"name": "reservedRate",
									"type": "uint256",
									"internalType": "uint256"
								},
								{
									"name": "redemptionRate",
									"type": "uint256",
									"internalType": "uint256"
								},
								{
									"name": "baseCurrency",
									"type": "uint256",
									"internalType": "uint256"
								},
								{
									"name": "pausePay",
									"type": "bool",
									"internalType": "bool"
								},
								{
									"name": "pauseCreditTransfers",
									"type": "bool",
									"internalType": "bool"
								},
								{
									"name": "allowOwnerMinting",
									"type": "bool",
									"internalType": "bool"
								},
								{
									"name": "allowTerminalMigration",
									"type": "bool",
									"internalType": "bool"
								},
								{
									"name": "allowSetTerminals",
									"type": "bool",
									"internalType": "bool"
								},
								{
									"name": "allowControllerMigration",
									"type": "bool",
									"internalType": "bool"
								},
								{
									"name": "allowSetController",
									"type": "bool",
									"internalType": "bool"
								},
								{
									"name": "holdFees",
									"type": "bool",
									"internalType": "bool"
								},
								{
									"name": "useTotalSurplusForRedemptions",
									"type": "bool",
									"internalType": "bool"
								},
								{
									"name": "useDataHookForPay",
									"type": "bool",
									"internalType": "bool"
								},
								{
									"name": "useDataHookForRedeem",
									"type": "bool",
									"internalType": "bool"
								},
								{
									"name": "dataHook",
									"type": "address",
									"internalType": "address"
								},
								{
									"name": "metadata",
									"type": "uint256",
									"internalType": "uint256"
								}
							]
						},
						{
							"name": "splitGroups",
							"type": "tuple[]",
							"internalType": "struct JBSplitGroup[]",
							"components": [
								{
									"name": "groupId",
									"type": "uint256",
									"internalType": "uint256"
								},
								{
									"name": "splits",
									"type": "tuple[]",
									"internalType": "struct JBSplit[]",
									"components": [
										{
											"name": "preferAddToBalance",
											"type": "bool",
											"internalType": "bool"
										},
										{
											"name": "percent",
											"type": "uint256",
											"internalType": "uint256"
										},
										{
											"name": "projectId",
											"type": "uint256",
											"internalType": "uint256"
										},
										{
											"name": "beneficiary",
											"type": "address",
											"internalType": "address payable"
										},
										{
											"name": "lockedUntil",
											"type": "uint256",
											"internalType": "uint256"
										},
										{
											"name": "hook",
											"type": "address",
											"internalType": "contract IJBSplitHook"
										}
									]
								}
							]
						},
						{
							"name": "fundAccessLimitGroups",
							"type": "tuple[]",
							"internalType": "struct JBFundAccessLimitGroup[]",
							"components": [
								{
									"name": "terminal",
									"type": "address",
									"internalType": "address"
								},
								{
									"name": "token",
									"type": "address",
									"internalType": "address"
								},
								{
									"name": "payoutLimits",
									"type": "tuple[]",
									"internalType": "struct JBCurrencyAmount[]",
									"components": [
										{
											"name": "amount",
											"type": "uint256",
											"internalType": "uint256"
										},
										{
											"name": "currency",
											"type": "uint256",
											"internalType": "uint256"
										}
									]
								},
								{
									"name": "surplusAllowances",
									"type": "tuple[]",
									"internalType": "struct JBCurrencyAmount[]",
									"components": [
										{
											"name": "amount",
											"type": "uint256",
											"internalType": "uint256"
										},
										{
											"name": "currency",
											"type": "uint256",
											"internalType": "uint256"
										}
									]
								}
							]
						}
					]
				},
				{
					"name": "encodedConfiguration",
					"type": "bytes",
					"indexed": false,
					"internalType": "bytes"
				},
				{
					"name": "isInProgress",
					"type": "bool",
					"indexed": false,
					"internalType": "bool"
				},
				{
					"name": "caller",
					"type": "address",
					"indexed": false,
					"internalType": "address"
				}
			],
			"anonymous": false
		},
		{
			"type": "event",
			"name": "DeploySuckers",
			"inputs": [
				{
					"name": "revnetId",
					"type": "uint256",
					"indexed": true,
					"internalType": "uint256"
				},
				{
					"name": "salt",
					"type": "bytes32",
					"indexed": true,
					"internalType": "bytes32"
				},
				{
					"name": "encodedConfiguration",
					"type": "bytes",
					"indexed": false,
					"internalType": "bytes"
				},
				{
					"name": "suckerDeploymentConfiguration",
					"type": "tuple",
					"indexed": false,
					"internalType": "struct REVSuckerDeploymentConfig",
					"components": [
						{
							"name": "deployerConfigurations",
							"type": "tuple[]",
							"internalType": "struct BPSuckerDeployerConfig[]",
							"components": [
								{
									"name": "deployer",
									"type": "address",
									"internalType": "contract IBPSuckerDeployer"
								},
								{
									"name": "mappings",
									"type": "tuple[]",
									"internalType": "struct BPTokenMapping[]",
									"components": [
										{
											"name": "localToken",
											"type": "address",
											"internalType": "address"
										},
										{
											"name": "minGas",
											"type": "uint32",
											"internalType": "uint32"
										},
										{
											"name": "remoteToken",
											"type": "address",
											"internalType": "address"
										},
										{
											"name": "minBridgeAmount",
											"type": "uint256",
											"internalType": "uint256"
										}
									]
								}
							]
						},
						{
							"name": "salt",
							"type": "bytes32",
							"internalType": "bytes32"
						}
					]
				},
				{
					"name": "caller",
					"type": "address",
					"indexed": false,
					"internalType": "address"
				}
			],
			"anonymous": false
		},
		{
			"type": "event",
			"name": "ReplaceSplitOperator",
			"inputs": [
				{
					"name": "revnetId",
					"type": "uint256",
					"indexed": true,
					"internalType": "uint256"
				},
				{
					"name": "newSplitOperator",
					"type": "address",
					"indexed": true,
					"internalType": "address"
				},
				{
					"name": "caller",
					"type": "address",
					"indexed": false,
					"internalType": "address"
				}
			],
			"anonymous": false
		},
		{
			"type": "error",
			"name": "REVBasicDeployer_ExitDelayInEffect",
			"inputs": []
		},
		{
			"type": "error",
			"name": "REVBasicDeployer_Unauthorized",
			"inputs": []
		}
	],
	"solcInputHash": "e375084179cd92018a55327e422b1ddf",
	"args": [
		"0x799D42391ed21894b105590300EEd66255d72225",
		"0x3F209aB51b59Bc6C2c9C2f2147d3d51E29A862d7",
		"0xB2b5841DBeF766d4b521221732F9B618fCf34A87"
	],
	"bytecode": "0x60e06040523480156200001157600080fd5b50604051620042f9380380620042f98339810160408190526200003491620000bc565b6001600160a01b0390811660805291821660a0521660c0526002805460018181018355600083905260117f405787fa12a823e0f2b7631cc41b3ba8828b3321ca811111fa75cd3aa3bb5ace92830155825480820184556019908301558254908101909255600691015562000110565b6001600160a01b0381168114620000b957600080fd5b50565b600080600060608486031215620000d257600080fd5b8351620000df81620000a3565b6020850151909350620000f281620000a3565b60408501519092506200010581620000a3565b809150509250925092565b60805160a05160c051614134620001c5600039600081816102c701528181610900015281816109e901528181610d0401528181611804015261192a015260008181610316015281816103a501528181610b1801528181610ddc01528181610f55015281816110d0015281816112a801528181611375015281816114650152818161152d015281816115f0015281816116ed015261183f0152600081816101cb01528181610271015261229901526141346000f3fe608060405234801561001057600080fd5b50600436106101005760003560e01c80637249a77311610097578063b5d2553311610066578063b5d25533146102c2578063bb199402146102e9578063eb5ad9d9146102fe578063ee0fc1211461031157600080fd5b80637249a7731461022e5780637da0a8771461026f5780639d82ba2514610295578063aaf320d71461029f57600080fd5b80634c4ffc71116100d35780634c4ffc711461019a578063572b6c05146101bb5780635c0a7cee146101fb578063677ce0881461021b57600080fd5b806301ffc9a714610105578063150b7a021461012d5780631d3eedaa1461015957806343681e151461017a575b600080fd5b6101186101133660046123f5565b610338565b60405190151581526020015b60405180910390f35b61014061013b36600461244e565b6103a1565b6040516001600160e01b03199091168152602001610124565b61016c610167366004612c4c565b61046d565b604051908152602001610124565b61016c610188366004612d8b565b60016020526000908152604090205481565b6101ad6101a8366004612da4565b610489565b604051610124929190612ea4565b6101186101c9366004612ec5565b7f00000000000000000000000000000000000000000000000000000000000000006001600160a01b0390811691161490565b61020e610209366004612d8b565b610780565b6040516101249190612ee2565b610118610229366004612ef5565b6108a4565b61025761023c366004612d8b565b6000602081905290815260409020546001600160a01b031681565b6040516001600160a01b039091168152602001610124565b7f0000000000000000000000000000000000000000000000000000000000000000610257565b61016c6276a70081565b6102b26102ad366004612f25565b6109d9565b6040516101249493929190612f61565b6102577f000000000000000000000000000000000000000000000000000000000000000081565b6102fc6102f7366004613001565b610b16565b005b6102fc61030c366004612ef5565b610dcd565b6102577f000000000000000000000000000000000000000000000000000000000000000081565b60006001600160e01b031982167f81c03c2e00000000000000000000000000000000000000000000000000000000148061039b57507f01ffc9a7000000000000000000000000000000000000000000000000000000006001600160e01b03198316145b92915050565b60007f00000000000000000000000000000000000000000000000000000000000000006001600160a01b031663293c49996040518163ffffffff1660e01b8152600401602060405180830381865afa158015610401573d6000803e3d6000fd5b505050506040513d601f19601f820116820180604052508101906104259190613085565b6001600160a01b0316336001600160a01b03161461044257600080fd5b507f150b7a020000000000000000000000000000000000000000000000000000000095945050505050565b600061047f8686868630600088611287565b9695505050505050565b60c081013560009081526020819052604081205460609081906001600160a01b03168015610541576040517f4c4ffc710000000000000000000000000000000000000000000000000000000081526001600160a01b03821690634c4ffc71906104f690889060040161314d565b600060405180830381865afa158015610513573d6000803e3d6000fd5b505050506040513d6000823e601f3d908101601f1916820160405261053b919081019061321e565b90945091505b815160c086013560009081526004602090815260408083208054825181850281018501909352808352941515949192909190849084015b8282101561065c576000848152602090819020604080516060810182526003860290920180546001600160a01b03168352600181015493830193909352600283018054929392918401916105cb90613366565b80601f01602080910402602001604051908101604052809291908181526020018280546105f790613366565b80156106445780601f1061061957610100808354040283529160200191610644565b820191906000526020600020905b81548152906001019060200180831161062757829003601f168201915b50505050508152505081526020019060010190610578565b50505050905060008151905082610674576000610677565b60015b6106849060ff16826133b6565b67ffffffffffffffff81111561069c5761069c6124ed565b6040519080825280602002602001820160405280156106e957816020015b604080516060808201835260008083526020830152918101919091528152602001906001900390816106ba5790505b50955060005b8181101561073657828181518110610709576107096133c9565b6020026020010151878281518110610723576107236133c9565b60209081029190910101526001016106ef565b5082156107765784600081518110610750576107506133c9565b602002602001015186828151811061076a5761076a6133c9565b60200260200101819052505b5050505050915091565b606060046000838152602001908152602001600020805480602002602001604051908101604052809291908181526020016000905b82821015610899576000848152602090819020604080516060810182526003860290920180546001600160a01b031683526001810154938301939093526002830180549293929184019161080890613366565b80601f016020809104026020016040519081016040528092919081815260200182805461083490613366565b80156108815780601f1061085657610100808354040283529160200191610881565b820191906000526020600020905b81548152906001019060200180831161086457829003601f168201915b505050505081525050815260200190600101906107b5565b505050509050919050565b6000828152602081905260408120546001600160a01b03908116908316036108ce5750600161039b565b6040517f3d12cb87000000000000000000000000000000000000000000000000000000008152600481018490526000907f00000000000000000000000000000000000000000000000000000000000000006001600160a01b031690633d12cb8790602401600060405180830381865afa15801561094f573d6000803e3d6000fd5b505050506040513d6000823e601f3d908101601f1916820160405261097791908101906133df565b805190915060005b818110156109cd57828181518110610999576109996133c9565b60200260200101516001600160a01b0316856001600160a01b0316036109c5576001935050505061039b565b60010161097f565b50600095945050505050565b6000808060606001600160a01b037f0000000000000000000000000000000000000000000000000000000000000000166383db9d0160408701803590610a229060208a01612ec5565b6040516001600160e01b031960e085901b16815260048101929092526001600160a01b03166024820152604401602060405180830381865afa158015610a6c573d6000803e3d6000fd5b505050506040513d601f19601f82011682018060405250810190610a909190613479565b15610aad5761271085608001358660a00135935093509350610b0f565b604080860135600090815260016020522054421015610af8576040517f04c3b3cd00000000000000000000000000000000000000000000000000000000815260040160405180910390fd5b84610160013585608001358660a001359350935093505b9193509193565b7f00000000000000000000000000000000000000000000000000000000000000006001600160a01b0316631f47ce696040518163ffffffff1660e01b8152600401602060405180830381865afa158015610b74573d6000803e3d6000fd5b505050506040513d601f19601f82011682018060405250810190610b989190613085565b6001600160a01b031663f434c9146040518163ffffffff1660e01b8152600401602060405180830381865afa158015610bd5573d6000803e3d6000fd5b505050506040513d601f19601f82011682018060405250810190610bf99190613085565b6001600160a01b0316630f5932f0610c0f611a58565b3086610c1a88611a67565b6040518563ffffffff1660e01b8152600401610c3994939291906134d7565b602060405180830381865afa158015610c56573d6000803e3d6000fd5b505050506040513d601f19601f82011682018060405250810190610c7a9190613479565b610c97576040516331fb21f360e01b815260040160405180910390fd5b6000610ca1611a58565b838360200151604051602001610cb993929190613509565b60408051601f1981840301815290829052805160209091012083517f2f3f50e00000000000000000000000000000000000000000000000000000000083529092506001600160a01b037f00000000000000000000000000000000000000000000000000000000000000001691632f3f50e091610d3b9188918691600401613613565b6000604051808303816000875af1158015610d5a573d6000803e3d6000fd5b505050506040513d6000823e601f3d908101601f19168201604052610d8291908101906133df565b5080847f755ecfca2f6e66af8868551556bf7931740a7062db8e0882f4c322fdb0bb3f608585610db0611a58565b604051610dbf9392919061365b565b60405180910390a350505050565b6000610dd883611a67565b90507f00000000000000000000000000000000000000000000000000000000000000006001600160a01b0316631f47ce696040518163ffffffff1660e01b8152600401602060405180830381865afa158015610e38573d6000803e3d6000fd5b505050506040513d601f19601f82011682018060405250810190610e5c9190613085565b6001600160a01b031663f434c9146040518163ffffffff1660e01b8152600401602060405180830381865afa158015610e99573d6000803e3d6000fd5b505050506040513d601f19601f82011682018060405250810190610ebd9190613085565b6001600160a01b0316630f5932f0610ed3611a58565b3086856040518563ffffffff1660e01b8152600401610ef594939291906134d7565b602060405180830381865afa158015610f12573d6000803e3d6000fd5b505050506040513d601f19601f82011682018060405250810190610f369190613479565b610f53576040516331fb21f360e01b815260040160405180910390fd5b7f00000000000000000000000000000000000000000000000000000000000000006001600160a01b0316631f47ce696040518163ffffffff1660e01b8152600401602060405180830381865afa158015610fb1573d6000803e3d6000fd5b505050506040513d601f19601f82011682018060405250810190610fd59190613085565b6001600160a01b031663f434c9146040518163ffffffff1660e01b8152600401602060405180830381865afa158015611012573d6000803e3d6000fd5b505050506040513d601f19601f820116820180604052508101906110369190613085565b6001600160a01b03166305d2912e306040518060600160405280611058611a58565b6001600160a01b0316815260208082018990526040805160008152918201815291820152516001600160e01b031960e085901b16815261109c92919060040161369a565b600060405180830381600087803b1580156110b657600080fd5b505af11580156110ca573d6000803e3d6000fd5b505050507f00000000000000000000000000000000000000000000000000000000000000006001600160a01b0316631f47ce696040518163ffffffff1660e01b8152600401602060405180830381865afa15801561112c573d6000803e3d6000fd5b505050506040513d601f19601f820116820180604052508101906111509190613085565b6001600160a01b031663f434c9146040518163ffffffff1660e01b8152600401602060405180830381865afa15801561118d573d6000803e3d6000fd5b505050506040513d601f19601f820116820180604052508101906111b19190613085565b6001600160a01b03166305d2912e306040518060600160405280866001600160a01b03168152602001878152602001858152506040518363ffffffff1660e01b815260040161120192919061369a565b600060405180830381600087803b15801561121b57600080fd5b505af115801561122f573d6000803e3d6000fd5b50505050816001600160a01b0316837f0329d6a81434b130c72eb65eea0e32e429dc1277b4aad86ec86454aefb618451611267611a58565b6040516001600160a01b03909116815260200160405180910390a3505050565b6000806000806112988a8888611c1f565b9250925092508a600003611373577f00000000000000000000000000000000000000000000000000000000000000006001600160a01b0316630634bae9308c6000015160400151868d8f60000151602001516040516020016112fa91906136dd565b6040516020818303038152906040526040518663ffffffff1660e01b8152600401611329959493929190613b0b565b6020604051808303816000875af1158015611348573d6000803e3d6000fd5b505050506040513d601f19601f8201168201806040525081019061136c9190613b73565b9a50611431565b7f00000000000000000000000000000000000000000000000000000000000000006001600160a01b0316631ea7bc8c8c858c8e60000151602001516040516020016113be91906136dd565b6040516020818303038152906040526040518563ffffffff1660e01b81526004016113ec9493929190613b8c565b6020604051808303816000875af115801561140b573d6000803e3d6000fd5b505050506040513d601f19601f8201168201806040525081019061142f9190613b73565b505b80806114415750468a6060015114155b15611463576114536276a700426133b6565b60008c8152600160205260409020555b7f00000000000000000000000000000000000000000000000000000000000000006001600160a01b031663581781918c8c60000151600001518d60000151602001518e60000151606001516040518563ffffffff1660e01b81526004016114cd9493929190613bcb565b6020604051808303816000875af11580156114ec573d6000803e3d6000fd5b505050506040513d601f19601f820116820180604052508101906115109190613085565b5087516001600160a01b03161561152b5761152b8b89611fe0565b7f00000000000000000000000000000000000000000000000000000000000000006001600160a01b031663dd5f214a8c600061156a8e6080015161214b565b6040518463ffffffff1660e01b815260040161158893929190613c08565b600060405180830381600087803b1580156115a257600080fd5b505af11580156115b6573d6000803e3d6000fd5b50505050600060405180606001604052808c608001516001600160a01b031681526020018d81526020016115e98e611a67565b81525090507f00000000000000000000000000000000000000000000000000000000000000006001600160a01b031663f434c9146040518163ffffffff1660e01b8152600401602060405180830381865afa15801561164c573d6000803e3d6000fd5b505050506040513d601f19601f820116820180604052508101906116709190613085565b6001600160a01b03166305d2912e30836040518363ffffffff1660e01b815260040161169d92919061369a565b600060405180830381600087803b1580156116b757600080fd5b505af11580156116cb573d6000803e3d6000fd5b5050505060008b604001511180156116e65750468b60600151145b156117b4577f00000000000000000000000000000000000000000000000000000000000000006001600160a01b031663c7fb92de8d8d604001518e608001518f600001516020015160405160200161173e9190613cf7565b60405160208183030381529060405260006040518663ffffffff1660e01b815260040161176f959493929190613d47565b6020604051808303816000875af115801561178e573d6000803e3d6000fd5b505050506040513d601f19601f820116820180604052508101906117b29190613b73565b505b60408051600180825281830190925260009160208083019080368337019050509050601c816000815181106117eb576117eb6133c9565b60200260200101818152505060405180606001604052807f00000000000000000000000000000000000000000000000000000000000000006001600160a01b031681526020018e81526020018281525091507f00000000000000000000000000000000000000000000000000000000000000006001600160a01b031663f434c9146040518163ffffffff1660e01b8152600401602060405180830381865afa15801561189b573d6000803e3d6000fd5b505050506040513d601f19601f820116820180604052508101906118bf9190613085565b6001600160a01b03166305d2912e30846040518363ffffffff1660e01b81526004016118ec92919061369a565b600060405180830381600087803b15801561190657600080fd5b505af115801561191a573d6000803e3d6000fd5b505050506020870151156119fa577f00000000000000000000000000000000000000000000000000000000000000006001600160a01b0316632f3f50e08e611960611a58565b878b6020015160405160200161197893929190613509565b60408051601f198184030181529082905280516020909101208b516001600160e01b031960e086901b1683526119b19392600401613613565b6000604051808303816000875af11580156119d0573d6000803e3d6000fd5b505050506040513d6000823e601f3d908101601f191682016040526119f891908101906133df565b505b8c7f4b827371715024f69a0bc98c8df6edafe6e471e78488ab1b3849de72f66b12e08d8d8d8b8a8a8a611a2b611a58565b604051611a3f989796959493929190613eaa565b60405180910390a2509a9b9a5050505050505050505050565b6000611a62612289565b905090565b606060006002805480602002602001604051908101604052809291908181526020018280548015611ab757602002820191906000526020600020905b815481526020019060010190808311611aa3575b50508351600088815260036020908152604080832080548251818502810185019093528083529899509397929650945091925090830182828015611b1a57602002820191906000526020600020905b815481526020019060010190808311611b06575b50508351939450611b3192508391508590506133b6565b67ffffffffffffffff811115611b4957611b496124ed565b604051908082528060200260200182016040528015611b72578160200160208202803683370190505b50945060005b83811015611bbf57848181518110611b9257611b926133c9565b6020026020010151868281518110611bac57611bac6133c9565b6020908102919091010152600101611b78565b5060005b81811015611c1557828181518110611bdd57611bdd6133c9565b6020026020010151868286611bf291906133b6565b81518110611c0257611c026133c9565b6020908102919091010152600101611bc3565b5050505050919050565b6060806000808660a001515190508067ffffffffffffffff811115611c4657611c466124ed565b604051908082528060200260200182016040528015611d3857816020015b611d256040805161010080820183526000808352602080840182905283850182905260608085018390526080808601849052865161020081018852848152928301849052958201839052810182905293840181905260a084810182905260c0850182905260e0850182905291840181905261012084018190526101408401819052610160840181905261018084018190526101a084018190526101c084018190526101e0840152909190820190815260200160608152602001606081525090565b815260200190600190039081611c645790505b509350611d44876122fe565b6040805160c081018252600080825260208201819052918101829052606081018290526080810182905260a081018290529194505b82811015611fd4578860a001518181518110611d9757611d976133c9565b60200260200101519150816000015164ffffffffff16868281518110611dbf57611dbf6133c9565b60200260200101516000018181525050816060015164ffffffffff16868281518110611ded57611ded6133c9565b6020026020010151602001818152505081604001516dffffffffffffffffffffffffffff16868281518110611e2457611e246133c9565b60200260200101516040018181525050816080015163ffffffff16868281518110611e5157611e516133c9565b602002602001015160600181815250506000868281518110611e7557611e756133c9565b6020026020010151608001906001600160a01b031690816001600160a01b031681525050604051806102000160405280836020015161ffff1681526020018360a0015161ffff16612710611ec99190614013565b815260208b81015163ffffffff16908201526000604082018190526060820181905260016080830181905260a0830182905260c0830182905260e083018290526101008301829052610120830182905261014083018290526101608301526101808201526001600160a01b038a166101a08201526101c0018890528651879083908110611f5857611f586133c9565b602002602001015160a00181905250806000148015611f7e5750815164ffffffffff1615155b8015611f94575042826000015164ffffffffff16105b15611f9e57600193505b84611fa9838361233f565b604051602001611fba929190614026565b60408051601f198184030181529190529450600101611d79565b50505093509350939050565b602081810151516040805160808101825260008082529381018490529081018390526060810183905290915b828110156120ff578360200151818151811061202a5761202a6133c9565b6020908102919091018101518551918101516040808301516060840151845192517f7b621d3a000000000000000000000000000000000000000000000000000000008152600481018c905262ffffff909416602485015263ffffffff91821660448501521660648301526001600160a01b039081166084830152919450911690637b621d3a9060a4016020604051808303816000875af11580156120d2573d6000803e3d6000fd5b505050506040513d601f19601f820116820180604052508101906120f69190613085565b5060010161200c565b5050905160009283526020839052604090922080547fffffffffffffffffffffffff0000000000000000000000000000000000000000166001600160a01b039093169290921790915550565b604080516001808252818301909252606091816020015b60408051808201909152600081526060602082015281526020019060019003908161216257505060408051600180825281830190925291925060009190602082015b6040805160c08101825260008082526020808301829052928201819052606082018190526080820181905260a082015282526000199092019101816121a45790505090506040518060c00160405280600015158152602001633b9aca00815260200160008152602001846001600160a01b031681526020016000815260200160006001600160a01b031681525081600081518110612244576122446133c9565b60200260200101819052506040518060400160405280600181526020018281525082600081518110612278576122786133c9565b602002602001018190525050919050565b6000366014336001600160a01b037f0000000000000000000000000000000000000000000000000000000000000000161480156122c65750808210155b156122f6576000366122d88385614013565b6122e3928290614055565b6122ec9161407f565b60601c9250505090565b339250505090565b60208082015160608381015184518051818601519184015160405194966123299695929392016140b4565b6040516020818303038152906040529050919050565b6060811580156123555750825164ffffffffff16155b61236757825164ffffffffff16612369565b425b83602001518460400151856060015186608001518760a001516040516020016123de9695949392919095865261ffff94851660208701526dffffffffffffffffffffffffffff93909316604086015264ffffffffff91909116606085015263ffffffff1660808401521660a082015260c00190565b604051602081830303815290604052905092915050565b60006020828403121561240757600080fd5b81356001600160e01b03198116811461241f57600080fd5b9392505050565b6001600160a01b038116811461243b57600080fd5b50565b803561244981612426565b919050565b60008060008060006080868803121561246657600080fd5b853561247181612426565b9450602086013561248181612426565b935060408601359250606086013567ffffffffffffffff808211156124a557600080fd5b818801915088601f8301126124b957600080fd5b8135818111156124c857600080fd5b8960208285010111156124da57600080fd5b9699959850939650602001949392505050565b634e487b7160e01b600052604160045260246000fd5b6040516080810167ffffffffffffffff81118282101715612526576125266124ed565b60405290565b60405160c0810167ffffffffffffffff81118282101715612526576125266124ed565b6040805190810167ffffffffffffffff81118282101715612526576125266124ed565b6040516060810167ffffffffffffffff81118282101715612526576125266124ed565b604051601f8201601f1916810167ffffffffffffffff811182821017156125be576125be6124ed565b604052919050565b600067ffffffffffffffff8211156125e0576125e06124ed565b50601f01601f191660200190565b60006126016125fc846125c6565b612595565b905082815283838301111561261557600080fd5b828260208301376000602084830101529392505050565b600082601f83011261263d57600080fd5b61241f838335602085016125ee565b60006080828403121561265e57600080fd5b612666612503565b9050813567ffffffffffffffff8082111561268057600080fd5b61268c8583860161262c565b835260208401359150808211156126a257600080fd5b6126ae8583860161262c565b602084015260408401359150808211156126c757600080fd5b506126d48482850161262c565b6040830152506060820135606082015292915050565b803563ffffffff8116811461244957600080fd5b600067ffffffffffffffff821115612718576127186124ed565b5060051b60200190565b803564ffffffffff8116811461244957600080fd5b803561ffff8116811461244957600080fd5b600082601f83011261275a57600080fd5b8135602061276a6125fc836126fe565b82815260c0928302850182019282820191908785111561278957600080fd5b8387015b8581101561282e5781818a0312156127a55760008081fd5b6127ad61252c565b6127b682612722565b81526127c3868301612737565b868201526040808301356dffffffffffffffffffffffffffff811681146127ea5760008081fd5b9082015260606127fb838201612722565b90820152608061280c8382016126ea565b9082015260a061281d838201612737565b90820152845292840192810161278d565b5090979650505050505050565b600082601f83011261284c57600080fd5b8135602061285c6125fc836126fe565b828152600592831b850182019282820191908785111561287b57600080fd5b8387015b8581101561282e57803567ffffffffffffffff808211156128a05760008081fd5b908901906040828c03601f19018113156128ba5760008081fd5b6128c261254f565b888401356128cf81612426565b815283820135838111156128e35760008081fd5b8085019450508c603f8501126128fb57600092508283fd5b88840135925061290d6125fc846126fe565b83815292861b8401820192898101908e85111561292a5760008081fd5b948301945b84861015612954578535935061294484612426565b838252948a0194908a019061292f565b828b015250875250505092840192840161287f565b6000604080838503121561297c57600080fd5b61298461254f565b9150823561299181612426565b825260208381013567ffffffffffffffff8111156129ae57600080fd5b8401601f810186136129bf57600080fd5b80356129cd6125fc826126fe565b81815260079190911b820183019083810190888311156129ec57600080fd5b928401925b82841015612a6b576080848a031215612a0a5760008081fd5b612a12612503565b8435612a1d81612426565b81528486013562ffffff81168114612a355760008081fd5b81870152612a448588016126ea565b878201526060612a558187016126ea565b90820152825260809390930192908401906129f1565b808588015250505050505092915050565b600060408284031215612a8e57600080fd5b612a9661254f565b905067ffffffffffffffff8083351115612aaf57600080fd5b8235830184601f820112612ac257600080fd5b612acf6125fc82356126fe565b81358082526020808301929160051b84010187811115612aee57600080fd5b602084015b81811015612c33578581351115612b0957600080fd5b803585016040818b03601f19011215612b2157600080fd5b612b2961254f565b612b366020830135612426565b602082013581528760408301351115612b4e57600080fd5b6040820135820191508a603f830112612b6657600080fd5b6020820135612b776125fc826126fe565b81815260079190911b83016040019060208101908d831115612b9857600080fd5b6040850194505b82851015612c14576080858f031215612bb757600080fd5b612bbf612503565b612bc98635612426565b85358152612bd9602087016126ea565b6020820152612beb6040870135612426565b604086013560408201526060860135606082015280835250602082019150608085019450612b9f565b8060208501525050508086525050602084019350602081019050612af3565b5050808552505050506020820135602082015292915050565b600080600080600060a08688031215612c6457600080fd5b85359450602086013567ffffffffffffffff80821115612c8357600080fd5b9087019060c0828a031215612c9757600080fd5b612c9f61252c565b823582811115612cae57600080fd5b612cba8b82860161264c565b825250612cc9602084016126ea565b60208201526040830135604082015260608301356060820152612cee6080840161243e565b608082015260a083013582811115612d0557600080fd5b612d118b828601612749565b60a08301525095506040880135915080821115612d2d57600080fd5b612d3989838a0161283b565b94506060880135915080821115612d4f57600080fd5b612d5b89838a01612969565b93506080880135915080821115612d7157600080fd5b50612d7e88828901612a7c565b9150509295509295909350565b600060208284031215612d9d57600080fd5b5035919050565b600060208284031215612db657600080fd5b813567ffffffffffffffff811115612dcd57600080fd5b8201610180818503121561241f57600080fd5b60005b83811015612dfb578181015183820152602001612de3565b50506000910152565b60008151808452612e1c816020860160208601612de0565b601f01601f19169290920160200192915050565b600082825180855260208086019550808260051b84010181860160005b8481101561282e57858303601f19018952815180516001600160a01b031684528481015185850152604090810151606091850182905290612e9081860183612e04565b9a86019a9450505090830190600101612e4d565b828152604060208201526000612ebd6040830184612e30565b949350505050565b600060208284031215612ed757600080fd5b813561241f81612426565b60208152600061241f6020830184612e30565b60008060408385031215612f0857600080fd5b823591506020830135612f1a81612426565b809150509250929050565b600060208284031215612f3757600080fd5b813567ffffffffffffffff811115612f4e57600080fd5b82016101a0818503121561241f57600080fd5b60006080820186835260208681850152604086604086015260606080606087015283875180865260a08801915060a08160051b890101955084890160005b82811015612fef57898803609f19018452815180516001600160a01b0316895287810151888a0152860151868901869052612fdc868a0182612e04565b9850509286019290860190600101612f9f565b50959c9b505050505050505050505050565b60008060006060848603121561301657600080fd5b83359250602084013567ffffffffffffffff8082111561303557600080fd5b818601915086601f83011261304957600080fd5b613058878335602085016125ee565b9350604086013591508082111561306e57600080fd5b5061307b86828701612a7c565b9150509250925092565b60006020828403121561309757600080fd5b815161241f81612426565b80356130ad81612426565b6001600160a01b031682526020818101359083015260408082013590830152606090810135910152565b6000808335601e198436030181126130ee57600080fd5b830160208101925035905067ffffffffffffffff81111561310e57600080fd5b80360382131561311d57600080fd5b9250929050565b81835281816020850137506000828201602090810191909152601f909101601f19169091010190565b6020815261316e602082016131618461243e565b6001600160a01b03169052565b600061317c6020840161243e565b6001600160a01b03811660408401525061319c60608301604085016130a2565b60c083013560e083015261010060e0840135818401526131bd81850161243e565b90506101206131d6818501836001600160a01b03169052565b610140915080850135828501525061016081850135818501526131fb818601866130d7565b61018086810152925090506132156101a085018383613124565b95945050505050565b600080604080848603121561323257600080fd5b8351925060208085015167ffffffffffffffff8082111561325257600080fd5b818701915087601f83011261326657600080fd5b81516132746125fc826126fe565b81815260059190911b8301840190848101908a83111561329357600080fd5b8585015b83811015613354578051858111156132ae57600080fd5b86016060818e03601f190112156132c55760008081fd5b6132cd612572565b888201516132da81612426565b8152818a0151898201526060820151878111156132f75760008081fd5b8083019250508d603f83011261330d5760008081fd5b8882015161331d6125fc826125c6565b8181528f8c8386010111156133325760008081fd5b613341828c83018e8701612de0565b828c015250845250918601918601613297565b50809750505050505050509250929050565b600181811c9082168061337a57607f821691505b60208210810361339a57634e487b7160e01b600052602260045260246000fd5b50919050565b634e487b7160e01b600052601160045260246000fd5b8082018082111561039b5761039b6133a0565b634e487b7160e01b600052603260045260246000fd5b600060208083850312156133f257600080fd5b825167ffffffffffffffff81111561340957600080fd5b8301601f8101851361341a57600080fd5b80516134286125fc826126fe565b81815260059190911b8201830190838101908783111561344757600080fd5b928401925b8284101561346e57835161345f81612426565b8252928401929084019061344c565b979650505050505050565b60006020828403121561348b57600080fd5b8151801515811461241f57600080fd5b60008151808452602080850194506020840160005b838110156134cc578151875295820195908201906001016134b0565b509495945050505050565b60006001600160a01b0380871683528086166020840152508360408301526080606083015261047f608083018461349b565b6bffffffffffffffffffffffff198460601b16815260008351613533816014850160208801612de0565b60149201918201929092526034019392505050565b600082825180855260208086019550808260051b8401018186016000805b8581101561360557868403601f19018a52825180516001600160a01b03908116865290860151604087870181905281518188018190529188019290916060919082890190875b818110156135ed5786518051851684528c81015163ffffffff168d8501528681015185168785015285015185840152958b01956080909201916001016135ac565b50509d89019d97505050938601935050600101613566565b509198975050505050505050565b8381528260208201526060604082015260006132156060830184613548565b60008151604084526136476040850182613548565b602093840151949093019390935250919050565b60608152600061366e6060830186612e04565b82810360208401526136808186613632565b9150506001600160a01b0383166040830152949350505050565b60006001600160a01b03808516835260406020840152808451166040840152506020830151606083015260408301516060608084015261321560a084018261349b565b600960fa1b8152600082516136f9816001850160208701612de0565b7f207265766e6574206465706c6f796564000000000000000000000000000000006001939091019283015250601101919050565b8051825260208101516020830152604081015160408301526060810151613758606084018215159052565b50608081015161376c608084018215159052565b5060a081015161378060a084018215159052565b5060c081015161379460c084018215159052565b5060e08101516137a860e084018215159052565b5061010081810151151590830152610120808201511515908301526101408082015115159083015261016080820151151590830152610180808201511515908301526101a0808201511515908301526101c0808201516001600160a01b0316908301526101e090810151910152565b600082825180855260208086019550808260051b8401018186016000805b8581101561360557868403601f19018a52825180518552850151604086860181905281518187018190529187019160609081880190865b818110156138c65785518051151584528b8101518c8501528581015186850152848101516001600160a01b03908116868601526080808301519086015260a0918201511690840152948a019460c09092019160010161386c565b50509c88019c965050509285019250600101613835565b60008151808452602080850194506020840160005b838110156134cc5781518051885283015183880152604090960195908201906001016138f2565b600082825180855260208086019550808260051b84010181860160005b8481101561282e57601f19868403018952815160806001600160a01b038083511686528087840151168787015250604080830151828288015261397b838801826138dd565b925050506060808301519250858203818701525061399981836138dd565b9a86019a9450505090830190600101613936565b600082825180855260208086019550808260051b84010181860160005b8481101561282e57858303601f19018952815180518452848101518585015260408082015190850152606080820151908501526080808201516001600160a01b03169085015260a0808201516102e09190613a278288018261372d565b505060c0820151816102a0870152613a4182870182613817565b91505060e082015191508481036102c0860152613a5e8183613919565b9a86019a94505050908301906001016139ca565b600082825180855260208086019550808260051b8401018186016000805b8581101561360557868403601f19018a52825180516001600160a01b03908116865290860151604087870181905281519087018190529087019160608701918591905b80831015613af557845182168452938901939289019260019290920191613ad3565b5050509a86019a94505091840191600101613a90565b6001600160a01b038616815260a060208201526000613b2d60a0830187612e04565b8281036040840152613b3f81876139ad565b90508281036060840152613b538186613a72565b90508281036080840152613b678185612e04565b98975050505050505050565b600060208284031215613b8557600080fd5b5051919050565b848152608060208201526000613ba560808301866139ad565b8281036040840152613bb78186613a72565b9050828103606084015261346e8185612e04565b848152608060208201526000613be46080830186612e04565b8281036040840152613bf68186612e04565b91505082606083015295945050505050565b600060608083018684526020868186015260406060604087015282875180855260808801915060808160051b890101945083890160005b82811015613ce657898703607f190184528151805188528601518688018690528051868901819052908701906000908a8a01905b80831015613cd15783518051151583528a8101518b840152898101518a8401528c8101516001600160a01b039081168e8501526080808301519085015260a0918201511690830152928901926001929092019160c090910190613c73565b50985050509285019290850190600101613c3f565b50949b9a5050505050505050505050565b600960fa1b815260008251613d13816001850160208701612de0565b7f207072656d696e746564000000000000000000000000000000000000000000006001939091019283015250600b01919050565b8581528460208201526001600160a01b038416604082015260a060608201526000613d7560a0830185612e04565b905082151560808301529695505050505050565b60008151808452602080850194506020840160005b838110156134cc578151805164ffffffffff90811689528482015161ffff908116868b01526040808401516dffffffffffffffffffffffffffff16908b0152606080840151909216918a019190915260808083015163ffffffff16908a015260a091820151169088015260c09096019590820190600101613d9e565b600060408084016001600160a01b038085511686526020808601516040828901528381518086526060955060608a019150838301925060005b81811015613e9b5783518051871684528581015162ffffff16868501528881015163ffffffff9081168a86015290880151168784015292840192608090920191600101613e53565b50909998505050505050505050565b60006101008083528a5160c0828501528051915060806101c0850152613ed4610240850183612e04565b915060208101516101bf1980868503016101e0870152613ef48483612e04565b935060408301519150808685030161020087015250613f138382612e04565b92505060608101516102208501525060208b0151613f3a61012085018263ffffffff169052565b5060408b015161014084015260608b015161016084015260808b01516001600160a01b031661018084015260a08b015183820360ff19016101a0850152613f818282613d89565b9150508281036020840152613f96818b613a72565b90508281036040840152613faa818a613e1a565b90508281036060840152613fbe8189613632565b90508281036080840152613fd281886139ad565b905082810360a0840152613fe68187612e04565b915050613ff760c083018515159052565b6001600160a01b03831660e08301529998505050505050505050565b8181038181111561039b5761039b6133a0565b60008351614038818460208801612de0565b83519083019061404c818360208801612de0565b01949350505050565b6000808585111561406557600080fd5b8386111561407257600080fd5b5050820193919092039150565b6bffffffffffffffffffffffff1981358181169160148510156140ac5780818660140360031b1b83161692505b505092915050565b63ffffffff8616815284602082015260a0604082015260006140d960a0830186612e04565b82810360608401526140eb8186612e04565b915050826080830152969550505050505056fea2646970667358221220f13469abdbdb2f148e15961ebfae3fd6fc9f821034f917e6a60e4a14264c34de64736f6c63430008170033",
	"deployedBytecode": "0x608060405234801561001057600080fd5b50600436106101005760003560e01c80637249a77311610097578063b5d2553311610066578063b5d25533146102c2578063bb199402146102e9578063eb5ad9d9146102fe578063ee0fc1211461031157600080fd5b80637249a7731461022e5780637da0a8771461026f5780639d82ba2514610295578063aaf320d71461029f57600080fd5b80634c4ffc71116100d35780634c4ffc711461019a578063572b6c05146101bb5780635c0a7cee146101fb578063677ce0881461021b57600080fd5b806301ffc9a714610105578063150b7a021461012d5780631d3eedaa1461015957806343681e151461017a575b600080fd5b6101186101133660046123f5565b610338565b60405190151581526020015b60405180910390f35b61014061013b36600461244e565b6103a1565b6040516001600160e01b03199091168152602001610124565b61016c610167366004612c4c565b61046d565b604051908152602001610124565b61016c610188366004612d8b565b60016020526000908152604090205481565b6101ad6101a8366004612da4565b610489565b604051610124929190612ea4565b6101186101c9366004612ec5565b7f000000000000000000000000b2b5841dbef766d4b521221732f9b618fcf34a876001600160a01b0390811691161490565b61020e610209366004612d8b565b610780565b6040516101249190612ee2565b610118610229366004612ef5565b6108a4565b61025761023c366004612d8b565b6000602081905290815260409020546001600160a01b031681565b6040516001600160a01b039091168152602001610124565b7f000000000000000000000000b2b5841dbef766d4b521221732f9b618fcf34a87610257565b61016c6276a70081565b6102b26102ad366004612f25565b6109d9565b6040516101249493929190612f61565b6102577f0000000000000000000000003f209ab51b59bc6c2c9c2f2147d3d51e29a862d781565b6102fc6102f7366004613001565b610b16565b005b6102fc61030c366004612ef5565b610dcd565b6102577f000000000000000000000000799d42391ed21894b105590300eed66255d7222581565b60006001600160e01b031982167f81c03c2e00000000000000000000000000000000000000000000000000000000148061039b57507f01ffc9a7000000000000000000000000000000000000000000000000000000006001600160e01b03198316145b92915050565b60007f000000000000000000000000799d42391ed21894b105590300eed66255d722256001600160a01b031663293c49996040518163ffffffff1660e01b8152600401602060405180830381865afa158015610401573d6000803e3d6000fd5b505050506040513d601f19601f820116820180604052508101906104259190613085565b6001600160a01b0316336001600160a01b03161461044257600080fd5b507f150b7a020000000000000000000000000000000000000000000000000000000095945050505050565b600061047f8686868630600088611287565b9695505050505050565b60c081013560009081526020819052604081205460609081906001600160a01b03168015610541576040517f4c4ffc710000000000000000000000000000000000000000000000000000000081526001600160a01b03821690634c4ffc71906104f690889060040161314d565b600060405180830381865afa158015610513573d6000803e3d6000fd5b505050506040513d6000823e601f3d908101601f1916820160405261053b919081019061321e565b90945091505b815160c086013560009081526004602090815260408083208054825181850281018501909352808352941515949192909190849084015b8282101561065c576000848152602090819020604080516060810182526003860290920180546001600160a01b03168352600181015493830193909352600283018054929392918401916105cb90613366565b80601f01602080910402602001604051908101604052809291908181526020018280546105f790613366565b80156106445780601f1061061957610100808354040283529160200191610644565b820191906000526020600020905b81548152906001019060200180831161062757829003601f168201915b50505050508152505081526020019060010190610578565b50505050905060008151905082610674576000610677565b60015b6106849060ff16826133b6565b67ffffffffffffffff81111561069c5761069c6124ed565b6040519080825280602002602001820160405280156106e957816020015b604080516060808201835260008083526020830152918101919091528152602001906001900390816106ba5790505b50955060005b8181101561073657828181518110610709576107096133c9565b6020026020010151878281518110610723576107236133c9565b60209081029190910101526001016106ef565b5082156107765784600081518110610750576107506133c9565b602002602001015186828151811061076a5761076a6133c9565b60200260200101819052505b5050505050915091565b606060046000838152602001908152602001600020805480602002602001604051908101604052809291908181526020016000905b82821015610899576000848152602090819020604080516060810182526003860290920180546001600160a01b031683526001810154938301939093526002830180549293929184019161080890613366565b80601f016020809104026020016040519081016040528092919081815260200182805461083490613366565b80156108815780601f1061085657610100808354040283529160200191610881565b820191906000526020600020905b81548152906001019060200180831161086457829003601f168201915b505050505081525050815260200190600101906107b5565b505050509050919050565b6000828152602081905260408120546001600160a01b03908116908316036108ce5750600161039b565b6040517f3d12cb87000000000000000000000000000000000000000000000000000000008152600481018490526000907f0000000000000000000000003f209ab51b59bc6c2c9c2f2147d3d51e29a862d76001600160a01b031690633d12cb8790602401600060405180830381865afa15801561094f573d6000803e3d6000fd5b505050506040513d6000823e601f3d908101601f1916820160405261097791908101906133df565b805190915060005b818110156109cd57828181518110610999576109996133c9565b60200260200101516001600160a01b0316856001600160a01b0316036109c5576001935050505061039b565b60010161097f565b50600095945050505050565b6000808060606001600160a01b037f0000000000000000000000003f209ab51b59bc6c2c9c2f2147d3d51e29a862d7166383db9d0160408701803590610a229060208a01612ec5565b6040516001600160e01b031960e085901b16815260048101929092526001600160a01b03166024820152604401602060405180830381865afa158015610a6c573d6000803e3d6000fd5b505050506040513d601f19601f82011682018060405250810190610a909190613479565b15610aad5761271085608001358660a00135935093509350610b0f565b604080860135600090815260016020522054421015610af8576040517f04c3b3cd00000000000000000000000000000000000000000000000000000000815260040160405180910390fd5b84610160013585608001358660a001359350935093505b9193509193565b7f000000000000000000000000799d42391ed21894b105590300eed66255d722256001600160a01b0316631f47ce696040518163ffffffff1660e01b8152600401602060405180830381865afa158015610b74573d6000803e3d6000fd5b505050506040513d601f19601f82011682018060405250810190610b989190613085565b6001600160a01b031663f434c9146040518163ffffffff1660e01b8152600401602060405180830381865afa158015610bd5573d6000803e3d6000fd5b505050506040513d601f19601f82011682018060405250810190610bf99190613085565b6001600160a01b0316630f5932f0610c0f611a58565b3086610c1a88611a67565b6040518563ffffffff1660e01b8152600401610c3994939291906134d7565b602060405180830381865afa158015610c56573d6000803e3d6000fd5b505050506040513d601f19601f82011682018060405250810190610c7a9190613479565b610c97576040516331fb21f360e01b815260040160405180910390fd5b6000610ca1611a58565b838360200151604051602001610cb993929190613509565b60408051601f1981840301815290829052805160209091012083517f2f3f50e00000000000000000000000000000000000000000000000000000000083529092506001600160a01b037f0000000000000000000000003f209ab51b59bc6c2c9c2f2147d3d51e29a862d71691632f3f50e091610d3b9188918691600401613613565b6000604051808303816000875af1158015610d5a573d6000803e3d6000fd5b505050506040513d6000823e601f3d908101601f19168201604052610d8291908101906133df565b5080847f755ecfca2f6e66af8868551556bf7931740a7062db8e0882f4c322fdb0bb3f608585610db0611a58565b604051610dbf9392919061365b565b60405180910390a350505050565b6000610dd883611a67565b90507f000000000000000000000000799d42391ed21894b105590300eed66255d722256001600160a01b0316631f47ce696040518163ffffffff1660e01b8152600401602060405180830381865afa158015610e38573d6000803e3d6000fd5b505050506040513d601f19601f82011682018060405250810190610e5c9190613085565b6001600160a01b031663f434c9146040518163ffffffff1660e01b8152600401602060405180830381865afa158015610e99573d6000803e3d6000fd5b505050506040513d601f19601f82011682018060405250810190610ebd9190613085565b6001600160a01b0316630f5932f0610ed3611a58565b3086856040518563ffffffff1660e01b8152600401610ef594939291906134d7565b602060405180830381865afa158015610f12573d6000803e3d6000fd5b505050506040513d601f19601f82011682018060405250810190610f369190613479565b610f53576040516331fb21f360e01b815260040160405180910390fd5b7f000000000000000000000000799d42391ed21894b105590300eed66255d722256001600160a01b0316631f47ce696040518163ffffffff1660e01b8152600401602060405180830381865afa158015610fb1573d6000803e3d6000fd5b505050506040513d601f19601f82011682018060405250810190610fd59190613085565b6001600160a01b031663f434c9146040518163ffffffff1660e01b8152600401602060405180830381865afa158015611012573d6000803e3d6000fd5b505050506040513d601f19601f820116820180604052508101906110369190613085565b6001600160a01b03166305d2912e306040518060600160405280611058611a58565b6001600160a01b0316815260208082018990526040805160008152918201815291820152516001600160e01b031960e085901b16815261109c92919060040161369a565b600060405180830381600087803b1580156110b657600080fd5b505af11580156110ca573d6000803e3d6000fd5b505050507f000000000000000000000000799d42391ed21894b105590300eed66255d722256001600160a01b0316631f47ce696040518163ffffffff1660e01b8152600401602060405180830381865afa15801561112c573d6000803e3d6000fd5b505050506040513d601f19601f820116820180604052508101906111509190613085565b6001600160a01b031663f434c9146040518163ffffffff1660e01b8152600401602060405180830381865afa15801561118d573d6000803e3d6000fd5b505050506040513d601f19601f820116820180604052508101906111b19190613085565b6001600160a01b03166305d2912e306040518060600160405280866001600160a01b03168152602001878152602001858152506040518363ffffffff1660e01b815260040161120192919061369a565b600060405180830381600087803b15801561121b57600080fd5b505af115801561122f573d6000803e3d6000fd5b50505050816001600160a01b0316837f0329d6a81434b130c72eb65eea0e32e429dc1277b4aad86ec86454aefb618451611267611a58565b6040516001600160a01b03909116815260200160405180910390a3505050565b6000806000806112988a8888611c1f565b9250925092508a600003611373577f000000000000000000000000799d42391ed21894b105590300eed66255d722256001600160a01b0316630634bae9308c6000015160400151868d8f60000151602001516040516020016112fa91906136dd565b6040516020818303038152906040526040518663ffffffff1660e01b8152600401611329959493929190613b0b565b6020604051808303816000875af1158015611348573d6000803e3d6000fd5b505050506040513d601f19601f8201168201806040525081019061136c9190613b73565b9a50611431565b7f000000000000000000000000799d42391ed21894b105590300eed66255d722256001600160a01b0316631ea7bc8c8c858c8e60000151602001516040516020016113be91906136dd565b6040516020818303038152906040526040518563ffffffff1660e01b81526004016113ec9493929190613b8c565b6020604051808303816000875af115801561140b573d6000803e3d6000fd5b505050506040513d601f19601f8201168201806040525081019061142f9190613b73565b505b80806114415750468a6060015114155b15611463576114536276a700426133b6565b60008c8152600160205260409020555b7f000000000000000000000000799d42391ed21894b105590300eed66255d722256001600160a01b031663581781918c8c60000151600001518d60000151602001518e60000151606001516040518563ffffffff1660e01b81526004016114cd9493929190613bcb565b6020604051808303816000875af11580156114ec573d6000803e3d6000fd5b505050506040513d601f19601f820116820180604052508101906115109190613085565b5087516001600160a01b03161561152b5761152b8b89611fe0565b7f000000000000000000000000799d42391ed21894b105590300eed66255d722256001600160a01b031663dd5f214a8c600061156a8e6080015161214b565b6040518463ffffffff1660e01b815260040161158893929190613c08565b600060405180830381600087803b1580156115a257600080fd5b505af11580156115b6573d6000803e3d6000fd5b50505050600060405180606001604052808c608001516001600160a01b031681526020018d81526020016115e98e611a67565b81525090507f000000000000000000000000799d42391ed21894b105590300eed66255d722256001600160a01b031663f434c9146040518163ffffffff1660e01b8152600401602060405180830381865afa15801561164c573d6000803e3d6000fd5b505050506040513d601f19601f820116820180604052508101906116709190613085565b6001600160a01b03166305d2912e30836040518363ffffffff1660e01b815260040161169d92919061369a565b600060405180830381600087803b1580156116b757600080fd5b505af11580156116cb573d6000803e3d6000fd5b5050505060008b604001511180156116e65750468b60600151145b156117b4577f000000000000000000000000799d42391ed21894b105590300eed66255d722256001600160a01b031663c7fb92de8d8d604001518e608001518f600001516020015160405160200161173e9190613cf7565b60405160208183030381529060405260006040518663ffffffff1660e01b815260040161176f959493929190613d47565b6020604051808303816000875af115801561178e573d6000803e3d6000fd5b505050506040513d601f19601f820116820180604052508101906117b29190613b73565b505b60408051600180825281830190925260009160208083019080368337019050509050601c816000815181106117eb576117eb6133c9565b60200260200101818152505060405180606001604052807f0000000000000000000000003f209ab51b59bc6c2c9c2f2147d3d51e29a862d76001600160a01b031681526020018e81526020018281525091507f000000000000000000000000799d42391ed21894b105590300eed66255d722256001600160a01b031663f434c9146040518163ffffffff1660e01b8152600401602060405180830381865afa15801561189b573d6000803e3d6000fd5b505050506040513d601f19601f820116820180604052508101906118bf9190613085565b6001600160a01b03166305d2912e30846040518363ffffffff1660e01b81526004016118ec92919061369a565b600060405180830381600087803b15801561190657600080fd5b505af115801561191a573d6000803e3d6000fd5b505050506020870151156119fa577f0000000000000000000000003f209ab51b59bc6c2c9c2f2147d3d51e29a862d76001600160a01b0316632f3f50e08e611960611a58565b878b6020015160405160200161197893929190613509565b60408051601f198184030181529082905280516020909101208b516001600160e01b031960e086901b1683526119b19392600401613613565b6000604051808303816000875af11580156119d0573d6000803e3d6000fd5b505050506040513d6000823e601f3d908101601f191682016040526119f891908101906133df565b505b8c7f4b827371715024f69a0bc98c8df6edafe6e471e78488ab1b3849de72f66b12e08d8d8d8b8a8a8a611a2b611a58565b604051611a3f989796959493929190613eaa565b60405180910390a2509a9b9a5050505050505050505050565b6000611a62612289565b905090565b606060006002805480602002602001604051908101604052809291908181526020018280548015611ab757602002820191906000526020600020905b815481526020019060010190808311611aa3575b50508351600088815260036020908152604080832080548251818502810185019093528083529899509397929650945091925090830182828015611b1a57602002820191906000526020600020905b815481526020019060010190808311611b06575b50508351939450611b3192508391508590506133b6565b67ffffffffffffffff811115611b4957611b496124ed565b604051908082528060200260200182016040528015611b72578160200160208202803683370190505b50945060005b83811015611bbf57848181518110611b9257611b926133c9565b6020026020010151868281518110611bac57611bac6133c9565b6020908102919091010152600101611b78565b5060005b81811015611c1557828181518110611bdd57611bdd6133c9565b6020026020010151868286611bf291906133b6565b81518110611c0257611c026133c9565b6020908102919091010152600101611bc3565b5050505050919050565b6060806000808660a001515190508067ffffffffffffffff811115611c4657611c466124ed565b604051908082528060200260200182016040528015611d3857816020015b611d256040805161010080820183526000808352602080840182905283850182905260608085018390526080808601849052865161020081018852848152928301849052958201839052810182905293840181905260a084810182905260c0850182905260e0850182905291840181905261012084018190526101408401819052610160840181905261018084018190526101a084018190526101c084018190526101e0840152909190820190815260200160608152602001606081525090565b815260200190600190039081611c645790505b509350611d44876122fe565b6040805160c081018252600080825260208201819052918101829052606081018290526080810182905260a081018290529194505b82811015611fd4578860a001518181518110611d9757611d976133c9565b60200260200101519150816000015164ffffffffff16868281518110611dbf57611dbf6133c9565b60200260200101516000018181525050816060015164ffffffffff16868281518110611ded57611ded6133c9565b6020026020010151602001818152505081604001516dffffffffffffffffffffffffffff16868281518110611e2457611e246133c9565b60200260200101516040018181525050816080015163ffffffff16868281518110611e5157611e516133c9565b602002602001015160600181815250506000868281518110611e7557611e756133c9565b6020026020010151608001906001600160a01b031690816001600160a01b031681525050604051806102000160405280836020015161ffff1681526020018360a0015161ffff16612710611ec99190614013565b815260208b81015163ffffffff16908201526000604082018190526060820181905260016080830181905260a0830182905260c0830182905260e083018290526101008301829052610120830182905261014083018290526101608301526101808201526001600160a01b038a166101a08201526101c0018890528651879083908110611f5857611f586133c9565b602002602001015160a00181905250806000148015611f7e5750815164ffffffffff1615155b8015611f94575042826000015164ffffffffff16105b15611f9e57600193505b84611fa9838361233f565b604051602001611fba929190614026565b60408051601f198184030181529190529450600101611d79565b50505093509350939050565b602081810151516040805160808101825260008082529381018490529081018390526060810183905290915b828110156120ff578360200151818151811061202a5761202a6133c9565b6020908102919091018101518551918101516040808301516060840151845192517f7b621d3a000000000000000000000000000000000000000000000000000000008152600481018c905262ffffff909416602485015263ffffffff91821660448501521660648301526001600160a01b039081166084830152919450911690637b621d3a9060a4016020604051808303816000875af11580156120d2573d6000803e3d6000fd5b505050506040513d601f19601f820116820180604052508101906120f69190613085565b5060010161200c565b5050905160009283526020839052604090922080547fffffffffffffffffffffffff0000000000000000000000000000000000000000166001600160a01b039093169290921790915550565b604080516001808252818301909252606091816020015b60408051808201909152600081526060602082015281526020019060019003908161216257505060408051600180825281830190925291925060009190602082015b6040805160c08101825260008082526020808301829052928201819052606082018190526080820181905260a082015282526000199092019101816121a45790505090506040518060c00160405280600015158152602001633b9aca00815260200160008152602001846001600160a01b031681526020016000815260200160006001600160a01b031681525081600081518110612244576122446133c9565b60200260200101819052506040518060400160405280600181526020018281525082600081518110612278576122786133c9565b602002602001018190525050919050565b6000366014336001600160a01b037f000000000000000000000000b2b5841dbef766d4b521221732f9b618fcf34a87161480156122c65750808210155b156122f6576000366122d88385614013565b6122e3928290614055565b6122ec9161407f565b60601c9250505090565b339250505090565b60208082015160608381015184518051818601519184015160405194966123299695929392016140b4565b6040516020818303038152906040529050919050565b6060811580156123555750825164ffffffffff16155b61236757825164ffffffffff16612369565b425b83602001518460400151856060015186608001518760a001516040516020016123de9695949392919095865261ffff94851660208701526dffffffffffffffffffffffffffff93909316604086015264ffffffffff91909116606085015263ffffffff1660808401521660a082015260c00190565b604051602081830303815290604052905092915050565b60006020828403121561240757600080fd5b81356001600160e01b03198116811461241f57600080fd5b9392505050565b6001600160a01b038116811461243b57600080fd5b50565b803561244981612426565b919050565b60008060008060006080868803121561246657600080fd5b853561247181612426565b9450602086013561248181612426565b935060408601359250606086013567ffffffffffffffff808211156124a557600080fd5b818801915088601f8301126124b957600080fd5b8135818111156124c857600080fd5b8960208285010111156124da57600080fd5b9699959850939650602001949392505050565b634e487b7160e01b600052604160045260246000fd5b6040516080810167ffffffffffffffff81118282101715612526576125266124ed565b60405290565b60405160c0810167ffffffffffffffff81118282101715612526576125266124ed565b6040805190810167ffffffffffffffff81118282101715612526576125266124ed565b6040516060810167ffffffffffffffff81118282101715612526576125266124ed565b604051601f8201601f1916810167ffffffffffffffff811182821017156125be576125be6124ed565b604052919050565b600067ffffffffffffffff8211156125e0576125e06124ed565b50601f01601f191660200190565b60006126016125fc846125c6565b612595565b905082815283838301111561261557600080fd5b828260208301376000602084830101529392505050565b600082601f83011261263d57600080fd5b61241f838335602085016125ee565b60006080828403121561265e57600080fd5b612666612503565b9050813567ffffffffffffffff8082111561268057600080fd5b61268c8583860161262c565b835260208401359150808211156126a257600080fd5b6126ae8583860161262c565b602084015260408401359150808211156126c757600080fd5b506126d48482850161262c565b6040830152506060820135606082015292915050565b803563ffffffff8116811461244957600080fd5b600067ffffffffffffffff821115612718576127186124ed565b5060051b60200190565b803564ffffffffff8116811461244957600080fd5b803561ffff8116811461244957600080fd5b600082601f83011261275a57600080fd5b8135602061276a6125fc836126fe565b82815260c0928302850182019282820191908785111561278957600080fd5b8387015b8581101561282e5781818a0312156127a55760008081fd5b6127ad61252c565b6127b682612722565b81526127c3868301612737565b868201526040808301356dffffffffffffffffffffffffffff811681146127ea5760008081fd5b9082015260606127fb838201612722565b90820152608061280c8382016126ea565b9082015260a061281d838201612737565b90820152845292840192810161278d565b5090979650505050505050565b600082601f83011261284c57600080fd5b8135602061285c6125fc836126fe565b828152600592831b850182019282820191908785111561287b57600080fd5b8387015b8581101561282e57803567ffffffffffffffff808211156128a05760008081fd5b908901906040828c03601f19018113156128ba5760008081fd5b6128c261254f565b888401356128cf81612426565b815283820135838111156128e35760008081fd5b8085019450508c603f8501126128fb57600092508283fd5b88840135925061290d6125fc846126fe565b83815292861b8401820192898101908e85111561292a5760008081fd5b948301945b84861015612954578535935061294484612426565b838252948a0194908a019061292f565b828b015250875250505092840192840161287f565b6000604080838503121561297c57600080fd5b61298461254f565b9150823561299181612426565b825260208381013567ffffffffffffffff8111156129ae57600080fd5b8401601f810186136129bf57600080fd5b80356129cd6125fc826126fe565b81815260079190911b820183019083810190888311156129ec57600080fd5b928401925b82841015612a6b576080848a031215612a0a5760008081fd5b612a12612503565b8435612a1d81612426565b81528486013562ffffff81168114612a355760008081fd5b81870152612a448588016126ea565b878201526060612a558187016126ea565b90820152825260809390930192908401906129f1565b808588015250505050505092915050565b600060408284031215612a8e57600080fd5b612a9661254f565b905067ffffffffffffffff8083351115612aaf57600080fd5b8235830184601f820112612ac257600080fd5b612acf6125fc82356126fe565b81358082526020808301929160051b84010187811115612aee57600080fd5b602084015b81811015612c33578581351115612b0957600080fd5b803585016040818b03601f19011215612b2157600080fd5b612b2961254f565b612b366020830135612426565b602082013581528760408301351115612b4e57600080fd5b6040820135820191508a603f830112612b6657600080fd5b6020820135612b776125fc826126fe565b81815260079190911b83016040019060208101908d831115612b9857600080fd5b6040850194505b82851015612c14576080858f031215612bb757600080fd5b612bbf612503565b612bc98635612426565b85358152612bd9602087016126ea565b6020820152612beb6040870135612426565b604086013560408201526060860135606082015280835250602082019150608085019450612b9f565b8060208501525050508086525050602084019350602081019050612af3565b5050808552505050506020820135602082015292915050565b600080600080600060a08688031215612c6457600080fd5b85359450602086013567ffffffffffffffff80821115612c8357600080fd5b9087019060c0828a031215612c9757600080fd5b612c9f61252c565b823582811115612cae57600080fd5b612cba8b82860161264c565b825250612cc9602084016126ea565b60208201526040830135604082015260608301356060820152612cee6080840161243e565b608082015260a083013582811115612d0557600080fd5b612d118b828601612749565b60a08301525095506040880135915080821115612d2d57600080fd5b612d3989838a0161283b565b94506060880135915080821115612d4f57600080fd5b612d5b89838a01612969565b93506080880135915080821115612d7157600080fd5b50612d7e88828901612a7c565b9150509295509295909350565b600060208284031215612d9d57600080fd5b5035919050565b600060208284031215612db657600080fd5b813567ffffffffffffffff811115612dcd57600080fd5b8201610180818503121561241f57600080fd5b60005b83811015612dfb578181015183820152602001612de3565b50506000910152565b60008151808452612e1c816020860160208601612de0565b601f01601f19169290920160200192915050565b600082825180855260208086019550808260051b84010181860160005b8481101561282e57858303601f19018952815180516001600160a01b031684528481015185850152604090810151606091850182905290612e9081860183612e04565b9a86019a9450505090830190600101612e4d565b828152604060208201526000612ebd6040830184612e30565b949350505050565b600060208284031215612ed757600080fd5b813561241f81612426565b60208152600061241f6020830184612e30565b60008060408385031215612f0857600080fd5b823591506020830135612f1a81612426565b809150509250929050565b600060208284031215612f3757600080fd5b813567ffffffffffffffff811115612f4e57600080fd5b82016101a0818503121561241f57600080fd5b60006080820186835260208681850152604086604086015260606080606087015283875180865260a08801915060a08160051b890101955084890160005b82811015612fef57898803609f19018452815180516001600160a01b0316895287810151888a0152860151868901869052612fdc868a0182612e04565b9850509286019290860190600101612f9f565b50959c9b505050505050505050505050565b60008060006060848603121561301657600080fd5b83359250602084013567ffffffffffffffff8082111561303557600080fd5b818601915086601f83011261304957600080fd5b613058878335602085016125ee565b9350604086013591508082111561306e57600080fd5b5061307b86828701612a7c565b9150509250925092565b60006020828403121561309757600080fd5b815161241f81612426565b80356130ad81612426565b6001600160a01b031682526020818101359083015260408082013590830152606090810135910152565b6000808335601e198436030181126130ee57600080fd5b830160208101925035905067ffffffffffffffff81111561310e57600080fd5b80360382131561311d57600080fd5b9250929050565b81835281816020850137506000828201602090810191909152601f909101601f19169091010190565b6020815261316e602082016131618461243e565b6001600160a01b03169052565b600061317c6020840161243e565b6001600160a01b03811660408401525061319c60608301604085016130a2565b60c083013560e083015261010060e0840135818401526131bd81850161243e565b90506101206131d6818501836001600160a01b03169052565b610140915080850135828501525061016081850135818501526131fb818601866130d7565b61018086810152925090506132156101a085018383613124565b95945050505050565b600080604080848603121561323257600080fd5b8351925060208085015167ffffffffffffffff8082111561325257600080fd5b818701915087601f83011261326657600080fd5b81516132746125fc826126fe565b81815260059190911b8301840190848101908a83111561329357600080fd5b8585015b83811015613354578051858111156132ae57600080fd5b86016060818e03601f190112156132c55760008081fd5b6132cd612572565b888201516132da81612426565b8152818a0151898201526060820151878111156132f75760008081fd5b8083019250508d603f83011261330d5760008081fd5b8882015161331d6125fc826125c6565b8181528f8c8386010111156133325760008081fd5b613341828c83018e8701612de0565b828c015250845250918601918601613297565b50809750505050505050509250929050565b600181811c9082168061337a57607f821691505b60208210810361339a57634e487b7160e01b600052602260045260246000fd5b50919050565b634e487b7160e01b600052601160045260246000fd5b8082018082111561039b5761039b6133a0565b634e487b7160e01b600052603260045260246000fd5b600060208083850312156133f257600080fd5b825167ffffffffffffffff81111561340957600080fd5b8301601f8101851361341a57600080fd5b80516134286125fc826126fe565b81815260059190911b8201830190838101908783111561344757600080fd5b928401925b8284101561346e57835161345f81612426565b8252928401929084019061344c565b979650505050505050565b60006020828403121561348b57600080fd5b8151801515811461241f57600080fd5b60008151808452602080850194506020840160005b838110156134cc578151875295820195908201906001016134b0565b509495945050505050565b60006001600160a01b0380871683528086166020840152508360408301526080606083015261047f608083018461349b565b6bffffffffffffffffffffffff198460601b16815260008351613533816014850160208801612de0565b60149201918201929092526034019392505050565b600082825180855260208086019550808260051b8401018186016000805b8581101561360557868403601f19018a52825180516001600160a01b03908116865290860151604087870181905281518188018190529188019290916060919082890190875b818110156135ed5786518051851684528c81015163ffffffff168d8501528681015185168785015285015185840152958b01956080909201916001016135ac565b50509d89019d97505050938601935050600101613566565b509198975050505050505050565b8381528260208201526060604082015260006132156060830184613548565b60008151604084526136476040850182613548565b602093840151949093019390935250919050565b60608152600061366e6060830186612e04565b82810360208401526136808186613632565b9150506001600160a01b0383166040830152949350505050565b60006001600160a01b03808516835260406020840152808451166040840152506020830151606083015260408301516060608084015261321560a084018261349b565b600960fa1b8152600082516136f9816001850160208701612de0565b7f207265766e6574206465706c6f796564000000000000000000000000000000006001939091019283015250601101919050565b8051825260208101516020830152604081015160408301526060810151613758606084018215159052565b50608081015161376c608084018215159052565b5060a081015161378060a084018215159052565b5060c081015161379460c084018215159052565b5060e08101516137a860e084018215159052565b5061010081810151151590830152610120808201511515908301526101408082015115159083015261016080820151151590830152610180808201511515908301526101a0808201511515908301526101c0808201516001600160a01b0316908301526101e090810151910152565b600082825180855260208086019550808260051b8401018186016000805b8581101561360557868403601f19018a52825180518552850151604086860181905281518187018190529187019160609081880190865b818110156138c65785518051151584528b8101518c8501528581015186850152848101516001600160a01b03908116868601526080808301519086015260a0918201511690840152948a019460c09092019160010161386c565b50509c88019c965050509285019250600101613835565b60008151808452602080850194506020840160005b838110156134cc5781518051885283015183880152604090960195908201906001016138f2565b600082825180855260208086019550808260051b84010181860160005b8481101561282e57601f19868403018952815160806001600160a01b038083511686528087840151168787015250604080830151828288015261397b838801826138dd565b925050506060808301519250858203818701525061399981836138dd565b9a86019a9450505090830190600101613936565b600082825180855260208086019550808260051b84010181860160005b8481101561282e57858303601f19018952815180518452848101518585015260408082015190850152606080820151908501526080808201516001600160a01b03169085015260a0808201516102e09190613a278288018261372d565b505060c0820151816102a0870152613a4182870182613817565b91505060e082015191508481036102c0860152613a5e8183613919565b9a86019a94505050908301906001016139ca565b600082825180855260208086019550808260051b8401018186016000805b8581101561360557868403601f19018a52825180516001600160a01b03908116865290860151604087870181905281519087018190529087019160608701918591905b80831015613af557845182168452938901939289019260019290920191613ad3565b5050509a86019a94505091840191600101613a90565b6001600160a01b038616815260a060208201526000613b2d60a0830187612e04565b8281036040840152613b3f81876139ad565b90508281036060840152613b538186613a72565b90508281036080840152613b678185612e04565b98975050505050505050565b600060208284031215613b8557600080fd5b5051919050565b848152608060208201526000613ba560808301866139ad565b8281036040840152613bb78186613a72565b9050828103606084015261346e8185612e04565b848152608060208201526000613be46080830186612e04565b8281036040840152613bf68186612e04565b91505082606083015295945050505050565b600060608083018684526020868186015260406060604087015282875180855260808801915060808160051b890101945083890160005b82811015613ce657898703607f190184528151805188528601518688018690528051868901819052908701906000908a8a01905b80831015613cd15783518051151583528a8101518b840152898101518a8401528c8101516001600160a01b039081168e8501526080808301519085015260a0918201511690830152928901926001929092019160c090910190613c73565b50985050509285019290850190600101613c3f565b50949b9a5050505050505050505050565b600960fa1b815260008251613d13816001850160208701612de0565b7f207072656d696e746564000000000000000000000000000000000000000000006001939091019283015250600b01919050565b8581528460208201526001600160a01b038416604082015260a060608201526000613d7560a0830185612e04565b905082151560808301529695505050505050565b60008151808452602080850194506020840160005b838110156134cc578151805164ffffffffff90811689528482015161ffff908116868b01526040808401516dffffffffffffffffffffffffffff16908b0152606080840151909216918a019190915260808083015163ffffffff16908a015260a091820151169088015260c09096019590820190600101613d9e565b600060408084016001600160a01b038085511686526020808601516040828901528381518086526060955060608a019150838301925060005b81811015613e9b5783518051871684528581015162ffffff16868501528881015163ffffffff9081168a86015290880151168784015292840192608090920191600101613e53565b50909998505050505050505050565b60006101008083528a5160c0828501528051915060806101c0850152613ed4610240850183612e04565b915060208101516101bf1980868503016101e0870152613ef48483612e04565b935060408301519150808685030161020087015250613f138382612e04565b92505060608101516102208501525060208b0151613f3a61012085018263ffffffff169052565b5060408b015161014084015260608b015161016084015260808b01516001600160a01b031661018084015260a08b015183820360ff19016101a0850152613f818282613d89565b9150508281036020840152613f96818b613a72565b90508281036040840152613faa818a613e1a565b90508281036060840152613fbe8189613632565b90508281036080840152613fd281886139ad565b905082810360a0840152613fe68187612e04565b915050613ff760c083018515159052565b6001600160a01b03831660e08301529998505050505050505050565b8181038181111561039b5761039b6133a0565b60008351614038818460208801612de0565b83519083019061404c818360208801612de0565b01949350505050565b6000808585111561406557600080fd5b8386111561407257600080fd5b5050820193919092039150565b6bffffffffffffffffffffffff1981358181169160148510156140ac5780818660140360031b1b83161692505b505092915050565b63ffffffff8616815284602082015260a0604082015260006140d960a0830186612e04565b82810360608401526140eb8186612e04565b915050826080830152969550505050505056fea2646970667358221220f13469abdbdb2f148e15961ebfae3fd6fc9f821034f917e6a60e4a14264c34de64736f6c63430008170033",
	"devdoc": {
		"kind": "dev",
		"methods": {
			"beforePayRecordedWith((address,address,(address,uint256,uint256,uint256),uint256,uint256,address,uint256,uint256,bytes))": {
				"details": "Part of IJBFundingCycleDataSource.This implementation just sets this contract up to receive a `didPay` call.",
				"params": {
					"context": "The Juicebox standard network payment context. See"
				},
				"returns": {
					"hookSpecifications": "Amount to be sent to pay hooks instead of adding to local balance. Useful for auto-routing funds from a treasury as payment come in.",
					"weight": "The weight that network tokens should get minted relative to. This is useful for optionally customizing how many tokens are issued per payment."
				}
			},
			"constructor": {
				"params": {
					"controller": "The controller that revnets are made from.",
					"suckerRegistry": "The registry that deploys and tracks each project's suckers.",
					"trustedForwarder": "The trusted forwarder for the ERC2771Context."
				}
			},
			"deploySuckersFor(uint256,bytes,((address,(address,uint32,address,uint256)[])[],bytes32))": {
				"params": {
					"encodedConfiguration": "A bytes representation of the revnet's configuration.",
					"revnetId": "The ID of the revnet having new suckers deployed.",
					"suckerDeploymentConfiguration": "The specifics about the suckers being deployed."
				}
			},
			"hasMintPermissionFor(uint256,address)": {
				"params": {
					"addr": "The address to check if has permissions.",
					"revnetId": "The ID of the revnet to check permissions for."
				},
				"returns": {
					"_0": "flag The flag indicating if the address has permissions to mint on the revnet's behalf."
				}
			},
			"isTrustedForwarder(address)": {
				"details": "Indicates whether any particular address is the trusted forwarder."
			},
			"launchRevnetFor(uint256,((string,string,string,bytes32),uint32,uint256,uint256,address,(uint40,uint16,uint112,uint40,uint32,uint16)[]),(address,address[])[],(address,(address,uint24,uint32,uint32)[]),((address,(address,uint32,address,uint256)[])[],bytes32))": {
				"params": {
					"buybackHookConfiguration": "Data used for setting up the buyback hook to use when determining the best price for new participants.",
					"configuration": "The data needed to deploy a basic revnet.",
					"revnetId": "The ID of the Juicebox project to turn into a revnet. Send 0 to deploy a new revnet.",
					"suckerDeploymentConfiguration": "Information about how this revnet relates to other's across chains.",
					"terminalConfigurations": "The terminals that the network uses to accept payments through."
				},
				"returns": {
					"_0": "revnetId The ID of the newly created revnet."
				}
			},
			"onERC721Received(address,address,uint256,bytes)": {
				"details": "Make sure only mints can be received."
			},
			"payHookSpecificationsOf(uint256)": {
				"params": {
					"revnetId": "The ID of the revnet to which the extensions apply."
				},
				"returns": {
					"_0": "payHookSpecifications The pay hooks."
				}
			},
			"replaceSplitOperatorOf(uint256,address)": {
				"params": {
					"newSplitOperator": "The address of the new split operator.",
					"revnetId": "The ID of the revnet having its operator replaced."
				}
			},
			"supportsInterface(bytes4)": {
				"details": "See {IERC165-supportsInterface}.",
				"params": {
					"interfaceId": "The ID of the interface to check for adherence to."
				},
				"returns": {
					"_0": "A flag indicating if the provided interface ID is supported."
				}
			},
			"trustedForwarder()": {
				"details": "Returns the address of the trusted forwarder."
			}
		},
		"version": 1
	},
	"userdoc": {
		"kind": "user",
		"methods": {
			"CONTROLLER()": {
				"notice": "The controller that networks are made from."
			},
			"EXIT_DELAY()": {
				"notice": "The amount of time from a sucker being deployed to when it can facilitate exits."
			},
			"SUCKER_REGISTRY()": {
				"notice": "The registry that deploys and tracks each project's suckers."
			},
			"beforePayRecordedWith((address,address,(address,uint256,uint256,uint256),uint256,uint256,address,uint256,uint256,bytes))": {
				"notice": "This function gets called when the revnet receives a payment."
			},
			"beforeRedeemRecordedWith((address,address,uint256,uint256,uint256,uint256,(address,uint256,uint256,uint256),bool,uint256,bytes))": {
				"notice": "This function is never called, it needs to be included to adhere to the interface."
			},
			"buybackHookOf(uint256)": {
				"notice": "The data hook that returns the correct values for the buyback hook of each network."
			},
			"deploySuckersFor(uint256,bytes,((address,(address,uint32,address,uint256)[])[],bytes32))": {
				"notice": "Allows a revnet's split operator to deploy new suckers to the revnet after it's deployed."
			},
			"exitDelayOf(uint256)": {
				"notice": "The time at which exits from a revnet become allowed."
			},
			"hasMintPermissionFor(uint256,address)": {
				"notice": "Required by the IJBRulesetDataHook interfaces."
			},
			"launchRevnetFor(uint256,((string,string,string,bytes32),uint32,uint256,uint256,address,(uint40,uint16,uint112,uint40,uint32,uint16)[]),(address,address[])[],(address,(address,uint24,uint32,uint32)[]),((address,(address,uint32,address,uint256)[])[],bytes32))": {
				"notice": "Launch a basic revnet."
			},
			"payHookSpecificationsOf(uint256)": {
				"notice": "The pay hooks to include during payments to networks."
			},
			"replaceSplitOperatorOf(uint256,address)": {
				"notice": "A revnet's operator can replace itself."
			},
			"supportsInterface(bytes4)": {
				"notice": "Indicates if this contract adheres to the specified interface."
			}
		},
		"version": 1
	},
	"gitCommit": "62c8b853917233957aae3ca08de224c88087f916",
	"sourceName": "src/REVBasicDeployer.sol",
	"chainId": "421614",
	"linkReferences": {},
	"deployedLinkReferences": {},
	"history": []
}