{
	"_format": "sphinx-sol-ct-artifact-1",
	"merkleRoot": "0xa4960959c4286d631121944fa23cfd3f997500f6956b8d31a4630cdf855c8a20",
	"contractName": "REVBasicDeployer",
	"address": "0x645438EdC4E6388b99f50c27dce0235d70b8FA44",
	"abi": [
		{
			"type": "constructor",
			"inputs": [
				{
					"name": "controller",
					"type": "address",
					"internalType": "contract IJBController"
				},
				{
					"name": "suckerRegistry",
					"type": "address",
					"internalType": "contract IBPSuckerRegistry"
				},
				{
					"name": "trustedForwarder",
					"type": "address",
					"internalType": "address"
				}
			],
			"stateMutability": "nonpayable"
		},
		{
			"type": "function",
			"name": "CONTROLLER",
			"inputs": [],
			"outputs": [
				{
					"name": "",
					"type": "address",
					"internalType": "contract IJBController"
				}
			],
			"stateMutability": "view"
		},
		{
			"type": "function",
			"name": "EXIT_DELAY",
			"inputs": [],
			"outputs": [
				{
					"name": "",
					"type": "uint256",
					"internalType": "uint256"
				}
			],
			"stateMutability": "view"
		},
		{
			"type": "function",
			"name": "SUCKER_REGISTRY",
			"inputs": [],
			"outputs": [
				{
					"name": "",
					"type": "address",
					"internalType": "contract IBPSuckerRegistry"
				}
			],
			"stateMutability": "view"
		},
		{
			"type": "function",
			"name": "allowedMintCountOf",
			"inputs": [
				{
					"name": "revnetId",
					"type": "uint256",
					"internalType": "uint256"
				},
				{
					"name": "stageId",
					"type": "uint256",
					"internalType": "uint256"
				},
				{
					"name": "beneficiary",
					"type": "address",
					"internalType": "address"
				}
			],
			"outputs": [
				{
					"name": "",
					"type": "uint256",
					"internalType": "uint256"
				}
			],
			"stateMutability": "view"
		},
		{
			"type": "function",
			"name": "beforePayRecordedWith",
			"inputs": [
				{
					"name": "context",
					"type": "tuple",
					"internalType": "struct JBBeforePayRecordedContext",
					"components": [
						{
							"name": "terminal",
							"type": "address",
							"internalType": "address"
						},
						{
							"name": "payer",
							"type": "address",
							"internalType": "address"
						},
						{
							"name": "amount",
							"type": "tuple",
							"internalType": "struct JBTokenAmount",
							"components": [
								{
									"name": "token",
									"type": "address",
									"internalType": "address"
								},
								{
									"name": "value",
									"type": "uint256",
									"internalType": "uint256"
								},
								{
									"name": "decimals",
									"type": "uint256",
									"internalType": "uint256"
								},
								{
									"name": "currency",
									"type": "uint256",
									"internalType": "uint256"
								}
							]
						},
						{
							"name": "projectId",
							"type": "uint256",
							"internalType": "uint256"
						},
						{
							"name": "rulesetId",
							"type": "uint256",
							"internalType": "uint256"
						},
						{
							"name": "beneficiary",
							"type": "address",
							"internalType": "address"
						},
						{
							"name": "weight",
							"type": "uint256",
							"internalType": "uint256"
						},
						{
							"name": "reservedRate",
							"type": "uint256",
							"internalType": "uint256"
						},
						{
							"name": "metadata",
							"type": "bytes",
							"internalType": "bytes"
						}
					]
				}
			],
			"outputs": [
				{
					"name": "weight",
					"type": "uint256",
					"internalType": "uint256"
				},
				{
					"name": "hookSpecifications",
					"type": "tuple[]",
					"internalType": "struct JBPayHookSpecification[]",
					"components": [
						{
							"name": "hook",
							"type": "address",
							"internalType": "contract IJBPayHook"
						},
						{
							"name": "amount",
							"type": "uint256",
							"internalType": "uint256"
						},
						{
							"name": "metadata",
							"type": "bytes",
							"internalType": "bytes"
						}
					]
				}
			],
			"stateMutability": "view"
		},
		{
			"type": "function",
			"name": "beforeRedeemRecordedWith",
			"inputs": [
				{
					"name": "context",
					"type": "tuple",
					"internalType": "struct JBBeforeRedeemRecordedContext",
					"components": [
						{
							"name": "terminal",
							"type": "address",
							"internalType": "address"
						},
						{
							"name": "holder",
							"type": "address",
							"internalType": "address"
						},
						{
							"name": "projectId",
							"type": "uint256",
							"internalType": "uint256"
						},
						{
							"name": "rulesetId",
							"type": "uint256",
							"internalType": "uint256"
						},
						{
							"name": "redeemCount",
							"type": "uint256",
							"internalType": "uint256"
						},
						{
							"name": "totalSupply",
							"type": "uint256",
							"internalType": "uint256"
						},
						{
							"name": "surplus",
							"type": "tuple",
							"internalType": "struct JBTokenAmount",
							"components": [
								{
									"name": "token",
									"type": "address",
									"internalType": "address"
								},
								{
									"name": "value",
									"type": "uint256",
									"internalType": "uint256"
								},
								{
									"name": "decimals",
									"type": "uint256",
									"internalType": "uint256"
								},
								{
									"name": "currency",
									"type": "uint256",
									"internalType": "uint256"
								}
							]
						},
						{
							"name": "useTotalSurplus",
							"type": "bool",
							"internalType": "bool"
						},
						{
							"name": "redemptionRate",
							"type": "uint256",
							"internalType": "uint256"
						},
						{
							"name": "metadata",
							"type": "bytes",
							"internalType": "bytes"
						}
					]
				}
			],
			"outputs": [
				{
					"name": "",
					"type": "uint256",
					"internalType": "uint256"
				},
				{
					"name": "",
					"type": "uint256",
					"internalType": "uint256"
				},
				{
					"name": "",
					"type": "uint256",
					"internalType": "uint256"
				},
				{
					"name": "specifications",
					"type": "tuple[]",
					"internalType": "struct JBRedeemHookSpecification[]",
					"components": [
						{
							"name": "hook",
							"type": "address",
							"internalType": "contract IJBRedeemHook"
						},
						{
							"name": "amount",
							"type": "uint256",
							"internalType": "uint256"
						},
						{
							"name": "metadata",
							"type": "bytes",
							"internalType": "bytes"
						}
					]
				}
			],
			"stateMutability": "view"
		},
		{
			"type": "function",
			"name": "buybackHookOf",
			"inputs": [
				{
					"name": "revnetId",
					"type": "uint256",
					"internalType": "uint256"
				}
			],
			"outputs": [
				{
					"name": "buybackHook",
					"type": "address",
					"internalType": "contract IJBRulesetDataHook"
				}
			],
			"stateMutability": "view"
		},
		{
			"type": "function",
			"name": "deploySuckersFor",
			"inputs": [
				{
					"name": "revnetId",
					"type": "uint256",
					"internalType": "uint256"
				},
				{
					"name": "encodedConfiguration",
					"type": "bytes",
					"internalType": "bytes"
				},
				{
					"name": "suckerDeploymentConfiguration",
					"type": "tuple",
					"internalType": "struct REVSuckerDeploymentConfig",
					"components": [
						{
							"name": "deployerConfigurations",
							"type": "tuple[]",
							"internalType": "struct BPSuckerDeployerConfig[]",
							"components": [
								{
									"name": "deployer",
									"type": "address",
									"internalType": "contract IBPSuckerDeployer"
								},
								{
									"name": "mappings",
									"type": "tuple[]",
									"internalType": "struct BPTokenMapping[]",
									"components": [
										{
											"name": "localToken",
											"type": "address",
											"internalType": "address"
										},
										{
											"name": "minGas",
											"type": "uint32",
											"internalType": "uint32"
										},
										{
											"name": "remoteToken",
											"type": "address",
											"internalType": "address"
										},
										{
											"name": "minBridgeAmount",
											"type": "uint256",
											"internalType": "uint256"
										}
									]
								}
							]
						},
						{
							"name": "salt",
							"type": "bytes32",
							"internalType": "bytes32"
						}
					]
				}
			],
			"outputs": [],
			"stateMutability": "nonpayable"
		},
		{
			"type": "function",
			"name": "exitDelayOf",
			"inputs": [
				{
					"name": "revnetId",
					"type": "uint256",
					"internalType": "uint256"
				}
			],
			"outputs": [
				{
					"name": "exitDelay",
					"type": "uint256",
					"internalType": "uint256"
				}
			],
			"stateMutability": "view"
		},
		{
			"type": "function",
			"name": "hasMintPermissionFor",
			"inputs": [
				{
					"name": "revnetId",
					"type": "uint256",
					"internalType": "uint256"
				},
				{
					"name": "addr",
					"type": "address",
					"internalType": "address"
				}
			],
			"outputs": [
				{
					"name": "",
					"type": "bool",
					"internalType": "bool"
				}
			],
			"stateMutability": "view"
		},
		{
			"type": "function",
			"name": "isTrustedForwarder",
			"inputs": [
				{
					"name": "forwarder",
					"type": "address",
					"internalType": "address"
				}
			],
			"outputs": [
				{
					"name": "",
					"type": "bool",
					"internalType": "bool"
				}
			],
			"stateMutability": "view"
		},
		{
			"type": "function",
			"name": "launchRevnetFor",
			"inputs": [
				{
					"name": "revnetId",
					"type": "uint256",
					"internalType": "uint256"
				},
				{
					"name": "configuration",
					"type": "tuple",
					"internalType": "struct REVConfig",
					"components": [
						{
							"name": "description",
							"type": "tuple",
							"internalType": "struct REVDescription",
							"components": [
								{
									"name": "name",
									"type": "string",
									"internalType": "string"
								},
								{
									"name": "ticker",
									"type": "string",
									"internalType": "string"
								},
								{
									"name": "uri",
									"type": "string",
									"internalType": "string"
								},
								{
									"name": "salt",
									"type": "bytes32",
									"internalType": "bytes32"
								}
							]
						},
						{
							"name": "baseCurrency",
							"type": "uint32",
							"internalType": "uint32"
						},
						{
							"name": "initialSplitOperator",
							"type": "address",
							"internalType": "address"
						},
						{
							"name": "stageConfigurations",
							"type": "tuple[]",
							"internalType": "struct REVStageConfig[]",
							"components": [
								{
									"name": "startsAtOrAfter",
									"type": "uint40",
									"internalType": "uint40"
								},
								{
									"name": "mintConfigs",
									"type": "tuple[]",
									"internalType": "struct REVMintConfig[]",
									"components": [
										{
											"name": "chainId",
											"type": "uint256",
											"internalType": "uint256"
										},
										{
											"name": "count",
											"type": "uint256",
											"internalType": "uint256"
										},
										{
											"name": "beneficiary",
											"type": "address",
											"internalType": "address"
										}
									]
								},
								{
									"name": "splitRate",
									"type": "uint16",
									"internalType": "uint16"
								},
								{
									"name": "initialIssuanceRate",
									"type": "uint112",
									"internalType": "uint112"
								},
								{
									"name": "priceCeilingIncreaseFrequency",
									"type": "uint40",
									"internalType": "uint40"
								},
								{
									"name": "priceCeilingIncreasePercentage",
									"type": "uint32",
									"internalType": "uint32"
								},
								{
									"name": "priceFloorTaxIntensity",
									"type": "uint16",
									"internalType": "uint16"
								}
							]
						}
					]
				},
				{
					"name": "terminalConfigurations",
					"type": "tuple[]",
					"internalType": "struct JBTerminalConfig[]",
					"components": [
						{
							"name": "terminal",
							"type": "address",
							"internalType": "contract IJBTerminal"
						},
						{
							"name": "tokensToAccept",
							"type": "address[]",
							"internalType": "address[]"
						}
					]
				},
				{
					"name": "buybackHookConfiguration",
					"type": "tuple",
					"internalType": "struct REVBuybackHookConfig",
					"components": [
						{
							"name": "hook",
							"type": "address",
							"internalType": "contract IJBBuybackHook"
						},
						{
							"name": "poolConfigurations",
							"type": "tuple[]",
							"internalType": "struct REVBuybackPoolConfig[]",
							"components": [
								{
									"name": "token",
									"type": "address",
									"internalType": "address"
								},
								{
									"name": "fee",
									"type": "uint24",
									"internalType": "uint24"
								},
								{
									"name": "twapWindow",
									"type": "uint32",
									"internalType": "uint32"
								},
								{
									"name": "twapSlippageTolerance",
									"type": "uint32",
									"internalType": "uint32"
								}
							]
						}
					]
				},
				{
					"name": "suckerDeploymentConfiguration",
					"type": "tuple",
					"internalType": "struct REVSuckerDeploymentConfig",
					"components": [
						{
							"name": "deployerConfigurations",
							"type": "tuple[]",
							"internalType": "struct BPSuckerDeployerConfig[]",
							"components": [
								{
									"name": "deployer",
									"type": "address",
									"internalType": "contract IBPSuckerDeployer"
								},
								{
									"name": "mappings",
									"type": "tuple[]",
									"internalType": "struct BPTokenMapping[]",
									"components": [
										{
											"name": "localToken",
											"type": "address",
											"internalType": "address"
										},
										{
											"name": "minGas",
											"type": "uint32",
											"internalType": "uint32"
										},
										{
											"name": "remoteToken",
											"type": "address",
											"internalType": "address"
										},
										{
											"name": "minBridgeAmount",
											"type": "uint256",
											"internalType": "uint256"
										}
									]
								}
							]
						},
						{
							"name": "salt",
							"type": "bytes32",
							"internalType": "bytes32"
						}
					]
				}
			],
			"outputs": [
				{
					"name": "",
					"type": "uint256",
					"internalType": "uint256"
				}
			],
			"stateMutability": "nonpayable"
		},
		{
			"type": "function",
			"name": "mintFor",
			"inputs": [
				{
					"name": "revnetId",
					"type": "uint256",
					"internalType": "uint256"
				},
				{
					"name": "stageId",
					"type": "uint256",
					"internalType": "uint256"
				},
				{
					"name": "beneficiary",
					"type": "address",
					"internalType": "address"
				}
			],
			"outputs": [],
			"stateMutability": "nonpayable"
		},
		{
			"type": "function",
			"name": "onERC721Received",
			"inputs": [
				{
					"name": "operator",
					"type": "address",
					"internalType": "address"
				},
				{
					"name": "",
					"type": "address",
					"internalType": "address"
				},
				{
					"name": "tokenId",
					"type": "uint256",
					"internalType": "uint256"
				},
				{
					"name": "data",
					"type": "bytes",
					"internalType": "bytes"
				}
			],
			"outputs": [
				{
					"name": "",
					"type": "bytes4",
					"internalType": "bytes4"
				}
			],
			"stateMutability": "view"
		},
		{
			"type": "function",
			"name": "payHookSpecificationsOf",
			"inputs": [
				{
					"name": "revnetId",
					"type": "uint256",
					"internalType": "uint256"
				}
			],
			"outputs": [
				{
					"name": "",
					"type": "tuple[]",
					"internalType": "struct JBPayHookSpecification[]",
					"components": [
						{
							"name": "hook",
							"type": "address",
							"internalType": "contract IJBPayHook"
						},
						{
							"name": "amount",
							"type": "uint256",
							"internalType": "uint256"
						},
						{
							"name": "metadata",
							"type": "bytes",
							"internalType": "bytes"
						}
					]
				}
			],
			"stateMutability": "view"
		},
		{
			"type": "function",
			"name": "replaceSplitOperatorOf",
			"inputs": [
				{
					"name": "revnetId",
					"type": "uint256",
					"internalType": "uint256"
				},
				{
					"name": "newSplitOperator",
					"type": "address",
					"internalType": "address"
				}
			],
			"outputs": [],
			"stateMutability": "nonpayable"
		},
		{
			"type": "function",
			"name": "supportsInterface",
			"inputs": [
				{
					"name": "interfaceId",
					"type": "bytes4",
					"internalType": "bytes4"
				}
			],
			"outputs": [
				{
					"name": "",
					"type": "bool",
					"internalType": "bool"
				}
			],
			"stateMutability": "view"
		},
		{
			"type": "function",
			"name": "trustedForwarder",
			"inputs": [],
			"outputs": [
				{
					"name": "",
					"type": "address",
					"internalType": "address"
				}
			],
			"stateMutability": "view"
		},
		{
			"type": "event",
			"name": "DeployRevnet",
			"inputs": [
				{
					"name": "revnetId",
					"type": "uint256",
					"indexed": true,
					"internalType": "uint256"
				},
				{
					"name": "configuration",
					"type": "tuple",
					"indexed": false,
					"internalType": "struct REVConfig",
					"components": [
						{
							"name": "description",
							"type": "tuple",
							"internalType": "struct REVDescription",
							"components": [
								{
									"name": "name",
									"type": "string",
									"internalType": "string"
								},
								{
									"name": "ticker",
									"type": "string",
									"internalType": "string"
								},
								{
									"name": "uri",
									"type": "string",
									"internalType": "string"
								},
								{
									"name": "salt",
									"type": "bytes32",
									"internalType": "bytes32"
								}
							]
						},
						{
							"name": "baseCurrency",
							"type": "uint32",
							"internalType": "uint32"
						},
						{
							"name": "initialSplitOperator",
							"type": "address",
							"internalType": "address"
						},
						{
							"name": "stageConfigurations",
							"type": "tuple[]",
							"internalType": "struct REVStageConfig[]",
							"components": [
								{
									"name": "startsAtOrAfter",
									"type": "uint40",
									"internalType": "uint40"
								},
								{
									"name": "mintConfigs",
									"type": "tuple[]",
									"internalType": "struct REVMintConfig[]",
									"components": [
										{
											"name": "chainId",
											"type": "uint256",
											"internalType": "uint256"
										},
										{
											"name": "count",
											"type": "uint256",
											"internalType": "uint256"
										},
										{
											"name": "beneficiary",
											"type": "address",
											"internalType": "address"
										}
									]
								},
								{
									"name": "splitRate",
									"type": "uint16",
									"internalType": "uint16"
								},
								{
									"name": "initialIssuanceRate",
									"type": "uint112",
									"internalType": "uint112"
								},
								{
									"name": "priceCeilingIncreaseFrequency",
									"type": "uint40",
									"internalType": "uint40"
								},
								{
									"name": "priceCeilingIncreasePercentage",
									"type": "uint32",
									"internalType": "uint32"
								},
								{
									"name": "priceFloorTaxIntensity",
									"type": "uint16",
									"internalType": "uint16"
								}
							]
						}
					]
				},
				{
					"name": "terminalConfigurations",
					"type": "tuple[]",
					"indexed": false,
					"internalType": "struct JBTerminalConfig[]",
					"components": [
						{
							"name": "terminal",
							"type": "address",
							"internalType": "contract IJBTerminal"
						},
						{
							"name": "tokensToAccept",
							"type": "address[]",
							"internalType": "address[]"
						}
					]
				},
				{
					"name": "buybackHookConfiguration",
					"type": "tuple",
					"indexed": false,
					"internalType": "struct REVBuybackHookConfig",
					"components": [
						{
							"name": "hook",
							"type": "address",
							"internalType": "contract IJBBuybackHook"
						},
						{
							"name": "poolConfigurations",
							"type": "tuple[]",
							"internalType": "struct REVBuybackPoolConfig[]",
							"components": [
								{
									"name": "token",
									"type": "address",
									"internalType": "address"
								},
								{
									"name": "fee",
									"type": "uint24",
									"internalType": "uint24"
								},
								{
									"name": "twapWindow",
									"type": "uint32",
									"internalType": "uint32"
								},
								{
									"name": "twapSlippageTolerance",
									"type": "uint32",
									"internalType": "uint32"
								}
							]
						}
					]
				},
				{
					"name": "suckerDeploymentConfiguration",
					"type": "tuple",
					"indexed": false,
					"internalType": "struct REVSuckerDeploymentConfig",
					"components": [
						{
							"name": "deployerConfigurations",
							"type": "tuple[]",
							"internalType": "struct BPSuckerDeployerConfig[]",
							"components": [
								{
									"name": "deployer",
									"type": "address",
									"internalType": "contract IBPSuckerDeployer"
								},
								{
									"name": "mappings",
									"type": "tuple[]",
									"internalType": "struct BPTokenMapping[]",
									"components": [
										{
											"name": "localToken",
											"type": "address",
											"internalType": "address"
										},
										{
											"name": "minGas",
											"type": "uint32",
											"internalType": "uint32"
										},
										{
											"name": "remoteToken",
											"type": "address",
											"internalType": "address"
										},
										{
											"name": "minBridgeAmount",
											"type": "uint256",
											"internalType": "uint256"
										}
									]
								}
							]
						},
						{
							"name": "salt",
							"type": "bytes32",
							"internalType": "bytes32"
						}
					]
				},
				{
					"name": "rulesetConfigurations",
					"type": "tuple[]",
					"indexed": false,
					"internalType": "struct JBRulesetConfig[]",
					"components": [
						{
							"name": "mustStartAtOrAfter",
							"type": "uint256",
							"internalType": "uint256"
						},
						{
							"name": "duration",
							"type": "uint256",
							"internalType": "uint256"
						},
						{
							"name": "weight",
							"type": "uint256",
							"internalType": "uint256"
						},
						{
							"name": "decayRate",
							"type": "uint256",
							"internalType": "uint256"
						},
						{
							"name": "approvalHook",
							"type": "address",
							"internalType": "contract IJBRulesetApprovalHook"
						},
						{
							"name": "metadata",
							"type": "tuple",
							"internalType": "struct JBRulesetMetadata",
							"components": [
								{
									"name": "reservedRate",
									"type": "uint256",
									"internalType": "uint256"
								},
								{
									"name": "redemptionRate",
									"type": "uint256",
									"internalType": "uint256"
								},
								{
									"name": "baseCurrency",
									"type": "uint256",
									"internalType": "uint256"
								},
								{
									"name": "pausePay",
									"type": "bool",
									"internalType": "bool"
								},
								{
									"name": "pauseCreditTransfers",
									"type": "bool",
									"internalType": "bool"
								},
								{
									"name": "allowOwnerMinting",
									"type": "bool",
									"internalType": "bool"
								},
								{
									"name": "allowSetCustomToken",
									"type": "bool",
									"internalType": "bool"
								},
								{
									"name": "allowTerminalMigration",
									"type": "bool",
									"internalType": "bool"
								},
								{
									"name": "allowSetTerminals",
									"type": "bool",
									"internalType": "bool"
								},
								{
									"name": "allowSetController",
									"type": "bool",
									"internalType": "bool"
								},
								{
									"name": "ownerMustSendPayouts",
									"type": "bool",
									"internalType": "bool"
								},
								{
									"name": "holdFees",
									"type": "bool",
									"internalType": "bool"
								},
								{
									"name": "useTotalSurplusForRedemptions",
									"type": "bool",
									"internalType": "bool"
								},
								{
									"name": "useDataHookForPay",
									"type": "bool",
									"internalType": "bool"
								},
								{
									"name": "useDataHookForRedeem",
									"type": "bool",
									"internalType": "bool"
								},
								{
									"name": "dataHook",
									"type": "address",
									"internalType": "address"
								},
								{
									"name": "metadata",
									"type": "uint256",
									"internalType": "uint256"
								}
							]
						},
						{
							"name": "splitGroups",
							"type": "tuple[]",
							"internalType": "struct JBSplitGroup[]",
							"components": [
								{
									"name": "groupId",
									"type": "uint256",
									"internalType": "uint256"
								},
								{
									"name": "splits",
									"type": "tuple[]",
									"internalType": "struct JBSplit[]",
									"components": [
										{
											"name": "preferAddToBalance",
											"type": "bool",
											"internalType": "bool"
										},
										{
											"name": "percent",
											"type": "uint256",
											"internalType": "uint256"
										},
										{
											"name": "projectId",
											"type": "uint256",
											"internalType": "uint256"
										},
										{
											"name": "beneficiary",
											"type": "address",
											"internalType": "address payable"
										},
										{
											"name": "lockedUntil",
											"type": "uint256",
											"internalType": "uint256"
										},
										{
											"name": "hook",
											"type": "address",
											"internalType": "contract IJBSplitHook"
										}
									]
								}
							]
						},
						{
							"name": "fundAccessLimitGroups",
							"type": "tuple[]",
							"internalType": "struct JBFundAccessLimitGroup[]",
							"components": [
								{
									"name": "terminal",
									"type": "address",
									"internalType": "address"
								},
								{
									"name": "token",
									"type": "address",
									"internalType": "address"
								},
								{
									"name": "payoutLimits",
									"type": "tuple[]",
									"internalType": "struct JBCurrencyAmount[]",
									"components": [
										{
											"name": "amount",
											"type": "uint256",
											"internalType": "uint256"
										},
										{
											"name": "currency",
											"type": "uint256",
											"internalType": "uint256"
										}
									]
								},
								{
									"name": "surplusAllowances",
									"type": "tuple[]",
									"internalType": "struct JBCurrencyAmount[]",
									"components": [
										{
											"name": "amount",
											"type": "uint256",
											"internalType": "uint256"
										},
										{
											"name": "currency",
											"type": "uint256",
											"internalType": "uint256"
										}
									]
								}
							]
						}
					]
				},
				{
					"name": "encodedConfiguration",
					"type": "bytes",
					"indexed": false,
					"internalType": "bytes"
				},
				{
					"name": "isInProgress",
					"type": "bool",
					"indexed": false,
					"internalType": "bool"
				},
				{
					"name": "caller",
					"type": "address",
					"indexed": false,
					"internalType": "address"
				}
			],
			"anonymous": false
		},
		{
			"type": "event",
			"name": "DeploySuckers",
			"inputs": [
				{
					"name": "revnetId",
					"type": "uint256",
					"indexed": true,
					"internalType": "uint256"
				},
				{
					"name": "salt",
					"type": "bytes32",
					"indexed": true,
					"internalType": "bytes32"
				},
				{
					"name": "encodedConfiguration",
					"type": "bytes",
					"indexed": false,
					"internalType": "bytes"
				},
				{
					"name": "suckerDeploymentConfiguration",
					"type": "tuple",
					"indexed": false,
					"internalType": "struct REVSuckerDeploymentConfig",
					"components": [
						{
							"name": "deployerConfigurations",
							"type": "tuple[]",
							"internalType": "struct BPSuckerDeployerConfig[]",
							"components": [
								{
									"name": "deployer",
									"type": "address",
									"internalType": "contract IBPSuckerDeployer"
								},
								{
									"name": "mappings",
									"type": "tuple[]",
									"internalType": "struct BPTokenMapping[]",
									"components": [
										{
											"name": "localToken",
											"type": "address",
											"internalType": "address"
										},
										{
											"name": "minGas",
											"type": "uint32",
											"internalType": "uint32"
										},
										{
											"name": "remoteToken",
											"type": "address",
											"internalType": "address"
										},
										{
											"name": "minBridgeAmount",
											"type": "uint256",
											"internalType": "uint256"
										}
									]
								}
							]
						},
						{
							"name": "salt",
							"type": "bytes32",
							"internalType": "bytes32"
						}
					]
				},
				{
					"name": "caller",
					"type": "address",
					"indexed": false,
					"internalType": "address"
				}
			],
			"anonymous": false
		},
		{
			"type": "event",
			"name": "Mint",
			"inputs": [
				{
					"name": "revnetId",
					"type": "uint256",
					"indexed": true,
					"internalType": "uint256"
				},
				{
					"name": "stageId",
					"type": "uint256",
					"indexed": true,
					"internalType": "uint256"
				},
				{
					"name": "beneficiary",
					"type": "address",
					"indexed": true,
					"internalType": "address"
				},
				{
					"name": "count",
					"type": "uint256",
					"indexed": false,
					"internalType": "uint256"
				},
				{
					"name": "caller",
					"type": "address",
					"indexed": false,
					"internalType": "address"
				}
			],
			"anonymous": false
		},
		{
			"type": "event",
			"name": "ReplaceSplitOperator",
			"inputs": [
				{
					"name": "revnetId",
					"type": "uint256",
					"indexed": true,
					"internalType": "uint256"
				},
				{
					"name": "newSplitOperator",
					"type": "address",
					"indexed": true,
					"internalType": "address"
				},
				{
					"name": "caller",
					"type": "address",
					"indexed": false,
					"internalType": "address"
				}
			],
			"anonymous": false
		},
		{
			"type": "event",
			"name": "StoreMintPotential",
			"inputs": [
				{
					"name": "revnetId",
					"type": "uint256",
					"indexed": true,
					"internalType": "uint256"
				},
				{
					"name": "stageId",
					"type": "uint256",
					"indexed": true,
					"internalType": "uint256"
				},
				{
					"name": "beneficiary",
					"type": "address",
					"indexed": true,
					"internalType": "address"
				},
				{
					"name": "count",
					"type": "uint256",
					"indexed": false,
					"internalType": "uint256"
				},
				{
					"name": "caller",
					"type": "address",
					"indexed": false,
					"internalType": "address"
				}
			],
			"anonymous": false
		},
		{
			"type": "error",
			"name": "REVBasicDeployer_BadStageTimes",
			"inputs": []
		},
		{
			"type": "error",
			"name": "REVBasicDeployer_ExitDelayInEffect",
			"inputs": []
		},
		{
			"type": "error",
			"name": "REVBasicDeployer_StageNotStarted",
			"inputs": []
		},
		{
			"type": "error",
			"name": "REVBasicDeployer_Unauthorized",
			"inputs": []
		}
	],
	"solcInputHash": "5598f3c23a185a2ed39d4a994b34b8de",
	"args": [
		"0x74688Ef633BB1990e806b1F5f8F16e19abA22bEB",
		"0xba50A4FA419e1c7AdfB7ca0186a01A556c0126c2",
		"0xB2b5841DBeF766d4b521221732F9B618fCf34A87"
	],
	"bytecode": "0x60e06040523480156200001157600080fd5b5060405162004b2438038062004b248339810160408190526200003491620000bc565b6001600160a01b0390811660805291821660a0521660c0526003805460018181018355600083905260117fc2575a0e9e593c00f959f8c92f12db2869c3395a3b0502d05e2516446f71f85b92830155825480820184556018908301558254908101909255600691015562000110565b6001600160a01b0381168114620000b957600080fd5b50565b600080600060608486031215620000d257600080fd5b8351620000df81620000a3565b6020850151909350620000f281620000a3565b60408501519092506200010581620000a3565b809150509250925092565b60805160a05160c051614951620001d3600039600081816103430152818161096b01528181610d380152818161105801528181611a890152611baf0152600081816103900152818161041f01528181610a4801528181610c3c01528181610e6701528181611130015281816112ae0152818161142901528181611601015281816116ce015281816117af015281816118770152818161194401528181611ac401526126b50152600081816101ee015281816102c5015261288c01526149516000f3fe608060405234801561001057600080fd5b50600436106101365760003560e01c80637da0a877116100b2578063aaf320d711610081578063bb19940211610066578063bb19940214610365578063eb5ad9d914610378578063ee0fc1211461038b57600080fd5b8063aaf320d71461031b578063b5d255331461033e57600080fd5b80637da0a877146102c357806382a09b30146102e95780639ab68726146102fe5780639d82ba251461031157600080fd5b8063572b6c05116101095780635c0a7cee116100ee5780635c0a7cee1461024f578063677ce0881461026f5780637249a7731461028257600080fd5b8063572b6c05146101de5780635a31dc131461021e57600080fd5b806301ffc9a71461013b578063150b7a021461016357806343681e151461018f5780634c4ffc71146101bd575b600080fd5b61014e610149366004612a81565b6103b2565b60405190151581526020015b60405180910390f35b610176610171366004612ada565b61041b565b6040516001600160e01b0319909116815260200161015a565b6101af61019d366004612b79565b60016020526000908152604090205481565b60405190815260200161015a565b6101d06101cb366004612b92565b6104e7565b60405161015a929190612c9f565b61014e6101ec366004612cc0565b7f00000000000000000000000000000000000000000000000000000000000000006001600160a01b0390811691161490565b6101af61022c366004612cdd565b600260209081526000938452604080852082529284528284209052825290205481565b61026261025d366004612b79565b6107eb565b60405161015a9190612d16565b61014e61027d366004612d29565b61090f565b6102ab610290366004612b79565b6000602081905290815260409020546001600160a01b031681565b6040516001600160a01b03909116815260200161015a565b7f00000000000000000000000000000000000000000000000000000000000000006102ab565b6102fc6102f7366004612cdd565b610a44565b005b6101af61030c366004613527565b610d0c565b6101af62278d0081565b61032e6103293660046136d2565b610d28565b60405161015a949392919061370e565b6102ab7f000000000000000000000000000000000000000000000000000000000000000081565b6102fc6103733660046137ae565b610e65565b6102fc610386366004612d29565b611121565b6102ab7f000000000000000000000000000000000000000000000000000000000000000081565b60006001600160e01b031982167f81c03c2e00000000000000000000000000000000000000000000000000000000148061041557507f01ffc9a7000000000000000000000000000000000000000000000000000000006001600160e01b03198316145b92915050565b60007f00000000000000000000000000000000000000000000000000000000000000006001600160a01b031663293c49996040518163ffffffff1660e01b8152600401602060405180830381865afa15801561047b573d6000803e3d6000fd5b505050506040513d601f19601f8201168201806040525081019061049f9190613832565b6001600160a01b0316336001600160a01b0316146104bc57600080fd5b507f150b7a020000000000000000000000000000000000000000000000000000000095945050505050565b60c081013560009081526020819052604081205460609081906001600160a01b031680156105a3576040517f4c4ffc710000000000000000000000000000000000000000000000000000000081526001600160a01b03821690634c4ffc71906105549088906004016138fa565b600060405180830381865afa158015610571573d6000803e3d6000fd5b505050506040513d6000823e601f3d908101601f1916820160405261059991908101906139cb565b90945091506105ac565b84610120013593505b815160c086013560009081526005602090815260408083208054825181850281018501909352808352941515949192909190849084015b828210156106c7576000848152602090819020604080516060810182526003860290920180546001600160a01b031683526001810154938301939093526002830180549293929184019161063690613b13565b80601f016020809104026020016040519081016040528092919081815260200182805461066290613b13565b80156106af5780601f10610684576101008083540402835291602001916106af565b820191906000526020600020905b81548152906001019060200180831161069257829003601f168201915b505050505081525050815260200190600101906105e3565b505050509050600081519050826106df5760006106e2565b60015b6106ef9060ff1682613b63565b67ffffffffffffffff81111561070757610707612d59565b60405190808252806020026020018201604052801561075457816020015b604080516060808201835260008083526020830152918101919091528152602001906001900390816107255790505b50955060005b818110156107a15782818151811061077457610774613b76565b602002602001015187828151811061078e5761078e613b76565b602090810291909101015260010161075a565b5082156107e157846000815181106107bb576107bb613b76565b60200260200101518682815181106107d5576107d5613b76565b60200260200101819052505b5050505050915091565b606060056000838152602001908152602001600020805480602002602001604051908101604052809291908181526020016000905b82821015610904576000848152602090819020604080516060810182526003860290920180546001600160a01b031683526001810154938301939093526002830180549293929184019161087390613b13565b80601f016020809104026020016040519081016040528092919081815260200182805461089f90613b13565b80156108ec5780601f106108c1576101008083540402835291602001916108ec565b820191906000526020600020905b8154815290600101906020018083116108cf57829003601f168201915b50505050508152505081526020019060010190610820565b505050509050919050565b6000828152602081905260408120546001600160a01b039081169083160361093957506001610415565b6040517f3d12cb87000000000000000000000000000000000000000000000000000000008152600481018490526000907f00000000000000000000000000000000000000000000000000000000000000006001600160a01b031690633d12cb8790602401600060405180830381865afa1580156109ba573d6000803e3d6000fd5b505050506040513d6000823e601f3d908101601f191682016040526109e29190810190613b8c565b805190915060005b81811015610a3857828181518110610a0457610a04613b76565b60200260200101516001600160a01b0316856001600160a01b031603610a305760019350505050610415565b6001016109ea565b50600095945050505050565b60007f00000000000000000000000000000000000000000000000000000000000000006001600160a01b031663d4a1b4b16040518163ffffffff1660e01b8152600401602060405180830381865afa158015610aa4573d6000803e3d6000fd5b505050506040513d601f19601f82011682018060405250810190610ac89190613832565b6040517f25a61d5c00000000000000000000000000000000000000000000000000000000815260048101869052602481018590526001600160a01b0391909116906325a61d5c9060440161012060405180830381865afa158015610b30573d6000803e3d6000fd5b505050506040513d601f19601f82011682018060405250810190610b549190613c31565b90504281606001511115610b94576040517f13dec85c00000000000000000000000000000000000000000000000000000000815260040160405180910390fd5b600084815260026020908152604080832084830151845282528083206001600160a01b038616845290915281205490819003610bd1575050505050565b600085815260026020908152604080832087845282528083206001600160a01b038781168086529190935281842084905590516363fdc96f60e11b81526004810189905260248101859052604481019190915260a0606482015260a4810183905260848101929092527f0000000000000000000000000000000000000000000000000000000000000000169063c7fb92de9060c4016020604051808303816000875af1158015610c85573d6000803e3d6000fd5b505050506040513d601f19601f82011682018060405250810190610ca99190613cb1565b50826001600160a01b03168260200151867f598baf7bf150ca2f42be9e9f8f55e81d45f5715c3ff22bf46d697fabec7f31d68433604051610cfd9291909182526001600160a01b0316602082015260400190565b60405180910390a45050505050565b6000610d1e86868686306000886115e0565b9695505050505050565b6000808060606001600160a01b037f0000000000000000000000000000000000000000000000000000000000000000166383db9d0160408701803590610d719060208a01612cc0565b6040516001600160e01b031960e085901b16815260048101929092526001600160a01b03166024820152604401602060405180830381865afa158015610dbb573d6000803e3d6000fd5b505050506040513d601f19601f82011682018060405250810190610ddf9190613cca565b15610dfc5761271085608001358660a00135935093509350610e5e565b604080860135600090815260016020522054421015610e47576040517f04c3b3cd00000000000000000000000000000000000000000000000000000000815260040160405180910390fd5b84610160013585608001358660a001359350935093505b9193509193565b7f00000000000000000000000000000000000000000000000000000000000000006001600160a01b0316631f47ce696040518163ffffffff1660e01b8152600401602060405180830381865afa158015610ec3573d6000803e3d6000fd5b505050506040513d601f19601f82011682018060405250810190610ee79190613832565b6001600160a01b031663f434c9146040518163ffffffff1660e01b8152600401602060405180830381865afa158015610f24573d6000803e3d6000fd5b505050506040513d601f19601f82011682018060405250810190610f489190613832565b6001600160a01b031663632af95f610f5e611cdd565b3086610f6988611cec565b6000806040518763ffffffff1660e01b8152600401610f8d96959493929190613d28565b602060405180830381865afa158015610faa573d6000803e3d6000fd5b505050506040513d601f19601f82011682018060405250810190610fce9190613cca565b610feb576040516331fb21f360e01b815260040160405180910390fd5b6000610ff5611cdd565b83836020015160405160200161100d93929190613d74565b60408051601f1981840301815290829052805160209091012083517f2f3f50e00000000000000000000000000000000000000000000000000000000083529092506001600160a01b037f00000000000000000000000000000000000000000000000000000000000000001691632f3f50e09161108f9188918691600401613e7e565b6000604051808303816000875af11580156110ae573d6000803e3d6000fd5b505050506040513d6000823e601f3d908101601f191682016040526110d69190810190613b8c565b5080847f755ecfca2f6e66af8868551556bf7931740a7062db8e0882f4c322fdb0bb3f608585611104611cdd565b60405161111393929190613ec6565b60405180910390a350505050565b600061112c83611cec565b90507f00000000000000000000000000000000000000000000000000000000000000006001600160a01b0316631f47ce696040518163ffffffff1660e01b8152600401602060405180830381865afa15801561118c573d6000803e3d6000fd5b505050506040513d601f19601f820116820180604052508101906111b09190613832565b6001600160a01b031663f434c9146040518163ffffffff1660e01b8152600401602060405180830381865afa1580156111ed573d6000803e3d6000fd5b505050506040513d601f19601f820116820180604052508101906112119190613832565b6001600160a01b031663632af95f611227611cdd565b3086856000806040518763ffffffff1660e01b815260040161124e96959493929190613d28565b602060405180830381865afa15801561126b573d6000803e3d6000fd5b505050506040513d601f19601f8201168201806040525081019061128f9190613cca565b6112ac576040516331fb21f360e01b815260040160405180910390fd5b7f00000000000000000000000000000000000000000000000000000000000000006001600160a01b0316631f47ce696040518163ffffffff1660e01b8152600401602060405180830381865afa15801561130a573d6000803e3d6000fd5b505050506040513d601f19601f8201168201806040525081019061132e9190613832565b6001600160a01b031663f434c9146040518163ffffffff1660e01b8152600401602060405180830381865afa15801561136b573d6000803e3d6000fd5b505050506040513d601f19601f8201168201806040525081019061138f9190613832565b6001600160a01b03166305d2912e3060405180606001604052806113b1611cdd565b6001600160a01b0316815260208082018990526040805160008152918201815291820152516001600160e01b031960e085901b1681526113f5929190600401613f05565b600060405180830381600087803b15801561140f57600080fd5b505af1158015611423573d6000803e3d6000fd5b505050507f00000000000000000000000000000000000000000000000000000000000000006001600160a01b0316631f47ce696040518163ffffffff1660e01b8152600401602060405180830381865afa158015611485573d6000803e3d6000fd5b505050506040513d601f19601f820116820180604052508101906114a99190613832565b6001600160a01b031663f434c9146040518163ffffffff1660e01b8152600401602060405180830381865afa1580156114e6573d6000803e3d6000fd5b505050506040513d601f19601f8201168201806040525081019061150a9190613832565b6001600160a01b03166305d2912e306040518060600160405280866001600160a01b03168152602001878152602001858152506040518363ffffffff1660e01b815260040161155a929190613f05565b600060405180830381600087803b15801561157457600080fd5b505af1158015611588573d6000803e3d6000fd5b50505050816001600160a01b0316837f0329d6a81434b130c72eb65eea0e32e429dc1277b4aad86ec86454aefb6184516115c0611cdd565b6040516001600160a01b03909116815260200160405180910390a3505050565b6000806000806115f18a8888611ea4565b9250925092508a6000036116cc577f00000000000000000000000000000000000000000000000000000000000000006001600160a01b0316639e14fb80308c6000015160400151868d8f60000151602001516040516020016116539190613f48565b6040516020818303038152906040526040518663ffffffff1660e01b815260040161168295949392919061439f565b6020604051808303816000875af11580156116a1573d6000803e3d6000fd5b505050506040513d601f19601f820116820180604052508101906116c59190613cb1565b9a5061178a565b7f00000000000000000000000000000000000000000000000000000000000000006001600160a01b03166321df42e88c858c8e60000151602001516040516020016117179190613f48565b6040516020818303038152906040526040518563ffffffff1660e01b81526004016117459493929190614407565b6020604051808303816000875af1158015611764573d6000803e3d6000fd5b505050506040513d601f19601f820116820180604052508101906117889190613cb1565b505b80156117ad5761179d62278d0042613b63565b60008c8152600160205260409020555b7f00000000000000000000000000000000000000000000000000000000000000006001600160a01b031663581781918c8c60000151600001518d60000151602001518e60000151606001516040518563ffffffff1660e01b81526004016118179493929190614446565b6020604051808303816000875af1158015611836573d6000803e3d6000fd5b505050506040513d601f19601f8201168201806040525081019061185a9190613832565b5087516001600160a01b031615611875576118758b896122cd565b7f00000000000000000000000000000000000000000000000000000000000000006001600160a01b031663dd5f214a8c60006118b48e60400151612438565b6040518463ffffffff1660e01b81526004016118d293929190614483565b600060405180830381600087803b1580156118ec57600080fd5b505af1158015611900573d6000803e3d6000fd5b5050505061190e8b8b612576565b600060405180606001604052808c604001516001600160a01b031681526020018d815260200161193d8e611cec565b81525090507f00000000000000000000000000000000000000000000000000000000000000006001600160a01b031663f434c9146040518163ffffffff1660e01b8152600401602060405180830381865afa1580156119a0573d6000803e3d6000fd5b505050506040513d601f19601f820116820180604052508101906119c49190613832565b6001600160a01b03166305d2912e30836040518363ffffffff1660e01b81526004016119f1929190613f05565b600060405180830381600087803b158015611a0b57600080fd5b505af1158015611a1f573d6000803e3d6000fd5b506000925060019150611a2f9050565b604051908082528060200260200182016040528015611a58578160200160208202803683370190505b509050601b81600081518110611a7057611a70613b76565b60200260200101818152505060405180606001604052807f00000000000000000000000000000000000000000000000000000000000000006001600160a01b031681526020018e81526020018281525091507f00000000000000000000000000000000000000000000000000000000000000006001600160a01b031663f434c9146040518163ffffffff1660e01b8152600401602060405180830381865afa158015611b20573d6000803e3d6000fd5b505050506040513d601f19601f82011682018060405250810190611b449190613832565b6001600160a01b03166305d2912e30846040518363ffffffff1660e01b8152600401611b71929190613f05565b600060405180830381600087803b158015611b8b57600080fd5b505af1158015611b9f573d6000803e3d6000fd5b50505050602087015115611c7f577f00000000000000000000000000000000000000000000000000000000000000006001600160a01b0316632f3f50e08e611be5611cdd565b878b60200151604051602001611bfd93929190613d74565b60408051601f198184030181529082905280516020909101208b516001600160e01b031960e086901b168352611c369392600401613e7e565b6000604051808303816000875af1158015611c55573d6000803e3d6000fd5b505050506040513d6000823e601f3d908101601f19168201604052611c7d9190810190613b8c565b505b8c7fabdf3ec8139195645b1e44778a910396624b7d2913c04b613f4800ad25d710468d8d8d8b8a8a8a611cb0611cdd565b604051611cc498979695949392919061470a565b60405180910390a2509a9b9a5050505050505050505050565b6000611ce761287c565b905090565b606060006003805480602002602001604051908101604052809291908181526020018280548015611d3c57602002820191906000526020600020905b815481526020019060010190808311611d28575b50508351600088815260046020908152604080832080548251818502810185019093528083529899509397929650945091925090830182828015611d9f57602002820191906000526020600020905b815481526020019060010190808311611d8b575b50508351939450611db69250839150859050613b63565b67ffffffffffffffff811115611dce57611dce612d59565b604051908082528060200260200182016040528015611df7578160200160208202803683370190505b50945060005b83811015611e4457848181518110611e1757611e17613b76565b6020026020010151868281518110611e3157611e31613b76565b6020908102919091010152600101611dfd565b5060005b81811015611e9a57828181518110611e6257611e62613b76565b6020026020010151868286611e779190613b63565b81518110611e8757611e87613b76565b6020908102919091010152600101611e48565b5050505050919050565b6060838101515181906000908067ffffffffffffffff811115611ec957611ec9612d59565b604051908082528060200260200182016040528015611fc357816020015b611fb06040805161010080820183526000808352602080840182905283850182905260608085018390526080808601849052865161022081018852848152928301849052958201839052810182905293840181905260a084810182905260c0850182905260e0850182905291840181905261012084018190526101408401819052610160840181905261018084018190526101a084018190526101c084018190526101e08401819052610200840152909190820190815260200160608152602001606081525090565b815260200190600190039081611ee75790505b509350611fcf876128f1565b6040805160e08101825260008082526060602083018190529282018190529181018290526080810182905260a0810182905260c08101829052919450805b838110156122c0578960600151818151811061202b5761202b613b76565b6020026020010151925081836000015164ffffffffff1611612079576040517f0aec2d6900000000000000000000000000000000000000000000000000000000815260040160405180910390fd5b826000015164ffffffffff1687828151811061209757612097613b76565b60200260200101516000018181525050826080015164ffffffffff168782815181106120c5576120c5613b76565b6020026020010151602001818152505082606001516dffffffffffffffffffffffffffff168782815181106120fc576120fc613b76565b602002602001015160400181815250508260a0015163ffffffff1687828151811061212957612129613b76565b60200260200101516060018181525050600087828151811061214d5761214d613b76565b6020026020010151608001906001600160a01b031690816001600160a01b031681525050604051806102200160405280846040015161ffff1681526020018460c0015161ffff166127106121a1919061485d565b815260208c81015163ffffffff16908201526000604082018190526060820181905260016080830181905260a0830182905260c0830182905260e0830182905261010083018290526101208301829052610140830182905261016083018290526101808301526101a08201526001600160a01b038b166101c08201526101e001899052875188908390811061223857612238613b76565b602002602001015160a0018190525080600014801561225e5750825164ffffffffff1615155b8015612274575042836000015164ffffffffff16105b1561227e57600194505b85612289848361292b565b60405160200161229a929190614870565b60408051601f19818403018152919052835190965064ffffffffff16915060010161200d565b5050505093509350939050565b602081810151516040805160808101825260008082529381018490529081018390526060810183905290915b828110156123ec578360200151818151811061231757612317613b76565b6020908102919091018101518551918101516040808301516060840151845192517f7b621d3a000000000000000000000000000000000000000000000000000000008152600481018c905262ffffff909416602485015263ffffffff91821660448501521660648301526001600160a01b039081166084830152919450911690637b621d3a9060a4016020604051808303816000875af11580156123bf573d6000803e3d6000fd5b505050506040513d601f19601f820116820180604052508101906123e39190613832565b506001016122f9565b5050905160009283526020839052604090922080547fffffffffffffffffffffffff0000000000000000000000000000000000000000166001600160a01b039093169290921790915550565b604080516001808252818301909252606091816020015b60408051808201909152600081526060602082015281526020019060019003908161244f57505060408051600180825281830190925291925060009190602082015b6040805160c08101825260008082526020808301829052928201819052606082018190526080820181905260a082015282526000199092019101816124915790505090506040518060c00160405280600015158152602001633b9aca00815260200160008152602001846001600160a01b031681526020016000815260200160006001600160a01b03168152508160008151811061253157612531613b76565b6020026020010181905250604051806040016040528060018152602001828152508260008151811061256557612565613b76565b602002602001018190525050919050565b606080820151516040805160e0810182526000808252602082018590529181018290529283018190526080830181905260a0830181905260c08301529060005b8281101561287557836060015181815181106125d4576125d4613b76565b60200260200101519150600082602001515190506126156040518060600160405280600081526020016000815260200160006001600160a01b031681525090565b60005b8281101561286a578460200151818151811061263657612636613b76565b602002602001015191504682600001510361286257831580612663575042856000015164ffffffffff1611155b1561279057602082015160408084015190516363fdc96f60e11b8152600481018b905260248101929092526001600160a01b03908116604483015260a06064830152600060a4830181905260848301527f0000000000000000000000000000000000000000000000000000000000000000169063c7fb92de9060c4016020604051808303816000875af11580156126fe573d6000803e3d6000fd5b505050506040513d601f19601f820116820180604052508101906127229190613cb1565b5060408201516001600160a01b031661273b8542613b63565b897f598baf7bf150ca2f42be9e9f8f55e81d45f5715c3ff22bf46d697fabec7f31d68560200151336040516127839291909182526001600160a01b0316602082015260400190565b60405180910390a4612862565b60208083015160008a815260029092526040822090916127b08742613b63565b8152602001908152602001600020600084604001516001600160a01b03166001600160a01b0316815260200190815260200160002060008282546127f49190613b63565b909155505060408201516001600160a01b03166128118542613b63565b897f9e83979117d75aa75fe101361cf46235d3d0a6fa7afafb275d2b9f8af02273138560200151336040516128599291909182526001600160a01b0316602082015260400190565b60405180910390a45b600101612618565b5050506001016125b6565b5050505050565b6000366014336001600160a01b037f0000000000000000000000000000000000000000000000000000000000000000161480156128b95750808210155b156128e9576000366128cb838561485d565b6128d692829061489f565b6128df916148c9565b60601c9250505090565b339250505090565b602080820151825180518184015160609283015160405193956129159594016148fc565b6040516020818303038152906040529050919050565b6060811580156129415750825164ffffffffff16155b61295357825164ffffffffff16612955565b425b6040808501516060860151608087015160a088015160c089015194516129c696959060200195865261ffff94851660208701526dffffffffffffffffffffffffffff93909316604086015264ffffffffff91909116606085015263ffffffff1660808401521660a082015260c00190565b60408051601f1981840301815291905260208401515190915060005b81811015612a3c5782612a1186602001518381518110612a0457612a04613b76565b6020026020010151612a44565b604051602001612a22929190614870565b60408051601f1981840301815291905292506001016129e2565b505092915050565b6060816000015182604001518360200151604051602001612915939291909283526001600160a01b03919091166020830152604082015260600190565b600060208284031215612a9357600080fd5b81356001600160e01b031981168114612aab57600080fd5b9392505050565b6001600160a01b0381168114612ac757600080fd5b50565b8035612ad581612ab2565b919050565b600080600080600060808688031215612af257600080fd5b8535612afd81612ab2565b94506020860135612b0d81612ab2565b935060408601359250606086013567ffffffffffffffff80821115612b3157600080fd5b818801915088601f830112612b4557600080fd5b813581811115612b5457600080fd5b896020828501011115612b6657600080fd5b9699959850939650602001949392505050565b600060208284031215612b8b57600080fd5b5035919050565b600060208284031215612ba457600080fd5b813567ffffffffffffffff811115612bbb57600080fd5b82016101808185031215612aab57600080fd5b60005b83811015612be9578181015183820152602001612bd1565b50506000910152565b60008151808452612c0a816020860160208601612bce565b601f01601f19169290920160200192915050565b600082825180855260208086019550808260051b84010181860160005b84811015612c9257858303601f19018952815180516001600160a01b031684528481015185850152604090810151606091850182905290612c7e81860183612bf2565b9a86019a9450505090830190600101612c3b565b5090979650505050505050565b828152604060208201526000612cb86040830184612c1e565b949350505050565b600060208284031215612cd257600080fd5b8135612aab81612ab2565b600080600060608486031215612cf257600080fd5b83359250602084013591506040840135612d0b81612ab2565b809150509250925092565b602081526000612aab6020830184612c1e565b60008060408385031215612d3c57600080fd5b823591506020830135612d4e81612ab2565b809150509250929050565b634e487b7160e01b600052604160045260246000fd5b6040516060810167ffffffffffffffff81118282101715612d9257612d92612d59565b60405290565b60405160e0810167ffffffffffffffff81118282101715612d9257612d92612d59565b6040805190810167ffffffffffffffff81118282101715612d9257612d92612d59565b6040516080810167ffffffffffffffff81118282101715612d9257612d92612d59565b604051610120810167ffffffffffffffff81118282101715612d9257612d92612d59565b604051601f8201601f1916810167ffffffffffffffff81118282101715612e4e57612e4e612d59565b604052919050565b600067ffffffffffffffff821115612e7057612e70612d59565b50601f01601f191660200190565b6000612e91612e8c84612e56565b612e25565b9050828152838383011115612ea557600080fd5b828260208301376000602084830101529392505050565b600082601f830112612ecd57600080fd5b612aab83833560208501612e7e565b803563ffffffff81168114612ad557600080fd5b600067ffffffffffffffff821115612f0a57612f0a612d59565b5060051b60200190565b803564ffffffffff81168114612ad557600080fd5b600082601f830112612f3a57600080fd5b81356020612f4a612e8c83612ef0565b82815260609283028501820192828201919087851115612f6957600080fd5b8387015b85811015612c925781818a031215612f855760008081fd5b612f8d612d6f565b813581528582013586820152604080830135612fa881612ab2565b908201528452928401928101612f6d565b803561ffff81168114612ad557600080fd5b80356dffffffffffffffffffffffffffff81168114612ad557600080fd5b600082601f830112612ffa57600080fd5b8135602061300a612e8c83612ef0565b82815260059290921b8401810191818101908684111561302957600080fd5b8286015b8481101561310b57803567ffffffffffffffff8082111561304e5760008081fd5b9088019060e0828b03601f19018113156130685760008081fd5b613070612d98565b61307b888501612f14565b8152604080850135848111156130915760008081fd5b61309f8e8b83890101612f29565b8a84015250606093506130b3848601612fb9565b9082015260806130c4858201612fcb565b8483015260a093506130d7848601612f14565b9082015260c06130e8858201612edc565b848301526130f7838601612fb9565b90820152865250505091830191830161302d565b509695505050505050565b600082601f83011261312757600080fd5b81356020613137612e8c83612ef0565b828152600592831b850182019282820191908785111561315657600080fd5b8387015b85811015612c9257803567ffffffffffffffff8082111561317b5760008081fd5b908901906040828c03601f19018113156131955760008081fd5b61319d612dbb565b888401356131aa81612ab2565b815283820135838111156131be5760008081fd5b8085019450508c603f8501126131d657600092508283fd5b8884013592506131e8612e8c84612ef0565b83815292861b8401820192898101908e8511156132055760008081fd5b948301945b8486101561322f578535935061321f84612ab2565b838252948a0194908a019061320a565b828b015250875250505092840192840161315a565b6000604080838503121561325757600080fd5b61325f612dbb565b9150823561326c81612ab2565b825260208381013567ffffffffffffffff81111561328957600080fd5b8401601f8101861361329a57600080fd5b80356132a8612e8c82612ef0565b81815260079190911b820183019083810190888311156132c757600080fd5b928401925b82841015613346576080848a0312156132e55760008081fd5b6132ed612dde565b84356132f881612ab2565b81528486013562ffffff811681146133105760008081fd5b8187015261331f858801612edc565b878201526060613330818701612edc565b90820152825260809390930192908401906132cc565b808588015250505050505092915050565b60006040828403121561336957600080fd5b613371612dbb565b905067ffffffffffffffff808335111561338a57600080fd5b8235830184601f82011261339d57600080fd5b6133aa612e8c8235612ef0565b81358082526020808301929160051b840101878111156133c957600080fd5b602084015b8181101561350e5785813511156133e457600080fd5b803585016040818b03601f190112156133fc57600080fd5b613404612dbb565b6134116020830135612ab2565b60208201358152876040830135111561342957600080fd5b6040820135820191508a603f83011261344157600080fd5b6020820135613452612e8c82612ef0565b81815260079190911b83016040019060208101908d83111561347357600080fd5b6040850194505b828510156134ef576080858f03121561349257600080fd5b61349a612dde565b6134a48635612ab2565b853581526134b460208701612edc565b60208201526134c66040870135612ab2565b60408601356040820152606086013560608201528083525060208201915060808501945061347a565b80602085015250505080865250506020840193506020810190506133ce565b5050808552505050506020820135602082015292915050565b600080600080600060a0868803121561353f57600080fd5b85359450602086013567ffffffffffffffff8082111561355e57600080fd5b908701906080828a03121561357257600080fd5b61357a612dde565b82358281111561358957600080fd5b83016080818c03121561359b57600080fd5b6135a3612dde565b8135848111156135b257600080fd5b6135be8d828501612ebc565b8252506020820135848111156135d357600080fd5b6135df8d828501612ebc565b6020830152506040820135848111156135f757600080fd5b6136038d828501612ebc565b60408301525060608201356060820152808352505061362460208401612edc565b602082015261363560408401612aca565b604082015260608301358281111561364c57600080fd5b6136588b828601612fe9565b6060830152509550604088013591508082111561367457600080fd5b61368089838a01613116565b9450606088013591508082111561369657600080fd5b6136a289838a01613244565b935060808801359150808211156136b857600080fd5b506136c588828901613357565b9150509295509295909350565b6000602082840312156136e457600080fd5b813567ffffffffffffffff8111156136fb57600080fd5b82016101a08185031215612aab57600080fd5b60006080820186835260208681850152604086604086015260606080606087015283875180865260a08801915060a08160051b890101955084890160005b8281101561379c57898803609f19018452815180516001600160a01b0316895287810151888a0152860151868901869052613789868a0182612bf2565b985050928601929086019060010161374c565b50959c9b505050505050505050505050565b6000806000606084860312156137c357600080fd5b83359250602084013567ffffffffffffffff808211156137e257600080fd5b818601915086601f8301126137f657600080fd5b61380587833560208501612e7e565b9350604086013591508082111561381b57600080fd5b5061382886828701613357565b9150509250925092565b60006020828403121561384457600080fd5b8151612aab81612ab2565b803561385a81612ab2565b6001600160a01b031682526020818101359083015260408082013590830152606090810135910152565b6000808335601e1984360301811261389b57600080fd5b830160208101925035905067ffffffffffffffff8111156138bb57600080fd5b8036038213156138ca57600080fd5b9250929050565b81835281816020850137506000828201602090810191909152601f909101601f19169091010190565b6020815261391b6020820161390e84612aca565b6001600160a01b03169052565b600061392960208401612aca565b6001600160a01b038116604084015250613949606083016040850161384f565b60c083013560e083015261010060e08401358184015261396a818501612aca565b9050610120613983818501836001600160a01b03169052565b610140915080850135828501525061016081850135818501526139a881860186613884565b61018086810152925090506139c26101a0850183836138d1565b95945050505050565b60008060408084860312156139df57600080fd5b8351925060208085015167ffffffffffffffff808211156139ff57600080fd5b818701915087601f830112613a1357600080fd5b8151613a21612e8c82612ef0565b81815260059190911b8301840190848101908a831115613a4057600080fd5b8585015b83811015613b0157805185811115613a5b57600080fd5b86016060818e03601f19011215613a725760008081fd5b613a7a612d6f565b88820151613a8781612ab2565b8152818a015189820152606082015187811115613aa45760008081fd5b8083019250508d603f830112613aba5760008081fd5b88820151613aca612e8c82612e56565b8181528f8c838601011115613adf5760008081fd5b613aee828c83018e8701612bce565b828c015250845250918601918601613a44565b50809750505050505050509250929050565b600181811c90821680613b2757607f821691505b602082108103613b4757634e487b7160e01b600052602260045260246000fd5b50919050565b634e487b7160e01b600052601160045260246000fd5b8082018082111561041557610415613b4d565b634e487b7160e01b600052603260045260246000fd5b60006020808385031215613b9f57600080fd5b825167ffffffffffffffff811115613bb657600080fd5b8301601f81018513613bc757600080fd5b8051613bd5612e8c82612ef0565b81815260059190911b82018301908381019087831115613bf457600080fd5b928401925b82841015613c1b578351613c0c81612ab2565b82529284019290840190613bf9565b979650505050505050565b8051612ad581612ab2565b60006101208284031215613c4457600080fd5b613c4c612e01565b825181526020830151602082015260408301516040820152606083015160608201526080830151608082015260a083015160a082015260c083015160c0820152613c9860e08401613c26565b60e0820152610100928301519281019290925250919050565b600060208284031215613cc357600080fd5b5051919050565b600060208284031215613cdc57600080fd5b81518015158114612aab57600080fd5b60008151808452602080850194506020840160005b83811015613d1d57815187529582019590820190600101613d01565b509495945050505050565b60006001600160a01b03808916835280881660208401525085604083015260c06060830152613d5a60c0830186613cec565b93151560808301525090151560a090910152949350505050565b6bffffffffffffffffffffffff198460601b16815260008351613d9e816014850160208801612bce565b60149201918201929092526034019392505050565b600082825180855260208086019550808260051b8401018186016000805b85811015613e7057868403601f19018a52825180516001600160a01b03908116865290860151604087870181905281518188018190529188019290916060919082890190875b81811015613e585786518051851684528c81015163ffffffff168d8501528681015185168785015285015185840152958b0195608090920191600101613e17565b50509d89019d97505050938601935050600101613dd1565b509198975050505050505050565b8381528260208201526060604082015260006139c26060830184613db3565b6000815160408452613eb26040850182613db3565b602093840151949093019390935250919050565b606081526000613ed96060830186612bf2565b8281036020840152613eeb8186613e9d565b9150506001600160a01b0383166040830152949350505050565b60006001600160a01b0380851683526040602084015280845116604084015250602083015160608301526040830151606060808401526139c260a0840182613cec565b7f2400000000000000000000000000000000000000000000000000000000000000815260008251613f80816001850160208701612bce565b7f207265766e6574206465706c6f796564000000000000000000000000000000006001939091019283015250601101919050565b8051825260208101516020830152604081015160408301526060810151613fdf606084018215159052565b506080810151613ff3608084018215159052565b5060a081015161400760a084018215159052565b5060c081015161401b60c084018215159052565b5060e081015161402f60e084018215159052565b5061010081810151151590830152610120808201511515908301526101408082015115159083015261016080820151151590830152610180808201511515908301526101a0808201511515908301526101c0808201511515908301526101e0808201516001600160a01b03169083015261020090810151910152565b600082825180855260208086019550808260051b8401018186016000805b85811015613e7057868403601f19018a52825180518552850151604086860181905281518187018190529187019160609081880190865b8181101561415a5785518051151584528b8101518c8501528581015186850152848101516001600160a01b03908116868601526080808301519086015260a0918201511690840152948a019460c090920191600101614100565b50509c88019c9650505092850192506001016140c9565b60008151808452602080850194506020840160005b83811015613d1d578151805188528301518388015260409096019590820190600101614186565b600082825180855260208086019550808260051b84010181860160005b84811015612c9257601f19868403018952815160806001600160a01b038083511686528087840151168787015250604080830151828288015261420f83880182614171565b925050506060808301519250858203818701525061422d8183614171565b9a86019a94505050908301906001016141ca565b600082825180855260208086019550808260051b84010181860160005b84811015612c9257858303601f19018952815180518452848101518585015260408082015190850152606080820151908501526080808201516001600160a01b03169085015260a08082015161030091906142bb82880182613fb4565b505060c0820151816102c08701526142d5828701826140ab565b91505060e082015191508481036102e08601526142f281836141ad565b9a86019a945050509083019060010161425e565b600082825180855260208086019550808260051b8401018186016000805b85811015613e7057868403601f19018a52825180516001600160a01b03908116865290860151604087870181905281519087018190529087019160608701918591905b8083101561438957845182168452938901939289019260019290920191614367565b5050509a86019a94505091840191600101614324565b6001600160a01b038616815260a0602082015260006143c160a0830187612bf2565b82810360408401526143d38187614241565b905082810360608401526143e78186614306565b905082810360808401526143fb8185612bf2565b98975050505050505050565b8481526080602082015260006144206080830186614241565b82810360408401526144328186614306565b90508281036060840152613c1b8185612bf2565b84815260806020820152600061445f6080830186612bf2565b82810360408401526144718186612bf2565b91505082606083015295945050505050565b600060608083018684526020868186015260406060604087015282875180855260808801915060808160051b890101945083890160005b8281101561456157898703607f190184528151805188528601518688018690528051868901819052908701906000908a8a01905b8083101561454c5783518051151583528a8101518b840152898101518a8401528c8101516001600160a01b039081168e8501526080808301519085015260a0918201511690830152928901926001929092019160c0909101906144ee565b509850505092850192908501906001016144ba565b50949b9a5050505050505050505050565b600082825180855260208086019550808260051b8401018186016000805b85811015613e7057868403601f19018a528251805164ffffffffff1685528581015160e0878701819052815190870181905261010087019188019085905b8082101561460d578251805185528a8101518b8601526040908101516001600160a01b03169085015260609093019291890191600191909101906145ce565b50505060408281015161ffff908116918801919091526060808401516dffffffffffffffffffffffffffff169088015260808084015164ffffffffff169088015260a08084015163ffffffff169088015260c0928301511691909501529884019891840191600101614590565b600060408084016001600160a01b038085511686526020808601516040828901528381518086526060955060608a019150838301925060005b818110156146fb5783518051871684528581015162ffffff16868501528881015163ffffffff9081168a860152908801511687840152928401926080909201916001016146b3565b50909998505050505050505050565b60006101008083528a51608082850152805191506080610180850152614734610200850183612bf2565b9150602081015161017f1980868503016101a08701526147548483612bf2565b93506040830151915080868503016101c0870152506147738382612bf2565b92505060608101516101e08501525060208b015161479a61012085018263ffffffff169052565b5060408b01516001600160a01b031661014084015260608b015183820360ff19016101608501526147cb8282614572565b91505082810360208401526147e0818b614306565b905082810360408401526147f4818a61467a565b905082810360608401526148088189613e9d565b9050828103608084015261481c8188614241565b905082810360a08401526148308187612bf2565b91505061484160c083018515159052565b6001600160a01b03831660e08301529998505050505050505050565b8181038181111561041557610415613b4d565b60008351614882818460208801612bce565b835190830190614896818360208801612bce565b01949350505050565b600080858511156148af57600080fd5b838611156148bc57600080fd5b5050820193919092039150565b6bffffffffffffffffffffffff198135818116916014851015612a3c5760149490940360031b84901b1690921692915050565b63ffffffff8516815260806020820152600061445f6080830186612bf256fea26469706673582212205f2effd39019f8fbb8fe3b96baac6f33062739d0cda544ed54cf7dc021c5f28264736f6c63430008170033",
	"deployedBytecode": "0x608060405234801561001057600080fd5b50600436106101365760003560e01c80637da0a877116100b2578063aaf320d711610081578063bb19940211610066578063bb19940214610365578063eb5ad9d914610378578063ee0fc1211461038b57600080fd5b8063aaf320d71461031b578063b5d255331461033e57600080fd5b80637da0a877146102c357806382a09b30146102e95780639ab68726146102fe5780639d82ba251461031157600080fd5b8063572b6c05116101095780635c0a7cee116100ee5780635c0a7cee1461024f578063677ce0881461026f5780637249a7731461028257600080fd5b8063572b6c05146101de5780635a31dc131461021e57600080fd5b806301ffc9a71461013b578063150b7a021461016357806343681e151461018f5780634c4ffc71146101bd575b600080fd5b61014e610149366004612a81565b6103b2565b60405190151581526020015b60405180910390f35b610176610171366004612ada565b61041b565b6040516001600160e01b0319909116815260200161015a565b6101af61019d366004612b79565b60016020526000908152604090205481565b60405190815260200161015a565b6101d06101cb366004612b92565b6104e7565b60405161015a929190612c9f565b61014e6101ec366004612cc0565b7f000000000000000000000000b2b5841dbef766d4b521221732f9b618fcf34a876001600160a01b0390811691161490565b6101af61022c366004612cdd565b600260209081526000938452604080852082529284528284209052825290205481565b61026261025d366004612b79565b6107eb565b60405161015a9190612d16565b61014e61027d366004612d29565b61090f565b6102ab610290366004612b79565b6000602081905290815260409020546001600160a01b031681565b6040516001600160a01b03909116815260200161015a565b7f000000000000000000000000b2b5841dbef766d4b521221732f9b618fcf34a876102ab565b6102fc6102f7366004612cdd565b610a44565b005b6101af61030c366004613527565b610d0c565b6101af62278d0081565b61032e6103293660046136d2565b610d28565b60405161015a949392919061370e565b6102ab7f000000000000000000000000ba50a4fa419e1c7adfb7ca0186a01a556c0126c281565b6102fc6103733660046137ae565b610e65565b6102fc610386366004612d29565b611121565b6102ab7f00000000000000000000000074688ef633bb1990e806b1f5f8f16e19aba22beb81565b60006001600160e01b031982167f81c03c2e00000000000000000000000000000000000000000000000000000000148061041557507f01ffc9a7000000000000000000000000000000000000000000000000000000006001600160e01b03198316145b92915050565b60007f00000000000000000000000074688ef633bb1990e806b1f5f8f16e19aba22beb6001600160a01b031663293c49996040518163ffffffff1660e01b8152600401602060405180830381865afa15801561047b573d6000803e3d6000fd5b505050506040513d601f19601f8201168201806040525081019061049f9190613832565b6001600160a01b0316336001600160a01b0316146104bc57600080fd5b507f150b7a020000000000000000000000000000000000000000000000000000000095945050505050565b60c081013560009081526020819052604081205460609081906001600160a01b031680156105a3576040517f4c4ffc710000000000000000000000000000000000000000000000000000000081526001600160a01b03821690634c4ffc71906105549088906004016138fa565b600060405180830381865afa158015610571573d6000803e3d6000fd5b505050506040513d6000823e601f3d908101601f1916820160405261059991908101906139cb565b90945091506105ac565b84610120013593505b815160c086013560009081526005602090815260408083208054825181850281018501909352808352941515949192909190849084015b828210156106c7576000848152602090819020604080516060810182526003860290920180546001600160a01b031683526001810154938301939093526002830180549293929184019161063690613b13565b80601f016020809104026020016040519081016040528092919081815260200182805461066290613b13565b80156106af5780601f10610684576101008083540402835291602001916106af565b820191906000526020600020905b81548152906001019060200180831161069257829003601f168201915b505050505081525050815260200190600101906105e3565b505050509050600081519050826106df5760006106e2565b60015b6106ef9060ff1682613b63565b67ffffffffffffffff81111561070757610707612d59565b60405190808252806020026020018201604052801561075457816020015b604080516060808201835260008083526020830152918101919091528152602001906001900390816107255790505b50955060005b818110156107a15782818151811061077457610774613b76565b602002602001015187828151811061078e5761078e613b76565b602090810291909101015260010161075a565b5082156107e157846000815181106107bb576107bb613b76565b60200260200101518682815181106107d5576107d5613b76565b60200260200101819052505b5050505050915091565b606060056000838152602001908152602001600020805480602002602001604051908101604052809291908181526020016000905b82821015610904576000848152602090819020604080516060810182526003860290920180546001600160a01b031683526001810154938301939093526002830180549293929184019161087390613b13565b80601f016020809104026020016040519081016040528092919081815260200182805461089f90613b13565b80156108ec5780601f106108c1576101008083540402835291602001916108ec565b820191906000526020600020905b8154815290600101906020018083116108cf57829003601f168201915b50505050508152505081526020019060010190610820565b505050509050919050565b6000828152602081905260408120546001600160a01b039081169083160361093957506001610415565b6040517f3d12cb87000000000000000000000000000000000000000000000000000000008152600481018490526000907f000000000000000000000000ba50a4fa419e1c7adfb7ca0186a01a556c0126c26001600160a01b031690633d12cb8790602401600060405180830381865afa1580156109ba573d6000803e3d6000fd5b505050506040513d6000823e601f3d908101601f191682016040526109e29190810190613b8c565b805190915060005b81811015610a3857828181518110610a0457610a04613b76565b60200260200101516001600160a01b0316856001600160a01b031603610a305760019350505050610415565b6001016109ea565b50600095945050505050565b60007f00000000000000000000000074688ef633bb1990e806b1f5f8f16e19aba22beb6001600160a01b031663d4a1b4b16040518163ffffffff1660e01b8152600401602060405180830381865afa158015610aa4573d6000803e3d6000fd5b505050506040513d601f19601f82011682018060405250810190610ac89190613832565b6040517f25a61d5c00000000000000000000000000000000000000000000000000000000815260048101869052602481018590526001600160a01b0391909116906325a61d5c9060440161012060405180830381865afa158015610b30573d6000803e3d6000fd5b505050506040513d601f19601f82011682018060405250810190610b549190613c31565b90504281606001511115610b94576040517f13dec85c00000000000000000000000000000000000000000000000000000000815260040160405180910390fd5b600084815260026020908152604080832084830151845282528083206001600160a01b038616845290915281205490819003610bd1575050505050565b600085815260026020908152604080832087845282528083206001600160a01b038781168086529190935281842084905590516363fdc96f60e11b81526004810189905260248101859052604481019190915260a0606482015260a4810183905260848101929092527f00000000000000000000000074688ef633bb1990e806b1f5f8f16e19aba22beb169063c7fb92de9060c4016020604051808303816000875af1158015610c85573d6000803e3d6000fd5b505050506040513d601f19601f82011682018060405250810190610ca99190613cb1565b50826001600160a01b03168260200151867f598baf7bf150ca2f42be9e9f8f55e81d45f5715c3ff22bf46d697fabec7f31d68433604051610cfd9291909182526001600160a01b0316602082015260400190565b60405180910390a45050505050565b6000610d1e86868686306000886115e0565b9695505050505050565b6000808060606001600160a01b037f000000000000000000000000ba50a4fa419e1c7adfb7ca0186a01a556c0126c2166383db9d0160408701803590610d719060208a01612cc0565b6040516001600160e01b031960e085901b16815260048101929092526001600160a01b03166024820152604401602060405180830381865afa158015610dbb573d6000803e3d6000fd5b505050506040513d601f19601f82011682018060405250810190610ddf9190613cca565b15610dfc5761271085608001358660a00135935093509350610e5e565b604080860135600090815260016020522054421015610e47576040517f04c3b3cd00000000000000000000000000000000000000000000000000000000815260040160405180910390fd5b84610160013585608001358660a001359350935093505b9193509193565b7f00000000000000000000000074688ef633bb1990e806b1f5f8f16e19aba22beb6001600160a01b0316631f47ce696040518163ffffffff1660e01b8152600401602060405180830381865afa158015610ec3573d6000803e3d6000fd5b505050506040513d601f19601f82011682018060405250810190610ee79190613832565b6001600160a01b031663f434c9146040518163ffffffff1660e01b8152600401602060405180830381865afa158015610f24573d6000803e3d6000fd5b505050506040513d601f19601f82011682018060405250810190610f489190613832565b6001600160a01b031663632af95f610f5e611cdd565b3086610f6988611cec565b6000806040518763ffffffff1660e01b8152600401610f8d96959493929190613d28565b602060405180830381865afa158015610faa573d6000803e3d6000fd5b505050506040513d601f19601f82011682018060405250810190610fce9190613cca565b610feb576040516331fb21f360e01b815260040160405180910390fd5b6000610ff5611cdd565b83836020015160405160200161100d93929190613d74565b60408051601f1981840301815290829052805160209091012083517f2f3f50e00000000000000000000000000000000000000000000000000000000083529092506001600160a01b037f000000000000000000000000ba50a4fa419e1c7adfb7ca0186a01a556c0126c21691632f3f50e09161108f9188918691600401613e7e565b6000604051808303816000875af11580156110ae573d6000803e3d6000fd5b505050506040513d6000823e601f3d908101601f191682016040526110d69190810190613b8c565b5080847f755ecfca2f6e66af8868551556bf7931740a7062db8e0882f4c322fdb0bb3f608585611104611cdd565b60405161111393929190613ec6565b60405180910390a350505050565b600061112c83611cec565b90507f00000000000000000000000074688ef633bb1990e806b1f5f8f16e19aba22beb6001600160a01b0316631f47ce696040518163ffffffff1660e01b8152600401602060405180830381865afa15801561118c573d6000803e3d6000fd5b505050506040513d601f19601f820116820180604052508101906111b09190613832565b6001600160a01b031663f434c9146040518163ffffffff1660e01b8152600401602060405180830381865afa1580156111ed573d6000803e3d6000fd5b505050506040513d601f19601f820116820180604052508101906112119190613832565b6001600160a01b031663632af95f611227611cdd565b3086856000806040518763ffffffff1660e01b815260040161124e96959493929190613d28565b602060405180830381865afa15801561126b573d6000803e3d6000fd5b505050506040513d601f19601f8201168201806040525081019061128f9190613cca565b6112ac576040516331fb21f360e01b815260040160405180910390fd5b7f00000000000000000000000074688ef633bb1990e806b1f5f8f16e19aba22beb6001600160a01b0316631f47ce696040518163ffffffff1660e01b8152600401602060405180830381865afa15801561130a573d6000803e3d6000fd5b505050506040513d601f19601f8201168201806040525081019061132e9190613832565b6001600160a01b031663f434c9146040518163ffffffff1660e01b8152600401602060405180830381865afa15801561136b573d6000803e3d6000fd5b505050506040513d601f19601f8201168201806040525081019061138f9190613832565b6001600160a01b03166305d2912e3060405180606001604052806113b1611cdd565b6001600160a01b0316815260208082018990526040805160008152918201815291820152516001600160e01b031960e085901b1681526113f5929190600401613f05565b600060405180830381600087803b15801561140f57600080fd5b505af1158015611423573d6000803e3d6000fd5b505050507f00000000000000000000000074688ef633bb1990e806b1f5f8f16e19aba22beb6001600160a01b0316631f47ce696040518163ffffffff1660e01b8152600401602060405180830381865afa158015611485573d6000803e3d6000fd5b505050506040513d601f19601f820116820180604052508101906114a99190613832565b6001600160a01b031663f434c9146040518163ffffffff1660e01b8152600401602060405180830381865afa1580156114e6573d6000803e3d6000fd5b505050506040513d601f19601f8201168201806040525081019061150a9190613832565b6001600160a01b03166305d2912e306040518060600160405280866001600160a01b03168152602001878152602001858152506040518363ffffffff1660e01b815260040161155a929190613f05565b600060405180830381600087803b15801561157457600080fd5b505af1158015611588573d6000803e3d6000fd5b50505050816001600160a01b0316837f0329d6a81434b130c72eb65eea0e32e429dc1277b4aad86ec86454aefb6184516115c0611cdd565b6040516001600160a01b03909116815260200160405180910390a3505050565b6000806000806115f18a8888611ea4565b9250925092508a6000036116cc577f00000000000000000000000074688ef633bb1990e806b1f5f8f16e19aba22beb6001600160a01b0316639e14fb80308c6000015160400151868d8f60000151602001516040516020016116539190613f48565b6040516020818303038152906040526040518663ffffffff1660e01b815260040161168295949392919061439f565b6020604051808303816000875af11580156116a1573d6000803e3d6000fd5b505050506040513d601f19601f820116820180604052508101906116c59190613cb1565b9a5061178a565b7f00000000000000000000000074688ef633bb1990e806b1f5f8f16e19aba22beb6001600160a01b03166321df42e88c858c8e60000151602001516040516020016117179190613f48565b6040516020818303038152906040526040518563ffffffff1660e01b81526004016117459493929190614407565b6020604051808303816000875af1158015611764573d6000803e3d6000fd5b505050506040513d601f19601f820116820180604052508101906117889190613cb1565b505b80156117ad5761179d62278d0042613b63565b60008c8152600160205260409020555b7f00000000000000000000000074688ef633bb1990e806b1f5f8f16e19aba22beb6001600160a01b031663581781918c8c60000151600001518d60000151602001518e60000151606001516040518563ffffffff1660e01b81526004016118179493929190614446565b6020604051808303816000875af1158015611836573d6000803e3d6000fd5b505050506040513d601f19601f8201168201806040525081019061185a9190613832565b5087516001600160a01b031615611875576118758b896122cd565b7f00000000000000000000000074688ef633bb1990e806b1f5f8f16e19aba22beb6001600160a01b031663dd5f214a8c60006118b48e60400151612438565b6040518463ffffffff1660e01b81526004016118d293929190614483565b600060405180830381600087803b1580156118ec57600080fd5b505af1158015611900573d6000803e3d6000fd5b5050505061190e8b8b612576565b600060405180606001604052808c604001516001600160a01b031681526020018d815260200161193d8e611cec565b81525090507f00000000000000000000000074688ef633bb1990e806b1f5f8f16e19aba22beb6001600160a01b031663f434c9146040518163ffffffff1660e01b8152600401602060405180830381865afa1580156119a0573d6000803e3d6000fd5b505050506040513d601f19601f820116820180604052508101906119c49190613832565b6001600160a01b03166305d2912e30836040518363ffffffff1660e01b81526004016119f1929190613f05565b600060405180830381600087803b158015611a0b57600080fd5b505af1158015611a1f573d6000803e3d6000fd5b506000925060019150611a2f9050565b604051908082528060200260200182016040528015611a58578160200160208202803683370190505b509050601b81600081518110611a7057611a70613b76565b60200260200101818152505060405180606001604052807f000000000000000000000000ba50a4fa419e1c7adfb7ca0186a01a556c0126c26001600160a01b031681526020018e81526020018281525091507f00000000000000000000000074688ef633bb1990e806b1f5f8f16e19aba22beb6001600160a01b031663f434c9146040518163ffffffff1660e01b8152600401602060405180830381865afa158015611b20573d6000803e3d6000fd5b505050506040513d601f19601f82011682018060405250810190611b449190613832565b6001600160a01b03166305d2912e30846040518363ffffffff1660e01b8152600401611b71929190613f05565b600060405180830381600087803b158015611b8b57600080fd5b505af1158015611b9f573d6000803e3d6000fd5b50505050602087015115611c7f577f000000000000000000000000ba50a4fa419e1c7adfb7ca0186a01a556c0126c26001600160a01b0316632f3f50e08e611be5611cdd565b878b60200151604051602001611bfd93929190613d74565b60408051601f198184030181529082905280516020909101208b516001600160e01b031960e086901b168352611c369392600401613e7e565b6000604051808303816000875af1158015611c55573d6000803e3d6000fd5b505050506040513d6000823e601f3d908101601f19168201604052611c7d9190810190613b8c565b505b8c7fabdf3ec8139195645b1e44778a910396624b7d2913c04b613f4800ad25d710468d8d8d8b8a8a8a611cb0611cdd565b604051611cc498979695949392919061470a565b60405180910390a2509a9b9a5050505050505050505050565b6000611ce761287c565b905090565b606060006003805480602002602001604051908101604052809291908181526020018280548015611d3c57602002820191906000526020600020905b815481526020019060010190808311611d28575b50508351600088815260046020908152604080832080548251818502810185019093528083529899509397929650945091925090830182828015611d9f57602002820191906000526020600020905b815481526020019060010190808311611d8b575b50508351939450611db69250839150859050613b63565b67ffffffffffffffff811115611dce57611dce612d59565b604051908082528060200260200182016040528015611df7578160200160208202803683370190505b50945060005b83811015611e4457848181518110611e1757611e17613b76565b6020026020010151868281518110611e3157611e31613b76565b6020908102919091010152600101611dfd565b5060005b81811015611e9a57828181518110611e6257611e62613b76565b6020026020010151868286611e779190613b63565b81518110611e8757611e87613b76565b6020908102919091010152600101611e48565b5050505050919050565b6060838101515181906000908067ffffffffffffffff811115611ec957611ec9612d59565b604051908082528060200260200182016040528015611fc357816020015b611fb06040805161010080820183526000808352602080840182905283850182905260608085018390526080808601849052865161022081018852848152928301849052958201839052810182905293840181905260a084810182905260c0850182905260e0850182905291840181905261012084018190526101408401819052610160840181905261018084018190526101a084018190526101c084018190526101e08401819052610200840152909190820190815260200160608152602001606081525090565b815260200190600190039081611ee75790505b509350611fcf876128f1565b6040805160e08101825260008082526060602083018190529282018190529181018290526080810182905260a0810182905260c08101829052919450805b838110156122c0578960600151818151811061202b5761202b613b76565b6020026020010151925081836000015164ffffffffff1611612079576040517f0aec2d6900000000000000000000000000000000000000000000000000000000815260040160405180910390fd5b826000015164ffffffffff1687828151811061209757612097613b76565b60200260200101516000018181525050826080015164ffffffffff168782815181106120c5576120c5613b76565b6020026020010151602001818152505082606001516dffffffffffffffffffffffffffff168782815181106120fc576120fc613b76565b602002602001015160400181815250508260a0015163ffffffff1687828151811061212957612129613b76565b60200260200101516060018181525050600087828151811061214d5761214d613b76565b6020026020010151608001906001600160a01b031690816001600160a01b031681525050604051806102200160405280846040015161ffff1681526020018460c0015161ffff166127106121a1919061485d565b815260208c81015163ffffffff16908201526000604082018190526060820181905260016080830181905260a0830182905260c0830182905260e0830182905261010083018290526101208301829052610140830182905261016083018290526101808301526101a08201526001600160a01b038b166101c08201526101e001899052875188908390811061223857612238613b76565b602002602001015160a0018190525080600014801561225e5750825164ffffffffff1615155b8015612274575042836000015164ffffffffff16105b1561227e57600194505b85612289848361292b565b60405160200161229a929190614870565b60408051601f19818403018152919052835190965064ffffffffff16915060010161200d565b5050505093509350939050565b602081810151516040805160808101825260008082529381018490529081018390526060810183905290915b828110156123ec578360200151818151811061231757612317613b76565b6020908102919091018101518551918101516040808301516060840151845192517f7b621d3a000000000000000000000000000000000000000000000000000000008152600481018c905262ffffff909416602485015263ffffffff91821660448501521660648301526001600160a01b039081166084830152919450911690637b621d3a9060a4016020604051808303816000875af11580156123bf573d6000803e3d6000fd5b505050506040513d601f19601f820116820180604052508101906123e39190613832565b506001016122f9565b5050905160009283526020839052604090922080547fffffffffffffffffffffffff0000000000000000000000000000000000000000166001600160a01b039093169290921790915550565b604080516001808252818301909252606091816020015b60408051808201909152600081526060602082015281526020019060019003908161244f57505060408051600180825281830190925291925060009190602082015b6040805160c08101825260008082526020808301829052928201819052606082018190526080820181905260a082015282526000199092019101816124915790505090506040518060c00160405280600015158152602001633b9aca00815260200160008152602001846001600160a01b031681526020016000815260200160006001600160a01b03168152508160008151811061253157612531613b76565b6020026020010181905250604051806040016040528060018152602001828152508260008151811061256557612565613b76565b602002602001018190525050919050565b606080820151516040805160e0810182526000808252602082018590529181018290529283018190526080830181905260a0830181905260c08301529060005b8281101561287557836060015181815181106125d4576125d4613b76565b60200260200101519150600082602001515190506126156040518060600160405280600081526020016000815260200160006001600160a01b031681525090565b60005b8281101561286a578460200151818151811061263657612636613b76565b602002602001015191504682600001510361286257831580612663575042856000015164ffffffffff1611155b1561279057602082015160408084015190516363fdc96f60e11b8152600481018b905260248101929092526001600160a01b03908116604483015260a06064830152600060a4830181905260848301527f00000000000000000000000074688ef633bb1990e806b1f5f8f16e19aba22beb169063c7fb92de9060c4016020604051808303816000875af11580156126fe573d6000803e3d6000fd5b505050506040513d601f19601f820116820180604052508101906127229190613cb1565b5060408201516001600160a01b031661273b8542613b63565b897f598baf7bf150ca2f42be9e9f8f55e81d45f5715c3ff22bf46d697fabec7f31d68560200151336040516127839291909182526001600160a01b0316602082015260400190565b60405180910390a4612862565b60208083015160008a815260029092526040822090916127b08742613b63565b8152602001908152602001600020600084604001516001600160a01b03166001600160a01b0316815260200190815260200160002060008282546127f49190613b63565b909155505060408201516001600160a01b03166128118542613b63565b897f9e83979117d75aa75fe101361cf46235d3d0a6fa7afafb275d2b9f8af02273138560200151336040516128599291909182526001600160a01b0316602082015260400190565b60405180910390a45b600101612618565b5050506001016125b6565b5050505050565b6000366014336001600160a01b037f000000000000000000000000b2b5841dbef766d4b521221732f9b618fcf34a87161480156128b95750808210155b156128e9576000366128cb838561485d565b6128d692829061489f565b6128df916148c9565b60601c9250505090565b339250505090565b602080820151825180518184015160609283015160405193956129159594016148fc565b6040516020818303038152906040529050919050565b6060811580156129415750825164ffffffffff16155b61295357825164ffffffffff16612955565b425b6040808501516060860151608087015160a088015160c089015194516129c696959060200195865261ffff94851660208701526dffffffffffffffffffffffffffff93909316604086015264ffffffffff91909116606085015263ffffffff1660808401521660a082015260c00190565b60408051601f1981840301815291905260208401515190915060005b81811015612a3c5782612a1186602001518381518110612a0457612a04613b76565b6020026020010151612a44565b604051602001612a22929190614870565b60408051601f1981840301815291905292506001016129e2565b505092915050565b6060816000015182604001518360200151604051602001612915939291909283526001600160a01b03919091166020830152604082015260600190565b600060208284031215612a9357600080fd5b81356001600160e01b031981168114612aab57600080fd5b9392505050565b6001600160a01b0381168114612ac757600080fd5b50565b8035612ad581612ab2565b919050565b600080600080600060808688031215612af257600080fd5b8535612afd81612ab2565b94506020860135612b0d81612ab2565b935060408601359250606086013567ffffffffffffffff80821115612b3157600080fd5b818801915088601f830112612b4557600080fd5b813581811115612b5457600080fd5b896020828501011115612b6657600080fd5b9699959850939650602001949392505050565b600060208284031215612b8b57600080fd5b5035919050565b600060208284031215612ba457600080fd5b813567ffffffffffffffff811115612bbb57600080fd5b82016101808185031215612aab57600080fd5b60005b83811015612be9578181015183820152602001612bd1565b50506000910152565b60008151808452612c0a816020860160208601612bce565b601f01601f19169290920160200192915050565b600082825180855260208086019550808260051b84010181860160005b84811015612c9257858303601f19018952815180516001600160a01b031684528481015185850152604090810151606091850182905290612c7e81860183612bf2565b9a86019a9450505090830190600101612c3b565b5090979650505050505050565b828152604060208201526000612cb86040830184612c1e565b949350505050565b600060208284031215612cd257600080fd5b8135612aab81612ab2565b600080600060608486031215612cf257600080fd5b83359250602084013591506040840135612d0b81612ab2565b809150509250925092565b602081526000612aab6020830184612c1e565b60008060408385031215612d3c57600080fd5b823591506020830135612d4e81612ab2565b809150509250929050565b634e487b7160e01b600052604160045260246000fd5b6040516060810167ffffffffffffffff81118282101715612d9257612d92612d59565b60405290565b60405160e0810167ffffffffffffffff81118282101715612d9257612d92612d59565b6040805190810167ffffffffffffffff81118282101715612d9257612d92612d59565b6040516080810167ffffffffffffffff81118282101715612d9257612d92612d59565b604051610120810167ffffffffffffffff81118282101715612d9257612d92612d59565b604051601f8201601f1916810167ffffffffffffffff81118282101715612e4e57612e4e612d59565b604052919050565b600067ffffffffffffffff821115612e7057612e70612d59565b50601f01601f191660200190565b6000612e91612e8c84612e56565b612e25565b9050828152838383011115612ea557600080fd5b828260208301376000602084830101529392505050565b600082601f830112612ecd57600080fd5b612aab83833560208501612e7e565b803563ffffffff81168114612ad557600080fd5b600067ffffffffffffffff821115612f0a57612f0a612d59565b5060051b60200190565b803564ffffffffff81168114612ad557600080fd5b600082601f830112612f3a57600080fd5b81356020612f4a612e8c83612ef0565b82815260609283028501820192828201919087851115612f6957600080fd5b8387015b85811015612c925781818a031215612f855760008081fd5b612f8d612d6f565b813581528582013586820152604080830135612fa881612ab2565b908201528452928401928101612f6d565b803561ffff81168114612ad557600080fd5b80356dffffffffffffffffffffffffffff81168114612ad557600080fd5b600082601f830112612ffa57600080fd5b8135602061300a612e8c83612ef0565b82815260059290921b8401810191818101908684111561302957600080fd5b8286015b8481101561310b57803567ffffffffffffffff8082111561304e5760008081fd5b9088019060e0828b03601f19018113156130685760008081fd5b613070612d98565b61307b888501612f14565b8152604080850135848111156130915760008081fd5b61309f8e8b83890101612f29565b8a84015250606093506130b3848601612fb9565b9082015260806130c4858201612fcb565b8483015260a093506130d7848601612f14565b9082015260c06130e8858201612edc565b848301526130f7838601612fb9565b90820152865250505091830191830161302d565b509695505050505050565b600082601f83011261312757600080fd5b81356020613137612e8c83612ef0565b828152600592831b850182019282820191908785111561315657600080fd5b8387015b85811015612c9257803567ffffffffffffffff8082111561317b5760008081fd5b908901906040828c03601f19018113156131955760008081fd5b61319d612dbb565b888401356131aa81612ab2565b815283820135838111156131be5760008081fd5b8085019450508c603f8501126131d657600092508283fd5b8884013592506131e8612e8c84612ef0565b83815292861b8401820192898101908e8511156132055760008081fd5b948301945b8486101561322f578535935061321f84612ab2565b838252948a0194908a019061320a565b828b015250875250505092840192840161315a565b6000604080838503121561325757600080fd5b61325f612dbb565b9150823561326c81612ab2565b825260208381013567ffffffffffffffff81111561328957600080fd5b8401601f8101861361329a57600080fd5b80356132a8612e8c82612ef0565b81815260079190911b820183019083810190888311156132c757600080fd5b928401925b82841015613346576080848a0312156132e55760008081fd5b6132ed612dde565b84356132f881612ab2565b81528486013562ffffff811681146133105760008081fd5b8187015261331f858801612edc565b878201526060613330818701612edc565b90820152825260809390930192908401906132cc565b808588015250505050505092915050565b60006040828403121561336957600080fd5b613371612dbb565b905067ffffffffffffffff808335111561338a57600080fd5b8235830184601f82011261339d57600080fd5b6133aa612e8c8235612ef0565b81358082526020808301929160051b840101878111156133c957600080fd5b602084015b8181101561350e5785813511156133e457600080fd5b803585016040818b03601f190112156133fc57600080fd5b613404612dbb565b6134116020830135612ab2565b60208201358152876040830135111561342957600080fd5b6040820135820191508a603f83011261344157600080fd5b6020820135613452612e8c82612ef0565b81815260079190911b83016040019060208101908d83111561347357600080fd5b6040850194505b828510156134ef576080858f03121561349257600080fd5b61349a612dde565b6134a48635612ab2565b853581526134b460208701612edc565b60208201526134c66040870135612ab2565b60408601356040820152606086013560608201528083525060208201915060808501945061347a565b80602085015250505080865250506020840193506020810190506133ce565b5050808552505050506020820135602082015292915050565b600080600080600060a0868803121561353f57600080fd5b85359450602086013567ffffffffffffffff8082111561355e57600080fd5b908701906080828a03121561357257600080fd5b61357a612dde565b82358281111561358957600080fd5b83016080818c03121561359b57600080fd5b6135a3612dde565b8135848111156135b257600080fd5b6135be8d828501612ebc565b8252506020820135848111156135d357600080fd5b6135df8d828501612ebc565b6020830152506040820135848111156135f757600080fd5b6136038d828501612ebc565b60408301525060608201356060820152808352505061362460208401612edc565b602082015261363560408401612aca565b604082015260608301358281111561364c57600080fd5b6136588b828601612fe9565b6060830152509550604088013591508082111561367457600080fd5b61368089838a01613116565b9450606088013591508082111561369657600080fd5b6136a289838a01613244565b935060808801359150808211156136b857600080fd5b506136c588828901613357565b9150509295509295909350565b6000602082840312156136e457600080fd5b813567ffffffffffffffff8111156136fb57600080fd5b82016101a08185031215612aab57600080fd5b60006080820186835260208681850152604086604086015260606080606087015283875180865260a08801915060a08160051b890101955084890160005b8281101561379c57898803609f19018452815180516001600160a01b0316895287810151888a0152860151868901869052613789868a0182612bf2565b985050928601929086019060010161374c565b50959c9b505050505050505050505050565b6000806000606084860312156137c357600080fd5b83359250602084013567ffffffffffffffff808211156137e257600080fd5b818601915086601f8301126137f657600080fd5b61380587833560208501612e7e565b9350604086013591508082111561381b57600080fd5b5061382886828701613357565b9150509250925092565b60006020828403121561384457600080fd5b8151612aab81612ab2565b803561385a81612ab2565b6001600160a01b031682526020818101359083015260408082013590830152606090810135910152565b6000808335601e1984360301811261389b57600080fd5b830160208101925035905067ffffffffffffffff8111156138bb57600080fd5b8036038213156138ca57600080fd5b9250929050565b81835281816020850137506000828201602090810191909152601f909101601f19169091010190565b6020815261391b6020820161390e84612aca565b6001600160a01b03169052565b600061392960208401612aca565b6001600160a01b038116604084015250613949606083016040850161384f565b60c083013560e083015261010060e08401358184015261396a818501612aca565b9050610120613983818501836001600160a01b03169052565b610140915080850135828501525061016081850135818501526139a881860186613884565b61018086810152925090506139c26101a0850183836138d1565b95945050505050565b60008060408084860312156139df57600080fd5b8351925060208085015167ffffffffffffffff808211156139ff57600080fd5b818701915087601f830112613a1357600080fd5b8151613a21612e8c82612ef0565b81815260059190911b8301840190848101908a831115613a4057600080fd5b8585015b83811015613b0157805185811115613a5b57600080fd5b86016060818e03601f19011215613a725760008081fd5b613a7a612d6f565b88820151613a8781612ab2565b8152818a015189820152606082015187811115613aa45760008081fd5b8083019250508d603f830112613aba5760008081fd5b88820151613aca612e8c82612e56565b8181528f8c838601011115613adf5760008081fd5b613aee828c83018e8701612bce565b828c015250845250918601918601613a44565b50809750505050505050509250929050565b600181811c90821680613b2757607f821691505b602082108103613b4757634e487b7160e01b600052602260045260246000fd5b50919050565b634e487b7160e01b600052601160045260246000fd5b8082018082111561041557610415613b4d565b634e487b7160e01b600052603260045260246000fd5b60006020808385031215613b9f57600080fd5b825167ffffffffffffffff811115613bb657600080fd5b8301601f81018513613bc757600080fd5b8051613bd5612e8c82612ef0565b81815260059190911b82018301908381019087831115613bf457600080fd5b928401925b82841015613c1b578351613c0c81612ab2565b82529284019290840190613bf9565b979650505050505050565b8051612ad581612ab2565b60006101208284031215613c4457600080fd5b613c4c612e01565b825181526020830151602082015260408301516040820152606083015160608201526080830151608082015260a083015160a082015260c083015160c0820152613c9860e08401613c26565b60e0820152610100928301519281019290925250919050565b600060208284031215613cc357600080fd5b5051919050565b600060208284031215613cdc57600080fd5b81518015158114612aab57600080fd5b60008151808452602080850194506020840160005b83811015613d1d57815187529582019590820190600101613d01565b509495945050505050565b60006001600160a01b03808916835280881660208401525085604083015260c06060830152613d5a60c0830186613cec565b93151560808301525090151560a090910152949350505050565b6bffffffffffffffffffffffff198460601b16815260008351613d9e816014850160208801612bce565b60149201918201929092526034019392505050565b600082825180855260208086019550808260051b8401018186016000805b85811015613e7057868403601f19018a52825180516001600160a01b03908116865290860151604087870181905281518188018190529188019290916060919082890190875b81811015613e585786518051851684528c81015163ffffffff168d8501528681015185168785015285015185840152958b0195608090920191600101613e17565b50509d89019d97505050938601935050600101613dd1565b509198975050505050505050565b8381528260208201526060604082015260006139c26060830184613db3565b6000815160408452613eb26040850182613db3565b602093840151949093019390935250919050565b606081526000613ed96060830186612bf2565b8281036020840152613eeb8186613e9d565b9150506001600160a01b0383166040830152949350505050565b60006001600160a01b0380851683526040602084015280845116604084015250602083015160608301526040830151606060808401526139c260a0840182613cec565b7f2400000000000000000000000000000000000000000000000000000000000000815260008251613f80816001850160208701612bce565b7f207265766e6574206465706c6f796564000000000000000000000000000000006001939091019283015250601101919050565b8051825260208101516020830152604081015160408301526060810151613fdf606084018215159052565b506080810151613ff3608084018215159052565b5060a081015161400760a084018215159052565b5060c081015161401b60c084018215159052565b5060e081015161402f60e084018215159052565b5061010081810151151590830152610120808201511515908301526101408082015115159083015261016080820151151590830152610180808201511515908301526101a0808201511515908301526101c0808201511515908301526101e0808201516001600160a01b03169083015261020090810151910152565b600082825180855260208086019550808260051b8401018186016000805b85811015613e7057868403601f19018a52825180518552850151604086860181905281518187018190529187019160609081880190865b8181101561415a5785518051151584528b8101518c8501528581015186850152848101516001600160a01b03908116868601526080808301519086015260a0918201511690840152948a019460c090920191600101614100565b50509c88019c9650505092850192506001016140c9565b60008151808452602080850194506020840160005b83811015613d1d578151805188528301518388015260409096019590820190600101614186565b600082825180855260208086019550808260051b84010181860160005b84811015612c9257601f19868403018952815160806001600160a01b038083511686528087840151168787015250604080830151828288015261420f83880182614171565b925050506060808301519250858203818701525061422d8183614171565b9a86019a94505050908301906001016141ca565b600082825180855260208086019550808260051b84010181860160005b84811015612c9257858303601f19018952815180518452848101518585015260408082015190850152606080820151908501526080808201516001600160a01b03169085015260a08082015161030091906142bb82880182613fb4565b505060c0820151816102c08701526142d5828701826140ab565b91505060e082015191508481036102e08601526142f281836141ad565b9a86019a945050509083019060010161425e565b600082825180855260208086019550808260051b8401018186016000805b85811015613e7057868403601f19018a52825180516001600160a01b03908116865290860151604087870181905281519087018190529087019160608701918591905b8083101561438957845182168452938901939289019260019290920191614367565b5050509a86019a94505091840191600101614324565b6001600160a01b038616815260a0602082015260006143c160a0830187612bf2565b82810360408401526143d38187614241565b905082810360608401526143e78186614306565b905082810360808401526143fb8185612bf2565b98975050505050505050565b8481526080602082015260006144206080830186614241565b82810360408401526144328186614306565b90508281036060840152613c1b8185612bf2565b84815260806020820152600061445f6080830186612bf2565b82810360408401526144718186612bf2565b91505082606083015295945050505050565b600060608083018684526020868186015260406060604087015282875180855260808801915060808160051b890101945083890160005b8281101561456157898703607f190184528151805188528601518688018690528051868901819052908701906000908a8a01905b8083101561454c5783518051151583528a8101518b840152898101518a8401528c8101516001600160a01b039081168e8501526080808301519085015260a0918201511690830152928901926001929092019160c0909101906144ee565b509850505092850192908501906001016144ba565b50949b9a5050505050505050505050565b600082825180855260208086019550808260051b8401018186016000805b85811015613e7057868403601f19018a528251805164ffffffffff1685528581015160e0878701819052815190870181905261010087019188019085905b8082101561460d578251805185528a8101518b8601526040908101516001600160a01b03169085015260609093019291890191600191909101906145ce565b50505060408281015161ffff908116918801919091526060808401516dffffffffffffffffffffffffffff169088015260808084015164ffffffffff169088015260a08084015163ffffffff169088015260c0928301511691909501529884019891840191600101614590565b600060408084016001600160a01b038085511686526020808601516040828901528381518086526060955060608a019150838301925060005b818110156146fb5783518051871684528581015162ffffff16868501528881015163ffffffff9081168a860152908801511687840152928401926080909201916001016146b3565b50909998505050505050505050565b60006101008083528a51608082850152805191506080610180850152614734610200850183612bf2565b9150602081015161017f1980868503016101a08701526147548483612bf2565b93506040830151915080868503016101c0870152506147738382612bf2565b92505060608101516101e08501525060208b015161479a61012085018263ffffffff169052565b5060408b01516001600160a01b031661014084015260608b015183820360ff19016101608501526147cb8282614572565b91505082810360208401526147e0818b614306565b905082810360408401526147f4818a61467a565b905082810360608401526148088189613e9d565b9050828103608084015261481c8188614241565b905082810360a08401526148308187612bf2565b91505061484160c083018515159052565b6001600160a01b03831660e08301529998505050505050505050565b8181038181111561041557610415613b4d565b60008351614882818460208801612bce565b835190830190614896818360208801612bce565b01949350505050565b600080858511156148af57600080fd5b838611156148bc57600080fd5b5050820193919092039150565b6bffffffffffffffffffffffff198135818116916014851015612a3c5760149490940360031b84901b1690921692915050565b63ffffffff8516815260806020820152600061445f6080830186612bf256fea26469706673582212205f2effd39019f8fbb8fe3b96baac6f33062739d0cda544ed54cf7dc021c5f28264736f6c63430008170033",
	"devdoc": {
		"kind": "dev",
		"methods": {
			"beforePayRecordedWith((address,address,(address,uint256,uint256,uint256),uint256,uint256,address,uint256,uint256,bytes))": {
				"details": "Part of IJBFundingCycleDataSource.This implementation just sets this contract up to receive a `didPay` call.",
				"params": {
					"context": "The Juicebox standard network payment context. See"
				},
				"returns": {
					"hookSpecifications": "Amount to be sent to pay hooks instead of adding to local balance. Useful for auto-routing funds from a treasury as payment come in.",
					"weight": "The weight that network tokens should get minted relative to. This is useful for optionally customizing how many tokens are issued per payment."
				}
			},
			"constructor": {
				"params": {
					"controller": "The controller that revnets are made from.",
					"suckerRegistry": "The registry that deploys and tracks each project's suckers.",
					"trustedForwarder": "The trusted forwarder for the ERC2771Context."
				}
			},
			"deploySuckersFor(uint256,bytes,((address,(address,uint32,address,uint256)[])[],bytes32))": {
				"params": {
					"encodedConfiguration": "A bytes representation of the revnet's configuration.",
					"revnetId": "The ID of the revnet having new suckers deployed.",
					"suckerDeploymentConfiguration": "The specifics about the suckers being deployed."
				}
			},
			"hasMintPermissionFor(uint256,address)": {
				"params": {
					"addr": "The address to check if has permissions.",
					"revnetId": "The ID of the revnet to check permissions for."
				},
				"returns": {
					"_0": "flag The flag indicating if the address has permissions to mint on the revnet's behalf."
				}
			},
			"isTrustedForwarder(address)": {
				"details": "Indicates whether any particular address is the trusted forwarder."
			},
			"launchRevnetFor(uint256,((string,string,string,bytes32),uint32,address,(uint40,(uint256,uint256,address)[],uint16,uint112,uint40,uint32,uint16)[]),(address,address[])[],(address,(address,uint24,uint32,uint32)[]),((address,(address,uint32,address,uint256)[])[],bytes32))": {
				"params": {
					"buybackHookConfiguration": "Data used for setting up the buyback hook to use when determining the best price for new participants.",
					"configuration": "The data needed to deploy a basic revnet.",
					"revnetId": "The ID of the Juicebox project to turn into a revnet. Send 0 to deploy a new revnet.",
					"suckerDeploymentConfiguration": "Information about how this revnet relates to other's across chains.",
					"terminalConfigurations": "The terminals that the network uses to accept payments through."
				},
				"returns": {
					"_0": "revnetId The ID of the newly created revnet."
				}
			},
			"mintFor(uint256,uint256,address)": {
				"params": {
					"beneficiary": "The address to mint tokens to.",
					"revnetId": "The ID of the revnet to mint tokens from.",
					"stageId": "The ID of the stage to mint tokens from."
				}
			},
			"onERC721Received(address,address,uint256,bytes)": {
				"details": "Make sure only mints can be received."
			},
			"payHookSpecificationsOf(uint256)": {
				"params": {
					"revnetId": "The ID of the revnet to which the extensions apply."
				},
				"returns": {
					"_0": "payHookSpecifications The pay hooks."
				}
			},
			"replaceSplitOperatorOf(uint256,address)": {
				"params": {
					"newSplitOperator": "The address of the new split operator.",
					"revnetId": "The ID of the revnet having its operator replaced."
				}
			},
			"supportsInterface(bytes4)": {
				"details": "See {IERC165-supportsInterface}.",
				"params": {
					"interfaceId": "The ID of the interface to check for adherence to."
				},
				"returns": {
					"_0": "A flag indicating if the provided interface ID is supported."
				}
			},
			"trustedForwarder()": {
				"details": "Returns the address of the trusted forwarder."
			}
		},
		"version": 1
	},
	"userdoc": {
		"kind": "user",
		"methods": {
			"CONTROLLER()": {
				"notice": "The controller that networks are made from."
			},
			"EXIT_DELAY()": {
				"notice": "The amount of time from a sucker being deployed to when it can facilitate exits."
			},
			"SUCKER_REGISTRY()": {
				"notice": "The registry that deploys and tracks each project's suckers."
			},
			"allowedMintCountOf(uint256,uint256,address)": {
				"notice": "The specification of how many tokens are still allowed to be minted at each stage of a revnet."
			},
			"beforePayRecordedWith((address,address,(address,uint256,uint256,uint256),uint256,uint256,address,uint256,uint256,bytes))": {
				"notice": "This function gets called when the revnet receives a payment."
			},
			"beforeRedeemRecordedWith((address,address,uint256,uint256,uint256,uint256,(address,uint256,uint256,uint256),bool,uint256,bytes))": {
				"notice": "This function is never called, it needs to be included to adhere to the interface."
			},
			"buybackHookOf(uint256)": {
				"notice": "The data hook that returns the correct values for the buyback hook of each network."
			},
			"deploySuckersFor(uint256,bytes,((address,(address,uint32,address,uint256)[])[],bytes32))": {
				"notice": "Allows a revnet's split operator to deploy new suckers to the revnet after it's deployed."
			},
			"exitDelayOf(uint256)": {
				"notice": "The time at which exits from a revnet become allowed."
			},
			"hasMintPermissionFor(uint256,address)": {
				"notice": "Required by the IJBRulesetDataHook interfaces."
			},
			"launchRevnetFor(uint256,((string,string,string,bytes32),uint32,address,(uint40,(uint256,uint256,address)[],uint16,uint112,uint40,uint32,uint16)[]),(address,address[])[],(address,(address,uint24,uint32,uint32)[]),((address,(address,uint32,address,uint256)[])[],bytes32))": {
				"notice": "Launch a basic revnet."
			},
			"mintFor(uint256,uint256,address)": {
				"notice": "Mint tokens from a revnet to a specified beneficiary according to the rules set for the revnet."
			},
			"payHookSpecificationsOf(uint256)": {
				"notice": "The pay hooks to include during payments to networks."
			},
			"replaceSplitOperatorOf(uint256,address)": {
				"notice": "A revnet's operator can replace itself."
			},
			"supportsInterface(bytes4)": {
				"notice": "Indicates if this contract adheres to the specified interface."
			}
		},
		"version": 1
	},
	"gitCommit": "bbb745e3f3e4cefa7f92fc801c0c6de226372a82",
	"sourceName": "src/REVBasicDeployer.sol",
	"chainId": "11155420",
	"linkReferences": {},
	"deployedLinkReferences": {},
	"history": []
}