{
	"_format": "sphinx-sol-ct-artifact-1",
	"merkleRoot": "0xa4960959c4286d631121944fa23cfd3f997500f6956b8d31a4630cdf855c8a20",
	"contractName": "REVCroptopDeployer",
	"address": "0x17ec12D93406d4d7A4D81DBa71A6ca6B2221F0f1",
	"abi": [
		{
			"type": "constructor",
			"inputs": [
				{
					"name": "controller",
					"type": "address",
					"internalType": "contract IJBController"
				},
				{
					"name": "suckerRegistry",
					"type": "address",
					"internalType": "contract IBPSuckerRegistry"
				},
				{
					"name": "trustedForwarder",
					"type": "address",
					"internalType": "address"
				},
				{
					"name": "hookDeployer",
					"type": "address",
					"internalType": "contract IJB721TiersHookDeployer"
				},
				{
					"name": "publisher",
					"type": "address",
					"internalType": "contract CTPublisher"
				}
			],
			"stateMutability": "nonpayable"
		},
		{
			"type": "function",
			"name": "CONTROLLER",
			"inputs": [],
			"outputs": [
				{
					"name": "",
					"type": "address",
					"internalType": "contract IJBController"
				}
			],
			"stateMutability": "view"
		},
		{
			"type": "function",
			"name": "EXIT_DELAY",
			"inputs": [],
			"outputs": [
				{
					"name": "",
					"type": "uint256",
					"internalType": "uint256"
				}
			],
			"stateMutability": "view"
		},
		{
			"type": "function",
			"name": "HOOK_DEPLOYER",
			"inputs": [],
			"outputs": [
				{
					"name": "",
					"type": "address",
					"internalType": "contract IJB721TiersHookDeployer"
				}
			],
			"stateMutability": "view"
		},
		{
			"type": "function",
			"name": "PUBLISHER",
			"inputs": [],
			"outputs": [
				{
					"name": "",
					"type": "address",
					"internalType": "contract CTPublisher"
				}
			],
			"stateMutability": "view"
		},
		{
			"type": "function",
			"name": "SUCKER_REGISTRY",
			"inputs": [],
			"outputs": [
				{
					"name": "",
					"type": "address",
					"internalType": "contract IBPSuckerRegistry"
				}
			],
			"stateMutability": "view"
		},
		{
			"type": "function",
			"name": "allowedMintCountOf",
			"inputs": [
				{
					"name": "revnetId",
					"type": "uint256",
					"internalType": "uint256"
				},
				{
					"name": "stageId",
					"type": "uint256",
					"internalType": "uint256"
				},
				{
					"name": "beneficiary",
					"type": "address",
					"internalType": "address"
				}
			],
			"outputs": [
				{
					"name": "",
					"type": "uint256",
					"internalType": "uint256"
				}
			],
			"stateMutability": "view"
		},
		{
			"type": "function",
			"name": "beforePayRecordedWith",
			"inputs": [
				{
					"name": "context",
					"type": "tuple",
					"internalType": "struct JBBeforePayRecordedContext",
					"components": [
						{
							"name": "terminal",
							"type": "address",
							"internalType": "address"
						},
						{
							"name": "payer",
							"type": "address",
							"internalType": "address"
						},
						{
							"name": "amount",
							"type": "tuple",
							"internalType": "struct JBTokenAmount",
							"components": [
								{
									"name": "token",
									"type": "address",
									"internalType": "address"
								},
								{
									"name": "value",
									"type": "uint256",
									"internalType": "uint256"
								},
								{
									"name": "decimals",
									"type": "uint256",
									"internalType": "uint256"
								},
								{
									"name": "currency",
									"type": "uint256",
									"internalType": "uint256"
								}
							]
						},
						{
							"name": "projectId",
							"type": "uint256",
							"internalType": "uint256"
						},
						{
							"name": "rulesetId",
							"type": "uint256",
							"internalType": "uint256"
						},
						{
							"name": "beneficiary",
							"type": "address",
							"internalType": "address"
						},
						{
							"name": "weight",
							"type": "uint256",
							"internalType": "uint256"
						},
						{
							"name": "reservedRate",
							"type": "uint256",
							"internalType": "uint256"
						},
						{
							"name": "metadata",
							"type": "bytes",
							"internalType": "bytes"
						}
					]
				}
			],
			"outputs": [
				{
					"name": "weight",
					"type": "uint256",
					"internalType": "uint256"
				},
				{
					"name": "hookSpecifications",
					"type": "tuple[]",
					"internalType": "struct JBPayHookSpecification[]",
					"components": [
						{
							"name": "hook",
							"type": "address",
							"internalType": "contract IJBPayHook"
						},
						{
							"name": "amount",
							"type": "uint256",
							"internalType": "uint256"
						},
						{
							"name": "metadata",
							"type": "bytes",
							"internalType": "bytes"
						}
					]
				}
			],
			"stateMutability": "view"
		},
		{
			"type": "function",
			"name": "beforeRedeemRecordedWith",
			"inputs": [
				{
					"name": "context",
					"type": "tuple",
					"internalType": "struct JBBeforeRedeemRecordedContext",
					"components": [
						{
							"name": "terminal",
							"type": "address",
							"internalType": "address"
						},
						{
							"name": "holder",
							"type": "address",
							"internalType": "address"
						},
						{
							"name": "projectId",
							"type": "uint256",
							"internalType": "uint256"
						},
						{
							"name": "rulesetId",
							"type": "uint256",
							"internalType": "uint256"
						},
						{
							"name": "redeemCount",
							"type": "uint256",
							"internalType": "uint256"
						},
						{
							"name": "totalSupply",
							"type": "uint256",
							"internalType": "uint256"
						},
						{
							"name": "surplus",
							"type": "tuple",
							"internalType": "struct JBTokenAmount",
							"components": [
								{
									"name": "token",
									"type": "address",
									"internalType": "address"
								},
								{
									"name": "value",
									"type": "uint256",
									"internalType": "uint256"
								},
								{
									"name": "decimals",
									"type": "uint256",
									"internalType": "uint256"
								},
								{
									"name": "currency",
									"type": "uint256",
									"internalType": "uint256"
								}
							]
						},
						{
							"name": "useTotalSurplus",
							"type": "bool",
							"internalType": "bool"
						},
						{
							"name": "redemptionRate",
							"type": "uint256",
							"internalType": "uint256"
						},
						{
							"name": "metadata",
							"type": "bytes",
							"internalType": "bytes"
						}
					]
				}
			],
			"outputs": [
				{
					"name": "",
					"type": "uint256",
					"internalType": "uint256"
				},
				{
					"name": "",
					"type": "uint256",
					"internalType": "uint256"
				},
				{
					"name": "",
					"type": "uint256",
					"internalType": "uint256"
				},
				{
					"name": "specifications",
					"type": "tuple[]",
					"internalType": "struct JBRedeemHookSpecification[]",
					"components": [
						{
							"name": "hook",
							"type": "address",
							"internalType": "contract IJBRedeemHook"
						},
						{
							"name": "amount",
							"type": "uint256",
							"internalType": "uint256"
						},
						{
							"name": "metadata",
							"type": "bytes",
							"internalType": "bytes"
						}
					]
				}
			],
			"stateMutability": "view"
		},
		{
			"type": "function",
			"name": "buybackHookOf",
			"inputs": [
				{
					"name": "revnetId",
					"type": "uint256",
					"internalType": "uint256"
				}
			],
			"outputs": [
				{
					"name": "buybackHook",
					"type": "address",
					"internalType": "contract IJBRulesetDataHook"
				}
			],
			"stateMutability": "view"
		},
		{
			"type": "function",
			"name": "deploySuckersFor",
			"inputs": [
				{
					"name": "revnetId",
					"type": "uint256",
					"internalType": "uint256"
				},
				{
					"name": "encodedConfiguration",
					"type": "bytes",
					"internalType": "bytes"
				},
				{
					"name": "suckerDeploymentConfiguration",
					"type": "tuple",
					"internalType": "struct REVSuckerDeploymentConfig",
					"components": [
						{
							"name": "deployerConfigurations",
							"type": "tuple[]",
							"internalType": "struct BPSuckerDeployerConfig[]",
							"components": [
								{
									"name": "deployer",
									"type": "address",
									"internalType": "contract IBPSuckerDeployer"
								},
								{
									"name": "mappings",
									"type": "tuple[]",
									"internalType": "struct BPTokenMapping[]",
									"components": [
										{
											"name": "localToken",
											"type": "address",
											"internalType": "address"
										},
										{
											"name": "minGas",
											"type": "uint32",
											"internalType": "uint32"
										},
										{
											"name": "remoteToken",
											"type": "address",
											"internalType": "address"
										},
										{
											"name": "minBridgeAmount",
											"type": "uint256",
											"internalType": "uint256"
										}
									]
								}
							]
						},
						{
							"name": "salt",
							"type": "bytes32",
							"internalType": "bytes32"
						}
					]
				}
			],
			"outputs": [],
			"stateMutability": "nonpayable"
		},
		{
			"type": "function",
			"name": "exitDelayOf",
			"inputs": [
				{
					"name": "revnetId",
					"type": "uint256",
					"internalType": "uint256"
				}
			],
			"outputs": [
				{
					"name": "exitDelay",
					"type": "uint256",
					"internalType": "uint256"
				}
			],
			"stateMutability": "view"
		},
		{
			"type": "function",
			"name": "hasMintPermissionFor",
			"inputs": [
				{
					"name": "revnetId",
					"type": "uint256",
					"internalType": "uint256"
				},
				{
					"name": "addr",
					"type": "address",
					"internalType": "address"
				}
			],
			"outputs": [
				{
					"name": "",
					"type": "bool",
					"internalType": "bool"
				}
			],
			"stateMutability": "view"
		},
		{
			"type": "function",
			"name": "isTrustedForwarder",
			"inputs": [
				{
					"name": "forwarder",
					"type": "address",
					"internalType": "address"
				}
			],
			"outputs": [
				{
					"name": "",
					"type": "bool",
					"internalType": "bool"
				}
			],
			"stateMutability": "view"
		},
		{
			"type": "function",
			"name": "launchCroptopRevnetFor",
			"inputs": [
				{
					"name": "revnetId",
					"type": "uint256",
					"internalType": "uint256"
				},
				{
					"name": "configuration",
					"type": "tuple",
					"internalType": "struct REVConfig",
					"components": [
						{
							"name": "description",
							"type": "tuple",
							"internalType": "struct REVDescription",
							"components": [
								{
									"name": "name",
									"type": "string",
									"internalType": "string"
								},
								{
									"name": "ticker",
									"type": "string",
									"internalType": "string"
								},
								{
									"name": "uri",
									"type": "string",
									"internalType": "string"
								},
								{
									"name": "salt",
									"type": "bytes32",
									"internalType": "bytes32"
								}
							]
						},
						{
							"name": "baseCurrency",
							"type": "uint32",
							"internalType": "uint32"
						},
						{
							"name": "initialSplitOperator",
							"type": "address",
							"internalType": "address"
						},
						{
							"name": "stageConfigurations",
							"type": "tuple[]",
							"internalType": "struct REVStageConfig[]",
							"components": [
								{
									"name": "startsAtOrAfter",
									"type": "uint40",
									"internalType": "uint40"
								},
								{
									"name": "mintConfigs",
									"type": "tuple[]",
									"internalType": "struct REVMintConfig[]",
									"components": [
										{
											"name": "chainId",
											"type": "uint256",
											"internalType": "uint256"
										},
										{
											"name": "count",
											"type": "uint256",
											"internalType": "uint256"
										},
										{
											"name": "beneficiary",
											"type": "address",
											"internalType": "address"
										}
									]
								},
								{
									"name": "splitRate",
									"type": "uint16",
									"internalType": "uint16"
								},
								{
									"name": "initialIssuanceRate",
									"type": "uint112",
									"internalType": "uint112"
								},
								{
									"name": "priceCeilingIncreaseFrequency",
									"type": "uint40",
									"internalType": "uint40"
								},
								{
									"name": "priceCeilingIncreasePercentage",
									"type": "uint32",
									"internalType": "uint32"
								},
								{
									"name": "priceFloorTaxIntensity",
									"type": "uint16",
									"internalType": "uint16"
								}
							]
						}
					]
				},
				{
					"name": "terminalConfigurations",
					"type": "tuple[]",
					"internalType": "struct JBTerminalConfig[]",
					"components": [
						{
							"name": "terminal",
							"type": "address",
							"internalType": "contract IJBTerminal"
						},
						{
							"name": "tokensToAccept",
							"type": "address[]",
							"internalType": "address[]"
						}
					]
				},
				{
					"name": "buybackHookConfiguration",
					"type": "tuple",
					"internalType": "struct REVBuybackHookConfig",
					"components": [
						{
							"name": "hook",
							"type": "address",
							"internalType": "contract IJBBuybackHook"
						},
						{
							"name": "poolConfigurations",
							"type": "tuple[]",
							"internalType": "struct REVBuybackPoolConfig[]",
							"components": [
								{
									"name": "token",
									"type": "address",
									"internalType": "address"
								},
								{
									"name": "fee",
									"type": "uint24",
									"internalType": "uint24"
								},
								{
									"name": "twapWindow",
									"type": "uint32",
									"internalType": "uint32"
								},
								{
									"name": "twapSlippageTolerance",
									"type": "uint32",
									"internalType": "uint32"
								}
							]
						}
					]
				},
				{
					"name": "suckerDeploymentConfiguration",
					"type": "tuple",
					"internalType": "struct REVSuckerDeploymentConfig",
					"components": [
						{
							"name": "deployerConfigurations",
							"type": "tuple[]",
							"internalType": "struct BPSuckerDeployerConfig[]",
							"components": [
								{
									"name": "deployer",
									"type": "address",
									"internalType": "contract IBPSuckerDeployer"
								},
								{
									"name": "mappings",
									"type": "tuple[]",
									"internalType": "struct BPTokenMapping[]",
									"components": [
										{
											"name": "localToken",
											"type": "address",
											"internalType": "address"
										},
										{
											"name": "minGas",
											"type": "uint32",
											"internalType": "uint32"
										},
										{
											"name": "remoteToken",
											"type": "address",
											"internalType": "address"
										},
										{
											"name": "minBridgeAmount",
											"type": "uint256",
											"internalType": "uint256"
										}
									]
								}
							]
						},
						{
							"name": "salt",
							"type": "bytes32",
							"internalType": "bytes32"
						}
					]
				},
				{
					"name": "hookConfiguration",
					"type": "tuple",
					"internalType": "struct REVDeploy721TiersHookConfig",
					"components": [
						{
							"name": "baseline721HookConfiguration",
							"type": "tuple",
							"internalType": "struct JBDeploy721TiersHookConfig",
							"components": [
								{
									"name": "name",
									"type": "string",
									"internalType": "string"
								},
								{
									"name": "symbol",
									"type": "string",
									"internalType": "string"
								},
								{
									"name": "rulesets",
									"type": "address",
									"internalType": "contract IJBRulesets"
								},
								{
									"name": "baseUri",
									"type": "string",
									"internalType": "string"
								},
								{
									"name": "tokenUriResolver",
									"type": "address",
									"internalType": "contract IJB721TokenUriResolver"
								},
								{
									"name": "contractUri",
									"type": "string",
									"internalType": "string"
								},
								{
									"name": "tiersConfig",
									"type": "tuple",
									"internalType": "struct JB721InitTiersConfig",
									"components": [
										{
											"name": "tiers",
											"type": "tuple[]",
											"internalType": "struct JB721TierConfig[]",
											"components": [
												{
													"name": "price",
													"type": "uint104",
													"internalType": "uint104"
												},
												{
													"name": "initialSupply",
													"type": "uint32",
													"internalType": "uint32"
												},
												{
													"name": "votingUnits",
													"type": "uint32",
													"internalType": "uint32"
												},
												{
													"name": "reserveFrequency",
													"type": "uint16",
													"internalType": "uint16"
												},
												{
													"name": "reserveBeneficiary",
													"type": "address",
													"internalType": "address"
												},
												{
													"name": "encodedIPFSUri",
													"type": "bytes32",
													"internalType": "bytes32"
												},
												{
													"name": "category",
													"type": "uint24",
													"internalType": "uint24"
												},
												{
													"name": "allowOwnerMint",
													"type": "bool",
													"internalType": "bool"
												},
												{
													"name": "useReserveBeneficiaryAsDefault",
													"type": "bool",
													"internalType": "bool"
												},
												{
													"name": "transfersPausable",
													"type": "bool",
													"internalType": "bool"
												},
												{
													"name": "useVotingUnits",
													"type": "bool",
													"internalType": "bool"
												},
												{
													"name": "cannotBeRemoved",
													"type": "bool",
													"internalType": "bool"
												}
											]
										},
										{
											"name": "currency",
											"type": "uint32",
											"internalType": "uint32"
										},
										{
											"name": "decimals",
											"type": "uint8",
											"internalType": "uint8"
										},
										{
											"name": "prices",
											"type": "address",
											"internalType": "contract IJBPrices"
										}
									]
								},
								{
									"name": "reserveBeneficiary",
									"type": "address",
									"internalType": "address"
								},
								{
									"name": "flags",
									"type": "tuple",
									"internalType": "struct JB721TiersHookFlags",
									"components": [
										{
											"name": "noNewTiersWithReserves",
											"type": "bool",
											"internalType": "bool"
										},
										{
											"name": "noNewTiersWithVotes",
											"type": "bool",
											"internalType": "bool"
										},
										{
											"name": "noNewTiersWithOwnerMinting",
											"type": "bool",
											"internalType": "bool"
										},
										{
											"name": "preventOverspending",
											"type": "bool",
											"internalType": "bool"
										}
									]
								}
							]
						},
						{
							"name": "operatorCanAdjustTiers",
							"type": "bool",
							"internalType": "bool"
						},
						{
							"name": "operatorCanUpdateMetadata",
							"type": "bool",
							"internalType": "bool"
						},
						{
							"name": "operatorCanMint",
							"type": "bool",
							"internalType": "bool"
						}
					]
				},
				{
					"name": "otherPayHooksSpecifications",
					"type": "tuple[]",
					"internalType": "struct JBPayHookSpecification[]",
					"components": [
						{
							"name": "hook",
							"type": "address",
							"internalType": "contract IJBPayHook"
						},
						{
							"name": "amount",
							"type": "uint256",
							"internalType": "uint256"
						},
						{
							"name": "metadata",
							"type": "bytes",
							"internalType": "bytes"
						}
					]
				},
				{
					"name": "extraHookMetadata",
					"type": "uint16",
					"internalType": "uint16"
				},
				{
					"name": "allowedPosts",
					"type": "tuple[]",
					"internalType": "struct REVCroptopAllowedPost[]",
					"components": [
						{
							"name": "category",
							"type": "uint256",
							"internalType": "uint256"
						},
						{
							"name": "minimumPrice",
							"type": "uint256",
							"internalType": "uint256"
						},
						{
							"name": "minimumTotalSupply",
							"type": "uint256",
							"internalType": "uint256"
						},
						{
							"name": "maximumTotalSupply",
							"type": "uint256",
							"internalType": "uint256"
						},
						{
							"name": "allowedAddresses",
							"type": "address[]",
							"internalType": "address[]"
						}
					]
				}
			],
			"outputs": [
				{
					"name": "",
					"type": "uint256",
					"internalType": "uint256"
				},
				{
					"name": "hook",
					"type": "address",
					"internalType": "contract IJB721TiersHook"
				}
			],
			"stateMutability": "nonpayable"
		},
		{
			"type": "function",
			"name": "launchPayHookRevnetFor",
			"inputs": [
				{
					"name": "revnetId",
					"type": "uint256",
					"internalType": "uint256"
				},
				{
					"name": "configuration",
					"type": "tuple",
					"internalType": "struct REVConfig",
					"components": [
						{
							"name": "description",
							"type": "tuple",
							"internalType": "struct REVDescription",
							"components": [
								{
									"name": "name",
									"type": "string",
									"internalType": "string"
								},
								{
									"name": "ticker",
									"type": "string",
									"internalType": "string"
								},
								{
									"name": "uri",
									"type": "string",
									"internalType": "string"
								},
								{
									"name": "salt",
									"type": "bytes32",
									"internalType": "bytes32"
								}
							]
						},
						{
							"name": "baseCurrency",
							"type": "uint32",
							"internalType": "uint32"
						},
						{
							"name": "initialSplitOperator",
							"type": "address",
							"internalType": "address"
						},
						{
							"name": "stageConfigurations",
							"type": "tuple[]",
							"internalType": "struct REVStageConfig[]",
							"components": [
								{
									"name": "startsAtOrAfter",
									"type": "uint40",
									"internalType": "uint40"
								},
								{
									"name": "mintConfigs",
									"type": "tuple[]",
									"internalType": "struct REVMintConfig[]",
									"components": [
										{
											"name": "chainId",
											"type": "uint256",
											"internalType": "uint256"
										},
										{
											"name": "count",
											"type": "uint256",
											"internalType": "uint256"
										},
										{
											"name": "beneficiary",
											"type": "address",
											"internalType": "address"
										}
									]
								},
								{
									"name": "splitRate",
									"type": "uint16",
									"internalType": "uint16"
								},
								{
									"name": "initialIssuanceRate",
									"type": "uint112",
									"internalType": "uint112"
								},
								{
									"name": "priceCeilingIncreaseFrequency",
									"type": "uint40",
									"internalType": "uint40"
								},
								{
									"name": "priceCeilingIncreasePercentage",
									"type": "uint32",
									"internalType": "uint32"
								},
								{
									"name": "priceFloorTaxIntensity",
									"type": "uint16",
									"internalType": "uint16"
								}
							]
						}
					]
				},
				{
					"name": "terminalConfigurations",
					"type": "tuple[]",
					"internalType": "struct JBTerminalConfig[]",
					"components": [
						{
							"name": "terminal",
							"type": "address",
							"internalType": "contract IJBTerminal"
						},
						{
							"name": "tokensToAccept",
							"type": "address[]",
							"internalType": "address[]"
						}
					]
				},
				{
					"name": "buybackHookConfiguration",
					"type": "tuple",
					"internalType": "struct REVBuybackHookConfig",
					"components": [
						{
							"name": "hook",
							"type": "address",
							"internalType": "contract IJBBuybackHook"
						},
						{
							"name": "poolConfigurations",
							"type": "tuple[]",
							"internalType": "struct REVBuybackPoolConfig[]",
							"components": [
								{
									"name": "token",
									"type": "address",
									"internalType": "address"
								},
								{
									"name": "fee",
									"type": "uint24",
									"internalType": "uint24"
								},
								{
									"name": "twapWindow",
									"type": "uint32",
									"internalType": "uint32"
								},
								{
									"name": "twapSlippageTolerance",
									"type": "uint32",
									"internalType": "uint32"
								}
							]
						}
					]
				},
				{
					"name": "suckerDeploymentConfiguration",
					"type": "tuple",
					"internalType": "struct REVSuckerDeploymentConfig",
					"components": [
						{
							"name": "deployerConfigurations",
							"type": "tuple[]",
							"internalType": "struct BPSuckerDeployerConfig[]",
							"components": [
								{
									"name": "deployer",
									"type": "address",
									"internalType": "contract IBPSuckerDeployer"
								},
								{
									"name": "mappings",
									"type": "tuple[]",
									"internalType": "struct BPTokenMapping[]",
									"components": [
										{
											"name": "localToken",
											"type": "address",
											"internalType": "address"
										},
										{
											"name": "minGas",
											"type": "uint32",
											"internalType": "uint32"
										},
										{
											"name": "remoteToken",
											"type": "address",
											"internalType": "address"
										},
										{
											"name": "minBridgeAmount",
											"type": "uint256",
											"internalType": "uint256"
										}
									]
								}
							]
						},
						{
							"name": "salt",
							"type": "bytes32",
							"internalType": "bytes32"
						}
					]
				},
				{
					"name": "payHookSpecifications",
					"type": "tuple[]",
					"internalType": "struct JBPayHookSpecification[]",
					"components": [
						{
							"name": "hook",
							"type": "address",
							"internalType": "contract IJBPayHook"
						},
						{
							"name": "amount",
							"type": "uint256",
							"internalType": "uint256"
						},
						{
							"name": "metadata",
							"type": "bytes",
							"internalType": "bytes"
						}
					]
				},
				{
					"name": "extraHookMetadata",
					"type": "uint16",
					"internalType": "uint16"
				}
			],
			"outputs": [
				{
					"name": "",
					"type": "uint256",
					"internalType": "uint256"
				}
			],
			"stateMutability": "nonpayable"
		},
		{
			"type": "function",
			"name": "launchRevnetFor",
			"inputs": [
				{
					"name": "revnetId",
					"type": "uint256",
					"internalType": "uint256"
				},
				{
					"name": "configuration",
					"type": "tuple",
					"internalType": "struct REVConfig",
					"components": [
						{
							"name": "description",
							"type": "tuple",
							"internalType": "struct REVDescription",
							"components": [
								{
									"name": "name",
									"type": "string",
									"internalType": "string"
								},
								{
									"name": "ticker",
									"type": "string",
									"internalType": "string"
								},
								{
									"name": "uri",
									"type": "string",
									"internalType": "string"
								},
								{
									"name": "salt",
									"type": "bytes32",
									"internalType": "bytes32"
								}
							]
						},
						{
							"name": "baseCurrency",
							"type": "uint32",
							"internalType": "uint32"
						},
						{
							"name": "initialSplitOperator",
							"type": "address",
							"internalType": "address"
						},
						{
							"name": "stageConfigurations",
							"type": "tuple[]",
							"internalType": "struct REVStageConfig[]",
							"components": [
								{
									"name": "startsAtOrAfter",
									"type": "uint40",
									"internalType": "uint40"
								},
								{
									"name": "mintConfigs",
									"type": "tuple[]",
									"internalType": "struct REVMintConfig[]",
									"components": [
										{
											"name": "chainId",
											"type": "uint256",
											"internalType": "uint256"
										},
										{
											"name": "count",
											"type": "uint256",
											"internalType": "uint256"
										},
										{
											"name": "beneficiary",
											"type": "address",
											"internalType": "address"
										}
									]
								},
								{
									"name": "splitRate",
									"type": "uint16",
									"internalType": "uint16"
								},
								{
									"name": "initialIssuanceRate",
									"type": "uint112",
									"internalType": "uint112"
								},
								{
									"name": "priceCeilingIncreaseFrequency",
									"type": "uint40",
									"internalType": "uint40"
								},
								{
									"name": "priceCeilingIncreasePercentage",
									"type": "uint32",
									"internalType": "uint32"
								},
								{
									"name": "priceFloorTaxIntensity",
									"type": "uint16",
									"internalType": "uint16"
								}
							]
						}
					]
				},
				{
					"name": "terminalConfigurations",
					"type": "tuple[]",
					"internalType": "struct JBTerminalConfig[]",
					"components": [
						{
							"name": "terminal",
							"type": "address",
							"internalType": "contract IJBTerminal"
						},
						{
							"name": "tokensToAccept",
							"type": "address[]",
							"internalType": "address[]"
						}
					]
				},
				{
					"name": "buybackHookConfiguration",
					"type": "tuple",
					"internalType": "struct REVBuybackHookConfig",
					"components": [
						{
							"name": "hook",
							"type": "address",
							"internalType": "contract IJBBuybackHook"
						},
						{
							"name": "poolConfigurations",
							"type": "tuple[]",
							"internalType": "struct REVBuybackPoolConfig[]",
							"components": [
								{
									"name": "token",
									"type": "address",
									"internalType": "address"
								},
								{
									"name": "fee",
									"type": "uint24",
									"internalType": "uint24"
								},
								{
									"name": "twapWindow",
									"type": "uint32",
									"internalType": "uint32"
								},
								{
									"name": "twapSlippageTolerance",
									"type": "uint32",
									"internalType": "uint32"
								}
							]
						}
					]
				},
				{
					"name": "suckerDeploymentConfiguration",
					"type": "tuple",
					"internalType": "struct REVSuckerDeploymentConfig",
					"components": [
						{
							"name": "deployerConfigurations",
							"type": "tuple[]",
							"internalType": "struct BPSuckerDeployerConfig[]",
							"components": [
								{
									"name": "deployer",
									"type": "address",
									"internalType": "contract IBPSuckerDeployer"
								},
								{
									"name": "mappings",
									"type": "tuple[]",
									"internalType": "struct BPTokenMapping[]",
									"components": [
										{
											"name": "localToken",
											"type": "address",
											"internalType": "address"
										},
										{
											"name": "minGas",
											"type": "uint32",
											"internalType": "uint32"
										},
										{
											"name": "remoteToken",
											"type": "address",
											"internalType": "address"
										},
										{
											"name": "minBridgeAmount",
											"type": "uint256",
											"internalType": "uint256"
										}
									]
								}
							]
						},
						{
							"name": "salt",
							"type": "bytes32",
							"internalType": "bytes32"
						}
					]
				}
			],
			"outputs": [
				{
					"name": "",
					"type": "uint256",
					"internalType": "uint256"
				}
			],
			"stateMutability": "nonpayable"
		},
		{
			"type": "function",
			"name": "launchTiered721RevnetFor",
			"inputs": [
				{
					"name": "revnetId",
					"type": "uint256",
					"internalType": "uint256"
				},
				{
					"name": "configuration",
					"type": "tuple",
					"internalType": "struct REVConfig",
					"components": [
						{
							"name": "description",
							"type": "tuple",
							"internalType": "struct REVDescription",
							"components": [
								{
									"name": "name",
									"type": "string",
									"internalType": "string"
								},
								{
									"name": "ticker",
									"type": "string",
									"internalType": "string"
								},
								{
									"name": "uri",
									"type": "string",
									"internalType": "string"
								},
								{
									"name": "salt",
									"type": "bytes32",
									"internalType": "bytes32"
								}
							]
						},
						{
							"name": "baseCurrency",
							"type": "uint32",
							"internalType": "uint32"
						},
						{
							"name": "initialSplitOperator",
							"type": "address",
							"internalType": "address"
						},
						{
							"name": "stageConfigurations",
							"type": "tuple[]",
							"internalType": "struct REVStageConfig[]",
							"components": [
								{
									"name": "startsAtOrAfter",
									"type": "uint40",
									"internalType": "uint40"
								},
								{
									"name": "mintConfigs",
									"type": "tuple[]",
									"internalType": "struct REVMintConfig[]",
									"components": [
										{
											"name": "chainId",
											"type": "uint256",
											"internalType": "uint256"
										},
										{
											"name": "count",
											"type": "uint256",
											"internalType": "uint256"
										},
										{
											"name": "beneficiary",
											"type": "address",
											"internalType": "address"
										}
									]
								},
								{
									"name": "splitRate",
									"type": "uint16",
									"internalType": "uint16"
								},
								{
									"name": "initialIssuanceRate",
									"type": "uint112",
									"internalType": "uint112"
								},
								{
									"name": "priceCeilingIncreaseFrequency",
									"type": "uint40",
									"internalType": "uint40"
								},
								{
									"name": "priceCeilingIncreasePercentage",
									"type": "uint32",
									"internalType": "uint32"
								},
								{
									"name": "priceFloorTaxIntensity",
									"type": "uint16",
									"internalType": "uint16"
								}
							]
						}
					]
				},
				{
					"name": "terminalConfigurations",
					"type": "tuple[]",
					"internalType": "struct JBTerminalConfig[]",
					"components": [
						{
							"name": "terminal",
							"type": "address",
							"internalType": "contract IJBTerminal"
						},
						{
							"name": "tokensToAccept",
							"type": "address[]",
							"internalType": "address[]"
						}
					]
				},
				{
					"name": "buybackHookConfiguration",
					"type": "tuple",
					"internalType": "struct REVBuybackHookConfig",
					"components": [
						{
							"name": "hook",
							"type": "address",
							"internalType": "contract IJBBuybackHook"
						},
						{
							"name": "poolConfigurations",
							"type": "tuple[]",
							"internalType": "struct REVBuybackPoolConfig[]",
							"components": [
								{
									"name": "token",
									"type": "address",
									"internalType": "address"
								},
								{
									"name": "fee",
									"type": "uint24",
									"internalType": "uint24"
								},
								{
									"name": "twapWindow",
									"type": "uint32",
									"internalType": "uint32"
								},
								{
									"name": "twapSlippageTolerance",
									"type": "uint32",
									"internalType": "uint32"
								}
							]
						}
					]
				},
				{
					"name": "suckerDeploymentConfiguration",
					"type": "tuple",
					"internalType": "struct REVSuckerDeploymentConfig",
					"components": [
						{
							"name": "deployerConfigurations",
							"type": "tuple[]",
							"internalType": "struct BPSuckerDeployerConfig[]",
							"components": [
								{
									"name": "deployer",
									"type": "address",
									"internalType": "contract IBPSuckerDeployer"
								},
								{
									"name": "mappings",
									"type": "tuple[]",
									"internalType": "struct BPTokenMapping[]",
									"components": [
										{
											"name": "localToken",
											"type": "address",
											"internalType": "address"
										},
										{
											"name": "minGas",
											"type": "uint32",
											"internalType": "uint32"
										},
										{
											"name": "remoteToken",
											"type": "address",
											"internalType": "address"
										},
										{
											"name": "minBridgeAmount",
											"type": "uint256",
											"internalType": "uint256"
										}
									]
								}
							]
						},
						{
							"name": "salt",
							"type": "bytes32",
							"internalType": "bytes32"
						}
					]
				},
				{
					"name": "hookConfiguration",
					"type": "tuple",
					"internalType": "struct REVDeploy721TiersHookConfig",
					"components": [
						{
							"name": "baseline721HookConfiguration",
							"type": "tuple",
							"internalType": "struct JBDeploy721TiersHookConfig",
							"components": [
								{
									"name": "name",
									"type": "string",
									"internalType": "string"
								},
								{
									"name": "symbol",
									"type": "string",
									"internalType": "string"
								},
								{
									"name": "rulesets",
									"type": "address",
									"internalType": "contract IJBRulesets"
								},
								{
									"name": "baseUri",
									"type": "string",
									"internalType": "string"
								},
								{
									"name": "tokenUriResolver",
									"type": "address",
									"internalType": "contract IJB721TokenUriResolver"
								},
								{
									"name": "contractUri",
									"type": "string",
									"internalType": "string"
								},
								{
									"name": "tiersConfig",
									"type": "tuple",
									"internalType": "struct JB721InitTiersConfig",
									"components": [
										{
											"name": "tiers",
											"type": "tuple[]",
											"internalType": "struct JB721TierConfig[]",
											"components": [
												{
													"name": "price",
													"type": "uint104",
													"internalType": "uint104"
												},
												{
													"name": "initialSupply",
													"type": "uint32",
													"internalType": "uint32"
												},
												{
													"name": "votingUnits",
													"type": "uint32",
													"internalType": "uint32"
												},
												{
													"name": "reserveFrequency",
													"type": "uint16",
													"internalType": "uint16"
												},
												{
													"name": "reserveBeneficiary",
													"type": "address",
													"internalType": "address"
												},
												{
													"name": "encodedIPFSUri",
													"type": "bytes32",
													"internalType": "bytes32"
												},
												{
													"name": "category",
													"type": "uint24",
													"internalType": "uint24"
												},
												{
													"name": "allowOwnerMint",
													"type": "bool",
													"internalType": "bool"
												},
												{
													"name": "useReserveBeneficiaryAsDefault",
													"type": "bool",
													"internalType": "bool"
												},
												{
													"name": "transfersPausable",
													"type": "bool",
													"internalType": "bool"
												},
												{
													"name": "useVotingUnits",
													"type": "bool",
													"internalType": "bool"
												},
												{
													"name": "cannotBeRemoved",
													"type": "bool",
													"internalType": "bool"
												}
											]
										},
										{
											"name": "currency",
											"type": "uint32",
											"internalType": "uint32"
										},
										{
											"name": "decimals",
											"type": "uint8",
											"internalType": "uint8"
										},
										{
											"name": "prices",
											"type": "address",
											"internalType": "contract IJBPrices"
										}
									]
								},
								{
									"name": "reserveBeneficiary",
									"type": "address",
									"internalType": "address"
								},
								{
									"name": "flags",
									"type": "tuple",
									"internalType": "struct JB721TiersHookFlags",
									"components": [
										{
											"name": "noNewTiersWithReserves",
											"type": "bool",
											"internalType": "bool"
										},
										{
											"name": "noNewTiersWithVotes",
											"type": "bool",
											"internalType": "bool"
										},
										{
											"name": "noNewTiersWithOwnerMinting",
											"type": "bool",
											"internalType": "bool"
										},
										{
											"name": "preventOverspending",
											"type": "bool",
											"internalType": "bool"
										}
									]
								}
							]
						},
						{
							"name": "operatorCanAdjustTiers",
							"type": "bool",
							"internalType": "bool"
						},
						{
							"name": "operatorCanUpdateMetadata",
							"type": "bool",
							"internalType": "bool"
						},
						{
							"name": "operatorCanMint",
							"type": "bool",
							"internalType": "bool"
						}
					]
				},
				{
					"name": "otherPayHooksSpecifications",
					"type": "tuple[]",
					"internalType": "struct JBPayHookSpecification[]",
					"components": [
						{
							"name": "hook",
							"type": "address",
							"internalType": "contract IJBPayHook"
						},
						{
							"name": "amount",
							"type": "uint256",
							"internalType": "uint256"
						},
						{
							"name": "metadata",
							"type": "bytes",
							"internalType": "bytes"
						}
					]
				},
				{
					"name": "extraHookMetadata",
					"type": "uint16",
					"internalType": "uint16"
				}
			],
			"outputs": [
				{
					"name": "",
					"type": "uint256",
					"internalType": "uint256"
				},
				{
					"name": "hook",
					"type": "address",
					"internalType": "contract IJB721TiersHook"
				}
			],
			"stateMutability": "nonpayable"
		},
		{
			"type": "function",
			"name": "mintFor",
			"inputs": [
				{
					"name": "revnetId",
					"type": "uint256",
					"internalType": "uint256"
				},
				{
					"name": "stageId",
					"type": "uint256",
					"internalType": "uint256"
				},
				{
					"name": "beneficiary",
					"type": "address",
					"internalType": "address"
				}
			],
			"outputs": [],
			"stateMutability": "nonpayable"
		},
		{
			"type": "function",
			"name": "onERC721Received",
			"inputs": [
				{
					"name": "operator",
					"type": "address",
					"internalType": "address"
				},
				{
					"name": "",
					"type": "address",
					"internalType": "address"
				},
				{
					"name": "tokenId",
					"type": "uint256",
					"internalType": "uint256"
				},
				{
					"name": "data",
					"type": "bytes",
					"internalType": "bytes"
				}
			],
			"outputs": [
				{
					"name": "",
					"type": "bytes4",
					"internalType": "bytes4"
				}
			],
			"stateMutability": "view"
		},
		{
			"type": "function",
			"name": "payHookSpecificationsOf",
			"inputs": [
				{
					"name": "revnetId",
					"type": "uint256",
					"internalType": "uint256"
				}
			],
			"outputs": [
				{
					"name": "",
					"type": "tuple[]",
					"internalType": "struct JBPayHookSpecification[]",
					"components": [
						{
							"name": "hook",
							"type": "address",
							"internalType": "contract IJBPayHook"
						},
						{
							"name": "amount",
							"type": "uint256",
							"internalType": "uint256"
						},
						{
							"name": "metadata",
							"type": "bytes",
							"internalType": "bytes"
						}
					]
				}
			],
			"stateMutability": "view"
		},
		{
			"type": "function",
			"name": "replaceSplitOperatorOf",
			"inputs": [
				{
					"name": "revnetId",
					"type": "uint256",
					"internalType": "uint256"
				},
				{
					"name": "newSplitOperator",
					"type": "address",
					"internalType": "address"
				}
			],
			"outputs": [],
			"stateMutability": "nonpayable"
		},
		{
			"type": "function",
			"name": "supportsInterface",
			"inputs": [
				{
					"name": "interfaceId",
					"type": "bytes4",
					"internalType": "bytes4"
				}
			],
			"outputs": [
				{
					"name": "",
					"type": "bool",
					"internalType": "bool"
				}
			],
			"stateMutability": "view"
		},
		{
			"type": "function",
			"name": "trustedForwarder",
			"inputs": [],
			"outputs": [
				{
					"name": "",
					"type": "address",
					"internalType": "address"
				}
			],
			"stateMutability": "view"
		},
		{
			"type": "event",
			"name": "DeployRevnet",
			"inputs": [
				{
					"name": "revnetId",
					"type": "uint256",
					"indexed": true,
					"internalType": "uint256"
				},
				{
					"name": "configuration",
					"type": "tuple",
					"indexed": false,
					"internalType": "struct REVConfig",
					"components": [
						{
							"name": "description",
							"type": "tuple",
							"internalType": "struct REVDescription",
							"components": [
								{
									"name": "name",
									"type": "string",
									"internalType": "string"
								},
								{
									"name": "ticker",
									"type": "string",
									"internalType": "string"
								},
								{
									"name": "uri",
									"type": "string",
									"internalType": "string"
								},
								{
									"name": "salt",
									"type": "bytes32",
									"internalType": "bytes32"
								}
							]
						},
						{
							"name": "baseCurrency",
							"type": "uint32",
							"internalType": "uint32"
						},
						{
							"name": "initialSplitOperator",
							"type": "address",
							"internalType": "address"
						},
						{
							"name": "stageConfigurations",
							"type": "tuple[]",
							"internalType": "struct REVStageConfig[]",
							"components": [
								{
									"name": "startsAtOrAfter",
									"type": "uint40",
									"internalType": "uint40"
								},
								{
									"name": "mintConfigs",
									"type": "tuple[]",
									"internalType": "struct REVMintConfig[]",
									"components": [
										{
											"name": "chainId",
											"type": "uint256",
											"internalType": "uint256"
										},
										{
											"name": "count",
											"type": "uint256",
											"internalType": "uint256"
										},
										{
											"name": "beneficiary",
											"type": "address",
											"internalType": "address"
										}
									]
								},
								{
									"name": "splitRate",
									"type": "uint16",
									"internalType": "uint16"
								},
								{
									"name": "initialIssuanceRate",
									"type": "uint112",
									"internalType": "uint112"
								},
								{
									"name": "priceCeilingIncreaseFrequency",
									"type": "uint40",
									"internalType": "uint40"
								},
								{
									"name": "priceCeilingIncreasePercentage",
									"type": "uint32",
									"internalType": "uint32"
								},
								{
									"name": "priceFloorTaxIntensity",
									"type": "uint16",
									"internalType": "uint16"
								}
							]
						}
					]
				},
				{
					"name": "terminalConfigurations",
					"type": "tuple[]",
					"indexed": false,
					"internalType": "struct JBTerminalConfig[]",
					"components": [
						{
							"name": "terminal",
							"type": "address",
							"internalType": "contract IJBTerminal"
						},
						{
							"name": "tokensToAccept",
							"type": "address[]",
							"internalType": "address[]"
						}
					]
				},
				{
					"name": "buybackHookConfiguration",
					"type": "tuple",
					"indexed": false,
					"internalType": "struct REVBuybackHookConfig",
					"components": [
						{
							"name": "hook",
							"type": "address",
							"internalType": "contract IJBBuybackHook"
						},
						{
							"name": "poolConfigurations",
							"type": "tuple[]",
							"internalType": "struct REVBuybackPoolConfig[]",
							"components": [
								{
									"name": "token",
									"type": "address",
									"internalType": "address"
								},
								{
									"name": "fee",
									"type": "uint24",
									"internalType": "uint24"
								},
								{
									"name": "twapWindow",
									"type": "uint32",
									"internalType": "uint32"
								},
								{
									"name": "twapSlippageTolerance",
									"type": "uint32",
									"internalType": "uint32"
								}
							]
						}
					]
				},
				{
					"name": "suckerDeploymentConfiguration",
					"type": "tuple",
					"indexed": false,
					"internalType": "struct REVSuckerDeploymentConfig",
					"components": [
						{
							"name": "deployerConfigurations",
							"type": "tuple[]",
							"internalType": "struct BPSuckerDeployerConfig[]",
							"components": [
								{
									"name": "deployer",
									"type": "address",
									"internalType": "contract IBPSuckerDeployer"
								},
								{
									"name": "mappings",
									"type": "tuple[]",
									"internalType": "struct BPTokenMapping[]",
									"components": [
										{
											"name": "localToken",
											"type": "address",
											"internalType": "address"
										},
										{
											"name": "minGas",
											"type": "uint32",
											"internalType": "uint32"
										},
										{
											"name": "remoteToken",
											"type": "address",
											"internalType": "address"
										},
										{
											"name": "minBridgeAmount",
											"type": "uint256",
											"internalType": "uint256"
										}
									]
								}
							]
						},
						{
							"name": "salt",
							"type": "bytes32",
							"internalType": "bytes32"
						}
					]
				},
				{
					"name": "rulesetConfigurations",
					"type": "tuple[]",
					"indexed": false,
					"internalType": "struct JBRulesetConfig[]",
					"components": [
						{
							"name": "mustStartAtOrAfter",
							"type": "uint256",
							"internalType": "uint256"
						},
						{
							"name": "duration",
							"type": "uint256",
							"internalType": "uint256"
						},
						{
							"name": "weight",
							"type": "uint256",
							"internalType": "uint256"
						},
						{
							"name": "decayRate",
							"type": "uint256",
							"internalType": "uint256"
						},
						{
							"name": "approvalHook",
							"type": "address",
							"internalType": "contract IJBRulesetApprovalHook"
						},
						{
							"name": "metadata",
							"type": "tuple",
							"internalType": "struct JBRulesetMetadata",
							"components": [
								{
									"name": "reservedRate",
									"type": "uint256",
									"internalType": "uint256"
								},
								{
									"name": "redemptionRate",
									"type": "uint256",
									"internalType": "uint256"
								},
								{
									"name": "baseCurrency",
									"type": "uint256",
									"internalType": "uint256"
								},
								{
									"name": "pausePay",
									"type": "bool",
									"internalType": "bool"
								},
								{
									"name": "pauseCreditTransfers",
									"type": "bool",
									"internalType": "bool"
								},
								{
									"name": "allowOwnerMinting",
									"type": "bool",
									"internalType": "bool"
								},
								{
									"name": "allowSetCustomToken",
									"type": "bool",
									"internalType": "bool"
								},
								{
									"name": "allowTerminalMigration",
									"type": "bool",
									"internalType": "bool"
								},
								{
									"name": "allowSetTerminals",
									"type": "bool",
									"internalType": "bool"
								},
								{
									"name": "allowSetController",
									"type": "bool",
									"internalType": "bool"
								},
								{
									"name": "ownerMustSendPayouts",
									"type": "bool",
									"internalType": "bool"
								},
								{
									"name": "holdFees",
									"type": "bool",
									"internalType": "bool"
								},
								{
									"name": "useTotalSurplusForRedemptions",
									"type": "bool",
									"internalType": "bool"
								},
								{
									"name": "useDataHookForPay",
									"type": "bool",
									"internalType": "bool"
								},
								{
									"name": "useDataHookForRedeem",
									"type": "bool",
									"internalType": "bool"
								},
								{
									"name": "dataHook",
									"type": "address",
									"internalType": "address"
								},
								{
									"name": "metadata",
									"type": "uint256",
									"internalType": "uint256"
								}
							]
						},
						{
							"name": "splitGroups",
							"type": "tuple[]",
							"internalType": "struct JBSplitGroup[]",
							"components": [
								{
									"name": "groupId",
									"type": "uint256",
									"internalType": "uint256"
								},
								{
									"name": "splits",
									"type": "tuple[]",
									"internalType": "struct JBSplit[]",
									"components": [
										{
											"name": "preferAddToBalance",
											"type": "bool",
											"internalType": "bool"
										},
										{
											"name": "percent",
											"type": "uint256",
											"internalType": "uint256"
										},
										{
											"name": "projectId",
											"type": "uint256",
											"internalType": "uint256"
										},
										{
											"name": "beneficiary",
											"type": "address",
											"internalType": "address payable"
										},
										{
											"name": "lockedUntil",
											"type": "uint256",
											"internalType": "uint256"
										},
										{
											"name": "hook",
											"type": "address",
											"internalType": "contract IJBSplitHook"
										}
									]
								}
							]
						},
						{
							"name": "fundAccessLimitGroups",
							"type": "tuple[]",
							"internalType": "struct JBFundAccessLimitGroup[]",
							"components": [
								{
									"name": "terminal",
									"type": "address",
									"internalType": "address"
								},
								{
									"name": "token",
									"type": "address",
									"internalType": "address"
								},
								{
									"name": "payoutLimits",
									"type": "tuple[]",
									"internalType": "struct JBCurrencyAmount[]",
									"components": [
										{
											"name": "amount",
											"type": "uint256",
											"internalType": "uint256"
										},
										{
											"name": "currency",
											"type": "uint256",
											"internalType": "uint256"
										}
									]
								},
								{
									"name": "surplusAllowances",
									"type": "tuple[]",
									"internalType": "struct JBCurrencyAmount[]",
									"components": [
										{
											"name": "amount",
											"type": "uint256",
											"internalType": "uint256"
										},
										{
											"name": "currency",
											"type": "uint256",
											"internalType": "uint256"
										}
									]
								}
							]
						}
					]
				},
				{
					"name": "encodedConfiguration",
					"type": "bytes",
					"indexed": false,
					"internalType": "bytes"
				},
				{
					"name": "isInProgress",
					"type": "bool",
					"indexed": false,
					"internalType": "bool"
				},
				{
					"name": "caller",
					"type": "address",
					"indexed": false,
					"internalType": "address"
				}
			],
			"anonymous": false
		},
		{
			"type": "event",
			"name": "DeploySuckers",
			"inputs": [
				{
					"name": "revnetId",
					"type": "uint256",
					"indexed": true,
					"internalType": "uint256"
				},
				{
					"name": "salt",
					"type": "bytes32",
					"indexed": true,
					"internalType": "bytes32"
				},
				{
					"name": "encodedConfiguration",
					"type": "bytes",
					"indexed": false,
					"internalType": "bytes"
				},
				{
					"name": "suckerDeploymentConfiguration",
					"type": "tuple",
					"indexed": false,
					"internalType": "struct REVSuckerDeploymentConfig",
					"components": [
						{
							"name": "deployerConfigurations",
							"type": "tuple[]",
							"internalType": "struct BPSuckerDeployerConfig[]",
							"components": [
								{
									"name": "deployer",
									"type": "address",
									"internalType": "contract IBPSuckerDeployer"
								},
								{
									"name": "mappings",
									"type": "tuple[]",
									"internalType": "struct BPTokenMapping[]",
									"components": [
										{
											"name": "localToken",
											"type": "address",
											"internalType": "address"
										},
										{
											"name": "minGas",
											"type": "uint32",
											"internalType": "uint32"
										},
										{
											"name": "remoteToken",
											"type": "address",
											"internalType": "address"
										},
										{
											"name": "minBridgeAmount",
											"type": "uint256",
											"internalType": "uint256"
										}
									]
								}
							]
						},
						{
							"name": "salt",
							"type": "bytes32",
							"internalType": "bytes32"
						}
					]
				},
				{
					"name": "caller",
					"type": "address",
					"indexed": false,
					"internalType": "address"
				}
			],
			"anonymous": false
		},
		{
			"type": "event",
			"name": "Mint",
			"inputs": [
				{
					"name": "revnetId",
					"type": "uint256",
					"indexed": true,
					"internalType": "uint256"
				},
				{
					"name": "stageId",
					"type": "uint256",
					"indexed": true,
					"internalType": "uint256"
				},
				{
					"name": "beneficiary",
					"type": "address",
					"indexed": true,
					"internalType": "address"
				},
				{
					"name": "count",
					"type": "uint256",
					"indexed": false,
					"internalType": "uint256"
				},
				{
					"name": "caller",
					"type": "address",
					"indexed": false,
					"internalType": "address"
				}
			],
			"anonymous": false
		},
		{
			"type": "event",
			"name": "ReplaceSplitOperator",
			"inputs": [
				{
					"name": "revnetId",
					"type": "uint256",
					"indexed": true,
					"internalType": "uint256"
				},
				{
					"name": "newSplitOperator",
					"type": "address",
					"indexed": true,
					"internalType": "address"
				},
				{
					"name": "caller",
					"type": "address",
					"indexed": false,
					"internalType": "address"
				}
			],
			"anonymous": false
		},
		{
			"type": "event",
			"name": "StoreMintPotential",
			"inputs": [
				{
					"name": "revnetId",
					"type": "uint256",
					"indexed": true,
					"internalType": "uint256"
				},
				{
					"name": "stageId",
					"type": "uint256",
					"indexed": true,
					"internalType": "uint256"
				},
				{
					"name": "beneficiary",
					"type": "address",
					"indexed": true,
					"internalType": "address"
				},
				{
					"name": "count",
					"type": "uint256",
					"indexed": false,
					"internalType": "uint256"
				},
				{
					"name": "caller",
					"type": "address",
					"indexed": false,
					"internalType": "address"
				}
			],
			"anonymous": false
		},
		{
			"type": "event",
			"name": "StoredPayHookSpecifications",
			"inputs": [
				{
					"name": "revnetId",
					"type": "uint256",
					"indexed": true,
					"internalType": "uint256"
				},
				{
					"name": "payHookSpecifications",
					"type": "tuple[]",
					"indexed": false,
					"internalType": "struct JBPayHookSpecification[]",
					"components": [
						{
							"name": "hook",
							"type": "address",
							"internalType": "contract IJBPayHook"
						},
						{
							"name": "amount",
							"type": "uint256",
							"internalType": "uint256"
						},
						{
							"name": "metadata",
							"type": "bytes",
							"internalType": "bytes"
						}
					]
				},
				{
					"name": "caller",
					"type": "address",
					"indexed": false,
					"internalType": "address"
				}
			],
			"anonymous": false
		},
		{
			"type": "error",
			"name": "REVBasicDeployer_BadStageTimes",
			"inputs": []
		},
		{
			"type": "error",
			"name": "REVBasicDeployer_ExitDelayInEffect",
			"inputs": []
		},
		{
			"type": "error",
			"name": "REVBasicDeployer_StageNotStarted",
			"inputs": []
		},
		{
			"type": "error",
			"name": "REVBasicDeployer_Unauthorized",
			"inputs": []
		}
	],
	"solcInputHash": "5598f3c23a185a2ed39d4a994b34b8de",
	"args": [
		"0x74688Ef633BB1990e806b1F5f8F16e19abA22bEB",
		"0xba50A4FA419e1c7AdfB7ca0186a01A556c0126c2",
		"0xB2b5841DBeF766d4b521221732F9B618fCf34A87",
		"0x554CE80D78f5438c73a9759D8BBb52a382138A59",
		"0x6Feee48D69171AbAf554480f2419596731CdE0C6"
	],
	"bytecode": "0x6101006040523480156200001257600080fd5b50604051620060ee380380620060ee83398101604081905262000035916200010e565b6001600160a01b0392831660805293821660a05291811660c052600380546001808201835560117fc2575a0e9e593c00f959f8c92f12db2869c3395a3b0502d05e2516446f71f85b9283015582548082018455601890830155825480820190935560069290910182905592821660e05280546001600160a01b031916939091169290921790915560078054918201815560005260147fa66cc928b5edb82af9bd49922954155ab7b0942694bea4ce44661d9a8736c688909101556200018e565b6001600160a01b03811681146200010b57600080fd5b50565b600080600080600060a086880312156200012757600080fd5b85516200013481620000f5565b60208701519095506200014781620000f5565b60408701519094506200015a81620000f5565b60608701519093506200016d81620000f5565b60808701519092506200018081620000f5565b809150509295509295909350565b60805160a05160c05160e051615e7e62000270600039600081816103dd01526110df01526000818161040401528181610a520152818161127f0152818161159f0152818161216c01526122920152600081816104770152818161050601528181610b2f01528181610d2301528181610f2c015281816113ae0152818161168c015281816118130152818161199101528181611b0c01528181611ce401528181611db101528181611e9201528181611f5a01528181612027015281816121a70152612f730152600081816102450152818161031c01526131430152615e7e6000f3fe608060405234801561001057600080fd5b506004361061018d5760003560e01c80639ab68726116100e3578063b5d255331161008c578063dbfbe5da11610066578063dbfbe5da1461044c578063eb5ad9d91461045f578063ee0fc1211461047257600080fd5b8063b5d25533146103ff578063bb19940214610426578063bd43e7ba1461043957600080fd5b80639fafd73c116100bd5780639fafd73c14610385578063aaf320d7146103b5578063abf8c5c8146103d857600080fd5b80639ab68726146103555780639c62f179146103685780639d82ba251461037b57600080fd5b80635a31dc13116101455780637249a7731161011f5780637249a773146102d95780637da0a8771461031a57806382a09b301461034057600080fd5b80635a31dc13146102755780635c0a7cee146102a6578063677ce088146102c657600080fd5b806343681e151161017657806343681e15146101e65780634c4ffc7114610214578063572b6c051461023557600080fd5b806301ffc9a714610192578063150b7a02146101ba575b600080fd5b6101a56101a0366004613338565b610499565b60405190151581526020015b60405180910390f35b6101cd6101c8366004613391565b610502565b6040516001600160e01b031990911681526020016101b1565b6102066101f4366004613430565b60016020526000908152604090205481565b6040519081526020016101b1565b610227610222366004613449565b6105ce565b6040516101b1929190613556565b6101a5610243366004613577565b7f00000000000000000000000000000000000000000000000000000000000000006001600160a01b0390811691161490565b610206610283366004613594565b600260209081526000938452604080852082529284528284209052825290205481565b6102b96102b4366004613430565b6108d2565b6040516101b191906135cd565b6101a56102d43660046135e0565b6109f6565b6103026102e7366004613430565b6000602081905290815260409020546001600160a01b031681565b6040516001600160a01b0390911681526020016101b1565b7f0000000000000000000000000000000000000000000000000000000000000000610302565b61035361034e366004613594565b610b2b565b005b610206610363366004613f3b565b610df3565b6102066103763660046140c7565b610e0f565b61020662278d0081565b610398610393366004614579565b610f1f565b604080519283526001600160a01b039091166020830152016101b1565b6103c86103c336600461468a565b61126f565b6040516101b194939291906146c6565b6103027f000000000000000000000000000000000000000000000000000000000000000081565b6103027f000000000000000000000000000000000000000000000000000000000000000081565b610353610434366004614766565b6113ac565b6103986104473660046148b7565b611668565b600654610302906001600160a01b031681565b61035361046d3660046135e0565b611804565b6103027f000000000000000000000000000000000000000000000000000000000000000081565b60006001600160e01b031982167f81c03c2e0000000000000000000000000000000000000000000000000000000014806104fc57507f01ffc9a7000000000000000000000000000000000000000000000000000000006001600160e01b03198316145b92915050565b60007f00000000000000000000000000000000000000000000000000000000000000006001600160a01b031663293c49996040518163ffffffff1660e01b8152600401602060405180830381865afa158015610562573d6000803e3d6000fd5b505050506040513d601f19601f8201168201806040525081019061058691906149ed565b6001600160a01b0316336001600160a01b0316146105a357600080fd5b507f150b7a020000000000000000000000000000000000000000000000000000000095945050505050565b60c081013560009081526020819052604081205460609081906001600160a01b0316801561068a576040517f4c4ffc710000000000000000000000000000000000000000000000000000000081526001600160a01b03821690634c4ffc719061063b908890600401614ab5565b600060405180830381865afa158015610658573d6000803e3d6000fd5b505050506040513d6000823e601f3d908101601f191682016040526106809190810190614b86565b9094509150610693565b84610120013593505b815160c086013560009081526005602090815260408083208054825181850281018501909352808352941515949192909190849084015b828210156107ae576000848152602090819020604080516060810182526003860290920180546001600160a01b031683526001810154938301939093526002830180549293929184019161071d90614cce565b80601f016020809104026020016040519081016040528092919081815260200182805461074990614cce565b80156107965780601f1061076b57610100808354040283529160200191610796565b820191906000526020600020905b81548152906001019060200180831161077957829003601f168201915b505050505081525050815260200190600101906106ca565b505050509050600081519050826107c65760006107c9565b60015b6107d69060ff1682614d1e565b67ffffffffffffffff8111156107ee576107ee613610565b60405190808252806020026020018201604052801561083b57816020015b6040805160608082018352600080835260208301529181019190915281526020019060019003908161080c5790505b50955060005b818110156108885782818151811061085b5761085b614d31565b602002602001015187828151811061087557610875614d31565b6020908102919091010152600101610841565b5082156108c857846000815181106108a2576108a2614d31565b60200260200101518682815181106108bc576108bc614d31565b60200260200101819052505b5050505050915091565b606060056000838152602001908152602001600020805480602002602001604051908101604052809291908181526020016000905b828210156109eb576000848152602090819020604080516060810182526003860290920180546001600160a01b031683526001810154938301939093526002830180549293929184019161095a90614cce565b80601f016020809104026020016040519081016040528092919081815260200182805461098690614cce565b80156109d35780601f106109a8576101008083540402835291602001916109d3565b820191906000526020600020905b8154815290600101906020018083116109b657829003601f168201915b50505050508152505081526020019060010190610907565b505050509050919050565b6000828152602081905260408120546001600160a01b0390811690831603610a20575060016104fc565b6040517f3d12cb87000000000000000000000000000000000000000000000000000000008152600481018490526000907f00000000000000000000000000000000000000000000000000000000000000006001600160a01b031690633d12cb8790602401600060405180830381865afa158015610aa1573d6000803e3d6000fd5b505050506040513d6000823e601f3d908101601f19168201604052610ac99190810190614d47565b805190915060005b81811015610b1f57828181518110610aeb57610aeb614d31565b60200260200101516001600160a01b0316856001600160a01b031603610b1757600193505050506104fc565b600101610ad1565b50600095945050505050565b60007f00000000000000000000000000000000000000000000000000000000000000006001600160a01b031663d4a1b4b16040518163ffffffff1660e01b8152600401602060405180830381865afa158015610b8b573d6000803e3d6000fd5b505050506040513d601f19601f82011682018060405250810190610baf91906149ed565b6040517f25a61d5c00000000000000000000000000000000000000000000000000000000815260048101869052602481018590526001600160a01b0391909116906325a61d5c9060440161012060405180830381865afa158015610c17573d6000803e3d6000fd5b505050506040513d601f19601f82011682018060405250810190610c3b9190614dec565b90504281606001511115610c7b576040517f13dec85c00000000000000000000000000000000000000000000000000000000815260040160405180910390fd5b600084815260026020908152604080832084830151845282528083206001600160a01b038616845290915281205490819003610cb8575050505050565b600085815260026020908152604080832087845282528083206001600160a01b038781168086529190935281842084905590516363fdc96f60e11b81526004810189905260248101859052604481019190915260a0606482015260a4810183905260848101929092527f0000000000000000000000000000000000000000000000000000000000000000169063c7fb92de9060c4016020604051808303816000875af1158015610d6c573d6000803e3d6000fd5b505050506040513d601f19601f82011682018060405250810190610d909190614e6c565b50826001600160a01b03168260200151867f598baf7bf150ca2f42be9e9f8f55e81d45f5715c3ff22bf46d697fabec7f31d68433604051610de49291909182526001600160a01b0316602082015260400190565b60405180910390a45050505050565b6000610e058686868630600088611cc3565b9695505050505050565b6000610e2488888888308761ffff168a611cc3565b835190985060005b81811015610ed05760008a81526005602052604090208551869083908110610e5657610e56614d31565b6020908102919091018101518254600180820185556000948552938390208251600390920201805473ffffffffffffffffffffffffffffffffffffffff19166001600160a01b03909216919091178155918101519282019290925560408201516002820190610ec59082614ed6565b505050600101610e2c565b50887fdfaf2737f25eace49d372b472ec03f1df0f9814dfc69d2b95c5e92a041f42e2985610efc6123c0565b604051610f0a929190614f96565b60405180910390a25096979650505050505050565b6000808980820361101b577f00000000000000000000000000000000000000000000000000000000000000006001600160a01b031663293c49996040518163ffffffff1660e01b8152600401602060405180830381865afa158015610f88573d6000803e3d6000fd5b505050506040513d601f19601f82011682018060405250810190610fac91906149ed565b6001600160a01b03166306661abd6040518163ffffffff1660e01b8152600401602060405180830381865afa158015610fe9573d6000803e3d6000fd5b505050506040513d601f19601f8201168201806040525081019061100d9190614e6c565b611018906001614d1e565b9a505b8451600061102a826001614d1e565b67ffffffffffffffff81111561104257611042613610565b60405190808252806020026020018201604052801561108f57816020015b604080516060808201835260008083526020830152918101919091528152602001906001900390816110605790505b50905060005b828110156110dc578781815181106110af576110af614d31565b60200260200101518282815181106110c9576110c9614d31565b6020908102919091010152600101611095565b507f00000000000000000000000000000000000000000000000000000000000000006001600160a01b0316632230819f8e8a600001516040518363ffffffff1660e01b815260040161112f9291906150e1565b6020604051808303816000875af115801561114e573d6000803e3d6000fd5b505050506040513d601f19601f8201168201806040525081019061117291906149ed565b93508760200151156111a15760008d815260046020908152604082208054600181018255908352912060149101555b8760400151156111ce5760008d815260046020908152604082208054600181018255908352912060159101555b8760600151156111fb5760008d815260046020908152604082208054600181018255908352912060169101555b6040518060600160405280856001600160a01b03168152602001600081526020016040518060200160405280600081525081525081838151811061124157611241614d31565b602002602001018190525061125b838d8d8d8d868c610e0f565b508c94505050509850989650505050505050565b6000808060606001600160a01b037f0000000000000000000000000000000000000000000000000000000000000000166383db9d01604087018035906112b89060208a01613577565b6040516001600160e01b031960e085901b16815260048101929092526001600160a01b03166024820152604401602060405180830381865afa158015611302573d6000803e3d6000fd5b505050506040513d601f19601f820116820180604052508101906113269190615219565b156113435761271085608001358660a001359350935093506113a5565b60408086013560009081526001602052205442101561138e576040517f04c3b3cd00000000000000000000000000000000000000000000000000000000815260040160405180910390fd5b84610160013585608001358660a001359350935093505b9193509193565b7f00000000000000000000000000000000000000000000000000000000000000006001600160a01b0316631f47ce696040518163ffffffff1660e01b8152600401602060405180830381865afa15801561140a573d6000803e3d6000fd5b505050506040513d601f19601f8201168201806040525081019061142e91906149ed565b6001600160a01b031663f434c9146040518163ffffffff1660e01b8152600401602060405180830381865afa15801561146b573d6000803e3d6000fd5b505050506040513d601f19601f8201168201806040525081019061148f91906149ed565b6001600160a01b031663632af95f6114a56123c0565b30866114b0886123cf565b6000806040518763ffffffff1660e01b81526004016114d496959493929190615272565b602060405180830381865afa1580156114f1573d6000803e3d6000fd5b505050506040513d601f19601f820116820180604052508101906115159190615219565b611532576040516331fb21f360e01b815260040160405180910390fd5b600061153c6123c0565b838360200151604051602001611554939291906152be565b60408051601f1981840301815290829052805160209091012083517f2f3f50e00000000000000000000000000000000000000000000000000000000083529092506001600160a01b037f00000000000000000000000000000000000000000000000000000000000000001691632f3f50e0916115d691889186916004016153c8565b6000604051808303816000875af11580156115f5573d6000803e3d6000fd5b505050506040513d6000823e601f3d908101601f1916820160405261161d9190810190614d47565b5080847f755ecfca2f6e66af8868551556bf7931740a7062db8e0882f4c322fdb0bb3f60858561164b6123c0565b60405161165a93929190615410565b60405180910390a350505050565b60008061167b8b8b8b8b8b8b8b8b610f1f565b909b50905061168a8184612587565b7f00000000000000000000000000000000000000000000000000000000000000006001600160a01b031663f434c9146040518163ffffffff1660e01b8152600401602060405180830381865afa1580156116e8573d6000803e3d6000fd5b505050506040513d601f19601f8201168201806040525081019061170c91906149ed565b6001600160a01b03166305d2912e306040518060600160405280600660009054906101000a90046001600160a01b03166001600160a01b031681526020018f8152602001600780548060200260200160405190810160405280929190818152602001828054801561179c57602002820191906000526020600020905b815481526020019060010190808311611788575b50505050508152506040518363ffffffff1660e01b81526004016117c192919061544f565b600060405180830381600087803b1580156117db57600080fd5b505af11580156117ef573d6000803e3d6000fd5b505050508a9150995099975050505050505050565b600061180f836123cf565b90507f00000000000000000000000000000000000000000000000000000000000000006001600160a01b0316631f47ce696040518163ffffffff1660e01b8152600401602060405180830381865afa15801561186f573d6000803e3d6000fd5b505050506040513d601f19601f8201168201806040525081019061189391906149ed565b6001600160a01b031663f434c9146040518163ffffffff1660e01b8152600401602060405180830381865afa1580156118d0573d6000803e3d6000fd5b505050506040513d601f19601f820116820180604052508101906118f491906149ed565b6001600160a01b031663632af95f61190a6123c0565b3086856000806040518763ffffffff1660e01b815260040161193196959493929190615272565b602060405180830381865afa15801561194e573d6000803e3d6000fd5b505050506040513d601f19601f820116820180604052508101906119729190615219565b61198f576040516331fb21f360e01b815260040160405180910390fd5b7f00000000000000000000000000000000000000000000000000000000000000006001600160a01b0316631f47ce696040518163ffffffff1660e01b8152600401602060405180830381865afa1580156119ed573d6000803e3d6000fd5b505050506040513d601f19601f82011682018060405250810190611a1191906149ed565b6001600160a01b031663f434c9146040518163ffffffff1660e01b8152600401602060405180830381865afa158015611a4e573d6000803e3d6000fd5b505050506040513d601f19601f82011682018060405250810190611a7291906149ed565b6001600160a01b03166305d2912e306040518060600160405280611a946123c0565b6001600160a01b0316815260208082018990526040805160008152918201815291820152516001600160e01b031960e085901b168152611ad892919060040161544f565b600060405180830381600087803b158015611af257600080fd5b505af1158015611b06573d6000803e3d6000fd5b505050507f00000000000000000000000000000000000000000000000000000000000000006001600160a01b0316631f47ce696040518163ffffffff1660e01b8152600401602060405180830381865afa158015611b68573d6000803e3d6000fd5b505050506040513d601f19601f82011682018060405250810190611b8c91906149ed565b6001600160a01b031663f434c9146040518163ffffffff1660e01b8152600401602060405180830381865afa158015611bc9573d6000803e3d6000fd5b505050506040513d601f19601f82011682018060405250810190611bed91906149ed565b6001600160a01b03166305d2912e306040518060600160405280866001600160a01b03168152602001878152602001858152506040518363ffffffff1660e01b8152600401611c3d92919061544f565b600060405180830381600087803b158015611c5757600080fd5b505af1158015611c6b573d6000803e3d6000fd5b50505050816001600160a01b0316837f0329d6a81434b130c72eb65eea0e32e429dc1277b4aad86ec86454aefb618451611ca36123c0565b6040516001600160a01b03909116815260200160405180910390a3505050565b600080600080611cd48a888861276d565b9250925092508a600003611daf577f00000000000000000000000000000000000000000000000000000000000000006001600160a01b0316639e14fb80308c6000015160400151868d8f6000015160200151604051602001611d369190615492565b6040516020818303038152906040526040518663ffffffff1660e01b8152600401611d659594939291906158f2565b6020604051808303816000875af1158015611d84573d6000803e3d6000fd5b505050506040513d601f19601f82011682018060405250810190611da89190614e6c565b9a50611e6d565b7f00000000000000000000000000000000000000000000000000000000000000006001600160a01b03166321df42e88c858c8e6000015160200151604051602001611dfa9190615492565b6040516020818303038152906040526040518563ffffffff1660e01b8152600401611e28949392919061595a565b6020604051808303816000875af1158015611e47573d6000803e3d6000fd5b505050506040513d601f19601f82011682018060405250810190611e6b9190614e6c565b505b8015611e9057611e8062278d0042614d1e565b60008c8152600160205260409020555b7f00000000000000000000000000000000000000000000000000000000000000006001600160a01b031663581781918c8c60000151600001518d60000151602001518e60000151606001516040518563ffffffff1660e01b8152600401611efa9493929190615999565b6020604051808303816000875af1158015611f19573d6000803e3d6000fd5b505050506040513d601f19601f82011682018060405250810190611f3d91906149ed565b5087516001600160a01b031615611f5857611f588b89612b96565b7f00000000000000000000000000000000000000000000000000000000000000006001600160a01b031663dd5f214a8c6000611f978e60400151612cf6565b6040518463ffffffff1660e01b8152600401611fb5939291906159d6565b600060405180830381600087803b158015611fcf57600080fd5b505af1158015611fe3573d6000803e3d6000fd5b50505050611ff18b8b612e34565b600060405180606001604052808c604001516001600160a01b031681526020018d81526020016120208e6123cf565b81525090507f00000000000000000000000000000000000000000000000000000000000000006001600160a01b031663f434c9146040518163ffffffff1660e01b8152600401602060405180830381865afa158015612083573d6000803e3d6000fd5b505050506040513d601f19601f820116820180604052508101906120a791906149ed565b6001600160a01b03166305d2912e30836040518363ffffffff1660e01b81526004016120d492919061544f565b600060405180830381600087803b1580156120ee57600080fd5b505af1158015612102573d6000803e3d6000fd5b5060009250600191506121129050565b60405190808252806020026020018201604052801561213b578160200160208202803683370190505b509050601b8160008151811061215357612153614d31565b60200260200101818152505060405180606001604052807f00000000000000000000000000000000000000000000000000000000000000006001600160a01b031681526020018e81526020018281525091507f00000000000000000000000000000000000000000000000000000000000000006001600160a01b031663f434c9146040518163ffffffff1660e01b8152600401602060405180830381865afa158015612203573d6000803e3d6000fd5b505050506040513d601f19601f8201168201806040525081019061222791906149ed565b6001600160a01b03166305d2912e30846040518363ffffffff1660e01b815260040161225492919061544f565b600060405180830381600087803b15801561226e57600080fd5b505af1158015612282573d6000803e3d6000fd5b50505050602087015115612362577f00000000000000000000000000000000000000000000000000000000000000006001600160a01b0316632f3f50e08e6122c86123c0565b878b602001516040516020016122e0939291906152be565b60408051601f198184030181529082905280516020909101208b516001600160e01b031960e086901b16835261231993926004016153c8565b6000604051808303816000875af1158015612338573d6000803e3d6000fd5b505050506040513d6000823e601f3d908101601f191682016040526123609190810190614d47565b505b8c7fabdf3ec8139195645b1e44778a910396624b7d2913c04b613f4800ad25d710468d8d8d8b8a8a8a6123936123c0565b6040516123a7989796959493929190615b8d565b60405180910390a2509a9b9a5050505050505050505050565b60006123ca613133565b905090565b60606000600380548060200260200160405190810160405280929190818152602001828054801561241f57602002820191906000526020600020905b81548152602001906001019080831161240b575b5050835160008881526004602090815260408083208054825181850281018501909352808352989950939792965094509192509083018282801561248257602002820191906000526020600020905b81548152602001906001019080831161246e575b505083519394506124999250839150859050614d1e565b67ffffffffffffffff8111156124b1576124b1613610565b6040519080825280602002602001820160405280156124da578160200160208202803683370190505b50945060005b83811015612527578481815181106124fa576124fa614d31565b602002602001015186828151811061251457612514614d31565b60209081029190910101526001016124e0565b5060005b8181101561257d5782818151811061254557612545614d31565b602002602001015186828661255a9190614d1e565b8151811061256a5761256a614d31565b602090810291909101015260010161252b565b5050505050919050565b805160008167ffffffffffffffff8111156125a4576125a4613610565b60405190808252806020026020018201604052801561261757816020015b6126046040518060c0016040528060006001600160a01b0316815260200160008152602001600081526020016000815260200160008152602001606081525090565b8152602001906001900390816125c25790505b50905061264c6040518060a0016040528060008152602001600081526020016000815260200160008152602001606081525090565b60005b838110156126e25784818151811061266957612669614d31565b602002602001015191506040518060c00160405280876001600160a01b031681526020018360000151815260200183602001518152602001836040015181526020018360600151815260200183608001518152508382815181106126cf576126cf614d31565b602090810291909101015260010161264f565b50835115612766576006546040517f9b9b7aa90000000000000000000000000000000000000000000000000000000081526001600160a01b0390911690639b9b7aa990612733908590600401615ce0565b600060405180830381600087803b15801561274d57600080fd5b505af1158015612761573d6000803e3d6000fd5b505050505b5050505050565b6060838101515181906000908067ffffffffffffffff81111561279257612792613610565b60405190808252806020026020018201604052801561288c57816020015b6128796040805161010080820183526000808352602080840182905283850182905260608085018390526080808601849052865161022081018852848152928301849052958201839052810182905293840181905260a084810182905260c0850182905260e0850182905291840181905261012084018190526101408401819052610160840181905261018084018190526101a084018190526101c084018190526101e08401819052610200840152909190820190815260200160608152602001606081525090565b8152602001906001900390816127b05790505b509350612898876131a8565b6040805160e08101825260008082526060602083018190529282018190529181018290526080810182905260a0810182905260c08101829052919450805b83811015612b8957896060015181815181106128f4576128f4614d31565b6020026020010151925081836000015164ffffffffff1611612942576040517f0aec2d6900000000000000000000000000000000000000000000000000000000815260040160405180910390fd5b826000015164ffffffffff1687828151811061296057612960614d31565b60200260200101516000018181525050826080015164ffffffffff1687828151811061298e5761298e614d31565b6020026020010151602001818152505082606001516dffffffffffffffffffffffffffff168782815181106129c5576129c5614d31565b602002602001015160400181815250508260a0015163ffffffff168782815181106129f2576129f2614d31565b602002602001015160600181815250506000878281518110612a1657612a16614d31565b6020026020010151608001906001600160a01b031690816001600160a01b031681525050604051806102200160405280846040015161ffff1681526020018460c0015161ffff16612710612a6a9190615d8a565b815260208c81015163ffffffff16908201526000604082018190526060820181905260016080830181905260a0830182905260c0830182905260e0830182905261010083018290526101208301829052610140830182905261016083018290526101808301526101a08201526001600160a01b038b166101c08201526101e0018990528751889083908110612b0157612b01614d31565b602002602001015160a00181905250806000148015612b275750825164ffffffffff1615155b8015612b3d575042836000015164ffffffffff16105b15612b4757600194505b85612b5284836131e2565b604051602001612b63929190615d9d565b60408051601f19818403018152919052835190965064ffffffffff1691506001016128d6565b5050505093509350939050565b602081810151516040805160808101825260008082529381018490529081018390526060810183905290915b82811015612cb55783602001518181518110612be057612be0614d31565b6020908102919091018101518551918101516040808301516060840151845192517f7b621d3a000000000000000000000000000000000000000000000000000000008152600481018c905262ffffff909416602485015263ffffffff91821660448501521660648301526001600160a01b039081166084830152919450911690637b621d3a9060a4016020604051808303816000875af1158015612c88573d6000803e3d6000fd5b505050506040513d601f19601f82011682018060405250810190612cac91906149ed565b50600101612bc2565b50509051600092835260208390526040909220805473ffffffffffffffffffffffffffffffffffffffff19166001600160a01b039093169290921790915550565b604080516001808252818301909252606091816020015b604080518082019091526000815260606020820152815260200190600190039081612d0d57505060408051600180825281830190925291925060009190602082015b6040805160c08101825260008082526020808301829052928201819052606082018190526080820181905260a08201528252600019909201910181612d4f5790505090506040518060c00160405280600015158152602001633b9aca00815260200160008152602001846001600160a01b031681526020016000815260200160006001600160a01b031681525081600081518110612def57612def614d31565b60200260200101819052506040518060400160405280600181526020018281525082600081518110612e2357612e23614d31565b602002602001018190525050919050565b606080820151516040805160e0810182526000808252602082018590529181018290529283018190526080830181905260a0830181905260c08301529060005b828110156127665783606001518181518110612e9257612e92614d31565b6020026020010151915060008260200151519050612ed36040518060600160405280600081526020016000815260200160006001600160a01b031681525090565b60005b828110156131285784602001518181518110612ef457612ef4614d31565b602002602001015191504682600001510361312057831580612f21575042856000015164ffffffffff1611155b1561304e57602082015160408084015190516363fdc96f60e11b8152600481018b905260248101929092526001600160a01b03908116604483015260a06064830152600060a4830181905260848301527f0000000000000000000000000000000000000000000000000000000000000000169063c7fb92de9060c4016020604051808303816000875af1158015612fbc573d6000803e3d6000fd5b505050506040513d601f19601f82011682018060405250810190612fe09190614e6c565b5060408201516001600160a01b0316612ff98542614d1e565b897f598baf7bf150ca2f42be9e9f8f55e81d45f5715c3ff22bf46d697fabec7f31d68560200151336040516130419291909182526001600160a01b0316602082015260400190565b60405180910390a4613120565b60208083015160008a8152600290925260408220909161306e8742614d1e565b8152602001908152602001600020600084604001516001600160a01b03166001600160a01b0316815260200190815260200160002060008282546130b29190614d1e565b909155505060408201516001600160a01b03166130cf8542614d1e565b897f9e83979117d75aa75fe101361cf46235d3d0a6fa7afafb275d2b9f8af02273138560200151336040516131179291909182526001600160a01b0316602082015260400190565b60405180910390a45b600101612ed6565b505050600101612e74565b6000366014336001600160a01b037f0000000000000000000000000000000000000000000000000000000000000000161480156131705750808210155b156131a0576000366131828385615d8a565b61318d928290615dcc565b61319691615df6565b60601c9250505090565b339250505090565b602080820151825180518184015160609283015160405193956131cc959401615e29565b6040516020818303038152906040529050919050565b6060811580156131f85750825164ffffffffff16155b61320a57825164ffffffffff1661320c565b425b6040808501516060860151608087015160a088015160c0890151945161327d96959060200195865261ffff94851660208701526dffffffffffffffffffffffffffff93909316604086015264ffffffffff91909116606085015263ffffffff1660808401521660a082015260c00190565b60408051601f1981840301815291905260208401515190915060005b818110156132f357826132c8866020015183815181106132bb576132bb614d31565b60200260200101516132fb565b6040516020016132d9929190615d9d565b60408051601f198184030181529190529250600101613299565b505092915050565b60608160000151826040015183602001516040516020016131cc939291909283526001600160a01b03919091166020830152604082015260600190565b60006020828403121561334a57600080fd5b81356001600160e01b03198116811461336257600080fd5b9392505050565b6001600160a01b038116811461337e57600080fd5b50565b803561338c81613369565b919050565b6000806000806000608086880312156133a957600080fd5b85356133b481613369565b945060208601356133c481613369565b935060408601359250606086013567ffffffffffffffff808211156133e857600080fd5b818801915088601f8301126133fc57600080fd5b81358181111561340b57600080fd5b89602082850101111561341d57600080fd5b9699959850939650602001949392505050565b60006020828403121561344257600080fd5b5035919050565b60006020828403121561345b57600080fd5b813567ffffffffffffffff81111561347257600080fd5b8201610180818503121561336257600080fd5b60005b838110156134a0578181015183820152602001613488565b50506000910152565b600081518084526134c1816020860160208601613485565b601f01601f19169290920160200192915050565b600082825180855260208086019550808260051b84010181860160005b8481101561354957858303601f19018952815180516001600160a01b031684528481015185850152604090810151606091850182905290613535818601836134a9565b9a86019a94505050908301906001016134f2565b5090979650505050505050565b82815260406020820152600061356f60408301846134d5565b949350505050565b60006020828403121561358957600080fd5b813561336281613369565b6000806000606084860312156135a957600080fd5b833592506020840135915060408401356135c281613369565b809150509250925092565b60208152600061336260208301846134d5565b600080604083850312156135f357600080fd5b82359150602083013561360581613369565b809150509250929050565b634e487b7160e01b600052604160045260246000fd5b6040516060810167ffffffffffffffff8111828210171561364957613649613610565b60405290565b60405160e0810167ffffffffffffffff8111828210171561364957613649613610565b6040516080810167ffffffffffffffff8111828210171561364957613649613610565b6040805190810167ffffffffffffffff8111828210171561364957613649613610565b604051610180810167ffffffffffffffff8111828210171561364957613649613610565b604051610120810167ffffffffffffffff8111828210171561364957613649613610565b60405160a0810167ffffffffffffffff8111828210171561364957613649613610565b604051601f8201601f1916810167ffffffffffffffff8111828210171561374c5761374c613610565b604052919050565b600067ffffffffffffffff82111561376e5761376e613610565b50601f01601f191660200190565b600082601f83011261378d57600080fd5b81356137a061379b82613754565b613723565b8181528460208386010111156137b557600080fd5b816020850160208301376000918101602001919091529392505050565b803563ffffffff8116811461338c57600080fd5b600067ffffffffffffffff82111561380057613800613610565b5060051b60200190565b803564ffffffffff8116811461338c57600080fd5b600082601f83011261383057600080fd5b8135602061384061379b836137e6565b8281526060928302850182019282820191908785111561385f57600080fd5b8387015b858110156135495781818a03121561387b5760008081fd5b613883613626565b81358152858201358682015260408083013561389e81613369565b908201528452928401928101613863565b803561ffff8116811461338c57600080fd5b80356dffffffffffffffffffffffffffff8116811461338c57600080fd5b600082601f8301126138f057600080fd5b8135602061390061379b836137e6565b82815260059290921b8401810191818101908684111561391f57600080fd5b8286015b84811015613a0157803567ffffffffffffffff808211156139445760008081fd5b9088019060e0828b03601f190181131561395e5760008081fd5b61396661364f565b61397188850161380a565b8152604080850135848111156139875760008081fd5b6139958e8b8389010161381f565b8a84015250606093506139a98486016138af565b9082015260806139ba8582016138c1565b8483015260a093506139cd84860161380a565b9082015260c06139de8582016137d2565b848301526139ed8386016138af565b908201528652505050918301918301613923565b509695505050505050565b600060808284031215613a1e57600080fd5b613a26613672565b9050813567ffffffffffffffff80821115613a4057600080fd5b9083019060808286031215613a5457600080fd5b613a5c613672565b823582811115613a6b57600080fd5b613a778782860161377c565b825250602083013582811115613a8c57600080fd5b613a988782860161377c565b602083015250604083013582811115613ab057600080fd5b613abc8782860161377c565b604083015250606083810135908201528352613ada602085016137d2565b6020840152613aeb60408501613381565b60408401526060840135915080821115613b0457600080fd5b50613b11848285016138df565b60608301525092915050565b600082601f830112613b2e57600080fd5b81356020613b3e61379b836137e6565b8083825260208201915060208460051b870101935086841115613b6057600080fd5b602086015b84811015613a01578035613b7881613369565b8352918301918301613b65565b600082601f830112613b9657600080fd5b81356020613ba661379b836137e6565b82815260059290921b84018101918181019086841115613bc557600080fd5b8286015b84811015613a0157803567ffffffffffffffff80821115613bea5760008081fd5b908801906040828b03601f1901811315613c045760008081fd5b613c0c613695565b87840135613c1981613369565b8152908301359082821115613c2e5760008081fd5b613c3c8c8984870101613b1d565b818901528652505050918301918301613bc9565b803562ffffff8116811461338c57600080fd5b60006040808385031215613c7657600080fd5b613c7e613695565b91508235613c8b81613369565b825260208381013567ffffffffffffffff811115613ca857600080fd5b8401601f81018613613cb957600080fd5b8035613cc761379b826137e6565b81815260079190911b82018301908381019088831115613ce657600080fd5b928401925b82841015613d5a576080848a031215613d045760008081fd5b613d0c613672565b8435613d1781613369565b8152613d24858701613c50565b86820152613d338786016137d2565b878201526060613d448187016137d2565b9082015282526080939093019290840190613ceb565b808588015250505050505092915050565b600060408284031215613d7d57600080fd5b613d85613695565b905067ffffffffffffffff8083351115613d9e57600080fd5b8235830184601f820112613db157600080fd5b613dbe61379b82356137e6565b81358082526020808301929160051b84010187811115613ddd57600080fd5b602084015b81811015613f22578581351115613df857600080fd5b803585016040818b03601f19011215613e1057600080fd5b613e18613695565b613e256020830135613369565b602082013581528760408301351115613e3d57600080fd5b6040820135820191508a603f830112613e5557600080fd5b6020820135613e6661379b826137e6565b81815260079190911b83016040019060208101908d831115613e8757600080fd5b6040850194505b82851015613f03576080858f031215613ea657600080fd5b613eae613672565b613eb88635613369565b85358152613ec8602087016137d2565b6020820152613eda6040870135613369565b604086013560408201526060860135606082015280835250602082019150608085019450613e8e565b8060208501525050508086525050602084019350602081019050613de2565b5050808552505050506020820135602082015292915050565b600080600080600060a08688031215613f5357600080fd5b85359450602086013567ffffffffffffffff80821115613f7257600080fd5b613f7e89838a01613a0c565b95506040880135915080821115613f9457600080fd5b613fa089838a01613b85565b94506060880135915080821115613fb657600080fd5b613fc289838a01613c63565b93506080880135915080821115613fd857600080fd5b50613fe588828901613d6b565b9150509295509295909350565b600082601f83011261400357600080fd5b8135602061401361379b836137e6565b82815260059290921b8401810191818101908684111561403257600080fd5b8286015b84811015613a0157803567ffffffffffffffff808211156140575760008081fd5b908801906060828b03601f19018113156140715760008081fd5b614079613626565b8784013561408681613369565b8152604084810135898301529184013591838311156140a55760008081fd5b6140b38d8a8588010161377c565b908201528652505050918301918301614036565b600080600080600080600060e0888a0312156140e257600080fd5b87359650602088013567ffffffffffffffff8082111561410157600080fd5b61410d8b838c01613a0c565b975060408a013591508082111561412357600080fd5b61412f8b838c01613b85565b965060608a013591508082111561414557600080fd5b6141518b838c01613c63565b955060808a013591508082111561416757600080fd5b6141738b838c01613d6b565b945060a08a013591508082111561418957600080fd5b506141968a828b01613ff2565b9250506141a560c089016138af565b905092959891949750929550565b80356cffffffffffffffffffffffffff8116811461338c57600080fd5b801515811461337e57600080fd5b803561338c816141d0565b803560ff8116811461338c57600080fd5b6000608080838503121561420d57600080fd5b614215613672565b9150823567ffffffffffffffff81111561422e57600080fd5b8301601f8101851361423f57600080fd5b8035602061424f61379b836137e6565b828152610180928302840182019282820191908985111561426f57600080fd5b948301945b848610156143625780868b03121561428c5760008081fd5b6142946136b8565b61429d876141b3565b81526142aa8588016137d2565b8582015260406142bb8189016137d2565b9082015260606142cc8882016138af565b908201526142db878901613381565b8189015260a0878101359082015260c06142f6818901613c50565b9082015260e06143078882016141de565b908201526101006143198882016141de565b9082015261012061432b8882016141de565b9082015261014061433d8882016141de565b9082015261016061434f8882016141de565b9082015283529485019491830191614274565b508652506143718682016137d2565b8186015250505050614385604083016141e9565b604082015261439660608301613381565b606082015292915050565b6000608082840312156143b357600080fd5b6143bb613672565b905081356143c8816141d0565b815260208201356143d8816141d0565b602082015260408201356143eb816141d0565b60408201526060820135614396816141d0565b60006080828403121561441057600080fd5b614418613672565b9050813567ffffffffffffffff8082111561443257600080fd5b90830190610180828603121561444757600080fd5b61444f6136dc565b82358281111561445e57600080fd5b61446a8782860161377c565b82525060208301358281111561447f57600080fd5b61448b8782860161377c565b60208301525061449d60408401613381565b60408201526060830135828111156144b457600080fd5b6144c08782860161377c565b6060830152506144d260808401613381565b608082015260a0830135828111156144e957600080fd5b6144f58782860161377c565b60a08301525060c08301358281111561450d57600080fd5b614519878286016141fa565b60c08301525061452b60e08401613381565b60e08201526101009150614541868385016143a1565b82820152808452505050614557602083016141de565b6020820152614568604083016141de565b6040820152614396606083016141de565b600080600080600080600080610100898b03121561459657600080fd5b88359750602089013567ffffffffffffffff808211156145b557600080fd5b6145c18c838d01613a0c565b985060408b01359150808211156145d757600080fd5b6145e38c838d01613b85565b975060608b01359150808211156145f957600080fd5b6146058c838d01613c63565b965060808b013591508082111561461b57600080fd5b6146278c838d01613d6b565b955060a08b013591508082111561463d57600080fd5b6146498c838d016143fe565b945060c08b013591508082111561465f57600080fd5b5061466c8b828c01613ff2565b92505061467b60e08a016138af565b90509295985092959890939650565b60006020828403121561469c57600080fd5b813567ffffffffffffffff8111156146b357600080fd5b82016101a0818503121561336257600080fd5b60006080820186835260208681850152604086604086015260606080606087015283875180865260a08801915060a08160051b890101955084890160005b8281101561475457898803609f19018452815180516001600160a01b0316895287810151888a0152860151868901869052614741868a01826134a9565b9850509286019290860190600101614704565b50959c9b505050505050505050505050565b60008060006060848603121561477b57600080fd5b83359250602084013567ffffffffffffffff8082111561479a57600080fd5b6147a68783880161377c565b935060408601359150808211156147bc57600080fd5b506147c986828701613d6b565b9150509250925092565b600082601f8301126147e457600080fd5b813560206147f461379b836137e6565b82815260059290921b8401810191818101908684111561481357600080fd5b8286015b84811015613a0157803567ffffffffffffffff808211156148385760008081fd5b9088019060a0828b03601f19018113156148525760008081fd5b61485a613700565b878401358152604080850135898301526060808601358284015260809150818601358184015250828501359250838311156148955760008081fd5b6148a38d8a85880101613b1d565b908201528652505050918301918301614817565b60008060008060008060008060006101208a8c0312156148d657600080fd5b8935985060208a013567ffffffffffffffff808211156148f557600080fd5b6149018d838e01613a0c565b995060408c013591508082111561491757600080fd5b6149238d838e01613b85565b985060608c013591508082111561493957600080fd5b6149458d838e01613c63565b975060808c013591508082111561495b57600080fd5b6149678d838e01613d6b565b965060a08c013591508082111561497d57600080fd5b6149898d838e016143fe565b955060c08c013591508082111561499f57600080fd5b6149ab8d838e01613ff2565b94506149b960e08d016138af565b93506101008c01359150808211156149d057600080fd5b506149dd8c828d016147d3565b9150509295985092959850929598565b6000602082840312156149ff57600080fd5b815161336281613369565b8035614a1581613369565b6001600160a01b031682526020818101359083015260408082013590830152606090810135910152565b6000808335601e19843603018112614a5657600080fd5b830160208101925035905067ffffffffffffffff811115614a7657600080fd5b803603821315614a8557600080fd5b9250929050565b81835281816020850137506000828201602090810191909152601f909101601f19169091010190565b60208152614ad660208201614ac984613381565b6001600160a01b03169052565b6000614ae460208401613381565b6001600160a01b038116604084015250614b046060830160408501614a0a565b60c083013560e083015261010060e084013581840152614b25818501613381565b9050610120614b3e818501836001600160a01b03169052565b61014091508085013582850152506101608185013581850152614b6381860186614a3f565b6101808681015292509050614b7d6101a085018383614a8c565b95945050505050565b6000806040808486031215614b9a57600080fd5b8351925060208085015167ffffffffffffffff80821115614bba57600080fd5b818701915087601f830112614bce57600080fd5b8151614bdc61379b826137e6565b81815260059190911b8301840190848101908a831115614bfb57600080fd5b8585015b83811015614cbc57805185811115614c1657600080fd5b86016060818e03601f19011215614c2d5760008081fd5b614c35613626565b88820151614c4281613369565b8152818a015189820152606082015187811115614c5f5760008081fd5b8083019250508d603f830112614c755760008081fd5b88820151614c8561379b82613754565b8181528f8c838601011115614c9a5760008081fd5b614ca9828c83018e8701613485565b828c015250845250918601918601614bff565b50809750505050505050509250929050565b600181811c90821680614ce257607f821691505b602082108103614d0257634e487b7160e01b600052602260045260246000fd5b50919050565b634e487b7160e01b600052601160045260246000fd5b808201808211156104fc576104fc614d08565b634e487b7160e01b600052603260045260246000fd5b60006020808385031215614d5a57600080fd5b825167ffffffffffffffff811115614d7157600080fd5b8301601f81018513614d8257600080fd5b8051614d9061379b826137e6565b81815260059190911b82018301908381019087831115614daf57600080fd5b928401925b82841015614dd6578351614dc781613369565b82529284019290840190614db4565b979650505050505050565b805161338c81613369565b60006101208284031215614dff57600080fd5b614e076136dc565b825181526020830151602082015260408301516040820152606083015160608201526080830151608082015260a083015160a082015260c083015160c0820152614e5360e08401614de1565b60e0820152610100928301519281019290925250919050565b600060208284031215614e7e57600080fd5b5051919050565b601f821115614ed1576000816000526020600020601f850160051c81016020861015614eae5750805b601f850160051c820191505b81811015614ecd57828155600101614eba565b5050505b505050565b815167ffffffffffffffff811115614ef057614ef0613610565b614f0481614efe8454614cce565b84614e85565b602080601f831160018114614f395760008415614f215750858301515b600019600386901b1c1916600185901b178555614ecd565b600085815260208120601f198616915b82811015614f6857888601518255948401946001909101908401614f49565b5085821015614f865787850151600019600388901b60f8161c191681555b5050505050600190811b01905550565b604081526000614fa960408301856134d5565b90506001600160a01b03831660208301529392505050565b80516080808452815184820181905260009260a0916020918201918388019190865b828110156150a657845180516cffffffffffffffffffffffffff1685528281015163ffffffff908116848701526040808301519091169086015260608082015161ffff1690860152878101516001600160a01b031688860152868101518786015260c08082015162ffffff169086015260e080820151151590860152610100808201511515908601526101208082015115159086015261014080820151151590860152610160908101511515908501529381019361018090930192600101614fe3565b508781015163ffffffff16908901525060408087015160ff16908801526060808701516001600160a01b038116918901919091529350610e05565b828152604060208201526000825161018060408401526151056101c08401826134a9565b90506020840151603f198085840301606086015261512383836134a9565b92506040860151915061514160808601836001600160a01b03169052565b60608601519150808584030160a086015261515c83836134a9565b92506080860151915061517a60c08601836001600160a01b03169052565b60a08601519150808584030160e086015261519583836134a9565b925060c086015191506101008186850301818701526151b48484614fc1565b935060e087015192506151d36101208701846001600160a01b03169052565b860151805115156101408701526020810151151561016087015260408101511515610180870152606081015115156101a087015291506152109050565b50949350505050565b60006020828403121561522b57600080fd5b8151613362816141d0565b60008151808452602080850194506020840160005b838110156152675781518752958201959082019060010161524b565b509495945050505050565b60006001600160a01b03808916835280881660208401525085604083015260c060608301526152a460c0830186615236565b93151560808301525090151560a090910152949350505050565b6bffffffffffffffffffffffff198460601b168152600083516152e8816014850160208801613485565b60149201918201929092526034019392505050565b600082825180855260208086019550808260051b8401018186016000805b858110156153ba57868403601f19018a52825180516001600160a01b03908116865290860151604087870181905281518188018190529188019290916060919082890190875b818110156153a25786518051851684528c81015163ffffffff168d8501528681015185168785015285015185840152958b0195608090920191600101615361565b50509d89019d9750505093860193505060010161531b565b509198975050505050505050565b838152826020820152606060408201526000614b7d60608301846152fd565b60008151604084526153fc60408501826152fd565b602093840151949093019390935250919050565b60608152600061542360608301866134a9565b828103602084015261543581866153e7565b9150506001600160a01b0383166040830152949350505050565b60006001600160a01b038085168352604060208401528084511660408401525060208301516060830152604083015160606080840152614b7d60a0840182615236565b7f24000000000000000000000000000000000000000000000000000000000000008152600082516154ca816001850160208701613485565b7f207265766e6574206465706c6f796564000000000000000000000000000000006001939091019283015250601101919050565b8051825260208101516020830152604081015160408301526060810151615529606084018215159052565b50608081015161553d608084018215159052565b5060a081015161555160a084018215159052565b5060c081015161556560c084018215159052565b5060e081015161557960e084018215159052565b5061010081810151151590830152610120808201511515908301526101408082015115159083015261016080820151151590830152610180808201511515908301526101a0808201511515908301526101c0808201511515908301526101e0808201516001600160a01b03169083015261020090810151910152565b600082825180855260208086019550808260051b8401018186016000805b858110156153ba57868403601f19018a52825180518552850151604086860181905281518187018190529187019160609081880190865b818110156156a45785518051151584528b8101518c8501528581015186850152848101516001600160a01b03908116868601526080808301519086015260a0918201511690840152948a019460c09092019160010161564a565b50509c88019c965050509285019250600101615613565b60008151808452602080850194506020840160005b838110156152675781518051885283015183880152604090960195908201906001016156d0565b600082825180855260208086019550808260051b84010181860160005b8481101561354957601f19868403018952815160806001600160a01b0380835116865280878401511687870152506040808301518282880152615759838801826156bb565b925050506060808301519250858203818701525061577781836156bb565b9a86019a9450505090830190600101615714565b600082825180855260208086019550808260051b84010181860160005b8481101561354957858303601f19018952815180518452848101518585015260408082015190850152606080820151908501526080808201516001600160a01b03169085015260a0808201516103009190615805828801826154fe565b505060c0820151816102c087015261581f828701826155f5565b91505060e082015191508481036102e086015261583c81836156f7565b9a86019a94505050908301906001016157a8565b60008151808452602080850194506020840160005b838110156152675781516001600160a01b031687529582019590820190600101615865565b600082825180855260208086019550808260051b84010181860160005b8481101561354957858303601f19018952815180516001600160a01b0316845284015160408585018190526158de81860183615850565b9a86019a94505050908301906001016158a7565b6001600160a01b038616815260a06020820152600061591460a08301876134a9565b8281036040840152615926818761578b565b9050828103606084015261593a818661588a565b9050828103608084015261594e81856134a9565b98975050505050505050565b848152608060208201526000615973608083018661578b565b8281036040840152615985818661588a565b90508281036060840152614dd681856134a9565b8481526080602082015260006159b260808301866134a9565b82810360408401526159c481866134a9565b91505082606083015295945050505050565b838152826020820152606060408201526000614b7d60608301846155f5565b600082825180855260208086019550808260051b8401018186016000805b858110156153ba57868403601f19018a528251805164ffffffffff1685528581015160e0878701819052815190870181905261010087019188019085905b80821015615a90578251805185528a8101518b8601526040908101516001600160a01b0316908501526060909301929189019160019190910190615a51565b50505060408281015161ffff908116918801919091526060808401516dffffffffffffffffffffffffffff169088015260808084015164ffffffffff169088015260a08084015163ffffffff169088015260c0928301511691909501529884019891840191600101615a13565b600060408084016001600160a01b038085511686526020808601516040828901528381518086526060955060608a019150838301925060005b81811015615b7e5783518051871684528581015162ffffff16868501528881015163ffffffff9081168a86015290880151168784015292840192608090920191600101615b36565b50909998505050505050505050565b60006101008083528a51608082850152805191506080610180850152615bb76102008501836134a9565b9150602081015161017f1980868503016101a0870152615bd784836134a9565b93506040830151915080868503016101c087015250615bf683826134a9565b92505060608101516101e08501525060208b0151615c1d61012085018263ffffffff169052565b5060408b01516001600160a01b031661014084015260608b015183820360ff1901610160850152615c4e82826159f5565b9150508281036020840152615c63818b61588a565b90508281036040840152615c77818a615afd565b90508281036060840152615c8b81896153e7565b90508281036080840152615c9f818861578b565b905082810360a0840152615cb381876134a9565b915050615cc460c083018515159052565b6001600160a01b03831660e08301529998505050505050505050565b600060208083018184528085518083526040925060408601915060408160051b87010184880160005b83811015615d7c57888303603f19018552815180516001600160a01b0316845287810151888501528681015187850152606080820151908501526080808201519085015260a09081015160c091850182905290615d6881860183615850565b968901969450505090860190600101615d09565b509098975050505050505050565b818103818111156104fc576104fc614d08565b60008351615daf818460208801613485565b835190830190615dc3818360208801613485565b01949350505050565b60008085851115615ddc57600080fd5b83861115615de957600080fd5b5050820193919092039150565b6bffffffffffffffffffffffff1981358181169160148510156132f35760149490940360031b84901b1690921692915050565b63ffffffff851681526080602082015260006159b260808301866134a956fea2646970667358221220609c69f976df6a91ee0a1e09170ddc9b38217ff28ab89806921a7443ea6caf2164736f6c63430008170033",
	"deployedBytecode": "0x608060405234801561001057600080fd5b506004361061018d5760003560e01c80639ab68726116100e3578063b5d255331161008c578063dbfbe5da11610066578063dbfbe5da1461044c578063eb5ad9d91461045f578063ee0fc1211461047257600080fd5b8063b5d25533146103ff578063bb19940214610426578063bd43e7ba1461043957600080fd5b80639fafd73c116100bd5780639fafd73c14610385578063aaf320d7146103b5578063abf8c5c8146103d857600080fd5b80639ab68726146103555780639c62f179146103685780639d82ba251461037b57600080fd5b80635a31dc13116101455780637249a7731161011f5780637249a773146102d95780637da0a8771461031a57806382a09b301461034057600080fd5b80635a31dc13146102755780635c0a7cee146102a6578063677ce088146102c657600080fd5b806343681e151161017657806343681e15146101e65780634c4ffc7114610214578063572b6c051461023557600080fd5b806301ffc9a714610192578063150b7a02146101ba575b600080fd5b6101a56101a0366004613338565b610499565b60405190151581526020015b60405180910390f35b6101cd6101c8366004613391565b610502565b6040516001600160e01b031990911681526020016101b1565b6102066101f4366004613430565b60016020526000908152604090205481565b6040519081526020016101b1565b610227610222366004613449565b6105ce565b6040516101b1929190613556565b6101a5610243366004613577565b7f000000000000000000000000b2b5841dbef766d4b521221732f9b618fcf34a876001600160a01b0390811691161490565b610206610283366004613594565b600260209081526000938452604080852082529284528284209052825290205481565b6102b96102b4366004613430565b6108d2565b6040516101b191906135cd565b6101a56102d43660046135e0565b6109f6565b6103026102e7366004613430565b6000602081905290815260409020546001600160a01b031681565b6040516001600160a01b0390911681526020016101b1565b7f000000000000000000000000b2b5841dbef766d4b521221732f9b618fcf34a87610302565b61035361034e366004613594565b610b2b565b005b610206610363366004613f3b565b610df3565b6102066103763660046140c7565b610e0f565b61020662278d0081565b610398610393366004614579565b610f1f565b604080519283526001600160a01b039091166020830152016101b1565b6103c86103c336600461468a565b61126f565b6040516101b194939291906146c6565b6103027f000000000000000000000000554ce80d78f5438c73a9759d8bbb52a382138a5981565b6103027f000000000000000000000000ba50a4fa419e1c7adfb7ca0186a01a556c0126c281565b610353610434366004614766565b6113ac565b6103986104473660046148b7565b611668565b600654610302906001600160a01b031681565b61035361046d3660046135e0565b611804565b6103027f00000000000000000000000074688ef633bb1990e806b1f5f8f16e19aba22beb81565b60006001600160e01b031982167f81c03c2e0000000000000000000000000000000000000000000000000000000014806104fc57507f01ffc9a7000000000000000000000000000000000000000000000000000000006001600160e01b03198316145b92915050565b60007f00000000000000000000000074688ef633bb1990e806b1f5f8f16e19aba22beb6001600160a01b031663293c49996040518163ffffffff1660e01b8152600401602060405180830381865afa158015610562573d6000803e3d6000fd5b505050506040513d601f19601f8201168201806040525081019061058691906149ed565b6001600160a01b0316336001600160a01b0316146105a357600080fd5b507f150b7a020000000000000000000000000000000000000000000000000000000095945050505050565b60c081013560009081526020819052604081205460609081906001600160a01b0316801561068a576040517f4c4ffc710000000000000000000000000000000000000000000000000000000081526001600160a01b03821690634c4ffc719061063b908890600401614ab5565b600060405180830381865afa158015610658573d6000803e3d6000fd5b505050506040513d6000823e601f3d908101601f191682016040526106809190810190614b86565b9094509150610693565b84610120013593505b815160c086013560009081526005602090815260408083208054825181850281018501909352808352941515949192909190849084015b828210156107ae576000848152602090819020604080516060810182526003860290920180546001600160a01b031683526001810154938301939093526002830180549293929184019161071d90614cce565b80601f016020809104026020016040519081016040528092919081815260200182805461074990614cce565b80156107965780601f1061076b57610100808354040283529160200191610796565b820191906000526020600020905b81548152906001019060200180831161077957829003601f168201915b505050505081525050815260200190600101906106ca565b505050509050600081519050826107c65760006107c9565b60015b6107d69060ff1682614d1e565b67ffffffffffffffff8111156107ee576107ee613610565b60405190808252806020026020018201604052801561083b57816020015b6040805160608082018352600080835260208301529181019190915281526020019060019003908161080c5790505b50955060005b818110156108885782818151811061085b5761085b614d31565b602002602001015187828151811061087557610875614d31565b6020908102919091010152600101610841565b5082156108c857846000815181106108a2576108a2614d31565b60200260200101518682815181106108bc576108bc614d31565b60200260200101819052505b5050505050915091565b606060056000838152602001908152602001600020805480602002602001604051908101604052809291908181526020016000905b828210156109eb576000848152602090819020604080516060810182526003860290920180546001600160a01b031683526001810154938301939093526002830180549293929184019161095a90614cce565b80601f016020809104026020016040519081016040528092919081815260200182805461098690614cce565b80156109d35780601f106109a8576101008083540402835291602001916109d3565b820191906000526020600020905b8154815290600101906020018083116109b657829003601f168201915b50505050508152505081526020019060010190610907565b505050509050919050565b6000828152602081905260408120546001600160a01b0390811690831603610a20575060016104fc565b6040517f3d12cb87000000000000000000000000000000000000000000000000000000008152600481018490526000907f000000000000000000000000ba50a4fa419e1c7adfb7ca0186a01a556c0126c26001600160a01b031690633d12cb8790602401600060405180830381865afa158015610aa1573d6000803e3d6000fd5b505050506040513d6000823e601f3d908101601f19168201604052610ac99190810190614d47565b805190915060005b81811015610b1f57828181518110610aeb57610aeb614d31565b60200260200101516001600160a01b0316856001600160a01b031603610b1757600193505050506104fc565b600101610ad1565b50600095945050505050565b60007f00000000000000000000000074688ef633bb1990e806b1f5f8f16e19aba22beb6001600160a01b031663d4a1b4b16040518163ffffffff1660e01b8152600401602060405180830381865afa158015610b8b573d6000803e3d6000fd5b505050506040513d601f19601f82011682018060405250810190610baf91906149ed565b6040517f25a61d5c00000000000000000000000000000000000000000000000000000000815260048101869052602481018590526001600160a01b0391909116906325a61d5c9060440161012060405180830381865afa158015610c17573d6000803e3d6000fd5b505050506040513d601f19601f82011682018060405250810190610c3b9190614dec565b90504281606001511115610c7b576040517f13dec85c00000000000000000000000000000000000000000000000000000000815260040160405180910390fd5b600084815260026020908152604080832084830151845282528083206001600160a01b038616845290915281205490819003610cb8575050505050565b600085815260026020908152604080832087845282528083206001600160a01b038781168086529190935281842084905590516363fdc96f60e11b81526004810189905260248101859052604481019190915260a0606482015260a4810183905260848101929092527f00000000000000000000000074688ef633bb1990e806b1f5f8f16e19aba22beb169063c7fb92de9060c4016020604051808303816000875af1158015610d6c573d6000803e3d6000fd5b505050506040513d601f19601f82011682018060405250810190610d909190614e6c565b50826001600160a01b03168260200151867f598baf7bf150ca2f42be9e9f8f55e81d45f5715c3ff22bf46d697fabec7f31d68433604051610de49291909182526001600160a01b0316602082015260400190565b60405180910390a45050505050565b6000610e058686868630600088611cc3565b9695505050505050565b6000610e2488888888308761ffff168a611cc3565b835190985060005b81811015610ed05760008a81526005602052604090208551869083908110610e5657610e56614d31565b6020908102919091018101518254600180820185556000948552938390208251600390920201805473ffffffffffffffffffffffffffffffffffffffff19166001600160a01b03909216919091178155918101519282019290925560408201516002820190610ec59082614ed6565b505050600101610e2c565b50887fdfaf2737f25eace49d372b472ec03f1df0f9814dfc69d2b95c5e92a041f42e2985610efc6123c0565b604051610f0a929190614f96565b60405180910390a25096979650505050505050565b6000808980820361101b577f00000000000000000000000074688ef633bb1990e806b1f5f8f16e19aba22beb6001600160a01b031663293c49996040518163ffffffff1660e01b8152600401602060405180830381865afa158015610f88573d6000803e3d6000fd5b505050506040513d601f19601f82011682018060405250810190610fac91906149ed565b6001600160a01b03166306661abd6040518163ffffffff1660e01b8152600401602060405180830381865afa158015610fe9573d6000803e3d6000fd5b505050506040513d601f19601f8201168201806040525081019061100d9190614e6c565b611018906001614d1e565b9a505b8451600061102a826001614d1e565b67ffffffffffffffff81111561104257611042613610565b60405190808252806020026020018201604052801561108f57816020015b604080516060808201835260008083526020830152918101919091528152602001906001900390816110605790505b50905060005b828110156110dc578781815181106110af576110af614d31565b60200260200101518282815181106110c9576110c9614d31565b6020908102919091010152600101611095565b507f000000000000000000000000554ce80d78f5438c73a9759d8bbb52a382138a596001600160a01b0316632230819f8e8a600001516040518363ffffffff1660e01b815260040161112f9291906150e1565b6020604051808303816000875af115801561114e573d6000803e3d6000fd5b505050506040513d601f19601f8201168201806040525081019061117291906149ed565b93508760200151156111a15760008d815260046020908152604082208054600181018255908352912060149101555b8760400151156111ce5760008d815260046020908152604082208054600181018255908352912060159101555b8760600151156111fb5760008d815260046020908152604082208054600181018255908352912060169101555b6040518060600160405280856001600160a01b03168152602001600081526020016040518060200160405280600081525081525081838151811061124157611241614d31565b602002602001018190525061125b838d8d8d8d868c610e0f565b508c94505050509850989650505050505050565b6000808060606001600160a01b037f000000000000000000000000ba50a4fa419e1c7adfb7ca0186a01a556c0126c2166383db9d01604087018035906112b89060208a01613577565b6040516001600160e01b031960e085901b16815260048101929092526001600160a01b03166024820152604401602060405180830381865afa158015611302573d6000803e3d6000fd5b505050506040513d601f19601f820116820180604052508101906113269190615219565b156113435761271085608001358660a001359350935093506113a5565b60408086013560009081526001602052205442101561138e576040517f04c3b3cd00000000000000000000000000000000000000000000000000000000815260040160405180910390fd5b84610160013585608001358660a001359350935093505b9193509193565b7f00000000000000000000000074688ef633bb1990e806b1f5f8f16e19aba22beb6001600160a01b0316631f47ce696040518163ffffffff1660e01b8152600401602060405180830381865afa15801561140a573d6000803e3d6000fd5b505050506040513d601f19601f8201168201806040525081019061142e91906149ed565b6001600160a01b031663f434c9146040518163ffffffff1660e01b8152600401602060405180830381865afa15801561146b573d6000803e3d6000fd5b505050506040513d601f19601f8201168201806040525081019061148f91906149ed565b6001600160a01b031663632af95f6114a56123c0565b30866114b0886123cf565b6000806040518763ffffffff1660e01b81526004016114d496959493929190615272565b602060405180830381865afa1580156114f1573d6000803e3d6000fd5b505050506040513d601f19601f820116820180604052508101906115159190615219565b611532576040516331fb21f360e01b815260040160405180910390fd5b600061153c6123c0565b838360200151604051602001611554939291906152be565b60408051601f1981840301815290829052805160209091012083517f2f3f50e00000000000000000000000000000000000000000000000000000000083529092506001600160a01b037f000000000000000000000000ba50a4fa419e1c7adfb7ca0186a01a556c0126c21691632f3f50e0916115d691889186916004016153c8565b6000604051808303816000875af11580156115f5573d6000803e3d6000fd5b505050506040513d6000823e601f3d908101601f1916820160405261161d9190810190614d47565b5080847f755ecfca2f6e66af8868551556bf7931740a7062db8e0882f4c322fdb0bb3f60858561164b6123c0565b60405161165a93929190615410565b60405180910390a350505050565b60008061167b8b8b8b8b8b8b8b8b610f1f565b909b50905061168a8184612587565b7f00000000000000000000000074688ef633bb1990e806b1f5f8f16e19aba22beb6001600160a01b031663f434c9146040518163ffffffff1660e01b8152600401602060405180830381865afa1580156116e8573d6000803e3d6000fd5b505050506040513d601f19601f8201168201806040525081019061170c91906149ed565b6001600160a01b03166305d2912e306040518060600160405280600660009054906101000a90046001600160a01b03166001600160a01b031681526020018f8152602001600780548060200260200160405190810160405280929190818152602001828054801561179c57602002820191906000526020600020905b815481526020019060010190808311611788575b50505050508152506040518363ffffffff1660e01b81526004016117c192919061544f565b600060405180830381600087803b1580156117db57600080fd5b505af11580156117ef573d6000803e3d6000fd5b505050508a9150995099975050505050505050565b600061180f836123cf565b90507f00000000000000000000000074688ef633bb1990e806b1f5f8f16e19aba22beb6001600160a01b0316631f47ce696040518163ffffffff1660e01b8152600401602060405180830381865afa15801561186f573d6000803e3d6000fd5b505050506040513d601f19601f8201168201806040525081019061189391906149ed565b6001600160a01b031663f434c9146040518163ffffffff1660e01b8152600401602060405180830381865afa1580156118d0573d6000803e3d6000fd5b505050506040513d601f19601f820116820180604052508101906118f491906149ed565b6001600160a01b031663632af95f61190a6123c0565b3086856000806040518763ffffffff1660e01b815260040161193196959493929190615272565b602060405180830381865afa15801561194e573d6000803e3d6000fd5b505050506040513d601f19601f820116820180604052508101906119729190615219565b61198f576040516331fb21f360e01b815260040160405180910390fd5b7f00000000000000000000000074688ef633bb1990e806b1f5f8f16e19aba22beb6001600160a01b0316631f47ce696040518163ffffffff1660e01b8152600401602060405180830381865afa1580156119ed573d6000803e3d6000fd5b505050506040513d601f19601f82011682018060405250810190611a1191906149ed565b6001600160a01b031663f434c9146040518163ffffffff1660e01b8152600401602060405180830381865afa158015611a4e573d6000803e3d6000fd5b505050506040513d601f19601f82011682018060405250810190611a7291906149ed565b6001600160a01b03166305d2912e306040518060600160405280611a946123c0565b6001600160a01b0316815260208082018990526040805160008152918201815291820152516001600160e01b031960e085901b168152611ad892919060040161544f565b600060405180830381600087803b158015611af257600080fd5b505af1158015611b06573d6000803e3d6000fd5b505050507f00000000000000000000000074688ef633bb1990e806b1f5f8f16e19aba22beb6001600160a01b0316631f47ce696040518163ffffffff1660e01b8152600401602060405180830381865afa158015611b68573d6000803e3d6000fd5b505050506040513d601f19601f82011682018060405250810190611b8c91906149ed565b6001600160a01b031663f434c9146040518163ffffffff1660e01b8152600401602060405180830381865afa158015611bc9573d6000803e3d6000fd5b505050506040513d601f19601f82011682018060405250810190611bed91906149ed565b6001600160a01b03166305d2912e306040518060600160405280866001600160a01b03168152602001878152602001858152506040518363ffffffff1660e01b8152600401611c3d92919061544f565b600060405180830381600087803b158015611c5757600080fd5b505af1158015611c6b573d6000803e3d6000fd5b50505050816001600160a01b0316837f0329d6a81434b130c72eb65eea0e32e429dc1277b4aad86ec86454aefb618451611ca36123c0565b6040516001600160a01b03909116815260200160405180910390a3505050565b600080600080611cd48a888861276d565b9250925092508a600003611daf577f00000000000000000000000074688ef633bb1990e806b1f5f8f16e19aba22beb6001600160a01b0316639e14fb80308c6000015160400151868d8f6000015160200151604051602001611d369190615492565b6040516020818303038152906040526040518663ffffffff1660e01b8152600401611d659594939291906158f2565b6020604051808303816000875af1158015611d84573d6000803e3d6000fd5b505050506040513d601f19601f82011682018060405250810190611da89190614e6c565b9a50611e6d565b7f00000000000000000000000074688ef633bb1990e806b1f5f8f16e19aba22beb6001600160a01b03166321df42e88c858c8e6000015160200151604051602001611dfa9190615492565b6040516020818303038152906040526040518563ffffffff1660e01b8152600401611e28949392919061595a565b6020604051808303816000875af1158015611e47573d6000803e3d6000fd5b505050506040513d601f19601f82011682018060405250810190611e6b9190614e6c565b505b8015611e9057611e8062278d0042614d1e565b60008c8152600160205260409020555b7f00000000000000000000000074688ef633bb1990e806b1f5f8f16e19aba22beb6001600160a01b031663581781918c8c60000151600001518d60000151602001518e60000151606001516040518563ffffffff1660e01b8152600401611efa9493929190615999565b6020604051808303816000875af1158015611f19573d6000803e3d6000fd5b505050506040513d601f19601f82011682018060405250810190611f3d91906149ed565b5087516001600160a01b031615611f5857611f588b89612b96565b7f00000000000000000000000074688ef633bb1990e806b1f5f8f16e19aba22beb6001600160a01b031663dd5f214a8c6000611f978e60400151612cf6565b6040518463ffffffff1660e01b8152600401611fb5939291906159d6565b600060405180830381600087803b158015611fcf57600080fd5b505af1158015611fe3573d6000803e3d6000fd5b50505050611ff18b8b612e34565b600060405180606001604052808c604001516001600160a01b031681526020018d81526020016120208e6123cf565b81525090507f00000000000000000000000074688ef633bb1990e806b1f5f8f16e19aba22beb6001600160a01b031663f434c9146040518163ffffffff1660e01b8152600401602060405180830381865afa158015612083573d6000803e3d6000fd5b505050506040513d601f19601f820116820180604052508101906120a791906149ed565b6001600160a01b03166305d2912e30836040518363ffffffff1660e01b81526004016120d492919061544f565b600060405180830381600087803b1580156120ee57600080fd5b505af1158015612102573d6000803e3d6000fd5b5060009250600191506121129050565b60405190808252806020026020018201604052801561213b578160200160208202803683370190505b509050601b8160008151811061215357612153614d31565b60200260200101818152505060405180606001604052807f000000000000000000000000ba50a4fa419e1c7adfb7ca0186a01a556c0126c26001600160a01b031681526020018e81526020018281525091507f00000000000000000000000074688ef633bb1990e806b1f5f8f16e19aba22beb6001600160a01b031663f434c9146040518163ffffffff1660e01b8152600401602060405180830381865afa158015612203573d6000803e3d6000fd5b505050506040513d601f19601f8201168201806040525081019061222791906149ed565b6001600160a01b03166305d2912e30846040518363ffffffff1660e01b815260040161225492919061544f565b600060405180830381600087803b15801561226e57600080fd5b505af1158015612282573d6000803e3d6000fd5b50505050602087015115612362577f000000000000000000000000ba50a4fa419e1c7adfb7ca0186a01a556c0126c26001600160a01b0316632f3f50e08e6122c86123c0565b878b602001516040516020016122e0939291906152be565b60408051601f198184030181529082905280516020909101208b516001600160e01b031960e086901b16835261231993926004016153c8565b6000604051808303816000875af1158015612338573d6000803e3d6000fd5b505050506040513d6000823e601f3d908101601f191682016040526123609190810190614d47565b505b8c7fabdf3ec8139195645b1e44778a910396624b7d2913c04b613f4800ad25d710468d8d8d8b8a8a8a6123936123c0565b6040516123a7989796959493929190615b8d565b60405180910390a2509a9b9a5050505050505050505050565b60006123ca613133565b905090565b60606000600380548060200260200160405190810160405280929190818152602001828054801561241f57602002820191906000526020600020905b81548152602001906001019080831161240b575b5050835160008881526004602090815260408083208054825181850281018501909352808352989950939792965094509192509083018282801561248257602002820191906000526020600020905b81548152602001906001019080831161246e575b505083519394506124999250839150859050614d1e565b67ffffffffffffffff8111156124b1576124b1613610565b6040519080825280602002602001820160405280156124da578160200160208202803683370190505b50945060005b83811015612527578481815181106124fa576124fa614d31565b602002602001015186828151811061251457612514614d31565b60209081029190910101526001016124e0565b5060005b8181101561257d5782818151811061254557612545614d31565b602002602001015186828661255a9190614d1e565b8151811061256a5761256a614d31565b602090810291909101015260010161252b565b5050505050919050565b805160008167ffffffffffffffff8111156125a4576125a4613610565b60405190808252806020026020018201604052801561261757816020015b6126046040518060c0016040528060006001600160a01b0316815260200160008152602001600081526020016000815260200160008152602001606081525090565b8152602001906001900390816125c25790505b50905061264c6040518060a0016040528060008152602001600081526020016000815260200160008152602001606081525090565b60005b838110156126e25784818151811061266957612669614d31565b602002602001015191506040518060c00160405280876001600160a01b031681526020018360000151815260200183602001518152602001836040015181526020018360600151815260200183608001518152508382815181106126cf576126cf614d31565b602090810291909101015260010161264f565b50835115612766576006546040517f9b9b7aa90000000000000000000000000000000000000000000000000000000081526001600160a01b0390911690639b9b7aa990612733908590600401615ce0565b600060405180830381600087803b15801561274d57600080fd5b505af1158015612761573d6000803e3d6000fd5b505050505b5050505050565b6060838101515181906000908067ffffffffffffffff81111561279257612792613610565b60405190808252806020026020018201604052801561288c57816020015b6128796040805161010080820183526000808352602080840182905283850182905260608085018390526080808601849052865161022081018852848152928301849052958201839052810182905293840181905260a084810182905260c0850182905260e0850182905291840181905261012084018190526101408401819052610160840181905261018084018190526101a084018190526101c084018190526101e08401819052610200840152909190820190815260200160608152602001606081525090565b8152602001906001900390816127b05790505b509350612898876131a8565b6040805160e08101825260008082526060602083018190529282018190529181018290526080810182905260a0810182905260c08101829052919450805b83811015612b8957896060015181815181106128f4576128f4614d31565b6020026020010151925081836000015164ffffffffff1611612942576040517f0aec2d6900000000000000000000000000000000000000000000000000000000815260040160405180910390fd5b826000015164ffffffffff1687828151811061296057612960614d31565b60200260200101516000018181525050826080015164ffffffffff1687828151811061298e5761298e614d31565b6020026020010151602001818152505082606001516dffffffffffffffffffffffffffff168782815181106129c5576129c5614d31565b602002602001015160400181815250508260a0015163ffffffff168782815181106129f2576129f2614d31565b602002602001015160600181815250506000878281518110612a1657612a16614d31565b6020026020010151608001906001600160a01b031690816001600160a01b031681525050604051806102200160405280846040015161ffff1681526020018460c0015161ffff16612710612a6a9190615d8a565b815260208c81015163ffffffff16908201526000604082018190526060820181905260016080830181905260a0830182905260c0830182905260e0830182905261010083018290526101208301829052610140830182905261016083018290526101808301526101a08201526001600160a01b038b166101c08201526101e0018990528751889083908110612b0157612b01614d31565b602002602001015160a00181905250806000148015612b275750825164ffffffffff1615155b8015612b3d575042836000015164ffffffffff16105b15612b4757600194505b85612b5284836131e2565b604051602001612b63929190615d9d565b60408051601f19818403018152919052835190965064ffffffffff1691506001016128d6565b5050505093509350939050565b602081810151516040805160808101825260008082529381018490529081018390526060810183905290915b82811015612cb55783602001518181518110612be057612be0614d31565b6020908102919091018101518551918101516040808301516060840151845192517f7b621d3a000000000000000000000000000000000000000000000000000000008152600481018c905262ffffff909416602485015263ffffffff91821660448501521660648301526001600160a01b039081166084830152919450911690637b621d3a9060a4016020604051808303816000875af1158015612c88573d6000803e3d6000fd5b505050506040513d601f19601f82011682018060405250810190612cac91906149ed565b50600101612bc2565b50509051600092835260208390526040909220805473ffffffffffffffffffffffffffffffffffffffff19166001600160a01b039093169290921790915550565b604080516001808252818301909252606091816020015b604080518082019091526000815260606020820152815260200190600190039081612d0d57505060408051600180825281830190925291925060009190602082015b6040805160c08101825260008082526020808301829052928201819052606082018190526080820181905260a08201528252600019909201910181612d4f5790505090506040518060c00160405280600015158152602001633b9aca00815260200160008152602001846001600160a01b031681526020016000815260200160006001600160a01b031681525081600081518110612def57612def614d31565b60200260200101819052506040518060400160405280600181526020018281525082600081518110612e2357612e23614d31565b602002602001018190525050919050565b606080820151516040805160e0810182526000808252602082018590529181018290529283018190526080830181905260a0830181905260c08301529060005b828110156127665783606001518181518110612e9257612e92614d31565b6020026020010151915060008260200151519050612ed36040518060600160405280600081526020016000815260200160006001600160a01b031681525090565b60005b828110156131285784602001518181518110612ef457612ef4614d31565b602002602001015191504682600001510361312057831580612f21575042856000015164ffffffffff1611155b1561304e57602082015160408084015190516363fdc96f60e11b8152600481018b905260248101929092526001600160a01b03908116604483015260a06064830152600060a4830181905260848301527f00000000000000000000000074688ef633bb1990e806b1f5f8f16e19aba22beb169063c7fb92de9060c4016020604051808303816000875af1158015612fbc573d6000803e3d6000fd5b505050506040513d601f19601f82011682018060405250810190612fe09190614e6c565b5060408201516001600160a01b0316612ff98542614d1e565b897f598baf7bf150ca2f42be9e9f8f55e81d45f5715c3ff22bf46d697fabec7f31d68560200151336040516130419291909182526001600160a01b0316602082015260400190565b60405180910390a4613120565b60208083015160008a8152600290925260408220909161306e8742614d1e565b8152602001908152602001600020600084604001516001600160a01b03166001600160a01b0316815260200190815260200160002060008282546130b29190614d1e565b909155505060408201516001600160a01b03166130cf8542614d1e565b897f9e83979117d75aa75fe101361cf46235d3d0a6fa7afafb275d2b9f8af02273138560200151336040516131179291909182526001600160a01b0316602082015260400190565b60405180910390a45b600101612ed6565b505050600101612e74565b6000366014336001600160a01b037f000000000000000000000000b2b5841dbef766d4b521221732f9b618fcf34a87161480156131705750808210155b156131a0576000366131828385615d8a565b61318d928290615dcc565b61319691615df6565b60601c9250505090565b339250505090565b602080820151825180518184015160609283015160405193956131cc959401615e29565b6040516020818303038152906040529050919050565b6060811580156131f85750825164ffffffffff16155b61320a57825164ffffffffff1661320c565b425b6040808501516060860151608087015160a088015160c0890151945161327d96959060200195865261ffff94851660208701526dffffffffffffffffffffffffffff93909316604086015264ffffffffff91909116606085015263ffffffff1660808401521660a082015260c00190565b60408051601f1981840301815291905260208401515190915060005b818110156132f357826132c8866020015183815181106132bb576132bb614d31565b60200260200101516132fb565b6040516020016132d9929190615d9d565b60408051601f198184030181529190529250600101613299565b505092915050565b60608160000151826040015183602001516040516020016131cc939291909283526001600160a01b03919091166020830152604082015260600190565b60006020828403121561334a57600080fd5b81356001600160e01b03198116811461336257600080fd5b9392505050565b6001600160a01b038116811461337e57600080fd5b50565b803561338c81613369565b919050565b6000806000806000608086880312156133a957600080fd5b85356133b481613369565b945060208601356133c481613369565b935060408601359250606086013567ffffffffffffffff808211156133e857600080fd5b818801915088601f8301126133fc57600080fd5b81358181111561340b57600080fd5b89602082850101111561341d57600080fd5b9699959850939650602001949392505050565b60006020828403121561344257600080fd5b5035919050565b60006020828403121561345b57600080fd5b813567ffffffffffffffff81111561347257600080fd5b8201610180818503121561336257600080fd5b60005b838110156134a0578181015183820152602001613488565b50506000910152565b600081518084526134c1816020860160208601613485565b601f01601f19169290920160200192915050565b600082825180855260208086019550808260051b84010181860160005b8481101561354957858303601f19018952815180516001600160a01b031684528481015185850152604090810151606091850182905290613535818601836134a9565b9a86019a94505050908301906001016134f2565b5090979650505050505050565b82815260406020820152600061356f60408301846134d5565b949350505050565b60006020828403121561358957600080fd5b813561336281613369565b6000806000606084860312156135a957600080fd5b833592506020840135915060408401356135c281613369565b809150509250925092565b60208152600061336260208301846134d5565b600080604083850312156135f357600080fd5b82359150602083013561360581613369565b809150509250929050565b634e487b7160e01b600052604160045260246000fd5b6040516060810167ffffffffffffffff8111828210171561364957613649613610565b60405290565b60405160e0810167ffffffffffffffff8111828210171561364957613649613610565b6040516080810167ffffffffffffffff8111828210171561364957613649613610565b6040805190810167ffffffffffffffff8111828210171561364957613649613610565b604051610180810167ffffffffffffffff8111828210171561364957613649613610565b604051610120810167ffffffffffffffff8111828210171561364957613649613610565b60405160a0810167ffffffffffffffff8111828210171561364957613649613610565b604051601f8201601f1916810167ffffffffffffffff8111828210171561374c5761374c613610565b604052919050565b600067ffffffffffffffff82111561376e5761376e613610565b50601f01601f191660200190565b600082601f83011261378d57600080fd5b81356137a061379b82613754565b613723565b8181528460208386010111156137b557600080fd5b816020850160208301376000918101602001919091529392505050565b803563ffffffff8116811461338c57600080fd5b600067ffffffffffffffff82111561380057613800613610565b5060051b60200190565b803564ffffffffff8116811461338c57600080fd5b600082601f83011261383057600080fd5b8135602061384061379b836137e6565b8281526060928302850182019282820191908785111561385f57600080fd5b8387015b858110156135495781818a03121561387b5760008081fd5b613883613626565b81358152858201358682015260408083013561389e81613369565b908201528452928401928101613863565b803561ffff8116811461338c57600080fd5b80356dffffffffffffffffffffffffffff8116811461338c57600080fd5b600082601f8301126138f057600080fd5b8135602061390061379b836137e6565b82815260059290921b8401810191818101908684111561391f57600080fd5b8286015b84811015613a0157803567ffffffffffffffff808211156139445760008081fd5b9088019060e0828b03601f190181131561395e5760008081fd5b61396661364f565b61397188850161380a565b8152604080850135848111156139875760008081fd5b6139958e8b8389010161381f565b8a84015250606093506139a98486016138af565b9082015260806139ba8582016138c1565b8483015260a093506139cd84860161380a565b9082015260c06139de8582016137d2565b848301526139ed8386016138af565b908201528652505050918301918301613923565b509695505050505050565b600060808284031215613a1e57600080fd5b613a26613672565b9050813567ffffffffffffffff80821115613a4057600080fd5b9083019060808286031215613a5457600080fd5b613a5c613672565b823582811115613a6b57600080fd5b613a778782860161377c565b825250602083013582811115613a8c57600080fd5b613a988782860161377c565b602083015250604083013582811115613ab057600080fd5b613abc8782860161377c565b604083015250606083810135908201528352613ada602085016137d2565b6020840152613aeb60408501613381565b60408401526060840135915080821115613b0457600080fd5b50613b11848285016138df565b60608301525092915050565b600082601f830112613b2e57600080fd5b81356020613b3e61379b836137e6565b8083825260208201915060208460051b870101935086841115613b6057600080fd5b602086015b84811015613a01578035613b7881613369565b8352918301918301613b65565b600082601f830112613b9657600080fd5b81356020613ba661379b836137e6565b82815260059290921b84018101918181019086841115613bc557600080fd5b8286015b84811015613a0157803567ffffffffffffffff80821115613bea5760008081fd5b908801906040828b03601f1901811315613c045760008081fd5b613c0c613695565b87840135613c1981613369565b8152908301359082821115613c2e5760008081fd5b613c3c8c8984870101613b1d565b818901528652505050918301918301613bc9565b803562ffffff8116811461338c57600080fd5b60006040808385031215613c7657600080fd5b613c7e613695565b91508235613c8b81613369565b825260208381013567ffffffffffffffff811115613ca857600080fd5b8401601f81018613613cb957600080fd5b8035613cc761379b826137e6565b81815260079190911b82018301908381019088831115613ce657600080fd5b928401925b82841015613d5a576080848a031215613d045760008081fd5b613d0c613672565b8435613d1781613369565b8152613d24858701613c50565b86820152613d338786016137d2565b878201526060613d448187016137d2565b9082015282526080939093019290840190613ceb565b808588015250505050505092915050565b600060408284031215613d7d57600080fd5b613d85613695565b905067ffffffffffffffff8083351115613d9e57600080fd5b8235830184601f820112613db157600080fd5b613dbe61379b82356137e6565b81358082526020808301929160051b84010187811115613ddd57600080fd5b602084015b81811015613f22578581351115613df857600080fd5b803585016040818b03601f19011215613e1057600080fd5b613e18613695565b613e256020830135613369565b602082013581528760408301351115613e3d57600080fd5b6040820135820191508a603f830112613e5557600080fd5b6020820135613e6661379b826137e6565b81815260079190911b83016040019060208101908d831115613e8757600080fd5b6040850194505b82851015613f03576080858f031215613ea657600080fd5b613eae613672565b613eb88635613369565b85358152613ec8602087016137d2565b6020820152613eda6040870135613369565b604086013560408201526060860135606082015280835250602082019150608085019450613e8e565b8060208501525050508086525050602084019350602081019050613de2565b5050808552505050506020820135602082015292915050565b600080600080600060a08688031215613f5357600080fd5b85359450602086013567ffffffffffffffff80821115613f7257600080fd5b613f7e89838a01613a0c565b95506040880135915080821115613f9457600080fd5b613fa089838a01613b85565b94506060880135915080821115613fb657600080fd5b613fc289838a01613c63565b93506080880135915080821115613fd857600080fd5b50613fe588828901613d6b565b9150509295509295909350565b600082601f83011261400357600080fd5b8135602061401361379b836137e6565b82815260059290921b8401810191818101908684111561403257600080fd5b8286015b84811015613a0157803567ffffffffffffffff808211156140575760008081fd5b908801906060828b03601f19018113156140715760008081fd5b614079613626565b8784013561408681613369565b8152604084810135898301529184013591838311156140a55760008081fd5b6140b38d8a8588010161377c565b908201528652505050918301918301614036565b600080600080600080600060e0888a0312156140e257600080fd5b87359650602088013567ffffffffffffffff8082111561410157600080fd5b61410d8b838c01613a0c565b975060408a013591508082111561412357600080fd5b61412f8b838c01613b85565b965060608a013591508082111561414557600080fd5b6141518b838c01613c63565b955060808a013591508082111561416757600080fd5b6141738b838c01613d6b565b945060a08a013591508082111561418957600080fd5b506141968a828b01613ff2565b9250506141a560c089016138af565b905092959891949750929550565b80356cffffffffffffffffffffffffff8116811461338c57600080fd5b801515811461337e57600080fd5b803561338c816141d0565b803560ff8116811461338c57600080fd5b6000608080838503121561420d57600080fd5b614215613672565b9150823567ffffffffffffffff81111561422e57600080fd5b8301601f8101851361423f57600080fd5b8035602061424f61379b836137e6565b828152610180928302840182019282820191908985111561426f57600080fd5b948301945b848610156143625780868b03121561428c5760008081fd5b6142946136b8565b61429d876141b3565b81526142aa8588016137d2565b8582015260406142bb8189016137d2565b9082015260606142cc8882016138af565b908201526142db878901613381565b8189015260a0878101359082015260c06142f6818901613c50565b9082015260e06143078882016141de565b908201526101006143198882016141de565b9082015261012061432b8882016141de565b9082015261014061433d8882016141de565b9082015261016061434f8882016141de565b9082015283529485019491830191614274565b508652506143718682016137d2565b8186015250505050614385604083016141e9565b604082015261439660608301613381565b606082015292915050565b6000608082840312156143b357600080fd5b6143bb613672565b905081356143c8816141d0565b815260208201356143d8816141d0565b602082015260408201356143eb816141d0565b60408201526060820135614396816141d0565b60006080828403121561441057600080fd5b614418613672565b9050813567ffffffffffffffff8082111561443257600080fd5b90830190610180828603121561444757600080fd5b61444f6136dc565b82358281111561445e57600080fd5b61446a8782860161377c565b82525060208301358281111561447f57600080fd5b61448b8782860161377c565b60208301525061449d60408401613381565b60408201526060830135828111156144b457600080fd5b6144c08782860161377c565b6060830152506144d260808401613381565b608082015260a0830135828111156144e957600080fd5b6144f58782860161377c565b60a08301525060c08301358281111561450d57600080fd5b614519878286016141fa565b60c08301525061452b60e08401613381565b60e08201526101009150614541868385016143a1565b82820152808452505050614557602083016141de565b6020820152614568604083016141de565b6040820152614396606083016141de565b600080600080600080600080610100898b03121561459657600080fd5b88359750602089013567ffffffffffffffff808211156145b557600080fd5b6145c18c838d01613a0c565b985060408b01359150808211156145d757600080fd5b6145e38c838d01613b85565b975060608b01359150808211156145f957600080fd5b6146058c838d01613c63565b965060808b013591508082111561461b57600080fd5b6146278c838d01613d6b565b955060a08b013591508082111561463d57600080fd5b6146498c838d016143fe565b945060c08b013591508082111561465f57600080fd5b5061466c8b828c01613ff2565b92505061467b60e08a016138af565b90509295985092959890939650565b60006020828403121561469c57600080fd5b813567ffffffffffffffff8111156146b357600080fd5b82016101a0818503121561336257600080fd5b60006080820186835260208681850152604086604086015260606080606087015283875180865260a08801915060a08160051b890101955084890160005b8281101561475457898803609f19018452815180516001600160a01b0316895287810151888a0152860151868901869052614741868a01826134a9565b9850509286019290860190600101614704565b50959c9b505050505050505050505050565b60008060006060848603121561477b57600080fd5b83359250602084013567ffffffffffffffff8082111561479a57600080fd5b6147a68783880161377c565b935060408601359150808211156147bc57600080fd5b506147c986828701613d6b565b9150509250925092565b600082601f8301126147e457600080fd5b813560206147f461379b836137e6565b82815260059290921b8401810191818101908684111561481357600080fd5b8286015b84811015613a0157803567ffffffffffffffff808211156148385760008081fd5b9088019060a0828b03601f19018113156148525760008081fd5b61485a613700565b878401358152604080850135898301526060808601358284015260809150818601358184015250828501359250838311156148955760008081fd5b6148a38d8a85880101613b1d565b908201528652505050918301918301614817565b60008060008060008060008060006101208a8c0312156148d657600080fd5b8935985060208a013567ffffffffffffffff808211156148f557600080fd5b6149018d838e01613a0c565b995060408c013591508082111561491757600080fd5b6149238d838e01613b85565b985060608c013591508082111561493957600080fd5b6149458d838e01613c63565b975060808c013591508082111561495b57600080fd5b6149678d838e01613d6b565b965060a08c013591508082111561497d57600080fd5b6149898d838e016143fe565b955060c08c013591508082111561499f57600080fd5b6149ab8d838e01613ff2565b94506149b960e08d016138af565b93506101008c01359150808211156149d057600080fd5b506149dd8c828d016147d3565b9150509295985092959850929598565b6000602082840312156149ff57600080fd5b815161336281613369565b8035614a1581613369565b6001600160a01b031682526020818101359083015260408082013590830152606090810135910152565b6000808335601e19843603018112614a5657600080fd5b830160208101925035905067ffffffffffffffff811115614a7657600080fd5b803603821315614a8557600080fd5b9250929050565b81835281816020850137506000828201602090810191909152601f909101601f19169091010190565b60208152614ad660208201614ac984613381565b6001600160a01b03169052565b6000614ae460208401613381565b6001600160a01b038116604084015250614b046060830160408501614a0a565b60c083013560e083015261010060e084013581840152614b25818501613381565b9050610120614b3e818501836001600160a01b03169052565b61014091508085013582850152506101608185013581850152614b6381860186614a3f565b6101808681015292509050614b7d6101a085018383614a8c565b95945050505050565b6000806040808486031215614b9a57600080fd5b8351925060208085015167ffffffffffffffff80821115614bba57600080fd5b818701915087601f830112614bce57600080fd5b8151614bdc61379b826137e6565b81815260059190911b8301840190848101908a831115614bfb57600080fd5b8585015b83811015614cbc57805185811115614c1657600080fd5b86016060818e03601f19011215614c2d5760008081fd5b614c35613626565b88820151614c4281613369565b8152818a015189820152606082015187811115614c5f5760008081fd5b8083019250508d603f830112614c755760008081fd5b88820151614c8561379b82613754565b8181528f8c838601011115614c9a5760008081fd5b614ca9828c83018e8701613485565b828c015250845250918601918601614bff565b50809750505050505050509250929050565b600181811c90821680614ce257607f821691505b602082108103614d0257634e487b7160e01b600052602260045260246000fd5b50919050565b634e487b7160e01b600052601160045260246000fd5b808201808211156104fc576104fc614d08565b634e487b7160e01b600052603260045260246000fd5b60006020808385031215614d5a57600080fd5b825167ffffffffffffffff811115614d7157600080fd5b8301601f81018513614d8257600080fd5b8051614d9061379b826137e6565b81815260059190911b82018301908381019087831115614daf57600080fd5b928401925b82841015614dd6578351614dc781613369565b82529284019290840190614db4565b979650505050505050565b805161338c81613369565b60006101208284031215614dff57600080fd5b614e076136dc565b825181526020830151602082015260408301516040820152606083015160608201526080830151608082015260a083015160a082015260c083015160c0820152614e5360e08401614de1565b60e0820152610100928301519281019290925250919050565b600060208284031215614e7e57600080fd5b5051919050565b601f821115614ed1576000816000526020600020601f850160051c81016020861015614eae5750805b601f850160051c820191505b81811015614ecd57828155600101614eba565b5050505b505050565b815167ffffffffffffffff811115614ef057614ef0613610565b614f0481614efe8454614cce565b84614e85565b602080601f831160018114614f395760008415614f215750858301515b600019600386901b1c1916600185901b178555614ecd565b600085815260208120601f198616915b82811015614f6857888601518255948401946001909101908401614f49565b5085821015614f865787850151600019600388901b60f8161c191681555b5050505050600190811b01905550565b604081526000614fa960408301856134d5565b90506001600160a01b03831660208301529392505050565b80516080808452815184820181905260009260a0916020918201918388019190865b828110156150a657845180516cffffffffffffffffffffffffff1685528281015163ffffffff908116848701526040808301519091169086015260608082015161ffff1690860152878101516001600160a01b031688860152868101518786015260c08082015162ffffff169086015260e080820151151590860152610100808201511515908601526101208082015115159086015261014080820151151590860152610160908101511515908501529381019361018090930192600101614fe3565b508781015163ffffffff16908901525060408087015160ff16908801526060808701516001600160a01b038116918901919091529350610e05565b828152604060208201526000825161018060408401526151056101c08401826134a9565b90506020840151603f198085840301606086015261512383836134a9565b92506040860151915061514160808601836001600160a01b03169052565b60608601519150808584030160a086015261515c83836134a9565b92506080860151915061517a60c08601836001600160a01b03169052565b60a08601519150808584030160e086015261519583836134a9565b925060c086015191506101008186850301818701526151b48484614fc1565b935060e087015192506151d36101208701846001600160a01b03169052565b860151805115156101408701526020810151151561016087015260408101511515610180870152606081015115156101a087015291506152109050565b50949350505050565b60006020828403121561522b57600080fd5b8151613362816141d0565b60008151808452602080850194506020840160005b838110156152675781518752958201959082019060010161524b565b509495945050505050565b60006001600160a01b03808916835280881660208401525085604083015260c060608301526152a460c0830186615236565b93151560808301525090151560a090910152949350505050565b6bffffffffffffffffffffffff198460601b168152600083516152e8816014850160208801613485565b60149201918201929092526034019392505050565b600082825180855260208086019550808260051b8401018186016000805b858110156153ba57868403601f19018a52825180516001600160a01b03908116865290860151604087870181905281518188018190529188019290916060919082890190875b818110156153a25786518051851684528c81015163ffffffff168d8501528681015185168785015285015185840152958b0195608090920191600101615361565b50509d89019d9750505093860193505060010161531b565b509198975050505050505050565b838152826020820152606060408201526000614b7d60608301846152fd565b60008151604084526153fc60408501826152fd565b602093840151949093019390935250919050565b60608152600061542360608301866134a9565b828103602084015261543581866153e7565b9150506001600160a01b0383166040830152949350505050565b60006001600160a01b038085168352604060208401528084511660408401525060208301516060830152604083015160606080840152614b7d60a0840182615236565b7f24000000000000000000000000000000000000000000000000000000000000008152600082516154ca816001850160208701613485565b7f207265766e6574206465706c6f796564000000000000000000000000000000006001939091019283015250601101919050565b8051825260208101516020830152604081015160408301526060810151615529606084018215159052565b50608081015161553d608084018215159052565b5060a081015161555160a084018215159052565b5060c081015161556560c084018215159052565b5060e081015161557960e084018215159052565b5061010081810151151590830152610120808201511515908301526101408082015115159083015261016080820151151590830152610180808201511515908301526101a0808201511515908301526101c0808201511515908301526101e0808201516001600160a01b03169083015261020090810151910152565b600082825180855260208086019550808260051b8401018186016000805b858110156153ba57868403601f19018a52825180518552850151604086860181905281518187018190529187019160609081880190865b818110156156a45785518051151584528b8101518c8501528581015186850152848101516001600160a01b03908116868601526080808301519086015260a0918201511690840152948a019460c09092019160010161564a565b50509c88019c965050509285019250600101615613565b60008151808452602080850194506020840160005b838110156152675781518051885283015183880152604090960195908201906001016156d0565b600082825180855260208086019550808260051b84010181860160005b8481101561354957601f19868403018952815160806001600160a01b0380835116865280878401511687870152506040808301518282880152615759838801826156bb565b925050506060808301519250858203818701525061577781836156bb565b9a86019a9450505090830190600101615714565b600082825180855260208086019550808260051b84010181860160005b8481101561354957858303601f19018952815180518452848101518585015260408082015190850152606080820151908501526080808201516001600160a01b03169085015260a0808201516103009190615805828801826154fe565b505060c0820151816102c087015261581f828701826155f5565b91505060e082015191508481036102e086015261583c81836156f7565b9a86019a94505050908301906001016157a8565b60008151808452602080850194506020840160005b838110156152675781516001600160a01b031687529582019590820190600101615865565b600082825180855260208086019550808260051b84010181860160005b8481101561354957858303601f19018952815180516001600160a01b0316845284015160408585018190526158de81860183615850565b9a86019a94505050908301906001016158a7565b6001600160a01b038616815260a06020820152600061591460a08301876134a9565b8281036040840152615926818761578b565b9050828103606084015261593a818661588a565b9050828103608084015261594e81856134a9565b98975050505050505050565b848152608060208201526000615973608083018661578b565b8281036040840152615985818661588a565b90508281036060840152614dd681856134a9565b8481526080602082015260006159b260808301866134a9565b82810360408401526159c481866134a9565b91505082606083015295945050505050565b838152826020820152606060408201526000614b7d60608301846155f5565b600082825180855260208086019550808260051b8401018186016000805b858110156153ba57868403601f19018a528251805164ffffffffff1685528581015160e0878701819052815190870181905261010087019188019085905b80821015615a90578251805185528a8101518b8601526040908101516001600160a01b0316908501526060909301929189019160019190910190615a51565b50505060408281015161ffff908116918801919091526060808401516dffffffffffffffffffffffffffff169088015260808084015164ffffffffff169088015260a08084015163ffffffff169088015260c0928301511691909501529884019891840191600101615a13565b600060408084016001600160a01b038085511686526020808601516040828901528381518086526060955060608a019150838301925060005b81811015615b7e5783518051871684528581015162ffffff16868501528881015163ffffffff9081168a86015290880151168784015292840192608090920191600101615b36565b50909998505050505050505050565b60006101008083528a51608082850152805191506080610180850152615bb76102008501836134a9565b9150602081015161017f1980868503016101a0870152615bd784836134a9565b93506040830151915080868503016101c087015250615bf683826134a9565b92505060608101516101e08501525060208b0151615c1d61012085018263ffffffff169052565b5060408b01516001600160a01b031661014084015260608b015183820360ff1901610160850152615c4e82826159f5565b9150508281036020840152615c63818b61588a565b90508281036040840152615c77818a615afd565b90508281036060840152615c8b81896153e7565b90508281036080840152615c9f818861578b565b905082810360a0840152615cb381876134a9565b915050615cc460c083018515159052565b6001600160a01b03831660e08301529998505050505050505050565b600060208083018184528085518083526040925060408601915060408160051b87010184880160005b83811015615d7c57888303603f19018552815180516001600160a01b0316845287810151888501528681015187850152606080820151908501526080808201519085015260a09081015160c091850182905290615d6881860183615850565b968901969450505090860190600101615d09565b509098975050505050505050565b818103818111156104fc576104fc614d08565b60008351615daf818460208801613485565b835190830190615dc3818360208801613485565b01949350505050565b60008085851115615ddc57600080fd5b83861115615de957600080fd5b5050820193919092039150565b6bffffffffffffffffffffffff1981358181169160148510156132f35760149490940360031b84901b1690921692915050565b63ffffffff851681526080602082015260006159b260808301866134a956fea2646970667358221220609c69f976df6a91ee0a1e09170ddc9b38217ff28ab89806921a7443ea6caf2164736f6c63430008170033",
	"devdoc": {
		"kind": "dev",
		"methods": {
			"beforePayRecordedWith((address,address,(address,uint256,uint256,uint256),uint256,uint256,address,uint256,uint256,bytes))": {
				"details": "Part of IJBFundingCycleDataSource.This implementation just sets this contract up to receive a `didPay` call.",
				"params": {
					"context": "The Juicebox standard network payment context. See"
				},
				"returns": {
					"hookSpecifications": "Amount to be sent to pay hooks instead of adding to local balance. Useful for auto-routing funds from a treasury as payment come in.",
					"weight": "The weight that network tokens should get minted relative to. This is useful for optionally customizing how many tokens are issued per payment."
				}
			},
			"constructor": {
				"params": {
					"controller": "The controller that revnets are made from.",
					"hookDeployer": "The 721 tiers hook deployer.",
					"publisher": "The croptop publisher that facilitates the permissioned publishing of 721 posts to a revnet.",
					"suckerRegistry": "The registry that deploys and tracks each project's suckers.",
					"trustedForwarder": "The trusted forwarder for the ERC2771Context."
				}
			},
			"deploySuckersFor(uint256,bytes,((address,(address,uint32,address,uint256)[])[],bytes32))": {
				"params": {
					"encodedConfiguration": "A bytes representation of the revnet's configuration.",
					"revnetId": "The ID of the revnet having new suckers deployed.",
					"suckerDeploymentConfiguration": "The specifics about the suckers being deployed."
				}
			},
			"hasMintPermissionFor(uint256,address)": {
				"params": {
					"addr": "The address to check if has permissions.",
					"revnetId": "The ID of the revnet to check permissions for."
				},
				"returns": {
					"_0": "flag The flag indicating if the address has permissions to mint on the revnet's behalf."
				}
			},
			"isTrustedForwarder(address)": {
				"details": "Indicates whether any particular address is the trusted forwarder."
			},
			"launchCroptopRevnetFor(uint256,((string,string,string,bytes32),uint32,address,(uint40,(uint256,uint256,address)[],uint16,uint112,uint40,uint32,uint16)[]),(address,address[])[],(address,(address,uint24,uint32,uint32)[]),((address,(address,uint32,address,uint256)[])[],bytes32),((string,string,address,string,address,string,((uint104,uint32,uint32,uint16,address,bytes32,uint24,bool,bool,bool,bool,bool)[],uint32,uint8,address),address,(bool,bool,bool,bool)),bool,bool,bool),(address,uint256,bytes)[],uint16,(uint256,uint256,uint256,uint256,address[])[])": {
				"params": {
					"allowedPosts": "The type of posts that the revent should allow.",
					"buybackHookConfiguration": "Data used for setting up the buyback hook to use when determining the best price for new participants.",
					"configuration": "The data needed to deploy a basic revnet.",
					"extraHookMetadata": "Extra metadata to attach to the cycle for the delegates to use.",
					"hookConfiguration": "Data used for setting up the 721 tiers.",
					"otherPayHooksSpecifications": "Any hooks that should run when the revnet is paid alongside the 721 hook.",
					"revnetId": "The ID of the Juicebox project to turn into a revnet. Send 0 to deploy a new revnet.",
					"suckerDeploymentConfiguration": "Information about how this revnet relates to other's across chains.",
					"terminalConfigurations": "The terminals that the network uses to accept payments through."
				},
				"returns": {
					"_0": "revnetId The ID of the newly created revnet.",
					"hook": "The address of the 721 hook that was deployed on the revnet."
				}
			},
			"launchPayHookRevnetFor(uint256,((string,string,string,bytes32),uint32,address,(uint40,(uint256,uint256,address)[],uint16,uint112,uint40,uint32,uint16)[]),(address,address[])[],(address,(address,uint24,uint32,uint32)[]),((address,(address,uint32,address,uint256)[])[],bytes32),(address,uint256,bytes)[],uint16)": {
				"params": {
					"buybackHookConfiguration": "Data used for setting up the buyback hook to use when determining the best price for new participants.",
					"configuration": "The data needed to deploy a basic revnet.",
					"extraHookMetadata": "Extra metadata to attach to the cycle for the delegates to use.",
					"payHookSpecifications": "Any hooks that should run when the revnet is paid.",
					"revnetId": "The ID of the Juicebox project to turn into a revnet. Send 0 to deploy a new revnet.",
					"suckerDeploymentConfiguration": "Information about how this revnet relates to other's across chains.",
					"terminalConfigurations": "The terminals that the network uses to accept payments through."
				},
				"returns": {
					"_0": "revnetId The ID of the newly created revnet."
				}
			},
			"launchRevnetFor(uint256,((string,string,string,bytes32),uint32,address,(uint40,(uint256,uint256,address)[],uint16,uint112,uint40,uint32,uint16)[]),(address,address[])[],(address,(address,uint24,uint32,uint32)[]),((address,(address,uint32,address,uint256)[])[],bytes32))": {
				"params": {
					"buybackHookConfiguration": "Data used for setting up the buyback hook to use when determining the best price for new participants.",
					"configuration": "The data needed to deploy a basic revnet.",
					"revnetId": "The ID of the Juicebox project to turn into a revnet. Send 0 to deploy a new revnet.",
					"suckerDeploymentConfiguration": "Information about how this revnet relates to other's across chains.",
					"terminalConfigurations": "The terminals that the network uses to accept payments through."
				},
				"returns": {
					"_0": "revnetId The ID of the newly created revnet."
				}
			},
			"launchTiered721RevnetFor(uint256,((string,string,string,bytes32),uint32,address,(uint40,(uint256,uint256,address)[],uint16,uint112,uint40,uint32,uint16)[]),(address,address[])[],(address,(address,uint24,uint32,uint32)[]),((address,(address,uint32,address,uint256)[])[],bytes32),((string,string,address,string,address,string,((uint104,uint32,uint32,uint16,address,bytes32,uint24,bool,bool,bool,bool,bool)[],uint32,uint8,address),address,(bool,bool,bool,bool)),bool,bool,bool),(address,uint256,bytes)[],uint16)": {
				"params": {
					"buybackHookConfiguration": "Data used for setting up the buyback hook to use when determining the best price for new participants.",
					"configuration": "The data needed to deploy a basic revnet.",
					"extraHookMetadata": "Extra metadata to attach to the cycle for the delegates to use.",
					"hookConfiguration": "Data used for setting up the 721 tiers.",
					"otherPayHooksSpecifications": "Any hooks that should run when the revnet is paid alongside the 721 hook.",
					"revnetId": "The ID of the Juicebox project to turn into a revnet. Send 0 to deploy a new revnet.",
					"suckerDeploymentConfiguration": "Information about how this revnet relates to other's across chains.",
					"terminalConfigurations": "The terminals that the network uses to accept payments through."
				},
				"returns": {
					"_0": "revnetId The ID of the newly created revnet.",
					"hook": "The address of the 721 hook that was deployed on the revnet."
				}
			},
			"mintFor(uint256,uint256,address)": {
				"params": {
					"beneficiary": "The address to mint tokens to.",
					"revnetId": "The ID of the revnet to mint tokens from.",
					"stageId": "The ID of the stage to mint tokens from."
				}
			},
			"onERC721Received(address,address,uint256,bytes)": {
				"details": "Make sure only mints can be received."
			},
			"payHookSpecificationsOf(uint256)": {
				"params": {
					"revnetId": "The ID of the revnet to which the extensions apply."
				},
				"returns": {
					"_0": "payHookSpecifications The pay hooks."
				}
			},
			"replaceSplitOperatorOf(uint256,address)": {
				"params": {
					"newSplitOperator": "The address of the new split operator.",
					"revnetId": "The ID of the revnet having its operator replaced."
				}
			},
			"supportsInterface(bytes4)": {
				"details": "See {IERC165-supportsInterface}.",
				"params": {
					"interfaceId": "The ID of the interface to check for adherence to."
				},
				"returns": {
					"_0": "A flag indicating if the provided interface ID is supported."
				}
			},
			"trustedForwarder()": {
				"details": "Returns the address of the trusted forwarder."
			}
		},
		"version": 1
	},
	"userdoc": {
		"kind": "user",
		"methods": {
			"CONTROLLER()": {
				"notice": "The controller that networks are made from."
			},
			"EXIT_DELAY()": {
				"notice": "The amount of time from a sucker being deployed to when it can facilitate exits."
			},
			"HOOK_DEPLOYER()": {
				"notice": "The contract responsible for deploying the tiered 721 hook."
			},
			"PUBLISHER()": {
				"notice": "The croptop publisher that facilitates the permissioned publishing of 721 posts to a revnet."
			},
			"SUCKER_REGISTRY()": {
				"notice": "The registry that deploys and tracks each project's suckers."
			},
			"allowedMintCountOf(uint256,uint256,address)": {
				"notice": "The specification of how many tokens are still allowed to be minted at each stage of a revnet."
			},
			"beforePayRecordedWith((address,address,(address,uint256,uint256,uint256),uint256,uint256,address,uint256,uint256,bytes))": {
				"notice": "This function gets called when the revnet receives a payment."
			},
			"beforeRedeemRecordedWith((address,address,uint256,uint256,uint256,uint256,(address,uint256,uint256,uint256),bool,uint256,bytes))": {
				"notice": "This function is never called, it needs to be included to adhere to the interface."
			},
			"buybackHookOf(uint256)": {
				"notice": "The data hook that returns the correct values for the buyback hook of each network."
			},
			"deploySuckersFor(uint256,bytes,((address,(address,uint32,address,uint256)[])[],bytes32))": {
				"notice": "Allows a revnet's split operator to deploy new suckers to the revnet after it's deployed."
			},
			"exitDelayOf(uint256)": {
				"notice": "The time at which exits from a revnet become allowed."
			},
			"hasMintPermissionFor(uint256,address)": {
				"notice": "Required by the IJBRulesetDataHook interfaces."
			},
			"launchCroptopRevnetFor(uint256,((string,string,string,bytes32),uint32,address,(uint40,(uint256,uint256,address)[],uint16,uint112,uint40,uint32,uint16)[]),(address,address[])[],(address,(address,uint24,uint32,uint32)[]),((address,(address,uint32,address,uint256)[])[],bytes32),((string,string,address,string,address,string,((uint104,uint32,uint32,uint16,address,bytes32,uint24,bool,bool,bool,bool,bool)[],uint32,uint8,address),address,(bool,bool,bool,bool)),bool,bool,bool),(address,uint256,bytes)[],uint16,(uint256,uint256,uint256,uint256,address[])[])": {
				"notice": "Launch a revnet that supports 721 sales."
			},
			"launchPayHookRevnetFor(uint256,((string,string,string,bytes32),uint32,address,(uint40,(uint256,uint256,address)[],uint16,uint112,uint40,uint32,uint16)[]),(address,address[])[],(address,(address,uint24,uint32,uint32)[]),((address,(address,uint32,address,uint256)[])[],bytes32),(address,uint256,bytes)[],uint16)": {
				"notice": "Launch a basic revnet that also calls other specified pay hooks."
			},
			"launchRevnetFor(uint256,((string,string,string,bytes32),uint32,address,(uint40,(uint256,uint256,address)[],uint16,uint112,uint40,uint32,uint16)[]),(address,address[])[],(address,(address,uint24,uint32,uint32)[]),((address,(address,uint32,address,uint256)[])[],bytes32))": {
				"notice": "Launch a basic revnet."
			},
			"launchTiered721RevnetFor(uint256,((string,string,string,bytes32),uint32,address,(uint40,(uint256,uint256,address)[],uint16,uint112,uint40,uint32,uint16)[]),(address,address[])[],(address,(address,uint24,uint32,uint32)[]),((address,(address,uint32,address,uint256)[])[],bytes32),((string,string,address,string,address,string,((uint104,uint32,uint32,uint16,address,bytes32,uint24,bool,bool,bool,bool,bool)[],uint32,uint8,address),address,(bool,bool,bool,bool)),bool,bool,bool),(address,uint256,bytes)[],uint16)": {
				"notice": "Launch a revnet that supports 721 sales."
			},
			"mintFor(uint256,uint256,address)": {
				"notice": "Mint tokens from a revnet to a specified beneficiary according to the rules set for the revnet."
			},
			"payHookSpecificationsOf(uint256)": {
				"notice": "The pay hooks to include during payments to networks."
			},
			"replaceSplitOperatorOf(uint256,address)": {
				"notice": "A revnet's operator can replace itself."
			},
			"supportsInterface(bytes4)": {
				"notice": "Indicates if this contract adheres to the specified interface."
			}
		},
		"version": 1
	},
	"gitCommit": "bbb745e3f3e4cefa7f92fc801c0c6de226372a82",
	"sourceName": "src/REVCroptopDeployer.sol",
	"chainId": "11155420",
	"linkReferences": {},
	"deployedLinkReferences": {},
	"history": []
}