{
  "abi": [
    {
      "inputs": [
        {
          "internalType": "contract IJBDirectory",
          "name": "_directory",
          "type": "address"
        },
        {
          "internalType": "contract IJBTiered721DelegateDeployer",
          "name": "_tiered721HookDeployer",
          "type": "address"
        },
        {
          "internalType": "contract IJBController3_1",
          "name": "_controller",
          "type": "address"
        }
      ],
      "stateMutability": "nonpayable",
      "type": "constructor"
    },
    {
      "inputs": [],
      "name": "BAD_BOOST_SEQUENCE",
      "type": "error"
    },
    {
      "inputs": [],
      "name": "RECONFIGURATION_ALREADY_SCHEDULED",
      "type": "error"
    },
    {
      "inputs": [],
      "name": "RECONFIGURATION_NOT_POSSIBLE",
      "type": "error"
    },
    {
      "inputs": [],
      "name": "UNAUTHORIZED",
      "type": "error"
    },
    {
      "inputs": [
        {
          "internalType": "uint256",
          "name": "",
          "type": "uint256"
        }
      ],
      "name": "boostOperatorPermissionIndexes",
      "outputs": [
        {
          "internalType": "uint256",
          "name": "",
          "type": "uint256"
        }
      ],
      "stateMutability": "view",
      "type": "function"
    },
    {
      "inputs": [
        {
          "internalType": "uint256",
          "name": "_revnetId",
          "type": "uint256"
        }
      ],
      "name": "boostsOf",
      "outputs": [
        {
          "components": [
            {
              "internalType": "uint128",
              "name": "rate",
              "type": "uint128"
            },
            {
              "internalType": "uint128",
              "name": "startsAtOrAfter",
              "type": "uint128"
            }
          ],
          "internalType": "struct Boost[]",
          "name": "",
          "type": "tuple[]"
        }
      ],
      "stateMutability": "view",
      "type": "function"
    },
    {
      "inputs": [
        {
          "internalType": "uint256",
          "name": "",
          "type": "uint256"
        }
      ],
      "name": "buybackHookOf",
      "outputs": [
        {
          "internalType": "contract IJBGenericBuybackDelegate",
          "name": "",
          "type": "address"
        }
      ],
      "stateMutability": "view",
      "type": "function"
    },
    {
      "inputs": [
        {
          "internalType": "uint256",
          "name": "",
          "type": "uint256"
        }
      ],
      "name": "buybackHookPermissionIndexes",
      "outputs": [
        {
          "internalType": "uint256",
          "name": "",
          "type": "uint256"
        }
      ],
      "stateMutability": "view",
      "type": "function"
    },
    {
      "inputs": [],
      "name": "controller",
      "outputs": [
        {
          "internalType": "contract IJBController3_1",
          "name": "",
          "type": "address"
        }
      ],
      "stateMutability": "view",
      "type": "function"
    },
    {
      "inputs": [
        {
          "internalType": "uint256",
          "name": "_revnetId",
          "type": "uint256"
        }
      ],
      "name": "currentBoostNumberOf",
      "outputs": [
        {
          "internalType": "uint256",
          "name": "",
          "type": "uint256"
        }
      ],
      "stateMutability": "view",
      "type": "function"
    },
    {
      "inputs": [
        {
          "internalType": "address",
          "name": "_boostOperator",
          "type": "address"
        },
        {
          "components": [
            {
              "internalType": "string",
              "name": "content",
              "type": "string"
            },
            {
              "internalType": "uint256",
              "name": "domain",
              "type": "uint256"
            }
          ],
          "internalType": "struct JBProjectMetadata",
          "name": "_revnetMetadata",
          "type": "tuple"
        },
        {
          "internalType": "string",
          "name": "_name",
          "type": "string"
        },
        {
          "internalType": "string",
          "name": "_symbol",
          "type": "string"
        },
        {
          "components": [
            {
              "internalType": "uint256",
              "name": "initialIssuanceRate",
              "type": "uint256"
            },
            {
              "internalType": "uint256",
              "name": "premintTokenAmount",
              "type": "uint256"
            },
            {
              "internalType": "uint256",
              "name": "priceCeilingIncreaseFrequency",
              "type": "uint256"
            },
            {
              "internalType": "uint256",
              "name": "priceCeilingIncreasePercentage",
              "type": "uint256"
            },
            {
              "internalType": "uint256",
              "name": "priceFloorTaxIntensity",
              "type": "uint256"
            },
            {
              "components": [
                {
                  "internalType": "uint128",
                  "name": "rate",
                  "type": "uint128"
                },
                {
                  "internalType": "uint128",
                  "name": "startsAtOrAfter",
                  "type": "uint128"
                }
              ],
              "internalType": "struct Boost[]",
              "name": "boosts",
              "type": "tuple[]"
            }
          ],
          "internalType": "struct RevnetParams",
          "name": "_revnetData",
          "type": "tuple"
        },
        {
          "internalType": "contract IJBPaymentTerminal[]",
          "name": "_terminals",
          "type": "address[]"
        },
        {
          "components": [
            {
              "internalType": "contract IJBGenericBuybackDelegate",
              "name": "hook",
              "type": "address"
            },
            {
              "components": [
                {
                  "internalType": "address",
                  "name": "token",
                  "type": "address"
                },
                {
                  "internalType": "uint24",
                  "name": "fee",
                  "type": "uint24"
                },
                {
                  "internalType": "uint32",
                  "name": "twapWindow",
                  "type": "uint32"
                },
                {
                  "internalType": "uint32",
                  "name": "twapSlippageTolerance",
                  "type": "uint32"
                }
              ],
              "internalType": "struct BuybackPool[]",
              "name": "pools",
              "type": "tuple[]"
            }
          ],
          "internalType": "struct BuybackHookSetupData",
          "name": "_buybackHookSetupData",
          "type": "tuple"
        },
        {
          "components": [
            {
              "internalType": "contract IJBPayDelegate3_1_1",
              "name": "delegate",
              "type": "address"
            },
            {
              "internalType": "uint256",
              "name": "amount",
              "type": "uint256"
            },
            {
              "internalType": "bytes",
              "name": "metadata",
              "type": "bytes"
            }
          ],
          "internalType": "struct JBPayDelegateAllocation3_1_1[]",
          "name": "_payHooks",
          "type": "tuple[]"
        },
        {
          "internalType": "uint8",
          "name": "_extraCycleMetadata",
          "type": "uint8"
        }
      ],
      "name": "deployPayHookNetworkFor",
      "outputs": [
        {
          "internalType": "uint256",
          "name": "revnetId",
          "type": "uint256"
        }
      ],
      "stateMutability": "nonpayable",
      "type": "function"
    },
    {
      "inputs": [
        {
          "internalType": "address",
          "name": "_boostOperator",
          "type": "address"
        },
        {
          "components": [
            {
              "internalType": "string",
              "name": "content",
              "type": "string"
            },
            {
              "internalType": "uint256",
              "name": "domain",
              "type": "uint256"
            }
          ],
          "internalType": "struct JBProjectMetadata",
          "name": "_revnetMetadata",
          "type": "tuple"
        },
        {
          "internalType": "string",
          "name": "_name",
          "type": "string"
        },
        {
          "internalType": "string",
          "name": "_symbol",
          "type": "string"
        },
        {
          "components": [
            {
              "internalType": "uint256",
              "name": "initialIssuanceRate",
              "type": "uint256"
            },
            {
              "internalType": "uint256",
              "name": "premintTokenAmount",
              "type": "uint256"
            },
            {
              "internalType": "uint256",
              "name": "priceCeilingIncreaseFrequency",
              "type": "uint256"
            },
            {
              "internalType": "uint256",
              "name": "priceCeilingIncreasePercentage",
              "type": "uint256"
            },
            {
              "internalType": "uint256",
              "name": "priceFloorTaxIntensity",
              "type": "uint256"
            },
            {
              "components": [
                {
                  "internalType": "uint128",
                  "name": "rate",
                  "type": "uint128"
                },
                {
                  "internalType": "uint128",
                  "name": "startsAtOrAfter",
                  "type": "uint128"
                }
              ],
              "internalType": "struct Boost[]",
              "name": "boosts",
              "type": "tuple[]"
            }
          ],
          "internalType": "struct RevnetParams",
          "name": "_revnetData",
          "type": "tuple"
        },
        {
          "internalType": "contract IJBPaymentTerminal[]",
          "name": "_terminals",
          "type": "address[]"
        },
        {
          "components": [
            {
              "internalType": "contract IJBGenericBuybackDelegate",
              "name": "hook",
              "type": "address"
            },
            {
              "components": [
                {
                  "internalType": "address",
                  "name": "token",
                  "type": "address"
                },
                {
                  "internalType": "uint24",
                  "name": "fee",
                  "type": "uint24"
                },
                {
                  "internalType": "uint32",
                  "name": "twapWindow",
                  "type": "uint32"
                },
                {
                  "internalType": "uint32",
                  "name": "twapSlippageTolerance",
                  "type": "uint32"
                }
              ],
              "internalType": "struct BuybackPool[]",
              "name": "pools",
              "type": "tuple[]"
            }
          ],
          "internalType": "struct BuybackHookSetupData",
          "name": "_buybackHookSetupData",
          "type": "tuple"
        }
      ],
      "name": "deployRevnetFor",
      "outputs": [
        {
          "internalType": "uint256",
          "name": "revnetId",
          "type": "uint256"
        }
      ],
      "stateMutability": "nonpayable",
      "type": "function"
    },
    {
      "inputs": [
        {
          "internalType": "address",
          "name": "_boostOperator",
          "type": "address"
        },
        {
          "components": [
            {
              "internalType": "string",
              "name": "content",
              "type": "string"
            },
            {
              "internalType": "uint256",
              "name": "domain",
              "type": "uint256"
            }
          ],
          "internalType": "struct JBProjectMetadata",
          "name": "_revnetMetadata",
          "type": "tuple"
        },
        {
          "internalType": "string",
          "name": "_name",
          "type": "string"
        },
        {
          "internalType": "string",
          "name": "_symbol",
          "type": "string"
        },
        {
          "components": [
            {
              "internalType": "uint256",
              "name": "initialIssuanceRate",
              "type": "uint256"
            },
            {
              "internalType": "uint256",
              "name": "premintTokenAmount",
              "type": "uint256"
            },
            {
              "internalType": "uint256",
              "name": "priceCeilingIncreaseFrequency",
              "type": "uint256"
            },
            {
              "internalType": "uint256",
              "name": "priceCeilingIncreasePercentage",
              "type": "uint256"
            },
            {
              "internalType": "uint256",
              "name": "priceFloorTaxIntensity",
              "type": "uint256"
            },
            {
              "components": [
                {
                  "internalType": "uint128",
                  "name": "rate",
                  "type": "uint128"
                },
                {
                  "internalType": "uint128",
                  "name": "startsAtOrAfter",
                  "type": "uint128"
                }
              ],
              "internalType": "struct Boost[]",
              "name": "boosts",
              "type": "tuple[]"
            }
          ],
          "internalType": "struct RevnetParams",
          "name": "_revnetData",
          "type": "tuple"
        },
        {
          "internalType": "contract IJBPaymentTerminal[]",
          "name": "_terminals",
          "type": "address[]"
        },
        {
          "components": [
            {
              "internalType": "contract IJBGenericBuybackDelegate",
              "name": "hook",
              "type": "address"
            },
            {
              "components": [
                {
                  "internalType": "address",
                  "name": "token",
                  "type": "address"
                },
                {
                  "internalType": "uint24",
                  "name": "fee",
                  "type": "uint24"
                },
                {
                  "internalType": "uint32",
                  "name": "twapWindow",
                  "type": "uint32"
                },
                {
                  "internalType": "uint32",
                  "name": "twapSlippageTolerance",
                  "type": "uint32"
                }
              ],
              "internalType": "struct BuybackPool[]",
              "name": "pools",
              "type": "tuple[]"
            }
          ],
          "internalType": "struct BuybackHookSetupData",
          "name": "_buybackHookSetupData",
          "type": "tuple"
        },
        {
          "components": [
            {
              "internalType": "string",
              "name": "name",
              "type": "string"
            },
            {
              "internalType": "string",
              "name": "symbol",
              "type": "string"
            },
            {
              "internalType": "contract IJBFundingCycleStore",
              "name": "fundingCycleStore",
              "type": "address"
            },
            {
              "internalType": "string",
              "name": "baseUri",
              "type": "string"
            },
            {
              "internalType": "contract IJB721TokenUriResolver",
              "name": "tokenUriResolver",
              "type": "address"
            },
            {
              "internalType": "string",
              "name": "contractUri",
              "type": "string"
            },
            {
              "components": [
                {
                  "components": [
                    {
                      "internalType": "uint104",
                      "name": "price",
                      "type": "uint104"
                    },
                    {
                      "internalType": "uint32",
                      "name": "initialQuantity",
                      "type": "uint32"
                    },
                    {
                      "internalType": "uint32",
                      "name": "votingUnits",
                      "type": "uint32"
                    },
                    {
                      "internalType": "uint16",
                      "name": "reservedRate",
                      "type": "uint16"
                    },
                    {
                      "internalType": "address",
                      "name": "reservedTokenBeneficiary",
                      "type": "address"
                    },
                    {
                      "internalType": "bytes32",
                      "name": "encodedIPFSUri",
                      "type": "bytes32"
                    },
                    {
                      "internalType": "uint24",
                      "name": "category",
                      "type": "uint24"
                    },
                    {
                      "internalType": "bool",
                      "name": "allowManualMint",
                      "type": "bool"
                    },
                    {
                      "internalType": "bool",
                      "name": "shouldUseReservedTokenBeneficiaryAsDefault",
                      "type": "bool"
                    },
                    {
                      "internalType": "bool",
                      "name": "transfersPausable",
                      "type": "bool"
                    },
                    {
                      "internalType": "bool",
                      "name": "useVotingUnits",
                      "type": "bool"
                    }
                  ],
                  "internalType": "struct JB721TierParams[]",
                  "name": "tiers",
                  "type": "tuple[]"
                },
                {
                  "internalType": "uint48",
                  "name": "currency",
                  "type": "uint48"
                },
                {
                  "internalType": "uint48",
                  "name": "decimals",
                  "type": "uint48"
                },
                {
                  "internalType": "contract IJBPrices",
                  "name": "prices",
                  "type": "address"
                }
              ],
              "internalType": "struct JB721PricingParams",
              "name": "pricing",
              "type": "tuple"
            },
            {
              "internalType": "address",
              "name": "reservedTokenBeneficiary",
              "type": "address"
            },
            {
              "internalType": "contract IJBTiered721DelegateStore",
              "name": "store",
              "type": "address"
            },
            {
              "components": [
                {
                  "internalType": "bool",
                  "name": "lockReservedTokenChanges",
                  "type": "bool"
                },
                {
                  "internalType": "bool",
                  "name": "lockVotingUnitChanges",
                  "type": "bool"
                },
                {
                  "internalType": "bool",
                  "name": "lockManualMintingChanges",
                  "type": "bool"
                },
                {
                  "internalType": "bool",
                  "name": "preventOverspending",
                  "type": "bool"
                }
              ],
              "internalType": "struct JBTiered721Flags",
              "name": "flags",
              "type": "tuple"
            },
            {
              "internalType": "enum JB721GovernanceType",
              "name": "governanceType",
              "type": "uint8"
            }
          ],
          "internalType": "struct JBDeployTiered721DelegateData",
          "name": "_tiered721SetupData",
          "type": "tuple"
        },
        {
          "components": [
            {
              "internalType": "contract IJBPayDelegate3_1_1",
              "name": "delegate",
              "type": "address"
            },
            {
              "internalType": "uint256",
              "name": "amount",
              "type": "uint256"
            },
            {
              "internalType": "bytes",
              "name": "metadata",
              "type": "bytes"
            }
          ],
          "internalType": "struct JBPayDelegateAllocation3_1_1[]",
          "name": "_otherPayHooks",
          "type": "tuple[]"
        },
        {
          "internalType": "uint8",
          "name": "_extraCycleMetadata",
          "type": "uint8"
        }
      ],
      "name": "deployTiered721RevnetFor",
      "outputs": [
        {
          "internalType": "uint256",
          "name": "revnetId",
          "type": "uint256"
        }
      ],
      "stateMutability": "nonpayable",
      "type": "function"
    },
    {
      "inputs": [],
      "name": "directory",
      "outputs": [
        {
          "internalType": "contract IJBDirectory",
          "name": "",
          "type": "address"
        }
      ],
      "stateMutability": "view",
      "type": "function"
    },
    {
      "inputs": [
        {
          "internalType": "address",
          "name": "_operator",
          "type": "address"
        },
        {
          "internalType": "address",
          "name": "_from",
          "type": "address"
        },
        {
          "internalType": "uint256",
          "name": "_tokenId",
          "type": "uint256"
        },
        {
          "internalType": "bytes",
          "name": "_data",
          "type": "bytes"
        }
      ],
      "name": "onERC721Received",
      "outputs": [
        {
          "internalType": "bytes4",
          "name": "",
          "type": "bytes4"
        }
      ],
      "stateMutability": "view",
      "type": "function"
    },
    {
      "inputs": [
        {
          "internalType": "uint256",
          "name": "",
          "type": "uint256"
        },
        {
          "internalType": "uint256",
          "name": "",
          "type": "uint256"
        }
      ],
      "name": "payHooksOf",
      "outputs": [
        {
          "internalType": "contract IJBPayDelegate3_1_1",
          "name": "delegate",
          "type": "address"
        },
        {
          "internalType": "uint256",
          "name": "amount",
          "type": "uint256"
        },
        {
          "internalType": "bytes",
          "name": "metadata",
          "type": "bytes"
        }
      ],
      "stateMutability": "view",
      "type": "function"
    },
    {
      "inputs": [
        {
          "components": [
            {
              "internalType": "contract IJBPaymentTerminal",
              "name": "terminal",
              "type": "address"
            },
            {
              "internalType": "address",
              "name": "payer",
              "type": "address"
            },
            {
              "components": [
                {
                  "internalType": "address",
                  "name": "token",
                  "type": "address"
                },
                {
                  "internalType": "uint256",
                  "name": "value",
                  "type": "uint256"
                },
                {
                  "internalType": "uint256",
                  "name": "decimals",
                  "type": "uint256"
                },
                {
                  "internalType": "uint256",
                  "name": "currency",
                  "type": "uint256"
                }
              ],
              "internalType": "struct JBTokenAmount",
              "name": "amount",
              "type": "tuple"
            },
            {
              "internalType": "uint256",
              "name": "projectId",
              "type": "uint256"
            },
            {
              "internalType": "uint256",
              "name": "currentFundingCycleConfiguration",
              "type": "uint256"
            },
            {
              "internalType": "address",
              "name": "beneficiary",
              "type": "address"
            },
            {
              "internalType": "uint256",
              "name": "weight",
              "type": "uint256"
            },
            {
              "internalType": "uint256",
              "name": "reservedRate",
              "type": "uint256"
            },
            {
              "internalType": "string",
              "name": "memo",
              "type": "string"
            },
            {
              "internalType": "bytes",
              "name": "metadata",
              "type": "bytes"
            }
          ],
          "internalType": "struct JBPayParamsData",
          "name": "_data",
          "type": "tuple"
        }
      ],
      "name": "payParams",
      "outputs": [
        {
          "internalType": "uint256",
          "name": "weight",
          "type": "uint256"
        },
        {
          "internalType": "string",
          "name": "memo",
          "type": "string"
        },
        {
          "components": [
            {
              "internalType": "contract IJBPayDelegate3_1_1",
              "name": "delegate",
              "type": "address"
            },
            {
              "internalType": "uint256",
              "name": "amount",
              "type": "uint256"
            },
            {
              "internalType": "bytes",
              "name": "metadata",
              "type": "bytes"
            }
          ],
          "internalType": "struct JBPayDelegateAllocation3_1_1[]",
          "name": "payHooks",
          "type": "tuple[]"
        }
      ],
      "stateMutability": "view",
      "type": "function"
    },
    {
      "inputs": [
        {
          "components": [
            {
              "internalType": "contract IJBPaymentTerminal",
              "name": "terminal",
              "type": "address"
            },
            {
              "internalType": "address",
              "name": "holder",
              "type": "address"
            },
            {
              "internalType": "uint256",
              "name": "projectId",
              "type": "uint256"
            },
            {
              "internalType": "uint256",
              "name": "currentFundingCycleConfiguration",
              "type": "uint256"
            },
            {
              "internalType": "uint256",
              "name": "tokenCount",
              "type": "uint256"
            },
            {
              "internalType": "uint256",
              "name": "totalSupply",
              "type": "uint256"
            },
            {
              "internalType": "uint256",
              "name": "overflow",
              "type": "uint256"
            },
            {
              "components": [
                {
                  "internalType": "address",
                  "name": "token",
                  "type": "address"
                },
                {
                  "internalType": "uint256",
                  "name": "value",
                  "type": "uint256"
                },
                {
                  "internalType": "uint256",
                  "name": "decimals",
                  "type": "uint256"
                },
                {
                  "internalType": "uint256",
                  "name": "currency",
                  "type": "uint256"
                }
              ],
              "internalType": "struct JBTokenAmount",
              "name": "reclaimAmount",
              "type": "tuple"
            },
            {
              "internalType": "bool",
              "name": "useTotalOverflow",
              "type": "bool"
            },
            {
              "internalType": "uint256",
              "name": "redemptionRate",
              "type": "uint256"
            },
            {
              "internalType": "string",
              "name": "memo",
              "type": "string"
            },
            {
              "internalType": "bytes",
              "name": "metadata",
              "type": "bytes"
            }
          ],
          "internalType": "struct JBRedeemParamsData",
          "name": "_data",
          "type": "tuple"
        }
      ],
      "name": "redeemParams",
      "outputs": [
        {
          "internalType": "uint256",
          "name": "",
          "type": "uint256"
        },
        {
          "internalType": "string",
          "name": "",
          "type": "string"
        },
        {
          "components": [
            {
              "internalType": "contract IJBRedemptionDelegate3_1_1",
              "name": "delegate",
              "type": "address"
            },
            {
              "internalType": "uint256",
              "name": "amount",
              "type": "uint256"
            },
            {
              "internalType": "bytes",
              "name": "metadata",
              "type": "bytes"
            }
          ],
          "internalType": "struct JBRedemptionDelegateAllocation3_1_1[]",
          "name": "",
          "type": "tuple[]"
        }
      ],
      "stateMutability": "view",
      "type": "function"
    },
    {
      "inputs": [
        {
          "internalType": "uint256",
          "name": "_revnetId",
          "type": "uint256"
        },
        {
          "internalType": "address",
          "name": "_newBoostOperator",
          "type": "address"
        }
      ],
      "name": "replaceBoostOperatorOf",
      "outputs": [],
      "stateMutability": "nonpayable",
      "type": "function"
    },
    {
      "inputs": [
        {
          "internalType": "uint256",
          "name": "_revnetId",
          "type": "uint256"
        }
      ],
      "name": "scheduleNextBoostOf",
      "outputs": [],
      "stateMutability": "nonpayable",
      "type": "function"
    },
    {
      "inputs": [
        {
          "internalType": "bytes4",
          "name": "_interfaceId",
          "type": "bytes4"
        }
      ],
      "name": "supportsInterface",
      "outputs": [
        {
          "internalType": "bool",
          "name": "",
          "type": "bool"
        }
      ],
      "stateMutability": "view",
      "type": "function"
    },
    {
      "inputs": [],
      "name": "tiered721HookDeployer",
      "outputs": [
        {
          "internalType": "contract IJBTiered721DelegateDeployer",
          "name": "",
          "type": "address"
        }
      ],
      "stateMutability": "view",
      "type": "function"
    }
  ],
  "bytecode": {
    "object": "0x60e06040523480156200001157600080fd5b5060405162005c2238038062005c228339810160408190526200003491620000da565b6001600160a01b0390811660805260018054808201825560127fb10e2d527612073b26eecdfd717e6a320cf44b4afac2b0732d9fcbe2b7fa0cf69182015581548083018355601891015560058054918201815560005260097f036b6384b5eca791c62761152d0c79bb0604c104a5fb6f4eb0703f3154bb3db09091015591821660a0521660c0526200012e565b6001600160a01b0381168114620000d757600080fd5b50565b600080600060608486031215620000f057600080fd5b8351620000fd81620000c1565b60208501519093506200011081620000c1565b60408501519092506200012381620000c1565b809150509250925092565b60805160a05160c051615a31620001f1600039600081816102eb0152610829015260008181610338015261061e0152600081816103940152818161050a0152818161092801528181610adb01528181610cb501528181610eae01528181610fbc015281816110d5015281816113a101528181611480015281816117df015281816118ed01528181611a0601528181611d0701528181611dcf01528181611fb6015281816121540152818161272d0152818161298a0152612fdd0152615a316000f3fe608060405234801561001057600080fd5b50600436106101365760003560e01c8063a51cfd18116100b2578063b82f18c111610081578063d46cf17111610066578063d46cf1711461035a578063ec3004ac1461037c578063f77c47911461038f57600080fd5b8063b82f18c114610320578063c41c2f241461033357600080fd5b8063a51cfd18146102a4578063ad011669146102c6578063ade6b6db146102e6578063b58e84cc1461030d57600080fd5b806334116e8f1161010957806348dc59b6116100ee57806348dc59b6146102145780637249a773146102275780637a56f9821461028257600080fd5b806334116e8f146101ec578063440cfb7b146101ff57600080fd5b806301a7d01a1461013b57806301ffc9a714610164578063086e941b14610187578063150b7a02146101a8575b600080fd5b61014e610149366004613168565b6103b6565b60405161015b9190613181565b60405180910390f35b6101776101723660046131e6565b61044c565b604051901515815260200161015b565b61019a610195366004613168565b6104e5565b60405190815260200161015b565b6101bb6101b6366004613264565b610506565b6040517fffffffff00000000000000000000000000000000000000000000000000000000909116815260200161015b565b61019a6101fa366004613d40565b61061a565b61021261020d366004613ea3565b610926565b005b61019a610222366004613ed3565b610e9e565b61025d610235366004613168565b60036020526000908152604090205473ffffffffffffffffffffffffffffffffffffffff1681565b60405173ffffffffffffffffffffffffffffffffffffffff909116815260200161015b565b610295610290366004613fda565b611684565b60405161015b9392919061406a565b6102b76102b23660046140a8565b611767565b60405161015b939291906140e4565b61019a6102d4366004613168565b60026020526000908152604090205481565b61025d7f000000000000000000000000000000000000000000000000000000000000000081565b61019a61031b3660046141ad565b6117cf565b61019a61032e366004613168565b61236a565b61025d7f000000000000000000000000000000000000000000000000000000000000000081565b61036d6103683660046142ea565b61237a565b60405161015b93929190614326565b61021261038a366004613168565b6126e4565b61025d7f000000000000000000000000000000000000000000000000000000000000000081565b600081815260208181526040808320805482518185028101850190935280835260609492939192909184015b8282101561044157600084815260209081902060408051808201909152908401546fffffffffffffffffffffffffffffffff808216835270010000000000000000000000000000000090910416818301528252600190920191016103e2565b505050509050919050565b60007fffffffff0000000000000000000000000000000000000000000000000000000082167f71700c690000000000000000000000000000000000000000000000000000000014806104df57507f150b7a02000000000000000000000000000000000000000000000000000000007fffffffff000000000000000000000000000000000000000000000000000000008316145b92915050565b600581815481106104f557600080fd5b600091825260209091200154905081565b60007f000000000000000000000000000000000000000000000000000000000000000073ffffffffffffffffffffffffffffffffffffffff16638b79543c6040518163ffffffff1660e01b8152600401602060405180830381865afa158015610573573d6000803e3d6000fd5b505050506040513d601f19601f8201168201806040525081019061059791906143dd565b73ffffffffffffffffffffffffffffffffffffffff163373ffffffffffffffffffffffffffffffffffffffff16146105ce57600080fd5b73ffffffffffffffffffffffffffffffffffffffff8516156105ef57600080fd5b507f150b7a020000000000000000000000000000000000000000000000000000000095945050505050565b60007f000000000000000000000000000000000000000000000000000000000000000073ffffffffffffffffffffffffffffffffffffffff16638b79543c6040518163ffffffff1660e01b8152600401602060405180830381865afa158015610687573d6000803e3d6000fd5b505050506040513d601f19601f820116820180604052508101906106ab91906143dd565b73ffffffffffffffffffffffffffffffffffffffff166306661abd6040518163ffffffff1660e01b8152600401602060405180830381865afa1580156106f5573d6000803e3d6000fd5b505050506040513d601f19601f8201168201806040525081019061071991906143fa565b610724906001614442565b83519091506000610736826001614442565b67ffffffffffffffff81111561074e5761074e613303565b60405190808252806020026020018201604052801561079b57816020015b6040805160608082018352600080835260208301529181019190915281526020019060019003908161076c5790505b50905060005b828110156107e8578581815181106107bb576107bb614455565b60200260200101518282815181106107d5576107d5614455565b60209081029190910101526001016107a1565b506040517f70d7f24900000000000000000000000000000000000000000000000000000000815260009073ffffffffffffffffffffffffffffffffffffffff7f000000000000000000000000000000000000000000000000000000000000000016906370d7f249906108609087908b90600401614608565b6020604051808303816000875af115801561087f573d6000803e3d6000fd5b505050506040513d601f19601f820116820180604052508101906108a391906143dd565b905060405180606001604052808273ffffffffffffffffffffffffffffffffffffffff16815260200160008152602001604051806020016040528060008152508152508284815181106108f8576108f8614455565b60200260200101819052506109148e8e8e8e8e8e8e898d6117cf565b505050509a9950505050505050505050565b7f000000000000000000000000000000000000000000000000000000000000000073ffffffffffffffffffffffffffffffffffffffff16632bdfe0046040518163ffffffff1660e01b8152600401602060405180830381865afa158015610991573d6000803e3d6000fd5b505050506040513d601f19601f820116820180604052508101906109b591906143dd565b73ffffffffffffffffffffffffffffffffffffffff1663ad007d636040518163ffffffff1660e01b8152600401602060405180830381865afa1580156109ff573d6000803e3d6000fd5b505050506040513d601f19601f82011682018060405250810190610a2391906143dd565b73ffffffffffffffffffffffffffffffffffffffff16630f5932f033308560016040518563ffffffff1660e01b8152600401610a6294939291906147fb565b602060405180830381865afa158015610a7f573d6000803e3d6000fd5b505050506040513d601f19601f82011682018060405250810190610aa39190614845565b610ad9576040517f075fd2b100000000000000000000000000000000000000000000000000000000815260040160405180910390fd5b7f000000000000000000000000000000000000000000000000000000000000000073ffffffffffffffffffffffffffffffffffffffff16632bdfe0046040518163ffffffff1660e01b8152600401602060405180830381865afa158015610b44573d6000803e3d6000fd5b505050506040513d601f19601f82011682018060405250810190610b6891906143dd565b73ffffffffffffffffffffffffffffffffffffffff1663ad007d636040518163ffffffff1660e01b8152600401602060405180830381865afa158015610bb2573d6000803e3d6000fd5b505050506040513d601f19601f82011682018060405250810190610bd691906143dd565b73ffffffffffffffffffffffffffffffffffffffff1663529cdd2e60405180606001604052803373ffffffffffffffffffffffffffffffffffffffff168152602001858152602001600067ffffffffffffffff811115610c3857610c38613303565b604051908082528060200260200182016040528015610c61578160200160208202803683370190505b508152506040518263ffffffff1660e01b8152600401610c819190614862565b600060405180830381600087803b158015610c9b57600080fd5b505af1158015610caf573d6000803e3d6000fd5b505050507f000000000000000000000000000000000000000000000000000000000000000073ffffffffffffffffffffffffffffffffffffffff16632bdfe0046040518163ffffffff1660e01b8152600401602060405180830381865afa158015610d1e573d6000803e3d6000fd5b505050506040513d601f19601f82011682018060405250810190610d4291906143dd565b73ffffffffffffffffffffffffffffffffffffffff1663ad007d636040518163ffffffff1660e01b8152600401602060405180830381865afa158015610d8c573d6000803e3d6000fd5b505050506040513d601f19601f82011682018060405250810190610db091906143dd565b73ffffffffffffffffffffffffffffffffffffffff1663529cdd2e60405180606001604052808473ffffffffffffffffffffffffffffffffffffffff1681526020018581526020016001805480602002602001604051908101604052809291908181526020018280548015610e4457602002820191906000526020600020905b815481526020019060010190808311610e30575b50505050508152506040518263ffffffff1660e01b8152600401610e689190614862565b600060405180830381600087803b158015610e8257600080fd5b505af1158015610e96573d6000803e3d6000fd5b505050505050565b600080610eaa89612abd565b90507f000000000000000000000000000000000000000000000000000000000000000073ffffffffffffffffffffffffffffffffffffffff16638b79543c6040518163ffffffff1660e01b8152600401602060405180830381865afa158015610f17573d6000803e3d6000fd5b505050506040513d601f19601f82011682018060405250810190610f3b91906143dd565b73ffffffffffffffffffffffffffffffffffffffff1663666d87a0308a6040518363ffffffff1660e01b8152600401610f759291906148d3565b6020604051808303816000875af1158015610f94573d6000803e3d6000fd5b505050506040513d601f19601f82011682018060405250810190610fb891906143fa565b91507f000000000000000000000000000000000000000000000000000000000000000073ffffffffffffffffffffffffffffffffffffffff1663619306306040518163ffffffff1660e01b8152600401602060405180830381865afa158015611025573d6000803e3d6000fd5b505050506040513d601f19601f8201168201806040525081019061104991906143dd565b73ffffffffffffffffffffffffffffffffffffffff1663a7f2a70b8389896040518463ffffffff1660e01b815260040161108593929190614921565b6020604051808303816000875af11580156110a4573d6000803e3d6000fd5b505050506040513d601f19601f820116820180604052508101906110c891906143dd565b506110d38284612c43565b7f000000000000000000000000000000000000000000000000000000000000000073ffffffffffffffffffffffffffffffffffffffff1663111d861b836040518060800160405280896040015181526020018960000151670de0b6b3a764000061113d919061494c565b815260608a01516020808301919091526000604092830181905282516102a0810190935261024083018181526102608401829052610280840191909152825260a08b01515190820190156111b3578a60a001516000815181106111a2576111a2614455565b6020026020010151600001516111b6565b60005b6fffffffffffffffffffffffffffffffff1681526020018a608001516127106111df9190614963565b815260006020820181905260408201819052606082018190526080820181905260a0808301829052600160c0840181905260e0840183905261010084018390526101208401839052610140840183905261016084018390526101808401526101a083018290528a5173ffffffffffffffffffffffffffffffffffffffff166101c08401526101e0909201528a0151511561129b578960a0015160008151811061128a5761128a614455565b60200260200101516020015161129e565b60005b60408051600080825260208201909252889161132d565b61131a6040518060c00160405280600073ffffffffffffffffffffffffffffffffffffffff168152602001600073ffffffffffffffffffffffffffffffffffffffff168152602001600081526020016000815260200160008152602001600081525090565b8152602001906001900390816112b55790505b508b6040518863ffffffff1660e01b81526004016113519796959493929190614c52565b6020604051808303816000875af1158015611370573d6000803e3d6000fd5b505050506040513d601f19601f8201168201806040525081019061139491906143fa565b5060208501511561147e577f000000000000000000000000000000000000000000000000000000000000000073ffffffffffffffffffffffffffffffffffffffff16638ae9c07b838760200151670de0b6b3a76400006113f4919061494c565b8c8a6040516020016114069190614d82565b6040516020818303038152906040526000806040518763ffffffff1660e01b815260040161143996959493929190614dee565b6020604051808303816000875af1158015611458573d6000803e3d6000fd5b505050506040513d601f19601f8201168201806040525081019061147c91906143fa565b505b7f000000000000000000000000000000000000000000000000000000000000000073ffffffffffffffffffffffffffffffffffffffff16632bdfe0046040518163ffffffff1660e01b8152600401602060405180830381865afa1580156114e9573d6000803e3d6000fd5b505050506040513d601f19601f8201168201806040525081019061150d91906143dd565b73ffffffffffffffffffffffffffffffffffffffff1663ad007d636040518163ffffffff1660e01b8152600401602060405180830381865afa158015611557573d6000803e3d6000fd5b505050506040513d601f19601f8201168201806040525081019061157b91906143dd565b73ffffffffffffffffffffffffffffffffffffffff1663529cdd2e60405180606001604052808c73ffffffffffffffffffffffffffffffffffffffff168152602001858152602001600180548060200260200160405190810160405280929190818152602001828054801561160f57602002820191906000526020600020905b8154815260200190600101908083116115fb575b50505050508152506040518263ffffffff1660e01b81526004016116339190614862565b600060405180830381600087803b15801561164d57600080fd5b505af1158015611661573d6000803e3d6000fd5b50505050611678828660a001518760400151612d76565b50979650505050505050565b600460205281600052604060002081815481106116a057600080fd5b600091825260209091206003909102018054600182015460028301805473ffffffffffffffffffffffffffffffffffffffff9093169550909350906116e490614e43565b80601f016020809104026020016040519081016040528092919081815260200182805461171090614e43565b801561175d5780601f106117325761010080835404028352916020019161175d565b820191906000526020600020905b81548152906001019060200180831161174057829003601f168201915b5050505050905083565b6040805160008082526020820190925260609081908390816117b3565b604080516060808201835260008083526020830152918101919091528152602001906001900390816117845790505b5060408051602081019091526000815291969195509350915050565b6000806117db8b612abd565b90507f000000000000000000000000000000000000000000000000000000000000000073ffffffffffffffffffffffffffffffffffffffff16638b79543c6040518163ffffffff1660e01b8152600401602060405180830381865afa158015611848573d6000803e3d6000fd5b505050506040513d601f19601f8201168201806040525081019061186c91906143dd565b73ffffffffffffffffffffffffffffffffffffffff1663666d87a0308c6040518363ffffffff1660e01b81526004016118a69291906148d3565b6020604051808303816000875af11580156118c5573d6000803e3d6000fd5b505050506040513d601f19601f820116820180604052508101906118e991906143fa565b91507f000000000000000000000000000000000000000000000000000000000000000073ffffffffffffffffffffffffffffffffffffffff1663619306306040518163ffffffff1660e01b8152600401602060405180830381865afa158015611956573d6000803e3d6000fd5b505050506040513d601f19601f8201168201806040525081019061197a91906143dd565b73ffffffffffffffffffffffffffffffffffffffff1663a7f2a70b838b8b6040518463ffffffff1660e01b81526004016119b693929190614921565b6020604051808303816000875af11580156119d5573d6000803e3d6000fd5b505050506040513d601f19601f820116820180604052508101906119f991906143dd565b50611a048286612c43565b7f000000000000000000000000000000000000000000000000000000000000000073ffffffffffffffffffffffffffffffffffffffff1663111d861b8360405180608001604052808b60400151815260200160128c60000151611a679190614fb6565b815260608c01516020808301919091526000604092830181905282516102a0810190935261024083018181526102608401829052610280840191909152825260a08d0151519082019015611add578c60a00151600081518110611acc57611acc614455565b602002602001015160000151611ae0565b60005b6fffffffffffffffffffffffffffffffff1681526020018c60800151612710611b099190614963565b815260006020820181905260408201819052606082018190526080820181905260a0808301829052600160c0840181905260e0840183905261010084018390526101208401839052610140840183905261016084018390526101808401526101a0830191909152306101c083015260ff8a166101e0909201919091528c01515115611bb6578b60a00151600081518110611ba557611ba5614455565b602002602001015160200151611bb9565b60005b604080516000808252602082019092528891611c48565b611c356040518060c00160405280600073ffffffffffffffffffffffffffffffffffffffff168152602001600073ffffffffffffffffffffffffffffffffffffffff168152602001600081526020016000815260200160008152602001600081525090565b815260200190600190039081611bd05790505b508d6040518863ffffffff1660e01b8152600401611c6c9796959493929190614c52565b6020604051808303816000875af1158015611c8b573d6000803e3d6000fd5b505050506040513d601f19601f82011682018060405250810190611caf91906143fa565b508451600083815260036020908152604090912080547fffffffffffffffffffffffff00000000000000000000000000000000000000001673ffffffffffffffffffffffffffffffffffffffff9384161790558801517f000000000000000000000000000000000000000000000000000000000000000090911690638ae9c07b908490611d4490670de0b6b3a764000061494c565b8e8c604051602001611d569190614d82565b6040516020818303038152906040526000806040518763ffffffff1660e01b8152600401611d8996959493929190614dee565b6020604051808303816000875af1158015611da8573d6000803e3d6000fd5b505050506040513d601f19601f82011682018060405250810190611dcc91906143fa565b507f000000000000000000000000000000000000000000000000000000000000000073ffffffffffffffffffffffffffffffffffffffff16632bdfe0046040518163ffffffff1660e01b8152600401602060405180830381865afa158015611e38573d6000803e3d6000fd5b505050506040513d601f19601f82011682018060405250810190611e5c91906143dd565b73ffffffffffffffffffffffffffffffffffffffff1663ad007d636040518163ffffffff1660e01b8152600401602060405180830381865afa158015611ea6573d6000803e3d6000fd5b505050506040513d601f19601f82011682018060405250810190611eca91906143dd565b73ffffffffffffffffffffffffffffffffffffffff1663529cdd2e60405180606001604052808e73ffffffffffffffffffffffffffffffffffffffff1681526020018581526020016001805480602002602001604051908101604052809291908181526020018280548015611f5e57602002820191906000526020600020905b815481526020019060010190808311611f4a575b50505050508152506040518263ffffffff1660e01b8152600401611f829190614862565b600060405180830381600087803b158015611f9c57600080fd5b505af1158015611fb0573d6000803e3d6000fd5b505050507f000000000000000000000000000000000000000000000000000000000000000073ffffffffffffffffffffffffffffffffffffffff16632bdfe0046040518163ffffffff1660e01b8152600401602060405180830381865afa15801561201f573d6000803e3d6000fd5b505050506040513d601f19601f8201168201806040525081019061204391906143dd565b73ffffffffffffffffffffffffffffffffffffffff1663ad007d636040518163ffffffff1660e01b8152600401602060405180830381865afa15801561208d573d6000803e3d6000fd5b505050506040513d601f19601f820116820180604052508101906120b191906143dd565b85516040517f0f5932f000000000000000000000000000000000000000000000000000000000815273ffffffffffffffffffffffffffffffffffffffff9290921691630f5932f09161210d9130906000906005906004016147fb565b602060405180830381865afa15801561212a573d6000803e3d6000fd5b505050506040513d601f19601f8201168201806040525081019061214e9190614845565b61233f577f000000000000000000000000000000000000000000000000000000000000000073ffffffffffffffffffffffffffffffffffffffff16632bdfe0046040518163ffffffff1660e01b8152600401602060405180830381865afa1580156121bd573d6000803e3d6000fd5b505050506040513d601f19601f820116820180604052508101906121e191906143dd565b73ffffffffffffffffffffffffffffffffffffffff1663ad007d636040518163ffffffff1660e01b8152600401602060405180830381865afa15801561222b573d6000803e3d6000fd5b505050506040513d601f19601f8201168201806040525081019061224f91906143dd565b73ffffffffffffffffffffffffffffffffffffffff1663529cdd2e6040518060600160405280886000015173ffffffffffffffffffffffffffffffffffffffff1681526020016000815260200160058054806020026020016040519081016040528092919081815260200182805480156122e857602002820191906000526020600020905b8154815260200190600101908083116122d4575b50505050508152506040518263ffffffff1660e01b815260040161230c9190614862565b600060405180830381600087803b15801561232657600080fd5b505af115801561233a573d6000803e3d6000fd5b505050505b612352828860a001518960400151612d76565b61235c8285612ec9565b509998505050505050505050565b600181815481106104f557600080fd5b60c08101356000908152600360205260408082205490517fd46cf1710000000000000000000000000000000000000000000000000000000081526060918291829173ffffffffffffffffffffffffffffffffffffffff169063d46cf171906123e69088906004016150bb565b600060405180830381865afa158015612403573d6000803e3d6000fd5b505050506040513d6000823e601f3d9081017fffffffffffffffffffffffffffffffffffffffffffffffffffffffffffffffe0168201604052612449919081019061522f565b805160c089013560009081526004602090815260408083208054825181850281018501909352808352979b5094975092151595919450919291849084015b828210156125785760008481526020908190206040805160608101825260038602909201805473ffffffffffffffffffffffffffffffffffffffff168352600181015493830193909352600283018054929392918401916124e790614e43565b80601f016020809104026020016040519081016040528092919081815260200182805461251390614e43565b80156125605780601f1061253557610100808354040283529160200191612560565b820191906000526020600020905b81548152906001019060200180831161254357829003601f168201915b50505050508152505081526020019060010190612487565b50505050905060008151905082612590576000612593565b60015b6125a09060ff1682614442565b67ffffffffffffffff8111156125b8576125b8613303565b60405190808252806020026020018201604052801561260557816020015b604080516060808201835260008083526020830152918101919091528152602001906001900390816125d65790505b50945060005b818110156126525782818151811061262557612625614455565b602002602001015186828151811061263f5761263f614455565b602090810291909101015260010161260b565b508215612692578360008151811061266c5761266c614455565b602002602001015185828151811061268657612686614455565b60200260200101819052505b6126a06101608901896153a8565b8080601f016020809104026020016040519081016040528093929190818152602001838380828437600092019190915250999b929a50969850909650505050505050565b6040517f1f51045300000000000000000000000000000000000000000000000000000000815260048101829052600090819073ffffffffffffffffffffffffffffffffffffffff7f00000000000000000000000000000000000000000000000000000000000000001690631f510453906024016103c060405180830381865afa158015612775573d6000803e3d6000fd5b505050506040513d601f19601f8201168201806040525081019061279991906155c9565b50600085815260026020526040812080549395509193509182906127bc90615680565b91829055506000858152602081905260409020549091508015806127df57508082145b806127ee575042846060015110155b15612825576040517fc97554fa00000000000000000000000000000000000000000000000000000000815260040160405180910390fd5b600085815260208190526040812080548490811061284557612845614455565b6000918252602080832060408051808201825293909101546fffffffffffffffffffffffffffffffff808216855270010000000000000000000000000000000090910481168484019081528251608080820185528c810151825281860188905260c0808e01518387015260608084018a905286516102a08101885261024081018b815261026082018c905261028082018c905281528951909616868901528d87015196860196909652948401889052830187905260a0830187905292820186905260e08201869052610100820186905261012082018690526101408201869052610160820186905261018082018690526101a082018690526101c082018690526101e0820195909552610200808a015173ffffffffffffffffffffffffffffffffffffffff908116918301919091526102208a810151908301529451928a01519395507f00000000000000000000000000000000000000000000000000000000000000009094169363badbdf28938b93906129c1908590612f98565b6040805160008082526020820190925290612a4f565b612a3c6040518060c00160405280600073ffffffffffffffffffffffffffffffffffffffff168152602001600073ffffffffffffffffffffffffffffffffffffffff168152602001600081526020016000815260200160008152602001600081525090565b8152602001906001900390816129d75790505b506040518763ffffffff1660e01b8152600401612a71969594939291906156b8565b6020604051808303816000875af1158015612a90573d6000803e3d6000fd5b505050506040513d601f19601f82011682018060405250810190612ab491906143fa565b50505050505050565b604080516001808252818301909252606091816020015b604080518082019091526000815260606020820152815260200190600190039081612ad457505060408051600180825281830190925291925060009190602082015b6040805160e08101825260008082526020808301829052928201819052606082018190526080820181905260a0820181905260c082015282527fffffffffffffffffffffffffffffffffffffffffffffffffffffffffffffffff909201910181612b165790505090506040518060e00160405280600015158152602001600015158152602001633b9aca008152602001600081526020018473ffffffffffffffffffffffffffffffffffffffff16815260200160008152602001600073ffffffffffffffffffffffffffffffffffffffff1681525081600181518110612bfe57612bfe614455565b60200260200101819052506040518060400160405280600281526020018281525082600081518110612c3257612c32614455565b602002602001018190525050919050565b602081810151516040805160808101825260008082529381018490529081018390526060810183905290915b82811015612d6f5783602001518181518110612c8d57612c8d614455565b6020908102919091018101518551918101516040808301516060840151845192517f7b621d3a000000000000000000000000000000000000000000000000000000008152600481018c905262ffffff909416602485015263ffffffff918216604485015216606483015273ffffffffffffffffffffffffffffffffffffffff9081166084830152919450911690637b621d3a9060a4016020604051808303816000875af1158015612d42573d6000803e3d6000fd5b505050506040513d601f19601f82011682018060405250810190612d6691906143dd565b50600101612c6f565b5050505050565b815160408051808201909152600080825260208201528115612d6f5760005b82811015610e9657848181518110612daf57612daf614455565b6020026020010151915080600014158015612e2457508385612dd2600184614963565b81518110612de257612de2614455565b6020026020010151602001516fffffffffffffffffffffffffffffffff16612e0a9190614442565b82602001516fffffffffffffffffffffffffffffffff1611155b15612e5b576040517f2d9548a900000000000000000000000000000000000000000000000000000000815260040160405180910390fd5b816000808881526020019081526020016000208281548110612e7f57612e7f614455565b6000918252602091829020835193909201516fffffffffffffffffffffffffffffffff90811670010000000000000000000000000000000002931692909217910155600101612d95565b805160005b81811015612f9257828181518110612ee857612ee8614455565b6020026020010151600460008681526020019081526020016000208281548110612f1457612f14614455565b600091825260209182902083516003929092020180547fffffffffffffffffffffffff00000000000000000000000000000000000000001673ffffffffffffffffffffffffffffffffffffffff90921691909117815590820151600182015560408201516002820190612f8790826157e3565b505050600101612ece565b50505050565b604080516001808252818301909252606091816020015b604080518082019091526000815260606020820152815260200190600190039081612faf57905050905060007f000000000000000000000000000000000000000000000000000000000000000073ffffffffffffffffffffffffffffffffffffffff16632bdfe0046040518163ffffffff1660e01b8152600401602060405180830381865afa158015613046573d6000803e3d6000fd5b505050506040513d601f19601f8201168201806040525081019061306a91906143dd565b6040517f69e11cc500000000000000000000000000000000000000000000000000000000815260048101869052602481018590526002604482015273ffffffffffffffffffffffffffffffffffffffff91909116906369e11cc590606401600060405180830381865afa1580156130e5573d6000803e3d6000fd5b505050506040513d6000823e601f3d9081017fffffffffffffffffffffffffffffffffffffffffffffffffffffffffffffffe016820160405261312b91908101906158fd565b9050604051806040016040528060028152602001828152508260008151811061315657613156614455565b60200260200101819052505092915050565b60006020828403121561317a57600080fd5b5035919050565b602080825282518282018190526000919060409081850190868401855b828110156131d957815180516fffffffffffffffffffffffffffffffff9081168652908701511686850152928401929085019060010161319e565b5091979650505050505050565b6000602082840312156131f857600080fd5b81357fffffffff000000000000000000000000000000000000000000000000000000008116811461322857600080fd5b9392505050565b73ffffffffffffffffffffffffffffffffffffffff8116811461325157600080fd5b50565b803561325f8161322f565b919050565b60008060008060006080868803121561327c57600080fd5b85356132878161322f565b945060208601356132978161322f565b935060408601359250606086013567ffffffffffffffff808211156132bb57600080fd5b818801915088601f8301126132cf57600080fd5b8135818111156132de57600080fd5b8960208285010111156132f057600080fd5b9699959850939650602001949392505050565b7f4e487b7100000000000000000000000000000000000000000000000000000000600052604160045260246000fd5b6040805190810167ffffffffffffffff8111828210171561335557613355613303565b60405290565b60405160c0810167ffffffffffffffff8111828210171561335557613355613303565b6040516080810167ffffffffffffffff8111828210171561335557613355613303565b604051610160810167ffffffffffffffff8111828210171561335557613355613303565b6040516060810167ffffffffffffffff8111828210171561335557613355613303565b604051610240810167ffffffffffffffff8111828210171561335557613355613303565b604051610120810167ffffffffffffffff8111828210171561335557613355613303565b60405160e0810167ffffffffffffffff8111828210171561335557613355613303565b604051601f82017fffffffffffffffffffffffffffffffffffffffffffffffffffffffffffffffe016810167ffffffffffffffff8111828210171561349a5761349a613303565b604052919050565b600067ffffffffffffffff8211156134bc576134bc613303565b50601f017fffffffffffffffffffffffffffffffffffffffffffffffffffffffffffffffe01660200190565b60006134fb6134f6846134a2565b613453565b905082815283838301111561350f57600080fd5b828260208301376000602084830101529392505050565b600082601f83011261353757600080fd5b613228838335602085016134e8565b60006040828403121561355857600080fd5b613560613332565b9050813567ffffffffffffffff81111561357957600080fd5b61358584828501613526565b8252506020820135602082015292915050565b600067ffffffffffffffff8211156135b2576135b2613303565b5060051b60200190565b80356fffffffffffffffffffffffffffffffff8116811461325f57600080fd5b600060c082840312156135ee57600080fd5b6135f661335b565b9050813581526020808301358183015260408084013581840152606084013560608401526080840135608084015260a084013567ffffffffffffffff81111561363e57600080fd5b8401601f8101861361364f57600080fd5b803561365d6134f682613598565b81815260069190911b8201840190848101908883111561367c57600080fd5b928501925b828410156136ca5784848a0312156136995760008081fd5b6136a1613332565b6136aa856135bc565b81526136b78786016135bc565b8188015282529284019290850190613681565b60a087015250939695505050505050565b600082601f8301126136ec57600080fd5b813560206136fc6134f683613598565b82815260059290921b8401810191818101908684111561371b57600080fd5b8286015b8481101561373f5780356137328161322f565b835291830191830161371f565b509695505050505050565b803562ffffff8116811461325f57600080fd5b803563ffffffff8116811461325f57600080fd5b6000604080838503121561378457600080fd5b61378c613332565b915082356137998161322f565b825260208381013567ffffffffffffffff8111156137b657600080fd5b8401601f810186136137c757600080fd5b80356137d56134f682613598565b81815260079190911b820183019083810190888311156137f457600080fd5b928401925b82841015613868576080848a0312156138125760008081fd5b61381a61337e565b84356138258161322f565b815261383285870161374a565b8682015261384187860161375d565b87820152606061385281870161375d565b90820152825260809390930192908401906137f9565b808588015250505050505092915050565b80356cffffffffffffffffffffffffff8116811461325f57600080fd5b803561ffff8116811461325f57600080fd5b801515811461325157600080fd5b803561325f816138a8565b803565ffffffffffff8116811461325f57600080fd5b600060808083850312156138ea57600080fd5b6138f261337e565b9150823567ffffffffffffffff81111561390b57600080fd5b8301601f8101851361391c57600080fd5b8035602061392c6134f683613598565b828152610160928302840182019282820191908985111561394c57600080fd5b948301945b84861015613a2d5780868b0312156139695760008081fd5b6139716133a1565b61397a87613879565b815261398785880161375d565b85820152604061399881890161375d565b9082015260606139a9888201613896565b908201526139b8878901613254565b8189015260a0878101359082015260c06139d381890161374a565b9082015260e06139e48882016138b6565b908201526101006139f68882016138b6565b90820152610120613a088882016138b6565b90820152610140613a1a8882016138b6565b9082015283529485019491830191613951565b50865250613a3c8682016138c1565b8186015250505050613a50604083016138c1565b6040820152613a6160608301613254565b606082015292915050565b600060808284031215613a7e57600080fd5b613a8661337e565b90508135613a93816138a8565b81526020820135613aa3816138a8565b60208201526040820135613ab6816138a8565b60408201526060820135613a61816138a8565b80356002811061325f57600080fd5b60006101c08284031215613aeb57600080fd5b613af36133a1565b9050813567ffffffffffffffff80821115613b0d57600080fd5b613b1985838601613526565b83526020840135915080821115613b2f57600080fd5b613b3b85838601613526565b6020840152613b4c60408501613254565b60408401526060840135915080821115613b6557600080fd5b613b7185838601613526565b6060840152613b8260808501613254565b608084015260a0840135915080821115613b9b57600080fd5b613ba785838601613526565b60a084015260c0840135915080821115613bc057600080fd5b50613bcd848285016138d7565b60c083015250613bdf60e08301613254565b60e0820152610100613bf2818401613254565b90820152610120613c0584848301613a6c565b90820152613c166101a08301613ac9565b61014082015292915050565b600082601f830112613c3357600080fd5b81356020613c436134f683613598565b82815260059290921b84018101918181019086841115613c6257600080fd5b8286015b8481101561373f57803567ffffffffffffffff80821115613c875760008081fd5b81890191506060807fffffffffffffffffffffffffffffffffffffffffffffffffffffffffffffffe0848d03011215613cc05760008081fd5b613cc86133c5565b87840135613cd58161322f565b815260408481013589830152918401359183831115613cf45760008081fd5b82850194508c603f860112613d0b57600093508384fd5b613d1b8d8a8701358388016134e8565b908201528652505050918301918301613c66565b803560ff8116811461325f57600080fd5b6000806000806000806000806000806101408b8d031215613d6057600080fd5b613d698b613254565b995060208b013567ffffffffffffffff80821115613d8657600080fd5b613d928e838f01613546565b9a5060408d0135915080821115613da857600080fd5b613db48e838f01613526565b995060608d0135915080821115613dca57600080fd5b613dd68e838f01613526565b985060808d0135915080821115613dec57600080fd5b613df88e838f016135dc565b975060a08d0135915080821115613e0e57600080fd5b613e1a8e838f016136db565b965060c08d0135915080821115613e3057600080fd5b613e3c8e838f01613771565b955060e08d0135915080821115613e5257600080fd5b613e5e8e838f01613ad8565b94506101008d0135915080821115613e7557600080fd5b50613e828d828e01613c22565b925050613e926101208c01613d2f565b90509295989b9194979a5092959850565b60008060408385031215613eb657600080fd5b823591506020830135613ec88161322f565b809150509250929050565b600080600080600080600060e0888a031215613eee57600080fd5b613ef788613254565b9650602088013567ffffffffffffffff80821115613f1457600080fd5b613f208b838c01613546565b975060408a0135915080821115613f3657600080fd5b613f428b838c01613526565b965060608a0135915080821115613f5857600080fd5b613f648b838c01613526565b955060808a0135915080821115613f7a57600080fd5b613f868b838c016135dc565b945060a08a0135915080821115613f9c57600080fd5b613fa88b838c016136db565b935060c08a0135915080821115613fbe57600080fd5b50613fcb8a828b01613771565b91505092959891949750929550565b60008060408385031215613fed57600080fd5b50508035926020909101359150565b60005b83811015614017578181015183820152602001613fff565b50506000910152565b60008151808452614038816020860160208601613ffc565b601f017fffffffffffffffffffffffffffffffffffffffffffffffffffffffffffffffe0169290920160200192915050565b73ffffffffffffffffffffffffffffffffffffffff8416815282602082015260606040820152600061409f6060830184614020565b95945050505050565b6000602082840312156140ba57600080fd5b813567ffffffffffffffff8111156140d157600080fd5b82016101e0818503121561322857600080fd5b60006060858352602081818501526140fe82850187614020565b6040858203818701528187518084528484019150848160051b850101858a0160005b8381101561419b578683037fffffffffffffffffffffffffffffffffffffffffffffffffffffffffffffffe00185528151805173ffffffffffffffffffffffffffffffffffffffff16845288810151898501528601518684018a90526141888a850182614020565b9589019593505090870190600101614120565b50909c9b505050505050505050505050565b60008060008060008060008060006101208a8c0312156141cc57600080fd5b6141d58a613254565b985060208a013567ffffffffffffffff808211156141f257600080fd5b6141fe8d838e01613546565b995060408c013591508082111561421457600080fd5b6142208d838e01613526565b985060608c013591508082111561423657600080fd5b6142428d838e01613526565b975060808c013591508082111561425857600080fd5b6142648d838e016135dc565b965060a08c013591508082111561427a57600080fd5b6142868d838e016136db565b955060c08c013591508082111561429c57600080fd5b6142a88d838e01613771565b945060e08c01359150808211156142be57600080fd5b506142cb8c828d01613c22565b9250506142db6101008b01613d2f565b90509295985092959850929598565b6000602082840312156142fc57600080fd5b813567ffffffffffffffff81111561431357600080fd5b82016101a0818503121561322857600080fd5b600060608583526020818185015261434082850187614020565b6040858203818701528187518084528484019150848160051b850101858a0160005b8381101561419b578683037fffffffffffffffffffffffffffffffffffffffffffffffffffffffffffffffe00185528151805173ffffffffffffffffffffffffffffffffffffffff16845288810151898501528601518684018a90526143ca8a850182614020565b9589019593505090870190600101614362565b6000602082840312156143ef57600080fd5b81516132288161322f565b60006020828403121561440c57600080fd5b5051919050565b7f4e487b7100000000000000000000000000000000000000000000000000000000600052601160045260246000fd5b808201808211156104df576104df614413565b7f4e487b7100000000000000000000000000000000000000000000000000000000600052603260045260246000fd5b80516080808452815184820181905260009260a0916020918201918388019190865b8281101561456957845180516cffffffffffffffffffffffffff1685528281015163ffffffff908116848701526040808301519091169086015260608082015161ffff16908601528781015173ffffffffffffffffffffffffffffffffffffffff1688860152868101518786015260c08082015162ffffff169086015260e08082015115159086015261010080820151151590860152610120808201511515908601526101409081015115159085015293810193610160909301926001016144a6565b508781015165ffffffffffff81168a830152955050506040860151935061459a604088018565ffffffffffff169052565b606086015193506145c3606088018573ffffffffffffffffffffffffffffffffffffffff169052565b9695505050505050565b60028110614604577f4e487b7100000000000000000000000000000000000000000000000000000000600052602160045260246000fd5b9052565b82815260406020820152600082516101c0604084015261462c610200840182614020565b905060208401517fffffffffffffffffffffffffffffffffffffffffffffffffffffffffffffffc0808584030160608601526146688383614020565b925060408601519150614693608086018373ffffffffffffffffffffffffffffffffffffffff169052565b60608601519150808584030160a08601526146ae8383614020565b9250608086015191506146d960c086018373ffffffffffffffffffffffffffffffffffffffff169052565b60a08601519150808584030160e08601526146f48383614020565b925060c086015191506101008186850301818701526147138484614484565b935060e0870151925061012091506147428287018473ffffffffffffffffffffffffffffffffffffffff169052565b860151915061014061476b8682018473ffffffffffffffffffffffffffffffffffffffff169052565b908601518051151561016087015260208101511515610180870152604081015115156101a08701526060015115156101c086015285015190506147b26101e08501826145cd565b50949350505050565b6000815480845260208085019450836000528060002060005b838110156147f0578154875295820195600191820191016147d4565b509495945050505050565b600073ffffffffffffffffffffffffffffffffffffffff8087168352808616602084015250836040830152608060608301526145c360808301846147bb565b805161325f816138a8565b60006020828403121561485757600080fd5b8151613228816138a8565b600060208083526080830173ffffffffffffffffffffffffffffffffffffffff85511682850152818501516040850152604085015160608086015281815180845260a0870191508483019350600092505b8083101561373f57835182529284019260019290920191908401906148b3565b73ffffffffffffffffffffffffffffffffffffffff83168152604060208201526000825160408084015261490a6080840182614020565b905060208401516060840152809150509392505050565b83815260606020820152600061493a6060830185614020565b82810360408401526145c38185614020565b80820281158282048414176104df576104df614413565b818103818111156104df576104df614413565b61499b8282518051151582526020808201511515908301526040908101511515910152565b6020810151606083015260408101516080830152606081015160a083015260808101516149cc60c084018215159052565b5060a081015180151560e08401525060c08101516101006149f08185018315159052565b60e08301519150610120614a078186018415159052565b90830151915061014090614a1e8583018415159052565b8301519150610160614a338582018415159052565b90830151915061018090614a4a8583018415159052565b83015191506101a0614a5f8582018415159052565b9083015191506101c090614a768583018415159052565b83015191506101e0614a8b8582018415159052565b90830151915061020090614aa28583018415159052565b8301519150610220614ab78582018415159052565b9083015173ffffffffffffffffffffffffffffffffffffffff16610240850152909101516102609092019190915250565b600081518084526020808501808196508360051b810191508286016000805b86811015614bc7578385038a52825180518652860151604087870181905281518188018190529188019160609081890190865b81811015614bb05785518051151584528c81015115158d8501528581015186850152848101518585015260808082015173ffffffffffffffffffffffffffffffffffffffff9081169186019190915260a0808301519086015260c0918201511690840152948b019460e090920191600101614b3a565b50509c89019c975050509286019250600101614b07565b509298975050505050505050565b600081518084526020808501945080840160005b838110156147f0578151805173ffffffffffffffffffffffffffffffffffffffff908116895284820151168489015260408082015190890152606080820151908901526080808201519089015260a0908101519088015260c09096019590820190600101614be9565b60006103c08983526020614c9f8185018b80518252602081015160208301526040810151604083015273ffffffffffffffffffffffffffffffffffffffff60608201511660608301525050565b614cac60a085018a614976565b6fffffffffffffffffffffffffffffffff881661032085015281610340850152614cd882850188614ae8565b9150838203610360850152614ced8287614bd5565b848103610380860152855180825282870193509082019060005b81811015614d3957845173ffffffffffffffffffffffffffffffffffffffff1683529383019391830191600101614d07565b50508481036103a0860152600f81527f7265766e6574206465706c6f79656400000000000000000000000000000000006020820152604081019c9b505050505050505050505050565b7f2400000000000000000000000000000000000000000000000000000000000000815260008251614dba816001850160208701613ffc565b7f207072656d696e746564000000000000000000000000000000000000000000006001939091019283015250600b01919050565b86815285602082015273ffffffffffffffffffffffffffffffffffffffff8516604082015260c060608201526000614e2960c0830186614020565b93151560808301525090151560a090910152949350505050565b600181811c90821680614e5757607f821691505b602082108103614e90577f4e487b7100000000000000000000000000000000000000000000000000000000600052602260045260246000fd5b50919050565b600181815b80851115614eef57817fffffffffffffffffffffffffffffffffffffffffffffffffffffffffffffffff04821115614ed557614ed5614413565b80851615614ee257918102915b93841c9390800290614e9b565b509250929050565b600082614f06575060016104df565b81614f13575060006104df565b8160018114614f295760028114614f3357614f4f565b60019150506104df565b60ff841115614f4457614f44614413565b50506001821b6104df565b5060208310610133831016604e8410600b8410161715614f72575081810a6104df565b614f7c8383614e96565b807fffffffffffffffffffffffffffffffffffffffffffffffffffffffffffffffff04821115614fae57614fae614413565b029392505050565b600061322860ff841683614ef7565b8035614fd08161322f565b73ffffffffffffffffffffffffffffffffffffffff1682526020818101359083015260408082013590830152606090810135910152565b60008083357fffffffffffffffffffffffffffffffffffffffffffffffffffffffffffffffe184360301811261503c57600080fd5b830160208101925035905067ffffffffffffffff81111561505c57600080fd5b80360382131561506b57600080fd5b9250929050565b8183528181602085013750600060208284010152600060207fffffffffffffffffffffffffffffffffffffffffffffffffffffffffffffffe0601f840116840101905092915050565b602081526150e9602082016150cf84613254565b73ffffffffffffffffffffffffffffffffffffffff169052565b60006150f760208401613254565b73ffffffffffffffffffffffffffffffffffffffff81166040840152506151246060830160408501614fc5565b60c083013560e083015261010060e084013581840152615145818501613254565b905061012061516b8185018373ffffffffffffffffffffffffffffffffffffffff169052565b6101409150808501358285015250610160818501358185015261519081860186615007565b925090506101a061018081818701526151ae6101c087018585615072565b93506151bc81880188615007565b935090507fffffffffffffffffffffffffffffffffffffffffffffffffffffffffffffffe086850301828701526151f4848483615072565b979650505050505050565b600061520d6134f6846134a2565b905082815283838301111561522157600080fd5b613228836020830184613ffc565b60008060006060848603121561524457600080fd5b8351925060208085015167ffffffffffffffff8082111561526457600080fd5b818701915087601f83011261527857600080fd5b6152868883518585016151ff565b9450604087015191508082111561529c57600080fd5b818701915087601f8301126152b057600080fd5b81516152be6134f682613598565b81815260059190911b8301840190848101908a8311156152dd57600080fd5b8585015b83811015615397578051858111156152f857600080fd5b86016060818e037fffffffffffffffffffffffffffffffffffffffffffffffffffffffffffffffe001121561532c57600080fd5b6153346133c5565b888201516153418161322f565b815260408201518982015260608201518781111561535e57600080fd5b8083019250508d603f83011261537357600080fd5b6153848e8a840151604085016151ff565b60408201528452509186019186016152e1565b508096505050505050509250925092565b60008083357fffffffffffffffffffffffffffffffffffffffffffffffffffffffffffffffe18436030181126153dd57600080fd5b83018035915067ffffffffffffffff8211156153f857600080fd5b60200191503681900382131561506b57600080fd5b805161325f8161322f565b60006060828403121561542a57600080fd5b6154326133c5565b9050815161543f816138a8565b8152602082015161544f816138a8565b60208201526040820151615462816138a8565b604082015292915050565b6000610280828403121561548057600080fd5b6154886133e8565b90506154948383615418565b8152606082015160208201526080820151604082015260a082015160608201526154c060c0830161483a565b60808201526154d160e0830161483a565b60a08201526101006154e481840161483a565b60c08301526101206154f781850161483a565b60e084015261014061550a81860161483a565b83850152610160925061551e83860161483a565b82850152610180915061553282860161483a565b908401526101a061554485820161483a565b838501526101c0925061555883860161483a565b828501526101e0915061556c82860161483a565b9084015261020061557e85820161483a565b83850152610220925061559283860161483a565b828501526155a3610240860161540d565b818501525050610260830151818301525092915050565b80516003811061325f57600080fd5b60008060008385036103c08112156155e057600080fd5b610120808212156155f057600080fd5b6155f861340c565b9150855182526020860151602083015260408601516040830152606086015160608301526080860151608083015260a086015160a083015260c086015160c083015261564660e0870161540d565b60e08301526101008087015181840152508194506156668782880161546d565b935050506156776103a085016155ba565b90509250925092565b60007fffffffffffffffffffffffffffffffffffffffffffffffffffffffffffffffff82036156b1576156b1614413565b5060010190565b60006103a0888352615704602084018980518252602081015160208301526040810151604083015273ffffffffffffffffffffffffffffffffffffffff60608201511660608301525050565b61571160a0840188614976565b6fffffffffffffffffffffffffffffffff86166103208401528061034084015261573d81840186614ae8565b90508281036103608401526157528185614bd5565b838103610380909401939093525050601681527f7265766e657420626f6f7374207363686564756c65640000000000000000000060208201526040019695505050505050565b601f8211156157de57600081815260208120601f850160051c810160208610156157bf5750805b601f850160051c820191505b81811015610e96578281556001016157cb565b505050565b815167ffffffffffffffff8111156157fd576157fd613303565b6158118161580b8454614e43565b84615798565b602080601f831160018114615864576000841561582e5750858301515b7fffffffffffffffffffffffffffffffffffffffffffffffffffffffffffffffff600386901b1c1916600185901b178555610e96565b6000858152602081207fffffffffffffffffffffffffffffffffffffffffffffffffffffffffffffffe08616915b828110156158b157888601518255948401946001909101908401615892565b50858210156158ed57878501517fffffffffffffffffffffffffffffffffffffffffffffffffffffffffffffffff600388901b60f8161c191681555b5050505050600190811b01905550565b6000602080838503121561591057600080fd5b825167ffffffffffffffff81111561592757600080fd5b8301601f8101851361593857600080fd5b80516159466134f682613598565b81815260e0918202830184019184820191908884111561596557600080fd5b938501935b838510156116785780858a0312156159825760008081fd5b61598a613430565b8551615995816138a8565b8152858701516159a4816138a8565b8188015260408681015190820152606080870151908201526080808701516159cb8161322f565b9082015260a0868101519082015260c0808701516159e88161322f565b908201528352938401939185019161596a56fea26469706673582212205ebb2cf1a6728090c63d6b7f881319b7839375ecd24ab425319cbd702b06c26364736f6c63430008150033",
    "linkReferences": {}
  },
  "methodIdentifiers": {
    "boostOperatorPermissionIndexes(uint256)": "b82f18c1",
    "boostsOf(uint256)": "01a7d01a",
    "buybackHookOf(uint256)": "7249a773",
    "buybackHookPermissionIndexes(uint256)": "086e941b",
    "controller()": "f77c4791",
    "currentBoostNumberOf(uint256)": "ad011669",
    "deployPayHookNetworkFor(address,(string,uint256),string,string,(uint256,uint256,uint256,uint256,uint256,(uint128,uint128)[]),address[],(address,(address,uint24,uint32,uint32)[]),(address,uint256,bytes)[],uint8)": "b58e84cc",
    "deployRevnetFor(address,(string,uint256),string,string,(uint256,uint256,uint256,uint256,uint256,(uint128,uint128)[]),address[],(address,(address,uint24,uint32,uint32)[]))": "48dc59b6",
    "deployTiered721RevnetFor(address,(string,uint256),string,string,(uint256,uint256,uint256,uint256,uint256,(uint128,uint128)[]),address[],(address,(address,uint24,uint32,uint32)[]),(string,string,address,string,address,string,((uint104,uint32,uint32,uint16,address,bytes32,uint24,bool,bool,bool,bool)[],uint48,uint48,address),address,address,(bool,bool,bool,bool),uint8),(address,uint256,bytes)[],uint8)": "34116e8f",
    "directory()": "c41c2f24",
    "onERC721Received(address,address,uint256,bytes)": "150b7a02",
    "payHooksOf(uint256,uint256)": "7a56f982",
    "payParams((address,address,(address,uint256,uint256,uint256),uint256,uint256,address,uint256,uint256,string,bytes))": "d46cf171",
    "redeemParams((address,address,uint256,uint256,uint256,uint256,uint256,(address,uint256,uint256,uint256),bool,uint256,string,bytes))": "a51cfd18",
    "replaceBoostOperatorOf(uint256,address)": "440cfb7b",
    "scheduleNextBoostOf(uint256)": "ec3004ac",
    "supportsInterface(bytes4)": "01ffc9a7",
    "tiered721HookDeployer()": "ade6b6db"
  },
  "id": 105
}