{
  "abi": [
    {
      "inputs": [
        {
          "internalType": "contract IJBDirectory",
          "name": "_directory",
          "type": "address"
        },
        {
          "internalType": "contract IJBTiered721DelegateDeployer",
          "name": "_tiered721HookDeployer",
          "type": "address"
        },
        {
          "internalType": "contract IJBController3_1",
          "name": "_controller",
          "type": "address"
        }
      ],
      "stateMutability": "nonpayable",
      "type": "constructor"
    },
    {
      "inputs": [],
      "name": "BAD_BOOST_SEQUENCE",
      "type": "error"
    },
    {
      "inputs": [],
      "name": "RECONFIGURATION_ALREADY_SCHEDULED",
      "type": "error"
    },
    {
      "inputs": [],
      "name": "RECONFIGURATION_NOT_POSSIBLE",
      "type": "error"
    },
    {
      "inputs": [],
      "name": "UNAUTHORIZED",
      "type": "error"
    },
    {
      "inputs": [
        {
          "internalType": "uint256",
          "name": "",
          "type": "uint256"
        }
      ],
      "name": "boostOperatorPermissionIndexes",
      "outputs": [
        {
          "internalType": "uint256",
          "name": "",
          "type": "uint256"
        }
      ],
      "stateMutability": "view",
      "type": "function"
    },
    {
      "inputs": [
        {
          "internalType": "uint256",
          "name": "_revnetId",
          "type": "uint256"
        }
      ],
      "name": "boostsOf",
      "outputs": [
        {
          "components": [
            {
              "internalType": "uint128",
              "name": "rate",
              "type": "uint128"
            },
            {
              "internalType": "uint128",
              "name": "startsAtOrAfter",
              "type": "uint128"
            }
          ],
          "internalType": "struct Boost[]",
          "name": "",
          "type": "tuple[]"
        }
      ],
      "stateMutability": "view",
      "type": "function"
    },
    {
      "inputs": [
        {
          "internalType": "uint256",
          "name": "",
          "type": "uint256"
        }
      ],
      "name": "buybackHookOf",
      "outputs": [
        {
          "internalType": "contract IJBGenericBuybackDelegate",
          "name": "",
          "type": "address"
        }
      ],
      "stateMutability": "view",
      "type": "function"
    },
    {
      "inputs": [
        {
          "internalType": "uint256",
          "name": "",
          "type": "uint256"
        }
      ],
      "name": "buybackHookPermissionIndexes",
      "outputs": [
        {
          "internalType": "uint256",
          "name": "",
          "type": "uint256"
        }
      ],
      "stateMutability": "view",
      "type": "function"
    },
    {
      "inputs": [],
      "name": "controller",
      "outputs": [
        {
          "internalType": "contract IJBController3_1",
          "name": "",
          "type": "address"
        }
      ],
      "stateMutability": "view",
      "type": "function"
    },
    {
      "inputs": [
        {
          "internalType": "uint256",
          "name": "_revnetId",
          "type": "uint256"
        }
      ],
      "name": "currentBoostNumberOf",
      "outputs": [
        {
          "internalType": "uint256",
          "name": "",
          "type": "uint256"
        }
      ],
      "stateMutability": "view",
      "type": "function"
    },
    {
      "inputs": [
        {
          "internalType": "address",
          "name": "_boostOperator",
          "type": "address"
        },
        {
          "components": [
            {
              "internalType": "string",
              "name": "content",
              "type": "string"
            },
            {
              "internalType": "uint256",
              "name": "domain",
              "type": "uint256"
            }
          ],
          "internalType": "struct JBProjectMetadata",
          "name": "_revnetMetadata",
          "type": "tuple"
        },
        {
          "internalType": "string",
          "name": "_name",
          "type": "string"
        },
        {
          "internalType": "string",
          "name": "_symbol",
          "type": "string"
        },
        {
          "components": [
            {
              "internalType": "uint256",
              "name": "initialIssuanceRate",
              "type": "uint256"
            },
            {
              "internalType": "uint256",
              "name": "premintTokenAmount",
              "type": "uint256"
            },
            {
              "internalType": "uint256",
              "name": "priceCeilingIncreaseFrequency",
              "type": "uint256"
            },
            {
              "internalType": "uint256",
              "name": "priceCeilingIncreasePercentage",
              "type": "uint256"
            },
            {
              "internalType": "uint256",
              "name": "priceFloorTaxIntensity",
              "type": "uint256"
            },
            {
              "components": [
                {
                  "internalType": "uint128",
                  "name": "rate",
                  "type": "uint128"
                },
                {
                  "internalType": "uint128",
                  "name": "startsAtOrAfter",
                  "type": "uint128"
                }
              ],
              "internalType": "struct Boost[]",
              "name": "boosts",
              "type": "tuple[]"
            }
          ],
          "internalType": "struct RevnetParams",
          "name": "_revnetData",
          "type": "tuple"
        },
        {
          "internalType": "contract IJBPaymentTerminal[]",
          "name": "_terminals",
          "type": "address[]"
        },
        {
          "components": [
            {
              "internalType": "contract IJBGenericBuybackDelegate",
              "name": "hook",
              "type": "address"
            },
            {
              "components": [
                {
                  "internalType": "address",
                  "name": "token",
                  "type": "address"
                },
                {
                  "internalType": "uint24",
                  "name": "fee",
                  "type": "uint24"
                },
                {
                  "internalType": "uint32",
                  "name": "twapWindow",
                  "type": "uint32"
                },
                {
                  "internalType": "uint32",
                  "name": "twapSlippageTolerance",
                  "type": "uint32"
                }
              ],
              "internalType": "struct BuybackPool[]",
              "name": "pools",
              "type": "tuple[]"
            }
          ],
          "internalType": "struct BuybackHookSetupData",
          "name": "_buybackHookSetupData",
          "type": "tuple"
        },
        {
          "components": [
            {
              "internalType": "contract IJBPayDelegate3_1_1",
              "name": "delegate",
              "type": "address"
            },
            {
              "internalType": "uint256",
              "name": "amount",
              "type": "uint256"
            },
            {
              "internalType": "bytes",
              "name": "metadata",
              "type": "bytes"
            }
          ],
          "internalType": "struct JBPayDelegateAllocation3_1_1[]",
          "name": "_payHooks",
          "type": "tuple[]"
        },
        {
          "internalType": "uint8",
          "name": "_extraCycleMetadata",
          "type": "uint8"
        }
      ],
      "name": "deployPayHookNetworkFor",
      "outputs": [
        {
          "internalType": "uint256",
          "name": "revnetId",
          "type": "uint256"
        }
      ],
      "stateMutability": "nonpayable",
      "type": "function"
    },
    {
      "inputs": [
        {
          "internalType": "address",
          "name": "_boostOperator",
          "type": "address"
        },
        {
          "components": [
            {
              "internalType": "string",
              "name": "content",
              "type": "string"
            },
            {
              "internalType": "uint256",
              "name": "domain",
              "type": "uint256"
            }
          ],
          "internalType": "struct JBProjectMetadata",
          "name": "_revnetMetadata",
          "type": "tuple"
        },
        {
          "internalType": "string",
          "name": "_name",
          "type": "string"
        },
        {
          "internalType": "string",
          "name": "_symbol",
          "type": "string"
        },
        {
          "components": [
            {
              "internalType": "uint256",
              "name": "initialIssuanceRate",
              "type": "uint256"
            },
            {
              "internalType": "uint256",
              "name": "premintTokenAmount",
              "type": "uint256"
            },
            {
              "internalType": "uint256",
              "name": "priceCeilingIncreaseFrequency",
              "type": "uint256"
            },
            {
              "internalType": "uint256",
              "name": "priceCeilingIncreasePercentage",
              "type": "uint256"
            },
            {
              "internalType": "uint256",
              "name": "priceFloorTaxIntensity",
              "type": "uint256"
            },
            {
              "components": [
                {
                  "internalType": "uint128",
                  "name": "rate",
                  "type": "uint128"
                },
                {
                  "internalType": "uint128",
                  "name": "startsAtOrAfter",
                  "type": "uint128"
                }
              ],
              "internalType": "struct Boost[]",
              "name": "boosts",
              "type": "tuple[]"
            }
          ],
          "internalType": "struct RevnetParams",
          "name": "_revnetData",
          "type": "tuple"
        },
        {
          "internalType": "contract IJBPaymentTerminal[]",
          "name": "_terminals",
          "type": "address[]"
        },
        {
          "components": [
            {
              "internalType": "contract IJBGenericBuybackDelegate",
              "name": "hook",
              "type": "address"
            },
            {
              "components": [
                {
                  "internalType": "address",
                  "name": "token",
                  "type": "address"
                },
                {
                  "internalType": "uint24",
                  "name": "fee",
                  "type": "uint24"
                },
                {
                  "internalType": "uint32",
                  "name": "twapWindow",
                  "type": "uint32"
                },
                {
                  "internalType": "uint32",
                  "name": "twapSlippageTolerance",
                  "type": "uint32"
                }
              ],
              "internalType": "struct BuybackPool[]",
              "name": "pools",
              "type": "tuple[]"
            }
          ],
          "internalType": "struct BuybackHookSetupData",
          "name": "_buybackHookSetupData",
          "type": "tuple"
        }
      ],
      "name": "deployRevnetFor",
      "outputs": [
        {
          "internalType": "uint256",
          "name": "revnetId",
          "type": "uint256"
        }
      ],
      "stateMutability": "nonpayable",
      "type": "function"
    },
    {
      "inputs": [
        {
          "internalType": "address",
          "name": "_boostOperator",
          "type": "address"
        },
        {
          "components": [
            {
              "internalType": "string",
              "name": "content",
              "type": "string"
            },
            {
              "internalType": "uint256",
              "name": "domain",
              "type": "uint256"
            }
          ],
          "internalType": "struct JBProjectMetadata",
          "name": "_revnetMetadata",
          "type": "tuple"
        },
        {
          "internalType": "string",
          "name": "_name",
          "type": "string"
        },
        {
          "internalType": "string",
          "name": "_symbol",
          "type": "string"
        },
        {
          "components": [
            {
              "internalType": "uint256",
              "name": "initialIssuanceRate",
              "type": "uint256"
            },
            {
              "internalType": "uint256",
              "name": "premintTokenAmount",
              "type": "uint256"
            },
            {
              "internalType": "uint256",
              "name": "priceCeilingIncreaseFrequency",
              "type": "uint256"
            },
            {
              "internalType": "uint256",
              "name": "priceCeilingIncreasePercentage",
              "type": "uint256"
            },
            {
              "internalType": "uint256",
              "name": "priceFloorTaxIntensity",
              "type": "uint256"
            },
            {
              "components": [
                {
                  "internalType": "uint128",
                  "name": "rate",
                  "type": "uint128"
                },
                {
                  "internalType": "uint128",
                  "name": "startsAtOrAfter",
                  "type": "uint128"
                }
              ],
              "internalType": "struct Boost[]",
              "name": "boosts",
              "type": "tuple[]"
            }
          ],
          "internalType": "struct RevnetParams",
          "name": "_revnetData",
          "type": "tuple"
        },
        {
          "internalType": "contract IJBPaymentTerminal[]",
          "name": "_terminals",
          "type": "address[]"
        },
        {
          "components": [
            {
              "internalType": "contract IJBGenericBuybackDelegate",
              "name": "hook",
              "type": "address"
            },
            {
              "components": [
                {
                  "internalType": "address",
                  "name": "token",
                  "type": "address"
                },
                {
                  "internalType": "uint24",
                  "name": "fee",
                  "type": "uint24"
                },
                {
                  "internalType": "uint32",
                  "name": "twapWindow",
                  "type": "uint32"
                },
                {
                  "internalType": "uint32",
                  "name": "twapSlippageTolerance",
                  "type": "uint32"
                }
              ],
              "internalType": "struct BuybackPool[]",
              "name": "pools",
              "type": "tuple[]"
            }
          ],
          "internalType": "struct BuybackHookSetupData",
          "name": "_buybackHookSetupData",
          "type": "tuple"
        },
        {
          "components": [
            {
              "internalType": "string",
              "name": "name",
              "type": "string"
            },
            {
              "internalType": "string",
              "name": "symbol",
              "type": "string"
            },
            {
              "internalType": "contract IJBFundingCycleStore",
              "name": "fundingCycleStore",
              "type": "address"
            },
            {
              "internalType": "string",
              "name": "baseUri",
              "type": "string"
            },
            {
              "internalType": "contract IJB721TokenUriResolver",
              "name": "tokenUriResolver",
              "type": "address"
            },
            {
              "internalType": "string",
              "name": "contractUri",
              "type": "string"
            },
            {
              "components": [
                {
                  "components": [
                    {
                      "internalType": "uint104",
                      "name": "price",
                      "type": "uint104"
                    },
                    {
                      "internalType": "uint32",
                      "name": "initialQuantity",
                      "type": "uint32"
                    },
                    {
                      "internalType": "uint32",
                      "name": "votingUnits",
                      "type": "uint32"
                    },
                    {
                      "internalType": "uint16",
                      "name": "reservedRate",
                      "type": "uint16"
                    },
                    {
                      "internalType": "address",
                      "name": "reservedTokenBeneficiary",
                      "type": "address"
                    },
                    {
                      "internalType": "bytes32",
                      "name": "encodedIPFSUri",
                      "type": "bytes32"
                    },
                    {
                      "internalType": "uint24",
                      "name": "category",
                      "type": "uint24"
                    },
                    {
                      "internalType": "bool",
                      "name": "allowManualMint",
                      "type": "bool"
                    },
                    {
                      "internalType": "bool",
                      "name": "shouldUseReservedTokenBeneficiaryAsDefault",
                      "type": "bool"
                    },
                    {
                      "internalType": "bool",
                      "name": "transfersPausable",
                      "type": "bool"
                    },
                    {
                      "internalType": "bool",
                      "name": "useVotingUnits",
                      "type": "bool"
                    }
                  ],
                  "internalType": "struct JB721TierParams[]",
                  "name": "tiers",
                  "type": "tuple[]"
                },
                {
                  "internalType": "uint48",
                  "name": "currency",
                  "type": "uint48"
                },
                {
                  "internalType": "uint48",
                  "name": "decimals",
                  "type": "uint48"
                },
                {
                  "internalType": "contract IJBPrices",
                  "name": "prices",
                  "type": "address"
                }
              ],
              "internalType": "struct JB721PricingParams",
              "name": "pricing",
              "type": "tuple"
            },
            {
              "internalType": "address",
              "name": "reservedTokenBeneficiary",
              "type": "address"
            },
            {
              "internalType": "contract IJBTiered721DelegateStore",
              "name": "store",
              "type": "address"
            },
            {
              "components": [
                {
                  "internalType": "bool",
                  "name": "lockReservedTokenChanges",
                  "type": "bool"
                },
                {
                  "internalType": "bool",
                  "name": "lockVotingUnitChanges",
                  "type": "bool"
                },
                {
                  "internalType": "bool",
                  "name": "lockManualMintingChanges",
                  "type": "bool"
                },
                {
                  "internalType": "bool",
                  "name": "preventOverspending",
                  "type": "bool"
                }
              ],
              "internalType": "struct JBTiered721Flags",
              "name": "flags",
              "type": "tuple"
            },
            {
              "internalType": "enum JB721GovernanceType",
              "name": "governanceType",
              "type": "uint8"
            }
          ],
          "internalType": "struct JBDeployTiered721DelegateData",
          "name": "_tiered721SetupData",
          "type": "tuple"
        },
        {
          "components": [
            {
              "internalType": "contract IJBPayDelegate3_1_1",
              "name": "delegate",
              "type": "address"
            },
            {
              "internalType": "uint256",
              "name": "amount",
              "type": "uint256"
            },
            {
              "internalType": "bytes",
              "name": "metadata",
              "type": "bytes"
            }
          ],
          "internalType": "struct JBPayDelegateAllocation3_1_1[]",
          "name": "_otherPayHooks",
          "type": "tuple[]"
        },
        {
          "internalType": "uint8",
          "name": "_extraCycleMetadata",
          "type": "uint8"
        }
      ],
      "name": "deployTiered721RevnetFor",
      "outputs": [
        {
          "internalType": "uint256",
          "name": "revnetId",
          "type": "uint256"
        }
      ],
      "stateMutability": "nonpayable",
      "type": "function"
    },
    {
      "inputs": [],
      "name": "directory",
      "outputs": [
        {
          "internalType": "contract IJBDirectory",
          "name": "",
          "type": "address"
        }
      ],
      "stateMutability": "view",
      "type": "function"
    },
    {
      "inputs": [
        {
          "internalType": "address",
          "name": "_operator",
          "type": "address"
        },
        {
          "internalType": "address",
          "name": "_from",
          "type": "address"
        },
        {
          "internalType": "uint256",
          "name": "_tokenId",
          "type": "uint256"
        },
        {
          "internalType": "bytes",
          "name": "_data",
          "type": "bytes"
        }
      ],
      "name": "onERC721Received",
      "outputs": [
        {
          "internalType": "bytes4",
          "name": "",
          "type": "bytes4"
        }
      ],
      "stateMutability": "view",
      "type": "function"
    },
    {
      "inputs": [
        {
          "internalType": "uint256",
          "name": "",
          "type": "uint256"
        },
        {
          "internalType": "uint256",
          "name": "",
          "type": "uint256"
        }
      ],
      "name": "payHooksOf",
      "outputs": [
        {
          "internalType": "contract IJBPayDelegate3_1_1",
          "name": "delegate",
          "type": "address"
        },
        {
          "internalType": "uint256",
          "name": "amount",
          "type": "uint256"
        },
        {
          "internalType": "bytes",
          "name": "metadata",
          "type": "bytes"
        }
      ],
      "stateMutability": "view",
      "type": "function"
    },
    {
      "inputs": [
        {
          "components": [
            {
              "internalType": "contract IJBPaymentTerminal",
              "name": "terminal",
              "type": "address"
            },
            {
              "internalType": "address",
              "name": "payer",
              "type": "address"
            },
            {
              "components": [
                {
                  "internalType": "address",
                  "name": "token",
                  "type": "address"
                },
                {
                  "internalType": "uint256",
                  "name": "value",
                  "type": "uint256"
                },
                {
                  "internalType": "uint256",
                  "name": "decimals",
                  "type": "uint256"
                },
                {
                  "internalType": "uint256",
                  "name": "currency",
                  "type": "uint256"
                }
              ],
              "internalType": "struct JBTokenAmount",
              "name": "amount",
              "type": "tuple"
            },
            {
              "internalType": "uint256",
              "name": "projectId",
              "type": "uint256"
            },
            {
              "internalType": "uint256",
              "name": "currentFundingCycleConfiguration",
              "type": "uint256"
            },
            {
              "internalType": "address",
              "name": "beneficiary",
              "type": "address"
            },
            {
              "internalType": "uint256",
              "name": "weight",
              "type": "uint256"
            },
            {
              "internalType": "uint256",
              "name": "reservedRate",
              "type": "uint256"
            },
            {
              "internalType": "string",
              "name": "memo",
              "type": "string"
            },
            {
              "internalType": "bytes",
              "name": "metadata",
              "type": "bytes"
            }
          ],
          "internalType": "struct JBPayParamsData",
          "name": "_data",
          "type": "tuple"
        }
      ],
      "name": "payParams",
      "outputs": [
        {
          "internalType": "uint256",
          "name": "weight",
          "type": "uint256"
        },
        {
          "internalType": "string",
          "name": "memo",
          "type": "string"
        },
        {
          "components": [
            {
              "internalType": "contract IJBPayDelegate3_1_1",
              "name": "delegate",
              "type": "address"
            },
            {
              "internalType": "uint256",
              "name": "amount",
              "type": "uint256"
            },
            {
              "internalType": "bytes",
              "name": "metadata",
              "type": "bytes"
            }
          ],
          "internalType": "struct JBPayDelegateAllocation3_1_1[]",
          "name": "payHooks",
          "type": "tuple[]"
        }
      ],
      "stateMutability": "view",
      "type": "function"
    },
    {
      "inputs": [
        {
          "components": [
            {
              "internalType": "contract IJBPaymentTerminal",
              "name": "terminal",
              "type": "address"
            },
            {
              "internalType": "address",
              "name": "holder",
              "type": "address"
            },
            {
              "internalType": "uint256",
              "name": "projectId",
              "type": "uint256"
            },
            {
              "internalType": "uint256",
              "name": "currentFundingCycleConfiguration",
              "type": "uint256"
            },
            {
              "internalType": "uint256",
              "name": "tokenCount",
              "type": "uint256"
            },
            {
              "internalType": "uint256",
              "name": "totalSupply",
              "type": "uint256"
            },
            {
              "internalType": "uint256",
              "name": "overflow",
              "type": "uint256"
            },
            {
              "components": [
                {
                  "internalType": "address",
                  "name": "token",
                  "type": "address"
                },
                {
                  "internalType": "uint256",
                  "name": "value",
                  "type": "uint256"
                },
                {
                  "internalType": "uint256",
                  "name": "decimals",
                  "type": "uint256"
                },
                {
                  "internalType": "uint256",
                  "name": "currency",
                  "type": "uint256"
                }
              ],
              "internalType": "struct JBTokenAmount",
              "name": "reclaimAmount",
              "type": "tuple"
            },
            {
              "internalType": "bool",
              "name": "useTotalOverflow",
              "type": "bool"
            },
            {
              "internalType": "uint256",
              "name": "redemptionRate",
              "type": "uint256"
            },
            {
              "internalType": "string",
              "name": "memo",
              "type": "string"
            },
            {
              "internalType": "bytes",
              "name": "metadata",
              "type": "bytes"
            }
          ],
          "internalType": "struct JBRedeemParamsData",
          "name": "_data",
          "type": "tuple"
        }
      ],
      "name": "redeemParams",
      "outputs": [
        {
          "internalType": "uint256",
          "name": "",
          "type": "uint256"
        },
        {
          "internalType": "string",
          "name": "",
          "type": "string"
        },
        {
          "components": [
            {
              "internalType": "contract IJBRedemptionDelegate3_1_1",
              "name": "delegate",
              "type": "address"
            },
            {
              "internalType": "uint256",
              "name": "amount",
              "type": "uint256"
            },
            {
              "internalType": "bytes",
              "name": "metadata",
              "type": "bytes"
            }
          ],
          "internalType": "struct JBRedemptionDelegateAllocation3_1_1[]",
          "name": "",
          "type": "tuple[]"
        }
      ],
      "stateMutability": "view",
      "type": "function"
    },
    {
      "inputs": [
        {
          "internalType": "uint256",
          "name": "_revnetId",
          "type": "uint256"
        },
        {
          "internalType": "address",
          "name": "_newBoostOperator",
          "type": "address"
        }
      ],
      "name": "replaceBoostOperatorOf",
      "outputs": [],
      "stateMutability": "nonpayable",
      "type": "function"
    },
    {
      "inputs": [
        {
          "internalType": "uint256",
          "name": "_revnetId",
          "type": "uint256"
        }
      ],
      "name": "scheduleNextBoostOf",
      "outputs": [],
      "stateMutability": "nonpayable",
      "type": "function"
    },
    {
      "inputs": [
        {
          "internalType": "bytes4",
          "name": "_interfaceId",
          "type": "bytes4"
        }
      ],
      "name": "supportsInterface",
      "outputs": [
        {
          "internalType": "bool",
          "name": "",
          "type": "bool"
        }
      ],
      "stateMutability": "view",
      "type": "function"
    },
    {
      "inputs": [],
      "name": "tiered721HookDeployer",
      "outputs": [
        {
          "internalType": "contract IJBTiered721DelegateDeployer",
          "name": "",
          "type": "address"
        }
      ],
      "stateMutability": "view",
      "type": "function"
    }
  ],
  "bytecode": {
    "object": "0x60e06040523480156200001157600080fd5b5060405162005b5338038062005b538339810160408190526200003491620000da565b6001600160a01b0390811660805260018054808201825560127fb10e2d527612073b26eecdfd717e6a320cf44b4afac2b0732d9fcbe2b7fa0cf69182015581548083018355601891015560058054918201815560005260097f036b6384b5eca791c62761152d0c79bb0604c104a5fb6f4eb0703f3154bb3db09091015591821660a0521660c0526200012e565b6001600160a01b0381168114620000d757600080fd5b50565b600080600060608486031215620000f057600080fd5b8351620000fd81620000c1565b60208501519093506200011081620000c1565b60408501519092506200012381620000c1565b809150509250925092565b60805160a05160c051615962620001f1600039600081816102eb0152610829015260008181610338015261061e0152600081816103940152818161050a0152818161092801528181610adb01528181610cb501528181610eae01528181610fbc015281816110d5015281816113a101528181611480015281816117da015281816118e801528181611a0101528181611d0201528181611dca01528181611fb10152818161214f015281816127230152818161297f0152612f1301526159626000f3fe608060405234801561001057600080fd5b50600436106101365760003560e01c8063a51cfd18116100b2578063b82f18c111610081578063d46cf17111610066578063d46cf1711461035a578063ec3004ac1461037c578063f77c47911461038f57600080fd5b8063b82f18c114610320578063c41c2f241461033357600080fd5b8063a51cfd18146102a4578063ad011669146102c6578063ade6b6db146102e6578063b58e84cc1461030d57600080fd5b806334116e8f1161010957806348dc59b6116100ee57806348dc59b6146102145780637249a773146102275780637a56f9821461028257600080fd5b806334116e8f146101ec578063440cfb7b146101ff57600080fd5b806301a7d01a1461013b57806301ffc9a714610164578063086e941b14610187578063150b7a02146101a8575b600080fd5b61014e61014936600461309e565b6103b6565b60405161015b91906130b7565b60405180910390f35b61017761017236600461311c565b61044c565b604051901515815260200161015b565b61019a61019536600461309e565b6104e5565b60405190815260200161015b565b6101bb6101b636600461319a565b610506565b6040517fffffffff00000000000000000000000000000000000000000000000000000000909116815260200161015b565b61019a6101fa366004613c76565b61061a565b61021261020d366004613dd9565b610926565b005b61019a610222366004613e09565b610e9e565b61025d61023536600461309e565b60036020526000908152604090205473ffffffffffffffffffffffffffffffffffffffff1681565b60405173ffffffffffffffffffffffffffffffffffffffff909116815260200161015b565b610295610290366004613f10565b61167f565b60405161015b93929190613fa0565b6102b76102b2366004613fde565b611762565b60405161015b9392919061401a565b61019a6102d436600461309e565b60026020526000908152604090205481565b61025d7f000000000000000000000000000000000000000000000000000000000000000081565b61019a61031b3660046140e3565b6117ca565b61019a61032e36600461309e565b612360565b61025d7f000000000000000000000000000000000000000000000000000000000000000081565b61036d610368366004614220565b612370565b60405161015b9392919061425c565b61021261038a36600461309e565b6126da565b61025d7f000000000000000000000000000000000000000000000000000000000000000081565b600081815260208181526040808320805482518185028101850190935280835260609492939192909184015b8282101561044157600084815260209081902060408051808201909152908401546fffffffffffffffffffffffffffffffff808216835270010000000000000000000000000000000090910416818301528252600190920191016103e2565b505050509050919050565b60007fffffffff0000000000000000000000000000000000000000000000000000000082167f71700c690000000000000000000000000000000000000000000000000000000014806104df57507f150b7a02000000000000000000000000000000000000000000000000000000007fffffffff000000000000000000000000000000000000000000000000000000008316145b92915050565b600581815481106104f557600080fd5b600091825260209091200154905081565b60007f000000000000000000000000000000000000000000000000000000000000000073ffffffffffffffffffffffffffffffffffffffff16638b79543c6040518163ffffffff1660e01b8152600401602060405180830381865afa158015610573573d6000803e3d6000fd5b505050506040513d601f19601f820116820180604052508101906105979190614313565b73ffffffffffffffffffffffffffffffffffffffff163373ffffffffffffffffffffffffffffffffffffffff16146105ce57600080fd5b73ffffffffffffffffffffffffffffffffffffffff8516156105ef57600080fd5b507f150b7a020000000000000000000000000000000000000000000000000000000095945050505050565b60007f000000000000000000000000000000000000000000000000000000000000000073ffffffffffffffffffffffffffffffffffffffff16638b79543c6040518163ffffffff1660e01b8152600401602060405180830381865afa158015610687573d6000803e3d6000fd5b505050506040513d601f19601f820116820180604052508101906106ab9190614313565b73ffffffffffffffffffffffffffffffffffffffff166306661abd6040518163ffffffff1660e01b8152600401602060405180830381865afa1580156106f5573d6000803e3d6000fd5b505050506040513d601f19601f820116820180604052508101906107199190614330565b610724906001614378565b83519091506000610736826001614378565b67ffffffffffffffff81111561074e5761074e613239565b60405190808252806020026020018201604052801561079b57816020015b6040805160608082018352600080835260208301529181019190915281526020019060019003908161076c5790505b50905060005b828110156107e8578581815181106107bb576107bb61438b565b60200260200101518282815181106107d5576107d561438b565b60209081029190910101526001016107a1565b506040517f70d7f24900000000000000000000000000000000000000000000000000000000815260009073ffffffffffffffffffffffffffffffffffffffff7f000000000000000000000000000000000000000000000000000000000000000016906370d7f249906108609087908b9060040161453e565b6020604051808303816000875af115801561087f573d6000803e3d6000fd5b505050506040513d601f19601f820116820180604052508101906108a39190614313565b905060405180606001604052808273ffffffffffffffffffffffffffffffffffffffff16815260200160008152602001604051806020016040528060008152508152508284815181106108f8576108f861438b565b60200260200101819052506109148e8e8e8e8e8e8e898d6117ca565b505050509a9950505050505050505050565b7f000000000000000000000000000000000000000000000000000000000000000073ffffffffffffffffffffffffffffffffffffffff16632bdfe0046040518163ffffffff1660e01b8152600401602060405180830381865afa158015610991573d6000803e3d6000fd5b505050506040513d601f19601f820116820180604052508101906109b59190614313565b73ffffffffffffffffffffffffffffffffffffffff1663ad007d636040518163ffffffff1660e01b8152600401602060405180830381865afa1580156109ff573d6000803e3d6000fd5b505050506040513d601f19601f82011682018060405250810190610a239190614313565b73ffffffffffffffffffffffffffffffffffffffff16630f5932f033308560016040518563ffffffff1660e01b8152600401610a629493929190614731565b602060405180830381865afa158015610a7f573d6000803e3d6000fd5b505050506040513d601f19601f82011682018060405250810190610aa3919061477b565b610ad9576040517f075fd2b100000000000000000000000000000000000000000000000000000000815260040160405180910390fd5b7f000000000000000000000000000000000000000000000000000000000000000073ffffffffffffffffffffffffffffffffffffffff16632bdfe0046040518163ffffffff1660e01b8152600401602060405180830381865afa158015610b44573d6000803e3d6000fd5b505050506040513d601f19601f82011682018060405250810190610b689190614313565b73ffffffffffffffffffffffffffffffffffffffff1663ad007d636040518163ffffffff1660e01b8152600401602060405180830381865afa158015610bb2573d6000803e3d6000fd5b505050506040513d601f19601f82011682018060405250810190610bd69190614313565b73ffffffffffffffffffffffffffffffffffffffff1663529cdd2e60405180606001604052803373ffffffffffffffffffffffffffffffffffffffff168152602001858152602001600067ffffffffffffffff811115610c3857610c38613239565b604051908082528060200260200182016040528015610c61578160200160208202803683370190505b508152506040518263ffffffff1660e01b8152600401610c819190614798565b600060405180830381600087803b158015610c9b57600080fd5b505af1158015610caf573d6000803e3d6000fd5b505050507f000000000000000000000000000000000000000000000000000000000000000073ffffffffffffffffffffffffffffffffffffffff16632bdfe0046040518163ffffffff1660e01b8152600401602060405180830381865afa158015610d1e573d6000803e3d6000fd5b505050506040513d601f19601f82011682018060405250810190610d429190614313565b73ffffffffffffffffffffffffffffffffffffffff1663ad007d636040518163ffffffff1660e01b8152600401602060405180830381865afa158015610d8c573d6000803e3d6000fd5b505050506040513d601f19601f82011682018060405250810190610db09190614313565b73ffffffffffffffffffffffffffffffffffffffff1663529cdd2e60405180606001604052808473ffffffffffffffffffffffffffffffffffffffff1681526020018581526020016001805480602002602001604051908101604052809291908181526020018280548015610e4457602002820191906000526020600020905b815481526020019060010190808311610e30575b50505050508152506040518263ffffffff1660e01b8152600401610e689190614798565b600060405180830381600087803b158015610e8257600080fd5b505af1158015610e96573d6000803e3d6000fd5b505050505050565b600080610eaa89612ab2565b90507f000000000000000000000000000000000000000000000000000000000000000073ffffffffffffffffffffffffffffffffffffffff16638b79543c6040518163ffffffff1660e01b8152600401602060405180830381865afa158015610f17573d6000803e3d6000fd5b505050506040513d601f19601f82011682018060405250810190610f3b9190614313565b73ffffffffffffffffffffffffffffffffffffffff1663666d87a0308a6040518363ffffffff1660e01b8152600401610f75929190614809565b6020604051808303816000875af1158015610f94573d6000803e3d6000fd5b505050506040513d601f19601f82011682018060405250810190610fb89190614330565b91507f000000000000000000000000000000000000000000000000000000000000000073ffffffffffffffffffffffffffffffffffffffff1663619306306040518163ffffffff1660e01b8152600401602060405180830381865afa158015611025573d6000803e3d6000fd5b505050506040513d601f19601f820116820180604052508101906110499190614313565b73ffffffffffffffffffffffffffffffffffffffff1663a7f2a70b8389896040518463ffffffff1660e01b815260040161108593929190614857565b6020604051808303816000875af11580156110a4573d6000803e3d6000fd5b505050506040513d601f19601f820116820180604052508101906110c89190614313565b506110d38284612c38565b7f000000000000000000000000000000000000000000000000000000000000000073ffffffffffffffffffffffffffffffffffffffff1663111d861b836040518060800160405280896040015181526020018960000151670de0b6b3a764000061113d9190614882565b815260608a01516020808301919091526000604092830181905282516102a0810190935261024083018181526102608401829052610280840191909152825260a08b01515190820190156111b3578a60a001516000815181106111a2576111a261438b565b6020026020010151600001516111b6565b60005b6fffffffffffffffffffffffffffffffff1681526020018a608001516127106111df9190614899565b815260006020820181905260408201819052606082018190526080820181905260a0808301829052600160c0840181905260e0840183905261010084018390526101208401839052610140840183905261016084018390526101808401526101a083018290528a5173ffffffffffffffffffffffffffffffffffffffff166101c08401526101e0909201528a0151511561129b578960a0015160008151811061128a5761128a61438b565b60200260200101516020015161129e565b60005b60408051600080825260208201909252889161132d565b61131a6040518060c00160405280600073ffffffffffffffffffffffffffffffffffffffff168152602001600073ffffffffffffffffffffffffffffffffffffffff168152602001600081526020016000815260200160008152602001600081525090565b8152602001906001900390816112b55790505b508b6040518863ffffffff1660e01b81526004016113519796959493929190614b88565b6020604051808303816000875af1158015611370573d6000803e3d6000fd5b505050506040513d601f19601f820116820180604052508101906113949190614330565b5060208501511561147e577f000000000000000000000000000000000000000000000000000000000000000073ffffffffffffffffffffffffffffffffffffffff16638ae9c07b838760200151670de0b6b3a76400006113f49190614882565b8c8a6040516020016114069190614cb8565b6040516020818303038152906040526000806040518763ffffffff1660e01b815260040161143996959493929190614d24565b6020604051808303816000875af1158015611458573d6000803e3d6000fd5b505050506040513d601f19601f8201168201806040525081019061147c9190614330565b505b7f000000000000000000000000000000000000000000000000000000000000000073ffffffffffffffffffffffffffffffffffffffff16632bdfe0046040518163ffffffff1660e01b8152600401602060405180830381865afa1580156114e9573d6000803e3d6000fd5b505050506040513d601f19601f8201168201806040525081019061150d9190614313565b73ffffffffffffffffffffffffffffffffffffffff1663ad007d636040518163ffffffff1660e01b8152600401602060405180830381865afa158015611557573d6000803e3d6000fd5b505050506040513d601f19601f8201168201806040525081019061157b9190614313565b73ffffffffffffffffffffffffffffffffffffffff1663529cdd2e60405180606001604052808c73ffffffffffffffffffffffffffffffffffffffff168152602001858152602001600180548060200260200160405190810160405280929190818152602001828054801561160f57602002820191906000526020600020905b8154815260200190600101908083116115fb575b50505050508152506040518263ffffffff1660e01b81526004016116339190614798565b600060405180830381600087803b15801561164d57600080fd5b505af1158015611661573d6000803e3d6000fd5b50505050611673828660a00151612d6b565b50979650505050505050565b6004602052816000526040600020818154811061169b57600080fd5b600091825260209091206003909102018054600182015460028301805473ffffffffffffffffffffffffffffffffffffffff9093169550909350906116df90614d79565b80601f016020809104026020016040519081016040528092919081815260200182805461170b90614d79565b80156117585780601f1061172d57610100808354040283529160200191611758565b820191906000526020600020905b81548152906001019060200180831161173b57829003601f168201915b5050505050905083565b6040805160008082526020820190925260609081908390816117ae565b6040805160608082018352600080835260208301529181019190915281526020019060019003908161177f5790505b5060408051602081019091526000815291969195509350915050565b6000806117d68b612ab2565b90507f000000000000000000000000000000000000000000000000000000000000000073ffffffffffffffffffffffffffffffffffffffff16638b79543c6040518163ffffffff1660e01b8152600401602060405180830381865afa158015611843573d6000803e3d6000fd5b505050506040513d601f19601f820116820180604052508101906118679190614313565b73ffffffffffffffffffffffffffffffffffffffff1663666d87a0308c6040518363ffffffff1660e01b81526004016118a1929190614809565b6020604051808303816000875af11580156118c0573d6000803e3d6000fd5b505050506040513d601f19601f820116820180604052508101906118e49190614330565b91507f000000000000000000000000000000000000000000000000000000000000000073ffffffffffffffffffffffffffffffffffffffff1663619306306040518163ffffffff1660e01b8152600401602060405180830381865afa158015611951573d6000803e3d6000fd5b505050506040513d601f19601f820116820180604052508101906119759190614313565b73ffffffffffffffffffffffffffffffffffffffff1663a7f2a70b838b8b6040518463ffffffff1660e01b81526004016119b193929190614857565b6020604051808303816000875af11580156119d0573d6000803e3d6000fd5b505050506040513d601f19601f820116820180604052508101906119f49190614313565b506119ff8286612c38565b7f000000000000000000000000000000000000000000000000000000000000000073ffffffffffffffffffffffffffffffffffffffff1663111d861b8360405180608001604052808b60400151815260200160128c60000151611a629190614eec565b815260608c01516020808301919091526000604092830181905282516102a0810190935261024083018181526102608401829052610280840191909152825260a08d0151519082019015611ad8578c60a00151600081518110611ac757611ac761438b565b602002602001015160000151611adb565b60005b6fffffffffffffffffffffffffffffffff1681526020018c60800151612710611b049190614899565b815260006020820181905260408201819052606082018190526080820181905260a0808301829052600160c0840181905260e0840183905261010084018390526101208401839052610140840183905261016084018390526101808401526101a0830191909152306101c083015260ff8a166101e0909201919091528c01515115611bb1578b60a00151600081518110611ba057611ba061438b565b602002602001015160200151611bb4565b60005b604080516000808252602082019092528891611c43565b611c306040518060c00160405280600073ffffffffffffffffffffffffffffffffffffffff168152602001600073ffffffffffffffffffffffffffffffffffffffff168152602001600081526020016000815260200160008152602001600081525090565b815260200190600190039081611bcb5790505b508d6040518863ffffffff1660e01b8152600401611c679796959493929190614b88565b6020604051808303816000875af1158015611c86573d6000803e3d6000fd5b505050506040513d601f19601f82011682018060405250810190611caa9190614330565b508451600083815260036020908152604090912080547fffffffffffffffffffffffff00000000000000000000000000000000000000001673ffffffffffffffffffffffffffffffffffffffff9384161790558801517f000000000000000000000000000000000000000000000000000000000000000090911690638ae9c07b908490611d3f90670de0b6b3a7640000614882565b8e8c604051602001611d519190614cb8565b6040516020818303038152906040526000806040518763ffffffff1660e01b8152600401611d8496959493929190614d24565b6020604051808303816000875af1158015611da3573d6000803e3d6000fd5b505050506040513d601f19601f82011682018060405250810190611dc79190614330565b507f000000000000000000000000000000000000000000000000000000000000000073ffffffffffffffffffffffffffffffffffffffff16632bdfe0046040518163ffffffff1660e01b8152600401602060405180830381865afa158015611e33573d6000803e3d6000fd5b505050506040513d601f19601f82011682018060405250810190611e579190614313565b73ffffffffffffffffffffffffffffffffffffffff1663ad007d636040518163ffffffff1660e01b8152600401602060405180830381865afa158015611ea1573d6000803e3d6000fd5b505050506040513d601f19601f82011682018060405250810190611ec59190614313565b73ffffffffffffffffffffffffffffffffffffffff1663529cdd2e60405180606001604052808e73ffffffffffffffffffffffffffffffffffffffff1681526020018581526020016001805480602002602001604051908101604052809291908181526020018280548015611f5957602002820191906000526020600020905b815481526020019060010190808311611f45575b50505050508152506040518263ffffffff1660e01b8152600401611f7d9190614798565b600060405180830381600087803b158015611f9757600080fd5b505af1158015611fab573d6000803e3d6000fd5b505050507f000000000000000000000000000000000000000000000000000000000000000073ffffffffffffffffffffffffffffffffffffffff16632bdfe0046040518163ffffffff1660e01b8152600401602060405180830381865afa15801561201a573d6000803e3d6000fd5b505050506040513d601f19601f8201168201806040525081019061203e9190614313565b73ffffffffffffffffffffffffffffffffffffffff1663ad007d636040518163ffffffff1660e01b8152600401602060405180830381865afa158015612088573d6000803e3d6000fd5b505050506040513d601f19601f820116820180604052508101906120ac9190614313565b85516040517f0f5932f000000000000000000000000000000000000000000000000000000000815273ffffffffffffffffffffffffffffffffffffffff9290921691630f5932f091612108913090600090600590600401614731565b602060405180830381865afa158015612125573d6000803e3d6000fd5b505050506040513d601f19601f82011682018060405250810190612149919061477b565b61233a577f000000000000000000000000000000000000000000000000000000000000000073ffffffffffffffffffffffffffffffffffffffff16632bdfe0046040518163ffffffff1660e01b8152600401602060405180830381865afa1580156121b8573d6000803e3d6000fd5b505050506040513d601f19601f820116820180604052508101906121dc9190614313565b73ffffffffffffffffffffffffffffffffffffffff1663ad007d636040518163ffffffff1660e01b8152600401602060405180830381865afa158015612226573d6000803e3d6000fd5b505050506040513d601f19601f8201168201806040525081019061224a9190614313565b73ffffffffffffffffffffffffffffffffffffffff1663529cdd2e6040518060600160405280886000015173ffffffffffffffffffffffffffffffffffffffff1681526020016000815260200160058054806020026020016040519081016040528092919081815260200182805480156122e357602002820191906000526020600020905b8154815260200190600101908083116122cf575b50505050508152506040518263ffffffff1660e01b81526004016123079190614798565b600060405180830381600087803b15801561232157600080fd5b505af1158015612335573d6000803e3d6000fd5b505050505b612348828860a00151612d6b565b6123528285612e05565b509998505050505050505050565b600181815481106104f557600080fd5b60c08101356000908152600360205260408082205490517fd46cf1710000000000000000000000000000000000000000000000000000000081526060918291829173ffffffffffffffffffffffffffffffffffffffff169063d46cf171906123dc908890600401614ff1565b600060405180830381865afa1580156123f9573d6000803e3d6000fd5b505050506040513d6000823e601f3d9081017fffffffffffffffffffffffffffffffffffffffffffffffffffffffffffffffe016820160405261243f9190810190615165565b805160c089013560009081526004602090815260408083208054825181850281018501909352808352979b5094975092151595919450919291849084015b8282101561256e5760008481526020908190206040805160608101825260038602909201805473ffffffffffffffffffffffffffffffffffffffff168352600181015493830193909352600283018054929392918401916124dd90614d79565b80601f016020809104026020016040519081016040528092919081815260200182805461250990614d79565b80156125565780601f1061252b57610100808354040283529160200191612556565b820191906000526020600020905b81548152906001019060200180831161253957829003601f168201915b5050505050815250508152602001906001019061247d565b50505050905060008151905082612586576000612589565b60015b6125969060ff1682614378565b67ffffffffffffffff8111156125ae576125ae613239565b6040519080825280602002602001820160405280156125fb57816020015b604080516060808201835260008083526020830152918101919091528152602001906001900390816125cc5790505b50945060005b818110156126485782818151811061261b5761261b61438b565b60200260200101518682815181106126355761263561438b565b6020908102919091010152600101612601565b50821561268857836000815181106126625761266261438b565b602002602001015185828151811061267c5761267c61438b565b60200260200101819052505b6126966101608901896152de565b8080601f016020809104026020016040519081016040528093929190818152602001838380828437600092019190915250999b929a50969850909650505050505050565b6040517f1f51045300000000000000000000000000000000000000000000000000000000815260048101829052600090819073ffffffffffffffffffffffffffffffffffffffff7f00000000000000000000000000000000000000000000000000000000000000001690631f510453906024016103c060405180830381865afa15801561276b573d6000803e3d6000fd5b505050506040513d601f19601f8201168201806040525081019061278f91906154ff565b50600085815260026020526040812080549395509193509190826127b2836155b6565b909155506000858152602081905260409020549091508015806127d457508082145b806127e3575042846060015110155b1561281a576040517fc97554fa00000000000000000000000000000000000000000000000000000000815260040160405180910390fd5b600085815260208190526040812080548490811061283a5761283a61438b565b6000918252602080832060408051808201825293909101546fffffffffffffffffffffffffffffffff808216855270010000000000000000000000000000000090910481168484019081528251608080820185528c810151825281860188905260c0808e01518387015260608084018a905286516102a08101885261024081018b815261026082018c905261028082018c905281528951909616868901528d87015196860196909652948401889052830187905260a0830187905292820186905260e08201869052610100820186905261012082018690526101408201869052610160820186905261018082018690526101a082018690526101c082018690526101e0820195909552610200808a015173ffffffffffffffffffffffffffffffffffffffff908116918301919091526102208a810151908301529451928a01519395507f00000000000000000000000000000000000000000000000000000000000000009094169363badbdf28938b93906129b6908590612ece565b6040805160008082526020820190925290612a44565b612a316040518060c00160405280600073ffffffffffffffffffffffffffffffffffffffff168152602001600073ffffffffffffffffffffffffffffffffffffffff168152602001600081526020016000815260200160008152602001600081525090565b8152602001906001900390816129cc5790505b506040518763ffffffff1660e01b8152600401612a66969594939291906155ee565b6020604051808303816000875af1158015612a85573d6000803e3d6000fd5b505050506040513d601f19601f82011682018060405250810190612aa99190614330565b50505050505050565b604080516001808252818301909252606091816020015b604080518082019091526000815260606020820152815260200190600190039081612ac957505060408051600180825281830190925291925060009190602082015b6040805160e08101825260008082526020808301829052928201819052606082018190526080820181905260a0820181905260c082015282527fffffffffffffffffffffffffffffffffffffffffffffffffffffffffffffffff909201910181612b0b5790505090506040518060e00160405280600015158152602001600015158152602001633b9aca008152602001600081526020018473ffffffffffffffffffffffffffffffffffffffff16815260200160008152602001600073ffffffffffffffffffffffffffffffffffffffff1681525081600081518110612bf357612bf361438b565b60200260200101819052506040518060400160405280600281526020018281525082600081518110612c2757612c2761438b565b602002602001018190525050919050565b602081810151516040805160808101825260008082529381018490529081018390526060810183905290915b82811015612d645783602001518181518110612c8257612c8261438b565b6020908102919091018101518551918101516040808301516060840151845192517f7b621d3a000000000000000000000000000000000000000000000000000000008152600481018c905262ffffff909416602485015263ffffffff918216604485015216606483015273ffffffffffffffffffffffffffffffffffffffff9081166084830152919450911690637b621d3a9060a4016020604051808303816000875af1158015612d37573d6000803e3d6000fd5b505050506040513d601f19601f82011682018060405250810190612d5b9190614313565b50600101612c64565b5050505050565b80516001811115612e005760015b81811015612dfe5760008481526020819052604090208351849083908110612da357612da361438b565b602090810291909101810151825460018181018555600094855293839020825192909301516fffffffffffffffffffffffffffffffff9081167001000000000000000000000000000000000292169190911791015501612d79565b505b505050565b805160005b81811015612dfe57828181518110612e2457612e2461438b565b6020026020010151600460008681526020019081526020016000208281548110612e5057612e5061438b565b600091825260209182902083516003929092020180547fffffffffffffffffffffffff00000000000000000000000000000000000000001673ffffffffffffffffffffffffffffffffffffffff90921691909117815590820151600182015560408201516002820190612ec39082615714565b505050600101612e0a565b604080516001808252818301909252606091816020015b604080518082019091526000815260606020820152815260200190600190039081612ee557905050905060007f000000000000000000000000000000000000000000000000000000000000000073ffffffffffffffffffffffffffffffffffffffff16632bdfe0046040518163ffffffff1660e01b8152600401602060405180830381865afa158015612f7c573d6000803e3d6000fd5b505050506040513d601f19601f82011682018060405250810190612fa09190614313565b6040517f69e11cc500000000000000000000000000000000000000000000000000000000815260048101869052602481018590526002604482015273ffffffffffffffffffffffffffffffffffffffff91909116906369e11cc590606401600060405180830381865afa15801561301b573d6000803e3d6000fd5b505050506040513d6000823e601f3d9081017fffffffffffffffffffffffffffffffffffffffffffffffffffffffffffffffe0168201604052613061919081019061582e565b9050604051806040016040528060028152602001828152508260008151811061308c5761308c61438b565b60200260200101819052505092915050565b6000602082840312156130b057600080fd5b5035919050565b602080825282518282018190526000919060409081850190868401855b8281101561310f57815180516fffffffffffffffffffffffffffffffff908116865290870151168685015292840192908501906001016130d4565b5091979650505050505050565b60006020828403121561312e57600080fd5b81357fffffffff000000000000000000000000000000000000000000000000000000008116811461315e57600080fd5b9392505050565b73ffffffffffffffffffffffffffffffffffffffff8116811461318757600080fd5b50565b803561319581613165565b919050565b6000806000806000608086880312156131b257600080fd5b85356131bd81613165565b945060208601356131cd81613165565b935060408601359250606086013567ffffffffffffffff808211156131f157600080fd5b818801915088601f83011261320557600080fd5b81358181111561321457600080fd5b89602082850101111561322657600080fd5b9699959850939650602001949392505050565b7f4e487b7100000000000000000000000000000000000000000000000000000000600052604160045260246000fd5b6040805190810167ffffffffffffffff8111828210171561328b5761328b613239565b60405290565b60405160c0810167ffffffffffffffff8111828210171561328b5761328b613239565b6040516080810167ffffffffffffffff8111828210171561328b5761328b613239565b604051610160810167ffffffffffffffff8111828210171561328b5761328b613239565b6040516060810167ffffffffffffffff8111828210171561328b5761328b613239565b604051610240810167ffffffffffffffff8111828210171561328b5761328b613239565b604051610120810167ffffffffffffffff8111828210171561328b5761328b613239565b60405160e0810167ffffffffffffffff8111828210171561328b5761328b613239565b604051601f82017fffffffffffffffffffffffffffffffffffffffffffffffffffffffffffffffe016810167ffffffffffffffff811182821017156133d0576133d0613239565b604052919050565b600067ffffffffffffffff8211156133f2576133f2613239565b50601f017fffffffffffffffffffffffffffffffffffffffffffffffffffffffffffffffe01660200190565b600061343161342c846133d8565b613389565b905082815283838301111561344557600080fd5b828260208301376000602084830101529392505050565b600082601f83011261346d57600080fd5b61315e8383356020850161341e565b60006040828403121561348e57600080fd5b613496613268565b9050813567ffffffffffffffff8111156134af57600080fd5b6134bb8482850161345c565b8252506020820135602082015292915050565b600067ffffffffffffffff8211156134e8576134e8613239565b5060051b60200190565b80356fffffffffffffffffffffffffffffffff8116811461319557600080fd5b600060c0828403121561352457600080fd5b61352c613291565b9050813581526020808301358183015260408084013581840152606084013560608401526080840135608084015260a084013567ffffffffffffffff81111561357457600080fd5b8401601f8101861361358557600080fd5b803561359361342c826134ce565b81815260069190911b820184019084810190888311156135b257600080fd5b928501925b828410156136005784848a0312156135cf5760008081fd5b6135d7613268565b6135e0856134f2565b81526135ed8786016134f2565b81880152825292840192908501906135b7565b60a087015250939695505050505050565b600082601f83011261362257600080fd5b8135602061363261342c836134ce565b82815260059290921b8401810191818101908684111561365157600080fd5b8286015b8481101561367557803561366881613165565b8352918301918301613655565b509695505050505050565b803562ffffff8116811461319557600080fd5b803563ffffffff8116811461319557600080fd5b600060408083850312156136ba57600080fd5b6136c2613268565b915082356136cf81613165565b825260208381013567ffffffffffffffff8111156136ec57600080fd5b8401601f810186136136fd57600080fd5b803561370b61342c826134ce565b81815260079190911b8201830190838101908883111561372a57600080fd5b928401925b8284101561379e576080848a0312156137485760008081fd5b6137506132b4565b843561375b81613165565b8152613768858701613680565b86820152613777878601613693565b878201526060613788818701613693565b908201528252608093909301929084019061372f565b808588015250505050505092915050565b80356cffffffffffffffffffffffffff8116811461319557600080fd5b803561ffff8116811461319557600080fd5b801515811461318757600080fd5b8035613195816137de565b803565ffffffffffff8116811461319557600080fd5b6000608080838503121561382057600080fd5b6138286132b4565b9150823567ffffffffffffffff81111561384157600080fd5b8301601f8101851361385257600080fd5b8035602061386261342c836134ce565b828152610160928302840182019282820191908985111561388257600080fd5b948301945b848610156139635780868b03121561389f5760008081fd5b6138a76132d7565b6138b0876137af565b81526138bd858801613693565b8582015260406138ce818901613693565b9082015260606138df8882016137cc565b908201526138ee87890161318a565b8189015260a0878101359082015260c0613909818901613680565b9082015260e061391a8882016137ec565b9082015261010061392c8882016137ec565b9082015261012061393e8882016137ec565b908201526101406139508882016137ec565b9082015283529485019491830191613887565b508652506139728682016137f7565b8186015250505050613986604083016137f7565b60408201526139976060830161318a565b606082015292915050565b6000608082840312156139b457600080fd5b6139bc6132b4565b905081356139c9816137de565b815260208201356139d9816137de565b602082015260408201356139ec816137de565b60408201526060820135613997816137de565b80356002811061319557600080fd5b60006101c08284031215613a2157600080fd5b613a296132d7565b9050813567ffffffffffffffff80821115613a4357600080fd5b613a4f8583860161345c565b83526020840135915080821115613a6557600080fd5b613a718583860161345c565b6020840152613a826040850161318a565b60408401526060840135915080821115613a9b57600080fd5b613aa78583860161345c565b6060840152613ab86080850161318a565b608084015260a0840135915080821115613ad157600080fd5b613add8583860161345c565b60a084015260c0840135915080821115613af657600080fd5b50613b038482850161380d565b60c083015250613b1560e0830161318a565b60e0820152610100613b2881840161318a565b90820152610120613b3b848483016139a2565b90820152613b4c6101a083016139ff565b61014082015292915050565b600082601f830112613b6957600080fd5b81356020613b7961342c836134ce565b82815260059290921b84018101918181019086841115613b9857600080fd5b8286015b8481101561367557803567ffffffffffffffff80821115613bbd5760008081fd5b81890191506060807fffffffffffffffffffffffffffffffffffffffffffffffffffffffffffffffe0848d03011215613bf65760008081fd5b613bfe6132fb565b87840135613c0b81613165565b815260408481013589830152918401359183831115613c2a5760008081fd5b82850194508c603f860112613c4157600093508384fd5b613c518d8a87013583880161341e565b908201528652505050918301918301613b9c565b803560ff8116811461319557600080fd5b6000806000806000806000806000806101408b8d031215613c9657600080fd5b613c9f8b61318a565b995060208b013567ffffffffffffffff80821115613cbc57600080fd5b613cc88e838f0161347c565b9a5060408d0135915080821115613cde57600080fd5b613cea8e838f0161345c565b995060608d0135915080821115613d0057600080fd5b613d0c8e838f0161345c565b985060808d0135915080821115613d2257600080fd5b613d2e8e838f01613512565b975060a08d0135915080821115613d4457600080fd5b613d508e838f01613611565b965060c08d0135915080821115613d6657600080fd5b613d728e838f016136a7565b955060e08d0135915080821115613d8857600080fd5b613d948e838f01613a0e565b94506101008d0135915080821115613dab57600080fd5b50613db88d828e01613b58565b925050613dc86101208c01613c65565b90509295989b9194979a5092959850565b60008060408385031215613dec57600080fd5b823591506020830135613dfe81613165565b809150509250929050565b600080600080600080600060e0888a031215613e2457600080fd5b613e2d8861318a565b9650602088013567ffffffffffffffff80821115613e4a57600080fd5b613e568b838c0161347c565b975060408a0135915080821115613e6c57600080fd5b613e788b838c0161345c565b965060608a0135915080821115613e8e57600080fd5b613e9a8b838c0161345c565b955060808a0135915080821115613eb057600080fd5b613ebc8b838c01613512565b945060a08a0135915080821115613ed257600080fd5b613ede8b838c01613611565b935060c08a0135915080821115613ef457600080fd5b50613f018a828b016136a7565b91505092959891949750929550565b60008060408385031215613f2357600080fd5b50508035926020909101359150565b60005b83811015613f4d578181015183820152602001613f35565b50506000910152565b60008151808452613f6e816020860160208601613f32565b601f017fffffffffffffffffffffffffffffffffffffffffffffffffffffffffffffffe0169290920160200192915050565b73ffffffffffffffffffffffffffffffffffffffff84168152826020820152606060408201526000613fd56060830184613f56565b95945050505050565b600060208284031215613ff057600080fd5b813567ffffffffffffffff81111561400757600080fd5b82016101e0818503121561315e57600080fd5b600060608583526020818185015261403482850187613f56565b6040858203818701528187518084528484019150848160051b850101858a0160005b838110156140d1578683037fffffffffffffffffffffffffffffffffffffffffffffffffffffffffffffffe00185528151805173ffffffffffffffffffffffffffffffffffffffff16845288810151898501528601518684018a90526140be8a850182613f56565b9589019593505090870190600101614056565b50909c9b505050505050505050505050565b60008060008060008060008060006101208a8c03121561410257600080fd5b61410b8a61318a565b985060208a013567ffffffffffffffff8082111561412857600080fd5b6141348d838e0161347c565b995060408c013591508082111561414a57600080fd5b6141568d838e0161345c565b985060608c013591508082111561416c57600080fd5b6141788d838e0161345c565b975060808c013591508082111561418e57600080fd5b61419a8d838e01613512565b965060a08c01359150808211156141b057600080fd5b6141bc8d838e01613611565b955060c08c01359150808211156141d257600080fd5b6141de8d838e016136a7565b945060e08c01359150808211156141f457600080fd5b506142018c828d01613b58565b9250506142116101008b01613c65565b90509295985092959850929598565b60006020828403121561423257600080fd5b813567ffffffffffffffff81111561424957600080fd5b82016101a0818503121561315e57600080fd5b600060608583526020818185015261427682850187613f56565b6040858203818701528187518084528484019150848160051b850101858a0160005b838110156140d1578683037fffffffffffffffffffffffffffffffffffffffffffffffffffffffffffffffe00185528151805173ffffffffffffffffffffffffffffffffffffffff16845288810151898501528601518684018a90526143008a850182613f56565b9589019593505090870190600101614298565b60006020828403121561432557600080fd5b815161315e81613165565b60006020828403121561434257600080fd5b5051919050565b7f4e487b7100000000000000000000000000000000000000000000000000000000600052601160045260246000fd5b808201808211156104df576104df614349565b7f4e487b7100000000000000000000000000000000000000000000000000000000600052603260045260246000fd5b80516080808452815184820181905260009260a0916020918201918388019190865b8281101561449f57845180516cffffffffffffffffffffffffff1685528281015163ffffffff908116848701526040808301519091169086015260608082015161ffff16908601528781015173ffffffffffffffffffffffffffffffffffffffff1688860152868101518786015260c08082015162ffffff169086015260e08082015115159086015261010080820151151590860152610120808201511515908601526101409081015115159085015293810193610160909301926001016143dc565b508781015165ffffffffffff81168a83015295505050604086015193506144d0604088018565ffffffffffff169052565b606086015193506144f9606088018573ffffffffffffffffffffffffffffffffffffffff169052565b9695505050505050565b6002811061453a577f4e487b7100000000000000000000000000000000000000000000000000000000600052602160045260246000fd5b9052565b82815260406020820152600082516101c06040840152614562610200840182613f56565b905060208401517fffffffffffffffffffffffffffffffffffffffffffffffffffffffffffffffc08085840301606086015261459e8383613f56565b9250604086015191506145c9608086018373ffffffffffffffffffffffffffffffffffffffff169052565b60608601519150808584030160a08601526145e48383613f56565b92506080860151915061460f60c086018373ffffffffffffffffffffffffffffffffffffffff169052565b60a08601519150808584030160e086015261462a8383613f56565b925060c0860151915061010081868503018187015261464984846143ba565b935060e0870151925061012091506146788287018473ffffffffffffffffffffffffffffffffffffffff169052565b86015191506101406146a18682018473ffffffffffffffffffffffffffffffffffffffff169052565b908601518051151561016087015260208101511515610180870152604081015115156101a08701526060015115156101c086015285015190506146e86101e0850182614503565b50949350505050565b6000815480845260208085019450836000528060002060005b838110156147265781548752958201956001918201910161470a565b509495945050505050565b600073ffffffffffffffffffffffffffffffffffffffff8087168352808616602084015250836040830152608060608301526144f960808301846146f1565b8051613195816137de565b60006020828403121561478d57600080fd5b815161315e816137de565b600060208083526080830173ffffffffffffffffffffffffffffffffffffffff85511682850152818501516040850152604085015160608086015281815180845260a0870191508483019350600092505b8083101561367557835182529284019260019290920191908401906147e9565b73ffffffffffffffffffffffffffffffffffffffff8316815260406020820152600082516040808401526148406080840182613f56565b905060208401516060840152809150509392505050565b8381526060602082015260006148706060830185613f56565b82810360408401526144f98185613f56565b80820281158282048414176104df576104df614349565b818103818111156104df576104df614349565b6148d18282518051151582526020808201511515908301526040908101511515910152565b6020810151606083015260408101516080830152606081015160a0830152608081015161490260c084018215159052565b5060a081015180151560e08401525060c08101516101006149268185018315159052565b60e0830151915061012061493d8186018415159052565b908301519150610140906149548583018415159052565b83015191506101606149698582018415159052565b908301519150610180906149808583018415159052565b83015191506101a06149958582018415159052565b9083015191506101c0906149ac8583018415159052565b83015191506101e06149c18582018415159052565b908301519150610200906149d88583018415159052565b83015191506102206149ed8582018415159052565b9083015173ffffffffffffffffffffffffffffffffffffffff16610240850152909101516102609092019190915250565b600081518084526020808501808196508360051b810191508286016000805b86811015614afd578385038a52825180518652860151604087870181905281518188018190529188019160609081890190865b81811015614ae65785518051151584528c81015115158d8501528581015186850152848101518585015260808082015173ffffffffffffffffffffffffffffffffffffffff9081169186019190915260a0808301519086015260c0918201511690840152948b019460e090920191600101614a70565b50509c89019c975050509286019250600101614a3d565b509298975050505050505050565b600081518084526020808501945080840160005b83811015614726578151805173ffffffffffffffffffffffffffffffffffffffff908116895284820151168489015260408082015190890152606080820151908901526080808201519089015260a0908101519088015260c09096019590820190600101614b1f565b60006103c08983526020614bd58185018b80518252602081015160208301526040810151604083015273ffffffffffffffffffffffffffffffffffffffff60608201511660608301525050565b614be260a085018a6148ac565b6fffffffffffffffffffffffffffffffff881661032085015281610340850152614c0e82850188614a1e565b9150838203610360850152614c238287614b0b565b848103610380860152855180825282870193509082019060005b81811015614c6f57845173ffffffffffffffffffffffffffffffffffffffff1683529383019391830191600101614c3d565b50508481036103a0860152600f81527f7265766e6574206465706c6f79656400000000000000000000000000000000006020820152604081019c9b505050505050505050505050565b7f2400000000000000000000000000000000000000000000000000000000000000815260008251614cf0816001850160208701613f32565b7f207072656d696e746564000000000000000000000000000000000000000000006001939091019283015250600b01919050565b86815285602082015273ffffffffffffffffffffffffffffffffffffffff8516604082015260c060608201526000614d5f60c0830186613f56565b93151560808301525090151560a090910152949350505050565b600181811c90821680614d8d57607f821691505b602082108103614dc6577f4e487b7100000000000000000000000000000000000000000000000000000000600052602260045260246000fd5b50919050565b600181815b80851115614e2557817fffffffffffffffffffffffffffffffffffffffffffffffffffffffffffffffff04821115614e0b57614e0b614349565b80851615614e1857918102915b93841c9390800290614dd1565b509250929050565b600082614e3c575060016104df565b81614e49575060006104df565b8160018114614e5f5760028114614e6957614e85565b60019150506104df565b60ff841115614e7a57614e7a614349565b50506001821b6104df565b5060208310610133831016604e8410600b8410161715614ea8575081810a6104df565b614eb28383614dcc565b807fffffffffffffffffffffffffffffffffffffffffffffffffffffffffffffffff04821115614ee457614ee4614349565b029392505050565b600061315e60ff841683614e2d565b8035614f0681613165565b73ffffffffffffffffffffffffffffffffffffffff1682526020818101359083015260408082013590830152606090810135910152565b60008083357fffffffffffffffffffffffffffffffffffffffffffffffffffffffffffffffe1843603018112614f7257600080fd5b830160208101925035905067ffffffffffffffff811115614f9257600080fd5b803603821315614fa157600080fd5b9250929050565b8183528181602085013750600060208284010152600060207fffffffffffffffffffffffffffffffffffffffffffffffffffffffffffffffe0601f840116840101905092915050565b6020815261501f602082016150058461318a565b73ffffffffffffffffffffffffffffffffffffffff169052565b600061502d6020840161318a565b73ffffffffffffffffffffffffffffffffffffffff811660408401525061505a6060830160408501614efb565b60c083013560e083015261010060e08401358184015261507b81850161318a565b90506101206150a18185018373ffffffffffffffffffffffffffffffffffffffff169052565b610140915080850135828501525061016081850135818501526150c681860186614f3d565b925090506101a061018081818701526150e46101c087018585614fa8565b93506150f281880188614f3d565b935090507fffffffffffffffffffffffffffffffffffffffffffffffffffffffffffffffe0868503018287015261512a848483614fa8565b979650505050505050565b600061514361342c846133d8565b905082815283838301111561515757600080fd5b61315e836020830184613f32565b60008060006060848603121561517a57600080fd5b8351925060208085015167ffffffffffffffff8082111561519a57600080fd5b818701915087601f8301126151ae57600080fd5b6151bc888351858501615135565b945060408701519150808211156151d257600080fd5b818701915087601f8301126151e657600080fd5b81516151f461342c826134ce565b81815260059190911b8301840190848101908a83111561521357600080fd5b8585015b838110156152cd5780518581111561522e57600080fd5b86016060818e037fffffffffffffffffffffffffffffffffffffffffffffffffffffffffffffffe001121561526257600080fd5b61526a6132fb565b8882015161527781613165565b815260408201518982015260608201518781111561529457600080fd5b8083019250508d603f8301126152a957600080fd5b6152ba8e8a84015160408501615135565b6040820152845250918601918601615217565b508096505050505050509250925092565b60008083357fffffffffffffffffffffffffffffffffffffffffffffffffffffffffffffffe184360301811261531357600080fd5b83018035915067ffffffffffffffff82111561532e57600080fd5b602001915036819003821315614fa157600080fd5b805161319581613165565b60006060828403121561536057600080fd5b6153686132fb565b90508151615375816137de565b81526020820151615385816137de565b60208201526040820151615398816137de565b604082015292915050565b600061028082840312156153b657600080fd5b6153be61331e565b90506153ca838361534e565b8152606082015160208201526080820151604082015260a082015160608201526153f660c08301614770565b608082015261540760e08301614770565b60a082015261010061541a818401614770565b60c083015261012061542d818501614770565b60e0840152610140615440818601614770565b838501526101609250615454838601614770565b828501526101809150615468828601614770565b908401526101a061547a858201614770565b838501526101c0925061548e838601614770565b828501526101e091506154a2828601614770565b908401526102006154b4858201614770565b8385015261022092506154c8838601614770565b828501526154d96102408601615343565b818501525050610260830151818301525092915050565b80516003811061319557600080fd5b60008060008385036103c081121561551657600080fd5b6101208082121561552657600080fd5b61552e613342565b9150855182526020860151602083015260408601516040830152606086015160608301526080860151608083015260a086015160a083015260c086015160c083015261557c60e08701615343565b60e083015261010080870151818401525081945061559c878288016153a3565b935050506155ad6103a085016154f0565b90509250925092565b60007fffffffffffffffffffffffffffffffffffffffffffffffffffffffffffffffff82036155e7576155e7614349565b5060010190565b60006103a088835261563a602084018980518252602081015160208301526040810151604083015273ffffffffffffffffffffffffffffffffffffffff60608201511660608301525050565b61564760a08401886148ac565b6fffffffffffffffffffffffffffffffff86166103208401528061034084015261567381840186614a1e565b90508281036103608401526156888185614b0b565b838103610380909401939093525050601681527f7265766e657420626f6f7374207363686564756c65640000000000000000000060208201526040019695505050505050565b601f821115612e0057600081815260208120601f850160051c810160208610156156f55750805b601f850160051c820191505b81811015610e9657828155600101615701565b815167ffffffffffffffff81111561572e5761572e613239565b6157428161573c8454614d79565b846156ce565b602080601f831160018114615795576000841561575f5750858301515b7fffffffffffffffffffffffffffffffffffffffffffffffffffffffffffffffff600386901b1c1916600185901b178555610e96565b6000858152602081207fffffffffffffffffffffffffffffffffffffffffffffffffffffffffffffffe08616915b828110156157e2578886015182559484019460019091019084016157c3565b508582101561581e57878501517fffffffffffffffffffffffffffffffffffffffffffffffffffffffffffffffff600388901b60f8161c191681555b5050505050600190811b01905550565b6000602080838503121561584157600080fd5b825167ffffffffffffffff81111561585857600080fd5b8301601f8101851361586957600080fd5b805161587761342c826134ce565b81815260e0918202830184019184820191908884111561589657600080fd5b938501935b838510156116735780858a0312156158b35760008081fd5b6158bb613366565b85516158c6816137de565b8152858701516158d5816137de565b8188015260408681015190820152606080870151908201526080808701516158fc81613165565b9082015260a0868101519082015260c08087015161591981613165565b908201528352938401939185019161589b56fea26469706673582212205c8f0bc1a7b38e2476a7b5af811195fd471a53179e7f4abfad15df3dd3c09b7864736f6c63430008140033",
    "linkReferences": {}
  },
  "methodIdentifiers": {
    "boostOperatorPermissionIndexes(uint256)": "b82f18c1",
    "boostsOf(uint256)": "01a7d01a",
    "buybackHookOf(uint256)": "7249a773",
    "buybackHookPermissionIndexes(uint256)": "086e941b",
    "controller()": "f77c4791",
    "currentBoostNumberOf(uint256)": "ad011669",
    "deployPayHookNetworkFor(address,(string,uint256),string,string,(uint256,uint256,uint256,uint256,uint256,(uint128,uint128)[]),address[],(address,(address,uint24,uint32,uint32)[]),(address,uint256,bytes)[],uint8)": "b58e84cc",
    "deployRevnetFor(address,(string,uint256),string,string,(uint256,uint256,uint256,uint256,uint256,(uint128,uint128)[]),address[],(address,(address,uint24,uint32,uint32)[]))": "48dc59b6",
    "deployTiered721RevnetFor(address,(string,uint256),string,string,(uint256,uint256,uint256,uint256,uint256,(uint128,uint128)[]),address[],(address,(address,uint24,uint32,uint32)[]),(string,string,address,string,address,string,((uint104,uint32,uint32,uint16,address,bytes32,uint24,bool,bool,bool,bool)[],uint48,uint48,address),address,address,(bool,bool,bool,bool),uint8),(address,uint256,bytes)[],uint8)": "34116e8f",
    "directory()": "c41c2f24",
    "onERC721Received(address,address,uint256,bytes)": "150b7a02",
    "payHooksOf(uint256,uint256)": "7a56f982",
    "payParams((address,address,(address,uint256,uint256,uint256),uint256,uint256,address,uint256,uint256,string,bytes))": "d46cf171",
    "redeemParams((address,address,uint256,uint256,uint256,uint256,uint256,(address,uint256,uint256,uint256),bool,uint256,string,bytes))": "a51cfd18",
    "replaceBoostOperatorOf(uint256,address)": "440cfb7b",
    "scheduleNextBoostOf(uint256)": "ec3004ac",
    "supportsInterface(bytes4)": "01ffc9a7",
    "tiered721HookDeployer()": "ade6b6db"
  },
  "id": 113
}