{
  "abi": [
    {
      "inputs": [
        {
          "internalType": "contract IJBController3_1",
          "name": "_controller",
          "type": "address"
        }
      ],
      "stateMutability": "nonpayable",
      "type": "constructor"
    },
    {
      "inputs": [],
      "name": "BAD_DEV_TAX_SEQUENCE",
      "type": "error"
    },
    {
      "inputs": [],
      "name": "RECONFIGURATION_ALREADY_SCHEDULED",
      "type": "error"
    },
    {
      "inputs": [],
      "name": "RECONFIGURATION_NOT_POSSIBLE",
      "type": "error"
    },
    {
      "inputs": [
        {
          "internalType": "uint256",
          "name": "",
          "type": "uint256"
        }
      ],
      "name": "buybackDelegateDataSourceOf",
      "outputs": [
        {
          "internalType": "contract IJBGenericBuybackDelegate",
          "name": "",
          "type": "address"
        }
      ],
      "stateMutability": "view",
      "type": "function"
    },
    {
      "inputs": [
        {
          "internalType": "uint256",
          "name": "",
          "type": "uint256"
        }
      ],
      "name": "buybackDelegatePermissionIndexes",
      "outputs": [
        {
          "internalType": "uint256",
          "name": "",
          "type": "uint256"
        }
      ],
      "stateMutability": "view",
      "type": "function"
    },
    {
      "inputs": [],
      "name": "controller",
      "outputs": [
        {
          "internalType": "contract IJBController3_1",
          "name": "",
          "type": "address"
        }
      ],
      "stateMutability": "view",
      "type": "function"
    },
    {
      "inputs": [
        {
          "internalType": "uint256",
          "name": "networkId",
          "type": "uint256"
        }
      ],
      "name": "currentDevTaxPeriodNumberOf",
      "outputs": [
        {
          "internalType": "uint256",
          "name": "",
          "type": "uint256"
        }
      ],
      "stateMutability": "view",
      "type": "function"
    },
    {
      "inputs": [
        {
          "internalType": "uint256",
          "name": "",
          "type": "uint256"
        },
        {
          "internalType": "uint256",
          "name": "",
          "type": "uint256"
        }
      ],
      "name": "delegateAllocationsOf",
      "outputs": [
        {
          "internalType": "contract IJBPayDelegate3_1_1",
          "name": "delegate",
          "type": "address"
        },
        {
          "internalType": "uint256",
          "name": "amount",
          "type": "uint256"
        },
        {
          "internalType": "bytes",
          "name": "metadata",
          "type": "bytes"
        }
      ],
      "stateMutability": "view",
      "type": "function"
    },
    {
      "inputs": [
        {
          "internalType": "address",
          "name": "_operator",
          "type": "address"
        },
        {
          "components": [
            {
              "internalType": "string",
              "name": "content",
              "type": "string"
            },
            {
              "internalType": "uint256",
              "name": "domain",
              "type": "uint256"
            }
          ],
          "internalType": "struct JBProjectMetadata",
          "name": "_networkMetadata",
          "type": "tuple"
        },
        {
          "internalType": "string",
          "name": "_name",
          "type": "string"
        },
        {
          "internalType": "string",
          "name": "_symbol",
          "type": "string"
        },
        {
          "components": [
            {
              "internalType": "uint256",
              "name": "initialIssuanceRate",
              "type": "uint256"
            },
            {
              "internalType": "uint256",
              "name": "premintTokenAmount",
              "type": "uint256"
            },
            {
              "internalType": "uint256",
              "name": "generationTax",
              "type": "uint256"
            },
            {
              "internalType": "uint256",
              "name": "generationDuration",
              "type": "uint256"
            },
            {
              "internalType": "uint256",
              "name": "exitTaxRate",
              "type": "uint256"
            },
            {
              "components": [
                {
                  "internalType": "uint128",
                  "name": "rate",
                  "type": "uint128"
                },
                {
                  "internalType": "uint128",
                  "name": "startsAtOrAfter",
                  "type": "uint128"
                }
              ],
              "internalType": "struct DevTaxPeriod[]",
              "name": "devTaxPeriods",
              "type": "tuple[]"
            },
            {
              "internalType": "uint24",
              "name": "poolFee",
              "type": "uint24"
            }
          ],
          "internalType": "struct BasicRetailistJBParams",
          "name": "_data",
          "type": "tuple"
        },
        {
          "internalType": "contract IJBPaymentTerminal[]",
          "name": "_terminals",
          "type": "address[]"
        },
        {
          "internalType": "contract IJBGenericBuybackDelegate",
          "name": "_buybackDelegate",
          "type": "address"
        }
      ],
      "name": "deployBasicNetworkFor",
      "outputs": [
        {
          "internalType": "uint256",
          "name": "networkId",
          "type": "uint256"
        }
      ],
      "stateMutability": "nonpayable",
      "type": "function"
    },
    {
      "inputs": [
        {
          "internalType": "address",
          "name": "_operator",
          "type": "address"
        },
        {
          "components": [
            {
              "internalType": "string",
              "name": "content",
              "type": "string"
            },
            {
              "internalType": "uint256",
              "name": "domain",
              "type": "uint256"
            }
          ],
          "internalType": "struct JBProjectMetadata",
          "name": "_networkMetadata",
          "type": "tuple"
        },
        {
          "internalType": "string",
          "name": "_name",
          "type": "string"
        },
        {
          "internalType": "string",
          "name": "_symbol",
          "type": "string"
        },
        {
          "components": [
            {
              "internalType": "uint256",
              "name": "initialIssuanceRate",
              "type": "uint256"
            },
            {
              "internalType": "uint256",
              "name": "premintTokenAmount",
              "type": "uint256"
            },
            {
              "internalType": "uint256",
              "name": "generationTax",
              "type": "uint256"
            },
            {
              "internalType": "uint256",
              "name": "generationDuration",
              "type": "uint256"
            },
            {
              "internalType": "uint256",
              "name": "exitTaxRate",
              "type": "uint256"
            },
            {
              "components": [
                {
                  "internalType": "uint128",
                  "name": "rate",
                  "type": "uint128"
                },
                {
                  "internalType": "uint128",
                  "name": "startsAtOrAfter",
                  "type": "uint128"
                }
              ],
              "internalType": "struct DevTaxPeriod[]",
              "name": "devTaxPeriods",
              "type": "tuple[]"
            },
            {
              "internalType": "uint24",
              "name": "poolFee",
              "type": "uint24"
            }
          ],
          "internalType": "struct BasicRetailistJBParams",
          "name": "_data",
          "type": "tuple"
        },
        {
          "internalType": "contract IJBPaymentTerminal[]",
          "name": "_terminals",
          "type": "address[]"
        },
        {
          "internalType": "contract IJBGenericBuybackDelegate",
          "name": "_buybackDelegate",
          "type": "address"
        },
        {
          "components": [
            {
              "internalType": "contract IJBPayDelegate3_1_1",
              "name": "delegate",
              "type": "address"
            },
            {
              "internalType": "uint256",
              "name": "amount",
              "type": "uint256"
            },
            {
              "internalType": "bytes",
              "name": "metadata",
              "type": "bytes"
            }
          ],
          "internalType": "struct JBPayDelegateAllocation3_1_1[]",
          "name": "_delegateAllocations",
          "type": "tuple[]"
        },
        {
          "internalType": "uint8",
          "name": "_extraFundingCycleMetadata",
          "type": "uint8"
        }
      ],
      "name": "deployPayAllocatorNetworkFor",
      "outputs": [
        {
          "internalType": "uint256",
          "name": "networkId",
          "type": "uint256"
        }
      ],
      "stateMutability": "nonpayable",
      "type": "function"
    },
    {
      "inputs": [
        {
          "internalType": "uint256",
          "name": "networkId",
          "type": "uint256"
        },
        {
          "internalType": "uint256",
          "name": "",
          "type": "uint256"
        }
      ],
      "name": "devTaxPeriodsOf",
      "outputs": [
        {
          "internalType": "uint128",
          "name": "rate",
          "type": "uint128"
        },
        {
          "internalType": "uint128",
          "name": "startsAtOrAfter",
          "type": "uint128"
        }
      ],
      "stateMutability": "view",
      "type": "function"
    },
    {
      "inputs": [
        {
          "internalType": "address",
          "name": "_operator",
          "type": "address"
        },
        {
          "internalType": "address",
          "name": "_from",
          "type": "address"
        },
        {
          "internalType": "uint256",
          "name": "_tokenId",
          "type": "uint256"
        },
        {
          "internalType": "bytes",
          "name": "_data",
          "type": "bytes"
        }
      ],
      "name": "onERC721Received",
      "outputs": [
        {
          "internalType": "bytes4",
          "name": "",
          "type": "bytes4"
        }
      ],
      "stateMutability": "view",
      "type": "function"
    },
    {
      "inputs": [
        {
          "internalType": "uint256",
          "name": "",
          "type": "uint256"
        }
      ],
      "name": "operatorPermissionIndexes",
      "outputs": [
        {
          "internalType": "uint256",
          "name": "",
          "type": "uint256"
        }
      ],
      "stateMutability": "view",
      "type": "function"
    },
    {
      "inputs": [
        {
          "components": [
            {
              "internalType": "contract IJBPaymentTerminal",
              "name": "terminal",
              "type": "address"
            },
            {
              "internalType": "address",
              "name": "payer",
              "type": "address"
            },
            {
              "components": [
                {
                  "internalType": "address",
                  "name": "token",
                  "type": "address"
                },
                {
                  "internalType": "uint256",
                  "name": "value",
                  "type": "uint256"
                },
                {
                  "internalType": "uint256",
                  "name": "decimals",
                  "type": "uint256"
                },
                {
                  "internalType": "uint256",
                  "name": "currency",
                  "type": "uint256"
                }
              ],
              "internalType": "struct JBTokenAmount",
              "name": "amount",
              "type": "tuple"
            },
            {
              "internalType": "uint256",
              "name": "projectId",
              "type": "uint256"
            },
            {
              "internalType": "uint256",
              "name": "currentFundingCycleConfiguration",
              "type": "uint256"
            },
            {
              "internalType": "address",
              "name": "beneficiary",
              "type": "address"
            },
            {
              "internalType": "uint256",
              "name": "weight",
              "type": "uint256"
            },
            {
              "internalType": "uint256",
              "name": "reservedRate",
              "type": "uint256"
            },
            {
              "internalType": "string",
              "name": "memo",
              "type": "string"
            },
            {
              "internalType": "bytes",
              "name": "metadata",
              "type": "bytes"
            }
          ],
          "internalType": "struct JBPayParamsData",
          "name": "_data",
          "type": "tuple"
        }
      ],
      "name": "payParams",
      "outputs": [
        {
          "internalType": "uint256",
          "name": "weight",
          "type": "uint256"
        },
        {
          "internalType": "string",
          "name": "memo",
          "type": "string"
        },
        {
          "components": [
            {
              "internalType": "contract IJBPayDelegate3_1_1",
              "name": "delegate",
              "type": "address"
            },
            {
              "internalType": "uint256",
              "name": "amount",
              "type": "uint256"
            },
            {
              "internalType": "bytes",
              "name": "metadata",
              "type": "bytes"
            }
          ],
          "internalType": "struct JBPayDelegateAllocation3_1_1[]",
          "name": "delegateAllocations",
          "type": "tuple[]"
        }
      ],
      "stateMutability": "view",
      "type": "function"
    },
    {
      "inputs": [
        {
          "components": [
            {
              "internalType": "contract IJBPaymentTerminal",
              "name": "terminal",
              "type": "address"
            },
            {
              "internalType": "address",
              "name": "holder",
              "type": "address"
            },
            {
              "internalType": "uint256",
              "name": "projectId",
              "type": "uint256"
            },
            {
              "internalType": "uint256",
              "name": "currentFundingCycleConfiguration",
              "type": "uint256"
            },
            {
              "internalType": "uint256",
              "name": "tokenCount",
              "type": "uint256"
            },
            {
              "internalType": "uint256",
              "name": "totalSupply",
              "type": "uint256"
            },
            {
              "internalType": "uint256",
              "name": "overflow",
              "type": "uint256"
            },
            {
              "components": [
                {
                  "internalType": "address",
                  "name": "token",
                  "type": "address"
                },
                {
                  "internalType": "uint256",
                  "name": "value",
                  "type": "uint256"
                },
                {
                  "internalType": "uint256",
                  "name": "decimals",
                  "type": "uint256"
                },
                {
                  "internalType": "uint256",
                  "name": "currency",
                  "type": "uint256"
                }
              ],
              "internalType": "struct JBTokenAmount",
              "name": "reclaimAmount",
              "type": "tuple"
            },
            {
              "internalType": "bool",
              "name": "useTotalOverflow",
              "type": "bool"
            },
            {
              "internalType": "uint256",
              "name": "redemptionRate",
              "type": "uint256"
            },
            {
              "internalType": "string",
              "name": "memo",
              "type": "string"
            },
            {
              "internalType": "bytes",
              "name": "metadata",
              "type": "bytes"
            }
          ],
          "internalType": "struct JBRedeemParamsData",
          "name": "_data",
          "type": "tuple"
        }
      ],
      "name": "redeemParams",
      "outputs": [
        {
          "internalType": "uint256",
          "name": "",
          "type": "uint256"
        },
        {
          "internalType": "string",
          "name": "",
          "type": "string"
        },
        {
          "components": [
            {
              "internalType": "contract IJBRedemptionDelegate3_1_1",
              "name": "delegate",
              "type": "address"
            },
            {
              "internalType": "uint256",
              "name": "amount",
              "type": "uint256"
            },
            {
              "internalType": "bytes",
              "name": "metadata",
              "type": "bytes"
            }
          ],
          "internalType": "struct JBRedemptionDelegateAllocation3_1_1[]",
          "name": "",
          "type": "tuple[]"
        }
      ],
      "stateMutability": "view",
      "type": "function"
    },
    {
      "inputs": [
        {
          "internalType": "uint256",
          "name": "_networkId",
          "type": "uint256"
        }
      ],
      "name": "scheduleNextDevTaxPeriodOf",
      "outputs": [],
      "stateMutability": "nonpayable",
      "type": "function"
    },
    {
      "inputs": [
        {
          "internalType": "bytes4",
          "name": "_interfaceId",
          "type": "bytes4"
        }
      ],
      "name": "supportsInterface",
      "outputs": [
        {
          "internalType": "bool",
          "name": "",
          "type": "bool"
        }
      ],
      "stateMutability": "view",
      "type": "function"
    }
  ],
  "bytecode": {
    "object": "0x60a06040523480156200001157600080fd5b506040516200484f3803806200484f8339810160408190526200003491620000ba565b6001600160a01b0316608052600080546001818101835560127f290decd9548b62a8d60345a988386fc84ba6bc95484008f6362f93160ef3e5639283015582548082018455601892019190915560058054918201815590915260097f036b6384b5eca791c62761152d0c79bb0604c104a5fb6f4eb0703f3154bb3db090910155620000ec565b600060208284031215620000cd57600080fd5b81516001600160a01b0381168114620000e557600080fd5b9392505050565b6080516146de62000171600039600081816102ec015281816103f00152818161064e0152818161092a01528181610a3801528181610ce901528181610fa40152818161107b015281816112830152818161153901528181611647015281816118f801528181611bf901528181611cd001528181611eb7015261203901526146de6000f3fe608060405234801561001057600080fd5b50600436106100ea5760003560e01c80639f665eee1161008c578063abc603e311610066578063abc603e314610248578063d46cf1711461026a578063ef8eadd51461028c578063f77c4791146102e757600080fd5b80639f665eee146101ca578063a26711ae146101ea578063a51cfd181461022657600080fd5b8063150b7a02116100c8578063150b7a021461014d5780634d75772014610191578063522aa551146101a45780639e8c513a146101b757600080fd5b806301ffc9a7146100ef5780630310850e146101175780630a801f471461012c575b600080fd5b6101026100fd366004612985565b61030e565b60405190151581526020015b60405180910390f35b61012a6101253660046129ce565b6103a7565b005b61013f61013a366004612e25565b6107a4565b60405190815260200161010e565b61016061015b366004612f18565b61127f565b6040517fffffffff00000000000000000000000000000000000000000000000000000000909116815260200161010e565b61013f61019f3660046129ce565b611393565b61013f6101b23660046130d5565b6113b4565b61013f6101c53660046129ce565b61230b565b61013f6101d83660046129ce565b60026020526000908152604090205481565b6101fd6101f83660046131fe565b61231b565b604080516fffffffffffffffffffffffffffffffff93841681529290911660208301520161010e565b610239610234366004613220565b612374565b60405161010e939291906132ca565b61025b6102563660046131fe565b6123dc565b60405161010e93929190613393565b61027d6102783660046133d1565b6124bf565b60405161010e9392919061340d565b6102c261029a3660046129ce565b60036020526000908152604090205473ffffffffffffffffffffffffffffffffffffffff1681565b60405173ffffffffffffffffffffffffffffffffffffffff909116815260200161010e565b6102c27f000000000000000000000000000000000000000000000000000000000000000081565b60007fffffffff0000000000000000000000000000000000000000000000000000000082167f71700c690000000000000000000000000000000000000000000000000000000014806103a157507f150b7a02000000000000000000000000000000000000000000000000000000007fffffffff000000000000000000000000000000000000000000000000000000008316145b92915050565b6040517f1f51045300000000000000000000000000000000000000000000000000000000815260048101829052600090819073ffffffffffffffffffffffffffffffffffffffff7f00000000000000000000000000000000000000000000000000000000000000001690631f510453906024016103c060405180830381865afa158015610438573d6000803e3d6000fd5b505050506040513d601f19601f8201168201806040525081019061045c919061368a565b506000858152600260205260408120805493955091935091829061047f90613770565b91829055506000858152600160205260409020549091508015806104a257508082145b806104b05750428460600151115b156104e7576040517fc97554fa00000000000000000000000000000000000000000000000000000000815260040160405180910390fd5b6000858152600160205260408120805484908110610507576105076137a8565b6000918252602080832060408051808201825293909101546fffffffffffffffffffffffffffffffff808216855270010000000000000000000000000000000090910481168484019081528251608080820185528c810151825281860188905260c0808e01518387015260608084018a905286516102a08101885261024081018b815261026082018c905261028082018c905281528951909616868901528d87015186880152850189905290840188905260a08401889052830187905260e08301879052610100830187905261012083018790526101408301879052610160830187905261018083018790526101a083018790526101c083018790526101e08301879052610200808c015173ffffffffffffffffffffffffffffffffffffffff908116918501919091526102208c81015190850152915184518881529586019094529496507f0000000000000000000000000000000000000000000000000000000000000000169463badbdf28948c949093916106a7565b60408051808201909152600081526060602082015281526020019060019003908161067f5790505b506040805160008082526020820190925290610736565b6107236040518060c00160405280600073ffffffffffffffffffffffffffffffffffffffff168152602001600073ffffffffffffffffffffffffffffffffffffffff168152602001600081526020016000815260200160008152602001600081525090565b8152602001906001900390816106be5790505b506040518763ffffffff1660e01b815260040161075896959493929190613abe565b6020604051808303816000875af1158015610777573d6000803e3d6000fd5b505050506040513d601f19601f8201168201806040525081019061079b9190613bc4565b50505050505050565b604080516001808252818301909252600091829190816020015b6040805180820190915260008152606060208201528152602001906001900390816107be57505060408051600180825281830190925291925060009190602082015b6040805160e08101825260008082526020808301829052928201819052606082018190526080820181905260a0820181905260c082015282527fffffffffffffffffffffffffffffffffffffffffffffffffffffffffffffffff9092019101816108005790505090506040518060e00160405280600015158152602001600015158152602001633b9aca008152602001600081526020018b73ffffffffffffffffffffffffffffffffffffffff16815260200160008152602001600073ffffffffffffffffffffffffffffffffffffffff16815250816001815181106108e8576108e86137a8565b6020026020010181905250604051806040016040528060028152602001828152508260008151811061091c5761091c6137a8565b6020026020010181905250507f000000000000000000000000000000000000000000000000000000000000000073ffffffffffffffffffffffffffffffffffffffff16638b79543c6040518163ffffffff1660e01b8152600401602060405180830381865afa158015610993573d6000803e3d6000fd5b505050506040513d601f19601f820116820180604052508101906109b79190613bdd565b73ffffffffffffffffffffffffffffffffffffffff1663666d87a0308a6040518363ffffffff1660e01b81526004016109f1929190613bfa565b6020604051808303816000875af1158015610a10573d6000803e3d6000fd5b505050506040513d601f19601f82011682018060405250810190610a349190613bc4565b91507f000000000000000000000000000000000000000000000000000000000000000073ffffffffffffffffffffffffffffffffffffffff1663619306306040518163ffffffff1660e01b8152600401602060405180830381865afa158015610aa1573d6000803e3d6000fd5b505050506040513d601f19601f82011682018060405250810190610ac59190613bdd565b73ffffffffffffffffffffffffffffffffffffffff1663a7f2a70b8389896040518463ffffffff1660e01b8152600401610b0193929190613c48565b6020604051808303816000875af1158015610b20573d6000803e3d6000fd5b505050506040513d601f19601f82011682018060405250810190610b449190613bdd565b508273ffffffffffffffffffffffffffffffffffffffff16637b621d3a838760c001518673ffffffffffffffffffffffffffffffffffffffff166360b3042c6040518163ffffffff1660e01b8152600401602060405180830381865afa158015610bb2573d6000803e3d6000fd5b505050506040513d601f19601f82011682018060405250810190610bd69190613bc4565b8773ffffffffffffffffffffffffffffffffffffffff1663737a79966040518163ffffffff1660e01b8152600401602060405180830381865afa158015610c21573d6000803e3d6000fd5b505050506040513d601f19601f82011682018060405250810190610c459190613bc4565b6040517fffffffff0000000000000000000000000000000000000000000000000000000060e087901b168152600481019490945262ffffff909216602484015263ffffffff908116604484015216606482015261eeee608482015260a4016020604051808303816000875af1158015610cc2573d6000803e3d6000fd5b505050506040513d601f19601f82011682018060405250810190610ce69190613bdd565b507f000000000000000000000000000000000000000000000000000000000000000073ffffffffffffffffffffffffffffffffffffffff1663111d861b8360405180608001604052808960600151815260200160128a60000151610d4a9190613d9d565b81526040808b0151602080840191909152600092820183905281516102a081019092526102408201838152610260830184905261028083019390935291815260a08b015151909182019015610dc1578a60a00151600081518110610db057610db06137a8565b602002602001015160000151610dc4565b60005b6fffffffffffffffffffffffffffffffff1681526020018a60800151612710610ded9190613dac565b815260006020820181905260408201819052606082018190526080820181905260a0808301829052600160c0840181905260e0840183905261010084018390526101208401839052610140840183905261016084018390526101808401526101a0830182905273ffffffffffffffffffffffffffffffffffffffff8b166101c08401526101e0909201528a01515115610ea8578960a00151600081518110610e9757610e976137a8565b602002602001015160200151610eab565b60005b604080516000808252602082019092528891610f3a565b610f276040518060c00160405280600073ffffffffffffffffffffffffffffffffffffffff168152602001600073ffffffffffffffffffffffffffffffffffffffff168152602001600081526020016000815260200160008152602001600081525090565b815260200190600190039081610ec25790505b508b6040518863ffffffff1660e01b8152600401610f5e9796959493929190613dbf565b6020604051808303816000875af1158015610f7d573d6000803e3d6000fd5b505050506040513d601f19601f82011682018060405250810190610fa19190613bc4565b507f000000000000000000000000000000000000000000000000000000000000000073ffffffffffffffffffffffffffffffffffffffff16638ae9c07b8360128860200151610ff09190613d9d565b8c8a6040516020016110029190613eef565b6040516020818303038152906040526000806040518763ffffffff1660e01b815260040161103596959493929190613f34565b6020604051808303816000875af1158015611054573d6000803e3d6000fd5b505050506040513d601f19601f820116820180604052508101906110789190613bc4565b507f000000000000000000000000000000000000000000000000000000000000000073ffffffffffffffffffffffffffffffffffffffff16632bdfe0046040518163ffffffff1660e01b8152600401602060405180830381865afa1580156110e4573d6000803e3d6000fd5b505050506040513d601f19601f820116820180604052508101906111089190613bdd565b73ffffffffffffffffffffffffffffffffffffffff1663ad007d636040518163ffffffff1660e01b8152600401602060405180830381865afa158015611152573d6000803e3d6000fd5b505050506040513d601f19601f820116820180604052508101906111769190613bdd565b73ffffffffffffffffffffffffffffffffffffffff1663529cdd2e60405180606001604052808c73ffffffffffffffffffffffffffffffffffffffff168152602001858152602001600080548060200260200160405190810160405280929190818152602001828054801561120a57602002820191906000526020600020905b8154815260200190600101908083116111f6575b50505050508152506040518263ffffffff1660e01b815260040161122e9190613f89565b600060405180830381600087803b15801561124857600080fd5b505af115801561125c573d6000803e3d6000fd5b50505050611273828660a001518760600151612829565b50979650505050505050565b60007f000000000000000000000000000000000000000000000000000000000000000073ffffffffffffffffffffffffffffffffffffffff16638b79543c6040518163ffffffff1660e01b8152600401602060405180830381865afa1580156112ec573d6000803e3d6000fd5b505050506040513d601f19601f820116820180604052508101906113109190613bdd565b73ffffffffffffffffffffffffffffffffffffffff163373ffffffffffffffffffffffffffffffffffffffff161461134757600080fd5b73ffffffffffffffffffffffffffffffffffffffff85161561136857600080fd5b507f150b7a020000000000000000000000000000000000000000000000000000000095945050505050565b600081815481106113a357600080fd5b600091825260209091200154905081565b604080516001808252818301909252600091829190816020015b6040805180820190915260008152606060208201528152602001906001900390816113ce57505060408051600180825281830190925291925060009190602082015b6040805160e08101825260008082526020808301829052928201819052606082018190526080820181905260a0820181905260c082015282527fffffffffffffffffffffffffffffffffffffffffffffffffffffffffffffffff9092019101816114105790505090506040518060e00160405280600015158152602001600015158152602001633b9aca008152602001600081526020018d73ffffffffffffffffffffffffffffffffffffffff16815260200160008152602001600073ffffffffffffffffffffffffffffffffffffffff16815250816001815181106114f8576114f86137a8565b6020026020010181905250604051806040016040528060028152602001828152508260008151811061152c5761152c6137a8565b60200260200101819052507f000000000000000000000000000000000000000000000000000000000000000073ffffffffffffffffffffffffffffffffffffffff16638b79543c6040518163ffffffff1660e01b8152600401602060405180830381865afa1580156115a2573d6000803e3d6000fd5b505050506040513d601f19601f820116820180604052508101906115c69190613bdd565b73ffffffffffffffffffffffffffffffffffffffff1663666d87a0308d6040518363ffffffff1660e01b8152600401611600929190613bfa565b6020604051808303816000875af115801561161f573d6000803e3d6000fd5b505050506040513d601f19601f820116820180604052508101906116439190613bc4565b92507f000000000000000000000000000000000000000000000000000000000000000073ffffffffffffffffffffffffffffffffffffffff1663619306306040518163ffffffff1660e01b8152600401602060405180830381865afa1580156116b0573d6000803e3d6000fd5b505050506040513d601f19601f820116820180604052508101906116d49190613bdd565b73ffffffffffffffffffffffffffffffffffffffff1663a7f2a70b848c8c6040518463ffffffff1660e01b815260040161171093929190613c48565b6020604051808303816000875af115801561172f573d6000803e3d6000fd5b505050506040513d601f19601f820116820180604052508101906117539190613bdd565b508573ffffffffffffffffffffffffffffffffffffffff16637b621d3a848a60c001518973ffffffffffffffffffffffffffffffffffffffff166360b3042c6040518163ffffffff1660e01b8152600401602060405180830381865afa1580156117c1573d6000803e3d6000fd5b505050506040513d601f19601f820116820180604052508101906117e59190613bc4565b8a73ffffffffffffffffffffffffffffffffffffffff1663737a79966040518163ffffffff1660e01b8152600401602060405180830381865afa158015611830573d6000803e3d6000fd5b505050506040513d601f19601f820116820180604052508101906118549190613bc4565b6040517fffffffff0000000000000000000000000000000000000000000000000000000060e087901b168152600481019490945262ffffff909216602484015263ffffffff908116604484015216606482015261eeee608482015260a4016020604051808303816000875af11580156118d1573d6000803e3d6000fd5b505050506040513d601f19601f820116820180604052508101906118f59190613bdd565b507f000000000000000000000000000000000000000000000000000000000000000073ffffffffffffffffffffffffffffffffffffffff1663111d861b8460405180608001604052808c60600151815260200160128d600001516119599190613d9d565b81526040808e0151602080840191909152600092820183905281516102a081019092526102408201838152610260830184905261028083019390935291815260a08e0151519091820190156119d0578d60a001516000815181106119bf576119bf6137a8565b6020026020010151600001516119d3565b60005b6fffffffffffffffffffffffffffffffff1681526020018d608001516127106119fc9190613dac565b815260006020820181905260408201819052606082018190526080820181905260a0808301829052600160c0840181905260e0840183905261010084018390526101208401839052610140840183905261016084018390526101808401526101a0830191909152306101c083015260ff8b166101e0909201919091528d01515115611aa9578c60a00151600081518110611a9857611a986137a8565b602002602001015160200151611aac565b60005b604080516000808252602082019092528991611b3b565b611b286040518060c00160405280600073ffffffffffffffffffffffffffffffffffffffff168152602001600073ffffffffffffffffffffffffffffffffffffffff168152602001600081526020016000815260200160008152602001600081525090565b815260200190600190039081611ac35790505b508e6040518863ffffffff1660e01b8152600401611b5f9796959493929190613dbf565b6020604051808303816000875af1158015611b7e573d6000803e3d6000fd5b505050506040513d601f19601f82011682018060405250810190611ba29190613bc4565b505050836003600083815260200190815260200160002060006101000a81548173ffffffffffffffffffffffffffffffffffffffff021916908373ffffffffffffffffffffffffffffffffffffffff1602179055507f000000000000000000000000000000000000000000000000000000000000000073ffffffffffffffffffffffffffffffffffffffff16638ae9c07b8260128960200151611c459190613d9d565b8d8b604051602001611c579190613eef565b6040516020818303038152906040526000806040518763ffffffff1660e01b8152600401611c8a96959493929190613f34565b6020604051808303816000875af1158015611ca9573d6000803e3d6000fd5b505050506040513d601f19601f82011682018060405250810190611ccd9190613bc4565b507f000000000000000000000000000000000000000000000000000000000000000073ffffffffffffffffffffffffffffffffffffffff16632bdfe0046040518163ffffffff1660e01b8152600401602060405180830381865afa158015611d39573d6000803e3d6000fd5b505050506040513d601f19601f82011682018060405250810190611d5d9190613bdd565b73ffffffffffffffffffffffffffffffffffffffff1663ad007d636040518163ffffffff1660e01b8152600401602060405180830381865afa158015611da7573d6000803e3d6000fd5b505050506040513d601f19601f82011682018060405250810190611dcb9190613bdd565b73ffffffffffffffffffffffffffffffffffffffff1663529cdd2e60405180606001604052808d73ffffffffffffffffffffffffffffffffffffffff1681526020018481526020016000805480602002602001604051908101604052809291908181526020018280548015611e5f57602002820191906000526020600020905b815481526020019060010190808311611e4b575b50505050508152506040518263ffffffff1660e01b8152600401611e839190613f89565b600060405180830381600087803b158015611e9d57600080fd5b505af1158015611eb1573d6000803e3d6000fd5b505050507f000000000000000000000000000000000000000000000000000000000000000073ffffffffffffffffffffffffffffffffffffffff16632bdfe0046040518163ffffffff1660e01b8152600401602060405180830381865afa158015611f20573d6000803e3d6000fd5b505050506040513d601f19601f82011682018060405250810190611f449190613bdd565b73ffffffffffffffffffffffffffffffffffffffff1663ad007d636040518163ffffffff1660e01b8152600401602060405180830381865afa158015611f8e573d6000803e3d6000fd5b505050506040513d601f19601f82011682018060405250810190611fb29190613bdd565b73ffffffffffffffffffffffffffffffffffffffff16630f5932f08530600060056040518563ffffffff1660e01b8152600401611ff29493929190613ffa565b602060405180830381865afa15801561200f573d6000803e3d6000fd5b505050506040513d601f19601f820116820180604052508101906120339190614076565b612220577f000000000000000000000000000000000000000000000000000000000000000073ffffffffffffffffffffffffffffffffffffffff16632bdfe0046040518163ffffffff1660e01b8152600401602060405180830381865afa1580156120a2573d6000803e3d6000fd5b505050506040513d601f19601f820116820180604052508101906120c69190613bdd565b73ffffffffffffffffffffffffffffffffffffffff1663ad007d636040518163ffffffff1660e01b8152600401602060405180830381865afa158015612110573d6000803e3d6000fd5b505050506040513d601f19601f820116820180604052508101906121349190613bdd565b73ffffffffffffffffffffffffffffffffffffffff1663529cdd2e60405180606001604052808773ffffffffffffffffffffffffffffffffffffffff1681526020016000815260200160058054806020026020016040519081016040528092919081815260200182805480156121c957602002820191906000526020600020905b8154815260200190600101908083116121b5575b50505050508152506040518263ffffffff1660e01b81526004016121ed9190613f89565b600060405180830381600087803b15801561220757600080fd5b505af115801561221b573d6000803e3d6000fd5b505050505b612233818760a001518860600151612829565b825160005b818110156122fc57848181518110612252576122526137a8565b602002602001015160046000858152602001908152602001600020828154811061227e5761227e6137a8565b600091825260209182902083516003929092020180547fffffffffffffffffffffffff00000000000000000000000000000000000000001673ffffffffffffffffffffffffffffffffffffffff909216919091178155908201516001820155604082015160028201906122f19082614133565b505050600101612238565b50509998505050505050505050565b600581815481106113a357600080fd5b6001602052816000526040600020818154811061233757600080fd5b6000918252602090912001546fffffffffffffffffffffffffffffffff808216935070010000000000000000000000000000000090910416905082565b6040805160008082526020820190925260609081908390816123c0565b604080516060808201835260008083526020830152918101919091528152602001906001900390816123915790505b5060408051602081019091526000815291969195509350915050565b600460205281600052604060002081815481106123f857600080fd5b600091825260209091206003909102018054600182015460028301805473ffffffffffffffffffffffffffffffffffffffff90931695509093509061243c90614091565b80601f016020809104026020016040519081016040528092919081815260200182805461246890614091565b80156124b55780601f1061248a576101008083540402835291602001916124b5565b820191906000526020600020905b81548152906001019060200180831161249857829003601f168201915b5050505050905083565b60c08101356000908152600360205260408082205490517fd46cf1710000000000000000000000000000000000000000000000000000000081526060918291829173ffffffffffffffffffffffffffffffffffffffff169063d46cf1719061252b908890600401614343565b600060405180830381865afa158015612548573d6000803e3d6000fd5b505050506040513d6000823e601f3d9081017fffffffffffffffffffffffffffffffffffffffffffffffffffffffffffffffe016820160405261258e91908101906144b7565b805160c089013560009081526004602090815260408083208054825181850281018501909352808352979b5094975092151595919450919291849084015b828210156126bd5760008481526020908190206040805160608101825260038602909201805473ffffffffffffffffffffffffffffffffffffffff1683526001810154938301939093526002830180549293929184019161262c90614091565b80601f016020809104026020016040519081016040528092919081815260200182805461265890614091565b80156126a55780601f1061267a576101008083540402835291602001916126a5565b820191906000526020600020905b81548152906001019060200180831161268857829003601f168201915b505050505081525050815260200190600101906125cc565b505050509050600081519050826126d55760006126d8565b60015b6126e59060ff1682614630565b67ffffffffffffffff8111156126fd576126fd612a1c565b60405190808252806020026020018201604052801561274a57816020015b6040805160608082018352600080835260208301529181019190915281526020019060019003908161271b5790505b50945060005b818110156127975782818151811061276a5761276a6137a8565b6020026020010151868281518110612784576127846137a8565b6020908102919091010152600101612750565b5082156127d757836000815181106127b1576127b16137a8565b60200260200101518582815181106127cb576127cb6137a8565b60200260200101819052505b6127e5610160890189614643565b8080601f016020809104026020016040519081016040528093929190818152602001838380828437600092019190915250999b929a50969850909650505050505050565b8151801561297f5760005b8181101561297d5780158015906128be57508284612853600184613dac565b81518110612863576128636137a8565b6020026020010151602001516fffffffffffffffffffffffffffffffff1661288b9190614630565b84828151811061289d5761289d6137a8565b6020026020010151602001516fffffffffffffffffffffffffffffffff1611155b156128f5576040517fc5c2978500000000000000000000000000000000000000000000000000000000815260040160405180910390fd5b838181518110612907576129076137a8565b6020026020010151600160008781526020019081526020016000208281548110612933576129336137a8565b6000918252602091829020835193909201516fffffffffffffffffffffffffffffffff90811670010000000000000000000000000000000002931692909217910155600101612834565b505b50505050565b60006020828403121561299757600080fd5b81357fffffffff00000000000000000000000000000000000000000000000000000000811681146129c757600080fd5b9392505050565b6000602082840312156129e057600080fd5b5035919050565b73ffffffffffffffffffffffffffffffffffffffff81168114612a0957600080fd5b50565b8035612a17816129e7565b919050565b7f4e487b7100000000000000000000000000000000000000000000000000000000600052604160045260246000fd5b6040805190810167ffffffffffffffff81118282101715612a6e57612a6e612a1c565b60405290565b60405160e0810167ffffffffffffffff81118282101715612a6e57612a6e612a1c565b6040516060810167ffffffffffffffff81118282101715612a6e57612a6e612a1c565b604051610240810167ffffffffffffffff81118282101715612a6e57612a6e612a1c565b604051610120810167ffffffffffffffff81118282101715612a6e57612a6e612a1c565b604051601f82017fffffffffffffffffffffffffffffffffffffffffffffffffffffffffffffffe016810167ffffffffffffffff81118282101715612b4957612b49612a1c565b604052919050565b600067ffffffffffffffff821115612b6b57612b6b612a1c565b50601f017fffffffffffffffffffffffffffffffffffffffffffffffffffffffffffffffe01660200190565b6000612baa612ba584612b51565b612b02565b9050828152838383011115612bbe57600080fd5b828260208301376000602084830101529392505050565b600082601f830112612be657600080fd5b6129c783833560208501612b97565b600060408284031215612c0757600080fd5b612c0f612a4b565b9050813567ffffffffffffffff811115612c2857600080fd5b612c3484828501612bd5565b8252506020820135602082015292915050565b600067ffffffffffffffff821115612c6157612c61612a1c565b5060051b60200190565b80356fffffffffffffffffffffffffffffffff81168114612a1757600080fd5b600082601f830112612c9c57600080fd5b81356020612cac612ba583612c47565b82815260069290921b84018101918181019086841115612ccb57600080fd5b8286015b84811015612d185760408189031215612ce85760008081fd5b612cf0612a4b565b612cf982612c6b565b8152612d06858301612c6b565b81860152835291830191604001612ccf565b509695505050505050565b803562ffffff81168114612a1757600080fd5b600060e08284031215612d4857600080fd5b612d50612a74565b9050813581526020820135602082015260408201356040820152606082013560608201526080820135608082015260a082013567ffffffffffffffff811115612d9857600080fd5b612da484828501612c8b565b60a083015250612db660c08301612d23565b60c082015292915050565b600082601f830112612dd257600080fd5b81356020612de2612ba583612c47565b82815260059290921b84018101918181019086841115612e0157600080fd5b8286015b84811015612d18578035612e18816129e7565b8352918301918301612e05565b600080600080600080600060e0888a031215612e4057600080fd5b612e4988612a0c565b9650602088013567ffffffffffffffff80821115612e6657600080fd5b612e728b838c01612bf5565b975060408a0135915080821115612e8857600080fd5b612e948b838c01612bd5565b965060608a0135915080821115612eaa57600080fd5b612eb68b838c01612bd5565b955060808a0135915080821115612ecc57600080fd5b612ed88b838c01612d36565b945060a08a0135915080821115612eee57600080fd5b50612efb8a828b01612dc1565b925050612f0a60c08901612a0c565b905092959891949750929550565b600080600080600060808688031215612f3057600080fd5b8535612f3b816129e7565b94506020860135612f4b816129e7565b935060408601359250606086013567ffffffffffffffff80821115612f6f57600080fd5b818801915088601f830112612f8357600080fd5b813581811115612f9257600080fd5b896020828501011115612fa457600080fd5b9699959850939650602001949392505050565b600082601f830112612fc857600080fd5b81356020612fd8612ba583612c47565b82815260059290921b84018101918181019086841115612ff757600080fd5b8286015b84811015612d1857803567ffffffffffffffff8082111561301c5760008081fd5b81890191506060807fffffffffffffffffffffffffffffffffffffffffffffffffffffffffffffffe0848d030112156130555760008081fd5b61305d612a97565b8784013561306a816129e7565b8152604084810135898301529184013591838311156130895760008081fd5b82850194508c603f8601126130a057600093508384fd5b6130b08d8a870135838801612b97565b908201528652505050918301918301612ffb565b803560ff81168114612a1757600080fd5b60008060008060008060008060006101208a8c0312156130f457600080fd5b6130fd8a612a0c565b985060208a013567ffffffffffffffff8082111561311a57600080fd5b6131268d838e01612bf5565b995060408c013591508082111561313c57600080fd5b6131488d838e01612bd5565b985060608c013591508082111561315e57600080fd5b61316a8d838e01612bd5565b975060808c013591508082111561318057600080fd5b61318c8d838e01612d36565b965060a08c01359150808211156131a257600080fd5b6131ae8d838e01612dc1565b95506131bc60c08d01612a0c565b945060e08c01359150808211156131d257600080fd5b506131df8c828d01612fb7565b9250506131ef6101008b016130c4565b90509295985092959850929598565b6000806040838503121561321157600080fd5b50508035926020909101359150565b60006020828403121561323257600080fd5b813567ffffffffffffffff81111561324957600080fd5b82016101e081850312156129c757600080fd5b60005b8381101561327757818101518382015260200161325f565b50506000910152565b6000815180845261329881602086016020860161325c565b601f017fffffffffffffffffffffffffffffffffffffffffffffffffffffffffffffffe0169290920160200192915050565b60006060858352602081818501526132e482850187613280565b6040858203818701528187518084528484019150848160051b850101858a0160005b83811015613381578683037fffffffffffffffffffffffffffffffffffffffffffffffffffffffffffffffe00185528151805173ffffffffffffffffffffffffffffffffffffffff16845288810151898501528601518684018a905261336e8a850182613280565b9589019593505090870190600101613306565b50909c9b505050505050505050505050565b73ffffffffffffffffffffffffffffffffffffffff841681528260208201526060604082015260006133c86060830184613280565b95945050505050565b6000602082840312156133e357600080fd5b813567ffffffffffffffff8111156133fa57600080fd5b82016101a081850312156129c757600080fd5b600060608583526020818185015261342782850187613280565b6040858203818701528187518084528484019150848160051b850101858a0160005b83811015613381578683037fffffffffffffffffffffffffffffffffffffffffffffffffffffffffffffffe00185528151805173ffffffffffffffffffffffffffffffffffffffff16845288810151898501528601518684018a90526134b18a850182613280565b9589019593505090870190600101613449565b8051612a17816129e7565b80518015158114612a1757600080fd5b6000606082840312156134f157600080fd5b6134f9612a97565b9050613504826134cf565b8152613512602083016134cf565b6020820152613523604083016134cf565b604082015292915050565b6000610280828403121561354157600080fd5b613549612aba565b905061355583836134df565b8152606082015160208201526080820151604082015260a0820151606082015261358160c083016134cf565b608082015261359260e083016134cf565b60a08201526101006135a58184016134cf565b60c08301526101206135b88185016134cf565b60e08401526101406135cb8186016134cf565b8385015261016092506135df8386016134cf565b8285015261018091506135f38286016134cf565b908401526101a06136058582016134cf565b838501526101c092506136198386016134cf565b828501526101e0915061362d8286016134cf565b9084015261020061363f8582016134cf565b8385015261022092506136538386016134cf565b8285015261366461024086016134c4565b818501525050610260830151818301525092915050565b805160038110612a1757600080fd5b60008060008385036103c08112156136a157600080fd5b610120808212156136b157600080fd5b6136b9612ade565b9150855182526020860151602083015260408601516040830152606086015160608301526080860151608083015260a086015160a083015260c086015160c083015261370760e087016134c4565b60e08301526101008087015181840152508194506137278782880161352e565b935050506137386103a0850161367b565b90509250925092565b7f4e487b7100000000000000000000000000000000000000000000000000000000600052601160045260246000fd5b60007fffffffffffffffffffffffffffffffffffffffffffffffffffffffffffffffff82036137a1576137a1613741565b5060010190565b7f4e487b7100000000000000000000000000000000000000000000000000000000600052603260045260246000fd5b6137fc8282518051151582526020808201511515908301526040908101511515910152565b6020810151606083015260408101516080830152606081015160a0830152608081015161382d60c084018215159052565b5060a081015180151560e08401525060c08101516101006138518185018315159052565b60e083015191506101206138688186018415159052565b9083015191506101409061387f8583018415159052565b83015191506101606138948582018415159052565b908301519150610180906138ab8583018415159052565b83015191506101a06138c08582018415159052565b9083015191506101c0906138d78583018415159052565b83015191506101e06138ec8582018415159052565b908301519150610200906139038583018415159052565b83015191506102206139188582018415159052565b9083015173ffffffffffffffffffffffffffffffffffffffff16610240850152909101516102609092019190915250565b600081518084526020808501808196508360051b810191508286016000805b86811015613a28578385038a52825180518652860151604087870181905281518188018190529188019160609081890190865b81811015613a115785518051151584528c81015115158d8501528581015186850152848101518585015260808082015173ffffffffffffffffffffffffffffffffffffffff9081169186019190915260a0808301519086015260c0918201511690840152948b019460e09092019160010161399b565b50509c89019c975050509286019250600101613968565b509298975050505050505050565b600081518084526020808501945080840160005b83811015613ab3578151805173ffffffffffffffffffffffffffffffffffffffff908116895284820151168489015260408082015190890152606080820151908901526080808201519089015260a0908101519088015260c09096019590820190600101613a4a565b509495945050505050565b60006103a0888352613b0a602084018980518252602081015160208301526040810151604083015273ffffffffffffffffffffffffffffffffffffffff60608201511660608301525050565b613b1760a08401886137d7565b6fffffffffffffffffffffffffffffffff861661032084015280610340840152613b4381840186613949565b9050828103610360840152613b588185613a36565b838103610380909401939093525050603281527f5363686564756c6564206e657874206465762074617820706572696f64206f6660208201527f2052657461696c697374206e6574776f726b000000000000000000000000000060408201526060019695505050505050565b600060208284031215613bd657600080fd5b5051919050565b600060208284031215613bef57600080fd5b81516129c7816129e7565b73ffffffffffffffffffffffffffffffffffffffff831681526040602082015260008251604080840152613c316080840182613280565b905060208401516060840152809150509392505050565b838152606060208201526000613c616060830185613280565b8281036040840152613c738185613280565b9695505050505050565b600181815b80851115613cd657817fffffffffffffffffffffffffffffffffffffffffffffffffffffffffffffffff04821115613cbc57613cbc613741565b80851615613cc957918102915b93841c9390800290613c82565b509250929050565b600082613ced575060016103a1565b81613cfa575060006103a1565b8160018114613d105760028114613d1a57613d36565b60019150506103a1565b60ff841115613d2b57613d2b613741565b50506001821b6103a1565b5060208310610133831016604e8410600b8410161715613d59575081810a6103a1565b613d638383613c7d565b807fffffffffffffffffffffffffffffffffffffffffffffffffffffffffffffffff04821115613d9557613d95613741565b029392505050565b60006129c760ff841683613cde565b818103818111156103a1576103a1613741565b60006103c08983526020613e0c8185018b80518252602081015160208301526040810151604083015273ffffffffffffffffffffffffffffffffffffffff60608201511660608301525050565b613e1960a085018a6137d7565b6fffffffffffffffffffffffffffffffff881661032085015281610340850152613e4582850188613949565b9150838203610360850152613e5a8287613a36565b848103610380860152855180825282870193509082019060005b81811015613ea657845173ffffffffffffffffffffffffffffffffffffffff1683529383019391830191600101613e74565b50508481036103a0860152601a81527f4465706c6f7965642052657461696c697374206e6574776f726b0000000000006020820152604081019c9b505050505050505050505050565b7f5072656d696e7465642024000000000000000000000000000000000000000000815260008251613f2781600b85016020870161325c565b91909101600b0192915050565b86815285602082015273ffffffffffffffffffffffffffffffffffffffff8516604082015260c060608201526000613f6f60c0830186613280565b93151560808301525090151560a090910152949350505050565b600060208083526080830173ffffffffffffffffffffffffffffffffffffffff85511682850152818501516040850152604085015160608086015281815180845260a0870191508483019350600092505b80831015612d185783518252928401926001929092019190840190613fda565b60006080820173ffffffffffffffffffffffffffffffffffffffff808816845260208188168186015286604086015260806060860152829150855480845260a0860192508660005281600020935060005b818110156140675784548452600194850194938301930161404b565b50919998505050505050505050565b60006020828403121561408857600080fd5b6129c7826134cf565b600181811c908216806140a557607f821691505b6020821081036140de577f4e487b7100000000000000000000000000000000000000000000000000000000600052602260045260246000fd5b50919050565b601f82111561412e57600081815260208120601f850160051c8101602086101561410b5750805b601f850160051c820191505b8181101561412a57828155600101614117565b5050505b505050565b815167ffffffffffffffff81111561414d5761414d612a1c565b6141618161415b8454614091565b846140e4565b602080601f8311600181146141b4576000841561417e5750858301515b7fffffffffffffffffffffffffffffffffffffffffffffffffffffffffffffffff600386901b1c1916600185901b17855561412a565b6000858152602081207fffffffffffffffffffffffffffffffffffffffffffffffffffffffffffffffe08616915b82811015614201578886015182559484019460019091019084016141e2565b508582101561423d57878501517fffffffffffffffffffffffffffffffffffffffffffffffffffffffffffffffff600388901b60f8161c191681555b5050505050600190811b01905550565b8035614258816129e7565b73ffffffffffffffffffffffffffffffffffffffff1682526020818101359083015260408082013590830152606090810135910152565b60008083357fffffffffffffffffffffffffffffffffffffffffffffffffffffffffffffffe18436030181126142c457600080fd5b830160208101925035905067ffffffffffffffff8111156142e457600080fd5b8036038213156142f357600080fd5b9250929050565b8183528181602085013750600060208284010152600060207fffffffffffffffffffffffffffffffffffffffffffffffffffffffffffffffe0601f840116840101905092915050565b602081526143716020820161435784612a0c565b73ffffffffffffffffffffffffffffffffffffffff169052565b600061437f60208401612a0c565b73ffffffffffffffffffffffffffffffffffffffff81166040840152506143ac606083016040850161424d565b60c083013560e083015261010060e0840135818401526143cd818501612a0c565b90506101206143f38185018373ffffffffffffffffffffffffffffffffffffffff169052565b610140915080850135828501525061016081850135818501526144188186018661428f565b925090506101a061018081818701526144366101c0870185856142fa565b93506144448188018861428f565b935090507fffffffffffffffffffffffffffffffffffffffffffffffffffffffffffffffe0868503018287015261447c8484836142fa565b979650505050505050565b6000614495612ba584612b51565b90508281528383830111156144a957600080fd5b6129c783602083018461325c565b6000806000606084860312156144cc57600080fd5b8351925060208085015167ffffffffffffffff808211156144ec57600080fd5b818701915087601f83011261450057600080fd5b61450e888351858501614487565b9450604087015191508082111561452457600080fd5b818701915087601f83011261453857600080fd5b8151614546612ba582612c47565b81815260059190911b8301840190848101908a83111561456557600080fd5b8585015b8381101561461f5780518581111561458057600080fd5b86016060818e037fffffffffffffffffffffffffffffffffffffffffffffffffffffffffffffffe00112156145b457600080fd5b6145bc612a97565b888201516145c9816129e7565b81526040820151898201526060820151878111156145e657600080fd5b8083019250508d603f8301126145fb57600080fd5b61460c8e8a84015160408501614487565b6040820152845250918601918601614569565b508096505050505050509250925092565b808201808211156103a1576103a1613741565b60008083357fffffffffffffffffffffffffffffffffffffffffffffffffffffffffffffffe184360301811261467857600080fd5b83018035915067ffffffffffffffff82111561469357600080fd5b6020019150368190038213156142f357600080fdfea2646970667358221220c24d9fac83dfed80a7cc685fc52ade0dfaa8326b1d7276ebb405701c318557f764736f6c63430008150033",
    "linkReferences": {}
  },
  "methodIdentifiers": {
    "buybackDelegateDataSourceOf(uint256)": "ef8eadd5",
    "buybackDelegatePermissionIndexes(uint256)": "9e8c513a",
    "controller()": "f77c4791",
    "currentDevTaxPeriodNumberOf(uint256)": "9f665eee",
    "delegateAllocationsOf(uint256,uint256)": "abc603e3",
    "deployBasicNetworkFor(address,(string,uint256),string,string,(uint256,uint256,uint256,uint256,uint256,(uint128,uint128)[],uint24),address[],address)": "0a801f47",
    "deployPayAllocatorNetworkFor(address,(string,uint256),string,string,(uint256,uint256,uint256,uint256,uint256,(uint128,uint128)[],uint24),address[],address,(address,uint256,bytes)[],uint8)": "522aa551",
    "devTaxPeriodsOf(uint256,uint256)": "a26711ae",
    "onERC721Received(address,address,uint256,bytes)": "150b7a02",
    "operatorPermissionIndexes(uint256)": "4d757720",
    "payParams((address,address,(address,uint256,uint256,uint256),uint256,uint256,address,uint256,uint256,string,bytes))": "d46cf171",
    "redeemParams((address,address,uint256,uint256,uint256,uint256,uint256,(address,uint256,uint256,uint256),bool,uint256,string,bytes))": "a51cfd18",
    "scheduleNextDevTaxPeriodOf(uint256)": "0310850e",
    "supportsInterface(bytes4)": "01ffc9a7"
  },
  "id": 104
}