{
  "abi": [
    {
      "inputs": [
        {
          "internalType": "contract IJBController3_1",
          "name": "_controller",
          "type": "address"
        },
        {
          "internalType": "contract IJBPayoutRedemptionPaymentTerminal3_1_1",
          "name": "_terminal",
          "type": "address"
        }
      ],
      "stateMutability": "nonpayable",
      "type": "constructor"
    },
    {
      "inputs": [],
      "name": "RECONFIGURATION_ALREADY_SCHEDULED",
      "type": "error"
    },
    {
      "inputs": [
        {
          "internalType": "uint256",
          "name": "",
          "type": "uint256"
        }
      ],
      "name": "buybackDelegateDataSourceOf",
      "outputs": [
        {
          "internalType": "contract IJBFundingCycleDataSource3_1_1",
          "name": "",
          "type": "address"
        }
      ],
      "stateMutability": "view",
      "type": "function"
    },
    {
      "inputs": [],
      "name": "controller",
      "outputs": [
        {
          "internalType": "contract IJBController3_1",
          "name": "",
          "type": "address"
        }
      ],
      "stateMutability": "view",
      "type": "function"
    },
    {
      "inputs": [
        {
          "internalType": "uint256",
          "name": "",
          "type": "uint256"
        },
        {
          "internalType": "uint256",
          "name": "",
          "type": "uint256"
        }
      ],
      "name": "delegateAllocationsOf",
      "outputs": [
        {
          "internalType": "contract IJBPayDelegate3_1_1",
          "name": "delegate",
          "type": "address"
        },
        {
          "internalType": "uint256",
          "name": "amount",
          "type": "uint256"
        },
        {
          "internalType": "bytes",
          "name": "metadata",
          "type": "bytes"
        }
      ],
      "stateMutability": "view",
      "type": "function"
    },
    {
      "inputs": [
        {
          "internalType": "address",
          "name": "_operator",
          "type": "address"
        },
        {
          "components": [
            {
              "internalType": "string",
              "name": "content",
              "type": "string"
            },
            {
              "internalType": "uint256",
              "name": "domain",
              "type": "uint256"
            }
          ],
          "internalType": "struct JBProjectMetadata",
          "name": "_projectMetadata",
          "type": "tuple"
        },
        {
          "internalType": "string",
          "name": "_name",
          "type": "string"
        },
        {
          "internalType": "string",
          "name": "_symbol",
          "type": "string"
        },
        {
          "components": [
            {
              "internalType": "uint256",
              "name": "initialIssuanceRate",
              "type": "uint256"
            },
            {
              "internalType": "uint256",
              "name": "premintTokenAmount",
              "type": "uint256"
            },
            {
              "internalType": "uint256",
              "name": "discountRate",
              "type": "uint256"
            },
            {
              "internalType": "uint256",
              "name": "discountPeriod",
              "type": "uint256"
            },
            {
              "internalType": "uint256",
              "name": "redemptionRate",
              "type": "uint256"
            },
            {
              "internalType": "uint256",
              "name": "reservedRate",
              "type": "uint256"
            },
            {
              "internalType": "uint48",
              "name": "reservedRateDuration",
              "type": "uint48"
            }
          ],
          "internalType": "struct BasicRetailistJBParams",
          "name": "_data",
          "type": "tuple"
        },
        {
          "components": [
            {
              "internalType": "contract IJBPayDelegate3_1_1",
              "name": "delegate",
              "type": "address"
            },
            {
              "internalType": "uint256",
              "name": "amount",
              "type": "uint256"
            },
            {
              "internalType": "bytes",
              "name": "metadata",
              "type": "bytes"
            }
          ],
          "internalType": "struct JBPayDelegateAllocation3_1_1[]",
          "name": "_delegateAllocations",
          "type": "tuple[]"
        }
      ],
      "name": "deployProjectFor",
      "outputs": [
        {
          "internalType": "uint256",
          "name": "projectId",
          "type": "uint256"
        }
      ],
      "stateMutability": "nonpayable",
      "type": "function"
    },
    {
      "inputs": [
        {
          "internalType": "address",
          "name": "_operator",
          "type": "address"
        },
        {
          "components": [
            {
              "internalType": "string",
              "name": "content",
              "type": "string"
            },
            {
              "internalType": "uint256",
              "name": "domain",
              "type": "uint256"
            }
          ],
          "internalType": "struct JBProjectMetadata",
          "name": "_projectMetadata",
          "type": "tuple"
        },
        {
          "internalType": "string",
          "name": "_name",
          "type": "string"
        },
        {
          "internalType": "string",
          "name": "_symbol",
          "type": "string"
        },
        {
          "components": [
            {
              "internalType": "uint256",
              "name": "initialIssuanceRate",
              "type": "uint256"
            },
            {
              "internalType": "uint256",
              "name": "premintTokenAmount",
              "type": "uint256"
            },
            {
              "internalType": "uint256",
              "name": "discountRate",
              "type": "uint256"
            },
            {
              "internalType": "uint256",
              "name": "discountPeriod",
              "type": "uint256"
            },
            {
              "internalType": "uint256",
              "name": "redemptionRate",
              "type": "uint256"
            },
            {
              "internalType": "uint256",
              "name": "reservedRate",
              "type": "uint256"
            },
            {
              "internalType": "uint48",
              "name": "reservedRateDuration",
              "type": "uint48"
            }
          ],
          "internalType": "struct BasicRetailistJBParams",
          "name": "_data",
          "type": "tuple"
        }
      ],
      "name": "deployProjectFor",
      "outputs": [
        {
          "internalType": "uint256",
          "name": "projectId",
          "type": "uint256"
        }
      ],
      "stateMutability": "nonpayable",
      "type": "function"
    },
    {
      "inputs": [
        {
          "internalType": "address",
          "name": "_operator",
          "type": "address"
        },
        {
          "internalType": "address",
          "name": "_from",
          "type": "address"
        },
        {
          "internalType": "uint256",
          "name": "_tokenId",
          "type": "uint256"
        },
        {
          "internalType": "bytes",
          "name": "_data",
          "type": "bytes"
        }
      ],
      "name": "onERC721Received",
      "outputs": [
        {
          "internalType": "bytes4",
          "name": "",
          "type": "bytes4"
        }
      ],
      "stateMutability": "view",
      "type": "function"
    },
    {
      "inputs": [
        {
          "components": [
            {
              "internalType": "contract IJBPaymentTerminal",
              "name": "terminal",
              "type": "address"
            },
            {
              "internalType": "address",
              "name": "payer",
              "type": "address"
            },
            {
              "components": [
                {
                  "internalType": "address",
                  "name": "token",
                  "type": "address"
                },
                {
                  "internalType": "uint256",
                  "name": "value",
                  "type": "uint256"
                },
                {
                  "internalType": "uint256",
                  "name": "decimals",
                  "type": "uint256"
                },
                {
                  "internalType": "uint256",
                  "name": "currency",
                  "type": "uint256"
                }
              ],
              "internalType": "struct JBTokenAmount",
              "name": "amount",
              "type": "tuple"
            },
            {
              "internalType": "uint256",
              "name": "projectId",
              "type": "uint256"
            },
            {
              "internalType": "uint256",
              "name": "currentFundingCycleConfiguration",
              "type": "uint256"
            },
            {
              "internalType": "address",
              "name": "beneficiary",
              "type": "address"
            },
            {
              "internalType": "uint256",
              "name": "weight",
              "type": "uint256"
            },
            {
              "internalType": "uint256",
              "name": "reservedRate",
              "type": "uint256"
            },
            {
              "internalType": "string",
              "name": "memo",
              "type": "string"
            },
            {
              "internalType": "bytes",
              "name": "metadata",
              "type": "bytes"
            }
          ],
          "internalType": "struct JBPayParamsData",
          "name": "_data",
          "type": "tuple"
        }
      ],
      "name": "payParams",
      "outputs": [
        {
          "internalType": "uint256",
          "name": "weight",
          "type": "uint256"
        },
        {
          "internalType": "string",
          "name": "memo",
          "type": "string"
        },
        {
          "components": [
            {
              "internalType": "contract IJBPayDelegate3_1_1",
              "name": "delegate",
              "type": "address"
            },
            {
              "internalType": "uint256",
              "name": "amount",
              "type": "uint256"
            },
            {
              "internalType": "bytes",
              "name": "metadata",
              "type": "bytes"
            }
          ],
          "internalType": "struct JBPayDelegateAllocation3_1_1[]",
          "name": "delegateAllocations",
          "type": "tuple[]"
        }
      ],
      "stateMutability": "view",
      "type": "function"
    },
    {
      "inputs": [
        {
          "internalType": "uint256",
          "name": "",
          "type": "uint256"
        }
      ],
      "name": "permissionIndexes",
      "outputs": [
        {
          "internalType": "uint256",
          "name": "",
          "type": "uint256"
        }
      ],
      "stateMutability": "view",
      "type": "function"
    },
    {
      "inputs": [
        {
          "internalType": "uint256",
          "name": "projectId",
          "type": "uint256"
        }
      ],
      "name": "reconfigurationStartTimestampOf",
      "outputs": [
        {
          "internalType": "uint256",
          "name": "",
          "type": "uint256"
        }
      ],
      "stateMutability": "view",
      "type": "function"
    },
    {
      "inputs": [
        {
          "components": [
            {
              "internalType": "contract IJBPaymentTerminal",
              "name": "terminal",
              "type": "address"
            },
            {
              "internalType": "address",
              "name": "holder",
              "type": "address"
            },
            {
              "internalType": "uint256",
              "name": "projectId",
              "type": "uint256"
            },
            {
              "internalType": "uint256",
              "name": "currentFundingCycleConfiguration",
              "type": "uint256"
            },
            {
              "internalType": "uint256",
              "name": "tokenCount",
              "type": "uint256"
            },
            {
              "internalType": "uint256",
              "name": "totalSupply",
              "type": "uint256"
            },
            {
              "internalType": "uint256",
              "name": "overflow",
              "type": "uint256"
            },
            {
              "components": [
                {
                  "internalType": "address",
                  "name": "token",
                  "type": "address"
                },
                {
                  "internalType": "uint256",
                  "name": "value",
                  "type": "uint256"
                },
                {
                  "internalType": "uint256",
                  "name": "decimals",
                  "type": "uint256"
                },
                {
                  "internalType": "uint256",
                  "name": "currency",
                  "type": "uint256"
                }
              ],
              "internalType": "struct JBTokenAmount",
              "name": "reclaimAmount",
              "type": "tuple"
            },
            {
              "internalType": "bool",
              "name": "useTotalOverflow",
              "type": "bool"
            },
            {
              "internalType": "uint256",
              "name": "redemptionRate",
              "type": "uint256"
            },
            {
              "internalType": "string",
              "name": "memo",
              "type": "string"
            },
            {
              "internalType": "bytes",
              "name": "metadata",
              "type": "bytes"
            }
          ],
          "internalType": "struct JBRedeemParamsData",
          "name": "_data",
          "type": "tuple"
        }
      ],
      "name": "redeemParams",
      "outputs": [
        {
          "internalType": "uint256",
          "name": "",
          "type": "uint256"
        },
        {
          "internalType": "string",
          "name": "",
          "type": "string"
        },
        {
          "components": [
            {
              "internalType": "contract IJBRedemptionDelegate3_1_1",
              "name": "delegate",
              "type": "address"
            },
            {
              "internalType": "uint256",
              "name": "amount",
              "type": "uint256"
            },
            {
              "internalType": "bytes",
              "name": "metadata",
              "type": "bytes"
            }
          ],
          "internalType": "struct JBRedemptionDelegateAllocation3_1_1[]",
          "name": "",
          "type": "tuple[]"
        }
      ],
      "stateMutability": "view",
      "type": "function"
    },
    {
      "inputs": [
        {
          "internalType": "uint256",
          "name": "_projectId",
          "type": "uint256"
        }
      ],
      "name": "scheduleReconfigurationOf",
      "outputs": [],
      "stateMutability": "nonpayable",
      "type": "function"
    },
    {
      "inputs": [
        {
          "internalType": "bytes4",
          "name": "_interfaceId",
          "type": "bytes4"
        }
      ],
      "name": "supportsInterface",
      "outputs": [
        {
          "internalType": "bool",
          "name": "",
          "type": "bool"
        }
      ],
      "stateMutability": "view",
      "type": "function"
    },
    {
      "inputs": [
        {
          "internalType": "uint256",
          "name": "",
          "type": "uint256"
        }
      ],
      "name": "terminals",
      "outputs": [
        {
          "internalType": "contract IJBPaymentTerminal",
          "name": "",
          "type": "address"
        }
      ],
      "stateMutability": "view",
      "type": "function"
    }
  ],
  "bytecode": {
    "object": "0x60a06040523480156200001157600080fd5b5060405162003b9338038062003b938339810160408190526200003491620000d7565b6001600160a01b0391821660805260008054600180820183557f290decd9548b62a8d60345a988386fc84ba6bc95484008f6362f93160ef3e56390910180546001600160a01b031916939094169290921790925580548082018255915260127fb10e2d527612073b26eecdfd717e6a320cf44b4afac2b0732d9fcbe2b7fa0cf69091015562000116565b6001600160a01b0381168114620000d457600080fd5b50565b60008060408385031215620000eb57600080fd5b8251620000f881620000be565b60208401519092506200010b81620000be565b809150509250929050565b608051613a066200018d600039600081816102a50152818161039b015281816104f4015281816106a70152818161098201528181610a9201528181610bec01528181610e7201528181610f3201528181611355015281816114650152818161157b015281816117be01526118800152613a066000f3fe608060405234801561001057600080fd5b50600436106100df5760003560e01c8063799255601161008c578063abc603e311610066578063abc603e314610226578063d46cf17114610248578063ef8eadd51461026a578063f77c4791146102a057600080fd5b806379925560146101de5780639483e771146101f1578063a51cfd181461020457600080fd5b80633ce6d3e2116100bd5780633ce6d3e214610188578063560f7b031461019d5780635a747d74146101cb57600080fd5b806301ffc9a7146100e45780630219758e1461010c578063150b7a0214610144575b600080fd5b6100f76100f2366004611f18565b6102c7565b60405190151581526020015b60405180910390f35b61011f61011a366004611f61565b610360565b60405173ffffffffffffffffffffffffffffffffffffffff9091168152602001610103565b610157610152366004611ff8565b610397565b6040517fffffffff000000000000000000000000000000000000000000000000000000009091168152602001610103565b61019b610196366004611f61565b6104ab565b005b6101bd6101ab366004611f61565b60026020526000908152604090205481565b604051908152602001610103565b6101bd6101d93660046122c2565b6107fc565b6101bd6101ec36600461239a565b6111cf565b6101bd6101ff366004611f61565b611aa6565b61021761021236600461245c565b611ac7565b60405161010393929190612506565b6102396102343660046125cf565b611b2f565b604051610103939291906125f1565b61025b61025636600461262f565b611c12565b6040516101039392919061266b565b61011f610278366004611f61565b60036020526000908152604090205473ffffffffffffffffffffffffffffffffffffffff1681565b61011f7f000000000000000000000000000000000000000000000000000000000000000081565b60007fffffffff0000000000000000000000000000000000000000000000000000000082167f71700c6900000000000000000000000000000000000000000000000000000000148061035a57507f150b7a02000000000000000000000000000000000000000000000000000000007fffffffff000000000000000000000000000000000000000000000000000000008316145b92915050565b6000818154811061037057600080fd5b60009182526020909120015473ffffffffffffffffffffffffffffffffffffffff16905081565b60007f000000000000000000000000000000000000000000000000000000000000000073ffffffffffffffffffffffffffffffffffffffff16638b79543c6040518163ffffffff1660e01b8152600401602060405180830381865afa158015610404573d6000803e3d6000fd5b505050506040513d601f19601f820116820180604052508101906104289190612722565b73ffffffffffffffffffffffffffffffffffffffff163373ffffffffffffffffffffffffffffffffffffffff161461045f57600080fd5b73ffffffffffffffffffffffffffffffffffffffff85161561048057600080fd5b507f150b7a020000000000000000000000000000000000000000000000000000000095945050505050565b6040517f1f51045300000000000000000000000000000000000000000000000000000000815260048101829052600090819073ffffffffffffffffffffffffffffffffffffffff7f00000000000000000000000000000000000000000000000000000000000000001690631f510453906024016103c060405180830381865afa15801561053c573d6000803e3d6000fd5b505050506040513d601f19601f820116820180604052508101906105609190612905565b50815191935091506001146105a1576040517fc97554fa00000000000000000000000000000000000000000000000000000000815260040160405180910390fd5b60408051608080820183528481015182526000602080840182905260c08088015185870152606080860184905286516102a0810188526102408101858152610260820186905261028082018690528152808401859052888801518189015290810184905293840183905260a08401839052830182905260e08301829052610100830182905261012083018290526101408301829052610160830182905261018083018290526101a083018290526101c083018290526101e083018290526102008087015173ffffffffffffffffffffffffffffffffffffffff908116918501919091526102208781015190850152888352600282528583205486518481529283019096527f0000000000000000000000000000000000000000000000000000000000000000169463badbdf289489949093909290610702565b6040805180820190915260008152606060208201528152602001906001900390816106da5790505b506040805160008082526020820190925290610791565b61077e6040518060c00160405280600073ffffffffffffffffffffffffffffffffffffffff168152602001600073ffffffffffffffffffffffffffffffffffffffff168152602001600081526020016000815260200160008152602001600081525090565b8152602001906001900390816107195790505b506040518763ffffffff1660e01b81526004016107b396959493929190612ca3565b6020604051808303816000875af11580156107d2573d6000803e3d6000fd5b505050506040513d601f19601f820116820180604052508101906107f69190612d97565b50505050565b604080516001808252818301909252600091829190816020015b60408051808201909152600081526060602082015281526020019060019003908161081657505060408051600180825281830190925291925060009190602082015b6040805160e08101825260008082526020808301829052928201819052606082018190526080820181905260a0820181905260c082015282527fffffffffffffffffffffffffffffffffffffffffffffffffffffffffffffffff9092019101816108585790505090506040518060e00160405280600015158152602001600015158152602001633b9aca008152602001600081526020018b73ffffffffffffffffffffffffffffffffffffffff16815260200160008152602001600073ffffffffffffffffffffffffffffffffffffffff168152508160018151811061094057610940612db0565b6020026020010181905250604051806040016040528060028152602001828152508260008151811061097457610974612db0565b6020026020010181905250507f000000000000000000000000000000000000000000000000000000000000000073ffffffffffffffffffffffffffffffffffffffff16638b79543c6040518163ffffffff1660e01b8152600401602060405180830381865afa1580156109eb573d6000803e3d6000fd5b505050506040513d601f19601f82011682018060405250810190610a0f9190612722565b73ffffffffffffffffffffffffffffffffffffffff1663666d87a0308a6040518363ffffffff1660e01b8152600401610a49929190612ddf565b6020604051808303816000875af1158015610a68573d6000803e3d6000fd5b505050506040513d601f19601f82011682018060405250810190610a8c9190612d97565b915060007f000000000000000000000000000000000000000000000000000000000000000073ffffffffffffffffffffffffffffffffffffffff1663619306306040518163ffffffff1660e01b8152600401602060405180830381865afa158015610afb573d6000803e3d6000fd5b505050506040513d601f19601f82011682018060405250810190610b1f9190612722565b73ffffffffffffffffffffffffffffffffffffffff1663a7f2a70b848a8a6040518463ffffffff1660e01b8152600401610b5b93929190612e2d565b6020604051808303816000875af1158015610b7a573d6000803e3d6000fd5b505050506040513d601f19601f82011682018060405250810190610b9e9190612722565b600084815260036020908152604080832080547fffffffffffffffffffffffff000000000000000000000000000000000000000016905580516080810190915260608a0135815292935090917f000000000000000000000000000000000000000000000000000000000000000073ffffffffffffffffffffffffffffffffffffffff169163111d861b9187918101610c3860128d35612fb1565b81526020018b604001358152602001600073ffffffffffffffffffffffffffffffffffffffff1681525060405180610240016040528060405180606001604052806000151581526020016000151581526020016000151581525081526020018c60a0013581526020018c608001358152602001600081526020016000151581526020016000151581526020016000151581526020016000151581526020016001151581526020016000151581526020016000151581526020016000151581526020016000151581526020016000151581526020016001151581526020016000151581526020013073ffffffffffffffffffffffffffffffffffffffff1681526020016000815250600088600067ffffffffffffffff811115610d5c57610d5c61206b565b604051908082528060200260200182016040528015610df257816020015b610ddf6040518060c00160405280600073ffffffffffffffffffffffffffffffffffffffff168152602001600073ffffffffffffffffffffffffffffffffffffffff168152602001600081526020016000815260200160008152602001600081525090565b815260200190600190039081610d7a5790505b5060006040518863ffffffff1660e01b8152600401610e179796959493929190612fc0565b6020604051808303816000875af1158015610e36573d6000803e3d6000fd5b505050506040513d601f19601f82011682018060405250810190610e5a9190612d97565b5073ffffffffffffffffffffffffffffffffffffffff7f000000000000000000000000000000000000000000000000000000000000000016638ae9c07b85610ea7601260208c0135612fb1565b8e8c604051602001610eb991906130e1565b6040516020818303038152906040526000806040518763ffffffff1660e01b8152600401610eec9695949392919061314d565b6020604051808303816000875af1158015610f0b573d6000803e3d6000fd5b505050506040513d601f19601f82011682018060405250810190610f2f9190612d97565b507f000000000000000000000000000000000000000000000000000000000000000073ffffffffffffffffffffffffffffffffffffffff16632bdfe0046040518163ffffffff1660e01b8152600401602060405180830381865afa158015610f9b573d6000803e3d6000fd5b505050506040513d601f19601f82011682018060405250810190610fbf9190612722565b73ffffffffffffffffffffffffffffffffffffffff1663ad007d636040518163ffffffff1660e01b8152600401602060405180830381865afa158015611009573d6000803e3d6000fd5b505050506040513d601f19601f8201168201806040525081019061102d9190612722565b73ffffffffffffffffffffffffffffffffffffffff1663529cdd2e60405180606001604052808e73ffffffffffffffffffffffffffffffffffffffff16815260200187815260200160018054806020026020016040519081016040528092919081815260200182805480156110c157602002820191906000526020600020905b8154815260200190600101908083116110ad575b50505050508152506040518263ffffffff1660e01b81526004016110e591906131a2565b600060405180830381600087803b1580156110ff57600080fd5b505af1158015611113573d6000803e3d6000fd5b506111289250505060e0880160c0890161321e565b61113a9065ffffffffffff1642613246565b60008581526002602052604081209190915585905b818110156111bf5787878281811061116957611169612db0565b905060200281019061117b9190613259565b600087815260046020526040902080548390811061119b5761119b612db0565b906000526020600020906003020181816111b59190613333565b505060010161114f565b5050505050979650505050505050565b604080516001808252818301909252600091829190816020015b6040805180820190915260008152606060208201528152602001906001900390816111e957505060408051600180825281830190925291925060009190602082015b6040805160e08101825260008082526020808301829052928201819052606082018190526080820181905260a0820181905260c082015282527fffffffffffffffffffffffffffffffffffffffffffffffffffffffffffffffff90920191018161122b5790505090506040518060e00160405280600015158152602001600015158152602001633b9aca008152602001600081526020018b73ffffffffffffffffffffffffffffffffffffffff16815260200160008152602001600073ffffffffffffffffffffffffffffffffffffffff168152508160018151811061131357611313612db0565b6020026020010181905250604051806040016040528060028152602001828152508260008151811061134757611347612db0565b6020026020010181905250507f000000000000000000000000000000000000000000000000000000000000000073ffffffffffffffffffffffffffffffffffffffff16638b79543c6040518163ffffffff1660e01b8152600401602060405180830381865afa1580156113be573d6000803e3d6000fd5b505050506040513d601f19601f820116820180604052508101906113e29190612722565b73ffffffffffffffffffffffffffffffffffffffff1663666d87a0308a6040518363ffffffff1660e01b815260040161141c9291906135a1565b6020604051808303816000875af115801561143b573d6000803e3d6000fd5b505050506040513d601f19601f8201168201806040525081019061145f9190612d97565b915060007f000000000000000000000000000000000000000000000000000000000000000073ffffffffffffffffffffffffffffffffffffffff1663619306306040518163ffffffff1660e01b8152600401602060405180830381865afa1580156114ce573d6000803e3d6000fd5b505050506040513d601f19601f820116820180604052508101906114f29190612722565b73ffffffffffffffffffffffffffffffffffffffff1663a7f2a70b848a8a8a8a6040518663ffffffff1660e01b81526004016115329594939291906135f9565b6020604051808303816000875af1158015611551573d6000803e3d6000fd5b505050506040513d601f19601f820116820180604052508101906115759190612722565b905060007f000000000000000000000000000000000000000000000000000000000000000073ffffffffffffffffffffffffffffffffffffffff1663111d861b8560405180608001604052808960600135815260200160128a600001356115dc9190612fb1565b815260408a810135602080840191909152600092820183905281516102a081018352610240810184815261026082018590526102808201859052815260a0808e0135828401526080808f013583860152606083018690528201859052810184905260c0810184905260e081018490526001610100820181905261012082018590526101408201859052610160820185905261018082018590526101a082018590526101c08201526101e0810184905273ffffffffffffffffffffffffffffffffffffffff89166102008201526102208101849052825184815291820190925290919089908261173e565b61172b6040518060c00160405280600073ffffffffffffffffffffffffffffffffffffffff168152602001600073ffffffffffffffffffffffffffffffffffffffff168152602001600081526020016000815260200160008152602001600081525090565b8152602001906001900390816116c65790505b5060006040518863ffffffff1660e01b81526004016117639796959493929190612fc0565b6020604051808303816000875af1158015611782573d6000803e3d6000fd5b505050506040513d601f19601f820116820180604052508101906117a69190612d97565b5073ffffffffffffffffffffffffffffffffffffffff7f000000000000000000000000000000000000000000000000000000000000000016638ae9c07b856117f3601260208a0135612fb1565b8e8b8b604051602001611807929190613632565b6040516020818303038152906040526000806040518763ffffffff1660e01b815260040161183a9695949392919061314d565b6020604051808303816000875af1158015611859573d6000803e3d6000fd5b505050506040513d601f19601f8201168201806040525081019061187d9190612d97565b507f000000000000000000000000000000000000000000000000000000000000000073ffffffffffffffffffffffffffffffffffffffff16632bdfe0046040518163ffffffff1660e01b8152600401602060405180830381865afa1580156118e9573d6000803e3d6000fd5b505050506040513d601f19601f8201168201806040525081019061190d9190612722565b73ffffffffffffffffffffffffffffffffffffffff1663ad007d636040518163ffffffff1660e01b8152600401602060405180830381865afa158015611957573d6000803e3d6000fd5b505050506040513d601f19601f8201168201806040525081019061197b9190612722565b73ffffffffffffffffffffffffffffffffffffffff1663529cdd2e60405180606001604052808e73ffffffffffffffffffffffffffffffffffffffff1681526020018781526020016001805480602002602001604051908101604052809291908181526020018280548015611a0f57602002820191906000526020600020905b8154815260200190600101908083116119fb575b50505050508152506040518263ffffffff1660e01b8152600401611a3391906131a2565b600060405180830381600087803b158015611a4d57600080fd5b505af1158015611a61573d6000803e3d6000fd5b50611a769250505060e0860160c0870161321e565b611a889065ffffffffffff1642613246565b60008581526002602052604090205550919998505050505050505050565b60018181548110611ab657600080fd5b600091825260209091200154905081565b604080516000808252602082019092526060908190839081611b13565b60408051606080820183526000808352602083015291810191909152815260200190600190039081611ae45790505b5060408051602081019091526000815291969195509350915050565b60046020528160005260406000208181548110611b4b57600080fd5b600091825260209091206003909102018054600182015460028301805473ffffffffffffffffffffffffffffffffffffffff909316955090935090611b8f90613297565b80601f0160208091040260200160405190810160405280929190818152602001828054611bbb90613297565b8015611c085780601f10611bdd57610100808354040283529160200191611c08565b820191906000526020600020905b815481529060010190602001808311611beb57829003601f168201915b5050505050905083565b60c08101356000908152600360205260408082205490517fd46cf1710000000000000000000000000000000000000000000000000000000081526060918291829173ffffffffffffffffffffffffffffffffffffffff169063d46cf17190611c7e9088906004016136d1565b600060405180830381865afa158015611c9b573d6000803e3d6000fd5b505050506040513d6000823e601f3d9081017fffffffffffffffffffffffffffffffffffffffffffffffffffffffffffffffe0168201604052611ce19190810190613845565b60c088013560009081526004602090815260408083208054825181850281018501909352808352969a50949850929550909391929190849084015b82821015611e0d5760008481526020908190206040805160608101825260038602909201805473ffffffffffffffffffffffffffffffffffffffff16835260018101549383019390935260028301805492939291840191611d7c90613297565b80601f0160208091040260200160405190810160405280929190818152602001828054611da890613297565b8015611df55780601f10611dca57610100808354040283529160200191611df5565b820191906000526020600020905b815481529060010190602001808311611dd857829003601f168201915b50505050508152505081526020019060010190611d1c565b50508251929350611e2391508290506001613246565b67ffffffffffffffff811115611e3b57611e3b61206b565b604051908082528060200260200182016040528015611e8857816020015b60408051606080820183526000808352602083015291810191909152815260200190600190039081611e595790505b50935060005b81811015611ed557828181518110611ea857611ea8612db0565b6020026020010151858281518110611ec257611ec2612db0565b6020908102919091010152600101611e8e565b5082600081518110611ee957611ee9612db0565b6020026020010151848281518110611f0357611f03612db0565b60200260200101819052505050509193909250565b600060208284031215611f2a57600080fd5b81357fffffffff0000000000000000000000000000000000000000000000000000000081168114611f5a57600080fd5b9392505050565b600060208284031215611f7357600080fd5b5035919050565b73ffffffffffffffffffffffffffffffffffffffff81168114611f9c57600080fd5b50565b8035611faa81611f7a565b919050565b60008083601f840112611fc157600080fd5b50813567ffffffffffffffff811115611fd957600080fd5b602083019150836020828501011115611ff157600080fd5b9250929050565b60008060008060006080868803121561201057600080fd5b853561201b81611f7a565b9450602086013561202b81611f7a565b935060408601359250606086013567ffffffffffffffff81111561204e57600080fd5b61205a88828901611faf565b969995985093965092949392505050565b7f4e487b7100000000000000000000000000000000000000000000000000000000600052604160045260246000fd5b6040516060810167ffffffffffffffff811182821017156120bd576120bd61206b565b60405290565b604051610240810167ffffffffffffffff811182821017156120bd576120bd61206b565b604051610120810167ffffffffffffffff811182821017156120bd576120bd61206b565b604051601f82017fffffffffffffffffffffffffffffffffffffffffffffffffffffffffffffffe016810167ffffffffffffffff811182821017156121525761215261206b565b604052919050565b600067ffffffffffffffff8211156121745761217461206b565b50601f017fffffffffffffffffffffffffffffffffffffffffffffffffffffffffffffffe01660200190565b600082601f8301126121b157600080fd5b81356121c46121bf8261215a565b61210b565b8181528460208386010111156121d957600080fd5b816020850160208301376000918101602001919091529392505050565b60006040828403121561220857600080fd5b6040516040810167ffffffffffffffff828210818311171561222c5761222c61206b565b81604052829350843591508082111561224457600080fd5b50612251858286016121a0565b825250602083013560208201525092915050565b600060e0828403121561227757600080fd5b50919050565b60008083601f84011261228f57600080fd5b50813567ffffffffffffffff8111156122a757600080fd5b6020830191508360208260051b8501011115611ff157600080fd5b6000806000806000806000610180888a0312156122de57600080fd5b6122e788611f9f565b9650602088013567ffffffffffffffff8082111561230457600080fd5b6123108b838c016121f6565b975060408a013591508082111561232657600080fd5b6123328b838c016121a0565b965060608a013591508082111561234857600080fd5b6123548b838c016121a0565b95506123638b60808c01612265565b94506101608a013591508082111561237a57600080fd5b506123878a828b0161227d565b989b979a50959850939692959293505050565b6000806000806000806000610160888a0312156123b657600080fd5b87356123c181611f7a565b9650602088013567ffffffffffffffff808211156123de57600080fd5b908901906040828c0312156123f257600080fd5b9096506040890135908082111561240857600080fd5b6124148b838c01611faf565b909750955060608a013591508082111561242d57600080fd5b5061243a8a828b01611faf565b909450925061244e90508960808a01612265565b905092959891949750929550565b60006020828403121561246e57600080fd5b813567ffffffffffffffff81111561248557600080fd5b82016101e08185031215611f5a57600080fd5b60005b838110156124b357818101518382015260200161249b565b50506000910152565b600081518084526124d4816020860160208601612498565b601f017fffffffffffffffffffffffffffffffffffffffffffffffffffffffffffffffe0169290920160200192915050565b6000606085835260208181850152612520828501876124bc565b6040858203818701528187518084528484019150848160051b850101858a0160005b838110156125bd578683037fffffffffffffffffffffffffffffffffffffffffffffffffffffffffffffffe00185528151805173ffffffffffffffffffffffffffffffffffffffff16845288810151898501528601518684018a90526125aa8a8501826124bc565b9589019593505090870190600101612542565b50909c9b505050505050505050505050565b600080604083850312156125e257600080fd5b50508035926020909101359150565b73ffffffffffffffffffffffffffffffffffffffff8416815282602082015260606040820152600061262660608301846124bc565b95945050505050565b60006020828403121561264157600080fd5b813567ffffffffffffffff81111561265857600080fd5b82016101a08185031215611f5a57600080fd5b6000606085835260208181850152612685828501876124bc565b6040858203818701528187518084528484019150848160051b850101858a0160005b838110156125bd578683037fffffffffffffffffffffffffffffffffffffffffffffffffffffffffffffffe00185528151805173ffffffffffffffffffffffffffffffffffffffff16845288810151898501528601518684018a905261270f8a8501826124bc565b95890195935050908701906001016126a7565b60006020828403121561273457600080fd5b8151611f5a81611f7a565b8051611faa81611f7a565b80518015158114611faa57600080fd5b60006060828403121561276c57600080fd5b61277461209a565b905061277f8261274a565b815261278d6020830161274a565b602082015261279e6040830161274a565b604082015292915050565b600061028082840312156127bc57600080fd5b6127c46120c3565b90506127d0838361275a565b8152606082015160208201526080820151604082015260a082015160608201526127fc60c0830161274a565b608082015261280d60e0830161274a565b60a082015261010061282081840161274a565b60c083015261012061283381850161274a565b60e084015261014061284681860161274a565b83850152610160925061285a83860161274a565b82850152610180915061286e82860161274a565b908401526101a061288085820161274a565b838501526101c0925061289483860161274a565b828501526101e091506128a882860161274a565b908401526102006128ba85820161274a565b8385015261022092506128ce83860161274a565b828501526128df610240860161273f565b818501525050610260830151818301525092915050565b805160038110611faa57600080fd5b60008060008385036103c081121561291c57600080fd5b6101208082121561292c57600080fd5b6129346120e7565b9150855182526020860151602083015260408601516040830152606086015160608301526080860151608083015260a086015160a083015260c086015160c083015261298260e0870161273f565b60e08301526101008087015181840152508194506129a2878288016127a9565b935050506129b36103a085016128f6565b90509250925092565b6129e18282518051151582526020808201511515908301526040908101511515910152565b6020810151606083015260408101516080830152606081015160a08301526080810151612a1260c084018215159052565b5060a081015180151560e08401525060c0810151610100612a368185018315159052565b60e08301519150610120612a4d8186018415159052565b90830151915061014090612a648583018415159052565b8301519150610160612a798582018415159052565b90830151915061018090612a908583018415159052565b83015191506101a0612aa58582018415159052565b9083015191506101c090612abc8583018415159052565b83015191506101e0612ad18582018415159052565b90830151915061020090612ae88583018415159052565b8301519150610220612afd8582018415159052565b9083015173ffffffffffffffffffffffffffffffffffffffff16610240850152909101516102609092019190915250565b600081518084526020808501808196508360051b810191508286016000805b86811015612c0d578385038a52825180518652860151604087870181905281518188018190529188019160609081890190865b81811015612bf65785518051151584528c81015115158d8501528581015186850152848101518585015260808082015173ffffffffffffffffffffffffffffffffffffffff9081169186019190915260a0808301519086015260c0918201511690840152948b019460e090920191600101612b80565b50509c89019c975050509286019250600101612b4d565b509298975050505050505050565b600081518084526020808501945080840160005b83811015612c98578151805173ffffffffffffffffffffffffffffffffffffffff908116895284820151168489015260408082015190890152606080820151908901526080808201519089015260a0908101519088015260c09096019590820190600101612c2f565b509495945050505050565b60006103a0888352612cef602084018980518252602081015160208301526040810151604083015273ffffffffffffffffffffffffffffffffffffffff60608201511660608301525050565b612cfc60a08401886129bc565b8561032084015280610340840152612d1681840186612b2e565b9050828103610360840152612d2b8185612c1b565b838103610380909401939093525050603481527f5363686564756c6564207265736572766564207261746520657870697279206f60208201527f662052657461696c69737420747265617375727900000000000000000000000060408201526060019695505050505050565b600060208284031215612da957600080fd5b5051919050565b7f4e487b7100000000000000000000000000000000000000000000000000000000600052603260045260246000fd5b73ffffffffffffffffffffffffffffffffffffffff831681526040602082015260008251604080840152612e1660808401826124bc565b905060208401516060840152809150509392505050565b838152606060208201526000612e4660608301856124bc565b8281036040840152612e5881856124bc565b9695505050505050565b7f4e487b7100000000000000000000000000000000000000000000000000000000600052601160045260246000fd5b600181815b80851115612eea57817fffffffffffffffffffffffffffffffffffffffffffffffffffffffffffffffff04821115612ed057612ed0612e62565b80851615612edd57918102915b93841c9390800290612e96565b509250929050565b600082612f015750600161035a565b81612f0e5750600061035a565b8160018114612f245760028114612f2e57612f4a565b600191505061035a565b60ff841115612f3f57612f3f612e62565b50506001821b61035a565b5060208310610133831016604e8410600b8410161715612f6d575081810a61035a565b612f778383612e91565b807fffffffffffffffffffffffffffffffffffffffffffffffffffffffffffffffff04821115612fa957612fa9612e62565b029392505050565b6000611f5a60ff841683612ef2565b60006103c0898352602061300d8185018b80518252602081015160208301526040810151604083015273ffffffffffffffffffffffffffffffffffffffff60608201511660608301525050565b61301a60a085018a6129bc565b876103208501528161034085015261303482850188612b2e565b91508382036103608501526130498287612c1b565b848103610380860152855480825260008781528381209450918301915b8181101561309857845473ffffffffffffffffffffffffffffffffffffffff1683526001948501949284019201613066565b50508481036103a0860152601b81527f4465706c6f7965642052657461696c69737420747265617375727900000000006020820152604081019c9b505050505050505050505050565b7f5072656d696e746564200000000000000000000000000000000000000000000081526000825161311981600a850160208701612498565b7f20746f6b656e732e000000000000000000000000000000000000000000000000600a939091019283015250601201919050565b86815285602082015273ffffffffffffffffffffffffffffffffffffffff8516604082015260c06060820152600061318860c08301866124bc565b93151560808301525090151560a090910152949350505050565b600060208083526080830173ffffffffffffffffffffffffffffffffffffffff85511682850152818501516040850152604085015160608086015281815180845260a0870191508483019350600092505b8083101561321357835182529284019260019290920191908401906131f3565b509695505050505050565b60006020828403121561323057600080fd5b813565ffffffffffff81168114611f5a57600080fd5b8082018082111561035a5761035a612e62565b600082357fffffffffffffffffffffffffffffffffffffffffffffffffffffffffffffffa183360301811261328d57600080fd5b9190910192915050565b600181811c908216806132ab57607f821691505b602082108103612277577f4e487b7100000000000000000000000000000000000000000000000000000000600052602260045260246000fd5b601f82111561332e57600081815260208120601f850160051c8101602086101561330b5750805b601f850160051c820191505b8181101561332a57828155600101613317565b5050505b505050565b813561333e81611f7a565b73ffffffffffffffffffffffffffffffffffffffff81167fffffffffffffffffffffffff0000000000000000000000000000000000000000835416178255506001602080840135828401556002830160408501357fffffffffffffffffffffffffffffffffffffffffffffffffffffffffffffffe18636030181126133c257600080fd5b8501803567ffffffffffffffff8111156133db57600080fd5b80360384830113156133ec57600080fd5b613400816133fa8554613297565b856132e4565b6000601f821160018114613454576000831561341e57508382018601355b7fffffffffffffffffffffffffffffffffffffffffffffffffffffffffffffffff600385901b1c1916600184901b1785556134e9565b6000858152602090207fffffffffffffffffffffffffffffffffffffffffffffffffffffffffffffffe0841690835b828110156134a257868501890135825593880193908901908801613483565b50848210156134df577fffffffffffffffffffffffffffffffffffffffffffffffffffffffffffffffff60f88660031b161c198885880101351681555b50508683881b0185555b505050505050505050565b60008083357fffffffffffffffffffffffffffffffffffffffffffffffffffffffffffffffe184360301811261352957600080fd5b830160208101925035905067ffffffffffffffff81111561354957600080fd5b803603821315611ff157600080fd5b8183528181602085013750600060208284010152600060207fffffffffffffffffffffffffffffffffffffffffffffffffffffffffffffffe0601f840116840101905092915050565b73ffffffffffffffffffffffffffffffffffffffff831681526040602082015260006135cd83846134f4565b6040808501526135e1608085018284613558565b91505060208401356060840152809150509392505050565b858152606060208201526000613613606083018688613558565b8281036040840152613626818587613558565b98975050505050505050565b7f5072656d696e746564200000000000000000000000000000000000000000000081528183600a8301377f20746f6b656e732e0000000000000000000000000000000000000000000000009101600a810191909152601201919050565b803561369a81611f7a565b73ffffffffffffffffffffffffffffffffffffffff1682526020818101359083015260408082013590830152606090810135910152565b602081526136ff602082016136e584611f9f565b73ffffffffffffffffffffffffffffffffffffffff169052565b600061370d60208401611f9f565b73ffffffffffffffffffffffffffffffffffffffff811660408401525061373a606083016040850161368f565b60c083013560e083015261010060e08401358184015261375b818501611f9f565b90506101206137818185018373ffffffffffffffffffffffffffffffffffffffff169052565b610140915080850135828501525061016081850135818501526137a6818601866134f4565b925090506101a061018081818701526137c46101c087018585613558565b93506137d2818801886134f4565b935090507fffffffffffffffffffffffffffffffffffffffffffffffffffffffffffffffe0868503018287015261380a848483613558565b979650505050505050565b60006138236121bf8461215a565b905082815283838301111561383757600080fd5b611f5a836020830184612498565b60008060006060848603121561385a57600080fd5b8351925060208085015167ffffffffffffffff8082111561387a57600080fd5b818701915087601f83011261388e57600080fd5b61389c888351858501613815565b945060408701519150808211156138b257600080fd5b818701915087601f8301126138c657600080fd5b8151818111156138d8576138d861206b565b8060051b6138e785820161210b565b918252838101850191858101908b84111561390157600080fd5b86860192505b838310156139bf5782518581111561391e57600080fd5b86016060818e037fffffffffffffffffffffffffffffffffffffffffffffffffffffffffffffffe001121561395257600080fd5b61395a61209a565b8882015161396781611f7a565b815260408201518982015260608201518781111561398457600080fd5b8083019250508d603f83011261399957600080fd5b6139aa8e8a84015160408501613815565b60408201528352509186019190860190613907565b80975050505050505050925092509256fea2646970667358221220d6bd0b139bfd327c72a50073917ef3b1fdc9255c2b5e3faacdb7fe7a5dec882f64736f6c63430008140033",
    "linkReferences": {}
  },
  "methodIdentifiers": {
    "buybackDelegateDataSourceOf(uint256)": "ef8eadd5",
    "controller()": "f77c4791",
    "delegateAllocationsOf(uint256,uint256)": "abc603e3",
    "deployProjectFor(address,(string,uint256),string,string,(uint256,uint256,uint256,uint256,uint256,uint256,uint48))": "79925560",
    "deployProjectFor(address,(string,uint256),string,string,(uint256,uint256,uint256,uint256,uint256,uint256,uint48),(address,uint256,bytes)[])": "5a747d74",
    "onERC721Received(address,address,uint256,bytes)": "150b7a02",
    "payParams((address,address,(address,uint256,uint256,uint256),uint256,uint256,address,uint256,uint256,string,bytes))": "d46cf171",
    "permissionIndexes(uint256)": "9483e771",
    "reconfigurationStartTimestampOf(uint256)": "560f7b03",
    "redeemParams((address,address,uint256,uint256,uint256,uint256,uint256,(address,uint256,uint256,uint256),bool,uint256,string,bytes))": "a51cfd18",
    "scheduleReconfigurationOf(uint256)": "3ce6d3e2",
    "supportsInterface(bytes4)": "01ffc9a7",
    "terminals(uint256)": "0219758e"
  },
  "id": 57
}