{
  "abi": [
    {
      "inputs": [
        {
          "internalType": "contract IJBController3_1",
          "name": "_controller",
          "type": "address"
        }
      ],
      "stateMutability": "nonpayable",
      "type": "constructor"
    },
    {
      "inputs": [],
      "name": "BAD_DEV_TAX_SEQUENCE",
      "type": "error"
    },
    {
      "inputs": [],
      "name": "RECONFIGURATION_ALREADY_SCHEDULED",
      "type": "error"
    },
    {
      "inputs": [],
      "name": "RECONFIGURATION_NOT_POSSIBLE",
      "type": "error"
    },
    {
      "inputs": [
        {
          "internalType": "uint256",
          "name": "",
          "type": "uint256"
        }
      ],
      "name": "buybackDelegateDataSourceOf",
      "outputs": [
        {
          "internalType": "contract IJBGenericBuybackDelegate",
          "name": "",
          "type": "address"
        }
      ],
      "stateMutability": "view",
      "type": "function"
    },
    {
      "inputs": [
        {
          "internalType": "uint256",
          "name": "",
          "type": "uint256"
        }
      ],
      "name": "buybackDelegatePermissionIndexes",
      "outputs": [
        {
          "internalType": "uint256",
          "name": "",
          "type": "uint256"
        }
      ],
      "stateMutability": "view",
      "type": "function"
    },
    {
      "inputs": [],
      "name": "controller",
      "outputs": [
        {
          "internalType": "contract IJBController3_1",
          "name": "",
          "type": "address"
        }
      ],
      "stateMutability": "view",
      "type": "function"
    },
    {
      "inputs": [
        {
          "internalType": "uint256",
          "name": "_networkId",
          "type": "uint256"
        }
      ],
      "name": "currentDevTaxPeriodNumberOf",
      "outputs": [
        {
          "internalType": "uint256",
          "name": "",
          "type": "uint256"
        }
      ],
      "stateMutability": "view",
      "type": "function"
    },
    {
      "inputs": [
        {
          "internalType": "uint256",
          "name": "",
          "type": "uint256"
        },
        {
          "internalType": "uint256",
          "name": "",
          "type": "uint256"
        }
      ],
      "name": "delegateAllocationsOf",
      "outputs": [
        {
          "internalType": "contract IJBPayDelegate3_1_1",
          "name": "delegate",
          "type": "address"
        },
        {
          "internalType": "uint256",
          "name": "amount",
          "type": "uint256"
        },
        {
          "internalType": "bytes",
          "name": "metadata",
          "type": "bytes"
        }
      ],
      "stateMutability": "view",
      "type": "function"
    },
    {
      "inputs": [
        {
          "internalType": "address",
          "name": "_operator",
          "type": "address"
        },
        {
          "components": [
            {
              "internalType": "string",
              "name": "content",
              "type": "string"
            },
            {
              "internalType": "uint256",
              "name": "domain",
              "type": "uint256"
            }
          ],
          "internalType": "struct JBProjectMetadata",
          "name": "_networkMetadata",
          "type": "tuple"
        },
        {
          "internalType": "string",
          "name": "_name",
          "type": "string"
        },
        {
          "internalType": "string",
          "name": "_symbol",
          "type": "string"
        },
        {
          "components": [
            {
              "internalType": "uint256",
              "name": "initialIssuanceRate",
              "type": "uint256"
            },
            {
              "internalType": "uint256",
              "name": "premintTokenAmount",
              "type": "uint256"
            },
            {
              "internalType": "uint256",
              "name": "generationTax",
              "type": "uint256"
            },
            {
              "internalType": "uint256",
              "name": "generationDuration",
              "type": "uint256"
            },
            {
              "internalType": "uint256",
              "name": "exitTaxRate",
              "type": "uint256"
            },
            {
              "components": [
                {
                  "internalType": "uint128",
                  "name": "rate",
                  "type": "uint128"
                },
                {
                  "internalType": "uint128",
                  "name": "startsAtOrAfter",
                  "type": "uint128"
                }
              ],
              "internalType": "struct DevTaxPeriod[]",
              "name": "devTaxPeriods",
              "type": "tuple[]"
            },
            {
              "internalType": "uint24",
              "name": "poolFee",
              "type": "uint24"
            }
          ],
          "internalType": "struct BasicRetailistJBParams",
          "name": "_data",
          "type": "tuple"
        },
        {
          "internalType": "contract IJBPaymentTerminal[]",
          "name": "_terminals",
          "type": "address[]"
        },
        {
          "internalType": "contract IJBGenericBuybackDelegate",
          "name": "_buybackDelegate",
          "type": "address"
        }
      ],
      "name": "deployBasicNetworkFor",
      "outputs": [
        {
          "internalType": "uint256",
          "name": "networkId",
          "type": "uint256"
        }
      ],
      "stateMutability": "nonpayable",
      "type": "function"
    },
    {
      "inputs": [
        {
          "internalType": "address",
          "name": "_operator",
          "type": "address"
        },
        {
          "components": [
            {
              "internalType": "string",
              "name": "content",
              "type": "string"
            },
            {
              "internalType": "uint256",
              "name": "domain",
              "type": "uint256"
            }
          ],
          "internalType": "struct JBProjectMetadata",
          "name": "_networkMetadata",
          "type": "tuple"
        },
        {
          "internalType": "string",
          "name": "_name",
          "type": "string"
        },
        {
          "internalType": "string",
          "name": "_symbol",
          "type": "string"
        },
        {
          "components": [
            {
              "internalType": "uint256",
              "name": "initialIssuanceRate",
              "type": "uint256"
            },
            {
              "internalType": "uint256",
              "name": "premintTokenAmount",
              "type": "uint256"
            },
            {
              "internalType": "uint256",
              "name": "generationTax",
              "type": "uint256"
            },
            {
              "internalType": "uint256",
              "name": "generationDuration",
              "type": "uint256"
            },
            {
              "internalType": "uint256",
              "name": "exitTaxRate",
              "type": "uint256"
            },
            {
              "components": [
                {
                  "internalType": "uint128",
                  "name": "rate",
                  "type": "uint128"
                },
                {
                  "internalType": "uint128",
                  "name": "startsAtOrAfter",
                  "type": "uint128"
                }
              ],
              "internalType": "struct DevTaxPeriod[]",
              "name": "devTaxPeriods",
              "type": "tuple[]"
            },
            {
              "internalType": "uint24",
              "name": "poolFee",
              "type": "uint24"
            }
          ],
          "internalType": "struct BasicRetailistJBParams",
          "name": "_data",
          "type": "tuple"
        },
        {
          "internalType": "contract IJBPaymentTerminal[]",
          "name": "_terminals",
          "type": "address[]"
        },
        {
          "internalType": "contract IJBGenericBuybackDelegate",
          "name": "_buybackDelegate",
          "type": "address"
        },
        {
          "components": [
            {
              "internalType": "contract IJBPayDelegate3_1_1",
              "name": "delegate",
              "type": "address"
            },
            {
              "internalType": "uint256",
              "name": "amount",
              "type": "uint256"
            },
            {
              "internalType": "bytes",
              "name": "metadata",
              "type": "bytes"
            }
          ],
          "internalType": "struct JBPayDelegateAllocation3_1_1[]",
          "name": "_delegateAllocations",
          "type": "tuple[]"
        },
        {
          "internalType": "uint8",
          "name": "_extraFundingCycleMetadata",
          "type": "uint8"
        }
      ],
      "name": "deployPayAllocatorNetworkFor",
      "outputs": [
        {
          "internalType": "uint256",
          "name": "networkId",
          "type": "uint256"
        }
      ],
      "stateMutability": "nonpayable",
      "type": "function"
    },
    {
      "inputs": [
        {
          "internalType": "uint256",
          "name": "_networkId",
          "type": "uint256"
        }
      ],
      "name": "devTaxPeriodsOf",
      "outputs": [
        {
          "components": [
            {
              "internalType": "uint128",
              "name": "rate",
              "type": "uint128"
            },
            {
              "internalType": "uint128",
              "name": "startsAtOrAfter",
              "type": "uint128"
            }
          ],
          "internalType": "struct DevTaxPeriod[]",
          "name": "",
          "type": "tuple[]"
        }
      ],
      "stateMutability": "view",
      "type": "function"
    },
    {
      "inputs": [
        {
          "internalType": "address",
          "name": "_operator",
          "type": "address"
        },
        {
          "internalType": "address",
          "name": "_from",
          "type": "address"
        },
        {
          "internalType": "uint256",
          "name": "_tokenId",
          "type": "uint256"
        },
        {
          "internalType": "bytes",
          "name": "_data",
          "type": "bytes"
        }
      ],
      "name": "onERC721Received",
      "outputs": [
        {
          "internalType": "bytes4",
          "name": "",
          "type": "bytes4"
        }
      ],
      "stateMutability": "view",
      "type": "function"
    },
    {
      "inputs": [
        {
          "internalType": "uint256",
          "name": "",
          "type": "uint256"
        }
      ],
      "name": "operatorPermissionIndexes",
      "outputs": [
        {
          "internalType": "uint256",
          "name": "",
          "type": "uint256"
        }
      ],
      "stateMutability": "view",
      "type": "function"
    },
    {
      "inputs": [
        {
          "components": [
            {
              "internalType": "contract IJBPaymentTerminal",
              "name": "terminal",
              "type": "address"
            },
            {
              "internalType": "address",
              "name": "payer",
              "type": "address"
            },
            {
              "components": [
                {
                  "internalType": "address",
                  "name": "token",
                  "type": "address"
                },
                {
                  "internalType": "uint256",
                  "name": "value",
                  "type": "uint256"
                },
                {
                  "internalType": "uint256",
                  "name": "decimals",
                  "type": "uint256"
                },
                {
                  "internalType": "uint256",
                  "name": "currency",
                  "type": "uint256"
                }
              ],
              "internalType": "struct JBTokenAmount",
              "name": "amount",
              "type": "tuple"
            },
            {
              "internalType": "uint256",
              "name": "projectId",
              "type": "uint256"
            },
            {
              "internalType": "uint256",
              "name": "currentFundingCycleConfiguration",
              "type": "uint256"
            },
            {
              "internalType": "address",
              "name": "beneficiary",
              "type": "address"
            },
            {
              "internalType": "uint256",
              "name": "weight",
              "type": "uint256"
            },
            {
              "internalType": "uint256",
              "name": "reservedRate",
              "type": "uint256"
            },
            {
              "internalType": "string",
              "name": "memo",
              "type": "string"
            },
            {
              "internalType": "bytes",
              "name": "metadata",
              "type": "bytes"
            }
          ],
          "internalType": "struct JBPayParamsData",
          "name": "_data",
          "type": "tuple"
        }
      ],
      "name": "payParams",
      "outputs": [
        {
          "internalType": "uint256",
          "name": "weight",
          "type": "uint256"
        },
        {
          "internalType": "string",
          "name": "memo",
          "type": "string"
        },
        {
          "components": [
            {
              "internalType": "contract IJBPayDelegate3_1_1",
              "name": "delegate",
              "type": "address"
            },
            {
              "internalType": "uint256",
              "name": "amount",
              "type": "uint256"
            },
            {
              "internalType": "bytes",
              "name": "metadata",
              "type": "bytes"
            }
          ],
          "internalType": "struct JBPayDelegateAllocation3_1_1[]",
          "name": "delegateAllocations",
          "type": "tuple[]"
        }
      ],
      "stateMutability": "view",
      "type": "function"
    },
    {
      "inputs": [
        {
          "components": [
            {
              "internalType": "contract IJBPaymentTerminal",
              "name": "terminal",
              "type": "address"
            },
            {
              "internalType": "address",
              "name": "holder",
              "type": "address"
            },
            {
              "internalType": "uint256",
              "name": "projectId",
              "type": "uint256"
            },
            {
              "internalType": "uint256",
              "name": "currentFundingCycleConfiguration",
              "type": "uint256"
            },
            {
              "internalType": "uint256",
              "name": "tokenCount",
              "type": "uint256"
            },
            {
              "internalType": "uint256",
              "name": "totalSupply",
              "type": "uint256"
            },
            {
              "internalType": "uint256",
              "name": "overflow",
              "type": "uint256"
            },
            {
              "components": [
                {
                  "internalType": "address",
                  "name": "token",
                  "type": "address"
                },
                {
                  "internalType": "uint256",
                  "name": "value",
                  "type": "uint256"
                },
                {
                  "internalType": "uint256",
                  "name": "decimals",
                  "type": "uint256"
                },
                {
                  "internalType": "uint256",
                  "name": "currency",
                  "type": "uint256"
                }
              ],
              "internalType": "struct JBTokenAmount",
              "name": "reclaimAmount",
              "type": "tuple"
            },
            {
              "internalType": "bool",
              "name": "useTotalOverflow",
              "type": "bool"
            },
            {
              "internalType": "uint256",
              "name": "redemptionRate",
              "type": "uint256"
            },
            {
              "internalType": "string",
              "name": "memo",
              "type": "string"
            },
            {
              "internalType": "bytes",
              "name": "metadata",
              "type": "bytes"
            }
          ],
          "internalType": "struct JBRedeemParamsData",
          "name": "_data",
          "type": "tuple"
        }
      ],
      "name": "redeemParams",
      "outputs": [
        {
          "internalType": "uint256",
          "name": "",
          "type": "uint256"
        },
        {
          "internalType": "string",
          "name": "",
          "type": "string"
        },
        {
          "components": [
            {
              "internalType": "contract IJBRedemptionDelegate3_1_1",
              "name": "delegate",
              "type": "address"
            },
            {
              "internalType": "uint256",
              "name": "amount",
              "type": "uint256"
            },
            {
              "internalType": "bytes",
              "name": "metadata",
              "type": "bytes"
            }
          ],
          "internalType": "struct JBRedemptionDelegateAllocation3_1_1[]",
          "name": "",
          "type": "tuple[]"
        }
      ],
      "stateMutability": "view",
      "type": "function"
    },
    {
      "inputs": [
        {
          "internalType": "uint256",
          "name": "_networkId",
          "type": "uint256"
        }
      ],
      "name": "scheduleNextDevTaxPeriodOf",
      "outputs": [],
      "stateMutability": "nonpayable",
      "type": "function"
    },
    {
      "inputs": [
        {
          "internalType": "bytes4",
          "name": "_interfaceId",
          "type": "bytes4"
        }
      ],
      "name": "supportsInterface",
      "outputs": [
        {
          "internalType": "bool",
          "name": "",
          "type": "bool"
        }
      ],
      "stateMutability": "view",
      "type": "function"
    }
  ],
  "bytecode": {
    "object": "0x60a06040523480156200001157600080fd5b5060405162004a1d38038062004a1d8339810160408190526200003491620000b5565b6001600160a01b031660805260018054808201825560127fb10e2d527612073b26eecdfd717e6a320cf44b4afac2b0732d9fcbe2b7fa0cf69182015581548083018355601891015560058054918201815560005260097f036b6384b5eca791c62761152d0c79bb0604c104a5fb6f4eb0703f3154bb3db090910155620000e7565b600060208284031215620000c857600080fd5b81516001600160a01b0381168114620000e057600080fd5b9392505050565b6080516148aa62000173600039600081816102d0015281816103d401528181610630015281816107730152818161088101528181610b3201528181610ded01528181610ec4015281816110cc015281816112a3015281816113b1015281816116620152818161196101528181611a3801528181611c1f01528181611da101526124bd01526148aa6000f3fe608060405234801561001057600080fd5b50600436106100ea5760003560e01c80639e8c513a1161008c578063abc603e311610066578063abc603e31461022c578063d46cf1711461024e578063ef8eadd514610270578063f77c4791146102cb57600080fd5b80639e8c513a146101d75780639f665eee146101ea578063a51cfd181461020a57600080fd5b8063150b7a02116100c8578063150b7a021461014d578063263950ae146101915780634d757720146101b1578063522aa551146101c457600080fd5b806301ffc9a7146100ef5780630310850e146101175780630a801f471461012c575b600080fd5b6101026100fd3660046129f2565b6102f2565b60405190151581526020015b60405180910390f35b61012a610125366004612a3b565b61038b565b005b61013f61013a366004612e92565b610763565b60405190815260200161010e565b61016061015b366004612f85565b6110c8565b6040517fffffffff00000000000000000000000000000000000000000000000000000000909116815260200161010e565b6101a461019f366004612a3b565b6111dc565b60405161010e9190613024565b61013f6101bf366004612a3b565b611272565b61013f6101d23660046131a7565b611293565b61013f6101e5366004612a3b565b611fb3565b61013f6101f8366004612a3b565b60026020526000908152604090205481565b61021d6102183660046132d0565b611fc3565b60405161010e9392919061337a565b61023f61023a366004613443565b61202b565b60405161010e93929190613465565b61026161025c3660046134a3565b61210e565b60405161010e939291906134df565b6102a661027e366004612a3b565b60036020526000908152604090205473ffffffffffffffffffffffffffffffffffffffff1681565b60405173ffffffffffffffffffffffffffffffffffffffff909116815260200161010e565b6102a67f000000000000000000000000000000000000000000000000000000000000000081565b60007fffffffff0000000000000000000000000000000000000000000000000000000082167f71700c6900000000000000000000000000000000000000000000000000000000148061038557507f150b7a02000000000000000000000000000000000000000000000000000000007fffffffff000000000000000000000000000000000000000000000000000000008316145b92915050565b6040517f1f51045300000000000000000000000000000000000000000000000000000000815260048101829052600090819073ffffffffffffffffffffffffffffffffffffffff7f00000000000000000000000000000000000000000000000000000000000000001690631f510453906024016103c060405180830381865afa15801561041c573d6000803e3d6000fd5b505050506040513d601f19601f82011682018060405250810190610440919061375c565b506000858152600260205260408120805493955091935091829061046390613842565b918290555060008581526020819052604090205490915080158061048657508082145b806104945750428460600151115b156104cb576040517fc97554fa00000000000000000000000000000000000000000000000000000000815260040160405180910390fd5b60008581526020819052604081208054849081106104eb576104eb61387a565b6000918252602080832060408051808201825293909101546fffffffffffffffffffffffffffffffff808216855270010000000000000000000000000000000090910481168484019081528251608080820185528c810151825281860188905260c0808e01518387015260608084018a905286516102a08101885261024081018b815261026082018c905261028082018c905281528951909616868901528d87015196860196909652948401889052830187905260a0830187905292820186905260e08201869052610100820186905261012082018690526101408201869052610160820186905261018082018690526101a082018690526101c082018690526101e0820195909552610200808a015173ffffffffffffffffffffffffffffffffffffffff908116918301919091526102208a810151908301529451928a01519395507f00000000000000000000000000000000000000000000000000000000000000009094169363badbdf28938b9390610667908590612478565b60408051600080825260208201909252906106f5565b6106e26040518060c00160405280600073ffffffffffffffffffffffffffffffffffffffff168152602001600073ffffffffffffffffffffffffffffffffffffffff168152602001600081526020016000815260200160008152602001600081525090565b81526020019060019003908161067d5790505b506040518763ffffffff1660e01b815260040161071796959493929190613b90565b6020604051808303816000875af1158015610736573d6000803e3d6000fd5b505050506040513d601f19601f8201168201806040525081019061075a9190613c96565b50505050505050565b60008061076f89612648565b90507f000000000000000000000000000000000000000000000000000000000000000073ffffffffffffffffffffffffffffffffffffffff16638b79543c6040518163ffffffff1660e01b8152600401602060405180830381865afa1580156107dc573d6000803e3d6000fd5b505050506040513d601f19601f820116820180604052508101906108009190613caf565b73ffffffffffffffffffffffffffffffffffffffff1663666d87a0308a6040518363ffffffff1660e01b815260040161083a929190613ccc565b6020604051808303816000875af1158015610859573d6000803e3d6000fd5b505050506040513d601f19601f8201168201806040525081019061087d9190613c96565b91507f000000000000000000000000000000000000000000000000000000000000000073ffffffffffffffffffffffffffffffffffffffff1663619306306040518163ffffffff1660e01b8152600401602060405180830381865afa1580156108ea573d6000803e3d6000fd5b505050506040513d601f19601f8201168201806040525081019061090e9190613caf565b73ffffffffffffffffffffffffffffffffffffffff1663a7f2a70b8389896040518463ffffffff1660e01b815260040161094a93929190613d1a565b6020604051808303816000875af1158015610969573d6000803e3d6000fd5b505050506040513d601f19601f8201168201806040525081019061098d9190613caf565b508273ffffffffffffffffffffffffffffffffffffffff16637b621d3a838760c001518673ffffffffffffffffffffffffffffffffffffffff166360b3042c6040518163ffffffff1660e01b8152600401602060405180830381865afa1580156109fb573d6000803e3d6000fd5b505050506040513d601f19601f82011682018060405250810190610a1f9190613c96565b8773ffffffffffffffffffffffffffffffffffffffff1663737a79966040518163ffffffff1660e01b8152600401602060405180830381865afa158015610a6a573d6000803e3d6000fd5b505050506040513d601f19601f82011682018060405250810190610a8e9190613c96565b6040517fffffffff0000000000000000000000000000000000000000000000000000000060e087901b168152600481019490945262ffffff909216602484015263ffffffff908116604484015216606482015261eeee608482015260a4016020604051808303816000875af1158015610b0b573d6000803e3d6000fd5b505050506040513d601f19601f82011682018060405250810190610b2f9190613caf565b507f000000000000000000000000000000000000000000000000000000000000000073ffffffffffffffffffffffffffffffffffffffff1663111d861b8360405180608001604052808960600151815260200160128a60000151610b939190613e6f565b81526040808b0151602080840191909152600092820183905281516102a081019092526102408201838152610260830184905261028083019390935291815260a08b015151909182019015610c0a578a60a00151600081518110610bf957610bf961387a565b602002602001015160000151610c0d565b60005b6fffffffffffffffffffffffffffffffff1681526020018a60800151612710610c369190613e7e565b815260006020820181905260408201819052606082018190526080820181905260a0808301829052600160c0840181905260e0840183905261010084018390526101208401839052610140840183905261016084018390526101808401526101a0830182905273ffffffffffffffffffffffffffffffffffffffff8b166101c08401526101e0909201528a01515115610cf1578960a00151600081518110610ce057610ce061387a565b602002602001015160200151610cf4565b60005b604080516000808252602082019092528891610d83565b610d706040518060c00160405280600073ffffffffffffffffffffffffffffffffffffffff168152602001600073ffffffffffffffffffffffffffffffffffffffff168152602001600081526020016000815260200160008152602001600081525090565b815260200190600190039081610d0b5790505b508b6040518863ffffffff1660e01b8152600401610da79796959493929190613e91565b6020604051808303816000875af1158015610dc6573d6000803e3d6000fd5b505050506040513d601f19601f82011682018060405250810190610dea9190613c96565b507f000000000000000000000000000000000000000000000000000000000000000073ffffffffffffffffffffffffffffffffffffffff16638ae9c07b8360128860200151610e399190613e6f565b8c8a604051602001610e4b9190613fc1565b6040516020818303038152906040526000806040518763ffffffff1660e01b8152600401610e7e96959493929190614006565b6020604051808303816000875af1158015610e9d573d6000803e3d6000fd5b505050506040513d601f19601f82011682018060405250810190610ec19190613c96565b507f000000000000000000000000000000000000000000000000000000000000000073ffffffffffffffffffffffffffffffffffffffff16632bdfe0046040518163ffffffff1660e01b8152600401602060405180830381865afa158015610f2d573d6000803e3d6000fd5b505050506040513d601f19601f82011682018060405250810190610f519190613caf565b73ffffffffffffffffffffffffffffffffffffffff1663ad007d636040518163ffffffff1660e01b8152600401602060405180830381865afa158015610f9b573d6000803e3d6000fd5b505050506040513d601f19601f82011682018060405250810190610fbf9190613caf565b73ffffffffffffffffffffffffffffffffffffffff1663529cdd2e60405180606001604052808c73ffffffffffffffffffffffffffffffffffffffff168152602001858152602001600180548060200260200160405190810160405280929190818152602001828054801561105357602002820191906000526020600020905b81548152602001906001019080831161103f575b50505050508152506040518263ffffffff1660e01b8152600401611077919061405b565b600060405180830381600087803b15801561109157600080fd5b505af11580156110a5573d6000803e3d6000fd5b505050506110bc828660a0015187606001516127ce565b50979650505050505050565b60007f000000000000000000000000000000000000000000000000000000000000000073ffffffffffffffffffffffffffffffffffffffff16638b79543c6040518163ffffffff1660e01b8152600401602060405180830381865afa158015611135573d6000803e3d6000fd5b505050506040513d601f19601f820116820180604052508101906111599190613caf565b73ffffffffffffffffffffffffffffffffffffffff163373ffffffffffffffffffffffffffffffffffffffff161461119057600080fd5b73ffffffffffffffffffffffffffffffffffffffff8516156111b157600080fd5b507f150b7a020000000000000000000000000000000000000000000000000000000095945050505050565b600081815260208181526040808320805482518185028101850190935280835260609492939192909184015b8282101561126757600084815260209081902060408051808201909152908401546fffffffffffffffffffffffffffffffff80821683527001000000000000000000000000000000009091041681830152825260019092019101611208565b505050509050919050565b6001818154811061128257600080fd5b600091825260209091200154905081565b60008061129f8b612648565b90507f000000000000000000000000000000000000000000000000000000000000000073ffffffffffffffffffffffffffffffffffffffff16638b79543c6040518163ffffffff1660e01b8152600401602060405180830381865afa15801561130c573d6000803e3d6000fd5b505050506040513d601f19601f820116820180604052508101906113309190613caf565b73ffffffffffffffffffffffffffffffffffffffff1663666d87a0308c6040518363ffffffff1660e01b815260040161136a929190613ccc565b6020604051808303816000875af1158015611389573d6000803e3d6000fd5b505050506040513d601f19601f820116820180604052508101906113ad9190613c96565b91507f000000000000000000000000000000000000000000000000000000000000000073ffffffffffffffffffffffffffffffffffffffff1663619306306040518163ffffffff1660e01b8152600401602060405180830381865afa15801561141a573d6000803e3d6000fd5b505050506040513d601f19601f8201168201806040525081019061143e9190613caf565b73ffffffffffffffffffffffffffffffffffffffff1663a7f2a70b838b8b6040518463ffffffff1660e01b815260040161147a93929190613d1a565b6020604051808303816000875af1158015611499573d6000803e3d6000fd5b505050506040513d601f19601f820116820180604052508101906114bd9190613caf565b508473ffffffffffffffffffffffffffffffffffffffff16637b621d3a838960c001518873ffffffffffffffffffffffffffffffffffffffff166360b3042c6040518163ffffffff1660e01b8152600401602060405180830381865afa15801561152b573d6000803e3d6000fd5b505050506040513d601f19601f8201168201806040525081019061154f9190613c96565b8973ffffffffffffffffffffffffffffffffffffffff1663737a79966040518163ffffffff1660e01b8152600401602060405180830381865afa15801561159a573d6000803e3d6000fd5b505050506040513d601f19601f820116820180604052508101906115be9190613c96565b6040517fffffffff0000000000000000000000000000000000000000000000000000000060e087901b168152600481019490945262ffffff909216602484015263ffffffff908116604484015216606482015261eeee608482015260a4016020604051808303816000875af115801561163b573d6000803e3d6000fd5b505050506040513d601f19601f8201168201806040525081019061165f9190613caf565b507f000000000000000000000000000000000000000000000000000000000000000073ffffffffffffffffffffffffffffffffffffffff1663111d861b8360405180608001604052808b60600151815260200160128c600001516116c39190613e6f565b81526040808d0151602080840191909152600092820183905281516102a081019092526102408201838152610260830184905261028083019390935291815260a08d01515190918201901561173a578c60a001516000815181106117295761172961387a565b60200260200101516000015161173d565b60005b6fffffffffffffffffffffffffffffffff1681526020018c608001516127106117669190613e7e565b815260006020820181905260408201819052606082018190526080820181905260a0808301829052600160c0840181905260e0840183905261010084018390526101208401839052610140840183905261016084018390526101808401526101a0830191909152306101c083015260ff8a166101e0909201919091528c01515115611813578b60a001516000815181106118025761180261387a565b602002602001015160200151611816565b60005b6040805160008082526020820190925288916118a5565b6118926040518060c00160405280600073ffffffffffffffffffffffffffffffffffffffff168152602001600073ffffffffffffffffffffffffffffffffffffffff168152602001600081526020016000815260200160008152602001600081525090565b81526020019060019003908161182d5790505b508d6040518863ffffffff1660e01b81526004016118c99796959493929190613e91565b6020604051808303816000875af11580156118e8573d6000803e3d6000fd5b505050506040513d601f19601f8201168201806040525081019061190c9190613c96565b50846003600084815260200190815260200160002060006101000a81548173ffffffffffffffffffffffffffffffffffffffff021916908373ffffffffffffffffffffffffffffffffffffffff1602179055507f000000000000000000000000000000000000000000000000000000000000000073ffffffffffffffffffffffffffffffffffffffff16638ae9c07b8360128a602001516119ad9190613e6f565b8e8c6040516020016119bf9190613fc1565b6040516020818303038152906040526000806040518763ffffffff1660e01b81526004016119f296959493929190614006565b6020604051808303816000875af1158015611a11573d6000803e3d6000fd5b505050506040513d601f19601f82011682018060405250810190611a359190613c96565b507f000000000000000000000000000000000000000000000000000000000000000073ffffffffffffffffffffffffffffffffffffffff16632bdfe0046040518163ffffffff1660e01b8152600401602060405180830381865afa158015611aa1573d6000803e3d6000fd5b505050506040513d601f19601f82011682018060405250810190611ac59190613caf565b73ffffffffffffffffffffffffffffffffffffffff1663ad007d636040518163ffffffff1660e01b8152600401602060405180830381865afa158015611b0f573d6000803e3d6000fd5b505050506040513d601f19601f82011682018060405250810190611b339190613caf565b73ffffffffffffffffffffffffffffffffffffffff1663529cdd2e60405180606001604052808e73ffffffffffffffffffffffffffffffffffffffff1681526020018581526020016001805480602002602001604051908101604052809291908181526020018280548015611bc757602002820191906000526020600020905b815481526020019060010190808311611bb3575b50505050508152506040518263ffffffff1660e01b8152600401611beb919061405b565b600060405180830381600087803b158015611c0557600080fd5b505af1158015611c19573d6000803e3d6000fd5b505050507f000000000000000000000000000000000000000000000000000000000000000073ffffffffffffffffffffffffffffffffffffffff16632bdfe0046040518163ffffffff1660e01b8152600401602060405180830381865afa158015611c88573d6000803e3d6000fd5b505050506040513d601f19601f82011682018060405250810190611cac9190613caf565b73ffffffffffffffffffffffffffffffffffffffff1663ad007d636040518163ffffffff1660e01b8152600401602060405180830381865afa158015611cf6573d6000803e3d6000fd5b505050506040513d601f19601f82011682018060405250810190611d1a9190613caf565b73ffffffffffffffffffffffffffffffffffffffff16630f5932f08630600060056040518563ffffffff1660e01b8152600401611d5a94939291906140cc565b602060405180830381865afa158015611d77573d6000803e3d6000fd5b505050506040513d601f19601f82011682018060405250810190611d9b9190614148565b611f88577f000000000000000000000000000000000000000000000000000000000000000073ffffffffffffffffffffffffffffffffffffffff16632bdfe0046040518163ffffffff1660e01b8152600401602060405180830381865afa158015611e0a573d6000803e3d6000fd5b505050506040513d601f19601f82011682018060405250810190611e2e9190613caf565b73ffffffffffffffffffffffffffffffffffffffff1663ad007d636040518163ffffffff1660e01b8152600401602060405180830381865afa158015611e78573d6000803e3d6000fd5b505050506040513d601f19601f82011682018060405250810190611e9c9190613caf565b73ffffffffffffffffffffffffffffffffffffffff1663529cdd2e60405180606001604052808873ffffffffffffffffffffffffffffffffffffffff168152602001600081526020016005805480602002602001604051908101604052809291908181526020018280548015611f3157602002820191906000526020600020905b815481526020019060010190808311611f1d575b50505050508152506040518263ffffffff1660e01b8152600401611f55919061405b565b600060405180830381600087803b158015611f6f57600080fd5b505af1158015611f83573d6000803e3d6000fd5b505050505b611f9b828860a0015189606001516127ce565b611fa58285612929565b509998505050505050505050565b6005818154811061128257600080fd5b60408051600080825260208201909252606090819083908161200f565b60408051606080820183526000808352602083015291810191909152815260200190600190039081611fe05790505b5060408051602081019091526000815291969195509350915050565b6004602052816000526040600020818154811061204757600080fd5b600091825260209091206003909102018054600182015460028301805473ffffffffffffffffffffffffffffffffffffffff90931695509093509061208b90614163565b80601f01602080910402602001604051908101604052809291908181526020018280546120b790614163565b80156121045780601f106120d957610100808354040283529160200191612104565b820191906000526020600020905b8154815290600101906020018083116120e757829003601f168201915b5050505050905083565b60c08101356000908152600360205260408082205490517fd46cf1710000000000000000000000000000000000000000000000000000000081526060918291829173ffffffffffffffffffffffffffffffffffffffff169063d46cf1719061217a9088906004016142ac565b600060405180830381865afa158015612197573d6000803e3d6000fd5b505050506040513d6000823e601f3d9081017fffffffffffffffffffffffffffffffffffffffffffffffffffffffffffffffe01682016040526121dd9190810190614420565b805160c089013560009081526004602090815260408083208054825181850281018501909352808352979b5094975092151595919450919291849084015b8282101561230c5760008481526020908190206040805160608101825260038602909201805473ffffffffffffffffffffffffffffffffffffffff1683526001810154938301939093526002830180549293929184019161227b90614163565b80601f01602080910402602001604051908101604052809291908181526020018280546122a790614163565b80156122f45780601f106122c9576101008083540402835291602001916122f4565b820191906000526020600020905b8154815290600101906020018083116122d757829003601f168201915b5050505050815250508152602001906001019061221b565b50505050905060008151905082612324576000612327565b60015b6123349060ff1682614599565b67ffffffffffffffff81111561234c5761234c612a89565b60405190808252806020026020018201604052801561239957816020015b6040805160608082018352600080835260208301529181019190915281526020019060019003908161236a5790505b50945060005b818110156123e6578281815181106123b9576123b961387a565b60200260200101518682815181106123d3576123d361387a565b602090810291909101015260010161239f565b50821561242657836000815181106124005761240061387a565b602002602001015185828151811061241a5761241a61387a565b60200260200101819052505b6124346101608901896145ac565b8080601f016020809104026020016040519081016040528093929190818152602001838380828437600092019190915250999b929a50969850909650505050505050565b604080516001808252818301909252606091816020015b60408051808201909152600081526060602082015281526020019060019003908161248f57905050905060007f000000000000000000000000000000000000000000000000000000000000000073ffffffffffffffffffffffffffffffffffffffff16632bdfe0046040518163ffffffff1660e01b8152600401602060405180830381865afa158015612526573d6000803e3d6000fd5b505050506040513d601f19601f8201168201806040525081019061254a9190613caf565b6040517f69e11cc500000000000000000000000000000000000000000000000000000000815260048101869052602481018590526002604482015273ffffffffffffffffffffffffffffffffffffffff91909116906369e11cc590606401600060405180830381865afa1580156125c5573d6000803e3d6000fd5b505050506040513d6000823e601f3d9081017fffffffffffffffffffffffffffffffffffffffffffffffffffffffffffffffe016820160405261260b9190810190614611565b905060405180604001604052806002815260200182815250826000815181106126365761263661387a565b60200260200101819052505092915050565b604080516001808252818301909252606091816020015b60408051808201909152600081526060602082015281526020019060019003908161265f57505060408051600180825281830190925291925060009190602082015b6040805160e08101825260008082526020808301829052928201819052606082018190526080820181905260a0820181905260c082015282527fffffffffffffffffffffffffffffffffffffffffffffffffffffffffffffffff9092019101816126a15790505090506040518060e00160405280600015158152602001600015158152602001633b9aca008152602001600081526020018473ffffffffffffffffffffffffffffffffffffffff16815260200160008152602001600073ffffffffffffffffffffffffffffffffffffffff16815250816001815181106127895761278961387a565b602002602001018190525060405180604001604052806002815260200182815250826000815181106127bd576127bd61387a565b602002602001018190525050919050565b815180156129235760005b81811015612921578015801590612863575082846127f8600184613e7e565b815181106128085761280861387a565b6020026020010151602001516fffffffffffffffffffffffffffffffff166128309190614599565b8482815181106128425761284261387a565b6020026020010151602001516fffffffffffffffffffffffffffffffff1611155b1561289a576040517fc5c2978500000000000000000000000000000000000000000000000000000000815260040160405180910390fd5b8381815181106128ac576128ac61387a565b602002602001015160008087815260200190815260200160002082815481106128d7576128d761387a565b6000918252602091829020835193909201516fffffffffffffffffffffffffffffffff908116700100000000000000000000000000000000029316929092179101556001016127d9565b505b50505050565b805160005b81811015612923578281815181106129485761294861387a565b60200260200101516004600086815260200190815260200160002082815481106129745761297461387a565b600091825260209182902083516003929092020180547fffffffffffffffffffffffff00000000000000000000000000000000000000001673ffffffffffffffffffffffffffffffffffffffff909216919091178155908201516001820155604082015160028201906129e7908261475a565b50505060010161292e565b600060208284031215612a0457600080fd5b81357fffffffff0000000000000000000000000000000000000000000000000000000081168114612a3457600080fd5b9392505050565b600060208284031215612a4d57600080fd5b5035919050565b73ffffffffffffffffffffffffffffffffffffffff81168114612a7657600080fd5b50565b8035612a8481612a54565b919050565b7f4e487b7100000000000000000000000000000000000000000000000000000000600052604160045260246000fd5b6040805190810167ffffffffffffffff81118282101715612adb57612adb612a89565b60405290565b60405160e0810167ffffffffffffffff81118282101715612adb57612adb612a89565b6040516060810167ffffffffffffffff81118282101715612adb57612adb612a89565b604051610240810167ffffffffffffffff81118282101715612adb57612adb612a89565b604051610120810167ffffffffffffffff81118282101715612adb57612adb612a89565b604051601f82017fffffffffffffffffffffffffffffffffffffffffffffffffffffffffffffffe016810167ffffffffffffffff81118282101715612bb657612bb6612a89565b604052919050565b600067ffffffffffffffff821115612bd857612bd8612a89565b50601f017fffffffffffffffffffffffffffffffffffffffffffffffffffffffffffffffe01660200190565b6000612c17612c1284612bbe565b612b6f565b9050828152838383011115612c2b57600080fd5b828260208301376000602084830101529392505050565b600082601f830112612c5357600080fd5b612a3483833560208501612c04565b600060408284031215612c7457600080fd5b612c7c612ab8565b9050813567ffffffffffffffff811115612c9557600080fd5b612ca184828501612c42565b8252506020820135602082015292915050565b600067ffffffffffffffff821115612cce57612cce612a89565b5060051b60200190565b80356fffffffffffffffffffffffffffffffff81168114612a8457600080fd5b600082601f830112612d0957600080fd5b81356020612d19612c1283612cb4565b82815260069290921b84018101918181019086841115612d3857600080fd5b8286015b84811015612d855760408189031215612d555760008081fd5b612d5d612ab8565b612d6682612cd8565b8152612d73858301612cd8565b81860152835291830191604001612d3c565b509695505050505050565b803562ffffff81168114612a8457600080fd5b600060e08284031215612db557600080fd5b612dbd612ae1565b9050813581526020820135602082015260408201356040820152606082013560608201526080820135608082015260a082013567ffffffffffffffff811115612e0557600080fd5b612e1184828501612cf8565b60a083015250612e2360c08301612d90565b60c082015292915050565b600082601f830112612e3f57600080fd5b81356020612e4f612c1283612cb4565b82815260059290921b84018101918181019086841115612e6e57600080fd5b8286015b84811015612d85578035612e8581612a54565b8352918301918301612e72565b600080600080600080600060e0888a031215612ead57600080fd5b612eb688612a79565b9650602088013567ffffffffffffffff80821115612ed357600080fd5b612edf8b838c01612c62565b975060408a0135915080821115612ef557600080fd5b612f018b838c01612c42565b965060608a0135915080821115612f1757600080fd5b612f238b838c01612c42565b955060808a0135915080821115612f3957600080fd5b612f458b838c01612da3565b945060a08a0135915080821115612f5b57600080fd5b50612f688a828b01612e2e565b925050612f7760c08901612a79565b905092959891949750929550565b600080600080600060808688031215612f9d57600080fd5b8535612fa881612a54565b94506020860135612fb881612a54565b935060408601359250606086013567ffffffffffffffff80821115612fdc57600080fd5b818801915088601f830112612ff057600080fd5b813581811115612fff57600080fd5b89602082850101111561301157600080fd5b9699959850939650602001949392505050565b602080825282518282018190526000919060409081850190868401855b8281101561307c57815180516fffffffffffffffffffffffffffffffff90811686529087015116868501529284019290850190600101613041565b5091979650505050505050565b600082601f83011261309a57600080fd5b813560206130aa612c1283612cb4565b82815260059290921b840181019181810190868411156130c957600080fd5b8286015b84811015612d8557803567ffffffffffffffff808211156130ee5760008081fd5b81890191506060807fffffffffffffffffffffffffffffffffffffffffffffffffffffffffffffffe0848d030112156131275760008081fd5b61312f612b04565b8784013561313c81612a54565b81526040848101358983015291840135918383111561315b5760008081fd5b82850194508c603f86011261317257600093508384fd5b6131828d8a870135838801612c04565b9082015286525050509183019183016130cd565b803560ff81168114612a8457600080fd5b60008060008060008060008060006101208a8c0312156131c657600080fd5b6131cf8a612a79565b985060208a013567ffffffffffffffff808211156131ec57600080fd5b6131f88d838e01612c62565b995060408c013591508082111561320e57600080fd5b61321a8d838e01612c42565b985060608c013591508082111561323057600080fd5b61323c8d838e01612c42565b975060808c013591508082111561325257600080fd5b61325e8d838e01612da3565b965060a08c013591508082111561327457600080fd5b6132808d838e01612e2e565b955061328e60c08d01612a79565b945060e08c01359150808211156132a457600080fd5b506132b18c828d01613089565b9250506132c16101008b01613196565b90509295985092959850929598565b6000602082840312156132e257600080fd5b813567ffffffffffffffff8111156132f957600080fd5b82016101e08185031215612a3457600080fd5b60005b8381101561332757818101518382015260200161330f565b50506000910152565b6000815180845261334881602086016020860161330c565b601f017fffffffffffffffffffffffffffffffffffffffffffffffffffffffffffffffe0169290920160200192915050565b600060608583526020818185015261339482850187613330565b6040858203818701528187518084528484019150848160051b850101858a0160005b83811015613431578683037fffffffffffffffffffffffffffffffffffffffffffffffffffffffffffffffe00185528151805173ffffffffffffffffffffffffffffffffffffffff16845288810151898501528601518684018a905261341e8a850182613330565b95890195935050908701906001016133b6565b50909c9b505050505050505050505050565b6000806040838503121561345657600080fd5b50508035926020909101359150565b73ffffffffffffffffffffffffffffffffffffffff8416815282602082015260606040820152600061349a6060830184613330565b95945050505050565b6000602082840312156134b557600080fd5b813567ffffffffffffffff8111156134cc57600080fd5b82016101a08185031215612a3457600080fd5b60006060858352602081818501526134f982850187613330565b6040858203818701528187518084528484019150848160051b850101858a0160005b83811015613431578683037fffffffffffffffffffffffffffffffffffffffffffffffffffffffffffffffe00185528151805173ffffffffffffffffffffffffffffffffffffffff16845288810151898501528601518684018a90526135838a850182613330565b958901959350509087019060010161351b565b8051612a8481612a54565b80518015158114612a8457600080fd5b6000606082840312156135c357600080fd5b6135cb612b04565b90506135d6826135a1565b81526135e4602083016135a1565b60208201526135f5604083016135a1565b604082015292915050565b6000610280828403121561361357600080fd5b61361b612b27565b905061362783836135b1565b8152606082015160208201526080820151604082015260a0820151606082015261365360c083016135a1565b608082015261366460e083016135a1565b60a08201526101006136778184016135a1565b60c083015261012061368a8185016135a1565b60e084015261014061369d8186016135a1565b8385015261016092506136b18386016135a1565b8285015261018091506136c58286016135a1565b908401526101a06136d78582016135a1565b838501526101c092506136eb8386016135a1565b828501526101e091506136ff8286016135a1565b908401526102006137118582016135a1565b8385015261022092506137258386016135a1565b828501526137366102408601613596565b818501525050610260830151818301525092915050565b805160038110612a8457600080fd5b60008060008385036103c081121561377357600080fd5b6101208082121561378357600080fd5b61378b612b4b565b9150855182526020860151602083015260408601516040830152606086015160608301526080860151608083015260a086015160a083015260c086015160c08301526137d960e08701613596565b60e08301526101008087015181840152508194506137f987828801613600565b9350505061380a6103a0850161374d565b90509250925092565b7f4e487b7100000000000000000000000000000000000000000000000000000000600052601160045260246000fd5b60007fffffffffffffffffffffffffffffffffffffffffffffffffffffffffffffffff820361387357613873613813565b5060010190565b7f4e487b7100000000000000000000000000000000000000000000000000000000600052603260045260246000fd5b6138ce8282518051151582526020808201511515908301526040908101511515910152565b6020810151606083015260408101516080830152606081015160a083015260808101516138ff60c084018215159052565b5060a081015180151560e08401525060c08101516101006139238185018315159052565b60e0830151915061012061393a8186018415159052565b908301519150610140906139518583018415159052565b83015191506101606139668582018415159052565b9083015191506101809061397d8583018415159052565b83015191506101a06139928582018415159052565b9083015191506101c0906139a98583018415159052565b83015191506101e06139be8582018415159052565b908301519150610200906139d58583018415159052565b83015191506102206139ea8582018415159052565b9083015173ffffffffffffffffffffffffffffffffffffffff16610240850152909101516102609092019190915250565b600081518084526020808501808196508360051b810191508286016000805b86811015613afa578385038a52825180518652860151604087870181905281518188018190529188019160609081890190865b81811015613ae35785518051151584528c81015115158d8501528581015186850152848101518585015260808082015173ffffffffffffffffffffffffffffffffffffffff9081169186019190915260a0808301519086015260c0918201511690840152948b019460e090920191600101613a6d565b50509c89019c975050509286019250600101613a3a565b509298975050505050505050565b600081518084526020808501945080840160005b83811015613b85578151805173ffffffffffffffffffffffffffffffffffffffff908116895284820151168489015260408082015190890152606080820151908901526080808201519089015260a0908101519088015260c09096019590820190600101613b1c565b509495945050505050565b60006103a0888352613bdc602084018980518252602081015160208301526040810151604083015273ffffffffffffffffffffffffffffffffffffffff60608201511660608301525050565b613be960a08401886138a9565b6fffffffffffffffffffffffffffffffff861661032084015280610340840152613c1581840186613a1b565b9050828103610360840152613c2a8185613b08565b838103610380909401939093525050603281527f5363686564756c6564206e657874206465762074617820706572696f64206f6660208201527f2052657461696c697374206e6574776f726b000000000000000000000000000060408201526060019695505050505050565b600060208284031215613ca857600080fd5b5051919050565b600060208284031215613cc157600080fd5b8151612a3481612a54565b73ffffffffffffffffffffffffffffffffffffffff831681526040602082015260008251604080840152613d036080840182613330565b905060208401516060840152809150509392505050565b838152606060208201526000613d336060830185613330565b8281036040840152613d458185613330565b9695505050505050565b600181815b80851115613da857817fffffffffffffffffffffffffffffffffffffffffffffffffffffffffffffffff04821115613d8e57613d8e613813565b80851615613d9b57918102915b93841c9390800290613d54565b509250929050565b600082613dbf57506001610385565b81613dcc57506000610385565b8160018114613de25760028114613dec57613e08565b6001915050610385565b60ff841115613dfd57613dfd613813565b50506001821b610385565b5060208310610133831016604e8410600b8410161715613e2b575081810a610385565b613e358383613d4f565b807fffffffffffffffffffffffffffffffffffffffffffffffffffffffffffffffff04821115613e6757613e67613813565b029392505050565b6000612a3460ff841683613db0565b8181038181111561038557610385613813565b60006103c08983526020613ede8185018b80518252602081015160208301526040810151604083015273ffffffffffffffffffffffffffffffffffffffff60608201511660608301525050565b613eeb60a085018a6138a9565b6fffffffffffffffffffffffffffffffff881661032085015281610340850152613f1782850188613a1b565b9150838203610360850152613f2c8287613b08565b848103610380860152855180825282870193509082019060005b81811015613f7857845173ffffffffffffffffffffffffffffffffffffffff1683529383019391830191600101613f46565b50508481036103a0860152601a81527f4465706c6f7965642052657461696c697374206e6574776f726b0000000000006020820152604081019c9b505050505050505050505050565b7f5072656d696e7465642024000000000000000000000000000000000000000000815260008251613ff981600b85016020870161330c565b91909101600b0192915050565b86815285602082015273ffffffffffffffffffffffffffffffffffffffff8516604082015260c06060820152600061404160c0830186613330565b93151560808301525090151560a090910152949350505050565b600060208083526080830173ffffffffffffffffffffffffffffffffffffffff85511682850152818501516040850152604085015160608086015281815180845260a0870191508483019350600092505b80831015612d8557835182529284019260019290920191908401906140ac565b60006080820173ffffffffffffffffffffffffffffffffffffffff808816845260208188168186015286604086015260806060860152829150855480845260a0860192508660005281600020935060005b818110156141395784548452600194850194938301930161411d565b50919998505050505050505050565b60006020828403121561415a57600080fd5b612a34826135a1565b600181811c9082168061417757607f821691505b6020821081036141b0577f4e487b7100000000000000000000000000000000000000000000000000000000600052602260045260246000fd5b50919050565b80356141c181612a54565b73ffffffffffffffffffffffffffffffffffffffff1682526020818101359083015260408082013590830152606090810135910152565b60008083357fffffffffffffffffffffffffffffffffffffffffffffffffffffffffffffffe184360301811261422d57600080fd5b830160208101925035905067ffffffffffffffff81111561424d57600080fd5b80360382131561425c57600080fd5b9250929050565b8183528181602085013750600060208284010152600060207fffffffffffffffffffffffffffffffffffffffffffffffffffffffffffffffe0601f840116840101905092915050565b602081526142da602082016142c084612a79565b73ffffffffffffffffffffffffffffffffffffffff169052565b60006142e860208401612a79565b73ffffffffffffffffffffffffffffffffffffffff811660408401525061431560608301604085016141b6565b60c083013560e083015261010060e084013581840152614336818501612a79565b905061012061435c8185018373ffffffffffffffffffffffffffffffffffffffff169052565b61014091508085013582850152506101608185013581850152614381818601866141f8565b925090506101a0610180818187015261439f6101c087018585614263565b93506143ad818801886141f8565b935090507fffffffffffffffffffffffffffffffffffffffffffffffffffffffffffffffe086850301828701526143e5848483614263565b979650505050505050565b60006143fe612c1284612bbe565b905082815283838301111561441257600080fd5b612a3483602083018461330c565b60008060006060848603121561443557600080fd5b8351925060208085015167ffffffffffffffff8082111561445557600080fd5b818701915087601f83011261446957600080fd5b6144778883518585016143f0565b9450604087015191508082111561448d57600080fd5b818701915087601f8301126144a157600080fd5b81516144af612c1282612cb4565b81815260059190911b8301840190848101908a8311156144ce57600080fd5b8585015b83811015614588578051858111156144e957600080fd5b86016060818e037fffffffffffffffffffffffffffffffffffffffffffffffffffffffffffffffe001121561451d57600080fd5b614525612b04565b8882015161453281612a54565b815260408201518982015260608201518781111561454f57600080fd5b8083019250508d603f83011261456457600080fd5b6145758e8a840151604085016143f0565b60408201528452509186019186016144d2565b508096505050505050509250925092565b8082018082111561038557610385613813565b60008083357fffffffffffffffffffffffffffffffffffffffffffffffffffffffffffffffe18436030181126145e157600080fd5b83018035915067ffffffffffffffff8211156145fc57600080fd5b60200191503681900382131561425c57600080fd5b6000602080838503121561462457600080fd5b825167ffffffffffffffff81111561463b57600080fd5b8301601f8101851361464c57600080fd5b805161465a612c1282612cb4565b81815260e0918202830184019184820191908884111561467957600080fd5b938501935b838510156110bc5780858a0312156146965760008081fd5b61469e612ae1565b6146a7866135a1565b81526146b48787016135a1565b8188015260408681015190820152606080870151908201526080808701516146db81612a54565b9082015260a0868101519082015260c0808701516146f881612a54565b908201528352938401939185019161467e565b601f82111561475557600081815260208120601f850160051c810160208610156147325750805b601f850160051c820191505b818110156147515782815560010161473e565b5050505b505050565b815167ffffffffffffffff81111561477457614774612a89565b614788816147828454614163565b8461470b565b602080601f8311600181146147db57600084156147a55750858301515b7fffffffffffffffffffffffffffffffffffffffffffffffffffffffffffffffff600386901b1c1916600185901b178555614751565b6000858152602081207fffffffffffffffffffffffffffffffffffffffffffffffffffffffffffffffe08616915b8281101561482857888601518255948401946001909101908401614809565b508582101561486457878501517fffffffffffffffffffffffffffffffffffffffffffffffffffffffffffffffff600388901b60f8161c191681555b5050505050600190811b0190555056fea2646970667358221220a2a36dbd0c99305a1f14b90ec4032e56fdb088ffbb254acf53b3242a92684c9364736f6c63430008150033",
    "linkReferences": {}
  },
  "methodIdentifiers": {
    "buybackDelegateDataSourceOf(uint256)": "ef8eadd5",
    "buybackDelegatePermissionIndexes(uint256)": "9e8c513a",
    "controller()": "f77c4791",
    "currentDevTaxPeriodNumberOf(uint256)": "9f665eee",
    "delegateAllocationsOf(uint256,uint256)": "abc603e3",
    "deployBasicNetworkFor(address,(string,uint256),string,string,(uint256,uint256,uint256,uint256,uint256,(uint128,uint128)[],uint24),address[],address)": "0a801f47",
    "deployPayAllocatorNetworkFor(address,(string,uint256),string,string,(uint256,uint256,uint256,uint256,uint256,(uint128,uint128)[],uint24),address[],address,(address,uint256,bytes)[],uint8)": "522aa551",
    "devTaxPeriodsOf(uint256)": "263950ae",
    "onERC721Received(address,address,uint256,bytes)": "150b7a02",
    "operatorPermissionIndexes(uint256)": "4d757720",
    "payParams((address,address,(address,uint256,uint256,uint256),uint256,uint256,address,uint256,uint256,string,bytes))": "d46cf171",
    "redeemParams((address,address,uint256,uint256,uint256,uint256,uint256,(address,uint256,uint256,uint256),bool,uint256,string,bytes))": "a51cfd18",
    "scheduleNextDevTaxPeriodOf(uint256)": "0310850e",
    "supportsInterface(bytes4)": "01ffc9a7"
  },
  "id": 104
}