{
  "abi": [
    {
      "inputs": [
        {
          "internalType": "contract IJBController3_1",
          "name": "_controller",
          "type": "address"
        },
        {
          "internalType": "contract IJBPayoutRedemptionPaymentTerminal3_1_1",
          "name": "_terminal",
          "type": "address"
        },
        {
          "internalType": "contract IJBGenericBuybackDelegate",
          "name": "_buybackDelegate",
          "type": "address"
        }
      ],
      "stateMutability": "nonpayable",
      "type": "constructor"
    },
    {
      "inputs": [],
      "name": "RECONFIGURATION_ALREADY_SCHEDULED",
      "type": "error"
    },
    {
      "inputs": [],
      "name": "buybackDelegate",
      "outputs": [
        {
          "internalType": "contract IJBGenericBuybackDelegate",
          "name": "",
          "type": "address"
        }
      ],
      "stateMutability": "view",
      "type": "function"
    },
    {
      "inputs": [],
      "name": "controller",
      "outputs": [
        {
          "internalType": "contract IJBController3_1",
          "name": "",
          "type": "address"
        }
      ],
      "stateMutability": "view",
      "type": "function"
    },
    {
      "inputs": [
        {
          "internalType": "uint256",
          "name": "",
          "type": "uint256"
        },
        {
          "internalType": "uint256",
          "name": "",
          "type": "uint256"
        }
      ],
      "name": "delegateAllocationsOf",
      "outputs": [
        {
          "internalType": "contract IJBPayDelegate3_1_1",
          "name": "delegate",
          "type": "address"
        },
        {
          "internalType": "uint256",
          "name": "amount",
          "type": "uint256"
        },
        {
          "internalType": "bytes",
          "name": "metadata",
          "type": "bytes"
        }
      ],
      "stateMutability": "view",
      "type": "function"
    },
    {
      "inputs": [
        {
          "internalType": "address",
          "name": "_operator",
          "type": "address"
        },
        {
          "components": [
            {
              "internalType": "string",
              "name": "content",
              "type": "string"
            },
            {
              "internalType": "uint256",
              "name": "domain",
              "type": "uint256"
            }
          ],
          "internalType": "struct JBProjectMetadata",
          "name": "_projectMetadata",
          "type": "tuple"
        },
        {
          "internalType": "string",
          "name": "_name",
          "type": "string"
        },
        {
          "internalType": "string",
          "name": "_symbol",
          "type": "string"
        },
        {
          "components": [
            {
              "internalType": "uint256",
              "name": "initialIssuanceRate",
              "type": "uint256"
            },
            {
              "internalType": "uint256",
              "name": "premintTokenAmount",
              "type": "uint256"
            },
            {
              "internalType": "uint256",
              "name": "discountRate",
              "type": "uint256"
            },
            {
              "internalType": "uint256",
              "name": "cycleDurations",
              "type": "uint256"
            },
            {
              "internalType": "uint256",
              "name": "redemptionRate",
              "type": "uint256"
            },
            {
              "internalType": "uint256",
              "name": "reservedRate",
              "type": "uint256"
            },
            {
              "internalType": "uint48",
              "name": "reservedRateDuration",
              "type": "uint48"
            }
          ],
          "internalType": "struct BasicRetailistJBParams",
          "name": "_data",
          "type": "tuple"
        }
      ],
      "name": "deployBasicProjectFor",
      "outputs": [
        {
          "internalType": "uint256",
          "name": "projectId",
          "type": "uint256"
        }
      ],
      "stateMutability": "nonpayable",
      "type": "function"
    },
    {
      "inputs": [
        {
          "internalType": "address",
          "name": "_operator",
          "type": "address"
        },
        {
          "components": [
            {
              "internalType": "string",
              "name": "content",
              "type": "string"
            },
            {
              "internalType": "uint256",
              "name": "domain",
              "type": "uint256"
            }
          ],
          "internalType": "struct JBProjectMetadata",
          "name": "_projectMetadata",
          "type": "tuple"
        },
        {
          "internalType": "string",
          "name": "_name",
          "type": "string"
        },
        {
          "internalType": "string",
          "name": "_symbol",
          "type": "string"
        },
        {
          "components": [
            {
              "internalType": "uint256",
              "name": "initialIssuanceRate",
              "type": "uint256"
            },
            {
              "internalType": "uint256",
              "name": "premintTokenAmount",
              "type": "uint256"
            },
            {
              "internalType": "uint256",
              "name": "discountRate",
              "type": "uint256"
            },
            {
              "internalType": "uint256",
              "name": "cycleDurations",
              "type": "uint256"
            },
            {
              "internalType": "uint256",
              "name": "redemptionRate",
              "type": "uint256"
            },
            {
              "internalType": "uint256",
              "name": "reservedRate",
              "type": "uint256"
            },
            {
              "internalType": "uint48",
              "name": "reservedRateDuration",
              "type": "uint48"
            }
          ],
          "internalType": "struct BasicRetailistJBParams",
          "name": "_data",
          "type": "tuple"
        },
        {
          "components": [
            {
              "internalType": "contract IJBPayDelegate3_1_1",
              "name": "delegate",
              "type": "address"
            },
            {
              "internalType": "uint256",
              "name": "amount",
              "type": "uint256"
            },
            {
              "internalType": "bytes",
              "name": "metadata",
              "type": "bytes"
            }
          ],
          "internalType": "struct JBPayDelegateAllocation3_1_1[]",
          "name": "_delegateAllocations",
          "type": "tuple[]"
        },
        {
          "internalType": "uint8",
          "name": "_extraFundingCycleMetadata",
          "type": "uint8"
        }
      ],
      "name": "deployPayAllocatorProjectFor",
      "outputs": [
        {
          "internalType": "uint256",
          "name": "projectId",
          "type": "uint256"
        }
      ],
      "stateMutability": "nonpayable",
      "type": "function"
    },
    {
      "inputs": [
        {
          "internalType": "address",
          "name": "_operator",
          "type": "address"
        },
        {
          "internalType": "address",
          "name": "_from",
          "type": "address"
        },
        {
          "internalType": "uint256",
          "name": "_tokenId",
          "type": "uint256"
        },
        {
          "internalType": "bytes",
          "name": "_data",
          "type": "bytes"
        }
      ],
      "name": "onERC721Received",
      "outputs": [
        {
          "internalType": "bytes4",
          "name": "",
          "type": "bytes4"
        }
      ],
      "stateMutability": "view",
      "type": "function"
    },
    {
      "inputs": [
        {
          "components": [
            {
              "internalType": "contract IJBPaymentTerminal",
              "name": "terminal",
              "type": "address"
            },
            {
              "internalType": "address",
              "name": "payer",
              "type": "address"
            },
            {
              "components": [
                {
                  "internalType": "address",
                  "name": "token",
                  "type": "address"
                },
                {
                  "internalType": "uint256",
                  "name": "value",
                  "type": "uint256"
                },
                {
                  "internalType": "uint256",
                  "name": "decimals",
                  "type": "uint256"
                },
                {
                  "internalType": "uint256",
                  "name": "currency",
                  "type": "uint256"
                }
              ],
              "internalType": "struct JBTokenAmount",
              "name": "amount",
              "type": "tuple"
            },
            {
              "internalType": "uint256",
              "name": "projectId",
              "type": "uint256"
            },
            {
              "internalType": "uint256",
              "name": "currentFundingCycleConfiguration",
              "type": "uint256"
            },
            {
              "internalType": "address",
              "name": "beneficiary",
              "type": "address"
            },
            {
              "internalType": "uint256",
              "name": "weight",
              "type": "uint256"
            },
            {
              "internalType": "uint256",
              "name": "reservedRate",
              "type": "uint256"
            },
            {
              "internalType": "string",
              "name": "memo",
              "type": "string"
            },
            {
              "internalType": "bytes",
              "name": "metadata",
              "type": "bytes"
            }
          ],
          "internalType": "struct JBPayParamsData",
          "name": "_data",
          "type": "tuple"
        }
      ],
      "name": "payParams",
      "outputs": [
        {
          "internalType": "uint256",
          "name": "weight",
          "type": "uint256"
        },
        {
          "internalType": "string",
          "name": "memo",
          "type": "string"
        },
        {
          "components": [
            {
              "internalType": "contract IJBPayDelegate3_1_1",
              "name": "delegate",
              "type": "address"
            },
            {
              "internalType": "uint256",
              "name": "amount",
              "type": "uint256"
            },
            {
              "internalType": "bytes",
              "name": "metadata",
              "type": "bytes"
            }
          ],
          "internalType": "struct JBPayDelegateAllocation3_1_1[]",
          "name": "delegateAllocations",
          "type": "tuple[]"
        }
      ],
      "stateMutability": "view",
      "type": "function"
    },
    {
      "inputs": [
        {
          "internalType": "uint256",
          "name": "",
          "type": "uint256"
        }
      ],
      "name": "permissionIndexes",
      "outputs": [
        {
          "internalType": "uint256",
          "name": "",
          "type": "uint256"
        }
      ],
      "stateMutability": "view",
      "type": "function"
    },
    {
      "inputs": [
        {
          "internalType": "uint256",
          "name": "projectId",
          "type": "uint256"
        }
      ],
      "name": "reconfigurationStartTimestampOf",
      "outputs": [
        {
          "internalType": "uint256",
          "name": "",
          "type": "uint256"
        }
      ],
      "stateMutability": "view",
      "type": "function"
    },
    {
      "inputs": [
        {
          "components": [
            {
              "internalType": "contract IJBPaymentTerminal",
              "name": "terminal",
              "type": "address"
            },
            {
              "internalType": "address",
              "name": "holder",
              "type": "address"
            },
            {
              "internalType": "uint256",
              "name": "projectId",
              "type": "uint256"
            },
            {
              "internalType": "uint256",
              "name": "currentFundingCycleConfiguration",
              "type": "uint256"
            },
            {
              "internalType": "uint256",
              "name": "tokenCount",
              "type": "uint256"
            },
            {
              "internalType": "uint256",
              "name": "totalSupply",
              "type": "uint256"
            },
            {
              "internalType": "uint256",
              "name": "overflow",
              "type": "uint256"
            },
            {
              "components": [
                {
                  "internalType": "address",
                  "name": "token",
                  "type": "address"
                },
                {
                  "internalType": "uint256",
                  "name": "value",
                  "type": "uint256"
                },
                {
                  "internalType": "uint256",
                  "name": "decimals",
                  "type": "uint256"
                },
                {
                  "internalType": "uint256",
                  "name": "currency",
                  "type": "uint256"
                }
              ],
              "internalType": "struct JBTokenAmount",
              "name": "reclaimAmount",
              "type": "tuple"
            },
            {
              "internalType": "bool",
              "name": "useTotalOverflow",
              "type": "bool"
            },
            {
              "internalType": "uint256",
              "name": "redemptionRate",
              "type": "uint256"
            },
            {
              "internalType": "string",
              "name": "memo",
              "type": "string"
            },
            {
              "internalType": "bytes",
              "name": "metadata",
              "type": "bytes"
            }
          ],
          "internalType": "struct JBRedeemParamsData",
          "name": "_data",
          "type": "tuple"
        }
      ],
      "name": "redeemParams",
      "outputs": [
        {
          "internalType": "uint256",
          "name": "",
          "type": "uint256"
        },
        {
          "internalType": "string",
          "name": "",
          "type": "string"
        },
        {
          "components": [
            {
              "internalType": "contract IJBRedemptionDelegate3_1_1",
              "name": "delegate",
              "type": "address"
            },
            {
              "internalType": "uint256",
              "name": "amount",
              "type": "uint256"
            },
            {
              "internalType": "bytes",
              "name": "metadata",
              "type": "bytes"
            }
          ],
          "internalType": "struct JBRedemptionDelegateAllocation3_1_1[]",
          "name": "",
          "type": "tuple[]"
        }
      ],
      "stateMutability": "view",
      "type": "function"
    },
    {
      "inputs": [
        {
          "internalType": "uint256",
          "name": "_projectId",
          "type": "uint256"
        }
      ],
      "name": "scheduleReconfigurationOf",
      "outputs": [],
      "stateMutability": "nonpayable",
      "type": "function"
    },
    {
      "inputs": [
        {
          "internalType": "bytes4",
          "name": "_interfaceId",
          "type": "bytes4"
        }
      ],
      "name": "supportsInterface",
      "outputs": [
        {
          "internalType": "bool",
          "name": "",
          "type": "bool"
        }
      ],
      "stateMutability": "view",
      "type": "function"
    },
    {
      "inputs": [
        {
          "internalType": "uint256",
          "name": "",
          "type": "uint256"
        }
      ],
      "name": "terminals",
      "outputs": [
        {
          "internalType": "contract IJBPaymentTerminal",
          "name": "",
          "type": "address"
        }
      ],
      "stateMutability": "view",
      "type": "function"
    }
  ],
  "bytecode": {
    "object": "0x60c06040523480156200001157600080fd5b506040516200405b3803806200405b8339810160408190526200003491620000eb565b6001600160a01b03928316608052821660a05260008054600180820183557f290decd9548b62a8d60345a988386fc84ba6bc95484008f6362f93160ef3e56390910180546001600160a01b0319169390941692909217909255805480820182559181905260127fb10e2d527612073b26eecdfd717e6a320cf44b4afac2b0732d9fcbe2b7fa0cf692830155805480820190915560189101556200013f565b6001600160a01b0381168114620000e857600080fd5b50565b6000806000606084860312156200010157600080fd5b83516200010e81620000d2565b60208501519093506200012181620000d2565b60408501519092506200013481620000d2565b809150509250925092565b60805160a051613e63620001f86000396000818161024d0152818161072f0152818161076e015281816107fd01528181610a550152818161167e015281816116bd0152818161174c0152611fd10152600081816102960152818161050e0152818161061c0152818161092e01528181610b9101528181610c5301528181610e7a01528181610fd301528181611186015281816114610152818161156f0152818161187d01528181611aac0152611b6c0152613e636000f3fe608060405234801561001057600080fd5b50600436106100df5760003560e01c8063560f7b031161008c578063abc603e311610066578063abc603e314610226578063d396752514610248578063d46cf1711461026f578063f77c47911461029157600080fd5b8063560f7b03146101d15780639483e771146101f1578063a51cfd181461020457600080fd5b8063150b7a02116100bd578063150b7a02146101655780633ce6d3e2146101a95780634e777fd7146101be57600080fd5b806301ffc9a7146100e45780630219758e1461010c5780630e53d9cc14610144575b600080fd5b6100f76100f2366004612305565b6102b8565b60405190151581526020015b60405180910390f35b61011f61011a36600461234e565b610351565b60405173ffffffffffffffffffffffffffffffffffffffff9091168152602001610103565b6101576101523660046123fd565b610388565b604051908152602001610103565b6101786101733660046124bf565b610e76565b6040517fffffffff000000000000000000000000000000000000000000000000000000009091168152602001610103565b6101bc6101b736600461234e565b610f8a565b005b6101576101cc366004612881565b6112db565b6101576101df36600461234e565b60026020526000908152604090205481565b6101576101ff36600461234e565b611e5c565b610217610212366004612956565b611e7d565b60405161010393929190612a00565b610239610234366004612ac9565b611ee5565b60405161010393929190612aeb565b61011f7f000000000000000000000000000000000000000000000000000000000000000081565b61028261027d366004612b29565b611fc8565b60405161010393929190612b65565b61011f7f000000000000000000000000000000000000000000000000000000000000000081565b60007fffffffff0000000000000000000000000000000000000000000000000000000082167f71700c6900000000000000000000000000000000000000000000000000000000148061034b57507f150b7a02000000000000000000000000000000000000000000000000000000007fffffffff000000000000000000000000000000000000000000000000000000008316145b92915050565b6000818154811061036157600080fd5b60009182526020909120015473ffffffffffffffffffffffffffffffffffffffff16905081565b604080516001808252818301909252600091829190816020015b6040805180820190915260008152606060208201528152602001906001900390816103a257505060408051600180825281830190925291925060009190602082015b6040805160e08101825260008082526020808301829052928201819052606082018190526080820181905260a0820181905260c082015282527fffffffffffffffffffffffffffffffffffffffffffffffffffffffffffffffff9092019101816103e45790505090506040518060e00160405280600015158152602001600015158152602001633b9aca008152602001600081526020018b73ffffffffffffffffffffffffffffffffffffffff16815260200160008152602001600073ffffffffffffffffffffffffffffffffffffffff16815250816001815181106104cc576104cc612c1c565b6020026020010181905250604051806040016040528060028152602001828152508260008151811061050057610500612c1c565b6020026020010181905250507f000000000000000000000000000000000000000000000000000000000000000073ffffffffffffffffffffffffffffffffffffffff16638b79543c6040518163ffffffff1660e01b8152600401602060405180830381865afa158015610577573d6000803e3d6000fd5b505050506040513d601f19601f8201168201806040525081019061059b9190612c4b565b73ffffffffffffffffffffffffffffffffffffffff1663666d87a0308a6040518363ffffffff1660e01b81526004016105d5929190612d15565b6020604051808303816000875af11580156105f4573d6000803e3d6000fd5b505050506040513d601f19601f820116820180604052508101906106189190612d6d565b91507f000000000000000000000000000000000000000000000000000000000000000073ffffffffffffffffffffffffffffffffffffffff1663619306306040518163ffffffff1660e01b8152600401602060405180830381865afa158015610685573d6000803e3d6000fd5b505050506040513d601f19601f820116820180604052508101906106a99190612c4b565b73ffffffffffffffffffffffffffffffffffffffff1663a7f2a70b83898989896040518663ffffffff1660e01b81526004016106e9959493929190612d86565b6020604051808303816000875af1158015610708573d6000803e3d6000fd5b505050506040513d601f19601f8201168201806040525081019061072c9190612c4b565b507f000000000000000000000000000000000000000000000000000000000000000073ffffffffffffffffffffffffffffffffffffffff16637b621d3a8360017f000000000000000000000000000000000000000000000000000000000000000073ffffffffffffffffffffffffffffffffffffffff166360b3042c6040518163ffffffff1660e01b8152600401602060405180830381865afa1580156107d7573d6000803e3d6000fd5b505050506040513d601f19601f820116820180604052508101906107fb9190612d6d565b7f000000000000000000000000000000000000000000000000000000000000000073ffffffffffffffffffffffffffffffffffffffff1663737a79966040518163ffffffff1660e01b8152600401602060405180830381865afa158015610866573d6000803e3d6000fd5b505050506040513d601f19601f8201168201806040525081019061088a9190612d6d565b6040517fffffffff0000000000000000000000000000000000000000000000000000000060e087901b168152600481019490945262ffffff909216602484015263ffffffff908116604484015216606482015261eeee608482015260a4016020604051808303816000875af1158015610907573d6000803e3d6000fd5b505050506040513d601f19601f8201168201806040525081019061092b9190612c4b565b507f000000000000000000000000000000000000000000000000000000000000000073ffffffffffffffffffffffffffffffffffffffff1663111d861b836040518060800160405280876060013581526020016012886000013561098f9190612f0e565b8152604088810135602080840191909152600092820183905281516102a081018352610240810184815261026082018590526102808201859052815260a0808c0135828401526080808d013583860152606083018690528201859052810184905260c0810184905260e081018490526001610100820181905261012082018590526101408201859052610160820185905261018082018590526101a082018590526101c08201526101e0810184905273ffffffffffffffffffffffffffffffffffffffff7f00000000000000000000000000000000000000000000000000000000000000001661020082015261022081018490528251848152918201909252909190879082610b11565b610afe6040518060c00160405280600073ffffffffffffffffffffffffffffffffffffffff168152602001600073ffffffffffffffffffffffffffffffffffffffff168152602001600081526020016000815260200160008152602001600081525090565b815260200190600190039081610a995790505b5060006040518863ffffffff1660e01b8152600401610b369796959493929190613204565b6020604051808303816000875af1158015610b55573d6000803e3d6000fd5b505050506040513d601f19601f82011682018060405250810190610b799190612d6d565b5073ffffffffffffffffffffffffffffffffffffffff7f000000000000000000000000000000000000000000000000000000000000000016638ae9c07b83610bc660126020880135612f0e565b8c8989604051602001610bda929190613325565b6040516020818303038152906040526000806040518763ffffffff1660e01b8152600401610c0d96959493929190613382565b6020604051808303816000875af1158015610c2c573d6000803e3d6000fd5b505050506040513d601f19601f82011682018060405250810190610c509190612d6d565b507f000000000000000000000000000000000000000000000000000000000000000073ffffffffffffffffffffffffffffffffffffffff16632bdfe0046040518163ffffffff1660e01b8152600401602060405180830381865afa158015610cbc573d6000803e3d6000fd5b505050506040513d601f19601f82011682018060405250810190610ce09190612c4b565b73ffffffffffffffffffffffffffffffffffffffff1663ad007d636040518163ffffffff1660e01b8152600401602060405180830381865afa158015610d2a573d6000803e3d6000fd5b505050506040513d601f19601f82011682018060405250810190610d4e9190612c4b565b73ffffffffffffffffffffffffffffffffffffffff1663529cdd2e60405180606001604052808c73ffffffffffffffffffffffffffffffffffffffff1681526020018581526020016001805480602002602001604051908101604052809291908181526020018280548015610de257602002820191906000526020600020905b815481526020019060010190808311610dce575b50505050508152506040518263ffffffff1660e01b8152600401610e0691906133d7565b600060405180830381600087803b158015610e2057600080fd5b505af1158015610e34573d6000803e3d6000fd5b50610e499250505060e0840160c08501613448565b610e5b9065ffffffffffff1642613470565b60008381526002602052604090205550979650505050505050565b60007f000000000000000000000000000000000000000000000000000000000000000073ffffffffffffffffffffffffffffffffffffffff16638b79543c6040518163ffffffff1660e01b8152600401602060405180830381865afa158015610ee3573d6000803e3d6000fd5b505050506040513d601f19601f82011682018060405250810190610f079190612c4b565b73ffffffffffffffffffffffffffffffffffffffff163373ffffffffffffffffffffffffffffffffffffffff1614610f3e57600080fd5b73ffffffffffffffffffffffffffffffffffffffff851615610f5f57600080fd5b507f150b7a020000000000000000000000000000000000000000000000000000000095945050505050565b6040517f1f51045300000000000000000000000000000000000000000000000000000000815260048101829052600090819073ffffffffffffffffffffffffffffffffffffffff7f00000000000000000000000000000000000000000000000000000000000000001690631f510453906024016103c060405180830381865afa15801561101b573d6000803e3d6000fd5b505050506040513d601f19601f8201168201806040525081019061103f9190613649565b5081519193509150600114611080576040517fc97554fa00000000000000000000000000000000000000000000000000000000815260040160405180910390fd5b60408051608080820183528481015182526000602080840182905260c08088015185870152606080860184905286516102a0810188526102408101858152610260820186905261028082018690528152808401859052888801518189015290810184905293840183905260a08401839052830182905260e08301829052610100830182905261012083018290526101408301829052610160830182905261018083018290526101a083018290526101c083018290526101e083018290526102008087015173ffffffffffffffffffffffffffffffffffffffff908116918501919091526102208781015190850152888352600282528583205486518481529283019096527f0000000000000000000000000000000000000000000000000000000000000000169463badbdf2894899490939092906111e1565b6040805180820190915260008152606060208201528152602001906001900390816111b95790505b506040805160008082526020820190925290611270565b61125d6040518060c00160405280600073ffffffffffffffffffffffffffffffffffffffff168152602001600073ffffffffffffffffffffffffffffffffffffffff168152602001600081526020016000815260200160008152602001600081525090565b8152602001906001900390816111f85790505b506040518763ffffffff1660e01b815260040161129296959493929190613700565b6020604051808303816000875af11580156112b1573d6000803e3d6000fd5b505050506040513d601f19601f820116820180604052508101906112d59190612d6d565b50505050565b604080516001808252818301909252600091829190816020015b6040805180820190915260008152606060208201528152602001906001900390816112f557505060408051600180825281830190925291925060009190602082015b6040805160e08101825260008082526020808301829052928201819052606082018190526080820181905260a0820181905260c082015282527fffffffffffffffffffffffffffffffffffffffffffffffffffffffffffffffff9092019101816113375790505090506040518060e00160405280600015158152602001600015158152602001633b9aca008152602001600081526020018b73ffffffffffffffffffffffffffffffffffffffff16815260200160008152602001600073ffffffffffffffffffffffffffffffffffffffff168152508160018151811061141f5761141f612c1c565b6020026020010181905250604051806040016040528060028152602001828152508260008151811061145357611453612c1c565b6020026020010181905250507f000000000000000000000000000000000000000000000000000000000000000073ffffffffffffffffffffffffffffffffffffffff16638b79543c6040518163ffffffff1660e01b8152600401602060405180830381865afa1580156114ca573d6000803e3d6000fd5b505050506040513d601f19601f820116820180604052508101906114ee9190612c4b565b73ffffffffffffffffffffffffffffffffffffffff1663666d87a0308a6040518363ffffffff1660e01b81526004016115289291906137f4565b6020604051808303816000875af1158015611547573d6000803e3d6000fd5b505050506040513d601f19601f8201168201806040525081019061156b9190612d6d565b91507f000000000000000000000000000000000000000000000000000000000000000073ffffffffffffffffffffffffffffffffffffffff1663619306306040518163ffffffff1660e01b8152600401602060405180830381865afa1580156115d8573d6000803e3d6000fd5b505050506040513d601f19601f820116820180604052508101906115fc9190612c4b565b73ffffffffffffffffffffffffffffffffffffffff1663a7f2a70b8389896040518463ffffffff1660e01b815260040161163893929190613842565b6020604051808303816000875af1158015611657573d6000803e3d6000fd5b505050506040513d601f19601f8201168201806040525081019061167b9190612c4b565b507f000000000000000000000000000000000000000000000000000000000000000073ffffffffffffffffffffffffffffffffffffffff16637b621d3a8360017f000000000000000000000000000000000000000000000000000000000000000073ffffffffffffffffffffffffffffffffffffffff166360b3042c6040518163ffffffff1660e01b8152600401602060405180830381865afa158015611726573d6000803e3d6000fd5b505050506040513d601f19601f8201168201806040525081019061174a9190612d6d565b7f000000000000000000000000000000000000000000000000000000000000000073ffffffffffffffffffffffffffffffffffffffff1663737a79966040518163ffffffff1660e01b8152600401602060405180830381865afa1580156117b5573d6000803e3d6000fd5b505050506040513d601f19601f820116820180604052508101906117d99190612d6d565b6040517fffffffff0000000000000000000000000000000000000000000000000000000060e087901b168152600481019490945262ffffff909216602484015263ffffffff908116604484015216606482015261eeee608482015260a4016020604051808303816000875af1158015611856573d6000803e3d6000fd5b505050506040513d601f19601f8201168201806040525081019061187a9190612c4b565b507f000000000000000000000000000000000000000000000000000000000000000073ffffffffffffffffffffffffffffffffffffffff1663111d861b8360405180608001604052808960600135815260200160128a600001356118de9190612f0e565b815260408a810135602080840191909152600092820183905281516102a081018352610240810184815261026082018590526102808201859052815260a0808e0135828401526080808f013583860152606083018690528201859052810184905260c0810184905260e081018490526001610100820181905261012082018590526101408201859052610160820185905261018082018590526101a082018590526101c08201526101e081018490523061020082015260ff8b166102208201528251848152918201909252909190879082611a2c565b611a196040518060c00160405280600073ffffffffffffffffffffffffffffffffffffffff168152602001600073ffffffffffffffffffffffffffffffffffffffff168152602001600081526020016000815260200160008152602001600081525090565b8152602001906001900390816119b45790505b5060006040518863ffffffff1660e01b8152600401611a519796959493929190613204565b6020604051808303816000875af1158015611a70573d6000803e3d6000fd5b505050506040513d601f19601f82011682018060405250810190611a949190612d6d565b5073ffffffffffffffffffffffffffffffffffffffff7f000000000000000000000000000000000000000000000000000000000000000016638ae9c07b83611ae1601260208a0135612f0e565b8c8a604051602001611af39190613877565b6040516020818303038152906040526000806040518763ffffffff1660e01b8152600401611b2696959493929190613382565b6020604051808303816000875af1158015611b45573d6000803e3d6000fd5b505050506040513d601f19601f82011682018060405250810190611b699190612d6d565b507f000000000000000000000000000000000000000000000000000000000000000073ffffffffffffffffffffffffffffffffffffffff16632bdfe0046040518163ffffffff1660e01b8152600401602060405180830381865afa158015611bd5573d6000803e3d6000fd5b505050506040513d601f19601f82011682018060405250810190611bf99190612c4b565b73ffffffffffffffffffffffffffffffffffffffff1663ad007d636040518163ffffffff1660e01b8152600401602060405180830381865afa158015611c43573d6000803e3d6000fd5b505050506040513d601f19601f82011682018060405250810190611c679190612c4b565b73ffffffffffffffffffffffffffffffffffffffff1663529cdd2e60405180606001604052808c73ffffffffffffffffffffffffffffffffffffffff1681526020018581526020016001805480602002602001604051908101604052809291908181526020018280548015611cfb57602002820191906000526020600020905b815481526020019060010190808311611ce7575b50505050508152506040518263ffffffff1660e01b8152600401611d1f91906133d7565b600060405180830381600087803b158015611d3957600080fd5b505af1158015611d4d573d6000803e3d6000fd5b50611d629250505060e0860160c08701613448565b611d749065ffffffffffff1642613470565b6000838152600260205260408120919091558451905b81811015611e4e57858181518110611da457611da4612c1c565b6020026020010151600360008681526020019081526020016000208281548110611dd057611dd0612c1c565b600091825260209182902083516003929092020180547fffffffffffffffffffffffff00000000000000000000000000000000000000001673ffffffffffffffffffffffffffffffffffffffff90921691909117815590820151600182015560408201516002820190611e43908261397f565b505050600101611d8a565b505050979650505050505050565b60018181548110611e6c57600080fd5b600091825260209091200154905081565b604080516000808252602082019092526060908190839081611ec9565b60408051606080820183526000808352602083015291810191909152815260200190600190039081611e9a5790505b5060408051602081019091526000815291969195509350915050565b60036020528160005260406000208181548110611f0157600080fd5b600091825260209091206003909102018054600182015460028301805473ffffffffffffffffffffffffffffffffffffffff909316955090935090611f45906138e3565b80601f0160208091040260200160405190810160405280929190818152602001828054611f71906138e3565b8015611fbe5780601f10611f9357610100808354040283529160200191611fbe565b820191906000526020600020905b815481529060010190602001808311611fa157829003601f168201915b5050505050905083565b600060608060607f000000000000000000000000000000000000000000000000000000000000000073ffffffffffffffffffffffffffffffffffffffff1663d46cf171866040518263ffffffff1660e01b81526004016120289190613adb565b600060405180830381865afa158015612045573d6000803e3d6000fd5b505050506040513d6000823e601f3d9081017fffffffffffffffffffffffffffffffffffffffffffffffffffffffffffffffe016820160405261208b9190810190613c4f565b60c088013560009081526003602090815260408083208054825181850281018501909352808352969a509396509194919350849084015b828210156121b35760008481526020908190206040805160608101825260038602909201805473ffffffffffffffffffffffffffffffffffffffff16835260018101549383019390935260028301805492939291840191612122906138e3565b80601f016020809104026020016040519081016040528092919081815260200182805461214e906138e3565b801561219b5780601f106121705761010080835404028352916020019161219b565b820191906000526020600020905b81548152906001019060200180831161217e57829003601f168201915b505050505081525050815260200190600101906120c2565b505082519293506121c991508290506001613470565b67ffffffffffffffff8111156121e1576121e1612532565b60405190808252806020026020018201604052801561222e57816020015b604080516060808201835260008083526020830152918101919091528152602001906001900390816121ff5790505b50935060005b8181101561227b5782818151811061224e5761224e612c1c565b602002602001015185828151811061226857612268612c1c565b6020908102919091010152600101612234565b508260008151811061228f5761228f612c1c565b60200260200101518482815181106122a9576122a9612c1c565b60209081029190910101526122c2610160880188613dc8565b8080601f016020809104026020016040519081016040528093929190818152602001838380828437600092019190915250989a9299509597509095505050505050565b60006020828403121561231757600080fd5b81357fffffffff000000000000000000000000000000000000000000000000000000008116811461234757600080fd5b9392505050565b60006020828403121561236057600080fd5b5035919050565b73ffffffffffffffffffffffffffffffffffffffff8116811461238957600080fd5b50565b803561239781612367565b919050565b60008083601f8401126123ae57600080fd5b50813567ffffffffffffffff8111156123c657600080fd5b6020830191508360208285010111156123de57600080fd5b9250929050565b600060e082840312156123f757600080fd5b50919050565b6000806000806000806000610160888a03121561241957600080fd5b873561242481612367565b9650602088013567ffffffffffffffff8082111561244157600080fd5b908901906040828c03121561245557600080fd5b9096506040890135908082111561246b57600080fd5b6124778b838c0161239c565b909750955060608a013591508082111561249057600080fd5b5061249d8a828b0161239c565b90945092506124b190508960808a016123e5565b905092959891949750929550565b6000806000806000608086880312156124d757600080fd5b85356124e281612367565b945060208601356124f281612367565b935060408601359250606086013567ffffffffffffffff81111561251557600080fd5b6125218882890161239c565b969995985093965092949392505050565b7f4e487b7100000000000000000000000000000000000000000000000000000000600052604160045260246000fd5b6040516060810167ffffffffffffffff8111828210171561258457612584612532565b60405290565b604051610240810167ffffffffffffffff8111828210171561258457612584612532565b604051610120810167ffffffffffffffff8111828210171561258457612584612532565b604051601f82017fffffffffffffffffffffffffffffffffffffffffffffffffffffffffffffffe016810167ffffffffffffffff8111828210171561261957612619612532565b604052919050565b600067ffffffffffffffff82111561263b5761263b612532565b50601f017fffffffffffffffffffffffffffffffffffffffffffffffffffffffffffffffe01660200190565b600061267a61267584612621565b6125d2565b905082815283838301111561268e57600080fd5b828260208301376000602084830101529392505050565b600082601f8301126126b657600080fd5b61234783833560208501612667565b6000604082840312156126d757600080fd5b6040516040810167ffffffffffffffff82821081831117156126fb576126fb612532565b81604052829350843591508082111561271357600080fd5b50612720858286016126a5565b825250602083013560208201525092915050565b600067ffffffffffffffff82111561274e5761274e612532565b5060051b60200190565b600082601f83011261276957600080fd5b8135602061277961267583612734565b82815260059290921b8401810191818101908684111561279857600080fd5b8286015b8481101561286557803567ffffffffffffffff808211156127bd5760008081fd5b81890191506060807fffffffffffffffffffffffffffffffffffffffffffffffffffffffffffffffe0848d030112156127f65760008081fd5b6127fe612561565b8784013561280b81612367565b81526040848101358983015291840135918383111561282a5760008081fd5b82850194508c603f86011261284157600093508384fd5b6128518d8a870135838801612667565b90820152865250505091830191830161279c565b509695505050505050565b803560ff8116811461239757600080fd5b60008060008060008060006101a0888a03121561289d57600080fd5b6128a68861238c565b9650602088013567ffffffffffffffff808211156128c357600080fd5b6128cf8b838c016126c5565b975060408a01359150808211156128e557600080fd5b6128f18b838c016126a5565b965060608a013591508082111561290757600080fd5b6129138b838c016126a5565b95506129228b60808c016123e5565b94506101608a013591508082111561293957600080fd5b506129468a828b01612758565b9250506124b16101808901612870565b60006020828403121561296857600080fd5b813567ffffffffffffffff81111561297f57600080fd5b82016101e0818503121561234757600080fd5b60005b838110156129ad578181015183820152602001612995565b50506000910152565b600081518084526129ce816020860160208601612992565b601f017fffffffffffffffffffffffffffffffffffffffffffffffffffffffffffffffe0169290920160200192915050565b6000606085835260208181850152612a1a828501876129b6565b6040858203818701528187518084528484019150848160051b850101858a0160005b83811015612ab7578683037fffffffffffffffffffffffffffffffffffffffffffffffffffffffffffffffe00185528151805173ffffffffffffffffffffffffffffffffffffffff16845288810151898501528601518684018a9052612aa48a8501826129b6565b9589019593505090870190600101612a3c565b50909c9b505050505050505050505050565b60008060408385031215612adc57600080fd5b50508035926020909101359150565b73ffffffffffffffffffffffffffffffffffffffff84168152826020820152606060408201526000612b2060608301846129b6565b95945050505050565b600060208284031215612b3b57600080fd5b813567ffffffffffffffff811115612b5257600080fd5b82016101a0818503121561234757600080fd5b6000606085835260208181850152612b7f828501876129b6565b6040858203818701528187518084528484019150848160051b850101858a0160005b83811015612ab7578683037fffffffffffffffffffffffffffffffffffffffffffffffffffffffffffffffe00185528151805173ffffffffffffffffffffffffffffffffffffffff16845288810151898501528601518684018a9052612c098a8501826129b6565b9589019593505090870190600101612ba1565b7f4e487b7100000000000000000000000000000000000000000000000000000000600052603260045260246000fd5b600060208284031215612c5d57600080fd5b815161234781612367565b60008083357fffffffffffffffffffffffffffffffffffffffffffffffffffffffffffffffe1843603018112612c9d57600080fd5b830160208101925035905067ffffffffffffffff811115612cbd57600080fd5b8036038213156123de57600080fd5b8183528181602085013750600060208284010152600060207fffffffffffffffffffffffffffffffffffffffffffffffffffffffffffffffe0601f840116840101905092915050565b73ffffffffffffffffffffffffffffffffffffffff83168152604060208201526000612d418384612c68565b604080850152612d55608085018284612ccc565b91505060208401356060840152809150509392505050565b600060208284031215612d7f57600080fd5b5051919050565b858152606060208201526000612da0606083018688612ccc565b8281036040840152612db3818587612ccc565b98975050505050505050565b7f4e487b7100000000000000000000000000000000000000000000000000000000600052601160045260246000fd5b600181815b80851115612e4757817fffffffffffffffffffffffffffffffffffffffffffffffffffffffffffffffff04821115612e2d57612e2d612dbf565b80851615612e3a57918102915b93841c9390800290612df3565b509250929050565b600082612e5e5750600161034b565b81612e6b5750600061034b565b8160018114612e815760028114612e8b57612ea7565b600191505061034b565b60ff841115612e9c57612e9c612dbf565b50506001821b61034b565b5060208310610133831016604e8410600b8410161715612eca575081810a61034b565b612ed48383612dee565b807fffffffffffffffffffffffffffffffffffffffffffffffffffffffffffffffff04821115612f0657612f06612dbf565b029392505050565b600061234760ff841683612e4f565b612f428282518051151582526020808201511515908301526040908101511515910152565b6020810151606083015260408101516080830152606081015160a08301526080810151612f7360c084018215159052565b5060a081015180151560e08401525060c0810151610100612f978185018315159052565b60e08301519150610120612fae8186018415159052565b90830151915061014090612fc58583018415159052565b8301519150610160612fda8582018415159052565b90830151915061018090612ff18583018415159052565b83015191506101a06130068582018415159052565b9083015191506101c09061301d8583018415159052565b83015191506101e06130328582018415159052565b908301519150610200906130498583018415159052565b830151915061022061305e8582018415159052565b9083015173ffffffffffffffffffffffffffffffffffffffff16610240850152909101516102609092019190915250565b600081518084526020808501808196508360051b810191508286016000805b8681101561316e578385038a52825180518652860151604087870181905281518188018190529188019160609081890190865b818110156131575785518051151584528c81015115158d8501528581015186850152848101518585015260808082015173ffffffffffffffffffffffffffffffffffffffff9081169186019190915260a0808301519086015260c0918201511690840152948b019460e0909201916001016130e1565b50509c89019c9750505092860192506001016130ae565b509298975050505050505050565b600081518084526020808501945080840160005b838110156131f9578151805173ffffffffffffffffffffffffffffffffffffffff908116895284820151168489015260408082015190890152606080820151908901526080808201519089015260a0908101519088015260c09096019590820190600101613190565b509495945050505050565b60006103c089835260206132518185018b80518252602081015160208301526040810151604083015273ffffffffffffffffffffffffffffffffffffffff60608201511660608301525050565b61325e60a085018a612f1d565b87610320850152816103408501526132788285018861308f565b915083820361036085015261328d828761317c565b848103610380860152855480825260008781528381209450918301915b818110156132dc57845473ffffffffffffffffffffffffffffffffffffffff16835260019485019492840192016132aa565b50508481036103a0860152601b81527f4465706c6f7965642052657461696c69737420747265617375727900000000006020820152604081019c9b505050505050505050505050565b7f5072656d696e746564200000000000000000000000000000000000000000000081528183600a8301377f20746f6b656e732e0000000000000000000000000000000000000000000000009101600a810191909152601201919050565b86815285602082015273ffffffffffffffffffffffffffffffffffffffff8516604082015260c0606082015260006133bd60c08301866129b6565b93151560808301525090151560a090910152949350505050565b600060208083526080830173ffffffffffffffffffffffffffffffffffffffff85511682850152818501516040850152604085015160608086015281815180845260a0870191508483019350600092505b808310156128655783518252928401926001929092019190840190613428565b60006020828403121561345a57600080fd5b813565ffffffffffff8116811461234757600080fd5b8082018082111561034b5761034b612dbf565b805161239781612367565b8051801515811461239757600080fd5b6000606082840312156134b057600080fd5b6134b8612561565b90506134c38261348e565b81526134d16020830161348e565b60208201526134e26040830161348e565b604082015292915050565b6000610280828403121561350057600080fd5b61350861258a565b9050613514838361349e565b8152606082015160208201526080820151604082015260a0820151606082015261354060c0830161348e565b608082015261355160e0830161348e565b60a082015261010061356481840161348e565b60c083015261012061357781850161348e565b60e084015261014061358a81860161348e565b83850152610160925061359e83860161348e565b8285015261018091506135b282860161348e565b908401526101a06135c485820161348e565b838501526101c092506135d883860161348e565b828501526101e091506135ec82860161348e565b908401526102006135fe85820161348e565b83850152610220925061361283860161348e565b828501526136236102408601613483565b818501525050610260830151818301525092915050565b80516003811061239757600080fd5b60008060008385036103c081121561366057600080fd5b6101208082121561367057600080fd5b6136786125ae565b9150855182526020860151602083015260408601516040830152606086015160608301526080860151608083015260a086015160a083015260c086015160c08301526136c660e08701613483565b60e08301526101008087015181840152508194506136e6878288016134ed565b935050506136f76103a0850161363a565b90509250925092565b60006103a088835261374c602084018980518252602081015160208301526040810151604083015273ffffffffffffffffffffffffffffffffffffffff60608201511660608301525050565b61375960a0840188612f1d565b85610320840152806103408401526137738184018661308f565b9050828103610360840152613788818561317c565b838103610380909401939093525050602c81527f5363686564756c656420626f6f737420657870697279206f662052657461696c60208201527f697374207472656173757279000000000000000000000000000000000000000060408201526060019695505050505050565b73ffffffffffffffffffffffffffffffffffffffff83168152604060208201526000825160408084015261382b60808401826129b6565b905060208401516060840152809150509392505050565b83815260606020820152600061385b60608301856129b6565b828103604084015261386d81856129b6565b9695505050505050565b7f5072656d696e74656420000000000000000000000000000000000000000000008152600082516138af81600a850160208701612992565b7f20746f6b656e732e000000000000000000000000000000000000000000000000600a939091019283015250601201919050565b600181811c908216806138f757607f821691505b6020821081036123f7577f4e487b7100000000000000000000000000000000000000000000000000000000600052602260045260246000fd5b601f82111561397a57600081815260208120601f850160051c810160208610156139575750805b601f850160051c820191505b8181101561397657828155600101613963565b5050505b505050565b815167ffffffffffffffff81111561399957613999612532565b6139ad816139a784546138e3565b84613930565b602080601f831160018114613a0057600084156139ca5750858301515b7fffffffffffffffffffffffffffffffffffffffffffffffffffffffffffffffff600386901b1c1916600185901b178555613976565b6000858152602081207fffffffffffffffffffffffffffffffffffffffffffffffffffffffffffffffe08616915b82811015613a4d57888601518255948401946001909101908401613a2e565b5085821015613a8957878501517fffffffffffffffffffffffffffffffffffffffffffffffffffffffffffffffff600388901b60f8161c191681555b5050505050600190811b01905550565b8035613aa481612367565b73ffffffffffffffffffffffffffffffffffffffff1682526020818101359083015260408082013590830152606090810135910152565b60208152613b0960208201613aef8461238c565b73ffffffffffffffffffffffffffffffffffffffff169052565b6000613b176020840161238c565b73ffffffffffffffffffffffffffffffffffffffff8116604084015250613b446060830160408501613a99565b60c083013560e083015261010060e084013581840152613b6581850161238c565b9050610120613b8b8185018373ffffffffffffffffffffffffffffffffffffffff169052565b61014091508085013582850152506101608185013581850152613bb081860186612c68565b925090506101a06101808181870152613bce6101c087018585612ccc565b9350613bdc81880188612c68565b935090507fffffffffffffffffffffffffffffffffffffffffffffffffffffffffffffffe08685030182870152613c14848483612ccc565b979650505050505050565b6000613c2d61267584612621565b9050828152838383011115613c4157600080fd5b612347836020830184612992565b600080600060608486031215613c6457600080fd5b8351925060208085015167ffffffffffffffff80821115613c8457600080fd5b818701915087601f830112613c9857600080fd5b613ca6888351858501613c1f565b94506040870151915080821115613cbc57600080fd5b818701915087601f830112613cd057600080fd5b8151613cde61267582612734565b81815260059190911b8301840190848101908a831115613cfd57600080fd5b8585015b83811015613db757805185811115613d1857600080fd5b86016060818e037fffffffffffffffffffffffffffffffffffffffffffffffffffffffffffffffe0011215613d4c57600080fd5b613d54612561565b88820151613d6181612367565b8152604082015189820152606082015187811115613d7e57600080fd5b8083019250508d603f830112613d9357600080fd5b613da48e8a84015160408501613c1f565b6040820152845250918601918601613d01565b508096505050505050509250925092565b60008083357fffffffffffffffffffffffffffffffffffffffffffffffffffffffffffffffe1843603018112613dfd57600080fd5b83018035915067ffffffffffffffff821115613e1857600080fd5b6020019150368190038213156123de57600080fdfea26469706673582212209ecee83988ee2c1c74cf1aba95abe5d2ec13b193e9e96a77e71427c269a4f63f64736f6c63430008150033",
    "linkReferences": {}
  },
  "methodIdentifiers": {
    "buybackDelegate()": "d3967525",
    "controller()": "f77c4791",
    "delegateAllocationsOf(uint256,uint256)": "abc603e3",
    "deployBasicProjectFor(address,(string,uint256),string,string,(uint256,uint256,uint256,uint256,uint256,uint256,uint48))": "0e53d9cc",
    "deployPayAllocatorProjectFor(address,(string,uint256),string,string,(uint256,uint256,uint256,uint256,uint256,uint256,uint48),(address,uint256,bytes)[],uint8)": "4e777fd7",
    "onERC721Received(address,address,uint256,bytes)": "150b7a02",
    "payParams((address,address,(address,uint256,uint256,uint256),uint256,uint256,address,uint256,uint256,string,bytes))": "d46cf171",
    "permissionIndexes(uint256)": "9483e771",
    "reconfigurationStartTimestampOf(uint256)": "560f7b03",
    "redeemParams((address,address,uint256,uint256,uint256,uint256,uint256,(address,uint256,uint256,uint256),bool,uint256,string,bytes))": "a51cfd18",
    "scheduleReconfigurationOf(uint256)": "3ce6d3e2",
    "supportsInterface(bytes4)": "01ffc9a7",
    "terminals(uint256)": "0219758e"
  },
  "id": 113
}