{
  "abi": [
    {
      "inputs": [
        {
          "internalType": "contract IJBController3_1",
          "name": "_controller",
          "type": "address"
        }
      ],
      "stateMutability": "nonpayable",
      "type": "constructor"
    },
    {
      "inputs": [],
      "name": "RECONFIGURATION_ALREADY_SCHEDULED",
      "type": "error"
    },
    {
      "inputs": [
        {
          "internalType": "uint256",
          "name": "",
          "type": "uint256"
        }
      ],
      "name": "buybackDelegateDataSourceOf",
      "outputs": [
        {
          "internalType": "contract IJBGenericBuybackDelegate",
          "name": "",
          "type": "address"
        }
      ],
      "stateMutability": "view",
      "type": "function"
    },
    {
      "inputs": [
        {
          "internalType": "uint256",
          "name": "",
          "type": "uint256"
        }
      ],
      "name": "buybackDelegatePermissionIndexes",
      "outputs": [
        {
          "internalType": "uint256",
          "name": "",
          "type": "uint256"
        }
      ],
      "stateMutability": "view",
      "type": "function"
    },
    {
      "inputs": [],
      "name": "controller",
      "outputs": [
        {
          "internalType": "contract IJBController3_1",
          "name": "",
          "type": "address"
        }
      ],
      "stateMutability": "view",
      "type": "function"
    },
    {
      "inputs": [
        {
          "internalType": "uint256",
          "name": "",
          "type": "uint256"
        },
        {
          "internalType": "uint256",
          "name": "",
          "type": "uint256"
        }
      ],
      "name": "delegateAllocationsOf",
      "outputs": [
        {
          "internalType": "contract IJBPayDelegate3_1_1",
          "name": "delegate",
          "type": "address"
        },
        {
          "internalType": "uint256",
          "name": "amount",
          "type": "uint256"
        },
        {
          "internalType": "bytes",
          "name": "metadata",
          "type": "bytes"
        }
      ],
      "stateMutability": "view",
      "type": "function"
    },
    {
      "inputs": [
        {
          "internalType": "address",
          "name": "_operator",
          "type": "address"
        },
        {
          "components": [
            {
              "internalType": "string",
              "name": "content",
              "type": "string"
            },
            {
              "internalType": "uint256",
              "name": "domain",
              "type": "uint256"
            }
          ],
          "internalType": "struct JBProjectMetadata",
          "name": "_projectMetadata",
          "type": "tuple"
        },
        {
          "internalType": "string",
          "name": "_name",
          "type": "string"
        },
        {
          "internalType": "string",
          "name": "_symbol",
          "type": "string"
        },
        {
          "components": [
            {
              "internalType": "uint256",
              "name": "initialIssuanceRate",
              "type": "uint256"
            },
            {
              "internalType": "uint256",
              "name": "premintTokenAmount",
              "type": "uint256"
            },
            {
              "internalType": "uint256",
              "name": "generationTax",
              "type": "uint256"
            },
            {
              "internalType": "uint256",
              "name": "generationDuration",
              "type": "uint256"
            },
            {
              "internalType": "uint256",
              "name": "exitTaxRate",
              "type": "uint256"
            },
            {
              "internalType": "uint256",
              "name": "devTaxRate",
              "type": "uint256"
            },
            {
              "internalType": "uint48",
              "name": "devTaxDuration",
              "type": "uint48"
            },
            {
              "internalType": "uint24",
              "name": "poolFee",
              "type": "uint24"
            }
          ],
          "internalType": "struct BasicRetailistJBParams",
          "name": "_data",
          "type": "tuple"
        },
        {
          "internalType": "contract IJBPaymentTerminal[]",
          "name": "_terminals",
          "type": "address[]"
        },
        {
          "internalType": "contract IJBGenericBuybackDelegate",
          "name": "_buybackDelegate",
          "type": "address"
        }
      ],
      "name": "deployBasicProjectFor",
      "outputs": [
        {
          "internalType": "uint256",
          "name": "projectId",
          "type": "uint256"
        }
      ],
      "stateMutability": "nonpayable",
      "type": "function"
    },
    {
      "inputs": [
        {
          "internalType": "address",
          "name": "_operator",
          "type": "address"
        },
        {
          "components": [
            {
              "internalType": "string",
              "name": "content",
              "type": "string"
            },
            {
              "internalType": "uint256",
              "name": "domain",
              "type": "uint256"
            }
          ],
          "internalType": "struct JBProjectMetadata",
          "name": "_projectMetadata",
          "type": "tuple"
        },
        {
          "internalType": "string",
          "name": "_name",
          "type": "string"
        },
        {
          "internalType": "string",
          "name": "_symbol",
          "type": "string"
        },
        {
          "components": [
            {
              "internalType": "uint256",
              "name": "initialIssuanceRate",
              "type": "uint256"
            },
            {
              "internalType": "uint256",
              "name": "premintTokenAmount",
              "type": "uint256"
            },
            {
              "internalType": "uint256",
              "name": "generationTax",
              "type": "uint256"
            },
            {
              "internalType": "uint256",
              "name": "generationDuration",
              "type": "uint256"
            },
            {
              "internalType": "uint256",
              "name": "exitTaxRate",
              "type": "uint256"
            },
            {
              "internalType": "uint256",
              "name": "devTaxRate",
              "type": "uint256"
            },
            {
              "internalType": "uint48",
              "name": "devTaxDuration",
              "type": "uint48"
            },
            {
              "internalType": "uint24",
              "name": "poolFee",
              "type": "uint24"
            }
          ],
          "internalType": "struct BasicRetailistJBParams",
          "name": "_data",
          "type": "tuple"
        },
        {
          "internalType": "contract IJBPaymentTerminal[]",
          "name": "_terminals",
          "type": "address[]"
        },
        {
          "internalType": "contract IJBGenericBuybackDelegate",
          "name": "_buybackDelegate",
          "type": "address"
        },
        {
          "components": [
            {
              "internalType": "contract IJBPayDelegate3_1_1",
              "name": "delegate",
              "type": "address"
            },
            {
              "internalType": "uint256",
              "name": "amount",
              "type": "uint256"
            },
            {
              "internalType": "bytes",
              "name": "metadata",
              "type": "bytes"
            }
          ],
          "internalType": "struct JBPayDelegateAllocation3_1_1[]",
          "name": "_delegateAllocations",
          "type": "tuple[]"
        },
        {
          "internalType": "uint8",
          "name": "_extraFundingCycleMetadata",
          "type": "uint8"
        }
      ],
      "name": "deployPayAllocatorProjectFor",
      "outputs": [
        {
          "internalType": "uint256",
          "name": "projectId",
          "type": "uint256"
        }
      ],
      "stateMutability": "nonpayable",
      "type": "function"
    },
    {
      "inputs": [
        {
          "internalType": "address",
          "name": "_operator",
          "type": "address"
        },
        {
          "internalType": "address",
          "name": "_from",
          "type": "address"
        },
        {
          "internalType": "uint256",
          "name": "_tokenId",
          "type": "uint256"
        },
        {
          "internalType": "bytes",
          "name": "_data",
          "type": "bytes"
        }
      ],
      "name": "onERC721Received",
      "outputs": [
        {
          "internalType": "bytes4",
          "name": "",
          "type": "bytes4"
        }
      ],
      "stateMutability": "view",
      "type": "function"
    },
    {
      "inputs": [
        {
          "internalType": "uint256",
          "name": "",
          "type": "uint256"
        }
      ],
      "name": "operatorPermissionIndexes",
      "outputs": [
        {
          "internalType": "uint256",
          "name": "",
          "type": "uint256"
        }
      ],
      "stateMutability": "view",
      "type": "function"
    },
    {
      "inputs": [
        {
          "components": [
            {
              "internalType": "contract IJBPaymentTerminal",
              "name": "terminal",
              "type": "address"
            },
            {
              "internalType": "address",
              "name": "payer",
              "type": "address"
            },
            {
              "components": [
                {
                  "internalType": "address",
                  "name": "token",
                  "type": "address"
                },
                {
                  "internalType": "uint256",
                  "name": "value",
                  "type": "uint256"
                },
                {
                  "internalType": "uint256",
                  "name": "decimals",
                  "type": "uint256"
                },
                {
                  "internalType": "uint256",
                  "name": "currency",
                  "type": "uint256"
                }
              ],
              "internalType": "struct JBTokenAmount",
              "name": "amount",
              "type": "tuple"
            },
            {
              "internalType": "uint256",
              "name": "projectId",
              "type": "uint256"
            },
            {
              "internalType": "uint256",
              "name": "currentFundingCycleConfiguration",
              "type": "uint256"
            },
            {
              "internalType": "address",
              "name": "beneficiary",
              "type": "address"
            },
            {
              "internalType": "uint256",
              "name": "weight",
              "type": "uint256"
            },
            {
              "internalType": "uint256",
              "name": "reservedRate",
              "type": "uint256"
            },
            {
              "internalType": "string",
              "name": "memo",
              "type": "string"
            },
            {
              "internalType": "bytes",
              "name": "metadata",
              "type": "bytes"
            }
          ],
          "internalType": "struct JBPayParamsData",
          "name": "_data",
          "type": "tuple"
        }
      ],
      "name": "payParams",
      "outputs": [
        {
          "internalType": "uint256",
          "name": "weight",
          "type": "uint256"
        },
        {
          "internalType": "string",
          "name": "memo",
          "type": "string"
        },
        {
          "components": [
            {
              "internalType": "contract IJBPayDelegate3_1_1",
              "name": "delegate",
              "type": "address"
            },
            {
              "internalType": "uint256",
              "name": "amount",
              "type": "uint256"
            },
            {
              "internalType": "bytes",
              "name": "metadata",
              "type": "bytes"
            }
          ],
          "internalType": "struct JBPayDelegateAllocation3_1_1[]",
          "name": "delegateAllocations",
          "type": "tuple[]"
        }
      ],
      "stateMutability": "view",
      "type": "function"
    },
    {
      "inputs": [
        {
          "internalType": "uint256",
          "name": "projectId",
          "type": "uint256"
        }
      ],
      "name": "reconfigurationStartTimestampOf",
      "outputs": [
        {
          "internalType": "uint256",
          "name": "",
          "type": "uint256"
        }
      ],
      "stateMutability": "view",
      "type": "function"
    },
    {
      "inputs": [
        {
          "components": [
            {
              "internalType": "contract IJBPaymentTerminal",
              "name": "terminal",
              "type": "address"
            },
            {
              "internalType": "address",
              "name": "holder",
              "type": "address"
            },
            {
              "internalType": "uint256",
              "name": "projectId",
              "type": "uint256"
            },
            {
              "internalType": "uint256",
              "name": "currentFundingCycleConfiguration",
              "type": "uint256"
            },
            {
              "internalType": "uint256",
              "name": "tokenCount",
              "type": "uint256"
            },
            {
              "internalType": "uint256",
              "name": "totalSupply",
              "type": "uint256"
            },
            {
              "internalType": "uint256",
              "name": "overflow",
              "type": "uint256"
            },
            {
              "components": [
                {
                  "internalType": "address",
                  "name": "token",
                  "type": "address"
                },
                {
                  "internalType": "uint256",
                  "name": "value",
                  "type": "uint256"
                },
                {
                  "internalType": "uint256",
                  "name": "decimals",
                  "type": "uint256"
                },
                {
                  "internalType": "uint256",
                  "name": "currency",
                  "type": "uint256"
                }
              ],
              "internalType": "struct JBTokenAmount",
              "name": "reclaimAmount",
              "type": "tuple"
            },
            {
              "internalType": "bool",
              "name": "useTotalOverflow",
              "type": "bool"
            },
            {
              "internalType": "uint256",
              "name": "redemptionRate",
              "type": "uint256"
            },
            {
              "internalType": "string",
              "name": "memo",
              "type": "string"
            },
            {
              "internalType": "bytes",
              "name": "metadata",
              "type": "bytes"
            }
          ],
          "internalType": "struct JBRedeemParamsData",
          "name": "_data",
          "type": "tuple"
        }
      ],
      "name": "redeemParams",
      "outputs": [
        {
          "internalType": "uint256",
          "name": "",
          "type": "uint256"
        },
        {
          "internalType": "string",
          "name": "",
          "type": "string"
        },
        {
          "components": [
            {
              "internalType": "contract IJBRedemptionDelegate3_1_1",
              "name": "delegate",
              "type": "address"
            },
            {
              "internalType": "uint256",
              "name": "amount",
              "type": "uint256"
            },
            {
              "internalType": "bytes",
              "name": "metadata",
              "type": "bytes"
            }
          ],
          "internalType": "struct JBRedemptionDelegateAllocation3_1_1[]",
          "name": "",
          "type": "tuple[]"
        }
      ],
      "stateMutability": "view",
      "type": "function"
    },
    {
      "inputs": [
        {
          "internalType": "uint256",
          "name": "_projectId",
          "type": "uint256"
        }
      ],
      "name": "scheduleReconfigurationOf",
      "outputs": [],
      "stateMutability": "nonpayable",
      "type": "function"
    },
    {
      "inputs": [
        {
          "internalType": "bytes4",
          "name": "_interfaceId",
          "type": "bytes4"
        }
      ],
      "name": "supportsInterface",
      "outputs": [
        {
          "internalType": "bool",
          "name": "",
          "type": "bool"
        }
      ],
      "stateMutability": "view",
      "type": "function"
    }
  ],
  "bytecode": {
    "object": "0x60a06040523480156200001157600080fd5b50604051620043a5380380620043a58339810160408190526200003491620000ba565b6001600160a01b0316608052600080546001818101835560127f290decd9548b62a8d60345a988386fc84ba6bc95484008f6362f93160ef3e5639283015582548082018455601892019190915560048054918201815590915260097f8a35acfbc15ff81a39ae7d344fd709f28e8600b4aa8c65c6b64bfe7fe36bd19b90910155620000ec565b600060208284031215620000cd57600080fd5b81516001600160a01b0381168114620000e557600080fd5b9392505050565b60805161423462000171600039600081816102a501528181610364015281816105f901528181610707015281816109b801528181610c3b01528181610d1201528181610ef90152818161107b015281816113ab0152818161155e01528181611d1f01528181611e2d015281816120de0152818161231e01526123f501526142346000f3fe608060405234801561001057600080fd5b50600436106100df5760003560e01c80639e8c513a1161008c578063d46cf17111610066578063d46cf17114610210578063d87b09e314610232578063ef8eadd514610245578063f77c4791146102a057600080fd5b80639e8c513a146101b9578063a51cfd18146101cc578063abc603e3146101ee57600080fd5b80633ce6d3e2116100bd5780633ce6d3e2146101715780634d75772014610186578063560f7b031461019957600080fd5b806301ffc9a7146100e4578063150b7a021461010c5780631f84209a14610150575b600080fd5b6100f76100f236600461260c565b6102c7565b60405190151581526020015b60405180910390f35b61011f61011a36600461268a565b610360565b6040517fffffffff000000000000000000000000000000000000000000000000000000009091168152602001610103565b61016361015e366004612b9b565b610474565b604051908152602001610103565b61018461017f366004612cb4565b611362565b005b610163610194366004612cb4565b6116b3565b6101636101a7366004612cb4565b60016020526000908152604090205481565b6101636101c7366004612cb4565b6116d4565b6101df6101da366004612ccd565b6116e4565b60405161010393929190612d77565b6102016101fc366004612e40565b61174c565b60405161010393929190612e62565b61022361021e366004612ea0565b61182f565b60405161010393929190612edc565b610163610240366004612f93565b611b99565b61027b610253366004612cb4565b60026020526000908152604090205473ffffffffffffffffffffffffffffffffffffffff1681565b60405173ffffffffffffffffffffffffffffffffffffffff9091168152602001610103565b61027b7f000000000000000000000000000000000000000000000000000000000000000081565b60007fffffffff0000000000000000000000000000000000000000000000000000000082167f71700c6900000000000000000000000000000000000000000000000000000000148061035a57507f150b7a02000000000000000000000000000000000000000000000000000000007fffffffff000000000000000000000000000000000000000000000000000000008316145b92915050565b60007f000000000000000000000000000000000000000000000000000000000000000073ffffffffffffffffffffffffffffffffffffffff16638b79543c6040518163ffffffff1660e01b8152600401602060405180830381865afa1580156103cd573d6000803e3d6000fd5b505050506040513d601f19601f820116820180604052508101906103f19190613076565b73ffffffffffffffffffffffffffffffffffffffff163373ffffffffffffffffffffffffffffffffffffffff161461042857600080fd5b73ffffffffffffffffffffffffffffffffffffffff85161561044957600080fd5b507f150b7a020000000000000000000000000000000000000000000000000000000095945050505050565b604080516001808252818301909252600091829190816020015b60408051808201909152600081526060602082015281526020019060019003908161048e57505060408051600180825281830190925291925060009190602082015b6040805160e08101825260008082526020808301829052928201819052606082018190526080820181905260a0820181905260c082015282527fffffffffffffffffffffffffffffffffffffffffffffffffffffffffffffffff9092019101816104d05790505090506040518060e00160405280600015158152602001600015158152602001633b9aca008152602001600081526020018d73ffffffffffffffffffffffffffffffffffffffff16815260200160008152602001600073ffffffffffffffffffffffffffffffffffffffff16815250816001815181106105b8576105b8613093565b602002602001018190525060405180604001604052806002815260200182815250826000815181106105ec576105ec613093565b60200260200101819052507f000000000000000000000000000000000000000000000000000000000000000073ffffffffffffffffffffffffffffffffffffffff16638b79543c6040518163ffffffff1660e01b8152600401602060405180830381865afa158015610662573d6000803e3d6000fd5b505050506040513d601f19601f820116820180604052508101906106869190613076565b73ffffffffffffffffffffffffffffffffffffffff1663666d87a0308d6040518363ffffffff1660e01b81526004016106c09291906130c2565b6020604051808303816000875af11580156106df573d6000803e3d6000fd5b505050506040513d601f19601f820116820180604052508101906107039190613110565b92507f000000000000000000000000000000000000000000000000000000000000000073ffffffffffffffffffffffffffffffffffffffff1663619306306040518163ffffffff1660e01b8152600401602060405180830381865afa158015610770573d6000803e3d6000fd5b505050506040513d601f19601f820116820180604052508101906107949190613076565b73ffffffffffffffffffffffffffffffffffffffff1663a7f2a70b848c8c6040518463ffffffff1660e01b81526004016107d093929190613129565b6020604051808303816000875af11580156107ef573d6000803e3d6000fd5b505050506040513d601f19601f820116820180604052508101906108139190613076565b508573ffffffffffffffffffffffffffffffffffffffff16637b621d3a848a60e001518973ffffffffffffffffffffffffffffffffffffffff166360b3042c6040518163ffffffff1660e01b8152600401602060405180830381865afa158015610881573d6000803e3d6000fd5b505050506040513d601f19601f820116820180604052508101906108a59190613110565b8a73ffffffffffffffffffffffffffffffffffffffff1663737a79966040518163ffffffff1660e01b8152600401602060405180830381865afa1580156108f0573d6000803e3d6000fd5b505050506040513d601f19601f820116820180604052508101906109149190613110565b6040517fffffffff0000000000000000000000000000000000000000000000000000000060e087901b168152600481019490945262ffffff909216602484015263ffffffff908116604484015216606482015261eeee608482015260a4016020604051808303816000875af1158015610991573d6000803e3d6000fd5b505050506040513d601f19601f820116820180604052508101906109b59190613076565b507f000000000000000000000000000000000000000000000000000000000000000073ffffffffffffffffffffffffffffffffffffffff1663111d861b8460405180608001604052808c60600151815260200160128d60000151610a1991906132ad565b81526040808e0151602080840191909152600092820183905281516102a0810183526102408101848152610260820185905261028082019490945292835260a08f01519083015260808e015190820190610a75906127106132bc565b8152600060208083018290526040808401839052606084018390526080840183905260a08401839052600160c0850181905260e0850184905261010085018490526101208501849052610140850184905261016085018490526101808501526101a08401839052306101c085015260ff8d166101e090940193909352825182815290810190925290889082610b7d565b610b6a6040518060c00160405280600073ffffffffffffffffffffffffffffffffffffffff168152602001600073ffffffffffffffffffffffffffffffffffffffff168152602001600081526020016000815260200160008152602001600081525090565b815260200190600190039081610b055790505b508e6040518863ffffffff1660e01b8152600401610ba197969594939291906135b6565b6020604051808303816000875af1158015610bc0573d6000803e3d6000fd5b505050506040513d601f19601f82011682018060405250810190610be49190613110565b505050836002600083815260200190815260200160002060006101000a81548173ffffffffffffffffffffffffffffffffffffffff021916908373ffffffffffffffffffffffffffffffffffffffff1602179055507f000000000000000000000000000000000000000000000000000000000000000073ffffffffffffffffffffffffffffffffffffffff16638ae9c07b8260128960200151610c8791906132ad565b8d8b604051602001610c9991906136d4565b6040516020818303038152906040526000806040518763ffffffff1660e01b8152600401610ccc96959493929190613719565b6020604051808303816000875af1158015610ceb573d6000803e3d6000fd5b505050506040513d601f19601f82011682018060405250810190610d0f9190613110565b507f000000000000000000000000000000000000000000000000000000000000000073ffffffffffffffffffffffffffffffffffffffff16632bdfe0046040518163ffffffff1660e01b8152600401602060405180830381865afa158015610d7b573d6000803e3d6000fd5b505050506040513d601f19601f82011682018060405250810190610d9f9190613076565b73ffffffffffffffffffffffffffffffffffffffff1663ad007d636040518163ffffffff1660e01b8152600401602060405180830381865afa158015610de9573d6000803e3d6000fd5b505050506040513d601f19601f82011682018060405250810190610e0d9190613076565b73ffffffffffffffffffffffffffffffffffffffff1663529cdd2e60405180606001604052808d73ffffffffffffffffffffffffffffffffffffffff1681526020018481526020016000805480602002602001604051908101604052809291908181526020018280548015610ea157602002820191906000526020600020905b815481526020019060010190808311610e8d575b50505050508152506040518263ffffffff1660e01b8152600401610ec5919061376e565b600060405180830381600087803b158015610edf57600080fd5b505af1158015610ef3573d6000803e3d6000fd5b505050507f000000000000000000000000000000000000000000000000000000000000000073ffffffffffffffffffffffffffffffffffffffff16632bdfe0046040518163ffffffff1660e01b8152600401602060405180830381865afa158015610f62573d6000803e3d6000fd5b505050506040513d601f19601f82011682018060405250810190610f869190613076565b73ffffffffffffffffffffffffffffffffffffffff1663ad007d636040518163ffffffff1660e01b8152600401602060405180830381865afa158015610fd0573d6000803e3d6000fd5b505050506040513d601f19601f82011682018060405250810190610ff49190613076565b73ffffffffffffffffffffffffffffffffffffffff16630f5932f08530600060046040518563ffffffff1660e01b815260040161103494939291906137df565b602060405180830381865afa158015611051573d6000803e3d6000fd5b505050506040513d601f19601f82011682018060405250810190611075919061386b565b611262577f000000000000000000000000000000000000000000000000000000000000000073ffffffffffffffffffffffffffffffffffffffff16632bdfe0046040518163ffffffff1660e01b8152600401602060405180830381865afa1580156110e4573d6000803e3d6000fd5b505050506040513d601f19601f820116820180604052508101906111089190613076565b73ffffffffffffffffffffffffffffffffffffffff1663ad007d636040518163ffffffff1660e01b8152600401602060405180830381865afa158015611152573d6000803e3d6000fd5b505050506040513d601f19601f820116820180604052508101906111769190613076565b73ffffffffffffffffffffffffffffffffffffffff1663529cdd2e60405180606001604052808773ffffffffffffffffffffffffffffffffffffffff16815260200160008152602001600480548060200260200160405190810160405280929190818152602001828054801561120b57602002820191906000526020600020905b8154815260200190600101908083116111f7575b50505050508152506040518263ffffffff1660e01b815260040161122f919061376e565b600060405180830381600087803b15801561124957600080fd5b505af115801561125d573d6000803e3d6000fd5b505050505b60c08601516112799065ffffffffffff1642613886565b6000828152600160205260408120919091558351905b81811015611353578481815181106112a9576112a9613093565b60200260200101516003600085815260200190815260200160002082815481106112d5576112d5613093565b600091825260209182902083516003929092020180547fffffffffffffffffffffffff00000000000000000000000000000000000000001673ffffffffffffffffffffffffffffffffffffffff90921691909117815590820151600182015560408201516002820190611348908261393b565b50505060010161128f565b50509998505050505050505050565b6040517f1f51045300000000000000000000000000000000000000000000000000000000815260048101829052600090819073ffffffffffffffffffffffffffffffffffffffff7f00000000000000000000000000000000000000000000000000000000000000001690631f510453906024016103c060405180830381865afa1580156113f3573d6000803e3d6000fd5b505050506040513d601f19601f820116820180604052508101906114179190613c0b565b5081519193509150600114611458576040517fc97554fa00000000000000000000000000000000000000000000000000000000815260040160405180910390fd5b60408051608080820183528481015182526000602080840182905260c08088015185870152606080860184905286516102a0810188526102408101858152610260820186905261028082018690528152808401859052888801518189015290810184905293840183905260a08401839052830182905260e08301829052610100830182905261012083018290526101408301829052610160830182905261018083018290526101a083018290526101c083018290526101e083018290526102008087015173ffffffffffffffffffffffffffffffffffffffff908116918501919091526102208781015190850152888352600182528583205486518481529283019096527f0000000000000000000000000000000000000000000000000000000000000000169463badbdf2894899490939092906115b9565b6040805180820190915260008152606060208201528152602001906001900390816115915790505b506040805160008082526020820190925290611648565b6116356040518060c00160405280600073ffffffffffffffffffffffffffffffffffffffff168152602001600073ffffffffffffffffffffffffffffffffffffffff168152602001600081526020016000815260200160008152602001600081525090565b8152602001906001900390816115d05790505b506040518763ffffffff1660e01b815260040161166a96959493929190613cc2565b6020604051808303816000875af1158015611689573d6000803e3d6000fd5b505050506040513d601f19601f820116820180604052508101906116ad9190613110565b50505050565b600081815481106116c357600080fd5b600091825260209091200154905081565b600481815481106116c357600080fd5b604080516000808252602082019092526060908190839081611730565b604080516060808201835260008083526020830152918101919091528152602001906001900390816117015790505b5060408051602081019091526000815291969195509350915050565b6003602052816000526040600020818154811061176857600080fd5b600091825260209091206003909102018054600182015460028301805473ffffffffffffffffffffffffffffffffffffffff9093169550909350906117ac90613899565b80601f01602080910402602001604051908101604052809291908181526020018280546117d890613899565b80156118255780601f106117fa57610100808354040283529160200191611825565b820191906000526020600020905b81548152906001019060200180831161180857829003601f168201915b5050505050905083565b60c08101356000908152600260205260408082205490517fd46cf1710000000000000000000000000000000000000000000000000000000081526060918291829173ffffffffffffffffffffffffffffffffffffffff169063d46cf1719061189b908890600401613eac565b600060405180830381865afa1580156118b8573d6000803e3d6000fd5b505050506040513d6000823e601f3d9081017fffffffffffffffffffffffffffffffffffffffffffffffffffffffffffffffe01682016040526118fe9190810190614020565b805160c089013560009081526003602090815260408083208054825181850281018501909352808352979b5094975092151595919450919291849084015b82821015611a2d5760008481526020908190206040805160608101825260038602909201805473ffffffffffffffffffffffffffffffffffffffff1683526001810154938301939093526002830180549293929184019161199c90613899565b80601f01602080910402602001604051908101604052809291908181526020018280546119c890613899565b8015611a155780601f106119ea57610100808354040283529160200191611a15565b820191906000526020600020905b8154815290600101906020018083116119f857829003601f168201915b5050505050815250508152602001906001019061193c565b50505050905060008151905082611a45576000611a48565b60015b611a559060ff1682613886565b67ffffffffffffffff811115611a6d57611a6d612729565b604051908082528060200260200182016040528015611aba57816020015b60408051606080820183526000808352602083015291810191909152815260200190600190039081611a8b5790505b50945060005b81811015611b0757828181518110611ada57611ada613093565b6020026020010151868281518110611af457611af4613093565b6020908102919091010152600101611ac0565b508215611b475783600081518110611b2157611b21613093565b6020026020010151858281518110611b3b57611b3b613093565b60200260200101819052505b611b55610160890189614199565b8080601f016020809104026020016040519081016040528093929190818152602001838380828437600092019190915250999b929a50969850909650505050505050565b604080516001808252818301909252600091829190816020015b604080518082019091526000815260606020820152815260200190600190039081611bb357505060408051600180825281830190925291925060009190602082015b6040805160e08101825260008082526020808301829052928201819052606082018190526080820181905260a0820181905260c082015282527fffffffffffffffffffffffffffffffffffffffffffffffffffffffffffffffff909201910181611bf55790505090506040518060e00160405280600015158152602001600015158152602001633b9aca008152602001600081526020018b73ffffffffffffffffffffffffffffffffffffffff16815260200160008152602001600073ffffffffffffffffffffffffffffffffffffffff1681525081600181518110611cdd57611cdd613093565b60200260200101819052506040518060400160405280600281526020018281525082600081518110611d1157611d11613093565b6020026020010181905250507f000000000000000000000000000000000000000000000000000000000000000073ffffffffffffffffffffffffffffffffffffffff16638b79543c6040518163ffffffff1660e01b8152600401602060405180830381865afa158015611d88573d6000803e3d6000fd5b505050506040513d601f19601f82011682018060405250810190611dac9190613076565b73ffffffffffffffffffffffffffffffffffffffff1663666d87a0308a6040518363ffffffff1660e01b8152600401611de69291906130c2565b6020604051808303816000875af1158015611e05573d6000803e3d6000fd5b505050506040513d601f19601f82011682018060405250810190611e299190613110565b91507f000000000000000000000000000000000000000000000000000000000000000073ffffffffffffffffffffffffffffffffffffffff1663619306306040518163ffffffff1660e01b8152600401602060405180830381865afa158015611e96573d6000803e3d6000fd5b505050506040513d601f19601f82011682018060405250810190611eba9190613076565b73ffffffffffffffffffffffffffffffffffffffff1663a7f2a70b8389896040518463ffffffff1660e01b8152600401611ef693929190613129565b6020604051808303816000875af1158015611f15573d6000803e3d6000fd5b505050506040513d601f19601f82011682018060405250810190611f399190613076565b508273ffffffffffffffffffffffffffffffffffffffff16637b621d3a838760e001518673ffffffffffffffffffffffffffffffffffffffff166360b3042c6040518163ffffffff1660e01b8152600401602060405180830381865afa158015611fa7573d6000803e3d6000fd5b505050506040513d601f19601f82011682018060405250810190611fcb9190613110565b8773ffffffffffffffffffffffffffffffffffffffff1663737a79966040518163ffffffff1660e01b8152600401602060405180830381865afa158015612016573d6000803e3d6000fd5b505050506040513d601f19601f8201168201806040525081019061203a9190613110565b6040517fffffffff0000000000000000000000000000000000000000000000000000000060e087901b168152600481019490945262ffffff909216602484015263ffffffff908116604484015216606482015261eeee608482015260a4016020604051808303816000875af11580156120b7573d6000803e3d6000fd5b505050506040513d601f19601f820116820180604052508101906120db9190613076565b507f000000000000000000000000000000000000000000000000000000000000000073ffffffffffffffffffffffffffffffffffffffff1663111d861b8360405180608001604052808960600151815260200160128a6000015161213f91906132ad565b81526040808b0151602080840191909152600092820183905281516102a0810183526102408101848152610260820185905261028082019490945292835260a08c01519083015260808b01519082019061219b906127106132bc565b8152600060208083018290526040808401839052606084018390526080840183905260a08401839052600160c0850181905260e0850184905261010085018490526101208501849052610140850184905261016085018490526101808501526101a0840183905273ffffffffffffffffffffffffffffffffffffffff8c166101c08501526101e09093018290528251828152908101909252908790826122b4565b6122a16040518060c00160405280600073ffffffffffffffffffffffffffffffffffffffff168152602001600073ffffffffffffffffffffffffffffffffffffffff168152602001600081526020016000815260200160008152602001600081525090565b81526020019060019003908161223c5790505b508b6040518863ffffffff1660e01b81526004016122d897969594939291906135b6565b6020604051808303816000875af11580156122f7573d6000803e3d6000fd5b505050506040513d601f19601f8201168201806040525081019061231b9190613110565b507f000000000000000000000000000000000000000000000000000000000000000073ffffffffffffffffffffffffffffffffffffffff16638ae9c07b836012886020015161236a91906132ad565b8c8a60405160200161237c91906136d4565b6040516020818303038152906040526000806040518763ffffffff1660e01b81526004016123af96959493929190613719565b6020604051808303816000875af11580156123ce573d6000803e3d6000fd5b505050506040513d601f19601f820116820180604052508101906123f29190613110565b507f000000000000000000000000000000000000000000000000000000000000000073ffffffffffffffffffffffffffffffffffffffff16632bdfe0046040518163ffffffff1660e01b8152600401602060405180830381865afa15801561245e573d6000803e3d6000fd5b505050506040513d601f19601f820116820180604052508101906124829190613076565b73ffffffffffffffffffffffffffffffffffffffff1663ad007d636040518163ffffffff1660e01b8152600401602060405180830381865afa1580156124cc573d6000803e3d6000fd5b505050506040513d601f19601f820116820180604052508101906124f09190613076565b73ffffffffffffffffffffffffffffffffffffffff1663529cdd2e60405180606001604052808c73ffffffffffffffffffffffffffffffffffffffff168152602001858152602001600080548060200260200160405190810160405280929190818152602001828054801561258457602002820191906000526020600020905b815481526020019060010190808311612570575b50505050508152506040518263ffffffff1660e01b81526004016125a8919061376e565b600060405180830381600087803b1580156125c257600080fd5b505af11580156125d6573d6000803e3d6000fd5b50505060c08601516125f1915065ffffffffffff1642613886565b60008381526001602052604090205550979650505050505050565b60006020828403121561261e57600080fd5b81357fffffffff000000000000000000000000000000000000000000000000000000008116811461264e57600080fd5b9392505050565b73ffffffffffffffffffffffffffffffffffffffff8116811461267757600080fd5b50565b803561268581612655565b919050565b6000806000806000608086880312156126a257600080fd5b85356126ad81612655565b945060208601356126bd81612655565b935060408601359250606086013567ffffffffffffffff808211156126e157600080fd5b818801915088601f8301126126f557600080fd5b81358181111561270457600080fd5b89602082850101111561271657600080fd5b9699959850939650602001949392505050565b7f4e487b7100000000000000000000000000000000000000000000000000000000600052604160045260246000fd5b604051610100810167ffffffffffffffff8111828210171561277c5761277c612729565b60405290565b6040516060810167ffffffffffffffff8111828210171561277c5761277c612729565b604051610240810167ffffffffffffffff8111828210171561277c5761277c612729565b604051610120810167ffffffffffffffff8111828210171561277c5761277c612729565b604051601f82017fffffffffffffffffffffffffffffffffffffffffffffffffffffffffffffffe016810167ffffffffffffffff8111828210171561283457612834612729565b604052919050565b600067ffffffffffffffff82111561285657612856612729565b50601f017fffffffffffffffffffffffffffffffffffffffffffffffffffffffffffffffe01660200190565b60006128956128908461283c565b6127ed565b90508281528383830111156128a957600080fd5b828260208301376000602084830101529392505050565b600082601f8301126128d157600080fd5b61264e83833560208501612882565b6000604082840312156128f257600080fd5b6040516040810167ffffffffffffffff828210818311171561291657612916612729565b81604052829350843591508082111561292e57600080fd5b5061293b858286016128c0565b825250602083013560208201525092915050565b803562ffffff8116811461268557600080fd5b6000610100828403121561297557600080fd5b61297d612758565b9050813581526020820135602082015260408201356040820152606082013560608201526080820135608082015260a082013560a082015260c082013565ffffffffffff811681146129ce57600080fd5b60c08201526129df60e0830161294f565b60e082015292915050565b600067ffffffffffffffff821115612a0457612a04612729565b5060051b60200190565b600082601f830112612a1f57600080fd5b81356020612a2f612890836129ea565b82815260059290921b84018101918181019086841115612a4e57600080fd5b8286015b84811015612a72578035612a6581612655565b8352918301918301612a52565b509695505050505050565b600082601f830112612a8e57600080fd5b81356020612a9e612890836129ea565b82815260059290921b84018101918181019086841115612abd57600080fd5b8286015b84811015612a7257803567ffffffffffffffff80821115612ae25760008081fd5b81890191506060807fffffffffffffffffffffffffffffffffffffffffffffffffffffffffffffffe0848d03011215612b1b5760008081fd5b612b23612782565b87840135612b3081612655565b815260408481013589830152918401359183831115612b4f5760008081fd5b82850194508c603f860112612b6657600093508384fd5b612b768d8a870135838801612882565b908201528652505050918301918301612ac1565b803560ff8116811461268557600080fd5b60008060008060008060008060006102008a8c031215612bba57600080fd5b612bc38a61267a565b985060208a013567ffffffffffffffff80821115612be057600080fd5b612bec8d838e016128e0565b995060408c0135915080821115612c0257600080fd5b612c0e8d838e016128c0565b985060608c0135915080821115612c2457600080fd5b612c308d838e016128c0565b9750612c3f8d60808e01612962565b96506101808c0135915080821115612c5657600080fd5b612c628d838e01612a0e565b9550612c716101a08d0161267a565b94506101c08c0135915080821115612c8857600080fd5b50612c958c828d01612a7d565b925050612ca56101e08b01612b8a565b90509295985092959850929598565b600060208284031215612cc657600080fd5b5035919050565b600060208284031215612cdf57600080fd5b813567ffffffffffffffff811115612cf657600080fd5b82016101e0818503121561264e57600080fd5b60005b83811015612d24578181015183820152602001612d0c565b50506000910152565b60008151808452612d45816020860160208601612d09565b601f017fffffffffffffffffffffffffffffffffffffffffffffffffffffffffffffffe0169290920160200192915050565b6000606085835260208181850152612d9182850187612d2d565b6040858203818701528187518084528484019150848160051b850101858a0160005b83811015612e2e578683037fffffffffffffffffffffffffffffffffffffffffffffffffffffffffffffffe00185528151805173ffffffffffffffffffffffffffffffffffffffff16845288810151898501528601518684018a9052612e1b8a850182612d2d565b9589019593505090870190600101612db3565b50909c9b505050505050505050505050565b60008060408385031215612e5357600080fd5b50508035926020909101359150565b73ffffffffffffffffffffffffffffffffffffffff84168152826020820152606060408201526000612e976060830184612d2d565b95945050505050565b600060208284031215612eb257600080fd5b813567ffffffffffffffff811115612ec957600080fd5b82016101a0818503121561264e57600080fd5b6000606085835260208181850152612ef682850187612d2d565b6040858203818701528187518084528484019150848160051b850101858a0160005b83811015612e2e578683037fffffffffffffffffffffffffffffffffffffffffffffffffffffffffffffffe00185528151805173ffffffffffffffffffffffffffffffffffffffff16845288810151898501528601518684018a9052612f808a850182612d2d565b9589019593505090870190600101612f18565b60008060008060008060006101c0888a031215612faf57600080fd5b612fb88861267a565b9650602088013567ffffffffffffffff80821115612fd557600080fd5b612fe18b838c016128e0565b975060408a0135915080821115612ff757600080fd5b6130038b838c016128c0565b965060608a013591508082111561301957600080fd5b6130258b838c016128c0565b95506130348b60808c01612962565b94506101808a013591508082111561304b57600080fd5b506130588a828b01612a0e565b9250506130686101a0890161267a565b905092959891949750929550565b60006020828403121561308857600080fd5b815161264e81612655565b7f4e487b7100000000000000000000000000000000000000000000000000000000600052603260045260246000fd5b73ffffffffffffffffffffffffffffffffffffffff8316815260406020820152600082516040808401526130f96080840182612d2d565b905060208401516060840152809150509392505050565b60006020828403121561312257600080fd5b5051919050565b8381526060602082015260006131426060830185612d2d565b82810360408401526131548185612d2d565b9695505050505050565b7f4e487b7100000000000000000000000000000000000000000000000000000000600052601160045260246000fd5b600181815b808511156131e657817fffffffffffffffffffffffffffffffffffffffffffffffffffffffffffffffff048211156131cc576131cc61315e565b808516156131d957918102915b93841c9390800290613192565b509250929050565b6000826131fd5750600161035a565b8161320a5750600061035a565b8160018114613220576002811461322a57613246565b600191505061035a565b60ff84111561323b5761323b61315e565b50506001821b61035a565b5060208310610133831016604e8410600b8410161715613269575081810a61035a565b613273838361318d565b807fffffffffffffffffffffffffffffffffffffffffffffffffffffffffffffffff048211156132a5576132a561315e565b029392505050565b600061264e60ff8416836131ee565b8181038181111561035a5761035a61315e565b6132f48282518051151582526020808201511515908301526040908101511515910152565b6020810151606083015260408101516080830152606081015160a0830152608081015161332560c084018215159052565b5060a081015180151560e08401525060c08101516101006133498185018315159052565b60e083015191506101206133608186018415159052565b908301519150610140906133778583018415159052565b830151915061016061338c8582018415159052565b908301519150610180906133a38583018415159052565b83015191506101a06133b88582018415159052565b9083015191506101c0906133cf8583018415159052565b83015191506101e06133e48582018415159052565b908301519150610200906133fb8583018415159052565b83015191506102206134108582018415159052565b9083015173ffffffffffffffffffffffffffffffffffffffff16610240850152909101516102609092019190915250565b600081518084526020808501808196508360051b810191508286016000805b86811015613520578385038a52825180518652860151604087870181905281518188018190529188019160609081890190865b818110156135095785518051151584528c81015115158d8501528581015186850152848101518585015260808082015173ffffffffffffffffffffffffffffffffffffffff9081169186019190915260a0808301519086015260c0918201511690840152948b019460e090920191600101613493565b50509c89019c975050509286019250600101613460565b509298975050505050505050565b600081518084526020808501945080840160005b838110156135ab578151805173ffffffffffffffffffffffffffffffffffffffff908116895284820151168489015260408082015190890152606080820151908901526080808201519089015260a0908101519088015260c09096019590820190600101613542565b509495945050505050565b60006103c089835260206136038185018b80518252602081015160208301526040810151604083015273ffffffffffffffffffffffffffffffffffffffff60608201511660608301525050565b61361060a085018a6132cf565b876103208501528161034085015261362a82850188613441565b915083820361036085015261363f828761352e565b848103610380860152855180825282870193509082019060005b8181101561368b57845173ffffffffffffffffffffffffffffffffffffffff1683529383019391830191600101613659565b50508481036103a0860152601b81527f4465706c6f7965642052657461696c69737420747265617375727900000000006020820152604081019c9b505050505050505050505050565b7f5072656d696e746564202400000000000000000000000000000000000000000081526000825161370c81600b850160208701612d09565b91909101600b0192915050565b86815285602082015273ffffffffffffffffffffffffffffffffffffffff8516604082015260c06060820152600061375460c0830186612d2d565b93151560808301525090151560a090910152949350505050565b600060208083526080830173ffffffffffffffffffffffffffffffffffffffff85511682850152818501516040850152604085015160608086015281815180845260a0870191508483019350600092505b80831015612a7257835182529284019260019290920191908401906137bf565b60006080820173ffffffffffffffffffffffffffffffffffffffff808816845260208188168186015286604086015260806060860152829150855480845260a0860192508660005281600020935060005b8181101561384c57845484526001948501949383019301613830565b50919998505050505050505050565b8051801515811461268557600080fd5b60006020828403121561387d57600080fd5b61264e8261385b565b8082018082111561035a5761035a61315e565b600181811c908216806138ad57607f821691505b6020821081036138e6577f4e487b7100000000000000000000000000000000000000000000000000000000600052602260045260246000fd5b50919050565b601f82111561393657600081815260208120601f850160051c810160208610156139135750805b601f850160051c820191505b818110156139325782815560010161391f565b5050505b505050565b815167ffffffffffffffff81111561395557613955612729565b613969816139638454613899565b846138ec565b602080601f8311600181146139bc57600084156139865750858301515b7fffffffffffffffffffffffffffffffffffffffffffffffffffffffffffffffff600386901b1c1916600185901b178555613932565b6000858152602081207fffffffffffffffffffffffffffffffffffffffffffffffffffffffffffffffe08616915b82811015613a09578886015182559484019460019091019084016139ea565b5085821015613a4557878501517fffffffffffffffffffffffffffffffffffffffffffffffffffffffffffffffff600388901b60f8161c191681555b5050505050600190811b01905550565b805161268581612655565b600060608284031215613a7257600080fd5b613a7a612782565b9050613a858261385b565b8152613a936020830161385b565b6020820152613aa46040830161385b565b604082015292915050565b60006102808284031215613ac257600080fd5b613aca6127a5565b9050613ad68383613a60565b8152606082015160208201526080820151604082015260a08201516060820152613b0260c0830161385b565b6080820152613b1360e0830161385b565b60a0820152610100613b2681840161385b565b60c0830152610120613b3981850161385b565b60e0840152610140613b4c81860161385b565b838501526101609250613b6083860161385b565b828501526101809150613b7482860161385b565b908401526101a0613b8685820161385b565b838501526101c09250613b9a83860161385b565b828501526101e09150613bae82860161385b565b90840152610200613bc085820161385b565b838501526102209250613bd483860161385b565b82850152613be56102408601613a55565b818501525050610260830151818301525092915050565b80516003811061268557600080fd5b60008060008385036103c0811215613c2257600080fd5b61012080821215613c3257600080fd5b613c3a6127c9565b9150855182526020860151602083015260408601516040830152606086015160608301526080860151608083015260a086015160a083015260c086015160c0830152613c8860e08701613a55565b60e0830152610100808701518184015250819450613ca887828801613aaf565b93505050613cb96103a08501613bfc565b90509250925092565b60006103a0888352613d0e602084018980518252602081015160208301526040810151604083015273ffffffffffffffffffffffffffffffffffffffff60608201511660608301525050565b613d1b60a08401886132cf565b8561032084015280610340840152613d3581840186613441565b9050828103610360840152613d4a818561352e565b838103610380909401939093525050602c81527f5363686564756c656420626f6f737420657870697279206f662052657461696c60208201527f697374207472656173757279000000000000000000000000000000000000000060408201526060019695505050505050565b8035613dc181612655565b73ffffffffffffffffffffffffffffffffffffffff1682526020818101359083015260408082013590830152606090810135910152565b60008083357fffffffffffffffffffffffffffffffffffffffffffffffffffffffffffffffe1843603018112613e2d57600080fd5b830160208101925035905067ffffffffffffffff811115613e4d57600080fd5b803603821315613e5c57600080fd5b9250929050565b8183528181602085013750600060208284010152600060207fffffffffffffffffffffffffffffffffffffffffffffffffffffffffffffffe0601f840116840101905092915050565b60208152613eda60208201613ec08461267a565b73ffffffffffffffffffffffffffffffffffffffff169052565b6000613ee86020840161267a565b73ffffffffffffffffffffffffffffffffffffffff8116604084015250613f156060830160408501613db6565b60c083013560e083015261010060e084013581840152613f3681850161267a565b9050610120613f5c8185018373ffffffffffffffffffffffffffffffffffffffff169052565b61014091508085013582850152506101608185013581850152613f8181860186613df8565b925090506101a06101808181870152613f9f6101c087018585613e63565b9350613fad81880188613df8565b935090507fffffffffffffffffffffffffffffffffffffffffffffffffffffffffffffffe08685030182870152613fe5848483613e63565b979650505050505050565b6000613ffe6128908461283c565b905082815283838301111561401257600080fd5b61264e836020830184612d09565b60008060006060848603121561403557600080fd5b8351925060208085015167ffffffffffffffff8082111561405557600080fd5b818701915087601f83011261406957600080fd5b614077888351858501613ff0565b9450604087015191508082111561408d57600080fd5b818701915087601f8301126140a157600080fd5b81516140af612890826129ea565b81815260059190911b8301840190848101908a8311156140ce57600080fd5b8585015b83811015614188578051858111156140e957600080fd5b86016060818e037fffffffffffffffffffffffffffffffffffffffffffffffffffffffffffffffe001121561411d57600080fd5b614125612782565b8882015161413281612655565b815260408201518982015260608201518781111561414f57600080fd5b8083019250508d603f83011261416457600080fd5b6141758e8a84015160408501613ff0565b60408201528452509186019186016140d2565b508096505050505050509250925092565b60008083357fffffffffffffffffffffffffffffffffffffffffffffffffffffffffffffffe18436030181126141ce57600080fd5b83018035915067ffffffffffffffff8211156141e957600080fd5b602001915036819003821315613e5c57600080fdfea264697066735822122021656524a44743bd3682f899c494ae854c481430d6e2b701a2a77161e3e9040964736f6c63430008150033",
    "linkReferences": {}
  },
  "methodIdentifiers": {
    "buybackDelegateDataSourceOf(uint256)": "ef8eadd5",
    "buybackDelegatePermissionIndexes(uint256)": "9e8c513a",
    "controller()": "f77c4791",
    "delegateAllocationsOf(uint256,uint256)": "abc603e3",
    "deployBasicProjectFor(address,(string,uint256),string,string,(uint256,uint256,uint256,uint256,uint256,uint256,uint48,uint24),address[],address)": "d87b09e3",
    "deployPayAllocatorProjectFor(address,(string,uint256),string,string,(uint256,uint256,uint256,uint256,uint256,uint256,uint48,uint24),address[],address,(address,uint256,bytes)[],uint8)": "1f84209a",
    "onERC721Received(address,address,uint256,bytes)": "150b7a02",
    "operatorPermissionIndexes(uint256)": "4d757720",
    "payParams((address,address,(address,uint256,uint256,uint256),uint256,uint256,address,uint256,uint256,string,bytes))": "d46cf171",
    "reconfigurationStartTimestampOf(uint256)": "560f7b03",
    "redeemParams((address,address,uint256,uint256,uint256,uint256,uint256,(address,uint256,uint256,uint256),bool,uint256,string,bytes))": "a51cfd18",
    "scheduleReconfigurationOf(uint256)": "3ce6d3e2",
    "supportsInterface(bytes4)": "01ffc9a7"
  },
  "id": 104
}