{
  "abi": [
    {
      "inputs": [
        {
          "internalType": "contract IJBController3_1",
          "name": "_controller",
          "type": "address"
        },
        {
          "internalType": "contract IJBGenericBuybackDelegate",
          "name": "_buybackDelegate",
          "type": "address"
        }
      ],
      "stateMutability": "nonpayable",
      "type": "constructor"
    },
    {
      "inputs": [],
      "name": "RECONFIGURATION_ALREADY_SCHEDULED",
      "type": "error"
    },
    {
      "inputs": [],
      "name": "buybackDelegate",
      "outputs": [
        {
          "internalType": "contract IJBGenericBuybackDelegate",
          "name": "",
          "type": "address"
        }
      ],
      "stateMutability": "view",
      "type": "function"
    },
    {
      "inputs": [],
      "name": "controller",
      "outputs": [
        {
          "internalType": "contract IJBController3_1",
          "name": "",
          "type": "address"
        }
      ],
      "stateMutability": "view",
      "type": "function"
    },
    {
      "inputs": [
        {
          "internalType": "uint256",
          "name": "",
          "type": "uint256"
        },
        {
          "internalType": "uint256",
          "name": "",
          "type": "uint256"
        }
      ],
      "name": "delegateAllocationsOf",
      "outputs": [
        {
          "internalType": "contract IJBPayDelegate3_1_1",
          "name": "delegate",
          "type": "address"
        },
        {
          "internalType": "uint256",
          "name": "amount",
          "type": "uint256"
        },
        {
          "internalType": "bytes",
          "name": "metadata",
          "type": "bytes"
        }
      ],
      "stateMutability": "view",
      "type": "function"
    },
    {
      "inputs": [
        {
          "internalType": "address",
          "name": "_operator",
          "type": "address"
        },
        {
          "components": [
            {
              "internalType": "string",
              "name": "content",
              "type": "string"
            },
            {
              "internalType": "uint256",
              "name": "domain",
              "type": "uint256"
            }
          ],
          "internalType": "struct JBProjectMetadata",
          "name": "_projectMetadata",
          "type": "tuple"
        },
        {
          "internalType": "string",
          "name": "_name",
          "type": "string"
        },
        {
          "internalType": "string",
          "name": "_symbol",
          "type": "string"
        },
        {
          "components": [
            {
              "internalType": "uint256",
              "name": "initialIssuanceRate",
              "type": "uint256"
            },
            {
              "internalType": "uint256",
              "name": "premintTokenAmount",
              "type": "uint256"
            },
            {
              "internalType": "uint256",
              "name": "discountRate",
              "type": "uint256"
            },
            {
              "internalType": "uint256",
              "name": "cycleDurations",
              "type": "uint256"
            },
            {
              "internalType": "uint256",
              "name": "redemptionRate",
              "type": "uint256"
            },
            {
              "internalType": "uint256",
              "name": "reservedRate",
              "type": "uint256"
            },
            {
              "internalType": "uint48",
              "name": "reservedRateDuration",
              "type": "uint48"
            },
            {
              "internalType": "uint24",
              "name": "poolFee",
              "type": "uint24"
            }
          ],
          "internalType": "struct BasicRetailistJBParams",
          "name": "_data",
          "type": "tuple"
        },
        {
          "internalType": "contract IJBPaymentTerminal[]",
          "name": "_terminals",
          "type": "address[]"
        }
      ],
      "name": "deployBasicProjectFor",
      "outputs": [
        {
          "internalType": "uint256",
          "name": "projectId",
          "type": "uint256"
        }
      ],
      "stateMutability": "nonpayable",
      "type": "function"
    },
    {
      "inputs": [
        {
          "internalType": "address",
          "name": "_operator",
          "type": "address"
        },
        {
          "components": [
            {
              "internalType": "string",
              "name": "content",
              "type": "string"
            },
            {
              "internalType": "uint256",
              "name": "domain",
              "type": "uint256"
            }
          ],
          "internalType": "struct JBProjectMetadata",
          "name": "_projectMetadata",
          "type": "tuple"
        },
        {
          "internalType": "string",
          "name": "_name",
          "type": "string"
        },
        {
          "internalType": "string",
          "name": "_symbol",
          "type": "string"
        },
        {
          "components": [
            {
              "internalType": "uint256",
              "name": "initialIssuanceRate",
              "type": "uint256"
            },
            {
              "internalType": "uint256",
              "name": "premintTokenAmount",
              "type": "uint256"
            },
            {
              "internalType": "uint256",
              "name": "discountRate",
              "type": "uint256"
            },
            {
              "internalType": "uint256",
              "name": "cycleDurations",
              "type": "uint256"
            },
            {
              "internalType": "uint256",
              "name": "redemptionRate",
              "type": "uint256"
            },
            {
              "internalType": "uint256",
              "name": "reservedRate",
              "type": "uint256"
            },
            {
              "internalType": "uint48",
              "name": "reservedRateDuration",
              "type": "uint48"
            },
            {
              "internalType": "uint24",
              "name": "poolFee",
              "type": "uint24"
            }
          ],
          "internalType": "struct BasicRetailistJBParams",
          "name": "_data",
          "type": "tuple"
        },
        {
          "internalType": "contract IJBPaymentTerminal[]",
          "name": "_terminals",
          "type": "address[]"
        },
        {
          "components": [
            {
              "internalType": "contract IJBPayDelegate3_1_1",
              "name": "delegate",
              "type": "address"
            },
            {
              "internalType": "uint256",
              "name": "amount",
              "type": "uint256"
            },
            {
              "internalType": "bytes",
              "name": "metadata",
              "type": "bytes"
            }
          ],
          "internalType": "struct JBPayDelegateAllocation3_1_1[]",
          "name": "_delegateAllocations",
          "type": "tuple[]"
        },
        {
          "internalType": "uint8",
          "name": "_extraFundingCycleMetadata",
          "type": "uint8"
        }
      ],
      "name": "deployPayAllocatorProjectFor",
      "outputs": [
        {
          "internalType": "uint256",
          "name": "projectId",
          "type": "uint256"
        }
      ],
      "stateMutability": "nonpayable",
      "type": "function"
    },
    {
      "inputs": [
        {
          "internalType": "address",
          "name": "_operator",
          "type": "address"
        },
        {
          "internalType": "address",
          "name": "_from",
          "type": "address"
        },
        {
          "internalType": "uint256",
          "name": "_tokenId",
          "type": "uint256"
        },
        {
          "internalType": "bytes",
          "name": "_data",
          "type": "bytes"
        }
      ],
      "name": "onERC721Received",
      "outputs": [
        {
          "internalType": "bytes4",
          "name": "",
          "type": "bytes4"
        }
      ],
      "stateMutability": "view",
      "type": "function"
    },
    {
      "inputs": [
        {
          "components": [
            {
              "internalType": "contract IJBPaymentTerminal",
              "name": "terminal",
              "type": "address"
            },
            {
              "internalType": "address",
              "name": "payer",
              "type": "address"
            },
            {
              "components": [
                {
                  "internalType": "address",
                  "name": "token",
                  "type": "address"
                },
                {
                  "internalType": "uint256",
                  "name": "value",
                  "type": "uint256"
                },
                {
                  "internalType": "uint256",
                  "name": "decimals",
                  "type": "uint256"
                },
                {
                  "internalType": "uint256",
                  "name": "currency",
                  "type": "uint256"
                }
              ],
              "internalType": "struct JBTokenAmount",
              "name": "amount",
              "type": "tuple"
            },
            {
              "internalType": "uint256",
              "name": "projectId",
              "type": "uint256"
            },
            {
              "internalType": "uint256",
              "name": "currentFundingCycleConfiguration",
              "type": "uint256"
            },
            {
              "internalType": "address",
              "name": "beneficiary",
              "type": "address"
            },
            {
              "internalType": "uint256",
              "name": "weight",
              "type": "uint256"
            },
            {
              "internalType": "uint256",
              "name": "reservedRate",
              "type": "uint256"
            },
            {
              "internalType": "string",
              "name": "memo",
              "type": "string"
            },
            {
              "internalType": "bytes",
              "name": "metadata",
              "type": "bytes"
            }
          ],
          "internalType": "struct JBPayParamsData",
          "name": "_data",
          "type": "tuple"
        }
      ],
      "name": "payParams",
      "outputs": [
        {
          "internalType": "uint256",
          "name": "weight",
          "type": "uint256"
        },
        {
          "internalType": "string",
          "name": "memo",
          "type": "string"
        },
        {
          "components": [
            {
              "internalType": "contract IJBPayDelegate3_1_1",
              "name": "delegate",
              "type": "address"
            },
            {
              "internalType": "uint256",
              "name": "amount",
              "type": "uint256"
            },
            {
              "internalType": "bytes",
              "name": "metadata",
              "type": "bytes"
            }
          ],
          "internalType": "struct JBPayDelegateAllocation3_1_1[]",
          "name": "delegateAllocations",
          "type": "tuple[]"
        }
      ],
      "stateMutability": "view",
      "type": "function"
    },
    {
      "inputs": [
        {
          "internalType": "uint256",
          "name": "",
          "type": "uint256"
        }
      ],
      "name": "permissionIndexes",
      "outputs": [
        {
          "internalType": "uint256",
          "name": "",
          "type": "uint256"
        }
      ],
      "stateMutability": "view",
      "type": "function"
    },
    {
      "inputs": [
        {
          "internalType": "uint256",
          "name": "projectId",
          "type": "uint256"
        }
      ],
      "name": "reconfigurationStartTimestampOf",
      "outputs": [
        {
          "internalType": "uint256",
          "name": "",
          "type": "uint256"
        }
      ],
      "stateMutability": "view",
      "type": "function"
    },
    {
      "inputs": [
        {
          "components": [
            {
              "internalType": "contract IJBPaymentTerminal",
              "name": "terminal",
              "type": "address"
            },
            {
              "internalType": "address",
              "name": "holder",
              "type": "address"
            },
            {
              "internalType": "uint256",
              "name": "projectId",
              "type": "uint256"
            },
            {
              "internalType": "uint256",
              "name": "currentFundingCycleConfiguration",
              "type": "uint256"
            },
            {
              "internalType": "uint256",
              "name": "tokenCount",
              "type": "uint256"
            },
            {
              "internalType": "uint256",
              "name": "totalSupply",
              "type": "uint256"
            },
            {
              "internalType": "uint256",
              "name": "overflow",
              "type": "uint256"
            },
            {
              "components": [
                {
                  "internalType": "address",
                  "name": "token",
                  "type": "address"
                },
                {
                  "internalType": "uint256",
                  "name": "value",
                  "type": "uint256"
                },
                {
                  "internalType": "uint256",
                  "name": "decimals",
                  "type": "uint256"
                },
                {
                  "internalType": "uint256",
                  "name": "currency",
                  "type": "uint256"
                }
              ],
              "internalType": "struct JBTokenAmount",
              "name": "reclaimAmount",
              "type": "tuple"
            },
            {
              "internalType": "bool",
              "name": "useTotalOverflow",
              "type": "bool"
            },
            {
              "internalType": "uint256",
              "name": "redemptionRate",
              "type": "uint256"
            },
            {
              "internalType": "string",
              "name": "memo",
              "type": "string"
            },
            {
              "internalType": "bytes",
              "name": "metadata",
              "type": "bytes"
            }
          ],
          "internalType": "struct JBRedeemParamsData",
          "name": "_data",
          "type": "tuple"
        }
      ],
      "name": "redeemParams",
      "outputs": [
        {
          "internalType": "uint256",
          "name": "",
          "type": "uint256"
        },
        {
          "internalType": "string",
          "name": "",
          "type": "string"
        },
        {
          "components": [
            {
              "internalType": "contract IJBRedemptionDelegate3_1_1",
              "name": "delegate",
              "type": "address"
            },
            {
              "internalType": "uint256",
              "name": "amount",
              "type": "uint256"
            },
            {
              "internalType": "bytes",
              "name": "metadata",
              "type": "bytes"
            }
          ],
          "internalType": "struct JBRedemptionDelegateAllocation3_1_1[]",
          "name": "",
          "type": "tuple[]"
        }
      ],
      "stateMutability": "view",
      "type": "function"
    },
    {
      "inputs": [
        {
          "internalType": "uint256",
          "name": "_projectId",
          "type": "uint256"
        }
      ],
      "name": "scheduleReconfigurationOf",
      "outputs": [],
      "stateMutability": "nonpayable",
      "type": "function"
    },
    {
      "inputs": [
        {
          "internalType": "bytes4",
          "name": "_interfaceId",
          "type": "bytes4"
        }
      ],
      "name": "supportsInterface",
      "outputs": [
        {
          "internalType": "bool",
          "name": "",
          "type": "bool"
        }
      ],
      "stateMutability": "view",
      "type": "function"
    }
  ],
  "bytecode": {
    "object": "0x60c06040523480156200001157600080fd5b5060405162003f2838038062003f288339810160408190526200003491620000a7565b6001600160a01b039182166080521660a052600080546001818101835582805260127f290decd9548b62a8d60345a988386fc84ba6bc95484008f6362f93160ef3e5639283015582549081019092556018910155620000e6565b6001600160a01b0381168114620000a457600080fd5b50565b60008060408385031215620000bb57600080fd5b8251620000c8816200008e565b6020840151909250620000db816200008e565b809150509250929050565b60805160a051613d896200019f600039600081816101f7015281816108030152818161083c015281816108cb01528181610b230152818161140a01528181611afa01528181611b330152611bc201526000818161027801528181610337015281816105cd015281816106db015281816109fc01528181610c5e01528181610d2001528181610f8d01528181611140015281816118c4015281816119d201528181611cf301528181611f330152611ff50152613d896000f3fe608060405234801561001057600080fd5b50600436106100d45760003560e01c8063a51cfd1811610081578063d46cf1711161005b578063d46cf1711461023e578063f108924114610260578063f77c47911461027357600080fd5b8063a51cfd18146101ae578063abc603e3146101d0578063d3967525146101f257600080fd5b80633ce6d3e2116100b25780633ce6d3e214610166578063560f7b031461017b5780639483e7711461019b57600080fd5b806301ffc9a7146100d9578063150b7a0214610101578063179d2ada14610145575b600080fd5b6100ec6100e73660046122e8565b61029a565b60405190151581526020015b60405180910390f35b61011461010f3660046123af565b610333565b6040517fffffffff0000000000000000000000000000000000000000000000000000000090911681526020016100f8565b6101586101533660046125d4565b610447565b6040519081526020016100f8565b6101796101743660046126b3565b610f44565b005b6101586101893660046126b3565b60016020526000908152604090205481565b6101586101a93660046126b3565b611295565b6101c16101bc3660046126cc565b6112b6565b6040516100f893929190612776565b6101e36101de36600461283f565b61131e565b6040516100f893929190612861565b6102197f000000000000000000000000000000000000000000000000000000000000000081565b60405173ffffffffffffffffffffffffffffffffffffffff90911681526020016100f8565b61025161024c36600461289f565b611401565b6040516100f8939291906128db565b61015861026e366004612b20565b61173e565b6102197f000000000000000000000000000000000000000000000000000000000000000081565b60007fffffffff0000000000000000000000000000000000000000000000000000000082167f71700c6900000000000000000000000000000000000000000000000000000000148061032d57507f150b7a02000000000000000000000000000000000000000000000000000000007fffffffff000000000000000000000000000000000000000000000000000000008316145b92915050565b60007f000000000000000000000000000000000000000000000000000000000000000073ffffffffffffffffffffffffffffffffffffffff16638b79543c6040518163ffffffff1660e01b8152600401602060405180830381865afa1580156103a0573d6000803e3d6000fd5b505050506040513d601f19601f820116820180604052508101906103c49190612c36565b73ffffffffffffffffffffffffffffffffffffffff163373ffffffffffffffffffffffffffffffffffffffff16146103fb57600080fd5b73ffffffffffffffffffffffffffffffffffffffff85161561041c57600080fd5b507f150b7a020000000000000000000000000000000000000000000000000000000095945050505050565b604080516001808252818301909252600091829190816020015b60408051808201909152600081526060602082015281526020019060019003908161046157505060408051600180825281830190925291925060009190602082015b6040805160e08101825260008082526020808301829052928201819052606082018190526080820181905260a0820181905260c082015282527fffffffffffffffffffffffffffffffffffffffffffffffffffffffffffffffff9092019101816104a35790505090506040518060e00160405280600015158152602001600015158152602001633b9aca008152602001600081526020018c73ffffffffffffffffffffffffffffffffffffffff16815260200160008152602001600073ffffffffffffffffffffffffffffffffffffffff168152508160018151811061058b5761058b612c53565b602002602001018190525060405180604001604052806002815260200182815250826000815181106105bf576105bf612c53565b6020026020010181905250507f000000000000000000000000000000000000000000000000000000000000000073ffffffffffffffffffffffffffffffffffffffff16638b79543c6040518163ffffffff1660e01b8152600401602060405180830381865afa158015610636573d6000803e3d6000fd5b505050506040513d601f19601f8201168201806040525081019061065a9190612c36565b73ffffffffffffffffffffffffffffffffffffffff1663666d87a0308b6040518363ffffffff1660e01b8152600401610694929190612d2f565b6020604051808303816000875af11580156106b3573d6000803e3d6000fd5b505050506040513d601f19601f820116820180604052508101906106d79190612d87565b91507f000000000000000000000000000000000000000000000000000000000000000073ffffffffffffffffffffffffffffffffffffffff1663619306306040518163ffffffff1660e01b8152600401602060405180830381865afa158015610744573d6000803e3d6000fd5b505050506040513d601f19601f820116820180604052508101906107689190612c36565b73ffffffffffffffffffffffffffffffffffffffff1663a7f2a70b838a8a8a8a6040518663ffffffff1660e01b81526004016107a8959493929190612da0565b6020604051808303816000875af11580156107c7573d6000803e3d6000fd5b505050506040513d601f19601f820116820180604052508101906107eb9190612c36565b5073ffffffffffffffffffffffffffffffffffffffff7f000000000000000000000000000000000000000000000000000000000000000016637b621d3a8361083a610100880160e08901612dd9565b7f000000000000000000000000000000000000000000000000000000000000000073ffffffffffffffffffffffffffffffffffffffff166360b3042c6040518163ffffffff1660e01b8152600401602060405180830381865afa1580156108a5573d6000803e3d6000fd5b505050506040513d601f19601f820116820180604052508101906108c99190612d87565b7f000000000000000000000000000000000000000000000000000000000000000073ffffffffffffffffffffffffffffffffffffffff1663737a79966040518163ffffffff1660e01b8152600401602060405180830381865afa158015610934573d6000803e3d6000fd5b505050506040513d601f19601f820116820180604052508101906109589190612d87565b6040517fffffffff0000000000000000000000000000000000000000000000000000000060e087901b168152600481019490945262ffffff909216602484015263ffffffff908116604484015216606482015261eeee608482015260a4016020604051808303816000875af11580156109d5573d6000803e3d6000fd5b505050506040513d601f19601f820116820180604052508101906109f99190612c36565b507f000000000000000000000000000000000000000000000000000000000000000073ffffffffffffffffffffffffffffffffffffffff1663111d861b8360405180608001604052808860600135815260200160128960000135610a5d9190612f4d565b8152604089810135602080840191909152600092820183905281516102a081018352610240810184815261026082018590526102808201859052815260a0808d0135828401526080808e013583860152606083018690528201859052810184905260c0810184905260e081018490526001610100820181905261012082018590526101408201859052610160820185905261018082018590526101a082018590526101c08201526101e0810184905273ffffffffffffffffffffffffffffffffffffffff7f00000000000000000000000000000000000000000000000000000000000000001661020082015261022081018490528251848152918201909252909190879082610bdf565b610bcc6040518060c00160405280600073ffffffffffffffffffffffffffffffffffffffff168152602001600073ffffffffffffffffffffffffffffffffffffffff168152602001600081526020016000815260200160008152602001600081525090565b815260200190600190039081610b675790505b508a6040518863ffffffff1660e01b8152600401610c039796959493929190613240565b6020604051808303816000875af1158015610c22573d6000803e3d6000fd5b505050506040513d601f19601f82011682018060405250810190610c469190612d87565b5073ffffffffffffffffffffffffffffffffffffffff7f000000000000000000000000000000000000000000000000000000000000000016638ae9c07b83610c9360126020890135612f4d565b8d8a8a604051602001610ca792919061335e565b6040516020818303038152906040526000806040518763ffffffff1660e01b8152600401610cda96959493929190613397565b6020604051808303816000875af1158015610cf9573d6000803e3d6000fd5b505050506040513d601f19601f82011682018060405250810190610d1d9190612d87565b507f000000000000000000000000000000000000000000000000000000000000000073ffffffffffffffffffffffffffffffffffffffff16632bdfe0046040518163ffffffff1660e01b8152600401602060405180830381865afa158015610d89573d6000803e3d6000fd5b505050506040513d601f19601f82011682018060405250810190610dad9190612c36565b73ffffffffffffffffffffffffffffffffffffffff1663ad007d636040518163ffffffff1660e01b8152600401602060405180830381865afa158015610df7573d6000803e3d6000fd5b505050506040513d601f19601f82011682018060405250810190610e1b9190612c36565b73ffffffffffffffffffffffffffffffffffffffff1663529cdd2e60405180606001604052808d73ffffffffffffffffffffffffffffffffffffffff1681526020018581526020016000805480602002602001604051908101604052809291908181526020018280548015610eaf57602002820191906000526020600020905b815481526020019060010190808311610e9b575b50505050508152506040518263ffffffff1660e01b8152600401610ed391906133ec565b600060405180830381600087803b158015610eed57600080fd5b505af1158015610f01573d6000803e3d6000fd5b50610f169250505060e0850160c0860161345d565b610f289065ffffffffffff1642613485565b6000838152600160205260409020555098975050505050505050565b6040517f1f51045300000000000000000000000000000000000000000000000000000000815260048101829052600090819073ffffffffffffffffffffffffffffffffffffffff7f00000000000000000000000000000000000000000000000000000000000000001690631f510453906024016103c060405180830381865afa158015610fd5573d6000803e3d6000fd5b505050506040513d601f19601f82011682018060405250810190610ff9919061365e565b508151919350915060011461103a576040517fc97554fa00000000000000000000000000000000000000000000000000000000815260040160405180910390fd5b60408051608080820183528481015182526000602080840182905260c08088015185870152606080860184905286516102a0810188526102408101858152610260820186905261028082018690528152808401859052888801518189015290810184905293840183905260a08401839052830182905260e08301829052610100830182905261012083018290526101408301829052610160830182905261018083018290526101a083018290526101c083018290526101e083018290526102008087015173ffffffffffffffffffffffffffffffffffffffff908116918501919091526102208781015190850152888352600182528583205486518481529283019096527f0000000000000000000000000000000000000000000000000000000000000000169463badbdf28948994909390929061119b565b6040805180820190915260008152606060208201528152602001906001900390816111735790505b50604080516000808252602082019092529061122a565b6112176040518060c00160405280600073ffffffffffffffffffffffffffffffffffffffff168152602001600073ffffffffffffffffffffffffffffffffffffffff168152602001600081526020016000815260200160008152602001600081525090565b8152602001906001900390816111b25790505b506040518763ffffffff1660e01b815260040161124c96959493929190613715565b6020604051808303816000875af115801561126b573d6000803e3d6000fd5b505050506040513d601f19601f8201168201806040525081019061128f9190612d87565b50505050565b600081815481106112a557600080fd5b600091825260209091200154905081565b604080516000808252602082019092526060908190839081611302565b604080516060808201835260008083526020830152918101919091528152602001906001900390816112d35790505b5060408051602081019091526000815291969195509350915050565b6002602052816000526040600020818154811061133a57600080fd5b600091825260209091206003909102018054600182015460028301805473ffffffffffffffffffffffffffffffffffffffff90931695509093509061137e90613809565b80601f01602080910402602001604051908101604052809291908181526020018280546113aa90613809565b80156113f75780601f106113cc576101008083540402835291602001916113f7565b820191906000526020600020905b8154815290600101906020018083116113da57829003601f168201915b5050505050905083565b600060608060607f000000000000000000000000000000000000000000000000000000000000000073ffffffffffffffffffffffffffffffffffffffff1663d46cf171866040518263ffffffff1660e01b81526004016114619190613898565b600060405180830381865afa15801561147e573d6000803e3d6000fd5b505050506040513d6000823e601f3d9081017fffffffffffffffffffffffffffffffffffffffffffffffffffffffffffffffe01682016040526114c49190810190613a0c565b60c088013560009081526002602090815260408083208054825181850281018501909352808352969a509396509194919350849084015b828210156115ec5760008481526020908190206040805160608101825260038602909201805473ffffffffffffffffffffffffffffffffffffffff1683526001810154938301939093526002830180549293929184019161155b90613809565b80601f016020809104026020016040519081016040528092919081815260200182805461158790613809565b80156115d45780601f106115a9576101008083540402835291602001916115d4565b820191906000526020600020905b8154815290600101906020018083116115b757829003601f168201915b505050505081525050815260200190600101906114fb565b5050825192935061160291508290506001613485565b67ffffffffffffffff81111561161a5761161a61244d565b60405190808252806020026020018201604052801561166757816020015b604080516060808201835260008083526020830152918101919091528152602001906001900390816116385790505b50935060005b818110156116b45782818151811061168757611687612c53565b60200260200101518582815181106116a1576116a1612c53565b602090810291909101015260010161166d565b50826000815181106116c8576116c8612c53565b60200260200101518482815181106116e2576116e2612c53565b60209081029190910101526116fb610160880188613b85565b8080601f016020809104026020016040519081016040528093929190818152602001838380828437600092019190915250989a9299509597509095505050505050565b604080516001808252818301909252600091829190816020015b60408051808201909152600081526060602082015281526020019060019003908161175857505060408051600180825281830190925291925060009190602082015b6040805160e08101825260008082526020808301829052928201819052606082018190526080820181905260a0820181905260c082015282527fffffffffffffffffffffffffffffffffffffffffffffffffffffffffffffffff90920191018161179a5790505090506040518060e00160405280600015158152602001600015158152602001633b9aca008152602001600081526020018e73ffffffffffffffffffffffffffffffffffffffff16815260200160008152602001600073ffffffffffffffffffffffffffffffffffffffff168152508160018151811061188257611882612c53565b602002602001018190525060405180604001604052806002815260200182815250826000815181106118b6576118b6612c53565b6020026020010181905250507f000000000000000000000000000000000000000000000000000000000000000073ffffffffffffffffffffffffffffffffffffffff16638b79543c6040518163ffffffff1660e01b8152600401602060405180830381865afa15801561192d573d6000803e3d6000fd5b505050506040513d601f19601f820116820180604052508101906119519190612c36565b73ffffffffffffffffffffffffffffffffffffffff1663666d87a0308d6040518363ffffffff1660e01b815260040161198b929190612d2f565b6020604051808303816000875af11580156119aa573d6000803e3d6000fd5b505050506040513d601f19601f820116820180604052508101906119ce9190612d87565b91507f000000000000000000000000000000000000000000000000000000000000000073ffffffffffffffffffffffffffffffffffffffff1663619306306040518163ffffffff1660e01b8152600401602060405180830381865afa158015611a3b573d6000803e3d6000fd5b505050506040513d601f19601f82011682018060405250810190611a5f9190612c36565b73ffffffffffffffffffffffffffffffffffffffff1663a7f2a70b838c8c8c8c6040518663ffffffff1660e01b8152600401611a9f959493929190612da0565b6020604051808303816000875af1158015611abe573d6000803e3d6000fd5b505050506040513d601f19601f82011682018060405250810190611ae29190612c36565b5073ffffffffffffffffffffffffffffffffffffffff7f000000000000000000000000000000000000000000000000000000000000000016637b621d3a83611b316101008a0160e08b01612dd9565b7f000000000000000000000000000000000000000000000000000000000000000073ffffffffffffffffffffffffffffffffffffffff166360b3042c6040518163ffffffff1660e01b8152600401602060405180830381865afa158015611b9c573d6000803e3d6000fd5b505050506040513d601f19601f82011682018060405250810190611bc09190612d87565b7f000000000000000000000000000000000000000000000000000000000000000073ffffffffffffffffffffffffffffffffffffffff1663737a79966040518163ffffffff1660e01b8152600401602060405180830381865afa158015611c2b573d6000803e3d6000fd5b505050506040513d601f19601f82011682018060405250810190611c4f9190612d87565b6040517fffffffff0000000000000000000000000000000000000000000000000000000060e087901b168152600481019490945262ffffff909216602484015263ffffffff908116604484015216606482015261eeee608482015260a4016020604051808303816000875af1158015611ccc573d6000803e3d6000fd5b505050506040513d601f19601f82011682018060405250810190611cf09190612c36565b507f000000000000000000000000000000000000000000000000000000000000000073ffffffffffffffffffffffffffffffffffffffff1663111d861b8360405180608001604052808a60600135815260200160128b60000135611d549190612f4d565b81526040808c0135602080840191909152600092820183905281516102a081018352610240810184815261026082018590526102808201859052815260a0808f0135928201929092526080808f01359382019390935260608101849052918201839052810182905260c0810182905260e081018290526001610100820181905261012082018390526101408201839052610160820183905261018082018390526101a082018390526101c08201526101e081018290523061020082015260ff8916610220820152908681604051908082528060200260200182016040528015611eb457816020015b611ea16040518060c00160405280600073ffffffffffffffffffffffffffffffffffffffff168152602001600073ffffffffffffffffffffffffffffffffffffffff168152602001600081526020016000815260200160008152602001600081525090565b815260200190600190039081611e3c5790505b508c6040518863ffffffff1660e01b8152600401611ed89796959493929190613240565b6020604051808303816000875af1158015611ef7573d6000803e3d6000fd5b505050506040513d601f19601f82011682018060405250810190611f1b9190612d87565b5073ffffffffffffffffffffffffffffffffffffffff7f000000000000000000000000000000000000000000000000000000000000000016638ae9c07b83611f68601260208b0135612f4d565b8f8c8c604051602001611f7c92919061335e565b6040516020818303038152906040526000806040518763ffffffff1660e01b8152600401611faf96959493929190613397565b6020604051808303816000875af1158015611fce573d6000803e3d6000fd5b505050506040513d601f19601f82011682018060405250810190611ff29190612d87565b507f000000000000000000000000000000000000000000000000000000000000000073ffffffffffffffffffffffffffffffffffffffff16632bdfe0046040518163ffffffff1660e01b8152600401602060405180830381865afa15801561205e573d6000803e3d6000fd5b505050506040513d601f19601f820116820180604052508101906120829190612c36565b73ffffffffffffffffffffffffffffffffffffffff1663ad007d636040518163ffffffff1660e01b8152600401602060405180830381865afa1580156120cc573d6000803e3d6000fd5b505050506040513d601f19601f820116820180604052508101906120f09190612c36565b73ffffffffffffffffffffffffffffffffffffffff1663529cdd2e60405180606001604052808f73ffffffffffffffffffffffffffffffffffffffff168152602001858152602001600080548060200260200160405190810160405280929190818152602001828054801561218457602002820191906000526020600020905b815481526020019060010190808311612170575b50505050508152506040518263ffffffff1660e01b81526004016121a891906133ec565b600060405180830381600087803b1580156121c257600080fd5b505af11580156121d6573d6000803e3d6000fd5b506121eb9250505060e0870160c0880161345d565b6121fd9065ffffffffffff1642613485565b6000838152600160205260408120919091558451905b818110156122d75785818151811061222d5761222d612c53565b602002602001015160026000868152602001908152602001600020828154811061225957612259612c53565b600091825260209182902083516003929092020180547fffffffffffffffffffffffff00000000000000000000000000000000000000001673ffffffffffffffffffffffffffffffffffffffff909216919091178155908201516001820155604082015160028201906122cc9082613c39565b505050600101612213565b5050509a9950505050505050505050565b6000602082840312156122fa57600080fd5b81357fffffffff000000000000000000000000000000000000000000000000000000008116811461232a57600080fd5b9392505050565b73ffffffffffffffffffffffffffffffffffffffff8116811461235357600080fd5b50565b803561236181612331565b919050565b60008083601f84011261237857600080fd5b50813567ffffffffffffffff81111561239057600080fd5b6020830191508360208285010111156123a857600080fd5b9250929050565b6000806000806000608086880312156123c757600080fd5b85356123d281612331565b945060208601356123e281612331565b935060408601359250606086013567ffffffffffffffff81111561240557600080fd5b61241188828901612366565b969995985093965092949392505050565b60006040828403121561243457600080fd5b50919050565b6000610100828403121561243457600080fd5b7f4e487b7100000000000000000000000000000000000000000000000000000000600052604160045260246000fd5b6040516060810167ffffffffffffffff8111828210171561249f5761249f61244d565b60405290565b604051610240810167ffffffffffffffff8111828210171561249f5761249f61244d565b604051610120810167ffffffffffffffff8111828210171561249f5761249f61244d565b604051601f82017fffffffffffffffffffffffffffffffffffffffffffffffffffffffffffffffe016810167ffffffffffffffff811182821017156125345761253461244d565b604052919050565b600067ffffffffffffffff8211156125565761255661244d565b5060051b60200190565b600082601f83011261257157600080fd5b813560206125866125818361253c565b6124ed565b82815260059290921b840181019181810190868411156125a557600080fd5b8286015b848110156125c95780356125bc81612331565b83529183019183016125a9565b509695505050505050565b6000806000806000806000806101a0898b0312156125f157600080fd5b6125fa89612356565b9750602089013567ffffffffffffffff8082111561261757600080fd5b6126238c838d01612422565b985060408b013591508082111561263957600080fd5b6126458c838d01612366565b909850965060608b013591508082111561265e57600080fd5b61266a8c838d01612366565b909650945084915061267f8c60808d0161243a565b93506101808b013591508082111561269657600080fd5b506126a38b828c01612560565b9150509295985092959890939650565b6000602082840312156126c557600080fd5b5035919050565b6000602082840312156126de57600080fd5b813567ffffffffffffffff8111156126f557600080fd5b82016101e0818503121561232a57600080fd5b60005b8381101561272357818101518382015260200161270b565b50506000910152565b60008151808452612744816020860160208601612708565b601f017fffffffffffffffffffffffffffffffffffffffffffffffffffffffffffffffe0169290920160200192915050565b60006060858352602081818501526127908285018761272c565b6040858203818701528187518084528484019150848160051b850101858a0160005b8381101561282d578683037fffffffffffffffffffffffffffffffffffffffffffffffffffffffffffffffe00185528151805173ffffffffffffffffffffffffffffffffffffffff16845288810151898501528601518684018a905261281a8a85018261272c565b95890195935050908701906001016127b2565b50909c9b505050505050505050505050565b6000806040838503121561285257600080fd5b50508035926020909101359150565b73ffffffffffffffffffffffffffffffffffffffff84168152826020820152606060408201526000612896606083018461272c565b95945050505050565b6000602082840312156128b157600080fd5b813567ffffffffffffffff8111156128c857600080fd5b82016101a0818503121561232a57600080fd5b60006060858352602081818501526128f58285018761272c565b6040858203818701528187518084528484019150848160051b850101858a0160005b8381101561282d578683037fffffffffffffffffffffffffffffffffffffffffffffffffffffffffffffffe00185528151805173ffffffffffffffffffffffffffffffffffffffff16845288810151898501528601518684018a905261297f8a85018261272c565b9589019593505090870190600101612917565b600067ffffffffffffffff8211156129ac576129ac61244d565b50601f017fffffffffffffffffffffffffffffffffffffffffffffffffffffffffffffffe01660200190565b600082601f8301126129e957600080fd5b813560206129f96125818361253c565b82815260059290921b84018101918181019086841115612a1857600080fd5b8286015b848110156125c957803567ffffffffffffffff80821115612a3d5760008081fd5b81890191506060807fffffffffffffffffffffffffffffffffffffffffffffffffffffffffffffffe0848d03011215612a765760008081fd5b612a7e61247c565b87840135612a8b81612331565b815260408481013589830152918401359183831115612aaa5760008081fd5b82850194508c603f860112612ac157600093508384fd5b888501359350612ad361258185612992565b92508383528c81858701011115612aea5760008081fd5b838186018a850137600093830189019390935291820152845250918301918301612a1c565b803560ff8116811461236157600080fd5b6000806000806000806000806000806101e08b8d031215612b4057600080fd5b612b498b612356565b995060208b013567ffffffffffffffff80821115612b6657600080fd5b612b728e838f01612422565b9a5060408d0135915080821115612b8857600080fd5b612b948e838f01612366565b909a50985060608d0135915080821115612bad57600080fd5b612bb98e838f01612366565b9098509650869150612bce8e60808f0161243a565b95506101808d0135915080821115612be557600080fd5b612bf18e838f01612560565b94506101a08d0135915080821115612c0857600080fd5b50612c158d828e016129d8565b925050612c256101c08c01612b0f565b90509295989b9194979a5092959850565b600060208284031215612c4857600080fd5b815161232a81612331565b7f4e487b7100000000000000000000000000000000000000000000000000000000600052603260045260246000fd5b60008083357fffffffffffffffffffffffffffffffffffffffffffffffffffffffffffffffe1843603018112612cb757600080fd5b830160208101925035905067ffffffffffffffff811115612cd757600080fd5b8036038213156123a857600080fd5b8183528181602085013750600060208284010152600060207fffffffffffffffffffffffffffffffffffffffffffffffffffffffffffffffe0601f840116840101905092915050565b73ffffffffffffffffffffffffffffffffffffffff83168152604060208201526000612d5b8384612c82565b604080850152612d6f608085018284612ce6565b91505060208401356060840152809150509392505050565b600060208284031215612d9957600080fd5b5051919050565b858152606060208201526000612dba606083018688612ce6565b8281036040840152612dcd818587612ce6565b98975050505050505050565b600060208284031215612deb57600080fd5b813562ffffff8116811461232a57600080fd5b7f4e487b7100000000000000000000000000000000000000000000000000000000600052601160045260246000fd5b600181815b80851115612e8657817fffffffffffffffffffffffffffffffffffffffffffffffffffffffffffffffff04821115612e6c57612e6c612dfe565b80851615612e7957918102915b93841c9390800290612e32565b509250929050565b600082612e9d5750600161032d565b81612eaa5750600061032d565b8160018114612ec05760028114612eca57612ee6565b600191505061032d565b60ff841115612edb57612edb612dfe565b50506001821b61032d565b5060208310610133831016604e8410600b8410161715612f09575081810a61032d565b612f138383612e2d565b807fffffffffffffffffffffffffffffffffffffffffffffffffffffffffffffffff04821115612f4557612f45612dfe565b029392505050565b600061232a60ff841683612e8e565b612f818282518051151582526020808201511515908301526040908101511515910152565b6020810151606083015260408101516080830152606081015160a08301526080810151612fb260c084018215159052565b5060a081015180151560e08401525060c0810151610100612fd68185018315159052565b60e08301519150610120612fed8186018415159052565b908301519150610140906130048583018415159052565b83015191506101606130198582018415159052565b908301519150610180906130308583018415159052565b83015191506101a06130458582018415159052565b9083015191506101c09061305c8583018415159052565b83015191506101e06130718582018415159052565b908301519150610200906130888583018415159052565b830151915061022061309d8582018415159052565b9083015173ffffffffffffffffffffffffffffffffffffffff16610240850152909101516102609092019190915250565b6000815180845260208085019450848260051b86018286016000805b868110156131aa578484038a52825180518552860151604087860181905281518187018190529188019160609081880190865b818110156131935785518051151584528c81015115158d8501528581015186850152848101518585015260808082015173ffffffffffffffffffffffffffffffffffffffff9081169186019190915260a0808301519086015260c0918201511690840152948b019460e09092019160010161311d565b50509c89019c9650505092860192506001016130ea565b509198975050505050505050565b600081518084526020808501945080840160005b83811015613235578151805173ffffffffffffffffffffffffffffffffffffffff908116895284820151168489015260408082015190890152606080820151908901526080808201519089015260a0908101519088015260c090960195908201906001016131cc565b509495945050505050565b60006103c0898352602061328d8185018b80518252602081015160208301526040810151604083015273ffffffffffffffffffffffffffffffffffffffff60608201511660608301525050565b61329a60a085018a612f5c565b87610320850152816103408501526132b4828501886130ce565b91508382036103608501526132c982876131b8565b848103610380860152855180825282870193509082019060005b8181101561331557845173ffffffffffffffffffffffffffffffffffffffff16835293830193918301916001016132e3565b50508481036103a0860152601b81527f4465706c6f7965642052657461696c69737420747265617375727900000000006020820152604081019c9b505050505050505050505050565b7f5072656d696e746564202400000000000000000000000000000000000000000081528183600b83013760009101600b01908152919050565b86815285602082015273ffffffffffffffffffffffffffffffffffffffff8516604082015260c0606082015260006133d260c083018661272c565b93151560808301525090151560a090910152949350505050565b600060208083526080830173ffffffffffffffffffffffffffffffffffffffff85511682850152818501516040850152604085015160608086015281815180845260a0870191508483019350600092505b808310156125c9578351825292840192600192909201919084019061343d565b60006020828403121561346f57600080fd5b813565ffffffffffff8116811461232a57600080fd5b8082018082111561032d5761032d612dfe565b805161236181612331565b8051801515811461236157600080fd5b6000606082840312156134c557600080fd5b6134cd61247c565b90506134d8826134a3565b81526134e6602083016134a3565b60208201526134f7604083016134a3565b604082015292915050565b6000610280828403121561351557600080fd5b61351d6124a5565b905061352983836134b3565b8152606082015160208201526080820151604082015260a0820151606082015261355560c083016134a3565b608082015261356660e083016134a3565b60a08201526101006135798184016134a3565b60c083015261012061358c8185016134a3565b60e084015261014061359f8186016134a3565b8385015261016092506135b38386016134a3565b8285015261018091506135c78286016134a3565b908401526101a06135d98582016134a3565b838501526101c092506135ed8386016134a3565b828501526101e091506136018286016134a3565b908401526102006136138582016134a3565b8385015261022092506136278386016134a3565b828501526136386102408601613498565b818501525050610260830151818301525092915050565b80516003811061236157600080fd5b60008060008385036103c081121561367557600080fd5b6101208082121561368557600080fd5b61368d6124c9565b9150855182526020860151602083015260408601516040830152606086015160608301526080860151608083015260a086015160a083015260c086015160c08301526136db60e08701613498565b60e08301526101008087015181840152508194506136fb87828801613502565b9350505061370c6103a0850161364f565b90509250925092565b60006103a0888352613761602084018980518252602081015160208301526040810151604083015273ffffffffffffffffffffffffffffffffffffffff60608201511660608301525050565b61376e60a0840188612f5c565b8561032084015280610340840152613788818401866130ce565b905082810361036084015261379d81856131b8565b838103610380909401939093525050602c81527f5363686564756c656420626f6f737420657870697279206f662052657461696c60208201527f697374207472656173757279000000000000000000000000000000000000000060408201526060019695505050505050565b600181811c9082168061381d57607f821691505b602082108103612434577f4e487b7100000000000000000000000000000000000000000000000000000000600052602260045260246000fd5b803561386181612331565b73ffffffffffffffffffffffffffffffffffffffff1682526020818101359083015260408082013590830152606090810135910152565b602081526138c6602082016138ac84612356565b73ffffffffffffffffffffffffffffffffffffffff169052565b60006138d460208401612356565b73ffffffffffffffffffffffffffffffffffffffff81166040840152506139016060830160408501613856565b60c083013560e083015261010060e084013581840152613922818501612356565b90506101206139488185018373ffffffffffffffffffffffffffffffffffffffff169052565b6101409150808501358285015250610160818501358185015261396d81860186612c82565b925090506101a0610180818187015261398b6101c087018585612ce6565b935061399981880188612c82565b935090507fffffffffffffffffffffffffffffffffffffffffffffffffffffffffffffffe086850301828701526139d1848483612ce6565b979650505050505050565b60006139ea61258184612992565b90508281528383830111156139fe57600080fd5b61232a836020830184612708565b600080600060608486031215613a2157600080fd5b8351925060208085015167ffffffffffffffff80821115613a4157600080fd5b818701915087601f830112613a5557600080fd5b613a638883518585016139dc565b94506040870151915080821115613a7957600080fd5b818701915087601f830112613a8d57600080fd5b8151613a9b6125818261253c565b81815260059190911b8301840190848101908a831115613aba57600080fd5b8585015b83811015613b7457805185811115613ad557600080fd5b86016060818e037fffffffffffffffffffffffffffffffffffffffffffffffffffffffffffffffe0011215613b0957600080fd5b613b1161247c565b88820151613b1e81612331565b8152604082015189820152606082015187811115613b3b57600080fd5b8083019250508d603f830112613b5057600080fd5b613b618e8a840151604085016139dc565b6040820152845250918601918601613abe565b508096505050505050509250925092565b60008083357fffffffffffffffffffffffffffffffffffffffffffffffffffffffffffffffe1843603018112613bba57600080fd5b83018035915067ffffffffffffffff821115613bd557600080fd5b6020019150368190038213156123a857600080fd5b601f821115613c3457600081815260208120601f850160051c81016020861015613c115750805b601f850160051c820191505b81811015613c3057828155600101613c1d565b5050505b505050565b815167ffffffffffffffff811115613c5357613c5361244d565b613c6781613c618454613809565b84613bea565b602080601f831160018114613cba5760008415613c845750858301515b7fffffffffffffffffffffffffffffffffffffffffffffffffffffffffffffffff600386901b1c1916600185901b178555613c30565b6000858152602081207fffffffffffffffffffffffffffffffffffffffffffffffffffffffffffffffe08616915b82811015613d0757888601518255948401946001909101908401613ce8565b5085821015613d4357878501517fffffffffffffffffffffffffffffffffffffffffffffffffffffffffffffffff600388901b60f8161c191681555b5050505050600190811b0190555056fea26469706673582212209cf71efb00fd53aa765eb4174c1c36c1faeddbb26b775738eec9ec32e06e890d64736f6c63430008150033",
    "linkReferences": {}
  },
  "methodIdentifiers": {
    "buybackDelegate()": "d3967525",
    "controller()": "f77c4791",
    "delegateAllocationsOf(uint256,uint256)": "abc603e3",
    "deployBasicProjectFor(address,(string,uint256),string,string,(uint256,uint256,uint256,uint256,uint256,uint256,uint48,uint24),address[])": "179d2ada",
    "deployPayAllocatorProjectFor(address,(string,uint256),string,string,(uint256,uint256,uint256,uint256,uint256,uint256,uint48,uint24),address[],(address,uint256,bytes)[],uint8)": "f1089241",
    "onERC721Received(address,address,uint256,bytes)": "150b7a02",
    "payParams((address,address,(address,uint256,uint256,uint256),uint256,uint256,address,uint256,uint256,string,bytes))": "d46cf171",
    "permissionIndexes(uint256)": "9483e771",
    "reconfigurationStartTimestampOf(uint256)": "560f7b03",
    "redeemParams((address,address,uint256,uint256,uint256,uint256,uint256,(address,uint256,uint256,uint256),bool,uint256,string,bytes))": "a51cfd18",
    "scheduleReconfigurationOf(uint256)": "3ce6d3e2",
    "supportsInterface(bytes4)": "01ffc9a7"
  },
  "id": 104
}