{
  "abi": [
    {
      "inputs": [
        {
          "internalType": "contract IJBController3_1",
          "name": "_controller",
          "type": "address"
        }
      ],
      "stateMutability": "nonpayable",
      "type": "constructor"
    },
    {
      "inputs": [],
      "name": "BAD_DEV_TAX_SEQUENCE",
      "type": "error"
    },
    {
      "inputs": [],
      "name": "RECONFIGURATION_ALREADY_SCHEDULED",
      "type": "error"
    },
    {
      "inputs": [],
      "name": "RECONFIGURATION_NOT_POSSIBLE",
      "type": "error"
    },
    {
      "inputs": [
        {
          "internalType": "uint256",
          "name": "",
          "type": "uint256"
        }
      ],
      "name": "buybackDelegateDataSourceOf",
      "outputs": [
        {
          "internalType": "contract IJBGenericBuybackDelegate",
          "name": "",
          "type": "address"
        }
      ],
      "stateMutability": "view",
      "type": "function"
    },
    {
      "inputs": [
        {
          "internalType": "uint256",
          "name": "",
          "type": "uint256"
        }
      ],
      "name": "buybackDelegatePermissionIndexes",
      "outputs": [
        {
          "internalType": "uint256",
          "name": "",
          "type": "uint256"
        }
      ],
      "stateMutability": "view",
      "type": "function"
    },
    {
      "inputs": [],
      "name": "controller",
      "outputs": [
        {
          "internalType": "contract IJBController3_1",
          "name": "",
          "type": "address"
        }
      ],
      "stateMutability": "view",
      "type": "function"
    },
    {
      "inputs": [
        {
          "internalType": "uint256",
          "name": "_networkId",
          "type": "uint256"
        }
      ],
      "name": "currentDevTaxPeriodNumberOf",
      "outputs": [
        {
          "internalType": "uint256",
          "name": "",
          "type": "uint256"
        }
      ],
      "stateMutability": "view",
      "type": "function"
    },
    {
      "inputs": [
        {
          "internalType": "uint256",
          "name": "",
          "type": "uint256"
        },
        {
          "internalType": "uint256",
          "name": "",
          "type": "uint256"
        }
      ],
      "name": "delegateAllocationsOf",
      "outputs": [
        {
          "internalType": "contract IJBPayDelegate3_1_1",
          "name": "delegate",
          "type": "address"
        },
        {
          "internalType": "uint256",
          "name": "amount",
          "type": "uint256"
        },
        {
          "internalType": "bytes",
          "name": "metadata",
          "type": "bytes"
        }
      ],
      "stateMutability": "view",
      "type": "function"
    },
    {
      "inputs": [
        {
          "internalType": "address",
          "name": "_operator",
          "type": "address"
        },
        {
          "components": [
            {
              "internalType": "string",
              "name": "content",
              "type": "string"
            },
            {
              "internalType": "uint256",
              "name": "domain",
              "type": "uint256"
            }
          ],
          "internalType": "struct JBProjectMetadata",
          "name": "_networkMetadata",
          "type": "tuple"
        },
        {
          "internalType": "string",
          "name": "_name",
          "type": "string"
        },
        {
          "internalType": "string",
          "name": "_symbol",
          "type": "string"
        },
        {
          "components": [
            {
              "internalType": "uint256",
              "name": "initialIssuanceRate",
              "type": "uint256"
            },
            {
              "internalType": "uint256",
              "name": "premintTokenAmount",
              "type": "uint256"
            },
            {
              "internalType": "uint256",
              "name": "generationTax",
              "type": "uint256"
            },
            {
              "internalType": "uint256",
              "name": "generationDuration",
              "type": "uint256"
            },
            {
              "internalType": "uint256",
              "name": "exitTaxRate",
              "type": "uint256"
            },
            {
              "components": [
                {
                  "internalType": "uint128",
                  "name": "rate",
                  "type": "uint128"
                },
                {
                  "internalType": "uint128",
                  "name": "startsAtOrAfter",
                  "type": "uint128"
                }
              ],
              "internalType": "struct DevTaxPeriod[]",
              "name": "devTaxPeriods",
              "type": "tuple[]"
            }
          ],
          "internalType": "struct BasicRetailistJBParams",
          "name": "_data",
          "type": "tuple"
        },
        {
          "internalType": "contract IJBPaymentTerminal[]",
          "name": "_terminals",
          "type": "address[]"
        },
        {
          "components": [
            {
              "internalType": "contract IJBGenericBuybackDelegate",
              "name": "delegate",
              "type": "address"
            },
            {
              "components": [
                {
                  "internalType": "address",
                  "name": "token",
                  "type": "address"
                },
                {
                  "internalType": "uint24",
                  "name": "fee",
                  "type": "uint24"
                },
                {
                  "internalType": "uint32",
                  "name": "secondsAgo",
                  "type": "uint32"
                },
                {
                  "internalType": "uint32",
                  "name": "delta",
                  "type": "uint32"
                }
              ],
              "internalType": "struct BuybackDelegatePool[]",
              "name": "pools",
              "type": "tuple[]"
            }
          ],
          "internalType": "struct BuybackDelegateSetup",
          "name": "_buybackDelegateSetup",
          "type": "tuple"
        }
      ],
      "name": "deployBasicNetworkFor",
      "outputs": [
        {
          "internalType": "uint256",
          "name": "networkId",
          "type": "uint256"
        }
      ],
      "stateMutability": "nonpayable",
      "type": "function"
    },
    {
      "inputs": [
        {
          "internalType": "address",
          "name": "_operator",
          "type": "address"
        },
        {
          "components": [
            {
              "internalType": "string",
              "name": "content",
              "type": "string"
            },
            {
              "internalType": "uint256",
              "name": "domain",
              "type": "uint256"
            }
          ],
          "internalType": "struct JBProjectMetadata",
          "name": "_networkMetadata",
          "type": "tuple"
        },
        {
          "internalType": "string",
          "name": "_name",
          "type": "string"
        },
        {
          "internalType": "string",
          "name": "_symbol",
          "type": "string"
        },
        {
          "components": [
            {
              "internalType": "uint256",
              "name": "initialIssuanceRate",
              "type": "uint256"
            },
            {
              "internalType": "uint256",
              "name": "premintTokenAmount",
              "type": "uint256"
            },
            {
              "internalType": "uint256",
              "name": "generationTax",
              "type": "uint256"
            },
            {
              "internalType": "uint256",
              "name": "generationDuration",
              "type": "uint256"
            },
            {
              "internalType": "uint256",
              "name": "exitTaxRate",
              "type": "uint256"
            },
            {
              "components": [
                {
                  "internalType": "uint128",
                  "name": "rate",
                  "type": "uint128"
                },
                {
                  "internalType": "uint128",
                  "name": "startsAtOrAfter",
                  "type": "uint128"
                }
              ],
              "internalType": "struct DevTaxPeriod[]",
              "name": "devTaxPeriods",
              "type": "tuple[]"
            }
          ],
          "internalType": "struct BasicRetailistJBParams",
          "name": "_data",
          "type": "tuple"
        },
        {
          "internalType": "contract IJBPaymentTerminal[]",
          "name": "_terminals",
          "type": "address[]"
        },
        {
          "components": [
            {
              "internalType": "contract IJBGenericBuybackDelegate",
              "name": "delegate",
              "type": "address"
            },
            {
              "components": [
                {
                  "internalType": "address",
                  "name": "token",
                  "type": "address"
                },
                {
                  "internalType": "uint24",
                  "name": "fee",
                  "type": "uint24"
                },
                {
                  "internalType": "uint32",
                  "name": "secondsAgo",
                  "type": "uint32"
                },
                {
                  "internalType": "uint32",
                  "name": "delta",
                  "type": "uint32"
                }
              ],
              "internalType": "struct BuybackDelegatePool[]",
              "name": "pools",
              "type": "tuple[]"
            }
          ],
          "internalType": "struct BuybackDelegateSetup",
          "name": "_buybackDelegateSetup",
          "type": "tuple"
        },
        {
          "components": [
            {
              "internalType": "contract IJBPayDelegate3_1_1",
              "name": "delegate",
              "type": "address"
            },
            {
              "internalType": "uint256",
              "name": "amount",
              "type": "uint256"
            },
            {
              "internalType": "bytes",
              "name": "metadata",
              "type": "bytes"
            }
          ],
          "internalType": "struct JBPayDelegateAllocation3_1_1[]",
          "name": "_delegateAllocations",
          "type": "tuple[]"
        },
        {
          "internalType": "uint8",
          "name": "_extraFundingCycleMetadata",
          "type": "uint8"
        }
      ],
      "name": "deployPayAllocatorNetworkFor",
      "outputs": [
        {
          "internalType": "uint256",
          "name": "networkId",
          "type": "uint256"
        }
      ],
      "stateMutability": "nonpayable",
      "type": "function"
    },
    {
      "inputs": [
        {
          "internalType": "uint256",
          "name": "_networkId",
          "type": "uint256"
        }
      ],
      "name": "devTaxPeriodsOf",
      "outputs": [
        {
          "components": [
            {
              "internalType": "uint128",
              "name": "rate",
              "type": "uint128"
            },
            {
              "internalType": "uint128",
              "name": "startsAtOrAfter",
              "type": "uint128"
            }
          ],
          "internalType": "struct DevTaxPeriod[]",
          "name": "",
          "type": "tuple[]"
        }
      ],
      "stateMutability": "view",
      "type": "function"
    },
    {
      "inputs": [
        {
          "internalType": "address",
          "name": "_operator",
          "type": "address"
        },
        {
          "internalType": "address",
          "name": "_from",
          "type": "address"
        },
        {
          "internalType": "uint256",
          "name": "_tokenId",
          "type": "uint256"
        },
        {
          "internalType": "bytes",
          "name": "_data",
          "type": "bytes"
        }
      ],
      "name": "onERC721Received",
      "outputs": [
        {
          "internalType": "bytes4",
          "name": "",
          "type": "bytes4"
        }
      ],
      "stateMutability": "view",
      "type": "function"
    },
    {
      "inputs": [
        {
          "internalType": "uint256",
          "name": "",
          "type": "uint256"
        }
      ],
      "name": "operatorPermissionIndexes",
      "outputs": [
        {
          "internalType": "uint256",
          "name": "",
          "type": "uint256"
        }
      ],
      "stateMutability": "view",
      "type": "function"
    },
    {
      "inputs": [
        {
          "components": [
            {
              "internalType": "contract IJBPaymentTerminal",
              "name": "terminal",
              "type": "address"
            },
            {
              "internalType": "address",
              "name": "payer",
              "type": "address"
            },
            {
              "components": [
                {
                  "internalType": "address",
                  "name": "token",
                  "type": "address"
                },
                {
                  "internalType": "uint256",
                  "name": "value",
                  "type": "uint256"
                },
                {
                  "internalType": "uint256",
                  "name": "decimals",
                  "type": "uint256"
                },
                {
                  "internalType": "uint256",
                  "name": "currency",
                  "type": "uint256"
                }
              ],
              "internalType": "struct JBTokenAmount",
              "name": "amount",
              "type": "tuple"
            },
            {
              "internalType": "uint256",
              "name": "projectId",
              "type": "uint256"
            },
            {
              "internalType": "uint256",
              "name": "currentFundingCycleConfiguration",
              "type": "uint256"
            },
            {
              "internalType": "address",
              "name": "beneficiary",
              "type": "address"
            },
            {
              "internalType": "uint256",
              "name": "weight",
              "type": "uint256"
            },
            {
              "internalType": "uint256",
              "name": "reservedRate",
              "type": "uint256"
            },
            {
              "internalType": "string",
              "name": "memo",
              "type": "string"
            },
            {
              "internalType": "bytes",
              "name": "metadata",
              "type": "bytes"
            }
          ],
          "internalType": "struct JBPayParamsData",
          "name": "_data",
          "type": "tuple"
        }
      ],
      "name": "payParams",
      "outputs": [
        {
          "internalType": "uint256",
          "name": "weight",
          "type": "uint256"
        },
        {
          "internalType": "string",
          "name": "memo",
          "type": "string"
        },
        {
          "components": [
            {
              "internalType": "contract IJBPayDelegate3_1_1",
              "name": "delegate",
              "type": "address"
            },
            {
              "internalType": "uint256",
              "name": "amount",
              "type": "uint256"
            },
            {
              "internalType": "bytes",
              "name": "metadata",
              "type": "bytes"
            }
          ],
          "internalType": "struct JBPayDelegateAllocation3_1_1[]",
          "name": "delegateAllocations",
          "type": "tuple[]"
        }
      ],
      "stateMutability": "view",
      "type": "function"
    },
    {
      "inputs": [
        {
          "components": [
            {
              "internalType": "contract IJBPaymentTerminal",
              "name": "terminal",
              "type": "address"
            },
            {
              "internalType": "address",
              "name": "holder",
              "type": "address"
            },
            {
              "internalType": "uint256",
              "name": "projectId",
              "type": "uint256"
            },
            {
              "internalType": "uint256",
              "name": "currentFundingCycleConfiguration",
              "type": "uint256"
            },
            {
              "internalType": "uint256",
              "name": "tokenCount",
              "type": "uint256"
            },
            {
              "internalType": "uint256",
              "name": "totalSupply",
              "type": "uint256"
            },
            {
              "internalType": "uint256",
              "name": "overflow",
              "type": "uint256"
            },
            {
              "components": [
                {
                  "internalType": "address",
                  "name": "token",
                  "type": "address"
                },
                {
                  "internalType": "uint256",
                  "name": "value",
                  "type": "uint256"
                },
                {
                  "internalType": "uint256",
                  "name": "decimals",
                  "type": "uint256"
                },
                {
                  "internalType": "uint256",
                  "name": "currency",
                  "type": "uint256"
                }
              ],
              "internalType": "struct JBTokenAmount",
              "name": "reclaimAmount",
              "type": "tuple"
            },
            {
              "internalType": "bool",
              "name": "useTotalOverflow",
              "type": "bool"
            },
            {
              "internalType": "uint256",
              "name": "redemptionRate",
              "type": "uint256"
            },
            {
              "internalType": "string",
              "name": "memo",
              "type": "string"
            },
            {
              "internalType": "bytes",
              "name": "metadata",
              "type": "bytes"
            }
          ],
          "internalType": "struct JBRedeemParamsData",
          "name": "_data",
          "type": "tuple"
        }
      ],
      "name": "redeemParams",
      "outputs": [
        {
          "internalType": "uint256",
          "name": "",
          "type": "uint256"
        },
        {
          "internalType": "string",
          "name": "",
          "type": "string"
        },
        {
          "components": [
            {
              "internalType": "contract IJBRedemptionDelegate3_1_1",
              "name": "delegate",
              "type": "address"
            },
            {
              "internalType": "uint256",
              "name": "amount",
              "type": "uint256"
            },
            {
              "internalType": "bytes",
              "name": "metadata",
              "type": "bytes"
            }
          ],
          "internalType": "struct JBRedemptionDelegateAllocation3_1_1[]",
          "name": "",
          "type": "tuple[]"
        }
      ],
      "stateMutability": "view",
      "type": "function"
    },
    {
      "inputs": [
        {
          "internalType": "uint256",
          "name": "_networkId",
          "type": "uint256"
        }
      ],
      "name": "scheduleNextDevTaxPeriodOf",
      "outputs": [],
      "stateMutability": "nonpayable",
      "type": "function"
    },
    {
      "inputs": [
        {
          "internalType": "bytes4",
          "name": "_interfaceId",
          "type": "bytes4"
        }
      ],
      "name": "supportsInterface",
      "outputs": [
        {
          "internalType": "bool",
          "name": "",
          "type": "bool"
        }
      ],
      "stateMutability": "view",
      "type": "function"
    }
  ],
  "bytecode": {
    "object": "0x60a06040523480156200001157600080fd5b5060405162004997380380620049978339810160408190526200003491620000b5565b6001600160a01b031660805260018054808201825560127fb10e2d527612073b26eecdfd717e6a320cf44b4afac2b0732d9fcbe2b7fa0cf69182015581548083018355601891015560058054918201815560005260097f036b6384b5eca791c62761152d0c79bb0604c104a5fb6f4eb0703f3154bb3db090910155620000e7565b600060208284031215620000c857600080fd5b81516001600160a01b0381168114620000e057600080fd5b9392505050565b60805161482462000173600039600081816102d0015281816103d40152818161063101528181610774015281816108820152818161099b01528181610c9d01528181610d5f01528181610f46015281816110e4015281816112fe0152818161141e0152818161152c0152818161164501528181611901015281816119d8015261219d01526148246000f3fe608060405234801561001057600080fd5b50600436106100ea5760003560e01c80639e8c513a1161008c578063abc603e311610066578063abc603e31461022c578063d46cf1711461024e578063ef8eadd514610270578063f77c4791146102cb57600080fd5b80639e8c513a146101d75780639f665eee146101ea578063a51cfd181461020a57600080fd5b8063150b7a02116100c8578063150b7a021461014d578063256b837014610191578063263950ae146101a45780634d757720146101c457600080fd5b806301ffc9a7146100ef5780630310850e1461011757806310c5f4461461012c575b600080fd5b6101026100fd366004612803565b6102f2565b60405190151581526020015b60405180910390f35b61012a61012536600461284c565b61038b565b005b61013f61013a366004612f02565b610764565b60405190815260200161010e565b61016061015b36600461303f565b6112fa565b6040517fffffffff00000000000000000000000000000000000000000000000000000000909116815260200161010e565b61013f61019f3660046130de565b61140e565b6101b76101b236600461284c565b611bdc565b60405161010e91906131e5565b61013f6101d236600461284c565b611c72565b61013f6101e536600461284c565b611c93565b61013f6101f836600461284c565b60026020526000908152604090205481565b61021d61021836600461324a565b611ca3565b60405161010e939291906132f4565b61023f61023a3660046133bd565b611d0b565b60405161010e939291906133df565b61026161025c36600461341d565b611dee565b60405161010e93929190613459565b6102a661027e36600461284c565b60036020526000908152604090205473ffffffffffffffffffffffffffffffffffffffff1681565b60405173ffffffffffffffffffffffffffffffffffffffff909116815260200161010e565b6102a67f000000000000000000000000000000000000000000000000000000000000000081565b60007fffffffff0000000000000000000000000000000000000000000000000000000082167f71700c6900000000000000000000000000000000000000000000000000000000148061038557507f150b7a02000000000000000000000000000000000000000000000000000000007fffffffff000000000000000000000000000000000000000000000000000000008316145b92915050565b6040517f1f51045300000000000000000000000000000000000000000000000000000000815260048101829052600090819073ffffffffffffffffffffffffffffffffffffffff7f00000000000000000000000000000000000000000000000000000000000000001690631f510453906024016103c060405180830381865afa15801561041c573d6000803e3d6000fd5b505050506040513d601f19601f8201168201806040525081019061044091906136d6565b5060008581526002602052604081208054939550919350918290610463906137bc565b918290555060008581526020819052604090205490915080158061048657508082145b80610495575042846060015110155b156104cc576040517fc97554fa00000000000000000000000000000000000000000000000000000000815260040160405180910390fd5b60008581526020819052604081208054849081106104ec576104ec6137f4565b6000918252602080832060408051808201825293909101546fffffffffffffffffffffffffffffffff808216855270010000000000000000000000000000000090910481168484019081528251608080820185528c810151825281860188905260c0808e01518387015260608084018a905286516102a08101885261024081018b815261026082018c905261028082018c905281528951909616868901528d87015196860196909652948401889052830187905260a0830187905292820186905260e08201869052610100820186905261012082018690526101408201869052610160820186905261018082018690526101a082018690526101c082018690526101e0820195909552610200808a015173ffffffffffffffffffffffffffffffffffffffff908116918301919091526102208a810151908301529451928a01519395507f00000000000000000000000000000000000000000000000000000000000000009094169363badbdf28938b9390610668908590612158565b60408051600080825260208201909252906106f6565b6106e36040518060c00160405280600073ffffffffffffffffffffffffffffffffffffffff168152602001600073ffffffffffffffffffffffffffffffffffffffff168152602001600081526020016000815260200160008152602001600081525090565b81526020019060019003908161067e5790505b506040518763ffffffff1660e01b815260040161071896959493929190613b0a565b6020604051808303816000875af1158015610737573d6000803e3d6000fd5b505050506040513d601f19601f8201168201806040525081019061075b9190613c10565b50505050505050565b6000806107708b612328565b90507f000000000000000000000000000000000000000000000000000000000000000073ffffffffffffffffffffffffffffffffffffffff16638b79543c6040518163ffffffff1660e01b8152600401602060405180830381865afa1580156107dd573d6000803e3d6000fd5b505050506040513d601f19601f820116820180604052508101906108019190613c29565b73ffffffffffffffffffffffffffffffffffffffff1663666d87a0308c6040518363ffffffff1660e01b815260040161083b929190613c46565b6020604051808303816000875af115801561085a573d6000803e3d6000fd5b505050506040513d601f19601f8201168201806040525081019061087e9190613c10565b91507f000000000000000000000000000000000000000000000000000000000000000073ffffffffffffffffffffffffffffffffffffffff1663619306306040518163ffffffff1660e01b8152600401602060405180830381865afa1580156108eb573d6000803e3d6000fd5b505050506040513d601f19601f8201168201806040525081019061090f9190613c29565b73ffffffffffffffffffffffffffffffffffffffff1663a7f2a70b838b8b6040518463ffffffff1660e01b815260040161094b93929190613c94565b6020604051808303816000875af115801561096a573d6000803e3d6000fd5b505050506040513d601f19601f8201168201806040525081019061098e9190613c29565b5061099982866124ae565b7f000000000000000000000000000000000000000000000000000000000000000073ffffffffffffffffffffffffffffffffffffffff1663111d861b8360405180608001604052808b60600151815260200160128c600001516109fc9190613de9565b81526040808d0151602080840191909152600092820183905281516102a081019092526102408201838152610260830184905261028083019390935291815260a08d015151909182019015610a73578c60a00151600081518110610a6257610a626137f4565b602002602001015160000151610a76565b60005b6fffffffffffffffffffffffffffffffff1681526020018c60800151612710610a9f9190613df8565b815260006020820181905260408201819052606082018190526080820181905260a0808301829052600160c0840181905260e0840183905261010084018390526101208401839052610140840183905261016084018390526101808401526101a0830191909152306101c083015260ff8a166101e0909201919091528c01515115610b4c578b60a00151600081518110610b3b57610b3b6137f4565b602002602001015160200151610b4f565b60005b604080516000808252602082019092528891610bde565b610bcb6040518060c00160405280600073ffffffffffffffffffffffffffffffffffffffff168152602001600073ffffffffffffffffffffffffffffffffffffffff168152602001600081526020016000815260200160008152602001600081525090565b815260200190600190039081610b665790505b508d6040518863ffffffff1660e01b8152600401610c029796959493929190613e0b565b6020604051808303816000875af1158015610c21573d6000803e3d6000fd5b505050506040513d601f19601f82011682018060405250810190610c459190613c10565b508451600083815260036020908152604090912080547fffffffffffffffffffffffff00000000000000000000000000000000000000001673ffffffffffffffffffffffffffffffffffffffff9384161790558801517f000000000000000000000000000000000000000000000000000000000000000090911690638ae9c07b908490610cd490601290613de9565b8e8c604051602001610ce69190613f3b565b6040516020818303038152906040526000806040518763ffffffff1660e01b8152600401610d1996959493929190613f80565b6020604051808303816000875af1158015610d38573d6000803e3d6000fd5b505050506040513d601f19601f82011682018060405250810190610d5c9190613c10565b507f000000000000000000000000000000000000000000000000000000000000000073ffffffffffffffffffffffffffffffffffffffff16632bdfe0046040518163ffffffff1660e01b8152600401602060405180830381865afa158015610dc8573d6000803e3d6000fd5b505050506040513d601f19601f82011682018060405250810190610dec9190613c29565b73ffffffffffffffffffffffffffffffffffffffff1663ad007d636040518163ffffffff1660e01b8152600401602060405180830381865afa158015610e36573d6000803e3d6000fd5b505050506040513d601f19601f82011682018060405250810190610e5a9190613c29565b73ffffffffffffffffffffffffffffffffffffffff1663529cdd2e60405180606001604052808e73ffffffffffffffffffffffffffffffffffffffff1681526020018581526020016001805480602002602001604051908101604052809291908181526020018280548015610eee57602002820191906000526020600020905b815481526020019060010190808311610eda575b50505050508152506040518263ffffffff1660e01b8152600401610f129190613fd5565b600060405180830381600087803b158015610f2c57600080fd5b505af1158015610f40573d6000803e3d6000fd5b505050507f000000000000000000000000000000000000000000000000000000000000000073ffffffffffffffffffffffffffffffffffffffff16632bdfe0046040518163ffffffff1660e01b8152600401602060405180830381865afa158015610faf573d6000803e3d6000fd5b505050506040513d601f19601f82011682018060405250810190610fd39190613c29565b73ffffffffffffffffffffffffffffffffffffffff1663ad007d636040518163ffffffff1660e01b8152600401602060405180830381865afa15801561101d573d6000803e3d6000fd5b505050506040513d601f19601f820116820180604052508101906110419190613c29565b85516040517f0f5932f000000000000000000000000000000000000000000000000000000000815273ffffffffffffffffffffffffffffffffffffffff9290921691630f5932f09161109d913090600090600590600401614046565b602060405180830381865afa1580156110ba573d6000803e3d6000fd5b505050506040513d601f19601f820116820180604052508101906110de91906140c2565b6112cf577f000000000000000000000000000000000000000000000000000000000000000073ffffffffffffffffffffffffffffffffffffffff16632bdfe0046040518163ffffffff1660e01b8152600401602060405180830381865afa15801561114d573d6000803e3d6000fd5b505050506040513d601f19601f820116820180604052508101906111719190613c29565b73ffffffffffffffffffffffffffffffffffffffff1663ad007d636040518163ffffffff1660e01b8152600401602060405180830381865afa1580156111bb573d6000803e3d6000fd5b505050506040513d601f19601f820116820180604052508101906111df9190613c29565b73ffffffffffffffffffffffffffffffffffffffff1663529cdd2e6040518060600160405280886000015173ffffffffffffffffffffffffffffffffffffffff16815260200160008152602001600580548060200260200160405190810160405280929190818152602001828054801561127857602002820191906000526020600020905b815481526020019060010190808311611264575b50505050508152506040518263ffffffff1660e01b815260040161129c9190613fd5565b600060405180830381600087803b1580156112b657600080fd5b505af11580156112ca573d6000803e3d6000fd5b505050505b6112e2828860a0015189606001516125e1565b6112ec828561273a565b509998505050505050505050565b60007f000000000000000000000000000000000000000000000000000000000000000073ffffffffffffffffffffffffffffffffffffffff16638b79543c6040518163ffffffff1660e01b8152600401602060405180830381865afa158015611367573d6000803e3d6000fd5b505050506040513d601f19601f8201168201806040525081019061138b9190613c29565b73ffffffffffffffffffffffffffffffffffffffff163373ffffffffffffffffffffffffffffffffffffffff16146113c257600080fd5b73ffffffffffffffffffffffffffffffffffffffff8516156113e357600080fd5b507f150b7a020000000000000000000000000000000000000000000000000000000095945050505050565b60008061141a89612328565b90507f000000000000000000000000000000000000000000000000000000000000000073ffffffffffffffffffffffffffffffffffffffff16638b79543c6040518163ffffffff1660e01b8152600401602060405180830381865afa158015611487573d6000803e3d6000fd5b505050506040513d601f19601f820116820180604052508101906114ab9190613c29565b73ffffffffffffffffffffffffffffffffffffffff1663666d87a0308a6040518363ffffffff1660e01b81526004016114e5929190613c46565b6020604051808303816000875af1158015611504573d6000803e3d6000fd5b505050506040513d601f19601f820116820180604052508101906115289190613c10565b91507f000000000000000000000000000000000000000000000000000000000000000073ffffffffffffffffffffffffffffffffffffffff1663619306306040518163ffffffff1660e01b8152600401602060405180830381865afa158015611595573d6000803e3d6000fd5b505050506040513d601f19601f820116820180604052508101906115b99190613c29565b73ffffffffffffffffffffffffffffffffffffffff1663a7f2a70b8389896040518463ffffffff1660e01b81526004016115f593929190613c94565b6020604051808303816000875af1158015611614573d6000803e3d6000fd5b505050506040513d601f19601f820116820180604052508101906116389190613c29565b5061164382846124ae565b7f000000000000000000000000000000000000000000000000000000000000000073ffffffffffffffffffffffffffffffffffffffff1663111d861b8360405180608001604052808960600151815260200160128a600001516116a69190613de9565b81526040808b0151602080840191909152600092820183905281516102a081019092526102408201838152610260830184905261028083019390935291815260a08b01515190918201901561171d578a60a0015160008151811061170c5761170c6137f4565b602002602001015160000151611720565b60005b6fffffffffffffffffffffffffffffffff1681526020018a608001516127106117499190613df8565b815260006020820181905260408201819052606082018190526080820181905260a0808301829052600160c0840181905260e0840183905261010084018390526101208401839052610140840183905261016084018390526101808401526101a083018290528a5173ffffffffffffffffffffffffffffffffffffffff166101c08401526101e0909201528a01515115611805578960a001516000815181106117f4576117f46137f4565b602002602001015160200151611808565b60005b604080516000808252602082019092528891611897565b6118846040518060c00160405280600073ffffffffffffffffffffffffffffffffffffffff168152602001600073ffffffffffffffffffffffffffffffffffffffff168152602001600081526020016000815260200160008152602001600081525090565b81526020019060019003908161181f5790505b508b6040518863ffffffff1660e01b81526004016118bb9796959493929190613e0b565b6020604051808303816000875af11580156118da573d6000803e3d6000fd5b505050506040513d601f19601f820116820180604052508101906118fe9190613c10565b507f000000000000000000000000000000000000000000000000000000000000000073ffffffffffffffffffffffffffffffffffffffff16638ae9c07b836012886020015161194d9190613de9565b8c8a60405160200161195f9190613f3b565b6040516020818303038152906040526000806040518763ffffffff1660e01b815260040161199296959493929190613f80565b6020604051808303816000875af11580156119b1573d6000803e3d6000fd5b505050506040513d601f19601f820116820180604052508101906119d59190613c10565b507f000000000000000000000000000000000000000000000000000000000000000073ffffffffffffffffffffffffffffffffffffffff16632bdfe0046040518163ffffffff1660e01b8152600401602060405180830381865afa158015611a41573d6000803e3d6000fd5b505050506040513d601f19601f82011682018060405250810190611a659190613c29565b73ffffffffffffffffffffffffffffffffffffffff1663ad007d636040518163ffffffff1660e01b8152600401602060405180830381865afa158015611aaf573d6000803e3d6000fd5b505050506040513d601f19601f82011682018060405250810190611ad39190613c29565b73ffffffffffffffffffffffffffffffffffffffff1663529cdd2e60405180606001604052808c73ffffffffffffffffffffffffffffffffffffffff1681526020018581526020016001805480602002602001604051908101604052809291908181526020018280548015611b6757602002820191906000526020600020905b815481526020019060010190808311611b53575b50505050508152506040518263ffffffff1660e01b8152600401611b8b9190613fd5565b600060405180830381600087803b158015611ba557600080fd5b505af1158015611bb9573d6000803e3d6000fd5b50505050611bd0828660a0015187606001516125e1565b50979650505050505050565b600081815260208181526040808320805482518185028101850190935280835260609492939192909184015b82821015611c6757600084815260209081902060408051808201909152908401546fffffffffffffffffffffffffffffffff80821683527001000000000000000000000000000000009091041681830152825260019092019101611c08565b505050509050919050565b60018181548110611c8257600080fd5b600091825260209091200154905081565b60058181548110611c8257600080fd5b604080516000808252602082019092526060908190839081611cef565b60408051606080820183526000808352602083015291810191909152815260200190600190039081611cc05790505b5060408051602081019091526000815291969195509350915050565b60046020528160005260406000208181548110611d2757600080fd5b600091825260209091206003909102018054600182015460028301805473ffffffffffffffffffffffffffffffffffffffff909316955090935090611d6b906140dd565b80601f0160208091040260200160405190810160405280929190818152602001828054611d97906140dd565b8015611de45780601f10611db957610100808354040283529160200191611de4565b820191906000526020600020905b815481529060010190602001808311611dc757829003601f168201915b5050505050905083565b60c08101356000908152600360205260408082205490517fd46cf1710000000000000000000000000000000000000000000000000000000081526060918291829173ffffffffffffffffffffffffffffffffffffffff169063d46cf17190611e5a908890600401614226565b600060405180830381865afa158015611e77573d6000803e3d6000fd5b505050506040513d6000823e601f3d9081017fffffffffffffffffffffffffffffffffffffffffffffffffffffffffffffffe0168201604052611ebd919081019061439a565b805160c089013560009081526004602090815260408083208054825181850281018501909352808352979b5094975092151595919450919291849084015b82821015611fec5760008481526020908190206040805160608101825260038602909201805473ffffffffffffffffffffffffffffffffffffffff16835260018101549383019390935260028301805492939291840191611f5b906140dd565b80601f0160208091040260200160405190810160405280929190818152602001828054611f87906140dd565b8015611fd45780601f10611fa957610100808354040283529160200191611fd4565b820191906000526020600020905b815481529060010190602001808311611fb757829003601f168201915b50505050508152505081526020019060010190611efb565b50505050905060008151905082612004576000612007565b60015b6120149060ff1682614513565b67ffffffffffffffff81111561202c5761202c61289a565b60405190808252806020026020018201604052801561207957816020015b6040805160608082018352600080835260208301529181019190915281526020019060019003908161204a5790505b50945060005b818110156120c657828181518110612099576120996137f4565b60200260200101518682815181106120b3576120b36137f4565b602090810291909101015260010161207f565b50821561210657836000815181106120e0576120e06137f4565b60200260200101518582815181106120fa576120fa6137f4565b60200260200101819052505b612114610160890189614526565b8080601f016020809104026020016040519081016040528093929190818152602001838380828437600092019190915250999b929a50969850909650505050505050565b604080516001808252818301909252606091816020015b60408051808201909152600081526060602082015281526020019060019003908161216f57905050905060007f000000000000000000000000000000000000000000000000000000000000000073ffffffffffffffffffffffffffffffffffffffff16632bdfe0046040518163ffffffff1660e01b8152600401602060405180830381865afa158015612206573d6000803e3d6000fd5b505050506040513d601f19601f8201168201806040525081019061222a9190613c29565b6040517f69e11cc500000000000000000000000000000000000000000000000000000000815260048101869052602481018590526002604482015273ffffffffffffffffffffffffffffffffffffffff91909116906369e11cc590606401600060405180830381865afa1580156122a5573d6000803e3d6000fd5b505050506040513d6000823e601f3d9081017fffffffffffffffffffffffffffffffffffffffffffffffffffffffffffffffe01682016040526122eb919081019061458b565b90506040518060400160405280600281526020018281525082600081518110612316576123166137f4565b60200260200101819052505092915050565b604080516001808252818301909252606091816020015b60408051808201909152600081526060602082015281526020019060019003908161233f57505060408051600180825281830190925291925060009190602082015b6040805160e08101825260008082526020808301829052928201819052606082018190526080820181905260a0820181905260c082015282527fffffffffffffffffffffffffffffffffffffffffffffffffffffffffffffffff9092019101816123815790505090506040518060e00160405280600015158152602001600015158152602001633b9aca008152602001600081526020018473ffffffffffffffffffffffffffffffffffffffff16815260200160008152602001600073ffffffffffffffffffffffffffffffffffffffff1681525081600181518110612469576124696137f4565b6020026020010181905250604051806040016040528060028152602001828152508260008151811061249d5761249d6137f4565b602002602001018190525050919050565b602081810151516040805160808101825260008082529381018490529081018390526060810183905290915b828110156125da57836020015181815181106124f8576124f86137f4565b6020908102919091018101518551918101516040808301516060840151845192517f7b621d3a000000000000000000000000000000000000000000000000000000008152600481018c905262ffffff909416602485015263ffffffff918216604485015216606483015273ffffffffffffffffffffffffffffffffffffffff9081166084830152919450911690637b621d3a9060a4016020604051808303816000875af11580156125ad573d6000803e3d6000fd5b505050506040513d601f19601f820116820180604052508101906125d19190613c29565b506001016124da565b5050505050565b815180156127345760005b818110156125da5780158015906126765750828461260b600184613df8565b8151811061261b5761261b6137f4565b6020026020010151602001516fffffffffffffffffffffffffffffffff166126439190614513565b848281518110612655576126556137f4565b6020026020010151602001516fffffffffffffffffffffffffffffffff1611155b156126ad576040517fc5c2978500000000000000000000000000000000000000000000000000000000815260040160405180910390fd5b8381815181106126bf576126bf6137f4565b602002602001015160008087815260200190815260200160002082815481106126ea576126ea6137f4565b6000918252602091829020835193909201516fffffffffffffffffffffffffffffffff908116700100000000000000000000000000000000029316929092179101556001016125ec565b50505050565b805160005b8181101561273457828181518110612759576127596137f4565b6020026020010151600460008681526020019081526020016000208281548110612785576127856137f4565b600091825260209182902083516003929092020180547fffffffffffffffffffffffff00000000000000000000000000000000000000001673ffffffffffffffffffffffffffffffffffffffff909216919091178155908201516001820155604082015160028201906127f890826146d4565b50505060010161273f565b60006020828403121561281557600080fd5b81357fffffffff000000000000000000000000000000000000000000000000000000008116811461284557600080fd5b9392505050565b60006020828403121561285e57600080fd5b5035919050565b73ffffffffffffffffffffffffffffffffffffffff8116811461288757600080fd5b50565b803561289581612865565b919050565b7f4e487b7100000000000000000000000000000000000000000000000000000000600052604160045260246000fd5b6040805190810167ffffffffffffffff811182821017156128ec576128ec61289a565b60405290565b60405160c0810167ffffffffffffffff811182821017156128ec576128ec61289a565b6040516080810167ffffffffffffffff811182821017156128ec576128ec61289a565b6040516060810167ffffffffffffffff811182821017156128ec576128ec61289a565b604051610240810167ffffffffffffffff811182821017156128ec576128ec61289a565b604051610120810167ffffffffffffffff811182821017156128ec576128ec61289a565b60405160e0810167ffffffffffffffff811182821017156128ec576128ec61289a565b604051601f82017fffffffffffffffffffffffffffffffffffffffffffffffffffffffffffffffe016810167ffffffffffffffff81118282101715612a0d57612a0d61289a565b604052919050565b600067ffffffffffffffff821115612a2f57612a2f61289a565b50601f017fffffffffffffffffffffffffffffffffffffffffffffffffffffffffffffffe01660200190565b6000612a6e612a6984612a15565b6129c6565b9050828152838383011115612a8257600080fd5b828260208301376000602084830101529392505050565b600082601f830112612aaa57600080fd5b61284583833560208501612a5b565b600060408284031215612acb57600080fd5b612ad36128c9565b9050813567ffffffffffffffff811115612aec57600080fd5b612af884828501612a99565b8252506020820135602082015292915050565b600067ffffffffffffffff821115612b2557612b2561289a565b5060051b60200190565b80356fffffffffffffffffffffffffffffffff8116811461289557600080fd5b600060c08284031215612b6157600080fd5b612b696128f2565b9050813581526020808301358183015260408084013581840152606084013560608401526080840135608084015260a084013567ffffffffffffffff811115612bb157600080fd5b8401601f81018613612bc257600080fd5b8035612bd0612a6982612b0b565b81815260069190911b82018401908481019088831115612bef57600080fd5b928501925b82841015612c3d5784848a031215612c0c5760008081fd5b612c146128c9565b612c1d85612b2f565b8152612c2a878601612b2f565b8188015282529284019290850190612bf4565b60a087015250939695505050505050565b600082601f830112612c5f57600080fd5b81356020612c6f612a6983612b0b565b82815260059290921b84018101918181019086841115612c8e57600080fd5b8286015b84811015612cb2578035612ca581612865565b8352918301918301612c92565b509695505050505050565b803563ffffffff8116811461289557600080fd5b60006040808385031215612ce457600080fd5b612cec6128c9565b91508235612cf981612865565b825260208381013567ffffffffffffffff811115612d1657600080fd5b8401601f81018613612d2757600080fd5b8035612d35612a6982612b0b565b81815260079190911b82018301908381019088831115612d5457600080fd5b928401925b82841015612dd3576080848a031215612d725760008081fd5b612d7a612915565b8435612d8581612865565b81528486013562ffffff81168114612d9d5760008081fd5b81870152612dac858801612cbd565b878201526060612dbd818701612cbd565b9082015282526080939093019290840190612d59565b808588015250505050505092915050565b600082601f830112612df557600080fd5b81356020612e05612a6983612b0b565b82815260059290921b84018101918181019086841115612e2457600080fd5b8286015b84811015612cb257803567ffffffffffffffff80821115612e495760008081fd5b81890191506060807fffffffffffffffffffffffffffffffffffffffffffffffffffffffffffffffe0848d03011215612e825760008081fd5b612e8a612938565b87840135612e9781612865565b815260408481013589830152918401359183831115612eb65760008081fd5b82850194508c603f860112612ecd57600093508384fd5b612edd8d8a870135838801612a5b565b908201528652505050918301918301612e28565b803560ff8116811461289557600080fd5b60008060008060008060008060006101208a8c031215612f2157600080fd5b612f2a8a61288a565b985060208a013567ffffffffffffffff80821115612f4757600080fd5b612f538d838e01612ab9565b995060408c0135915080821115612f6957600080fd5b612f758d838e01612a99565b985060608c0135915080821115612f8b57600080fd5b612f978d838e01612a99565b975060808c0135915080821115612fad57600080fd5b612fb98d838e01612b4f565b965060a08c0135915080821115612fcf57600080fd5b612fdb8d838e01612c4e565b955060c08c0135915080821115612ff157600080fd5b612ffd8d838e01612cd1565b945060e08c013591508082111561301357600080fd5b506130208c828d01612de4565b9250506130306101008b01612ef1565b90509295985092959850929598565b60008060008060006080868803121561305757600080fd5b853561306281612865565b9450602086013561307281612865565b935060408601359250606086013567ffffffffffffffff8082111561309657600080fd5b818801915088601f8301126130aa57600080fd5b8135818111156130b957600080fd5b8960208285010111156130cb57600080fd5b9699959850939650602001949392505050565b600080600080600080600060e0888a0312156130f957600080fd5b6131028861288a565b9650602088013567ffffffffffffffff8082111561311f57600080fd5b61312b8b838c01612ab9565b975060408a013591508082111561314157600080fd5b61314d8b838c01612a99565b965060608a013591508082111561316357600080fd5b61316f8b838c01612a99565b955060808a013591508082111561318557600080fd5b6131918b838c01612b4f565b945060a08a01359150808211156131a757600080fd5b6131b38b838c01612c4e565b935060c08a01359150808211156131c957600080fd5b506131d68a828b01612cd1565b91505092959891949750929550565b602080825282518282018190526000919060409081850190868401855b8281101561323d57815180516fffffffffffffffffffffffffffffffff90811686529087015116868501529284019290850190600101613202565b5091979650505050505050565b60006020828403121561325c57600080fd5b813567ffffffffffffffff81111561327357600080fd5b82016101e0818503121561284557600080fd5b60005b838110156132a1578181015183820152602001613289565b50506000910152565b600081518084526132c2816020860160208601613286565b601f017fffffffffffffffffffffffffffffffffffffffffffffffffffffffffffffffe0169290920160200192915050565b600060608583526020818185015261330e828501876132aa565b6040858203818701528187518084528484019150848160051b850101858a0160005b838110156133ab578683037fffffffffffffffffffffffffffffffffffffffffffffffffffffffffffffffe00185528151805173ffffffffffffffffffffffffffffffffffffffff16845288810151898501528601518684018a90526133988a8501826132aa565b9589019593505090870190600101613330565b50909c9b505050505050505050505050565b600080604083850312156133d057600080fd5b50508035926020909101359150565b73ffffffffffffffffffffffffffffffffffffffff8416815282602082015260606040820152600061341460608301846132aa565b95945050505050565b60006020828403121561342f57600080fd5b813567ffffffffffffffff81111561344657600080fd5b82016101a0818503121561284557600080fd5b6000606085835260208181850152613473828501876132aa565b6040858203818701528187518084528484019150848160051b850101858a0160005b838110156133ab578683037fffffffffffffffffffffffffffffffffffffffffffffffffffffffffffffffe00185528151805173ffffffffffffffffffffffffffffffffffffffff16845288810151898501528601518684018a90526134fd8a8501826132aa565b9589019593505090870190600101613495565b805161289581612865565b8051801515811461289557600080fd5b60006060828403121561353d57600080fd5b613545612938565b90506135508261351b565b815261355e6020830161351b565b602082015261356f6040830161351b565b604082015292915050565b6000610280828403121561358d57600080fd5b61359561295b565b90506135a1838361352b565b8152606082015160208201526080820151604082015260a082015160608201526135cd60c0830161351b565b60808201526135de60e0830161351b565b60a08201526101006135f181840161351b565b60c083015261012061360481850161351b565b60e084015261014061361781860161351b565b83850152610160925061362b83860161351b565b82850152610180915061363f82860161351b565b908401526101a061365185820161351b565b838501526101c0925061366583860161351b565b828501526101e0915061367982860161351b565b9084015261020061368b85820161351b565b83850152610220925061369f83860161351b565b828501526136b06102408601613510565b818501525050610260830151818301525092915050565b80516003811061289557600080fd5b60008060008385036103c08112156136ed57600080fd5b610120808212156136fd57600080fd5b61370561297f565b9150855182526020860151602083015260408601516040830152606086015160608301526080860151608083015260a086015160a083015260c086015160c083015261375360e08701613510565b60e08301526101008087015181840152508194506137738782880161357a565b935050506137846103a085016136c7565b90509250925092565b7f4e487b7100000000000000000000000000000000000000000000000000000000600052601160045260246000fd5b60007fffffffffffffffffffffffffffffffffffffffffffffffffffffffffffffffff82036137ed576137ed61378d565b5060010190565b7f4e487b7100000000000000000000000000000000000000000000000000000000600052603260045260246000fd5b6138488282518051151582526020808201511515908301526040908101511515910152565b6020810151606083015260408101516080830152606081015160a0830152608081015161387960c084018215159052565b5060a081015180151560e08401525060c081015161010061389d8185018315159052565b60e083015191506101206138b48186018415159052565b908301519150610140906138cb8583018415159052565b83015191506101606138e08582018415159052565b908301519150610180906138f78583018415159052565b83015191506101a061390c8582018415159052565b9083015191506101c0906139238583018415159052565b83015191506101e06139388582018415159052565b9083015191506102009061394f8583018415159052565b83015191506102206139648582018415159052565b9083015173ffffffffffffffffffffffffffffffffffffffff16610240850152909101516102609092019190915250565b600081518084526020808501808196508360051b810191508286016000805b86811015613a74578385038a52825180518652860151604087870181905281518188018190529188019160609081890190865b81811015613a5d5785518051151584528c81015115158d8501528581015186850152848101518585015260808082015173ffffffffffffffffffffffffffffffffffffffff9081169186019190915260a0808301519086015260c0918201511690840152948b019460e0909201916001016139e7565b50509c89019c9750505092860192506001016139b4565b509298975050505050505050565b600081518084526020808501945080840160005b83811015613aff578151805173ffffffffffffffffffffffffffffffffffffffff908116895284820151168489015260408082015190890152606080820151908901526080808201519089015260a0908101519088015260c09096019590820190600101613a96565b509495945050505050565b60006103a0888352613b56602084018980518252602081015160208301526040810151604083015273ffffffffffffffffffffffffffffffffffffffff60608201511660608301525050565b613b6360a0840188613823565b6fffffffffffffffffffffffffffffffff861661032084015280610340840152613b8f81840186613995565b9050828103610360840152613ba48185613a82565b838103610380909401939093525050603281527f5363686564756c6564206e657874206465762074617820706572696f64206f6660208201527f2052657461696c697374206e6574776f726b000000000000000000000000000060408201526060019695505050505050565b600060208284031215613c2257600080fd5b5051919050565b600060208284031215613c3b57600080fd5b815161284581612865565b73ffffffffffffffffffffffffffffffffffffffff831681526040602082015260008251604080840152613c7d60808401826132aa565b905060208401516060840152809150509392505050565b838152606060208201526000613cad60608301856132aa565b8281036040840152613cbf81856132aa565b9695505050505050565b600181815b80851115613d2257817fffffffffffffffffffffffffffffffffffffffffffffffffffffffffffffffff04821115613d0857613d0861378d565b80851615613d1557918102915b93841c9390800290613cce565b509250929050565b600082613d3957506001610385565b81613d4657506000610385565b8160018114613d5c5760028114613d6657613d82565b6001915050610385565b60ff841115613d7757613d7761378d565b50506001821b610385565b5060208310610133831016604e8410600b8410161715613da5575081810a610385565b613daf8383613cc9565b807fffffffffffffffffffffffffffffffffffffffffffffffffffffffffffffffff04821115613de157613de161378d565b029392505050565b600061284560ff841683613d2a565b818103818111156103855761038561378d565b60006103c08983526020613e588185018b80518252602081015160208301526040810151604083015273ffffffffffffffffffffffffffffffffffffffff60608201511660608301525050565b613e6560a085018a613823565b6fffffffffffffffffffffffffffffffff881661032085015281610340850152613e9182850188613995565b9150838203610360850152613ea68287613a82565b848103610380860152855180825282870193509082019060005b81811015613ef257845173ffffffffffffffffffffffffffffffffffffffff1683529383019391830191600101613ec0565b50508481036103a0860152601a81527f4465706c6f7965642052657461696c697374206e6574776f726b0000000000006020820152604081019c9b505050505050505050505050565b7f5072656d696e7465642024000000000000000000000000000000000000000000815260008251613f7381600b850160208701613286565b91909101600b0192915050565b86815285602082015273ffffffffffffffffffffffffffffffffffffffff8516604082015260c060608201526000613fbb60c08301866132aa565b93151560808301525090151560a090910152949350505050565b600060208083526080830173ffffffffffffffffffffffffffffffffffffffff85511682850152818501516040850152604085015160608086015281815180845260a0870191508483019350600092505b80831015612cb25783518252928401926001929092019190840190614026565b60006080820173ffffffffffffffffffffffffffffffffffffffff808816845260208188168186015286604086015260806060860152829150855480845260a0860192508660005281600020935060005b818110156140b357845484526001948501949383019301614097565b50919998505050505050505050565b6000602082840312156140d457600080fd5b6128458261351b565b600181811c908216806140f157607f821691505b60208210810361412a577f4e487b7100000000000000000000000000000000000000000000000000000000600052602260045260246000fd5b50919050565b803561413b81612865565b73ffffffffffffffffffffffffffffffffffffffff1682526020818101359083015260408082013590830152606090810135910152565b60008083357fffffffffffffffffffffffffffffffffffffffffffffffffffffffffffffffe18436030181126141a757600080fd5b830160208101925035905067ffffffffffffffff8111156141c757600080fd5b8036038213156141d657600080fd5b9250929050565b8183528181602085013750600060208284010152600060207fffffffffffffffffffffffffffffffffffffffffffffffffffffffffffffffe0601f840116840101905092915050565b602081526142546020820161423a8461288a565b73ffffffffffffffffffffffffffffffffffffffff169052565b60006142626020840161288a565b73ffffffffffffffffffffffffffffffffffffffff811660408401525061428f6060830160408501614130565b60c083013560e083015261010060e0840135818401526142b081850161288a565b90506101206142d68185018373ffffffffffffffffffffffffffffffffffffffff169052565b610140915080850135828501525061016081850135818501526142fb81860186614172565b925090506101a061018081818701526143196101c0870185856141dd565b935061432781880188614172565b935090507fffffffffffffffffffffffffffffffffffffffffffffffffffffffffffffffe0868503018287015261435f8484836141dd565b979650505050505050565b6000614378612a6984612a15565b905082815283838301111561438c57600080fd5b612845836020830184613286565b6000806000606084860312156143af57600080fd5b8351925060208085015167ffffffffffffffff808211156143cf57600080fd5b818701915087601f8301126143e357600080fd5b6143f188835185850161436a565b9450604087015191508082111561440757600080fd5b818701915087601f83011261441b57600080fd5b8151614429612a6982612b0b565b81815260059190911b8301840190848101908a83111561444857600080fd5b8585015b838110156145025780518581111561446357600080fd5b86016060818e037fffffffffffffffffffffffffffffffffffffffffffffffffffffffffffffffe001121561449757600080fd5b61449f612938565b888201516144ac81612865565b81526040820151898201526060820151878111156144c957600080fd5b8083019250508d603f8301126144de57600080fd5b6144ef8e8a8401516040850161436a565b604082015284525091860191860161444c565b508096505050505050509250925092565b808201808211156103855761038561378d565b60008083357fffffffffffffffffffffffffffffffffffffffffffffffffffffffffffffffe184360301811261455b57600080fd5b83018035915067ffffffffffffffff82111561457657600080fd5b6020019150368190038213156141d657600080fd5b6000602080838503121561459e57600080fd5b825167ffffffffffffffff8111156145b557600080fd5b8301601f810185136145c657600080fd5b80516145d4612a6982612b0b565b81815260e091820283018401918482019190888411156145f357600080fd5b938501935b83851015611bd05780858a0312156146105760008081fd5b6146186129a3565b6146218661351b565b815261462e87870161351b565b81880152604086810151908201526060808701519082015260808087015161465581612865565b9082015260a0868101519082015260c08087015161467281612865565b90820152835293840193918501916145f8565b601f8211156146cf57600081815260208120601f850160051c810160208610156146ac5750805b601f850160051c820191505b818110156146cb578281556001016146b8565b5050505b505050565b815167ffffffffffffffff8111156146ee576146ee61289a565b614702816146fc84546140dd565b84614685565b602080601f831160018114614755576000841561471f5750858301515b7fffffffffffffffffffffffffffffffffffffffffffffffffffffffffffffffff600386901b1c1916600185901b1785556146cb565b6000858152602081207fffffffffffffffffffffffffffffffffffffffffffffffffffffffffffffffe08616915b828110156147a257888601518255948401946001909101908401614783565b50858210156147de57878501517fffffffffffffffffffffffffffffffffffffffffffffffffffffffffffffffff600388901b60f8161c191681555b5050505050600190811b0190555056fea2646970667358221220b6f8f1cc6c10ba232d307cf48dd466dfe334557de2de04905f4ae10cd8d737d164736f6c63430008150033",
    "linkReferences": {}
  },
  "methodIdentifiers": {
    "buybackDelegateDataSourceOf(uint256)": "ef8eadd5",
    "buybackDelegatePermissionIndexes(uint256)": "9e8c513a",
    "controller()": "f77c4791",
    "currentDevTaxPeriodNumberOf(uint256)": "9f665eee",
    "delegateAllocationsOf(uint256,uint256)": "abc603e3",
    "deployBasicNetworkFor(address,(string,uint256),string,string,(uint256,uint256,uint256,uint256,uint256,(uint128,uint128)[]),address[],(address,(address,uint24,uint32,uint32)[]))": "256b8370",
    "deployPayAllocatorNetworkFor(address,(string,uint256),string,string,(uint256,uint256,uint256,uint256,uint256,(uint128,uint128)[]),address[],(address,(address,uint24,uint32,uint32)[]),(address,uint256,bytes)[],uint8)": "10c5f446",
    "devTaxPeriodsOf(uint256)": "263950ae",
    "onERC721Received(address,address,uint256,bytes)": "150b7a02",
    "operatorPermissionIndexes(uint256)": "4d757720",
    "payParams((address,address,(address,uint256,uint256,uint256),uint256,uint256,address,uint256,uint256,string,bytes))": "d46cf171",
    "redeemParams((address,address,uint256,uint256,uint256,uint256,uint256,(address,uint256,uint256,uint256),bool,uint256,string,bytes))": "a51cfd18",
    "scheduleNextDevTaxPeriodOf(uint256)": "0310850e",
    "supportsInterface(bytes4)": "01ffc9a7"
  },
  "id": 104
}