{
  "abi": [
    {
      "inputs": [
        {
          "internalType": "contract IJBController3_1",
          "name": "_controller",
          "type": "address"
        }
      ],
      "stateMutability": "nonpayable",
      "type": "constructor"
    },
    {
      "inputs": [],
      "name": "BAD_DEV_TAX_SEQUENCE",
      "type": "error"
    },
    {
      "inputs": [],
      "name": "RECONFIGURATION_ALREADY_SCHEDULED",
      "type": "error"
    },
    {
      "inputs": [],
      "name": "RECONFIGURATION_NOT_POSSIBLE",
      "type": "error"
    },
    {
      "inputs": [
        {
          "internalType": "uint256",
          "name": "",
          "type": "uint256"
        }
      ],
      "name": "buybackDelegateDataSourceOf",
      "outputs": [
        {
          "internalType": "contract IJBGenericBuybackDelegate",
          "name": "",
          "type": "address"
        }
      ],
      "stateMutability": "view",
      "type": "function"
    },
    {
      "inputs": [
        {
          "internalType": "uint256",
          "name": "",
          "type": "uint256"
        }
      ],
      "name": "buybackDelegatePermissionIndexes",
      "outputs": [
        {
          "internalType": "uint256",
          "name": "",
          "type": "uint256"
        }
      ],
      "stateMutability": "view",
      "type": "function"
    },
    {
      "inputs": [],
      "name": "controller",
      "outputs": [
        {
          "internalType": "contract IJBController3_1",
          "name": "",
          "type": "address"
        }
      ],
      "stateMutability": "view",
      "type": "function"
    },
    {
      "inputs": [
        {
          "internalType": "uint256",
          "name": "_networkId",
          "type": "uint256"
        }
      ],
      "name": "currentDevTaxPeriodNumberOf",
      "outputs": [
        {
          "internalType": "uint256",
          "name": "",
          "type": "uint256"
        }
      ],
      "stateMutability": "view",
      "type": "function"
    },
    {
      "inputs": [
        {
          "internalType": "uint256",
          "name": "",
          "type": "uint256"
        },
        {
          "internalType": "uint256",
          "name": "",
          "type": "uint256"
        }
      ],
      "name": "delegateAllocationsOf",
      "outputs": [
        {
          "internalType": "contract IJBPayDelegate3_1_1",
          "name": "delegate",
          "type": "address"
        },
        {
          "internalType": "uint256",
          "name": "amount",
          "type": "uint256"
        },
        {
          "internalType": "bytes",
          "name": "metadata",
          "type": "bytes"
        }
      ],
      "stateMutability": "view",
      "type": "function"
    },
    {
      "inputs": [
        {
          "internalType": "address",
          "name": "_operator",
          "type": "address"
        },
        {
          "components": [
            {
              "internalType": "string",
              "name": "content",
              "type": "string"
            },
            {
              "internalType": "uint256",
              "name": "domain",
              "type": "uint256"
            }
          ],
          "internalType": "struct JBProjectMetadata",
          "name": "_networkMetadata",
          "type": "tuple"
        },
        {
          "internalType": "string",
          "name": "_name",
          "type": "string"
        },
        {
          "internalType": "string",
          "name": "_symbol",
          "type": "string"
        },
        {
          "components": [
            {
              "internalType": "uint256",
              "name": "initialIssuanceRate",
              "type": "uint256"
            },
            {
              "internalType": "uint256",
              "name": "premintTokenAmount",
              "type": "uint256"
            },
            {
              "internalType": "uint256",
              "name": "generationTax",
              "type": "uint256"
            },
            {
              "internalType": "uint256",
              "name": "generationDuration",
              "type": "uint256"
            },
            {
              "internalType": "uint256",
              "name": "exitTaxRate",
              "type": "uint256"
            },
            {
              "components": [
                {
                  "internalType": "uint128",
                  "name": "rate",
                  "type": "uint128"
                },
                {
                  "internalType": "uint128",
                  "name": "startsAtOrAfter",
                  "type": "uint128"
                }
              ],
              "internalType": "struct DevTaxPeriod[]",
              "name": "devTaxPeriods",
              "type": "tuple[]"
            },
            {
              "internalType": "uint24",
              "name": "poolFee",
              "type": "uint24"
            }
          ],
          "internalType": "struct BasicRetailistJBParams",
          "name": "_data",
          "type": "tuple"
        },
        {
          "internalType": "contract IJBPaymentTerminal[]",
          "name": "_terminals",
          "type": "address[]"
        },
        {
          "internalType": "contract IJBGenericBuybackDelegate",
          "name": "_buybackDelegate",
          "type": "address"
        }
      ],
      "name": "deployBasicNetworkFor",
      "outputs": [
        {
          "internalType": "uint256",
          "name": "networkId",
          "type": "uint256"
        }
      ],
      "stateMutability": "nonpayable",
      "type": "function"
    },
    {
      "inputs": [
        {
          "internalType": "address",
          "name": "_operator",
          "type": "address"
        },
        {
          "components": [
            {
              "internalType": "string",
              "name": "content",
              "type": "string"
            },
            {
              "internalType": "uint256",
              "name": "domain",
              "type": "uint256"
            }
          ],
          "internalType": "struct JBProjectMetadata",
          "name": "_networkMetadata",
          "type": "tuple"
        },
        {
          "internalType": "string",
          "name": "_name",
          "type": "string"
        },
        {
          "internalType": "string",
          "name": "_symbol",
          "type": "string"
        },
        {
          "components": [
            {
              "internalType": "uint256",
              "name": "initialIssuanceRate",
              "type": "uint256"
            },
            {
              "internalType": "uint256",
              "name": "premintTokenAmount",
              "type": "uint256"
            },
            {
              "internalType": "uint256",
              "name": "generationTax",
              "type": "uint256"
            },
            {
              "internalType": "uint256",
              "name": "generationDuration",
              "type": "uint256"
            },
            {
              "internalType": "uint256",
              "name": "exitTaxRate",
              "type": "uint256"
            },
            {
              "components": [
                {
                  "internalType": "uint128",
                  "name": "rate",
                  "type": "uint128"
                },
                {
                  "internalType": "uint128",
                  "name": "startsAtOrAfter",
                  "type": "uint128"
                }
              ],
              "internalType": "struct DevTaxPeriod[]",
              "name": "devTaxPeriods",
              "type": "tuple[]"
            },
            {
              "internalType": "uint24",
              "name": "poolFee",
              "type": "uint24"
            }
          ],
          "internalType": "struct BasicRetailistJBParams",
          "name": "_data",
          "type": "tuple"
        },
        {
          "internalType": "contract IJBPaymentTerminal[]",
          "name": "_terminals",
          "type": "address[]"
        },
        {
          "internalType": "contract IJBGenericBuybackDelegate",
          "name": "_buybackDelegate",
          "type": "address"
        },
        {
          "components": [
            {
              "internalType": "contract IJBPayDelegate3_1_1",
              "name": "delegate",
              "type": "address"
            },
            {
              "internalType": "uint256",
              "name": "amount",
              "type": "uint256"
            },
            {
              "internalType": "bytes",
              "name": "metadata",
              "type": "bytes"
            }
          ],
          "internalType": "struct JBPayDelegateAllocation3_1_1[]",
          "name": "_delegateAllocations",
          "type": "tuple[]"
        },
        {
          "internalType": "uint8",
          "name": "_extraFundingCycleMetadata",
          "type": "uint8"
        }
      ],
      "name": "deployPayAllocatorNetworkFor",
      "outputs": [
        {
          "internalType": "uint256",
          "name": "networkId",
          "type": "uint256"
        }
      ],
      "stateMutability": "nonpayable",
      "type": "function"
    },
    {
      "inputs": [
        {
          "internalType": "uint256",
          "name": "_networkId",
          "type": "uint256"
        }
      ],
      "name": "devTaxPeriodsOf",
      "outputs": [
        {
          "components": [
            {
              "internalType": "uint128",
              "name": "rate",
              "type": "uint128"
            },
            {
              "internalType": "uint128",
              "name": "startsAtOrAfter",
              "type": "uint128"
            }
          ],
          "internalType": "struct DevTaxPeriod[]",
          "name": "",
          "type": "tuple[]"
        }
      ],
      "stateMutability": "view",
      "type": "function"
    },
    {
      "inputs": [
        {
          "internalType": "address",
          "name": "_operator",
          "type": "address"
        },
        {
          "internalType": "address",
          "name": "_from",
          "type": "address"
        },
        {
          "internalType": "uint256",
          "name": "_tokenId",
          "type": "uint256"
        },
        {
          "internalType": "bytes",
          "name": "_data",
          "type": "bytes"
        }
      ],
      "name": "onERC721Received",
      "outputs": [
        {
          "internalType": "bytes4",
          "name": "",
          "type": "bytes4"
        }
      ],
      "stateMutability": "view",
      "type": "function"
    },
    {
      "inputs": [
        {
          "internalType": "uint256",
          "name": "",
          "type": "uint256"
        }
      ],
      "name": "operatorPermissionIndexes",
      "outputs": [
        {
          "internalType": "uint256",
          "name": "",
          "type": "uint256"
        }
      ],
      "stateMutability": "view",
      "type": "function"
    },
    {
      "inputs": [
        {
          "components": [
            {
              "internalType": "contract IJBPaymentTerminal",
              "name": "terminal",
              "type": "address"
            },
            {
              "internalType": "address",
              "name": "payer",
              "type": "address"
            },
            {
              "components": [
                {
                  "internalType": "address",
                  "name": "token",
                  "type": "address"
                },
                {
                  "internalType": "uint256",
                  "name": "value",
                  "type": "uint256"
                },
                {
                  "internalType": "uint256",
                  "name": "decimals",
                  "type": "uint256"
                },
                {
                  "internalType": "uint256",
                  "name": "currency",
                  "type": "uint256"
                }
              ],
              "internalType": "struct JBTokenAmount",
              "name": "amount",
              "type": "tuple"
            },
            {
              "internalType": "uint256",
              "name": "projectId",
              "type": "uint256"
            },
            {
              "internalType": "uint256",
              "name": "currentFundingCycleConfiguration",
              "type": "uint256"
            },
            {
              "internalType": "address",
              "name": "beneficiary",
              "type": "address"
            },
            {
              "internalType": "uint256",
              "name": "weight",
              "type": "uint256"
            },
            {
              "internalType": "uint256",
              "name": "reservedRate",
              "type": "uint256"
            },
            {
              "internalType": "string",
              "name": "memo",
              "type": "string"
            },
            {
              "internalType": "bytes",
              "name": "metadata",
              "type": "bytes"
            }
          ],
          "internalType": "struct JBPayParamsData",
          "name": "_data",
          "type": "tuple"
        }
      ],
      "name": "payParams",
      "outputs": [
        {
          "internalType": "uint256",
          "name": "weight",
          "type": "uint256"
        },
        {
          "internalType": "string",
          "name": "memo",
          "type": "string"
        },
        {
          "components": [
            {
              "internalType": "contract IJBPayDelegate3_1_1",
              "name": "delegate",
              "type": "address"
            },
            {
              "internalType": "uint256",
              "name": "amount",
              "type": "uint256"
            },
            {
              "internalType": "bytes",
              "name": "metadata",
              "type": "bytes"
            }
          ],
          "internalType": "struct JBPayDelegateAllocation3_1_1[]",
          "name": "delegateAllocations",
          "type": "tuple[]"
        }
      ],
      "stateMutability": "view",
      "type": "function"
    },
    {
      "inputs": [
        {
          "components": [
            {
              "internalType": "contract IJBPaymentTerminal",
              "name": "terminal",
              "type": "address"
            },
            {
              "internalType": "address",
              "name": "holder",
              "type": "address"
            },
            {
              "internalType": "uint256",
              "name": "projectId",
              "type": "uint256"
            },
            {
              "internalType": "uint256",
              "name": "currentFundingCycleConfiguration",
              "type": "uint256"
            },
            {
              "internalType": "uint256",
              "name": "tokenCount",
              "type": "uint256"
            },
            {
              "internalType": "uint256",
              "name": "totalSupply",
              "type": "uint256"
            },
            {
              "internalType": "uint256",
              "name": "overflow",
              "type": "uint256"
            },
            {
              "components": [
                {
                  "internalType": "address",
                  "name": "token",
                  "type": "address"
                },
                {
                  "internalType": "uint256",
                  "name": "value",
                  "type": "uint256"
                },
                {
                  "internalType": "uint256",
                  "name": "decimals",
                  "type": "uint256"
                },
                {
                  "internalType": "uint256",
                  "name": "currency",
                  "type": "uint256"
                }
              ],
              "internalType": "struct JBTokenAmount",
              "name": "reclaimAmount",
              "type": "tuple"
            },
            {
              "internalType": "bool",
              "name": "useTotalOverflow",
              "type": "bool"
            },
            {
              "internalType": "uint256",
              "name": "redemptionRate",
              "type": "uint256"
            },
            {
              "internalType": "string",
              "name": "memo",
              "type": "string"
            },
            {
              "internalType": "bytes",
              "name": "metadata",
              "type": "bytes"
            }
          ],
          "internalType": "struct JBRedeemParamsData",
          "name": "_data",
          "type": "tuple"
        }
      ],
      "name": "redeemParams",
      "outputs": [
        {
          "internalType": "uint256",
          "name": "",
          "type": "uint256"
        },
        {
          "internalType": "string",
          "name": "",
          "type": "string"
        },
        {
          "components": [
            {
              "internalType": "contract IJBRedemptionDelegate3_1_1",
              "name": "delegate",
              "type": "address"
            },
            {
              "internalType": "uint256",
              "name": "amount",
              "type": "uint256"
            },
            {
              "internalType": "bytes",
              "name": "metadata",
              "type": "bytes"
            }
          ],
          "internalType": "struct JBRedemptionDelegateAllocation3_1_1[]",
          "name": "",
          "type": "tuple[]"
        }
      ],
      "stateMutability": "view",
      "type": "function"
    },
    {
      "inputs": [
        {
          "internalType": "uint256",
          "name": "_networkId",
          "type": "uint256"
        }
      ],
      "name": "scheduleNextDevTaxPeriodOf",
      "outputs": [],
      "stateMutability": "nonpayable",
      "type": "function"
    },
    {
      "inputs": [
        {
          "internalType": "bytes4",
          "name": "_interfaceId",
          "type": "bytes4"
        }
      ],
      "name": "supportsInterface",
      "outputs": [
        {
          "internalType": "bool",
          "name": "",
          "type": "bool"
        }
      ],
      "stateMutability": "view",
      "type": "function"
    }
  ],
  "bytecode": {
    "object": "0x60a06040523480156200001157600080fd5b5060405162004a1538038062004a158339810160408190526200003491620000b5565b6001600160a01b031660805260018054808201825560127fb10e2d527612073b26eecdfd717e6a320cf44b4afac2b0732d9fcbe2b7fa0cf69182015581548083018355601891015560058054918201815560005260097f036b6384b5eca791c62761152d0c79bb0604c104a5fb6f4eb0703f3154bb3db090910155620000e7565b600060208284031215620000c857600080fd5b81516001600160a01b0381168114620000e057600080fd5b9392505050565b6080516148a262000173600039600081816102d0015281816103d401528181610630015281816107730152818161088101528181610b3201528181610ded01528181610ec4015281816110cc015281816112a3015281816113b1015281816116620152818161196101528181611a3801528181611c1f01528181611da1015261257e01526148a26000f3fe608060405234801561001057600080fd5b50600436106100ea5760003560e01c80639e8c513a1161008c578063abc603e311610066578063abc603e31461022c578063d46cf1711461024e578063ef8eadd514610270578063f77c4791146102cb57600080fd5b80639e8c513a146101d75780639f665eee146101ea578063a51cfd181461020a57600080fd5b8063150b7a02116100c8578063150b7a021461014d578063263950ae146101915780634d757720146101b1578063522aa551146101c457600080fd5b806301ffc9a7146100ef5780630310850e146101175780630a801f471461012c575b600080fd5b6101026100fd3660046129ea565b6102f2565b60405190151581526020015b60405180910390f35b61012a610125366004612a33565b61038b565b005b61013f61013a366004612e8a565b610763565b60405190815260200161010e565b61016061015b366004612f7d565b6110c8565b6040517fffffffff00000000000000000000000000000000000000000000000000000000909116815260200161010e565b6101a461019f366004612a33565b6111dc565b60405161010e919061301c565b61013f6101bf366004612a33565b611272565b61013f6101d236600461319f565b611293565b61013f6101e5366004612a33565b612074565b61013f6101f8366004612a33565b60026020526000908152604090205481565b61021d6102183660046132c8565b612084565b60405161010e93929190613372565b61023f61023a36600461343b565b6120ec565b60405161010e9392919061345d565b61026161025c36600461349b565b6121cf565b60405161010e939291906134d7565b6102a661027e366004612a33565b60036020526000908152604090205473ffffffffffffffffffffffffffffffffffffffff1681565b60405173ffffffffffffffffffffffffffffffffffffffff909116815260200161010e565b6102a67f000000000000000000000000000000000000000000000000000000000000000081565b60007fffffffff0000000000000000000000000000000000000000000000000000000082167f71700c6900000000000000000000000000000000000000000000000000000000148061038557507f150b7a02000000000000000000000000000000000000000000000000000000007fffffffff000000000000000000000000000000000000000000000000000000008316145b92915050565b6040517f1f51045300000000000000000000000000000000000000000000000000000000815260048101829052600090819073ffffffffffffffffffffffffffffffffffffffff7f00000000000000000000000000000000000000000000000000000000000000001690631f510453906024016103c060405180830381865afa15801561041c573d6000803e3d6000fd5b505050506040513d601f19601f820116820180604052508101906104409190613754565b50600085815260026020526040812080549395509193509182906104639061383a565b918290555060008581526020819052604090205490915080158061048657508082145b806104945750428460600151115b156104cb576040517fc97554fa00000000000000000000000000000000000000000000000000000000815260040160405180910390fd5b60008581526020819052604081208054849081106104eb576104eb613872565b6000918252602080832060408051808201825293909101546fffffffffffffffffffffffffffffffff808216855270010000000000000000000000000000000090910481168484019081528251608080820185528c810151825281860188905260c0808e01518387015260608084018a905286516102a08101885261024081018b815261026082018c905261028082018c905281528951909616868901528d87015196860196909652948401889052830187905260a0830187905292820186905260e08201869052610100820186905261012082018690526101408201869052610160820186905261018082018690526101a082018690526101c082018690526101e0820195909552610200808a015173ffffffffffffffffffffffffffffffffffffffff908116918301919091526102208a810151908301529451928a01519395507f00000000000000000000000000000000000000000000000000000000000000009094169363badbdf28938b9390610667908590612539565b60408051600080825260208201909252906106f5565b6106e26040518060c00160405280600073ffffffffffffffffffffffffffffffffffffffff168152602001600073ffffffffffffffffffffffffffffffffffffffff168152602001600081526020016000815260200160008152602001600081525090565b81526020019060019003908161067d5790505b506040518763ffffffff1660e01b815260040161071796959493929190613b88565b6020604051808303816000875af1158015610736573d6000803e3d6000fd5b505050506040513d601f19601f8201168201806040525081019061075a9190613c8e565b50505050505050565b60008061076f89612709565b90507f000000000000000000000000000000000000000000000000000000000000000073ffffffffffffffffffffffffffffffffffffffff16638b79543c6040518163ffffffff1660e01b8152600401602060405180830381865afa1580156107dc573d6000803e3d6000fd5b505050506040513d601f19601f820116820180604052508101906108009190613ca7565b73ffffffffffffffffffffffffffffffffffffffff1663666d87a0308a6040518363ffffffff1660e01b815260040161083a929190613cc4565b6020604051808303816000875af1158015610859573d6000803e3d6000fd5b505050506040513d601f19601f8201168201806040525081019061087d9190613c8e565b91507f000000000000000000000000000000000000000000000000000000000000000073ffffffffffffffffffffffffffffffffffffffff1663619306306040518163ffffffff1660e01b8152600401602060405180830381865afa1580156108ea573d6000803e3d6000fd5b505050506040513d601f19601f8201168201806040525081019061090e9190613ca7565b73ffffffffffffffffffffffffffffffffffffffff1663a7f2a70b8389896040518463ffffffff1660e01b815260040161094a93929190613d12565b6020604051808303816000875af1158015610969573d6000803e3d6000fd5b505050506040513d601f19601f8201168201806040525081019061098d9190613ca7565b508273ffffffffffffffffffffffffffffffffffffffff16637b621d3a838760c001518673ffffffffffffffffffffffffffffffffffffffff166360b3042c6040518163ffffffff1660e01b8152600401602060405180830381865afa1580156109fb573d6000803e3d6000fd5b505050506040513d601f19601f82011682018060405250810190610a1f9190613c8e565b8773ffffffffffffffffffffffffffffffffffffffff1663737a79966040518163ffffffff1660e01b8152600401602060405180830381865afa158015610a6a573d6000803e3d6000fd5b505050506040513d601f19601f82011682018060405250810190610a8e9190613c8e565b6040517fffffffff0000000000000000000000000000000000000000000000000000000060e087901b168152600481019490945262ffffff909216602484015263ffffffff908116604484015216606482015261eeee608482015260a4016020604051808303816000875af1158015610b0b573d6000803e3d6000fd5b505050506040513d601f19601f82011682018060405250810190610b2f9190613ca7565b507f000000000000000000000000000000000000000000000000000000000000000073ffffffffffffffffffffffffffffffffffffffff1663111d861b8360405180608001604052808960600151815260200160128a60000151610b939190613e67565b81526040808b0151602080840191909152600092820183905281516102a081019092526102408201838152610260830184905261028083019390935291815260a08b015151909182019015610c0a578a60a00151600081518110610bf957610bf9613872565b602002602001015160000151610c0d565b60005b6fffffffffffffffffffffffffffffffff1681526020018a60800151612710610c369190613e76565b815260006020820181905260408201819052606082018190526080820181905260a0808301829052600160c0840181905260e0840183905261010084018390526101208401839052610140840183905261016084018390526101808401526101a0830182905273ffffffffffffffffffffffffffffffffffffffff8b166101c08401526101e0909201528a01515115610cf1578960a00151600081518110610ce057610ce0613872565b602002602001015160200151610cf4565b60005b604080516000808252602082019092528891610d83565b610d706040518060c00160405280600073ffffffffffffffffffffffffffffffffffffffff168152602001600073ffffffffffffffffffffffffffffffffffffffff168152602001600081526020016000815260200160008152602001600081525090565b815260200190600190039081610d0b5790505b508b6040518863ffffffff1660e01b8152600401610da79796959493929190613e89565b6020604051808303816000875af1158015610dc6573d6000803e3d6000fd5b505050506040513d601f19601f82011682018060405250810190610dea9190613c8e565b507f000000000000000000000000000000000000000000000000000000000000000073ffffffffffffffffffffffffffffffffffffffff16638ae9c07b8360128860200151610e399190613e67565b8c8a604051602001610e4b9190613fb9565b6040516020818303038152906040526000806040518763ffffffff1660e01b8152600401610e7e96959493929190613ffe565b6020604051808303816000875af1158015610e9d573d6000803e3d6000fd5b505050506040513d601f19601f82011682018060405250810190610ec19190613c8e565b507f000000000000000000000000000000000000000000000000000000000000000073ffffffffffffffffffffffffffffffffffffffff16632bdfe0046040518163ffffffff1660e01b8152600401602060405180830381865afa158015610f2d573d6000803e3d6000fd5b505050506040513d601f19601f82011682018060405250810190610f519190613ca7565b73ffffffffffffffffffffffffffffffffffffffff1663ad007d636040518163ffffffff1660e01b8152600401602060405180830381865afa158015610f9b573d6000803e3d6000fd5b505050506040513d601f19601f82011682018060405250810190610fbf9190613ca7565b73ffffffffffffffffffffffffffffffffffffffff1663529cdd2e60405180606001604052808c73ffffffffffffffffffffffffffffffffffffffff168152602001858152602001600180548060200260200160405190810160405280929190818152602001828054801561105357602002820191906000526020600020905b81548152602001906001019080831161103f575b50505050508152506040518263ffffffff1660e01b81526004016110779190614053565b600060405180830381600087803b15801561109157600080fd5b505af11580156110a5573d6000803e3d6000fd5b505050506110bc828660a00151876060015161288f565b50979650505050505050565b60007f000000000000000000000000000000000000000000000000000000000000000073ffffffffffffffffffffffffffffffffffffffff16638b79543c6040518163ffffffff1660e01b8152600401602060405180830381865afa158015611135573d6000803e3d6000fd5b505050506040513d601f19601f820116820180604052508101906111599190613ca7565b73ffffffffffffffffffffffffffffffffffffffff163373ffffffffffffffffffffffffffffffffffffffff161461119057600080fd5b73ffffffffffffffffffffffffffffffffffffffff8516156111b157600080fd5b507f150b7a020000000000000000000000000000000000000000000000000000000095945050505050565b600081815260208181526040808320805482518185028101850190935280835260609492939192909184015b8282101561126757600084815260209081902060408051808201909152908401546fffffffffffffffffffffffffffffffff80821683527001000000000000000000000000000000009091041681830152825260019092019101611208565b505050509050919050565b6001818154811061128257600080fd5b600091825260209091200154905081565b60008061129f8b612709565b90507f000000000000000000000000000000000000000000000000000000000000000073ffffffffffffffffffffffffffffffffffffffff16638b79543c6040518163ffffffff1660e01b8152600401602060405180830381865afa15801561130c573d6000803e3d6000fd5b505050506040513d601f19601f820116820180604052508101906113309190613ca7565b73ffffffffffffffffffffffffffffffffffffffff1663666d87a0308c6040518363ffffffff1660e01b815260040161136a929190613cc4565b6020604051808303816000875af1158015611389573d6000803e3d6000fd5b505050506040513d601f19601f820116820180604052508101906113ad9190613c8e565b91507f000000000000000000000000000000000000000000000000000000000000000073ffffffffffffffffffffffffffffffffffffffff1663619306306040518163ffffffff1660e01b8152600401602060405180830381865afa15801561141a573d6000803e3d6000fd5b505050506040513d601f19601f8201168201806040525081019061143e9190613ca7565b73ffffffffffffffffffffffffffffffffffffffff1663a7f2a70b838b8b6040518463ffffffff1660e01b815260040161147a93929190613d12565b6020604051808303816000875af1158015611499573d6000803e3d6000fd5b505050506040513d601f19601f820116820180604052508101906114bd9190613ca7565b508473ffffffffffffffffffffffffffffffffffffffff16637b621d3a838960c001518873ffffffffffffffffffffffffffffffffffffffff166360b3042c6040518163ffffffff1660e01b8152600401602060405180830381865afa15801561152b573d6000803e3d6000fd5b505050506040513d601f19601f8201168201806040525081019061154f9190613c8e565b8973ffffffffffffffffffffffffffffffffffffffff1663737a79966040518163ffffffff1660e01b8152600401602060405180830381865afa15801561159a573d6000803e3d6000fd5b505050506040513d601f19601f820116820180604052508101906115be9190613c8e565b6040517fffffffff0000000000000000000000000000000000000000000000000000000060e087901b168152600481019490945262ffffff909216602484015263ffffffff908116604484015216606482015261eeee608482015260a4016020604051808303816000875af115801561163b573d6000803e3d6000fd5b505050506040513d601f19601f8201168201806040525081019061165f9190613ca7565b507f000000000000000000000000000000000000000000000000000000000000000073ffffffffffffffffffffffffffffffffffffffff1663111d861b8360405180608001604052808b60600151815260200160128c600001516116c39190613e67565b81526040808d0151602080840191909152600092820183905281516102a081019092526102408201838152610260830184905261028083019390935291815260a08d01515190918201901561173a578c60a0015160008151811061172957611729613872565b60200260200101516000015161173d565b60005b6fffffffffffffffffffffffffffffffff1681526020018c608001516127106117669190613e76565b815260006020820181905260408201819052606082018190526080820181905260a0808301829052600160c0840181905260e0840183905261010084018390526101208401839052610140840183905261016084018390526101808401526101a0830191909152306101c083015260ff8a166101e0909201919091528c01515115611813578b60a0015160008151811061180257611802613872565b602002602001015160200151611816565b60005b6040805160008082526020820190925288916118a5565b6118926040518060c00160405280600073ffffffffffffffffffffffffffffffffffffffff168152602001600073ffffffffffffffffffffffffffffffffffffffff168152602001600081526020016000815260200160008152602001600081525090565b81526020019060019003908161182d5790505b508d6040518863ffffffff1660e01b81526004016118c99796959493929190613e89565b6020604051808303816000875af11580156118e8573d6000803e3d6000fd5b505050506040513d601f19601f8201168201806040525081019061190c9190613c8e565b50846003600084815260200190815260200160002060006101000a81548173ffffffffffffffffffffffffffffffffffffffff021916908373ffffffffffffffffffffffffffffffffffffffff1602179055507f000000000000000000000000000000000000000000000000000000000000000073ffffffffffffffffffffffffffffffffffffffff16638ae9c07b8360128a602001516119ad9190613e67565b8e8c6040516020016119bf9190613fb9565b6040516020818303038152906040526000806040518763ffffffff1660e01b81526004016119f296959493929190613ffe565b6020604051808303816000875af1158015611a11573d6000803e3d6000fd5b505050506040513d601f19601f82011682018060405250810190611a359190613c8e565b507f000000000000000000000000000000000000000000000000000000000000000073ffffffffffffffffffffffffffffffffffffffff16632bdfe0046040518163ffffffff1660e01b8152600401602060405180830381865afa158015611aa1573d6000803e3d6000fd5b505050506040513d601f19601f82011682018060405250810190611ac59190613ca7565b73ffffffffffffffffffffffffffffffffffffffff1663ad007d636040518163ffffffff1660e01b8152600401602060405180830381865afa158015611b0f573d6000803e3d6000fd5b505050506040513d601f19601f82011682018060405250810190611b339190613ca7565b73ffffffffffffffffffffffffffffffffffffffff1663529cdd2e60405180606001604052808e73ffffffffffffffffffffffffffffffffffffffff1681526020018581526020016001805480602002602001604051908101604052809291908181526020018280548015611bc757602002820191906000526020600020905b815481526020019060010190808311611bb3575b50505050508152506040518263ffffffff1660e01b8152600401611beb9190614053565b600060405180830381600087803b158015611c0557600080fd5b505af1158015611c19573d6000803e3d6000fd5b505050507f000000000000000000000000000000000000000000000000000000000000000073ffffffffffffffffffffffffffffffffffffffff16632bdfe0046040518163ffffffff1660e01b8152600401602060405180830381865afa158015611c88573d6000803e3d6000fd5b505050506040513d601f19601f82011682018060405250810190611cac9190613ca7565b73ffffffffffffffffffffffffffffffffffffffff1663ad007d636040518163ffffffff1660e01b8152600401602060405180830381865afa158015611cf6573d6000803e3d6000fd5b505050506040513d601f19601f82011682018060405250810190611d1a9190613ca7565b73ffffffffffffffffffffffffffffffffffffffff16630f5932f08630600060056040518563ffffffff1660e01b8152600401611d5a94939291906140c4565b602060405180830381865afa158015611d77573d6000803e3d6000fd5b505050506040513d601f19601f82011682018060405250810190611d9b9190614140565b611f88577f000000000000000000000000000000000000000000000000000000000000000073ffffffffffffffffffffffffffffffffffffffff16632bdfe0046040518163ffffffff1660e01b8152600401602060405180830381865afa158015611e0a573d6000803e3d6000fd5b505050506040513d601f19601f82011682018060405250810190611e2e9190613ca7565b73ffffffffffffffffffffffffffffffffffffffff1663ad007d636040518163ffffffff1660e01b8152600401602060405180830381865afa158015611e78573d6000803e3d6000fd5b505050506040513d601f19601f82011682018060405250810190611e9c9190613ca7565b73ffffffffffffffffffffffffffffffffffffffff1663529cdd2e60405180606001604052808873ffffffffffffffffffffffffffffffffffffffff168152602001600081526020016005805480602002602001604051908101604052809291908181526020018280548015611f3157602002820191906000526020600020905b815481526020019060010190808311611f1d575b50505050508152506040518263ffffffff1660e01b8152600401611f559190614053565b600060405180830381600087803b158015611f6f57600080fd5b505af1158015611f83573d6000803e3d6000fd5b505050505b611f9b828860a00151896060015161288f565b835160005b8181101561206457858181518110611fba57611fba613872565b6020026020010151600460008681526020019081526020016000208281548110611fe657611fe6613872565b600091825260209182902083516003929092020180547fffffffffffffffffffffffff00000000000000000000000000000000000000001673ffffffffffffffffffffffffffffffffffffffff9092169190911781559082015160018201556040820151600282019061205990826141fd565b505050600101611fa0565b5050509998505050505050505050565b6005818154811061128257600080fd5b6040805160008082526020820190925260609081908390816120d0565b604080516060808201835260008083526020830152918101919091528152602001906001900390816120a15790505b5060408051602081019091526000815291969195509350915050565b6004602052816000526040600020818154811061210857600080fd5b600091825260209091206003909102018054600182015460028301805473ffffffffffffffffffffffffffffffffffffffff90931695509093509061214c9061415b565b80601f01602080910402602001604051908101604052809291908181526020018280546121789061415b565b80156121c55780601f1061219a576101008083540402835291602001916121c5565b820191906000526020600020905b8154815290600101906020018083116121a857829003601f168201915b5050505050905083565b60c08101356000908152600360205260408082205490517fd46cf1710000000000000000000000000000000000000000000000000000000081526060918291829173ffffffffffffffffffffffffffffffffffffffff169063d46cf1719061223b90889060040161440d565b600060405180830381865afa158015612258573d6000803e3d6000fd5b505050506040513d6000823e601f3d9081017fffffffffffffffffffffffffffffffffffffffffffffffffffffffffffffffe016820160405261229e9190810190614581565b805160c089013560009081526004602090815260408083208054825181850281018501909352808352979b5094975092151595919450919291849084015b828210156123cd5760008481526020908190206040805160608101825260038602909201805473ffffffffffffffffffffffffffffffffffffffff1683526001810154938301939093526002830180549293929184019161233c9061415b565b80601f01602080910402602001604051908101604052809291908181526020018280546123689061415b565b80156123b55780601f1061238a576101008083540402835291602001916123b5565b820191906000526020600020905b81548152906001019060200180831161239857829003601f168201915b505050505081525050815260200190600101906122dc565b505050509050600081519050826123e55760006123e8565b60015b6123f59060ff16826146fa565b67ffffffffffffffff81111561240d5761240d612a81565b60405190808252806020026020018201604052801561245a57816020015b6040805160608082018352600080835260208301529181019190915281526020019060019003908161242b5790505b50945060005b818110156124a75782818151811061247a5761247a613872565b602002602001015186828151811061249457612494613872565b6020908102919091010152600101612460565b5082156124e757836000815181106124c1576124c1613872565b60200260200101518582815181106124db576124db613872565b60200260200101819052505b6124f561016089018961470d565b8080601f016020809104026020016040519081016040528093929190818152602001838380828437600092019190915250999b929a50969850909650505050505050565b604080516001808252818301909252606091816020015b60408051808201909152600081526060602082015281526020019060019003908161255057905050905060007f000000000000000000000000000000000000000000000000000000000000000073ffffffffffffffffffffffffffffffffffffffff16632bdfe0046040518163ffffffff1660e01b8152600401602060405180830381865afa1580156125e7573d6000803e3d6000fd5b505050506040513d601f19601f8201168201806040525081019061260b9190613ca7565b6040517f69e11cc500000000000000000000000000000000000000000000000000000000815260048101869052602481018590526002604482015273ffffffffffffffffffffffffffffffffffffffff91909116906369e11cc590606401600060405180830381865afa158015612686573d6000803e3d6000fd5b505050506040513d6000823e601f3d9081017fffffffffffffffffffffffffffffffffffffffffffffffffffffffffffffffe01682016040526126cc9190810190614772565b905060405180604001604052806002815260200182815250826000815181106126f7576126f7613872565b60200260200101819052505092915050565b604080516001808252818301909252606091816020015b60408051808201909152600081526060602082015281526020019060019003908161272057505060408051600180825281830190925291925060009190602082015b6040805160e08101825260008082526020808301829052928201819052606082018190526080820181905260a0820181905260c082015282527fffffffffffffffffffffffffffffffffffffffffffffffffffffffffffffffff9092019101816127625790505090506040518060e00160405280600015158152602001600015158152602001633b9aca008152602001600081526020018473ffffffffffffffffffffffffffffffffffffffff16815260200160008152602001600073ffffffffffffffffffffffffffffffffffffffff168152508160018151811061284a5761284a613872565b6020026020010181905250604051806040016040528060028152602001828152508260008151811061287e5761287e613872565b602002602001018190525050919050565b815180156129e45760005b818110156129e2578015801590612924575082846128b9600184613e76565b815181106128c9576128c9613872565b6020026020010151602001516fffffffffffffffffffffffffffffffff166128f191906146fa565b84828151811061290357612903613872565b6020026020010151602001516fffffffffffffffffffffffffffffffff1611155b1561295b576040517fc5c2978500000000000000000000000000000000000000000000000000000000815260040160405180910390fd5b83818151811061296d5761296d613872565b6020026020010151600080878152602001908152602001600020828154811061299857612998613872565b6000918252602091829020835193909201516fffffffffffffffffffffffffffffffff9081167001000000000000000000000000000000000293169290921791015560010161289a565b505b50505050565b6000602082840312156129fc57600080fd5b81357fffffffff0000000000000000000000000000000000000000000000000000000081168114612a2c57600080fd5b9392505050565b600060208284031215612a4557600080fd5b5035919050565b73ffffffffffffffffffffffffffffffffffffffff81168114612a6e57600080fd5b50565b8035612a7c81612a4c565b919050565b7f4e487b7100000000000000000000000000000000000000000000000000000000600052604160045260246000fd5b6040805190810167ffffffffffffffff81118282101715612ad357612ad3612a81565b60405290565b60405160e0810167ffffffffffffffff81118282101715612ad357612ad3612a81565b6040516060810167ffffffffffffffff81118282101715612ad357612ad3612a81565b604051610240810167ffffffffffffffff81118282101715612ad357612ad3612a81565b604051610120810167ffffffffffffffff81118282101715612ad357612ad3612a81565b604051601f82017fffffffffffffffffffffffffffffffffffffffffffffffffffffffffffffffe016810167ffffffffffffffff81118282101715612bae57612bae612a81565b604052919050565b600067ffffffffffffffff821115612bd057612bd0612a81565b50601f017fffffffffffffffffffffffffffffffffffffffffffffffffffffffffffffffe01660200190565b6000612c0f612c0a84612bb6565b612b67565b9050828152838383011115612c2357600080fd5b828260208301376000602084830101529392505050565b600082601f830112612c4b57600080fd5b612a2c83833560208501612bfc565b600060408284031215612c6c57600080fd5b612c74612ab0565b9050813567ffffffffffffffff811115612c8d57600080fd5b612c9984828501612c3a565b8252506020820135602082015292915050565b600067ffffffffffffffff821115612cc657612cc6612a81565b5060051b60200190565b80356fffffffffffffffffffffffffffffffff81168114612a7c57600080fd5b600082601f830112612d0157600080fd5b81356020612d11612c0a83612cac565b82815260069290921b84018101918181019086841115612d3057600080fd5b8286015b84811015612d7d5760408189031215612d4d5760008081fd5b612d55612ab0565b612d5e82612cd0565b8152612d6b858301612cd0565b81860152835291830191604001612d34565b509695505050505050565b803562ffffff81168114612a7c57600080fd5b600060e08284031215612dad57600080fd5b612db5612ad9565b9050813581526020820135602082015260408201356040820152606082013560608201526080820135608082015260a082013567ffffffffffffffff811115612dfd57600080fd5b612e0984828501612cf0565b60a083015250612e1b60c08301612d88565b60c082015292915050565b600082601f830112612e3757600080fd5b81356020612e47612c0a83612cac565b82815260059290921b84018101918181019086841115612e6657600080fd5b8286015b84811015612d7d578035612e7d81612a4c565b8352918301918301612e6a565b600080600080600080600060e0888a031215612ea557600080fd5b612eae88612a71565b9650602088013567ffffffffffffffff80821115612ecb57600080fd5b612ed78b838c01612c5a565b975060408a0135915080821115612eed57600080fd5b612ef98b838c01612c3a565b965060608a0135915080821115612f0f57600080fd5b612f1b8b838c01612c3a565b955060808a0135915080821115612f3157600080fd5b612f3d8b838c01612d9b565b945060a08a0135915080821115612f5357600080fd5b50612f608a828b01612e26565b925050612f6f60c08901612a71565b905092959891949750929550565b600080600080600060808688031215612f9557600080fd5b8535612fa081612a4c565b94506020860135612fb081612a4c565b935060408601359250606086013567ffffffffffffffff80821115612fd457600080fd5b818801915088601f830112612fe857600080fd5b813581811115612ff757600080fd5b89602082850101111561300957600080fd5b9699959850939650602001949392505050565b602080825282518282018190526000919060409081850190868401855b8281101561307457815180516fffffffffffffffffffffffffffffffff90811686529087015116868501529284019290850190600101613039565b5091979650505050505050565b600082601f83011261309257600080fd5b813560206130a2612c0a83612cac565b82815260059290921b840181019181810190868411156130c157600080fd5b8286015b84811015612d7d57803567ffffffffffffffff808211156130e65760008081fd5b81890191506060807fffffffffffffffffffffffffffffffffffffffffffffffffffffffffffffffe0848d0301121561311f5760008081fd5b613127612afc565b8784013561313481612a4c565b8152604084810135898301529184013591838311156131535760008081fd5b82850194508c603f86011261316a57600093508384fd5b61317a8d8a870135838801612bfc565b9082015286525050509183019183016130c5565b803560ff81168114612a7c57600080fd5b60008060008060008060008060006101208a8c0312156131be57600080fd5b6131c78a612a71565b985060208a013567ffffffffffffffff808211156131e457600080fd5b6131f08d838e01612c5a565b995060408c013591508082111561320657600080fd5b6132128d838e01612c3a565b985060608c013591508082111561322857600080fd5b6132348d838e01612c3a565b975060808c013591508082111561324a57600080fd5b6132568d838e01612d9b565b965060a08c013591508082111561326c57600080fd5b6132788d838e01612e26565b955061328660c08d01612a71565b945060e08c013591508082111561329c57600080fd5b506132a98c828d01613081565b9250506132b96101008b0161318e565b90509295985092959850929598565b6000602082840312156132da57600080fd5b813567ffffffffffffffff8111156132f157600080fd5b82016101e08185031215612a2c57600080fd5b60005b8381101561331f578181015183820152602001613307565b50506000910152565b60008151808452613340816020860160208601613304565b601f017fffffffffffffffffffffffffffffffffffffffffffffffffffffffffffffffe0169290920160200192915050565b600060608583526020818185015261338c82850187613328565b6040858203818701528187518084528484019150848160051b850101858a0160005b83811015613429578683037fffffffffffffffffffffffffffffffffffffffffffffffffffffffffffffffe00185528151805173ffffffffffffffffffffffffffffffffffffffff16845288810151898501528601518684018a90526134168a850182613328565b95890195935050908701906001016133ae565b50909c9b505050505050505050505050565b6000806040838503121561344e57600080fd5b50508035926020909101359150565b73ffffffffffffffffffffffffffffffffffffffff841681528260208201526060604082015260006134926060830184613328565b95945050505050565b6000602082840312156134ad57600080fd5b813567ffffffffffffffff8111156134c457600080fd5b82016101a08185031215612a2c57600080fd5b60006060858352602081818501526134f182850187613328565b6040858203818701528187518084528484019150848160051b850101858a0160005b83811015613429578683037fffffffffffffffffffffffffffffffffffffffffffffffffffffffffffffffe00185528151805173ffffffffffffffffffffffffffffffffffffffff16845288810151898501528601518684018a905261357b8a850182613328565b9589019593505090870190600101613513565b8051612a7c81612a4c565b80518015158114612a7c57600080fd5b6000606082840312156135bb57600080fd5b6135c3612afc565b90506135ce82613599565b81526135dc60208301613599565b60208201526135ed60408301613599565b604082015292915050565b6000610280828403121561360b57600080fd5b613613612b1f565b905061361f83836135a9565b8152606082015160208201526080820151604082015260a0820151606082015261364b60c08301613599565b608082015261365c60e08301613599565b60a082015261010061366f818401613599565b60c0830152610120613682818501613599565b60e0840152610140613695818601613599565b8385015261016092506136a9838601613599565b8285015261018091506136bd828601613599565b908401526101a06136cf858201613599565b838501526101c092506136e3838601613599565b828501526101e091506136f7828601613599565b90840152610200613709858201613599565b83850152610220925061371d838601613599565b8285015261372e610240860161358e565b818501525050610260830151818301525092915050565b805160038110612a7c57600080fd5b60008060008385036103c081121561376b57600080fd5b6101208082121561377b57600080fd5b613783612b43565b9150855182526020860151602083015260408601516040830152606086015160608301526080860151608083015260a086015160a083015260c086015160c08301526137d160e0870161358e565b60e08301526101008087015181840152508194506137f1878288016135f8565b935050506138026103a08501613745565b90509250925092565b7f4e487b7100000000000000000000000000000000000000000000000000000000600052601160045260246000fd5b60007fffffffffffffffffffffffffffffffffffffffffffffffffffffffffffffffff820361386b5761386b61380b565b5060010190565b7f4e487b7100000000000000000000000000000000000000000000000000000000600052603260045260246000fd5b6138c68282518051151582526020808201511515908301526040908101511515910152565b6020810151606083015260408101516080830152606081015160a083015260808101516138f760c084018215159052565b5060a081015180151560e08401525060c081015161010061391b8185018315159052565b60e083015191506101206139328186018415159052565b908301519150610140906139498583018415159052565b830151915061016061395e8582018415159052565b908301519150610180906139758583018415159052565b83015191506101a061398a8582018415159052565b9083015191506101c0906139a18583018415159052565b83015191506101e06139b68582018415159052565b908301519150610200906139cd8583018415159052565b83015191506102206139e28582018415159052565b9083015173ffffffffffffffffffffffffffffffffffffffff16610240850152909101516102609092019190915250565b600081518084526020808501808196508360051b810191508286016000805b86811015613af2578385038a52825180518652860151604087870181905281518188018190529188019160609081890190865b81811015613adb5785518051151584528c81015115158d8501528581015186850152848101518585015260808082015173ffffffffffffffffffffffffffffffffffffffff9081169186019190915260a0808301519086015260c0918201511690840152948b019460e090920191600101613a65565b50509c89019c975050509286019250600101613a32565b509298975050505050505050565b600081518084526020808501945080840160005b83811015613b7d578151805173ffffffffffffffffffffffffffffffffffffffff908116895284820151168489015260408082015190890152606080820151908901526080808201519089015260a0908101519088015260c09096019590820190600101613b14565b509495945050505050565b60006103a0888352613bd4602084018980518252602081015160208301526040810151604083015273ffffffffffffffffffffffffffffffffffffffff60608201511660608301525050565b613be160a08401886138a1565b6fffffffffffffffffffffffffffffffff861661032084015280610340840152613c0d81840186613a13565b9050828103610360840152613c228185613b00565b838103610380909401939093525050603281527f5363686564756c6564206e657874206465762074617820706572696f64206f6660208201527f2052657461696c697374206e6574776f726b000000000000000000000000000060408201526060019695505050505050565b600060208284031215613ca057600080fd5b5051919050565b600060208284031215613cb957600080fd5b8151612a2c81612a4c565b73ffffffffffffffffffffffffffffffffffffffff831681526040602082015260008251604080840152613cfb6080840182613328565b905060208401516060840152809150509392505050565b838152606060208201526000613d2b6060830185613328565b8281036040840152613d3d8185613328565b9695505050505050565b600181815b80851115613da057817fffffffffffffffffffffffffffffffffffffffffffffffffffffffffffffffff04821115613d8657613d8661380b565b80851615613d9357918102915b93841c9390800290613d4c565b509250929050565b600082613db757506001610385565b81613dc457506000610385565b8160018114613dda5760028114613de457613e00565b6001915050610385565b60ff841115613df557613df561380b565b50506001821b610385565b5060208310610133831016604e8410600b8410161715613e23575081810a610385565b613e2d8383613d47565b807fffffffffffffffffffffffffffffffffffffffffffffffffffffffffffffffff04821115613e5f57613e5f61380b565b029392505050565b6000612a2c60ff841683613da8565b818103818111156103855761038561380b565b60006103c08983526020613ed68185018b80518252602081015160208301526040810151604083015273ffffffffffffffffffffffffffffffffffffffff60608201511660608301525050565b613ee360a085018a6138a1565b6fffffffffffffffffffffffffffffffff881661032085015281610340850152613f0f82850188613a13565b9150838203610360850152613f248287613b00565b848103610380860152855180825282870193509082019060005b81811015613f7057845173ffffffffffffffffffffffffffffffffffffffff1683529383019391830191600101613f3e565b50508481036103a0860152601a81527f4465706c6f7965642052657461696c697374206e6574776f726b0000000000006020820152604081019c9b505050505050505050505050565b7f5072656d696e7465642024000000000000000000000000000000000000000000815260008251613ff181600b850160208701613304565b91909101600b0192915050565b86815285602082015273ffffffffffffffffffffffffffffffffffffffff8516604082015260c06060820152600061403960c0830186613328565b93151560808301525090151560a090910152949350505050565b600060208083526080830173ffffffffffffffffffffffffffffffffffffffff85511682850152818501516040850152604085015160608086015281815180845260a0870191508483019350600092505b80831015612d7d57835182529284019260019290920191908401906140a4565b60006080820173ffffffffffffffffffffffffffffffffffffffff808816845260208188168186015286604086015260806060860152829150855480845260a0860192508660005281600020935060005b8181101561413157845484526001948501949383019301614115565b50919998505050505050505050565b60006020828403121561415257600080fd5b612a2c82613599565b600181811c9082168061416f57607f821691505b6020821081036141a8577f4e487b7100000000000000000000000000000000000000000000000000000000600052602260045260246000fd5b50919050565b601f8211156141f857600081815260208120601f850160051c810160208610156141d55750805b601f850160051c820191505b818110156141f4578281556001016141e1565b5050505b505050565b815167ffffffffffffffff81111561421757614217612a81565b61422b81614225845461415b565b846141ae565b602080601f83116001811461427e57600084156142485750858301515b7fffffffffffffffffffffffffffffffffffffffffffffffffffffffffffffffff600386901b1c1916600185901b1785556141f4565b6000858152602081207fffffffffffffffffffffffffffffffffffffffffffffffffffffffffffffffe08616915b828110156142cb578886015182559484019460019091019084016142ac565b508582101561430757878501517fffffffffffffffffffffffffffffffffffffffffffffffffffffffffffffffff600388901b60f8161c191681555b5050505050600190811b01905550565b803561432281612a4c565b73ffffffffffffffffffffffffffffffffffffffff1682526020818101359083015260408082013590830152606090810135910152565b60008083357fffffffffffffffffffffffffffffffffffffffffffffffffffffffffffffffe184360301811261438e57600080fd5b830160208101925035905067ffffffffffffffff8111156143ae57600080fd5b8036038213156143bd57600080fd5b9250929050565b8183528181602085013750600060208284010152600060207fffffffffffffffffffffffffffffffffffffffffffffffffffffffffffffffe0601f840116840101905092915050565b6020815261443b6020820161442184612a71565b73ffffffffffffffffffffffffffffffffffffffff169052565b600061444960208401612a71565b73ffffffffffffffffffffffffffffffffffffffff81166040840152506144766060830160408501614317565b60c083013560e083015261010060e084013581840152614497818501612a71565b90506101206144bd8185018373ffffffffffffffffffffffffffffffffffffffff169052565b610140915080850135828501525061016081850135818501526144e281860186614359565b925090506101a061018081818701526145006101c0870185856143c4565b935061450e81880188614359565b935090507fffffffffffffffffffffffffffffffffffffffffffffffffffffffffffffffe086850301828701526145468484836143c4565b979650505050505050565b600061455f612c0a84612bb6565b905082815283838301111561457357600080fd5b612a2c836020830184613304565b60008060006060848603121561459657600080fd5b8351925060208085015167ffffffffffffffff808211156145b657600080fd5b818701915087601f8301126145ca57600080fd5b6145d8888351858501614551565b945060408701519150808211156145ee57600080fd5b818701915087601f83011261460257600080fd5b8151614610612c0a82612cac565b81815260059190911b8301840190848101908a83111561462f57600080fd5b8585015b838110156146e95780518581111561464a57600080fd5b86016060818e037fffffffffffffffffffffffffffffffffffffffffffffffffffffffffffffffe001121561467e57600080fd5b614686612afc565b8882015161469381612a4c565b81526040820151898201526060820151878111156146b057600080fd5b8083019250508d603f8301126146c557600080fd5b6146d68e8a84015160408501614551565b6040820152845250918601918601614633565b508096505050505050509250925092565b808201808211156103855761038561380b565b60008083357fffffffffffffffffffffffffffffffffffffffffffffffffffffffffffffffe184360301811261474257600080fd5b83018035915067ffffffffffffffff82111561475d57600080fd5b6020019150368190038213156143bd57600080fd5b6000602080838503121561478557600080fd5b825167ffffffffffffffff81111561479c57600080fd5b8301601f810185136147ad57600080fd5b80516147bb612c0a82612cac565b81815260e091820283018401918482019190888411156147da57600080fd5b938501935b838510156110bc5780858a0312156147f75760008081fd5b6147ff612ad9565b61480886613599565b8152614815878701613599565b81880152604086810151908201526060808701519082015260808087015161483c81612a4c565b9082015260a0868101519082015260c08087015161485981612a4c565b90820152835293840193918501916147df56fea2646970667358221220c5eb3c2d8dee9d48a376e04c4819e04b285339debe97bee380ac03b67e58486964736f6c63430008150033",
    "linkReferences": {}
  },
  "methodIdentifiers": {
    "buybackDelegateDataSourceOf(uint256)": "ef8eadd5",
    "buybackDelegatePermissionIndexes(uint256)": "9e8c513a",
    "controller()": "f77c4791",
    "currentDevTaxPeriodNumberOf(uint256)": "9f665eee",
    "delegateAllocationsOf(uint256,uint256)": "abc603e3",
    "deployBasicNetworkFor(address,(string,uint256),string,string,(uint256,uint256,uint256,uint256,uint256,(uint128,uint128)[],uint24),address[],address)": "0a801f47",
    "deployPayAllocatorNetworkFor(address,(string,uint256),string,string,(uint256,uint256,uint256,uint256,uint256,(uint128,uint128)[],uint24),address[],address,(address,uint256,bytes)[],uint8)": "522aa551",
    "devTaxPeriodsOf(uint256)": "263950ae",
    "onERC721Received(address,address,uint256,bytes)": "150b7a02",
    "operatorPermissionIndexes(uint256)": "4d757720",
    "payParams((address,address,(address,uint256,uint256,uint256),uint256,uint256,address,uint256,uint256,string,bytes))": "d46cf171",
    "redeemParams((address,address,uint256,uint256,uint256,uint256,uint256,(address,uint256,uint256,uint256),bool,uint256,string,bytes))": "a51cfd18",
    "scheduleNextDevTaxPeriodOf(uint256)": "0310850e",
    "supportsInterface(bytes4)": "01ffc9a7"
  },
  "id": 89
}