{
  "abi": [
    {
      "inputs": [
        {
          "internalType": "contract IJBController3_1",
          "name": "_controller",
          "type": "address"
        },
        {
          "internalType": "contract IJBPayoutRedemptionPaymentTerminal3_1_1",
          "name": "_terminal",
          "type": "address"
        },
        {
          "internalType": "contract IJBGenericBuybackDelegate",
          "name": "_buybackDelegate",
          "type": "address"
        }
      ],
      "stateMutability": "nonpayable",
      "type": "constructor"
    },
    {
      "inputs": [],
      "name": "RECONFIGURATION_ALREADY_SCHEDULED",
      "type": "error"
    },
    {
      "inputs": [],
      "name": "buybackDelegate",
      "outputs": [
        {
          "internalType": "contract IJBGenericBuybackDelegate",
          "name": "",
          "type": "address"
        }
      ],
      "stateMutability": "view",
      "type": "function"
    },
    {
      "inputs": [],
      "name": "controller",
      "outputs": [
        {
          "internalType": "contract IJBController3_1",
          "name": "",
          "type": "address"
        }
      ],
      "stateMutability": "view",
      "type": "function"
    },
    {
      "inputs": [
        {
          "internalType": "uint256",
          "name": "",
          "type": "uint256"
        },
        {
          "internalType": "uint256",
          "name": "",
          "type": "uint256"
        }
      ],
      "name": "delegateAllocationsOf",
      "outputs": [
        {
          "internalType": "contract IJBPayDelegate3_1_1",
          "name": "delegate",
          "type": "address"
        },
        {
          "internalType": "uint256",
          "name": "amount",
          "type": "uint256"
        },
        {
          "internalType": "bytes",
          "name": "metadata",
          "type": "bytes"
        }
      ],
      "stateMutability": "view",
      "type": "function"
    },
    {
      "inputs": [
        {
          "internalType": "address",
          "name": "_operator",
          "type": "address"
        },
        {
          "components": [
            {
              "internalType": "string",
              "name": "content",
              "type": "string"
            },
            {
              "internalType": "uint256",
              "name": "domain",
              "type": "uint256"
            }
          ],
          "internalType": "struct JBProjectMetadata",
          "name": "_projectMetadata",
          "type": "tuple"
        },
        {
          "internalType": "string",
          "name": "_name",
          "type": "string"
        },
        {
          "internalType": "string",
          "name": "_symbol",
          "type": "string"
        },
        {
          "components": [
            {
              "internalType": "uint256",
              "name": "initialIssuanceRate",
              "type": "uint256"
            },
            {
              "internalType": "uint256",
              "name": "premintTokenAmount",
              "type": "uint256"
            },
            {
              "internalType": "uint256",
              "name": "discountRate",
              "type": "uint256"
            },
            {
              "internalType": "uint256",
              "name": "cycleDurations",
              "type": "uint256"
            },
            {
              "internalType": "uint256",
              "name": "redemptionRate",
              "type": "uint256"
            },
            {
              "internalType": "uint256",
              "name": "reservedRate",
              "type": "uint256"
            },
            {
              "internalType": "uint48",
              "name": "reservedRateDuration",
              "type": "uint48"
            },
            {
              "internalType": "uint24",
              "name": "poolFee",
              "type": "uint24"
            }
          ],
          "internalType": "struct BasicRetailistJBParams",
          "name": "_data",
          "type": "tuple"
        }
      ],
      "name": "deployBasicProjectFor",
      "outputs": [
        {
          "internalType": "uint256",
          "name": "projectId",
          "type": "uint256"
        }
      ],
      "stateMutability": "nonpayable",
      "type": "function"
    },
    {
      "inputs": [
        {
          "internalType": "address",
          "name": "_operator",
          "type": "address"
        },
        {
          "components": [
            {
              "internalType": "string",
              "name": "content",
              "type": "string"
            },
            {
              "internalType": "uint256",
              "name": "domain",
              "type": "uint256"
            }
          ],
          "internalType": "struct JBProjectMetadata",
          "name": "_projectMetadata",
          "type": "tuple"
        },
        {
          "internalType": "string",
          "name": "_name",
          "type": "string"
        },
        {
          "internalType": "string",
          "name": "_symbol",
          "type": "string"
        },
        {
          "components": [
            {
              "internalType": "uint256",
              "name": "initialIssuanceRate",
              "type": "uint256"
            },
            {
              "internalType": "uint256",
              "name": "premintTokenAmount",
              "type": "uint256"
            },
            {
              "internalType": "uint256",
              "name": "discountRate",
              "type": "uint256"
            },
            {
              "internalType": "uint256",
              "name": "cycleDurations",
              "type": "uint256"
            },
            {
              "internalType": "uint256",
              "name": "redemptionRate",
              "type": "uint256"
            },
            {
              "internalType": "uint256",
              "name": "reservedRate",
              "type": "uint256"
            },
            {
              "internalType": "uint48",
              "name": "reservedRateDuration",
              "type": "uint48"
            },
            {
              "internalType": "uint24",
              "name": "poolFee",
              "type": "uint24"
            }
          ],
          "internalType": "struct BasicRetailistJBParams",
          "name": "_data",
          "type": "tuple"
        },
        {
          "components": [
            {
              "internalType": "contract IJBPayDelegate3_1_1",
              "name": "delegate",
              "type": "address"
            },
            {
              "internalType": "uint256",
              "name": "amount",
              "type": "uint256"
            },
            {
              "internalType": "bytes",
              "name": "metadata",
              "type": "bytes"
            }
          ],
          "internalType": "struct JBPayDelegateAllocation3_1_1[]",
          "name": "_delegateAllocations",
          "type": "tuple[]"
        },
        {
          "internalType": "uint8",
          "name": "_extraFundingCycleMetadata",
          "type": "uint8"
        }
      ],
      "name": "deployPayAllocatorProjectFor",
      "outputs": [
        {
          "internalType": "uint256",
          "name": "projectId",
          "type": "uint256"
        }
      ],
      "stateMutability": "nonpayable",
      "type": "function"
    },
    {
      "inputs": [
        {
          "internalType": "address",
          "name": "_operator",
          "type": "address"
        },
        {
          "internalType": "address",
          "name": "_from",
          "type": "address"
        },
        {
          "internalType": "uint256",
          "name": "_tokenId",
          "type": "uint256"
        },
        {
          "internalType": "bytes",
          "name": "_data",
          "type": "bytes"
        }
      ],
      "name": "onERC721Received",
      "outputs": [
        {
          "internalType": "bytes4",
          "name": "",
          "type": "bytes4"
        }
      ],
      "stateMutability": "view",
      "type": "function"
    },
    {
      "inputs": [
        {
          "components": [
            {
              "internalType": "contract IJBPaymentTerminal",
              "name": "terminal",
              "type": "address"
            },
            {
              "internalType": "address",
              "name": "payer",
              "type": "address"
            },
            {
              "components": [
                {
                  "internalType": "address",
                  "name": "token",
                  "type": "address"
                },
                {
                  "internalType": "uint256",
                  "name": "value",
                  "type": "uint256"
                },
                {
                  "internalType": "uint256",
                  "name": "decimals",
                  "type": "uint256"
                },
                {
                  "internalType": "uint256",
                  "name": "currency",
                  "type": "uint256"
                }
              ],
              "internalType": "struct JBTokenAmount",
              "name": "amount",
              "type": "tuple"
            },
            {
              "internalType": "uint256",
              "name": "projectId",
              "type": "uint256"
            },
            {
              "internalType": "uint256",
              "name": "currentFundingCycleConfiguration",
              "type": "uint256"
            },
            {
              "internalType": "address",
              "name": "beneficiary",
              "type": "address"
            },
            {
              "internalType": "uint256",
              "name": "weight",
              "type": "uint256"
            },
            {
              "internalType": "uint256",
              "name": "reservedRate",
              "type": "uint256"
            },
            {
              "internalType": "string",
              "name": "memo",
              "type": "string"
            },
            {
              "internalType": "bytes",
              "name": "metadata",
              "type": "bytes"
            }
          ],
          "internalType": "struct JBPayParamsData",
          "name": "_data",
          "type": "tuple"
        }
      ],
      "name": "payParams",
      "outputs": [
        {
          "internalType": "uint256",
          "name": "weight",
          "type": "uint256"
        },
        {
          "internalType": "string",
          "name": "memo",
          "type": "string"
        },
        {
          "components": [
            {
              "internalType": "contract IJBPayDelegate3_1_1",
              "name": "delegate",
              "type": "address"
            },
            {
              "internalType": "uint256",
              "name": "amount",
              "type": "uint256"
            },
            {
              "internalType": "bytes",
              "name": "metadata",
              "type": "bytes"
            }
          ],
          "internalType": "struct JBPayDelegateAllocation3_1_1[]",
          "name": "delegateAllocations",
          "type": "tuple[]"
        }
      ],
      "stateMutability": "view",
      "type": "function"
    },
    {
      "inputs": [
        {
          "internalType": "uint256",
          "name": "",
          "type": "uint256"
        }
      ],
      "name": "permissionIndexes",
      "outputs": [
        {
          "internalType": "uint256",
          "name": "",
          "type": "uint256"
        }
      ],
      "stateMutability": "view",
      "type": "function"
    },
    {
      "inputs": [
        {
          "internalType": "uint256",
          "name": "projectId",
          "type": "uint256"
        }
      ],
      "name": "reconfigurationStartTimestampOf",
      "outputs": [
        {
          "internalType": "uint256",
          "name": "",
          "type": "uint256"
        }
      ],
      "stateMutability": "view",
      "type": "function"
    },
    {
      "inputs": [
        {
          "components": [
            {
              "internalType": "contract IJBPaymentTerminal",
              "name": "terminal",
              "type": "address"
            },
            {
              "internalType": "address",
              "name": "holder",
              "type": "address"
            },
            {
              "internalType": "uint256",
              "name": "projectId",
              "type": "uint256"
            },
            {
              "internalType": "uint256",
              "name": "currentFundingCycleConfiguration",
              "type": "uint256"
            },
            {
              "internalType": "uint256",
              "name": "tokenCount",
              "type": "uint256"
            },
            {
              "internalType": "uint256",
              "name": "totalSupply",
              "type": "uint256"
            },
            {
              "internalType": "uint256",
              "name": "overflow",
              "type": "uint256"
            },
            {
              "components": [
                {
                  "internalType": "address",
                  "name": "token",
                  "type": "address"
                },
                {
                  "internalType": "uint256",
                  "name": "value",
                  "type": "uint256"
                },
                {
                  "internalType": "uint256",
                  "name": "decimals",
                  "type": "uint256"
                },
                {
                  "internalType": "uint256",
                  "name": "currency",
                  "type": "uint256"
                }
              ],
              "internalType": "struct JBTokenAmount",
              "name": "reclaimAmount",
              "type": "tuple"
            },
            {
              "internalType": "bool",
              "name": "useTotalOverflow",
              "type": "bool"
            },
            {
              "internalType": "uint256",
              "name": "redemptionRate",
              "type": "uint256"
            },
            {
              "internalType": "string",
              "name": "memo",
              "type": "string"
            },
            {
              "internalType": "bytes",
              "name": "metadata",
              "type": "bytes"
            }
          ],
          "internalType": "struct JBRedeemParamsData",
          "name": "_data",
          "type": "tuple"
        }
      ],
      "name": "redeemParams",
      "outputs": [
        {
          "internalType": "uint256",
          "name": "",
          "type": "uint256"
        },
        {
          "internalType": "string",
          "name": "",
          "type": "string"
        },
        {
          "components": [
            {
              "internalType": "contract IJBRedemptionDelegate3_1_1",
              "name": "delegate",
              "type": "address"
            },
            {
              "internalType": "uint256",
              "name": "amount",
              "type": "uint256"
            },
            {
              "internalType": "bytes",
              "name": "metadata",
              "type": "bytes"
            }
          ],
          "internalType": "struct JBRedemptionDelegateAllocation3_1_1[]",
          "name": "",
          "type": "tuple[]"
        }
      ],
      "stateMutability": "view",
      "type": "function"
    },
    {
      "inputs": [
        {
          "internalType": "uint256",
          "name": "_projectId",
          "type": "uint256"
        }
      ],
      "name": "scheduleReconfigurationOf",
      "outputs": [],
      "stateMutability": "nonpayable",
      "type": "function"
    },
    {
      "inputs": [
        {
          "internalType": "bytes4",
          "name": "_interfaceId",
          "type": "bytes4"
        }
      ],
      "name": "supportsInterface",
      "outputs": [
        {
          "internalType": "bool",
          "name": "",
          "type": "bool"
        }
      ],
      "stateMutability": "view",
      "type": "function"
    },
    {
      "inputs": [
        {
          "internalType": "uint256",
          "name": "",
          "type": "uint256"
        }
      ],
      "name": "terminals",
      "outputs": [
        {
          "internalType": "contract IJBPaymentTerminal",
          "name": "",
          "type": "address"
        }
      ],
      "stateMutability": "view",
      "type": "function"
    }
  ],
  "bytecode": {
    "object": "0x60c06040523480156200001157600080fd5b5060405162004054380380620040548339810160408190526200003491620000eb565b6001600160a01b03928316608052821660a05260008054600180820183557f290decd9548b62a8d60345a988386fc84ba6bc95484008f6362f93160ef3e56390910180546001600160a01b0319169390941692909217909255805480820182559181905260127fb10e2d527612073b26eecdfd717e6a320cf44b4afac2b0732d9fcbe2b7fa0cf692830155805480820190915560189101556200013f565b6001600160a01b0381168114620000e857600080fd5b50565b6000806000606084860312156200010157600080fd5b83516200010e81620000d2565b60208501519093506200012181620000d2565b60408501519092506200013481620000d2565b809150509250925092565b60805160a051613e5c620001f86000396000818161024d015281816108540152818161088d0152818161091c0152818161175a015281816117930152818161182201528181611a7a0152611fef0152600081816102960152818161038c015281816106220152818161073001528181610a4d01528181610c7c01528181610d3c015281816110750152818161122801528181611524015281816116320152818161195301528181611bb60152611c780152613e5c6000f3fe608060405234801561001057600080fd5b50600436106100df5760003560e01c80639483e7711161008c578063abc603e311610066578063abc603e314610226578063d396752514610248578063d46cf1711461026f578063f77c47911461029157600080fd5b80639483e771146101de5780639a739a6d146101f1578063a51cfd181461020457600080fd5b8063181f8e80116100bd578063181f8e80146101885780633ce6d3e2146101a9578063560f7b03146101be57600080fd5b806301ffc9a7146100e45780630219758e1461010c578063150b7a0214610144575b600080fd5b6100f76100f2366004612323565b6102b8565b60405190151581526020015b60405180910390f35b61011f61011a36600461236c565b610351565b60405173ffffffffffffffffffffffffffffffffffffffff9091168152602001610103565b610157610152366004612403565b610388565b6040517fffffffff000000000000000000000000000000000000000000000000000000009091168152602001610103565b61019b6101963660046127de565b61049c565b604051908152602001610103565b6101bc6101b736600461236c565b61102c565b005b61019b6101cc36600461236c565b60026020526000908152604090205481565b61019b6101ec36600461236c565b61137d565b61019b6101ff3660046128c1565b61139e565b610217610212366004612975565b611e9b565b60405161010393929190612a1f565b610239610234366004612ae8565b611f03565b60405161010393929190612b0a565b61011f7f000000000000000000000000000000000000000000000000000000000000000081565b61028261027d366004612b48565b611fe6565b60405161010393929190612b84565b61011f7f000000000000000000000000000000000000000000000000000000000000000081565b60007fffffffff0000000000000000000000000000000000000000000000000000000082167f71700c6900000000000000000000000000000000000000000000000000000000148061034b57507f150b7a02000000000000000000000000000000000000000000000000000000007fffffffff000000000000000000000000000000000000000000000000000000008316145b92915050565b6000818154811061036157600080fd5b60009182526020909120015473ffffffffffffffffffffffffffffffffffffffff16905081565b60007f000000000000000000000000000000000000000000000000000000000000000073ffffffffffffffffffffffffffffffffffffffff16638b79543c6040518163ffffffff1660e01b8152600401602060405180830381865afa1580156103f5573d6000803e3d6000fd5b505050506040513d601f19601f820116820180604052508101906104199190612c3b565b73ffffffffffffffffffffffffffffffffffffffff163373ffffffffffffffffffffffffffffffffffffffff161461045057600080fd5b73ffffffffffffffffffffffffffffffffffffffff85161561047157600080fd5b507f150b7a020000000000000000000000000000000000000000000000000000000095945050505050565b604080516001808252818301909252600091829190816020015b6040805180820190915260008152606060208201528152602001906001900390816104b657505060408051600180825281830190925291925060009190602082015b6040805160e08101825260008082526020808301829052928201819052606082018190526080820181905260a0820181905260c082015282527fffffffffffffffffffffffffffffffffffffffffffffffffffffffffffffffff9092019101816104f85790505090506040518060e00160405280600015158152602001600015158152602001633b9aca008152602001600081526020018b73ffffffffffffffffffffffffffffffffffffffff16815260200160008152602001600073ffffffffffffffffffffffffffffffffffffffff16815250816001815181106105e0576105e0612c58565b6020026020010181905250604051806040016040528060028152602001828152508260008151811061061457610614612c58565b6020026020010181905250507f000000000000000000000000000000000000000000000000000000000000000073ffffffffffffffffffffffffffffffffffffffff16638b79543c6040518163ffffffff1660e01b8152600401602060405180830381865afa15801561068b573d6000803e3d6000fd5b505050506040513d601f19601f820116820180604052508101906106af9190612c3b565b73ffffffffffffffffffffffffffffffffffffffff1663666d87a0308a6040518363ffffffff1660e01b81526004016106e9929190612c87565b6020604051808303816000875af1158015610708573d6000803e3d6000fd5b505050506040513d601f19601f8201168201806040525081019061072c9190612cd5565b91507f000000000000000000000000000000000000000000000000000000000000000073ffffffffffffffffffffffffffffffffffffffff1663619306306040518163ffffffff1660e01b8152600401602060405180830381865afa158015610799573d6000803e3d6000fd5b505050506040513d601f19601f820116820180604052508101906107bd9190612c3b565b73ffffffffffffffffffffffffffffffffffffffff1663a7f2a70b8389896040518463ffffffff1660e01b81526004016107f993929190612cee565b6020604051808303816000875af1158015610818573d6000803e3d6000fd5b505050506040513d601f19601f8201168201806040525081019061083c9190612c3b565b5073ffffffffffffffffffffffffffffffffffffffff7f000000000000000000000000000000000000000000000000000000000000000016637b621d3a8361088b610100890160e08a01612d23565b7f000000000000000000000000000000000000000000000000000000000000000073ffffffffffffffffffffffffffffffffffffffff166360b3042c6040518163ffffffff1660e01b8152600401602060405180830381865afa1580156108f6573d6000803e3d6000fd5b505050506040513d601f19601f8201168201806040525081019061091a9190612cd5565b7f000000000000000000000000000000000000000000000000000000000000000073ffffffffffffffffffffffffffffffffffffffff1663737a79966040518163ffffffff1660e01b8152600401602060405180830381865afa158015610985573d6000803e3d6000fd5b505050506040513d601f19601f820116820180604052508101906109a99190612cd5565b6040517fffffffff0000000000000000000000000000000000000000000000000000000060e087901b168152600481019490945262ffffff909216602484015263ffffffff908116604484015216606482015261eeee608482015260a4016020604051808303816000875af1158015610a26573d6000803e3d6000fd5b505050506040513d601f19601f82011682018060405250810190610a4a9190612c3b565b507f000000000000000000000000000000000000000000000000000000000000000073ffffffffffffffffffffffffffffffffffffffff1663111d861b8360405180608001604052808960600135815260200160128a60000135610aae9190612e97565b815260408a810135602080840191909152600092820183905281516102a081018352610240810184815261026082018590526102808201859052815260a0808e0135828401526080808f013583860152606083018690528201859052810184905260c0810184905260e081018490526001610100820181905261012082018590526101408201859052610160820185905261018082018590526101a082018590526101c08201526101e081018490523061020082015260ff8b166102208201528251848152918201909252909190879082610bfc565b610be96040518060c00160405280600073ffffffffffffffffffffffffffffffffffffffff168152602001600073ffffffffffffffffffffffffffffffffffffffff168152602001600081526020016000815260200160008152602001600081525090565b815260200190600190039081610b845790505b5060006040518863ffffffff1660e01b8152600401610c21979695949392919061318d565b6020604051808303816000875af1158015610c40573d6000803e3d6000fd5b505050506040513d601f19601f82011682018060405250810190610c649190612cd5565b5073ffffffffffffffffffffffffffffffffffffffff7f000000000000000000000000000000000000000000000000000000000000000016638ae9c07b83610cb1601260208a0135612e97565b8c8a604051602001610cc391906132ae565b6040516020818303038152906040526000806040518763ffffffff1660e01b8152600401610cf6969594939291906132f3565b6020604051808303816000875af1158015610d15573d6000803e3d6000fd5b505050506040513d601f19601f82011682018060405250810190610d399190612cd5565b507f000000000000000000000000000000000000000000000000000000000000000073ffffffffffffffffffffffffffffffffffffffff16632bdfe0046040518163ffffffff1660e01b8152600401602060405180830381865afa158015610da5573d6000803e3d6000fd5b505050506040513d601f19601f82011682018060405250810190610dc99190612c3b565b73ffffffffffffffffffffffffffffffffffffffff1663ad007d636040518163ffffffff1660e01b8152600401602060405180830381865afa158015610e13573d6000803e3d6000fd5b505050506040513d601f19601f82011682018060405250810190610e379190612c3b565b73ffffffffffffffffffffffffffffffffffffffff1663529cdd2e60405180606001604052808c73ffffffffffffffffffffffffffffffffffffffff1681526020018581526020016001805480602002602001604051908101604052809291908181526020018280548015610ecb57602002820191906000526020600020905b815481526020019060010190808311610eb7575b50505050508152506040518263ffffffff1660e01b8152600401610eef9190613348565b600060405180830381600087803b158015610f0957600080fd5b505af1158015610f1d573d6000803e3d6000fd5b50610f329250505060e0860160c087016133b9565b610f449065ffffffffffff16426133e1565b6000838152600260205260408120919091558451905b8181101561101e57858181518110610f7457610f74612c58565b6020026020010151600360008681526020019081526020016000208281548110610fa057610fa0612c58565b600091825260209182902083516003929092020180547fffffffffffffffffffffffff00000000000000000000000000000000000000001673ffffffffffffffffffffffffffffffffffffffff909216919091178155908201516001820155604082015160028201906110139082613490565b505050600101610f5a565b505050979650505050505050565b6040517f1f51045300000000000000000000000000000000000000000000000000000000815260048101829052600090819073ffffffffffffffffffffffffffffffffffffffff7f00000000000000000000000000000000000000000000000000000000000000001690631f510453906024016103c060405180830381865afa1580156110bd573d6000803e3d6000fd5b505050506040513d601f19601f820116820180604052508101906110e19190613770565b5081519193509150600114611122576040517fc97554fa00000000000000000000000000000000000000000000000000000000815260040160405180910390fd5b60408051608080820183528481015182526000602080840182905260c08088015185870152606080860184905286516102a0810188526102408101858152610260820186905261028082018690528152808401859052888801518189015290810184905293840183905260a08401839052830182905260e08301829052610100830182905261012083018290526101408301829052610160830182905261018083018290526101a083018290526101c083018290526101e083018290526102008087015173ffffffffffffffffffffffffffffffffffffffff908116918501919091526102208781015190850152888352600282528583205486518481529283019096527f0000000000000000000000000000000000000000000000000000000000000000169463badbdf289489949093909290611283565b60408051808201909152600081526060602082015281526020019060019003908161125b5790505b506040805160008082526020820190925290611312565b6112ff6040518060c00160405280600073ffffffffffffffffffffffffffffffffffffffff168152602001600073ffffffffffffffffffffffffffffffffffffffff168152602001600081526020016000815260200160008152602001600081525090565b81526020019060019003908161129a5790505b506040518763ffffffff1660e01b815260040161133496959493929190613827565b6020604051808303816000875af1158015611353573d6000803e3d6000fd5b505050506040513d601f19601f820116820180604052508101906113779190612cd5565b50505050565b6001818154811061138d57600080fd5b600091825260209091200154905081565b604080516001808252818301909252600091829190816020015b6040805180820190915260008152606060208201528152602001906001900390816113b857505060408051600180825281830190925291925060009190602082015b6040805160e08101825260008082526020808301829052928201819052606082018190526080820181905260a0820181905260c082015282527fffffffffffffffffffffffffffffffffffffffffffffffffffffffffffffffff9092019101816113fa5790505090506040518060e00160405280600015158152602001600015158152602001633b9aca008152602001600081526020018b73ffffffffffffffffffffffffffffffffffffffff16815260200160008152602001600073ffffffffffffffffffffffffffffffffffffffff16815250816001815181106114e2576114e2612c58565b6020026020010181905250604051806040016040528060028152602001828152508260008151811061151657611516612c58565b6020026020010181905250507f000000000000000000000000000000000000000000000000000000000000000073ffffffffffffffffffffffffffffffffffffffff16638b79543c6040518163ffffffff1660e01b8152600401602060405180830381865afa15801561158d573d6000803e3d6000fd5b505050506040513d601f19601f820116820180604052508101906115b19190612c3b565b73ffffffffffffffffffffffffffffffffffffffff1663666d87a0308a6040518363ffffffff1660e01b81526004016115eb9291906139c8565b6020604051808303816000875af115801561160a573d6000803e3d6000fd5b505050506040513d601f19601f8201168201806040525081019061162e9190612cd5565b91507f000000000000000000000000000000000000000000000000000000000000000073ffffffffffffffffffffffffffffffffffffffff1663619306306040518163ffffffff1660e01b8152600401602060405180830381865afa15801561169b573d6000803e3d6000fd5b505050506040513d601f19601f820116820180604052508101906116bf9190612c3b565b73ffffffffffffffffffffffffffffffffffffffff1663a7f2a70b83898989896040518663ffffffff1660e01b81526004016116ff959493929190613a20565b6020604051808303816000875af115801561171e573d6000803e3d6000fd5b505050506040513d601f19601f820116820180604052508101906117429190612c3b565b5073ffffffffffffffffffffffffffffffffffffffff7f000000000000000000000000000000000000000000000000000000000000000016637b621d3a83611791610100870160e08801612d23565b7f000000000000000000000000000000000000000000000000000000000000000073ffffffffffffffffffffffffffffffffffffffff166360b3042c6040518163ffffffff1660e01b8152600401602060405180830381865afa1580156117fc573d6000803e3d6000fd5b505050506040513d601f19601f820116820180604052508101906118209190612cd5565b7f000000000000000000000000000000000000000000000000000000000000000073ffffffffffffffffffffffffffffffffffffffff1663737a79966040518163ffffffff1660e01b8152600401602060405180830381865afa15801561188b573d6000803e3d6000fd5b505050506040513d601f19601f820116820180604052508101906118af9190612cd5565b6040517fffffffff0000000000000000000000000000000000000000000000000000000060e087901b168152600481019490945262ffffff909216602484015263ffffffff908116604484015216606482015261eeee608482015260a4016020604051808303816000875af115801561192c573d6000803e3d6000fd5b505050506040513d601f19601f820116820180604052508101906119509190612c3b565b507f000000000000000000000000000000000000000000000000000000000000000073ffffffffffffffffffffffffffffffffffffffff1663111d861b83604051806080016040528087606001358152602001601288600001356119b49190612e97565b8152604088810135602080840191909152600092820183905281516102a081018352610240810184815261026082018590526102808201859052815260a0808c0135828401526080808d013583860152606083018690528201859052810184905260c0810184905260e081018490526001610100820181905261012082018590526101408201859052610160820185905261018082018590526101a082018590526101c08201526101e0810184905273ffffffffffffffffffffffffffffffffffffffff7f00000000000000000000000000000000000000000000000000000000000000001661020082015261022081018490528251848152918201909252909190879082611b36565b611b236040518060c00160405280600073ffffffffffffffffffffffffffffffffffffffff168152602001600073ffffffffffffffffffffffffffffffffffffffff168152602001600081526020016000815260200160008152602001600081525090565b815260200190600190039081611abe5790505b5060006040518863ffffffff1660e01b8152600401611b5b979695949392919061318d565b6020604051808303816000875af1158015611b7a573d6000803e3d6000fd5b505050506040513d601f19601f82011682018060405250810190611b9e9190612cd5565b5073ffffffffffffffffffffffffffffffffffffffff7f000000000000000000000000000000000000000000000000000000000000000016638ae9c07b83611beb60126020880135612e97565b8c8989604051602001611bff929190613a59565b6040516020818303038152906040526000806040518763ffffffff1660e01b8152600401611c32969594939291906132f3565b6020604051808303816000875af1158015611c51573d6000803e3d6000fd5b505050506040513d601f19601f82011682018060405250810190611c759190612cd5565b507f000000000000000000000000000000000000000000000000000000000000000073ffffffffffffffffffffffffffffffffffffffff16632bdfe0046040518163ffffffff1660e01b8152600401602060405180830381865afa158015611ce1573d6000803e3d6000fd5b505050506040513d601f19601f82011682018060405250810190611d059190612c3b565b73ffffffffffffffffffffffffffffffffffffffff1663ad007d636040518163ffffffff1660e01b8152600401602060405180830381865afa158015611d4f573d6000803e3d6000fd5b505050506040513d601f19601f82011682018060405250810190611d739190612c3b565b73ffffffffffffffffffffffffffffffffffffffff1663529cdd2e60405180606001604052808c73ffffffffffffffffffffffffffffffffffffffff1681526020018581526020016001805480602002602001604051908101604052809291908181526020018280548015611e0757602002820191906000526020600020905b815481526020019060010190808311611df3575b50505050508152506040518263ffffffff1660e01b8152600401611e2b9190613348565b600060405180830381600087803b158015611e4557600080fd5b505af1158015611e59573d6000803e3d6000fd5b50611e6e9250505060e0840160c085016133b9565b611e809065ffffffffffff16426133e1565b60008381526002602052604090205550979650505050505050565b604080516000808252602082019092526060908190839081611ee7565b60408051606080820183526000808352602083015291810191909152815260200190600190039081611eb85790505b5060408051602081019091526000815291969195509350915050565b60036020528160005260406000208181548110611f1f57600080fd5b600091825260209091206003909102018054600182015460028301805473ffffffffffffffffffffffffffffffffffffffff909316955090935090611f63906133f4565b80601f0160208091040260200160405190810160405280929190818152602001828054611f8f906133f4565b8015611fdc5780601f10611fb157610100808354040283529160200191611fdc565b820191906000526020600020905b815481529060010190602001808311611fbf57829003601f168201915b5050505050905083565b600060608060607f000000000000000000000000000000000000000000000000000000000000000073ffffffffffffffffffffffffffffffffffffffff1663d46cf171866040518263ffffffff1660e01b81526004016120469190613ad4565b600060405180830381865afa158015612063573d6000803e3d6000fd5b505050506040513d6000823e601f3d9081017fffffffffffffffffffffffffffffffffffffffffffffffffffffffffffffffe01682016040526120a99190810190613c48565b60c088013560009081526003602090815260408083208054825181850281018501909352808352969a509396509194919350849084015b828210156121d15760008481526020908190206040805160608101825260038602909201805473ffffffffffffffffffffffffffffffffffffffff16835260018101549383019390935260028301805492939291840191612140906133f4565b80601f016020809104026020016040519081016040528092919081815260200182805461216c906133f4565b80156121b95780601f1061218e576101008083540402835291602001916121b9565b820191906000526020600020905b81548152906001019060200180831161219c57829003601f168201915b505050505081525050815260200190600101906120e0565b505082519293506121e7915082905060016133e1565b67ffffffffffffffff8111156121ff576121ff612476565b60405190808252806020026020018201604052801561224c57816020015b6040805160608082018352600080835260208301529181019190915281526020019060019003908161221d5790505b50935060005b818110156122995782818151811061226c5761226c612c58565b602002602001015185828151811061228657612286612c58565b6020908102919091010152600101612252565b50826000815181106122ad576122ad612c58565b60200260200101518482815181106122c7576122c7612c58565b60209081029190910101526122e0610160880188613dc1565b8080601f016020809104026020016040519081016040528093929190818152602001838380828437600092019190915250989a9299509597509095505050505050565b60006020828403121561233557600080fd5b81357fffffffff000000000000000000000000000000000000000000000000000000008116811461236557600080fd5b9392505050565b60006020828403121561237e57600080fd5b5035919050565b73ffffffffffffffffffffffffffffffffffffffff811681146123a757600080fd5b50565b80356123b581612385565b919050565b60008083601f8401126123cc57600080fd5b50813567ffffffffffffffff8111156123e457600080fd5b6020830191508360208285010111156123fc57600080fd5b9250929050565b60008060008060006080868803121561241b57600080fd5b853561242681612385565b9450602086013561243681612385565b935060408601359250606086013567ffffffffffffffff81111561245957600080fd5b612465888289016123ba565b969995985093965092949392505050565b7f4e487b7100000000000000000000000000000000000000000000000000000000600052604160045260246000fd5b6040516060810167ffffffffffffffff811182821017156124c8576124c8612476565b60405290565b604051610240810167ffffffffffffffff811182821017156124c8576124c8612476565b604051610120810167ffffffffffffffff811182821017156124c8576124c8612476565b604051601f82017fffffffffffffffffffffffffffffffffffffffffffffffffffffffffffffffe016810167ffffffffffffffff8111828210171561255d5761255d612476565b604052919050565b600067ffffffffffffffff82111561257f5761257f612476565b50601f017fffffffffffffffffffffffffffffffffffffffffffffffffffffffffffffffe01660200190565b60006125be6125b984612565565b612516565b90508281528383830111156125d257600080fd5b828260208301376000602084830101529392505050565b600082601f8301126125fa57600080fd5b612365838335602085016125ab565b60006040828403121561261b57600080fd5b6040516040810167ffffffffffffffff828210818311171561263f5761263f612476565b81604052829350843591508082111561265757600080fd5b50612664858286016125e9565b825250602083013560208201525092915050565b6000610100828403121561268b57600080fd5b50919050565b600067ffffffffffffffff8211156126ab576126ab612476565b5060051b60200190565b600082601f8301126126c657600080fd5b813560206126d66125b983612691565b82815260059290921b840181019181810190868411156126f557600080fd5b8286015b848110156127c257803567ffffffffffffffff8082111561271a5760008081fd5b81890191506060807fffffffffffffffffffffffffffffffffffffffffffffffffffffffffffffffe0848d030112156127535760008081fd5b61275b6124a5565b8784013561276881612385565b8152604084810135898301529184013591838311156127875760008081fd5b82850194508c603f86011261279e57600093508384fd5b6127ae8d8a8701358388016125ab565b9082015286525050509183019183016126f9565b509695505050505050565b803560ff811681146123b557600080fd5b60008060008060008060006101c0888a0312156127fa57600080fd5b612803886123aa565b9650602088013567ffffffffffffffff8082111561282057600080fd5b61282c8b838c01612609565b975060408a013591508082111561284257600080fd5b61284e8b838c016125e9565b965060608a013591508082111561286457600080fd5b6128708b838c016125e9565b955061287f8b60808c01612678565b94506101808a013591508082111561289657600080fd5b506128a38a828b016126b5565b9250506128b36101a089016127cd565b905092959891949750929550565b6000806000806000806000610180888a0312156128dd57600080fd5b87356128e881612385565b9650602088013567ffffffffffffffff8082111561290557600080fd5b908901906040828c03121561291957600080fd5b9096506040890135908082111561292f57600080fd5b61293b8b838c016123ba565b909750955060608a013591508082111561295457600080fd5b506129618a828b016123ba565b90945092506128b390508960808a01612678565b60006020828403121561298757600080fd5b813567ffffffffffffffff81111561299e57600080fd5b82016101e0818503121561236557600080fd5b60005b838110156129cc5781810151838201526020016129b4565b50506000910152565b600081518084526129ed8160208601602086016129b1565b601f017fffffffffffffffffffffffffffffffffffffffffffffffffffffffffffffffe0169290920160200192915050565b6000606085835260208181850152612a39828501876129d5565b6040858203818701528187518084528484019150848160051b850101858a0160005b83811015612ad6578683037fffffffffffffffffffffffffffffffffffffffffffffffffffffffffffffffe00185528151805173ffffffffffffffffffffffffffffffffffffffff16845288810151898501528601518684018a9052612ac38a8501826129d5565b9589019593505090870190600101612a5b565b50909c9b505050505050505050505050565b60008060408385031215612afb57600080fd5b50508035926020909101359150565b73ffffffffffffffffffffffffffffffffffffffff84168152826020820152606060408201526000612b3f60608301846129d5565b95945050505050565b600060208284031215612b5a57600080fd5b813567ffffffffffffffff811115612b7157600080fd5b82016101a0818503121561236557600080fd5b6000606085835260208181850152612b9e828501876129d5565b6040858203818701528187518084528484019150848160051b850101858a0160005b83811015612ad6578683037fffffffffffffffffffffffffffffffffffffffffffffffffffffffffffffffe00185528151805173ffffffffffffffffffffffffffffffffffffffff16845288810151898501528601518684018a9052612c288a8501826129d5565b9589019593505090870190600101612bc0565b600060208284031215612c4d57600080fd5b815161236581612385565b7f4e487b7100000000000000000000000000000000000000000000000000000000600052603260045260246000fd5b73ffffffffffffffffffffffffffffffffffffffff831681526040602082015260008251604080840152612cbe60808401826129d5565b905060208401516060840152809150509392505050565b600060208284031215612ce757600080fd5b5051919050565b838152606060208201526000612d0760608301856129d5565b8281036040840152612d1981856129d5565b9695505050505050565b600060208284031215612d3557600080fd5b813562ffffff8116811461236557600080fd5b7f4e487b7100000000000000000000000000000000000000000000000000000000600052601160045260246000fd5b600181815b80851115612dd057817fffffffffffffffffffffffffffffffffffffffffffffffffffffffffffffffff04821115612db657612db6612d48565b80851615612dc357918102915b93841c9390800290612d7c565b509250929050565b600082612de75750600161034b565b81612df45750600061034b565b8160018114612e0a5760028114612e1457612e30565b600191505061034b565b60ff841115612e2557612e25612d48565b50506001821b61034b565b5060208310610133831016604e8410600b8410161715612e53575081810a61034b565b612e5d8383612d77565b807fffffffffffffffffffffffffffffffffffffffffffffffffffffffffffffffff04821115612e8f57612e8f612d48565b029392505050565b600061236560ff841683612dd8565b612ecb8282518051151582526020808201511515908301526040908101511515910152565b6020810151606083015260408101516080830152606081015160a08301526080810151612efc60c084018215159052565b5060a081015180151560e08401525060c0810151610100612f208185018315159052565b60e08301519150610120612f378186018415159052565b90830151915061014090612f4e8583018415159052565b8301519150610160612f638582018415159052565b90830151915061018090612f7a8583018415159052565b83015191506101a0612f8f8582018415159052565b9083015191506101c090612fa68583018415159052565b83015191506101e0612fbb8582018415159052565b90830151915061020090612fd28583018415159052565b8301519150610220612fe78582018415159052565b9083015173ffffffffffffffffffffffffffffffffffffffff16610240850152909101516102609092019190915250565b600081518084526020808501808196508360051b810191508286016000805b868110156130f7578385038a52825180518652860151604087870181905281518188018190529188019160609081890190865b818110156130e05785518051151584528c81015115158d8501528581015186850152848101518585015260808082015173ffffffffffffffffffffffffffffffffffffffff9081169186019190915260a0808301519086015260c0918201511690840152948b019460e09092019160010161306a565b50509c89019c975050509286019250600101613037565b509298975050505050505050565b600081518084526020808501945080840160005b83811015613182578151805173ffffffffffffffffffffffffffffffffffffffff908116895284820151168489015260408082015190890152606080820151908901526080808201519089015260a0908101519088015260c09096019590820190600101613119565b509495945050505050565b60006103c089835260206131da8185018b80518252602081015160208301526040810151604083015273ffffffffffffffffffffffffffffffffffffffff60608201511660608301525050565b6131e760a085018a612ea6565b876103208501528161034085015261320182850188613018565b91508382036103608501526132168287613105565b848103610380860152855480825260008781528381209450918301915b8181101561326557845473ffffffffffffffffffffffffffffffffffffffff1683526001948501949284019201613233565b50508481036103a0860152601b81527f4465706c6f7965642052657461696c69737420747265617375727900000000006020820152604081019c9b505050505050505050505050565b7f5072656d696e74656420240000000000000000000000000000000000000000008152600082516132e681600b8501602087016129b1565b91909101600b0192915050565b86815285602082015273ffffffffffffffffffffffffffffffffffffffff8516604082015260c06060820152600061332e60c08301866129d5565b93151560808301525090151560a090910152949350505050565b600060208083526080830173ffffffffffffffffffffffffffffffffffffffff85511682850152818501516040850152604085015160608086015281815180845260a0870191508483019350600092505b808310156127c25783518252928401926001929092019190840190613399565b6000602082840312156133cb57600080fd5b813565ffffffffffff8116811461236557600080fd5b8082018082111561034b5761034b612d48565b600181811c9082168061340857607f821691505b60208210810361268b577f4e487b7100000000000000000000000000000000000000000000000000000000600052602260045260246000fd5b601f82111561348b57600081815260208120601f850160051c810160208610156134685750805b601f850160051c820191505b8181101561348757828155600101613474565b5050505b505050565b815167ffffffffffffffff8111156134aa576134aa612476565b6134be816134b884546133f4565b84613441565b602080601f83116001811461351157600084156134db5750858301515b7fffffffffffffffffffffffffffffffffffffffffffffffffffffffffffffffff600386901b1c1916600185901b178555613487565b6000858152602081207fffffffffffffffffffffffffffffffffffffffffffffffffffffffffffffffe08616915b8281101561355e5788860151825594840194600190910190840161353f565b508582101561359a57878501517fffffffffffffffffffffffffffffffffffffffffffffffffffffffffffffffff600388901b60f8161c191681555b5050505050600190811b01905550565b80516123b581612385565b805180151581146123b557600080fd5b6000606082840312156135d757600080fd5b6135df6124a5565b90506135ea826135b5565b81526135f8602083016135b5565b6020820152613609604083016135b5565b604082015292915050565b6000610280828403121561362757600080fd5b61362f6124ce565b905061363b83836135c5565b8152606082015160208201526080820151604082015260a0820151606082015261366760c083016135b5565b608082015261367860e083016135b5565b60a082015261010061368b8184016135b5565b60c083015261012061369e8185016135b5565b60e08401526101406136b18186016135b5565b8385015261016092506136c58386016135b5565b8285015261018091506136d98286016135b5565b908401526101a06136eb8582016135b5565b838501526101c092506136ff8386016135b5565b828501526101e091506137138286016135b5565b908401526102006137258582016135b5565b8385015261022092506137398386016135b5565b8285015261374a61024086016135aa565b818501525050610260830151818301525092915050565b8051600381106123b557600080fd5b60008060008385036103c081121561378757600080fd5b6101208082121561379757600080fd5b61379f6124f2565b9150855182526020860151602083015260408601516040830152606086015160608301526080860151608083015260a086015160a083015260c086015160c08301526137ed60e087016135aa565b60e083015261010080870151818401525081945061380d87828801613614565b9350505061381e6103a08501613761565b90509250925092565b60006103a0888352613873602084018980518252602081015160208301526040810151604083015273ffffffffffffffffffffffffffffffffffffffff60608201511660608301525050565b61388060a0840188612ea6565b856103208401528061034084015261389a81840186613018565b90508281036103608401526138af8185613105565b838103610380909401939093525050602c81527f5363686564756c656420626f6f737420657870697279206f662052657461696c60208201527f697374207472656173757279000000000000000000000000000000000000000060408201526060019695505050505050565b60008083357fffffffffffffffffffffffffffffffffffffffffffffffffffffffffffffffe184360301811261395057600080fd5b830160208101925035905067ffffffffffffffff81111561397057600080fd5b8036038213156123fc57600080fd5b8183528181602085013750600060208284010152600060207fffffffffffffffffffffffffffffffffffffffffffffffffffffffffffffffe0601f840116840101905092915050565b73ffffffffffffffffffffffffffffffffffffffff831681526040602082015260006139f4838461391b565b604080850152613a0860808501828461397f565b91505060208401356060840152809150509392505050565b858152606060208201526000613a3a60608301868861397f565b8281036040840152613a4d81858761397f565b98975050505050505050565b7f5072656d696e746564202400000000000000000000000000000000000000000081528183600b83013760009101600b01908152919050565b8035613a9d81612385565b73ffffffffffffffffffffffffffffffffffffffff1682526020818101359083015260408082013590830152606090810135910152565b60208152613b0260208201613ae8846123aa565b73ffffffffffffffffffffffffffffffffffffffff169052565b6000613b10602084016123aa565b73ffffffffffffffffffffffffffffffffffffffff8116604084015250613b3d6060830160408501613a92565b60c083013560e083015261010060e084013581840152613b5e8185016123aa565b9050610120613b848185018373ffffffffffffffffffffffffffffffffffffffff169052565b61014091508085013582850152506101608185013581850152613ba98186018661391b565b925090506101a06101808181870152613bc76101c08701858561397f565b9350613bd58188018861391b565b935090507fffffffffffffffffffffffffffffffffffffffffffffffffffffffffffffffe08685030182870152613c0d84848361397f565b979650505050505050565b6000613c266125b984612565565b9050828152838383011115613c3a57600080fd5b6123658360208301846129b1565b600080600060608486031215613c5d57600080fd5b8351925060208085015167ffffffffffffffff80821115613c7d57600080fd5b818701915087601f830112613c9157600080fd5b613c9f888351858501613c18565b94506040870151915080821115613cb557600080fd5b818701915087601f830112613cc957600080fd5b8151613cd76125b982612691565b81815260059190911b8301840190848101908a831115613cf657600080fd5b8585015b83811015613db057805185811115613d1157600080fd5b86016060818e037fffffffffffffffffffffffffffffffffffffffffffffffffffffffffffffffe0011215613d4557600080fd5b613d4d6124a5565b88820151613d5a81612385565b8152604082015189820152606082015187811115613d7757600080fd5b8083019250508d603f830112613d8c57600080fd5b613d9d8e8a84015160408501613c18565b6040820152845250918601918601613cfa565b508096505050505050509250925092565b60008083357fffffffffffffffffffffffffffffffffffffffffffffffffffffffffffffffe1843603018112613df657600080fd5b83018035915067ffffffffffffffff821115613e1157600080fd5b6020019150368190038213156123fc57600080fdfea2646970667358221220245d0c2d86bb18127fb0759bbd381532e5e6fa14b060b2d171158b0fe5924b2464736f6c63430008150033",
    "linkReferences": {}
  },
  "methodIdentifiers": {
    "buybackDelegate()": "d3967525",
    "controller()": "f77c4791",
    "delegateAllocationsOf(uint256,uint256)": "abc603e3",
    "deployBasicProjectFor(address,(string,uint256),string,string,(uint256,uint256,uint256,uint256,uint256,uint256,uint48,uint24))": "9a739a6d",
    "deployPayAllocatorProjectFor(address,(string,uint256),string,string,(uint256,uint256,uint256,uint256,uint256,uint256,uint48,uint24),(address,uint256,bytes)[],uint8)": "181f8e80",
    "onERC721Received(address,address,uint256,bytes)": "150b7a02",
    "payParams((address,address,(address,uint256,uint256,uint256),uint256,uint256,address,uint256,uint256,string,bytes))": "d46cf171",
    "permissionIndexes(uint256)": "9483e771",
    "reconfigurationStartTimestampOf(uint256)": "560f7b03",
    "redeemParams((address,address,uint256,uint256,uint256,uint256,uint256,(address,uint256,uint256,uint256),bool,uint256,string,bytes))": "a51cfd18",
    "scheduleReconfigurationOf(uint256)": "3ce6d3e2",
    "supportsInterface(bytes4)": "01ffc9a7",
    "terminals(uint256)": "0219758e"
  },
  "id": 104
}