{
  "abi": [
    {
      "inputs": [
        {
          "internalType": "contract IJBController3_1",
          "name": "_controller",
          "type": "address"
        }
      ],
      "stateMutability": "nonpayable",
      "type": "constructor"
    },
    {
      "inputs": [],
      "name": "RECONFIGURATION_ALREADY_SCHEDULED",
      "type": "error"
    },
    {
      "inputs": [
        {
          "internalType": "uint256",
          "name": "",
          "type": "uint256"
        }
      ],
      "name": "buybackDelegateDataSourceOf",
      "outputs": [
        {
          "internalType": "contract IJBFundingCycleDataSource3_1_1",
          "name": "",
          "type": "address"
        }
      ],
      "stateMutability": "view",
      "type": "function"
    },
    {
      "inputs": [],
      "name": "controller",
      "outputs": [
        {
          "internalType": "contract IJBController3_1",
          "name": "",
          "type": "address"
        }
      ],
      "stateMutability": "view",
      "type": "function"
    },
    {
      "inputs": [
        {
          "internalType": "uint256",
          "name": "",
          "type": "uint256"
        },
        {
          "internalType": "uint256",
          "name": "",
          "type": "uint256"
        }
      ],
      "name": "delegateAllocationsOf",
      "outputs": [
        {
          "internalType": "contract IJBPayDelegate3_1_1",
          "name": "delegate",
          "type": "address"
        },
        {
          "internalType": "uint256",
          "name": "amount",
          "type": "uint256"
        },
        {
          "internalType": "bytes",
          "name": "metadata",
          "type": "bytes"
        }
      ],
      "stateMutability": "view",
      "type": "function"
    },
    {
      "inputs": [
        {
          "internalType": "address",
          "name": "_operator",
          "type": "address"
        },
        {
          "components": [
            {
              "internalType": "string",
              "name": "content",
              "type": "string"
            },
            {
              "internalType": "uint256",
              "name": "domain",
              "type": "uint256"
            }
          ],
          "internalType": "struct JBProjectMetadata",
          "name": "_projectMetadata",
          "type": "tuple"
        },
        {
          "internalType": "string",
          "name": "_name",
          "type": "string"
        },
        {
          "internalType": "string",
          "name": "_symbol",
          "type": "string"
        },
        {
          "components": [
            {
              "internalType": "uint256",
              "name": "initialIssuanceRate",
              "type": "uint256"
            },
            {
              "internalType": "uint256",
              "name": "premintTokenAmount",
              "type": "uint256"
            },
            {
              "internalType": "uint256",
              "name": "discountRate",
              "type": "uint256"
            },
            {
              "internalType": "uint256",
              "name": "cycleDurations",
              "type": "uint256"
            },
            {
              "internalType": "uint256",
              "name": "redemptionRate",
              "type": "uint256"
            },
            {
              "internalType": "uint256",
              "name": "reservedRate",
              "type": "uint256"
            },
            {
              "internalType": "uint48",
              "name": "reservedRateDuration",
              "type": "uint48"
            },
            {
              "internalType": "uint24",
              "name": "poolFee",
              "type": "uint24"
            }
          ],
          "internalType": "struct BasicRetailistJBParams",
          "name": "_data",
          "type": "tuple"
        },
        {
          "internalType": "contract IJBPaymentTerminal[]",
          "name": "_terminals",
          "type": "address[]"
        },
        {
          "internalType": "contract IJBGenericBuybackDelegate",
          "name": "_buybackDelegate",
          "type": "address"
        }
      ],
      "name": "deployBasicProjectFor",
      "outputs": [
        {
          "internalType": "uint256",
          "name": "projectId",
          "type": "uint256"
        }
      ],
      "stateMutability": "nonpayable",
      "type": "function"
    },
    {
      "inputs": [
        {
          "internalType": "address",
          "name": "_operator",
          "type": "address"
        },
        {
          "components": [
            {
              "internalType": "string",
              "name": "content",
              "type": "string"
            },
            {
              "internalType": "uint256",
              "name": "domain",
              "type": "uint256"
            }
          ],
          "internalType": "struct JBProjectMetadata",
          "name": "_projectMetadata",
          "type": "tuple"
        },
        {
          "internalType": "string",
          "name": "_name",
          "type": "string"
        },
        {
          "internalType": "string",
          "name": "_symbol",
          "type": "string"
        },
        {
          "components": [
            {
              "internalType": "uint256",
              "name": "initialIssuanceRate",
              "type": "uint256"
            },
            {
              "internalType": "uint256",
              "name": "premintTokenAmount",
              "type": "uint256"
            },
            {
              "internalType": "uint256",
              "name": "discountRate",
              "type": "uint256"
            },
            {
              "internalType": "uint256",
              "name": "cycleDurations",
              "type": "uint256"
            },
            {
              "internalType": "uint256",
              "name": "redemptionRate",
              "type": "uint256"
            },
            {
              "internalType": "uint256",
              "name": "reservedRate",
              "type": "uint256"
            },
            {
              "internalType": "uint48",
              "name": "reservedRateDuration",
              "type": "uint48"
            },
            {
              "internalType": "uint24",
              "name": "poolFee",
              "type": "uint24"
            }
          ],
          "internalType": "struct BasicRetailistJBParams",
          "name": "_data",
          "type": "tuple"
        },
        {
          "internalType": "contract IJBPaymentTerminal[]",
          "name": "_terminals",
          "type": "address[]"
        },
        {
          "internalType": "contract IJBGenericBuybackDelegate",
          "name": "_buybackDelegate",
          "type": "address"
        },
        {
          "components": [
            {
              "internalType": "contract IJBPayDelegate3_1_1",
              "name": "delegate",
              "type": "address"
            },
            {
              "internalType": "uint256",
              "name": "amount",
              "type": "uint256"
            },
            {
              "internalType": "bytes",
              "name": "metadata",
              "type": "bytes"
            }
          ],
          "internalType": "struct JBPayDelegateAllocation3_1_1[]",
          "name": "_delegateAllocations",
          "type": "tuple[]"
        },
        {
          "internalType": "uint8",
          "name": "_extraFundingCycleMetadata",
          "type": "uint8"
        }
      ],
      "name": "deployPayAllocatorProjectFor",
      "outputs": [
        {
          "internalType": "uint256",
          "name": "projectId",
          "type": "uint256"
        }
      ],
      "stateMutability": "nonpayable",
      "type": "function"
    },
    {
      "inputs": [
        {
          "internalType": "address",
          "name": "_operator",
          "type": "address"
        },
        {
          "internalType": "address",
          "name": "_from",
          "type": "address"
        },
        {
          "internalType": "uint256",
          "name": "_tokenId",
          "type": "uint256"
        },
        {
          "internalType": "bytes",
          "name": "_data",
          "type": "bytes"
        }
      ],
      "name": "onERC721Received",
      "outputs": [
        {
          "internalType": "bytes4",
          "name": "",
          "type": "bytes4"
        }
      ],
      "stateMutability": "view",
      "type": "function"
    },
    {
      "inputs": [
        {
          "components": [
            {
              "internalType": "contract IJBPaymentTerminal",
              "name": "terminal",
              "type": "address"
            },
            {
              "internalType": "address",
              "name": "payer",
              "type": "address"
            },
            {
              "components": [
                {
                  "internalType": "address",
                  "name": "token",
                  "type": "address"
                },
                {
                  "internalType": "uint256",
                  "name": "value",
                  "type": "uint256"
                },
                {
                  "internalType": "uint256",
                  "name": "decimals",
                  "type": "uint256"
                },
                {
                  "internalType": "uint256",
                  "name": "currency",
                  "type": "uint256"
                }
              ],
              "internalType": "struct JBTokenAmount",
              "name": "amount",
              "type": "tuple"
            },
            {
              "internalType": "uint256",
              "name": "projectId",
              "type": "uint256"
            },
            {
              "internalType": "uint256",
              "name": "currentFundingCycleConfiguration",
              "type": "uint256"
            },
            {
              "internalType": "address",
              "name": "beneficiary",
              "type": "address"
            },
            {
              "internalType": "uint256",
              "name": "weight",
              "type": "uint256"
            },
            {
              "internalType": "uint256",
              "name": "reservedRate",
              "type": "uint256"
            },
            {
              "internalType": "string",
              "name": "memo",
              "type": "string"
            },
            {
              "internalType": "bytes",
              "name": "metadata",
              "type": "bytes"
            }
          ],
          "internalType": "struct JBPayParamsData",
          "name": "_data",
          "type": "tuple"
        }
      ],
      "name": "payParams",
      "outputs": [
        {
          "internalType": "uint256",
          "name": "weight",
          "type": "uint256"
        },
        {
          "internalType": "string",
          "name": "memo",
          "type": "string"
        },
        {
          "components": [
            {
              "internalType": "contract IJBPayDelegate3_1_1",
              "name": "delegate",
              "type": "address"
            },
            {
              "internalType": "uint256",
              "name": "amount",
              "type": "uint256"
            },
            {
              "internalType": "bytes",
              "name": "metadata",
              "type": "bytes"
            }
          ],
          "internalType": "struct JBPayDelegateAllocation3_1_1[]",
          "name": "delegateAllocations",
          "type": "tuple[]"
        }
      ],
      "stateMutability": "view",
      "type": "function"
    },
    {
      "inputs": [
        {
          "internalType": "uint256",
          "name": "",
          "type": "uint256"
        }
      ],
      "name": "permissionIndexes",
      "outputs": [
        {
          "internalType": "uint256",
          "name": "",
          "type": "uint256"
        }
      ],
      "stateMutability": "view",
      "type": "function"
    },
    {
      "inputs": [
        {
          "internalType": "uint256",
          "name": "projectId",
          "type": "uint256"
        }
      ],
      "name": "reconfigurationStartTimestampOf",
      "outputs": [
        {
          "internalType": "uint256",
          "name": "",
          "type": "uint256"
        }
      ],
      "stateMutability": "view",
      "type": "function"
    },
    {
      "inputs": [
        {
          "components": [
            {
              "internalType": "contract IJBPaymentTerminal",
              "name": "terminal",
              "type": "address"
            },
            {
              "internalType": "address",
              "name": "holder",
              "type": "address"
            },
            {
              "internalType": "uint256",
              "name": "projectId",
              "type": "uint256"
            },
            {
              "internalType": "uint256",
              "name": "currentFundingCycleConfiguration",
              "type": "uint256"
            },
            {
              "internalType": "uint256",
              "name": "tokenCount",
              "type": "uint256"
            },
            {
              "internalType": "uint256",
              "name": "totalSupply",
              "type": "uint256"
            },
            {
              "internalType": "uint256",
              "name": "overflow",
              "type": "uint256"
            },
            {
              "components": [
                {
                  "internalType": "address",
                  "name": "token",
                  "type": "address"
                },
                {
                  "internalType": "uint256",
                  "name": "value",
                  "type": "uint256"
                },
                {
                  "internalType": "uint256",
                  "name": "decimals",
                  "type": "uint256"
                },
                {
                  "internalType": "uint256",
                  "name": "currency",
                  "type": "uint256"
                }
              ],
              "internalType": "struct JBTokenAmount",
              "name": "reclaimAmount",
              "type": "tuple"
            },
            {
              "internalType": "bool",
              "name": "useTotalOverflow",
              "type": "bool"
            },
            {
              "internalType": "uint256",
              "name": "redemptionRate",
              "type": "uint256"
            },
            {
              "internalType": "string",
              "name": "memo",
              "type": "string"
            },
            {
              "internalType": "bytes",
              "name": "metadata",
              "type": "bytes"
            }
          ],
          "internalType": "struct JBRedeemParamsData",
          "name": "_data",
          "type": "tuple"
        }
      ],
      "name": "redeemParams",
      "outputs": [
        {
          "internalType": "uint256",
          "name": "",
          "type": "uint256"
        },
        {
          "internalType": "string",
          "name": "",
          "type": "string"
        },
        {
          "components": [
            {
              "internalType": "contract IJBRedemptionDelegate3_1_1",
              "name": "delegate",
              "type": "address"
            },
            {
              "internalType": "uint256",
              "name": "amount",
              "type": "uint256"
            },
            {
              "internalType": "bytes",
              "name": "metadata",
              "type": "bytes"
            }
          ],
          "internalType": "struct JBRedemptionDelegateAllocation3_1_1[]",
          "name": "",
          "type": "tuple[]"
        }
      ],
      "stateMutability": "view",
      "type": "function"
    },
    {
      "inputs": [
        {
          "internalType": "uint256",
          "name": "_projectId",
          "type": "uint256"
        }
      ],
      "name": "scheduleReconfigurationOf",
      "outputs": [],
      "stateMutability": "nonpayable",
      "type": "function"
    },
    {
      "inputs": [
        {
          "internalType": "bytes4",
          "name": "_interfaceId",
          "type": "bytes4"
        }
      ],
      "name": "supportsInterface",
      "outputs": [
        {
          "internalType": "bool",
          "name": "",
          "type": "bool"
        }
      ],
      "stateMutability": "view",
      "type": "function"
    }
  ],
  "bytecode": {
    "object": "0x60a06040523480156200001157600080fd5b5060405162003f4638038062003f46833981016040819052620000349162000088565b6001600160a01b0316608052600080546001818101835582805260127f290decd9548b62a8d60345a988386fc84ba6bc95484008f6362f93160ef3e5639283015582549081019092556018910155620000ba565b6000602082840312156200009b57600080fd5b81516001600160a01b0381168114620000b357600080fd5b9392505050565b608051613e15620001316000396000818161028701528181610346015281816105db015281816106e90152818161099a01528181610c7501528181610d4c0152818161107a0152818161122d015281816119bd01528181611acb01528181611d7c01528181611fa901526120800152613e156000f3fe608060405234801561001057600080fd5b50600436106100d45760003560e01c8063a51cfd1811610081578063d87b09e31161005b578063d87b09e314610214578063ef8eadd514610227578063f77c47911461028257600080fd5b8063a51cfd18146101ae578063abc603e3146101d0578063d46cf171146101f257600080fd5b80633ce6d3e2116100b25780633ce6d3e214610166578063560f7b031461017b5780639483e7711461019b57600080fd5b806301ffc9a7146100d9578063150b7a02146101015780631f84209a14610145575b600080fd5b6100ec6100e7366004612297565b6102a9565b60405190151581526020015b60405180910390f35b61011461010f366004612315565b610342565b6040517fffffffff0000000000000000000000000000000000000000000000000000000090911681526020016100f8565b610158610153366004612826565b610456565b6040519081526020016100f8565b61017961017436600461293f565b611031565b005b61015861018936600461293f565b60016020526000908152604090205481565b6101586101a936600461293f565b611382565b6101c16101bc366004612958565b6113a3565b6040516100f893929190612a02565b6101e36101de366004612acb565b61140b565b6040516100f893929190612aed565b610205610200366004612b2b565b6114ee565b6040516100f893929190612b67565b610158610222366004612c1e565b611837565b61025d61023536600461293f565b60026020526000908152604090205473ffffffffffffffffffffffffffffffffffffffff1681565b60405173ffffffffffffffffffffffffffffffffffffffff90911681526020016100f8565b61025d7f000000000000000000000000000000000000000000000000000000000000000081565b60007fffffffff0000000000000000000000000000000000000000000000000000000082167f71700c6900000000000000000000000000000000000000000000000000000000148061033c57507f150b7a02000000000000000000000000000000000000000000000000000000007fffffffff000000000000000000000000000000000000000000000000000000008316145b92915050565b60007f000000000000000000000000000000000000000000000000000000000000000073ffffffffffffffffffffffffffffffffffffffff16638b79543c6040518163ffffffff1660e01b8152600401602060405180830381865afa1580156103af573d6000803e3d6000fd5b505050506040513d601f19601f820116820180604052508101906103d39190612d01565b73ffffffffffffffffffffffffffffffffffffffff163373ffffffffffffffffffffffffffffffffffffffff161461040a57600080fd5b73ffffffffffffffffffffffffffffffffffffffff85161561042b57600080fd5b507f150b7a020000000000000000000000000000000000000000000000000000000095945050505050565b604080516001808252818301909252600091829190816020015b60408051808201909152600081526060602082015281526020019060019003908161047057505060408051600180825281830190925291925060009190602082015b6040805160e08101825260008082526020808301829052928201819052606082018190526080820181905260a0820181905260c082015282527fffffffffffffffffffffffffffffffffffffffffffffffffffffffffffffffff9092019101816104b25790505090506040518060e00160405280600015158152602001600015158152602001633b9aca008152602001600081526020018d73ffffffffffffffffffffffffffffffffffffffff16815260200160008152602001600073ffffffffffffffffffffffffffffffffffffffff168152508160018151811061059a5761059a612d1e565b602002602001018190525060405180604001604052806002815260200182815250826000815181106105ce576105ce612d1e565b60200260200101819052507f000000000000000000000000000000000000000000000000000000000000000073ffffffffffffffffffffffffffffffffffffffff16638b79543c6040518163ffffffff1660e01b8152600401602060405180830381865afa158015610644573d6000803e3d6000fd5b505050506040513d601f19601f820116820180604052508101906106689190612d01565b73ffffffffffffffffffffffffffffffffffffffff1663666d87a0308d6040518363ffffffff1660e01b81526004016106a2929190612d4d565b6020604051808303816000875af11580156106c1573d6000803e3d6000fd5b505050506040513d601f19601f820116820180604052508101906106e59190612d9b565b92507f000000000000000000000000000000000000000000000000000000000000000073ffffffffffffffffffffffffffffffffffffffff1663619306306040518163ffffffff1660e01b8152600401602060405180830381865afa158015610752573d6000803e3d6000fd5b505050506040513d601f19601f820116820180604052508101906107769190612d01565b73ffffffffffffffffffffffffffffffffffffffff1663a7f2a70b848c8c6040518463ffffffff1660e01b81526004016107b293929190612db4565b6020604051808303816000875af11580156107d1573d6000803e3d6000fd5b505050506040513d601f19601f820116820180604052508101906107f59190612d01565b508573ffffffffffffffffffffffffffffffffffffffff16637b621d3a848a60e001518973ffffffffffffffffffffffffffffffffffffffff166360b3042c6040518163ffffffff1660e01b8152600401602060405180830381865afa158015610863573d6000803e3d6000fd5b505050506040513d601f19601f820116820180604052508101906108879190612d9b565b8a73ffffffffffffffffffffffffffffffffffffffff1663737a79966040518163ffffffff1660e01b8152600401602060405180830381865afa1580156108d2573d6000803e3d6000fd5b505050506040513d601f19601f820116820180604052508101906108f69190612d9b565b6040517fffffffff0000000000000000000000000000000000000000000000000000000060e087901b168152600481019490945262ffffff909216602484015263ffffffff908116604484015216606482015261eeee608482015260a4016020604051808303816000875af1158015610973573d6000803e3d6000fd5b505050506040513d601f19601f820116820180604052508101906109979190612d01565b507f000000000000000000000000000000000000000000000000000000000000000073ffffffffffffffffffffffffffffffffffffffff1663111d861b8460405180608001604052808c60600151815260200160128d600001516109fb9190612f38565b81526020018c604001518152602001600073ffffffffffffffffffffffffffffffffffffffff1681525060405180610240016040528060405180606001604052806000151581526020016000151581526020016000151581525081526020018d60a0015181526020018d608001518152602001600081526020016000151581526020016000151581526020016000151581526020016000151581526020016001151581526020016000151581526020016000151581526020016000151581526020016000151581526020016000151581526020016001151581526020016000151581526020013073ffffffffffffffffffffffffffffffffffffffff1681526020018960ff16815250600087600067ffffffffffffffff811115610b2157610b216123b4565b604051908082528060200260200182016040528015610bb757816020015b610ba46040518060c00160405280600073ffffffffffffffffffffffffffffffffffffffff168152602001600073ffffffffffffffffffffffffffffffffffffffff168152602001600081526020016000815260200160008152602001600081525090565b815260200190600190039081610b3f5790505b508e6040518863ffffffff1660e01b8152600401610bdb979695949392919061322e565b6020604051808303816000875af1158015610bfa573d6000803e3d6000fd5b505050506040513d601f19601f82011682018060405250810190610c1e9190612d9b565b505050836002600083815260200190815260200160002060006101000a81548173ffffffffffffffffffffffffffffffffffffffff021916908373ffffffffffffffffffffffffffffffffffffffff1602179055507f000000000000000000000000000000000000000000000000000000000000000073ffffffffffffffffffffffffffffffffffffffff16638ae9c07b8260128960200151610cc19190612f38565b8d8b604051602001610cd3919061334c565b6040516020818303038152906040526000806040518763ffffffff1660e01b8152600401610d0696959493929190613391565b6020604051808303816000875af1158015610d25573d6000803e3d6000fd5b505050506040513d601f19601f82011682018060405250810190610d499190612d9b565b507f000000000000000000000000000000000000000000000000000000000000000073ffffffffffffffffffffffffffffffffffffffff16632bdfe0046040518163ffffffff1660e01b8152600401602060405180830381865afa158015610db5573d6000803e3d6000fd5b505050506040513d601f19601f82011682018060405250810190610dd99190612d01565b73ffffffffffffffffffffffffffffffffffffffff1663ad007d636040518163ffffffff1660e01b8152600401602060405180830381865afa158015610e23573d6000803e3d6000fd5b505050506040513d601f19601f82011682018060405250810190610e479190612d01565b73ffffffffffffffffffffffffffffffffffffffff1663529cdd2e60405180606001604052808d73ffffffffffffffffffffffffffffffffffffffff1681526020018481526020016000805480602002602001604051908101604052809291908181526020018280548015610edb57602002820191906000526020600020905b815481526020019060010190808311610ec7575b50505050508152506040518263ffffffff1660e01b8152600401610eff91906133e6565b600060405180830381600087803b158015610f1957600080fd5b505af1158015610f2d573d6000803e3d6000fd5b50505060c0870151610f48915065ffffffffffff1642613457565b6000828152600160205260408120919091558351905b8181101561102257848181518110610f7857610f78612d1e565b6020026020010151600360008581526020019081526020016000208281548110610fa457610fa4612d1e565b600091825260209182902083516003929092020180547fffffffffffffffffffffffff00000000000000000000000000000000000000001673ffffffffffffffffffffffffffffffffffffffff90921691909117815590820151600182015560408201516002820190611017908261350c565b505050600101610f5e565b50509998505050505050505050565b6040517f1f51045300000000000000000000000000000000000000000000000000000000815260048101829052600090819073ffffffffffffffffffffffffffffffffffffffff7f00000000000000000000000000000000000000000000000000000000000000001690631f510453906024016103c060405180830381865afa1580156110c2573d6000803e3d6000fd5b505050506040513d601f19601f820116820180604052508101906110e691906137ec565b5081519193509150600114611127576040517fc97554fa00000000000000000000000000000000000000000000000000000000815260040160405180910390fd5b60408051608080820183528481015182526000602080840182905260c08088015185870152606080860184905286516102a0810188526102408101858152610260820186905261028082018690528152808401859052888801518189015290810184905293840183905260a08401839052830182905260e08301829052610100830182905261012083018290526101408301829052610160830182905261018083018290526101a083018290526101c083018290526101e083018290526102008087015173ffffffffffffffffffffffffffffffffffffffff908116918501919091526102208781015190850152888352600182528583205486518481529283019096527f0000000000000000000000000000000000000000000000000000000000000000169463badbdf289489949093909290611288565b6040805180820190915260008152606060208201528152602001906001900390816112605790505b506040805160008082526020820190925290611317565b6113046040518060c00160405280600073ffffffffffffffffffffffffffffffffffffffff168152602001600073ffffffffffffffffffffffffffffffffffffffff168152602001600081526020016000815260200160008152602001600081525090565b81526020019060019003908161129f5790505b506040518763ffffffff1660e01b8152600401611339969594939291906138a3565b6020604051808303816000875af1158015611358573d6000803e3d6000fd5b505050506040513d601f19601f8201168201806040525081019061137c9190612d9b565b50505050565b6000818154811061139257600080fd5b600091825260209091200154905081565b6040805160008082526020820190925260609081908390816113ef565b604080516060808201835260008083526020830152918101919091528152602001906001900390816113c05790505b5060408051602081019091526000815291969195509350915050565b6003602052816000526040600020818154811061142757600080fd5b600091825260209091206003909102018054600182015460028301805473ffffffffffffffffffffffffffffffffffffffff90931695509093509061146b9061346a565b80601f01602080910402602001604051908101604052809291908181526020018280546114979061346a565b80156114e45780601f106114b9576101008083540402835291602001916114e4565b820191906000526020600020905b8154815290600101906020018083116114c757829003601f168201915b5050505050905083565b60c08101356000908152600260205260408082205490517fd46cf1710000000000000000000000000000000000000000000000000000000081526060918291829173ffffffffffffffffffffffffffffffffffffffff169063d46cf1719061155a908890600401613a8d565b600060405180830381865afa158015611577573d6000803e3d6000fd5b505050506040513d6000823e601f3d9081017fffffffffffffffffffffffffffffffffffffffffffffffffffffffffffffffe01682016040526115bd9190810190613c01565b60c088013560009081526003602090815260408083208054825181850281018501909352808352969a509396509194919350849084015b828210156116e55760008481526020908190206040805160608101825260038602909201805473ffffffffffffffffffffffffffffffffffffffff168352600181015493830193909352600283018054929392918401916116549061346a565b80601f01602080910402602001604051908101604052809291908181526020018280546116809061346a565b80156116cd5780601f106116a2576101008083540402835291602001916116cd565b820191906000526020600020905b8154815290600101906020018083116116b057829003601f168201915b505050505081525050815260200190600101906115f4565b505082519293506116fb91508290506001613457565b67ffffffffffffffff811115611713576117136123b4565b60405190808252806020026020018201604052801561176057816020015b604080516060808201835260008083526020830152918101919091528152602001906001900390816117315790505b50935060005b818110156117ad5782818151811061178057611780612d1e565b602002602001015185828151811061179a5761179a612d1e565b6020908102919091010152600101611766565b50826000815181106117c1576117c1612d1e565b60200260200101518482815181106117db576117db612d1e565b60209081029190910101526117f4610160880188613d7a565b8080601f016020809104026020016040519081016040528093929190818152602001838380828437600092019190915250989a9299509597509095505050505050565b604080516001808252818301909252600091829190816020015b60408051808201909152600081526060602082015281526020019060019003908161185157505060408051600180825281830190925291925060009190602082015b6040805160e08101825260008082526020808301829052928201819052606082018190526080820181905260a0820181905260c082015282527fffffffffffffffffffffffffffffffffffffffffffffffffffffffffffffffff9092019101816118935790505090506040518060e00160405280600015158152602001600015158152602001633b9aca008152602001600081526020018b73ffffffffffffffffffffffffffffffffffffffff16815260200160008152602001600073ffffffffffffffffffffffffffffffffffffffff168152508160018151811061197b5761197b612d1e565b602002602001018190525060405180604001604052806002815260200182815250826000815181106119af576119af612d1e565b6020026020010181905250507f000000000000000000000000000000000000000000000000000000000000000073ffffffffffffffffffffffffffffffffffffffff16638b79543c6040518163ffffffff1660e01b8152600401602060405180830381865afa158015611a26573d6000803e3d6000fd5b505050506040513d601f19601f82011682018060405250810190611a4a9190612d01565b73ffffffffffffffffffffffffffffffffffffffff1663666d87a0308a6040518363ffffffff1660e01b8152600401611a84929190612d4d565b6020604051808303816000875af1158015611aa3573d6000803e3d6000fd5b505050506040513d601f19601f82011682018060405250810190611ac79190612d9b565b91507f000000000000000000000000000000000000000000000000000000000000000073ffffffffffffffffffffffffffffffffffffffff1663619306306040518163ffffffff1660e01b8152600401602060405180830381865afa158015611b34573d6000803e3d6000fd5b505050506040513d601f19601f82011682018060405250810190611b589190612d01565b73ffffffffffffffffffffffffffffffffffffffff1663a7f2a70b8389896040518463ffffffff1660e01b8152600401611b9493929190612db4565b6020604051808303816000875af1158015611bb3573d6000803e3d6000fd5b505050506040513d601f19601f82011682018060405250810190611bd79190612d01565b508273ffffffffffffffffffffffffffffffffffffffff16637b621d3a838760e001518673ffffffffffffffffffffffffffffffffffffffff166360b3042c6040518163ffffffff1660e01b8152600401602060405180830381865afa158015611c45573d6000803e3d6000fd5b505050506040513d601f19601f82011682018060405250810190611c699190612d9b565b8773ffffffffffffffffffffffffffffffffffffffff1663737a79966040518163ffffffff1660e01b8152600401602060405180830381865afa158015611cb4573d6000803e3d6000fd5b505050506040513d601f19601f82011682018060405250810190611cd89190612d9b565b6040517fffffffff0000000000000000000000000000000000000000000000000000000060e087901b168152600481019490945262ffffff909216602484015263ffffffff908116604484015216606482015261eeee608482015260a4016020604051808303816000875af1158015611d55573d6000803e3d6000fd5b505050506040513d601f19601f82011682018060405250810190611d799190612d01565b507f000000000000000000000000000000000000000000000000000000000000000073ffffffffffffffffffffffffffffffffffffffff1663111d861b8360405180608001604052808960600151815260200160128a60000151611ddd9190612f38565b815260408a810151602080840191909152600092820183905281516102a081018352610240810184815261026082018590526102808201859052815260a0808e0151828401526080808f015183860152606083018690528201859052810184905260c0810184905260e081018490526001610100820181905261012082018590526101408201859052610160820185905261018082018590526101a082018590526101c08201526101e0810184905273ffffffffffffffffffffffffffffffffffffffff8b1661020082015261022081018490528251848152918201909252909190879082611f3f565b611f2c6040518060c00160405280600073ffffffffffffffffffffffffffffffffffffffff168152602001600073ffffffffffffffffffffffffffffffffffffffff168152602001600081526020016000815260200160008152602001600081525090565b815260200190600190039081611ec75790505b508b6040518863ffffffff1660e01b8152600401611f63979695949392919061322e565b6020604051808303816000875af1158015611f82573d6000803e3d6000fd5b505050506040513d601f19601f82011682018060405250810190611fa69190612d9b565b507f000000000000000000000000000000000000000000000000000000000000000073ffffffffffffffffffffffffffffffffffffffff16638ae9c07b8360128860200151611ff59190612f38565b8c8a604051602001612007919061334c565b6040516020818303038152906040526000806040518763ffffffff1660e01b815260040161203a96959493929190613391565b6020604051808303816000875af1158015612059573d6000803e3d6000fd5b505050506040513d601f19601f8201168201806040525081019061207d9190612d9b565b507f000000000000000000000000000000000000000000000000000000000000000073ffffffffffffffffffffffffffffffffffffffff16632bdfe0046040518163ffffffff1660e01b8152600401602060405180830381865afa1580156120e9573d6000803e3d6000fd5b505050506040513d601f19601f8201168201806040525081019061210d9190612d01565b73ffffffffffffffffffffffffffffffffffffffff1663ad007d636040518163ffffffff1660e01b8152600401602060405180830381865afa158015612157573d6000803e3d6000fd5b505050506040513d601f19601f8201168201806040525081019061217b9190612d01565b73ffffffffffffffffffffffffffffffffffffffff1663529cdd2e60405180606001604052808c73ffffffffffffffffffffffffffffffffffffffff168152602001858152602001600080548060200260200160405190810160405280929190818152602001828054801561220f57602002820191906000526020600020905b8154815260200190600101908083116121fb575b50505050508152506040518263ffffffff1660e01b815260040161223391906133e6565b600060405180830381600087803b15801561224d57600080fd5b505af1158015612261573d6000803e3d6000fd5b50505060c086015161227c915065ffffffffffff1642613457565b60008381526001602052604090205550979650505050505050565b6000602082840312156122a957600080fd5b81357fffffffff00000000000000000000000000000000000000000000000000000000811681146122d957600080fd5b9392505050565b73ffffffffffffffffffffffffffffffffffffffff8116811461230257600080fd5b50565b8035612310816122e0565b919050565b60008060008060006080868803121561232d57600080fd5b8535612338816122e0565b94506020860135612348816122e0565b935060408601359250606086013567ffffffffffffffff8082111561236c57600080fd5b818801915088601f83011261238057600080fd5b81358181111561238f57600080fd5b8960208285010111156123a157600080fd5b9699959850939650602001949392505050565b7f4e487b7100000000000000000000000000000000000000000000000000000000600052604160045260246000fd5b604051610100810167ffffffffffffffff81118282101715612407576124076123b4565b60405290565b6040516060810167ffffffffffffffff81118282101715612407576124076123b4565b604051610240810167ffffffffffffffff81118282101715612407576124076123b4565b604051610120810167ffffffffffffffff81118282101715612407576124076123b4565b604051601f82017fffffffffffffffffffffffffffffffffffffffffffffffffffffffffffffffe016810167ffffffffffffffff811182821017156124bf576124bf6123b4565b604052919050565b600067ffffffffffffffff8211156124e1576124e16123b4565b50601f017fffffffffffffffffffffffffffffffffffffffffffffffffffffffffffffffe01660200190565b600061252061251b846124c7565b612478565b905082815283838301111561253457600080fd5b828260208301376000602084830101529392505050565b600082601f83011261255c57600080fd5b6122d98383356020850161250d565b60006040828403121561257d57600080fd5b6040516040810167ffffffffffffffff82821081831117156125a1576125a16123b4565b8160405282935084359150808211156125b957600080fd5b506125c68582860161254b565b825250602083013560208201525092915050565b803562ffffff8116811461231057600080fd5b6000610100828403121561260057600080fd5b6126086123e3565b9050813581526020820135602082015260408201356040820152606082013560608201526080820135608082015260a082013560a082015260c082013565ffffffffffff8116811461265957600080fd5b60c082015261266a60e083016125da565b60e082015292915050565b600067ffffffffffffffff82111561268f5761268f6123b4565b5060051b60200190565b600082601f8301126126aa57600080fd5b813560206126ba61251b83612675565b82815260059290921b840181019181810190868411156126d957600080fd5b8286015b848110156126fd5780356126f0816122e0565b83529183019183016126dd565b509695505050505050565b600082601f83011261271957600080fd5b8135602061272961251b83612675565b82815260059290921b8401810191818101908684111561274857600080fd5b8286015b848110156126fd57803567ffffffffffffffff8082111561276d5760008081fd5b81890191506060807fffffffffffffffffffffffffffffffffffffffffffffffffffffffffffffffe0848d030112156127a65760008081fd5b6127ae61240d565b878401356127bb816122e0565b8152604084810135898301529184013591838311156127da5760008081fd5b82850194508c603f8601126127f157600093508384fd5b6128018d8a87013583880161250d565b90820152865250505091830191830161274c565b803560ff8116811461231057600080fd5b60008060008060008060008060006102008a8c03121561284557600080fd5b61284e8a612305565b985060208a013567ffffffffffffffff8082111561286b57600080fd5b6128778d838e0161256b565b995060408c013591508082111561288d57600080fd5b6128998d838e0161254b565b985060608c01359150808211156128af57600080fd5b6128bb8d838e0161254b565b97506128ca8d60808e016125ed565b96506101808c01359150808211156128e157600080fd5b6128ed8d838e01612699565b95506128fc6101a08d01612305565b94506101c08c013591508082111561291357600080fd5b506129208c828d01612708565b9250506129306101e08b01612815565b90509295985092959850929598565b60006020828403121561295157600080fd5b5035919050565b60006020828403121561296a57600080fd5b813567ffffffffffffffff81111561298157600080fd5b82016101e081850312156122d957600080fd5b60005b838110156129af578181015183820152602001612997565b50506000910152565b600081518084526129d0816020860160208601612994565b601f017fffffffffffffffffffffffffffffffffffffffffffffffffffffffffffffffe0169290920160200192915050565b6000606085835260208181850152612a1c828501876129b8565b6040858203818701528187518084528484019150848160051b850101858a0160005b83811015612ab9578683037fffffffffffffffffffffffffffffffffffffffffffffffffffffffffffffffe00185528151805173ffffffffffffffffffffffffffffffffffffffff16845288810151898501528601518684018a9052612aa68a8501826129b8565b9589019593505090870190600101612a3e565b50909c9b505050505050505050505050565b60008060408385031215612ade57600080fd5b50508035926020909101359150565b73ffffffffffffffffffffffffffffffffffffffff84168152826020820152606060408201526000612b2260608301846129b8565b95945050505050565b600060208284031215612b3d57600080fd5b813567ffffffffffffffff811115612b5457600080fd5b82016101a081850312156122d957600080fd5b6000606085835260208181850152612b81828501876129b8565b6040858203818701528187518084528484019150848160051b850101858a0160005b83811015612ab9578683037fffffffffffffffffffffffffffffffffffffffffffffffffffffffffffffffe00185528151805173ffffffffffffffffffffffffffffffffffffffff16845288810151898501528601518684018a9052612c0b8a8501826129b8565b9589019593505090870190600101612ba3565b60008060008060008060006101c0888a031215612c3a57600080fd5b612c4388612305565b9650602088013567ffffffffffffffff80821115612c6057600080fd5b612c6c8b838c0161256b565b975060408a0135915080821115612c8257600080fd5b612c8e8b838c0161254b565b965060608a0135915080821115612ca457600080fd5b612cb08b838c0161254b565b9550612cbf8b60808c016125ed565b94506101808a0135915080821115612cd657600080fd5b50612ce38a828b01612699565b925050612cf36101a08901612305565b905092959891949750929550565b600060208284031215612d1357600080fd5b81516122d9816122e0565b7f4e487b7100000000000000000000000000000000000000000000000000000000600052603260045260246000fd5b73ffffffffffffffffffffffffffffffffffffffff831681526040602082015260008251604080840152612d8460808401826129b8565b905060208401516060840152809150509392505050565b600060208284031215612dad57600080fd5b5051919050565b838152606060208201526000612dcd60608301856129b8565b8281036040840152612ddf81856129b8565b9695505050505050565b7f4e487b7100000000000000000000000000000000000000000000000000000000600052601160045260246000fd5b600181815b80851115612e7157817fffffffffffffffffffffffffffffffffffffffffffffffffffffffffffffffff04821115612e5757612e57612de9565b80851615612e6457918102915b93841c9390800290612e1d565b509250929050565b600082612e885750600161033c565b81612e955750600061033c565b8160018114612eab5760028114612eb557612ed1565b600191505061033c565b60ff841115612ec657612ec6612de9565b50506001821b61033c565b5060208310610133831016604e8410600b8410161715612ef4575081810a61033c565b612efe8383612e18565b807fffffffffffffffffffffffffffffffffffffffffffffffffffffffffffffffff04821115612f3057612f30612de9565b029392505050565b60006122d960ff841683612e79565b612f6c8282518051151582526020808201511515908301526040908101511515910152565b6020810151606083015260408101516080830152606081015160a08301526080810151612f9d60c084018215159052565b5060a081015180151560e08401525060c0810151610100612fc18185018315159052565b60e08301519150610120612fd88186018415159052565b90830151915061014090612fef8583018415159052565b83015191506101606130048582018415159052565b9083015191506101809061301b8583018415159052565b83015191506101a06130308582018415159052565b9083015191506101c0906130478583018415159052565b83015191506101e061305c8582018415159052565b908301519150610200906130738583018415159052565b83015191506102206130888582018415159052565b9083015173ffffffffffffffffffffffffffffffffffffffff16610240850152909101516102609092019190915250565b600081518084526020808501808196508360051b810191508286016000805b86811015613198578385038a52825180518652860151604087870181905281518188018190529188019160609081890190865b818110156131815785518051151584528c81015115158d8501528581015186850152848101518585015260808082015173ffffffffffffffffffffffffffffffffffffffff9081169186019190915260a0808301519086015260c0918201511690840152948b019460e09092019160010161310b565b50509c89019c9750505092860192506001016130d8565b509298975050505050505050565b600081518084526020808501945080840160005b83811015613223578151805173ffffffffffffffffffffffffffffffffffffffff908116895284820151168489015260408082015190890152606080820151908901526080808201519089015260a0908101519088015260c090960195908201906001016131ba565b509495945050505050565b60006103c0898352602061327b8185018b80518252602081015160208301526040810151604083015273ffffffffffffffffffffffffffffffffffffffff60608201511660608301525050565b61328860a085018a612f47565b87610320850152816103408501526132a2828501886130b9565b91508382036103608501526132b782876131a6565b848103610380860152855180825282870193509082019060005b8181101561330357845173ffffffffffffffffffffffffffffffffffffffff16835293830193918301916001016132d1565b50508481036103a0860152601b81527f4465706c6f7965642052657461696c69737420747265617375727900000000006020820152604081019c9b505050505050505050505050565b7f5072656d696e746564202400000000000000000000000000000000000000000081526000825161338481600b850160208701612994565b91909101600b0192915050565b86815285602082015273ffffffffffffffffffffffffffffffffffffffff8516604082015260c0606082015260006133cc60c08301866129b8565b93151560808301525090151560a090910152949350505050565b600060208083526080830173ffffffffffffffffffffffffffffffffffffffff85511682850152818501516040850152604085015160608086015281815180845260a0870191508483019350600092505b808310156126fd5783518252928401926001929092019190840190613437565b8082018082111561033c5761033c612de9565b600181811c9082168061347e57607f821691505b6020821081036134b7577f4e487b7100000000000000000000000000000000000000000000000000000000600052602260045260246000fd5b50919050565b601f82111561350757600081815260208120601f850160051c810160208610156134e45750805b601f850160051c820191505b81811015613503578281556001016134f0565b5050505b505050565b815167ffffffffffffffff811115613526576135266123b4565b61353a81613534845461346a565b846134bd565b602080601f83116001811461358d57600084156135575750858301515b7fffffffffffffffffffffffffffffffffffffffffffffffffffffffffffffffff600386901b1c1916600185901b178555613503565b6000858152602081207fffffffffffffffffffffffffffffffffffffffffffffffffffffffffffffffe08616915b828110156135da578886015182559484019460019091019084016135bb565b508582101561361657878501517fffffffffffffffffffffffffffffffffffffffffffffffffffffffffffffffff600388901b60f8161c191681555b5050505050600190811b01905550565b8051612310816122e0565b8051801515811461231057600080fd5b60006060828403121561365357600080fd5b61365b61240d565b905061366682613631565b815261367460208301613631565b602082015261368560408301613631565b604082015292915050565b600061028082840312156136a357600080fd5b6136ab612430565b90506136b78383613641565b8152606082015160208201526080820151604082015260a082015160608201526136e360c08301613631565b60808201526136f460e08301613631565b60a0820152610100613707818401613631565b60c083015261012061371a818501613631565b60e084015261014061372d818601613631565b838501526101609250613741838601613631565b828501526101809150613755828601613631565b908401526101a0613767858201613631565b838501526101c0925061377b838601613631565b828501526101e0915061378f828601613631565b908401526102006137a1858201613631565b8385015261022092506137b5838601613631565b828501526137c66102408601613626565b818501525050610260830151818301525092915050565b80516003811061231057600080fd5b60008060008385036103c081121561380357600080fd5b6101208082121561381357600080fd5b61381b612454565b9150855182526020860151602083015260408601516040830152606086015160608301526080860151608083015260a086015160a083015260c086015160c083015261386960e08701613626565b60e083015261010080870151818401525081945061388987828801613690565b9350505061389a6103a085016137dd565b90509250925092565b60006103a08883526138ef602084018980518252602081015160208301526040810151604083015273ffffffffffffffffffffffffffffffffffffffff60608201511660608301525050565b6138fc60a0840188612f47565b8561032084015280610340840152613916818401866130b9565b905082810361036084015261392b81856131a6565b838103610380909401939093525050602c81527f5363686564756c656420626f6f737420657870697279206f662052657461696c60208201527f697374207472656173757279000000000000000000000000000000000000000060408201526060019695505050505050565b80356139a2816122e0565b73ffffffffffffffffffffffffffffffffffffffff1682526020818101359083015260408082013590830152606090810135910152565b60008083357fffffffffffffffffffffffffffffffffffffffffffffffffffffffffffffffe1843603018112613a0e57600080fd5b830160208101925035905067ffffffffffffffff811115613a2e57600080fd5b803603821315613a3d57600080fd5b9250929050565b8183528181602085013750600060208284010152600060207fffffffffffffffffffffffffffffffffffffffffffffffffffffffffffffffe0601f840116840101905092915050565b60208152613abb60208201613aa184612305565b73ffffffffffffffffffffffffffffffffffffffff169052565b6000613ac960208401612305565b73ffffffffffffffffffffffffffffffffffffffff8116604084015250613af66060830160408501613997565b60c083013560e083015261010060e084013581840152613b17818501612305565b9050610120613b3d8185018373ffffffffffffffffffffffffffffffffffffffff169052565b61014091508085013582850152506101608185013581850152613b62818601866139d9565b925090506101a06101808181870152613b806101c087018585613a44565b9350613b8e818801886139d9565b935090507fffffffffffffffffffffffffffffffffffffffffffffffffffffffffffffffe08685030182870152613bc6848483613a44565b979650505050505050565b6000613bdf61251b846124c7565b9050828152838383011115613bf357600080fd5b6122d9836020830184612994565b600080600060608486031215613c1657600080fd5b8351925060208085015167ffffffffffffffff80821115613c3657600080fd5b818701915087601f830112613c4a57600080fd5b613c58888351858501613bd1565b94506040870151915080821115613c6e57600080fd5b818701915087601f830112613c8257600080fd5b8151613c9061251b82612675565b81815260059190911b8301840190848101908a831115613caf57600080fd5b8585015b83811015613d6957805185811115613cca57600080fd5b86016060818e037fffffffffffffffffffffffffffffffffffffffffffffffffffffffffffffffe0011215613cfe57600080fd5b613d0661240d565b88820151613d13816122e0565b8152604082015189820152606082015187811115613d3057600080fd5b8083019250508d603f830112613d4557600080fd5b613d568e8a84015160408501613bd1565b6040820152845250918601918601613cb3565b508096505050505050509250925092565b60008083357fffffffffffffffffffffffffffffffffffffffffffffffffffffffffffffffe1843603018112613daf57600080fd5b83018035915067ffffffffffffffff821115613dca57600080fd5b602001915036819003821315613a3d57600080fdfea2646970667358221220eb5abdf930d7394907b6e317a9f08d263e3b99084539b84ba92f2559a798e53664736f6c63430008150033",
    "linkReferences": {}
  },
  "methodIdentifiers": {
    "buybackDelegateDataSourceOf(uint256)": "ef8eadd5",
    "controller()": "f77c4791",
    "delegateAllocationsOf(uint256,uint256)": "abc603e3",
    "deployBasicProjectFor(address,(string,uint256),string,string,(uint256,uint256,uint256,uint256,uint256,uint256,uint48,uint24),address[],address)": "d87b09e3",
    "deployPayAllocatorProjectFor(address,(string,uint256),string,string,(uint256,uint256,uint256,uint256,uint256,uint256,uint48,uint24),address[],address,(address,uint256,bytes)[],uint8)": "1f84209a",
    "onERC721Received(address,address,uint256,bytes)": "150b7a02",
    "payParams((address,address,(address,uint256,uint256,uint256),uint256,uint256,address,uint256,uint256,string,bytes))": "d46cf171",
    "permissionIndexes(uint256)": "9483e771",
    "reconfigurationStartTimestampOf(uint256)": "560f7b03",
    "redeemParams((address,address,uint256,uint256,uint256,uint256,uint256,(address,uint256,uint256,uint256),bool,uint256,string,bytes))": "a51cfd18",
    "scheduleReconfigurationOf(uint256)": "3ce6d3e2",
    "supportsInterface(bytes4)": "01ffc9a7"
  },
  "id": 89
}