{
  "abi": [
    {
      "inputs": [
        {
          "internalType": "contract IJBController3_1",
          "name": "_controller",
          "type": "address"
        },
        {
          "internalType": "contract IJBPayoutRedemptionPaymentTerminal3_1_1",
          "name": "_terminal",
          "type": "address"
        }
      ],
      "stateMutability": "nonpayable",
      "type": "constructor"
    },
    {
      "inputs": [],
      "name": "RECONFIGURATION_ALREADY_SCHEDULED",
      "type": "error"
    },
    {
      "inputs": [
        {
          "internalType": "uint256",
          "name": "",
          "type": "uint256"
        }
      ],
      "name": "buybackDelegateDataSourceOf",
      "outputs": [
        {
          "internalType": "contract IJBFundingCycleDataSource3_1_1",
          "name": "",
          "type": "address"
        }
      ],
      "stateMutability": "view",
      "type": "function"
    },
    {
      "inputs": [],
      "name": "controller",
      "outputs": [
        {
          "internalType": "contract IJBController3_1",
          "name": "",
          "type": "address"
        }
      ],
      "stateMutability": "view",
      "type": "function"
    },
    {
      "inputs": [
        {
          "internalType": "uint256",
          "name": "",
          "type": "uint256"
        },
        {
          "internalType": "uint256",
          "name": "",
          "type": "uint256"
        }
      ],
      "name": "delegateAllocationsOf",
      "outputs": [
        {
          "internalType": "contract IJBPayDelegate3_1_1",
          "name": "delegate",
          "type": "address"
        },
        {
          "internalType": "uint256",
          "name": "amount",
          "type": "uint256"
        },
        {
          "internalType": "bytes",
          "name": "metadata",
          "type": "bytes"
        }
      ],
      "stateMutability": "view",
      "type": "function"
    },
    {
      "inputs": [
        {
          "internalType": "address",
          "name": "_operator",
          "type": "address"
        },
        {
          "components": [
            {
              "internalType": "string",
              "name": "content",
              "type": "string"
            },
            {
              "internalType": "uint256",
              "name": "domain",
              "type": "uint256"
            }
          ],
          "internalType": "struct JBProjectMetadata",
          "name": "_projectMetadata",
          "type": "tuple"
        },
        {
          "internalType": "string",
          "name": "_name",
          "type": "string"
        },
        {
          "internalType": "string",
          "name": "_symbol",
          "type": "string"
        },
        {
          "components": [
            {
              "internalType": "uint256",
              "name": "initialIssuanceRate",
              "type": "uint256"
            },
            {
              "internalType": "uint256",
              "name": "premintTokenAmount",
              "type": "uint256"
            },
            {
              "internalType": "uint256",
              "name": "discountRate",
              "type": "uint256"
            },
            {
              "internalType": "uint256",
              "name": "discountPeriod",
              "type": "uint256"
            },
            {
              "internalType": "uint256",
              "name": "redemptionRate",
              "type": "uint256"
            },
            {
              "internalType": "uint256",
              "name": "reservedRate",
              "type": "uint256"
            },
            {
              "internalType": "uint48",
              "name": "reservedRateDuration",
              "type": "uint48"
            }
          ],
          "internalType": "struct BasicRetailistJBParams",
          "name": "_data",
          "type": "tuple"
        }
      ],
      "name": "deployBasicProjectFor",
      "outputs": [
        {
          "internalType": "uint256",
          "name": "projectId",
          "type": "uint256"
        }
      ],
      "stateMutability": "nonpayable",
      "type": "function"
    },
    {
      "inputs": [
        {
          "internalType": "address",
          "name": "_operator",
          "type": "address"
        },
        {
          "components": [
            {
              "internalType": "string",
              "name": "content",
              "type": "string"
            },
            {
              "internalType": "uint256",
              "name": "domain",
              "type": "uint256"
            }
          ],
          "internalType": "struct JBProjectMetadata",
          "name": "_projectMetadata",
          "type": "tuple"
        },
        {
          "internalType": "string",
          "name": "_name",
          "type": "string"
        },
        {
          "internalType": "string",
          "name": "_symbol",
          "type": "string"
        },
        {
          "components": [
            {
              "internalType": "uint256",
              "name": "initialIssuanceRate",
              "type": "uint256"
            },
            {
              "internalType": "uint256",
              "name": "premintTokenAmount",
              "type": "uint256"
            },
            {
              "internalType": "uint256",
              "name": "discountRate",
              "type": "uint256"
            },
            {
              "internalType": "uint256",
              "name": "discountPeriod",
              "type": "uint256"
            },
            {
              "internalType": "uint256",
              "name": "redemptionRate",
              "type": "uint256"
            },
            {
              "internalType": "uint256",
              "name": "reservedRate",
              "type": "uint256"
            },
            {
              "internalType": "uint48",
              "name": "reservedRateDuration",
              "type": "uint48"
            }
          ],
          "internalType": "struct BasicRetailistJBParams",
          "name": "_data",
          "type": "tuple"
        },
        {
          "components": [
            {
              "internalType": "contract IJBPayDelegate3_1_1",
              "name": "delegate",
              "type": "address"
            },
            {
              "internalType": "uint256",
              "name": "amount",
              "type": "uint256"
            },
            {
              "internalType": "bytes",
              "name": "metadata",
              "type": "bytes"
            }
          ],
          "internalType": "struct JBPayDelegateAllocation3_1_1[]",
          "name": "_delegateAllocations",
          "type": "tuple[]"
        },
        {
          "internalType": "uint8",
          "name": "_extraFundingCycleMetadata",
          "type": "uint8"
        }
      ],
      "name": "deployPayAllocatorProjectFor",
      "outputs": [
        {
          "internalType": "uint256",
          "name": "projectId",
          "type": "uint256"
        }
      ],
      "stateMutability": "nonpayable",
      "type": "function"
    },
    {
      "inputs": [
        {
          "internalType": "address",
          "name": "_operator",
          "type": "address"
        },
        {
          "internalType": "address",
          "name": "_from",
          "type": "address"
        },
        {
          "internalType": "uint256",
          "name": "_tokenId",
          "type": "uint256"
        },
        {
          "internalType": "bytes",
          "name": "_data",
          "type": "bytes"
        }
      ],
      "name": "onERC721Received",
      "outputs": [
        {
          "internalType": "bytes4",
          "name": "",
          "type": "bytes4"
        }
      ],
      "stateMutability": "view",
      "type": "function"
    },
    {
      "inputs": [
        {
          "components": [
            {
              "internalType": "contract IJBPaymentTerminal",
              "name": "terminal",
              "type": "address"
            },
            {
              "internalType": "address",
              "name": "payer",
              "type": "address"
            },
            {
              "components": [
                {
                  "internalType": "address",
                  "name": "token",
                  "type": "address"
                },
                {
                  "internalType": "uint256",
                  "name": "value",
                  "type": "uint256"
                },
                {
                  "internalType": "uint256",
                  "name": "decimals",
                  "type": "uint256"
                },
                {
                  "internalType": "uint256",
                  "name": "currency",
                  "type": "uint256"
                }
              ],
              "internalType": "struct JBTokenAmount",
              "name": "amount",
              "type": "tuple"
            },
            {
              "internalType": "uint256",
              "name": "projectId",
              "type": "uint256"
            },
            {
              "internalType": "uint256",
              "name": "currentFundingCycleConfiguration",
              "type": "uint256"
            },
            {
              "internalType": "address",
              "name": "beneficiary",
              "type": "address"
            },
            {
              "internalType": "uint256",
              "name": "weight",
              "type": "uint256"
            },
            {
              "internalType": "uint256",
              "name": "reservedRate",
              "type": "uint256"
            },
            {
              "internalType": "string",
              "name": "memo",
              "type": "string"
            },
            {
              "internalType": "bytes",
              "name": "metadata",
              "type": "bytes"
            }
          ],
          "internalType": "struct JBPayParamsData",
          "name": "_data",
          "type": "tuple"
        }
      ],
      "name": "payParams",
      "outputs": [
        {
          "internalType": "uint256",
          "name": "weight",
          "type": "uint256"
        },
        {
          "internalType": "string",
          "name": "memo",
          "type": "string"
        },
        {
          "components": [
            {
              "internalType": "contract IJBPayDelegate3_1_1",
              "name": "delegate",
              "type": "address"
            },
            {
              "internalType": "uint256",
              "name": "amount",
              "type": "uint256"
            },
            {
              "internalType": "bytes",
              "name": "metadata",
              "type": "bytes"
            }
          ],
          "internalType": "struct JBPayDelegateAllocation3_1_1[]",
          "name": "delegateAllocations",
          "type": "tuple[]"
        }
      ],
      "stateMutability": "view",
      "type": "function"
    },
    {
      "inputs": [
        {
          "internalType": "uint256",
          "name": "",
          "type": "uint256"
        }
      ],
      "name": "permissionIndexes",
      "outputs": [
        {
          "internalType": "uint256",
          "name": "",
          "type": "uint256"
        }
      ],
      "stateMutability": "view",
      "type": "function"
    },
    {
      "inputs": [
        {
          "internalType": "uint256",
          "name": "projectId",
          "type": "uint256"
        }
      ],
      "name": "reconfigurationStartTimestampOf",
      "outputs": [
        {
          "internalType": "uint256",
          "name": "",
          "type": "uint256"
        }
      ],
      "stateMutability": "view",
      "type": "function"
    },
    {
      "inputs": [
        {
          "components": [
            {
              "internalType": "contract IJBPaymentTerminal",
              "name": "terminal",
              "type": "address"
            },
            {
              "internalType": "address",
              "name": "holder",
              "type": "address"
            },
            {
              "internalType": "uint256",
              "name": "projectId",
              "type": "uint256"
            },
            {
              "internalType": "uint256",
              "name": "currentFundingCycleConfiguration",
              "type": "uint256"
            },
            {
              "internalType": "uint256",
              "name": "tokenCount",
              "type": "uint256"
            },
            {
              "internalType": "uint256",
              "name": "totalSupply",
              "type": "uint256"
            },
            {
              "internalType": "uint256",
              "name": "overflow",
              "type": "uint256"
            },
            {
              "components": [
                {
                  "internalType": "address",
                  "name": "token",
                  "type": "address"
                },
                {
                  "internalType": "uint256",
                  "name": "value",
                  "type": "uint256"
                },
                {
                  "internalType": "uint256",
                  "name": "decimals",
                  "type": "uint256"
                },
                {
                  "internalType": "uint256",
                  "name": "currency",
                  "type": "uint256"
                }
              ],
              "internalType": "struct JBTokenAmount",
              "name": "reclaimAmount",
              "type": "tuple"
            },
            {
              "internalType": "bool",
              "name": "useTotalOverflow",
              "type": "bool"
            },
            {
              "internalType": "uint256",
              "name": "redemptionRate",
              "type": "uint256"
            },
            {
              "internalType": "string",
              "name": "memo",
              "type": "string"
            },
            {
              "internalType": "bytes",
              "name": "metadata",
              "type": "bytes"
            }
          ],
          "internalType": "struct JBRedeemParamsData",
          "name": "_data",
          "type": "tuple"
        }
      ],
      "name": "redeemParams",
      "outputs": [
        {
          "internalType": "uint256",
          "name": "",
          "type": "uint256"
        },
        {
          "internalType": "string",
          "name": "",
          "type": "string"
        },
        {
          "components": [
            {
              "internalType": "contract IJBRedemptionDelegate3_1_1",
              "name": "delegate",
              "type": "address"
            },
            {
              "internalType": "uint256",
              "name": "amount",
              "type": "uint256"
            },
            {
              "internalType": "bytes",
              "name": "metadata",
              "type": "bytes"
            }
          ],
          "internalType": "struct JBRedemptionDelegateAllocation3_1_1[]",
          "name": "",
          "type": "tuple[]"
        }
      ],
      "stateMutability": "view",
      "type": "function"
    },
    {
      "inputs": [
        {
          "internalType": "uint256",
          "name": "_projectId",
          "type": "uint256"
        }
      ],
      "name": "scheduleReconfigurationOf",
      "outputs": [],
      "stateMutability": "nonpayable",
      "type": "function"
    },
    {
      "inputs": [
        {
          "internalType": "bytes4",
          "name": "_interfaceId",
          "type": "bytes4"
        }
      ],
      "name": "supportsInterface",
      "outputs": [
        {
          "internalType": "bool",
          "name": "",
          "type": "bool"
        }
      ],
      "stateMutability": "view",
      "type": "function"
    },
    {
      "inputs": [
        {
          "internalType": "uint256",
          "name": "",
          "type": "uint256"
        }
      ],
      "name": "terminals",
      "outputs": [
        {
          "internalType": "contract IJBPaymentTerminal",
          "name": "",
          "type": "address"
        }
      ],
      "stateMutability": "view",
      "type": "function"
    }
  ],
  "bytecode": {
    "object": "0x60a06040523480156200001157600080fd5b5060405162003c9d38038062003c9d8339810160408190526200003491620000d7565b6001600160a01b0391821660805260008054600180820183557f290decd9548b62a8d60345a988386fc84ba6bc95484008f6362f93160ef3e56390910180546001600160a01b031916939094169290921790925580548082018255915260127fb10e2d527612073b26eecdfd717e6a320cf44b4afac2b0732d9fcbe2b7fa0cf69091015562000116565b6001600160a01b0381168114620000d457600080fd5b50565b60008060408385031215620000eb57600080fd5b8251620000f881620000be565b60208401519092506200010b81620000be565b809150509250929050565b608051613b106200018d600039600081816102a50152818161051d0152818161062d015281816107430152818161098601528181610a4801528181610c7201528181610dcb01528181610f7e0152818161125901528181611369015281816114c30152818161174b015261180b0152613b106000f3fe608060405234801561001057600080fd5b50600436106100df5760003560e01c8063560f7b031161008c578063abc603e311610066578063abc603e314610226578063d46cf17114610248578063ef8eadd51461026a578063f77c4791146102a057600080fd5b8063560f7b03146101d15780639483e771146101f1578063a51cfd181461020457600080fd5b8063150b7a02116100bd578063150b7a02146101655780633ce6d3e2146101a95780634e777fd7146101be57600080fd5b806301ffc9a7146100e45780630219758e1461010c5780630e53d9cc14610144575b600080fd5b6100f76100f2366004611fb2565b6102c7565b60405190151581526020015b60405180910390f35b61011f61011a366004611ffb565b610360565b60405173ffffffffffffffffffffffffffffffffffffffff9091168152602001610103565b6101576101523660046120aa565b610397565b604051908152602001610103565b61017861017336600461216c565b610c6e565b6040517fffffffff000000000000000000000000000000000000000000000000000000009091168152602001610103565b6101bc6101b7366004611ffb565b610d82565b005b6101576101cc36600461252e565b6110d3565b6101576101df366004611ffb565b60026020526000908152604090205481565b6101576101ff366004611ffb565b611afd565b610217610212366004612603565b611b1e565b604051610103939291906126ad565b610239610234366004612776565b611b86565b60405161010393929190612798565b61025b6102563660046127d6565b611c69565b60405161010393929190612812565b61011f610278366004611ffb565b60036020526000908152604090205473ffffffffffffffffffffffffffffffffffffffff1681565b61011f7f000000000000000000000000000000000000000000000000000000000000000081565b60007fffffffff0000000000000000000000000000000000000000000000000000000082167f71700c6900000000000000000000000000000000000000000000000000000000148061035a57507f150b7a02000000000000000000000000000000000000000000000000000000007fffffffff000000000000000000000000000000000000000000000000000000008316145b92915050565b6000818154811061037057600080fd5b60009182526020909120015473ffffffffffffffffffffffffffffffffffffffff16905081565b604080516001808252818301909252600091829190816020015b6040805180820190915260008152606060208201528152602001906001900390816103b157505060408051600180825281830190925291925060009190602082015b6040805160e08101825260008082526020808301829052928201819052606082018190526080820181905260a0820181905260c082015282527fffffffffffffffffffffffffffffffffffffffffffffffffffffffffffffffff9092019101816103f35790505090506040518060e00160405280600015158152602001600015158152602001633b9aca008152602001600081526020018b73ffffffffffffffffffffffffffffffffffffffff16815260200160008152602001600073ffffffffffffffffffffffffffffffffffffffff16815250816001815181106104db576104db6128c9565b6020026020010181905250604051806040016040528060028152602001828152508260008151811061050f5761050f6128c9565b6020026020010181905250507f000000000000000000000000000000000000000000000000000000000000000073ffffffffffffffffffffffffffffffffffffffff16638b79543c6040518163ffffffff1660e01b8152600401602060405180830381865afa158015610586573d6000803e3d6000fd5b505050506040513d601f19601f820116820180604052508101906105aa91906128f8565b73ffffffffffffffffffffffffffffffffffffffff1663666d87a0308a6040518363ffffffff1660e01b81526004016105e49291906129c2565b6020604051808303816000875af1158015610603573d6000803e3d6000fd5b505050506040513d601f19601f820116820180604052508101906106279190612a1a565b915060007f000000000000000000000000000000000000000000000000000000000000000073ffffffffffffffffffffffffffffffffffffffff1663619306306040518163ffffffff1660e01b8152600401602060405180830381865afa158015610696573d6000803e3d6000fd5b505050506040513d601f19601f820116820180604052508101906106ba91906128f8565b73ffffffffffffffffffffffffffffffffffffffff1663a7f2a70b848a8a8a8a6040518663ffffffff1660e01b81526004016106fa959493929190612a33565b6020604051808303816000875af1158015610719573d6000803e3d6000fd5b505050506040513d601f19601f8201168201806040525081019061073d91906128f8565b905060007f000000000000000000000000000000000000000000000000000000000000000073ffffffffffffffffffffffffffffffffffffffff1663111d861b8560405180608001604052808960600135815260200160128a600001356107a49190612bbb565b815260408a810135602080840191909152600092820183905281516102a081018352610240810184815261026082018590526102808201859052815260a0808e0135828401526080808f013583860152606083018690528201859052810184905260c0810184905260e081018490526001610100820181905261012082018590526101408201859052610160820185905261018082018590526101a082018590526101c08201526101e0810184905273ffffffffffffffffffffffffffffffffffffffff891661020082015261022081018490528251848152918201909252909190899082610906565b6108f36040518060c00160405280600073ffffffffffffffffffffffffffffffffffffffff168152602001600073ffffffffffffffffffffffffffffffffffffffff168152602001600081526020016000815260200160008152602001600081525090565b81526020019060019003908161088e5790505b5060006040518863ffffffff1660e01b815260040161092b9796959493929190612eb1565b6020604051808303816000875af115801561094a573d6000803e3d6000fd5b505050506040513d601f19601f8201168201806040525081019061096e9190612a1a565b5073ffffffffffffffffffffffffffffffffffffffff7f000000000000000000000000000000000000000000000000000000000000000016638ae9c07b856109bb601260208a0135612bbb565b8e8b8b6040516020016109cf929190612fd2565b6040516020818303038152906040526000806040518763ffffffff1660e01b8152600401610a029695949392919061302f565b6020604051808303816000875af1158015610a21573d6000803e3d6000fd5b505050506040513d601f19601f82011682018060405250810190610a459190612a1a565b507f000000000000000000000000000000000000000000000000000000000000000073ffffffffffffffffffffffffffffffffffffffff16632bdfe0046040518163ffffffff1660e01b8152600401602060405180830381865afa158015610ab1573d6000803e3d6000fd5b505050506040513d601f19601f82011682018060405250810190610ad591906128f8565b73ffffffffffffffffffffffffffffffffffffffff1663ad007d636040518163ffffffff1660e01b8152600401602060405180830381865afa158015610b1f573d6000803e3d6000fd5b505050506040513d601f19601f82011682018060405250810190610b4391906128f8565b73ffffffffffffffffffffffffffffffffffffffff1663529cdd2e60405180606001604052808e73ffffffffffffffffffffffffffffffffffffffff1681526020018781526020016001805480602002602001604051908101604052809291908181526020018280548015610bd757602002820191906000526020600020905b815481526020019060010190808311610bc3575b50505050508152506040518263ffffffff1660e01b8152600401610bfb9190613084565b600060405180830381600087803b158015610c1557600080fd5b505af1158015610c29573d6000803e3d6000fd5b50610c3e9250505060e0860160c087016130f5565b610c509065ffffffffffff164261311d565b60008581526002602052604090205550919998505050505050505050565b60007f000000000000000000000000000000000000000000000000000000000000000073ffffffffffffffffffffffffffffffffffffffff16638b79543c6040518163ffffffff1660e01b8152600401602060405180830381865afa158015610cdb573d6000803e3d6000fd5b505050506040513d601f19601f82011682018060405250810190610cff91906128f8565b73ffffffffffffffffffffffffffffffffffffffff163373ffffffffffffffffffffffffffffffffffffffff1614610d3657600080fd5b73ffffffffffffffffffffffffffffffffffffffff851615610d5757600080fd5b507f150b7a020000000000000000000000000000000000000000000000000000000095945050505050565b6040517f1f51045300000000000000000000000000000000000000000000000000000000815260048101829052600090819073ffffffffffffffffffffffffffffffffffffffff7f00000000000000000000000000000000000000000000000000000000000000001690631f510453906024016103c060405180830381865afa158015610e13573d6000803e3d6000fd5b505050506040513d601f19601f82011682018060405250810190610e3791906132f6565b5081519193509150600114610e78576040517fc97554fa00000000000000000000000000000000000000000000000000000000815260040160405180910390fd5b60408051608080820183528481015182526000602080840182905260c08088015185870152606080860184905286516102a0810188526102408101858152610260820186905261028082018690528152808401859052888801518189015290810184905293840183905260a08401839052830182905260e08301829052610100830182905261012083018290526101408301829052610160830182905261018083018290526101a083018290526101c083018290526101e083018290526102008087015173ffffffffffffffffffffffffffffffffffffffff908116918501919091526102208781015190850152888352600282528583205486518481529283019096527f0000000000000000000000000000000000000000000000000000000000000000169463badbdf289489949093909290610fd9565b604080518082019091526000815260606020820152815260200190600190039081610fb15790505b506040805160008082526020820190925290611068565b6110556040518060c00160405280600073ffffffffffffffffffffffffffffffffffffffff168152602001600073ffffffffffffffffffffffffffffffffffffffff168152602001600081526020016000815260200160008152602001600081525090565b815260200190600190039081610ff05790505b506040518763ffffffff1660e01b815260040161108a969594939291906133ad565b6020604051808303816000875af11580156110a9573d6000803e3d6000fd5b505050506040513d601f19601f820116820180604052508101906110cd9190612a1a565b50505050565b604080516001808252818301909252600091829190816020015b6040805180820190915260008152606060208201528152602001906001900390816110ed57505060408051600180825281830190925291925060009190602082015b6040805160e08101825260008082526020808301829052928201819052606082018190526080820181905260a0820181905260c082015282527fffffffffffffffffffffffffffffffffffffffffffffffffffffffffffffffff90920191018161112f5790505090506040518060e00160405280600015158152602001600015158152602001633b9aca008152602001600081526020018b73ffffffffffffffffffffffffffffffffffffffff16815260200160008152602001600073ffffffffffffffffffffffffffffffffffffffff1681525081600181518110611217576112176128c9565b6020026020010181905250604051806040016040528060028152602001828152508260008151811061124b5761124b6128c9565b6020026020010181905250507f000000000000000000000000000000000000000000000000000000000000000073ffffffffffffffffffffffffffffffffffffffff16638b79543c6040518163ffffffff1660e01b8152600401602060405180830381865afa1580156112c2573d6000803e3d6000fd5b505050506040513d601f19601f820116820180604052508101906112e691906128f8565b73ffffffffffffffffffffffffffffffffffffffff1663666d87a0308a6040518363ffffffff1660e01b81526004016113209291906134a1565b6020604051808303816000875af115801561133f573d6000803e3d6000fd5b505050506040513d601f19601f820116820180604052508101906113639190612a1a565b915060007f000000000000000000000000000000000000000000000000000000000000000073ffffffffffffffffffffffffffffffffffffffff1663619306306040518163ffffffff1660e01b8152600401602060405180830381865afa1580156113d2573d6000803e3d6000fd5b505050506040513d601f19601f820116820180604052508101906113f691906128f8565b73ffffffffffffffffffffffffffffffffffffffff1663a7f2a70b848a8a6040518463ffffffff1660e01b8152600401611432939291906134ef565b6020604051808303816000875af1158015611451573d6000803e3d6000fd5b505050506040513d601f19601f8201168201806040525081019061147591906128f8565b600084815260036020908152604080832080547fffffffffffffffffffffffff000000000000000000000000000000000000000016905580516080810190915260608a0135815292935090917f000000000000000000000000000000000000000000000000000000000000000073ffffffffffffffffffffffffffffffffffffffff169163111d861b918791810161150f60128d35612bbb565b81526020018b604001358152602001600073ffffffffffffffffffffffffffffffffffffffff1681525060405180610240016040528060405180606001604052806000151581526020016000151581526020016000151581525081526020018c60a0013581526020018c608001358152602001600081526020016000151581526020016000151581526020016000151581526020016000151581526020016001151581526020016000151581526020016000151581526020016000151581526020016000151581526020016000151581526020016001151581526020016000151581526020013073ffffffffffffffffffffffffffffffffffffffff1681526020018a60ff16815250600088600067ffffffffffffffff811115611635576116356121df565b6040519080825280602002602001820160405280156116cb57816020015b6116b86040518060c00160405280600073ffffffffffffffffffffffffffffffffffffffff168152602001600073ffffffffffffffffffffffffffffffffffffffff168152602001600081526020016000815260200160008152602001600081525090565b8152602001906001900390816116535790505b5060006040518863ffffffff1660e01b81526004016116f09796959493929190612eb1565b6020604051808303816000875af115801561170f573d6000803e3d6000fd5b505050506040513d601f19601f820116820180604052508101906117339190612a1a565b5073ffffffffffffffffffffffffffffffffffffffff7f000000000000000000000000000000000000000000000000000000000000000016638ae9c07b85611780601260208c0135612bbb565b8e8c6040516020016117929190613524565b6040516020818303038152906040526000806040518763ffffffff1660e01b81526004016117c59695949392919061302f565b6020604051808303816000875af11580156117e4573d6000803e3d6000fd5b505050506040513d601f19601f820116820180604052508101906118089190612a1a565b507f000000000000000000000000000000000000000000000000000000000000000073ffffffffffffffffffffffffffffffffffffffff16632bdfe0046040518163ffffffff1660e01b8152600401602060405180830381865afa158015611874573d6000803e3d6000fd5b505050506040513d601f19601f8201168201806040525081019061189891906128f8565b73ffffffffffffffffffffffffffffffffffffffff1663ad007d636040518163ffffffff1660e01b8152600401602060405180830381865afa1580156118e2573d6000803e3d6000fd5b505050506040513d601f19601f8201168201806040525081019061190691906128f8565b73ffffffffffffffffffffffffffffffffffffffff1663529cdd2e60405180606001604052808e73ffffffffffffffffffffffffffffffffffffffff168152602001878152602001600180548060200260200160405190810160405280929190818152602001828054801561199a57602002820191906000526020600020905b815481526020019060010190808311611986575b50505050508152506040518263ffffffff1660e01b81526004016119be9190613084565b600060405180830381600087803b1580156119d857600080fd5b505af11580156119ec573d6000803e3d6000fd5b50611a019250505060e0880160c089016130f5565b611a139065ffffffffffff164261311d565b6000858152600260205260408120919091558651905b81811015611aed57878181518110611a4357611a436128c9565b6020026020010151600460008881526020019081526020016000208281548110611a6f57611a6f6128c9565b600091825260209182902083516003929092020180547fffffffffffffffffffffffff00000000000000000000000000000000000000001673ffffffffffffffffffffffffffffffffffffffff90921691909117815590820151600182015560408201516002820190611ae2908261362c565b505050600101611a29565b5050505050979650505050505050565b60018181548110611b0d57600080fd5b600091825260209091200154905081565b604080516000808252602082019092526060908190839081611b6a565b60408051606080820183526000808352602083015291810191909152815260200190600190039081611b3b5790505b5060408051602081019091526000815291969195509350915050565b60046020528160005260406000208181548110611ba257600080fd5b600091825260209091206003909102018054600182015460028301805473ffffffffffffffffffffffffffffffffffffffff909316955090935090611be690613590565b80601f0160208091040260200160405190810160405280929190818152602001828054611c1290613590565b8015611c5f5780601f10611c3457610100808354040283529160200191611c5f565b820191906000526020600020905b815481529060010190602001808311611c4257829003601f168201915b5050505050905083565b60c08101356000908152600360205260408082205490517fd46cf1710000000000000000000000000000000000000000000000000000000081526060918291829173ffffffffffffffffffffffffffffffffffffffff169063d46cf17190611cd5908890600401613788565b600060405180830381865afa158015611cf2573d6000803e3d6000fd5b505050506040513d6000823e601f3d9081017fffffffffffffffffffffffffffffffffffffffffffffffffffffffffffffffe0168201604052611d3891908101906138fc565b60c088013560009081526004602090815260408083208054825181850281018501909352808352969a509396509194919350849084015b82821015611e605760008481526020908190206040805160608101825260038602909201805473ffffffffffffffffffffffffffffffffffffffff16835260018101549383019390935260028301805492939291840191611dcf90613590565b80601f0160208091040260200160405190810160405280929190818152602001828054611dfb90613590565b8015611e485780601f10611e1d57610100808354040283529160200191611e48565b820191906000526020600020905b815481529060010190602001808311611e2b57829003601f168201915b50505050508152505081526020019060010190611d6f565b50508251929350611e769150829050600161311d565b67ffffffffffffffff811115611e8e57611e8e6121df565b604051908082528060200260200182016040528015611edb57816020015b60408051606080820183526000808352602083015291810191909152815260200190600190039081611eac5790505b50935060005b81811015611f2857828181518110611efb57611efb6128c9565b6020026020010151858281518110611f1557611f156128c9565b6020908102919091010152600101611ee1565b5082600081518110611f3c57611f3c6128c9565b6020026020010151848281518110611f5657611f566128c9565b6020908102919091010152611f6f610160880188613a75565b8080601f016020809104026020016040519081016040528093929190818152602001838380828437600092019190915250989a9299509597509095505050505050565b600060208284031215611fc457600080fd5b81357fffffffff0000000000000000000000000000000000000000000000000000000081168114611ff457600080fd5b9392505050565b60006020828403121561200d57600080fd5b5035919050565b73ffffffffffffffffffffffffffffffffffffffff8116811461203657600080fd5b50565b803561204481612014565b919050565b60008083601f84011261205b57600080fd5b50813567ffffffffffffffff81111561207357600080fd5b60208301915083602082850101111561208b57600080fd5b9250929050565b600060e082840312156120a457600080fd5b50919050565b6000806000806000806000610160888a0312156120c657600080fd5b87356120d181612014565b9650602088013567ffffffffffffffff808211156120ee57600080fd5b908901906040828c03121561210257600080fd5b9096506040890135908082111561211857600080fd5b6121248b838c01612049565b909750955060608a013591508082111561213d57600080fd5b5061214a8a828b01612049565b909450925061215e90508960808a01612092565b905092959891949750929550565b60008060008060006080868803121561218457600080fd5b853561218f81612014565b9450602086013561219f81612014565b935060408601359250606086013567ffffffffffffffff8111156121c257600080fd5b6121ce88828901612049565b969995985093965092949392505050565b7f4e487b7100000000000000000000000000000000000000000000000000000000600052604160045260246000fd5b6040516060810167ffffffffffffffff81118282101715612231576122316121df565b60405290565b604051610240810167ffffffffffffffff81118282101715612231576122316121df565b604051610120810167ffffffffffffffff81118282101715612231576122316121df565b604051601f82017fffffffffffffffffffffffffffffffffffffffffffffffffffffffffffffffe016810167ffffffffffffffff811182821017156122c6576122c66121df565b604052919050565b600067ffffffffffffffff8211156122e8576122e86121df565b50601f017fffffffffffffffffffffffffffffffffffffffffffffffffffffffffffffffe01660200190565b6000612327612322846122ce565b61227f565b905082815283838301111561233b57600080fd5b828260208301376000602084830101529392505050565b600082601f83011261236357600080fd5b611ff483833560208501612314565b60006040828403121561238457600080fd5b6040516040810167ffffffffffffffff82821081831117156123a8576123a86121df565b8160405282935084359150808211156123c057600080fd5b506123cd85828601612352565b825250602083013560208201525092915050565b600067ffffffffffffffff8211156123fb576123fb6121df565b5060051b60200190565b600082601f83011261241657600080fd5b81356020612426612322836123e1565b82815260059290921b8401810191818101908684111561244557600080fd5b8286015b8481101561251257803567ffffffffffffffff8082111561246a5760008081fd5b81890191506060807fffffffffffffffffffffffffffffffffffffffffffffffffffffffffffffffe0848d030112156124a35760008081fd5b6124ab61220e565b878401356124b881612014565b8152604084810135898301529184013591838311156124d75760008081fd5b82850194508c603f8601126124ee57600093508384fd5b6124fe8d8a870135838801612314565b908201528652505050918301918301612449565b509695505050505050565b803560ff8116811461204457600080fd5b60008060008060008060006101a0888a03121561254a57600080fd5b61255388612039565b9650602088013567ffffffffffffffff8082111561257057600080fd5b61257c8b838c01612372565b975060408a013591508082111561259257600080fd5b61259e8b838c01612352565b965060608a01359150808211156125b457600080fd5b6125c08b838c01612352565b95506125cf8b60808c01612092565b94506101608a01359150808211156125e657600080fd5b506125f38a828b01612405565b92505061215e610180890161251d565b60006020828403121561261557600080fd5b813567ffffffffffffffff81111561262c57600080fd5b82016101e08185031215611ff457600080fd5b60005b8381101561265a578181015183820152602001612642565b50506000910152565b6000815180845261267b81602086016020860161263f565b601f017fffffffffffffffffffffffffffffffffffffffffffffffffffffffffffffffe0169290920160200192915050565b60006060858352602081818501526126c782850187612663565b6040858203818701528187518084528484019150848160051b850101858a0160005b83811015612764578683037fffffffffffffffffffffffffffffffffffffffffffffffffffffffffffffffe00185528151805173ffffffffffffffffffffffffffffffffffffffff16845288810151898501528601518684018a90526127518a850182612663565b95890195935050908701906001016126e9565b50909c9b505050505050505050505050565b6000806040838503121561278957600080fd5b50508035926020909101359150565b73ffffffffffffffffffffffffffffffffffffffff841681528260208201526060604082015260006127cd6060830184612663565b95945050505050565b6000602082840312156127e857600080fd5b813567ffffffffffffffff8111156127ff57600080fd5b82016101a08185031215611ff457600080fd5b600060608583526020818185015261282c82850187612663565b6040858203818701528187518084528484019150848160051b850101858a0160005b83811015612764578683037fffffffffffffffffffffffffffffffffffffffffffffffffffffffffffffffe00185528151805173ffffffffffffffffffffffffffffffffffffffff16845288810151898501528601518684018a90526128b68a850182612663565b958901959350509087019060010161284e565b7f4e487b7100000000000000000000000000000000000000000000000000000000600052603260045260246000fd5b60006020828403121561290a57600080fd5b8151611ff481612014565b60008083357fffffffffffffffffffffffffffffffffffffffffffffffffffffffffffffffe184360301811261294a57600080fd5b830160208101925035905067ffffffffffffffff81111561296a57600080fd5b80360382131561208b57600080fd5b8183528181602085013750600060208284010152600060207fffffffffffffffffffffffffffffffffffffffffffffffffffffffffffffffe0601f840116840101905092915050565b73ffffffffffffffffffffffffffffffffffffffff831681526040602082015260006129ee8384612915565b604080850152612a02608085018284612979565b91505060208401356060840152809150509392505050565b600060208284031215612a2c57600080fd5b5051919050565b858152606060208201526000612a4d606083018688612979565b8281036040840152612a60818587612979565b98975050505050505050565b7f4e487b7100000000000000000000000000000000000000000000000000000000600052601160045260246000fd5b600181815b80851115612af457817fffffffffffffffffffffffffffffffffffffffffffffffffffffffffffffffff04821115612ada57612ada612a6c565b80851615612ae757918102915b93841c9390800290612aa0565b509250929050565b600082612b0b5750600161035a565b81612b185750600061035a565b8160018114612b2e5760028114612b3857612b54565b600191505061035a565b60ff841115612b4957612b49612a6c565b50506001821b61035a565b5060208310610133831016604e8410600b8410161715612b77575081810a61035a565b612b818383612a9b565b807fffffffffffffffffffffffffffffffffffffffffffffffffffffffffffffffff04821115612bb357612bb3612a6c565b029392505050565b6000611ff460ff841683612afc565b612bef8282518051151582526020808201511515908301526040908101511515910152565b6020810151606083015260408101516080830152606081015160a08301526080810151612c2060c084018215159052565b5060a081015180151560e08401525060c0810151610100612c448185018315159052565b60e08301519150610120612c5b8186018415159052565b90830151915061014090612c728583018415159052565b8301519150610160612c878582018415159052565b90830151915061018090612c9e8583018415159052565b83015191506101a0612cb38582018415159052565b9083015191506101c090612cca8583018415159052565b83015191506101e0612cdf8582018415159052565b90830151915061020090612cf68583018415159052565b8301519150610220612d0b8582018415159052565b9083015173ffffffffffffffffffffffffffffffffffffffff16610240850152909101516102609092019190915250565b600081518084526020808501808196508360051b810191508286016000805b86811015612e1b578385038a52825180518652860151604087870181905281518188018190529188019160609081890190865b81811015612e045785518051151584528c81015115158d8501528581015186850152848101518585015260808082015173ffffffffffffffffffffffffffffffffffffffff9081169186019190915260a0808301519086015260c0918201511690840152948b019460e090920191600101612d8e565b50509c89019c975050509286019250600101612d5b565b509298975050505050505050565b600081518084526020808501945080840160005b83811015612ea6578151805173ffffffffffffffffffffffffffffffffffffffff908116895284820151168489015260408082015190890152606080820151908901526080808201519089015260a0908101519088015260c09096019590820190600101612e3d565b509495945050505050565b60006103c08983526020612efe8185018b80518252602081015160208301526040810151604083015273ffffffffffffffffffffffffffffffffffffffff60608201511660608301525050565b612f0b60a085018a612bca565b8761032085015281610340850152612f2582850188612d3c565b9150838203610360850152612f3a8287612e29565b848103610380860152855480825260008781528381209450918301915b81811015612f8957845473ffffffffffffffffffffffffffffffffffffffff1683526001948501949284019201612f57565b50508481036103a0860152601b81527f4465706c6f7965642052657461696c69737420747265617375727900000000006020820152604081019c9b505050505050505050505050565b7f5072656d696e746564200000000000000000000000000000000000000000000081528183600a8301377f20746f6b656e732e0000000000000000000000000000000000000000000000009101600a810191909152601201919050565b86815285602082015273ffffffffffffffffffffffffffffffffffffffff8516604082015260c06060820152600061306a60c0830186612663565b93151560808301525090151560a090910152949350505050565b600060208083526080830173ffffffffffffffffffffffffffffffffffffffff85511682850152818501516040850152604085015160608086015281815180845260a0870191508483019350600092505b8083101561251257835182529284019260019290920191908401906130d5565b60006020828403121561310757600080fd5b813565ffffffffffff81168114611ff457600080fd5b8082018082111561035a5761035a612a6c565b805161204481612014565b8051801515811461204457600080fd5b60006060828403121561315d57600080fd5b61316561220e565b90506131708261313b565b815261317e6020830161313b565b602082015261318f6040830161313b565b604082015292915050565b600061028082840312156131ad57600080fd5b6131b5612237565b90506131c1838361314b565b8152606082015160208201526080820151604082015260a082015160608201526131ed60c0830161313b565b60808201526131fe60e0830161313b565b60a082015261010061321181840161313b565b60c083015261012061322481850161313b565b60e084015261014061323781860161313b565b83850152610160925061324b83860161313b565b82850152610180915061325f82860161313b565b908401526101a061327185820161313b565b838501526101c0925061328583860161313b565b828501526101e0915061329982860161313b565b908401526102006132ab85820161313b565b8385015261022092506132bf83860161313b565b828501526132d06102408601613130565b818501525050610260830151818301525092915050565b80516003811061204457600080fd5b60008060008385036103c081121561330d57600080fd5b6101208082121561331d57600080fd5b61332561225b565b9150855182526020860151602083015260408601516040830152606086015160608301526080860151608083015260a086015160a083015260c086015160c083015261337360e08701613130565b60e08301526101008087015181840152508194506133938782880161319a565b935050506133a46103a085016132e7565b90509250925092565b60006103a08883526133f9602084018980518252602081015160208301526040810151604083015273ffffffffffffffffffffffffffffffffffffffff60608201511660608301525050565b61340660a0840188612bca565b856103208401528061034084015261342081840186612d3c565b90508281036103608401526134358185612e29565b838103610380909401939093525050603481527f5363686564756c6564207265736572766564207261746520657870697279206f60208201527f662052657461696c69737420747265617375727900000000000000000000000060408201526060019695505050505050565b73ffffffffffffffffffffffffffffffffffffffff8316815260406020820152600082516040808401526134d86080840182612663565b905060208401516060840152809150509392505050565b8381526060602082015260006135086060830185612663565b828103604084015261351a8185612663565b9695505050505050565b7f5072656d696e746564200000000000000000000000000000000000000000000081526000825161355c81600a85016020870161263f565b7f20746f6b656e732e000000000000000000000000000000000000000000000000600a939091019283015250601201919050565b600181811c908216806135a457607f821691505b6020821081036120a4577f4e487b7100000000000000000000000000000000000000000000000000000000600052602260045260246000fd5b601f82111561362757600081815260208120601f850160051c810160208610156136045750805b601f850160051c820191505b8181101561362357828155600101613610565b5050505b505050565b815167ffffffffffffffff811115613646576136466121df565b61365a816136548454613590565b846135dd565b602080601f8311600181146136ad57600084156136775750858301515b7fffffffffffffffffffffffffffffffffffffffffffffffffffffffffffffffff600386901b1c1916600185901b178555613623565b6000858152602081207fffffffffffffffffffffffffffffffffffffffffffffffffffffffffffffffe08616915b828110156136fa578886015182559484019460019091019084016136db565b508582101561373657878501517fffffffffffffffffffffffffffffffffffffffffffffffffffffffffffffffff600388901b60f8161c191681555b5050505050600190811b01905550565b803561375181612014565b73ffffffffffffffffffffffffffffffffffffffff1682526020818101359083015260408082013590830152606090810135910152565b602081526137b66020820161379c84612039565b73ffffffffffffffffffffffffffffffffffffffff169052565b60006137c460208401612039565b73ffffffffffffffffffffffffffffffffffffffff81166040840152506137f16060830160408501613746565b60c083013560e083015261010060e084013581840152613812818501612039565b90506101206138388185018373ffffffffffffffffffffffffffffffffffffffff169052565b6101409150808501358285015250610160818501358185015261385d81860186612915565b925090506101a0610180818187015261387b6101c087018585612979565b935061388981880188612915565b935090507fffffffffffffffffffffffffffffffffffffffffffffffffffffffffffffffe086850301828701526138c1848483612979565b979650505050505050565b60006138da612322846122ce565b90508281528383830111156138ee57600080fd5b611ff483602083018461263f565b60008060006060848603121561391157600080fd5b8351925060208085015167ffffffffffffffff8082111561393157600080fd5b818701915087601f83011261394557600080fd5b6139538883518585016138cc565b9450604087015191508082111561396957600080fd5b818701915087601f83011261397d57600080fd5b815161398b612322826123e1565b81815260059190911b8301840190848101908a8311156139aa57600080fd5b8585015b83811015613a64578051858111156139c557600080fd5b86016060818e037fffffffffffffffffffffffffffffffffffffffffffffffffffffffffffffffe00112156139f957600080fd5b613a0161220e565b88820151613a0e81612014565b8152604082015189820152606082015187811115613a2b57600080fd5b8083019250508d603f830112613a4057600080fd5b613a518e8a840151604085016138cc565b60408201528452509186019186016139ae565b508096505050505050509250925092565b60008083357fffffffffffffffffffffffffffffffffffffffffffffffffffffffffffffffe1843603018112613aaa57600080fd5b83018035915067ffffffffffffffff821115613ac557600080fd5b60200191503681900382131561208b57600080fdfea264697066735822122025510982f420442836cc8bea166d231ca57b87f9921cae2cccb8f950a7d7dbde64736f6c63430008140033",
    "linkReferences": {}
  },
  "methodIdentifiers": {
    "buybackDelegateDataSourceOf(uint256)": "ef8eadd5",
    "controller()": "f77c4791",
    "delegateAllocationsOf(uint256,uint256)": "abc603e3",
    "deployBasicProjectFor(address,(string,uint256),string,string,(uint256,uint256,uint256,uint256,uint256,uint256,uint48))": "0e53d9cc",
    "deployPayAllocatorProjectFor(address,(string,uint256),string,string,(uint256,uint256,uint256,uint256,uint256,uint256,uint48),(address,uint256,bytes)[],uint8)": "4e777fd7",
    "onERC721Received(address,address,uint256,bytes)": "150b7a02",
    "payParams((address,address,(address,uint256,uint256,uint256),uint256,uint256,address,uint256,uint256,string,bytes))": "d46cf171",
    "permissionIndexes(uint256)": "9483e771",
    "reconfigurationStartTimestampOf(uint256)": "560f7b03",
    "redeemParams((address,address,uint256,uint256,uint256,uint256,uint256,(address,uint256,uint256,uint256),bool,uint256,string,bytes))": "a51cfd18",
    "scheduleReconfigurationOf(uint256)": "3ce6d3e2",
    "supportsInterface(bytes4)": "01ffc9a7",
    "terminals(uint256)": "0219758e"
  },
  "id": 70
}