{
  "abi": [
    {
      "inputs": [
        {
          "internalType": "contract IJBController3_1",
          "name": "_controller",
          "type": "address"
        },
        {
          "internalType": "contract IJBPayoutRedemptionPaymentTerminal3_1_1",
          "name": "_terminal",
          "type": "address"
        }
      ],
      "stateMutability": "nonpayable",
      "type": "constructor"
    },
    {
      "inputs": [],
      "name": "RECONFIGURATION_ALREADY_SCHEDULED",
      "type": "error"
    },
    {
      "inputs": [
        {
          "internalType": "uint256",
          "name": "",
          "type": "uint256"
        }
      ],
      "name": "buybackDelegateDataSourceOf",
      "outputs": [
        {
          "internalType": "contract IJBFundingCycleDataSource3_1_1",
          "name": "",
          "type": "address"
        }
      ],
      "stateMutability": "view",
      "type": "function"
    },
    {
      "inputs": [],
      "name": "controller",
      "outputs": [
        {
          "internalType": "contract IJBController3_1",
          "name": "",
          "type": "address"
        }
      ],
      "stateMutability": "view",
      "type": "function"
    },
    {
      "inputs": [
        {
          "internalType": "uint256",
          "name": "",
          "type": "uint256"
        },
        {
          "internalType": "uint256",
          "name": "",
          "type": "uint256"
        }
      ],
      "name": "delegateAllocationsOf",
      "outputs": [
        {
          "internalType": "contract IJBPayDelegate3_1_1",
          "name": "delegate",
          "type": "address"
        },
        {
          "internalType": "uint256",
          "name": "amount",
          "type": "uint256"
        },
        {
          "internalType": "bytes",
          "name": "metadata",
          "type": "bytes"
        }
      ],
      "stateMutability": "view",
      "type": "function"
    },
    {
      "inputs": [
        {
          "internalType": "address",
          "name": "_operator",
          "type": "address"
        },
        {
          "components": [
            {
              "internalType": "string",
              "name": "content",
              "type": "string"
            },
            {
              "internalType": "uint256",
              "name": "domain",
              "type": "uint256"
            }
          ],
          "internalType": "struct JBProjectMetadata",
          "name": "_projectMetadata",
          "type": "tuple"
        },
        {
          "internalType": "string",
          "name": "_name",
          "type": "string"
        },
        {
          "internalType": "string",
          "name": "_symbol",
          "type": "string"
        },
        {
          "components": [
            {
              "internalType": "uint256",
              "name": "initialIssuanceRate",
              "type": "uint256"
            },
            {
              "internalType": "uint256",
              "name": "premintTokenAmount",
              "type": "uint256"
            },
            {
              "internalType": "uint256",
              "name": "discountRate",
              "type": "uint256"
            },
            {
              "internalType": "uint256",
              "name": "discountPeriod",
              "type": "uint256"
            },
            {
              "internalType": "uint256",
              "name": "redemptionRate",
              "type": "uint256"
            },
            {
              "internalType": "uint256",
              "name": "reservedRate",
              "type": "uint256"
            },
            {
              "internalType": "uint48",
              "name": "reservedRateDuration",
              "type": "uint48"
            }
          ],
          "internalType": "struct BasicRetailistJBParams",
          "name": "_data",
          "type": "tuple"
        }
      ],
      "name": "deployBasicProjectFor",
      "outputs": [
        {
          "internalType": "uint256",
          "name": "projectId",
          "type": "uint256"
        }
      ],
      "stateMutability": "nonpayable",
      "type": "function"
    },
    {
      "inputs": [
        {
          "internalType": "address",
          "name": "_operator",
          "type": "address"
        },
        {
          "components": [
            {
              "internalType": "string",
              "name": "content",
              "type": "string"
            },
            {
              "internalType": "uint256",
              "name": "domain",
              "type": "uint256"
            }
          ],
          "internalType": "struct JBProjectMetadata",
          "name": "_projectMetadata",
          "type": "tuple"
        },
        {
          "internalType": "string",
          "name": "_name",
          "type": "string"
        },
        {
          "internalType": "string",
          "name": "_symbol",
          "type": "string"
        },
        {
          "components": [
            {
              "internalType": "uint256",
              "name": "initialIssuanceRate",
              "type": "uint256"
            },
            {
              "internalType": "uint256",
              "name": "premintTokenAmount",
              "type": "uint256"
            },
            {
              "internalType": "uint256",
              "name": "discountRate",
              "type": "uint256"
            },
            {
              "internalType": "uint256",
              "name": "discountPeriod",
              "type": "uint256"
            },
            {
              "internalType": "uint256",
              "name": "redemptionRate",
              "type": "uint256"
            },
            {
              "internalType": "uint256",
              "name": "reservedRate",
              "type": "uint256"
            },
            {
              "internalType": "uint48",
              "name": "reservedRateDuration",
              "type": "uint48"
            }
          ],
          "internalType": "struct BasicRetailistJBParams",
          "name": "_data",
          "type": "tuple"
        },
        {
          "components": [
            {
              "internalType": "contract IJBPayDelegate3_1_1",
              "name": "delegate",
              "type": "address"
            },
            {
              "internalType": "uint256",
              "name": "amount",
              "type": "uint256"
            },
            {
              "internalType": "bytes",
              "name": "metadata",
              "type": "bytes"
            }
          ],
          "internalType": "struct JBPayDelegateAllocation3_1_1[]",
          "name": "_delegateAllocations",
          "type": "tuple[]"
        },
        {
          "internalType": "uint256",
          "name": "_metadata",
          "type": "uint256"
        }
      ],
      "name": "deployPayAllocatorProjectFor",
      "outputs": [
        {
          "internalType": "uint256",
          "name": "projectId",
          "type": "uint256"
        }
      ],
      "stateMutability": "nonpayable",
      "type": "function"
    },
    {
      "inputs": [
        {
          "internalType": "address",
          "name": "_operator",
          "type": "address"
        },
        {
          "internalType": "address",
          "name": "_from",
          "type": "address"
        },
        {
          "internalType": "uint256",
          "name": "_tokenId",
          "type": "uint256"
        },
        {
          "internalType": "bytes",
          "name": "_data",
          "type": "bytes"
        }
      ],
      "name": "onERC721Received",
      "outputs": [
        {
          "internalType": "bytes4",
          "name": "",
          "type": "bytes4"
        }
      ],
      "stateMutability": "view",
      "type": "function"
    },
    {
      "inputs": [
        {
          "components": [
            {
              "internalType": "contract IJBPaymentTerminal",
              "name": "terminal",
              "type": "address"
            },
            {
              "internalType": "address",
              "name": "payer",
              "type": "address"
            },
            {
              "components": [
                {
                  "internalType": "address",
                  "name": "token",
                  "type": "address"
                },
                {
                  "internalType": "uint256",
                  "name": "value",
                  "type": "uint256"
                },
                {
                  "internalType": "uint256",
                  "name": "decimals",
                  "type": "uint256"
                },
                {
                  "internalType": "uint256",
                  "name": "currency",
                  "type": "uint256"
                }
              ],
              "internalType": "struct JBTokenAmount",
              "name": "amount",
              "type": "tuple"
            },
            {
              "internalType": "uint256",
              "name": "projectId",
              "type": "uint256"
            },
            {
              "internalType": "uint256",
              "name": "currentFundingCycleConfiguration",
              "type": "uint256"
            },
            {
              "internalType": "address",
              "name": "beneficiary",
              "type": "address"
            },
            {
              "internalType": "uint256",
              "name": "weight",
              "type": "uint256"
            },
            {
              "internalType": "uint256",
              "name": "reservedRate",
              "type": "uint256"
            },
            {
              "internalType": "string",
              "name": "memo",
              "type": "string"
            },
            {
              "internalType": "bytes",
              "name": "metadata",
              "type": "bytes"
            }
          ],
          "internalType": "struct JBPayParamsData",
          "name": "_data",
          "type": "tuple"
        }
      ],
      "name": "payParams",
      "outputs": [
        {
          "internalType": "uint256",
          "name": "weight",
          "type": "uint256"
        },
        {
          "internalType": "string",
          "name": "memo",
          "type": "string"
        },
        {
          "components": [
            {
              "internalType": "contract IJBPayDelegate3_1_1",
              "name": "delegate",
              "type": "address"
            },
            {
              "internalType": "uint256",
              "name": "amount",
              "type": "uint256"
            },
            {
              "internalType": "bytes",
              "name": "metadata",
              "type": "bytes"
            }
          ],
          "internalType": "struct JBPayDelegateAllocation3_1_1[]",
          "name": "delegateAllocations",
          "type": "tuple[]"
        }
      ],
      "stateMutability": "view",
      "type": "function"
    },
    {
      "inputs": [
        {
          "internalType": "uint256",
          "name": "",
          "type": "uint256"
        }
      ],
      "name": "permissionIndexes",
      "outputs": [
        {
          "internalType": "uint256",
          "name": "",
          "type": "uint256"
        }
      ],
      "stateMutability": "view",
      "type": "function"
    },
    {
      "inputs": [
        {
          "internalType": "uint256",
          "name": "projectId",
          "type": "uint256"
        }
      ],
      "name": "reconfigurationStartTimestampOf",
      "outputs": [
        {
          "internalType": "uint256",
          "name": "",
          "type": "uint256"
        }
      ],
      "stateMutability": "view",
      "type": "function"
    },
    {
      "inputs": [
        {
          "components": [
            {
              "internalType": "contract IJBPaymentTerminal",
              "name": "terminal",
              "type": "address"
            },
            {
              "internalType": "address",
              "name": "holder",
              "type": "address"
            },
            {
              "internalType": "uint256",
              "name": "projectId",
              "type": "uint256"
            },
            {
              "internalType": "uint256",
              "name": "currentFundingCycleConfiguration",
              "type": "uint256"
            },
            {
              "internalType": "uint256",
              "name": "tokenCount",
              "type": "uint256"
            },
            {
              "internalType": "uint256",
              "name": "totalSupply",
              "type": "uint256"
            },
            {
              "internalType": "uint256",
              "name": "overflow",
              "type": "uint256"
            },
            {
              "components": [
                {
                  "internalType": "address",
                  "name": "token",
                  "type": "address"
                },
                {
                  "internalType": "uint256",
                  "name": "value",
                  "type": "uint256"
                },
                {
                  "internalType": "uint256",
                  "name": "decimals",
                  "type": "uint256"
                },
                {
                  "internalType": "uint256",
                  "name": "currency",
                  "type": "uint256"
                }
              ],
              "internalType": "struct JBTokenAmount",
              "name": "reclaimAmount",
              "type": "tuple"
            },
            {
              "internalType": "bool",
              "name": "useTotalOverflow",
              "type": "bool"
            },
            {
              "internalType": "uint256",
              "name": "redemptionRate",
              "type": "uint256"
            },
            {
              "internalType": "string",
              "name": "memo",
              "type": "string"
            },
            {
              "internalType": "bytes",
              "name": "metadata",
              "type": "bytes"
            }
          ],
          "internalType": "struct JBRedeemParamsData",
          "name": "_data",
          "type": "tuple"
        }
      ],
      "name": "redeemParams",
      "outputs": [
        {
          "internalType": "uint256",
          "name": "",
          "type": "uint256"
        },
        {
          "internalType": "string",
          "name": "",
          "type": "string"
        },
        {
          "components": [
            {
              "internalType": "contract IJBRedemptionDelegate3_1_1",
              "name": "delegate",
              "type": "address"
            },
            {
              "internalType": "uint256",
              "name": "amount",
              "type": "uint256"
            },
            {
              "internalType": "bytes",
              "name": "metadata",
              "type": "bytes"
            }
          ],
          "internalType": "struct JBRedemptionDelegateAllocation3_1_1[]",
          "name": "",
          "type": "tuple[]"
        }
      ],
      "stateMutability": "view",
      "type": "function"
    },
    {
      "inputs": [
        {
          "internalType": "uint256",
          "name": "_projectId",
          "type": "uint256"
        }
      ],
      "name": "scheduleReconfigurationOf",
      "outputs": [],
      "stateMutability": "nonpayable",
      "type": "function"
    },
    {
      "inputs": [
        {
          "internalType": "bytes4",
          "name": "_interfaceId",
          "type": "bytes4"
        }
      ],
      "name": "supportsInterface",
      "outputs": [
        {
          "internalType": "bool",
          "name": "",
          "type": "bool"
        }
      ],
      "stateMutability": "view",
      "type": "function"
    },
    {
      "inputs": [
        {
          "internalType": "uint256",
          "name": "",
          "type": "uint256"
        }
      ],
      "name": "terminals",
      "outputs": [
        {
          "internalType": "contract IJBPaymentTerminal",
          "name": "",
          "type": "address"
        }
      ],
      "stateMutability": "view",
      "type": "function"
    }
  ],
  "bytecode": {
    "object": "0x60a06040523480156200001157600080fd5b5060405162003c9038038062003c908339810160408190526200003491620000d7565b6001600160a01b0391821660805260008054600180820183557f290decd9548b62a8d60345a988386fc84ba6bc95484008f6362f93160ef3e56390910180546001600160a01b031916939094169290921790925580548082018255915260127fb10e2d527612073b26eecdfd717e6a320cf44b4afac2b0732d9fcbe2b7fa0cf69091015562000116565b6001600160a01b0381168114620000d457600080fd5b50565b60008060408385031215620000eb57600080fd5b8251620000f881620000be565b60208401519092506200010b81620000be565b809150509250929050565b608051613b036200018d600039600081816102a50152818161051d0152818161062d015281816107430152818161098601528181610a4801528181610c7201528181610dcb01528181610f7e0152818161125901528181611369015281816114c30152818161174801526118080152613b036000f3fe608060405234801561001057600080fd5b50600436106100df5760003560e01c80638a7cf0221161008c578063abc603e311610066578063abc603e314610226578063d46cf17114610248578063ef8eadd51461026a578063f77c4791146102a057600080fd5b80638a7cf022146101de5780639483e771146101f1578063a51cfd181461020457600080fd5b8063150b7a02116100bd578063150b7a02146101655780633ce6d3e2146101a9578063560f7b03146101be57600080fd5b806301ffc9a7146100e45780630219758e1461010c5780630e53d9cc14610144575b600080fd5b6100f76100f2366004611faf565b6102c7565b60405190151581526020015b60405180910390f35b61011f61011a366004611ff8565b610360565b60405173ffffffffffffffffffffffffffffffffffffffff9091168152602001610103565b6101576101523660046120a7565b610397565b604051908152602001610103565b610178610173366004612169565b610c6e565b6040517fffffffff000000000000000000000000000000000000000000000000000000009091168152602001610103565b6101bc6101b7366004611ff8565b610d82565b005b6101576101cc366004611ff8565b60026020526000908152604090205481565b6101576101ec36600461251a565b6110d3565b6101576101ff366004611ff8565b611afa565b6102176102123660046125f6565b611b1b565b604051610103939291906126a0565b610239610234366004612769565b611b83565b6040516101039392919061278b565b61025b6102563660046127c9565b611c66565b60405161010393929190612805565b61011f610278366004611ff8565b60036020526000908152604090205473ffffffffffffffffffffffffffffffffffffffff1681565b61011f7f000000000000000000000000000000000000000000000000000000000000000081565b60007fffffffff0000000000000000000000000000000000000000000000000000000082167f71700c6900000000000000000000000000000000000000000000000000000000148061035a57507f150b7a02000000000000000000000000000000000000000000000000000000007fffffffff000000000000000000000000000000000000000000000000000000008316145b92915050565b6000818154811061037057600080fd5b60009182526020909120015473ffffffffffffffffffffffffffffffffffffffff16905081565b604080516001808252818301909252600091829190816020015b6040805180820190915260008152606060208201528152602001906001900390816103b157505060408051600180825281830190925291925060009190602082015b6040805160e08101825260008082526020808301829052928201819052606082018190526080820181905260a0820181905260c082015282527fffffffffffffffffffffffffffffffffffffffffffffffffffffffffffffffff9092019101816103f35790505090506040518060e00160405280600015158152602001600015158152602001633b9aca008152602001600081526020018b73ffffffffffffffffffffffffffffffffffffffff16815260200160008152602001600073ffffffffffffffffffffffffffffffffffffffff16815250816001815181106104db576104db6128bc565b6020026020010181905250604051806040016040528060028152602001828152508260008151811061050f5761050f6128bc565b6020026020010181905250507f000000000000000000000000000000000000000000000000000000000000000073ffffffffffffffffffffffffffffffffffffffff16638b79543c6040518163ffffffff1660e01b8152600401602060405180830381865afa158015610586573d6000803e3d6000fd5b505050506040513d601f19601f820116820180604052508101906105aa91906128eb565b73ffffffffffffffffffffffffffffffffffffffff1663666d87a0308a6040518363ffffffff1660e01b81526004016105e49291906129b5565b6020604051808303816000875af1158015610603573d6000803e3d6000fd5b505050506040513d601f19601f820116820180604052508101906106279190612a0d565b915060007f000000000000000000000000000000000000000000000000000000000000000073ffffffffffffffffffffffffffffffffffffffff1663619306306040518163ffffffff1660e01b8152600401602060405180830381865afa158015610696573d6000803e3d6000fd5b505050506040513d601f19601f820116820180604052508101906106ba91906128eb565b73ffffffffffffffffffffffffffffffffffffffff1663a7f2a70b848a8a8a8a6040518663ffffffff1660e01b81526004016106fa959493929190612a26565b6020604051808303816000875af1158015610719573d6000803e3d6000fd5b505050506040513d601f19601f8201168201806040525081019061073d91906128eb565b905060007f000000000000000000000000000000000000000000000000000000000000000073ffffffffffffffffffffffffffffffffffffffff1663111d861b8560405180608001604052808960600135815260200160128a600001356107a49190612bae565b815260408a810135602080840191909152600092820183905281516102a081018352610240810184815261026082018590526102808201859052815260a0808e0135828401526080808f013583860152606083018690528201859052810184905260c0810184905260e081018490526001610100820181905261012082018590526101408201859052610160820185905261018082018590526101a082018590526101c08201526101e0810184905273ffffffffffffffffffffffffffffffffffffffff891661020082015261022081018490528251848152918201909252909190899082610906565b6108f36040518060c00160405280600073ffffffffffffffffffffffffffffffffffffffff168152602001600073ffffffffffffffffffffffffffffffffffffffff168152602001600081526020016000815260200160008152602001600081525090565b81526020019060019003908161088e5790505b5060006040518863ffffffff1660e01b815260040161092b9796959493929190612ea4565b6020604051808303816000875af115801561094a573d6000803e3d6000fd5b505050506040513d601f19601f8201168201806040525081019061096e9190612a0d565b5073ffffffffffffffffffffffffffffffffffffffff7f000000000000000000000000000000000000000000000000000000000000000016638ae9c07b856109bb601260208a0135612bae565b8e8b8b6040516020016109cf929190612fc5565b6040516020818303038152906040526000806040518763ffffffff1660e01b8152600401610a0296959493929190613022565b6020604051808303816000875af1158015610a21573d6000803e3d6000fd5b505050506040513d601f19601f82011682018060405250810190610a459190612a0d565b507f000000000000000000000000000000000000000000000000000000000000000073ffffffffffffffffffffffffffffffffffffffff16632bdfe0046040518163ffffffff1660e01b8152600401602060405180830381865afa158015610ab1573d6000803e3d6000fd5b505050506040513d601f19601f82011682018060405250810190610ad591906128eb565b73ffffffffffffffffffffffffffffffffffffffff1663ad007d636040518163ffffffff1660e01b8152600401602060405180830381865afa158015610b1f573d6000803e3d6000fd5b505050506040513d601f19601f82011682018060405250810190610b4391906128eb565b73ffffffffffffffffffffffffffffffffffffffff1663529cdd2e60405180606001604052808e73ffffffffffffffffffffffffffffffffffffffff1681526020018781526020016001805480602002602001604051908101604052809291908181526020018280548015610bd757602002820191906000526020600020905b815481526020019060010190808311610bc3575b50505050508152506040518263ffffffff1660e01b8152600401610bfb9190613077565b600060405180830381600087803b158015610c1557600080fd5b505af1158015610c29573d6000803e3d6000fd5b50610c3e9250505060e0860160c087016130e8565b610c509065ffffffffffff1642613110565b60008581526002602052604090205550919998505050505050505050565b60007f000000000000000000000000000000000000000000000000000000000000000073ffffffffffffffffffffffffffffffffffffffff16638b79543c6040518163ffffffff1660e01b8152600401602060405180830381865afa158015610cdb573d6000803e3d6000fd5b505050506040513d601f19601f82011682018060405250810190610cff91906128eb565b73ffffffffffffffffffffffffffffffffffffffff163373ffffffffffffffffffffffffffffffffffffffff1614610d3657600080fd5b73ffffffffffffffffffffffffffffffffffffffff851615610d5757600080fd5b507f150b7a020000000000000000000000000000000000000000000000000000000095945050505050565b6040517f1f51045300000000000000000000000000000000000000000000000000000000815260048101829052600090819073ffffffffffffffffffffffffffffffffffffffff7f00000000000000000000000000000000000000000000000000000000000000001690631f510453906024016103c060405180830381865afa158015610e13573d6000803e3d6000fd5b505050506040513d601f19601f82011682018060405250810190610e3791906132e9565b5081519193509150600114610e78576040517fc97554fa00000000000000000000000000000000000000000000000000000000815260040160405180910390fd5b60408051608080820183528481015182526000602080840182905260c08088015185870152606080860184905286516102a0810188526102408101858152610260820186905261028082018690528152808401859052888801518189015290810184905293840183905260a08401839052830182905260e08301829052610100830182905261012083018290526101408301829052610160830182905261018083018290526101a083018290526101c083018290526101e083018290526102008087015173ffffffffffffffffffffffffffffffffffffffff908116918501919091526102208781015190850152888352600282528583205486518481529283019096527f0000000000000000000000000000000000000000000000000000000000000000169463badbdf289489949093909290610fd9565b604080518082019091526000815260606020820152815260200190600190039081610fb15790505b506040805160008082526020820190925290611068565b6110556040518060c00160405280600073ffffffffffffffffffffffffffffffffffffffff168152602001600073ffffffffffffffffffffffffffffffffffffffff168152602001600081526020016000815260200160008152602001600081525090565b815260200190600190039081610ff05790505b506040518763ffffffff1660e01b815260040161108a969594939291906133a0565b6020604051808303816000875af11580156110a9573d6000803e3d6000fd5b505050506040513d601f19601f820116820180604052508101906110cd9190612a0d565b50505050565b604080516001808252818301909252600091829190816020015b6040805180820190915260008152606060208201528152602001906001900390816110ed57505060408051600180825281830190925291925060009190602082015b6040805160e08101825260008082526020808301829052928201819052606082018190526080820181905260a0820181905260c082015282527fffffffffffffffffffffffffffffffffffffffffffffffffffffffffffffffff90920191018161112f5790505090506040518060e00160405280600015158152602001600015158152602001633b9aca008152602001600081526020018b73ffffffffffffffffffffffffffffffffffffffff16815260200160008152602001600073ffffffffffffffffffffffffffffffffffffffff1681525081600181518110611217576112176128bc565b6020026020010181905250604051806040016040528060028152602001828152508260008151811061124b5761124b6128bc565b6020026020010181905250507f000000000000000000000000000000000000000000000000000000000000000073ffffffffffffffffffffffffffffffffffffffff16638b79543c6040518163ffffffff1660e01b8152600401602060405180830381865afa1580156112c2573d6000803e3d6000fd5b505050506040513d601f19601f820116820180604052508101906112e691906128eb565b73ffffffffffffffffffffffffffffffffffffffff1663666d87a0308a6040518363ffffffff1660e01b8152600401611320929190613494565b6020604051808303816000875af115801561133f573d6000803e3d6000fd5b505050506040513d601f19601f820116820180604052508101906113639190612a0d565b915060007f000000000000000000000000000000000000000000000000000000000000000073ffffffffffffffffffffffffffffffffffffffff1663619306306040518163ffffffff1660e01b8152600401602060405180830381865afa1580156113d2573d6000803e3d6000fd5b505050506040513d601f19601f820116820180604052508101906113f691906128eb565b73ffffffffffffffffffffffffffffffffffffffff1663a7f2a70b848a8a6040518463ffffffff1660e01b8152600401611432939291906134e2565b6020604051808303816000875af1158015611451573d6000803e3d6000fd5b505050506040513d601f19601f8201168201806040525081019061147591906128eb565b600084815260036020908152604080832080547fffffffffffffffffffffffff000000000000000000000000000000000000000016905580516080810190915260608a0135815292935090917f000000000000000000000000000000000000000000000000000000000000000073ffffffffffffffffffffffffffffffffffffffff169163111d861b918791810161150f60128d35612bae565b81526020018b604001358152602001600073ffffffffffffffffffffffffffffffffffffffff1681525060405180610240016040528060405180606001604052806000151581526020016000151581526020016000151581525081526020018c60a0013581526020018c608001358152602001600081526020016000151581526020016000151581526020016000151581526020016000151581526020016001151581526020016000151581526020016000151581526020016000151581526020016000151581526020016000151581526020016001151581526020016000151581526020013073ffffffffffffffffffffffffffffffffffffffff1681526020018a815250600088600067ffffffffffffffff811115611632576116326121dc565b6040519080825280602002602001820160405280156116c857816020015b6116b56040518060c00160405280600073ffffffffffffffffffffffffffffffffffffffff168152602001600073ffffffffffffffffffffffffffffffffffffffff168152602001600081526020016000815260200160008152602001600081525090565b8152602001906001900390816116505790505b5060006040518863ffffffff1660e01b81526004016116ed9796959493929190612ea4565b6020604051808303816000875af115801561170c573d6000803e3d6000fd5b505050506040513d601f19601f820116820180604052508101906117309190612a0d565b5073ffffffffffffffffffffffffffffffffffffffff7f000000000000000000000000000000000000000000000000000000000000000016638ae9c07b8561177d601260208c0135612bae565b8e8c60405160200161178f9190613517565b6040516020818303038152906040526000806040518763ffffffff1660e01b81526004016117c296959493929190613022565b6020604051808303816000875af11580156117e1573d6000803e3d6000fd5b505050506040513d601f19601f820116820180604052508101906118059190612a0d565b507f000000000000000000000000000000000000000000000000000000000000000073ffffffffffffffffffffffffffffffffffffffff16632bdfe0046040518163ffffffff1660e01b8152600401602060405180830381865afa158015611871573d6000803e3d6000fd5b505050506040513d601f19601f8201168201806040525081019061189591906128eb565b73ffffffffffffffffffffffffffffffffffffffff1663ad007d636040518163ffffffff1660e01b8152600401602060405180830381865afa1580156118df573d6000803e3d6000fd5b505050506040513d601f19601f8201168201806040525081019061190391906128eb565b73ffffffffffffffffffffffffffffffffffffffff1663529cdd2e60405180606001604052808e73ffffffffffffffffffffffffffffffffffffffff168152602001878152602001600180548060200260200160405190810160405280929190818152602001828054801561199757602002820191906000526020600020905b815481526020019060010190808311611983575b50505050508152506040518263ffffffff1660e01b81526004016119bb9190613077565b600060405180830381600087803b1580156119d557600080fd5b505af11580156119e9573d6000803e3d6000fd5b506119fe9250505060e0880160c089016130e8565b611a109065ffffffffffff1642613110565b6000858152600260205260408120919091558651905b81811015611aea57878181518110611a4057611a406128bc565b6020026020010151600460008881526020019081526020016000208281548110611a6c57611a6c6128bc565b600091825260209182902083516003929092020180547fffffffffffffffffffffffff00000000000000000000000000000000000000001673ffffffffffffffffffffffffffffffffffffffff90921691909117815590820151600182015560408201516002820190611adf908261361f565b505050600101611a26565b5050505050979650505050505050565b60018181548110611b0a57600080fd5b600091825260209091200154905081565b604080516000808252602082019092526060908190839081611b67565b60408051606080820183526000808352602083015291810191909152815260200190600190039081611b385790505b5060408051602081019091526000815291969195509350915050565b60046020528160005260406000208181548110611b9f57600080fd5b600091825260209091206003909102018054600182015460028301805473ffffffffffffffffffffffffffffffffffffffff909316955090935090611be390613583565b80601f0160208091040260200160405190810160405280929190818152602001828054611c0f90613583565b8015611c5c5780601f10611c3157610100808354040283529160200191611c5c565b820191906000526020600020905b815481529060010190602001808311611c3f57829003601f168201915b5050505050905083565b60c08101356000908152600360205260408082205490517fd46cf1710000000000000000000000000000000000000000000000000000000081526060918291829173ffffffffffffffffffffffffffffffffffffffff169063d46cf17190611cd290889060040161377b565b600060405180830381865afa158015611cef573d6000803e3d6000fd5b505050506040513d6000823e601f3d9081017fffffffffffffffffffffffffffffffffffffffffffffffffffffffffffffffe0168201604052611d3591908101906138ef565b60c088013560009081526004602090815260408083208054825181850281018501909352808352969a509396509194919350849084015b82821015611e5d5760008481526020908190206040805160608101825260038602909201805473ffffffffffffffffffffffffffffffffffffffff16835260018101549383019390935260028301805492939291840191611dcc90613583565b80601f0160208091040260200160405190810160405280929190818152602001828054611df890613583565b8015611e455780601f10611e1a57610100808354040283529160200191611e45565b820191906000526020600020905b815481529060010190602001808311611e2857829003601f168201915b50505050508152505081526020019060010190611d6c565b50508251929350611e7391508290506001613110565b67ffffffffffffffff811115611e8b57611e8b6121dc565b604051908082528060200260200182016040528015611ed857816020015b60408051606080820183526000808352602083015291810191909152815260200190600190039081611ea95790505b50935060005b81811015611f2557828181518110611ef857611ef86128bc565b6020026020010151858281518110611f1257611f126128bc565b6020908102919091010152600101611ede565b5082600081518110611f3957611f396128bc565b6020026020010151848281518110611f5357611f536128bc565b6020908102919091010152611f6c610160880188613a68565b8080601f016020809104026020016040519081016040528093929190818152602001838380828437600092019190915250989a9299509597509095505050505050565b600060208284031215611fc157600080fd5b81357fffffffff0000000000000000000000000000000000000000000000000000000081168114611ff157600080fd5b9392505050565b60006020828403121561200a57600080fd5b5035919050565b73ffffffffffffffffffffffffffffffffffffffff8116811461203357600080fd5b50565b803561204181612011565b919050565b60008083601f84011261205857600080fd5b50813567ffffffffffffffff81111561207057600080fd5b60208301915083602082850101111561208857600080fd5b9250929050565b600060e082840312156120a157600080fd5b50919050565b6000806000806000806000610160888a0312156120c357600080fd5b87356120ce81612011565b9650602088013567ffffffffffffffff808211156120eb57600080fd5b908901906040828c0312156120ff57600080fd5b9096506040890135908082111561211557600080fd5b6121218b838c01612046565b909750955060608a013591508082111561213a57600080fd5b506121478a828b01612046565b909450925061215b90508960808a0161208f565b905092959891949750929550565b60008060008060006080868803121561218157600080fd5b853561218c81612011565b9450602086013561219c81612011565b935060408601359250606086013567ffffffffffffffff8111156121bf57600080fd5b6121cb88828901612046565b969995985093965092949392505050565b7f4e487b7100000000000000000000000000000000000000000000000000000000600052604160045260246000fd5b6040516060810167ffffffffffffffff8111828210171561222e5761222e6121dc565b60405290565b604051610240810167ffffffffffffffff8111828210171561222e5761222e6121dc565b604051610120810167ffffffffffffffff8111828210171561222e5761222e6121dc565b604051601f82017fffffffffffffffffffffffffffffffffffffffffffffffffffffffffffffffe016810167ffffffffffffffff811182821017156122c3576122c36121dc565b604052919050565b600067ffffffffffffffff8211156122e5576122e56121dc565b50601f017fffffffffffffffffffffffffffffffffffffffffffffffffffffffffffffffe01660200190565b600061232461231f846122cb565b61227c565b905082815283838301111561233857600080fd5b828260208301376000602084830101529392505050565b600082601f83011261236057600080fd5b611ff183833560208501612311565b60006040828403121561238157600080fd5b6040516040810167ffffffffffffffff82821081831117156123a5576123a56121dc565b8160405282935084359150808211156123bd57600080fd5b506123ca8582860161234f565b825250602083013560208201525092915050565b600067ffffffffffffffff8211156123f8576123f86121dc565b5060051b60200190565b600082601f83011261241357600080fd5b8135602061242361231f836123de565b82815260059290921b8401810191818101908684111561244257600080fd5b8286015b8481101561250f57803567ffffffffffffffff808211156124675760008081fd5b81890191506060807fffffffffffffffffffffffffffffffffffffffffffffffffffffffffffffffe0848d030112156124a05760008081fd5b6124a861220b565b878401356124b581612011565b8152604084810135898301529184013591838311156124d45760008081fd5b82850194508c603f8601126124eb57600093508384fd5b6124fb8d8a870135838801612311565b908201528652505050918301918301612446565b509695505050505050565b60008060008060008060006101a0888a03121561253657600080fd5b61253f88612036565b9650602088013567ffffffffffffffff8082111561255c57600080fd5b6125688b838c0161236f565b975060408a013591508082111561257e57600080fd5b61258a8b838c0161234f565b965060608a01359150808211156125a057600080fd5b6125ac8b838c0161234f565b95506125bb8b60808c0161208f565b94506101608a01359150808211156125d257600080fd5b506125df8a828b01612402565b925050610180880135905092959891949750929550565b60006020828403121561260857600080fd5b813567ffffffffffffffff81111561261f57600080fd5b82016101e08185031215611ff157600080fd5b60005b8381101561264d578181015183820152602001612635565b50506000910152565b6000815180845261266e816020860160208601612632565b601f017fffffffffffffffffffffffffffffffffffffffffffffffffffffffffffffffe0169290920160200192915050565b60006060858352602081818501526126ba82850187612656565b6040858203818701528187518084528484019150848160051b850101858a0160005b83811015612757578683037fffffffffffffffffffffffffffffffffffffffffffffffffffffffffffffffe00185528151805173ffffffffffffffffffffffffffffffffffffffff16845288810151898501528601518684018a90526127448a850182612656565b95890195935050908701906001016126dc565b50909c9b505050505050505050505050565b6000806040838503121561277c57600080fd5b50508035926020909101359150565b73ffffffffffffffffffffffffffffffffffffffff841681528260208201526060604082015260006127c06060830184612656565b95945050505050565b6000602082840312156127db57600080fd5b813567ffffffffffffffff8111156127f257600080fd5b82016101a08185031215611ff157600080fd5b600060608583526020818185015261281f82850187612656565b6040858203818701528187518084528484019150848160051b850101858a0160005b83811015612757578683037fffffffffffffffffffffffffffffffffffffffffffffffffffffffffffffffe00185528151805173ffffffffffffffffffffffffffffffffffffffff16845288810151898501528601518684018a90526128a98a850182612656565b9589019593505090870190600101612841565b7f4e487b7100000000000000000000000000000000000000000000000000000000600052603260045260246000fd5b6000602082840312156128fd57600080fd5b8151611ff181612011565b60008083357fffffffffffffffffffffffffffffffffffffffffffffffffffffffffffffffe184360301811261293d57600080fd5b830160208101925035905067ffffffffffffffff81111561295d57600080fd5b80360382131561208857600080fd5b8183528181602085013750600060208284010152600060207fffffffffffffffffffffffffffffffffffffffffffffffffffffffffffffffe0601f840116840101905092915050565b73ffffffffffffffffffffffffffffffffffffffff831681526040602082015260006129e18384612908565b6040808501526129f560808501828461296c565b91505060208401356060840152809150509392505050565b600060208284031215612a1f57600080fd5b5051919050565b858152606060208201526000612a4060608301868861296c565b8281036040840152612a5381858761296c565b98975050505050505050565b7f4e487b7100000000000000000000000000000000000000000000000000000000600052601160045260246000fd5b600181815b80851115612ae757817fffffffffffffffffffffffffffffffffffffffffffffffffffffffffffffffff04821115612acd57612acd612a5f565b80851615612ada57918102915b93841c9390800290612a93565b509250929050565b600082612afe5750600161035a565b81612b0b5750600061035a565b8160018114612b215760028114612b2b57612b47565b600191505061035a565b60ff841115612b3c57612b3c612a5f565b50506001821b61035a565b5060208310610133831016604e8410600b8410161715612b6a575081810a61035a565b612b748383612a8e565b807fffffffffffffffffffffffffffffffffffffffffffffffffffffffffffffffff04821115612ba657612ba6612a5f565b029392505050565b6000611ff160ff841683612aef565b612be28282518051151582526020808201511515908301526040908101511515910152565b6020810151606083015260408101516080830152606081015160a08301526080810151612c1360c084018215159052565b5060a081015180151560e08401525060c0810151610100612c378185018315159052565b60e08301519150610120612c4e8186018415159052565b90830151915061014090612c658583018415159052565b8301519150610160612c7a8582018415159052565b90830151915061018090612c918583018415159052565b83015191506101a0612ca68582018415159052565b9083015191506101c090612cbd8583018415159052565b83015191506101e0612cd28582018415159052565b90830151915061020090612ce98583018415159052565b8301519150610220612cfe8582018415159052565b9083015173ffffffffffffffffffffffffffffffffffffffff16610240850152909101516102609092019190915250565b600081518084526020808501808196508360051b810191508286016000805b86811015612e0e578385038a52825180518652860151604087870181905281518188018190529188019160609081890190865b81811015612df75785518051151584528c81015115158d8501528581015186850152848101518585015260808082015173ffffffffffffffffffffffffffffffffffffffff9081169186019190915260a0808301519086015260c0918201511690840152948b019460e090920191600101612d81565b50509c89019c975050509286019250600101612d4e565b509298975050505050505050565b600081518084526020808501945080840160005b83811015612e99578151805173ffffffffffffffffffffffffffffffffffffffff908116895284820151168489015260408082015190890152606080820151908901526080808201519089015260a0908101519088015260c09096019590820190600101612e30565b509495945050505050565b60006103c08983526020612ef18185018b80518252602081015160208301526040810151604083015273ffffffffffffffffffffffffffffffffffffffff60608201511660608301525050565b612efe60a085018a612bbd565b8761032085015281610340850152612f1882850188612d2f565b9150838203610360850152612f2d8287612e1c565b848103610380860152855480825260008781528381209450918301915b81811015612f7c57845473ffffffffffffffffffffffffffffffffffffffff1683526001948501949284019201612f4a565b50508481036103a0860152601b81527f4465706c6f7965642052657461696c69737420747265617375727900000000006020820152604081019c9b505050505050505050505050565b7f5072656d696e746564200000000000000000000000000000000000000000000081528183600a8301377f20746f6b656e732e0000000000000000000000000000000000000000000000009101600a810191909152601201919050565b86815285602082015273ffffffffffffffffffffffffffffffffffffffff8516604082015260c06060820152600061305d60c0830186612656565b93151560808301525090151560a090910152949350505050565b600060208083526080830173ffffffffffffffffffffffffffffffffffffffff85511682850152818501516040850152604085015160608086015281815180845260a0870191508483019350600092505b8083101561250f57835182529284019260019290920191908401906130c8565b6000602082840312156130fa57600080fd5b813565ffffffffffff81168114611ff157600080fd5b8082018082111561035a5761035a612a5f565b805161204181612011565b8051801515811461204157600080fd5b60006060828403121561315057600080fd5b61315861220b565b90506131638261312e565b81526131716020830161312e565b60208201526131826040830161312e565b604082015292915050565b600061028082840312156131a057600080fd5b6131a8612234565b90506131b4838361313e565b8152606082015160208201526080820151604082015260a082015160608201526131e060c0830161312e565b60808201526131f160e0830161312e565b60a082015261010061320481840161312e565b60c083015261012061321781850161312e565b60e084015261014061322a81860161312e565b83850152610160925061323e83860161312e565b82850152610180915061325282860161312e565b908401526101a061326485820161312e565b838501526101c0925061327883860161312e565b828501526101e0915061328c82860161312e565b9084015261020061329e85820161312e565b8385015261022092506132b283860161312e565b828501526132c36102408601613123565b818501525050610260830151818301525092915050565b80516003811061204157600080fd5b60008060008385036103c081121561330057600080fd5b6101208082121561331057600080fd5b613318612258565b9150855182526020860151602083015260408601516040830152606086015160608301526080860151608083015260a086015160a083015260c086015160c083015261336660e08701613123565b60e08301526101008087015181840152508194506133868782880161318d565b935050506133976103a085016132da565b90509250925092565b60006103a08883526133ec602084018980518252602081015160208301526040810151604083015273ffffffffffffffffffffffffffffffffffffffff60608201511660608301525050565b6133f960a0840188612bbd565b856103208401528061034084015261341381840186612d2f565b90508281036103608401526134288185612e1c565b838103610380909401939093525050603481527f5363686564756c6564207265736572766564207261746520657870697279206f60208201527f662052657461696c69737420747265617375727900000000000000000000000060408201526060019695505050505050565b73ffffffffffffffffffffffffffffffffffffffff8316815260406020820152600082516040808401526134cb6080840182612656565b905060208401516060840152809150509392505050565b8381526060602082015260006134fb6060830185612656565b828103604084015261350d8185612656565b9695505050505050565b7f5072656d696e746564200000000000000000000000000000000000000000000081526000825161354f81600a850160208701612632565b7f20746f6b656e732e000000000000000000000000000000000000000000000000600a939091019283015250601201919050565b600181811c9082168061359757607f821691505b6020821081036120a1577f4e487b7100000000000000000000000000000000000000000000000000000000600052602260045260246000fd5b601f82111561361a57600081815260208120601f850160051c810160208610156135f75750805b601f850160051c820191505b8181101561361657828155600101613603565b5050505b505050565b815167ffffffffffffffff811115613639576136396121dc565b61364d816136478454613583565b846135d0565b602080601f8311600181146136a0576000841561366a5750858301515b7fffffffffffffffffffffffffffffffffffffffffffffffffffffffffffffffff600386901b1c1916600185901b178555613616565b6000858152602081207fffffffffffffffffffffffffffffffffffffffffffffffffffffffffffffffe08616915b828110156136ed578886015182559484019460019091019084016136ce565b508582101561372957878501517fffffffffffffffffffffffffffffffffffffffffffffffffffffffffffffffff600388901b60f8161c191681555b5050505050600190811b01905550565b803561374481612011565b73ffffffffffffffffffffffffffffffffffffffff1682526020818101359083015260408082013590830152606090810135910152565b602081526137a96020820161378f84612036565b73ffffffffffffffffffffffffffffffffffffffff169052565b60006137b760208401612036565b73ffffffffffffffffffffffffffffffffffffffff81166040840152506137e46060830160408501613739565b60c083013560e083015261010060e084013581840152613805818501612036565b905061012061382b8185018373ffffffffffffffffffffffffffffffffffffffff169052565b6101409150808501358285015250610160818501358185015261385081860186612908565b925090506101a0610180818187015261386e6101c08701858561296c565b935061387c81880188612908565b935090507fffffffffffffffffffffffffffffffffffffffffffffffffffffffffffffffe086850301828701526138b484848361296c565b979650505050505050565b60006138cd61231f846122cb565b90508281528383830111156138e157600080fd5b611ff1836020830184612632565b60008060006060848603121561390457600080fd5b8351925060208085015167ffffffffffffffff8082111561392457600080fd5b818701915087601f83011261393857600080fd5b6139468883518585016138bf565b9450604087015191508082111561395c57600080fd5b818701915087601f83011261397057600080fd5b815161397e61231f826123de565b81815260059190911b8301840190848101908a83111561399d57600080fd5b8585015b83811015613a57578051858111156139b857600080fd5b86016060818e037fffffffffffffffffffffffffffffffffffffffffffffffffffffffffffffffe00112156139ec57600080fd5b6139f461220b565b88820151613a0181612011565b8152604082015189820152606082015187811115613a1e57600080fd5b8083019250508d603f830112613a3357600080fd5b613a448e8a840151604085016138bf565b60408201528452509186019186016139a1565b508096505050505050509250925092565b60008083357fffffffffffffffffffffffffffffffffffffffffffffffffffffffffffffffe1843603018112613a9d57600080fd5b83018035915067ffffffffffffffff821115613ab857600080fd5b60200191503681900382131561208857600080fdfea264697066735822122063b1a95b431bd3ef255e25c5fc7c003d5e43eb3a76d0efd228d25b46f56e39ba64736f6c63430008140033",
    "linkReferences": {}
  },
  "methodIdentifiers": {
    "buybackDelegateDataSourceOf(uint256)": "ef8eadd5",
    "controller()": "f77c4791",
    "delegateAllocationsOf(uint256,uint256)": "abc603e3",
    "deployBasicProjectFor(address,(string,uint256),string,string,(uint256,uint256,uint256,uint256,uint256,uint256,uint48))": "0e53d9cc",
    "deployPayAllocatorProjectFor(address,(string,uint256),string,string,(uint256,uint256,uint256,uint256,uint256,uint256,uint48),(address,uint256,bytes)[],uint256)": "8a7cf022",
    "onERC721Received(address,address,uint256,bytes)": "150b7a02",
    "payParams((address,address,(address,uint256,uint256,uint256),uint256,uint256,address,uint256,uint256,string,bytes))": "d46cf171",
    "permissionIndexes(uint256)": "9483e771",
    "reconfigurationStartTimestampOf(uint256)": "560f7b03",
    "redeemParams((address,address,uint256,uint256,uint256,uint256,uint256,(address,uint256,uint256,uint256),bool,uint256,string,bytes))": "a51cfd18",
    "scheduleReconfigurationOf(uint256)": "3ce6d3e2",
    "supportsInterface(bytes4)": "01ffc9a7",
    "terminals(uint256)": "0219758e"
  },
  "id": 83
}