{
  "abi": [
    {
      "inputs": [
        {
          "internalType": "contract IJBController3_1",
          "name": "_controller",
          "type": "address"
        }
      ],
      "stateMutability": "nonpayable",
      "type": "constructor"
    },
    {
      "inputs": [],
      "name": "RECONFIGURATION_ALREADY_SCHEDULED",
      "type": "error"
    },
    {
      "inputs": [
        {
          "internalType": "uint256",
          "name": "",
          "type": "uint256"
        }
      ],
      "name": "buybackDelegateDataSourceOf",
      "outputs": [
        {
          "internalType": "contract IJBGenericBuybackDelegate",
          "name": "",
          "type": "address"
        }
      ],
      "stateMutability": "view",
      "type": "function"
    },
    {
      "inputs": [],
      "name": "controller",
      "outputs": [
        {
          "internalType": "contract IJBController3_1",
          "name": "",
          "type": "address"
        }
      ],
      "stateMutability": "view",
      "type": "function"
    },
    {
      "inputs": [
        {
          "internalType": "uint256",
          "name": "",
          "type": "uint256"
        },
        {
          "internalType": "uint256",
          "name": "",
          "type": "uint256"
        }
      ],
      "name": "delegateAllocationsOf",
      "outputs": [
        {
          "internalType": "contract IJBPayDelegate3_1_1",
          "name": "delegate",
          "type": "address"
        },
        {
          "internalType": "uint256",
          "name": "amount",
          "type": "uint256"
        },
        {
          "internalType": "bytes",
          "name": "metadata",
          "type": "bytes"
        }
      ],
      "stateMutability": "view",
      "type": "function"
    },
    {
      "inputs": [
        {
          "internalType": "address",
          "name": "_operator",
          "type": "address"
        },
        {
          "components": [
            {
              "internalType": "string",
              "name": "content",
              "type": "string"
            },
            {
              "internalType": "uint256",
              "name": "domain",
              "type": "uint256"
            }
          ],
          "internalType": "struct JBProjectMetadata",
          "name": "_projectMetadata",
          "type": "tuple"
        },
        {
          "internalType": "string",
          "name": "_name",
          "type": "string"
        },
        {
          "internalType": "string",
          "name": "_symbol",
          "type": "string"
        },
        {
          "components": [
            {
              "internalType": "uint256",
              "name": "initialIssuanceRate",
              "type": "uint256"
            },
            {
              "internalType": "uint256",
              "name": "premintTokenAmount",
              "type": "uint256"
            },
            {
              "internalType": "uint256",
              "name": "issuanceReductionRate",
              "type": "uint256"
            },
            {
              "internalType": "uint256",
              "name": "generationDuration",
              "type": "uint256"
            },
            {
              "internalType": "uint256",
              "name": "exitTaxRate",
              "type": "uint256"
            },
            {
              "internalType": "uint256",
              "name": "devTaxRate",
              "type": "uint256"
            },
            {
              "internalType": "uint48",
              "name": "devTaxDuration",
              "type": "uint48"
            },
            {
              "internalType": "uint24",
              "name": "poolFee",
              "type": "uint24"
            }
          ],
          "internalType": "struct BasicRetailistJBParams",
          "name": "_data",
          "type": "tuple"
        },
        {
          "internalType": "contract IJBPaymentTerminal[]",
          "name": "_terminals",
          "type": "address[]"
        },
        {
          "internalType": "contract IJBGenericBuybackDelegate",
          "name": "_buybackDelegate",
          "type": "address"
        }
      ],
      "name": "deployBasicProjectFor",
      "outputs": [
        {
          "internalType": "uint256",
          "name": "projectId",
          "type": "uint256"
        }
      ],
      "stateMutability": "nonpayable",
      "type": "function"
    },
    {
      "inputs": [
        {
          "internalType": "address",
          "name": "_operator",
          "type": "address"
        },
        {
          "components": [
            {
              "internalType": "string",
              "name": "content",
              "type": "string"
            },
            {
              "internalType": "uint256",
              "name": "domain",
              "type": "uint256"
            }
          ],
          "internalType": "struct JBProjectMetadata",
          "name": "_projectMetadata",
          "type": "tuple"
        },
        {
          "internalType": "string",
          "name": "_name",
          "type": "string"
        },
        {
          "internalType": "string",
          "name": "_symbol",
          "type": "string"
        },
        {
          "components": [
            {
              "internalType": "uint256",
              "name": "initialIssuanceRate",
              "type": "uint256"
            },
            {
              "internalType": "uint256",
              "name": "premintTokenAmount",
              "type": "uint256"
            },
            {
              "internalType": "uint256",
              "name": "issuanceReductionRate",
              "type": "uint256"
            },
            {
              "internalType": "uint256",
              "name": "generationDuration",
              "type": "uint256"
            },
            {
              "internalType": "uint256",
              "name": "exitTaxRate",
              "type": "uint256"
            },
            {
              "internalType": "uint256",
              "name": "devTaxRate",
              "type": "uint256"
            },
            {
              "internalType": "uint48",
              "name": "devTaxDuration",
              "type": "uint48"
            },
            {
              "internalType": "uint24",
              "name": "poolFee",
              "type": "uint24"
            }
          ],
          "internalType": "struct BasicRetailistJBParams",
          "name": "_data",
          "type": "tuple"
        },
        {
          "internalType": "contract IJBPaymentTerminal[]",
          "name": "_terminals",
          "type": "address[]"
        },
        {
          "internalType": "contract IJBGenericBuybackDelegate",
          "name": "_buybackDelegate",
          "type": "address"
        },
        {
          "components": [
            {
              "internalType": "contract IJBPayDelegate3_1_1",
              "name": "delegate",
              "type": "address"
            },
            {
              "internalType": "uint256",
              "name": "amount",
              "type": "uint256"
            },
            {
              "internalType": "bytes",
              "name": "metadata",
              "type": "bytes"
            }
          ],
          "internalType": "struct JBPayDelegateAllocation3_1_1[]",
          "name": "_delegateAllocations",
          "type": "tuple[]"
        },
        {
          "internalType": "uint8",
          "name": "_extraFundingCycleMetadata",
          "type": "uint8"
        }
      ],
      "name": "deployPayAllocatorProjectFor",
      "outputs": [
        {
          "internalType": "uint256",
          "name": "projectId",
          "type": "uint256"
        }
      ],
      "stateMutability": "nonpayable",
      "type": "function"
    },
    {
      "inputs": [
        {
          "internalType": "address",
          "name": "_operator",
          "type": "address"
        },
        {
          "internalType": "address",
          "name": "_from",
          "type": "address"
        },
        {
          "internalType": "uint256",
          "name": "_tokenId",
          "type": "uint256"
        },
        {
          "internalType": "bytes",
          "name": "_data",
          "type": "bytes"
        }
      ],
      "name": "onERC721Received",
      "outputs": [
        {
          "internalType": "bytes4",
          "name": "",
          "type": "bytes4"
        }
      ],
      "stateMutability": "view",
      "type": "function"
    },
    {
      "inputs": [
        {
          "components": [
            {
              "internalType": "contract IJBPaymentTerminal",
              "name": "terminal",
              "type": "address"
            },
            {
              "internalType": "address",
              "name": "payer",
              "type": "address"
            },
            {
              "components": [
                {
                  "internalType": "address",
                  "name": "token",
                  "type": "address"
                },
                {
                  "internalType": "uint256",
                  "name": "value",
                  "type": "uint256"
                },
                {
                  "internalType": "uint256",
                  "name": "decimals",
                  "type": "uint256"
                },
                {
                  "internalType": "uint256",
                  "name": "currency",
                  "type": "uint256"
                }
              ],
              "internalType": "struct JBTokenAmount",
              "name": "amount",
              "type": "tuple"
            },
            {
              "internalType": "uint256",
              "name": "projectId",
              "type": "uint256"
            },
            {
              "internalType": "uint256",
              "name": "currentFundingCycleConfiguration",
              "type": "uint256"
            },
            {
              "internalType": "address",
              "name": "beneficiary",
              "type": "address"
            },
            {
              "internalType": "uint256",
              "name": "weight",
              "type": "uint256"
            },
            {
              "internalType": "uint256",
              "name": "reservedRate",
              "type": "uint256"
            },
            {
              "internalType": "string",
              "name": "memo",
              "type": "string"
            },
            {
              "internalType": "bytes",
              "name": "metadata",
              "type": "bytes"
            }
          ],
          "internalType": "struct JBPayParamsData",
          "name": "_data",
          "type": "tuple"
        }
      ],
      "name": "payParams",
      "outputs": [
        {
          "internalType": "uint256",
          "name": "weight",
          "type": "uint256"
        },
        {
          "internalType": "string",
          "name": "memo",
          "type": "string"
        },
        {
          "components": [
            {
              "internalType": "contract IJBPayDelegate3_1_1",
              "name": "delegate",
              "type": "address"
            },
            {
              "internalType": "uint256",
              "name": "amount",
              "type": "uint256"
            },
            {
              "internalType": "bytes",
              "name": "metadata",
              "type": "bytes"
            }
          ],
          "internalType": "struct JBPayDelegateAllocation3_1_1[]",
          "name": "delegateAllocations",
          "type": "tuple[]"
        }
      ],
      "stateMutability": "view",
      "type": "function"
    },
    {
      "inputs": [
        {
          "internalType": "uint256",
          "name": "",
          "type": "uint256"
        }
      ],
      "name": "permissionIndexes",
      "outputs": [
        {
          "internalType": "uint256",
          "name": "",
          "type": "uint256"
        }
      ],
      "stateMutability": "view",
      "type": "function"
    },
    {
      "inputs": [
        {
          "internalType": "uint256",
          "name": "projectId",
          "type": "uint256"
        }
      ],
      "name": "reconfigurationStartTimestampOf",
      "outputs": [
        {
          "internalType": "uint256",
          "name": "",
          "type": "uint256"
        }
      ],
      "stateMutability": "view",
      "type": "function"
    },
    {
      "inputs": [
        {
          "components": [
            {
              "internalType": "contract IJBPaymentTerminal",
              "name": "terminal",
              "type": "address"
            },
            {
              "internalType": "address",
              "name": "holder",
              "type": "address"
            },
            {
              "internalType": "uint256",
              "name": "projectId",
              "type": "uint256"
            },
            {
              "internalType": "uint256",
              "name": "currentFundingCycleConfiguration",
              "type": "uint256"
            },
            {
              "internalType": "uint256",
              "name": "tokenCount",
              "type": "uint256"
            },
            {
              "internalType": "uint256",
              "name": "totalSupply",
              "type": "uint256"
            },
            {
              "internalType": "uint256",
              "name": "overflow",
              "type": "uint256"
            },
            {
              "components": [
                {
                  "internalType": "address",
                  "name": "token",
                  "type": "address"
                },
                {
                  "internalType": "uint256",
                  "name": "value",
                  "type": "uint256"
                },
                {
                  "internalType": "uint256",
                  "name": "decimals",
                  "type": "uint256"
                },
                {
                  "internalType": "uint256",
                  "name": "currency",
                  "type": "uint256"
                }
              ],
              "internalType": "struct JBTokenAmount",
              "name": "reclaimAmount",
              "type": "tuple"
            },
            {
              "internalType": "bool",
              "name": "useTotalOverflow",
              "type": "bool"
            },
            {
              "internalType": "uint256",
              "name": "redemptionRate",
              "type": "uint256"
            },
            {
              "internalType": "string",
              "name": "memo",
              "type": "string"
            },
            {
              "internalType": "bytes",
              "name": "metadata",
              "type": "bytes"
            }
          ],
          "internalType": "struct JBRedeemParamsData",
          "name": "_data",
          "type": "tuple"
        }
      ],
      "name": "redeemParams",
      "outputs": [
        {
          "internalType": "uint256",
          "name": "",
          "type": "uint256"
        },
        {
          "internalType": "string",
          "name": "",
          "type": "string"
        },
        {
          "components": [
            {
              "internalType": "contract IJBRedemptionDelegate3_1_1",
              "name": "delegate",
              "type": "address"
            },
            {
              "internalType": "uint256",
              "name": "amount",
              "type": "uint256"
            },
            {
              "internalType": "bytes",
              "name": "metadata",
              "type": "bytes"
            }
          ],
          "internalType": "struct JBRedemptionDelegateAllocation3_1_1[]",
          "name": "",
          "type": "tuple[]"
        }
      ],
      "stateMutability": "view",
      "type": "function"
    },
    {
      "inputs": [
        {
          "internalType": "uint256",
          "name": "_projectId",
          "type": "uint256"
        }
      ],
      "name": "scheduleReconfigurationOf",
      "outputs": [],
      "stateMutability": "nonpayable",
      "type": "function"
    },
    {
      "inputs": [
        {
          "internalType": "bytes4",
          "name": "_interfaceId",
          "type": "bytes4"
        }
      ],
      "name": "supportsInterface",
      "outputs": [
        {
          "internalType": "bool",
          "name": "",
          "type": "bool"
        }
      ],
      "stateMutability": "view",
      "type": "function"
    }
  ],
  "bytecode": {
    "object": "0x60a06040523480156200001157600080fd5b5060405162003f1438038062003f14833981016040819052620000349162000088565b6001600160a01b0316608052600080546001818101835582805260127f290decd9548b62a8d60345a988386fc84ba6bc95484008f6362f93160ef3e5639283015582549081019092556018910155620000ba565b6000602082840312156200009b57600080fd5b81516001600160a01b0381168114620000b357600080fd5b9392505050565b608051613de3620001316000396000818161028701528181610346015281816105db015281816106e90152818161099a01528181610c1d01528181610cf401528181611022015281816111d50152818161196501528181611a7301528181611d2401528181611f64015261203b0152613de36000f3fe608060405234801561001057600080fd5b50600436106100d45760003560e01c8063a51cfd1811610081578063d87b09e31161005b578063d87b09e314610214578063ef8eadd514610227578063f77c47911461028257600080fd5b8063a51cfd18146101ae578063abc603e3146101d0578063d46cf171146101f257600080fd5b80633ce6d3e2116100b25780633ce6d3e214610166578063560f7b031461017b5780639483e7711461019b57600080fd5b806301ffc9a7146100d9578063150b7a02146101015780631f84209a14610145575b600080fd5b6100ec6100e7366004612252565b6102a9565b60405190151581526020015b60405180910390f35b61011461010f3660046122d0565b610342565b6040517fffffffff0000000000000000000000000000000000000000000000000000000090911681526020016100f8565b6101586101533660046127e1565b610456565b6040519081526020016100f8565b6101796101743660046128fa565b610fd9565b005b6101586101893660046128fa565b60016020526000908152604090205481565b6101586101a93660046128fa565b61132a565b6101c16101bc366004612913565b61134b565b6040516100f8939291906129bd565b6101e36101de366004612a86565b6113b3565b6040516100f893929190612aa8565b610205610200366004612ae6565b611496565b6040516100f893929190612b22565b610158610222366004612bd9565b6117df565b61025d6102353660046128fa565b60026020526000908152604090205473ffffffffffffffffffffffffffffffffffffffff1681565b60405173ffffffffffffffffffffffffffffffffffffffff90911681526020016100f8565b61025d7f000000000000000000000000000000000000000000000000000000000000000081565b60007fffffffff0000000000000000000000000000000000000000000000000000000082167f71700c6900000000000000000000000000000000000000000000000000000000148061033c57507f150b7a02000000000000000000000000000000000000000000000000000000007fffffffff000000000000000000000000000000000000000000000000000000008316145b92915050565b60007f000000000000000000000000000000000000000000000000000000000000000073ffffffffffffffffffffffffffffffffffffffff16638b79543c6040518163ffffffff1660e01b8152600401602060405180830381865afa1580156103af573d6000803e3d6000fd5b505050506040513d601f19601f820116820180604052508101906103d39190612cbc565b73ffffffffffffffffffffffffffffffffffffffff163373ffffffffffffffffffffffffffffffffffffffff161461040a57600080fd5b73ffffffffffffffffffffffffffffffffffffffff85161561042b57600080fd5b507f150b7a020000000000000000000000000000000000000000000000000000000095945050505050565b604080516001808252818301909252600091829190816020015b60408051808201909152600081526060602082015281526020019060019003908161047057505060408051600180825281830190925291925060009190602082015b6040805160e08101825260008082526020808301829052928201819052606082018190526080820181905260a0820181905260c082015282527fffffffffffffffffffffffffffffffffffffffffffffffffffffffffffffffff9092019101816104b25790505090506040518060e00160405280600015158152602001600015158152602001633b9aca008152602001600081526020018d73ffffffffffffffffffffffffffffffffffffffff16815260200160008152602001600073ffffffffffffffffffffffffffffffffffffffff168152508160018151811061059a5761059a612cd9565b602002602001018190525060405180604001604052806002815260200182815250826000815181106105ce576105ce612cd9565b60200260200101819052507f000000000000000000000000000000000000000000000000000000000000000073ffffffffffffffffffffffffffffffffffffffff16638b79543c6040518163ffffffff1660e01b8152600401602060405180830381865afa158015610644573d6000803e3d6000fd5b505050506040513d601f19601f820116820180604052508101906106689190612cbc565b73ffffffffffffffffffffffffffffffffffffffff1663666d87a0308d6040518363ffffffff1660e01b81526004016106a2929190612d08565b6020604051808303816000875af11580156106c1573d6000803e3d6000fd5b505050506040513d601f19601f820116820180604052508101906106e59190612d56565b92507f000000000000000000000000000000000000000000000000000000000000000073ffffffffffffffffffffffffffffffffffffffff1663619306306040518163ffffffff1660e01b8152600401602060405180830381865afa158015610752573d6000803e3d6000fd5b505050506040513d601f19601f820116820180604052508101906107769190612cbc565b73ffffffffffffffffffffffffffffffffffffffff1663a7f2a70b848c8c6040518463ffffffff1660e01b81526004016107b293929190612d6f565b6020604051808303816000875af11580156107d1573d6000803e3d6000fd5b505050506040513d601f19601f820116820180604052508101906107f59190612cbc565b508573ffffffffffffffffffffffffffffffffffffffff16637b621d3a848a60e001518973ffffffffffffffffffffffffffffffffffffffff166360b3042c6040518163ffffffff1660e01b8152600401602060405180830381865afa158015610863573d6000803e3d6000fd5b505050506040513d601f19601f820116820180604052508101906108879190612d56565b8a73ffffffffffffffffffffffffffffffffffffffff1663737a79966040518163ffffffff1660e01b8152600401602060405180830381865afa1580156108d2573d6000803e3d6000fd5b505050506040513d601f19601f820116820180604052508101906108f69190612d56565b6040517fffffffff0000000000000000000000000000000000000000000000000000000060e087901b168152600481019490945262ffffff909216602484015263ffffffff908116604484015216606482015261eeee608482015260a4016020604051808303816000875af1158015610973573d6000803e3d6000fd5b505050506040513d601f19601f820116820180604052508101906109979190612cbc565b507f000000000000000000000000000000000000000000000000000000000000000073ffffffffffffffffffffffffffffffffffffffff1663111d861b8460405180608001604052808c60600151815260200160128d600001516109fb9190612ef3565b81526040808e0151602080840191909152600092820183905281516102a0810183526102408101848152610260820185905261028082019490945292835260a08f01519083015260808e015190820190610a5790612710612f02565b8152600060208083018290526040808401839052606084018390526080840183905260a08401839052600160c0850181905260e0850184905261010085018490526101208501849052610140850184905261016085018490526101808501526101a08401839052306101c085015260ff8d166101e090940193909352825182815290810190925290889082610b5f565b610b4c6040518060c00160405280600073ffffffffffffffffffffffffffffffffffffffff168152602001600073ffffffffffffffffffffffffffffffffffffffff168152602001600081526020016000815260200160008152602001600081525090565b815260200190600190039081610ae75790505b508e6040518863ffffffff1660e01b8152600401610b8397969594939291906131fc565b6020604051808303816000875af1158015610ba2573d6000803e3d6000fd5b505050506040513d601f19601f82011682018060405250810190610bc69190612d56565b505050836002600083815260200190815260200160002060006101000a81548173ffffffffffffffffffffffffffffffffffffffff021916908373ffffffffffffffffffffffffffffffffffffffff1602179055507f000000000000000000000000000000000000000000000000000000000000000073ffffffffffffffffffffffffffffffffffffffff16638ae9c07b8260128960200151610c699190612ef3565b8d8b604051602001610c7b919061331a565b6040516020818303038152906040526000806040518763ffffffff1660e01b8152600401610cae9695949392919061335f565b6020604051808303816000875af1158015610ccd573d6000803e3d6000fd5b505050506040513d601f19601f82011682018060405250810190610cf19190612d56565b507f000000000000000000000000000000000000000000000000000000000000000073ffffffffffffffffffffffffffffffffffffffff16632bdfe0046040518163ffffffff1660e01b8152600401602060405180830381865afa158015610d5d573d6000803e3d6000fd5b505050506040513d601f19601f82011682018060405250810190610d819190612cbc565b73ffffffffffffffffffffffffffffffffffffffff1663ad007d636040518163ffffffff1660e01b8152600401602060405180830381865afa158015610dcb573d6000803e3d6000fd5b505050506040513d601f19601f82011682018060405250810190610def9190612cbc565b73ffffffffffffffffffffffffffffffffffffffff1663529cdd2e60405180606001604052808d73ffffffffffffffffffffffffffffffffffffffff1681526020018481526020016000805480602002602001604051908101604052809291908181526020018280548015610e8357602002820191906000526020600020905b815481526020019060010190808311610e6f575b50505050508152506040518263ffffffff1660e01b8152600401610ea791906133b4565b600060405180830381600087803b158015610ec157600080fd5b505af1158015610ed5573d6000803e3d6000fd5b50505060c0870151610ef0915065ffffffffffff1642613425565b6000828152600160205260408120919091558351905b81811015610fca57848181518110610f2057610f20612cd9565b6020026020010151600360008581526020019081526020016000208281548110610f4c57610f4c612cd9565b600091825260209182902083516003929092020180547fffffffffffffffffffffffff00000000000000000000000000000000000000001673ffffffffffffffffffffffffffffffffffffffff90921691909117815590820151600182015560408201516002820190610fbf90826134da565b505050600101610f06565b50509998505050505050505050565b6040517f1f51045300000000000000000000000000000000000000000000000000000000815260048101829052600090819073ffffffffffffffffffffffffffffffffffffffff7f00000000000000000000000000000000000000000000000000000000000000001690631f510453906024016103c060405180830381865afa15801561106a573d6000803e3d6000fd5b505050506040513d601f19601f8201168201806040525081019061108e91906137ba565b50815191935091506001146110cf576040517fc97554fa00000000000000000000000000000000000000000000000000000000815260040160405180910390fd5b60408051608080820183528481015182526000602080840182905260c08088015185870152606080860184905286516102a0810188526102408101858152610260820186905261028082018690528152808401859052888801518189015290810184905293840183905260a08401839052830182905260e08301829052610100830182905261012083018290526101408301829052610160830182905261018083018290526101a083018290526101c083018290526101e083018290526102008087015173ffffffffffffffffffffffffffffffffffffffff908116918501919091526102208781015190850152888352600182528583205486518481529283019096527f0000000000000000000000000000000000000000000000000000000000000000169463badbdf289489949093909290611230565b6040805180820190915260008152606060208201528152602001906001900390816112085790505b5060408051600080825260208201909252906112bf565b6112ac6040518060c00160405280600073ffffffffffffffffffffffffffffffffffffffff168152602001600073ffffffffffffffffffffffffffffffffffffffff168152602001600081526020016000815260200160008152602001600081525090565b8152602001906001900390816112475790505b506040518763ffffffff1660e01b81526004016112e196959493929190613871565b6020604051808303816000875af1158015611300573d6000803e3d6000fd5b505050506040513d601f19601f820116820180604052508101906113249190612d56565b50505050565b6000818154811061133a57600080fd5b600091825260209091200154905081565b604080516000808252602082019092526060908190839081611397565b604080516060808201835260008083526020830152918101919091528152602001906001900390816113685790505b5060408051602081019091526000815291969195509350915050565b600360205281600052604060002081815481106113cf57600080fd5b600091825260209091206003909102018054600182015460028301805473ffffffffffffffffffffffffffffffffffffffff90931695509093509061141390613438565b80601f016020809104026020016040519081016040528092919081815260200182805461143f90613438565b801561148c5780601f106114615761010080835404028352916020019161148c565b820191906000526020600020905b81548152906001019060200180831161146f57829003601f168201915b5050505050905083565b60c08101356000908152600260205260408082205490517fd46cf1710000000000000000000000000000000000000000000000000000000081526060918291829173ffffffffffffffffffffffffffffffffffffffff169063d46cf17190611502908890600401613a5b565b600060405180830381865afa15801561151f573d6000803e3d6000fd5b505050506040513d6000823e601f3d9081017fffffffffffffffffffffffffffffffffffffffffffffffffffffffffffffffe01682016040526115659190810190613bcf565b60c088013560009081526003602090815260408083208054825181850281018501909352808352969a509396509194919350849084015b8282101561168d5760008481526020908190206040805160608101825260038602909201805473ffffffffffffffffffffffffffffffffffffffff168352600181015493830193909352600283018054929392918401916115fc90613438565b80601f016020809104026020016040519081016040528092919081815260200182805461162890613438565b80156116755780601f1061164a57610100808354040283529160200191611675565b820191906000526020600020905b81548152906001019060200180831161165857829003601f168201915b5050505050815250508152602001906001019061159c565b505082519293506116a391508290506001613425565b67ffffffffffffffff8111156116bb576116bb61236f565b60405190808252806020026020018201604052801561170857816020015b604080516060808201835260008083526020830152918101919091528152602001906001900390816116d95790505b50935060005b818110156117555782818151811061172857611728612cd9565b602002602001015185828151811061174257611742612cd9565b602090810291909101015260010161170e565b508260008151811061176957611769612cd9565b602002602001015184828151811061178357611783612cd9565b602090810291909101015261179c610160880188613d48565b8080601f016020809104026020016040519081016040528093929190818152602001838380828437600092019190915250989a9299509597509095505050505050565b604080516001808252818301909252600091829190816020015b6040805180820190915260008152606060208201528152602001906001900390816117f957505060408051600180825281830190925291925060009190602082015b6040805160e08101825260008082526020808301829052928201819052606082018190526080820181905260a0820181905260c082015282527fffffffffffffffffffffffffffffffffffffffffffffffffffffffffffffffff90920191018161183b5790505090506040518060e00160405280600015158152602001600015158152602001633b9aca008152602001600081526020018b73ffffffffffffffffffffffffffffffffffffffff16815260200160008152602001600073ffffffffffffffffffffffffffffffffffffffff168152508160018151811061192357611923612cd9565b6020026020010181905250604051806040016040528060028152602001828152508260008151811061195757611957612cd9565b6020026020010181905250507f000000000000000000000000000000000000000000000000000000000000000073ffffffffffffffffffffffffffffffffffffffff16638b79543c6040518163ffffffff1660e01b8152600401602060405180830381865afa1580156119ce573d6000803e3d6000fd5b505050506040513d601f19601f820116820180604052508101906119f29190612cbc565b73ffffffffffffffffffffffffffffffffffffffff1663666d87a0308a6040518363ffffffff1660e01b8152600401611a2c929190612d08565b6020604051808303816000875af1158015611a4b573d6000803e3d6000fd5b505050506040513d601f19601f82011682018060405250810190611a6f9190612d56565b91507f000000000000000000000000000000000000000000000000000000000000000073ffffffffffffffffffffffffffffffffffffffff1663619306306040518163ffffffff1660e01b8152600401602060405180830381865afa158015611adc573d6000803e3d6000fd5b505050506040513d601f19601f82011682018060405250810190611b009190612cbc565b73ffffffffffffffffffffffffffffffffffffffff1663a7f2a70b8389896040518463ffffffff1660e01b8152600401611b3c93929190612d6f565b6020604051808303816000875af1158015611b5b573d6000803e3d6000fd5b505050506040513d601f19601f82011682018060405250810190611b7f9190612cbc565b508273ffffffffffffffffffffffffffffffffffffffff16637b621d3a838760e001518673ffffffffffffffffffffffffffffffffffffffff166360b3042c6040518163ffffffff1660e01b8152600401602060405180830381865afa158015611bed573d6000803e3d6000fd5b505050506040513d601f19601f82011682018060405250810190611c119190612d56565b8773ffffffffffffffffffffffffffffffffffffffff1663737a79966040518163ffffffff1660e01b8152600401602060405180830381865afa158015611c5c573d6000803e3d6000fd5b505050506040513d601f19601f82011682018060405250810190611c809190612d56565b6040517fffffffff0000000000000000000000000000000000000000000000000000000060e087901b168152600481019490945262ffffff909216602484015263ffffffff908116604484015216606482015261eeee608482015260a4016020604051808303816000875af1158015611cfd573d6000803e3d6000fd5b505050506040513d601f19601f82011682018060405250810190611d219190612cbc565b507f000000000000000000000000000000000000000000000000000000000000000073ffffffffffffffffffffffffffffffffffffffff1663111d861b8360405180608001604052808960600151815260200160128a60000151611d859190612ef3565b81526040808b0151602080840191909152600092820183905281516102a0810183526102408101848152610260820185905261028082019490945292835260a08c01519083015260808b015190820190611de190612710612f02565b8152600060208083018290526040808401839052606084018390526080840183905260a08401839052600160c0850181905260e0850184905261010085018490526101208501849052610140850184905261016085018490526101808501526101a0840183905273ffffffffffffffffffffffffffffffffffffffff8c166101c08501526101e0909301829052825182815290810190925290879082611efa565b611ee76040518060c00160405280600073ffffffffffffffffffffffffffffffffffffffff168152602001600073ffffffffffffffffffffffffffffffffffffffff168152602001600081526020016000815260200160008152602001600081525090565b815260200190600190039081611e825790505b508b6040518863ffffffff1660e01b8152600401611f1e97969594939291906131fc565b6020604051808303816000875af1158015611f3d573d6000803e3d6000fd5b505050506040513d601f19601f82011682018060405250810190611f619190612d56565b507f000000000000000000000000000000000000000000000000000000000000000073ffffffffffffffffffffffffffffffffffffffff16638ae9c07b8360128860200151611fb09190612ef3565b8c8a604051602001611fc2919061331a565b6040516020818303038152906040526000806040518763ffffffff1660e01b8152600401611ff59695949392919061335f565b6020604051808303816000875af1158015612014573d6000803e3d6000fd5b505050506040513d601f19601f820116820180604052508101906120389190612d56565b507f000000000000000000000000000000000000000000000000000000000000000073ffffffffffffffffffffffffffffffffffffffff16632bdfe0046040518163ffffffff1660e01b8152600401602060405180830381865afa1580156120a4573d6000803e3d6000fd5b505050506040513d601f19601f820116820180604052508101906120c89190612cbc565b73ffffffffffffffffffffffffffffffffffffffff1663ad007d636040518163ffffffff1660e01b8152600401602060405180830381865afa158015612112573d6000803e3d6000fd5b505050506040513d601f19601f820116820180604052508101906121369190612cbc565b73ffffffffffffffffffffffffffffffffffffffff1663529cdd2e60405180606001604052808c73ffffffffffffffffffffffffffffffffffffffff16815260200185815260200160008054806020026020016040519081016040528092919081815260200182805480156121ca57602002820191906000526020600020905b8154815260200190600101908083116121b6575b50505050508152506040518263ffffffff1660e01b81526004016121ee91906133b4565b600060405180830381600087803b15801561220857600080fd5b505af115801561221c573d6000803e3d6000fd5b50505060c0860151612237915065ffffffffffff1642613425565b60008381526001602052604090205550979650505050505050565b60006020828403121561226457600080fd5b81357fffffffff000000000000000000000000000000000000000000000000000000008116811461229457600080fd5b9392505050565b73ffffffffffffffffffffffffffffffffffffffff811681146122bd57600080fd5b50565b80356122cb8161229b565b919050565b6000806000806000608086880312156122e857600080fd5b85356122f38161229b565b945060208601356123038161229b565b935060408601359250606086013567ffffffffffffffff8082111561232757600080fd5b818801915088601f83011261233b57600080fd5b81358181111561234a57600080fd5b89602082850101111561235c57600080fd5b9699959850939650602001949392505050565b7f4e487b7100000000000000000000000000000000000000000000000000000000600052604160045260246000fd5b604051610100810167ffffffffffffffff811182821017156123c2576123c261236f565b60405290565b6040516060810167ffffffffffffffff811182821017156123c2576123c261236f565b604051610240810167ffffffffffffffff811182821017156123c2576123c261236f565b604051610120810167ffffffffffffffff811182821017156123c2576123c261236f565b604051601f82017fffffffffffffffffffffffffffffffffffffffffffffffffffffffffffffffe016810167ffffffffffffffff8111828210171561247a5761247a61236f565b604052919050565b600067ffffffffffffffff82111561249c5761249c61236f565b50601f017fffffffffffffffffffffffffffffffffffffffffffffffffffffffffffffffe01660200190565b60006124db6124d684612482565b612433565b90508281528383830111156124ef57600080fd5b828260208301376000602084830101529392505050565b600082601f83011261251757600080fd5b612294838335602085016124c8565b60006040828403121561253857600080fd5b6040516040810167ffffffffffffffff828210818311171561255c5761255c61236f565b81604052829350843591508082111561257457600080fd5b5061258185828601612506565b825250602083013560208201525092915050565b803562ffffff811681146122cb57600080fd5b600061010082840312156125bb57600080fd5b6125c361239e565b9050813581526020820135602082015260408201356040820152606082013560608201526080820135608082015260a082013560a082015260c082013565ffffffffffff8116811461261457600080fd5b60c082015261262560e08301612595565b60e082015292915050565b600067ffffffffffffffff82111561264a5761264a61236f565b5060051b60200190565b600082601f83011261266557600080fd5b813560206126756124d683612630565b82815260059290921b8401810191818101908684111561269457600080fd5b8286015b848110156126b85780356126ab8161229b565b8352918301918301612698565b509695505050505050565b600082601f8301126126d457600080fd5b813560206126e46124d683612630565b82815260059290921b8401810191818101908684111561270357600080fd5b8286015b848110156126b857803567ffffffffffffffff808211156127285760008081fd5b81890191506060807fffffffffffffffffffffffffffffffffffffffffffffffffffffffffffffffe0848d030112156127615760008081fd5b6127696123c8565b878401356127768161229b565b8152604084810135898301529184013591838311156127955760008081fd5b82850194508c603f8601126127ac57600093508384fd5b6127bc8d8a8701358388016124c8565b908201528652505050918301918301612707565b803560ff811681146122cb57600080fd5b60008060008060008060008060006102008a8c03121561280057600080fd5b6128098a6122c0565b985060208a013567ffffffffffffffff8082111561282657600080fd5b6128328d838e01612526565b995060408c013591508082111561284857600080fd5b6128548d838e01612506565b985060608c013591508082111561286a57600080fd5b6128768d838e01612506565b97506128858d60808e016125a8565b96506101808c013591508082111561289c57600080fd5b6128a88d838e01612654565b95506128b76101a08d016122c0565b94506101c08c01359150808211156128ce57600080fd5b506128db8c828d016126c3565b9250506128eb6101e08b016127d0565b90509295985092959850929598565b60006020828403121561290c57600080fd5b5035919050565b60006020828403121561292557600080fd5b813567ffffffffffffffff81111561293c57600080fd5b82016101e0818503121561229457600080fd5b60005b8381101561296a578181015183820152602001612952565b50506000910152565b6000815180845261298b81602086016020860161294f565b601f017fffffffffffffffffffffffffffffffffffffffffffffffffffffffffffffffe0169290920160200192915050565b60006060858352602081818501526129d782850187612973565b6040858203818701528187518084528484019150848160051b850101858a0160005b83811015612a74578683037fffffffffffffffffffffffffffffffffffffffffffffffffffffffffffffffe00185528151805173ffffffffffffffffffffffffffffffffffffffff16845288810151898501528601518684018a9052612a618a850182612973565b95890195935050908701906001016129f9565b50909c9b505050505050505050505050565b60008060408385031215612a9957600080fd5b50508035926020909101359150565b73ffffffffffffffffffffffffffffffffffffffff84168152826020820152606060408201526000612add6060830184612973565b95945050505050565b600060208284031215612af857600080fd5b813567ffffffffffffffff811115612b0f57600080fd5b82016101a0818503121561229457600080fd5b6000606085835260208181850152612b3c82850187612973565b6040858203818701528187518084528484019150848160051b850101858a0160005b83811015612a74578683037fffffffffffffffffffffffffffffffffffffffffffffffffffffffffffffffe00185528151805173ffffffffffffffffffffffffffffffffffffffff16845288810151898501528601518684018a9052612bc68a850182612973565b9589019593505090870190600101612b5e565b60008060008060008060006101c0888a031215612bf557600080fd5b612bfe886122c0565b9650602088013567ffffffffffffffff80821115612c1b57600080fd5b612c278b838c01612526565b975060408a0135915080821115612c3d57600080fd5b612c498b838c01612506565b965060608a0135915080821115612c5f57600080fd5b612c6b8b838c01612506565b9550612c7a8b60808c016125a8565b94506101808a0135915080821115612c9157600080fd5b50612c9e8a828b01612654565b925050612cae6101a089016122c0565b905092959891949750929550565b600060208284031215612cce57600080fd5b81516122948161229b565b7f4e487b7100000000000000000000000000000000000000000000000000000000600052603260045260246000fd5b73ffffffffffffffffffffffffffffffffffffffff831681526040602082015260008251604080840152612d3f6080840182612973565b905060208401516060840152809150509392505050565b600060208284031215612d6857600080fd5b5051919050565b838152606060208201526000612d886060830185612973565b8281036040840152612d9a8185612973565b9695505050505050565b7f4e487b7100000000000000000000000000000000000000000000000000000000600052601160045260246000fd5b600181815b80851115612e2c57817fffffffffffffffffffffffffffffffffffffffffffffffffffffffffffffffff04821115612e1257612e12612da4565b80851615612e1f57918102915b93841c9390800290612dd8565b509250929050565b600082612e435750600161033c565b81612e505750600061033c565b8160018114612e665760028114612e7057612e8c565b600191505061033c565b60ff841115612e8157612e81612da4565b50506001821b61033c565b5060208310610133831016604e8410600b8410161715612eaf575081810a61033c565b612eb98383612dd3565b807fffffffffffffffffffffffffffffffffffffffffffffffffffffffffffffffff04821115612eeb57612eeb612da4565b029392505050565b600061229460ff841683612e34565b8181038181111561033c5761033c612da4565b612f3a8282518051151582526020808201511515908301526040908101511515910152565b6020810151606083015260408101516080830152606081015160a08301526080810151612f6b60c084018215159052565b5060a081015180151560e08401525060c0810151610100612f8f8185018315159052565b60e08301519150610120612fa68186018415159052565b90830151915061014090612fbd8583018415159052565b8301519150610160612fd28582018415159052565b90830151915061018090612fe98583018415159052565b83015191506101a0612ffe8582018415159052565b9083015191506101c0906130158583018415159052565b83015191506101e061302a8582018415159052565b908301519150610200906130418583018415159052565b83015191506102206130568582018415159052565b9083015173ffffffffffffffffffffffffffffffffffffffff16610240850152909101516102609092019190915250565b600081518084526020808501808196508360051b810191508286016000805b86811015613166578385038a52825180518652860151604087870181905281518188018190529188019160609081890190865b8181101561314f5785518051151584528c81015115158d8501528581015186850152848101518585015260808082015173ffffffffffffffffffffffffffffffffffffffff9081169186019190915260a0808301519086015260c0918201511690840152948b019460e0909201916001016130d9565b50509c89019c9750505092860192506001016130a6565b509298975050505050505050565b600081518084526020808501945080840160005b838110156131f1578151805173ffffffffffffffffffffffffffffffffffffffff908116895284820151168489015260408082015190890152606080820151908901526080808201519089015260a0908101519088015260c09096019590820190600101613188565b509495945050505050565b60006103c089835260206132498185018b80518252602081015160208301526040810151604083015273ffffffffffffffffffffffffffffffffffffffff60608201511660608301525050565b61325660a085018a612f15565b876103208501528161034085015261327082850188613087565b91508382036103608501526132858287613174565b848103610380860152855180825282870193509082019060005b818110156132d157845173ffffffffffffffffffffffffffffffffffffffff168352938301939183019160010161329f565b50508481036103a0860152601b81527f4465706c6f7965642052657461696c69737420747265617375727900000000006020820152604081019c9b505050505050505050505050565b7f5072656d696e746564202400000000000000000000000000000000000000000081526000825161335281600b85016020870161294f565b91909101600b0192915050565b86815285602082015273ffffffffffffffffffffffffffffffffffffffff8516604082015260c06060820152600061339a60c0830186612973565b93151560808301525090151560a090910152949350505050565b600060208083526080830173ffffffffffffffffffffffffffffffffffffffff85511682850152818501516040850152604085015160608086015281815180845260a0870191508483019350600092505b808310156126b85783518252928401926001929092019190840190613405565b8082018082111561033c5761033c612da4565b600181811c9082168061344c57607f821691505b602082108103613485577f4e487b7100000000000000000000000000000000000000000000000000000000600052602260045260246000fd5b50919050565b601f8211156134d557600081815260208120601f850160051c810160208610156134b25750805b601f850160051c820191505b818110156134d1578281556001016134be565b5050505b505050565b815167ffffffffffffffff8111156134f4576134f461236f565b613508816135028454613438565b8461348b565b602080601f83116001811461355b57600084156135255750858301515b7fffffffffffffffffffffffffffffffffffffffffffffffffffffffffffffffff600386901b1c1916600185901b1785556134d1565b6000858152602081207fffffffffffffffffffffffffffffffffffffffffffffffffffffffffffffffe08616915b828110156135a857888601518255948401946001909101908401613589565b50858210156135e457878501517fffffffffffffffffffffffffffffffffffffffffffffffffffffffffffffffff600388901b60f8161c191681555b5050505050600190811b01905550565b80516122cb8161229b565b805180151581146122cb57600080fd5b60006060828403121561362157600080fd5b6136296123c8565b9050613634826135ff565b8152613642602083016135ff565b6020820152613653604083016135ff565b604082015292915050565b6000610280828403121561367157600080fd5b6136796123eb565b9050613685838361360f565b8152606082015160208201526080820151604082015260a082015160608201526136b160c083016135ff565b60808201526136c260e083016135ff565b60a08201526101006136d58184016135ff565b60c08301526101206136e88185016135ff565b60e08401526101406136fb8186016135ff565b83850152610160925061370f8386016135ff565b8285015261018091506137238286016135ff565b908401526101a06137358582016135ff565b838501526101c092506137498386016135ff565b828501526101e0915061375d8286016135ff565b9084015261020061376f8582016135ff565b8385015261022092506137838386016135ff565b8285015261379461024086016135f4565b818501525050610260830151818301525092915050565b8051600381106122cb57600080fd5b60008060008385036103c08112156137d157600080fd5b610120808212156137e157600080fd5b6137e961240f565b9150855182526020860151602083015260408601516040830152606086015160608301526080860151608083015260a086015160a083015260c086015160c083015261383760e087016135f4565b60e08301526101008087015181840152508194506138578782880161365e565b935050506138686103a085016137ab565b90509250925092565b60006103a08883526138bd602084018980518252602081015160208301526040810151604083015273ffffffffffffffffffffffffffffffffffffffff60608201511660608301525050565b6138ca60a0840188612f15565b85610320840152806103408401526138e481840186613087565b90508281036103608401526138f98185613174565b838103610380909401939093525050602c81527f5363686564756c656420626f6f737420657870697279206f662052657461696c60208201527f697374207472656173757279000000000000000000000000000000000000000060408201526060019695505050505050565b80356139708161229b565b73ffffffffffffffffffffffffffffffffffffffff1682526020818101359083015260408082013590830152606090810135910152565b60008083357fffffffffffffffffffffffffffffffffffffffffffffffffffffffffffffffe18436030181126139dc57600080fd5b830160208101925035905067ffffffffffffffff8111156139fc57600080fd5b803603821315613a0b57600080fd5b9250929050565b8183528181602085013750600060208284010152600060207fffffffffffffffffffffffffffffffffffffffffffffffffffffffffffffffe0601f840116840101905092915050565b60208152613a8960208201613a6f846122c0565b73ffffffffffffffffffffffffffffffffffffffff169052565b6000613a97602084016122c0565b73ffffffffffffffffffffffffffffffffffffffff8116604084015250613ac46060830160408501613965565b60c083013560e083015261010060e084013581840152613ae58185016122c0565b9050610120613b0b8185018373ffffffffffffffffffffffffffffffffffffffff169052565b61014091508085013582850152506101608185013581850152613b30818601866139a7565b925090506101a06101808181870152613b4e6101c087018585613a12565b9350613b5c818801886139a7565b935090507fffffffffffffffffffffffffffffffffffffffffffffffffffffffffffffffe08685030182870152613b94848483613a12565b979650505050505050565b6000613bad6124d684612482565b9050828152838383011115613bc157600080fd5b61229483602083018461294f565b600080600060608486031215613be457600080fd5b8351925060208085015167ffffffffffffffff80821115613c0457600080fd5b818701915087601f830112613c1857600080fd5b613c26888351858501613b9f565b94506040870151915080821115613c3c57600080fd5b818701915087601f830112613c5057600080fd5b8151613c5e6124d682612630565b81815260059190911b8301840190848101908a831115613c7d57600080fd5b8585015b83811015613d3757805185811115613c9857600080fd5b86016060818e037fffffffffffffffffffffffffffffffffffffffffffffffffffffffffffffffe0011215613ccc57600080fd5b613cd46123c8565b88820151613ce18161229b565b8152604082015189820152606082015187811115613cfe57600080fd5b8083019250508d603f830112613d1357600080fd5b613d248e8a84015160408501613b9f565b6040820152845250918601918601613c81565b508096505050505050509250925092565b60008083357fffffffffffffffffffffffffffffffffffffffffffffffffffffffffffffffe1843603018112613d7d57600080fd5b83018035915067ffffffffffffffff821115613d9857600080fd5b602001915036819003821315613a0b57600080fdfea2646970667358221220d1cc2edd08b00a36951dec7fb4c31614a7cb17eeaccac03637dc413f1471074364736f6c63430008150033",
    "linkReferences": {}
  },
  "methodIdentifiers": {
    "buybackDelegateDataSourceOf(uint256)": "ef8eadd5",
    "controller()": "f77c4791",
    "delegateAllocationsOf(uint256,uint256)": "abc603e3",
    "deployBasicProjectFor(address,(string,uint256),string,string,(uint256,uint256,uint256,uint256,uint256,uint256,uint48,uint24),address[],address)": "d87b09e3",
    "deployPayAllocatorProjectFor(address,(string,uint256),string,string,(uint256,uint256,uint256,uint256,uint256,uint256,uint48,uint24),address[],address,(address,uint256,bytes)[],uint8)": "1f84209a",
    "onERC721Received(address,address,uint256,bytes)": "150b7a02",
    "payParams((address,address,(address,uint256,uint256,uint256),uint256,uint256,address,uint256,uint256,string,bytes))": "d46cf171",
    "permissionIndexes(uint256)": "9483e771",
    "reconfigurationStartTimestampOf(uint256)": "560f7b03",
    "redeemParams((address,address,uint256,uint256,uint256,uint256,uint256,(address,uint256,uint256,uint256),bool,uint256,string,bytes))": "a51cfd18",
    "scheduleReconfigurationOf(uint256)": "3ce6d3e2",
    "supportsInterface(bytes4)": "01ffc9a7"
  },
  "id": 104
}