{
	"_format": "sphinx-sol-ct-artifact-1",
	"merkleRoot": "0x442166fe0d22f4e1e6075936e920319327ab26fcba4e4d52f42b4274c1d7d94c",
	"contractName": "REVCroptopDeployer",
	"address": "0xA610AE121a4995A5913cFA68F47542953C9bCEDF",
	"abi": [
		{
			"type": "constructor",
			"inputs": [
				{
					"name": "controller",
					"type": "address",
					"internalType": "contract IJBController"
				},
				{
					"name": "suckerRegistry",
					"type": "address",
					"internalType": "contract IBPSuckerRegistry"
				},
				{
					"name": "trustedForwarder",
					"type": "address",
					"internalType": "address"
				},
				{
					"name": "hookDeployer",
					"type": "address",
					"internalType": "contract IJB721TiersHookDeployer"
				},
				{
					"name": "publisher",
					"type": "address",
					"internalType": "contract CTPublisher"
				}
			],
			"stateMutability": "nonpayable"
		},
		{
			"type": "function",
			"name": "CONTROLLER",
			"inputs": [],
			"outputs": [
				{
					"name": "",
					"type": "address",
					"internalType": "contract IJBController"
				}
			],
			"stateMutability": "view"
		},
		{
			"type": "function",
			"name": "EXIT_DELAY",
			"inputs": [],
			"outputs": [
				{
					"name": "",
					"type": "uint256",
					"internalType": "uint256"
				}
			],
			"stateMutability": "view"
		},
		{
			"type": "function",
			"name": "HOOK_DEPLOYER",
			"inputs": [],
			"outputs": [
				{
					"name": "",
					"type": "address",
					"internalType": "contract IJB721TiersHookDeployer"
				}
			],
			"stateMutability": "view"
		},
		{
			"type": "function",
			"name": "PUBLISHER",
			"inputs": [],
			"outputs": [
				{
					"name": "",
					"type": "address",
					"internalType": "contract CTPublisher"
				}
			],
			"stateMutability": "view"
		},
		{
			"type": "function",
			"name": "SUCKER_REGISTRY",
			"inputs": [],
			"outputs": [
				{
					"name": "",
					"type": "address",
					"internalType": "contract IBPSuckerRegistry"
				}
			],
			"stateMutability": "view"
		},
		{
			"type": "function",
			"name": "allowedMintCountOf",
			"inputs": [
				{
					"name": "revnetId",
					"type": "uint256",
					"internalType": "uint256"
				},
				{
					"name": "stageId",
					"type": "uint256",
					"internalType": "uint256"
				},
				{
					"name": "beneficiary",
					"type": "address",
					"internalType": "address"
				}
			],
			"outputs": [
				{
					"name": "",
					"type": "uint256",
					"internalType": "uint256"
				}
			],
			"stateMutability": "view"
		},
		{
			"type": "function",
			"name": "beforePayRecordedWith",
			"inputs": [
				{
					"name": "context",
					"type": "tuple",
					"internalType": "struct JBBeforePayRecordedContext",
					"components": [
						{
							"name": "terminal",
							"type": "address",
							"internalType": "address"
						},
						{
							"name": "payer",
							"type": "address",
							"internalType": "address"
						},
						{
							"name": "amount",
							"type": "tuple",
							"internalType": "struct JBTokenAmount",
							"components": [
								{
									"name": "token",
									"type": "address",
									"internalType": "address"
								},
								{
									"name": "value",
									"type": "uint256",
									"internalType": "uint256"
								},
								{
									"name": "decimals",
									"type": "uint256",
									"internalType": "uint256"
								},
								{
									"name": "currency",
									"type": "uint256",
									"internalType": "uint256"
								}
							]
						},
						{
							"name": "projectId",
							"type": "uint256",
							"internalType": "uint256"
						},
						{
							"name": "rulesetId",
							"type": "uint256",
							"internalType": "uint256"
						},
						{
							"name": "beneficiary",
							"type": "address",
							"internalType": "address"
						},
						{
							"name": "weight",
							"type": "uint256",
							"internalType": "uint256"
						},
						{
							"name": "reservedRate",
							"type": "uint256",
							"internalType": "uint256"
						},
						{
							"name": "metadata",
							"type": "bytes",
							"internalType": "bytes"
						}
					]
				}
			],
			"outputs": [
				{
					"name": "weight",
					"type": "uint256",
					"internalType": "uint256"
				},
				{
					"name": "hookSpecifications",
					"type": "tuple[]",
					"internalType": "struct JBPayHookSpecification[]",
					"components": [
						{
							"name": "hook",
							"type": "address",
							"internalType": "contract IJBPayHook"
						},
						{
							"name": "amount",
							"type": "uint256",
							"internalType": "uint256"
						},
						{
							"name": "metadata",
							"type": "bytes",
							"internalType": "bytes"
						}
					]
				}
			],
			"stateMutability": "view"
		},
		{
			"type": "function",
			"name": "beforeRedeemRecordedWith",
			"inputs": [
				{
					"name": "context",
					"type": "tuple",
					"internalType": "struct JBBeforeRedeemRecordedContext",
					"components": [
						{
							"name": "terminal",
							"type": "address",
							"internalType": "address"
						},
						{
							"name": "holder",
							"type": "address",
							"internalType": "address"
						},
						{
							"name": "projectId",
							"type": "uint256",
							"internalType": "uint256"
						},
						{
							"name": "rulesetId",
							"type": "uint256",
							"internalType": "uint256"
						},
						{
							"name": "redeemCount",
							"type": "uint256",
							"internalType": "uint256"
						},
						{
							"name": "totalSupply",
							"type": "uint256",
							"internalType": "uint256"
						},
						{
							"name": "surplus",
							"type": "tuple",
							"internalType": "struct JBTokenAmount",
							"components": [
								{
									"name": "token",
									"type": "address",
									"internalType": "address"
								},
								{
									"name": "value",
									"type": "uint256",
									"internalType": "uint256"
								},
								{
									"name": "decimals",
									"type": "uint256",
									"internalType": "uint256"
								},
								{
									"name": "currency",
									"type": "uint256",
									"internalType": "uint256"
								}
							]
						},
						{
							"name": "useTotalSurplus",
							"type": "bool",
							"internalType": "bool"
						},
						{
							"name": "redemptionRate",
							"type": "uint256",
							"internalType": "uint256"
						},
						{
							"name": "metadata",
							"type": "bytes",
							"internalType": "bytes"
						}
					]
				}
			],
			"outputs": [
				{
					"name": "",
					"type": "uint256",
					"internalType": "uint256"
				},
				{
					"name": "",
					"type": "uint256",
					"internalType": "uint256"
				},
				{
					"name": "",
					"type": "uint256",
					"internalType": "uint256"
				},
				{
					"name": "specifications",
					"type": "tuple[]",
					"internalType": "struct JBRedeemHookSpecification[]",
					"components": [
						{
							"name": "hook",
							"type": "address",
							"internalType": "contract IJBRedeemHook"
						},
						{
							"name": "amount",
							"type": "uint256",
							"internalType": "uint256"
						},
						{
							"name": "metadata",
							"type": "bytes",
							"internalType": "bytes"
						}
					]
				}
			],
			"stateMutability": "view"
		},
		{
			"type": "function",
			"name": "buybackHookOf",
			"inputs": [
				{
					"name": "revnetId",
					"type": "uint256",
					"internalType": "uint256"
				}
			],
			"outputs": [
				{
					"name": "buybackHook",
					"type": "address",
					"internalType": "contract IJBRulesetDataHook"
				}
			],
			"stateMutability": "view"
		},
		{
			"type": "function",
			"name": "deploySuckersFor",
			"inputs": [
				{
					"name": "revnetId",
					"type": "uint256",
					"internalType": "uint256"
				},
				{
					"name": "encodedConfiguration",
					"type": "bytes",
					"internalType": "bytes"
				},
				{
					"name": "suckerDeploymentConfiguration",
					"type": "tuple",
					"internalType": "struct REVSuckerDeploymentConfig",
					"components": [
						{
							"name": "deployerConfigurations",
							"type": "tuple[]",
							"internalType": "struct BPSuckerDeployerConfig[]",
							"components": [
								{
									"name": "deployer",
									"type": "address",
									"internalType": "contract IBPSuckerDeployer"
								},
								{
									"name": "mappings",
									"type": "tuple[]",
									"internalType": "struct BPTokenMapping[]",
									"components": [
										{
											"name": "localToken",
											"type": "address",
											"internalType": "address"
										},
										{
											"name": "minGas",
											"type": "uint32",
											"internalType": "uint32"
										},
										{
											"name": "remoteToken",
											"type": "address",
											"internalType": "address"
										},
										{
											"name": "minBridgeAmount",
											"type": "uint256",
											"internalType": "uint256"
										}
									]
								}
							]
						},
						{
							"name": "salt",
							"type": "bytes32",
							"internalType": "bytes32"
						}
					]
				}
			],
			"outputs": [],
			"stateMutability": "nonpayable"
		},
		{
			"type": "function",
			"name": "exitDelayOf",
			"inputs": [
				{
					"name": "revnetId",
					"type": "uint256",
					"internalType": "uint256"
				}
			],
			"outputs": [
				{
					"name": "exitDelay",
					"type": "uint256",
					"internalType": "uint256"
				}
			],
			"stateMutability": "view"
		},
		{
			"type": "function",
			"name": "hasMintPermissionFor",
			"inputs": [
				{
					"name": "revnetId",
					"type": "uint256",
					"internalType": "uint256"
				},
				{
					"name": "addr",
					"type": "address",
					"internalType": "address"
				}
			],
			"outputs": [
				{
					"name": "",
					"type": "bool",
					"internalType": "bool"
				}
			],
			"stateMutability": "view"
		},
		{
			"type": "function",
			"name": "isTrustedForwarder",
			"inputs": [
				{
					"name": "forwarder",
					"type": "address",
					"internalType": "address"
				}
			],
			"outputs": [
				{
					"name": "",
					"type": "bool",
					"internalType": "bool"
				}
			],
			"stateMutability": "view"
		},
		{
			"type": "function",
			"name": "launchCroptopRevnetFor",
			"inputs": [
				{
					"name": "revnetId",
					"type": "uint256",
					"internalType": "uint256"
				},
				{
					"name": "configuration",
					"type": "tuple",
					"internalType": "struct REVConfig",
					"components": [
						{
							"name": "description",
							"type": "tuple",
							"internalType": "struct REVDescription",
							"components": [
								{
									"name": "name",
									"type": "string",
									"internalType": "string"
								},
								{
									"name": "ticker",
									"type": "string",
									"internalType": "string"
								},
								{
									"name": "uri",
									"type": "string",
									"internalType": "string"
								},
								{
									"name": "salt",
									"type": "bytes32",
									"internalType": "bytes32"
								}
							]
						},
						{
							"name": "baseCurrency",
							"type": "uint32",
							"internalType": "uint32"
						},
						{
							"name": "initialSplitOperator",
							"type": "address",
							"internalType": "address"
						},
						{
							"name": "stageConfigurations",
							"type": "tuple[]",
							"internalType": "struct REVStageConfig[]",
							"components": [
								{
									"name": "startsAtOrAfter",
									"type": "uint40",
									"internalType": "uint40"
								},
								{
									"name": "mintConfigs",
									"type": "tuple[]",
									"internalType": "struct REVMintConfig[]",
									"components": [
										{
											"name": "chainId",
											"type": "uint256",
											"internalType": "uint256"
										},
										{
											"name": "count",
											"type": "uint256",
											"internalType": "uint256"
										},
										{
											"name": "beneficiary",
											"type": "address",
											"internalType": "address"
										}
									]
								},
								{
									"name": "splitRate",
									"type": "uint16",
									"internalType": "uint16"
								},
								{
									"name": "initialIssuanceRate",
									"type": "uint112",
									"internalType": "uint112"
								},
								{
									"name": "priceCeilingIncreaseFrequency",
									"type": "uint40",
									"internalType": "uint40"
								},
								{
									"name": "priceCeilingIncreasePercentage",
									"type": "uint32",
									"internalType": "uint32"
								},
								{
									"name": "priceFloorTaxIntensity",
									"type": "uint16",
									"internalType": "uint16"
								}
							]
						}
					]
				},
				{
					"name": "terminalConfigurations",
					"type": "tuple[]",
					"internalType": "struct JBTerminalConfig[]",
					"components": [
						{
							"name": "terminal",
							"type": "address",
							"internalType": "contract IJBTerminal"
						},
						{
							"name": "tokensToAccept",
							"type": "address[]",
							"internalType": "address[]"
						}
					]
				},
				{
					"name": "buybackHookConfiguration",
					"type": "tuple",
					"internalType": "struct REVBuybackHookConfig",
					"components": [
						{
							"name": "hook",
							"type": "address",
							"internalType": "contract IJBBuybackHook"
						},
						{
							"name": "poolConfigurations",
							"type": "tuple[]",
							"internalType": "struct REVBuybackPoolConfig[]",
							"components": [
								{
									"name": "token",
									"type": "address",
									"internalType": "address"
								},
								{
									"name": "fee",
									"type": "uint24",
									"internalType": "uint24"
								},
								{
									"name": "twapWindow",
									"type": "uint32",
									"internalType": "uint32"
								},
								{
									"name": "twapSlippageTolerance",
									"type": "uint32",
									"internalType": "uint32"
								}
							]
						}
					]
				},
				{
					"name": "suckerDeploymentConfiguration",
					"type": "tuple",
					"internalType": "struct REVSuckerDeploymentConfig",
					"components": [
						{
							"name": "deployerConfigurations",
							"type": "tuple[]",
							"internalType": "struct BPSuckerDeployerConfig[]",
							"components": [
								{
									"name": "deployer",
									"type": "address",
									"internalType": "contract IBPSuckerDeployer"
								},
								{
									"name": "mappings",
									"type": "tuple[]",
									"internalType": "struct BPTokenMapping[]",
									"components": [
										{
											"name": "localToken",
											"type": "address",
											"internalType": "address"
										},
										{
											"name": "minGas",
											"type": "uint32",
											"internalType": "uint32"
										},
										{
											"name": "remoteToken",
											"type": "address",
											"internalType": "address"
										},
										{
											"name": "minBridgeAmount",
											"type": "uint256",
											"internalType": "uint256"
										}
									]
								}
							]
						},
						{
							"name": "salt",
							"type": "bytes32",
							"internalType": "bytes32"
						}
					]
				},
				{
					"name": "hookConfiguration",
					"type": "tuple",
					"internalType": "struct REVDeploy721TiersHookConfig",
					"components": [
						{
							"name": "baseline721HookConfiguration",
							"type": "tuple",
							"internalType": "struct JBDeploy721TiersHookConfig",
							"components": [
								{
									"name": "name",
									"type": "string",
									"internalType": "string"
								},
								{
									"name": "symbol",
									"type": "string",
									"internalType": "string"
								},
								{
									"name": "rulesets",
									"type": "address",
									"internalType": "contract IJBRulesets"
								},
								{
									"name": "baseUri",
									"type": "string",
									"internalType": "string"
								},
								{
									"name": "tokenUriResolver",
									"type": "address",
									"internalType": "contract IJB721TokenUriResolver"
								},
								{
									"name": "contractUri",
									"type": "string",
									"internalType": "string"
								},
								{
									"name": "tiersConfig",
									"type": "tuple",
									"internalType": "struct JB721InitTiersConfig",
									"components": [
										{
											"name": "tiers",
											"type": "tuple[]",
											"internalType": "struct JB721TierConfig[]",
											"components": [
												{
													"name": "price",
													"type": "uint104",
													"internalType": "uint104"
												},
												{
													"name": "initialSupply",
													"type": "uint32",
													"internalType": "uint32"
												},
												{
													"name": "votingUnits",
													"type": "uint32",
													"internalType": "uint32"
												},
												{
													"name": "reserveFrequency",
													"type": "uint16",
													"internalType": "uint16"
												},
												{
													"name": "reserveBeneficiary",
													"type": "address",
													"internalType": "address"
												},
												{
													"name": "encodedIPFSUri",
													"type": "bytes32",
													"internalType": "bytes32"
												},
												{
													"name": "category",
													"type": "uint24",
													"internalType": "uint24"
												},
												{
													"name": "allowOwnerMint",
													"type": "bool",
													"internalType": "bool"
												},
												{
													"name": "useReserveBeneficiaryAsDefault",
													"type": "bool",
													"internalType": "bool"
												},
												{
													"name": "transfersPausable",
													"type": "bool",
													"internalType": "bool"
												},
												{
													"name": "useVotingUnits",
													"type": "bool",
													"internalType": "bool"
												},
												{
													"name": "cannotBeRemoved",
													"type": "bool",
													"internalType": "bool"
												}
											]
										},
										{
											"name": "currency",
											"type": "uint32",
											"internalType": "uint32"
										},
										{
											"name": "decimals",
											"type": "uint8",
											"internalType": "uint8"
										},
										{
											"name": "prices",
											"type": "address",
											"internalType": "contract IJBPrices"
										}
									]
								},
								{
									"name": "reserveBeneficiary",
									"type": "address",
									"internalType": "address"
								},
								{
									"name": "flags",
									"type": "tuple",
									"internalType": "struct JB721TiersHookFlags",
									"components": [
										{
											"name": "noNewTiersWithReserves",
											"type": "bool",
											"internalType": "bool"
										},
										{
											"name": "noNewTiersWithVotes",
											"type": "bool",
											"internalType": "bool"
										},
										{
											"name": "noNewTiersWithOwnerMinting",
											"type": "bool",
											"internalType": "bool"
										},
										{
											"name": "preventOverspending",
											"type": "bool",
											"internalType": "bool"
										}
									]
								}
							]
						},
						{
							"name": "operatorCanAdjustTiers",
							"type": "bool",
							"internalType": "bool"
						},
						{
							"name": "operatorCanUpdateMetadata",
							"type": "bool",
							"internalType": "bool"
						},
						{
							"name": "operatorCanMint",
							"type": "bool",
							"internalType": "bool"
						}
					]
				},
				{
					"name": "otherPayHooksSpecifications",
					"type": "tuple[]",
					"internalType": "struct JBPayHookSpecification[]",
					"components": [
						{
							"name": "hook",
							"type": "address",
							"internalType": "contract IJBPayHook"
						},
						{
							"name": "amount",
							"type": "uint256",
							"internalType": "uint256"
						},
						{
							"name": "metadata",
							"type": "bytes",
							"internalType": "bytes"
						}
					]
				},
				{
					"name": "extraHookMetadata",
					"type": "uint16",
					"internalType": "uint16"
				},
				{
					"name": "allowedPosts",
					"type": "tuple[]",
					"internalType": "struct REVCroptopAllowedPost[]",
					"components": [
						{
							"name": "category",
							"type": "uint256",
							"internalType": "uint256"
						},
						{
							"name": "minimumPrice",
							"type": "uint256",
							"internalType": "uint256"
						},
						{
							"name": "minimumTotalSupply",
							"type": "uint256",
							"internalType": "uint256"
						},
						{
							"name": "maximumTotalSupply",
							"type": "uint256",
							"internalType": "uint256"
						},
						{
							"name": "allowedAddresses",
							"type": "address[]",
							"internalType": "address[]"
						}
					]
				}
			],
			"outputs": [
				{
					"name": "",
					"type": "uint256",
					"internalType": "uint256"
				},
				{
					"name": "hook",
					"type": "address",
					"internalType": "contract IJB721TiersHook"
				}
			],
			"stateMutability": "nonpayable"
		},
		{
			"type": "function",
			"name": "launchPayHookRevnetFor",
			"inputs": [
				{
					"name": "revnetId",
					"type": "uint256",
					"internalType": "uint256"
				},
				{
					"name": "configuration",
					"type": "tuple",
					"internalType": "struct REVConfig",
					"components": [
						{
							"name": "description",
							"type": "tuple",
							"internalType": "struct REVDescription",
							"components": [
								{
									"name": "name",
									"type": "string",
									"internalType": "string"
								},
								{
									"name": "ticker",
									"type": "string",
									"internalType": "string"
								},
								{
									"name": "uri",
									"type": "string",
									"internalType": "string"
								},
								{
									"name": "salt",
									"type": "bytes32",
									"internalType": "bytes32"
								}
							]
						},
						{
							"name": "baseCurrency",
							"type": "uint32",
							"internalType": "uint32"
						},
						{
							"name": "initialSplitOperator",
							"type": "address",
							"internalType": "address"
						},
						{
							"name": "stageConfigurations",
							"type": "tuple[]",
							"internalType": "struct REVStageConfig[]",
							"components": [
								{
									"name": "startsAtOrAfter",
									"type": "uint40",
									"internalType": "uint40"
								},
								{
									"name": "mintConfigs",
									"type": "tuple[]",
									"internalType": "struct REVMintConfig[]",
									"components": [
										{
											"name": "chainId",
											"type": "uint256",
											"internalType": "uint256"
										},
										{
											"name": "count",
											"type": "uint256",
											"internalType": "uint256"
										},
										{
											"name": "beneficiary",
											"type": "address",
											"internalType": "address"
										}
									]
								},
								{
									"name": "splitRate",
									"type": "uint16",
									"internalType": "uint16"
								},
								{
									"name": "initialIssuanceRate",
									"type": "uint112",
									"internalType": "uint112"
								},
								{
									"name": "priceCeilingIncreaseFrequency",
									"type": "uint40",
									"internalType": "uint40"
								},
								{
									"name": "priceCeilingIncreasePercentage",
									"type": "uint32",
									"internalType": "uint32"
								},
								{
									"name": "priceFloorTaxIntensity",
									"type": "uint16",
									"internalType": "uint16"
								}
							]
						}
					]
				},
				{
					"name": "terminalConfigurations",
					"type": "tuple[]",
					"internalType": "struct JBTerminalConfig[]",
					"components": [
						{
							"name": "terminal",
							"type": "address",
							"internalType": "contract IJBTerminal"
						},
						{
							"name": "tokensToAccept",
							"type": "address[]",
							"internalType": "address[]"
						}
					]
				},
				{
					"name": "buybackHookConfiguration",
					"type": "tuple",
					"internalType": "struct REVBuybackHookConfig",
					"components": [
						{
							"name": "hook",
							"type": "address",
							"internalType": "contract IJBBuybackHook"
						},
						{
							"name": "poolConfigurations",
							"type": "tuple[]",
							"internalType": "struct REVBuybackPoolConfig[]",
							"components": [
								{
									"name": "token",
									"type": "address",
									"internalType": "address"
								},
								{
									"name": "fee",
									"type": "uint24",
									"internalType": "uint24"
								},
								{
									"name": "twapWindow",
									"type": "uint32",
									"internalType": "uint32"
								},
								{
									"name": "twapSlippageTolerance",
									"type": "uint32",
									"internalType": "uint32"
								}
							]
						}
					]
				},
				{
					"name": "suckerDeploymentConfiguration",
					"type": "tuple",
					"internalType": "struct REVSuckerDeploymentConfig",
					"components": [
						{
							"name": "deployerConfigurations",
							"type": "tuple[]",
							"internalType": "struct BPSuckerDeployerConfig[]",
							"components": [
								{
									"name": "deployer",
									"type": "address",
									"internalType": "contract IBPSuckerDeployer"
								},
								{
									"name": "mappings",
									"type": "tuple[]",
									"internalType": "struct BPTokenMapping[]",
									"components": [
										{
											"name": "localToken",
											"type": "address",
											"internalType": "address"
										},
										{
											"name": "minGas",
											"type": "uint32",
											"internalType": "uint32"
										},
										{
											"name": "remoteToken",
											"type": "address",
											"internalType": "address"
										},
										{
											"name": "minBridgeAmount",
											"type": "uint256",
											"internalType": "uint256"
										}
									]
								}
							]
						},
						{
							"name": "salt",
							"type": "bytes32",
							"internalType": "bytes32"
						}
					]
				},
				{
					"name": "payHookSpecifications",
					"type": "tuple[]",
					"internalType": "struct JBPayHookSpecification[]",
					"components": [
						{
							"name": "hook",
							"type": "address",
							"internalType": "contract IJBPayHook"
						},
						{
							"name": "amount",
							"type": "uint256",
							"internalType": "uint256"
						},
						{
							"name": "metadata",
							"type": "bytes",
							"internalType": "bytes"
						}
					]
				},
				{
					"name": "extraHookMetadata",
					"type": "uint16",
					"internalType": "uint16"
				}
			],
			"outputs": [
				{
					"name": "",
					"type": "uint256",
					"internalType": "uint256"
				}
			],
			"stateMutability": "nonpayable"
		},
		{
			"type": "function",
			"name": "launchRevnetFor",
			"inputs": [
				{
					"name": "revnetId",
					"type": "uint256",
					"internalType": "uint256"
				},
				{
					"name": "configuration",
					"type": "tuple",
					"internalType": "struct REVConfig",
					"components": [
						{
							"name": "description",
							"type": "tuple",
							"internalType": "struct REVDescription",
							"components": [
								{
									"name": "name",
									"type": "string",
									"internalType": "string"
								},
								{
									"name": "ticker",
									"type": "string",
									"internalType": "string"
								},
								{
									"name": "uri",
									"type": "string",
									"internalType": "string"
								},
								{
									"name": "salt",
									"type": "bytes32",
									"internalType": "bytes32"
								}
							]
						},
						{
							"name": "baseCurrency",
							"type": "uint32",
							"internalType": "uint32"
						},
						{
							"name": "initialSplitOperator",
							"type": "address",
							"internalType": "address"
						},
						{
							"name": "stageConfigurations",
							"type": "tuple[]",
							"internalType": "struct REVStageConfig[]",
							"components": [
								{
									"name": "startsAtOrAfter",
									"type": "uint40",
									"internalType": "uint40"
								},
								{
									"name": "mintConfigs",
									"type": "tuple[]",
									"internalType": "struct REVMintConfig[]",
									"components": [
										{
											"name": "chainId",
											"type": "uint256",
											"internalType": "uint256"
										},
										{
											"name": "count",
											"type": "uint256",
											"internalType": "uint256"
										},
										{
											"name": "beneficiary",
											"type": "address",
											"internalType": "address"
										}
									]
								},
								{
									"name": "splitRate",
									"type": "uint16",
									"internalType": "uint16"
								},
								{
									"name": "initialIssuanceRate",
									"type": "uint112",
									"internalType": "uint112"
								},
								{
									"name": "priceCeilingIncreaseFrequency",
									"type": "uint40",
									"internalType": "uint40"
								},
								{
									"name": "priceCeilingIncreasePercentage",
									"type": "uint32",
									"internalType": "uint32"
								},
								{
									"name": "priceFloorTaxIntensity",
									"type": "uint16",
									"internalType": "uint16"
								}
							]
						}
					]
				},
				{
					"name": "terminalConfigurations",
					"type": "tuple[]",
					"internalType": "struct JBTerminalConfig[]",
					"components": [
						{
							"name": "terminal",
							"type": "address",
							"internalType": "contract IJBTerminal"
						},
						{
							"name": "tokensToAccept",
							"type": "address[]",
							"internalType": "address[]"
						}
					]
				},
				{
					"name": "buybackHookConfiguration",
					"type": "tuple",
					"internalType": "struct REVBuybackHookConfig",
					"components": [
						{
							"name": "hook",
							"type": "address",
							"internalType": "contract IJBBuybackHook"
						},
						{
							"name": "poolConfigurations",
							"type": "tuple[]",
							"internalType": "struct REVBuybackPoolConfig[]",
							"components": [
								{
									"name": "token",
									"type": "address",
									"internalType": "address"
								},
								{
									"name": "fee",
									"type": "uint24",
									"internalType": "uint24"
								},
								{
									"name": "twapWindow",
									"type": "uint32",
									"internalType": "uint32"
								},
								{
									"name": "twapSlippageTolerance",
									"type": "uint32",
									"internalType": "uint32"
								}
							]
						}
					]
				},
				{
					"name": "suckerDeploymentConfiguration",
					"type": "tuple",
					"internalType": "struct REVSuckerDeploymentConfig",
					"components": [
						{
							"name": "deployerConfigurations",
							"type": "tuple[]",
							"internalType": "struct BPSuckerDeployerConfig[]",
							"components": [
								{
									"name": "deployer",
									"type": "address",
									"internalType": "contract IBPSuckerDeployer"
								},
								{
									"name": "mappings",
									"type": "tuple[]",
									"internalType": "struct BPTokenMapping[]",
									"components": [
										{
											"name": "localToken",
											"type": "address",
											"internalType": "address"
										},
										{
											"name": "minGas",
											"type": "uint32",
											"internalType": "uint32"
										},
										{
											"name": "remoteToken",
											"type": "address",
											"internalType": "address"
										},
										{
											"name": "minBridgeAmount",
											"type": "uint256",
											"internalType": "uint256"
										}
									]
								}
							]
						},
						{
							"name": "salt",
							"type": "bytes32",
							"internalType": "bytes32"
						}
					]
				}
			],
			"outputs": [
				{
					"name": "",
					"type": "uint256",
					"internalType": "uint256"
				}
			],
			"stateMutability": "nonpayable"
		},
		{
			"type": "function",
			"name": "launchTiered721RevnetFor",
			"inputs": [
				{
					"name": "revnetId",
					"type": "uint256",
					"internalType": "uint256"
				},
				{
					"name": "configuration",
					"type": "tuple",
					"internalType": "struct REVConfig",
					"components": [
						{
							"name": "description",
							"type": "tuple",
							"internalType": "struct REVDescription",
							"components": [
								{
									"name": "name",
									"type": "string",
									"internalType": "string"
								},
								{
									"name": "ticker",
									"type": "string",
									"internalType": "string"
								},
								{
									"name": "uri",
									"type": "string",
									"internalType": "string"
								},
								{
									"name": "salt",
									"type": "bytes32",
									"internalType": "bytes32"
								}
							]
						},
						{
							"name": "baseCurrency",
							"type": "uint32",
							"internalType": "uint32"
						},
						{
							"name": "initialSplitOperator",
							"type": "address",
							"internalType": "address"
						},
						{
							"name": "stageConfigurations",
							"type": "tuple[]",
							"internalType": "struct REVStageConfig[]",
							"components": [
								{
									"name": "startsAtOrAfter",
									"type": "uint40",
									"internalType": "uint40"
								},
								{
									"name": "mintConfigs",
									"type": "tuple[]",
									"internalType": "struct REVMintConfig[]",
									"components": [
										{
											"name": "chainId",
											"type": "uint256",
											"internalType": "uint256"
										},
										{
											"name": "count",
											"type": "uint256",
											"internalType": "uint256"
										},
										{
											"name": "beneficiary",
											"type": "address",
											"internalType": "address"
										}
									]
								},
								{
									"name": "splitRate",
									"type": "uint16",
									"internalType": "uint16"
								},
								{
									"name": "initialIssuanceRate",
									"type": "uint112",
									"internalType": "uint112"
								},
								{
									"name": "priceCeilingIncreaseFrequency",
									"type": "uint40",
									"internalType": "uint40"
								},
								{
									"name": "priceCeilingIncreasePercentage",
									"type": "uint32",
									"internalType": "uint32"
								},
								{
									"name": "priceFloorTaxIntensity",
									"type": "uint16",
									"internalType": "uint16"
								}
							]
						}
					]
				},
				{
					"name": "terminalConfigurations",
					"type": "tuple[]",
					"internalType": "struct JBTerminalConfig[]",
					"components": [
						{
							"name": "terminal",
							"type": "address",
							"internalType": "contract IJBTerminal"
						},
						{
							"name": "tokensToAccept",
							"type": "address[]",
							"internalType": "address[]"
						}
					]
				},
				{
					"name": "buybackHookConfiguration",
					"type": "tuple",
					"internalType": "struct REVBuybackHookConfig",
					"components": [
						{
							"name": "hook",
							"type": "address",
							"internalType": "contract IJBBuybackHook"
						},
						{
							"name": "poolConfigurations",
							"type": "tuple[]",
							"internalType": "struct REVBuybackPoolConfig[]",
							"components": [
								{
									"name": "token",
									"type": "address",
									"internalType": "address"
								},
								{
									"name": "fee",
									"type": "uint24",
									"internalType": "uint24"
								},
								{
									"name": "twapWindow",
									"type": "uint32",
									"internalType": "uint32"
								},
								{
									"name": "twapSlippageTolerance",
									"type": "uint32",
									"internalType": "uint32"
								}
							]
						}
					]
				},
				{
					"name": "suckerDeploymentConfiguration",
					"type": "tuple",
					"internalType": "struct REVSuckerDeploymentConfig",
					"components": [
						{
							"name": "deployerConfigurations",
							"type": "tuple[]",
							"internalType": "struct BPSuckerDeployerConfig[]",
							"components": [
								{
									"name": "deployer",
									"type": "address",
									"internalType": "contract IBPSuckerDeployer"
								},
								{
									"name": "mappings",
									"type": "tuple[]",
									"internalType": "struct BPTokenMapping[]",
									"components": [
										{
											"name": "localToken",
											"type": "address",
											"internalType": "address"
										},
										{
											"name": "minGas",
											"type": "uint32",
											"internalType": "uint32"
										},
										{
											"name": "remoteToken",
											"type": "address",
											"internalType": "address"
										},
										{
											"name": "minBridgeAmount",
											"type": "uint256",
											"internalType": "uint256"
										}
									]
								}
							]
						},
						{
							"name": "salt",
							"type": "bytes32",
							"internalType": "bytes32"
						}
					]
				},
				{
					"name": "hookConfiguration",
					"type": "tuple",
					"internalType": "struct REVDeploy721TiersHookConfig",
					"components": [
						{
							"name": "baseline721HookConfiguration",
							"type": "tuple",
							"internalType": "struct JBDeploy721TiersHookConfig",
							"components": [
								{
									"name": "name",
									"type": "string",
									"internalType": "string"
								},
								{
									"name": "symbol",
									"type": "string",
									"internalType": "string"
								},
								{
									"name": "rulesets",
									"type": "address",
									"internalType": "contract IJBRulesets"
								},
								{
									"name": "baseUri",
									"type": "string",
									"internalType": "string"
								},
								{
									"name": "tokenUriResolver",
									"type": "address",
									"internalType": "contract IJB721TokenUriResolver"
								},
								{
									"name": "contractUri",
									"type": "string",
									"internalType": "string"
								},
								{
									"name": "tiersConfig",
									"type": "tuple",
									"internalType": "struct JB721InitTiersConfig",
									"components": [
										{
											"name": "tiers",
											"type": "tuple[]",
											"internalType": "struct JB721TierConfig[]",
											"components": [
												{
													"name": "price",
													"type": "uint104",
													"internalType": "uint104"
												},
												{
													"name": "initialSupply",
													"type": "uint32",
													"internalType": "uint32"
												},
												{
													"name": "votingUnits",
													"type": "uint32",
													"internalType": "uint32"
												},
												{
													"name": "reserveFrequency",
													"type": "uint16",
													"internalType": "uint16"
												},
												{
													"name": "reserveBeneficiary",
													"type": "address",
													"internalType": "address"
												},
												{
													"name": "encodedIPFSUri",
													"type": "bytes32",
													"internalType": "bytes32"
												},
												{
													"name": "category",
													"type": "uint24",
													"internalType": "uint24"
												},
												{
													"name": "allowOwnerMint",
													"type": "bool",
													"internalType": "bool"
												},
												{
													"name": "useReserveBeneficiaryAsDefault",
													"type": "bool",
													"internalType": "bool"
												},
												{
													"name": "transfersPausable",
													"type": "bool",
													"internalType": "bool"
												},
												{
													"name": "useVotingUnits",
													"type": "bool",
													"internalType": "bool"
												},
												{
													"name": "cannotBeRemoved",
													"type": "bool",
													"internalType": "bool"
												}
											]
										},
										{
											"name": "currency",
											"type": "uint32",
											"internalType": "uint32"
										},
										{
											"name": "decimals",
											"type": "uint8",
											"internalType": "uint8"
										},
										{
											"name": "prices",
											"type": "address",
											"internalType": "contract IJBPrices"
										}
									]
								},
								{
									"name": "reserveBeneficiary",
									"type": "address",
									"internalType": "address"
								},
								{
									"name": "flags",
									"type": "tuple",
									"internalType": "struct JB721TiersHookFlags",
									"components": [
										{
											"name": "noNewTiersWithReserves",
											"type": "bool",
											"internalType": "bool"
										},
										{
											"name": "noNewTiersWithVotes",
											"type": "bool",
											"internalType": "bool"
										},
										{
											"name": "noNewTiersWithOwnerMinting",
											"type": "bool",
											"internalType": "bool"
										},
										{
											"name": "preventOverspending",
											"type": "bool",
											"internalType": "bool"
										}
									]
								}
							]
						},
						{
							"name": "operatorCanAdjustTiers",
							"type": "bool",
							"internalType": "bool"
						},
						{
							"name": "operatorCanUpdateMetadata",
							"type": "bool",
							"internalType": "bool"
						},
						{
							"name": "operatorCanMint",
							"type": "bool",
							"internalType": "bool"
						}
					]
				},
				{
					"name": "otherPayHooksSpecifications",
					"type": "tuple[]",
					"internalType": "struct JBPayHookSpecification[]",
					"components": [
						{
							"name": "hook",
							"type": "address",
							"internalType": "contract IJBPayHook"
						},
						{
							"name": "amount",
							"type": "uint256",
							"internalType": "uint256"
						},
						{
							"name": "metadata",
							"type": "bytes",
							"internalType": "bytes"
						}
					]
				},
				{
					"name": "extraHookMetadata",
					"type": "uint16",
					"internalType": "uint16"
				}
			],
			"outputs": [
				{
					"name": "",
					"type": "uint256",
					"internalType": "uint256"
				},
				{
					"name": "hook",
					"type": "address",
					"internalType": "contract IJB721TiersHook"
				}
			],
			"stateMutability": "nonpayable"
		},
		{
			"type": "function",
			"name": "mintFor",
			"inputs": [
				{
					"name": "revnetId",
					"type": "uint256",
					"internalType": "uint256"
				},
				{
					"name": "stageId",
					"type": "uint256",
					"internalType": "uint256"
				},
				{
					"name": "beneficiary",
					"type": "address",
					"internalType": "address"
				}
			],
			"outputs": [],
			"stateMutability": "nonpayable"
		},
		{
			"type": "function",
			"name": "onERC721Received",
			"inputs": [
				{
					"name": "operator",
					"type": "address",
					"internalType": "address"
				},
				{
					"name": "",
					"type": "address",
					"internalType": "address"
				},
				{
					"name": "tokenId",
					"type": "uint256",
					"internalType": "uint256"
				},
				{
					"name": "data",
					"type": "bytes",
					"internalType": "bytes"
				}
			],
			"outputs": [
				{
					"name": "",
					"type": "bytes4",
					"internalType": "bytes4"
				}
			],
			"stateMutability": "view"
		},
		{
			"type": "function",
			"name": "payHookSpecificationsOf",
			"inputs": [
				{
					"name": "revnetId",
					"type": "uint256",
					"internalType": "uint256"
				}
			],
			"outputs": [
				{
					"name": "",
					"type": "tuple[]",
					"internalType": "struct JBPayHookSpecification[]",
					"components": [
						{
							"name": "hook",
							"type": "address",
							"internalType": "contract IJBPayHook"
						},
						{
							"name": "amount",
							"type": "uint256",
							"internalType": "uint256"
						},
						{
							"name": "metadata",
							"type": "bytes",
							"internalType": "bytes"
						}
					]
				}
			],
			"stateMutability": "view"
		},
		{
			"type": "function",
			"name": "replaceSplitOperatorOf",
			"inputs": [
				{
					"name": "revnetId",
					"type": "uint256",
					"internalType": "uint256"
				},
				{
					"name": "newSplitOperator",
					"type": "address",
					"internalType": "address"
				}
			],
			"outputs": [],
			"stateMutability": "nonpayable"
		},
		{
			"type": "function",
			"name": "supportsInterface",
			"inputs": [
				{
					"name": "interfaceId",
					"type": "bytes4",
					"internalType": "bytes4"
				}
			],
			"outputs": [
				{
					"name": "",
					"type": "bool",
					"internalType": "bool"
				}
			],
			"stateMutability": "view"
		},
		{
			"type": "function",
			"name": "trustedForwarder",
			"inputs": [],
			"outputs": [
				{
					"name": "",
					"type": "address",
					"internalType": "address"
				}
			],
			"stateMutability": "view"
		},
		{
			"type": "event",
			"name": "DeployRevnet",
			"inputs": [
				{
					"name": "revnetId",
					"type": "uint256",
					"indexed": true,
					"internalType": "uint256"
				},
				{
					"name": "configuration",
					"type": "tuple",
					"indexed": false,
					"internalType": "struct REVConfig",
					"components": [
						{
							"name": "description",
							"type": "tuple",
							"internalType": "struct REVDescription",
							"components": [
								{
									"name": "name",
									"type": "string",
									"internalType": "string"
								},
								{
									"name": "ticker",
									"type": "string",
									"internalType": "string"
								},
								{
									"name": "uri",
									"type": "string",
									"internalType": "string"
								},
								{
									"name": "salt",
									"type": "bytes32",
									"internalType": "bytes32"
								}
							]
						},
						{
							"name": "baseCurrency",
							"type": "uint32",
							"internalType": "uint32"
						},
						{
							"name": "initialSplitOperator",
							"type": "address",
							"internalType": "address"
						},
						{
							"name": "stageConfigurations",
							"type": "tuple[]",
							"internalType": "struct REVStageConfig[]",
							"components": [
								{
									"name": "startsAtOrAfter",
									"type": "uint40",
									"internalType": "uint40"
								},
								{
									"name": "mintConfigs",
									"type": "tuple[]",
									"internalType": "struct REVMintConfig[]",
									"components": [
										{
											"name": "chainId",
											"type": "uint256",
											"internalType": "uint256"
										},
										{
											"name": "count",
											"type": "uint256",
											"internalType": "uint256"
										},
										{
											"name": "beneficiary",
											"type": "address",
											"internalType": "address"
										}
									]
								},
								{
									"name": "splitRate",
									"type": "uint16",
									"internalType": "uint16"
								},
								{
									"name": "initialIssuanceRate",
									"type": "uint112",
									"internalType": "uint112"
								},
								{
									"name": "priceCeilingIncreaseFrequency",
									"type": "uint40",
									"internalType": "uint40"
								},
								{
									"name": "priceCeilingIncreasePercentage",
									"type": "uint32",
									"internalType": "uint32"
								},
								{
									"name": "priceFloorTaxIntensity",
									"type": "uint16",
									"internalType": "uint16"
								}
							]
						}
					]
				},
				{
					"name": "terminalConfigurations",
					"type": "tuple[]",
					"indexed": false,
					"internalType": "struct JBTerminalConfig[]",
					"components": [
						{
							"name": "terminal",
							"type": "address",
							"internalType": "contract IJBTerminal"
						},
						{
							"name": "tokensToAccept",
							"type": "address[]",
							"internalType": "address[]"
						}
					]
				},
				{
					"name": "buybackHookConfiguration",
					"type": "tuple",
					"indexed": false,
					"internalType": "struct REVBuybackHookConfig",
					"components": [
						{
							"name": "hook",
							"type": "address",
							"internalType": "contract IJBBuybackHook"
						},
						{
							"name": "poolConfigurations",
							"type": "tuple[]",
							"internalType": "struct REVBuybackPoolConfig[]",
							"components": [
								{
									"name": "token",
									"type": "address",
									"internalType": "address"
								},
								{
									"name": "fee",
									"type": "uint24",
									"internalType": "uint24"
								},
								{
									"name": "twapWindow",
									"type": "uint32",
									"internalType": "uint32"
								},
								{
									"name": "twapSlippageTolerance",
									"type": "uint32",
									"internalType": "uint32"
								}
							]
						}
					]
				},
				{
					"name": "suckerDeploymentConfiguration",
					"type": "tuple",
					"indexed": false,
					"internalType": "struct REVSuckerDeploymentConfig",
					"components": [
						{
							"name": "deployerConfigurations",
							"type": "tuple[]",
							"internalType": "struct BPSuckerDeployerConfig[]",
							"components": [
								{
									"name": "deployer",
									"type": "address",
									"internalType": "contract IBPSuckerDeployer"
								},
								{
									"name": "mappings",
									"type": "tuple[]",
									"internalType": "struct BPTokenMapping[]",
									"components": [
										{
											"name": "localToken",
											"type": "address",
											"internalType": "address"
										},
										{
											"name": "minGas",
											"type": "uint32",
											"internalType": "uint32"
										},
										{
											"name": "remoteToken",
											"type": "address",
											"internalType": "address"
										},
										{
											"name": "minBridgeAmount",
											"type": "uint256",
											"internalType": "uint256"
										}
									]
								}
							]
						},
						{
							"name": "salt",
							"type": "bytes32",
							"internalType": "bytes32"
						}
					]
				},
				{
					"name": "rulesetConfigurations",
					"type": "tuple[]",
					"indexed": false,
					"internalType": "struct JBRulesetConfig[]",
					"components": [
						{
							"name": "mustStartAtOrAfter",
							"type": "uint256",
							"internalType": "uint256"
						},
						{
							"name": "duration",
							"type": "uint256",
							"internalType": "uint256"
						},
						{
							"name": "weight",
							"type": "uint256",
							"internalType": "uint256"
						},
						{
							"name": "decayRate",
							"type": "uint256",
							"internalType": "uint256"
						},
						{
							"name": "approvalHook",
							"type": "address",
							"internalType": "contract IJBRulesetApprovalHook"
						},
						{
							"name": "metadata",
							"type": "tuple",
							"internalType": "struct JBRulesetMetadata",
							"components": [
								{
									"name": "reservedRate",
									"type": "uint256",
									"internalType": "uint256"
								},
								{
									"name": "redemptionRate",
									"type": "uint256",
									"internalType": "uint256"
								},
								{
									"name": "baseCurrency",
									"type": "uint256",
									"internalType": "uint256"
								},
								{
									"name": "pausePay",
									"type": "bool",
									"internalType": "bool"
								},
								{
									"name": "pauseCreditTransfers",
									"type": "bool",
									"internalType": "bool"
								},
								{
									"name": "allowOwnerMinting",
									"type": "bool",
									"internalType": "bool"
								},
								{
									"name": "allowSetCustomToken",
									"type": "bool",
									"internalType": "bool"
								},
								{
									"name": "allowTerminalMigration",
									"type": "bool",
									"internalType": "bool"
								},
								{
									"name": "allowSetTerminals",
									"type": "bool",
									"internalType": "bool"
								},
								{
									"name": "allowControllerMigration",
									"type": "bool",
									"internalType": "bool"
								},
								{
									"name": "allowSetController",
									"type": "bool",
									"internalType": "bool"
								},
								{
									"name": "holdFees",
									"type": "bool",
									"internalType": "bool"
								},
								{
									"name": "useTotalSurplusForRedemptions",
									"type": "bool",
									"internalType": "bool"
								},
								{
									"name": "useDataHookForPay",
									"type": "bool",
									"internalType": "bool"
								},
								{
									"name": "useDataHookForRedeem",
									"type": "bool",
									"internalType": "bool"
								},
								{
									"name": "dataHook",
									"type": "address",
									"internalType": "address"
								},
								{
									"name": "metadata",
									"type": "uint256",
									"internalType": "uint256"
								}
							]
						},
						{
							"name": "splitGroups",
							"type": "tuple[]",
							"internalType": "struct JBSplitGroup[]",
							"components": [
								{
									"name": "groupId",
									"type": "uint256",
									"internalType": "uint256"
								},
								{
									"name": "splits",
									"type": "tuple[]",
									"internalType": "struct JBSplit[]",
									"components": [
										{
											"name": "preferAddToBalance",
											"type": "bool",
											"internalType": "bool"
										},
										{
											"name": "percent",
											"type": "uint256",
											"internalType": "uint256"
										},
										{
											"name": "projectId",
											"type": "uint256",
											"internalType": "uint256"
										},
										{
											"name": "beneficiary",
											"type": "address",
											"internalType": "address payable"
										},
										{
											"name": "lockedUntil",
											"type": "uint256",
											"internalType": "uint256"
										},
										{
											"name": "hook",
											"type": "address",
											"internalType": "contract IJBSplitHook"
										}
									]
								}
							]
						},
						{
							"name": "fundAccessLimitGroups",
							"type": "tuple[]",
							"internalType": "struct JBFundAccessLimitGroup[]",
							"components": [
								{
									"name": "terminal",
									"type": "address",
									"internalType": "address"
								},
								{
									"name": "token",
									"type": "address",
									"internalType": "address"
								},
								{
									"name": "payoutLimits",
									"type": "tuple[]",
									"internalType": "struct JBCurrencyAmount[]",
									"components": [
										{
											"name": "amount",
											"type": "uint256",
											"internalType": "uint256"
										},
										{
											"name": "currency",
											"type": "uint256",
											"internalType": "uint256"
										}
									]
								},
								{
									"name": "surplusAllowances",
									"type": "tuple[]",
									"internalType": "struct JBCurrencyAmount[]",
									"components": [
										{
											"name": "amount",
											"type": "uint256",
											"internalType": "uint256"
										},
										{
											"name": "currency",
											"type": "uint256",
											"internalType": "uint256"
										}
									]
								}
							]
						}
					]
				},
				{
					"name": "encodedConfiguration",
					"type": "bytes",
					"indexed": false,
					"internalType": "bytes"
				},
				{
					"name": "isInProgress",
					"type": "bool",
					"indexed": false,
					"internalType": "bool"
				},
				{
					"name": "caller",
					"type": "address",
					"indexed": false,
					"internalType": "address"
				}
			],
			"anonymous": false
		},
		{
			"type": "event",
			"name": "DeploySuckers",
			"inputs": [
				{
					"name": "revnetId",
					"type": "uint256",
					"indexed": true,
					"internalType": "uint256"
				},
				{
					"name": "salt",
					"type": "bytes32",
					"indexed": true,
					"internalType": "bytes32"
				},
				{
					"name": "encodedConfiguration",
					"type": "bytes",
					"indexed": false,
					"internalType": "bytes"
				},
				{
					"name": "suckerDeploymentConfiguration",
					"type": "tuple",
					"indexed": false,
					"internalType": "struct REVSuckerDeploymentConfig",
					"components": [
						{
							"name": "deployerConfigurations",
							"type": "tuple[]",
							"internalType": "struct BPSuckerDeployerConfig[]",
							"components": [
								{
									"name": "deployer",
									"type": "address",
									"internalType": "contract IBPSuckerDeployer"
								},
								{
									"name": "mappings",
									"type": "tuple[]",
									"internalType": "struct BPTokenMapping[]",
									"components": [
										{
											"name": "localToken",
											"type": "address",
											"internalType": "address"
										},
										{
											"name": "minGas",
											"type": "uint32",
											"internalType": "uint32"
										},
										{
											"name": "remoteToken",
											"type": "address",
											"internalType": "address"
										},
										{
											"name": "minBridgeAmount",
											"type": "uint256",
											"internalType": "uint256"
										}
									]
								}
							]
						},
						{
							"name": "salt",
							"type": "bytes32",
							"internalType": "bytes32"
						}
					]
				},
				{
					"name": "caller",
					"type": "address",
					"indexed": false,
					"internalType": "address"
				}
			],
			"anonymous": false
		},
		{
			"type": "event",
			"name": "Mint",
			"inputs": [
				{
					"name": "revnetId",
					"type": "uint256",
					"indexed": true,
					"internalType": "uint256"
				},
				{
					"name": "stageId",
					"type": "uint256",
					"indexed": true,
					"internalType": "uint256"
				},
				{
					"name": "beneficiary",
					"type": "address",
					"indexed": true,
					"internalType": "address"
				},
				{
					"name": "count",
					"type": "uint256",
					"indexed": false,
					"internalType": "uint256"
				},
				{
					"name": "caller",
					"type": "address",
					"indexed": false,
					"internalType": "address"
				}
			],
			"anonymous": false
		},
		{
			"type": "event",
			"name": "ReplaceSplitOperator",
			"inputs": [
				{
					"name": "revnetId",
					"type": "uint256",
					"indexed": true,
					"internalType": "uint256"
				},
				{
					"name": "newSplitOperator",
					"type": "address",
					"indexed": true,
					"internalType": "address"
				},
				{
					"name": "caller",
					"type": "address",
					"indexed": false,
					"internalType": "address"
				}
			],
			"anonymous": false
		},
		{
			"type": "event",
			"name": "StoreMintPotential",
			"inputs": [
				{
					"name": "revnetId",
					"type": "uint256",
					"indexed": true,
					"internalType": "uint256"
				},
				{
					"name": "stageId",
					"type": "uint256",
					"indexed": true,
					"internalType": "uint256"
				},
				{
					"name": "beneficiary",
					"type": "address",
					"indexed": true,
					"internalType": "address"
				},
				{
					"name": "count",
					"type": "uint256",
					"indexed": false,
					"internalType": "uint256"
				},
				{
					"name": "caller",
					"type": "address",
					"indexed": false,
					"internalType": "address"
				}
			],
			"anonymous": false
		},
		{
			"type": "event",
			"name": "StoredPayHookSpecifications",
			"inputs": [
				{
					"name": "revnetId",
					"type": "uint256",
					"indexed": true,
					"internalType": "uint256"
				},
				{
					"name": "payHookSpecifications",
					"type": "tuple[]",
					"indexed": false,
					"internalType": "struct JBPayHookSpecification[]",
					"components": [
						{
							"name": "hook",
							"type": "address",
							"internalType": "contract IJBPayHook"
						},
						{
							"name": "amount",
							"type": "uint256",
							"internalType": "uint256"
						},
						{
							"name": "metadata",
							"type": "bytes",
							"internalType": "bytes"
						}
					]
				},
				{
					"name": "caller",
					"type": "address",
					"indexed": false,
					"internalType": "address"
				}
			],
			"anonymous": false
		},
		{
			"type": "error",
			"name": "REVBasicDeployer_BadStageTimes",
			"inputs": []
		},
		{
			"type": "error",
			"name": "REVBasicDeployer_ExitDelayInEffect",
			"inputs": []
		},
		{
			"type": "error",
			"name": "REVBasicDeployer_StageNotStarted",
			"inputs": []
		},
		{
			"type": "error",
			"name": "REVBasicDeployer_Unauthorized",
			"inputs": []
		}
	],
	"solcInputHash": "dfb69731150549f312fc0807e9731b8f",
	"args": [
		"0x10167F103555f6509954818fd987156C8BF0739D",
		"0x48e902C19165C0D4597B2f68D2DD98F6C2Fb55f0",
		"0xB2b5841DBeF766d4b521221732F9B618fCf34A87",
		"0x4c2DD5Eb0A338D3Dd442F6a7391d7aB49E7f6aE7",
		"0x445786f17370d7e5aEf644d1698F1A8D013Bd75e"
	],
	"bytecode": "0x6101006040523480156200001257600080fd5b50604051620060ee380380620060ee83398101604081905262000035916200010e565b6001600160a01b0392831660805293821660a05291811660c052600380546001808201835560117fc2575a0e9e593c00f959f8c92f12db2869c3395a3b0502d05e2516446f71f85b9283015582548082018455601890830155825480820190935560069290910182905592821660e05280546001600160a01b031916939091169290921790915560078054918201815560005260147fa66cc928b5edb82af9bd49922954155ab7b0942694bea4ce44661d9a8736c688909101556200018e565b6001600160a01b03811681146200010b57600080fd5b50565b600080600080600060a086880312156200012757600080fd5b85516200013481620000f5565b60208701519095506200014781620000f5565b60408701519094506200015a81620000f5565b60608701519093506200016d81620000f5565b60808701519092506200018081620000f5565b809150509295509295909350565b60805160a05160c05160e051615e7e62000270600039600081816103dd01526110df01526000818161040401528181610a520152818161127f0152818161159f0152818161216c01526122920152600081816104770152818161050601528181610b2f01528181610d2301528181610f2c015281816113ae0152818161168c015281816118130152818161199101528181611b0c01528181611ce401528181611db101528181611e9201528181611f5a01528181612027015281816121a70152612f730152600081816102450152818161031c01526131430152615e7e6000f3fe608060405234801561001057600080fd5b506004361061018d5760003560e01c80639ab68726116100e3578063b5d255331161008c578063dbfbe5da11610066578063dbfbe5da1461044c578063eb5ad9d91461045f578063ee0fc1211461047257600080fd5b8063b5d25533146103ff578063bb19940214610426578063bd43e7ba1461043957600080fd5b80639fafd73c116100bd5780639fafd73c14610385578063aaf320d7146103b5578063abf8c5c8146103d857600080fd5b80639ab68726146103555780639c62f179146103685780639d82ba251461037b57600080fd5b80635a31dc13116101455780637249a7731161011f5780637249a773146102d95780637da0a8771461031a57806382a09b301461034057600080fd5b80635a31dc13146102755780635c0a7cee146102a6578063677ce088146102c657600080fd5b806343681e151161017657806343681e15146101e65780634c4ffc7114610214578063572b6c051461023557600080fd5b806301ffc9a714610192578063150b7a02146101ba575b600080fd5b6101a56101a0366004613338565b610499565b60405190151581526020015b60405180910390f35b6101cd6101c8366004613391565b610502565b6040516001600160e01b031990911681526020016101b1565b6102066101f4366004613430565b60016020526000908152604090205481565b6040519081526020016101b1565b610227610222366004613449565b6105ce565b6040516101b1929190613556565b6101a5610243366004613577565b7f00000000000000000000000000000000000000000000000000000000000000006001600160a01b0390811691161490565b610206610283366004613594565b600260209081526000938452604080852082529284528284209052825290205481565b6102b96102b4366004613430565b6108d2565b6040516101b191906135cd565b6101a56102d43660046135e0565b6109f6565b6103026102e7366004613430565b6000602081905290815260409020546001600160a01b031681565b6040516001600160a01b0390911681526020016101b1565b7f0000000000000000000000000000000000000000000000000000000000000000610302565b61035361034e366004613594565b610b2b565b005b610206610363366004613f3b565b610df3565b6102066103763660046140c7565b610e0f565b61020662278d0081565b610398610393366004614579565b610f1f565b604080519283526001600160a01b039091166020830152016101b1565b6103c86103c336600461468a565b61126f565b6040516101b194939291906146c6565b6103027f000000000000000000000000000000000000000000000000000000000000000081565b6103027f000000000000000000000000000000000000000000000000000000000000000081565b610353610434366004614766565b6113ac565b6103986104473660046148b7565b611668565b600654610302906001600160a01b031681565b61035361046d3660046135e0565b611804565b6103027f000000000000000000000000000000000000000000000000000000000000000081565b60006001600160e01b031982167f81c03c2e0000000000000000000000000000000000000000000000000000000014806104fc57507f01ffc9a7000000000000000000000000000000000000000000000000000000006001600160e01b03198316145b92915050565b60007f00000000000000000000000000000000000000000000000000000000000000006001600160a01b031663293c49996040518163ffffffff1660e01b8152600401602060405180830381865afa158015610562573d6000803e3d6000fd5b505050506040513d601f19601f8201168201806040525081019061058691906149ed565b6001600160a01b0316336001600160a01b0316146105a357600080fd5b507f150b7a020000000000000000000000000000000000000000000000000000000095945050505050565b60c081013560009081526020819052604081205460609081906001600160a01b0316801561068a576040517f4c4ffc710000000000000000000000000000000000000000000000000000000081526001600160a01b03821690634c4ffc719061063b908890600401614ab5565b600060405180830381865afa158015610658573d6000803e3d6000fd5b505050506040513d6000823e601f3d908101601f191682016040526106809190810190614b86565b9094509150610693565b84610120013593505b815160c086013560009081526005602090815260408083208054825181850281018501909352808352941515949192909190849084015b828210156107ae576000848152602090819020604080516060810182526003860290920180546001600160a01b031683526001810154938301939093526002830180549293929184019161071d90614cce565b80601f016020809104026020016040519081016040528092919081815260200182805461074990614cce565b80156107965780601f1061076b57610100808354040283529160200191610796565b820191906000526020600020905b81548152906001019060200180831161077957829003601f168201915b505050505081525050815260200190600101906106ca565b505050509050600081519050826107c65760006107c9565b60015b6107d69060ff1682614d1e565b67ffffffffffffffff8111156107ee576107ee613610565b60405190808252806020026020018201604052801561083b57816020015b6040805160608082018352600080835260208301529181019190915281526020019060019003908161080c5790505b50955060005b818110156108885782818151811061085b5761085b614d31565b602002602001015187828151811061087557610875614d31565b6020908102919091010152600101610841565b5082156108c857846000815181106108a2576108a2614d31565b60200260200101518682815181106108bc576108bc614d31565b60200260200101819052505b5050505050915091565b606060056000838152602001908152602001600020805480602002602001604051908101604052809291908181526020016000905b828210156109eb576000848152602090819020604080516060810182526003860290920180546001600160a01b031683526001810154938301939093526002830180549293929184019161095a90614cce565b80601f016020809104026020016040519081016040528092919081815260200182805461098690614cce565b80156109d35780601f106109a8576101008083540402835291602001916109d3565b820191906000526020600020905b8154815290600101906020018083116109b657829003601f168201915b50505050508152505081526020019060010190610907565b505050509050919050565b6000828152602081905260408120546001600160a01b0390811690831603610a20575060016104fc565b6040517f3d12cb87000000000000000000000000000000000000000000000000000000008152600481018490526000907f00000000000000000000000000000000000000000000000000000000000000006001600160a01b031690633d12cb8790602401600060405180830381865afa158015610aa1573d6000803e3d6000fd5b505050506040513d6000823e601f3d908101601f19168201604052610ac99190810190614d47565b805190915060005b81811015610b1f57828181518110610aeb57610aeb614d31565b60200260200101516001600160a01b0316856001600160a01b031603610b1757600193505050506104fc565b600101610ad1565b50600095945050505050565b60007f00000000000000000000000000000000000000000000000000000000000000006001600160a01b031663d4a1b4b16040518163ffffffff1660e01b8152600401602060405180830381865afa158015610b8b573d6000803e3d6000fd5b505050506040513d601f19601f82011682018060405250810190610baf91906149ed565b6040517f25a61d5c00000000000000000000000000000000000000000000000000000000815260048101869052602481018590526001600160a01b0391909116906325a61d5c9060440161012060405180830381865afa158015610c17573d6000803e3d6000fd5b505050506040513d601f19601f82011682018060405250810190610c3b9190614dec565b90504281606001511115610c7b576040517f13dec85c00000000000000000000000000000000000000000000000000000000815260040160405180910390fd5b600084815260026020908152604080832084830151845282528083206001600160a01b038616845290915281205490819003610cb8575050505050565b600085815260026020908152604080832087845282528083206001600160a01b038781168086529190935281842084905590516363fdc96f60e11b81526004810189905260248101859052604481019190915260a0606482015260a4810183905260848101929092527f0000000000000000000000000000000000000000000000000000000000000000169063c7fb92de9060c4016020604051808303816000875af1158015610d6c573d6000803e3d6000fd5b505050506040513d601f19601f82011682018060405250810190610d909190614e6c565b50826001600160a01b03168260200151867f598baf7bf150ca2f42be9e9f8f55e81d45f5715c3ff22bf46d697fabec7f31d68433604051610de49291909182526001600160a01b0316602082015260400190565b60405180910390a45050505050565b6000610e058686868630600088611cc3565b9695505050505050565b6000610e2488888888308761ffff168a611cc3565b835190985060005b81811015610ed05760008a81526005602052604090208551869083908110610e5657610e56614d31565b6020908102919091018101518254600180820185556000948552938390208251600390920201805473ffffffffffffffffffffffffffffffffffffffff19166001600160a01b03909216919091178155918101519282019290925560408201516002820190610ec59082614ed6565b505050600101610e2c565b50887fdfaf2737f25eace49d372b472ec03f1df0f9814dfc69d2b95c5e92a041f42e2985610efc6123c0565b604051610f0a929190614f96565b60405180910390a25096979650505050505050565b6000808980820361101b577f00000000000000000000000000000000000000000000000000000000000000006001600160a01b031663293c49996040518163ffffffff1660e01b8152600401602060405180830381865afa158015610f88573d6000803e3d6000fd5b505050506040513d601f19601f82011682018060405250810190610fac91906149ed565b6001600160a01b03166306661abd6040518163ffffffff1660e01b8152600401602060405180830381865afa158015610fe9573d6000803e3d6000fd5b505050506040513d601f19601f8201168201806040525081019061100d9190614e6c565b611018906001614d1e565b9a505b8451600061102a826001614d1e565b67ffffffffffffffff81111561104257611042613610565b60405190808252806020026020018201604052801561108f57816020015b604080516060808201835260008083526020830152918101919091528152602001906001900390816110605790505b50905060005b828110156110dc578781815181106110af576110af614d31565b60200260200101518282815181106110c9576110c9614d31565b6020908102919091010152600101611095565b507f00000000000000000000000000000000000000000000000000000000000000006001600160a01b0316632230819f8e8a600001516040518363ffffffff1660e01b815260040161112f9291906150e1565b6020604051808303816000875af115801561114e573d6000803e3d6000fd5b505050506040513d601f19601f8201168201806040525081019061117291906149ed565b93508760200151156111a15760008d815260046020908152604082208054600181018255908352912060149101555b8760400151156111ce5760008d815260046020908152604082208054600181018255908352912060159101555b8760600151156111fb5760008d815260046020908152604082208054600181018255908352912060169101555b6040518060600160405280856001600160a01b03168152602001600081526020016040518060200160405280600081525081525081838151811061124157611241614d31565b602002602001018190525061125b838d8d8d8d868c610e0f565b508c94505050509850989650505050505050565b6000808060606001600160a01b037f0000000000000000000000000000000000000000000000000000000000000000166383db9d01604087018035906112b89060208a01613577565b6040516001600160e01b031960e085901b16815260048101929092526001600160a01b03166024820152604401602060405180830381865afa158015611302573d6000803e3d6000fd5b505050506040513d601f19601f820116820180604052508101906113269190615219565b156113435761271085608001358660a001359350935093506113a5565b60408086013560009081526001602052205442101561138e576040517f04c3b3cd00000000000000000000000000000000000000000000000000000000815260040160405180910390fd5b84610160013585608001358660a001359350935093505b9193509193565b7f00000000000000000000000000000000000000000000000000000000000000006001600160a01b0316631f47ce696040518163ffffffff1660e01b8152600401602060405180830381865afa15801561140a573d6000803e3d6000fd5b505050506040513d601f19601f8201168201806040525081019061142e91906149ed565b6001600160a01b031663f434c9146040518163ffffffff1660e01b8152600401602060405180830381865afa15801561146b573d6000803e3d6000fd5b505050506040513d601f19601f8201168201806040525081019061148f91906149ed565b6001600160a01b031663632af95f6114a56123c0565b30866114b0886123cf565b6000806040518763ffffffff1660e01b81526004016114d496959493929190615272565b602060405180830381865afa1580156114f1573d6000803e3d6000fd5b505050506040513d601f19601f820116820180604052508101906115159190615219565b611532576040516331fb21f360e01b815260040160405180910390fd5b600061153c6123c0565b838360200151604051602001611554939291906152be565b60408051601f1981840301815290829052805160209091012083517f2f3f50e00000000000000000000000000000000000000000000000000000000083529092506001600160a01b037f00000000000000000000000000000000000000000000000000000000000000001691632f3f50e0916115d691889186916004016153c8565b6000604051808303816000875af11580156115f5573d6000803e3d6000fd5b505050506040513d6000823e601f3d908101601f1916820160405261161d9190810190614d47565b5080847f755ecfca2f6e66af8868551556bf7931740a7062db8e0882f4c322fdb0bb3f60858561164b6123c0565b60405161165a93929190615410565b60405180910390a350505050565b60008061167b8b8b8b8b8b8b8b8b610f1f565b909b50905061168a8184612587565b7f00000000000000000000000000000000000000000000000000000000000000006001600160a01b031663f434c9146040518163ffffffff1660e01b8152600401602060405180830381865afa1580156116e8573d6000803e3d6000fd5b505050506040513d601f19601f8201168201806040525081019061170c91906149ed565b6001600160a01b03166305d2912e306040518060600160405280600660009054906101000a90046001600160a01b03166001600160a01b031681526020018f8152602001600780548060200260200160405190810160405280929190818152602001828054801561179c57602002820191906000526020600020905b815481526020019060010190808311611788575b50505050508152506040518363ffffffff1660e01b81526004016117c192919061544f565b600060405180830381600087803b1580156117db57600080fd5b505af11580156117ef573d6000803e3d6000fd5b505050508a9150995099975050505050505050565b600061180f836123cf565b90507f00000000000000000000000000000000000000000000000000000000000000006001600160a01b0316631f47ce696040518163ffffffff1660e01b8152600401602060405180830381865afa15801561186f573d6000803e3d6000fd5b505050506040513d601f19601f8201168201806040525081019061189391906149ed565b6001600160a01b031663f434c9146040518163ffffffff1660e01b8152600401602060405180830381865afa1580156118d0573d6000803e3d6000fd5b505050506040513d601f19601f820116820180604052508101906118f491906149ed565b6001600160a01b031663632af95f61190a6123c0565b3086856000806040518763ffffffff1660e01b815260040161193196959493929190615272565b602060405180830381865afa15801561194e573d6000803e3d6000fd5b505050506040513d601f19601f820116820180604052508101906119729190615219565b61198f576040516331fb21f360e01b815260040160405180910390fd5b7f00000000000000000000000000000000000000000000000000000000000000006001600160a01b0316631f47ce696040518163ffffffff1660e01b8152600401602060405180830381865afa1580156119ed573d6000803e3d6000fd5b505050506040513d601f19601f82011682018060405250810190611a1191906149ed565b6001600160a01b031663f434c9146040518163ffffffff1660e01b8152600401602060405180830381865afa158015611a4e573d6000803e3d6000fd5b505050506040513d601f19601f82011682018060405250810190611a7291906149ed565b6001600160a01b03166305d2912e306040518060600160405280611a946123c0565b6001600160a01b0316815260208082018990526040805160008152918201815291820152516001600160e01b031960e085901b168152611ad892919060040161544f565b600060405180830381600087803b158015611af257600080fd5b505af1158015611b06573d6000803e3d6000fd5b505050507f00000000000000000000000000000000000000000000000000000000000000006001600160a01b0316631f47ce696040518163ffffffff1660e01b8152600401602060405180830381865afa158015611b68573d6000803e3d6000fd5b505050506040513d601f19601f82011682018060405250810190611b8c91906149ed565b6001600160a01b031663f434c9146040518163ffffffff1660e01b8152600401602060405180830381865afa158015611bc9573d6000803e3d6000fd5b505050506040513d601f19601f82011682018060405250810190611bed91906149ed565b6001600160a01b03166305d2912e306040518060600160405280866001600160a01b03168152602001878152602001858152506040518363ffffffff1660e01b8152600401611c3d92919061544f565b600060405180830381600087803b158015611c5757600080fd5b505af1158015611c6b573d6000803e3d6000fd5b50505050816001600160a01b0316837f0329d6a81434b130c72eb65eea0e32e429dc1277b4aad86ec86454aefb618451611ca36123c0565b6040516001600160a01b03909116815260200160405180910390a3505050565b600080600080611cd48a888861276d565b9250925092508a600003611daf577f00000000000000000000000000000000000000000000000000000000000000006001600160a01b0316639e14fb80308c6000015160400151868d8f6000015160200151604051602001611d369190615492565b6040516020818303038152906040526040518663ffffffff1660e01b8152600401611d659594939291906158f2565b6020604051808303816000875af1158015611d84573d6000803e3d6000fd5b505050506040513d601f19601f82011682018060405250810190611da89190614e6c565b9a50611e6d565b7f00000000000000000000000000000000000000000000000000000000000000006001600160a01b03166321df42e88c858c8e6000015160200151604051602001611dfa9190615492565b6040516020818303038152906040526040518563ffffffff1660e01b8152600401611e28949392919061595a565b6020604051808303816000875af1158015611e47573d6000803e3d6000fd5b505050506040513d601f19601f82011682018060405250810190611e6b9190614e6c565b505b8015611e9057611e8062278d0042614d1e565b60008c8152600160205260409020555b7f00000000000000000000000000000000000000000000000000000000000000006001600160a01b031663581781918c8c60000151600001518d60000151602001518e60000151606001516040518563ffffffff1660e01b8152600401611efa9493929190615999565b6020604051808303816000875af1158015611f19573d6000803e3d6000fd5b505050506040513d601f19601f82011682018060405250810190611f3d91906149ed565b5087516001600160a01b031615611f5857611f588b89612b96565b7f00000000000000000000000000000000000000000000000000000000000000006001600160a01b031663dd5f214a8c6000611f978e60400151612cf6565b6040518463ffffffff1660e01b8152600401611fb5939291906159d6565b600060405180830381600087803b158015611fcf57600080fd5b505af1158015611fe3573d6000803e3d6000fd5b50505050611ff18b8b612e34565b600060405180606001604052808c604001516001600160a01b031681526020018d81526020016120208e6123cf565b81525090507f00000000000000000000000000000000000000000000000000000000000000006001600160a01b031663f434c9146040518163ffffffff1660e01b8152600401602060405180830381865afa158015612083573d6000803e3d6000fd5b505050506040513d601f19601f820116820180604052508101906120a791906149ed565b6001600160a01b03166305d2912e30836040518363ffffffff1660e01b81526004016120d492919061544f565b600060405180830381600087803b1580156120ee57600080fd5b505af1158015612102573d6000803e3d6000fd5b5060009250600191506121129050565b60405190808252806020026020018201604052801561213b578160200160208202803683370190505b509050601b8160008151811061215357612153614d31565b60200260200101818152505060405180606001604052807f00000000000000000000000000000000000000000000000000000000000000006001600160a01b031681526020018e81526020018281525091507f00000000000000000000000000000000000000000000000000000000000000006001600160a01b031663f434c9146040518163ffffffff1660e01b8152600401602060405180830381865afa158015612203573d6000803e3d6000fd5b505050506040513d601f19601f8201168201806040525081019061222791906149ed565b6001600160a01b03166305d2912e30846040518363ffffffff1660e01b815260040161225492919061544f565b600060405180830381600087803b15801561226e57600080fd5b505af1158015612282573d6000803e3d6000fd5b50505050602087015115612362577f00000000000000000000000000000000000000000000000000000000000000006001600160a01b0316632f3f50e08e6122c86123c0565b878b602001516040516020016122e0939291906152be565b60408051601f198184030181529082905280516020909101208b516001600160e01b031960e086901b16835261231993926004016153c8565b6000604051808303816000875af1158015612338573d6000803e3d6000fd5b505050506040513d6000823e601f3d908101601f191682016040526123609190810190614d47565b505b8c7fabdf3ec8139195645b1e44778a910396624b7d2913c04b613f4800ad25d710468d8d8d8b8a8a8a6123936123c0565b6040516123a7989796959493929190615b8d565b60405180910390a2509a9b9a5050505050505050505050565b60006123ca613133565b905090565b60606000600380548060200260200160405190810160405280929190818152602001828054801561241f57602002820191906000526020600020905b81548152602001906001019080831161240b575b5050835160008881526004602090815260408083208054825181850281018501909352808352989950939792965094509192509083018282801561248257602002820191906000526020600020905b81548152602001906001019080831161246e575b505083519394506124999250839150859050614d1e565b67ffffffffffffffff8111156124b1576124b1613610565b6040519080825280602002602001820160405280156124da578160200160208202803683370190505b50945060005b83811015612527578481815181106124fa576124fa614d31565b602002602001015186828151811061251457612514614d31565b60209081029190910101526001016124e0565b5060005b8181101561257d5782818151811061254557612545614d31565b602002602001015186828661255a9190614d1e565b8151811061256a5761256a614d31565b602090810291909101015260010161252b565b5050505050919050565b805160008167ffffffffffffffff8111156125a4576125a4613610565b60405190808252806020026020018201604052801561261757816020015b6126046040518060c0016040528060006001600160a01b0316815260200160008152602001600081526020016000815260200160008152602001606081525090565b8152602001906001900390816125c25790505b50905061264c6040518060a0016040528060008152602001600081526020016000815260200160008152602001606081525090565b60005b838110156126e25784818151811061266957612669614d31565b602002602001015191506040518060c00160405280876001600160a01b031681526020018360000151815260200183602001518152602001836040015181526020018360600151815260200183608001518152508382815181106126cf576126cf614d31565b602090810291909101015260010161264f565b50835115612766576006546040517f9b9b7aa90000000000000000000000000000000000000000000000000000000081526001600160a01b0390911690639b9b7aa990612733908590600401615ce0565b600060405180830381600087803b15801561274d57600080fd5b505af1158015612761573d6000803e3d6000fd5b505050505b5050505050565b6060838101515181906000908067ffffffffffffffff81111561279257612792613610565b60405190808252806020026020018201604052801561288c57816020015b6128796040805161010080820183526000808352602080840182905283850182905260608085018390526080808601849052865161022081018852848152928301849052958201839052810182905293840181905260a084810182905260c0850182905260e0850182905291840181905261012084018190526101408401819052610160840181905261018084018190526101a084018190526101c084018190526101e08401819052610200840152909190820190815260200160608152602001606081525090565b8152602001906001900390816127b05790505b509350612898876131a8565b6040805160e08101825260008082526060602083018190529282018190529181018290526080810182905260a0810182905260c08101829052919450805b83811015612b8957896060015181815181106128f4576128f4614d31565b6020026020010151925081836000015164ffffffffff1611612942576040517f0aec2d6900000000000000000000000000000000000000000000000000000000815260040160405180910390fd5b826000015164ffffffffff1687828151811061296057612960614d31565b60200260200101516000018181525050826080015164ffffffffff1687828151811061298e5761298e614d31565b6020026020010151602001818152505082606001516dffffffffffffffffffffffffffff168782815181106129c5576129c5614d31565b602002602001015160400181815250508260a0015163ffffffff168782815181106129f2576129f2614d31565b602002602001015160600181815250506000878281518110612a1657612a16614d31565b6020026020010151608001906001600160a01b031690816001600160a01b031681525050604051806102200160405280846040015161ffff1681526020018460c0015161ffff16612710612a6a9190615d8a565b815260208c81015163ffffffff16908201526000604082018190526060820181905260016080830181905260a0830182905260c0830182905260e0830182905261010083018290526101208301829052610140830182905261016083018290526101808301526101a08201526001600160a01b038b166101c08201526101e0018990528751889083908110612b0157612b01614d31565b602002602001015160a00181905250806000148015612b275750825164ffffffffff1615155b8015612b3d575042836000015164ffffffffff16105b15612b4757600194505b85612b5284836131e2565b604051602001612b63929190615d9d565b60408051601f19818403018152919052835190965064ffffffffff1691506001016128d6565b5050505093509350939050565b602081810151516040805160808101825260008082529381018490529081018390526060810183905290915b82811015612cb55783602001518181518110612be057612be0614d31565b6020908102919091018101518551918101516040808301516060840151845192517f7b621d3a000000000000000000000000000000000000000000000000000000008152600481018c905262ffffff909416602485015263ffffffff91821660448501521660648301526001600160a01b039081166084830152919450911690637b621d3a9060a4016020604051808303816000875af1158015612c88573d6000803e3d6000fd5b505050506040513d601f19601f82011682018060405250810190612cac91906149ed565b50600101612bc2565b50509051600092835260208390526040909220805473ffffffffffffffffffffffffffffffffffffffff19166001600160a01b039093169290921790915550565b604080516001808252818301909252606091816020015b604080518082019091526000815260606020820152815260200190600190039081612d0d57505060408051600180825281830190925291925060009190602082015b6040805160c08101825260008082526020808301829052928201819052606082018190526080820181905260a08201528252600019909201910181612d4f5790505090506040518060c00160405280600015158152602001633b9aca00815260200160008152602001846001600160a01b031681526020016000815260200160006001600160a01b031681525081600081518110612def57612def614d31565b60200260200101819052506040518060400160405280600181526020018281525082600081518110612e2357612e23614d31565b602002602001018190525050919050565b606080820151516040805160e0810182526000808252602082018590529181018290529283018190526080830181905260a0830181905260c08301529060005b828110156127665783606001518181518110612e9257612e92614d31565b6020026020010151915060008260200151519050612ed36040518060600160405280600081526020016000815260200160006001600160a01b031681525090565b60005b828110156131285784602001518181518110612ef457612ef4614d31565b602002602001015191504682600001510361312057831580612f21575042856000015164ffffffffff1611155b1561304e57602082015160408084015190516363fdc96f60e11b8152600481018b905260248101929092526001600160a01b03908116604483015260a06064830152600060a4830181905260848301527f0000000000000000000000000000000000000000000000000000000000000000169063c7fb92de9060c4016020604051808303816000875af1158015612fbc573d6000803e3d6000fd5b505050506040513d601f19601f82011682018060405250810190612fe09190614e6c565b5060408201516001600160a01b0316612ff98542614d1e565b897f598baf7bf150ca2f42be9e9f8f55e81d45f5715c3ff22bf46d697fabec7f31d68560200151336040516130419291909182526001600160a01b0316602082015260400190565b60405180910390a4613120565b60208083015160008a8152600290925260408220909161306e8742614d1e565b8152602001908152602001600020600084604001516001600160a01b03166001600160a01b0316815260200190815260200160002060008282546130b29190614d1e565b909155505060408201516001600160a01b03166130cf8542614d1e565b897f9e83979117d75aa75fe101361cf46235d3d0a6fa7afafb275d2b9f8af02273138560200151336040516131179291909182526001600160a01b0316602082015260400190565b60405180910390a45b600101612ed6565b505050600101612e74565b6000366014336001600160a01b037f0000000000000000000000000000000000000000000000000000000000000000161480156131705750808210155b156131a0576000366131828385615d8a565b61318d928290615dcc565b61319691615df6565b60601c9250505090565b339250505090565b602080820151825180518184015160609283015160405193956131cc959401615e29565b6040516020818303038152906040529050919050565b6060811580156131f85750825164ffffffffff16155b61320a57825164ffffffffff1661320c565b425b6040808501516060860151608087015160a088015160c0890151945161327d96959060200195865261ffff94851660208701526dffffffffffffffffffffffffffff93909316604086015264ffffffffff91909116606085015263ffffffff1660808401521660a082015260c00190565b60408051601f1981840301815291905260208401515190915060005b818110156132f357826132c8866020015183815181106132bb576132bb614d31565b60200260200101516132fb565b6040516020016132d9929190615d9d565b60408051601f198184030181529190529250600101613299565b505092915050565b60608160000151826040015183602001516040516020016131cc939291909283526001600160a01b03919091166020830152604082015260600190565b60006020828403121561334a57600080fd5b81356001600160e01b03198116811461336257600080fd5b9392505050565b6001600160a01b038116811461337e57600080fd5b50565b803561338c81613369565b919050565b6000806000806000608086880312156133a957600080fd5b85356133b481613369565b945060208601356133c481613369565b935060408601359250606086013567ffffffffffffffff808211156133e857600080fd5b818801915088601f8301126133fc57600080fd5b81358181111561340b57600080fd5b89602082850101111561341d57600080fd5b9699959850939650602001949392505050565b60006020828403121561344257600080fd5b5035919050565b60006020828403121561345b57600080fd5b813567ffffffffffffffff81111561347257600080fd5b8201610180818503121561336257600080fd5b60005b838110156134a0578181015183820152602001613488565b50506000910152565b600081518084526134c1816020860160208601613485565b601f01601f19169290920160200192915050565b600082825180855260208086019550808260051b84010181860160005b8481101561354957858303601f19018952815180516001600160a01b031684528481015185850152604090810151606091850182905290613535818601836134a9565b9a86019a94505050908301906001016134f2565b5090979650505050505050565b82815260406020820152600061356f60408301846134d5565b949350505050565b60006020828403121561358957600080fd5b813561336281613369565b6000806000606084860312156135a957600080fd5b833592506020840135915060408401356135c281613369565b809150509250925092565b60208152600061336260208301846134d5565b600080604083850312156135f357600080fd5b82359150602083013561360581613369565b809150509250929050565b634e487b7160e01b600052604160045260246000fd5b6040516060810167ffffffffffffffff8111828210171561364957613649613610565b60405290565b60405160e0810167ffffffffffffffff8111828210171561364957613649613610565b6040516080810167ffffffffffffffff8111828210171561364957613649613610565b6040805190810167ffffffffffffffff8111828210171561364957613649613610565b604051610180810167ffffffffffffffff8111828210171561364957613649613610565b604051610120810167ffffffffffffffff8111828210171561364957613649613610565b60405160a0810167ffffffffffffffff8111828210171561364957613649613610565b604051601f8201601f1916810167ffffffffffffffff8111828210171561374c5761374c613610565b604052919050565b600067ffffffffffffffff82111561376e5761376e613610565b50601f01601f191660200190565b600082601f83011261378d57600080fd5b81356137a061379b82613754565b613723565b8181528460208386010111156137b557600080fd5b816020850160208301376000918101602001919091529392505050565b803563ffffffff8116811461338c57600080fd5b600067ffffffffffffffff82111561380057613800613610565b5060051b60200190565b803564ffffffffff8116811461338c57600080fd5b600082601f83011261383057600080fd5b8135602061384061379b836137e6565b8281526060928302850182019282820191908785111561385f57600080fd5b8387015b858110156135495781818a03121561387b5760008081fd5b613883613626565b81358152858201358682015260408083013561389e81613369565b908201528452928401928101613863565b803561ffff8116811461338c57600080fd5b80356dffffffffffffffffffffffffffff8116811461338c57600080fd5b600082601f8301126138f057600080fd5b8135602061390061379b836137e6565b82815260059290921b8401810191818101908684111561391f57600080fd5b8286015b84811015613a0157803567ffffffffffffffff808211156139445760008081fd5b9088019060e0828b03601f190181131561395e5760008081fd5b61396661364f565b61397188850161380a565b8152604080850135848111156139875760008081fd5b6139958e8b8389010161381f565b8a84015250606093506139a98486016138af565b9082015260806139ba8582016138c1565b8483015260a093506139cd84860161380a565b9082015260c06139de8582016137d2565b848301526139ed8386016138af565b908201528652505050918301918301613923565b509695505050505050565b600060808284031215613a1e57600080fd5b613a26613672565b9050813567ffffffffffffffff80821115613a4057600080fd5b9083019060808286031215613a5457600080fd5b613a5c613672565b823582811115613a6b57600080fd5b613a778782860161377c565b825250602083013582811115613a8c57600080fd5b613a988782860161377c565b602083015250604083013582811115613ab057600080fd5b613abc8782860161377c565b604083015250606083810135908201528352613ada602085016137d2565b6020840152613aeb60408501613381565b60408401526060840135915080821115613b0457600080fd5b50613b11848285016138df565b60608301525092915050565b600082601f830112613b2e57600080fd5b81356020613b3e61379b836137e6565b8083825260208201915060208460051b870101935086841115613b6057600080fd5b602086015b84811015613a01578035613b7881613369565b8352918301918301613b65565b600082601f830112613b9657600080fd5b81356020613ba661379b836137e6565b82815260059290921b84018101918181019086841115613bc557600080fd5b8286015b84811015613a0157803567ffffffffffffffff80821115613bea5760008081fd5b908801906040828b03601f1901811315613c045760008081fd5b613c0c613695565b87840135613c1981613369565b8152908301359082821115613c2e5760008081fd5b613c3c8c8984870101613b1d565b818901528652505050918301918301613bc9565b803562ffffff8116811461338c57600080fd5b60006040808385031215613c7657600080fd5b613c7e613695565b91508235613c8b81613369565b825260208381013567ffffffffffffffff811115613ca857600080fd5b8401601f81018613613cb957600080fd5b8035613cc761379b826137e6565b81815260079190911b82018301908381019088831115613ce657600080fd5b928401925b82841015613d5a576080848a031215613d045760008081fd5b613d0c613672565b8435613d1781613369565b8152613d24858701613c50565b86820152613d338786016137d2565b878201526060613d448187016137d2565b9082015282526080939093019290840190613ceb565b808588015250505050505092915050565b600060408284031215613d7d57600080fd5b613d85613695565b905067ffffffffffffffff8083351115613d9e57600080fd5b8235830184601f820112613db157600080fd5b613dbe61379b82356137e6565b81358082526020808301929160051b84010187811115613ddd57600080fd5b602084015b81811015613f22578581351115613df857600080fd5b803585016040818b03601f19011215613e1057600080fd5b613e18613695565b613e256020830135613369565b602082013581528760408301351115613e3d57600080fd5b6040820135820191508a603f830112613e5557600080fd5b6020820135613e6661379b826137e6565b81815260079190911b83016040019060208101908d831115613e8757600080fd5b6040850194505b82851015613f03576080858f031215613ea657600080fd5b613eae613672565b613eb88635613369565b85358152613ec8602087016137d2565b6020820152613eda6040870135613369565b604086013560408201526060860135606082015280835250602082019150608085019450613e8e565b8060208501525050508086525050602084019350602081019050613de2565b5050808552505050506020820135602082015292915050565b600080600080600060a08688031215613f5357600080fd5b85359450602086013567ffffffffffffffff80821115613f7257600080fd5b613f7e89838a01613a0c565b95506040880135915080821115613f9457600080fd5b613fa089838a01613b85565b94506060880135915080821115613fb657600080fd5b613fc289838a01613c63565b93506080880135915080821115613fd857600080fd5b50613fe588828901613d6b565b9150509295509295909350565b600082601f83011261400357600080fd5b8135602061401361379b836137e6565b82815260059290921b8401810191818101908684111561403257600080fd5b8286015b84811015613a0157803567ffffffffffffffff808211156140575760008081fd5b908801906060828b03601f19018113156140715760008081fd5b614079613626565b8784013561408681613369565b8152604084810135898301529184013591838311156140a55760008081fd5b6140b38d8a8588010161377c565b908201528652505050918301918301614036565b600080600080600080600060e0888a0312156140e257600080fd5b87359650602088013567ffffffffffffffff8082111561410157600080fd5b61410d8b838c01613a0c565b975060408a013591508082111561412357600080fd5b61412f8b838c01613b85565b965060608a013591508082111561414557600080fd5b6141518b838c01613c63565b955060808a013591508082111561416757600080fd5b6141738b838c01613d6b565b945060a08a013591508082111561418957600080fd5b506141968a828b01613ff2565b9250506141a560c089016138af565b905092959891949750929550565b80356cffffffffffffffffffffffffff8116811461338c57600080fd5b801515811461337e57600080fd5b803561338c816141d0565b803560ff8116811461338c57600080fd5b6000608080838503121561420d57600080fd5b614215613672565b9150823567ffffffffffffffff81111561422e57600080fd5b8301601f8101851361423f57600080fd5b8035602061424f61379b836137e6565b828152610180928302840182019282820191908985111561426f57600080fd5b948301945b848610156143625780868b03121561428c5760008081fd5b6142946136b8565b61429d876141b3565b81526142aa8588016137d2565b8582015260406142bb8189016137d2565b9082015260606142cc8882016138af565b908201526142db878901613381565b8189015260a0878101359082015260c06142f6818901613c50565b9082015260e06143078882016141de565b908201526101006143198882016141de565b9082015261012061432b8882016141de565b9082015261014061433d8882016141de565b9082015261016061434f8882016141de565b9082015283529485019491830191614274565b508652506143718682016137d2565b8186015250505050614385604083016141e9565b604082015261439660608301613381565b606082015292915050565b6000608082840312156143b357600080fd5b6143bb613672565b905081356143c8816141d0565b815260208201356143d8816141d0565b602082015260408201356143eb816141d0565b60408201526060820135614396816141d0565b60006080828403121561441057600080fd5b614418613672565b9050813567ffffffffffffffff8082111561443257600080fd5b90830190610180828603121561444757600080fd5b61444f6136dc565b82358281111561445e57600080fd5b61446a8782860161377c565b82525060208301358281111561447f57600080fd5b61448b8782860161377c565b60208301525061449d60408401613381565b60408201526060830135828111156144b457600080fd5b6144c08782860161377c565b6060830152506144d260808401613381565b608082015260a0830135828111156144e957600080fd5b6144f58782860161377c565b60a08301525060c08301358281111561450d57600080fd5b614519878286016141fa565b60c08301525061452b60e08401613381565b60e08201526101009150614541868385016143a1565b82820152808452505050614557602083016141de565b6020820152614568604083016141de565b6040820152614396606083016141de565b600080600080600080600080610100898b03121561459657600080fd5b88359750602089013567ffffffffffffffff808211156145b557600080fd5b6145c18c838d01613a0c565b985060408b01359150808211156145d757600080fd5b6145e38c838d01613b85565b975060608b01359150808211156145f957600080fd5b6146058c838d01613c63565b965060808b013591508082111561461b57600080fd5b6146278c838d01613d6b565b955060a08b013591508082111561463d57600080fd5b6146498c838d016143fe565b945060c08b013591508082111561465f57600080fd5b5061466c8b828c01613ff2565b92505061467b60e08a016138af565b90509295985092959890939650565b60006020828403121561469c57600080fd5b813567ffffffffffffffff8111156146b357600080fd5b82016101a0818503121561336257600080fd5b60006080820186835260208681850152604086604086015260606080606087015283875180865260a08801915060a08160051b890101955084890160005b8281101561475457898803609f19018452815180516001600160a01b0316895287810151888a0152860151868901869052614741868a01826134a9565b9850509286019290860190600101614704565b50959c9b505050505050505050505050565b60008060006060848603121561477b57600080fd5b83359250602084013567ffffffffffffffff8082111561479a57600080fd5b6147a68783880161377c565b935060408601359150808211156147bc57600080fd5b506147c986828701613d6b565b9150509250925092565b600082601f8301126147e457600080fd5b813560206147f461379b836137e6565b82815260059290921b8401810191818101908684111561481357600080fd5b8286015b84811015613a0157803567ffffffffffffffff808211156148385760008081fd5b9088019060a0828b03601f19018113156148525760008081fd5b61485a613700565b878401358152604080850135898301526060808601358284015260809150818601358184015250828501359250838311156148955760008081fd5b6148a38d8a85880101613b1d565b908201528652505050918301918301614817565b60008060008060008060008060006101208a8c0312156148d657600080fd5b8935985060208a013567ffffffffffffffff808211156148f557600080fd5b6149018d838e01613a0c565b995060408c013591508082111561491757600080fd5b6149238d838e01613b85565b985060608c013591508082111561493957600080fd5b6149458d838e01613c63565b975060808c013591508082111561495b57600080fd5b6149678d838e01613d6b565b965060a08c013591508082111561497d57600080fd5b6149898d838e016143fe565b955060c08c013591508082111561499f57600080fd5b6149ab8d838e01613ff2565b94506149b960e08d016138af565b93506101008c01359150808211156149d057600080fd5b506149dd8c828d016147d3565b9150509295985092959850929598565b6000602082840312156149ff57600080fd5b815161336281613369565b8035614a1581613369565b6001600160a01b031682526020818101359083015260408082013590830152606090810135910152565b6000808335601e19843603018112614a5657600080fd5b830160208101925035905067ffffffffffffffff811115614a7657600080fd5b803603821315614a8557600080fd5b9250929050565b81835281816020850137506000828201602090810191909152601f909101601f19169091010190565b60208152614ad660208201614ac984613381565b6001600160a01b03169052565b6000614ae460208401613381565b6001600160a01b038116604084015250614b046060830160408501614a0a565b60c083013560e083015261010060e084013581840152614b25818501613381565b9050610120614b3e818501836001600160a01b03169052565b61014091508085013582850152506101608185013581850152614b6381860186614a3f565b6101808681015292509050614b7d6101a085018383614a8c565b95945050505050565b6000806040808486031215614b9a57600080fd5b8351925060208085015167ffffffffffffffff80821115614bba57600080fd5b818701915087601f830112614bce57600080fd5b8151614bdc61379b826137e6565b81815260059190911b8301840190848101908a831115614bfb57600080fd5b8585015b83811015614cbc57805185811115614c1657600080fd5b86016060818e03601f19011215614c2d5760008081fd5b614c35613626565b88820151614c4281613369565b8152818a015189820152606082015187811115614c5f5760008081fd5b8083019250508d603f830112614c755760008081fd5b88820151614c8561379b82613754565b8181528f8c838601011115614c9a5760008081fd5b614ca9828c83018e8701613485565b828c015250845250918601918601614bff565b50809750505050505050509250929050565b600181811c90821680614ce257607f821691505b602082108103614d0257634e487b7160e01b600052602260045260246000fd5b50919050565b634e487b7160e01b600052601160045260246000fd5b808201808211156104fc576104fc614d08565b634e487b7160e01b600052603260045260246000fd5b60006020808385031215614d5a57600080fd5b825167ffffffffffffffff811115614d7157600080fd5b8301601f81018513614d8257600080fd5b8051614d9061379b826137e6565b81815260059190911b82018301908381019087831115614daf57600080fd5b928401925b82841015614dd6578351614dc781613369565b82529284019290840190614db4565b979650505050505050565b805161338c81613369565b60006101208284031215614dff57600080fd5b614e076136dc565b825181526020830151602082015260408301516040820152606083015160608201526080830151608082015260a083015160a082015260c083015160c0820152614e5360e08401614de1565b60e0820152610100928301519281019290925250919050565b600060208284031215614e7e57600080fd5b5051919050565b601f821115614ed1576000816000526020600020601f850160051c81016020861015614eae5750805b601f850160051c820191505b81811015614ecd57828155600101614eba565b5050505b505050565b815167ffffffffffffffff811115614ef057614ef0613610565b614f0481614efe8454614cce565b84614e85565b602080601f831160018114614f395760008415614f215750858301515b600019600386901b1c1916600185901b178555614ecd565b600085815260208120601f198616915b82811015614f6857888601518255948401946001909101908401614f49565b5085821015614f865787850151600019600388901b60f8161c191681555b5050505050600190811b01905550565b604081526000614fa960408301856134d5565b90506001600160a01b03831660208301529392505050565b80516080808452815184820181905260009260a0916020918201918388019190865b828110156150a657845180516cffffffffffffffffffffffffff1685528281015163ffffffff908116848701526040808301519091169086015260608082015161ffff1690860152878101516001600160a01b031688860152868101518786015260c08082015162ffffff169086015260e080820151151590860152610100808201511515908601526101208082015115159086015261014080820151151590860152610160908101511515908501529381019361018090930192600101614fe3565b508781015163ffffffff16908901525060408087015160ff16908801526060808701516001600160a01b038116918901919091529350610e05565b828152604060208201526000825161018060408401526151056101c08401826134a9565b90506020840151603f198085840301606086015261512383836134a9565b92506040860151915061514160808601836001600160a01b03169052565b60608601519150808584030160a086015261515c83836134a9565b92506080860151915061517a60c08601836001600160a01b03169052565b60a08601519150808584030160e086015261519583836134a9565b925060c086015191506101008186850301818701526151b48484614fc1565b935060e087015192506151d36101208701846001600160a01b03169052565b860151805115156101408701526020810151151561016087015260408101511515610180870152606081015115156101a087015291506152109050565b50949350505050565b60006020828403121561522b57600080fd5b8151613362816141d0565b60008151808452602080850194506020840160005b838110156152675781518752958201959082019060010161524b565b509495945050505050565b60006001600160a01b03808916835280881660208401525085604083015260c060608301526152a460c0830186615236565b93151560808301525090151560a090910152949350505050565b6bffffffffffffffffffffffff198460601b168152600083516152e8816014850160208801613485565b60149201918201929092526034019392505050565b600082825180855260208086019550808260051b8401018186016000805b858110156153ba57868403601f19018a52825180516001600160a01b03908116865290860151604087870181905281518188018190529188019290916060919082890190875b818110156153a25786518051851684528c81015163ffffffff168d8501528681015185168785015285015185840152958b0195608090920191600101615361565b50509d89019d9750505093860193505060010161531b565b509198975050505050505050565b838152826020820152606060408201526000614b7d60608301846152fd565b60008151604084526153fc60408501826152fd565b602093840151949093019390935250919050565b60608152600061542360608301866134a9565b828103602084015261543581866153e7565b9150506001600160a01b0383166040830152949350505050565b60006001600160a01b038085168352604060208401528084511660408401525060208301516060830152604083015160606080840152614b7d60a0840182615236565b7f24000000000000000000000000000000000000000000000000000000000000008152600082516154ca816001850160208701613485565b7f207265766e6574206465706c6f796564000000000000000000000000000000006001939091019283015250601101919050565b8051825260208101516020830152604081015160408301526060810151615529606084018215159052565b50608081015161553d608084018215159052565b5060a081015161555160a084018215159052565b5060c081015161556560c084018215159052565b5060e081015161557960e084018215159052565b5061010081810151151590830152610120808201511515908301526101408082015115159083015261016080820151151590830152610180808201511515908301526101a0808201511515908301526101c0808201511515908301526101e0808201516001600160a01b03169083015261020090810151910152565b600082825180855260208086019550808260051b8401018186016000805b858110156153ba57868403601f19018a52825180518552850151604086860181905281518187018190529187019160609081880190865b818110156156a45785518051151584528b8101518c8501528581015186850152848101516001600160a01b03908116868601526080808301519086015260a0918201511690840152948a019460c09092019160010161564a565b50509c88019c965050509285019250600101615613565b60008151808452602080850194506020840160005b838110156152675781518051885283015183880152604090960195908201906001016156d0565b600082825180855260208086019550808260051b84010181860160005b8481101561354957601f19868403018952815160806001600160a01b0380835116865280878401511687870152506040808301518282880152615759838801826156bb565b925050506060808301519250858203818701525061577781836156bb565b9a86019a9450505090830190600101615714565b600082825180855260208086019550808260051b84010181860160005b8481101561354957858303601f19018952815180518452848101518585015260408082015190850152606080820151908501526080808201516001600160a01b03169085015260a0808201516103009190615805828801826154fe565b505060c0820151816102c087015261581f828701826155f5565b91505060e082015191508481036102e086015261583c81836156f7565b9a86019a94505050908301906001016157a8565b60008151808452602080850194506020840160005b838110156152675781516001600160a01b031687529582019590820190600101615865565b600082825180855260208086019550808260051b84010181860160005b8481101561354957858303601f19018952815180516001600160a01b0316845284015160408585018190526158de81860183615850565b9a86019a94505050908301906001016158a7565b6001600160a01b038616815260a06020820152600061591460a08301876134a9565b8281036040840152615926818761578b565b9050828103606084015261593a818661588a565b9050828103608084015261594e81856134a9565b98975050505050505050565b848152608060208201526000615973608083018661578b565b8281036040840152615985818661588a565b90508281036060840152614dd681856134a9565b8481526080602082015260006159b260808301866134a9565b82810360408401526159c481866134a9565b91505082606083015295945050505050565b838152826020820152606060408201526000614b7d60608301846155f5565b600082825180855260208086019550808260051b8401018186016000805b858110156153ba57868403601f19018a528251805164ffffffffff1685528581015160e0878701819052815190870181905261010087019188019085905b80821015615a90578251805185528a8101518b8601526040908101516001600160a01b0316908501526060909301929189019160019190910190615a51565b50505060408281015161ffff908116918801919091526060808401516dffffffffffffffffffffffffffff169088015260808084015164ffffffffff169088015260a08084015163ffffffff169088015260c0928301511691909501529884019891840191600101615a13565b600060408084016001600160a01b038085511686526020808601516040828901528381518086526060955060608a019150838301925060005b81811015615b7e5783518051871684528581015162ffffff16868501528881015163ffffffff9081168a86015290880151168784015292840192608090920191600101615b36565b50909998505050505050505050565b60006101008083528a51608082850152805191506080610180850152615bb76102008501836134a9565b9150602081015161017f1980868503016101a0870152615bd784836134a9565b93506040830151915080868503016101c087015250615bf683826134a9565b92505060608101516101e08501525060208b0151615c1d61012085018263ffffffff169052565b5060408b01516001600160a01b031661014084015260608b015183820360ff1901610160850152615c4e82826159f5565b9150508281036020840152615c63818b61588a565b90508281036040840152615c77818a615afd565b90508281036060840152615c8b81896153e7565b90508281036080840152615c9f818861578b565b905082810360a0840152615cb381876134a9565b915050615cc460c083018515159052565b6001600160a01b03831660e08301529998505050505050505050565b600060208083018184528085518083526040925060408601915060408160051b87010184880160005b83811015615d7c57888303603f19018552815180516001600160a01b0316845287810151888501528681015187850152606080820151908501526080808201519085015260a09081015160c091850182905290615d6881860183615850565b968901969450505090860190600101615d09565b509098975050505050505050565b818103818111156104fc576104fc614d08565b60008351615daf818460208801613485565b835190830190615dc3818360208801613485565b01949350505050565b60008085851115615ddc57600080fd5b83861115615de957600080fd5b5050820193919092039150565b6bffffffffffffffffffffffff1981358181169160148510156132f35760149490940360031b84901b1690921692915050565b63ffffffff851681526080602082015260006159b260808301866134a956fea26469706673582212203b7d40f16a940ace10a6e8b251df0b544fa375a92ac8ecad4427ab26df87b67264736f6c63430008170033",
	"deployedBytecode": "0x608060405234801561001057600080fd5b506004361061018d5760003560e01c80639ab68726116100e3578063b5d255331161008c578063dbfbe5da11610066578063dbfbe5da1461044c578063eb5ad9d91461045f578063ee0fc1211461047257600080fd5b8063b5d25533146103ff578063bb19940214610426578063bd43e7ba1461043957600080fd5b80639fafd73c116100bd5780639fafd73c14610385578063aaf320d7146103b5578063abf8c5c8146103d857600080fd5b80639ab68726146103555780639c62f179146103685780639d82ba251461037b57600080fd5b80635a31dc13116101455780637249a7731161011f5780637249a773146102d95780637da0a8771461031a57806382a09b301461034057600080fd5b80635a31dc13146102755780635c0a7cee146102a6578063677ce088146102c657600080fd5b806343681e151161017657806343681e15146101e65780634c4ffc7114610214578063572b6c051461023557600080fd5b806301ffc9a714610192578063150b7a02146101ba575b600080fd5b6101a56101a0366004613338565b610499565b60405190151581526020015b60405180910390f35b6101cd6101c8366004613391565b610502565b6040516001600160e01b031990911681526020016101b1565b6102066101f4366004613430565b60016020526000908152604090205481565b6040519081526020016101b1565b610227610222366004613449565b6105ce565b6040516101b1929190613556565b6101a5610243366004613577565b7f000000000000000000000000b2b5841dbef766d4b521221732f9b618fcf34a876001600160a01b0390811691161490565b610206610283366004613594565b600260209081526000938452604080852082529284528284209052825290205481565b6102b96102b4366004613430565b6108d2565b6040516101b191906135cd565b6101a56102d43660046135e0565b6109f6565b6103026102e7366004613430565b6000602081905290815260409020546001600160a01b031681565b6040516001600160a01b0390911681526020016101b1565b7f000000000000000000000000b2b5841dbef766d4b521221732f9b618fcf34a87610302565b61035361034e366004613594565b610b2b565b005b610206610363366004613f3b565b610df3565b6102066103763660046140c7565b610e0f565b61020662278d0081565b610398610393366004614579565b610f1f565b604080519283526001600160a01b039091166020830152016101b1565b6103c86103c336600461468a565b61126f565b6040516101b194939291906146c6565b6103027f0000000000000000000000004c2dd5eb0a338d3dd442f6a7391d7ab49e7f6ae781565b6103027f00000000000000000000000048e902c19165c0d4597b2f68d2dd98f6c2fb55f081565b610353610434366004614766565b6113ac565b6103986104473660046148b7565b611668565b600654610302906001600160a01b031681565b61035361046d3660046135e0565b611804565b6103027f00000000000000000000000010167f103555f6509954818fd987156c8bf0739d81565b60006001600160e01b031982167f81c03c2e0000000000000000000000000000000000000000000000000000000014806104fc57507f01ffc9a7000000000000000000000000000000000000000000000000000000006001600160e01b03198316145b92915050565b60007f00000000000000000000000010167f103555f6509954818fd987156c8bf0739d6001600160a01b031663293c49996040518163ffffffff1660e01b8152600401602060405180830381865afa158015610562573d6000803e3d6000fd5b505050506040513d601f19601f8201168201806040525081019061058691906149ed565b6001600160a01b0316336001600160a01b0316146105a357600080fd5b507f150b7a020000000000000000000000000000000000000000000000000000000095945050505050565b60c081013560009081526020819052604081205460609081906001600160a01b0316801561068a576040517f4c4ffc710000000000000000000000000000000000000000000000000000000081526001600160a01b03821690634c4ffc719061063b908890600401614ab5565b600060405180830381865afa158015610658573d6000803e3d6000fd5b505050506040513d6000823e601f3d908101601f191682016040526106809190810190614b86565b9094509150610693565b84610120013593505b815160c086013560009081526005602090815260408083208054825181850281018501909352808352941515949192909190849084015b828210156107ae576000848152602090819020604080516060810182526003860290920180546001600160a01b031683526001810154938301939093526002830180549293929184019161071d90614cce565b80601f016020809104026020016040519081016040528092919081815260200182805461074990614cce565b80156107965780601f1061076b57610100808354040283529160200191610796565b820191906000526020600020905b81548152906001019060200180831161077957829003601f168201915b505050505081525050815260200190600101906106ca565b505050509050600081519050826107c65760006107c9565b60015b6107d69060ff1682614d1e565b67ffffffffffffffff8111156107ee576107ee613610565b60405190808252806020026020018201604052801561083b57816020015b6040805160608082018352600080835260208301529181019190915281526020019060019003908161080c5790505b50955060005b818110156108885782818151811061085b5761085b614d31565b602002602001015187828151811061087557610875614d31565b6020908102919091010152600101610841565b5082156108c857846000815181106108a2576108a2614d31565b60200260200101518682815181106108bc576108bc614d31565b60200260200101819052505b5050505050915091565b606060056000838152602001908152602001600020805480602002602001604051908101604052809291908181526020016000905b828210156109eb576000848152602090819020604080516060810182526003860290920180546001600160a01b031683526001810154938301939093526002830180549293929184019161095a90614cce565b80601f016020809104026020016040519081016040528092919081815260200182805461098690614cce565b80156109d35780601f106109a8576101008083540402835291602001916109d3565b820191906000526020600020905b8154815290600101906020018083116109b657829003601f168201915b50505050508152505081526020019060010190610907565b505050509050919050565b6000828152602081905260408120546001600160a01b0390811690831603610a20575060016104fc565b6040517f3d12cb87000000000000000000000000000000000000000000000000000000008152600481018490526000907f00000000000000000000000048e902c19165c0d4597b2f68d2dd98f6c2fb55f06001600160a01b031690633d12cb8790602401600060405180830381865afa158015610aa1573d6000803e3d6000fd5b505050506040513d6000823e601f3d908101601f19168201604052610ac99190810190614d47565b805190915060005b81811015610b1f57828181518110610aeb57610aeb614d31565b60200260200101516001600160a01b0316856001600160a01b031603610b1757600193505050506104fc565b600101610ad1565b50600095945050505050565b60007f00000000000000000000000010167f103555f6509954818fd987156c8bf0739d6001600160a01b031663d4a1b4b16040518163ffffffff1660e01b8152600401602060405180830381865afa158015610b8b573d6000803e3d6000fd5b505050506040513d601f19601f82011682018060405250810190610baf91906149ed565b6040517f25a61d5c00000000000000000000000000000000000000000000000000000000815260048101869052602481018590526001600160a01b0391909116906325a61d5c9060440161012060405180830381865afa158015610c17573d6000803e3d6000fd5b505050506040513d601f19601f82011682018060405250810190610c3b9190614dec565b90504281606001511115610c7b576040517f13dec85c00000000000000000000000000000000000000000000000000000000815260040160405180910390fd5b600084815260026020908152604080832084830151845282528083206001600160a01b038616845290915281205490819003610cb8575050505050565b600085815260026020908152604080832087845282528083206001600160a01b038781168086529190935281842084905590516363fdc96f60e11b81526004810189905260248101859052604481019190915260a0606482015260a4810183905260848101929092527f00000000000000000000000010167f103555f6509954818fd987156c8bf0739d169063c7fb92de9060c4016020604051808303816000875af1158015610d6c573d6000803e3d6000fd5b505050506040513d601f19601f82011682018060405250810190610d909190614e6c565b50826001600160a01b03168260200151867f598baf7bf150ca2f42be9e9f8f55e81d45f5715c3ff22bf46d697fabec7f31d68433604051610de49291909182526001600160a01b0316602082015260400190565b60405180910390a45050505050565b6000610e058686868630600088611cc3565b9695505050505050565b6000610e2488888888308761ffff168a611cc3565b835190985060005b81811015610ed05760008a81526005602052604090208551869083908110610e5657610e56614d31565b6020908102919091018101518254600180820185556000948552938390208251600390920201805473ffffffffffffffffffffffffffffffffffffffff19166001600160a01b03909216919091178155918101519282019290925560408201516002820190610ec59082614ed6565b505050600101610e2c565b50887fdfaf2737f25eace49d372b472ec03f1df0f9814dfc69d2b95c5e92a041f42e2985610efc6123c0565b604051610f0a929190614f96565b60405180910390a25096979650505050505050565b6000808980820361101b577f00000000000000000000000010167f103555f6509954818fd987156c8bf0739d6001600160a01b031663293c49996040518163ffffffff1660e01b8152600401602060405180830381865afa158015610f88573d6000803e3d6000fd5b505050506040513d601f19601f82011682018060405250810190610fac91906149ed565b6001600160a01b03166306661abd6040518163ffffffff1660e01b8152600401602060405180830381865afa158015610fe9573d6000803e3d6000fd5b505050506040513d601f19601f8201168201806040525081019061100d9190614e6c565b611018906001614d1e565b9a505b8451600061102a826001614d1e565b67ffffffffffffffff81111561104257611042613610565b60405190808252806020026020018201604052801561108f57816020015b604080516060808201835260008083526020830152918101919091528152602001906001900390816110605790505b50905060005b828110156110dc578781815181106110af576110af614d31565b60200260200101518282815181106110c9576110c9614d31565b6020908102919091010152600101611095565b507f0000000000000000000000004c2dd5eb0a338d3dd442f6a7391d7ab49e7f6ae76001600160a01b0316632230819f8e8a600001516040518363ffffffff1660e01b815260040161112f9291906150e1565b6020604051808303816000875af115801561114e573d6000803e3d6000fd5b505050506040513d601f19601f8201168201806040525081019061117291906149ed565b93508760200151156111a15760008d815260046020908152604082208054600181018255908352912060149101555b8760400151156111ce5760008d815260046020908152604082208054600181018255908352912060159101555b8760600151156111fb5760008d815260046020908152604082208054600181018255908352912060169101555b6040518060600160405280856001600160a01b03168152602001600081526020016040518060200160405280600081525081525081838151811061124157611241614d31565b602002602001018190525061125b838d8d8d8d868c610e0f565b508c94505050509850989650505050505050565b6000808060606001600160a01b037f00000000000000000000000048e902c19165c0d4597b2f68d2dd98f6c2fb55f0166383db9d01604087018035906112b89060208a01613577565b6040516001600160e01b031960e085901b16815260048101929092526001600160a01b03166024820152604401602060405180830381865afa158015611302573d6000803e3d6000fd5b505050506040513d601f19601f820116820180604052508101906113269190615219565b156113435761271085608001358660a001359350935093506113a5565b60408086013560009081526001602052205442101561138e576040517f04c3b3cd00000000000000000000000000000000000000000000000000000000815260040160405180910390fd5b84610160013585608001358660a001359350935093505b9193509193565b7f00000000000000000000000010167f103555f6509954818fd987156c8bf0739d6001600160a01b0316631f47ce696040518163ffffffff1660e01b8152600401602060405180830381865afa15801561140a573d6000803e3d6000fd5b505050506040513d601f19601f8201168201806040525081019061142e91906149ed565b6001600160a01b031663f434c9146040518163ffffffff1660e01b8152600401602060405180830381865afa15801561146b573d6000803e3d6000fd5b505050506040513d601f19601f8201168201806040525081019061148f91906149ed565b6001600160a01b031663632af95f6114a56123c0565b30866114b0886123cf565b6000806040518763ffffffff1660e01b81526004016114d496959493929190615272565b602060405180830381865afa1580156114f1573d6000803e3d6000fd5b505050506040513d601f19601f820116820180604052508101906115159190615219565b611532576040516331fb21f360e01b815260040160405180910390fd5b600061153c6123c0565b838360200151604051602001611554939291906152be565b60408051601f1981840301815290829052805160209091012083517f2f3f50e00000000000000000000000000000000000000000000000000000000083529092506001600160a01b037f00000000000000000000000048e902c19165c0d4597b2f68d2dd98f6c2fb55f01691632f3f50e0916115d691889186916004016153c8565b6000604051808303816000875af11580156115f5573d6000803e3d6000fd5b505050506040513d6000823e601f3d908101601f1916820160405261161d9190810190614d47565b5080847f755ecfca2f6e66af8868551556bf7931740a7062db8e0882f4c322fdb0bb3f60858561164b6123c0565b60405161165a93929190615410565b60405180910390a350505050565b60008061167b8b8b8b8b8b8b8b8b610f1f565b909b50905061168a8184612587565b7f00000000000000000000000010167f103555f6509954818fd987156c8bf0739d6001600160a01b031663f434c9146040518163ffffffff1660e01b8152600401602060405180830381865afa1580156116e8573d6000803e3d6000fd5b505050506040513d601f19601f8201168201806040525081019061170c91906149ed565b6001600160a01b03166305d2912e306040518060600160405280600660009054906101000a90046001600160a01b03166001600160a01b031681526020018f8152602001600780548060200260200160405190810160405280929190818152602001828054801561179c57602002820191906000526020600020905b815481526020019060010190808311611788575b50505050508152506040518363ffffffff1660e01b81526004016117c192919061544f565b600060405180830381600087803b1580156117db57600080fd5b505af11580156117ef573d6000803e3d6000fd5b505050508a9150995099975050505050505050565b600061180f836123cf565b90507f00000000000000000000000010167f103555f6509954818fd987156c8bf0739d6001600160a01b0316631f47ce696040518163ffffffff1660e01b8152600401602060405180830381865afa15801561186f573d6000803e3d6000fd5b505050506040513d601f19601f8201168201806040525081019061189391906149ed565b6001600160a01b031663f434c9146040518163ffffffff1660e01b8152600401602060405180830381865afa1580156118d0573d6000803e3d6000fd5b505050506040513d601f19601f820116820180604052508101906118f491906149ed565b6001600160a01b031663632af95f61190a6123c0565b3086856000806040518763ffffffff1660e01b815260040161193196959493929190615272565b602060405180830381865afa15801561194e573d6000803e3d6000fd5b505050506040513d601f19601f820116820180604052508101906119729190615219565b61198f576040516331fb21f360e01b815260040160405180910390fd5b7f00000000000000000000000010167f103555f6509954818fd987156c8bf0739d6001600160a01b0316631f47ce696040518163ffffffff1660e01b8152600401602060405180830381865afa1580156119ed573d6000803e3d6000fd5b505050506040513d601f19601f82011682018060405250810190611a1191906149ed565b6001600160a01b031663f434c9146040518163ffffffff1660e01b8152600401602060405180830381865afa158015611a4e573d6000803e3d6000fd5b505050506040513d601f19601f82011682018060405250810190611a7291906149ed565b6001600160a01b03166305d2912e306040518060600160405280611a946123c0565b6001600160a01b0316815260208082018990526040805160008152918201815291820152516001600160e01b031960e085901b168152611ad892919060040161544f565b600060405180830381600087803b158015611af257600080fd5b505af1158015611b06573d6000803e3d6000fd5b505050507f00000000000000000000000010167f103555f6509954818fd987156c8bf0739d6001600160a01b0316631f47ce696040518163ffffffff1660e01b8152600401602060405180830381865afa158015611b68573d6000803e3d6000fd5b505050506040513d601f19601f82011682018060405250810190611b8c91906149ed565b6001600160a01b031663f434c9146040518163ffffffff1660e01b8152600401602060405180830381865afa158015611bc9573d6000803e3d6000fd5b505050506040513d601f19601f82011682018060405250810190611bed91906149ed565b6001600160a01b03166305d2912e306040518060600160405280866001600160a01b03168152602001878152602001858152506040518363ffffffff1660e01b8152600401611c3d92919061544f565b600060405180830381600087803b158015611c5757600080fd5b505af1158015611c6b573d6000803e3d6000fd5b50505050816001600160a01b0316837f0329d6a81434b130c72eb65eea0e32e429dc1277b4aad86ec86454aefb618451611ca36123c0565b6040516001600160a01b03909116815260200160405180910390a3505050565b600080600080611cd48a888861276d565b9250925092508a600003611daf577f00000000000000000000000010167f103555f6509954818fd987156c8bf0739d6001600160a01b0316639e14fb80308c6000015160400151868d8f6000015160200151604051602001611d369190615492565b6040516020818303038152906040526040518663ffffffff1660e01b8152600401611d659594939291906158f2565b6020604051808303816000875af1158015611d84573d6000803e3d6000fd5b505050506040513d601f19601f82011682018060405250810190611da89190614e6c565b9a50611e6d565b7f00000000000000000000000010167f103555f6509954818fd987156c8bf0739d6001600160a01b03166321df42e88c858c8e6000015160200151604051602001611dfa9190615492565b6040516020818303038152906040526040518563ffffffff1660e01b8152600401611e28949392919061595a565b6020604051808303816000875af1158015611e47573d6000803e3d6000fd5b505050506040513d601f19601f82011682018060405250810190611e6b9190614e6c565b505b8015611e9057611e8062278d0042614d1e565b60008c8152600160205260409020555b7f00000000000000000000000010167f103555f6509954818fd987156c8bf0739d6001600160a01b031663581781918c8c60000151600001518d60000151602001518e60000151606001516040518563ffffffff1660e01b8152600401611efa9493929190615999565b6020604051808303816000875af1158015611f19573d6000803e3d6000fd5b505050506040513d601f19601f82011682018060405250810190611f3d91906149ed565b5087516001600160a01b031615611f5857611f588b89612b96565b7f00000000000000000000000010167f103555f6509954818fd987156c8bf0739d6001600160a01b031663dd5f214a8c6000611f978e60400151612cf6565b6040518463ffffffff1660e01b8152600401611fb5939291906159d6565b600060405180830381600087803b158015611fcf57600080fd5b505af1158015611fe3573d6000803e3d6000fd5b50505050611ff18b8b612e34565b600060405180606001604052808c604001516001600160a01b031681526020018d81526020016120208e6123cf565b81525090507f00000000000000000000000010167f103555f6509954818fd987156c8bf0739d6001600160a01b031663f434c9146040518163ffffffff1660e01b8152600401602060405180830381865afa158015612083573d6000803e3d6000fd5b505050506040513d601f19601f820116820180604052508101906120a791906149ed565b6001600160a01b03166305d2912e30836040518363ffffffff1660e01b81526004016120d492919061544f565b600060405180830381600087803b1580156120ee57600080fd5b505af1158015612102573d6000803e3d6000fd5b5060009250600191506121129050565b60405190808252806020026020018201604052801561213b578160200160208202803683370190505b509050601b8160008151811061215357612153614d31565b60200260200101818152505060405180606001604052807f00000000000000000000000048e902c19165c0d4597b2f68d2dd98f6c2fb55f06001600160a01b031681526020018e81526020018281525091507f00000000000000000000000010167f103555f6509954818fd987156c8bf0739d6001600160a01b031663f434c9146040518163ffffffff1660e01b8152600401602060405180830381865afa158015612203573d6000803e3d6000fd5b505050506040513d601f19601f8201168201806040525081019061222791906149ed565b6001600160a01b03166305d2912e30846040518363ffffffff1660e01b815260040161225492919061544f565b600060405180830381600087803b15801561226e57600080fd5b505af1158015612282573d6000803e3d6000fd5b50505050602087015115612362577f00000000000000000000000048e902c19165c0d4597b2f68d2dd98f6c2fb55f06001600160a01b0316632f3f50e08e6122c86123c0565b878b602001516040516020016122e0939291906152be565b60408051601f198184030181529082905280516020909101208b516001600160e01b031960e086901b16835261231993926004016153c8565b6000604051808303816000875af1158015612338573d6000803e3d6000fd5b505050506040513d6000823e601f3d908101601f191682016040526123609190810190614d47565b505b8c7fabdf3ec8139195645b1e44778a910396624b7d2913c04b613f4800ad25d710468d8d8d8b8a8a8a6123936123c0565b6040516123a7989796959493929190615b8d565b60405180910390a2509a9b9a5050505050505050505050565b60006123ca613133565b905090565b60606000600380548060200260200160405190810160405280929190818152602001828054801561241f57602002820191906000526020600020905b81548152602001906001019080831161240b575b5050835160008881526004602090815260408083208054825181850281018501909352808352989950939792965094509192509083018282801561248257602002820191906000526020600020905b81548152602001906001019080831161246e575b505083519394506124999250839150859050614d1e565b67ffffffffffffffff8111156124b1576124b1613610565b6040519080825280602002602001820160405280156124da578160200160208202803683370190505b50945060005b83811015612527578481815181106124fa576124fa614d31565b602002602001015186828151811061251457612514614d31565b60209081029190910101526001016124e0565b5060005b8181101561257d5782818151811061254557612545614d31565b602002602001015186828661255a9190614d1e565b8151811061256a5761256a614d31565b602090810291909101015260010161252b565b5050505050919050565b805160008167ffffffffffffffff8111156125a4576125a4613610565b60405190808252806020026020018201604052801561261757816020015b6126046040518060c0016040528060006001600160a01b0316815260200160008152602001600081526020016000815260200160008152602001606081525090565b8152602001906001900390816125c25790505b50905061264c6040518060a0016040528060008152602001600081526020016000815260200160008152602001606081525090565b60005b838110156126e25784818151811061266957612669614d31565b602002602001015191506040518060c00160405280876001600160a01b031681526020018360000151815260200183602001518152602001836040015181526020018360600151815260200183608001518152508382815181106126cf576126cf614d31565b602090810291909101015260010161264f565b50835115612766576006546040517f9b9b7aa90000000000000000000000000000000000000000000000000000000081526001600160a01b0390911690639b9b7aa990612733908590600401615ce0565b600060405180830381600087803b15801561274d57600080fd5b505af1158015612761573d6000803e3d6000fd5b505050505b5050505050565b6060838101515181906000908067ffffffffffffffff81111561279257612792613610565b60405190808252806020026020018201604052801561288c57816020015b6128796040805161010080820183526000808352602080840182905283850182905260608085018390526080808601849052865161022081018852848152928301849052958201839052810182905293840181905260a084810182905260c0850182905260e0850182905291840181905261012084018190526101408401819052610160840181905261018084018190526101a084018190526101c084018190526101e08401819052610200840152909190820190815260200160608152602001606081525090565b8152602001906001900390816127b05790505b509350612898876131a8565b6040805160e08101825260008082526060602083018190529282018190529181018290526080810182905260a0810182905260c08101829052919450805b83811015612b8957896060015181815181106128f4576128f4614d31565b6020026020010151925081836000015164ffffffffff1611612942576040517f0aec2d6900000000000000000000000000000000000000000000000000000000815260040160405180910390fd5b826000015164ffffffffff1687828151811061296057612960614d31565b60200260200101516000018181525050826080015164ffffffffff1687828151811061298e5761298e614d31565b6020026020010151602001818152505082606001516dffffffffffffffffffffffffffff168782815181106129c5576129c5614d31565b602002602001015160400181815250508260a0015163ffffffff168782815181106129f2576129f2614d31565b602002602001015160600181815250506000878281518110612a1657612a16614d31565b6020026020010151608001906001600160a01b031690816001600160a01b031681525050604051806102200160405280846040015161ffff1681526020018460c0015161ffff16612710612a6a9190615d8a565b815260208c81015163ffffffff16908201526000604082018190526060820181905260016080830181905260a0830182905260c0830182905260e0830182905261010083018290526101208301829052610140830182905261016083018290526101808301526101a08201526001600160a01b038b166101c08201526101e0018990528751889083908110612b0157612b01614d31565b602002602001015160a00181905250806000148015612b275750825164ffffffffff1615155b8015612b3d575042836000015164ffffffffff16105b15612b4757600194505b85612b5284836131e2565b604051602001612b63929190615d9d565b60408051601f19818403018152919052835190965064ffffffffff1691506001016128d6565b5050505093509350939050565b602081810151516040805160808101825260008082529381018490529081018390526060810183905290915b82811015612cb55783602001518181518110612be057612be0614d31565b6020908102919091018101518551918101516040808301516060840151845192517f7b621d3a000000000000000000000000000000000000000000000000000000008152600481018c905262ffffff909416602485015263ffffffff91821660448501521660648301526001600160a01b039081166084830152919450911690637b621d3a9060a4016020604051808303816000875af1158015612c88573d6000803e3d6000fd5b505050506040513d601f19601f82011682018060405250810190612cac91906149ed565b50600101612bc2565b50509051600092835260208390526040909220805473ffffffffffffffffffffffffffffffffffffffff19166001600160a01b039093169290921790915550565b604080516001808252818301909252606091816020015b604080518082019091526000815260606020820152815260200190600190039081612d0d57505060408051600180825281830190925291925060009190602082015b6040805160c08101825260008082526020808301829052928201819052606082018190526080820181905260a08201528252600019909201910181612d4f5790505090506040518060c00160405280600015158152602001633b9aca00815260200160008152602001846001600160a01b031681526020016000815260200160006001600160a01b031681525081600081518110612def57612def614d31565b60200260200101819052506040518060400160405280600181526020018281525082600081518110612e2357612e23614d31565b602002602001018190525050919050565b606080820151516040805160e0810182526000808252602082018590529181018290529283018190526080830181905260a0830181905260c08301529060005b828110156127665783606001518181518110612e9257612e92614d31565b6020026020010151915060008260200151519050612ed36040518060600160405280600081526020016000815260200160006001600160a01b031681525090565b60005b828110156131285784602001518181518110612ef457612ef4614d31565b602002602001015191504682600001510361312057831580612f21575042856000015164ffffffffff1611155b1561304e57602082015160408084015190516363fdc96f60e11b8152600481018b905260248101929092526001600160a01b03908116604483015260a06064830152600060a4830181905260848301527f00000000000000000000000010167f103555f6509954818fd987156c8bf0739d169063c7fb92de9060c4016020604051808303816000875af1158015612fbc573d6000803e3d6000fd5b505050506040513d601f19601f82011682018060405250810190612fe09190614e6c565b5060408201516001600160a01b0316612ff98542614d1e565b897f598baf7bf150ca2f42be9e9f8f55e81d45f5715c3ff22bf46d697fabec7f31d68560200151336040516130419291909182526001600160a01b0316602082015260400190565b60405180910390a4613120565b60208083015160008a8152600290925260408220909161306e8742614d1e565b8152602001908152602001600020600084604001516001600160a01b03166001600160a01b0316815260200190815260200160002060008282546130b29190614d1e565b909155505060408201516001600160a01b03166130cf8542614d1e565b897f9e83979117d75aa75fe101361cf46235d3d0a6fa7afafb275d2b9f8af02273138560200151336040516131179291909182526001600160a01b0316602082015260400190565b60405180910390a45b600101612ed6565b505050600101612e74565b6000366014336001600160a01b037f000000000000000000000000b2b5841dbef766d4b521221732f9b618fcf34a87161480156131705750808210155b156131a0576000366131828385615d8a565b61318d928290615dcc565b61319691615df6565b60601c9250505090565b339250505090565b602080820151825180518184015160609283015160405193956131cc959401615e29565b6040516020818303038152906040529050919050565b6060811580156131f85750825164ffffffffff16155b61320a57825164ffffffffff1661320c565b425b6040808501516060860151608087015160a088015160c0890151945161327d96959060200195865261ffff94851660208701526dffffffffffffffffffffffffffff93909316604086015264ffffffffff91909116606085015263ffffffff1660808401521660a082015260c00190565b60408051601f1981840301815291905260208401515190915060005b818110156132f357826132c8866020015183815181106132bb576132bb614d31565b60200260200101516132fb565b6040516020016132d9929190615d9d565b60408051601f198184030181529190529250600101613299565b505092915050565b60608160000151826040015183602001516040516020016131cc939291909283526001600160a01b03919091166020830152604082015260600190565b60006020828403121561334a57600080fd5b81356001600160e01b03198116811461336257600080fd5b9392505050565b6001600160a01b038116811461337e57600080fd5b50565b803561338c81613369565b919050565b6000806000806000608086880312156133a957600080fd5b85356133b481613369565b945060208601356133c481613369565b935060408601359250606086013567ffffffffffffffff808211156133e857600080fd5b818801915088601f8301126133fc57600080fd5b81358181111561340b57600080fd5b89602082850101111561341d57600080fd5b9699959850939650602001949392505050565b60006020828403121561344257600080fd5b5035919050565b60006020828403121561345b57600080fd5b813567ffffffffffffffff81111561347257600080fd5b8201610180818503121561336257600080fd5b60005b838110156134a0578181015183820152602001613488565b50506000910152565b600081518084526134c1816020860160208601613485565b601f01601f19169290920160200192915050565b600082825180855260208086019550808260051b84010181860160005b8481101561354957858303601f19018952815180516001600160a01b031684528481015185850152604090810151606091850182905290613535818601836134a9565b9a86019a94505050908301906001016134f2565b5090979650505050505050565b82815260406020820152600061356f60408301846134d5565b949350505050565b60006020828403121561358957600080fd5b813561336281613369565b6000806000606084860312156135a957600080fd5b833592506020840135915060408401356135c281613369565b809150509250925092565b60208152600061336260208301846134d5565b600080604083850312156135f357600080fd5b82359150602083013561360581613369565b809150509250929050565b634e487b7160e01b600052604160045260246000fd5b6040516060810167ffffffffffffffff8111828210171561364957613649613610565b60405290565b60405160e0810167ffffffffffffffff8111828210171561364957613649613610565b6040516080810167ffffffffffffffff8111828210171561364957613649613610565b6040805190810167ffffffffffffffff8111828210171561364957613649613610565b604051610180810167ffffffffffffffff8111828210171561364957613649613610565b604051610120810167ffffffffffffffff8111828210171561364957613649613610565b60405160a0810167ffffffffffffffff8111828210171561364957613649613610565b604051601f8201601f1916810167ffffffffffffffff8111828210171561374c5761374c613610565b604052919050565b600067ffffffffffffffff82111561376e5761376e613610565b50601f01601f191660200190565b600082601f83011261378d57600080fd5b81356137a061379b82613754565b613723565b8181528460208386010111156137b557600080fd5b816020850160208301376000918101602001919091529392505050565b803563ffffffff8116811461338c57600080fd5b600067ffffffffffffffff82111561380057613800613610565b5060051b60200190565b803564ffffffffff8116811461338c57600080fd5b600082601f83011261383057600080fd5b8135602061384061379b836137e6565b8281526060928302850182019282820191908785111561385f57600080fd5b8387015b858110156135495781818a03121561387b5760008081fd5b613883613626565b81358152858201358682015260408083013561389e81613369565b908201528452928401928101613863565b803561ffff8116811461338c57600080fd5b80356dffffffffffffffffffffffffffff8116811461338c57600080fd5b600082601f8301126138f057600080fd5b8135602061390061379b836137e6565b82815260059290921b8401810191818101908684111561391f57600080fd5b8286015b84811015613a0157803567ffffffffffffffff808211156139445760008081fd5b9088019060e0828b03601f190181131561395e5760008081fd5b61396661364f565b61397188850161380a565b8152604080850135848111156139875760008081fd5b6139958e8b8389010161381f565b8a84015250606093506139a98486016138af565b9082015260806139ba8582016138c1565b8483015260a093506139cd84860161380a565b9082015260c06139de8582016137d2565b848301526139ed8386016138af565b908201528652505050918301918301613923565b509695505050505050565b600060808284031215613a1e57600080fd5b613a26613672565b9050813567ffffffffffffffff80821115613a4057600080fd5b9083019060808286031215613a5457600080fd5b613a5c613672565b823582811115613a6b57600080fd5b613a778782860161377c565b825250602083013582811115613a8c57600080fd5b613a988782860161377c565b602083015250604083013582811115613ab057600080fd5b613abc8782860161377c565b604083015250606083810135908201528352613ada602085016137d2565b6020840152613aeb60408501613381565b60408401526060840135915080821115613b0457600080fd5b50613b11848285016138df565b60608301525092915050565b600082601f830112613b2e57600080fd5b81356020613b3e61379b836137e6565b8083825260208201915060208460051b870101935086841115613b6057600080fd5b602086015b84811015613a01578035613b7881613369565b8352918301918301613b65565b600082601f830112613b9657600080fd5b81356020613ba661379b836137e6565b82815260059290921b84018101918181019086841115613bc557600080fd5b8286015b84811015613a0157803567ffffffffffffffff80821115613bea5760008081fd5b908801906040828b03601f1901811315613c045760008081fd5b613c0c613695565b87840135613c1981613369565b8152908301359082821115613c2e5760008081fd5b613c3c8c8984870101613b1d565b818901528652505050918301918301613bc9565b803562ffffff8116811461338c57600080fd5b60006040808385031215613c7657600080fd5b613c7e613695565b91508235613c8b81613369565b825260208381013567ffffffffffffffff811115613ca857600080fd5b8401601f81018613613cb957600080fd5b8035613cc761379b826137e6565b81815260079190911b82018301908381019088831115613ce657600080fd5b928401925b82841015613d5a576080848a031215613d045760008081fd5b613d0c613672565b8435613d1781613369565b8152613d24858701613c50565b86820152613d338786016137d2565b878201526060613d448187016137d2565b9082015282526080939093019290840190613ceb565b808588015250505050505092915050565b600060408284031215613d7d57600080fd5b613d85613695565b905067ffffffffffffffff8083351115613d9e57600080fd5b8235830184601f820112613db157600080fd5b613dbe61379b82356137e6565b81358082526020808301929160051b84010187811115613ddd57600080fd5b602084015b81811015613f22578581351115613df857600080fd5b803585016040818b03601f19011215613e1057600080fd5b613e18613695565b613e256020830135613369565b602082013581528760408301351115613e3d57600080fd5b6040820135820191508a603f830112613e5557600080fd5b6020820135613e6661379b826137e6565b81815260079190911b83016040019060208101908d831115613e8757600080fd5b6040850194505b82851015613f03576080858f031215613ea657600080fd5b613eae613672565b613eb88635613369565b85358152613ec8602087016137d2565b6020820152613eda6040870135613369565b604086013560408201526060860135606082015280835250602082019150608085019450613e8e565b8060208501525050508086525050602084019350602081019050613de2565b5050808552505050506020820135602082015292915050565b600080600080600060a08688031215613f5357600080fd5b85359450602086013567ffffffffffffffff80821115613f7257600080fd5b613f7e89838a01613a0c565b95506040880135915080821115613f9457600080fd5b613fa089838a01613b85565b94506060880135915080821115613fb657600080fd5b613fc289838a01613c63565b93506080880135915080821115613fd857600080fd5b50613fe588828901613d6b565b9150509295509295909350565b600082601f83011261400357600080fd5b8135602061401361379b836137e6565b82815260059290921b8401810191818101908684111561403257600080fd5b8286015b84811015613a0157803567ffffffffffffffff808211156140575760008081fd5b908801906060828b03601f19018113156140715760008081fd5b614079613626565b8784013561408681613369565b8152604084810135898301529184013591838311156140a55760008081fd5b6140b38d8a8588010161377c565b908201528652505050918301918301614036565b600080600080600080600060e0888a0312156140e257600080fd5b87359650602088013567ffffffffffffffff8082111561410157600080fd5b61410d8b838c01613a0c565b975060408a013591508082111561412357600080fd5b61412f8b838c01613b85565b965060608a013591508082111561414557600080fd5b6141518b838c01613c63565b955060808a013591508082111561416757600080fd5b6141738b838c01613d6b565b945060a08a013591508082111561418957600080fd5b506141968a828b01613ff2565b9250506141a560c089016138af565b905092959891949750929550565b80356cffffffffffffffffffffffffff8116811461338c57600080fd5b801515811461337e57600080fd5b803561338c816141d0565b803560ff8116811461338c57600080fd5b6000608080838503121561420d57600080fd5b614215613672565b9150823567ffffffffffffffff81111561422e57600080fd5b8301601f8101851361423f57600080fd5b8035602061424f61379b836137e6565b828152610180928302840182019282820191908985111561426f57600080fd5b948301945b848610156143625780868b03121561428c5760008081fd5b6142946136b8565b61429d876141b3565b81526142aa8588016137d2565b8582015260406142bb8189016137d2565b9082015260606142cc8882016138af565b908201526142db878901613381565b8189015260a0878101359082015260c06142f6818901613c50565b9082015260e06143078882016141de565b908201526101006143198882016141de565b9082015261012061432b8882016141de565b9082015261014061433d8882016141de565b9082015261016061434f8882016141de565b9082015283529485019491830191614274565b508652506143718682016137d2565b8186015250505050614385604083016141e9565b604082015261439660608301613381565b606082015292915050565b6000608082840312156143b357600080fd5b6143bb613672565b905081356143c8816141d0565b815260208201356143d8816141d0565b602082015260408201356143eb816141d0565b60408201526060820135614396816141d0565b60006080828403121561441057600080fd5b614418613672565b9050813567ffffffffffffffff8082111561443257600080fd5b90830190610180828603121561444757600080fd5b61444f6136dc565b82358281111561445e57600080fd5b61446a8782860161377c565b82525060208301358281111561447f57600080fd5b61448b8782860161377c565b60208301525061449d60408401613381565b60408201526060830135828111156144b457600080fd5b6144c08782860161377c565b6060830152506144d260808401613381565b608082015260a0830135828111156144e957600080fd5b6144f58782860161377c565b60a08301525060c08301358281111561450d57600080fd5b614519878286016141fa565b60c08301525061452b60e08401613381565b60e08201526101009150614541868385016143a1565b82820152808452505050614557602083016141de565b6020820152614568604083016141de565b6040820152614396606083016141de565b600080600080600080600080610100898b03121561459657600080fd5b88359750602089013567ffffffffffffffff808211156145b557600080fd5b6145c18c838d01613a0c565b985060408b01359150808211156145d757600080fd5b6145e38c838d01613b85565b975060608b01359150808211156145f957600080fd5b6146058c838d01613c63565b965060808b013591508082111561461b57600080fd5b6146278c838d01613d6b565b955060a08b013591508082111561463d57600080fd5b6146498c838d016143fe565b945060c08b013591508082111561465f57600080fd5b5061466c8b828c01613ff2565b92505061467b60e08a016138af565b90509295985092959890939650565b60006020828403121561469c57600080fd5b813567ffffffffffffffff8111156146b357600080fd5b82016101a0818503121561336257600080fd5b60006080820186835260208681850152604086604086015260606080606087015283875180865260a08801915060a08160051b890101955084890160005b8281101561475457898803609f19018452815180516001600160a01b0316895287810151888a0152860151868901869052614741868a01826134a9565b9850509286019290860190600101614704565b50959c9b505050505050505050505050565b60008060006060848603121561477b57600080fd5b83359250602084013567ffffffffffffffff8082111561479a57600080fd5b6147a68783880161377c565b935060408601359150808211156147bc57600080fd5b506147c986828701613d6b565b9150509250925092565b600082601f8301126147e457600080fd5b813560206147f461379b836137e6565b82815260059290921b8401810191818101908684111561481357600080fd5b8286015b84811015613a0157803567ffffffffffffffff808211156148385760008081fd5b9088019060a0828b03601f19018113156148525760008081fd5b61485a613700565b878401358152604080850135898301526060808601358284015260809150818601358184015250828501359250838311156148955760008081fd5b6148a38d8a85880101613b1d565b908201528652505050918301918301614817565b60008060008060008060008060006101208a8c0312156148d657600080fd5b8935985060208a013567ffffffffffffffff808211156148f557600080fd5b6149018d838e01613a0c565b995060408c013591508082111561491757600080fd5b6149238d838e01613b85565b985060608c013591508082111561493957600080fd5b6149458d838e01613c63565b975060808c013591508082111561495b57600080fd5b6149678d838e01613d6b565b965060a08c013591508082111561497d57600080fd5b6149898d838e016143fe565b955060c08c013591508082111561499f57600080fd5b6149ab8d838e01613ff2565b94506149b960e08d016138af565b93506101008c01359150808211156149d057600080fd5b506149dd8c828d016147d3565b9150509295985092959850929598565b6000602082840312156149ff57600080fd5b815161336281613369565b8035614a1581613369565b6001600160a01b031682526020818101359083015260408082013590830152606090810135910152565b6000808335601e19843603018112614a5657600080fd5b830160208101925035905067ffffffffffffffff811115614a7657600080fd5b803603821315614a8557600080fd5b9250929050565b81835281816020850137506000828201602090810191909152601f909101601f19169091010190565b60208152614ad660208201614ac984613381565b6001600160a01b03169052565b6000614ae460208401613381565b6001600160a01b038116604084015250614b046060830160408501614a0a565b60c083013560e083015261010060e084013581840152614b25818501613381565b9050610120614b3e818501836001600160a01b03169052565b61014091508085013582850152506101608185013581850152614b6381860186614a3f565b6101808681015292509050614b7d6101a085018383614a8c565b95945050505050565b6000806040808486031215614b9a57600080fd5b8351925060208085015167ffffffffffffffff80821115614bba57600080fd5b818701915087601f830112614bce57600080fd5b8151614bdc61379b826137e6565b81815260059190911b8301840190848101908a831115614bfb57600080fd5b8585015b83811015614cbc57805185811115614c1657600080fd5b86016060818e03601f19011215614c2d5760008081fd5b614c35613626565b88820151614c4281613369565b8152818a015189820152606082015187811115614c5f5760008081fd5b8083019250508d603f830112614c755760008081fd5b88820151614c8561379b82613754565b8181528f8c838601011115614c9a5760008081fd5b614ca9828c83018e8701613485565b828c015250845250918601918601614bff565b50809750505050505050509250929050565b600181811c90821680614ce257607f821691505b602082108103614d0257634e487b7160e01b600052602260045260246000fd5b50919050565b634e487b7160e01b600052601160045260246000fd5b808201808211156104fc576104fc614d08565b634e487b7160e01b600052603260045260246000fd5b60006020808385031215614d5a57600080fd5b825167ffffffffffffffff811115614d7157600080fd5b8301601f81018513614d8257600080fd5b8051614d9061379b826137e6565b81815260059190911b82018301908381019087831115614daf57600080fd5b928401925b82841015614dd6578351614dc781613369565b82529284019290840190614db4565b979650505050505050565b805161338c81613369565b60006101208284031215614dff57600080fd5b614e076136dc565b825181526020830151602082015260408301516040820152606083015160608201526080830151608082015260a083015160a082015260c083015160c0820152614e5360e08401614de1565b60e0820152610100928301519281019290925250919050565b600060208284031215614e7e57600080fd5b5051919050565b601f821115614ed1576000816000526020600020601f850160051c81016020861015614eae5750805b601f850160051c820191505b81811015614ecd57828155600101614eba565b5050505b505050565b815167ffffffffffffffff811115614ef057614ef0613610565b614f0481614efe8454614cce565b84614e85565b602080601f831160018114614f395760008415614f215750858301515b600019600386901b1c1916600185901b178555614ecd565b600085815260208120601f198616915b82811015614f6857888601518255948401946001909101908401614f49565b5085821015614f865787850151600019600388901b60f8161c191681555b5050505050600190811b01905550565b604081526000614fa960408301856134d5565b90506001600160a01b03831660208301529392505050565b80516080808452815184820181905260009260a0916020918201918388019190865b828110156150a657845180516cffffffffffffffffffffffffff1685528281015163ffffffff908116848701526040808301519091169086015260608082015161ffff1690860152878101516001600160a01b031688860152868101518786015260c08082015162ffffff169086015260e080820151151590860152610100808201511515908601526101208082015115159086015261014080820151151590860152610160908101511515908501529381019361018090930192600101614fe3565b508781015163ffffffff16908901525060408087015160ff16908801526060808701516001600160a01b038116918901919091529350610e05565b828152604060208201526000825161018060408401526151056101c08401826134a9565b90506020840151603f198085840301606086015261512383836134a9565b92506040860151915061514160808601836001600160a01b03169052565b60608601519150808584030160a086015261515c83836134a9565b92506080860151915061517a60c08601836001600160a01b03169052565b60a08601519150808584030160e086015261519583836134a9565b925060c086015191506101008186850301818701526151b48484614fc1565b935060e087015192506151d36101208701846001600160a01b03169052565b860151805115156101408701526020810151151561016087015260408101511515610180870152606081015115156101a087015291506152109050565b50949350505050565b60006020828403121561522b57600080fd5b8151613362816141d0565b60008151808452602080850194506020840160005b838110156152675781518752958201959082019060010161524b565b509495945050505050565b60006001600160a01b03808916835280881660208401525085604083015260c060608301526152a460c0830186615236565b93151560808301525090151560a090910152949350505050565b6bffffffffffffffffffffffff198460601b168152600083516152e8816014850160208801613485565b60149201918201929092526034019392505050565b600082825180855260208086019550808260051b8401018186016000805b858110156153ba57868403601f19018a52825180516001600160a01b03908116865290860151604087870181905281518188018190529188019290916060919082890190875b818110156153a25786518051851684528c81015163ffffffff168d8501528681015185168785015285015185840152958b0195608090920191600101615361565b50509d89019d9750505093860193505060010161531b565b509198975050505050505050565b838152826020820152606060408201526000614b7d60608301846152fd565b60008151604084526153fc60408501826152fd565b602093840151949093019390935250919050565b60608152600061542360608301866134a9565b828103602084015261543581866153e7565b9150506001600160a01b0383166040830152949350505050565b60006001600160a01b038085168352604060208401528084511660408401525060208301516060830152604083015160606080840152614b7d60a0840182615236565b7f24000000000000000000000000000000000000000000000000000000000000008152600082516154ca816001850160208701613485565b7f207265766e6574206465706c6f796564000000000000000000000000000000006001939091019283015250601101919050565b8051825260208101516020830152604081015160408301526060810151615529606084018215159052565b50608081015161553d608084018215159052565b5060a081015161555160a084018215159052565b5060c081015161556560c084018215159052565b5060e081015161557960e084018215159052565b5061010081810151151590830152610120808201511515908301526101408082015115159083015261016080820151151590830152610180808201511515908301526101a0808201511515908301526101c0808201511515908301526101e0808201516001600160a01b03169083015261020090810151910152565b600082825180855260208086019550808260051b8401018186016000805b858110156153ba57868403601f19018a52825180518552850151604086860181905281518187018190529187019160609081880190865b818110156156a45785518051151584528b8101518c8501528581015186850152848101516001600160a01b03908116868601526080808301519086015260a0918201511690840152948a019460c09092019160010161564a565b50509c88019c965050509285019250600101615613565b60008151808452602080850194506020840160005b838110156152675781518051885283015183880152604090960195908201906001016156d0565b600082825180855260208086019550808260051b84010181860160005b8481101561354957601f19868403018952815160806001600160a01b0380835116865280878401511687870152506040808301518282880152615759838801826156bb565b925050506060808301519250858203818701525061577781836156bb565b9a86019a9450505090830190600101615714565b600082825180855260208086019550808260051b84010181860160005b8481101561354957858303601f19018952815180518452848101518585015260408082015190850152606080820151908501526080808201516001600160a01b03169085015260a0808201516103009190615805828801826154fe565b505060c0820151816102c087015261581f828701826155f5565b91505060e082015191508481036102e086015261583c81836156f7565b9a86019a94505050908301906001016157a8565b60008151808452602080850194506020840160005b838110156152675781516001600160a01b031687529582019590820190600101615865565b600082825180855260208086019550808260051b84010181860160005b8481101561354957858303601f19018952815180516001600160a01b0316845284015160408585018190526158de81860183615850565b9a86019a94505050908301906001016158a7565b6001600160a01b038616815260a06020820152600061591460a08301876134a9565b8281036040840152615926818761578b565b9050828103606084015261593a818661588a565b9050828103608084015261594e81856134a9565b98975050505050505050565b848152608060208201526000615973608083018661578b565b8281036040840152615985818661588a565b90508281036060840152614dd681856134a9565b8481526080602082015260006159b260808301866134a9565b82810360408401526159c481866134a9565b91505082606083015295945050505050565b838152826020820152606060408201526000614b7d60608301846155f5565b600082825180855260208086019550808260051b8401018186016000805b858110156153ba57868403601f19018a528251805164ffffffffff1685528581015160e0878701819052815190870181905261010087019188019085905b80821015615a90578251805185528a8101518b8601526040908101516001600160a01b0316908501526060909301929189019160019190910190615a51565b50505060408281015161ffff908116918801919091526060808401516dffffffffffffffffffffffffffff169088015260808084015164ffffffffff169088015260a08084015163ffffffff169088015260c0928301511691909501529884019891840191600101615a13565b600060408084016001600160a01b038085511686526020808601516040828901528381518086526060955060608a019150838301925060005b81811015615b7e5783518051871684528581015162ffffff16868501528881015163ffffffff9081168a86015290880151168784015292840192608090920191600101615b36565b50909998505050505050505050565b60006101008083528a51608082850152805191506080610180850152615bb76102008501836134a9565b9150602081015161017f1980868503016101a0870152615bd784836134a9565b93506040830151915080868503016101c087015250615bf683826134a9565b92505060608101516101e08501525060208b0151615c1d61012085018263ffffffff169052565b5060408b01516001600160a01b031661014084015260608b015183820360ff1901610160850152615c4e82826159f5565b9150508281036020840152615c63818b61588a565b90508281036040840152615c77818a615afd565b90508281036060840152615c8b81896153e7565b90508281036080840152615c9f818861578b565b905082810360a0840152615cb381876134a9565b915050615cc460c083018515159052565b6001600160a01b03831660e08301529998505050505050505050565b600060208083018184528085518083526040925060408601915060408160051b87010184880160005b83811015615d7c57888303603f19018552815180516001600160a01b0316845287810151888501528681015187850152606080820151908501526080808201519085015260a09081015160c091850182905290615d6881860183615850565b968901969450505090860190600101615d09565b509098975050505050505050565b818103818111156104fc576104fc614d08565b60008351615daf818460208801613485565b835190830190615dc3818360208801613485565b01949350505050565b60008085851115615ddc57600080fd5b83861115615de957600080fd5b5050820193919092039150565b6bffffffffffffffffffffffff1981358181169160148510156132f35760149490940360031b84901b1690921692915050565b63ffffffff851681526080602082015260006159b260808301866134a956fea26469706673582212203b7d40f16a940ace10a6e8b251df0b544fa375a92ac8ecad4427ab26df87b67264736f6c63430008170033",
	"devdoc": {
		"kind": "dev",
		"methods": {
			"beforePayRecordedWith((address,address,(address,uint256,uint256,uint256),uint256,uint256,address,uint256,uint256,bytes))": {
				"details": "Part of IJBFundingCycleDataSource.This implementation just sets this contract up to receive a `didPay` call.",
				"params": {
					"context": "The Juicebox standard network payment context. See"
				},
				"returns": {
					"hookSpecifications": "Amount to be sent to pay hooks instead of adding to local balance. Useful for auto-routing funds from a treasury as payment come in.",
					"weight": "The weight that network tokens should get minted relative to. This is useful for optionally customizing how many tokens are issued per payment."
				}
			},
			"constructor": {
				"params": {
					"controller": "The controller that revnets are made from.",
					"hookDeployer": "The 721 tiers hook deployer.",
					"publisher": "The croptop publisher that facilitates the permissioned publishing of 721 posts to a revnet.",
					"suckerRegistry": "The registry that deploys and tracks each project's suckers.",
					"trustedForwarder": "The trusted forwarder for the ERC2771Context."
				}
			},
			"deploySuckersFor(uint256,bytes,((address,(address,uint32,address,uint256)[])[],bytes32))": {
				"params": {
					"encodedConfiguration": "A bytes representation of the revnet's configuration.",
					"revnetId": "The ID of the revnet having new suckers deployed.",
					"suckerDeploymentConfiguration": "The specifics about the suckers being deployed."
				}
			},
			"hasMintPermissionFor(uint256,address)": {
				"params": {
					"addr": "The address to check if has permissions.",
					"revnetId": "The ID of the revnet to check permissions for."
				},
				"returns": {
					"_0": "flag The flag indicating if the address has permissions to mint on the revnet's behalf."
				}
			},
			"isTrustedForwarder(address)": {
				"details": "Indicates whether any particular address is the trusted forwarder."
			},
			"launchCroptopRevnetFor(uint256,((string,string,string,bytes32),uint32,address,(uint40,(uint256,uint256,address)[],uint16,uint112,uint40,uint32,uint16)[]),(address,address[])[],(address,(address,uint24,uint32,uint32)[]),((address,(address,uint32,address,uint256)[])[],bytes32),((string,string,address,string,address,string,((uint104,uint32,uint32,uint16,address,bytes32,uint24,bool,bool,bool,bool,bool)[],uint32,uint8,address),address,(bool,bool,bool,bool)),bool,bool,bool),(address,uint256,bytes)[],uint16,(uint256,uint256,uint256,uint256,address[])[])": {
				"params": {
					"allowedPosts": "The type of posts that the revent should allow.",
					"buybackHookConfiguration": "Data used for setting up the buyback hook to use when determining the best price for new participants.",
					"configuration": "The data needed to deploy a basic revnet.",
					"extraHookMetadata": "Extra metadata to attach to the cycle for the delegates to use.",
					"hookConfiguration": "Data used for setting up the 721 tiers.",
					"otherPayHooksSpecifications": "Any hooks that should run when the revnet is paid alongside the 721 hook.",
					"revnetId": "The ID of the Juicebox project to turn into a revnet. Send 0 to deploy a new revnet.",
					"suckerDeploymentConfiguration": "Information about how this revnet relates to other's across chains.",
					"terminalConfigurations": "The terminals that the network uses to accept payments through."
				},
				"returns": {
					"_0": "revnetId The ID of the newly created revnet.",
					"hook": "The address of the 721 hook that was deployed on the revnet."
				}
			},
			"launchPayHookRevnetFor(uint256,((string,string,string,bytes32),uint32,address,(uint40,(uint256,uint256,address)[],uint16,uint112,uint40,uint32,uint16)[]),(address,address[])[],(address,(address,uint24,uint32,uint32)[]),((address,(address,uint32,address,uint256)[])[],bytes32),(address,uint256,bytes)[],uint16)": {
				"params": {
					"buybackHookConfiguration": "Data used for setting up the buyback hook to use when determining the best price for new participants.",
					"configuration": "The data needed to deploy a basic revnet.",
					"extraHookMetadata": "Extra metadata to attach to the cycle for the delegates to use.",
					"payHookSpecifications": "Any hooks that should run when the revnet is paid.",
					"revnetId": "The ID of the Juicebox project to turn into a revnet. Send 0 to deploy a new revnet.",
					"suckerDeploymentConfiguration": "Information about how this revnet relates to other's across chains.",
					"terminalConfigurations": "The terminals that the network uses to accept payments through."
				},
				"returns": {
					"_0": "revnetId The ID of the newly created revnet."
				}
			},
			"launchRevnetFor(uint256,((string,string,string,bytes32),uint32,address,(uint40,(uint256,uint256,address)[],uint16,uint112,uint40,uint32,uint16)[]),(address,address[])[],(address,(address,uint24,uint32,uint32)[]),((address,(address,uint32,address,uint256)[])[],bytes32))": {
				"params": {
					"buybackHookConfiguration": "Data used for setting up the buyback hook to use when determining the best price for new participants.",
					"configuration": "The data needed to deploy a basic revnet.",
					"revnetId": "The ID of the Juicebox project to turn into a revnet. Send 0 to deploy a new revnet.",
					"suckerDeploymentConfiguration": "Information about how this revnet relates to other's across chains.",
					"terminalConfigurations": "The terminals that the network uses to accept payments through."
				},
				"returns": {
					"_0": "revnetId The ID of the newly created revnet."
				}
			},
			"launchTiered721RevnetFor(uint256,((string,string,string,bytes32),uint32,address,(uint40,(uint256,uint256,address)[],uint16,uint112,uint40,uint32,uint16)[]),(address,address[])[],(address,(address,uint24,uint32,uint32)[]),((address,(address,uint32,address,uint256)[])[],bytes32),((string,string,address,string,address,string,((uint104,uint32,uint32,uint16,address,bytes32,uint24,bool,bool,bool,bool,bool)[],uint32,uint8,address),address,(bool,bool,bool,bool)),bool,bool,bool),(address,uint256,bytes)[],uint16)": {
				"params": {
					"buybackHookConfiguration": "Data used for setting up the buyback hook to use when determining the best price for new participants.",
					"configuration": "The data needed to deploy a basic revnet.",
					"extraHookMetadata": "Extra metadata to attach to the cycle for the delegates to use.",
					"hookConfiguration": "Data used for setting up the 721 tiers.",
					"otherPayHooksSpecifications": "Any hooks that should run when the revnet is paid alongside the 721 hook.",
					"revnetId": "The ID of the Juicebox project to turn into a revnet. Send 0 to deploy a new revnet.",
					"suckerDeploymentConfiguration": "Information about how this revnet relates to other's across chains.",
					"terminalConfigurations": "The terminals that the network uses to accept payments through."
				},
				"returns": {
					"_0": "revnetId The ID of the newly created revnet.",
					"hook": "The address of the 721 hook that was deployed on the revnet."
				}
			},
			"mintFor(uint256,uint256,address)": {
				"params": {
					"beneficiary": "The address to mint tokens to.",
					"revnetId": "The ID of the revnet to mint tokens from.",
					"stageId": "The ID of the stage to mint tokens from."
				}
			},
			"onERC721Received(address,address,uint256,bytes)": {
				"details": "Make sure only mints can be received."
			},
			"payHookSpecificationsOf(uint256)": {
				"params": {
					"revnetId": "The ID of the revnet to which the extensions apply."
				},
				"returns": {
					"_0": "payHookSpecifications The pay hooks."
				}
			},
			"replaceSplitOperatorOf(uint256,address)": {
				"params": {
					"newSplitOperator": "The address of the new split operator.",
					"revnetId": "The ID of the revnet having its operator replaced."
				}
			},
			"supportsInterface(bytes4)": {
				"details": "See {IERC165-supportsInterface}.",
				"params": {
					"interfaceId": "The ID of the interface to check for adherence to."
				},
				"returns": {
					"_0": "A flag indicating if the provided interface ID is supported."
				}
			},
			"trustedForwarder()": {
				"details": "Returns the address of the trusted forwarder."
			}
		},
		"version": 1
	},
	"userdoc": {
		"kind": "user",
		"methods": {
			"CONTROLLER()": {
				"notice": "The controller that networks are made from."
			},
			"EXIT_DELAY()": {
				"notice": "The amount of time from a sucker being deployed to when it can facilitate exits."
			},
			"HOOK_DEPLOYER()": {
				"notice": "The contract responsible for deploying the tiered 721 hook."
			},
			"PUBLISHER()": {
				"notice": "The croptop publisher that facilitates the permissioned publishing of 721 posts to a revnet."
			},
			"SUCKER_REGISTRY()": {
				"notice": "The registry that deploys and tracks each project's suckers."
			},
			"allowedMintCountOf(uint256,uint256,address)": {
				"notice": "The specification of how many tokens are still allowed to be minted at each stage of a revnet."
			},
			"beforePayRecordedWith((address,address,(address,uint256,uint256,uint256),uint256,uint256,address,uint256,uint256,bytes))": {
				"notice": "This function gets called when the revnet receives a payment."
			},
			"beforeRedeemRecordedWith((address,address,uint256,uint256,uint256,uint256,(address,uint256,uint256,uint256),bool,uint256,bytes))": {
				"notice": "This function is never called, it needs to be included to adhere to the interface."
			},
			"buybackHookOf(uint256)": {
				"notice": "The data hook that returns the correct values for the buyback hook of each network."
			},
			"deploySuckersFor(uint256,bytes,((address,(address,uint32,address,uint256)[])[],bytes32))": {
				"notice": "Allows a revnet's split operator to deploy new suckers to the revnet after it's deployed."
			},
			"exitDelayOf(uint256)": {
				"notice": "The time at which exits from a revnet become allowed."
			},
			"hasMintPermissionFor(uint256,address)": {
				"notice": "Required by the IJBRulesetDataHook interfaces."
			},
			"launchCroptopRevnetFor(uint256,((string,string,string,bytes32),uint32,address,(uint40,(uint256,uint256,address)[],uint16,uint112,uint40,uint32,uint16)[]),(address,address[])[],(address,(address,uint24,uint32,uint32)[]),((address,(address,uint32,address,uint256)[])[],bytes32),((string,string,address,string,address,string,((uint104,uint32,uint32,uint16,address,bytes32,uint24,bool,bool,bool,bool,bool)[],uint32,uint8,address),address,(bool,bool,bool,bool)),bool,bool,bool),(address,uint256,bytes)[],uint16,(uint256,uint256,uint256,uint256,address[])[])": {
				"notice": "Launch a revnet that supports 721 sales."
			},
			"launchPayHookRevnetFor(uint256,((string,string,string,bytes32),uint32,address,(uint40,(uint256,uint256,address)[],uint16,uint112,uint40,uint32,uint16)[]),(address,address[])[],(address,(address,uint24,uint32,uint32)[]),((address,(address,uint32,address,uint256)[])[],bytes32),(address,uint256,bytes)[],uint16)": {
				"notice": "Launch a basic revnet that also calls other specified pay hooks."
			},
			"launchRevnetFor(uint256,((string,string,string,bytes32),uint32,address,(uint40,(uint256,uint256,address)[],uint16,uint112,uint40,uint32,uint16)[]),(address,address[])[],(address,(address,uint24,uint32,uint32)[]),((address,(address,uint32,address,uint256)[])[],bytes32))": {
				"notice": "Launch a basic revnet."
			},
			"launchTiered721RevnetFor(uint256,((string,string,string,bytes32),uint32,address,(uint40,(uint256,uint256,address)[],uint16,uint112,uint40,uint32,uint16)[]),(address,address[])[],(address,(address,uint24,uint32,uint32)[]),((address,(address,uint32,address,uint256)[])[],bytes32),((string,string,address,string,address,string,((uint104,uint32,uint32,uint16,address,bytes32,uint24,bool,bool,bool,bool,bool)[],uint32,uint8,address),address,(bool,bool,bool,bool)),bool,bool,bool),(address,uint256,bytes)[],uint16)": {
				"notice": "Launch a revnet that supports 721 sales."
			},
			"mintFor(uint256,uint256,address)": {
				"notice": "Mint tokens from a revnet to a specified beneficiary according to the rules set for the revnet."
			},
			"payHookSpecificationsOf(uint256)": {
				"notice": "The pay hooks to include during payments to networks."
			},
			"replaceSplitOperatorOf(uint256,address)": {
				"notice": "A revnet's operator can replace itself."
			},
			"supportsInterface(bytes4)": {
				"notice": "Indicates if this contract adheres to the specified interface."
			}
		},
		"version": 1
	},
	"gitCommit": "bbb745e3f3e4cefa7f92fc801c0c6de226372a82",
	"sourceName": "src/REVCroptopDeployer.sol",
	"chainId": "84532",
	"linkReferences": {},
	"deployedLinkReferences": {},
	"history": [
		{
			"_format": "sphinx-sol-ct-artifact-1",
			"merkleRoot": "0x2df8f06620610415d6ef29d718ef30921b087659677ae2a0ba469618a8ab2a2b",
			"contractName": "REVCroptopDeployer",
			"address": "0x81e3b9447F99aac78810A13075BdBB3D347F9515",
			"abi": [
				{
					"type": "constructor",
					"inputs": [
						{
							"name": "controller",
							"type": "address",
							"internalType": "contract IJBController"
						},
						{
							"name": "suckerRegistry",
							"type": "address",
							"internalType": "contract IBPSuckerRegistry"
						},
						{
							"name": "trustedForwarder",
							"type": "address",
							"internalType": "address"
						},
						{
							"name": "hookDeployer",
							"type": "address",
							"internalType": "contract IJB721TiersHookDeployer"
						},
						{
							"name": "publisher",
							"type": "address",
							"internalType": "contract CTPublisher"
						}
					],
					"stateMutability": "nonpayable"
				},
				{
					"type": "function",
					"name": "CONTROLLER",
					"inputs": [],
					"outputs": [
						{
							"name": "",
							"type": "address",
							"internalType": "contract IJBController"
						}
					],
					"stateMutability": "view"
				},
				{
					"type": "function",
					"name": "EXIT_DELAY",
					"inputs": [],
					"outputs": [
						{
							"name": "",
							"type": "uint256",
							"internalType": "uint256"
						}
					],
					"stateMutability": "view"
				},
				{
					"type": "function",
					"name": "HOOK_DEPLOYER",
					"inputs": [],
					"outputs": [
						{
							"name": "",
							"type": "address",
							"internalType": "contract IJB721TiersHookDeployer"
						}
					],
					"stateMutability": "view"
				},
				{
					"type": "function",
					"name": "PUBLISHER",
					"inputs": [],
					"outputs": [
						{
							"name": "",
							"type": "address",
							"internalType": "contract CTPublisher"
						}
					],
					"stateMutability": "view"
				},
				{
					"type": "function",
					"name": "SUCKER_REGISTRY",
					"inputs": [],
					"outputs": [
						{
							"name": "",
							"type": "address",
							"internalType": "contract IBPSuckerRegistry"
						}
					],
					"stateMutability": "view"
				},
				{
					"type": "function",
					"name": "beforePayRecordedWith",
					"inputs": [
						{
							"name": "context",
							"type": "tuple",
							"internalType": "struct JBBeforePayRecordedContext",
							"components": [
								{
									"name": "terminal",
									"type": "address",
									"internalType": "address"
								},
								{
									"name": "payer",
									"type": "address",
									"internalType": "address"
								},
								{
									"name": "amount",
									"type": "tuple",
									"internalType": "struct JBTokenAmount",
									"components": [
										{
											"name": "token",
											"type": "address",
											"internalType": "address"
										},
										{
											"name": "value",
											"type": "uint256",
											"internalType": "uint256"
										},
										{
											"name": "decimals",
											"type": "uint256",
											"internalType": "uint256"
										},
										{
											"name": "currency",
											"type": "uint256",
											"internalType": "uint256"
										}
									]
								},
								{
									"name": "projectId",
									"type": "uint256",
									"internalType": "uint256"
								},
								{
									"name": "rulesetId",
									"type": "uint256",
									"internalType": "uint256"
								},
								{
									"name": "beneficiary",
									"type": "address",
									"internalType": "address"
								},
								{
									"name": "weight",
									"type": "uint256",
									"internalType": "uint256"
								},
								{
									"name": "reservedRate",
									"type": "uint256",
									"internalType": "uint256"
								},
								{
									"name": "metadata",
									"type": "bytes",
									"internalType": "bytes"
								}
							]
						}
					],
					"outputs": [
						{
							"name": "weight",
							"type": "uint256",
							"internalType": "uint256"
						},
						{
							"name": "hookSpecifications",
							"type": "tuple[]",
							"internalType": "struct JBPayHookSpecification[]",
							"components": [
								{
									"name": "hook",
									"type": "address",
									"internalType": "contract IJBPayHook"
								},
								{
									"name": "amount",
									"type": "uint256",
									"internalType": "uint256"
								},
								{
									"name": "metadata",
									"type": "bytes",
									"internalType": "bytes"
								}
							]
						}
					],
					"stateMutability": "view"
				},
				{
					"type": "function",
					"name": "beforeRedeemRecordedWith",
					"inputs": [
						{
							"name": "context",
							"type": "tuple",
							"internalType": "struct JBBeforeRedeemRecordedContext",
							"components": [
								{
									"name": "terminal",
									"type": "address",
									"internalType": "address"
								},
								{
									"name": "holder",
									"type": "address",
									"internalType": "address"
								},
								{
									"name": "projectId",
									"type": "uint256",
									"internalType": "uint256"
								},
								{
									"name": "rulesetId",
									"type": "uint256",
									"internalType": "uint256"
								},
								{
									"name": "redeemCount",
									"type": "uint256",
									"internalType": "uint256"
								},
								{
									"name": "totalSupply",
									"type": "uint256",
									"internalType": "uint256"
								},
								{
									"name": "surplus",
									"type": "tuple",
									"internalType": "struct JBTokenAmount",
									"components": [
										{
											"name": "token",
											"type": "address",
											"internalType": "address"
										},
										{
											"name": "value",
											"type": "uint256",
											"internalType": "uint256"
										},
										{
											"name": "decimals",
											"type": "uint256",
											"internalType": "uint256"
										},
										{
											"name": "currency",
											"type": "uint256",
											"internalType": "uint256"
										}
									]
								},
								{
									"name": "useTotalSurplus",
									"type": "bool",
									"internalType": "bool"
								},
								{
									"name": "redemptionRate",
									"type": "uint256",
									"internalType": "uint256"
								},
								{
									"name": "metadata",
									"type": "bytes",
									"internalType": "bytes"
								}
							]
						}
					],
					"outputs": [
						{
							"name": "",
							"type": "uint256",
							"internalType": "uint256"
						},
						{
							"name": "",
							"type": "uint256",
							"internalType": "uint256"
						},
						{
							"name": "",
							"type": "uint256",
							"internalType": "uint256"
						},
						{
							"name": "specifications",
							"type": "tuple[]",
							"internalType": "struct JBRedeemHookSpecification[]",
							"components": [
								{
									"name": "hook",
									"type": "address",
									"internalType": "contract IJBRedeemHook"
								},
								{
									"name": "amount",
									"type": "uint256",
									"internalType": "uint256"
								},
								{
									"name": "metadata",
									"type": "bytes",
									"internalType": "bytes"
								}
							]
						}
					],
					"stateMutability": "view"
				},
				{
					"type": "function",
					"name": "buybackHookOf",
					"inputs": [
						{
							"name": "revnetId",
							"type": "uint256",
							"internalType": "uint256"
						}
					],
					"outputs": [
						{
							"name": "buybackHook",
							"type": "address",
							"internalType": "contract IJBRulesetDataHook"
						}
					],
					"stateMutability": "view"
				},
				{
					"type": "function",
					"name": "deploySuckersFor",
					"inputs": [
						{
							"name": "revnetId",
							"type": "uint256",
							"internalType": "uint256"
						},
						{
							"name": "encodedConfiguration",
							"type": "bytes",
							"internalType": "bytes"
						},
						{
							"name": "suckerDeploymentConfiguration",
							"type": "tuple",
							"internalType": "struct REVSuckerDeploymentConfig",
							"components": [
								{
									"name": "deployerConfigurations",
									"type": "tuple[]",
									"internalType": "struct BPSuckerDeployerConfig[]",
									"components": [
										{
											"name": "deployer",
											"type": "address",
											"internalType": "contract IBPSuckerDeployer"
										},
										{
											"name": "mappings",
											"type": "tuple[]",
											"internalType": "struct BPTokenMapping[]",
											"components": [
												{
													"name": "localToken",
													"type": "address",
													"internalType": "address"
												},
												{
													"name": "minGas",
													"type": "uint32",
													"internalType": "uint32"
												},
												{
													"name": "remoteToken",
													"type": "address",
													"internalType": "address"
												},
												{
													"name": "minBridgeAmount",
													"type": "uint256",
													"internalType": "uint256"
												}
											]
										}
									]
								},
								{
									"name": "salt",
									"type": "bytes32",
									"internalType": "bytes32"
								}
							]
						}
					],
					"outputs": [],
					"stateMutability": "nonpayable"
				},
				{
					"type": "function",
					"name": "exitDelayOf",
					"inputs": [
						{
							"name": "revnetId",
							"type": "uint256",
							"internalType": "uint256"
						}
					],
					"outputs": [
						{
							"name": "exitDelay",
							"type": "uint256",
							"internalType": "uint256"
						}
					],
					"stateMutability": "view"
				},
				{
					"type": "function",
					"name": "hasMintPermissionFor",
					"inputs": [
						{
							"name": "revnetId",
							"type": "uint256",
							"internalType": "uint256"
						},
						{
							"name": "addr",
							"type": "address",
							"internalType": "address"
						}
					],
					"outputs": [
						{
							"name": "",
							"type": "bool",
							"internalType": "bool"
						}
					],
					"stateMutability": "view"
				},
				{
					"type": "function",
					"name": "isTrustedForwarder",
					"inputs": [
						{
							"name": "forwarder",
							"type": "address",
							"internalType": "address"
						}
					],
					"outputs": [
						{
							"name": "",
							"type": "bool",
							"internalType": "bool"
						}
					],
					"stateMutability": "view"
				},
				{
					"type": "function",
					"name": "launchCroptopRevnetFor",
					"inputs": [
						{
							"name": "revnetId",
							"type": "uint256",
							"internalType": "uint256"
						},
						{
							"name": "configuration",
							"type": "tuple",
							"internalType": "struct REVConfig",
							"components": [
								{
									"name": "description",
									"type": "tuple",
									"internalType": "struct REVDescription",
									"components": [
										{
											"name": "name",
											"type": "string",
											"internalType": "string"
										},
										{
											"name": "ticker",
											"type": "string",
											"internalType": "string"
										},
										{
											"name": "uri",
											"type": "string",
											"internalType": "string"
										},
										{
											"name": "salt",
											"type": "bytes32",
											"internalType": "bytes32"
										}
									]
								},
								{
									"name": "baseCurrency",
									"type": "uint32",
									"internalType": "uint32"
								},
								{
									"name": "premintTokenAmount",
									"type": "uint256",
									"internalType": "uint256"
								},
								{
									"name": "premintChainId",
									"type": "uint256",
									"internalType": "uint256"
								},
								{
									"name": "initialSplitOperator",
									"type": "address",
									"internalType": "address"
								},
								{
									"name": "stageConfigurations",
									"type": "tuple[]",
									"internalType": "struct REVStageConfig[]",
									"components": [
										{
											"name": "startsAtOrAfter",
											"type": "uint40",
											"internalType": "uint40"
										},
										{
											"name": "splitRate",
											"type": "uint16",
											"internalType": "uint16"
										},
										{
											"name": "initialIssuanceRate",
											"type": "uint112",
											"internalType": "uint112"
										},
										{
											"name": "priceCeilingIncreaseFrequency",
											"type": "uint40",
											"internalType": "uint40"
										},
										{
											"name": "priceCeilingIncreasePercentage",
											"type": "uint32",
											"internalType": "uint32"
										},
										{
											"name": "priceFloorTaxIntensity",
											"type": "uint16",
											"internalType": "uint16"
										}
									]
								}
							]
						},
						{
							"name": "terminalConfigurations",
							"type": "tuple[]",
							"internalType": "struct JBTerminalConfig[]",
							"components": [
								{
									"name": "terminal",
									"type": "address",
									"internalType": "contract IJBTerminal"
								},
								{
									"name": "tokensToAccept",
									"type": "address[]",
									"internalType": "address[]"
								}
							]
						},
						{
							"name": "buybackHookConfiguration",
							"type": "tuple",
							"internalType": "struct REVBuybackHookConfig",
							"components": [
								{
									"name": "hook",
									"type": "address",
									"internalType": "contract IJBBuybackHook"
								},
								{
									"name": "poolConfigurations",
									"type": "tuple[]",
									"internalType": "struct REVBuybackPoolConfig[]",
									"components": [
										{
											"name": "token",
											"type": "address",
											"internalType": "address"
										},
										{
											"name": "fee",
											"type": "uint24",
											"internalType": "uint24"
										},
										{
											"name": "twapWindow",
											"type": "uint32",
											"internalType": "uint32"
										},
										{
											"name": "twapSlippageTolerance",
											"type": "uint32",
											"internalType": "uint32"
										}
									]
								}
							]
						},
						{
							"name": "suckerDeploymentConfiguration",
							"type": "tuple",
							"internalType": "struct REVSuckerDeploymentConfig",
							"components": [
								{
									"name": "deployerConfigurations",
									"type": "tuple[]",
									"internalType": "struct BPSuckerDeployerConfig[]",
									"components": [
										{
											"name": "deployer",
											"type": "address",
											"internalType": "contract IBPSuckerDeployer"
										},
										{
											"name": "mappings",
											"type": "tuple[]",
											"internalType": "struct BPTokenMapping[]",
											"components": [
												{
													"name": "localToken",
													"type": "address",
													"internalType": "address"
												},
												{
													"name": "minGas",
													"type": "uint32",
													"internalType": "uint32"
												},
												{
													"name": "remoteToken",
													"type": "address",
													"internalType": "address"
												},
												{
													"name": "minBridgeAmount",
													"type": "uint256",
													"internalType": "uint256"
												}
											]
										}
									]
								},
								{
									"name": "salt",
									"type": "bytes32",
									"internalType": "bytes32"
								}
							]
						},
						{
							"name": "hookConfiguration",
							"type": "tuple",
							"internalType": "struct REVDeploy721TiersHookConfig",
							"components": [
								{
									"name": "baseline721HookConfiguration",
									"type": "tuple",
									"internalType": "struct JBDeploy721TiersHookConfig",
									"components": [
										{
											"name": "name",
											"type": "string",
											"internalType": "string"
										},
										{
											"name": "symbol",
											"type": "string",
											"internalType": "string"
										},
										{
											"name": "rulesets",
											"type": "address",
											"internalType": "contract IJBRulesets"
										},
										{
											"name": "baseUri",
											"type": "string",
											"internalType": "string"
										},
										{
											"name": "tokenUriResolver",
											"type": "address",
											"internalType": "contract IJB721TokenUriResolver"
										},
										{
											"name": "contractUri",
											"type": "string",
											"internalType": "string"
										},
										{
											"name": "tiersConfig",
											"type": "tuple",
											"internalType": "struct JB721InitTiersConfig",
											"components": [
												{
													"name": "tiers",
													"type": "tuple[]",
													"internalType": "struct JB721TierConfig[]",
													"components": [
														{
															"name": "price",
															"type": "uint104",
															"internalType": "uint104"
														},
														{
															"name": "initialSupply",
															"type": "uint32",
															"internalType": "uint32"
														},
														{
															"name": "votingUnits",
															"type": "uint32",
															"internalType": "uint32"
														},
														{
															"name": "reserveFrequency",
															"type": "uint16",
															"internalType": "uint16"
														},
														{
															"name": "reserveBeneficiary",
															"type": "address",
															"internalType": "address"
														},
														{
															"name": "encodedIPFSUri",
															"type": "bytes32",
															"internalType": "bytes32"
														},
														{
															"name": "category",
															"type": "uint24",
															"internalType": "uint24"
														},
														{
															"name": "allowOwnerMint",
															"type": "bool",
															"internalType": "bool"
														},
														{
															"name": "useReserveBeneficiaryAsDefault",
															"type": "bool",
															"internalType": "bool"
														},
														{
															"name": "transfersPausable",
															"type": "bool",
															"internalType": "bool"
														},
														{
															"name": "useVotingUnits",
															"type": "bool",
															"internalType": "bool"
														},
														{
															"name": "cannotBeRemoved",
															"type": "bool",
															"internalType": "bool"
														}
													]
												},
												{
													"name": "currency",
													"type": "uint32",
													"internalType": "uint32"
												},
												{
													"name": "decimals",
													"type": "uint8",
													"internalType": "uint8"
												},
												{
													"name": "prices",
													"type": "address",
													"internalType": "contract IJBPrices"
												}
											]
										},
										{
											"name": "reserveBeneficiary",
											"type": "address",
											"internalType": "address"
										},
										{
											"name": "flags",
											"type": "tuple",
											"internalType": "struct JB721TiersHookFlags",
											"components": [
												{
													"name": "noNewTiersWithReserves",
													"type": "bool",
													"internalType": "bool"
												},
												{
													"name": "noNewTiersWithVotes",
													"type": "bool",
													"internalType": "bool"
												},
												{
													"name": "noNewTiersWithOwnerMinting",
													"type": "bool",
													"internalType": "bool"
												},
												{
													"name": "preventOverspending",
													"type": "bool",
													"internalType": "bool"
												}
											]
										}
									]
								},
								{
									"name": "operatorCanAdjustTiers",
									"type": "bool",
									"internalType": "bool"
								},
								{
									"name": "operatorCanUpdateMetadata",
									"type": "bool",
									"internalType": "bool"
								},
								{
									"name": "operatorCanMint",
									"type": "bool",
									"internalType": "bool"
								}
							]
						},
						{
							"name": "otherPayHooksSpecifications",
							"type": "tuple[]",
							"internalType": "struct JBPayHookSpecification[]",
							"components": [
								{
									"name": "hook",
									"type": "address",
									"internalType": "contract IJBPayHook"
								},
								{
									"name": "amount",
									"type": "uint256",
									"internalType": "uint256"
								},
								{
									"name": "metadata",
									"type": "bytes",
									"internalType": "bytes"
								}
							]
						},
						{
							"name": "extraHookMetadata",
							"type": "uint16",
							"internalType": "uint16"
						},
						{
							"name": "allowedPosts",
							"type": "tuple[]",
							"internalType": "struct REVCroptopAllowedPost[]",
							"components": [
								{
									"name": "category",
									"type": "uint256",
									"internalType": "uint256"
								},
								{
									"name": "minimumPrice",
									"type": "uint256",
									"internalType": "uint256"
								},
								{
									"name": "minimumTotalSupply",
									"type": "uint256",
									"internalType": "uint256"
								},
								{
									"name": "maximumTotalSupply",
									"type": "uint256",
									"internalType": "uint256"
								},
								{
									"name": "allowedAddresses",
									"type": "address[]",
									"internalType": "address[]"
								}
							]
						}
					],
					"outputs": [
						{
							"name": "",
							"type": "uint256",
							"internalType": "uint256"
						},
						{
							"name": "hook",
							"type": "address",
							"internalType": "contract IJB721TiersHook"
						}
					],
					"stateMutability": "nonpayable"
				},
				{
					"type": "function",
					"name": "launchPayHookRevnetFor",
					"inputs": [
						{
							"name": "revnetId",
							"type": "uint256",
							"internalType": "uint256"
						},
						{
							"name": "configuration",
							"type": "tuple",
							"internalType": "struct REVConfig",
							"components": [
								{
									"name": "description",
									"type": "tuple",
									"internalType": "struct REVDescription",
									"components": [
										{
											"name": "name",
											"type": "string",
											"internalType": "string"
										},
										{
											"name": "ticker",
											"type": "string",
											"internalType": "string"
										},
										{
											"name": "uri",
											"type": "string",
											"internalType": "string"
										},
										{
											"name": "salt",
											"type": "bytes32",
											"internalType": "bytes32"
										}
									]
								},
								{
									"name": "baseCurrency",
									"type": "uint32",
									"internalType": "uint32"
								},
								{
									"name": "premintTokenAmount",
									"type": "uint256",
									"internalType": "uint256"
								},
								{
									"name": "premintChainId",
									"type": "uint256",
									"internalType": "uint256"
								},
								{
									"name": "initialSplitOperator",
									"type": "address",
									"internalType": "address"
								},
								{
									"name": "stageConfigurations",
									"type": "tuple[]",
									"internalType": "struct REVStageConfig[]",
									"components": [
										{
											"name": "startsAtOrAfter",
											"type": "uint40",
											"internalType": "uint40"
										},
										{
											"name": "splitRate",
											"type": "uint16",
											"internalType": "uint16"
										},
										{
											"name": "initialIssuanceRate",
											"type": "uint112",
											"internalType": "uint112"
										},
										{
											"name": "priceCeilingIncreaseFrequency",
											"type": "uint40",
											"internalType": "uint40"
										},
										{
											"name": "priceCeilingIncreasePercentage",
											"type": "uint32",
											"internalType": "uint32"
										},
										{
											"name": "priceFloorTaxIntensity",
											"type": "uint16",
											"internalType": "uint16"
										}
									]
								}
							]
						},
						{
							"name": "terminalConfigurations",
							"type": "tuple[]",
							"internalType": "struct JBTerminalConfig[]",
							"components": [
								{
									"name": "terminal",
									"type": "address",
									"internalType": "contract IJBTerminal"
								},
								{
									"name": "tokensToAccept",
									"type": "address[]",
									"internalType": "address[]"
								}
							]
						},
						{
							"name": "buybackHookConfiguration",
							"type": "tuple",
							"internalType": "struct REVBuybackHookConfig",
							"components": [
								{
									"name": "hook",
									"type": "address",
									"internalType": "contract IJBBuybackHook"
								},
								{
									"name": "poolConfigurations",
									"type": "tuple[]",
									"internalType": "struct REVBuybackPoolConfig[]",
									"components": [
										{
											"name": "token",
											"type": "address",
											"internalType": "address"
										},
										{
											"name": "fee",
											"type": "uint24",
											"internalType": "uint24"
										},
										{
											"name": "twapWindow",
											"type": "uint32",
											"internalType": "uint32"
										},
										{
											"name": "twapSlippageTolerance",
											"type": "uint32",
											"internalType": "uint32"
										}
									]
								}
							]
						},
						{
							"name": "suckerDeploymentConfiguration",
							"type": "tuple",
							"internalType": "struct REVSuckerDeploymentConfig",
							"components": [
								{
									"name": "deployerConfigurations",
									"type": "tuple[]",
									"internalType": "struct BPSuckerDeployerConfig[]",
									"components": [
										{
											"name": "deployer",
											"type": "address",
											"internalType": "contract IBPSuckerDeployer"
										},
										{
											"name": "mappings",
											"type": "tuple[]",
											"internalType": "struct BPTokenMapping[]",
											"components": [
												{
													"name": "localToken",
													"type": "address",
													"internalType": "address"
												},
												{
													"name": "minGas",
													"type": "uint32",
													"internalType": "uint32"
												},
												{
													"name": "remoteToken",
													"type": "address",
													"internalType": "address"
												},
												{
													"name": "minBridgeAmount",
													"type": "uint256",
													"internalType": "uint256"
												}
											]
										}
									]
								},
								{
									"name": "salt",
									"type": "bytes32",
									"internalType": "bytes32"
								}
							]
						},
						{
							"name": "payHookSpecifications",
							"type": "tuple[]",
							"internalType": "struct JBPayHookSpecification[]",
							"components": [
								{
									"name": "hook",
									"type": "address",
									"internalType": "contract IJBPayHook"
								},
								{
									"name": "amount",
									"type": "uint256",
									"internalType": "uint256"
								},
								{
									"name": "metadata",
									"type": "bytes",
									"internalType": "bytes"
								}
							]
						},
						{
							"name": "extraHookMetadata",
							"type": "uint16",
							"internalType": "uint16"
						}
					],
					"outputs": [
						{
							"name": "",
							"type": "uint256",
							"internalType": "uint256"
						}
					],
					"stateMutability": "nonpayable"
				},
				{
					"type": "function",
					"name": "launchRevnetFor",
					"inputs": [
						{
							"name": "revnetId",
							"type": "uint256",
							"internalType": "uint256"
						},
						{
							"name": "configuration",
							"type": "tuple",
							"internalType": "struct REVConfig",
							"components": [
								{
									"name": "description",
									"type": "tuple",
									"internalType": "struct REVDescription",
									"components": [
										{
											"name": "name",
											"type": "string",
											"internalType": "string"
										},
										{
											"name": "ticker",
											"type": "string",
											"internalType": "string"
										},
										{
											"name": "uri",
											"type": "string",
											"internalType": "string"
										},
										{
											"name": "salt",
											"type": "bytes32",
											"internalType": "bytes32"
										}
									]
								},
								{
									"name": "baseCurrency",
									"type": "uint32",
									"internalType": "uint32"
								},
								{
									"name": "premintTokenAmount",
									"type": "uint256",
									"internalType": "uint256"
								},
								{
									"name": "premintChainId",
									"type": "uint256",
									"internalType": "uint256"
								},
								{
									"name": "initialSplitOperator",
									"type": "address",
									"internalType": "address"
								},
								{
									"name": "stageConfigurations",
									"type": "tuple[]",
									"internalType": "struct REVStageConfig[]",
									"components": [
										{
											"name": "startsAtOrAfter",
											"type": "uint40",
											"internalType": "uint40"
										},
										{
											"name": "splitRate",
											"type": "uint16",
											"internalType": "uint16"
										},
										{
											"name": "initialIssuanceRate",
											"type": "uint112",
											"internalType": "uint112"
										},
										{
											"name": "priceCeilingIncreaseFrequency",
											"type": "uint40",
											"internalType": "uint40"
										},
										{
											"name": "priceCeilingIncreasePercentage",
											"type": "uint32",
											"internalType": "uint32"
										},
										{
											"name": "priceFloorTaxIntensity",
											"type": "uint16",
											"internalType": "uint16"
										}
									]
								}
							]
						},
						{
							"name": "terminalConfigurations",
							"type": "tuple[]",
							"internalType": "struct JBTerminalConfig[]",
							"components": [
								{
									"name": "terminal",
									"type": "address",
									"internalType": "contract IJBTerminal"
								},
								{
									"name": "tokensToAccept",
									"type": "address[]",
									"internalType": "address[]"
								}
							]
						},
						{
							"name": "buybackHookConfiguration",
							"type": "tuple",
							"internalType": "struct REVBuybackHookConfig",
							"components": [
								{
									"name": "hook",
									"type": "address",
									"internalType": "contract IJBBuybackHook"
								},
								{
									"name": "poolConfigurations",
									"type": "tuple[]",
									"internalType": "struct REVBuybackPoolConfig[]",
									"components": [
										{
											"name": "token",
											"type": "address",
											"internalType": "address"
										},
										{
											"name": "fee",
											"type": "uint24",
											"internalType": "uint24"
										},
										{
											"name": "twapWindow",
											"type": "uint32",
											"internalType": "uint32"
										},
										{
											"name": "twapSlippageTolerance",
											"type": "uint32",
											"internalType": "uint32"
										}
									]
								}
							]
						},
						{
							"name": "suckerDeploymentConfiguration",
							"type": "tuple",
							"internalType": "struct REVSuckerDeploymentConfig",
							"components": [
								{
									"name": "deployerConfigurations",
									"type": "tuple[]",
									"internalType": "struct BPSuckerDeployerConfig[]",
									"components": [
										{
											"name": "deployer",
											"type": "address",
											"internalType": "contract IBPSuckerDeployer"
										},
										{
											"name": "mappings",
											"type": "tuple[]",
											"internalType": "struct BPTokenMapping[]",
											"components": [
												{
													"name": "localToken",
													"type": "address",
													"internalType": "address"
												},
												{
													"name": "minGas",
													"type": "uint32",
													"internalType": "uint32"
												},
												{
													"name": "remoteToken",
													"type": "address",
													"internalType": "address"
												},
												{
													"name": "minBridgeAmount",
													"type": "uint256",
													"internalType": "uint256"
												}
											]
										}
									]
								},
								{
									"name": "salt",
									"type": "bytes32",
									"internalType": "bytes32"
								}
							]
						}
					],
					"outputs": [
						{
							"name": "",
							"type": "uint256",
							"internalType": "uint256"
						}
					],
					"stateMutability": "nonpayable"
				},
				{
					"type": "function",
					"name": "launchTiered721RevnetFor",
					"inputs": [
						{
							"name": "revnetId",
							"type": "uint256",
							"internalType": "uint256"
						},
						{
							"name": "configuration",
							"type": "tuple",
							"internalType": "struct REVConfig",
							"components": [
								{
									"name": "description",
									"type": "tuple",
									"internalType": "struct REVDescription",
									"components": [
										{
											"name": "name",
											"type": "string",
											"internalType": "string"
										},
										{
											"name": "ticker",
											"type": "string",
											"internalType": "string"
										},
										{
											"name": "uri",
											"type": "string",
											"internalType": "string"
										},
										{
											"name": "salt",
											"type": "bytes32",
											"internalType": "bytes32"
										}
									]
								},
								{
									"name": "baseCurrency",
									"type": "uint32",
									"internalType": "uint32"
								},
								{
									"name": "premintTokenAmount",
									"type": "uint256",
									"internalType": "uint256"
								},
								{
									"name": "premintChainId",
									"type": "uint256",
									"internalType": "uint256"
								},
								{
									"name": "initialSplitOperator",
									"type": "address",
									"internalType": "address"
								},
								{
									"name": "stageConfigurations",
									"type": "tuple[]",
									"internalType": "struct REVStageConfig[]",
									"components": [
										{
											"name": "startsAtOrAfter",
											"type": "uint40",
											"internalType": "uint40"
										},
										{
											"name": "splitRate",
											"type": "uint16",
											"internalType": "uint16"
										},
										{
											"name": "initialIssuanceRate",
											"type": "uint112",
											"internalType": "uint112"
										},
										{
											"name": "priceCeilingIncreaseFrequency",
											"type": "uint40",
											"internalType": "uint40"
										},
										{
											"name": "priceCeilingIncreasePercentage",
											"type": "uint32",
											"internalType": "uint32"
										},
										{
											"name": "priceFloorTaxIntensity",
											"type": "uint16",
											"internalType": "uint16"
										}
									]
								}
							]
						},
						{
							"name": "terminalConfigurations",
							"type": "tuple[]",
							"internalType": "struct JBTerminalConfig[]",
							"components": [
								{
									"name": "terminal",
									"type": "address",
									"internalType": "contract IJBTerminal"
								},
								{
									"name": "tokensToAccept",
									"type": "address[]",
									"internalType": "address[]"
								}
							]
						},
						{
							"name": "buybackHookConfiguration",
							"type": "tuple",
							"internalType": "struct REVBuybackHookConfig",
							"components": [
								{
									"name": "hook",
									"type": "address",
									"internalType": "contract IJBBuybackHook"
								},
								{
									"name": "poolConfigurations",
									"type": "tuple[]",
									"internalType": "struct REVBuybackPoolConfig[]",
									"components": [
										{
											"name": "token",
											"type": "address",
											"internalType": "address"
										},
										{
											"name": "fee",
											"type": "uint24",
											"internalType": "uint24"
										},
										{
											"name": "twapWindow",
											"type": "uint32",
											"internalType": "uint32"
										},
										{
											"name": "twapSlippageTolerance",
											"type": "uint32",
											"internalType": "uint32"
										}
									]
								}
							]
						},
						{
							"name": "suckerDeploymentConfiguration",
							"type": "tuple",
							"internalType": "struct REVSuckerDeploymentConfig",
							"components": [
								{
									"name": "deployerConfigurations",
									"type": "tuple[]",
									"internalType": "struct BPSuckerDeployerConfig[]",
									"components": [
										{
											"name": "deployer",
											"type": "address",
											"internalType": "contract IBPSuckerDeployer"
										},
										{
											"name": "mappings",
											"type": "tuple[]",
											"internalType": "struct BPTokenMapping[]",
											"components": [
												{
													"name": "localToken",
													"type": "address",
													"internalType": "address"
												},
												{
													"name": "minGas",
													"type": "uint32",
													"internalType": "uint32"
												},
												{
													"name": "remoteToken",
													"type": "address",
													"internalType": "address"
												},
												{
													"name": "minBridgeAmount",
													"type": "uint256",
													"internalType": "uint256"
												}
											]
										}
									]
								},
								{
									"name": "salt",
									"type": "bytes32",
									"internalType": "bytes32"
								}
							]
						},
						{
							"name": "hookConfiguration",
							"type": "tuple",
							"internalType": "struct REVDeploy721TiersHookConfig",
							"components": [
								{
									"name": "baseline721HookConfiguration",
									"type": "tuple",
									"internalType": "struct JBDeploy721TiersHookConfig",
									"components": [
										{
											"name": "name",
											"type": "string",
											"internalType": "string"
										},
										{
											"name": "symbol",
											"type": "string",
											"internalType": "string"
										},
										{
											"name": "rulesets",
											"type": "address",
											"internalType": "contract IJBRulesets"
										},
										{
											"name": "baseUri",
											"type": "string",
											"internalType": "string"
										},
										{
											"name": "tokenUriResolver",
											"type": "address",
											"internalType": "contract IJB721TokenUriResolver"
										},
										{
											"name": "contractUri",
											"type": "string",
											"internalType": "string"
										},
										{
											"name": "tiersConfig",
											"type": "tuple",
											"internalType": "struct JB721InitTiersConfig",
											"components": [
												{
													"name": "tiers",
													"type": "tuple[]",
													"internalType": "struct JB721TierConfig[]",
													"components": [
														{
															"name": "price",
															"type": "uint104",
															"internalType": "uint104"
														},
														{
															"name": "initialSupply",
															"type": "uint32",
															"internalType": "uint32"
														},
														{
															"name": "votingUnits",
															"type": "uint32",
															"internalType": "uint32"
														},
														{
															"name": "reserveFrequency",
															"type": "uint16",
															"internalType": "uint16"
														},
														{
															"name": "reserveBeneficiary",
															"type": "address",
															"internalType": "address"
														},
														{
															"name": "encodedIPFSUri",
															"type": "bytes32",
															"internalType": "bytes32"
														},
														{
															"name": "category",
															"type": "uint24",
															"internalType": "uint24"
														},
														{
															"name": "allowOwnerMint",
															"type": "bool",
															"internalType": "bool"
														},
														{
															"name": "useReserveBeneficiaryAsDefault",
															"type": "bool",
															"internalType": "bool"
														},
														{
															"name": "transfersPausable",
															"type": "bool",
															"internalType": "bool"
														},
														{
															"name": "useVotingUnits",
															"type": "bool",
															"internalType": "bool"
														},
														{
															"name": "cannotBeRemoved",
															"type": "bool",
															"internalType": "bool"
														}
													]
												},
												{
													"name": "currency",
													"type": "uint32",
													"internalType": "uint32"
												},
												{
													"name": "decimals",
													"type": "uint8",
													"internalType": "uint8"
												},
												{
													"name": "prices",
													"type": "address",
													"internalType": "contract IJBPrices"
												}
											]
										},
										{
											"name": "reserveBeneficiary",
											"type": "address",
											"internalType": "address"
										},
										{
											"name": "flags",
											"type": "tuple",
											"internalType": "struct JB721TiersHookFlags",
											"components": [
												{
													"name": "noNewTiersWithReserves",
													"type": "bool",
													"internalType": "bool"
												},
												{
													"name": "noNewTiersWithVotes",
													"type": "bool",
													"internalType": "bool"
												},
												{
													"name": "noNewTiersWithOwnerMinting",
													"type": "bool",
													"internalType": "bool"
												},
												{
													"name": "preventOverspending",
													"type": "bool",
													"internalType": "bool"
												}
											]
										}
									]
								},
								{
									"name": "operatorCanAdjustTiers",
									"type": "bool",
									"internalType": "bool"
								},
								{
									"name": "operatorCanUpdateMetadata",
									"type": "bool",
									"internalType": "bool"
								},
								{
									"name": "operatorCanMint",
									"type": "bool",
									"internalType": "bool"
								}
							]
						},
						{
							"name": "otherPayHooksSpecifications",
							"type": "tuple[]",
							"internalType": "struct JBPayHookSpecification[]",
							"components": [
								{
									"name": "hook",
									"type": "address",
									"internalType": "contract IJBPayHook"
								},
								{
									"name": "amount",
									"type": "uint256",
									"internalType": "uint256"
								},
								{
									"name": "metadata",
									"type": "bytes",
									"internalType": "bytes"
								}
							]
						},
						{
							"name": "extraHookMetadata",
							"type": "uint16",
							"internalType": "uint16"
						}
					],
					"outputs": [
						{
							"name": "",
							"type": "uint256",
							"internalType": "uint256"
						},
						{
							"name": "hook",
							"type": "address",
							"internalType": "contract IJB721TiersHook"
						}
					],
					"stateMutability": "nonpayable"
				},
				{
					"type": "function",
					"name": "onERC721Received",
					"inputs": [
						{
							"name": "operator",
							"type": "address",
							"internalType": "address"
						},
						{
							"name": "",
							"type": "address",
							"internalType": "address"
						},
						{
							"name": "tokenId",
							"type": "uint256",
							"internalType": "uint256"
						},
						{
							"name": "data",
							"type": "bytes",
							"internalType": "bytes"
						}
					],
					"outputs": [
						{
							"name": "",
							"type": "bytes4",
							"internalType": "bytes4"
						}
					],
					"stateMutability": "view"
				},
				{
					"type": "function",
					"name": "payHookSpecificationsOf",
					"inputs": [
						{
							"name": "revnetId",
							"type": "uint256",
							"internalType": "uint256"
						}
					],
					"outputs": [
						{
							"name": "",
							"type": "tuple[]",
							"internalType": "struct JBPayHookSpecification[]",
							"components": [
								{
									"name": "hook",
									"type": "address",
									"internalType": "contract IJBPayHook"
								},
								{
									"name": "amount",
									"type": "uint256",
									"internalType": "uint256"
								},
								{
									"name": "metadata",
									"type": "bytes",
									"internalType": "bytes"
								}
							]
						}
					],
					"stateMutability": "view"
				},
				{
					"type": "function",
					"name": "replaceSplitOperatorOf",
					"inputs": [
						{
							"name": "revnetId",
							"type": "uint256",
							"internalType": "uint256"
						},
						{
							"name": "newSplitOperator",
							"type": "address",
							"internalType": "address"
						}
					],
					"outputs": [],
					"stateMutability": "nonpayable"
				},
				{
					"type": "function",
					"name": "supportsInterface",
					"inputs": [
						{
							"name": "interfaceId",
							"type": "bytes4",
							"internalType": "bytes4"
						}
					],
					"outputs": [
						{
							"name": "",
							"type": "bool",
							"internalType": "bool"
						}
					],
					"stateMutability": "view"
				},
				{
					"type": "function",
					"name": "trustedForwarder",
					"inputs": [],
					"outputs": [
						{
							"name": "",
							"type": "address",
							"internalType": "address"
						}
					],
					"stateMutability": "view"
				},
				{
					"type": "event",
					"name": "DeployRevnet",
					"inputs": [
						{
							"name": "revnetId",
							"type": "uint256",
							"indexed": true,
							"internalType": "uint256"
						},
						{
							"name": "configuration",
							"type": "tuple",
							"indexed": false,
							"internalType": "struct REVConfig",
							"components": [
								{
									"name": "description",
									"type": "tuple",
									"internalType": "struct REVDescription",
									"components": [
										{
											"name": "name",
											"type": "string",
											"internalType": "string"
										},
										{
											"name": "ticker",
											"type": "string",
											"internalType": "string"
										},
										{
											"name": "uri",
											"type": "string",
											"internalType": "string"
										},
										{
											"name": "salt",
											"type": "bytes32",
											"internalType": "bytes32"
										}
									]
								},
								{
									"name": "baseCurrency",
									"type": "uint32",
									"internalType": "uint32"
								},
								{
									"name": "premintTokenAmount",
									"type": "uint256",
									"internalType": "uint256"
								},
								{
									"name": "premintChainId",
									"type": "uint256",
									"internalType": "uint256"
								},
								{
									"name": "initialSplitOperator",
									"type": "address",
									"internalType": "address"
								},
								{
									"name": "stageConfigurations",
									"type": "tuple[]",
									"internalType": "struct REVStageConfig[]",
									"components": [
										{
											"name": "startsAtOrAfter",
											"type": "uint40",
											"internalType": "uint40"
										},
										{
											"name": "splitRate",
											"type": "uint16",
											"internalType": "uint16"
										},
										{
											"name": "initialIssuanceRate",
											"type": "uint112",
											"internalType": "uint112"
										},
										{
											"name": "priceCeilingIncreaseFrequency",
											"type": "uint40",
											"internalType": "uint40"
										},
										{
											"name": "priceCeilingIncreasePercentage",
											"type": "uint32",
											"internalType": "uint32"
										},
										{
											"name": "priceFloorTaxIntensity",
											"type": "uint16",
											"internalType": "uint16"
										}
									]
								}
							]
						},
						{
							"name": "terminalConfigurations",
							"type": "tuple[]",
							"indexed": false,
							"internalType": "struct JBTerminalConfig[]",
							"components": [
								{
									"name": "terminal",
									"type": "address",
									"internalType": "contract IJBTerminal"
								},
								{
									"name": "tokensToAccept",
									"type": "address[]",
									"internalType": "address[]"
								}
							]
						},
						{
							"name": "buybackHookConfiguration",
							"type": "tuple",
							"indexed": false,
							"internalType": "struct REVBuybackHookConfig",
							"components": [
								{
									"name": "hook",
									"type": "address",
									"internalType": "contract IJBBuybackHook"
								},
								{
									"name": "poolConfigurations",
									"type": "tuple[]",
									"internalType": "struct REVBuybackPoolConfig[]",
									"components": [
										{
											"name": "token",
											"type": "address",
											"internalType": "address"
										},
										{
											"name": "fee",
											"type": "uint24",
											"internalType": "uint24"
										},
										{
											"name": "twapWindow",
											"type": "uint32",
											"internalType": "uint32"
										},
										{
											"name": "twapSlippageTolerance",
											"type": "uint32",
											"internalType": "uint32"
										}
									]
								}
							]
						},
						{
							"name": "suckerDeploymentConfiguration",
							"type": "tuple",
							"indexed": false,
							"internalType": "struct REVSuckerDeploymentConfig",
							"components": [
								{
									"name": "deployerConfigurations",
									"type": "tuple[]",
									"internalType": "struct BPSuckerDeployerConfig[]",
									"components": [
										{
											"name": "deployer",
											"type": "address",
											"internalType": "contract IBPSuckerDeployer"
										},
										{
											"name": "mappings",
											"type": "tuple[]",
											"internalType": "struct BPTokenMapping[]",
											"components": [
												{
													"name": "localToken",
													"type": "address",
													"internalType": "address"
												},
												{
													"name": "minGas",
													"type": "uint32",
													"internalType": "uint32"
												},
												{
													"name": "remoteToken",
													"type": "address",
													"internalType": "address"
												},
												{
													"name": "minBridgeAmount",
													"type": "uint256",
													"internalType": "uint256"
												}
											]
										}
									]
								},
								{
									"name": "salt",
									"type": "bytes32",
									"internalType": "bytes32"
								}
							]
						},
						{
							"name": "rulesetConfigurations",
							"type": "tuple[]",
							"indexed": false,
							"internalType": "struct JBRulesetConfig[]",
							"components": [
								{
									"name": "mustStartAtOrAfter",
									"type": "uint256",
									"internalType": "uint256"
								},
								{
									"name": "duration",
									"type": "uint256",
									"internalType": "uint256"
								},
								{
									"name": "weight",
									"type": "uint256",
									"internalType": "uint256"
								},
								{
									"name": "decayRate",
									"type": "uint256",
									"internalType": "uint256"
								},
								{
									"name": "approvalHook",
									"type": "address",
									"internalType": "contract IJBRulesetApprovalHook"
								},
								{
									"name": "metadata",
									"type": "tuple",
									"internalType": "struct JBRulesetMetadata",
									"components": [
										{
											"name": "reservedRate",
											"type": "uint256",
											"internalType": "uint256"
										},
										{
											"name": "redemptionRate",
											"type": "uint256",
											"internalType": "uint256"
										},
										{
											"name": "baseCurrency",
											"type": "uint256",
											"internalType": "uint256"
										},
										{
											"name": "pausePay",
											"type": "bool",
											"internalType": "bool"
										},
										{
											"name": "pauseCreditTransfers",
											"type": "bool",
											"internalType": "bool"
										},
										{
											"name": "allowOwnerMinting",
											"type": "bool",
											"internalType": "bool"
										},
										{
											"name": "allowTerminalMigration",
											"type": "bool",
											"internalType": "bool"
										},
										{
											"name": "allowSetTerminals",
											"type": "bool",
											"internalType": "bool"
										},
										{
											"name": "allowControllerMigration",
											"type": "bool",
											"internalType": "bool"
										},
										{
											"name": "allowSetController",
											"type": "bool",
											"internalType": "bool"
										},
										{
											"name": "holdFees",
											"type": "bool",
											"internalType": "bool"
										},
										{
											"name": "useTotalSurplusForRedemptions",
											"type": "bool",
											"internalType": "bool"
										},
										{
											"name": "useDataHookForPay",
											"type": "bool",
											"internalType": "bool"
										},
										{
											"name": "useDataHookForRedeem",
											"type": "bool",
											"internalType": "bool"
										},
										{
											"name": "dataHook",
											"type": "address",
											"internalType": "address"
										},
										{
											"name": "metadata",
											"type": "uint256",
											"internalType": "uint256"
										}
									]
								},
								{
									"name": "splitGroups",
									"type": "tuple[]",
									"internalType": "struct JBSplitGroup[]",
									"components": [
										{
											"name": "groupId",
											"type": "uint256",
											"internalType": "uint256"
										},
										{
											"name": "splits",
											"type": "tuple[]",
											"internalType": "struct JBSplit[]",
											"components": [
												{
													"name": "preferAddToBalance",
													"type": "bool",
													"internalType": "bool"
												},
												{
													"name": "percent",
													"type": "uint256",
													"internalType": "uint256"
												},
												{
													"name": "projectId",
													"type": "uint256",
													"internalType": "uint256"
												},
												{
													"name": "beneficiary",
													"type": "address",
													"internalType": "address payable"
												},
												{
													"name": "lockedUntil",
													"type": "uint256",
													"internalType": "uint256"
												},
												{
													"name": "hook",
													"type": "address",
													"internalType": "contract IJBSplitHook"
												}
											]
										}
									]
								},
								{
									"name": "fundAccessLimitGroups",
									"type": "tuple[]",
									"internalType": "struct JBFundAccessLimitGroup[]",
									"components": [
										{
											"name": "terminal",
											"type": "address",
											"internalType": "address"
										},
										{
											"name": "token",
											"type": "address",
											"internalType": "address"
										},
										{
											"name": "payoutLimits",
											"type": "tuple[]",
											"internalType": "struct JBCurrencyAmount[]",
											"components": [
												{
													"name": "amount",
													"type": "uint256",
													"internalType": "uint256"
												},
												{
													"name": "currency",
													"type": "uint256",
													"internalType": "uint256"
												}
											]
										},
										{
											"name": "surplusAllowances",
											"type": "tuple[]",
											"internalType": "struct JBCurrencyAmount[]",
											"components": [
												{
													"name": "amount",
													"type": "uint256",
													"internalType": "uint256"
												},
												{
													"name": "currency",
													"type": "uint256",
													"internalType": "uint256"
												}
											]
										}
									]
								}
							]
						},
						{
							"name": "encodedConfiguration",
							"type": "bytes",
							"indexed": false,
							"internalType": "bytes"
						},
						{
							"name": "isInProgress",
							"type": "bool",
							"indexed": false,
							"internalType": "bool"
						},
						{
							"name": "caller",
							"type": "address",
							"indexed": false,
							"internalType": "address"
						}
					],
					"anonymous": false
				},
				{
					"type": "event",
					"name": "DeploySuckers",
					"inputs": [
						{
							"name": "revnetId",
							"type": "uint256",
							"indexed": true,
							"internalType": "uint256"
						},
						{
							"name": "salt",
							"type": "bytes32",
							"indexed": true,
							"internalType": "bytes32"
						},
						{
							"name": "encodedConfiguration",
							"type": "bytes",
							"indexed": false,
							"internalType": "bytes"
						},
						{
							"name": "suckerDeploymentConfiguration",
							"type": "tuple",
							"indexed": false,
							"internalType": "struct REVSuckerDeploymentConfig",
							"components": [
								{
									"name": "deployerConfigurations",
									"type": "tuple[]",
									"internalType": "struct BPSuckerDeployerConfig[]",
									"components": [
										{
											"name": "deployer",
											"type": "address",
											"internalType": "contract IBPSuckerDeployer"
										},
										{
											"name": "mappings",
											"type": "tuple[]",
											"internalType": "struct BPTokenMapping[]",
											"components": [
												{
													"name": "localToken",
													"type": "address",
													"internalType": "address"
												},
												{
													"name": "minGas",
													"type": "uint32",
													"internalType": "uint32"
												},
												{
													"name": "remoteToken",
													"type": "address",
													"internalType": "address"
												},
												{
													"name": "minBridgeAmount",
													"type": "uint256",
													"internalType": "uint256"
												}
											]
										}
									]
								},
								{
									"name": "salt",
									"type": "bytes32",
									"internalType": "bytes32"
								}
							]
						},
						{
							"name": "caller",
							"type": "address",
							"indexed": false,
							"internalType": "address"
						}
					],
					"anonymous": false
				},
				{
					"type": "event",
					"name": "ReplaceSplitOperator",
					"inputs": [
						{
							"name": "revnetId",
							"type": "uint256",
							"indexed": true,
							"internalType": "uint256"
						},
						{
							"name": "newSplitOperator",
							"type": "address",
							"indexed": true,
							"internalType": "address"
						},
						{
							"name": "caller",
							"type": "address",
							"indexed": false,
							"internalType": "address"
						}
					],
					"anonymous": false
				},
				{
					"type": "event",
					"name": "StoredPayHookSpecifications",
					"inputs": [
						{
							"name": "revnetId",
							"type": "uint256",
							"indexed": true,
							"internalType": "uint256"
						},
						{
							"name": "payHookSpecifications",
							"type": "tuple[]",
							"indexed": false,
							"internalType": "struct JBPayHookSpecification[]",
							"components": [
								{
									"name": "hook",
									"type": "address",
									"internalType": "contract IJBPayHook"
								},
								{
									"name": "amount",
									"type": "uint256",
									"internalType": "uint256"
								},
								{
									"name": "metadata",
									"type": "bytes",
									"internalType": "bytes"
								}
							]
						},
						{
							"name": "caller",
							"type": "address",
							"indexed": false,
							"internalType": "address"
						}
					],
					"anonymous": false
				},
				{
					"type": "error",
					"name": "REVBasicDeployer_ExitDelayInEffect",
					"inputs": []
				},
				{
					"type": "error",
					"name": "REVBasicDeployer_Unauthorized",
					"inputs": []
				}
			],
			"solcInputHash": "e375084179cd92018a55327e422b1ddf",
			"receipt": {
				"blockHash": "0xd9512349241d0add4bba35d1ab7aa6f11facd5999bdcd9743be30ff6711a9b4d",
				"blockNumber": 8987159,
				"contractAddress": null,
				"cumulativeGasUsed": "9795217",
				"from": "0xC034550B542b83BA1De312b21d1C94a9a52B1595",
				"gasPrice": "1000294",
				"gasUsed": "9236331",
				"hash": "0x3d1c3e14ca98f44ad91b293d794e23697d42a2a91e861cd831266f457a94c493",
				"index": 12,
				"logs": [
					{
						"address": "0xB5E96127D417b1B3ef8438496a38A143167209c7",
						"blockHash": "0xd9512349241d0add4bba35d1ab7aa6f11facd5999bdcd9743be30ff6711a9b4d",
						"blockNumber": 8987159,
						"data": "0x0000000000000000000000000000000000000000000000000000000000000000",
						"index": 4,
						"topics": [
							"0x572f161235911da04685a68c06adf558fc7e4a36909dca394650e0adc19cc93d",
							"0x000000000000000000000000c034550b542b83ba1de312b21d1c94a9a52b1595",
							"0x00000000000000000000000018ed911dda49f125bbadd71f826f1cda550f20fe",
							"0xf6abf9a5f933c9c3ba135721c175ea264862ad4f9d6a8c7fe52354731219d6c8"
						],
						"transactionHash": "0x3d1c3e14ca98f44ad91b293d794e23697d42a2a91e861cd831266f457a94c493",
						"transactionIndex": 12
					},
					{
						"address": "0x15B51C7D9DBc4681e54f8b493187C9a2377bd81B",
						"blockHash": "0xd9512349241d0add4bba35d1ab7aa6f11facd5999bdcd9743be30ff6711a9b4d",
						"blockNumber": 8987159,
						"data": "0x",
						"index": 5,
						"topics": [
							"0x6895c13664aa4f67288b25d7a21d7aaa34916e355fb9b6fae0a139a9085becb8",
							"0x00000000000000000000000018ed911dda49f125bbadd71f826f1cda550f20fe"
						],
						"transactionHash": "0x3d1c3e14ca98f44ad91b293d794e23697d42a2a91e861cd831266f457a94c493",
						"transactionIndex": 12
					},
					{
						"address": "0x18Ed911ddA49f125bbadd71f826F1cDa550f20fE",
						"blockHash": "0xd9512349241d0add4bba35d1ab7aa6f11facd5999bdcd9743be30ff6711a9b4d",
						"blockNumber": 8987159,
						"data": "0x0000000000000000000000000000000000000000000000000000000000000001",
						"index": 6,
						"topics": [
							"0xa65fb05c5808f5f389d72edeaf719ce38f4cc55c1f69ca3cbfb31c21501caa07",
							"0x2df8f06620610415d6ef29d718ef30921b087659677ae2a0ba469618a8ab2a2b"
						],
						"transactionHash": "0x3d1c3e14ca98f44ad91b293d794e23697d42a2a91e861cd831266f457a94c493",
						"transactionIndex": 12
					},
					{
						"address": "0x15B51C7D9DBc4681e54f8b493187C9a2377bd81B",
						"blockHash": "0xd9512349241d0add4bba35d1ab7aa6f11facd5999bdcd9743be30ff6711a9b4d",
						"blockNumber": 8987159,
						"data": "0x",
						"index": 7,
						"topics": [
							"0x6895c13664aa4f67288b25d7a21d7aaa34916e355fb9b6fae0a139a9085becb8",
							"0x00000000000000000000000018ed911dda49f125bbadd71f826f1cda550f20fe"
						],
						"transactionHash": "0x3d1c3e14ca98f44ad91b293d794e23697d42a2a91e861cd831266f457a94c493",
						"transactionIndex": 12
					},
					{
						"address": "0x18Ed911ddA49f125bbadd71f826F1cDa550f20fE",
						"blockHash": "0xd9512349241d0add4bba35d1ab7aa6f11facd5999bdcd9743be30ff6711a9b4d",
						"blockNumber": 8987159,
						"data": "0x0000000000000000000000000000000000000000000000000000000000000002",
						"index": 8,
						"topics": [
							"0xa65fb05c5808f5f389d72edeaf719ce38f4cc55c1f69ca3cbfb31c21501caa07",
							"0x2df8f06620610415d6ef29d718ef30921b087659677ae2a0ba469618a8ab2a2b"
						],
						"transactionHash": "0x3d1c3e14ca98f44ad91b293d794e23697d42a2a91e861cd831266f457a94c493",
						"transactionIndex": 12
					},
					{
						"address": "0x18Ed911ddA49f125bbadd71f826F1cDa550f20fE",
						"blockHash": "0xd9512349241d0add4bba35d1ab7aa6f11facd5999bdcd9743be30ff6711a9b4d",
						"blockNumber": 8987159,
						"data": "0x",
						"index": 9,
						"topics": [
							"0x4383d976757d67ca920616be0b6430a681ea9d3dcce8d6d61d4603ca4a9bff63",
							"0x2df8f06620610415d6ef29d718ef30921b087659677ae2a0ba469618a8ab2a2b"
						],
						"transactionHash": "0x3d1c3e14ca98f44ad91b293d794e23697d42a2a91e861cd831266f457a94c493",
						"transactionIndex": 12
					}
				],
				"logsBloom": "0x00000000080010001000000000080000000000000008000000400000004000000000000000000000200000001040000000000004000004000000000000000000100000000000200000000000000000000000000000000000000000000000000000000000000000000000000000000000000000000000000000000000000000000000000000000000000100000000000000000000000000000000008000080000004000800010000000000000000001020200000000000000000000000044000400000000000000000000000008000000000000000200000000000000000000010000000000000008000000000000000200000000000000020000000008000000",
				"status": 1,
				"to": "0xB5E96127D417b1B3ef8438496a38A143167209c7"
			},
			"metadata": "{\"compiler\":{\"version\":\"0.8.23+commit.f704f362\"},\"language\":\"Solidity\",\"output\":{\"abi\":[{\"inputs\":[{\"internalType\":\"contract IJBController\",\"name\":\"controller\",\"type\":\"address\"},{\"internalType\":\"contract IBPSuckerRegistry\",\"name\":\"suckerRegistry\",\"type\":\"address\"},{\"internalType\":\"address\",\"name\":\"trustedForwarder\",\"type\":\"address\"},{\"internalType\":\"contract IJB721TiersHookDeployer\",\"name\":\"hookDeployer\",\"type\":\"address\"},{\"internalType\":\"contract CTPublisher\",\"name\":\"publisher\",\"type\":\"address\"}],\"stateMutability\":\"nonpayable\",\"type\":\"constructor\"},{\"inputs\":[],\"type\":\"error\",\"name\":\"REVBasicDeployer_ExitDelayInEffect\"},{\"inputs\":[],\"type\":\"error\",\"name\":\"REVBasicDeployer_Unauthorized\"},{\"inputs\":[{\"internalType\":\"uint256\",\"name\":\"revnetId\",\"type\":\"uint256\",\"indexed\":true},{\"internalType\":\"struct REVConfig\",\"name\":\"configuration\",\"type\":\"tuple\",\"components\":[{\"internalType\":\"struct REVDescription\",\"name\":\"description\",\"type\":\"tuple\",\"components\":[{\"internalType\":\"string\",\"name\":\"name\",\"type\":\"string\"},{\"internalType\":\"string\",\"name\":\"ticker\",\"type\":\"string\"},{\"internalType\":\"string\",\"name\":\"uri\",\"type\":\"string\"},{\"internalType\":\"bytes32\",\"name\":\"salt\",\"type\":\"bytes32\"}]},{\"internalType\":\"uint32\",\"name\":\"baseCurrency\",\"type\":\"uint32\"},{\"internalType\":\"uint256\",\"name\":\"premintTokenAmount\",\"type\":\"uint256\"},{\"internalType\":\"uint256\",\"name\":\"premintChainId\",\"type\":\"uint256\"},{\"internalType\":\"address\",\"name\":\"initialSplitOperator\",\"type\":\"address\"},{\"internalType\":\"struct REVStageConfig[]\",\"name\":\"stageConfigurations\",\"type\":\"tuple[]\",\"components\":[{\"internalType\":\"uint40\",\"name\":\"startsAtOrAfter\",\"type\":\"uint40\"},{\"internalType\":\"uint16\",\"name\":\"splitRate\",\"type\":\"uint16\"},{\"internalType\":\"uint112\",\"name\":\"initialIssuanceRate\",\"type\":\"uint112\"},{\"internalType\":\"uint40\",\"name\":\"priceCeilingIncreaseFrequency\",\"type\":\"uint40\"},{\"internalType\":\"uint32\",\"name\":\"priceCeilingIncreasePercentage\",\"type\":\"uint32\"},{\"internalType\":\"uint16\",\"name\":\"priceFloorTaxIntensity\",\"type\":\"uint16\"}]}],\"indexed\":false},{\"internalType\":\"struct JBTerminalConfig[]\",\"name\":\"terminalConfigurations\",\"type\":\"tuple[]\",\"components\":[{\"internalType\":\"contract IJBTerminal\",\"name\":\"terminal\",\"type\":\"address\"},{\"internalType\":\"address[]\",\"name\":\"tokensToAccept\",\"type\":\"address[]\"}],\"indexed\":false},{\"internalType\":\"struct REVBuybackHookConfig\",\"name\":\"buybackHookConfiguration\",\"type\":\"tuple\",\"components\":[{\"internalType\":\"contract IJBBuybackHook\",\"name\":\"hook\",\"type\":\"address\"},{\"internalType\":\"struct REVBuybackPoolConfig[]\",\"name\":\"poolConfigurations\",\"type\":\"tuple[]\",\"components\":[{\"internalType\":\"address\",\"name\":\"token\",\"type\":\"address\"},{\"internalType\":\"uint24\",\"name\":\"fee\",\"type\":\"uint24\"},{\"internalType\":\"uint32\",\"name\":\"twapWindow\",\"type\":\"uint32\"},{\"internalType\":\"uint32\",\"name\":\"twapSlippageTolerance\",\"type\":\"uint32\"}]}],\"indexed\":false},{\"internalType\":\"struct REVSuckerDeploymentConfig\",\"name\":\"suckerDeploymentConfiguration\",\"type\":\"tuple\",\"components\":[{\"internalType\":\"struct BPSuckerDeployerConfig[]\",\"name\":\"deployerConfigurations\",\"type\":\"tuple[]\",\"components\":[{\"internalType\":\"contract IBPSuckerDeployer\",\"name\":\"deployer\",\"type\":\"address\"},{\"internalType\":\"struct BPTokenMapping[]\",\"name\":\"mappings\",\"type\":\"tuple[]\",\"components\":[{\"internalType\":\"address\",\"name\":\"localToken\",\"type\":\"address\"},{\"internalType\":\"uint32\",\"name\":\"minGas\",\"type\":\"uint32\"},{\"internalType\":\"address\",\"name\":\"remoteToken\",\"type\":\"address\"},{\"internalType\":\"uint256\",\"name\":\"minBridgeAmount\",\"type\":\"uint256\"}]}]},{\"internalType\":\"bytes32\",\"name\":\"salt\",\"type\":\"bytes32\"}],\"indexed\":false},{\"internalType\":\"struct JBRulesetConfig[]\",\"name\":\"rulesetConfigurations\",\"type\":\"tuple[]\",\"components\":[{\"internalType\":\"uint256\",\"name\":\"mustStartAtOrAfter\",\"type\":\"uint256\"},{\"internalType\":\"uint256\",\"name\":\"duration\",\"type\":\"uint256\"},{\"internalType\":\"uint256\",\"name\":\"weight\",\"type\":\"uint256\"},{\"internalType\":\"uint256\",\"name\":\"decayRate\",\"type\":\"uint256\"},{\"internalType\":\"contract IJBRulesetApprovalHook\",\"name\":\"approvalHook\",\"type\":\"address\"},{\"internalType\":\"struct JBRulesetMetadata\",\"name\":\"metadata\",\"type\":\"tuple\",\"components\":[{\"internalType\":\"uint256\",\"name\":\"reservedRate\",\"type\":\"uint256\"},{\"internalType\":\"uint256\",\"name\":\"redemptionRate\",\"type\":\"uint256\"},{\"internalType\":\"uint256\",\"name\":\"baseCurrency\",\"type\":\"uint256\"},{\"internalType\":\"bool\",\"name\":\"pausePay\",\"type\":\"bool\"},{\"internalType\":\"bool\",\"name\":\"pauseCreditTransfers\",\"type\":\"bool\"},{\"internalType\":\"bool\",\"name\":\"allowOwnerMinting\",\"type\":\"bool\"},{\"internalType\":\"bool\",\"name\":\"allowTerminalMigration\",\"type\":\"bool\"},{\"internalType\":\"bool\",\"name\":\"allowSetTerminals\",\"type\":\"bool\"},{\"internalType\":\"bool\",\"name\":\"allowControllerMigration\",\"type\":\"bool\"},{\"internalType\":\"bool\",\"name\":\"allowSetController\",\"type\":\"bool\"},{\"internalType\":\"bool\",\"name\":\"holdFees\",\"type\":\"bool\"},{\"internalType\":\"bool\",\"name\":\"useTotalSurplusForRedemptions\",\"type\":\"bool\"},{\"internalType\":\"bool\",\"name\":\"useDataHookForPay\",\"type\":\"bool\"},{\"internalType\":\"bool\",\"name\":\"useDataHookForRedeem\",\"type\":\"bool\"},{\"internalType\":\"address\",\"name\":\"dataHook\",\"type\":\"address\"},{\"internalType\":\"uint256\",\"name\":\"metadata\",\"type\":\"uint256\"}]},{\"internalType\":\"struct JBSplitGroup[]\",\"name\":\"splitGroups\",\"type\":\"tuple[]\",\"components\":[{\"internalType\":\"uint256\",\"name\":\"groupId\",\"type\":\"uint256\"},{\"internalType\":\"struct JBSplit[]\",\"name\":\"splits\",\"type\":\"tuple[]\",\"components\":[{\"internalType\":\"bool\",\"name\":\"preferAddToBalance\",\"type\":\"bool\"},{\"internalType\":\"uint256\",\"name\":\"percent\",\"type\":\"uint256\"},{\"internalType\":\"uint256\",\"name\":\"projectId\",\"type\":\"uint256\"},{\"internalType\":\"address payable\",\"name\":\"beneficiary\",\"type\":\"address\"},{\"internalType\":\"uint256\",\"name\":\"lockedUntil\",\"type\":\"uint256\"},{\"internalType\":\"contract IJBSplitHook\",\"name\":\"hook\",\"type\":\"address\"}]}]},{\"internalType\":\"struct JBFundAccessLimitGroup[]\",\"name\":\"fundAccessLimitGroups\",\"type\":\"tuple[]\",\"components\":[{\"internalType\":\"address\",\"name\":\"terminal\",\"type\":\"address\"},{\"internalType\":\"address\",\"name\":\"token\",\"type\":\"address\"},{\"internalType\":\"struct JBCurrencyAmount[]\",\"name\":\"payoutLimits\",\"type\":\"tuple[]\",\"components\":[{\"internalType\":\"uint256\",\"name\":\"amount\",\"type\":\"uint256\"},{\"internalType\":\"uint256\",\"name\":\"currency\",\"type\":\"uint256\"}]},{\"internalType\":\"struct JBCurrencyAmount[]\",\"name\":\"surplusAllowances\",\"type\":\"tuple[]\",\"components\":[{\"internalType\":\"uint256\",\"name\":\"amount\",\"type\":\"uint256\"},{\"internalType\":\"uint256\",\"name\":\"currency\",\"type\":\"uint256\"}]}]}],\"indexed\":false},{\"internalType\":\"bytes\",\"name\":\"encodedConfiguration\",\"type\":\"bytes\",\"indexed\":false},{\"internalType\":\"bool\",\"name\":\"isInProgress\",\"type\":\"bool\",\"indexed\":false},{\"internalType\":\"address\",\"name\":\"caller\",\"type\":\"address\",\"indexed\":false}],\"type\":\"event\",\"name\":\"DeployRevnet\",\"anonymous\":false},{\"inputs\":[{\"internalType\":\"uint256\",\"name\":\"revnetId\",\"type\":\"uint256\",\"indexed\":true},{\"internalType\":\"bytes32\",\"name\":\"salt\",\"type\":\"bytes32\",\"indexed\":true},{\"internalType\":\"bytes\",\"name\":\"encodedConfiguration\",\"type\":\"bytes\",\"indexed\":false},{\"internalType\":\"struct REVSuckerDeploymentConfig\",\"name\":\"suckerDeploymentConfiguration\",\"type\":\"tuple\",\"components\":[{\"internalType\":\"struct BPSuckerDeployerConfig[]\",\"name\":\"deployerConfigurations\",\"type\":\"tuple[]\",\"components\":[{\"internalType\":\"contract IBPSuckerDeployer\",\"name\":\"deployer\",\"type\":\"address\"},{\"internalType\":\"struct BPTokenMapping[]\",\"name\":\"mappings\",\"type\":\"tuple[]\",\"components\":[{\"internalType\":\"address\",\"name\":\"localToken\",\"type\":\"address\"},{\"internalType\":\"uint32\",\"name\":\"minGas\",\"type\":\"uint32\"},{\"internalType\":\"address\",\"name\":\"remoteToken\",\"type\":\"address\"},{\"internalType\":\"uint256\",\"name\":\"minBridgeAmount\",\"type\":\"uint256\"}]}]},{\"internalType\":\"bytes32\",\"name\":\"salt\",\"type\":\"bytes32\"}],\"indexed\":false},{\"internalType\":\"address\",\"name\":\"caller\",\"type\":\"address\",\"indexed\":false}],\"type\":\"event\",\"name\":\"DeploySuckers\",\"anonymous\":false},{\"inputs\":[{\"internalType\":\"uint256\",\"name\":\"revnetId\",\"type\":\"uint256\",\"indexed\":true},{\"internalType\":\"address\",\"name\":\"newSplitOperator\",\"type\":\"address\",\"indexed\":true},{\"internalType\":\"address\",\"name\":\"caller\",\"type\":\"address\",\"indexed\":false}],\"type\":\"event\",\"name\":\"ReplaceSplitOperator\",\"anonymous\":false},{\"inputs\":[{\"internalType\":\"uint256\",\"name\":\"revnetId\",\"type\":\"uint256\",\"indexed\":true},{\"internalType\":\"struct JBPayHookSpecification[]\",\"name\":\"payHookSpecifications\",\"type\":\"tuple[]\",\"components\":[{\"internalType\":\"contract IJBPayHook\",\"name\":\"hook\",\"type\":\"address\"},{\"internalType\":\"uint256\",\"name\":\"amount\",\"type\":\"uint256\"},{\"internalType\":\"bytes\",\"name\":\"metadata\",\"type\":\"bytes\"}],\"indexed\":false},{\"internalType\":\"address\",\"name\":\"caller\",\"type\":\"address\",\"indexed\":false}],\"type\":\"event\",\"name\":\"StoredPayHookSpecifications\",\"anonymous\":false},{\"inputs\":[],\"stateMutability\":\"view\",\"type\":\"function\",\"name\":\"CONTROLLER\",\"outputs\":[{\"internalType\":\"contract IJBController\",\"name\":\"\",\"type\":\"address\"}]},{\"inputs\":[],\"stateMutability\":\"view\",\"type\":\"function\",\"name\":\"EXIT_DELAY\",\"outputs\":[{\"internalType\":\"uint256\",\"name\":\"\",\"type\":\"uint256\"}]},{\"inputs\":[],\"stateMutability\":\"view\",\"type\":\"function\",\"name\":\"HOOK_DEPLOYER\",\"outputs\":[{\"internalType\":\"contract IJB721TiersHookDeployer\",\"name\":\"\",\"type\":\"address\"}]},{\"inputs\":[],\"stateMutability\":\"view\",\"type\":\"function\",\"name\":\"PUBLISHER\",\"outputs\":[{\"internalType\":\"contract CTPublisher\",\"name\":\"\",\"type\":\"address\"}]},{\"inputs\":[],\"stateMutability\":\"view\",\"type\":\"function\",\"name\":\"SUCKER_REGISTRY\",\"outputs\":[{\"internalType\":\"contract IBPSuckerRegistry\",\"name\":\"\",\"type\":\"address\"}]},{\"inputs\":[{\"internalType\":\"struct JBBeforePayRecordedContext\",\"name\":\"context\",\"type\":\"tuple\",\"components\":[{\"internalType\":\"address\",\"name\":\"terminal\",\"type\":\"address\"},{\"internalType\":\"address\",\"name\":\"payer\",\"type\":\"address\"},{\"internalType\":\"struct JBTokenAmount\",\"name\":\"amount\",\"type\":\"tuple\",\"components\":[{\"internalType\":\"address\",\"name\":\"token\",\"type\":\"address\"},{\"internalType\":\"uint256\",\"name\":\"value\",\"type\":\"uint256\"},{\"internalType\":\"uint256\",\"name\":\"decimals\",\"type\":\"uint256\"},{\"internalType\":\"uint256\",\"name\":\"currency\",\"type\":\"uint256\"}]},{\"internalType\":\"uint256\",\"name\":\"projectId\",\"type\":\"uint256\"},{\"internalType\":\"uint256\",\"name\":\"rulesetId\",\"type\":\"uint256\"},{\"internalType\":\"address\",\"name\":\"beneficiary\",\"type\":\"address\"},{\"internalType\":\"uint256\",\"name\":\"weight\",\"type\":\"uint256\"},{\"internalType\":\"uint256\",\"name\":\"reservedRate\",\"type\":\"uint256\"},{\"internalType\":\"bytes\",\"name\":\"metadata\",\"type\":\"bytes\"}]}],\"stateMutability\":\"view\",\"type\":\"function\",\"name\":\"beforePayRecordedWith\",\"outputs\":[{\"internalType\":\"uint256\",\"name\":\"weight\",\"type\":\"uint256\"},{\"internalType\":\"struct JBPayHookSpecification[]\",\"name\":\"hookSpecifications\",\"type\":\"tuple[]\",\"components\":[{\"internalType\":\"contract IJBPayHook\",\"name\":\"hook\",\"type\":\"address\"},{\"internalType\":\"uint256\",\"name\":\"amount\",\"type\":\"uint256\"},{\"internalType\":\"bytes\",\"name\":\"metadata\",\"type\":\"bytes\"}]}]},{\"inputs\":[{\"internalType\":\"struct JBBeforeRedeemRecordedContext\",\"name\":\"context\",\"type\":\"tuple\",\"components\":[{\"internalType\":\"address\",\"name\":\"terminal\",\"type\":\"address\"},{\"internalType\":\"address\",\"name\":\"holder\",\"type\":\"address\"},{\"internalType\":\"uint256\",\"name\":\"projectId\",\"type\":\"uint256\"},{\"internalType\":\"uint256\",\"name\":\"rulesetId\",\"type\":\"uint256\"},{\"internalType\":\"uint256\",\"name\":\"redeemCount\",\"type\":\"uint256\"},{\"internalType\":\"uint256\",\"name\":\"totalSupply\",\"type\":\"uint256\"},{\"internalType\":\"struct JBTokenAmount\",\"name\":\"surplus\",\"type\":\"tuple\",\"components\":[{\"internalType\":\"address\",\"name\":\"token\",\"type\":\"address\"},{\"internalType\":\"uint256\",\"name\":\"value\",\"type\":\"uint256\"},{\"internalType\":\"uint256\",\"name\":\"decimals\",\"type\":\"uint256\"},{\"internalType\":\"uint256\",\"name\":\"currency\",\"type\":\"uint256\"}]},{\"internalType\":\"bool\",\"name\":\"useTotalSurplus\",\"type\":\"bool\"},{\"internalType\":\"uint256\",\"name\":\"redemptionRate\",\"type\":\"uint256\"},{\"internalType\":\"bytes\",\"name\":\"metadata\",\"type\":\"bytes\"}]}],\"stateMutability\":\"view\",\"type\":\"function\",\"name\":\"beforeRedeemRecordedWith\",\"outputs\":[{\"internalType\":\"uint256\",\"name\":\"\",\"type\":\"uint256\"},{\"internalType\":\"uint256\",\"name\":\"\",\"type\":\"uint256\"},{\"internalType\":\"uint256\",\"name\":\"\",\"type\":\"uint256\"},{\"internalType\":\"struct JBRedeemHookSpecification[]\",\"name\":\"specifications\",\"type\":\"tuple[]\",\"components\":[{\"internalType\":\"contract IJBRedeemHook\",\"name\":\"hook\",\"type\":\"address\"},{\"internalType\":\"uint256\",\"name\":\"amount\",\"type\":\"uint256\"},{\"internalType\":\"bytes\",\"name\":\"metadata\",\"type\":\"bytes\"}]}]},{\"inputs\":[{\"internalType\":\"uint256\",\"name\":\"revnetId\",\"type\":\"uint256\"}],\"stateMutability\":\"view\",\"type\":\"function\",\"name\":\"buybackHookOf\",\"outputs\":[{\"internalType\":\"contract IJBRulesetDataHook\",\"name\":\"buybackHook\",\"type\":\"address\"}]},{\"inputs\":[{\"internalType\":\"uint256\",\"name\":\"revnetId\",\"type\":\"uint256\"},{\"internalType\":\"bytes\",\"name\":\"encodedConfiguration\",\"type\":\"bytes\"},{\"internalType\":\"struct REVSuckerDeploymentConfig\",\"name\":\"suckerDeploymentConfiguration\",\"type\":\"tuple\",\"components\":[{\"internalType\":\"struct BPSuckerDeployerConfig[]\",\"name\":\"deployerConfigurations\",\"type\":\"tuple[]\",\"components\":[{\"internalType\":\"contract IBPSuckerDeployer\",\"name\":\"deployer\",\"type\":\"address\"},{\"internalType\":\"struct BPTokenMapping[]\",\"name\":\"mappings\",\"type\":\"tuple[]\",\"components\":[{\"internalType\":\"address\",\"name\":\"localToken\",\"type\":\"address\"},{\"internalType\":\"uint32\",\"name\":\"minGas\",\"type\":\"uint32\"},{\"internalType\":\"address\",\"name\":\"remoteToken\",\"type\":\"address\"},{\"internalType\":\"uint256\",\"name\":\"minBridgeAmount\",\"type\":\"uint256\"}]}]},{\"internalType\":\"bytes32\",\"name\":\"salt\",\"type\":\"bytes32\"}]}],\"stateMutability\":\"nonpayable\",\"type\":\"function\",\"name\":\"deploySuckersFor\"},{\"inputs\":[{\"internalType\":\"uint256\",\"name\":\"revnetId\",\"type\":\"uint256\"}],\"stateMutability\":\"view\",\"type\":\"function\",\"name\":\"exitDelayOf\",\"outputs\":[{\"internalType\":\"uint256\",\"name\":\"exitDelay\",\"type\":\"uint256\"}]},{\"inputs\":[{\"internalType\":\"uint256\",\"name\":\"revnetId\",\"type\":\"uint256\"},{\"internalType\":\"address\",\"name\":\"addr\",\"type\":\"address\"}],\"stateMutability\":\"view\",\"type\":\"function\",\"name\":\"hasMintPermissionFor\",\"outputs\":[{\"internalType\":\"bool\",\"name\":\"\",\"type\":\"bool\"}]},{\"inputs\":[{\"internalType\":\"address\",\"name\":\"forwarder\",\"type\":\"address\"}],\"stateMutability\":\"view\",\"type\":\"function\",\"name\":\"isTrustedForwarder\",\"outputs\":[{\"internalType\":\"bool\",\"name\":\"\",\"type\":\"bool\"}]},{\"inputs\":[{\"internalType\":\"uint256\",\"name\":\"revnetId\",\"type\":\"uint256\"},{\"internalType\":\"struct REVConfig\",\"name\":\"configuration\",\"type\":\"tuple\",\"components\":[{\"internalType\":\"struct REVDescription\",\"name\":\"description\",\"type\":\"tuple\",\"components\":[{\"internalType\":\"string\",\"name\":\"name\",\"type\":\"string\"},{\"internalType\":\"string\",\"name\":\"ticker\",\"type\":\"string\"},{\"internalType\":\"string\",\"name\":\"uri\",\"type\":\"string\"},{\"internalType\":\"bytes32\",\"name\":\"salt\",\"type\":\"bytes32\"}]},{\"internalType\":\"uint32\",\"name\":\"baseCurrency\",\"type\":\"uint32\"},{\"internalType\":\"uint256\",\"name\":\"premintTokenAmount\",\"type\":\"uint256\"},{\"internalType\":\"uint256\",\"name\":\"premintChainId\",\"type\":\"uint256\"},{\"internalType\":\"address\",\"name\":\"initialSplitOperator\",\"type\":\"address\"},{\"internalType\":\"struct REVStageConfig[]\",\"name\":\"stageConfigurations\",\"type\":\"tuple[]\",\"components\":[{\"internalType\":\"uint40\",\"name\":\"startsAtOrAfter\",\"type\":\"uint40\"},{\"internalType\":\"uint16\",\"name\":\"splitRate\",\"type\":\"uint16\"},{\"internalType\":\"uint112\",\"name\":\"initialIssuanceRate\",\"type\":\"uint112\"},{\"internalType\":\"uint40\",\"name\":\"priceCeilingIncreaseFrequency\",\"type\":\"uint40\"},{\"internalType\":\"uint32\",\"name\":\"priceCeilingIncreasePercentage\",\"type\":\"uint32\"},{\"internalType\":\"uint16\",\"name\":\"priceFloorTaxIntensity\",\"type\":\"uint16\"}]}]},{\"internalType\":\"struct JBTerminalConfig[]\",\"name\":\"terminalConfigurations\",\"type\":\"tuple[]\",\"components\":[{\"internalType\":\"contract IJBTerminal\",\"name\":\"terminal\",\"type\":\"address\"},{\"internalType\":\"address[]\",\"name\":\"tokensToAccept\",\"type\":\"address[]\"}]},{\"internalType\":\"struct REVBuybackHookConfig\",\"name\":\"buybackHookConfiguration\",\"type\":\"tuple\",\"components\":[{\"internalType\":\"contract IJBBuybackHook\",\"name\":\"hook\",\"type\":\"address\"},{\"internalType\":\"struct REVBuybackPoolConfig[]\",\"name\":\"poolConfigurations\",\"type\":\"tuple[]\",\"components\":[{\"internalType\":\"address\",\"name\":\"token\",\"type\":\"address\"},{\"internalType\":\"uint24\",\"name\":\"fee\",\"type\":\"uint24\"},{\"internalType\":\"uint32\",\"name\":\"twapWindow\",\"type\":\"uint32\"},{\"internalType\":\"uint32\",\"name\":\"twapSlippageTolerance\",\"type\":\"uint32\"}]}]},{\"internalType\":\"struct REVSuckerDeploymentConfig\",\"name\":\"suckerDeploymentConfiguration\",\"type\":\"tuple\",\"components\":[{\"internalType\":\"struct BPSuckerDeployerConfig[]\",\"name\":\"deployerConfigurations\",\"type\":\"tuple[]\",\"components\":[{\"internalType\":\"contract IBPSuckerDeployer\",\"name\":\"deployer\",\"type\":\"address\"},{\"internalType\":\"struct BPTokenMapping[]\",\"name\":\"mappings\",\"type\":\"tuple[]\",\"components\":[{\"internalType\":\"address\",\"name\":\"localToken\",\"type\":\"address\"},{\"internalType\":\"uint32\",\"name\":\"minGas\",\"type\":\"uint32\"},{\"internalType\":\"address\",\"name\":\"remoteToken\",\"type\":\"address\"},{\"internalType\":\"uint256\",\"name\":\"minBridgeAmount\",\"type\":\"uint256\"}]}]},{\"internalType\":\"bytes32\",\"name\":\"salt\",\"type\":\"bytes32\"}]},{\"internalType\":\"struct REVDeploy721TiersHookConfig\",\"name\":\"hookConfiguration\",\"type\":\"tuple\",\"components\":[{\"internalType\":\"struct JBDeploy721TiersHookConfig\",\"name\":\"baseline721HookConfiguration\",\"type\":\"tuple\",\"components\":[{\"internalType\":\"string\",\"name\":\"name\",\"type\":\"string\"},{\"internalType\":\"string\",\"name\":\"symbol\",\"type\":\"string\"},{\"internalType\":\"contract IJBRulesets\",\"name\":\"rulesets\",\"type\":\"address\"},{\"internalType\":\"string\",\"name\":\"baseUri\",\"type\":\"string\"},{\"internalType\":\"contract IJB721TokenUriResolver\",\"name\":\"tokenUriResolver\",\"type\":\"address\"},{\"internalType\":\"string\",\"name\":\"contractUri\",\"type\":\"string\"},{\"internalType\":\"struct JB721InitTiersConfig\",\"name\":\"tiersConfig\",\"type\":\"tuple\",\"components\":[{\"internalType\":\"struct JB721TierConfig[]\",\"name\":\"tiers\",\"type\":\"tuple[]\",\"components\":[{\"internalType\":\"uint104\",\"name\":\"price\",\"type\":\"uint104\"},{\"internalType\":\"uint32\",\"name\":\"initialSupply\",\"type\":\"uint32\"},{\"internalType\":\"uint32\",\"name\":\"votingUnits\",\"type\":\"uint32\"},{\"internalType\":\"uint16\",\"name\":\"reserveFrequency\",\"type\":\"uint16\"},{\"internalType\":\"address\",\"name\":\"reserveBeneficiary\",\"type\":\"address\"},{\"internalType\":\"bytes32\",\"name\":\"encodedIPFSUri\",\"type\":\"bytes32\"},{\"internalType\":\"uint24\",\"name\":\"category\",\"type\":\"uint24\"},{\"internalType\":\"bool\",\"name\":\"allowOwnerMint\",\"type\":\"bool\"},{\"internalType\":\"bool\",\"name\":\"useReserveBeneficiaryAsDefault\",\"type\":\"bool\"},{\"internalType\":\"bool\",\"name\":\"transfersPausable\",\"type\":\"bool\"},{\"internalType\":\"bool\",\"name\":\"useVotingUnits\",\"type\":\"bool\"},{\"internalType\":\"bool\",\"name\":\"cannotBeRemoved\",\"type\":\"bool\"}]},{\"internalType\":\"uint32\",\"name\":\"currency\",\"type\":\"uint32\"},{\"internalType\":\"uint8\",\"name\":\"decimals\",\"type\":\"uint8\"},{\"internalType\":\"contract IJBPrices\",\"name\":\"prices\",\"type\":\"address\"}]},{\"internalType\":\"address\",\"name\":\"reserveBeneficiary\",\"type\":\"address\"},{\"internalType\":\"struct JB721TiersHookFlags\",\"name\":\"flags\",\"type\":\"tuple\",\"components\":[{\"internalType\":\"bool\",\"name\":\"noNewTiersWithReserves\",\"type\":\"bool\"},{\"internalType\":\"bool\",\"name\":\"noNewTiersWithVotes\",\"type\":\"bool\"},{\"internalType\":\"bool\",\"name\":\"noNewTiersWithOwnerMinting\",\"type\":\"bool\"},{\"internalType\":\"bool\",\"name\":\"preventOverspending\",\"type\":\"bool\"}]}]},{\"internalType\":\"bool\",\"name\":\"operatorCanAdjustTiers\",\"type\":\"bool\"},{\"internalType\":\"bool\",\"name\":\"operatorCanUpdateMetadata\",\"type\":\"bool\"},{\"internalType\":\"bool\",\"name\":\"operatorCanMint\",\"type\":\"bool\"}]},{\"internalType\":\"struct JBPayHookSpecification[]\",\"name\":\"otherPayHooksSpecifications\",\"type\":\"tuple[]\",\"components\":[{\"internalType\":\"contract IJBPayHook\",\"name\":\"hook\",\"type\":\"address\"},{\"internalType\":\"uint256\",\"name\":\"amount\",\"type\":\"uint256\"},{\"internalType\":\"bytes\",\"name\":\"metadata\",\"type\":\"bytes\"}]},{\"internalType\":\"uint16\",\"name\":\"extraHookMetadata\",\"type\":\"uint16\"},{\"internalType\":\"struct REVCroptopAllowedPost[]\",\"name\":\"allowedPosts\",\"type\":\"tuple[]\",\"components\":[{\"internalType\":\"uint256\",\"name\":\"category\",\"type\":\"uint256\"},{\"internalType\":\"uint256\",\"name\":\"minimumPrice\",\"type\":\"uint256\"},{\"internalType\":\"uint256\",\"name\":\"minimumTotalSupply\",\"type\":\"uint256\"},{\"internalType\":\"uint256\",\"name\":\"maximumTotalSupply\",\"type\":\"uint256\"},{\"internalType\":\"address[]\",\"name\":\"allowedAddresses\",\"type\":\"address[]\"}]}],\"stateMutability\":\"nonpayable\",\"type\":\"function\",\"name\":\"launchCroptopRevnetFor\",\"outputs\":[{\"internalType\":\"uint256\",\"name\":\"\",\"type\":\"uint256\"},{\"internalType\":\"contract IJB721TiersHook\",\"name\":\"hook\",\"type\":\"address\"}]},{\"inputs\":[{\"internalType\":\"uint256\",\"name\":\"revnetId\",\"type\":\"uint256\"},{\"internalType\":\"struct REVConfig\",\"name\":\"configuration\",\"type\":\"tuple\",\"components\":[{\"internalType\":\"struct REVDescription\",\"name\":\"description\",\"type\":\"tuple\",\"components\":[{\"internalType\":\"string\",\"name\":\"name\",\"type\":\"string\"},{\"internalType\":\"string\",\"name\":\"ticker\",\"type\":\"string\"},{\"internalType\":\"string\",\"name\":\"uri\",\"type\":\"string\"},{\"internalType\":\"bytes32\",\"name\":\"salt\",\"type\":\"bytes32\"}]},{\"internalType\":\"uint32\",\"name\":\"baseCurrency\",\"type\":\"uint32\"},{\"internalType\":\"uint256\",\"name\":\"premintTokenAmount\",\"type\":\"uint256\"},{\"internalType\":\"uint256\",\"name\":\"premintChainId\",\"type\":\"uint256\"},{\"internalType\":\"address\",\"name\":\"initialSplitOperator\",\"type\":\"address\"},{\"internalType\":\"struct REVStageConfig[]\",\"name\":\"stageConfigurations\",\"type\":\"tuple[]\",\"components\":[{\"internalType\":\"uint40\",\"name\":\"startsAtOrAfter\",\"type\":\"uint40\"},{\"internalType\":\"uint16\",\"name\":\"splitRate\",\"type\":\"uint16\"},{\"internalType\":\"uint112\",\"name\":\"initialIssuanceRate\",\"type\":\"uint112\"},{\"internalType\":\"uint40\",\"name\":\"priceCeilingIncreaseFrequency\",\"type\":\"uint40\"},{\"internalType\":\"uint32\",\"name\":\"priceCeilingIncreasePercentage\",\"type\":\"uint32\"},{\"internalType\":\"uint16\",\"name\":\"priceFloorTaxIntensity\",\"type\":\"uint16\"}]}]},{\"internalType\":\"struct JBTerminalConfig[]\",\"name\":\"terminalConfigurations\",\"type\":\"tuple[]\",\"components\":[{\"internalType\":\"contract IJBTerminal\",\"name\":\"terminal\",\"type\":\"address\"},{\"internalType\":\"address[]\",\"name\":\"tokensToAccept\",\"type\":\"address[]\"}]},{\"internalType\":\"struct REVBuybackHookConfig\",\"name\":\"buybackHookConfiguration\",\"type\":\"tuple\",\"components\":[{\"internalType\":\"contract IJBBuybackHook\",\"name\":\"hook\",\"type\":\"address\"},{\"internalType\":\"struct REVBuybackPoolConfig[]\",\"name\":\"poolConfigurations\",\"type\":\"tuple[]\",\"components\":[{\"internalType\":\"address\",\"name\":\"token\",\"type\":\"address\"},{\"internalType\":\"uint24\",\"name\":\"fee\",\"type\":\"uint24\"},{\"internalType\":\"uint32\",\"name\":\"twapWindow\",\"type\":\"uint32\"},{\"internalType\":\"uint32\",\"name\":\"twapSlippageTolerance\",\"type\":\"uint32\"}]}]},{\"internalType\":\"struct REVSuckerDeploymentConfig\",\"name\":\"suckerDeploymentConfiguration\",\"type\":\"tuple\",\"components\":[{\"internalType\":\"struct BPSuckerDeployerConfig[]\",\"name\":\"deployerConfigurations\",\"type\":\"tuple[]\",\"components\":[{\"internalType\":\"contract IBPSuckerDeployer\",\"name\":\"deployer\",\"type\":\"address\"},{\"internalType\":\"struct BPTokenMapping[]\",\"name\":\"mappings\",\"type\":\"tuple[]\",\"components\":[{\"internalType\":\"address\",\"name\":\"localToken\",\"type\":\"address\"},{\"internalType\":\"uint32\",\"name\":\"minGas\",\"type\":\"uint32\"},{\"internalType\":\"address\",\"name\":\"remoteToken\",\"type\":\"address\"},{\"internalType\":\"uint256\",\"name\":\"minBridgeAmount\",\"type\":\"uint256\"}]}]},{\"internalType\":\"bytes32\",\"name\":\"salt\",\"type\":\"bytes32\"}]},{\"internalType\":\"struct JBPayHookSpecification[]\",\"name\":\"payHookSpecifications\",\"type\":\"tuple[]\",\"components\":[{\"internalType\":\"contract IJBPayHook\",\"name\":\"hook\",\"type\":\"address\"},{\"internalType\":\"uint256\",\"name\":\"amount\",\"type\":\"uint256\"},{\"internalType\":\"bytes\",\"name\":\"metadata\",\"type\":\"bytes\"}]},{\"internalType\":\"uint16\",\"name\":\"extraHookMetadata\",\"type\":\"uint16\"}],\"stateMutability\":\"nonpayable\",\"type\":\"function\",\"name\":\"launchPayHookRevnetFor\",\"outputs\":[{\"internalType\":\"uint256\",\"name\":\"\",\"type\":\"uint256\"}]},{\"inputs\":[{\"internalType\":\"uint256\",\"name\":\"revnetId\",\"type\":\"uint256\"},{\"internalType\":\"struct REVConfig\",\"name\":\"configuration\",\"type\":\"tuple\",\"components\":[{\"internalType\":\"struct REVDescription\",\"name\":\"description\",\"type\":\"tuple\",\"components\":[{\"internalType\":\"string\",\"name\":\"name\",\"type\":\"string\"},{\"internalType\":\"string\",\"name\":\"ticker\",\"type\":\"string\"},{\"internalType\":\"string\",\"name\":\"uri\",\"type\":\"string\"},{\"internalType\":\"bytes32\",\"name\":\"salt\",\"type\":\"bytes32\"}]},{\"internalType\":\"uint32\",\"name\":\"baseCurrency\",\"type\":\"uint32\"},{\"internalType\":\"uint256\",\"name\":\"premintTokenAmount\",\"type\":\"uint256\"},{\"internalType\":\"uint256\",\"name\":\"premintChainId\",\"type\":\"uint256\"},{\"internalType\":\"address\",\"name\":\"initialSplitOperator\",\"type\":\"address\"},{\"internalType\":\"struct REVStageConfig[]\",\"name\":\"stageConfigurations\",\"type\":\"tuple[]\",\"components\":[{\"internalType\":\"uint40\",\"name\":\"startsAtOrAfter\",\"type\":\"uint40\"},{\"internalType\":\"uint16\",\"name\":\"splitRate\",\"type\":\"uint16\"},{\"internalType\":\"uint112\",\"name\":\"initialIssuanceRate\",\"type\":\"uint112\"},{\"internalType\":\"uint40\",\"name\":\"priceCeilingIncreaseFrequency\",\"type\":\"uint40\"},{\"internalType\":\"uint32\",\"name\":\"priceCeilingIncreasePercentage\",\"type\":\"uint32\"},{\"internalType\":\"uint16\",\"name\":\"priceFloorTaxIntensity\",\"type\":\"uint16\"}]}]},{\"internalType\":\"struct JBTerminalConfig[]\",\"name\":\"terminalConfigurations\",\"type\":\"tuple[]\",\"components\":[{\"internalType\":\"contract IJBTerminal\",\"name\":\"terminal\",\"type\":\"address\"},{\"internalType\":\"address[]\",\"name\":\"tokensToAccept\",\"type\":\"address[]\"}]},{\"internalType\":\"struct REVBuybackHookConfig\",\"name\":\"buybackHookConfiguration\",\"type\":\"tuple\",\"components\":[{\"internalType\":\"contract IJBBuybackHook\",\"name\":\"hook\",\"type\":\"address\"},{\"internalType\":\"struct REVBuybackPoolConfig[]\",\"name\":\"poolConfigurations\",\"type\":\"tuple[]\",\"components\":[{\"internalType\":\"address\",\"name\":\"token\",\"type\":\"address\"},{\"internalType\":\"uint24\",\"name\":\"fee\",\"type\":\"uint24\"},{\"internalType\":\"uint32\",\"name\":\"twapWindow\",\"type\":\"uint32\"},{\"internalType\":\"uint32\",\"name\":\"twapSlippageTolerance\",\"type\":\"uint32\"}]}]},{\"internalType\":\"struct REVSuckerDeploymentConfig\",\"name\":\"suckerDeploymentConfiguration\",\"type\":\"tuple\",\"components\":[{\"internalType\":\"struct BPSuckerDeployerConfig[]\",\"name\":\"deployerConfigurations\",\"type\":\"tuple[]\",\"components\":[{\"internalType\":\"contract IBPSuckerDeployer\",\"name\":\"deployer\",\"type\":\"address\"},{\"internalType\":\"struct BPTokenMapping[]\",\"name\":\"mappings\",\"type\":\"tuple[]\",\"components\":[{\"internalType\":\"address\",\"name\":\"localToken\",\"type\":\"address\"},{\"internalType\":\"uint32\",\"name\":\"minGas\",\"type\":\"uint32\"},{\"internalType\":\"address\",\"name\":\"remoteToken\",\"type\":\"address\"},{\"internalType\":\"uint256\",\"name\":\"minBridgeAmount\",\"type\":\"uint256\"}]}]},{\"internalType\":\"bytes32\",\"name\":\"salt\",\"type\":\"bytes32\"}]}],\"stateMutability\":\"nonpayable\",\"type\":\"function\",\"name\":\"launchRevnetFor\",\"outputs\":[{\"internalType\":\"uint256\",\"name\":\"\",\"type\":\"uint256\"}]},{\"inputs\":[{\"internalType\":\"uint256\",\"name\":\"revnetId\",\"type\":\"uint256\"},{\"internalType\":\"struct REVConfig\",\"name\":\"configuration\",\"type\":\"tuple\",\"components\":[{\"internalType\":\"struct REVDescription\",\"name\":\"description\",\"type\":\"tuple\",\"components\":[{\"internalType\":\"string\",\"name\":\"name\",\"type\":\"string\"},{\"internalType\":\"string\",\"name\":\"ticker\",\"type\":\"string\"},{\"internalType\":\"string\",\"name\":\"uri\",\"type\":\"string\"},{\"internalType\":\"bytes32\",\"name\":\"salt\",\"type\":\"bytes32\"}]},{\"internalType\":\"uint32\",\"name\":\"baseCurrency\",\"type\":\"uint32\"},{\"internalType\":\"uint256\",\"name\":\"premintTokenAmount\",\"type\":\"uint256\"},{\"internalType\":\"uint256\",\"name\":\"premintChainId\",\"type\":\"uint256\"},{\"internalType\":\"address\",\"name\":\"initialSplitOperator\",\"type\":\"address\"},{\"internalType\":\"struct REVStageConfig[]\",\"name\":\"stageConfigurations\",\"type\":\"tuple[]\",\"components\":[{\"internalType\":\"uint40\",\"name\":\"startsAtOrAfter\",\"type\":\"uint40\"},{\"internalType\":\"uint16\",\"name\":\"splitRate\",\"type\":\"uint16\"},{\"internalType\":\"uint112\",\"name\":\"initialIssuanceRate\",\"type\":\"uint112\"},{\"internalType\":\"uint40\",\"name\":\"priceCeilingIncreaseFrequency\",\"type\":\"uint40\"},{\"internalType\":\"uint32\",\"name\":\"priceCeilingIncreasePercentage\",\"type\":\"uint32\"},{\"internalType\":\"uint16\",\"name\":\"priceFloorTaxIntensity\",\"type\":\"uint16\"}]}]},{\"internalType\":\"struct JBTerminalConfig[]\",\"name\":\"terminalConfigurations\",\"type\":\"tuple[]\",\"components\":[{\"internalType\":\"contract IJBTerminal\",\"name\":\"terminal\",\"type\":\"address\"},{\"internalType\":\"address[]\",\"name\":\"tokensToAccept\",\"type\":\"address[]\"}]},{\"internalType\":\"struct REVBuybackHookConfig\",\"name\":\"buybackHookConfiguration\",\"type\":\"tuple\",\"components\":[{\"internalType\":\"contract IJBBuybackHook\",\"name\":\"hook\",\"type\":\"address\"},{\"internalType\":\"struct REVBuybackPoolConfig[]\",\"name\":\"poolConfigurations\",\"type\":\"tuple[]\",\"components\":[{\"internalType\":\"address\",\"name\":\"token\",\"type\":\"address\"},{\"internalType\":\"uint24\",\"name\":\"fee\",\"type\":\"uint24\"},{\"internalType\":\"uint32\",\"name\":\"twapWindow\",\"type\":\"uint32\"},{\"internalType\":\"uint32\",\"name\":\"twapSlippageTolerance\",\"type\":\"uint32\"}]}]},{\"internalType\":\"struct REVSuckerDeploymentConfig\",\"name\":\"suckerDeploymentConfiguration\",\"type\":\"tuple\",\"components\":[{\"internalType\":\"struct BPSuckerDeployerConfig[]\",\"name\":\"deployerConfigurations\",\"type\":\"tuple[]\",\"components\":[{\"internalType\":\"contract IBPSuckerDeployer\",\"name\":\"deployer\",\"type\":\"address\"},{\"internalType\":\"struct BPTokenMapping[]\",\"name\":\"mappings\",\"type\":\"tuple[]\",\"components\":[{\"internalType\":\"address\",\"name\":\"localToken\",\"type\":\"address\"},{\"internalType\":\"uint32\",\"name\":\"minGas\",\"type\":\"uint32\"},{\"internalType\":\"address\",\"name\":\"remoteToken\",\"type\":\"address\"},{\"internalType\":\"uint256\",\"name\":\"minBridgeAmount\",\"type\":\"uint256\"}]}]},{\"internalType\":\"bytes32\",\"name\":\"salt\",\"type\":\"bytes32\"}]},{\"internalType\":\"struct REVDeploy721TiersHookConfig\",\"name\":\"hookConfiguration\",\"type\":\"tuple\",\"components\":[{\"internalType\":\"struct JBDeploy721TiersHookConfig\",\"name\":\"baseline721HookConfiguration\",\"type\":\"tuple\",\"components\":[{\"internalType\":\"string\",\"name\":\"name\",\"type\":\"string\"},{\"internalType\":\"string\",\"name\":\"symbol\",\"type\":\"string\"},{\"internalType\":\"contract IJBRulesets\",\"name\":\"rulesets\",\"type\":\"address\"},{\"internalType\":\"string\",\"name\":\"baseUri\",\"type\":\"string\"},{\"internalType\":\"contract IJB721TokenUriResolver\",\"name\":\"tokenUriResolver\",\"type\":\"address\"},{\"internalType\":\"string\",\"name\":\"contractUri\",\"type\":\"string\"},{\"internalType\":\"struct JB721InitTiersConfig\",\"name\":\"tiersConfig\",\"type\":\"tuple\",\"components\":[{\"internalType\":\"struct JB721TierConfig[]\",\"name\":\"tiers\",\"type\":\"tuple[]\",\"components\":[{\"internalType\":\"uint104\",\"name\":\"price\",\"type\":\"uint104\"},{\"internalType\":\"uint32\",\"name\":\"initialSupply\",\"type\":\"uint32\"},{\"internalType\":\"uint32\",\"name\":\"votingUnits\",\"type\":\"uint32\"},{\"internalType\":\"uint16\",\"name\":\"reserveFrequency\",\"type\":\"uint16\"},{\"internalType\":\"address\",\"name\":\"reserveBeneficiary\",\"type\":\"address\"},{\"internalType\":\"bytes32\",\"name\":\"encodedIPFSUri\",\"type\":\"bytes32\"},{\"internalType\":\"uint24\",\"name\":\"category\",\"type\":\"uint24\"},{\"internalType\":\"bool\",\"name\":\"allowOwnerMint\",\"type\":\"bool\"},{\"internalType\":\"bool\",\"name\":\"useReserveBeneficiaryAsDefault\",\"type\":\"bool\"},{\"internalType\":\"bool\",\"name\":\"transfersPausable\",\"type\":\"bool\"},{\"internalType\":\"bool\",\"name\":\"useVotingUnits\",\"type\":\"bool\"},{\"internalType\":\"bool\",\"name\":\"cannotBeRemoved\",\"type\":\"bool\"}]},{\"internalType\":\"uint32\",\"name\":\"currency\",\"type\":\"uint32\"},{\"internalType\":\"uint8\",\"name\":\"decimals\",\"type\":\"uint8\"},{\"internalType\":\"contract IJBPrices\",\"name\":\"prices\",\"type\":\"address\"}]},{\"internalType\":\"address\",\"name\":\"reserveBeneficiary\",\"type\":\"address\"},{\"internalType\":\"struct JB721TiersHookFlags\",\"name\":\"flags\",\"type\":\"tuple\",\"components\":[{\"internalType\":\"bool\",\"name\":\"noNewTiersWithReserves\",\"type\":\"bool\"},{\"internalType\":\"bool\",\"name\":\"noNewTiersWithVotes\",\"type\":\"bool\"},{\"internalType\":\"bool\",\"name\":\"noNewTiersWithOwnerMinting\",\"type\":\"bool\"},{\"internalType\":\"bool\",\"name\":\"preventOverspending\",\"type\":\"bool\"}]}]},{\"internalType\":\"bool\",\"name\":\"operatorCanAdjustTiers\",\"type\":\"bool\"},{\"internalType\":\"bool\",\"name\":\"operatorCanUpdateMetadata\",\"type\":\"bool\"},{\"internalType\":\"bool\",\"name\":\"operatorCanMint\",\"type\":\"bool\"}]},{\"internalType\":\"struct JBPayHookSpecification[]\",\"name\":\"otherPayHooksSpecifications\",\"type\":\"tuple[]\",\"components\":[{\"internalType\":\"contract IJBPayHook\",\"name\":\"hook\",\"type\":\"address\"},{\"internalType\":\"uint256\",\"name\":\"amount\",\"type\":\"uint256\"},{\"internalType\":\"bytes\",\"name\":\"metadata\",\"type\":\"bytes\"}]},{\"internalType\":\"uint16\",\"name\":\"extraHookMetadata\",\"type\":\"uint16\"}],\"stateMutability\":\"nonpayable\",\"type\":\"function\",\"name\":\"launchTiered721RevnetFor\",\"outputs\":[{\"internalType\":\"uint256\",\"name\":\"\",\"type\":\"uint256\"},{\"internalType\":\"contract IJB721TiersHook\",\"name\":\"hook\",\"type\":\"address\"}]},{\"inputs\":[{\"internalType\":\"address\",\"name\":\"operator\",\"type\":\"address\"},{\"internalType\":\"address\",\"name\":\"\",\"type\":\"address\"},{\"internalType\":\"uint256\",\"name\":\"tokenId\",\"type\":\"uint256\"},{\"internalType\":\"bytes\",\"name\":\"data\",\"type\":\"bytes\"}],\"stateMutability\":\"view\",\"type\":\"function\",\"name\":\"onERC721Received\",\"outputs\":[{\"internalType\":\"bytes4\",\"name\":\"\",\"type\":\"bytes4\"}]},{\"inputs\":[{\"internalType\":\"uint256\",\"name\":\"revnetId\",\"type\":\"uint256\"}],\"stateMutability\":\"view\",\"type\":\"function\",\"name\":\"payHookSpecificationsOf\",\"outputs\":[{\"internalType\":\"struct JBPayHookSpecification[]\",\"name\":\"\",\"type\":\"tuple[]\",\"components\":[{\"internalType\":\"contract IJBPayHook\",\"name\":\"hook\",\"type\":\"address\"},{\"internalType\":\"uint256\",\"name\":\"amount\",\"type\":\"uint256\"},{\"internalType\":\"bytes\",\"name\":\"metadata\",\"type\":\"bytes\"}]}]},{\"inputs\":[{\"internalType\":\"uint256\",\"name\":\"revnetId\",\"type\":\"uint256\"},{\"internalType\":\"address\",\"name\":\"newSplitOperator\",\"type\":\"address\"}],\"stateMutability\":\"nonpayable\",\"type\":\"function\",\"name\":\"replaceSplitOperatorOf\"},{\"inputs\":[{\"internalType\":\"bytes4\",\"name\":\"interfaceId\",\"type\":\"bytes4\"}],\"stateMutability\":\"view\",\"type\":\"function\",\"name\":\"supportsInterface\",\"outputs\":[{\"internalType\":\"bool\",\"name\":\"\",\"type\":\"bool\"}]},{\"inputs\":[],\"stateMutability\":\"view\",\"type\":\"function\",\"name\":\"trustedForwarder\",\"outputs\":[{\"internalType\":\"address\",\"name\":\"\",\"type\":\"address\"}]}],\"devdoc\":{\"kind\":\"dev\",\"methods\":{\"beforePayRecordedWith((address,address,(address,uint256,uint256,uint256),uint256,uint256,address,uint256,uint256,bytes))\":{\"details\":\"Part of IJBFundingCycleDataSource.This implementation just sets this contract up to receive a `didPay` call.\",\"params\":{\"context\":\"The Juicebox standard network payment context. See\"},\"returns\":{\"hookSpecifications\":\"Amount to be sent to pay hooks instead of adding to local balance. Useful for auto-routing funds from a treasury as payment come in.\",\"weight\":\"The weight that network tokens should get minted relative to. This is useful for optionally customizing how many tokens are issued per payment.\"}},\"constructor\":{\"params\":{\"controller\":\"The controller that revnets are made from.\",\"hookDeployer\":\"The 721 tiers hook deployer.\",\"publisher\":\"The croptop publisher that facilitates the permissioned publishing of 721 posts to a revnet.\",\"suckerRegistry\":\"The registry that deploys and tracks each project's suckers.\",\"trustedForwarder\":\"The trusted forwarder for the ERC2771Context.\"}},\"deploySuckersFor(uint256,bytes,((address,(address,uint32,address,uint256)[])[],bytes32))\":{\"params\":{\"encodedConfiguration\":\"A bytes representation of the revnet's configuration.\",\"revnetId\":\"The ID of the revnet having new suckers deployed.\",\"suckerDeploymentConfiguration\":\"The specifics about the suckers being deployed.\"}},\"hasMintPermissionFor(uint256,address)\":{\"params\":{\"addr\":\"The address to check if has permissions.\",\"revnetId\":\"The ID of the revnet to check permissions for.\"},\"returns\":{\"_0\":\"flag The flag indicating if the address has permissions to mint on the revnet's behalf.\"}},\"isTrustedForwarder(address)\":{\"details\":\"Indicates whether any particular address is the trusted forwarder.\"},\"launchCroptopRevnetFor(uint256,((string,string,string,bytes32),uint32,uint256,uint256,address,(uint40,uint16,uint112,uint40,uint32,uint16)[]),(address,address[])[],(address,(address,uint24,uint32,uint32)[]),((address,(address,uint32,address,uint256)[])[],bytes32),((string,string,address,string,address,string,((uint104,uint32,uint32,uint16,address,bytes32,uint24,bool,bool,bool,bool,bool)[],uint32,uint8,address),address,(bool,bool,bool,bool)),bool,bool,bool),(address,uint256,bytes)[],uint16,(uint256,uint256,uint256,uint256,address[])[])\":{\"params\":{\"allowedPosts\":\"The type of posts that the revent should allow.\",\"buybackHookConfiguration\":\"Data used for setting up the buyback hook to use when determining the best price for new participants.\",\"configuration\":\"The data needed to deploy a basic revnet.\",\"extraHookMetadata\":\"Extra metadata to attach to the cycle for the delegates to use.\",\"hookConfiguration\":\"Data used for setting up the 721 tiers.\",\"otherPayHooksSpecifications\":\"Any hooks that should run when the revnet is paid alongside the 721 hook.\",\"revnetId\":\"The ID of the Juicebox project to turn into a revnet. Send 0 to deploy a new revnet.\",\"suckerDeploymentConfiguration\":\"Information about how this revnet relates to other's across chains.\",\"terminalConfigurations\":\"The terminals that the network uses to accept payments through.\"},\"returns\":{\"_0\":\"revnetId The ID of the newly created revnet.\",\"hook\":\"The address of the 721 hook that was deployed on the revnet.\"}},\"launchPayHookRevnetFor(uint256,((string,string,string,bytes32),uint32,uint256,uint256,address,(uint40,uint16,uint112,uint40,uint32,uint16)[]),(address,address[])[],(address,(address,uint24,uint32,uint32)[]),((address,(address,uint32,address,uint256)[])[],bytes32),(address,uint256,bytes)[],uint16)\":{\"params\":{\"buybackHookConfiguration\":\"Data used for setting up the buyback hook to use when determining the best price for new participants.\",\"configuration\":\"The data needed to deploy a basic revnet.\",\"extraHookMetadata\":\"Extra metadata to attach to the cycle for the delegates to use.\",\"payHookSpecifications\":\"Any hooks that should run when the revnet is paid.\",\"revnetId\":\"The ID of the Juicebox project to turn into a revnet. Send 0 to deploy a new revnet.\",\"suckerDeploymentConfiguration\":\"Information about how this revnet relates to other's across chains.\",\"terminalConfigurations\":\"The terminals that the network uses to accept payments through.\"},\"returns\":{\"_0\":\"revnetId The ID of the newly created revnet.\"}},\"launchRevnetFor(uint256,((string,string,string,bytes32),uint32,uint256,uint256,address,(uint40,uint16,uint112,uint40,uint32,uint16)[]),(address,address[])[],(address,(address,uint24,uint32,uint32)[]),((address,(address,uint32,address,uint256)[])[],bytes32))\":{\"params\":{\"buybackHookConfiguration\":\"Data used for setting up the buyback hook to use when determining the best price for new participants.\",\"configuration\":\"The data needed to deploy a basic revnet.\",\"revnetId\":\"The ID of the Juicebox project to turn into a revnet. Send 0 to deploy a new revnet.\",\"suckerDeploymentConfiguration\":\"Information about how this revnet relates to other's across chains.\",\"terminalConfigurations\":\"The terminals that the network uses to accept payments through.\"},\"returns\":{\"_0\":\"revnetId The ID of the newly created revnet.\"}},\"launchTiered721RevnetFor(uint256,((string,string,string,bytes32),uint32,uint256,uint256,address,(uint40,uint16,uint112,uint40,uint32,uint16)[]),(address,address[])[],(address,(address,uint24,uint32,uint32)[]),((address,(address,uint32,address,uint256)[])[],bytes32),((string,string,address,string,address,string,((uint104,uint32,uint32,uint16,address,bytes32,uint24,bool,bool,bool,bool,bool)[],uint32,uint8,address),address,(bool,bool,bool,bool)),bool,bool,bool),(address,uint256,bytes)[],uint16)\":{\"params\":{\"buybackHookConfiguration\":\"Data used for setting up the buyback hook to use when determining the best price for new participants.\",\"configuration\":\"The data needed to deploy a basic revnet.\",\"extraHookMetadata\":\"Extra metadata to attach to the cycle for the delegates to use.\",\"hookConfiguration\":\"Data used for setting up the 721 tiers.\",\"otherPayHooksSpecifications\":\"Any hooks that should run when the revnet is paid alongside the 721 hook.\",\"revnetId\":\"The ID of the Juicebox project to turn into a revnet. Send 0 to deploy a new revnet.\",\"suckerDeploymentConfiguration\":\"Information about how this revnet relates to other's across chains.\",\"terminalConfigurations\":\"The terminals that the network uses to accept payments through.\"},\"returns\":{\"_0\":\"revnetId The ID of the newly created revnet.\",\"hook\":\"The address of the 721 hook that was deployed on the revnet.\"}},\"onERC721Received(address,address,uint256,bytes)\":{\"details\":\"Make sure only mints can be received.\"},\"payHookSpecificationsOf(uint256)\":{\"params\":{\"revnetId\":\"The ID of the revnet to which the extensions apply.\"},\"returns\":{\"_0\":\"payHookSpecifications The pay hooks.\"}},\"replaceSplitOperatorOf(uint256,address)\":{\"params\":{\"newSplitOperator\":\"The address of the new split operator.\",\"revnetId\":\"The ID of the revnet having its operator replaced.\"}},\"supportsInterface(bytes4)\":{\"details\":\"See {IERC165-supportsInterface}.\",\"params\":{\"interfaceId\":\"The ID of the interface to check for adherence to.\"},\"returns\":{\"_0\":\"A flag indicating if the provided interface ID is supported.\"}},\"trustedForwarder()\":{\"details\":\"Returns the address of the trusted forwarder.\"}},\"version\":1},\"userdoc\":{\"kind\":\"user\",\"methods\":{\"CONTROLLER()\":{\"notice\":\"The controller that networks are made from.\"},\"EXIT_DELAY()\":{\"notice\":\"The amount of time from a sucker being deployed to when it can facilitate exits.\"},\"HOOK_DEPLOYER()\":{\"notice\":\"The contract responsible for deploying the tiered 721 hook.\"},\"PUBLISHER()\":{\"notice\":\"The croptop publisher that facilitates the permissioned publishing of 721 posts to a revnet.\"},\"SUCKER_REGISTRY()\":{\"notice\":\"The registry that deploys and tracks each project's suckers.\"},\"beforePayRecordedWith((address,address,(address,uint256,uint256,uint256),uint256,uint256,address,uint256,uint256,bytes))\":{\"notice\":\"This function gets called when the revnet receives a payment.\"},\"beforeRedeemRecordedWith((address,address,uint256,uint256,uint256,uint256,(address,uint256,uint256,uint256),bool,uint256,bytes))\":{\"notice\":\"This function is never called, it needs to be included to adhere to the interface.\"},\"buybackHookOf(uint256)\":{\"notice\":\"The data hook that returns the correct values for the buyback hook of each network.\"},\"deploySuckersFor(uint256,bytes,((address,(address,uint32,address,uint256)[])[],bytes32))\":{\"notice\":\"Allows a revnet's split operator to deploy new suckers to the revnet after it's deployed.\"},\"exitDelayOf(uint256)\":{\"notice\":\"The time at which exits from a revnet become allowed.\"},\"hasMintPermissionFor(uint256,address)\":{\"notice\":\"Required by the IJBRulesetDataHook interfaces.\"},\"launchCroptopRevnetFor(uint256,((string,string,string,bytes32),uint32,uint256,uint256,address,(uint40,uint16,uint112,uint40,uint32,uint16)[]),(address,address[])[],(address,(address,uint24,uint32,uint32)[]),((address,(address,uint32,address,uint256)[])[],bytes32),((string,string,address,string,address,string,((uint104,uint32,uint32,uint16,address,bytes32,uint24,bool,bool,bool,bool,bool)[],uint32,uint8,address),address,(bool,bool,bool,bool)),bool,bool,bool),(address,uint256,bytes)[],uint16,(uint256,uint256,uint256,uint256,address[])[])\":{\"notice\":\"Launch a revnet that supports 721 sales.\"},\"launchPayHookRevnetFor(uint256,((string,string,string,bytes32),uint32,uint256,uint256,address,(uint40,uint16,uint112,uint40,uint32,uint16)[]),(address,address[])[],(address,(address,uint24,uint32,uint32)[]),((address,(address,uint32,address,uint256)[])[],bytes32),(address,uint256,bytes)[],uint16)\":{\"notice\":\"Launch a basic revnet that also calls other specified pay hooks.\"},\"launchRevnetFor(uint256,((string,string,string,bytes32),uint32,uint256,uint256,address,(uint40,uint16,uint112,uint40,uint32,uint16)[]),(address,address[])[],(address,(address,uint24,uint32,uint32)[]),((address,(address,uint32,address,uint256)[])[],bytes32))\":{\"notice\":\"Launch a basic revnet.\"},\"launchTiered721RevnetFor(uint256,((string,string,string,bytes32),uint32,uint256,uint256,address,(uint40,uint16,uint112,uint40,uint32,uint16)[]),(address,address[])[],(address,(address,uint24,uint32,uint32)[]),((address,(address,uint32,address,uint256)[])[],bytes32),((string,string,address,string,address,string,((uint104,uint32,uint32,uint16,address,bytes32,uint24,bool,bool,bool,bool,bool)[],uint32,uint8,address),address,(bool,bool,bool,bool)),bool,bool,bool),(address,uint256,bytes)[],uint16)\":{\"notice\":\"Launch a revnet that supports 721 sales.\"},\"payHookSpecificationsOf(uint256)\":{\"notice\":\"The pay hooks to include during payments to networks.\"},\"replaceSplitOperatorOf(uint256,address)\":{\"notice\":\"A revnet's operator can replace itself.\"},\"supportsInterface(bytes4)\":{\"notice\":\"Indicates if this contract adheres to the specified interface.\"}},\"version\":1}},\"settings\":{\"remappings\":[\"@arbitrum/=node_modules/@arbitrum/\",\"@bananapus/=node_modules/@bananapus/\",\"@chainlink/=node_modules/@chainlink/\",\"@croptop/=node_modules/@croptop/\",\"@eth-optimism/=node_modules/@eth-optimism/\",\"@exhausted-pigeon/=node_modules/@exhausted-pigeon/\",\"@offchainlabs/=node_modules/@offchainlabs/\",\"@openzeppelin/=node_modules/@openzeppelin/\",\"@prb/=node_modules/@prb/\",\"@scroll-tech/=node_modules/@scroll-tech/\",\"@sphinx-labs/contracts/=node_modules/@sphinx-labs/contracts/contracts/foundry/\",\"@uniswap/=node_modules/@uniswap/\",\"base64-sol/=node_modules/base64-sol/\",\"ds-test/=lib/forge-std/lib/ds-test/src/\",\"forge-std/=lib/forge-std/src/\",\"hardhat/=node_modules/hardhat/\",\"solmate/=node_modules/solmate/\",\"sphinx/=lib/sphinx/packages/contracts/contracts/forge-std/src/\"],\"optimizer\":{\"enabled\":true,\"runs\":1000},\"metadata\":{\"bytecodeHash\":\"ipfs\"},\"compilationTarget\":{\"src/REVCroptopDeployer.sol\":\"REVCroptopDeployer\"},\"evmVersion\":\"paris\",\"libraries\":{}},\"sources\":{\"node_modules/@bananapus/721-hook/src/interfaces/IJB721Hook.sol\":{\"keccak256\":\"0x24935445bc4c5b0fe2a10aabe549122588940842a68e79a8c39b1df9458dd7fd\",\"urls\":[\"bzz-raw://1dee273fa76d9abae116de911fdda5e3113db2a58939e62e24fba98c63fd037a\",\"dweb:/ipfs/QmT6Lih7DeRAfrLc8uC7ecaw2EAKwhaP2BZHeY5DxeeVLM\"],\"license\":\"MIT\"},\"node_modules/@bananapus/721-hook/src/interfaces/IJB721TiersHook.sol\":{\"keccak256\":\"0xbd9a8dae00a4b1a02c628bd172fe4ae496e49f7651426cef08774ffdb6125c23\",\"urls\":[\"bzz-raw://9ce4fd77d5af1f570dad6b70758f09f9599768e1ab32f6b473f6181197daa0c8\",\"dweb:/ipfs/QmWj6sCTvZ2CbfSyRuhaXADxYbwwPcR42pZokcgfjpsabg\"],\"license\":\"MIT\"},\"node_modules/@bananapus/721-hook/src/interfaces/IJB721TiersHookDeployer.sol\":{\"keccak256\":\"0xc4c6dfd2573fe1f130bc5193da68a622959a11562010fa261ffd3a8893e08a7b\",\"urls\":[\"bzz-raw://0c34f79121f6c777bca3df6c2e87c0caa05146bec45e9ae29f41b0532d16c88e\",\"dweb:/ipfs/QmZJQVZC8uuuSssXtLnhsvisz7V2PCKs2s1Hbzo8hmZ9ZP\"],\"license\":\"MIT\"},\"node_modules/@bananapus/721-hook/src/interfaces/IJB721TiersHookStore.sol\":{\"keccak256\":\"0x8550e216c12c9cda865c1b1b0eb3f244aeaa8d465b197d4bd0dd8d4df265682e\",\"urls\":[\"bzz-raw://674a312f1eaffd7c6b21f58f8d4a628104e71220daf48a22237fa3bd035ddf21\",\"dweb:/ipfs/QmSRSW6cSwdpoGjVxDqiwJmJyCxfHWhCxZ2iaqeJcN2Ccy\"],\"license\":\"MIT\"},\"node_modules/@bananapus/721-hook/src/interfaces/IJB721TokenUriResolver.sol\":{\"keccak256\":\"0xfa599167098f4459320ec4141a98a17b2dfffbce422baa27d8b4e4530f61ece1\",\"urls\":[\"bzz-raw://8b758b161f4c7b520b2c34b4d91e585e961b8f4ca278eebb91d791f7f2f45140\",\"dweb:/ipfs/QmcD9DF7NJ9QykQpT4KPzm4bs3fkjzukdAUWwdU6Atfw85\"],\"license\":\"MIT\"},\"node_modules/@bananapus/721-hook/src/structs/JB721InitTiersConfig.sol\":{\"keccak256\":\"0xfb78486cec94189d0ecf2050dc9cfc11245b426c73a0711a85bff1359d774307\",\"urls\":[\"bzz-raw://a8fa01f6e64dd204dbde07a60851e9a5a74e439e1411139ae16b7cf67d2a2692\",\"dweb:/ipfs/QmZAnHyfpKr3xr7NWHj5sGaCEEtG8RtmHhkRUJJvNauym5\"],\"license\":\"MIT\"},\"node_modules/@bananapus/721-hook/src/structs/JB721Tier.sol\":{\"keccak256\":\"0x2e267a8af02f125465cdda9308477346ae4a94b024c3b2c2a6af0c00027944dd\",\"urls\":[\"bzz-raw://367ccea2c8fa815d498d771d4367ef1ded718a76e89644102034bfe4a3636b82\",\"dweb:/ipfs/QmYiFFa6ei9wZBSSVUHfY2Cb35zCDVXvbmLcgLj2BTiC1u\"],\"license\":\"MIT\"},\"node_modules/@bananapus/721-hook/src/structs/JB721TierConfig.sol\":{\"keccak256\":\"0x2fa9c5c8cec182b854a656d3b284e9d5306be35ad3dc4da79d65dca12b804af0\",\"urls\":[\"bzz-raw://b443a5f70195a66145ea1dade04454ce9a3ff1209e1aaecf53c8a9909b294d79\",\"dweb:/ipfs/QmUDPFZ4L6XpV3zLQUNVchUvecD4XfddKz2S46BKek5XL1\"],\"license\":\"MIT\"},\"node_modules/@bananapus/721-hook/src/structs/JB721TiersHookFlags.sol\":{\"keccak256\":\"0x283d8429f31bd58875c056515aa42abd09c95362bd929e85cfc44a0d92585766\",\"urls\":[\"bzz-raw://9a580b89fe99d9f8e930c58a4d0d63a5ff7c01c79d210af01373d066c9e72ed6\",\"dweb:/ipfs/QmdY1eSGSoTjv4KSdsG4Tm5CzJN6iqk3qTRga5ZWNbejRz\"],\"license\":\"MIT\"},\"node_modules/@bananapus/721-hook/src/structs/JB721TiersMintReservesConfig.sol\":{\"keccak256\":\"0xab3b319dc4e736586ae595de194d93dcdfeba365bc7a54cf6c37e697f6074ad9\",\"urls\":[\"bzz-raw://a84ae2cf2e8c3e39e831dbb39a67a8eb43c78a6de6bb78b1be2e1f1e80c69efe\",\"dweb:/ipfs/QmboGXEMqsYTxc4a7oft9rggNU7ShWSa9yB4HFMVmzXCHz\"],\"license\":\"MIT\"},\"node_modules/@bananapus/721-hook/src/structs/JBDeploy721TiersHookConfig.sol\":{\"keccak256\":\"0x4f0b8bbc19a405a096a16977fa1eedc0c56640ef777add89c050f989a62a6a35\",\"urls\":[\"bzz-raw://bd009c66aa748a2ce04720a6376683ce01ced3c0bd7f9534e145263aa49d95d3\",\"dweb:/ipfs/QmXyJCS1uQevdkw1Gc4UrRs8fZKtW9wPWFY9pxUWHKLo4e\"],\"license\":\"MIT\"},\"node_modules/@bananapus/buyback-hook/src/interfaces/IJBBuybackHook.sol\":{\"keccak256\":\"0xbe5d7f3bf2e18b569676ba9194e248e6b1ed50022f5247b4f1fa124c91bfd418\",\"urls\":[\"bzz-raw://eb221d1570e8aad409c419b6a2f84351e818c3527f3f44b806cd64c84d7a8c86\",\"dweb:/ipfs/QmUPZstaKjPN7VTywg3Mt6bF75E53mQbmXhf3TxCggJbRR\"],\"license\":\"MIT\"},\"node_modules/@bananapus/buyback-hook/src/interfaces/external/IWETH9.sol\":{\"keccak256\":\"0x50083bcaca6c1a8d12c79116fab4f6d8cd452a510cb3f00c4a8bc3a54678efb7\",\"urls\":[\"bzz-raw://726f187112d0953c14bff8099a8c9ce1ead47eb25e90839f77b100feaaf16127\",\"dweb:/ipfs/QmTEnMENpLjcTQLMwz4kEUiQHfiTkaZT3TL37nQ8JiRYh5\"],\"license\":\"GPL-2.0-or-later\"},\"node_modules/@bananapus/core/src/abstract/JBPermissioned.sol\":{\"keccak256\":\"0xe08c8a7eeac9d1c7c2e0db6d5b98d1af09889300835a3d47d9f29319fecce703\",\"urls\":[\"bzz-raw://42645cf52bcc45053ef650790916faed5d0a74cecef336b217433fdd2c5c4166\",\"dweb:/ipfs/QmdMmxG1tSGucQwz4LYbVnuj7HU23YvqLH6xfrNWv5Bmus\"],\"license\":\"MIT\"},\"node_modules/@bananapus/core/src/enums/JBApprovalStatus.sol\":{\"keccak256\":\"0x61c69b6bac7d24b566d87cda23a77e4ca9cdb87200b106aba8534cb9a0973e33\",\"urls\":[\"bzz-raw://6a9ca7249de76f77a8252eefe6bd1b63d47952f25a2acfa2c8db967cdff4470c\",\"dweb:/ipfs/QmaxSxptRQNj8bNy96EreENmrnRWdKmhyihBcxyWzBX5BN\"],\"license\":\"MIT\"},\"node_modules/@bananapus/core/src/interfaces/IJBController.sol\":{\"keccak256\":\"0xe0b84058192f89e461c4b604388aa11a2f92f0f9969fb70fb3c18706d6f3e16b\",\"urls\":[\"bzz-raw://984fdcff63a17ccab65ff7723a628967e40965fcb4d47909cf8e314e8f044576\",\"dweb:/ipfs/QmaaHZWuaaH3oYxCDrip1rr4u4H1XtR3RcwwKAE73GAqkd\"],\"license\":\"MIT\"},\"node_modules/@bananapus/core/src/interfaces/IJBDirectory.sol\":{\"keccak256\":\"0x9cc380844aef60078ee47a61861e55a29c4a8c947efd556ebd36e6909f7b9d62\",\"urls\":[\"bzz-raw://9f5190ec8b6683d9781ee6e9eedcc91294753242748875d4a06349077e4cbaaf\",\"dweb:/ipfs/QmTQrPuXT9TCA4txwrperMeXSGvGxP8iokUK47f62F388i\"],\"license\":\"MIT\"},\"node_modules/@bananapus/core/src/interfaces/IJBDirectoryAccessControl.sol\":{\"keccak256\":\"0x1e67f56849320a46f834aaa9bd62b170ff8ada7b224b4a81136193740fa0be4d\",\"urls\":[\"bzz-raw://ea8fbcec44abfe49d137bcae129b67e5479d6b17879301f88534c8a7fab00be4\",\"dweb:/ipfs/QmT6wrtYX4GRpffHUzupNwYebJ1dqkkKZLEewWsoyunsqw\"],\"license\":\"MIT\"},\"node_modules/@bananapus/core/src/interfaces/IJBFundAccessLimits.sol\":{\"keccak256\":\"0xf5fd6bdd723b60d490ccbe22cdf1cfe43663d23e6ee48badcd1b71e3282cb16b\",\"urls\":[\"bzz-raw://fe692f0b843ea5fccdfcb68f4ec16e1c0add945bb74b303c9866342be0e31fbf\",\"dweb:/ipfs/QmSRmzpgp3DhNEhNDiLsSu7yEiTeywbzEFbwyGyDazjgKt\"],\"license\":\"MIT\"},\"node_modules/@bananapus/core/src/interfaces/IJBMigratable.sol\":{\"keccak256\":\"0xd69bd5aba01a68d82c303ef3adde47532abcace030a94296c3ea6988b401789c\",\"urls\":[\"bzz-raw://88f11a1c89899327746beba4fc830abf3ac2eb9c152c778e884a6eed6564971f\",\"dweb:/ipfs/QmTpKhSTVewpz7VyKcz6BJwH2LFKMwT7Qi5HNWmjEjwsdK\"],\"license\":\"MIT\"},\"node_modules/@bananapus/core/src/interfaces/IJBPayHook.sol\":{\"keccak256\":\"0x9438866782c652c2942f4d114e35f393cd3c8b0334abce8387eed90bca35e8b2\",\"urls\":[\"bzz-raw://cfd99daf57213f92325aad7d7d16e98476d38e870470e95ba01e3ae3cdecc95d\",\"dweb:/ipfs/QmUKKAVGf7ki8BHksr99tFcRW8APveeB5tNH63ctTbbCW8\"],\"license\":\"MIT\"},\"node_modules/@bananapus/core/src/interfaces/IJBPermissioned.sol\":{\"keccak256\":\"0x5b038d4dee116584e88b230920e56d48e135053e3f7e5642eaea14a775c1dad7\",\"urls\":[\"bzz-raw://19e43102f349fd4a1da1c0943ffb8f2950007fe4bb4bb7e8f74fc142575d091b\",\"dweb:/ipfs/QmXHAt4KzDTdDZgDDefEXH2WKi7NcfkJb9R7nxW5uDqsNp\"],\"license\":\"MIT\"},\"node_modules/@bananapus/core/src/interfaces/IJBPermissions.sol\":{\"keccak256\":\"0x18870e500edf0fbadc353e273a5574701fb80466376b908c65e7cc3f11044d4d\",\"urls\":[\"bzz-raw://352a47c45853aec80e7acf0d286ade3106eb4cb456776b28a3c2f3f1091bed90\",\"dweb:/ipfs/QmQeYd3YbudYZy2hfbfht9kwhxhw4tuuLKMEYy9UY6dcSy\"],\"license\":\"MIT\"},\"node_modules/@bananapus/core/src/interfaces/IJBPriceFeed.sol\":{\"keccak256\":\"0x4bd84c0f1a5d4729ed709bcddd43f4c50ec4a165ece79780af8dce482ed07d4a\",\"urls\":[\"bzz-raw://62bac4bfb6982fb002f620c77e5c445e62d50241a5aa64a07e51d929f5a42180\",\"dweb:/ipfs/QmWgJUDreVY2BuMX38a1iUUR5kNbMwGnKG3VvurB7oZtuM\"],\"license\":\"MIT\"},\"node_modules/@bananapus/core/src/interfaces/IJBPrices.sol\":{\"keccak256\":\"0x99525f31440b955742dce84ba57de9fc1221139b5367c1f834723bef9e13e6e1\",\"urls\":[\"bzz-raw://6fa03f0cd4ad87dd7cbae7bf7f54463450874291773c8f70f2c31ef2cae62bb0\",\"dweb:/ipfs/QmSPajPV5ismteJuB6Spzm9VmhTj2iS3eVrfpJC1Zuzg8n\"],\"license\":\"MIT\"},\"node_modules/@bananapus/core/src/interfaces/IJBProjectUriRegistry.sol\":{\"keccak256\":\"0x2799475228987e4f8334ac33d3935f759c9b8133db7383b4f622dde7a5dc0502\",\"urls\":[\"bzz-raw://d751731740f45df74eea48c9667e847ee2cddb2980ab4939c86bd17e6c6ed89b\",\"dweb:/ipfs/QmXW8SLTuhdUpfn7pRpdsYdcyuim8RTyagU37ULcj5UZhT\"],\"license\":\"MIT\"},\"node_modules/@bananapus/core/src/interfaces/IJBProjects.sol\":{\"keccak256\":\"0x735c2fb8f1fa827f054ee77f7a0ae4b312656217acb75b624d2c8fd9dc40151b\",\"urls\":[\"bzz-raw://ee7fc92299a8633a80693ae63ab494dcd125f1789487a54a39dc0e5696e5996f\",\"dweb:/ipfs/QmX7YJD4pS2XhgQb7p3JbBAXynT7YGPXcZe92BiWWRrsCL\"],\"license\":\"MIT\"},\"node_modules/@bananapus/core/src/interfaces/IJBRedeemHook.sol\":{\"keccak256\":\"0x8ab46fcd7d0e739661eb76056ad93ff99106f38420ef0b4eb97fa9f4bb71a68a\",\"urls\":[\"bzz-raw://0ef96fcb7ad26281d444d8e0c677b25114fdd63b1c172d477e030dce8ba53b62\",\"dweb:/ipfs/Qmcx1jRQuwU4pZFuLxsSsx4oMbRaDfktHrPnXextgbWc5m\"],\"license\":\"MIT\"},\"node_modules/@bananapus/core/src/interfaces/IJBRulesetApprovalHook.sol\":{\"keccak256\":\"0x592e95d159494421c6b1bcb362d0cee1df0132921697351304e9cd7af4fbd386\",\"urls\":[\"bzz-raw://5bebfd5fa67c1b6ea16fa2e76e9520e9dfe52a579f48dd94d0c2ec45f78ad178\",\"dweb:/ipfs/QmRUawEGtfYoYSHmHELGhvJoWuMsxLPKtqAXgsrb7fJboP\"],\"license\":\"MIT\"},\"node_modules/@bananapus/core/src/interfaces/IJBRulesetDataHook.sol\":{\"keccak256\":\"0x13b4b9f4b847f62442da1c1a59b399f8f201b31a28edb96aa5a8a78ad57c24d0\",\"urls\":[\"bzz-raw://4fcd00b77d0f40cf6d5ee6590b6ef4ee1f606e89ae4c4faed3710fb462108f8e\",\"dweb:/ipfs/QmeoE54DQ3eGw9EDXfN7aTMmEjubAtirahmytDijo6GSeE\"],\"license\":\"MIT\"},\"node_modules/@bananapus/core/src/interfaces/IJBRulesets.sol\":{\"keccak256\":\"0xd3f817d22ecbe24da63c552c069bf0c4fbbf3bcd5c3b5633002afd24aacf6882\",\"urls\":[\"bzz-raw://c1185aec0f6b6f0f4d93ffeeed0972ccf38420b00fe570b5e1838ed2b1f5db49\",\"dweb:/ipfs/QmWz36azGTFnjFXpFSh6BHt4nactgjtF64L3PeTqs4ZqSR\"],\"license\":\"MIT\"},\"node_modules/@bananapus/core/src/interfaces/IJBSplitHook.sol\":{\"keccak256\":\"0xeb8dfac7a4b81897a1c3b5d0d853a406bcff33720fb187d5ca5bb3dcc0ba3a12\",\"urls\":[\"bzz-raw://36aaeef6107cfe5b0127e063ea215aac7200f8af02e28a48e61111abd3254688\",\"dweb:/ipfs/QmQ8yQANXnhQCAWBGKsKCDsJ3A8hnTKNg5tyo79GfWXTcV\"],\"license\":\"MIT\"},\"node_modules/@bananapus/core/src/interfaces/IJBSplits.sol\":{\"keccak256\":\"0x92deeb9e22ce2aaafc608b85e9250b8ea2deed1ebf64b7442038b157b2bfe0e6\",\"urls\":[\"bzz-raw://08bf29f0c13c2e8be46065277f67e44ecaea960cb5474f13775eece0672566c2\",\"dweb:/ipfs/QmeGu9C6tuBjfmeizmpzptxgGmch6Mbtm34NFwZxzMvqc4\"],\"license\":\"MIT\"},\"node_modules/@bananapus/core/src/interfaces/IJBTerminal.sol\":{\"keccak256\":\"0x19dc9bf8cbdc8f13ee5da9dc3a87047eacb94a3fc19740a286c1f0bad2cc39ca\",\"urls\":[\"bzz-raw://0b05ae6fda9a85672508232fd992b8a5f5ffd8096622eeb12c8a7b3317eb3867\",\"dweb:/ipfs/QmNh9Quj37BXYGdTdcCD1Q58PchRsE5TLbEZep56qS3MpV\"],\"license\":\"MIT\"},\"node_modules/@bananapus/core/src/interfaces/IJBToken.sol\":{\"keccak256\":\"0x71b1f9c3a0edd41910f77396e0be2c65596571176d53eb87e887c3c0da56c0fb\",\"urls\":[\"bzz-raw://6e956f0582f4525e83d845ee9b4a89959abc4f821414f6accbbee5b38960482d\",\"dweb:/ipfs/QmbSvjgmCgnfVmcCTGu8XwrV1Rufsf3M8hB8unFq6fTMdH\"],\"license\":\"MIT\"},\"node_modules/@bananapus/core/src/interfaces/IJBTokenUriResolver.sol\":{\"keccak256\":\"0xfa5cb00dcd6085d1ef912d071fe73c63f9478a2cd0f9d8bddaf659b6af2d0967\",\"urls\":[\"bzz-raw://282e4e7c342d65f77cde0e9a08fcaf20ef5cf379c7a48b639842c0ffd0b2afb8\",\"dweb:/ipfs/QmbnN3PEQeZaXdPLT75V1J79kMg7KqSMru37RHrL3z8Yf2\"],\"license\":\"MIT\"},\"node_modules/@bananapus/core/src/interfaces/IJBTokens.sol\":{\"keccak256\":\"0x6fd67af915dd541d9547c8297aa9ae269690e4ee23531db43f021bcacec6076f\",\"urls\":[\"bzz-raw://2e5e11954e9ab2319fffccb6563f3db400b8f7760d4ffe2165048a02c9c37fa6\",\"dweb:/ipfs/QmbDXtV83dK8EfiTjsTRf55R2XqPZzDKcjtYbW8sxQ5CFm\"],\"license\":\"MIT\"},\"node_modules/@bananapus/core/src/libraries/JBConstants.sol\":{\"keccak256\":\"0x9d3a9a953f859d8ec79a599577f8972de6da7199cc1bfa7fdad017d4d722bcb4\",\"urls\":[\"bzz-raw://f151fcb53a8d2684eff8b9e56ac790bcbcadd8199a4fd4d17c5b224b22936722\",\"dweb:/ipfs/QmdAz1ZtCE8nTiC4AxQNLfJhnY3ndGum2Lbef7seKdvTdR\"],\"license\":\"MIT\"},\"node_modules/@bananapus/core/src/libraries/JBMetadataResolver.sol\":{\"keccak256\":\"0x900731084917f812806a35dab2c7ae65a6f07506d6c953ae0cd6d993fe85560f\",\"urls\":[\"bzz-raw://2002892aef205b5192fa5c2d1cf1698ba0836bed7eaba839444cd0f93b4fb050\",\"dweb:/ipfs/QmPRGSNRdpST1xt2brhGWSDsEYD29j5QwaJ3SA518UUXWs\"],\"license\":\"MIT\"},\"node_modules/@bananapus/core/src/libraries/JBSplitGroupIds.sol\":{\"keccak256\":\"0x932ca2645d443f04f86c8ffb27b5c58c4fbdc7b5a145fba1d43f1db9bd488a0f\",\"urls\":[\"bzz-raw://fa412d2c5726a868a258cd518648726b0784ab7ac7566376b82ba09680f66227\",\"dweb:/ipfs/QmZvfjBt7PQzTWNzrhysyHBegUbbu4aY2xDzBGnwqMaqnF\"],\"license\":\"MIT\"},\"node_modules/@bananapus/core/src/structs/JBAccountingContext.sol\":{\"keccak256\":\"0x2907ff54d1e903cc7e0390dd88c3975884702dc2673642aacbe22b66560b56de\",\"urls\":[\"bzz-raw://a66a5381ce877b32f0e0058ceeaf843e9b6b2bc8af666c0c9f4a9d01091da004\",\"dweb:/ipfs/QmQynCetUr37dBkS1YwDS8evxuXGiqanW6THmeUxXtim8w\"],\"license\":\"MIT\"},\"node_modules/@bananapus/core/src/structs/JBAfterPayRecordedContext.sol\":{\"keccak256\":\"0xd26c3a774ff38be79064085970454fe2603a23a638c76270d5b1b3829206c3e8\",\"urls\":[\"bzz-raw://3b55dbe3bf1ef625b7ca04efab3de35406e6041d5b3d82c7265469c500e2b702\",\"dweb:/ipfs/QmUdBDo4Lt3mcsFcsXT2mqq3czFwZjQJFPLM89YA2VtD7k\"],\"license\":\"MIT\"},\"node_modules/@bananapus/core/src/structs/JBAfterRedeemRecordedContext.sol\":{\"keccak256\":\"0x521f5d23a36f0da72362cd84890cc867bd83baa8dc836ba6c5066d51dba2f163\",\"urls\":[\"bzz-raw://6cc461313286dde62d045d6288e87bae5032e035796326f5b1ed6218e58aa9da\",\"dweb:/ipfs/QmQS2AkQwf2ANQieDuaUnpJEdXChoLv4CCbZqHkfywYPSR\"],\"license\":\"MIT\"},\"node_modules/@bananapus/core/src/structs/JBBeforePayRecordedContext.sol\":{\"keccak256\":\"0x5b04e814da83c7e83ff892ab07eaad6abce6f7b85a75f8da9380e9fc3470bc81\",\"urls\":[\"bzz-raw://11c889aab993fce3e3cc2dedc15fc30dd367e7fef9b7b1bfd6a6a9f248781731\",\"dweb:/ipfs/QmVVtydCD1azeWhGLxA1hthxfLyKzMHZ1eVzCz3a3R5dLy\"],\"license\":\"MIT\"},\"node_modules/@bananapus/core/src/structs/JBBeforeRedeemRecordedContext.sol\":{\"keccak256\":\"0x73eadaf6827e82f6ccbe3a1e2b2b7fc6c59cef471f73335041b30ddcc000989d\",\"urls\":[\"bzz-raw://2f3ee84662eed565dbdaed406ef836fffaf55cccd417575578152e5085d0b1f2\",\"dweb:/ipfs/QmaJGFS7hxJsiUdKvbv5BKhSwceDEzKBnt7t5YeNWvYgMK\"],\"license\":\"MIT\"},\"node_modules/@bananapus/core/src/structs/JBCurrencyAmount.sol\":{\"keccak256\":\"0x12fe4b43f4824994624d4fe0abbd88c3fe7867fd637edb65c7f456dab27e2d6e\",\"urls\":[\"bzz-raw://8003a3e8f932cf891e86b827e67c9d31b0d34c2712e18c2bc333cfe5284ba6d5\",\"dweb:/ipfs/QmSoA6RsDcSnNzk6CB7KZtALkHmeSDAi2g6fg3TDmLDkWX\"],\"license\":\"MIT\"},\"node_modules/@bananapus/core/src/structs/JBFundAccessLimitGroup.sol\":{\"keccak256\":\"0x9fdaa8d017b72da25f583700a444a86849df053f7fb8eac874ec5139bcf651e5\",\"urls\":[\"bzz-raw://c8e44c49ee444a98424a0dbeb6897a76a0bf00d88a613f62ac2012afdac754ee\",\"dweb:/ipfs/QmdYkAiRi5bXM1YYNkc7BiqimHSFodMGn1cjHR5hcpm4xH\"],\"license\":\"MIT\"},\"node_modules/@bananapus/core/src/structs/JBPayHookSpecification.sol\":{\"keccak256\":\"0x955f0bfca97300b9e5927dc181753830ee362f83fa9ca32a90daade32aa0cfd5\",\"urls\":[\"bzz-raw://f517af1597c7c40f8d3da53f7a6684a3e162950a16559d6bf6ea3b727bb11546\",\"dweb:/ipfs/QmRWo2ZTYXmVZTzNJDYhsJNsEaHphjpUfx9eNz2cciyz86\"],\"license\":\"MIT\"},\"node_modules/@bananapus/core/src/structs/JBPermissionsData.sol\":{\"keccak256\":\"0x8f0f69a6ebf5f3704e3dfcb3712fb9d3f94ae7c1ab89bf3e37bad42a3e7a0487\",\"urls\":[\"bzz-raw://57b0c5e52843e2217082889ed47b4da3943e0da4590d5768dcebfe3edad4a6b8\",\"dweb:/ipfs/QmRz48vuWLw81kUP836rh1qzqWiJFGbksgRUA9xGEDNKTY\"],\"license\":\"MIT\"},\"node_modules/@bananapus/core/src/structs/JBRedeemHookSpecification.sol\":{\"keccak256\":\"0x673d16ee1a91bf8de3b37e57284e60451b70a9c2d748c9cdc7a151f5624af18f\",\"urls\":[\"bzz-raw://ceeb5e81effa0f076c5630c756dfcf1548d09f822b255a0a6ee01e54de8c8ae2\",\"dweb:/ipfs/QmSMoMNPRhPMnuJNvWa6S59XRfycGz9o2ApNp63bUW6TdX\"],\"license\":\"MIT\"},\"node_modules/@bananapus/core/src/structs/JBRuleset.sol\":{\"keccak256\":\"0x15b2bf3174d84846a91ccbf5a344dfb125b55ed9cf50102db8d6868844225189\",\"urls\":[\"bzz-raw://647416b025dbd941094db89cbc69f755c155bd6c87be3f322394ccc4a8e0442d\",\"dweb:/ipfs/QmTCL9xcHnxQ4t5AmCPoZvXDUPW5xhzhyyXYbkMdyg44au\"],\"license\":\"MIT\"},\"node_modules/@bananapus/core/src/structs/JBRulesetConfig.sol\":{\"keccak256\":\"0x0be470df286939259a6b98bc71459e661e81d56a58226d6a574ae1484f8f8e6c\",\"urls\":[\"bzz-raw://64592c279ba7518ac180c835a539897163f299a439065f2cc8aa54086a2c9ad7\",\"dweb:/ipfs/QmaEepVvFJdXcDBMMr7SQYjZSDJXPtCca95kQY5rZbra6U\"],\"license\":\"MIT\"},\"node_modules/@bananapus/core/src/structs/JBRulesetMetadata.sol\":{\"keccak256\":\"0xfea54c9f98416d2aa05309e7ff76967d6968a614850a1e33e48fde793ea8b514\",\"urls\":[\"bzz-raw://bf55386cbab90dbc1296b2b0cbfdc217a4500d67702e4a093a4c78bd127ecd5c\",\"dweb:/ipfs/QmTRq9mZrNSXu7oCZwti4JbBFrbY6A5msRqi9RbtL49NAj\"],\"license\":\"MIT\"},\"node_modules/@bananapus/core/src/structs/JBRulesetWithMetadata.sol\":{\"keccak256\":\"0x1bcfadf20488f6df65227f8d4d0fbf9b7539456a2389567f7fe3900d23289bc3\",\"urls\":[\"bzz-raw://0a15c399a71e5373f8c0484c6d6b83521eda31e063a2c53e4c5cec4e74550343\",\"dweb:/ipfs/QmQwi8zkjoTVXbK89NeETYimWCacTrNsesJdpLSvGdqMPX\"],\"license\":\"MIT\"},\"node_modules/@bananapus/core/src/structs/JBSplit.sol\":{\"keccak256\":\"0x1d40fa4f1c911a53b9139f3d44d27cb58fa5c5d2cd793c7a21ccf52b9e61f848\",\"urls\":[\"bzz-raw://9897d2c29fc65fe16e4eac0b7b8b6fd8ef0b0cc501986f7f0c3a78c4ec1dbb60\",\"dweb:/ipfs/QmXcHoVjCYWWCz4hm2KZ6JxtB4YNq7jmXa2evLkga59Xwq\"],\"license\":\"MIT\"},\"node_modules/@bananapus/core/src/structs/JBSplitGroup.sol\":{\"keccak256\":\"0xda7da6e88aac2906c7ea4027660088daf217edc632bebca4d72795aae8921564\",\"urls\":[\"bzz-raw://ae1939d17e94cb51484f31ce64cf0df990445a338fb9b38d39a7baf28275ae4a\",\"dweb:/ipfs/QmUhPnJiWnYhFdtLvZnrPopAdbYXxETpGjvxjPDignpTGY\"],\"license\":\"MIT\"},\"node_modules/@bananapus/core/src/structs/JBSplitHookContext.sol\":{\"keccak256\":\"0xfe34e6860b00ca93d71f44e72882281b2c57c31303151af05795c74cfdd2e51d\",\"urls\":[\"bzz-raw://08acab094888e9c929b6f6f972d89ddbb31e5867675e7e7c602d25fcb2c0f402\",\"dweb:/ipfs/QmPNdXM185cTyXQSodVr4JMviHx88jrWu7dipgkp9xTNgJ\"],\"license\":\"MIT\"},\"node_modules/@bananapus/core/src/structs/JBTerminalConfig.sol\":{\"keccak256\":\"0xd162f3821a1ccafbc8d7d108369e39ac3048445a8c7fe7a3fa97a6343f9eefaa\",\"urls\":[\"bzz-raw://82172ea0407b6d9edc45e408c7e8edb8e129adf49a94349fe3a5862da9bc044e\",\"dweb:/ipfs/QmWheF5Tjq2hcabnSzfYqdFHUA1YxYEdAPZaRw9N166V1d\"],\"license\":\"MIT\"},\"node_modules/@bananapus/core/src/structs/JBTokenAmount.sol\":{\"keccak256\":\"0x5cf0626b73a596c1e2da17c89ae039a7c0374310b060d48568d3b6c11fbe6180\",\"urls\":[\"bzz-raw://63348b50be95e2995409394a17caffc563a646f0972650a1230bf864fbd3219b\",\"dweb:/ipfs/QmZXZpS3SbFD5nWaCauf6AqbEhLURv5qsKHpThBvQgDU6u\"],\"license\":\"MIT\"},\"node_modules/@bananapus/ownable/src/JBOwnable.sol\":{\"keccak256\":\"0x5b0aec2bc7164bdb972bfb9f71660c887308cf3a72738c7469d03bf264cf0d54\",\"urls\":[\"bzz-raw://bf4f60cebc0a707004371425aa3c8751b6a84dfb4fc9bf788160ae9ac1e906f6\",\"dweb:/ipfs/QmegUfWLhKuByQTkfMkmwkEs2Tk5ZEuR56DqQw5kxFzP3d\"],\"license\":\"MIT\"},\"node_modules/@bananapus/ownable/src/JBOwnableOverrides.sol\":{\"keccak256\":\"0x70a7c55f2a0f4324b63afe61e9d0de6e54396073e431844a19936d2aaaf6d7dd\",\"urls\":[\"bzz-raw://94c55139a8e974e2a88c6f0fc7594be3044742cfc499c989051eaf6664ec7dab\",\"dweb:/ipfs/QmQPnLAootqEGzpHRdhsYGBU3cqicRYLAe6bTti2UCBHyS\"],\"license\":\"MIT\"},\"node_modules/@bananapus/ownable/src/interfaces/IJBOwnable.sol\":{\"keccak256\":\"0x2c513558439d763df03e8a68c1aef698618182fd44c285405c35597d52c65ad1\",\"urls\":[\"bzz-raw://11cc25c41fccc20cca29f93dd120e67760188fd2040ef0330a093d37fbfa2f8f\",\"dweb:/ipfs/QmWpxcv41eYmsNYT3ph1nts5pC7sp3EzwJxKDGebMqEbsH\"],\"license\":\"MIT\"},\"node_modules/@bananapus/ownable/src/struct/JBOwner.sol\":{\"keccak256\":\"0x5624ba356f01f722984c1b857a106f413b12e57bae1f762a81c16ee511e3325a\",\"urls\":[\"bzz-raw://3120b5649ac8b55158df138dcac03f6850fc988cc5a24a7cb06e6581265ca284\",\"dweb:/ipfs/QmQBSLxRT9j1MEERUt8dWbSsAjianbHpM2CFwciLK7MwaP\"],\"license\":\"MIT\"},\"node_modules/@bananapus/permission-ids/src/JBPermissionIds.sol\":{\"keccak256\":\"0xf61109f6b217a80d5e5391f548fb6f2e451f7dbee3fabfc04cf17e88722203bc\",\"urls\":[\"bzz-raw://ac776ab1cd621c22bd7973471acdfa187f3abc659ad9a3ef6ed10b6447dfcf9c\",\"dweb:/ipfs/QmYLbaHt68qcuMzkiKpe96jMjiWUq1F3u8yMhxmZ3pnnWu\"],\"license\":\"MIT\"},\"node_modules/@bananapus/suckers/src/interfaces/IBPSucker.sol\":{\"keccak256\":\"0x2a3136ea5608c3e76b9f3114a470980f2a96427535aaccbd65dcc37d3a3dd0f8\",\"urls\":[\"bzz-raw://8cc997a396b183525892a0640ce03aee9fa3f15971266c826a308f6c74ff63f2\",\"dweb:/ipfs/QmZcoMkGbujqLm5B9v5urpFwUVg2uoG7ybPHX8RRxsygpe\"],\"license\":\"MIT\"},\"node_modules/@bananapus/suckers/src/interfaces/IBPSuckerDeployer.sol\":{\"keccak256\":\"0xe252e890c4b5e12d5fa537a11cd2fad936f41be80240301ace8afca3de481222\",\"urls\":[\"bzz-raw://730855964dd0629f3d514ed52f59d80d02786733c3b8b5cf21e69524de7f8829\",\"dweb:/ipfs/QmUuoYEmnzUNn3hANGrg8sDZdjoaEbgWMWLepsSQt9MUyw\"],\"license\":\"MIT\"},\"node_modules/@bananapus/suckers/src/interfaces/IBPSuckerRegistry.sol\":{\"keccak256\":\"0xaed1d396dd1748585f4f16cd72519efadcb089ecd9b8a1786d3d353cffb6218a\",\"urls\":[\"bzz-raw://94de3a0692ac733ab780449431dea24e402b41c7c768fc7868bf0f259a65d80d\",\"dweb:/ipfs/QmR3STDP2YbPi7LTsAC3XSv2gT7GMD83krYeReFVDE4eKU\"],\"license\":\"UNLICENSED\"},\"node_modules/@bananapus/suckers/src/structs/BPSuckerDeployerConfig.sol\":{\"keccak256\":\"0x867e10bc73a07ab19cf5511d047dc885e3cfae58fc5f3441f6a5d3174afe6b78\",\"urls\":[\"bzz-raw://b8c3e72e57958bb2e2b8072ac6055804598c080a748fbc2f40a783575435809e\",\"dweb:/ipfs/QmbY7W6i5qAAj42EsQX8yt8M8nXArXByEGosnHWyxs4BE7\"],\"license\":\"MIT\"},\"node_modules/@bananapus/suckers/src/structs/BPTokenMapping.sol\":{\"keccak256\":\"0x84865bda925cdc9a608cbbfc487619acba391f98ae12bbbfdbc5779d617a17d9\",\"urls\":[\"bzz-raw://3bbc1fdd38feaf64fd4914bddb62cda7e5b8ee0f046a0eac8cfcb15f9493bcc5\",\"dweb:/ipfs/QmXgAx7sr1M8r71YrSeQJGAB1uhvdxpQyS633UgJvLCQfb\"],\"license\":\"MIT\"},\"node_modules/@croptop/core/src/CTPublisher.sol\":{\"keccak256\":\"0x9376777efe6de07115ff025226cc78093aabd41c078e17b2cf2a5ec3e589be26\",\"urls\":[\"bzz-raw://4d9c8763349c4e0d5cd667e704adc3061ff28de69c951bd5f2482bb0cec0013a\",\"dweb:/ipfs/QmPsEniTDEzGmbAwfdF6hsvatpEkPnFtgk1UaWQWMmHYDn\"],\"license\":\"MIT\"},\"node_modules/@croptop/core/src/structs/CTAllowedPost.sol\":{\"keccak256\":\"0x82f6cd062f1cba83c988a426c44151cfc1eae0b301c4dc135e5e7dac3e73eb40\",\"urls\":[\"bzz-raw://f76d5ae0e1aabb45e34450ffaa2a97804162a1ba1f1aa649de1c20312db7fcca\",\"dweb:/ipfs/QmdDggUUfQYagnXGGThcUevADHPyokvGtGBsDMCc9RxU1A\"],\"license\":\"MIT\"},\"node_modules/@croptop/core/src/structs/CTPost.sol\":{\"keccak256\":\"0x7e3dd85bc455816d7cf1b260fe53c7b1ff7512fce75ce3b6d9fdc094bcda33c8\",\"urls\":[\"bzz-raw://6cc25819e7ef95cb45ea71c54af01db95f75d0ccf1a23390a6153f4ae7df1c88\",\"dweb:/ipfs/QmTJCj1Rn7uEXRcaZBNqxrBXWXM9f24dphb9TaoLe3Ts41\"],\"license\":\"MIT\"},\"node_modules/@openzeppelin/contracts/metatx/ERC2771Context.sol\":{\"keccak256\":\"0x98256cf37b71a69b2f5a8a6fe975ea03590dff703102bd141a830f94e8adebf6\",\"urls\":[\"bzz-raw://6251fe1f6a1e45e6d619d150c123afc88b8646b38ee26a136efa9a6988a31d3f\",\"dweb:/ipfs/QmeXDT85wSZdP31wkz3ah3KhponCiksJLP5o2LR5e1JxcK\"],\"license\":\"MIT\"},\"node_modules/@openzeppelin/contracts/token/ERC20/IERC20.sol\":{\"keccak256\":\"0xc6a8ff0ea489379b61faa647490411b80102578440ab9d84e9a957cc12164e70\",\"urls\":[\"bzz-raw://0ea104e577e63faea3b69c415637e99e755dcbf64c5833d7140c35a714d6d90c\",\"dweb:/ipfs/Qmau6x4Ns9XdyynRCNNp3RhLqijJjFm7z5fyZazfYFGYdq\"],\"license\":\"MIT\"},\"node_modules/@openzeppelin/contracts/token/ERC721/IERC721.sol\":{\"keccak256\":\"0x5ef46daa3b58ef2702279d514780316efaa952915ee1aa3396f041ee2982b0b4\",\"urls\":[\"bzz-raw://2f8f2a76e23b02fc69e8cd24c3cb47da6c7af3a2d6c3a382f8ac25c6e094ade7\",\"dweb:/ipfs/QmPV4ZS4tPVv4mTCf9ejyZ1ai57EEibDRj7mN2ARDCLV5n\"],\"license\":\"MIT\"},\"node_modules/@openzeppelin/contracts/token/ERC721/IERC721Receiver.sol\":{\"keccak256\":\"0x7f7a26306c79a65fb8b3b6c757cd74660c532cd8a02e165488e30027dd34ca49\",\"urls\":[\"bzz-raw://d01e0b2b837ee2f628545e54d8715b49c7ef2befd08356c2e7f6c50dde8a1c22\",\"dweb:/ipfs/QmWBAn6y2D1xgftci97Z3qR9tQnkvwQpYwFwkTvDMvqU4i\"],\"license\":\"MIT\"},\"node_modules/@openzeppelin/contracts/utils/Context.sol\":{\"keccak256\":\"0x493033a8d1b176a037b2cc6a04dad01a5c157722049bbecf632ca876224dd4b2\",\"urls\":[\"bzz-raw://6a708e8a5bdb1011c2c381c9a5cfd8a9a956d7d0a9dc1bd8bcdaf52f76ef2f12\",\"dweb:/ipfs/Qmax9WHBnVsZP46ZxEMNRQpLQnrdE4dK8LehML1Py8FowF\"],\"license\":\"MIT\"},\"node_modules/@openzeppelin/contracts/utils/introspection/ERC165.sol\":{\"keccak256\":\"0x9e8778b14317ba9e256c30a76fd6c32b960af621987f56069e1e819c77c6a133\",\"urls\":[\"bzz-raw://1777404f1dcd0fac188e55a288724ec3c67b45288e49cc64723e95e702b49ab8\",\"dweb:/ipfs/QmZFdC626GButBApwDUvvTnUzdinevC3B24d7yyh57XkiA\"],\"license\":\"MIT\"},\"node_modules/@openzeppelin/contracts/utils/introspection/IERC165.sol\":{\"keccak256\":\"0x4296879f55019b23e135000eb36896057e7101fb7fb859c5ef690cf14643757b\",\"urls\":[\"bzz-raw://87b3541437c8c443ccd36795e56a338ed12855eec17f8da624511b8d1a7e14df\",\"dweb:/ipfs/QmeJQCtZrQjtJLr6u7ZHWeH3pBnjtLWzvRrKViAi7UZqxL\"],\"license\":\"MIT\"},\"node_modules/@uniswap/v3-core/contracts/interfaces/IUniswapV3Pool.sol\":{\"keccak256\":\"0x4e64844c56061cd90e0a80de73534a9166704c43eed579eb83f90bc2780ce968\",\"urls\":[\"bzz-raw://cba4fab5cebdddf644b901994a7f0f52b98885d4c56012f4dc51d52c2bf9de0e\",\"dweb:/ipfs/QmVyyrRmqXrAiapewWunRVgiPVFJHpH2hKiE1py1svMSNV\"],\"license\":\"GPL-2.0-or-later\"},\"node_modules/@uniswap/v3-core/contracts/interfaces/callback/IUniswapV3SwapCallback.sol\":{\"keccak256\":\"0x3f485fb1a44e8fbeadefb5da07d66edab3cfe809f0ac4074b1e54e3eb3c4cf69\",\"urls\":[\"bzz-raw://095ce0626b41318c772b3ebf19d548282607f6a8f3d6c41c13edfbd5370c8652\",\"dweb:/ipfs/QmVDZfJJ89UUCE1hMyzqpkZAtQ8jUsBgZNE5AMRG7RzRFS\"],\"license\":\"GPL-2.0-or-later\"},\"node_modules/@uniswap/v3-core/contracts/interfaces/pool/IUniswapV3PoolActions.sol\":{\"keccak256\":\"0x9453dd0e7442188667d01d9b65de3f1e14e9511ff3e303179a15f6fc267f7634\",\"urls\":[\"bzz-raw://982f4328f956c3e60e67501e759eb292ac487f76460c774c50e9ae4fcc92aae5\",\"dweb:/ipfs/QmRnzEDsaqtd9PJEVcgQi7p5aV5pMSvRUoGZJAdwFUJxgZ\"],\"license\":\"GPL-2.0-or-later\"},\"node_modules/@uniswap/v3-core/contracts/interfaces/pool/IUniswapV3PoolDerivedState.sol\":{\"keccak256\":\"0xe603ac5b17ecdee73ba2b27efdf386c257a19c14206e87eee77e2017b742d9e5\",\"urls\":[\"bzz-raw://8febc9bdb399a4d94bb89f5377732652e2400e4a8dee808201ade6848f9004e7\",\"dweb:/ipfs/QmaKDqYYFU4d2W2iN77aDHptfbFmYZRrMYXHeGpJmM8C1c\"],\"license\":\"GPL-2.0-or-later\"},\"node_modules/@uniswap/v3-core/contracts/interfaces/pool/IUniswapV3PoolErrors.sol\":{\"keccak256\":\"0xf80abf13fb1fafc127ba4e792f240dd8ea7c8c893978cdfd8439c27fae9a037b\",\"urls\":[\"bzz-raw://b04fc72a656bbf3631e9c2e67b9870a2d9d235185e833fe050e9606e6816a9aa\",\"dweb:/ipfs/QmUcz4bkEkJ9pwzFu1C3n97hBQ3st9U6qTAqCdyFwddKco\"],\"license\":\"GPL-2.0-or-later\"},\"node_modules/@uniswap/v3-core/contracts/interfaces/pool/IUniswapV3PoolEvents.sol\":{\"keccak256\":\"0x8071514d0fe5d17d6fbd31c191cdfb703031c24e0ece3621d88ab10e871375cd\",\"urls\":[\"bzz-raw://d0b571930cc7488b1d546a7e9cea7c52d8b3c4e207da657ed0e0db7343b8cd03\",\"dweb:/ipfs/QmaGK6vVwB95QSTR1XMYvrh7ivYAYZxi3fD7v6VMA4jZ39\"],\"license\":\"GPL-2.0-or-later\"},\"node_modules/@uniswap/v3-core/contracts/interfaces/pool/IUniswapV3PoolImmutables.sol\":{\"keccak256\":\"0xf6e5d2cd1139c4c276bdbc8e1d2b256e456c866a91f1b868da265c6d2685c3f7\",\"urls\":[\"bzz-raw://b99c8c9ae8e27ee6559e5866bea82cbc9ffc8247f8d15b7422a4deb287d4d047\",\"dweb:/ipfs/QmfL8gaqt3ffAnm6nVj5ksuNpLygXuL3xq5VBqrkwC2JJ3\"],\"license\":\"GPL-2.0-or-later\"},\"node_modules/@uniswap/v3-core/contracts/interfaces/pool/IUniswapV3PoolOwnerActions.sol\":{\"keccak256\":\"0x759b78a2918af9e99e246dc3af084f654e48ef32bb4e4cb8a966aa3dcaece235\",\"urls\":[\"bzz-raw://64144fb96e1c7fdba87305acadb98a198d26a3d46c097cb3a666e567f6f29735\",\"dweb:/ipfs/QmUnWVwN9FKB9uV5Pr8YfLpWZnYM2DENnRMaadZ492JS9u\"],\"license\":\"GPL-2.0-or-later\"},\"node_modules/@uniswap/v3-core/contracts/interfaces/pool/IUniswapV3PoolState.sol\":{\"keccak256\":\"0x44fa2ce1182f6c2f6bead3d1737804bf7e112252ae86e0f2e92f9b8249603f43\",\"urls\":[\"bzz-raw://54154e8665b98d65f5dc91b256551852cb47882180b501b260657122d207c0ea\",\"dweb:/ipfs/QmcfemK1A2PXYrWB5SBFGERpMCderbFRb8BtTzQDj1sUBp\"],\"license\":\"GPL-2.0-or-later\"},\"src/REVBasicDeployer.sol\":{\"keccak256\":\"0x45595b12d2500f2b89b9b669d24548f52a6216dcdeee27ca8d2d632ccc4a6f9d\",\"urls\":[\"bzz-raw://50d77d602ba2c8c699d0814b95f6c79ed560550183eb6b9222d488e27b7175a6\",\"dweb:/ipfs/QmVDVjuYcxisrFDGoLgmsHder9Ajjzv8Fpp5LXVpopJu68\"],\"license\":\"MIT\"},\"src/REVCroptopDeployer.sol\":{\"keccak256\":\"0x807b2b1a6d5553a8e2d8fbe24ed895c17eb64fd858b14de4538401b55a91663e\",\"urls\":[\"bzz-raw://811f18fcd8565052d087e4651e24c2a11b5eb813d559e51327cfc606bd035d10\",\"dweb:/ipfs/QmPWtJfzy7NKy1M193dH2YwaMtDUQio14SDMwaGNYjdGbf\"],\"license\":\"MIT\"},\"src/REVPayHookDeployer.sol\":{\"keccak256\":\"0xf9ce2223a28d47e919ceeefd064036765938727cbc068fa757a5e7098abad2c2\",\"urls\":[\"bzz-raw://a107b94598b20e6a3f577af0c9a3b1134dfdf0fe7966cdc6e35ff37004efde06\",\"dweb:/ipfs/QmcQfukUrLUrAK7oqp3FvX47VdWRnaU7crDCpgwf8zQATT\"],\"license\":\"MIT\"},\"src/REVTiered721HookDeployer.sol\":{\"keccak256\":\"0x2d8133ffc87353ca8e5058d91ac00efc0598d31895b794b518c266df43fc0808\",\"urls\":[\"bzz-raw://77d4e7babe0aa8250309f8fccd9e18c59dc834f50c4b93b3ed1d7861cd333573\",\"dweb:/ipfs/QmNMCrAdDJwGsaQZE4pHnC2S1yaLSAbi67MjDP7Mw1fmLZ\"],\"license\":\"MIT\"},\"src/interfaces/IREVBasicDeployer.sol\":{\"keccak256\":\"0x7f99c061855c2b8e721323fc5d9116d23b3f2b37585d77353a6149f9de61998e\",\"urls\":[\"bzz-raw://aed573a7949f2fdfb71001b19d1b6b88d55142eaa5b3ee588902764843a290cc\",\"dweb:/ipfs/QmYmBrB12UW5cJc2AcbZ68apjqenUCzLw72N3cDebR7VFW\"],\"license\":null},\"src/interfaces/IREVCroptopDeployer.sol\":{\"keccak256\":\"0x3ec080b4ee2d6c73ea7c6d246cf57234b62d7a5b6c54e2c6641b568e582f4ffb\",\"urls\":[\"bzz-raw://9d35d607346c201f3c3b4a52f486de28fc16d6bfe990f3255ceb62703980cc48\",\"dweb:/ipfs/QmPgMxF4BinjS8FsuSHTixxtrVkrsgHHXT4S5fafknxudw\"],\"license\":null},\"src/interfaces/IREVPayHookDeployer.sol\":{\"keccak256\":\"0xc96a7dd8ec2c88286906c2615f11e03c9f8fba777685067dcf98525349950000\",\"urls\":[\"bzz-raw://45d97d705c27b718ff0dac593ceeccdf77060652ac31bd84d6394bc7412afcde\",\"dweb:/ipfs/QmbMAMk8bkZBQxj5Dimx2wsAtawg7oyXrtBMcEk37ZNxiG\"],\"license\":null},\"src/interfaces/IREVTiered721HookDeployer.sol\":{\"keccak256\":\"0x48f7c60ddd73914172413e72a129659d91a0d1d245cea265e793b2f30b236d6d\",\"urls\":[\"bzz-raw://fc83f099b34f4c3217544e65f19fa0cf916e49b7230a099725dba48a3942d040\",\"dweb:/ipfs/QmWvnyVbxanschhro5PpkqrJuP2zSaW7PTKBi2fQuAgqDx\"],\"license\":null},\"src/structs/REVBuybackHookConfig.sol\":{\"keccak256\":\"0xdae5ecff2ff2a04c0aab17093f023b2161994dc0e6e2adc5006d36d157eb09aa\",\"urls\":[\"bzz-raw://5e0eed08e652290f59c0d18565df21be3fc7b33ca3fa41c393461472479e4a7f\",\"dweb:/ipfs/QmfZcbmdvYDQwEE4eesGpcxdojAm9BhJ81fdkxjX9LU9Sa\"],\"license\":\"MIT\"},\"src/structs/REVBuybackPoolConfig.sol\":{\"keccak256\":\"0x83f2a3875a8b1955856b72bfddd90c0cc2fbe26697f1dd4e13b33c0319049a14\",\"urls\":[\"bzz-raw://e1e37d0eb626221b6a8774a155a3799dc5cf0b497d26263ef323ed768d61a0dc\",\"dweb:/ipfs/QmcSPDAaPemjh3a1XycV4qDMJwctnuwiKe3wXrRUjotKAB\"],\"license\":\"MIT\"},\"src/structs/REVConfig.sol\":{\"keccak256\":\"0x5b53b84ea0fc0e3f2dca7b13b09d3792a11b3960155d00a1741e750b1cbb2781\",\"urls\":[\"bzz-raw://a35f79a509999bb383bf2086da5df35b9cce76af91e3b3633c022b0cceee789a\",\"dweb:/ipfs/QmXTUQHGfmmFABnqwLcRo88FyuM7TZh9pswdotUeHYMrGH\"],\"license\":\"MIT\"},\"src/structs/REVCroptopAllowedPost.sol\":{\"keccak256\":\"0xbeba2acfc8a139c2c9d7c3feb5ba14b369e030aeaa21b3d1ef35fc08ea5ecb7b\",\"urls\":[\"bzz-raw://34e756eb728e230de3b411b92272a10807c3a25adab48eba41b4da6c233a7ecc\",\"dweb:/ipfs/QmSDm1FYFXo8MVTutjyPMrCrNzsJproX8guN2htT3Jzsxq\"],\"license\":\"MIT\"},\"src/structs/REVDeploy721TiersHookConfig.sol\":{\"keccak256\":\"0x6dec52939e342a5e7c687850b3e7222857f49fd7819c0056bafe8fcabfe8f216\",\"urls\":[\"bzz-raw://afb89096d51603b25e68c099eb92741821fcbf7e876fc71955d6a2c2ca27c32b\",\"dweb:/ipfs/QmSy8GS1NJL1FCtPBS4nvVp4KsLJvJRmvTtuLbmgLSR2vt\"],\"license\":\"MIT\"},\"src/structs/REVDescription.sol\":{\"keccak256\":\"0x40bebc53d50dbfb261882f51c7667d7263193e8fc48897b9384c2ca259046c1b\",\"urls\":[\"bzz-raw://24f98bc7ef12f53afa326a266c69683e24501405f72566b7ca7e8dad242e1fe1\",\"dweb:/ipfs/QmNkLsCwhx5pTuMmJLwUNJdPrGjEi3H9JnTX2s9GsoUTAa\"],\"license\":\"MIT\"},\"src/structs/REVStageConfig.sol\":{\"keccak256\":\"0x0356af8b2ac6ae9b2e23562d638a4903d707350a365d90bfd468b8d4f98c41b5\",\"urls\":[\"bzz-raw://85d7712485745986f7d5caa059a80563bad151dadf67eb4752f2f272cbf46a1e\",\"dweb:/ipfs/QmRhbgEfGfvbZAs1hp4cbwpi2aeLzfZTrfpDGCoey7xiCs\"],\"license\":\"MIT\"},\"src/structs/REVSuckerDeploymentConfig.sol\":{\"keccak256\":\"0xed607665da0efa1a1662a7e094095f336bef2d6694f79e5d8158cacf73c34dac\",\"urls\":[\"bzz-raw://c8c68b67a28a7dfc060596cfb98b7fc05ad0c9b61482f60a04810bc68cc0b8e3\",\"dweb:/ipfs/QmeLH5z8J6DDjRQXfJi4BoMmQqY4zTjERYfSzu8Uypkawp\"],\"license\":\"MIT\"}},\"version\":1}",
			"args": [
				"0x799D42391ed21894b105590300EEd66255d72225",
				"0x3F209aB51b59Bc6C2c9C2f2147d3d51E29A862d7",
				"0xB2b5841DBeF766d4b521221732F9B618fCf34A87",
				"0xd3838B2875a06E61bEfc3679Ee2C8d88D61067dC",
				"0x2B4853136aB24f8eB08d9E1cb536B43f48503801"
			],
			"bytecode": "0x6101006040523480156200001257600080fd5b506040516200592338038062005923833981016040819052620000359162000110565b6001600160a01b0392831660805293821660a05291811660c052600280546001808201835560117f405787fa12a823e0f2b7631cc41b3ba8828b3321ca811111fa75cd3aa3bb5ace9283015582548082018455601990830155825480820190935560069290910182905592821660e052600580546001600160a01b031916949092169390931790558154908101825560009190915260157ff652222313e28459528d920b65115c16c04f3efc82aaedc97be59f3f377c0d3f9091015562000190565b6001600160a01b03811681146200010d57600080fd5b50565b600080600080600060a086880312156200012957600080fd5b85516200013681620000f7565b60208701519095506200014981620000f7565b60408701519094506200015c81620000f7565b60608701519093506200016f81620000f7565b60808701519092506200018281620000f7565b809150509295509295909350565b60805160a05160c05160e0516156bf62000264600039600081816103810152610a470152600081816103a801528181610ef401528181610fdd015281816112f801528181611f08015261202e01526000818161041d015281816104ac0152818161089401528181610bfc0152818161110c015281816114e001528181611659015281816117d4015281816119ac01528181611a7901528181611b6901528181611c3101528181611cf401528181611df10152611f430152600081816102850152818161032b0152612b7b01526156bf6000f3fe608060405234801561001057600080fd5b50600436106101775760003560e01c80637249a773116100d8578063b5d255331161008c578063dbfbe5da11610066578063dbfbe5da146103f2578063eb5ad9d914610405578063ee0fc1211461041857600080fd5b8063b5d25533146103a3578063bb199402146103ca578063c4b0efa8146103df57600080fd5b80639d82ba25116100bd5780639d82ba251461034f578063aaf320d714610359578063abf8c5c81461037c57600080fd5b80637249a773146102e85780637da0a8771461032957600080fd5b80634c6034ef1161012f578063572b6c0511610114578063572b6c05146102755780635c0a7cee146102b5578063677ce088146102d557600080fd5b80634c6034ef146102325780634f6a01381461026257600080fd5b80631d3eedaa116101605780631d3eedaa146101d057806343681e15146101f15780634c4ffc711461021157600080fd5b806301ffc9a71461017c578063150b7a02146101a4575b600080fd5b61018f61018a366004612cd7565b61043f565b60405190151581526020015b60405180910390f35b6101b76101b2366004612d30565b6104a8565b6040516001600160e01b0319909116815260200161019b565b6101e36101de36600461364e565b610574565b60405190815260200161019b565b6101e36101ff366004613705565b60016020526000908152604090205481565b61022461021f36600461371e565b610590565b60405161019b92919061381e565b610245610240366004613cda565b610887565b604080519283526001600160a01b0390911660208301520161019b565b610245610270366004613ecf565b610bd7565b61018f610283366004614005565b7f00000000000000000000000000000000000000000000000000000000000000006001600160a01b0390811691161490565b6102c86102c3366004613705565b610d74565b60405161019b9190614022565b61018f6102e3366004614035565b610e98565b6103116102f6366004613705565b6000602081905290815260409020546001600160a01b031681565b6040516001600160a01b03909116815260200161019b565b7f0000000000000000000000000000000000000000000000000000000000000000610311565b6101e36276a70081565b61036c610367366004614065565b610fcd565b60405161019b94939291906140a1565b6103117f000000000000000000000000000000000000000000000000000000000000000081565b6103117f000000000000000000000000000000000000000000000000000000000000000081565b6103dd6103d8366004614141565b61110a565b005b6101e36103ed3660046141ae565b6113c1565b600554610311906001600160a01b031681565b6103dd610413366004614035565b6114d1565b6103117f000000000000000000000000000000000000000000000000000000000000000081565b60006001600160e01b031982167f81c03c2e0000000000000000000000000000000000000000000000000000000014806104a257507f01ffc9a7000000000000000000000000000000000000000000000000000000006001600160e01b03198316145b92915050565b60007f00000000000000000000000000000000000000000000000000000000000000006001600160a01b031663293c49996040518163ffffffff1660e01b8152600401602060405180830381865afa158015610508573d6000803e3d6000fd5b505050506040513d601f19601f8201168201806040525081019061052c919061429a565b6001600160a01b0316336001600160a01b03161461054957600080fd5b507f150b7a020000000000000000000000000000000000000000000000000000000095945050505050565b6000610586868686863060008861198b565b9695505050505050565b60c081013560009081526020819052604081205460609081906001600160a01b03168015610648576040517f4c4ffc710000000000000000000000000000000000000000000000000000000081526001600160a01b03821690634c4ffc71906105fd908890600401614362565b600060405180830381865afa15801561061a573d6000803e3d6000fd5b505050506040513d6000823e601f3d908101601f191682016040526106429190810190614433565b90945091505b815160c086013560009081526004602090815260408083208054825181850281018501909352808352941515949192909190849084015b82821015610763576000848152602090819020604080516060810182526003860290920180546001600160a01b03168352600181015493830193909352600283018054929392918401916106d29061457b565b80601f01602080910402602001604051908101604052809291908181526020018280546106fe9061457b565b801561074b5780601f106107205761010080835404028352916020019161074b565b820191906000526020600020905b81548152906001019060200180831161072e57829003601f168201915b5050505050815250508152602001906001019061067f565b5050505090506000815190508261077b57600061077e565b60015b61078b9060ff16826145cb565b67ffffffffffffffff8111156107a3576107a3612dcf565b6040519080825280602002602001820160405280156107f057816020015b604080516060808201835260008083526020830152918101919091528152602001906001900390816107c15790505b50955060005b8181101561083d57828181518110610810576108106145de565b602002602001015187828151811061082a5761082a6145de565b60209081029190910101526001016107f6565b50821561087d5784600081518110610857576108576145de565b6020026020010151868281518110610871576108716145de565b60200260200101819052505b5050505050915091565b60008089808203610983577f00000000000000000000000000000000000000000000000000000000000000006001600160a01b031663293c49996040518163ffffffff1660e01b8152600401602060405180830381865afa1580156108f0573d6000803e3d6000fd5b505050506040513d601f19601f82011682018060405250810190610914919061429a565b6001600160a01b03166306661abd6040518163ffffffff1660e01b8152600401602060405180830381865afa158015610951573d6000803e3d6000fd5b505050506040513d601f19601f8201168201806040525081019061097591906145f4565b6109809060016145cb565b9a505b845160006109928260016145cb565b67ffffffffffffffff8111156109aa576109aa612dcf565b6040519080825280602002602001820160405280156109f757816020015b604080516060808201835260008083526020830152918101919091528152602001906001900390816109c85790505b50905060005b82811015610a4457878181518110610a1757610a176145de565b6020026020010151828281518110610a3157610a316145de565b60209081029190910101526001016109fd565b507f00000000000000000000000000000000000000000000000000000000000000006001600160a01b0316632230819f8e8a600001516040518363ffffffff1660e01b8152600401610a9792919061472d565b6020604051808303816000875af1158015610ab6573d6000803e3d6000fd5b505050506040513d601f19601f82011682018060405250810190610ada919061429a565b9350876020015115610b095760008d815260036020908152604082208054600181018255908352912060159101555b876040015115610b365760008d815260036020908152604082208054600181018255908352912060169101555b876060015115610b635760008d815260036020908152604082208054600181018255908352912060179101555b6040518060600160405280856001600160a01b031681526020016000815260200160405180602001604052806000815250815250818381518110610ba957610ba96145de565b6020026020010181905250610bc3838d8d8d8d868c6113c1565b508c94505050509850989650505050505050565b600080610bea8b8b8b8b8b8b8b8b610887565b909b509050610bfa8b828561215c565b7f00000000000000000000000000000000000000000000000000000000000000006001600160a01b031663f434c9146040518163ffffffff1660e01b8152600401602060405180830381865afa158015610c58573d6000803e3d6000fd5b505050506040513d601f19601f82011682018060405250810190610c7c919061429a565b6001600160a01b03166305d2912e306040518060600160405280600560009054906101000a90046001600160a01b03166001600160a01b031681526020018f81526020016006805480602002602001604051908101604052809291908181526020018280548015610d0c57602002820191906000526020600020905b815481526020019060010190808311610cf8575b50505050508152506040518363ffffffff1660e01b8152600401610d319291906148a1565b600060405180830381600087803b158015610d4b57600080fd5b505af1158015610d5f573d6000803e3d6000fd5b505050508a9150995099975050505050505050565b606060046000838152602001908152602001600020805480602002602001604051908101604052809291908181526020016000905b82821015610e8d576000848152602090819020604080516060810182526003860290920180546001600160a01b0316835260018101549383019390935260028301805492939291840191610dfc9061457b565b80601f0160208091040260200160405190810160405280929190818152602001828054610e289061457b565b8015610e755780601f10610e4a57610100808354040283529160200191610e75565b820191906000526020600020905b815481529060010190602001808311610e5857829003601f168201915b50505050508152505081526020019060010190610da9565b505050509050919050565b6000828152602081905260408120546001600160a01b0390811690831603610ec2575060016104a2565b6040517f3d12cb87000000000000000000000000000000000000000000000000000000008152600481018490526000907f00000000000000000000000000000000000000000000000000000000000000006001600160a01b031690633d12cb8790602401600060405180830381865afa158015610f43573d6000803e3d6000fd5b505050506040513d6000823e601f3d908101601f19168201604052610f6b91908101906148e4565b805190915060005b81811015610fc157828181518110610f8d57610f8d6145de565b60200260200101516001600160a01b0316856001600160a01b031603610fb957600193505050506104a2565b600101610f73565b50600095945050505050565b6000808060606001600160a01b037f0000000000000000000000000000000000000000000000000000000000000000166383db9d01604087018035906110169060208a01614005565b6040516001600160e01b031960e085901b16815260048101929092526001600160a01b03166024820152604401602060405180830381865afa158015611060573d6000803e3d6000fd5b505050506040513d601f19601f82011682018060405250810190611084919061497e565b156110a15761271085608001358660a00135935093509350611103565b6040808601356000908152600160205220544210156110ec576040517f04c3b3cd00000000000000000000000000000000000000000000000000000000815260040160405180910390fd5b84610160013585608001358660a001359350935093505b9193509193565b7f00000000000000000000000000000000000000000000000000000000000000006001600160a01b0316631f47ce696040518163ffffffff1660e01b8152600401602060405180830381865afa158015611168573d6000803e3d6000fd5b505050506040513d601f19601f8201168201806040525081019061118c919061429a565b6001600160a01b031663f434c9146040518163ffffffff1660e01b8152600401602060405180830381865afa1580156111c9573d6000803e3d6000fd5b505050506040513d601f19601f820116820180604052508101906111ed919061429a565b6001600160a01b0316630f5932f0611203612345565b308661120e88612354565b6040518563ffffffff1660e01b815260040161122d949392919061499b565b602060405180830381865afa15801561124a573d6000803e3d6000fd5b505050506040513d601f19601f8201168201806040525081019061126e919061497e565b61128b576040516331fb21f360e01b815260040160405180910390fd5b6000611295612345565b8383602001516040516020016112ad939291906149cd565b60408051601f1981840301815290829052805160209091012083517f2f3f50e00000000000000000000000000000000000000000000000000000000083529092506001600160a01b037f00000000000000000000000000000000000000000000000000000000000000001691632f3f50e09161132f9188918691600401614ad7565b6000604051808303816000875af115801561134e573d6000803e3d6000fd5b505050506040513d6000823e601f3d908101601f1916820160405261137691908101906148e4565b5080847f755ecfca2f6e66af8868551556bf7931740a7062db8e0882f4c322fdb0bb3f6085856113a4612345565b6040516113b393929190614b1f565b60405180910390a350505050565b60006113d688888888308761ffff168a61198b565b835190985060005b818110156114825760008a81526004602052604090208551869083908110611408576114086145de565b6020908102919091018101518254600180820185556000948552938390208251600390920201805473ffffffffffffffffffffffffffffffffffffffff19166001600160a01b039092169190911781559181015192820192909255604082015160028201906114779082614bab565b5050506001016113de565b50887fdfaf2737f25eace49d372b472ec03f1df0f9814dfc69d2b95c5e92a041f42e29856114ae612345565b6040516114bc929190614c6b565b60405180910390a25096979650505050505050565b60006114dc83612354565b90507f00000000000000000000000000000000000000000000000000000000000000006001600160a01b0316631f47ce696040518163ffffffff1660e01b8152600401602060405180830381865afa15801561153c573d6000803e3d6000fd5b505050506040513d601f19601f82011682018060405250810190611560919061429a565b6001600160a01b031663f434c9146040518163ffffffff1660e01b8152600401602060405180830381865afa15801561159d573d6000803e3d6000fd5b505050506040513d601f19601f820116820180604052508101906115c1919061429a565b6001600160a01b0316630f5932f06115d7612345565b3086856040518563ffffffff1660e01b81526004016115f9949392919061499b565b602060405180830381865afa158015611616573d6000803e3d6000fd5b505050506040513d601f19601f8201168201806040525081019061163a919061497e565b611657576040516331fb21f360e01b815260040160405180910390fd5b7f00000000000000000000000000000000000000000000000000000000000000006001600160a01b0316631f47ce696040518163ffffffff1660e01b8152600401602060405180830381865afa1580156116b5573d6000803e3d6000fd5b505050506040513d601f19601f820116820180604052508101906116d9919061429a565b6001600160a01b031663f434c9146040518163ffffffff1660e01b8152600401602060405180830381865afa158015611716573d6000803e3d6000fd5b505050506040513d601f19601f8201168201806040525081019061173a919061429a565b6001600160a01b03166305d2912e30604051806060016040528061175c612345565b6001600160a01b0316815260208082018990526040805160008152918201815291820152516001600160e01b031960e085901b1681526117a09291906004016148a1565b600060405180830381600087803b1580156117ba57600080fd5b505af11580156117ce573d6000803e3d6000fd5b505050507f00000000000000000000000000000000000000000000000000000000000000006001600160a01b0316631f47ce696040518163ffffffff1660e01b8152600401602060405180830381865afa158015611830573d6000803e3d6000fd5b505050506040513d601f19601f82011682018060405250810190611854919061429a565b6001600160a01b031663f434c9146040518163ffffffff1660e01b8152600401602060405180830381865afa158015611891573d6000803e3d6000fd5b505050506040513d601f19601f820116820180604052508101906118b5919061429a565b6001600160a01b03166305d2912e306040518060600160405280866001600160a01b03168152602001878152602001858152506040518363ffffffff1660e01b81526004016119059291906148a1565b600060405180830381600087803b15801561191f57600080fd5b505af1158015611933573d6000803e3d6000fd5b50505050816001600160a01b0316837f0329d6a81434b130c72eb65eea0e32e429dc1277b4aad86ec86454aefb61845161196b612345565b6040516001600160a01b03909116815260200160405180910390a3505050565b60008060008061199c8a888861250c565b9250925092508a600003611a77577f00000000000000000000000000000000000000000000000000000000000000006001600160a01b0316630634bae9308c6000015160400151868d8f60000151602001516040516020016119fe9190614c96565b6040516020818303038152906040526040518663ffffffff1660e01b8152600401611a2d9594939291906150cd565b6020604051808303816000875af1158015611a4c573d6000803e3d6000fd5b505050506040513d601f19601f82011682018060405250810190611a7091906145f4565b9a50611b35565b7f00000000000000000000000000000000000000000000000000000000000000006001600160a01b0316631ea7bc8c8c858c8e6000015160200151604051602001611ac29190614c96565b6040516020818303038152906040526040518563ffffffff1660e01b8152600401611af09493929190615135565b6020604051808303816000875af1158015611b0f573d6000803e3d6000fd5b505050506040513d601f19601f82011682018060405250810190611b3391906145f4565b505b8080611b455750468a6060015114155b15611b6757611b576276a700426145cb565b60008c8152600160205260409020555b7f00000000000000000000000000000000000000000000000000000000000000006001600160a01b031663581781918c8c60000151600001518d60000151602001518e60000151606001516040518563ffffffff1660e01b8152600401611bd19493929190615174565b6020604051808303816000875af1158015611bf0573d6000803e3d6000fd5b505050506040513d601f19601f82011682018060405250810190611c14919061429a565b5087516001600160a01b031615611c2f57611c2f8b896128cd565b7f00000000000000000000000000000000000000000000000000000000000000006001600160a01b031663dd5f214a8c6000611c6e8e60800151612a2d565b6040518463ffffffff1660e01b8152600401611c8c939291906151b1565b600060405180830381600087803b158015611ca657600080fd5b505af1158015611cba573d6000803e3d6000fd5b50505050600060405180606001604052808c608001516001600160a01b031681526020018d8152602001611ced8e612354565b81525090507f00000000000000000000000000000000000000000000000000000000000000006001600160a01b031663f434c9146040518163ffffffff1660e01b8152600401602060405180830381865afa158015611d50573d6000803e3d6000fd5b505050506040513d601f19601f82011682018060405250810190611d74919061429a565b6001600160a01b03166305d2912e30836040518363ffffffff1660e01b8152600401611da19291906148a1565b600060405180830381600087803b158015611dbb57600080fd5b505af1158015611dcf573d6000803e3d6000fd5b5050505060008b60400151118015611dea5750468b60600151145b15611eb8577f00000000000000000000000000000000000000000000000000000000000000006001600160a01b031663c7fb92de8d8d604001518e608001518f6000015160200151604051602001611e4291906151d0565b60405160208183030381529060405260006040518663ffffffff1660e01b8152600401611e73959493929190615220565b6020604051808303816000875af1158015611e92573d6000803e3d6000fd5b505050506040513d601f19601f82011682018060405250810190611eb691906145f4565b505b60408051600180825281830190925260009160208083019080368337019050509050601c81600081518110611eef57611eef6145de565b60200260200101818152505060405180606001604052807f00000000000000000000000000000000000000000000000000000000000000006001600160a01b031681526020018e81526020018281525091507f00000000000000000000000000000000000000000000000000000000000000006001600160a01b031663f434c9146040518163ffffffff1660e01b8152600401602060405180830381865afa158015611f9f573d6000803e3d6000fd5b505050506040513d601f19601f82011682018060405250810190611fc3919061429a565b6001600160a01b03166305d2912e30846040518363ffffffff1660e01b8152600401611ff09291906148a1565b600060405180830381600087803b15801561200a57600080fd5b505af115801561201e573d6000803e3d6000fd5b505050506020870151156120fe577f00000000000000000000000000000000000000000000000000000000000000006001600160a01b0316632f3f50e08e612064612345565b878b6020015160405160200161207c939291906149cd565b60408051601f198184030181529082905280516020909101208b516001600160e01b031960e086901b1683526120b59392600401614ad7565b6000604051808303816000875af11580156120d4573d6000803e3d6000fd5b505050506040513d6000823e601f3d908101601f191682016040526120fc91908101906148e4565b505b8c7f4b827371715024f69a0bc98c8df6edafe6e471e78488ab1b3849de72f66b12e08d8d8d8b8a8a8a61212f612345565b604051612143989796959493929190615383565b60405180910390a2509a9b9a5050505050505050505050565b805160008167ffffffffffffffff81111561217957612179612dcf565b6040519080825280602002602001820160405280156121ec57816020015b6121d96040518060c0016040528060006001600160a01b0316815260200160008152602001600081526020016000815260200160008152602001606081525090565b8152602001906001900390816121975790505b5090506122216040518060a0016040528060008152602001600081526020016000815260200160008152602001606081525090565b60005b838110156122b75784818151811061223e5761223e6145de565b602002602001015191506040518060c00160405280876001600160a01b031681526020018360000151815260200183602001518152602001836040015181526020018360600151815260200183608001518152508382815181106122a4576122a46145de565b6020908102919091010152600101612224565b5083511561233d576005546040517fab54877a0000000000000000000000000000000000000000000000000000000081526001600160a01b039091169063ab54877a9061230a90899086906004016154ec565b600060405180830381600087803b15801561232457600080fd5b505af1158015612338573d6000803e3d6000fd5b505050505b505050505050565b600061234f612b6b565b905090565b6060600060028054806020026020016040519081016040528092919081815260200182805480156123a457602002820191906000526020600020905b815481526020019060010190808311612390575b5050835160008881526003602090815260408083208054825181850281018501909352808352989950939792965094509192509083018282801561240757602002820191906000526020600020905b8154815260200190600101908083116123f3575b5050835193945061241e92508391508590506145cb565b67ffffffffffffffff81111561243657612436612dcf565b60405190808252806020026020018201604052801561245f578160200160208202803683370190505b50945060005b838110156124ac5784818151811061247f5761247f6145de565b6020026020010151868281518110612499576124996145de565b6020908102919091010152600101612465565b5060005b81811015612502578281815181106124ca576124ca6145de565b60200260200101518682866124df91906145cb565b815181106124ef576124ef6145de565b60209081029190910101526001016124b0565b5050505050919050565b6060806000808660a001515190508067ffffffffffffffff81111561253357612533612dcf565b60405190808252806020026020018201604052801561262557816020015b6126126040805161010080820183526000808352602080840182905283850182905260608085018390526080808601849052865161020081018852848152928301849052958201839052810182905293840181905260a084810182905260c0850182905260e0850182905291840181905261012084018190526101408401819052610160840181905261018084018190526101a084018190526101c084018190526101e0840152909190820190815260200160608152602001606081525090565b8152602001906001900390816125515790505b50935061263187612be0565b6040805160c081018252600080825260208201819052918101829052606081018290526080810182905260a081018290529194505b828110156128c1578860a001518181518110612684576126846145de565b60200260200101519150816000015164ffffffffff168682815181106126ac576126ac6145de565b60200260200101516000018181525050816060015164ffffffffff168682815181106126da576126da6145de565b6020026020010151602001818152505081604001516dffffffffffffffffffffffffffff16868281518110612711576127116145de565b60200260200101516040018181525050816080015163ffffffff1686828151811061273e5761273e6145de565b602002602001015160600181815250506000868281518110612762576127626145de565b6020026020010151608001906001600160a01b031690816001600160a01b031681525050604051806102000160405280836020015161ffff1681526020018360a0015161ffff166127106127b6919061559e565b815260208b81015163ffffffff16908201526000604082018190526060820181905260016080830181905260a0830182905260c0830182905260e083018290526101008301829052610120830182905261014083018290526101608301526101808201526001600160a01b038a166101a08201526101c0018890528651879083908110612845576128456145de565b602002602001015160a0018190525080600014801561286b5750815164ffffffffff1615155b8015612881575042826000015164ffffffffff16105b1561288b57600193505b846128968383612c21565b6040516020016128a79291906155b1565b60408051601f198184030181529190529450600101612666565b50505093509350939050565b602081810151516040805160808101825260008082529381018490529081018390526060810183905290915b828110156129ec5783602001518181518110612917576129176145de565b6020908102919091018101518551918101516040808301516060840151845192517f7b621d3a000000000000000000000000000000000000000000000000000000008152600481018c905262ffffff909416602485015263ffffffff91821660448501521660648301526001600160a01b039081166084830152919450911690637b621d3a9060a4016020604051808303816000875af11580156129bf573d6000803e3d6000fd5b505050506040513d601f19601f820116820180604052508101906129e3919061429a565b506001016128f9565b50509051600092835260208390526040909220805473ffffffffffffffffffffffffffffffffffffffff19166001600160a01b039093169290921790915550565b604080516001808252818301909252606091816020015b604080518082019091526000815260606020820152815260200190600190039081612a4457505060408051600180825281830190925291925060009190602082015b6040805160c08101825260008082526020808301829052928201819052606082018190526080820181905260a08201528252600019909201910181612a865790505090506040518060c00160405280600015158152602001633b9aca00815260200160008152602001846001600160a01b031681526020016000815260200160006001600160a01b031681525081600081518110612b2657612b266145de565b60200260200101819052506040518060400160405280600181526020018281525082600081518110612b5a57612b5a6145de565b602002602001018190525050919050565b6000366014336001600160a01b037f000000000000000000000000000000000000000000000000000000000000000016148015612ba85750808210155b15612bd857600036612bba838561559e565b612bc59282906155e0565b612bce9161560a565b60601c9250505090565b339250505090565b6020808201516060838101518451805181860151918401516040519496612c0b96959293920161563f565b6040516020818303038152906040529050919050565b606081158015612c375750825164ffffffffff16155b612c4957825164ffffffffff16612c4b565b425b83602001518460400151856060015186608001518760a00151604051602001612cc09695949392919095865261ffff94851660208701526dffffffffffffffffffffffffffff93909316604086015264ffffffffff91909116606085015263ffffffff1660808401521660a082015260c00190565b604051602081830303815290604052905092915050565b600060208284031215612ce957600080fd5b81356001600160e01b031981168114612d0157600080fd5b9392505050565b6001600160a01b0381168114612d1d57600080fd5b50565b8035612d2b81612d08565b919050565b600080600080600060808688031215612d4857600080fd5b8535612d5381612d08565b94506020860135612d6381612d08565b935060408601359250606086013567ffffffffffffffff80821115612d8757600080fd5b818801915088601f830112612d9b57600080fd5b813581811115612daa57600080fd5b896020828501011115612dbc57600080fd5b9699959850939650602001949392505050565b634e487b7160e01b600052604160045260246000fd5b6040516080810167ffffffffffffffff81118282101715612e0857612e08612dcf565b60405290565b60405160c0810167ffffffffffffffff81118282101715612e0857612e08612dcf565b6040805190810167ffffffffffffffff81118282101715612e0857612e08612dcf565b604051610180810167ffffffffffffffff81118282101715612e0857612e08612dcf565b604051610120810167ffffffffffffffff81118282101715612e0857612e08612dcf565b6040516060810167ffffffffffffffff81118282101715612e0857612e08612dcf565b60405160a0810167ffffffffffffffff81118282101715612e0857612e08612dcf565b604051601f8201601f1916810167ffffffffffffffff81118282101715612f0b57612f0b612dcf565b604052919050565b600067ffffffffffffffff821115612f2d57612f2d612dcf565b50601f01601f191660200190565b600082601f830112612f4c57600080fd5b8135612f5f612f5a82612f13565b612ee2565b818152846020838601011115612f7457600080fd5b816020850160208301376000918101602001919091529392505050565b600060808284031215612fa357600080fd5b612fab612de5565b9050813567ffffffffffffffff80821115612fc557600080fd5b612fd185838601612f3b565b83526020840135915080821115612fe757600080fd5b612ff385838601612f3b565b6020840152604084013591508082111561300c57600080fd5b5061301984828501612f3b565b6040830152506060820135606082015292915050565b803563ffffffff81168114612d2b57600080fd5b600067ffffffffffffffff82111561305d5761305d612dcf565b5060051b60200190565b803564ffffffffff81168114612d2b57600080fd5b803561ffff81168114612d2b57600080fd5b600082601f83011261309f57600080fd5b813560206130af612f5a83613043565b82815260c092830285018201928282019190878511156130ce57600080fd5b8387015b858110156131735781818a0312156130ea5760008081fd5b6130f2612e0e565b6130fb82613067565b815261310886830161307c565b868201526040808301356dffffffffffffffffffffffffffff8116811461312f5760008081fd5b908201526060613140838201613067565b90820152608061315183820161302f565b9082015260a061316283820161307c565b9082015284529284019281016130d2565b5090979650505050505050565b600060c0828403121561319257600080fd5b61319a612e0e565b9050813567ffffffffffffffff808211156131b457600080fd5b6131c085838601612f91565b83526131ce6020850161302f565b602084015260408401356040840152606084013560608401526131f360808501612d20565b608084015260a084013591508082111561320c57600080fd5b506132198482850161308e565b60a08301525092915050565b600082601f83011261323657600080fd5b81356020613246612f5a83613043565b8083825260208201915060208460051b87010193508684111561326857600080fd5b602086015b8481101561328d57803561328081612d08565b835291830191830161326d565b509695505050505050565b600082601f8301126132a957600080fd5b813560206132b9612f5a83613043565b82815260059290921b840181019181810190868411156132d857600080fd5b8286015b8481101561328d57803567ffffffffffffffff808211156132fd5760008081fd5b908801906040828b03601f19018113156133175760008081fd5b61331f612e31565b8784013561332c81612d08565b81529083013590828211156133415760008081fd5b61334f8c8984870101613225565b8189015286525050509183019183016132dc565b803562ffffff81168114612d2b57600080fd5b6000604080838503121561338957600080fd5b613391612e31565b9150823561339e81612d08565b825260208381013567ffffffffffffffff8111156133bb57600080fd5b8401601f810186136133cc57600080fd5b80356133da612f5a82613043565b81815260079190911b820183019083810190888311156133f957600080fd5b928401925b8284101561346d576080848a0312156134175760008081fd5b61341f612de5565b843561342a81612d08565b8152613437858701613363565b8682015261344687860161302f565b87820152606061345781870161302f565b90820152825260809390930192908401906133fe565b808588015250505050505092915050565b60006040828403121561349057600080fd5b613498612e31565b905067ffffffffffffffff80833511156134b157600080fd5b8235830184601f8201126134c457600080fd5b6134d1612f5a8235613043565b81358082526020808301929160051b840101878111156134f057600080fd5b602084015b8181101561363557858135111561350b57600080fd5b803585016040818b03601f1901121561352357600080fd5b61352b612e31565b6135386020830135612d08565b60208201358152876040830135111561355057600080fd5b6040820135820191508a603f83011261356857600080fd5b6020820135613579612f5a82613043565b81815260079190911b83016040019060208101908d83111561359a57600080fd5b6040850194505b82851015613616576080858f0312156135b957600080fd5b6135c1612de5565b6135cb8635612d08565b853581526135db6020870161302f565b60208201526135ed6040870135612d08565b6040860135604082015260608601356060820152808352506020820191506080850194506135a1565b80602085015250505080865250506020840193506020810190506134f5565b5050808552505050506020820135602082015292915050565b600080600080600060a0868803121561366657600080fd5b85359450602086013567ffffffffffffffff8082111561368557600080fd5b61369189838a01613180565b955060408801359150808211156136a757600080fd5b6136b389838a01613298565b945060608801359150808211156136c957600080fd5b6136d589838a01613376565b935060808801359150808211156136eb57600080fd5b506136f88882890161347e565b9150509295509295909350565b60006020828403121561371757600080fd5b5035919050565b60006020828403121561373057600080fd5b813567ffffffffffffffff81111561374757600080fd5b82016101808185031215612d0157600080fd5b60005b8381101561377557818101518382015260200161375d565b50506000910152565b6000815180845261379681602086016020860161375a565b601f01601f19169290920160200192915050565b600082825180855260208086019550808260051b84010181860160005b8481101561317357858303601f19018952815180516001600160a01b03168452848101518585015260409081015160609185018290529061380a8186018361377e565b9a86019a94505050908301906001016137c7565b82815260406020820152600061383760408301846137aa565b949350505050565b80356cffffffffffffffffffffffffff81168114612d2b57600080fd5b8015158114612d1d57600080fd5b8035612d2b8161385c565b803560ff81168114612d2b57600080fd5b6000608080838503121561389957600080fd5b6138a1612de5565b9150823567ffffffffffffffff8111156138ba57600080fd5b8301601f810185136138cb57600080fd5b803560206138db612f5a83613043565b82815261018092830284018201928282019190898511156138fb57600080fd5b948301945b848610156139ee5780868b0312156139185760008081fd5b613920612e54565b6139298761383f565b815261393685880161302f565b85820152604061394781890161302f565b90820152606061395888820161307c565b90820152613967878901612d20565b8189015260a0878101359082015260c0613982818901613363565b9082015260e061399388820161386a565b908201526101006139a588820161386a565b908201526101206139b788820161386a565b908201526101406139c988820161386a565b908201526101606139db88820161386a565b9082015283529485019491830191613900565b508652506139fd86820161302f565b8186015250505050613a1160408301613875565b6040820152613a2260608301612d20565b606082015292915050565b600060808284031215613a3f57600080fd5b613a47612de5565b90508135613a548161385c565b81526020820135613a648161385c565b60208201526040820135613a778161385c565b60408201526060820135613a228161385c565b600060808284031215613a9c57600080fd5b613aa4612de5565b9050813567ffffffffffffffff80821115613abe57600080fd5b908301906101808286031215613ad357600080fd5b613adb612e78565b823582811115613aea57600080fd5b613af687828601612f3b565b825250602083013582811115613b0b57600080fd5b613b1787828601612f3b565b602083015250613b2960408401612d20565b6040820152606083013582811115613b4057600080fd5b613b4c87828601612f3b565b606083015250613b5e60808401612d20565b608082015260a083013582811115613b7557600080fd5b613b8187828601612f3b565b60a08301525060c083013582811115613b9957600080fd5b613ba587828601613886565b60c083015250613bb760e08401612d20565b60e08201526101009150613bcd86838501613a2d565b82820152808452505050613be36020830161386a565b6020820152613bf46040830161386a565b6040820152613a226060830161386a565b600082601f830112613c1657600080fd5b81356020613c26612f5a83613043565b82815260059290921b84018101918181019086841115613c4557600080fd5b8286015b8481101561328d57803567ffffffffffffffff80821115613c6a5760008081fd5b908801906060828b03601f1901811315613c845760008081fd5b613c8c612e9c565b87840135613c9981612d08565b815260408481013589830152918401359183831115613cb85760008081fd5b613cc68d8a85880101612f3b565b908201528652505050918301918301613c49565b600080600080600080600080610100898b031215613cf757600080fd5b88359750602089013567ffffffffffffffff80821115613d1657600080fd5b613d228c838d01613180565b985060408b0135915080821115613d3857600080fd5b613d448c838d01613298565b975060608b0135915080821115613d5a57600080fd5b613d668c838d01613376565b965060808b0135915080821115613d7c57600080fd5b613d888c838d0161347e565b955060a08b0135915080821115613d9e57600080fd5b613daa8c838d01613a8a565b945060c08b0135915080821115613dc057600080fd5b50613dcd8b828c01613c05565b925050613ddc60e08a0161307c565b90509295985092959890939650565b600082601f830112613dfc57600080fd5b81356020613e0c612f5a83613043565b82815260059290921b84018101918181019086841115613e2b57600080fd5b8286015b8481101561328d57803567ffffffffffffffff80821115613e505760008081fd5b9088019060a0828b03601f1901811315613e6a5760008081fd5b613e72612ebf565b87840135815260408085013589830152606080860135828401526080915081860135818401525082850135925083831115613ead5760008081fd5b613ebb8d8a85880101613225565b908201528652505050918301918301613e2f565b60008060008060008060008060006101208a8c031215613eee57600080fd5b8935985060208a013567ffffffffffffffff80821115613f0d57600080fd5b613f198d838e01613180565b995060408c0135915080821115613f2f57600080fd5b613f3b8d838e01613298565b985060608c0135915080821115613f5157600080fd5b613f5d8d838e01613376565b975060808c0135915080821115613f7357600080fd5b613f7f8d838e0161347e565b965060a08c0135915080821115613f9557600080fd5b613fa18d838e01613a8a565b955060c08c0135915080821115613fb757600080fd5b613fc38d838e01613c05565b9450613fd160e08d0161307c565b93506101008c0135915080821115613fe857600080fd5b50613ff58c828d01613deb565b9150509295985092959850929598565b60006020828403121561401757600080fd5b8135612d0181612d08565b602081526000612d0160208301846137aa565b6000806040838503121561404857600080fd5b82359150602083013561405a81612d08565b809150509250929050565b60006020828403121561407757600080fd5b813567ffffffffffffffff81111561408e57600080fd5b82016101a08185031215612d0157600080fd5b60006080820186835260208681850152604086604086015260606080606087015283875180865260a08801915060a08160051b890101955084890160005b8281101561412f57898803609f19018452815180516001600160a01b0316895287810151888a015286015186890186905261411c868a018261377e565b98505092860192908601906001016140df565b50959c9b505050505050505050505050565b60008060006060848603121561415657600080fd5b83359250602084013567ffffffffffffffff8082111561417557600080fd5b61418187838801612f3b565b9350604086013591508082111561419757600080fd5b506141a48682870161347e565b9150509250925092565b600080600080600080600060e0888a0312156141c957600080fd5b87359650602088013567ffffffffffffffff808211156141e857600080fd5b6141f48b838c01613180565b975060408a013591508082111561420a57600080fd5b6142168b838c01613298565b965060608a013591508082111561422c57600080fd5b6142388b838c01613376565b955060808a013591508082111561424e57600080fd5b61425a8b838c0161347e565b945060a08a013591508082111561427057600080fd5b5061427d8a828b01613c05565b92505061428c60c0890161307c565b905092959891949750929550565b6000602082840312156142ac57600080fd5b8151612d0181612d08565b80356142c281612d08565b6001600160a01b031682526020818101359083015260408082013590830152606090810135910152565b6000808335601e1984360301811261430357600080fd5b830160208101925035905067ffffffffffffffff81111561432357600080fd5b80360382131561433257600080fd5b9250929050565b81835281816020850137506000828201602090810191909152601f909101601f19169091010190565b602081526143836020820161437684612d20565b6001600160a01b03169052565b600061439160208401612d20565b6001600160a01b0381166040840152506143b160608301604085016142b7565b60c083013560e083015261010060e0840135818401526143d2818501612d20565b90506101206143eb818501836001600160a01b03169052565b61014091508085013582850152506101608185013581850152614410818601866142ec565b610180868101529250905061442a6101a085018383614339565b95945050505050565b600080604080848603121561444757600080fd5b8351925060208085015167ffffffffffffffff8082111561446757600080fd5b818701915087601f83011261447b57600080fd5b8151614489612f5a82613043565b81815260059190911b8301840190848101908a8311156144a857600080fd5b8585015b83811015614569578051858111156144c357600080fd5b86016060818e03601f190112156144da5760008081fd5b6144e2612e9c565b888201516144ef81612d08565b8152818a01518982015260608201518781111561450c5760008081fd5b8083019250508d603f8301126145225760008081fd5b88820151614532612f5a82612f13565b8181528f8c8386010111156145475760008081fd5b614556828c83018e870161375a565b828c0152508452509186019186016144ac565b50809750505050505050509250929050565b600181811c9082168061458f57607f821691505b6020821081036145af57634e487b7160e01b600052602260045260246000fd5b50919050565b634e487b7160e01b600052601160045260246000fd5b808201808211156104a2576104a26145b5565b634e487b7160e01b600052603260045260246000fd5b60006020828403121561460657600080fd5b5051919050565b80516080808452815184820181905260009260a0916020918201918388019190865b828110156146f257845180516cffffffffffffffffffffffffff1685528281015163ffffffff908116848701526040808301519091169086015260608082015161ffff1690860152878101516001600160a01b031688860152868101518786015260c08082015162ffffff169086015260e08082015115159086015261010080820151151590860152610120808201511515908601526101408082015115159086015261016090810151151590850152938101936101809093019260010161462f565b508781015163ffffffff16908901525060408087015160ff16908801526060808701516001600160a01b038116918901919091529350610586565b828152604060208201526000825161018060408401526147516101c084018261377e565b90506020840151603f198085840301606086015261476f838361377e565b92506040860151915061478d60808601836001600160a01b03169052565b60608601519150808584030160a08601526147a8838361377e565b9250608086015191506147c660c08601836001600160a01b03169052565b60a08601519150808584030160e08601526147e1838361377e565b925060c08601519150610100818685030181870152614800848461460d565b935060e0870151925061481f6101208701846001600160a01b03169052565b860151805115156101408701526020810151151561016087015260408101511515610180870152606081015115156101a0870152915061485c9050565b50949350505050565b60008151808452602080850194506020840160005b838110156148965781518752958201959082019060010161487a565b509495945050505050565b60006001600160a01b03808516835260406020840152808451166040840152506020830151606083015260408301516060608084015261442a60a0840182614865565b600060208083850312156148f757600080fd5b825167ffffffffffffffff81111561490e57600080fd5b8301601f8101851361491f57600080fd5b805161492d612f5a82613043565b81815260059190911b8201830190838101908783111561494c57600080fd5b928401925b8284101561497357835161496481612d08565b82529284019290840190614951565b979650505050505050565b60006020828403121561499057600080fd5b8151612d018161385c565b60006001600160a01b038087168352808616602084015250836040830152608060608301526105866080830184614865565b6bffffffffffffffffffffffff198460601b168152600083516149f781601485016020880161375a565b60149201918201929092526034019392505050565b600082825180855260208086019550808260051b8401018186016000805b85811015614ac957868403601f19018a52825180516001600160a01b03908116865290860151604087870181905281518188018190529188019290916060919082890190875b81811015614ab15786518051851684528c81015163ffffffff168d8501528681015185168785015285015185840152958b0195608090920191600101614a70565b50509d89019d97505050938601935050600101614a2a565b509198975050505050505050565b83815282602082015260606040820152600061442a6060830184614a0c565b6000815160408452614b0b6040850182614a0c565b602093840151949093019390935250919050565b606081526000614b32606083018661377e565b8281036020840152614b448186614af6565b9150506001600160a01b0383166040830152949350505050565b601f821115614ba6576000816000526020600020601f850160051c81016020861015614b875750805b601f850160051c820191505b8181101561233d57828155600101614b93565b505050565b815167ffffffffffffffff811115614bc557614bc5612dcf565b614bd981614bd3845461457b565b84614b5e565b602080601f831160018114614c0e5760008415614bf65750858301515b600019600386901b1c1916600185901b17855561233d565b600085815260208120601f198616915b82811015614c3d57888601518255948401946001909101908401614c1e565b5085821015614c5b5787850151600019600388901b60f8161c191681555b5050505050600190811b01905550565b604081526000614c7e60408301856137aa565b90506001600160a01b03831660208301529392505050565b600960fa1b815260008251614cb281600185016020870161375a565b7f207265766e6574206465706c6f796564000000000000000000000000000000006001939091019283015250601101919050565b8051825260208101516020830152604081015160408301526060810151614d11606084018215159052565b506080810151614d25608084018215159052565b5060a0810151614d3960a084018215159052565b5060c0810151614d4d60c084018215159052565b5060e0810151614d6160e084018215159052565b5061010081810151151590830152610120808201511515908301526101408082015115159083015261016080820151151590830152610180808201511515908301526101a0808201511515908301526101c0808201516001600160a01b0316908301526101e090810151910152565b600082825180855260208086019550808260051b8401018186016000805b85811015614ac957868403601f19018a52825180518552850151604086860181905281518187018190529187019160609081880190865b81811015614e7f5785518051151584528b8101518c8501528581015186850152848101516001600160a01b03908116868601526080808301519086015260a0918201511690840152948a019460c090920191600101614e25565b50509c88019c965050509285019250600101614dee565b60008151808452602080850194506020840160005b83811015614896578151805188528301518388015260409096019590820190600101614eab565b600082825180855260208086019550808260051b84010181860160005b8481101561317357601f19868403018952815160806001600160a01b0380835116865280878401511687870152506040808301518282880152614f3483880182614e96565b9250505060608083015192508582038187015250614f528183614e96565b9a86019a9450505090830190600101614eef565b600082825180855260208086019550808260051b84010181860160005b8481101561317357858303601f19018952815180518452848101518585015260408082015190850152606080820151908501526080808201516001600160a01b03169085015260a0808201516102e09190614fe082880182614ce6565b505060c0820151816102a0870152614ffa82870182614dd0565b91505060e082015191508481036102c08601526150178183614ed2565b9a86019a9450505090830190600101614f83565b60008151808452602080850194506020840160005b838110156148965781516001600160a01b031687529582019590820190600101615040565b600082825180855260208086019550808260051b84010181860160005b8481101561317357858303601f19018952815180516001600160a01b0316845284015160408585018190526150b98186018361502b565b9a86019a9450505090830190600101615082565b6001600160a01b038616815260a0602082015260006150ef60a083018761377e565b82810360408401526151018187614f66565b905082810360608401526151158186615065565b90508281036080840152615129818561377e565b98975050505050505050565b84815260806020820152600061514e6080830186614f66565b82810360408401526151608186615065565b90508281036060840152614973818561377e565b84815260806020820152600061518d608083018661377e565b828103604084015261519f818661377e565b91505082606083015295945050505050565b83815282602082015260606040820152600061442a6060830184614dd0565b600960fa1b8152600082516151ec81600185016020870161375a565b7f207072656d696e746564000000000000000000000000000000000000000000006001939091019283015250600b01919050565b8581528460208201526001600160a01b038416604082015260a06060820152600061524e60a083018561377e565b905082151560808301529695505050505050565b60008151808452602080850194506020840160005b83811015614896578151805164ffffffffff90811689528482015161ffff908116868b01526040808401516dffffffffffffffffffffffffffff16908b0152606080840151909216918a019190915260808083015163ffffffff16908a015260a091820151169088015260c09096019590820190600101615277565b600060408084016001600160a01b038085511686526020808601516040828901528381518086526060955060608a019150838301925060005b818110156153745783518051871684528581015162ffffff16868501528881015163ffffffff9081168a8601529088015116878401529284019260809092019160010161532c565b50909998505050505050505050565b60006101008083528a5160c0828501528051915060806101c08501526153ad61024085018361377e565b915060208101516101bf1980868503016101e08701526153cd848361377e565b9350604083015191508086850301610200870152506153ec838261377e565b92505060608101516102208501525060208b015161541361012085018263ffffffff169052565b5060408b015161014084015260608b015161016084015260808b01516001600160a01b031661018084015260a08b015183820360ff19016101a085015261545a8282615262565b915050828103602084015261546f818b615065565b90508281036040840152615483818a6152f3565b905082810360608401526154978189614af6565b905082810360808401526154ab8188614f66565b905082810360a08401526154bf818761377e565b9150506154d060c083018515159052565b6001600160a01b03831660e08301529998505050505050505050565b6000604080830185845260206040818601528186518084526060935060608701915060608160051b88010183890160005b8381101561558e57898303605f19018552815180516001600160a01b031684528681015187850152888101518985015287810151888501526080808201519085015260a09081015160c09185018290529061557a8186018361502b565b96880196945050509085019060010161551d565b50909a9950505050505050505050565b818103818111156104a2576104a26145b5565b600083516155c381846020880161375a565b8351908301906155d781836020880161375a565b01949350505050565b600080858511156155f057600080fd5b838611156155fd57600080fd5b5050820193919092039150565b6bffffffffffffffffffffffff1981358181169160148510156156375780818660140360031b1b83161692505b505092915050565b63ffffffff8616815284602082015260a06040820152600061566460a083018661377e565b8281036060840152615676818661377e565b915050826080830152969550505050505056fea264697066735822122087339da47a0b05b2b9751dea45ef3aff5124cc2822591355779c8aa355b166a564736f6c63430008170033",
			"deployedBytecode": "0x608060405234801561001057600080fd5b50600436106101775760003560e01c80637249a773116100d8578063b5d255331161008c578063dbfbe5da11610066578063dbfbe5da146103f2578063eb5ad9d914610405578063ee0fc1211461041857600080fd5b8063b5d25533146103a3578063bb199402146103ca578063c4b0efa8146103df57600080fd5b80639d82ba25116100bd5780639d82ba251461034f578063aaf320d714610359578063abf8c5c81461037c57600080fd5b80637249a773146102e85780637da0a8771461032957600080fd5b80634c6034ef1161012f578063572b6c0511610114578063572b6c05146102755780635c0a7cee146102b5578063677ce088146102d557600080fd5b80634c6034ef146102325780634f6a01381461026257600080fd5b80631d3eedaa116101605780631d3eedaa146101d057806343681e15146101f15780634c4ffc711461021157600080fd5b806301ffc9a71461017c578063150b7a02146101a4575b600080fd5b61018f61018a366004612cd7565b61043f565b60405190151581526020015b60405180910390f35b6101b76101b2366004612d30565b6104a8565b6040516001600160e01b0319909116815260200161019b565b6101e36101de36600461364e565b610574565b60405190815260200161019b565b6101e36101ff366004613705565b60016020526000908152604090205481565b61022461021f36600461371e565b610590565b60405161019b92919061381e565b610245610240366004613cda565b610887565b604080519283526001600160a01b0390911660208301520161019b565b610245610270366004613ecf565b610bd7565b61018f610283366004614005565b7f000000000000000000000000b2b5841dbef766d4b521221732f9b618fcf34a876001600160a01b0390811691161490565b6102c86102c3366004613705565b610d74565b60405161019b9190614022565b61018f6102e3366004614035565b610e98565b6103116102f6366004613705565b6000602081905290815260409020546001600160a01b031681565b6040516001600160a01b03909116815260200161019b565b7f000000000000000000000000b2b5841dbef766d4b521221732f9b618fcf34a87610311565b6101e36276a70081565b61036c610367366004614065565b610fcd565b60405161019b94939291906140a1565b6103117f000000000000000000000000d3838b2875a06e61befc3679ee2c8d88d61067dc81565b6103117f0000000000000000000000003f209ab51b59bc6c2c9c2f2147d3d51e29a862d781565b6103dd6103d8366004614141565b61110a565b005b6101e36103ed3660046141ae565b6113c1565b600554610311906001600160a01b031681565b6103dd610413366004614035565b6114d1565b6103117f000000000000000000000000799d42391ed21894b105590300eed66255d7222581565b60006001600160e01b031982167f81c03c2e0000000000000000000000000000000000000000000000000000000014806104a257507f01ffc9a7000000000000000000000000000000000000000000000000000000006001600160e01b03198316145b92915050565b60007f000000000000000000000000799d42391ed21894b105590300eed66255d722256001600160a01b031663293c49996040518163ffffffff1660e01b8152600401602060405180830381865afa158015610508573d6000803e3d6000fd5b505050506040513d601f19601f8201168201806040525081019061052c919061429a565b6001600160a01b0316336001600160a01b03161461054957600080fd5b507f150b7a020000000000000000000000000000000000000000000000000000000095945050505050565b6000610586868686863060008861198b565b9695505050505050565b60c081013560009081526020819052604081205460609081906001600160a01b03168015610648576040517f4c4ffc710000000000000000000000000000000000000000000000000000000081526001600160a01b03821690634c4ffc71906105fd908890600401614362565b600060405180830381865afa15801561061a573d6000803e3d6000fd5b505050506040513d6000823e601f3d908101601f191682016040526106429190810190614433565b90945091505b815160c086013560009081526004602090815260408083208054825181850281018501909352808352941515949192909190849084015b82821015610763576000848152602090819020604080516060810182526003860290920180546001600160a01b03168352600181015493830193909352600283018054929392918401916106d29061457b565b80601f01602080910402602001604051908101604052809291908181526020018280546106fe9061457b565b801561074b5780601f106107205761010080835404028352916020019161074b565b820191906000526020600020905b81548152906001019060200180831161072e57829003601f168201915b5050505050815250508152602001906001019061067f565b5050505090506000815190508261077b57600061077e565b60015b61078b9060ff16826145cb565b67ffffffffffffffff8111156107a3576107a3612dcf565b6040519080825280602002602001820160405280156107f057816020015b604080516060808201835260008083526020830152918101919091528152602001906001900390816107c15790505b50955060005b8181101561083d57828181518110610810576108106145de565b602002602001015187828151811061082a5761082a6145de565b60209081029190910101526001016107f6565b50821561087d5784600081518110610857576108576145de565b6020026020010151868281518110610871576108716145de565b60200260200101819052505b5050505050915091565b60008089808203610983577f000000000000000000000000799d42391ed21894b105590300eed66255d722256001600160a01b031663293c49996040518163ffffffff1660e01b8152600401602060405180830381865afa1580156108f0573d6000803e3d6000fd5b505050506040513d601f19601f82011682018060405250810190610914919061429a565b6001600160a01b03166306661abd6040518163ffffffff1660e01b8152600401602060405180830381865afa158015610951573d6000803e3d6000fd5b505050506040513d601f19601f8201168201806040525081019061097591906145f4565b6109809060016145cb565b9a505b845160006109928260016145cb565b67ffffffffffffffff8111156109aa576109aa612dcf565b6040519080825280602002602001820160405280156109f757816020015b604080516060808201835260008083526020830152918101919091528152602001906001900390816109c85790505b50905060005b82811015610a4457878181518110610a1757610a176145de565b6020026020010151828281518110610a3157610a316145de565b60209081029190910101526001016109fd565b507f000000000000000000000000d3838b2875a06e61befc3679ee2c8d88d61067dc6001600160a01b0316632230819f8e8a600001516040518363ffffffff1660e01b8152600401610a9792919061472d565b6020604051808303816000875af1158015610ab6573d6000803e3d6000fd5b505050506040513d601f19601f82011682018060405250810190610ada919061429a565b9350876020015115610b095760008d815260036020908152604082208054600181018255908352912060159101555b876040015115610b365760008d815260036020908152604082208054600181018255908352912060169101555b876060015115610b635760008d815260036020908152604082208054600181018255908352912060179101555b6040518060600160405280856001600160a01b031681526020016000815260200160405180602001604052806000815250815250818381518110610ba957610ba96145de565b6020026020010181905250610bc3838d8d8d8d868c6113c1565b508c94505050509850989650505050505050565b600080610bea8b8b8b8b8b8b8b8b610887565b909b509050610bfa8b828561215c565b7f000000000000000000000000799d42391ed21894b105590300eed66255d722256001600160a01b031663f434c9146040518163ffffffff1660e01b8152600401602060405180830381865afa158015610c58573d6000803e3d6000fd5b505050506040513d601f19601f82011682018060405250810190610c7c919061429a565b6001600160a01b03166305d2912e306040518060600160405280600560009054906101000a90046001600160a01b03166001600160a01b031681526020018f81526020016006805480602002602001604051908101604052809291908181526020018280548015610d0c57602002820191906000526020600020905b815481526020019060010190808311610cf8575b50505050508152506040518363ffffffff1660e01b8152600401610d319291906148a1565b600060405180830381600087803b158015610d4b57600080fd5b505af1158015610d5f573d6000803e3d6000fd5b505050508a9150995099975050505050505050565b606060046000838152602001908152602001600020805480602002602001604051908101604052809291908181526020016000905b82821015610e8d576000848152602090819020604080516060810182526003860290920180546001600160a01b0316835260018101549383019390935260028301805492939291840191610dfc9061457b565b80601f0160208091040260200160405190810160405280929190818152602001828054610e289061457b565b8015610e755780601f10610e4a57610100808354040283529160200191610e75565b820191906000526020600020905b815481529060010190602001808311610e5857829003601f168201915b50505050508152505081526020019060010190610da9565b505050509050919050565b6000828152602081905260408120546001600160a01b0390811690831603610ec2575060016104a2565b6040517f3d12cb87000000000000000000000000000000000000000000000000000000008152600481018490526000907f0000000000000000000000003f209ab51b59bc6c2c9c2f2147d3d51e29a862d76001600160a01b031690633d12cb8790602401600060405180830381865afa158015610f43573d6000803e3d6000fd5b505050506040513d6000823e601f3d908101601f19168201604052610f6b91908101906148e4565b805190915060005b81811015610fc157828181518110610f8d57610f8d6145de565b60200260200101516001600160a01b0316856001600160a01b031603610fb957600193505050506104a2565b600101610f73565b50600095945050505050565b6000808060606001600160a01b037f0000000000000000000000003f209ab51b59bc6c2c9c2f2147d3d51e29a862d7166383db9d01604087018035906110169060208a01614005565b6040516001600160e01b031960e085901b16815260048101929092526001600160a01b03166024820152604401602060405180830381865afa158015611060573d6000803e3d6000fd5b505050506040513d601f19601f82011682018060405250810190611084919061497e565b156110a15761271085608001358660a00135935093509350611103565b6040808601356000908152600160205220544210156110ec576040517f04c3b3cd00000000000000000000000000000000000000000000000000000000815260040160405180910390fd5b84610160013585608001358660a001359350935093505b9193509193565b7f000000000000000000000000799d42391ed21894b105590300eed66255d722256001600160a01b0316631f47ce696040518163ffffffff1660e01b8152600401602060405180830381865afa158015611168573d6000803e3d6000fd5b505050506040513d601f19601f8201168201806040525081019061118c919061429a565b6001600160a01b031663f434c9146040518163ffffffff1660e01b8152600401602060405180830381865afa1580156111c9573d6000803e3d6000fd5b505050506040513d601f19601f820116820180604052508101906111ed919061429a565b6001600160a01b0316630f5932f0611203612345565b308661120e88612354565b6040518563ffffffff1660e01b815260040161122d949392919061499b565b602060405180830381865afa15801561124a573d6000803e3d6000fd5b505050506040513d601f19601f8201168201806040525081019061126e919061497e565b61128b576040516331fb21f360e01b815260040160405180910390fd5b6000611295612345565b8383602001516040516020016112ad939291906149cd565b60408051601f1981840301815290829052805160209091012083517f2f3f50e00000000000000000000000000000000000000000000000000000000083529092506001600160a01b037f0000000000000000000000003f209ab51b59bc6c2c9c2f2147d3d51e29a862d71691632f3f50e09161132f9188918691600401614ad7565b6000604051808303816000875af115801561134e573d6000803e3d6000fd5b505050506040513d6000823e601f3d908101601f1916820160405261137691908101906148e4565b5080847f755ecfca2f6e66af8868551556bf7931740a7062db8e0882f4c322fdb0bb3f6085856113a4612345565b6040516113b393929190614b1f565b60405180910390a350505050565b60006113d688888888308761ffff168a61198b565b835190985060005b818110156114825760008a81526004602052604090208551869083908110611408576114086145de565b6020908102919091018101518254600180820185556000948552938390208251600390920201805473ffffffffffffffffffffffffffffffffffffffff19166001600160a01b039092169190911781559181015192820192909255604082015160028201906114779082614bab565b5050506001016113de565b50887fdfaf2737f25eace49d372b472ec03f1df0f9814dfc69d2b95c5e92a041f42e29856114ae612345565b6040516114bc929190614c6b565b60405180910390a25096979650505050505050565b60006114dc83612354565b90507f000000000000000000000000799d42391ed21894b105590300eed66255d722256001600160a01b0316631f47ce696040518163ffffffff1660e01b8152600401602060405180830381865afa15801561153c573d6000803e3d6000fd5b505050506040513d601f19601f82011682018060405250810190611560919061429a565b6001600160a01b031663f434c9146040518163ffffffff1660e01b8152600401602060405180830381865afa15801561159d573d6000803e3d6000fd5b505050506040513d601f19601f820116820180604052508101906115c1919061429a565b6001600160a01b0316630f5932f06115d7612345565b3086856040518563ffffffff1660e01b81526004016115f9949392919061499b565b602060405180830381865afa158015611616573d6000803e3d6000fd5b505050506040513d601f19601f8201168201806040525081019061163a919061497e565b611657576040516331fb21f360e01b815260040160405180910390fd5b7f000000000000000000000000799d42391ed21894b105590300eed66255d722256001600160a01b0316631f47ce696040518163ffffffff1660e01b8152600401602060405180830381865afa1580156116b5573d6000803e3d6000fd5b505050506040513d601f19601f820116820180604052508101906116d9919061429a565b6001600160a01b031663f434c9146040518163ffffffff1660e01b8152600401602060405180830381865afa158015611716573d6000803e3d6000fd5b505050506040513d601f19601f8201168201806040525081019061173a919061429a565b6001600160a01b03166305d2912e30604051806060016040528061175c612345565b6001600160a01b0316815260208082018990526040805160008152918201815291820152516001600160e01b031960e085901b1681526117a09291906004016148a1565b600060405180830381600087803b1580156117ba57600080fd5b505af11580156117ce573d6000803e3d6000fd5b505050507f000000000000000000000000799d42391ed21894b105590300eed66255d722256001600160a01b0316631f47ce696040518163ffffffff1660e01b8152600401602060405180830381865afa158015611830573d6000803e3d6000fd5b505050506040513d601f19601f82011682018060405250810190611854919061429a565b6001600160a01b031663f434c9146040518163ffffffff1660e01b8152600401602060405180830381865afa158015611891573d6000803e3d6000fd5b505050506040513d601f19601f820116820180604052508101906118b5919061429a565b6001600160a01b03166305d2912e306040518060600160405280866001600160a01b03168152602001878152602001858152506040518363ffffffff1660e01b81526004016119059291906148a1565b600060405180830381600087803b15801561191f57600080fd5b505af1158015611933573d6000803e3d6000fd5b50505050816001600160a01b0316837f0329d6a81434b130c72eb65eea0e32e429dc1277b4aad86ec86454aefb61845161196b612345565b6040516001600160a01b03909116815260200160405180910390a3505050565b60008060008061199c8a888861250c565b9250925092508a600003611a77577f000000000000000000000000799d42391ed21894b105590300eed66255d722256001600160a01b0316630634bae9308c6000015160400151868d8f60000151602001516040516020016119fe9190614c96565b6040516020818303038152906040526040518663ffffffff1660e01b8152600401611a2d9594939291906150cd565b6020604051808303816000875af1158015611a4c573d6000803e3d6000fd5b505050506040513d601f19601f82011682018060405250810190611a7091906145f4565b9a50611b35565b7f000000000000000000000000799d42391ed21894b105590300eed66255d722256001600160a01b0316631ea7bc8c8c858c8e6000015160200151604051602001611ac29190614c96565b6040516020818303038152906040526040518563ffffffff1660e01b8152600401611af09493929190615135565b6020604051808303816000875af1158015611b0f573d6000803e3d6000fd5b505050506040513d601f19601f82011682018060405250810190611b3391906145f4565b505b8080611b455750468a6060015114155b15611b6757611b576276a700426145cb565b60008c8152600160205260409020555b7f000000000000000000000000799d42391ed21894b105590300eed66255d722256001600160a01b031663581781918c8c60000151600001518d60000151602001518e60000151606001516040518563ffffffff1660e01b8152600401611bd19493929190615174565b6020604051808303816000875af1158015611bf0573d6000803e3d6000fd5b505050506040513d601f19601f82011682018060405250810190611c14919061429a565b5087516001600160a01b031615611c2f57611c2f8b896128cd565b7f000000000000000000000000799d42391ed21894b105590300eed66255d722256001600160a01b031663dd5f214a8c6000611c6e8e60800151612a2d565b6040518463ffffffff1660e01b8152600401611c8c939291906151b1565b600060405180830381600087803b158015611ca657600080fd5b505af1158015611cba573d6000803e3d6000fd5b50505050600060405180606001604052808c608001516001600160a01b031681526020018d8152602001611ced8e612354565b81525090507f000000000000000000000000799d42391ed21894b105590300eed66255d722256001600160a01b031663f434c9146040518163ffffffff1660e01b8152600401602060405180830381865afa158015611d50573d6000803e3d6000fd5b505050506040513d601f19601f82011682018060405250810190611d74919061429a565b6001600160a01b03166305d2912e30836040518363ffffffff1660e01b8152600401611da19291906148a1565b600060405180830381600087803b158015611dbb57600080fd5b505af1158015611dcf573d6000803e3d6000fd5b5050505060008b60400151118015611dea5750468b60600151145b15611eb8577f000000000000000000000000799d42391ed21894b105590300eed66255d722256001600160a01b031663c7fb92de8d8d604001518e608001518f6000015160200151604051602001611e4291906151d0565b60405160208183030381529060405260006040518663ffffffff1660e01b8152600401611e73959493929190615220565b6020604051808303816000875af1158015611e92573d6000803e3d6000fd5b505050506040513d601f19601f82011682018060405250810190611eb691906145f4565b505b60408051600180825281830190925260009160208083019080368337019050509050601c81600081518110611eef57611eef6145de565b60200260200101818152505060405180606001604052807f0000000000000000000000003f209ab51b59bc6c2c9c2f2147d3d51e29a862d76001600160a01b031681526020018e81526020018281525091507f000000000000000000000000799d42391ed21894b105590300eed66255d722256001600160a01b031663f434c9146040518163ffffffff1660e01b8152600401602060405180830381865afa158015611f9f573d6000803e3d6000fd5b505050506040513d601f19601f82011682018060405250810190611fc3919061429a565b6001600160a01b03166305d2912e30846040518363ffffffff1660e01b8152600401611ff09291906148a1565b600060405180830381600087803b15801561200a57600080fd5b505af115801561201e573d6000803e3d6000fd5b505050506020870151156120fe577f0000000000000000000000003f209ab51b59bc6c2c9c2f2147d3d51e29a862d76001600160a01b0316632f3f50e08e612064612345565b878b6020015160405160200161207c939291906149cd565b60408051601f198184030181529082905280516020909101208b516001600160e01b031960e086901b1683526120b59392600401614ad7565b6000604051808303816000875af11580156120d4573d6000803e3d6000fd5b505050506040513d6000823e601f3d908101601f191682016040526120fc91908101906148e4565b505b8c7f4b827371715024f69a0bc98c8df6edafe6e471e78488ab1b3849de72f66b12e08d8d8d8b8a8a8a61212f612345565b604051612143989796959493929190615383565b60405180910390a2509a9b9a5050505050505050505050565b805160008167ffffffffffffffff81111561217957612179612dcf565b6040519080825280602002602001820160405280156121ec57816020015b6121d96040518060c0016040528060006001600160a01b0316815260200160008152602001600081526020016000815260200160008152602001606081525090565b8152602001906001900390816121975790505b5090506122216040518060a0016040528060008152602001600081526020016000815260200160008152602001606081525090565b60005b838110156122b75784818151811061223e5761223e6145de565b602002602001015191506040518060c00160405280876001600160a01b031681526020018360000151815260200183602001518152602001836040015181526020018360600151815260200183608001518152508382815181106122a4576122a46145de565b6020908102919091010152600101612224565b5083511561233d576005546040517fab54877a0000000000000000000000000000000000000000000000000000000081526001600160a01b039091169063ab54877a9061230a90899086906004016154ec565b600060405180830381600087803b15801561232457600080fd5b505af1158015612338573d6000803e3d6000fd5b505050505b505050505050565b600061234f612b6b565b905090565b6060600060028054806020026020016040519081016040528092919081815260200182805480156123a457602002820191906000526020600020905b815481526020019060010190808311612390575b5050835160008881526003602090815260408083208054825181850281018501909352808352989950939792965094509192509083018282801561240757602002820191906000526020600020905b8154815260200190600101908083116123f3575b5050835193945061241e92508391508590506145cb565b67ffffffffffffffff81111561243657612436612dcf565b60405190808252806020026020018201604052801561245f578160200160208202803683370190505b50945060005b838110156124ac5784818151811061247f5761247f6145de565b6020026020010151868281518110612499576124996145de565b6020908102919091010152600101612465565b5060005b81811015612502578281815181106124ca576124ca6145de565b60200260200101518682866124df91906145cb565b815181106124ef576124ef6145de565b60209081029190910101526001016124b0565b5050505050919050565b6060806000808660a001515190508067ffffffffffffffff81111561253357612533612dcf565b60405190808252806020026020018201604052801561262557816020015b6126126040805161010080820183526000808352602080840182905283850182905260608085018390526080808601849052865161020081018852848152928301849052958201839052810182905293840181905260a084810182905260c0850182905260e0850182905291840181905261012084018190526101408401819052610160840181905261018084018190526101a084018190526101c084018190526101e0840152909190820190815260200160608152602001606081525090565b8152602001906001900390816125515790505b50935061263187612be0565b6040805160c081018252600080825260208201819052918101829052606081018290526080810182905260a081018290529194505b828110156128c1578860a001518181518110612684576126846145de565b60200260200101519150816000015164ffffffffff168682815181106126ac576126ac6145de565b60200260200101516000018181525050816060015164ffffffffff168682815181106126da576126da6145de565b6020026020010151602001818152505081604001516dffffffffffffffffffffffffffff16868281518110612711576127116145de565b60200260200101516040018181525050816080015163ffffffff1686828151811061273e5761273e6145de565b602002602001015160600181815250506000868281518110612762576127626145de565b6020026020010151608001906001600160a01b031690816001600160a01b031681525050604051806102000160405280836020015161ffff1681526020018360a0015161ffff166127106127b6919061559e565b815260208b81015163ffffffff16908201526000604082018190526060820181905260016080830181905260a0830182905260c0830182905260e083018290526101008301829052610120830182905261014083018290526101608301526101808201526001600160a01b038a166101a08201526101c0018890528651879083908110612845576128456145de565b602002602001015160a0018190525080600014801561286b5750815164ffffffffff1615155b8015612881575042826000015164ffffffffff16105b1561288b57600193505b846128968383612c21565b6040516020016128a79291906155b1565b60408051601f198184030181529190529450600101612666565b50505093509350939050565b602081810151516040805160808101825260008082529381018490529081018390526060810183905290915b828110156129ec5783602001518181518110612917576129176145de565b6020908102919091018101518551918101516040808301516060840151845192517f7b621d3a000000000000000000000000000000000000000000000000000000008152600481018c905262ffffff909416602485015263ffffffff91821660448501521660648301526001600160a01b039081166084830152919450911690637b621d3a9060a4016020604051808303816000875af11580156129bf573d6000803e3d6000fd5b505050506040513d601f19601f820116820180604052508101906129e3919061429a565b506001016128f9565b50509051600092835260208390526040909220805473ffffffffffffffffffffffffffffffffffffffff19166001600160a01b039093169290921790915550565b604080516001808252818301909252606091816020015b604080518082019091526000815260606020820152815260200190600190039081612a4457505060408051600180825281830190925291925060009190602082015b6040805160c08101825260008082526020808301829052928201819052606082018190526080820181905260a08201528252600019909201910181612a865790505090506040518060c00160405280600015158152602001633b9aca00815260200160008152602001846001600160a01b031681526020016000815260200160006001600160a01b031681525081600081518110612b2657612b266145de565b60200260200101819052506040518060400160405280600181526020018281525082600081518110612b5a57612b5a6145de565b602002602001018190525050919050565b6000366014336001600160a01b037f000000000000000000000000b2b5841dbef766d4b521221732f9b618fcf34a8716148015612ba85750808210155b15612bd857600036612bba838561559e565b612bc59282906155e0565b612bce9161560a565b60601c9250505090565b339250505090565b6020808201516060838101518451805181860151918401516040519496612c0b96959293920161563f565b6040516020818303038152906040529050919050565b606081158015612c375750825164ffffffffff16155b612c4957825164ffffffffff16612c4b565b425b83602001518460400151856060015186608001518760a00151604051602001612cc09695949392919095865261ffff94851660208701526dffffffffffffffffffffffffffff93909316604086015264ffffffffff91909116606085015263ffffffff1660808401521660a082015260c00190565b604051602081830303815290604052905092915050565b600060208284031215612ce957600080fd5b81356001600160e01b031981168114612d0157600080fd5b9392505050565b6001600160a01b0381168114612d1d57600080fd5b50565b8035612d2b81612d08565b919050565b600080600080600060808688031215612d4857600080fd5b8535612d5381612d08565b94506020860135612d6381612d08565b935060408601359250606086013567ffffffffffffffff80821115612d8757600080fd5b818801915088601f830112612d9b57600080fd5b813581811115612daa57600080fd5b896020828501011115612dbc57600080fd5b9699959850939650602001949392505050565b634e487b7160e01b600052604160045260246000fd5b6040516080810167ffffffffffffffff81118282101715612e0857612e08612dcf565b60405290565b60405160c0810167ffffffffffffffff81118282101715612e0857612e08612dcf565b6040805190810167ffffffffffffffff81118282101715612e0857612e08612dcf565b604051610180810167ffffffffffffffff81118282101715612e0857612e08612dcf565b604051610120810167ffffffffffffffff81118282101715612e0857612e08612dcf565b6040516060810167ffffffffffffffff81118282101715612e0857612e08612dcf565b60405160a0810167ffffffffffffffff81118282101715612e0857612e08612dcf565b604051601f8201601f1916810167ffffffffffffffff81118282101715612f0b57612f0b612dcf565b604052919050565b600067ffffffffffffffff821115612f2d57612f2d612dcf565b50601f01601f191660200190565b600082601f830112612f4c57600080fd5b8135612f5f612f5a82612f13565b612ee2565b818152846020838601011115612f7457600080fd5b816020850160208301376000918101602001919091529392505050565b600060808284031215612fa357600080fd5b612fab612de5565b9050813567ffffffffffffffff80821115612fc557600080fd5b612fd185838601612f3b565b83526020840135915080821115612fe757600080fd5b612ff385838601612f3b565b6020840152604084013591508082111561300c57600080fd5b5061301984828501612f3b565b6040830152506060820135606082015292915050565b803563ffffffff81168114612d2b57600080fd5b600067ffffffffffffffff82111561305d5761305d612dcf565b5060051b60200190565b803564ffffffffff81168114612d2b57600080fd5b803561ffff81168114612d2b57600080fd5b600082601f83011261309f57600080fd5b813560206130af612f5a83613043565b82815260c092830285018201928282019190878511156130ce57600080fd5b8387015b858110156131735781818a0312156130ea5760008081fd5b6130f2612e0e565b6130fb82613067565b815261310886830161307c565b868201526040808301356dffffffffffffffffffffffffffff8116811461312f5760008081fd5b908201526060613140838201613067565b90820152608061315183820161302f565b9082015260a061316283820161307c565b9082015284529284019281016130d2565b5090979650505050505050565b600060c0828403121561319257600080fd5b61319a612e0e565b9050813567ffffffffffffffff808211156131b457600080fd5b6131c085838601612f91565b83526131ce6020850161302f565b602084015260408401356040840152606084013560608401526131f360808501612d20565b608084015260a084013591508082111561320c57600080fd5b506132198482850161308e565b60a08301525092915050565b600082601f83011261323657600080fd5b81356020613246612f5a83613043565b8083825260208201915060208460051b87010193508684111561326857600080fd5b602086015b8481101561328d57803561328081612d08565b835291830191830161326d565b509695505050505050565b600082601f8301126132a957600080fd5b813560206132b9612f5a83613043565b82815260059290921b840181019181810190868411156132d857600080fd5b8286015b8481101561328d57803567ffffffffffffffff808211156132fd5760008081fd5b908801906040828b03601f19018113156133175760008081fd5b61331f612e31565b8784013561332c81612d08565b81529083013590828211156133415760008081fd5b61334f8c8984870101613225565b8189015286525050509183019183016132dc565b803562ffffff81168114612d2b57600080fd5b6000604080838503121561338957600080fd5b613391612e31565b9150823561339e81612d08565b825260208381013567ffffffffffffffff8111156133bb57600080fd5b8401601f810186136133cc57600080fd5b80356133da612f5a82613043565b81815260079190911b820183019083810190888311156133f957600080fd5b928401925b8284101561346d576080848a0312156134175760008081fd5b61341f612de5565b843561342a81612d08565b8152613437858701613363565b8682015261344687860161302f565b87820152606061345781870161302f565b90820152825260809390930192908401906133fe565b808588015250505050505092915050565b60006040828403121561349057600080fd5b613498612e31565b905067ffffffffffffffff80833511156134b157600080fd5b8235830184601f8201126134c457600080fd5b6134d1612f5a8235613043565b81358082526020808301929160051b840101878111156134f057600080fd5b602084015b8181101561363557858135111561350b57600080fd5b803585016040818b03601f1901121561352357600080fd5b61352b612e31565b6135386020830135612d08565b60208201358152876040830135111561355057600080fd5b6040820135820191508a603f83011261356857600080fd5b6020820135613579612f5a82613043565b81815260079190911b83016040019060208101908d83111561359a57600080fd5b6040850194505b82851015613616576080858f0312156135b957600080fd5b6135c1612de5565b6135cb8635612d08565b853581526135db6020870161302f565b60208201526135ed6040870135612d08565b6040860135604082015260608601356060820152808352506020820191506080850194506135a1565b80602085015250505080865250506020840193506020810190506134f5565b5050808552505050506020820135602082015292915050565b600080600080600060a0868803121561366657600080fd5b85359450602086013567ffffffffffffffff8082111561368557600080fd5b61369189838a01613180565b955060408801359150808211156136a757600080fd5b6136b389838a01613298565b945060608801359150808211156136c957600080fd5b6136d589838a01613376565b935060808801359150808211156136eb57600080fd5b506136f88882890161347e565b9150509295509295909350565b60006020828403121561371757600080fd5b5035919050565b60006020828403121561373057600080fd5b813567ffffffffffffffff81111561374757600080fd5b82016101808185031215612d0157600080fd5b60005b8381101561377557818101518382015260200161375d565b50506000910152565b6000815180845261379681602086016020860161375a565b601f01601f19169290920160200192915050565b600082825180855260208086019550808260051b84010181860160005b8481101561317357858303601f19018952815180516001600160a01b03168452848101518585015260409081015160609185018290529061380a8186018361377e565b9a86019a94505050908301906001016137c7565b82815260406020820152600061383760408301846137aa565b949350505050565b80356cffffffffffffffffffffffffff81168114612d2b57600080fd5b8015158114612d1d57600080fd5b8035612d2b8161385c565b803560ff81168114612d2b57600080fd5b6000608080838503121561389957600080fd5b6138a1612de5565b9150823567ffffffffffffffff8111156138ba57600080fd5b8301601f810185136138cb57600080fd5b803560206138db612f5a83613043565b82815261018092830284018201928282019190898511156138fb57600080fd5b948301945b848610156139ee5780868b0312156139185760008081fd5b613920612e54565b6139298761383f565b815261393685880161302f565b85820152604061394781890161302f565b90820152606061395888820161307c565b90820152613967878901612d20565b8189015260a0878101359082015260c0613982818901613363565b9082015260e061399388820161386a565b908201526101006139a588820161386a565b908201526101206139b788820161386a565b908201526101406139c988820161386a565b908201526101606139db88820161386a565b9082015283529485019491830191613900565b508652506139fd86820161302f565b8186015250505050613a1160408301613875565b6040820152613a2260608301612d20565b606082015292915050565b600060808284031215613a3f57600080fd5b613a47612de5565b90508135613a548161385c565b81526020820135613a648161385c565b60208201526040820135613a778161385c565b60408201526060820135613a228161385c565b600060808284031215613a9c57600080fd5b613aa4612de5565b9050813567ffffffffffffffff80821115613abe57600080fd5b908301906101808286031215613ad357600080fd5b613adb612e78565b823582811115613aea57600080fd5b613af687828601612f3b565b825250602083013582811115613b0b57600080fd5b613b1787828601612f3b565b602083015250613b2960408401612d20565b6040820152606083013582811115613b4057600080fd5b613b4c87828601612f3b565b606083015250613b5e60808401612d20565b608082015260a083013582811115613b7557600080fd5b613b8187828601612f3b565b60a08301525060c083013582811115613b9957600080fd5b613ba587828601613886565b60c083015250613bb760e08401612d20565b60e08201526101009150613bcd86838501613a2d565b82820152808452505050613be36020830161386a565b6020820152613bf46040830161386a565b6040820152613a226060830161386a565b600082601f830112613c1657600080fd5b81356020613c26612f5a83613043565b82815260059290921b84018101918181019086841115613c4557600080fd5b8286015b8481101561328d57803567ffffffffffffffff80821115613c6a5760008081fd5b908801906060828b03601f1901811315613c845760008081fd5b613c8c612e9c565b87840135613c9981612d08565b815260408481013589830152918401359183831115613cb85760008081fd5b613cc68d8a85880101612f3b565b908201528652505050918301918301613c49565b600080600080600080600080610100898b031215613cf757600080fd5b88359750602089013567ffffffffffffffff80821115613d1657600080fd5b613d228c838d01613180565b985060408b0135915080821115613d3857600080fd5b613d448c838d01613298565b975060608b0135915080821115613d5a57600080fd5b613d668c838d01613376565b965060808b0135915080821115613d7c57600080fd5b613d888c838d0161347e565b955060a08b0135915080821115613d9e57600080fd5b613daa8c838d01613a8a565b945060c08b0135915080821115613dc057600080fd5b50613dcd8b828c01613c05565b925050613ddc60e08a0161307c565b90509295985092959890939650565b600082601f830112613dfc57600080fd5b81356020613e0c612f5a83613043565b82815260059290921b84018101918181019086841115613e2b57600080fd5b8286015b8481101561328d57803567ffffffffffffffff80821115613e505760008081fd5b9088019060a0828b03601f1901811315613e6a5760008081fd5b613e72612ebf565b87840135815260408085013589830152606080860135828401526080915081860135818401525082850135925083831115613ead5760008081fd5b613ebb8d8a85880101613225565b908201528652505050918301918301613e2f565b60008060008060008060008060006101208a8c031215613eee57600080fd5b8935985060208a013567ffffffffffffffff80821115613f0d57600080fd5b613f198d838e01613180565b995060408c0135915080821115613f2f57600080fd5b613f3b8d838e01613298565b985060608c0135915080821115613f5157600080fd5b613f5d8d838e01613376565b975060808c0135915080821115613f7357600080fd5b613f7f8d838e0161347e565b965060a08c0135915080821115613f9557600080fd5b613fa18d838e01613a8a565b955060c08c0135915080821115613fb757600080fd5b613fc38d838e01613c05565b9450613fd160e08d0161307c565b93506101008c0135915080821115613fe857600080fd5b50613ff58c828d01613deb565b9150509295985092959850929598565b60006020828403121561401757600080fd5b8135612d0181612d08565b602081526000612d0160208301846137aa565b6000806040838503121561404857600080fd5b82359150602083013561405a81612d08565b809150509250929050565b60006020828403121561407757600080fd5b813567ffffffffffffffff81111561408e57600080fd5b82016101a08185031215612d0157600080fd5b60006080820186835260208681850152604086604086015260606080606087015283875180865260a08801915060a08160051b890101955084890160005b8281101561412f57898803609f19018452815180516001600160a01b0316895287810151888a015286015186890186905261411c868a018261377e565b98505092860192908601906001016140df565b50959c9b505050505050505050505050565b60008060006060848603121561415657600080fd5b83359250602084013567ffffffffffffffff8082111561417557600080fd5b61418187838801612f3b565b9350604086013591508082111561419757600080fd5b506141a48682870161347e565b9150509250925092565b600080600080600080600060e0888a0312156141c957600080fd5b87359650602088013567ffffffffffffffff808211156141e857600080fd5b6141f48b838c01613180565b975060408a013591508082111561420a57600080fd5b6142168b838c01613298565b965060608a013591508082111561422c57600080fd5b6142388b838c01613376565b955060808a013591508082111561424e57600080fd5b61425a8b838c0161347e565b945060a08a013591508082111561427057600080fd5b5061427d8a828b01613c05565b92505061428c60c0890161307c565b905092959891949750929550565b6000602082840312156142ac57600080fd5b8151612d0181612d08565b80356142c281612d08565b6001600160a01b031682526020818101359083015260408082013590830152606090810135910152565b6000808335601e1984360301811261430357600080fd5b830160208101925035905067ffffffffffffffff81111561432357600080fd5b80360382131561433257600080fd5b9250929050565b81835281816020850137506000828201602090810191909152601f909101601f19169091010190565b602081526143836020820161437684612d20565b6001600160a01b03169052565b600061439160208401612d20565b6001600160a01b0381166040840152506143b160608301604085016142b7565b60c083013560e083015261010060e0840135818401526143d2818501612d20565b90506101206143eb818501836001600160a01b03169052565b61014091508085013582850152506101608185013581850152614410818601866142ec565b610180868101529250905061442a6101a085018383614339565b95945050505050565b600080604080848603121561444757600080fd5b8351925060208085015167ffffffffffffffff8082111561446757600080fd5b818701915087601f83011261447b57600080fd5b8151614489612f5a82613043565b81815260059190911b8301840190848101908a8311156144a857600080fd5b8585015b83811015614569578051858111156144c357600080fd5b86016060818e03601f190112156144da5760008081fd5b6144e2612e9c565b888201516144ef81612d08565b8152818a01518982015260608201518781111561450c5760008081fd5b8083019250508d603f8301126145225760008081fd5b88820151614532612f5a82612f13565b8181528f8c8386010111156145475760008081fd5b614556828c83018e870161375a565b828c0152508452509186019186016144ac565b50809750505050505050509250929050565b600181811c9082168061458f57607f821691505b6020821081036145af57634e487b7160e01b600052602260045260246000fd5b50919050565b634e487b7160e01b600052601160045260246000fd5b808201808211156104a2576104a26145b5565b634e487b7160e01b600052603260045260246000fd5b60006020828403121561460657600080fd5b5051919050565b80516080808452815184820181905260009260a0916020918201918388019190865b828110156146f257845180516cffffffffffffffffffffffffff1685528281015163ffffffff908116848701526040808301519091169086015260608082015161ffff1690860152878101516001600160a01b031688860152868101518786015260c08082015162ffffff169086015260e08082015115159086015261010080820151151590860152610120808201511515908601526101408082015115159086015261016090810151151590850152938101936101809093019260010161462f565b508781015163ffffffff16908901525060408087015160ff16908801526060808701516001600160a01b038116918901919091529350610586565b828152604060208201526000825161018060408401526147516101c084018261377e565b90506020840151603f198085840301606086015261476f838361377e565b92506040860151915061478d60808601836001600160a01b03169052565b60608601519150808584030160a08601526147a8838361377e565b9250608086015191506147c660c08601836001600160a01b03169052565b60a08601519150808584030160e08601526147e1838361377e565b925060c08601519150610100818685030181870152614800848461460d565b935060e0870151925061481f6101208701846001600160a01b03169052565b860151805115156101408701526020810151151561016087015260408101511515610180870152606081015115156101a0870152915061485c9050565b50949350505050565b60008151808452602080850194506020840160005b838110156148965781518752958201959082019060010161487a565b509495945050505050565b60006001600160a01b03808516835260406020840152808451166040840152506020830151606083015260408301516060608084015261442a60a0840182614865565b600060208083850312156148f757600080fd5b825167ffffffffffffffff81111561490e57600080fd5b8301601f8101851361491f57600080fd5b805161492d612f5a82613043565b81815260059190911b8201830190838101908783111561494c57600080fd5b928401925b8284101561497357835161496481612d08565b82529284019290840190614951565b979650505050505050565b60006020828403121561499057600080fd5b8151612d018161385c565b60006001600160a01b038087168352808616602084015250836040830152608060608301526105866080830184614865565b6bffffffffffffffffffffffff198460601b168152600083516149f781601485016020880161375a565b60149201918201929092526034019392505050565b600082825180855260208086019550808260051b8401018186016000805b85811015614ac957868403601f19018a52825180516001600160a01b03908116865290860151604087870181905281518188018190529188019290916060919082890190875b81811015614ab15786518051851684528c81015163ffffffff168d8501528681015185168785015285015185840152958b0195608090920191600101614a70565b50509d89019d97505050938601935050600101614a2a565b509198975050505050505050565b83815282602082015260606040820152600061442a6060830184614a0c565b6000815160408452614b0b6040850182614a0c565b602093840151949093019390935250919050565b606081526000614b32606083018661377e565b8281036020840152614b448186614af6565b9150506001600160a01b0383166040830152949350505050565b601f821115614ba6576000816000526020600020601f850160051c81016020861015614b875750805b601f850160051c820191505b8181101561233d57828155600101614b93565b505050565b815167ffffffffffffffff811115614bc557614bc5612dcf565b614bd981614bd3845461457b565b84614b5e565b602080601f831160018114614c0e5760008415614bf65750858301515b600019600386901b1c1916600185901b17855561233d565b600085815260208120601f198616915b82811015614c3d57888601518255948401946001909101908401614c1e565b5085821015614c5b5787850151600019600388901b60f8161c191681555b5050505050600190811b01905550565b604081526000614c7e60408301856137aa565b90506001600160a01b03831660208301529392505050565b600960fa1b815260008251614cb281600185016020870161375a565b7f207265766e6574206465706c6f796564000000000000000000000000000000006001939091019283015250601101919050565b8051825260208101516020830152604081015160408301526060810151614d11606084018215159052565b506080810151614d25608084018215159052565b5060a0810151614d3960a084018215159052565b5060c0810151614d4d60c084018215159052565b5060e0810151614d6160e084018215159052565b5061010081810151151590830152610120808201511515908301526101408082015115159083015261016080820151151590830152610180808201511515908301526101a0808201511515908301526101c0808201516001600160a01b0316908301526101e090810151910152565b600082825180855260208086019550808260051b8401018186016000805b85811015614ac957868403601f19018a52825180518552850151604086860181905281518187018190529187019160609081880190865b81811015614e7f5785518051151584528b8101518c8501528581015186850152848101516001600160a01b03908116868601526080808301519086015260a0918201511690840152948a019460c090920191600101614e25565b50509c88019c965050509285019250600101614dee565b60008151808452602080850194506020840160005b83811015614896578151805188528301518388015260409096019590820190600101614eab565b600082825180855260208086019550808260051b84010181860160005b8481101561317357601f19868403018952815160806001600160a01b0380835116865280878401511687870152506040808301518282880152614f3483880182614e96565b9250505060608083015192508582038187015250614f528183614e96565b9a86019a9450505090830190600101614eef565b600082825180855260208086019550808260051b84010181860160005b8481101561317357858303601f19018952815180518452848101518585015260408082015190850152606080820151908501526080808201516001600160a01b03169085015260a0808201516102e09190614fe082880182614ce6565b505060c0820151816102a0870152614ffa82870182614dd0565b91505060e082015191508481036102c08601526150178183614ed2565b9a86019a9450505090830190600101614f83565b60008151808452602080850194506020840160005b838110156148965781516001600160a01b031687529582019590820190600101615040565b600082825180855260208086019550808260051b84010181860160005b8481101561317357858303601f19018952815180516001600160a01b0316845284015160408585018190526150b98186018361502b565b9a86019a9450505090830190600101615082565b6001600160a01b038616815260a0602082015260006150ef60a083018761377e565b82810360408401526151018187614f66565b905082810360608401526151158186615065565b90508281036080840152615129818561377e565b98975050505050505050565b84815260806020820152600061514e6080830186614f66565b82810360408401526151608186615065565b90508281036060840152614973818561377e565b84815260806020820152600061518d608083018661377e565b828103604084015261519f818661377e565b91505082606083015295945050505050565b83815282602082015260606040820152600061442a6060830184614dd0565b600960fa1b8152600082516151ec81600185016020870161375a565b7f207072656d696e746564000000000000000000000000000000000000000000006001939091019283015250600b01919050565b8581528460208201526001600160a01b038416604082015260a06060820152600061524e60a083018561377e565b905082151560808301529695505050505050565b60008151808452602080850194506020840160005b83811015614896578151805164ffffffffff90811689528482015161ffff908116868b01526040808401516dffffffffffffffffffffffffffff16908b0152606080840151909216918a019190915260808083015163ffffffff16908a015260a091820151169088015260c09096019590820190600101615277565b600060408084016001600160a01b038085511686526020808601516040828901528381518086526060955060608a019150838301925060005b818110156153745783518051871684528581015162ffffff16868501528881015163ffffffff9081168a8601529088015116878401529284019260809092019160010161532c565b50909998505050505050505050565b60006101008083528a5160c0828501528051915060806101c08501526153ad61024085018361377e565b915060208101516101bf1980868503016101e08701526153cd848361377e565b9350604083015191508086850301610200870152506153ec838261377e565b92505060608101516102208501525060208b015161541361012085018263ffffffff169052565b5060408b015161014084015260608b015161016084015260808b01516001600160a01b031661018084015260a08b015183820360ff19016101a085015261545a8282615262565b915050828103602084015261546f818b615065565b90508281036040840152615483818a6152f3565b905082810360608401526154978189614af6565b905082810360808401526154ab8188614f66565b905082810360a08401526154bf818761377e565b9150506154d060c083018515159052565b6001600160a01b03831660e08301529998505050505050505050565b6000604080830185845260206040818601528186518084526060935060608701915060608160051b88010183890160005b8381101561558e57898303605f19018552815180516001600160a01b031684528681015187850152888101518985015287810151888501526080808201519085015260a09081015160c09185018290529061557a8186018361502b565b96880196945050509085019060010161551d565b50909a9950505050505050505050565b818103818111156104a2576104a26145b5565b600083516155c381846020880161375a565b8351908301906155d781836020880161375a565b01949350505050565b600080858511156155f057600080fd5b838611156155fd57600080fd5b5050820193919092039150565b6bffffffffffffffffffffffff1981358181169160148510156156375780818660140360031b1b83161692505b505092915050565b63ffffffff8616815284602082015260a06040820152600061566460a083018661377e565b8281036060840152615676818661377e565b915050826080830152969550505050505056fea264697066735822122087339da47a0b05b2b9751dea45ef3aff5124cc2822591355779c8aa355b166a564736f6c63430008170033",
			"devdoc": {
				"kind": "dev",
				"methods": {
					"beforePayRecordedWith((address,address,(address,uint256,uint256,uint256),uint256,uint256,address,uint256,uint256,bytes))": {
						"details": "Part of IJBFundingCycleDataSource.This implementation just sets this contract up to receive a `didPay` call.",
						"params": {
							"context": "The Juicebox standard network payment context. See"
						},
						"returns": {
							"hookSpecifications": "Amount to be sent to pay hooks instead of adding to local balance. Useful for auto-routing funds from a treasury as payment come in.",
							"weight": "The weight that network tokens should get minted relative to. This is useful for optionally customizing how many tokens are issued per payment."
						}
					},
					"constructor": {
						"params": {
							"controller": "The controller that revnets are made from.",
							"hookDeployer": "The 721 tiers hook deployer.",
							"publisher": "The croptop publisher that facilitates the permissioned publishing of 721 posts to a revnet.",
							"suckerRegistry": "The registry that deploys and tracks each project's suckers.",
							"trustedForwarder": "The trusted forwarder for the ERC2771Context."
						}
					},
					"deploySuckersFor(uint256,bytes,((address,(address,uint32,address,uint256)[])[],bytes32))": {
						"params": {
							"encodedConfiguration": "A bytes representation of the revnet's configuration.",
							"revnetId": "The ID of the revnet having new suckers deployed.",
							"suckerDeploymentConfiguration": "The specifics about the suckers being deployed."
						}
					},
					"hasMintPermissionFor(uint256,address)": {
						"params": {
							"addr": "The address to check if has permissions.",
							"revnetId": "The ID of the revnet to check permissions for."
						},
						"returns": {
							"_0": "flag The flag indicating if the address has permissions to mint on the revnet's behalf."
						}
					},
					"isTrustedForwarder(address)": {
						"details": "Indicates whether any particular address is the trusted forwarder."
					},
					"launchCroptopRevnetFor(uint256,((string,string,string,bytes32),uint32,uint256,uint256,address,(uint40,uint16,uint112,uint40,uint32,uint16)[]),(address,address[])[],(address,(address,uint24,uint32,uint32)[]),((address,(address,uint32,address,uint256)[])[],bytes32),((string,string,address,string,address,string,((uint104,uint32,uint32,uint16,address,bytes32,uint24,bool,bool,bool,bool,bool)[],uint32,uint8,address),address,(bool,bool,bool,bool)),bool,bool,bool),(address,uint256,bytes)[],uint16,(uint256,uint256,uint256,uint256,address[])[])": {
						"params": {
							"allowedPosts": "The type of posts that the revent should allow.",
							"buybackHookConfiguration": "Data used for setting up the buyback hook to use when determining the best price for new participants.",
							"configuration": "The data needed to deploy a basic revnet.",
							"extraHookMetadata": "Extra metadata to attach to the cycle for the delegates to use.",
							"hookConfiguration": "Data used for setting up the 721 tiers.",
							"otherPayHooksSpecifications": "Any hooks that should run when the revnet is paid alongside the 721 hook.",
							"revnetId": "The ID of the Juicebox project to turn into a revnet. Send 0 to deploy a new revnet.",
							"suckerDeploymentConfiguration": "Information about how this revnet relates to other's across chains.",
							"terminalConfigurations": "The terminals that the network uses to accept payments through."
						},
						"returns": {
							"_0": "revnetId The ID of the newly created revnet.",
							"hook": "The address of the 721 hook that was deployed on the revnet."
						}
					},
					"launchPayHookRevnetFor(uint256,((string,string,string,bytes32),uint32,uint256,uint256,address,(uint40,uint16,uint112,uint40,uint32,uint16)[]),(address,address[])[],(address,(address,uint24,uint32,uint32)[]),((address,(address,uint32,address,uint256)[])[],bytes32),(address,uint256,bytes)[],uint16)": {
						"params": {
							"buybackHookConfiguration": "Data used for setting up the buyback hook to use when determining the best price for new participants.",
							"configuration": "The data needed to deploy a basic revnet.",
							"extraHookMetadata": "Extra metadata to attach to the cycle for the delegates to use.",
							"payHookSpecifications": "Any hooks that should run when the revnet is paid.",
							"revnetId": "The ID of the Juicebox project to turn into a revnet. Send 0 to deploy a new revnet.",
							"suckerDeploymentConfiguration": "Information about how this revnet relates to other's across chains.",
							"terminalConfigurations": "The terminals that the network uses to accept payments through."
						},
						"returns": {
							"_0": "revnetId The ID of the newly created revnet."
						}
					},
					"launchRevnetFor(uint256,((string,string,string,bytes32),uint32,uint256,uint256,address,(uint40,uint16,uint112,uint40,uint32,uint16)[]),(address,address[])[],(address,(address,uint24,uint32,uint32)[]),((address,(address,uint32,address,uint256)[])[],bytes32))": {
						"params": {
							"buybackHookConfiguration": "Data used for setting up the buyback hook to use when determining the best price for new participants.",
							"configuration": "The data needed to deploy a basic revnet.",
							"revnetId": "The ID of the Juicebox project to turn into a revnet. Send 0 to deploy a new revnet.",
							"suckerDeploymentConfiguration": "Information about how this revnet relates to other's across chains.",
							"terminalConfigurations": "The terminals that the network uses to accept payments through."
						},
						"returns": {
							"_0": "revnetId The ID of the newly created revnet."
						}
					},
					"launchTiered721RevnetFor(uint256,((string,string,string,bytes32),uint32,uint256,uint256,address,(uint40,uint16,uint112,uint40,uint32,uint16)[]),(address,address[])[],(address,(address,uint24,uint32,uint32)[]),((address,(address,uint32,address,uint256)[])[],bytes32),((string,string,address,string,address,string,((uint104,uint32,uint32,uint16,address,bytes32,uint24,bool,bool,bool,bool,bool)[],uint32,uint8,address),address,(bool,bool,bool,bool)),bool,bool,bool),(address,uint256,bytes)[],uint16)": {
						"params": {
							"buybackHookConfiguration": "Data used for setting up the buyback hook to use when determining the best price for new participants.",
							"configuration": "The data needed to deploy a basic revnet.",
							"extraHookMetadata": "Extra metadata to attach to the cycle for the delegates to use.",
							"hookConfiguration": "Data used for setting up the 721 tiers.",
							"otherPayHooksSpecifications": "Any hooks that should run when the revnet is paid alongside the 721 hook.",
							"revnetId": "The ID of the Juicebox project to turn into a revnet. Send 0 to deploy a new revnet.",
							"suckerDeploymentConfiguration": "Information about how this revnet relates to other's across chains.",
							"terminalConfigurations": "The terminals that the network uses to accept payments through."
						},
						"returns": {
							"_0": "revnetId The ID of the newly created revnet.",
							"hook": "The address of the 721 hook that was deployed on the revnet."
						}
					},
					"onERC721Received(address,address,uint256,bytes)": {
						"details": "Make sure only mints can be received."
					},
					"payHookSpecificationsOf(uint256)": {
						"params": {
							"revnetId": "The ID of the revnet to which the extensions apply."
						},
						"returns": {
							"_0": "payHookSpecifications The pay hooks."
						}
					},
					"replaceSplitOperatorOf(uint256,address)": {
						"params": {
							"newSplitOperator": "The address of the new split operator.",
							"revnetId": "The ID of the revnet having its operator replaced."
						}
					},
					"supportsInterface(bytes4)": {
						"details": "See {IERC165-supportsInterface}.",
						"params": {
							"interfaceId": "The ID of the interface to check for adherence to."
						},
						"returns": {
							"_0": "A flag indicating if the provided interface ID is supported."
						}
					},
					"trustedForwarder()": {
						"details": "Returns the address of the trusted forwarder."
					}
				},
				"version": 1
			},
			"userdoc": {
				"kind": "user",
				"methods": {
					"CONTROLLER()": {
						"notice": "The controller that networks are made from."
					},
					"EXIT_DELAY()": {
						"notice": "The amount of time from a sucker being deployed to when it can facilitate exits."
					},
					"HOOK_DEPLOYER()": {
						"notice": "The contract responsible for deploying the tiered 721 hook."
					},
					"PUBLISHER()": {
						"notice": "The croptop publisher that facilitates the permissioned publishing of 721 posts to a revnet."
					},
					"SUCKER_REGISTRY()": {
						"notice": "The registry that deploys and tracks each project's suckers."
					},
					"beforePayRecordedWith((address,address,(address,uint256,uint256,uint256),uint256,uint256,address,uint256,uint256,bytes))": {
						"notice": "This function gets called when the revnet receives a payment."
					},
					"beforeRedeemRecordedWith((address,address,uint256,uint256,uint256,uint256,(address,uint256,uint256,uint256),bool,uint256,bytes))": {
						"notice": "This function is never called, it needs to be included to adhere to the interface."
					},
					"buybackHookOf(uint256)": {
						"notice": "The data hook that returns the correct values for the buyback hook of each network."
					},
					"deploySuckersFor(uint256,bytes,((address,(address,uint32,address,uint256)[])[],bytes32))": {
						"notice": "Allows a revnet's split operator to deploy new suckers to the revnet after it's deployed."
					},
					"exitDelayOf(uint256)": {
						"notice": "The time at which exits from a revnet become allowed."
					},
					"hasMintPermissionFor(uint256,address)": {
						"notice": "Required by the IJBRulesetDataHook interfaces."
					},
					"launchCroptopRevnetFor(uint256,((string,string,string,bytes32),uint32,uint256,uint256,address,(uint40,uint16,uint112,uint40,uint32,uint16)[]),(address,address[])[],(address,(address,uint24,uint32,uint32)[]),((address,(address,uint32,address,uint256)[])[],bytes32),((string,string,address,string,address,string,((uint104,uint32,uint32,uint16,address,bytes32,uint24,bool,bool,bool,bool,bool)[],uint32,uint8,address),address,(bool,bool,bool,bool)),bool,bool,bool),(address,uint256,bytes)[],uint16,(uint256,uint256,uint256,uint256,address[])[])": {
						"notice": "Launch a revnet that supports 721 sales."
					},
					"launchPayHookRevnetFor(uint256,((string,string,string,bytes32),uint32,uint256,uint256,address,(uint40,uint16,uint112,uint40,uint32,uint16)[]),(address,address[])[],(address,(address,uint24,uint32,uint32)[]),((address,(address,uint32,address,uint256)[])[],bytes32),(address,uint256,bytes)[],uint16)": {
						"notice": "Launch a basic revnet that also calls other specified pay hooks."
					},
					"launchRevnetFor(uint256,((string,string,string,bytes32),uint32,uint256,uint256,address,(uint40,uint16,uint112,uint40,uint32,uint16)[]),(address,address[])[],(address,(address,uint24,uint32,uint32)[]),((address,(address,uint32,address,uint256)[])[],bytes32))": {
						"notice": "Launch a basic revnet."
					},
					"launchTiered721RevnetFor(uint256,((string,string,string,bytes32),uint32,uint256,uint256,address,(uint40,uint16,uint112,uint40,uint32,uint16)[]),(address,address[])[],(address,(address,uint24,uint32,uint32)[]),((address,(address,uint32,address,uint256)[])[],bytes32),((string,string,address,string,address,string,((uint104,uint32,uint32,uint16,address,bytes32,uint24,bool,bool,bool,bool,bool)[],uint32,uint8,address),address,(bool,bool,bool,bool)),bool,bool,bool),(address,uint256,bytes)[],uint16)": {
						"notice": "Launch a revnet that supports 721 sales."
					},
					"payHookSpecificationsOf(uint256)": {
						"notice": "The pay hooks to include during payments to networks."
					},
					"replaceSplitOperatorOf(uint256,address)": {
						"notice": "A revnet's operator can replace itself."
					},
					"supportsInterface(bytes4)": {
						"notice": "Indicates if this contract adheres to the specified interface."
					}
				},
				"version": 1
			},
			"gitCommit": "62c8b853917233957aae3ca08de224c88087f916",
			"sourceName": "src/REVCroptopDeployer.sol",
			"chainId": "84532",
			"linkReferences": {},
			"deployedLinkReferences": {}
		},
		{
			"_format": "sphinx-sol-ct-artifact-1",
			"merkleRoot": "0x1d085f0c5b331462367b4fa07a86d9fbebfac5b7c4e43d98b139436e2c1c70d3",
			"contractName": "REVCroptopDeployer",
			"address": "0xc0288B1a94B889F6C68821f14Bf9F12220A89DFF",
			"abi": [
				{
					"type": "constructor",
					"inputs": [
						{
							"name": "controller",
							"type": "address",
							"internalType": "contract IJBController"
						},
						{
							"name": "suckerRegistry",
							"type": "address",
							"internalType": "contract IBPSuckerRegistry"
						},
						{
							"name": "trustedForwarder",
							"type": "address",
							"internalType": "address"
						},
						{
							"name": "hookDeployer",
							"type": "address",
							"internalType": "contract IJB721TiersHookDeployer"
						},
						{
							"name": "publisher",
							"type": "address",
							"internalType": "contract CTPublisher"
						}
					],
					"stateMutability": "nonpayable"
				},
				{
					"type": "function",
					"name": "CONTROLLER",
					"inputs": [],
					"outputs": [
						{
							"name": "",
							"type": "address",
							"internalType": "contract IJBController"
						}
					],
					"stateMutability": "view"
				},
				{
					"type": "function",
					"name": "EXIT_DELAY",
					"inputs": [],
					"outputs": [
						{
							"name": "",
							"type": "uint256",
							"internalType": "uint256"
						}
					],
					"stateMutability": "view"
				},
				{
					"type": "function",
					"name": "HOOK_DEPLOYER",
					"inputs": [],
					"outputs": [
						{
							"name": "",
							"type": "address",
							"internalType": "contract IJB721TiersHookDeployer"
						}
					],
					"stateMutability": "view"
				},
				{
					"type": "function",
					"name": "PUBLISHER",
					"inputs": [],
					"outputs": [
						{
							"name": "",
							"type": "address",
							"internalType": "contract CTPublisher"
						}
					],
					"stateMutability": "view"
				},
				{
					"type": "function",
					"name": "SUCKER_REGISTRY",
					"inputs": [],
					"outputs": [
						{
							"name": "",
							"type": "address",
							"internalType": "contract IBPSuckerRegistry"
						}
					],
					"stateMutability": "view"
				},
				{
					"type": "function",
					"name": "allowedMintCountOf",
					"inputs": [
						{
							"name": "revnetId",
							"type": "uint256",
							"internalType": "uint256"
						},
						{
							"name": "stageId",
							"type": "uint256",
							"internalType": "uint256"
						},
						{
							"name": "beneficiary",
							"type": "address",
							"internalType": "address"
						}
					],
					"outputs": [
						{
							"name": "",
							"type": "uint256",
							"internalType": "uint256"
						}
					],
					"stateMutability": "view"
				},
				{
					"type": "function",
					"name": "beforePayRecordedWith",
					"inputs": [
						{
							"name": "context",
							"type": "tuple",
							"internalType": "struct JBBeforePayRecordedContext",
							"components": [
								{
									"name": "terminal",
									"type": "address",
									"internalType": "address"
								},
								{
									"name": "payer",
									"type": "address",
									"internalType": "address"
								},
								{
									"name": "amount",
									"type": "tuple",
									"internalType": "struct JBTokenAmount",
									"components": [
										{
											"name": "token",
											"type": "address",
											"internalType": "address"
										},
										{
											"name": "value",
											"type": "uint256",
											"internalType": "uint256"
										},
										{
											"name": "decimals",
											"type": "uint256",
											"internalType": "uint256"
										},
										{
											"name": "currency",
											"type": "uint256",
											"internalType": "uint256"
										}
									]
								},
								{
									"name": "projectId",
									"type": "uint256",
									"internalType": "uint256"
								},
								{
									"name": "rulesetId",
									"type": "uint256",
									"internalType": "uint256"
								},
								{
									"name": "beneficiary",
									"type": "address",
									"internalType": "address"
								},
								{
									"name": "weight",
									"type": "uint256",
									"internalType": "uint256"
								},
								{
									"name": "reservedRate",
									"type": "uint256",
									"internalType": "uint256"
								},
								{
									"name": "metadata",
									"type": "bytes",
									"internalType": "bytes"
								}
							]
						}
					],
					"outputs": [
						{
							"name": "weight",
							"type": "uint256",
							"internalType": "uint256"
						},
						{
							"name": "hookSpecifications",
							"type": "tuple[]",
							"internalType": "struct JBPayHookSpecification[]",
							"components": [
								{
									"name": "hook",
									"type": "address",
									"internalType": "contract IJBPayHook"
								},
								{
									"name": "amount",
									"type": "uint256",
									"internalType": "uint256"
								},
								{
									"name": "metadata",
									"type": "bytes",
									"internalType": "bytes"
								}
							]
						}
					],
					"stateMutability": "view"
				},
				{
					"type": "function",
					"name": "beforeRedeemRecordedWith",
					"inputs": [
						{
							"name": "context",
							"type": "tuple",
							"internalType": "struct JBBeforeRedeemRecordedContext",
							"components": [
								{
									"name": "terminal",
									"type": "address",
									"internalType": "address"
								},
								{
									"name": "holder",
									"type": "address",
									"internalType": "address"
								},
								{
									"name": "projectId",
									"type": "uint256",
									"internalType": "uint256"
								},
								{
									"name": "rulesetId",
									"type": "uint256",
									"internalType": "uint256"
								},
								{
									"name": "redeemCount",
									"type": "uint256",
									"internalType": "uint256"
								},
								{
									"name": "totalSupply",
									"type": "uint256",
									"internalType": "uint256"
								},
								{
									"name": "surplus",
									"type": "tuple",
									"internalType": "struct JBTokenAmount",
									"components": [
										{
											"name": "token",
											"type": "address",
											"internalType": "address"
										},
										{
											"name": "value",
											"type": "uint256",
											"internalType": "uint256"
										},
										{
											"name": "decimals",
											"type": "uint256",
											"internalType": "uint256"
										},
										{
											"name": "currency",
											"type": "uint256",
											"internalType": "uint256"
										}
									]
								},
								{
									"name": "useTotalSurplus",
									"type": "bool",
									"internalType": "bool"
								},
								{
									"name": "redemptionRate",
									"type": "uint256",
									"internalType": "uint256"
								},
								{
									"name": "metadata",
									"type": "bytes",
									"internalType": "bytes"
								}
							]
						}
					],
					"outputs": [
						{
							"name": "",
							"type": "uint256",
							"internalType": "uint256"
						},
						{
							"name": "",
							"type": "uint256",
							"internalType": "uint256"
						},
						{
							"name": "",
							"type": "uint256",
							"internalType": "uint256"
						},
						{
							"name": "specifications",
							"type": "tuple[]",
							"internalType": "struct JBRedeemHookSpecification[]",
							"components": [
								{
									"name": "hook",
									"type": "address",
									"internalType": "contract IJBRedeemHook"
								},
								{
									"name": "amount",
									"type": "uint256",
									"internalType": "uint256"
								},
								{
									"name": "metadata",
									"type": "bytes",
									"internalType": "bytes"
								}
							]
						}
					],
					"stateMutability": "view"
				},
				{
					"type": "function",
					"name": "buybackHookOf",
					"inputs": [
						{
							"name": "revnetId",
							"type": "uint256",
							"internalType": "uint256"
						}
					],
					"outputs": [
						{
							"name": "buybackHook",
							"type": "address",
							"internalType": "contract IJBRulesetDataHook"
						}
					],
					"stateMutability": "view"
				},
				{
					"type": "function",
					"name": "deploySuckersFor",
					"inputs": [
						{
							"name": "revnetId",
							"type": "uint256",
							"internalType": "uint256"
						},
						{
							"name": "encodedConfiguration",
							"type": "bytes",
							"internalType": "bytes"
						},
						{
							"name": "suckerDeploymentConfiguration",
							"type": "tuple",
							"internalType": "struct REVSuckerDeploymentConfig",
							"components": [
								{
									"name": "deployerConfigurations",
									"type": "tuple[]",
									"internalType": "struct BPSuckerDeployerConfig[]",
									"components": [
										{
											"name": "deployer",
											"type": "address",
											"internalType": "contract IBPSuckerDeployer"
										},
										{
											"name": "mappings",
											"type": "tuple[]",
											"internalType": "struct BPTokenMapping[]",
											"components": [
												{
													"name": "localToken",
													"type": "address",
													"internalType": "address"
												},
												{
													"name": "minGas",
													"type": "uint32",
													"internalType": "uint32"
												},
												{
													"name": "remoteToken",
													"type": "address",
													"internalType": "address"
												},
												{
													"name": "minBridgeAmount",
													"type": "uint256",
													"internalType": "uint256"
												}
											]
										}
									]
								},
								{
									"name": "salt",
									"type": "bytes32",
									"internalType": "bytes32"
								}
							]
						}
					],
					"outputs": [],
					"stateMutability": "nonpayable"
				},
				{
					"type": "function",
					"name": "exitDelayOf",
					"inputs": [
						{
							"name": "revnetId",
							"type": "uint256",
							"internalType": "uint256"
						}
					],
					"outputs": [
						{
							"name": "exitDelay",
							"type": "uint256",
							"internalType": "uint256"
						}
					],
					"stateMutability": "view"
				},
				{
					"type": "function",
					"name": "hasMintPermissionFor",
					"inputs": [
						{
							"name": "revnetId",
							"type": "uint256",
							"internalType": "uint256"
						},
						{
							"name": "addr",
							"type": "address",
							"internalType": "address"
						}
					],
					"outputs": [
						{
							"name": "",
							"type": "bool",
							"internalType": "bool"
						}
					],
					"stateMutability": "view"
				},
				{
					"type": "function",
					"name": "isTrustedForwarder",
					"inputs": [
						{
							"name": "forwarder",
							"type": "address",
							"internalType": "address"
						}
					],
					"outputs": [
						{
							"name": "",
							"type": "bool",
							"internalType": "bool"
						}
					],
					"stateMutability": "view"
				},
				{
					"type": "function",
					"name": "launchCroptopRevnetFor",
					"inputs": [
						{
							"name": "revnetId",
							"type": "uint256",
							"internalType": "uint256"
						},
						{
							"name": "configuration",
							"type": "tuple",
							"internalType": "struct REVConfig",
							"components": [
								{
									"name": "description",
									"type": "tuple",
									"internalType": "struct REVDescription",
									"components": [
										{
											"name": "name",
											"type": "string",
											"internalType": "string"
										},
										{
											"name": "ticker",
											"type": "string",
											"internalType": "string"
										},
										{
											"name": "uri",
											"type": "string",
											"internalType": "string"
										},
										{
											"name": "salt",
											"type": "bytes32",
											"internalType": "bytes32"
										}
									]
								},
								{
									"name": "baseCurrency",
									"type": "uint32",
									"internalType": "uint32"
								},
								{
									"name": "initialSplitOperator",
									"type": "address",
									"internalType": "address"
								},
								{
									"name": "stageConfigurations",
									"type": "tuple[]",
									"internalType": "struct REVStageConfig[]",
									"components": [
										{
											"name": "startsAtOrAfter",
											"type": "uint40",
											"internalType": "uint40"
										},
										{
											"name": "mintConfigs",
											"type": "tuple[]",
											"internalType": "struct REVMintConfig[]",
											"components": [
												{
													"name": "chainId",
													"type": "uint256",
													"internalType": "uint256"
												},
												{
													"name": "count",
													"type": "uint256",
													"internalType": "uint256"
												},
												{
													"name": "beneficiary",
													"type": "address",
													"internalType": "address"
												}
											]
										},
										{
											"name": "splitRate",
											"type": "uint16",
											"internalType": "uint16"
										},
										{
											"name": "initialIssuanceRate",
											"type": "uint112",
											"internalType": "uint112"
										},
										{
											"name": "priceCeilingIncreaseFrequency",
											"type": "uint40",
											"internalType": "uint40"
										},
										{
											"name": "priceCeilingIncreasePercentage",
											"type": "uint32",
											"internalType": "uint32"
										},
										{
											"name": "priceFloorTaxIntensity",
											"type": "uint16",
											"internalType": "uint16"
										}
									]
								}
							]
						},
						{
							"name": "terminalConfigurations",
							"type": "tuple[]",
							"internalType": "struct JBTerminalConfig[]",
							"components": [
								{
									"name": "terminal",
									"type": "address",
									"internalType": "contract IJBTerminal"
								},
								{
									"name": "tokensToAccept",
									"type": "address[]",
									"internalType": "address[]"
								}
							]
						},
						{
							"name": "buybackHookConfiguration",
							"type": "tuple",
							"internalType": "struct REVBuybackHookConfig",
							"components": [
								{
									"name": "hook",
									"type": "address",
									"internalType": "contract IJBBuybackHook"
								},
								{
									"name": "poolConfigurations",
									"type": "tuple[]",
									"internalType": "struct REVBuybackPoolConfig[]",
									"components": [
										{
											"name": "token",
											"type": "address",
											"internalType": "address"
										},
										{
											"name": "fee",
											"type": "uint24",
											"internalType": "uint24"
										},
										{
											"name": "twapWindow",
											"type": "uint32",
											"internalType": "uint32"
										},
										{
											"name": "twapSlippageTolerance",
											"type": "uint32",
											"internalType": "uint32"
										}
									]
								}
							]
						},
						{
							"name": "suckerDeploymentConfiguration",
							"type": "tuple",
							"internalType": "struct REVSuckerDeploymentConfig",
							"components": [
								{
									"name": "deployerConfigurations",
									"type": "tuple[]",
									"internalType": "struct BPSuckerDeployerConfig[]",
									"components": [
										{
											"name": "deployer",
											"type": "address",
											"internalType": "contract IBPSuckerDeployer"
										},
										{
											"name": "mappings",
											"type": "tuple[]",
											"internalType": "struct BPTokenMapping[]",
											"components": [
												{
													"name": "localToken",
													"type": "address",
													"internalType": "address"
												},
												{
													"name": "minGas",
													"type": "uint32",
													"internalType": "uint32"
												},
												{
													"name": "remoteToken",
													"type": "address",
													"internalType": "address"
												},
												{
													"name": "minBridgeAmount",
													"type": "uint256",
													"internalType": "uint256"
												}
											]
										}
									]
								},
								{
									"name": "salt",
									"type": "bytes32",
									"internalType": "bytes32"
								}
							]
						},
						{
							"name": "hookConfiguration",
							"type": "tuple",
							"internalType": "struct REVDeploy721TiersHookConfig",
							"components": [
								{
									"name": "baseline721HookConfiguration",
									"type": "tuple",
									"internalType": "struct JBDeploy721TiersHookConfig",
									"components": [
										{
											"name": "name",
											"type": "string",
											"internalType": "string"
										},
										{
											"name": "symbol",
											"type": "string",
											"internalType": "string"
										},
										{
											"name": "rulesets",
											"type": "address",
											"internalType": "contract IJBRulesets"
										},
										{
											"name": "baseUri",
											"type": "string",
											"internalType": "string"
										},
										{
											"name": "tokenUriResolver",
											"type": "address",
											"internalType": "contract IJB721TokenUriResolver"
										},
										{
											"name": "contractUri",
											"type": "string",
											"internalType": "string"
										},
										{
											"name": "tiersConfig",
											"type": "tuple",
											"internalType": "struct JB721InitTiersConfig",
											"components": [
												{
													"name": "tiers",
													"type": "tuple[]",
													"internalType": "struct JB721TierConfig[]",
													"components": [
														{
															"name": "price",
															"type": "uint104",
															"internalType": "uint104"
														},
														{
															"name": "initialSupply",
															"type": "uint32",
															"internalType": "uint32"
														},
														{
															"name": "votingUnits",
															"type": "uint32",
															"internalType": "uint32"
														},
														{
															"name": "reserveFrequency",
															"type": "uint16",
															"internalType": "uint16"
														},
														{
															"name": "reserveBeneficiary",
															"type": "address",
															"internalType": "address"
														},
														{
															"name": "encodedIPFSUri",
															"type": "bytes32",
															"internalType": "bytes32"
														},
														{
															"name": "category",
															"type": "uint24",
															"internalType": "uint24"
														},
														{
															"name": "allowOwnerMint",
															"type": "bool",
															"internalType": "bool"
														},
														{
															"name": "useReserveBeneficiaryAsDefault",
															"type": "bool",
															"internalType": "bool"
														},
														{
															"name": "transfersPausable",
															"type": "bool",
															"internalType": "bool"
														},
														{
															"name": "useVotingUnits",
															"type": "bool",
															"internalType": "bool"
														},
														{
															"name": "cannotBeRemoved",
															"type": "bool",
															"internalType": "bool"
														}
													]
												},
												{
													"name": "currency",
													"type": "uint32",
													"internalType": "uint32"
												},
												{
													"name": "decimals",
													"type": "uint8",
													"internalType": "uint8"
												},
												{
													"name": "prices",
													"type": "address",
													"internalType": "contract IJBPrices"
												}
											]
										},
										{
											"name": "reserveBeneficiary",
											"type": "address",
											"internalType": "address"
										},
										{
											"name": "flags",
											"type": "tuple",
											"internalType": "struct JB721TiersHookFlags",
											"components": [
												{
													"name": "noNewTiersWithReserves",
													"type": "bool",
													"internalType": "bool"
												},
												{
													"name": "noNewTiersWithVotes",
													"type": "bool",
													"internalType": "bool"
												},
												{
													"name": "noNewTiersWithOwnerMinting",
													"type": "bool",
													"internalType": "bool"
												},
												{
													"name": "preventOverspending",
													"type": "bool",
													"internalType": "bool"
												}
											]
										}
									]
								},
								{
									"name": "operatorCanAdjustTiers",
									"type": "bool",
									"internalType": "bool"
								},
								{
									"name": "operatorCanUpdateMetadata",
									"type": "bool",
									"internalType": "bool"
								},
								{
									"name": "operatorCanMint",
									"type": "bool",
									"internalType": "bool"
								}
							]
						},
						{
							"name": "otherPayHooksSpecifications",
							"type": "tuple[]",
							"internalType": "struct JBPayHookSpecification[]",
							"components": [
								{
									"name": "hook",
									"type": "address",
									"internalType": "contract IJBPayHook"
								},
								{
									"name": "amount",
									"type": "uint256",
									"internalType": "uint256"
								},
								{
									"name": "metadata",
									"type": "bytes",
									"internalType": "bytes"
								}
							]
						},
						{
							"name": "extraHookMetadata",
							"type": "uint16",
							"internalType": "uint16"
						},
						{
							"name": "allowedPosts",
							"type": "tuple[]",
							"internalType": "struct REVCroptopAllowedPost[]",
							"components": [
								{
									"name": "category",
									"type": "uint256",
									"internalType": "uint256"
								},
								{
									"name": "minimumPrice",
									"type": "uint256",
									"internalType": "uint256"
								},
								{
									"name": "minimumTotalSupply",
									"type": "uint256",
									"internalType": "uint256"
								},
								{
									"name": "maximumTotalSupply",
									"type": "uint256",
									"internalType": "uint256"
								},
								{
									"name": "allowedAddresses",
									"type": "address[]",
									"internalType": "address[]"
								}
							]
						}
					],
					"outputs": [
						{
							"name": "",
							"type": "uint256",
							"internalType": "uint256"
						},
						{
							"name": "hook",
							"type": "address",
							"internalType": "contract IJB721TiersHook"
						}
					],
					"stateMutability": "nonpayable"
				},
				{
					"type": "function",
					"name": "launchPayHookRevnetFor",
					"inputs": [
						{
							"name": "revnetId",
							"type": "uint256",
							"internalType": "uint256"
						},
						{
							"name": "configuration",
							"type": "tuple",
							"internalType": "struct REVConfig",
							"components": [
								{
									"name": "description",
									"type": "tuple",
									"internalType": "struct REVDescription",
									"components": [
										{
											"name": "name",
											"type": "string",
											"internalType": "string"
										},
										{
											"name": "ticker",
											"type": "string",
											"internalType": "string"
										},
										{
											"name": "uri",
											"type": "string",
											"internalType": "string"
										},
										{
											"name": "salt",
											"type": "bytes32",
											"internalType": "bytes32"
										}
									]
								},
								{
									"name": "baseCurrency",
									"type": "uint32",
									"internalType": "uint32"
								},
								{
									"name": "initialSplitOperator",
									"type": "address",
									"internalType": "address"
								},
								{
									"name": "stageConfigurations",
									"type": "tuple[]",
									"internalType": "struct REVStageConfig[]",
									"components": [
										{
											"name": "startsAtOrAfter",
											"type": "uint40",
											"internalType": "uint40"
										},
										{
											"name": "mintConfigs",
											"type": "tuple[]",
											"internalType": "struct REVMintConfig[]",
											"components": [
												{
													"name": "chainId",
													"type": "uint256",
													"internalType": "uint256"
												},
												{
													"name": "count",
													"type": "uint256",
													"internalType": "uint256"
												},
												{
													"name": "beneficiary",
													"type": "address",
													"internalType": "address"
												}
											]
										},
										{
											"name": "splitRate",
											"type": "uint16",
											"internalType": "uint16"
										},
										{
											"name": "initialIssuanceRate",
											"type": "uint112",
											"internalType": "uint112"
										},
										{
											"name": "priceCeilingIncreaseFrequency",
											"type": "uint40",
											"internalType": "uint40"
										},
										{
											"name": "priceCeilingIncreasePercentage",
											"type": "uint32",
											"internalType": "uint32"
										},
										{
											"name": "priceFloorTaxIntensity",
											"type": "uint16",
											"internalType": "uint16"
										}
									]
								}
							]
						},
						{
							"name": "terminalConfigurations",
							"type": "tuple[]",
							"internalType": "struct JBTerminalConfig[]",
							"components": [
								{
									"name": "terminal",
									"type": "address",
									"internalType": "contract IJBTerminal"
								},
								{
									"name": "tokensToAccept",
									"type": "address[]",
									"internalType": "address[]"
								}
							]
						},
						{
							"name": "buybackHookConfiguration",
							"type": "tuple",
							"internalType": "struct REVBuybackHookConfig",
							"components": [
								{
									"name": "hook",
									"type": "address",
									"internalType": "contract IJBBuybackHook"
								},
								{
									"name": "poolConfigurations",
									"type": "tuple[]",
									"internalType": "struct REVBuybackPoolConfig[]",
									"components": [
										{
											"name": "token",
											"type": "address",
											"internalType": "address"
										},
										{
											"name": "fee",
											"type": "uint24",
											"internalType": "uint24"
										},
										{
											"name": "twapWindow",
											"type": "uint32",
											"internalType": "uint32"
										},
										{
											"name": "twapSlippageTolerance",
											"type": "uint32",
											"internalType": "uint32"
										}
									]
								}
							]
						},
						{
							"name": "suckerDeploymentConfiguration",
							"type": "tuple",
							"internalType": "struct REVSuckerDeploymentConfig",
							"components": [
								{
									"name": "deployerConfigurations",
									"type": "tuple[]",
									"internalType": "struct BPSuckerDeployerConfig[]",
									"components": [
										{
											"name": "deployer",
											"type": "address",
											"internalType": "contract IBPSuckerDeployer"
										},
										{
											"name": "mappings",
											"type": "tuple[]",
											"internalType": "struct BPTokenMapping[]",
											"components": [
												{
													"name": "localToken",
													"type": "address",
													"internalType": "address"
												},
												{
													"name": "minGas",
													"type": "uint32",
													"internalType": "uint32"
												},
												{
													"name": "remoteToken",
													"type": "address",
													"internalType": "address"
												},
												{
													"name": "minBridgeAmount",
													"type": "uint256",
													"internalType": "uint256"
												}
											]
										}
									]
								},
								{
									"name": "salt",
									"type": "bytes32",
									"internalType": "bytes32"
								}
							]
						},
						{
							"name": "payHookSpecifications",
							"type": "tuple[]",
							"internalType": "struct JBPayHookSpecification[]",
							"components": [
								{
									"name": "hook",
									"type": "address",
									"internalType": "contract IJBPayHook"
								},
								{
									"name": "amount",
									"type": "uint256",
									"internalType": "uint256"
								},
								{
									"name": "metadata",
									"type": "bytes",
									"internalType": "bytes"
								}
							]
						},
						{
							"name": "extraHookMetadata",
							"type": "uint16",
							"internalType": "uint16"
						}
					],
					"outputs": [
						{
							"name": "",
							"type": "uint256",
							"internalType": "uint256"
						}
					],
					"stateMutability": "nonpayable"
				},
				{
					"type": "function",
					"name": "launchRevnetFor",
					"inputs": [
						{
							"name": "revnetId",
							"type": "uint256",
							"internalType": "uint256"
						},
						{
							"name": "configuration",
							"type": "tuple",
							"internalType": "struct REVConfig",
							"components": [
								{
									"name": "description",
									"type": "tuple",
									"internalType": "struct REVDescription",
									"components": [
										{
											"name": "name",
											"type": "string",
											"internalType": "string"
										},
										{
											"name": "ticker",
											"type": "string",
											"internalType": "string"
										},
										{
											"name": "uri",
											"type": "string",
											"internalType": "string"
										},
										{
											"name": "salt",
											"type": "bytes32",
											"internalType": "bytes32"
										}
									]
								},
								{
									"name": "baseCurrency",
									"type": "uint32",
									"internalType": "uint32"
								},
								{
									"name": "initialSplitOperator",
									"type": "address",
									"internalType": "address"
								},
								{
									"name": "stageConfigurations",
									"type": "tuple[]",
									"internalType": "struct REVStageConfig[]",
									"components": [
										{
											"name": "startsAtOrAfter",
											"type": "uint40",
											"internalType": "uint40"
										},
										{
											"name": "mintConfigs",
											"type": "tuple[]",
											"internalType": "struct REVMintConfig[]",
											"components": [
												{
													"name": "chainId",
													"type": "uint256",
													"internalType": "uint256"
												},
												{
													"name": "count",
													"type": "uint256",
													"internalType": "uint256"
												},
												{
													"name": "beneficiary",
													"type": "address",
													"internalType": "address"
												}
											]
										},
										{
											"name": "splitRate",
											"type": "uint16",
											"internalType": "uint16"
										},
										{
											"name": "initialIssuanceRate",
											"type": "uint112",
											"internalType": "uint112"
										},
										{
											"name": "priceCeilingIncreaseFrequency",
											"type": "uint40",
											"internalType": "uint40"
										},
										{
											"name": "priceCeilingIncreasePercentage",
											"type": "uint32",
											"internalType": "uint32"
										},
										{
											"name": "priceFloorTaxIntensity",
											"type": "uint16",
											"internalType": "uint16"
										}
									]
								}
							]
						},
						{
							"name": "terminalConfigurations",
							"type": "tuple[]",
							"internalType": "struct JBTerminalConfig[]",
							"components": [
								{
									"name": "terminal",
									"type": "address",
									"internalType": "contract IJBTerminal"
								},
								{
									"name": "tokensToAccept",
									"type": "address[]",
									"internalType": "address[]"
								}
							]
						},
						{
							"name": "buybackHookConfiguration",
							"type": "tuple",
							"internalType": "struct REVBuybackHookConfig",
							"components": [
								{
									"name": "hook",
									"type": "address",
									"internalType": "contract IJBBuybackHook"
								},
								{
									"name": "poolConfigurations",
									"type": "tuple[]",
									"internalType": "struct REVBuybackPoolConfig[]",
									"components": [
										{
											"name": "token",
											"type": "address",
											"internalType": "address"
										},
										{
											"name": "fee",
											"type": "uint24",
											"internalType": "uint24"
										},
										{
											"name": "twapWindow",
											"type": "uint32",
											"internalType": "uint32"
										},
										{
											"name": "twapSlippageTolerance",
											"type": "uint32",
											"internalType": "uint32"
										}
									]
								}
							]
						},
						{
							"name": "suckerDeploymentConfiguration",
							"type": "tuple",
							"internalType": "struct REVSuckerDeploymentConfig",
							"components": [
								{
									"name": "deployerConfigurations",
									"type": "tuple[]",
									"internalType": "struct BPSuckerDeployerConfig[]",
									"components": [
										{
											"name": "deployer",
											"type": "address",
											"internalType": "contract IBPSuckerDeployer"
										},
										{
											"name": "mappings",
											"type": "tuple[]",
											"internalType": "struct BPTokenMapping[]",
											"components": [
												{
													"name": "localToken",
													"type": "address",
													"internalType": "address"
												},
												{
													"name": "minGas",
													"type": "uint32",
													"internalType": "uint32"
												},
												{
													"name": "remoteToken",
													"type": "address",
													"internalType": "address"
												},
												{
													"name": "minBridgeAmount",
													"type": "uint256",
													"internalType": "uint256"
												}
											]
										}
									]
								},
								{
									"name": "salt",
									"type": "bytes32",
									"internalType": "bytes32"
								}
							]
						}
					],
					"outputs": [
						{
							"name": "",
							"type": "uint256",
							"internalType": "uint256"
						}
					],
					"stateMutability": "nonpayable"
				},
				{
					"type": "function",
					"name": "launchTiered721RevnetFor",
					"inputs": [
						{
							"name": "revnetId",
							"type": "uint256",
							"internalType": "uint256"
						},
						{
							"name": "configuration",
							"type": "tuple",
							"internalType": "struct REVConfig",
							"components": [
								{
									"name": "description",
									"type": "tuple",
									"internalType": "struct REVDescription",
									"components": [
										{
											"name": "name",
											"type": "string",
											"internalType": "string"
										},
										{
											"name": "ticker",
											"type": "string",
											"internalType": "string"
										},
										{
											"name": "uri",
											"type": "string",
											"internalType": "string"
										},
										{
											"name": "salt",
											"type": "bytes32",
											"internalType": "bytes32"
										}
									]
								},
								{
									"name": "baseCurrency",
									"type": "uint32",
									"internalType": "uint32"
								},
								{
									"name": "initialSplitOperator",
									"type": "address",
									"internalType": "address"
								},
								{
									"name": "stageConfigurations",
									"type": "tuple[]",
									"internalType": "struct REVStageConfig[]",
									"components": [
										{
											"name": "startsAtOrAfter",
											"type": "uint40",
											"internalType": "uint40"
										},
										{
											"name": "mintConfigs",
											"type": "tuple[]",
											"internalType": "struct REVMintConfig[]",
											"components": [
												{
													"name": "chainId",
													"type": "uint256",
													"internalType": "uint256"
												},
												{
													"name": "count",
													"type": "uint256",
													"internalType": "uint256"
												},
												{
													"name": "beneficiary",
													"type": "address",
													"internalType": "address"
												}
											]
										},
										{
											"name": "splitRate",
											"type": "uint16",
											"internalType": "uint16"
										},
										{
											"name": "initialIssuanceRate",
											"type": "uint112",
											"internalType": "uint112"
										},
										{
											"name": "priceCeilingIncreaseFrequency",
											"type": "uint40",
											"internalType": "uint40"
										},
										{
											"name": "priceCeilingIncreasePercentage",
											"type": "uint32",
											"internalType": "uint32"
										},
										{
											"name": "priceFloorTaxIntensity",
											"type": "uint16",
											"internalType": "uint16"
										}
									]
								}
							]
						},
						{
							"name": "terminalConfigurations",
							"type": "tuple[]",
							"internalType": "struct JBTerminalConfig[]",
							"components": [
								{
									"name": "terminal",
									"type": "address",
									"internalType": "contract IJBTerminal"
								},
								{
									"name": "tokensToAccept",
									"type": "address[]",
									"internalType": "address[]"
								}
							]
						},
						{
							"name": "buybackHookConfiguration",
							"type": "tuple",
							"internalType": "struct REVBuybackHookConfig",
							"components": [
								{
									"name": "hook",
									"type": "address",
									"internalType": "contract IJBBuybackHook"
								},
								{
									"name": "poolConfigurations",
									"type": "tuple[]",
									"internalType": "struct REVBuybackPoolConfig[]",
									"components": [
										{
											"name": "token",
											"type": "address",
											"internalType": "address"
										},
										{
											"name": "fee",
											"type": "uint24",
											"internalType": "uint24"
										},
										{
											"name": "twapWindow",
											"type": "uint32",
											"internalType": "uint32"
										},
										{
											"name": "twapSlippageTolerance",
											"type": "uint32",
											"internalType": "uint32"
										}
									]
								}
							]
						},
						{
							"name": "suckerDeploymentConfiguration",
							"type": "tuple",
							"internalType": "struct REVSuckerDeploymentConfig",
							"components": [
								{
									"name": "deployerConfigurations",
									"type": "tuple[]",
									"internalType": "struct BPSuckerDeployerConfig[]",
									"components": [
										{
											"name": "deployer",
											"type": "address",
											"internalType": "contract IBPSuckerDeployer"
										},
										{
											"name": "mappings",
											"type": "tuple[]",
											"internalType": "struct BPTokenMapping[]",
											"components": [
												{
													"name": "localToken",
													"type": "address",
													"internalType": "address"
												},
												{
													"name": "minGas",
													"type": "uint32",
													"internalType": "uint32"
												},
												{
													"name": "remoteToken",
													"type": "address",
													"internalType": "address"
												},
												{
													"name": "minBridgeAmount",
													"type": "uint256",
													"internalType": "uint256"
												}
											]
										}
									]
								},
								{
									"name": "salt",
									"type": "bytes32",
									"internalType": "bytes32"
								}
							]
						},
						{
							"name": "hookConfiguration",
							"type": "tuple",
							"internalType": "struct REVDeploy721TiersHookConfig",
							"components": [
								{
									"name": "baseline721HookConfiguration",
									"type": "tuple",
									"internalType": "struct JBDeploy721TiersHookConfig",
									"components": [
										{
											"name": "name",
											"type": "string",
											"internalType": "string"
										},
										{
											"name": "symbol",
											"type": "string",
											"internalType": "string"
										},
										{
											"name": "rulesets",
											"type": "address",
											"internalType": "contract IJBRulesets"
										},
										{
											"name": "baseUri",
											"type": "string",
											"internalType": "string"
										},
										{
											"name": "tokenUriResolver",
											"type": "address",
											"internalType": "contract IJB721TokenUriResolver"
										},
										{
											"name": "contractUri",
											"type": "string",
											"internalType": "string"
										},
										{
											"name": "tiersConfig",
											"type": "tuple",
											"internalType": "struct JB721InitTiersConfig",
											"components": [
												{
													"name": "tiers",
													"type": "tuple[]",
													"internalType": "struct JB721TierConfig[]",
													"components": [
														{
															"name": "price",
															"type": "uint104",
															"internalType": "uint104"
														},
														{
															"name": "initialSupply",
															"type": "uint32",
															"internalType": "uint32"
														},
														{
															"name": "votingUnits",
															"type": "uint32",
															"internalType": "uint32"
														},
														{
															"name": "reserveFrequency",
															"type": "uint16",
															"internalType": "uint16"
														},
														{
															"name": "reserveBeneficiary",
															"type": "address",
															"internalType": "address"
														},
														{
															"name": "encodedIPFSUri",
															"type": "bytes32",
															"internalType": "bytes32"
														},
														{
															"name": "category",
															"type": "uint24",
															"internalType": "uint24"
														},
														{
															"name": "allowOwnerMint",
															"type": "bool",
															"internalType": "bool"
														},
														{
															"name": "useReserveBeneficiaryAsDefault",
															"type": "bool",
															"internalType": "bool"
														},
														{
															"name": "transfersPausable",
															"type": "bool",
															"internalType": "bool"
														},
														{
															"name": "useVotingUnits",
															"type": "bool",
															"internalType": "bool"
														},
														{
															"name": "cannotBeRemoved",
															"type": "bool",
															"internalType": "bool"
														}
													]
												},
												{
													"name": "currency",
													"type": "uint32",
													"internalType": "uint32"
												},
												{
													"name": "decimals",
													"type": "uint8",
													"internalType": "uint8"
												},
												{
													"name": "prices",
													"type": "address",
													"internalType": "contract IJBPrices"
												}
											]
										},
										{
											"name": "reserveBeneficiary",
											"type": "address",
											"internalType": "address"
										},
										{
											"name": "flags",
											"type": "tuple",
											"internalType": "struct JB721TiersHookFlags",
											"components": [
												{
													"name": "noNewTiersWithReserves",
													"type": "bool",
													"internalType": "bool"
												},
												{
													"name": "noNewTiersWithVotes",
													"type": "bool",
													"internalType": "bool"
												},
												{
													"name": "noNewTiersWithOwnerMinting",
													"type": "bool",
													"internalType": "bool"
												},
												{
													"name": "preventOverspending",
													"type": "bool",
													"internalType": "bool"
												}
											]
										}
									]
								},
								{
									"name": "operatorCanAdjustTiers",
									"type": "bool",
									"internalType": "bool"
								},
								{
									"name": "operatorCanUpdateMetadata",
									"type": "bool",
									"internalType": "bool"
								},
								{
									"name": "operatorCanMint",
									"type": "bool",
									"internalType": "bool"
								}
							]
						},
						{
							"name": "otherPayHooksSpecifications",
							"type": "tuple[]",
							"internalType": "struct JBPayHookSpecification[]",
							"components": [
								{
									"name": "hook",
									"type": "address",
									"internalType": "contract IJBPayHook"
								},
								{
									"name": "amount",
									"type": "uint256",
									"internalType": "uint256"
								},
								{
									"name": "metadata",
									"type": "bytes",
									"internalType": "bytes"
								}
							]
						},
						{
							"name": "extraHookMetadata",
							"type": "uint16",
							"internalType": "uint16"
						}
					],
					"outputs": [
						{
							"name": "",
							"type": "uint256",
							"internalType": "uint256"
						},
						{
							"name": "hook",
							"type": "address",
							"internalType": "contract IJB721TiersHook"
						}
					],
					"stateMutability": "nonpayable"
				},
				{
					"type": "function",
					"name": "mintFor",
					"inputs": [
						{
							"name": "revnetId",
							"type": "uint256",
							"internalType": "uint256"
						},
						{
							"name": "beneficiary",
							"type": "address",
							"internalType": "address"
						}
					],
					"outputs": [],
					"stateMutability": "nonpayable"
				},
				{
					"type": "function",
					"name": "onERC721Received",
					"inputs": [
						{
							"name": "operator",
							"type": "address",
							"internalType": "address"
						},
						{
							"name": "",
							"type": "address",
							"internalType": "address"
						},
						{
							"name": "tokenId",
							"type": "uint256",
							"internalType": "uint256"
						},
						{
							"name": "data",
							"type": "bytes",
							"internalType": "bytes"
						}
					],
					"outputs": [
						{
							"name": "",
							"type": "bytes4",
							"internalType": "bytes4"
						}
					],
					"stateMutability": "view"
				},
				{
					"type": "function",
					"name": "payHookSpecificationsOf",
					"inputs": [
						{
							"name": "revnetId",
							"type": "uint256",
							"internalType": "uint256"
						}
					],
					"outputs": [
						{
							"name": "",
							"type": "tuple[]",
							"internalType": "struct JBPayHookSpecification[]",
							"components": [
								{
									"name": "hook",
									"type": "address",
									"internalType": "contract IJBPayHook"
								},
								{
									"name": "amount",
									"type": "uint256",
									"internalType": "uint256"
								},
								{
									"name": "metadata",
									"type": "bytes",
									"internalType": "bytes"
								}
							]
						}
					],
					"stateMutability": "view"
				},
				{
					"type": "function",
					"name": "replaceSplitOperatorOf",
					"inputs": [
						{
							"name": "revnetId",
							"type": "uint256",
							"internalType": "uint256"
						},
						{
							"name": "newSplitOperator",
							"type": "address",
							"internalType": "address"
						}
					],
					"outputs": [],
					"stateMutability": "nonpayable"
				},
				{
					"type": "function",
					"name": "supportsInterface",
					"inputs": [
						{
							"name": "interfaceId",
							"type": "bytes4",
							"internalType": "bytes4"
						}
					],
					"outputs": [
						{
							"name": "",
							"type": "bool",
							"internalType": "bool"
						}
					],
					"stateMutability": "view"
				},
				{
					"type": "function",
					"name": "trustedForwarder",
					"inputs": [],
					"outputs": [
						{
							"name": "",
							"type": "address",
							"internalType": "address"
						}
					],
					"stateMutability": "view"
				},
				{
					"type": "event",
					"name": "DeployRevnet",
					"inputs": [
						{
							"name": "revnetId",
							"type": "uint256",
							"indexed": true,
							"internalType": "uint256"
						},
						{
							"name": "configuration",
							"type": "tuple",
							"indexed": false,
							"internalType": "struct REVConfig",
							"components": [
								{
									"name": "description",
									"type": "tuple",
									"internalType": "struct REVDescription",
									"components": [
										{
											"name": "name",
											"type": "string",
											"internalType": "string"
										},
										{
											"name": "ticker",
											"type": "string",
											"internalType": "string"
										},
										{
											"name": "uri",
											"type": "string",
											"internalType": "string"
										},
										{
											"name": "salt",
											"type": "bytes32",
											"internalType": "bytes32"
										}
									]
								},
								{
									"name": "baseCurrency",
									"type": "uint32",
									"internalType": "uint32"
								},
								{
									"name": "initialSplitOperator",
									"type": "address",
									"internalType": "address"
								},
								{
									"name": "stageConfigurations",
									"type": "tuple[]",
									"internalType": "struct REVStageConfig[]",
									"components": [
										{
											"name": "startsAtOrAfter",
											"type": "uint40",
											"internalType": "uint40"
										},
										{
											"name": "mintConfigs",
											"type": "tuple[]",
											"internalType": "struct REVMintConfig[]",
											"components": [
												{
													"name": "chainId",
													"type": "uint256",
													"internalType": "uint256"
												},
												{
													"name": "count",
													"type": "uint256",
													"internalType": "uint256"
												},
												{
													"name": "beneficiary",
													"type": "address",
													"internalType": "address"
												}
											]
										},
										{
											"name": "splitRate",
											"type": "uint16",
											"internalType": "uint16"
										},
										{
											"name": "initialIssuanceRate",
											"type": "uint112",
											"internalType": "uint112"
										},
										{
											"name": "priceCeilingIncreaseFrequency",
											"type": "uint40",
											"internalType": "uint40"
										},
										{
											"name": "priceCeilingIncreasePercentage",
											"type": "uint32",
											"internalType": "uint32"
										},
										{
											"name": "priceFloorTaxIntensity",
											"type": "uint16",
											"internalType": "uint16"
										}
									]
								}
							]
						},
						{
							"name": "terminalConfigurations",
							"type": "tuple[]",
							"indexed": false,
							"internalType": "struct JBTerminalConfig[]",
							"components": [
								{
									"name": "terminal",
									"type": "address",
									"internalType": "contract IJBTerminal"
								},
								{
									"name": "tokensToAccept",
									"type": "address[]",
									"internalType": "address[]"
								}
							]
						},
						{
							"name": "buybackHookConfiguration",
							"type": "tuple",
							"indexed": false,
							"internalType": "struct REVBuybackHookConfig",
							"components": [
								{
									"name": "hook",
									"type": "address",
									"internalType": "contract IJBBuybackHook"
								},
								{
									"name": "poolConfigurations",
									"type": "tuple[]",
									"internalType": "struct REVBuybackPoolConfig[]",
									"components": [
										{
											"name": "token",
											"type": "address",
											"internalType": "address"
										},
										{
											"name": "fee",
											"type": "uint24",
											"internalType": "uint24"
										},
										{
											"name": "twapWindow",
											"type": "uint32",
											"internalType": "uint32"
										},
										{
											"name": "twapSlippageTolerance",
											"type": "uint32",
											"internalType": "uint32"
										}
									]
								}
							]
						},
						{
							"name": "suckerDeploymentConfiguration",
							"type": "tuple",
							"indexed": false,
							"internalType": "struct REVSuckerDeploymentConfig",
							"components": [
								{
									"name": "deployerConfigurations",
									"type": "tuple[]",
									"internalType": "struct BPSuckerDeployerConfig[]",
									"components": [
										{
											"name": "deployer",
											"type": "address",
											"internalType": "contract IBPSuckerDeployer"
										},
										{
											"name": "mappings",
											"type": "tuple[]",
											"internalType": "struct BPTokenMapping[]",
											"components": [
												{
													"name": "localToken",
													"type": "address",
													"internalType": "address"
												},
												{
													"name": "minGas",
													"type": "uint32",
													"internalType": "uint32"
												},
												{
													"name": "remoteToken",
													"type": "address",
													"internalType": "address"
												},
												{
													"name": "minBridgeAmount",
													"type": "uint256",
													"internalType": "uint256"
												}
											]
										}
									]
								},
								{
									"name": "salt",
									"type": "bytes32",
									"internalType": "bytes32"
								}
							]
						},
						{
							"name": "rulesetConfigurations",
							"type": "tuple[]",
							"indexed": false,
							"internalType": "struct JBRulesetConfig[]",
							"components": [
								{
									"name": "mustStartAtOrAfter",
									"type": "uint256",
									"internalType": "uint256"
								},
								{
									"name": "duration",
									"type": "uint256",
									"internalType": "uint256"
								},
								{
									"name": "weight",
									"type": "uint256",
									"internalType": "uint256"
								},
								{
									"name": "decayRate",
									"type": "uint256",
									"internalType": "uint256"
								},
								{
									"name": "approvalHook",
									"type": "address",
									"internalType": "contract IJBRulesetApprovalHook"
								},
								{
									"name": "metadata",
									"type": "tuple",
									"internalType": "struct JBRulesetMetadata",
									"components": [
										{
											"name": "reservedRate",
											"type": "uint256",
											"internalType": "uint256"
										},
										{
											"name": "redemptionRate",
											"type": "uint256",
											"internalType": "uint256"
										},
										{
											"name": "baseCurrency",
											"type": "uint256",
											"internalType": "uint256"
										},
										{
											"name": "pausePay",
											"type": "bool",
											"internalType": "bool"
										},
										{
											"name": "pauseCreditTransfers",
											"type": "bool",
											"internalType": "bool"
										},
										{
											"name": "allowOwnerMinting",
											"type": "bool",
											"internalType": "bool"
										},
										{
											"name": "allowTerminalMigration",
											"type": "bool",
											"internalType": "bool"
										},
										{
											"name": "allowSetTerminals",
											"type": "bool",
											"internalType": "bool"
										},
										{
											"name": "allowControllerMigration",
											"type": "bool",
											"internalType": "bool"
										},
										{
											"name": "allowSetController",
											"type": "bool",
											"internalType": "bool"
										},
										{
											"name": "holdFees",
											"type": "bool",
											"internalType": "bool"
										},
										{
											"name": "useTotalSurplusForRedemptions",
											"type": "bool",
											"internalType": "bool"
										},
										{
											"name": "useDataHookForPay",
											"type": "bool",
											"internalType": "bool"
										},
										{
											"name": "useDataHookForRedeem",
											"type": "bool",
											"internalType": "bool"
										},
										{
											"name": "dataHook",
											"type": "address",
											"internalType": "address"
										},
										{
											"name": "metadata",
											"type": "uint256",
											"internalType": "uint256"
										}
									]
								},
								{
									"name": "splitGroups",
									"type": "tuple[]",
									"internalType": "struct JBSplitGroup[]",
									"components": [
										{
											"name": "groupId",
											"type": "uint256",
											"internalType": "uint256"
										},
										{
											"name": "splits",
											"type": "tuple[]",
											"internalType": "struct JBSplit[]",
											"components": [
												{
													"name": "preferAddToBalance",
													"type": "bool",
													"internalType": "bool"
												},
												{
													"name": "percent",
													"type": "uint256",
													"internalType": "uint256"
												},
												{
													"name": "projectId",
													"type": "uint256",
													"internalType": "uint256"
												},
												{
													"name": "beneficiary",
													"type": "address",
													"internalType": "address payable"
												},
												{
													"name": "lockedUntil",
													"type": "uint256",
													"internalType": "uint256"
												},
												{
													"name": "hook",
													"type": "address",
													"internalType": "contract IJBSplitHook"
												}
											]
										}
									]
								},
								{
									"name": "fundAccessLimitGroups",
									"type": "tuple[]",
									"internalType": "struct JBFundAccessLimitGroup[]",
									"components": [
										{
											"name": "terminal",
											"type": "address",
											"internalType": "address"
										},
										{
											"name": "token",
											"type": "address",
											"internalType": "address"
										},
										{
											"name": "payoutLimits",
											"type": "tuple[]",
											"internalType": "struct JBCurrencyAmount[]",
											"components": [
												{
													"name": "amount",
													"type": "uint256",
													"internalType": "uint256"
												},
												{
													"name": "currency",
													"type": "uint256",
													"internalType": "uint256"
												}
											]
										},
										{
											"name": "surplusAllowances",
											"type": "tuple[]",
											"internalType": "struct JBCurrencyAmount[]",
											"components": [
												{
													"name": "amount",
													"type": "uint256",
													"internalType": "uint256"
												},
												{
													"name": "currency",
													"type": "uint256",
													"internalType": "uint256"
												}
											]
										}
									]
								}
							]
						},
						{
							"name": "encodedConfiguration",
							"type": "bytes",
							"indexed": false,
							"internalType": "bytes"
						},
						{
							"name": "isInProgress",
							"type": "bool",
							"indexed": false,
							"internalType": "bool"
						},
						{
							"name": "caller",
							"type": "address",
							"indexed": false,
							"internalType": "address"
						}
					],
					"anonymous": false
				},
				{
					"type": "event",
					"name": "DeploySuckers",
					"inputs": [
						{
							"name": "revnetId",
							"type": "uint256",
							"indexed": true,
							"internalType": "uint256"
						},
						{
							"name": "salt",
							"type": "bytes32",
							"indexed": true,
							"internalType": "bytes32"
						},
						{
							"name": "encodedConfiguration",
							"type": "bytes",
							"indexed": false,
							"internalType": "bytes"
						},
						{
							"name": "suckerDeploymentConfiguration",
							"type": "tuple",
							"indexed": false,
							"internalType": "struct REVSuckerDeploymentConfig",
							"components": [
								{
									"name": "deployerConfigurations",
									"type": "tuple[]",
									"internalType": "struct BPSuckerDeployerConfig[]",
									"components": [
										{
											"name": "deployer",
											"type": "address",
											"internalType": "contract IBPSuckerDeployer"
										},
										{
											"name": "mappings",
											"type": "tuple[]",
											"internalType": "struct BPTokenMapping[]",
											"components": [
												{
													"name": "localToken",
													"type": "address",
													"internalType": "address"
												},
												{
													"name": "minGas",
													"type": "uint32",
													"internalType": "uint32"
												},
												{
													"name": "remoteToken",
													"type": "address",
													"internalType": "address"
												},
												{
													"name": "minBridgeAmount",
													"type": "uint256",
													"internalType": "uint256"
												}
											]
										}
									]
								},
								{
									"name": "salt",
									"type": "bytes32",
									"internalType": "bytes32"
								}
							]
						},
						{
							"name": "caller",
							"type": "address",
							"indexed": false,
							"internalType": "address"
						}
					],
					"anonymous": false
				},
				{
					"type": "event",
					"name": "Mint",
					"inputs": [
						{
							"name": "revnetId",
							"type": "uint256",
							"indexed": true,
							"internalType": "uint256"
						},
						{
							"name": "stageId",
							"type": "uint256",
							"indexed": true,
							"internalType": "uint256"
						},
						{
							"name": "beneficiary",
							"type": "address",
							"indexed": true,
							"internalType": "address"
						},
						{
							"name": "count",
							"type": "uint256",
							"indexed": false,
							"internalType": "uint256"
						},
						{
							"name": "caller",
							"type": "address",
							"indexed": false,
							"internalType": "address"
						}
					],
					"anonymous": false
				},
				{
					"type": "event",
					"name": "ReplaceSplitOperator",
					"inputs": [
						{
							"name": "revnetId",
							"type": "uint256",
							"indexed": true,
							"internalType": "uint256"
						},
						{
							"name": "newSplitOperator",
							"type": "address",
							"indexed": true,
							"internalType": "address"
						},
						{
							"name": "caller",
							"type": "address",
							"indexed": false,
							"internalType": "address"
						}
					],
					"anonymous": false
				},
				{
					"type": "event",
					"name": "StoredPayHookSpecifications",
					"inputs": [
						{
							"name": "revnetId",
							"type": "uint256",
							"indexed": true,
							"internalType": "uint256"
						},
						{
							"name": "payHookSpecifications",
							"type": "tuple[]",
							"indexed": false,
							"internalType": "struct JBPayHookSpecification[]",
							"components": [
								{
									"name": "hook",
									"type": "address",
									"internalType": "contract IJBPayHook"
								},
								{
									"name": "amount",
									"type": "uint256",
									"internalType": "uint256"
								},
								{
									"name": "metadata",
									"type": "bytes",
									"internalType": "bytes"
								}
							]
						},
						{
							"name": "caller",
							"type": "address",
							"indexed": false,
							"internalType": "address"
						}
					],
					"anonymous": false
				},
				{
					"type": "error",
					"name": "REVBasicDeployer_ExitDelayInEffect",
					"inputs": []
				},
				{
					"type": "error",
					"name": "REVBasicDeployer_Unauthorized",
					"inputs": []
				}
			],
			"solcInputHash": "dc49d42df34264ee46e5c6c92dd005d6",
			"receipt": {
				"blockHash": "0x23d624e49bbdd4b228771637595f872f27e3f016a3ea8c5b0d43e0edb474f6c7",
				"blockNumber": 9450370,
				"contractAddress": null,
				"cumulativeGasUsed": "10820462",
				"from": "0xC034550B542b83BA1De312b21d1C94a9a52B1595",
				"gasPrice": "1000286",
				"gasUsed": "9885995",
				"hash": "0xb1547768a0e0979103ac8d2686a515819df28d81d2de47a4d5b90c5b30a25572",
				"index": 5,
				"logs": [
					{
						"address": "0xB5E96127D417b1B3ef8438496a38A143167209c7",
						"blockHash": "0x23d624e49bbdd4b228771637595f872f27e3f016a3ea8c5b0d43e0edb474f6c7",
						"blockNumber": 9450370,
						"data": "0x0000000000000000000000000000000000000000000000000000000000000000",
						"index": 5,
						"topics": [
							"0x572f161235911da04685a68c06adf558fc7e4a36909dca394650e0adc19cc93d",
							"0x000000000000000000000000c034550b542b83ba1de312b21d1c94a9a52b1595",
							"0x00000000000000000000000018ed911dda49f125bbadd71f826f1cda550f20fe",
							"0x55d1f80730c568af3fabcdbbe3b86376d1dfffb4b78ac183e868d3e8e1f3af2c"
						],
						"transactionHash": "0xb1547768a0e0979103ac8d2686a515819df28d81d2de47a4d5b90c5b30a25572",
						"transactionIndex": 5
					},
					{
						"address": "0x15B51C7D9DBc4681e54f8b493187C9a2377bd81B",
						"blockHash": "0x23d624e49bbdd4b228771637595f872f27e3f016a3ea8c5b0d43e0edb474f6c7",
						"blockNumber": 9450370,
						"data": "0x",
						"index": 6,
						"topics": [
							"0x6895c13664aa4f67288b25d7a21d7aaa34916e355fb9b6fae0a139a9085becb8",
							"0x00000000000000000000000018ed911dda49f125bbadd71f826f1cda550f20fe"
						],
						"transactionHash": "0xb1547768a0e0979103ac8d2686a515819df28d81d2de47a4d5b90c5b30a25572",
						"transactionIndex": 5
					},
					{
						"address": "0x18Ed911ddA49f125bbadd71f826F1cDa550f20fE",
						"blockHash": "0x23d624e49bbdd4b228771637595f872f27e3f016a3ea8c5b0d43e0edb474f6c7",
						"blockNumber": 9450370,
						"data": "0x0000000000000000000000000000000000000000000000000000000000000001",
						"index": 7,
						"topics": [
							"0xa65fb05c5808f5f389d72edeaf719ce38f4cc55c1f69ca3cbfb31c21501caa07",
							"0x1d085f0c5b331462367b4fa07a86d9fbebfac5b7c4e43d98b139436e2c1c70d3"
						],
						"transactionHash": "0xb1547768a0e0979103ac8d2686a515819df28d81d2de47a4d5b90c5b30a25572",
						"transactionIndex": 5
					},
					{
						"address": "0x15B51C7D9DBc4681e54f8b493187C9a2377bd81B",
						"blockHash": "0x23d624e49bbdd4b228771637595f872f27e3f016a3ea8c5b0d43e0edb474f6c7",
						"blockNumber": 9450370,
						"data": "0x",
						"index": 8,
						"topics": [
							"0x6895c13664aa4f67288b25d7a21d7aaa34916e355fb9b6fae0a139a9085becb8",
							"0x00000000000000000000000018ed911dda49f125bbadd71f826f1cda550f20fe"
						],
						"transactionHash": "0xb1547768a0e0979103ac8d2686a515819df28d81d2de47a4d5b90c5b30a25572",
						"transactionIndex": 5
					},
					{
						"address": "0x18Ed911ddA49f125bbadd71f826F1cDa550f20fE",
						"blockHash": "0x23d624e49bbdd4b228771637595f872f27e3f016a3ea8c5b0d43e0edb474f6c7",
						"blockNumber": 9450370,
						"data": "0x0000000000000000000000000000000000000000000000000000000000000002",
						"index": 9,
						"topics": [
							"0xa65fb05c5808f5f389d72edeaf719ce38f4cc55c1f69ca3cbfb31c21501caa07",
							"0x1d085f0c5b331462367b4fa07a86d9fbebfac5b7c4e43d98b139436e2c1c70d3"
						],
						"transactionHash": "0xb1547768a0e0979103ac8d2686a515819df28d81d2de47a4d5b90c5b30a25572",
						"transactionIndex": 5
					},
					{
						"address": "0x18Ed911ddA49f125bbadd71f826F1cDa550f20fE",
						"blockHash": "0x23d624e49bbdd4b228771637595f872f27e3f016a3ea8c5b0d43e0edb474f6c7",
						"blockNumber": 9450370,
						"data": "0x",
						"index": 10,
						"topics": [
							"0x4383d976757d67ca920616be0b6430a681ea9d3dcce8d6d61d4603ca4a9bff63",
							"0x1d085f0c5b331462367b4fa07a86d9fbebfac5b7c4e43d98b139436e2c1c70d3"
						],
						"transactionHash": "0xb1547768a0e0979103ac8d2686a515819df28d81d2de47a4d5b90c5b30a25572",
						"transactionIndex": 5
					}
				],
				"logsBloom": "0x00002000080010041000000010080000000000000008000000000000004000000000000000000000100000001040000000000004000004000000000000000000100000000000200000000000000000000000000000000000000000000000000000000000000000000000000000000000000000000000000000000000000000000000000000000000000100000000000800000000000000000000008000000000004000800010000000000000000001020200000000000000000000000044000000000000000000002000000008000000000000000000000000000000000000010000000000000008000000000000000200000000000000000000000008000000",
				"status": 1,
				"to": "0xB5E96127D417b1B3ef8438496a38A143167209c7"
			},
			"metadata": "{\"compiler\":{\"version\":\"0.8.23+commit.f704f362\"},\"language\":\"Solidity\",\"output\":{\"abi\":[{\"inputs\":[{\"internalType\":\"contract IJBController\",\"name\":\"controller\",\"type\":\"address\"},{\"internalType\":\"contract IBPSuckerRegistry\",\"name\":\"suckerRegistry\",\"type\":\"address\"},{\"internalType\":\"address\",\"name\":\"trustedForwarder\",\"type\":\"address\"},{\"internalType\":\"contract IJB721TiersHookDeployer\",\"name\":\"hookDeployer\",\"type\":\"address\"},{\"internalType\":\"contract CTPublisher\",\"name\":\"publisher\",\"type\":\"address\"}],\"stateMutability\":\"nonpayable\",\"type\":\"constructor\"},{\"inputs\":[],\"type\":\"error\",\"name\":\"REVBasicDeployer_ExitDelayInEffect\"},{\"inputs\":[],\"type\":\"error\",\"name\":\"REVBasicDeployer_Unauthorized\"},{\"inputs\":[{\"internalType\":\"uint256\",\"name\":\"revnetId\",\"type\":\"uint256\",\"indexed\":true},{\"internalType\":\"struct REVConfig\",\"name\":\"configuration\",\"type\":\"tuple\",\"components\":[{\"internalType\":\"struct REVDescription\",\"name\":\"description\",\"type\":\"tuple\",\"components\":[{\"internalType\":\"string\",\"name\":\"name\",\"type\":\"string\"},{\"internalType\":\"string\",\"name\":\"ticker\",\"type\":\"string\"},{\"internalType\":\"string\",\"name\":\"uri\",\"type\":\"string\"},{\"internalType\":\"bytes32\",\"name\":\"salt\",\"type\":\"bytes32\"}]},{\"internalType\":\"uint32\",\"name\":\"baseCurrency\",\"type\":\"uint32\"},{\"internalType\":\"address\",\"name\":\"initialSplitOperator\",\"type\":\"address\"},{\"internalType\":\"struct REVStageConfig[]\",\"name\":\"stageConfigurations\",\"type\":\"tuple[]\",\"components\":[{\"internalType\":\"uint40\",\"name\":\"startsAtOrAfter\",\"type\":\"uint40\"},{\"internalType\":\"struct REVMintConfig[]\",\"name\":\"mintConfigs\",\"type\":\"tuple[]\",\"components\":[{\"internalType\":\"uint256\",\"name\":\"chainId\",\"type\":\"uint256\"},{\"internalType\":\"uint256\",\"name\":\"count\",\"type\":\"uint256\"},{\"internalType\":\"address\",\"name\":\"beneficiary\",\"type\":\"address\"}]},{\"internalType\":\"uint16\",\"name\":\"splitRate\",\"type\":\"uint16\"},{\"internalType\":\"uint112\",\"name\":\"initialIssuanceRate\",\"type\":\"uint112\"},{\"internalType\":\"uint40\",\"name\":\"priceCeilingIncreaseFrequency\",\"type\":\"uint40\"},{\"internalType\":\"uint32\",\"name\":\"priceCeilingIncreasePercentage\",\"type\":\"uint32\"},{\"internalType\":\"uint16\",\"name\":\"priceFloorTaxIntensity\",\"type\":\"uint16\"}]}],\"indexed\":false},{\"internalType\":\"struct JBTerminalConfig[]\",\"name\":\"terminalConfigurations\",\"type\":\"tuple[]\",\"components\":[{\"internalType\":\"contract IJBTerminal\",\"name\":\"terminal\",\"type\":\"address\"},{\"internalType\":\"address[]\",\"name\":\"tokensToAccept\",\"type\":\"address[]\"}],\"indexed\":false},{\"internalType\":\"struct REVBuybackHookConfig\",\"name\":\"buybackHookConfiguration\",\"type\":\"tuple\",\"components\":[{\"internalType\":\"contract IJBBuybackHook\",\"name\":\"hook\",\"type\":\"address\"},{\"internalType\":\"struct REVBuybackPoolConfig[]\",\"name\":\"poolConfigurations\",\"type\":\"tuple[]\",\"components\":[{\"internalType\":\"address\",\"name\":\"token\",\"type\":\"address\"},{\"internalType\":\"uint24\",\"name\":\"fee\",\"type\":\"uint24\"},{\"internalType\":\"uint32\",\"name\":\"twapWindow\",\"type\":\"uint32\"},{\"internalType\":\"uint32\",\"name\":\"twapSlippageTolerance\",\"type\":\"uint32\"}]}],\"indexed\":false},{\"internalType\":\"struct REVSuckerDeploymentConfig\",\"name\":\"suckerDeploymentConfiguration\",\"type\":\"tuple\",\"components\":[{\"internalType\":\"struct BPSuckerDeployerConfig[]\",\"name\":\"deployerConfigurations\",\"type\":\"tuple[]\",\"components\":[{\"internalType\":\"contract IBPSuckerDeployer\",\"name\":\"deployer\",\"type\":\"address\"},{\"internalType\":\"struct BPTokenMapping[]\",\"name\":\"mappings\",\"type\":\"tuple[]\",\"components\":[{\"internalType\":\"address\",\"name\":\"localToken\",\"type\":\"address\"},{\"internalType\":\"uint32\",\"name\":\"minGas\",\"type\":\"uint32\"},{\"internalType\":\"address\",\"name\":\"remoteToken\",\"type\":\"address\"},{\"internalType\":\"uint256\",\"name\":\"minBridgeAmount\",\"type\":\"uint256\"}]}]},{\"internalType\":\"bytes32\",\"name\":\"salt\",\"type\":\"bytes32\"}],\"indexed\":false},{\"internalType\":\"struct JBRulesetConfig[]\",\"name\":\"rulesetConfigurations\",\"type\":\"tuple[]\",\"components\":[{\"internalType\":\"uint256\",\"name\":\"mustStartAtOrAfter\",\"type\":\"uint256\"},{\"internalType\":\"uint256\",\"name\":\"duration\",\"type\":\"uint256\"},{\"internalType\":\"uint256\",\"name\":\"weight\",\"type\":\"uint256\"},{\"internalType\":\"uint256\",\"name\":\"decayRate\",\"type\":\"uint256\"},{\"internalType\":\"contract IJBRulesetApprovalHook\",\"name\":\"approvalHook\",\"type\":\"address\"},{\"internalType\":\"struct JBRulesetMetadata\",\"name\":\"metadata\",\"type\":\"tuple\",\"components\":[{\"internalType\":\"uint256\",\"name\":\"reservedRate\",\"type\":\"uint256\"},{\"internalType\":\"uint256\",\"name\":\"redemptionRate\",\"type\":\"uint256\"},{\"internalType\":\"uint256\",\"name\":\"baseCurrency\",\"type\":\"uint256\"},{\"internalType\":\"bool\",\"name\":\"pausePay\",\"type\":\"bool\"},{\"internalType\":\"bool\",\"name\":\"pauseCreditTransfers\",\"type\":\"bool\"},{\"internalType\":\"bool\",\"name\":\"allowOwnerMinting\",\"type\":\"bool\"},{\"internalType\":\"bool\",\"name\":\"allowTerminalMigration\",\"type\":\"bool\"},{\"internalType\":\"bool\",\"name\":\"allowSetTerminals\",\"type\":\"bool\"},{\"internalType\":\"bool\",\"name\":\"allowControllerMigration\",\"type\":\"bool\"},{\"internalType\":\"bool\",\"name\":\"allowSetController\",\"type\":\"bool\"},{\"internalType\":\"bool\",\"name\":\"holdFees\",\"type\":\"bool\"},{\"internalType\":\"bool\",\"name\":\"useTotalSurplusForRedemptions\",\"type\":\"bool\"},{\"internalType\":\"bool\",\"name\":\"useDataHookForPay\",\"type\":\"bool\"},{\"internalType\":\"bool\",\"name\":\"useDataHookForRedeem\",\"type\":\"bool\"},{\"internalType\":\"address\",\"name\":\"dataHook\",\"type\":\"address\"},{\"internalType\":\"uint256\",\"name\":\"metadata\",\"type\":\"uint256\"}]},{\"internalType\":\"struct JBSplitGroup[]\",\"name\":\"splitGroups\",\"type\":\"tuple[]\",\"components\":[{\"internalType\":\"uint256\",\"name\":\"groupId\",\"type\":\"uint256\"},{\"internalType\":\"struct JBSplit[]\",\"name\":\"splits\",\"type\":\"tuple[]\",\"components\":[{\"internalType\":\"bool\",\"name\":\"preferAddToBalance\",\"type\":\"bool\"},{\"internalType\":\"uint256\",\"name\":\"percent\",\"type\":\"uint256\"},{\"internalType\":\"uint256\",\"name\":\"projectId\",\"type\":\"uint256\"},{\"internalType\":\"address payable\",\"name\":\"beneficiary\",\"type\":\"address\"},{\"internalType\":\"uint256\",\"name\":\"lockedUntil\",\"type\":\"uint256\"},{\"internalType\":\"contract IJBSplitHook\",\"name\":\"hook\",\"type\":\"address\"}]}]},{\"internalType\":\"struct JBFundAccessLimitGroup[]\",\"name\":\"fundAccessLimitGroups\",\"type\":\"tuple[]\",\"components\":[{\"internalType\":\"address\",\"name\":\"terminal\",\"type\":\"address\"},{\"internalType\":\"address\",\"name\":\"token\",\"type\":\"address\"},{\"internalType\":\"struct JBCurrencyAmount[]\",\"name\":\"payoutLimits\",\"type\":\"tuple[]\",\"components\":[{\"internalType\":\"uint256\",\"name\":\"amount\",\"type\":\"uint256\"},{\"internalType\":\"uint256\",\"name\":\"currency\",\"type\":\"uint256\"}]},{\"internalType\":\"struct JBCurrencyAmount[]\",\"name\":\"surplusAllowances\",\"type\":\"tuple[]\",\"components\":[{\"internalType\":\"uint256\",\"name\":\"amount\",\"type\":\"uint256\"},{\"internalType\":\"uint256\",\"name\":\"currency\",\"type\":\"uint256\"}]}]}],\"indexed\":false},{\"internalType\":\"bytes\",\"name\":\"encodedConfiguration\",\"type\":\"bytes\",\"indexed\":false},{\"internalType\":\"bool\",\"name\":\"isInProgress\",\"type\":\"bool\",\"indexed\":false},{\"internalType\":\"address\",\"name\":\"caller\",\"type\":\"address\",\"indexed\":false}],\"type\":\"event\",\"name\":\"DeployRevnet\",\"anonymous\":false},{\"inputs\":[{\"internalType\":\"uint256\",\"name\":\"revnetId\",\"type\":\"uint256\",\"indexed\":true},{\"internalType\":\"bytes32\",\"name\":\"salt\",\"type\":\"bytes32\",\"indexed\":true},{\"internalType\":\"bytes\",\"name\":\"encodedConfiguration\",\"type\":\"bytes\",\"indexed\":false},{\"internalType\":\"struct REVSuckerDeploymentConfig\",\"name\":\"suckerDeploymentConfiguration\",\"type\":\"tuple\",\"components\":[{\"internalType\":\"struct BPSuckerDeployerConfig[]\",\"name\":\"deployerConfigurations\",\"type\":\"tuple[]\",\"components\":[{\"internalType\":\"contract IBPSuckerDeployer\",\"name\":\"deployer\",\"type\":\"address\"},{\"internalType\":\"struct BPTokenMapping[]\",\"name\":\"mappings\",\"type\":\"tuple[]\",\"components\":[{\"internalType\":\"address\",\"name\":\"localToken\",\"type\":\"address\"},{\"internalType\":\"uint32\",\"name\":\"minGas\",\"type\":\"uint32\"},{\"internalType\":\"address\",\"name\":\"remoteToken\",\"type\":\"address\"},{\"internalType\":\"uint256\",\"name\":\"minBridgeAmount\",\"type\":\"uint256\"}]}]},{\"internalType\":\"bytes32\",\"name\":\"salt\",\"type\":\"bytes32\"}],\"indexed\":false},{\"internalType\":\"address\",\"name\":\"caller\",\"type\":\"address\",\"indexed\":false}],\"type\":\"event\",\"name\":\"DeploySuckers\",\"anonymous\":false},{\"inputs\":[{\"internalType\":\"uint256\",\"name\":\"revnetId\",\"type\":\"uint256\",\"indexed\":true},{\"internalType\":\"uint256\",\"name\":\"stageId\",\"type\":\"uint256\",\"indexed\":true},{\"internalType\":\"address\",\"name\":\"beneficiary\",\"type\":\"address\",\"indexed\":true},{\"internalType\":\"uint256\",\"name\":\"count\",\"type\":\"uint256\",\"indexed\":false},{\"internalType\":\"address\",\"name\":\"caller\",\"type\":\"address\",\"indexed\":false}],\"type\":\"event\",\"name\":\"Mint\",\"anonymous\":false},{\"inputs\":[{\"internalType\":\"uint256\",\"name\":\"revnetId\",\"type\":\"uint256\",\"indexed\":true},{\"internalType\":\"address\",\"name\":\"newSplitOperator\",\"type\":\"address\",\"indexed\":true},{\"internalType\":\"address\",\"name\":\"caller\",\"type\":\"address\",\"indexed\":false}],\"type\":\"event\",\"name\":\"ReplaceSplitOperator\",\"anonymous\":false},{\"inputs\":[{\"internalType\":\"uint256\",\"name\":\"revnetId\",\"type\":\"uint256\",\"indexed\":true},{\"internalType\":\"struct JBPayHookSpecification[]\",\"name\":\"payHookSpecifications\",\"type\":\"tuple[]\",\"components\":[{\"internalType\":\"contract IJBPayHook\",\"name\":\"hook\",\"type\":\"address\"},{\"internalType\":\"uint256\",\"name\":\"amount\",\"type\":\"uint256\"},{\"internalType\":\"bytes\",\"name\":\"metadata\",\"type\":\"bytes\"}],\"indexed\":false},{\"internalType\":\"address\",\"name\":\"caller\",\"type\":\"address\",\"indexed\":false}],\"type\":\"event\",\"name\":\"StoredPayHookSpecifications\",\"anonymous\":false},{\"inputs\":[],\"stateMutability\":\"view\",\"type\":\"function\",\"name\":\"CONTROLLER\",\"outputs\":[{\"internalType\":\"contract IJBController\",\"name\":\"\",\"type\":\"address\"}]},{\"inputs\":[],\"stateMutability\":\"view\",\"type\":\"function\",\"name\":\"EXIT_DELAY\",\"outputs\":[{\"internalType\":\"uint256\",\"name\":\"\",\"type\":\"uint256\"}]},{\"inputs\":[],\"stateMutability\":\"view\",\"type\":\"function\",\"name\":\"HOOK_DEPLOYER\",\"outputs\":[{\"internalType\":\"contract IJB721TiersHookDeployer\",\"name\":\"\",\"type\":\"address\"}]},{\"inputs\":[],\"stateMutability\":\"view\",\"type\":\"function\",\"name\":\"PUBLISHER\",\"outputs\":[{\"internalType\":\"contract CTPublisher\",\"name\":\"\",\"type\":\"address\"}]},{\"inputs\":[],\"stateMutability\":\"view\",\"type\":\"function\",\"name\":\"SUCKER_REGISTRY\",\"outputs\":[{\"internalType\":\"contract IBPSuckerRegistry\",\"name\":\"\",\"type\":\"address\"}]},{\"inputs\":[{\"internalType\":\"uint256\",\"name\":\"revnetId\",\"type\":\"uint256\"},{\"internalType\":\"uint256\",\"name\":\"stageId\",\"type\":\"uint256\"},{\"internalType\":\"address\",\"name\":\"beneficiary\",\"type\":\"address\"}],\"stateMutability\":\"view\",\"type\":\"function\",\"name\":\"allowedMintCountOf\",\"outputs\":[{\"internalType\":\"uint256\",\"name\":\"\",\"type\":\"uint256\"}]},{\"inputs\":[{\"internalType\":\"struct JBBeforePayRecordedContext\",\"name\":\"context\",\"type\":\"tuple\",\"components\":[{\"internalType\":\"address\",\"name\":\"terminal\",\"type\":\"address\"},{\"internalType\":\"address\",\"name\":\"payer\",\"type\":\"address\"},{\"internalType\":\"struct JBTokenAmount\",\"name\":\"amount\",\"type\":\"tuple\",\"components\":[{\"internalType\":\"address\",\"name\":\"token\",\"type\":\"address\"},{\"internalType\":\"uint256\",\"name\":\"value\",\"type\":\"uint256\"},{\"internalType\":\"uint256\",\"name\":\"decimals\",\"type\":\"uint256\"},{\"internalType\":\"uint256\",\"name\":\"currency\",\"type\":\"uint256\"}]},{\"internalType\":\"uint256\",\"name\":\"projectId\",\"type\":\"uint256\"},{\"internalType\":\"uint256\",\"name\":\"rulesetId\",\"type\":\"uint256\"},{\"internalType\":\"address\",\"name\":\"beneficiary\",\"type\":\"address\"},{\"internalType\":\"uint256\",\"name\":\"weight\",\"type\":\"uint256\"},{\"internalType\":\"uint256\",\"name\":\"reservedRate\",\"type\":\"uint256\"},{\"internalType\":\"bytes\",\"name\":\"metadata\",\"type\":\"bytes\"}]}],\"stateMutability\":\"view\",\"type\":\"function\",\"name\":\"beforePayRecordedWith\",\"outputs\":[{\"internalType\":\"uint256\",\"name\":\"weight\",\"type\":\"uint256\"},{\"internalType\":\"struct JBPayHookSpecification[]\",\"name\":\"hookSpecifications\",\"type\":\"tuple[]\",\"components\":[{\"internalType\":\"contract IJBPayHook\",\"name\":\"hook\",\"type\":\"address\"},{\"internalType\":\"uint256\",\"name\":\"amount\",\"type\":\"uint256\"},{\"internalType\":\"bytes\",\"name\":\"metadata\",\"type\":\"bytes\"}]}]},{\"inputs\":[{\"internalType\":\"struct JBBeforeRedeemRecordedContext\",\"name\":\"context\",\"type\":\"tuple\",\"components\":[{\"internalType\":\"address\",\"name\":\"terminal\",\"type\":\"address\"},{\"internalType\":\"address\",\"name\":\"holder\",\"type\":\"address\"},{\"internalType\":\"uint256\",\"name\":\"projectId\",\"type\":\"uint256\"},{\"internalType\":\"uint256\",\"name\":\"rulesetId\",\"type\":\"uint256\"},{\"internalType\":\"uint256\",\"name\":\"redeemCount\",\"type\":\"uint256\"},{\"internalType\":\"uint256\",\"name\":\"totalSupply\",\"type\":\"uint256\"},{\"internalType\":\"struct JBTokenAmount\",\"name\":\"surplus\",\"type\":\"tuple\",\"components\":[{\"internalType\":\"address\",\"name\":\"token\",\"type\":\"address\"},{\"internalType\":\"uint256\",\"name\":\"value\",\"type\":\"uint256\"},{\"internalType\":\"uint256\",\"name\":\"decimals\",\"type\":\"uint256\"},{\"internalType\":\"uint256\",\"name\":\"currency\",\"type\":\"uint256\"}]},{\"internalType\":\"bool\",\"name\":\"useTotalSurplus\",\"type\":\"bool\"},{\"internalType\":\"uint256\",\"name\":\"redemptionRate\",\"type\":\"uint256\"},{\"internalType\":\"bytes\",\"name\":\"metadata\",\"type\":\"bytes\"}]}],\"stateMutability\":\"view\",\"type\":\"function\",\"name\":\"beforeRedeemRecordedWith\",\"outputs\":[{\"internalType\":\"uint256\",\"name\":\"\",\"type\":\"uint256\"},{\"internalType\":\"uint256\",\"name\":\"\",\"type\":\"uint256\"},{\"internalType\":\"uint256\",\"name\":\"\",\"type\":\"uint256\"},{\"internalType\":\"struct JBRedeemHookSpecification[]\",\"name\":\"specifications\",\"type\":\"tuple[]\",\"components\":[{\"internalType\":\"contract IJBRedeemHook\",\"name\":\"hook\",\"type\":\"address\"},{\"internalType\":\"uint256\",\"name\":\"amount\",\"type\":\"uint256\"},{\"internalType\":\"bytes\",\"name\":\"metadata\",\"type\":\"bytes\"}]}]},{\"inputs\":[{\"internalType\":\"uint256\",\"name\":\"revnetId\",\"type\":\"uint256\"}],\"stateMutability\":\"view\",\"type\":\"function\",\"name\":\"buybackHookOf\",\"outputs\":[{\"internalType\":\"contract IJBRulesetDataHook\",\"name\":\"buybackHook\",\"type\":\"address\"}]},{\"inputs\":[{\"internalType\":\"uint256\",\"name\":\"revnetId\",\"type\":\"uint256\"},{\"internalType\":\"bytes\",\"name\":\"encodedConfiguration\",\"type\":\"bytes\"},{\"internalType\":\"struct REVSuckerDeploymentConfig\",\"name\":\"suckerDeploymentConfiguration\",\"type\":\"tuple\",\"components\":[{\"internalType\":\"struct BPSuckerDeployerConfig[]\",\"name\":\"deployerConfigurations\",\"type\":\"tuple[]\",\"components\":[{\"internalType\":\"contract IBPSuckerDeployer\",\"name\":\"deployer\",\"type\":\"address\"},{\"internalType\":\"struct BPTokenMapping[]\",\"name\":\"mappings\",\"type\":\"tuple[]\",\"components\":[{\"internalType\":\"address\",\"name\":\"localToken\",\"type\":\"address\"},{\"internalType\":\"uint32\",\"name\":\"minGas\",\"type\":\"uint32\"},{\"internalType\":\"address\",\"name\":\"remoteToken\",\"type\":\"address\"},{\"internalType\":\"uint256\",\"name\":\"minBridgeAmount\",\"type\":\"uint256\"}]}]},{\"internalType\":\"bytes32\",\"name\":\"salt\",\"type\":\"bytes32\"}]}],\"stateMutability\":\"nonpayable\",\"type\":\"function\",\"name\":\"deploySuckersFor\"},{\"inputs\":[{\"internalType\":\"uint256\",\"name\":\"revnetId\",\"type\":\"uint256\"}],\"stateMutability\":\"view\",\"type\":\"function\",\"name\":\"exitDelayOf\",\"outputs\":[{\"internalType\":\"uint256\",\"name\":\"exitDelay\",\"type\":\"uint256\"}]},{\"inputs\":[{\"internalType\":\"uint256\",\"name\":\"revnetId\",\"type\":\"uint256\"},{\"internalType\":\"address\",\"name\":\"addr\",\"type\":\"address\"}],\"stateMutability\":\"view\",\"type\":\"function\",\"name\":\"hasMintPermissionFor\",\"outputs\":[{\"internalType\":\"bool\",\"name\":\"\",\"type\":\"bool\"}]},{\"inputs\":[{\"internalType\":\"address\",\"name\":\"forwarder\",\"type\":\"address\"}],\"stateMutability\":\"view\",\"type\":\"function\",\"name\":\"isTrustedForwarder\",\"outputs\":[{\"internalType\":\"bool\",\"name\":\"\",\"type\":\"bool\"}]},{\"inputs\":[{\"internalType\":\"uint256\",\"name\":\"revnetId\",\"type\":\"uint256\"},{\"internalType\":\"struct REVConfig\",\"name\":\"configuration\",\"type\":\"tuple\",\"components\":[{\"internalType\":\"struct REVDescription\",\"name\":\"description\",\"type\":\"tuple\",\"components\":[{\"internalType\":\"string\",\"name\":\"name\",\"type\":\"string\"},{\"internalType\":\"string\",\"name\":\"ticker\",\"type\":\"string\"},{\"internalType\":\"string\",\"name\":\"uri\",\"type\":\"string\"},{\"internalType\":\"bytes32\",\"name\":\"salt\",\"type\":\"bytes32\"}]},{\"internalType\":\"uint32\",\"name\":\"baseCurrency\",\"type\":\"uint32\"},{\"internalType\":\"address\",\"name\":\"initialSplitOperator\",\"type\":\"address\"},{\"internalType\":\"struct REVStageConfig[]\",\"name\":\"stageConfigurations\",\"type\":\"tuple[]\",\"components\":[{\"internalType\":\"uint40\",\"name\":\"startsAtOrAfter\",\"type\":\"uint40\"},{\"internalType\":\"struct REVMintConfig[]\",\"name\":\"mintConfigs\",\"type\":\"tuple[]\",\"components\":[{\"internalType\":\"uint256\",\"name\":\"chainId\",\"type\":\"uint256\"},{\"internalType\":\"uint256\",\"name\":\"count\",\"type\":\"uint256\"},{\"internalType\":\"address\",\"name\":\"beneficiary\",\"type\":\"address\"}]},{\"internalType\":\"uint16\",\"name\":\"splitRate\",\"type\":\"uint16\"},{\"internalType\":\"uint112\",\"name\":\"initialIssuanceRate\",\"type\":\"uint112\"},{\"internalType\":\"uint40\",\"name\":\"priceCeilingIncreaseFrequency\",\"type\":\"uint40\"},{\"internalType\":\"uint32\",\"name\":\"priceCeilingIncreasePercentage\",\"type\":\"uint32\"},{\"internalType\":\"uint16\",\"name\":\"priceFloorTaxIntensity\",\"type\":\"uint16\"}]}]},{\"internalType\":\"struct JBTerminalConfig[]\",\"name\":\"terminalConfigurations\",\"type\":\"tuple[]\",\"components\":[{\"internalType\":\"contract IJBTerminal\",\"name\":\"terminal\",\"type\":\"address\"},{\"internalType\":\"address[]\",\"name\":\"tokensToAccept\",\"type\":\"address[]\"}]},{\"internalType\":\"struct REVBuybackHookConfig\",\"name\":\"buybackHookConfiguration\",\"type\":\"tuple\",\"components\":[{\"internalType\":\"contract IJBBuybackHook\",\"name\":\"hook\",\"type\":\"address\"},{\"internalType\":\"struct REVBuybackPoolConfig[]\",\"name\":\"poolConfigurations\",\"type\":\"tuple[]\",\"components\":[{\"internalType\":\"address\",\"name\":\"token\",\"type\":\"address\"},{\"internalType\":\"uint24\",\"name\":\"fee\",\"type\":\"uint24\"},{\"internalType\":\"uint32\",\"name\":\"twapWindow\",\"type\":\"uint32\"},{\"internalType\":\"uint32\",\"name\":\"twapSlippageTolerance\",\"type\":\"uint32\"}]}]},{\"internalType\":\"struct REVSuckerDeploymentConfig\",\"name\":\"suckerDeploymentConfiguration\",\"type\":\"tuple\",\"components\":[{\"internalType\":\"struct BPSuckerDeployerConfig[]\",\"name\":\"deployerConfigurations\",\"type\":\"tuple[]\",\"components\":[{\"internalType\":\"contract IBPSuckerDeployer\",\"name\":\"deployer\",\"type\":\"address\"},{\"internalType\":\"struct BPTokenMapping[]\",\"name\":\"mappings\",\"type\":\"tuple[]\",\"components\":[{\"internalType\":\"address\",\"name\":\"localToken\",\"type\":\"address\"},{\"internalType\":\"uint32\",\"name\":\"minGas\",\"type\":\"uint32\"},{\"internalType\":\"address\",\"name\":\"remoteToken\",\"type\":\"address\"},{\"internalType\":\"uint256\",\"name\":\"minBridgeAmount\",\"type\":\"uint256\"}]}]},{\"internalType\":\"bytes32\",\"name\":\"salt\",\"type\":\"bytes32\"}]},{\"internalType\":\"struct REVDeploy721TiersHookConfig\",\"name\":\"hookConfiguration\",\"type\":\"tuple\",\"components\":[{\"internalType\":\"struct JBDeploy721TiersHookConfig\",\"name\":\"baseline721HookConfiguration\",\"type\":\"tuple\",\"components\":[{\"internalType\":\"string\",\"name\":\"name\",\"type\":\"string\"},{\"internalType\":\"string\",\"name\":\"symbol\",\"type\":\"string\"},{\"internalType\":\"contract IJBRulesets\",\"name\":\"rulesets\",\"type\":\"address\"},{\"internalType\":\"string\",\"name\":\"baseUri\",\"type\":\"string\"},{\"internalType\":\"contract IJB721TokenUriResolver\",\"name\":\"tokenUriResolver\",\"type\":\"address\"},{\"internalType\":\"string\",\"name\":\"contractUri\",\"type\":\"string\"},{\"internalType\":\"struct JB721InitTiersConfig\",\"name\":\"tiersConfig\",\"type\":\"tuple\",\"components\":[{\"internalType\":\"struct JB721TierConfig[]\",\"name\":\"tiers\",\"type\":\"tuple[]\",\"components\":[{\"internalType\":\"uint104\",\"name\":\"price\",\"type\":\"uint104\"},{\"internalType\":\"uint32\",\"name\":\"initialSupply\",\"type\":\"uint32\"},{\"internalType\":\"uint32\",\"name\":\"votingUnits\",\"type\":\"uint32\"},{\"internalType\":\"uint16\",\"name\":\"reserveFrequency\",\"type\":\"uint16\"},{\"internalType\":\"address\",\"name\":\"reserveBeneficiary\",\"type\":\"address\"},{\"internalType\":\"bytes32\",\"name\":\"encodedIPFSUri\",\"type\":\"bytes32\"},{\"internalType\":\"uint24\",\"name\":\"category\",\"type\":\"uint24\"},{\"internalType\":\"bool\",\"name\":\"allowOwnerMint\",\"type\":\"bool\"},{\"internalType\":\"bool\",\"name\":\"useReserveBeneficiaryAsDefault\",\"type\":\"bool\"},{\"internalType\":\"bool\",\"name\":\"transfersPausable\",\"type\":\"bool\"},{\"internalType\":\"bool\",\"name\":\"useVotingUnits\",\"type\":\"bool\"},{\"internalType\":\"bool\",\"name\":\"cannotBeRemoved\",\"type\":\"bool\"}]},{\"internalType\":\"uint32\",\"name\":\"currency\",\"type\":\"uint32\"},{\"internalType\":\"uint8\",\"name\":\"decimals\",\"type\":\"uint8\"},{\"internalType\":\"contract IJBPrices\",\"name\":\"prices\",\"type\":\"address\"}]},{\"internalType\":\"address\",\"name\":\"reserveBeneficiary\",\"type\":\"address\"},{\"internalType\":\"struct JB721TiersHookFlags\",\"name\":\"flags\",\"type\":\"tuple\",\"components\":[{\"internalType\":\"bool\",\"name\":\"noNewTiersWithReserves\",\"type\":\"bool\"},{\"internalType\":\"bool\",\"name\":\"noNewTiersWithVotes\",\"type\":\"bool\"},{\"internalType\":\"bool\",\"name\":\"noNewTiersWithOwnerMinting\",\"type\":\"bool\"},{\"internalType\":\"bool\",\"name\":\"preventOverspending\",\"type\":\"bool\"}]}]},{\"internalType\":\"bool\",\"name\":\"operatorCanAdjustTiers\",\"type\":\"bool\"},{\"internalType\":\"bool\",\"name\":\"operatorCanUpdateMetadata\",\"type\":\"bool\"},{\"internalType\":\"bool\",\"name\":\"operatorCanMint\",\"type\":\"bool\"}]},{\"internalType\":\"struct JBPayHookSpecification[]\",\"name\":\"otherPayHooksSpecifications\",\"type\":\"tuple[]\",\"components\":[{\"internalType\":\"contract IJBPayHook\",\"name\":\"hook\",\"type\":\"address\"},{\"internalType\":\"uint256\",\"name\":\"amount\",\"type\":\"uint256\"},{\"internalType\":\"bytes\",\"name\":\"metadata\",\"type\":\"bytes\"}]},{\"internalType\":\"uint16\",\"name\":\"extraHookMetadata\",\"type\":\"uint16\"},{\"internalType\":\"struct REVCroptopAllowedPost[]\",\"name\":\"allowedPosts\",\"type\":\"tuple[]\",\"components\":[{\"internalType\":\"uint256\",\"name\":\"category\",\"type\":\"uint256\"},{\"internalType\":\"uint256\",\"name\":\"minimumPrice\",\"type\":\"uint256\"},{\"internalType\":\"uint256\",\"name\":\"minimumTotalSupply\",\"type\":\"uint256\"},{\"internalType\":\"uint256\",\"name\":\"maximumTotalSupply\",\"type\":\"uint256\"},{\"internalType\":\"address[]\",\"name\":\"allowedAddresses\",\"type\":\"address[]\"}]}],\"stateMutability\":\"nonpayable\",\"type\":\"function\",\"name\":\"launchCroptopRevnetFor\",\"outputs\":[{\"internalType\":\"uint256\",\"name\":\"\",\"type\":\"uint256\"},{\"internalType\":\"contract IJB721TiersHook\",\"name\":\"hook\",\"type\":\"address\"}]},{\"inputs\":[{\"internalType\":\"uint256\",\"name\":\"revnetId\",\"type\":\"uint256\"},{\"internalType\":\"struct REVConfig\",\"name\":\"configuration\",\"type\":\"tuple\",\"components\":[{\"internalType\":\"struct REVDescription\",\"name\":\"description\",\"type\":\"tuple\",\"components\":[{\"internalType\":\"string\",\"name\":\"name\",\"type\":\"string\"},{\"internalType\":\"string\",\"name\":\"ticker\",\"type\":\"string\"},{\"internalType\":\"string\",\"name\":\"uri\",\"type\":\"string\"},{\"internalType\":\"bytes32\",\"name\":\"salt\",\"type\":\"bytes32\"}]},{\"internalType\":\"uint32\",\"name\":\"baseCurrency\",\"type\":\"uint32\"},{\"internalType\":\"address\",\"name\":\"initialSplitOperator\",\"type\":\"address\"},{\"internalType\":\"struct REVStageConfig[]\",\"name\":\"stageConfigurations\",\"type\":\"tuple[]\",\"components\":[{\"internalType\":\"uint40\",\"name\":\"startsAtOrAfter\",\"type\":\"uint40\"},{\"internalType\":\"struct REVMintConfig[]\",\"name\":\"mintConfigs\",\"type\":\"tuple[]\",\"components\":[{\"internalType\":\"uint256\",\"name\":\"chainId\",\"type\":\"uint256\"},{\"internalType\":\"uint256\",\"name\":\"count\",\"type\":\"uint256\"},{\"internalType\":\"address\",\"name\":\"beneficiary\",\"type\":\"address\"}]},{\"internalType\":\"uint16\",\"name\":\"splitRate\",\"type\":\"uint16\"},{\"internalType\":\"uint112\",\"name\":\"initialIssuanceRate\",\"type\":\"uint112\"},{\"internalType\":\"uint40\",\"name\":\"priceCeilingIncreaseFrequency\",\"type\":\"uint40\"},{\"internalType\":\"uint32\",\"name\":\"priceCeilingIncreasePercentage\",\"type\":\"uint32\"},{\"internalType\":\"uint16\",\"name\":\"priceFloorTaxIntensity\",\"type\":\"uint16\"}]}]},{\"internalType\":\"struct JBTerminalConfig[]\",\"name\":\"terminalConfigurations\",\"type\":\"tuple[]\",\"components\":[{\"internalType\":\"contract IJBTerminal\",\"name\":\"terminal\",\"type\":\"address\"},{\"internalType\":\"address[]\",\"name\":\"tokensToAccept\",\"type\":\"address[]\"}]},{\"internalType\":\"struct REVBuybackHookConfig\",\"name\":\"buybackHookConfiguration\",\"type\":\"tuple\",\"components\":[{\"internalType\":\"contract IJBBuybackHook\",\"name\":\"hook\",\"type\":\"address\"},{\"internalType\":\"struct REVBuybackPoolConfig[]\",\"name\":\"poolConfigurations\",\"type\":\"tuple[]\",\"components\":[{\"internalType\":\"address\",\"name\":\"token\",\"type\":\"address\"},{\"internalType\":\"uint24\",\"name\":\"fee\",\"type\":\"uint24\"},{\"internalType\":\"uint32\",\"name\":\"twapWindow\",\"type\":\"uint32\"},{\"internalType\":\"uint32\",\"name\":\"twapSlippageTolerance\",\"type\":\"uint32\"}]}]},{\"internalType\":\"struct REVSuckerDeploymentConfig\",\"name\":\"suckerDeploymentConfiguration\",\"type\":\"tuple\",\"components\":[{\"internalType\":\"struct BPSuckerDeployerConfig[]\",\"name\":\"deployerConfigurations\",\"type\":\"tuple[]\",\"components\":[{\"internalType\":\"contract IBPSuckerDeployer\",\"name\":\"deployer\",\"type\":\"address\"},{\"internalType\":\"struct BPTokenMapping[]\",\"name\":\"mappings\",\"type\":\"tuple[]\",\"components\":[{\"internalType\":\"address\",\"name\":\"localToken\",\"type\":\"address\"},{\"internalType\":\"uint32\",\"name\":\"minGas\",\"type\":\"uint32\"},{\"internalType\":\"address\",\"name\":\"remoteToken\",\"type\":\"address\"},{\"internalType\":\"uint256\",\"name\":\"minBridgeAmount\",\"type\":\"uint256\"}]}]},{\"internalType\":\"bytes32\",\"name\":\"salt\",\"type\":\"bytes32\"}]},{\"internalType\":\"struct JBPayHookSpecification[]\",\"name\":\"payHookSpecifications\",\"type\":\"tuple[]\",\"components\":[{\"internalType\":\"contract IJBPayHook\",\"name\":\"hook\",\"type\":\"address\"},{\"internalType\":\"uint256\",\"name\":\"amount\",\"type\":\"uint256\"},{\"internalType\":\"bytes\",\"name\":\"metadata\",\"type\":\"bytes\"}]},{\"internalType\":\"uint16\",\"name\":\"extraHookMetadata\",\"type\":\"uint16\"}],\"stateMutability\":\"nonpayable\",\"type\":\"function\",\"name\":\"launchPayHookRevnetFor\",\"outputs\":[{\"internalType\":\"uint256\",\"name\":\"\",\"type\":\"uint256\"}]},{\"inputs\":[{\"internalType\":\"uint256\",\"name\":\"revnetId\",\"type\":\"uint256\"},{\"internalType\":\"struct REVConfig\",\"name\":\"configuration\",\"type\":\"tuple\",\"components\":[{\"internalType\":\"struct REVDescription\",\"name\":\"description\",\"type\":\"tuple\",\"components\":[{\"internalType\":\"string\",\"name\":\"name\",\"type\":\"string\"},{\"internalType\":\"string\",\"name\":\"ticker\",\"type\":\"string\"},{\"internalType\":\"string\",\"name\":\"uri\",\"type\":\"string\"},{\"internalType\":\"bytes32\",\"name\":\"salt\",\"type\":\"bytes32\"}]},{\"internalType\":\"uint32\",\"name\":\"baseCurrency\",\"type\":\"uint32\"},{\"internalType\":\"address\",\"name\":\"initialSplitOperator\",\"type\":\"address\"},{\"internalType\":\"struct REVStageConfig[]\",\"name\":\"stageConfigurations\",\"type\":\"tuple[]\",\"components\":[{\"internalType\":\"uint40\",\"name\":\"startsAtOrAfter\",\"type\":\"uint40\"},{\"internalType\":\"struct REVMintConfig[]\",\"name\":\"mintConfigs\",\"type\":\"tuple[]\",\"components\":[{\"internalType\":\"uint256\",\"name\":\"chainId\",\"type\":\"uint256\"},{\"internalType\":\"uint256\",\"name\":\"count\",\"type\":\"uint256\"},{\"internalType\":\"address\",\"name\":\"beneficiary\",\"type\":\"address\"}]},{\"internalType\":\"uint16\",\"name\":\"splitRate\",\"type\":\"uint16\"},{\"internalType\":\"uint112\",\"name\":\"initialIssuanceRate\",\"type\":\"uint112\"},{\"internalType\":\"uint40\",\"name\":\"priceCeilingIncreaseFrequency\",\"type\":\"uint40\"},{\"internalType\":\"uint32\",\"name\":\"priceCeilingIncreasePercentage\",\"type\":\"uint32\"},{\"internalType\":\"uint16\",\"name\":\"priceFloorTaxIntensity\",\"type\":\"uint16\"}]}]},{\"internalType\":\"struct JBTerminalConfig[]\",\"name\":\"terminalConfigurations\",\"type\":\"tuple[]\",\"components\":[{\"internalType\":\"contract IJBTerminal\",\"name\":\"terminal\",\"type\":\"address\"},{\"internalType\":\"address[]\",\"name\":\"tokensToAccept\",\"type\":\"address[]\"}]},{\"internalType\":\"struct REVBuybackHookConfig\",\"name\":\"buybackHookConfiguration\",\"type\":\"tuple\",\"components\":[{\"internalType\":\"contract IJBBuybackHook\",\"name\":\"hook\",\"type\":\"address\"},{\"internalType\":\"struct REVBuybackPoolConfig[]\",\"name\":\"poolConfigurations\",\"type\":\"tuple[]\",\"components\":[{\"internalType\":\"address\",\"name\":\"token\",\"type\":\"address\"},{\"internalType\":\"uint24\",\"name\":\"fee\",\"type\":\"uint24\"},{\"internalType\":\"uint32\",\"name\":\"twapWindow\",\"type\":\"uint32\"},{\"internalType\":\"uint32\",\"name\":\"twapSlippageTolerance\",\"type\":\"uint32\"}]}]},{\"internalType\":\"struct REVSuckerDeploymentConfig\",\"name\":\"suckerDeploymentConfiguration\",\"type\":\"tuple\",\"components\":[{\"internalType\":\"struct BPSuckerDeployerConfig[]\",\"name\":\"deployerConfigurations\",\"type\":\"tuple[]\",\"components\":[{\"internalType\":\"contract IBPSuckerDeployer\",\"name\":\"deployer\",\"type\":\"address\"},{\"internalType\":\"struct BPTokenMapping[]\",\"name\":\"mappings\",\"type\":\"tuple[]\",\"components\":[{\"internalType\":\"address\",\"name\":\"localToken\",\"type\":\"address\"},{\"internalType\":\"uint32\",\"name\":\"minGas\",\"type\":\"uint32\"},{\"internalType\":\"address\",\"name\":\"remoteToken\",\"type\":\"address\"},{\"internalType\":\"uint256\",\"name\":\"minBridgeAmount\",\"type\":\"uint256\"}]}]},{\"internalType\":\"bytes32\",\"name\":\"salt\",\"type\":\"bytes32\"}]}],\"stateMutability\":\"nonpayable\",\"type\":\"function\",\"name\":\"launchRevnetFor\",\"outputs\":[{\"internalType\":\"uint256\",\"name\":\"\",\"type\":\"uint256\"}]},{\"inputs\":[{\"internalType\":\"uint256\",\"name\":\"revnetId\",\"type\":\"uint256\"},{\"internalType\":\"struct REVConfig\",\"name\":\"configuration\",\"type\":\"tuple\",\"components\":[{\"internalType\":\"struct REVDescription\",\"name\":\"description\",\"type\":\"tuple\",\"components\":[{\"internalType\":\"string\",\"name\":\"name\",\"type\":\"string\"},{\"internalType\":\"string\",\"name\":\"ticker\",\"type\":\"string\"},{\"internalType\":\"string\",\"name\":\"uri\",\"type\":\"string\"},{\"internalType\":\"bytes32\",\"name\":\"salt\",\"type\":\"bytes32\"}]},{\"internalType\":\"uint32\",\"name\":\"baseCurrency\",\"type\":\"uint32\"},{\"internalType\":\"address\",\"name\":\"initialSplitOperator\",\"type\":\"address\"},{\"internalType\":\"struct REVStageConfig[]\",\"name\":\"stageConfigurations\",\"type\":\"tuple[]\",\"components\":[{\"internalType\":\"uint40\",\"name\":\"startsAtOrAfter\",\"type\":\"uint40\"},{\"internalType\":\"struct REVMintConfig[]\",\"name\":\"mintConfigs\",\"type\":\"tuple[]\",\"components\":[{\"internalType\":\"uint256\",\"name\":\"chainId\",\"type\":\"uint256\"},{\"internalType\":\"uint256\",\"name\":\"count\",\"type\":\"uint256\"},{\"internalType\":\"address\",\"name\":\"beneficiary\",\"type\":\"address\"}]},{\"internalType\":\"uint16\",\"name\":\"splitRate\",\"type\":\"uint16\"},{\"internalType\":\"uint112\",\"name\":\"initialIssuanceRate\",\"type\":\"uint112\"},{\"internalType\":\"uint40\",\"name\":\"priceCeilingIncreaseFrequency\",\"type\":\"uint40\"},{\"internalType\":\"uint32\",\"name\":\"priceCeilingIncreasePercentage\",\"type\":\"uint32\"},{\"internalType\":\"uint16\",\"name\":\"priceFloorTaxIntensity\",\"type\":\"uint16\"}]}]},{\"internalType\":\"struct JBTerminalConfig[]\",\"name\":\"terminalConfigurations\",\"type\":\"tuple[]\",\"components\":[{\"internalType\":\"contract IJBTerminal\",\"name\":\"terminal\",\"type\":\"address\"},{\"internalType\":\"address[]\",\"name\":\"tokensToAccept\",\"type\":\"address[]\"}]},{\"internalType\":\"struct REVBuybackHookConfig\",\"name\":\"buybackHookConfiguration\",\"type\":\"tuple\",\"components\":[{\"internalType\":\"contract IJBBuybackHook\",\"name\":\"hook\",\"type\":\"address\"},{\"internalType\":\"struct REVBuybackPoolConfig[]\",\"name\":\"poolConfigurations\",\"type\":\"tuple[]\",\"components\":[{\"internalType\":\"address\",\"name\":\"token\",\"type\":\"address\"},{\"internalType\":\"uint24\",\"name\":\"fee\",\"type\":\"uint24\"},{\"internalType\":\"uint32\",\"name\":\"twapWindow\",\"type\":\"uint32\"},{\"internalType\":\"uint32\",\"name\":\"twapSlippageTolerance\",\"type\":\"uint32\"}]}]},{\"internalType\":\"struct REVSuckerDeploymentConfig\",\"name\":\"suckerDeploymentConfiguration\",\"type\":\"tuple\",\"components\":[{\"internalType\":\"struct BPSuckerDeployerConfig[]\",\"name\":\"deployerConfigurations\",\"type\":\"tuple[]\",\"components\":[{\"internalType\":\"contract IBPSuckerDeployer\",\"name\":\"deployer\",\"type\":\"address\"},{\"internalType\":\"struct BPTokenMapping[]\",\"name\":\"mappings\",\"type\":\"tuple[]\",\"components\":[{\"internalType\":\"address\",\"name\":\"localToken\",\"type\":\"address\"},{\"internalType\":\"uint32\",\"name\":\"minGas\",\"type\":\"uint32\"},{\"internalType\":\"address\",\"name\":\"remoteToken\",\"type\":\"address\"},{\"internalType\":\"uint256\",\"name\":\"minBridgeAmount\",\"type\":\"uint256\"}]}]},{\"internalType\":\"bytes32\",\"name\":\"salt\",\"type\":\"bytes32\"}]},{\"internalType\":\"struct REVDeploy721TiersHookConfig\",\"name\":\"hookConfiguration\",\"type\":\"tuple\",\"components\":[{\"internalType\":\"struct JBDeploy721TiersHookConfig\",\"name\":\"baseline721HookConfiguration\",\"type\":\"tuple\",\"components\":[{\"internalType\":\"string\",\"name\":\"name\",\"type\":\"string\"},{\"internalType\":\"string\",\"name\":\"symbol\",\"type\":\"string\"},{\"internalType\":\"contract IJBRulesets\",\"name\":\"rulesets\",\"type\":\"address\"},{\"internalType\":\"string\",\"name\":\"baseUri\",\"type\":\"string\"},{\"internalType\":\"contract IJB721TokenUriResolver\",\"name\":\"tokenUriResolver\",\"type\":\"address\"},{\"internalType\":\"string\",\"name\":\"contractUri\",\"type\":\"string\"},{\"internalType\":\"struct JB721InitTiersConfig\",\"name\":\"tiersConfig\",\"type\":\"tuple\",\"components\":[{\"internalType\":\"struct JB721TierConfig[]\",\"name\":\"tiers\",\"type\":\"tuple[]\",\"components\":[{\"internalType\":\"uint104\",\"name\":\"price\",\"type\":\"uint104\"},{\"internalType\":\"uint32\",\"name\":\"initialSupply\",\"type\":\"uint32\"},{\"internalType\":\"uint32\",\"name\":\"votingUnits\",\"type\":\"uint32\"},{\"internalType\":\"uint16\",\"name\":\"reserveFrequency\",\"type\":\"uint16\"},{\"internalType\":\"address\",\"name\":\"reserveBeneficiary\",\"type\":\"address\"},{\"internalType\":\"bytes32\",\"name\":\"encodedIPFSUri\",\"type\":\"bytes32\"},{\"internalType\":\"uint24\",\"name\":\"category\",\"type\":\"uint24\"},{\"internalType\":\"bool\",\"name\":\"allowOwnerMint\",\"type\":\"bool\"},{\"internalType\":\"bool\",\"name\":\"useReserveBeneficiaryAsDefault\",\"type\":\"bool\"},{\"internalType\":\"bool\",\"name\":\"transfersPausable\",\"type\":\"bool\"},{\"internalType\":\"bool\",\"name\":\"useVotingUnits\",\"type\":\"bool\"},{\"internalType\":\"bool\",\"name\":\"cannotBeRemoved\",\"type\":\"bool\"}]},{\"internalType\":\"uint32\",\"name\":\"currency\",\"type\":\"uint32\"},{\"internalType\":\"uint8\",\"name\":\"decimals\",\"type\":\"uint8\"},{\"internalType\":\"contract IJBPrices\",\"name\":\"prices\",\"type\":\"address\"}]},{\"internalType\":\"address\",\"name\":\"reserveBeneficiary\",\"type\":\"address\"},{\"internalType\":\"struct JB721TiersHookFlags\",\"name\":\"flags\",\"type\":\"tuple\",\"components\":[{\"internalType\":\"bool\",\"name\":\"noNewTiersWithReserves\",\"type\":\"bool\"},{\"internalType\":\"bool\",\"name\":\"noNewTiersWithVotes\",\"type\":\"bool\"},{\"internalType\":\"bool\",\"name\":\"noNewTiersWithOwnerMinting\",\"type\":\"bool\"},{\"internalType\":\"bool\",\"name\":\"preventOverspending\",\"type\":\"bool\"}]}]},{\"internalType\":\"bool\",\"name\":\"operatorCanAdjustTiers\",\"type\":\"bool\"},{\"internalType\":\"bool\",\"name\":\"operatorCanUpdateMetadata\",\"type\":\"bool\"},{\"internalType\":\"bool\",\"name\":\"operatorCanMint\",\"type\":\"bool\"}]},{\"internalType\":\"struct JBPayHookSpecification[]\",\"name\":\"otherPayHooksSpecifications\",\"type\":\"tuple[]\",\"components\":[{\"internalType\":\"contract IJBPayHook\",\"name\":\"hook\",\"type\":\"address\"},{\"internalType\":\"uint256\",\"name\":\"amount\",\"type\":\"uint256\"},{\"internalType\":\"bytes\",\"name\":\"metadata\",\"type\":\"bytes\"}]},{\"internalType\":\"uint16\",\"name\":\"extraHookMetadata\",\"type\":\"uint16\"}],\"stateMutability\":\"nonpayable\",\"type\":\"function\",\"name\":\"launchTiered721RevnetFor\",\"outputs\":[{\"internalType\":\"uint256\",\"name\":\"\",\"type\":\"uint256\"},{\"internalType\":\"contract IJB721TiersHook\",\"name\":\"hook\",\"type\":\"address\"}]},{\"inputs\":[{\"internalType\":\"uint256\",\"name\":\"revnetId\",\"type\":\"uint256\"},{\"internalType\":\"address\",\"name\":\"beneficiary\",\"type\":\"address\"}],\"stateMutability\":\"nonpayable\",\"type\":\"function\",\"name\":\"mintFor\"},{\"inputs\":[{\"internalType\":\"address\",\"name\":\"operator\",\"type\":\"address\"},{\"internalType\":\"address\",\"name\":\"\",\"type\":\"address\"},{\"internalType\":\"uint256\",\"name\":\"tokenId\",\"type\":\"uint256\"},{\"internalType\":\"bytes\",\"name\":\"data\",\"type\":\"bytes\"}],\"stateMutability\":\"view\",\"type\":\"function\",\"name\":\"onERC721Received\",\"outputs\":[{\"internalType\":\"bytes4\",\"name\":\"\",\"type\":\"bytes4\"}]},{\"inputs\":[{\"internalType\":\"uint256\",\"name\":\"revnetId\",\"type\":\"uint256\"}],\"stateMutability\":\"view\",\"type\":\"function\",\"name\":\"payHookSpecificationsOf\",\"outputs\":[{\"internalType\":\"struct JBPayHookSpecification[]\",\"name\":\"\",\"type\":\"tuple[]\",\"components\":[{\"internalType\":\"contract IJBPayHook\",\"name\":\"hook\",\"type\":\"address\"},{\"internalType\":\"uint256\",\"name\":\"amount\",\"type\":\"uint256\"},{\"internalType\":\"bytes\",\"name\":\"metadata\",\"type\":\"bytes\"}]}]},{\"inputs\":[{\"internalType\":\"uint256\",\"name\":\"revnetId\",\"type\":\"uint256\"},{\"internalType\":\"address\",\"name\":\"newSplitOperator\",\"type\":\"address\"}],\"stateMutability\":\"nonpayable\",\"type\":\"function\",\"name\":\"replaceSplitOperatorOf\"},{\"inputs\":[{\"internalType\":\"bytes4\",\"name\":\"interfaceId\",\"type\":\"bytes4\"}],\"stateMutability\":\"view\",\"type\":\"function\",\"name\":\"supportsInterface\",\"outputs\":[{\"internalType\":\"bool\",\"name\":\"\",\"type\":\"bool\"}]},{\"inputs\":[],\"stateMutability\":\"view\",\"type\":\"function\",\"name\":\"trustedForwarder\",\"outputs\":[{\"internalType\":\"address\",\"name\":\"\",\"type\":\"address\"}]}],\"devdoc\":{\"kind\":\"dev\",\"methods\":{\"beforePayRecordedWith((address,address,(address,uint256,uint256,uint256),uint256,uint256,address,uint256,uint256,bytes))\":{\"details\":\"Part of IJBFundingCycleDataSource.This implementation just sets this contract up to receive a `didPay` call.\",\"params\":{\"context\":\"The Juicebox standard network payment context. See\"},\"returns\":{\"hookSpecifications\":\"Amount to be sent to pay hooks instead of adding to local balance. Useful for auto-routing funds from a treasury as payment come in.\",\"weight\":\"The weight that network tokens should get minted relative to. This is useful for optionally customizing how many tokens are issued per payment.\"}},\"constructor\":{\"params\":{\"controller\":\"The controller that revnets are made from.\",\"hookDeployer\":\"The 721 tiers hook deployer.\",\"publisher\":\"The croptop publisher that facilitates the permissioned publishing of 721 posts to a revnet.\",\"suckerRegistry\":\"The registry that deploys and tracks each project's suckers.\",\"trustedForwarder\":\"The trusted forwarder for the ERC2771Context.\"}},\"deploySuckersFor(uint256,bytes,((address,(address,uint32,address,uint256)[])[],bytes32))\":{\"params\":{\"encodedConfiguration\":\"A bytes representation of the revnet's configuration.\",\"revnetId\":\"The ID of the revnet having new suckers deployed.\",\"suckerDeploymentConfiguration\":\"The specifics about the suckers being deployed.\"}},\"hasMintPermissionFor(uint256,address)\":{\"params\":{\"addr\":\"The address to check if has permissions.\",\"revnetId\":\"The ID of the revnet to check permissions for.\"},\"returns\":{\"_0\":\"flag The flag indicating if the address has permissions to mint on the revnet's behalf.\"}},\"isTrustedForwarder(address)\":{\"details\":\"Indicates whether any particular address is the trusted forwarder.\"},\"launchCroptopRevnetFor(uint256,((string,string,string,bytes32),uint32,address,(uint40,(uint256,uint256,address)[],uint16,uint112,uint40,uint32,uint16)[]),(address,address[])[],(address,(address,uint24,uint32,uint32)[]),((address,(address,uint32,address,uint256)[])[],bytes32),((string,string,address,string,address,string,((uint104,uint32,uint32,uint16,address,bytes32,uint24,bool,bool,bool,bool,bool)[],uint32,uint8,address),address,(bool,bool,bool,bool)),bool,bool,bool),(address,uint256,bytes)[],uint16,(uint256,uint256,uint256,uint256,address[])[])\":{\"params\":{\"allowedPosts\":\"The type of posts that the revent should allow.\",\"buybackHookConfiguration\":\"Data used for setting up the buyback hook to use when determining the best price for new participants.\",\"configuration\":\"The data needed to deploy a basic revnet.\",\"extraHookMetadata\":\"Extra metadata to attach to the cycle for the delegates to use.\",\"hookConfiguration\":\"Data used for setting up the 721 tiers.\",\"otherPayHooksSpecifications\":\"Any hooks that should run when the revnet is paid alongside the 721 hook.\",\"revnetId\":\"The ID of the Juicebox project to turn into a revnet. Send 0 to deploy a new revnet.\",\"suckerDeploymentConfiguration\":\"Information about how this revnet relates to other's across chains.\",\"terminalConfigurations\":\"The terminals that the network uses to accept payments through.\"},\"returns\":{\"_0\":\"revnetId The ID of the newly created revnet.\",\"hook\":\"The address of the 721 hook that was deployed on the revnet.\"}},\"launchPayHookRevnetFor(uint256,((string,string,string,bytes32),uint32,address,(uint40,(uint256,uint256,address)[],uint16,uint112,uint40,uint32,uint16)[]),(address,address[])[],(address,(address,uint24,uint32,uint32)[]),((address,(address,uint32,address,uint256)[])[],bytes32),(address,uint256,bytes)[],uint16)\":{\"params\":{\"buybackHookConfiguration\":\"Data used for setting up the buyback hook to use when determining the best price for new participants.\",\"configuration\":\"The data needed to deploy a basic revnet.\",\"extraHookMetadata\":\"Extra metadata to attach to the cycle for the delegates to use.\",\"payHookSpecifications\":\"Any hooks that should run when the revnet is paid.\",\"revnetId\":\"The ID of the Juicebox project to turn into a revnet. Send 0 to deploy a new revnet.\",\"suckerDeploymentConfiguration\":\"Information about how this revnet relates to other's across chains.\",\"terminalConfigurations\":\"The terminals that the network uses to accept payments through.\"},\"returns\":{\"_0\":\"revnetId The ID of the newly created revnet.\"}},\"launchRevnetFor(uint256,((string,string,string,bytes32),uint32,address,(uint40,(uint256,uint256,address)[],uint16,uint112,uint40,uint32,uint16)[]),(address,address[])[],(address,(address,uint24,uint32,uint32)[]),((address,(address,uint32,address,uint256)[])[],bytes32))\":{\"params\":{\"buybackHookConfiguration\":\"Data used for setting up the buyback hook to use when determining the best price for new participants.\",\"configuration\":\"The data needed to deploy a basic revnet.\",\"revnetId\":\"The ID of the Juicebox project to turn into a revnet. Send 0 to deploy a new revnet.\",\"suckerDeploymentConfiguration\":\"Information about how this revnet relates to other's across chains.\",\"terminalConfigurations\":\"The terminals that the network uses to accept payments through.\"},\"returns\":{\"_0\":\"revnetId The ID of the newly created revnet.\"}},\"launchTiered721RevnetFor(uint256,((string,string,string,bytes32),uint32,address,(uint40,(uint256,uint256,address)[],uint16,uint112,uint40,uint32,uint16)[]),(address,address[])[],(address,(address,uint24,uint32,uint32)[]),((address,(address,uint32,address,uint256)[])[],bytes32),((string,string,address,string,address,string,((uint104,uint32,uint32,uint16,address,bytes32,uint24,bool,bool,bool,bool,bool)[],uint32,uint8,address),address,(bool,bool,bool,bool)),bool,bool,bool),(address,uint256,bytes)[],uint16)\":{\"params\":{\"buybackHookConfiguration\":\"Data used for setting up the buyback hook to use when determining the best price for new participants.\",\"configuration\":\"The data needed to deploy a basic revnet.\",\"extraHookMetadata\":\"Extra metadata to attach to the cycle for the delegates to use.\",\"hookConfiguration\":\"Data used for setting up the 721 tiers.\",\"otherPayHooksSpecifications\":\"Any hooks that should run when the revnet is paid alongside the 721 hook.\",\"revnetId\":\"The ID of the Juicebox project to turn into a revnet. Send 0 to deploy a new revnet.\",\"suckerDeploymentConfiguration\":\"Information about how this revnet relates to other's across chains.\",\"terminalConfigurations\":\"The terminals that the network uses to accept payments through.\"},\"returns\":{\"_0\":\"revnetId The ID of the newly created revnet.\",\"hook\":\"The address of the 721 hook that was deployed on the revnet.\"}},\"mintFor(uint256,address)\":{\"params\":{\"beneficiary\":\"The address to mint tokens to.\",\"revnetId\":\"The ID of the revnet to mint tokens from.\"}},\"onERC721Received(address,address,uint256,bytes)\":{\"details\":\"Make sure only mints can be received.\"},\"payHookSpecificationsOf(uint256)\":{\"params\":{\"revnetId\":\"The ID of the revnet to which the extensions apply.\"},\"returns\":{\"_0\":\"payHookSpecifications The pay hooks.\"}},\"replaceSplitOperatorOf(uint256,address)\":{\"params\":{\"newSplitOperator\":\"The address of the new split operator.\",\"revnetId\":\"The ID of the revnet having its operator replaced.\"}},\"supportsInterface(bytes4)\":{\"details\":\"See {IERC165-supportsInterface}.\",\"params\":{\"interfaceId\":\"The ID of the interface to check for adherence to.\"},\"returns\":{\"_0\":\"A flag indicating if the provided interface ID is supported.\"}},\"trustedForwarder()\":{\"details\":\"Returns the address of the trusted forwarder.\"}},\"version\":1},\"userdoc\":{\"kind\":\"user\",\"methods\":{\"CONTROLLER()\":{\"notice\":\"The controller that networks are made from.\"},\"EXIT_DELAY()\":{\"notice\":\"The amount of time from a sucker being deployed to when it can facilitate exits.\"},\"HOOK_DEPLOYER()\":{\"notice\":\"The contract responsible for deploying the tiered 721 hook.\"},\"PUBLISHER()\":{\"notice\":\"The croptop publisher that facilitates the permissioned publishing of 721 posts to a revnet.\"},\"SUCKER_REGISTRY()\":{\"notice\":\"The registry that deploys and tracks each project's suckers.\"},\"allowedMintCountOf(uint256,uint256,address)\":{\"notice\":\"The specification of how many tokens are still allowed to be minted at each stage of a revnet.\"},\"beforePayRecordedWith((address,address,(address,uint256,uint256,uint256),uint256,uint256,address,uint256,uint256,bytes))\":{\"notice\":\"This function gets called when the revnet receives a payment.\"},\"beforeRedeemRecordedWith((address,address,uint256,uint256,uint256,uint256,(address,uint256,uint256,uint256),bool,uint256,bytes))\":{\"notice\":\"This function is never called, it needs to be included to adhere to the interface.\"},\"buybackHookOf(uint256)\":{\"notice\":\"The data hook that returns the correct values for the buyback hook of each network.\"},\"deploySuckersFor(uint256,bytes,((address,(address,uint32,address,uint256)[])[],bytes32))\":{\"notice\":\"Allows a revnet's split operator to deploy new suckers to the revnet after it's deployed.\"},\"exitDelayOf(uint256)\":{\"notice\":\"The time at which exits from a revnet become allowed.\"},\"hasMintPermissionFor(uint256,address)\":{\"notice\":\"Required by the IJBRulesetDataHook interfaces.\"},\"launchCroptopRevnetFor(uint256,((string,string,string,bytes32),uint32,address,(uint40,(uint256,uint256,address)[],uint16,uint112,uint40,uint32,uint16)[]),(address,address[])[],(address,(address,uint24,uint32,uint32)[]),((address,(address,uint32,address,uint256)[])[],bytes32),((string,string,address,string,address,string,((uint104,uint32,uint32,uint16,address,bytes32,uint24,bool,bool,bool,bool,bool)[],uint32,uint8,address),address,(bool,bool,bool,bool)),bool,bool,bool),(address,uint256,bytes)[],uint16,(uint256,uint256,uint256,uint256,address[])[])\":{\"notice\":\"Launch a revnet that supports 721 sales.\"},\"launchPayHookRevnetFor(uint256,((string,string,string,bytes32),uint32,address,(uint40,(uint256,uint256,address)[],uint16,uint112,uint40,uint32,uint16)[]),(address,address[])[],(address,(address,uint24,uint32,uint32)[]),((address,(address,uint32,address,uint256)[])[],bytes32),(address,uint256,bytes)[],uint16)\":{\"notice\":\"Launch a basic revnet that also calls other specified pay hooks.\"},\"launchRevnetFor(uint256,((string,string,string,bytes32),uint32,address,(uint40,(uint256,uint256,address)[],uint16,uint112,uint40,uint32,uint16)[]),(address,address[])[],(address,(address,uint24,uint32,uint32)[]),((address,(address,uint32,address,uint256)[])[],bytes32))\":{\"notice\":\"Launch a basic revnet.\"},\"launchTiered721RevnetFor(uint256,((string,string,string,bytes32),uint32,address,(uint40,(uint256,uint256,address)[],uint16,uint112,uint40,uint32,uint16)[]),(address,address[])[],(address,(address,uint24,uint32,uint32)[]),((address,(address,uint32,address,uint256)[])[],bytes32),((string,string,address,string,address,string,((uint104,uint32,uint32,uint16,address,bytes32,uint24,bool,bool,bool,bool,bool)[],uint32,uint8,address),address,(bool,bool,bool,bool)),bool,bool,bool),(address,uint256,bytes)[],uint16)\":{\"notice\":\"Launch a revnet that supports 721 sales.\"},\"mintFor(uint256,address)\":{\"notice\":\"Mint tokens from a revnet to a specified beneficiary according to the rules set for the revnet.\"},\"payHookSpecificationsOf(uint256)\":{\"notice\":\"The pay hooks to include during payments to networks.\"},\"replaceSplitOperatorOf(uint256,address)\":{\"notice\":\"A revnet's operator can replace itself.\"},\"supportsInterface(bytes4)\":{\"notice\":\"Indicates if this contract adheres to the specified interface.\"}},\"version\":1}},\"settings\":{\"remappings\":[\"@arbitrum/=node_modules/@arbitrum/\",\"@bananapus/=node_modules/@bananapus/\",\"@chainlink/=node_modules/@chainlink/\",\"@croptop/=node_modules/@croptop/\",\"@eth-optimism/=node_modules/@eth-optimism/\",\"@exhausted-pigeon/=node_modules/@exhausted-pigeon/\",\"@offchainlabs/=node_modules/@offchainlabs/\",\"@openzeppelin/=node_modules/@openzeppelin/\",\"@prb/=node_modules/@prb/\",\"@scroll-tech/=node_modules/@scroll-tech/\",\"@sphinx-labs/contracts/=node_modules/@sphinx-labs/contracts/contracts/foundry/\",\"@uniswap/=node_modules/@uniswap/\",\"base64-sol/=node_modules/base64-sol/\",\"ds-test/=lib/forge-std/lib/ds-test/src/\",\"forge-std/=lib/forge-std/src/\",\"hardhat/=node_modules/hardhat/\",\"solmate/=node_modules/solmate/\",\"sphinx/=lib/sphinx/packages/contracts/contracts/forge-std/src/\"],\"optimizer\":{\"enabled\":true,\"runs\":1000},\"metadata\":{\"bytecodeHash\":\"ipfs\"},\"compilationTarget\":{\"src/REVCroptopDeployer.sol\":\"REVCroptopDeployer\"},\"evmVersion\":\"paris\",\"libraries\":{}},\"sources\":{\"node_modules/@bananapus/721-hook/src/interfaces/IJB721Hook.sol\":{\"keccak256\":\"0x24935445bc4c5b0fe2a10aabe549122588940842a68e79a8c39b1df9458dd7fd\",\"urls\":[\"bzz-raw://1dee273fa76d9abae116de911fdda5e3113db2a58939e62e24fba98c63fd037a\",\"dweb:/ipfs/QmT6Lih7DeRAfrLc8uC7ecaw2EAKwhaP2BZHeY5DxeeVLM\"],\"license\":\"MIT\"},\"node_modules/@bananapus/721-hook/src/interfaces/IJB721TiersHook.sol\":{\"keccak256\":\"0xbd9a8dae00a4b1a02c628bd172fe4ae496e49f7651426cef08774ffdb6125c23\",\"urls\":[\"bzz-raw://9ce4fd77d5af1f570dad6b70758f09f9599768e1ab32f6b473f6181197daa0c8\",\"dweb:/ipfs/QmWj6sCTvZ2CbfSyRuhaXADxYbwwPcR42pZokcgfjpsabg\"],\"license\":\"MIT\"},\"node_modules/@bananapus/721-hook/src/interfaces/IJB721TiersHookDeployer.sol\":{\"keccak256\":\"0xc4c6dfd2573fe1f130bc5193da68a622959a11562010fa261ffd3a8893e08a7b\",\"urls\":[\"bzz-raw://0c34f79121f6c777bca3df6c2e87c0caa05146bec45e9ae29f41b0532d16c88e\",\"dweb:/ipfs/QmZJQVZC8uuuSssXtLnhsvisz7V2PCKs2s1Hbzo8hmZ9ZP\"],\"license\":\"MIT\"},\"node_modules/@bananapus/721-hook/src/interfaces/IJB721TiersHookStore.sol\":{\"keccak256\":\"0x8550e216c12c9cda865c1b1b0eb3f244aeaa8d465b197d4bd0dd8d4df265682e\",\"urls\":[\"bzz-raw://674a312f1eaffd7c6b21f58f8d4a628104e71220daf48a22237fa3bd035ddf21\",\"dweb:/ipfs/QmSRSW6cSwdpoGjVxDqiwJmJyCxfHWhCxZ2iaqeJcN2Ccy\"],\"license\":\"MIT\"},\"node_modules/@bananapus/721-hook/src/interfaces/IJB721TokenUriResolver.sol\":{\"keccak256\":\"0xfa599167098f4459320ec4141a98a17b2dfffbce422baa27d8b4e4530f61ece1\",\"urls\":[\"bzz-raw://8b758b161f4c7b520b2c34b4d91e585e961b8f4ca278eebb91d791f7f2f45140\",\"dweb:/ipfs/QmcD9DF7NJ9QykQpT4KPzm4bs3fkjzukdAUWwdU6Atfw85\"],\"license\":\"MIT\"},\"node_modules/@bananapus/721-hook/src/structs/JB721InitTiersConfig.sol\":{\"keccak256\":\"0xfb78486cec94189d0ecf2050dc9cfc11245b426c73a0711a85bff1359d774307\",\"urls\":[\"bzz-raw://a8fa01f6e64dd204dbde07a60851e9a5a74e439e1411139ae16b7cf67d2a2692\",\"dweb:/ipfs/QmZAnHyfpKr3xr7NWHj5sGaCEEtG8RtmHhkRUJJvNauym5\"],\"license\":\"MIT\"},\"node_modules/@bananapus/721-hook/src/structs/JB721Tier.sol\":{\"keccak256\":\"0x2e267a8af02f125465cdda9308477346ae4a94b024c3b2c2a6af0c00027944dd\",\"urls\":[\"bzz-raw://367ccea2c8fa815d498d771d4367ef1ded718a76e89644102034bfe4a3636b82\",\"dweb:/ipfs/QmYiFFa6ei9wZBSSVUHfY2Cb35zCDVXvbmLcgLj2BTiC1u\"],\"license\":\"MIT\"},\"node_modules/@bananapus/721-hook/src/structs/JB721TierConfig.sol\":{\"keccak256\":\"0x2fa9c5c8cec182b854a656d3b284e9d5306be35ad3dc4da79d65dca12b804af0\",\"urls\":[\"bzz-raw://b443a5f70195a66145ea1dade04454ce9a3ff1209e1aaecf53c8a9909b294d79\",\"dweb:/ipfs/QmUDPFZ4L6XpV3zLQUNVchUvecD4XfddKz2S46BKek5XL1\"],\"license\":\"MIT\"},\"node_modules/@bananapus/721-hook/src/structs/JB721TiersHookFlags.sol\":{\"keccak256\":\"0x283d8429f31bd58875c056515aa42abd09c95362bd929e85cfc44a0d92585766\",\"urls\":[\"bzz-raw://9a580b89fe99d9f8e930c58a4d0d63a5ff7c01c79d210af01373d066c9e72ed6\",\"dweb:/ipfs/QmdY1eSGSoTjv4KSdsG4Tm5CzJN6iqk3qTRga5ZWNbejRz\"],\"license\":\"MIT\"},\"node_modules/@bananapus/721-hook/src/structs/JB721TiersMintReservesConfig.sol\":{\"keccak256\":\"0xab3b319dc4e736586ae595de194d93dcdfeba365bc7a54cf6c37e697f6074ad9\",\"urls\":[\"bzz-raw://a84ae2cf2e8c3e39e831dbb39a67a8eb43c78a6de6bb78b1be2e1f1e80c69efe\",\"dweb:/ipfs/QmboGXEMqsYTxc4a7oft9rggNU7ShWSa9yB4HFMVmzXCHz\"],\"license\":\"MIT\"},\"node_modules/@bananapus/721-hook/src/structs/JBDeploy721TiersHookConfig.sol\":{\"keccak256\":\"0x4f0b8bbc19a405a096a16977fa1eedc0c56640ef777add89c050f989a62a6a35\",\"urls\":[\"bzz-raw://bd009c66aa748a2ce04720a6376683ce01ced3c0bd7f9534e145263aa49d95d3\",\"dweb:/ipfs/QmXyJCS1uQevdkw1Gc4UrRs8fZKtW9wPWFY9pxUWHKLo4e\"],\"license\":\"MIT\"},\"node_modules/@bananapus/buyback-hook/src/interfaces/IJBBuybackHook.sol\":{\"keccak256\":\"0xbe5d7f3bf2e18b569676ba9194e248e6b1ed50022f5247b4f1fa124c91bfd418\",\"urls\":[\"bzz-raw://eb221d1570e8aad409c419b6a2f84351e818c3527f3f44b806cd64c84d7a8c86\",\"dweb:/ipfs/QmUPZstaKjPN7VTywg3Mt6bF75E53mQbmXhf3TxCggJbRR\"],\"license\":\"MIT\"},\"node_modules/@bananapus/buyback-hook/src/interfaces/external/IWETH9.sol\":{\"keccak256\":\"0x50083bcaca6c1a8d12c79116fab4f6d8cd452a510cb3f00c4a8bc3a54678efb7\",\"urls\":[\"bzz-raw://726f187112d0953c14bff8099a8c9ce1ead47eb25e90839f77b100feaaf16127\",\"dweb:/ipfs/QmTEnMENpLjcTQLMwz4kEUiQHfiTkaZT3TL37nQ8JiRYh5\"],\"license\":\"GPL-2.0-or-later\"},\"node_modules/@bananapus/core/src/abstract/JBPermissioned.sol\":{\"keccak256\":\"0xe08c8a7eeac9d1c7c2e0db6d5b98d1af09889300835a3d47d9f29319fecce703\",\"urls\":[\"bzz-raw://42645cf52bcc45053ef650790916faed5d0a74cecef336b217433fdd2c5c4166\",\"dweb:/ipfs/QmdMmxG1tSGucQwz4LYbVnuj7HU23YvqLH6xfrNWv5Bmus\"],\"license\":\"MIT\"},\"node_modules/@bananapus/core/src/enums/JBApprovalStatus.sol\":{\"keccak256\":\"0x61c69b6bac7d24b566d87cda23a77e4ca9cdb87200b106aba8534cb9a0973e33\",\"urls\":[\"bzz-raw://6a9ca7249de76f77a8252eefe6bd1b63d47952f25a2acfa2c8db967cdff4470c\",\"dweb:/ipfs/QmaxSxptRQNj8bNy96EreENmrnRWdKmhyihBcxyWzBX5BN\"],\"license\":\"MIT\"},\"node_modules/@bananapus/core/src/interfaces/IJBController.sol\":{\"keccak256\":\"0xe0b84058192f89e461c4b604388aa11a2f92f0f9969fb70fb3c18706d6f3e16b\",\"urls\":[\"bzz-raw://984fdcff63a17ccab65ff7723a628967e40965fcb4d47909cf8e314e8f044576\",\"dweb:/ipfs/QmaaHZWuaaH3oYxCDrip1rr4u4H1XtR3RcwwKAE73GAqkd\"],\"license\":\"MIT\"},\"node_modules/@bananapus/core/src/interfaces/IJBDirectory.sol\":{\"keccak256\":\"0x9cc380844aef60078ee47a61861e55a29c4a8c947efd556ebd36e6909f7b9d62\",\"urls\":[\"bzz-raw://9f5190ec8b6683d9781ee6e9eedcc91294753242748875d4a06349077e4cbaaf\",\"dweb:/ipfs/QmTQrPuXT9TCA4txwrperMeXSGvGxP8iokUK47f62F388i\"],\"license\":\"MIT\"},\"node_modules/@bananapus/core/src/interfaces/IJBDirectoryAccessControl.sol\":{\"keccak256\":\"0x1e67f56849320a46f834aaa9bd62b170ff8ada7b224b4a81136193740fa0be4d\",\"urls\":[\"bzz-raw://ea8fbcec44abfe49d137bcae129b67e5479d6b17879301f88534c8a7fab00be4\",\"dweb:/ipfs/QmT6wrtYX4GRpffHUzupNwYebJ1dqkkKZLEewWsoyunsqw\"],\"license\":\"MIT\"},\"node_modules/@bananapus/core/src/interfaces/IJBFundAccessLimits.sol\":{\"keccak256\":\"0xf5fd6bdd723b60d490ccbe22cdf1cfe43663d23e6ee48badcd1b71e3282cb16b\",\"urls\":[\"bzz-raw://fe692f0b843ea5fccdfcb68f4ec16e1c0add945bb74b303c9866342be0e31fbf\",\"dweb:/ipfs/QmSRmzpgp3DhNEhNDiLsSu7yEiTeywbzEFbwyGyDazjgKt\"],\"license\":\"MIT\"},\"node_modules/@bananapus/core/src/interfaces/IJBMigratable.sol\":{\"keccak256\":\"0xd69bd5aba01a68d82c303ef3adde47532abcace030a94296c3ea6988b401789c\",\"urls\":[\"bzz-raw://88f11a1c89899327746beba4fc830abf3ac2eb9c152c778e884a6eed6564971f\",\"dweb:/ipfs/QmTpKhSTVewpz7VyKcz6BJwH2LFKMwT7Qi5HNWmjEjwsdK\"],\"license\":\"MIT\"},\"node_modules/@bananapus/core/src/interfaces/IJBPayHook.sol\":{\"keccak256\":\"0x9438866782c652c2942f4d114e35f393cd3c8b0334abce8387eed90bca35e8b2\",\"urls\":[\"bzz-raw://cfd99daf57213f92325aad7d7d16e98476d38e870470e95ba01e3ae3cdecc95d\",\"dweb:/ipfs/QmUKKAVGf7ki8BHksr99tFcRW8APveeB5tNH63ctTbbCW8\"],\"license\":\"MIT\"},\"node_modules/@bananapus/core/src/interfaces/IJBPermissioned.sol\":{\"keccak256\":\"0x5b038d4dee116584e88b230920e56d48e135053e3f7e5642eaea14a775c1dad7\",\"urls\":[\"bzz-raw://19e43102f349fd4a1da1c0943ffb8f2950007fe4bb4bb7e8f74fc142575d091b\",\"dweb:/ipfs/QmXHAt4KzDTdDZgDDefEXH2WKi7NcfkJb9R7nxW5uDqsNp\"],\"license\":\"MIT\"},\"node_modules/@bananapus/core/src/interfaces/IJBPermissions.sol\":{\"keccak256\":\"0x18870e500edf0fbadc353e273a5574701fb80466376b908c65e7cc3f11044d4d\",\"urls\":[\"bzz-raw://352a47c45853aec80e7acf0d286ade3106eb4cb456776b28a3c2f3f1091bed90\",\"dweb:/ipfs/QmQeYd3YbudYZy2hfbfht9kwhxhw4tuuLKMEYy9UY6dcSy\"],\"license\":\"MIT\"},\"node_modules/@bananapus/core/src/interfaces/IJBPriceFeed.sol\":{\"keccak256\":\"0x4bd84c0f1a5d4729ed709bcddd43f4c50ec4a165ece79780af8dce482ed07d4a\",\"urls\":[\"bzz-raw://62bac4bfb6982fb002f620c77e5c445e62d50241a5aa64a07e51d929f5a42180\",\"dweb:/ipfs/QmWgJUDreVY2BuMX38a1iUUR5kNbMwGnKG3VvurB7oZtuM\"],\"license\":\"MIT\"},\"node_modules/@bananapus/core/src/interfaces/IJBPrices.sol\":{\"keccak256\":\"0x99525f31440b955742dce84ba57de9fc1221139b5367c1f834723bef9e13e6e1\",\"urls\":[\"bzz-raw://6fa03f0cd4ad87dd7cbae7bf7f54463450874291773c8f70f2c31ef2cae62bb0\",\"dweb:/ipfs/QmSPajPV5ismteJuB6Spzm9VmhTj2iS3eVrfpJC1Zuzg8n\"],\"license\":\"MIT\"},\"node_modules/@bananapus/core/src/interfaces/IJBProjectUriRegistry.sol\":{\"keccak256\":\"0x2799475228987e4f8334ac33d3935f759c9b8133db7383b4f622dde7a5dc0502\",\"urls\":[\"bzz-raw://d751731740f45df74eea48c9667e847ee2cddb2980ab4939c86bd17e6c6ed89b\",\"dweb:/ipfs/QmXW8SLTuhdUpfn7pRpdsYdcyuim8RTyagU37ULcj5UZhT\"],\"license\":\"MIT\"},\"node_modules/@bananapus/core/src/interfaces/IJBProjects.sol\":{\"keccak256\":\"0x735c2fb8f1fa827f054ee77f7a0ae4b312656217acb75b624d2c8fd9dc40151b\",\"urls\":[\"bzz-raw://ee7fc92299a8633a80693ae63ab494dcd125f1789487a54a39dc0e5696e5996f\",\"dweb:/ipfs/QmX7YJD4pS2XhgQb7p3JbBAXynT7YGPXcZe92BiWWRrsCL\"],\"license\":\"MIT\"},\"node_modules/@bananapus/core/src/interfaces/IJBRedeemHook.sol\":{\"keccak256\":\"0x8ab46fcd7d0e739661eb76056ad93ff99106f38420ef0b4eb97fa9f4bb71a68a\",\"urls\":[\"bzz-raw://0ef96fcb7ad26281d444d8e0c677b25114fdd63b1c172d477e030dce8ba53b62\",\"dweb:/ipfs/Qmcx1jRQuwU4pZFuLxsSsx4oMbRaDfktHrPnXextgbWc5m\"],\"license\":\"MIT\"},\"node_modules/@bananapus/core/src/interfaces/IJBRulesetApprovalHook.sol\":{\"keccak256\":\"0x592e95d159494421c6b1bcb362d0cee1df0132921697351304e9cd7af4fbd386\",\"urls\":[\"bzz-raw://5bebfd5fa67c1b6ea16fa2e76e9520e9dfe52a579f48dd94d0c2ec45f78ad178\",\"dweb:/ipfs/QmRUawEGtfYoYSHmHELGhvJoWuMsxLPKtqAXgsrb7fJboP\"],\"license\":\"MIT\"},\"node_modules/@bananapus/core/src/interfaces/IJBRulesetDataHook.sol\":{\"keccak256\":\"0x13b4b9f4b847f62442da1c1a59b399f8f201b31a28edb96aa5a8a78ad57c24d0\",\"urls\":[\"bzz-raw://4fcd00b77d0f40cf6d5ee6590b6ef4ee1f606e89ae4c4faed3710fb462108f8e\",\"dweb:/ipfs/QmeoE54DQ3eGw9EDXfN7aTMmEjubAtirahmytDijo6GSeE\"],\"license\":\"MIT\"},\"node_modules/@bananapus/core/src/interfaces/IJBRulesets.sol\":{\"keccak256\":\"0xd3f817d22ecbe24da63c552c069bf0c4fbbf3bcd5c3b5633002afd24aacf6882\",\"urls\":[\"bzz-raw://c1185aec0f6b6f0f4d93ffeeed0972ccf38420b00fe570b5e1838ed2b1f5db49\",\"dweb:/ipfs/QmWz36azGTFnjFXpFSh6BHt4nactgjtF64L3PeTqs4ZqSR\"],\"license\":\"MIT\"},\"node_modules/@bananapus/core/src/interfaces/IJBSplitHook.sol\":{\"keccak256\":\"0xeb8dfac7a4b81897a1c3b5d0d853a406bcff33720fb187d5ca5bb3dcc0ba3a12\",\"urls\":[\"bzz-raw://36aaeef6107cfe5b0127e063ea215aac7200f8af02e28a48e61111abd3254688\",\"dweb:/ipfs/QmQ8yQANXnhQCAWBGKsKCDsJ3A8hnTKNg5tyo79GfWXTcV\"],\"license\":\"MIT\"},\"node_modules/@bananapus/core/src/interfaces/IJBSplits.sol\":{\"keccak256\":\"0x92deeb9e22ce2aaafc608b85e9250b8ea2deed1ebf64b7442038b157b2bfe0e6\",\"urls\":[\"bzz-raw://08bf29f0c13c2e8be46065277f67e44ecaea960cb5474f13775eece0672566c2\",\"dweb:/ipfs/QmeGu9C6tuBjfmeizmpzptxgGmch6Mbtm34NFwZxzMvqc4\"],\"license\":\"MIT\"},\"node_modules/@bananapus/core/src/interfaces/IJBTerminal.sol\":{\"keccak256\":\"0x19dc9bf8cbdc8f13ee5da9dc3a87047eacb94a3fc19740a286c1f0bad2cc39ca\",\"urls\":[\"bzz-raw://0b05ae6fda9a85672508232fd992b8a5f5ffd8096622eeb12c8a7b3317eb3867\",\"dweb:/ipfs/QmNh9Quj37BXYGdTdcCD1Q58PchRsE5TLbEZep56qS3MpV\"],\"license\":\"MIT\"},\"node_modules/@bananapus/core/src/interfaces/IJBToken.sol\":{\"keccak256\":\"0x71b1f9c3a0edd41910f77396e0be2c65596571176d53eb87e887c3c0da56c0fb\",\"urls\":[\"bzz-raw://6e956f0582f4525e83d845ee9b4a89959abc4f821414f6accbbee5b38960482d\",\"dweb:/ipfs/QmbSvjgmCgnfVmcCTGu8XwrV1Rufsf3M8hB8unFq6fTMdH\"],\"license\":\"MIT\"},\"node_modules/@bananapus/core/src/interfaces/IJBTokenUriResolver.sol\":{\"keccak256\":\"0xfa5cb00dcd6085d1ef912d071fe73c63f9478a2cd0f9d8bddaf659b6af2d0967\",\"urls\":[\"bzz-raw://282e4e7c342d65f77cde0e9a08fcaf20ef5cf379c7a48b639842c0ffd0b2afb8\",\"dweb:/ipfs/QmbnN3PEQeZaXdPLT75V1J79kMg7KqSMru37RHrL3z8Yf2\"],\"license\":\"MIT\"},\"node_modules/@bananapus/core/src/interfaces/IJBTokens.sol\":{\"keccak256\":\"0x6fd67af915dd541d9547c8297aa9ae269690e4ee23531db43f021bcacec6076f\",\"urls\":[\"bzz-raw://2e5e11954e9ab2319fffccb6563f3db400b8f7760d4ffe2165048a02c9c37fa6\",\"dweb:/ipfs/QmbDXtV83dK8EfiTjsTRf55R2XqPZzDKcjtYbW8sxQ5CFm\"],\"license\":\"MIT\"},\"node_modules/@bananapus/core/src/libraries/JBConstants.sol\":{\"keccak256\":\"0x9d3a9a953f859d8ec79a599577f8972de6da7199cc1bfa7fdad017d4d722bcb4\",\"urls\":[\"bzz-raw://f151fcb53a8d2684eff8b9e56ac790bcbcadd8199a4fd4d17c5b224b22936722\",\"dweb:/ipfs/QmdAz1ZtCE8nTiC4AxQNLfJhnY3ndGum2Lbef7seKdvTdR\"],\"license\":\"MIT\"},\"node_modules/@bananapus/core/src/libraries/JBMetadataResolver.sol\":{\"keccak256\":\"0xea4318b305f26587c79aeea37e66735b74c72ebd9846e73980ea93242c717eec\",\"urls\":[\"bzz-raw://d00769ea990593a917f7be9eddc844ed47a4f92aa6bc7006b09c07291d1dc670\",\"dweb:/ipfs/QmNiptYFMPJH6QggcZnLo6ttqeKD7ksujRJRAKFYaRYjpg\"],\"license\":\"MIT\"},\"node_modules/@bananapus/core/src/libraries/JBSplitGroupIds.sol\":{\"keccak256\":\"0x932ca2645d443f04f86c8ffb27b5c58c4fbdc7b5a145fba1d43f1db9bd488a0f\",\"urls\":[\"bzz-raw://fa412d2c5726a868a258cd518648726b0784ab7ac7566376b82ba09680f66227\",\"dweb:/ipfs/QmZvfjBt7PQzTWNzrhysyHBegUbbu4aY2xDzBGnwqMaqnF\"],\"license\":\"MIT\"},\"node_modules/@bananapus/core/src/structs/JBAccountingContext.sol\":{\"keccak256\":\"0x2907ff54d1e903cc7e0390dd88c3975884702dc2673642aacbe22b66560b56de\",\"urls\":[\"bzz-raw://a66a5381ce877b32f0e0058ceeaf843e9b6b2bc8af666c0c9f4a9d01091da004\",\"dweb:/ipfs/QmQynCetUr37dBkS1YwDS8evxuXGiqanW6THmeUxXtim8w\"],\"license\":\"MIT\"},\"node_modules/@bananapus/core/src/structs/JBAfterPayRecordedContext.sol\":{\"keccak256\":\"0xd26c3a774ff38be79064085970454fe2603a23a638c76270d5b1b3829206c3e8\",\"urls\":[\"bzz-raw://3b55dbe3bf1ef625b7ca04efab3de35406e6041d5b3d82c7265469c500e2b702\",\"dweb:/ipfs/QmUdBDo4Lt3mcsFcsXT2mqq3czFwZjQJFPLM89YA2VtD7k\"],\"license\":\"MIT\"},\"node_modules/@bananapus/core/src/structs/JBAfterRedeemRecordedContext.sol\":{\"keccak256\":\"0x521f5d23a36f0da72362cd84890cc867bd83baa8dc836ba6c5066d51dba2f163\",\"urls\":[\"bzz-raw://6cc461313286dde62d045d6288e87bae5032e035796326f5b1ed6218e58aa9da\",\"dweb:/ipfs/QmQS2AkQwf2ANQieDuaUnpJEdXChoLv4CCbZqHkfywYPSR\"],\"license\":\"MIT\"},\"node_modules/@bananapus/core/src/structs/JBBeforePayRecordedContext.sol\":{\"keccak256\":\"0x5b04e814da83c7e83ff892ab07eaad6abce6f7b85a75f8da9380e9fc3470bc81\",\"urls\":[\"bzz-raw://11c889aab993fce3e3cc2dedc15fc30dd367e7fef9b7b1bfd6a6a9f248781731\",\"dweb:/ipfs/QmVVtydCD1azeWhGLxA1hthxfLyKzMHZ1eVzCz3a3R5dLy\"],\"license\":\"MIT\"},\"node_modules/@bananapus/core/src/structs/JBBeforeRedeemRecordedContext.sol\":{\"keccak256\":\"0x73eadaf6827e82f6ccbe3a1e2b2b7fc6c59cef471f73335041b30ddcc000989d\",\"urls\":[\"bzz-raw://2f3ee84662eed565dbdaed406ef836fffaf55cccd417575578152e5085d0b1f2\",\"dweb:/ipfs/QmaJGFS7hxJsiUdKvbv5BKhSwceDEzKBnt7t5YeNWvYgMK\"],\"license\":\"MIT\"},\"node_modules/@bananapus/core/src/structs/JBCurrencyAmount.sol\":{\"keccak256\":\"0x12fe4b43f4824994624d4fe0abbd88c3fe7867fd637edb65c7f456dab27e2d6e\",\"urls\":[\"bzz-raw://8003a3e8f932cf891e86b827e67c9d31b0d34c2712e18c2bc333cfe5284ba6d5\",\"dweb:/ipfs/QmSoA6RsDcSnNzk6CB7KZtALkHmeSDAi2g6fg3TDmLDkWX\"],\"license\":\"MIT\"},\"node_modules/@bananapus/core/src/structs/JBFundAccessLimitGroup.sol\":{\"keccak256\":\"0x9fdaa8d017b72da25f583700a444a86849df053f7fb8eac874ec5139bcf651e5\",\"urls\":[\"bzz-raw://c8e44c49ee444a98424a0dbeb6897a76a0bf00d88a613f62ac2012afdac754ee\",\"dweb:/ipfs/QmdYkAiRi5bXM1YYNkc7BiqimHSFodMGn1cjHR5hcpm4xH\"],\"license\":\"MIT\"},\"node_modules/@bananapus/core/src/structs/JBPayHookSpecification.sol\":{\"keccak256\":\"0x955f0bfca97300b9e5927dc181753830ee362f83fa9ca32a90daade32aa0cfd5\",\"urls\":[\"bzz-raw://f517af1597c7c40f8d3da53f7a6684a3e162950a16559d6bf6ea3b727bb11546\",\"dweb:/ipfs/QmRWo2ZTYXmVZTzNJDYhsJNsEaHphjpUfx9eNz2cciyz86\"],\"license\":\"MIT\"},\"node_modules/@bananapus/core/src/structs/JBPermissionsData.sol\":{\"keccak256\":\"0x8f0f69a6ebf5f3704e3dfcb3712fb9d3f94ae7c1ab89bf3e37bad42a3e7a0487\",\"urls\":[\"bzz-raw://57b0c5e52843e2217082889ed47b4da3943e0da4590d5768dcebfe3edad4a6b8\",\"dweb:/ipfs/QmRz48vuWLw81kUP836rh1qzqWiJFGbksgRUA9xGEDNKTY\"],\"license\":\"MIT\"},\"node_modules/@bananapus/core/src/structs/JBRedeemHookSpecification.sol\":{\"keccak256\":\"0x673d16ee1a91bf8de3b37e57284e60451b70a9c2d748c9cdc7a151f5624af18f\",\"urls\":[\"bzz-raw://ceeb5e81effa0f076c5630c756dfcf1548d09f822b255a0a6ee01e54de8c8ae2\",\"dweb:/ipfs/QmSMoMNPRhPMnuJNvWa6S59XRfycGz9o2ApNp63bUW6TdX\"],\"license\":\"MIT\"},\"node_modules/@bananapus/core/src/structs/JBRuleset.sol\":{\"keccak256\":\"0x15b2bf3174d84846a91ccbf5a344dfb125b55ed9cf50102db8d6868844225189\",\"urls\":[\"bzz-raw://647416b025dbd941094db89cbc69f755c155bd6c87be3f322394ccc4a8e0442d\",\"dweb:/ipfs/QmTCL9xcHnxQ4t5AmCPoZvXDUPW5xhzhyyXYbkMdyg44au\"],\"license\":\"MIT\"},\"node_modules/@bananapus/core/src/structs/JBRulesetConfig.sol\":{\"keccak256\":\"0x0be470df286939259a6b98bc71459e661e81d56a58226d6a574ae1484f8f8e6c\",\"urls\":[\"bzz-raw://64592c279ba7518ac180c835a539897163f299a439065f2cc8aa54086a2c9ad7\",\"dweb:/ipfs/QmaEepVvFJdXcDBMMr7SQYjZSDJXPtCca95kQY5rZbra6U\"],\"license\":\"MIT\"},\"node_modules/@bananapus/core/src/structs/JBRulesetMetadata.sol\":{\"keccak256\":\"0xfea54c9f98416d2aa05309e7ff76967d6968a614850a1e33e48fde793ea8b514\",\"urls\":[\"bzz-raw://bf55386cbab90dbc1296b2b0cbfdc217a4500d67702e4a093a4c78bd127ecd5c\",\"dweb:/ipfs/QmTRq9mZrNSXu7oCZwti4JbBFrbY6A5msRqi9RbtL49NAj\"],\"license\":\"MIT\"},\"node_modules/@bananapus/core/src/structs/JBRulesetWithMetadata.sol\":{\"keccak256\":\"0x1bcfadf20488f6df65227f8d4d0fbf9b7539456a2389567f7fe3900d23289bc3\",\"urls\":[\"bzz-raw://0a15c399a71e5373f8c0484c6d6b83521eda31e063a2c53e4c5cec4e74550343\",\"dweb:/ipfs/QmQwi8zkjoTVXbK89NeETYimWCacTrNsesJdpLSvGdqMPX\"],\"license\":\"MIT\"},\"node_modules/@bananapus/core/src/structs/JBSplit.sol\":{\"keccak256\":\"0x1d40fa4f1c911a53b9139f3d44d27cb58fa5c5d2cd793c7a21ccf52b9e61f848\",\"urls\":[\"bzz-raw://9897d2c29fc65fe16e4eac0b7b8b6fd8ef0b0cc501986f7f0c3a78c4ec1dbb60\",\"dweb:/ipfs/QmXcHoVjCYWWCz4hm2KZ6JxtB4YNq7jmXa2evLkga59Xwq\"],\"license\":\"MIT\"},\"node_modules/@bananapus/core/src/structs/JBSplitGroup.sol\":{\"keccak256\":\"0xda7da6e88aac2906c7ea4027660088daf217edc632bebca4d72795aae8921564\",\"urls\":[\"bzz-raw://ae1939d17e94cb51484f31ce64cf0df990445a338fb9b38d39a7baf28275ae4a\",\"dweb:/ipfs/QmUhPnJiWnYhFdtLvZnrPopAdbYXxETpGjvxjPDignpTGY\"],\"license\":\"MIT\"},\"node_modules/@bananapus/core/src/structs/JBSplitHookContext.sol\":{\"keccak256\":\"0xfe34e6860b00ca93d71f44e72882281b2c57c31303151af05795c74cfdd2e51d\",\"urls\":[\"bzz-raw://08acab094888e9c929b6f6f972d89ddbb31e5867675e7e7c602d25fcb2c0f402\",\"dweb:/ipfs/QmPNdXM185cTyXQSodVr4JMviHx88jrWu7dipgkp9xTNgJ\"],\"license\":\"MIT\"},\"node_modules/@bananapus/core/src/structs/JBTerminalConfig.sol\":{\"keccak256\":\"0xd162f3821a1ccafbc8d7d108369e39ac3048445a8c7fe7a3fa97a6343f9eefaa\",\"urls\":[\"bzz-raw://82172ea0407b6d9edc45e408c7e8edb8e129adf49a94349fe3a5862da9bc044e\",\"dweb:/ipfs/QmWheF5Tjq2hcabnSzfYqdFHUA1YxYEdAPZaRw9N166V1d\"],\"license\":\"MIT\"},\"node_modules/@bananapus/core/src/structs/JBTokenAmount.sol\":{\"keccak256\":\"0x5cf0626b73a596c1e2da17c89ae039a7c0374310b060d48568d3b6c11fbe6180\",\"urls\":[\"bzz-raw://63348b50be95e2995409394a17caffc563a646f0972650a1230bf864fbd3219b\",\"dweb:/ipfs/QmZXZpS3SbFD5nWaCauf6AqbEhLURv5qsKHpThBvQgDU6u\"],\"license\":\"MIT\"},\"node_modules/@bananapus/ownable/src/JBOwnable.sol\":{\"keccak256\":\"0x5b0aec2bc7164bdb972bfb9f71660c887308cf3a72738c7469d03bf264cf0d54\",\"urls\":[\"bzz-raw://bf4f60cebc0a707004371425aa3c8751b6a84dfb4fc9bf788160ae9ac1e906f6\",\"dweb:/ipfs/QmegUfWLhKuByQTkfMkmwkEs2Tk5ZEuR56DqQw5kxFzP3d\"],\"license\":\"MIT\"},\"node_modules/@bananapus/ownable/src/JBOwnableOverrides.sol\":{\"keccak256\":\"0x70a7c55f2a0f4324b63afe61e9d0de6e54396073e431844a19936d2aaaf6d7dd\",\"urls\":[\"bzz-raw://94c55139a8e974e2a88c6f0fc7594be3044742cfc499c989051eaf6664ec7dab\",\"dweb:/ipfs/QmQPnLAootqEGzpHRdhsYGBU3cqicRYLAe6bTti2UCBHyS\"],\"license\":\"MIT\"},\"node_modules/@bananapus/ownable/src/interfaces/IJBOwnable.sol\":{\"keccak256\":\"0x2c513558439d763df03e8a68c1aef698618182fd44c285405c35597d52c65ad1\",\"urls\":[\"bzz-raw://11cc25c41fccc20cca29f93dd120e67760188fd2040ef0330a093d37fbfa2f8f\",\"dweb:/ipfs/QmWpxcv41eYmsNYT3ph1nts5pC7sp3EzwJxKDGebMqEbsH\"],\"license\":\"MIT\"},\"node_modules/@bananapus/ownable/src/struct/JBOwner.sol\":{\"keccak256\":\"0x5624ba356f01f722984c1b857a106f413b12e57bae1f762a81c16ee511e3325a\",\"urls\":[\"bzz-raw://3120b5649ac8b55158df138dcac03f6850fc988cc5a24a7cb06e6581265ca284\",\"dweb:/ipfs/QmQBSLxRT9j1MEERUt8dWbSsAjianbHpM2CFwciLK7MwaP\"],\"license\":\"MIT\"},\"node_modules/@bananapus/permission-ids/src/JBPermissionIds.sol\":{\"keccak256\":\"0xf61109f6b217a80d5e5391f548fb6f2e451f7dbee3fabfc04cf17e88722203bc\",\"urls\":[\"bzz-raw://ac776ab1cd621c22bd7973471acdfa187f3abc659ad9a3ef6ed10b6447dfcf9c\",\"dweb:/ipfs/QmYLbaHt68qcuMzkiKpe96jMjiWUq1F3u8yMhxmZ3pnnWu\"],\"license\":\"MIT\"},\"node_modules/@bananapus/suckers/src/interfaces/IBPSucker.sol\":{\"keccak256\":\"0x2a3136ea5608c3e76b9f3114a470980f2a96427535aaccbd65dcc37d3a3dd0f8\",\"urls\":[\"bzz-raw://8cc997a396b183525892a0640ce03aee9fa3f15971266c826a308f6c74ff63f2\",\"dweb:/ipfs/QmZcoMkGbujqLm5B9v5urpFwUVg2uoG7ybPHX8RRxsygpe\"],\"license\":\"MIT\"},\"node_modules/@bananapus/suckers/src/interfaces/IBPSuckerDeployer.sol\":{\"keccak256\":\"0x7592282265ffd3000787eb20d1ccdd698cb6f2eb641dfddcd2b61978eb5105a2\",\"urls\":[\"bzz-raw://1f4ac54122cbd52758573f23856e243635be43aa974f234e1a5560eef9990794\",\"dweb:/ipfs/QmXHXr5CGh2hT9UMsLdCZNT4XmRMTf9SuBNRwTtyN9Z2Re\"],\"license\":\"MIT\"},\"node_modules/@bananapus/suckers/src/interfaces/IBPSuckerRegistry.sol\":{\"keccak256\":\"0xaed1d396dd1748585f4f16cd72519efadcb089ecd9b8a1786d3d353cffb6218a\",\"urls\":[\"bzz-raw://94de3a0692ac733ab780449431dea24e402b41c7c768fc7868bf0f259a65d80d\",\"dweb:/ipfs/QmR3STDP2YbPi7LTsAC3XSv2gT7GMD83krYeReFVDE4eKU\"],\"license\":\"UNLICENSED\"},\"node_modules/@bananapus/suckers/src/structs/BPSuckerDeployerConfig.sol\":{\"keccak256\":\"0x867e10bc73a07ab19cf5511d047dc885e3cfae58fc5f3441f6a5d3174afe6b78\",\"urls\":[\"bzz-raw://b8c3e72e57958bb2e2b8072ac6055804598c080a748fbc2f40a783575435809e\",\"dweb:/ipfs/QmbY7W6i5qAAj42EsQX8yt8M8nXArXByEGosnHWyxs4BE7\"],\"license\":\"MIT\"},\"node_modules/@bananapus/suckers/src/structs/BPTokenMapping.sol\":{\"keccak256\":\"0x84865bda925cdc9a608cbbfc487619acba391f98ae12bbbfdbc5779d617a17d9\",\"urls\":[\"bzz-raw://3bbc1fdd38feaf64fd4914bddb62cda7e5b8ee0f046a0eac8cfcb15f9493bcc5\",\"dweb:/ipfs/QmXgAx7sr1M8r71YrSeQJGAB1uhvdxpQyS633UgJvLCQfb\"],\"license\":\"MIT\"},\"node_modules/@croptop/core/src/CTPublisher.sol\":{\"keccak256\":\"0x9376777efe6de07115ff025226cc78093aabd41c078e17b2cf2a5ec3e589be26\",\"urls\":[\"bzz-raw://4d9c8763349c4e0d5cd667e704adc3061ff28de69c951bd5f2482bb0cec0013a\",\"dweb:/ipfs/QmPsEniTDEzGmbAwfdF6hsvatpEkPnFtgk1UaWQWMmHYDn\"],\"license\":\"MIT\"},\"node_modules/@croptop/core/src/structs/CTAllowedPost.sol\":{\"keccak256\":\"0x82f6cd062f1cba83c988a426c44151cfc1eae0b301c4dc135e5e7dac3e73eb40\",\"urls\":[\"bzz-raw://f76d5ae0e1aabb45e34450ffaa2a97804162a1ba1f1aa649de1c20312db7fcca\",\"dweb:/ipfs/QmdDggUUfQYagnXGGThcUevADHPyokvGtGBsDMCc9RxU1A\"],\"license\":\"MIT\"},\"node_modules/@croptop/core/src/structs/CTPost.sol\":{\"keccak256\":\"0x7e3dd85bc455816d7cf1b260fe53c7b1ff7512fce75ce3b6d9fdc094bcda33c8\",\"urls\":[\"bzz-raw://6cc25819e7ef95cb45ea71c54af01db95f75d0ccf1a23390a6153f4ae7df1c88\",\"dweb:/ipfs/QmTJCj1Rn7uEXRcaZBNqxrBXWXM9f24dphb9TaoLe3Ts41\"],\"license\":\"MIT\"},\"node_modules/@openzeppelin/contracts/metatx/ERC2771Context.sol\":{\"keccak256\":\"0x98256cf37b71a69b2f5a8a6fe975ea03590dff703102bd141a830f94e8adebf6\",\"urls\":[\"bzz-raw://6251fe1f6a1e45e6d619d150c123afc88b8646b38ee26a136efa9a6988a31d3f\",\"dweb:/ipfs/QmeXDT85wSZdP31wkz3ah3KhponCiksJLP5o2LR5e1JxcK\"],\"license\":\"MIT\"},\"node_modules/@openzeppelin/contracts/token/ERC20/IERC20.sol\":{\"keccak256\":\"0xc6a8ff0ea489379b61faa647490411b80102578440ab9d84e9a957cc12164e70\",\"urls\":[\"bzz-raw://0ea104e577e63faea3b69c415637e99e755dcbf64c5833d7140c35a714d6d90c\",\"dweb:/ipfs/Qmau6x4Ns9XdyynRCNNp3RhLqijJjFm7z5fyZazfYFGYdq\"],\"license\":\"MIT\"},\"node_modules/@openzeppelin/contracts/token/ERC721/IERC721.sol\":{\"keccak256\":\"0x5ef46daa3b58ef2702279d514780316efaa952915ee1aa3396f041ee2982b0b4\",\"urls\":[\"bzz-raw://2f8f2a76e23b02fc69e8cd24c3cb47da6c7af3a2d6c3a382f8ac25c6e094ade7\",\"dweb:/ipfs/QmPV4ZS4tPVv4mTCf9ejyZ1ai57EEibDRj7mN2ARDCLV5n\"],\"license\":\"MIT\"},\"node_modules/@openzeppelin/contracts/token/ERC721/IERC721Receiver.sol\":{\"keccak256\":\"0x7f7a26306c79a65fb8b3b6c757cd74660c532cd8a02e165488e30027dd34ca49\",\"urls\":[\"bzz-raw://d01e0b2b837ee2f628545e54d8715b49c7ef2befd08356c2e7f6c50dde8a1c22\",\"dweb:/ipfs/QmWBAn6y2D1xgftci97Z3qR9tQnkvwQpYwFwkTvDMvqU4i\"],\"license\":\"MIT\"},\"node_modules/@openzeppelin/contracts/utils/Context.sol\":{\"keccak256\":\"0x493033a8d1b176a037b2cc6a04dad01a5c157722049bbecf632ca876224dd4b2\",\"urls\":[\"bzz-raw://6a708e8a5bdb1011c2c381c9a5cfd8a9a956d7d0a9dc1bd8bcdaf52f76ef2f12\",\"dweb:/ipfs/Qmax9WHBnVsZP46ZxEMNRQpLQnrdE4dK8LehML1Py8FowF\"],\"license\":\"MIT\"},\"node_modules/@openzeppelin/contracts/utils/introspection/ERC165.sol\":{\"keccak256\":\"0x9e8778b14317ba9e256c30a76fd6c32b960af621987f56069e1e819c77c6a133\",\"urls\":[\"bzz-raw://1777404f1dcd0fac188e55a288724ec3c67b45288e49cc64723e95e702b49ab8\",\"dweb:/ipfs/QmZFdC626GButBApwDUvvTnUzdinevC3B24d7yyh57XkiA\"],\"license\":\"MIT\"},\"node_modules/@openzeppelin/contracts/utils/introspection/IERC165.sol\":{\"keccak256\":\"0x4296879f55019b23e135000eb36896057e7101fb7fb859c5ef690cf14643757b\",\"urls\":[\"bzz-raw://87b3541437c8c443ccd36795e56a338ed12855eec17f8da624511b8d1a7e14df\",\"dweb:/ipfs/QmeJQCtZrQjtJLr6u7ZHWeH3pBnjtLWzvRrKViAi7UZqxL\"],\"license\":\"MIT\"},\"node_modules/@uniswap/v3-core/contracts/interfaces/IUniswapV3Pool.sol\":{\"keccak256\":\"0x4e64844c56061cd90e0a80de73534a9166704c43eed579eb83f90bc2780ce968\",\"urls\":[\"bzz-raw://cba4fab5cebdddf644b901994a7f0f52b98885d4c56012f4dc51d52c2bf9de0e\",\"dweb:/ipfs/QmVyyrRmqXrAiapewWunRVgiPVFJHpH2hKiE1py1svMSNV\"],\"license\":\"GPL-2.0-or-later\"},\"node_modules/@uniswap/v3-core/contracts/interfaces/callback/IUniswapV3SwapCallback.sol\":{\"keccak256\":\"0x3f485fb1a44e8fbeadefb5da07d66edab3cfe809f0ac4074b1e54e3eb3c4cf69\",\"urls\":[\"bzz-raw://095ce0626b41318c772b3ebf19d548282607f6a8f3d6c41c13edfbd5370c8652\",\"dweb:/ipfs/QmVDZfJJ89UUCE1hMyzqpkZAtQ8jUsBgZNE5AMRG7RzRFS\"],\"license\":\"GPL-2.0-or-later\"},\"node_modules/@uniswap/v3-core/contracts/interfaces/pool/IUniswapV3PoolActions.sol\":{\"keccak256\":\"0x9453dd0e7442188667d01d9b65de3f1e14e9511ff3e303179a15f6fc267f7634\",\"urls\":[\"bzz-raw://982f4328f956c3e60e67501e759eb292ac487f76460c774c50e9ae4fcc92aae5\",\"dweb:/ipfs/QmRnzEDsaqtd9PJEVcgQi7p5aV5pMSvRUoGZJAdwFUJxgZ\"],\"license\":\"GPL-2.0-or-later\"},\"node_modules/@uniswap/v3-core/contracts/interfaces/pool/IUniswapV3PoolDerivedState.sol\":{\"keccak256\":\"0xe603ac5b17ecdee73ba2b27efdf386c257a19c14206e87eee77e2017b742d9e5\",\"urls\":[\"bzz-raw://8febc9bdb399a4d94bb89f5377732652e2400e4a8dee808201ade6848f9004e7\",\"dweb:/ipfs/QmaKDqYYFU4d2W2iN77aDHptfbFmYZRrMYXHeGpJmM8C1c\"],\"license\":\"GPL-2.0-or-later\"},\"node_modules/@uniswap/v3-core/contracts/interfaces/pool/IUniswapV3PoolErrors.sol\":{\"keccak256\":\"0xf80abf13fb1fafc127ba4e792f240dd8ea7c8c893978cdfd8439c27fae9a037b\",\"urls\":[\"bzz-raw://b04fc72a656bbf3631e9c2e67b9870a2d9d235185e833fe050e9606e6816a9aa\",\"dweb:/ipfs/QmUcz4bkEkJ9pwzFu1C3n97hBQ3st9U6qTAqCdyFwddKco\"],\"license\":\"GPL-2.0-or-later\"},\"node_modules/@uniswap/v3-core/contracts/interfaces/pool/IUniswapV3PoolEvents.sol\":{\"keccak256\":\"0x8071514d0fe5d17d6fbd31c191cdfb703031c24e0ece3621d88ab10e871375cd\",\"urls\":[\"bzz-raw://d0b571930cc7488b1d546a7e9cea7c52d8b3c4e207da657ed0e0db7343b8cd03\",\"dweb:/ipfs/QmaGK6vVwB95QSTR1XMYvrh7ivYAYZxi3fD7v6VMA4jZ39\"],\"license\":\"GPL-2.0-or-later\"},\"node_modules/@uniswap/v3-core/contracts/interfaces/pool/IUniswapV3PoolImmutables.sol\":{\"keccak256\":\"0xf6e5d2cd1139c4c276bdbc8e1d2b256e456c866a91f1b868da265c6d2685c3f7\",\"urls\":[\"bzz-raw://b99c8c9ae8e27ee6559e5866bea82cbc9ffc8247f8d15b7422a4deb287d4d047\",\"dweb:/ipfs/QmfL8gaqt3ffAnm6nVj5ksuNpLygXuL3xq5VBqrkwC2JJ3\"],\"license\":\"GPL-2.0-or-later\"},\"node_modules/@uniswap/v3-core/contracts/interfaces/pool/IUniswapV3PoolOwnerActions.sol\":{\"keccak256\":\"0x759b78a2918af9e99e246dc3af084f654e48ef32bb4e4cb8a966aa3dcaece235\",\"urls\":[\"bzz-raw://64144fb96e1c7fdba87305acadb98a198d26a3d46c097cb3a666e567f6f29735\",\"dweb:/ipfs/QmUnWVwN9FKB9uV5Pr8YfLpWZnYM2DENnRMaadZ492JS9u\"],\"license\":\"GPL-2.0-or-later\"},\"node_modules/@uniswap/v3-core/contracts/interfaces/pool/IUniswapV3PoolState.sol\":{\"keccak256\":\"0x44fa2ce1182f6c2f6bead3d1737804bf7e112252ae86e0f2e92f9b8249603f43\",\"urls\":[\"bzz-raw://54154e8665b98d65f5dc91b256551852cb47882180b501b260657122d207c0ea\",\"dweb:/ipfs/QmcfemK1A2PXYrWB5SBFGERpMCderbFRb8BtTzQDj1sUBp\"],\"license\":\"GPL-2.0-or-later\"},\"src/REVBasicDeployer.sol\":{\"keccak256\":\"0xae31c96931a89f4ab21c5cc8f42f2eaa4b408488dc69a0ade1a3cbc606f7787a\",\"urls\":[\"bzz-raw://17d971afe678ad21b584b980c14dd1e27c0bb34df3fc108bfd8fc881021d6acf\",\"dweb:/ipfs/Qma15QSrBcgYdQ8jyx945Wxb7cjYhXz52pJiaPpz28f6Uf\"],\"license\":\"MIT\"},\"src/REVCroptopDeployer.sol\":{\"keccak256\":\"0x807b2b1a6d5553a8e2d8fbe24ed895c17eb64fd858b14de4538401b55a91663e\",\"urls\":[\"bzz-raw://811f18fcd8565052d087e4651e24c2a11b5eb813d559e51327cfc606bd035d10\",\"dweb:/ipfs/QmPWtJfzy7NKy1M193dH2YwaMtDUQio14SDMwaGNYjdGbf\"],\"license\":\"MIT\"},\"src/REVPayHookDeployer.sol\":{\"keccak256\":\"0xf9ce2223a28d47e919ceeefd064036765938727cbc068fa757a5e7098abad2c2\",\"urls\":[\"bzz-raw://a107b94598b20e6a3f577af0c9a3b1134dfdf0fe7966cdc6e35ff37004efde06\",\"dweb:/ipfs/QmcQfukUrLUrAK7oqp3FvX47VdWRnaU7crDCpgwf8zQATT\"],\"license\":\"MIT\"},\"src/REVTiered721HookDeployer.sol\":{\"keccak256\":\"0x2d8133ffc87353ca8e5058d91ac00efc0598d31895b794b518c266df43fc0808\",\"urls\":[\"bzz-raw://77d4e7babe0aa8250309f8fccd9e18c59dc834f50c4b93b3ed1d7861cd333573\",\"dweb:/ipfs/QmNMCrAdDJwGsaQZE4pHnC2S1yaLSAbi67MjDP7Mw1fmLZ\"],\"license\":\"MIT\"},\"src/interfaces/IREVBasicDeployer.sol\":{\"keccak256\":\"0x5a377ec7c7727bb310ddaec1ab6aba24e151bfa8d24e68deeacf99ca3364cd1a\",\"urls\":[\"bzz-raw://4b968fff3d97b8ff69bb2154dc1b150807bb5aa7ad59611e29b43acc20b97a9c\",\"dweb:/ipfs/QmZUV3JATApSe1ALJrezvuaCyknWCqdUKkCV4wJ2FmkRAV\"],\"license\":null},\"src/interfaces/IREVCroptopDeployer.sol\":{\"keccak256\":\"0x3ec080b4ee2d6c73ea7c6d246cf57234b62d7a5b6c54e2c6641b568e582f4ffb\",\"urls\":[\"bzz-raw://9d35d607346c201f3c3b4a52f486de28fc16d6bfe990f3255ceb62703980cc48\",\"dweb:/ipfs/QmPgMxF4BinjS8FsuSHTixxtrVkrsgHHXT4S5fafknxudw\"],\"license\":null},\"src/interfaces/IREVPayHookDeployer.sol\":{\"keccak256\":\"0xc96a7dd8ec2c88286906c2615f11e03c9f8fba777685067dcf98525349950000\",\"urls\":[\"bzz-raw://45d97d705c27b718ff0dac593ceeccdf77060652ac31bd84d6394bc7412afcde\",\"dweb:/ipfs/QmbMAMk8bkZBQxj5Dimx2wsAtawg7oyXrtBMcEk37ZNxiG\"],\"license\":null},\"src/interfaces/IREVTiered721HookDeployer.sol\":{\"keccak256\":\"0x48f7c60ddd73914172413e72a129659d91a0d1d245cea265e793b2f30b236d6d\",\"urls\":[\"bzz-raw://fc83f099b34f4c3217544e65f19fa0cf916e49b7230a099725dba48a3942d040\",\"dweb:/ipfs/QmWvnyVbxanschhro5PpkqrJuP2zSaW7PTKBi2fQuAgqDx\"],\"license\":null},\"src/structs/REVBuybackHookConfig.sol\":{\"keccak256\":\"0xdae5ecff2ff2a04c0aab17093f023b2161994dc0e6e2adc5006d36d157eb09aa\",\"urls\":[\"bzz-raw://5e0eed08e652290f59c0d18565df21be3fc7b33ca3fa41c393461472479e4a7f\",\"dweb:/ipfs/QmfZcbmdvYDQwEE4eesGpcxdojAm9BhJ81fdkxjX9LU9Sa\"],\"license\":\"MIT\"},\"src/structs/REVBuybackPoolConfig.sol\":{\"keccak256\":\"0x83f2a3875a8b1955856b72bfddd90c0cc2fbe26697f1dd4e13b33c0319049a14\",\"urls\":[\"bzz-raw://e1e37d0eb626221b6a8774a155a3799dc5cf0b497d26263ef323ed768d61a0dc\",\"dweb:/ipfs/QmcSPDAaPemjh3a1XycV4qDMJwctnuwiKe3wXrRUjotKAB\"],\"license\":\"MIT\"},\"src/structs/REVConfig.sol\":{\"keccak256\":\"0x877258466138485e7766cf46171fc7c8fb78736281eeb90bfb7a11c4cd702f4e\",\"urls\":[\"bzz-raw://4544bbe5da29126dd1000a74caae7388c5022a77d70556af9938361a7037be32\",\"dweb:/ipfs/QmNxZVdwgV63pTriMemT3UouK3s3ZC9sVVudA93xAvh1c3\"],\"license\":\"MIT\"},\"src/structs/REVCroptopAllowedPost.sol\":{\"keccak256\":\"0xbeba2acfc8a139c2c9d7c3feb5ba14b369e030aeaa21b3d1ef35fc08ea5ecb7b\",\"urls\":[\"bzz-raw://34e756eb728e230de3b411b92272a10807c3a25adab48eba41b4da6c233a7ecc\",\"dweb:/ipfs/QmSDm1FYFXo8MVTutjyPMrCrNzsJproX8guN2htT3Jzsxq\"],\"license\":\"MIT\"},\"src/structs/REVDeploy721TiersHookConfig.sol\":{\"keccak256\":\"0x6dec52939e342a5e7c687850b3e7222857f49fd7819c0056bafe8fcabfe8f216\",\"urls\":[\"bzz-raw://afb89096d51603b25e68c099eb92741821fcbf7e876fc71955d6a2c2ca27c32b\",\"dweb:/ipfs/QmSy8GS1NJL1FCtPBS4nvVp4KsLJvJRmvTtuLbmgLSR2vt\"],\"license\":\"MIT\"},\"src/structs/REVDescription.sol\":{\"keccak256\":\"0x40bebc53d50dbfb261882f51c7667d7263193e8fc48897b9384c2ca259046c1b\",\"urls\":[\"bzz-raw://24f98bc7ef12f53afa326a266c69683e24501405f72566b7ca7e8dad242e1fe1\",\"dweb:/ipfs/QmNkLsCwhx5pTuMmJLwUNJdPrGjEi3H9JnTX2s9GsoUTAa\"],\"license\":\"MIT\"},\"src/structs/REVMintConfig.sol\":{\"keccak256\":\"0xdf4edcbc85faf4cf98db8f49d09a2840dfa6fe876a3ad0b85b27d4f9b497008d\",\"urls\":[\"bzz-raw://c28b8f8b4178d6bfc5bccd300d48d923052cd304ef536e343e00415d5c7ddfe1\",\"dweb:/ipfs/Qmcp8YMy7HN3mpYw4RESmy1BnN6yHrApZigxZeXSFW6eGD\"],\"license\":\"MIT\"},\"src/structs/REVStageConfig.sol\":{\"keccak256\":\"0x5618a55f3e3f2bc5fd280c330c2200029de624bb710774fd8ee2759dbc2c841a\",\"urls\":[\"bzz-raw://446373029a5c429438ae1a8035bb383b028fd29c44fadfa49befc929cd5b65be\",\"dweb:/ipfs/Qme5SnPVGm7ysmFTkc9c6p7iFo1BVYYkMoK2CTA6RkF6wS\"],\"license\":\"MIT\"},\"src/structs/REVSuckerDeploymentConfig.sol\":{\"keccak256\":\"0xed607665da0efa1a1662a7e094095f336bef2d6694f79e5d8158cacf73c34dac\",\"urls\":[\"bzz-raw://c8c68b67a28a7dfc060596cfb98b7fc05ad0c9b61482f60a04810bc68cc0b8e3\",\"dweb:/ipfs/QmeLH5z8J6DDjRQXfJi4BoMmQqY4zTjERYfSzu8Uypkawp\"],\"license\":\"MIT\"}},\"version\":1}",
			"args": [
				"0xFF7e1C600b8af88De885A7c68C3e737401082423",
				"0x0c86d0204C6eCE28122daec16C613D3B69941845",
				"0xB2b5841DBeF766d4b521221732F9B618fCf34A87",
				"0xf2dEE65acD9ccA20692C19E9635274b9c9e3309A",
				"0xEb088D0ff64c150eE1F1c355b61A0E841caDD2Ff"
			],
			"bytecode": "0x6101006040523480156200001257600080fd5b5060405162005e9738038062005e9783398101604081905262000035916200010e565b6001600160a01b0392831660805293821660a05291811660c052600380546001808201835560117fc2575a0e9e593c00f959f8c92f12db2869c3395a3b0502d05e2516446f71f85b9283015582548082018455601990830155825480820190935560069290910182905592821660e05280546001600160a01b031916939091169290921790915560078054918201815560005260157fa66cc928b5edb82af9bd49922954155ab7b0942694bea4ce44661d9a8736c688909101556200018e565b6001600160a01b03811681146200010b57600080fd5b50565b600080600080600060a086880312156200012757600080fd5b85516200013481620000f5565b60208701519095506200014781620000f5565b60408701519094506200015a81620000f5565b60608701519093506200016d81620000f5565b60808701519092506200018081620000f5565b809150509295509295909350565b60805160a05160c05160e051615c2e62000269600039600081816103c80152610e1701526000818161040401528181610a5201528181610fb70152818161154c01528181612144015261226a0152600081816104770152818161050601528181610c64015281816110e80152818161128f015281816113600152818161163a015281816117c10152818161193a01528181611ab501528181611c8d01528181611d5a01528181611e6a01528181611f3201528181611fff015261217f0152600081816102450152818161031c0152612f160152615c2e6000f3fe608060405234801561001057600080fd5b506004361061018d5760003560e01c80639c62f179116100e3578063b5d255331161008c578063dbfbe5da11610066578063dbfbe5da1461044c578063eb5ad9d91461045f578063ee0fc1211461047257600080fd5b8063b5d25533146103ff578063bb19940214610426578063bd43e7ba1461043957600080fd5b8063aaf320d7116100bd578063aaf320d7146103a0578063abf8c5c8146103c3578063ad62f1ca146103ea57600080fd5b80639c62f179146103535780639d82ba25146103665780639fafd73c1461037057600080fd5b80635a31dc13116101455780637249a7731161011f5780637249a773146102d95780637da0a8771461031a5780639ab687261461034057600080fd5b80635a31dc13146102755780635c0a7cee146102a6578063677ce088146102c657600080fd5b806343681e151161017657806343681e15146101e65780634c4ffc7114610214578063572b6c051461023557600080fd5b806301ffc9a714610192578063150b7a02146101ba575b600080fd5b6101a56101a036600461310b565b610499565b60405190151581526020015b60405180910390f35b6101cd6101c8366004613164565b610502565b6040516001600160e01b031990911681526020016101b1565b6102066101f4366004613203565b60016020526000908152604090205481565b6040519081526020016101b1565b61022761022236600461321c565b6105ce565b6040516101b1929190613329565b6101a561024336600461334a565b7f00000000000000000000000000000000000000000000000000000000000000006001600160a01b0390811691161490565b610206610283366004613367565b600260209081526000938452604080852082529284528284209052825290205481565b6102b96102b4366004613203565b6108d2565b6040516101b191906133a0565b6101a56102d43660046133b3565b6109f6565b6103026102e7366004613203565b6000602081905290815260409020546001600160a01b031681565b6040516001600160a01b0390911681526020016101b1565b7f0000000000000000000000000000000000000000000000000000000000000000610302565b61020661034e366004613d0e565b610b2b565b610206610361366004613e9a565b610b47565b61020662278d0081565b61038361037e36600461434c565b610c57565b604080519283526001600160a01b039091166020830152016101b1565b6103b36103ae36600461445d565b610fa7565b6040516101b19493929190614499565b6103027f000000000000000000000000000000000000000000000000000000000000000081565b6103fd6103f83660046133b3565b6110e4565b005b6103027f000000000000000000000000000000000000000000000000000000000000000081565b6103fd610434366004614539565b61135e565b61038361044736600461468a565b611615565b600654610302906001600160a01b031681565b6103fd61046d3660046133b3565b6117b2565b6103027f000000000000000000000000000000000000000000000000000000000000000081565b60006001600160e01b031982167f81c03c2e0000000000000000000000000000000000000000000000000000000014806104fc57507f01ffc9a7000000000000000000000000000000000000000000000000000000006001600160e01b03198316145b92915050565b60007f00000000000000000000000000000000000000000000000000000000000000006001600160a01b031663293c49996040518163ffffffff1660e01b8152600401602060405180830381865afa158015610562573d6000803e3d6000fd5b505050506040513d601f19601f8201168201806040525081019061058691906147c0565b6001600160a01b0316336001600160a01b0316146105a357600080fd5b507f150b7a020000000000000000000000000000000000000000000000000000000095945050505050565b60c081013560009081526020819052604081205460609081906001600160a01b0316801561068a576040517f4c4ffc710000000000000000000000000000000000000000000000000000000081526001600160a01b03821690634c4ffc719061063b908890600401614888565b600060405180830381865afa158015610658573d6000803e3d6000fd5b505050506040513d6000823e601f3d908101601f191682016040526106809190810190614959565b9094509150610693565b84610120013593505b815160c086013560009081526005602090815260408083208054825181850281018501909352808352941515949192909190849084015b828210156107ae576000848152602090819020604080516060810182526003860290920180546001600160a01b031683526001810154938301939093526002830180549293929184019161071d90614aa1565b80601f016020809104026020016040519081016040528092919081815260200182805461074990614aa1565b80156107965780601f1061076b57610100808354040283529160200191610796565b820191906000526020600020905b81548152906001019060200180831161077957829003601f168201915b505050505081525050815260200190600101906106ca565b505050509050600081519050826107c65760006107c9565b60015b6107d69060ff1682614af1565b67ffffffffffffffff8111156107ee576107ee6133e3565b60405190808252806020026020018201604052801561083b57816020015b6040805160608082018352600080835260208301529181019190915281526020019060019003908161080c5790505b50955060005b818110156108885782818151811061085b5761085b614b04565b602002602001015187828151811061087557610875614b04565b6020908102919091010152600101610841565b5082156108c857846000815181106108a2576108a2614b04565b60200260200101518682815181106108bc576108bc614b04565b60200260200101819052505b5050505050915091565b606060056000838152602001908152602001600020805480602002602001604051908101604052809291908181526020016000905b828210156109eb576000848152602090819020604080516060810182526003860290920180546001600160a01b031683526001810154938301939093526002830180549293929184019161095a90614aa1565b80601f016020809104026020016040519081016040528092919081815260200182805461098690614aa1565b80156109d35780601f106109a8576101008083540402835291602001916109d3565b820191906000526020600020905b8154815290600101906020018083116109b657829003601f168201915b50505050508152505081526020019060010190610907565b505050509050919050565b6000828152602081905260408120546001600160a01b0390811690831603610a20575060016104fc565b6040517f3d12cb87000000000000000000000000000000000000000000000000000000008152600481018490526000907f00000000000000000000000000000000000000000000000000000000000000006001600160a01b031690633d12cb8790602401600060405180830381865afa158015610aa1573d6000803e3d6000fd5b505050506040513d6000823e601f3d908101601f19168201604052610ac99190810190614b1a565b805190915060005b81811015610b1f57828181518110610aeb57610aeb614b04565b60200260200101516001600160a01b0316856001600160a01b031603610b1757600193505050506104fc565b600101610ad1565b50600095945050505050565b6000610b3d8686868630600088611c6c565b9695505050505050565b6000610b5c88888888308761ffff168a611c6c565b835190985060005b81811015610c085760008a81526005602052604090208551869083908110610b8e57610b8e614b04565b6020908102919091018101518254600180820185556000948552938390208251600390920201805473ffffffffffffffffffffffffffffffffffffffff19166001600160a01b03909216919091178155918101519282019290925560408201516002820190610bfd9082614c01565b505050600101610b64565b50887fdfaf2737f25eace49d372b472ec03f1df0f9814dfc69d2b95c5e92a041f42e2985610c34612398565b604051610c42929190614cc1565b60405180910390a25096979650505050505050565b60008089808203610d53577f00000000000000000000000000000000000000000000000000000000000000006001600160a01b031663293c49996040518163ffffffff1660e01b8152600401602060405180830381865afa158015610cc0573d6000803e3d6000fd5b505050506040513d601f19601f82011682018060405250810190610ce491906147c0565b6001600160a01b03166306661abd6040518163ffffffff1660e01b8152600401602060405180830381865afa158015610d21573d6000803e3d6000fd5b505050506040513d601f19601f82011682018060405250810190610d459190614cec565b610d50906001614af1565b9a505b84516000610d62826001614af1565b67ffffffffffffffff811115610d7a57610d7a6133e3565b604051908082528060200260200182016040528015610dc757816020015b60408051606080820183526000808352602083015291810191909152815260200190600190039081610d985790505b50905060005b82811015610e1457878181518110610de757610de7614b04565b6020026020010151828281518110610e0157610e01614b04565b6020908102919091010152600101610dcd565b507f00000000000000000000000000000000000000000000000000000000000000006001600160a01b0316632230819f8e8a600001516040518363ffffffff1660e01b8152600401610e67929190614e25565b6020604051808303816000875af1158015610e86573d6000803e3d6000fd5b505050506040513d601f19601f82011682018060405250810190610eaa91906147c0565b9350876020015115610ed95760008d815260046020908152604082208054600181018255908352912060159101555b876040015115610f065760008d815260046020908152604082208054600181018255908352912060169101555b876060015115610f335760008d815260046020908152604082208054600181018255908352912060179101555b6040518060600160405280856001600160a01b031681526020016000815260200160405180602001604052806000815250815250818381518110610f7957610f79614b04565b6020026020010181905250610f93838d8d8d8d868c610b47565b508c94505050509850989650505050505050565b6000808060606001600160a01b037f0000000000000000000000000000000000000000000000000000000000000000166383db9d0160408701803590610ff09060208a0161334a565b6040516001600160e01b031960e085901b16815260048101929092526001600160a01b03166024820152604401602060405180830381865afa15801561103a573d6000803e3d6000fd5b505050506040513d601f19601f8201168201806040525081019061105e9190614f5d565b1561107b5761271085608001358660a001359350935093506110dd565b6040808601356000908152600160205220544210156110c6576040517f04c3b3cd00000000000000000000000000000000000000000000000000000000815260040160405180910390fd5b84610160013585608001358660a001359350935093505b9193509193565b60007f00000000000000000000000000000000000000000000000000000000000000006001600160a01b031663d4a1b4b16040518163ffffffff1660e01b8152600401602060405180830381865afa158015611144573d6000803e3d6000fd5b505050506040513d601f19601f8201168201806040525081019061116891906147c0565b6001600160a01b03166343a266c2846040518263ffffffff1660e01b815260040161119591815260200190565b61012060405180830381865afa1580156111b3573d6000803e3d6000fd5b505050506040513d601f19601f820116820180604052508101906111d79190614f85565b6000848152600260208181526040808420828601805186528184528286206001600160a01b038a16808852908552838720548b88529585529051865290835281852090855290915282208290559192508190036112345750505050565b6040517fc7fb92de00000000000000000000000000000000000000000000000000000000815260048101859052602481018290526001600160a01b03848116604483015260a06064830152600060a4830181905260848301527f0000000000000000000000000000000000000000000000000000000000000000169063c7fb92de9060c4016020604051808303816000875af11580156112d8573d6000803e3d6000fd5b505050506040513d601f19601f820116820180604052508101906112fc9190614cec565b50826001600160a01b03168260200151857f598baf7bf150ca2f42be9e9f8f55e81d45f5715c3ff22bf46d697fabec7f31d684336040516113509291909182526001600160a01b0316602082015260400190565b60405180910390a450505050565b7f00000000000000000000000000000000000000000000000000000000000000006001600160a01b0316631f47ce696040518163ffffffff1660e01b8152600401602060405180830381865afa1580156113bc573d6000803e3d6000fd5b505050506040513d601f19601f820116820180604052508101906113e091906147c0565b6001600160a01b031663f434c9146040518163ffffffff1660e01b8152600401602060405180830381865afa15801561141d573d6000803e3d6000fd5b505050506040513d601f19601f8201168201806040525081019061144191906147c0565b6001600160a01b0316630f5932f0611457612398565b3086611462886123a7565b6040518563ffffffff1660e01b81526004016114819493929190615041565b602060405180830381865afa15801561149e573d6000803e3d6000fd5b505050506040513d601f19601f820116820180604052508101906114c29190614f5d565b6114df576040516331fb21f360e01b815260040160405180910390fd5b60006114e9612398565b83836020015160405160200161150193929190615073565b60408051601f1981840301815290829052805160209091012083517f2f3f50e00000000000000000000000000000000000000000000000000000000083529092506001600160a01b037f00000000000000000000000000000000000000000000000000000000000000001691632f3f50e091611583918891869160040161517d565b6000604051808303816000875af11580156115a2573d6000803e3d6000fd5b505050506040513d6000823e601f3d908101601f191682016040526115ca9190810190614b1a565b5080847f755ecfca2f6e66af8868551556bf7931740a7062db8e0882f4c322fdb0bb3f6085856115f8612398565b604051611607939291906151c5565b60405180910390a350505050565b6000806116288b8b8b8b8b8b8b8b610c57565b909b5090506116388b828561255f565b7f00000000000000000000000000000000000000000000000000000000000000006001600160a01b031663f434c9146040518163ffffffff1660e01b8152600401602060405180830381865afa158015611696573d6000803e3d6000fd5b505050506040513d601f19601f820116820180604052508101906116ba91906147c0565b6001600160a01b03166305d2912e306040518060600160405280600660009054906101000a90046001600160a01b03166001600160a01b031681526020018f8152602001600780548060200260200160405190810160405280929190818152602001828054801561174a57602002820191906000526020600020905b815481526020019060010190808311611736575b50505050508152506040518363ffffffff1660e01b815260040161176f929190615204565b600060405180830381600087803b15801561178957600080fd5b505af115801561179d573d6000803e3d6000fd5b505050508a9150995099975050505050505050565b60006117bd836123a7565b90507f00000000000000000000000000000000000000000000000000000000000000006001600160a01b0316631f47ce696040518163ffffffff1660e01b8152600401602060405180830381865afa15801561181d573d6000803e3d6000fd5b505050506040513d601f19601f8201168201806040525081019061184191906147c0565b6001600160a01b031663f434c9146040518163ffffffff1660e01b8152600401602060405180830381865afa15801561187e573d6000803e3d6000fd5b505050506040513d601f19601f820116820180604052508101906118a291906147c0565b6001600160a01b0316630f5932f06118b8612398565b3086856040518563ffffffff1660e01b81526004016118da9493929190615041565b602060405180830381865afa1580156118f7573d6000803e3d6000fd5b505050506040513d601f19601f8201168201806040525081019061191b9190614f5d565b611938576040516331fb21f360e01b815260040160405180910390fd5b7f00000000000000000000000000000000000000000000000000000000000000006001600160a01b0316631f47ce696040518163ffffffff1660e01b8152600401602060405180830381865afa158015611996573d6000803e3d6000fd5b505050506040513d601f19601f820116820180604052508101906119ba91906147c0565b6001600160a01b031663f434c9146040518163ffffffff1660e01b8152600401602060405180830381865afa1580156119f7573d6000803e3d6000fd5b505050506040513d601f19601f82011682018060405250810190611a1b91906147c0565b6001600160a01b03166305d2912e306040518060600160405280611a3d612398565b6001600160a01b0316815260208082018990526040805160008152918201815291820152516001600160e01b031960e085901b168152611a81929190600401615204565b600060405180830381600087803b158015611a9b57600080fd5b505af1158015611aaf573d6000803e3d6000fd5b505050507f00000000000000000000000000000000000000000000000000000000000000006001600160a01b0316631f47ce696040518163ffffffff1660e01b8152600401602060405180830381865afa158015611b11573d6000803e3d6000fd5b505050506040513d601f19601f82011682018060405250810190611b3591906147c0565b6001600160a01b031663f434c9146040518163ffffffff1660e01b8152600401602060405180830381865afa158015611b72573d6000803e3d6000fd5b505050506040513d601f19601f82011682018060405250810190611b9691906147c0565b6001600160a01b03166305d2912e306040518060600160405280866001600160a01b03168152602001878152602001858152506040518363ffffffff1660e01b8152600401611be6929190615204565b600060405180830381600087803b158015611c0057600080fd5b505af1158015611c14573d6000803e3d6000fd5b50505050816001600160a01b0316837f0329d6a81434b130c72eb65eea0e32e429dc1277b4aad86ec86454aefb618451611c4c612398565b6040516001600160a01b03909116815260200160405180910390a3505050565b600080600080611c7d8a8888612748565b9250925092508a600003611d58577f00000000000000000000000000000000000000000000000000000000000000006001600160a01b0316630634bae9308c6000015160400151868d8f6000015160200151604051602001611cdf9190615247565b6040516020818303038152906040526040518663ffffffff1660e01b8152600401611d0e95949392919061569a565b6020604051808303816000875af1158015611d2d573d6000803e3d6000fd5b505050506040513d601f19601f82011682018060405250810190611d519190614cec565b9a50611e16565b7f00000000000000000000000000000000000000000000000000000000000000006001600160a01b0316631ea7bc8c8c858c8e6000015160200151604051602001611da39190615247565b6040516020818303038152906040526040518563ffffffff1660e01b8152600401611dd19493929190615702565b6020604051808303816000875af1158015611df0573d6000803e3d6000fd5b505050506040513d601f19601f82011682018060405250810190611e149190614cec565b505b8080611e4657508960600151600081518110611e3457611e34614b04565b60200260200101516020015151600014155b15611e6857611e5862278d0042614af1565b60008c8152600160205260409020555b7f00000000000000000000000000000000000000000000000000000000000000006001600160a01b031663581781918c8c60000151600001518d60000151602001518e60000151606001516040518563ffffffff1660e01b8152600401611ed29493929190615741565b6020604051808303816000875af1158015611ef1573d6000803e3d6000fd5b505050506040513d601f19601f82011682018060405250810190611f1591906147c0565b5087516001600160a01b031615611f3057611f308b89612b0f565b7f00000000000000000000000000000000000000000000000000000000000000006001600160a01b031663dd5f214a8c6000611f6f8e60400151612c6f565b6040518463ffffffff1660e01b8152600401611f8d9392919061577e565b600060405180830381600087803b158015611fa757600080fd5b505af1158015611fbb573d6000803e3d6000fd5b50505050611fc98b8b612dad565b600060405180606001604052808c604001516001600160a01b031681526020018d8152602001611ff88e6123a7565b81525090507f00000000000000000000000000000000000000000000000000000000000000006001600160a01b031663f434c9146040518163ffffffff1660e01b8152600401602060405180830381865afa15801561205b573d6000803e3d6000fd5b505050506040513d601f19601f8201168201806040525081019061207f91906147c0565b6001600160a01b03166305d2912e30836040518363ffffffff1660e01b81526004016120ac929190615204565b600060405180830381600087803b1580156120c657600080fd5b505af11580156120da573d6000803e3d6000fd5b5060009250600191506120ea9050565b604051908082528060200260200182016040528015612113578160200160208202803683370190505b509050601c8160008151811061212b5761212b614b04565b60200260200101818152505060405180606001604052807f00000000000000000000000000000000000000000000000000000000000000006001600160a01b031681526020018e81526020018281525091507f00000000000000000000000000000000000000000000000000000000000000006001600160a01b031663f434c9146040518163ffffffff1660e01b8152600401602060405180830381865afa1580156121db573d6000803e3d6000fd5b505050506040513d601f19601f820116820180604052508101906121ff91906147c0565b6001600160a01b03166305d2912e30846040518363ffffffff1660e01b815260040161222c929190615204565b600060405180830381600087803b15801561224657600080fd5b505af115801561225a573d6000803e3d6000fd5b5050505060208701511561233a577f00000000000000000000000000000000000000000000000000000000000000006001600160a01b0316632f3f50e08e6122a0612398565b878b602001516040516020016122b893929190615073565b60408051601f198184030181529082905280516020909101208b516001600160e01b031960e086901b1683526122f1939260040161517d565b6000604051808303816000875af1158015612310573d6000803e3d6000fd5b505050506040513d6000823e601f3d908101601f191682016040526123389190810190614b1a565b505b8c7fb00ad164380340ee6f18ec73024e25d390aa777602a69ede3c2da4d2b6cbc8418d8d8d8b8a8a8a61236b612398565b60405161237f989796959493929190615935565b60405180910390a2509a9b9a5050505050505050505050565b60006123a2612f06565b905090565b6060600060038054806020026020016040519081016040528092919081815260200182805480156123f757602002820191906000526020600020905b8154815260200190600101908083116123e3575b5050835160008881526004602090815260408083208054825181850281018501909352808352989950939792965094509192509083018282801561245a57602002820191906000526020600020905b815481526020019060010190808311612446575b505083519394506124719250839150859050614af1565b67ffffffffffffffff811115612489576124896133e3565b6040519080825280602002602001820160405280156124b2578160200160208202803683370190505b50945060005b838110156124ff578481815181106124d2576124d2614b04565b60200260200101518682815181106124ec576124ec614b04565b60209081029190910101526001016124b8565b5060005b818110156125555782818151811061251d5761251d614b04565b60200260200101518682866125329190614af1565b8151811061254257612542614b04565b6020908102919091010152600101612503565b5050505050919050565b805160008167ffffffffffffffff81111561257c5761257c6133e3565b6040519080825280602002602001820160405280156125ef57816020015b6125dc6040518060c0016040528060006001600160a01b0316815260200160008152602001600081526020016000815260200160008152602001606081525090565b81526020019060019003908161259a5790505b5090506126246040518060a0016040528060008152602001600081526020016000815260200160008152602001606081525090565b60005b838110156126ba5784818151811061264157612641614b04565b602002602001015191506040518060c00160405280876001600160a01b031681526020018360000151815260200183602001518152602001836040015181526020018360600151815260200183608001518152508382815181106126a7576126a7614b04565b6020908102919091010152600101612627565b50835115612740576006546040517fab54877a0000000000000000000000000000000000000000000000000000000081526001600160a01b039091169063ab54877a9061270d9089908690600401615a88565b600060405180830381600087803b15801561272757600080fd5b505af115801561273b573d6000803e3d6000fd5b505050505b505050505050565b6060838101515181906000908067ffffffffffffffff81111561276d5761276d6133e3565b60405190808252806020026020018201604052801561285f57816020015b61284c6040805161010080820183526000808352602080840182905283850182905260608085018390526080808601849052865161020081018852848152928301849052958201839052810182905293840181905260a084810182905260c0850182905260e0850182905291840181905261012084018190526101408401819052610160840181905261018084018190526101a084018190526101c084018190526101e0840152909190820190815260200160608152602001606081525090565b81526020019060019003908161278b5790505b50935061286b87612f7b565b6040805160e08101825260008082526060602083018190529282018190529181018290526080810182905260a0810182905260c081018290529194505b82811015612b0357886060015181815181106128c6576128c6614b04565b60200260200101519150816000015164ffffffffff168682815181106128ee576128ee614b04565b60200260200101516000018181525050816080015164ffffffffff1686828151811061291c5761291c614b04565b6020026020010151602001818152505081606001516dffffffffffffffffffffffffffff1686828151811061295357612953614b04565b602002602001015160400181815250508160a0015163ffffffff1686828151811061298057612980614b04565b6020026020010151606001818152505060008682815181106129a4576129a4614b04565b6020026020010151608001906001600160a01b031690816001600160a01b031681525050604051806102000160405280836040015161ffff1681526020018360c0015161ffff166127106129f89190615b3a565b815260208b81015163ffffffff16908201526000604082018190526060820181905260016080830181905260a0830182905260c0830182905260e083018290526101008301829052610120830182905261014083018290526101608301526101808201526001600160a01b038a166101a08201526101c0018890528651879083908110612a8757612a87614b04565b602002602001015160a00181905250806000148015612aad5750815164ffffffffff1615155b8015612ac3575042826000015164ffffffffff16105b15612acd57600193505b84612ad88383612fb5565b604051602001612ae9929190615b4d565b60408051601f1981840301815291905294506001016128a8565b50505093509350939050565b602081810151516040805160808101825260008082529381018490529081018390526060810183905290915b82811015612c2e5783602001518181518110612b5957612b59614b04565b6020908102919091018101518551918101516040808301516060840151845192517f7b621d3a000000000000000000000000000000000000000000000000000000008152600481018c905262ffffff909416602485015263ffffffff91821660448501521660648301526001600160a01b039081166084830152919450911690637b621d3a9060a4016020604051808303816000875af1158015612c01573d6000803e3d6000fd5b505050506040513d601f19601f82011682018060405250810190612c2591906147c0565b50600101612b3b565b50509051600092835260208390526040909220805473ffffffffffffffffffffffffffffffffffffffff19166001600160a01b039093169290921790915550565b604080516001808252818301909252606091816020015b604080518082019091526000815260606020820152815260200190600190039081612c8657505060408051600180825281830190925291925060009190602082015b6040805160c08101825260008082526020808301829052928201819052606082018190526080820181905260a08201528252600019909201910181612cc85790505090506040518060c00160405280600015158152602001633b9aca00815260200160008152602001846001600160a01b031681526020016000815260200160006001600160a01b031681525081600081518110612d6857612d68614b04565b60200260200101819052506040518060400160405280600181526020018281525082600081518110612d9c57612d9c614b04565b602002602001018190525050919050565b606080820151516040805160e0810182526000808252602082018590529181018290529283018190526080830181905260a0830181905260c08301529060005b82811015612eff5783606001518181518110612e0b57612e0b614b04565b6020026020010151915060008260200151519050612e4c6040518060600160405280600081526020016000815260200160006001600160a01b031681525090565b60005b82811015612ef45784602001518181518110612e6d57612e6d614b04565b6020026020010151915046826000015103612eec5760208083015160008a81526002909252604082209091612ea28742614af1565b8152602001908152602001600020600084604001516001600160a01b03166001600160a01b031681526020019081526020016000206000828254612ee69190614af1565b90915550505b600101612e4f565b505050600101612ded565b5050505050565b6000366014336001600160a01b037f000000000000000000000000000000000000000000000000000000000000000016148015612f435750808210155b15612f7357600036612f558385615b3a565b612f60928290615b7c565b612f6991615ba6565b60601c9250505090565b339250505090565b60208082015182518051818401516060928301516040519395612f9f959401615bd9565b6040516020818303038152906040529050919050565b606081158015612fcb5750825164ffffffffff16155b612fdd57825164ffffffffff16612fdf565b425b6040808501516060860151608087015160a088015160c0890151945161305096959060200195865261ffff94851660208701526dffffffffffffffffffffffffffff93909316604086015264ffffffffff91909116606085015263ffffffff1660808401521660a082015260c00190565b60408051601f1981840301815291905260208401515190915060005b818110156130c6578261309b8660200151838151811061308e5761308e614b04565b60200260200101516130ce565b6040516020016130ac929190615b4d565b60408051601f19818403018152919052925060010161306c565b505092915050565b6060816000015182604001518360200151604051602001612f9f939291909283526001600160a01b03919091166020830152604082015260600190565b60006020828403121561311d57600080fd5b81356001600160e01b03198116811461313557600080fd5b9392505050565b6001600160a01b038116811461315157600080fd5b50565b803561315f8161313c565b919050565b60008060008060006080868803121561317c57600080fd5b85356131878161313c565b945060208601356131978161313c565b935060408601359250606086013567ffffffffffffffff808211156131bb57600080fd5b818801915088601f8301126131cf57600080fd5b8135818111156131de57600080fd5b8960208285010111156131f057600080fd5b9699959850939650602001949392505050565b60006020828403121561321557600080fd5b5035919050565b60006020828403121561322e57600080fd5b813567ffffffffffffffff81111561324557600080fd5b8201610180818503121561313557600080fd5b60005b8381101561327357818101518382015260200161325b565b50506000910152565b60008151808452613294816020860160208601613258565b601f01601f19169290920160200192915050565b600082825180855260208086019550808260051b84010181860160005b8481101561331c57858303601f19018952815180516001600160a01b0316845284810151858501526040908101516060918501829052906133088186018361327c565b9a86019a94505050908301906001016132c5565b5090979650505050505050565b82815260406020820152600061334260408301846132a8565b949350505050565b60006020828403121561335c57600080fd5b81356131358161313c565b60008060006060848603121561337c57600080fd5b833592506020840135915060408401356133958161313c565b809150509250925092565b60208152600061313560208301846132a8565b600080604083850312156133c657600080fd5b8235915060208301356133d88161313c565b809150509250929050565b634e487b7160e01b600052604160045260246000fd5b6040516060810167ffffffffffffffff8111828210171561341c5761341c6133e3565b60405290565b60405160e0810167ffffffffffffffff8111828210171561341c5761341c6133e3565b6040516080810167ffffffffffffffff8111828210171561341c5761341c6133e3565b6040805190810167ffffffffffffffff8111828210171561341c5761341c6133e3565b604051610180810167ffffffffffffffff8111828210171561341c5761341c6133e3565b604051610120810167ffffffffffffffff8111828210171561341c5761341c6133e3565b60405160a0810167ffffffffffffffff8111828210171561341c5761341c6133e3565b604051601f8201601f1916810167ffffffffffffffff8111828210171561351f5761351f6133e3565b604052919050565b600067ffffffffffffffff821115613541576135416133e3565b50601f01601f191660200190565b600082601f83011261356057600080fd5b813561357361356e82613527565b6134f6565b81815284602083860101111561358857600080fd5b816020850160208301376000918101602001919091529392505050565b803563ffffffff8116811461315f57600080fd5b600067ffffffffffffffff8211156135d3576135d36133e3565b5060051b60200190565b803564ffffffffff8116811461315f57600080fd5b600082601f83011261360357600080fd5b8135602061361361356e836135b9565b8281526060928302850182019282820191908785111561363257600080fd5b8387015b8581101561331c5781818a03121561364e5760008081fd5b6136566133f9565b8135815285820135868201526040808301356136718161313c565b908201528452928401928101613636565b803561ffff8116811461315f57600080fd5b80356dffffffffffffffffffffffffffff8116811461315f57600080fd5b600082601f8301126136c357600080fd5b813560206136d361356e836135b9565b82815260059290921b840181019181810190868411156136f257600080fd5b8286015b848110156137d457803567ffffffffffffffff808211156137175760008081fd5b9088019060e0828b03601f19018113156137315760008081fd5b613739613422565b6137448885016135dd565b81526040808501358481111561375a5760008081fd5b6137688e8b838901016135f2565b8a840152506060935061377c848601613682565b90820152608061378d858201613694565b8483015260a093506137a08486016135dd565b9082015260c06137b18582016135a5565b848301526137c0838601613682565b9082015286525050509183019183016136f6565b509695505050505050565b6000608082840312156137f157600080fd5b6137f9613445565b9050813567ffffffffffffffff8082111561381357600080fd5b908301906080828603121561382757600080fd5b61382f613445565b82358281111561383e57600080fd5b61384a8782860161354f565b82525060208301358281111561385f57600080fd5b61386b8782860161354f565b60208301525060408301358281111561388357600080fd5b61388f8782860161354f565b6040830152506060838101359082015283526138ad602085016135a5565b60208401526138be60408501613154565b604084015260608401359150808211156138d757600080fd5b506138e4848285016136b2565b60608301525092915050565b600082601f83011261390157600080fd5b8135602061391161356e836135b9565b8083825260208201915060208460051b87010193508684111561393357600080fd5b602086015b848110156137d457803561394b8161313c565b8352918301918301613938565b600082601f83011261396957600080fd5b8135602061397961356e836135b9565b82815260059290921b8401810191818101908684111561399857600080fd5b8286015b848110156137d457803567ffffffffffffffff808211156139bd5760008081fd5b908801906040828b03601f19018113156139d75760008081fd5b6139df613468565b878401356139ec8161313c565b8152908301359082821115613a015760008081fd5b613a0f8c89848701016138f0565b81890152865250505091830191830161399c565b803562ffffff8116811461315f57600080fd5b60006040808385031215613a4957600080fd5b613a51613468565b91508235613a5e8161313c565b825260208381013567ffffffffffffffff811115613a7b57600080fd5b8401601f81018613613a8c57600080fd5b8035613a9a61356e826135b9565b81815260079190911b82018301908381019088831115613ab957600080fd5b928401925b82841015613b2d576080848a031215613ad75760008081fd5b613adf613445565b8435613aea8161313c565b8152613af7858701613a23565b86820152613b068786016135a5565b878201526060613b178187016135a5565b9082015282526080939093019290840190613abe565b808588015250505050505092915050565b600060408284031215613b5057600080fd5b613b58613468565b905067ffffffffffffffff8083351115613b7157600080fd5b8235830184601f820112613b8457600080fd5b613b9161356e82356135b9565b81358082526020808301929160051b84010187811115613bb057600080fd5b602084015b81811015613cf5578581351115613bcb57600080fd5b803585016040818b03601f19011215613be357600080fd5b613beb613468565b613bf8602083013561313c565b602082013581528760408301351115613c1057600080fd5b6040820135820191508a603f830112613c2857600080fd5b6020820135613c3961356e826135b9565b81815260079190911b83016040019060208101908d831115613c5a57600080fd5b6040850194505b82851015613cd6576080858f031215613c7957600080fd5b613c81613445565b613c8b863561313c565b85358152613c9b602087016135a5565b6020820152613cad604087013561313c565b604086013560408201526060860135606082015280835250602082019150608085019450613c61565b8060208501525050508086525050602084019350602081019050613bb5565b5050808552505050506020820135602082015292915050565b600080600080600060a08688031215613d2657600080fd5b85359450602086013567ffffffffffffffff80821115613d4557600080fd5b613d5189838a016137df565b95506040880135915080821115613d6757600080fd5b613d7389838a01613958565b94506060880135915080821115613d8957600080fd5b613d9589838a01613a36565b93506080880135915080821115613dab57600080fd5b50613db888828901613b3e565b9150509295509295909350565b600082601f830112613dd657600080fd5b81356020613de661356e836135b9565b82815260059290921b84018101918181019086841115613e0557600080fd5b8286015b848110156137d457803567ffffffffffffffff80821115613e2a5760008081fd5b908801906060828b03601f1901811315613e445760008081fd5b613e4c6133f9565b87840135613e598161313c565b815260408481013589830152918401359183831115613e785760008081fd5b613e868d8a8588010161354f565b908201528652505050918301918301613e09565b600080600080600080600060e0888a031215613eb557600080fd5b87359650602088013567ffffffffffffffff80821115613ed457600080fd5b613ee08b838c016137df565b975060408a0135915080821115613ef657600080fd5b613f028b838c01613958565b965060608a0135915080821115613f1857600080fd5b613f248b838c01613a36565b955060808a0135915080821115613f3a57600080fd5b613f468b838c01613b3e565b945060a08a0135915080821115613f5c57600080fd5b50613f698a828b01613dc5565b925050613f7860c08901613682565b905092959891949750929550565b80356cffffffffffffffffffffffffff8116811461315f57600080fd5b801515811461315157600080fd5b803561315f81613fa3565b803560ff8116811461315f57600080fd5b60006080808385031215613fe057600080fd5b613fe8613445565b9150823567ffffffffffffffff81111561400157600080fd5b8301601f8101851361401257600080fd5b8035602061402261356e836135b9565b828152610180928302840182019282820191908985111561404257600080fd5b948301945b848610156141355780868b03121561405f5760008081fd5b61406761348b565b61407087613f86565b815261407d8588016135a5565b85820152604061408e8189016135a5565b90820152606061409f888201613682565b908201526140ae878901613154565b8189015260a0878101359082015260c06140c9818901613a23565b9082015260e06140da888201613fb1565b908201526101006140ec888201613fb1565b908201526101206140fe888201613fb1565b90820152610140614110888201613fb1565b90820152610160614122888201613fb1565b9082015283529485019491830191614047565b508652506141448682016135a5565b818601525050505061415860408301613fbc565b604082015261416960608301613154565b606082015292915050565b60006080828403121561418657600080fd5b61418e613445565b9050813561419b81613fa3565b815260208201356141ab81613fa3565b602082015260408201356141be81613fa3565b6040820152606082013561416981613fa3565b6000608082840312156141e357600080fd5b6141eb613445565b9050813567ffffffffffffffff8082111561420557600080fd5b90830190610180828603121561421a57600080fd5b6142226134af565b82358281111561423157600080fd5b61423d8782860161354f565b82525060208301358281111561425257600080fd5b61425e8782860161354f565b60208301525061427060408401613154565b604082015260608301358281111561428757600080fd5b6142938782860161354f565b6060830152506142a560808401613154565b608082015260a0830135828111156142bc57600080fd5b6142c88782860161354f565b60a08301525060c0830135828111156142e057600080fd5b6142ec87828601613fcd565b60c0830152506142fe60e08401613154565b60e0820152610100915061431486838501614174565b8282015280845250505061432a60208301613fb1565b602082015261433b60408301613fb1565b604082015261416960608301613fb1565b600080600080600080600080610100898b03121561436957600080fd5b88359750602089013567ffffffffffffffff8082111561438857600080fd5b6143948c838d016137df565b985060408b01359150808211156143aa57600080fd5b6143b68c838d01613958565b975060608b01359150808211156143cc57600080fd5b6143d88c838d01613a36565b965060808b01359150808211156143ee57600080fd5b6143fa8c838d01613b3e565b955060a08b013591508082111561441057600080fd5b61441c8c838d016141d1565b945060c08b013591508082111561443257600080fd5b5061443f8b828c01613dc5565b92505061444e60e08a01613682565b90509295985092959890939650565b60006020828403121561446f57600080fd5b813567ffffffffffffffff81111561448657600080fd5b82016101a0818503121561313557600080fd5b60006080820186835260208681850152604086604086015260606080606087015283875180865260a08801915060a08160051b890101955084890160005b8281101561452757898803609f19018452815180516001600160a01b0316895287810151888a0152860151868901869052614514868a018261327c565b98505092860192908601906001016144d7565b50959c9b505050505050505050505050565b60008060006060848603121561454e57600080fd5b83359250602084013567ffffffffffffffff8082111561456d57600080fd5b6145798783880161354f565b9350604086013591508082111561458f57600080fd5b5061459c86828701613b3e565b9150509250925092565b600082601f8301126145b757600080fd5b813560206145c761356e836135b9565b82815260059290921b840181019181810190868411156145e657600080fd5b8286015b848110156137d457803567ffffffffffffffff8082111561460b5760008081fd5b9088019060a0828b03601f19018113156146255760008081fd5b61462d6134d3565b878401358152604080850135898301526060808601358284015260809150818601358184015250828501359250838311156146685760008081fd5b6146768d8a858801016138f0565b9082015286525050509183019183016145ea565b60008060008060008060008060006101208a8c0312156146a957600080fd5b8935985060208a013567ffffffffffffffff808211156146c857600080fd5b6146d48d838e016137df565b995060408c01359150808211156146ea57600080fd5b6146f68d838e01613958565b985060608c013591508082111561470c57600080fd5b6147188d838e01613a36565b975060808c013591508082111561472e57600080fd5b61473a8d838e01613b3e565b965060a08c013591508082111561475057600080fd5b61475c8d838e016141d1565b955060c08c013591508082111561477257600080fd5b61477e8d838e01613dc5565b945061478c60e08d01613682565b93506101008c01359150808211156147a357600080fd5b506147b08c828d016145a6565b9150509295985092959850929598565b6000602082840312156147d257600080fd5b81516131358161313c565b80356147e88161313c565b6001600160a01b031682526020818101359083015260408082013590830152606090810135910152565b6000808335601e1984360301811261482957600080fd5b830160208101925035905067ffffffffffffffff81111561484957600080fd5b80360382131561485857600080fd5b9250929050565b81835281816020850137506000828201602090810191909152601f909101601f19169091010190565b602081526148a96020820161489c84613154565b6001600160a01b03169052565b60006148b760208401613154565b6001600160a01b0381166040840152506148d760608301604085016147dd565b60c083013560e083015261010060e0840135818401526148f8818501613154565b9050610120614911818501836001600160a01b03169052565b6101409150808501358285015250610160818501358185015261493681860186614812565b61018086810152925090506149506101a08501838361485f565b95945050505050565b600080604080848603121561496d57600080fd5b8351925060208085015167ffffffffffffffff8082111561498d57600080fd5b818701915087601f8301126149a157600080fd5b81516149af61356e826135b9565b81815260059190911b8301840190848101908a8311156149ce57600080fd5b8585015b83811015614a8f578051858111156149e957600080fd5b86016060818e03601f19011215614a005760008081fd5b614a086133f9565b88820151614a158161313c565b8152818a015189820152606082015187811115614a325760008081fd5b8083019250508d603f830112614a485760008081fd5b88820151614a5861356e82613527565b8181528f8c838601011115614a6d5760008081fd5b614a7c828c83018e8701613258565b828c0152508452509186019186016149d2565b50809750505050505050509250929050565b600181811c90821680614ab557607f821691505b602082108103614ad557634e487b7160e01b600052602260045260246000fd5b50919050565b634e487b7160e01b600052601160045260246000fd5b808201808211156104fc576104fc614adb565b634e487b7160e01b600052603260045260246000fd5b60006020808385031215614b2d57600080fd5b825167ffffffffffffffff811115614b4457600080fd5b8301601f81018513614b5557600080fd5b8051614b6361356e826135b9565b81815260059190911b82018301908381019087831115614b8257600080fd5b928401925b82841015614ba9578351614b9a8161313c565b82529284019290840190614b87565b979650505050505050565b601f821115614bfc576000816000526020600020601f850160051c81016020861015614bdd5750805b601f850160051c820191505b8181101561274057828155600101614be9565b505050565b815167ffffffffffffffff811115614c1b57614c1b6133e3565b614c2f81614c298454614aa1565b84614bb4565b602080601f831160018114614c645760008415614c4c5750858301515b600019600386901b1c1916600185901b178555612740565b600085815260208120601f198616915b82811015614c9357888601518255948401946001909101908401614c74565b5085821015614cb15787850151600019600388901b60f8161c191681555b5050505050600190811b01905550565b604081526000614cd460408301856132a8565b90506001600160a01b03831660208301529392505050565b600060208284031215614cfe57600080fd5b5051919050565b80516080808452815184820181905260009260a0916020918201918388019190865b82811015614dea57845180516cffffffffffffffffffffffffff1685528281015163ffffffff908116848701526040808301519091169086015260608082015161ffff1690860152878101516001600160a01b031688860152868101518786015260c08082015162ffffff169086015260e080820151151590860152610100808201511515908601526101208082015115159086015261014080820151151590860152610160908101511515908501529381019361018090930192600101614d27565b508781015163ffffffff16908901525060408087015160ff16908801526060808701516001600160a01b038116918901919091529350610b3d565b82815260406020820152600082516101806040840152614e496101c084018261327c565b90506020840151603f1980858403016060860152614e67838361327c565b925060408601519150614e8560808601836001600160a01b03169052565b60608601519150808584030160a0860152614ea0838361327c565b925060808601519150614ebe60c08601836001600160a01b03169052565b60a08601519150808584030160e0860152614ed9838361327c565b925060c08601519150610100818685030181870152614ef88484614d05565b935060e08701519250614f176101208701846001600160a01b03169052565b860151805115156101408701526020810151151561016087015260408101511515610180870152606081015115156101a08701529150614f549050565b50949350505050565b600060208284031215614f6f57600080fd5b815161313581613fa3565b805161315f8161313c565b60006101208284031215614f9857600080fd5b614fa06134af565b825181526020830151602082015260408301516040820152606083015160608201526080830151608082015260a083015160a082015260c083015160c0820152614fec60e08401614f7a565b60e0820152610100928301519281019290925250919050565b60008151808452602080850194506020840160005b838110156150365781518752958201959082019060010161501a565b509495945050505050565b60006001600160a01b03808716835280861660208401525083604083015260806060830152610b3d6080830184615005565b6bffffffffffffffffffffffff198460601b1681526000835161509d816014850160208801613258565b60149201918201929092526034019392505050565b600082825180855260208086019550808260051b8401018186016000805b8581101561516f57868403601f19018a52825180516001600160a01b03908116865290860151604087870181905281518188018190529188019290916060919082890190875b818110156151575786518051851684528c81015163ffffffff168d8501528681015185168785015285015185840152958b0195608090920191600101615116565b50509d89019d975050509386019350506001016150d0565b509198975050505050505050565b83815282602082015260606040820152600061495060608301846150b2565b60008151604084526151b160408501826150b2565b602093840151949093019390935250919050565b6060815260006151d8606083018661327c565b82810360208401526151ea818661519c565b9150506001600160a01b0383166040830152949350505050565b60006001600160a01b03808516835260406020840152808451166040840152506020830151606083015260408301516060608084015261495060a0840182615005565b7f240000000000000000000000000000000000000000000000000000000000000081526000825161527f816001850160208701613258565b7f207265766e6574206465706c6f796564000000000000000000000000000000006001939091019283015250601101919050565b80518252602081015160208301526040810151604083015260608101516152de606084018215159052565b5060808101516152f2608084018215159052565b5060a081015161530660a084018215159052565b5060c081015161531a60c084018215159052565b5060e081015161532e60e084018215159052565b5061010081810151151590830152610120808201511515908301526101408082015115159083015261016080820151151590830152610180808201511515908301526101a0808201511515908301526101c0808201516001600160a01b0316908301526101e090810151910152565b600082825180855260208086019550808260051b8401018186016000805b8581101561516f57868403601f19018a52825180518552850151604086860181905281518187018190529187019160609081880190865b8181101561544c5785518051151584528b8101518c8501528581015186850152848101516001600160a01b03908116868601526080808301519086015260a0918201511690840152948a019460c0909201916001016153f2565b50509c88019c9650505092850192506001016153bb565b60008151808452602080850194506020840160005b83811015615036578151805188528301518388015260409096019590820190600101615478565b600082825180855260208086019550808260051b84010181860160005b8481101561331c57601f19868403018952815160806001600160a01b038083511686528087840151168787015250604080830151828288015261550183880182615463565b925050506060808301519250858203818701525061551f8183615463565b9a86019a94505050908301906001016154bc565b600082825180855260208086019550808260051b84010181860160005b8481101561331c57858303601f19018952815180518452848101518585015260408082015190850152606080820151908501526080808201516001600160a01b03169085015260a0808201516102e091906155ad828801826152b3565b505060c0820151816102a08701526155c78287018261539d565b91505060e082015191508481036102c08601526155e4818361549f565b9a86019a9450505090830190600101615550565b60008151808452602080850194506020840160005b838110156150365781516001600160a01b03168752958201959082019060010161560d565b600082825180855260208086019550808260051b84010181860160005b8481101561331c57858303601f19018952815180516001600160a01b031684528401516040858501819052615686818601836155f8565b9a86019a945050509083019060010161564f565b6001600160a01b038616815260a0602082015260006156bc60a083018761327c565b82810360408401526156ce8187615533565b905082810360608401526156e28186615632565b905082810360808401526156f6818561327c565b98975050505050505050565b84815260806020820152600061571b6080830186615533565b828103604084015261572d8186615632565b90508281036060840152614ba9818561327c565b84815260806020820152600061575a608083018661327c565b828103604084015261576c818661327c565b91505082606083015295945050505050565b838152826020820152606060408201526000614950606083018461539d565b600082825180855260208086019550808260051b8401018186016000805b8581101561516f57868403601f19018a528251805164ffffffffff1685528581015160e0878701819052815190870181905261010087019188019085905b80821015615838578251805185528a8101518b8601526040908101516001600160a01b03169085015260609093019291890191600191909101906157f9565b50505060408281015161ffff908116918801919091526060808401516dffffffffffffffffffffffffffff169088015260808084015164ffffffffff169088015260a08084015163ffffffff169088015260c09283015116919095015298840198918401916001016157bb565b600060408084016001600160a01b038085511686526020808601516040828901528381518086526060955060608a019150838301925060005b818110156159265783518051871684528581015162ffffff16868501528881015163ffffffff9081168a860152908801511687840152928401926080909201916001016158de565b50909998505050505050505050565b60006101008083528a5160808285015280519150608061018085015261595f61020085018361327c565b9150602081015161017f1980868503016101a087015261597f848361327c565b93506040830151915080868503016101c08701525061599e838261327c565b92505060608101516101e08501525060208b01516159c561012085018263ffffffff169052565b5060408b01516001600160a01b031661014084015260608b015183820360ff19016101608501526159f6828261579d565b9150508281036020840152615a0b818b615632565b90508281036040840152615a1f818a6158a5565b90508281036060840152615a33818961519c565b90508281036080840152615a478188615533565b905082810360a0840152615a5b818761327c565b915050615a6c60c083018515159052565b6001600160a01b03831660e08301529998505050505050505050565b6000604080830185845260206040818601528186518084526060935060608701915060608160051b88010183890160005b83811015615b2a57898303605f19018552815180516001600160a01b031684528681015187850152888101518985015287810151888501526080808201519085015260a09081015160c091850182905290615b16818601836155f8565b968801969450505090850190600101615ab9565b50909a9950505050505050505050565b818103818111156104fc576104fc614adb565b60008351615b5f818460208801613258565b835190830190615b73818360208801613258565b01949350505050565b60008085851115615b8c57600080fd5b83861115615b9957600080fd5b5050820193919092039150565b6bffffffffffffffffffffffff1981358181169160148510156130c65760149490940360031b84901b1690921692915050565b63ffffffff8516815260806020820152600061575a608083018661327c56fea2646970667358221220ce4bf368716a5b681b73f07ce1265057fb5f50ed96cca4da8d7743c2000b8d8c64736f6c63430008170033",
			"deployedBytecode": "0x608060405234801561001057600080fd5b506004361061018d5760003560e01c80639c62f179116100e3578063b5d255331161008c578063dbfbe5da11610066578063dbfbe5da1461044c578063eb5ad9d91461045f578063ee0fc1211461047257600080fd5b8063b5d25533146103ff578063bb19940214610426578063bd43e7ba1461043957600080fd5b8063aaf320d7116100bd578063aaf320d7146103a0578063abf8c5c8146103c3578063ad62f1ca146103ea57600080fd5b80639c62f179146103535780639d82ba25146103665780639fafd73c1461037057600080fd5b80635a31dc13116101455780637249a7731161011f5780637249a773146102d95780637da0a8771461031a5780639ab687261461034057600080fd5b80635a31dc13146102755780635c0a7cee146102a6578063677ce088146102c657600080fd5b806343681e151161017657806343681e15146101e65780634c4ffc7114610214578063572b6c051461023557600080fd5b806301ffc9a714610192578063150b7a02146101ba575b600080fd5b6101a56101a036600461310b565b610499565b60405190151581526020015b60405180910390f35b6101cd6101c8366004613164565b610502565b6040516001600160e01b031990911681526020016101b1565b6102066101f4366004613203565b60016020526000908152604090205481565b6040519081526020016101b1565b61022761022236600461321c565b6105ce565b6040516101b1929190613329565b6101a561024336600461334a565b7f000000000000000000000000b2b5841dbef766d4b521221732f9b618fcf34a876001600160a01b0390811691161490565b610206610283366004613367565b600260209081526000938452604080852082529284528284209052825290205481565b6102b96102b4366004613203565b6108d2565b6040516101b191906133a0565b6101a56102d43660046133b3565b6109f6565b6103026102e7366004613203565b6000602081905290815260409020546001600160a01b031681565b6040516001600160a01b0390911681526020016101b1565b7f000000000000000000000000b2b5841dbef766d4b521221732f9b618fcf34a87610302565b61020661034e366004613d0e565b610b2b565b610206610361366004613e9a565b610b47565b61020662278d0081565b61038361037e36600461434c565b610c57565b604080519283526001600160a01b039091166020830152016101b1565b6103b36103ae36600461445d565b610fa7565b6040516101b19493929190614499565b6103027f000000000000000000000000f2dee65acd9cca20692c19e9635274b9c9e3309a81565b6103fd6103f83660046133b3565b6110e4565b005b6103027f0000000000000000000000000c86d0204c6ece28122daec16c613d3b6994184581565b6103fd610434366004614539565b61135e565b61038361044736600461468a565b611615565b600654610302906001600160a01b031681565b6103fd61046d3660046133b3565b6117b2565b6103027f000000000000000000000000ff7e1c600b8af88de885a7c68c3e73740108242381565b60006001600160e01b031982167f81c03c2e0000000000000000000000000000000000000000000000000000000014806104fc57507f01ffc9a7000000000000000000000000000000000000000000000000000000006001600160e01b03198316145b92915050565b60007f000000000000000000000000ff7e1c600b8af88de885a7c68c3e7374010824236001600160a01b031663293c49996040518163ffffffff1660e01b8152600401602060405180830381865afa158015610562573d6000803e3d6000fd5b505050506040513d601f19601f8201168201806040525081019061058691906147c0565b6001600160a01b0316336001600160a01b0316146105a357600080fd5b507f150b7a020000000000000000000000000000000000000000000000000000000095945050505050565b60c081013560009081526020819052604081205460609081906001600160a01b0316801561068a576040517f4c4ffc710000000000000000000000000000000000000000000000000000000081526001600160a01b03821690634c4ffc719061063b908890600401614888565b600060405180830381865afa158015610658573d6000803e3d6000fd5b505050506040513d6000823e601f3d908101601f191682016040526106809190810190614959565b9094509150610693565b84610120013593505b815160c086013560009081526005602090815260408083208054825181850281018501909352808352941515949192909190849084015b828210156107ae576000848152602090819020604080516060810182526003860290920180546001600160a01b031683526001810154938301939093526002830180549293929184019161071d90614aa1565b80601f016020809104026020016040519081016040528092919081815260200182805461074990614aa1565b80156107965780601f1061076b57610100808354040283529160200191610796565b820191906000526020600020905b81548152906001019060200180831161077957829003601f168201915b505050505081525050815260200190600101906106ca565b505050509050600081519050826107c65760006107c9565b60015b6107d69060ff1682614af1565b67ffffffffffffffff8111156107ee576107ee6133e3565b60405190808252806020026020018201604052801561083b57816020015b6040805160608082018352600080835260208301529181019190915281526020019060019003908161080c5790505b50955060005b818110156108885782818151811061085b5761085b614b04565b602002602001015187828151811061087557610875614b04565b6020908102919091010152600101610841565b5082156108c857846000815181106108a2576108a2614b04565b60200260200101518682815181106108bc576108bc614b04565b60200260200101819052505b5050505050915091565b606060056000838152602001908152602001600020805480602002602001604051908101604052809291908181526020016000905b828210156109eb576000848152602090819020604080516060810182526003860290920180546001600160a01b031683526001810154938301939093526002830180549293929184019161095a90614aa1565b80601f016020809104026020016040519081016040528092919081815260200182805461098690614aa1565b80156109d35780601f106109a8576101008083540402835291602001916109d3565b820191906000526020600020905b8154815290600101906020018083116109b657829003601f168201915b50505050508152505081526020019060010190610907565b505050509050919050565b6000828152602081905260408120546001600160a01b0390811690831603610a20575060016104fc565b6040517f3d12cb87000000000000000000000000000000000000000000000000000000008152600481018490526000907f0000000000000000000000000c86d0204c6ece28122daec16c613d3b699418456001600160a01b031690633d12cb8790602401600060405180830381865afa158015610aa1573d6000803e3d6000fd5b505050506040513d6000823e601f3d908101601f19168201604052610ac99190810190614b1a565b805190915060005b81811015610b1f57828181518110610aeb57610aeb614b04565b60200260200101516001600160a01b0316856001600160a01b031603610b1757600193505050506104fc565b600101610ad1565b50600095945050505050565b6000610b3d8686868630600088611c6c565b9695505050505050565b6000610b5c88888888308761ffff168a611c6c565b835190985060005b81811015610c085760008a81526005602052604090208551869083908110610b8e57610b8e614b04565b6020908102919091018101518254600180820185556000948552938390208251600390920201805473ffffffffffffffffffffffffffffffffffffffff19166001600160a01b03909216919091178155918101519282019290925560408201516002820190610bfd9082614c01565b505050600101610b64565b50887fdfaf2737f25eace49d372b472ec03f1df0f9814dfc69d2b95c5e92a041f42e2985610c34612398565b604051610c42929190614cc1565b60405180910390a25096979650505050505050565b60008089808203610d53577f000000000000000000000000ff7e1c600b8af88de885a7c68c3e7374010824236001600160a01b031663293c49996040518163ffffffff1660e01b8152600401602060405180830381865afa158015610cc0573d6000803e3d6000fd5b505050506040513d601f19601f82011682018060405250810190610ce491906147c0565b6001600160a01b03166306661abd6040518163ffffffff1660e01b8152600401602060405180830381865afa158015610d21573d6000803e3d6000fd5b505050506040513d601f19601f82011682018060405250810190610d459190614cec565b610d50906001614af1565b9a505b84516000610d62826001614af1565b67ffffffffffffffff811115610d7a57610d7a6133e3565b604051908082528060200260200182016040528015610dc757816020015b60408051606080820183526000808352602083015291810191909152815260200190600190039081610d985790505b50905060005b82811015610e1457878181518110610de757610de7614b04565b6020026020010151828281518110610e0157610e01614b04565b6020908102919091010152600101610dcd565b507f000000000000000000000000f2dee65acd9cca20692c19e9635274b9c9e3309a6001600160a01b0316632230819f8e8a600001516040518363ffffffff1660e01b8152600401610e67929190614e25565b6020604051808303816000875af1158015610e86573d6000803e3d6000fd5b505050506040513d601f19601f82011682018060405250810190610eaa91906147c0565b9350876020015115610ed95760008d815260046020908152604082208054600181018255908352912060159101555b876040015115610f065760008d815260046020908152604082208054600181018255908352912060169101555b876060015115610f335760008d815260046020908152604082208054600181018255908352912060179101555b6040518060600160405280856001600160a01b031681526020016000815260200160405180602001604052806000815250815250818381518110610f7957610f79614b04565b6020026020010181905250610f93838d8d8d8d868c610b47565b508c94505050509850989650505050505050565b6000808060606001600160a01b037f0000000000000000000000000c86d0204c6ece28122daec16c613d3b69941845166383db9d0160408701803590610ff09060208a0161334a565b6040516001600160e01b031960e085901b16815260048101929092526001600160a01b03166024820152604401602060405180830381865afa15801561103a573d6000803e3d6000fd5b505050506040513d601f19601f8201168201806040525081019061105e9190614f5d565b1561107b5761271085608001358660a001359350935093506110dd565b6040808601356000908152600160205220544210156110c6576040517f04c3b3cd00000000000000000000000000000000000000000000000000000000815260040160405180910390fd5b84610160013585608001358660a001359350935093505b9193509193565b60007f000000000000000000000000ff7e1c600b8af88de885a7c68c3e7374010824236001600160a01b031663d4a1b4b16040518163ffffffff1660e01b8152600401602060405180830381865afa158015611144573d6000803e3d6000fd5b505050506040513d601f19601f8201168201806040525081019061116891906147c0565b6001600160a01b03166343a266c2846040518263ffffffff1660e01b815260040161119591815260200190565b61012060405180830381865afa1580156111b3573d6000803e3d6000fd5b505050506040513d601f19601f820116820180604052508101906111d79190614f85565b6000848152600260208181526040808420828601805186528184528286206001600160a01b038a16808852908552838720548b88529585529051865290835281852090855290915282208290559192508190036112345750505050565b6040517fc7fb92de00000000000000000000000000000000000000000000000000000000815260048101859052602481018290526001600160a01b03848116604483015260a06064830152600060a4830181905260848301527f000000000000000000000000ff7e1c600b8af88de885a7c68c3e737401082423169063c7fb92de9060c4016020604051808303816000875af11580156112d8573d6000803e3d6000fd5b505050506040513d601f19601f820116820180604052508101906112fc9190614cec565b50826001600160a01b03168260200151857f598baf7bf150ca2f42be9e9f8f55e81d45f5715c3ff22bf46d697fabec7f31d684336040516113509291909182526001600160a01b0316602082015260400190565b60405180910390a450505050565b7f000000000000000000000000ff7e1c600b8af88de885a7c68c3e7374010824236001600160a01b0316631f47ce696040518163ffffffff1660e01b8152600401602060405180830381865afa1580156113bc573d6000803e3d6000fd5b505050506040513d601f19601f820116820180604052508101906113e091906147c0565b6001600160a01b031663f434c9146040518163ffffffff1660e01b8152600401602060405180830381865afa15801561141d573d6000803e3d6000fd5b505050506040513d601f19601f8201168201806040525081019061144191906147c0565b6001600160a01b0316630f5932f0611457612398565b3086611462886123a7565b6040518563ffffffff1660e01b81526004016114819493929190615041565b602060405180830381865afa15801561149e573d6000803e3d6000fd5b505050506040513d601f19601f820116820180604052508101906114c29190614f5d565b6114df576040516331fb21f360e01b815260040160405180910390fd5b60006114e9612398565b83836020015160405160200161150193929190615073565b60408051601f1981840301815290829052805160209091012083517f2f3f50e00000000000000000000000000000000000000000000000000000000083529092506001600160a01b037f0000000000000000000000000c86d0204c6ece28122daec16c613d3b699418451691632f3f50e091611583918891869160040161517d565b6000604051808303816000875af11580156115a2573d6000803e3d6000fd5b505050506040513d6000823e601f3d908101601f191682016040526115ca9190810190614b1a565b5080847f755ecfca2f6e66af8868551556bf7931740a7062db8e0882f4c322fdb0bb3f6085856115f8612398565b604051611607939291906151c5565b60405180910390a350505050565b6000806116288b8b8b8b8b8b8b8b610c57565b909b5090506116388b828561255f565b7f000000000000000000000000ff7e1c600b8af88de885a7c68c3e7374010824236001600160a01b031663f434c9146040518163ffffffff1660e01b8152600401602060405180830381865afa158015611696573d6000803e3d6000fd5b505050506040513d601f19601f820116820180604052508101906116ba91906147c0565b6001600160a01b03166305d2912e306040518060600160405280600660009054906101000a90046001600160a01b03166001600160a01b031681526020018f8152602001600780548060200260200160405190810160405280929190818152602001828054801561174a57602002820191906000526020600020905b815481526020019060010190808311611736575b50505050508152506040518363ffffffff1660e01b815260040161176f929190615204565b600060405180830381600087803b15801561178957600080fd5b505af115801561179d573d6000803e3d6000fd5b505050508a9150995099975050505050505050565b60006117bd836123a7565b90507f000000000000000000000000ff7e1c600b8af88de885a7c68c3e7374010824236001600160a01b0316631f47ce696040518163ffffffff1660e01b8152600401602060405180830381865afa15801561181d573d6000803e3d6000fd5b505050506040513d601f19601f8201168201806040525081019061184191906147c0565b6001600160a01b031663f434c9146040518163ffffffff1660e01b8152600401602060405180830381865afa15801561187e573d6000803e3d6000fd5b505050506040513d601f19601f820116820180604052508101906118a291906147c0565b6001600160a01b0316630f5932f06118b8612398565b3086856040518563ffffffff1660e01b81526004016118da9493929190615041565b602060405180830381865afa1580156118f7573d6000803e3d6000fd5b505050506040513d601f19601f8201168201806040525081019061191b9190614f5d565b611938576040516331fb21f360e01b815260040160405180910390fd5b7f000000000000000000000000ff7e1c600b8af88de885a7c68c3e7374010824236001600160a01b0316631f47ce696040518163ffffffff1660e01b8152600401602060405180830381865afa158015611996573d6000803e3d6000fd5b505050506040513d601f19601f820116820180604052508101906119ba91906147c0565b6001600160a01b031663f434c9146040518163ffffffff1660e01b8152600401602060405180830381865afa1580156119f7573d6000803e3d6000fd5b505050506040513d601f19601f82011682018060405250810190611a1b91906147c0565b6001600160a01b03166305d2912e306040518060600160405280611a3d612398565b6001600160a01b0316815260208082018990526040805160008152918201815291820152516001600160e01b031960e085901b168152611a81929190600401615204565b600060405180830381600087803b158015611a9b57600080fd5b505af1158015611aaf573d6000803e3d6000fd5b505050507f000000000000000000000000ff7e1c600b8af88de885a7c68c3e7374010824236001600160a01b0316631f47ce696040518163ffffffff1660e01b8152600401602060405180830381865afa158015611b11573d6000803e3d6000fd5b505050506040513d601f19601f82011682018060405250810190611b3591906147c0565b6001600160a01b031663f434c9146040518163ffffffff1660e01b8152600401602060405180830381865afa158015611b72573d6000803e3d6000fd5b505050506040513d601f19601f82011682018060405250810190611b9691906147c0565b6001600160a01b03166305d2912e306040518060600160405280866001600160a01b03168152602001878152602001858152506040518363ffffffff1660e01b8152600401611be6929190615204565b600060405180830381600087803b158015611c0057600080fd5b505af1158015611c14573d6000803e3d6000fd5b50505050816001600160a01b0316837f0329d6a81434b130c72eb65eea0e32e429dc1277b4aad86ec86454aefb618451611c4c612398565b6040516001600160a01b03909116815260200160405180910390a3505050565b600080600080611c7d8a8888612748565b9250925092508a600003611d58577f000000000000000000000000ff7e1c600b8af88de885a7c68c3e7374010824236001600160a01b0316630634bae9308c6000015160400151868d8f6000015160200151604051602001611cdf9190615247565b6040516020818303038152906040526040518663ffffffff1660e01b8152600401611d0e95949392919061569a565b6020604051808303816000875af1158015611d2d573d6000803e3d6000fd5b505050506040513d601f19601f82011682018060405250810190611d519190614cec565b9a50611e16565b7f000000000000000000000000ff7e1c600b8af88de885a7c68c3e7374010824236001600160a01b0316631ea7bc8c8c858c8e6000015160200151604051602001611da39190615247565b6040516020818303038152906040526040518563ffffffff1660e01b8152600401611dd19493929190615702565b6020604051808303816000875af1158015611df0573d6000803e3d6000fd5b505050506040513d601f19601f82011682018060405250810190611e149190614cec565b505b8080611e4657508960600151600081518110611e3457611e34614b04565b60200260200101516020015151600014155b15611e6857611e5862278d0042614af1565b60008c8152600160205260409020555b7f000000000000000000000000ff7e1c600b8af88de885a7c68c3e7374010824236001600160a01b031663581781918c8c60000151600001518d60000151602001518e60000151606001516040518563ffffffff1660e01b8152600401611ed29493929190615741565b6020604051808303816000875af1158015611ef1573d6000803e3d6000fd5b505050506040513d601f19601f82011682018060405250810190611f1591906147c0565b5087516001600160a01b031615611f3057611f308b89612b0f565b7f000000000000000000000000ff7e1c600b8af88de885a7c68c3e7374010824236001600160a01b031663dd5f214a8c6000611f6f8e60400151612c6f565b6040518463ffffffff1660e01b8152600401611f8d9392919061577e565b600060405180830381600087803b158015611fa757600080fd5b505af1158015611fbb573d6000803e3d6000fd5b50505050611fc98b8b612dad565b600060405180606001604052808c604001516001600160a01b031681526020018d8152602001611ff88e6123a7565b81525090507f000000000000000000000000ff7e1c600b8af88de885a7c68c3e7374010824236001600160a01b031663f434c9146040518163ffffffff1660e01b8152600401602060405180830381865afa15801561205b573d6000803e3d6000fd5b505050506040513d601f19601f8201168201806040525081019061207f91906147c0565b6001600160a01b03166305d2912e30836040518363ffffffff1660e01b81526004016120ac929190615204565b600060405180830381600087803b1580156120c657600080fd5b505af11580156120da573d6000803e3d6000fd5b5060009250600191506120ea9050565b604051908082528060200260200182016040528015612113578160200160208202803683370190505b509050601c8160008151811061212b5761212b614b04565b60200260200101818152505060405180606001604052807f0000000000000000000000000c86d0204c6ece28122daec16c613d3b699418456001600160a01b031681526020018e81526020018281525091507f000000000000000000000000ff7e1c600b8af88de885a7c68c3e7374010824236001600160a01b031663f434c9146040518163ffffffff1660e01b8152600401602060405180830381865afa1580156121db573d6000803e3d6000fd5b505050506040513d601f19601f820116820180604052508101906121ff91906147c0565b6001600160a01b03166305d2912e30846040518363ffffffff1660e01b815260040161222c929190615204565b600060405180830381600087803b15801561224657600080fd5b505af115801561225a573d6000803e3d6000fd5b5050505060208701511561233a577f0000000000000000000000000c86d0204c6ece28122daec16c613d3b699418456001600160a01b0316632f3f50e08e6122a0612398565b878b602001516040516020016122b893929190615073565b60408051601f198184030181529082905280516020909101208b516001600160e01b031960e086901b1683526122f1939260040161517d565b6000604051808303816000875af1158015612310573d6000803e3d6000fd5b505050506040513d6000823e601f3d908101601f191682016040526123389190810190614b1a565b505b8c7fb00ad164380340ee6f18ec73024e25d390aa777602a69ede3c2da4d2b6cbc8418d8d8d8b8a8a8a61236b612398565b60405161237f989796959493929190615935565b60405180910390a2509a9b9a5050505050505050505050565b60006123a2612f06565b905090565b6060600060038054806020026020016040519081016040528092919081815260200182805480156123f757602002820191906000526020600020905b8154815260200190600101908083116123e3575b5050835160008881526004602090815260408083208054825181850281018501909352808352989950939792965094509192509083018282801561245a57602002820191906000526020600020905b815481526020019060010190808311612446575b505083519394506124719250839150859050614af1565b67ffffffffffffffff811115612489576124896133e3565b6040519080825280602002602001820160405280156124b2578160200160208202803683370190505b50945060005b838110156124ff578481815181106124d2576124d2614b04565b60200260200101518682815181106124ec576124ec614b04565b60209081029190910101526001016124b8565b5060005b818110156125555782818151811061251d5761251d614b04565b60200260200101518682866125329190614af1565b8151811061254257612542614b04565b6020908102919091010152600101612503565b5050505050919050565b805160008167ffffffffffffffff81111561257c5761257c6133e3565b6040519080825280602002602001820160405280156125ef57816020015b6125dc6040518060c0016040528060006001600160a01b0316815260200160008152602001600081526020016000815260200160008152602001606081525090565b81526020019060019003908161259a5790505b5090506126246040518060a0016040528060008152602001600081526020016000815260200160008152602001606081525090565b60005b838110156126ba5784818151811061264157612641614b04565b602002602001015191506040518060c00160405280876001600160a01b031681526020018360000151815260200183602001518152602001836040015181526020018360600151815260200183608001518152508382815181106126a7576126a7614b04565b6020908102919091010152600101612627565b50835115612740576006546040517fab54877a0000000000000000000000000000000000000000000000000000000081526001600160a01b039091169063ab54877a9061270d9089908690600401615a88565b600060405180830381600087803b15801561272757600080fd5b505af115801561273b573d6000803e3d6000fd5b505050505b505050505050565b6060838101515181906000908067ffffffffffffffff81111561276d5761276d6133e3565b60405190808252806020026020018201604052801561285f57816020015b61284c6040805161010080820183526000808352602080840182905283850182905260608085018390526080808601849052865161020081018852848152928301849052958201839052810182905293840181905260a084810182905260c0850182905260e0850182905291840181905261012084018190526101408401819052610160840181905261018084018190526101a084018190526101c084018190526101e0840152909190820190815260200160608152602001606081525090565b81526020019060019003908161278b5790505b50935061286b87612f7b565b6040805160e08101825260008082526060602083018190529282018190529181018290526080810182905260a0810182905260c081018290529194505b82811015612b0357886060015181815181106128c6576128c6614b04565b60200260200101519150816000015164ffffffffff168682815181106128ee576128ee614b04565b60200260200101516000018181525050816080015164ffffffffff1686828151811061291c5761291c614b04565b6020026020010151602001818152505081606001516dffffffffffffffffffffffffffff1686828151811061295357612953614b04565b602002602001015160400181815250508160a0015163ffffffff1686828151811061298057612980614b04565b6020026020010151606001818152505060008682815181106129a4576129a4614b04565b6020026020010151608001906001600160a01b031690816001600160a01b031681525050604051806102000160405280836040015161ffff1681526020018360c0015161ffff166127106129f89190615b3a565b815260208b81015163ffffffff16908201526000604082018190526060820181905260016080830181905260a0830182905260c0830182905260e083018290526101008301829052610120830182905261014083018290526101608301526101808201526001600160a01b038a166101a08201526101c0018890528651879083908110612a8757612a87614b04565b602002602001015160a00181905250806000148015612aad5750815164ffffffffff1615155b8015612ac3575042826000015164ffffffffff16105b15612acd57600193505b84612ad88383612fb5565b604051602001612ae9929190615b4d565b60408051601f1981840301815291905294506001016128a8565b50505093509350939050565b602081810151516040805160808101825260008082529381018490529081018390526060810183905290915b82811015612c2e5783602001518181518110612b5957612b59614b04565b6020908102919091018101518551918101516040808301516060840151845192517f7b621d3a000000000000000000000000000000000000000000000000000000008152600481018c905262ffffff909416602485015263ffffffff91821660448501521660648301526001600160a01b039081166084830152919450911690637b621d3a9060a4016020604051808303816000875af1158015612c01573d6000803e3d6000fd5b505050506040513d601f19601f82011682018060405250810190612c2591906147c0565b50600101612b3b565b50509051600092835260208390526040909220805473ffffffffffffffffffffffffffffffffffffffff19166001600160a01b039093169290921790915550565b604080516001808252818301909252606091816020015b604080518082019091526000815260606020820152815260200190600190039081612c8657505060408051600180825281830190925291925060009190602082015b6040805160c08101825260008082526020808301829052928201819052606082018190526080820181905260a08201528252600019909201910181612cc85790505090506040518060c00160405280600015158152602001633b9aca00815260200160008152602001846001600160a01b031681526020016000815260200160006001600160a01b031681525081600081518110612d6857612d68614b04565b60200260200101819052506040518060400160405280600181526020018281525082600081518110612d9c57612d9c614b04565b602002602001018190525050919050565b606080820151516040805160e0810182526000808252602082018590529181018290529283018190526080830181905260a0830181905260c08301529060005b82811015612eff5783606001518181518110612e0b57612e0b614b04565b6020026020010151915060008260200151519050612e4c6040518060600160405280600081526020016000815260200160006001600160a01b031681525090565b60005b82811015612ef45784602001518181518110612e6d57612e6d614b04565b6020026020010151915046826000015103612eec5760208083015160008a81526002909252604082209091612ea28742614af1565b8152602001908152602001600020600084604001516001600160a01b03166001600160a01b031681526020019081526020016000206000828254612ee69190614af1565b90915550505b600101612e4f565b505050600101612ded565b5050505050565b6000366014336001600160a01b037f000000000000000000000000b2b5841dbef766d4b521221732f9b618fcf34a8716148015612f435750808210155b15612f7357600036612f558385615b3a565b612f60928290615b7c565b612f6991615ba6565b60601c9250505090565b339250505090565b60208082015182518051818401516060928301516040519395612f9f959401615bd9565b6040516020818303038152906040529050919050565b606081158015612fcb5750825164ffffffffff16155b612fdd57825164ffffffffff16612fdf565b425b6040808501516060860151608087015160a088015160c0890151945161305096959060200195865261ffff94851660208701526dffffffffffffffffffffffffffff93909316604086015264ffffffffff91909116606085015263ffffffff1660808401521660a082015260c00190565b60408051601f1981840301815291905260208401515190915060005b818110156130c6578261309b8660200151838151811061308e5761308e614b04565b60200260200101516130ce565b6040516020016130ac929190615b4d565b60408051601f19818403018152919052925060010161306c565b505092915050565b6060816000015182604001518360200151604051602001612f9f939291909283526001600160a01b03919091166020830152604082015260600190565b60006020828403121561311d57600080fd5b81356001600160e01b03198116811461313557600080fd5b9392505050565b6001600160a01b038116811461315157600080fd5b50565b803561315f8161313c565b919050565b60008060008060006080868803121561317c57600080fd5b85356131878161313c565b945060208601356131978161313c565b935060408601359250606086013567ffffffffffffffff808211156131bb57600080fd5b818801915088601f8301126131cf57600080fd5b8135818111156131de57600080fd5b8960208285010111156131f057600080fd5b9699959850939650602001949392505050565b60006020828403121561321557600080fd5b5035919050565b60006020828403121561322e57600080fd5b813567ffffffffffffffff81111561324557600080fd5b8201610180818503121561313557600080fd5b60005b8381101561327357818101518382015260200161325b565b50506000910152565b60008151808452613294816020860160208601613258565b601f01601f19169290920160200192915050565b600082825180855260208086019550808260051b84010181860160005b8481101561331c57858303601f19018952815180516001600160a01b0316845284810151858501526040908101516060918501829052906133088186018361327c565b9a86019a94505050908301906001016132c5565b5090979650505050505050565b82815260406020820152600061334260408301846132a8565b949350505050565b60006020828403121561335c57600080fd5b81356131358161313c565b60008060006060848603121561337c57600080fd5b833592506020840135915060408401356133958161313c565b809150509250925092565b60208152600061313560208301846132a8565b600080604083850312156133c657600080fd5b8235915060208301356133d88161313c565b809150509250929050565b634e487b7160e01b600052604160045260246000fd5b6040516060810167ffffffffffffffff8111828210171561341c5761341c6133e3565b60405290565b60405160e0810167ffffffffffffffff8111828210171561341c5761341c6133e3565b6040516080810167ffffffffffffffff8111828210171561341c5761341c6133e3565b6040805190810167ffffffffffffffff8111828210171561341c5761341c6133e3565b604051610180810167ffffffffffffffff8111828210171561341c5761341c6133e3565b604051610120810167ffffffffffffffff8111828210171561341c5761341c6133e3565b60405160a0810167ffffffffffffffff8111828210171561341c5761341c6133e3565b604051601f8201601f1916810167ffffffffffffffff8111828210171561351f5761351f6133e3565b604052919050565b600067ffffffffffffffff821115613541576135416133e3565b50601f01601f191660200190565b600082601f83011261356057600080fd5b813561357361356e82613527565b6134f6565b81815284602083860101111561358857600080fd5b816020850160208301376000918101602001919091529392505050565b803563ffffffff8116811461315f57600080fd5b600067ffffffffffffffff8211156135d3576135d36133e3565b5060051b60200190565b803564ffffffffff8116811461315f57600080fd5b600082601f83011261360357600080fd5b8135602061361361356e836135b9565b8281526060928302850182019282820191908785111561363257600080fd5b8387015b8581101561331c5781818a03121561364e5760008081fd5b6136566133f9565b8135815285820135868201526040808301356136718161313c565b908201528452928401928101613636565b803561ffff8116811461315f57600080fd5b80356dffffffffffffffffffffffffffff8116811461315f57600080fd5b600082601f8301126136c357600080fd5b813560206136d361356e836135b9565b82815260059290921b840181019181810190868411156136f257600080fd5b8286015b848110156137d457803567ffffffffffffffff808211156137175760008081fd5b9088019060e0828b03601f19018113156137315760008081fd5b613739613422565b6137448885016135dd565b81526040808501358481111561375a5760008081fd5b6137688e8b838901016135f2565b8a840152506060935061377c848601613682565b90820152608061378d858201613694565b8483015260a093506137a08486016135dd565b9082015260c06137b18582016135a5565b848301526137c0838601613682565b9082015286525050509183019183016136f6565b509695505050505050565b6000608082840312156137f157600080fd5b6137f9613445565b9050813567ffffffffffffffff8082111561381357600080fd5b908301906080828603121561382757600080fd5b61382f613445565b82358281111561383e57600080fd5b61384a8782860161354f565b82525060208301358281111561385f57600080fd5b61386b8782860161354f565b60208301525060408301358281111561388357600080fd5b61388f8782860161354f565b6040830152506060838101359082015283526138ad602085016135a5565b60208401526138be60408501613154565b604084015260608401359150808211156138d757600080fd5b506138e4848285016136b2565b60608301525092915050565b600082601f83011261390157600080fd5b8135602061391161356e836135b9565b8083825260208201915060208460051b87010193508684111561393357600080fd5b602086015b848110156137d457803561394b8161313c565b8352918301918301613938565b600082601f83011261396957600080fd5b8135602061397961356e836135b9565b82815260059290921b8401810191818101908684111561399857600080fd5b8286015b848110156137d457803567ffffffffffffffff808211156139bd5760008081fd5b908801906040828b03601f19018113156139d75760008081fd5b6139df613468565b878401356139ec8161313c565b8152908301359082821115613a015760008081fd5b613a0f8c89848701016138f0565b81890152865250505091830191830161399c565b803562ffffff8116811461315f57600080fd5b60006040808385031215613a4957600080fd5b613a51613468565b91508235613a5e8161313c565b825260208381013567ffffffffffffffff811115613a7b57600080fd5b8401601f81018613613a8c57600080fd5b8035613a9a61356e826135b9565b81815260079190911b82018301908381019088831115613ab957600080fd5b928401925b82841015613b2d576080848a031215613ad75760008081fd5b613adf613445565b8435613aea8161313c565b8152613af7858701613a23565b86820152613b068786016135a5565b878201526060613b178187016135a5565b9082015282526080939093019290840190613abe565b808588015250505050505092915050565b600060408284031215613b5057600080fd5b613b58613468565b905067ffffffffffffffff8083351115613b7157600080fd5b8235830184601f820112613b8457600080fd5b613b9161356e82356135b9565b81358082526020808301929160051b84010187811115613bb057600080fd5b602084015b81811015613cf5578581351115613bcb57600080fd5b803585016040818b03601f19011215613be357600080fd5b613beb613468565b613bf8602083013561313c565b602082013581528760408301351115613c1057600080fd5b6040820135820191508a603f830112613c2857600080fd5b6020820135613c3961356e826135b9565b81815260079190911b83016040019060208101908d831115613c5a57600080fd5b6040850194505b82851015613cd6576080858f031215613c7957600080fd5b613c81613445565b613c8b863561313c565b85358152613c9b602087016135a5565b6020820152613cad604087013561313c565b604086013560408201526060860135606082015280835250602082019150608085019450613c61565b8060208501525050508086525050602084019350602081019050613bb5565b5050808552505050506020820135602082015292915050565b600080600080600060a08688031215613d2657600080fd5b85359450602086013567ffffffffffffffff80821115613d4557600080fd5b613d5189838a016137df565b95506040880135915080821115613d6757600080fd5b613d7389838a01613958565b94506060880135915080821115613d8957600080fd5b613d9589838a01613a36565b93506080880135915080821115613dab57600080fd5b50613db888828901613b3e565b9150509295509295909350565b600082601f830112613dd657600080fd5b81356020613de661356e836135b9565b82815260059290921b84018101918181019086841115613e0557600080fd5b8286015b848110156137d457803567ffffffffffffffff80821115613e2a5760008081fd5b908801906060828b03601f1901811315613e445760008081fd5b613e4c6133f9565b87840135613e598161313c565b815260408481013589830152918401359183831115613e785760008081fd5b613e868d8a8588010161354f565b908201528652505050918301918301613e09565b600080600080600080600060e0888a031215613eb557600080fd5b87359650602088013567ffffffffffffffff80821115613ed457600080fd5b613ee08b838c016137df565b975060408a0135915080821115613ef657600080fd5b613f028b838c01613958565b965060608a0135915080821115613f1857600080fd5b613f248b838c01613a36565b955060808a0135915080821115613f3a57600080fd5b613f468b838c01613b3e565b945060a08a0135915080821115613f5c57600080fd5b50613f698a828b01613dc5565b925050613f7860c08901613682565b905092959891949750929550565b80356cffffffffffffffffffffffffff8116811461315f57600080fd5b801515811461315157600080fd5b803561315f81613fa3565b803560ff8116811461315f57600080fd5b60006080808385031215613fe057600080fd5b613fe8613445565b9150823567ffffffffffffffff81111561400157600080fd5b8301601f8101851361401257600080fd5b8035602061402261356e836135b9565b828152610180928302840182019282820191908985111561404257600080fd5b948301945b848610156141355780868b03121561405f5760008081fd5b61406761348b565b61407087613f86565b815261407d8588016135a5565b85820152604061408e8189016135a5565b90820152606061409f888201613682565b908201526140ae878901613154565b8189015260a0878101359082015260c06140c9818901613a23565b9082015260e06140da888201613fb1565b908201526101006140ec888201613fb1565b908201526101206140fe888201613fb1565b90820152610140614110888201613fb1565b90820152610160614122888201613fb1565b9082015283529485019491830191614047565b508652506141448682016135a5565b818601525050505061415860408301613fbc565b604082015261416960608301613154565b606082015292915050565b60006080828403121561418657600080fd5b61418e613445565b9050813561419b81613fa3565b815260208201356141ab81613fa3565b602082015260408201356141be81613fa3565b6040820152606082013561416981613fa3565b6000608082840312156141e357600080fd5b6141eb613445565b9050813567ffffffffffffffff8082111561420557600080fd5b90830190610180828603121561421a57600080fd5b6142226134af565b82358281111561423157600080fd5b61423d8782860161354f565b82525060208301358281111561425257600080fd5b61425e8782860161354f565b60208301525061427060408401613154565b604082015260608301358281111561428757600080fd5b6142938782860161354f565b6060830152506142a560808401613154565b608082015260a0830135828111156142bc57600080fd5b6142c88782860161354f565b60a08301525060c0830135828111156142e057600080fd5b6142ec87828601613fcd565b60c0830152506142fe60e08401613154565b60e0820152610100915061431486838501614174565b8282015280845250505061432a60208301613fb1565b602082015261433b60408301613fb1565b604082015261416960608301613fb1565b600080600080600080600080610100898b03121561436957600080fd5b88359750602089013567ffffffffffffffff8082111561438857600080fd5b6143948c838d016137df565b985060408b01359150808211156143aa57600080fd5b6143b68c838d01613958565b975060608b01359150808211156143cc57600080fd5b6143d88c838d01613a36565b965060808b01359150808211156143ee57600080fd5b6143fa8c838d01613b3e565b955060a08b013591508082111561441057600080fd5b61441c8c838d016141d1565b945060c08b013591508082111561443257600080fd5b5061443f8b828c01613dc5565b92505061444e60e08a01613682565b90509295985092959890939650565b60006020828403121561446f57600080fd5b813567ffffffffffffffff81111561448657600080fd5b82016101a0818503121561313557600080fd5b60006080820186835260208681850152604086604086015260606080606087015283875180865260a08801915060a08160051b890101955084890160005b8281101561452757898803609f19018452815180516001600160a01b0316895287810151888a0152860151868901869052614514868a018261327c565b98505092860192908601906001016144d7565b50959c9b505050505050505050505050565b60008060006060848603121561454e57600080fd5b83359250602084013567ffffffffffffffff8082111561456d57600080fd5b6145798783880161354f565b9350604086013591508082111561458f57600080fd5b5061459c86828701613b3e565b9150509250925092565b600082601f8301126145b757600080fd5b813560206145c761356e836135b9565b82815260059290921b840181019181810190868411156145e657600080fd5b8286015b848110156137d457803567ffffffffffffffff8082111561460b5760008081fd5b9088019060a0828b03601f19018113156146255760008081fd5b61462d6134d3565b878401358152604080850135898301526060808601358284015260809150818601358184015250828501359250838311156146685760008081fd5b6146768d8a858801016138f0565b9082015286525050509183019183016145ea565b60008060008060008060008060006101208a8c0312156146a957600080fd5b8935985060208a013567ffffffffffffffff808211156146c857600080fd5b6146d48d838e016137df565b995060408c01359150808211156146ea57600080fd5b6146f68d838e01613958565b985060608c013591508082111561470c57600080fd5b6147188d838e01613a36565b975060808c013591508082111561472e57600080fd5b61473a8d838e01613b3e565b965060a08c013591508082111561475057600080fd5b61475c8d838e016141d1565b955060c08c013591508082111561477257600080fd5b61477e8d838e01613dc5565b945061478c60e08d01613682565b93506101008c01359150808211156147a357600080fd5b506147b08c828d016145a6565b9150509295985092959850929598565b6000602082840312156147d257600080fd5b81516131358161313c565b80356147e88161313c565b6001600160a01b031682526020818101359083015260408082013590830152606090810135910152565b6000808335601e1984360301811261482957600080fd5b830160208101925035905067ffffffffffffffff81111561484957600080fd5b80360382131561485857600080fd5b9250929050565b81835281816020850137506000828201602090810191909152601f909101601f19169091010190565b602081526148a96020820161489c84613154565b6001600160a01b03169052565b60006148b760208401613154565b6001600160a01b0381166040840152506148d760608301604085016147dd565b60c083013560e083015261010060e0840135818401526148f8818501613154565b9050610120614911818501836001600160a01b03169052565b6101409150808501358285015250610160818501358185015261493681860186614812565b61018086810152925090506149506101a08501838361485f565b95945050505050565b600080604080848603121561496d57600080fd5b8351925060208085015167ffffffffffffffff8082111561498d57600080fd5b818701915087601f8301126149a157600080fd5b81516149af61356e826135b9565b81815260059190911b8301840190848101908a8311156149ce57600080fd5b8585015b83811015614a8f578051858111156149e957600080fd5b86016060818e03601f19011215614a005760008081fd5b614a086133f9565b88820151614a158161313c565b8152818a015189820152606082015187811115614a325760008081fd5b8083019250508d603f830112614a485760008081fd5b88820151614a5861356e82613527565b8181528f8c838601011115614a6d5760008081fd5b614a7c828c83018e8701613258565b828c0152508452509186019186016149d2565b50809750505050505050509250929050565b600181811c90821680614ab557607f821691505b602082108103614ad557634e487b7160e01b600052602260045260246000fd5b50919050565b634e487b7160e01b600052601160045260246000fd5b808201808211156104fc576104fc614adb565b634e487b7160e01b600052603260045260246000fd5b60006020808385031215614b2d57600080fd5b825167ffffffffffffffff811115614b4457600080fd5b8301601f81018513614b5557600080fd5b8051614b6361356e826135b9565b81815260059190911b82018301908381019087831115614b8257600080fd5b928401925b82841015614ba9578351614b9a8161313c565b82529284019290840190614b87565b979650505050505050565b601f821115614bfc576000816000526020600020601f850160051c81016020861015614bdd5750805b601f850160051c820191505b8181101561274057828155600101614be9565b505050565b815167ffffffffffffffff811115614c1b57614c1b6133e3565b614c2f81614c298454614aa1565b84614bb4565b602080601f831160018114614c645760008415614c4c5750858301515b600019600386901b1c1916600185901b178555612740565b600085815260208120601f198616915b82811015614c9357888601518255948401946001909101908401614c74565b5085821015614cb15787850151600019600388901b60f8161c191681555b5050505050600190811b01905550565b604081526000614cd460408301856132a8565b90506001600160a01b03831660208301529392505050565b600060208284031215614cfe57600080fd5b5051919050565b80516080808452815184820181905260009260a0916020918201918388019190865b82811015614dea57845180516cffffffffffffffffffffffffff1685528281015163ffffffff908116848701526040808301519091169086015260608082015161ffff1690860152878101516001600160a01b031688860152868101518786015260c08082015162ffffff169086015260e080820151151590860152610100808201511515908601526101208082015115159086015261014080820151151590860152610160908101511515908501529381019361018090930192600101614d27565b508781015163ffffffff16908901525060408087015160ff16908801526060808701516001600160a01b038116918901919091529350610b3d565b82815260406020820152600082516101806040840152614e496101c084018261327c565b90506020840151603f1980858403016060860152614e67838361327c565b925060408601519150614e8560808601836001600160a01b03169052565b60608601519150808584030160a0860152614ea0838361327c565b925060808601519150614ebe60c08601836001600160a01b03169052565b60a08601519150808584030160e0860152614ed9838361327c565b925060c08601519150610100818685030181870152614ef88484614d05565b935060e08701519250614f176101208701846001600160a01b03169052565b860151805115156101408701526020810151151561016087015260408101511515610180870152606081015115156101a08701529150614f549050565b50949350505050565b600060208284031215614f6f57600080fd5b815161313581613fa3565b805161315f8161313c565b60006101208284031215614f9857600080fd5b614fa06134af565b825181526020830151602082015260408301516040820152606083015160608201526080830151608082015260a083015160a082015260c083015160c0820152614fec60e08401614f7a565b60e0820152610100928301519281019290925250919050565b60008151808452602080850194506020840160005b838110156150365781518752958201959082019060010161501a565b509495945050505050565b60006001600160a01b03808716835280861660208401525083604083015260806060830152610b3d6080830184615005565b6bffffffffffffffffffffffff198460601b1681526000835161509d816014850160208801613258565b60149201918201929092526034019392505050565b600082825180855260208086019550808260051b8401018186016000805b8581101561516f57868403601f19018a52825180516001600160a01b03908116865290860151604087870181905281518188018190529188019290916060919082890190875b818110156151575786518051851684528c81015163ffffffff168d8501528681015185168785015285015185840152958b0195608090920191600101615116565b50509d89019d975050509386019350506001016150d0565b509198975050505050505050565b83815282602082015260606040820152600061495060608301846150b2565b60008151604084526151b160408501826150b2565b602093840151949093019390935250919050565b6060815260006151d8606083018661327c565b82810360208401526151ea818661519c565b9150506001600160a01b0383166040830152949350505050565b60006001600160a01b03808516835260406020840152808451166040840152506020830151606083015260408301516060608084015261495060a0840182615005565b7f240000000000000000000000000000000000000000000000000000000000000081526000825161527f816001850160208701613258565b7f207265766e6574206465706c6f796564000000000000000000000000000000006001939091019283015250601101919050565b80518252602081015160208301526040810151604083015260608101516152de606084018215159052565b5060808101516152f2608084018215159052565b5060a081015161530660a084018215159052565b5060c081015161531a60c084018215159052565b5060e081015161532e60e084018215159052565b5061010081810151151590830152610120808201511515908301526101408082015115159083015261016080820151151590830152610180808201511515908301526101a0808201511515908301526101c0808201516001600160a01b0316908301526101e090810151910152565b600082825180855260208086019550808260051b8401018186016000805b8581101561516f57868403601f19018a52825180518552850151604086860181905281518187018190529187019160609081880190865b8181101561544c5785518051151584528b8101518c8501528581015186850152848101516001600160a01b03908116868601526080808301519086015260a0918201511690840152948a019460c0909201916001016153f2565b50509c88019c9650505092850192506001016153bb565b60008151808452602080850194506020840160005b83811015615036578151805188528301518388015260409096019590820190600101615478565b600082825180855260208086019550808260051b84010181860160005b8481101561331c57601f19868403018952815160806001600160a01b038083511686528087840151168787015250604080830151828288015261550183880182615463565b925050506060808301519250858203818701525061551f8183615463565b9a86019a94505050908301906001016154bc565b600082825180855260208086019550808260051b84010181860160005b8481101561331c57858303601f19018952815180518452848101518585015260408082015190850152606080820151908501526080808201516001600160a01b03169085015260a0808201516102e091906155ad828801826152b3565b505060c0820151816102a08701526155c78287018261539d565b91505060e082015191508481036102c08601526155e4818361549f565b9a86019a9450505090830190600101615550565b60008151808452602080850194506020840160005b838110156150365781516001600160a01b03168752958201959082019060010161560d565b600082825180855260208086019550808260051b84010181860160005b8481101561331c57858303601f19018952815180516001600160a01b031684528401516040858501819052615686818601836155f8565b9a86019a945050509083019060010161564f565b6001600160a01b038616815260a0602082015260006156bc60a083018761327c565b82810360408401526156ce8187615533565b905082810360608401526156e28186615632565b905082810360808401526156f6818561327c565b98975050505050505050565b84815260806020820152600061571b6080830186615533565b828103604084015261572d8186615632565b90508281036060840152614ba9818561327c565b84815260806020820152600061575a608083018661327c565b828103604084015261576c818661327c565b91505082606083015295945050505050565b838152826020820152606060408201526000614950606083018461539d565b600082825180855260208086019550808260051b8401018186016000805b8581101561516f57868403601f19018a528251805164ffffffffff1685528581015160e0878701819052815190870181905261010087019188019085905b80821015615838578251805185528a8101518b8601526040908101516001600160a01b03169085015260609093019291890191600191909101906157f9565b50505060408281015161ffff908116918801919091526060808401516dffffffffffffffffffffffffffff169088015260808084015164ffffffffff169088015260a08084015163ffffffff169088015260c09283015116919095015298840198918401916001016157bb565b600060408084016001600160a01b038085511686526020808601516040828901528381518086526060955060608a019150838301925060005b818110156159265783518051871684528581015162ffffff16868501528881015163ffffffff9081168a860152908801511687840152928401926080909201916001016158de565b50909998505050505050505050565b60006101008083528a5160808285015280519150608061018085015261595f61020085018361327c565b9150602081015161017f1980868503016101a087015261597f848361327c565b93506040830151915080868503016101c08701525061599e838261327c565b92505060608101516101e08501525060208b01516159c561012085018263ffffffff169052565b5060408b01516001600160a01b031661014084015260608b015183820360ff19016101608501526159f6828261579d565b9150508281036020840152615a0b818b615632565b90508281036040840152615a1f818a6158a5565b90508281036060840152615a33818961519c565b90508281036080840152615a478188615533565b905082810360a0840152615a5b818761327c565b915050615a6c60c083018515159052565b6001600160a01b03831660e08301529998505050505050505050565b6000604080830185845260206040818601528186518084526060935060608701915060608160051b88010183890160005b83811015615b2a57898303605f19018552815180516001600160a01b031684528681015187850152888101518985015287810151888501526080808201519085015260a09081015160c091850182905290615b16818601836155f8565b968801969450505090850190600101615ab9565b50909a9950505050505050505050565b818103818111156104fc576104fc614adb565b60008351615b5f818460208801613258565b835190830190615b73818360208801613258565b01949350505050565b60008085851115615b8c57600080fd5b83861115615b9957600080fd5b5050820193919092039150565b6bffffffffffffffffffffffff1981358181169160148510156130c65760149490940360031b84901b1690921692915050565b63ffffffff8516815260806020820152600061575a608083018661327c56fea2646970667358221220ce4bf368716a5b681b73f07ce1265057fb5f50ed96cca4da8d7743c2000b8d8c64736f6c63430008170033",
			"devdoc": {
				"kind": "dev",
				"methods": {
					"beforePayRecordedWith((address,address,(address,uint256,uint256,uint256),uint256,uint256,address,uint256,uint256,bytes))": {
						"details": "Part of IJBFundingCycleDataSource.This implementation just sets this contract up to receive a `didPay` call.",
						"params": {
							"context": "The Juicebox standard network payment context. See"
						},
						"returns": {
							"hookSpecifications": "Amount to be sent to pay hooks instead of adding to local balance. Useful for auto-routing funds from a treasury as payment come in.",
							"weight": "The weight that network tokens should get minted relative to. This is useful for optionally customizing how many tokens are issued per payment."
						}
					},
					"constructor": {
						"params": {
							"controller": "The controller that revnets are made from.",
							"hookDeployer": "The 721 tiers hook deployer.",
							"publisher": "The croptop publisher that facilitates the permissioned publishing of 721 posts to a revnet.",
							"suckerRegistry": "The registry that deploys and tracks each project's suckers.",
							"trustedForwarder": "The trusted forwarder for the ERC2771Context."
						}
					},
					"deploySuckersFor(uint256,bytes,((address,(address,uint32,address,uint256)[])[],bytes32))": {
						"params": {
							"encodedConfiguration": "A bytes representation of the revnet's configuration.",
							"revnetId": "The ID of the revnet having new suckers deployed.",
							"suckerDeploymentConfiguration": "The specifics about the suckers being deployed."
						}
					},
					"hasMintPermissionFor(uint256,address)": {
						"params": {
							"addr": "The address to check if has permissions.",
							"revnetId": "The ID of the revnet to check permissions for."
						},
						"returns": {
							"_0": "flag The flag indicating if the address has permissions to mint on the revnet's behalf."
						}
					},
					"isTrustedForwarder(address)": {
						"details": "Indicates whether any particular address is the trusted forwarder."
					},
					"launchCroptopRevnetFor(uint256,((string,string,string,bytes32),uint32,address,(uint40,(uint256,uint256,address)[],uint16,uint112,uint40,uint32,uint16)[]),(address,address[])[],(address,(address,uint24,uint32,uint32)[]),((address,(address,uint32,address,uint256)[])[],bytes32),((string,string,address,string,address,string,((uint104,uint32,uint32,uint16,address,bytes32,uint24,bool,bool,bool,bool,bool)[],uint32,uint8,address),address,(bool,bool,bool,bool)),bool,bool,bool),(address,uint256,bytes)[],uint16,(uint256,uint256,uint256,uint256,address[])[])": {
						"params": {
							"allowedPosts": "The type of posts that the revent should allow.",
							"buybackHookConfiguration": "Data used for setting up the buyback hook to use when determining the best price for new participants.",
							"configuration": "The data needed to deploy a basic revnet.",
							"extraHookMetadata": "Extra metadata to attach to the cycle for the delegates to use.",
							"hookConfiguration": "Data used for setting up the 721 tiers.",
							"otherPayHooksSpecifications": "Any hooks that should run when the revnet is paid alongside the 721 hook.",
							"revnetId": "The ID of the Juicebox project to turn into a revnet. Send 0 to deploy a new revnet.",
							"suckerDeploymentConfiguration": "Information about how this revnet relates to other's across chains.",
							"terminalConfigurations": "The terminals that the network uses to accept payments through."
						},
						"returns": {
							"_0": "revnetId The ID of the newly created revnet.",
							"hook": "The address of the 721 hook that was deployed on the revnet."
						}
					},
					"launchPayHookRevnetFor(uint256,((string,string,string,bytes32),uint32,address,(uint40,(uint256,uint256,address)[],uint16,uint112,uint40,uint32,uint16)[]),(address,address[])[],(address,(address,uint24,uint32,uint32)[]),((address,(address,uint32,address,uint256)[])[],bytes32),(address,uint256,bytes)[],uint16)": {
						"params": {
							"buybackHookConfiguration": "Data used for setting up the buyback hook to use when determining the best price for new participants.",
							"configuration": "The data needed to deploy a basic revnet.",
							"extraHookMetadata": "Extra metadata to attach to the cycle for the delegates to use.",
							"payHookSpecifications": "Any hooks that should run when the revnet is paid.",
							"revnetId": "The ID of the Juicebox project to turn into a revnet. Send 0 to deploy a new revnet.",
							"suckerDeploymentConfiguration": "Information about how this revnet relates to other's across chains.",
							"terminalConfigurations": "The terminals that the network uses to accept payments through."
						},
						"returns": {
							"_0": "revnetId The ID of the newly created revnet."
						}
					},
					"launchRevnetFor(uint256,((string,string,string,bytes32),uint32,address,(uint40,(uint256,uint256,address)[],uint16,uint112,uint40,uint32,uint16)[]),(address,address[])[],(address,(address,uint24,uint32,uint32)[]),((address,(address,uint32,address,uint256)[])[],bytes32))": {
						"params": {
							"buybackHookConfiguration": "Data used for setting up the buyback hook to use when determining the best price for new participants.",
							"configuration": "The data needed to deploy a basic revnet.",
							"revnetId": "The ID of the Juicebox project to turn into a revnet. Send 0 to deploy a new revnet.",
							"suckerDeploymentConfiguration": "Information about how this revnet relates to other's across chains.",
							"terminalConfigurations": "The terminals that the network uses to accept payments through."
						},
						"returns": {
							"_0": "revnetId The ID of the newly created revnet."
						}
					},
					"launchTiered721RevnetFor(uint256,((string,string,string,bytes32),uint32,address,(uint40,(uint256,uint256,address)[],uint16,uint112,uint40,uint32,uint16)[]),(address,address[])[],(address,(address,uint24,uint32,uint32)[]),((address,(address,uint32,address,uint256)[])[],bytes32),((string,string,address,string,address,string,((uint104,uint32,uint32,uint16,address,bytes32,uint24,bool,bool,bool,bool,bool)[],uint32,uint8,address),address,(bool,bool,bool,bool)),bool,bool,bool),(address,uint256,bytes)[],uint16)": {
						"params": {
							"buybackHookConfiguration": "Data used for setting up the buyback hook to use when determining the best price for new participants.",
							"configuration": "The data needed to deploy a basic revnet.",
							"extraHookMetadata": "Extra metadata to attach to the cycle for the delegates to use.",
							"hookConfiguration": "Data used for setting up the 721 tiers.",
							"otherPayHooksSpecifications": "Any hooks that should run when the revnet is paid alongside the 721 hook.",
							"revnetId": "The ID of the Juicebox project to turn into a revnet. Send 0 to deploy a new revnet.",
							"suckerDeploymentConfiguration": "Information about how this revnet relates to other's across chains.",
							"terminalConfigurations": "The terminals that the network uses to accept payments through."
						},
						"returns": {
							"_0": "revnetId The ID of the newly created revnet.",
							"hook": "The address of the 721 hook that was deployed on the revnet."
						}
					},
					"mintFor(uint256,address)": {
						"params": {
							"beneficiary": "The address to mint tokens to.",
							"revnetId": "The ID of the revnet to mint tokens from."
						}
					},
					"onERC721Received(address,address,uint256,bytes)": {
						"details": "Make sure only mints can be received."
					},
					"payHookSpecificationsOf(uint256)": {
						"params": {
							"revnetId": "The ID of the revnet to which the extensions apply."
						},
						"returns": {
							"_0": "payHookSpecifications The pay hooks."
						}
					},
					"replaceSplitOperatorOf(uint256,address)": {
						"params": {
							"newSplitOperator": "The address of the new split operator.",
							"revnetId": "The ID of the revnet having its operator replaced."
						}
					},
					"supportsInterface(bytes4)": {
						"details": "See {IERC165-supportsInterface}.",
						"params": {
							"interfaceId": "The ID of the interface to check for adherence to."
						},
						"returns": {
							"_0": "A flag indicating if the provided interface ID is supported."
						}
					},
					"trustedForwarder()": {
						"details": "Returns the address of the trusted forwarder."
					}
				},
				"version": 1
			},
			"userdoc": {
				"kind": "user",
				"methods": {
					"CONTROLLER()": {
						"notice": "The controller that networks are made from."
					},
					"EXIT_DELAY()": {
						"notice": "The amount of time from a sucker being deployed to when it can facilitate exits."
					},
					"HOOK_DEPLOYER()": {
						"notice": "The contract responsible for deploying the tiered 721 hook."
					},
					"PUBLISHER()": {
						"notice": "The croptop publisher that facilitates the permissioned publishing of 721 posts to a revnet."
					},
					"SUCKER_REGISTRY()": {
						"notice": "The registry that deploys and tracks each project's suckers."
					},
					"allowedMintCountOf(uint256,uint256,address)": {
						"notice": "The specification of how many tokens are still allowed to be minted at each stage of a revnet."
					},
					"beforePayRecordedWith((address,address,(address,uint256,uint256,uint256),uint256,uint256,address,uint256,uint256,bytes))": {
						"notice": "This function gets called when the revnet receives a payment."
					},
					"beforeRedeemRecordedWith((address,address,uint256,uint256,uint256,uint256,(address,uint256,uint256,uint256),bool,uint256,bytes))": {
						"notice": "This function is never called, it needs to be included to adhere to the interface."
					},
					"buybackHookOf(uint256)": {
						"notice": "The data hook that returns the correct values for the buyback hook of each network."
					},
					"deploySuckersFor(uint256,bytes,((address,(address,uint32,address,uint256)[])[],bytes32))": {
						"notice": "Allows a revnet's split operator to deploy new suckers to the revnet after it's deployed."
					},
					"exitDelayOf(uint256)": {
						"notice": "The time at which exits from a revnet become allowed."
					},
					"hasMintPermissionFor(uint256,address)": {
						"notice": "Required by the IJBRulesetDataHook interfaces."
					},
					"launchCroptopRevnetFor(uint256,((string,string,string,bytes32),uint32,address,(uint40,(uint256,uint256,address)[],uint16,uint112,uint40,uint32,uint16)[]),(address,address[])[],(address,(address,uint24,uint32,uint32)[]),((address,(address,uint32,address,uint256)[])[],bytes32),((string,string,address,string,address,string,((uint104,uint32,uint32,uint16,address,bytes32,uint24,bool,bool,bool,bool,bool)[],uint32,uint8,address),address,(bool,bool,bool,bool)),bool,bool,bool),(address,uint256,bytes)[],uint16,(uint256,uint256,uint256,uint256,address[])[])": {
						"notice": "Launch a revnet that supports 721 sales."
					},
					"launchPayHookRevnetFor(uint256,((string,string,string,bytes32),uint32,address,(uint40,(uint256,uint256,address)[],uint16,uint112,uint40,uint32,uint16)[]),(address,address[])[],(address,(address,uint24,uint32,uint32)[]),((address,(address,uint32,address,uint256)[])[],bytes32),(address,uint256,bytes)[],uint16)": {
						"notice": "Launch a basic revnet that also calls other specified pay hooks."
					},
					"launchRevnetFor(uint256,((string,string,string,bytes32),uint32,address,(uint40,(uint256,uint256,address)[],uint16,uint112,uint40,uint32,uint16)[]),(address,address[])[],(address,(address,uint24,uint32,uint32)[]),((address,(address,uint32,address,uint256)[])[],bytes32))": {
						"notice": "Launch a basic revnet."
					},
					"launchTiered721RevnetFor(uint256,((string,string,string,bytes32),uint32,address,(uint40,(uint256,uint256,address)[],uint16,uint112,uint40,uint32,uint16)[]),(address,address[])[],(address,(address,uint24,uint32,uint32)[]),((address,(address,uint32,address,uint256)[])[],bytes32),((string,string,address,string,address,string,((uint104,uint32,uint32,uint16,address,bytes32,uint24,bool,bool,bool,bool,bool)[],uint32,uint8,address),address,(bool,bool,bool,bool)),bool,bool,bool),(address,uint256,bytes)[],uint16)": {
						"notice": "Launch a revnet that supports 721 sales."
					},
					"mintFor(uint256,address)": {
						"notice": "Mint tokens from a revnet to a specified beneficiary according to the rules set for the revnet."
					},
					"payHookSpecificationsOf(uint256)": {
						"notice": "The pay hooks to include during payments to networks."
					},
					"replaceSplitOperatorOf(uint256,address)": {
						"notice": "A revnet's operator can replace itself."
					},
					"supportsInterface(bytes4)": {
						"notice": "Indicates if this contract adheres to the specified interface."
					}
				},
				"version": 1
			},
			"gitCommit": "3dc7eec76b2b951d243b941fd4b84957a38a38ff",
			"sourceName": "src/REVCroptopDeployer.sol",
			"chainId": "84532",
			"linkReferences": {},
			"deployedLinkReferences": {}
		},
		{
			"_format": "sphinx-sol-ct-artifact-1",
			"merkleRoot": "0xa8b28f0a0ff94c0ccd343b0c647d1d1d68605c1177c36acf1715e5a075e676af",
			"contractName": "REVCroptopDeployer",
			"address": "0xa634b283FD85a8e1b74F619FC2D38EC17946ba7F",
			"abi": [
				{
					"type": "constructor",
					"inputs": [
						{
							"name": "controller",
							"type": "address",
							"internalType": "contract IJBController"
						},
						{
							"name": "suckerRegistry",
							"type": "address",
							"internalType": "contract IBPSuckerRegistry"
						},
						{
							"name": "trustedForwarder",
							"type": "address",
							"internalType": "address"
						},
						{
							"name": "hookDeployer",
							"type": "address",
							"internalType": "contract IJB721TiersHookDeployer"
						},
						{
							"name": "publisher",
							"type": "address",
							"internalType": "contract CTPublisher"
						}
					],
					"stateMutability": "nonpayable"
				},
				{
					"type": "function",
					"name": "CONTROLLER",
					"inputs": [],
					"outputs": [
						{
							"name": "",
							"type": "address",
							"internalType": "contract IJBController"
						}
					],
					"stateMutability": "view"
				},
				{
					"type": "function",
					"name": "EXIT_DELAY",
					"inputs": [],
					"outputs": [
						{
							"name": "",
							"type": "uint256",
							"internalType": "uint256"
						}
					],
					"stateMutability": "view"
				},
				{
					"type": "function",
					"name": "HOOK_DEPLOYER",
					"inputs": [],
					"outputs": [
						{
							"name": "",
							"type": "address",
							"internalType": "contract IJB721TiersHookDeployer"
						}
					],
					"stateMutability": "view"
				},
				{
					"type": "function",
					"name": "PUBLISHER",
					"inputs": [],
					"outputs": [
						{
							"name": "",
							"type": "address",
							"internalType": "contract CTPublisher"
						}
					],
					"stateMutability": "view"
				},
				{
					"type": "function",
					"name": "SUCKER_REGISTRY",
					"inputs": [],
					"outputs": [
						{
							"name": "",
							"type": "address",
							"internalType": "contract IBPSuckerRegistry"
						}
					],
					"stateMutability": "view"
				},
				{
					"type": "function",
					"name": "allowedMintCountOf",
					"inputs": [
						{
							"name": "revnetId",
							"type": "uint256",
							"internalType": "uint256"
						},
						{
							"name": "stageId",
							"type": "uint256",
							"internalType": "uint256"
						},
						{
							"name": "beneficiary",
							"type": "address",
							"internalType": "address"
						}
					],
					"outputs": [
						{
							"name": "",
							"type": "uint256",
							"internalType": "uint256"
						}
					],
					"stateMutability": "view"
				},
				{
					"type": "function",
					"name": "beforePayRecordedWith",
					"inputs": [
						{
							"name": "context",
							"type": "tuple",
							"internalType": "struct JBBeforePayRecordedContext",
							"components": [
								{
									"name": "terminal",
									"type": "address",
									"internalType": "address"
								},
								{
									"name": "payer",
									"type": "address",
									"internalType": "address"
								},
								{
									"name": "amount",
									"type": "tuple",
									"internalType": "struct JBTokenAmount",
									"components": [
										{
											"name": "token",
											"type": "address",
											"internalType": "address"
										},
										{
											"name": "value",
											"type": "uint256",
											"internalType": "uint256"
										},
										{
											"name": "decimals",
											"type": "uint256",
											"internalType": "uint256"
										},
										{
											"name": "currency",
											"type": "uint256",
											"internalType": "uint256"
										}
									]
								},
								{
									"name": "projectId",
									"type": "uint256",
									"internalType": "uint256"
								},
								{
									"name": "rulesetId",
									"type": "uint256",
									"internalType": "uint256"
								},
								{
									"name": "beneficiary",
									"type": "address",
									"internalType": "address"
								},
								{
									"name": "weight",
									"type": "uint256",
									"internalType": "uint256"
								},
								{
									"name": "reservedRate",
									"type": "uint256",
									"internalType": "uint256"
								},
								{
									"name": "metadata",
									"type": "bytes",
									"internalType": "bytes"
								}
							]
						}
					],
					"outputs": [
						{
							"name": "weight",
							"type": "uint256",
							"internalType": "uint256"
						},
						{
							"name": "hookSpecifications",
							"type": "tuple[]",
							"internalType": "struct JBPayHookSpecification[]",
							"components": [
								{
									"name": "hook",
									"type": "address",
									"internalType": "contract IJBPayHook"
								},
								{
									"name": "amount",
									"type": "uint256",
									"internalType": "uint256"
								},
								{
									"name": "metadata",
									"type": "bytes",
									"internalType": "bytes"
								}
							]
						}
					],
					"stateMutability": "view"
				},
				{
					"type": "function",
					"name": "beforeRedeemRecordedWith",
					"inputs": [
						{
							"name": "context",
							"type": "tuple",
							"internalType": "struct JBBeforeRedeemRecordedContext",
							"components": [
								{
									"name": "terminal",
									"type": "address",
									"internalType": "address"
								},
								{
									"name": "holder",
									"type": "address",
									"internalType": "address"
								},
								{
									"name": "projectId",
									"type": "uint256",
									"internalType": "uint256"
								},
								{
									"name": "rulesetId",
									"type": "uint256",
									"internalType": "uint256"
								},
								{
									"name": "redeemCount",
									"type": "uint256",
									"internalType": "uint256"
								},
								{
									"name": "totalSupply",
									"type": "uint256",
									"internalType": "uint256"
								},
								{
									"name": "surplus",
									"type": "tuple",
									"internalType": "struct JBTokenAmount",
									"components": [
										{
											"name": "token",
											"type": "address",
											"internalType": "address"
										},
										{
											"name": "value",
											"type": "uint256",
											"internalType": "uint256"
										},
										{
											"name": "decimals",
											"type": "uint256",
											"internalType": "uint256"
										},
										{
											"name": "currency",
											"type": "uint256",
											"internalType": "uint256"
										}
									]
								},
								{
									"name": "useTotalSurplus",
									"type": "bool",
									"internalType": "bool"
								},
								{
									"name": "redemptionRate",
									"type": "uint256",
									"internalType": "uint256"
								},
								{
									"name": "metadata",
									"type": "bytes",
									"internalType": "bytes"
								}
							]
						}
					],
					"outputs": [
						{
							"name": "",
							"type": "uint256",
							"internalType": "uint256"
						},
						{
							"name": "",
							"type": "uint256",
							"internalType": "uint256"
						},
						{
							"name": "",
							"type": "uint256",
							"internalType": "uint256"
						},
						{
							"name": "specifications",
							"type": "tuple[]",
							"internalType": "struct JBRedeemHookSpecification[]",
							"components": [
								{
									"name": "hook",
									"type": "address",
									"internalType": "contract IJBRedeemHook"
								},
								{
									"name": "amount",
									"type": "uint256",
									"internalType": "uint256"
								},
								{
									"name": "metadata",
									"type": "bytes",
									"internalType": "bytes"
								}
							]
						}
					],
					"stateMutability": "view"
				},
				{
					"type": "function",
					"name": "buybackHookOf",
					"inputs": [
						{
							"name": "revnetId",
							"type": "uint256",
							"internalType": "uint256"
						}
					],
					"outputs": [
						{
							"name": "buybackHook",
							"type": "address",
							"internalType": "contract IJBRulesetDataHook"
						}
					],
					"stateMutability": "view"
				},
				{
					"type": "function",
					"name": "deploySuckersFor",
					"inputs": [
						{
							"name": "revnetId",
							"type": "uint256",
							"internalType": "uint256"
						},
						{
							"name": "encodedConfiguration",
							"type": "bytes",
							"internalType": "bytes"
						},
						{
							"name": "suckerDeploymentConfiguration",
							"type": "tuple",
							"internalType": "struct REVSuckerDeploymentConfig",
							"components": [
								{
									"name": "deployerConfigurations",
									"type": "tuple[]",
									"internalType": "struct BPSuckerDeployerConfig[]",
									"components": [
										{
											"name": "deployer",
											"type": "address",
											"internalType": "contract IBPSuckerDeployer"
										},
										{
											"name": "mappings",
											"type": "tuple[]",
											"internalType": "struct BPTokenMapping[]",
											"components": [
												{
													"name": "localToken",
													"type": "address",
													"internalType": "address"
												},
												{
													"name": "minGas",
													"type": "uint32",
													"internalType": "uint32"
												},
												{
													"name": "remoteToken",
													"type": "address",
													"internalType": "address"
												},
												{
													"name": "minBridgeAmount",
													"type": "uint256",
													"internalType": "uint256"
												}
											]
										}
									]
								},
								{
									"name": "salt",
									"type": "bytes32",
									"internalType": "bytes32"
								}
							]
						}
					],
					"outputs": [],
					"stateMutability": "nonpayable"
				},
				{
					"type": "function",
					"name": "exitDelayOf",
					"inputs": [
						{
							"name": "revnetId",
							"type": "uint256",
							"internalType": "uint256"
						}
					],
					"outputs": [
						{
							"name": "exitDelay",
							"type": "uint256",
							"internalType": "uint256"
						}
					],
					"stateMutability": "view"
				},
				{
					"type": "function",
					"name": "hasMintPermissionFor",
					"inputs": [
						{
							"name": "revnetId",
							"type": "uint256",
							"internalType": "uint256"
						},
						{
							"name": "addr",
							"type": "address",
							"internalType": "address"
						}
					],
					"outputs": [
						{
							"name": "",
							"type": "bool",
							"internalType": "bool"
						}
					],
					"stateMutability": "view"
				},
				{
					"type": "function",
					"name": "isTrustedForwarder",
					"inputs": [
						{
							"name": "forwarder",
							"type": "address",
							"internalType": "address"
						}
					],
					"outputs": [
						{
							"name": "",
							"type": "bool",
							"internalType": "bool"
						}
					],
					"stateMutability": "view"
				},
				{
					"type": "function",
					"name": "launchCroptopRevnetFor",
					"inputs": [
						{
							"name": "revnetId",
							"type": "uint256",
							"internalType": "uint256"
						},
						{
							"name": "configuration",
							"type": "tuple",
							"internalType": "struct REVConfig",
							"components": [
								{
									"name": "description",
									"type": "tuple",
									"internalType": "struct REVDescription",
									"components": [
										{
											"name": "name",
											"type": "string",
											"internalType": "string"
										},
										{
											"name": "ticker",
											"type": "string",
											"internalType": "string"
										},
										{
											"name": "uri",
											"type": "string",
											"internalType": "string"
										},
										{
											"name": "salt",
											"type": "bytes32",
											"internalType": "bytes32"
										}
									]
								},
								{
									"name": "baseCurrency",
									"type": "uint32",
									"internalType": "uint32"
								},
								{
									"name": "initialSplitOperator",
									"type": "address",
									"internalType": "address"
								},
								{
									"name": "stageConfigurations",
									"type": "tuple[]",
									"internalType": "struct REVStageConfig[]",
									"components": [
										{
											"name": "startsAtOrAfter",
											"type": "uint40",
											"internalType": "uint40"
										},
										{
											"name": "mintConfigs",
											"type": "tuple[]",
											"internalType": "struct REVMintConfig[]",
											"components": [
												{
													"name": "chainId",
													"type": "uint256",
													"internalType": "uint256"
												},
												{
													"name": "count",
													"type": "uint256",
													"internalType": "uint256"
												},
												{
													"name": "beneficiary",
													"type": "address",
													"internalType": "address"
												}
											]
										},
										{
											"name": "splitRate",
											"type": "uint16",
											"internalType": "uint16"
										},
										{
											"name": "initialIssuanceRate",
											"type": "uint112",
											"internalType": "uint112"
										},
										{
											"name": "priceCeilingIncreaseFrequency",
											"type": "uint40",
											"internalType": "uint40"
										},
										{
											"name": "priceCeilingIncreasePercentage",
											"type": "uint32",
											"internalType": "uint32"
										},
										{
											"name": "priceFloorTaxIntensity",
											"type": "uint16",
											"internalType": "uint16"
										}
									]
								}
							]
						},
						{
							"name": "terminalConfigurations",
							"type": "tuple[]",
							"internalType": "struct JBTerminalConfig[]",
							"components": [
								{
									"name": "terminal",
									"type": "address",
									"internalType": "contract IJBTerminal"
								},
								{
									"name": "tokensToAccept",
									"type": "address[]",
									"internalType": "address[]"
								}
							]
						},
						{
							"name": "buybackHookConfiguration",
							"type": "tuple",
							"internalType": "struct REVBuybackHookConfig",
							"components": [
								{
									"name": "hook",
									"type": "address",
									"internalType": "contract IJBBuybackHook"
								},
								{
									"name": "poolConfigurations",
									"type": "tuple[]",
									"internalType": "struct REVBuybackPoolConfig[]",
									"components": [
										{
											"name": "token",
											"type": "address",
											"internalType": "address"
										},
										{
											"name": "fee",
											"type": "uint24",
											"internalType": "uint24"
										},
										{
											"name": "twapWindow",
											"type": "uint32",
											"internalType": "uint32"
										},
										{
											"name": "twapSlippageTolerance",
											"type": "uint32",
											"internalType": "uint32"
										}
									]
								}
							]
						},
						{
							"name": "suckerDeploymentConfiguration",
							"type": "tuple",
							"internalType": "struct REVSuckerDeploymentConfig",
							"components": [
								{
									"name": "deployerConfigurations",
									"type": "tuple[]",
									"internalType": "struct BPSuckerDeployerConfig[]",
									"components": [
										{
											"name": "deployer",
											"type": "address",
											"internalType": "contract IBPSuckerDeployer"
										},
										{
											"name": "mappings",
											"type": "tuple[]",
											"internalType": "struct BPTokenMapping[]",
											"components": [
												{
													"name": "localToken",
													"type": "address",
													"internalType": "address"
												},
												{
													"name": "minGas",
													"type": "uint32",
													"internalType": "uint32"
												},
												{
													"name": "remoteToken",
													"type": "address",
													"internalType": "address"
												},
												{
													"name": "minBridgeAmount",
													"type": "uint256",
													"internalType": "uint256"
												}
											]
										}
									]
								},
								{
									"name": "salt",
									"type": "bytes32",
									"internalType": "bytes32"
								}
							]
						},
						{
							"name": "hookConfiguration",
							"type": "tuple",
							"internalType": "struct REVDeploy721TiersHookConfig",
							"components": [
								{
									"name": "baseline721HookConfiguration",
									"type": "tuple",
									"internalType": "struct JBDeploy721TiersHookConfig",
									"components": [
										{
											"name": "name",
											"type": "string",
											"internalType": "string"
										},
										{
											"name": "symbol",
											"type": "string",
											"internalType": "string"
										},
										{
											"name": "rulesets",
											"type": "address",
											"internalType": "contract IJBRulesets"
										},
										{
											"name": "baseUri",
											"type": "string",
											"internalType": "string"
										},
										{
											"name": "tokenUriResolver",
											"type": "address",
											"internalType": "contract IJB721TokenUriResolver"
										},
										{
											"name": "contractUri",
											"type": "string",
											"internalType": "string"
										},
										{
											"name": "tiersConfig",
											"type": "tuple",
											"internalType": "struct JB721InitTiersConfig",
											"components": [
												{
													"name": "tiers",
													"type": "tuple[]",
													"internalType": "struct JB721TierConfig[]",
													"components": [
														{
															"name": "price",
															"type": "uint104",
															"internalType": "uint104"
														},
														{
															"name": "initialSupply",
															"type": "uint32",
															"internalType": "uint32"
														},
														{
															"name": "votingUnits",
															"type": "uint32",
															"internalType": "uint32"
														},
														{
															"name": "reserveFrequency",
															"type": "uint16",
															"internalType": "uint16"
														},
														{
															"name": "reserveBeneficiary",
															"type": "address",
															"internalType": "address"
														},
														{
															"name": "encodedIPFSUri",
															"type": "bytes32",
															"internalType": "bytes32"
														},
														{
															"name": "category",
															"type": "uint24",
															"internalType": "uint24"
														},
														{
															"name": "allowOwnerMint",
															"type": "bool",
															"internalType": "bool"
														},
														{
															"name": "useReserveBeneficiaryAsDefault",
															"type": "bool",
															"internalType": "bool"
														},
														{
															"name": "transfersPausable",
															"type": "bool",
															"internalType": "bool"
														},
														{
															"name": "useVotingUnits",
															"type": "bool",
															"internalType": "bool"
														},
														{
															"name": "cannotBeRemoved",
															"type": "bool",
															"internalType": "bool"
														}
													]
												},
												{
													"name": "currency",
													"type": "uint32",
													"internalType": "uint32"
												},
												{
													"name": "decimals",
													"type": "uint8",
													"internalType": "uint8"
												},
												{
													"name": "prices",
													"type": "address",
													"internalType": "contract IJBPrices"
												}
											]
										},
										{
											"name": "reserveBeneficiary",
											"type": "address",
											"internalType": "address"
										},
										{
											"name": "flags",
											"type": "tuple",
											"internalType": "struct JB721TiersHookFlags",
											"components": [
												{
													"name": "noNewTiersWithReserves",
													"type": "bool",
													"internalType": "bool"
												},
												{
													"name": "noNewTiersWithVotes",
													"type": "bool",
													"internalType": "bool"
												},
												{
													"name": "noNewTiersWithOwnerMinting",
													"type": "bool",
													"internalType": "bool"
												},
												{
													"name": "preventOverspending",
													"type": "bool",
													"internalType": "bool"
												}
											]
										}
									]
								},
								{
									"name": "operatorCanAdjustTiers",
									"type": "bool",
									"internalType": "bool"
								},
								{
									"name": "operatorCanUpdateMetadata",
									"type": "bool",
									"internalType": "bool"
								},
								{
									"name": "operatorCanMint",
									"type": "bool",
									"internalType": "bool"
								}
							]
						},
						{
							"name": "otherPayHooksSpecifications",
							"type": "tuple[]",
							"internalType": "struct JBPayHookSpecification[]",
							"components": [
								{
									"name": "hook",
									"type": "address",
									"internalType": "contract IJBPayHook"
								},
								{
									"name": "amount",
									"type": "uint256",
									"internalType": "uint256"
								},
								{
									"name": "metadata",
									"type": "bytes",
									"internalType": "bytes"
								}
							]
						},
						{
							"name": "extraHookMetadata",
							"type": "uint16",
							"internalType": "uint16"
						},
						{
							"name": "allowedPosts",
							"type": "tuple[]",
							"internalType": "struct REVCroptopAllowedPost[]",
							"components": [
								{
									"name": "category",
									"type": "uint256",
									"internalType": "uint256"
								},
								{
									"name": "minimumPrice",
									"type": "uint256",
									"internalType": "uint256"
								},
								{
									"name": "minimumTotalSupply",
									"type": "uint256",
									"internalType": "uint256"
								},
								{
									"name": "maximumTotalSupply",
									"type": "uint256",
									"internalType": "uint256"
								},
								{
									"name": "allowedAddresses",
									"type": "address[]",
									"internalType": "address[]"
								}
							]
						}
					],
					"outputs": [
						{
							"name": "",
							"type": "uint256",
							"internalType": "uint256"
						},
						{
							"name": "hook",
							"type": "address",
							"internalType": "contract IJB721TiersHook"
						}
					],
					"stateMutability": "nonpayable"
				},
				{
					"type": "function",
					"name": "launchPayHookRevnetFor",
					"inputs": [
						{
							"name": "revnetId",
							"type": "uint256",
							"internalType": "uint256"
						},
						{
							"name": "configuration",
							"type": "tuple",
							"internalType": "struct REVConfig",
							"components": [
								{
									"name": "description",
									"type": "tuple",
									"internalType": "struct REVDescription",
									"components": [
										{
											"name": "name",
											"type": "string",
											"internalType": "string"
										},
										{
											"name": "ticker",
											"type": "string",
											"internalType": "string"
										},
										{
											"name": "uri",
											"type": "string",
											"internalType": "string"
										},
										{
											"name": "salt",
											"type": "bytes32",
											"internalType": "bytes32"
										}
									]
								},
								{
									"name": "baseCurrency",
									"type": "uint32",
									"internalType": "uint32"
								},
								{
									"name": "initialSplitOperator",
									"type": "address",
									"internalType": "address"
								},
								{
									"name": "stageConfigurations",
									"type": "tuple[]",
									"internalType": "struct REVStageConfig[]",
									"components": [
										{
											"name": "startsAtOrAfter",
											"type": "uint40",
											"internalType": "uint40"
										},
										{
											"name": "mintConfigs",
											"type": "tuple[]",
											"internalType": "struct REVMintConfig[]",
											"components": [
												{
													"name": "chainId",
													"type": "uint256",
													"internalType": "uint256"
												},
												{
													"name": "count",
													"type": "uint256",
													"internalType": "uint256"
												},
												{
													"name": "beneficiary",
													"type": "address",
													"internalType": "address"
												}
											]
										},
										{
											"name": "splitRate",
											"type": "uint16",
											"internalType": "uint16"
										},
										{
											"name": "initialIssuanceRate",
											"type": "uint112",
											"internalType": "uint112"
										},
										{
											"name": "priceCeilingIncreaseFrequency",
											"type": "uint40",
											"internalType": "uint40"
										},
										{
											"name": "priceCeilingIncreasePercentage",
											"type": "uint32",
											"internalType": "uint32"
										},
										{
											"name": "priceFloorTaxIntensity",
											"type": "uint16",
											"internalType": "uint16"
										}
									]
								}
							]
						},
						{
							"name": "terminalConfigurations",
							"type": "tuple[]",
							"internalType": "struct JBTerminalConfig[]",
							"components": [
								{
									"name": "terminal",
									"type": "address",
									"internalType": "contract IJBTerminal"
								},
								{
									"name": "tokensToAccept",
									"type": "address[]",
									"internalType": "address[]"
								}
							]
						},
						{
							"name": "buybackHookConfiguration",
							"type": "tuple",
							"internalType": "struct REVBuybackHookConfig",
							"components": [
								{
									"name": "hook",
									"type": "address",
									"internalType": "contract IJBBuybackHook"
								},
								{
									"name": "poolConfigurations",
									"type": "tuple[]",
									"internalType": "struct REVBuybackPoolConfig[]",
									"components": [
										{
											"name": "token",
											"type": "address",
											"internalType": "address"
										},
										{
											"name": "fee",
											"type": "uint24",
											"internalType": "uint24"
										},
										{
											"name": "twapWindow",
											"type": "uint32",
											"internalType": "uint32"
										},
										{
											"name": "twapSlippageTolerance",
											"type": "uint32",
											"internalType": "uint32"
										}
									]
								}
							]
						},
						{
							"name": "suckerDeploymentConfiguration",
							"type": "tuple",
							"internalType": "struct REVSuckerDeploymentConfig",
							"components": [
								{
									"name": "deployerConfigurations",
									"type": "tuple[]",
									"internalType": "struct BPSuckerDeployerConfig[]",
									"components": [
										{
											"name": "deployer",
											"type": "address",
											"internalType": "contract IBPSuckerDeployer"
										},
										{
											"name": "mappings",
											"type": "tuple[]",
											"internalType": "struct BPTokenMapping[]",
											"components": [
												{
													"name": "localToken",
													"type": "address",
													"internalType": "address"
												},
												{
													"name": "minGas",
													"type": "uint32",
													"internalType": "uint32"
												},
												{
													"name": "remoteToken",
													"type": "address",
													"internalType": "address"
												},
												{
													"name": "minBridgeAmount",
													"type": "uint256",
													"internalType": "uint256"
												}
											]
										}
									]
								},
								{
									"name": "salt",
									"type": "bytes32",
									"internalType": "bytes32"
								}
							]
						},
						{
							"name": "payHookSpecifications",
							"type": "tuple[]",
							"internalType": "struct JBPayHookSpecification[]",
							"components": [
								{
									"name": "hook",
									"type": "address",
									"internalType": "contract IJBPayHook"
								},
								{
									"name": "amount",
									"type": "uint256",
									"internalType": "uint256"
								},
								{
									"name": "metadata",
									"type": "bytes",
									"internalType": "bytes"
								}
							]
						},
						{
							"name": "extraHookMetadata",
							"type": "uint16",
							"internalType": "uint16"
						}
					],
					"outputs": [
						{
							"name": "",
							"type": "uint256",
							"internalType": "uint256"
						}
					],
					"stateMutability": "nonpayable"
				},
				{
					"type": "function",
					"name": "launchRevnetFor",
					"inputs": [
						{
							"name": "revnetId",
							"type": "uint256",
							"internalType": "uint256"
						},
						{
							"name": "configuration",
							"type": "tuple",
							"internalType": "struct REVConfig",
							"components": [
								{
									"name": "description",
									"type": "tuple",
									"internalType": "struct REVDescription",
									"components": [
										{
											"name": "name",
											"type": "string",
											"internalType": "string"
										},
										{
											"name": "ticker",
											"type": "string",
											"internalType": "string"
										},
										{
											"name": "uri",
											"type": "string",
											"internalType": "string"
										},
										{
											"name": "salt",
											"type": "bytes32",
											"internalType": "bytes32"
										}
									]
								},
								{
									"name": "baseCurrency",
									"type": "uint32",
									"internalType": "uint32"
								},
								{
									"name": "initialSplitOperator",
									"type": "address",
									"internalType": "address"
								},
								{
									"name": "stageConfigurations",
									"type": "tuple[]",
									"internalType": "struct REVStageConfig[]",
									"components": [
										{
											"name": "startsAtOrAfter",
											"type": "uint40",
											"internalType": "uint40"
										},
										{
											"name": "mintConfigs",
											"type": "tuple[]",
											"internalType": "struct REVMintConfig[]",
											"components": [
												{
													"name": "chainId",
													"type": "uint256",
													"internalType": "uint256"
												},
												{
													"name": "count",
													"type": "uint256",
													"internalType": "uint256"
												},
												{
													"name": "beneficiary",
													"type": "address",
													"internalType": "address"
												}
											]
										},
										{
											"name": "splitRate",
											"type": "uint16",
											"internalType": "uint16"
										},
										{
											"name": "initialIssuanceRate",
											"type": "uint112",
											"internalType": "uint112"
										},
										{
											"name": "priceCeilingIncreaseFrequency",
											"type": "uint40",
											"internalType": "uint40"
										},
										{
											"name": "priceCeilingIncreasePercentage",
											"type": "uint32",
											"internalType": "uint32"
										},
										{
											"name": "priceFloorTaxIntensity",
											"type": "uint16",
											"internalType": "uint16"
										}
									]
								}
							]
						},
						{
							"name": "terminalConfigurations",
							"type": "tuple[]",
							"internalType": "struct JBTerminalConfig[]",
							"components": [
								{
									"name": "terminal",
									"type": "address",
									"internalType": "contract IJBTerminal"
								},
								{
									"name": "tokensToAccept",
									"type": "address[]",
									"internalType": "address[]"
								}
							]
						},
						{
							"name": "buybackHookConfiguration",
							"type": "tuple",
							"internalType": "struct REVBuybackHookConfig",
							"components": [
								{
									"name": "hook",
									"type": "address",
									"internalType": "contract IJBBuybackHook"
								},
								{
									"name": "poolConfigurations",
									"type": "tuple[]",
									"internalType": "struct REVBuybackPoolConfig[]",
									"components": [
										{
											"name": "token",
											"type": "address",
											"internalType": "address"
										},
										{
											"name": "fee",
											"type": "uint24",
											"internalType": "uint24"
										},
										{
											"name": "twapWindow",
											"type": "uint32",
											"internalType": "uint32"
										},
										{
											"name": "twapSlippageTolerance",
											"type": "uint32",
											"internalType": "uint32"
										}
									]
								}
							]
						},
						{
							"name": "suckerDeploymentConfiguration",
							"type": "tuple",
							"internalType": "struct REVSuckerDeploymentConfig",
							"components": [
								{
									"name": "deployerConfigurations",
									"type": "tuple[]",
									"internalType": "struct BPSuckerDeployerConfig[]",
									"components": [
										{
											"name": "deployer",
											"type": "address",
											"internalType": "contract IBPSuckerDeployer"
										},
										{
											"name": "mappings",
											"type": "tuple[]",
											"internalType": "struct BPTokenMapping[]",
											"components": [
												{
													"name": "localToken",
													"type": "address",
													"internalType": "address"
												},
												{
													"name": "minGas",
													"type": "uint32",
													"internalType": "uint32"
												},
												{
													"name": "remoteToken",
													"type": "address",
													"internalType": "address"
												},
												{
													"name": "minBridgeAmount",
													"type": "uint256",
													"internalType": "uint256"
												}
											]
										}
									]
								},
								{
									"name": "salt",
									"type": "bytes32",
									"internalType": "bytes32"
								}
							]
						}
					],
					"outputs": [
						{
							"name": "",
							"type": "uint256",
							"internalType": "uint256"
						}
					],
					"stateMutability": "nonpayable"
				},
				{
					"type": "function",
					"name": "launchTiered721RevnetFor",
					"inputs": [
						{
							"name": "revnetId",
							"type": "uint256",
							"internalType": "uint256"
						},
						{
							"name": "configuration",
							"type": "tuple",
							"internalType": "struct REVConfig",
							"components": [
								{
									"name": "description",
									"type": "tuple",
									"internalType": "struct REVDescription",
									"components": [
										{
											"name": "name",
											"type": "string",
											"internalType": "string"
										},
										{
											"name": "ticker",
											"type": "string",
											"internalType": "string"
										},
										{
											"name": "uri",
											"type": "string",
											"internalType": "string"
										},
										{
											"name": "salt",
											"type": "bytes32",
											"internalType": "bytes32"
										}
									]
								},
								{
									"name": "baseCurrency",
									"type": "uint32",
									"internalType": "uint32"
								},
								{
									"name": "initialSplitOperator",
									"type": "address",
									"internalType": "address"
								},
								{
									"name": "stageConfigurations",
									"type": "tuple[]",
									"internalType": "struct REVStageConfig[]",
									"components": [
										{
											"name": "startsAtOrAfter",
											"type": "uint40",
											"internalType": "uint40"
										},
										{
											"name": "mintConfigs",
											"type": "tuple[]",
											"internalType": "struct REVMintConfig[]",
											"components": [
												{
													"name": "chainId",
													"type": "uint256",
													"internalType": "uint256"
												},
												{
													"name": "count",
													"type": "uint256",
													"internalType": "uint256"
												},
												{
													"name": "beneficiary",
													"type": "address",
													"internalType": "address"
												}
											]
										},
										{
											"name": "splitRate",
											"type": "uint16",
											"internalType": "uint16"
										},
										{
											"name": "initialIssuanceRate",
											"type": "uint112",
											"internalType": "uint112"
										},
										{
											"name": "priceCeilingIncreaseFrequency",
											"type": "uint40",
											"internalType": "uint40"
										},
										{
											"name": "priceCeilingIncreasePercentage",
											"type": "uint32",
											"internalType": "uint32"
										},
										{
											"name": "priceFloorTaxIntensity",
											"type": "uint16",
											"internalType": "uint16"
										}
									]
								}
							]
						},
						{
							"name": "terminalConfigurations",
							"type": "tuple[]",
							"internalType": "struct JBTerminalConfig[]",
							"components": [
								{
									"name": "terminal",
									"type": "address",
									"internalType": "contract IJBTerminal"
								},
								{
									"name": "tokensToAccept",
									"type": "address[]",
									"internalType": "address[]"
								}
							]
						},
						{
							"name": "buybackHookConfiguration",
							"type": "tuple",
							"internalType": "struct REVBuybackHookConfig",
							"components": [
								{
									"name": "hook",
									"type": "address",
									"internalType": "contract IJBBuybackHook"
								},
								{
									"name": "poolConfigurations",
									"type": "tuple[]",
									"internalType": "struct REVBuybackPoolConfig[]",
									"components": [
										{
											"name": "token",
											"type": "address",
											"internalType": "address"
										},
										{
											"name": "fee",
											"type": "uint24",
											"internalType": "uint24"
										},
										{
											"name": "twapWindow",
											"type": "uint32",
											"internalType": "uint32"
										},
										{
											"name": "twapSlippageTolerance",
											"type": "uint32",
											"internalType": "uint32"
										}
									]
								}
							]
						},
						{
							"name": "suckerDeploymentConfiguration",
							"type": "tuple",
							"internalType": "struct REVSuckerDeploymentConfig",
							"components": [
								{
									"name": "deployerConfigurations",
									"type": "tuple[]",
									"internalType": "struct BPSuckerDeployerConfig[]",
									"components": [
										{
											"name": "deployer",
											"type": "address",
											"internalType": "contract IBPSuckerDeployer"
										},
										{
											"name": "mappings",
											"type": "tuple[]",
											"internalType": "struct BPTokenMapping[]",
											"components": [
												{
													"name": "localToken",
													"type": "address",
													"internalType": "address"
												},
												{
													"name": "minGas",
													"type": "uint32",
													"internalType": "uint32"
												},
												{
													"name": "remoteToken",
													"type": "address",
													"internalType": "address"
												},
												{
													"name": "minBridgeAmount",
													"type": "uint256",
													"internalType": "uint256"
												}
											]
										}
									]
								},
								{
									"name": "salt",
									"type": "bytes32",
									"internalType": "bytes32"
								}
							]
						},
						{
							"name": "hookConfiguration",
							"type": "tuple",
							"internalType": "struct REVDeploy721TiersHookConfig",
							"components": [
								{
									"name": "baseline721HookConfiguration",
									"type": "tuple",
									"internalType": "struct JBDeploy721TiersHookConfig",
									"components": [
										{
											"name": "name",
											"type": "string",
											"internalType": "string"
										},
										{
											"name": "symbol",
											"type": "string",
											"internalType": "string"
										},
										{
											"name": "rulesets",
											"type": "address",
											"internalType": "contract IJBRulesets"
										},
										{
											"name": "baseUri",
											"type": "string",
											"internalType": "string"
										},
										{
											"name": "tokenUriResolver",
											"type": "address",
											"internalType": "contract IJB721TokenUriResolver"
										},
										{
											"name": "contractUri",
											"type": "string",
											"internalType": "string"
										},
										{
											"name": "tiersConfig",
											"type": "tuple",
											"internalType": "struct JB721InitTiersConfig",
											"components": [
												{
													"name": "tiers",
													"type": "tuple[]",
													"internalType": "struct JB721TierConfig[]",
													"components": [
														{
															"name": "price",
															"type": "uint104",
															"internalType": "uint104"
														},
														{
															"name": "initialSupply",
															"type": "uint32",
															"internalType": "uint32"
														},
														{
															"name": "votingUnits",
															"type": "uint32",
															"internalType": "uint32"
														},
														{
															"name": "reserveFrequency",
															"type": "uint16",
															"internalType": "uint16"
														},
														{
															"name": "reserveBeneficiary",
															"type": "address",
															"internalType": "address"
														},
														{
															"name": "encodedIPFSUri",
															"type": "bytes32",
															"internalType": "bytes32"
														},
														{
															"name": "category",
															"type": "uint24",
															"internalType": "uint24"
														},
														{
															"name": "allowOwnerMint",
															"type": "bool",
															"internalType": "bool"
														},
														{
															"name": "useReserveBeneficiaryAsDefault",
															"type": "bool",
															"internalType": "bool"
														},
														{
															"name": "transfersPausable",
															"type": "bool",
															"internalType": "bool"
														},
														{
															"name": "useVotingUnits",
															"type": "bool",
															"internalType": "bool"
														},
														{
															"name": "cannotBeRemoved",
															"type": "bool",
															"internalType": "bool"
														}
													]
												},
												{
													"name": "currency",
													"type": "uint32",
													"internalType": "uint32"
												},
												{
													"name": "decimals",
													"type": "uint8",
													"internalType": "uint8"
												},
												{
													"name": "prices",
													"type": "address",
													"internalType": "contract IJBPrices"
												}
											]
										},
										{
											"name": "reserveBeneficiary",
											"type": "address",
											"internalType": "address"
										},
										{
											"name": "flags",
											"type": "tuple",
											"internalType": "struct JB721TiersHookFlags",
											"components": [
												{
													"name": "noNewTiersWithReserves",
													"type": "bool",
													"internalType": "bool"
												},
												{
													"name": "noNewTiersWithVotes",
													"type": "bool",
													"internalType": "bool"
												},
												{
													"name": "noNewTiersWithOwnerMinting",
													"type": "bool",
													"internalType": "bool"
												},
												{
													"name": "preventOverspending",
													"type": "bool",
													"internalType": "bool"
												}
											]
										}
									]
								},
								{
									"name": "operatorCanAdjustTiers",
									"type": "bool",
									"internalType": "bool"
								},
								{
									"name": "operatorCanUpdateMetadata",
									"type": "bool",
									"internalType": "bool"
								},
								{
									"name": "operatorCanMint",
									"type": "bool",
									"internalType": "bool"
								}
							]
						},
						{
							"name": "otherPayHooksSpecifications",
							"type": "tuple[]",
							"internalType": "struct JBPayHookSpecification[]",
							"components": [
								{
									"name": "hook",
									"type": "address",
									"internalType": "contract IJBPayHook"
								},
								{
									"name": "amount",
									"type": "uint256",
									"internalType": "uint256"
								},
								{
									"name": "metadata",
									"type": "bytes",
									"internalType": "bytes"
								}
							]
						},
						{
							"name": "extraHookMetadata",
							"type": "uint16",
							"internalType": "uint16"
						}
					],
					"outputs": [
						{
							"name": "",
							"type": "uint256",
							"internalType": "uint256"
						},
						{
							"name": "hook",
							"type": "address",
							"internalType": "contract IJB721TiersHook"
						}
					],
					"stateMutability": "nonpayable"
				},
				{
					"type": "function",
					"name": "mintFor",
					"inputs": [
						{
							"name": "revnetId",
							"type": "uint256",
							"internalType": "uint256"
						},
						{
							"name": "stageId",
							"type": "uint256",
							"internalType": "uint256"
						},
						{
							"name": "beneficiary",
							"type": "address",
							"internalType": "address"
						}
					],
					"outputs": [],
					"stateMutability": "nonpayable"
				},
				{
					"type": "function",
					"name": "onERC721Received",
					"inputs": [
						{
							"name": "operator",
							"type": "address",
							"internalType": "address"
						},
						{
							"name": "",
							"type": "address",
							"internalType": "address"
						},
						{
							"name": "tokenId",
							"type": "uint256",
							"internalType": "uint256"
						},
						{
							"name": "data",
							"type": "bytes",
							"internalType": "bytes"
						}
					],
					"outputs": [
						{
							"name": "",
							"type": "bytes4",
							"internalType": "bytes4"
						}
					],
					"stateMutability": "view"
				},
				{
					"type": "function",
					"name": "payHookSpecificationsOf",
					"inputs": [
						{
							"name": "revnetId",
							"type": "uint256",
							"internalType": "uint256"
						}
					],
					"outputs": [
						{
							"name": "",
							"type": "tuple[]",
							"internalType": "struct JBPayHookSpecification[]",
							"components": [
								{
									"name": "hook",
									"type": "address",
									"internalType": "contract IJBPayHook"
								},
								{
									"name": "amount",
									"type": "uint256",
									"internalType": "uint256"
								},
								{
									"name": "metadata",
									"type": "bytes",
									"internalType": "bytes"
								}
							]
						}
					],
					"stateMutability": "view"
				},
				{
					"type": "function",
					"name": "replaceSplitOperatorOf",
					"inputs": [
						{
							"name": "revnetId",
							"type": "uint256",
							"internalType": "uint256"
						},
						{
							"name": "newSplitOperator",
							"type": "address",
							"internalType": "address"
						}
					],
					"outputs": [],
					"stateMutability": "nonpayable"
				},
				{
					"type": "function",
					"name": "supportsInterface",
					"inputs": [
						{
							"name": "interfaceId",
							"type": "bytes4",
							"internalType": "bytes4"
						}
					],
					"outputs": [
						{
							"name": "",
							"type": "bool",
							"internalType": "bool"
						}
					],
					"stateMutability": "view"
				},
				{
					"type": "function",
					"name": "trustedForwarder",
					"inputs": [],
					"outputs": [
						{
							"name": "",
							"type": "address",
							"internalType": "address"
						}
					],
					"stateMutability": "view"
				},
				{
					"type": "event",
					"name": "DeployRevnet",
					"inputs": [
						{
							"name": "revnetId",
							"type": "uint256",
							"indexed": true,
							"internalType": "uint256"
						},
						{
							"name": "configuration",
							"type": "tuple",
							"indexed": false,
							"internalType": "struct REVConfig",
							"components": [
								{
									"name": "description",
									"type": "tuple",
									"internalType": "struct REVDescription",
									"components": [
										{
											"name": "name",
											"type": "string",
											"internalType": "string"
										},
										{
											"name": "ticker",
											"type": "string",
											"internalType": "string"
										},
										{
											"name": "uri",
											"type": "string",
											"internalType": "string"
										},
										{
											"name": "salt",
											"type": "bytes32",
											"internalType": "bytes32"
										}
									]
								},
								{
									"name": "baseCurrency",
									"type": "uint32",
									"internalType": "uint32"
								},
								{
									"name": "initialSplitOperator",
									"type": "address",
									"internalType": "address"
								},
								{
									"name": "stageConfigurations",
									"type": "tuple[]",
									"internalType": "struct REVStageConfig[]",
									"components": [
										{
											"name": "startsAtOrAfter",
											"type": "uint40",
											"internalType": "uint40"
										},
										{
											"name": "mintConfigs",
											"type": "tuple[]",
											"internalType": "struct REVMintConfig[]",
											"components": [
												{
													"name": "chainId",
													"type": "uint256",
													"internalType": "uint256"
												},
												{
													"name": "count",
													"type": "uint256",
													"internalType": "uint256"
												},
												{
													"name": "beneficiary",
													"type": "address",
													"internalType": "address"
												}
											]
										},
										{
											"name": "splitRate",
											"type": "uint16",
											"internalType": "uint16"
										},
										{
											"name": "initialIssuanceRate",
											"type": "uint112",
											"internalType": "uint112"
										},
										{
											"name": "priceCeilingIncreaseFrequency",
											"type": "uint40",
											"internalType": "uint40"
										},
										{
											"name": "priceCeilingIncreasePercentage",
											"type": "uint32",
											"internalType": "uint32"
										},
										{
											"name": "priceFloorTaxIntensity",
											"type": "uint16",
											"internalType": "uint16"
										}
									]
								}
							]
						},
						{
							"name": "terminalConfigurations",
							"type": "tuple[]",
							"indexed": false,
							"internalType": "struct JBTerminalConfig[]",
							"components": [
								{
									"name": "terminal",
									"type": "address",
									"internalType": "contract IJBTerminal"
								},
								{
									"name": "tokensToAccept",
									"type": "address[]",
									"internalType": "address[]"
								}
							]
						},
						{
							"name": "buybackHookConfiguration",
							"type": "tuple",
							"indexed": false,
							"internalType": "struct REVBuybackHookConfig",
							"components": [
								{
									"name": "hook",
									"type": "address",
									"internalType": "contract IJBBuybackHook"
								},
								{
									"name": "poolConfigurations",
									"type": "tuple[]",
									"internalType": "struct REVBuybackPoolConfig[]",
									"components": [
										{
											"name": "token",
											"type": "address",
											"internalType": "address"
										},
										{
											"name": "fee",
											"type": "uint24",
											"internalType": "uint24"
										},
										{
											"name": "twapWindow",
											"type": "uint32",
											"internalType": "uint32"
										},
										{
											"name": "twapSlippageTolerance",
											"type": "uint32",
											"internalType": "uint32"
										}
									]
								}
							]
						},
						{
							"name": "suckerDeploymentConfiguration",
							"type": "tuple",
							"indexed": false,
							"internalType": "struct REVSuckerDeploymentConfig",
							"components": [
								{
									"name": "deployerConfigurations",
									"type": "tuple[]",
									"internalType": "struct BPSuckerDeployerConfig[]",
									"components": [
										{
											"name": "deployer",
											"type": "address",
											"internalType": "contract IBPSuckerDeployer"
										},
										{
											"name": "mappings",
											"type": "tuple[]",
											"internalType": "struct BPTokenMapping[]",
											"components": [
												{
													"name": "localToken",
													"type": "address",
													"internalType": "address"
												},
												{
													"name": "minGas",
													"type": "uint32",
													"internalType": "uint32"
												},
												{
													"name": "remoteToken",
													"type": "address",
													"internalType": "address"
												},
												{
													"name": "minBridgeAmount",
													"type": "uint256",
													"internalType": "uint256"
												}
											]
										}
									]
								},
								{
									"name": "salt",
									"type": "bytes32",
									"internalType": "bytes32"
								}
							]
						},
						{
							"name": "rulesetConfigurations",
							"type": "tuple[]",
							"indexed": false,
							"internalType": "struct JBRulesetConfig[]",
							"components": [
								{
									"name": "mustStartAtOrAfter",
									"type": "uint256",
									"internalType": "uint256"
								},
								{
									"name": "duration",
									"type": "uint256",
									"internalType": "uint256"
								},
								{
									"name": "weight",
									"type": "uint256",
									"internalType": "uint256"
								},
								{
									"name": "decayRate",
									"type": "uint256",
									"internalType": "uint256"
								},
								{
									"name": "approvalHook",
									"type": "address",
									"internalType": "contract IJBRulesetApprovalHook"
								},
								{
									"name": "metadata",
									"type": "tuple",
									"internalType": "struct JBRulesetMetadata",
									"components": [
										{
											"name": "reservedRate",
											"type": "uint256",
											"internalType": "uint256"
										},
										{
											"name": "redemptionRate",
											"type": "uint256",
											"internalType": "uint256"
										},
										{
											"name": "baseCurrency",
											"type": "uint256",
											"internalType": "uint256"
										},
										{
											"name": "pausePay",
											"type": "bool",
											"internalType": "bool"
										},
										{
											"name": "pauseCreditTransfers",
											"type": "bool",
											"internalType": "bool"
										},
										{
											"name": "allowOwnerMinting",
											"type": "bool",
											"internalType": "bool"
										},
										{
											"name": "allowSetCustomToken",
											"type": "bool",
											"internalType": "bool"
										},
										{
											"name": "allowTerminalMigration",
											"type": "bool",
											"internalType": "bool"
										},
										{
											"name": "allowSetTerminals",
											"type": "bool",
											"internalType": "bool"
										},
										{
											"name": "allowControllerMigration",
											"type": "bool",
											"internalType": "bool"
										},
										{
											"name": "allowSetController",
											"type": "bool",
											"internalType": "bool"
										},
										{
											"name": "holdFees",
											"type": "bool",
											"internalType": "bool"
										},
										{
											"name": "useTotalSurplusForRedemptions",
											"type": "bool",
											"internalType": "bool"
										},
										{
											"name": "useDataHookForPay",
											"type": "bool",
											"internalType": "bool"
										},
										{
											"name": "useDataHookForRedeem",
											"type": "bool",
											"internalType": "bool"
										},
										{
											"name": "dataHook",
											"type": "address",
											"internalType": "address"
										},
										{
											"name": "metadata",
											"type": "uint256",
											"internalType": "uint256"
										}
									]
								},
								{
									"name": "splitGroups",
									"type": "tuple[]",
									"internalType": "struct JBSplitGroup[]",
									"components": [
										{
											"name": "groupId",
											"type": "uint256",
											"internalType": "uint256"
										},
										{
											"name": "splits",
											"type": "tuple[]",
											"internalType": "struct JBSplit[]",
											"components": [
												{
													"name": "preferAddToBalance",
													"type": "bool",
													"internalType": "bool"
												},
												{
													"name": "percent",
													"type": "uint256",
													"internalType": "uint256"
												},
												{
													"name": "projectId",
													"type": "uint256",
													"internalType": "uint256"
												},
												{
													"name": "beneficiary",
													"type": "address",
													"internalType": "address payable"
												},
												{
													"name": "lockedUntil",
													"type": "uint256",
													"internalType": "uint256"
												},
												{
													"name": "hook",
													"type": "address",
													"internalType": "contract IJBSplitHook"
												}
											]
										}
									]
								},
								{
									"name": "fundAccessLimitGroups",
									"type": "tuple[]",
									"internalType": "struct JBFundAccessLimitGroup[]",
									"components": [
										{
											"name": "terminal",
											"type": "address",
											"internalType": "address"
										},
										{
											"name": "token",
											"type": "address",
											"internalType": "address"
										},
										{
											"name": "payoutLimits",
											"type": "tuple[]",
											"internalType": "struct JBCurrencyAmount[]",
											"components": [
												{
													"name": "amount",
													"type": "uint256",
													"internalType": "uint256"
												},
												{
													"name": "currency",
													"type": "uint256",
													"internalType": "uint256"
												}
											]
										},
										{
											"name": "surplusAllowances",
											"type": "tuple[]",
											"internalType": "struct JBCurrencyAmount[]",
											"components": [
												{
													"name": "amount",
													"type": "uint256",
													"internalType": "uint256"
												},
												{
													"name": "currency",
													"type": "uint256",
													"internalType": "uint256"
												}
											]
										}
									]
								}
							]
						},
						{
							"name": "encodedConfiguration",
							"type": "bytes",
							"indexed": false,
							"internalType": "bytes"
						},
						{
							"name": "isInProgress",
							"type": "bool",
							"indexed": false,
							"internalType": "bool"
						},
						{
							"name": "caller",
							"type": "address",
							"indexed": false,
							"internalType": "address"
						}
					],
					"anonymous": false
				},
				{
					"type": "event",
					"name": "DeploySuckers",
					"inputs": [
						{
							"name": "revnetId",
							"type": "uint256",
							"indexed": true,
							"internalType": "uint256"
						},
						{
							"name": "salt",
							"type": "bytes32",
							"indexed": true,
							"internalType": "bytes32"
						},
						{
							"name": "encodedConfiguration",
							"type": "bytes",
							"indexed": false,
							"internalType": "bytes"
						},
						{
							"name": "suckerDeploymentConfiguration",
							"type": "tuple",
							"indexed": false,
							"internalType": "struct REVSuckerDeploymentConfig",
							"components": [
								{
									"name": "deployerConfigurations",
									"type": "tuple[]",
									"internalType": "struct BPSuckerDeployerConfig[]",
									"components": [
										{
											"name": "deployer",
											"type": "address",
											"internalType": "contract IBPSuckerDeployer"
										},
										{
											"name": "mappings",
											"type": "tuple[]",
											"internalType": "struct BPTokenMapping[]",
											"components": [
												{
													"name": "localToken",
													"type": "address",
													"internalType": "address"
												},
												{
													"name": "minGas",
													"type": "uint32",
													"internalType": "uint32"
												},
												{
													"name": "remoteToken",
													"type": "address",
													"internalType": "address"
												},
												{
													"name": "minBridgeAmount",
													"type": "uint256",
													"internalType": "uint256"
												}
											]
										}
									]
								},
								{
									"name": "salt",
									"type": "bytes32",
									"internalType": "bytes32"
								}
							]
						},
						{
							"name": "caller",
							"type": "address",
							"indexed": false,
							"internalType": "address"
						}
					],
					"anonymous": false
				},
				{
					"type": "event",
					"name": "Mint",
					"inputs": [
						{
							"name": "revnetId",
							"type": "uint256",
							"indexed": true,
							"internalType": "uint256"
						},
						{
							"name": "stageId",
							"type": "uint256",
							"indexed": true,
							"internalType": "uint256"
						},
						{
							"name": "beneficiary",
							"type": "address",
							"indexed": true,
							"internalType": "address"
						},
						{
							"name": "count",
							"type": "uint256",
							"indexed": false,
							"internalType": "uint256"
						},
						{
							"name": "caller",
							"type": "address",
							"indexed": false,
							"internalType": "address"
						}
					],
					"anonymous": false
				},
				{
					"type": "event",
					"name": "ReplaceSplitOperator",
					"inputs": [
						{
							"name": "revnetId",
							"type": "uint256",
							"indexed": true,
							"internalType": "uint256"
						},
						{
							"name": "newSplitOperator",
							"type": "address",
							"indexed": true,
							"internalType": "address"
						},
						{
							"name": "caller",
							"type": "address",
							"indexed": false,
							"internalType": "address"
						}
					],
					"anonymous": false
				},
				{
					"type": "event",
					"name": "StoreMintPotential",
					"inputs": [
						{
							"name": "revnetId",
							"type": "uint256",
							"indexed": true,
							"internalType": "uint256"
						},
						{
							"name": "stageId",
							"type": "uint256",
							"indexed": true,
							"internalType": "uint256"
						},
						{
							"name": "beneficiary",
							"type": "address",
							"indexed": true,
							"internalType": "address"
						},
						{
							"name": "count",
							"type": "uint256",
							"indexed": false,
							"internalType": "uint256"
						},
						{
							"name": "caller",
							"type": "address",
							"indexed": false,
							"internalType": "address"
						}
					],
					"anonymous": false
				},
				{
					"type": "event",
					"name": "StoredPayHookSpecifications",
					"inputs": [
						{
							"name": "revnetId",
							"type": "uint256",
							"indexed": true,
							"internalType": "uint256"
						},
						{
							"name": "payHookSpecifications",
							"type": "tuple[]",
							"indexed": false,
							"internalType": "struct JBPayHookSpecification[]",
							"components": [
								{
									"name": "hook",
									"type": "address",
									"internalType": "contract IJBPayHook"
								},
								{
									"name": "amount",
									"type": "uint256",
									"internalType": "uint256"
								},
								{
									"name": "metadata",
									"type": "bytes",
									"internalType": "bytes"
								}
							]
						},
						{
							"name": "caller",
							"type": "address",
							"indexed": false,
							"internalType": "address"
						}
					],
					"anonymous": false
				},
				{
					"type": "error",
					"name": "REVBasicDeployer_BadStageTimes",
					"inputs": []
				},
				{
					"type": "error",
					"name": "REVBasicDeployer_ExitDelayInEffect",
					"inputs": []
				},
				{
					"type": "error",
					"name": "REVBasicDeployer_StageNotStarted",
					"inputs": []
				},
				{
					"type": "error",
					"name": "REVBasicDeployer_Unauthorized",
					"inputs": []
				}
			],
			"solcInputHash": "80984f3bcdf2985beb21a155793a6006",
			"receipt": {
				"blockHash": "0x51bc51ecf287713442e55f034c7e949b36904064b6fdc1279a597ed9694bb203",
				"blockNumber": 10842699,
				"contractAddress": null,
				"cumulativeGasUsed": "10409155",
				"from": "0xC034550B542b83BA1De312b21d1C94a9a52B1595",
				"gasPrice": "1000253",
				"gasUsed": "10158000",
				"hash": "0x85f8319920610d0611aecbe1d709648f9bb87a1dcc429436783b97621bca1c55",
				"index": 3,
				"logs": [
					{
						"address": "0xB5E96127D417b1B3ef8438496a38A143167209c7",
						"blockHash": "0x51bc51ecf287713442e55f034c7e949b36904064b6fdc1279a597ed9694bb203",
						"blockNumber": 10842699,
						"data": "0x0000000000000000000000000000000000000000000000000000000000000000",
						"index": 2,
						"topics": [
							"0x572f161235911da04685a68c06adf558fc7e4a36909dca394650e0adc19cc93d",
							"0x000000000000000000000000c034550b542b83ba1de312b21d1c94a9a52b1595",
							"0x00000000000000000000000018ed911dda49f125bbadd71f826f1cda550f20fe",
							"0xb9e0a37ca6e9370c931067de01bbba39e6ecc3c46bb3093789082c7daa32e319"
						],
						"transactionHash": "0x85f8319920610d0611aecbe1d709648f9bb87a1dcc429436783b97621bca1c55",
						"transactionIndex": 3
					},
					{
						"address": "0x15B51C7D9DBc4681e54f8b493187C9a2377bd81B",
						"blockHash": "0x51bc51ecf287713442e55f034c7e949b36904064b6fdc1279a597ed9694bb203",
						"blockNumber": 10842699,
						"data": "0x",
						"index": 3,
						"topics": [
							"0x6895c13664aa4f67288b25d7a21d7aaa34916e355fb9b6fae0a139a9085becb8",
							"0x00000000000000000000000018ed911dda49f125bbadd71f826f1cda550f20fe"
						],
						"transactionHash": "0x85f8319920610d0611aecbe1d709648f9bb87a1dcc429436783b97621bca1c55",
						"transactionIndex": 3
					},
					{
						"address": "0x18Ed911ddA49f125bbadd71f826F1cDa550f20fE",
						"blockHash": "0x51bc51ecf287713442e55f034c7e949b36904064b6fdc1279a597ed9694bb203",
						"blockNumber": 10842699,
						"data": "0x0000000000000000000000000000000000000000000000000000000000000001",
						"index": 4,
						"topics": [
							"0xa65fb05c5808f5f389d72edeaf719ce38f4cc55c1f69ca3cbfb31c21501caa07",
							"0xa8b28f0a0ff94c0ccd343b0c647d1d1d68605c1177c36acf1715e5a075e676af"
						],
						"transactionHash": "0x85f8319920610d0611aecbe1d709648f9bb87a1dcc429436783b97621bca1c55",
						"transactionIndex": 3
					},
					{
						"address": "0x15B51C7D9DBc4681e54f8b493187C9a2377bd81B",
						"blockHash": "0x51bc51ecf287713442e55f034c7e949b36904064b6fdc1279a597ed9694bb203",
						"blockNumber": 10842699,
						"data": "0x",
						"index": 5,
						"topics": [
							"0x6895c13664aa4f67288b25d7a21d7aaa34916e355fb9b6fae0a139a9085becb8",
							"0x00000000000000000000000018ed911dda49f125bbadd71f826f1cda550f20fe"
						],
						"transactionHash": "0x85f8319920610d0611aecbe1d709648f9bb87a1dcc429436783b97621bca1c55",
						"transactionIndex": 3
					},
					{
						"address": "0x18Ed911ddA49f125bbadd71f826F1cDa550f20fE",
						"blockHash": "0x51bc51ecf287713442e55f034c7e949b36904064b6fdc1279a597ed9694bb203",
						"blockNumber": 10842699,
						"data": "0x0000000000000000000000000000000000000000000000000000000000000002",
						"index": 6,
						"topics": [
							"0xa65fb05c5808f5f389d72edeaf719ce38f4cc55c1f69ca3cbfb31c21501caa07",
							"0xa8b28f0a0ff94c0ccd343b0c647d1d1d68605c1177c36acf1715e5a075e676af"
						],
						"transactionHash": "0x85f8319920610d0611aecbe1d709648f9bb87a1dcc429436783b97621bca1c55",
						"transactionIndex": 3
					},
					{
						"address": "0x18Ed911ddA49f125bbadd71f826F1cDa550f20fE",
						"blockHash": "0x51bc51ecf287713442e55f034c7e949b36904064b6fdc1279a597ed9694bb203",
						"blockNumber": 10842699,
						"data": "0x",
						"index": 7,
						"topics": [
							"0x4383d976757d67ca920616be0b6430a681ea9d3dcce8d6d61d4603ca4a9bff63",
							"0xa8b28f0a0ff94c0ccd343b0c647d1d1d68605c1177c36acf1715e5a075e676af"
						],
						"transactionHash": "0x85f8319920610d0611aecbe1d709648f9bb87a1dcc429436783b97621bca1c55",
						"transactionIndex": 3
					}
				],
				"logsBloom": "0x00000000080010001000000000080000000000000008000000000000004000000000000000000000000000001040000000000004000004000000000000000000100000000000200000000040000000000000000000000000000000000000000000000000000000000000000000000000000000000000000000000000000000000000000000000000000100000008000000000000000000000000008000000000004000800010000000000800000001020200000000000000000000000044000000000000000000000000000208000000000000000000000000040000000000110000000000000008000000000000000200000000000000000000000008000000",
				"status": 1,
				"to": "0xB5E96127D417b1B3ef8438496a38A143167209c7"
			},
			"metadata": "{\"compiler\":{\"version\":\"0.8.23+commit.f704f362\"},\"language\":\"Solidity\",\"output\":{\"abi\":[{\"inputs\":[{\"internalType\":\"contract IJBController\",\"name\":\"controller\",\"type\":\"address\"},{\"internalType\":\"contract IBPSuckerRegistry\",\"name\":\"suckerRegistry\",\"type\":\"address\"},{\"internalType\":\"address\",\"name\":\"trustedForwarder\",\"type\":\"address\"},{\"internalType\":\"contract IJB721TiersHookDeployer\",\"name\":\"hookDeployer\",\"type\":\"address\"},{\"internalType\":\"contract CTPublisher\",\"name\":\"publisher\",\"type\":\"address\"}],\"stateMutability\":\"nonpayable\",\"type\":\"constructor\"},{\"inputs\":[],\"type\":\"error\",\"name\":\"REVBasicDeployer_BadStageTimes\"},{\"inputs\":[],\"type\":\"error\",\"name\":\"REVBasicDeployer_ExitDelayInEffect\"},{\"inputs\":[],\"type\":\"error\",\"name\":\"REVBasicDeployer_StageNotStarted\"},{\"inputs\":[],\"type\":\"error\",\"name\":\"REVBasicDeployer_Unauthorized\"},{\"inputs\":[{\"internalType\":\"uint256\",\"name\":\"revnetId\",\"type\":\"uint256\",\"indexed\":true},{\"internalType\":\"struct REVConfig\",\"name\":\"configuration\",\"type\":\"tuple\",\"components\":[{\"internalType\":\"struct REVDescription\",\"name\":\"description\",\"type\":\"tuple\",\"components\":[{\"internalType\":\"string\",\"name\":\"name\",\"type\":\"string\"},{\"internalType\":\"string\",\"name\":\"ticker\",\"type\":\"string\"},{\"internalType\":\"string\",\"name\":\"uri\",\"type\":\"string\"},{\"internalType\":\"bytes32\",\"name\":\"salt\",\"type\":\"bytes32\"}]},{\"internalType\":\"uint32\",\"name\":\"baseCurrency\",\"type\":\"uint32\"},{\"internalType\":\"address\",\"name\":\"initialSplitOperator\",\"type\":\"address\"},{\"internalType\":\"struct REVStageConfig[]\",\"name\":\"stageConfigurations\",\"type\":\"tuple[]\",\"components\":[{\"internalType\":\"uint40\",\"name\":\"startsAtOrAfter\",\"type\":\"uint40\"},{\"internalType\":\"struct REVMintConfig[]\",\"name\":\"mintConfigs\",\"type\":\"tuple[]\",\"components\":[{\"internalType\":\"uint256\",\"name\":\"chainId\",\"type\":\"uint256\"},{\"internalType\":\"uint256\",\"name\":\"count\",\"type\":\"uint256\"},{\"internalType\":\"address\",\"name\":\"beneficiary\",\"type\":\"address\"}]},{\"internalType\":\"uint16\",\"name\":\"splitRate\",\"type\":\"uint16\"},{\"internalType\":\"uint112\",\"name\":\"initialIssuanceRate\",\"type\":\"uint112\"},{\"internalType\":\"uint40\",\"name\":\"priceCeilingIncreaseFrequency\",\"type\":\"uint40\"},{\"internalType\":\"uint32\",\"name\":\"priceCeilingIncreasePercentage\",\"type\":\"uint32\"},{\"internalType\":\"uint16\",\"name\":\"priceFloorTaxIntensity\",\"type\":\"uint16\"}]}],\"indexed\":false},{\"internalType\":\"struct JBTerminalConfig[]\",\"name\":\"terminalConfigurations\",\"type\":\"tuple[]\",\"components\":[{\"internalType\":\"contract IJBTerminal\",\"name\":\"terminal\",\"type\":\"address\"},{\"internalType\":\"address[]\",\"name\":\"tokensToAccept\",\"type\":\"address[]\"}],\"indexed\":false},{\"internalType\":\"struct REVBuybackHookConfig\",\"name\":\"buybackHookConfiguration\",\"type\":\"tuple\",\"components\":[{\"internalType\":\"contract IJBBuybackHook\",\"name\":\"hook\",\"type\":\"address\"},{\"internalType\":\"struct REVBuybackPoolConfig[]\",\"name\":\"poolConfigurations\",\"type\":\"tuple[]\",\"components\":[{\"internalType\":\"address\",\"name\":\"token\",\"type\":\"address\"},{\"internalType\":\"uint24\",\"name\":\"fee\",\"type\":\"uint24\"},{\"internalType\":\"uint32\",\"name\":\"twapWindow\",\"type\":\"uint32\"},{\"internalType\":\"uint32\",\"name\":\"twapSlippageTolerance\",\"type\":\"uint32\"}]}],\"indexed\":false},{\"internalType\":\"struct REVSuckerDeploymentConfig\",\"name\":\"suckerDeploymentConfiguration\",\"type\":\"tuple\",\"components\":[{\"internalType\":\"struct BPSuckerDeployerConfig[]\",\"name\":\"deployerConfigurations\",\"type\":\"tuple[]\",\"components\":[{\"internalType\":\"contract IBPSuckerDeployer\",\"name\":\"deployer\",\"type\":\"address\"},{\"internalType\":\"struct BPTokenMapping[]\",\"name\":\"mappings\",\"type\":\"tuple[]\",\"components\":[{\"internalType\":\"address\",\"name\":\"localToken\",\"type\":\"address\"},{\"internalType\":\"uint32\",\"name\":\"minGas\",\"type\":\"uint32\"},{\"internalType\":\"address\",\"name\":\"remoteToken\",\"type\":\"address\"},{\"internalType\":\"uint256\",\"name\":\"minBridgeAmount\",\"type\":\"uint256\"}]}]},{\"internalType\":\"bytes32\",\"name\":\"salt\",\"type\":\"bytes32\"}],\"indexed\":false},{\"internalType\":\"struct JBRulesetConfig[]\",\"name\":\"rulesetConfigurations\",\"type\":\"tuple[]\",\"components\":[{\"internalType\":\"uint256\",\"name\":\"mustStartAtOrAfter\",\"type\":\"uint256\"},{\"internalType\":\"uint256\",\"name\":\"duration\",\"type\":\"uint256\"},{\"internalType\":\"uint256\",\"name\":\"weight\",\"type\":\"uint256\"},{\"internalType\":\"uint256\",\"name\":\"decayRate\",\"type\":\"uint256\"},{\"internalType\":\"contract IJBRulesetApprovalHook\",\"name\":\"approvalHook\",\"type\":\"address\"},{\"internalType\":\"struct JBRulesetMetadata\",\"name\":\"metadata\",\"type\":\"tuple\",\"components\":[{\"internalType\":\"uint256\",\"name\":\"reservedRate\",\"type\":\"uint256\"},{\"internalType\":\"uint256\",\"name\":\"redemptionRate\",\"type\":\"uint256\"},{\"internalType\":\"uint256\",\"name\":\"baseCurrency\",\"type\":\"uint256\"},{\"internalType\":\"bool\",\"name\":\"pausePay\",\"type\":\"bool\"},{\"internalType\":\"bool\",\"name\":\"pauseCreditTransfers\",\"type\":\"bool\"},{\"internalType\":\"bool\",\"name\":\"allowOwnerMinting\",\"type\":\"bool\"},{\"internalType\":\"bool\",\"name\":\"allowSetCustomToken\",\"type\":\"bool\"},{\"internalType\":\"bool\",\"name\":\"allowTerminalMigration\",\"type\":\"bool\"},{\"internalType\":\"bool\",\"name\":\"allowSetTerminals\",\"type\":\"bool\"},{\"internalType\":\"bool\",\"name\":\"allowControllerMigration\",\"type\":\"bool\"},{\"internalType\":\"bool\",\"name\":\"allowSetController\",\"type\":\"bool\"},{\"internalType\":\"bool\",\"name\":\"holdFees\",\"type\":\"bool\"},{\"internalType\":\"bool\",\"name\":\"useTotalSurplusForRedemptions\",\"type\":\"bool\"},{\"internalType\":\"bool\",\"name\":\"useDataHookForPay\",\"type\":\"bool\"},{\"internalType\":\"bool\",\"name\":\"useDataHookForRedeem\",\"type\":\"bool\"},{\"internalType\":\"address\",\"name\":\"dataHook\",\"type\":\"address\"},{\"internalType\":\"uint256\",\"name\":\"metadata\",\"type\":\"uint256\"}]},{\"internalType\":\"struct JBSplitGroup[]\",\"name\":\"splitGroups\",\"type\":\"tuple[]\",\"components\":[{\"internalType\":\"uint256\",\"name\":\"groupId\",\"type\":\"uint256\"},{\"internalType\":\"struct JBSplit[]\",\"name\":\"splits\",\"type\":\"tuple[]\",\"components\":[{\"internalType\":\"bool\",\"name\":\"preferAddToBalance\",\"type\":\"bool\"},{\"internalType\":\"uint256\",\"name\":\"percent\",\"type\":\"uint256\"},{\"internalType\":\"uint256\",\"name\":\"projectId\",\"type\":\"uint256\"},{\"internalType\":\"address payable\",\"name\":\"beneficiary\",\"type\":\"address\"},{\"internalType\":\"uint256\",\"name\":\"lockedUntil\",\"type\":\"uint256\"},{\"internalType\":\"contract IJBSplitHook\",\"name\":\"hook\",\"type\":\"address\"}]}]},{\"internalType\":\"struct JBFundAccessLimitGroup[]\",\"name\":\"fundAccessLimitGroups\",\"type\":\"tuple[]\",\"components\":[{\"internalType\":\"address\",\"name\":\"terminal\",\"type\":\"address\"},{\"internalType\":\"address\",\"name\":\"token\",\"type\":\"address\"},{\"internalType\":\"struct JBCurrencyAmount[]\",\"name\":\"payoutLimits\",\"type\":\"tuple[]\",\"components\":[{\"internalType\":\"uint256\",\"name\":\"amount\",\"type\":\"uint256\"},{\"internalType\":\"uint256\",\"name\":\"currency\",\"type\":\"uint256\"}]},{\"internalType\":\"struct JBCurrencyAmount[]\",\"name\":\"surplusAllowances\",\"type\":\"tuple[]\",\"components\":[{\"internalType\":\"uint256\",\"name\":\"amount\",\"type\":\"uint256\"},{\"internalType\":\"uint256\",\"name\":\"currency\",\"type\":\"uint256\"}]}]}],\"indexed\":false},{\"internalType\":\"bytes\",\"name\":\"encodedConfiguration\",\"type\":\"bytes\",\"indexed\":false},{\"internalType\":\"bool\",\"name\":\"isInProgress\",\"type\":\"bool\",\"indexed\":false},{\"internalType\":\"address\",\"name\":\"caller\",\"type\":\"address\",\"indexed\":false}],\"type\":\"event\",\"name\":\"DeployRevnet\",\"anonymous\":false},{\"inputs\":[{\"internalType\":\"uint256\",\"name\":\"revnetId\",\"type\":\"uint256\",\"indexed\":true},{\"internalType\":\"bytes32\",\"name\":\"salt\",\"type\":\"bytes32\",\"indexed\":true},{\"internalType\":\"bytes\",\"name\":\"encodedConfiguration\",\"type\":\"bytes\",\"indexed\":false},{\"internalType\":\"struct REVSuckerDeploymentConfig\",\"name\":\"suckerDeploymentConfiguration\",\"type\":\"tuple\",\"components\":[{\"internalType\":\"struct BPSuckerDeployerConfig[]\",\"name\":\"deployerConfigurations\",\"type\":\"tuple[]\",\"components\":[{\"internalType\":\"contract IBPSuckerDeployer\",\"name\":\"deployer\",\"type\":\"address\"},{\"internalType\":\"struct BPTokenMapping[]\",\"name\":\"mappings\",\"type\":\"tuple[]\",\"components\":[{\"internalType\":\"address\",\"name\":\"localToken\",\"type\":\"address\"},{\"internalType\":\"uint32\",\"name\":\"minGas\",\"type\":\"uint32\"},{\"internalType\":\"address\",\"name\":\"remoteToken\",\"type\":\"address\"},{\"internalType\":\"uint256\",\"name\":\"minBridgeAmount\",\"type\":\"uint256\"}]}]},{\"internalType\":\"bytes32\",\"name\":\"salt\",\"type\":\"bytes32\"}],\"indexed\":false},{\"internalType\":\"address\",\"name\":\"caller\",\"type\":\"address\",\"indexed\":false}],\"type\":\"event\",\"name\":\"DeploySuckers\",\"anonymous\":false},{\"inputs\":[{\"internalType\":\"uint256\",\"name\":\"revnetId\",\"type\":\"uint256\",\"indexed\":true},{\"internalType\":\"uint256\",\"name\":\"stageId\",\"type\":\"uint256\",\"indexed\":true},{\"internalType\":\"address\",\"name\":\"beneficiary\",\"type\":\"address\",\"indexed\":true},{\"internalType\":\"uint256\",\"name\":\"count\",\"type\":\"uint256\",\"indexed\":false},{\"internalType\":\"address\",\"name\":\"caller\",\"type\":\"address\",\"indexed\":false}],\"type\":\"event\",\"name\":\"Mint\",\"anonymous\":false},{\"inputs\":[{\"internalType\":\"uint256\",\"name\":\"revnetId\",\"type\":\"uint256\",\"indexed\":true},{\"internalType\":\"address\",\"name\":\"newSplitOperator\",\"type\":\"address\",\"indexed\":true},{\"internalType\":\"address\",\"name\":\"caller\",\"type\":\"address\",\"indexed\":false}],\"type\":\"event\",\"name\":\"ReplaceSplitOperator\",\"anonymous\":false},{\"inputs\":[{\"internalType\":\"uint256\",\"name\":\"revnetId\",\"type\":\"uint256\",\"indexed\":true},{\"internalType\":\"uint256\",\"name\":\"stageId\",\"type\":\"uint256\",\"indexed\":true},{\"internalType\":\"address\",\"name\":\"beneficiary\",\"type\":\"address\",\"indexed\":true},{\"internalType\":\"uint256\",\"name\":\"count\",\"type\":\"uint256\",\"indexed\":false},{\"internalType\":\"address\",\"name\":\"caller\",\"type\":\"address\",\"indexed\":false}],\"type\":\"event\",\"name\":\"StoreMintPotential\",\"anonymous\":false},{\"inputs\":[{\"internalType\":\"uint256\",\"name\":\"revnetId\",\"type\":\"uint256\",\"indexed\":true},{\"internalType\":\"struct JBPayHookSpecification[]\",\"name\":\"payHookSpecifications\",\"type\":\"tuple[]\",\"components\":[{\"internalType\":\"contract IJBPayHook\",\"name\":\"hook\",\"type\":\"address\"},{\"internalType\":\"uint256\",\"name\":\"amount\",\"type\":\"uint256\"},{\"internalType\":\"bytes\",\"name\":\"metadata\",\"type\":\"bytes\"}],\"indexed\":false},{\"internalType\":\"address\",\"name\":\"caller\",\"type\":\"address\",\"indexed\":false}],\"type\":\"event\",\"name\":\"StoredPayHookSpecifications\",\"anonymous\":false},{\"inputs\":[],\"stateMutability\":\"view\",\"type\":\"function\",\"name\":\"CONTROLLER\",\"outputs\":[{\"internalType\":\"contract IJBController\",\"name\":\"\",\"type\":\"address\"}]},{\"inputs\":[],\"stateMutability\":\"view\",\"type\":\"function\",\"name\":\"EXIT_DELAY\",\"outputs\":[{\"internalType\":\"uint256\",\"name\":\"\",\"type\":\"uint256\"}]},{\"inputs\":[],\"stateMutability\":\"view\",\"type\":\"function\",\"name\":\"HOOK_DEPLOYER\",\"outputs\":[{\"internalType\":\"contract IJB721TiersHookDeployer\",\"name\":\"\",\"type\":\"address\"}]},{\"inputs\":[],\"stateMutability\":\"view\",\"type\":\"function\",\"name\":\"PUBLISHER\",\"outputs\":[{\"internalType\":\"contract CTPublisher\",\"name\":\"\",\"type\":\"address\"}]},{\"inputs\":[],\"stateMutability\":\"view\",\"type\":\"function\",\"name\":\"SUCKER_REGISTRY\",\"outputs\":[{\"internalType\":\"contract IBPSuckerRegistry\",\"name\":\"\",\"type\":\"address\"}]},{\"inputs\":[{\"internalType\":\"uint256\",\"name\":\"revnetId\",\"type\":\"uint256\"},{\"internalType\":\"uint256\",\"name\":\"stageId\",\"type\":\"uint256\"},{\"internalType\":\"address\",\"name\":\"beneficiary\",\"type\":\"address\"}],\"stateMutability\":\"view\",\"type\":\"function\",\"name\":\"allowedMintCountOf\",\"outputs\":[{\"internalType\":\"uint256\",\"name\":\"\",\"type\":\"uint256\"}]},{\"inputs\":[{\"internalType\":\"struct JBBeforePayRecordedContext\",\"name\":\"context\",\"type\":\"tuple\",\"components\":[{\"internalType\":\"address\",\"name\":\"terminal\",\"type\":\"address\"},{\"internalType\":\"address\",\"name\":\"payer\",\"type\":\"address\"},{\"internalType\":\"struct JBTokenAmount\",\"name\":\"amount\",\"type\":\"tuple\",\"components\":[{\"internalType\":\"address\",\"name\":\"token\",\"type\":\"address\"},{\"internalType\":\"uint256\",\"name\":\"value\",\"type\":\"uint256\"},{\"internalType\":\"uint256\",\"name\":\"decimals\",\"type\":\"uint256\"},{\"internalType\":\"uint256\",\"name\":\"currency\",\"type\":\"uint256\"}]},{\"internalType\":\"uint256\",\"name\":\"projectId\",\"type\":\"uint256\"},{\"internalType\":\"uint256\",\"name\":\"rulesetId\",\"type\":\"uint256\"},{\"internalType\":\"address\",\"name\":\"beneficiary\",\"type\":\"address\"},{\"internalType\":\"uint256\",\"name\":\"weight\",\"type\":\"uint256\"},{\"internalType\":\"uint256\",\"name\":\"reservedRate\",\"type\":\"uint256\"},{\"internalType\":\"bytes\",\"name\":\"metadata\",\"type\":\"bytes\"}]}],\"stateMutability\":\"view\",\"type\":\"function\",\"name\":\"beforePayRecordedWith\",\"outputs\":[{\"internalType\":\"uint256\",\"name\":\"weight\",\"type\":\"uint256\"},{\"internalType\":\"struct JBPayHookSpecification[]\",\"name\":\"hookSpecifications\",\"type\":\"tuple[]\",\"components\":[{\"internalType\":\"contract IJBPayHook\",\"name\":\"hook\",\"type\":\"address\"},{\"internalType\":\"uint256\",\"name\":\"amount\",\"type\":\"uint256\"},{\"internalType\":\"bytes\",\"name\":\"metadata\",\"type\":\"bytes\"}]}]},{\"inputs\":[{\"internalType\":\"struct JBBeforeRedeemRecordedContext\",\"name\":\"context\",\"type\":\"tuple\",\"components\":[{\"internalType\":\"address\",\"name\":\"terminal\",\"type\":\"address\"},{\"internalType\":\"address\",\"name\":\"holder\",\"type\":\"address\"},{\"internalType\":\"uint256\",\"name\":\"projectId\",\"type\":\"uint256\"},{\"internalType\":\"uint256\",\"name\":\"rulesetId\",\"type\":\"uint256\"},{\"internalType\":\"uint256\",\"name\":\"redeemCount\",\"type\":\"uint256\"},{\"internalType\":\"uint256\",\"name\":\"totalSupply\",\"type\":\"uint256\"},{\"internalType\":\"struct JBTokenAmount\",\"name\":\"surplus\",\"type\":\"tuple\",\"components\":[{\"internalType\":\"address\",\"name\":\"token\",\"type\":\"address\"},{\"internalType\":\"uint256\",\"name\":\"value\",\"type\":\"uint256\"},{\"internalType\":\"uint256\",\"name\":\"decimals\",\"type\":\"uint256\"},{\"internalType\":\"uint256\",\"name\":\"currency\",\"type\":\"uint256\"}]},{\"internalType\":\"bool\",\"name\":\"useTotalSurplus\",\"type\":\"bool\"},{\"internalType\":\"uint256\",\"name\":\"redemptionRate\",\"type\":\"uint256\"},{\"internalType\":\"bytes\",\"name\":\"metadata\",\"type\":\"bytes\"}]}],\"stateMutability\":\"view\",\"type\":\"function\",\"name\":\"beforeRedeemRecordedWith\",\"outputs\":[{\"internalType\":\"uint256\",\"name\":\"\",\"type\":\"uint256\"},{\"internalType\":\"uint256\",\"name\":\"\",\"type\":\"uint256\"},{\"internalType\":\"uint256\",\"name\":\"\",\"type\":\"uint256\"},{\"internalType\":\"struct JBRedeemHookSpecification[]\",\"name\":\"specifications\",\"type\":\"tuple[]\",\"components\":[{\"internalType\":\"contract IJBRedeemHook\",\"name\":\"hook\",\"type\":\"address\"},{\"internalType\":\"uint256\",\"name\":\"amount\",\"type\":\"uint256\"},{\"internalType\":\"bytes\",\"name\":\"metadata\",\"type\":\"bytes\"}]}]},{\"inputs\":[{\"internalType\":\"uint256\",\"name\":\"revnetId\",\"type\":\"uint256\"}],\"stateMutability\":\"view\",\"type\":\"function\",\"name\":\"buybackHookOf\",\"outputs\":[{\"internalType\":\"contract IJBRulesetDataHook\",\"name\":\"buybackHook\",\"type\":\"address\"}]},{\"inputs\":[{\"internalType\":\"uint256\",\"name\":\"revnetId\",\"type\":\"uint256\"},{\"internalType\":\"bytes\",\"name\":\"encodedConfiguration\",\"type\":\"bytes\"},{\"internalType\":\"struct REVSuckerDeploymentConfig\",\"name\":\"suckerDeploymentConfiguration\",\"type\":\"tuple\",\"components\":[{\"internalType\":\"struct BPSuckerDeployerConfig[]\",\"name\":\"deployerConfigurations\",\"type\":\"tuple[]\",\"components\":[{\"internalType\":\"contract IBPSuckerDeployer\",\"name\":\"deployer\",\"type\":\"address\"},{\"internalType\":\"struct BPTokenMapping[]\",\"name\":\"mappings\",\"type\":\"tuple[]\",\"components\":[{\"internalType\":\"address\",\"name\":\"localToken\",\"type\":\"address\"},{\"internalType\":\"uint32\",\"name\":\"minGas\",\"type\":\"uint32\"},{\"internalType\":\"address\",\"name\":\"remoteToken\",\"type\":\"address\"},{\"internalType\":\"uint256\",\"name\":\"minBridgeAmount\",\"type\":\"uint256\"}]}]},{\"internalType\":\"bytes32\",\"name\":\"salt\",\"type\":\"bytes32\"}]}],\"stateMutability\":\"nonpayable\",\"type\":\"function\",\"name\":\"deploySuckersFor\"},{\"inputs\":[{\"internalType\":\"uint256\",\"name\":\"revnetId\",\"type\":\"uint256\"}],\"stateMutability\":\"view\",\"type\":\"function\",\"name\":\"exitDelayOf\",\"outputs\":[{\"internalType\":\"uint256\",\"name\":\"exitDelay\",\"type\":\"uint256\"}]},{\"inputs\":[{\"internalType\":\"uint256\",\"name\":\"revnetId\",\"type\":\"uint256\"},{\"internalType\":\"address\",\"name\":\"addr\",\"type\":\"address\"}],\"stateMutability\":\"view\",\"type\":\"function\",\"name\":\"hasMintPermissionFor\",\"outputs\":[{\"internalType\":\"bool\",\"name\":\"\",\"type\":\"bool\"}]},{\"inputs\":[{\"internalType\":\"address\",\"name\":\"forwarder\",\"type\":\"address\"}],\"stateMutability\":\"view\",\"type\":\"function\",\"name\":\"isTrustedForwarder\",\"outputs\":[{\"internalType\":\"bool\",\"name\":\"\",\"type\":\"bool\"}]},{\"inputs\":[{\"internalType\":\"uint256\",\"name\":\"revnetId\",\"type\":\"uint256\"},{\"internalType\":\"struct REVConfig\",\"name\":\"configuration\",\"type\":\"tuple\",\"components\":[{\"internalType\":\"struct REVDescription\",\"name\":\"description\",\"type\":\"tuple\",\"components\":[{\"internalType\":\"string\",\"name\":\"name\",\"type\":\"string\"},{\"internalType\":\"string\",\"name\":\"ticker\",\"type\":\"string\"},{\"internalType\":\"string\",\"name\":\"uri\",\"type\":\"string\"},{\"internalType\":\"bytes32\",\"name\":\"salt\",\"type\":\"bytes32\"}]},{\"internalType\":\"uint32\",\"name\":\"baseCurrency\",\"type\":\"uint32\"},{\"internalType\":\"address\",\"name\":\"initialSplitOperator\",\"type\":\"address\"},{\"internalType\":\"struct REVStageConfig[]\",\"name\":\"stageConfigurations\",\"type\":\"tuple[]\",\"components\":[{\"internalType\":\"uint40\",\"name\":\"startsAtOrAfter\",\"type\":\"uint40\"},{\"internalType\":\"struct REVMintConfig[]\",\"name\":\"mintConfigs\",\"type\":\"tuple[]\",\"components\":[{\"internalType\":\"uint256\",\"name\":\"chainId\",\"type\":\"uint256\"},{\"internalType\":\"uint256\",\"name\":\"count\",\"type\":\"uint256\"},{\"internalType\":\"address\",\"name\":\"beneficiary\",\"type\":\"address\"}]},{\"internalType\":\"uint16\",\"name\":\"splitRate\",\"type\":\"uint16\"},{\"internalType\":\"uint112\",\"name\":\"initialIssuanceRate\",\"type\":\"uint112\"},{\"internalType\":\"uint40\",\"name\":\"priceCeilingIncreaseFrequency\",\"type\":\"uint40\"},{\"internalType\":\"uint32\",\"name\":\"priceCeilingIncreasePercentage\",\"type\":\"uint32\"},{\"internalType\":\"uint16\",\"name\":\"priceFloorTaxIntensity\",\"type\":\"uint16\"}]}]},{\"internalType\":\"struct JBTerminalConfig[]\",\"name\":\"terminalConfigurations\",\"type\":\"tuple[]\",\"components\":[{\"internalType\":\"contract IJBTerminal\",\"name\":\"terminal\",\"type\":\"address\"},{\"internalType\":\"address[]\",\"name\":\"tokensToAccept\",\"type\":\"address[]\"}]},{\"internalType\":\"struct REVBuybackHookConfig\",\"name\":\"buybackHookConfiguration\",\"type\":\"tuple\",\"components\":[{\"internalType\":\"contract IJBBuybackHook\",\"name\":\"hook\",\"type\":\"address\"},{\"internalType\":\"struct REVBuybackPoolConfig[]\",\"name\":\"poolConfigurations\",\"type\":\"tuple[]\",\"components\":[{\"internalType\":\"address\",\"name\":\"token\",\"type\":\"address\"},{\"internalType\":\"uint24\",\"name\":\"fee\",\"type\":\"uint24\"},{\"internalType\":\"uint32\",\"name\":\"twapWindow\",\"type\":\"uint32\"},{\"internalType\":\"uint32\",\"name\":\"twapSlippageTolerance\",\"type\":\"uint32\"}]}]},{\"internalType\":\"struct REVSuckerDeploymentConfig\",\"name\":\"suckerDeploymentConfiguration\",\"type\":\"tuple\",\"components\":[{\"internalType\":\"struct BPSuckerDeployerConfig[]\",\"name\":\"deployerConfigurations\",\"type\":\"tuple[]\",\"components\":[{\"internalType\":\"contract IBPSuckerDeployer\",\"name\":\"deployer\",\"type\":\"address\"},{\"internalType\":\"struct BPTokenMapping[]\",\"name\":\"mappings\",\"type\":\"tuple[]\",\"components\":[{\"internalType\":\"address\",\"name\":\"localToken\",\"type\":\"address\"},{\"internalType\":\"uint32\",\"name\":\"minGas\",\"type\":\"uint32\"},{\"internalType\":\"address\",\"name\":\"remoteToken\",\"type\":\"address\"},{\"internalType\":\"uint256\",\"name\":\"minBridgeAmount\",\"type\":\"uint256\"}]}]},{\"internalType\":\"bytes32\",\"name\":\"salt\",\"type\":\"bytes32\"}]},{\"internalType\":\"struct REVDeploy721TiersHookConfig\",\"name\":\"hookConfiguration\",\"type\":\"tuple\",\"components\":[{\"internalType\":\"struct JBDeploy721TiersHookConfig\",\"name\":\"baseline721HookConfiguration\",\"type\":\"tuple\",\"components\":[{\"internalType\":\"string\",\"name\":\"name\",\"type\":\"string\"},{\"internalType\":\"string\",\"name\":\"symbol\",\"type\":\"string\"},{\"internalType\":\"contract IJBRulesets\",\"name\":\"rulesets\",\"type\":\"address\"},{\"internalType\":\"string\",\"name\":\"baseUri\",\"type\":\"string\"},{\"internalType\":\"contract IJB721TokenUriResolver\",\"name\":\"tokenUriResolver\",\"type\":\"address\"},{\"internalType\":\"string\",\"name\":\"contractUri\",\"type\":\"string\"},{\"internalType\":\"struct JB721InitTiersConfig\",\"name\":\"tiersConfig\",\"type\":\"tuple\",\"components\":[{\"internalType\":\"struct JB721TierConfig[]\",\"name\":\"tiers\",\"type\":\"tuple[]\",\"components\":[{\"internalType\":\"uint104\",\"name\":\"price\",\"type\":\"uint104\"},{\"internalType\":\"uint32\",\"name\":\"initialSupply\",\"type\":\"uint32\"},{\"internalType\":\"uint32\",\"name\":\"votingUnits\",\"type\":\"uint32\"},{\"internalType\":\"uint16\",\"name\":\"reserveFrequency\",\"type\":\"uint16\"},{\"internalType\":\"address\",\"name\":\"reserveBeneficiary\",\"type\":\"address\"},{\"internalType\":\"bytes32\",\"name\":\"encodedIPFSUri\",\"type\":\"bytes32\"},{\"internalType\":\"uint24\",\"name\":\"category\",\"type\":\"uint24\"},{\"internalType\":\"bool\",\"name\":\"allowOwnerMint\",\"type\":\"bool\"},{\"internalType\":\"bool\",\"name\":\"useReserveBeneficiaryAsDefault\",\"type\":\"bool\"},{\"internalType\":\"bool\",\"name\":\"transfersPausable\",\"type\":\"bool\"},{\"internalType\":\"bool\",\"name\":\"useVotingUnits\",\"type\":\"bool\"},{\"internalType\":\"bool\",\"name\":\"cannotBeRemoved\",\"type\":\"bool\"}]},{\"internalType\":\"uint32\",\"name\":\"currency\",\"type\":\"uint32\"},{\"internalType\":\"uint8\",\"name\":\"decimals\",\"type\":\"uint8\"},{\"internalType\":\"contract IJBPrices\",\"name\":\"prices\",\"type\":\"address\"}]},{\"internalType\":\"address\",\"name\":\"reserveBeneficiary\",\"type\":\"address\"},{\"internalType\":\"struct JB721TiersHookFlags\",\"name\":\"flags\",\"type\":\"tuple\",\"components\":[{\"internalType\":\"bool\",\"name\":\"noNewTiersWithReserves\",\"type\":\"bool\"},{\"internalType\":\"bool\",\"name\":\"noNewTiersWithVotes\",\"type\":\"bool\"},{\"internalType\":\"bool\",\"name\":\"noNewTiersWithOwnerMinting\",\"type\":\"bool\"},{\"internalType\":\"bool\",\"name\":\"preventOverspending\",\"type\":\"bool\"}]}]},{\"internalType\":\"bool\",\"name\":\"operatorCanAdjustTiers\",\"type\":\"bool\"},{\"internalType\":\"bool\",\"name\":\"operatorCanUpdateMetadata\",\"type\":\"bool\"},{\"internalType\":\"bool\",\"name\":\"operatorCanMint\",\"type\":\"bool\"}]},{\"internalType\":\"struct JBPayHookSpecification[]\",\"name\":\"otherPayHooksSpecifications\",\"type\":\"tuple[]\",\"components\":[{\"internalType\":\"contract IJBPayHook\",\"name\":\"hook\",\"type\":\"address\"},{\"internalType\":\"uint256\",\"name\":\"amount\",\"type\":\"uint256\"},{\"internalType\":\"bytes\",\"name\":\"metadata\",\"type\":\"bytes\"}]},{\"internalType\":\"uint16\",\"name\":\"extraHookMetadata\",\"type\":\"uint16\"},{\"internalType\":\"struct REVCroptopAllowedPost[]\",\"name\":\"allowedPosts\",\"type\":\"tuple[]\",\"components\":[{\"internalType\":\"uint256\",\"name\":\"category\",\"type\":\"uint256\"},{\"internalType\":\"uint256\",\"name\":\"minimumPrice\",\"type\":\"uint256\"},{\"internalType\":\"uint256\",\"name\":\"minimumTotalSupply\",\"type\":\"uint256\"},{\"internalType\":\"uint256\",\"name\":\"maximumTotalSupply\",\"type\":\"uint256\"},{\"internalType\":\"address[]\",\"name\":\"allowedAddresses\",\"type\":\"address[]\"}]}],\"stateMutability\":\"nonpayable\",\"type\":\"function\",\"name\":\"launchCroptopRevnetFor\",\"outputs\":[{\"internalType\":\"uint256\",\"name\":\"\",\"type\":\"uint256\"},{\"internalType\":\"contract IJB721TiersHook\",\"name\":\"hook\",\"type\":\"address\"}]},{\"inputs\":[{\"internalType\":\"uint256\",\"name\":\"revnetId\",\"type\":\"uint256\"},{\"internalType\":\"struct REVConfig\",\"name\":\"configuration\",\"type\":\"tuple\",\"components\":[{\"internalType\":\"struct REVDescription\",\"name\":\"description\",\"type\":\"tuple\",\"components\":[{\"internalType\":\"string\",\"name\":\"name\",\"type\":\"string\"},{\"internalType\":\"string\",\"name\":\"ticker\",\"type\":\"string\"},{\"internalType\":\"string\",\"name\":\"uri\",\"type\":\"string\"},{\"internalType\":\"bytes32\",\"name\":\"salt\",\"type\":\"bytes32\"}]},{\"internalType\":\"uint32\",\"name\":\"baseCurrency\",\"type\":\"uint32\"},{\"internalType\":\"address\",\"name\":\"initialSplitOperator\",\"type\":\"address\"},{\"internalType\":\"struct REVStageConfig[]\",\"name\":\"stageConfigurations\",\"type\":\"tuple[]\",\"components\":[{\"internalType\":\"uint40\",\"name\":\"startsAtOrAfter\",\"type\":\"uint40\"},{\"internalType\":\"struct REVMintConfig[]\",\"name\":\"mintConfigs\",\"type\":\"tuple[]\",\"components\":[{\"internalType\":\"uint256\",\"name\":\"chainId\",\"type\":\"uint256\"},{\"internalType\":\"uint256\",\"name\":\"count\",\"type\":\"uint256\"},{\"internalType\":\"address\",\"name\":\"beneficiary\",\"type\":\"address\"}]},{\"internalType\":\"uint16\",\"name\":\"splitRate\",\"type\":\"uint16\"},{\"internalType\":\"uint112\",\"name\":\"initialIssuanceRate\",\"type\":\"uint112\"},{\"internalType\":\"uint40\",\"name\":\"priceCeilingIncreaseFrequency\",\"type\":\"uint40\"},{\"internalType\":\"uint32\",\"name\":\"priceCeilingIncreasePercentage\",\"type\":\"uint32\"},{\"internalType\":\"uint16\",\"name\":\"priceFloorTaxIntensity\",\"type\":\"uint16\"}]}]},{\"internalType\":\"struct JBTerminalConfig[]\",\"name\":\"terminalConfigurations\",\"type\":\"tuple[]\",\"components\":[{\"internalType\":\"contract IJBTerminal\",\"name\":\"terminal\",\"type\":\"address\"},{\"internalType\":\"address[]\",\"name\":\"tokensToAccept\",\"type\":\"address[]\"}]},{\"internalType\":\"struct REVBuybackHookConfig\",\"name\":\"buybackHookConfiguration\",\"type\":\"tuple\",\"components\":[{\"internalType\":\"contract IJBBuybackHook\",\"name\":\"hook\",\"type\":\"address\"},{\"internalType\":\"struct REVBuybackPoolConfig[]\",\"name\":\"poolConfigurations\",\"type\":\"tuple[]\",\"components\":[{\"internalType\":\"address\",\"name\":\"token\",\"type\":\"address\"},{\"internalType\":\"uint24\",\"name\":\"fee\",\"type\":\"uint24\"},{\"internalType\":\"uint32\",\"name\":\"twapWindow\",\"type\":\"uint32\"},{\"internalType\":\"uint32\",\"name\":\"twapSlippageTolerance\",\"type\":\"uint32\"}]}]},{\"internalType\":\"struct REVSuckerDeploymentConfig\",\"name\":\"suckerDeploymentConfiguration\",\"type\":\"tuple\",\"components\":[{\"internalType\":\"struct BPSuckerDeployerConfig[]\",\"name\":\"deployerConfigurations\",\"type\":\"tuple[]\",\"components\":[{\"internalType\":\"contract IBPSuckerDeployer\",\"name\":\"deployer\",\"type\":\"address\"},{\"internalType\":\"struct BPTokenMapping[]\",\"name\":\"mappings\",\"type\":\"tuple[]\",\"components\":[{\"internalType\":\"address\",\"name\":\"localToken\",\"type\":\"address\"},{\"internalType\":\"uint32\",\"name\":\"minGas\",\"type\":\"uint32\"},{\"internalType\":\"address\",\"name\":\"remoteToken\",\"type\":\"address\"},{\"internalType\":\"uint256\",\"name\":\"minBridgeAmount\",\"type\":\"uint256\"}]}]},{\"internalType\":\"bytes32\",\"name\":\"salt\",\"type\":\"bytes32\"}]},{\"internalType\":\"struct JBPayHookSpecification[]\",\"name\":\"payHookSpecifications\",\"type\":\"tuple[]\",\"components\":[{\"internalType\":\"contract IJBPayHook\",\"name\":\"hook\",\"type\":\"address\"},{\"internalType\":\"uint256\",\"name\":\"amount\",\"type\":\"uint256\"},{\"internalType\":\"bytes\",\"name\":\"metadata\",\"type\":\"bytes\"}]},{\"internalType\":\"uint16\",\"name\":\"extraHookMetadata\",\"type\":\"uint16\"}],\"stateMutability\":\"nonpayable\",\"type\":\"function\",\"name\":\"launchPayHookRevnetFor\",\"outputs\":[{\"internalType\":\"uint256\",\"name\":\"\",\"type\":\"uint256\"}]},{\"inputs\":[{\"internalType\":\"uint256\",\"name\":\"revnetId\",\"type\":\"uint256\"},{\"internalType\":\"struct REVConfig\",\"name\":\"configuration\",\"type\":\"tuple\",\"components\":[{\"internalType\":\"struct REVDescription\",\"name\":\"description\",\"type\":\"tuple\",\"components\":[{\"internalType\":\"string\",\"name\":\"name\",\"type\":\"string\"},{\"internalType\":\"string\",\"name\":\"ticker\",\"type\":\"string\"},{\"internalType\":\"string\",\"name\":\"uri\",\"type\":\"string\"},{\"internalType\":\"bytes32\",\"name\":\"salt\",\"type\":\"bytes32\"}]},{\"internalType\":\"uint32\",\"name\":\"baseCurrency\",\"type\":\"uint32\"},{\"internalType\":\"address\",\"name\":\"initialSplitOperator\",\"type\":\"address\"},{\"internalType\":\"struct REVStageConfig[]\",\"name\":\"stageConfigurations\",\"type\":\"tuple[]\",\"components\":[{\"internalType\":\"uint40\",\"name\":\"startsAtOrAfter\",\"type\":\"uint40\"},{\"internalType\":\"struct REVMintConfig[]\",\"name\":\"mintConfigs\",\"type\":\"tuple[]\",\"components\":[{\"internalType\":\"uint256\",\"name\":\"chainId\",\"type\":\"uint256\"},{\"internalType\":\"uint256\",\"name\":\"count\",\"type\":\"uint256\"},{\"internalType\":\"address\",\"name\":\"beneficiary\",\"type\":\"address\"}]},{\"internalType\":\"uint16\",\"name\":\"splitRate\",\"type\":\"uint16\"},{\"internalType\":\"uint112\",\"name\":\"initialIssuanceRate\",\"type\":\"uint112\"},{\"internalType\":\"uint40\",\"name\":\"priceCeilingIncreaseFrequency\",\"type\":\"uint40\"},{\"internalType\":\"uint32\",\"name\":\"priceCeilingIncreasePercentage\",\"type\":\"uint32\"},{\"internalType\":\"uint16\",\"name\":\"priceFloorTaxIntensity\",\"type\":\"uint16\"}]}]},{\"internalType\":\"struct JBTerminalConfig[]\",\"name\":\"terminalConfigurations\",\"type\":\"tuple[]\",\"components\":[{\"internalType\":\"contract IJBTerminal\",\"name\":\"terminal\",\"type\":\"address\"},{\"internalType\":\"address[]\",\"name\":\"tokensToAccept\",\"type\":\"address[]\"}]},{\"internalType\":\"struct REVBuybackHookConfig\",\"name\":\"buybackHookConfiguration\",\"type\":\"tuple\",\"components\":[{\"internalType\":\"contract IJBBuybackHook\",\"name\":\"hook\",\"type\":\"address\"},{\"internalType\":\"struct REVBuybackPoolConfig[]\",\"name\":\"poolConfigurations\",\"type\":\"tuple[]\",\"components\":[{\"internalType\":\"address\",\"name\":\"token\",\"type\":\"address\"},{\"internalType\":\"uint24\",\"name\":\"fee\",\"type\":\"uint24\"},{\"internalType\":\"uint32\",\"name\":\"twapWindow\",\"type\":\"uint32\"},{\"internalType\":\"uint32\",\"name\":\"twapSlippageTolerance\",\"type\":\"uint32\"}]}]},{\"internalType\":\"struct REVSuckerDeploymentConfig\",\"name\":\"suckerDeploymentConfiguration\",\"type\":\"tuple\",\"components\":[{\"internalType\":\"struct BPSuckerDeployerConfig[]\",\"name\":\"deployerConfigurations\",\"type\":\"tuple[]\",\"components\":[{\"internalType\":\"contract IBPSuckerDeployer\",\"name\":\"deployer\",\"type\":\"address\"},{\"internalType\":\"struct BPTokenMapping[]\",\"name\":\"mappings\",\"type\":\"tuple[]\",\"components\":[{\"internalType\":\"address\",\"name\":\"localToken\",\"type\":\"address\"},{\"internalType\":\"uint32\",\"name\":\"minGas\",\"type\":\"uint32\"},{\"internalType\":\"address\",\"name\":\"remoteToken\",\"type\":\"address\"},{\"internalType\":\"uint256\",\"name\":\"minBridgeAmount\",\"type\":\"uint256\"}]}]},{\"internalType\":\"bytes32\",\"name\":\"salt\",\"type\":\"bytes32\"}]}],\"stateMutability\":\"nonpayable\",\"type\":\"function\",\"name\":\"launchRevnetFor\",\"outputs\":[{\"internalType\":\"uint256\",\"name\":\"\",\"type\":\"uint256\"}]},{\"inputs\":[{\"internalType\":\"uint256\",\"name\":\"revnetId\",\"type\":\"uint256\"},{\"internalType\":\"struct REVConfig\",\"name\":\"configuration\",\"type\":\"tuple\",\"components\":[{\"internalType\":\"struct REVDescription\",\"name\":\"description\",\"type\":\"tuple\",\"components\":[{\"internalType\":\"string\",\"name\":\"name\",\"type\":\"string\"},{\"internalType\":\"string\",\"name\":\"ticker\",\"type\":\"string\"},{\"internalType\":\"string\",\"name\":\"uri\",\"type\":\"string\"},{\"internalType\":\"bytes32\",\"name\":\"salt\",\"type\":\"bytes32\"}]},{\"internalType\":\"uint32\",\"name\":\"baseCurrency\",\"type\":\"uint32\"},{\"internalType\":\"address\",\"name\":\"initialSplitOperator\",\"type\":\"address\"},{\"internalType\":\"struct REVStageConfig[]\",\"name\":\"stageConfigurations\",\"type\":\"tuple[]\",\"components\":[{\"internalType\":\"uint40\",\"name\":\"startsAtOrAfter\",\"type\":\"uint40\"},{\"internalType\":\"struct REVMintConfig[]\",\"name\":\"mintConfigs\",\"type\":\"tuple[]\",\"components\":[{\"internalType\":\"uint256\",\"name\":\"chainId\",\"type\":\"uint256\"},{\"internalType\":\"uint256\",\"name\":\"count\",\"type\":\"uint256\"},{\"internalType\":\"address\",\"name\":\"beneficiary\",\"type\":\"address\"}]},{\"internalType\":\"uint16\",\"name\":\"splitRate\",\"type\":\"uint16\"},{\"internalType\":\"uint112\",\"name\":\"initialIssuanceRate\",\"type\":\"uint112\"},{\"internalType\":\"uint40\",\"name\":\"priceCeilingIncreaseFrequency\",\"type\":\"uint40\"},{\"internalType\":\"uint32\",\"name\":\"priceCeilingIncreasePercentage\",\"type\":\"uint32\"},{\"internalType\":\"uint16\",\"name\":\"priceFloorTaxIntensity\",\"type\":\"uint16\"}]}]},{\"internalType\":\"struct JBTerminalConfig[]\",\"name\":\"terminalConfigurations\",\"type\":\"tuple[]\",\"components\":[{\"internalType\":\"contract IJBTerminal\",\"name\":\"terminal\",\"type\":\"address\"},{\"internalType\":\"address[]\",\"name\":\"tokensToAccept\",\"type\":\"address[]\"}]},{\"internalType\":\"struct REVBuybackHookConfig\",\"name\":\"buybackHookConfiguration\",\"type\":\"tuple\",\"components\":[{\"internalType\":\"contract IJBBuybackHook\",\"name\":\"hook\",\"type\":\"address\"},{\"internalType\":\"struct REVBuybackPoolConfig[]\",\"name\":\"poolConfigurations\",\"type\":\"tuple[]\",\"components\":[{\"internalType\":\"address\",\"name\":\"token\",\"type\":\"address\"},{\"internalType\":\"uint24\",\"name\":\"fee\",\"type\":\"uint24\"},{\"internalType\":\"uint32\",\"name\":\"twapWindow\",\"type\":\"uint32\"},{\"internalType\":\"uint32\",\"name\":\"twapSlippageTolerance\",\"type\":\"uint32\"}]}]},{\"internalType\":\"struct REVSuckerDeploymentConfig\",\"name\":\"suckerDeploymentConfiguration\",\"type\":\"tuple\",\"components\":[{\"internalType\":\"struct BPSuckerDeployerConfig[]\",\"name\":\"deployerConfigurations\",\"type\":\"tuple[]\",\"components\":[{\"internalType\":\"contract IBPSuckerDeployer\",\"name\":\"deployer\",\"type\":\"address\"},{\"internalType\":\"struct BPTokenMapping[]\",\"name\":\"mappings\",\"type\":\"tuple[]\",\"components\":[{\"internalType\":\"address\",\"name\":\"localToken\",\"type\":\"address\"},{\"internalType\":\"uint32\",\"name\":\"minGas\",\"type\":\"uint32\"},{\"internalType\":\"address\",\"name\":\"remoteToken\",\"type\":\"address\"},{\"internalType\":\"uint256\",\"name\":\"minBridgeAmount\",\"type\":\"uint256\"}]}]},{\"internalType\":\"bytes32\",\"name\":\"salt\",\"type\":\"bytes32\"}]},{\"internalType\":\"struct REVDeploy721TiersHookConfig\",\"name\":\"hookConfiguration\",\"type\":\"tuple\",\"components\":[{\"internalType\":\"struct JBDeploy721TiersHookConfig\",\"name\":\"baseline721HookConfiguration\",\"type\":\"tuple\",\"components\":[{\"internalType\":\"string\",\"name\":\"name\",\"type\":\"string\"},{\"internalType\":\"string\",\"name\":\"symbol\",\"type\":\"string\"},{\"internalType\":\"contract IJBRulesets\",\"name\":\"rulesets\",\"type\":\"address\"},{\"internalType\":\"string\",\"name\":\"baseUri\",\"type\":\"string\"},{\"internalType\":\"contract IJB721TokenUriResolver\",\"name\":\"tokenUriResolver\",\"type\":\"address\"},{\"internalType\":\"string\",\"name\":\"contractUri\",\"type\":\"string\"},{\"internalType\":\"struct JB721InitTiersConfig\",\"name\":\"tiersConfig\",\"type\":\"tuple\",\"components\":[{\"internalType\":\"struct JB721TierConfig[]\",\"name\":\"tiers\",\"type\":\"tuple[]\",\"components\":[{\"internalType\":\"uint104\",\"name\":\"price\",\"type\":\"uint104\"},{\"internalType\":\"uint32\",\"name\":\"initialSupply\",\"type\":\"uint32\"},{\"internalType\":\"uint32\",\"name\":\"votingUnits\",\"type\":\"uint32\"},{\"internalType\":\"uint16\",\"name\":\"reserveFrequency\",\"type\":\"uint16\"},{\"internalType\":\"address\",\"name\":\"reserveBeneficiary\",\"type\":\"address\"},{\"internalType\":\"bytes32\",\"name\":\"encodedIPFSUri\",\"type\":\"bytes32\"},{\"internalType\":\"uint24\",\"name\":\"category\",\"type\":\"uint24\"},{\"internalType\":\"bool\",\"name\":\"allowOwnerMint\",\"type\":\"bool\"},{\"internalType\":\"bool\",\"name\":\"useReserveBeneficiaryAsDefault\",\"type\":\"bool\"},{\"internalType\":\"bool\",\"name\":\"transfersPausable\",\"type\":\"bool\"},{\"internalType\":\"bool\",\"name\":\"useVotingUnits\",\"type\":\"bool\"},{\"internalType\":\"bool\",\"name\":\"cannotBeRemoved\",\"type\":\"bool\"}]},{\"internalType\":\"uint32\",\"name\":\"currency\",\"type\":\"uint32\"},{\"internalType\":\"uint8\",\"name\":\"decimals\",\"type\":\"uint8\"},{\"internalType\":\"contract IJBPrices\",\"name\":\"prices\",\"type\":\"address\"}]},{\"internalType\":\"address\",\"name\":\"reserveBeneficiary\",\"type\":\"address\"},{\"internalType\":\"struct JB721TiersHookFlags\",\"name\":\"flags\",\"type\":\"tuple\",\"components\":[{\"internalType\":\"bool\",\"name\":\"noNewTiersWithReserves\",\"type\":\"bool\"},{\"internalType\":\"bool\",\"name\":\"noNewTiersWithVotes\",\"type\":\"bool\"},{\"internalType\":\"bool\",\"name\":\"noNewTiersWithOwnerMinting\",\"type\":\"bool\"},{\"internalType\":\"bool\",\"name\":\"preventOverspending\",\"type\":\"bool\"}]}]},{\"internalType\":\"bool\",\"name\":\"operatorCanAdjustTiers\",\"type\":\"bool\"},{\"internalType\":\"bool\",\"name\":\"operatorCanUpdateMetadata\",\"type\":\"bool\"},{\"internalType\":\"bool\",\"name\":\"operatorCanMint\",\"type\":\"bool\"}]},{\"internalType\":\"struct JBPayHookSpecification[]\",\"name\":\"otherPayHooksSpecifications\",\"type\":\"tuple[]\",\"components\":[{\"internalType\":\"contract IJBPayHook\",\"name\":\"hook\",\"type\":\"address\"},{\"internalType\":\"uint256\",\"name\":\"amount\",\"type\":\"uint256\"},{\"internalType\":\"bytes\",\"name\":\"metadata\",\"type\":\"bytes\"}]},{\"internalType\":\"uint16\",\"name\":\"extraHookMetadata\",\"type\":\"uint16\"}],\"stateMutability\":\"nonpayable\",\"type\":\"function\",\"name\":\"launchTiered721RevnetFor\",\"outputs\":[{\"internalType\":\"uint256\",\"name\":\"\",\"type\":\"uint256\"},{\"internalType\":\"contract IJB721TiersHook\",\"name\":\"hook\",\"type\":\"address\"}]},{\"inputs\":[{\"internalType\":\"uint256\",\"name\":\"revnetId\",\"type\":\"uint256\"},{\"internalType\":\"uint256\",\"name\":\"stageId\",\"type\":\"uint256\"},{\"internalType\":\"address\",\"name\":\"beneficiary\",\"type\":\"address\"}],\"stateMutability\":\"nonpayable\",\"type\":\"function\",\"name\":\"mintFor\"},{\"inputs\":[{\"internalType\":\"address\",\"name\":\"operator\",\"type\":\"address\"},{\"internalType\":\"address\",\"name\":\"\",\"type\":\"address\"},{\"internalType\":\"uint256\",\"name\":\"tokenId\",\"type\":\"uint256\"},{\"internalType\":\"bytes\",\"name\":\"data\",\"type\":\"bytes\"}],\"stateMutability\":\"view\",\"type\":\"function\",\"name\":\"onERC721Received\",\"outputs\":[{\"internalType\":\"bytes4\",\"name\":\"\",\"type\":\"bytes4\"}]},{\"inputs\":[{\"internalType\":\"uint256\",\"name\":\"revnetId\",\"type\":\"uint256\"}],\"stateMutability\":\"view\",\"type\":\"function\",\"name\":\"payHookSpecificationsOf\",\"outputs\":[{\"internalType\":\"struct JBPayHookSpecification[]\",\"name\":\"\",\"type\":\"tuple[]\",\"components\":[{\"internalType\":\"contract IJBPayHook\",\"name\":\"hook\",\"type\":\"address\"},{\"internalType\":\"uint256\",\"name\":\"amount\",\"type\":\"uint256\"},{\"internalType\":\"bytes\",\"name\":\"metadata\",\"type\":\"bytes\"}]}]},{\"inputs\":[{\"internalType\":\"uint256\",\"name\":\"revnetId\",\"type\":\"uint256\"},{\"internalType\":\"address\",\"name\":\"newSplitOperator\",\"type\":\"address\"}],\"stateMutability\":\"nonpayable\",\"type\":\"function\",\"name\":\"replaceSplitOperatorOf\"},{\"inputs\":[{\"internalType\":\"bytes4\",\"name\":\"interfaceId\",\"type\":\"bytes4\"}],\"stateMutability\":\"view\",\"type\":\"function\",\"name\":\"supportsInterface\",\"outputs\":[{\"internalType\":\"bool\",\"name\":\"\",\"type\":\"bool\"}]},{\"inputs\":[],\"stateMutability\":\"view\",\"type\":\"function\",\"name\":\"trustedForwarder\",\"outputs\":[{\"internalType\":\"address\",\"name\":\"\",\"type\":\"address\"}]}],\"devdoc\":{\"kind\":\"dev\",\"methods\":{\"beforePayRecordedWith((address,address,(address,uint256,uint256,uint256),uint256,uint256,address,uint256,uint256,bytes))\":{\"details\":\"Part of IJBFundingCycleDataSource.This implementation just sets this contract up to receive a `didPay` call.\",\"params\":{\"context\":\"The Juicebox standard network payment context. See\"},\"returns\":{\"hookSpecifications\":\"Amount to be sent to pay hooks instead of adding to local balance. Useful for auto-routing funds from a treasury as payment come in.\",\"weight\":\"The weight that network tokens should get minted relative to. This is useful for optionally customizing how many tokens are issued per payment.\"}},\"constructor\":{\"params\":{\"controller\":\"The controller that revnets are made from.\",\"hookDeployer\":\"The 721 tiers hook deployer.\",\"publisher\":\"The croptop publisher that facilitates the permissioned publishing of 721 posts to a revnet.\",\"suckerRegistry\":\"The registry that deploys and tracks each project's suckers.\",\"trustedForwarder\":\"The trusted forwarder for the ERC2771Context.\"}},\"deploySuckersFor(uint256,bytes,((address,(address,uint32,address,uint256)[])[],bytes32))\":{\"params\":{\"encodedConfiguration\":\"A bytes representation of the revnet's configuration.\",\"revnetId\":\"The ID of the revnet having new suckers deployed.\",\"suckerDeploymentConfiguration\":\"The specifics about the suckers being deployed.\"}},\"hasMintPermissionFor(uint256,address)\":{\"params\":{\"addr\":\"The address to check if has permissions.\",\"revnetId\":\"The ID of the revnet to check permissions for.\"},\"returns\":{\"_0\":\"flag The flag indicating if the address has permissions to mint on the revnet's behalf.\"}},\"isTrustedForwarder(address)\":{\"details\":\"Indicates whether any particular address is the trusted forwarder.\"},\"launchCroptopRevnetFor(uint256,((string,string,string,bytes32),uint32,address,(uint40,(uint256,uint256,address)[],uint16,uint112,uint40,uint32,uint16)[]),(address,address[])[],(address,(address,uint24,uint32,uint32)[]),((address,(address,uint32,address,uint256)[])[],bytes32),((string,string,address,string,address,string,((uint104,uint32,uint32,uint16,address,bytes32,uint24,bool,bool,bool,bool,bool)[],uint32,uint8,address),address,(bool,bool,bool,bool)),bool,bool,bool),(address,uint256,bytes)[],uint16,(uint256,uint256,uint256,uint256,address[])[])\":{\"params\":{\"allowedPosts\":\"The type of posts that the revent should allow.\",\"buybackHookConfiguration\":\"Data used for setting up the buyback hook to use when determining the best price for new participants.\",\"configuration\":\"The data needed to deploy a basic revnet.\",\"extraHookMetadata\":\"Extra metadata to attach to the cycle for the delegates to use.\",\"hookConfiguration\":\"Data used for setting up the 721 tiers.\",\"otherPayHooksSpecifications\":\"Any hooks that should run when the revnet is paid alongside the 721 hook.\",\"revnetId\":\"The ID of the Juicebox project to turn into a revnet. Send 0 to deploy a new revnet.\",\"suckerDeploymentConfiguration\":\"Information about how this revnet relates to other's across chains.\",\"terminalConfigurations\":\"The terminals that the network uses to accept payments through.\"},\"returns\":{\"_0\":\"revnetId The ID of the newly created revnet.\",\"hook\":\"The address of the 721 hook that was deployed on the revnet.\"}},\"launchPayHookRevnetFor(uint256,((string,string,string,bytes32),uint32,address,(uint40,(uint256,uint256,address)[],uint16,uint112,uint40,uint32,uint16)[]),(address,address[])[],(address,(address,uint24,uint32,uint32)[]),((address,(address,uint32,address,uint256)[])[],bytes32),(address,uint256,bytes)[],uint16)\":{\"params\":{\"buybackHookConfiguration\":\"Data used for setting up the buyback hook to use when determining the best price for new participants.\",\"configuration\":\"The data needed to deploy a basic revnet.\",\"extraHookMetadata\":\"Extra metadata to attach to the cycle for the delegates to use.\",\"payHookSpecifications\":\"Any hooks that should run when the revnet is paid.\",\"revnetId\":\"The ID of the Juicebox project to turn into a revnet. Send 0 to deploy a new revnet.\",\"suckerDeploymentConfiguration\":\"Information about how this revnet relates to other's across chains.\",\"terminalConfigurations\":\"The terminals that the network uses to accept payments through.\"},\"returns\":{\"_0\":\"revnetId The ID of the newly created revnet.\"}},\"launchRevnetFor(uint256,((string,string,string,bytes32),uint32,address,(uint40,(uint256,uint256,address)[],uint16,uint112,uint40,uint32,uint16)[]),(address,address[])[],(address,(address,uint24,uint32,uint32)[]),((address,(address,uint32,address,uint256)[])[],bytes32))\":{\"params\":{\"buybackHookConfiguration\":\"Data used for setting up the buyback hook to use when determining the best price for new participants.\",\"configuration\":\"The data needed to deploy a basic revnet.\",\"revnetId\":\"The ID of the Juicebox project to turn into a revnet. Send 0 to deploy a new revnet.\",\"suckerDeploymentConfiguration\":\"Information about how this revnet relates to other's across chains.\",\"terminalConfigurations\":\"The terminals that the network uses to accept payments through.\"},\"returns\":{\"_0\":\"revnetId The ID of the newly created revnet.\"}},\"launchTiered721RevnetFor(uint256,((string,string,string,bytes32),uint32,address,(uint40,(uint256,uint256,address)[],uint16,uint112,uint40,uint32,uint16)[]),(address,address[])[],(address,(address,uint24,uint32,uint32)[]),((address,(address,uint32,address,uint256)[])[],bytes32),((string,string,address,string,address,string,((uint104,uint32,uint32,uint16,address,bytes32,uint24,bool,bool,bool,bool,bool)[],uint32,uint8,address),address,(bool,bool,bool,bool)),bool,bool,bool),(address,uint256,bytes)[],uint16)\":{\"params\":{\"buybackHookConfiguration\":\"Data used for setting up the buyback hook to use when determining the best price for new participants.\",\"configuration\":\"The data needed to deploy a basic revnet.\",\"extraHookMetadata\":\"Extra metadata to attach to the cycle for the delegates to use.\",\"hookConfiguration\":\"Data used for setting up the 721 tiers.\",\"otherPayHooksSpecifications\":\"Any hooks that should run when the revnet is paid alongside the 721 hook.\",\"revnetId\":\"The ID of the Juicebox project to turn into a revnet. Send 0 to deploy a new revnet.\",\"suckerDeploymentConfiguration\":\"Information about how this revnet relates to other's across chains.\",\"terminalConfigurations\":\"The terminals that the network uses to accept payments through.\"},\"returns\":{\"_0\":\"revnetId The ID of the newly created revnet.\",\"hook\":\"The address of the 721 hook that was deployed on the revnet.\"}},\"mintFor(uint256,uint256,address)\":{\"params\":{\"beneficiary\":\"The address to mint tokens to.\",\"revnetId\":\"The ID of the revnet to mint tokens from.\",\"stageId\":\"The ID of the stage to mint tokens from.\"}},\"onERC721Received(address,address,uint256,bytes)\":{\"details\":\"Make sure only mints can be received.\"},\"payHookSpecificationsOf(uint256)\":{\"params\":{\"revnetId\":\"The ID of the revnet to which the extensions apply.\"},\"returns\":{\"_0\":\"payHookSpecifications The pay hooks.\"}},\"replaceSplitOperatorOf(uint256,address)\":{\"params\":{\"newSplitOperator\":\"The address of the new split operator.\",\"revnetId\":\"The ID of the revnet having its operator replaced.\"}},\"supportsInterface(bytes4)\":{\"details\":\"See {IERC165-supportsInterface}.\",\"params\":{\"interfaceId\":\"The ID of the interface to check for adherence to.\"},\"returns\":{\"_0\":\"A flag indicating if the provided interface ID is supported.\"}},\"trustedForwarder()\":{\"details\":\"Returns the address of the trusted forwarder.\"}},\"version\":1},\"userdoc\":{\"kind\":\"user\",\"methods\":{\"CONTROLLER()\":{\"notice\":\"The controller that networks are made from.\"},\"EXIT_DELAY()\":{\"notice\":\"The amount of time from a sucker being deployed to when it can facilitate exits.\"},\"HOOK_DEPLOYER()\":{\"notice\":\"The contract responsible for deploying the tiered 721 hook.\"},\"PUBLISHER()\":{\"notice\":\"The croptop publisher that facilitates the permissioned publishing of 721 posts to a revnet.\"},\"SUCKER_REGISTRY()\":{\"notice\":\"The registry that deploys and tracks each project's suckers.\"},\"allowedMintCountOf(uint256,uint256,address)\":{\"notice\":\"The specification of how many tokens are still allowed to be minted at each stage of a revnet.\"},\"beforePayRecordedWith((address,address,(address,uint256,uint256,uint256),uint256,uint256,address,uint256,uint256,bytes))\":{\"notice\":\"This function gets called when the revnet receives a payment.\"},\"beforeRedeemRecordedWith((address,address,uint256,uint256,uint256,uint256,(address,uint256,uint256,uint256),bool,uint256,bytes))\":{\"notice\":\"This function is never called, it needs to be included to adhere to the interface.\"},\"buybackHookOf(uint256)\":{\"notice\":\"The data hook that returns the correct values for the buyback hook of each network.\"},\"deploySuckersFor(uint256,bytes,((address,(address,uint32,address,uint256)[])[],bytes32))\":{\"notice\":\"Allows a revnet's split operator to deploy new suckers to the revnet after it's deployed.\"},\"exitDelayOf(uint256)\":{\"notice\":\"The time at which exits from a revnet become allowed.\"},\"hasMintPermissionFor(uint256,address)\":{\"notice\":\"Required by the IJBRulesetDataHook interfaces.\"},\"launchCroptopRevnetFor(uint256,((string,string,string,bytes32),uint32,address,(uint40,(uint256,uint256,address)[],uint16,uint112,uint40,uint32,uint16)[]),(address,address[])[],(address,(address,uint24,uint32,uint32)[]),((address,(address,uint32,address,uint256)[])[],bytes32),((string,string,address,string,address,string,((uint104,uint32,uint32,uint16,address,bytes32,uint24,bool,bool,bool,bool,bool)[],uint32,uint8,address),address,(bool,bool,bool,bool)),bool,bool,bool),(address,uint256,bytes)[],uint16,(uint256,uint256,uint256,uint256,address[])[])\":{\"notice\":\"Launch a revnet that supports 721 sales.\"},\"launchPayHookRevnetFor(uint256,((string,string,string,bytes32),uint32,address,(uint40,(uint256,uint256,address)[],uint16,uint112,uint40,uint32,uint16)[]),(address,address[])[],(address,(address,uint24,uint32,uint32)[]),((address,(address,uint32,address,uint256)[])[],bytes32),(address,uint256,bytes)[],uint16)\":{\"notice\":\"Launch a basic revnet that also calls other specified pay hooks.\"},\"launchRevnetFor(uint256,((string,string,string,bytes32),uint32,address,(uint40,(uint256,uint256,address)[],uint16,uint112,uint40,uint32,uint16)[]),(address,address[])[],(address,(address,uint24,uint32,uint32)[]),((address,(address,uint32,address,uint256)[])[],bytes32))\":{\"notice\":\"Launch a basic revnet.\"},\"launchTiered721RevnetFor(uint256,((string,string,string,bytes32),uint32,address,(uint40,(uint256,uint256,address)[],uint16,uint112,uint40,uint32,uint16)[]),(address,address[])[],(address,(address,uint24,uint32,uint32)[]),((address,(address,uint32,address,uint256)[])[],bytes32),((string,string,address,string,address,string,((uint104,uint32,uint32,uint16,address,bytes32,uint24,bool,bool,bool,bool,bool)[],uint32,uint8,address),address,(bool,bool,bool,bool)),bool,bool,bool),(address,uint256,bytes)[],uint16)\":{\"notice\":\"Launch a revnet that supports 721 sales.\"},\"mintFor(uint256,uint256,address)\":{\"notice\":\"Mint tokens from a revnet to a specified beneficiary according to the rules set for the revnet.\"},\"payHookSpecificationsOf(uint256)\":{\"notice\":\"The pay hooks to include during payments to networks.\"},\"replaceSplitOperatorOf(uint256,address)\":{\"notice\":\"A revnet's operator can replace itself.\"},\"supportsInterface(bytes4)\":{\"notice\":\"Indicates if this contract adheres to the specified interface.\"}},\"version\":1}},\"settings\":{\"remappings\":[\"@arbitrum/=node_modules/@arbitrum/\",\"@bananapus/=node_modules/@bananapus/\",\"@chainlink/=node_modules/@chainlink/\",\"@croptop/=node_modules/@croptop/\",\"@eth-optimism/=node_modules/@eth-optimism/\",\"@exhausted-pigeon/=node_modules/@exhausted-pigeon/\",\"@offchainlabs/=node_modules/@offchainlabs/\",\"@openzeppelin/=node_modules/@openzeppelin/\",\"@prb/=node_modules/@prb/\",\"@scroll-tech/=node_modules/@scroll-tech/\",\"@sphinx-labs/contracts/=node_modules/@sphinx-labs/contracts/contracts/foundry/\",\"@uniswap/=node_modules/@uniswap/\",\"base64-sol/=node_modules/base64-sol/\",\"ds-test/=lib/forge-std/lib/ds-test/src/\",\"forge-std/=lib/forge-std/src/\",\"hardhat/=node_modules/hardhat/\",\"solmate/=node_modules/solmate/\",\"sphinx/=lib/sphinx/packages/contracts/contracts/forge-std/src/\"],\"optimizer\":{\"enabled\":true,\"runs\":1000},\"metadata\":{\"bytecodeHash\":\"ipfs\"},\"compilationTarget\":{\"src/REVCroptopDeployer.sol\":\"REVCroptopDeployer\"},\"evmVersion\":\"paris\",\"libraries\":{}},\"sources\":{\"node_modules/@bananapus/721-hook/src/interfaces/IJB721Hook.sol\":{\"keccak256\":\"0x24935445bc4c5b0fe2a10aabe549122588940842a68e79a8c39b1df9458dd7fd\",\"urls\":[\"bzz-raw://1dee273fa76d9abae116de911fdda5e3113db2a58939e62e24fba98c63fd037a\",\"dweb:/ipfs/QmT6Lih7DeRAfrLc8uC7ecaw2EAKwhaP2BZHeY5DxeeVLM\"],\"license\":\"MIT\"},\"node_modules/@bananapus/721-hook/src/interfaces/IJB721TiersHook.sol\":{\"keccak256\":\"0xbd9a8dae00a4b1a02c628bd172fe4ae496e49f7651426cef08774ffdb6125c23\",\"urls\":[\"bzz-raw://9ce4fd77d5af1f570dad6b70758f09f9599768e1ab32f6b473f6181197daa0c8\",\"dweb:/ipfs/QmWj6sCTvZ2CbfSyRuhaXADxYbwwPcR42pZokcgfjpsabg\"],\"license\":\"MIT\"},\"node_modules/@bananapus/721-hook/src/interfaces/IJB721TiersHookDeployer.sol\":{\"keccak256\":\"0xc4c6dfd2573fe1f130bc5193da68a622959a11562010fa261ffd3a8893e08a7b\",\"urls\":[\"bzz-raw://0c34f79121f6c777bca3df6c2e87c0caa05146bec45e9ae29f41b0532d16c88e\",\"dweb:/ipfs/QmZJQVZC8uuuSssXtLnhsvisz7V2PCKs2s1Hbzo8hmZ9ZP\"],\"license\":\"MIT\"},\"node_modules/@bananapus/721-hook/src/interfaces/IJB721TiersHookStore.sol\":{\"keccak256\":\"0x8550e216c12c9cda865c1b1b0eb3f244aeaa8d465b197d4bd0dd8d4df265682e\",\"urls\":[\"bzz-raw://674a312f1eaffd7c6b21f58f8d4a628104e71220daf48a22237fa3bd035ddf21\",\"dweb:/ipfs/QmSRSW6cSwdpoGjVxDqiwJmJyCxfHWhCxZ2iaqeJcN2Ccy\"],\"license\":\"MIT\"},\"node_modules/@bananapus/721-hook/src/interfaces/IJB721TokenUriResolver.sol\":{\"keccak256\":\"0xfa599167098f4459320ec4141a98a17b2dfffbce422baa27d8b4e4530f61ece1\",\"urls\":[\"bzz-raw://8b758b161f4c7b520b2c34b4d91e585e961b8f4ca278eebb91d791f7f2f45140\",\"dweb:/ipfs/QmcD9DF7NJ9QykQpT4KPzm4bs3fkjzukdAUWwdU6Atfw85\"],\"license\":\"MIT\"},\"node_modules/@bananapus/721-hook/src/structs/JB721InitTiersConfig.sol\":{\"keccak256\":\"0xfb78486cec94189d0ecf2050dc9cfc11245b426c73a0711a85bff1359d774307\",\"urls\":[\"bzz-raw://a8fa01f6e64dd204dbde07a60851e9a5a74e439e1411139ae16b7cf67d2a2692\",\"dweb:/ipfs/QmZAnHyfpKr3xr7NWHj5sGaCEEtG8RtmHhkRUJJvNauym5\"],\"license\":\"MIT\"},\"node_modules/@bananapus/721-hook/src/structs/JB721Tier.sol\":{\"keccak256\":\"0x2e267a8af02f125465cdda9308477346ae4a94b024c3b2c2a6af0c00027944dd\",\"urls\":[\"bzz-raw://367ccea2c8fa815d498d771d4367ef1ded718a76e89644102034bfe4a3636b82\",\"dweb:/ipfs/QmYiFFa6ei9wZBSSVUHfY2Cb35zCDVXvbmLcgLj2BTiC1u\"],\"license\":\"MIT\"},\"node_modules/@bananapus/721-hook/src/structs/JB721TierConfig.sol\":{\"keccak256\":\"0x2fa9c5c8cec182b854a656d3b284e9d5306be35ad3dc4da79d65dca12b804af0\",\"urls\":[\"bzz-raw://b443a5f70195a66145ea1dade04454ce9a3ff1209e1aaecf53c8a9909b294d79\",\"dweb:/ipfs/QmUDPFZ4L6XpV3zLQUNVchUvecD4XfddKz2S46BKek5XL1\"],\"license\":\"MIT\"},\"node_modules/@bananapus/721-hook/src/structs/JB721TiersHookFlags.sol\":{\"keccak256\":\"0x283d8429f31bd58875c056515aa42abd09c95362bd929e85cfc44a0d92585766\",\"urls\":[\"bzz-raw://9a580b89fe99d9f8e930c58a4d0d63a5ff7c01c79d210af01373d066c9e72ed6\",\"dweb:/ipfs/QmdY1eSGSoTjv4KSdsG4Tm5CzJN6iqk3qTRga5ZWNbejRz\"],\"license\":\"MIT\"},\"node_modules/@bananapus/721-hook/src/structs/JB721TiersMintReservesConfig.sol\":{\"keccak256\":\"0xab3b319dc4e736586ae595de194d93dcdfeba365bc7a54cf6c37e697f6074ad9\",\"urls\":[\"bzz-raw://a84ae2cf2e8c3e39e831dbb39a67a8eb43c78a6de6bb78b1be2e1f1e80c69efe\",\"dweb:/ipfs/QmboGXEMqsYTxc4a7oft9rggNU7ShWSa9yB4HFMVmzXCHz\"],\"license\":\"MIT\"},\"node_modules/@bananapus/721-hook/src/structs/JBDeploy721TiersHookConfig.sol\":{\"keccak256\":\"0x4f0b8bbc19a405a096a16977fa1eedc0c56640ef777add89c050f989a62a6a35\",\"urls\":[\"bzz-raw://bd009c66aa748a2ce04720a6376683ce01ced3c0bd7f9534e145263aa49d95d3\",\"dweb:/ipfs/QmXyJCS1uQevdkw1Gc4UrRs8fZKtW9wPWFY9pxUWHKLo4e\"],\"license\":\"MIT\"},\"node_modules/@bananapus/buyback-hook/src/interfaces/IJBBuybackHook.sol\":{\"keccak256\":\"0xbe5d7f3bf2e18b569676ba9194e248e6b1ed50022f5247b4f1fa124c91bfd418\",\"urls\":[\"bzz-raw://eb221d1570e8aad409c419b6a2f84351e818c3527f3f44b806cd64c84d7a8c86\",\"dweb:/ipfs/QmUPZstaKjPN7VTywg3Mt6bF75E53mQbmXhf3TxCggJbRR\"],\"license\":\"MIT\"},\"node_modules/@bananapus/buyback-hook/src/interfaces/external/IWETH9.sol\":{\"keccak256\":\"0x50083bcaca6c1a8d12c79116fab4f6d8cd452a510cb3f00c4a8bc3a54678efb7\",\"urls\":[\"bzz-raw://726f187112d0953c14bff8099a8c9ce1ead47eb25e90839f77b100feaaf16127\",\"dweb:/ipfs/QmTEnMENpLjcTQLMwz4kEUiQHfiTkaZT3TL37nQ8JiRYh5\"],\"license\":\"GPL-2.0-or-later\"},\"node_modules/@bananapus/core/src/abstract/JBPermissioned.sol\":{\"keccak256\":\"0x6486c11bff6384bfa938feb7aaacc977f457abff25b17b9aa094077d3fef71f8\",\"urls\":[\"bzz-raw://8b5190202326b6499391d5128cdb2d9ff44e91cd9ba6d8a5fe01e6f21259270d\",\"dweb:/ipfs/QmR2ufPwHtCAZYkJoyWyyag6BfdaWpaLk7VhuDc6BRLqVe\"],\"license\":\"MIT\"},\"node_modules/@bananapus/core/src/enums/JBApprovalStatus.sol\":{\"keccak256\":\"0x61c69b6bac7d24b566d87cda23a77e4ca9cdb87200b106aba8534cb9a0973e33\",\"urls\":[\"bzz-raw://6a9ca7249de76f77a8252eefe6bd1b63d47952f25a2acfa2c8db967cdff4470c\",\"dweb:/ipfs/QmaxSxptRQNj8bNy96EreENmrnRWdKmhyihBcxyWzBX5BN\"],\"license\":\"MIT\"},\"node_modules/@bananapus/core/src/interfaces/IJBController.sol\":{\"keccak256\":\"0xe0b84058192f89e461c4b604388aa11a2f92f0f9969fb70fb3c18706d6f3e16b\",\"urls\":[\"bzz-raw://984fdcff63a17ccab65ff7723a628967e40965fcb4d47909cf8e314e8f044576\",\"dweb:/ipfs/QmaaHZWuaaH3oYxCDrip1rr4u4H1XtR3RcwwKAE73GAqkd\"],\"license\":\"MIT\"},\"node_modules/@bananapus/core/src/interfaces/IJBDirectory.sol\":{\"keccak256\":\"0x9cc380844aef60078ee47a61861e55a29c4a8c947efd556ebd36e6909f7b9d62\",\"urls\":[\"bzz-raw://9f5190ec8b6683d9781ee6e9eedcc91294753242748875d4a06349077e4cbaaf\",\"dweb:/ipfs/QmTQrPuXT9TCA4txwrperMeXSGvGxP8iokUK47f62F388i\"],\"license\":\"MIT\"},\"node_modules/@bananapus/core/src/interfaces/IJBDirectoryAccessControl.sol\":{\"keccak256\":\"0x1e67f56849320a46f834aaa9bd62b170ff8ada7b224b4a81136193740fa0be4d\",\"urls\":[\"bzz-raw://ea8fbcec44abfe49d137bcae129b67e5479d6b17879301f88534c8a7fab00be4\",\"dweb:/ipfs/QmT6wrtYX4GRpffHUzupNwYebJ1dqkkKZLEewWsoyunsqw\"],\"license\":\"MIT\"},\"node_modules/@bananapus/core/src/interfaces/IJBFundAccessLimits.sol\":{\"keccak256\":\"0xf5fd6bdd723b60d490ccbe22cdf1cfe43663d23e6ee48badcd1b71e3282cb16b\",\"urls\":[\"bzz-raw://fe692f0b843ea5fccdfcb68f4ec16e1c0add945bb74b303c9866342be0e31fbf\",\"dweb:/ipfs/QmSRmzpgp3DhNEhNDiLsSu7yEiTeywbzEFbwyGyDazjgKt\"],\"license\":\"MIT\"},\"node_modules/@bananapus/core/src/interfaces/IJBMigratable.sol\":{\"keccak256\":\"0xd69bd5aba01a68d82c303ef3adde47532abcace030a94296c3ea6988b401789c\",\"urls\":[\"bzz-raw://88f11a1c89899327746beba4fc830abf3ac2eb9c152c778e884a6eed6564971f\",\"dweb:/ipfs/QmTpKhSTVewpz7VyKcz6BJwH2LFKMwT7Qi5HNWmjEjwsdK\"],\"license\":\"MIT\"},\"node_modules/@bananapus/core/src/interfaces/IJBPayHook.sol\":{\"keccak256\":\"0x9438866782c652c2942f4d114e35f393cd3c8b0334abce8387eed90bca35e8b2\",\"urls\":[\"bzz-raw://cfd99daf57213f92325aad7d7d16e98476d38e870470e95ba01e3ae3cdecc95d\",\"dweb:/ipfs/QmUKKAVGf7ki8BHksr99tFcRW8APveeB5tNH63ctTbbCW8\"],\"license\":\"MIT\"},\"node_modules/@bananapus/core/src/interfaces/IJBPermissioned.sol\":{\"keccak256\":\"0x5b038d4dee116584e88b230920e56d48e135053e3f7e5642eaea14a775c1dad7\",\"urls\":[\"bzz-raw://19e43102f349fd4a1da1c0943ffb8f2950007fe4bb4bb7e8f74fc142575d091b\",\"dweb:/ipfs/QmXHAt4KzDTdDZgDDefEXH2WKi7NcfkJb9R7nxW5uDqsNp\"],\"license\":\"MIT\"},\"node_modules/@bananapus/core/src/interfaces/IJBPermissions.sol\":{\"keccak256\":\"0x957d77a71cf8bb25df4a767e3c315fbd393df52ea8ea25af14e9fa268ac820bf\",\"urls\":[\"bzz-raw://c7891e986611d3cc0472a65310d160cad5b03c7e64c63b30430401d6418f8d77\",\"dweb:/ipfs/QmNZPfbyYvG8XPSPe9vrPNfDtvDsrLaXA3AzH28KSzwxHM\"],\"license\":\"MIT\"},\"node_modules/@bananapus/core/src/interfaces/IJBPriceFeed.sol\":{\"keccak256\":\"0x4bd84c0f1a5d4729ed709bcddd43f4c50ec4a165ece79780af8dce482ed07d4a\",\"urls\":[\"bzz-raw://62bac4bfb6982fb002f620c77e5c445e62d50241a5aa64a07e51d929f5a42180\",\"dweb:/ipfs/QmWgJUDreVY2BuMX38a1iUUR5kNbMwGnKG3VvurB7oZtuM\"],\"license\":\"MIT\"},\"node_modules/@bananapus/core/src/interfaces/IJBPrices.sol\":{\"keccak256\":\"0x99525f31440b955742dce84ba57de9fc1221139b5367c1f834723bef9e13e6e1\",\"urls\":[\"bzz-raw://6fa03f0cd4ad87dd7cbae7bf7f54463450874291773c8f70f2c31ef2cae62bb0\",\"dweb:/ipfs/QmSPajPV5ismteJuB6Spzm9VmhTj2iS3eVrfpJC1Zuzg8n\"],\"license\":\"MIT\"},\"node_modules/@bananapus/core/src/interfaces/IJBProjectUriRegistry.sol\":{\"keccak256\":\"0x2799475228987e4f8334ac33d3935f759c9b8133db7383b4f622dde7a5dc0502\",\"urls\":[\"bzz-raw://d751731740f45df74eea48c9667e847ee2cddb2980ab4939c86bd17e6c6ed89b\",\"dweb:/ipfs/QmXW8SLTuhdUpfn7pRpdsYdcyuim8RTyagU37ULcj5UZhT\"],\"license\":\"MIT\"},\"node_modules/@bananapus/core/src/interfaces/IJBProjects.sol\":{\"keccak256\":\"0x735c2fb8f1fa827f054ee77f7a0ae4b312656217acb75b624d2c8fd9dc40151b\",\"urls\":[\"bzz-raw://ee7fc92299a8633a80693ae63ab494dcd125f1789487a54a39dc0e5696e5996f\",\"dweb:/ipfs/QmX7YJD4pS2XhgQb7p3JbBAXynT7YGPXcZe92BiWWRrsCL\"],\"license\":\"MIT\"},\"node_modules/@bananapus/core/src/interfaces/IJBRedeemHook.sol\":{\"keccak256\":\"0x8ab46fcd7d0e739661eb76056ad93ff99106f38420ef0b4eb97fa9f4bb71a68a\",\"urls\":[\"bzz-raw://0ef96fcb7ad26281d444d8e0c677b25114fdd63b1c172d477e030dce8ba53b62\",\"dweb:/ipfs/Qmcx1jRQuwU4pZFuLxsSsx4oMbRaDfktHrPnXextgbWc5m\"],\"license\":\"MIT\"},\"node_modules/@bananapus/core/src/interfaces/IJBRulesetApprovalHook.sol\":{\"keccak256\":\"0x592e95d159494421c6b1bcb362d0cee1df0132921697351304e9cd7af4fbd386\",\"urls\":[\"bzz-raw://5bebfd5fa67c1b6ea16fa2e76e9520e9dfe52a579f48dd94d0c2ec45f78ad178\",\"dweb:/ipfs/QmRUawEGtfYoYSHmHELGhvJoWuMsxLPKtqAXgsrb7fJboP\"],\"license\":\"MIT\"},\"node_modules/@bananapus/core/src/interfaces/IJBRulesetDataHook.sol\":{\"keccak256\":\"0x13b4b9f4b847f62442da1c1a59b399f8f201b31a28edb96aa5a8a78ad57c24d0\",\"urls\":[\"bzz-raw://4fcd00b77d0f40cf6d5ee6590b6ef4ee1f606e89ae4c4faed3710fb462108f8e\",\"dweb:/ipfs/QmeoE54DQ3eGw9EDXfN7aTMmEjubAtirahmytDijo6GSeE\"],\"license\":\"MIT\"},\"node_modules/@bananapus/core/src/interfaces/IJBRulesets.sol\":{\"keccak256\":\"0x733fbe50cf2157c936a1d4f0014c14ca90a3da1b1379e2e8a802e39340ed1434\",\"urls\":[\"bzz-raw://f16a428bacc0310dffadd399f3ef2f5f5c2813ebc0e4f12955cac0062a192497\",\"dweb:/ipfs/QmXtG5VAsSLH5Ew6wegTaJn4ymPgiLGy3zN55JrqqxKVjd\"],\"license\":\"MIT\"},\"node_modules/@bananapus/core/src/interfaces/IJBSplitHook.sol\":{\"keccak256\":\"0xeb8dfac7a4b81897a1c3b5d0d853a406bcff33720fb187d5ca5bb3dcc0ba3a12\",\"urls\":[\"bzz-raw://36aaeef6107cfe5b0127e063ea215aac7200f8af02e28a48e61111abd3254688\",\"dweb:/ipfs/QmQ8yQANXnhQCAWBGKsKCDsJ3A8hnTKNg5tyo79GfWXTcV\"],\"license\":\"MIT\"},\"node_modules/@bananapus/core/src/interfaces/IJBSplits.sol\":{\"keccak256\":\"0x92deeb9e22ce2aaafc608b85e9250b8ea2deed1ebf64b7442038b157b2bfe0e6\",\"urls\":[\"bzz-raw://08bf29f0c13c2e8be46065277f67e44ecaea960cb5474f13775eece0672566c2\",\"dweb:/ipfs/QmeGu9C6tuBjfmeizmpzptxgGmch6Mbtm34NFwZxzMvqc4\"],\"license\":\"MIT\"},\"node_modules/@bananapus/core/src/interfaces/IJBTerminal.sol\":{\"keccak256\":\"0x19dc9bf8cbdc8f13ee5da9dc3a87047eacb94a3fc19740a286c1f0bad2cc39ca\",\"urls\":[\"bzz-raw://0b05ae6fda9a85672508232fd992b8a5f5ffd8096622eeb12c8a7b3317eb3867\",\"dweb:/ipfs/QmNh9Quj37BXYGdTdcCD1Q58PchRsE5TLbEZep56qS3MpV\"],\"license\":\"MIT\"},\"node_modules/@bananapus/core/src/interfaces/IJBToken.sol\":{\"keccak256\":\"0x71b1f9c3a0edd41910f77396e0be2c65596571176d53eb87e887c3c0da56c0fb\",\"urls\":[\"bzz-raw://6e956f0582f4525e83d845ee9b4a89959abc4f821414f6accbbee5b38960482d\",\"dweb:/ipfs/QmbSvjgmCgnfVmcCTGu8XwrV1Rufsf3M8hB8unFq6fTMdH\"],\"license\":\"MIT\"},\"node_modules/@bananapus/core/src/interfaces/IJBTokenUriResolver.sol\":{\"keccak256\":\"0xfa5cb00dcd6085d1ef912d071fe73c63f9478a2cd0f9d8bddaf659b6af2d0967\",\"urls\":[\"bzz-raw://282e4e7c342d65f77cde0e9a08fcaf20ef5cf379c7a48b639842c0ffd0b2afb8\",\"dweb:/ipfs/QmbnN3PEQeZaXdPLT75V1J79kMg7KqSMru37RHrL3z8Yf2\"],\"license\":\"MIT\"},\"node_modules/@bananapus/core/src/interfaces/IJBTokens.sol\":{\"keccak256\":\"0x6fd67af915dd541d9547c8297aa9ae269690e4ee23531db43f021bcacec6076f\",\"urls\":[\"bzz-raw://2e5e11954e9ab2319fffccb6563f3db400b8f7760d4ffe2165048a02c9c37fa6\",\"dweb:/ipfs/QmbDXtV83dK8EfiTjsTRf55R2XqPZzDKcjtYbW8sxQ5CFm\"],\"license\":\"MIT\"},\"node_modules/@bananapus/core/src/libraries/JBConstants.sol\":{\"keccak256\":\"0x9d3a9a953f859d8ec79a599577f8972de6da7199cc1bfa7fdad017d4d722bcb4\",\"urls\":[\"bzz-raw://f151fcb53a8d2684eff8b9e56ac790bcbcadd8199a4fd4d17c5b224b22936722\",\"dweb:/ipfs/QmdAz1ZtCE8nTiC4AxQNLfJhnY3ndGum2Lbef7seKdvTdR\"],\"license\":\"MIT\"},\"node_modules/@bananapus/core/src/libraries/JBMetadataResolver.sol\":{\"keccak256\":\"0x0117f5431b5e78de556ba2fbebb6b53db1b7e080dd4630ea4ee240a0b185fe4c\",\"urls\":[\"bzz-raw://1fbc04aaed314f3491be5f79cb6b6a277e3b7af64ef986736588b73450fe6078\",\"dweb:/ipfs/QmarLpFW8PBaXTLerZh9L5HpVCSCJLdDjoVMJJ9AWsX5mN\"],\"license\":\"MIT\"},\"node_modules/@bananapus/core/src/libraries/JBSplitGroupIds.sol\":{\"keccak256\":\"0x932ca2645d443f04f86c8ffb27b5c58c4fbdc7b5a145fba1d43f1db9bd488a0f\",\"urls\":[\"bzz-raw://fa412d2c5726a868a258cd518648726b0784ab7ac7566376b82ba09680f66227\",\"dweb:/ipfs/QmZvfjBt7PQzTWNzrhysyHBegUbbu4aY2xDzBGnwqMaqnF\"],\"license\":\"MIT\"},\"node_modules/@bananapus/core/src/structs/JBAccountingContext.sol\":{\"keccak256\":\"0x2907ff54d1e903cc7e0390dd88c3975884702dc2673642aacbe22b66560b56de\",\"urls\":[\"bzz-raw://a66a5381ce877b32f0e0058ceeaf843e9b6b2bc8af666c0c9f4a9d01091da004\",\"dweb:/ipfs/QmQynCetUr37dBkS1YwDS8evxuXGiqanW6THmeUxXtim8w\"],\"license\":\"MIT\"},\"node_modules/@bananapus/core/src/structs/JBAfterPayRecordedContext.sol\":{\"keccak256\":\"0xd26c3a774ff38be79064085970454fe2603a23a638c76270d5b1b3829206c3e8\",\"urls\":[\"bzz-raw://3b55dbe3bf1ef625b7ca04efab3de35406e6041d5b3d82c7265469c500e2b702\",\"dweb:/ipfs/QmUdBDo4Lt3mcsFcsXT2mqq3czFwZjQJFPLM89YA2VtD7k\"],\"license\":\"MIT\"},\"node_modules/@bananapus/core/src/structs/JBAfterRedeemRecordedContext.sol\":{\"keccak256\":\"0x521f5d23a36f0da72362cd84890cc867bd83baa8dc836ba6c5066d51dba2f163\",\"urls\":[\"bzz-raw://6cc461313286dde62d045d6288e87bae5032e035796326f5b1ed6218e58aa9da\",\"dweb:/ipfs/QmQS2AkQwf2ANQieDuaUnpJEdXChoLv4CCbZqHkfywYPSR\"],\"license\":\"MIT\"},\"node_modules/@bananapus/core/src/structs/JBBeforePayRecordedContext.sol\":{\"keccak256\":\"0x5b04e814da83c7e83ff892ab07eaad6abce6f7b85a75f8da9380e9fc3470bc81\",\"urls\":[\"bzz-raw://11c889aab993fce3e3cc2dedc15fc30dd367e7fef9b7b1bfd6a6a9f248781731\",\"dweb:/ipfs/QmVVtydCD1azeWhGLxA1hthxfLyKzMHZ1eVzCz3a3R5dLy\"],\"license\":\"MIT\"},\"node_modules/@bananapus/core/src/structs/JBBeforeRedeemRecordedContext.sol\":{\"keccak256\":\"0x73eadaf6827e82f6ccbe3a1e2b2b7fc6c59cef471f73335041b30ddcc000989d\",\"urls\":[\"bzz-raw://2f3ee84662eed565dbdaed406ef836fffaf55cccd417575578152e5085d0b1f2\",\"dweb:/ipfs/QmaJGFS7hxJsiUdKvbv5BKhSwceDEzKBnt7t5YeNWvYgMK\"],\"license\":\"MIT\"},\"node_modules/@bananapus/core/src/structs/JBCurrencyAmount.sol\":{\"keccak256\":\"0x12fe4b43f4824994624d4fe0abbd88c3fe7867fd637edb65c7f456dab27e2d6e\",\"urls\":[\"bzz-raw://8003a3e8f932cf891e86b827e67c9d31b0d34c2712e18c2bc333cfe5284ba6d5\",\"dweb:/ipfs/QmSoA6RsDcSnNzk6CB7KZtALkHmeSDAi2g6fg3TDmLDkWX\"],\"license\":\"MIT\"},\"node_modules/@bananapus/core/src/structs/JBFundAccessLimitGroup.sol\":{\"keccak256\":\"0x9fdaa8d017b72da25f583700a444a86849df053f7fb8eac874ec5139bcf651e5\",\"urls\":[\"bzz-raw://c8e44c49ee444a98424a0dbeb6897a76a0bf00d88a613f62ac2012afdac754ee\",\"dweb:/ipfs/QmdYkAiRi5bXM1YYNkc7BiqimHSFodMGn1cjHR5hcpm4xH\"],\"license\":\"MIT\"},\"node_modules/@bananapus/core/src/structs/JBPayHookSpecification.sol\":{\"keccak256\":\"0x955f0bfca97300b9e5927dc181753830ee362f83fa9ca32a90daade32aa0cfd5\",\"urls\":[\"bzz-raw://f517af1597c7c40f8d3da53f7a6684a3e162950a16559d6bf6ea3b727bb11546\",\"dweb:/ipfs/QmRWo2ZTYXmVZTzNJDYhsJNsEaHphjpUfx9eNz2cciyz86\"],\"license\":\"MIT\"},\"node_modules/@bananapus/core/src/structs/JBPermissionsData.sol\":{\"keccak256\":\"0x8f0f69a6ebf5f3704e3dfcb3712fb9d3f94ae7c1ab89bf3e37bad42a3e7a0487\",\"urls\":[\"bzz-raw://57b0c5e52843e2217082889ed47b4da3943e0da4590d5768dcebfe3edad4a6b8\",\"dweb:/ipfs/QmRz48vuWLw81kUP836rh1qzqWiJFGbksgRUA9xGEDNKTY\"],\"license\":\"MIT\"},\"node_modules/@bananapus/core/src/structs/JBRedeemHookSpecification.sol\":{\"keccak256\":\"0x673d16ee1a91bf8de3b37e57284e60451b70a9c2d748c9cdc7a151f5624af18f\",\"urls\":[\"bzz-raw://ceeb5e81effa0f076c5630c756dfcf1548d09f822b255a0a6ee01e54de8c8ae2\",\"dweb:/ipfs/QmSMoMNPRhPMnuJNvWa6S59XRfycGz9o2ApNp63bUW6TdX\"],\"license\":\"MIT\"},\"node_modules/@bananapus/core/src/structs/JBRuleset.sol\":{\"keccak256\":\"0x15b2bf3174d84846a91ccbf5a344dfb125b55ed9cf50102db8d6868844225189\",\"urls\":[\"bzz-raw://647416b025dbd941094db89cbc69f755c155bd6c87be3f322394ccc4a8e0442d\",\"dweb:/ipfs/QmTCL9xcHnxQ4t5AmCPoZvXDUPW5xhzhyyXYbkMdyg44au\"],\"license\":\"MIT\"},\"node_modules/@bananapus/core/src/structs/JBRulesetConfig.sol\":{\"keccak256\":\"0x0be470df286939259a6b98bc71459e661e81d56a58226d6a574ae1484f8f8e6c\",\"urls\":[\"bzz-raw://64592c279ba7518ac180c835a539897163f299a439065f2cc8aa54086a2c9ad7\",\"dweb:/ipfs/QmaEepVvFJdXcDBMMr7SQYjZSDJXPtCca95kQY5rZbra6U\"],\"license\":\"MIT\"},\"node_modules/@bananapus/core/src/structs/JBRulesetMetadata.sol\":{\"keccak256\":\"0xef3c5876a38739c8a40a3160129326dbb32a7496c994d352fcca4b465c877dff\",\"urls\":[\"bzz-raw://eb3808d1758ef829acb29f8317e9659199ff33eb0090b7e00730b8aeab9f8e1b\",\"dweb:/ipfs/QmbHPRCsDfCnU9KCnFN5i6Mhy3dJ3aatHksinWqMMWWEmS\"],\"license\":\"MIT\"},\"node_modules/@bananapus/core/src/structs/JBRulesetWithMetadata.sol\":{\"keccak256\":\"0x1bcfadf20488f6df65227f8d4d0fbf9b7539456a2389567f7fe3900d23289bc3\",\"urls\":[\"bzz-raw://0a15c399a71e5373f8c0484c6d6b83521eda31e063a2c53e4c5cec4e74550343\",\"dweb:/ipfs/QmQwi8zkjoTVXbK89NeETYimWCacTrNsesJdpLSvGdqMPX\"],\"license\":\"MIT\"},\"node_modules/@bananapus/core/src/structs/JBSplit.sol\":{\"keccak256\":\"0x1d40fa4f1c911a53b9139f3d44d27cb58fa5c5d2cd793c7a21ccf52b9e61f848\",\"urls\":[\"bzz-raw://9897d2c29fc65fe16e4eac0b7b8b6fd8ef0b0cc501986f7f0c3a78c4ec1dbb60\",\"dweb:/ipfs/QmXcHoVjCYWWCz4hm2KZ6JxtB4YNq7jmXa2evLkga59Xwq\"],\"license\":\"MIT\"},\"node_modules/@bananapus/core/src/structs/JBSplitGroup.sol\":{\"keccak256\":\"0xda7da6e88aac2906c7ea4027660088daf217edc632bebca4d72795aae8921564\",\"urls\":[\"bzz-raw://ae1939d17e94cb51484f31ce64cf0df990445a338fb9b38d39a7baf28275ae4a\",\"dweb:/ipfs/QmUhPnJiWnYhFdtLvZnrPopAdbYXxETpGjvxjPDignpTGY\"],\"license\":\"MIT\"},\"node_modules/@bananapus/core/src/structs/JBSplitHookContext.sol\":{\"keccak256\":\"0xfe34e6860b00ca93d71f44e72882281b2c57c31303151af05795c74cfdd2e51d\",\"urls\":[\"bzz-raw://08acab094888e9c929b6f6f972d89ddbb31e5867675e7e7c602d25fcb2c0f402\",\"dweb:/ipfs/QmPNdXM185cTyXQSodVr4JMviHx88jrWu7dipgkp9xTNgJ\"],\"license\":\"MIT\"},\"node_modules/@bananapus/core/src/structs/JBTerminalConfig.sol\":{\"keccak256\":\"0xd162f3821a1ccafbc8d7d108369e39ac3048445a8c7fe7a3fa97a6343f9eefaa\",\"urls\":[\"bzz-raw://82172ea0407b6d9edc45e408c7e8edb8e129adf49a94349fe3a5862da9bc044e\",\"dweb:/ipfs/QmWheF5Tjq2hcabnSzfYqdFHUA1YxYEdAPZaRw9N166V1d\"],\"license\":\"MIT\"},\"node_modules/@bananapus/core/src/structs/JBTokenAmount.sol\":{\"keccak256\":\"0x5cf0626b73a596c1e2da17c89ae039a7c0374310b060d48568d3b6c11fbe6180\",\"urls\":[\"bzz-raw://63348b50be95e2995409394a17caffc563a646f0972650a1230bf864fbd3219b\",\"dweb:/ipfs/QmZXZpS3SbFD5nWaCauf6AqbEhLURv5qsKHpThBvQgDU6u\"],\"license\":\"MIT\"},\"node_modules/@bananapus/ownable/src/JBOwnable.sol\":{\"keccak256\":\"0x5b0aec2bc7164bdb972bfb9f71660c887308cf3a72738c7469d03bf264cf0d54\",\"urls\":[\"bzz-raw://bf4f60cebc0a707004371425aa3c8751b6a84dfb4fc9bf788160ae9ac1e906f6\",\"dweb:/ipfs/QmegUfWLhKuByQTkfMkmwkEs2Tk5ZEuR56DqQw5kxFzP3d\"],\"license\":\"MIT\"},\"node_modules/@bananapus/ownable/src/JBOwnableOverrides.sol\":{\"keccak256\":\"0x70a7c55f2a0f4324b63afe61e9d0de6e54396073e431844a19936d2aaaf6d7dd\",\"urls\":[\"bzz-raw://94c55139a8e974e2a88c6f0fc7594be3044742cfc499c989051eaf6664ec7dab\",\"dweb:/ipfs/QmQPnLAootqEGzpHRdhsYGBU3cqicRYLAe6bTti2UCBHyS\"],\"license\":\"MIT\"},\"node_modules/@bananapus/ownable/src/interfaces/IJBOwnable.sol\":{\"keccak256\":\"0x2c513558439d763df03e8a68c1aef698618182fd44c285405c35597d52c65ad1\",\"urls\":[\"bzz-raw://11cc25c41fccc20cca29f93dd120e67760188fd2040ef0330a093d37fbfa2f8f\",\"dweb:/ipfs/QmWpxcv41eYmsNYT3ph1nts5pC7sp3EzwJxKDGebMqEbsH\"],\"license\":\"MIT\"},\"node_modules/@bananapus/ownable/src/struct/JBOwner.sol\":{\"keccak256\":\"0x5624ba356f01f722984c1b857a106f413b12e57bae1f762a81c16ee511e3325a\",\"urls\":[\"bzz-raw://3120b5649ac8b55158df138dcac03f6850fc988cc5a24a7cb06e6581265ca284\",\"dweb:/ipfs/QmQBSLxRT9j1MEERUt8dWbSsAjianbHpM2CFwciLK7MwaP\"],\"license\":\"MIT\"},\"node_modules/@bananapus/permission-ids/src/JBPermissionIds.sol\":{\"keccak256\":\"0x31f5dfb044f5bae2f8415579b3afbbdcfb424015a1e69a2f8451a07134f3d36b\",\"urls\":[\"bzz-raw://85f313e53f6e442b33190741224f2b782b8d12579b4141ab2fac2e3bb8d47388\",\"dweb:/ipfs/QmVSZWkeuTkvAujzSbADfvfvv78Xs8mop3JbStyzDhVqtn\"],\"license\":\"MIT\"},\"node_modules/@bananapus/suckers/src/interfaces/IBPSucker.sol\":{\"keccak256\":\"0x2a3136ea5608c3e76b9f3114a470980f2a96427535aaccbd65dcc37d3a3dd0f8\",\"urls\":[\"bzz-raw://8cc997a396b183525892a0640ce03aee9fa3f15971266c826a308f6c74ff63f2\",\"dweb:/ipfs/QmZcoMkGbujqLm5B9v5urpFwUVg2uoG7ybPHX8RRxsygpe\"],\"license\":\"MIT\"},\"node_modules/@bananapus/suckers/src/interfaces/IBPSuckerDeployer.sol\":{\"keccak256\":\"0x7592282265ffd3000787eb20d1ccdd698cb6f2eb641dfddcd2b61978eb5105a2\",\"urls\":[\"bzz-raw://1f4ac54122cbd52758573f23856e243635be43aa974f234e1a5560eef9990794\",\"dweb:/ipfs/QmXHXr5CGh2hT9UMsLdCZNT4XmRMTf9SuBNRwTtyN9Z2Re\"],\"license\":\"MIT\"},\"node_modules/@bananapus/suckers/src/interfaces/IBPSuckerRegistry.sol\":{\"keccak256\":\"0xaed1d396dd1748585f4f16cd72519efadcb089ecd9b8a1786d3d353cffb6218a\",\"urls\":[\"bzz-raw://94de3a0692ac733ab780449431dea24e402b41c7c768fc7868bf0f259a65d80d\",\"dweb:/ipfs/QmR3STDP2YbPi7LTsAC3XSv2gT7GMD83krYeReFVDE4eKU\"],\"license\":\"UNLICENSED\"},\"node_modules/@bananapus/suckers/src/structs/BPSuckerDeployerConfig.sol\":{\"keccak256\":\"0x867e10bc73a07ab19cf5511d047dc885e3cfae58fc5f3441f6a5d3174afe6b78\",\"urls\":[\"bzz-raw://b8c3e72e57958bb2e2b8072ac6055804598c080a748fbc2f40a783575435809e\",\"dweb:/ipfs/QmbY7W6i5qAAj42EsQX8yt8M8nXArXByEGosnHWyxs4BE7\"],\"license\":\"MIT\"},\"node_modules/@bananapus/suckers/src/structs/BPTokenMapping.sol\":{\"keccak256\":\"0x84865bda925cdc9a608cbbfc487619acba391f98ae12bbbfdbc5779d617a17d9\",\"urls\":[\"bzz-raw://3bbc1fdd38feaf64fd4914bddb62cda7e5b8ee0f046a0eac8cfcb15f9493bcc5\",\"dweb:/ipfs/QmXgAx7sr1M8r71YrSeQJGAB1uhvdxpQyS633UgJvLCQfb\"],\"license\":\"MIT\"},\"node_modules/@croptop/core/src/CTPublisher.sol\":{\"keccak256\":\"0xc64ec137bfb5a8c8d9aa144007aabe5d6259942795d388204b5be1c6be169741\",\"urls\":[\"bzz-raw://c0ea8c46186797ff8be94776aa44ca3ed36b0ba06f937e6da8b770bc69c6f878\",\"dweb:/ipfs/QmbBt3rgkzGNTFky15AsSifn9kL5QzubG6G9VJMB5sgAHd\"],\"license\":\"MIT\"},\"node_modules/@croptop/core/src/structs/CTAllowedPost.sol\":{\"keccak256\":\"0x072d333f2d038122ec130dfa11e5b62d18bb3242410d5566d1fcd58037bfb896\",\"urls\":[\"bzz-raw://66e85b05060db5795d274cca1306037c524e6bfefd1138d1b5fec0ba662f9615\",\"dweb:/ipfs/QmQ845kW7MPHtQW7EzHTTdLerd6vN2Wn2dPJm5D6DZ77LM\"],\"license\":\"MIT\"},\"node_modules/@croptop/core/src/structs/CTPost.sol\":{\"keccak256\":\"0x7e3dd85bc455816d7cf1b260fe53c7b1ff7512fce75ce3b6d9fdc094bcda33c8\",\"urls\":[\"bzz-raw://6cc25819e7ef95cb45ea71c54af01db95f75d0ccf1a23390a6153f4ae7df1c88\",\"dweb:/ipfs/QmTJCj1Rn7uEXRcaZBNqxrBXWXM9f24dphb9TaoLe3Ts41\"],\"license\":\"MIT\"},\"node_modules/@openzeppelin/contracts/metatx/ERC2771Context.sol\":{\"keccak256\":\"0x98256cf37b71a69b2f5a8a6fe975ea03590dff703102bd141a830f94e8adebf6\",\"urls\":[\"bzz-raw://6251fe1f6a1e45e6d619d150c123afc88b8646b38ee26a136efa9a6988a31d3f\",\"dweb:/ipfs/QmeXDT85wSZdP31wkz3ah3KhponCiksJLP5o2LR5e1JxcK\"],\"license\":\"MIT\"},\"node_modules/@openzeppelin/contracts/token/ERC20/IERC20.sol\":{\"keccak256\":\"0xc6a8ff0ea489379b61faa647490411b80102578440ab9d84e9a957cc12164e70\",\"urls\":[\"bzz-raw://0ea104e577e63faea3b69c415637e99e755dcbf64c5833d7140c35a714d6d90c\",\"dweb:/ipfs/Qmau6x4Ns9XdyynRCNNp3RhLqijJjFm7z5fyZazfYFGYdq\"],\"license\":\"MIT\"},\"node_modules/@openzeppelin/contracts/token/ERC721/IERC721.sol\":{\"keccak256\":\"0x5ef46daa3b58ef2702279d514780316efaa952915ee1aa3396f041ee2982b0b4\",\"urls\":[\"bzz-raw://2f8f2a76e23b02fc69e8cd24c3cb47da6c7af3a2d6c3a382f8ac25c6e094ade7\",\"dweb:/ipfs/QmPV4ZS4tPVv4mTCf9ejyZ1ai57EEibDRj7mN2ARDCLV5n\"],\"license\":\"MIT\"},\"node_modules/@openzeppelin/contracts/token/ERC721/IERC721Receiver.sol\":{\"keccak256\":\"0x7f7a26306c79a65fb8b3b6c757cd74660c532cd8a02e165488e30027dd34ca49\",\"urls\":[\"bzz-raw://d01e0b2b837ee2f628545e54d8715b49c7ef2befd08356c2e7f6c50dde8a1c22\",\"dweb:/ipfs/QmWBAn6y2D1xgftci97Z3qR9tQnkvwQpYwFwkTvDMvqU4i\"],\"license\":\"MIT\"},\"node_modules/@openzeppelin/contracts/utils/Context.sol\":{\"keccak256\":\"0x493033a8d1b176a037b2cc6a04dad01a5c157722049bbecf632ca876224dd4b2\",\"urls\":[\"bzz-raw://6a708e8a5bdb1011c2c381c9a5cfd8a9a956d7d0a9dc1bd8bcdaf52f76ef2f12\",\"dweb:/ipfs/Qmax9WHBnVsZP46ZxEMNRQpLQnrdE4dK8LehML1Py8FowF\"],\"license\":\"MIT\"},\"node_modules/@openzeppelin/contracts/utils/introspection/ERC165.sol\":{\"keccak256\":\"0x9e8778b14317ba9e256c30a76fd6c32b960af621987f56069e1e819c77c6a133\",\"urls\":[\"bzz-raw://1777404f1dcd0fac188e55a288724ec3c67b45288e49cc64723e95e702b49ab8\",\"dweb:/ipfs/QmZFdC626GButBApwDUvvTnUzdinevC3B24d7yyh57XkiA\"],\"license\":\"MIT\"},\"node_modules/@openzeppelin/contracts/utils/introspection/IERC165.sol\":{\"keccak256\":\"0x4296879f55019b23e135000eb36896057e7101fb7fb859c5ef690cf14643757b\",\"urls\":[\"bzz-raw://87b3541437c8c443ccd36795e56a338ed12855eec17f8da624511b8d1a7e14df\",\"dweb:/ipfs/QmeJQCtZrQjtJLr6u7ZHWeH3pBnjtLWzvRrKViAi7UZqxL\"],\"license\":\"MIT\"},\"node_modules/@uniswap/v3-core/contracts/interfaces/IUniswapV3Pool.sol\":{\"keccak256\":\"0x4e64844c56061cd90e0a80de73534a9166704c43eed579eb83f90bc2780ce968\",\"urls\":[\"bzz-raw://cba4fab5cebdddf644b901994a7f0f52b98885d4c56012f4dc51d52c2bf9de0e\",\"dweb:/ipfs/QmVyyrRmqXrAiapewWunRVgiPVFJHpH2hKiE1py1svMSNV\"],\"license\":\"GPL-2.0-or-later\"},\"node_modules/@uniswap/v3-core/contracts/interfaces/callback/IUniswapV3SwapCallback.sol\":{\"keccak256\":\"0x3f485fb1a44e8fbeadefb5da07d66edab3cfe809f0ac4074b1e54e3eb3c4cf69\",\"urls\":[\"bzz-raw://095ce0626b41318c772b3ebf19d548282607f6a8f3d6c41c13edfbd5370c8652\",\"dweb:/ipfs/QmVDZfJJ89UUCE1hMyzqpkZAtQ8jUsBgZNE5AMRG7RzRFS\"],\"license\":\"GPL-2.0-or-later\"},\"node_modules/@uniswap/v3-core/contracts/interfaces/pool/IUniswapV3PoolActions.sol\":{\"keccak256\":\"0x9453dd0e7442188667d01d9b65de3f1e14e9511ff3e303179a15f6fc267f7634\",\"urls\":[\"bzz-raw://982f4328f956c3e60e67501e759eb292ac487f76460c774c50e9ae4fcc92aae5\",\"dweb:/ipfs/QmRnzEDsaqtd9PJEVcgQi7p5aV5pMSvRUoGZJAdwFUJxgZ\"],\"license\":\"GPL-2.0-or-later\"},\"node_modules/@uniswap/v3-core/contracts/interfaces/pool/IUniswapV3PoolDerivedState.sol\":{\"keccak256\":\"0xe603ac5b17ecdee73ba2b27efdf386c257a19c14206e87eee77e2017b742d9e5\",\"urls\":[\"bzz-raw://8febc9bdb399a4d94bb89f5377732652e2400e4a8dee808201ade6848f9004e7\",\"dweb:/ipfs/QmaKDqYYFU4d2W2iN77aDHptfbFmYZRrMYXHeGpJmM8C1c\"],\"license\":\"GPL-2.0-or-later\"},\"node_modules/@uniswap/v3-core/contracts/interfaces/pool/IUniswapV3PoolErrors.sol\":{\"keccak256\":\"0xf80abf13fb1fafc127ba4e792f240dd8ea7c8c893978cdfd8439c27fae9a037b\",\"urls\":[\"bzz-raw://b04fc72a656bbf3631e9c2e67b9870a2d9d235185e833fe050e9606e6816a9aa\",\"dweb:/ipfs/QmUcz4bkEkJ9pwzFu1C3n97hBQ3st9U6qTAqCdyFwddKco\"],\"license\":\"GPL-2.0-or-later\"},\"node_modules/@uniswap/v3-core/contracts/interfaces/pool/IUniswapV3PoolEvents.sol\":{\"keccak256\":\"0x8071514d0fe5d17d6fbd31c191cdfb703031c24e0ece3621d88ab10e871375cd\",\"urls\":[\"bzz-raw://d0b571930cc7488b1d546a7e9cea7c52d8b3c4e207da657ed0e0db7343b8cd03\",\"dweb:/ipfs/QmaGK6vVwB95QSTR1XMYvrh7ivYAYZxi3fD7v6VMA4jZ39\"],\"license\":\"GPL-2.0-or-later\"},\"node_modules/@uniswap/v3-core/contracts/interfaces/pool/IUniswapV3PoolImmutables.sol\":{\"keccak256\":\"0xf6e5d2cd1139c4c276bdbc8e1d2b256e456c866a91f1b868da265c6d2685c3f7\",\"urls\":[\"bzz-raw://b99c8c9ae8e27ee6559e5866bea82cbc9ffc8247f8d15b7422a4deb287d4d047\",\"dweb:/ipfs/QmfL8gaqt3ffAnm6nVj5ksuNpLygXuL3xq5VBqrkwC2JJ3\"],\"license\":\"GPL-2.0-or-later\"},\"node_modules/@uniswap/v3-core/contracts/interfaces/pool/IUniswapV3PoolOwnerActions.sol\":{\"keccak256\":\"0x759b78a2918af9e99e246dc3af084f654e48ef32bb4e4cb8a966aa3dcaece235\",\"urls\":[\"bzz-raw://64144fb96e1c7fdba87305acadb98a198d26a3d46c097cb3a666e567f6f29735\",\"dweb:/ipfs/QmUnWVwN9FKB9uV5Pr8YfLpWZnYM2DENnRMaadZ492JS9u\"],\"license\":\"GPL-2.0-or-later\"},\"node_modules/@uniswap/v3-core/contracts/interfaces/pool/IUniswapV3PoolState.sol\":{\"keccak256\":\"0x44fa2ce1182f6c2f6bead3d1737804bf7e112252ae86e0f2e92f9b8249603f43\",\"urls\":[\"bzz-raw://54154e8665b98d65f5dc91b256551852cb47882180b501b260657122d207c0ea\",\"dweb:/ipfs/QmcfemK1A2PXYrWB5SBFGERpMCderbFRb8BtTzQDj1sUBp\"],\"license\":\"GPL-2.0-or-later\"},\"src/REVBasicDeployer.sol\":{\"keccak256\":\"0x3d74de2004eb9a46b2f8fc39d271271eef41aec934252dd83b16631e58f683c4\",\"urls\":[\"bzz-raw://e51d47d75f9d90bf7283912f175a3a1a52cf4f26c0365e7b6a1624a951abdac0\",\"dweb:/ipfs/QmR9tKs9pSzZd7oV29LVFyxUdjUXbCwb3FEDMTSM2ZmcBe\"],\"license\":\"MIT\"},\"src/REVCroptopDeployer.sol\":{\"keccak256\":\"0x1dba21369ad87a23fcb0f34f411f14de3d7bbf678dddde07748460334e2af106\",\"urls\":[\"bzz-raw://43e8f0acf7c8136f336edd59e5588f9ff6f3c37617dd5f19d6d9fe08848b5acc\",\"dweb:/ipfs/QmZUykqeY8tEB1Qkh9qQZtUhNxMorHfhg29rJNpmq7f7tc\"],\"license\":\"MIT\"},\"src/REVPayHookDeployer.sol\":{\"keccak256\":\"0xf9ce2223a28d47e919ceeefd064036765938727cbc068fa757a5e7098abad2c2\",\"urls\":[\"bzz-raw://a107b94598b20e6a3f577af0c9a3b1134dfdf0fe7966cdc6e35ff37004efde06\",\"dweb:/ipfs/QmcQfukUrLUrAK7oqp3FvX47VdWRnaU7crDCpgwf8zQATT\"],\"license\":\"MIT\"},\"src/REVTiered721HookDeployer.sol\":{\"keccak256\":\"0x2d8133ffc87353ca8e5058d91ac00efc0598d31895b794b518c266df43fc0808\",\"urls\":[\"bzz-raw://77d4e7babe0aa8250309f8fccd9e18c59dc834f50c4b93b3ed1d7861cd333573\",\"dweb:/ipfs/QmNMCrAdDJwGsaQZE4pHnC2S1yaLSAbi67MjDP7Mw1fmLZ\"],\"license\":\"MIT\"},\"src/interfaces/IREVBasicDeployer.sol\":{\"keccak256\":\"0xb81b2f31f43bc98043bc5922de6715b58cf495cc3e36ac54ce30daede63367cc\",\"urls\":[\"bzz-raw://c5e2530bb747477ec066c3064181fe97e7952f6dd1c09b68990e702a56cd9eb2\",\"dweb:/ipfs/QmPyAe6hzecNPPf3hwariqB7EbSEX52fLwDpCitp8XraRs\"],\"license\":null},\"src/interfaces/IREVCroptopDeployer.sol\":{\"keccak256\":\"0x3ec080b4ee2d6c73ea7c6d246cf57234b62d7a5b6c54e2c6641b568e582f4ffb\",\"urls\":[\"bzz-raw://9d35d607346c201f3c3b4a52f486de28fc16d6bfe990f3255ceb62703980cc48\",\"dweb:/ipfs/QmPgMxF4BinjS8FsuSHTixxtrVkrsgHHXT4S5fafknxudw\"],\"license\":null},\"src/interfaces/IREVPayHookDeployer.sol\":{\"keccak256\":\"0xc96a7dd8ec2c88286906c2615f11e03c9f8fba777685067dcf98525349950000\",\"urls\":[\"bzz-raw://45d97d705c27b718ff0dac593ceeccdf77060652ac31bd84d6394bc7412afcde\",\"dweb:/ipfs/QmbMAMk8bkZBQxj5Dimx2wsAtawg7oyXrtBMcEk37ZNxiG\"],\"license\":null},\"src/interfaces/IREVTiered721HookDeployer.sol\":{\"keccak256\":\"0x48f7c60ddd73914172413e72a129659d91a0d1d245cea265e793b2f30b236d6d\",\"urls\":[\"bzz-raw://fc83f099b34f4c3217544e65f19fa0cf916e49b7230a099725dba48a3942d040\",\"dweb:/ipfs/QmWvnyVbxanschhro5PpkqrJuP2zSaW7PTKBi2fQuAgqDx\"],\"license\":null},\"src/structs/REVBuybackHookConfig.sol\":{\"keccak256\":\"0xdae5ecff2ff2a04c0aab17093f023b2161994dc0e6e2adc5006d36d157eb09aa\",\"urls\":[\"bzz-raw://5e0eed08e652290f59c0d18565df21be3fc7b33ca3fa41c393461472479e4a7f\",\"dweb:/ipfs/QmfZcbmdvYDQwEE4eesGpcxdojAm9BhJ81fdkxjX9LU9Sa\"],\"license\":\"MIT\"},\"src/structs/REVBuybackPoolConfig.sol\":{\"keccak256\":\"0x83f2a3875a8b1955856b72bfddd90c0cc2fbe26697f1dd4e13b33c0319049a14\",\"urls\":[\"bzz-raw://e1e37d0eb626221b6a8774a155a3799dc5cf0b497d26263ef323ed768d61a0dc\",\"dweb:/ipfs/QmcSPDAaPemjh3a1XycV4qDMJwctnuwiKe3wXrRUjotKAB\"],\"license\":\"MIT\"},\"src/structs/REVConfig.sol\":{\"keccak256\":\"0x877258466138485e7766cf46171fc7c8fb78736281eeb90bfb7a11c4cd702f4e\",\"urls\":[\"bzz-raw://4544bbe5da29126dd1000a74caae7388c5022a77d70556af9938361a7037be32\",\"dweb:/ipfs/QmNxZVdwgV63pTriMemT3UouK3s3ZC9sVVudA93xAvh1c3\"],\"license\":\"MIT\"},\"src/structs/REVCroptopAllowedPost.sol\":{\"keccak256\":\"0xbeba2acfc8a139c2c9d7c3feb5ba14b369e030aeaa21b3d1ef35fc08ea5ecb7b\",\"urls\":[\"bzz-raw://34e756eb728e230de3b411b92272a10807c3a25adab48eba41b4da6c233a7ecc\",\"dweb:/ipfs/QmSDm1FYFXo8MVTutjyPMrCrNzsJproX8guN2htT3Jzsxq\"],\"license\":\"MIT\"},\"src/structs/REVDeploy721TiersHookConfig.sol\":{\"keccak256\":\"0x6dec52939e342a5e7c687850b3e7222857f49fd7819c0056bafe8fcabfe8f216\",\"urls\":[\"bzz-raw://afb89096d51603b25e68c099eb92741821fcbf7e876fc71955d6a2c2ca27c32b\",\"dweb:/ipfs/QmSy8GS1NJL1FCtPBS4nvVp4KsLJvJRmvTtuLbmgLSR2vt\"],\"license\":\"MIT\"},\"src/structs/REVDescription.sol\":{\"keccak256\":\"0x40bebc53d50dbfb261882f51c7667d7263193e8fc48897b9384c2ca259046c1b\",\"urls\":[\"bzz-raw://24f98bc7ef12f53afa326a266c69683e24501405f72566b7ca7e8dad242e1fe1\",\"dweb:/ipfs/QmNkLsCwhx5pTuMmJLwUNJdPrGjEi3H9JnTX2s9GsoUTAa\"],\"license\":\"MIT\"},\"src/structs/REVMintConfig.sol\":{\"keccak256\":\"0xdf4edcbc85faf4cf98db8f49d09a2840dfa6fe876a3ad0b85b27d4f9b497008d\",\"urls\":[\"bzz-raw://c28b8f8b4178d6bfc5bccd300d48d923052cd304ef536e343e00415d5c7ddfe1\",\"dweb:/ipfs/Qmcp8YMy7HN3mpYw4RESmy1BnN6yHrApZigxZeXSFW6eGD\"],\"license\":\"MIT\"},\"src/structs/REVStageConfig.sol\":{\"keccak256\":\"0x5618a55f3e3f2bc5fd280c330c2200029de624bb710774fd8ee2759dbc2c841a\",\"urls\":[\"bzz-raw://446373029a5c429438ae1a8035bb383b028fd29c44fadfa49befc929cd5b65be\",\"dweb:/ipfs/Qme5SnPVGm7ysmFTkc9c6p7iFo1BVYYkMoK2CTA6RkF6wS\"],\"license\":\"MIT\"},\"src/structs/REVSuckerDeploymentConfig.sol\":{\"keccak256\":\"0xed607665da0efa1a1662a7e094095f336bef2d6694f79e5d8158cacf73c34dac\",\"urls\":[\"bzz-raw://c8c68b67a28a7dfc060596cfb98b7fc05ad0c9b61482f60a04810bc68cc0b8e3\",\"dweb:/ipfs/QmeLH5z8J6DDjRQXfJi4BoMmQqY4zTjERYfSzu8Uypkawp\"],\"license\":\"MIT\"}},\"version\":1}",
			"args": [
				"0x9c7993bff32dfd4e96F5C24D7AB3f9c93c303704",
				"0x01aD7869D85dC136F473DB7F4F07b8F61414f644",
				"0xB2b5841DBeF766d4b521221732F9B618fCf34A87",
				"0xF97086E4CeA8D11FCD64cb2E5dDE0Ab7588f5F01",
				"0x24F256088C151a071Bf51DeE9d37F9E1Ea553548"
			],
			"bytecode": "0x6101006040523480156200001257600080fd5b50604051620060f3380380620060f383398101604081905262000035916200010e565b6001600160a01b0392831660805293821660a05291811660c052600380546001808201835560117fc2575a0e9e593c00f959f8c92f12db2869c3395a3b0502d05e2516446f71f85b9283015582548082018455601990830155825480820190935560069290910182905592821660e05280546001600160a01b031916939091169290921790915560078054918201815560005260157fa66cc928b5edb82af9bd49922954155ab7b0942694bea4ce44661d9a8736c688909101556200018e565b6001600160a01b03811681146200010b57600080fd5b50565b600080600080600060a086880312156200012757600080fd5b85516200013481620000f5565b60208701519095506200014781620000f5565b60408701519094506200015a81620000f5565b60608701519093506200016d81620000f5565b60808701519092506200018081620000f5565b809150509295509295909350565b60805160a05160c05160e051615e8362000270600039600081816103dd01526110df01526000818161040401528181610a520152818161127f0152818161159f0152818161216d01526122930152600081816104770152818161050601528181610b2f01528181610d2301528181610f2c015281816113ae0152818161168d015281816118140152818161199201528181611b0d01528181611ce501528181611db201528181611e9301528181611f5b01528181612028015281816121a80152612f750152600081816102450152818161031c015261314c0152615e836000f3fe608060405234801561001057600080fd5b506004361061018d5760003560e01c80639ab68726116100e3578063b5d255331161008c578063dbfbe5da11610066578063dbfbe5da1461044c578063eb5ad9d91461045f578063ee0fc1211461047257600080fd5b8063b5d25533146103ff578063bb19940214610426578063bd43e7ba1461043957600080fd5b80639fafd73c116100bd5780639fafd73c14610385578063aaf320d7146103b5578063abf8c5c8146103d857600080fd5b80639ab68726146103555780639c62f179146103685780639d82ba251461037b57600080fd5b80635a31dc13116101455780637249a7731161011f5780637249a773146102d95780637da0a8771461031a57806382a09b301461034057600080fd5b80635a31dc13146102755780635c0a7cee146102a6578063677ce088146102c657600080fd5b806343681e151161017657806343681e15146101e65780634c4ffc7114610214578063572b6c051461023557600080fd5b806301ffc9a714610192578063150b7a02146101ba575b600080fd5b6101a56101a0366004613341565b610499565b60405190151581526020015b60405180910390f35b6101cd6101c836600461339a565b610502565b6040516001600160e01b031990911681526020016101b1565b6102066101f4366004613439565b60016020526000908152604090205481565b6040519081526020016101b1565b610227610222366004613452565b6105ce565b6040516101b192919061355f565b6101a5610243366004613580565b7f00000000000000000000000000000000000000000000000000000000000000006001600160a01b0390811691161490565b61020661028336600461359d565b600260209081526000938452604080852082529284528284209052825290205481565b6102b96102b4366004613439565b6108d2565b6040516101b191906135d6565b6101a56102d43660046135e9565b6109f6565b6103026102e7366004613439565b6000602081905290815260409020546001600160a01b031681565b6040516001600160a01b0390911681526020016101b1565b7f0000000000000000000000000000000000000000000000000000000000000000610302565b61035361034e36600461359d565b610b2b565b005b610206610363366004613f44565b610df3565b6102066103763660046140d0565b610e0f565b61020662278d0081565b610398610393366004614582565b610f1f565b604080519283526001600160a01b039091166020830152016101b1565b6103c86103c3366004614693565b61126f565b6040516101b194939291906146cf565b6103027f000000000000000000000000000000000000000000000000000000000000000081565b6103027f000000000000000000000000000000000000000000000000000000000000000081565b61035361043436600461476f565b6113ac565b6103986104473660046148c0565b611668565b600654610302906001600160a01b031681565b61035361046d3660046135e9565b611805565b6103027f000000000000000000000000000000000000000000000000000000000000000081565b60006001600160e01b031982167f81c03c2e0000000000000000000000000000000000000000000000000000000014806104fc57507f01ffc9a7000000000000000000000000000000000000000000000000000000006001600160e01b03198316145b92915050565b60007f00000000000000000000000000000000000000000000000000000000000000006001600160a01b031663293c49996040518163ffffffff1660e01b8152600401602060405180830381865afa158015610562573d6000803e3d6000fd5b505050506040513d601f19601f8201168201806040525081019061058691906149f6565b6001600160a01b0316336001600160a01b0316146105a357600080fd5b507f150b7a020000000000000000000000000000000000000000000000000000000095945050505050565b60c081013560009081526020819052604081205460609081906001600160a01b0316801561068a576040517f4c4ffc710000000000000000000000000000000000000000000000000000000081526001600160a01b03821690634c4ffc719061063b908890600401614abe565b600060405180830381865afa158015610658573d6000803e3d6000fd5b505050506040513d6000823e601f3d908101601f191682016040526106809190810190614b8f565b9094509150610693565b84610120013593505b815160c086013560009081526005602090815260408083208054825181850281018501909352808352941515949192909190849084015b828210156107ae576000848152602090819020604080516060810182526003860290920180546001600160a01b031683526001810154938301939093526002830180549293929184019161071d90614cd7565b80601f016020809104026020016040519081016040528092919081815260200182805461074990614cd7565b80156107965780601f1061076b57610100808354040283529160200191610796565b820191906000526020600020905b81548152906001019060200180831161077957829003601f168201915b505050505081525050815260200190600101906106ca565b505050509050600081519050826107c65760006107c9565b60015b6107d69060ff1682614d27565b67ffffffffffffffff8111156107ee576107ee613619565b60405190808252806020026020018201604052801561083b57816020015b6040805160608082018352600080835260208301529181019190915281526020019060019003908161080c5790505b50955060005b818110156108885782818151811061085b5761085b614d3a565b602002602001015187828151811061087557610875614d3a565b6020908102919091010152600101610841565b5082156108c857846000815181106108a2576108a2614d3a565b60200260200101518682815181106108bc576108bc614d3a565b60200260200101819052505b5050505050915091565b606060056000838152602001908152602001600020805480602002602001604051908101604052809291908181526020016000905b828210156109eb576000848152602090819020604080516060810182526003860290920180546001600160a01b031683526001810154938301939093526002830180549293929184019161095a90614cd7565b80601f016020809104026020016040519081016040528092919081815260200182805461098690614cd7565b80156109d35780601f106109a8576101008083540402835291602001916109d3565b820191906000526020600020905b8154815290600101906020018083116109b657829003601f168201915b50505050508152505081526020019060010190610907565b505050509050919050565b6000828152602081905260408120546001600160a01b0390811690831603610a20575060016104fc565b6040517f3d12cb87000000000000000000000000000000000000000000000000000000008152600481018490526000907f00000000000000000000000000000000000000000000000000000000000000006001600160a01b031690633d12cb8790602401600060405180830381865afa158015610aa1573d6000803e3d6000fd5b505050506040513d6000823e601f3d908101601f19168201604052610ac99190810190614d50565b805190915060005b81811015610b1f57828181518110610aeb57610aeb614d3a565b60200260200101516001600160a01b0316856001600160a01b031603610b1757600193505050506104fc565b600101610ad1565b50600095945050505050565b60007f00000000000000000000000000000000000000000000000000000000000000006001600160a01b031663d4a1b4b16040518163ffffffff1660e01b8152600401602060405180830381865afa158015610b8b573d6000803e3d6000fd5b505050506040513d601f19601f82011682018060405250810190610baf91906149f6565b6040517f25a61d5c00000000000000000000000000000000000000000000000000000000815260048101869052602481018590526001600160a01b0391909116906325a61d5c9060440161012060405180830381865afa158015610c17573d6000803e3d6000fd5b505050506040513d601f19601f82011682018060405250810190610c3b9190614df5565b90504281606001511115610c7b576040517f13dec85c00000000000000000000000000000000000000000000000000000000815260040160405180910390fd5b600084815260026020908152604080832084830151845282528083206001600160a01b038616845290915281205490819003610cb8575050505050565b600085815260026020908152604080832087845282528083206001600160a01b038781168086529190935281842084905590516363fdc96f60e11b81526004810189905260248101859052604481019190915260a0606482015260a4810183905260848101929092527f0000000000000000000000000000000000000000000000000000000000000000169063c7fb92de9060c4016020604051808303816000875af1158015610d6c573d6000803e3d6000fd5b505050506040513d601f19601f82011682018060405250810190610d909190614e75565b50826001600160a01b03168260200151867f598baf7bf150ca2f42be9e9f8f55e81d45f5715c3ff22bf46d697fabec7f31d68433604051610de49291909182526001600160a01b0316602082015260400190565b60405180910390a45050505050565b6000610e058686868630600088611cc4565b9695505050505050565b6000610e2488888888308761ffff168a611cc4565b835190985060005b81811015610ed05760008a81526005602052604090208551869083908110610e5657610e56614d3a565b6020908102919091018101518254600180820185556000948552938390208251600390920201805473ffffffffffffffffffffffffffffffffffffffff19166001600160a01b03909216919091178155918101519282019290925560408201516002820190610ec59082614edb565b505050600101610e2c565b50887fdfaf2737f25eace49d372b472ec03f1df0f9814dfc69d2b95c5e92a041f42e2985610efc6123c1565b604051610f0a929190614f9b565b60405180910390a25096979650505050505050565b6000808980820361101b577f00000000000000000000000000000000000000000000000000000000000000006001600160a01b031663293c49996040518163ffffffff1660e01b8152600401602060405180830381865afa158015610f88573d6000803e3d6000fd5b505050506040513d601f19601f82011682018060405250810190610fac91906149f6565b6001600160a01b03166306661abd6040518163ffffffff1660e01b8152600401602060405180830381865afa158015610fe9573d6000803e3d6000fd5b505050506040513d601f19601f8201168201806040525081019061100d9190614e75565b611018906001614d27565b9a505b8451600061102a826001614d27565b67ffffffffffffffff81111561104257611042613619565b60405190808252806020026020018201604052801561108f57816020015b604080516060808201835260008083526020830152918101919091528152602001906001900390816110605790505b50905060005b828110156110dc578781815181106110af576110af614d3a565b60200260200101518282815181106110c9576110c9614d3a565b6020908102919091010152600101611095565b507f00000000000000000000000000000000000000000000000000000000000000006001600160a01b0316632230819f8e8a600001516040518363ffffffff1660e01b815260040161112f9291906150e6565b6020604051808303816000875af115801561114e573d6000803e3d6000fd5b505050506040513d601f19601f8201168201806040525081019061117291906149f6565b93508760200151156111a15760008d815260046020908152604082208054600181018255908352912060159101555b8760400151156111ce5760008d815260046020908152604082208054600181018255908352912060169101555b8760600151156111fb5760008d815260046020908152604082208054600181018255908352912060179101555b6040518060600160405280856001600160a01b03168152602001600081526020016040518060200160405280600081525081525081838151811061124157611241614d3a565b602002602001018190525061125b838d8d8d8d868c610e0f565b508c94505050509850989650505050505050565b6000808060606001600160a01b037f0000000000000000000000000000000000000000000000000000000000000000166383db9d01604087018035906112b89060208a01613580565b6040516001600160e01b031960e085901b16815260048101929092526001600160a01b03166024820152604401602060405180830381865afa158015611302573d6000803e3d6000fd5b505050506040513d601f19601f82011682018060405250810190611326919061521e565b156113435761271085608001358660a001359350935093506113a5565b60408086013560009081526001602052205442101561138e576040517f04c3b3cd00000000000000000000000000000000000000000000000000000000815260040160405180910390fd5b84610160013585608001358660a001359350935093505b9193509193565b7f00000000000000000000000000000000000000000000000000000000000000006001600160a01b0316631f47ce696040518163ffffffff1660e01b8152600401602060405180830381865afa15801561140a573d6000803e3d6000fd5b505050506040513d601f19601f8201168201806040525081019061142e91906149f6565b6001600160a01b031663f434c9146040518163ffffffff1660e01b8152600401602060405180830381865afa15801561146b573d6000803e3d6000fd5b505050506040513d601f19601f8201168201806040525081019061148f91906149f6565b6001600160a01b031663632af95f6114a56123c1565b30866114b0886123d0565b6000806040518763ffffffff1660e01b81526004016114d496959493929190615277565b602060405180830381865afa1580156114f1573d6000803e3d6000fd5b505050506040513d601f19601f82011682018060405250810190611515919061521e565b611532576040516331fb21f360e01b815260040160405180910390fd5b600061153c6123c1565b838360200151604051602001611554939291906152c3565b60408051601f1981840301815290829052805160209091012083517f2f3f50e00000000000000000000000000000000000000000000000000000000083529092506001600160a01b037f00000000000000000000000000000000000000000000000000000000000000001691632f3f50e0916115d691889186916004016153cd565b6000604051808303816000875af11580156115f5573d6000803e3d6000fd5b505050506040513d6000823e601f3d908101601f1916820160405261161d9190810190614d50565b5080847f755ecfca2f6e66af8868551556bf7931740a7062db8e0882f4c322fdb0bb3f60858561164b6123c1565b60405161165a93929190615415565b60405180910390a350505050565b60008061167b8b8b8b8b8b8b8b8b610f1f565b909b50905061168b8b8285612588565b7f00000000000000000000000000000000000000000000000000000000000000006001600160a01b031663f434c9146040518163ffffffff1660e01b8152600401602060405180830381865afa1580156116e9573d6000803e3d6000fd5b505050506040513d601f19601f8201168201806040525081019061170d91906149f6565b6001600160a01b03166305d2912e306040518060600160405280600660009054906101000a90046001600160a01b03166001600160a01b031681526020018f8152602001600780548060200260200160405190810160405280929190818152602001828054801561179d57602002820191906000526020600020905b815481526020019060010190808311611789575b50505050508152506040518363ffffffff1660e01b81526004016117c2929190615454565b600060405180830381600087803b1580156117dc57600080fd5b505af11580156117f0573d6000803e3d6000fd5b505050508a9150995099975050505050505050565b6000611810836123d0565b90507f00000000000000000000000000000000000000000000000000000000000000006001600160a01b0316631f47ce696040518163ffffffff1660e01b8152600401602060405180830381865afa158015611870573d6000803e3d6000fd5b505050506040513d601f19601f8201168201806040525081019061189491906149f6565b6001600160a01b031663f434c9146040518163ffffffff1660e01b8152600401602060405180830381865afa1580156118d1573d6000803e3d6000fd5b505050506040513d601f19601f820116820180604052508101906118f591906149f6565b6001600160a01b031663632af95f61190b6123c1565b3086856000806040518763ffffffff1660e01b815260040161193296959493929190615277565b602060405180830381865afa15801561194f573d6000803e3d6000fd5b505050506040513d601f19601f82011682018060405250810190611973919061521e565b611990576040516331fb21f360e01b815260040160405180910390fd5b7f00000000000000000000000000000000000000000000000000000000000000006001600160a01b0316631f47ce696040518163ffffffff1660e01b8152600401602060405180830381865afa1580156119ee573d6000803e3d6000fd5b505050506040513d601f19601f82011682018060405250810190611a1291906149f6565b6001600160a01b031663f434c9146040518163ffffffff1660e01b8152600401602060405180830381865afa158015611a4f573d6000803e3d6000fd5b505050506040513d601f19601f82011682018060405250810190611a7391906149f6565b6001600160a01b03166305d2912e306040518060600160405280611a956123c1565b6001600160a01b0316815260208082018990526040805160008152918201815291820152516001600160e01b031960e085901b168152611ad9929190600401615454565b600060405180830381600087803b158015611af357600080fd5b505af1158015611b07573d6000803e3d6000fd5b505050507f00000000000000000000000000000000000000000000000000000000000000006001600160a01b0316631f47ce696040518163ffffffff1660e01b8152600401602060405180830381865afa158015611b69573d6000803e3d6000fd5b505050506040513d601f19601f82011682018060405250810190611b8d91906149f6565b6001600160a01b031663f434c9146040518163ffffffff1660e01b8152600401602060405180830381865afa158015611bca573d6000803e3d6000fd5b505050506040513d601f19601f82011682018060405250810190611bee91906149f6565b6001600160a01b03166305d2912e306040518060600160405280866001600160a01b03168152602001878152602001858152506040518363ffffffff1660e01b8152600401611c3e929190615454565b600060405180830381600087803b158015611c5857600080fd5b505af1158015611c6c573d6000803e3d6000fd5b50505050816001600160a01b0316837f0329d6a81434b130c72eb65eea0e32e429dc1277b4aad86ec86454aefb618451611ca46123c1565b6040516001600160a01b03909116815260200160405180910390a3505050565b600080600080611cd58a888861276f565b9250925092508a600003611db0577f00000000000000000000000000000000000000000000000000000000000000006001600160a01b0316639e14fb80308c6000015160400151868d8f6000015160200151604051602001611d379190615497565b6040516020818303038152906040526040518663ffffffff1660e01b8152600401611d669594939291906158f7565b6020604051808303816000875af1158015611d85573d6000803e3d6000fd5b505050506040513d601f19601f82011682018060405250810190611da99190614e75565b9a50611e6e565b7f00000000000000000000000000000000000000000000000000000000000000006001600160a01b03166321df42e88c858c8e6000015160200151604051602001611dfb9190615497565b6040516020818303038152906040526040518563ffffffff1660e01b8152600401611e29949392919061595f565b6020604051808303816000875af1158015611e48573d6000803e3d6000fd5b505050506040513d601f19601f82011682018060405250810190611e6c9190614e75565b505b8015611e9157611e8162278d0042614d27565b60008c8152600160205260409020555b7f00000000000000000000000000000000000000000000000000000000000000006001600160a01b031663581781918c8c60000151600001518d60000151602001518e60000151606001516040518563ffffffff1660e01b8152600401611efb949392919061599e565b6020604051808303816000875af1158015611f1a573d6000803e3d6000fd5b505050506040513d601f19601f82011682018060405250810190611f3e91906149f6565b5087516001600160a01b031615611f5957611f598b89612b98565b7f00000000000000000000000000000000000000000000000000000000000000006001600160a01b031663dd5f214a8c6000611f988e60400151612cf8565b6040518463ffffffff1660e01b8152600401611fb6939291906159db565b600060405180830381600087803b158015611fd057600080fd5b505af1158015611fe4573d6000803e3d6000fd5b50505050611ff28b8b612e36565b600060405180606001604052808c604001516001600160a01b031681526020018d81526020016120218e6123d0565b81525090507f00000000000000000000000000000000000000000000000000000000000000006001600160a01b031663f434c9146040518163ffffffff1660e01b8152600401602060405180830381865afa158015612084573d6000803e3d6000fd5b505050506040513d601f19601f820116820180604052508101906120a891906149f6565b6001600160a01b03166305d2912e30836040518363ffffffff1660e01b81526004016120d5929190615454565b600060405180830381600087803b1580156120ef57600080fd5b505af1158015612103573d6000803e3d6000fd5b5060009250600191506121139050565b60405190808252806020026020018201604052801561213c578160200160208202803683370190505b509050601c8160008151811061215457612154614d3a565b60200260200101818152505060405180606001604052807f00000000000000000000000000000000000000000000000000000000000000006001600160a01b031681526020018e81526020018281525091507f00000000000000000000000000000000000000000000000000000000000000006001600160a01b031663f434c9146040518163ffffffff1660e01b8152600401602060405180830381865afa158015612204573d6000803e3d6000fd5b505050506040513d601f19601f8201168201806040525081019061222891906149f6565b6001600160a01b03166305d2912e30846040518363ffffffff1660e01b8152600401612255929190615454565b600060405180830381600087803b15801561226f57600080fd5b505af1158015612283573d6000803e3d6000fd5b50505050602087015115612363577f00000000000000000000000000000000000000000000000000000000000000006001600160a01b0316632f3f50e08e6122c96123c1565b878b602001516040516020016122e1939291906152c3565b60408051601f198184030181529082905280516020909101208b516001600160e01b031960e086901b16835261231a93926004016153cd565b6000604051808303816000875af1158015612339573d6000803e3d6000fd5b505050506040513d6000823e601f3d908101601f191682016040526123619190810190614d50565b505b8c7fabdf3ec8139195645b1e44778a910396624b7d2913c04b613f4800ad25d710468d8d8d8b8a8a8a6123946123c1565b6040516123a8989796959493929190615b92565b60405180910390a2509a9b9a5050505050505050505050565b60006123cb61313c565b905090565b60606000600380548060200260200160405190810160405280929190818152602001828054801561242057602002820191906000526020600020905b81548152602001906001019080831161240c575b5050835160008881526004602090815260408083208054825181850281018501909352808352989950939792965094509192509083018282801561248357602002820191906000526020600020905b81548152602001906001019080831161246f575b5050835193945061249a9250839150859050614d27565b67ffffffffffffffff8111156124b2576124b2613619565b6040519080825280602002602001820160405280156124db578160200160208202803683370190505b50945060005b83811015612528578481815181106124fb576124fb614d3a565b602002602001015186828151811061251557612515614d3a565b60209081029190910101526001016124e1565b5060005b8181101561257e5782818151811061254657612546614d3a565b602002602001015186828661255b9190614d27565b8151811061256b5761256b614d3a565b602090810291909101015260010161252c565b5050505050919050565b805160008167ffffffffffffffff8111156125a5576125a5613619565b60405190808252806020026020018201604052801561261857816020015b6126056040518060c0016040528060006001600160a01b0316815260200160008152602001600081526020016000815260200160008152602001606081525090565b8152602001906001900390816125c35790505b50905061264d6040518060a0016040528060008152602001600081526020016000815260200160008152602001606081525090565b60005b838110156126e35784818151811061266a5761266a614d3a565b602002602001015191506040518060c00160405280876001600160a01b031681526020018360000151815260200183602001518152602001836040015181526020018360600151815260200183608001518152508382815181106126d0576126d0614d3a565b6020908102919091010152600101612650565b50835115612767576006546040517f9b9b7aa90000000000000000000000000000000000000000000000000000000081526001600160a01b0390911690639b9b7aa990612734908590600401615ce5565b600060405180830381600087803b15801561274e57600080fd5b505af1158015612762573d6000803e3d6000fd5b505050505b505050505050565b6060838101515181906000908067ffffffffffffffff81111561279457612794613619565b60405190808252806020026020018201604052801561288e57816020015b61287b6040805161010080820183526000808352602080840182905283850182905260608085018390526080808601849052865161022081018852848152928301849052958201839052810182905293840181905260a084810182905260c0850182905260e0850182905291840181905261012084018190526101408401819052610160840181905261018084018190526101a084018190526101c084018190526101e08401819052610200840152909190820190815260200160608152602001606081525090565b8152602001906001900390816127b25790505b50935061289a876131b1565b6040805160e08101825260008082526060602083018190529282018190529181018290526080810182905260a0810182905260c08101829052919450805b83811015612b8b57896060015181815181106128f6576128f6614d3a565b6020026020010151925081836000015164ffffffffff1611612944576040517f0aec2d6900000000000000000000000000000000000000000000000000000000815260040160405180910390fd5b826000015164ffffffffff1687828151811061296257612962614d3a565b60200260200101516000018181525050826080015164ffffffffff1687828151811061299057612990614d3a565b6020026020010151602001818152505082606001516dffffffffffffffffffffffffffff168782815181106129c7576129c7614d3a565b602002602001015160400181815250508260a0015163ffffffff168782815181106129f4576129f4614d3a565b602002602001015160600181815250506000878281518110612a1857612a18614d3a565b6020026020010151608001906001600160a01b031690816001600160a01b031681525050604051806102200160405280846040015161ffff1681526020018460c0015161ffff16612710612a6c9190615d8f565b815260208c81015163ffffffff16908201526000604082018190526060820181905260016080830181905260a0830182905260c0830182905260e0830182905261010083018290526101208301829052610140830182905261016083018290526101808301526101a08201526001600160a01b038b166101c08201526101e0018990528751889083908110612b0357612b03614d3a565b602002602001015160a00181905250806000148015612b295750825164ffffffffff1615155b8015612b3f575042836000015164ffffffffff16105b15612b4957600194505b85612b5484836131eb565b604051602001612b65929190615da2565b60408051601f19818403018152919052835190965064ffffffffff1691506001016128d8565b5050505093509350939050565b602081810151516040805160808101825260008082529381018490529081018390526060810183905290915b82811015612cb75783602001518181518110612be257612be2614d3a565b6020908102919091018101518551918101516040808301516060840151845192517f7b621d3a000000000000000000000000000000000000000000000000000000008152600481018c905262ffffff909416602485015263ffffffff91821660448501521660648301526001600160a01b039081166084830152919450911690637b621d3a9060a4016020604051808303816000875af1158015612c8a573d6000803e3d6000fd5b505050506040513d601f19601f82011682018060405250810190612cae91906149f6565b50600101612bc4565b50509051600092835260208390526040909220805473ffffffffffffffffffffffffffffffffffffffff19166001600160a01b039093169290921790915550565b604080516001808252818301909252606091816020015b604080518082019091526000815260606020820152815260200190600190039081612d0f57505060408051600180825281830190925291925060009190602082015b6040805160c08101825260008082526020808301829052928201819052606082018190526080820181905260a08201528252600019909201910181612d515790505090506040518060c00160405280600015158152602001633b9aca00815260200160008152602001846001600160a01b031681526020016000815260200160006001600160a01b031681525081600081518110612df157612df1614d3a565b60200260200101819052506040518060400160405280600181526020018281525082600081518110612e2557612e25614d3a565b602002602001018190525050919050565b606080820151516040805160e0810182526000808252602082018590529181018290529283018190526080830181905260a0830181905260c08301529060005b828110156131355783606001518181518110612e9457612e94614d3a565b6020026020010151915060008260200151519050612ed56040518060600160405280600081526020016000815260200160006001600160a01b031681525090565b60005b8281101561312a5784602001518181518110612ef657612ef6614d3a565b602002602001015191504682600001510361312257831580612f23575042856000015164ffffffffff1611155b1561305057602082015160408084015190516363fdc96f60e11b8152600481018b905260248101929092526001600160a01b03908116604483015260a06064830152600060a4830181905260848301527f0000000000000000000000000000000000000000000000000000000000000000169063c7fb92de9060c4016020604051808303816000875af1158015612fbe573d6000803e3d6000fd5b505050506040513d601f19601f82011682018060405250810190612fe29190614e75565b5060408201516001600160a01b0316612ffb8542614d27565b897f598baf7bf150ca2f42be9e9f8f55e81d45f5715c3ff22bf46d697fabec7f31d68560200151336040516130439291909182526001600160a01b0316602082015260400190565b60405180910390a4613122565b60208083015160008a815260029092526040822090916130708742614d27565b8152602001908152602001600020600084604001516001600160a01b03166001600160a01b0316815260200190815260200160002060008282546130b49190614d27565b909155505060408201516001600160a01b03166130d18542614d27565b897f9e83979117d75aa75fe101361cf46235d3d0a6fa7afafb275d2b9f8af02273138560200151336040516131199291909182526001600160a01b0316602082015260400190565b60405180910390a45b600101612ed8565b505050600101612e76565b5050505050565b6000366014336001600160a01b037f0000000000000000000000000000000000000000000000000000000000000000161480156131795750808210155b156131a95760003661318b8385615d8f565b613196928290615dd1565b61319f91615dfb565b60601c9250505090565b339250505090565b602080820151825180518184015160609283015160405193956131d5959401615e2e565b6040516020818303038152906040529050919050565b6060811580156132015750825164ffffffffff16155b61321357825164ffffffffff16613215565b425b6040808501516060860151608087015160a088015160c0890151945161328696959060200195865261ffff94851660208701526dffffffffffffffffffffffffffff93909316604086015264ffffffffff91909116606085015263ffffffff1660808401521660a082015260c00190565b60408051601f1981840301815291905260208401515190915060005b818110156132fc57826132d1866020015183815181106132c4576132c4614d3a565b6020026020010151613304565b6040516020016132e2929190615da2565b60408051601f1981840301815291905292506001016132a2565b505092915050565b60608160000151826040015183602001516040516020016131d5939291909283526001600160a01b03919091166020830152604082015260600190565b60006020828403121561335357600080fd5b81356001600160e01b03198116811461336b57600080fd5b9392505050565b6001600160a01b038116811461338757600080fd5b50565b803561339581613372565b919050565b6000806000806000608086880312156133b257600080fd5b85356133bd81613372565b945060208601356133cd81613372565b935060408601359250606086013567ffffffffffffffff808211156133f157600080fd5b818801915088601f83011261340557600080fd5b81358181111561341457600080fd5b89602082850101111561342657600080fd5b9699959850939650602001949392505050565b60006020828403121561344b57600080fd5b5035919050565b60006020828403121561346457600080fd5b813567ffffffffffffffff81111561347b57600080fd5b8201610180818503121561336b57600080fd5b60005b838110156134a9578181015183820152602001613491565b50506000910152565b600081518084526134ca81602086016020860161348e565b601f01601f19169290920160200192915050565b600082825180855260208086019550808260051b84010181860160005b8481101561355257858303601f19018952815180516001600160a01b03168452848101518585015260409081015160609185018290529061353e818601836134b2565b9a86019a94505050908301906001016134fb565b5090979650505050505050565b82815260406020820152600061357860408301846134de565b949350505050565b60006020828403121561359257600080fd5b813561336b81613372565b6000806000606084860312156135b257600080fd5b833592506020840135915060408401356135cb81613372565b809150509250925092565b60208152600061336b60208301846134de565b600080604083850312156135fc57600080fd5b82359150602083013561360e81613372565b809150509250929050565b634e487b7160e01b600052604160045260246000fd5b6040516060810167ffffffffffffffff8111828210171561365257613652613619565b60405290565b60405160e0810167ffffffffffffffff8111828210171561365257613652613619565b6040516080810167ffffffffffffffff8111828210171561365257613652613619565b6040805190810167ffffffffffffffff8111828210171561365257613652613619565b604051610180810167ffffffffffffffff8111828210171561365257613652613619565b604051610120810167ffffffffffffffff8111828210171561365257613652613619565b60405160a0810167ffffffffffffffff8111828210171561365257613652613619565b604051601f8201601f1916810167ffffffffffffffff8111828210171561375557613755613619565b604052919050565b600067ffffffffffffffff82111561377757613777613619565b50601f01601f191660200190565b600082601f83011261379657600080fd5b81356137a96137a48261375d565b61372c565b8181528460208386010111156137be57600080fd5b816020850160208301376000918101602001919091529392505050565b803563ffffffff8116811461339557600080fd5b600067ffffffffffffffff82111561380957613809613619565b5060051b60200190565b803564ffffffffff8116811461339557600080fd5b600082601f83011261383957600080fd5b813560206138496137a4836137ef565b8281526060928302850182019282820191908785111561386857600080fd5b8387015b858110156135525781818a0312156138845760008081fd5b61388c61362f565b8135815285820135868201526040808301356138a781613372565b90820152845292840192810161386c565b803561ffff8116811461339557600080fd5b80356dffffffffffffffffffffffffffff8116811461339557600080fd5b600082601f8301126138f957600080fd5b813560206139096137a4836137ef565b82815260059290921b8401810191818101908684111561392857600080fd5b8286015b84811015613a0a57803567ffffffffffffffff8082111561394d5760008081fd5b9088019060e0828b03601f19018113156139675760008081fd5b61396f613658565b61397a888501613813565b8152604080850135848111156139905760008081fd5b61399e8e8b83890101613828565b8a84015250606093506139b28486016138b8565b9082015260806139c38582016138ca565b8483015260a093506139d6848601613813565b9082015260c06139e78582016137db565b848301526139f68386016138b8565b90820152865250505091830191830161392c565b509695505050505050565b600060808284031215613a2757600080fd5b613a2f61367b565b9050813567ffffffffffffffff80821115613a4957600080fd5b9083019060808286031215613a5d57600080fd5b613a6561367b565b823582811115613a7457600080fd5b613a8087828601613785565b825250602083013582811115613a9557600080fd5b613aa187828601613785565b602083015250604083013582811115613ab957600080fd5b613ac587828601613785565b604083015250606083810135908201528352613ae3602085016137db565b6020840152613af46040850161338a565b60408401526060840135915080821115613b0d57600080fd5b50613b1a848285016138e8565b60608301525092915050565b600082601f830112613b3757600080fd5b81356020613b476137a4836137ef565b8083825260208201915060208460051b870101935086841115613b6957600080fd5b602086015b84811015613a0a578035613b8181613372565b8352918301918301613b6e565b600082601f830112613b9f57600080fd5b81356020613baf6137a4836137ef565b82815260059290921b84018101918181019086841115613bce57600080fd5b8286015b84811015613a0a57803567ffffffffffffffff80821115613bf35760008081fd5b908801906040828b03601f1901811315613c0d5760008081fd5b613c1561369e565b87840135613c2281613372565b8152908301359082821115613c375760008081fd5b613c458c8984870101613b26565b818901528652505050918301918301613bd2565b803562ffffff8116811461339557600080fd5b60006040808385031215613c7f57600080fd5b613c8761369e565b91508235613c9481613372565b825260208381013567ffffffffffffffff811115613cb157600080fd5b8401601f81018613613cc257600080fd5b8035613cd06137a4826137ef565b81815260079190911b82018301908381019088831115613cef57600080fd5b928401925b82841015613d63576080848a031215613d0d5760008081fd5b613d1561367b565b8435613d2081613372565b8152613d2d858701613c59565b86820152613d3c8786016137db565b878201526060613d4d8187016137db565b9082015282526080939093019290840190613cf4565b808588015250505050505092915050565b600060408284031215613d8657600080fd5b613d8e61369e565b905067ffffffffffffffff8083351115613da757600080fd5b8235830184601f820112613dba57600080fd5b613dc76137a482356137ef565b81358082526020808301929160051b84010187811115613de657600080fd5b602084015b81811015613f2b578581351115613e0157600080fd5b803585016040818b03601f19011215613e1957600080fd5b613e2161369e565b613e2e6020830135613372565b602082013581528760408301351115613e4657600080fd5b6040820135820191508a603f830112613e5e57600080fd5b6020820135613e6f6137a4826137ef565b81815260079190911b83016040019060208101908d831115613e9057600080fd5b6040850194505b82851015613f0c576080858f031215613eaf57600080fd5b613eb761367b565b613ec18635613372565b85358152613ed1602087016137db565b6020820152613ee36040870135613372565b604086013560408201526060860135606082015280835250602082019150608085019450613e97565b8060208501525050508086525050602084019350602081019050613deb565b5050808552505050506020820135602082015292915050565b600080600080600060a08688031215613f5c57600080fd5b85359450602086013567ffffffffffffffff80821115613f7b57600080fd5b613f8789838a01613a15565b95506040880135915080821115613f9d57600080fd5b613fa989838a01613b8e565b94506060880135915080821115613fbf57600080fd5b613fcb89838a01613c6c565b93506080880135915080821115613fe157600080fd5b50613fee88828901613d74565b9150509295509295909350565b600082601f83011261400c57600080fd5b8135602061401c6137a4836137ef565b82815260059290921b8401810191818101908684111561403b57600080fd5b8286015b84811015613a0a57803567ffffffffffffffff808211156140605760008081fd5b908801906060828b03601f190181131561407a5760008081fd5b61408261362f565b8784013561408f81613372565b8152604084810135898301529184013591838311156140ae5760008081fd5b6140bc8d8a85880101613785565b90820152865250505091830191830161403f565b600080600080600080600060e0888a0312156140eb57600080fd5b87359650602088013567ffffffffffffffff8082111561410a57600080fd5b6141168b838c01613a15565b975060408a013591508082111561412c57600080fd5b6141388b838c01613b8e565b965060608a013591508082111561414e57600080fd5b61415a8b838c01613c6c565b955060808a013591508082111561417057600080fd5b61417c8b838c01613d74565b945060a08a013591508082111561419257600080fd5b5061419f8a828b01613ffb565b9250506141ae60c089016138b8565b905092959891949750929550565b80356cffffffffffffffffffffffffff8116811461339557600080fd5b801515811461338757600080fd5b8035613395816141d9565b803560ff8116811461339557600080fd5b6000608080838503121561421657600080fd5b61421e61367b565b9150823567ffffffffffffffff81111561423757600080fd5b8301601f8101851361424857600080fd5b803560206142586137a4836137ef565b828152610180928302840182019282820191908985111561427857600080fd5b948301945b8486101561436b5780868b0312156142955760008081fd5b61429d6136c1565b6142a6876141bc565b81526142b38588016137db565b8582015260406142c48189016137db565b9082015260606142d58882016138b8565b908201526142e487890161338a565b8189015260a0878101359082015260c06142ff818901613c59565b9082015260e06143108882016141e7565b908201526101006143228882016141e7565b908201526101206143348882016141e7565b908201526101406143468882016141e7565b908201526101606143588882016141e7565b908201528352948501949183019161427d565b5086525061437a8682016137db565b818601525050505061438e604083016141f2565b604082015261439f6060830161338a565b606082015292915050565b6000608082840312156143bc57600080fd5b6143c461367b565b905081356143d1816141d9565b815260208201356143e1816141d9565b602082015260408201356143f4816141d9565b6040820152606082013561439f816141d9565b60006080828403121561441957600080fd5b61442161367b565b9050813567ffffffffffffffff8082111561443b57600080fd5b90830190610180828603121561445057600080fd5b6144586136e5565b82358281111561446757600080fd5b61447387828601613785565b82525060208301358281111561448857600080fd5b61449487828601613785565b6020830152506144a66040840161338a565b60408201526060830135828111156144bd57600080fd5b6144c987828601613785565b6060830152506144db6080840161338a565b608082015260a0830135828111156144f257600080fd5b6144fe87828601613785565b60a08301525060c08301358281111561451657600080fd5b61452287828601614203565b60c08301525061453460e0840161338a565b60e0820152610100915061454a868385016143aa565b82820152808452505050614560602083016141e7565b6020820152614571604083016141e7565b604082015261439f606083016141e7565b600080600080600080600080610100898b03121561459f57600080fd5b88359750602089013567ffffffffffffffff808211156145be57600080fd5b6145ca8c838d01613a15565b985060408b01359150808211156145e057600080fd5b6145ec8c838d01613b8e565b975060608b013591508082111561460257600080fd5b61460e8c838d01613c6c565b965060808b013591508082111561462457600080fd5b6146308c838d01613d74565b955060a08b013591508082111561464657600080fd5b6146528c838d01614407565b945060c08b013591508082111561466857600080fd5b506146758b828c01613ffb565b92505061468460e08a016138b8565b90509295985092959890939650565b6000602082840312156146a557600080fd5b813567ffffffffffffffff8111156146bc57600080fd5b82016101a0818503121561336b57600080fd5b60006080820186835260208681850152604086604086015260606080606087015283875180865260a08801915060a08160051b890101955084890160005b8281101561475d57898803609f19018452815180516001600160a01b0316895287810151888a015286015186890186905261474a868a01826134b2565b985050928601929086019060010161470d565b50959c9b505050505050505050505050565b60008060006060848603121561478457600080fd5b83359250602084013567ffffffffffffffff808211156147a357600080fd5b6147af87838801613785565b935060408601359150808211156147c557600080fd5b506147d286828701613d74565b9150509250925092565b600082601f8301126147ed57600080fd5b813560206147fd6137a4836137ef565b82815260059290921b8401810191818101908684111561481c57600080fd5b8286015b84811015613a0a57803567ffffffffffffffff808211156148415760008081fd5b9088019060a0828b03601f190181131561485b5760008081fd5b614863613709565b8784013581526040808501358983015260608086013582840152608091508186013581840152508285013592508383111561489e5760008081fd5b6148ac8d8a85880101613b26565b908201528652505050918301918301614820565b60008060008060008060008060006101208a8c0312156148df57600080fd5b8935985060208a013567ffffffffffffffff808211156148fe57600080fd5b61490a8d838e01613a15565b995060408c013591508082111561492057600080fd5b61492c8d838e01613b8e565b985060608c013591508082111561494257600080fd5b61494e8d838e01613c6c565b975060808c013591508082111561496457600080fd5b6149708d838e01613d74565b965060a08c013591508082111561498657600080fd5b6149928d838e01614407565b955060c08c01359150808211156149a857600080fd5b6149b48d838e01613ffb565b94506149c260e08d016138b8565b93506101008c01359150808211156149d957600080fd5b506149e68c828d016147dc565b9150509295985092959850929598565b600060208284031215614a0857600080fd5b815161336b81613372565b8035614a1e81613372565b6001600160a01b031682526020818101359083015260408082013590830152606090810135910152565b6000808335601e19843603018112614a5f57600080fd5b830160208101925035905067ffffffffffffffff811115614a7f57600080fd5b803603821315614a8e57600080fd5b9250929050565b81835281816020850137506000828201602090810191909152601f909101601f19169091010190565b60208152614adf60208201614ad28461338a565b6001600160a01b03169052565b6000614aed6020840161338a565b6001600160a01b038116604084015250614b0d6060830160408501614a13565b60c083013560e083015261010060e084013581840152614b2e81850161338a565b9050610120614b47818501836001600160a01b03169052565b61014091508085013582850152506101608185013581850152614b6c81860186614a48565b6101808681015292509050614b866101a085018383614a95565b95945050505050565b6000806040808486031215614ba357600080fd5b8351925060208085015167ffffffffffffffff80821115614bc357600080fd5b818701915087601f830112614bd757600080fd5b8151614be56137a4826137ef565b81815260059190911b8301840190848101908a831115614c0457600080fd5b8585015b83811015614cc557805185811115614c1f57600080fd5b86016060818e03601f19011215614c365760008081fd5b614c3e61362f565b88820151614c4b81613372565b8152818a015189820152606082015187811115614c685760008081fd5b8083019250508d603f830112614c7e5760008081fd5b88820151614c8e6137a48261375d565b8181528f8c838601011115614ca35760008081fd5b614cb2828c83018e870161348e565b828c015250845250918601918601614c08565b50809750505050505050509250929050565b600181811c90821680614ceb57607f821691505b602082108103614d0b57634e487b7160e01b600052602260045260246000fd5b50919050565b634e487b7160e01b600052601160045260246000fd5b808201808211156104fc576104fc614d11565b634e487b7160e01b600052603260045260246000fd5b60006020808385031215614d6357600080fd5b825167ffffffffffffffff811115614d7a57600080fd5b8301601f81018513614d8b57600080fd5b8051614d996137a4826137ef565b81815260059190911b82018301908381019087831115614db857600080fd5b928401925b82841015614ddf578351614dd081613372565b82529284019290840190614dbd565b979650505050505050565b805161339581613372565b60006101208284031215614e0857600080fd5b614e106136e5565b825181526020830151602082015260408301516040820152606083015160608201526080830151608082015260a083015160a082015260c083015160c0820152614e5c60e08401614dea565b60e0820152610100928301519281019290925250919050565b600060208284031215614e8757600080fd5b5051919050565b601f821115614ed6576000816000526020600020601f850160051c81016020861015614eb75750805b601f850160051c820191505b8181101561276757828155600101614ec3565b505050565b815167ffffffffffffffff811115614ef557614ef5613619565b614f0981614f038454614cd7565b84614e8e565b602080601f831160018114614f3e5760008415614f265750858301515b600019600386901b1c1916600185901b178555612767565b600085815260208120601f198616915b82811015614f6d57888601518255948401946001909101908401614f4e565b5085821015614f8b5787850151600019600388901b60f8161c191681555b5050505050600190811b01905550565b604081526000614fae60408301856134de565b90506001600160a01b03831660208301529392505050565b80516080808452815184820181905260009260a0916020918201918388019190865b828110156150ab57845180516cffffffffffffffffffffffffff1685528281015163ffffffff908116848701526040808301519091169086015260608082015161ffff1690860152878101516001600160a01b031688860152868101518786015260c08082015162ffffff169086015260e080820151151590860152610100808201511515908601526101208082015115159086015261014080820151151590860152610160908101511515908501529381019361018090930192600101614fe8565b508781015163ffffffff16908901525060408087015160ff16908801526060808701516001600160a01b038116918901919091529350610e05565b8281526040602082015260008251610180604084015261510a6101c08401826134b2565b90506020840151603f198085840301606086015261512883836134b2565b92506040860151915061514660808601836001600160a01b03169052565b60608601519150808584030160a086015261516183836134b2565b92506080860151915061517f60c08601836001600160a01b03169052565b60a08601519150808584030160e086015261519a83836134b2565b925060c086015191506101008186850301818701526151b98484614fc6565b935060e087015192506151d86101208701846001600160a01b03169052565b860151805115156101408701526020810151151561016087015260408101511515610180870152606081015115156101a087015291506152159050565b50949350505050565b60006020828403121561523057600080fd5b815161336b816141d9565b60008151808452602080850194506020840160005b8381101561526c57815187529582019590820190600101615250565b509495945050505050565b60006001600160a01b03808916835280881660208401525085604083015260c060608301526152a960c083018661523b565b93151560808301525090151560a090910152949350505050565b6bffffffffffffffffffffffff198460601b168152600083516152ed81601485016020880161348e565b60149201918201929092526034019392505050565b600082825180855260208086019550808260051b8401018186016000805b858110156153bf57868403601f19018a52825180516001600160a01b03908116865290860151604087870181905281518188018190529188019290916060919082890190875b818110156153a75786518051851684528c81015163ffffffff168d8501528681015185168785015285015185840152958b0195608090920191600101615366565b50509d89019d97505050938601935050600101615320565b509198975050505050505050565b838152826020820152606060408201526000614b866060830184615302565b60008151604084526154016040850182615302565b602093840151949093019390935250919050565b60608152600061542860608301866134b2565b828103602084015261543a81866153ec565b9150506001600160a01b0383166040830152949350505050565b60006001600160a01b038085168352604060208401528084511660408401525060208301516060830152604083015160606080840152614b8660a084018261523b565b7f24000000000000000000000000000000000000000000000000000000000000008152600082516154cf81600185016020870161348e565b7f207265766e6574206465706c6f796564000000000000000000000000000000006001939091019283015250601101919050565b805182526020810151602083015260408101516040830152606081015161552e606084018215159052565b506080810151615542608084018215159052565b5060a081015161555660a084018215159052565b5060c081015161556a60c084018215159052565b5060e081015161557e60e084018215159052565b5061010081810151151590830152610120808201511515908301526101408082015115159083015261016080820151151590830152610180808201511515908301526101a0808201511515908301526101c0808201511515908301526101e0808201516001600160a01b03169083015261020090810151910152565b600082825180855260208086019550808260051b8401018186016000805b858110156153bf57868403601f19018a52825180518552850151604086860181905281518187018190529187019160609081880190865b818110156156a95785518051151584528b8101518c8501528581015186850152848101516001600160a01b03908116868601526080808301519086015260a0918201511690840152948a019460c09092019160010161564f565b50509c88019c965050509285019250600101615618565b60008151808452602080850194506020840160005b8381101561526c5781518051885283015183880152604090960195908201906001016156d5565b600082825180855260208086019550808260051b84010181860160005b8481101561355257601f19868403018952815160806001600160a01b038083511686528087840151168787015250604080830151828288015261575e838801826156c0565b925050506060808301519250858203818701525061577c81836156c0565b9a86019a9450505090830190600101615719565b600082825180855260208086019550808260051b84010181860160005b8481101561355257858303601f19018952815180518452848101518585015260408082015190850152606080820151908501526080808201516001600160a01b03169085015260a080820151610300919061580a82880182615503565b505060c0820151816102c0870152615824828701826155fa565b91505060e082015191508481036102e086015261584181836156fc565b9a86019a94505050908301906001016157ad565b60008151808452602080850194506020840160005b8381101561526c5781516001600160a01b03168752958201959082019060010161586a565b600082825180855260208086019550808260051b84010181860160005b8481101561355257858303601f19018952815180516001600160a01b0316845284015160408585018190526158e381860183615855565b9a86019a94505050908301906001016158ac565b6001600160a01b038616815260a06020820152600061591960a08301876134b2565b828103604084015261592b8187615790565b9050828103606084015261593f818661588f565b9050828103608084015261595381856134b2565b98975050505050505050565b8481526080602082015260006159786080830186615790565b828103604084015261598a818661588f565b90508281036060840152614ddf81856134b2565b8481526080602082015260006159b760808301866134b2565b82810360408401526159c981866134b2565b91505082606083015295945050505050565b838152826020820152606060408201526000614b8660608301846155fa565b600082825180855260208086019550808260051b8401018186016000805b858110156153bf57868403601f19018a528251805164ffffffffff1685528581015160e0878701819052815190870181905261010087019188019085905b80821015615a95578251805185528a8101518b8601526040908101516001600160a01b0316908501526060909301929189019160019190910190615a56565b50505060408281015161ffff908116918801919091526060808401516dffffffffffffffffffffffffffff169088015260808084015164ffffffffff169088015260a08084015163ffffffff169088015260c0928301511691909501529884019891840191600101615a18565b600060408084016001600160a01b038085511686526020808601516040828901528381518086526060955060608a019150838301925060005b81811015615b835783518051871684528581015162ffffff16868501528881015163ffffffff9081168a86015290880151168784015292840192608090920191600101615b3b565b50909998505050505050505050565b60006101008083528a51608082850152805191506080610180850152615bbc6102008501836134b2565b9150602081015161017f1980868503016101a0870152615bdc84836134b2565b93506040830151915080868503016101c087015250615bfb83826134b2565b92505060608101516101e08501525060208b0151615c2261012085018263ffffffff169052565b5060408b01516001600160a01b031661014084015260608b015183820360ff1901610160850152615c5382826159fa565b9150508281036020840152615c68818b61588f565b90508281036040840152615c7c818a615b02565b90508281036060840152615c9081896153ec565b90508281036080840152615ca48188615790565b905082810360a0840152615cb881876134b2565b915050615cc960c083018515159052565b6001600160a01b03831660e08301529998505050505050505050565b600060208083018184528085518083526040925060408601915060408160051b87010184880160005b83811015615d8157888303603f19018552815180516001600160a01b0316845287810151888501528681015187850152606080820151908501526080808201519085015260a09081015160c091850182905290615d6d81860183615855565b968901969450505090860190600101615d0e565b509098975050505050505050565b818103818111156104fc576104fc614d11565b60008351615db481846020880161348e565b835190830190615dc881836020880161348e565b01949350505050565b60008085851115615de157600080fd5b83861115615dee57600080fd5b5050820193919092039150565b6bffffffffffffffffffffffff1981358181169160148510156132fc5760149490940360031b84901b1690921692915050565b63ffffffff851681526080602082015260006159b760808301866134b256fea26469706673582212202914ed8113562fcb37babd899155f3c419826112cbb464513267ab739cb9eb2e64736f6c63430008170033",
			"deployedBytecode": "0x608060405234801561001057600080fd5b506004361061018d5760003560e01c80639ab68726116100e3578063b5d255331161008c578063dbfbe5da11610066578063dbfbe5da1461044c578063eb5ad9d91461045f578063ee0fc1211461047257600080fd5b8063b5d25533146103ff578063bb19940214610426578063bd43e7ba1461043957600080fd5b80639fafd73c116100bd5780639fafd73c14610385578063aaf320d7146103b5578063abf8c5c8146103d857600080fd5b80639ab68726146103555780639c62f179146103685780639d82ba251461037b57600080fd5b80635a31dc13116101455780637249a7731161011f5780637249a773146102d95780637da0a8771461031a57806382a09b301461034057600080fd5b80635a31dc13146102755780635c0a7cee146102a6578063677ce088146102c657600080fd5b806343681e151161017657806343681e15146101e65780634c4ffc7114610214578063572b6c051461023557600080fd5b806301ffc9a714610192578063150b7a02146101ba575b600080fd5b6101a56101a0366004613341565b610499565b60405190151581526020015b60405180910390f35b6101cd6101c836600461339a565b610502565b6040516001600160e01b031990911681526020016101b1565b6102066101f4366004613439565b60016020526000908152604090205481565b6040519081526020016101b1565b610227610222366004613452565b6105ce565b6040516101b192919061355f565b6101a5610243366004613580565b7f000000000000000000000000b2b5841dbef766d4b521221732f9b618fcf34a876001600160a01b0390811691161490565b61020661028336600461359d565b600260209081526000938452604080852082529284528284209052825290205481565b6102b96102b4366004613439565b6108d2565b6040516101b191906135d6565b6101a56102d43660046135e9565b6109f6565b6103026102e7366004613439565b6000602081905290815260409020546001600160a01b031681565b6040516001600160a01b0390911681526020016101b1565b7f000000000000000000000000b2b5841dbef766d4b521221732f9b618fcf34a87610302565b61035361034e36600461359d565b610b2b565b005b610206610363366004613f44565b610df3565b6102066103763660046140d0565b610e0f565b61020662278d0081565b610398610393366004614582565b610f1f565b604080519283526001600160a01b039091166020830152016101b1565b6103c86103c3366004614693565b61126f565b6040516101b194939291906146cf565b6103027f000000000000000000000000f97086e4cea8d11fcd64cb2e5dde0ab7588f5f0181565b6103027f00000000000000000000000001ad7869d85dc136f473db7f4f07b8f61414f64481565b61035361043436600461476f565b6113ac565b6103986104473660046148c0565b611668565b600654610302906001600160a01b031681565b61035361046d3660046135e9565b611805565b6103027f0000000000000000000000009c7993bff32dfd4e96f5c24d7ab3f9c93c30370481565b60006001600160e01b031982167f81c03c2e0000000000000000000000000000000000000000000000000000000014806104fc57507f01ffc9a7000000000000000000000000000000000000000000000000000000006001600160e01b03198316145b92915050565b60007f0000000000000000000000009c7993bff32dfd4e96f5c24d7ab3f9c93c3037046001600160a01b031663293c49996040518163ffffffff1660e01b8152600401602060405180830381865afa158015610562573d6000803e3d6000fd5b505050506040513d601f19601f8201168201806040525081019061058691906149f6565b6001600160a01b0316336001600160a01b0316146105a357600080fd5b507f150b7a020000000000000000000000000000000000000000000000000000000095945050505050565b60c081013560009081526020819052604081205460609081906001600160a01b0316801561068a576040517f4c4ffc710000000000000000000000000000000000000000000000000000000081526001600160a01b03821690634c4ffc719061063b908890600401614abe565b600060405180830381865afa158015610658573d6000803e3d6000fd5b505050506040513d6000823e601f3d908101601f191682016040526106809190810190614b8f565b9094509150610693565b84610120013593505b815160c086013560009081526005602090815260408083208054825181850281018501909352808352941515949192909190849084015b828210156107ae576000848152602090819020604080516060810182526003860290920180546001600160a01b031683526001810154938301939093526002830180549293929184019161071d90614cd7565b80601f016020809104026020016040519081016040528092919081815260200182805461074990614cd7565b80156107965780601f1061076b57610100808354040283529160200191610796565b820191906000526020600020905b81548152906001019060200180831161077957829003601f168201915b505050505081525050815260200190600101906106ca565b505050509050600081519050826107c65760006107c9565b60015b6107d69060ff1682614d27565b67ffffffffffffffff8111156107ee576107ee613619565b60405190808252806020026020018201604052801561083b57816020015b6040805160608082018352600080835260208301529181019190915281526020019060019003908161080c5790505b50955060005b818110156108885782818151811061085b5761085b614d3a565b602002602001015187828151811061087557610875614d3a565b6020908102919091010152600101610841565b5082156108c857846000815181106108a2576108a2614d3a565b60200260200101518682815181106108bc576108bc614d3a565b60200260200101819052505b5050505050915091565b606060056000838152602001908152602001600020805480602002602001604051908101604052809291908181526020016000905b828210156109eb576000848152602090819020604080516060810182526003860290920180546001600160a01b031683526001810154938301939093526002830180549293929184019161095a90614cd7565b80601f016020809104026020016040519081016040528092919081815260200182805461098690614cd7565b80156109d35780601f106109a8576101008083540402835291602001916109d3565b820191906000526020600020905b8154815290600101906020018083116109b657829003601f168201915b50505050508152505081526020019060010190610907565b505050509050919050565b6000828152602081905260408120546001600160a01b0390811690831603610a20575060016104fc565b6040517f3d12cb87000000000000000000000000000000000000000000000000000000008152600481018490526000907f00000000000000000000000001ad7869d85dc136f473db7f4f07b8f61414f6446001600160a01b031690633d12cb8790602401600060405180830381865afa158015610aa1573d6000803e3d6000fd5b505050506040513d6000823e601f3d908101601f19168201604052610ac99190810190614d50565b805190915060005b81811015610b1f57828181518110610aeb57610aeb614d3a565b60200260200101516001600160a01b0316856001600160a01b031603610b1757600193505050506104fc565b600101610ad1565b50600095945050505050565b60007f0000000000000000000000009c7993bff32dfd4e96f5c24d7ab3f9c93c3037046001600160a01b031663d4a1b4b16040518163ffffffff1660e01b8152600401602060405180830381865afa158015610b8b573d6000803e3d6000fd5b505050506040513d601f19601f82011682018060405250810190610baf91906149f6565b6040517f25a61d5c00000000000000000000000000000000000000000000000000000000815260048101869052602481018590526001600160a01b0391909116906325a61d5c9060440161012060405180830381865afa158015610c17573d6000803e3d6000fd5b505050506040513d601f19601f82011682018060405250810190610c3b9190614df5565b90504281606001511115610c7b576040517f13dec85c00000000000000000000000000000000000000000000000000000000815260040160405180910390fd5b600084815260026020908152604080832084830151845282528083206001600160a01b038616845290915281205490819003610cb8575050505050565b600085815260026020908152604080832087845282528083206001600160a01b038781168086529190935281842084905590516363fdc96f60e11b81526004810189905260248101859052604481019190915260a0606482015260a4810183905260848101929092527f0000000000000000000000009c7993bff32dfd4e96f5c24d7ab3f9c93c303704169063c7fb92de9060c4016020604051808303816000875af1158015610d6c573d6000803e3d6000fd5b505050506040513d601f19601f82011682018060405250810190610d909190614e75565b50826001600160a01b03168260200151867f598baf7bf150ca2f42be9e9f8f55e81d45f5715c3ff22bf46d697fabec7f31d68433604051610de49291909182526001600160a01b0316602082015260400190565b60405180910390a45050505050565b6000610e058686868630600088611cc4565b9695505050505050565b6000610e2488888888308761ffff168a611cc4565b835190985060005b81811015610ed05760008a81526005602052604090208551869083908110610e5657610e56614d3a565b6020908102919091018101518254600180820185556000948552938390208251600390920201805473ffffffffffffffffffffffffffffffffffffffff19166001600160a01b03909216919091178155918101519282019290925560408201516002820190610ec59082614edb565b505050600101610e2c565b50887fdfaf2737f25eace49d372b472ec03f1df0f9814dfc69d2b95c5e92a041f42e2985610efc6123c1565b604051610f0a929190614f9b565b60405180910390a25096979650505050505050565b6000808980820361101b577f0000000000000000000000009c7993bff32dfd4e96f5c24d7ab3f9c93c3037046001600160a01b031663293c49996040518163ffffffff1660e01b8152600401602060405180830381865afa158015610f88573d6000803e3d6000fd5b505050506040513d601f19601f82011682018060405250810190610fac91906149f6565b6001600160a01b03166306661abd6040518163ffffffff1660e01b8152600401602060405180830381865afa158015610fe9573d6000803e3d6000fd5b505050506040513d601f19601f8201168201806040525081019061100d9190614e75565b611018906001614d27565b9a505b8451600061102a826001614d27565b67ffffffffffffffff81111561104257611042613619565b60405190808252806020026020018201604052801561108f57816020015b604080516060808201835260008083526020830152918101919091528152602001906001900390816110605790505b50905060005b828110156110dc578781815181106110af576110af614d3a565b60200260200101518282815181106110c9576110c9614d3a565b6020908102919091010152600101611095565b507f000000000000000000000000f97086e4cea8d11fcd64cb2e5dde0ab7588f5f016001600160a01b0316632230819f8e8a600001516040518363ffffffff1660e01b815260040161112f9291906150e6565b6020604051808303816000875af115801561114e573d6000803e3d6000fd5b505050506040513d601f19601f8201168201806040525081019061117291906149f6565b93508760200151156111a15760008d815260046020908152604082208054600181018255908352912060159101555b8760400151156111ce5760008d815260046020908152604082208054600181018255908352912060169101555b8760600151156111fb5760008d815260046020908152604082208054600181018255908352912060179101555b6040518060600160405280856001600160a01b03168152602001600081526020016040518060200160405280600081525081525081838151811061124157611241614d3a565b602002602001018190525061125b838d8d8d8d868c610e0f565b508c94505050509850989650505050505050565b6000808060606001600160a01b037f00000000000000000000000001ad7869d85dc136f473db7f4f07b8f61414f644166383db9d01604087018035906112b89060208a01613580565b6040516001600160e01b031960e085901b16815260048101929092526001600160a01b03166024820152604401602060405180830381865afa158015611302573d6000803e3d6000fd5b505050506040513d601f19601f82011682018060405250810190611326919061521e565b156113435761271085608001358660a001359350935093506113a5565b60408086013560009081526001602052205442101561138e576040517f04c3b3cd00000000000000000000000000000000000000000000000000000000815260040160405180910390fd5b84610160013585608001358660a001359350935093505b9193509193565b7f0000000000000000000000009c7993bff32dfd4e96f5c24d7ab3f9c93c3037046001600160a01b0316631f47ce696040518163ffffffff1660e01b8152600401602060405180830381865afa15801561140a573d6000803e3d6000fd5b505050506040513d601f19601f8201168201806040525081019061142e91906149f6565b6001600160a01b031663f434c9146040518163ffffffff1660e01b8152600401602060405180830381865afa15801561146b573d6000803e3d6000fd5b505050506040513d601f19601f8201168201806040525081019061148f91906149f6565b6001600160a01b031663632af95f6114a56123c1565b30866114b0886123d0565b6000806040518763ffffffff1660e01b81526004016114d496959493929190615277565b602060405180830381865afa1580156114f1573d6000803e3d6000fd5b505050506040513d601f19601f82011682018060405250810190611515919061521e565b611532576040516331fb21f360e01b815260040160405180910390fd5b600061153c6123c1565b838360200151604051602001611554939291906152c3565b60408051601f1981840301815290829052805160209091012083517f2f3f50e00000000000000000000000000000000000000000000000000000000083529092506001600160a01b037f00000000000000000000000001ad7869d85dc136f473db7f4f07b8f61414f6441691632f3f50e0916115d691889186916004016153cd565b6000604051808303816000875af11580156115f5573d6000803e3d6000fd5b505050506040513d6000823e601f3d908101601f1916820160405261161d9190810190614d50565b5080847f755ecfca2f6e66af8868551556bf7931740a7062db8e0882f4c322fdb0bb3f60858561164b6123c1565b60405161165a93929190615415565b60405180910390a350505050565b60008061167b8b8b8b8b8b8b8b8b610f1f565b909b50905061168b8b8285612588565b7f0000000000000000000000009c7993bff32dfd4e96f5c24d7ab3f9c93c3037046001600160a01b031663f434c9146040518163ffffffff1660e01b8152600401602060405180830381865afa1580156116e9573d6000803e3d6000fd5b505050506040513d601f19601f8201168201806040525081019061170d91906149f6565b6001600160a01b03166305d2912e306040518060600160405280600660009054906101000a90046001600160a01b03166001600160a01b031681526020018f8152602001600780548060200260200160405190810160405280929190818152602001828054801561179d57602002820191906000526020600020905b815481526020019060010190808311611789575b50505050508152506040518363ffffffff1660e01b81526004016117c2929190615454565b600060405180830381600087803b1580156117dc57600080fd5b505af11580156117f0573d6000803e3d6000fd5b505050508a9150995099975050505050505050565b6000611810836123d0565b90507f0000000000000000000000009c7993bff32dfd4e96f5c24d7ab3f9c93c3037046001600160a01b0316631f47ce696040518163ffffffff1660e01b8152600401602060405180830381865afa158015611870573d6000803e3d6000fd5b505050506040513d601f19601f8201168201806040525081019061189491906149f6565b6001600160a01b031663f434c9146040518163ffffffff1660e01b8152600401602060405180830381865afa1580156118d1573d6000803e3d6000fd5b505050506040513d601f19601f820116820180604052508101906118f591906149f6565b6001600160a01b031663632af95f61190b6123c1565b3086856000806040518763ffffffff1660e01b815260040161193296959493929190615277565b602060405180830381865afa15801561194f573d6000803e3d6000fd5b505050506040513d601f19601f82011682018060405250810190611973919061521e565b611990576040516331fb21f360e01b815260040160405180910390fd5b7f0000000000000000000000009c7993bff32dfd4e96f5c24d7ab3f9c93c3037046001600160a01b0316631f47ce696040518163ffffffff1660e01b8152600401602060405180830381865afa1580156119ee573d6000803e3d6000fd5b505050506040513d601f19601f82011682018060405250810190611a1291906149f6565b6001600160a01b031663f434c9146040518163ffffffff1660e01b8152600401602060405180830381865afa158015611a4f573d6000803e3d6000fd5b505050506040513d601f19601f82011682018060405250810190611a7391906149f6565b6001600160a01b03166305d2912e306040518060600160405280611a956123c1565b6001600160a01b0316815260208082018990526040805160008152918201815291820152516001600160e01b031960e085901b168152611ad9929190600401615454565b600060405180830381600087803b158015611af357600080fd5b505af1158015611b07573d6000803e3d6000fd5b505050507f0000000000000000000000009c7993bff32dfd4e96f5c24d7ab3f9c93c3037046001600160a01b0316631f47ce696040518163ffffffff1660e01b8152600401602060405180830381865afa158015611b69573d6000803e3d6000fd5b505050506040513d601f19601f82011682018060405250810190611b8d91906149f6565b6001600160a01b031663f434c9146040518163ffffffff1660e01b8152600401602060405180830381865afa158015611bca573d6000803e3d6000fd5b505050506040513d601f19601f82011682018060405250810190611bee91906149f6565b6001600160a01b03166305d2912e306040518060600160405280866001600160a01b03168152602001878152602001858152506040518363ffffffff1660e01b8152600401611c3e929190615454565b600060405180830381600087803b158015611c5857600080fd5b505af1158015611c6c573d6000803e3d6000fd5b50505050816001600160a01b0316837f0329d6a81434b130c72eb65eea0e32e429dc1277b4aad86ec86454aefb618451611ca46123c1565b6040516001600160a01b03909116815260200160405180910390a3505050565b600080600080611cd58a888861276f565b9250925092508a600003611db0577f0000000000000000000000009c7993bff32dfd4e96f5c24d7ab3f9c93c3037046001600160a01b0316639e14fb80308c6000015160400151868d8f6000015160200151604051602001611d379190615497565b6040516020818303038152906040526040518663ffffffff1660e01b8152600401611d669594939291906158f7565b6020604051808303816000875af1158015611d85573d6000803e3d6000fd5b505050506040513d601f19601f82011682018060405250810190611da99190614e75565b9a50611e6e565b7f0000000000000000000000009c7993bff32dfd4e96f5c24d7ab3f9c93c3037046001600160a01b03166321df42e88c858c8e6000015160200151604051602001611dfb9190615497565b6040516020818303038152906040526040518563ffffffff1660e01b8152600401611e29949392919061595f565b6020604051808303816000875af1158015611e48573d6000803e3d6000fd5b505050506040513d601f19601f82011682018060405250810190611e6c9190614e75565b505b8015611e9157611e8162278d0042614d27565b60008c8152600160205260409020555b7f0000000000000000000000009c7993bff32dfd4e96f5c24d7ab3f9c93c3037046001600160a01b031663581781918c8c60000151600001518d60000151602001518e60000151606001516040518563ffffffff1660e01b8152600401611efb949392919061599e565b6020604051808303816000875af1158015611f1a573d6000803e3d6000fd5b505050506040513d601f19601f82011682018060405250810190611f3e91906149f6565b5087516001600160a01b031615611f5957611f598b89612b98565b7f0000000000000000000000009c7993bff32dfd4e96f5c24d7ab3f9c93c3037046001600160a01b031663dd5f214a8c6000611f988e60400151612cf8565b6040518463ffffffff1660e01b8152600401611fb6939291906159db565b600060405180830381600087803b158015611fd057600080fd5b505af1158015611fe4573d6000803e3d6000fd5b50505050611ff28b8b612e36565b600060405180606001604052808c604001516001600160a01b031681526020018d81526020016120218e6123d0565b81525090507f0000000000000000000000009c7993bff32dfd4e96f5c24d7ab3f9c93c3037046001600160a01b031663f434c9146040518163ffffffff1660e01b8152600401602060405180830381865afa158015612084573d6000803e3d6000fd5b505050506040513d601f19601f820116820180604052508101906120a891906149f6565b6001600160a01b03166305d2912e30836040518363ffffffff1660e01b81526004016120d5929190615454565b600060405180830381600087803b1580156120ef57600080fd5b505af1158015612103573d6000803e3d6000fd5b5060009250600191506121139050565b60405190808252806020026020018201604052801561213c578160200160208202803683370190505b509050601c8160008151811061215457612154614d3a565b60200260200101818152505060405180606001604052807f00000000000000000000000001ad7869d85dc136f473db7f4f07b8f61414f6446001600160a01b031681526020018e81526020018281525091507f0000000000000000000000009c7993bff32dfd4e96f5c24d7ab3f9c93c3037046001600160a01b031663f434c9146040518163ffffffff1660e01b8152600401602060405180830381865afa158015612204573d6000803e3d6000fd5b505050506040513d601f19601f8201168201806040525081019061222891906149f6565b6001600160a01b03166305d2912e30846040518363ffffffff1660e01b8152600401612255929190615454565b600060405180830381600087803b15801561226f57600080fd5b505af1158015612283573d6000803e3d6000fd5b50505050602087015115612363577f00000000000000000000000001ad7869d85dc136f473db7f4f07b8f61414f6446001600160a01b0316632f3f50e08e6122c96123c1565b878b602001516040516020016122e1939291906152c3565b60408051601f198184030181529082905280516020909101208b516001600160e01b031960e086901b16835261231a93926004016153cd565b6000604051808303816000875af1158015612339573d6000803e3d6000fd5b505050506040513d6000823e601f3d908101601f191682016040526123619190810190614d50565b505b8c7fabdf3ec8139195645b1e44778a910396624b7d2913c04b613f4800ad25d710468d8d8d8b8a8a8a6123946123c1565b6040516123a8989796959493929190615b92565b60405180910390a2509a9b9a5050505050505050505050565b60006123cb61313c565b905090565b60606000600380548060200260200160405190810160405280929190818152602001828054801561242057602002820191906000526020600020905b81548152602001906001019080831161240c575b5050835160008881526004602090815260408083208054825181850281018501909352808352989950939792965094509192509083018282801561248357602002820191906000526020600020905b81548152602001906001019080831161246f575b5050835193945061249a9250839150859050614d27565b67ffffffffffffffff8111156124b2576124b2613619565b6040519080825280602002602001820160405280156124db578160200160208202803683370190505b50945060005b83811015612528578481815181106124fb576124fb614d3a565b602002602001015186828151811061251557612515614d3a565b60209081029190910101526001016124e1565b5060005b8181101561257e5782818151811061254657612546614d3a565b602002602001015186828661255b9190614d27565b8151811061256b5761256b614d3a565b602090810291909101015260010161252c565b5050505050919050565b805160008167ffffffffffffffff8111156125a5576125a5613619565b60405190808252806020026020018201604052801561261857816020015b6126056040518060c0016040528060006001600160a01b0316815260200160008152602001600081526020016000815260200160008152602001606081525090565b8152602001906001900390816125c35790505b50905061264d6040518060a0016040528060008152602001600081526020016000815260200160008152602001606081525090565b60005b838110156126e35784818151811061266a5761266a614d3a565b602002602001015191506040518060c00160405280876001600160a01b031681526020018360000151815260200183602001518152602001836040015181526020018360600151815260200183608001518152508382815181106126d0576126d0614d3a565b6020908102919091010152600101612650565b50835115612767576006546040517f9b9b7aa90000000000000000000000000000000000000000000000000000000081526001600160a01b0390911690639b9b7aa990612734908590600401615ce5565b600060405180830381600087803b15801561274e57600080fd5b505af1158015612762573d6000803e3d6000fd5b505050505b505050505050565b6060838101515181906000908067ffffffffffffffff81111561279457612794613619565b60405190808252806020026020018201604052801561288e57816020015b61287b6040805161010080820183526000808352602080840182905283850182905260608085018390526080808601849052865161022081018852848152928301849052958201839052810182905293840181905260a084810182905260c0850182905260e0850182905291840181905261012084018190526101408401819052610160840181905261018084018190526101a084018190526101c084018190526101e08401819052610200840152909190820190815260200160608152602001606081525090565b8152602001906001900390816127b25790505b50935061289a876131b1565b6040805160e08101825260008082526060602083018190529282018190529181018290526080810182905260a0810182905260c08101829052919450805b83811015612b8b57896060015181815181106128f6576128f6614d3a565b6020026020010151925081836000015164ffffffffff1611612944576040517f0aec2d6900000000000000000000000000000000000000000000000000000000815260040160405180910390fd5b826000015164ffffffffff1687828151811061296257612962614d3a565b60200260200101516000018181525050826080015164ffffffffff1687828151811061299057612990614d3a565b6020026020010151602001818152505082606001516dffffffffffffffffffffffffffff168782815181106129c7576129c7614d3a565b602002602001015160400181815250508260a0015163ffffffff168782815181106129f4576129f4614d3a565b602002602001015160600181815250506000878281518110612a1857612a18614d3a565b6020026020010151608001906001600160a01b031690816001600160a01b031681525050604051806102200160405280846040015161ffff1681526020018460c0015161ffff16612710612a6c9190615d8f565b815260208c81015163ffffffff16908201526000604082018190526060820181905260016080830181905260a0830182905260c0830182905260e0830182905261010083018290526101208301829052610140830182905261016083018290526101808301526101a08201526001600160a01b038b166101c08201526101e0018990528751889083908110612b0357612b03614d3a565b602002602001015160a00181905250806000148015612b295750825164ffffffffff1615155b8015612b3f575042836000015164ffffffffff16105b15612b4957600194505b85612b5484836131eb565b604051602001612b65929190615da2565b60408051601f19818403018152919052835190965064ffffffffff1691506001016128d8565b5050505093509350939050565b602081810151516040805160808101825260008082529381018490529081018390526060810183905290915b82811015612cb75783602001518181518110612be257612be2614d3a565b6020908102919091018101518551918101516040808301516060840151845192517f7b621d3a000000000000000000000000000000000000000000000000000000008152600481018c905262ffffff909416602485015263ffffffff91821660448501521660648301526001600160a01b039081166084830152919450911690637b621d3a9060a4016020604051808303816000875af1158015612c8a573d6000803e3d6000fd5b505050506040513d601f19601f82011682018060405250810190612cae91906149f6565b50600101612bc4565b50509051600092835260208390526040909220805473ffffffffffffffffffffffffffffffffffffffff19166001600160a01b039093169290921790915550565b604080516001808252818301909252606091816020015b604080518082019091526000815260606020820152815260200190600190039081612d0f57505060408051600180825281830190925291925060009190602082015b6040805160c08101825260008082526020808301829052928201819052606082018190526080820181905260a08201528252600019909201910181612d515790505090506040518060c00160405280600015158152602001633b9aca00815260200160008152602001846001600160a01b031681526020016000815260200160006001600160a01b031681525081600081518110612df157612df1614d3a565b60200260200101819052506040518060400160405280600181526020018281525082600081518110612e2557612e25614d3a565b602002602001018190525050919050565b606080820151516040805160e0810182526000808252602082018590529181018290529283018190526080830181905260a0830181905260c08301529060005b828110156131355783606001518181518110612e9457612e94614d3a565b6020026020010151915060008260200151519050612ed56040518060600160405280600081526020016000815260200160006001600160a01b031681525090565b60005b8281101561312a5784602001518181518110612ef657612ef6614d3a565b602002602001015191504682600001510361312257831580612f23575042856000015164ffffffffff1611155b1561305057602082015160408084015190516363fdc96f60e11b8152600481018b905260248101929092526001600160a01b03908116604483015260a06064830152600060a4830181905260848301527f0000000000000000000000009c7993bff32dfd4e96f5c24d7ab3f9c93c303704169063c7fb92de9060c4016020604051808303816000875af1158015612fbe573d6000803e3d6000fd5b505050506040513d601f19601f82011682018060405250810190612fe29190614e75565b5060408201516001600160a01b0316612ffb8542614d27565b897f598baf7bf150ca2f42be9e9f8f55e81d45f5715c3ff22bf46d697fabec7f31d68560200151336040516130439291909182526001600160a01b0316602082015260400190565b60405180910390a4613122565b60208083015160008a815260029092526040822090916130708742614d27565b8152602001908152602001600020600084604001516001600160a01b03166001600160a01b0316815260200190815260200160002060008282546130b49190614d27565b909155505060408201516001600160a01b03166130d18542614d27565b897f9e83979117d75aa75fe101361cf46235d3d0a6fa7afafb275d2b9f8af02273138560200151336040516131199291909182526001600160a01b0316602082015260400190565b60405180910390a45b600101612ed8565b505050600101612e76565b5050505050565b6000366014336001600160a01b037f000000000000000000000000b2b5841dbef766d4b521221732f9b618fcf34a87161480156131795750808210155b156131a95760003661318b8385615d8f565b613196928290615dd1565b61319f91615dfb565b60601c9250505090565b339250505090565b602080820151825180518184015160609283015160405193956131d5959401615e2e565b6040516020818303038152906040529050919050565b6060811580156132015750825164ffffffffff16155b61321357825164ffffffffff16613215565b425b6040808501516060860151608087015160a088015160c0890151945161328696959060200195865261ffff94851660208701526dffffffffffffffffffffffffffff93909316604086015264ffffffffff91909116606085015263ffffffff1660808401521660a082015260c00190565b60408051601f1981840301815291905260208401515190915060005b818110156132fc57826132d1866020015183815181106132c4576132c4614d3a565b6020026020010151613304565b6040516020016132e2929190615da2565b60408051601f1981840301815291905292506001016132a2565b505092915050565b60608160000151826040015183602001516040516020016131d5939291909283526001600160a01b03919091166020830152604082015260600190565b60006020828403121561335357600080fd5b81356001600160e01b03198116811461336b57600080fd5b9392505050565b6001600160a01b038116811461338757600080fd5b50565b803561339581613372565b919050565b6000806000806000608086880312156133b257600080fd5b85356133bd81613372565b945060208601356133cd81613372565b935060408601359250606086013567ffffffffffffffff808211156133f157600080fd5b818801915088601f83011261340557600080fd5b81358181111561341457600080fd5b89602082850101111561342657600080fd5b9699959850939650602001949392505050565b60006020828403121561344b57600080fd5b5035919050565b60006020828403121561346457600080fd5b813567ffffffffffffffff81111561347b57600080fd5b8201610180818503121561336b57600080fd5b60005b838110156134a9578181015183820152602001613491565b50506000910152565b600081518084526134ca81602086016020860161348e565b601f01601f19169290920160200192915050565b600082825180855260208086019550808260051b84010181860160005b8481101561355257858303601f19018952815180516001600160a01b03168452848101518585015260409081015160609185018290529061353e818601836134b2565b9a86019a94505050908301906001016134fb565b5090979650505050505050565b82815260406020820152600061357860408301846134de565b949350505050565b60006020828403121561359257600080fd5b813561336b81613372565b6000806000606084860312156135b257600080fd5b833592506020840135915060408401356135cb81613372565b809150509250925092565b60208152600061336b60208301846134de565b600080604083850312156135fc57600080fd5b82359150602083013561360e81613372565b809150509250929050565b634e487b7160e01b600052604160045260246000fd5b6040516060810167ffffffffffffffff8111828210171561365257613652613619565b60405290565b60405160e0810167ffffffffffffffff8111828210171561365257613652613619565b6040516080810167ffffffffffffffff8111828210171561365257613652613619565b6040805190810167ffffffffffffffff8111828210171561365257613652613619565b604051610180810167ffffffffffffffff8111828210171561365257613652613619565b604051610120810167ffffffffffffffff8111828210171561365257613652613619565b60405160a0810167ffffffffffffffff8111828210171561365257613652613619565b604051601f8201601f1916810167ffffffffffffffff8111828210171561375557613755613619565b604052919050565b600067ffffffffffffffff82111561377757613777613619565b50601f01601f191660200190565b600082601f83011261379657600080fd5b81356137a96137a48261375d565b61372c565b8181528460208386010111156137be57600080fd5b816020850160208301376000918101602001919091529392505050565b803563ffffffff8116811461339557600080fd5b600067ffffffffffffffff82111561380957613809613619565b5060051b60200190565b803564ffffffffff8116811461339557600080fd5b600082601f83011261383957600080fd5b813560206138496137a4836137ef565b8281526060928302850182019282820191908785111561386857600080fd5b8387015b858110156135525781818a0312156138845760008081fd5b61388c61362f565b8135815285820135868201526040808301356138a781613372565b90820152845292840192810161386c565b803561ffff8116811461339557600080fd5b80356dffffffffffffffffffffffffffff8116811461339557600080fd5b600082601f8301126138f957600080fd5b813560206139096137a4836137ef565b82815260059290921b8401810191818101908684111561392857600080fd5b8286015b84811015613a0a57803567ffffffffffffffff8082111561394d5760008081fd5b9088019060e0828b03601f19018113156139675760008081fd5b61396f613658565b61397a888501613813565b8152604080850135848111156139905760008081fd5b61399e8e8b83890101613828565b8a84015250606093506139b28486016138b8565b9082015260806139c38582016138ca565b8483015260a093506139d6848601613813565b9082015260c06139e78582016137db565b848301526139f68386016138b8565b90820152865250505091830191830161392c565b509695505050505050565b600060808284031215613a2757600080fd5b613a2f61367b565b9050813567ffffffffffffffff80821115613a4957600080fd5b9083019060808286031215613a5d57600080fd5b613a6561367b565b823582811115613a7457600080fd5b613a8087828601613785565b825250602083013582811115613a9557600080fd5b613aa187828601613785565b602083015250604083013582811115613ab957600080fd5b613ac587828601613785565b604083015250606083810135908201528352613ae3602085016137db565b6020840152613af46040850161338a565b60408401526060840135915080821115613b0d57600080fd5b50613b1a848285016138e8565b60608301525092915050565b600082601f830112613b3757600080fd5b81356020613b476137a4836137ef565b8083825260208201915060208460051b870101935086841115613b6957600080fd5b602086015b84811015613a0a578035613b8181613372565b8352918301918301613b6e565b600082601f830112613b9f57600080fd5b81356020613baf6137a4836137ef565b82815260059290921b84018101918181019086841115613bce57600080fd5b8286015b84811015613a0a57803567ffffffffffffffff80821115613bf35760008081fd5b908801906040828b03601f1901811315613c0d5760008081fd5b613c1561369e565b87840135613c2281613372565b8152908301359082821115613c375760008081fd5b613c458c8984870101613b26565b818901528652505050918301918301613bd2565b803562ffffff8116811461339557600080fd5b60006040808385031215613c7f57600080fd5b613c8761369e565b91508235613c9481613372565b825260208381013567ffffffffffffffff811115613cb157600080fd5b8401601f81018613613cc257600080fd5b8035613cd06137a4826137ef565b81815260079190911b82018301908381019088831115613cef57600080fd5b928401925b82841015613d63576080848a031215613d0d5760008081fd5b613d1561367b565b8435613d2081613372565b8152613d2d858701613c59565b86820152613d3c8786016137db565b878201526060613d4d8187016137db565b9082015282526080939093019290840190613cf4565b808588015250505050505092915050565b600060408284031215613d8657600080fd5b613d8e61369e565b905067ffffffffffffffff8083351115613da757600080fd5b8235830184601f820112613dba57600080fd5b613dc76137a482356137ef565b81358082526020808301929160051b84010187811115613de657600080fd5b602084015b81811015613f2b578581351115613e0157600080fd5b803585016040818b03601f19011215613e1957600080fd5b613e2161369e565b613e2e6020830135613372565b602082013581528760408301351115613e4657600080fd5b6040820135820191508a603f830112613e5e57600080fd5b6020820135613e6f6137a4826137ef565b81815260079190911b83016040019060208101908d831115613e9057600080fd5b6040850194505b82851015613f0c576080858f031215613eaf57600080fd5b613eb761367b565b613ec18635613372565b85358152613ed1602087016137db565b6020820152613ee36040870135613372565b604086013560408201526060860135606082015280835250602082019150608085019450613e97565b8060208501525050508086525050602084019350602081019050613deb565b5050808552505050506020820135602082015292915050565b600080600080600060a08688031215613f5c57600080fd5b85359450602086013567ffffffffffffffff80821115613f7b57600080fd5b613f8789838a01613a15565b95506040880135915080821115613f9d57600080fd5b613fa989838a01613b8e565b94506060880135915080821115613fbf57600080fd5b613fcb89838a01613c6c565b93506080880135915080821115613fe157600080fd5b50613fee88828901613d74565b9150509295509295909350565b600082601f83011261400c57600080fd5b8135602061401c6137a4836137ef565b82815260059290921b8401810191818101908684111561403b57600080fd5b8286015b84811015613a0a57803567ffffffffffffffff808211156140605760008081fd5b908801906060828b03601f190181131561407a5760008081fd5b61408261362f565b8784013561408f81613372565b8152604084810135898301529184013591838311156140ae5760008081fd5b6140bc8d8a85880101613785565b90820152865250505091830191830161403f565b600080600080600080600060e0888a0312156140eb57600080fd5b87359650602088013567ffffffffffffffff8082111561410a57600080fd5b6141168b838c01613a15565b975060408a013591508082111561412c57600080fd5b6141388b838c01613b8e565b965060608a013591508082111561414e57600080fd5b61415a8b838c01613c6c565b955060808a013591508082111561417057600080fd5b61417c8b838c01613d74565b945060a08a013591508082111561419257600080fd5b5061419f8a828b01613ffb565b9250506141ae60c089016138b8565b905092959891949750929550565b80356cffffffffffffffffffffffffff8116811461339557600080fd5b801515811461338757600080fd5b8035613395816141d9565b803560ff8116811461339557600080fd5b6000608080838503121561421657600080fd5b61421e61367b565b9150823567ffffffffffffffff81111561423757600080fd5b8301601f8101851361424857600080fd5b803560206142586137a4836137ef565b828152610180928302840182019282820191908985111561427857600080fd5b948301945b8486101561436b5780868b0312156142955760008081fd5b61429d6136c1565b6142a6876141bc565b81526142b38588016137db565b8582015260406142c48189016137db565b9082015260606142d58882016138b8565b908201526142e487890161338a565b8189015260a0878101359082015260c06142ff818901613c59565b9082015260e06143108882016141e7565b908201526101006143228882016141e7565b908201526101206143348882016141e7565b908201526101406143468882016141e7565b908201526101606143588882016141e7565b908201528352948501949183019161427d565b5086525061437a8682016137db565b818601525050505061438e604083016141f2565b604082015261439f6060830161338a565b606082015292915050565b6000608082840312156143bc57600080fd5b6143c461367b565b905081356143d1816141d9565b815260208201356143e1816141d9565b602082015260408201356143f4816141d9565b6040820152606082013561439f816141d9565b60006080828403121561441957600080fd5b61442161367b565b9050813567ffffffffffffffff8082111561443b57600080fd5b90830190610180828603121561445057600080fd5b6144586136e5565b82358281111561446757600080fd5b61447387828601613785565b82525060208301358281111561448857600080fd5b61449487828601613785565b6020830152506144a66040840161338a565b60408201526060830135828111156144bd57600080fd5b6144c987828601613785565b6060830152506144db6080840161338a565b608082015260a0830135828111156144f257600080fd5b6144fe87828601613785565b60a08301525060c08301358281111561451657600080fd5b61452287828601614203565b60c08301525061453460e0840161338a565b60e0820152610100915061454a868385016143aa565b82820152808452505050614560602083016141e7565b6020820152614571604083016141e7565b604082015261439f606083016141e7565b600080600080600080600080610100898b03121561459f57600080fd5b88359750602089013567ffffffffffffffff808211156145be57600080fd5b6145ca8c838d01613a15565b985060408b01359150808211156145e057600080fd5b6145ec8c838d01613b8e565b975060608b013591508082111561460257600080fd5b61460e8c838d01613c6c565b965060808b013591508082111561462457600080fd5b6146308c838d01613d74565b955060a08b013591508082111561464657600080fd5b6146528c838d01614407565b945060c08b013591508082111561466857600080fd5b506146758b828c01613ffb565b92505061468460e08a016138b8565b90509295985092959890939650565b6000602082840312156146a557600080fd5b813567ffffffffffffffff8111156146bc57600080fd5b82016101a0818503121561336b57600080fd5b60006080820186835260208681850152604086604086015260606080606087015283875180865260a08801915060a08160051b890101955084890160005b8281101561475d57898803609f19018452815180516001600160a01b0316895287810151888a015286015186890186905261474a868a01826134b2565b985050928601929086019060010161470d565b50959c9b505050505050505050505050565b60008060006060848603121561478457600080fd5b83359250602084013567ffffffffffffffff808211156147a357600080fd5b6147af87838801613785565b935060408601359150808211156147c557600080fd5b506147d286828701613d74565b9150509250925092565b600082601f8301126147ed57600080fd5b813560206147fd6137a4836137ef565b82815260059290921b8401810191818101908684111561481c57600080fd5b8286015b84811015613a0a57803567ffffffffffffffff808211156148415760008081fd5b9088019060a0828b03601f190181131561485b5760008081fd5b614863613709565b8784013581526040808501358983015260608086013582840152608091508186013581840152508285013592508383111561489e5760008081fd5b6148ac8d8a85880101613b26565b908201528652505050918301918301614820565b60008060008060008060008060006101208a8c0312156148df57600080fd5b8935985060208a013567ffffffffffffffff808211156148fe57600080fd5b61490a8d838e01613a15565b995060408c013591508082111561492057600080fd5b61492c8d838e01613b8e565b985060608c013591508082111561494257600080fd5b61494e8d838e01613c6c565b975060808c013591508082111561496457600080fd5b6149708d838e01613d74565b965060a08c013591508082111561498657600080fd5b6149928d838e01614407565b955060c08c01359150808211156149a857600080fd5b6149b48d838e01613ffb565b94506149c260e08d016138b8565b93506101008c01359150808211156149d957600080fd5b506149e68c828d016147dc565b9150509295985092959850929598565b600060208284031215614a0857600080fd5b815161336b81613372565b8035614a1e81613372565b6001600160a01b031682526020818101359083015260408082013590830152606090810135910152565b6000808335601e19843603018112614a5f57600080fd5b830160208101925035905067ffffffffffffffff811115614a7f57600080fd5b803603821315614a8e57600080fd5b9250929050565b81835281816020850137506000828201602090810191909152601f909101601f19169091010190565b60208152614adf60208201614ad28461338a565b6001600160a01b03169052565b6000614aed6020840161338a565b6001600160a01b038116604084015250614b0d6060830160408501614a13565b60c083013560e083015261010060e084013581840152614b2e81850161338a565b9050610120614b47818501836001600160a01b03169052565b61014091508085013582850152506101608185013581850152614b6c81860186614a48565b6101808681015292509050614b866101a085018383614a95565b95945050505050565b6000806040808486031215614ba357600080fd5b8351925060208085015167ffffffffffffffff80821115614bc357600080fd5b818701915087601f830112614bd757600080fd5b8151614be56137a4826137ef565b81815260059190911b8301840190848101908a831115614c0457600080fd5b8585015b83811015614cc557805185811115614c1f57600080fd5b86016060818e03601f19011215614c365760008081fd5b614c3e61362f565b88820151614c4b81613372565b8152818a015189820152606082015187811115614c685760008081fd5b8083019250508d603f830112614c7e5760008081fd5b88820151614c8e6137a48261375d565b8181528f8c838601011115614ca35760008081fd5b614cb2828c83018e870161348e565b828c015250845250918601918601614c08565b50809750505050505050509250929050565b600181811c90821680614ceb57607f821691505b602082108103614d0b57634e487b7160e01b600052602260045260246000fd5b50919050565b634e487b7160e01b600052601160045260246000fd5b808201808211156104fc576104fc614d11565b634e487b7160e01b600052603260045260246000fd5b60006020808385031215614d6357600080fd5b825167ffffffffffffffff811115614d7a57600080fd5b8301601f81018513614d8b57600080fd5b8051614d996137a4826137ef565b81815260059190911b82018301908381019087831115614db857600080fd5b928401925b82841015614ddf578351614dd081613372565b82529284019290840190614dbd565b979650505050505050565b805161339581613372565b60006101208284031215614e0857600080fd5b614e106136e5565b825181526020830151602082015260408301516040820152606083015160608201526080830151608082015260a083015160a082015260c083015160c0820152614e5c60e08401614dea565b60e0820152610100928301519281019290925250919050565b600060208284031215614e8757600080fd5b5051919050565b601f821115614ed6576000816000526020600020601f850160051c81016020861015614eb75750805b601f850160051c820191505b8181101561276757828155600101614ec3565b505050565b815167ffffffffffffffff811115614ef557614ef5613619565b614f0981614f038454614cd7565b84614e8e565b602080601f831160018114614f3e5760008415614f265750858301515b600019600386901b1c1916600185901b178555612767565b600085815260208120601f198616915b82811015614f6d57888601518255948401946001909101908401614f4e565b5085821015614f8b5787850151600019600388901b60f8161c191681555b5050505050600190811b01905550565b604081526000614fae60408301856134de565b90506001600160a01b03831660208301529392505050565b80516080808452815184820181905260009260a0916020918201918388019190865b828110156150ab57845180516cffffffffffffffffffffffffff1685528281015163ffffffff908116848701526040808301519091169086015260608082015161ffff1690860152878101516001600160a01b031688860152868101518786015260c08082015162ffffff169086015260e080820151151590860152610100808201511515908601526101208082015115159086015261014080820151151590860152610160908101511515908501529381019361018090930192600101614fe8565b508781015163ffffffff16908901525060408087015160ff16908801526060808701516001600160a01b038116918901919091529350610e05565b8281526040602082015260008251610180604084015261510a6101c08401826134b2565b90506020840151603f198085840301606086015261512883836134b2565b92506040860151915061514660808601836001600160a01b03169052565b60608601519150808584030160a086015261516183836134b2565b92506080860151915061517f60c08601836001600160a01b03169052565b60a08601519150808584030160e086015261519a83836134b2565b925060c086015191506101008186850301818701526151b98484614fc6565b935060e087015192506151d86101208701846001600160a01b03169052565b860151805115156101408701526020810151151561016087015260408101511515610180870152606081015115156101a087015291506152159050565b50949350505050565b60006020828403121561523057600080fd5b815161336b816141d9565b60008151808452602080850194506020840160005b8381101561526c57815187529582019590820190600101615250565b509495945050505050565b60006001600160a01b03808916835280881660208401525085604083015260c060608301526152a960c083018661523b565b93151560808301525090151560a090910152949350505050565b6bffffffffffffffffffffffff198460601b168152600083516152ed81601485016020880161348e565b60149201918201929092526034019392505050565b600082825180855260208086019550808260051b8401018186016000805b858110156153bf57868403601f19018a52825180516001600160a01b03908116865290860151604087870181905281518188018190529188019290916060919082890190875b818110156153a75786518051851684528c81015163ffffffff168d8501528681015185168785015285015185840152958b0195608090920191600101615366565b50509d89019d97505050938601935050600101615320565b509198975050505050505050565b838152826020820152606060408201526000614b866060830184615302565b60008151604084526154016040850182615302565b602093840151949093019390935250919050565b60608152600061542860608301866134b2565b828103602084015261543a81866153ec565b9150506001600160a01b0383166040830152949350505050565b60006001600160a01b038085168352604060208401528084511660408401525060208301516060830152604083015160606080840152614b8660a084018261523b565b7f24000000000000000000000000000000000000000000000000000000000000008152600082516154cf81600185016020870161348e565b7f207265766e6574206465706c6f796564000000000000000000000000000000006001939091019283015250601101919050565b805182526020810151602083015260408101516040830152606081015161552e606084018215159052565b506080810151615542608084018215159052565b5060a081015161555660a084018215159052565b5060c081015161556a60c084018215159052565b5060e081015161557e60e084018215159052565b5061010081810151151590830152610120808201511515908301526101408082015115159083015261016080820151151590830152610180808201511515908301526101a0808201511515908301526101c0808201511515908301526101e0808201516001600160a01b03169083015261020090810151910152565b600082825180855260208086019550808260051b8401018186016000805b858110156153bf57868403601f19018a52825180518552850151604086860181905281518187018190529187019160609081880190865b818110156156a95785518051151584528b8101518c8501528581015186850152848101516001600160a01b03908116868601526080808301519086015260a0918201511690840152948a019460c09092019160010161564f565b50509c88019c965050509285019250600101615618565b60008151808452602080850194506020840160005b8381101561526c5781518051885283015183880152604090960195908201906001016156d5565b600082825180855260208086019550808260051b84010181860160005b8481101561355257601f19868403018952815160806001600160a01b038083511686528087840151168787015250604080830151828288015261575e838801826156c0565b925050506060808301519250858203818701525061577c81836156c0565b9a86019a9450505090830190600101615719565b600082825180855260208086019550808260051b84010181860160005b8481101561355257858303601f19018952815180518452848101518585015260408082015190850152606080820151908501526080808201516001600160a01b03169085015260a080820151610300919061580a82880182615503565b505060c0820151816102c0870152615824828701826155fa565b91505060e082015191508481036102e086015261584181836156fc565b9a86019a94505050908301906001016157ad565b60008151808452602080850194506020840160005b8381101561526c5781516001600160a01b03168752958201959082019060010161586a565b600082825180855260208086019550808260051b84010181860160005b8481101561355257858303601f19018952815180516001600160a01b0316845284015160408585018190526158e381860183615855565b9a86019a94505050908301906001016158ac565b6001600160a01b038616815260a06020820152600061591960a08301876134b2565b828103604084015261592b8187615790565b9050828103606084015261593f818661588f565b9050828103608084015261595381856134b2565b98975050505050505050565b8481526080602082015260006159786080830186615790565b828103604084015261598a818661588f565b90508281036060840152614ddf81856134b2565b8481526080602082015260006159b760808301866134b2565b82810360408401526159c981866134b2565b91505082606083015295945050505050565b838152826020820152606060408201526000614b8660608301846155fa565b600082825180855260208086019550808260051b8401018186016000805b858110156153bf57868403601f19018a528251805164ffffffffff1685528581015160e0878701819052815190870181905261010087019188019085905b80821015615a95578251805185528a8101518b8601526040908101516001600160a01b0316908501526060909301929189019160019190910190615a56565b50505060408281015161ffff908116918801919091526060808401516dffffffffffffffffffffffffffff169088015260808084015164ffffffffff169088015260a08084015163ffffffff169088015260c0928301511691909501529884019891840191600101615a18565b600060408084016001600160a01b038085511686526020808601516040828901528381518086526060955060608a019150838301925060005b81811015615b835783518051871684528581015162ffffff16868501528881015163ffffffff9081168a86015290880151168784015292840192608090920191600101615b3b565b50909998505050505050505050565b60006101008083528a51608082850152805191506080610180850152615bbc6102008501836134b2565b9150602081015161017f1980868503016101a0870152615bdc84836134b2565b93506040830151915080868503016101c087015250615bfb83826134b2565b92505060608101516101e08501525060208b0151615c2261012085018263ffffffff169052565b5060408b01516001600160a01b031661014084015260608b015183820360ff1901610160850152615c5382826159fa565b9150508281036020840152615c68818b61588f565b90508281036040840152615c7c818a615b02565b90508281036060840152615c9081896153ec565b90508281036080840152615ca48188615790565b905082810360a0840152615cb881876134b2565b915050615cc960c083018515159052565b6001600160a01b03831660e08301529998505050505050505050565b600060208083018184528085518083526040925060408601915060408160051b87010184880160005b83811015615d8157888303603f19018552815180516001600160a01b0316845287810151888501528681015187850152606080820151908501526080808201519085015260a09081015160c091850182905290615d6d81860183615855565b968901969450505090860190600101615d0e565b509098975050505050505050565b818103818111156104fc576104fc614d11565b60008351615db481846020880161348e565b835190830190615dc881836020880161348e565b01949350505050565b60008085851115615de157600080fd5b83861115615dee57600080fd5b5050820193919092039150565b6bffffffffffffffffffffffff1981358181169160148510156132fc5760149490940360031b84901b1690921692915050565b63ffffffff851681526080602082015260006159b760808301866134b256fea26469706673582212202914ed8113562fcb37babd899155f3c419826112cbb464513267ab739cb9eb2e64736f6c63430008170033",
			"devdoc": {
				"kind": "dev",
				"methods": {
					"beforePayRecordedWith((address,address,(address,uint256,uint256,uint256),uint256,uint256,address,uint256,uint256,bytes))": {
						"details": "Part of IJBFundingCycleDataSource.This implementation just sets this contract up to receive a `didPay` call.",
						"params": {
							"context": "The Juicebox standard network payment context. See"
						},
						"returns": {
							"hookSpecifications": "Amount to be sent to pay hooks instead of adding to local balance. Useful for auto-routing funds from a treasury as payment come in.",
							"weight": "The weight that network tokens should get minted relative to. This is useful for optionally customizing how many tokens are issued per payment."
						}
					},
					"constructor": {
						"params": {
							"controller": "The controller that revnets are made from.",
							"hookDeployer": "The 721 tiers hook deployer.",
							"publisher": "The croptop publisher that facilitates the permissioned publishing of 721 posts to a revnet.",
							"suckerRegistry": "The registry that deploys and tracks each project's suckers.",
							"trustedForwarder": "The trusted forwarder for the ERC2771Context."
						}
					},
					"deploySuckersFor(uint256,bytes,((address,(address,uint32,address,uint256)[])[],bytes32))": {
						"params": {
							"encodedConfiguration": "A bytes representation of the revnet's configuration.",
							"revnetId": "The ID of the revnet having new suckers deployed.",
							"suckerDeploymentConfiguration": "The specifics about the suckers being deployed."
						}
					},
					"hasMintPermissionFor(uint256,address)": {
						"params": {
							"addr": "The address to check if has permissions.",
							"revnetId": "The ID of the revnet to check permissions for."
						},
						"returns": {
							"_0": "flag The flag indicating if the address has permissions to mint on the revnet's behalf."
						}
					},
					"isTrustedForwarder(address)": {
						"details": "Indicates whether any particular address is the trusted forwarder."
					},
					"launchCroptopRevnetFor(uint256,((string,string,string,bytes32),uint32,address,(uint40,(uint256,uint256,address)[],uint16,uint112,uint40,uint32,uint16)[]),(address,address[])[],(address,(address,uint24,uint32,uint32)[]),((address,(address,uint32,address,uint256)[])[],bytes32),((string,string,address,string,address,string,((uint104,uint32,uint32,uint16,address,bytes32,uint24,bool,bool,bool,bool,bool)[],uint32,uint8,address),address,(bool,bool,bool,bool)),bool,bool,bool),(address,uint256,bytes)[],uint16,(uint256,uint256,uint256,uint256,address[])[])": {
						"params": {
							"allowedPosts": "The type of posts that the revent should allow.",
							"buybackHookConfiguration": "Data used for setting up the buyback hook to use when determining the best price for new participants.",
							"configuration": "The data needed to deploy a basic revnet.",
							"extraHookMetadata": "Extra metadata to attach to the cycle for the delegates to use.",
							"hookConfiguration": "Data used for setting up the 721 tiers.",
							"otherPayHooksSpecifications": "Any hooks that should run when the revnet is paid alongside the 721 hook.",
							"revnetId": "The ID of the Juicebox project to turn into a revnet. Send 0 to deploy a new revnet.",
							"suckerDeploymentConfiguration": "Information about how this revnet relates to other's across chains.",
							"terminalConfigurations": "The terminals that the network uses to accept payments through."
						},
						"returns": {
							"_0": "revnetId The ID of the newly created revnet.",
							"hook": "The address of the 721 hook that was deployed on the revnet."
						}
					},
					"launchPayHookRevnetFor(uint256,((string,string,string,bytes32),uint32,address,(uint40,(uint256,uint256,address)[],uint16,uint112,uint40,uint32,uint16)[]),(address,address[])[],(address,(address,uint24,uint32,uint32)[]),((address,(address,uint32,address,uint256)[])[],bytes32),(address,uint256,bytes)[],uint16)": {
						"params": {
							"buybackHookConfiguration": "Data used for setting up the buyback hook to use when determining the best price for new participants.",
							"configuration": "The data needed to deploy a basic revnet.",
							"extraHookMetadata": "Extra metadata to attach to the cycle for the delegates to use.",
							"payHookSpecifications": "Any hooks that should run when the revnet is paid.",
							"revnetId": "The ID of the Juicebox project to turn into a revnet. Send 0 to deploy a new revnet.",
							"suckerDeploymentConfiguration": "Information about how this revnet relates to other's across chains.",
							"terminalConfigurations": "The terminals that the network uses to accept payments through."
						},
						"returns": {
							"_0": "revnetId The ID of the newly created revnet."
						}
					},
					"launchRevnetFor(uint256,((string,string,string,bytes32),uint32,address,(uint40,(uint256,uint256,address)[],uint16,uint112,uint40,uint32,uint16)[]),(address,address[])[],(address,(address,uint24,uint32,uint32)[]),((address,(address,uint32,address,uint256)[])[],bytes32))": {
						"params": {
							"buybackHookConfiguration": "Data used for setting up the buyback hook to use when determining the best price for new participants.",
							"configuration": "The data needed to deploy a basic revnet.",
							"revnetId": "The ID of the Juicebox project to turn into a revnet. Send 0 to deploy a new revnet.",
							"suckerDeploymentConfiguration": "Information about how this revnet relates to other's across chains.",
							"terminalConfigurations": "The terminals that the network uses to accept payments through."
						},
						"returns": {
							"_0": "revnetId The ID of the newly created revnet."
						}
					},
					"launchTiered721RevnetFor(uint256,((string,string,string,bytes32),uint32,address,(uint40,(uint256,uint256,address)[],uint16,uint112,uint40,uint32,uint16)[]),(address,address[])[],(address,(address,uint24,uint32,uint32)[]),((address,(address,uint32,address,uint256)[])[],bytes32),((string,string,address,string,address,string,((uint104,uint32,uint32,uint16,address,bytes32,uint24,bool,bool,bool,bool,bool)[],uint32,uint8,address),address,(bool,bool,bool,bool)),bool,bool,bool),(address,uint256,bytes)[],uint16)": {
						"params": {
							"buybackHookConfiguration": "Data used for setting up the buyback hook to use when determining the best price for new participants.",
							"configuration": "The data needed to deploy a basic revnet.",
							"extraHookMetadata": "Extra metadata to attach to the cycle for the delegates to use.",
							"hookConfiguration": "Data used for setting up the 721 tiers.",
							"otherPayHooksSpecifications": "Any hooks that should run when the revnet is paid alongside the 721 hook.",
							"revnetId": "The ID of the Juicebox project to turn into a revnet. Send 0 to deploy a new revnet.",
							"suckerDeploymentConfiguration": "Information about how this revnet relates to other's across chains.",
							"terminalConfigurations": "The terminals that the network uses to accept payments through."
						},
						"returns": {
							"_0": "revnetId The ID of the newly created revnet.",
							"hook": "The address of the 721 hook that was deployed on the revnet."
						}
					},
					"mintFor(uint256,uint256,address)": {
						"params": {
							"beneficiary": "The address to mint tokens to.",
							"revnetId": "The ID of the revnet to mint tokens from.",
							"stageId": "The ID of the stage to mint tokens from."
						}
					},
					"onERC721Received(address,address,uint256,bytes)": {
						"details": "Make sure only mints can be received."
					},
					"payHookSpecificationsOf(uint256)": {
						"params": {
							"revnetId": "The ID of the revnet to which the extensions apply."
						},
						"returns": {
							"_0": "payHookSpecifications The pay hooks."
						}
					},
					"replaceSplitOperatorOf(uint256,address)": {
						"params": {
							"newSplitOperator": "The address of the new split operator.",
							"revnetId": "The ID of the revnet having its operator replaced."
						}
					},
					"supportsInterface(bytes4)": {
						"details": "See {IERC165-supportsInterface}.",
						"params": {
							"interfaceId": "The ID of the interface to check for adherence to."
						},
						"returns": {
							"_0": "A flag indicating if the provided interface ID is supported."
						}
					},
					"trustedForwarder()": {
						"details": "Returns the address of the trusted forwarder."
					}
				},
				"version": 1
			},
			"userdoc": {
				"kind": "user",
				"methods": {
					"CONTROLLER()": {
						"notice": "The controller that networks are made from."
					},
					"EXIT_DELAY()": {
						"notice": "The amount of time from a sucker being deployed to when it can facilitate exits."
					},
					"HOOK_DEPLOYER()": {
						"notice": "The contract responsible for deploying the tiered 721 hook."
					},
					"PUBLISHER()": {
						"notice": "The croptop publisher that facilitates the permissioned publishing of 721 posts to a revnet."
					},
					"SUCKER_REGISTRY()": {
						"notice": "The registry that deploys and tracks each project's suckers."
					},
					"allowedMintCountOf(uint256,uint256,address)": {
						"notice": "The specification of how many tokens are still allowed to be minted at each stage of a revnet."
					},
					"beforePayRecordedWith((address,address,(address,uint256,uint256,uint256),uint256,uint256,address,uint256,uint256,bytes))": {
						"notice": "This function gets called when the revnet receives a payment."
					},
					"beforeRedeemRecordedWith((address,address,uint256,uint256,uint256,uint256,(address,uint256,uint256,uint256),bool,uint256,bytes))": {
						"notice": "This function is never called, it needs to be included to adhere to the interface."
					},
					"buybackHookOf(uint256)": {
						"notice": "The data hook that returns the correct values for the buyback hook of each network."
					},
					"deploySuckersFor(uint256,bytes,((address,(address,uint32,address,uint256)[])[],bytes32))": {
						"notice": "Allows a revnet's split operator to deploy new suckers to the revnet after it's deployed."
					},
					"exitDelayOf(uint256)": {
						"notice": "The time at which exits from a revnet become allowed."
					},
					"hasMintPermissionFor(uint256,address)": {
						"notice": "Required by the IJBRulesetDataHook interfaces."
					},
					"launchCroptopRevnetFor(uint256,((string,string,string,bytes32),uint32,address,(uint40,(uint256,uint256,address)[],uint16,uint112,uint40,uint32,uint16)[]),(address,address[])[],(address,(address,uint24,uint32,uint32)[]),((address,(address,uint32,address,uint256)[])[],bytes32),((string,string,address,string,address,string,((uint104,uint32,uint32,uint16,address,bytes32,uint24,bool,bool,bool,bool,bool)[],uint32,uint8,address),address,(bool,bool,bool,bool)),bool,bool,bool),(address,uint256,bytes)[],uint16,(uint256,uint256,uint256,uint256,address[])[])": {
						"notice": "Launch a revnet that supports 721 sales."
					},
					"launchPayHookRevnetFor(uint256,((string,string,string,bytes32),uint32,address,(uint40,(uint256,uint256,address)[],uint16,uint112,uint40,uint32,uint16)[]),(address,address[])[],(address,(address,uint24,uint32,uint32)[]),((address,(address,uint32,address,uint256)[])[],bytes32),(address,uint256,bytes)[],uint16)": {
						"notice": "Launch a basic revnet that also calls other specified pay hooks."
					},
					"launchRevnetFor(uint256,((string,string,string,bytes32),uint32,address,(uint40,(uint256,uint256,address)[],uint16,uint112,uint40,uint32,uint16)[]),(address,address[])[],(address,(address,uint24,uint32,uint32)[]),((address,(address,uint32,address,uint256)[])[],bytes32))": {
						"notice": "Launch a basic revnet."
					},
					"launchTiered721RevnetFor(uint256,((string,string,string,bytes32),uint32,address,(uint40,(uint256,uint256,address)[],uint16,uint112,uint40,uint32,uint16)[]),(address,address[])[],(address,(address,uint24,uint32,uint32)[]),((address,(address,uint32,address,uint256)[])[],bytes32),((string,string,address,string,address,string,((uint104,uint32,uint32,uint16,address,bytes32,uint24,bool,bool,bool,bool,bool)[],uint32,uint8,address),address,(bool,bool,bool,bool)),bool,bool,bool),(address,uint256,bytes)[],uint16)": {
						"notice": "Launch a revnet that supports 721 sales."
					},
					"mintFor(uint256,uint256,address)": {
						"notice": "Mint tokens from a revnet to a specified beneficiary according to the rules set for the revnet."
					},
					"payHookSpecificationsOf(uint256)": {
						"notice": "The pay hooks to include during payments to networks."
					},
					"replaceSplitOperatorOf(uint256,address)": {
						"notice": "A revnet's operator can replace itself."
					},
					"supportsInterface(bytes4)": {
						"notice": "Indicates if this contract adheres to the specified interface."
					}
				},
				"version": 1
			},
			"gitCommit": "ede4094a51cb70865004119c67f9429b6d8f27ce",
			"sourceName": "src/REVCroptopDeployer.sol",
			"chainId": "84532",
			"linkReferences": {},
			"deployedLinkReferences": {}
		},
		{
			"_format": "sphinx-sol-ct-artifact-1",
			"merkleRoot": "0x316ebe6ea50e2e7d62ac2d322d5c260101785d368b145326e2fe16ff1b8d397c",
			"contractName": "REVCroptopDeployer",
			"address": "0x9Ad5F8352494Be4dCf75Ffcb477C77018691dF7E",
			"abi": [
				{
					"type": "constructor",
					"inputs": [
						{
							"name": "controller",
							"type": "address",
							"internalType": "contract IJBController"
						},
						{
							"name": "suckerRegistry",
							"type": "address",
							"internalType": "contract IBPSuckerRegistry"
						},
						{
							"name": "trustedForwarder",
							"type": "address",
							"internalType": "address"
						},
						{
							"name": "hookDeployer",
							"type": "address",
							"internalType": "contract IJB721TiersHookDeployer"
						},
						{
							"name": "publisher",
							"type": "address",
							"internalType": "contract CTPublisher"
						}
					],
					"stateMutability": "nonpayable"
				},
				{
					"type": "function",
					"name": "CONTROLLER",
					"inputs": [],
					"outputs": [
						{
							"name": "",
							"type": "address",
							"internalType": "contract IJBController"
						}
					],
					"stateMutability": "view"
				},
				{
					"type": "function",
					"name": "EXIT_DELAY",
					"inputs": [],
					"outputs": [
						{
							"name": "",
							"type": "uint256",
							"internalType": "uint256"
						}
					],
					"stateMutability": "view"
				},
				{
					"type": "function",
					"name": "HOOK_DEPLOYER",
					"inputs": [],
					"outputs": [
						{
							"name": "",
							"type": "address",
							"internalType": "contract IJB721TiersHookDeployer"
						}
					],
					"stateMutability": "view"
				},
				{
					"type": "function",
					"name": "PUBLISHER",
					"inputs": [],
					"outputs": [
						{
							"name": "",
							"type": "address",
							"internalType": "contract CTPublisher"
						}
					],
					"stateMutability": "view"
				},
				{
					"type": "function",
					"name": "SUCKER_REGISTRY",
					"inputs": [],
					"outputs": [
						{
							"name": "",
							"type": "address",
							"internalType": "contract IBPSuckerRegistry"
						}
					],
					"stateMutability": "view"
				},
				{
					"type": "function",
					"name": "allowedMintCountOf",
					"inputs": [
						{
							"name": "revnetId",
							"type": "uint256",
							"internalType": "uint256"
						},
						{
							"name": "stageId",
							"type": "uint256",
							"internalType": "uint256"
						},
						{
							"name": "beneficiary",
							"type": "address",
							"internalType": "address"
						}
					],
					"outputs": [
						{
							"name": "",
							"type": "uint256",
							"internalType": "uint256"
						}
					],
					"stateMutability": "view"
				},
				{
					"type": "function",
					"name": "beforePayRecordedWith",
					"inputs": [
						{
							"name": "context",
							"type": "tuple",
							"internalType": "struct JBBeforePayRecordedContext",
							"components": [
								{
									"name": "terminal",
									"type": "address",
									"internalType": "address"
								},
								{
									"name": "payer",
									"type": "address",
									"internalType": "address"
								},
								{
									"name": "amount",
									"type": "tuple",
									"internalType": "struct JBTokenAmount",
									"components": [
										{
											"name": "token",
											"type": "address",
											"internalType": "address"
										},
										{
											"name": "value",
											"type": "uint256",
											"internalType": "uint256"
										},
										{
											"name": "decimals",
											"type": "uint256",
											"internalType": "uint256"
										},
										{
											"name": "currency",
											"type": "uint256",
											"internalType": "uint256"
										}
									]
								},
								{
									"name": "projectId",
									"type": "uint256",
									"internalType": "uint256"
								},
								{
									"name": "rulesetId",
									"type": "uint256",
									"internalType": "uint256"
								},
								{
									"name": "beneficiary",
									"type": "address",
									"internalType": "address"
								},
								{
									"name": "weight",
									"type": "uint256",
									"internalType": "uint256"
								},
								{
									"name": "reservedRate",
									"type": "uint256",
									"internalType": "uint256"
								},
								{
									"name": "metadata",
									"type": "bytes",
									"internalType": "bytes"
								}
							]
						}
					],
					"outputs": [
						{
							"name": "weight",
							"type": "uint256",
							"internalType": "uint256"
						},
						{
							"name": "hookSpecifications",
							"type": "tuple[]",
							"internalType": "struct JBPayHookSpecification[]",
							"components": [
								{
									"name": "hook",
									"type": "address",
									"internalType": "contract IJBPayHook"
								},
								{
									"name": "amount",
									"type": "uint256",
									"internalType": "uint256"
								},
								{
									"name": "metadata",
									"type": "bytes",
									"internalType": "bytes"
								}
							]
						}
					],
					"stateMutability": "view"
				},
				{
					"type": "function",
					"name": "beforeRedeemRecordedWith",
					"inputs": [
						{
							"name": "context",
							"type": "tuple",
							"internalType": "struct JBBeforeRedeemRecordedContext",
							"components": [
								{
									"name": "terminal",
									"type": "address",
									"internalType": "address"
								},
								{
									"name": "holder",
									"type": "address",
									"internalType": "address"
								},
								{
									"name": "projectId",
									"type": "uint256",
									"internalType": "uint256"
								},
								{
									"name": "rulesetId",
									"type": "uint256",
									"internalType": "uint256"
								},
								{
									"name": "redeemCount",
									"type": "uint256",
									"internalType": "uint256"
								},
								{
									"name": "totalSupply",
									"type": "uint256",
									"internalType": "uint256"
								},
								{
									"name": "surplus",
									"type": "tuple",
									"internalType": "struct JBTokenAmount",
									"components": [
										{
											"name": "token",
											"type": "address",
											"internalType": "address"
										},
										{
											"name": "value",
											"type": "uint256",
											"internalType": "uint256"
										},
										{
											"name": "decimals",
											"type": "uint256",
											"internalType": "uint256"
										},
										{
											"name": "currency",
											"type": "uint256",
											"internalType": "uint256"
										}
									]
								},
								{
									"name": "useTotalSurplus",
									"type": "bool",
									"internalType": "bool"
								},
								{
									"name": "redemptionRate",
									"type": "uint256",
									"internalType": "uint256"
								},
								{
									"name": "metadata",
									"type": "bytes",
									"internalType": "bytes"
								}
							]
						}
					],
					"outputs": [
						{
							"name": "",
							"type": "uint256",
							"internalType": "uint256"
						},
						{
							"name": "",
							"type": "uint256",
							"internalType": "uint256"
						},
						{
							"name": "",
							"type": "uint256",
							"internalType": "uint256"
						},
						{
							"name": "specifications",
							"type": "tuple[]",
							"internalType": "struct JBRedeemHookSpecification[]",
							"components": [
								{
									"name": "hook",
									"type": "address",
									"internalType": "contract IJBRedeemHook"
								},
								{
									"name": "amount",
									"type": "uint256",
									"internalType": "uint256"
								},
								{
									"name": "metadata",
									"type": "bytes",
									"internalType": "bytes"
								}
							]
						}
					],
					"stateMutability": "view"
				},
				{
					"type": "function",
					"name": "buybackHookOf",
					"inputs": [
						{
							"name": "revnetId",
							"type": "uint256",
							"internalType": "uint256"
						}
					],
					"outputs": [
						{
							"name": "buybackHook",
							"type": "address",
							"internalType": "contract IJBRulesetDataHook"
						}
					],
					"stateMutability": "view"
				},
				{
					"type": "function",
					"name": "deploySuckersFor",
					"inputs": [
						{
							"name": "revnetId",
							"type": "uint256",
							"internalType": "uint256"
						},
						{
							"name": "encodedConfiguration",
							"type": "bytes",
							"internalType": "bytes"
						},
						{
							"name": "suckerDeploymentConfiguration",
							"type": "tuple",
							"internalType": "struct REVSuckerDeploymentConfig",
							"components": [
								{
									"name": "deployerConfigurations",
									"type": "tuple[]",
									"internalType": "struct BPSuckerDeployerConfig[]",
									"components": [
										{
											"name": "deployer",
											"type": "address",
											"internalType": "contract IBPSuckerDeployer"
										},
										{
											"name": "mappings",
											"type": "tuple[]",
											"internalType": "struct BPTokenMapping[]",
											"components": [
												{
													"name": "localToken",
													"type": "address",
													"internalType": "address"
												},
												{
													"name": "minGas",
													"type": "uint32",
													"internalType": "uint32"
												},
												{
													"name": "remoteToken",
													"type": "address",
													"internalType": "address"
												},
												{
													"name": "minBridgeAmount",
													"type": "uint256",
													"internalType": "uint256"
												}
											]
										}
									]
								},
								{
									"name": "salt",
									"type": "bytes32",
									"internalType": "bytes32"
								}
							]
						}
					],
					"outputs": [],
					"stateMutability": "nonpayable"
				},
				{
					"type": "function",
					"name": "exitDelayOf",
					"inputs": [
						{
							"name": "revnetId",
							"type": "uint256",
							"internalType": "uint256"
						}
					],
					"outputs": [
						{
							"name": "exitDelay",
							"type": "uint256",
							"internalType": "uint256"
						}
					],
					"stateMutability": "view"
				},
				{
					"type": "function",
					"name": "hasMintPermissionFor",
					"inputs": [
						{
							"name": "revnetId",
							"type": "uint256",
							"internalType": "uint256"
						},
						{
							"name": "addr",
							"type": "address",
							"internalType": "address"
						}
					],
					"outputs": [
						{
							"name": "",
							"type": "bool",
							"internalType": "bool"
						}
					],
					"stateMutability": "view"
				},
				{
					"type": "function",
					"name": "isTrustedForwarder",
					"inputs": [
						{
							"name": "forwarder",
							"type": "address",
							"internalType": "address"
						}
					],
					"outputs": [
						{
							"name": "",
							"type": "bool",
							"internalType": "bool"
						}
					],
					"stateMutability": "view"
				},
				{
					"type": "function",
					"name": "launchCroptopRevnetFor",
					"inputs": [
						{
							"name": "revnetId",
							"type": "uint256",
							"internalType": "uint256"
						},
						{
							"name": "configuration",
							"type": "tuple",
							"internalType": "struct REVConfig",
							"components": [
								{
									"name": "description",
									"type": "tuple",
									"internalType": "struct REVDescription",
									"components": [
										{
											"name": "name",
											"type": "string",
											"internalType": "string"
										},
										{
											"name": "ticker",
											"type": "string",
											"internalType": "string"
										},
										{
											"name": "uri",
											"type": "string",
											"internalType": "string"
										},
										{
											"name": "salt",
											"type": "bytes32",
											"internalType": "bytes32"
										}
									]
								},
								{
									"name": "baseCurrency",
									"type": "uint32",
									"internalType": "uint32"
								},
								{
									"name": "initialSplitOperator",
									"type": "address",
									"internalType": "address"
								},
								{
									"name": "stageConfigurations",
									"type": "tuple[]",
									"internalType": "struct REVStageConfig[]",
									"components": [
										{
											"name": "startsAtOrAfter",
											"type": "uint40",
											"internalType": "uint40"
										},
										{
											"name": "mintConfigs",
											"type": "tuple[]",
											"internalType": "struct REVMintConfig[]",
											"components": [
												{
													"name": "chainId",
													"type": "uint256",
													"internalType": "uint256"
												},
												{
													"name": "count",
													"type": "uint256",
													"internalType": "uint256"
												},
												{
													"name": "beneficiary",
													"type": "address",
													"internalType": "address"
												}
											]
										},
										{
											"name": "splitRate",
											"type": "uint16",
											"internalType": "uint16"
										},
										{
											"name": "initialIssuanceRate",
											"type": "uint112",
											"internalType": "uint112"
										},
										{
											"name": "priceCeilingIncreaseFrequency",
											"type": "uint40",
											"internalType": "uint40"
										},
										{
											"name": "priceCeilingIncreasePercentage",
											"type": "uint32",
											"internalType": "uint32"
										},
										{
											"name": "priceFloorTaxIntensity",
											"type": "uint16",
											"internalType": "uint16"
										}
									]
								}
							]
						},
						{
							"name": "terminalConfigurations",
							"type": "tuple[]",
							"internalType": "struct JBTerminalConfig[]",
							"components": [
								{
									"name": "terminal",
									"type": "address",
									"internalType": "contract IJBTerminal"
								},
								{
									"name": "tokensToAccept",
									"type": "address[]",
									"internalType": "address[]"
								}
							]
						},
						{
							"name": "buybackHookConfiguration",
							"type": "tuple",
							"internalType": "struct REVBuybackHookConfig",
							"components": [
								{
									"name": "hook",
									"type": "address",
									"internalType": "contract IJBBuybackHook"
								},
								{
									"name": "poolConfigurations",
									"type": "tuple[]",
									"internalType": "struct REVBuybackPoolConfig[]",
									"components": [
										{
											"name": "token",
											"type": "address",
											"internalType": "address"
										},
										{
											"name": "fee",
											"type": "uint24",
											"internalType": "uint24"
										},
										{
											"name": "twapWindow",
											"type": "uint32",
											"internalType": "uint32"
										},
										{
											"name": "twapSlippageTolerance",
											"type": "uint32",
											"internalType": "uint32"
										}
									]
								}
							]
						},
						{
							"name": "suckerDeploymentConfiguration",
							"type": "tuple",
							"internalType": "struct REVSuckerDeploymentConfig",
							"components": [
								{
									"name": "deployerConfigurations",
									"type": "tuple[]",
									"internalType": "struct BPSuckerDeployerConfig[]",
									"components": [
										{
											"name": "deployer",
											"type": "address",
											"internalType": "contract IBPSuckerDeployer"
										},
										{
											"name": "mappings",
											"type": "tuple[]",
											"internalType": "struct BPTokenMapping[]",
											"components": [
												{
													"name": "localToken",
													"type": "address",
													"internalType": "address"
												},
												{
													"name": "minGas",
													"type": "uint32",
													"internalType": "uint32"
												},
												{
													"name": "remoteToken",
													"type": "address",
													"internalType": "address"
												},
												{
													"name": "minBridgeAmount",
													"type": "uint256",
													"internalType": "uint256"
												}
											]
										}
									]
								},
								{
									"name": "salt",
									"type": "bytes32",
									"internalType": "bytes32"
								}
							]
						},
						{
							"name": "hookConfiguration",
							"type": "tuple",
							"internalType": "struct REVDeploy721TiersHookConfig",
							"components": [
								{
									"name": "baseline721HookConfiguration",
									"type": "tuple",
									"internalType": "struct JBDeploy721TiersHookConfig",
									"components": [
										{
											"name": "name",
											"type": "string",
											"internalType": "string"
										},
										{
											"name": "symbol",
											"type": "string",
											"internalType": "string"
										},
										{
											"name": "rulesets",
											"type": "address",
											"internalType": "contract IJBRulesets"
										},
										{
											"name": "baseUri",
											"type": "string",
											"internalType": "string"
										},
										{
											"name": "tokenUriResolver",
											"type": "address",
											"internalType": "contract IJB721TokenUriResolver"
										},
										{
											"name": "contractUri",
											"type": "string",
											"internalType": "string"
										},
										{
											"name": "tiersConfig",
											"type": "tuple",
											"internalType": "struct JB721InitTiersConfig",
											"components": [
												{
													"name": "tiers",
													"type": "tuple[]",
													"internalType": "struct JB721TierConfig[]",
													"components": [
														{
															"name": "price",
															"type": "uint104",
															"internalType": "uint104"
														},
														{
															"name": "initialSupply",
															"type": "uint32",
															"internalType": "uint32"
														},
														{
															"name": "votingUnits",
															"type": "uint32",
															"internalType": "uint32"
														},
														{
															"name": "reserveFrequency",
															"type": "uint16",
															"internalType": "uint16"
														},
														{
															"name": "reserveBeneficiary",
															"type": "address",
															"internalType": "address"
														},
														{
															"name": "encodedIPFSUri",
															"type": "bytes32",
															"internalType": "bytes32"
														},
														{
															"name": "category",
															"type": "uint24",
															"internalType": "uint24"
														},
														{
															"name": "allowOwnerMint",
															"type": "bool",
															"internalType": "bool"
														},
														{
															"name": "useReserveBeneficiaryAsDefault",
															"type": "bool",
															"internalType": "bool"
														},
														{
															"name": "transfersPausable",
															"type": "bool",
															"internalType": "bool"
														},
														{
															"name": "useVotingUnits",
															"type": "bool",
															"internalType": "bool"
														},
														{
															"name": "cannotBeRemoved",
															"type": "bool",
															"internalType": "bool"
														}
													]
												},
												{
													"name": "currency",
													"type": "uint32",
													"internalType": "uint32"
												},
												{
													"name": "decimals",
													"type": "uint8",
													"internalType": "uint8"
												},
												{
													"name": "prices",
													"type": "address",
													"internalType": "contract IJBPrices"
												}
											]
										},
										{
											"name": "reserveBeneficiary",
											"type": "address",
											"internalType": "address"
										},
										{
											"name": "flags",
											"type": "tuple",
											"internalType": "struct JB721TiersHookFlags",
											"components": [
												{
													"name": "noNewTiersWithReserves",
													"type": "bool",
													"internalType": "bool"
												},
												{
													"name": "noNewTiersWithVotes",
													"type": "bool",
													"internalType": "bool"
												},
												{
													"name": "noNewTiersWithOwnerMinting",
													"type": "bool",
													"internalType": "bool"
												},
												{
													"name": "preventOverspending",
													"type": "bool",
													"internalType": "bool"
												}
											]
										}
									]
								},
								{
									"name": "operatorCanAdjustTiers",
									"type": "bool",
									"internalType": "bool"
								},
								{
									"name": "operatorCanUpdateMetadata",
									"type": "bool",
									"internalType": "bool"
								},
								{
									"name": "operatorCanMint",
									"type": "bool",
									"internalType": "bool"
								}
							]
						},
						{
							"name": "otherPayHooksSpecifications",
							"type": "tuple[]",
							"internalType": "struct JBPayHookSpecification[]",
							"components": [
								{
									"name": "hook",
									"type": "address",
									"internalType": "contract IJBPayHook"
								},
								{
									"name": "amount",
									"type": "uint256",
									"internalType": "uint256"
								},
								{
									"name": "metadata",
									"type": "bytes",
									"internalType": "bytes"
								}
							]
						},
						{
							"name": "extraHookMetadata",
							"type": "uint16",
							"internalType": "uint16"
						},
						{
							"name": "allowedPosts",
							"type": "tuple[]",
							"internalType": "struct REVCroptopAllowedPost[]",
							"components": [
								{
									"name": "category",
									"type": "uint256",
									"internalType": "uint256"
								},
								{
									"name": "minimumPrice",
									"type": "uint256",
									"internalType": "uint256"
								},
								{
									"name": "minimumTotalSupply",
									"type": "uint256",
									"internalType": "uint256"
								},
								{
									"name": "maximumTotalSupply",
									"type": "uint256",
									"internalType": "uint256"
								},
								{
									"name": "allowedAddresses",
									"type": "address[]",
									"internalType": "address[]"
								}
							]
						}
					],
					"outputs": [
						{
							"name": "",
							"type": "uint256",
							"internalType": "uint256"
						},
						{
							"name": "hook",
							"type": "address",
							"internalType": "contract IJB721TiersHook"
						}
					],
					"stateMutability": "nonpayable"
				},
				{
					"type": "function",
					"name": "launchPayHookRevnetFor",
					"inputs": [
						{
							"name": "revnetId",
							"type": "uint256",
							"internalType": "uint256"
						},
						{
							"name": "configuration",
							"type": "tuple",
							"internalType": "struct REVConfig",
							"components": [
								{
									"name": "description",
									"type": "tuple",
									"internalType": "struct REVDescription",
									"components": [
										{
											"name": "name",
											"type": "string",
											"internalType": "string"
										},
										{
											"name": "ticker",
											"type": "string",
											"internalType": "string"
										},
										{
											"name": "uri",
											"type": "string",
											"internalType": "string"
										},
										{
											"name": "salt",
											"type": "bytes32",
											"internalType": "bytes32"
										}
									]
								},
								{
									"name": "baseCurrency",
									"type": "uint32",
									"internalType": "uint32"
								},
								{
									"name": "initialSplitOperator",
									"type": "address",
									"internalType": "address"
								},
								{
									"name": "stageConfigurations",
									"type": "tuple[]",
									"internalType": "struct REVStageConfig[]",
									"components": [
										{
											"name": "startsAtOrAfter",
											"type": "uint40",
											"internalType": "uint40"
										},
										{
											"name": "mintConfigs",
											"type": "tuple[]",
											"internalType": "struct REVMintConfig[]",
											"components": [
												{
													"name": "chainId",
													"type": "uint256",
													"internalType": "uint256"
												},
												{
													"name": "count",
													"type": "uint256",
													"internalType": "uint256"
												},
												{
													"name": "beneficiary",
													"type": "address",
													"internalType": "address"
												}
											]
										},
										{
											"name": "splitRate",
											"type": "uint16",
											"internalType": "uint16"
										},
										{
											"name": "initialIssuanceRate",
											"type": "uint112",
											"internalType": "uint112"
										},
										{
											"name": "priceCeilingIncreaseFrequency",
											"type": "uint40",
											"internalType": "uint40"
										},
										{
											"name": "priceCeilingIncreasePercentage",
											"type": "uint32",
											"internalType": "uint32"
										},
										{
											"name": "priceFloorTaxIntensity",
											"type": "uint16",
											"internalType": "uint16"
										}
									]
								}
							]
						},
						{
							"name": "terminalConfigurations",
							"type": "tuple[]",
							"internalType": "struct JBTerminalConfig[]",
							"components": [
								{
									"name": "terminal",
									"type": "address",
									"internalType": "contract IJBTerminal"
								},
								{
									"name": "tokensToAccept",
									"type": "address[]",
									"internalType": "address[]"
								}
							]
						},
						{
							"name": "buybackHookConfiguration",
							"type": "tuple",
							"internalType": "struct REVBuybackHookConfig",
							"components": [
								{
									"name": "hook",
									"type": "address",
									"internalType": "contract IJBBuybackHook"
								},
								{
									"name": "poolConfigurations",
									"type": "tuple[]",
									"internalType": "struct REVBuybackPoolConfig[]",
									"components": [
										{
											"name": "token",
											"type": "address",
											"internalType": "address"
										},
										{
											"name": "fee",
											"type": "uint24",
											"internalType": "uint24"
										},
										{
											"name": "twapWindow",
											"type": "uint32",
											"internalType": "uint32"
										},
										{
											"name": "twapSlippageTolerance",
											"type": "uint32",
											"internalType": "uint32"
										}
									]
								}
							]
						},
						{
							"name": "suckerDeploymentConfiguration",
							"type": "tuple",
							"internalType": "struct REVSuckerDeploymentConfig",
							"components": [
								{
									"name": "deployerConfigurations",
									"type": "tuple[]",
									"internalType": "struct BPSuckerDeployerConfig[]",
									"components": [
										{
											"name": "deployer",
											"type": "address",
											"internalType": "contract IBPSuckerDeployer"
										},
										{
											"name": "mappings",
											"type": "tuple[]",
											"internalType": "struct BPTokenMapping[]",
											"components": [
												{
													"name": "localToken",
													"type": "address",
													"internalType": "address"
												},
												{
													"name": "minGas",
													"type": "uint32",
													"internalType": "uint32"
												},
												{
													"name": "remoteToken",
													"type": "address",
													"internalType": "address"
												},
												{
													"name": "minBridgeAmount",
													"type": "uint256",
													"internalType": "uint256"
												}
											]
										}
									]
								},
								{
									"name": "salt",
									"type": "bytes32",
									"internalType": "bytes32"
								}
							]
						},
						{
							"name": "payHookSpecifications",
							"type": "tuple[]",
							"internalType": "struct JBPayHookSpecification[]",
							"components": [
								{
									"name": "hook",
									"type": "address",
									"internalType": "contract IJBPayHook"
								},
								{
									"name": "amount",
									"type": "uint256",
									"internalType": "uint256"
								},
								{
									"name": "metadata",
									"type": "bytes",
									"internalType": "bytes"
								}
							]
						},
						{
							"name": "extraHookMetadata",
							"type": "uint16",
							"internalType": "uint16"
						}
					],
					"outputs": [
						{
							"name": "",
							"type": "uint256",
							"internalType": "uint256"
						}
					],
					"stateMutability": "nonpayable"
				},
				{
					"type": "function",
					"name": "launchRevnetFor",
					"inputs": [
						{
							"name": "revnetId",
							"type": "uint256",
							"internalType": "uint256"
						},
						{
							"name": "configuration",
							"type": "tuple",
							"internalType": "struct REVConfig",
							"components": [
								{
									"name": "description",
									"type": "tuple",
									"internalType": "struct REVDescription",
									"components": [
										{
											"name": "name",
											"type": "string",
											"internalType": "string"
										},
										{
											"name": "ticker",
											"type": "string",
											"internalType": "string"
										},
										{
											"name": "uri",
											"type": "string",
											"internalType": "string"
										},
										{
											"name": "salt",
											"type": "bytes32",
											"internalType": "bytes32"
										}
									]
								},
								{
									"name": "baseCurrency",
									"type": "uint32",
									"internalType": "uint32"
								},
								{
									"name": "initialSplitOperator",
									"type": "address",
									"internalType": "address"
								},
								{
									"name": "stageConfigurations",
									"type": "tuple[]",
									"internalType": "struct REVStageConfig[]",
									"components": [
										{
											"name": "startsAtOrAfter",
											"type": "uint40",
											"internalType": "uint40"
										},
										{
											"name": "mintConfigs",
											"type": "tuple[]",
											"internalType": "struct REVMintConfig[]",
											"components": [
												{
													"name": "chainId",
													"type": "uint256",
													"internalType": "uint256"
												},
												{
													"name": "count",
													"type": "uint256",
													"internalType": "uint256"
												},
												{
													"name": "beneficiary",
													"type": "address",
													"internalType": "address"
												}
											]
										},
										{
											"name": "splitRate",
											"type": "uint16",
											"internalType": "uint16"
										},
										{
											"name": "initialIssuanceRate",
											"type": "uint112",
											"internalType": "uint112"
										},
										{
											"name": "priceCeilingIncreaseFrequency",
											"type": "uint40",
											"internalType": "uint40"
										},
										{
											"name": "priceCeilingIncreasePercentage",
											"type": "uint32",
											"internalType": "uint32"
										},
										{
											"name": "priceFloorTaxIntensity",
											"type": "uint16",
											"internalType": "uint16"
										}
									]
								}
							]
						},
						{
							"name": "terminalConfigurations",
							"type": "tuple[]",
							"internalType": "struct JBTerminalConfig[]",
							"components": [
								{
									"name": "terminal",
									"type": "address",
									"internalType": "contract IJBTerminal"
								},
								{
									"name": "tokensToAccept",
									"type": "address[]",
									"internalType": "address[]"
								}
							]
						},
						{
							"name": "buybackHookConfiguration",
							"type": "tuple",
							"internalType": "struct REVBuybackHookConfig",
							"components": [
								{
									"name": "hook",
									"type": "address",
									"internalType": "contract IJBBuybackHook"
								},
								{
									"name": "poolConfigurations",
									"type": "tuple[]",
									"internalType": "struct REVBuybackPoolConfig[]",
									"components": [
										{
											"name": "token",
											"type": "address",
											"internalType": "address"
										},
										{
											"name": "fee",
											"type": "uint24",
											"internalType": "uint24"
										},
										{
											"name": "twapWindow",
											"type": "uint32",
											"internalType": "uint32"
										},
										{
											"name": "twapSlippageTolerance",
											"type": "uint32",
											"internalType": "uint32"
										}
									]
								}
							]
						},
						{
							"name": "suckerDeploymentConfiguration",
							"type": "tuple",
							"internalType": "struct REVSuckerDeploymentConfig",
							"components": [
								{
									"name": "deployerConfigurations",
									"type": "tuple[]",
									"internalType": "struct BPSuckerDeployerConfig[]",
									"components": [
										{
											"name": "deployer",
											"type": "address",
											"internalType": "contract IBPSuckerDeployer"
										},
										{
											"name": "mappings",
											"type": "tuple[]",
											"internalType": "struct BPTokenMapping[]",
											"components": [
												{
													"name": "localToken",
													"type": "address",
													"internalType": "address"
												},
												{
													"name": "minGas",
													"type": "uint32",
													"internalType": "uint32"
												},
												{
													"name": "remoteToken",
													"type": "address",
													"internalType": "address"
												},
												{
													"name": "minBridgeAmount",
													"type": "uint256",
													"internalType": "uint256"
												}
											]
										}
									]
								},
								{
									"name": "salt",
									"type": "bytes32",
									"internalType": "bytes32"
								}
							]
						}
					],
					"outputs": [
						{
							"name": "",
							"type": "uint256",
							"internalType": "uint256"
						}
					],
					"stateMutability": "nonpayable"
				},
				{
					"type": "function",
					"name": "launchTiered721RevnetFor",
					"inputs": [
						{
							"name": "revnetId",
							"type": "uint256",
							"internalType": "uint256"
						},
						{
							"name": "configuration",
							"type": "tuple",
							"internalType": "struct REVConfig",
							"components": [
								{
									"name": "description",
									"type": "tuple",
									"internalType": "struct REVDescription",
									"components": [
										{
											"name": "name",
											"type": "string",
											"internalType": "string"
										},
										{
											"name": "ticker",
											"type": "string",
											"internalType": "string"
										},
										{
											"name": "uri",
											"type": "string",
											"internalType": "string"
										},
										{
											"name": "salt",
											"type": "bytes32",
											"internalType": "bytes32"
										}
									]
								},
								{
									"name": "baseCurrency",
									"type": "uint32",
									"internalType": "uint32"
								},
								{
									"name": "initialSplitOperator",
									"type": "address",
									"internalType": "address"
								},
								{
									"name": "stageConfigurations",
									"type": "tuple[]",
									"internalType": "struct REVStageConfig[]",
									"components": [
										{
											"name": "startsAtOrAfter",
											"type": "uint40",
											"internalType": "uint40"
										},
										{
											"name": "mintConfigs",
											"type": "tuple[]",
											"internalType": "struct REVMintConfig[]",
											"components": [
												{
													"name": "chainId",
													"type": "uint256",
													"internalType": "uint256"
												},
												{
													"name": "count",
													"type": "uint256",
													"internalType": "uint256"
												},
												{
													"name": "beneficiary",
													"type": "address",
													"internalType": "address"
												}
											]
										},
										{
											"name": "splitRate",
											"type": "uint16",
											"internalType": "uint16"
										},
										{
											"name": "initialIssuanceRate",
											"type": "uint112",
											"internalType": "uint112"
										},
										{
											"name": "priceCeilingIncreaseFrequency",
											"type": "uint40",
											"internalType": "uint40"
										},
										{
											"name": "priceCeilingIncreasePercentage",
											"type": "uint32",
											"internalType": "uint32"
										},
										{
											"name": "priceFloorTaxIntensity",
											"type": "uint16",
											"internalType": "uint16"
										}
									]
								}
							]
						},
						{
							"name": "terminalConfigurations",
							"type": "tuple[]",
							"internalType": "struct JBTerminalConfig[]",
							"components": [
								{
									"name": "terminal",
									"type": "address",
									"internalType": "contract IJBTerminal"
								},
								{
									"name": "tokensToAccept",
									"type": "address[]",
									"internalType": "address[]"
								}
							]
						},
						{
							"name": "buybackHookConfiguration",
							"type": "tuple",
							"internalType": "struct REVBuybackHookConfig",
							"components": [
								{
									"name": "hook",
									"type": "address",
									"internalType": "contract IJBBuybackHook"
								},
								{
									"name": "poolConfigurations",
									"type": "tuple[]",
									"internalType": "struct REVBuybackPoolConfig[]",
									"components": [
										{
											"name": "token",
											"type": "address",
											"internalType": "address"
										},
										{
											"name": "fee",
											"type": "uint24",
											"internalType": "uint24"
										},
										{
											"name": "twapWindow",
											"type": "uint32",
											"internalType": "uint32"
										},
										{
											"name": "twapSlippageTolerance",
											"type": "uint32",
											"internalType": "uint32"
										}
									]
								}
							]
						},
						{
							"name": "suckerDeploymentConfiguration",
							"type": "tuple",
							"internalType": "struct REVSuckerDeploymentConfig",
							"components": [
								{
									"name": "deployerConfigurations",
									"type": "tuple[]",
									"internalType": "struct BPSuckerDeployerConfig[]",
									"components": [
										{
											"name": "deployer",
											"type": "address",
											"internalType": "contract IBPSuckerDeployer"
										},
										{
											"name": "mappings",
											"type": "tuple[]",
											"internalType": "struct BPTokenMapping[]",
											"components": [
												{
													"name": "localToken",
													"type": "address",
													"internalType": "address"
												},
												{
													"name": "minGas",
													"type": "uint32",
													"internalType": "uint32"
												},
												{
													"name": "remoteToken",
													"type": "address",
													"internalType": "address"
												},
												{
													"name": "minBridgeAmount",
													"type": "uint256",
													"internalType": "uint256"
												}
											]
										}
									]
								},
								{
									"name": "salt",
									"type": "bytes32",
									"internalType": "bytes32"
								}
							]
						},
						{
							"name": "hookConfiguration",
							"type": "tuple",
							"internalType": "struct REVDeploy721TiersHookConfig",
							"components": [
								{
									"name": "baseline721HookConfiguration",
									"type": "tuple",
									"internalType": "struct JBDeploy721TiersHookConfig",
									"components": [
										{
											"name": "name",
											"type": "string",
											"internalType": "string"
										},
										{
											"name": "symbol",
											"type": "string",
											"internalType": "string"
										},
										{
											"name": "rulesets",
											"type": "address",
											"internalType": "contract IJBRulesets"
										},
										{
											"name": "baseUri",
											"type": "string",
											"internalType": "string"
										},
										{
											"name": "tokenUriResolver",
											"type": "address",
											"internalType": "contract IJB721TokenUriResolver"
										},
										{
											"name": "contractUri",
											"type": "string",
											"internalType": "string"
										},
										{
											"name": "tiersConfig",
											"type": "tuple",
											"internalType": "struct JB721InitTiersConfig",
											"components": [
												{
													"name": "tiers",
													"type": "tuple[]",
													"internalType": "struct JB721TierConfig[]",
													"components": [
														{
															"name": "price",
															"type": "uint104",
															"internalType": "uint104"
														},
														{
															"name": "initialSupply",
															"type": "uint32",
															"internalType": "uint32"
														},
														{
															"name": "votingUnits",
															"type": "uint32",
															"internalType": "uint32"
														},
														{
															"name": "reserveFrequency",
															"type": "uint16",
															"internalType": "uint16"
														},
														{
															"name": "reserveBeneficiary",
															"type": "address",
															"internalType": "address"
														},
														{
															"name": "encodedIPFSUri",
															"type": "bytes32",
															"internalType": "bytes32"
														},
														{
															"name": "category",
															"type": "uint24",
															"internalType": "uint24"
														},
														{
															"name": "allowOwnerMint",
															"type": "bool",
															"internalType": "bool"
														},
														{
															"name": "useReserveBeneficiaryAsDefault",
															"type": "bool",
															"internalType": "bool"
														},
														{
															"name": "transfersPausable",
															"type": "bool",
															"internalType": "bool"
														},
														{
															"name": "useVotingUnits",
															"type": "bool",
															"internalType": "bool"
														},
														{
															"name": "cannotBeRemoved",
															"type": "bool",
															"internalType": "bool"
														}
													]
												},
												{
													"name": "currency",
													"type": "uint32",
													"internalType": "uint32"
												},
												{
													"name": "decimals",
													"type": "uint8",
													"internalType": "uint8"
												},
												{
													"name": "prices",
													"type": "address",
													"internalType": "contract IJBPrices"
												}
											]
										},
										{
											"name": "reserveBeneficiary",
											"type": "address",
											"internalType": "address"
										},
										{
											"name": "flags",
											"type": "tuple",
											"internalType": "struct JB721TiersHookFlags",
											"components": [
												{
													"name": "noNewTiersWithReserves",
													"type": "bool",
													"internalType": "bool"
												},
												{
													"name": "noNewTiersWithVotes",
													"type": "bool",
													"internalType": "bool"
												},
												{
													"name": "noNewTiersWithOwnerMinting",
													"type": "bool",
													"internalType": "bool"
												},
												{
													"name": "preventOverspending",
													"type": "bool",
													"internalType": "bool"
												}
											]
										}
									]
								},
								{
									"name": "operatorCanAdjustTiers",
									"type": "bool",
									"internalType": "bool"
								},
								{
									"name": "operatorCanUpdateMetadata",
									"type": "bool",
									"internalType": "bool"
								},
								{
									"name": "operatorCanMint",
									"type": "bool",
									"internalType": "bool"
								}
							]
						},
						{
							"name": "otherPayHooksSpecifications",
							"type": "tuple[]",
							"internalType": "struct JBPayHookSpecification[]",
							"components": [
								{
									"name": "hook",
									"type": "address",
									"internalType": "contract IJBPayHook"
								},
								{
									"name": "amount",
									"type": "uint256",
									"internalType": "uint256"
								},
								{
									"name": "metadata",
									"type": "bytes",
									"internalType": "bytes"
								}
							]
						},
						{
							"name": "extraHookMetadata",
							"type": "uint16",
							"internalType": "uint16"
						}
					],
					"outputs": [
						{
							"name": "",
							"type": "uint256",
							"internalType": "uint256"
						},
						{
							"name": "hook",
							"type": "address",
							"internalType": "contract IJB721TiersHook"
						}
					],
					"stateMutability": "nonpayable"
				},
				{
					"type": "function",
					"name": "mintFor",
					"inputs": [
						{
							"name": "revnetId",
							"type": "uint256",
							"internalType": "uint256"
						},
						{
							"name": "stageId",
							"type": "uint256",
							"internalType": "uint256"
						},
						{
							"name": "beneficiary",
							"type": "address",
							"internalType": "address"
						}
					],
					"outputs": [],
					"stateMutability": "nonpayable"
				},
				{
					"type": "function",
					"name": "onERC721Received",
					"inputs": [
						{
							"name": "operator",
							"type": "address",
							"internalType": "address"
						},
						{
							"name": "",
							"type": "address",
							"internalType": "address"
						},
						{
							"name": "tokenId",
							"type": "uint256",
							"internalType": "uint256"
						},
						{
							"name": "data",
							"type": "bytes",
							"internalType": "bytes"
						}
					],
					"outputs": [
						{
							"name": "",
							"type": "bytes4",
							"internalType": "bytes4"
						}
					],
					"stateMutability": "view"
				},
				{
					"type": "function",
					"name": "payHookSpecificationsOf",
					"inputs": [
						{
							"name": "revnetId",
							"type": "uint256",
							"internalType": "uint256"
						}
					],
					"outputs": [
						{
							"name": "",
							"type": "tuple[]",
							"internalType": "struct JBPayHookSpecification[]",
							"components": [
								{
									"name": "hook",
									"type": "address",
									"internalType": "contract IJBPayHook"
								},
								{
									"name": "amount",
									"type": "uint256",
									"internalType": "uint256"
								},
								{
									"name": "metadata",
									"type": "bytes",
									"internalType": "bytes"
								}
							]
						}
					],
					"stateMutability": "view"
				},
				{
					"type": "function",
					"name": "replaceSplitOperatorOf",
					"inputs": [
						{
							"name": "revnetId",
							"type": "uint256",
							"internalType": "uint256"
						},
						{
							"name": "newSplitOperator",
							"type": "address",
							"internalType": "address"
						}
					],
					"outputs": [],
					"stateMutability": "nonpayable"
				},
				{
					"type": "function",
					"name": "supportsInterface",
					"inputs": [
						{
							"name": "interfaceId",
							"type": "bytes4",
							"internalType": "bytes4"
						}
					],
					"outputs": [
						{
							"name": "",
							"type": "bool",
							"internalType": "bool"
						}
					],
					"stateMutability": "view"
				},
				{
					"type": "function",
					"name": "trustedForwarder",
					"inputs": [],
					"outputs": [
						{
							"name": "",
							"type": "address",
							"internalType": "address"
						}
					],
					"stateMutability": "view"
				},
				{
					"type": "event",
					"name": "DeployRevnet",
					"inputs": [
						{
							"name": "revnetId",
							"type": "uint256",
							"indexed": true,
							"internalType": "uint256"
						},
						{
							"name": "configuration",
							"type": "tuple",
							"indexed": false,
							"internalType": "struct REVConfig",
							"components": [
								{
									"name": "description",
									"type": "tuple",
									"internalType": "struct REVDescription",
									"components": [
										{
											"name": "name",
											"type": "string",
											"internalType": "string"
										},
										{
											"name": "ticker",
											"type": "string",
											"internalType": "string"
										},
										{
											"name": "uri",
											"type": "string",
											"internalType": "string"
										},
										{
											"name": "salt",
											"type": "bytes32",
											"internalType": "bytes32"
										}
									]
								},
								{
									"name": "baseCurrency",
									"type": "uint32",
									"internalType": "uint32"
								},
								{
									"name": "initialSplitOperator",
									"type": "address",
									"internalType": "address"
								},
								{
									"name": "stageConfigurations",
									"type": "tuple[]",
									"internalType": "struct REVStageConfig[]",
									"components": [
										{
											"name": "startsAtOrAfter",
											"type": "uint40",
											"internalType": "uint40"
										},
										{
											"name": "mintConfigs",
											"type": "tuple[]",
											"internalType": "struct REVMintConfig[]",
											"components": [
												{
													"name": "chainId",
													"type": "uint256",
													"internalType": "uint256"
												},
												{
													"name": "count",
													"type": "uint256",
													"internalType": "uint256"
												},
												{
													"name": "beneficiary",
													"type": "address",
													"internalType": "address"
												}
											]
										},
										{
											"name": "splitRate",
											"type": "uint16",
											"internalType": "uint16"
										},
										{
											"name": "initialIssuanceRate",
											"type": "uint112",
											"internalType": "uint112"
										},
										{
											"name": "priceCeilingIncreaseFrequency",
											"type": "uint40",
											"internalType": "uint40"
										},
										{
											"name": "priceCeilingIncreasePercentage",
											"type": "uint32",
											"internalType": "uint32"
										},
										{
											"name": "priceFloorTaxIntensity",
											"type": "uint16",
											"internalType": "uint16"
										}
									]
								}
							]
						},
						{
							"name": "terminalConfigurations",
							"type": "tuple[]",
							"indexed": false,
							"internalType": "struct JBTerminalConfig[]",
							"components": [
								{
									"name": "terminal",
									"type": "address",
									"internalType": "contract IJBTerminal"
								},
								{
									"name": "tokensToAccept",
									"type": "address[]",
									"internalType": "address[]"
								}
							]
						},
						{
							"name": "buybackHookConfiguration",
							"type": "tuple",
							"indexed": false,
							"internalType": "struct REVBuybackHookConfig",
							"components": [
								{
									"name": "hook",
									"type": "address",
									"internalType": "contract IJBBuybackHook"
								},
								{
									"name": "poolConfigurations",
									"type": "tuple[]",
									"internalType": "struct REVBuybackPoolConfig[]",
									"components": [
										{
											"name": "token",
											"type": "address",
											"internalType": "address"
										},
										{
											"name": "fee",
											"type": "uint24",
											"internalType": "uint24"
										},
										{
											"name": "twapWindow",
											"type": "uint32",
											"internalType": "uint32"
										},
										{
											"name": "twapSlippageTolerance",
											"type": "uint32",
											"internalType": "uint32"
										}
									]
								}
							]
						},
						{
							"name": "suckerDeploymentConfiguration",
							"type": "tuple",
							"indexed": false,
							"internalType": "struct REVSuckerDeploymentConfig",
							"components": [
								{
									"name": "deployerConfigurations",
									"type": "tuple[]",
									"internalType": "struct BPSuckerDeployerConfig[]",
									"components": [
										{
											"name": "deployer",
											"type": "address",
											"internalType": "contract IBPSuckerDeployer"
										},
										{
											"name": "mappings",
											"type": "tuple[]",
											"internalType": "struct BPTokenMapping[]",
											"components": [
												{
													"name": "localToken",
													"type": "address",
													"internalType": "address"
												},
												{
													"name": "minGas",
													"type": "uint32",
													"internalType": "uint32"
												},
												{
													"name": "remoteToken",
													"type": "address",
													"internalType": "address"
												},
												{
													"name": "minBridgeAmount",
													"type": "uint256",
													"internalType": "uint256"
												}
											]
										}
									]
								},
								{
									"name": "salt",
									"type": "bytes32",
									"internalType": "bytes32"
								}
							]
						},
						{
							"name": "rulesetConfigurations",
							"type": "tuple[]",
							"indexed": false,
							"internalType": "struct JBRulesetConfig[]",
							"components": [
								{
									"name": "mustStartAtOrAfter",
									"type": "uint256",
									"internalType": "uint256"
								},
								{
									"name": "duration",
									"type": "uint256",
									"internalType": "uint256"
								},
								{
									"name": "weight",
									"type": "uint256",
									"internalType": "uint256"
								},
								{
									"name": "decayRate",
									"type": "uint256",
									"internalType": "uint256"
								},
								{
									"name": "approvalHook",
									"type": "address",
									"internalType": "contract IJBRulesetApprovalHook"
								},
								{
									"name": "metadata",
									"type": "tuple",
									"internalType": "struct JBRulesetMetadata",
									"components": [
										{
											"name": "reservedRate",
											"type": "uint256",
											"internalType": "uint256"
										},
										{
											"name": "redemptionRate",
											"type": "uint256",
											"internalType": "uint256"
										},
										{
											"name": "baseCurrency",
											"type": "uint256",
											"internalType": "uint256"
										},
										{
											"name": "pausePay",
											"type": "bool",
											"internalType": "bool"
										},
										{
											"name": "pauseCreditTransfers",
											"type": "bool",
											"internalType": "bool"
										},
										{
											"name": "allowOwnerMinting",
											"type": "bool",
											"internalType": "bool"
										},
										{
											"name": "allowSetCustomToken",
											"type": "bool",
											"internalType": "bool"
										},
										{
											"name": "allowTerminalMigration",
											"type": "bool",
											"internalType": "bool"
										},
										{
											"name": "allowSetTerminals",
											"type": "bool",
											"internalType": "bool"
										},
										{
											"name": "allowControllerMigration",
											"type": "bool",
											"internalType": "bool"
										},
										{
											"name": "allowSetController",
											"type": "bool",
											"internalType": "bool"
										},
										{
											"name": "holdFees",
											"type": "bool",
											"internalType": "bool"
										},
										{
											"name": "useTotalSurplusForRedemptions",
											"type": "bool",
											"internalType": "bool"
										},
										{
											"name": "useDataHookForPay",
											"type": "bool",
											"internalType": "bool"
										},
										{
											"name": "useDataHookForRedeem",
											"type": "bool",
											"internalType": "bool"
										},
										{
											"name": "dataHook",
											"type": "address",
											"internalType": "address"
										},
										{
											"name": "metadata",
											"type": "uint256",
											"internalType": "uint256"
										}
									]
								},
								{
									"name": "splitGroups",
									"type": "tuple[]",
									"internalType": "struct JBSplitGroup[]",
									"components": [
										{
											"name": "groupId",
											"type": "uint256",
											"internalType": "uint256"
										},
										{
											"name": "splits",
											"type": "tuple[]",
											"internalType": "struct JBSplit[]",
											"components": [
												{
													"name": "preferAddToBalance",
													"type": "bool",
													"internalType": "bool"
												},
												{
													"name": "percent",
													"type": "uint256",
													"internalType": "uint256"
												},
												{
													"name": "projectId",
													"type": "uint256",
													"internalType": "uint256"
												},
												{
													"name": "beneficiary",
													"type": "address",
													"internalType": "address payable"
												},
												{
													"name": "lockedUntil",
													"type": "uint256",
													"internalType": "uint256"
												},
												{
													"name": "hook",
													"type": "address",
													"internalType": "contract IJBSplitHook"
												}
											]
										}
									]
								},
								{
									"name": "fundAccessLimitGroups",
									"type": "tuple[]",
									"internalType": "struct JBFundAccessLimitGroup[]",
									"components": [
										{
											"name": "terminal",
											"type": "address",
											"internalType": "address"
										},
										{
											"name": "token",
											"type": "address",
											"internalType": "address"
										},
										{
											"name": "payoutLimits",
											"type": "tuple[]",
											"internalType": "struct JBCurrencyAmount[]",
											"components": [
												{
													"name": "amount",
													"type": "uint256",
													"internalType": "uint256"
												},
												{
													"name": "currency",
													"type": "uint256",
													"internalType": "uint256"
												}
											]
										},
										{
											"name": "surplusAllowances",
											"type": "tuple[]",
											"internalType": "struct JBCurrencyAmount[]",
											"components": [
												{
													"name": "amount",
													"type": "uint256",
													"internalType": "uint256"
												},
												{
													"name": "currency",
													"type": "uint256",
													"internalType": "uint256"
												}
											]
										}
									]
								}
							]
						},
						{
							"name": "encodedConfiguration",
							"type": "bytes",
							"indexed": false,
							"internalType": "bytes"
						},
						{
							"name": "isInProgress",
							"type": "bool",
							"indexed": false,
							"internalType": "bool"
						},
						{
							"name": "caller",
							"type": "address",
							"indexed": false,
							"internalType": "address"
						}
					],
					"anonymous": false
				},
				{
					"type": "event",
					"name": "DeploySuckers",
					"inputs": [
						{
							"name": "revnetId",
							"type": "uint256",
							"indexed": true,
							"internalType": "uint256"
						},
						{
							"name": "salt",
							"type": "bytes32",
							"indexed": true,
							"internalType": "bytes32"
						},
						{
							"name": "encodedConfiguration",
							"type": "bytes",
							"indexed": false,
							"internalType": "bytes"
						},
						{
							"name": "suckerDeploymentConfiguration",
							"type": "tuple",
							"indexed": false,
							"internalType": "struct REVSuckerDeploymentConfig",
							"components": [
								{
									"name": "deployerConfigurations",
									"type": "tuple[]",
									"internalType": "struct BPSuckerDeployerConfig[]",
									"components": [
										{
											"name": "deployer",
											"type": "address",
											"internalType": "contract IBPSuckerDeployer"
										},
										{
											"name": "mappings",
											"type": "tuple[]",
											"internalType": "struct BPTokenMapping[]",
											"components": [
												{
													"name": "localToken",
													"type": "address",
													"internalType": "address"
												},
												{
													"name": "minGas",
													"type": "uint32",
													"internalType": "uint32"
												},
												{
													"name": "remoteToken",
													"type": "address",
													"internalType": "address"
												},
												{
													"name": "minBridgeAmount",
													"type": "uint256",
													"internalType": "uint256"
												}
											]
										}
									]
								},
								{
									"name": "salt",
									"type": "bytes32",
									"internalType": "bytes32"
								}
							]
						},
						{
							"name": "caller",
							"type": "address",
							"indexed": false,
							"internalType": "address"
						}
					],
					"anonymous": false
				},
				{
					"type": "event",
					"name": "Mint",
					"inputs": [
						{
							"name": "revnetId",
							"type": "uint256",
							"indexed": true,
							"internalType": "uint256"
						},
						{
							"name": "stageId",
							"type": "uint256",
							"indexed": true,
							"internalType": "uint256"
						},
						{
							"name": "beneficiary",
							"type": "address",
							"indexed": true,
							"internalType": "address"
						},
						{
							"name": "count",
							"type": "uint256",
							"indexed": false,
							"internalType": "uint256"
						},
						{
							"name": "caller",
							"type": "address",
							"indexed": false,
							"internalType": "address"
						}
					],
					"anonymous": false
				},
				{
					"type": "event",
					"name": "ReplaceSplitOperator",
					"inputs": [
						{
							"name": "revnetId",
							"type": "uint256",
							"indexed": true,
							"internalType": "uint256"
						},
						{
							"name": "newSplitOperator",
							"type": "address",
							"indexed": true,
							"internalType": "address"
						},
						{
							"name": "caller",
							"type": "address",
							"indexed": false,
							"internalType": "address"
						}
					],
					"anonymous": false
				},
				{
					"type": "event",
					"name": "StoreMintPotential",
					"inputs": [
						{
							"name": "revnetId",
							"type": "uint256",
							"indexed": true,
							"internalType": "uint256"
						},
						{
							"name": "stageId",
							"type": "uint256",
							"indexed": true,
							"internalType": "uint256"
						},
						{
							"name": "beneficiary",
							"type": "address",
							"indexed": true,
							"internalType": "address"
						},
						{
							"name": "count",
							"type": "uint256",
							"indexed": false,
							"internalType": "uint256"
						},
						{
							"name": "caller",
							"type": "address",
							"indexed": false,
							"internalType": "address"
						}
					],
					"anonymous": false
				},
				{
					"type": "event",
					"name": "StoredPayHookSpecifications",
					"inputs": [
						{
							"name": "revnetId",
							"type": "uint256",
							"indexed": true,
							"internalType": "uint256"
						},
						{
							"name": "payHookSpecifications",
							"type": "tuple[]",
							"indexed": false,
							"internalType": "struct JBPayHookSpecification[]",
							"components": [
								{
									"name": "hook",
									"type": "address",
									"internalType": "contract IJBPayHook"
								},
								{
									"name": "amount",
									"type": "uint256",
									"internalType": "uint256"
								},
								{
									"name": "metadata",
									"type": "bytes",
									"internalType": "bytes"
								}
							]
						},
						{
							"name": "caller",
							"type": "address",
							"indexed": false,
							"internalType": "address"
						}
					],
					"anonymous": false
				},
				{
					"type": "error",
					"name": "REVBasicDeployer_BadStageTimes",
					"inputs": []
				},
				{
					"type": "error",
					"name": "REVBasicDeployer_ExitDelayInEffect",
					"inputs": []
				},
				{
					"type": "error",
					"name": "REVBasicDeployer_StageNotStarted",
					"inputs": []
				},
				{
					"type": "error",
					"name": "REVBasicDeployer_Unauthorized",
					"inputs": []
				}
			],
			"solcInputHash": "f51251c67d61cb866f4bae0638fb202e",
			"receipt": {
				"blockHash": "0x6e48eaf54aefa5ac8b3c8e7e687d822c2b827152f2454c16f096d8d54f1acd7b",
				"blockNumber": 10843186,
				"contractAddress": null,
				"cumulativeGasUsed": "10563120",
				"from": "0xC034550B542b83BA1De312b21d1C94a9a52B1595",
				"gasPrice": "1000254",
				"gasUsed": "10159263",
				"hash": "0x3bf1640c574262a4abaf143ca55b4ea017ea5e5ab0a3413e2b1ddbea266b25c3",
				"index": 5,
				"logs": [
					{
						"address": "0xB5E96127D417b1B3ef8438496a38A143167209c7",
						"blockHash": "0x6e48eaf54aefa5ac8b3c8e7e687d822c2b827152f2454c16f096d8d54f1acd7b",
						"blockNumber": 10843186,
						"data": "0x0000000000000000000000000000000000000000000000000000000000000000",
						"index": 4,
						"topics": [
							"0x572f161235911da04685a68c06adf558fc7e4a36909dca394650e0adc19cc93d",
							"0x000000000000000000000000c034550b542b83ba1de312b21d1c94a9a52b1595",
							"0x00000000000000000000000018ed911dda49f125bbadd71f826f1cda550f20fe",
							"0x3b2ac8bbfab307063d9956e154abec4a5c51b37bd46ddb34ebd64d55e1c60dc0"
						],
						"transactionHash": "0x3bf1640c574262a4abaf143ca55b4ea017ea5e5ab0a3413e2b1ddbea266b25c3",
						"transactionIndex": 5
					},
					{
						"address": "0x15B51C7D9DBc4681e54f8b493187C9a2377bd81B",
						"blockHash": "0x6e48eaf54aefa5ac8b3c8e7e687d822c2b827152f2454c16f096d8d54f1acd7b",
						"blockNumber": 10843186,
						"data": "0x",
						"index": 5,
						"topics": [
							"0x6895c13664aa4f67288b25d7a21d7aaa34916e355fb9b6fae0a139a9085becb8",
							"0x00000000000000000000000018ed911dda49f125bbadd71f826f1cda550f20fe"
						],
						"transactionHash": "0x3bf1640c574262a4abaf143ca55b4ea017ea5e5ab0a3413e2b1ddbea266b25c3",
						"transactionIndex": 5
					},
					{
						"address": "0x18Ed911ddA49f125bbadd71f826F1cDa550f20fE",
						"blockHash": "0x6e48eaf54aefa5ac8b3c8e7e687d822c2b827152f2454c16f096d8d54f1acd7b",
						"blockNumber": 10843186,
						"data": "0x0000000000000000000000000000000000000000000000000000000000000001",
						"index": 6,
						"topics": [
							"0xa65fb05c5808f5f389d72edeaf719ce38f4cc55c1f69ca3cbfb31c21501caa07",
							"0x316ebe6ea50e2e7d62ac2d322d5c260101785d368b145326e2fe16ff1b8d397c"
						],
						"transactionHash": "0x3bf1640c574262a4abaf143ca55b4ea017ea5e5ab0a3413e2b1ddbea266b25c3",
						"transactionIndex": 5
					},
					{
						"address": "0x15B51C7D9DBc4681e54f8b493187C9a2377bd81B",
						"blockHash": "0x6e48eaf54aefa5ac8b3c8e7e687d822c2b827152f2454c16f096d8d54f1acd7b",
						"blockNumber": 10843186,
						"data": "0x",
						"index": 7,
						"topics": [
							"0x6895c13664aa4f67288b25d7a21d7aaa34916e355fb9b6fae0a139a9085becb8",
							"0x00000000000000000000000018ed911dda49f125bbadd71f826f1cda550f20fe"
						],
						"transactionHash": "0x3bf1640c574262a4abaf143ca55b4ea017ea5e5ab0a3413e2b1ddbea266b25c3",
						"transactionIndex": 5
					},
					{
						"address": "0x18Ed911ddA49f125bbadd71f826F1cDa550f20fE",
						"blockHash": "0x6e48eaf54aefa5ac8b3c8e7e687d822c2b827152f2454c16f096d8d54f1acd7b",
						"blockNumber": 10843186,
						"data": "0x0000000000000000000000000000000000000000000000000000000000000002",
						"index": 8,
						"topics": [
							"0xa65fb05c5808f5f389d72edeaf719ce38f4cc55c1f69ca3cbfb31c21501caa07",
							"0x316ebe6ea50e2e7d62ac2d322d5c260101785d368b145326e2fe16ff1b8d397c"
						],
						"transactionHash": "0x3bf1640c574262a4abaf143ca55b4ea017ea5e5ab0a3413e2b1ddbea266b25c3",
						"transactionIndex": 5
					},
					{
						"address": "0x18Ed911ddA49f125bbadd71f826F1cDa550f20fE",
						"blockHash": "0x6e48eaf54aefa5ac8b3c8e7e687d822c2b827152f2454c16f096d8d54f1acd7b",
						"blockNumber": 10843186,
						"data": "0x",
						"index": 9,
						"topics": [
							"0x4383d976757d67ca920616be0b6430a681ea9d3dcce8d6d61d4603ca4a9bff63",
							"0x316ebe6ea50e2e7d62ac2d322d5c260101785d368b145326e2fe16ff1b8d397c"
						],
						"transactionHash": "0x3bf1640c574262a4abaf143ca55b4ea017ea5e5ab0a3413e2b1ddbea266b25c3",
						"transactionIndex": 5
					}
				],
				"logsBloom": "0x00000000080010001000000000080000000000000008000200000000004000000000000000000000000000001040000000000004000004000000000000000000100000000000200000000000000000000000000000000000000000000000000000000000000000000000000000100000000000000000000000000000000008000000000000000000000100000000000000000000000000000000008000000004004000800010000000000000000001020200000000000000000000000044000000000000000000000000000008000000000000000000000000000000000000010000000000000048200000000000000200000000000000000000000008000000",
				"status": 1,
				"to": "0xB5E96127D417b1B3ef8438496a38A143167209c7"
			},
			"metadata": "{\"compiler\":{\"version\":\"0.8.23+commit.f704f362\"},\"language\":\"Solidity\",\"output\":{\"abi\":[{\"inputs\":[{\"internalType\":\"contract IJBController\",\"name\":\"controller\",\"type\":\"address\"},{\"internalType\":\"contract IBPSuckerRegistry\",\"name\":\"suckerRegistry\",\"type\":\"address\"},{\"internalType\":\"address\",\"name\":\"trustedForwarder\",\"type\":\"address\"},{\"internalType\":\"contract IJB721TiersHookDeployer\",\"name\":\"hookDeployer\",\"type\":\"address\"},{\"internalType\":\"contract CTPublisher\",\"name\":\"publisher\",\"type\":\"address\"}],\"stateMutability\":\"nonpayable\",\"type\":\"constructor\"},{\"inputs\":[],\"type\":\"error\",\"name\":\"REVBasicDeployer_BadStageTimes\"},{\"inputs\":[],\"type\":\"error\",\"name\":\"REVBasicDeployer_ExitDelayInEffect\"},{\"inputs\":[],\"type\":\"error\",\"name\":\"REVBasicDeployer_StageNotStarted\"},{\"inputs\":[],\"type\":\"error\",\"name\":\"REVBasicDeployer_Unauthorized\"},{\"inputs\":[{\"internalType\":\"uint256\",\"name\":\"revnetId\",\"type\":\"uint256\",\"indexed\":true},{\"internalType\":\"struct REVConfig\",\"name\":\"configuration\",\"type\":\"tuple\",\"components\":[{\"internalType\":\"struct REVDescription\",\"name\":\"description\",\"type\":\"tuple\",\"components\":[{\"internalType\":\"string\",\"name\":\"name\",\"type\":\"string\"},{\"internalType\":\"string\",\"name\":\"ticker\",\"type\":\"string\"},{\"internalType\":\"string\",\"name\":\"uri\",\"type\":\"string\"},{\"internalType\":\"bytes32\",\"name\":\"salt\",\"type\":\"bytes32\"}]},{\"internalType\":\"uint32\",\"name\":\"baseCurrency\",\"type\":\"uint32\"},{\"internalType\":\"address\",\"name\":\"initialSplitOperator\",\"type\":\"address\"},{\"internalType\":\"struct REVStageConfig[]\",\"name\":\"stageConfigurations\",\"type\":\"tuple[]\",\"components\":[{\"internalType\":\"uint40\",\"name\":\"startsAtOrAfter\",\"type\":\"uint40\"},{\"internalType\":\"struct REVMintConfig[]\",\"name\":\"mintConfigs\",\"type\":\"tuple[]\",\"components\":[{\"internalType\":\"uint256\",\"name\":\"chainId\",\"type\":\"uint256\"},{\"internalType\":\"uint256\",\"name\":\"count\",\"type\":\"uint256\"},{\"internalType\":\"address\",\"name\":\"beneficiary\",\"type\":\"address\"}]},{\"internalType\":\"uint16\",\"name\":\"splitRate\",\"type\":\"uint16\"},{\"internalType\":\"uint112\",\"name\":\"initialIssuanceRate\",\"type\":\"uint112\"},{\"internalType\":\"uint40\",\"name\":\"priceCeilingIncreaseFrequency\",\"type\":\"uint40\"},{\"internalType\":\"uint32\",\"name\":\"priceCeilingIncreasePercentage\",\"type\":\"uint32\"},{\"internalType\":\"uint16\",\"name\":\"priceFloorTaxIntensity\",\"type\":\"uint16\"}]}],\"indexed\":false},{\"internalType\":\"struct JBTerminalConfig[]\",\"name\":\"terminalConfigurations\",\"type\":\"tuple[]\",\"components\":[{\"internalType\":\"contract IJBTerminal\",\"name\":\"terminal\",\"type\":\"address\"},{\"internalType\":\"address[]\",\"name\":\"tokensToAccept\",\"type\":\"address[]\"}],\"indexed\":false},{\"internalType\":\"struct REVBuybackHookConfig\",\"name\":\"buybackHookConfiguration\",\"type\":\"tuple\",\"components\":[{\"internalType\":\"contract IJBBuybackHook\",\"name\":\"hook\",\"type\":\"address\"},{\"internalType\":\"struct REVBuybackPoolConfig[]\",\"name\":\"poolConfigurations\",\"type\":\"tuple[]\",\"components\":[{\"internalType\":\"address\",\"name\":\"token\",\"type\":\"address\"},{\"internalType\":\"uint24\",\"name\":\"fee\",\"type\":\"uint24\"},{\"internalType\":\"uint32\",\"name\":\"twapWindow\",\"type\":\"uint32\"},{\"internalType\":\"uint32\",\"name\":\"twapSlippageTolerance\",\"type\":\"uint32\"}]}],\"indexed\":false},{\"internalType\":\"struct REVSuckerDeploymentConfig\",\"name\":\"suckerDeploymentConfiguration\",\"type\":\"tuple\",\"components\":[{\"internalType\":\"struct BPSuckerDeployerConfig[]\",\"name\":\"deployerConfigurations\",\"type\":\"tuple[]\",\"components\":[{\"internalType\":\"contract IBPSuckerDeployer\",\"name\":\"deployer\",\"type\":\"address\"},{\"internalType\":\"struct BPTokenMapping[]\",\"name\":\"mappings\",\"type\":\"tuple[]\",\"components\":[{\"internalType\":\"address\",\"name\":\"localToken\",\"type\":\"address\"},{\"internalType\":\"uint32\",\"name\":\"minGas\",\"type\":\"uint32\"},{\"internalType\":\"address\",\"name\":\"remoteToken\",\"type\":\"address\"},{\"internalType\":\"uint256\",\"name\":\"minBridgeAmount\",\"type\":\"uint256\"}]}]},{\"internalType\":\"bytes32\",\"name\":\"salt\",\"type\":\"bytes32\"}],\"indexed\":false},{\"internalType\":\"struct JBRulesetConfig[]\",\"name\":\"rulesetConfigurations\",\"type\":\"tuple[]\",\"components\":[{\"internalType\":\"uint256\",\"name\":\"mustStartAtOrAfter\",\"type\":\"uint256\"},{\"internalType\":\"uint256\",\"name\":\"duration\",\"type\":\"uint256\"},{\"internalType\":\"uint256\",\"name\":\"weight\",\"type\":\"uint256\"},{\"internalType\":\"uint256\",\"name\":\"decayRate\",\"type\":\"uint256\"},{\"internalType\":\"contract IJBRulesetApprovalHook\",\"name\":\"approvalHook\",\"type\":\"address\"},{\"internalType\":\"struct JBRulesetMetadata\",\"name\":\"metadata\",\"type\":\"tuple\",\"components\":[{\"internalType\":\"uint256\",\"name\":\"reservedRate\",\"type\":\"uint256\"},{\"internalType\":\"uint256\",\"name\":\"redemptionRate\",\"type\":\"uint256\"},{\"internalType\":\"uint256\",\"name\":\"baseCurrency\",\"type\":\"uint256\"},{\"internalType\":\"bool\",\"name\":\"pausePay\",\"type\":\"bool\"},{\"internalType\":\"bool\",\"name\":\"pauseCreditTransfers\",\"type\":\"bool\"},{\"internalType\":\"bool\",\"name\":\"allowOwnerMinting\",\"type\":\"bool\"},{\"internalType\":\"bool\",\"name\":\"allowSetCustomToken\",\"type\":\"bool\"},{\"internalType\":\"bool\",\"name\":\"allowTerminalMigration\",\"type\":\"bool\"},{\"internalType\":\"bool\",\"name\":\"allowSetTerminals\",\"type\":\"bool\"},{\"internalType\":\"bool\",\"name\":\"allowControllerMigration\",\"type\":\"bool\"},{\"internalType\":\"bool\",\"name\":\"allowSetController\",\"type\":\"bool\"},{\"internalType\":\"bool\",\"name\":\"holdFees\",\"type\":\"bool\"},{\"internalType\":\"bool\",\"name\":\"useTotalSurplusForRedemptions\",\"type\":\"bool\"},{\"internalType\":\"bool\",\"name\":\"useDataHookForPay\",\"type\":\"bool\"},{\"internalType\":\"bool\",\"name\":\"useDataHookForRedeem\",\"type\":\"bool\"},{\"internalType\":\"address\",\"name\":\"dataHook\",\"type\":\"address\"},{\"internalType\":\"uint256\",\"name\":\"metadata\",\"type\":\"uint256\"}]},{\"internalType\":\"struct JBSplitGroup[]\",\"name\":\"splitGroups\",\"type\":\"tuple[]\",\"components\":[{\"internalType\":\"uint256\",\"name\":\"groupId\",\"type\":\"uint256\"},{\"internalType\":\"struct JBSplit[]\",\"name\":\"splits\",\"type\":\"tuple[]\",\"components\":[{\"internalType\":\"bool\",\"name\":\"preferAddToBalance\",\"type\":\"bool\"},{\"internalType\":\"uint256\",\"name\":\"percent\",\"type\":\"uint256\"},{\"internalType\":\"uint256\",\"name\":\"projectId\",\"type\":\"uint256\"},{\"internalType\":\"address payable\",\"name\":\"beneficiary\",\"type\":\"address\"},{\"internalType\":\"uint256\",\"name\":\"lockedUntil\",\"type\":\"uint256\"},{\"internalType\":\"contract IJBSplitHook\",\"name\":\"hook\",\"type\":\"address\"}]}]},{\"internalType\":\"struct JBFundAccessLimitGroup[]\",\"name\":\"fundAccessLimitGroups\",\"type\":\"tuple[]\",\"components\":[{\"internalType\":\"address\",\"name\":\"terminal\",\"type\":\"address\"},{\"internalType\":\"address\",\"name\":\"token\",\"type\":\"address\"},{\"internalType\":\"struct JBCurrencyAmount[]\",\"name\":\"payoutLimits\",\"type\":\"tuple[]\",\"components\":[{\"internalType\":\"uint256\",\"name\":\"amount\",\"type\":\"uint256\"},{\"internalType\":\"uint256\",\"name\":\"currency\",\"type\":\"uint256\"}]},{\"internalType\":\"struct JBCurrencyAmount[]\",\"name\":\"surplusAllowances\",\"type\":\"tuple[]\",\"components\":[{\"internalType\":\"uint256\",\"name\":\"amount\",\"type\":\"uint256\"},{\"internalType\":\"uint256\",\"name\":\"currency\",\"type\":\"uint256\"}]}]}],\"indexed\":false},{\"internalType\":\"bytes\",\"name\":\"encodedConfiguration\",\"type\":\"bytes\",\"indexed\":false},{\"internalType\":\"bool\",\"name\":\"isInProgress\",\"type\":\"bool\",\"indexed\":false},{\"internalType\":\"address\",\"name\":\"caller\",\"type\":\"address\",\"indexed\":false}],\"type\":\"event\",\"name\":\"DeployRevnet\",\"anonymous\":false},{\"inputs\":[{\"internalType\":\"uint256\",\"name\":\"revnetId\",\"type\":\"uint256\",\"indexed\":true},{\"internalType\":\"bytes32\",\"name\":\"salt\",\"type\":\"bytes32\",\"indexed\":true},{\"internalType\":\"bytes\",\"name\":\"encodedConfiguration\",\"type\":\"bytes\",\"indexed\":false},{\"internalType\":\"struct REVSuckerDeploymentConfig\",\"name\":\"suckerDeploymentConfiguration\",\"type\":\"tuple\",\"components\":[{\"internalType\":\"struct BPSuckerDeployerConfig[]\",\"name\":\"deployerConfigurations\",\"type\":\"tuple[]\",\"components\":[{\"internalType\":\"contract IBPSuckerDeployer\",\"name\":\"deployer\",\"type\":\"address\"},{\"internalType\":\"struct BPTokenMapping[]\",\"name\":\"mappings\",\"type\":\"tuple[]\",\"components\":[{\"internalType\":\"address\",\"name\":\"localToken\",\"type\":\"address\"},{\"internalType\":\"uint32\",\"name\":\"minGas\",\"type\":\"uint32\"},{\"internalType\":\"address\",\"name\":\"remoteToken\",\"type\":\"address\"},{\"internalType\":\"uint256\",\"name\":\"minBridgeAmount\",\"type\":\"uint256\"}]}]},{\"internalType\":\"bytes32\",\"name\":\"salt\",\"type\":\"bytes32\"}],\"indexed\":false},{\"internalType\":\"address\",\"name\":\"caller\",\"type\":\"address\",\"indexed\":false}],\"type\":\"event\",\"name\":\"DeploySuckers\",\"anonymous\":false},{\"inputs\":[{\"internalType\":\"uint256\",\"name\":\"revnetId\",\"type\":\"uint256\",\"indexed\":true},{\"internalType\":\"uint256\",\"name\":\"stageId\",\"type\":\"uint256\",\"indexed\":true},{\"internalType\":\"address\",\"name\":\"beneficiary\",\"type\":\"address\",\"indexed\":true},{\"internalType\":\"uint256\",\"name\":\"count\",\"type\":\"uint256\",\"indexed\":false},{\"internalType\":\"address\",\"name\":\"caller\",\"type\":\"address\",\"indexed\":false}],\"type\":\"event\",\"name\":\"Mint\",\"anonymous\":false},{\"inputs\":[{\"internalType\":\"uint256\",\"name\":\"revnetId\",\"type\":\"uint256\",\"indexed\":true},{\"internalType\":\"address\",\"name\":\"newSplitOperator\",\"type\":\"address\",\"indexed\":true},{\"internalType\":\"address\",\"name\":\"caller\",\"type\":\"address\",\"indexed\":false}],\"type\":\"event\",\"name\":\"ReplaceSplitOperator\",\"anonymous\":false},{\"inputs\":[{\"internalType\":\"uint256\",\"name\":\"revnetId\",\"type\":\"uint256\",\"indexed\":true},{\"internalType\":\"uint256\",\"name\":\"stageId\",\"type\":\"uint256\",\"indexed\":true},{\"internalType\":\"address\",\"name\":\"beneficiary\",\"type\":\"address\",\"indexed\":true},{\"internalType\":\"uint256\",\"name\":\"count\",\"type\":\"uint256\",\"indexed\":false},{\"internalType\":\"address\",\"name\":\"caller\",\"type\":\"address\",\"indexed\":false}],\"type\":\"event\",\"name\":\"StoreMintPotential\",\"anonymous\":false},{\"inputs\":[{\"internalType\":\"uint256\",\"name\":\"revnetId\",\"type\":\"uint256\",\"indexed\":true},{\"internalType\":\"struct JBPayHookSpecification[]\",\"name\":\"payHookSpecifications\",\"type\":\"tuple[]\",\"components\":[{\"internalType\":\"contract IJBPayHook\",\"name\":\"hook\",\"type\":\"address\"},{\"internalType\":\"uint256\",\"name\":\"amount\",\"type\":\"uint256\"},{\"internalType\":\"bytes\",\"name\":\"metadata\",\"type\":\"bytes\"}],\"indexed\":false},{\"internalType\":\"address\",\"name\":\"caller\",\"type\":\"address\",\"indexed\":false}],\"type\":\"event\",\"name\":\"StoredPayHookSpecifications\",\"anonymous\":false},{\"inputs\":[],\"stateMutability\":\"view\",\"type\":\"function\",\"name\":\"CONTROLLER\",\"outputs\":[{\"internalType\":\"contract IJBController\",\"name\":\"\",\"type\":\"address\"}]},{\"inputs\":[],\"stateMutability\":\"view\",\"type\":\"function\",\"name\":\"EXIT_DELAY\",\"outputs\":[{\"internalType\":\"uint256\",\"name\":\"\",\"type\":\"uint256\"}]},{\"inputs\":[],\"stateMutability\":\"view\",\"type\":\"function\",\"name\":\"HOOK_DEPLOYER\",\"outputs\":[{\"internalType\":\"contract IJB721TiersHookDeployer\",\"name\":\"\",\"type\":\"address\"}]},{\"inputs\":[],\"stateMutability\":\"view\",\"type\":\"function\",\"name\":\"PUBLISHER\",\"outputs\":[{\"internalType\":\"contract CTPublisher\",\"name\":\"\",\"type\":\"address\"}]},{\"inputs\":[],\"stateMutability\":\"view\",\"type\":\"function\",\"name\":\"SUCKER_REGISTRY\",\"outputs\":[{\"internalType\":\"contract IBPSuckerRegistry\",\"name\":\"\",\"type\":\"address\"}]},{\"inputs\":[{\"internalType\":\"uint256\",\"name\":\"revnetId\",\"type\":\"uint256\"},{\"internalType\":\"uint256\",\"name\":\"stageId\",\"type\":\"uint256\"},{\"internalType\":\"address\",\"name\":\"beneficiary\",\"type\":\"address\"}],\"stateMutability\":\"view\",\"type\":\"function\",\"name\":\"allowedMintCountOf\",\"outputs\":[{\"internalType\":\"uint256\",\"name\":\"\",\"type\":\"uint256\"}]},{\"inputs\":[{\"internalType\":\"struct JBBeforePayRecordedContext\",\"name\":\"context\",\"type\":\"tuple\",\"components\":[{\"internalType\":\"address\",\"name\":\"terminal\",\"type\":\"address\"},{\"internalType\":\"address\",\"name\":\"payer\",\"type\":\"address\"},{\"internalType\":\"struct JBTokenAmount\",\"name\":\"amount\",\"type\":\"tuple\",\"components\":[{\"internalType\":\"address\",\"name\":\"token\",\"type\":\"address\"},{\"internalType\":\"uint256\",\"name\":\"value\",\"type\":\"uint256\"},{\"internalType\":\"uint256\",\"name\":\"decimals\",\"type\":\"uint256\"},{\"internalType\":\"uint256\",\"name\":\"currency\",\"type\":\"uint256\"}]},{\"internalType\":\"uint256\",\"name\":\"projectId\",\"type\":\"uint256\"},{\"internalType\":\"uint256\",\"name\":\"rulesetId\",\"type\":\"uint256\"},{\"internalType\":\"address\",\"name\":\"beneficiary\",\"type\":\"address\"},{\"internalType\":\"uint256\",\"name\":\"weight\",\"type\":\"uint256\"},{\"internalType\":\"uint256\",\"name\":\"reservedRate\",\"type\":\"uint256\"},{\"internalType\":\"bytes\",\"name\":\"metadata\",\"type\":\"bytes\"}]}],\"stateMutability\":\"view\",\"type\":\"function\",\"name\":\"beforePayRecordedWith\",\"outputs\":[{\"internalType\":\"uint256\",\"name\":\"weight\",\"type\":\"uint256\"},{\"internalType\":\"struct JBPayHookSpecification[]\",\"name\":\"hookSpecifications\",\"type\":\"tuple[]\",\"components\":[{\"internalType\":\"contract IJBPayHook\",\"name\":\"hook\",\"type\":\"address\"},{\"internalType\":\"uint256\",\"name\":\"amount\",\"type\":\"uint256\"},{\"internalType\":\"bytes\",\"name\":\"metadata\",\"type\":\"bytes\"}]}]},{\"inputs\":[{\"internalType\":\"struct JBBeforeRedeemRecordedContext\",\"name\":\"context\",\"type\":\"tuple\",\"components\":[{\"internalType\":\"address\",\"name\":\"terminal\",\"type\":\"address\"},{\"internalType\":\"address\",\"name\":\"holder\",\"type\":\"address\"},{\"internalType\":\"uint256\",\"name\":\"projectId\",\"type\":\"uint256\"},{\"internalType\":\"uint256\",\"name\":\"rulesetId\",\"type\":\"uint256\"},{\"internalType\":\"uint256\",\"name\":\"redeemCount\",\"type\":\"uint256\"},{\"internalType\":\"uint256\",\"name\":\"totalSupply\",\"type\":\"uint256\"},{\"internalType\":\"struct JBTokenAmount\",\"name\":\"surplus\",\"type\":\"tuple\",\"components\":[{\"internalType\":\"address\",\"name\":\"token\",\"type\":\"address\"},{\"internalType\":\"uint256\",\"name\":\"value\",\"type\":\"uint256\"},{\"internalType\":\"uint256\",\"name\":\"decimals\",\"type\":\"uint256\"},{\"internalType\":\"uint256\",\"name\":\"currency\",\"type\":\"uint256\"}]},{\"internalType\":\"bool\",\"name\":\"useTotalSurplus\",\"type\":\"bool\"},{\"internalType\":\"uint256\",\"name\":\"redemptionRate\",\"type\":\"uint256\"},{\"internalType\":\"bytes\",\"name\":\"metadata\",\"type\":\"bytes\"}]}],\"stateMutability\":\"view\",\"type\":\"function\",\"name\":\"beforeRedeemRecordedWith\",\"outputs\":[{\"internalType\":\"uint256\",\"name\":\"\",\"type\":\"uint256\"},{\"internalType\":\"uint256\",\"name\":\"\",\"type\":\"uint256\"},{\"internalType\":\"uint256\",\"name\":\"\",\"type\":\"uint256\"},{\"internalType\":\"struct JBRedeemHookSpecification[]\",\"name\":\"specifications\",\"type\":\"tuple[]\",\"components\":[{\"internalType\":\"contract IJBRedeemHook\",\"name\":\"hook\",\"type\":\"address\"},{\"internalType\":\"uint256\",\"name\":\"amount\",\"type\":\"uint256\"},{\"internalType\":\"bytes\",\"name\":\"metadata\",\"type\":\"bytes\"}]}]},{\"inputs\":[{\"internalType\":\"uint256\",\"name\":\"revnetId\",\"type\":\"uint256\"}],\"stateMutability\":\"view\",\"type\":\"function\",\"name\":\"buybackHookOf\",\"outputs\":[{\"internalType\":\"contract IJBRulesetDataHook\",\"name\":\"buybackHook\",\"type\":\"address\"}]},{\"inputs\":[{\"internalType\":\"uint256\",\"name\":\"revnetId\",\"type\":\"uint256\"},{\"internalType\":\"bytes\",\"name\":\"encodedConfiguration\",\"type\":\"bytes\"},{\"internalType\":\"struct REVSuckerDeploymentConfig\",\"name\":\"suckerDeploymentConfiguration\",\"type\":\"tuple\",\"components\":[{\"internalType\":\"struct BPSuckerDeployerConfig[]\",\"name\":\"deployerConfigurations\",\"type\":\"tuple[]\",\"components\":[{\"internalType\":\"contract IBPSuckerDeployer\",\"name\":\"deployer\",\"type\":\"address\"},{\"internalType\":\"struct BPTokenMapping[]\",\"name\":\"mappings\",\"type\":\"tuple[]\",\"components\":[{\"internalType\":\"address\",\"name\":\"localToken\",\"type\":\"address\"},{\"internalType\":\"uint32\",\"name\":\"minGas\",\"type\":\"uint32\"},{\"internalType\":\"address\",\"name\":\"remoteToken\",\"type\":\"address\"},{\"internalType\":\"uint256\",\"name\":\"minBridgeAmount\",\"type\":\"uint256\"}]}]},{\"internalType\":\"bytes32\",\"name\":\"salt\",\"type\":\"bytes32\"}]}],\"stateMutability\":\"nonpayable\",\"type\":\"function\",\"name\":\"deploySuckersFor\"},{\"inputs\":[{\"internalType\":\"uint256\",\"name\":\"revnetId\",\"type\":\"uint256\"}],\"stateMutability\":\"view\",\"type\":\"function\",\"name\":\"exitDelayOf\",\"outputs\":[{\"internalType\":\"uint256\",\"name\":\"exitDelay\",\"type\":\"uint256\"}]},{\"inputs\":[{\"internalType\":\"uint256\",\"name\":\"revnetId\",\"type\":\"uint256\"},{\"internalType\":\"address\",\"name\":\"addr\",\"type\":\"address\"}],\"stateMutability\":\"view\",\"type\":\"function\",\"name\":\"hasMintPermissionFor\",\"outputs\":[{\"internalType\":\"bool\",\"name\":\"\",\"type\":\"bool\"}]},{\"inputs\":[{\"internalType\":\"address\",\"name\":\"forwarder\",\"type\":\"address\"}],\"stateMutability\":\"view\",\"type\":\"function\",\"name\":\"isTrustedForwarder\",\"outputs\":[{\"internalType\":\"bool\",\"name\":\"\",\"type\":\"bool\"}]},{\"inputs\":[{\"internalType\":\"uint256\",\"name\":\"revnetId\",\"type\":\"uint256\"},{\"internalType\":\"struct REVConfig\",\"name\":\"configuration\",\"type\":\"tuple\",\"components\":[{\"internalType\":\"struct REVDescription\",\"name\":\"description\",\"type\":\"tuple\",\"components\":[{\"internalType\":\"string\",\"name\":\"name\",\"type\":\"string\"},{\"internalType\":\"string\",\"name\":\"ticker\",\"type\":\"string\"},{\"internalType\":\"string\",\"name\":\"uri\",\"type\":\"string\"},{\"internalType\":\"bytes32\",\"name\":\"salt\",\"type\":\"bytes32\"}]},{\"internalType\":\"uint32\",\"name\":\"baseCurrency\",\"type\":\"uint32\"},{\"internalType\":\"address\",\"name\":\"initialSplitOperator\",\"type\":\"address\"},{\"internalType\":\"struct REVStageConfig[]\",\"name\":\"stageConfigurations\",\"type\":\"tuple[]\",\"components\":[{\"internalType\":\"uint40\",\"name\":\"startsAtOrAfter\",\"type\":\"uint40\"},{\"internalType\":\"struct REVMintConfig[]\",\"name\":\"mintConfigs\",\"type\":\"tuple[]\",\"components\":[{\"internalType\":\"uint256\",\"name\":\"chainId\",\"type\":\"uint256\"},{\"internalType\":\"uint256\",\"name\":\"count\",\"type\":\"uint256\"},{\"internalType\":\"address\",\"name\":\"beneficiary\",\"type\":\"address\"}]},{\"internalType\":\"uint16\",\"name\":\"splitRate\",\"type\":\"uint16\"},{\"internalType\":\"uint112\",\"name\":\"initialIssuanceRate\",\"type\":\"uint112\"},{\"internalType\":\"uint40\",\"name\":\"priceCeilingIncreaseFrequency\",\"type\":\"uint40\"},{\"internalType\":\"uint32\",\"name\":\"priceCeilingIncreasePercentage\",\"type\":\"uint32\"},{\"internalType\":\"uint16\",\"name\":\"priceFloorTaxIntensity\",\"type\":\"uint16\"}]}]},{\"internalType\":\"struct JBTerminalConfig[]\",\"name\":\"terminalConfigurations\",\"type\":\"tuple[]\",\"components\":[{\"internalType\":\"contract IJBTerminal\",\"name\":\"terminal\",\"type\":\"address\"},{\"internalType\":\"address[]\",\"name\":\"tokensToAccept\",\"type\":\"address[]\"}]},{\"internalType\":\"struct REVBuybackHookConfig\",\"name\":\"buybackHookConfiguration\",\"type\":\"tuple\",\"components\":[{\"internalType\":\"contract IJBBuybackHook\",\"name\":\"hook\",\"type\":\"address\"},{\"internalType\":\"struct REVBuybackPoolConfig[]\",\"name\":\"poolConfigurations\",\"type\":\"tuple[]\",\"components\":[{\"internalType\":\"address\",\"name\":\"token\",\"type\":\"address\"},{\"internalType\":\"uint24\",\"name\":\"fee\",\"type\":\"uint24\"},{\"internalType\":\"uint32\",\"name\":\"twapWindow\",\"type\":\"uint32\"},{\"internalType\":\"uint32\",\"name\":\"twapSlippageTolerance\",\"type\":\"uint32\"}]}]},{\"internalType\":\"struct REVSuckerDeploymentConfig\",\"name\":\"suckerDeploymentConfiguration\",\"type\":\"tuple\",\"components\":[{\"internalType\":\"struct BPSuckerDeployerConfig[]\",\"name\":\"deployerConfigurations\",\"type\":\"tuple[]\",\"components\":[{\"internalType\":\"contract IBPSuckerDeployer\",\"name\":\"deployer\",\"type\":\"address\"},{\"internalType\":\"struct BPTokenMapping[]\",\"name\":\"mappings\",\"type\":\"tuple[]\",\"components\":[{\"internalType\":\"address\",\"name\":\"localToken\",\"type\":\"address\"},{\"internalType\":\"uint32\",\"name\":\"minGas\",\"type\":\"uint32\"},{\"internalType\":\"address\",\"name\":\"remoteToken\",\"type\":\"address\"},{\"internalType\":\"uint256\",\"name\":\"minBridgeAmount\",\"type\":\"uint256\"}]}]},{\"internalType\":\"bytes32\",\"name\":\"salt\",\"type\":\"bytes32\"}]},{\"internalType\":\"struct REVDeploy721TiersHookConfig\",\"name\":\"hookConfiguration\",\"type\":\"tuple\",\"components\":[{\"internalType\":\"struct JBDeploy721TiersHookConfig\",\"name\":\"baseline721HookConfiguration\",\"type\":\"tuple\",\"components\":[{\"internalType\":\"string\",\"name\":\"name\",\"type\":\"string\"},{\"internalType\":\"string\",\"name\":\"symbol\",\"type\":\"string\"},{\"internalType\":\"contract IJBRulesets\",\"name\":\"rulesets\",\"type\":\"address\"},{\"internalType\":\"string\",\"name\":\"baseUri\",\"type\":\"string\"},{\"internalType\":\"contract IJB721TokenUriResolver\",\"name\":\"tokenUriResolver\",\"type\":\"address\"},{\"internalType\":\"string\",\"name\":\"contractUri\",\"type\":\"string\"},{\"internalType\":\"struct JB721InitTiersConfig\",\"name\":\"tiersConfig\",\"type\":\"tuple\",\"components\":[{\"internalType\":\"struct JB721TierConfig[]\",\"name\":\"tiers\",\"type\":\"tuple[]\",\"components\":[{\"internalType\":\"uint104\",\"name\":\"price\",\"type\":\"uint104\"},{\"internalType\":\"uint32\",\"name\":\"initialSupply\",\"type\":\"uint32\"},{\"internalType\":\"uint32\",\"name\":\"votingUnits\",\"type\":\"uint32\"},{\"internalType\":\"uint16\",\"name\":\"reserveFrequency\",\"type\":\"uint16\"},{\"internalType\":\"address\",\"name\":\"reserveBeneficiary\",\"type\":\"address\"},{\"internalType\":\"bytes32\",\"name\":\"encodedIPFSUri\",\"type\":\"bytes32\"},{\"internalType\":\"uint24\",\"name\":\"category\",\"type\":\"uint24\"},{\"internalType\":\"bool\",\"name\":\"allowOwnerMint\",\"type\":\"bool\"},{\"internalType\":\"bool\",\"name\":\"useReserveBeneficiaryAsDefault\",\"type\":\"bool\"},{\"internalType\":\"bool\",\"name\":\"transfersPausable\",\"type\":\"bool\"},{\"internalType\":\"bool\",\"name\":\"useVotingUnits\",\"type\":\"bool\"},{\"internalType\":\"bool\",\"name\":\"cannotBeRemoved\",\"type\":\"bool\"}]},{\"internalType\":\"uint32\",\"name\":\"currency\",\"type\":\"uint32\"},{\"internalType\":\"uint8\",\"name\":\"decimals\",\"type\":\"uint8\"},{\"internalType\":\"contract IJBPrices\",\"name\":\"prices\",\"type\":\"address\"}]},{\"internalType\":\"address\",\"name\":\"reserveBeneficiary\",\"type\":\"address\"},{\"internalType\":\"struct JB721TiersHookFlags\",\"name\":\"flags\",\"type\":\"tuple\",\"components\":[{\"internalType\":\"bool\",\"name\":\"noNewTiersWithReserves\",\"type\":\"bool\"},{\"internalType\":\"bool\",\"name\":\"noNewTiersWithVotes\",\"type\":\"bool\"},{\"internalType\":\"bool\",\"name\":\"noNewTiersWithOwnerMinting\",\"type\":\"bool\"},{\"internalType\":\"bool\",\"name\":\"preventOverspending\",\"type\":\"bool\"}]}]},{\"internalType\":\"bool\",\"name\":\"operatorCanAdjustTiers\",\"type\":\"bool\"},{\"internalType\":\"bool\",\"name\":\"operatorCanUpdateMetadata\",\"type\":\"bool\"},{\"internalType\":\"bool\",\"name\":\"operatorCanMint\",\"type\":\"bool\"}]},{\"internalType\":\"struct JBPayHookSpecification[]\",\"name\":\"otherPayHooksSpecifications\",\"type\":\"tuple[]\",\"components\":[{\"internalType\":\"contract IJBPayHook\",\"name\":\"hook\",\"type\":\"address\"},{\"internalType\":\"uint256\",\"name\":\"amount\",\"type\":\"uint256\"},{\"internalType\":\"bytes\",\"name\":\"metadata\",\"type\":\"bytes\"}]},{\"internalType\":\"uint16\",\"name\":\"extraHookMetadata\",\"type\":\"uint16\"},{\"internalType\":\"struct REVCroptopAllowedPost[]\",\"name\":\"allowedPosts\",\"type\":\"tuple[]\",\"components\":[{\"internalType\":\"uint256\",\"name\":\"category\",\"type\":\"uint256\"},{\"internalType\":\"uint256\",\"name\":\"minimumPrice\",\"type\":\"uint256\"},{\"internalType\":\"uint256\",\"name\":\"minimumTotalSupply\",\"type\":\"uint256\"},{\"internalType\":\"uint256\",\"name\":\"maximumTotalSupply\",\"type\":\"uint256\"},{\"internalType\":\"address[]\",\"name\":\"allowedAddresses\",\"type\":\"address[]\"}]}],\"stateMutability\":\"nonpayable\",\"type\":\"function\",\"name\":\"launchCroptopRevnetFor\",\"outputs\":[{\"internalType\":\"uint256\",\"name\":\"\",\"type\":\"uint256\"},{\"internalType\":\"contract IJB721TiersHook\",\"name\":\"hook\",\"type\":\"address\"}]},{\"inputs\":[{\"internalType\":\"uint256\",\"name\":\"revnetId\",\"type\":\"uint256\"},{\"internalType\":\"struct REVConfig\",\"name\":\"configuration\",\"type\":\"tuple\",\"components\":[{\"internalType\":\"struct REVDescription\",\"name\":\"description\",\"type\":\"tuple\",\"components\":[{\"internalType\":\"string\",\"name\":\"name\",\"type\":\"string\"},{\"internalType\":\"string\",\"name\":\"ticker\",\"type\":\"string\"},{\"internalType\":\"string\",\"name\":\"uri\",\"type\":\"string\"},{\"internalType\":\"bytes32\",\"name\":\"salt\",\"type\":\"bytes32\"}]},{\"internalType\":\"uint32\",\"name\":\"baseCurrency\",\"type\":\"uint32\"},{\"internalType\":\"address\",\"name\":\"initialSplitOperator\",\"type\":\"address\"},{\"internalType\":\"struct REVStageConfig[]\",\"name\":\"stageConfigurations\",\"type\":\"tuple[]\",\"components\":[{\"internalType\":\"uint40\",\"name\":\"startsAtOrAfter\",\"type\":\"uint40\"},{\"internalType\":\"struct REVMintConfig[]\",\"name\":\"mintConfigs\",\"type\":\"tuple[]\",\"components\":[{\"internalType\":\"uint256\",\"name\":\"chainId\",\"type\":\"uint256\"},{\"internalType\":\"uint256\",\"name\":\"count\",\"type\":\"uint256\"},{\"internalType\":\"address\",\"name\":\"beneficiary\",\"type\":\"address\"}]},{\"internalType\":\"uint16\",\"name\":\"splitRate\",\"type\":\"uint16\"},{\"internalType\":\"uint112\",\"name\":\"initialIssuanceRate\",\"type\":\"uint112\"},{\"internalType\":\"uint40\",\"name\":\"priceCeilingIncreaseFrequency\",\"type\":\"uint40\"},{\"internalType\":\"uint32\",\"name\":\"priceCeilingIncreasePercentage\",\"type\":\"uint32\"},{\"internalType\":\"uint16\",\"name\":\"priceFloorTaxIntensity\",\"type\":\"uint16\"}]}]},{\"internalType\":\"struct JBTerminalConfig[]\",\"name\":\"terminalConfigurations\",\"type\":\"tuple[]\",\"components\":[{\"internalType\":\"contract IJBTerminal\",\"name\":\"terminal\",\"type\":\"address\"},{\"internalType\":\"address[]\",\"name\":\"tokensToAccept\",\"type\":\"address[]\"}]},{\"internalType\":\"struct REVBuybackHookConfig\",\"name\":\"buybackHookConfiguration\",\"type\":\"tuple\",\"components\":[{\"internalType\":\"contract IJBBuybackHook\",\"name\":\"hook\",\"type\":\"address\"},{\"internalType\":\"struct REVBuybackPoolConfig[]\",\"name\":\"poolConfigurations\",\"type\":\"tuple[]\",\"components\":[{\"internalType\":\"address\",\"name\":\"token\",\"type\":\"address\"},{\"internalType\":\"uint24\",\"name\":\"fee\",\"type\":\"uint24\"},{\"internalType\":\"uint32\",\"name\":\"twapWindow\",\"type\":\"uint32\"},{\"internalType\":\"uint32\",\"name\":\"twapSlippageTolerance\",\"type\":\"uint32\"}]}]},{\"internalType\":\"struct REVSuckerDeploymentConfig\",\"name\":\"suckerDeploymentConfiguration\",\"type\":\"tuple\",\"components\":[{\"internalType\":\"struct BPSuckerDeployerConfig[]\",\"name\":\"deployerConfigurations\",\"type\":\"tuple[]\",\"components\":[{\"internalType\":\"contract IBPSuckerDeployer\",\"name\":\"deployer\",\"type\":\"address\"},{\"internalType\":\"struct BPTokenMapping[]\",\"name\":\"mappings\",\"type\":\"tuple[]\",\"components\":[{\"internalType\":\"address\",\"name\":\"localToken\",\"type\":\"address\"},{\"internalType\":\"uint32\",\"name\":\"minGas\",\"type\":\"uint32\"},{\"internalType\":\"address\",\"name\":\"remoteToken\",\"type\":\"address\"},{\"internalType\":\"uint256\",\"name\":\"minBridgeAmount\",\"type\":\"uint256\"}]}]},{\"internalType\":\"bytes32\",\"name\":\"salt\",\"type\":\"bytes32\"}]},{\"internalType\":\"struct JBPayHookSpecification[]\",\"name\":\"payHookSpecifications\",\"type\":\"tuple[]\",\"components\":[{\"internalType\":\"contract IJBPayHook\",\"name\":\"hook\",\"type\":\"address\"},{\"internalType\":\"uint256\",\"name\":\"amount\",\"type\":\"uint256\"},{\"internalType\":\"bytes\",\"name\":\"metadata\",\"type\":\"bytes\"}]},{\"internalType\":\"uint16\",\"name\":\"extraHookMetadata\",\"type\":\"uint16\"}],\"stateMutability\":\"nonpayable\",\"type\":\"function\",\"name\":\"launchPayHookRevnetFor\",\"outputs\":[{\"internalType\":\"uint256\",\"name\":\"\",\"type\":\"uint256\"}]},{\"inputs\":[{\"internalType\":\"uint256\",\"name\":\"revnetId\",\"type\":\"uint256\"},{\"internalType\":\"struct REVConfig\",\"name\":\"configuration\",\"type\":\"tuple\",\"components\":[{\"internalType\":\"struct REVDescription\",\"name\":\"description\",\"type\":\"tuple\",\"components\":[{\"internalType\":\"string\",\"name\":\"name\",\"type\":\"string\"},{\"internalType\":\"string\",\"name\":\"ticker\",\"type\":\"string\"},{\"internalType\":\"string\",\"name\":\"uri\",\"type\":\"string\"},{\"internalType\":\"bytes32\",\"name\":\"salt\",\"type\":\"bytes32\"}]},{\"internalType\":\"uint32\",\"name\":\"baseCurrency\",\"type\":\"uint32\"},{\"internalType\":\"address\",\"name\":\"initialSplitOperator\",\"type\":\"address\"},{\"internalType\":\"struct REVStageConfig[]\",\"name\":\"stageConfigurations\",\"type\":\"tuple[]\",\"components\":[{\"internalType\":\"uint40\",\"name\":\"startsAtOrAfter\",\"type\":\"uint40\"},{\"internalType\":\"struct REVMintConfig[]\",\"name\":\"mintConfigs\",\"type\":\"tuple[]\",\"components\":[{\"internalType\":\"uint256\",\"name\":\"chainId\",\"type\":\"uint256\"},{\"internalType\":\"uint256\",\"name\":\"count\",\"type\":\"uint256\"},{\"internalType\":\"address\",\"name\":\"beneficiary\",\"type\":\"address\"}]},{\"internalType\":\"uint16\",\"name\":\"splitRate\",\"type\":\"uint16\"},{\"internalType\":\"uint112\",\"name\":\"initialIssuanceRate\",\"type\":\"uint112\"},{\"internalType\":\"uint40\",\"name\":\"priceCeilingIncreaseFrequency\",\"type\":\"uint40\"},{\"internalType\":\"uint32\",\"name\":\"priceCeilingIncreasePercentage\",\"type\":\"uint32\"},{\"internalType\":\"uint16\",\"name\":\"priceFloorTaxIntensity\",\"type\":\"uint16\"}]}]},{\"internalType\":\"struct JBTerminalConfig[]\",\"name\":\"terminalConfigurations\",\"type\":\"tuple[]\",\"components\":[{\"internalType\":\"contract IJBTerminal\",\"name\":\"terminal\",\"type\":\"address\"},{\"internalType\":\"address[]\",\"name\":\"tokensToAccept\",\"type\":\"address[]\"}]},{\"internalType\":\"struct REVBuybackHookConfig\",\"name\":\"buybackHookConfiguration\",\"type\":\"tuple\",\"components\":[{\"internalType\":\"contract IJBBuybackHook\",\"name\":\"hook\",\"type\":\"address\"},{\"internalType\":\"struct REVBuybackPoolConfig[]\",\"name\":\"poolConfigurations\",\"type\":\"tuple[]\",\"components\":[{\"internalType\":\"address\",\"name\":\"token\",\"type\":\"address\"},{\"internalType\":\"uint24\",\"name\":\"fee\",\"type\":\"uint24\"},{\"internalType\":\"uint32\",\"name\":\"twapWindow\",\"type\":\"uint32\"},{\"internalType\":\"uint32\",\"name\":\"twapSlippageTolerance\",\"type\":\"uint32\"}]}]},{\"internalType\":\"struct REVSuckerDeploymentConfig\",\"name\":\"suckerDeploymentConfiguration\",\"type\":\"tuple\",\"components\":[{\"internalType\":\"struct BPSuckerDeployerConfig[]\",\"name\":\"deployerConfigurations\",\"type\":\"tuple[]\",\"components\":[{\"internalType\":\"contract IBPSuckerDeployer\",\"name\":\"deployer\",\"type\":\"address\"},{\"internalType\":\"struct BPTokenMapping[]\",\"name\":\"mappings\",\"type\":\"tuple[]\",\"components\":[{\"internalType\":\"address\",\"name\":\"localToken\",\"type\":\"address\"},{\"internalType\":\"uint32\",\"name\":\"minGas\",\"type\":\"uint32\"},{\"internalType\":\"address\",\"name\":\"remoteToken\",\"type\":\"address\"},{\"internalType\":\"uint256\",\"name\":\"minBridgeAmount\",\"type\":\"uint256\"}]}]},{\"internalType\":\"bytes32\",\"name\":\"salt\",\"type\":\"bytes32\"}]}],\"stateMutability\":\"nonpayable\",\"type\":\"function\",\"name\":\"launchRevnetFor\",\"outputs\":[{\"internalType\":\"uint256\",\"name\":\"\",\"type\":\"uint256\"}]},{\"inputs\":[{\"internalType\":\"uint256\",\"name\":\"revnetId\",\"type\":\"uint256\"},{\"internalType\":\"struct REVConfig\",\"name\":\"configuration\",\"type\":\"tuple\",\"components\":[{\"internalType\":\"struct REVDescription\",\"name\":\"description\",\"type\":\"tuple\",\"components\":[{\"internalType\":\"string\",\"name\":\"name\",\"type\":\"string\"},{\"internalType\":\"string\",\"name\":\"ticker\",\"type\":\"string\"},{\"internalType\":\"string\",\"name\":\"uri\",\"type\":\"string\"},{\"internalType\":\"bytes32\",\"name\":\"salt\",\"type\":\"bytes32\"}]},{\"internalType\":\"uint32\",\"name\":\"baseCurrency\",\"type\":\"uint32\"},{\"internalType\":\"address\",\"name\":\"initialSplitOperator\",\"type\":\"address\"},{\"internalType\":\"struct REVStageConfig[]\",\"name\":\"stageConfigurations\",\"type\":\"tuple[]\",\"components\":[{\"internalType\":\"uint40\",\"name\":\"startsAtOrAfter\",\"type\":\"uint40\"},{\"internalType\":\"struct REVMintConfig[]\",\"name\":\"mintConfigs\",\"type\":\"tuple[]\",\"components\":[{\"internalType\":\"uint256\",\"name\":\"chainId\",\"type\":\"uint256\"},{\"internalType\":\"uint256\",\"name\":\"count\",\"type\":\"uint256\"},{\"internalType\":\"address\",\"name\":\"beneficiary\",\"type\":\"address\"}]},{\"internalType\":\"uint16\",\"name\":\"splitRate\",\"type\":\"uint16\"},{\"internalType\":\"uint112\",\"name\":\"initialIssuanceRate\",\"type\":\"uint112\"},{\"internalType\":\"uint40\",\"name\":\"priceCeilingIncreaseFrequency\",\"type\":\"uint40\"},{\"internalType\":\"uint32\",\"name\":\"priceCeilingIncreasePercentage\",\"type\":\"uint32\"},{\"internalType\":\"uint16\",\"name\":\"priceFloorTaxIntensity\",\"type\":\"uint16\"}]}]},{\"internalType\":\"struct JBTerminalConfig[]\",\"name\":\"terminalConfigurations\",\"type\":\"tuple[]\",\"components\":[{\"internalType\":\"contract IJBTerminal\",\"name\":\"terminal\",\"type\":\"address\"},{\"internalType\":\"address[]\",\"name\":\"tokensToAccept\",\"type\":\"address[]\"}]},{\"internalType\":\"struct REVBuybackHookConfig\",\"name\":\"buybackHookConfiguration\",\"type\":\"tuple\",\"components\":[{\"internalType\":\"contract IJBBuybackHook\",\"name\":\"hook\",\"type\":\"address\"},{\"internalType\":\"struct REVBuybackPoolConfig[]\",\"name\":\"poolConfigurations\",\"type\":\"tuple[]\",\"components\":[{\"internalType\":\"address\",\"name\":\"token\",\"type\":\"address\"},{\"internalType\":\"uint24\",\"name\":\"fee\",\"type\":\"uint24\"},{\"internalType\":\"uint32\",\"name\":\"twapWindow\",\"type\":\"uint32\"},{\"internalType\":\"uint32\",\"name\":\"twapSlippageTolerance\",\"type\":\"uint32\"}]}]},{\"internalType\":\"struct REVSuckerDeploymentConfig\",\"name\":\"suckerDeploymentConfiguration\",\"type\":\"tuple\",\"components\":[{\"internalType\":\"struct BPSuckerDeployerConfig[]\",\"name\":\"deployerConfigurations\",\"type\":\"tuple[]\",\"components\":[{\"internalType\":\"contract IBPSuckerDeployer\",\"name\":\"deployer\",\"type\":\"address\"},{\"internalType\":\"struct BPTokenMapping[]\",\"name\":\"mappings\",\"type\":\"tuple[]\",\"components\":[{\"internalType\":\"address\",\"name\":\"localToken\",\"type\":\"address\"},{\"internalType\":\"uint32\",\"name\":\"minGas\",\"type\":\"uint32\"},{\"internalType\":\"address\",\"name\":\"remoteToken\",\"type\":\"address\"},{\"internalType\":\"uint256\",\"name\":\"minBridgeAmount\",\"type\":\"uint256\"}]}]},{\"internalType\":\"bytes32\",\"name\":\"salt\",\"type\":\"bytes32\"}]},{\"internalType\":\"struct REVDeploy721TiersHookConfig\",\"name\":\"hookConfiguration\",\"type\":\"tuple\",\"components\":[{\"internalType\":\"struct JBDeploy721TiersHookConfig\",\"name\":\"baseline721HookConfiguration\",\"type\":\"tuple\",\"components\":[{\"internalType\":\"string\",\"name\":\"name\",\"type\":\"string\"},{\"internalType\":\"string\",\"name\":\"symbol\",\"type\":\"string\"},{\"internalType\":\"contract IJBRulesets\",\"name\":\"rulesets\",\"type\":\"address\"},{\"internalType\":\"string\",\"name\":\"baseUri\",\"type\":\"string\"},{\"internalType\":\"contract IJB721TokenUriResolver\",\"name\":\"tokenUriResolver\",\"type\":\"address\"},{\"internalType\":\"string\",\"name\":\"contractUri\",\"type\":\"string\"},{\"internalType\":\"struct JB721InitTiersConfig\",\"name\":\"tiersConfig\",\"type\":\"tuple\",\"components\":[{\"internalType\":\"struct JB721TierConfig[]\",\"name\":\"tiers\",\"type\":\"tuple[]\",\"components\":[{\"internalType\":\"uint104\",\"name\":\"price\",\"type\":\"uint104\"},{\"internalType\":\"uint32\",\"name\":\"initialSupply\",\"type\":\"uint32\"},{\"internalType\":\"uint32\",\"name\":\"votingUnits\",\"type\":\"uint32\"},{\"internalType\":\"uint16\",\"name\":\"reserveFrequency\",\"type\":\"uint16\"},{\"internalType\":\"address\",\"name\":\"reserveBeneficiary\",\"type\":\"address\"},{\"internalType\":\"bytes32\",\"name\":\"encodedIPFSUri\",\"type\":\"bytes32\"},{\"internalType\":\"uint24\",\"name\":\"category\",\"type\":\"uint24\"},{\"internalType\":\"bool\",\"name\":\"allowOwnerMint\",\"type\":\"bool\"},{\"internalType\":\"bool\",\"name\":\"useReserveBeneficiaryAsDefault\",\"type\":\"bool\"},{\"internalType\":\"bool\",\"name\":\"transfersPausable\",\"type\":\"bool\"},{\"internalType\":\"bool\",\"name\":\"useVotingUnits\",\"type\":\"bool\"},{\"internalType\":\"bool\",\"name\":\"cannotBeRemoved\",\"type\":\"bool\"}]},{\"internalType\":\"uint32\",\"name\":\"currency\",\"type\":\"uint32\"},{\"internalType\":\"uint8\",\"name\":\"decimals\",\"type\":\"uint8\"},{\"internalType\":\"contract IJBPrices\",\"name\":\"prices\",\"type\":\"address\"}]},{\"internalType\":\"address\",\"name\":\"reserveBeneficiary\",\"type\":\"address\"},{\"internalType\":\"struct JB721TiersHookFlags\",\"name\":\"flags\",\"type\":\"tuple\",\"components\":[{\"internalType\":\"bool\",\"name\":\"noNewTiersWithReserves\",\"type\":\"bool\"},{\"internalType\":\"bool\",\"name\":\"noNewTiersWithVotes\",\"type\":\"bool\"},{\"internalType\":\"bool\",\"name\":\"noNewTiersWithOwnerMinting\",\"type\":\"bool\"},{\"internalType\":\"bool\",\"name\":\"preventOverspending\",\"type\":\"bool\"}]}]},{\"internalType\":\"bool\",\"name\":\"operatorCanAdjustTiers\",\"type\":\"bool\"},{\"internalType\":\"bool\",\"name\":\"operatorCanUpdateMetadata\",\"type\":\"bool\"},{\"internalType\":\"bool\",\"name\":\"operatorCanMint\",\"type\":\"bool\"}]},{\"internalType\":\"struct JBPayHookSpecification[]\",\"name\":\"otherPayHooksSpecifications\",\"type\":\"tuple[]\",\"components\":[{\"internalType\":\"contract IJBPayHook\",\"name\":\"hook\",\"type\":\"address\"},{\"internalType\":\"uint256\",\"name\":\"amount\",\"type\":\"uint256\"},{\"internalType\":\"bytes\",\"name\":\"metadata\",\"type\":\"bytes\"}]},{\"internalType\":\"uint16\",\"name\":\"extraHookMetadata\",\"type\":\"uint16\"}],\"stateMutability\":\"nonpayable\",\"type\":\"function\",\"name\":\"launchTiered721RevnetFor\",\"outputs\":[{\"internalType\":\"uint256\",\"name\":\"\",\"type\":\"uint256\"},{\"internalType\":\"contract IJB721TiersHook\",\"name\":\"hook\",\"type\":\"address\"}]},{\"inputs\":[{\"internalType\":\"uint256\",\"name\":\"revnetId\",\"type\":\"uint256\"},{\"internalType\":\"uint256\",\"name\":\"stageId\",\"type\":\"uint256\"},{\"internalType\":\"address\",\"name\":\"beneficiary\",\"type\":\"address\"}],\"stateMutability\":\"nonpayable\",\"type\":\"function\",\"name\":\"mintFor\"},{\"inputs\":[{\"internalType\":\"address\",\"name\":\"operator\",\"type\":\"address\"},{\"internalType\":\"address\",\"name\":\"\",\"type\":\"address\"},{\"internalType\":\"uint256\",\"name\":\"tokenId\",\"type\":\"uint256\"},{\"internalType\":\"bytes\",\"name\":\"data\",\"type\":\"bytes\"}],\"stateMutability\":\"view\",\"type\":\"function\",\"name\":\"onERC721Received\",\"outputs\":[{\"internalType\":\"bytes4\",\"name\":\"\",\"type\":\"bytes4\"}]},{\"inputs\":[{\"internalType\":\"uint256\",\"name\":\"revnetId\",\"type\":\"uint256\"}],\"stateMutability\":\"view\",\"type\":\"function\",\"name\":\"payHookSpecificationsOf\",\"outputs\":[{\"internalType\":\"struct JBPayHookSpecification[]\",\"name\":\"\",\"type\":\"tuple[]\",\"components\":[{\"internalType\":\"contract IJBPayHook\",\"name\":\"hook\",\"type\":\"address\"},{\"internalType\":\"uint256\",\"name\":\"amount\",\"type\":\"uint256\"},{\"internalType\":\"bytes\",\"name\":\"metadata\",\"type\":\"bytes\"}]}]},{\"inputs\":[{\"internalType\":\"uint256\",\"name\":\"revnetId\",\"type\":\"uint256\"},{\"internalType\":\"address\",\"name\":\"newSplitOperator\",\"type\":\"address\"}],\"stateMutability\":\"nonpayable\",\"type\":\"function\",\"name\":\"replaceSplitOperatorOf\"},{\"inputs\":[{\"internalType\":\"bytes4\",\"name\":\"interfaceId\",\"type\":\"bytes4\"}],\"stateMutability\":\"view\",\"type\":\"function\",\"name\":\"supportsInterface\",\"outputs\":[{\"internalType\":\"bool\",\"name\":\"\",\"type\":\"bool\"}]},{\"inputs\":[],\"stateMutability\":\"view\",\"type\":\"function\",\"name\":\"trustedForwarder\",\"outputs\":[{\"internalType\":\"address\",\"name\":\"\",\"type\":\"address\"}]}],\"devdoc\":{\"kind\":\"dev\",\"methods\":{\"beforePayRecordedWith((address,address,(address,uint256,uint256,uint256),uint256,uint256,address,uint256,uint256,bytes))\":{\"details\":\"Part of IJBFundingCycleDataSource.This implementation just sets this contract up to receive a `didPay` call.\",\"params\":{\"context\":\"The Juicebox standard network payment context. See\"},\"returns\":{\"hookSpecifications\":\"Amount to be sent to pay hooks instead of adding to local balance. Useful for auto-routing funds from a treasury as payment come in.\",\"weight\":\"The weight that network tokens should get minted relative to. This is useful for optionally customizing how many tokens are issued per payment.\"}},\"constructor\":{\"params\":{\"controller\":\"The controller that revnets are made from.\",\"hookDeployer\":\"The 721 tiers hook deployer.\",\"publisher\":\"The croptop publisher that facilitates the permissioned publishing of 721 posts to a revnet.\",\"suckerRegistry\":\"The registry that deploys and tracks each project's suckers.\",\"trustedForwarder\":\"The trusted forwarder for the ERC2771Context.\"}},\"deploySuckersFor(uint256,bytes,((address,(address,uint32,address,uint256)[])[],bytes32))\":{\"params\":{\"encodedConfiguration\":\"A bytes representation of the revnet's configuration.\",\"revnetId\":\"The ID of the revnet having new suckers deployed.\",\"suckerDeploymentConfiguration\":\"The specifics about the suckers being deployed.\"}},\"hasMintPermissionFor(uint256,address)\":{\"params\":{\"addr\":\"The address to check if has permissions.\",\"revnetId\":\"The ID of the revnet to check permissions for.\"},\"returns\":{\"_0\":\"flag The flag indicating if the address has permissions to mint on the revnet's behalf.\"}},\"isTrustedForwarder(address)\":{\"details\":\"Indicates whether any particular address is the trusted forwarder.\"},\"launchCroptopRevnetFor(uint256,((string,string,string,bytes32),uint32,address,(uint40,(uint256,uint256,address)[],uint16,uint112,uint40,uint32,uint16)[]),(address,address[])[],(address,(address,uint24,uint32,uint32)[]),((address,(address,uint32,address,uint256)[])[],bytes32),((string,string,address,string,address,string,((uint104,uint32,uint32,uint16,address,bytes32,uint24,bool,bool,bool,bool,bool)[],uint32,uint8,address),address,(bool,bool,bool,bool)),bool,bool,bool),(address,uint256,bytes)[],uint16,(uint256,uint256,uint256,uint256,address[])[])\":{\"params\":{\"allowedPosts\":\"The type of posts that the revent should allow.\",\"buybackHookConfiguration\":\"Data used for setting up the buyback hook to use when determining the best price for new participants.\",\"configuration\":\"The data needed to deploy a basic revnet.\",\"extraHookMetadata\":\"Extra metadata to attach to the cycle for the delegates to use.\",\"hookConfiguration\":\"Data used for setting up the 721 tiers.\",\"otherPayHooksSpecifications\":\"Any hooks that should run when the revnet is paid alongside the 721 hook.\",\"revnetId\":\"The ID of the Juicebox project to turn into a revnet. Send 0 to deploy a new revnet.\",\"suckerDeploymentConfiguration\":\"Information about how this revnet relates to other's across chains.\",\"terminalConfigurations\":\"The terminals that the network uses to accept payments through.\"},\"returns\":{\"_0\":\"revnetId The ID of the newly created revnet.\",\"hook\":\"The address of the 721 hook that was deployed on the revnet.\"}},\"launchPayHookRevnetFor(uint256,((string,string,string,bytes32),uint32,address,(uint40,(uint256,uint256,address)[],uint16,uint112,uint40,uint32,uint16)[]),(address,address[])[],(address,(address,uint24,uint32,uint32)[]),((address,(address,uint32,address,uint256)[])[],bytes32),(address,uint256,bytes)[],uint16)\":{\"params\":{\"buybackHookConfiguration\":\"Data used for setting up the buyback hook to use when determining the best price for new participants.\",\"configuration\":\"The data needed to deploy a basic revnet.\",\"extraHookMetadata\":\"Extra metadata to attach to the cycle for the delegates to use.\",\"payHookSpecifications\":\"Any hooks that should run when the revnet is paid.\",\"revnetId\":\"The ID of the Juicebox project to turn into a revnet. Send 0 to deploy a new revnet.\",\"suckerDeploymentConfiguration\":\"Information about how this revnet relates to other's across chains.\",\"terminalConfigurations\":\"The terminals that the network uses to accept payments through.\"},\"returns\":{\"_0\":\"revnetId The ID of the newly created revnet.\"}},\"launchRevnetFor(uint256,((string,string,string,bytes32),uint32,address,(uint40,(uint256,uint256,address)[],uint16,uint112,uint40,uint32,uint16)[]),(address,address[])[],(address,(address,uint24,uint32,uint32)[]),((address,(address,uint32,address,uint256)[])[],bytes32))\":{\"params\":{\"buybackHookConfiguration\":\"Data used for setting up the buyback hook to use when determining the best price for new participants.\",\"configuration\":\"The data needed to deploy a basic revnet.\",\"revnetId\":\"The ID of the Juicebox project to turn into a revnet. Send 0 to deploy a new revnet.\",\"suckerDeploymentConfiguration\":\"Information about how this revnet relates to other's across chains.\",\"terminalConfigurations\":\"The terminals that the network uses to accept payments through.\"},\"returns\":{\"_0\":\"revnetId The ID of the newly created revnet.\"}},\"launchTiered721RevnetFor(uint256,((string,string,string,bytes32),uint32,address,(uint40,(uint256,uint256,address)[],uint16,uint112,uint40,uint32,uint16)[]),(address,address[])[],(address,(address,uint24,uint32,uint32)[]),((address,(address,uint32,address,uint256)[])[],bytes32),((string,string,address,string,address,string,((uint104,uint32,uint32,uint16,address,bytes32,uint24,bool,bool,bool,bool,bool)[],uint32,uint8,address),address,(bool,bool,bool,bool)),bool,bool,bool),(address,uint256,bytes)[],uint16)\":{\"params\":{\"buybackHookConfiguration\":\"Data used for setting up the buyback hook to use when determining the best price for new participants.\",\"configuration\":\"The data needed to deploy a basic revnet.\",\"extraHookMetadata\":\"Extra metadata to attach to the cycle for the delegates to use.\",\"hookConfiguration\":\"Data used for setting up the 721 tiers.\",\"otherPayHooksSpecifications\":\"Any hooks that should run when the revnet is paid alongside the 721 hook.\",\"revnetId\":\"The ID of the Juicebox project to turn into a revnet. Send 0 to deploy a new revnet.\",\"suckerDeploymentConfiguration\":\"Information about how this revnet relates to other's across chains.\",\"terminalConfigurations\":\"The terminals that the network uses to accept payments through.\"},\"returns\":{\"_0\":\"revnetId The ID of the newly created revnet.\",\"hook\":\"The address of the 721 hook that was deployed on the revnet.\"}},\"mintFor(uint256,uint256,address)\":{\"params\":{\"beneficiary\":\"The address to mint tokens to.\",\"revnetId\":\"The ID of the revnet to mint tokens from.\",\"stageId\":\"The ID of the stage to mint tokens from.\"}},\"onERC721Received(address,address,uint256,bytes)\":{\"details\":\"Make sure only mints can be received.\"},\"payHookSpecificationsOf(uint256)\":{\"params\":{\"revnetId\":\"The ID of the revnet to which the extensions apply.\"},\"returns\":{\"_0\":\"payHookSpecifications The pay hooks.\"}},\"replaceSplitOperatorOf(uint256,address)\":{\"params\":{\"newSplitOperator\":\"The address of the new split operator.\",\"revnetId\":\"The ID of the revnet having its operator replaced.\"}},\"supportsInterface(bytes4)\":{\"details\":\"See {IERC165-supportsInterface}.\",\"params\":{\"interfaceId\":\"The ID of the interface to check for adherence to.\"},\"returns\":{\"_0\":\"A flag indicating if the provided interface ID is supported.\"}},\"trustedForwarder()\":{\"details\":\"Returns the address of the trusted forwarder.\"}},\"version\":1},\"userdoc\":{\"kind\":\"user\",\"methods\":{\"CONTROLLER()\":{\"notice\":\"The controller that networks are made from.\"},\"EXIT_DELAY()\":{\"notice\":\"The amount of time from a sucker being deployed to when it can facilitate exits.\"},\"HOOK_DEPLOYER()\":{\"notice\":\"The contract responsible for deploying the tiered 721 hook.\"},\"PUBLISHER()\":{\"notice\":\"The croptop publisher that facilitates the permissioned publishing of 721 posts to a revnet.\"},\"SUCKER_REGISTRY()\":{\"notice\":\"The registry that deploys and tracks each project's suckers.\"},\"allowedMintCountOf(uint256,uint256,address)\":{\"notice\":\"The specification of how many tokens are still allowed to be minted at each stage of a revnet.\"},\"beforePayRecordedWith((address,address,(address,uint256,uint256,uint256),uint256,uint256,address,uint256,uint256,bytes))\":{\"notice\":\"This function gets called when the revnet receives a payment.\"},\"beforeRedeemRecordedWith((address,address,uint256,uint256,uint256,uint256,(address,uint256,uint256,uint256),bool,uint256,bytes))\":{\"notice\":\"This function is never called, it needs to be included to adhere to the interface.\"},\"buybackHookOf(uint256)\":{\"notice\":\"The data hook that returns the correct values for the buyback hook of each network.\"},\"deploySuckersFor(uint256,bytes,((address,(address,uint32,address,uint256)[])[],bytes32))\":{\"notice\":\"Allows a revnet's split operator to deploy new suckers to the revnet after it's deployed.\"},\"exitDelayOf(uint256)\":{\"notice\":\"The time at which exits from a revnet become allowed.\"},\"hasMintPermissionFor(uint256,address)\":{\"notice\":\"Required by the IJBRulesetDataHook interfaces.\"},\"launchCroptopRevnetFor(uint256,((string,string,string,bytes32),uint32,address,(uint40,(uint256,uint256,address)[],uint16,uint112,uint40,uint32,uint16)[]),(address,address[])[],(address,(address,uint24,uint32,uint32)[]),((address,(address,uint32,address,uint256)[])[],bytes32),((string,string,address,string,address,string,((uint104,uint32,uint32,uint16,address,bytes32,uint24,bool,bool,bool,bool,bool)[],uint32,uint8,address),address,(bool,bool,bool,bool)),bool,bool,bool),(address,uint256,bytes)[],uint16,(uint256,uint256,uint256,uint256,address[])[])\":{\"notice\":\"Launch a revnet that supports 721 sales.\"},\"launchPayHookRevnetFor(uint256,((string,string,string,bytes32),uint32,address,(uint40,(uint256,uint256,address)[],uint16,uint112,uint40,uint32,uint16)[]),(address,address[])[],(address,(address,uint24,uint32,uint32)[]),((address,(address,uint32,address,uint256)[])[],bytes32),(address,uint256,bytes)[],uint16)\":{\"notice\":\"Launch a basic revnet that also calls other specified pay hooks.\"},\"launchRevnetFor(uint256,((string,string,string,bytes32),uint32,address,(uint40,(uint256,uint256,address)[],uint16,uint112,uint40,uint32,uint16)[]),(address,address[])[],(address,(address,uint24,uint32,uint32)[]),((address,(address,uint32,address,uint256)[])[],bytes32))\":{\"notice\":\"Launch a basic revnet.\"},\"launchTiered721RevnetFor(uint256,((string,string,string,bytes32),uint32,address,(uint40,(uint256,uint256,address)[],uint16,uint112,uint40,uint32,uint16)[]),(address,address[])[],(address,(address,uint24,uint32,uint32)[]),((address,(address,uint32,address,uint256)[])[],bytes32),((string,string,address,string,address,string,((uint104,uint32,uint32,uint16,address,bytes32,uint24,bool,bool,bool,bool,bool)[],uint32,uint8,address),address,(bool,bool,bool,bool)),bool,bool,bool),(address,uint256,bytes)[],uint16)\":{\"notice\":\"Launch a revnet that supports 721 sales.\"},\"mintFor(uint256,uint256,address)\":{\"notice\":\"Mint tokens from a revnet to a specified beneficiary according to the rules set for the revnet.\"},\"payHookSpecificationsOf(uint256)\":{\"notice\":\"The pay hooks to include during payments to networks.\"},\"replaceSplitOperatorOf(uint256,address)\":{\"notice\":\"A revnet's operator can replace itself.\"},\"supportsInterface(bytes4)\":{\"notice\":\"Indicates if this contract adheres to the specified interface.\"}},\"version\":1}},\"settings\":{\"remappings\":[\"@arbitrum/=node_modules/@arbitrum/\",\"@bananapus/=node_modules/@bananapus/\",\"@chainlink/=node_modules/@chainlink/\",\"@croptop/=node_modules/@croptop/\",\"@eth-optimism/=node_modules/@eth-optimism/\",\"@exhausted-pigeon/=node_modules/@exhausted-pigeon/\",\"@offchainlabs/=node_modules/@offchainlabs/\",\"@openzeppelin/=node_modules/@openzeppelin/\",\"@prb/=node_modules/@prb/\",\"@scroll-tech/=node_modules/@scroll-tech/\",\"@sphinx-labs/contracts/=node_modules/@sphinx-labs/contracts/contracts/foundry/\",\"@uniswap/=node_modules/@uniswap/\",\"base64-sol/=node_modules/base64-sol/\",\"ds-test/=lib/forge-std/lib/ds-test/src/\",\"forge-std/=lib/forge-std/src/\",\"hardhat/=node_modules/hardhat/\",\"solmate/=node_modules/solmate/\",\"sphinx/=lib/sphinx/packages/contracts/contracts/forge-std/src/\"],\"optimizer\":{\"enabled\":true,\"runs\":1000},\"metadata\":{\"bytecodeHash\":\"ipfs\"},\"compilationTarget\":{\"src/REVCroptopDeployer.sol\":\"REVCroptopDeployer\"},\"evmVersion\":\"paris\",\"libraries\":{}},\"sources\":{\"node_modules/@bananapus/721-hook/src/interfaces/IJB721Hook.sol\":{\"keccak256\":\"0x24935445bc4c5b0fe2a10aabe549122588940842a68e79a8c39b1df9458dd7fd\",\"urls\":[\"bzz-raw://1dee273fa76d9abae116de911fdda5e3113db2a58939e62e24fba98c63fd037a\",\"dweb:/ipfs/QmT6Lih7DeRAfrLc8uC7ecaw2EAKwhaP2BZHeY5DxeeVLM\"],\"license\":\"MIT\"},\"node_modules/@bananapus/721-hook/src/interfaces/IJB721TiersHook.sol\":{\"keccak256\":\"0xbd9a8dae00a4b1a02c628bd172fe4ae496e49f7651426cef08774ffdb6125c23\",\"urls\":[\"bzz-raw://9ce4fd77d5af1f570dad6b70758f09f9599768e1ab32f6b473f6181197daa0c8\",\"dweb:/ipfs/QmWj6sCTvZ2CbfSyRuhaXADxYbwwPcR42pZokcgfjpsabg\"],\"license\":\"MIT\"},\"node_modules/@bananapus/721-hook/src/interfaces/IJB721TiersHookDeployer.sol\":{\"keccak256\":\"0xc4c6dfd2573fe1f130bc5193da68a622959a11562010fa261ffd3a8893e08a7b\",\"urls\":[\"bzz-raw://0c34f79121f6c777bca3df6c2e87c0caa05146bec45e9ae29f41b0532d16c88e\",\"dweb:/ipfs/QmZJQVZC8uuuSssXtLnhsvisz7V2PCKs2s1Hbzo8hmZ9ZP\"],\"license\":\"MIT\"},\"node_modules/@bananapus/721-hook/src/interfaces/IJB721TiersHookStore.sol\":{\"keccak256\":\"0x8550e216c12c9cda865c1b1b0eb3f244aeaa8d465b197d4bd0dd8d4df265682e\",\"urls\":[\"bzz-raw://674a312f1eaffd7c6b21f58f8d4a628104e71220daf48a22237fa3bd035ddf21\",\"dweb:/ipfs/QmSRSW6cSwdpoGjVxDqiwJmJyCxfHWhCxZ2iaqeJcN2Ccy\"],\"license\":\"MIT\"},\"node_modules/@bananapus/721-hook/src/interfaces/IJB721TokenUriResolver.sol\":{\"keccak256\":\"0xfa599167098f4459320ec4141a98a17b2dfffbce422baa27d8b4e4530f61ece1\",\"urls\":[\"bzz-raw://8b758b161f4c7b520b2c34b4d91e585e961b8f4ca278eebb91d791f7f2f45140\",\"dweb:/ipfs/QmcD9DF7NJ9QykQpT4KPzm4bs3fkjzukdAUWwdU6Atfw85\"],\"license\":\"MIT\"},\"node_modules/@bananapus/721-hook/src/structs/JB721InitTiersConfig.sol\":{\"keccak256\":\"0xfb78486cec94189d0ecf2050dc9cfc11245b426c73a0711a85bff1359d774307\",\"urls\":[\"bzz-raw://a8fa01f6e64dd204dbde07a60851e9a5a74e439e1411139ae16b7cf67d2a2692\",\"dweb:/ipfs/QmZAnHyfpKr3xr7NWHj5sGaCEEtG8RtmHhkRUJJvNauym5\"],\"license\":\"MIT\"},\"node_modules/@bananapus/721-hook/src/structs/JB721Tier.sol\":{\"keccak256\":\"0x2e267a8af02f125465cdda9308477346ae4a94b024c3b2c2a6af0c00027944dd\",\"urls\":[\"bzz-raw://367ccea2c8fa815d498d771d4367ef1ded718a76e89644102034bfe4a3636b82\",\"dweb:/ipfs/QmYiFFa6ei9wZBSSVUHfY2Cb35zCDVXvbmLcgLj2BTiC1u\"],\"license\":\"MIT\"},\"node_modules/@bananapus/721-hook/src/structs/JB721TierConfig.sol\":{\"keccak256\":\"0x2fa9c5c8cec182b854a656d3b284e9d5306be35ad3dc4da79d65dca12b804af0\",\"urls\":[\"bzz-raw://b443a5f70195a66145ea1dade04454ce9a3ff1209e1aaecf53c8a9909b294d79\",\"dweb:/ipfs/QmUDPFZ4L6XpV3zLQUNVchUvecD4XfddKz2S46BKek5XL1\"],\"license\":\"MIT\"},\"node_modules/@bananapus/721-hook/src/structs/JB721TiersHookFlags.sol\":{\"keccak256\":\"0x283d8429f31bd58875c056515aa42abd09c95362bd929e85cfc44a0d92585766\",\"urls\":[\"bzz-raw://9a580b89fe99d9f8e930c58a4d0d63a5ff7c01c79d210af01373d066c9e72ed6\",\"dweb:/ipfs/QmdY1eSGSoTjv4KSdsG4Tm5CzJN6iqk3qTRga5ZWNbejRz\"],\"license\":\"MIT\"},\"node_modules/@bananapus/721-hook/src/structs/JB721TiersMintReservesConfig.sol\":{\"keccak256\":\"0xab3b319dc4e736586ae595de194d93dcdfeba365bc7a54cf6c37e697f6074ad9\",\"urls\":[\"bzz-raw://a84ae2cf2e8c3e39e831dbb39a67a8eb43c78a6de6bb78b1be2e1f1e80c69efe\",\"dweb:/ipfs/QmboGXEMqsYTxc4a7oft9rggNU7ShWSa9yB4HFMVmzXCHz\"],\"license\":\"MIT\"},\"node_modules/@bananapus/721-hook/src/structs/JBDeploy721TiersHookConfig.sol\":{\"keccak256\":\"0x4f0b8bbc19a405a096a16977fa1eedc0c56640ef777add89c050f989a62a6a35\",\"urls\":[\"bzz-raw://bd009c66aa748a2ce04720a6376683ce01ced3c0bd7f9534e145263aa49d95d3\",\"dweb:/ipfs/QmXyJCS1uQevdkw1Gc4UrRs8fZKtW9wPWFY9pxUWHKLo4e\"],\"license\":\"MIT\"},\"node_modules/@bananapus/buyback-hook/src/interfaces/IJBBuybackHook.sol\":{\"keccak256\":\"0xbe5d7f3bf2e18b569676ba9194e248e6b1ed50022f5247b4f1fa124c91bfd418\",\"urls\":[\"bzz-raw://eb221d1570e8aad409c419b6a2f84351e818c3527f3f44b806cd64c84d7a8c86\",\"dweb:/ipfs/QmUPZstaKjPN7VTywg3Mt6bF75E53mQbmXhf3TxCggJbRR\"],\"license\":\"MIT\"},\"node_modules/@bananapus/buyback-hook/src/interfaces/external/IWETH9.sol\":{\"keccak256\":\"0x50083bcaca6c1a8d12c79116fab4f6d8cd452a510cb3f00c4a8bc3a54678efb7\",\"urls\":[\"bzz-raw://726f187112d0953c14bff8099a8c9ce1ead47eb25e90839f77b100feaaf16127\",\"dweb:/ipfs/QmTEnMENpLjcTQLMwz4kEUiQHfiTkaZT3TL37nQ8JiRYh5\"],\"license\":\"GPL-2.0-or-later\"},\"node_modules/@bananapus/core/src/abstract/JBPermissioned.sol\":{\"keccak256\":\"0x6486c11bff6384bfa938feb7aaacc977f457abff25b17b9aa094077d3fef71f8\",\"urls\":[\"bzz-raw://8b5190202326b6499391d5128cdb2d9ff44e91cd9ba6d8a5fe01e6f21259270d\",\"dweb:/ipfs/QmR2ufPwHtCAZYkJoyWyyag6BfdaWpaLk7VhuDc6BRLqVe\"],\"license\":\"MIT\"},\"node_modules/@bananapus/core/src/enums/JBApprovalStatus.sol\":{\"keccak256\":\"0x61c69b6bac7d24b566d87cda23a77e4ca9cdb87200b106aba8534cb9a0973e33\",\"urls\":[\"bzz-raw://6a9ca7249de76f77a8252eefe6bd1b63d47952f25a2acfa2c8db967cdff4470c\",\"dweb:/ipfs/QmaxSxptRQNj8bNy96EreENmrnRWdKmhyihBcxyWzBX5BN\"],\"license\":\"MIT\"},\"node_modules/@bananapus/core/src/interfaces/IJBController.sol\":{\"keccak256\":\"0xe0b84058192f89e461c4b604388aa11a2f92f0f9969fb70fb3c18706d6f3e16b\",\"urls\":[\"bzz-raw://984fdcff63a17ccab65ff7723a628967e40965fcb4d47909cf8e314e8f044576\",\"dweb:/ipfs/QmaaHZWuaaH3oYxCDrip1rr4u4H1XtR3RcwwKAE73GAqkd\"],\"license\":\"MIT\"},\"node_modules/@bananapus/core/src/interfaces/IJBDirectory.sol\":{\"keccak256\":\"0x9cc380844aef60078ee47a61861e55a29c4a8c947efd556ebd36e6909f7b9d62\",\"urls\":[\"bzz-raw://9f5190ec8b6683d9781ee6e9eedcc91294753242748875d4a06349077e4cbaaf\",\"dweb:/ipfs/QmTQrPuXT9TCA4txwrperMeXSGvGxP8iokUK47f62F388i\"],\"license\":\"MIT\"},\"node_modules/@bananapus/core/src/interfaces/IJBDirectoryAccessControl.sol\":{\"keccak256\":\"0x1e67f56849320a46f834aaa9bd62b170ff8ada7b224b4a81136193740fa0be4d\",\"urls\":[\"bzz-raw://ea8fbcec44abfe49d137bcae129b67e5479d6b17879301f88534c8a7fab00be4\",\"dweb:/ipfs/QmT6wrtYX4GRpffHUzupNwYebJ1dqkkKZLEewWsoyunsqw\"],\"license\":\"MIT\"},\"node_modules/@bananapus/core/src/interfaces/IJBFundAccessLimits.sol\":{\"keccak256\":\"0xf5fd6bdd723b60d490ccbe22cdf1cfe43663d23e6ee48badcd1b71e3282cb16b\",\"urls\":[\"bzz-raw://fe692f0b843ea5fccdfcb68f4ec16e1c0add945bb74b303c9866342be0e31fbf\",\"dweb:/ipfs/QmSRmzpgp3DhNEhNDiLsSu7yEiTeywbzEFbwyGyDazjgKt\"],\"license\":\"MIT\"},\"node_modules/@bananapus/core/src/interfaces/IJBMigratable.sol\":{\"keccak256\":\"0xd69bd5aba01a68d82c303ef3adde47532abcace030a94296c3ea6988b401789c\",\"urls\":[\"bzz-raw://88f11a1c89899327746beba4fc830abf3ac2eb9c152c778e884a6eed6564971f\",\"dweb:/ipfs/QmTpKhSTVewpz7VyKcz6BJwH2LFKMwT7Qi5HNWmjEjwsdK\"],\"license\":\"MIT\"},\"node_modules/@bananapus/core/src/interfaces/IJBPayHook.sol\":{\"keccak256\":\"0x9438866782c652c2942f4d114e35f393cd3c8b0334abce8387eed90bca35e8b2\",\"urls\":[\"bzz-raw://cfd99daf57213f92325aad7d7d16e98476d38e870470e95ba01e3ae3cdecc95d\",\"dweb:/ipfs/QmUKKAVGf7ki8BHksr99tFcRW8APveeB5tNH63ctTbbCW8\"],\"license\":\"MIT\"},\"node_modules/@bananapus/core/src/interfaces/IJBPermissioned.sol\":{\"keccak256\":\"0x5b038d4dee116584e88b230920e56d48e135053e3f7e5642eaea14a775c1dad7\",\"urls\":[\"bzz-raw://19e43102f349fd4a1da1c0943ffb8f2950007fe4bb4bb7e8f74fc142575d091b\",\"dweb:/ipfs/QmXHAt4KzDTdDZgDDefEXH2WKi7NcfkJb9R7nxW5uDqsNp\"],\"license\":\"MIT\"},\"node_modules/@bananapus/core/src/interfaces/IJBPermissions.sol\":{\"keccak256\":\"0x957d77a71cf8bb25df4a767e3c315fbd393df52ea8ea25af14e9fa268ac820bf\",\"urls\":[\"bzz-raw://c7891e986611d3cc0472a65310d160cad5b03c7e64c63b30430401d6418f8d77\",\"dweb:/ipfs/QmNZPfbyYvG8XPSPe9vrPNfDtvDsrLaXA3AzH28KSzwxHM\"],\"license\":\"MIT\"},\"node_modules/@bananapus/core/src/interfaces/IJBPriceFeed.sol\":{\"keccak256\":\"0x4bd84c0f1a5d4729ed709bcddd43f4c50ec4a165ece79780af8dce482ed07d4a\",\"urls\":[\"bzz-raw://62bac4bfb6982fb002f620c77e5c445e62d50241a5aa64a07e51d929f5a42180\",\"dweb:/ipfs/QmWgJUDreVY2BuMX38a1iUUR5kNbMwGnKG3VvurB7oZtuM\"],\"license\":\"MIT\"},\"node_modules/@bananapus/core/src/interfaces/IJBPrices.sol\":{\"keccak256\":\"0x99525f31440b955742dce84ba57de9fc1221139b5367c1f834723bef9e13e6e1\",\"urls\":[\"bzz-raw://6fa03f0cd4ad87dd7cbae7bf7f54463450874291773c8f70f2c31ef2cae62bb0\",\"dweb:/ipfs/QmSPajPV5ismteJuB6Spzm9VmhTj2iS3eVrfpJC1Zuzg8n\"],\"license\":\"MIT\"},\"node_modules/@bananapus/core/src/interfaces/IJBProjectUriRegistry.sol\":{\"keccak256\":\"0x2799475228987e4f8334ac33d3935f759c9b8133db7383b4f622dde7a5dc0502\",\"urls\":[\"bzz-raw://d751731740f45df74eea48c9667e847ee2cddb2980ab4939c86bd17e6c6ed89b\",\"dweb:/ipfs/QmXW8SLTuhdUpfn7pRpdsYdcyuim8RTyagU37ULcj5UZhT\"],\"license\":\"MIT\"},\"node_modules/@bananapus/core/src/interfaces/IJBProjects.sol\":{\"keccak256\":\"0x735c2fb8f1fa827f054ee77f7a0ae4b312656217acb75b624d2c8fd9dc40151b\",\"urls\":[\"bzz-raw://ee7fc92299a8633a80693ae63ab494dcd125f1789487a54a39dc0e5696e5996f\",\"dweb:/ipfs/QmX7YJD4pS2XhgQb7p3JbBAXynT7YGPXcZe92BiWWRrsCL\"],\"license\":\"MIT\"},\"node_modules/@bananapus/core/src/interfaces/IJBRedeemHook.sol\":{\"keccak256\":\"0x8ab46fcd7d0e739661eb76056ad93ff99106f38420ef0b4eb97fa9f4bb71a68a\",\"urls\":[\"bzz-raw://0ef96fcb7ad26281d444d8e0c677b25114fdd63b1c172d477e030dce8ba53b62\",\"dweb:/ipfs/Qmcx1jRQuwU4pZFuLxsSsx4oMbRaDfktHrPnXextgbWc5m\"],\"license\":\"MIT\"},\"node_modules/@bananapus/core/src/interfaces/IJBRulesetApprovalHook.sol\":{\"keccak256\":\"0x592e95d159494421c6b1bcb362d0cee1df0132921697351304e9cd7af4fbd386\",\"urls\":[\"bzz-raw://5bebfd5fa67c1b6ea16fa2e76e9520e9dfe52a579f48dd94d0c2ec45f78ad178\",\"dweb:/ipfs/QmRUawEGtfYoYSHmHELGhvJoWuMsxLPKtqAXgsrb7fJboP\"],\"license\":\"MIT\"},\"node_modules/@bananapus/core/src/interfaces/IJBRulesetDataHook.sol\":{\"keccak256\":\"0x13b4b9f4b847f62442da1c1a59b399f8f201b31a28edb96aa5a8a78ad57c24d0\",\"urls\":[\"bzz-raw://4fcd00b77d0f40cf6d5ee6590b6ef4ee1f606e89ae4c4faed3710fb462108f8e\",\"dweb:/ipfs/QmeoE54DQ3eGw9EDXfN7aTMmEjubAtirahmytDijo6GSeE\"],\"license\":\"MIT\"},\"node_modules/@bananapus/core/src/interfaces/IJBRulesets.sol\":{\"keccak256\":\"0x733fbe50cf2157c936a1d4f0014c14ca90a3da1b1379e2e8a802e39340ed1434\",\"urls\":[\"bzz-raw://f16a428bacc0310dffadd399f3ef2f5f5c2813ebc0e4f12955cac0062a192497\",\"dweb:/ipfs/QmXtG5VAsSLH5Ew6wegTaJn4ymPgiLGy3zN55JrqqxKVjd\"],\"license\":\"MIT\"},\"node_modules/@bananapus/core/src/interfaces/IJBSplitHook.sol\":{\"keccak256\":\"0xeb8dfac7a4b81897a1c3b5d0d853a406bcff33720fb187d5ca5bb3dcc0ba3a12\",\"urls\":[\"bzz-raw://36aaeef6107cfe5b0127e063ea215aac7200f8af02e28a48e61111abd3254688\",\"dweb:/ipfs/QmQ8yQANXnhQCAWBGKsKCDsJ3A8hnTKNg5tyo79GfWXTcV\"],\"license\":\"MIT\"},\"node_modules/@bananapus/core/src/interfaces/IJBSplits.sol\":{\"keccak256\":\"0x92deeb9e22ce2aaafc608b85e9250b8ea2deed1ebf64b7442038b157b2bfe0e6\",\"urls\":[\"bzz-raw://08bf29f0c13c2e8be46065277f67e44ecaea960cb5474f13775eece0672566c2\",\"dweb:/ipfs/QmeGu9C6tuBjfmeizmpzptxgGmch6Mbtm34NFwZxzMvqc4\"],\"license\":\"MIT\"},\"node_modules/@bananapus/core/src/interfaces/IJBTerminal.sol\":{\"keccak256\":\"0x19dc9bf8cbdc8f13ee5da9dc3a87047eacb94a3fc19740a286c1f0bad2cc39ca\",\"urls\":[\"bzz-raw://0b05ae6fda9a85672508232fd992b8a5f5ffd8096622eeb12c8a7b3317eb3867\",\"dweb:/ipfs/QmNh9Quj37BXYGdTdcCD1Q58PchRsE5TLbEZep56qS3MpV\"],\"license\":\"MIT\"},\"node_modules/@bananapus/core/src/interfaces/IJBToken.sol\":{\"keccak256\":\"0x71b1f9c3a0edd41910f77396e0be2c65596571176d53eb87e887c3c0da56c0fb\",\"urls\":[\"bzz-raw://6e956f0582f4525e83d845ee9b4a89959abc4f821414f6accbbee5b38960482d\",\"dweb:/ipfs/QmbSvjgmCgnfVmcCTGu8XwrV1Rufsf3M8hB8unFq6fTMdH\"],\"license\":\"MIT\"},\"node_modules/@bananapus/core/src/interfaces/IJBTokenUriResolver.sol\":{\"keccak256\":\"0xfa5cb00dcd6085d1ef912d071fe73c63f9478a2cd0f9d8bddaf659b6af2d0967\",\"urls\":[\"bzz-raw://282e4e7c342d65f77cde0e9a08fcaf20ef5cf379c7a48b639842c0ffd0b2afb8\",\"dweb:/ipfs/QmbnN3PEQeZaXdPLT75V1J79kMg7KqSMru37RHrL3z8Yf2\"],\"license\":\"MIT\"},\"node_modules/@bananapus/core/src/interfaces/IJBTokens.sol\":{\"keccak256\":\"0x6fd67af915dd541d9547c8297aa9ae269690e4ee23531db43f021bcacec6076f\",\"urls\":[\"bzz-raw://2e5e11954e9ab2319fffccb6563f3db400b8f7760d4ffe2165048a02c9c37fa6\",\"dweb:/ipfs/QmbDXtV83dK8EfiTjsTRf55R2XqPZzDKcjtYbW8sxQ5CFm\"],\"license\":\"MIT\"},\"node_modules/@bananapus/core/src/libraries/JBConstants.sol\":{\"keccak256\":\"0x9d3a9a953f859d8ec79a599577f8972de6da7199cc1bfa7fdad017d4d722bcb4\",\"urls\":[\"bzz-raw://f151fcb53a8d2684eff8b9e56ac790bcbcadd8199a4fd4d17c5b224b22936722\",\"dweb:/ipfs/QmdAz1ZtCE8nTiC4AxQNLfJhnY3ndGum2Lbef7seKdvTdR\"],\"license\":\"MIT\"},\"node_modules/@bananapus/core/src/libraries/JBMetadataResolver.sol\":{\"keccak256\":\"0x0117f5431b5e78de556ba2fbebb6b53db1b7e080dd4630ea4ee240a0b185fe4c\",\"urls\":[\"bzz-raw://1fbc04aaed314f3491be5f79cb6b6a277e3b7af64ef986736588b73450fe6078\",\"dweb:/ipfs/QmarLpFW8PBaXTLerZh9L5HpVCSCJLdDjoVMJJ9AWsX5mN\"],\"license\":\"MIT\"},\"node_modules/@bananapus/core/src/libraries/JBSplitGroupIds.sol\":{\"keccak256\":\"0x932ca2645d443f04f86c8ffb27b5c58c4fbdc7b5a145fba1d43f1db9bd488a0f\",\"urls\":[\"bzz-raw://fa412d2c5726a868a258cd518648726b0784ab7ac7566376b82ba09680f66227\",\"dweb:/ipfs/QmZvfjBt7PQzTWNzrhysyHBegUbbu4aY2xDzBGnwqMaqnF\"],\"license\":\"MIT\"},\"node_modules/@bananapus/core/src/structs/JBAccountingContext.sol\":{\"keccak256\":\"0x2907ff54d1e903cc7e0390dd88c3975884702dc2673642aacbe22b66560b56de\",\"urls\":[\"bzz-raw://a66a5381ce877b32f0e0058ceeaf843e9b6b2bc8af666c0c9f4a9d01091da004\",\"dweb:/ipfs/QmQynCetUr37dBkS1YwDS8evxuXGiqanW6THmeUxXtim8w\"],\"license\":\"MIT\"},\"node_modules/@bananapus/core/src/structs/JBAfterPayRecordedContext.sol\":{\"keccak256\":\"0xd26c3a774ff38be79064085970454fe2603a23a638c76270d5b1b3829206c3e8\",\"urls\":[\"bzz-raw://3b55dbe3bf1ef625b7ca04efab3de35406e6041d5b3d82c7265469c500e2b702\",\"dweb:/ipfs/QmUdBDo4Lt3mcsFcsXT2mqq3czFwZjQJFPLM89YA2VtD7k\"],\"license\":\"MIT\"},\"node_modules/@bananapus/core/src/structs/JBAfterRedeemRecordedContext.sol\":{\"keccak256\":\"0x521f5d23a36f0da72362cd84890cc867bd83baa8dc836ba6c5066d51dba2f163\",\"urls\":[\"bzz-raw://6cc461313286dde62d045d6288e87bae5032e035796326f5b1ed6218e58aa9da\",\"dweb:/ipfs/QmQS2AkQwf2ANQieDuaUnpJEdXChoLv4CCbZqHkfywYPSR\"],\"license\":\"MIT\"},\"node_modules/@bananapus/core/src/structs/JBBeforePayRecordedContext.sol\":{\"keccak256\":\"0x5b04e814da83c7e83ff892ab07eaad6abce6f7b85a75f8da9380e9fc3470bc81\",\"urls\":[\"bzz-raw://11c889aab993fce3e3cc2dedc15fc30dd367e7fef9b7b1bfd6a6a9f248781731\",\"dweb:/ipfs/QmVVtydCD1azeWhGLxA1hthxfLyKzMHZ1eVzCz3a3R5dLy\"],\"license\":\"MIT\"},\"node_modules/@bananapus/core/src/structs/JBBeforeRedeemRecordedContext.sol\":{\"keccak256\":\"0x73eadaf6827e82f6ccbe3a1e2b2b7fc6c59cef471f73335041b30ddcc000989d\",\"urls\":[\"bzz-raw://2f3ee84662eed565dbdaed406ef836fffaf55cccd417575578152e5085d0b1f2\",\"dweb:/ipfs/QmaJGFS7hxJsiUdKvbv5BKhSwceDEzKBnt7t5YeNWvYgMK\"],\"license\":\"MIT\"},\"node_modules/@bananapus/core/src/structs/JBCurrencyAmount.sol\":{\"keccak256\":\"0x12fe4b43f4824994624d4fe0abbd88c3fe7867fd637edb65c7f456dab27e2d6e\",\"urls\":[\"bzz-raw://8003a3e8f932cf891e86b827e67c9d31b0d34c2712e18c2bc333cfe5284ba6d5\",\"dweb:/ipfs/QmSoA6RsDcSnNzk6CB7KZtALkHmeSDAi2g6fg3TDmLDkWX\"],\"license\":\"MIT\"},\"node_modules/@bananapus/core/src/structs/JBFundAccessLimitGroup.sol\":{\"keccak256\":\"0x9fdaa8d017b72da25f583700a444a86849df053f7fb8eac874ec5139bcf651e5\",\"urls\":[\"bzz-raw://c8e44c49ee444a98424a0dbeb6897a76a0bf00d88a613f62ac2012afdac754ee\",\"dweb:/ipfs/QmdYkAiRi5bXM1YYNkc7BiqimHSFodMGn1cjHR5hcpm4xH\"],\"license\":\"MIT\"},\"node_modules/@bananapus/core/src/structs/JBPayHookSpecification.sol\":{\"keccak256\":\"0x955f0bfca97300b9e5927dc181753830ee362f83fa9ca32a90daade32aa0cfd5\",\"urls\":[\"bzz-raw://f517af1597c7c40f8d3da53f7a6684a3e162950a16559d6bf6ea3b727bb11546\",\"dweb:/ipfs/QmRWo2ZTYXmVZTzNJDYhsJNsEaHphjpUfx9eNz2cciyz86\"],\"license\":\"MIT\"},\"node_modules/@bananapus/core/src/structs/JBPermissionsData.sol\":{\"keccak256\":\"0x8f0f69a6ebf5f3704e3dfcb3712fb9d3f94ae7c1ab89bf3e37bad42a3e7a0487\",\"urls\":[\"bzz-raw://57b0c5e52843e2217082889ed47b4da3943e0da4590d5768dcebfe3edad4a6b8\",\"dweb:/ipfs/QmRz48vuWLw81kUP836rh1qzqWiJFGbksgRUA9xGEDNKTY\"],\"license\":\"MIT\"},\"node_modules/@bananapus/core/src/structs/JBRedeemHookSpecification.sol\":{\"keccak256\":\"0x673d16ee1a91bf8de3b37e57284e60451b70a9c2d748c9cdc7a151f5624af18f\",\"urls\":[\"bzz-raw://ceeb5e81effa0f076c5630c756dfcf1548d09f822b255a0a6ee01e54de8c8ae2\",\"dweb:/ipfs/QmSMoMNPRhPMnuJNvWa6S59XRfycGz9o2ApNp63bUW6TdX\"],\"license\":\"MIT\"},\"node_modules/@bananapus/core/src/structs/JBRuleset.sol\":{\"keccak256\":\"0x15b2bf3174d84846a91ccbf5a344dfb125b55ed9cf50102db8d6868844225189\",\"urls\":[\"bzz-raw://647416b025dbd941094db89cbc69f755c155bd6c87be3f322394ccc4a8e0442d\",\"dweb:/ipfs/QmTCL9xcHnxQ4t5AmCPoZvXDUPW5xhzhyyXYbkMdyg44au\"],\"license\":\"MIT\"},\"node_modules/@bananapus/core/src/structs/JBRulesetConfig.sol\":{\"keccak256\":\"0x0be470df286939259a6b98bc71459e661e81d56a58226d6a574ae1484f8f8e6c\",\"urls\":[\"bzz-raw://64592c279ba7518ac180c835a539897163f299a439065f2cc8aa54086a2c9ad7\",\"dweb:/ipfs/QmaEepVvFJdXcDBMMr7SQYjZSDJXPtCca95kQY5rZbra6U\"],\"license\":\"MIT\"},\"node_modules/@bananapus/core/src/structs/JBRulesetMetadata.sol\":{\"keccak256\":\"0xef3c5876a38739c8a40a3160129326dbb32a7496c994d352fcca4b465c877dff\",\"urls\":[\"bzz-raw://eb3808d1758ef829acb29f8317e9659199ff33eb0090b7e00730b8aeab9f8e1b\",\"dweb:/ipfs/QmbHPRCsDfCnU9KCnFN5i6Mhy3dJ3aatHksinWqMMWWEmS\"],\"license\":\"MIT\"},\"node_modules/@bananapus/core/src/structs/JBRulesetWithMetadata.sol\":{\"keccak256\":\"0x1bcfadf20488f6df65227f8d4d0fbf9b7539456a2389567f7fe3900d23289bc3\",\"urls\":[\"bzz-raw://0a15c399a71e5373f8c0484c6d6b83521eda31e063a2c53e4c5cec4e74550343\",\"dweb:/ipfs/QmQwi8zkjoTVXbK89NeETYimWCacTrNsesJdpLSvGdqMPX\"],\"license\":\"MIT\"},\"node_modules/@bananapus/core/src/structs/JBSplit.sol\":{\"keccak256\":\"0x1d40fa4f1c911a53b9139f3d44d27cb58fa5c5d2cd793c7a21ccf52b9e61f848\",\"urls\":[\"bzz-raw://9897d2c29fc65fe16e4eac0b7b8b6fd8ef0b0cc501986f7f0c3a78c4ec1dbb60\",\"dweb:/ipfs/QmXcHoVjCYWWCz4hm2KZ6JxtB4YNq7jmXa2evLkga59Xwq\"],\"license\":\"MIT\"},\"node_modules/@bananapus/core/src/structs/JBSplitGroup.sol\":{\"keccak256\":\"0xda7da6e88aac2906c7ea4027660088daf217edc632bebca4d72795aae8921564\",\"urls\":[\"bzz-raw://ae1939d17e94cb51484f31ce64cf0df990445a338fb9b38d39a7baf28275ae4a\",\"dweb:/ipfs/QmUhPnJiWnYhFdtLvZnrPopAdbYXxETpGjvxjPDignpTGY\"],\"license\":\"MIT\"},\"node_modules/@bananapus/core/src/structs/JBSplitHookContext.sol\":{\"keccak256\":\"0xfe34e6860b00ca93d71f44e72882281b2c57c31303151af05795c74cfdd2e51d\",\"urls\":[\"bzz-raw://08acab094888e9c929b6f6f972d89ddbb31e5867675e7e7c602d25fcb2c0f402\",\"dweb:/ipfs/QmPNdXM185cTyXQSodVr4JMviHx88jrWu7dipgkp9xTNgJ\"],\"license\":\"MIT\"},\"node_modules/@bananapus/core/src/structs/JBTerminalConfig.sol\":{\"keccak256\":\"0xd162f3821a1ccafbc8d7d108369e39ac3048445a8c7fe7a3fa97a6343f9eefaa\",\"urls\":[\"bzz-raw://82172ea0407b6d9edc45e408c7e8edb8e129adf49a94349fe3a5862da9bc044e\",\"dweb:/ipfs/QmWheF5Tjq2hcabnSzfYqdFHUA1YxYEdAPZaRw9N166V1d\"],\"license\":\"MIT\"},\"node_modules/@bananapus/core/src/structs/JBTokenAmount.sol\":{\"keccak256\":\"0x5cf0626b73a596c1e2da17c89ae039a7c0374310b060d48568d3b6c11fbe6180\",\"urls\":[\"bzz-raw://63348b50be95e2995409394a17caffc563a646f0972650a1230bf864fbd3219b\",\"dweb:/ipfs/QmZXZpS3SbFD5nWaCauf6AqbEhLURv5qsKHpThBvQgDU6u\"],\"license\":\"MIT\"},\"node_modules/@bananapus/ownable/src/JBOwnable.sol\":{\"keccak256\":\"0x5b0aec2bc7164bdb972bfb9f71660c887308cf3a72738c7469d03bf264cf0d54\",\"urls\":[\"bzz-raw://bf4f60cebc0a707004371425aa3c8751b6a84dfb4fc9bf788160ae9ac1e906f6\",\"dweb:/ipfs/QmegUfWLhKuByQTkfMkmwkEs2Tk5ZEuR56DqQw5kxFzP3d\"],\"license\":\"MIT\"},\"node_modules/@bananapus/ownable/src/JBOwnableOverrides.sol\":{\"keccak256\":\"0x70a7c55f2a0f4324b63afe61e9d0de6e54396073e431844a19936d2aaaf6d7dd\",\"urls\":[\"bzz-raw://94c55139a8e974e2a88c6f0fc7594be3044742cfc499c989051eaf6664ec7dab\",\"dweb:/ipfs/QmQPnLAootqEGzpHRdhsYGBU3cqicRYLAe6bTti2UCBHyS\"],\"license\":\"MIT\"},\"node_modules/@bananapus/ownable/src/interfaces/IJBOwnable.sol\":{\"keccak256\":\"0x2c513558439d763df03e8a68c1aef698618182fd44c285405c35597d52c65ad1\",\"urls\":[\"bzz-raw://11cc25c41fccc20cca29f93dd120e67760188fd2040ef0330a093d37fbfa2f8f\",\"dweb:/ipfs/QmWpxcv41eYmsNYT3ph1nts5pC7sp3EzwJxKDGebMqEbsH\"],\"license\":\"MIT\"},\"node_modules/@bananapus/ownable/src/struct/JBOwner.sol\":{\"keccak256\":\"0x5624ba356f01f722984c1b857a106f413b12e57bae1f762a81c16ee511e3325a\",\"urls\":[\"bzz-raw://3120b5649ac8b55158df138dcac03f6850fc988cc5a24a7cb06e6581265ca284\",\"dweb:/ipfs/QmQBSLxRT9j1MEERUt8dWbSsAjianbHpM2CFwciLK7MwaP\"],\"license\":\"MIT\"},\"node_modules/@bananapus/permission-ids/src/JBPermissionIds.sol\":{\"keccak256\":\"0x31f5dfb044f5bae2f8415579b3afbbdcfb424015a1e69a2f8451a07134f3d36b\",\"urls\":[\"bzz-raw://85f313e53f6e442b33190741224f2b782b8d12579b4141ab2fac2e3bb8d47388\",\"dweb:/ipfs/QmVSZWkeuTkvAujzSbADfvfvv78Xs8mop3JbStyzDhVqtn\"],\"license\":\"MIT\"},\"node_modules/@bananapus/suckers/src/interfaces/IBPSucker.sol\":{\"keccak256\":\"0x2a3136ea5608c3e76b9f3114a470980f2a96427535aaccbd65dcc37d3a3dd0f8\",\"urls\":[\"bzz-raw://8cc997a396b183525892a0640ce03aee9fa3f15971266c826a308f6c74ff63f2\",\"dweb:/ipfs/QmZcoMkGbujqLm5B9v5urpFwUVg2uoG7ybPHX8RRxsygpe\"],\"license\":\"MIT\"},\"node_modules/@bananapus/suckers/src/interfaces/IBPSuckerDeployer.sol\":{\"keccak256\":\"0x7592282265ffd3000787eb20d1ccdd698cb6f2eb641dfddcd2b61978eb5105a2\",\"urls\":[\"bzz-raw://1f4ac54122cbd52758573f23856e243635be43aa974f234e1a5560eef9990794\",\"dweb:/ipfs/QmXHXr5CGh2hT9UMsLdCZNT4XmRMTf9SuBNRwTtyN9Z2Re\"],\"license\":\"MIT\"},\"node_modules/@bananapus/suckers/src/interfaces/IBPSuckerRegistry.sol\":{\"keccak256\":\"0xaed1d396dd1748585f4f16cd72519efadcb089ecd9b8a1786d3d353cffb6218a\",\"urls\":[\"bzz-raw://94de3a0692ac733ab780449431dea24e402b41c7c768fc7868bf0f259a65d80d\",\"dweb:/ipfs/QmR3STDP2YbPi7LTsAC3XSv2gT7GMD83krYeReFVDE4eKU\"],\"license\":\"UNLICENSED\"},\"node_modules/@bananapus/suckers/src/structs/BPSuckerDeployerConfig.sol\":{\"keccak256\":\"0x867e10bc73a07ab19cf5511d047dc885e3cfae58fc5f3441f6a5d3174afe6b78\",\"urls\":[\"bzz-raw://b8c3e72e57958bb2e2b8072ac6055804598c080a748fbc2f40a783575435809e\",\"dweb:/ipfs/QmbY7W6i5qAAj42EsQX8yt8M8nXArXByEGosnHWyxs4BE7\"],\"license\":\"MIT\"},\"node_modules/@bananapus/suckers/src/structs/BPTokenMapping.sol\":{\"keccak256\":\"0x84865bda925cdc9a608cbbfc487619acba391f98ae12bbbfdbc5779d617a17d9\",\"urls\":[\"bzz-raw://3bbc1fdd38feaf64fd4914bddb62cda7e5b8ee0f046a0eac8cfcb15f9493bcc5\",\"dweb:/ipfs/QmXgAx7sr1M8r71YrSeQJGAB1uhvdxpQyS633UgJvLCQfb\"],\"license\":\"MIT\"},\"node_modules/@croptop/core/src/CTPublisher.sol\":{\"keccak256\":\"0xc64ec137bfb5a8c8d9aa144007aabe5d6259942795d388204b5be1c6be169741\",\"urls\":[\"bzz-raw://c0ea8c46186797ff8be94776aa44ca3ed36b0ba06f937e6da8b770bc69c6f878\",\"dweb:/ipfs/QmbBt3rgkzGNTFky15AsSifn9kL5QzubG6G9VJMB5sgAHd\"],\"license\":\"MIT\"},\"node_modules/@croptop/core/src/structs/CTAllowedPost.sol\":{\"keccak256\":\"0x072d333f2d038122ec130dfa11e5b62d18bb3242410d5566d1fcd58037bfb896\",\"urls\":[\"bzz-raw://66e85b05060db5795d274cca1306037c524e6bfefd1138d1b5fec0ba662f9615\",\"dweb:/ipfs/QmQ845kW7MPHtQW7EzHTTdLerd6vN2Wn2dPJm5D6DZ77LM\"],\"license\":\"MIT\"},\"node_modules/@croptop/core/src/structs/CTPost.sol\":{\"keccak256\":\"0x7e3dd85bc455816d7cf1b260fe53c7b1ff7512fce75ce3b6d9fdc094bcda33c8\",\"urls\":[\"bzz-raw://6cc25819e7ef95cb45ea71c54af01db95f75d0ccf1a23390a6153f4ae7df1c88\",\"dweb:/ipfs/QmTJCj1Rn7uEXRcaZBNqxrBXWXM9f24dphb9TaoLe3Ts41\"],\"license\":\"MIT\"},\"node_modules/@openzeppelin/contracts/metatx/ERC2771Context.sol\":{\"keccak256\":\"0x98256cf37b71a69b2f5a8a6fe975ea03590dff703102bd141a830f94e8adebf6\",\"urls\":[\"bzz-raw://6251fe1f6a1e45e6d619d150c123afc88b8646b38ee26a136efa9a6988a31d3f\",\"dweb:/ipfs/QmeXDT85wSZdP31wkz3ah3KhponCiksJLP5o2LR5e1JxcK\"],\"license\":\"MIT\"},\"node_modules/@openzeppelin/contracts/token/ERC20/IERC20.sol\":{\"keccak256\":\"0xc6a8ff0ea489379b61faa647490411b80102578440ab9d84e9a957cc12164e70\",\"urls\":[\"bzz-raw://0ea104e577e63faea3b69c415637e99e755dcbf64c5833d7140c35a714d6d90c\",\"dweb:/ipfs/Qmau6x4Ns9XdyynRCNNp3RhLqijJjFm7z5fyZazfYFGYdq\"],\"license\":\"MIT\"},\"node_modules/@openzeppelin/contracts/token/ERC721/IERC721.sol\":{\"keccak256\":\"0x5ef46daa3b58ef2702279d514780316efaa952915ee1aa3396f041ee2982b0b4\",\"urls\":[\"bzz-raw://2f8f2a76e23b02fc69e8cd24c3cb47da6c7af3a2d6c3a382f8ac25c6e094ade7\",\"dweb:/ipfs/QmPV4ZS4tPVv4mTCf9ejyZ1ai57EEibDRj7mN2ARDCLV5n\"],\"license\":\"MIT\"},\"node_modules/@openzeppelin/contracts/token/ERC721/IERC721Receiver.sol\":{\"keccak256\":\"0x7f7a26306c79a65fb8b3b6c757cd74660c532cd8a02e165488e30027dd34ca49\",\"urls\":[\"bzz-raw://d01e0b2b837ee2f628545e54d8715b49c7ef2befd08356c2e7f6c50dde8a1c22\",\"dweb:/ipfs/QmWBAn6y2D1xgftci97Z3qR9tQnkvwQpYwFwkTvDMvqU4i\"],\"license\":\"MIT\"},\"node_modules/@openzeppelin/contracts/utils/Context.sol\":{\"keccak256\":\"0x493033a8d1b176a037b2cc6a04dad01a5c157722049bbecf632ca876224dd4b2\",\"urls\":[\"bzz-raw://6a708e8a5bdb1011c2c381c9a5cfd8a9a956d7d0a9dc1bd8bcdaf52f76ef2f12\",\"dweb:/ipfs/Qmax9WHBnVsZP46ZxEMNRQpLQnrdE4dK8LehML1Py8FowF\"],\"license\":\"MIT\"},\"node_modules/@openzeppelin/contracts/utils/introspection/ERC165.sol\":{\"keccak256\":\"0x9e8778b14317ba9e256c30a76fd6c32b960af621987f56069e1e819c77c6a133\",\"urls\":[\"bzz-raw://1777404f1dcd0fac188e55a288724ec3c67b45288e49cc64723e95e702b49ab8\",\"dweb:/ipfs/QmZFdC626GButBApwDUvvTnUzdinevC3B24d7yyh57XkiA\"],\"license\":\"MIT\"},\"node_modules/@openzeppelin/contracts/utils/introspection/IERC165.sol\":{\"keccak256\":\"0x4296879f55019b23e135000eb36896057e7101fb7fb859c5ef690cf14643757b\",\"urls\":[\"bzz-raw://87b3541437c8c443ccd36795e56a338ed12855eec17f8da624511b8d1a7e14df\",\"dweb:/ipfs/QmeJQCtZrQjtJLr6u7ZHWeH3pBnjtLWzvRrKViAi7UZqxL\"],\"license\":\"MIT\"},\"node_modules/@uniswap/v3-core/contracts/interfaces/IUniswapV3Pool.sol\":{\"keccak256\":\"0x4e64844c56061cd90e0a80de73534a9166704c43eed579eb83f90bc2780ce968\",\"urls\":[\"bzz-raw://cba4fab5cebdddf644b901994a7f0f52b98885d4c56012f4dc51d52c2bf9de0e\",\"dweb:/ipfs/QmVyyrRmqXrAiapewWunRVgiPVFJHpH2hKiE1py1svMSNV\"],\"license\":\"GPL-2.0-or-later\"},\"node_modules/@uniswap/v3-core/contracts/interfaces/callback/IUniswapV3SwapCallback.sol\":{\"keccak256\":\"0x3f485fb1a44e8fbeadefb5da07d66edab3cfe809f0ac4074b1e54e3eb3c4cf69\",\"urls\":[\"bzz-raw://095ce0626b41318c772b3ebf19d548282607f6a8f3d6c41c13edfbd5370c8652\",\"dweb:/ipfs/QmVDZfJJ89UUCE1hMyzqpkZAtQ8jUsBgZNE5AMRG7RzRFS\"],\"license\":\"GPL-2.0-or-later\"},\"node_modules/@uniswap/v3-core/contracts/interfaces/pool/IUniswapV3PoolActions.sol\":{\"keccak256\":\"0x9453dd0e7442188667d01d9b65de3f1e14e9511ff3e303179a15f6fc267f7634\",\"urls\":[\"bzz-raw://982f4328f956c3e60e67501e759eb292ac487f76460c774c50e9ae4fcc92aae5\",\"dweb:/ipfs/QmRnzEDsaqtd9PJEVcgQi7p5aV5pMSvRUoGZJAdwFUJxgZ\"],\"license\":\"GPL-2.0-or-later\"},\"node_modules/@uniswap/v3-core/contracts/interfaces/pool/IUniswapV3PoolDerivedState.sol\":{\"keccak256\":\"0xe603ac5b17ecdee73ba2b27efdf386c257a19c14206e87eee77e2017b742d9e5\",\"urls\":[\"bzz-raw://8febc9bdb399a4d94bb89f5377732652e2400e4a8dee808201ade6848f9004e7\",\"dweb:/ipfs/QmaKDqYYFU4d2W2iN77aDHptfbFmYZRrMYXHeGpJmM8C1c\"],\"license\":\"GPL-2.0-or-later\"},\"node_modules/@uniswap/v3-core/contracts/interfaces/pool/IUniswapV3PoolErrors.sol\":{\"keccak256\":\"0xf80abf13fb1fafc127ba4e792f240dd8ea7c8c893978cdfd8439c27fae9a037b\",\"urls\":[\"bzz-raw://b04fc72a656bbf3631e9c2e67b9870a2d9d235185e833fe050e9606e6816a9aa\",\"dweb:/ipfs/QmUcz4bkEkJ9pwzFu1C3n97hBQ3st9U6qTAqCdyFwddKco\"],\"license\":\"GPL-2.0-or-later\"},\"node_modules/@uniswap/v3-core/contracts/interfaces/pool/IUniswapV3PoolEvents.sol\":{\"keccak256\":\"0x8071514d0fe5d17d6fbd31c191cdfb703031c24e0ece3621d88ab10e871375cd\",\"urls\":[\"bzz-raw://d0b571930cc7488b1d546a7e9cea7c52d8b3c4e207da657ed0e0db7343b8cd03\",\"dweb:/ipfs/QmaGK6vVwB95QSTR1XMYvrh7ivYAYZxi3fD7v6VMA4jZ39\"],\"license\":\"GPL-2.0-or-later\"},\"node_modules/@uniswap/v3-core/contracts/interfaces/pool/IUniswapV3PoolImmutables.sol\":{\"keccak256\":\"0xf6e5d2cd1139c4c276bdbc8e1d2b256e456c866a91f1b868da265c6d2685c3f7\",\"urls\":[\"bzz-raw://b99c8c9ae8e27ee6559e5866bea82cbc9ffc8247f8d15b7422a4deb287d4d047\",\"dweb:/ipfs/QmfL8gaqt3ffAnm6nVj5ksuNpLygXuL3xq5VBqrkwC2JJ3\"],\"license\":\"GPL-2.0-or-later\"},\"node_modules/@uniswap/v3-core/contracts/interfaces/pool/IUniswapV3PoolOwnerActions.sol\":{\"keccak256\":\"0x759b78a2918af9e99e246dc3af084f654e48ef32bb4e4cb8a966aa3dcaece235\",\"urls\":[\"bzz-raw://64144fb96e1c7fdba87305acadb98a198d26a3d46c097cb3a666e567f6f29735\",\"dweb:/ipfs/QmUnWVwN9FKB9uV5Pr8YfLpWZnYM2DENnRMaadZ492JS9u\"],\"license\":\"GPL-2.0-or-later\"},\"node_modules/@uniswap/v3-core/contracts/interfaces/pool/IUniswapV3PoolState.sol\":{\"keccak256\":\"0x44fa2ce1182f6c2f6bead3d1737804bf7e112252ae86e0f2e92f9b8249603f43\",\"urls\":[\"bzz-raw://54154e8665b98d65f5dc91b256551852cb47882180b501b260657122d207c0ea\",\"dweb:/ipfs/QmcfemK1A2PXYrWB5SBFGERpMCderbFRb8BtTzQDj1sUBp\"],\"license\":\"GPL-2.0-or-later\"},\"src/REVBasicDeployer.sol\":{\"keccak256\":\"0x623a6dc23c0fa893fdc144ac37edb8308b39459ac818cc0b0f7eb63e18c29f70\",\"urls\":[\"bzz-raw://c7a4e281ae733d47aa48866d18f09cc7a87065dda0024042f7854e8b5e098e2e\",\"dweb:/ipfs/QmV8bWvhhRo7kKc1hr1jcAHxdW9xrjMkVjCK8N87VH4uLz\"],\"license\":\"MIT\"},\"src/REVCroptopDeployer.sol\":{\"keccak256\":\"0x1dba21369ad87a23fcb0f34f411f14de3d7bbf678dddde07748460334e2af106\",\"urls\":[\"bzz-raw://43e8f0acf7c8136f336edd59e5588f9ff6f3c37617dd5f19d6d9fe08848b5acc\",\"dweb:/ipfs/QmZUykqeY8tEB1Qkh9qQZtUhNxMorHfhg29rJNpmq7f7tc\"],\"license\":\"MIT\"},\"src/REVPayHookDeployer.sol\":{\"keccak256\":\"0xf9ce2223a28d47e919ceeefd064036765938727cbc068fa757a5e7098abad2c2\",\"urls\":[\"bzz-raw://a107b94598b20e6a3f577af0c9a3b1134dfdf0fe7966cdc6e35ff37004efde06\",\"dweb:/ipfs/QmcQfukUrLUrAK7oqp3FvX47VdWRnaU7crDCpgwf8zQATT\"],\"license\":\"MIT\"},\"src/REVTiered721HookDeployer.sol\":{\"keccak256\":\"0x2d8133ffc87353ca8e5058d91ac00efc0598d31895b794b518c266df43fc0808\",\"urls\":[\"bzz-raw://77d4e7babe0aa8250309f8fccd9e18c59dc834f50c4b93b3ed1d7861cd333573\",\"dweb:/ipfs/QmNMCrAdDJwGsaQZE4pHnC2S1yaLSAbi67MjDP7Mw1fmLZ\"],\"license\":\"MIT\"},\"src/interfaces/IREVBasicDeployer.sol\":{\"keccak256\":\"0xb81b2f31f43bc98043bc5922de6715b58cf495cc3e36ac54ce30daede63367cc\",\"urls\":[\"bzz-raw://c5e2530bb747477ec066c3064181fe97e7952f6dd1c09b68990e702a56cd9eb2\",\"dweb:/ipfs/QmPyAe6hzecNPPf3hwariqB7EbSEX52fLwDpCitp8XraRs\"],\"license\":null},\"src/interfaces/IREVCroptopDeployer.sol\":{\"keccak256\":\"0x3ec080b4ee2d6c73ea7c6d246cf57234b62d7a5b6c54e2c6641b568e582f4ffb\",\"urls\":[\"bzz-raw://9d35d607346c201f3c3b4a52f486de28fc16d6bfe990f3255ceb62703980cc48\",\"dweb:/ipfs/QmPgMxF4BinjS8FsuSHTixxtrVkrsgHHXT4S5fafknxudw\"],\"license\":null},\"src/interfaces/IREVPayHookDeployer.sol\":{\"keccak256\":\"0xc96a7dd8ec2c88286906c2615f11e03c9f8fba777685067dcf98525349950000\",\"urls\":[\"bzz-raw://45d97d705c27b718ff0dac593ceeccdf77060652ac31bd84d6394bc7412afcde\",\"dweb:/ipfs/QmbMAMk8bkZBQxj5Dimx2wsAtawg7oyXrtBMcEk37ZNxiG\"],\"license\":null},\"src/interfaces/IREVTiered721HookDeployer.sol\":{\"keccak256\":\"0x48f7c60ddd73914172413e72a129659d91a0d1d245cea265e793b2f30b236d6d\",\"urls\":[\"bzz-raw://fc83f099b34f4c3217544e65f19fa0cf916e49b7230a099725dba48a3942d040\",\"dweb:/ipfs/QmWvnyVbxanschhro5PpkqrJuP2zSaW7PTKBi2fQuAgqDx\"],\"license\":null},\"src/structs/REVBuybackHookConfig.sol\":{\"keccak256\":\"0xdae5ecff2ff2a04c0aab17093f023b2161994dc0e6e2adc5006d36d157eb09aa\",\"urls\":[\"bzz-raw://5e0eed08e652290f59c0d18565df21be3fc7b33ca3fa41c393461472479e4a7f\",\"dweb:/ipfs/QmfZcbmdvYDQwEE4eesGpcxdojAm9BhJ81fdkxjX9LU9Sa\"],\"license\":\"MIT\"},\"src/structs/REVBuybackPoolConfig.sol\":{\"keccak256\":\"0x83f2a3875a8b1955856b72bfddd90c0cc2fbe26697f1dd4e13b33c0319049a14\",\"urls\":[\"bzz-raw://e1e37d0eb626221b6a8774a155a3799dc5cf0b497d26263ef323ed768d61a0dc\",\"dweb:/ipfs/QmcSPDAaPemjh3a1XycV4qDMJwctnuwiKe3wXrRUjotKAB\"],\"license\":\"MIT\"},\"src/structs/REVConfig.sol\":{\"keccak256\":\"0x877258466138485e7766cf46171fc7c8fb78736281eeb90bfb7a11c4cd702f4e\",\"urls\":[\"bzz-raw://4544bbe5da29126dd1000a74caae7388c5022a77d70556af9938361a7037be32\",\"dweb:/ipfs/QmNxZVdwgV63pTriMemT3UouK3s3ZC9sVVudA93xAvh1c3\"],\"license\":\"MIT\"},\"src/structs/REVCroptopAllowedPost.sol\":{\"keccak256\":\"0xbeba2acfc8a139c2c9d7c3feb5ba14b369e030aeaa21b3d1ef35fc08ea5ecb7b\",\"urls\":[\"bzz-raw://34e756eb728e230de3b411b92272a10807c3a25adab48eba41b4da6c233a7ecc\",\"dweb:/ipfs/QmSDm1FYFXo8MVTutjyPMrCrNzsJproX8guN2htT3Jzsxq\"],\"license\":\"MIT\"},\"src/structs/REVDeploy721TiersHookConfig.sol\":{\"keccak256\":\"0x6dec52939e342a5e7c687850b3e7222857f49fd7819c0056bafe8fcabfe8f216\",\"urls\":[\"bzz-raw://afb89096d51603b25e68c099eb92741821fcbf7e876fc71955d6a2c2ca27c32b\",\"dweb:/ipfs/QmSy8GS1NJL1FCtPBS4nvVp4KsLJvJRmvTtuLbmgLSR2vt\"],\"license\":\"MIT\"},\"src/structs/REVDescription.sol\":{\"keccak256\":\"0x40bebc53d50dbfb261882f51c7667d7263193e8fc48897b9384c2ca259046c1b\",\"urls\":[\"bzz-raw://24f98bc7ef12f53afa326a266c69683e24501405f72566b7ca7e8dad242e1fe1\",\"dweb:/ipfs/QmNkLsCwhx5pTuMmJLwUNJdPrGjEi3H9JnTX2s9GsoUTAa\"],\"license\":\"MIT\"},\"src/structs/REVMintConfig.sol\":{\"keccak256\":\"0xdf4edcbc85faf4cf98db8f49d09a2840dfa6fe876a3ad0b85b27d4f9b497008d\",\"urls\":[\"bzz-raw://c28b8f8b4178d6bfc5bccd300d48d923052cd304ef536e343e00415d5c7ddfe1\",\"dweb:/ipfs/Qmcp8YMy7HN3mpYw4RESmy1BnN6yHrApZigxZeXSFW6eGD\"],\"license\":\"MIT\"},\"src/structs/REVStageConfig.sol\":{\"keccak256\":\"0x5618a55f3e3f2bc5fd280c330c2200029de624bb710774fd8ee2759dbc2c841a\",\"urls\":[\"bzz-raw://446373029a5c429438ae1a8035bb383b028fd29c44fadfa49befc929cd5b65be\",\"dweb:/ipfs/Qme5SnPVGm7ysmFTkc9c6p7iFo1BVYYkMoK2CTA6RkF6wS\"],\"license\":\"MIT\"},\"src/structs/REVSuckerDeploymentConfig.sol\":{\"keccak256\":\"0xed607665da0efa1a1662a7e094095f336bef2d6694f79e5d8158cacf73c34dac\",\"urls\":[\"bzz-raw://c8c68b67a28a7dfc060596cfb98b7fc05ad0c9b61482f60a04810bc68cc0b8e3\",\"dweb:/ipfs/QmeLH5z8J6DDjRQXfJi4BoMmQqY4zTjERYfSzu8Uypkawp\"],\"license\":\"MIT\"}},\"version\":1}",
			"args": [
				"0x9c7993bff32dfd4e96F5C24D7AB3f9c93c303704",
				"0x01aD7869D85dC136F473DB7F4F07b8F61414f644",
				"0xB2b5841DBeF766d4b521221732F9B618fCf34A87",
				"0xF97086E4CeA8D11FCD64cb2E5dDE0Ab7588f5F01",
				"0x24F256088C151a071Bf51DeE9d37F9E1Ea553548"
			],
			"bytecode": "0x6101006040523480156200001257600080fd5b50604051620060f3380380620060f383398101604081905262000035916200010e565b6001600160a01b0392831660805293821660a05291811660c052600380546001808201835560117fc2575a0e9e593c00f959f8c92f12db2869c3395a3b0502d05e2516446f71f85b9283015582548082018455601990830155825480820190935560069290910182905592821660e05280546001600160a01b031916939091169290921790915560078054918201815560005260157fa66cc928b5edb82af9bd49922954155ab7b0942694bea4ce44661d9a8736c688909101556200018e565b6001600160a01b03811681146200010b57600080fd5b50565b600080600080600060a086880312156200012757600080fd5b85516200013481620000f5565b60208701519095506200014781620000f5565b60408701519094506200015a81620000f5565b60608701519093506200016d81620000f5565b60808701519092506200018081620000f5565b809150509295509295909350565b60805160a05160c05160e051615e8362000270600039600081816103dd01526110df01526000818161040401528181610a520152818161127f0152818161159f0152818161216d01526122930152600081816104770152818161050601528181610b2f01528181610d2301528181610f2c015281816113ae0152818161168d015281816118140152818161199201528181611b0d01528181611ce501528181611db201528181611e9301528181611f5b01528181612028015281816121a80152612f750152600081816102450152818161031c015261314c0152615e836000f3fe608060405234801561001057600080fd5b506004361061018d5760003560e01c80639ab68726116100e3578063b5d255331161008c578063dbfbe5da11610066578063dbfbe5da1461044c578063eb5ad9d91461045f578063ee0fc1211461047257600080fd5b8063b5d25533146103ff578063bb19940214610426578063bd43e7ba1461043957600080fd5b80639fafd73c116100bd5780639fafd73c14610385578063aaf320d7146103b5578063abf8c5c8146103d857600080fd5b80639ab68726146103555780639c62f179146103685780639d82ba251461037b57600080fd5b80635a31dc13116101455780637249a7731161011f5780637249a773146102d95780637da0a8771461031a57806382a09b301461034057600080fd5b80635a31dc13146102755780635c0a7cee146102a6578063677ce088146102c657600080fd5b806343681e151161017657806343681e15146101e65780634c4ffc7114610214578063572b6c051461023557600080fd5b806301ffc9a714610192578063150b7a02146101ba575b600080fd5b6101a56101a0366004613341565b610499565b60405190151581526020015b60405180910390f35b6101cd6101c836600461339a565b610502565b6040516001600160e01b031990911681526020016101b1565b6102066101f4366004613439565b60016020526000908152604090205481565b6040519081526020016101b1565b610227610222366004613452565b6105ce565b6040516101b192919061355f565b6101a5610243366004613580565b7f00000000000000000000000000000000000000000000000000000000000000006001600160a01b0390811691161490565b61020661028336600461359d565b600260209081526000938452604080852082529284528284209052825290205481565b6102b96102b4366004613439565b6108d2565b6040516101b191906135d6565b6101a56102d43660046135e9565b6109f6565b6103026102e7366004613439565b6000602081905290815260409020546001600160a01b031681565b6040516001600160a01b0390911681526020016101b1565b7f0000000000000000000000000000000000000000000000000000000000000000610302565b61035361034e36600461359d565b610b2b565b005b610206610363366004613f44565b610df3565b6102066103763660046140d0565b610e0f565b61020662278d0081565b610398610393366004614582565b610f1f565b604080519283526001600160a01b039091166020830152016101b1565b6103c86103c3366004614693565b61126f565b6040516101b194939291906146cf565b6103027f000000000000000000000000000000000000000000000000000000000000000081565b6103027f000000000000000000000000000000000000000000000000000000000000000081565b61035361043436600461476f565b6113ac565b6103986104473660046148c0565b611668565b600654610302906001600160a01b031681565b61035361046d3660046135e9565b611805565b6103027f000000000000000000000000000000000000000000000000000000000000000081565b60006001600160e01b031982167f81c03c2e0000000000000000000000000000000000000000000000000000000014806104fc57507f01ffc9a7000000000000000000000000000000000000000000000000000000006001600160e01b03198316145b92915050565b60007f00000000000000000000000000000000000000000000000000000000000000006001600160a01b031663293c49996040518163ffffffff1660e01b8152600401602060405180830381865afa158015610562573d6000803e3d6000fd5b505050506040513d601f19601f8201168201806040525081019061058691906149f6565b6001600160a01b0316336001600160a01b0316146105a357600080fd5b507f150b7a020000000000000000000000000000000000000000000000000000000095945050505050565b60c081013560009081526020819052604081205460609081906001600160a01b0316801561068a576040517f4c4ffc710000000000000000000000000000000000000000000000000000000081526001600160a01b03821690634c4ffc719061063b908890600401614abe565b600060405180830381865afa158015610658573d6000803e3d6000fd5b505050506040513d6000823e601f3d908101601f191682016040526106809190810190614b8f565b9094509150610693565b84610120013593505b815160c086013560009081526005602090815260408083208054825181850281018501909352808352941515949192909190849084015b828210156107ae576000848152602090819020604080516060810182526003860290920180546001600160a01b031683526001810154938301939093526002830180549293929184019161071d90614cd7565b80601f016020809104026020016040519081016040528092919081815260200182805461074990614cd7565b80156107965780601f1061076b57610100808354040283529160200191610796565b820191906000526020600020905b81548152906001019060200180831161077957829003601f168201915b505050505081525050815260200190600101906106ca565b505050509050600081519050826107c65760006107c9565b60015b6107d69060ff1682614d27565b67ffffffffffffffff8111156107ee576107ee613619565b60405190808252806020026020018201604052801561083b57816020015b6040805160608082018352600080835260208301529181019190915281526020019060019003908161080c5790505b50955060005b818110156108885782818151811061085b5761085b614d3a565b602002602001015187828151811061087557610875614d3a565b6020908102919091010152600101610841565b5082156108c857846000815181106108a2576108a2614d3a565b60200260200101518682815181106108bc576108bc614d3a565b60200260200101819052505b5050505050915091565b606060056000838152602001908152602001600020805480602002602001604051908101604052809291908181526020016000905b828210156109eb576000848152602090819020604080516060810182526003860290920180546001600160a01b031683526001810154938301939093526002830180549293929184019161095a90614cd7565b80601f016020809104026020016040519081016040528092919081815260200182805461098690614cd7565b80156109d35780601f106109a8576101008083540402835291602001916109d3565b820191906000526020600020905b8154815290600101906020018083116109b657829003601f168201915b50505050508152505081526020019060010190610907565b505050509050919050565b6000828152602081905260408120546001600160a01b0390811690831603610a20575060016104fc565b6040517f3d12cb87000000000000000000000000000000000000000000000000000000008152600481018490526000907f00000000000000000000000000000000000000000000000000000000000000006001600160a01b031690633d12cb8790602401600060405180830381865afa158015610aa1573d6000803e3d6000fd5b505050506040513d6000823e601f3d908101601f19168201604052610ac99190810190614d50565b805190915060005b81811015610b1f57828181518110610aeb57610aeb614d3a565b60200260200101516001600160a01b0316856001600160a01b031603610b1757600193505050506104fc565b600101610ad1565b50600095945050505050565b60007f00000000000000000000000000000000000000000000000000000000000000006001600160a01b031663d4a1b4b16040518163ffffffff1660e01b8152600401602060405180830381865afa158015610b8b573d6000803e3d6000fd5b505050506040513d601f19601f82011682018060405250810190610baf91906149f6565b6040517f25a61d5c00000000000000000000000000000000000000000000000000000000815260048101869052602481018590526001600160a01b0391909116906325a61d5c9060440161012060405180830381865afa158015610c17573d6000803e3d6000fd5b505050506040513d601f19601f82011682018060405250810190610c3b9190614df5565b90504281606001511115610c7b576040517f13dec85c00000000000000000000000000000000000000000000000000000000815260040160405180910390fd5b600084815260026020908152604080832084830151845282528083206001600160a01b038616845290915281205490819003610cb8575050505050565b600085815260026020908152604080832087845282528083206001600160a01b038781168086529190935281842084905590516363fdc96f60e11b81526004810189905260248101859052604481019190915260a0606482015260a4810183905260848101929092527f0000000000000000000000000000000000000000000000000000000000000000169063c7fb92de9060c4016020604051808303816000875af1158015610d6c573d6000803e3d6000fd5b505050506040513d601f19601f82011682018060405250810190610d909190614e75565b50826001600160a01b03168260200151867f598baf7bf150ca2f42be9e9f8f55e81d45f5715c3ff22bf46d697fabec7f31d68433604051610de49291909182526001600160a01b0316602082015260400190565b60405180910390a45050505050565b6000610e058686868630600088611cc4565b9695505050505050565b6000610e2488888888308761ffff168a611cc4565b835190985060005b81811015610ed05760008a81526005602052604090208551869083908110610e5657610e56614d3a565b6020908102919091018101518254600180820185556000948552938390208251600390920201805473ffffffffffffffffffffffffffffffffffffffff19166001600160a01b03909216919091178155918101519282019290925560408201516002820190610ec59082614edb565b505050600101610e2c565b50887fdfaf2737f25eace49d372b472ec03f1df0f9814dfc69d2b95c5e92a041f42e2985610efc6123c1565b604051610f0a929190614f9b565b60405180910390a25096979650505050505050565b6000808980820361101b577f00000000000000000000000000000000000000000000000000000000000000006001600160a01b031663293c49996040518163ffffffff1660e01b8152600401602060405180830381865afa158015610f88573d6000803e3d6000fd5b505050506040513d601f19601f82011682018060405250810190610fac91906149f6565b6001600160a01b03166306661abd6040518163ffffffff1660e01b8152600401602060405180830381865afa158015610fe9573d6000803e3d6000fd5b505050506040513d601f19601f8201168201806040525081019061100d9190614e75565b611018906001614d27565b9a505b8451600061102a826001614d27565b67ffffffffffffffff81111561104257611042613619565b60405190808252806020026020018201604052801561108f57816020015b604080516060808201835260008083526020830152918101919091528152602001906001900390816110605790505b50905060005b828110156110dc578781815181106110af576110af614d3a565b60200260200101518282815181106110c9576110c9614d3a565b6020908102919091010152600101611095565b507f00000000000000000000000000000000000000000000000000000000000000006001600160a01b0316632230819f8e8a600001516040518363ffffffff1660e01b815260040161112f9291906150e6565b6020604051808303816000875af115801561114e573d6000803e3d6000fd5b505050506040513d601f19601f8201168201806040525081019061117291906149f6565b93508760200151156111a15760008d815260046020908152604082208054600181018255908352912060159101555b8760400151156111ce5760008d815260046020908152604082208054600181018255908352912060169101555b8760600151156111fb5760008d815260046020908152604082208054600181018255908352912060179101555b6040518060600160405280856001600160a01b03168152602001600081526020016040518060200160405280600081525081525081838151811061124157611241614d3a565b602002602001018190525061125b838d8d8d8d868c610e0f565b508c94505050509850989650505050505050565b6000808060606001600160a01b037f0000000000000000000000000000000000000000000000000000000000000000166383db9d01604087018035906112b89060208a01613580565b6040516001600160e01b031960e085901b16815260048101929092526001600160a01b03166024820152604401602060405180830381865afa158015611302573d6000803e3d6000fd5b505050506040513d601f19601f82011682018060405250810190611326919061521e565b156113435761271085608001358660a001359350935093506113a5565b60408086013560009081526001602052205442101561138e576040517f04c3b3cd00000000000000000000000000000000000000000000000000000000815260040160405180910390fd5b84610160013585608001358660a001359350935093505b9193509193565b7f00000000000000000000000000000000000000000000000000000000000000006001600160a01b0316631f47ce696040518163ffffffff1660e01b8152600401602060405180830381865afa15801561140a573d6000803e3d6000fd5b505050506040513d601f19601f8201168201806040525081019061142e91906149f6565b6001600160a01b031663f434c9146040518163ffffffff1660e01b8152600401602060405180830381865afa15801561146b573d6000803e3d6000fd5b505050506040513d601f19601f8201168201806040525081019061148f91906149f6565b6001600160a01b031663632af95f6114a56123c1565b30866114b0886123d0565b6000806040518763ffffffff1660e01b81526004016114d496959493929190615277565b602060405180830381865afa1580156114f1573d6000803e3d6000fd5b505050506040513d601f19601f82011682018060405250810190611515919061521e565b611532576040516331fb21f360e01b815260040160405180910390fd5b600061153c6123c1565b838360200151604051602001611554939291906152c3565b60408051601f1981840301815290829052805160209091012083517f2f3f50e00000000000000000000000000000000000000000000000000000000083529092506001600160a01b037f00000000000000000000000000000000000000000000000000000000000000001691632f3f50e0916115d691889186916004016153cd565b6000604051808303816000875af11580156115f5573d6000803e3d6000fd5b505050506040513d6000823e601f3d908101601f1916820160405261161d9190810190614d50565b5080847f755ecfca2f6e66af8868551556bf7931740a7062db8e0882f4c322fdb0bb3f60858561164b6123c1565b60405161165a93929190615415565b60405180910390a350505050565b60008061167b8b8b8b8b8b8b8b8b610f1f565b909b50905061168b8b8285612588565b7f00000000000000000000000000000000000000000000000000000000000000006001600160a01b031663f434c9146040518163ffffffff1660e01b8152600401602060405180830381865afa1580156116e9573d6000803e3d6000fd5b505050506040513d601f19601f8201168201806040525081019061170d91906149f6565b6001600160a01b03166305d2912e306040518060600160405280600660009054906101000a90046001600160a01b03166001600160a01b031681526020018f8152602001600780548060200260200160405190810160405280929190818152602001828054801561179d57602002820191906000526020600020905b815481526020019060010190808311611789575b50505050508152506040518363ffffffff1660e01b81526004016117c2929190615454565b600060405180830381600087803b1580156117dc57600080fd5b505af11580156117f0573d6000803e3d6000fd5b505050508a9150995099975050505050505050565b6000611810836123d0565b90507f00000000000000000000000000000000000000000000000000000000000000006001600160a01b0316631f47ce696040518163ffffffff1660e01b8152600401602060405180830381865afa158015611870573d6000803e3d6000fd5b505050506040513d601f19601f8201168201806040525081019061189491906149f6565b6001600160a01b031663f434c9146040518163ffffffff1660e01b8152600401602060405180830381865afa1580156118d1573d6000803e3d6000fd5b505050506040513d601f19601f820116820180604052508101906118f591906149f6565b6001600160a01b031663632af95f61190b6123c1565b3086856000806040518763ffffffff1660e01b815260040161193296959493929190615277565b602060405180830381865afa15801561194f573d6000803e3d6000fd5b505050506040513d601f19601f82011682018060405250810190611973919061521e565b611990576040516331fb21f360e01b815260040160405180910390fd5b7f00000000000000000000000000000000000000000000000000000000000000006001600160a01b0316631f47ce696040518163ffffffff1660e01b8152600401602060405180830381865afa1580156119ee573d6000803e3d6000fd5b505050506040513d601f19601f82011682018060405250810190611a1291906149f6565b6001600160a01b031663f434c9146040518163ffffffff1660e01b8152600401602060405180830381865afa158015611a4f573d6000803e3d6000fd5b505050506040513d601f19601f82011682018060405250810190611a7391906149f6565b6001600160a01b03166305d2912e306040518060600160405280611a956123c1565b6001600160a01b0316815260208082018990526040805160008152918201815291820152516001600160e01b031960e085901b168152611ad9929190600401615454565b600060405180830381600087803b158015611af357600080fd5b505af1158015611b07573d6000803e3d6000fd5b505050507f00000000000000000000000000000000000000000000000000000000000000006001600160a01b0316631f47ce696040518163ffffffff1660e01b8152600401602060405180830381865afa158015611b69573d6000803e3d6000fd5b505050506040513d601f19601f82011682018060405250810190611b8d91906149f6565b6001600160a01b031663f434c9146040518163ffffffff1660e01b8152600401602060405180830381865afa158015611bca573d6000803e3d6000fd5b505050506040513d601f19601f82011682018060405250810190611bee91906149f6565b6001600160a01b03166305d2912e306040518060600160405280866001600160a01b03168152602001878152602001858152506040518363ffffffff1660e01b8152600401611c3e929190615454565b600060405180830381600087803b158015611c5857600080fd5b505af1158015611c6c573d6000803e3d6000fd5b50505050816001600160a01b0316837f0329d6a81434b130c72eb65eea0e32e429dc1277b4aad86ec86454aefb618451611ca46123c1565b6040516001600160a01b03909116815260200160405180910390a3505050565b600080600080611cd58a888861276f565b9250925092508a600003611db0577f00000000000000000000000000000000000000000000000000000000000000006001600160a01b0316639e14fb80308c6000015160400151868d8f6000015160200151604051602001611d379190615497565b6040516020818303038152906040526040518663ffffffff1660e01b8152600401611d669594939291906158f7565b6020604051808303816000875af1158015611d85573d6000803e3d6000fd5b505050506040513d601f19601f82011682018060405250810190611da99190614e75565b9a50611e6e565b7f00000000000000000000000000000000000000000000000000000000000000006001600160a01b03166321df42e88c858c8e6000015160200151604051602001611dfb9190615497565b6040516020818303038152906040526040518563ffffffff1660e01b8152600401611e29949392919061595f565b6020604051808303816000875af1158015611e48573d6000803e3d6000fd5b505050506040513d601f19601f82011682018060405250810190611e6c9190614e75565b505b8015611e9157611e8162278d0042614d27565b60008c8152600160205260409020555b7f00000000000000000000000000000000000000000000000000000000000000006001600160a01b031663581781918c8c60000151600001518d60000151602001518e60000151606001516040518563ffffffff1660e01b8152600401611efb949392919061599e565b6020604051808303816000875af1158015611f1a573d6000803e3d6000fd5b505050506040513d601f19601f82011682018060405250810190611f3e91906149f6565b5087516001600160a01b031615611f5957611f598b89612b98565b7f00000000000000000000000000000000000000000000000000000000000000006001600160a01b031663dd5f214a8c6000611f988e60400151612cf8565b6040518463ffffffff1660e01b8152600401611fb6939291906159db565b600060405180830381600087803b158015611fd057600080fd5b505af1158015611fe4573d6000803e3d6000fd5b50505050611ff28b8b612e36565b600060405180606001604052808c604001516001600160a01b031681526020018d81526020016120218e6123d0565b81525090507f00000000000000000000000000000000000000000000000000000000000000006001600160a01b031663f434c9146040518163ffffffff1660e01b8152600401602060405180830381865afa158015612084573d6000803e3d6000fd5b505050506040513d601f19601f820116820180604052508101906120a891906149f6565b6001600160a01b03166305d2912e30836040518363ffffffff1660e01b81526004016120d5929190615454565b600060405180830381600087803b1580156120ef57600080fd5b505af1158015612103573d6000803e3d6000fd5b5060009250600191506121139050565b60405190808252806020026020018201604052801561213c578160200160208202803683370190505b509050601c8160008151811061215457612154614d3a565b60200260200101818152505060405180606001604052807f00000000000000000000000000000000000000000000000000000000000000006001600160a01b031681526020018e81526020018281525091507f00000000000000000000000000000000000000000000000000000000000000006001600160a01b031663f434c9146040518163ffffffff1660e01b8152600401602060405180830381865afa158015612204573d6000803e3d6000fd5b505050506040513d601f19601f8201168201806040525081019061222891906149f6565b6001600160a01b03166305d2912e30846040518363ffffffff1660e01b8152600401612255929190615454565b600060405180830381600087803b15801561226f57600080fd5b505af1158015612283573d6000803e3d6000fd5b50505050602087015115612363577f00000000000000000000000000000000000000000000000000000000000000006001600160a01b0316632f3f50e08e6122c96123c1565b878b602001516040516020016122e1939291906152c3565b60408051601f198184030181529082905280516020909101208b516001600160e01b031960e086901b16835261231a93926004016153cd565b6000604051808303816000875af1158015612339573d6000803e3d6000fd5b505050506040513d6000823e601f3d908101601f191682016040526123619190810190614d50565b505b8c7fabdf3ec8139195645b1e44778a910396624b7d2913c04b613f4800ad25d710468d8d8d8b8a8a8a6123946123c1565b6040516123a8989796959493929190615b92565b60405180910390a2509a9b9a5050505050505050505050565b60006123cb61313c565b905090565b60606000600380548060200260200160405190810160405280929190818152602001828054801561242057602002820191906000526020600020905b81548152602001906001019080831161240c575b5050835160008881526004602090815260408083208054825181850281018501909352808352989950939792965094509192509083018282801561248357602002820191906000526020600020905b81548152602001906001019080831161246f575b5050835193945061249a9250839150859050614d27565b67ffffffffffffffff8111156124b2576124b2613619565b6040519080825280602002602001820160405280156124db578160200160208202803683370190505b50945060005b83811015612528578481815181106124fb576124fb614d3a565b602002602001015186828151811061251557612515614d3a565b60209081029190910101526001016124e1565b5060005b8181101561257e5782818151811061254657612546614d3a565b602002602001015186828661255b9190614d27565b8151811061256b5761256b614d3a565b602090810291909101015260010161252c565b5050505050919050565b805160008167ffffffffffffffff8111156125a5576125a5613619565b60405190808252806020026020018201604052801561261857816020015b6126056040518060c0016040528060006001600160a01b0316815260200160008152602001600081526020016000815260200160008152602001606081525090565b8152602001906001900390816125c35790505b50905061264d6040518060a0016040528060008152602001600081526020016000815260200160008152602001606081525090565b60005b838110156126e35784818151811061266a5761266a614d3a565b602002602001015191506040518060c00160405280876001600160a01b031681526020018360000151815260200183602001518152602001836040015181526020018360600151815260200183608001518152508382815181106126d0576126d0614d3a565b6020908102919091010152600101612650565b50835115612767576006546040517f9b9b7aa90000000000000000000000000000000000000000000000000000000081526001600160a01b0390911690639b9b7aa990612734908590600401615ce5565b600060405180830381600087803b15801561274e57600080fd5b505af1158015612762573d6000803e3d6000fd5b505050505b505050505050565b6060838101515181906000908067ffffffffffffffff81111561279457612794613619565b60405190808252806020026020018201604052801561288e57816020015b61287b6040805161010080820183526000808352602080840182905283850182905260608085018390526080808601849052865161022081018852848152928301849052958201839052810182905293840181905260a084810182905260c0850182905260e0850182905291840181905261012084018190526101408401819052610160840181905261018084018190526101a084018190526101c084018190526101e08401819052610200840152909190820190815260200160608152602001606081525090565b8152602001906001900390816127b25790505b50935061289a876131b1565b6040805160e08101825260008082526060602083018190529282018190529181018290526080810182905260a0810182905260c08101829052919450805b83811015612b8b57896060015181815181106128f6576128f6614d3a565b6020026020010151925081836000015164ffffffffff1611612944576040517f0aec2d6900000000000000000000000000000000000000000000000000000000815260040160405180910390fd5b826000015164ffffffffff1687828151811061296257612962614d3a565b60200260200101516000018181525050826080015164ffffffffff1687828151811061299057612990614d3a565b6020026020010151602001818152505082606001516dffffffffffffffffffffffffffff168782815181106129c7576129c7614d3a565b602002602001015160400181815250508260a0015163ffffffff168782815181106129f4576129f4614d3a565b602002602001015160600181815250506000878281518110612a1857612a18614d3a565b6020026020010151608001906001600160a01b031690816001600160a01b031681525050604051806102200160405280846040015161ffff1681526020018460c0015161ffff16612710612a6c9190615d8f565b815260208c81015163ffffffff16908201526000604082018190526060820181905260016080830181905260a0830181905260c0830182905260e0830182905261010083018290526101208301829052610140830182905261016083018290526101808301526101a08201526001600160a01b038b166101c08201526101e0018990528751889083908110612b0357612b03614d3a565b602002602001015160a00181905250806000148015612b295750825164ffffffffff1615155b8015612b3f575042836000015164ffffffffff16105b15612b4957600194505b85612b5484836131eb565b604051602001612b65929190615da2565b60408051601f19818403018152919052835190965064ffffffffff1691506001016128d8565b5050505093509350939050565b602081810151516040805160808101825260008082529381018490529081018390526060810183905290915b82811015612cb75783602001518181518110612be257612be2614d3a565b6020908102919091018101518551918101516040808301516060840151845192517f7b621d3a000000000000000000000000000000000000000000000000000000008152600481018c905262ffffff909416602485015263ffffffff91821660448501521660648301526001600160a01b039081166084830152919450911690637b621d3a9060a4016020604051808303816000875af1158015612c8a573d6000803e3d6000fd5b505050506040513d601f19601f82011682018060405250810190612cae91906149f6565b50600101612bc4565b50509051600092835260208390526040909220805473ffffffffffffffffffffffffffffffffffffffff19166001600160a01b039093169290921790915550565b604080516001808252818301909252606091816020015b604080518082019091526000815260606020820152815260200190600190039081612d0f57505060408051600180825281830190925291925060009190602082015b6040805160c08101825260008082526020808301829052928201819052606082018190526080820181905260a08201528252600019909201910181612d515790505090506040518060c00160405280600015158152602001633b9aca00815260200160008152602001846001600160a01b031681526020016000815260200160006001600160a01b031681525081600081518110612df157612df1614d3a565b60200260200101819052506040518060400160405280600181526020018281525082600081518110612e2557612e25614d3a565b602002602001018190525050919050565b606080820151516040805160e0810182526000808252602082018590529181018290529283018190526080830181905260a0830181905260c08301529060005b828110156131355783606001518181518110612e9457612e94614d3a565b6020026020010151915060008260200151519050612ed56040518060600160405280600081526020016000815260200160006001600160a01b031681525090565b60005b8281101561312a5784602001518181518110612ef657612ef6614d3a565b602002602001015191504682600001510361312257831580612f23575042856000015164ffffffffff1611155b1561305057602082015160408084015190516363fdc96f60e11b8152600481018b905260248101929092526001600160a01b03908116604483015260a06064830152600060a4830181905260848301527f0000000000000000000000000000000000000000000000000000000000000000169063c7fb92de9060c4016020604051808303816000875af1158015612fbe573d6000803e3d6000fd5b505050506040513d601f19601f82011682018060405250810190612fe29190614e75565b5060408201516001600160a01b0316612ffb8542614d27565b897f598baf7bf150ca2f42be9e9f8f55e81d45f5715c3ff22bf46d697fabec7f31d68560200151336040516130439291909182526001600160a01b0316602082015260400190565b60405180910390a4613122565b60208083015160008a815260029092526040822090916130708742614d27565b8152602001908152602001600020600084604001516001600160a01b03166001600160a01b0316815260200190815260200160002060008282546130b49190614d27565b909155505060408201516001600160a01b03166130d18542614d27565b897f9e83979117d75aa75fe101361cf46235d3d0a6fa7afafb275d2b9f8af02273138560200151336040516131199291909182526001600160a01b0316602082015260400190565b60405180910390a45b600101612ed8565b505050600101612e76565b5050505050565b6000366014336001600160a01b037f0000000000000000000000000000000000000000000000000000000000000000161480156131795750808210155b156131a95760003661318b8385615d8f565b613196928290615dd1565b61319f91615dfb565b60601c9250505090565b339250505090565b602080820151825180518184015160609283015160405193956131d5959401615e2e565b6040516020818303038152906040529050919050565b6060811580156132015750825164ffffffffff16155b61321357825164ffffffffff16613215565b425b6040808501516060860151608087015160a088015160c0890151945161328696959060200195865261ffff94851660208701526dffffffffffffffffffffffffffff93909316604086015264ffffffffff91909116606085015263ffffffff1660808401521660a082015260c00190565b60408051601f1981840301815291905260208401515190915060005b818110156132fc57826132d1866020015183815181106132c4576132c4614d3a565b6020026020010151613304565b6040516020016132e2929190615da2565b60408051601f1981840301815291905292506001016132a2565b505092915050565b60608160000151826040015183602001516040516020016131d5939291909283526001600160a01b03919091166020830152604082015260600190565b60006020828403121561335357600080fd5b81356001600160e01b03198116811461336b57600080fd5b9392505050565b6001600160a01b038116811461338757600080fd5b50565b803561339581613372565b919050565b6000806000806000608086880312156133b257600080fd5b85356133bd81613372565b945060208601356133cd81613372565b935060408601359250606086013567ffffffffffffffff808211156133f157600080fd5b818801915088601f83011261340557600080fd5b81358181111561341457600080fd5b89602082850101111561342657600080fd5b9699959850939650602001949392505050565b60006020828403121561344b57600080fd5b5035919050565b60006020828403121561346457600080fd5b813567ffffffffffffffff81111561347b57600080fd5b8201610180818503121561336b57600080fd5b60005b838110156134a9578181015183820152602001613491565b50506000910152565b600081518084526134ca81602086016020860161348e565b601f01601f19169290920160200192915050565b600082825180855260208086019550808260051b84010181860160005b8481101561355257858303601f19018952815180516001600160a01b03168452848101518585015260409081015160609185018290529061353e818601836134b2565b9a86019a94505050908301906001016134fb565b5090979650505050505050565b82815260406020820152600061357860408301846134de565b949350505050565b60006020828403121561359257600080fd5b813561336b81613372565b6000806000606084860312156135b257600080fd5b833592506020840135915060408401356135cb81613372565b809150509250925092565b60208152600061336b60208301846134de565b600080604083850312156135fc57600080fd5b82359150602083013561360e81613372565b809150509250929050565b634e487b7160e01b600052604160045260246000fd5b6040516060810167ffffffffffffffff8111828210171561365257613652613619565b60405290565b60405160e0810167ffffffffffffffff8111828210171561365257613652613619565b6040516080810167ffffffffffffffff8111828210171561365257613652613619565b6040805190810167ffffffffffffffff8111828210171561365257613652613619565b604051610180810167ffffffffffffffff8111828210171561365257613652613619565b604051610120810167ffffffffffffffff8111828210171561365257613652613619565b60405160a0810167ffffffffffffffff8111828210171561365257613652613619565b604051601f8201601f1916810167ffffffffffffffff8111828210171561375557613755613619565b604052919050565b600067ffffffffffffffff82111561377757613777613619565b50601f01601f191660200190565b600082601f83011261379657600080fd5b81356137a96137a48261375d565b61372c565b8181528460208386010111156137be57600080fd5b816020850160208301376000918101602001919091529392505050565b803563ffffffff8116811461339557600080fd5b600067ffffffffffffffff82111561380957613809613619565b5060051b60200190565b803564ffffffffff8116811461339557600080fd5b600082601f83011261383957600080fd5b813560206138496137a4836137ef565b8281526060928302850182019282820191908785111561386857600080fd5b8387015b858110156135525781818a0312156138845760008081fd5b61388c61362f565b8135815285820135868201526040808301356138a781613372565b90820152845292840192810161386c565b803561ffff8116811461339557600080fd5b80356dffffffffffffffffffffffffffff8116811461339557600080fd5b600082601f8301126138f957600080fd5b813560206139096137a4836137ef565b82815260059290921b8401810191818101908684111561392857600080fd5b8286015b84811015613a0a57803567ffffffffffffffff8082111561394d5760008081fd5b9088019060e0828b03601f19018113156139675760008081fd5b61396f613658565b61397a888501613813565b8152604080850135848111156139905760008081fd5b61399e8e8b83890101613828565b8a84015250606093506139b28486016138b8565b9082015260806139c38582016138ca565b8483015260a093506139d6848601613813565b9082015260c06139e78582016137db565b848301526139f68386016138b8565b90820152865250505091830191830161392c565b509695505050505050565b600060808284031215613a2757600080fd5b613a2f61367b565b9050813567ffffffffffffffff80821115613a4957600080fd5b9083019060808286031215613a5d57600080fd5b613a6561367b565b823582811115613a7457600080fd5b613a8087828601613785565b825250602083013582811115613a9557600080fd5b613aa187828601613785565b602083015250604083013582811115613ab957600080fd5b613ac587828601613785565b604083015250606083810135908201528352613ae3602085016137db565b6020840152613af46040850161338a565b60408401526060840135915080821115613b0d57600080fd5b50613b1a848285016138e8565b60608301525092915050565b600082601f830112613b3757600080fd5b81356020613b476137a4836137ef565b8083825260208201915060208460051b870101935086841115613b6957600080fd5b602086015b84811015613a0a578035613b8181613372565b8352918301918301613b6e565b600082601f830112613b9f57600080fd5b81356020613baf6137a4836137ef565b82815260059290921b84018101918181019086841115613bce57600080fd5b8286015b84811015613a0a57803567ffffffffffffffff80821115613bf35760008081fd5b908801906040828b03601f1901811315613c0d5760008081fd5b613c1561369e565b87840135613c2281613372565b8152908301359082821115613c375760008081fd5b613c458c8984870101613b26565b818901528652505050918301918301613bd2565b803562ffffff8116811461339557600080fd5b60006040808385031215613c7f57600080fd5b613c8761369e565b91508235613c9481613372565b825260208381013567ffffffffffffffff811115613cb157600080fd5b8401601f81018613613cc257600080fd5b8035613cd06137a4826137ef565b81815260079190911b82018301908381019088831115613cef57600080fd5b928401925b82841015613d63576080848a031215613d0d5760008081fd5b613d1561367b565b8435613d2081613372565b8152613d2d858701613c59565b86820152613d3c8786016137db565b878201526060613d4d8187016137db565b9082015282526080939093019290840190613cf4565b808588015250505050505092915050565b600060408284031215613d8657600080fd5b613d8e61369e565b905067ffffffffffffffff8083351115613da757600080fd5b8235830184601f820112613dba57600080fd5b613dc76137a482356137ef565b81358082526020808301929160051b84010187811115613de657600080fd5b602084015b81811015613f2b578581351115613e0157600080fd5b803585016040818b03601f19011215613e1957600080fd5b613e2161369e565b613e2e6020830135613372565b602082013581528760408301351115613e4657600080fd5b6040820135820191508a603f830112613e5e57600080fd5b6020820135613e6f6137a4826137ef565b81815260079190911b83016040019060208101908d831115613e9057600080fd5b6040850194505b82851015613f0c576080858f031215613eaf57600080fd5b613eb761367b565b613ec18635613372565b85358152613ed1602087016137db565b6020820152613ee36040870135613372565b604086013560408201526060860135606082015280835250602082019150608085019450613e97565b8060208501525050508086525050602084019350602081019050613deb565b5050808552505050506020820135602082015292915050565b600080600080600060a08688031215613f5c57600080fd5b85359450602086013567ffffffffffffffff80821115613f7b57600080fd5b613f8789838a01613a15565b95506040880135915080821115613f9d57600080fd5b613fa989838a01613b8e565b94506060880135915080821115613fbf57600080fd5b613fcb89838a01613c6c565b93506080880135915080821115613fe157600080fd5b50613fee88828901613d74565b9150509295509295909350565b600082601f83011261400c57600080fd5b8135602061401c6137a4836137ef565b82815260059290921b8401810191818101908684111561403b57600080fd5b8286015b84811015613a0a57803567ffffffffffffffff808211156140605760008081fd5b908801906060828b03601f190181131561407a5760008081fd5b61408261362f565b8784013561408f81613372565b8152604084810135898301529184013591838311156140ae5760008081fd5b6140bc8d8a85880101613785565b90820152865250505091830191830161403f565b600080600080600080600060e0888a0312156140eb57600080fd5b87359650602088013567ffffffffffffffff8082111561410a57600080fd5b6141168b838c01613a15565b975060408a013591508082111561412c57600080fd5b6141388b838c01613b8e565b965060608a013591508082111561414e57600080fd5b61415a8b838c01613c6c565b955060808a013591508082111561417057600080fd5b61417c8b838c01613d74565b945060a08a013591508082111561419257600080fd5b5061419f8a828b01613ffb565b9250506141ae60c089016138b8565b905092959891949750929550565b80356cffffffffffffffffffffffffff8116811461339557600080fd5b801515811461338757600080fd5b8035613395816141d9565b803560ff8116811461339557600080fd5b6000608080838503121561421657600080fd5b61421e61367b565b9150823567ffffffffffffffff81111561423757600080fd5b8301601f8101851361424857600080fd5b803560206142586137a4836137ef565b828152610180928302840182019282820191908985111561427857600080fd5b948301945b8486101561436b5780868b0312156142955760008081fd5b61429d6136c1565b6142a6876141bc565b81526142b38588016137db565b8582015260406142c48189016137db565b9082015260606142d58882016138b8565b908201526142e487890161338a565b8189015260a0878101359082015260c06142ff818901613c59565b9082015260e06143108882016141e7565b908201526101006143228882016141e7565b908201526101206143348882016141e7565b908201526101406143468882016141e7565b908201526101606143588882016141e7565b908201528352948501949183019161427d565b5086525061437a8682016137db565b818601525050505061438e604083016141f2565b604082015261439f6060830161338a565b606082015292915050565b6000608082840312156143bc57600080fd5b6143c461367b565b905081356143d1816141d9565b815260208201356143e1816141d9565b602082015260408201356143f4816141d9565b6040820152606082013561439f816141d9565b60006080828403121561441957600080fd5b61442161367b565b9050813567ffffffffffffffff8082111561443b57600080fd5b90830190610180828603121561445057600080fd5b6144586136e5565b82358281111561446757600080fd5b61447387828601613785565b82525060208301358281111561448857600080fd5b61449487828601613785565b6020830152506144a66040840161338a565b60408201526060830135828111156144bd57600080fd5b6144c987828601613785565b6060830152506144db6080840161338a565b608082015260a0830135828111156144f257600080fd5b6144fe87828601613785565b60a08301525060c08301358281111561451657600080fd5b61452287828601614203565b60c08301525061453460e0840161338a565b60e0820152610100915061454a868385016143aa565b82820152808452505050614560602083016141e7565b6020820152614571604083016141e7565b604082015261439f606083016141e7565b600080600080600080600080610100898b03121561459f57600080fd5b88359750602089013567ffffffffffffffff808211156145be57600080fd5b6145ca8c838d01613a15565b985060408b01359150808211156145e057600080fd5b6145ec8c838d01613b8e565b975060608b013591508082111561460257600080fd5b61460e8c838d01613c6c565b965060808b013591508082111561462457600080fd5b6146308c838d01613d74565b955060a08b013591508082111561464657600080fd5b6146528c838d01614407565b945060c08b013591508082111561466857600080fd5b506146758b828c01613ffb565b92505061468460e08a016138b8565b90509295985092959890939650565b6000602082840312156146a557600080fd5b813567ffffffffffffffff8111156146bc57600080fd5b82016101a0818503121561336b57600080fd5b60006080820186835260208681850152604086604086015260606080606087015283875180865260a08801915060a08160051b890101955084890160005b8281101561475d57898803609f19018452815180516001600160a01b0316895287810151888a015286015186890186905261474a868a01826134b2565b985050928601929086019060010161470d565b50959c9b505050505050505050505050565b60008060006060848603121561478457600080fd5b83359250602084013567ffffffffffffffff808211156147a357600080fd5b6147af87838801613785565b935060408601359150808211156147c557600080fd5b506147d286828701613d74565b9150509250925092565b600082601f8301126147ed57600080fd5b813560206147fd6137a4836137ef565b82815260059290921b8401810191818101908684111561481c57600080fd5b8286015b84811015613a0a57803567ffffffffffffffff808211156148415760008081fd5b9088019060a0828b03601f190181131561485b5760008081fd5b614863613709565b8784013581526040808501358983015260608086013582840152608091508186013581840152508285013592508383111561489e5760008081fd5b6148ac8d8a85880101613b26565b908201528652505050918301918301614820565b60008060008060008060008060006101208a8c0312156148df57600080fd5b8935985060208a013567ffffffffffffffff808211156148fe57600080fd5b61490a8d838e01613a15565b995060408c013591508082111561492057600080fd5b61492c8d838e01613b8e565b985060608c013591508082111561494257600080fd5b61494e8d838e01613c6c565b975060808c013591508082111561496457600080fd5b6149708d838e01613d74565b965060a08c013591508082111561498657600080fd5b6149928d838e01614407565b955060c08c01359150808211156149a857600080fd5b6149b48d838e01613ffb565b94506149c260e08d016138b8565b93506101008c01359150808211156149d957600080fd5b506149e68c828d016147dc565b9150509295985092959850929598565b600060208284031215614a0857600080fd5b815161336b81613372565b8035614a1e81613372565b6001600160a01b031682526020818101359083015260408082013590830152606090810135910152565b6000808335601e19843603018112614a5f57600080fd5b830160208101925035905067ffffffffffffffff811115614a7f57600080fd5b803603821315614a8e57600080fd5b9250929050565b81835281816020850137506000828201602090810191909152601f909101601f19169091010190565b60208152614adf60208201614ad28461338a565b6001600160a01b03169052565b6000614aed6020840161338a565b6001600160a01b038116604084015250614b0d6060830160408501614a13565b60c083013560e083015261010060e084013581840152614b2e81850161338a565b9050610120614b47818501836001600160a01b03169052565b61014091508085013582850152506101608185013581850152614b6c81860186614a48565b6101808681015292509050614b866101a085018383614a95565b95945050505050565b6000806040808486031215614ba357600080fd5b8351925060208085015167ffffffffffffffff80821115614bc357600080fd5b818701915087601f830112614bd757600080fd5b8151614be56137a4826137ef565b81815260059190911b8301840190848101908a831115614c0457600080fd5b8585015b83811015614cc557805185811115614c1f57600080fd5b86016060818e03601f19011215614c365760008081fd5b614c3e61362f565b88820151614c4b81613372565b8152818a015189820152606082015187811115614c685760008081fd5b8083019250508d603f830112614c7e5760008081fd5b88820151614c8e6137a48261375d565b8181528f8c838601011115614ca35760008081fd5b614cb2828c83018e870161348e565b828c015250845250918601918601614c08565b50809750505050505050509250929050565b600181811c90821680614ceb57607f821691505b602082108103614d0b57634e487b7160e01b600052602260045260246000fd5b50919050565b634e487b7160e01b600052601160045260246000fd5b808201808211156104fc576104fc614d11565b634e487b7160e01b600052603260045260246000fd5b60006020808385031215614d6357600080fd5b825167ffffffffffffffff811115614d7a57600080fd5b8301601f81018513614d8b57600080fd5b8051614d996137a4826137ef565b81815260059190911b82018301908381019087831115614db857600080fd5b928401925b82841015614ddf578351614dd081613372565b82529284019290840190614dbd565b979650505050505050565b805161339581613372565b60006101208284031215614e0857600080fd5b614e106136e5565b825181526020830151602082015260408301516040820152606083015160608201526080830151608082015260a083015160a082015260c083015160c0820152614e5c60e08401614dea565b60e0820152610100928301519281019290925250919050565b600060208284031215614e8757600080fd5b5051919050565b601f821115614ed6576000816000526020600020601f850160051c81016020861015614eb75750805b601f850160051c820191505b8181101561276757828155600101614ec3565b505050565b815167ffffffffffffffff811115614ef557614ef5613619565b614f0981614f038454614cd7565b84614e8e565b602080601f831160018114614f3e5760008415614f265750858301515b600019600386901b1c1916600185901b178555612767565b600085815260208120601f198616915b82811015614f6d57888601518255948401946001909101908401614f4e565b5085821015614f8b5787850151600019600388901b60f8161c191681555b5050505050600190811b01905550565b604081526000614fae60408301856134de565b90506001600160a01b03831660208301529392505050565b80516080808452815184820181905260009260a0916020918201918388019190865b828110156150ab57845180516cffffffffffffffffffffffffff1685528281015163ffffffff908116848701526040808301519091169086015260608082015161ffff1690860152878101516001600160a01b031688860152868101518786015260c08082015162ffffff169086015260e080820151151590860152610100808201511515908601526101208082015115159086015261014080820151151590860152610160908101511515908501529381019361018090930192600101614fe8565b508781015163ffffffff16908901525060408087015160ff16908801526060808701516001600160a01b038116918901919091529350610e05565b8281526040602082015260008251610180604084015261510a6101c08401826134b2565b90506020840151603f198085840301606086015261512883836134b2565b92506040860151915061514660808601836001600160a01b03169052565b60608601519150808584030160a086015261516183836134b2565b92506080860151915061517f60c08601836001600160a01b03169052565b60a08601519150808584030160e086015261519a83836134b2565b925060c086015191506101008186850301818701526151b98484614fc6565b935060e087015192506151d86101208701846001600160a01b03169052565b860151805115156101408701526020810151151561016087015260408101511515610180870152606081015115156101a087015291506152159050565b50949350505050565b60006020828403121561523057600080fd5b815161336b816141d9565b60008151808452602080850194506020840160005b8381101561526c57815187529582019590820190600101615250565b509495945050505050565b60006001600160a01b03808916835280881660208401525085604083015260c060608301526152a960c083018661523b565b93151560808301525090151560a090910152949350505050565b6bffffffffffffffffffffffff198460601b168152600083516152ed81601485016020880161348e565b60149201918201929092526034019392505050565b600082825180855260208086019550808260051b8401018186016000805b858110156153bf57868403601f19018a52825180516001600160a01b03908116865290860151604087870181905281518188018190529188019290916060919082890190875b818110156153a75786518051851684528c81015163ffffffff168d8501528681015185168785015285015185840152958b0195608090920191600101615366565b50509d89019d97505050938601935050600101615320565b509198975050505050505050565b838152826020820152606060408201526000614b866060830184615302565b60008151604084526154016040850182615302565b602093840151949093019390935250919050565b60608152600061542860608301866134b2565b828103602084015261543a81866153ec565b9150506001600160a01b0383166040830152949350505050565b60006001600160a01b038085168352604060208401528084511660408401525060208301516060830152604083015160606080840152614b8660a084018261523b565b7f24000000000000000000000000000000000000000000000000000000000000008152600082516154cf81600185016020870161348e565b7f207265766e6574206465706c6f796564000000000000000000000000000000006001939091019283015250601101919050565b805182526020810151602083015260408101516040830152606081015161552e606084018215159052565b506080810151615542608084018215159052565b5060a081015161555660a084018215159052565b5060c081015161556a60c084018215159052565b5060e081015161557e60e084018215159052565b5061010081810151151590830152610120808201511515908301526101408082015115159083015261016080820151151590830152610180808201511515908301526101a0808201511515908301526101c0808201511515908301526101e0808201516001600160a01b03169083015261020090810151910152565b600082825180855260208086019550808260051b8401018186016000805b858110156153bf57868403601f19018a52825180518552850151604086860181905281518187018190529187019160609081880190865b818110156156a95785518051151584528b8101518c8501528581015186850152848101516001600160a01b03908116868601526080808301519086015260a0918201511690840152948a019460c09092019160010161564f565b50509c88019c965050509285019250600101615618565b60008151808452602080850194506020840160005b8381101561526c5781518051885283015183880152604090960195908201906001016156d5565b600082825180855260208086019550808260051b84010181860160005b8481101561355257601f19868403018952815160806001600160a01b038083511686528087840151168787015250604080830151828288015261575e838801826156c0565b925050506060808301519250858203818701525061577c81836156c0565b9a86019a9450505090830190600101615719565b600082825180855260208086019550808260051b84010181860160005b8481101561355257858303601f19018952815180518452848101518585015260408082015190850152606080820151908501526080808201516001600160a01b03169085015260a080820151610300919061580a82880182615503565b505060c0820151816102c0870152615824828701826155fa565b91505060e082015191508481036102e086015261584181836156fc565b9a86019a94505050908301906001016157ad565b60008151808452602080850194506020840160005b8381101561526c5781516001600160a01b03168752958201959082019060010161586a565b600082825180855260208086019550808260051b84010181860160005b8481101561355257858303601f19018952815180516001600160a01b0316845284015160408585018190526158e381860183615855565b9a86019a94505050908301906001016158ac565b6001600160a01b038616815260a06020820152600061591960a08301876134b2565b828103604084015261592b8187615790565b9050828103606084015261593f818661588f565b9050828103608084015261595381856134b2565b98975050505050505050565b8481526080602082015260006159786080830186615790565b828103604084015261598a818661588f565b90508281036060840152614ddf81856134b2565b8481526080602082015260006159b760808301866134b2565b82810360408401526159c981866134b2565b91505082606083015295945050505050565b838152826020820152606060408201526000614b8660608301846155fa565b600082825180855260208086019550808260051b8401018186016000805b858110156153bf57868403601f19018a528251805164ffffffffff1685528581015160e0878701819052815190870181905261010087019188019085905b80821015615a95578251805185528a8101518b8601526040908101516001600160a01b0316908501526060909301929189019160019190910190615a56565b50505060408281015161ffff908116918801919091526060808401516dffffffffffffffffffffffffffff169088015260808084015164ffffffffff169088015260a08084015163ffffffff169088015260c0928301511691909501529884019891840191600101615a18565b600060408084016001600160a01b038085511686526020808601516040828901528381518086526060955060608a019150838301925060005b81811015615b835783518051871684528581015162ffffff16868501528881015163ffffffff9081168a86015290880151168784015292840192608090920191600101615b3b565b50909998505050505050505050565b60006101008083528a51608082850152805191506080610180850152615bbc6102008501836134b2565b9150602081015161017f1980868503016101a0870152615bdc84836134b2565b93506040830151915080868503016101c087015250615bfb83826134b2565b92505060608101516101e08501525060208b0151615c2261012085018263ffffffff169052565b5060408b01516001600160a01b031661014084015260608b015183820360ff1901610160850152615c5382826159fa565b9150508281036020840152615c68818b61588f565b90508281036040840152615c7c818a615b02565b90508281036060840152615c9081896153ec565b90508281036080840152615ca48188615790565b905082810360a0840152615cb881876134b2565b915050615cc960c083018515159052565b6001600160a01b03831660e08301529998505050505050505050565b600060208083018184528085518083526040925060408601915060408160051b87010184880160005b83811015615d8157888303603f19018552815180516001600160a01b0316845287810151888501528681015187850152606080820151908501526080808201519085015260a09081015160c091850182905290615d6d81860183615855565b968901969450505090860190600101615d0e565b509098975050505050505050565b818103818111156104fc576104fc614d11565b60008351615db481846020880161348e565b835190830190615dc881836020880161348e565b01949350505050565b60008085851115615de157600080fd5b83861115615dee57600080fd5b5050820193919092039150565b6bffffffffffffffffffffffff1981358181169160148510156132fc5760149490940360031b84901b1690921692915050565b63ffffffff851681526080602082015260006159b760808301866134b256fea264697066735822122054c9eddb9a9a142f2022d08b615e34c522438a4b6147a6ffa760da1092d5c51a64736f6c63430008170033",
			"deployedBytecode": "0x608060405234801561001057600080fd5b506004361061018d5760003560e01c80639ab68726116100e3578063b5d255331161008c578063dbfbe5da11610066578063dbfbe5da1461044c578063eb5ad9d91461045f578063ee0fc1211461047257600080fd5b8063b5d25533146103ff578063bb19940214610426578063bd43e7ba1461043957600080fd5b80639fafd73c116100bd5780639fafd73c14610385578063aaf320d7146103b5578063abf8c5c8146103d857600080fd5b80639ab68726146103555780639c62f179146103685780639d82ba251461037b57600080fd5b80635a31dc13116101455780637249a7731161011f5780637249a773146102d95780637da0a8771461031a57806382a09b301461034057600080fd5b80635a31dc13146102755780635c0a7cee146102a6578063677ce088146102c657600080fd5b806343681e151161017657806343681e15146101e65780634c4ffc7114610214578063572b6c051461023557600080fd5b806301ffc9a714610192578063150b7a02146101ba575b600080fd5b6101a56101a0366004613341565b610499565b60405190151581526020015b60405180910390f35b6101cd6101c836600461339a565b610502565b6040516001600160e01b031990911681526020016101b1565b6102066101f4366004613439565b60016020526000908152604090205481565b6040519081526020016101b1565b610227610222366004613452565b6105ce565b6040516101b192919061355f565b6101a5610243366004613580565b7f000000000000000000000000b2b5841dbef766d4b521221732f9b618fcf34a876001600160a01b0390811691161490565b61020661028336600461359d565b600260209081526000938452604080852082529284528284209052825290205481565b6102b96102b4366004613439565b6108d2565b6040516101b191906135d6565b6101a56102d43660046135e9565b6109f6565b6103026102e7366004613439565b6000602081905290815260409020546001600160a01b031681565b6040516001600160a01b0390911681526020016101b1565b7f000000000000000000000000b2b5841dbef766d4b521221732f9b618fcf34a87610302565b61035361034e36600461359d565b610b2b565b005b610206610363366004613f44565b610df3565b6102066103763660046140d0565b610e0f565b61020662278d0081565b610398610393366004614582565b610f1f565b604080519283526001600160a01b039091166020830152016101b1565b6103c86103c3366004614693565b61126f565b6040516101b194939291906146cf565b6103027f000000000000000000000000f97086e4cea8d11fcd64cb2e5dde0ab7588f5f0181565b6103027f00000000000000000000000001ad7869d85dc136f473db7f4f07b8f61414f64481565b61035361043436600461476f565b6113ac565b6103986104473660046148c0565b611668565b600654610302906001600160a01b031681565b61035361046d3660046135e9565b611805565b6103027f0000000000000000000000009c7993bff32dfd4e96f5c24d7ab3f9c93c30370481565b60006001600160e01b031982167f81c03c2e0000000000000000000000000000000000000000000000000000000014806104fc57507f01ffc9a7000000000000000000000000000000000000000000000000000000006001600160e01b03198316145b92915050565b60007f0000000000000000000000009c7993bff32dfd4e96f5c24d7ab3f9c93c3037046001600160a01b031663293c49996040518163ffffffff1660e01b8152600401602060405180830381865afa158015610562573d6000803e3d6000fd5b505050506040513d601f19601f8201168201806040525081019061058691906149f6565b6001600160a01b0316336001600160a01b0316146105a357600080fd5b507f150b7a020000000000000000000000000000000000000000000000000000000095945050505050565b60c081013560009081526020819052604081205460609081906001600160a01b0316801561068a576040517f4c4ffc710000000000000000000000000000000000000000000000000000000081526001600160a01b03821690634c4ffc719061063b908890600401614abe565b600060405180830381865afa158015610658573d6000803e3d6000fd5b505050506040513d6000823e601f3d908101601f191682016040526106809190810190614b8f565b9094509150610693565b84610120013593505b815160c086013560009081526005602090815260408083208054825181850281018501909352808352941515949192909190849084015b828210156107ae576000848152602090819020604080516060810182526003860290920180546001600160a01b031683526001810154938301939093526002830180549293929184019161071d90614cd7565b80601f016020809104026020016040519081016040528092919081815260200182805461074990614cd7565b80156107965780601f1061076b57610100808354040283529160200191610796565b820191906000526020600020905b81548152906001019060200180831161077957829003601f168201915b505050505081525050815260200190600101906106ca565b505050509050600081519050826107c65760006107c9565b60015b6107d69060ff1682614d27565b67ffffffffffffffff8111156107ee576107ee613619565b60405190808252806020026020018201604052801561083b57816020015b6040805160608082018352600080835260208301529181019190915281526020019060019003908161080c5790505b50955060005b818110156108885782818151811061085b5761085b614d3a565b602002602001015187828151811061087557610875614d3a565b6020908102919091010152600101610841565b5082156108c857846000815181106108a2576108a2614d3a565b60200260200101518682815181106108bc576108bc614d3a565b60200260200101819052505b5050505050915091565b606060056000838152602001908152602001600020805480602002602001604051908101604052809291908181526020016000905b828210156109eb576000848152602090819020604080516060810182526003860290920180546001600160a01b031683526001810154938301939093526002830180549293929184019161095a90614cd7565b80601f016020809104026020016040519081016040528092919081815260200182805461098690614cd7565b80156109d35780601f106109a8576101008083540402835291602001916109d3565b820191906000526020600020905b8154815290600101906020018083116109b657829003601f168201915b50505050508152505081526020019060010190610907565b505050509050919050565b6000828152602081905260408120546001600160a01b0390811690831603610a20575060016104fc565b6040517f3d12cb87000000000000000000000000000000000000000000000000000000008152600481018490526000907f00000000000000000000000001ad7869d85dc136f473db7f4f07b8f61414f6446001600160a01b031690633d12cb8790602401600060405180830381865afa158015610aa1573d6000803e3d6000fd5b505050506040513d6000823e601f3d908101601f19168201604052610ac99190810190614d50565b805190915060005b81811015610b1f57828181518110610aeb57610aeb614d3a565b60200260200101516001600160a01b0316856001600160a01b031603610b1757600193505050506104fc565b600101610ad1565b50600095945050505050565b60007f0000000000000000000000009c7993bff32dfd4e96f5c24d7ab3f9c93c3037046001600160a01b031663d4a1b4b16040518163ffffffff1660e01b8152600401602060405180830381865afa158015610b8b573d6000803e3d6000fd5b505050506040513d601f19601f82011682018060405250810190610baf91906149f6565b6040517f25a61d5c00000000000000000000000000000000000000000000000000000000815260048101869052602481018590526001600160a01b0391909116906325a61d5c9060440161012060405180830381865afa158015610c17573d6000803e3d6000fd5b505050506040513d601f19601f82011682018060405250810190610c3b9190614df5565b90504281606001511115610c7b576040517f13dec85c00000000000000000000000000000000000000000000000000000000815260040160405180910390fd5b600084815260026020908152604080832084830151845282528083206001600160a01b038616845290915281205490819003610cb8575050505050565b600085815260026020908152604080832087845282528083206001600160a01b038781168086529190935281842084905590516363fdc96f60e11b81526004810189905260248101859052604481019190915260a0606482015260a4810183905260848101929092527f0000000000000000000000009c7993bff32dfd4e96f5c24d7ab3f9c93c303704169063c7fb92de9060c4016020604051808303816000875af1158015610d6c573d6000803e3d6000fd5b505050506040513d601f19601f82011682018060405250810190610d909190614e75565b50826001600160a01b03168260200151867f598baf7bf150ca2f42be9e9f8f55e81d45f5715c3ff22bf46d697fabec7f31d68433604051610de49291909182526001600160a01b0316602082015260400190565b60405180910390a45050505050565b6000610e058686868630600088611cc4565b9695505050505050565b6000610e2488888888308761ffff168a611cc4565b835190985060005b81811015610ed05760008a81526005602052604090208551869083908110610e5657610e56614d3a565b6020908102919091018101518254600180820185556000948552938390208251600390920201805473ffffffffffffffffffffffffffffffffffffffff19166001600160a01b03909216919091178155918101519282019290925560408201516002820190610ec59082614edb565b505050600101610e2c565b50887fdfaf2737f25eace49d372b472ec03f1df0f9814dfc69d2b95c5e92a041f42e2985610efc6123c1565b604051610f0a929190614f9b565b60405180910390a25096979650505050505050565b6000808980820361101b577f0000000000000000000000009c7993bff32dfd4e96f5c24d7ab3f9c93c3037046001600160a01b031663293c49996040518163ffffffff1660e01b8152600401602060405180830381865afa158015610f88573d6000803e3d6000fd5b505050506040513d601f19601f82011682018060405250810190610fac91906149f6565b6001600160a01b03166306661abd6040518163ffffffff1660e01b8152600401602060405180830381865afa158015610fe9573d6000803e3d6000fd5b505050506040513d601f19601f8201168201806040525081019061100d9190614e75565b611018906001614d27565b9a505b8451600061102a826001614d27565b67ffffffffffffffff81111561104257611042613619565b60405190808252806020026020018201604052801561108f57816020015b604080516060808201835260008083526020830152918101919091528152602001906001900390816110605790505b50905060005b828110156110dc578781815181106110af576110af614d3a565b60200260200101518282815181106110c9576110c9614d3a565b6020908102919091010152600101611095565b507f000000000000000000000000f97086e4cea8d11fcd64cb2e5dde0ab7588f5f016001600160a01b0316632230819f8e8a600001516040518363ffffffff1660e01b815260040161112f9291906150e6565b6020604051808303816000875af115801561114e573d6000803e3d6000fd5b505050506040513d601f19601f8201168201806040525081019061117291906149f6565b93508760200151156111a15760008d815260046020908152604082208054600181018255908352912060159101555b8760400151156111ce5760008d815260046020908152604082208054600181018255908352912060169101555b8760600151156111fb5760008d815260046020908152604082208054600181018255908352912060179101555b6040518060600160405280856001600160a01b03168152602001600081526020016040518060200160405280600081525081525081838151811061124157611241614d3a565b602002602001018190525061125b838d8d8d8d868c610e0f565b508c94505050509850989650505050505050565b6000808060606001600160a01b037f00000000000000000000000001ad7869d85dc136f473db7f4f07b8f61414f644166383db9d01604087018035906112b89060208a01613580565b6040516001600160e01b031960e085901b16815260048101929092526001600160a01b03166024820152604401602060405180830381865afa158015611302573d6000803e3d6000fd5b505050506040513d601f19601f82011682018060405250810190611326919061521e565b156113435761271085608001358660a001359350935093506113a5565b60408086013560009081526001602052205442101561138e576040517f04c3b3cd00000000000000000000000000000000000000000000000000000000815260040160405180910390fd5b84610160013585608001358660a001359350935093505b9193509193565b7f0000000000000000000000009c7993bff32dfd4e96f5c24d7ab3f9c93c3037046001600160a01b0316631f47ce696040518163ffffffff1660e01b8152600401602060405180830381865afa15801561140a573d6000803e3d6000fd5b505050506040513d601f19601f8201168201806040525081019061142e91906149f6565b6001600160a01b031663f434c9146040518163ffffffff1660e01b8152600401602060405180830381865afa15801561146b573d6000803e3d6000fd5b505050506040513d601f19601f8201168201806040525081019061148f91906149f6565b6001600160a01b031663632af95f6114a56123c1565b30866114b0886123d0565b6000806040518763ffffffff1660e01b81526004016114d496959493929190615277565b602060405180830381865afa1580156114f1573d6000803e3d6000fd5b505050506040513d601f19601f82011682018060405250810190611515919061521e565b611532576040516331fb21f360e01b815260040160405180910390fd5b600061153c6123c1565b838360200151604051602001611554939291906152c3565b60408051601f1981840301815290829052805160209091012083517f2f3f50e00000000000000000000000000000000000000000000000000000000083529092506001600160a01b037f00000000000000000000000001ad7869d85dc136f473db7f4f07b8f61414f6441691632f3f50e0916115d691889186916004016153cd565b6000604051808303816000875af11580156115f5573d6000803e3d6000fd5b505050506040513d6000823e601f3d908101601f1916820160405261161d9190810190614d50565b5080847f755ecfca2f6e66af8868551556bf7931740a7062db8e0882f4c322fdb0bb3f60858561164b6123c1565b60405161165a93929190615415565b60405180910390a350505050565b60008061167b8b8b8b8b8b8b8b8b610f1f565b909b50905061168b8b8285612588565b7f0000000000000000000000009c7993bff32dfd4e96f5c24d7ab3f9c93c3037046001600160a01b031663f434c9146040518163ffffffff1660e01b8152600401602060405180830381865afa1580156116e9573d6000803e3d6000fd5b505050506040513d601f19601f8201168201806040525081019061170d91906149f6565b6001600160a01b03166305d2912e306040518060600160405280600660009054906101000a90046001600160a01b03166001600160a01b031681526020018f8152602001600780548060200260200160405190810160405280929190818152602001828054801561179d57602002820191906000526020600020905b815481526020019060010190808311611789575b50505050508152506040518363ffffffff1660e01b81526004016117c2929190615454565b600060405180830381600087803b1580156117dc57600080fd5b505af11580156117f0573d6000803e3d6000fd5b505050508a9150995099975050505050505050565b6000611810836123d0565b90507f0000000000000000000000009c7993bff32dfd4e96f5c24d7ab3f9c93c3037046001600160a01b0316631f47ce696040518163ffffffff1660e01b8152600401602060405180830381865afa158015611870573d6000803e3d6000fd5b505050506040513d601f19601f8201168201806040525081019061189491906149f6565b6001600160a01b031663f434c9146040518163ffffffff1660e01b8152600401602060405180830381865afa1580156118d1573d6000803e3d6000fd5b505050506040513d601f19601f820116820180604052508101906118f591906149f6565b6001600160a01b031663632af95f61190b6123c1565b3086856000806040518763ffffffff1660e01b815260040161193296959493929190615277565b602060405180830381865afa15801561194f573d6000803e3d6000fd5b505050506040513d601f19601f82011682018060405250810190611973919061521e565b611990576040516331fb21f360e01b815260040160405180910390fd5b7f0000000000000000000000009c7993bff32dfd4e96f5c24d7ab3f9c93c3037046001600160a01b0316631f47ce696040518163ffffffff1660e01b8152600401602060405180830381865afa1580156119ee573d6000803e3d6000fd5b505050506040513d601f19601f82011682018060405250810190611a1291906149f6565b6001600160a01b031663f434c9146040518163ffffffff1660e01b8152600401602060405180830381865afa158015611a4f573d6000803e3d6000fd5b505050506040513d601f19601f82011682018060405250810190611a7391906149f6565b6001600160a01b03166305d2912e306040518060600160405280611a956123c1565b6001600160a01b0316815260208082018990526040805160008152918201815291820152516001600160e01b031960e085901b168152611ad9929190600401615454565b600060405180830381600087803b158015611af357600080fd5b505af1158015611b07573d6000803e3d6000fd5b505050507f0000000000000000000000009c7993bff32dfd4e96f5c24d7ab3f9c93c3037046001600160a01b0316631f47ce696040518163ffffffff1660e01b8152600401602060405180830381865afa158015611b69573d6000803e3d6000fd5b505050506040513d601f19601f82011682018060405250810190611b8d91906149f6565b6001600160a01b031663f434c9146040518163ffffffff1660e01b8152600401602060405180830381865afa158015611bca573d6000803e3d6000fd5b505050506040513d601f19601f82011682018060405250810190611bee91906149f6565b6001600160a01b03166305d2912e306040518060600160405280866001600160a01b03168152602001878152602001858152506040518363ffffffff1660e01b8152600401611c3e929190615454565b600060405180830381600087803b158015611c5857600080fd5b505af1158015611c6c573d6000803e3d6000fd5b50505050816001600160a01b0316837f0329d6a81434b130c72eb65eea0e32e429dc1277b4aad86ec86454aefb618451611ca46123c1565b6040516001600160a01b03909116815260200160405180910390a3505050565b600080600080611cd58a888861276f565b9250925092508a600003611db0577f0000000000000000000000009c7993bff32dfd4e96f5c24d7ab3f9c93c3037046001600160a01b0316639e14fb80308c6000015160400151868d8f6000015160200151604051602001611d379190615497565b6040516020818303038152906040526040518663ffffffff1660e01b8152600401611d669594939291906158f7565b6020604051808303816000875af1158015611d85573d6000803e3d6000fd5b505050506040513d601f19601f82011682018060405250810190611da99190614e75565b9a50611e6e565b7f0000000000000000000000009c7993bff32dfd4e96f5c24d7ab3f9c93c3037046001600160a01b03166321df42e88c858c8e6000015160200151604051602001611dfb9190615497565b6040516020818303038152906040526040518563ffffffff1660e01b8152600401611e29949392919061595f565b6020604051808303816000875af1158015611e48573d6000803e3d6000fd5b505050506040513d601f19601f82011682018060405250810190611e6c9190614e75565b505b8015611e9157611e8162278d0042614d27565b60008c8152600160205260409020555b7f0000000000000000000000009c7993bff32dfd4e96f5c24d7ab3f9c93c3037046001600160a01b031663581781918c8c60000151600001518d60000151602001518e60000151606001516040518563ffffffff1660e01b8152600401611efb949392919061599e565b6020604051808303816000875af1158015611f1a573d6000803e3d6000fd5b505050506040513d601f19601f82011682018060405250810190611f3e91906149f6565b5087516001600160a01b031615611f5957611f598b89612b98565b7f0000000000000000000000009c7993bff32dfd4e96f5c24d7ab3f9c93c3037046001600160a01b031663dd5f214a8c6000611f988e60400151612cf8565b6040518463ffffffff1660e01b8152600401611fb6939291906159db565b600060405180830381600087803b158015611fd057600080fd5b505af1158015611fe4573d6000803e3d6000fd5b50505050611ff28b8b612e36565b600060405180606001604052808c604001516001600160a01b031681526020018d81526020016120218e6123d0565b81525090507f0000000000000000000000009c7993bff32dfd4e96f5c24d7ab3f9c93c3037046001600160a01b031663f434c9146040518163ffffffff1660e01b8152600401602060405180830381865afa158015612084573d6000803e3d6000fd5b505050506040513d601f19601f820116820180604052508101906120a891906149f6565b6001600160a01b03166305d2912e30836040518363ffffffff1660e01b81526004016120d5929190615454565b600060405180830381600087803b1580156120ef57600080fd5b505af1158015612103573d6000803e3d6000fd5b5060009250600191506121139050565b60405190808252806020026020018201604052801561213c578160200160208202803683370190505b509050601c8160008151811061215457612154614d3a565b60200260200101818152505060405180606001604052807f00000000000000000000000001ad7869d85dc136f473db7f4f07b8f61414f6446001600160a01b031681526020018e81526020018281525091507f0000000000000000000000009c7993bff32dfd4e96f5c24d7ab3f9c93c3037046001600160a01b031663f434c9146040518163ffffffff1660e01b8152600401602060405180830381865afa158015612204573d6000803e3d6000fd5b505050506040513d601f19601f8201168201806040525081019061222891906149f6565b6001600160a01b03166305d2912e30846040518363ffffffff1660e01b8152600401612255929190615454565b600060405180830381600087803b15801561226f57600080fd5b505af1158015612283573d6000803e3d6000fd5b50505050602087015115612363577f00000000000000000000000001ad7869d85dc136f473db7f4f07b8f61414f6446001600160a01b0316632f3f50e08e6122c96123c1565b878b602001516040516020016122e1939291906152c3565b60408051601f198184030181529082905280516020909101208b516001600160e01b031960e086901b16835261231a93926004016153cd565b6000604051808303816000875af1158015612339573d6000803e3d6000fd5b505050506040513d6000823e601f3d908101601f191682016040526123619190810190614d50565b505b8c7fabdf3ec8139195645b1e44778a910396624b7d2913c04b613f4800ad25d710468d8d8d8b8a8a8a6123946123c1565b6040516123a8989796959493929190615b92565b60405180910390a2509a9b9a5050505050505050505050565b60006123cb61313c565b905090565b60606000600380548060200260200160405190810160405280929190818152602001828054801561242057602002820191906000526020600020905b81548152602001906001019080831161240c575b5050835160008881526004602090815260408083208054825181850281018501909352808352989950939792965094509192509083018282801561248357602002820191906000526020600020905b81548152602001906001019080831161246f575b5050835193945061249a9250839150859050614d27565b67ffffffffffffffff8111156124b2576124b2613619565b6040519080825280602002602001820160405280156124db578160200160208202803683370190505b50945060005b83811015612528578481815181106124fb576124fb614d3a565b602002602001015186828151811061251557612515614d3a565b60209081029190910101526001016124e1565b5060005b8181101561257e5782818151811061254657612546614d3a565b602002602001015186828661255b9190614d27565b8151811061256b5761256b614d3a565b602090810291909101015260010161252c565b5050505050919050565b805160008167ffffffffffffffff8111156125a5576125a5613619565b60405190808252806020026020018201604052801561261857816020015b6126056040518060c0016040528060006001600160a01b0316815260200160008152602001600081526020016000815260200160008152602001606081525090565b8152602001906001900390816125c35790505b50905061264d6040518060a0016040528060008152602001600081526020016000815260200160008152602001606081525090565b60005b838110156126e35784818151811061266a5761266a614d3a565b602002602001015191506040518060c00160405280876001600160a01b031681526020018360000151815260200183602001518152602001836040015181526020018360600151815260200183608001518152508382815181106126d0576126d0614d3a565b6020908102919091010152600101612650565b50835115612767576006546040517f9b9b7aa90000000000000000000000000000000000000000000000000000000081526001600160a01b0390911690639b9b7aa990612734908590600401615ce5565b600060405180830381600087803b15801561274e57600080fd5b505af1158015612762573d6000803e3d6000fd5b505050505b505050505050565b6060838101515181906000908067ffffffffffffffff81111561279457612794613619565b60405190808252806020026020018201604052801561288e57816020015b61287b6040805161010080820183526000808352602080840182905283850182905260608085018390526080808601849052865161022081018852848152928301849052958201839052810182905293840181905260a084810182905260c0850182905260e0850182905291840181905261012084018190526101408401819052610160840181905261018084018190526101a084018190526101c084018190526101e08401819052610200840152909190820190815260200160608152602001606081525090565b8152602001906001900390816127b25790505b50935061289a876131b1565b6040805160e08101825260008082526060602083018190529282018190529181018290526080810182905260a0810182905260c08101829052919450805b83811015612b8b57896060015181815181106128f6576128f6614d3a565b6020026020010151925081836000015164ffffffffff1611612944576040517f0aec2d6900000000000000000000000000000000000000000000000000000000815260040160405180910390fd5b826000015164ffffffffff1687828151811061296257612962614d3a565b60200260200101516000018181525050826080015164ffffffffff1687828151811061299057612990614d3a565b6020026020010151602001818152505082606001516dffffffffffffffffffffffffffff168782815181106129c7576129c7614d3a565b602002602001015160400181815250508260a0015163ffffffff168782815181106129f4576129f4614d3a565b602002602001015160600181815250506000878281518110612a1857612a18614d3a565b6020026020010151608001906001600160a01b031690816001600160a01b031681525050604051806102200160405280846040015161ffff1681526020018460c0015161ffff16612710612a6c9190615d8f565b815260208c81015163ffffffff16908201526000604082018190526060820181905260016080830181905260a0830181905260c0830182905260e0830182905261010083018290526101208301829052610140830182905261016083018290526101808301526101a08201526001600160a01b038b166101c08201526101e0018990528751889083908110612b0357612b03614d3a565b602002602001015160a00181905250806000148015612b295750825164ffffffffff1615155b8015612b3f575042836000015164ffffffffff16105b15612b4957600194505b85612b5484836131eb565b604051602001612b65929190615da2565b60408051601f19818403018152919052835190965064ffffffffff1691506001016128d8565b5050505093509350939050565b602081810151516040805160808101825260008082529381018490529081018390526060810183905290915b82811015612cb75783602001518181518110612be257612be2614d3a565b6020908102919091018101518551918101516040808301516060840151845192517f7b621d3a000000000000000000000000000000000000000000000000000000008152600481018c905262ffffff909416602485015263ffffffff91821660448501521660648301526001600160a01b039081166084830152919450911690637b621d3a9060a4016020604051808303816000875af1158015612c8a573d6000803e3d6000fd5b505050506040513d601f19601f82011682018060405250810190612cae91906149f6565b50600101612bc4565b50509051600092835260208390526040909220805473ffffffffffffffffffffffffffffffffffffffff19166001600160a01b039093169290921790915550565b604080516001808252818301909252606091816020015b604080518082019091526000815260606020820152815260200190600190039081612d0f57505060408051600180825281830190925291925060009190602082015b6040805160c08101825260008082526020808301829052928201819052606082018190526080820181905260a08201528252600019909201910181612d515790505090506040518060c00160405280600015158152602001633b9aca00815260200160008152602001846001600160a01b031681526020016000815260200160006001600160a01b031681525081600081518110612df157612df1614d3a565b60200260200101819052506040518060400160405280600181526020018281525082600081518110612e2557612e25614d3a565b602002602001018190525050919050565b606080820151516040805160e0810182526000808252602082018590529181018290529283018190526080830181905260a0830181905260c08301529060005b828110156131355783606001518181518110612e9457612e94614d3a565b6020026020010151915060008260200151519050612ed56040518060600160405280600081526020016000815260200160006001600160a01b031681525090565b60005b8281101561312a5784602001518181518110612ef657612ef6614d3a565b602002602001015191504682600001510361312257831580612f23575042856000015164ffffffffff1611155b1561305057602082015160408084015190516363fdc96f60e11b8152600481018b905260248101929092526001600160a01b03908116604483015260a06064830152600060a4830181905260848301527f0000000000000000000000009c7993bff32dfd4e96f5c24d7ab3f9c93c303704169063c7fb92de9060c4016020604051808303816000875af1158015612fbe573d6000803e3d6000fd5b505050506040513d601f19601f82011682018060405250810190612fe29190614e75565b5060408201516001600160a01b0316612ffb8542614d27565b897f598baf7bf150ca2f42be9e9f8f55e81d45f5715c3ff22bf46d697fabec7f31d68560200151336040516130439291909182526001600160a01b0316602082015260400190565b60405180910390a4613122565b60208083015160008a815260029092526040822090916130708742614d27565b8152602001908152602001600020600084604001516001600160a01b03166001600160a01b0316815260200190815260200160002060008282546130b49190614d27565b909155505060408201516001600160a01b03166130d18542614d27565b897f9e83979117d75aa75fe101361cf46235d3d0a6fa7afafb275d2b9f8af02273138560200151336040516131199291909182526001600160a01b0316602082015260400190565b60405180910390a45b600101612ed8565b505050600101612e76565b5050505050565b6000366014336001600160a01b037f000000000000000000000000b2b5841dbef766d4b521221732f9b618fcf34a87161480156131795750808210155b156131a95760003661318b8385615d8f565b613196928290615dd1565b61319f91615dfb565b60601c9250505090565b339250505090565b602080820151825180518184015160609283015160405193956131d5959401615e2e565b6040516020818303038152906040529050919050565b6060811580156132015750825164ffffffffff16155b61321357825164ffffffffff16613215565b425b6040808501516060860151608087015160a088015160c0890151945161328696959060200195865261ffff94851660208701526dffffffffffffffffffffffffffff93909316604086015264ffffffffff91909116606085015263ffffffff1660808401521660a082015260c00190565b60408051601f1981840301815291905260208401515190915060005b818110156132fc57826132d1866020015183815181106132c4576132c4614d3a565b6020026020010151613304565b6040516020016132e2929190615da2565b60408051601f1981840301815291905292506001016132a2565b505092915050565b60608160000151826040015183602001516040516020016131d5939291909283526001600160a01b03919091166020830152604082015260600190565b60006020828403121561335357600080fd5b81356001600160e01b03198116811461336b57600080fd5b9392505050565b6001600160a01b038116811461338757600080fd5b50565b803561339581613372565b919050565b6000806000806000608086880312156133b257600080fd5b85356133bd81613372565b945060208601356133cd81613372565b935060408601359250606086013567ffffffffffffffff808211156133f157600080fd5b818801915088601f83011261340557600080fd5b81358181111561341457600080fd5b89602082850101111561342657600080fd5b9699959850939650602001949392505050565b60006020828403121561344b57600080fd5b5035919050565b60006020828403121561346457600080fd5b813567ffffffffffffffff81111561347b57600080fd5b8201610180818503121561336b57600080fd5b60005b838110156134a9578181015183820152602001613491565b50506000910152565b600081518084526134ca81602086016020860161348e565b601f01601f19169290920160200192915050565b600082825180855260208086019550808260051b84010181860160005b8481101561355257858303601f19018952815180516001600160a01b03168452848101518585015260409081015160609185018290529061353e818601836134b2565b9a86019a94505050908301906001016134fb565b5090979650505050505050565b82815260406020820152600061357860408301846134de565b949350505050565b60006020828403121561359257600080fd5b813561336b81613372565b6000806000606084860312156135b257600080fd5b833592506020840135915060408401356135cb81613372565b809150509250925092565b60208152600061336b60208301846134de565b600080604083850312156135fc57600080fd5b82359150602083013561360e81613372565b809150509250929050565b634e487b7160e01b600052604160045260246000fd5b6040516060810167ffffffffffffffff8111828210171561365257613652613619565b60405290565b60405160e0810167ffffffffffffffff8111828210171561365257613652613619565b6040516080810167ffffffffffffffff8111828210171561365257613652613619565b6040805190810167ffffffffffffffff8111828210171561365257613652613619565b604051610180810167ffffffffffffffff8111828210171561365257613652613619565b604051610120810167ffffffffffffffff8111828210171561365257613652613619565b60405160a0810167ffffffffffffffff8111828210171561365257613652613619565b604051601f8201601f1916810167ffffffffffffffff8111828210171561375557613755613619565b604052919050565b600067ffffffffffffffff82111561377757613777613619565b50601f01601f191660200190565b600082601f83011261379657600080fd5b81356137a96137a48261375d565b61372c565b8181528460208386010111156137be57600080fd5b816020850160208301376000918101602001919091529392505050565b803563ffffffff8116811461339557600080fd5b600067ffffffffffffffff82111561380957613809613619565b5060051b60200190565b803564ffffffffff8116811461339557600080fd5b600082601f83011261383957600080fd5b813560206138496137a4836137ef565b8281526060928302850182019282820191908785111561386857600080fd5b8387015b858110156135525781818a0312156138845760008081fd5b61388c61362f565b8135815285820135868201526040808301356138a781613372565b90820152845292840192810161386c565b803561ffff8116811461339557600080fd5b80356dffffffffffffffffffffffffffff8116811461339557600080fd5b600082601f8301126138f957600080fd5b813560206139096137a4836137ef565b82815260059290921b8401810191818101908684111561392857600080fd5b8286015b84811015613a0a57803567ffffffffffffffff8082111561394d5760008081fd5b9088019060e0828b03601f19018113156139675760008081fd5b61396f613658565b61397a888501613813565b8152604080850135848111156139905760008081fd5b61399e8e8b83890101613828565b8a84015250606093506139b28486016138b8565b9082015260806139c38582016138ca565b8483015260a093506139d6848601613813565b9082015260c06139e78582016137db565b848301526139f68386016138b8565b90820152865250505091830191830161392c565b509695505050505050565b600060808284031215613a2757600080fd5b613a2f61367b565b9050813567ffffffffffffffff80821115613a4957600080fd5b9083019060808286031215613a5d57600080fd5b613a6561367b565b823582811115613a7457600080fd5b613a8087828601613785565b825250602083013582811115613a9557600080fd5b613aa187828601613785565b602083015250604083013582811115613ab957600080fd5b613ac587828601613785565b604083015250606083810135908201528352613ae3602085016137db565b6020840152613af46040850161338a565b60408401526060840135915080821115613b0d57600080fd5b50613b1a848285016138e8565b60608301525092915050565b600082601f830112613b3757600080fd5b81356020613b476137a4836137ef565b8083825260208201915060208460051b870101935086841115613b6957600080fd5b602086015b84811015613a0a578035613b8181613372565b8352918301918301613b6e565b600082601f830112613b9f57600080fd5b81356020613baf6137a4836137ef565b82815260059290921b84018101918181019086841115613bce57600080fd5b8286015b84811015613a0a57803567ffffffffffffffff80821115613bf35760008081fd5b908801906040828b03601f1901811315613c0d5760008081fd5b613c1561369e565b87840135613c2281613372565b8152908301359082821115613c375760008081fd5b613c458c8984870101613b26565b818901528652505050918301918301613bd2565b803562ffffff8116811461339557600080fd5b60006040808385031215613c7f57600080fd5b613c8761369e565b91508235613c9481613372565b825260208381013567ffffffffffffffff811115613cb157600080fd5b8401601f81018613613cc257600080fd5b8035613cd06137a4826137ef565b81815260079190911b82018301908381019088831115613cef57600080fd5b928401925b82841015613d63576080848a031215613d0d5760008081fd5b613d1561367b565b8435613d2081613372565b8152613d2d858701613c59565b86820152613d3c8786016137db565b878201526060613d4d8187016137db565b9082015282526080939093019290840190613cf4565b808588015250505050505092915050565b600060408284031215613d8657600080fd5b613d8e61369e565b905067ffffffffffffffff8083351115613da757600080fd5b8235830184601f820112613dba57600080fd5b613dc76137a482356137ef565b81358082526020808301929160051b84010187811115613de657600080fd5b602084015b81811015613f2b578581351115613e0157600080fd5b803585016040818b03601f19011215613e1957600080fd5b613e2161369e565b613e2e6020830135613372565b602082013581528760408301351115613e4657600080fd5b6040820135820191508a603f830112613e5e57600080fd5b6020820135613e6f6137a4826137ef565b81815260079190911b83016040019060208101908d831115613e9057600080fd5b6040850194505b82851015613f0c576080858f031215613eaf57600080fd5b613eb761367b565b613ec18635613372565b85358152613ed1602087016137db565b6020820152613ee36040870135613372565b604086013560408201526060860135606082015280835250602082019150608085019450613e97565b8060208501525050508086525050602084019350602081019050613deb565b5050808552505050506020820135602082015292915050565b600080600080600060a08688031215613f5c57600080fd5b85359450602086013567ffffffffffffffff80821115613f7b57600080fd5b613f8789838a01613a15565b95506040880135915080821115613f9d57600080fd5b613fa989838a01613b8e565b94506060880135915080821115613fbf57600080fd5b613fcb89838a01613c6c565b93506080880135915080821115613fe157600080fd5b50613fee88828901613d74565b9150509295509295909350565b600082601f83011261400c57600080fd5b8135602061401c6137a4836137ef565b82815260059290921b8401810191818101908684111561403b57600080fd5b8286015b84811015613a0a57803567ffffffffffffffff808211156140605760008081fd5b908801906060828b03601f190181131561407a5760008081fd5b61408261362f565b8784013561408f81613372565b8152604084810135898301529184013591838311156140ae5760008081fd5b6140bc8d8a85880101613785565b90820152865250505091830191830161403f565b600080600080600080600060e0888a0312156140eb57600080fd5b87359650602088013567ffffffffffffffff8082111561410a57600080fd5b6141168b838c01613a15565b975060408a013591508082111561412c57600080fd5b6141388b838c01613b8e565b965060608a013591508082111561414e57600080fd5b61415a8b838c01613c6c565b955060808a013591508082111561417057600080fd5b61417c8b838c01613d74565b945060a08a013591508082111561419257600080fd5b5061419f8a828b01613ffb565b9250506141ae60c089016138b8565b905092959891949750929550565b80356cffffffffffffffffffffffffff8116811461339557600080fd5b801515811461338757600080fd5b8035613395816141d9565b803560ff8116811461339557600080fd5b6000608080838503121561421657600080fd5b61421e61367b565b9150823567ffffffffffffffff81111561423757600080fd5b8301601f8101851361424857600080fd5b803560206142586137a4836137ef565b828152610180928302840182019282820191908985111561427857600080fd5b948301945b8486101561436b5780868b0312156142955760008081fd5b61429d6136c1565b6142a6876141bc565b81526142b38588016137db565b8582015260406142c48189016137db565b9082015260606142d58882016138b8565b908201526142e487890161338a565b8189015260a0878101359082015260c06142ff818901613c59565b9082015260e06143108882016141e7565b908201526101006143228882016141e7565b908201526101206143348882016141e7565b908201526101406143468882016141e7565b908201526101606143588882016141e7565b908201528352948501949183019161427d565b5086525061437a8682016137db565b818601525050505061438e604083016141f2565b604082015261439f6060830161338a565b606082015292915050565b6000608082840312156143bc57600080fd5b6143c461367b565b905081356143d1816141d9565b815260208201356143e1816141d9565b602082015260408201356143f4816141d9565b6040820152606082013561439f816141d9565b60006080828403121561441957600080fd5b61442161367b565b9050813567ffffffffffffffff8082111561443b57600080fd5b90830190610180828603121561445057600080fd5b6144586136e5565b82358281111561446757600080fd5b61447387828601613785565b82525060208301358281111561448857600080fd5b61449487828601613785565b6020830152506144a66040840161338a565b60408201526060830135828111156144bd57600080fd5b6144c987828601613785565b6060830152506144db6080840161338a565b608082015260a0830135828111156144f257600080fd5b6144fe87828601613785565b60a08301525060c08301358281111561451657600080fd5b61452287828601614203565b60c08301525061453460e0840161338a565b60e0820152610100915061454a868385016143aa565b82820152808452505050614560602083016141e7565b6020820152614571604083016141e7565b604082015261439f606083016141e7565b600080600080600080600080610100898b03121561459f57600080fd5b88359750602089013567ffffffffffffffff808211156145be57600080fd5b6145ca8c838d01613a15565b985060408b01359150808211156145e057600080fd5b6145ec8c838d01613b8e565b975060608b013591508082111561460257600080fd5b61460e8c838d01613c6c565b965060808b013591508082111561462457600080fd5b6146308c838d01613d74565b955060a08b013591508082111561464657600080fd5b6146528c838d01614407565b945060c08b013591508082111561466857600080fd5b506146758b828c01613ffb565b92505061468460e08a016138b8565b90509295985092959890939650565b6000602082840312156146a557600080fd5b813567ffffffffffffffff8111156146bc57600080fd5b82016101a0818503121561336b57600080fd5b60006080820186835260208681850152604086604086015260606080606087015283875180865260a08801915060a08160051b890101955084890160005b8281101561475d57898803609f19018452815180516001600160a01b0316895287810151888a015286015186890186905261474a868a01826134b2565b985050928601929086019060010161470d565b50959c9b505050505050505050505050565b60008060006060848603121561478457600080fd5b83359250602084013567ffffffffffffffff808211156147a357600080fd5b6147af87838801613785565b935060408601359150808211156147c557600080fd5b506147d286828701613d74565b9150509250925092565b600082601f8301126147ed57600080fd5b813560206147fd6137a4836137ef565b82815260059290921b8401810191818101908684111561481c57600080fd5b8286015b84811015613a0a57803567ffffffffffffffff808211156148415760008081fd5b9088019060a0828b03601f190181131561485b5760008081fd5b614863613709565b8784013581526040808501358983015260608086013582840152608091508186013581840152508285013592508383111561489e5760008081fd5b6148ac8d8a85880101613b26565b908201528652505050918301918301614820565b60008060008060008060008060006101208a8c0312156148df57600080fd5b8935985060208a013567ffffffffffffffff808211156148fe57600080fd5b61490a8d838e01613a15565b995060408c013591508082111561492057600080fd5b61492c8d838e01613b8e565b985060608c013591508082111561494257600080fd5b61494e8d838e01613c6c565b975060808c013591508082111561496457600080fd5b6149708d838e01613d74565b965060a08c013591508082111561498657600080fd5b6149928d838e01614407565b955060c08c01359150808211156149a857600080fd5b6149b48d838e01613ffb565b94506149c260e08d016138b8565b93506101008c01359150808211156149d957600080fd5b506149e68c828d016147dc565b9150509295985092959850929598565b600060208284031215614a0857600080fd5b815161336b81613372565b8035614a1e81613372565b6001600160a01b031682526020818101359083015260408082013590830152606090810135910152565b6000808335601e19843603018112614a5f57600080fd5b830160208101925035905067ffffffffffffffff811115614a7f57600080fd5b803603821315614a8e57600080fd5b9250929050565b81835281816020850137506000828201602090810191909152601f909101601f19169091010190565b60208152614adf60208201614ad28461338a565b6001600160a01b03169052565b6000614aed6020840161338a565b6001600160a01b038116604084015250614b0d6060830160408501614a13565b60c083013560e083015261010060e084013581840152614b2e81850161338a565b9050610120614b47818501836001600160a01b03169052565b61014091508085013582850152506101608185013581850152614b6c81860186614a48565b6101808681015292509050614b866101a085018383614a95565b95945050505050565b6000806040808486031215614ba357600080fd5b8351925060208085015167ffffffffffffffff80821115614bc357600080fd5b818701915087601f830112614bd757600080fd5b8151614be56137a4826137ef565b81815260059190911b8301840190848101908a831115614c0457600080fd5b8585015b83811015614cc557805185811115614c1f57600080fd5b86016060818e03601f19011215614c365760008081fd5b614c3e61362f565b88820151614c4b81613372565b8152818a015189820152606082015187811115614c685760008081fd5b8083019250508d603f830112614c7e5760008081fd5b88820151614c8e6137a48261375d565b8181528f8c838601011115614ca35760008081fd5b614cb2828c83018e870161348e565b828c015250845250918601918601614c08565b50809750505050505050509250929050565b600181811c90821680614ceb57607f821691505b602082108103614d0b57634e487b7160e01b600052602260045260246000fd5b50919050565b634e487b7160e01b600052601160045260246000fd5b808201808211156104fc576104fc614d11565b634e487b7160e01b600052603260045260246000fd5b60006020808385031215614d6357600080fd5b825167ffffffffffffffff811115614d7a57600080fd5b8301601f81018513614d8b57600080fd5b8051614d996137a4826137ef565b81815260059190911b82018301908381019087831115614db857600080fd5b928401925b82841015614ddf578351614dd081613372565b82529284019290840190614dbd565b979650505050505050565b805161339581613372565b60006101208284031215614e0857600080fd5b614e106136e5565b825181526020830151602082015260408301516040820152606083015160608201526080830151608082015260a083015160a082015260c083015160c0820152614e5c60e08401614dea565b60e0820152610100928301519281019290925250919050565b600060208284031215614e8757600080fd5b5051919050565b601f821115614ed6576000816000526020600020601f850160051c81016020861015614eb75750805b601f850160051c820191505b8181101561276757828155600101614ec3565b505050565b815167ffffffffffffffff811115614ef557614ef5613619565b614f0981614f038454614cd7565b84614e8e565b602080601f831160018114614f3e5760008415614f265750858301515b600019600386901b1c1916600185901b178555612767565b600085815260208120601f198616915b82811015614f6d57888601518255948401946001909101908401614f4e565b5085821015614f8b5787850151600019600388901b60f8161c191681555b5050505050600190811b01905550565b604081526000614fae60408301856134de565b90506001600160a01b03831660208301529392505050565b80516080808452815184820181905260009260a0916020918201918388019190865b828110156150ab57845180516cffffffffffffffffffffffffff1685528281015163ffffffff908116848701526040808301519091169086015260608082015161ffff1690860152878101516001600160a01b031688860152868101518786015260c08082015162ffffff169086015260e080820151151590860152610100808201511515908601526101208082015115159086015261014080820151151590860152610160908101511515908501529381019361018090930192600101614fe8565b508781015163ffffffff16908901525060408087015160ff16908801526060808701516001600160a01b038116918901919091529350610e05565b8281526040602082015260008251610180604084015261510a6101c08401826134b2565b90506020840151603f198085840301606086015261512883836134b2565b92506040860151915061514660808601836001600160a01b03169052565b60608601519150808584030160a086015261516183836134b2565b92506080860151915061517f60c08601836001600160a01b03169052565b60a08601519150808584030160e086015261519a83836134b2565b925060c086015191506101008186850301818701526151b98484614fc6565b935060e087015192506151d86101208701846001600160a01b03169052565b860151805115156101408701526020810151151561016087015260408101511515610180870152606081015115156101a087015291506152159050565b50949350505050565b60006020828403121561523057600080fd5b815161336b816141d9565b60008151808452602080850194506020840160005b8381101561526c57815187529582019590820190600101615250565b509495945050505050565b60006001600160a01b03808916835280881660208401525085604083015260c060608301526152a960c083018661523b565b93151560808301525090151560a090910152949350505050565b6bffffffffffffffffffffffff198460601b168152600083516152ed81601485016020880161348e565b60149201918201929092526034019392505050565b600082825180855260208086019550808260051b8401018186016000805b858110156153bf57868403601f19018a52825180516001600160a01b03908116865290860151604087870181905281518188018190529188019290916060919082890190875b818110156153a75786518051851684528c81015163ffffffff168d8501528681015185168785015285015185840152958b0195608090920191600101615366565b50509d89019d97505050938601935050600101615320565b509198975050505050505050565b838152826020820152606060408201526000614b866060830184615302565b60008151604084526154016040850182615302565b602093840151949093019390935250919050565b60608152600061542860608301866134b2565b828103602084015261543a81866153ec565b9150506001600160a01b0383166040830152949350505050565b60006001600160a01b038085168352604060208401528084511660408401525060208301516060830152604083015160606080840152614b8660a084018261523b565b7f24000000000000000000000000000000000000000000000000000000000000008152600082516154cf81600185016020870161348e565b7f207265766e6574206465706c6f796564000000000000000000000000000000006001939091019283015250601101919050565b805182526020810151602083015260408101516040830152606081015161552e606084018215159052565b506080810151615542608084018215159052565b5060a081015161555660a084018215159052565b5060c081015161556a60c084018215159052565b5060e081015161557e60e084018215159052565b5061010081810151151590830152610120808201511515908301526101408082015115159083015261016080820151151590830152610180808201511515908301526101a0808201511515908301526101c0808201511515908301526101e0808201516001600160a01b03169083015261020090810151910152565b600082825180855260208086019550808260051b8401018186016000805b858110156153bf57868403601f19018a52825180518552850151604086860181905281518187018190529187019160609081880190865b818110156156a95785518051151584528b8101518c8501528581015186850152848101516001600160a01b03908116868601526080808301519086015260a0918201511690840152948a019460c09092019160010161564f565b50509c88019c965050509285019250600101615618565b60008151808452602080850194506020840160005b8381101561526c5781518051885283015183880152604090960195908201906001016156d5565b600082825180855260208086019550808260051b84010181860160005b8481101561355257601f19868403018952815160806001600160a01b038083511686528087840151168787015250604080830151828288015261575e838801826156c0565b925050506060808301519250858203818701525061577c81836156c0565b9a86019a9450505090830190600101615719565b600082825180855260208086019550808260051b84010181860160005b8481101561355257858303601f19018952815180518452848101518585015260408082015190850152606080820151908501526080808201516001600160a01b03169085015260a080820151610300919061580a82880182615503565b505060c0820151816102c0870152615824828701826155fa565b91505060e082015191508481036102e086015261584181836156fc565b9a86019a94505050908301906001016157ad565b60008151808452602080850194506020840160005b8381101561526c5781516001600160a01b03168752958201959082019060010161586a565b600082825180855260208086019550808260051b84010181860160005b8481101561355257858303601f19018952815180516001600160a01b0316845284015160408585018190526158e381860183615855565b9a86019a94505050908301906001016158ac565b6001600160a01b038616815260a06020820152600061591960a08301876134b2565b828103604084015261592b8187615790565b9050828103606084015261593f818661588f565b9050828103608084015261595381856134b2565b98975050505050505050565b8481526080602082015260006159786080830186615790565b828103604084015261598a818661588f565b90508281036060840152614ddf81856134b2565b8481526080602082015260006159b760808301866134b2565b82810360408401526159c981866134b2565b91505082606083015295945050505050565b838152826020820152606060408201526000614b8660608301846155fa565b600082825180855260208086019550808260051b8401018186016000805b858110156153bf57868403601f19018a528251805164ffffffffff1685528581015160e0878701819052815190870181905261010087019188019085905b80821015615a95578251805185528a8101518b8601526040908101516001600160a01b0316908501526060909301929189019160019190910190615a56565b50505060408281015161ffff908116918801919091526060808401516dffffffffffffffffffffffffffff169088015260808084015164ffffffffff169088015260a08084015163ffffffff169088015260c0928301511691909501529884019891840191600101615a18565b600060408084016001600160a01b038085511686526020808601516040828901528381518086526060955060608a019150838301925060005b81811015615b835783518051871684528581015162ffffff16868501528881015163ffffffff9081168a86015290880151168784015292840192608090920191600101615b3b565b50909998505050505050505050565b60006101008083528a51608082850152805191506080610180850152615bbc6102008501836134b2565b9150602081015161017f1980868503016101a0870152615bdc84836134b2565b93506040830151915080868503016101c087015250615bfb83826134b2565b92505060608101516101e08501525060208b0151615c2261012085018263ffffffff169052565b5060408b01516001600160a01b031661014084015260608b015183820360ff1901610160850152615c5382826159fa565b9150508281036020840152615c68818b61588f565b90508281036040840152615c7c818a615b02565b90508281036060840152615c9081896153ec565b90508281036080840152615ca48188615790565b905082810360a0840152615cb881876134b2565b915050615cc960c083018515159052565b6001600160a01b03831660e08301529998505050505050505050565b600060208083018184528085518083526040925060408601915060408160051b87010184880160005b83811015615d8157888303603f19018552815180516001600160a01b0316845287810151888501528681015187850152606080820151908501526080808201519085015260a09081015160c091850182905290615d6d81860183615855565b968901969450505090860190600101615d0e565b509098975050505050505050565b818103818111156104fc576104fc614d11565b60008351615db481846020880161348e565b835190830190615dc881836020880161348e565b01949350505050565b60008085851115615de157600080fd5b83861115615dee57600080fd5b5050820193919092039150565b6bffffffffffffffffffffffff1981358181169160148510156132fc5760149490940360031b84901b1690921692915050565b63ffffffff851681526080602082015260006159b760808301866134b256fea264697066735822122054c9eddb9a9a142f2022d08b615e34c522438a4b6147a6ffa760da1092d5c51a64736f6c63430008170033",
			"devdoc": {
				"kind": "dev",
				"methods": {
					"beforePayRecordedWith((address,address,(address,uint256,uint256,uint256),uint256,uint256,address,uint256,uint256,bytes))": {
						"details": "Part of IJBFundingCycleDataSource.This implementation just sets this contract up to receive a `didPay` call.",
						"params": {
							"context": "The Juicebox standard network payment context. See"
						},
						"returns": {
							"hookSpecifications": "Amount to be sent to pay hooks instead of adding to local balance. Useful for auto-routing funds from a treasury as payment come in.",
							"weight": "The weight that network tokens should get minted relative to. This is useful for optionally customizing how many tokens are issued per payment."
						}
					},
					"constructor": {
						"params": {
							"controller": "The controller that revnets are made from.",
							"hookDeployer": "The 721 tiers hook deployer.",
							"publisher": "The croptop publisher that facilitates the permissioned publishing of 721 posts to a revnet.",
							"suckerRegistry": "The registry that deploys and tracks each project's suckers.",
							"trustedForwarder": "The trusted forwarder for the ERC2771Context."
						}
					},
					"deploySuckersFor(uint256,bytes,((address,(address,uint32,address,uint256)[])[],bytes32))": {
						"params": {
							"encodedConfiguration": "A bytes representation of the revnet's configuration.",
							"revnetId": "The ID of the revnet having new suckers deployed.",
							"suckerDeploymentConfiguration": "The specifics about the suckers being deployed."
						}
					},
					"hasMintPermissionFor(uint256,address)": {
						"params": {
							"addr": "The address to check if has permissions.",
							"revnetId": "The ID of the revnet to check permissions for."
						},
						"returns": {
							"_0": "flag The flag indicating if the address has permissions to mint on the revnet's behalf."
						}
					},
					"isTrustedForwarder(address)": {
						"details": "Indicates whether any particular address is the trusted forwarder."
					},
					"launchCroptopRevnetFor(uint256,((string,string,string,bytes32),uint32,address,(uint40,(uint256,uint256,address)[],uint16,uint112,uint40,uint32,uint16)[]),(address,address[])[],(address,(address,uint24,uint32,uint32)[]),((address,(address,uint32,address,uint256)[])[],bytes32),((string,string,address,string,address,string,((uint104,uint32,uint32,uint16,address,bytes32,uint24,bool,bool,bool,bool,bool)[],uint32,uint8,address),address,(bool,bool,bool,bool)),bool,bool,bool),(address,uint256,bytes)[],uint16,(uint256,uint256,uint256,uint256,address[])[])": {
						"params": {
							"allowedPosts": "The type of posts that the revent should allow.",
							"buybackHookConfiguration": "Data used for setting up the buyback hook to use when determining the best price for new participants.",
							"configuration": "The data needed to deploy a basic revnet.",
							"extraHookMetadata": "Extra metadata to attach to the cycle for the delegates to use.",
							"hookConfiguration": "Data used for setting up the 721 tiers.",
							"otherPayHooksSpecifications": "Any hooks that should run when the revnet is paid alongside the 721 hook.",
							"revnetId": "The ID of the Juicebox project to turn into a revnet. Send 0 to deploy a new revnet.",
							"suckerDeploymentConfiguration": "Information about how this revnet relates to other's across chains.",
							"terminalConfigurations": "The terminals that the network uses to accept payments through."
						},
						"returns": {
							"_0": "revnetId The ID of the newly created revnet.",
							"hook": "The address of the 721 hook that was deployed on the revnet."
						}
					},
					"launchPayHookRevnetFor(uint256,((string,string,string,bytes32),uint32,address,(uint40,(uint256,uint256,address)[],uint16,uint112,uint40,uint32,uint16)[]),(address,address[])[],(address,(address,uint24,uint32,uint32)[]),((address,(address,uint32,address,uint256)[])[],bytes32),(address,uint256,bytes)[],uint16)": {
						"params": {
							"buybackHookConfiguration": "Data used for setting up the buyback hook to use when determining the best price for new participants.",
							"configuration": "The data needed to deploy a basic revnet.",
							"extraHookMetadata": "Extra metadata to attach to the cycle for the delegates to use.",
							"payHookSpecifications": "Any hooks that should run when the revnet is paid.",
							"revnetId": "The ID of the Juicebox project to turn into a revnet. Send 0 to deploy a new revnet.",
							"suckerDeploymentConfiguration": "Information about how this revnet relates to other's across chains.",
							"terminalConfigurations": "The terminals that the network uses to accept payments through."
						},
						"returns": {
							"_0": "revnetId The ID of the newly created revnet."
						}
					},
					"launchRevnetFor(uint256,((string,string,string,bytes32),uint32,address,(uint40,(uint256,uint256,address)[],uint16,uint112,uint40,uint32,uint16)[]),(address,address[])[],(address,(address,uint24,uint32,uint32)[]),((address,(address,uint32,address,uint256)[])[],bytes32))": {
						"params": {
							"buybackHookConfiguration": "Data used for setting up the buyback hook to use when determining the best price for new participants.",
							"configuration": "The data needed to deploy a basic revnet.",
							"revnetId": "The ID of the Juicebox project to turn into a revnet. Send 0 to deploy a new revnet.",
							"suckerDeploymentConfiguration": "Information about how this revnet relates to other's across chains.",
							"terminalConfigurations": "The terminals that the network uses to accept payments through."
						},
						"returns": {
							"_0": "revnetId The ID of the newly created revnet."
						}
					},
					"launchTiered721RevnetFor(uint256,((string,string,string,bytes32),uint32,address,(uint40,(uint256,uint256,address)[],uint16,uint112,uint40,uint32,uint16)[]),(address,address[])[],(address,(address,uint24,uint32,uint32)[]),((address,(address,uint32,address,uint256)[])[],bytes32),((string,string,address,string,address,string,((uint104,uint32,uint32,uint16,address,bytes32,uint24,bool,bool,bool,bool,bool)[],uint32,uint8,address),address,(bool,bool,bool,bool)),bool,bool,bool),(address,uint256,bytes)[],uint16)": {
						"params": {
							"buybackHookConfiguration": "Data used for setting up the buyback hook to use when determining the best price for new participants.",
							"configuration": "The data needed to deploy a basic revnet.",
							"extraHookMetadata": "Extra metadata to attach to the cycle for the delegates to use.",
							"hookConfiguration": "Data used for setting up the 721 tiers.",
							"otherPayHooksSpecifications": "Any hooks that should run when the revnet is paid alongside the 721 hook.",
							"revnetId": "The ID of the Juicebox project to turn into a revnet. Send 0 to deploy a new revnet.",
							"suckerDeploymentConfiguration": "Information about how this revnet relates to other's across chains.",
							"terminalConfigurations": "The terminals that the network uses to accept payments through."
						},
						"returns": {
							"_0": "revnetId The ID of the newly created revnet.",
							"hook": "The address of the 721 hook that was deployed on the revnet."
						}
					},
					"mintFor(uint256,uint256,address)": {
						"params": {
							"beneficiary": "The address to mint tokens to.",
							"revnetId": "The ID of the revnet to mint tokens from.",
							"stageId": "The ID of the stage to mint tokens from."
						}
					},
					"onERC721Received(address,address,uint256,bytes)": {
						"details": "Make sure only mints can be received."
					},
					"payHookSpecificationsOf(uint256)": {
						"params": {
							"revnetId": "The ID of the revnet to which the extensions apply."
						},
						"returns": {
							"_0": "payHookSpecifications The pay hooks."
						}
					},
					"replaceSplitOperatorOf(uint256,address)": {
						"params": {
							"newSplitOperator": "The address of the new split operator.",
							"revnetId": "The ID of the revnet having its operator replaced."
						}
					},
					"supportsInterface(bytes4)": {
						"details": "See {IERC165-supportsInterface}.",
						"params": {
							"interfaceId": "The ID of the interface to check for adherence to."
						},
						"returns": {
							"_0": "A flag indicating if the provided interface ID is supported."
						}
					},
					"trustedForwarder()": {
						"details": "Returns the address of the trusted forwarder."
					}
				},
				"version": 1
			},
			"userdoc": {
				"kind": "user",
				"methods": {
					"CONTROLLER()": {
						"notice": "The controller that networks are made from."
					},
					"EXIT_DELAY()": {
						"notice": "The amount of time from a sucker being deployed to when it can facilitate exits."
					},
					"HOOK_DEPLOYER()": {
						"notice": "The contract responsible for deploying the tiered 721 hook."
					},
					"PUBLISHER()": {
						"notice": "The croptop publisher that facilitates the permissioned publishing of 721 posts to a revnet."
					},
					"SUCKER_REGISTRY()": {
						"notice": "The registry that deploys and tracks each project's suckers."
					},
					"allowedMintCountOf(uint256,uint256,address)": {
						"notice": "The specification of how many tokens are still allowed to be minted at each stage of a revnet."
					},
					"beforePayRecordedWith((address,address,(address,uint256,uint256,uint256),uint256,uint256,address,uint256,uint256,bytes))": {
						"notice": "This function gets called when the revnet receives a payment."
					},
					"beforeRedeemRecordedWith((address,address,uint256,uint256,uint256,uint256,(address,uint256,uint256,uint256),bool,uint256,bytes))": {
						"notice": "This function is never called, it needs to be included to adhere to the interface."
					},
					"buybackHookOf(uint256)": {
						"notice": "The data hook that returns the correct values for the buyback hook of each network."
					},
					"deploySuckersFor(uint256,bytes,((address,(address,uint32,address,uint256)[])[],bytes32))": {
						"notice": "Allows a revnet's split operator to deploy new suckers to the revnet after it's deployed."
					},
					"exitDelayOf(uint256)": {
						"notice": "The time at which exits from a revnet become allowed."
					},
					"hasMintPermissionFor(uint256,address)": {
						"notice": "Required by the IJBRulesetDataHook interfaces."
					},
					"launchCroptopRevnetFor(uint256,((string,string,string,bytes32),uint32,address,(uint40,(uint256,uint256,address)[],uint16,uint112,uint40,uint32,uint16)[]),(address,address[])[],(address,(address,uint24,uint32,uint32)[]),((address,(address,uint32,address,uint256)[])[],bytes32),((string,string,address,string,address,string,((uint104,uint32,uint32,uint16,address,bytes32,uint24,bool,bool,bool,bool,bool)[],uint32,uint8,address),address,(bool,bool,bool,bool)),bool,bool,bool),(address,uint256,bytes)[],uint16,(uint256,uint256,uint256,uint256,address[])[])": {
						"notice": "Launch a revnet that supports 721 sales."
					},
					"launchPayHookRevnetFor(uint256,((string,string,string,bytes32),uint32,address,(uint40,(uint256,uint256,address)[],uint16,uint112,uint40,uint32,uint16)[]),(address,address[])[],(address,(address,uint24,uint32,uint32)[]),((address,(address,uint32,address,uint256)[])[],bytes32),(address,uint256,bytes)[],uint16)": {
						"notice": "Launch a basic revnet that also calls other specified pay hooks."
					},
					"launchRevnetFor(uint256,((string,string,string,bytes32),uint32,address,(uint40,(uint256,uint256,address)[],uint16,uint112,uint40,uint32,uint16)[]),(address,address[])[],(address,(address,uint24,uint32,uint32)[]),((address,(address,uint32,address,uint256)[])[],bytes32))": {
						"notice": "Launch a basic revnet."
					},
					"launchTiered721RevnetFor(uint256,((string,string,string,bytes32),uint32,address,(uint40,(uint256,uint256,address)[],uint16,uint112,uint40,uint32,uint16)[]),(address,address[])[],(address,(address,uint24,uint32,uint32)[]),((address,(address,uint32,address,uint256)[])[],bytes32),((string,string,address,string,address,string,((uint104,uint32,uint32,uint16,address,bytes32,uint24,bool,bool,bool,bool,bool)[],uint32,uint8,address),address,(bool,bool,bool,bool)),bool,bool,bool),(address,uint256,bytes)[],uint16)": {
						"notice": "Launch a revnet that supports 721 sales."
					},
					"mintFor(uint256,uint256,address)": {
						"notice": "Mint tokens from a revnet to a specified beneficiary according to the rules set for the revnet."
					},
					"payHookSpecificationsOf(uint256)": {
						"notice": "The pay hooks to include during payments to networks."
					},
					"replaceSplitOperatorOf(uint256,address)": {
						"notice": "A revnet's operator can replace itself."
					},
					"supportsInterface(bytes4)": {
						"notice": "Indicates if this contract adheres to the specified interface."
					}
				},
				"version": 1
			},
			"gitCommit": "31dbaf6436750fd6e04eab45550d6cb78dd62f86",
			"sourceName": "src/REVCroptopDeployer.sol",
			"chainId": "84532",
			"linkReferences": {},
			"deployedLinkReferences": {}
		}
	]
}