{
	"_format": "sphinx-sol-ct-artifact-1",
	"merkleRoot": "0x2df8f06620610415d6ef29d718ef30921b087659677ae2a0ba469618a8ab2a2b",
	"contractName": "REVCroptopDeployer",
	"address": "0x81e3b9447F99aac78810A13075BdBB3D347F9515",
	"abi": [
		{
			"type": "constructor",
			"inputs": [
				{
					"name": "controller",
					"type": "address",
					"internalType": "contract IJBController"
				},
				{
					"name": "suckerRegistry",
					"type": "address",
					"internalType": "contract IBPSuckerRegistry"
				},
				{
					"name": "trustedForwarder",
					"type": "address",
					"internalType": "address"
				},
				{
					"name": "hookDeployer",
					"type": "address",
					"internalType": "contract IJB721TiersHookDeployer"
				},
				{
					"name": "publisher",
					"type": "address",
					"internalType": "contract CTPublisher"
				}
			],
			"stateMutability": "nonpayable"
		},
		{
			"type": "function",
			"name": "CONTROLLER",
			"inputs": [],
			"outputs": [
				{
					"name": "",
					"type": "address",
					"internalType": "contract IJBController"
				}
			],
			"stateMutability": "view"
		},
		{
			"type": "function",
			"name": "EXIT_DELAY",
			"inputs": [],
			"outputs": [
				{
					"name": "",
					"type": "uint256",
					"internalType": "uint256"
				}
			],
			"stateMutability": "view"
		},
		{
			"type": "function",
			"name": "HOOK_DEPLOYER",
			"inputs": [],
			"outputs": [
				{
					"name": "",
					"type": "address",
					"internalType": "contract IJB721TiersHookDeployer"
				}
			],
			"stateMutability": "view"
		},
		{
			"type": "function",
			"name": "PUBLISHER",
			"inputs": [],
			"outputs": [
				{
					"name": "",
					"type": "address",
					"internalType": "contract CTPublisher"
				}
			],
			"stateMutability": "view"
		},
		{
			"type": "function",
			"name": "SUCKER_REGISTRY",
			"inputs": [],
			"outputs": [
				{
					"name": "",
					"type": "address",
					"internalType": "contract IBPSuckerRegistry"
				}
			],
			"stateMutability": "view"
		},
		{
			"type": "function",
			"name": "beforePayRecordedWith",
			"inputs": [
				{
					"name": "context",
					"type": "tuple",
					"internalType": "struct JBBeforePayRecordedContext",
					"components": [
						{
							"name": "terminal",
							"type": "address",
							"internalType": "address"
						},
						{
							"name": "payer",
							"type": "address",
							"internalType": "address"
						},
						{
							"name": "amount",
							"type": "tuple",
							"internalType": "struct JBTokenAmount",
							"components": [
								{
									"name": "token",
									"type": "address",
									"internalType": "address"
								},
								{
									"name": "value",
									"type": "uint256",
									"internalType": "uint256"
								},
								{
									"name": "decimals",
									"type": "uint256",
									"internalType": "uint256"
								},
								{
									"name": "currency",
									"type": "uint256",
									"internalType": "uint256"
								}
							]
						},
						{
							"name": "projectId",
							"type": "uint256",
							"internalType": "uint256"
						},
						{
							"name": "rulesetId",
							"type": "uint256",
							"internalType": "uint256"
						},
						{
							"name": "beneficiary",
							"type": "address",
							"internalType": "address"
						},
						{
							"name": "weight",
							"type": "uint256",
							"internalType": "uint256"
						},
						{
							"name": "reservedRate",
							"type": "uint256",
							"internalType": "uint256"
						},
						{
							"name": "metadata",
							"type": "bytes",
							"internalType": "bytes"
						}
					]
				}
			],
			"outputs": [
				{
					"name": "weight",
					"type": "uint256",
					"internalType": "uint256"
				},
				{
					"name": "hookSpecifications",
					"type": "tuple[]",
					"internalType": "struct JBPayHookSpecification[]",
					"components": [
						{
							"name": "hook",
							"type": "address",
							"internalType": "contract IJBPayHook"
						},
						{
							"name": "amount",
							"type": "uint256",
							"internalType": "uint256"
						},
						{
							"name": "metadata",
							"type": "bytes",
							"internalType": "bytes"
						}
					]
				}
			],
			"stateMutability": "view"
		},
		{
			"type": "function",
			"name": "beforeRedeemRecordedWith",
			"inputs": [
				{
					"name": "context",
					"type": "tuple",
					"internalType": "struct JBBeforeRedeemRecordedContext",
					"components": [
						{
							"name": "terminal",
							"type": "address",
							"internalType": "address"
						},
						{
							"name": "holder",
							"type": "address",
							"internalType": "address"
						},
						{
							"name": "projectId",
							"type": "uint256",
							"internalType": "uint256"
						},
						{
							"name": "rulesetId",
							"type": "uint256",
							"internalType": "uint256"
						},
						{
							"name": "redeemCount",
							"type": "uint256",
							"internalType": "uint256"
						},
						{
							"name": "totalSupply",
							"type": "uint256",
							"internalType": "uint256"
						},
						{
							"name": "surplus",
							"type": "tuple",
							"internalType": "struct JBTokenAmount",
							"components": [
								{
									"name": "token",
									"type": "address",
									"internalType": "address"
								},
								{
									"name": "value",
									"type": "uint256",
									"internalType": "uint256"
								},
								{
									"name": "decimals",
									"type": "uint256",
									"internalType": "uint256"
								},
								{
									"name": "currency",
									"type": "uint256",
									"internalType": "uint256"
								}
							]
						},
						{
							"name": "useTotalSurplus",
							"type": "bool",
							"internalType": "bool"
						},
						{
							"name": "redemptionRate",
							"type": "uint256",
							"internalType": "uint256"
						},
						{
							"name": "metadata",
							"type": "bytes",
							"internalType": "bytes"
						}
					]
				}
			],
			"outputs": [
				{
					"name": "",
					"type": "uint256",
					"internalType": "uint256"
				},
				{
					"name": "",
					"type": "uint256",
					"internalType": "uint256"
				},
				{
					"name": "",
					"type": "uint256",
					"internalType": "uint256"
				},
				{
					"name": "specifications",
					"type": "tuple[]",
					"internalType": "struct JBRedeemHookSpecification[]",
					"components": [
						{
							"name": "hook",
							"type": "address",
							"internalType": "contract IJBRedeemHook"
						},
						{
							"name": "amount",
							"type": "uint256",
							"internalType": "uint256"
						},
						{
							"name": "metadata",
							"type": "bytes",
							"internalType": "bytes"
						}
					]
				}
			],
			"stateMutability": "view"
		},
		{
			"type": "function",
			"name": "buybackHookOf",
			"inputs": [
				{
					"name": "revnetId",
					"type": "uint256",
					"internalType": "uint256"
				}
			],
			"outputs": [
				{
					"name": "buybackHook",
					"type": "address",
					"internalType": "contract IJBRulesetDataHook"
				}
			],
			"stateMutability": "view"
		},
		{
			"type": "function",
			"name": "deploySuckersFor",
			"inputs": [
				{
					"name": "revnetId",
					"type": "uint256",
					"internalType": "uint256"
				},
				{
					"name": "encodedConfiguration",
					"type": "bytes",
					"internalType": "bytes"
				},
				{
					"name": "suckerDeploymentConfiguration",
					"type": "tuple",
					"internalType": "struct REVSuckerDeploymentConfig",
					"components": [
						{
							"name": "deployerConfigurations",
							"type": "tuple[]",
							"internalType": "struct BPSuckerDeployerConfig[]",
							"components": [
								{
									"name": "deployer",
									"type": "address",
									"internalType": "contract IBPSuckerDeployer"
								},
								{
									"name": "mappings",
									"type": "tuple[]",
									"internalType": "struct BPTokenMapping[]",
									"components": [
										{
											"name": "localToken",
											"type": "address",
											"internalType": "address"
										},
										{
											"name": "minGas",
											"type": "uint32",
											"internalType": "uint32"
										},
										{
											"name": "remoteToken",
											"type": "address",
											"internalType": "address"
										},
										{
											"name": "minBridgeAmount",
											"type": "uint256",
											"internalType": "uint256"
										}
									]
								}
							]
						},
						{
							"name": "salt",
							"type": "bytes32",
							"internalType": "bytes32"
						}
					]
				}
			],
			"outputs": [],
			"stateMutability": "nonpayable"
		},
		{
			"type": "function",
			"name": "exitDelayOf",
			"inputs": [
				{
					"name": "revnetId",
					"type": "uint256",
					"internalType": "uint256"
				}
			],
			"outputs": [
				{
					"name": "exitDelay",
					"type": "uint256",
					"internalType": "uint256"
				}
			],
			"stateMutability": "view"
		},
		{
			"type": "function",
			"name": "hasMintPermissionFor",
			"inputs": [
				{
					"name": "revnetId",
					"type": "uint256",
					"internalType": "uint256"
				},
				{
					"name": "addr",
					"type": "address",
					"internalType": "address"
				}
			],
			"outputs": [
				{
					"name": "",
					"type": "bool",
					"internalType": "bool"
				}
			],
			"stateMutability": "view"
		},
		{
			"type": "function",
			"name": "isTrustedForwarder",
			"inputs": [
				{
					"name": "forwarder",
					"type": "address",
					"internalType": "address"
				}
			],
			"outputs": [
				{
					"name": "",
					"type": "bool",
					"internalType": "bool"
				}
			],
			"stateMutability": "view"
		},
		{
			"type": "function",
			"name": "launchCroptopRevnetFor",
			"inputs": [
				{
					"name": "revnetId",
					"type": "uint256",
					"internalType": "uint256"
				},
				{
					"name": "configuration",
					"type": "tuple",
					"internalType": "struct REVConfig",
					"components": [
						{
							"name": "description",
							"type": "tuple",
							"internalType": "struct REVDescription",
							"components": [
								{
									"name": "name",
									"type": "string",
									"internalType": "string"
								},
								{
									"name": "ticker",
									"type": "string",
									"internalType": "string"
								},
								{
									"name": "uri",
									"type": "string",
									"internalType": "string"
								},
								{
									"name": "salt",
									"type": "bytes32",
									"internalType": "bytes32"
								}
							]
						},
						{
							"name": "baseCurrency",
							"type": "uint32",
							"internalType": "uint32"
						},
						{
							"name": "premintTokenAmount",
							"type": "uint256",
							"internalType": "uint256"
						},
						{
							"name": "premintChainId",
							"type": "uint256",
							"internalType": "uint256"
						},
						{
							"name": "initialSplitOperator",
							"type": "address",
							"internalType": "address"
						},
						{
							"name": "stageConfigurations",
							"type": "tuple[]",
							"internalType": "struct REVStageConfig[]",
							"components": [
								{
									"name": "startsAtOrAfter",
									"type": "uint40",
									"internalType": "uint40"
								},
								{
									"name": "splitRate",
									"type": "uint16",
									"internalType": "uint16"
								},
								{
									"name": "initialIssuanceRate",
									"type": "uint112",
									"internalType": "uint112"
								},
								{
									"name": "priceCeilingIncreaseFrequency",
									"type": "uint40",
									"internalType": "uint40"
								},
								{
									"name": "priceCeilingIncreasePercentage",
									"type": "uint32",
									"internalType": "uint32"
								},
								{
									"name": "priceFloorTaxIntensity",
									"type": "uint16",
									"internalType": "uint16"
								}
							]
						}
					]
				},
				{
					"name": "terminalConfigurations",
					"type": "tuple[]",
					"internalType": "struct JBTerminalConfig[]",
					"components": [
						{
							"name": "terminal",
							"type": "address",
							"internalType": "contract IJBTerminal"
						},
						{
							"name": "tokensToAccept",
							"type": "address[]",
							"internalType": "address[]"
						}
					]
				},
				{
					"name": "buybackHookConfiguration",
					"type": "tuple",
					"internalType": "struct REVBuybackHookConfig",
					"components": [
						{
							"name": "hook",
							"type": "address",
							"internalType": "contract IJBBuybackHook"
						},
						{
							"name": "poolConfigurations",
							"type": "tuple[]",
							"internalType": "struct REVBuybackPoolConfig[]",
							"components": [
								{
									"name": "token",
									"type": "address",
									"internalType": "address"
								},
								{
									"name": "fee",
									"type": "uint24",
									"internalType": "uint24"
								},
								{
									"name": "twapWindow",
									"type": "uint32",
									"internalType": "uint32"
								},
								{
									"name": "twapSlippageTolerance",
									"type": "uint32",
									"internalType": "uint32"
								}
							]
						}
					]
				},
				{
					"name": "suckerDeploymentConfiguration",
					"type": "tuple",
					"internalType": "struct REVSuckerDeploymentConfig",
					"components": [
						{
							"name": "deployerConfigurations",
							"type": "tuple[]",
							"internalType": "struct BPSuckerDeployerConfig[]",
							"components": [
								{
									"name": "deployer",
									"type": "address",
									"internalType": "contract IBPSuckerDeployer"
								},
								{
									"name": "mappings",
									"type": "tuple[]",
									"internalType": "struct BPTokenMapping[]",
									"components": [
										{
											"name": "localToken",
											"type": "address",
											"internalType": "address"
										},
										{
											"name": "minGas",
											"type": "uint32",
											"internalType": "uint32"
										},
										{
											"name": "remoteToken",
											"type": "address",
											"internalType": "address"
										},
										{
											"name": "minBridgeAmount",
											"type": "uint256",
											"internalType": "uint256"
										}
									]
								}
							]
						},
						{
							"name": "salt",
							"type": "bytes32",
							"internalType": "bytes32"
						}
					]
				},
				{
					"name": "hookConfiguration",
					"type": "tuple",
					"internalType": "struct REVDeploy721TiersHookConfig",
					"components": [
						{
							"name": "baseline721HookConfiguration",
							"type": "tuple",
							"internalType": "struct JBDeploy721TiersHookConfig",
							"components": [
								{
									"name": "name",
									"type": "string",
									"internalType": "string"
								},
								{
									"name": "symbol",
									"type": "string",
									"internalType": "string"
								},
								{
									"name": "rulesets",
									"type": "address",
									"internalType": "contract IJBRulesets"
								},
								{
									"name": "baseUri",
									"type": "string",
									"internalType": "string"
								},
								{
									"name": "tokenUriResolver",
									"type": "address",
									"internalType": "contract IJB721TokenUriResolver"
								},
								{
									"name": "contractUri",
									"type": "string",
									"internalType": "string"
								},
								{
									"name": "tiersConfig",
									"type": "tuple",
									"internalType": "struct JB721InitTiersConfig",
									"components": [
										{
											"name": "tiers",
											"type": "tuple[]",
											"internalType": "struct JB721TierConfig[]",
											"components": [
												{
													"name": "price",
													"type": "uint104",
													"internalType": "uint104"
												},
												{
													"name": "initialSupply",
													"type": "uint32",
													"internalType": "uint32"
												},
												{
													"name": "votingUnits",
													"type": "uint32",
													"internalType": "uint32"
												},
												{
													"name": "reserveFrequency",
													"type": "uint16",
													"internalType": "uint16"
												},
												{
													"name": "reserveBeneficiary",
													"type": "address",
													"internalType": "address"
												},
												{
													"name": "encodedIPFSUri",
													"type": "bytes32",
													"internalType": "bytes32"
												},
												{
													"name": "category",
													"type": "uint24",
													"internalType": "uint24"
												},
												{
													"name": "allowOwnerMint",
													"type": "bool",
													"internalType": "bool"
												},
												{
													"name": "useReserveBeneficiaryAsDefault",
													"type": "bool",
													"internalType": "bool"
												},
												{
													"name": "transfersPausable",
													"type": "bool",
													"internalType": "bool"
												},
												{
													"name": "useVotingUnits",
													"type": "bool",
													"internalType": "bool"
												},
												{
													"name": "cannotBeRemoved",
													"type": "bool",
													"internalType": "bool"
												}
											]
										},
										{
											"name": "currency",
											"type": "uint32",
											"internalType": "uint32"
										},
										{
											"name": "decimals",
											"type": "uint8",
											"internalType": "uint8"
										},
										{
											"name": "prices",
											"type": "address",
											"internalType": "contract IJBPrices"
										}
									]
								},
								{
									"name": "reserveBeneficiary",
									"type": "address",
									"internalType": "address"
								},
								{
									"name": "flags",
									"type": "tuple",
									"internalType": "struct JB721TiersHookFlags",
									"components": [
										{
											"name": "noNewTiersWithReserves",
											"type": "bool",
											"internalType": "bool"
										},
										{
											"name": "noNewTiersWithVotes",
											"type": "bool",
											"internalType": "bool"
										},
										{
											"name": "noNewTiersWithOwnerMinting",
											"type": "bool",
											"internalType": "bool"
										},
										{
											"name": "preventOverspending",
											"type": "bool",
											"internalType": "bool"
										}
									]
								}
							]
						},
						{
							"name": "operatorCanAdjustTiers",
							"type": "bool",
							"internalType": "bool"
						},
						{
							"name": "operatorCanUpdateMetadata",
							"type": "bool",
							"internalType": "bool"
						},
						{
							"name": "operatorCanMint",
							"type": "bool",
							"internalType": "bool"
						}
					]
				},
				{
					"name": "otherPayHooksSpecifications",
					"type": "tuple[]",
					"internalType": "struct JBPayHookSpecification[]",
					"components": [
						{
							"name": "hook",
							"type": "address",
							"internalType": "contract IJBPayHook"
						},
						{
							"name": "amount",
							"type": "uint256",
							"internalType": "uint256"
						},
						{
							"name": "metadata",
							"type": "bytes",
							"internalType": "bytes"
						}
					]
				},
				{
					"name": "extraHookMetadata",
					"type": "uint16",
					"internalType": "uint16"
				},
				{
					"name": "allowedPosts",
					"type": "tuple[]",
					"internalType": "struct REVCroptopAllowedPost[]",
					"components": [
						{
							"name": "category",
							"type": "uint256",
							"internalType": "uint256"
						},
						{
							"name": "minimumPrice",
							"type": "uint256",
							"internalType": "uint256"
						},
						{
							"name": "minimumTotalSupply",
							"type": "uint256",
							"internalType": "uint256"
						},
						{
							"name": "maximumTotalSupply",
							"type": "uint256",
							"internalType": "uint256"
						},
						{
							"name": "allowedAddresses",
							"type": "address[]",
							"internalType": "address[]"
						}
					]
				}
			],
			"outputs": [
				{
					"name": "",
					"type": "uint256",
					"internalType": "uint256"
				},
				{
					"name": "hook",
					"type": "address",
					"internalType": "contract IJB721TiersHook"
				}
			],
			"stateMutability": "nonpayable"
		},
		{
			"type": "function",
			"name": "launchPayHookRevnetFor",
			"inputs": [
				{
					"name": "revnetId",
					"type": "uint256",
					"internalType": "uint256"
				},
				{
					"name": "configuration",
					"type": "tuple",
					"internalType": "struct REVConfig",
					"components": [
						{
							"name": "description",
							"type": "tuple",
							"internalType": "struct REVDescription",
							"components": [
								{
									"name": "name",
									"type": "string",
									"internalType": "string"
								},
								{
									"name": "ticker",
									"type": "string",
									"internalType": "string"
								},
								{
									"name": "uri",
									"type": "string",
									"internalType": "string"
								},
								{
									"name": "salt",
									"type": "bytes32",
									"internalType": "bytes32"
								}
							]
						},
						{
							"name": "baseCurrency",
							"type": "uint32",
							"internalType": "uint32"
						},
						{
							"name": "premintTokenAmount",
							"type": "uint256",
							"internalType": "uint256"
						},
						{
							"name": "premintChainId",
							"type": "uint256",
							"internalType": "uint256"
						},
						{
							"name": "initialSplitOperator",
							"type": "address",
							"internalType": "address"
						},
						{
							"name": "stageConfigurations",
							"type": "tuple[]",
							"internalType": "struct REVStageConfig[]",
							"components": [
								{
									"name": "startsAtOrAfter",
									"type": "uint40",
									"internalType": "uint40"
								},
								{
									"name": "splitRate",
									"type": "uint16",
									"internalType": "uint16"
								},
								{
									"name": "initialIssuanceRate",
									"type": "uint112",
									"internalType": "uint112"
								},
								{
									"name": "priceCeilingIncreaseFrequency",
									"type": "uint40",
									"internalType": "uint40"
								},
								{
									"name": "priceCeilingIncreasePercentage",
									"type": "uint32",
									"internalType": "uint32"
								},
								{
									"name": "priceFloorTaxIntensity",
									"type": "uint16",
									"internalType": "uint16"
								}
							]
						}
					]
				},
				{
					"name": "terminalConfigurations",
					"type": "tuple[]",
					"internalType": "struct JBTerminalConfig[]",
					"components": [
						{
							"name": "terminal",
							"type": "address",
							"internalType": "contract IJBTerminal"
						},
						{
							"name": "tokensToAccept",
							"type": "address[]",
							"internalType": "address[]"
						}
					]
				},
				{
					"name": "buybackHookConfiguration",
					"type": "tuple",
					"internalType": "struct REVBuybackHookConfig",
					"components": [
						{
							"name": "hook",
							"type": "address",
							"internalType": "contract IJBBuybackHook"
						},
						{
							"name": "poolConfigurations",
							"type": "tuple[]",
							"internalType": "struct REVBuybackPoolConfig[]",
							"components": [
								{
									"name": "token",
									"type": "address",
									"internalType": "address"
								},
								{
									"name": "fee",
									"type": "uint24",
									"internalType": "uint24"
								},
								{
									"name": "twapWindow",
									"type": "uint32",
									"internalType": "uint32"
								},
								{
									"name": "twapSlippageTolerance",
									"type": "uint32",
									"internalType": "uint32"
								}
							]
						}
					]
				},
				{
					"name": "suckerDeploymentConfiguration",
					"type": "tuple",
					"internalType": "struct REVSuckerDeploymentConfig",
					"components": [
						{
							"name": "deployerConfigurations",
							"type": "tuple[]",
							"internalType": "struct BPSuckerDeployerConfig[]",
							"components": [
								{
									"name": "deployer",
									"type": "address",
									"internalType": "contract IBPSuckerDeployer"
								},
								{
									"name": "mappings",
									"type": "tuple[]",
									"internalType": "struct BPTokenMapping[]",
									"components": [
										{
											"name": "localToken",
											"type": "address",
											"internalType": "address"
										},
										{
											"name": "minGas",
											"type": "uint32",
											"internalType": "uint32"
										},
										{
											"name": "remoteToken",
											"type": "address",
											"internalType": "address"
										},
										{
											"name": "minBridgeAmount",
											"type": "uint256",
											"internalType": "uint256"
										}
									]
								}
							]
						},
						{
							"name": "salt",
							"type": "bytes32",
							"internalType": "bytes32"
						}
					]
				},
				{
					"name": "payHookSpecifications",
					"type": "tuple[]",
					"internalType": "struct JBPayHookSpecification[]",
					"components": [
						{
							"name": "hook",
							"type": "address",
							"internalType": "contract IJBPayHook"
						},
						{
							"name": "amount",
							"type": "uint256",
							"internalType": "uint256"
						},
						{
							"name": "metadata",
							"type": "bytes",
							"internalType": "bytes"
						}
					]
				},
				{
					"name": "extraHookMetadata",
					"type": "uint16",
					"internalType": "uint16"
				}
			],
			"outputs": [
				{
					"name": "",
					"type": "uint256",
					"internalType": "uint256"
				}
			],
			"stateMutability": "nonpayable"
		},
		{
			"type": "function",
			"name": "launchRevnetFor",
			"inputs": [
				{
					"name": "revnetId",
					"type": "uint256",
					"internalType": "uint256"
				},
				{
					"name": "configuration",
					"type": "tuple",
					"internalType": "struct REVConfig",
					"components": [
						{
							"name": "description",
							"type": "tuple",
							"internalType": "struct REVDescription",
							"components": [
								{
									"name": "name",
									"type": "string",
									"internalType": "string"
								},
								{
									"name": "ticker",
									"type": "string",
									"internalType": "string"
								},
								{
									"name": "uri",
									"type": "string",
									"internalType": "string"
								},
								{
									"name": "salt",
									"type": "bytes32",
									"internalType": "bytes32"
								}
							]
						},
						{
							"name": "baseCurrency",
							"type": "uint32",
							"internalType": "uint32"
						},
						{
							"name": "premintTokenAmount",
							"type": "uint256",
							"internalType": "uint256"
						},
						{
							"name": "premintChainId",
							"type": "uint256",
							"internalType": "uint256"
						},
						{
							"name": "initialSplitOperator",
							"type": "address",
							"internalType": "address"
						},
						{
							"name": "stageConfigurations",
							"type": "tuple[]",
							"internalType": "struct REVStageConfig[]",
							"components": [
								{
									"name": "startsAtOrAfter",
									"type": "uint40",
									"internalType": "uint40"
								},
								{
									"name": "splitRate",
									"type": "uint16",
									"internalType": "uint16"
								},
								{
									"name": "initialIssuanceRate",
									"type": "uint112",
									"internalType": "uint112"
								},
								{
									"name": "priceCeilingIncreaseFrequency",
									"type": "uint40",
									"internalType": "uint40"
								},
								{
									"name": "priceCeilingIncreasePercentage",
									"type": "uint32",
									"internalType": "uint32"
								},
								{
									"name": "priceFloorTaxIntensity",
									"type": "uint16",
									"internalType": "uint16"
								}
							]
						}
					]
				},
				{
					"name": "terminalConfigurations",
					"type": "tuple[]",
					"internalType": "struct JBTerminalConfig[]",
					"components": [
						{
							"name": "terminal",
							"type": "address",
							"internalType": "contract IJBTerminal"
						},
						{
							"name": "tokensToAccept",
							"type": "address[]",
							"internalType": "address[]"
						}
					]
				},
				{
					"name": "buybackHookConfiguration",
					"type": "tuple",
					"internalType": "struct REVBuybackHookConfig",
					"components": [
						{
							"name": "hook",
							"type": "address",
							"internalType": "contract IJBBuybackHook"
						},
						{
							"name": "poolConfigurations",
							"type": "tuple[]",
							"internalType": "struct REVBuybackPoolConfig[]",
							"components": [
								{
									"name": "token",
									"type": "address",
									"internalType": "address"
								},
								{
									"name": "fee",
									"type": "uint24",
									"internalType": "uint24"
								},
								{
									"name": "twapWindow",
									"type": "uint32",
									"internalType": "uint32"
								},
								{
									"name": "twapSlippageTolerance",
									"type": "uint32",
									"internalType": "uint32"
								}
							]
						}
					]
				},
				{
					"name": "suckerDeploymentConfiguration",
					"type": "tuple",
					"internalType": "struct REVSuckerDeploymentConfig",
					"components": [
						{
							"name": "deployerConfigurations",
							"type": "tuple[]",
							"internalType": "struct BPSuckerDeployerConfig[]",
							"components": [
								{
									"name": "deployer",
									"type": "address",
									"internalType": "contract IBPSuckerDeployer"
								},
								{
									"name": "mappings",
									"type": "tuple[]",
									"internalType": "struct BPTokenMapping[]",
									"components": [
										{
											"name": "localToken",
											"type": "address",
											"internalType": "address"
										},
										{
											"name": "minGas",
											"type": "uint32",
											"internalType": "uint32"
										},
										{
											"name": "remoteToken",
											"type": "address",
											"internalType": "address"
										},
										{
											"name": "minBridgeAmount",
											"type": "uint256",
											"internalType": "uint256"
										}
									]
								}
							]
						},
						{
							"name": "salt",
							"type": "bytes32",
							"internalType": "bytes32"
						}
					]
				}
			],
			"outputs": [
				{
					"name": "",
					"type": "uint256",
					"internalType": "uint256"
				}
			],
			"stateMutability": "nonpayable"
		},
		{
			"type": "function",
			"name": "launchTiered721RevnetFor",
			"inputs": [
				{
					"name": "revnetId",
					"type": "uint256",
					"internalType": "uint256"
				},
				{
					"name": "configuration",
					"type": "tuple",
					"internalType": "struct REVConfig",
					"components": [
						{
							"name": "description",
							"type": "tuple",
							"internalType": "struct REVDescription",
							"components": [
								{
									"name": "name",
									"type": "string",
									"internalType": "string"
								},
								{
									"name": "ticker",
									"type": "string",
									"internalType": "string"
								},
								{
									"name": "uri",
									"type": "string",
									"internalType": "string"
								},
								{
									"name": "salt",
									"type": "bytes32",
									"internalType": "bytes32"
								}
							]
						},
						{
							"name": "baseCurrency",
							"type": "uint32",
							"internalType": "uint32"
						},
						{
							"name": "premintTokenAmount",
							"type": "uint256",
							"internalType": "uint256"
						},
						{
							"name": "premintChainId",
							"type": "uint256",
							"internalType": "uint256"
						},
						{
							"name": "initialSplitOperator",
							"type": "address",
							"internalType": "address"
						},
						{
							"name": "stageConfigurations",
							"type": "tuple[]",
							"internalType": "struct REVStageConfig[]",
							"components": [
								{
									"name": "startsAtOrAfter",
									"type": "uint40",
									"internalType": "uint40"
								},
								{
									"name": "splitRate",
									"type": "uint16",
									"internalType": "uint16"
								},
								{
									"name": "initialIssuanceRate",
									"type": "uint112",
									"internalType": "uint112"
								},
								{
									"name": "priceCeilingIncreaseFrequency",
									"type": "uint40",
									"internalType": "uint40"
								},
								{
									"name": "priceCeilingIncreasePercentage",
									"type": "uint32",
									"internalType": "uint32"
								},
								{
									"name": "priceFloorTaxIntensity",
									"type": "uint16",
									"internalType": "uint16"
								}
							]
						}
					]
				},
				{
					"name": "terminalConfigurations",
					"type": "tuple[]",
					"internalType": "struct JBTerminalConfig[]",
					"components": [
						{
							"name": "terminal",
							"type": "address",
							"internalType": "contract IJBTerminal"
						},
						{
							"name": "tokensToAccept",
							"type": "address[]",
							"internalType": "address[]"
						}
					]
				},
				{
					"name": "buybackHookConfiguration",
					"type": "tuple",
					"internalType": "struct REVBuybackHookConfig",
					"components": [
						{
							"name": "hook",
							"type": "address",
							"internalType": "contract IJBBuybackHook"
						},
						{
							"name": "poolConfigurations",
							"type": "tuple[]",
							"internalType": "struct REVBuybackPoolConfig[]",
							"components": [
								{
									"name": "token",
									"type": "address",
									"internalType": "address"
								},
								{
									"name": "fee",
									"type": "uint24",
									"internalType": "uint24"
								},
								{
									"name": "twapWindow",
									"type": "uint32",
									"internalType": "uint32"
								},
								{
									"name": "twapSlippageTolerance",
									"type": "uint32",
									"internalType": "uint32"
								}
							]
						}
					]
				},
				{
					"name": "suckerDeploymentConfiguration",
					"type": "tuple",
					"internalType": "struct REVSuckerDeploymentConfig",
					"components": [
						{
							"name": "deployerConfigurations",
							"type": "tuple[]",
							"internalType": "struct BPSuckerDeployerConfig[]",
							"components": [
								{
									"name": "deployer",
									"type": "address",
									"internalType": "contract IBPSuckerDeployer"
								},
								{
									"name": "mappings",
									"type": "tuple[]",
									"internalType": "struct BPTokenMapping[]",
									"components": [
										{
											"name": "localToken",
											"type": "address",
											"internalType": "address"
										},
										{
											"name": "minGas",
											"type": "uint32",
											"internalType": "uint32"
										},
										{
											"name": "remoteToken",
											"type": "address",
											"internalType": "address"
										},
										{
											"name": "minBridgeAmount",
											"type": "uint256",
											"internalType": "uint256"
										}
									]
								}
							]
						},
						{
							"name": "salt",
							"type": "bytes32",
							"internalType": "bytes32"
						}
					]
				},
				{
					"name": "hookConfiguration",
					"type": "tuple",
					"internalType": "struct REVDeploy721TiersHookConfig",
					"components": [
						{
							"name": "baseline721HookConfiguration",
							"type": "tuple",
							"internalType": "struct JBDeploy721TiersHookConfig",
							"components": [
								{
									"name": "name",
									"type": "string",
									"internalType": "string"
								},
								{
									"name": "symbol",
									"type": "string",
									"internalType": "string"
								},
								{
									"name": "rulesets",
									"type": "address",
									"internalType": "contract IJBRulesets"
								},
								{
									"name": "baseUri",
									"type": "string",
									"internalType": "string"
								},
								{
									"name": "tokenUriResolver",
									"type": "address",
									"internalType": "contract IJB721TokenUriResolver"
								},
								{
									"name": "contractUri",
									"type": "string",
									"internalType": "string"
								},
								{
									"name": "tiersConfig",
									"type": "tuple",
									"internalType": "struct JB721InitTiersConfig",
									"components": [
										{
											"name": "tiers",
											"type": "tuple[]",
											"internalType": "struct JB721TierConfig[]",
											"components": [
												{
													"name": "price",
													"type": "uint104",
													"internalType": "uint104"
												},
												{
													"name": "initialSupply",
													"type": "uint32",
													"internalType": "uint32"
												},
												{
													"name": "votingUnits",
													"type": "uint32",
													"internalType": "uint32"
												},
												{
													"name": "reserveFrequency",
													"type": "uint16",
													"internalType": "uint16"
												},
												{
													"name": "reserveBeneficiary",
													"type": "address",
													"internalType": "address"
												},
												{
													"name": "encodedIPFSUri",
													"type": "bytes32",
													"internalType": "bytes32"
												},
												{
													"name": "category",
													"type": "uint24",
													"internalType": "uint24"
												},
												{
													"name": "allowOwnerMint",
													"type": "bool",
													"internalType": "bool"
												},
												{
													"name": "useReserveBeneficiaryAsDefault",
													"type": "bool",
													"internalType": "bool"
												},
												{
													"name": "transfersPausable",
													"type": "bool",
													"internalType": "bool"
												},
												{
													"name": "useVotingUnits",
													"type": "bool",
													"internalType": "bool"
												},
												{
													"name": "cannotBeRemoved",
													"type": "bool",
													"internalType": "bool"
												}
											]
										},
										{
											"name": "currency",
											"type": "uint32",
											"internalType": "uint32"
										},
										{
											"name": "decimals",
											"type": "uint8",
											"internalType": "uint8"
										},
										{
											"name": "prices",
											"type": "address",
											"internalType": "contract IJBPrices"
										}
									]
								},
								{
									"name": "reserveBeneficiary",
									"type": "address",
									"internalType": "address"
								},
								{
									"name": "flags",
									"type": "tuple",
									"internalType": "struct JB721TiersHookFlags",
									"components": [
										{
											"name": "noNewTiersWithReserves",
											"type": "bool",
											"internalType": "bool"
										},
										{
											"name": "noNewTiersWithVotes",
											"type": "bool",
											"internalType": "bool"
										},
										{
											"name": "noNewTiersWithOwnerMinting",
											"type": "bool",
											"internalType": "bool"
										},
										{
											"name": "preventOverspending",
											"type": "bool",
											"internalType": "bool"
										}
									]
								}
							]
						},
						{
							"name": "operatorCanAdjustTiers",
							"type": "bool",
							"internalType": "bool"
						},
						{
							"name": "operatorCanUpdateMetadata",
							"type": "bool",
							"internalType": "bool"
						},
						{
							"name": "operatorCanMint",
							"type": "bool",
							"internalType": "bool"
						}
					]
				},
				{
					"name": "otherPayHooksSpecifications",
					"type": "tuple[]",
					"internalType": "struct JBPayHookSpecification[]",
					"components": [
						{
							"name": "hook",
							"type": "address",
							"internalType": "contract IJBPayHook"
						},
						{
							"name": "amount",
							"type": "uint256",
							"internalType": "uint256"
						},
						{
							"name": "metadata",
							"type": "bytes",
							"internalType": "bytes"
						}
					]
				},
				{
					"name": "extraHookMetadata",
					"type": "uint16",
					"internalType": "uint16"
				}
			],
			"outputs": [
				{
					"name": "",
					"type": "uint256",
					"internalType": "uint256"
				},
				{
					"name": "hook",
					"type": "address",
					"internalType": "contract IJB721TiersHook"
				}
			],
			"stateMutability": "nonpayable"
		},
		{
			"type": "function",
			"name": "onERC721Received",
			"inputs": [
				{
					"name": "operator",
					"type": "address",
					"internalType": "address"
				},
				{
					"name": "",
					"type": "address",
					"internalType": "address"
				},
				{
					"name": "tokenId",
					"type": "uint256",
					"internalType": "uint256"
				},
				{
					"name": "data",
					"type": "bytes",
					"internalType": "bytes"
				}
			],
			"outputs": [
				{
					"name": "",
					"type": "bytes4",
					"internalType": "bytes4"
				}
			],
			"stateMutability": "view"
		},
		{
			"type": "function",
			"name": "payHookSpecificationsOf",
			"inputs": [
				{
					"name": "revnetId",
					"type": "uint256",
					"internalType": "uint256"
				}
			],
			"outputs": [
				{
					"name": "",
					"type": "tuple[]",
					"internalType": "struct JBPayHookSpecification[]",
					"components": [
						{
							"name": "hook",
							"type": "address",
							"internalType": "contract IJBPayHook"
						},
						{
							"name": "amount",
							"type": "uint256",
							"internalType": "uint256"
						},
						{
							"name": "metadata",
							"type": "bytes",
							"internalType": "bytes"
						}
					]
				}
			],
			"stateMutability": "view"
		},
		{
			"type": "function",
			"name": "replaceSplitOperatorOf",
			"inputs": [
				{
					"name": "revnetId",
					"type": "uint256",
					"internalType": "uint256"
				},
				{
					"name": "newSplitOperator",
					"type": "address",
					"internalType": "address"
				}
			],
			"outputs": [],
			"stateMutability": "nonpayable"
		},
		{
			"type": "function",
			"name": "supportsInterface",
			"inputs": [
				{
					"name": "interfaceId",
					"type": "bytes4",
					"internalType": "bytes4"
				}
			],
			"outputs": [
				{
					"name": "",
					"type": "bool",
					"internalType": "bool"
				}
			],
			"stateMutability": "view"
		},
		{
			"type": "function",
			"name": "trustedForwarder",
			"inputs": [],
			"outputs": [
				{
					"name": "",
					"type": "address",
					"internalType": "address"
				}
			],
			"stateMutability": "view"
		},
		{
			"type": "event",
			"name": "DeployRevnet",
			"inputs": [
				{
					"name": "revnetId",
					"type": "uint256",
					"indexed": true,
					"internalType": "uint256"
				},
				{
					"name": "configuration",
					"type": "tuple",
					"indexed": false,
					"internalType": "struct REVConfig",
					"components": [
						{
							"name": "description",
							"type": "tuple",
							"internalType": "struct REVDescription",
							"components": [
								{
									"name": "name",
									"type": "string",
									"internalType": "string"
								},
								{
									"name": "ticker",
									"type": "string",
									"internalType": "string"
								},
								{
									"name": "uri",
									"type": "string",
									"internalType": "string"
								},
								{
									"name": "salt",
									"type": "bytes32",
									"internalType": "bytes32"
								}
							]
						},
						{
							"name": "baseCurrency",
							"type": "uint32",
							"internalType": "uint32"
						},
						{
							"name": "premintTokenAmount",
							"type": "uint256",
							"internalType": "uint256"
						},
						{
							"name": "premintChainId",
							"type": "uint256",
							"internalType": "uint256"
						},
						{
							"name": "initialSplitOperator",
							"type": "address",
							"internalType": "address"
						},
						{
							"name": "stageConfigurations",
							"type": "tuple[]",
							"internalType": "struct REVStageConfig[]",
							"components": [
								{
									"name": "startsAtOrAfter",
									"type": "uint40",
									"internalType": "uint40"
								},
								{
									"name": "splitRate",
									"type": "uint16",
									"internalType": "uint16"
								},
								{
									"name": "initialIssuanceRate",
									"type": "uint112",
									"internalType": "uint112"
								},
								{
									"name": "priceCeilingIncreaseFrequency",
									"type": "uint40",
									"internalType": "uint40"
								},
								{
									"name": "priceCeilingIncreasePercentage",
									"type": "uint32",
									"internalType": "uint32"
								},
								{
									"name": "priceFloorTaxIntensity",
									"type": "uint16",
									"internalType": "uint16"
								}
							]
						}
					]
				},
				{
					"name": "terminalConfigurations",
					"type": "tuple[]",
					"indexed": false,
					"internalType": "struct JBTerminalConfig[]",
					"components": [
						{
							"name": "terminal",
							"type": "address",
							"internalType": "contract IJBTerminal"
						},
						{
							"name": "tokensToAccept",
							"type": "address[]",
							"internalType": "address[]"
						}
					]
				},
				{
					"name": "buybackHookConfiguration",
					"type": "tuple",
					"indexed": false,
					"internalType": "struct REVBuybackHookConfig",
					"components": [
						{
							"name": "hook",
							"type": "address",
							"internalType": "contract IJBBuybackHook"
						},
						{
							"name": "poolConfigurations",
							"type": "tuple[]",
							"internalType": "struct REVBuybackPoolConfig[]",
							"components": [
								{
									"name": "token",
									"type": "address",
									"internalType": "address"
								},
								{
									"name": "fee",
									"type": "uint24",
									"internalType": "uint24"
								},
								{
									"name": "twapWindow",
									"type": "uint32",
									"internalType": "uint32"
								},
								{
									"name": "twapSlippageTolerance",
									"type": "uint32",
									"internalType": "uint32"
								}
							]
						}
					]
				},
				{
					"name": "suckerDeploymentConfiguration",
					"type": "tuple",
					"indexed": false,
					"internalType": "struct REVSuckerDeploymentConfig",
					"components": [
						{
							"name": "deployerConfigurations",
							"type": "tuple[]",
							"internalType": "struct BPSuckerDeployerConfig[]",
							"components": [
								{
									"name": "deployer",
									"type": "address",
									"internalType": "contract IBPSuckerDeployer"
								},
								{
									"name": "mappings",
									"type": "tuple[]",
									"internalType": "struct BPTokenMapping[]",
									"components": [
										{
											"name": "localToken",
											"type": "address",
											"internalType": "address"
										},
										{
											"name": "minGas",
											"type": "uint32",
											"internalType": "uint32"
										},
										{
											"name": "remoteToken",
											"type": "address",
											"internalType": "address"
										},
										{
											"name": "minBridgeAmount",
											"type": "uint256",
											"internalType": "uint256"
										}
									]
								}
							]
						},
						{
							"name": "salt",
							"type": "bytes32",
							"internalType": "bytes32"
						}
					]
				},
				{
					"name": "rulesetConfigurations",
					"type": "tuple[]",
					"indexed": false,
					"internalType": "struct JBRulesetConfig[]",
					"components": [
						{
							"name": "mustStartAtOrAfter",
							"type": "uint256",
							"internalType": "uint256"
						},
						{
							"name": "duration",
							"type": "uint256",
							"internalType": "uint256"
						},
						{
							"name": "weight",
							"type": "uint256",
							"internalType": "uint256"
						},
						{
							"name": "decayRate",
							"type": "uint256",
							"internalType": "uint256"
						},
						{
							"name": "approvalHook",
							"type": "address",
							"internalType": "contract IJBRulesetApprovalHook"
						},
						{
							"name": "metadata",
							"type": "tuple",
							"internalType": "struct JBRulesetMetadata",
							"components": [
								{
									"name": "reservedRate",
									"type": "uint256",
									"internalType": "uint256"
								},
								{
									"name": "redemptionRate",
									"type": "uint256",
									"internalType": "uint256"
								},
								{
									"name": "baseCurrency",
									"type": "uint256",
									"internalType": "uint256"
								},
								{
									"name": "pausePay",
									"type": "bool",
									"internalType": "bool"
								},
								{
									"name": "pauseCreditTransfers",
									"type": "bool",
									"internalType": "bool"
								},
								{
									"name": "allowOwnerMinting",
									"type": "bool",
									"internalType": "bool"
								},
								{
									"name": "allowTerminalMigration",
									"type": "bool",
									"internalType": "bool"
								},
								{
									"name": "allowSetTerminals",
									"type": "bool",
									"internalType": "bool"
								},
								{
									"name": "allowControllerMigration",
									"type": "bool",
									"internalType": "bool"
								},
								{
									"name": "allowSetController",
									"type": "bool",
									"internalType": "bool"
								},
								{
									"name": "holdFees",
									"type": "bool",
									"internalType": "bool"
								},
								{
									"name": "useTotalSurplusForRedemptions",
									"type": "bool",
									"internalType": "bool"
								},
								{
									"name": "useDataHookForPay",
									"type": "bool",
									"internalType": "bool"
								},
								{
									"name": "useDataHookForRedeem",
									"type": "bool",
									"internalType": "bool"
								},
								{
									"name": "dataHook",
									"type": "address",
									"internalType": "address"
								},
								{
									"name": "metadata",
									"type": "uint256",
									"internalType": "uint256"
								}
							]
						},
						{
							"name": "splitGroups",
							"type": "tuple[]",
							"internalType": "struct JBSplitGroup[]",
							"components": [
								{
									"name": "groupId",
									"type": "uint256",
									"internalType": "uint256"
								},
								{
									"name": "splits",
									"type": "tuple[]",
									"internalType": "struct JBSplit[]",
									"components": [
										{
											"name": "preferAddToBalance",
											"type": "bool",
											"internalType": "bool"
										},
										{
											"name": "percent",
											"type": "uint256",
											"internalType": "uint256"
										},
										{
											"name": "projectId",
											"type": "uint256",
											"internalType": "uint256"
										},
										{
											"name": "beneficiary",
											"type": "address",
											"internalType": "address payable"
										},
										{
											"name": "lockedUntil",
											"type": "uint256",
											"internalType": "uint256"
										},
										{
											"name": "hook",
											"type": "address",
											"internalType": "contract IJBSplitHook"
										}
									]
								}
							]
						},
						{
							"name": "fundAccessLimitGroups",
							"type": "tuple[]",
							"internalType": "struct JBFundAccessLimitGroup[]",
							"components": [
								{
									"name": "terminal",
									"type": "address",
									"internalType": "address"
								},
								{
									"name": "token",
									"type": "address",
									"internalType": "address"
								},
								{
									"name": "payoutLimits",
									"type": "tuple[]",
									"internalType": "struct JBCurrencyAmount[]",
									"components": [
										{
											"name": "amount",
											"type": "uint256",
											"internalType": "uint256"
										},
										{
											"name": "currency",
											"type": "uint256",
											"internalType": "uint256"
										}
									]
								},
								{
									"name": "surplusAllowances",
									"type": "tuple[]",
									"internalType": "struct JBCurrencyAmount[]",
									"components": [
										{
											"name": "amount",
											"type": "uint256",
											"internalType": "uint256"
										},
										{
											"name": "currency",
											"type": "uint256",
											"internalType": "uint256"
										}
									]
								}
							]
						}
					]
				},
				{
					"name": "encodedConfiguration",
					"type": "bytes",
					"indexed": false,
					"internalType": "bytes"
				},
				{
					"name": "isInProgress",
					"type": "bool",
					"indexed": false,
					"internalType": "bool"
				},
				{
					"name": "caller",
					"type": "address",
					"indexed": false,
					"internalType": "address"
				}
			],
			"anonymous": false
		},
		{
			"type": "event",
			"name": "DeploySuckers",
			"inputs": [
				{
					"name": "revnetId",
					"type": "uint256",
					"indexed": true,
					"internalType": "uint256"
				},
				{
					"name": "salt",
					"type": "bytes32",
					"indexed": true,
					"internalType": "bytes32"
				},
				{
					"name": "encodedConfiguration",
					"type": "bytes",
					"indexed": false,
					"internalType": "bytes"
				},
				{
					"name": "suckerDeploymentConfiguration",
					"type": "tuple",
					"indexed": false,
					"internalType": "struct REVSuckerDeploymentConfig",
					"components": [
						{
							"name": "deployerConfigurations",
							"type": "tuple[]",
							"internalType": "struct BPSuckerDeployerConfig[]",
							"components": [
								{
									"name": "deployer",
									"type": "address",
									"internalType": "contract IBPSuckerDeployer"
								},
								{
									"name": "mappings",
									"type": "tuple[]",
									"internalType": "struct BPTokenMapping[]",
									"components": [
										{
											"name": "localToken",
											"type": "address",
											"internalType": "address"
										},
										{
											"name": "minGas",
											"type": "uint32",
											"internalType": "uint32"
										},
										{
											"name": "remoteToken",
											"type": "address",
											"internalType": "address"
										},
										{
											"name": "minBridgeAmount",
											"type": "uint256",
											"internalType": "uint256"
										}
									]
								}
							]
						},
						{
							"name": "salt",
							"type": "bytes32",
							"internalType": "bytes32"
						}
					]
				},
				{
					"name": "caller",
					"type": "address",
					"indexed": false,
					"internalType": "address"
				}
			],
			"anonymous": false
		},
		{
			"type": "event",
			"name": "ReplaceSplitOperator",
			"inputs": [
				{
					"name": "revnetId",
					"type": "uint256",
					"indexed": true,
					"internalType": "uint256"
				},
				{
					"name": "newSplitOperator",
					"type": "address",
					"indexed": true,
					"internalType": "address"
				},
				{
					"name": "caller",
					"type": "address",
					"indexed": false,
					"internalType": "address"
				}
			],
			"anonymous": false
		},
		{
			"type": "event",
			"name": "StoredPayHookSpecifications",
			"inputs": [
				{
					"name": "revnetId",
					"type": "uint256",
					"indexed": true,
					"internalType": "uint256"
				},
				{
					"name": "payHookSpecifications",
					"type": "tuple[]",
					"indexed": false,
					"internalType": "struct JBPayHookSpecification[]",
					"components": [
						{
							"name": "hook",
							"type": "address",
							"internalType": "contract IJBPayHook"
						},
						{
							"name": "amount",
							"type": "uint256",
							"internalType": "uint256"
						},
						{
							"name": "metadata",
							"type": "bytes",
							"internalType": "bytes"
						}
					]
				},
				{
					"name": "caller",
					"type": "address",
					"indexed": false,
					"internalType": "address"
				}
			],
			"anonymous": false
		},
		{
			"type": "error",
			"name": "REVBasicDeployer_ExitDelayInEffect",
			"inputs": []
		},
		{
			"type": "error",
			"name": "REVBasicDeployer_Unauthorized",
			"inputs": []
		}
	],
	"solcInputHash": "e375084179cd92018a55327e422b1ddf",
	"args": [
		"0x799D42391ed21894b105590300EEd66255d72225",
		"0x3F209aB51b59Bc6C2c9C2f2147d3d51E29A862d7",
		"0xB2b5841DBeF766d4b521221732F9B618fCf34A87",
		"0xd3838B2875a06E61bEfc3679Ee2C8d88D61067dC",
		"0x2B4853136aB24f8eB08d9E1cb536B43f48503801"
	],
	"bytecode": "0x6101006040523480156200001257600080fd5b506040516200592338038062005923833981016040819052620000359162000110565b6001600160a01b0392831660805293821660a05291811660c052600280546001808201835560117f405787fa12a823e0f2b7631cc41b3ba8828b3321ca811111fa75cd3aa3bb5ace9283015582548082018455601990830155825480820190935560069290910182905592821660e052600580546001600160a01b031916949092169390931790558154908101825560009190915260157ff652222313e28459528d920b65115c16c04f3efc82aaedc97be59f3f377c0d3f9091015562000190565b6001600160a01b03811681146200010d57600080fd5b50565b600080600080600060a086880312156200012957600080fd5b85516200013681620000f7565b60208701519095506200014981620000f7565b60408701519094506200015c81620000f7565b60608701519093506200016f81620000f7565b60808701519092506200018281620000f7565b809150509295509295909350565b60805160a05160c05160e0516156bf62000264600039600081816103810152610a470152600081816103a801528181610ef401528181610fdd015281816112f801528181611f08015261202e01526000818161041d015281816104ac0152818161089401528181610bfc0152818161110c015281816114e001528181611659015281816117d4015281816119ac01528181611a7901528181611b6901528181611c3101528181611cf401528181611df10152611f430152600081816102850152818161032b0152612b7b01526156bf6000f3fe608060405234801561001057600080fd5b50600436106101775760003560e01c80637249a773116100d8578063b5d255331161008c578063dbfbe5da11610066578063dbfbe5da146103f2578063eb5ad9d914610405578063ee0fc1211461041857600080fd5b8063b5d25533146103a3578063bb199402146103ca578063c4b0efa8146103df57600080fd5b80639d82ba25116100bd5780639d82ba251461034f578063aaf320d714610359578063abf8c5c81461037c57600080fd5b80637249a773146102e85780637da0a8771461032957600080fd5b80634c6034ef1161012f578063572b6c0511610114578063572b6c05146102755780635c0a7cee146102b5578063677ce088146102d557600080fd5b80634c6034ef146102325780634f6a01381461026257600080fd5b80631d3eedaa116101605780631d3eedaa146101d057806343681e15146101f15780634c4ffc711461021157600080fd5b806301ffc9a71461017c578063150b7a02146101a4575b600080fd5b61018f61018a366004612cd7565b61043f565b60405190151581526020015b60405180910390f35b6101b76101b2366004612d30565b6104a8565b6040516001600160e01b0319909116815260200161019b565b6101e36101de36600461364e565b610574565b60405190815260200161019b565b6101e36101ff366004613705565b60016020526000908152604090205481565b61022461021f36600461371e565b610590565b60405161019b92919061381e565b610245610240366004613cda565b610887565b604080519283526001600160a01b0390911660208301520161019b565b610245610270366004613ecf565b610bd7565b61018f610283366004614005565b7f00000000000000000000000000000000000000000000000000000000000000006001600160a01b0390811691161490565b6102c86102c3366004613705565b610d74565b60405161019b9190614022565b61018f6102e3366004614035565b610e98565b6103116102f6366004613705565b6000602081905290815260409020546001600160a01b031681565b6040516001600160a01b03909116815260200161019b565b7f0000000000000000000000000000000000000000000000000000000000000000610311565b6101e36276a70081565b61036c610367366004614065565b610fcd565b60405161019b94939291906140a1565b6103117f000000000000000000000000000000000000000000000000000000000000000081565b6103117f000000000000000000000000000000000000000000000000000000000000000081565b6103dd6103d8366004614141565b61110a565b005b6101e36103ed3660046141ae565b6113c1565b600554610311906001600160a01b031681565b6103dd610413366004614035565b6114d1565b6103117f000000000000000000000000000000000000000000000000000000000000000081565b60006001600160e01b031982167f81c03c2e0000000000000000000000000000000000000000000000000000000014806104a257507f01ffc9a7000000000000000000000000000000000000000000000000000000006001600160e01b03198316145b92915050565b60007f00000000000000000000000000000000000000000000000000000000000000006001600160a01b031663293c49996040518163ffffffff1660e01b8152600401602060405180830381865afa158015610508573d6000803e3d6000fd5b505050506040513d601f19601f8201168201806040525081019061052c919061429a565b6001600160a01b0316336001600160a01b03161461054957600080fd5b507f150b7a020000000000000000000000000000000000000000000000000000000095945050505050565b6000610586868686863060008861198b565b9695505050505050565b60c081013560009081526020819052604081205460609081906001600160a01b03168015610648576040517f4c4ffc710000000000000000000000000000000000000000000000000000000081526001600160a01b03821690634c4ffc71906105fd908890600401614362565b600060405180830381865afa15801561061a573d6000803e3d6000fd5b505050506040513d6000823e601f3d908101601f191682016040526106429190810190614433565b90945091505b815160c086013560009081526004602090815260408083208054825181850281018501909352808352941515949192909190849084015b82821015610763576000848152602090819020604080516060810182526003860290920180546001600160a01b03168352600181015493830193909352600283018054929392918401916106d29061457b565b80601f01602080910402602001604051908101604052809291908181526020018280546106fe9061457b565b801561074b5780601f106107205761010080835404028352916020019161074b565b820191906000526020600020905b81548152906001019060200180831161072e57829003601f168201915b5050505050815250508152602001906001019061067f565b5050505090506000815190508261077b57600061077e565b60015b61078b9060ff16826145cb565b67ffffffffffffffff8111156107a3576107a3612dcf565b6040519080825280602002602001820160405280156107f057816020015b604080516060808201835260008083526020830152918101919091528152602001906001900390816107c15790505b50955060005b8181101561083d57828181518110610810576108106145de565b602002602001015187828151811061082a5761082a6145de565b60209081029190910101526001016107f6565b50821561087d5784600081518110610857576108576145de565b6020026020010151868281518110610871576108716145de565b60200260200101819052505b5050505050915091565b60008089808203610983577f00000000000000000000000000000000000000000000000000000000000000006001600160a01b031663293c49996040518163ffffffff1660e01b8152600401602060405180830381865afa1580156108f0573d6000803e3d6000fd5b505050506040513d601f19601f82011682018060405250810190610914919061429a565b6001600160a01b03166306661abd6040518163ffffffff1660e01b8152600401602060405180830381865afa158015610951573d6000803e3d6000fd5b505050506040513d601f19601f8201168201806040525081019061097591906145f4565b6109809060016145cb565b9a505b845160006109928260016145cb565b67ffffffffffffffff8111156109aa576109aa612dcf565b6040519080825280602002602001820160405280156109f757816020015b604080516060808201835260008083526020830152918101919091528152602001906001900390816109c85790505b50905060005b82811015610a4457878181518110610a1757610a176145de565b6020026020010151828281518110610a3157610a316145de565b60209081029190910101526001016109fd565b507f00000000000000000000000000000000000000000000000000000000000000006001600160a01b0316632230819f8e8a600001516040518363ffffffff1660e01b8152600401610a9792919061472d565b6020604051808303816000875af1158015610ab6573d6000803e3d6000fd5b505050506040513d601f19601f82011682018060405250810190610ada919061429a565b9350876020015115610b095760008d815260036020908152604082208054600181018255908352912060159101555b876040015115610b365760008d815260036020908152604082208054600181018255908352912060169101555b876060015115610b635760008d815260036020908152604082208054600181018255908352912060179101555b6040518060600160405280856001600160a01b031681526020016000815260200160405180602001604052806000815250815250818381518110610ba957610ba96145de565b6020026020010181905250610bc3838d8d8d8d868c6113c1565b508c94505050509850989650505050505050565b600080610bea8b8b8b8b8b8b8b8b610887565b909b509050610bfa8b828561215c565b7f00000000000000000000000000000000000000000000000000000000000000006001600160a01b031663f434c9146040518163ffffffff1660e01b8152600401602060405180830381865afa158015610c58573d6000803e3d6000fd5b505050506040513d601f19601f82011682018060405250810190610c7c919061429a565b6001600160a01b03166305d2912e306040518060600160405280600560009054906101000a90046001600160a01b03166001600160a01b031681526020018f81526020016006805480602002602001604051908101604052809291908181526020018280548015610d0c57602002820191906000526020600020905b815481526020019060010190808311610cf8575b50505050508152506040518363ffffffff1660e01b8152600401610d319291906148a1565b600060405180830381600087803b158015610d4b57600080fd5b505af1158015610d5f573d6000803e3d6000fd5b505050508a9150995099975050505050505050565b606060046000838152602001908152602001600020805480602002602001604051908101604052809291908181526020016000905b82821015610e8d576000848152602090819020604080516060810182526003860290920180546001600160a01b0316835260018101549383019390935260028301805492939291840191610dfc9061457b565b80601f0160208091040260200160405190810160405280929190818152602001828054610e289061457b565b8015610e755780601f10610e4a57610100808354040283529160200191610e75565b820191906000526020600020905b815481529060010190602001808311610e5857829003601f168201915b50505050508152505081526020019060010190610da9565b505050509050919050565b6000828152602081905260408120546001600160a01b0390811690831603610ec2575060016104a2565b6040517f3d12cb87000000000000000000000000000000000000000000000000000000008152600481018490526000907f00000000000000000000000000000000000000000000000000000000000000006001600160a01b031690633d12cb8790602401600060405180830381865afa158015610f43573d6000803e3d6000fd5b505050506040513d6000823e601f3d908101601f19168201604052610f6b91908101906148e4565b805190915060005b81811015610fc157828181518110610f8d57610f8d6145de565b60200260200101516001600160a01b0316856001600160a01b031603610fb957600193505050506104a2565b600101610f73565b50600095945050505050565b6000808060606001600160a01b037f0000000000000000000000000000000000000000000000000000000000000000166383db9d01604087018035906110169060208a01614005565b6040516001600160e01b031960e085901b16815260048101929092526001600160a01b03166024820152604401602060405180830381865afa158015611060573d6000803e3d6000fd5b505050506040513d601f19601f82011682018060405250810190611084919061497e565b156110a15761271085608001358660a00135935093509350611103565b6040808601356000908152600160205220544210156110ec576040517f04c3b3cd00000000000000000000000000000000000000000000000000000000815260040160405180910390fd5b84610160013585608001358660a001359350935093505b9193509193565b7f00000000000000000000000000000000000000000000000000000000000000006001600160a01b0316631f47ce696040518163ffffffff1660e01b8152600401602060405180830381865afa158015611168573d6000803e3d6000fd5b505050506040513d601f19601f8201168201806040525081019061118c919061429a565b6001600160a01b031663f434c9146040518163ffffffff1660e01b8152600401602060405180830381865afa1580156111c9573d6000803e3d6000fd5b505050506040513d601f19601f820116820180604052508101906111ed919061429a565b6001600160a01b0316630f5932f0611203612345565b308661120e88612354565b6040518563ffffffff1660e01b815260040161122d949392919061499b565b602060405180830381865afa15801561124a573d6000803e3d6000fd5b505050506040513d601f19601f8201168201806040525081019061126e919061497e565b61128b576040516331fb21f360e01b815260040160405180910390fd5b6000611295612345565b8383602001516040516020016112ad939291906149cd565b60408051601f1981840301815290829052805160209091012083517f2f3f50e00000000000000000000000000000000000000000000000000000000083529092506001600160a01b037f00000000000000000000000000000000000000000000000000000000000000001691632f3f50e09161132f9188918691600401614ad7565b6000604051808303816000875af115801561134e573d6000803e3d6000fd5b505050506040513d6000823e601f3d908101601f1916820160405261137691908101906148e4565b5080847f755ecfca2f6e66af8868551556bf7931740a7062db8e0882f4c322fdb0bb3f6085856113a4612345565b6040516113b393929190614b1f565b60405180910390a350505050565b60006113d688888888308761ffff168a61198b565b835190985060005b818110156114825760008a81526004602052604090208551869083908110611408576114086145de565b6020908102919091018101518254600180820185556000948552938390208251600390920201805473ffffffffffffffffffffffffffffffffffffffff19166001600160a01b039092169190911781559181015192820192909255604082015160028201906114779082614bab565b5050506001016113de565b50887fdfaf2737f25eace49d372b472ec03f1df0f9814dfc69d2b95c5e92a041f42e29856114ae612345565b6040516114bc929190614c6b565b60405180910390a25096979650505050505050565b60006114dc83612354565b90507f00000000000000000000000000000000000000000000000000000000000000006001600160a01b0316631f47ce696040518163ffffffff1660e01b8152600401602060405180830381865afa15801561153c573d6000803e3d6000fd5b505050506040513d601f19601f82011682018060405250810190611560919061429a565b6001600160a01b031663f434c9146040518163ffffffff1660e01b8152600401602060405180830381865afa15801561159d573d6000803e3d6000fd5b505050506040513d601f19601f820116820180604052508101906115c1919061429a565b6001600160a01b0316630f5932f06115d7612345565b3086856040518563ffffffff1660e01b81526004016115f9949392919061499b565b602060405180830381865afa158015611616573d6000803e3d6000fd5b505050506040513d601f19601f8201168201806040525081019061163a919061497e565b611657576040516331fb21f360e01b815260040160405180910390fd5b7f00000000000000000000000000000000000000000000000000000000000000006001600160a01b0316631f47ce696040518163ffffffff1660e01b8152600401602060405180830381865afa1580156116b5573d6000803e3d6000fd5b505050506040513d601f19601f820116820180604052508101906116d9919061429a565b6001600160a01b031663f434c9146040518163ffffffff1660e01b8152600401602060405180830381865afa158015611716573d6000803e3d6000fd5b505050506040513d601f19601f8201168201806040525081019061173a919061429a565b6001600160a01b03166305d2912e30604051806060016040528061175c612345565b6001600160a01b0316815260208082018990526040805160008152918201815291820152516001600160e01b031960e085901b1681526117a09291906004016148a1565b600060405180830381600087803b1580156117ba57600080fd5b505af11580156117ce573d6000803e3d6000fd5b505050507f00000000000000000000000000000000000000000000000000000000000000006001600160a01b0316631f47ce696040518163ffffffff1660e01b8152600401602060405180830381865afa158015611830573d6000803e3d6000fd5b505050506040513d601f19601f82011682018060405250810190611854919061429a565b6001600160a01b031663f434c9146040518163ffffffff1660e01b8152600401602060405180830381865afa158015611891573d6000803e3d6000fd5b505050506040513d601f19601f820116820180604052508101906118b5919061429a565b6001600160a01b03166305d2912e306040518060600160405280866001600160a01b03168152602001878152602001858152506040518363ffffffff1660e01b81526004016119059291906148a1565b600060405180830381600087803b15801561191f57600080fd5b505af1158015611933573d6000803e3d6000fd5b50505050816001600160a01b0316837f0329d6a81434b130c72eb65eea0e32e429dc1277b4aad86ec86454aefb61845161196b612345565b6040516001600160a01b03909116815260200160405180910390a3505050565b60008060008061199c8a888861250c565b9250925092508a600003611a77577f00000000000000000000000000000000000000000000000000000000000000006001600160a01b0316630634bae9308c6000015160400151868d8f60000151602001516040516020016119fe9190614c96565b6040516020818303038152906040526040518663ffffffff1660e01b8152600401611a2d9594939291906150cd565b6020604051808303816000875af1158015611a4c573d6000803e3d6000fd5b505050506040513d601f19601f82011682018060405250810190611a7091906145f4565b9a50611b35565b7f00000000000000000000000000000000000000000000000000000000000000006001600160a01b0316631ea7bc8c8c858c8e6000015160200151604051602001611ac29190614c96565b6040516020818303038152906040526040518563ffffffff1660e01b8152600401611af09493929190615135565b6020604051808303816000875af1158015611b0f573d6000803e3d6000fd5b505050506040513d601f19601f82011682018060405250810190611b3391906145f4565b505b8080611b455750468a6060015114155b15611b6757611b576276a700426145cb565b60008c8152600160205260409020555b7f00000000000000000000000000000000000000000000000000000000000000006001600160a01b031663581781918c8c60000151600001518d60000151602001518e60000151606001516040518563ffffffff1660e01b8152600401611bd19493929190615174565b6020604051808303816000875af1158015611bf0573d6000803e3d6000fd5b505050506040513d601f19601f82011682018060405250810190611c14919061429a565b5087516001600160a01b031615611c2f57611c2f8b896128cd565b7f00000000000000000000000000000000000000000000000000000000000000006001600160a01b031663dd5f214a8c6000611c6e8e60800151612a2d565b6040518463ffffffff1660e01b8152600401611c8c939291906151b1565b600060405180830381600087803b158015611ca657600080fd5b505af1158015611cba573d6000803e3d6000fd5b50505050600060405180606001604052808c608001516001600160a01b031681526020018d8152602001611ced8e612354565b81525090507f00000000000000000000000000000000000000000000000000000000000000006001600160a01b031663f434c9146040518163ffffffff1660e01b8152600401602060405180830381865afa158015611d50573d6000803e3d6000fd5b505050506040513d601f19601f82011682018060405250810190611d74919061429a565b6001600160a01b03166305d2912e30836040518363ffffffff1660e01b8152600401611da19291906148a1565b600060405180830381600087803b158015611dbb57600080fd5b505af1158015611dcf573d6000803e3d6000fd5b5050505060008b60400151118015611dea5750468b60600151145b15611eb8577f00000000000000000000000000000000000000000000000000000000000000006001600160a01b031663c7fb92de8d8d604001518e608001518f6000015160200151604051602001611e4291906151d0565b60405160208183030381529060405260006040518663ffffffff1660e01b8152600401611e73959493929190615220565b6020604051808303816000875af1158015611e92573d6000803e3d6000fd5b505050506040513d601f19601f82011682018060405250810190611eb691906145f4565b505b60408051600180825281830190925260009160208083019080368337019050509050601c81600081518110611eef57611eef6145de565b60200260200101818152505060405180606001604052807f00000000000000000000000000000000000000000000000000000000000000006001600160a01b031681526020018e81526020018281525091507f00000000000000000000000000000000000000000000000000000000000000006001600160a01b031663f434c9146040518163ffffffff1660e01b8152600401602060405180830381865afa158015611f9f573d6000803e3d6000fd5b505050506040513d601f19601f82011682018060405250810190611fc3919061429a565b6001600160a01b03166305d2912e30846040518363ffffffff1660e01b8152600401611ff09291906148a1565b600060405180830381600087803b15801561200a57600080fd5b505af115801561201e573d6000803e3d6000fd5b505050506020870151156120fe577f00000000000000000000000000000000000000000000000000000000000000006001600160a01b0316632f3f50e08e612064612345565b878b6020015160405160200161207c939291906149cd565b60408051601f198184030181529082905280516020909101208b516001600160e01b031960e086901b1683526120b59392600401614ad7565b6000604051808303816000875af11580156120d4573d6000803e3d6000fd5b505050506040513d6000823e601f3d908101601f191682016040526120fc91908101906148e4565b505b8c7f4b827371715024f69a0bc98c8df6edafe6e471e78488ab1b3849de72f66b12e08d8d8d8b8a8a8a61212f612345565b604051612143989796959493929190615383565b60405180910390a2509a9b9a5050505050505050505050565b805160008167ffffffffffffffff81111561217957612179612dcf565b6040519080825280602002602001820160405280156121ec57816020015b6121d96040518060c0016040528060006001600160a01b0316815260200160008152602001600081526020016000815260200160008152602001606081525090565b8152602001906001900390816121975790505b5090506122216040518060a0016040528060008152602001600081526020016000815260200160008152602001606081525090565b60005b838110156122b75784818151811061223e5761223e6145de565b602002602001015191506040518060c00160405280876001600160a01b031681526020018360000151815260200183602001518152602001836040015181526020018360600151815260200183608001518152508382815181106122a4576122a46145de565b6020908102919091010152600101612224565b5083511561233d576005546040517fab54877a0000000000000000000000000000000000000000000000000000000081526001600160a01b039091169063ab54877a9061230a90899086906004016154ec565b600060405180830381600087803b15801561232457600080fd5b505af1158015612338573d6000803e3d6000fd5b505050505b505050505050565b600061234f612b6b565b905090565b6060600060028054806020026020016040519081016040528092919081815260200182805480156123a457602002820191906000526020600020905b815481526020019060010190808311612390575b5050835160008881526003602090815260408083208054825181850281018501909352808352989950939792965094509192509083018282801561240757602002820191906000526020600020905b8154815260200190600101908083116123f3575b5050835193945061241e92508391508590506145cb565b67ffffffffffffffff81111561243657612436612dcf565b60405190808252806020026020018201604052801561245f578160200160208202803683370190505b50945060005b838110156124ac5784818151811061247f5761247f6145de565b6020026020010151868281518110612499576124996145de565b6020908102919091010152600101612465565b5060005b81811015612502578281815181106124ca576124ca6145de565b60200260200101518682866124df91906145cb565b815181106124ef576124ef6145de565b60209081029190910101526001016124b0565b5050505050919050565b6060806000808660a001515190508067ffffffffffffffff81111561253357612533612dcf565b60405190808252806020026020018201604052801561262557816020015b6126126040805161010080820183526000808352602080840182905283850182905260608085018390526080808601849052865161020081018852848152928301849052958201839052810182905293840181905260a084810182905260c0850182905260e0850182905291840181905261012084018190526101408401819052610160840181905261018084018190526101a084018190526101c084018190526101e0840152909190820190815260200160608152602001606081525090565b8152602001906001900390816125515790505b50935061263187612be0565b6040805160c081018252600080825260208201819052918101829052606081018290526080810182905260a081018290529194505b828110156128c1578860a001518181518110612684576126846145de565b60200260200101519150816000015164ffffffffff168682815181106126ac576126ac6145de565b60200260200101516000018181525050816060015164ffffffffff168682815181106126da576126da6145de565b6020026020010151602001818152505081604001516dffffffffffffffffffffffffffff16868281518110612711576127116145de565b60200260200101516040018181525050816080015163ffffffff1686828151811061273e5761273e6145de565b602002602001015160600181815250506000868281518110612762576127626145de565b6020026020010151608001906001600160a01b031690816001600160a01b031681525050604051806102000160405280836020015161ffff1681526020018360a0015161ffff166127106127b6919061559e565b815260208b81015163ffffffff16908201526000604082018190526060820181905260016080830181905260a0830182905260c0830182905260e083018290526101008301829052610120830182905261014083018290526101608301526101808201526001600160a01b038a166101a08201526101c0018890528651879083908110612845576128456145de565b602002602001015160a0018190525080600014801561286b5750815164ffffffffff1615155b8015612881575042826000015164ffffffffff16105b1561288b57600193505b846128968383612c21565b6040516020016128a79291906155b1565b60408051601f198184030181529190529450600101612666565b50505093509350939050565b602081810151516040805160808101825260008082529381018490529081018390526060810183905290915b828110156129ec5783602001518181518110612917576129176145de565b6020908102919091018101518551918101516040808301516060840151845192517f7b621d3a000000000000000000000000000000000000000000000000000000008152600481018c905262ffffff909416602485015263ffffffff91821660448501521660648301526001600160a01b039081166084830152919450911690637b621d3a9060a4016020604051808303816000875af11580156129bf573d6000803e3d6000fd5b505050506040513d601f19601f820116820180604052508101906129e3919061429a565b506001016128f9565b50509051600092835260208390526040909220805473ffffffffffffffffffffffffffffffffffffffff19166001600160a01b039093169290921790915550565b604080516001808252818301909252606091816020015b604080518082019091526000815260606020820152815260200190600190039081612a4457505060408051600180825281830190925291925060009190602082015b6040805160c08101825260008082526020808301829052928201819052606082018190526080820181905260a08201528252600019909201910181612a865790505090506040518060c00160405280600015158152602001633b9aca00815260200160008152602001846001600160a01b031681526020016000815260200160006001600160a01b031681525081600081518110612b2657612b266145de565b60200260200101819052506040518060400160405280600181526020018281525082600081518110612b5a57612b5a6145de565b602002602001018190525050919050565b6000366014336001600160a01b037f000000000000000000000000000000000000000000000000000000000000000016148015612ba85750808210155b15612bd857600036612bba838561559e565b612bc59282906155e0565b612bce9161560a565b60601c9250505090565b339250505090565b6020808201516060838101518451805181860151918401516040519496612c0b96959293920161563f565b6040516020818303038152906040529050919050565b606081158015612c375750825164ffffffffff16155b612c4957825164ffffffffff16612c4b565b425b83602001518460400151856060015186608001518760a00151604051602001612cc09695949392919095865261ffff94851660208701526dffffffffffffffffffffffffffff93909316604086015264ffffffffff91909116606085015263ffffffff1660808401521660a082015260c00190565b604051602081830303815290604052905092915050565b600060208284031215612ce957600080fd5b81356001600160e01b031981168114612d0157600080fd5b9392505050565b6001600160a01b0381168114612d1d57600080fd5b50565b8035612d2b81612d08565b919050565b600080600080600060808688031215612d4857600080fd5b8535612d5381612d08565b94506020860135612d6381612d08565b935060408601359250606086013567ffffffffffffffff80821115612d8757600080fd5b818801915088601f830112612d9b57600080fd5b813581811115612daa57600080fd5b896020828501011115612dbc57600080fd5b9699959850939650602001949392505050565b634e487b7160e01b600052604160045260246000fd5b6040516080810167ffffffffffffffff81118282101715612e0857612e08612dcf565b60405290565b60405160c0810167ffffffffffffffff81118282101715612e0857612e08612dcf565b6040805190810167ffffffffffffffff81118282101715612e0857612e08612dcf565b604051610180810167ffffffffffffffff81118282101715612e0857612e08612dcf565b604051610120810167ffffffffffffffff81118282101715612e0857612e08612dcf565b6040516060810167ffffffffffffffff81118282101715612e0857612e08612dcf565b60405160a0810167ffffffffffffffff81118282101715612e0857612e08612dcf565b604051601f8201601f1916810167ffffffffffffffff81118282101715612f0b57612f0b612dcf565b604052919050565b600067ffffffffffffffff821115612f2d57612f2d612dcf565b50601f01601f191660200190565b600082601f830112612f4c57600080fd5b8135612f5f612f5a82612f13565b612ee2565b818152846020838601011115612f7457600080fd5b816020850160208301376000918101602001919091529392505050565b600060808284031215612fa357600080fd5b612fab612de5565b9050813567ffffffffffffffff80821115612fc557600080fd5b612fd185838601612f3b565b83526020840135915080821115612fe757600080fd5b612ff385838601612f3b565b6020840152604084013591508082111561300c57600080fd5b5061301984828501612f3b565b6040830152506060820135606082015292915050565b803563ffffffff81168114612d2b57600080fd5b600067ffffffffffffffff82111561305d5761305d612dcf565b5060051b60200190565b803564ffffffffff81168114612d2b57600080fd5b803561ffff81168114612d2b57600080fd5b600082601f83011261309f57600080fd5b813560206130af612f5a83613043565b82815260c092830285018201928282019190878511156130ce57600080fd5b8387015b858110156131735781818a0312156130ea5760008081fd5b6130f2612e0e565b6130fb82613067565b815261310886830161307c565b868201526040808301356dffffffffffffffffffffffffffff8116811461312f5760008081fd5b908201526060613140838201613067565b90820152608061315183820161302f565b9082015260a061316283820161307c565b9082015284529284019281016130d2565b5090979650505050505050565b600060c0828403121561319257600080fd5b61319a612e0e565b9050813567ffffffffffffffff808211156131b457600080fd5b6131c085838601612f91565b83526131ce6020850161302f565b602084015260408401356040840152606084013560608401526131f360808501612d20565b608084015260a084013591508082111561320c57600080fd5b506132198482850161308e565b60a08301525092915050565b600082601f83011261323657600080fd5b81356020613246612f5a83613043565b8083825260208201915060208460051b87010193508684111561326857600080fd5b602086015b8481101561328d57803561328081612d08565b835291830191830161326d565b509695505050505050565b600082601f8301126132a957600080fd5b813560206132b9612f5a83613043565b82815260059290921b840181019181810190868411156132d857600080fd5b8286015b8481101561328d57803567ffffffffffffffff808211156132fd5760008081fd5b908801906040828b03601f19018113156133175760008081fd5b61331f612e31565b8784013561332c81612d08565b81529083013590828211156133415760008081fd5b61334f8c8984870101613225565b8189015286525050509183019183016132dc565b803562ffffff81168114612d2b57600080fd5b6000604080838503121561338957600080fd5b613391612e31565b9150823561339e81612d08565b825260208381013567ffffffffffffffff8111156133bb57600080fd5b8401601f810186136133cc57600080fd5b80356133da612f5a82613043565b81815260079190911b820183019083810190888311156133f957600080fd5b928401925b8284101561346d576080848a0312156134175760008081fd5b61341f612de5565b843561342a81612d08565b8152613437858701613363565b8682015261344687860161302f565b87820152606061345781870161302f565b90820152825260809390930192908401906133fe565b808588015250505050505092915050565b60006040828403121561349057600080fd5b613498612e31565b905067ffffffffffffffff80833511156134b157600080fd5b8235830184601f8201126134c457600080fd5b6134d1612f5a8235613043565b81358082526020808301929160051b840101878111156134f057600080fd5b602084015b8181101561363557858135111561350b57600080fd5b803585016040818b03601f1901121561352357600080fd5b61352b612e31565b6135386020830135612d08565b60208201358152876040830135111561355057600080fd5b6040820135820191508a603f83011261356857600080fd5b6020820135613579612f5a82613043565b81815260079190911b83016040019060208101908d83111561359a57600080fd5b6040850194505b82851015613616576080858f0312156135b957600080fd5b6135c1612de5565b6135cb8635612d08565b853581526135db6020870161302f565b60208201526135ed6040870135612d08565b6040860135604082015260608601356060820152808352506020820191506080850194506135a1565b80602085015250505080865250506020840193506020810190506134f5565b5050808552505050506020820135602082015292915050565b600080600080600060a0868803121561366657600080fd5b85359450602086013567ffffffffffffffff8082111561368557600080fd5b61369189838a01613180565b955060408801359150808211156136a757600080fd5b6136b389838a01613298565b945060608801359150808211156136c957600080fd5b6136d589838a01613376565b935060808801359150808211156136eb57600080fd5b506136f88882890161347e565b9150509295509295909350565b60006020828403121561371757600080fd5b5035919050565b60006020828403121561373057600080fd5b813567ffffffffffffffff81111561374757600080fd5b82016101808185031215612d0157600080fd5b60005b8381101561377557818101518382015260200161375d565b50506000910152565b6000815180845261379681602086016020860161375a565b601f01601f19169290920160200192915050565b600082825180855260208086019550808260051b84010181860160005b8481101561317357858303601f19018952815180516001600160a01b03168452848101518585015260409081015160609185018290529061380a8186018361377e565b9a86019a94505050908301906001016137c7565b82815260406020820152600061383760408301846137aa565b949350505050565b80356cffffffffffffffffffffffffff81168114612d2b57600080fd5b8015158114612d1d57600080fd5b8035612d2b8161385c565b803560ff81168114612d2b57600080fd5b6000608080838503121561389957600080fd5b6138a1612de5565b9150823567ffffffffffffffff8111156138ba57600080fd5b8301601f810185136138cb57600080fd5b803560206138db612f5a83613043565b82815261018092830284018201928282019190898511156138fb57600080fd5b948301945b848610156139ee5780868b0312156139185760008081fd5b613920612e54565b6139298761383f565b815261393685880161302f565b85820152604061394781890161302f565b90820152606061395888820161307c565b90820152613967878901612d20565b8189015260a0878101359082015260c0613982818901613363565b9082015260e061399388820161386a565b908201526101006139a588820161386a565b908201526101206139b788820161386a565b908201526101406139c988820161386a565b908201526101606139db88820161386a565b9082015283529485019491830191613900565b508652506139fd86820161302f565b8186015250505050613a1160408301613875565b6040820152613a2260608301612d20565b606082015292915050565b600060808284031215613a3f57600080fd5b613a47612de5565b90508135613a548161385c565b81526020820135613a648161385c565b60208201526040820135613a778161385c565b60408201526060820135613a228161385c565b600060808284031215613a9c57600080fd5b613aa4612de5565b9050813567ffffffffffffffff80821115613abe57600080fd5b908301906101808286031215613ad357600080fd5b613adb612e78565b823582811115613aea57600080fd5b613af687828601612f3b565b825250602083013582811115613b0b57600080fd5b613b1787828601612f3b565b602083015250613b2960408401612d20565b6040820152606083013582811115613b4057600080fd5b613b4c87828601612f3b565b606083015250613b5e60808401612d20565b608082015260a083013582811115613b7557600080fd5b613b8187828601612f3b565b60a08301525060c083013582811115613b9957600080fd5b613ba587828601613886565b60c083015250613bb760e08401612d20565b60e08201526101009150613bcd86838501613a2d565b82820152808452505050613be36020830161386a565b6020820152613bf46040830161386a565b6040820152613a226060830161386a565b600082601f830112613c1657600080fd5b81356020613c26612f5a83613043565b82815260059290921b84018101918181019086841115613c4557600080fd5b8286015b8481101561328d57803567ffffffffffffffff80821115613c6a5760008081fd5b908801906060828b03601f1901811315613c845760008081fd5b613c8c612e9c565b87840135613c9981612d08565b815260408481013589830152918401359183831115613cb85760008081fd5b613cc68d8a85880101612f3b565b908201528652505050918301918301613c49565b600080600080600080600080610100898b031215613cf757600080fd5b88359750602089013567ffffffffffffffff80821115613d1657600080fd5b613d228c838d01613180565b985060408b0135915080821115613d3857600080fd5b613d448c838d01613298565b975060608b0135915080821115613d5a57600080fd5b613d668c838d01613376565b965060808b0135915080821115613d7c57600080fd5b613d888c838d0161347e565b955060a08b0135915080821115613d9e57600080fd5b613daa8c838d01613a8a565b945060c08b0135915080821115613dc057600080fd5b50613dcd8b828c01613c05565b925050613ddc60e08a0161307c565b90509295985092959890939650565b600082601f830112613dfc57600080fd5b81356020613e0c612f5a83613043565b82815260059290921b84018101918181019086841115613e2b57600080fd5b8286015b8481101561328d57803567ffffffffffffffff80821115613e505760008081fd5b9088019060a0828b03601f1901811315613e6a5760008081fd5b613e72612ebf565b87840135815260408085013589830152606080860135828401526080915081860135818401525082850135925083831115613ead5760008081fd5b613ebb8d8a85880101613225565b908201528652505050918301918301613e2f565b60008060008060008060008060006101208a8c031215613eee57600080fd5b8935985060208a013567ffffffffffffffff80821115613f0d57600080fd5b613f198d838e01613180565b995060408c0135915080821115613f2f57600080fd5b613f3b8d838e01613298565b985060608c0135915080821115613f5157600080fd5b613f5d8d838e01613376565b975060808c0135915080821115613f7357600080fd5b613f7f8d838e0161347e565b965060a08c0135915080821115613f9557600080fd5b613fa18d838e01613a8a565b955060c08c0135915080821115613fb757600080fd5b613fc38d838e01613c05565b9450613fd160e08d0161307c565b93506101008c0135915080821115613fe857600080fd5b50613ff58c828d01613deb565b9150509295985092959850929598565b60006020828403121561401757600080fd5b8135612d0181612d08565b602081526000612d0160208301846137aa565b6000806040838503121561404857600080fd5b82359150602083013561405a81612d08565b809150509250929050565b60006020828403121561407757600080fd5b813567ffffffffffffffff81111561408e57600080fd5b82016101a08185031215612d0157600080fd5b60006080820186835260208681850152604086604086015260606080606087015283875180865260a08801915060a08160051b890101955084890160005b8281101561412f57898803609f19018452815180516001600160a01b0316895287810151888a015286015186890186905261411c868a018261377e565b98505092860192908601906001016140df565b50959c9b505050505050505050505050565b60008060006060848603121561415657600080fd5b83359250602084013567ffffffffffffffff8082111561417557600080fd5b61418187838801612f3b565b9350604086013591508082111561419757600080fd5b506141a48682870161347e565b9150509250925092565b600080600080600080600060e0888a0312156141c957600080fd5b87359650602088013567ffffffffffffffff808211156141e857600080fd5b6141f48b838c01613180565b975060408a013591508082111561420a57600080fd5b6142168b838c01613298565b965060608a013591508082111561422c57600080fd5b6142388b838c01613376565b955060808a013591508082111561424e57600080fd5b61425a8b838c0161347e565b945060a08a013591508082111561427057600080fd5b5061427d8a828b01613c05565b92505061428c60c0890161307c565b905092959891949750929550565b6000602082840312156142ac57600080fd5b8151612d0181612d08565b80356142c281612d08565b6001600160a01b031682526020818101359083015260408082013590830152606090810135910152565b6000808335601e1984360301811261430357600080fd5b830160208101925035905067ffffffffffffffff81111561432357600080fd5b80360382131561433257600080fd5b9250929050565b81835281816020850137506000828201602090810191909152601f909101601f19169091010190565b602081526143836020820161437684612d20565b6001600160a01b03169052565b600061439160208401612d20565b6001600160a01b0381166040840152506143b160608301604085016142b7565b60c083013560e083015261010060e0840135818401526143d2818501612d20565b90506101206143eb818501836001600160a01b03169052565b61014091508085013582850152506101608185013581850152614410818601866142ec565b610180868101529250905061442a6101a085018383614339565b95945050505050565b600080604080848603121561444757600080fd5b8351925060208085015167ffffffffffffffff8082111561446757600080fd5b818701915087601f83011261447b57600080fd5b8151614489612f5a82613043565b81815260059190911b8301840190848101908a8311156144a857600080fd5b8585015b83811015614569578051858111156144c357600080fd5b86016060818e03601f190112156144da5760008081fd5b6144e2612e9c565b888201516144ef81612d08565b8152818a01518982015260608201518781111561450c5760008081fd5b8083019250508d603f8301126145225760008081fd5b88820151614532612f5a82612f13565b8181528f8c8386010111156145475760008081fd5b614556828c83018e870161375a565b828c0152508452509186019186016144ac565b50809750505050505050509250929050565b600181811c9082168061458f57607f821691505b6020821081036145af57634e487b7160e01b600052602260045260246000fd5b50919050565b634e487b7160e01b600052601160045260246000fd5b808201808211156104a2576104a26145b5565b634e487b7160e01b600052603260045260246000fd5b60006020828403121561460657600080fd5b5051919050565b80516080808452815184820181905260009260a0916020918201918388019190865b828110156146f257845180516cffffffffffffffffffffffffff1685528281015163ffffffff908116848701526040808301519091169086015260608082015161ffff1690860152878101516001600160a01b031688860152868101518786015260c08082015162ffffff169086015260e08082015115159086015261010080820151151590860152610120808201511515908601526101408082015115159086015261016090810151151590850152938101936101809093019260010161462f565b508781015163ffffffff16908901525060408087015160ff16908801526060808701516001600160a01b038116918901919091529350610586565b828152604060208201526000825161018060408401526147516101c084018261377e565b90506020840151603f198085840301606086015261476f838361377e565b92506040860151915061478d60808601836001600160a01b03169052565b60608601519150808584030160a08601526147a8838361377e565b9250608086015191506147c660c08601836001600160a01b03169052565b60a08601519150808584030160e08601526147e1838361377e565b925060c08601519150610100818685030181870152614800848461460d565b935060e0870151925061481f6101208701846001600160a01b03169052565b860151805115156101408701526020810151151561016087015260408101511515610180870152606081015115156101a0870152915061485c9050565b50949350505050565b60008151808452602080850194506020840160005b838110156148965781518752958201959082019060010161487a565b509495945050505050565b60006001600160a01b03808516835260406020840152808451166040840152506020830151606083015260408301516060608084015261442a60a0840182614865565b600060208083850312156148f757600080fd5b825167ffffffffffffffff81111561490e57600080fd5b8301601f8101851361491f57600080fd5b805161492d612f5a82613043565b81815260059190911b8201830190838101908783111561494c57600080fd5b928401925b8284101561497357835161496481612d08565b82529284019290840190614951565b979650505050505050565b60006020828403121561499057600080fd5b8151612d018161385c565b60006001600160a01b038087168352808616602084015250836040830152608060608301526105866080830184614865565b6bffffffffffffffffffffffff198460601b168152600083516149f781601485016020880161375a565b60149201918201929092526034019392505050565b600082825180855260208086019550808260051b8401018186016000805b85811015614ac957868403601f19018a52825180516001600160a01b03908116865290860151604087870181905281518188018190529188019290916060919082890190875b81811015614ab15786518051851684528c81015163ffffffff168d8501528681015185168785015285015185840152958b0195608090920191600101614a70565b50509d89019d97505050938601935050600101614a2a565b509198975050505050505050565b83815282602082015260606040820152600061442a6060830184614a0c565b6000815160408452614b0b6040850182614a0c565b602093840151949093019390935250919050565b606081526000614b32606083018661377e565b8281036020840152614b448186614af6565b9150506001600160a01b0383166040830152949350505050565b601f821115614ba6576000816000526020600020601f850160051c81016020861015614b875750805b601f850160051c820191505b8181101561233d57828155600101614b93565b505050565b815167ffffffffffffffff811115614bc557614bc5612dcf565b614bd981614bd3845461457b565b84614b5e565b602080601f831160018114614c0e5760008415614bf65750858301515b600019600386901b1c1916600185901b17855561233d565b600085815260208120601f198616915b82811015614c3d57888601518255948401946001909101908401614c1e565b5085821015614c5b5787850151600019600388901b60f8161c191681555b5050505050600190811b01905550565b604081526000614c7e60408301856137aa565b90506001600160a01b03831660208301529392505050565b600960fa1b815260008251614cb281600185016020870161375a565b7f207265766e6574206465706c6f796564000000000000000000000000000000006001939091019283015250601101919050565b8051825260208101516020830152604081015160408301526060810151614d11606084018215159052565b506080810151614d25608084018215159052565b5060a0810151614d3960a084018215159052565b5060c0810151614d4d60c084018215159052565b5060e0810151614d6160e084018215159052565b5061010081810151151590830152610120808201511515908301526101408082015115159083015261016080820151151590830152610180808201511515908301526101a0808201511515908301526101c0808201516001600160a01b0316908301526101e090810151910152565b600082825180855260208086019550808260051b8401018186016000805b85811015614ac957868403601f19018a52825180518552850151604086860181905281518187018190529187019160609081880190865b81811015614e7f5785518051151584528b8101518c8501528581015186850152848101516001600160a01b03908116868601526080808301519086015260a0918201511690840152948a019460c090920191600101614e25565b50509c88019c965050509285019250600101614dee565b60008151808452602080850194506020840160005b83811015614896578151805188528301518388015260409096019590820190600101614eab565b600082825180855260208086019550808260051b84010181860160005b8481101561317357601f19868403018952815160806001600160a01b0380835116865280878401511687870152506040808301518282880152614f3483880182614e96565b9250505060608083015192508582038187015250614f528183614e96565b9a86019a9450505090830190600101614eef565b600082825180855260208086019550808260051b84010181860160005b8481101561317357858303601f19018952815180518452848101518585015260408082015190850152606080820151908501526080808201516001600160a01b03169085015260a0808201516102e09190614fe082880182614ce6565b505060c0820151816102a0870152614ffa82870182614dd0565b91505060e082015191508481036102c08601526150178183614ed2565b9a86019a9450505090830190600101614f83565b60008151808452602080850194506020840160005b838110156148965781516001600160a01b031687529582019590820190600101615040565b600082825180855260208086019550808260051b84010181860160005b8481101561317357858303601f19018952815180516001600160a01b0316845284015160408585018190526150b98186018361502b565b9a86019a9450505090830190600101615082565b6001600160a01b038616815260a0602082015260006150ef60a083018761377e565b82810360408401526151018187614f66565b905082810360608401526151158186615065565b90508281036080840152615129818561377e565b98975050505050505050565b84815260806020820152600061514e6080830186614f66565b82810360408401526151608186615065565b90508281036060840152614973818561377e565b84815260806020820152600061518d608083018661377e565b828103604084015261519f818661377e565b91505082606083015295945050505050565b83815282602082015260606040820152600061442a6060830184614dd0565b600960fa1b8152600082516151ec81600185016020870161375a565b7f207072656d696e746564000000000000000000000000000000000000000000006001939091019283015250600b01919050565b8581528460208201526001600160a01b038416604082015260a06060820152600061524e60a083018561377e565b905082151560808301529695505050505050565b60008151808452602080850194506020840160005b83811015614896578151805164ffffffffff90811689528482015161ffff908116868b01526040808401516dffffffffffffffffffffffffffff16908b0152606080840151909216918a019190915260808083015163ffffffff16908a015260a091820151169088015260c09096019590820190600101615277565b600060408084016001600160a01b038085511686526020808601516040828901528381518086526060955060608a019150838301925060005b818110156153745783518051871684528581015162ffffff16868501528881015163ffffffff9081168a8601529088015116878401529284019260809092019160010161532c565b50909998505050505050505050565b60006101008083528a5160c0828501528051915060806101c08501526153ad61024085018361377e565b915060208101516101bf1980868503016101e08701526153cd848361377e565b9350604083015191508086850301610200870152506153ec838261377e565b92505060608101516102208501525060208b015161541361012085018263ffffffff169052565b5060408b015161014084015260608b015161016084015260808b01516001600160a01b031661018084015260a08b015183820360ff19016101a085015261545a8282615262565b915050828103602084015261546f818b615065565b90508281036040840152615483818a6152f3565b905082810360608401526154978189614af6565b905082810360808401526154ab8188614f66565b905082810360a08401526154bf818761377e565b9150506154d060c083018515159052565b6001600160a01b03831660e08301529998505050505050505050565b6000604080830185845260206040818601528186518084526060935060608701915060608160051b88010183890160005b8381101561558e57898303605f19018552815180516001600160a01b031684528681015187850152888101518985015287810151888501526080808201519085015260a09081015160c09185018290529061557a8186018361502b565b96880196945050509085019060010161551d565b50909a9950505050505050505050565b818103818111156104a2576104a26145b5565b600083516155c381846020880161375a565b8351908301906155d781836020880161375a565b01949350505050565b600080858511156155f057600080fd5b838611156155fd57600080fd5b5050820193919092039150565b6bffffffffffffffffffffffff1981358181169160148510156156375780818660140360031b1b83161692505b505092915050565b63ffffffff8616815284602082015260a06040820152600061566460a083018661377e565b8281036060840152615676818661377e565b915050826080830152969550505050505056fea264697066735822122087339da47a0b05b2b9751dea45ef3aff5124cc2822591355779c8aa355b166a564736f6c63430008170033",
	"deployedBytecode": "0x608060405234801561001057600080fd5b50600436106101775760003560e01c80637249a773116100d8578063b5d255331161008c578063dbfbe5da11610066578063dbfbe5da146103f2578063eb5ad9d914610405578063ee0fc1211461041857600080fd5b8063b5d25533146103a3578063bb199402146103ca578063c4b0efa8146103df57600080fd5b80639d82ba25116100bd5780639d82ba251461034f578063aaf320d714610359578063abf8c5c81461037c57600080fd5b80637249a773146102e85780637da0a8771461032957600080fd5b80634c6034ef1161012f578063572b6c0511610114578063572b6c05146102755780635c0a7cee146102b5578063677ce088146102d557600080fd5b80634c6034ef146102325780634f6a01381461026257600080fd5b80631d3eedaa116101605780631d3eedaa146101d057806343681e15146101f15780634c4ffc711461021157600080fd5b806301ffc9a71461017c578063150b7a02146101a4575b600080fd5b61018f61018a366004612cd7565b61043f565b60405190151581526020015b60405180910390f35b6101b76101b2366004612d30565b6104a8565b6040516001600160e01b0319909116815260200161019b565b6101e36101de36600461364e565b610574565b60405190815260200161019b565b6101e36101ff366004613705565b60016020526000908152604090205481565b61022461021f36600461371e565b610590565b60405161019b92919061381e565b610245610240366004613cda565b610887565b604080519283526001600160a01b0390911660208301520161019b565b610245610270366004613ecf565b610bd7565b61018f610283366004614005565b7f000000000000000000000000b2b5841dbef766d4b521221732f9b618fcf34a876001600160a01b0390811691161490565b6102c86102c3366004613705565b610d74565b60405161019b9190614022565b61018f6102e3366004614035565b610e98565b6103116102f6366004613705565b6000602081905290815260409020546001600160a01b031681565b6040516001600160a01b03909116815260200161019b565b7f000000000000000000000000b2b5841dbef766d4b521221732f9b618fcf34a87610311565b6101e36276a70081565b61036c610367366004614065565b610fcd565b60405161019b94939291906140a1565b6103117f000000000000000000000000d3838b2875a06e61befc3679ee2c8d88d61067dc81565b6103117f0000000000000000000000003f209ab51b59bc6c2c9c2f2147d3d51e29a862d781565b6103dd6103d8366004614141565b61110a565b005b6101e36103ed3660046141ae565b6113c1565b600554610311906001600160a01b031681565b6103dd610413366004614035565b6114d1565b6103117f000000000000000000000000799d42391ed21894b105590300eed66255d7222581565b60006001600160e01b031982167f81c03c2e0000000000000000000000000000000000000000000000000000000014806104a257507f01ffc9a7000000000000000000000000000000000000000000000000000000006001600160e01b03198316145b92915050565b60007f000000000000000000000000799d42391ed21894b105590300eed66255d722256001600160a01b031663293c49996040518163ffffffff1660e01b8152600401602060405180830381865afa158015610508573d6000803e3d6000fd5b505050506040513d601f19601f8201168201806040525081019061052c919061429a565b6001600160a01b0316336001600160a01b03161461054957600080fd5b507f150b7a020000000000000000000000000000000000000000000000000000000095945050505050565b6000610586868686863060008861198b565b9695505050505050565b60c081013560009081526020819052604081205460609081906001600160a01b03168015610648576040517f4c4ffc710000000000000000000000000000000000000000000000000000000081526001600160a01b03821690634c4ffc71906105fd908890600401614362565b600060405180830381865afa15801561061a573d6000803e3d6000fd5b505050506040513d6000823e601f3d908101601f191682016040526106429190810190614433565b90945091505b815160c086013560009081526004602090815260408083208054825181850281018501909352808352941515949192909190849084015b82821015610763576000848152602090819020604080516060810182526003860290920180546001600160a01b03168352600181015493830193909352600283018054929392918401916106d29061457b565b80601f01602080910402602001604051908101604052809291908181526020018280546106fe9061457b565b801561074b5780601f106107205761010080835404028352916020019161074b565b820191906000526020600020905b81548152906001019060200180831161072e57829003601f168201915b5050505050815250508152602001906001019061067f565b5050505090506000815190508261077b57600061077e565b60015b61078b9060ff16826145cb565b67ffffffffffffffff8111156107a3576107a3612dcf565b6040519080825280602002602001820160405280156107f057816020015b604080516060808201835260008083526020830152918101919091528152602001906001900390816107c15790505b50955060005b8181101561083d57828181518110610810576108106145de565b602002602001015187828151811061082a5761082a6145de565b60209081029190910101526001016107f6565b50821561087d5784600081518110610857576108576145de565b6020026020010151868281518110610871576108716145de565b60200260200101819052505b5050505050915091565b60008089808203610983577f000000000000000000000000799d42391ed21894b105590300eed66255d722256001600160a01b031663293c49996040518163ffffffff1660e01b8152600401602060405180830381865afa1580156108f0573d6000803e3d6000fd5b505050506040513d601f19601f82011682018060405250810190610914919061429a565b6001600160a01b03166306661abd6040518163ffffffff1660e01b8152600401602060405180830381865afa158015610951573d6000803e3d6000fd5b505050506040513d601f19601f8201168201806040525081019061097591906145f4565b6109809060016145cb565b9a505b845160006109928260016145cb565b67ffffffffffffffff8111156109aa576109aa612dcf565b6040519080825280602002602001820160405280156109f757816020015b604080516060808201835260008083526020830152918101919091528152602001906001900390816109c85790505b50905060005b82811015610a4457878181518110610a1757610a176145de565b6020026020010151828281518110610a3157610a316145de565b60209081029190910101526001016109fd565b507f000000000000000000000000d3838b2875a06e61befc3679ee2c8d88d61067dc6001600160a01b0316632230819f8e8a600001516040518363ffffffff1660e01b8152600401610a9792919061472d565b6020604051808303816000875af1158015610ab6573d6000803e3d6000fd5b505050506040513d601f19601f82011682018060405250810190610ada919061429a565b9350876020015115610b095760008d815260036020908152604082208054600181018255908352912060159101555b876040015115610b365760008d815260036020908152604082208054600181018255908352912060169101555b876060015115610b635760008d815260036020908152604082208054600181018255908352912060179101555b6040518060600160405280856001600160a01b031681526020016000815260200160405180602001604052806000815250815250818381518110610ba957610ba96145de565b6020026020010181905250610bc3838d8d8d8d868c6113c1565b508c94505050509850989650505050505050565b600080610bea8b8b8b8b8b8b8b8b610887565b909b509050610bfa8b828561215c565b7f000000000000000000000000799d42391ed21894b105590300eed66255d722256001600160a01b031663f434c9146040518163ffffffff1660e01b8152600401602060405180830381865afa158015610c58573d6000803e3d6000fd5b505050506040513d601f19601f82011682018060405250810190610c7c919061429a565b6001600160a01b03166305d2912e306040518060600160405280600560009054906101000a90046001600160a01b03166001600160a01b031681526020018f81526020016006805480602002602001604051908101604052809291908181526020018280548015610d0c57602002820191906000526020600020905b815481526020019060010190808311610cf8575b50505050508152506040518363ffffffff1660e01b8152600401610d319291906148a1565b600060405180830381600087803b158015610d4b57600080fd5b505af1158015610d5f573d6000803e3d6000fd5b505050508a9150995099975050505050505050565b606060046000838152602001908152602001600020805480602002602001604051908101604052809291908181526020016000905b82821015610e8d576000848152602090819020604080516060810182526003860290920180546001600160a01b0316835260018101549383019390935260028301805492939291840191610dfc9061457b565b80601f0160208091040260200160405190810160405280929190818152602001828054610e289061457b565b8015610e755780601f10610e4a57610100808354040283529160200191610e75565b820191906000526020600020905b815481529060010190602001808311610e5857829003601f168201915b50505050508152505081526020019060010190610da9565b505050509050919050565b6000828152602081905260408120546001600160a01b0390811690831603610ec2575060016104a2565b6040517f3d12cb87000000000000000000000000000000000000000000000000000000008152600481018490526000907f0000000000000000000000003f209ab51b59bc6c2c9c2f2147d3d51e29a862d76001600160a01b031690633d12cb8790602401600060405180830381865afa158015610f43573d6000803e3d6000fd5b505050506040513d6000823e601f3d908101601f19168201604052610f6b91908101906148e4565b805190915060005b81811015610fc157828181518110610f8d57610f8d6145de565b60200260200101516001600160a01b0316856001600160a01b031603610fb957600193505050506104a2565b600101610f73565b50600095945050505050565b6000808060606001600160a01b037f0000000000000000000000003f209ab51b59bc6c2c9c2f2147d3d51e29a862d7166383db9d01604087018035906110169060208a01614005565b6040516001600160e01b031960e085901b16815260048101929092526001600160a01b03166024820152604401602060405180830381865afa158015611060573d6000803e3d6000fd5b505050506040513d601f19601f82011682018060405250810190611084919061497e565b156110a15761271085608001358660a00135935093509350611103565b6040808601356000908152600160205220544210156110ec576040517f04c3b3cd00000000000000000000000000000000000000000000000000000000815260040160405180910390fd5b84610160013585608001358660a001359350935093505b9193509193565b7f000000000000000000000000799d42391ed21894b105590300eed66255d722256001600160a01b0316631f47ce696040518163ffffffff1660e01b8152600401602060405180830381865afa158015611168573d6000803e3d6000fd5b505050506040513d601f19601f8201168201806040525081019061118c919061429a565b6001600160a01b031663f434c9146040518163ffffffff1660e01b8152600401602060405180830381865afa1580156111c9573d6000803e3d6000fd5b505050506040513d601f19601f820116820180604052508101906111ed919061429a565b6001600160a01b0316630f5932f0611203612345565b308661120e88612354565b6040518563ffffffff1660e01b815260040161122d949392919061499b565b602060405180830381865afa15801561124a573d6000803e3d6000fd5b505050506040513d601f19601f8201168201806040525081019061126e919061497e565b61128b576040516331fb21f360e01b815260040160405180910390fd5b6000611295612345565b8383602001516040516020016112ad939291906149cd565b60408051601f1981840301815290829052805160209091012083517f2f3f50e00000000000000000000000000000000000000000000000000000000083529092506001600160a01b037f0000000000000000000000003f209ab51b59bc6c2c9c2f2147d3d51e29a862d71691632f3f50e09161132f9188918691600401614ad7565b6000604051808303816000875af115801561134e573d6000803e3d6000fd5b505050506040513d6000823e601f3d908101601f1916820160405261137691908101906148e4565b5080847f755ecfca2f6e66af8868551556bf7931740a7062db8e0882f4c322fdb0bb3f6085856113a4612345565b6040516113b393929190614b1f565b60405180910390a350505050565b60006113d688888888308761ffff168a61198b565b835190985060005b818110156114825760008a81526004602052604090208551869083908110611408576114086145de565b6020908102919091018101518254600180820185556000948552938390208251600390920201805473ffffffffffffffffffffffffffffffffffffffff19166001600160a01b039092169190911781559181015192820192909255604082015160028201906114779082614bab565b5050506001016113de565b50887fdfaf2737f25eace49d372b472ec03f1df0f9814dfc69d2b95c5e92a041f42e29856114ae612345565b6040516114bc929190614c6b565b60405180910390a25096979650505050505050565b60006114dc83612354565b90507f000000000000000000000000799d42391ed21894b105590300eed66255d722256001600160a01b0316631f47ce696040518163ffffffff1660e01b8152600401602060405180830381865afa15801561153c573d6000803e3d6000fd5b505050506040513d601f19601f82011682018060405250810190611560919061429a565b6001600160a01b031663f434c9146040518163ffffffff1660e01b8152600401602060405180830381865afa15801561159d573d6000803e3d6000fd5b505050506040513d601f19601f820116820180604052508101906115c1919061429a565b6001600160a01b0316630f5932f06115d7612345565b3086856040518563ffffffff1660e01b81526004016115f9949392919061499b565b602060405180830381865afa158015611616573d6000803e3d6000fd5b505050506040513d601f19601f8201168201806040525081019061163a919061497e565b611657576040516331fb21f360e01b815260040160405180910390fd5b7f000000000000000000000000799d42391ed21894b105590300eed66255d722256001600160a01b0316631f47ce696040518163ffffffff1660e01b8152600401602060405180830381865afa1580156116b5573d6000803e3d6000fd5b505050506040513d601f19601f820116820180604052508101906116d9919061429a565b6001600160a01b031663f434c9146040518163ffffffff1660e01b8152600401602060405180830381865afa158015611716573d6000803e3d6000fd5b505050506040513d601f19601f8201168201806040525081019061173a919061429a565b6001600160a01b03166305d2912e30604051806060016040528061175c612345565b6001600160a01b0316815260208082018990526040805160008152918201815291820152516001600160e01b031960e085901b1681526117a09291906004016148a1565b600060405180830381600087803b1580156117ba57600080fd5b505af11580156117ce573d6000803e3d6000fd5b505050507f000000000000000000000000799d42391ed21894b105590300eed66255d722256001600160a01b0316631f47ce696040518163ffffffff1660e01b8152600401602060405180830381865afa158015611830573d6000803e3d6000fd5b505050506040513d601f19601f82011682018060405250810190611854919061429a565b6001600160a01b031663f434c9146040518163ffffffff1660e01b8152600401602060405180830381865afa158015611891573d6000803e3d6000fd5b505050506040513d601f19601f820116820180604052508101906118b5919061429a565b6001600160a01b03166305d2912e306040518060600160405280866001600160a01b03168152602001878152602001858152506040518363ffffffff1660e01b81526004016119059291906148a1565b600060405180830381600087803b15801561191f57600080fd5b505af1158015611933573d6000803e3d6000fd5b50505050816001600160a01b0316837f0329d6a81434b130c72eb65eea0e32e429dc1277b4aad86ec86454aefb61845161196b612345565b6040516001600160a01b03909116815260200160405180910390a3505050565b60008060008061199c8a888861250c565b9250925092508a600003611a77577f000000000000000000000000799d42391ed21894b105590300eed66255d722256001600160a01b0316630634bae9308c6000015160400151868d8f60000151602001516040516020016119fe9190614c96565b6040516020818303038152906040526040518663ffffffff1660e01b8152600401611a2d9594939291906150cd565b6020604051808303816000875af1158015611a4c573d6000803e3d6000fd5b505050506040513d601f19601f82011682018060405250810190611a7091906145f4565b9a50611b35565b7f000000000000000000000000799d42391ed21894b105590300eed66255d722256001600160a01b0316631ea7bc8c8c858c8e6000015160200151604051602001611ac29190614c96565b6040516020818303038152906040526040518563ffffffff1660e01b8152600401611af09493929190615135565b6020604051808303816000875af1158015611b0f573d6000803e3d6000fd5b505050506040513d601f19601f82011682018060405250810190611b3391906145f4565b505b8080611b455750468a6060015114155b15611b6757611b576276a700426145cb565b60008c8152600160205260409020555b7f000000000000000000000000799d42391ed21894b105590300eed66255d722256001600160a01b031663581781918c8c60000151600001518d60000151602001518e60000151606001516040518563ffffffff1660e01b8152600401611bd19493929190615174565b6020604051808303816000875af1158015611bf0573d6000803e3d6000fd5b505050506040513d601f19601f82011682018060405250810190611c14919061429a565b5087516001600160a01b031615611c2f57611c2f8b896128cd565b7f000000000000000000000000799d42391ed21894b105590300eed66255d722256001600160a01b031663dd5f214a8c6000611c6e8e60800151612a2d565b6040518463ffffffff1660e01b8152600401611c8c939291906151b1565b600060405180830381600087803b158015611ca657600080fd5b505af1158015611cba573d6000803e3d6000fd5b50505050600060405180606001604052808c608001516001600160a01b031681526020018d8152602001611ced8e612354565b81525090507f000000000000000000000000799d42391ed21894b105590300eed66255d722256001600160a01b031663f434c9146040518163ffffffff1660e01b8152600401602060405180830381865afa158015611d50573d6000803e3d6000fd5b505050506040513d601f19601f82011682018060405250810190611d74919061429a565b6001600160a01b03166305d2912e30836040518363ffffffff1660e01b8152600401611da19291906148a1565b600060405180830381600087803b158015611dbb57600080fd5b505af1158015611dcf573d6000803e3d6000fd5b5050505060008b60400151118015611dea5750468b60600151145b15611eb8577f000000000000000000000000799d42391ed21894b105590300eed66255d722256001600160a01b031663c7fb92de8d8d604001518e608001518f6000015160200151604051602001611e4291906151d0565b60405160208183030381529060405260006040518663ffffffff1660e01b8152600401611e73959493929190615220565b6020604051808303816000875af1158015611e92573d6000803e3d6000fd5b505050506040513d601f19601f82011682018060405250810190611eb691906145f4565b505b60408051600180825281830190925260009160208083019080368337019050509050601c81600081518110611eef57611eef6145de565b60200260200101818152505060405180606001604052807f0000000000000000000000003f209ab51b59bc6c2c9c2f2147d3d51e29a862d76001600160a01b031681526020018e81526020018281525091507f000000000000000000000000799d42391ed21894b105590300eed66255d722256001600160a01b031663f434c9146040518163ffffffff1660e01b8152600401602060405180830381865afa158015611f9f573d6000803e3d6000fd5b505050506040513d601f19601f82011682018060405250810190611fc3919061429a565b6001600160a01b03166305d2912e30846040518363ffffffff1660e01b8152600401611ff09291906148a1565b600060405180830381600087803b15801561200a57600080fd5b505af115801561201e573d6000803e3d6000fd5b505050506020870151156120fe577f0000000000000000000000003f209ab51b59bc6c2c9c2f2147d3d51e29a862d76001600160a01b0316632f3f50e08e612064612345565b878b6020015160405160200161207c939291906149cd565b60408051601f198184030181529082905280516020909101208b516001600160e01b031960e086901b1683526120b59392600401614ad7565b6000604051808303816000875af11580156120d4573d6000803e3d6000fd5b505050506040513d6000823e601f3d908101601f191682016040526120fc91908101906148e4565b505b8c7f4b827371715024f69a0bc98c8df6edafe6e471e78488ab1b3849de72f66b12e08d8d8d8b8a8a8a61212f612345565b604051612143989796959493929190615383565b60405180910390a2509a9b9a5050505050505050505050565b805160008167ffffffffffffffff81111561217957612179612dcf565b6040519080825280602002602001820160405280156121ec57816020015b6121d96040518060c0016040528060006001600160a01b0316815260200160008152602001600081526020016000815260200160008152602001606081525090565b8152602001906001900390816121975790505b5090506122216040518060a0016040528060008152602001600081526020016000815260200160008152602001606081525090565b60005b838110156122b75784818151811061223e5761223e6145de565b602002602001015191506040518060c00160405280876001600160a01b031681526020018360000151815260200183602001518152602001836040015181526020018360600151815260200183608001518152508382815181106122a4576122a46145de565b6020908102919091010152600101612224565b5083511561233d576005546040517fab54877a0000000000000000000000000000000000000000000000000000000081526001600160a01b039091169063ab54877a9061230a90899086906004016154ec565b600060405180830381600087803b15801561232457600080fd5b505af1158015612338573d6000803e3d6000fd5b505050505b505050505050565b600061234f612b6b565b905090565b6060600060028054806020026020016040519081016040528092919081815260200182805480156123a457602002820191906000526020600020905b815481526020019060010190808311612390575b5050835160008881526003602090815260408083208054825181850281018501909352808352989950939792965094509192509083018282801561240757602002820191906000526020600020905b8154815260200190600101908083116123f3575b5050835193945061241e92508391508590506145cb565b67ffffffffffffffff81111561243657612436612dcf565b60405190808252806020026020018201604052801561245f578160200160208202803683370190505b50945060005b838110156124ac5784818151811061247f5761247f6145de565b6020026020010151868281518110612499576124996145de565b6020908102919091010152600101612465565b5060005b81811015612502578281815181106124ca576124ca6145de565b60200260200101518682866124df91906145cb565b815181106124ef576124ef6145de565b60209081029190910101526001016124b0565b5050505050919050565b6060806000808660a001515190508067ffffffffffffffff81111561253357612533612dcf565b60405190808252806020026020018201604052801561262557816020015b6126126040805161010080820183526000808352602080840182905283850182905260608085018390526080808601849052865161020081018852848152928301849052958201839052810182905293840181905260a084810182905260c0850182905260e0850182905291840181905261012084018190526101408401819052610160840181905261018084018190526101a084018190526101c084018190526101e0840152909190820190815260200160608152602001606081525090565b8152602001906001900390816125515790505b50935061263187612be0565b6040805160c081018252600080825260208201819052918101829052606081018290526080810182905260a081018290529194505b828110156128c1578860a001518181518110612684576126846145de565b60200260200101519150816000015164ffffffffff168682815181106126ac576126ac6145de565b60200260200101516000018181525050816060015164ffffffffff168682815181106126da576126da6145de565b6020026020010151602001818152505081604001516dffffffffffffffffffffffffffff16868281518110612711576127116145de565b60200260200101516040018181525050816080015163ffffffff1686828151811061273e5761273e6145de565b602002602001015160600181815250506000868281518110612762576127626145de565b6020026020010151608001906001600160a01b031690816001600160a01b031681525050604051806102000160405280836020015161ffff1681526020018360a0015161ffff166127106127b6919061559e565b815260208b81015163ffffffff16908201526000604082018190526060820181905260016080830181905260a0830182905260c0830182905260e083018290526101008301829052610120830182905261014083018290526101608301526101808201526001600160a01b038a166101a08201526101c0018890528651879083908110612845576128456145de565b602002602001015160a0018190525080600014801561286b5750815164ffffffffff1615155b8015612881575042826000015164ffffffffff16105b1561288b57600193505b846128968383612c21565b6040516020016128a79291906155b1565b60408051601f198184030181529190529450600101612666565b50505093509350939050565b602081810151516040805160808101825260008082529381018490529081018390526060810183905290915b828110156129ec5783602001518181518110612917576129176145de565b6020908102919091018101518551918101516040808301516060840151845192517f7b621d3a000000000000000000000000000000000000000000000000000000008152600481018c905262ffffff909416602485015263ffffffff91821660448501521660648301526001600160a01b039081166084830152919450911690637b621d3a9060a4016020604051808303816000875af11580156129bf573d6000803e3d6000fd5b505050506040513d601f19601f820116820180604052508101906129e3919061429a565b506001016128f9565b50509051600092835260208390526040909220805473ffffffffffffffffffffffffffffffffffffffff19166001600160a01b039093169290921790915550565b604080516001808252818301909252606091816020015b604080518082019091526000815260606020820152815260200190600190039081612a4457505060408051600180825281830190925291925060009190602082015b6040805160c08101825260008082526020808301829052928201819052606082018190526080820181905260a08201528252600019909201910181612a865790505090506040518060c00160405280600015158152602001633b9aca00815260200160008152602001846001600160a01b031681526020016000815260200160006001600160a01b031681525081600081518110612b2657612b266145de565b60200260200101819052506040518060400160405280600181526020018281525082600081518110612b5a57612b5a6145de565b602002602001018190525050919050565b6000366014336001600160a01b037f000000000000000000000000b2b5841dbef766d4b521221732f9b618fcf34a8716148015612ba85750808210155b15612bd857600036612bba838561559e565b612bc59282906155e0565b612bce9161560a565b60601c9250505090565b339250505090565b6020808201516060838101518451805181860151918401516040519496612c0b96959293920161563f565b6040516020818303038152906040529050919050565b606081158015612c375750825164ffffffffff16155b612c4957825164ffffffffff16612c4b565b425b83602001518460400151856060015186608001518760a00151604051602001612cc09695949392919095865261ffff94851660208701526dffffffffffffffffffffffffffff93909316604086015264ffffffffff91909116606085015263ffffffff1660808401521660a082015260c00190565b604051602081830303815290604052905092915050565b600060208284031215612ce957600080fd5b81356001600160e01b031981168114612d0157600080fd5b9392505050565b6001600160a01b0381168114612d1d57600080fd5b50565b8035612d2b81612d08565b919050565b600080600080600060808688031215612d4857600080fd5b8535612d5381612d08565b94506020860135612d6381612d08565b935060408601359250606086013567ffffffffffffffff80821115612d8757600080fd5b818801915088601f830112612d9b57600080fd5b813581811115612daa57600080fd5b896020828501011115612dbc57600080fd5b9699959850939650602001949392505050565b634e487b7160e01b600052604160045260246000fd5b6040516080810167ffffffffffffffff81118282101715612e0857612e08612dcf565b60405290565b60405160c0810167ffffffffffffffff81118282101715612e0857612e08612dcf565b6040805190810167ffffffffffffffff81118282101715612e0857612e08612dcf565b604051610180810167ffffffffffffffff81118282101715612e0857612e08612dcf565b604051610120810167ffffffffffffffff81118282101715612e0857612e08612dcf565b6040516060810167ffffffffffffffff81118282101715612e0857612e08612dcf565b60405160a0810167ffffffffffffffff81118282101715612e0857612e08612dcf565b604051601f8201601f1916810167ffffffffffffffff81118282101715612f0b57612f0b612dcf565b604052919050565b600067ffffffffffffffff821115612f2d57612f2d612dcf565b50601f01601f191660200190565b600082601f830112612f4c57600080fd5b8135612f5f612f5a82612f13565b612ee2565b818152846020838601011115612f7457600080fd5b816020850160208301376000918101602001919091529392505050565b600060808284031215612fa357600080fd5b612fab612de5565b9050813567ffffffffffffffff80821115612fc557600080fd5b612fd185838601612f3b565b83526020840135915080821115612fe757600080fd5b612ff385838601612f3b565b6020840152604084013591508082111561300c57600080fd5b5061301984828501612f3b565b6040830152506060820135606082015292915050565b803563ffffffff81168114612d2b57600080fd5b600067ffffffffffffffff82111561305d5761305d612dcf565b5060051b60200190565b803564ffffffffff81168114612d2b57600080fd5b803561ffff81168114612d2b57600080fd5b600082601f83011261309f57600080fd5b813560206130af612f5a83613043565b82815260c092830285018201928282019190878511156130ce57600080fd5b8387015b858110156131735781818a0312156130ea5760008081fd5b6130f2612e0e565b6130fb82613067565b815261310886830161307c565b868201526040808301356dffffffffffffffffffffffffffff8116811461312f5760008081fd5b908201526060613140838201613067565b90820152608061315183820161302f565b9082015260a061316283820161307c565b9082015284529284019281016130d2565b5090979650505050505050565b600060c0828403121561319257600080fd5b61319a612e0e565b9050813567ffffffffffffffff808211156131b457600080fd5b6131c085838601612f91565b83526131ce6020850161302f565b602084015260408401356040840152606084013560608401526131f360808501612d20565b608084015260a084013591508082111561320c57600080fd5b506132198482850161308e565b60a08301525092915050565b600082601f83011261323657600080fd5b81356020613246612f5a83613043565b8083825260208201915060208460051b87010193508684111561326857600080fd5b602086015b8481101561328d57803561328081612d08565b835291830191830161326d565b509695505050505050565b600082601f8301126132a957600080fd5b813560206132b9612f5a83613043565b82815260059290921b840181019181810190868411156132d857600080fd5b8286015b8481101561328d57803567ffffffffffffffff808211156132fd5760008081fd5b908801906040828b03601f19018113156133175760008081fd5b61331f612e31565b8784013561332c81612d08565b81529083013590828211156133415760008081fd5b61334f8c8984870101613225565b8189015286525050509183019183016132dc565b803562ffffff81168114612d2b57600080fd5b6000604080838503121561338957600080fd5b613391612e31565b9150823561339e81612d08565b825260208381013567ffffffffffffffff8111156133bb57600080fd5b8401601f810186136133cc57600080fd5b80356133da612f5a82613043565b81815260079190911b820183019083810190888311156133f957600080fd5b928401925b8284101561346d576080848a0312156134175760008081fd5b61341f612de5565b843561342a81612d08565b8152613437858701613363565b8682015261344687860161302f565b87820152606061345781870161302f565b90820152825260809390930192908401906133fe565b808588015250505050505092915050565b60006040828403121561349057600080fd5b613498612e31565b905067ffffffffffffffff80833511156134b157600080fd5b8235830184601f8201126134c457600080fd5b6134d1612f5a8235613043565b81358082526020808301929160051b840101878111156134f057600080fd5b602084015b8181101561363557858135111561350b57600080fd5b803585016040818b03601f1901121561352357600080fd5b61352b612e31565b6135386020830135612d08565b60208201358152876040830135111561355057600080fd5b6040820135820191508a603f83011261356857600080fd5b6020820135613579612f5a82613043565b81815260079190911b83016040019060208101908d83111561359a57600080fd5b6040850194505b82851015613616576080858f0312156135b957600080fd5b6135c1612de5565b6135cb8635612d08565b853581526135db6020870161302f565b60208201526135ed6040870135612d08565b6040860135604082015260608601356060820152808352506020820191506080850194506135a1565b80602085015250505080865250506020840193506020810190506134f5565b5050808552505050506020820135602082015292915050565b600080600080600060a0868803121561366657600080fd5b85359450602086013567ffffffffffffffff8082111561368557600080fd5b61369189838a01613180565b955060408801359150808211156136a757600080fd5b6136b389838a01613298565b945060608801359150808211156136c957600080fd5b6136d589838a01613376565b935060808801359150808211156136eb57600080fd5b506136f88882890161347e565b9150509295509295909350565b60006020828403121561371757600080fd5b5035919050565b60006020828403121561373057600080fd5b813567ffffffffffffffff81111561374757600080fd5b82016101808185031215612d0157600080fd5b60005b8381101561377557818101518382015260200161375d565b50506000910152565b6000815180845261379681602086016020860161375a565b601f01601f19169290920160200192915050565b600082825180855260208086019550808260051b84010181860160005b8481101561317357858303601f19018952815180516001600160a01b03168452848101518585015260409081015160609185018290529061380a8186018361377e565b9a86019a94505050908301906001016137c7565b82815260406020820152600061383760408301846137aa565b949350505050565b80356cffffffffffffffffffffffffff81168114612d2b57600080fd5b8015158114612d1d57600080fd5b8035612d2b8161385c565b803560ff81168114612d2b57600080fd5b6000608080838503121561389957600080fd5b6138a1612de5565b9150823567ffffffffffffffff8111156138ba57600080fd5b8301601f810185136138cb57600080fd5b803560206138db612f5a83613043565b82815261018092830284018201928282019190898511156138fb57600080fd5b948301945b848610156139ee5780868b0312156139185760008081fd5b613920612e54565b6139298761383f565b815261393685880161302f565b85820152604061394781890161302f565b90820152606061395888820161307c565b90820152613967878901612d20565b8189015260a0878101359082015260c0613982818901613363565b9082015260e061399388820161386a565b908201526101006139a588820161386a565b908201526101206139b788820161386a565b908201526101406139c988820161386a565b908201526101606139db88820161386a565b9082015283529485019491830191613900565b508652506139fd86820161302f565b8186015250505050613a1160408301613875565b6040820152613a2260608301612d20565b606082015292915050565b600060808284031215613a3f57600080fd5b613a47612de5565b90508135613a548161385c565b81526020820135613a648161385c565b60208201526040820135613a778161385c565b60408201526060820135613a228161385c565b600060808284031215613a9c57600080fd5b613aa4612de5565b9050813567ffffffffffffffff80821115613abe57600080fd5b908301906101808286031215613ad357600080fd5b613adb612e78565b823582811115613aea57600080fd5b613af687828601612f3b565b825250602083013582811115613b0b57600080fd5b613b1787828601612f3b565b602083015250613b2960408401612d20565b6040820152606083013582811115613b4057600080fd5b613b4c87828601612f3b565b606083015250613b5e60808401612d20565b608082015260a083013582811115613b7557600080fd5b613b8187828601612f3b565b60a08301525060c083013582811115613b9957600080fd5b613ba587828601613886565b60c083015250613bb760e08401612d20565b60e08201526101009150613bcd86838501613a2d565b82820152808452505050613be36020830161386a565b6020820152613bf46040830161386a565b6040820152613a226060830161386a565b600082601f830112613c1657600080fd5b81356020613c26612f5a83613043565b82815260059290921b84018101918181019086841115613c4557600080fd5b8286015b8481101561328d57803567ffffffffffffffff80821115613c6a5760008081fd5b908801906060828b03601f1901811315613c845760008081fd5b613c8c612e9c565b87840135613c9981612d08565b815260408481013589830152918401359183831115613cb85760008081fd5b613cc68d8a85880101612f3b565b908201528652505050918301918301613c49565b600080600080600080600080610100898b031215613cf757600080fd5b88359750602089013567ffffffffffffffff80821115613d1657600080fd5b613d228c838d01613180565b985060408b0135915080821115613d3857600080fd5b613d448c838d01613298565b975060608b0135915080821115613d5a57600080fd5b613d668c838d01613376565b965060808b0135915080821115613d7c57600080fd5b613d888c838d0161347e565b955060a08b0135915080821115613d9e57600080fd5b613daa8c838d01613a8a565b945060c08b0135915080821115613dc057600080fd5b50613dcd8b828c01613c05565b925050613ddc60e08a0161307c565b90509295985092959890939650565b600082601f830112613dfc57600080fd5b81356020613e0c612f5a83613043565b82815260059290921b84018101918181019086841115613e2b57600080fd5b8286015b8481101561328d57803567ffffffffffffffff80821115613e505760008081fd5b9088019060a0828b03601f1901811315613e6a5760008081fd5b613e72612ebf565b87840135815260408085013589830152606080860135828401526080915081860135818401525082850135925083831115613ead5760008081fd5b613ebb8d8a85880101613225565b908201528652505050918301918301613e2f565b60008060008060008060008060006101208a8c031215613eee57600080fd5b8935985060208a013567ffffffffffffffff80821115613f0d57600080fd5b613f198d838e01613180565b995060408c0135915080821115613f2f57600080fd5b613f3b8d838e01613298565b985060608c0135915080821115613f5157600080fd5b613f5d8d838e01613376565b975060808c0135915080821115613f7357600080fd5b613f7f8d838e0161347e565b965060a08c0135915080821115613f9557600080fd5b613fa18d838e01613a8a565b955060c08c0135915080821115613fb757600080fd5b613fc38d838e01613c05565b9450613fd160e08d0161307c565b93506101008c0135915080821115613fe857600080fd5b50613ff58c828d01613deb565b9150509295985092959850929598565b60006020828403121561401757600080fd5b8135612d0181612d08565b602081526000612d0160208301846137aa565b6000806040838503121561404857600080fd5b82359150602083013561405a81612d08565b809150509250929050565b60006020828403121561407757600080fd5b813567ffffffffffffffff81111561408e57600080fd5b82016101a08185031215612d0157600080fd5b60006080820186835260208681850152604086604086015260606080606087015283875180865260a08801915060a08160051b890101955084890160005b8281101561412f57898803609f19018452815180516001600160a01b0316895287810151888a015286015186890186905261411c868a018261377e565b98505092860192908601906001016140df565b50959c9b505050505050505050505050565b60008060006060848603121561415657600080fd5b83359250602084013567ffffffffffffffff8082111561417557600080fd5b61418187838801612f3b565b9350604086013591508082111561419757600080fd5b506141a48682870161347e565b9150509250925092565b600080600080600080600060e0888a0312156141c957600080fd5b87359650602088013567ffffffffffffffff808211156141e857600080fd5b6141f48b838c01613180565b975060408a013591508082111561420a57600080fd5b6142168b838c01613298565b965060608a013591508082111561422c57600080fd5b6142388b838c01613376565b955060808a013591508082111561424e57600080fd5b61425a8b838c0161347e565b945060a08a013591508082111561427057600080fd5b5061427d8a828b01613c05565b92505061428c60c0890161307c565b905092959891949750929550565b6000602082840312156142ac57600080fd5b8151612d0181612d08565b80356142c281612d08565b6001600160a01b031682526020818101359083015260408082013590830152606090810135910152565b6000808335601e1984360301811261430357600080fd5b830160208101925035905067ffffffffffffffff81111561432357600080fd5b80360382131561433257600080fd5b9250929050565b81835281816020850137506000828201602090810191909152601f909101601f19169091010190565b602081526143836020820161437684612d20565b6001600160a01b03169052565b600061439160208401612d20565b6001600160a01b0381166040840152506143b160608301604085016142b7565b60c083013560e083015261010060e0840135818401526143d2818501612d20565b90506101206143eb818501836001600160a01b03169052565b61014091508085013582850152506101608185013581850152614410818601866142ec565b610180868101529250905061442a6101a085018383614339565b95945050505050565b600080604080848603121561444757600080fd5b8351925060208085015167ffffffffffffffff8082111561446757600080fd5b818701915087601f83011261447b57600080fd5b8151614489612f5a82613043565b81815260059190911b8301840190848101908a8311156144a857600080fd5b8585015b83811015614569578051858111156144c357600080fd5b86016060818e03601f190112156144da5760008081fd5b6144e2612e9c565b888201516144ef81612d08565b8152818a01518982015260608201518781111561450c5760008081fd5b8083019250508d603f8301126145225760008081fd5b88820151614532612f5a82612f13565b8181528f8c8386010111156145475760008081fd5b614556828c83018e870161375a565b828c0152508452509186019186016144ac565b50809750505050505050509250929050565b600181811c9082168061458f57607f821691505b6020821081036145af57634e487b7160e01b600052602260045260246000fd5b50919050565b634e487b7160e01b600052601160045260246000fd5b808201808211156104a2576104a26145b5565b634e487b7160e01b600052603260045260246000fd5b60006020828403121561460657600080fd5b5051919050565b80516080808452815184820181905260009260a0916020918201918388019190865b828110156146f257845180516cffffffffffffffffffffffffff1685528281015163ffffffff908116848701526040808301519091169086015260608082015161ffff1690860152878101516001600160a01b031688860152868101518786015260c08082015162ffffff169086015260e08082015115159086015261010080820151151590860152610120808201511515908601526101408082015115159086015261016090810151151590850152938101936101809093019260010161462f565b508781015163ffffffff16908901525060408087015160ff16908801526060808701516001600160a01b038116918901919091529350610586565b828152604060208201526000825161018060408401526147516101c084018261377e565b90506020840151603f198085840301606086015261476f838361377e565b92506040860151915061478d60808601836001600160a01b03169052565b60608601519150808584030160a08601526147a8838361377e565b9250608086015191506147c660c08601836001600160a01b03169052565b60a08601519150808584030160e08601526147e1838361377e565b925060c08601519150610100818685030181870152614800848461460d565b935060e0870151925061481f6101208701846001600160a01b03169052565b860151805115156101408701526020810151151561016087015260408101511515610180870152606081015115156101a0870152915061485c9050565b50949350505050565b60008151808452602080850194506020840160005b838110156148965781518752958201959082019060010161487a565b509495945050505050565b60006001600160a01b03808516835260406020840152808451166040840152506020830151606083015260408301516060608084015261442a60a0840182614865565b600060208083850312156148f757600080fd5b825167ffffffffffffffff81111561490e57600080fd5b8301601f8101851361491f57600080fd5b805161492d612f5a82613043565b81815260059190911b8201830190838101908783111561494c57600080fd5b928401925b8284101561497357835161496481612d08565b82529284019290840190614951565b979650505050505050565b60006020828403121561499057600080fd5b8151612d018161385c565b60006001600160a01b038087168352808616602084015250836040830152608060608301526105866080830184614865565b6bffffffffffffffffffffffff198460601b168152600083516149f781601485016020880161375a565b60149201918201929092526034019392505050565b600082825180855260208086019550808260051b8401018186016000805b85811015614ac957868403601f19018a52825180516001600160a01b03908116865290860151604087870181905281518188018190529188019290916060919082890190875b81811015614ab15786518051851684528c81015163ffffffff168d8501528681015185168785015285015185840152958b0195608090920191600101614a70565b50509d89019d97505050938601935050600101614a2a565b509198975050505050505050565b83815282602082015260606040820152600061442a6060830184614a0c565b6000815160408452614b0b6040850182614a0c565b602093840151949093019390935250919050565b606081526000614b32606083018661377e565b8281036020840152614b448186614af6565b9150506001600160a01b0383166040830152949350505050565b601f821115614ba6576000816000526020600020601f850160051c81016020861015614b875750805b601f850160051c820191505b8181101561233d57828155600101614b93565b505050565b815167ffffffffffffffff811115614bc557614bc5612dcf565b614bd981614bd3845461457b565b84614b5e565b602080601f831160018114614c0e5760008415614bf65750858301515b600019600386901b1c1916600185901b17855561233d565b600085815260208120601f198616915b82811015614c3d57888601518255948401946001909101908401614c1e565b5085821015614c5b5787850151600019600388901b60f8161c191681555b5050505050600190811b01905550565b604081526000614c7e60408301856137aa565b90506001600160a01b03831660208301529392505050565b600960fa1b815260008251614cb281600185016020870161375a565b7f207265766e6574206465706c6f796564000000000000000000000000000000006001939091019283015250601101919050565b8051825260208101516020830152604081015160408301526060810151614d11606084018215159052565b506080810151614d25608084018215159052565b5060a0810151614d3960a084018215159052565b5060c0810151614d4d60c084018215159052565b5060e0810151614d6160e084018215159052565b5061010081810151151590830152610120808201511515908301526101408082015115159083015261016080820151151590830152610180808201511515908301526101a0808201511515908301526101c0808201516001600160a01b0316908301526101e090810151910152565b600082825180855260208086019550808260051b8401018186016000805b85811015614ac957868403601f19018a52825180518552850151604086860181905281518187018190529187019160609081880190865b81811015614e7f5785518051151584528b8101518c8501528581015186850152848101516001600160a01b03908116868601526080808301519086015260a0918201511690840152948a019460c090920191600101614e25565b50509c88019c965050509285019250600101614dee565b60008151808452602080850194506020840160005b83811015614896578151805188528301518388015260409096019590820190600101614eab565b600082825180855260208086019550808260051b84010181860160005b8481101561317357601f19868403018952815160806001600160a01b0380835116865280878401511687870152506040808301518282880152614f3483880182614e96565b9250505060608083015192508582038187015250614f528183614e96565b9a86019a9450505090830190600101614eef565b600082825180855260208086019550808260051b84010181860160005b8481101561317357858303601f19018952815180518452848101518585015260408082015190850152606080820151908501526080808201516001600160a01b03169085015260a0808201516102e09190614fe082880182614ce6565b505060c0820151816102a0870152614ffa82870182614dd0565b91505060e082015191508481036102c08601526150178183614ed2565b9a86019a9450505090830190600101614f83565b60008151808452602080850194506020840160005b838110156148965781516001600160a01b031687529582019590820190600101615040565b600082825180855260208086019550808260051b84010181860160005b8481101561317357858303601f19018952815180516001600160a01b0316845284015160408585018190526150b98186018361502b565b9a86019a9450505090830190600101615082565b6001600160a01b038616815260a0602082015260006150ef60a083018761377e565b82810360408401526151018187614f66565b905082810360608401526151158186615065565b90508281036080840152615129818561377e565b98975050505050505050565b84815260806020820152600061514e6080830186614f66565b82810360408401526151608186615065565b90508281036060840152614973818561377e565b84815260806020820152600061518d608083018661377e565b828103604084015261519f818661377e565b91505082606083015295945050505050565b83815282602082015260606040820152600061442a6060830184614dd0565b600960fa1b8152600082516151ec81600185016020870161375a565b7f207072656d696e746564000000000000000000000000000000000000000000006001939091019283015250600b01919050565b8581528460208201526001600160a01b038416604082015260a06060820152600061524e60a083018561377e565b905082151560808301529695505050505050565b60008151808452602080850194506020840160005b83811015614896578151805164ffffffffff90811689528482015161ffff908116868b01526040808401516dffffffffffffffffffffffffffff16908b0152606080840151909216918a019190915260808083015163ffffffff16908a015260a091820151169088015260c09096019590820190600101615277565b600060408084016001600160a01b038085511686526020808601516040828901528381518086526060955060608a019150838301925060005b818110156153745783518051871684528581015162ffffff16868501528881015163ffffffff9081168a8601529088015116878401529284019260809092019160010161532c565b50909998505050505050505050565b60006101008083528a5160c0828501528051915060806101c08501526153ad61024085018361377e565b915060208101516101bf1980868503016101e08701526153cd848361377e565b9350604083015191508086850301610200870152506153ec838261377e565b92505060608101516102208501525060208b015161541361012085018263ffffffff169052565b5060408b015161014084015260608b015161016084015260808b01516001600160a01b031661018084015260a08b015183820360ff19016101a085015261545a8282615262565b915050828103602084015261546f818b615065565b90508281036040840152615483818a6152f3565b905082810360608401526154978189614af6565b905082810360808401526154ab8188614f66565b905082810360a08401526154bf818761377e565b9150506154d060c083018515159052565b6001600160a01b03831660e08301529998505050505050505050565b6000604080830185845260206040818601528186518084526060935060608701915060608160051b88010183890160005b8381101561558e57898303605f19018552815180516001600160a01b031684528681015187850152888101518985015287810151888501526080808201519085015260a09081015160c09185018290529061557a8186018361502b565b96880196945050509085019060010161551d565b50909a9950505050505050505050565b818103818111156104a2576104a26145b5565b600083516155c381846020880161375a565b8351908301906155d781836020880161375a565b01949350505050565b600080858511156155f057600080fd5b838611156155fd57600080fd5b5050820193919092039150565b6bffffffffffffffffffffffff1981358181169160148510156156375780818660140360031b1b83161692505b505092915050565b63ffffffff8616815284602082015260a06040820152600061566460a083018661377e565b8281036060840152615676818661377e565b915050826080830152969550505050505056fea264697066735822122087339da47a0b05b2b9751dea45ef3aff5124cc2822591355779c8aa355b166a564736f6c63430008170033",
	"devdoc": {
		"kind": "dev",
		"methods": {
			"beforePayRecordedWith((address,address,(address,uint256,uint256,uint256),uint256,uint256,address,uint256,uint256,bytes))": {
				"details": "Part of IJBFundingCycleDataSource.This implementation just sets this contract up to receive a `didPay` call.",
				"params": {
					"context": "The Juicebox standard network payment context. See"
				},
				"returns": {
					"hookSpecifications": "Amount to be sent to pay hooks instead of adding to local balance. Useful for auto-routing funds from a treasury as payment come in.",
					"weight": "The weight that network tokens should get minted relative to. This is useful for optionally customizing how many tokens are issued per payment."
				}
			},
			"constructor": {
				"params": {
					"controller": "The controller that revnets are made from.",
					"hookDeployer": "The 721 tiers hook deployer.",
					"publisher": "The croptop publisher that facilitates the permissioned publishing of 721 posts to a revnet.",
					"suckerRegistry": "The registry that deploys and tracks each project's suckers.",
					"trustedForwarder": "The trusted forwarder for the ERC2771Context."
				}
			},
			"deploySuckersFor(uint256,bytes,((address,(address,uint32,address,uint256)[])[],bytes32))": {
				"params": {
					"encodedConfiguration": "A bytes representation of the revnet's configuration.",
					"revnetId": "The ID of the revnet having new suckers deployed.",
					"suckerDeploymentConfiguration": "The specifics about the suckers being deployed."
				}
			},
			"hasMintPermissionFor(uint256,address)": {
				"params": {
					"addr": "The address to check if has permissions.",
					"revnetId": "The ID of the revnet to check permissions for."
				},
				"returns": {
					"_0": "flag The flag indicating if the address has permissions to mint on the revnet's behalf."
				}
			},
			"isTrustedForwarder(address)": {
				"details": "Indicates whether any particular address is the trusted forwarder."
			},
			"launchCroptopRevnetFor(uint256,((string,string,string,bytes32),uint32,uint256,uint256,address,(uint40,uint16,uint112,uint40,uint32,uint16)[]),(address,address[])[],(address,(address,uint24,uint32,uint32)[]),((address,(address,uint32,address,uint256)[])[],bytes32),((string,string,address,string,address,string,((uint104,uint32,uint32,uint16,address,bytes32,uint24,bool,bool,bool,bool,bool)[],uint32,uint8,address),address,(bool,bool,bool,bool)),bool,bool,bool),(address,uint256,bytes)[],uint16,(uint256,uint256,uint256,uint256,address[])[])": {
				"params": {
					"allowedPosts": "The type of posts that the revent should allow.",
					"buybackHookConfiguration": "Data used for setting up the buyback hook to use when determining the best price for new participants.",
					"configuration": "The data needed to deploy a basic revnet.",
					"extraHookMetadata": "Extra metadata to attach to the cycle for the delegates to use.",
					"hookConfiguration": "Data used for setting up the 721 tiers.",
					"otherPayHooksSpecifications": "Any hooks that should run when the revnet is paid alongside the 721 hook.",
					"revnetId": "The ID of the Juicebox project to turn into a revnet. Send 0 to deploy a new revnet.",
					"suckerDeploymentConfiguration": "Information about how this revnet relates to other's across chains.",
					"terminalConfigurations": "The terminals that the network uses to accept payments through."
				},
				"returns": {
					"_0": "revnetId The ID of the newly created revnet.",
					"hook": "The address of the 721 hook that was deployed on the revnet."
				}
			},
			"launchPayHookRevnetFor(uint256,((string,string,string,bytes32),uint32,uint256,uint256,address,(uint40,uint16,uint112,uint40,uint32,uint16)[]),(address,address[])[],(address,(address,uint24,uint32,uint32)[]),((address,(address,uint32,address,uint256)[])[],bytes32),(address,uint256,bytes)[],uint16)": {
				"params": {
					"buybackHookConfiguration": "Data used for setting up the buyback hook to use when determining the best price for new participants.",
					"configuration": "The data needed to deploy a basic revnet.",
					"extraHookMetadata": "Extra metadata to attach to the cycle for the delegates to use.",
					"payHookSpecifications": "Any hooks that should run when the revnet is paid.",
					"revnetId": "The ID of the Juicebox project to turn into a revnet. Send 0 to deploy a new revnet.",
					"suckerDeploymentConfiguration": "Information about how this revnet relates to other's across chains.",
					"terminalConfigurations": "The terminals that the network uses to accept payments through."
				},
				"returns": {
					"_0": "revnetId The ID of the newly created revnet."
				}
			},
			"launchRevnetFor(uint256,((string,string,string,bytes32),uint32,uint256,uint256,address,(uint40,uint16,uint112,uint40,uint32,uint16)[]),(address,address[])[],(address,(address,uint24,uint32,uint32)[]),((address,(address,uint32,address,uint256)[])[],bytes32))": {
				"params": {
					"buybackHookConfiguration": "Data used for setting up the buyback hook to use when determining the best price for new participants.",
					"configuration": "The data needed to deploy a basic revnet.",
					"revnetId": "The ID of the Juicebox project to turn into a revnet. Send 0 to deploy a new revnet.",
					"suckerDeploymentConfiguration": "Information about how this revnet relates to other's across chains.",
					"terminalConfigurations": "The terminals that the network uses to accept payments through."
				},
				"returns": {
					"_0": "revnetId The ID of the newly created revnet."
				}
			},
			"launchTiered721RevnetFor(uint256,((string,string,string,bytes32),uint32,uint256,uint256,address,(uint40,uint16,uint112,uint40,uint32,uint16)[]),(address,address[])[],(address,(address,uint24,uint32,uint32)[]),((address,(address,uint32,address,uint256)[])[],bytes32),((string,string,address,string,address,string,((uint104,uint32,uint32,uint16,address,bytes32,uint24,bool,bool,bool,bool,bool)[],uint32,uint8,address),address,(bool,bool,bool,bool)),bool,bool,bool),(address,uint256,bytes)[],uint16)": {
				"params": {
					"buybackHookConfiguration": "Data used for setting up the buyback hook to use when determining the best price for new participants.",
					"configuration": "The data needed to deploy a basic revnet.",
					"extraHookMetadata": "Extra metadata to attach to the cycle for the delegates to use.",
					"hookConfiguration": "Data used for setting up the 721 tiers.",
					"otherPayHooksSpecifications": "Any hooks that should run when the revnet is paid alongside the 721 hook.",
					"revnetId": "The ID of the Juicebox project to turn into a revnet. Send 0 to deploy a new revnet.",
					"suckerDeploymentConfiguration": "Information about how this revnet relates to other's across chains.",
					"terminalConfigurations": "The terminals that the network uses to accept payments through."
				},
				"returns": {
					"_0": "revnetId The ID of the newly created revnet.",
					"hook": "The address of the 721 hook that was deployed on the revnet."
				}
			},
			"onERC721Received(address,address,uint256,bytes)": {
				"details": "Make sure only mints can be received."
			},
			"payHookSpecificationsOf(uint256)": {
				"params": {
					"revnetId": "The ID of the revnet to which the extensions apply."
				},
				"returns": {
					"_0": "payHookSpecifications The pay hooks."
				}
			},
			"replaceSplitOperatorOf(uint256,address)": {
				"params": {
					"newSplitOperator": "The address of the new split operator.",
					"revnetId": "The ID of the revnet having its operator replaced."
				}
			},
			"supportsInterface(bytes4)": {
				"details": "See {IERC165-supportsInterface}.",
				"params": {
					"interfaceId": "The ID of the interface to check for adherence to."
				},
				"returns": {
					"_0": "A flag indicating if the provided interface ID is supported."
				}
			},
			"trustedForwarder()": {
				"details": "Returns the address of the trusted forwarder."
			}
		},
		"version": 1
	},
	"userdoc": {
		"kind": "user",
		"methods": {
			"CONTROLLER()": {
				"notice": "The controller that networks are made from."
			},
			"EXIT_DELAY()": {
				"notice": "The amount of time from a sucker being deployed to when it can facilitate exits."
			},
			"HOOK_DEPLOYER()": {
				"notice": "The contract responsible for deploying the tiered 721 hook."
			},
			"PUBLISHER()": {
				"notice": "The croptop publisher that facilitates the permissioned publishing of 721 posts to a revnet."
			},
			"SUCKER_REGISTRY()": {
				"notice": "The registry that deploys and tracks each project's suckers."
			},
			"beforePayRecordedWith((address,address,(address,uint256,uint256,uint256),uint256,uint256,address,uint256,uint256,bytes))": {
				"notice": "This function gets called when the revnet receives a payment."
			},
			"beforeRedeemRecordedWith((address,address,uint256,uint256,uint256,uint256,(address,uint256,uint256,uint256),bool,uint256,bytes))": {
				"notice": "This function is never called, it needs to be included to adhere to the interface."
			},
			"buybackHookOf(uint256)": {
				"notice": "The data hook that returns the correct values for the buyback hook of each network."
			},
			"deploySuckersFor(uint256,bytes,((address,(address,uint32,address,uint256)[])[],bytes32))": {
				"notice": "Allows a revnet's split operator to deploy new suckers to the revnet after it's deployed."
			},
			"exitDelayOf(uint256)": {
				"notice": "The time at which exits from a revnet become allowed."
			},
			"hasMintPermissionFor(uint256,address)": {
				"notice": "Required by the IJBRulesetDataHook interfaces."
			},
			"launchCroptopRevnetFor(uint256,((string,string,string,bytes32),uint32,uint256,uint256,address,(uint40,uint16,uint112,uint40,uint32,uint16)[]),(address,address[])[],(address,(address,uint24,uint32,uint32)[]),((address,(address,uint32,address,uint256)[])[],bytes32),((string,string,address,string,address,string,((uint104,uint32,uint32,uint16,address,bytes32,uint24,bool,bool,bool,bool,bool)[],uint32,uint8,address),address,(bool,bool,bool,bool)),bool,bool,bool),(address,uint256,bytes)[],uint16,(uint256,uint256,uint256,uint256,address[])[])": {
				"notice": "Launch a revnet that supports 721 sales."
			},
			"launchPayHookRevnetFor(uint256,((string,string,string,bytes32),uint32,uint256,uint256,address,(uint40,uint16,uint112,uint40,uint32,uint16)[]),(address,address[])[],(address,(address,uint24,uint32,uint32)[]),((address,(address,uint32,address,uint256)[])[],bytes32),(address,uint256,bytes)[],uint16)": {
				"notice": "Launch a basic revnet that also calls other specified pay hooks."
			},
			"launchRevnetFor(uint256,((string,string,string,bytes32),uint32,uint256,uint256,address,(uint40,uint16,uint112,uint40,uint32,uint16)[]),(address,address[])[],(address,(address,uint24,uint32,uint32)[]),((address,(address,uint32,address,uint256)[])[],bytes32))": {
				"notice": "Launch a basic revnet."
			},
			"launchTiered721RevnetFor(uint256,((string,string,string,bytes32),uint32,uint256,uint256,address,(uint40,uint16,uint112,uint40,uint32,uint16)[]),(address,address[])[],(address,(address,uint24,uint32,uint32)[]),((address,(address,uint32,address,uint256)[])[],bytes32),((string,string,address,string,address,string,((uint104,uint32,uint32,uint16,address,bytes32,uint24,bool,bool,bool,bool,bool)[],uint32,uint8,address),address,(bool,bool,bool,bool)),bool,bool,bool),(address,uint256,bytes)[],uint16)": {
				"notice": "Launch a revnet that supports 721 sales."
			},
			"payHookSpecificationsOf(uint256)": {
				"notice": "The pay hooks to include during payments to networks."
			},
			"replaceSplitOperatorOf(uint256,address)": {
				"notice": "A revnet's operator can replace itself."
			},
			"supportsInterface(bytes4)": {
				"notice": "Indicates if this contract adheres to the specified interface."
			}
		},
		"version": 1
	},
	"gitCommit": "62c8b853917233957aae3ca08de224c88087f916",
	"sourceName": "src/REVCroptopDeployer.sol",
	"chainId": "84532",
	"linkReferences": {},
	"deployedLinkReferences": {},
	"history": []
}