{
  "abi": [
    {
      "inputs": [
        {
          "internalType": "contract IJBController3_1",
          "name": "_controller",
          "type": "address"
        },
        {
          "internalType": "uint256",
          "name": "_feeProjectId",
          "type": "uint256"
        }
      ],
      "stateMutability": "nonpayable",
      "type": "constructor"
    },
    {
      "inputs": [
        {
          "internalType": "bytes32",
          "name": "encodedUri",
          "type": "bytes32"
        }
      ],
      "name": "EMPTY_ENCODED_IPFS_URI",
      "type": "error"
    },
    {
      "inputs": [
        {
          "internalType": "uint256",
          "name": "projectId",
          "type": "uint256"
        },
        {
          "internalType": "address",
          "name": "dataSource",
          "type": "address"
        },
        {
          "internalType": "bytes4",
          "name": "expectedInterfaceId",
          "type": "bytes4"
        }
      ],
      "name": "INCOMPATIBLE_PROJECT",
      "type": "error"
    },
    {
      "inputs": [
        {
          "internalType": "uint256",
          "name": "expected",
          "type": "uint256"
        },
        {
          "internalType": "uint256",
          "name": "sent",
          "type": "uint256"
        }
      ],
      "name": "INSUFFICIENT_ETH_SENT",
      "type": "error"
    },
    {
      "inputs": [],
      "name": "MAX_TOTAL_SUPPLY_LESS_THAN_MIN",
      "type": "error"
    },
    {
      "inputs": [
        {
          "internalType": "address[]",
          "name": "allowedAddresses",
          "type": "address[]"
        }
      ],
      "name": "NOT_IN_ALLOW_LIST",
      "type": "error"
    },
    {
      "inputs": [
        {
          "internalType": "uint256",
          "name": "minimumPrice",
          "type": "uint256"
        }
      ],
      "name": "PRICE_TOO_SMALL",
      "type": "error"
    },
    {
      "inputs": [
        {
          "internalType": "uint256",
          "name": "maximumTotalSupply",
          "type": "uint256"
        }
      ],
      "name": "TOTAL_SUPPLY_TOO_BIG",
      "type": "error"
    },
    {
      "inputs": [
        {
          "internalType": "uint256",
          "name": "minimumTotalSupply",
          "type": "uint256"
        }
      ],
      "name": "TOTAL_SUPPLY_TOO_SMALL",
      "type": "error"
    },
    {
      "inputs": [],
      "name": "TOTAL_SUPPY_MUST_BE_POSITIVE",
      "type": "error"
    },
    {
      "inputs": [],
      "name": "UNAUTHORIZED",
      "type": "error"
    },
    {
      "inputs": [],
      "name": "UNAUTHORIZED_TO_POST_IN_CATEGORY",
      "type": "error"
    },
    {
      "anonymous": false,
      "inputs": [
        {
          "indexed": true,
          "internalType": "uint256",
          "name": "projectId",
          "type": "uint256"
        },
        {
          "indexed": true,
          "internalType": "address",
          "name": "nftBeneficiary",
          "type": "address"
        },
        {
          "indexed": true,
          "internalType": "address",
          "name": "feeBeneficiary",
          "type": "address"
        },
        {
          "components": [
            {
              "internalType": "bytes32",
              "name": "encodedIPFSUri",
              "type": "bytes32"
            },
            {
              "internalType": "uint32",
              "name": "totalSupply",
              "type": "uint32"
            },
            {
              "internalType": "uint88",
              "name": "price",
              "type": "uint88"
            },
            {
              "internalType": "uint16",
              "name": "category",
              "type": "uint16"
            }
          ],
          "indexed": false,
          "internalType": "struct Post[]",
          "name": "posts",
          "type": "tuple[]"
        },
        {
          "indexed": false,
          "internalType": "uint256",
          "name": "fee",
          "type": "uint256"
        },
        {
          "indexed": false,
          "internalType": "address",
          "name": "caller",
          "type": "address"
        }
      ],
      "name": "Collected",
      "type": "event"
    },
    {
      "anonymous": false,
      "inputs": [
        {
          "indexed": true,
          "internalType": "uint256",
          "name": "projectId",
          "type": "uint256"
        },
        {
          "components": [
            {
              "internalType": "address",
              "name": "nft",
              "type": "address"
            },
            {
              "internalType": "uint256",
              "name": "category",
              "type": "uint256"
            },
            {
              "internalType": "uint256",
              "name": "minimumPrice",
              "type": "uint256"
            },
            {
              "internalType": "uint256",
              "name": "minimumTotalSupply",
              "type": "uint256"
            },
            {
              "internalType": "uint256",
              "name": "maximumTotalSupply",
              "type": "uint256"
            },
            {
              "internalType": "address[]",
              "name": "allowedAddresses",
              "type": "address[]"
            }
          ],
          "indexed": false,
          "internalType": "struct AllowedPost[]",
          "name": "allowedPosts",
          "type": "tuple[]"
        },
        {
          "indexed": false,
          "internalType": "address",
          "name": "caller",
          "type": "address"
        }
      ],
      "name": "Configured",
      "type": "event"
    },
    {
      "inputs": [
        {
          "internalType": "uint256",
          "name": "_projectId",
          "type": "uint256"
        },
        {
          "internalType": "address",
          "name": "_nft",
          "type": "address"
        },
        {
          "internalType": "uint256",
          "name": "_category",
          "type": "uint256"
        }
      ],
      "name": "allowanceFor",
      "outputs": [
        {
          "internalType": "uint256",
          "name": "minimumPrice",
          "type": "uint256"
        },
        {
          "internalType": "uint256",
          "name": "minimumTotalSupply",
          "type": "uint256"
        },
        {
          "internalType": "uint256",
          "name": "maximumTotalSupply",
          "type": "uint256"
        },
        {
          "internalType": "address[]",
          "name": "allowedAddresses",
          "type": "address[]"
        }
      ],
      "stateMutability": "view",
      "type": "function"
    },
    {
      "inputs": [
        {
          "internalType": "uint256",
          "name": "_projectId",
          "type": "uint256"
        },
        {
          "components": [
            {
              "internalType": "bytes32",
              "name": "encodedIPFSUri",
              "type": "bytes32"
            },
            {
              "internalType": "uint32",
              "name": "totalSupply",
              "type": "uint32"
            },
            {
              "internalType": "uint88",
              "name": "price",
              "type": "uint88"
            },
            {
              "internalType": "uint16",
              "name": "category",
              "type": "uint16"
            }
          ],
          "internalType": "struct Post[]",
          "name": "_posts",
          "type": "tuple[]"
        },
        {
          "internalType": "address",
          "name": "_nftBeneficiary",
          "type": "address"
        },
        {
          "internalType": "address",
          "name": "_feeBeneficiary",
          "type": "address"
        },
        {
          "internalType": "bytes",
          "name": "_additionalPayMetadata",
          "type": "bytes"
        },
        {
          "internalType": "bytes",
          "name": "_feeMetadata",
          "type": "bytes"
        }
      ],
      "name": "collectFrom",
      "outputs": [],
      "stateMutability": "payable",
      "type": "function"
    },
    {
      "inputs": [
        {
          "internalType": "uint256",
          "name": "_projectId",
          "type": "uint256"
        },
        {
          "components": [
            {
              "internalType": "address",
              "name": "nft",
              "type": "address"
            },
            {
              "internalType": "uint256",
              "name": "category",
              "type": "uint256"
            },
            {
              "internalType": "uint256",
              "name": "minimumPrice",
              "type": "uint256"
            },
            {
              "internalType": "uint256",
              "name": "minimumTotalSupply",
              "type": "uint256"
            },
            {
              "internalType": "uint256",
              "name": "maximumTotalSupply",
              "type": "uint256"
            },
            {
              "internalType": "address[]",
              "name": "allowedAddresses",
              "type": "address[]"
            }
          ],
          "internalType": "struct AllowedPost[]",
          "name": "_allowedPosts",
          "type": "tuple[]"
        }
      ],
      "name": "configureFor",
      "outputs": [],
      "stateMutability": "nonpayable",
      "type": "function"
    },
    {
      "inputs": [],
      "name": "controller",
      "outputs": [
        {
          "internalType": "contract IJBController3_1",
          "name": "",
          "type": "address"
        }
      ],
      "stateMutability": "view",
      "type": "function"
    },
    {
      "inputs": [],
      "name": "feeDivisor",
      "outputs": [
        {
          "internalType": "uint256",
          "name": "",
          "type": "uint256"
        }
      ],
      "stateMutability": "view",
      "type": "function"
    },
    {
      "inputs": [],
      "name": "feeProjectId",
      "outputs": [
        {
          "internalType": "uint256",
          "name": "",
          "type": "uint256"
        }
      ],
      "stateMutability": "view",
      "type": "function"
    },
    {
      "inputs": [
        {
          "internalType": "uint256",
          "name": "_projectId",
          "type": "uint256"
        },
        {
          "internalType": "bytes32",
          "name": "_encodedIPFSUri",
          "type": "bytes32"
        }
      ],
      "name": "tierIdForEncodedIPFSUriOf",
      "outputs": [
        {
          "internalType": "uint256",
          "name": "",
          "type": "uint256"
        }
      ],
      "stateMutability": "view",
      "type": "function"
    },
    {
      "inputs": [
        {
          "internalType": "uint256",
          "name": "_projectId",
          "type": "uint256"
        },
        {
          "internalType": "address",
          "name": "_nft",
          "type": "address"
        },
        {
          "internalType": "bytes32[]",
          "name": "_encodedIPFSUris",
          "type": "bytes32[]"
        }
      ],
      "name": "tiersFor",
      "outputs": [
        {
          "components": [
            {
              "internalType": "uint256",
              "name": "id",
              "type": "uint256"
            },
            {
              "internalType": "uint256",
              "name": "price",
              "type": "uint256"
            },
            {
              "internalType": "uint256",
              "name": "remainingQuantity",
              "type": "uint256"
            },
            {
              "internalType": "uint256",
              "name": "initialQuantity",
              "type": "uint256"
            },
            {
              "internalType": "uint256",
              "name": "votingUnits",
              "type": "uint256"
            },
            {
              "internalType": "uint256",
              "name": "reservedRate",
              "type": "uint256"
            },
            {
              "internalType": "address",
              "name": "reservedTokenBeneficiary",
              "type": "address"
            },
            {
              "internalType": "bytes32",
              "name": "encodedIPFSUri",
              "type": "bytes32"
            },
            {
              "internalType": "uint256",
              "name": "category",
              "type": "uint256"
            },
            {
              "internalType": "bool",
              "name": "allowManualMint",
              "type": "bool"
            },
            {
              "internalType": "bool",
              "name": "transfersPausable",
              "type": "bool"
            },
            {
              "internalType": "string",
              "name": "resolvedUri",
              "type": "string"
            }
          ],
          "internalType": "struct JB721Tier[]",
          "name": "tiers",
          "type": "tuple[]"
        }
      ],
      "stateMutability": "view",
      "type": "function"
    }
  ],
  "bytecode": {
    "object": "0x608060405260146003553480156200001657600080fd5b5060405162002e8638038062002e86833981016040819052620000399162000063565b600480546001600160a01b0319166001600160a01b0393909316929092179091556005556200009f565b600080604083850312156200007757600080fd5b82516001600160a01b03811681146200008f57600080fd5b6020939093015192949293505050565b612dd780620000af6000396000f3fe60806040526004361061007b5760003560e01c80633f6f86ec1161004e5780633f6f86ec146101165780635bc46977146101465780639a36f93214610173578063f77c47911461018957600080fd5b80630bc821f014610080578063200e8ae4146100cb57806326c0e4b2146100ed5780632d99ea1314610103575b600080fd5b34801561008c57600080fd5b506100b861009b366004611aba565b600260209081526000928352604080842090915290825290205481565b6040519081526020015b60405180910390f35b3480156100d757600080fd5b506100eb6100e6366004611c68565b6101db565b005b3480156100f957600080fd5b506100b860055481565b6100eb610111366004611e5f565b6106ce565b34801561012257600080fd5b50610136610131366004612009565b610f3c565b6040516100c29493929190612092565b34801561015257600080fd5b506101666101613660046120c1565b6110e7565b6040516100c291906121de565b34801561017f57600080fd5b506100b860035481565b34801561019557600080fd5b506004546101b69073ffffffffffffffffffffffffffffffffffffffff1681565b60405173ffffffffffffffffffffffffffffffffffffffff90911681526020016100c2565b60048054604080517f8b79543c000000000000000000000000000000000000000000000000000000008152905173ffffffffffffffffffffffffffffffffffffffff90921692638b79543c9282820192602092908290030181865afa158015610248573d6000803e3d6000fd5b505050506040513d601f19601f8201168201806040525081019061026c91906122f6565b73ffffffffffffffffffffffffffffffffffffffff16636352211e836040518263ffffffff1660e01b81526004016102a691815260200190565b602060405180830381865afa1580156102c3573d6000803e3d6000fd5b505050506040513d601f19601f820116820180604052508101906102e791906122f6565b73ffffffffffffffffffffffffffffffffffffffff163373ffffffffffffffffffffffffffffffffffffffff161461034b576040517f075fd2b100000000000000000000000000000000000000000000000000000000815260040160405180910390fd5b600480546040517f8776c49900000000000000000000000000000000000000000000000000000000815291820184905260009173ffffffffffffffffffffffffffffffffffffffff90911690638776c499906024016103a060405180830381865afa1580156103be573d6000803e3d6000fd5b505050506040513d601f19601f820116820180604052508101906103e291906124f1565b91505060008251905061043a6040518060c00160405280600073ffffffffffffffffffffffffffffffffffffffff16815260200160008152602001600081526020016000815260200160008152602001606081525090565b60005b8281101561068c5784818151811061045757610457612597565b60200260200101519150816060015160000361049f576040517ff8bb60ed00000000000000000000000000000000000000000000000000000000815260040160405180910390fd5b8160800151826060015111156104e1576040517f4e00ecbd00000000000000000000000000000000000000000000000000000000815260040160405180910390fd5b815173ffffffffffffffffffffffffffffffffffffffff1661051c5761020084015173ffffffffffffffffffffffffffffffffffffffff1682525b6040808301516060840151608085015160008a81526020818152858220885173ffffffffffffffffffffffffffffffffffffffff9081168452908252868320828a018051855290835287842060889590951b60689690961b909617949094179283905560a0880151518c83526001825286832089519095168352938152858220945182529390935292822090916105b39190611a80565b80156106825760005b81811015610680576000898152600160209081526040808320885173ffffffffffffffffffffffffffffffffffffffff1684528252808320888301518452909152902060a086015180518390811061061657610616612597565b60209081029190910181015182546001808201855560009485529290932090920180547fffffffffffffffffffffffff00000000000000000000000000000000000000001673ffffffffffffffffffffffffffffffffffffffff90931692909217909155016105bc565b505b505060010161043d565b50847fbccec612e631e987bbe45a96fe8ca1a685eb5d16c9765befacb1d79f0d4a040c85336040516106bf9291906125c6565b60405180910390a25050505050565b600480546040517f8776c4990000000000000000000000000000000000000000000000000000000081529182018a9052600091606091839173ffffffffffffffffffffffffffffffffffffffff90911690638776c499906024016103a060405180830381865afa158015610746573d6000803e3d6000fd5b505050506040513d601f19601f8201168201806040525081019061076a91906124f1565b6102008101516040517f01ffc9a70000000000000000000000000000000000000000000000000000000081527ff882622f00000000000000000000000000000000000000000000000000000000600482015291935073ffffffffffffffffffffffffffffffffffffffff1691506301ffc9a790602401602060405180830381865afa1580156107fd573d6000803e3d6000fd5b505050506040513d601f19601f8201168201806040525081019061082191906126ec565b6108a8576102008101516040517f9b08c6d9000000000000000000000000000000000000000000000000000000008152600481018d905273ffffffffffffffffffffffffffffffffffffffff90911660248201527ff882622f0000000000000000000000000000000000000000000000000000000060448201526064015b60405180910390fd5b60008060006108bd8e8561020001518f611427565b9250925092506005548e146108de576003546108d99082612736565b6108e1565b60005b9550346108ee8783612771565b101561092f576040517f89dddd7a0000000000000000000000000000000000000000000000000000000081526004810182905234602482015260440161089f565b61020084015173ffffffffffffffffffffffffffffffffffffffff1663843d92ee84600060405190808252806020026020018201604052801561097c578160200160208202803683370190505b506040518363ffffffff1660e01b815260040161099a9291906127b4565b600060405180830381600087803b1580156109b457600080fd5b505af11580156109c8573d6000803e3d6000fd5b5050505073__$c06a8e95b9ac226b7f560c28c9e0fa7372$__63af93f70e85610200015173ffffffffffffffffffffffffffffffffffffffff166346a6d9816040518163ffffffff1660e01b8152600401602060405180830381865afa158015610a36573d6000803e3d6000fd5b505050506040513d601f19601f82011682018060405250810190610a5a91906128b3565b600185604051602001610a6e9291906128f5565b60405160208183030381529060405260055460001b8e8e604051602001610a9793929190612918565b6040516020818303038152906040526040518463ffffffff1660e01b8152600401610ac493929190612932565b600060405180830381865af4158015610ae1573d6000803e3d6000fd5b505050506040513d6000823e601f3d9081017fffffffffffffffffffffffffffffffffffffffffffffffffffffffffffffffe0168201604052610b2791908101906129ec565b9450505050506000600460009054906101000a900473ffffffffffffffffffffffffffffffffffffffff1673ffffffffffffffffffffffffffffffffffffffff1663c41c2f246040518163ffffffff1660e01b8152600401602060405180830381865afa158015610b9c573d6000803e3d6000fd5b505050506040513d601f19601f82011682018060405250810190610bc091906122f6565b6040517f86202650000000000000000000000000000000000000000000000000000000008152600481018d905261eeee602482015273ffffffffffffffffffffffffffffffffffffffff9190911690638620265090604401602060405180830381865afa158015610c35573d6000803e3d6000fd5b505050506040513d601f19601f82011682018060405250810190610c5991906122f6565b905073ffffffffffffffffffffffffffffffffffffffff8116631ebc263f610c818534612a35565b8d610c8c8734612a35565b61eeee8e6000808a6040518963ffffffff1660e01b8152600401610cb69796959493929190612a48565b60206040518083038185885af1158015610cd4573d6000803e3d6000fd5b50505050506040513d601f19601f82011682018060405250810190610cf99190612ae1565b50504715610ec6576000600460009054906101000a900473ffffffffffffffffffffffffffffffffffffffff1673ffffffffffffffffffffffffffffffffffffffff1663c41c2f246040518163ffffffff1660e01b8152600401602060405180830381865afa158015610d70573d6000803e3d6000fd5b505050506040513d601f19601f82011682018060405250810190610d9491906122f6565b6005546040517f86202650000000000000000000000000000000000000000000000000000000008152600481019190915261eeee602482015273ffffffffffffffffffffffffffffffffffffffff9190911690638620265090604401602060405180830381865afa158015610e0d573d6000803e3d6000fd5b505050506040513d601f19601f82011682018060405250810190610e3191906122f6565b90508073ffffffffffffffffffffffffffffffffffffffff16631ebc263f476005544761eeee8d6000808d8d6040518a63ffffffff1660e01b8152600401610e80989796959493929190612afa565b60206040518083038185885af1158015610e9e573d6000803e3d6000fd5b50505050506040513d601f19601f82011682018060405250810190610ec39190612ae1565b50505b8673ffffffffffffffffffffffffffffffffffffffff168873ffffffffffffffffffffffffffffffffffffffff168b7faccd8d47658cb5f91615b7460a207f19bd49b102589e646d788406d89cc95a488c8633604051610f2893929190612ba2565b60405180910390a450505050505050505050565b60008080606073ffffffffffffffffffffffffffffffffffffffff8616610ffe57600480546040517f8776c49900000000000000000000000000000000000000000000000000000000815291820189905260009173ffffffffffffffffffffffffffffffffffffffff90911690638776c499906024016103a060405180830381865afa158015610fd0573d6000803e3d6000fd5b505050506040513d601f19601f82011682018060405250810190610ff491906124f1565b6102000151975050505b60008781526020818152604080832073ffffffffffffffffffffffffffffffffffffffff8a168085529083528184208985528352818420548b85526001845282852091855290835281842089855283529281902080548251818502810185019093528083526cffffffffffffffffffffffffff8516985063ffffffff606886901c81169850608886901c16965091929091908301828280156110d657602002820191906000526020600020905b815473ffffffffffffffffffffffffffffffffffffffff1681526001909101906020018083116110ab575b505050505091505093509350935093565b80516060908067ffffffffffffffff81111561110557611105611adc565b6040519080825280602002602001820160405280156111b757816020015b6111a4604051806101800160405280600081526020016000815260200160008152602001600081526020016000815260200160008152602001600073ffffffffffffffffffffffffffffffffffffffff1681526020016000801916815260200160008152602001600015158152602001600015158152602001606081525090565b8152602001906001900390816111235790505b50915073ffffffffffffffffffffffffffffffffffffffff841661127657600480546040517f8776c49900000000000000000000000000000000000000000000000000000000815291820187905260009173ffffffffffffffffffffffffffffffffffffffff90911690638776c499906024016103a060405180830381865afa158015611248573d6000803e3d6000fd5b505050506040513d601f19601f8201168201806040525081019061126c91906124f1565b6102000151955050505b60005b8181101561141e576000868152600260205260408120855182908790859081106112a5576112a5612597565b6020026020010151815260200190815260200160002054905080600014611415578573ffffffffffffffffffffffffffffffffffffffff1663975057e76040518163ffffffff1660e01b8152600401602060405180830381865afa158015611311573d6000803e3d6000fd5b505050506040513d601f19601f8201168201806040525081019061133591906122f6565b6040517f64faa15900000000000000000000000000000000000000000000000000000000815273ffffffffffffffffffffffffffffffffffffffff8881166004830152602482018490526000604483015291909116906364faa15990606401600060405180830381865afa1580156113b1573d6000803e3d6000fd5b505050506040513d6000823e601f3d9081017fffffffffffffffffffffffffffffffffffffffffffffffffffffffffffffffe01682016040526113f79190810190612c5d565b84838151811061140957611409612597565b60200260200101819052505b50600101611279565b50509392505050565b606080600080845190508067ffffffffffffffff81111561144a5761144a611adc565b6040519080825280602002602001820160405280156114ef57816020015b604080516101608101825260008082526020808301829052928201819052606082018190526080820181905260a0820181905260c0820181905260e082018190526101008201819052610120820181905261014082015282527fffffffffffffffffffffffffffffffffffffffffffffffffffffffffffffffff9092019101816114685790505b5093508067ffffffffffffffff81111561150b5761150b611adc565b604051908082528060200260200182016040528015611534578160200160208202803683370190505b50925060008673ffffffffffffffffffffffffffffffffffffffff1663975057e76040518163ffffffff1660e01b8152600401602060405180830381865afa158015611584573d6000803e3d6000fd5b505050506040513d601f19601f820116820180604052508101906115a891906122f6565b6040517ff1bea54f00000000000000000000000000000000000000000000000000000000815273ffffffffffffffffffffffffffffffffffffffff8981166004830152919091169063f1bea54f90602401602060405180830381865afa158015611616573d6000803e3d6000fd5b505050506040513d601f19601f8201168201806040525081019061163a9190612ae1565b611645906001612771565b6040805160808101825260008082526020820181905291810182905260608101829052919250805b848110156119ec5788818151811061168757611687612597565b602090810291909101015180519093506116d35782516040517f76f5ee32000000000000000000000000000000000000000000000000000000008152600481019190915260240161089f565b60008b8152600260209081526040808320865184529091529020548015611714578088838151811061170757611707612597565b6020026020010181815250505b5086818151811061172757611727612597565b60200260200101516000036119c65760008060008061174f8f8f896060015161ffff16610f3c565b935093509350935082600003611791576040517f85401be000000000000000000000000000000000000000000000000000000000815260040160405180910390fd5b8387604001516affffffffffffffffffffff1610156117df576040517f3439991d0000000000000000000000000000000000000000000000000000000081526004810185905260240161089f565b82876020015163ffffffff161015611826576040517fed781c600000000000000000000000000000000000000000000000000000000081526004810184905260240161089f565b81876020015163ffffffff16111561186d576040517f467cb6430000000000000000000000000000000000000000000000000000000081526004810183905260240161089f565b80511580159061188457506118823382611a05565b155b156118bd57806040517f884e008000000000000000000000000000000000000000000000000000000000815260040161089f9190612d56565b505060408051610160810182528682015169ffffffffffffffffffff16815260208088015163ffffffff16908201526000918101829052606080820183905260808201839052875160a083015287015160ff1660c082015260e08101829052610100810182905261012081019190915260016101408201528a519092508a91508490811061194d5761194d612597565b6020026020010181905250818061196390612d69565b925061196f9085612771565b87828151811061198157611981612597565b60200260200101818152505086818151811061199f5761199f612597565b60209081029190910181015160008d81526002835260408082208751835290935291909120555b60408301516119e2906affffffffffffffffffffff1687612771565b955060010161166d565b508381146119f8578087525b5050505093509350939050565b8051600090815b81811015611a7357838181518110611a2657611a26612597565b602002602001015173ffffffffffffffffffffffffffffffffffffffff168573ffffffffffffffffffffffffffffffffffffffff1603611a6b57600192505050611a7a565b600101611a0c565b5060009150505b92915050565b5080546000825590600052602060002090810190611a9e9190611aa1565b50565b5b80821115611ab65760008155600101611aa2565b5090565b60008060408385031215611acd57600080fd5b50508035926020909101359150565b7f4e487b7100000000000000000000000000000000000000000000000000000000600052604160045260246000fd5b60405160c0810167ffffffffffffffff81118282101715611b2e57611b2e611adc565b60405290565b6040516080810167ffffffffffffffff81118282101715611b2e57611b2e611adc565b604051610240810167ffffffffffffffff81118282101715611b2e57611b2e611adc565b604051610120810167ffffffffffffffff81118282101715611b2e57611b2e611adc565b604051610180810167ffffffffffffffff81118282101715611b2e57611b2e611adc565b604051601f82017fffffffffffffffffffffffffffffffffffffffffffffffffffffffffffffffe016810167ffffffffffffffff81118282101715611c0a57611c0a611adc565b604052919050565b600067ffffffffffffffff821115611c2c57611c2c611adc565b5060051b60200190565b73ffffffffffffffffffffffffffffffffffffffff81168114611a9e57600080fd5b8035611c6381611c36565b919050565b60008060408385031215611c7b57600080fd5b8235915060208084013567ffffffffffffffff80821115611c9b57600080fd5b818601915086601f830112611caf57600080fd5b8135611cc2611cbd82611c12565b611bc3565b81815260059190911b83018401908481019089831115611ce157600080fd5b8585015b83811015611e0557803585811115611cfc57600080fd5b860160c0818d037fffffffffffffffffffffffffffffffffffffffffffffffffffffffffffffffe0011215611d3057600080fd5b611d38611b0b565b88820135611d4581611c36565b80825250604082013589820152606082013560408201526080820135606082015260a0820135608082015260c082013587811115611d8257600080fd5b8083019250508c603f830112611d9757600080fd5b88820135611da7611cbd82611c12565b81815260059190911b8301604001908a8101908f831115611dc757600080fd5b6040850194505b82851015611df0578435611de181611c36565b8252938b0193908b0190611dce565b60a08401525050845250918601918601611ce5565b508096505050505050509250929050565b60008083601f840112611e2857600080fd5b50813567ffffffffffffffff811115611e4057600080fd5b602083019150836020828501011115611e5857600080fd5b9250929050565b60008060008060008060008060c0898b031215611e7b57600080fd5b8835975067ffffffffffffffff60208a01351115611e9857600080fd5b602089013589018a601f820112611eae57600080fd5b611ebb611cbd8235611c12565b81358082526020808301929160071b8401018d811115611eda57600080fd5b6020840193505b80841015611f7d576080848f031215611ef957600080fd5b611f01611b34565b84358152602085013563ffffffff811614611f1b57600080fd5b6020858101359082015260408501356affffffffffffffffffffff811614611f4257600080fd5b60408581013590820152606085013561ffff811614611f6057600080fd5b606085810135908201528352608090930192602090920191611ee1565b509850611f8f91505060408a01611c58565b9550611f9d60608a01611c58565b945067ffffffffffffffff60808a01351115611fb857600080fd5b611fc88a60808b01358b01611e16565b909450925067ffffffffffffffff60a08a01351115611fe657600080fd5b611ff68a60a08b01358b01611e16565b989b979a50959850939692959194935050565b60008060006060848603121561201e57600080fd5b83359250602084013561203081611c36565b929592945050506040919091013590565b600081518084526020808501945080840160005b8381101561208757815173ffffffffffffffffffffffffffffffffffffffff1687529582019590820190600101612055565b509495945050505050565b8481528360208201528260408201526080606082015260006120b76080830184612041565b9695505050505050565b6000806000606084860312156120d657600080fd5b833592506020808501356120e981611c36565b9250604085013567ffffffffffffffff81111561210557600080fd5b8501601f8101871361211657600080fd5b8035612124611cbd82611c12565b81815260059190911b8201830190838101908983111561214357600080fd5b928401925b8284101561216157833582529284019290840190612148565b80955050505050509250925092565b60005b8381101561218b578181015183820152602001612173565b50506000910152565b600081518084526121ac816020860160208601612170565b601f017fffffffffffffffffffffffffffffffffffffffffffffffffffffffffffffffe0169290920160200192915050565b60006020808301818452808551808352604092508286019150828160051b87010184880160005b838110156122e8578883037fffffffffffffffffffffffffffffffffffffffffffffffffffffffffffffffc001855281518051845287810151888501528681015187850152606080820151908501526080808201519085015260a0808201519085015260c08082015173ffffffffffffffffffffffffffffffffffffffff169085015260e080820151908501526101008082015190850152610120808201511515908501526101408082015115159085015261016090810151610180918501829052906122d481860183612194565b968901969450505090860190600101612205565b509098975050505050505050565b60006020828403121561230857600080fd5b815161231381611c36565b9392505050565b8051611c6381611c36565b80518015158114611c6357600080fd5b60006060828403121561234757600080fd5b6040516060810181811067ffffffffffffffff8211171561236a5761236a611adc565b60405290508061237983612325565b815261238760208401612325565b602082015261239860408401612325565b60408201525092915050565b600061028082840312156123b757600080fd5b6123bf611b57565b90506123cb8383612335565b8152606082015160208201526080820151604082015260a082015160608201526123f760c08301612325565b608082015261240860e08301612325565b60a082015261010061241b818401612325565b60c083015261012061242e818501612325565b60e0840152610140612441818601612325565b838501526101609250612455838601612325565b828501526101809150612469828601612325565b908401526101a061247b858201612325565b838501526101c0925061248f838601612325565b828501526101e091506124a3828601612325565b908401526102006124b5858201612325565b8385015261022092506124c9838601612325565b828501526124da610240860161231a565b818501525050610260830151818301525092915050565b6000808284036103a081121561250657600080fd5b6101208082121561251657600080fd5b61251e611b7b565b9150845182526020850151602083015260408501516040830152606085015160608301526080850151608083015260a085015160a083015260c085015160c083015261256c60e0860161231a565b60e083015261010080860151818401525081935061258c868287016123a4565b925050509250929050565b7f4e487b7100000000000000000000000000000000000000000000000000000000600052603260045260246000fd5b60006040808301818452808651808352606092508286019150828160051b8701016020808a016000805b858110156126b8578a85037fffffffffffffffffffffffffffffffffffffffffffffffffffffffffffffffa00187528251805173ffffffffffffffffffffffffffffffffffffffff908116875285820151868801528a8201518b880152898201518a8801526080808301519088015260a09182015160c0928801839052805192880183905286019160e088019185915b808310156126a257845182168452938801939288019260019290920191612680565b50505097850197955050918301916001016125f0565b5050508196506126df8189018a73ffffffffffffffffffffffffffffffffffffffff169052565b5050505050509392505050565b6000602082840312156126fe57600080fd5b61231382612325565b7f4e487b7100000000000000000000000000000000000000000000000000000000600052601160045260246000fd5b60008261276c577f4e487b7100000000000000000000000000000000000000000000000000000000600052601260045260246000fd5b500490565b80820180821115611a7a57611a7a612707565b600081518084526020808501945080840160005b8381101561208757815187529582019590820190600101612798565b6040808252835182820181905260009190606090818501906020808901865b8381101561289457815180516cffffffffffffffffffffffffff1686528381015163ffffffff908116858801528882015116888701528681015161ffff168787015260808082015173ffffffffffffffffffffffffffffffffffffffff169087015260a0808201519087015260c08082015162ffffff169087015260e08082015115159087015261010080820151151590870152610120808201511515908701526101409081015115159086015261016090940193908201906001016127d3565b505086830390870152506128a88187612784565b979650505050505050565b6000602082840312156128c557600080fd5b81517fffffffff000000000000000000000000000000000000000000000000000000008116811461231357600080fd5b82151581526040602082015260006129106040830184612784565b949350505050565b838152818360208301376000910160200190815292915050565b7fffffffff000000000000000000000000000000000000000000000000000000008416815260606020820152600061296d6060830185612194565b82810360408401526120b78185612194565b600067ffffffffffffffff83111561299957612999611adc565b6129ca60207fffffffffffffffffffffffffffffffffffffffffffffffffffffffffffffffe0601f86011601611bc3565b90508281528383830111156129de57600080fd5b612313836020830184612170565b6000602082840312156129fe57600080fd5b815167ffffffffffffffff811115612a1557600080fd5b8201601f81018413612a2657600080fd5b6129108482516020840161297f565b81810381811115611a7a57611a7a612707565b600061010089835288602084015273ffffffffffffffffffffffffffffffffffffffff808916604085015280881660608501525085608084015284151560a08401528060c0840152601381840152507f4d696e7465642066726f6d2043726f70746f70000000000000000000000000006101208301526101408060e0840152612ad381840185612194565b9a9950505050505050505050565b600060208284031215612af357600080fd5b5051919050565b60006101008a835289602084015273ffffffffffffffffffffffffffffffffffffffff808a16604085015280891660608501525086608084015285151560a08401528060c0840152600081840152506101208060e08401528381840152506101408385828501376000838501820152601f9093017fffffffffffffffffffffffffffffffffffffffffffffffffffffffffffffffe01690910190910198975050505050505050565b6060808252845182820181905260009190608090818501906020808a01865b83811015612c0f578151805186528381015163ffffffff16848701526040808201516affffffffffffffffffffff169087015287015161ffff16878601529385019390820190600101612bc1565b505086018890525073ffffffffffffffffffffffffffffffffffffffff861660408601529250612910915050565b600082601f830112612c4e57600080fd5b6123138383516020850161297f565b600060208284031215612c6f57600080fd5b815167ffffffffffffffff80821115612c8757600080fd5b908301906101808286031215612c9c57600080fd5b612ca4611b9f565b825181526020830151602082015260408301516040820152606083015160608201526080830151608082015260a083015160a0820152612ce660c0840161231a565b60c082015260e083015160e0820152610100808401518183015250610120612d0f818501612325565b90820152610140612d21848201612325565b908201526101608381015183811115612d3957600080fd5b612d4588828701612c3d565b918301919091525095945050505050565b6020815260006123136020830184612041565b60007fffffffffffffffffffffffffffffffffffffffffffffffffffffffffffffffff8203612d9a57612d9a612707565b506001019056fea2646970667358221220752d6877a2d97ecee9f084ff77927986f1a9cb26375e9ce3c328d83fd5c0aa1e64736f6c63430008150033",
    "linkReferences": {
      "node_modules/@jbx-protocol/juice-delegate-metadata-lib/src/JBDelegateMetadataLib.sol": {
        "JBDelegateMetadataLib": [
          {
            "start": 2685,
            "length": 20
          }
        ]
      }
    }
  },
  "methodIdentifiers": {
    "allowanceFor(uint256,address,uint256)": "3f6f86ec",
    "collectFrom(uint256,(bytes32,uint32,uint88,uint16)[],address,address,bytes,bytes)": "2d99ea13",
    "configureFor(uint256,(address,uint256,uint256,uint256,uint256,address[])[])": "200e8ae4",
    "controller()": "f77c4791",
    "feeDivisor()": "9a36f932",
    "feeProjectId()": "26c0e4b2",
    "tierIdForEncodedIPFSUriOf(uint256,bytes32)": "0bc821f0",
    "tiersFor(uint256,address,bytes32[])": "5bc46977"
  },
  "id": 16
}