{
	"_format": "sphinx-sol-ct-artifact-1",
	"merkleRoot": "0xa8b28f0a0ff94c0ccd343b0c647d1d1d68605c1177c36acf1715e5a075e676af",
	"contractName": "REVBasicDeployer",
	"address": "0xc54a84451712D2d2769b16DD94012f0E878A8a1c",
	"abi": [
		{
			"type": "constructor",
			"inputs": [
				{
					"name": "controller",
					"type": "address",
					"internalType": "contract IJBController"
				},
				{
					"name": "suckerRegistry",
					"type": "address",
					"internalType": "contract IBPSuckerRegistry"
				},
				{
					"name": "trustedForwarder",
					"type": "address",
					"internalType": "address"
				}
			],
			"stateMutability": "nonpayable"
		},
		{
			"type": "function",
			"name": "CONTROLLER",
			"inputs": [],
			"outputs": [
				{
					"name": "",
					"type": "address",
					"internalType": "contract IJBController"
				}
			],
			"stateMutability": "view"
		},
		{
			"type": "function",
			"name": "EXIT_DELAY",
			"inputs": [],
			"outputs": [
				{
					"name": "",
					"type": "uint256",
					"internalType": "uint256"
				}
			],
			"stateMutability": "view"
		},
		{
			"type": "function",
			"name": "SUCKER_REGISTRY",
			"inputs": [],
			"outputs": [
				{
					"name": "",
					"type": "address",
					"internalType": "contract IBPSuckerRegistry"
				}
			],
			"stateMutability": "view"
		},
		{
			"type": "function",
			"name": "allowedMintCountOf",
			"inputs": [
				{
					"name": "revnetId",
					"type": "uint256",
					"internalType": "uint256"
				},
				{
					"name": "stageId",
					"type": "uint256",
					"internalType": "uint256"
				},
				{
					"name": "beneficiary",
					"type": "address",
					"internalType": "address"
				}
			],
			"outputs": [
				{
					"name": "",
					"type": "uint256",
					"internalType": "uint256"
				}
			],
			"stateMutability": "view"
		},
		{
			"type": "function",
			"name": "beforePayRecordedWith",
			"inputs": [
				{
					"name": "context",
					"type": "tuple",
					"internalType": "struct JBBeforePayRecordedContext",
					"components": [
						{
							"name": "terminal",
							"type": "address",
							"internalType": "address"
						},
						{
							"name": "payer",
							"type": "address",
							"internalType": "address"
						},
						{
							"name": "amount",
							"type": "tuple",
							"internalType": "struct JBTokenAmount",
							"components": [
								{
									"name": "token",
									"type": "address",
									"internalType": "address"
								},
								{
									"name": "value",
									"type": "uint256",
									"internalType": "uint256"
								},
								{
									"name": "decimals",
									"type": "uint256",
									"internalType": "uint256"
								},
								{
									"name": "currency",
									"type": "uint256",
									"internalType": "uint256"
								}
							]
						},
						{
							"name": "projectId",
							"type": "uint256",
							"internalType": "uint256"
						},
						{
							"name": "rulesetId",
							"type": "uint256",
							"internalType": "uint256"
						},
						{
							"name": "beneficiary",
							"type": "address",
							"internalType": "address"
						},
						{
							"name": "weight",
							"type": "uint256",
							"internalType": "uint256"
						},
						{
							"name": "reservedRate",
							"type": "uint256",
							"internalType": "uint256"
						},
						{
							"name": "metadata",
							"type": "bytes",
							"internalType": "bytes"
						}
					]
				}
			],
			"outputs": [
				{
					"name": "weight",
					"type": "uint256",
					"internalType": "uint256"
				},
				{
					"name": "hookSpecifications",
					"type": "tuple[]",
					"internalType": "struct JBPayHookSpecification[]",
					"components": [
						{
							"name": "hook",
							"type": "address",
							"internalType": "contract IJBPayHook"
						},
						{
							"name": "amount",
							"type": "uint256",
							"internalType": "uint256"
						},
						{
							"name": "metadata",
							"type": "bytes",
							"internalType": "bytes"
						}
					]
				}
			],
			"stateMutability": "view"
		},
		{
			"type": "function",
			"name": "beforeRedeemRecordedWith",
			"inputs": [
				{
					"name": "context",
					"type": "tuple",
					"internalType": "struct JBBeforeRedeemRecordedContext",
					"components": [
						{
							"name": "terminal",
							"type": "address",
							"internalType": "address"
						},
						{
							"name": "holder",
							"type": "address",
							"internalType": "address"
						},
						{
							"name": "projectId",
							"type": "uint256",
							"internalType": "uint256"
						},
						{
							"name": "rulesetId",
							"type": "uint256",
							"internalType": "uint256"
						},
						{
							"name": "redeemCount",
							"type": "uint256",
							"internalType": "uint256"
						},
						{
							"name": "totalSupply",
							"type": "uint256",
							"internalType": "uint256"
						},
						{
							"name": "surplus",
							"type": "tuple",
							"internalType": "struct JBTokenAmount",
							"components": [
								{
									"name": "token",
									"type": "address",
									"internalType": "address"
								},
								{
									"name": "value",
									"type": "uint256",
									"internalType": "uint256"
								},
								{
									"name": "decimals",
									"type": "uint256",
									"internalType": "uint256"
								},
								{
									"name": "currency",
									"type": "uint256",
									"internalType": "uint256"
								}
							]
						},
						{
							"name": "useTotalSurplus",
							"type": "bool",
							"internalType": "bool"
						},
						{
							"name": "redemptionRate",
							"type": "uint256",
							"internalType": "uint256"
						},
						{
							"name": "metadata",
							"type": "bytes",
							"internalType": "bytes"
						}
					]
				}
			],
			"outputs": [
				{
					"name": "",
					"type": "uint256",
					"internalType": "uint256"
				},
				{
					"name": "",
					"type": "uint256",
					"internalType": "uint256"
				},
				{
					"name": "",
					"type": "uint256",
					"internalType": "uint256"
				},
				{
					"name": "specifications",
					"type": "tuple[]",
					"internalType": "struct JBRedeemHookSpecification[]",
					"components": [
						{
							"name": "hook",
							"type": "address",
							"internalType": "contract IJBRedeemHook"
						},
						{
							"name": "amount",
							"type": "uint256",
							"internalType": "uint256"
						},
						{
							"name": "metadata",
							"type": "bytes",
							"internalType": "bytes"
						}
					]
				}
			],
			"stateMutability": "view"
		},
		{
			"type": "function",
			"name": "buybackHookOf",
			"inputs": [
				{
					"name": "revnetId",
					"type": "uint256",
					"internalType": "uint256"
				}
			],
			"outputs": [
				{
					"name": "buybackHook",
					"type": "address",
					"internalType": "contract IJBRulesetDataHook"
				}
			],
			"stateMutability": "view"
		},
		{
			"type": "function",
			"name": "deploySuckersFor",
			"inputs": [
				{
					"name": "revnetId",
					"type": "uint256",
					"internalType": "uint256"
				},
				{
					"name": "encodedConfiguration",
					"type": "bytes",
					"internalType": "bytes"
				},
				{
					"name": "suckerDeploymentConfiguration",
					"type": "tuple",
					"internalType": "struct REVSuckerDeploymentConfig",
					"components": [
						{
							"name": "deployerConfigurations",
							"type": "tuple[]",
							"internalType": "struct BPSuckerDeployerConfig[]",
							"components": [
								{
									"name": "deployer",
									"type": "address",
									"internalType": "contract IBPSuckerDeployer"
								},
								{
									"name": "mappings",
									"type": "tuple[]",
									"internalType": "struct BPTokenMapping[]",
									"components": [
										{
											"name": "localToken",
											"type": "address",
											"internalType": "address"
										},
										{
											"name": "minGas",
											"type": "uint32",
											"internalType": "uint32"
										},
										{
											"name": "remoteToken",
											"type": "address",
											"internalType": "address"
										},
										{
											"name": "minBridgeAmount",
											"type": "uint256",
											"internalType": "uint256"
										}
									]
								}
							]
						},
						{
							"name": "salt",
							"type": "bytes32",
							"internalType": "bytes32"
						}
					]
				}
			],
			"outputs": [],
			"stateMutability": "nonpayable"
		},
		{
			"type": "function",
			"name": "exitDelayOf",
			"inputs": [
				{
					"name": "revnetId",
					"type": "uint256",
					"internalType": "uint256"
				}
			],
			"outputs": [
				{
					"name": "exitDelay",
					"type": "uint256",
					"internalType": "uint256"
				}
			],
			"stateMutability": "view"
		},
		{
			"type": "function",
			"name": "hasMintPermissionFor",
			"inputs": [
				{
					"name": "revnetId",
					"type": "uint256",
					"internalType": "uint256"
				},
				{
					"name": "addr",
					"type": "address",
					"internalType": "address"
				}
			],
			"outputs": [
				{
					"name": "",
					"type": "bool",
					"internalType": "bool"
				}
			],
			"stateMutability": "view"
		},
		{
			"type": "function",
			"name": "isTrustedForwarder",
			"inputs": [
				{
					"name": "forwarder",
					"type": "address",
					"internalType": "address"
				}
			],
			"outputs": [
				{
					"name": "",
					"type": "bool",
					"internalType": "bool"
				}
			],
			"stateMutability": "view"
		},
		{
			"type": "function",
			"name": "launchRevnetFor",
			"inputs": [
				{
					"name": "revnetId",
					"type": "uint256",
					"internalType": "uint256"
				},
				{
					"name": "configuration",
					"type": "tuple",
					"internalType": "struct REVConfig",
					"components": [
						{
							"name": "description",
							"type": "tuple",
							"internalType": "struct REVDescription",
							"components": [
								{
									"name": "name",
									"type": "string",
									"internalType": "string"
								},
								{
									"name": "ticker",
									"type": "string",
									"internalType": "string"
								},
								{
									"name": "uri",
									"type": "string",
									"internalType": "string"
								},
								{
									"name": "salt",
									"type": "bytes32",
									"internalType": "bytes32"
								}
							]
						},
						{
							"name": "baseCurrency",
							"type": "uint32",
							"internalType": "uint32"
						},
						{
							"name": "initialSplitOperator",
							"type": "address",
							"internalType": "address"
						},
						{
							"name": "stageConfigurations",
							"type": "tuple[]",
							"internalType": "struct REVStageConfig[]",
							"components": [
								{
									"name": "startsAtOrAfter",
									"type": "uint40",
									"internalType": "uint40"
								},
								{
									"name": "mintConfigs",
									"type": "tuple[]",
									"internalType": "struct REVMintConfig[]",
									"components": [
										{
											"name": "chainId",
											"type": "uint256",
											"internalType": "uint256"
										},
										{
											"name": "count",
											"type": "uint256",
											"internalType": "uint256"
										},
										{
											"name": "beneficiary",
											"type": "address",
											"internalType": "address"
										}
									]
								},
								{
									"name": "splitRate",
									"type": "uint16",
									"internalType": "uint16"
								},
								{
									"name": "initialIssuanceRate",
									"type": "uint112",
									"internalType": "uint112"
								},
								{
									"name": "priceCeilingIncreaseFrequency",
									"type": "uint40",
									"internalType": "uint40"
								},
								{
									"name": "priceCeilingIncreasePercentage",
									"type": "uint32",
									"internalType": "uint32"
								},
								{
									"name": "priceFloorTaxIntensity",
									"type": "uint16",
									"internalType": "uint16"
								}
							]
						}
					]
				},
				{
					"name": "terminalConfigurations",
					"type": "tuple[]",
					"internalType": "struct JBTerminalConfig[]",
					"components": [
						{
							"name": "terminal",
							"type": "address",
							"internalType": "contract IJBTerminal"
						},
						{
							"name": "tokensToAccept",
							"type": "address[]",
							"internalType": "address[]"
						}
					]
				},
				{
					"name": "buybackHookConfiguration",
					"type": "tuple",
					"internalType": "struct REVBuybackHookConfig",
					"components": [
						{
							"name": "hook",
							"type": "address",
							"internalType": "contract IJBBuybackHook"
						},
						{
							"name": "poolConfigurations",
							"type": "tuple[]",
							"internalType": "struct REVBuybackPoolConfig[]",
							"components": [
								{
									"name": "token",
									"type": "address",
									"internalType": "address"
								},
								{
									"name": "fee",
									"type": "uint24",
									"internalType": "uint24"
								},
								{
									"name": "twapWindow",
									"type": "uint32",
									"internalType": "uint32"
								},
								{
									"name": "twapSlippageTolerance",
									"type": "uint32",
									"internalType": "uint32"
								}
							]
						}
					]
				},
				{
					"name": "suckerDeploymentConfiguration",
					"type": "tuple",
					"internalType": "struct REVSuckerDeploymentConfig",
					"components": [
						{
							"name": "deployerConfigurations",
							"type": "tuple[]",
							"internalType": "struct BPSuckerDeployerConfig[]",
							"components": [
								{
									"name": "deployer",
									"type": "address",
									"internalType": "contract IBPSuckerDeployer"
								},
								{
									"name": "mappings",
									"type": "tuple[]",
									"internalType": "struct BPTokenMapping[]",
									"components": [
										{
											"name": "localToken",
											"type": "address",
											"internalType": "address"
										},
										{
											"name": "minGas",
											"type": "uint32",
											"internalType": "uint32"
										},
										{
											"name": "remoteToken",
											"type": "address",
											"internalType": "address"
										},
										{
											"name": "minBridgeAmount",
											"type": "uint256",
											"internalType": "uint256"
										}
									]
								}
							]
						},
						{
							"name": "salt",
							"type": "bytes32",
							"internalType": "bytes32"
						}
					]
				}
			],
			"outputs": [
				{
					"name": "",
					"type": "uint256",
					"internalType": "uint256"
				}
			],
			"stateMutability": "nonpayable"
		},
		{
			"type": "function",
			"name": "mintFor",
			"inputs": [
				{
					"name": "revnetId",
					"type": "uint256",
					"internalType": "uint256"
				},
				{
					"name": "stageId",
					"type": "uint256",
					"internalType": "uint256"
				},
				{
					"name": "beneficiary",
					"type": "address",
					"internalType": "address"
				}
			],
			"outputs": [],
			"stateMutability": "nonpayable"
		},
		{
			"type": "function",
			"name": "onERC721Received",
			"inputs": [
				{
					"name": "operator",
					"type": "address",
					"internalType": "address"
				},
				{
					"name": "",
					"type": "address",
					"internalType": "address"
				},
				{
					"name": "tokenId",
					"type": "uint256",
					"internalType": "uint256"
				},
				{
					"name": "data",
					"type": "bytes",
					"internalType": "bytes"
				}
			],
			"outputs": [
				{
					"name": "",
					"type": "bytes4",
					"internalType": "bytes4"
				}
			],
			"stateMutability": "view"
		},
		{
			"type": "function",
			"name": "payHookSpecificationsOf",
			"inputs": [
				{
					"name": "revnetId",
					"type": "uint256",
					"internalType": "uint256"
				}
			],
			"outputs": [
				{
					"name": "",
					"type": "tuple[]",
					"internalType": "struct JBPayHookSpecification[]",
					"components": [
						{
							"name": "hook",
							"type": "address",
							"internalType": "contract IJBPayHook"
						},
						{
							"name": "amount",
							"type": "uint256",
							"internalType": "uint256"
						},
						{
							"name": "metadata",
							"type": "bytes",
							"internalType": "bytes"
						}
					]
				}
			],
			"stateMutability": "view"
		},
		{
			"type": "function",
			"name": "replaceSplitOperatorOf",
			"inputs": [
				{
					"name": "revnetId",
					"type": "uint256",
					"internalType": "uint256"
				},
				{
					"name": "newSplitOperator",
					"type": "address",
					"internalType": "address"
				}
			],
			"outputs": [],
			"stateMutability": "nonpayable"
		},
		{
			"type": "function",
			"name": "supportsInterface",
			"inputs": [
				{
					"name": "interfaceId",
					"type": "bytes4",
					"internalType": "bytes4"
				}
			],
			"outputs": [
				{
					"name": "",
					"type": "bool",
					"internalType": "bool"
				}
			],
			"stateMutability": "view"
		},
		{
			"type": "function",
			"name": "trustedForwarder",
			"inputs": [],
			"outputs": [
				{
					"name": "",
					"type": "address",
					"internalType": "address"
				}
			],
			"stateMutability": "view"
		},
		{
			"type": "event",
			"name": "DeployRevnet",
			"inputs": [
				{
					"name": "revnetId",
					"type": "uint256",
					"indexed": true,
					"internalType": "uint256"
				},
				{
					"name": "configuration",
					"type": "tuple",
					"indexed": false,
					"internalType": "struct REVConfig",
					"components": [
						{
							"name": "description",
							"type": "tuple",
							"internalType": "struct REVDescription",
							"components": [
								{
									"name": "name",
									"type": "string",
									"internalType": "string"
								},
								{
									"name": "ticker",
									"type": "string",
									"internalType": "string"
								},
								{
									"name": "uri",
									"type": "string",
									"internalType": "string"
								},
								{
									"name": "salt",
									"type": "bytes32",
									"internalType": "bytes32"
								}
							]
						},
						{
							"name": "baseCurrency",
							"type": "uint32",
							"internalType": "uint32"
						},
						{
							"name": "initialSplitOperator",
							"type": "address",
							"internalType": "address"
						},
						{
							"name": "stageConfigurations",
							"type": "tuple[]",
							"internalType": "struct REVStageConfig[]",
							"components": [
								{
									"name": "startsAtOrAfter",
									"type": "uint40",
									"internalType": "uint40"
								},
								{
									"name": "mintConfigs",
									"type": "tuple[]",
									"internalType": "struct REVMintConfig[]",
									"components": [
										{
											"name": "chainId",
											"type": "uint256",
											"internalType": "uint256"
										},
										{
											"name": "count",
											"type": "uint256",
											"internalType": "uint256"
										},
										{
											"name": "beneficiary",
											"type": "address",
											"internalType": "address"
										}
									]
								},
								{
									"name": "splitRate",
									"type": "uint16",
									"internalType": "uint16"
								},
								{
									"name": "initialIssuanceRate",
									"type": "uint112",
									"internalType": "uint112"
								},
								{
									"name": "priceCeilingIncreaseFrequency",
									"type": "uint40",
									"internalType": "uint40"
								},
								{
									"name": "priceCeilingIncreasePercentage",
									"type": "uint32",
									"internalType": "uint32"
								},
								{
									"name": "priceFloorTaxIntensity",
									"type": "uint16",
									"internalType": "uint16"
								}
							]
						}
					]
				},
				{
					"name": "terminalConfigurations",
					"type": "tuple[]",
					"indexed": false,
					"internalType": "struct JBTerminalConfig[]",
					"components": [
						{
							"name": "terminal",
							"type": "address",
							"internalType": "contract IJBTerminal"
						},
						{
							"name": "tokensToAccept",
							"type": "address[]",
							"internalType": "address[]"
						}
					]
				},
				{
					"name": "buybackHookConfiguration",
					"type": "tuple",
					"indexed": false,
					"internalType": "struct REVBuybackHookConfig",
					"components": [
						{
							"name": "hook",
							"type": "address",
							"internalType": "contract IJBBuybackHook"
						},
						{
							"name": "poolConfigurations",
							"type": "tuple[]",
							"internalType": "struct REVBuybackPoolConfig[]",
							"components": [
								{
									"name": "token",
									"type": "address",
									"internalType": "address"
								},
								{
									"name": "fee",
									"type": "uint24",
									"internalType": "uint24"
								},
								{
									"name": "twapWindow",
									"type": "uint32",
									"internalType": "uint32"
								},
								{
									"name": "twapSlippageTolerance",
									"type": "uint32",
									"internalType": "uint32"
								}
							]
						}
					]
				},
				{
					"name": "suckerDeploymentConfiguration",
					"type": "tuple",
					"indexed": false,
					"internalType": "struct REVSuckerDeploymentConfig",
					"components": [
						{
							"name": "deployerConfigurations",
							"type": "tuple[]",
							"internalType": "struct BPSuckerDeployerConfig[]",
							"components": [
								{
									"name": "deployer",
									"type": "address",
									"internalType": "contract IBPSuckerDeployer"
								},
								{
									"name": "mappings",
									"type": "tuple[]",
									"internalType": "struct BPTokenMapping[]",
									"components": [
										{
											"name": "localToken",
											"type": "address",
											"internalType": "address"
										},
										{
											"name": "minGas",
											"type": "uint32",
											"internalType": "uint32"
										},
										{
											"name": "remoteToken",
											"type": "address",
											"internalType": "address"
										},
										{
											"name": "minBridgeAmount",
											"type": "uint256",
											"internalType": "uint256"
										}
									]
								}
							]
						},
						{
							"name": "salt",
							"type": "bytes32",
							"internalType": "bytes32"
						}
					]
				},
				{
					"name": "rulesetConfigurations",
					"type": "tuple[]",
					"indexed": false,
					"internalType": "struct JBRulesetConfig[]",
					"components": [
						{
							"name": "mustStartAtOrAfter",
							"type": "uint256",
							"internalType": "uint256"
						},
						{
							"name": "duration",
							"type": "uint256",
							"internalType": "uint256"
						},
						{
							"name": "weight",
							"type": "uint256",
							"internalType": "uint256"
						},
						{
							"name": "decayRate",
							"type": "uint256",
							"internalType": "uint256"
						},
						{
							"name": "approvalHook",
							"type": "address",
							"internalType": "contract IJBRulesetApprovalHook"
						},
						{
							"name": "metadata",
							"type": "tuple",
							"internalType": "struct JBRulesetMetadata",
							"components": [
								{
									"name": "reservedRate",
									"type": "uint256",
									"internalType": "uint256"
								},
								{
									"name": "redemptionRate",
									"type": "uint256",
									"internalType": "uint256"
								},
								{
									"name": "baseCurrency",
									"type": "uint256",
									"internalType": "uint256"
								},
								{
									"name": "pausePay",
									"type": "bool",
									"internalType": "bool"
								},
								{
									"name": "pauseCreditTransfers",
									"type": "bool",
									"internalType": "bool"
								},
								{
									"name": "allowOwnerMinting",
									"type": "bool",
									"internalType": "bool"
								},
								{
									"name": "allowSetCustomToken",
									"type": "bool",
									"internalType": "bool"
								},
								{
									"name": "allowTerminalMigration",
									"type": "bool",
									"internalType": "bool"
								},
								{
									"name": "allowSetTerminals",
									"type": "bool",
									"internalType": "bool"
								},
								{
									"name": "allowControllerMigration",
									"type": "bool",
									"internalType": "bool"
								},
								{
									"name": "allowSetController",
									"type": "bool",
									"internalType": "bool"
								},
								{
									"name": "holdFees",
									"type": "bool",
									"internalType": "bool"
								},
								{
									"name": "useTotalSurplusForRedemptions",
									"type": "bool",
									"internalType": "bool"
								},
								{
									"name": "useDataHookForPay",
									"type": "bool",
									"internalType": "bool"
								},
								{
									"name": "useDataHookForRedeem",
									"type": "bool",
									"internalType": "bool"
								},
								{
									"name": "dataHook",
									"type": "address",
									"internalType": "address"
								},
								{
									"name": "metadata",
									"type": "uint256",
									"internalType": "uint256"
								}
							]
						},
						{
							"name": "splitGroups",
							"type": "tuple[]",
							"internalType": "struct JBSplitGroup[]",
							"components": [
								{
									"name": "groupId",
									"type": "uint256",
									"internalType": "uint256"
								},
								{
									"name": "splits",
									"type": "tuple[]",
									"internalType": "struct JBSplit[]",
									"components": [
										{
											"name": "preferAddToBalance",
											"type": "bool",
											"internalType": "bool"
										},
										{
											"name": "percent",
											"type": "uint256",
											"internalType": "uint256"
										},
										{
											"name": "projectId",
											"type": "uint256",
											"internalType": "uint256"
										},
										{
											"name": "beneficiary",
											"type": "address",
											"internalType": "address payable"
										},
										{
											"name": "lockedUntil",
											"type": "uint256",
											"internalType": "uint256"
										},
										{
											"name": "hook",
											"type": "address",
											"internalType": "contract IJBSplitHook"
										}
									]
								}
							]
						},
						{
							"name": "fundAccessLimitGroups",
							"type": "tuple[]",
							"internalType": "struct JBFundAccessLimitGroup[]",
							"components": [
								{
									"name": "terminal",
									"type": "address",
									"internalType": "address"
								},
								{
									"name": "token",
									"type": "address",
									"internalType": "address"
								},
								{
									"name": "payoutLimits",
									"type": "tuple[]",
									"internalType": "struct JBCurrencyAmount[]",
									"components": [
										{
											"name": "amount",
											"type": "uint256",
											"internalType": "uint256"
										},
										{
											"name": "currency",
											"type": "uint256",
											"internalType": "uint256"
										}
									]
								},
								{
									"name": "surplusAllowances",
									"type": "tuple[]",
									"internalType": "struct JBCurrencyAmount[]",
									"components": [
										{
											"name": "amount",
											"type": "uint256",
											"internalType": "uint256"
										},
										{
											"name": "currency",
											"type": "uint256",
											"internalType": "uint256"
										}
									]
								}
							]
						}
					]
				},
				{
					"name": "encodedConfiguration",
					"type": "bytes",
					"indexed": false,
					"internalType": "bytes"
				},
				{
					"name": "isInProgress",
					"type": "bool",
					"indexed": false,
					"internalType": "bool"
				},
				{
					"name": "caller",
					"type": "address",
					"indexed": false,
					"internalType": "address"
				}
			],
			"anonymous": false
		},
		{
			"type": "event",
			"name": "DeploySuckers",
			"inputs": [
				{
					"name": "revnetId",
					"type": "uint256",
					"indexed": true,
					"internalType": "uint256"
				},
				{
					"name": "salt",
					"type": "bytes32",
					"indexed": true,
					"internalType": "bytes32"
				},
				{
					"name": "encodedConfiguration",
					"type": "bytes",
					"indexed": false,
					"internalType": "bytes"
				},
				{
					"name": "suckerDeploymentConfiguration",
					"type": "tuple",
					"indexed": false,
					"internalType": "struct REVSuckerDeploymentConfig",
					"components": [
						{
							"name": "deployerConfigurations",
							"type": "tuple[]",
							"internalType": "struct BPSuckerDeployerConfig[]",
							"components": [
								{
									"name": "deployer",
									"type": "address",
									"internalType": "contract IBPSuckerDeployer"
								},
								{
									"name": "mappings",
									"type": "tuple[]",
									"internalType": "struct BPTokenMapping[]",
									"components": [
										{
											"name": "localToken",
											"type": "address",
											"internalType": "address"
										},
										{
											"name": "minGas",
											"type": "uint32",
											"internalType": "uint32"
										},
										{
											"name": "remoteToken",
											"type": "address",
											"internalType": "address"
										},
										{
											"name": "minBridgeAmount",
											"type": "uint256",
											"internalType": "uint256"
										}
									]
								}
							]
						},
						{
							"name": "salt",
							"type": "bytes32",
							"internalType": "bytes32"
						}
					]
				},
				{
					"name": "caller",
					"type": "address",
					"indexed": false,
					"internalType": "address"
				}
			],
			"anonymous": false
		},
		{
			"type": "event",
			"name": "Mint",
			"inputs": [
				{
					"name": "revnetId",
					"type": "uint256",
					"indexed": true,
					"internalType": "uint256"
				},
				{
					"name": "stageId",
					"type": "uint256",
					"indexed": true,
					"internalType": "uint256"
				},
				{
					"name": "beneficiary",
					"type": "address",
					"indexed": true,
					"internalType": "address"
				},
				{
					"name": "count",
					"type": "uint256",
					"indexed": false,
					"internalType": "uint256"
				},
				{
					"name": "caller",
					"type": "address",
					"indexed": false,
					"internalType": "address"
				}
			],
			"anonymous": false
		},
		{
			"type": "event",
			"name": "ReplaceSplitOperator",
			"inputs": [
				{
					"name": "revnetId",
					"type": "uint256",
					"indexed": true,
					"internalType": "uint256"
				},
				{
					"name": "newSplitOperator",
					"type": "address",
					"indexed": true,
					"internalType": "address"
				},
				{
					"name": "caller",
					"type": "address",
					"indexed": false,
					"internalType": "address"
				}
			],
			"anonymous": false
		},
		{
			"type": "event",
			"name": "StoreMintPotential",
			"inputs": [
				{
					"name": "revnetId",
					"type": "uint256",
					"indexed": true,
					"internalType": "uint256"
				},
				{
					"name": "stageId",
					"type": "uint256",
					"indexed": true,
					"internalType": "uint256"
				},
				{
					"name": "beneficiary",
					"type": "address",
					"indexed": true,
					"internalType": "address"
				},
				{
					"name": "count",
					"type": "uint256",
					"indexed": false,
					"internalType": "uint256"
				},
				{
					"name": "caller",
					"type": "address",
					"indexed": false,
					"internalType": "address"
				}
			],
			"anonymous": false
		},
		{
			"type": "error",
			"name": "REVBasicDeployer_BadStageTimes",
			"inputs": []
		},
		{
			"type": "error",
			"name": "REVBasicDeployer_ExitDelayInEffect",
			"inputs": []
		},
		{
			"type": "error",
			"name": "REVBasicDeployer_StageNotStarted",
			"inputs": []
		},
		{
			"type": "error",
			"name": "REVBasicDeployer_Unauthorized",
			"inputs": []
		}
	],
	"solcInputHash": "80984f3bcdf2985beb21a155793a6006",
	"args": [
		"0x9c7993bff32dfd4e96F5C24D7AB3f9c93c303704",
		"0x01aD7869D85dC136F473DB7F4F07b8F61414f644",
		"0xB2b5841DBeF766d4b521221732F9B618fCf34A87"
	],
	"bytecode": "0x60e06040523480156200001157600080fd5b5060405162004b2438038062004b248339810160408190526200003491620000bc565b6001600160a01b0390811660805291821660a0521660c0526003805460018181018355600083905260117fc2575a0e9e593c00f959f8c92f12db2869c3395a3b0502d05e2516446f71f85b92830155825480820184556019908301558254908101909255600691015562000110565b6001600160a01b0381168114620000b957600080fd5b50565b600080600060608486031215620000d257600080fd5b8351620000df81620000a3565b6020850151909350620000f281620000a3565b60408501519092506200010581620000a3565b809150509250925092565b60805160a05160c051614951620001d3600039600081816103430152818161096b01528181610d380152818161105801528181611a890152611baf0152600081816103900152818161041f01528181610a4801528181610c3c01528181610e6701528181611130015281816112ae0152818161142901528181611601015281816116ce015281816117af015281816118770152818161194401528181611ac401526126b50152600081816101ee015281816102c5015261288c01526149516000f3fe608060405234801561001057600080fd5b50600436106101365760003560e01c80637da0a877116100b2578063aaf320d711610081578063bb19940211610066578063bb19940214610365578063eb5ad9d914610378578063ee0fc1211461038b57600080fd5b8063aaf320d71461031b578063b5d255331461033e57600080fd5b80637da0a877146102c357806382a09b30146102e95780639ab68726146102fe5780639d82ba251461031157600080fd5b8063572b6c05116101095780635c0a7cee116100ee5780635c0a7cee1461024f578063677ce0881461026f5780637249a7731461028257600080fd5b8063572b6c05146101de5780635a31dc131461021e57600080fd5b806301ffc9a71461013b578063150b7a021461016357806343681e151461018f5780634c4ffc71146101bd575b600080fd5b61014e610149366004612a81565b6103b2565b60405190151581526020015b60405180910390f35b610176610171366004612ada565b61041b565b6040516001600160e01b0319909116815260200161015a565b6101af61019d366004612b79565b60016020526000908152604090205481565b60405190815260200161015a565b6101d06101cb366004612b92565b6104e7565b60405161015a929190612c9f565b61014e6101ec366004612cc0565b7f00000000000000000000000000000000000000000000000000000000000000006001600160a01b0390811691161490565b6101af61022c366004612cdd565b600260209081526000938452604080852082529284528284209052825290205481565b61026261025d366004612b79565b6107eb565b60405161015a9190612d16565b61014e61027d366004612d29565b61090f565b6102ab610290366004612b79565b6000602081905290815260409020546001600160a01b031681565b6040516001600160a01b03909116815260200161015a565b7f00000000000000000000000000000000000000000000000000000000000000006102ab565b6102fc6102f7366004612cdd565b610a44565b005b6101af61030c366004613527565b610d0c565b6101af62278d0081565b61032e6103293660046136d2565b610d28565b60405161015a949392919061370e565b6102ab7f000000000000000000000000000000000000000000000000000000000000000081565b6102fc6103733660046137ae565b610e65565b6102fc610386366004612d29565b611121565b6102ab7f000000000000000000000000000000000000000000000000000000000000000081565b60006001600160e01b031982167f81c03c2e00000000000000000000000000000000000000000000000000000000148061041557507f01ffc9a7000000000000000000000000000000000000000000000000000000006001600160e01b03198316145b92915050565b60007f00000000000000000000000000000000000000000000000000000000000000006001600160a01b031663293c49996040518163ffffffff1660e01b8152600401602060405180830381865afa15801561047b573d6000803e3d6000fd5b505050506040513d601f19601f8201168201806040525081019061049f9190613832565b6001600160a01b0316336001600160a01b0316146104bc57600080fd5b507f150b7a020000000000000000000000000000000000000000000000000000000095945050505050565b60c081013560009081526020819052604081205460609081906001600160a01b031680156105a3576040517f4c4ffc710000000000000000000000000000000000000000000000000000000081526001600160a01b03821690634c4ffc71906105549088906004016138fa565b600060405180830381865afa158015610571573d6000803e3d6000fd5b505050506040513d6000823e601f3d908101601f1916820160405261059991908101906139cb565b90945091506105ac565b84610120013593505b815160c086013560009081526005602090815260408083208054825181850281018501909352808352941515949192909190849084015b828210156106c7576000848152602090819020604080516060810182526003860290920180546001600160a01b031683526001810154938301939093526002830180549293929184019161063690613b13565b80601f016020809104026020016040519081016040528092919081815260200182805461066290613b13565b80156106af5780601f10610684576101008083540402835291602001916106af565b820191906000526020600020905b81548152906001019060200180831161069257829003601f168201915b505050505081525050815260200190600101906105e3565b505050509050600081519050826106df5760006106e2565b60015b6106ef9060ff1682613b63565b67ffffffffffffffff81111561070757610707612d59565b60405190808252806020026020018201604052801561075457816020015b604080516060808201835260008083526020830152918101919091528152602001906001900390816107255790505b50955060005b818110156107a15782818151811061077457610774613b76565b602002602001015187828151811061078e5761078e613b76565b602090810291909101015260010161075a565b5082156107e157846000815181106107bb576107bb613b76565b60200260200101518682815181106107d5576107d5613b76565b60200260200101819052505b5050505050915091565b606060056000838152602001908152602001600020805480602002602001604051908101604052809291908181526020016000905b82821015610904576000848152602090819020604080516060810182526003860290920180546001600160a01b031683526001810154938301939093526002830180549293929184019161087390613b13565b80601f016020809104026020016040519081016040528092919081815260200182805461089f90613b13565b80156108ec5780601f106108c1576101008083540402835291602001916108ec565b820191906000526020600020905b8154815290600101906020018083116108cf57829003601f168201915b50505050508152505081526020019060010190610820565b505050509050919050565b6000828152602081905260408120546001600160a01b039081169083160361093957506001610415565b6040517f3d12cb87000000000000000000000000000000000000000000000000000000008152600481018490526000907f00000000000000000000000000000000000000000000000000000000000000006001600160a01b031690633d12cb8790602401600060405180830381865afa1580156109ba573d6000803e3d6000fd5b505050506040513d6000823e601f3d908101601f191682016040526109e29190810190613b8c565b805190915060005b81811015610a3857828181518110610a0457610a04613b76565b60200260200101516001600160a01b0316856001600160a01b031603610a305760019350505050610415565b6001016109ea565b50600095945050505050565b60007f00000000000000000000000000000000000000000000000000000000000000006001600160a01b031663d4a1b4b16040518163ffffffff1660e01b8152600401602060405180830381865afa158015610aa4573d6000803e3d6000fd5b505050506040513d601f19601f82011682018060405250810190610ac89190613832565b6040517f25a61d5c00000000000000000000000000000000000000000000000000000000815260048101869052602481018590526001600160a01b0391909116906325a61d5c9060440161012060405180830381865afa158015610b30573d6000803e3d6000fd5b505050506040513d601f19601f82011682018060405250810190610b549190613c31565b90504281606001511115610b94576040517f13dec85c00000000000000000000000000000000000000000000000000000000815260040160405180910390fd5b600084815260026020908152604080832084830151845282528083206001600160a01b038616845290915281205490819003610bd1575050505050565b600085815260026020908152604080832087845282528083206001600160a01b038781168086529190935281842084905590516363fdc96f60e11b81526004810189905260248101859052604481019190915260a0606482015260a4810183905260848101929092527f0000000000000000000000000000000000000000000000000000000000000000169063c7fb92de9060c4016020604051808303816000875af1158015610c85573d6000803e3d6000fd5b505050506040513d601f19601f82011682018060405250810190610ca99190613cb1565b50826001600160a01b03168260200151867f598baf7bf150ca2f42be9e9f8f55e81d45f5715c3ff22bf46d697fabec7f31d68433604051610cfd9291909182526001600160a01b0316602082015260400190565b60405180910390a45050505050565b6000610d1e86868686306000886115e0565b9695505050505050565b6000808060606001600160a01b037f0000000000000000000000000000000000000000000000000000000000000000166383db9d0160408701803590610d719060208a01612cc0565b6040516001600160e01b031960e085901b16815260048101929092526001600160a01b03166024820152604401602060405180830381865afa158015610dbb573d6000803e3d6000fd5b505050506040513d601f19601f82011682018060405250810190610ddf9190613cca565b15610dfc5761271085608001358660a00135935093509350610e5e565b604080860135600090815260016020522054421015610e47576040517f04c3b3cd00000000000000000000000000000000000000000000000000000000815260040160405180910390fd5b84610160013585608001358660a001359350935093505b9193509193565b7f00000000000000000000000000000000000000000000000000000000000000006001600160a01b0316631f47ce696040518163ffffffff1660e01b8152600401602060405180830381865afa158015610ec3573d6000803e3d6000fd5b505050506040513d601f19601f82011682018060405250810190610ee79190613832565b6001600160a01b031663f434c9146040518163ffffffff1660e01b8152600401602060405180830381865afa158015610f24573d6000803e3d6000fd5b505050506040513d601f19601f82011682018060405250810190610f489190613832565b6001600160a01b031663632af95f610f5e611cdd565b3086610f6988611cec565b6000806040518763ffffffff1660e01b8152600401610f8d96959493929190613d28565b602060405180830381865afa158015610faa573d6000803e3d6000fd5b505050506040513d601f19601f82011682018060405250810190610fce9190613cca565b610feb576040516331fb21f360e01b815260040160405180910390fd5b6000610ff5611cdd565b83836020015160405160200161100d93929190613d74565b60408051601f1981840301815290829052805160209091012083517f2f3f50e00000000000000000000000000000000000000000000000000000000083529092506001600160a01b037f00000000000000000000000000000000000000000000000000000000000000001691632f3f50e09161108f9188918691600401613e7e565b6000604051808303816000875af11580156110ae573d6000803e3d6000fd5b505050506040513d6000823e601f3d908101601f191682016040526110d69190810190613b8c565b5080847f755ecfca2f6e66af8868551556bf7931740a7062db8e0882f4c322fdb0bb3f608585611104611cdd565b60405161111393929190613ec6565b60405180910390a350505050565b600061112c83611cec565b90507f00000000000000000000000000000000000000000000000000000000000000006001600160a01b0316631f47ce696040518163ffffffff1660e01b8152600401602060405180830381865afa15801561118c573d6000803e3d6000fd5b505050506040513d601f19601f820116820180604052508101906111b09190613832565b6001600160a01b031663f434c9146040518163ffffffff1660e01b8152600401602060405180830381865afa1580156111ed573d6000803e3d6000fd5b505050506040513d601f19601f820116820180604052508101906112119190613832565b6001600160a01b031663632af95f611227611cdd565b3086856000806040518763ffffffff1660e01b815260040161124e96959493929190613d28565b602060405180830381865afa15801561126b573d6000803e3d6000fd5b505050506040513d601f19601f8201168201806040525081019061128f9190613cca565b6112ac576040516331fb21f360e01b815260040160405180910390fd5b7f00000000000000000000000000000000000000000000000000000000000000006001600160a01b0316631f47ce696040518163ffffffff1660e01b8152600401602060405180830381865afa15801561130a573d6000803e3d6000fd5b505050506040513d601f19601f8201168201806040525081019061132e9190613832565b6001600160a01b031663f434c9146040518163ffffffff1660e01b8152600401602060405180830381865afa15801561136b573d6000803e3d6000fd5b505050506040513d601f19601f8201168201806040525081019061138f9190613832565b6001600160a01b03166305d2912e3060405180606001604052806113b1611cdd565b6001600160a01b0316815260208082018990526040805160008152918201815291820152516001600160e01b031960e085901b1681526113f5929190600401613f05565b600060405180830381600087803b15801561140f57600080fd5b505af1158015611423573d6000803e3d6000fd5b505050507f00000000000000000000000000000000000000000000000000000000000000006001600160a01b0316631f47ce696040518163ffffffff1660e01b8152600401602060405180830381865afa158015611485573d6000803e3d6000fd5b505050506040513d601f19601f820116820180604052508101906114a99190613832565b6001600160a01b031663f434c9146040518163ffffffff1660e01b8152600401602060405180830381865afa1580156114e6573d6000803e3d6000fd5b505050506040513d601f19601f8201168201806040525081019061150a9190613832565b6001600160a01b03166305d2912e306040518060600160405280866001600160a01b03168152602001878152602001858152506040518363ffffffff1660e01b815260040161155a929190613f05565b600060405180830381600087803b15801561157457600080fd5b505af1158015611588573d6000803e3d6000fd5b50505050816001600160a01b0316837f0329d6a81434b130c72eb65eea0e32e429dc1277b4aad86ec86454aefb6184516115c0611cdd565b6040516001600160a01b03909116815260200160405180910390a3505050565b6000806000806115f18a8888611ea4565b9250925092508a6000036116cc577f00000000000000000000000000000000000000000000000000000000000000006001600160a01b0316639e14fb80308c6000015160400151868d8f60000151602001516040516020016116539190613f48565b6040516020818303038152906040526040518663ffffffff1660e01b815260040161168295949392919061439f565b6020604051808303816000875af11580156116a1573d6000803e3d6000fd5b505050506040513d601f19601f820116820180604052508101906116c59190613cb1565b9a5061178a565b7f00000000000000000000000000000000000000000000000000000000000000006001600160a01b03166321df42e88c858c8e60000151602001516040516020016117179190613f48565b6040516020818303038152906040526040518563ffffffff1660e01b81526004016117459493929190614407565b6020604051808303816000875af1158015611764573d6000803e3d6000fd5b505050506040513d601f19601f820116820180604052508101906117889190613cb1565b505b80156117ad5761179d62278d0042613b63565b60008c8152600160205260409020555b7f00000000000000000000000000000000000000000000000000000000000000006001600160a01b031663581781918c8c60000151600001518d60000151602001518e60000151606001516040518563ffffffff1660e01b81526004016118179493929190614446565b6020604051808303816000875af1158015611836573d6000803e3d6000fd5b505050506040513d601f19601f8201168201806040525081019061185a9190613832565b5087516001600160a01b031615611875576118758b896122cd565b7f00000000000000000000000000000000000000000000000000000000000000006001600160a01b031663dd5f214a8c60006118b48e60400151612438565b6040518463ffffffff1660e01b81526004016118d293929190614483565b600060405180830381600087803b1580156118ec57600080fd5b505af1158015611900573d6000803e3d6000fd5b5050505061190e8b8b612576565b600060405180606001604052808c604001516001600160a01b031681526020018d815260200161193d8e611cec565b81525090507f00000000000000000000000000000000000000000000000000000000000000006001600160a01b031663f434c9146040518163ffffffff1660e01b8152600401602060405180830381865afa1580156119a0573d6000803e3d6000fd5b505050506040513d601f19601f820116820180604052508101906119c49190613832565b6001600160a01b03166305d2912e30836040518363ffffffff1660e01b81526004016119f1929190613f05565b600060405180830381600087803b158015611a0b57600080fd5b505af1158015611a1f573d6000803e3d6000fd5b506000925060019150611a2f9050565b604051908082528060200260200182016040528015611a58578160200160208202803683370190505b509050601c81600081518110611a7057611a70613b76565b60200260200101818152505060405180606001604052807f00000000000000000000000000000000000000000000000000000000000000006001600160a01b031681526020018e81526020018281525091507f00000000000000000000000000000000000000000000000000000000000000006001600160a01b031663f434c9146040518163ffffffff1660e01b8152600401602060405180830381865afa158015611b20573d6000803e3d6000fd5b505050506040513d601f19601f82011682018060405250810190611b449190613832565b6001600160a01b03166305d2912e30846040518363ffffffff1660e01b8152600401611b71929190613f05565b600060405180830381600087803b158015611b8b57600080fd5b505af1158015611b9f573d6000803e3d6000fd5b50505050602087015115611c7f577f00000000000000000000000000000000000000000000000000000000000000006001600160a01b0316632f3f50e08e611be5611cdd565b878b60200151604051602001611bfd93929190613d74565b60408051601f198184030181529082905280516020909101208b516001600160e01b031960e086901b168352611c369392600401613e7e565b6000604051808303816000875af1158015611c55573d6000803e3d6000fd5b505050506040513d6000823e601f3d908101601f19168201604052611c7d9190810190613b8c565b505b8c7fabdf3ec8139195645b1e44778a910396624b7d2913c04b613f4800ad25d710468d8d8d8b8a8a8a611cb0611cdd565b604051611cc498979695949392919061470a565b60405180910390a2509a9b9a5050505050505050505050565b6000611ce761287c565b905090565b606060006003805480602002602001604051908101604052809291908181526020018280548015611d3c57602002820191906000526020600020905b815481526020019060010190808311611d28575b50508351600088815260046020908152604080832080548251818502810185019093528083529899509397929650945091925090830182828015611d9f57602002820191906000526020600020905b815481526020019060010190808311611d8b575b50508351939450611db69250839150859050613b63565b67ffffffffffffffff811115611dce57611dce612d59565b604051908082528060200260200182016040528015611df7578160200160208202803683370190505b50945060005b83811015611e4457848181518110611e1757611e17613b76565b6020026020010151868281518110611e3157611e31613b76565b6020908102919091010152600101611dfd565b5060005b81811015611e9a57828181518110611e6257611e62613b76565b6020026020010151868286611e779190613b63565b81518110611e8757611e87613b76565b6020908102919091010152600101611e48565b5050505050919050565b6060838101515181906000908067ffffffffffffffff811115611ec957611ec9612d59565b604051908082528060200260200182016040528015611fc357816020015b611fb06040805161010080820183526000808352602080840182905283850182905260608085018390526080808601849052865161022081018852848152928301849052958201839052810182905293840181905260a084810182905260c0850182905260e0850182905291840181905261012084018190526101408401819052610160840181905261018084018190526101a084018190526101c084018190526101e08401819052610200840152909190820190815260200160608152602001606081525090565b815260200190600190039081611ee75790505b509350611fcf876128f1565b6040805160e08101825260008082526060602083018190529282018190529181018290526080810182905260a0810182905260c08101829052919450805b838110156122c0578960600151818151811061202b5761202b613b76565b6020026020010151925081836000015164ffffffffff1611612079576040517f0aec2d6900000000000000000000000000000000000000000000000000000000815260040160405180910390fd5b826000015164ffffffffff1687828151811061209757612097613b76565b60200260200101516000018181525050826080015164ffffffffff168782815181106120c5576120c5613b76565b6020026020010151602001818152505082606001516dffffffffffffffffffffffffffff168782815181106120fc576120fc613b76565b602002602001015160400181815250508260a0015163ffffffff1687828151811061212957612129613b76565b60200260200101516060018181525050600087828151811061214d5761214d613b76565b6020026020010151608001906001600160a01b031690816001600160a01b031681525050604051806102200160405280846040015161ffff1681526020018460c0015161ffff166127106121a1919061485d565b815260208c81015163ffffffff16908201526000604082018190526060820181905260016080830181905260a0830182905260c0830182905260e0830182905261010083018290526101208301829052610140830182905261016083018290526101808301526101a08201526001600160a01b038b166101c08201526101e001899052875188908390811061223857612238613b76565b602002602001015160a0018190525080600014801561225e5750825164ffffffffff1615155b8015612274575042836000015164ffffffffff16105b1561227e57600194505b85612289848361292b565b60405160200161229a929190614870565b60408051601f19818403018152919052835190965064ffffffffff16915060010161200d565b5050505093509350939050565b602081810151516040805160808101825260008082529381018490529081018390526060810183905290915b828110156123ec578360200151818151811061231757612317613b76565b6020908102919091018101518551918101516040808301516060840151845192517f7b621d3a000000000000000000000000000000000000000000000000000000008152600481018c905262ffffff909416602485015263ffffffff91821660448501521660648301526001600160a01b039081166084830152919450911690637b621d3a9060a4016020604051808303816000875af11580156123bf573d6000803e3d6000fd5b505050506040513d601f19601f820116820180604052508101906123e39190613832565b506001016122f9565b5050905160009283526020839052604090922080547fffffffffffffffffffffffff0000000000000000000000000000000000000000166001600160a01b039093169290921790915550565b604080516001808252818301909252606091816020015b60408051808201909152600081526060602082015281526020019060019003908161244f57505060408051600180825281830190925291925060009190602082015b6040805160c08101825260008082526020808301829052928201819052606082018190526080820181905260a082015282526000199092019101816124915790505090506040518060c00160405280600015158152602001633b9aca00815260200160008152602001846001600160a01b031681526020016000815260200160006001600160a01b03168152508160008151811061253157612531613b76565b6020026020010181905250604051806040016040528060018152602001828152508260008151811061256557612565613b76565b602002602001018190525050919050565b606080820151516040805160e0810182526000808252602082018590529181018290529283018190526080830181905260a0830181905260c08301529060005b8281101561287557836060015181815181106125d4576125d4613b76565b60200260200101519150600082602001515190506126156040518060600160405280600081526020016000815260200160006001600160a01b031681525090565b60005b8281101561286a578460200151818151811061263657612636613b76565b602002602001015191504682600001510361286257831580612663575042856000015164ffffffffff1611155b1561279057602082015160408084015190516363fdc96f60e11b8152600481018b905260248101929092526001600160a01b03908116604483015260a06064830152600060a4830181905260848301527f0000000000000000000000000000000000000000000000000000000000000000169063c7fb92de9060c4016020604051808303816000875af11580156126fe573d6000803e3d6000fd5b505050506040513d601f19601f820116820180604052508101906127229190613cb1565b5060408201516001600160a01b031661273b8542613b63565b897f598baf7bf150ca2f42be9e9f8f55e81d45f5715c3ff22bf46d697fabec7f31d68560200151336040516127839291909182526001600160a01b0316602082015260400190565b60405180910390a4612862565b60208083015160008a815260029092526040822090916127b08742613b63565b8152602001908152602001600020600084604001516001600160a01b03166001600160a01b0316815260200190815260200160002060008282546127f49190613b63565b909155505060408201516001600160a01b03166128118542613b63565b897f9e83979117d75aa75fe101361cf46235d3d0a6fa7afafb275d2b9f8af02273138560200151336040516128599291909182526001600160a01b0316602082015260400190565b60405180910390a45b600101612618565b5050506001016125b6565b5050505050565b6000366014336001600160a01b037f0000000000000000000000000000000000000000000000000000000000000000161480156128b95750808210155b156128e9576000366128cb838561485d565b6128d692829061489f565b6128df916148c9565b60601c9250505090565b339250505090565b602080820151825180518184015160609283015160405193956129159594016148fc565b6040516020818303038152906040529050919050565b6060811580156129415750825164ffffffffff16155b61295357825164ffffffffff16612955565b425b6040808501516060860151608087015160a088015160c089015194516129c696959060200195865261ffff94851660208701526dffffffffffffffffffffffffffff93909316604086015264ffffffffff91909116606085015263ffffffff1660808401521660a082015260c00190565b60408051601f1981840301815291905260208401515190915060005b81811015612a3c5782612a1186602001518381518110612a0457612a04613b76565b6020026020010151612a44565b604051602001612a22929190614870565b60408051601f1981840301815291905292506001016129e2565b505092915050565b6060816000015182604001518360200151604051602001612915939291909283526001600160a01b03919091166020830152604082015260600190565b600060208284031215612a9357600080fd5b81356001600160e01b031981168114612aab57600080fd5b9392505050565b6001600160a01b0381168114612ac757600080fd5b50565b8035612ad581612ab2565b919050565b600080600080600060808688031215612af257600080fd5b8535612afd81612ab2565b94506020860135612b0d81612ab2565b935060408601359250606086013567ffffffffffffffff80821115612b3157600080fd5b818801915088601f830112612b4557600080fd5b813581811115612b5457600080fd5b896020828501011115612b6657600080fd5b9699959850939650602001949392505050565b600060208284031215612b8b57600080fd5b5035919050565b600060208284031215612ba457600080fd5b813567ffffffffffffffff811115612bbb57600080fd5b82016101808185031215612aab57600080fd5b60005b83811015612be9578181015183820152602001612bd1565b50506000910152565b60008151808452612c0a816020860160208601612bce565b601f01601f19169290920160200192915050565b600082825180855260208086019550808260051b84010181860160005b84811015612c9257858303601f19018952815180516001600160a01b031684528481015185850152604090810151606091850182905290612c7e81860183612bf2565b9a86019a9450505090830190600101612c3b565b5090979650505050505050565b828152604060208201526000612cb86040830184612c1e565b949350505050565b600060208284031215612cd257600080fd5b8135612aab81612ab2565b600080600060608486031215612cf257600080fd5b83359250602084013591506040840135612d0b81612ab2565b809150509250925092565b602081526000612aab6020830184612c1e565b60008060408385031215612d3c57600080fd5b823591506020830135612d4e81612ab2565b809150509250929050565b634e487b7160e01b600052604160045260246000fd5b6040516060810167ffffffffffffffff81118282101715612d9257612d92612d59565b60405290565b60405160e0810167ffffffffffffffff81118282101715612d9257612d92612d59565b6040805190810167ffffffffffffffff81118282101715612d9257612d92612d59565b6040516080810167ffffffffffffffff81118282101715612d9257612d92612d59565b604051610120810167ffffffffffffffff81118282101715612d9257612d92612d59565b604051601f8201601f1916810167ffffffffffffffff81118282101715612e4e57612e4e612d59565b604052919050565b600067ffffffffffffffff821115612e7057612e70612d59565b50601f01601f191660200190565b6000612e91612e8c84612e56565b612e25565b9050828152838383011115612ea557600080fd5b828260208301376000602084830101529392505050565b600082601f830112612ecd57600080fd5b612aab83833560208501612e7e565b803563ffffffff81168114612ad557600080fd5b600067ffffffffffffffff821115612f0a57612f0a612d59565b5060051b60200190565b803564ffffffffff81168114612ad557600080fd5b600082601f830112612f3a57600080fd5b81356020612f4a612e8c83612ef0565b82815260609283028501820192828201919087851115612f6957600080fd5b8387015b85811015612c925781818a031215612f855760008081fd5b612f8d612d6f565b813581528582013586820152604080830135612fa881612ab2565b908201528452928401928101612f6d565b803561ffff81168114612ad557600080fd5b80356dffffffffffffffffffffffffffff81168114612ad557600080fd5b600082601f830112612ffa57600080fd5b8135602061300a612e8c83612ef0565b82815260059290921b8401810191818101908684111561302957600080fd5b8286015b8481101561310b57803567ffffffffffffffff8082111561304e5760008081fd5b9088019060e0828b03601f19018113156130685760008081fd5b613070612d98565b61307b888501612f14565b8152604080850135848111156130915760008081fd5b61309f8e8b83890101612f29565b8a84015250606093506130b3848601612fb9565b9082015260806130c4858201612fcb565b8483015260a093506130d7848601612f14565b9082015260c06130e8858201612edc565b848301526130f7838601612fb9565b90820152865250505091830191830161302d565b509695505050505050565b600082601f83011261312757600080fd5b81356020613137612e8c83612ef0565b828152600592831b850182019282820191908785111561315657600080fd5b8387015b85811015612c9257803567ffffffffffffffff8082111561317b5760008081fd5b908901906040828c03601f19018113156131955760008081fd5b61319d612dbb565b888401356131aa81612ab2565b815283820135838111156131be5760008081fd5b8085019450508c603f8501126131d657600092508283fd5b8884013592506131e8612e8c84612ef0565b83815292861b8401820192898101908e8511156132055760008081fd5b948301945b8486101561322f578535935061321f84612ab2565b838252948a0194908a019061320a565b828b015250875250505092840192840161315a565b6000604080838503121561325757600080fd5b61325f612dbb565b9150823561326c81612ab2565b825260208381013567ffffffffffffffff81111561328957600080fd5b8401601f8101861361329a57600080fd5b80356132a8612e8c82612ef0565b81815260079190911b820183019083810190888311156132c757600080fd5b928401925b82841015613346576080848a0312156132e55760008081fd5b6132ed612dde565b84356132f881612ab2565b81528486013562ffffff811681146133105760008081fd5b8187015261331f858801612edc565b878201526060613330818701612edc565b90820152825260809390930192908401906132cc565b808588015250505050505092915050565b60006040828403121561336957600080fd5b613371612dbb565b905067ffffffffffffffff808335111561338a57600080fd5b8235830184601f82011261339d57600080fd5b6133aa612e8c8235612ef0565b81358082526020808301929160051b840101878111156133c957600080fd5b602084015b8181101561350e5785813511156133e457600080fd5b803585016040818b03601f190112156133fc57600080fd5b613404612dbb565b6134116020830135612ab2565b60208201358152876040830135111561342957600080fd5b6040820135820191508a603f83011261344157600080fd5b6020820135613452612e8c82612ef0565b81815260079190911b83016040019060208101908d83111561347357600080fd5b6040850194505b828510156134ef576080858f03121561349257600080fd5b61349a612dde565b6134a48635612ab2565b853581526134b460208701612edc565b60208201526134c66040870135612ab2565b60408601356040820152606086013560608201528083525060208201915060808501945061347a565b80602085015250505080865250506020840193506020810190506133ce565b5050808552505050506020820135602082015292915050565b600080600080600060a0868803121561353f57600080fd5b85359450602086013567ffffffffffffffff8082111561355e57600080fd5b908701906080828a03121561357257600080fd5b61357a612dde565b82358281111561358957600080fd5b83016080818c03121561359b57600080fd5b6135a3612dde565b8135848111156135b257600080fd5b6135be8d828501612ebc565b8252506020820135848111156135d357600080fd5b6135df8d828501612ebc565b6020830152506040820135848111156135f757600080fd5b6136038d828501612ebc565b60408301525060608201356060820152808352505061362460208401612edc565b602082015261363560408401612aca565b604082015260608301358281111561364c57600080fd5b6136588b828601612fe9565b6060830152509550604088013591508082111561367457600080fd5b61368089838a01613116565b9450606088013591508082111561369657600080fd5b6136a289838a01613244565b935060808801359150808211156136b857600080fd5b506136c588828901613357565b9150509295509295909350565b6000602082840312156136e457600080fd5b813567ffffffffffffffff8111156136fb57600080fd5b82016101a08185031215612aab57600080fd5b60006080820186835260208681850152604086604086015260606080606087015283875180865260a08801915060a08160051b890101955084890160005b8281101561379c57898803609f19018452815180516001600160a01b0316895287810151888a0152860151868901869052613789868a0182612bf2565b985050928601929086019060010161374c565b50959c9b505050505050505050505050565b6000806000606084860312156137c357600080fd5b83359250602084013567ffffffffffffffff808211156137e257600080fd5b818601915086601f8301126137f657600080fd5b61380587833560208501612e7e565b9350604086013591508082111561381b57600080fd5b5061382886828701613357565b9150509250925092565b60006020828403121561384457600080fd5b8151612aab81612ab2565b803561385a81612ab2565b6001600160a01b031682526020818101359083015260408082013590830152606090810135910152565b6000808335601e1984360301811261389b57600080fd5b830160208101925035905067ffffffffffffffff8111156138bb57600080fd5b8036038213156138ca57600080fd5b9250929050565b81835281816020850137506000828201602090810191909152601f909101601f19169091010190565b6020815261391b6020820161390e84612aca565b6001600160a01b03169052565b600061392960208401612aca565b6001600160a01b038116604084015250613949606083016040850161384f565b60c083013560e083015261010060e08401358184015261396a818501612aca565b9050610120613983818501836001600160a01b03169052565b610140915080850135828501525061016081850135818501526139a881860186613884565b61018086810152925090506139c26101a0850183836138d1565b95945050505050565b60008060408084860312156139df57600080fd5b8351925060208085015167ffffffffffffffff808211156139ff57600080fd5b818701915087601f830112613a1357600080fd5b8151613a21612e8c82612ef0565b81815260059190911b8301840190848101908a831115613a4057600080fd5b8585015b83811015613b0157805185811115613a5b57600080fd5b86016060818e03601f19011215613a725760008081fd5b613a7a612d6f565b88820151613a8781612ab2565b8152818a015189820152606082015187811115613aa45760008081fd5b8083019250508d603f830112613aba5760008081fd5b88820151613aca612e8c82612e56565b8181528f8c838601011115613adf5760008081fd5b613aee828c83018e8701612bce565b828c015250845250918601918601613a44565b50809750505050505050509250929050565b600181811c90821680613b2757607f821691505b602082108103613b4757634e487b7160e01b600052602260045260246000fd5b50919050565b634e487b7160e01b600052601160045260246000fd5b8082018082111561041557610415613b4d565b634e487b7160e01b600052603260045260246000fd5b60006020808385031215613b9f57600080fd5b825167ffffffffffffffff811115613bb657600080fd5b8301601f81018513613bc757600080fd5b8051613bd5612e8c82612ef0565b81815260059190911b82018301908381019087831115613bf457600080fd5b928401925b82841015613c1b578351613c0c81612ab2565b82529284019290840190613bf9565b979650505050505050565b8051612ad581612ab2565b60006101208284031215613c4457600080fd5b613c4c612e01565b825181526020830151602082015260408301516040820152606083015160608201526080830151608082015260a083015160a082015260c083015160c0820152613c9860e08401613c26565b60e0820152610100928301519281019290925250919050565b600060208284031215613cc357600080fd5b5051919050565b600060208284031215613cdc57600080fd5b81518015158114612aab57600080fd5b60008151808452602080850194506020840160005b83811015613d1d57815187529582019590820190600101613d01565b509495945050505050565b60006001600160a01b03808916835280881660208401525085604083015260c06060830152613d5a60c0830186613cec565b93151560808301525090151560a090910152949350505050565b6bffffffffffffffffffffffff198460601b16815260008351613d9e816014850160208801612bce565b60149201918201929092526034019392505050565b600082825180855260208086019550808260051b8401018186016000805b85811015613e7057868403601f19018a52825180516001600160a01b03908116865290860151604087870181905281518188018190529188019290916060919082890190875b81811015613e585786518051851684528c81015163ffffffff168d8501528681015185168785015285015185840152958b0195608090920191600101613e17565b50509d89019d97505050938601935050600101613dd1565b509198975050505050505050565b8381528260208201526060604082015260006139c26060830184613db3565b6000815160408452613eb26040850182613db3565b602093840151949093019390935250919050565b606081526000613ed96060830186612bf2565b8281036020840152613eeb8186613e9d565b9150506001600160a01b0383166040830152949350505050565b60006001600160a01b0380851683526040602084015280845116604084015250602083015160608301526040830151606060808401526139c260a0840182613cec565b7f2400000000000000000000000000000000000000000000000000000000000000815260008251613f80816001850160208701612bce565b7f207265766e6574206465706c6f796564000000000000000000000000000000006001939091019283015250601101919050565b8051825260208101516020830152604081015160408301526060810151613fdf606084018215159052565b506080810151613ff3608084018215159052565b5060a081015161400760a084018215159052565b5060c081015161401b60c084018215159052565b5060e081015161402f60e084018215159052565b5061010081810151151590830152610120808201511515908301526101408082015115159083015261016080820151151590830152610180808201511515908301526101a0808201511515908301526101c0808201511515908301526101e0808201516001600160a01b03169083015261020090810151910152565b600082825180855260208086019550808260051b8401018186016000805b85811015613e7057868403601f19018a52825180518552850151604086860181905281518187018190529187019160609081880190865b8181101561415a5785518051151584528b8101518c8501528581015186850152848101516001600160a01b03908116868601526080808301519086015260a0918201511690840152948a019460c090920191600101614100565b50509c88019c9650505092850192506001016140c9565b60008151808452602080850194506020840160005b83811015613d1d578151805188528301518388015260409096019590820190600101614186565b600082825180855260208086019550808260051b84010181860160005b84811015612c9257601f19868403018952815160806001600160a01b038083511686528087840151168787015250604080830151828288015261420f83880182614171565b925050506060808301519250858203818701525061422d8183614171565b9a86019a94505050908301906001016141ca565b600082825180855260208086019550808260051b84010181860160005b84811015612c9257858303601f19018952815180518452848101518585015260408082015190850152606080820151908501526080808201516001600160a01b03169085015260a08082015161030091906142bb82880182613fb4565b505060c0820151816102c08701526142d5828701826140ab565b91505060e082015191508481036102e08601526142f281836141ad565b9a86019a945050509083019060010161425e565b600082825180855260208086019550808260051b8401018186016000805b85811015613e7057868403601f19018a52825180516001600160a01b03908116865290860151604087870181905281519087018190529087019160608701918591905b8083101561438957845182168452938901939289019260019290920191614367565b5050509a86019a94505091840191600101614324565b6001600160a01b038616815260a0602082015260006143c160a0830187612bf2565b82810360408401526143d38187614241565b905082810360608401526143e78186614306565b905082810360808401526143fb8185612bf2565b98975050505050505050565b8481526080602082015260006144206080830186614241565b82810360408401526144328186614306565b90508281036060840152613c1b8185612bf2565b84815260806020820152600061445f6080830186612bf2565b82810360408401526144718186612bf2565b91505082606083015295945050505050565b600060608083018684526020868186015260406060604087015282875180855260808801915060808160051b890101945083890160005b8281101561456157898703607f190184528151805188528601518688018690528051868901819052908701906000908a8a01905b8083101561454c5783518051151583528a8101518b840152898101518a8401528c8101516001600160a01b039081168e8501526080808301519085015260a0918201511690830152928901926001929092019160c0909101906144ee565b509850505092850192908501906001016144ba565b50949b9a5050505050505050505050565b600082825180855260208086019550808260051b8401018186016000805b85811015613e7057868403601f19018a528251805164ffffffffff1685528581015160e0878701819052815190870181905261010087019188019085905b8082101561460d578251805185528a8101518b8601526040908101516001600160a01b03169085015260609093019291890191600191909101906145ce565b50505060408281015161ffff908116918801919091526060808401516dffffffffffffffffffffffffffff169088015260808084015164ffffffffff169088015260a08084015163ffffffff169088015260c0928301511691909501529884019891840191600101614590565b600060408084016001600160a01b038085511686526020808601516040828901528381518086526060955060608a019150838301925060005b818110156146fb5783518051871684528581015162ffffff16868501528881015163ffffffff9081168a860152908801511687840152928401926080909201916001016146b3565b50909998505050505050505050565b60006101008083528a51608082850152805191506080610180850152614734610200850183612bf2565b9150602081015161017f1980868503016101a08701526147548483612bf2565b93506040830151915080868503016101c0870152506147738382612bf2565b92505060608101516101e08501525060208b015161479a61012085018263ffffffff169052565b5060408b01516001600160a01b031661014084015260608b015183820360ff19016101608501526147cb8282614572565b91505082810360208401526147e0818b614306565b905082810360408401526147f4818a61467a565b905082810360608401526148088189613e9d565b9050828103608084015261481c8188614241565b905082810360a08401526148308187612bf2565b91505061484160c083018515159052565b6001600160a01b03831660e08301529998505050505050505050565b8181038181111561041557610415613b4d565b60008351614882818460208801612bce565b835190830190614896818360208801612bce565b01949350505050565b600080858511156148af57600080fd5b838611156148bc57600080fd5b5050820193919092039150565b6bffffffffffffffffffffffff198135818116916014851015612a3c5760149490940360031b84901b1690921692915050565b63ffffffff8516815260806020820152600061445f6080830186612bf256fea26469706673582212201f0019b164d7ecef29cde4b85308440a8c864047c6ca322536de7eaf621cad0564736f6c63430008170033",
	"deployedBytecode": "0x608060405234801561001057600080fd5b50600436106101365760003560e01c80637da0a877116100b2578063aaf320d711610081578063bb19940211610066578063bb19940214610365578063eb5ad9d914610378578063ee0fc1211461038b57600080fd5b8063aaf320d71461031b578063b5d255331461033e57600080fd5b80637da0a877146102c357806382a09b30146102e95780639ab68726146102fe5780639d82ba251461031157600080fd5b8063572b6c05116101095780635c0a7cee116100ee5780635c0a7cee1461024f578063677ce0881461026f5780637249a7731461028257600080fd5b8063572b6c05146101de5780635a31dc131461021e57600080fd5b806301ffc9a71461013b578063150b7a021461016357806343681e151461018f5780634c4ffc71146101bd575b600080fd5b61014e610149366004612a81565b6103b2565b60405190151581526020015b60405180910390f35b610176610171366004612ada565b61041b565b6040516001600160e01b0319909116815260200161015a565b6101af61019d366004612b79565b60016020526000908152604090205481565b60405190815260200161015a565b6101d06101cb366004612b92565b6104e7565b60405161015a929190612c9f565b61014e6101ec366004612cc0565b7f000000000000000000000000b2b5841dbef766d4b521221732f9b618fcf34a876001600160a01b0390811691161490565b6101af61022c366004612cdd565b600260209081526000938452604080852082529284528284209052825290205481565b61026261025d366004612b79565b6107eb565b60405161015a9190612d16565b61014e61027d366004612d29565b61090f565b6102ab610290366004612b79565b6000602081905290815260409020546001600160a01b031681565b6040516001600160a01b03909116815260200161015a565b7f000000000000000000000000b2b5841dbef766d4b521221732f9b618fcf34a876102ab565b6102fc6102f7366004612cdd565b610a44565b005b6101af61030c366004613527565b610d0c565b6101af62278d0081565b61032e6103293660046136d2565b610d28565b60405161015a949392919061370e565b6102ab7f00000000000000000000000001ad7869d85dc136f473db7f4f07b8f61414f64481565b6102fc6103733660046137ae565b610e65565b6102fc610386366004612d29565b611121565b6102ab7f0000000000000000000000009c7993bff32dfd4e96f5c24d7ab3f9c93c30370481565b60006001600160e01b031982167f81c03c2e00000000000000000000000000000000000000000000000000000000148061041557507f01ffc9a7000000000000000000000000000000000000000000000000000000006001600160e01b03198316145b92915050565b60007f0000000000000000000000009c7993bff32dfd4e96f5c24d7ab3f9c93c3037046001600160a01b031663293c49996040518163ffffffff1660e01b8152600401602060405180830381865afa15801561047b573d6000803e3d6000fd5b505050506040513d601f19601f8201168201806040525081019061049f9190613832565b6001600160a01b0316336001600160a01b0316146104bc57600080fd5b507f150b7a020000000000000000000000000000000000000000000000000000000095945050505050565b60c081013560009081526020819052604081205460609081906001600160a01b031680156105a3576040517f4c4ffc710000000000000000000000000000000000000000000000000000000081526001600160a01b03821690634c4ffc71906105549088906004016138fa565b600060405180830381865afa158015610571573d6000803e3d6000fd5b505050506040513d6000823e601f3d908101601f1916820160405261059991908101906139cb565b90945091506105ac565b84610120013593505b815160c086013560009081526005602090815260408083208054825181850281018501909352808352941515949192909190849084015b828210156106c7576000848152602090819020604080516060810182526003860290920180546001600160a01b031683526001810154938301939093526002830180549293929184019161063690613b13565b80601f016020809104026020016040519081016040528092919081815260200182805461066290613b13565b80156106af5780601f10610684576101008083540402835291602001916106af565b820191906000526020600020905b81548152906001019060200180831161069257829003601f168201915b505050505081525050815260200190600101906105e3565b505050509050600081519050826106df5760006106e2565b60015b6106ef9060ff1682613b63565b67ffffffffffffffff81111561070757610707612d59565b60405190808252806020026020018201604052801561075457816020015b604080516060808201835260008083526020830152918101919091528152602001906001900390816107255790505b50955060005b818110156107a15782818151811061077457610774613b76565b602002602001015187828151811061078e5761078e613b76565b602090810291909101015260010161075a565b5082156107e157846000815181106107bb576107bb613b76565b60200260200101518682815181106107d5576107d5613b76565b60200260200101819052505b5050505050915091565b606060056000838152602001908152602001600020805480602002602001604051908101604052809291908181526020016000905b82821015610904576000848152602090819020604080516060810182526003860290920180546001600160a01b031683526001810154938301939093526002830180549293929184019161087390613b13565b80601f016020809104026020016040519081016040528092919081815260200182805461089f90613b13565b80156108ec5780601f106108c1576101008083540402835291602001916108ec565b820191906000526020600020905b8154815290600101906020018083116108cf57829003601f168201915b50505050508152505081526020019060010190610820565b505050509050919050565b6000828152602081905260408120546001600160a01b039081169083160361093957506001610415565b6040517f3d12cb87000000000000000000000000000000000000000000000000000000008152600481018490526000907f00000000000000000000000001ad7869d85dc136f473db7f4f07b8f61414f6446001600160a01b031690633d12cb8790602401600060405180830381865afa1580156109ba573d6000803e3d6000fd5b505050506040513d6000823e601f3d908101601f191682016040526109e29190810190613b8c565b805190915060005b81811015610a3857828181518110610a0457610a04613b76565b60200260200101516001600160a01b0316856001600160a01b031603610a305760019350505050610415565b6001016109ea565b50600095945050505050565b60007f0000000000000000000000009c7993bff32dfd4e96f5c24d7ab3f9c93c3037046001600160a01b031663d4a1b4b16040518163ffffffff1660e01b8152600401602060405180830381865afa158015610aa4573d6000803e3d6000fd5b505050506040513d601f19601f82011682018060405250810190610ac89190613832565b6040517f25a61d5c00000000000000000000000000000000000000000000000000000000815260048101869052602481018590526001600160a01b0391909116906325a61d5c9060440161012060405180830381865afa158015610b30573d6000803e3d6000fd5b505050506040513d601f19601f82011682018060405250810190610b549190613c31565b90504281606001511115610b94576040517f13dec85c00000000000000000000000000000000000000000000000000000000815260040160405180910390fd5b600084815260026020908152604080832084830151845282528083206001600160a01b038616845290915281205490819003610bd1575050505050565b600085815260026020908152604080832087845282528083206001600160a01b038781168086529190935281842084905590516363fdc96f60e11b81526004810189905260248101859052604481019190915260a0606482015260a4810183905260848101929092527f0000000000000000000000009c7993bff32dfd4e96f5c24d7ab3f9c93c303704169063c7fb92de9060c4016020604051808303816000875af1158015610c85573d6000803e3d6000fd5b505050506040513d601f19601f82011682018060405250810190610ca99190613cb1565b50826001600160a01b03168260200151867f598baf7bf150ca2f42be9e9f8f55e81d45f5715c3ff22bf46d697fabec7f31d68433604051610cfd9291909182526001600160a01b0316602082015260400190565b60405180910390a45050505050565b6000610d1e86868686306000886115e0565b9695505050505050565b6000808060606001600160a01b037f00000000000000000000000001ad7869d85dc136f473db7f4f07b8f61414f644166383db9d0160408701803590610d719060208a01612cc0565b6040516001600160e01b031960e085901b16815260048101929092526001600160a01b03166024820152604401602060405180830381865afa158015610dbb573d6000803e3d6000fd5b505050506040513d601f19601f82011682018060405250810190610ddf9190613cca565b15610dfc5761271085608001358660a00135935093509350610e5e565b604080860135600090815260016020522054421015610e47576040517f04c3b3cd00000000000000000000000000000000000000000000000000000000815260040160405180910390fd5b84610160013585608001358660a001359350935093505b9193509193565b7f0000000000000000000000009c7993bff32dfd4e96f5c24d7ab3f9c93c3037046001600160a01b0316631f47ce696040518163ffffffff1660e01b8152600401602060405180830381865afa158015610ec3573d6000803e3d6000fd5b505050506040513d601f19601f82011682018060405250810190610ee79190613832565b6001600160a01b031663f434c9146040518163ffffffff1660e01b8152600401602060405180830381865afa158015610f24573d6000803e3d6000fd5b505050506040513d601f19601f82011682018060405250810190610f489190613832565b6001600160a01b031663632af95f610f5e611cdd565b3086610f6988611cec565b6000806040518763ffffffff1660e01b8152600401610f8d96959493929190613d28565b602060405180830381865afa158015610faa573d6000803e3d6000fd5b505050506040513d601f19601f82011682018060405250810190610fce9190613cca565b610feb576040516331fb21f360e01b815260040160405180910390fd5b6000610ff5611cdd565b83836020015160405160200161100d93929190613d74565b60408051601f1981840301815290829052805160209091012083517f2f3f50e00000000000000000000000000000000000000000000000000000000083529092506001600160a01b037f00000000000000000000000001ad7869d85dc136f473db7f4f07b8f61414f6441691632f3f50e09161108f9188918691600401613e7e565b6000604051808303816000875af11580156110ae573d6000803e3d6000fd5b505050506040513d6000823e601f3d908101601f191682016040526110d69190810190613b8c565b5080847f755ecfca2f6e66af8868551556bf7931740a7062db8e0882f4c322fdb0bb3f608585611104611cdd565b60405161111393929190613ec6565b60405180910390a350505050565b600061112c83611cec565b90507f0000000000000000000000009c7993bff32dfd4e96f5c24d7ab3f9c93c3037046001600160a01b0316631f47ce696040518163ffffffff1660e01b8152600401602060405180830381865afa15801561118c573d6000803e3d6000fd5b505050506040513d601f19601f820116820180604052508101906111b09190613832565b6001600160a01b031663f434c9146040518163ffffffff1660e01b8152600401602060405180830381865afa1580156111ed573d6000803e3d6000fd5b505050506040513d601f19601f820116820180604052508101906112119190613832565b6001600160a01b031663632af95f611227611cdd565b3086856000806040518763ffffffff1660e01b815260040161124e96959493929190613d28565b602060405180830381865afa15801561126b573d6000803e3d6000fd5b505050506040513d601f19601f8201168201806040525081019061128f9190613cca565b6112ac576040516331fb21f360e01b815260040160405180910390fd5b7f0000000000000000000000009c7993bff32dfd4e96f5c24d7ab3f9c93c3037046001600160a01b0316631f47ce696040518163ffffffff1660e01b8152600401602060405180830381865afa15801561130a573d6000803e3d6000fd5b505050506040513d601f19601f8201168201806040525081019061132e9190613832565b6001600160a01b031663f434c9146040518163ffffffff1660e01b8152600401602060405180830381865afa15801561136b573d6000803e3d6000fd5b505050506040513d601f19601f8201168201806040525081019061138f9190613832565b6001600160a01b03166305d2912e3060405180606001604052806113b1611cdd565b6001600160a01b0316815260208082018990526040805160008152918201815291820152516001600160e01b031960e085901b1681526113f5929190600401613f05565b600060405180830381600087803b15801561140f57600080fd5b505af1158015611423573d6000803e3d6000fd5b505050507f0000000000000000000000009c7993bff32dfd4e96f5c24d7ab3f9c93c3037046001600160a01b0316631f47ce696040518163ffffffff1660e01b8152600401602060405180830381865afa158015611485573d6000803e3d6000fd5b505050506040513d601f19601f820116820180604052508101906114a99190613832565b6001600160a01b031663f434c9146040518163ffffffff1660e01b8152600401602060405180830381865afa1580156114e6573d6000803e3d6000fd5b505050506040513d601f19601f8201168201806040525081019061150a9190613832565b6001600160a01b03166305d2912e306040518060600160405280866001600160a01b03168152602001878152602001858152506040518363ffffffff1660e01b815260040161155a929190613f05565b600060405180830381600087803b15801561157457600080fd5b505af1158015611588573d6000803e3d6000fd5b50505050816001600160a01b0316837f0329d6a81434b130c72eb65eea0e32e429dc1277b4aad86ec86454aefb6184516115c0611cdd565b6040516001600160a01b03909116815260200160405180910390a3505050565b6000806000806115f18a8888611ea4565b9250925092508a6000036116cc577f0000000000000000000000009c7993bff32dfd4e96f5c24d7ab3f9c93c3037046001600160a01b0316639e14fb80308c6000015160400151868d8f60000151602001516040516020016116539190613f48565b6040516020818303038152906040526040518663ffffffff1660e01b815260040161168295949392919061439f565b6020604051808303816000875af11580156116a1573d6000803e3d6000fd5b505050506040513d601f19601f820116820180604052508101906116c59190613cb1565b9a5061178a565b7f0000000000000000000000009c7993bff32dfd4e96f5c24d7ab3f9c93c3037046001600160a01b03166321df42e88c858c8e60000151602001516040516020016117179190613f48565b6040516020818303038152906040526040518563ffffffff1660e01b81526004016117459493929190614407565b6020604051808303816000875af1158015611764573d6000803e3d6000fd5b505050506040513d601f19601f820116820180604052508101906117889190613cb1565b505b80156117ad5761179d62278d0042613b63565b60008c8152600160205260409020555b7f0000000000000000000000009c7993bff32dfd4e96f5c24d7ab3f9c93c3037046001600160a01b031663581781918c8c60000151600001518d60000151602001518e60000151606001516040518563ffffffff1660e01b81526004016118179493929190614446565b6020604051808303816000875af1158015611836573d6000803e3d6000fd5b505050506040513d601f19601f8201168201806040525081019061185a9190613832565b5087516001600160a01b031615611875576118758b896122cd565b7f0000000000000000000000009c7993bff32dfd4e96f5c24d7ab3f9c93c3037046001600160a01b031663dd5f214a8c60006118b48e60400151612438565b6040518463ffffffff1660e01b81526004016118d293929190614483565b600060405180830381600087803b1580156118ec57600080fd5b505af1158015611900573d6000803e3d6000fd5b5050505061190e8b8b612576565b600060405180606001604052808c604001516001600160a01b031681526020018d815260200161193d8e611cec565b81525090507f0000000000000000000000009c7993bff32dfd4e96f5c24d7ab3f9c93c3037046001600160a01b031663f434c9146040518163ffffffff1660e01b8152600401602060405180830381865afa1580156119a0573d6000803e3d6000fd5b505050506040513d601f19601f820116820180604052508101906119c49190613832565b6001600160a01b03166305d2912e30836040518363ffffffff1660e01b81526004016119f1929190613f05565b600060405180830381600087803b158015611a0b57600080fd5b505af1158015611a1f573d6000803e3d6000fd5b506000925060019150611a2f9050565b604051908082528060200260200182016040528015611a58578160200160208202803683370190505b509050601c81600081518110611a7057611a70613b76565b60200260200101818152505060405180606001604052807f00000000000000000000000001ad7869d85dc136f473db7f4f07b8f61414f6446001600160a01b031681526020018e81526020018281525091507f0000000000000000000000009c7993bff32dfd4e96f5c24d7ab3f9c93c3037046001600160a01b031663f434c9146040518163ffffffff1660e01b8152600401602060405180830381865afa158015611b20573d6000803e3d6000fd5b505050506040513d601f19601f82011682018060405250810190611b449190613832565b6001600160a01b03166305d2912e30846040518363ffffffff1660e01b8152600401611b71929190613f05565b600060405180830381600087803b158015611b8b57600080fd5b505af1158015611b9f573d6000803e3d6000fd5b50505050602087015115611c7f577f00000000000000000000000001ad7869d85dc136f473db7f4f07b8f61414f6446001600160a01b0316632f3f50e08e611be5611cdd565b878b60200151604051602001611bfd93929190613d74565b60408051601f198184030181529082905280516020909101208b516001600160e01b031960e086901b168352611c369392600401613e7e565b6000604051808303816000875af1158015611c55573d6000803e3d6000fd5b505050506040513d6000823e601f3d908101601f19168201604052611c7d9190810190613b8c565b505b8c7fabdf3ec8139195645b1e44778a910396624b7d2913c04b613f4800ad25d710468d8d8d8b8a8a8a611cb0611cdd565b604051611cc498979695949392919061470a565b60405180910390a2509a9b9a5050505050505050505050565b6000611ce761287c565b905090565b606060006003805480602002602001604051908101604052809291908181526020018280548015611d3c57602002820191906000526020600020905b815481526020019060010190808311611d28575b50508351600088815260046020908152604080832080548251818502810185019093528083529899509397929650945091925090830182828015611d9f57602002820191906000526020600020905b815481526020019060010190808311611d8b575b50508351939450611db69250839150859050613b63565b67ffffffffffffffff811115611dce57611dce612d59565b604051908082528060200260200182016040528015611df7578160200160208202803683370190505b50945060005b83811015611e4457848181518110611e1757611e17613b76565b6020026020010151868281518110611e3157611e31613b76565b6020908102919091010152600101611dfd565b5060005b81811015611e9a57828181518110611e6257611e62613b76565b6020026020010151868286611e779190613b63565b81518110611e8757611e87613b76565b6020908102919091010152600101611e48565b5050505050919050565b6060838101515181906000908067ffffffffffffffff811115611ec957611ec9612d59565b604051908082528060200260200182016040528015611fc357816020015b611fb06040805161010080820183526000808352602080840182905283850182905260608085018390526080808601849052865161022081018852848152928301849052958201839052810182905293840181905260a084810182905260c0850182905260e0850182905291840181905261012084018190526101408401819052610160840181905261018084018190526101a084018190526101c084018190526101e08401819052610200840152909190820190815260200160608152602001606081525090565b815260200190600190039081611ee75790505b509350611fcf876128f1565b6040805160e08101825260008082526060602083018190529282018190529181018290526080810182905260a0810182905260c08101829052919450805b838110156122c0578960600151818151811061202b5761202b613b76565b6020026020010151925081836000015164ffffffffff1611612079576040517f0aec2d6900000000000000000000000000000000000000000000000000000000815260040160405180910390fd5b826000015164ffffffffff1687828151811061209757612097613b76565b60200260200101516000018181525050826080015164ffffffffff168782815181106120c5576120c5613b76565b6020026020010151602001818152505082606001516dffffffffffffffffffffffffffff168782815181106120fc576120fc613b76565b602002602001015160400181815250508260a0015163ffffffff1687828151811061212957612129613b76565b60200260200101516060018181525050600087828151811061214d5761214d613b76565b6020026020010151608001906001600160a01b031690816001600160a01b031681525050604051806102200160405280846040015161ffff1681526020018460c0015161ffff166127106121a1919061485d565b815260208c81015163ffffffff16908201526000604082018190526060820181905260016080830181905260a0830182905260c0830182905260e0830182905261010083018290526101208301829052610140830182905261016083018290526101808301526101a08201526001600160a01b038b166101c08201526101e001899052875188908390811061223857612238613b76565b602002602001015160a0018190525080600014801561225e5750825164ffffffffff1615155b8015612274575042836000015164ffffffffff16105b1561227e57600194505b85612289848361292b565b60405160200161229a929190614870565b60408051601f19818403018152919052835190965064ffffffffff16915060010161200d565b5050505093509350939050565b602081810151516040805160808101825260008082529381018490529081018390526060810183905290915b828110156123ec578360200151818151811061231757612317613b76565b6020908102919091018101518551918101516040808301516060840151845192517f7b621d3a000000000000000000000000000000000000000000000000000000008152600481018c905262ffffff909416602485015263ffffffff91821660448501521660648301526001600160a01b039081166084830152919450911690637b621d3a9060a4016020604051808303816000875af11580156123bf573d6000803e3d6000fd5b505050506040513d601f19601f820116820180604052508101906123e39190613832565b506001016122f9565b5050905160009283526020839052604090922080547fffffffffffffffffffffffff0000000000000000000000000000000000000000166001600160a01b039093169290921790915550565b604080516001808252818301909252606091816020015b60408051808201909152600081526060602082015281526020019060019003908161244f57505060408051600180825281830190925291925060009190602082015b6040805160c08101825260008082526020808301829052928201819052606082018190526080820181905260a082015282526000199092019101816124915790505090506040518060c00160405280600015158152602001633b9aca00815260200160008152602001846001600160a01b031681526020016000815260200160006001600160a01b03168152508160008151811061253157612531613b76565b6020026020010181905250604051806040016040528060018152602001828152508260008151811061256557612565613b76565b602002602001018190525050919050565b606080820151516040805160e0810182526000808252602082018590529181018290529283018190526080830181905260a0830181905260c08301529060005b8281101561287557836060015181815181106125d4576125d4613b76565b60200260200101519150600082602001515190506126156040518060600160405280600081526020016000815260200160006001600160a01b031681525090565b60005b8281101561286a578460200151818151811061263657612636613b76565b602002602001015191504682600001510361286257831580612663575042856000015164ffffffffff1611155b1561279057602082015160408084015190516363fdc96f60e11b8152600481018b905260248101929092526001600160a01b03908116604483015260a06064830152600060a4830181905260848301527f0000000000000000000000009c7993bff32dfd4e96f5c24d7ab3f9c93c303704169063c7fb92de9060c4016020604051808303816000875af11580156126fe573d6000803e3d6000fd5b505050506040513d601f19601f820116820180604052508101906127229190613cb1565b5060408201516001600160a01b031661273b8542613b63565b897f598baf7bf150ca2f42be9e9f8f55e81d45f5715c3ff22bf46d697fabec7f31d68560200151336040516127839291909182526001600160a01b0316602082015260400190565b60405180910390a4612862565b60208083015160008a815260029092526040822090916127b08742613b63565b8152602001908152602001600020600084604001516001600160a01b03166001600160a01b0316815260200190815260200160002060008282546127f49190613b63565b909155505060408201516001600160a01b03166128118542613b63565b897f9e83979117d75aa75fe101361cf46235d3d0a6fa7afafb275d2b9f8af02273138560200151336040516128599291909182526001600160a01b0316602082015260400190565b60405180910390a45b600101612618565b5050506001016125b6565b5050505050565b6000366014336001600160a01b037f000000000000000000000000b2b5841dbef766d4b521221732f9b618fcf34a87161480156128b95750808210155b156128e9576000366128cb838561485d565b6128d692829061489f565b6128df916148c9565b60601c9250505090565b339250505090565b602080820151825180518184015160609283015160405193956129159594016148fc565b6040516020818303038152906040529050919050565b6060811580156129415750825164ffffffffff16155b61295357825164ffffffffff16612955565b425b6040808501516060860151608087015160a088015160c089015194516129c696959060200195865261ffff94851660208701526dffffffffffffffffffffffffffff93909316604086015264ffffffffff91909116606085015263ffffffff1660808401521660a082015260c00190565b60408051601f1981840301815291905260208401515190915060005b81811015612a3c5782612a1186602001518381518110612a0457612a04613b76565b6020026020010151612a44565b604051602001612a22929190614870565b60408051601f1981840301815291905292506001016129e2565b505092915050565b6060816000015182604001518360200151604051602001612915939291909283526001600160a01b03919091166020830152604082015260600190565b600060208284031215612a9357600080fd5b81356001600160e01b031981168114612aab57600080fd5b9392505050565b6001600160a01b0381168114612ac757600080fd5b50565b8035612ad581612ab2565b919050565b600080600080600060808688031215612af257600080fd5b8535612afd81612ab2565b94506020860135612b0d81612ab2565b935060408601359250606086013567ffffffffffffffff80821115612b3157600080fd5b818801915088601f830112612b4557600080fd5b813581811115612b5457600080fd5b896020828501011115612b6657600080fd5b9699959850939650602001949392505050565b600060208284031215612b8b57600080fd5b5035919050565b600060208284031215612ba457600080fd5b813567ffffffffffffffff811115612bbb57600080fd5b82016101808185031215612aab57600080fd5b60005b83811015612be9578181015183820152602001612bd1565b50506000910152565b60008151808452612c0a816020860160208601612bce565b601f01601f19169290920160200192915050565b600082825180855260208086019550808260051b84010181860160005b84811015612c9257858303601f19018952815180516001600160a01b031684528481015185850152604090810151606091850182905290612c7e81860183612bf2565b9a86019a9450505090830190600101612c3b565b5090979650505050505050565b828152604060208201526000612cb86040830184612c1e565b949350505050565b600060208284031215612cd257600080fd5b8135612aab81612ab2565b600080600060608486031215612cf257600080fd5b83359250602084013591506040840135612d0b81612ab2565b809150509250925092565b602081526000612aab6020830184612c1e565b60008060408385031215612d3c57600080fd5b823591506020830135612d4e81612ab2565b809150509250929050565b634e487b7160e01b600052604160045260246000fd5b6040516060810167ffffffffffffffff81118282101715612d9257612d92612d59565b60405290565b60405160e0810167ffffffffffffffff81118282101715612d9257612d92612d59565b6040805190810167ffffffffffffffff81118282101715612d9257612d92612d59565b6040516080810167ffffffffffffffff81118282101715612d9257612d92612d59565b604051610120810167ffffffffffffffff81118282101715612d9257612d92612d59565b604051601f8201601f1916810167ffffffffffffffff81118282101715612e4e57612e4e612d59565b604052919050565b600067ffffffffffffffff821115612e7057612e70612d59565b50601f01601f191660200190565b6000612e91612e8c84612e56565b612e25565b9050828152838383011115612ea557600080fd5b828260208301376000602084830101529392505050565b600082601f830112612ecd57600080fd5b612aab83833560208501612e7e565b803563ffffffff81168114612ad557600080fd5b600067ffffffffffffffff821115612f0a57612f0a612d59565b5060051b60200190565b803564ffffffffff81168114612ad557600080fd5b600082601f830112612f3a57600080fd5b81356020612f4a612e8c83612ef0565b82815260609283028501820192828201919087851115612f6957600080fd5b8387015b85811015612c925781818a031215612f855760008081fd5b612f8d612d6f565b813581528582013586820152604080830135612fa881612ab2565b908201528452928401928101612f6d565b803561ffff81168114612ad557600080fd5b80356dffffffffffffffffffffffffffff81168114612ad557600080fd5b600082601f830112612ffa57600080fd5b8135602061300a612e8c83612ef0565b82815260059290921b8401810191818101908684111561302957600080fd5b8286015b8481101561310b57803567ffffffffffffffff8082111561304e5760008081fd5b9088019060e0828b03601f19018113156130685760008081fd5b613070612d98565b61307b888501612f14565b8152604080850135848111156130915760008081fd5b61309f8e8b83890101612f29565b8a84015250606093506130b3848601612fb9565b9082015260806130c4858201612fcb565b8483015260a093506130d7848601612f14565b9082015260c06130e8858201612edc565b848301526130f7838601612fb9565b90820152865250505091830191830161302d565b509695505050505050565b600082601f83011261312757600080fd5b81356020613137612e8c83612ef0565b828152600592831b850182019282820191908785111561315657600080fd5b8387015b85811015612c9257803567ffffffffffffffff8082111561317b5760008081fd5b908901906040828c03601f19018113156131955760008081fd5b61319d612dbb565b888401356131aa81612ab2565b815283820135838111156131be5760008081fd5b8085019450508c603f8501126131d657600092508283fd5b8884013592506131e8612e8c84612ef0565b83815292861b8401820192898101908e8511156132055760008081fd5b948301945b8486101561322f578535935061321f84612ab2565b838252948a0194908a019061320a565b828b015250875250505092840192840161315a565b6000604080838503121561325757600080fd5b61325f612dbb565b9150823561326c81612ab2565b825260208381013567ffffffffffffffff81111561328957600080fd5b8401601f8101861361329a57600080fd5b80356132a8612e8c82612ef0565b81815260079190911b820183019083810190888311156132c757600080fd5b928401925b82841015613346576080848a0312156132e55760008081fd5b6132ed612dde565b84356132f881612ab2565b81528486013562ffffff811681146133105760008081fd5b8187015261331f858801612edc565b878201526060613330818701612edc565b90820152825260809390930192908401906132cc565b808588015250505050505092915050565b60006040828403121561336957600080fd5b613371612dbb565b905067ffffffffffffffff808335111561338a57600080fd5b8235830184601f82011261339d57600080fd5b6133aa612e8c8235612ef0565b81358082526020808301929160051b840101878111156133c957600080fd5b602084015b8181101561350e5785813511156133e457600080fd5b803585016040818b03601f190112156133fc57600080fd5b613404612dbb565b6134116020830135612ab2565b60208201358152876040830135111561342957600080fd5b6040820135820191508a603f83011261344157600080fd5b6020820135613452612e8c82612ef0565b81815260079190911b83016040019060208101908d83111561347357600080fd5b6040850194505b828510156134ef576080858f03121561349257600080fd5b61349a612dde565b6134a48635612ab2565b853581526134b460208701612edc565b60208201526134c66040870135612ab2565b60408601356040820152606086013560608201528083525060208201915060808501945061347a565b80602085015250505080865250506020840193506020810190506133ce565b5050808552505050506020820135602082015292915050565b600080600080600060a0868803121561353f57600080fd5b85359450602086013567ffffffffffffffff8082111561355e57600080fd5b908701906080828a03121561357257600080fd5b61357a612dde565b82358281111561358957600080fd5b83016080818c03121561359b57600080fd5b6135a3612dde565b8135848111156135b257600080fd5b6135be8d828501612ebc565b8252506020820135848111156135d357600080fd5b6135df8d828501612ebc565b6020830152506040820135848111156135f757600080fd5b6136038d828501612ebc565b60408301525060608201356060820152808352505061362460208401612edc565b602082015261363560408401612aca565b604082015260608301358281111561364c57600080fd5b6136588b828601612fe9565b6060830152509550604088013591508082111561367457600080fd5b61368089838a01613116565b9450606088013591508082111561369657600080fd5b6136a289838a01613244565b935060808801359150808211156136b857600080fd5b506136c588828901613357565b9150509295509295909350565b6000602082840312156136e457600080fd5b813567ffffffffffffffff8111156136fb57600080fd5b82016101a08185031215612aab57600080fd5b60006080820186835260208681850152604086604086015260606080606087015283875180865260a08801915060a08160051b890101955084890160005b8281101561379c57898803609f19018452815180516001600160a01b0316895287810151888a0152860151868901869052613789868a0182612bf2565b985050928601929086019060010161374c565b50959c9b505050505050505050505050565b6000806000606084860312156137c357600080fd5b83359250602084013567ffffffffffffffff808211156137e257600080fd5b818601915086601f8301126137f657600080fd5b61380587833560208501612e7e565b9350604086013591508082111561381b57600080fd5b5061382886828701613357565b9150509250925092565b60006020828403121561384457600080fd5b8151612aab81612ab2565b803561385a81612ab2565b6001600160a01b031682526020818101359083015260408082013590830152606090810135910152565b6000808335601e1984360301811261389b57600080fd5b830160208101925035905067ffffffffffffffff8111156138bb57600080fd5b8036038213156138ca57600080fd5b9250929050565b81835281816020850137506000828201602090810191909152601f909101601f19169091010190565b6020815261391b6020820161390e84612aca565b6001600160a01b03169052565b600061392960208401612aca565b6001600160a01b038116604084015250613949606083016040850161384f565b60c083013560e083015261010060e08401358184015261396a818501612aca565b9050610120613983818501836001600160a01b03169052565b610140915080850135828501525061016081850135818501526139a881860186613884565b61018086810152925090506139c26101a0850183836138d1565b95945050505050565b60008060408084860312156139df57600080fd5b8351925060208085015167ffffffffffffffff808211156139ff57600080fd5b818701915087601f830112613a1357600080fd5b8151613a21612e8c82612ef0565b81815260059190911b8301840190848101908a831115613a4057600080fd5b8585015b83811015613b0157805185811115613a5b57600080fd5b86016060818e03601f19011215613a725760008081fd5b613a7a612d6f565b88820151613a8781612ab2565b8152818a015189820152606082015187811115613aa45760008081fd5b8083019250508d603f830112613aba5760008081fd5b88820151613aca612e8c82612e56565b8181528f8c838601011115613adf5760008081fd5b613aee828c83018e8701612bce565b828c015250845250918601918601613a44565b50809750505050505050509250929050565b600181811c90821680613b2757607f821691505b602082108103613b4757634e487b7160e01b600052602260045260246000fd5b50919050565b634e487b7160e01b600052601160045260246000fd5b8082018082111561041557610415613b4d565b634e487b7160e01b600052603260045260246000fd5b60006020808385031215613b9f57600080fd5b825167ffffffffffffffff811115613bb657600080fd5b8301601f81018513613bc757600080fd5b8051613bd5612e8c82612ef0565b81815260059190911b82018301908381019087831115613bf457600080fd5b928401925b82841015613c1b578351613c0c81612ab2565b82529284019290840190613bf9565b979650505050505050565b8051612ad581612ab2565b60006101208284031215613c4457600080fd5b613c4c612e01565b825181526020830151602082015260408301516040820152606083015160608201526080830151608082015260a083015160a082015260c083015160c0820152613c9860e08401613c26565b60e0820152610100928301519281019290925250919050565b600060208284031215613cc357600080fd5b5051919050565b600060208284031215613cdc57600080fd5b81518015158114612aab57600080fd5b60008151808452602080850194506020840160005b83811015613d1d57815187529582019590820190600101613d01565b509495945050505050565b60006001600160a01b03808916835280881660208401525085604083015260c06060830152613d5a60c0830186613cec565b93151560808301525090151560a090910152949350505050565b6bffffffffffffffffffffffff198460601b16815260008351613d9e816014850160208801612bce565b60149201918201929092526034019392505050565b600082825180855260208086019550808260051b8401018186016000805b85811015613e7057868403601f19018a52825180516001600160a01b03908116865290860151604087870181905281518188018190529188019290916060919082890190875b81811015613e585786518051851684528c81015163ffffffff168d8501528681015185168785015285015185840152958b0195608090920191600101613e17565b50509d89019d97505050938601935050600101613dd1565b509198975050505050505050565b8381528260208201526060604082015260006139c26060830184613db3565b6000815160408452613eb26040850182613db3565b602093840151949093019390935250919050565b606081526000613ed96060830186612bf2565b8281036020840152613eeb8186613e9d565b9150506001600160a01b0383166040830152949350505050565b60006001600160a01b0380851683526040602084015280845116604084015250602083015160608301526040830151606060808401526139c260a0840182613cec565b7f2400000000000000000000000000000000000000000000000000000000000000815260008251613f80816001850160208701612bce565b7f207265766e6574206465706c6f796564000000000000000000000000000000006001939091019283015250601101919050565b8051825260208101516020830152604081015160408301526060810151613fdf606084018215159052565b506080810151613ff3608084018215159052565b5060a081015161400760a084018215159052565b5060c081015161401b60c084018215159052565b5060e081015161402f60e084018215159052565b5061010081810151151590830152610120808201511515908301526101408082015115159083015261016080820151151590830152610180808201511515908301526101a0808201511515908301526101c0808201511515908301526101e0808201516001600160a01b03169083015261020090810151910152565b600082825180855260208086019550808260051b8401018186016000805b85811015613e7057868403601f19018a52825180518552850151604086860181905281518187018190529187019160609081880190865b8181101561415a5785518051151584528b8101518c8501528581015186850152848101516001600160a01b03908116868601526080808301519086015260a0918201511690840152948a019460c090920191600101614100565b50509c88019c9650505092850192506001016140c9565b60008151808452602080850194506020840160005b83811015613d1d578151805188528301518388015260409096019590820190600101614186565b600082825180855260208086019550808260051b84010181860160005b84811015612c9257601f19868403018952815160806001600160a01b038083511686528087840151168787015250604080830151828288015261420f83880182614171565b925050506060808301519250858203818701525061422d8183614171565b9a86019a94505050908301906001016141ca565b600082825180855260208086019550808260051b84010181860160005b84811015612c9257858303601f19018952815180518452848101518585015260408082015190850152606080820151908501526080808201516001600160a01b03169085015260a08082015161030091906142bb82880182613fb4565b505060c0820151816102c08701526142d5828701826140ab565b91505060e082015191508481036102e08601526142f281836141ad565b9a86019a945050509083019060010161425e565b600082825180855260208086019550808260051b8401018186016000805b85811015613e7057868403601f19018a52825180516001600160a01b03908116865290860151604087870181905281519087018190529087019160608701918591905b8083101561438957845182168452938901939289019260019290920191614367565b5050509a86019a94505091840191600101614324565b6001600160a01b038616815260a0602082015260006143c160a0830187612bf2565b82810360408401526143d38187614241565b905082810360608401526143e78186614306565b905082810360808401526143fb8185612bf2565b98975050505050505050565b8481526080602082015260006144206080830186614241565b82810360408401526144328186614306565b90508281036060840152613c1b8185612bf2565b84815260806020820152600061445f6080830186612bf2565b82810360408401526144718186612bf2565b91505082606083015295945050505050565b600060608083018684526020868186015260406060604087015282875180855260808801915060808160051b890101945083890160005b8281101561456157898703607f190184528151805188528601518688018690528051868901819052908701906000908a8a01905b8083101561454c5783518051151583528a8101518b840152898101518a8401528c8101516001600160a01b039081168e8501526080808301519085015260a0918201511690830152928901926001929092019160c0909101906144ee565b509850505092850192908501906001016144ba565b50949b9a5050505050505050505050565b600082825180855260208086019550808260051b8401018186016000805b85811015613e7057868403601f19018a528251805164ffffffffff1685528581015160e0878701819052815190870181905261010087019188019085905b8082101561460d578251805185528a8101518b8601526040908101516001600160a01b03169085015260609093019291890191600191909101906145ce565b50505060408281015161ffff908116918801919091526060808401516dffffffffffffffffffffffffffff169088015260808084015164ffffffffff169088015260a08084015163ffffffff169088015260c0928301511691909501529884019891840191600101614590565b600060408084016001600160a01b038085511686526020808601516040828901528381518086526060955060608a019150838301925060005b818110156146fb5783518051871684528581015162ffffff16868501528881015163ffffffff9081168a860152908801511687840152928401926080909201916001016146b3565b50909998505050505050505050565b60006101008083528a51608082850152805191506080610180850152614734610200850183612bf2565b9150602081015161017f1980868503016101a08701526147548483612bf2565b93506040830151915080868503016101c0870152506147738382612bf2565b92505060608101516101e08501525060208b015161479a61012085018263ffffffff169052565b5060408b01516001600160a01b031661014084015260608b015183820360ff19016101608501526147cb8282614572565b91505082810360208401526147e0818b614306565b905082810360408401526147f4818a61467a565b905082810360608401526148088189613e9d565b9050828103608084015261481c8188614241565b905082810360a08401526148308187612bf2565b91505061484160c083018515159052565b6001600160a01b03831660e08301529998505050505050505050565b8181038181111561041557610415613b4d565b60008351614882818460208801612bce565b835190830190614896818360208801612bce565b01949350505050565b600080858511156148af57600080fd5b838611156148bc57600080fd5b5050820193919092039150565b6bffffffffffffffffffffffff198135818116916014851015612a3c5760149490940360031b84901b1690921692915050565b63ffffffff8516815260806020820152600061445f6080830186612bf256fea26469706673582212201f0019b164d7ecef29cde4b85308440a8c864047c6ca322536de7eaf621cad0564736f6c63430008170033",
	"devdoc": {
		"kind": "dev",
		"methods": {
			"beforePayRecordedWith((address,address,(address,uint256,uint256,uint256),uint256,uint256,address,uint256,uint256,bytes))": {
				"details": "Part of IJBFundingCycleDataSource.This implementation just sets this contract up to receive a `didPay` call.",
				"params": {
					"context": "The Juicebox standard network payment context. See"
				},
				"returns": {
					"hookSpecifications": "Amount to be sent to pay hooks instead of adding to local balance. Useful for auto-routing funds from a treasury as payment come in.",
					"weight": "The weight that network tokens should get minted relative to. This is useful for optionally customizing how many tokens are issued per payment."
				}
			},
			"constructor": {
				"params": {
					"controller": "The controller that revnets are made from.",
					"suckerRegistry": "The registry that deploys and tracks each project's suckers.",
					"trustedForwarder": "The trusted forwarder for the ERC2771Context."
				}
			},
			"deploySuckersFor(uint256,bytes,((address,(address,uint32,address,uint256)[])[],bytes32))": {
				"params": {
					"encodedConfiguration": "A bytes representation of the revnet's configuration.",
					"revnetId": "The ID of the revnet having new suckers deployed.",
					"suckerDeploymentConfiguration": "The specifics about the suckers being deployed."
				}
			},
			"hasMintPermissionFor(uint256,address)": {
				"params": {
					"addr": "The address to check if has permissions.",
					"revnetId": "The ID of the revnet to check permissions for."
				},
				"returns": {
					"_0": "flag The flag indicating if the address has permissions to mint on the revnet's behalf."
				}
			},
			"isTrustedForwarder(address)": {
				"details": "Indicates whether any particular address is the trusted forwarder."
			},
			"launchRevnetFor(uint256,((string,string,string,bytes32),uint32,address,(uint40,(uint256,uint256,address)[],uint16,uint112,uint40,uint32,uint16)[]),(address,address[])[],(address,(address,uint24,uint32,uint32)[]),((address,(address,uint32,address,uint256)[])[],bytes32))": {
				"params": {
					"buybackHookConfiguration": "Data used for setting up the buyback hook to use when determining the best price for new participants.",
					"configuration": "The data needed to deploy a basic revnet.",
					"revnetId": "The ID of the Juicebox project to turn into a revnet. Send 0 to deploy a new revnet.",
					"suckerDeploymentConfiguration": "Information about how this revnet relates to other's across chains.",
					"terminalConfigurations": "The terminals that the network uses to accept payments through."
				},
				"returns": {
					"_0": "revnetId The ID of the newly created revnet."
				}
			},
			"mintFor(uint256,uint256,address)": {
				"params": {
					"beneficiary": "The address to mint tokens to.",
					"revnetId": "The ID of the revnet to mint tokens from.",
					"stageId": "The ID of the stage to mint tokens from."
				}
			},
			"onERC721Received(address,address,uint256,bytes)": {
				"details": "Make sure only mints can be received."
			},
			"payHookSpecificationsOf(uint256)": {
				"params": {
					"revnetId": "The ID of the revnet to which the extensions apply."
				},
				"returns": {
					"_0": "payHookSpecifications The pay hooks."
				}
			},
			"replaceSplitOperatorOf(uint256,address)": {
				"params": {
					"newSplitOperator": "The address of the new split operator.",
					"revnetId": "The ID of the revnet having its operator replaced."
				}
			},
			"supportsInterface(bytes4)": {
				"details": "See {IERC165-supportsInterface}.",
				"params": {
					"interfaceId": "The ID of the interface to check for adherence to."
				},
				"returns": {
					"_0": "A flag indicating if the provided interface ID is supported."
				}
			},
			"trustedForwarder()": {
				"details": "Returns the address of the trusted forwarder."
			}
		},
		"version": 1
	},
	"userdoc": {
		"kind": "user",
		"methods": {
			"CONTROLLER()": {
				"notice": "The controller that networks are made from."
			},
			"EXIT_DELAY()": {
				"notice": "The amount of time from a sucker being deployed to when it can facilitate exits."
			},
			"SUCKER_REGISTRY()": {
				"notice": "The registry that deploys and tracks each project's suckers."
			},
			"allowedMintCountOf(uint256,uint256,address)": {
				"notice": "The specification of how many tokens are still allowed to be minted at each stage of a revnet."
			},
			"beforePayRecordedWith((address,address,(address,uint256,uint256,uint256),uint256,uint256,address,uint256,uint256,bytes))": {
				"notice": "This function gets called when the revnet receives a payment."
			},
			"beforeRedeemRecordedWith((address,address,uint256,uint256,uint256,uint256,(address,uint256,uint256,uint256),bool,uint256,bytes))": {
				"notice": "This function is never called, it needs to be included to adhere to the interface."
			},
			"buybackHookOf(uint256)": {
				"notice": "The data hook that returns the correct values for the buyback hook of each network."
			},
			"deploySuckersFor(uint256,bytes,((address,(address,uint32,address,uint256)[])[],bytes32))": {
				"notice": "Allows a revnet's split operator to deploy new suckers to the revnet after it's deployed."
			},
			"exitDelayOf(uint256)": {
				"notice": "The time at which exits from a revnet become allowed."
			},
			"hasMintPermissionFor(uint256,address)": {
				"notice": "Required by the IJBRulesetDataHook interfaces."
			},
			"launchRevnetFor(uint256,((string,string,string,bytes32),uint32,address,(uint40,(uint256,uint256,address)[],uint16,uint112,uint40,uint32,uint16)[]),(address,address[])[],(address,(address,uint24,uint32,uint32)[]),((address,(address,uint32,address,uint256)[])[],bytes32))": {
				"notice": "Launch a basic revnet."
			},
			"mintFor(uint256,uint256,address)": {
				"notice": "Mint tokens from a revnet to a specified beneficiary according to the rules set for the revnet."
			},
			"payHookSpecificationsOf(uint256)": {
				"notice": "The pay hooks to include during payments to networks."
			},
			"replaceSplitOperatorOf(uint256,address)": {
				"notice": "A revnet's operator can replace itself."
			},
			"supportsInterface(bytes4)": {
				"notice": "Indicates if this contract adheres to the specified interface."
			}
		},
		"version": 1
	},
	"gitCommit": "ede4094a51cb70865004119c67f9429b6d8f27ce",
	"sourceName": "src/REVBasicDeployer.sol",
	"chainId": "11155111",
	"linkReferences": {},
	"deployedLinkReferences": {},
	"history": [
		{
			"_format": "sphinx-sol-ct-artifact-1",
			"merkleRoot": "0xd4471c8ae6e1babf0e4157b34143d8db15017448ffd6e7f1d172f37fd4d7b9bd",
			"contractName": "REVBasicDeployer",
			"address": "0x1685250188491Fd677cC5A7A40B3d8252cB1C917",
			"abi": [
				{
					"type": "constructor",
					"inputs": [
						{
							"name": "controller",
							"type": "address",
							"internalType": "contract IJBController"
						},
						{
							"name": "suckerRegistry",
							"type": "address",
							"internalType": "contract IBPSuckerRegistry"
						}
					],
					"stateMutability": "nonpayable"
				},
				{
					"type": "function",
					"name": "CONTROLLER",
					"inputs": [],
					"outputs": [
						{
							"name": "",
							"type": "address",
							"internalType": "contract IJBController"
						}
					],
					"stateMutability": "view"
				},
				{
					"type": "function",
					"name": "EXIT_DELAY",
					"inputs": [],
					"outputs": [
						{
							"name": "",
							"type": "uint256",
							"internalType": "uint256"
						}
					],
					"stateMutability": "view"
				},
				{
					"type": "function",
					"name": "SUCKER_REGISTRY",
					"inputs": [],
					"outputs": [
						{
							"name": "",
							"type": "address",
							"internalType": "contract IBPSuckerRegistry"
						}
					],
					"stateMutability": "view"
				},
				{
					"type": "function",
					"name": "beforePayRecordedWith",
					"inputs": [
						{
							"name": "context",
							"type": "tuple",
							"internalType": "struct JBBeforePayRecordedContext",
							"components": [
								{
									"name": "terminal",
									"type": "address",
									"internalType": "address"
								},
								{
									"name": "payer",
									"type": "address",
									"internalType": "address"
								},
								{
									"name": "amount",
									"type": "tuple",
									"internalType": "struct JBTokenAmount",
									"components": [
										{
											"name": "token",
											"type": "address",
											"internalType": "address"
										},
										{
											"name": "value",
											"type": "uint256",
											"internalType": "uint256"
										},
										{
											"name": "decimals",
											"type": "uint256",
											"internalType": "uint256"
										},
										{
											"name": "currency",
											"type": "uint256",
											"internalType": "uint256"
										}
									]
								},
								{
									"name": "projectId",
									"type": "uint256",
									"internalType": "uint256"
								},
								{
									"name": "rulesetId",
									"type": "uint256",
									"internalType": "uint256"
								},
								{
									"name": "beneficiary",
									"type": "address",
									"internalType": "address"
								},
								{
									"name": "weight",
									"type": "uint256",
									"internalType": "uint256"
								},
								{
									"name": "reservedRate",
									"type": "uint256",
									"internalType": "uint256"
								},
								{
									"name": "metadata",
									"type": "bytes",
									"internalType": "bytes"
								}
							]
						}
					],
					"outputs": [
						{
							"name": "weight",
							"type": "uint256",
							"internalType": "uint256"
						},
						{
							"name": "hookSpecifications",
							"type": "tuple[]",
							"internalType": "struct JBPayHookSpecification[]",
							"components": [
								{
									"name": "hook",
									"type": "address",
									"internalType": "contract IJBPayHook"
								},
								{
									"name": "amount",
									"type": "uint256",
									"internalType": "uint256"
								},
								{
									"name": "metadata",
									"type": "bytes",
									"internalType": "bytes"
								}
							]
						}
					],
					"stateMutability": "view"
				},
				{
					"type": "function",
					"name": "beforeRedeemRecordedWith",
					"inputs": [
						{
							"name": "context",
							"type": "tuple",
							"internalType": "struct JBBeforeRedeemRecordedContext",
							"components": [
								{
									"name": "terminal",
									"type": "address",
									"internalType": "address"
								},
								{
									"name": "holder",
									"type": "address",
									"internalType": "address"
								},
								{
									"name": "projectId",
									"type": "uint256",
									"internalType": "uint256"
								},
								{
									"name": "rulesetId",
									"type": "uint256",
									"internalType": "uint256"
								},
								{
									"name": "redeemCount",
									"type": "uint256",
									"internalType": "uint256"
								},
								{
									"name": "totalSupply",
									"type": "uint256",
									"internalType": "uint256"
								},
								{
									"name": "surplus",
									"type": "tuple",
									"internalType": "struct JBTokenAmount",
									"components": [
										{
											"name": "token",
											"type": "address",
											"internalType": "address"
										},
										{
											"name": "value",
											"type": "uint256",
											"internalType": "uint256"
										},
										{
											"name": "decimals",
											"type": "uint256",
											"internalType": "uint256"
										},
										{
											"name": "currency",
											"type": "uint256",
											"internalType": "uint256"
										}
									]
								},
								{
									"name": "useTotalSurplus",
									"type": "bool",
									"internalType": "bool"
								},
								{
									"name": "redemptionRate",
									"type": "uint256",
									"internalType": "uint256"
								},
								{
									"name": "metadata",
									"type": "bytes",
									"internalType": "bytes"
								}
							]
						}
					],
					"outputs": [
						{
							"name": "",
							"type": "uint256",
							"internalType": "uint256"
						},
						{
							"name": "",
							"type": "uint256",
							"internalType": "uint256"
						},
						{
							"name": "",
							"type": "uint256",
							"internalType": "uint256"
						},
						{
							"name": "specifications",
							"type": "tuple[]",
							"internalType": "struct JBRedeemHookSpecification[]",
							"components": [
								{
									"name": "hook",
									"type": "address",
									"internalType": "contract IJBRedeemHook"
								},
								{
									"name": "amount",
									"type": "uint256",
									"internalType": "uint256"
								},
								{
									"name": "metadata",
									"type": "bytes",
									"internalType": "bytes"
								}
							]
						}
					],
					"stateMutability": "view"
				},
				{
					"type": "function",
					"name": "buybackHookOf",
					"inputs": [
						{
							"name": "revnetId",
							"type": "uint256",
							"internalType": "uint256"
						}
					],
					"outputs": [
						{
							"name": "buybackHook",
							"type": "address",
							"internalType": "contract IJBRulesetDataHook"
						}
					],
					"stateMutability": "view"
				},
				{
					"type": "function",
					"name": "deployRevnetWith",
					"inputs": [
						{
							"name": "configuration",
							"type": "tuple",
							"internalType": "struct REVConfig",
							"components": [
								{
									"name": "description",
									"type": "tuple",
									"internalType": "struct REVDescription",
									"components": [
										{
											"name": "name",
											"type": "string",
											"internalType": "string"
										},
										{
											"name": "symbol",
											"type": "string",
											"internalType": "string"
										},
										{
											"name": "uri",
											"type": "string",
											"internalType": "string"
										},
										{
											"name": "salt",
											"type": "bytes32",
											"internalType": "bytes32"
										}
									]
								},
								{
									"name": "baseCurrency",
									"type": "uint32",
									"internalType": "uint32"
								},
								{
									"name": "premintTokenAmount",
									"type": "uint256",
									"internalType": "uint256"
								},
								{
									"name": "initialOperator",
									"type": "address",
									"internalType": "address"
								},
								{
									"name": "stageConfigurations",
									"type": "tuple[]",
									"internalType": "struct REVStageConfig[]",
									"components": [
										{
											"name": "startsAtOrAfter",
											"type": "uint40",
											"internalType": "uint40"
										},
										{
											"name": "operatorSplitRate",
											"type": "uint16",
											"internalType": "uint16"
										},
										{
											"name": "initialIssuanceRate",
											"type": "uint112",
											"internalType": "uint112"
										},
										{
											"name": "priceCeilingIncreaseFrequency",
											"type": "uint40",
											"internalType": "uint40"
										},
										{
											"name": "priceCeilingIncreasePercentage",
											"type": "uint32",
											"internalType": "uint32"
										},
										{
											"name": "priceFloorTaxIntensity",
											"type": "uint16",
											"internalType": "uint16"
										}
									]
								}
							]
						},
						{
							"name": "terminalConfigurations",
							"type": "tuple[]",
							"internalType": "struct JBTerminalConfig[]",
							"components": [
								{
									"name": "terminal",
									"type": "address",
									"internalType": "contract IJBTerminal"
								},
								{
									"name": "tokensToAccept",
									"type": "address[]",
									"internalType": "address[]"
								}
							]
						},
						{
							"name": "buybackHookConfiguration",
							"type": "tuple",
							"internalType": "struct REVBuybackHookConfig",
							"components": [
								{
									"name": "hook",
									"type": "address",
									"internalType": "contract IJBBuybackHook"
								},
								{
									"name": "poolConfigurations",
									"type": "tuple[]",
									"internalType": "struct REVBuybackPoolConfig[]",
									"components": [
										{
											"name": "token",
											"type": "address",
											"internalType": "address"
										},
										{
											"name": "fee",
											"type": "uint24",
											"internalType": "uint24"
										},
										{
											"name": "twapWindow",
											"type": "uint32",
											"internalType": "uint32"
										},
										{
											"name": "twapSlippageTolerance",
											"type": "uint32",
											"internalType": "uint32"
										}
									]
								}
							]
						},
						{
							"name": "suckerDeploymentConfiguration",
							"type": "tuple",
							"internalType": "struct REVSuckerDeploymentConfig",
							"components": [
								{
									"name": "deployerConfigurations",
									"type": "tuple[]",
									"internalType": "struct BPSuckerDeployerConfig[]",
									"components": [
										{
											"name": "deployer",
											"type": "address",
											"internalType": "contract IBPSuckerDeployer"
										},
										{
											"name": "mappings",
											"type": "tuple[]",
											"internalType": "struct BPTokenMapping[]",
											"components": [
												{
													"name": "localToken",
													"type": "address",
													"internalType": "address"
												},
												{
													"name": "minGas",
													"type": "uint32",
													"internalType": "uint32"
												},
												{
													"name": "remoteToken",
													"type": "address",
													"internalType": "address"
												},
												{
													"name": "minBridgeAmount",
													"type": "uint256",
													"internalType": "uint256"
												}
											]
										}
									]
								},
								{
									"name": "salt",
									"type": "bytes32",
									"internalType": "bytes32"
								}
							]
						}
					],
					"outputs": [
						{
							"name": "revnetId",
							"type": "uint256",
							"internalType": "uint256"
						}
					],
					"stateMutability": "nonpayable"
				},
				{
					"type": "function",
					"name": "deploySuckersFor",
					"inputs": [
						{
							"name": "revnetId",
							"type": "uint256",
							"internalType": "uint256"
						},
						{
							"name": "encodedConfiguration",
							"type": "bytes",
							"internalType": "bytes"
						},
						{
							"name": "suckerDeploymentConfiguration",
							"type": "tuple",
							"internalType": "struct REVSuckerDeploymentConfig",
							"components": [
								{
									"name": "deployerConfigurations",
									"type": "tuple[]",
									"internalType": "struct BPSuckerDeployerConfig[]",
									"components": [
										{
											"name": "deployer",
											"type": "address",
											"internalType": "contract IBPSuckerDeployer"
										},
										{
											"name": "mappings",
											"type": "tuple[]",
											"internalType": "struct BPTokenMapping[]",
											"components": [
												{
													"name": "localToken",
													"type": "address",
													"internalType": "address"
												},
												{
													"name": "minGas",
													"type": "uint32",
													"internalType": "uint32"
												},
												{
													"name": "remoteToken",
													"type": "address",
													"internalType": "address"
												},
												{
													"name": "minBridgeAmount",
													"type": "uint256",
													"internalType": "uint256"
												}
											]
										}
									]
								},
								{
									"name": "salt",
									"type": "bytes32",
									"internalType": "bytes32"
								}
							]
						}
					],
					"outputs": [],
					"stateMutability": "nonpayable"
				},
				{
					"type": "function",
					"name": "exitDelayOf",
					"inputs": [
						{
							"name": "revnetId",
							"type": "uint256",
							"internalType": "uint256"
						}
					],
					"outputs": [
						{
							"name": "exitDelay",
							"type": "uint256",
							"internalType": "uint256"
						}
					],
					"stateMutability": "view"
				},
				{
					"type": "function",
					"name": "hasMintPermissionFor",
					"inputs": [
						{
							"name": "revnetId",
							"type": "uint256",
							"internalType": "uint256"
						},
						{
							"name": "addr",
							"type": "address",
							"internalType": "address"
						}
					],
					"outputs": [
						{
							"name": "",
							"type": "bool",
							"internalType": "bool"
						}
					],
					"stateMutability": "view"
				},
				{
					"type": "function",
					"name": "onERC721Received",
					"inputs": [
						{
							"name": "operator",
							"type": "address",
							"internalType": "address"
						},
						{
							"name": "from",
							"type": "address",
							"internalType": "address"
						},
						{
							"name": "tokenId",
							"type": "uint256",
							"internalType": "uint256"
						},
						{
							"name": "data",
							"type": "bytes",
							"internalType": "bytes"
						}
					],
					"outputs": [
						{
							"name": "",
							"type": "bytes4",
							"internalType": "bytes4"
						}
					],
					"stateMutability": "view"
				},
				{
					"type": "function",
					"name": "payHookSpecificationsOf",
					"inputs": [
						{
							"name": "revnetId",
							"type": "uint256",
							"internalType": "uint256"
						}
					],
					"outputs": [
						{
							"name": "",
							"type": "tuple[]",
							"internalType": "struct JBPayHookSpecification[]",
							"components": [
								{
									"name": "hook",
									"type": "address",
									"internalType": "contract IJBPayHook"
								},
								{
									"name": "amount",
									"type": "uint256",
									"internalType": "uint256"
								},
								{
									"name": "metadata",
									"type": "bytes",
									"internalType": "bytes"
								}
							]
						}
					],
					"stateMutability": "view"
				},
				{
					"type": "function",
					"name": "replaceOperatorOf",
					"inputs": [
						{
							"name": "revnetId",
							"type": "uint256",
							"internalType": "uint256"
						},
						{
							"name": "newOperator",
							"type": "address",
							"internalType": "address"
						}
					],
					"outputs": [],
					"stateMutability": "nonpayable"
				},
				{
					"type": "function",
					"name": "supportsInterface",
					"inputs": [
						{
							"name": "interfaceId",
							"type": "bytes4",
							"internalType": "bytes4"
						}
					],
					"outputs": [
						{
							"name": "",
							"type": "bool",
							"internalType": "bool"
						}
					],
					"stateMutability": "view"
				},
				{
					"type": "error",
					"name": "REVBasicDeployer_ExitDelayInEffect",
					"inputs": []
				},
				{
					"type": "error",
					"name": "REVBasicDeployer_Unauthorized",
					"inputs": []
				}
			],
			"solcInputHash": "755eaa4b05c760d07dfe902eb8cdf8f4",
			"receipt": {
				"blockHash": "0x4e59eb1af2d593e975ac64aa38dce1209c76efd200a9d918b963b9a5dbd50b4e",
				"blockNumber": 5473138,
				"contractAddress": null,
				"cumulativeGasUsed": "27910778",
				"from": "0xC034550B542b83BA1De312b21d1C94a9a52B1595",
				"gasPrice": "1144518723",
				"gasUsed": "9446214",
				"hash": "0x012d2cb0f7a27ad8c3a5455c1d0660f0b4be047a77e97256f390d9dd5e49c8bd",
				"index": 164,
				"logs": [
					{
						"address": "0xB5E96127D417b1B3ef8438496a38A143167209c7",
						"blockHash": "0x4e59eb1af2d593e975ac64aa38dce1209c76efd200a9d918b963b9a5dbd50b4e",
						"blockNumber": 5473138,
						"data": "0x0000000000000000000000000000000000000000000000000000000000000000",
						"index": 278,
						"topics": [
							"0x572f161235911da04685a68c06adf558fc7e4a36909dca394650e0adc19cc93d",
							"0x000000000000000000000000c034550b542b83ba1de312b21d1c94a9a52b1595",
							"0x00000000000000000000000018ed911dda49f125bbadd71f826f1cda550f20fe",
							"0xea08831ada2fddd38646c7653cf08954830150f1c415b74ce66e8f3d47d2eb94"
						],
						"transactionHash": "0x012d2cb0f7a27ad8c3a5455c1d0660f0b4be047a77e97256f390d9dd5e49c8bd",
						"transactionIndex": 164
					},
					{
						"address": "0x15B51C7D9DBc4681e54f8b493187C9a2377bd81B",
						"blockHash": "0x4e59eb1af2d593e975ac64aa38dce1209c76efd200a9d918b963b9a5dbd50b4e",
						"blockNumber": 5473138,
						"data": "0x",
						"index": 279,
						"topics": [
							"0x6895c13664aa4f67288b25d7a21d7aaa34916e355fb9b6fae0a139a9085becb8",
							"0x00000000000000000000000018ed911dda49f125bbadd71f826f1cda550f20fe"
						],
						"transactionHash": "0x012d2cb0f7a27ad8c3a5455c1d0660f0b4be047a77e97256f390d9dd5e49c8bd",
						"transactionIndex": 164
					},
					{
						"address": "0x18Ed911ddA49f125bbadd71f826F1cDa550f20fE",
						"blockHash": "0x4e59eb1af2d593e975ac64aa38dce1209c76efd200a9d918b963b9a5dbd50b4e",
						"blockNumber": 5473138,
						"data": "0x0000000000000000000000000000000000000000000000000000000000000001",
						"index": 280,
						"topics": [
							"0xa65fb05c5808f5f389d72edeaf719ce38f4cc55c1f69ca3cbfb31c21501caa07",
							"0xd4471c8ae6e1babf0e4157b34143d8db15017448ffd6e7f1d172f37fd4d7b9bd"
						],
						"transactionHash": "0x012d2cb0f7a27ad8c3a5455c1d0660f0b4be047a77e97256f390d9dd5e49c8bd",
						"transactionIndex": 164
					},
					{
						"address": "0x15B51C7D9DBc4681e54f8b493187C9a2377bd81B",
						"blockHash": "0x4e59eb1af2d593e975ac64aa38dce1209c76efd200a9d918b963b9a5dbd50b4e",
						"blockNumber": 5473138,
						"data": "0x",
						"index": 281,
						"topics": [
							"0x6895c13664aa4f67288b25d7a21d7aaa34916e355fb9b6fae0a139a9085becb8",
							"0x00000000000000000000000018ed911dda49f125bbadd71f826f1cda550f20fe"
						],
						"transactionHash": "0x012d2cb0f7a27ad8c3a5455c1d0660f0b4be047a77e97256f390d9dd5e49c8bd",
						"transactionIndex": 164
					},
					{
						"address": "0x18Ed911ddA49f125bbadd71f826F1cDa550f20fE",
						"blockHash": "0x4e59eb1af2d593e975ac64aa38dce1209c76efd200a9d918b963b9a5dbd50b4e",
						"blockNumber": 5473138,
						"data": "0x0000000000000000000000000000000000000000000000000000000000000002",
						"index": 282,
						"topics": [
							"0xa65fb05c5808f5f389d72edeaf719ce38f4cc55c1f69ca3cbfb31c21501caa07",
							"0xd4471c8ae6e1babf0e4157b34143d8db15017448ffd6e7f1d172f37fd4d7b9bd"
						],
						"transactionHash": "0x012d2cb0f7a27ad8c3a5455c1d0660f0b4be047a77e97256f390d9dd5e49c8bd",
						"transactionIndex": 164
					},
					{
						"address": "0x18Ed911ddA49f125bbadd71f826F1cDa550f20fE",
						"blockHash": "0x4e59eb1af2d593e975ac64aa38dce1209c76efd200a9d918b963b9a5dbd50b4e",
						"blockNumber": 5473138,
						"data": "0x",
						"index": 283,
						"topics": [
							"0x4383d976757d67ca920616be0b6430a681ea9d3dcce8d6d61d4603ca4a9bff63",
							"0xd4471c8ae6e1babf0e4157b34143d8db15017448ffd6e7f1d172f37fd4d7b9bd"
						],
						"transactionHash": "0x012d2cb0f7a27ad8c3a5455c1d0660f0b4be047a77e97256f390d9dd5e49c8bd",
						"transactionIndex": 164
					}
				],
				"logsBloom": "0x00000000080010001000000000080000000000000008000000000000004000000000000000000000000000001040000000000004000004000000000000000001100000000000200000000000000000000000000000000000000000000000000000000000000000000400000000000000000000000000000800000000000000000000000000000000000100000000000000000000000000000000008000000000004000800010000000000000000001020200000000000000000000000044000000100000000000000000000008000000000000000000000000000000000000010000000000000008001000080000000200000000000000000000000008000000",
				"status": 1,
				"to": "0xB5E96127D417b1B3ef8438496a38A143167209c7"
			},
			"metadata": "{\"compiler\":{\"version\":\"0.8.23+commit.f704f362\"},\"language\":\"Solidity\",\"output\":{\"abi\":[{\"inputs\":[{\"internalType\":\"contract IJBController\",\"name\":\"controller\",\"type\":\"address\"},{\"internalType\":\"contract IBPSuckerRegistry\",\"name\":\"suckerRegistry\",\"type\":\"address\"}],\"stateMutability\":\"nonpayable\",\"type\":\"constructor\"},{\"inputs\":[],\"type\":\"error\",\"name\":\"REVBasicDeployer_ExitDelayInEffect\"},{\"inputs\":[],\"type\":\"error\",\"name\":\"REVBasicDeployer_Unauthorized\"},{\"inputs\":[],\"stateMutability\":\"view\",\"type\":\"function\",\"name\":\"CONTROLLER\",\"outputs\":[{\"internalType\":\"contract IJBController\",\"name\":\"\",\"type\":\"address\"}]},{\"inputs\":[],\"stateMutability\":\"view\",\"type\":\"function\",\"name\":\"EXIT_DELAY\",\"outputs\":[{\"internalType\":\"uint256\",\"name\":\"\",\"type\":\"uint256\"}]},{\"inputs\":[],\"stateMutability\":\"view\",\"type\":\"function\",\"name\":\"SUCKER_REGISTRY\",\"outputs\":[{\"internalType\":\"contract IBPSuckerRegistry\",\"name\":\"\",\"type\":\"address\"}]},{\"inputs\":[{\"internalType\":\"struct JBBeforePayRecordedContext\",\"name\":\"context\",\"type\":\"tuple\",\"components\":[{\"internalType\":\"address\",\"name\":\"terminal\",\"type\":\"address\"},{\"internalType\":\"address\",\"name\":\"payer\",\"type\":\"address\"},{\"internalType\":\"struct JBTokenAmount\",\"name\":\"amount\",\"type\":\"tuple\",\"components\":[{\"internalType\":\"address\",\"name\":\"token\",\"type\":\"address\"},{\"internalType\":\"uint256\",\"name\":\"value\",\"type\":\"uint256\"},{\"internalType\":\"uint256\",\"name\":\"decimals\",\"type\":\"uint256\"},{\"internalType\":\"uint256\",\"name\":\"currency\",\"type\":\"uint256\"}]},{\"internalType\":\"uint256\",\"name\":\"projectId\",\"type\":\"uint256\"},{\"internalType\":\"uint256\",\"name\":\"rulesetId\",\"type\":\"uint256\"},{\"internalType\":\"address\",\"name\":\"beneficiary\",\"type\":\"address\"},{\"internalType\":\"uint256\",\"name\":\"weight\",\"type\":\"uint256\"},{\"internalType\":\"uint256\",\"name\":\"reservedRate\",\"type\":\"uint256\"},{\"internalType\":\"bytes\",\"name\":\"metadata\",\"type\":\"bytes\"}]}],\"stateMutability\":\"view\",\"type\":\"function\",\"name\":\"beforePayRecordedWith\",\"outputs\":[{\"internalType\":\"uint256\",\"name\":\"weight\",\"type\":\"uint256\"},{\"internalType\":\"struct JBPayHookSpecification[]\",\"name\":\"hookSpecifications\",\"type\":\"tuple[]\",\"components\":[{\"internalType\":\"contract IJBPayHook\",\"name\":\"hook\",\"type\":\"address\"},{\"internalType\":\"uint256\",\"name\":\"amount\",\"type\":\"uint256\"},{\"internalType\":\"bytes\",\"name\":\"metadata\",\"type\":\"bytes\"}]}]},{\"inputs\":[{\"internalType\":\"struct JBBeforeRedeemRecordedContext\",\"name\":\"context\",\"type\":\"tuple\",\"components\":[{\"internalType\":\"address\",\"name\":\"terminal\",\"type\":\"address\"},{\"internalType\":\"address\",\"name\":\"holder\",\"type\":\"address\"},{\"internalType\":\"uint256\",\"name\":\"projectId\",\"type\":\"uint256\"},{\"internalType\":\"uint256\",\"name\":\"rulesetId\",\"type\":\"uint256\"},{\"internalType\":\"uint256\",\"name\":\"redeemCount\",\"type\":\"uint256\"},{\"internalType\":\"uint256\",\"name\":\"totalSupply\",\"type\":\"uint256\"},{\"internalType\":\"struct JBTokenAmount\",\"name\":\"surplus\",\"type\":\"tuple\",\"components\":[{\"internalType\":\"address\",\"name\":\"token\",\"type\":\"address\"},{\"internalType\":\"uint256\",\"name\":\"value\",\"type\":\"uint256\"},{\"internalType\":\"uint256\",\"name\":\"decimals\",\"type\":\"uint256\"},{\"internalType\":\"uint256\",\"name\":\"currency\",\"type\":\"uint256\"}]},{\"internalType\":\"bool\",\"name\":\"useTotalSurplus\",\"type\":\"bool\"},{\"internalType\":\"uint256\",\"name\":\"redemptionRate\",\"type\":\"uint256\"},{\"internalType\":\"bytes\",\"name\":\"metadata\",\"type\":\"bytes\"}]}],\"stateMutability\":\"view\",\"type\":\"function\",\"name\":\"beforeRedeemRecordedWith\",\"outputs\":[{\"internalType\":\"uint256\",\"name\":\"\",\"type\":\"uint256\"},{\"internalType\":\"uint256\",\"name\":\"\",\"type\":\"uint256\"},{\"internalType\":\"uint256\",\"name\":\"\",\"type\":\"uint256\"},{\"internalType\":\"struct JBRedeemHookSpecification[]\",\"name\":\"specifications\",\"type\":\"tuple[]\",\"components\":[{\"internalType\":\"contract IJBRedeemHook\",\"name\":\"hook\",\"type\":\"address\"},{\"internalType\":\"uint256\",\"name\":\"amount\",\"type\":\"uint256\"},{\"internalType\":\"bytes\",\"name\":\"metadata\",\"type\":\"bytes\"}]}]},{\"inputs\":[{\"internalType\":\"uint256\",\"name\":\"revnetId\",\"type\":\"uint256\"}],\"stateMutability\":\"view\",\"type\":\"function\",\"name\":\"buybackHookOf\",\"outputs\":[{\"internalType\":\"contract IJBRulesetDataHook\",\"name\":\"buybackHook\",\"type\":\"address\"}]},{\"inputs\":[{\"internalType\":\"struct REVConfig\",\"name\":\"configuration\",\"type\":\"tuple\",\"components\":[{\"internalType\":\"struct REVDescription\",\"name\":\"description\",\"type\":\"tuple\",\"components\":[{\"internalType\":\"string\",\"name\":\"name\",\"type\":\"string\"},{\"internalType\":\"string\",\"name\":\"symbol\",\"type\":\"string\"},{\"internalType\":\"string\",\"name\":\"uri\",\"type\":\"string\"},{\"internalType\":\"bytes32\",\"name\":\"salt\",\"type\":\"bytes32\"}]},{\"internalType\":\"uint32\",\"name\":\"baseCurrency\",\"type\":\"uint32\"},{\"internalType\":\"uint256\",\"name\":\"premintTokenAmount\",\"type\":\"uint256\"},{\"internalType\":\"address\",\"name\":\"initialOperator\",\"type\":\"address\"},{\"internalType\":\"struct REVStageConfig[]\",\"name\":\"stageConfigurations\",\"type\":\"tuple[]\",\"components\":[{\"internalType\":\"uint40\",\"name\":\"startsAtOrAfter\",\"type\":\"uint40\"},{\"internalType\":\"uint16\",\"name\":\"operatorSplitRate\",\"type\":\"uint16\"},{\"internalType\":\"uint112\",\"name\":\"initialIssuanceRate\",\"type\":\"uint112\"},{\"internalType\":\"uint40\",\"name\":\"priceCeilingIncreaseFrequency\",\"type\":\"uint40\"},{\"internalType\":\"uint32\",\"name\":\"priceCeilingIncreasePercentage\",\"type\":\"uint32\"},{\"internalType\":\"uint16\",\"name\":\"priceFloorTaxIntensity\",\"type\":\"uint16\"}]}]},{\"internalType\":\"struct JBTerminalConfig[]\",\"name\":\"terminalConfigurations\",\"type\":\"tuple[]\",\"components\":[{\"internalType\":\"contract IJBTerminal\",\"name\":\"terminal\",\"type\":\"address\"},{\"internalType\":\"address[]\",\"name\":\"tokensToAccept\",\"type\":\"address[]\"}]},{\"internalType\":\"struct REVBuybackHookConfig\",\"name\":\"buybackHookConfiguration\",\"type\":\"tuple\",\"components\":[{\"internalType\":\"contract IJBBuybackHook\",\"name\":\"hook\",\"type\":\"address\"},{\"internalType\":\"struct REVBuybackPoolConfig[]\",\"name\":\"poolConfigurations\",\"type\":\"tuple[]\",\"components\":[{\"internalType\":\"address\",\"name\":\"token\",\"type\":\"address\"},{\"internalType\":\"uint24\",\"name\":\"fee\",\"type\":\"uint24\"},{\"internalType\":\"uint32\",\"name\":\"twapWindow\",\"type\":\"uint32\"},{\"internalType\":\"uint32\",\"name\":\"twapSlippageTolerance\",\"type\":\"uint32\"}]}]},{\"internalType\":\"struct REVSuckerDeploymentConfig\",\"name\":\"suckerDeploymentConfiguration\",\"type\":\"tuple\",\"components\":[{\"internalType\":\"struct BPSuckerDeployerConfig[]\",\"name\":\"deployerConfigurations\",\"type\":\"tuple[]\",\"components\":[{\"internalType\":\"contract IBPSuckerDeployer\",\"name\":\"deployer\",\"type\":\"address\"},{\"internalType\":\"struct BPTokenMapping[]\",\"name\":\"mappings\",\"type\":\"tuple[]\",\"components\":[{\"internalType\":\"address\",\"name\":\"localToken\",\"type\":\"address\"},{\"internalType\":\"uint32\",\"name\":\"minGas\",\"type\":\"uint32\"},{\"internalType\":\"address\",\"name\":\"remoteToken\",\"type\":\"address\"},{\"internalType\":\"uint256\",\"name\":\"minBridgeAmount\",\"type\":\"uint256\"}]}]},{\"internalType\":\"bytes32\",\"name\":\"salt\",\"type\":\"bytes32\"}]}],\"stateMutability\":\"nonpayable\",\"type\":\"function\",\"name\":\"deployRevnetWith\",\"outputs\":[{\"internalType\":\"uint256\",\"name\":\"revnetId\",\"type\":\"uint256\"}]},{\"inputs\":[{\"internalType\":\"uint256\",\"name\":\"revnetId\",\"type\":\"uint256\"},{\"internalType\":\"bytes\",\"name\":\"encodedConfiguration\",\"type\":\"bytes\"},{\"internalType\":\"struct REVSuckerDeploymentConfig\",\"name\":\"suckerDeploymentConfiguration\",\"type\":\"tuple\",\"components\":[{\"internalType\":\"struct BPSuckerDeployerConfig[]\",\"name\":\"deployerConfigurations\",\"type\":\"tuple[]\",\"components\":[{\"internalType\":\"contract IBPSuckerDeployer\",\"name\":\"deployer\",\"type\":\"address\"},{\"internalType\":\"struct BPTokenMapping[]\",\"name\":\"mappings\",\"type\":\"tuple[]\",\"components\":[{\"internalType\":\"address\",\"name\":\"localToken\",\"type\":\"address\"},{\"internalType\":\"uint32\",\"name\":\"minGas\",\"type\":\"uint32\"},{\"internalType\":\"address\",\"name\":\"remoteToken\",\"type\":\"address\"},{\"internalType\":\"uint256\",\"name\":\"minBridgeAmount\",\"type\":\"uint256\"}]}]},{\"internalType\":\"bytes32\",\"name\":\"salt\",\"type\":\"bytes32\"}]}],\"stateMutability\":\"nonpayable\",\"type\":\"function\",\"name\":\"deploySuckersFor\"},{\"inputs\":[{\"internalType\":\"uint256\",\"name\":\"revnetId\",\"type\":\"uint256\"}],\"stateMutability\":\"view\",\"type\":\"function\",\"name\":\"exitDelayOf\",\"outputs\":[{\"internalType\":\"uint256\",\"name\":\"exitDelay\",\"type\":\"uint256\"}]},{\"inputs\":[{\"internalType\":\"uint256\",\"name\":\"revnetId\",\"type\":\"uint256\"},{\"internalType\":\"address\",\"name\":\"addr\",\"type\":\"address\"}],\"stateMutability\":\"view\",\"type\":\"function\",\"name\":\"hasMintPermissionFor\",\"outputs\":[{\"internalType\":\"bool\",\"name\":\"\",\"type\":\"bool\"}]},{\"inputs\":[{\"internalType\":\"address\",\"name\":\"operator\",\"type\":\"address\"},{\"internalType\":\"address\",\"name\":\"from\",\"type\":\"address\"},{\"internalType\":\"uint256\",\"name\":\"tokenId\",\"type\":\"uint256\"},{\"internalType\":\"bytes\",\"name\":\"data\",\"type\":\"bytes\"}],\"stateMutability\":\"view\",\"type\":\"function\",\"name\":\"onERC721Received\",\"outputs\":[{\"internalType\":\"bytes4\",\"name\":\"\",\"type\":\"bytes4\"}]},{\"inputs\":[{\"internalType\":\"uint256\",\"name\":\"revnetId\",\"type\":\"uint256\"}],\"stateMutability\":\"view\",\"type\":\"function\",\"name\":\"payHookSpecificationsOf\",\"outputs\":[{\"internalType\":\"struct JBPayHookSpecification[]\",\"name\":\"\",\"type\":\"tuple[]\",\"components\":[{\"internalType\":\"contract IJBPayHook\",\"name\":\"hook\",\"type\":\"address\"},{\"internalType\":\"uint256\",\"name\":\"amount\",\"type\":\"uint256\"},{\"internalType\":\"bytes\",\"name\":\"metadata\",\"type\":\"bytes\"}]}]},{\"inputs\":[{\"internalType\":\"uint256\",\"name\":\"revnetId\",\"type\":\"uint256\"},{\"internalType\":\"address\",\"name\":\"newOperator\",\"type\":\"address\"}],\"stateMutability\":\"nonpayable\",\"type\":\"function\",\"name\":\"replaceOperatorOf\"},{\"inputs\":[{\"internalType\":\"bytes4\",\"name\":\"interfaceId\",\"type\":\"bytes4\"}],\"stateMutability\":\"view\",\"type\":\"function\",\"name\":\"supportsInterface\",\"outputs\":[{\"internalType\":\"bool\",\"name\":\"\",\"type\":\"bool\"}]}],\"devdoc\":{\"kind\":\"dev\",\"methods\":{\"beforePayRecordedWith((address,address,(address,uint256,uint256,uint256),uint256,uint256,address,uint256,uint256,bytes))\":{\"details\":\"Part of IJBFundingCycleDataSource.This implementation just sets this contract up to receive a `didPay` call.\",\"params\":{\"context\":\"The Juicebox standard network payment context. See\"},\"returns\":{\"hookSpecifications\":\"Amount to be sent to pay hooks instead of adding to local balance. Useful for auto-routing funds from a treasury as payment come in.\",\"weight\":\"The weight that network tokens should get minted relative to. This is useful for optionally customizing how many tokens are issued per payment.\"}},\"constructor\":{\"params\":{\"controller\":\"The controller that revnets are made from.\",\"suckerRegistry\":\"The registry that deploys and tracks each project's suckers.\"}},\"deployRevnetWith(((string,string,string,bytes32),uint32,uint256,address,(uint40,uint16,uint112,uint40,uint32,uint16)[]),(address,address[])[],(address,(address,uint24,uint32,uint32)[]),((address,(address,uint32,address,uint256)[])[],bytes32))\":{\"params\":{\"buybackHookConfiguration\":\"Data used for setting up the buyback hook to use when determining the best price for new participants.\",\"configuration\":\"The data needed to deploy a basic revnet.\",\"suckerDeploymentConfiguration\":\"Information about how this revnet relates to other's across chains.\",\"terminalConfigurations\":\"The terminals that the network uses to accept payments through.\"},\"returns\":{\"revnetId\":\"The ID of the newly created revnet.\"}},\"deploySuckersFor(uint256,bytes,((address,(address,uint32,address,uint256)[])[],bytes32))\":{\"params\":{\"encodedConfiguration\":\"A bytes representation of the revnet's configuration.\",\"revnetId\":\"The ID of the revnet having new suckers deployed.\",\"suckerDeploymentConfiguration\":\"The specifics about the suckers being deployed.\"}},\"hasMintPermissionFor(uint256,address)\":{\"params\":{\"addr\":\"The address to check if has permissions.\",\"revnetId\":\"The ID of the revnet to check permissions for.\"},\"returns\":{\"_0\":\"flag The flag indicating if the address has permissions to mint on the revnet's behalf.\"}},\"onERC721Received(address,address,uint256,bytes)\":{\"details\":\"Make sure only mints can be received.\"},\"payHookSpecificationsOf(uint256)\":{\"params\":{\"revnetId\":\"The ID of the revnet to which the extensions apply.\"},\"returns\":{\"_0\":\"payHookSpecifications The pay hooks.\"}},\"replaceOperatorOf(uint256,address)\":{\"params\":{\"newOperator\":\"The address of the new operator.\",\"revnetId\":\"The ID of the revnet having its operator replaced.\"}},\"supportsInterface(bytes4)\":{\"details\":\"See {IERC165-supportsInterface}.\",\"params\":{\"interfaceId\":\"The ID of the interface to check for adherence to.\"},\"returns\":{\"_0\":\"A flag indicating if the provided interface ID is supported.\"}}},\"version\":1},\"userdoc\":{\"kind\":\"user\",\"methods\":{\"CONTROLLER()\":{\"notice\":\"The controller that networks are made from.\"},\"EXIT_DELAY()\":{\"notice\":\"The amount of time from a sucker being deployed to when it can facilitate exits.\"},\"SUCKER_REGISTRY()\":{\"notice\":\"The registry that deploys and tracks each project's suckers.\"},\"beforePayRecordedWith((address,address,(address,uint256,uint256,uint256),uint256,uint256,address,uint256,uint256,bytes))\":{\"notice\":\"This function gets called when the revnet receives a payment.\"},\"beforeRedeemRecordedWith((address,address,uint256,uint256,uint256,uint256,(address,uint256,uint256,uint256),bool,uint256,bytes))\":{\"notice\":\"This function is never called, it needs to be included to adhere to the interface.\"},\"buybackHookOf(uint256)\":{\"notice\":\"The data hook that returns the correct values for the buyback hook of each network.\"},\"deployRevnetWith(((string,string,string,bytes32),uint32,uint256,address,(uint40,uint16,uint112,uint40,uint32,uint16)[]),(address,address[])[],(address,(address,uint24,uint32,uint32)[]),((address,(address,uint32,address,uint256)[])[],bytes32))\":{\"notice\":\"Deploy a basic revnet.\"},\"deploySuckersFor(uint256,bytes,((address,(address,uint32,address,uint256)[])[],bytes32))\":{\"notice\":\"Allows a revnet's operator to deploy new suckers to the revnet after it's deployed.\"},\"exitDelayOf(uint256)\":{\"notice\":\"The time at which exits from a revnet become allowed.\"},\"hasMintPermissionFor(uint256,address)\":{\"notice\":\"Required by the IJBRulesetDataHook interfaces.\"},\"payHookSpecificationsOf(uint256)\":{\"notice\":\"The pay hooks to include during payments to networks.\"},\"replaceOperatorOf(uint256,address)\":{\"notice\":\"A revnet's operator can replace itself.\"},\"supportsInterface(bytes4)\":{\"notice\":\"Indicates if this contract adheres to the specified interface.\"}},\"version\":1}},\"settings\":{\"remappings\":[\"@arbitrum/=node_modules/@arbitrum/\",\"@bananapus/=node_modules/@bananapus/\",\"@chainlink/=node_modules/@chainlink/\",\"@croptop/=node_modules/@croptop/\",\"@eth-optimism/=node_modules/@eth-optimism/\",\"@exhausted-pigeon/=node_modules/@exhausted-pigeon/\",\"@gnosis.pm/=node_modules/@gnosis.pm/\",\"@offchainlabs/=node_modules/@offchainlabs/\",\"@openzeppelin/=node_modules/@openzeppelin/\",\"@prb/=node_modules/@prb/\",\"@sphinx-labs/contracts/=node_modules/@sphinx-labs/contracts/contracts/foundry/\",\"@uniswap/=node_modules/@uniswap/\",\"base64-sol/=node_modules/base64-sol/\",\"ds-test/=lib/forge-std/lib/ds-test/src/\",\"forge-std/=lib/forge-std/src/\",\"hardhat/=node_modules/hardhat/\",\"solmate/=node_modules/solmate/\",\"sphinx-forge-std/=node_modules/sphinx-forge-std/\",\"sphinx-solmate/=node_modules/sphinx-solmate/\",\"sphinx/=lib/sphinx/packages/contracts/contracts/forge-std/src/\"],\"optimizer\":{\"enabled\":true,\"runs\":100000000},\"metadata\":{\"bytecodeHash\":\"ipfs\"},\"compilationTarget\":{\"src/REVBasicDeployer.sol\":\"REVBasicDeployer\"},\"evmVersion\":\"paris\",\"libraries\":{}},\"sources\":{\"node_modules/@bananapus/buyback-hook/src/interfaces/IJBBuybackHook.sol\":{\"keccak256\":\"0xbe5d7f3bf2e18b569676ba9194e248e6b1ed50022f5247b4f1fa124c91bfd418\",\"urls\":[\"bzz-raw://eb221d1570e8aad409c419b6a2f84351e818c3527f3f44b806cd64c84d7a8c86\",\"dweb:/ipfs/QmUPZstaKjPN7VTywg3Mt6bF75E53mQbmXhf3TxCggJbRR\"],\"license\":\"MIT\"},\"node_modules/@bananapus/buyback-hook/src/interfaces/external/IWETH9.sol\":{\"keccak256\":\"0x50083bcaca6c1a8d12c79116fab4f6d8cd452a510cb3f00c4a8bc3a54678efb7\",\"urls\":[\"bzz-raw://726f187112d0953c14bff8099a8c9ce1ead47eb25e90839f77b100feaaf16127\",\"dweb:/ipfs/QmTEnMENpLjcTQLMwz4kEUiQHfiTkaZT3TL37nQ8JiRYh5\"],\"license\":\"GPL-2.0-or-later\"},\"node_modules/@bananapus/core/src/enums/JBApprovalStatus.sol\":{\"keccak256\":\"0x61c69b6bac7d24b566d87cda23a77e4ca9cdb87200b106aba8534cb9a0973e33\",\"urls\":[\"bzz-raw://6a9ca7249de76f77a8252eefe6bd1b63d47952f25a2acfa2c8db967cdff4470c\",\"dweb:/ipfs/QmaxSxptRQNj8bNy96EreENmrnRWdKmhyihBcxyWzBX5BN\"],\"license\":\"MIT\"},\"node_modules/@bananapus/core/src/interfaces/IJBControlled.sol\":{\"keccak256\":\"0x79fb8de7b3f809f1c3c7189f578b7331ec4dfe3350151d5b50240ecb3a2a907b\",\"urls\":[\"bzz-raw://45c82240dd4f0e9aec00d0d86f6b44bdda231db098ebdac17e922771b3e6f342\",\"dweb:/ipfs/QmPUvT8HZeVenrZDpP14HsZofaXPJjih8UAd35rTg3tU7E\"],\"license\":\"MIT\"},\"node_modules/@bananapus/core/src/interfaces/IJBController.sol\":{\"keccak256\":\"0xfe88b4ddf528542fde8f8fcc650281f48ca291d5432ec3f02cf8f064ecd79b22\",\"urls\":[\"bzz-raw://f71da06a55abca8cdcc447fd554df2fa2377a276679b2113f2cec8db635d70a4\",\"dweb:/ipfs/QmT3H3aWByCVVAhiB1DrPuG1Scm4GtyXWVcEP1p7GCmVJA\"],\"license\":\"MIT\"},\"node_modules/@bananapus/core/src/interfaces/IJBDirectory.sol\":{\"keccak256\":\"0xd15957cc32974cde4f9f194b92574df2ad8a7aeec049d947136ce3381f9145f6\",\"urls\":[\"bzz-raw://7543e5cbde75ff777b16067016ff9ac5e995752842f03662137eb4ef3fc3c868\",\"dweb:/ipfs/QmPJZAmqNKRcj1JQ4Kc9hExbMtPPzrRB5hZ787utCfBmXg\"],\"license\":\"MIT\"},\"node_modules/@bananapus/core/src/interfaces/IJBDirectoryAccessControl.sol\":{\"keccak256\":\"0x1e67f56849320a46f834aaa9bd62b170ff8ada7b224b4a81136193740fa0be4d\",\"urls\":[\"bzz-raw://ea8fbcec44abfe49d137bcae129b67e5479d6b17879301f88534c8a7fab00be4\",\"dweb:/ipfs/QmT6wrtYX4GRpffHUzupNwYebJ1dqkkKZLEewWsoyunsqw\"],\"license\":\"MIT\"},\"node_modules/@bananapus/core/src/interfaces/IJBFundAccessLimits.sol\":{\"keccak256\":\"0x2a2ece23837bedde2fddb728476e558bc37c644f641d397a8e08e8a1a85ea390\",\"urls\":[\"bzz-raw://f44187b5a720cdbe5af325331a5e351fc8504853836fb54b997c597949246726\",\"dweb:/ipfs/QmSKM2aMpnof458iCeui2Wkf7S8FfBRGs9zF3QG5DJLf7C\"],\"license\":\"MIT\"},\"node_modules/@bananapus/core/src/interfaces/IJBMigratable.sol\":{\"keccak256\":\"0xd69bd5aba01a68d82c303ef3adde47532abcace030a94296c3ea6988b401789c\",\"urls\":[\"bzz-raw://88f11a1c89899327746beba4fc830abf3ac2eb9c152c778e884a6eed6564971f\",\"dweb:/ipfs/QmTpKhSTVewpz7VyKcz6BJwH2LFKMwT7Qi5HNWmjEjwsdK\"],\"license\":\"MIT\"},\"node_modules/@bananapus/core/src/interfaces/IJBPayHook.sol\":{\"keccak256\":\"0xe24aa2ca52f7a5f24f24ccae101cfc94d0f76705b2d23222f87c7852f8be4267\",\"urls\":[\"bzz-raw://6888140e9a7d4156fd22635654d5d08e21819af8b0356b5415f37b75083b3eb9\",\"dweb:/ipfs/QmbuwBNhar7rEbRhTJPiyo5PVsfaM5nqLow9NAkHhyvjV5\"],\"license\":\"MIT\"},\"node_modules/@bananapus/core/src/interfaces/IJBPermissioned.sol\":{\"keccak256\":\"0x5b038d4dee116584e88b230920e56d48e135053e3f7e5642eaea14a775c1dad7\",\"urls\":[\"bzz-raw://19e43102f349fd4a1da1c0943ffb8f2950007fe4bb4bb7e8f74fc142575d091b\",\"dweb:/ipfs/QmXHAt4KzDTdDZgDDefEXH2WKi7NcfkJb9R7nxW5uDqsNp\"],\"license\":\"MIT\"},\"node_modules/@bananapus/core/src/interfaces/IJBPermissions.sol\":{\"keccak256\":\"0x18870e500edf0fbadc353e273a5574701fb80466376b908c65e7cc3f11044d4d\",\"urls\":[\"bzz-raw://352a47c45853aec80e7acf0d286ade3106eb4cb456776b28a3c2f3f1091bed90\",\"dweb:/ipfs/QmQeYd3YbudYZy2hfbfht9kwhxhw4tuuLKMEYy9UY6dcSy\"],\"license\":\"MIT\"},\"node_modules/@bananapus/core/src/interfaces/IJBProjectUriRegistry.sol\":{\"keccak256\":\"0x2799475228987e4f8334ac33d3935f759c9b8133db7383b4f622dde7a5dc0502\",\"urls\":[\"bzz-raw://d751731740f45df74eea48c9667e847ee2cddb2980ab4939c86bd17e6c6ed89b\",\"dweb:/ipfs/QmXW8SLTuhdUpfn7pRpdsYdcyuim8RTyagU37ULcj5UZhT\"],\"license\":\"MIT\"},\"node_modules/@bananapus/core/src/interfaces/IJBProjects.sol\":{\"keccak256\":\"0x85539f72c5871c53a919edc7db78931155464e9e00fccd30079b17e75820ddb9\",\"urls\":[\"bzz-raw://505466dbfbdeec77f948ce065676897a5b4a74b70bb234c1053b893c4849f3a1\",\"dweb:/ipfs/QmYBpZQub3Mv19xsRWqvzgiQSBAp4UNaKcqWQ2wwH62H95\"],\"license\":\"MIT\"},\"node_modules/@bananapus/core/src/interfaces/IJBRedeemHook.sol\":{\"keccak256\":\"0x4ea5b7ed510c9d29aca47ae3f8b41ef075dff4b9909779ec2c0e5b7bc30250c6\",\"urls\":[\"bzz-raw://770b785134ba71e3284dc7e05e44f429e7a8393423ad45cf8fe540408a5b9633\",\"dweb:/ipfs/QmRjXJxZPA1qZos7QjeCxJZ8sCfXfkyDFbzkdqzaqCD9Ds\"],\"license\":\"MIT\"},\"node_modules/@bananapus/core/src/interfaces/IJBRulesetApprovalHook.sol\":{\"keccak256\":\"0x5e9f921a6aa5d9396a12bbc0a878c3f5e8ae0a4ce8a3abe0de12e300718838d7\",\"urls\":[\"bzz-raw://6c9f0610f5bbe07554a1bdc39041be1284c20d81d930bec1eee2d374b86e03f4\",\"dweb:/ipfs/QmPH57wBoPERwDWkBCcj9c5tEUdeeLNe2kv1oFM7cTKVrd\"],\"license\":\"MIT\"},\"node_modules/@bananapus/core/src/interfaces/IJBRulesetDataHook.sol\":{\"keccak256\":\"0x3fea9fcab6f0335e67f0f052cf5d3446e9310808f88b5878d21586be00f89f85\",\"urls\":[\"bzz-raw://5506848f471d308a14523f91202d76d960f8255e227d29d34b0892ef70315cae\",\"dweb:/ipfs/QmakRKFctSZobpem1caU2zXqhiPQnaYVa7Y6NdAPAonHaU\"],\"license\":\"MIT\"},\"node_modules/@bananapus/core/src/interfaces/IJBRulesets.sol\":{\"keccak256\":\"0xda1a9aef337cf9fede3f638ffa58aea2815b87fde0f79628834aa03af9f582d7\",\"urls\":[\"bzz-raw://7941690ba6d94500474978ff0f02ecc56335eae5937759878e25cc1ac30a8ecc\",\"dweb:/ipfs/QmZFc7wof6PzfBTkVyNkjaQrQbjc36CK4uC3Ee2vgihqyK\"],\"license\":\"MIT\"},\"node_modules/@bananapus/core/src/interfaces/IJBSplitHook.sol\":{\"keccak256\":\"0xc99bb76736acc5c6409d1ff54cb90218b547fdf7f8a7c0d03ddb7ac9eb35645e\",\"urls\":[\"bzz-raw://7fa7e56f426a758e6125e58d81137569964e46bdfeaf9ea081b9382d80b536a9\",\"dweb:/ipfs/Qmc1wwfBP4xoGKe4BcDnwL11y3Gvk4Dk8r6qqWD4jbdKK4\"],\"license\":\"MIT\"},\"node_modules/@bananapus/core/src/interfaces/IJBSplits.sol\":{\"keccak256\":\"0x2f415b55c1d7b7fdd9ee938897a8a2b5b1c81d2ab2233d678953ea8ab9b3fb24\",\"urls\":[\"bzz-raw://f7cd02ef943cb49db501b300cbe56d5d62e4ac59caef5c38d697fdbdd21d5f9a\",\"dweb:/ipfs/QmXcxH6gBiBLes2kzSNDvPqVuDZxu1xyDPjfEziARMJhHb\"],\"license\":\"MIT\"},\"node_modules/@bananapus/core/src/interfaces/IJBToken.sol\":{\"keccak256\":\"0x911c93ec0053c1ce3c3a82ddefc8a2911f244b159b1b88fa2a7697b5455d67e0\",\"urls\":[\"bzz-raw://a29b34338ffe4310d6fa012cce351a8db98ad84dac40b6886fcbaa76145eefb2\",\"dweb:/ipfs/QmctiW2p99TaZLGBnavS3gE89p2KFoPfCPPpPvZDXsyMq9\"],\"license\":\"MIT\"},\"node_modules/@bananapus/core/src/interfaces/IJBTokenUriResolver.sol\":{\"keccak256\":\"0xfa5cb00dcd6085d1ef912d071fe73c63f9478a2cd0f9d8bddaf659b6af2d0967\",\"urls\":[\"bzz-raw://282e4e7c342d65f77cde0e9a08fcaf20ef5cf379c7a48b639842c0ffd0b2afb8\",\"dweb:/ipfs/QmbnN3PEQeZaXdPLT75V1J79kMg7KqSMru37RHrL3z8Yf2\"],\"license\":\"MIT\"},\"node_modules/@bananapus/core/src/interfaces/IJBTokens.sol\":{\"keccak256\":\"0xbbb3764d6b9d253f7a2b4e13636bf1d523d72be87b144dea6bbd7177b0953ffe\",\"urls\":[\"bzz-raw://417cdba44cf58c833785ec180918d297fcda2539d8476a978cd7d1d39c4b33d2\",\"dweb:/ipfs/QmSewvgMsjqS2fek8LXc4dNGBKhX6odnyNpzr9UmDX3WXE\"],\"license\":\"MIT\"},\"node_modules/@bananapus/core/src/interfaces/terminal/IJBTerminal.sol\":{\"keccak256\":\"0x36f23bc27e56fa86d100281a75f5a6ce73f39f32e6a1667ce69f902da1d005ee\",\"urls\":[\"bzz-raw://e8ffa2e264fa12444799cb5706ca577034f3f8be9ff7a2f072981de6a61d706d\",\"dweb:/ipfs/QmR6gQDymvk8JQ77J8VxpFD1Hnxga4w7LLiRvAT3m4LG6T\"],\"license\":\"MIT\"},\"node_modules/@bananapus/core/src/libraries/JBConstants.sol\":{\"keccak256\":\"0x9d3a9a953f859d8ec79a599577f8972de6da7199cc1bfa7fdad017d4d722bcb4\",\"urls\":[\"bzz-raw://f151fcb53a8d2684eff8b9e56ac790bcbcadd8199a4fd4d17c5b224b22936722\",\"dweb:/ipfs/QmdAz1ZtCE8nTiC4AxQNLfJhnY3ndGum2Lbef7seKdvTdR\"],\"license\":\"MIT\"},\"node_modules/@bananapus/core/src/libraries/JBSplitGroupIds.sol\":{\"keccak256\":\"0x932ca2645d443f04f86c8ffb27b5c58c4fbdc7b5a145fba1d43f1db9bd488a0f\",\"urls\":[\"bzz-raw://fa412d2c5726a868a258cd518648726b0784ab7ac7566376b82ba09680f66227\",\"dweb:/ipfs/QmZvfjBt7PQzTWNzrhysyHBegUbbu4aY2xDzBGnwqMaqnF\"],\"license\":\"MIT\"},\"node_modules/@bananapus/core/src/structs/JBAccountingContext.sol\":{\"keccak256\":\"0x2907ff54d1e903cc7e0390dd88c3975884702dc2673642aacbe22b66560b56de\",\"urls\":[\"bzz-raw://a66a5381ce877b32f0e0058ceeaf843e9b6b2bc8af666c0c9f4a9d01091da004\",\"dweb:/ipfs/QmQynCetUr37dBkS1YwDS8evxuXGiqanW6THmeUxXtim8w\"],\"license\":\"MIT\"},\"node_modules/@bananapus/core/src/structs/JBAfterPayRecordedContext.sol\":{\"keccak256\":\"0xd26c3a774ff38be79064085970454fe2603a23a638c76270d5b1b3829206c3e8\",\"urls\":[\"bzz-raw://3b55dbe3bf1ef625b7ca04efab3de35406e6041d5b3d82c7265469c500e2b702\",\"dweb:/ipfs/QmUdBDo4Lt3mcsFcsXT2mqq3czFwZjQJFPLM89YA2VtD7k\"],\"license\":\"MIT\"},\"node_modules/@bananapus/core/src/structs/JBAfterRedeemRecordedContext.sol\":{\"keccak256\":\"0x521f5d23a36f0da72362cd84890cc867bd83baa8dc836ba6c5066d51dba2f163\",\"urls\":[\"bzz-raw://6cc461313286dde62d045d6288e87bae5032e035796326f5b1ed6218e58aa9da\",\"dweb:/ipfs/QmQS2AkQwf2ANQieDuaUnpJEdXChoLv4CCbZqHkfywYPSR\"],\"license\":\"MIT\"},\"node_modules/@bananapus/core/src/structs/JBBeforePayRecordedContext.sol\":{\"keccak256\":\"0x5b04e814da83c7e83ff892ab07eaad6abce6f7b85a75f8da9380e9fc3470bc81\",\"urls\":[\"bzz-raw://11c889aab993fce3e3cc2dedc15fc30dd367e7fef9b7b1bfd6a6a9f248781731\",\"dweb:/ipfs/QmVVtydCD1azeWhGLxA1hthxfLyKzMHZ1eVzCz3a3R5dLy\"],\"license\":\"MIT\"},\"node_modules/@bananapus/core/src/structs/JBBeforeRedeemRecordedContext.sol\":{\"keccak256\":\"0x73eadaf6827e82f6ccbe3a1e2b2b7fc6c59cef471f73335041b30ddcc000989d\",\"urls\":[\"bzz-raw://2f3ee84662eed565dbdaed406ef836fffaf55cccd417575578152e5085d0b1f2\",\"dweb:/ipfs/QmaJGFS7hxJsiUdKvbv5BKhSwceDEzKBnt7t5YeNWvYgMK\"],\"license\":\"MIT\"},\"node_modules/@bananapus/core/src/structs/JBCurrencyAmount.sol\":{\"keccak256\":\"0x12fe4b43f4824994624d4fe0abbd88c3fe7867fd637edb65c7f456dab27e2d6e\",\"urls\":[\"bzz-raw://8003a3e8f932cf891e86b827e67c9d31b0d34c2712e18c2bc333cfe5284ba6d5\",\"dweb:/ipfs/QmSoA6RsDcSnNzk6CB7KZtALkHmeSDAi2g6fg3TDmLDkWX\"],\"license\":\"MIT\"},\"node_modules/@bananapus/core/src/structs/JBFundAccessLimitGroup.sol\":{\"keccak256\":\"0x9fdaa8d017b72da25f583700a444a86849df053f7fb8eac874ec5139bcf651e5\",\"urls\":[\"bzz-raw://c8e44c49ee444a98424a0dbeb6897a76a0bf00d88a613f62ac2012afdac754ee\",\"dweb:/ipfs/QmdYkAiRi5bXM1YYNkc7BiqimHSFodMGn1cjHR5hcpm4xH\"],\"license\":\"MIT\"},\"node_modules/@bananapus/core/src/structs/JBPayHookSpecification.sol\":{\"keccak256\":\"0x955f0bfca97300b9e5927dc181753830ee362f83fa9ca32a90daade32aa0cfd5\",\"urls\":[\"bzz-raw://f517af1597c7c40f8d3da53f7a6684a3e162950a16559d6bf6ea3b727bb11546\",\"dweb:/ipfs/QmRWo2ZTYXmVZTzNJDYhsJNsEaHphjpUfx9eNz2cciyz86\"],\"license\":\"MIT\"},\"node_modules/@bananapus/core/src/structs/JBPermissionsData.sol\":{\"keccak256\":\"0x8f0f69a6ebf5f3704e3dfcb3712fb9d3f94ae7c1ab89bf3e37bad42a3e7a0487\",\"urls\":[\"bzz-raw://57b0c5e52843e2217082889ed47b4da3943e0da4590d5768dcebfe3edad4a6b8\",\"dweb:/ipfs/QmRz48vuWLw81kUP836rh1qzqWiJFGbksgRUA9xGEDNKTY\"],\"license\":\"MIT\"},\"node_modules/@bananapus/core/src/structs/JBRedeemHookSpecification.sol\":{\"keccak256\":\"0x673d16ee1a91bf8de3b37e57284e60451b70a9c2d748c9cdc7a151f5624af18f\",\"urls\":[\"bzz-raw://ceeb5e81effa0f076c5630c756dfcf1548d09f822b255a0a6ee01e54de8c8ae2\",\"dweb:/ipfs/QmSMoMNPRhPMnuJNvWa6S59XRfycGz9o2ApNp63bUW6TdX\"],\"license\":\"MIT\"},\"node_modules/@bananapus/core/src/structs/JBRuleset.sol\":{\"keccak256\":\"0x15b2bf3174d84846a91ccbf5a344dfb125b55ed9cf50102db8d6868844225189\",\"urls\":[\"bzz-raw://647416b025dbd941094db89cbc69f755c155bd6c87be3f322394ccc4a8e0442d\",\"dweb:/ipfs/QmTCL9xcHnxQ4t5AmCPoZvXDUPW5xhzhyyXYbkMdyg44au\"],\"license\":\"MIT\"},\"node_modules/@bananapus/core/src/structs/JBRulesetConfig.sol\":{\"keccak256\":\"0x344405b459a345fa2cb072b162422b4e85e435ff6ee82eb2c382bf52db929f10\",\"urls\":[\"bzz-raw://e067a0c3fd190cd00177800f8f065264985d4f6737a758f068a8bf5ed1cfdad0\",\"dweb:/ipfs/QmPAMiyfi1cDtandkMSXgoNdo3WLvwmvdcPGeKiot9TTaz\"],\"license\":\"MIT\"},\"node_modules/@bananapus/core/src/structs/JBRulesetMetadata.sol\":{\"keccak256\":\"0xfea54c9f98416d2aa05309e7ff76967d6968a614850a1e33e48fde793ea8b514\",\"urls\":[\"bzz-raw://bf55386cbab90dbc1296b2b0cbfdc217a4500d67702e4a093a4c78bd127ecd5c\",\"dweb:/ipfs/QmTRq9mZrNSXu7oCZwti4JbBFrbY6A5msRqi9RbtL49NAj\"],\"license\":\"MIT\"},\"node_modules/@bananapus/core/src/structs/JBRulesetWithMetadata.sol\":{\"keccak256\":\"0x1bcfadf20488f6df65227f8d4d0fbf9b7539456a2389567f7fe3900d23289bc3\",\"urls\":[\"bzz-raw://0a15c399a71e5373f8c0484c6d6b83521eda31e063a2c53e4c5cec4e74550343\",\"dweb:/ipfs/QmQwi8zkjoTVXbK89NeETYimWCacTrNsesJdpLSvGdqMPX\"],\"license\":\"MIT\"},\"node_modules/@bananapus/core/src/structs/JBSplit.sol\":{\"keccak256\":\"0x1d40fa4f1c911a53b9139f3d44d27cb58fa5c5d2cd793c7a21ccf52b9e61f848\",\"urls\":[\"bzz-raw://9897d2c29fc65fe16e4eac0b7b8b6fd8ef0b0cc501986f7f0c3a78c4ec1dbb60\",\"dweb:/ipfs/QmXcHoVjCYWWCz4hm2KZ6JxtB4YNq7jmXa2evLkga59Xwq\"],\"license\":\"MIT\"},\"node_modules/@bananapus/core/src/structs/JBSplitGroup.sol\":{\"keccak256\":\"0xda7da6e88aac2906c7ea4027660088daf217edc632bebca4d72795aae8921564\",\"urls\":[\"bzz-raw://ae1939d17e94cb51484f31ce64cf0df990445a338fb9b38d39a7baf28275ae4a\",\"dweb:/ipfs/QmUhPnJiWnYhFdtLvZnrPopAdbYXxETpGjvxjPDignpTGY\"],\"license\":\"MIT\"},\"node_modules/@bananapus/core/src/structs/JBSplitHookContext.sol\":{\"keccak256\":\"0xfe34e6860b00ca93d71f44e72882281b2c57c31303151af05795c74cfdd2e51d\",\"urls\":[\"bzz-raw://08acab094888e9c929b6f6f972d89ddbb31e5867675e7e7c602d25fcb2c0f402\",\"dweb:/ipfs/QmPNdXM185cTyXQSodVr4JMviHx88jrWu7dipgkp9xTNgJ\"],\"license\":\"MIT\"},\"node_modules/@bananapus/core/src/structs/JBTerminalConfig.sol\":{\"keccak256\":\"0x141b5d45c0b58dcddb1eeab34ec00c18c60415f8e594d1852c53e6f79dfe53ee\",\"urls\":[\"bzz-raw://ca995ea354eac6f5ebc8ef4fd5c8ece8c88698bac96da65c7aaa497a7bc0f582\",\"dweb:/ipfs/Qmf2BS1LHXtoQJuUYt4UisvYpA5dmieSq1gs51iQjNh2bw\"],\"license\":\"MIT\"},\"node_modules/@bananapus/core/src/structs/JBTokenAmount.sol\":{\"keccak256\":\"0x5cf0626b73a596c1e2da17c89ae039a7c0374310b060d48568d3b6c11fbe6180\",\"urls\":[\"bzz-raw://63348b50be95e2995409394a17caffc563a646f0972650a1230bf864fbd3219b\",\"dweb:/ipfs/QmZXZpS3SbFD5nWaCauf6AqbEhLURv5qsKHpThBvQgDU6u\"],\"license\":\"MIT\"},\"node_modules/@bananapus/permission-ids/src/JBPermissionIds.sol\":{\"keccak256\":\"0xa21681d89f2cf9265a10e6fa63301658ccc62635058cd3c8307aaaec1a045ff3\",\"urls\":[\"bzz-raw://0c825382afb76e79feb81425991637d50d1f1fc4ccaa12953f1e1042853db8d3\",\"dweb:/ipfs/QmPAsLuTziQx8R5PzYrLYDKybc6Ykq8fwG46ofRxQwdjgn\"],\"license\":\"UNLICENSED\"},\"node_modules/@bananapus/suckers/src/interfaces/IBPSucker.sol\":{\"keccak256\":\"0x02a78d0c6d048fc4ead0fc2f0582bc81a216dc1f097d1e0e3a34a7b2c9490894\",\"urls\":[\"bzz-raw://173df43569bcb1a0daea23b997d67f4c68150cd722b2ce858e5c9fe01cf113e6\",\"dweb:/ipfs/QmaDXu6Xp9sRksBdry2p5turGJ5Uvhnzpwhs6UEXhqorM4\"],\"license\":\"MIT\"},\"node_modules/@bananapus/suckers/src/interfaces/IBPSuckerDeployer.sol\":{\"keccak256\":\"0xe252e890c4b5e12d5fa537a11cd2fad936f41be80240301ace8afca3de481222\",\"urls\":[\"bzz-raw://730855964dd0629f3d514ed52f59d80d02786733c3b8b5cf21e69524de7f8829\",\"dweb:/ipfs/QmUuoYEmnzUNn3hANGrg8sDZdjoaEbgWMWLepsSQt9MUyw\"],\"license\":\"MIT\"},\"node_modules/@bananapus/suckers/src/interfaces/IBPSuckerRegistry.sol\":{\"keccak256\":\"0xd6c68475ca7163782ebd2aacc2c9330def7e903c7b58d4990b0851551ec5cfe1\",\"urls\":[\"bzz-raw://776732725d15803f813cf727d5f1b0cf44b414df0611cbdbd821d4d993b184b9\",\"dweb:/ipfs/QmbgZF9KmcLZ6KAZwfuhP9ve7ukeJa2DdZxiVV6dMxzYK6\"],\"license\":\"UNLICENSED\"},\"node_modules/@bananapus/suckers/src/structs/BPSuckerDeployerConfig.sol\":{\"keccak256\":\"0x867e10bc73a07ab19cf5511d047dc885e3cfae58fc5f3441f6a5d3174afe6b78\",\"urls\":[\"bzz-raw://b8c3e72e57958bb2e2b8072ac6055804598c080a748fbc2f40a783575435809e\",\"dweb:/ipfs/QmbY7W6i5qAAj42EsQX8yt8M8nXArXByEGosnHWyxs4BE7\"],\"license\":\"MIT\"},\"node_modules/@bananapus/suckers/src/structs/BPTokenMapping.sol\":{\"keccak256\":\"0x84865bda925cdc9a608cbbfc487619acba391f98ae12bbbfdbc5779d617a17d9\",\"urls\":[\"bzz-raw://3bbc1fdd38feaf64fd4914bddb62cda7e5b8ee0f046a0eac8cfcb15f9493bcc5\",\"dweb:/ipfs/QmXgAx7sr1M8r71YrSeQJGAB1uhvdxpQyS633UgJvLCQfb\"],\"license\":\"MIT\"},\"node_modules/@openzeppelin/contracts/token/ERC20/IERC20.sol\":{\"keccak256\":\"0xc6a8ff0ea489379b61faa647490411b80102578440ab9d84e9a957cc12164e70\",\"urls\":[\"bzz-raw://0ea104e577e63faea3b69c415637e99e755dcbf64c5833d7140c35a714d6d90c\",\"dweb:/ipfs/Qmau6x4Ns9XdyynRCNNp3RhLqijJjFm7z5fyZazfYFGYdq\"],\"license\":\"MIT\"},\"node_modules/@openzeppelin/contracts/token/ERC721/IERC721.sol\":{\"keccak256\":\"0x5ef46daa3b58ef2702279d514780316efaa952915ee1aa3396f041ee2982b0b4\",\"urls\":[\"bzz-raw://2f8f2a76e23b02fc69e8cd24c3cb47da6c7af3a2d6c3a382f8ac25c6e094ade7\",\"dweb:/ipfs/QmPV4ZS4tPVv4mTCf9ejyZ1ai57EEibDRj7mN2ARDCLV5n\"],\"license\":\"MIT\"},\"node_modules/@openzeppelin/contracts/token/ERC721/IERC721Receiver.sol\":{\"keccak256\":\"0x7f7a26306c79a65fb8b3b6c757cd74660c532cd8a02e165488e30027dd34ca49\",\"urls\":[\"bzz-raw://d01e0b2b837ee2f628545e54d8715b49c7ef2befd08356c2e7f6c50dde8a1c22\",\"dweb:/ipfs/QmWBAn6y2D1xgftci97Z3qR9tQnkvwQpYwFwkTvDMvqU4i\"],\"license\":\"MIT\"},\"node_modules/@openzeppelin/contracts/utils/introspection/ERC165.sol\":{\"keccak256\":\"0x9e8778b14317ba9e256c30a76fd6c32b960af621987f56069e1e819c77c6a133\",\"urls\":[\"bzz-raw://1777404f1dcd0fac188e55a288724ec3c67b45288e49cc64723e95e702b49ab8\",\"dweb:/ipfs/QmZFdC626GButBApwDUvvTnUzdinevC3B24d7yyh57XkiA\"],\"license\":\"MIT\"},\"node_modules/@openzeppelin/contracts/utils/introspection/IERC165.sol\":{\"keccak256\":\"0x4296879f55019b23e135000eb36896057e7101fb7fb859c5ef690cf14643757b\",\"urls\":[\"bzz-raw://87b3541437c8c443ccd36795e56a338ed12855eec17f8da624511b8d1a7e14df\",\"dweb:/ipfs/QmeJQCtZrQjtJLr6u7ZHWeH3pBnjtLWzvRrKViAi7UZqxL\"],\"license\":\"MIT\"},\"node_modules/@uniswap/v3-core/contracts/interfaces/IUniswapV3Pool.sol\":{\"keccak256\":\"0x4e64844c56061cd90e0a80de73534a9166704c43eed579eb83f90bc2780ce968\",\"urls\":[\"bzz-raw://cba4fab5cebdddf644b901994a7f0f52b98885d4c56012f4dc51d52c2bf9de0e\",\"dweb:/ipfs/QmVyyrRmqXrAiapewWunRVgiPVFJHpH2hKiE1py1svMSNV\"],\"license\":\"GPL-2.0-or-later\"},\"node_modules/@uniswap/v3-core/contracts/interfaces/callback/IUniswapV3SwapCallback.sol\":{\"keccak256\":\"0x3f485fb1a44e8fbeadefb5da07d66edab3cfe809f0ac4074b1e54e3eb3c4cf69\",\"urls\":[\"bzz-raw://095ce0626b41318c772b3ebf19d548282607f6a8f3d6c41c13edfbd5370c8652\",\"dweb:/ipfs/QmVDZfJJ89UUCE1hMyzqpkZAtQ8jUsBgZNE5AMRG7RzRFS\"],\"license\":\"GPL-2.0-or-later\"},\"node_modules/@uniswap/v3-core/contracts/interfaces/pool/IUniswapV3PoolActions.sol\":{\"keccak256\":\"0x9453dd0e7442188667d01d9b65de3f1e14e9511ff3e303179a15f6fc267f7634\",\"urls\":[\"bzz-raw://982f4328f956c3e60e67501e759eb292ac487f76460c774c50e9ae4fcc92aae5\",\"dweb:/ipfs/QmRnzEDsaqtd9PJEVcgQi7p5aV5pMSvRUoGZJAdwFUJxgZ\"],\"license\":\"GPL-2.0-or-later\"},\"node_modules/@uniswap/v3-core/contracts/interfaces/pool/IUniswapV3PoolDerivedState.sol\":{\"keccak256\":\"0xe603ac5b17ecdee73ba2b27efdf386c257a19c14206e87eee77e2017b742d9e5\",\"urls\":[\"bzz-raw://8febc9bdb399a4d94bb89f5377732652e2400e4a8dee808201ade6848f9004e7\",\"dweb:/ipfs/QmaKDqYYFU4d2W2iN77aDHptfbFmYZRrMYXHeGpJmM8C1c\"],\"license\":\"GPL-2.0-or-later\"},\"node_modules/@uniswap/v3-core/contracts/interfaces/pool/IUniswapV3PoolErrors.sol\":{\"keccak256\":\"0xf80abf13fb1fafc127ba4e792f240dd8ea7c8c893978cdfd8439c27fae9a037b\",\"urls\":[\"bzz-raw://b04fc72a656bbf3631e9c2e67b9870a2d9d235185e833fe050e9606e6816a9aa\",\"dweb:/ipfs/QmUcz4bkEkJ9pwzFu1C3n97hBQ3st9U6qTAqCdyFwddKco\"],\"license\":\"GPL-2.0-or-later\"},\"node_modules/@uniswap/v3-core/contracts/interfaces/pool/IUniswapV3PoolEvents.sol\":{\"keccak256\":\"0x8071514d0fe5d17d6fbd31c191cdfb703031c24e0ece3621d88ab10e871375cd\",\"urls\":[\"bzz-raw://d0b571930cc7488b1d546a7e9cea7c52d8b3c4e207da657ed0e0db7343b8cd03\",\"dweb:/ipfs/QmaGK6vVwB95QSTR1XMYvrh7ivYAYZxi3fD7v6VMA4jZ39\"],\"license\":\"GPL-2.0-or-later\"},\"node_modules/@uniswap/v3-core/contracts/interfaces/pool/IUniswapV3PoolImmutables.sol\":{\"keccak256\":\"0xf6e5d2cd1139c4c276bdbc8e1d2b256e456c866a91f1b868da265c6d2685c3f7\",\"urls\":[\"bzz-raw://b99c8c9ae8e27ee6559e5866bea82cbc9ffc8247f8d15b7422a4deb287d4d047\",\"dweb:/ipfs/QmfL8gaqt3ffAnm6nVj5ksuNpLygXuL3xq5VBqrkwC2JJ3\"],\"license\":\"GPL-2.0-or-later\"},\"node_modules/@uniswap/v3-core/contracts/interfaces/pool/IUniswapV3PoolOwnerActions.sol\":{\"keccak256\":\"0x759b78a2918af9e99e246dc3af084f654e48ef32bb4e4cb8a966aa3dcaece235\",\"urls\":[\"bzz-raw://64144fb96e1c7fdba87305acadb98a198d26a3d46c097cb3a666e567f6f29735\",\"dweb:/ipfs/QmUnWVwN9FKB9uV5Pr8YfLpWZnYM2DENnRMaadZ492JS9u\"],\"license\":\"GPL-2.0-or-later\"},\"node_modules/@uniswap/v3-core/contracts/interfaces/pool/IUniswapV3PoolState.sol\":{\"keccak256\":\"0x44fa2ce1182f6c2f6bead3d1737804bf7e112252ae86e0f2e92f9b8249603f43\",\"urls\":[\"bzz-raw://54154e8665b98d65f5dc91b256551852cb47882180b501b260657122d207c0ea\",\"dweb:/ipfs/QmcfemK1A2PXYrWB5SBFGERpMCderbFRb8BtTzQDj1sUBp\"],\"license\":\"GPL-2.0-or-later\"},\"src/REVBasicDeployer.sol\":{\"keccak256\":\"0x716d989428131382b33ca935104e2a801788e5e4b7882bdda4b08ea0a727a25f\",\"urls\":[\"bzz-raw://d8f31ae29acac7e7eaaede62f460cebd2ce6cbc4de71de7f5fc1267ace85161a\",\"dweb:/ipfs/QmaJwuYjF3VhPwHkB5w6X3mUhd6KQtqKawhZMY1Mj61Cny\"],\"license\":\"MIT\"},\"src/interfaces/IREVBasicDeployer.sol\":{\"keccak256\":\"0x423c94dc2bccf82fcf5f9cf6554ab6951cb1d5c853066e01381560123d5e7b8d\",\"urls\":[\"bzz-raw://7f035583b823f96c6b96ead45fdcac6f1cd0c2046b7da5c50bc7f8f2f35a93c0\",\"dweb:/ipfs/QmSfyNXGNXF62sHeQ5qHBuokQNpsemnwqs1imrxGjQ2MeK\"],\"license\":null},\"src/structs/REVBuybackHookConfig.sol\":{\"keccak256\":\"0xdae5ecff2ff2a04c0aab17093f023b2161994dc0e6e2adc5006d36d157eb09aa\",\"urls\":[\"bzz-raw://5e0eed08e652290f59c0d18565df21be3fc7b33ca3fa41c393461472479e4a7f\",\"dweb:/ipfs/QmfZcbmdvYDQwEE4eesGpcxdojAm9BhJ81fdkxjX9LU9Sa\"],\"license\":\"MIT\"},\"src/structs/REVBuybackPoolConfig.sol\":{\"keccak256\":\"0x83f2a3875a8b1955856b72bfddd90c0cc2fbe26697f1dd4e13b33c0319049a14\",\"urls\":[\"bzz-raw://e1e37d0eb626221b6a8774a155a3799dc5cf0b497d26263ef323ed768d61a0dc\",\"dweb:/ipfs/QmcSPDAaPemjh3a1XycV4qDMJwctnuwiKe3wXrRUjotKAB\"],\"license\":\"MIT\"},\"src/structs/REVConfig.sol\":{\"keccak256\":\"0x4f8dc19d47b7bc25bf9e0c00c88c8c2fb67a54eb6218e44ae142df779e5a7841\",\"urls\":[\"bzz-raw://3acc4ce8cf6295d5e4e29923fa3fb53dd001a61eec699308124cde47129a4d8d\",\"dweb:/ipfs/QmRVJDwLm5E8HaN7jV2d4vee1ZZwhuY2o9jrfHromggj7J\"],\"license\":\"MIT\"},\"src/structs/REVDescription.sol\":{\"keccak256\":\"0x442ed3ba702044b41ca22679ad953bba22dcaef32ae6bb5b2dafac05652ba71d\",\"urls\":[\"bzz-raw://fafc3ad3ef04a26877cce8d6f53b1d1b2402a97b27e2f6154ee3a85414fa7914\",\"dweb:/ipfs/Qmd5gvhjRJk7ZkWQT31Wc2ssSqCZ3zyrc5n4CeffWuh8xd\"],\"license\":\"MIT\"},\"src/structs/REVStageConfig.sol\":{\"keccak256\":\"0x283d1e0c8cb246bca2be6a04c6f4ed9d657c07fa97f14cbca19ef9536d40057b\",\"urls\":[\"bzz-raw://0c6333266729cbb9e18ade3e215d8aa4774df4050c281691d12d18b89ab74513\",\"dweb:/ipfs/QmVmPPEm5pD57wA4mAbz4LPLPwWR4Wt3WT3DbEALa9PmxM\"],\"license\":\"MIT\"},\"src/structs/REVSuckerDeploymentConfig.sol\":{\"keccak256\":\"0xed607665da0efa1a1662a7e094095f336bef2d6694f79e5d8158cacf73c34dac\",\"urls\":[\"bzz-raw://c8c68b67a28a7dfc060596cfb98b7fc05ad0c9b61482f60a04810bc68cc0b8e3\",\"dweb:/ipfs/QmeLH5z8J6DDjRQXfJi4BoMmQqY4zTjERYfSzu8Uypkawp\"],\"license\":\"MIT\"}},\"version\":1}",
			"args": [
				"0xdAF6226Aafe296bbCCBEC815133386Cd910Ed582",
				"0x4Be9d88bE6e7A38644EA746cF78cB1BF30051C76"
			],
			"bytecode": "0x60c06040523480156200001157600080fd5b5060405162004466380380620044668339810160408190526200003491620000a9565b6001600160a01b039182166080521660a0526002805460018181018355600083905260127f405787fa12a823e0f2b7631cc41b3ba8828b3321ca811111fa75cd3aa3bb5ace9283015582549081019092556019910155620000e8565b6001600160a01b0381168114620000a657600080fd5b50565b60008060408385031215620000bd57600080fd5b8251620000ca8162000090565b6020840151909250620000dd8162000090565b809150509250929050565b60805160a0516142e162000185600039600081816102920152818161070201528181610aed015281816111be0152818161155401528181611beb0152611c8a0152600081816102cc0152818161038b01528181610c2701528181610dda01528181610fb6015281816113120152818161161001528181611752015281816117f70152818161189301528181611a1c0152611b3501526142e16000f3fe608060405234801561001057600080fd5b50600436106100ea5760003560e01c80637485ecf31161008c578063aaf320d711610066578063aaf320d71461026a578063b5d255331461028d578063bb199402146102b4578063ee0fc121146102c757600080fd5b80637485ecf31461023857806389b396ab1461024b5780639d82ba251461026057600080fd5b80634c4ffc71116100c85780634c4ffc71146101895780635c0a7cee146101aa578063677ce088146101ca5780637249a773146101dd57600080fd5b806301ffc9a7146100ef578063150b7a021461011757806343681e151461015b575b600080fd5b6101026100fd3660046125bf565b6102ee565b60405190151581526020015b60405180910390f35b61012a61012536600461263d565b610387565b6040517fffffffff00000000000000000000000000000000000000000000000000000000909116815260200161010e565b61017b6101693660046126dc565b60016020526000908152604090205481565b60405190815260200161010e565b61019c6101973660046126f5565b61049b565b60405161010e92919061284b565b6101bd6101b83660046126dc565b610953565b60405161010e919061286c565b6101026101d836600461287f565b610a84565b6102136101eb3660046126dc565b60006020819052908152604090205473ffffffffffffffffffffffffffffffffffffffff1681565b60405173ffffffffffffffffffffffffffffffffffffffff909116815260200161010e565b61017b610246366004613018565b610c0b565b61025e61025936600461287f565b610c25565b005b61017b6276a70081565b61027d6102783660046131c3565b6111a1565b60405161010e94939291906131ff565b6102137f000000000000000000000000000000000000000000000000000000000000000081565b61025e6102c23660046132ca565b611310565b6102137f000000000000000000000000000000000000000000000000000000000000000081565b60007fffffffff0000000000000000000000000000000000000000000000000000000082167f81c03c2e00000000000000000000000000000000000000000000000000000000148061038157507f01ffc9a7000000000000000000000000000000000000000000000000000000007fffffffff000000000000000000000000000000000000000000000000000000008316145b92915050565b60007f000000000000000000000000000000000000000000000000000000000000000073ffffffffffffffffffffffffffffffffffffffff1663293c49996040518163ffffffff1660e01b8152600401602060405180830381865afa1580156103f4573d6000803e3d6000fd5b505050506040513d601f19601f82011682018060405250810190610418919061334e565b73ffffffffffffffffffffffffffffffffffffffff163373ffffffffffffffffffffffffffffffffffffffff161461044f57600080fd5b73ffffffffffffffffffffffffffffffffffffffff85161561047057600080fd5b507f150b7a020000000000000000000000000000000000000000000000000000000095945050505050565b60c0810135600090815260208190526040812054606090819073ffffffffffffffffffffffffffffffffffffffff16801561058b576040517f4c4ffc7100000000000000000000000000000000000000000000000000000000815273ffffffffffffffffffffffffffffffffffffffff821690634c4ffc7190610522908890600401613461565b600060405180830381865afa15801561053f573d6000803e3d6000fd5b505050506040513d6000823e601f3d9081017fffffffffffffffffffffffffffffffffffffffffffffffffffffffffffffffe01682016040526105859190810190613550565b90945091505b815160c086013560009081526003602090815260408083208054825181850281018501909352808352941515949192909190849084015b828210156106b35760008481526020908190206040805160608101825260038602909201805473ffffffffffffffffffffffffffffffffffffffff16835260018101549383019390935260028301805492939291840191610622906136b6565b80601f016020809104026020016040519081016040528092919081815260200182805461064e906136b6565b801561069b5780601f106106705761010080835404028352916020019161069b565b820191906000526020600020905b81548152906001019060200180831161067e57829003601f168201915b505050505081525050815260200190600101906105c2565b50506040517f3d12cb8700000000000000000000000000000000000000000000000000000000815260c08b0135600482015292935060009273ffffffffffffffffffffffffffffffffffffffff7f0000000000000000000000000000000000000000000000000000000000000000169250633d12cb879150602401600060405180830381865afa15801561074b573d6000803e3d6000fd5b505050506040513d6000823e601f3d9081017fffffffffffffffffffffffffffffffffffffffffffffffffffffffffffffffe01682016040526107919190810190613709565b8251815191925090846107a55760006107a8565b60015b60ff166107b582846137d2565b6107bf91906137d2565b67ffffffffffffffff8111156107d7576107d76128af565b60405190808252806020026020018201604052801561082457816020015b604080516060808201835260008083526020830152918101919091528152602001906001900390816107f55790505b50975060005b8281101561087157848181518110610844576108446137e5565b602002602001015189828151811061085e5761085e6137e5565b602090810291909101015260010161082a565b5060005b8181101561090757604051806060016040528085838151811061089a5761089a6137e5565b602002602001015173ffffffffffffffffffffffffffffffffffffffff16815260200160008152602001604051806020016040528060008152508152508982856108e491906137d2565b815181106108f4576108f46137e5565b6020908102919091010152600101610875565b5084156109475786600081518110610921576109216137e5565b602002602001015188838151811061093b5761093b6137e5565b60200260200101819052505b50505050505050915091565b606060036000838152602001908152602001600020805480602002602001604051908101604052809291908181526020016000905b82821015610a795760008481526020908190206040805160608101825260038602909201805473ffffffffffffffffffffffffffffffffffffffff168352600181015493830193909352600283018054929392918401916109e8906136b6565b80601f0160208091040260200160405190810160405280929190818152602001828054610a14906136b6565b8015610a615780601f10610a3657610100808354040283529160200191610a61565b820191906000526020600020905b815481529060010190602001808311610a4457829003601f168201915b50505050508152505081526020019060010190610988565b505050509050919050565b60008281526020819052604081205473ffffffffffffffffffffffffffffffffffffffff90811690831603610abb57506001610381565b6040517f3d12cb87000000000000000000000000000000000000000000000000000000008152600481018490526000907f000000000000000000000000000000000000000000000000000000000000000073ffffffffffffffffffffffffffffffffffffffff1690633d12cb8790602401600060405180830381865afa158015610b49573d6000803e3d6000fd5b505050506040513d6000823e601f3d9081017fffffffffffffffffffffffffffffffffffffffffffffffffffffffffffffffe0168201604052610b8f9190810190613709565b805190915060005b81811015610bff57828181518110610bb157610bb16137e5565b602002602001015173ffffffffffffffffffffffffffffffffffffffff168573ffffffffffffffffffffffffffffffffffffffff1603610bf75760019350505050610381565b600101610b97565b50600095945050505050565b6000610c1c858585306000876115f7565b95945050505050565b7f000000000000000000000000000000000000000000000000000000000000000073ffffffffffffffffffffffffffffffffffffffff16631f47ce696040518163ffffffff1660e01b8152600401602060405180830381865afa158015610c90573d6000803e3d6000fd5b505050506040513d601f19601f82011682018060405250810190610cb4919061334e565b73ffffffffffffffffffffffffffffffffffffffff1663f434c9146040518163ffffffff1660e01b8152600401602060405180830381865afa158015610cfe573d6000803e3d6000fd5b505050506040513d601f19601f82011682018060405250810190610d22919061334e565b73ffffffffffffffffffffffffffffffffffffffff16630f5932f033308560026040518563ffffffff1660e01b8152600401610d619493929190613814565b602060405180830381865afa158015610d7e573d6000803e3d6000fd5b505050506040513d601f19601f82011682018060405250810190610da29190613892565b610dd8576040517f31fb21f300000000000000000000000000000000000000000000000000000000815260040160405180910390fd5b7f000000000000000000000000000000000000000000000000000000000000000073ffffffffffffffffffffffffffffffffffffffff16631f47ce696040518163ffffffff1660e01b8152600401602060405180830381865afa158015610e43573d6000803e3d6000fd5b505050506040513d601f19601f82011682018060405250810190610e67919061334e565b73ffffffffffffffffffffffffffffffffffffffff1663f434c9146040518163ffffffff1660e01b8152600401602060405180830381865afa158015610eb1573d6000803e3d6000fd5b505050506040513d601f19601f82011682018060405250810190610ed5919061334e565b73ffffffffffffffffffffffffffffffffffffffff166305d2912e3060405180606001604052803373ffffffffffffffffffffffffffffffffffffffff168152602001868152602001600067ffffffffffffffff811115610f3857610f386128af565b604051908082528060200260200182016040528015610f61578160200160208202803683370190505b508152506040518363ffffffff1660e01b8152600401610f829291906138b4565b600060405180830381600087803b158015610f9c57600080fd5b505af1158015610fb0573d6000803e3d6000fd5b505050507f000000000000000000000000000000000000000000000000000000000000000073ffffffffffffffffffffffffffffffffffffffff16631f47ce696040518163ffffffff1660e01b8152600401602060405180830381865afa15801561101f573d6000803e3d6000fd5b505050506040513d601f19601f82011682018060405250810190611043919061334e565b73ffffffffffffffffffffffffffffffffffffffff1663f434c9146040518163ffffffff1660e01b8152600401602060405180830381865afa15801561108d573d6000803e3d6000fd5b505050506040513d601f19601f820116820180604052508101906110b1919061334e565b73ffffffffffffffffffffffffffffffffffffffff166305d2912e3060405180606001604052808573ffffffffffffffffffffffffffffffffffffffff168152602001868152602001600280548060200260200160405190810160405280929190818152602001828054801561114657602002820191906000526020600020905b815481526020019060010190808311611132575b50505050508152506040518363ffffffff1660e01b815260040161116b9291906138b4565b600060405180830381600087803b15801561118557600080fd5b505af1158015611199573d6000803e3d6000fd5b505050505050565b60008080606073ffffffffffffffffffffffffffffffffffffffff7f0000000000000000000000000000000000000000000000000000000000000000166383db9d01604087018035906111f79060208a01613941565b6040517fffffffff0000000000000000000000000000000000000000000000000000000060e085901b168152600481019290925273ffffffffffffffffffffffffffffffffffffffff166024820152604401602060405180830381865afa158015611266573d6000803e3d6000fd5b505050506040513d601f19601f8201168201806040525081019061128a9190613892565b156112a75761271085608001358660a00135935093509350611309565b6040808601356000908152600160205220544210156112f2576040517f04c3b3cd00000000000000000000000000000000000000000000000000000000815260040160405180910390fd5b84610160013585608001358660a001359350935093505b9193509193565b7f000000000000000000000000000000000000000000000000000000000000000073ffffffffffffffffffffffffffffffffffffffff16631f47ce696040518163ffffffff1660e01b8152600401602060405180830381865afa15801561137b573d6000803e3d6000fd5b505050506040513d601f19601f8201168201806040525081019061139f919061334e565b73ffffffffffffffffffffffffffffffffffffffff1663f434c9146040518163ffffffff1660e01b8152600401602060405180830381865afa1580156113e9573d6000803e3d6000fd5b505050506040513d601f19601f8201168201806040525081019061140d919061334e565b73ffffffffffffffffffffffffffffffffffffffff16630f5932f033308660026040518563ffffffff1660e01b815260040161144c9493929190613814565b602060405180830381865afa158015611469573d6000803e3d6000fd5b505050506040513d601f19601f8201168201806040525081019061148d9190613892565b6114c3576040517f31fb21f300000000000000000000000000000000000000000000000000000000815260040160405180910390fd5b6000338383602001516040516020016114de9392919061395e565b604080517fffffffffffffffffffffffffffffffffffffffffffffffffffffffffffffffe081840301815290829052805160209091012083517f2f3f50e000000000000000000000000000000000000000000000000000000000835290925073ffffffffffffffffffffffffffffffffffffffff7f00000000000000000000000000000000000000000000000000000000000000001691632f3f50e09161158b91889186916004016139b0565b6000604051808303816000875af11580156115aa573d6000803e3d6000fd5b505050506040513d6000823e601f3d9081017fffffffffffffffffffffffffffffffffffffffffffffffffffffffffffffffe01682016040526115f09190810190613709565b5050505050565b6000806000806116088a8888611dc2565b9250925092507f000000000000000000000000000000000000000000000000000000000000000073ffffffffffffffffffffffffffffffffffffffff16630634bae9308c6000015160400151868d8f600001516020015160405160200161166f9190613aad565b6040516020818303038152906040526040518663ffffffff1660e01b815260040161169e959493929190613ed9565b6020604051808303816000875af11580156116bd573d6000803e3d6000fd5b505050506040513d601f19601f820116820180604052508101906116e1919061403e565b93508015611706576116f66276a700426137d2565b6000858152600160205260409020555b8951805160208201516060909201516040517f5817819100000000000000000000000000000000000000000000000000000000815273ffffffffffffffffffffffffffffffffffffffff7f0000000000000000000000000000000000000000000000000000000000000000169363581781919361178a938a93919291600401614057565b6020604051808303816000875af11580156117a9573d6000803e3d6000fd5b505050506040513d601f19601f820116820180604052508101906117cd919061334e565b50875173ffffffffffffffffffffffffffffffffffffffff16156117f5576117f584896122c4565b7f000000000000000000000000000000000000000000000000000000000000000073ffffffffffffffffffffffffffffffffffffffff1663dd5f214a8560006118418e60600151612449565b6040518463ffffffff1660e01b815260040161185f93929190614094565b600060405180830381600087803b15801561187957600080fd5b505af115801561188d573d6000803e3d6000fd5b505050507f000000000000000000000000000000000000000000000000000000000000000073ffffffffffffffffffffffffffffffffffffffff1663f434c9146040518163ffffffff1660e01b8152600401602060405180830381865afa1580156118fc573d6000803e3d6000fd5b505050506040513d601f19601f82011682018060405250810190611920919061334e565b73ffffffffffffffffffffffffffffffffffffffff166305d2912e3060405180606001604052808e6060015173ffffffffffffffffffffffffffffffffffffffff16815260200188815260200160028054806020026020016040519081016040528092919081815260200182805480156119b957602002820191906000526020600020905b8154815260200190600101908083116119a5575b50505050508152506040518363ffffffff1660e01b81526004016119de9291906138b4565b600060405180830381600087803b1580156119f857600080fd5b505af1158015611a0c573d6000803e3d6000fd5b5050505060408a015115611af0577f000000000000000000000000000000000000000000000000000000000000000073ffffffffffffffffffffffffffffffffffffffff1663c7fb92de858c604001518d606001518e6000015160200151604051602001611a7a91906141ae565b60405160208183030381529060405260006040518663ffffffff1660e01b8152600401611aab95949392919061421a565b6020604051808303816000875af1158015611aca573d6000803e3d6000fd5b505050506040513d601f19601f82011682018060405250810190611aee919061403e565b505b60408051600180825281830190925260009160208083019080368337019050509050601d81600081518110611b2757611b276137e5565b6020026020010181815250507f000000000000000000000000000000000000000000000000000000000000000073ffffffffffffffffffffffffffffffffffffffff1663f434c9146040518163ffffffff1660e01b8152600401602060405180830381865afa158015611b9e573d6000803e3d6000fd5b505050506040513d601f19601f82011682018060405250810190611bc2919061334e565b73ffffffffffffffffffffffffffffffffffffffff166305d2912e3060405180606001604052807f000000000000000000000000000000000000000000000000000000000000000073ffffffffffffffffffffffffffffffffffffffff168152602001898152602001858152506040518363ffffffff1660e01b8152600401611c4c9291906138b4565b600060405180830381600087803b158015611c6657600080fd5b505af1158015611c7a573d6000803e3d6000fd5b50505050602086015115611db4577f000000000000000000000000000000000000000000000000000000000000000073ffffffffffffffffffffffffffffffffffffffff16632f3f50e08633868a60200151604051602001611cde9392919061395e565b604080517fffffffffffffffffffffffffffffffffffffffffffffffffffffffffffffffe08184030181529082905280516020909101208a517fffffffff0000000000000000000000000000000000000000000000000000000060e086901b168352611d4d93926004016139b0565b6000604051808303816000875af1158015611d6c573d6000803e3d6000fd5b505050506040513d6000823e601f3d9081017fffffffffffffffffffffffffffffffffffffffffffffffffffffffffffffffe0168201604052611db29190810190613709565b505b505050509695505050505050565b60608060008086608001515190508067ffffffffffffffff811115611de957611de96128af565b604051908082528060200260200182016040528015611edb57816020015b611ec86040805161010080820183526000808352602080840182905283850182905260608085018390526080808601849052865161020081018852848152928301849052958201839052810182905293840181905260a084810182905260c0850182905260e0850182905291840181905261012084018190526101408401819052610160840181905261018084018190526101a084018190526101c084018190526101e0840152909190820190815260200160608152602001606081525090565b815260200190600190039081611e075790505b5093508660200151604051602001611eff919063ffffffff91909116815260200190565b604080518083037fffffffffffffffffffffffffffffffffffffffffffffffffffffffffffffffe001815260c083018252600080845260208401819052918301829052606083018290526080830182905260a0830182905294505b828110156122b85788608001518181518110611f7857611f786137e5565b60200260200101519150816000015164ffffffffff16868281518110611fa057611fa06137e5565b60200260200101516000018181525050816060015164ffffffffff16868281518110611fce57611fce6137e5565b6020026020010151602001818152505081604001516dffffffffffffffffffffffffffff16868281518110612005576120056137e5565b60200260200101516040018181525050816080015163ffffffff16868281518110612032576120326137e5565b602002602001015160600181815250506000868281518110612056576120566137e5565b60200260200101516080019073ffffffffffffffffffffffffffffffffffffffff16908173ffffffffffffffffffffffffffffffffffffffff1681525050604051806102000160405280836020015161ffff1681526020018360a0015161ffff166127106120c49190614269565b815260208b81015163ffffffff16908201526000604082018190526060820181905260016080830181905260a0830182905260c0830182905260e0830182905261010083018290526101208301829052610140830182905261016083015261018082015273ffffffffffffffffffffffffffffffffffffffff8a166101a08201526101c0018890528651879083908110612160576121606137e5565b602002602001015160a001819052508060001480156121865750815164ffffffffff1615155b801561219c575042826000015164ffffffffff16105b156121a657600193505b84811580156121bb5750825164ffffffffff16155b6121cd57825164ffffffffff166121cf565b425b83602001518460400151856060015186608001518760a001516040516020016122449695949392919095865261ffff94851660208701526dffffffffffffffffffffffffffff93909316604086015264ffffffffff91909116606085015263ffffffff1660808401521660a082015260c00190565b604080517fffffffffffffffffffffffffffffffffffffffffffffffffffffffffffffffe081840301815290829052612280929160200161427c565b604080517fffffffffffffffffffffffffffffffffffffffffffffffffffffffffffffffe08184030181529190529450600101611f5a565b50505093509350939050565b602081810151516040805160808101825260008082529381018490529081018390526060810183905290915b828110156123f0578360200151818151811061230e5761230e6137e5565b6020908102919091018101518551918101516040808301516060840151845192517f7b621d3a000000000000000000000000000000000000000000000000000000008152600481018c905262ffffff909416602485015263ffffffff918216604485015216606483015273ffffffffffffffffffffffffffffffffffffffff9081166084830152919450911690637b621d3a9060a4016020604051808303816000875af11580156123c3573d6000803e3d6000fd5b505050506040513d601f19601f820116820180604052508101906123e7919061334e565b506001016122f0565b5050905160009283526020839052604090922080547fffffffffffffffffffffffff00000000000000000000000000000000000000001673ffffffffffffffffffffffffffffffffffffffff9093169290921790915550565b604080516001808252818301909252606091816020015b60408051808201909152600081526060602082015281526020019060019003908161246057505060408051600180825281830190925291925060009190602082015b6040805160c08101825260008082526020808301829052928201819052606082018190526080820181905260a082015282527fffffffffffffffffffffffffffffffffffffffffffffffffffffffffffffffff9092019101816124a25790505090506040518060c00160405280600015158152602001633b9aca008152602001600081526020018473ffffffffffffffffffffffffffffffffffffffff16815260200160008152602001600073ffffffffffffffffffffffffffffffffffffffff168152508160008151811061257a5761257a6137e5565b602002602001018190525060405180604001604052806001815260200182815250826000815181106125ae576125ae6137e5565b602002602001018190525050919050565b6000602082840312156125d157600080fd5b81357fffffffff000000000000000000000000000000000000000000000000000000008116811461260157600080fd5b9392505050565b73ffffffffffffffffffffffffffffffffffffffff8116811461262a57600080fd5b50565b803561263881612608565b919050565b60008060008060006080868803121561265557600080fd5b853561266081612608565b9450602086013561267081612608565b935060408601359250606086013567ffffffffffffffff8082111561269457600080fd5b818801915088601f8301126126a857600080fd5b8135818111156126b757600080fd5b8960208285010111156126c957600080fd5b9699959850939650602001949392505050565b6000602082840312156126ee57600080fd5b5035919050565b60006020828403121561270757600080fd5b813567ffffffffffffffff81111561271e57600080fd5b8201610180818503121561260157600080fd5b60005b8381101561274c578181015183820152602001612734565b50506000910152565b6000815180845261276d816020860160208601612731565b601f017fffffffffffffffffffffffffffffffffffffffffffffffffffffffffffffffe0169290920160200192915050565b600082825180855260208086019550808260051b84010181860160005b8481101561283e578583037fffffffffffffffffffffffffffffffffffffffffffffffffffffffffffffffe00189528151805173ffffffffffffffffffffffffffffffffffffffff168452848101518585015260409081015160609185018290529061282a81860183612755565b9a86019a94505050908301906001016127bc565b5090979650505050505050565b828152604060208201526000612864604083018461279f565b949350505050565b602081526000612601602083018461279f565b6000806040838503121561289257600080fd5b8235915060208301356128a481612608565b809150509250929050565b7f4e487b7100000000000000000000000000000000000000000000000000000000600052604160045260246000fd5b60405160c0810167ffffffffffffffff81118282101715612901576129016128af565b60405290565b6040805190810167ffffffffffffffff81118282101715612901576129016128af565b6040516080810167ffffffffffffffff81118282101715612901576129016128af565b60405160a0810167ffffffffffffffff81118282101715612901576129016128af565b6040516060810167ffffffffffffffff81118282101715612901576129016128af565b604051601f82017fffffffffffffffffffffffffffffffffffffffffffffffffffffffffffffffe016810167ffffffffffffffff811182821017156129da576129da6128af565b604052919050565b600067ffffffffffffffff8211156129fc576129fc6128af565b50601f017fffffffffffffffffffffffffffffffffffffffffffffffffffffffffffffffe01660200190565b6000612a3b612a36846129e2565b612993565b9050828152838383011115612a4f57600080fd5b828260208301376000602084830101529392505050565b600082601f830112612a7757600080fd5b61260183833560208501612a28565b803563ffffffff8116811461263857600080fd5b600067ffffffffffffffff821115612ab457612ab46128af565b5060051b60200190565b803564ffffffffff8116811461263857600080fd5b803561ffff8116811461263857600080fd5b600082601f830112612af657600080fd5b81356020612b06612a3683612a9a565b82815260c09283028501820192828201919087851115612b2557600080fd5b8387015b8581101561283e5781818a031215612b415760008081fd5b612b496128de565b612b5282612abe565b8152612b5f868301612ad3565b868201526040808301356dffffffffffffffffffffffffffff81168114612b865760008081fd5b908201526060612b97838201612abe565b908201526080612ba8838201612a86565b9082015260a0612bb9838201612ad3565b908201528452928401928101612b29565b600082601f830112612bdb57600080fd5b81356020612beb612a3683612a9a565b828152600592831b8501820192828201919087851115612c0a57600080fd5b8387015b8581101561283e57803567ffffffffffffffff80821115612c2f5760008081fd5b818a0191506040807fffffffffffffffffffffffffffffffffffffffffffffffffffffffffffffffe0848e03011215612c685760008081fd5b612c70612907565b88840135612c7d81612608565b81528382013583811115612c915760008081fd5b8085019450508c603f850112612ca957600092508283fd5b888401359250612cbb612a3684612a9a565b83815292861b8401820192898101908e851115612cd85760008081fd5b948301945b84861015612d025785359350612cf284612608565b838252948a0194908a0190612cdd565b828b0152508752505050928401928401612c0e565b60006040808385031215612d2a57600080fd5b612d32612907565b91508235612d3f81612608565b825260208381013567ffffffffffffffff811115612d5c57600080fd5b8401601f81018613612d6d57600080fd5b8035612d7b612a3682612a9a565b81815260079190911b82018301908381019088831115612d9a57600080fd5b928401925b82841015612e19576080848a031215612db85760008081fd5b612dc061292a565b8435612dcb81612608565b81528486013562ffffff81168114612de35760008081fd5b81870152612df2858801612a86565b878201526060612e03818701612a86565b9082015282526080939093019290840190612d9f565b808588015250505050505092915050565b600060408284031215612e3c57600080fd5b612e44612907565b905067ffffffffffffffff8083351115612e5d57600080fd5b8235830184601f820112612e7057600080fd5b612e7d612a368235612a9a565b81358082526020808301929160051b84010187811115612e9c57600080fd5b602084015b81811015612fff578581351115612eb757600080fd5b8035850160407fffffffffffffffffffffffffffffffffffffffffffffffffffffffffffffffe0828c03011215612eed57600080fd5b612ef5612907565b612f026020830135612608565b602082013581528760408301351115612f1a57600080fd5b6040820135820191508a603f830112612f3257600080fd5b6020820135612f43612a3682612a9a565b81815260079190911b83016040019060208101908d831115612f6457600080fd5b6040850194505b82851015612fe0576080858f031215612f8357600080fd5b612f8b61292a565b612f958635612608565b85358152612fa560208701612a86565b6020820152612fb76040870135612608565b604086013560408201526060860135606082015280835250602082019150608085019450612f6b565b8060208501525050508086525050602084019350602081019050612ea1565b5050808552505050506020820135602082015292915050565b6000806000806080858703121561302e57600080fd5b843567ffffffffffffffff8082111561304657600080fd5b9086019060a0828903121561305a57600080fd5b61306261294d565b82358281111561307157600080fd5b83016080818b03121561308357600080fd5b61308b61292a565b81358481111561309a57600080fd5b6130a68c828501612a66565b8252506020820135848111156130bb57600080fd5b6130c78c828501612a66565b6020830152506040820135848111156130df57600080fd5b6130eb8c828501612a66565b60408301525060608201356060820152808352505061310c60208401612a86565b6020820152604083013560408201526131276060840161262d565b606082015260808301358281111561313e57600080fd5b61314a8a828601612ae5565b6080830152509550602087013591508082111561316657600080fd5b61317288838901612bca565b9450604087013591508082111561318857600080fd5b61319488838901612d17565b935060608701359150808211156131aa57600080fd5b506131b787828801612e2a565b91505092959194509250565b6000602082840312156131d557600080fd5b813567ffffffffffffffff8111156131ec57600080fd5b82016101a0818503121561260157600080fd5b60006080820186835260208681850152604086604086015260606080606087015283875180865260a08801915060a08160051b890101955084890160005b828110156132b8578988037fffffffffffffffffffffffffffffffffffffffffffffffffffffffffffffff600184528151805173ffffffffffffffffffffffffffffffffffffffff16895287810151888a01528601518689018690526132a5868a0182612755565b985050928601929086019060010161323d565b50959c9b505050505050505050505050565b6000806000606084860312156132df57600080fd5b83359250602084013567ffffffffffffffff808211156132fe57600080fd5b818601915086601f83011261331257600080fd5b61332187833560208501612a28565b9350604086013591508082111561333757600080fd5b5061334486828701612e2a565b9150509250925092565b60006020828403121561336057600080fd5b815161260181612608565b803561337681612608565b73ffffffffffffffffffffffffffffffffffffffff1682526020818101359083015260408082013590830152606090810135910152565b60008083357fffffffffffffffffffffffffffffffffffffffffffffffffffffffffffffffe18436030181126133e257600080fd5b830160208101925035905067ffffffffffffffff81111561340257600080fd5b80360382131561341157600080fd5b9250929050565b8183528181602085013750600060208284010152600060207fffffffffffffffffffffffffffffffffffffffffffffffffffffffffffffffe0601f840116840101905092915050565b6020815261348f602082016134758461262d565b73ffffffffffffffffffffffffffffffffffffffff169052565b600061349d6020840161262d565b73ffffffffffffffffffffffffffffffffffffffff81166040840152506134ca606083016040850161336b565b60c083013560e083015261010060e0840135818401526134eb81850161262d565b90506101206135118185018373ffffffffffffffffffffffffffffffffffffffff169052565b61014091508085013582850152506101608185013581850152613536818601866133ad565b6101808681015292509050610c1c6101a085018383613418565b600080604080848603121561356457600080fd5b8351925060208085015167ffffffffffffffff8082111561358457600080fd5b818701915087601f83011261359857600080fd5b81516135a6612a3682612a9a565b81815260059190911b8301840190848101908a8311156135c557600080fd5b8585015b838110156136a4578051858111156135e057600080fd5b86016060818e037fffffffffffffffffffffffffffffffffffffffffffffffffffffffffffffffe00112156136155760008081fd5b61361d612970565b8882015161362a81612608565b8152818a0151898201526060820151878111156136475760008081fd5b8083019250508d603f83011261365d5760008081fd5b8882015161366d612a36826129e2565b8181528f8c8386010111156136825760008081fd5b613691828c83018e8701612731565b828c0152508452509186019186016135c9565b50809750505050505050509250929050565b600181811c908216806136ca57607f821691505b602082108103613703577f4e487b7100000000000000000000000000000000000000000000000000000000600052602260045260246000fd5b50919050565b6000602080838503121561371c57600080fd5b825167ffffffffffffffff81111561373357600080fd5b8301601f8101851361374457600080fd5b8051613752612a3682612a9a565b81815260059190911b8201830190838101908783111561377157600080fd5b928401925b8284101561379857835161378981612608565b82529284019290840190613776565b979650505050505050565b7f4e487b7100000000000000000000000000000000000000000000000000000000600052601160045260246000fd5b80820180821115610381576103816137a3565b7f4e487b7100000000000000000000000000000000000000000000000000000000600052603260045260246000fd5b60006080820173ffffffffffffffffffffffffffffffffffffffff80881684526020818816602086015286604086015260806060860152829150855480845260a086019250866000526020600020935060005b8181101561388357845484526001948501949383019301613867565b50919998505050505050505050565b6000602082840312156138a457600080fd5b8151801515811461260157600080fd5b600073ffffffffffffffffffffffffffffffffffffffff808516835260206040602085015260a0840182865116604086015260208601516060860152604086015192506060608086015280835180835260c087019150602085019450600092505b808310156139355784518252938301936001929092019190830190613915565b50979650505050505050565b60006020828403121561395357600080fd5b813561260181612608565b7fffffffffffffffffffffffffffffffffffffffff0000000000000000000000008460601b1681526000835161399b816014850160208801612731565b60149201918201929092526034019392505050565b600060608083018684526020868186015260406060604087015282875180855260808801915060808160051b89010194508389016000805b838110156132b8578a88037fffffffffffffffffffffffffffffffffffffffffffffffffffffffffffffff800185528251805173ffffffffffffffffffffffffffffffffffffffff9081168a5290880151888a018890528051888b018190529089019184918c8c01905b80841015613a975784518051841683528c81015163ffffffff168d8401528b81015184168c8401528e01518e830152938b019360019390930192608090910190613a52565b509a5050509487019450918601916001016139e8565b7f2400000000000000000000000000000000000000000000000000000000000000815260008251613ae5816001850160208701612731565b7f207265766e6574206465706c6f796564000000000000000000000000000000006001939091019283015250601101919050565b8051825260208101516020830152604081015160408301526060810151613b44606084018215159052565b506080810151613b58608084018215159052565b5060a0810151613b6c60a084018215159052565b5060c0810151613b8060c084018215159052565b5060e0810151613b9460e084018215159052565b5061010081810151151590830152610120808201511515908301526101408082015115159083015261016080820151151590830152610180808201511515908301526101a0808201511515908301526101c08082015173ffffffffffffffffffffffffffffffffffffffff16908301526101e090810151910152565b600082825180855260208086019550808260051b8401018186016000805b85811015613d01578684037fffffffffffffffffffffffffffffffffffffffffffffffffffffffffffffffe0018a52825180518552850151604086860181905281518187018190529187019160609081880190865b81811015613cea5785518051151584528b8101518c85015285810151868501528481015173ffffffffffffffffffffffffffffffffffffffff908116868601526080808301519086015260a0918201511690840152948a019460c090920191600101613c83565b50509c88019c965050509285019250600101613c2e565b509198975050505050505050565b60008151808452602080850194506020840160005b83811015613d4b578151805188528301518388015260409096019590820190600101613d24565b509495945050505050565b600082825180855260208086019550808260051b84010181860160005b8481101561283e577fffffffffffffffffffffffffffffffffffffffffffffffffffffffffffffffe08684030189528151608073ffffffffffffffffffffffffffffffffffffffff80835116865280878401511687870152506040808301518282880152613de383880182613d0f565b9250505060608083015192508582038187015250613e018183613d0f565b9a86019a9450505090830190600101613d73565b600082825180855260208086019550808260051b8401018186016000805b85811015613d01578684037fffffffffffffffffffffffffffffffffffffffffffffffffffffffffffffffe0018a528251805173ffffffffffffffffffffffffffffffffffffffff908116865290860151604087870181905281519087018190529087019160608701918591905b80831015613ec357845182168452938901939289019260019290920191613ea1565b5050509a86019a94505091840191600101613e33565b600060a073ffffffffffffffffffffffffffffffffffffffff88168352602060a081850152613f0b60a0850189612755565b604085820360408701528189518084528484019150848160051b850101858c0160005b83811015614004577fffffffffffffffffffffffffffffffffffffffffffffffffffffffffffffffe087840301855281516102e081518552898201518a86015287820151888601526060808301518187015250608080830151613fa88288018273ffffffffffffffffffffffffffffffffffffffff169052565b50508a820151613fba8c870182613b19565b5060c0820151816102a0870152613fd382870182613c10565b91505060e082015191508481036102c0860152613ff08183613d56565b968a01969450505090870190600101613f2e565b505088810360608a0152614018818c613e15565b965050505050505082810360808401526140328185612755565b98975050505050505050565b60006020828403121561405057600080fd5b5051919050565b8481526080602082015260006140706080830186612755565b82810360408401526140828186612755565b91505082606083015295945050505050565b600060608083018684526020868186015260406060604087015282875180855260808801915060808160051b890101945083890160005b8281101561419d578987037fffffffffffffffffffffffffffffffffffffffffffffffffffffffffffffff800184528151805188528601518688018690528051868901819052908701906000908a8a01905b808310156141885783518051151583528a8101518b840152898101518a8401528c81015173ffffffffffffffffffffffffffffffffffffffff9081168e8501526080808301519085015260a0918201511690830152928901926001929092019160c09091019061411d565b509850505092850192908501906001016140cb565b50949b9a5050505050505050505050565b7f24000000000000000000000000000000000000000000000000000000000000008152600082516141e6816001850160208701612731565b7f207072656d696e746564000000000000000000000000000000000000000000006001939091019283015250600b01919050565b85815284602082015273ffffffffffffffffffffffffffffffffffffffff8416604082015260a06060820152600061425560a0830185612755565b905082151560808301529695505050505050565b81810381811115610381576103816137a3565b6000835161428e818460208801612731565b8351908301906142a2818360208801612731565b0194935050505056fea2646970667358221220aa240b6402e2186bb4dc70aa539adda1aa1fc16088ca90c6ea9cea43495294e864736f6c63430008170033",
			"deployedBytecode": "0x608060405234801561001057600080fd5b50600436106100ea5760003560e01c80637485ecf31161008c578063aaf320d711610066578063aaf320d71461026a578063b5d255331461028d578063bb199402146102b4578063ee0fc121146102c757600080fd5b80637485ecf31461023857806389b396ab1461024b5780639d82ba251461026057600080fd5b80634c4ffc71116100c85780634c4ffc71146101895780635c0a7cee146101aa578063677ce088146101ca5780637249a773146101dd57600080fd5b806301ffc9a7146100ef578063150b7a021461011757806343681e151461015b575b600080fd5b6101026100fd3660046125bf565b6102ee565b60405190151581526020015b60405180910390f35b61012a61012536600461263d565b610387565b6040517fffffffff00000000000000000000000000000000000000000000000000000000909116815260200161010e565b61017b6101693660046126dc565b60016020526000908152604090205481565b60405190815260200161010e565b61019c6101973660046126f5565b61049b565b60405161010e92919061284b565b6101bd6101b83660046126dc565b610953565b60405161010e919061286c565b6101026101d836600461287f565b610a84565b6102136101eb3660046126dc565b60006020819052908152604090205473ffffffffffffffffffffffffffffffffffffffff1681565b60405173ffffffffffffffffffffffffffffffffffffffff909116815260200161010e565b61017b610246366004613018565b610c0b565b61025e61025936600461287f565b610c25565b005b61017b6276a70081565b61027d6102783660046131c3565b6111a1565b60405161010e94939291906131ff565b6102137f0000000000000000000000004be9d88be6e7a38644ea746cf78cb1bf30051c7681565b61025e6102c23660046132ca565b611310565b6102137f000000000000000000000000daf6226aafe296bbccbec815133386cd910ed58281565b60007fffffffff0000000000000000000000000000000000000000000000000000000082167f81c03c2e00000000000000000000000000000000000000000000000000000000148061038157507f01ffc9a7000000000000000000000000000000000000000000000000000000007fffffffff000000000000000000000000000000000000000000000000000000008316145b92915050565b60007f000000000000000000000000daf6226aafe296bbccbec815133386cd910ed58273ffffffffffffffffffffffffffffffffffffffff1663293c49996040518163ffffffff1660e01b8152600401602060405180830381865afa1580156103f4573d6000803e3d6000fd5b505050506040513d601f19601f82011682018060405250810190610418919061334e565b73ffffffffffffffffffffffffffffffffffffffff163373ffffffffffffffffffffffffffffffffffffffff161461044f57600080fd5b73ffffffffffffffffffffffffffffffffffffffff85161561047057600080fd5b507f150b7a020000000000000000000000000000000000000000000000000000000095945050505050565b60c0810135600090815260208190526040812054606090819073ffffffffffffffffffffffffffffffffffffffff16801561058b576040517f4c4ffc7100000000000000000000000000000000000000000000000000000000815273ffffffffffffffffffffffffffffffffffffffff821690634c4ffc7190610522908890600401613461565b600060405180830381865afa15801561053f573d6000803e3d6000fd5b505050506040513d6000823e601f3d9081017fffffffffffffffffffffffffffffffffffffffffffffffffffffffffffffffe01682016040526105859190810190613550565b90945091505b815160c086013560009081526003602090815260408083208054825181850281018501909352808352941515949192909190849084015b828210156106b35760008481526020908190206040805160608101825260038602909201805473ffffffffffffffffffffffffffffffffffffffff16835260018101549383019390935260028301805492939291840191610622906136b6565b80601f016020809104026020016040519081016040528092919081815260200182805461064e906136b6565b801561069b5780601f106106705761010080835404028352916020019161069b565b820191906000526020600020905b81548152906001019060200180831161067e57829003601f168201915b505050505081525050815260200190600101906105c2565b50506040517f3d12cb8700000000000000000000000000000000000000000000000000000000815260c08b0135600482015292935060009273ffffffffffffffffffffffffffffffffffffffff7f0000000000000000000000004be9d88be6e7a38644ea746cf78cb1bf30051c76169250633d12cb879150602401600060405180830381865afa15801561074b573d6000803e3d6000fd5b505050506040513d6000823e601f3d9081017fffffffffffffffffffffffffffffffffffffffffffffffffffffffffffffffe01682016040526107919190810190613709565b8251815191925090846107a55760006107a8565b60015b60ff166107b582846137d2565b6107bf91906137d2565b67ffffffffffffffff8111156107d7576107d76128af565b60405190808252806020026020018201604052801561082457816020015b604080516060808201835260008083526020830152918101919091528152602001906001900390816107f55790505b50975060005b8281101561087157848181518110610844576108446137e5565b602002602001015189828151811061085e5761085e6137e5565b602090810291909101015260010161082a565b5060005b8181101561090757604051806060016040528085838151811061089a5761089a6137e5565b602002602001015173ffffffffffffffffffffffffffffffffffffffff16815260200160008152602001604051806020016040528060008152508152508982856108e491906137d2565b815181106108f4576108f46137e5565b6020908102919091010152600101610875565b5084156109475786600081518110610921576109216137e5565b602002602001015188838151811061093b5761093b6137e5565b60200260200101819052505b50505050505050915091565b606060036000838152602001908152602001600020805480602002602001604051908101604052809291908181526020016000905b82821015610a795760008481526020908190206040805160608101825260038602909201805473ffffffffffffffffffffffffffffffffffffffff168352600181015493830193909352600283018054929392918401916109e8906136b6565b80601f0160208091040260200160405190810160405280929190818152602001828054610a14906136b6565b8015610a615780601f10610a3657610100808354040283529160200191610a61565b820191906000526020600020905b815481529060010190602001808311610a4457829003601f168201915b50505050508152505081526020019060010190610988565b505050509050919050565b60008281526020819052604081205473ffffffffffffffffffffffffffffffffffffffff90811690831603610abb57506001610381565b6040517f3d12cb87000000000000000000000000000000000000000000000000000000008152600481018490526000907f0000000000000000000000004be9d88be6e7a38644ea746cf78cb1bf30051c7673ffffffffffffffffffffffffffffffffffffffff1690633d12cb8790602401600060405180830381865afa158015610b49573d6000803e3d6000fd5b505050506040513d6000823e601f3d9081017fffffffffffffffffffffffffffffffffffffffffffffffffffffffffffffffe0168201604052610b8f9190810190613709565b805190915060005b81811015610bff57828181518110610bb157610bb16137e5565b602002602001015173ffffffffffffffffffffffffffffffffffffffff168573ffffffffffffffffffffffffffffffffffffffff1603610bf75760019350505050610381565b600101610b97565b50600095945050505050565b6000610c1c858585306000876115f7565b95945050505050565b7f000000000000000000000000daf6226aafe296bbccbec815133386cd910ed58273ffffffffffffffffffffffffffffffffffffffff16631f47ce696040518163ffffffff1660e01b8152600401602060405180830381865afa158015610c90573d6000803e3d6000fd5b505050506040513d601f19601f82011682018060405250810190610cb4919061334e565b73ffffffffffffffffffffffffffffffffffffffff1663f434c9146040518163ffffffff1660e01b8152600401602060405180830381865afa158015610cfe573d6000803e3d6000fd5b505050506040513d601f19601f82011682018060405250810190610d22919061334e565b73ffffffffffffffffffffffffffffffffffffffff16630f5932f033308560026040518563ffffffff1660e01b8152600401610d619493929190613814565b602060405180830381865afa158015610d7e573d6000803e3d6000fd5b505050506040513d601f19601f82011682018060405250810190610da29190613892565b610dd8576040517f31fb21f300000000000000000000000000000000000000000000000000000000815260040160405180910390fd5b7f000000000000000000000000daf6226aafe296bbccbec815133386cd910ed58273ffffffffffffffffffffffffffffffffffffffff16631f47ce696040518163ffffffff1660e01b8152600401602060405180830381865afa158015610e43573d6000803e3d6000fd5b505050506040513d601f19601f82011682018060405250810190610e67919061334e565b73ffffffffffffffffffffffffffffffffffffffff1663f434c9146040518163ffffffff1660e01b8152600401602060405180830381865afa158015610eb1573d6000803e3d6000fd5b505050506040513d601f19601f82011682018060405250810190610ed5919061334e565b73ffffffffffffffffffffffffffffffffffffffff166305d2912e3060405180606001604052803373ffffffffffffffffffffffffffffffffffffffff168152602001868152602001600067ffffffffffffffff811115610f3857610f386128af565b604051908082528060200260200182016040528015610f61578160200160208202803683370190505b508152506040518363ffffffff1660e01b8152600401610f829291906138b4565b600060405180830381600087803b158015610f9c57600080fd5b505af1158015610fb0573d6000803e3d6000fd5b505050507f000000000000000000000000daf6226aafe296bbccbec815133386cd910ed58273ffffffffffffffffffffffffffffffffffffffff16631f47ce696040518163ffffffff1660e01b8152600401602060405180830381865afa15801561101f573d6000803e3d6000fd5b505050506040513d601f19601f82011682018060405250810190611043919061334e565b73ffffffffffffffffffffffffffffffffffffffff1663f434c9146040518163ffffffff1660e01b8152600401602060405180830381865afa15801561108d573d6000803e3d6000fd5b505050506040513d601f19601f820116820180604052508101906110b1919061334e565b73ffffffffffffffffffffffffffffffffffffffff166305d2912e3060405180606001604052808573ffffffffffffffffffffffffffffffffffffffff168152602001868152602001600280548060200260200160405190810160405280929190818152602001828054801561114657602002820191906000526020600020905b815481526020019060010190808311611132575b50505050508152506040518363ffffffff1660e01b815260040161116b9291906138b4565b600060405180830381600087803b15801561118557600080fd5b505af1158015611199573d6000803e3d6000fd5b505050505050565b60008080606073ffffffffffffffffffffffffffffffffffffffff7f0000000000000000000000004be9d88be6e7a38644ea746cf78cb1bf30051c76166383db9d01604087018035906111f79060208a01613941565b6040517fffffffff0000000000000000000000000000000000000000000000000000000060e085901b168152600481019290925273ffffffffffffffffffffffffffffffffffffffff166024820152604401602060405180830381865afa158015611266573d6000803e3d6000fd5b505050506040513d601f19601f8201168201806040525081019061128a9190613892565b156112a75761271085608001358660a00135935093509350611309565b6040808601356000908152600160205220544210156112f2576040517f04c3b3cd00000000000000000000000000000000000000000000000000000000815260040160405180910390fd5b84610160013585608001358660a001359350935093505b9193509193565b7f000000000000000000000000daf6226aafe296bbccbec815133386cd910ed58273ffffffffffffffffffffffffffffffffffffffff16631f47ce696040518163ffffffff1660e01b8152600401602060405180830381865afa15801561137b573d6000803e3d6000fd5b505050506040513d601f19601f8201168201806040525081019061139f919061334e565b73ffffffffffffffffffffffffffffffffffffffff1663f434c9146040518163ffffffff1660e01b8152600401602060405180830381865afa1580156113e9573d6000803e3d6000fd5b505050506040513d601f19601f8201168201806040525081019061140d919061334e565b73ffffffffffffffffffffffffffffffffffffffff16630f5932f033308660026040518563ffffffff1660e01b815260040161144c9493929190613814565b602060405180830381865afa158015611469573d6000803e3d6000fd5b505050506040513d601f19601f8201168201806040525081019061148d9190613892565b6114c3576040517f31fb21f300000000000000000000000000000000000000000000000000000000815260040160405180910390fd5b6000338383602001516040516020016114de9392919061395e565b604080517fffffffffffffffffffffffffffffffffffffffffffffffffffffffffffffffe081840301815290829052805160209091012083517f2f3f50e000000000000000000000000000000000000000000000000000000000835290925073ffffffffffffffffffffffffffffffffffffffff7f0000000000000000000000004be9d88be6e7a38644ea746cf78cb1bf30051c761691632f3f50e09161158b91889186916004016139b0565b6000604051808303816000875af11580156115aa573d6000803e3d6000fd5b505050506040513d6000823e601f3d9081017fffffffffffffffffffffffffffffffffffffffffffffffffffffffffffffffe01682016040526115f09190810190613709565b5050505050565b6000806000806116088a8888611dc2565b9250925092507f000000000000000000000000daf6226aafe296bbccbec815133386cd910ed58273ffffffffffffffffffffffffffffffffffffffff16630634bae9308c6000015160400151868d8f600001516020015160405160200161166f9190613aad565b6040516020818303038152906040526040518663ffffffff1660e01b815260040161169e959493929190613ed9565b6020604051808303816000875af11580156116bd573d6000803e3d6000fd5b505050506040513d601f19601f820116820180604052508101906116e1919061403e565b93508015611706576116f66276a700426137d2565b6000858152600160205260409020555b8951805160208201516060909201516040517f5817819100000000000000000000000000000000000000000000000000000000815273ffffffffffffffffffffffffffffffffffffffff7f000000000000000000000000daf6226aafe296bbccbec815133386cd910ed582169363581781919361178a938a93919291600401614057565b6020604051808303816000875af11580156117a9573d6000803e3d6000fd5b505050506040513d601f19601f820116820180604052508101906117cd919061334e565b50875173ffffffffffffffffffffffffffffffffffffffff16156117f5576117f584896122c4565b7f000000000000000000000000daf6226aafe296bbccbec815133386cd910ed58273ffffffffffffffffffffffffffffffffffffffff1663dd5f214a8560006118418e60600151612449565b6040518463ffffffff1660e01b815260040161185f93929190614094565b600060405180830381600087803b15801561187957600080fd5b505af115801561188d573d6000803e3d6000fd5b505050507f000000000000000000000000daf6226aafe296bbccbec815133386cd910ed58273ffffffffffffffffffffffffffffffffffffffff1663f434c9146040518163ffffffff1660e01b8152600401602060405180830381865afa1580156118fc573d6000803e3d6000fd5b505050506040513d601f19601f82011682018060405250810190611920919061334e565b73ffffffffffffffffffffffffffffffffffffffff166305d2912e3060405180606001604052808e6060015173ffffffffffffffffffffffffffffffffffffffff16815260200188815260200160028054806020026020016040519081016040528092919081815260200182805480156119b957602002820191906000526020600020905b8154815260200190600101908083116119a5575b50505050508152506040518363ffffffff1660e01b81526004016119de9291906138b4565b600060405180830381600087803b1580156119f857600080fd5b505af1158015611a0c573d6000803e3d6000fd5b5050505060408a015115611af0577f000000000000000000000000daf6226aafe296bbccbec815133386cd910ed58273ffffffffffffffffffffffffffffffffffffffff1663c7fb92de858c604001518d606001518e6000015160200151604051602001611a7a91906141ae565b60405160208183030381529060405260006040518663ffffffff1660e01b8152600401611aab95949392919061421a565b6020604051808303816000875af1158015611aca573d6000803e3d6000fd5b505050506040513d601f19601f82011682018060405250810190611aee919061403e565b505b60408051600180825281830190925260009160208083019080368337019050509050601d81600081518110611b2757611b276137e5565b6020026020010181815250507f000000000000000000000000daf6226aafe296bbccbec815133386cd910ed58273ffffffffffffffffffffffffffffffffffffffff1663f434c9146040518163ffffffff1660e01b8152600401602060405180830381865afa158015611b9e573d6000803e3d6000fd5b505050506040513d601f19601f82011682018060405250810190611bc2919061334e565b73ffffffffffffffffffffffffffffffffffffffff166305d2912e3060405180606001604052807f0000000000000000000000004be9d88be6e7a38644ea746cf78cb1bf30051c7673ffffffffffffffffffffffffffffffffffffffff168152602001898152602001858152506040518363ffffffff1660e01b8152600401611c4c9291906138b4565b600060405180830381600087803b158015611c6657600080fd5b505af1158015611c7a573d6000803e3d6000fd5b50505050602086015115611db4577f0000000000000000000000004be9d88be6e7a38644ea746cf78cb1bf30051c7673ffffffffffffffffffffffffffffffffffffffff16632f3f50e08633868a60200151604051602001611cde9392919061395e565b604080517fffffffffffffffffffffffffffffffffffffffffffffffffffffffffffffffe08184030181529082905280516020909101208a517fffffffff0000000000000000000000000000000000000000000000000000000060e086901b168352611d4d93926004016139b0565b6000604051808303816000875af1158015611d6c573d6000803e3d6000fd5b505050506040513d6000823e601f3d9081017fffffffffffffffffffffffffffffffffffffffffffffffffffffffffffffffe0168201604052611db29190810190613709565b505b505050509695505050505050565b60608060008086608001515190508067ffffffffffffffff811115611de957611de96128af565b604051908082528060200260200182016040528015611edb57816020015b611ec86040805161010080820183526000808352602080840182905283850182905260608085018390526080808601849052865161020081018852848152928301849052958201839052810182905293840181905260a084810182905260c0850182905260e0850182905291840181905261012084018190526101408401819052610160840181905261018084018190526101a084018190526101c084018190526101e0840152909190820190815260200160608152602001606081525090565b815260200190600190039081611e075790505b5093508660200151604051602001611eff919063ffffffff91909116815260200190565b604080518083037fffffffffffffffffffffffffffffffffffffffffffffffffffffffffffffffe001815260c083018252600080845260208401819052918301829052606083018290526080830182905260a0830182905294505b828110156122b85788608001518181518110611f7857611f786137e5565b60200260200101519150816000015164ffffffffff16868281518110611fa057611fa06137e5565b60200260200101516000018181525050816060015164ffffffffff16868281518110611fce57611fce6137e5565b6020026020010151602001818152505081604001516dffffffffffffffffffffffffffff16868281518110612005576120056137e5565b60200260200101516040018181525050816080015163ffffffff16868281518110612032576120326137e5565b602002602001015160600181815250506000868281518110612056576120566137e5565b60200260200101516080019073ffffffffffffffffffffffffffffffffffffffff16908173ffffffffffffffffffffffffffffffffffffffff1681525050604051806102000160405280836020015161ffff1681526020018360a0015161ffff166127106120c49190614269565b815260208b81015163ffffffff16908201526000604082018190526060820181905260016080830181905260a0830182905260c0830182905260e0830182905261010083018290526101208301829052610140830182905261016083015261018082015273ffffffffffffffffffffffffffffffffffffffff8a166101a08201526101c0018890528651879083908110612160576121606137e5565b602002602001015160a001819052508060001480156121865750815164ffffffffff1615155b801561219c575042826000015164ffffffffff16105b156121a657600193505b84811580156121bb5750825164ffffffffff16155b6121cd57825164ffffffffff166121cf565b425b83602001518460400151856060015186608001518760a001516040516020016122449695949392919095865261ffff94851660208701526dffffffffffffffffffffffffffff93909316604086015264ffffffffff91909116606085015263ffffffff1660808401521660a082015260c00190565b604080517fffffffffffffffffffffffffffffffffffffffffffffffffffffffffffffffe081840301815290829052612280929160200161427c565b604080517fffffffffffffffffffffffffffffffffffffffffffffffffffffffffffffffe08184030181529190529450600101611f5a565b50505093509350939050565b602081810151516040805160808101825260008082529381018490529081018390526060810183905290915b828110156123f0578360200151818151811061230e5761230e6137e5565b6020908102919091018101518551918101516040808301516060840151845192517f7b621d3a000000000000000000000000000000000000000000000000000000008152600481018c905262ffffff909416602485015263ffffffff918216604485015216606483015273ffffffffffffffffffffffffffffffffffffffff9081166084830152919450911690637b621d3a9060a4016020604051808303816000875af11580156123c3573d6000803e3d6000fd5b505050506040513d601f19601f820116820180604052508101906123e7919061334e565b506001016122f0565b5050905160009283526020839052604090922080547fffffffffffffffffffffffff00000000000000000000000000000000000000001673ffffffffffffffffffffffffffffffffffffffff9093169290921790915550565b604080516001808252818301909252606091816020015b60408051808201909152600081526060602082015281526020019060019003908161246057505060408051600180825281830190925291925060009190602082015b6040805160c08101825260008082526020808301829052928201819052606082018190526080820181905260a082015282527fffffffffffffffffffffffffffffffffffffffffffffffffffffffffffffffff9092019101816124a25790505090506040518060c00160405280600015158152602001633b9aca008152602001600081526020018473ffffffffffffffffffffffffffffffffffffffff16815260200160008152602001600073ffffffffffffffffffffffffffffffffffffffff168152508160008151811061257a5761257a6137e5565b602002602001018190525060405180604001604052806001815260200182815250826000815181106125ae576125ae6137e5565b602002602001018190525050919050565b6000602082840312156125d157600080fd5b81357fffffffff000000000000000000000000000000000000000000000000000000008116811461260157600080fd5b9392505050565b73ffffffffffffffffffffffffffffffffffffffff8116811461262a57600080fd5b50565b803561263881612608565b919050565b60008060008060006080868803121561265557600080fd5b853561266081612608565b9450602086013561267081612608565b935060408601359250606086013567ffffffffffffffff8082111561269457600080fd5b818801915088601f8301126126a857600080fd5b8135818111156126b757600080fd5b8960208285010111156126c957600080fd5b9699959850939650602001949392505050565b6000602082840312156126ee57600080fd5b5035919050565b60006020828403121561270757600080fd5b813567ffffffffffffffff81111561271e57600080fd5b8201610180818503121561260157600080fd5b60005b8381101561274c578181015183820152602001612734565b50506000910152565b6000815180845261276d816020860160208601612731565b601f017fffffffffffffffffffffffffffffffffffffffffffffffffffffffffffffffe0169290920160200192915050565b600082825180855260208086019550808260051b84010181860160005b8481101561283e578583037fffffffffffffffffffffffffffffffffffffffffffffffffffffffffffffffe00189528151805173ffffffffffffffffffffffffffffffffffffffff168452848101518585015260409081015160609185018290529061282a81860183612755565b9a86019a94505050908301906001016127bc565b5090979650505050505050565b828152604060208201526000612864604083018461279f565b949350505050565b602081526000612601602083018461279f565b6000806040838503121561289257600080fd5b8235915060208301356128a481612608565b809150509250929050565b7f4e487b7100000000000000000000000000000000000000000000000000000000600052604160045260246000fd5b60405160c0810167ffffffffffffffff81118282101715612901576129016128af565b60405290565b6040805190810167ffffffffffffffff81118282101715612901576129016128af565b6040516080810167ffffffffffffffff81118282101715612901576129016128af565b60405160a0810167ffffffffffffffff81118282101715612901576129016128af565b6040516060810167ffffffffffffffff81118282101715612901576129016128af565b604051601f82017fffffffffffffffffffffffffffffffffffffffffffffffffffffffffffffffe016810167ffffffffffffffff811182821017156129da576129da6128af565b604052919050565b600067ffffffffffffffff8211156129fc576129fc6128af565b50601f017fffffffffffffffffffffffffffffffffffffffffffffffffffffffffffffffe01660200190565b6000612a3b612a36846129e2565b612993565b9050828152838383011115612a4f57600080fd5b828260208301376000602084830101529392505050565b600082601f830112612a7757600080fd5b61260183833560208501612a28565b803563ffffffff8116811461263857600080fd5b600067ffffffffffffffff821115612ab457612ab46128af565b5060051b60200190565b803564ffffffffff8116811461263857600080fd5b803561ffff8116811461263857600080fd5b600082601f830112612af657600080fd5b81356020612b06612a3683612a9a565b82815260c09283028501820192828201919087851115612b2557600080fd5b8387015b8581101561283e5781818a031215612b415760008081fd5b612b496128de565b612b5282612abe565b8152612b5f868301612ad3565b868201526040808301356dffffffffffffffffffffffffffff81168114612b865760008081fd5b908201526060612b97838201612abe565b908201526080612ba8838201612a86565b9082015260a0612bb9838201612ad3565b908201528452928401928101612b29565b600082601f830112612bdb57600080fd5b81356020612beb612a3683612a9a565b828152600592831b8501820192828201919087851115612c0a57600080fd5b8387015b8581101561283e57803567ffffffffffffffff80821115612c2f5760008081fd5b818a0191506040807fffffffffffffffffffffffffffffffffffffffffffffffffffffffffffffffe0848e03011215612c685760008081fd5b612c70612907565b88840135612c7d81612608565b81528382013583811115612c915760008081fd5b8085019450508c603f850112612ca957600092508283fd5b888401359250612cbb612a3684612a9a565b83815292861b8401820192898101908e851115612cd85760008081fd5b948301945b84861015612d025785359350612cf284612608565b838252948a0194908a0190612cdd565b828b0152508752505050928401928401612c0e565b60006040808385031215612d2a57600080fd5b612d32612907565b91508235612d3f81612608565b825260208381013567ffffffffffffffff811115612d5c57600080fd5b8401601f81018613612d6d57600080fd5b8035612d7b612a3682612a9a565b81815260079190911b82018301908381019088831115612d9a57600080fd5b928401925b82841015612e19576080848a031215612db85760008081fd5b612dc061292a565b8435612dcb81612608565b81528486013562ffffff81168114612de35760008081fd5b81870152612df2858801612a86565b878201526060612e03818701612a86565b9082015282526080939093019290840190612d9f565b808588015250505050505092915050565b600060408284031215612e3c57600080fd5b612e44612907565b905067ffffffffffffffff8083351115612e5d57600080fd5b8235830184601f820112612e7057600080fd5b612e7d612a368235612a9a565b81358082526020808301929160051b84010187811115612e9c57600080fd5b602084015b81811015612fff578581351115612eb757600080fd5b8035850160407fffffffffffffffffffffffffffffffffffffffffffffffffffffffffffffffe0828c03011215612eed57600080fd5b612ef5612907565b612f026020830135612608565b602082013581528760408301351115612f1a57600080fd5b6040820135820191508a603f830112612f3257600080fd5b6020820135612f43612a3682612a9a565b81815260079190911b83016040019060208101908d831115612f6457600080fd5b6040850194505b82851015612fe0576080858f031215612f8357600080fd5b612f8b61292a565b612f958635612608565b85358152612fa560208701612a86565b6020820152612fb76040870135612608565b604086013560408201526060860135606082015280835250602082019150608085019450612f6b565b8060208501525050508086525050602084019350602081019050612ea1565b5050808552505050506020820135602082015292915050565b6000806000806080858703121561302e57600080fd5b843567ffffffffffffffff8082111561304657600080fd5b9086019060a0828903121561305a57600080fd5b61306261294d565b82358281111561307157600080fd5b83016080818b03121561308357600080fd5b61308b61292a565b81358481111561309a57600080fd5b6130a68c828501612a66565b8252506020820135848111156130bb57600080fd5b6130c78c828501612a66565b6020830152506040820135848111156130df57600080fd5b6130eb8c828501612a66565b60408301525060608201356060820152808352505061310c60208401612a86565b6020820152604083013560408201526131276060840161262d565b606082015260808301358281111561313e57600080fd5b61314a8a828601612ae5565b6080830152509550602087013591508082111561316657600080fd5b61317288838901612bca565b9450604087013591508082111561318857600080fd5b61319488838901612d17565b935060608701359150808211156131aa57600080fd5b506131b787828801612e2a565b91505092959194509250565b6000602082840312156131d557600080fd5b813567ffffffffffffffff8111156131ec57600080fd5b82016101a0818503121561260157600080fd5b60006080820186835260208681850152604086604086015260606080606087015283875180865260a08801915060a08160051b890101955084890160005b828110156132b8578988037fffffffffffffffffffffffffffffffffffffffffffffffffffffffffffffff600184528151805173ffffffffffffffffffffffffffffffffffffffff16895287810151888a01528601518689018690526132a5868a0182612755565b985050928601929086019060010161323d565b50959c9b505050505050505050505050565b6000806000606084860312156132df57600080fd5b83359250602084013567ffffffffffffffff808211156132fe57600080fd5b818601915086601f83011261331257600080fd5b61332187833560208501612a28565b9350604086013591508082111561333757600080fd5b5061334486828701612e2a565b9150509250925092565b60006020828403121561336057600080fd5b815161260181612608565b803561337681612608565b73ffffffffffffffffffffffffffffffffffffffff1682526020818101359083015260408082013590830152606090810135910152565b60008083357fffffffffffffffffffffffffffffffffffffffffffffffffffffffffffffffe18436030181126133e257600080fd5b830160208101925035905067ffffffffffffffff81111561340257600080fd5b80360382131561341157600080fd5b9250929050565b8183528181602085013750600060208284010152600060207fffffffffffffffffffffffffffffffffffffffffffffffffffffffffffffffe0601f840116840101905092915050565b6020815261348f602082016134758461262d565b73ffffffffffffffffffffffffffffffffffffffff169052565b600061349d6020840161262d565b73ffffffffffffffffffffffffffffffffffffffff81166040840152506134ca606083016040850161336b565b60c083013560e083015261010060e0840135818401526134eb81850161262d565b90506101206135118185018373ffffffffffffffffffffffffffffffffffffffff169052565b61014091508085013582850152506101608185013581850152613536818601866133ad565b6101808681015292509050610c1c6101a085018383613418565b600080604080848603121561356457600080fd5b8351925060208085015167ffffffffffffffff8082111561358457600080fd5b818701915087601f83011261359857600080fd5b81516135a6612a3682612a9a565b81815260059190911b8301840190848101908a8311156135c557600080fd5b8585015b838110156136a4578051858111156135e057600080fd5b86016060818e037fffffffffffffffffffffffffffffffffffffffffffffffffffffffffffffffe00112156136155760008081fd5b61361d612970565b8882015161362a81612608565b8152818a0151898201526060820151878111156136475760008081fd5b8083019250508d603f83011261365d5760008081fd5b8882015161366d612a36826129e2565b8181528f8c8386010111156136825760008081fd5b613691828c83018e8701612731565b828c0152508452509186019186016135c9565b50809750505050505050509250929050565b600181811c908216806136ca57607f821691505b602082108103613703577f4e487b7100000000000000000000000000000000000000000000000000000000600052602260045260246000fd5b50919050565b6000602080838503121561371c57600080fd5b825167ffffffffffffffff81111561373357600080fd5b8301601f8101851361374457600080fd5b8051613752612a3682612a9a565b81815260059190911b8201830190838101908783111561377157600080fd5b928401925b8284101561379857835161378981612608565b82529284019290840190613776565b979650505050505050565b7f4e487b7100000000000000000000000000000000000000000000000000000000600052601160045260246000fd5b80820180821115610381576103816137a3565b7f4e487b7100000000000000000000000000000000000000000000000000000000600052603260045260246000fd5b60006080820173ffffffffffffffffffffffffffffffffffffffff80881684526020818816602086015286604086015260806060860152829150855480845260a086019250866000526020600020935060005b8181101561388357845484526001948501949383019301613867565b50919998505050505050505050565b6000602082840312156138a457600080fd5b8151801515811461260157600080fd5b600073ffffffffffffffffffffffffffffffffffffffff808516835260206040602085015260a0840182865116604086015260208601516060860152604086015192506060608086015280835180835260c087019150602085019450600092505b808310156139355784518252938301936001929092019190830190613915565b50979650505050505050565b60006020828403121561395357600080fd5b813561260181612608565b7fffffffffffffffffffffffffffffffffffffffff0000000000000000000000008460601b1681526000835161399b816014850160208801612731565b60149201918201929092526034019392505050565b600060608083018684526020868186015260406060604087015282875180855260808801915060808160051b89010194508389016000805b838110156132b8578a88037fffffffffffffffffffffffffffffffffffffffffffffffffffffffffffffff800185528251805173ffffffffffffffffffffffffffffffffffffffff9081168a5290880151888a018890528051888b018190529089019184918c8c01905b80841015613a975784518051841683528c81015163ffffffff168d8401528b81015184168c8401528e01518e830152938b019360019390930192608090910190613a52565b509a5050509487019450918601916001016139e8565b7f2400000000000000000000000000000000000000000000000000000000000000815260008251613ae5816001850160208701612731565b7f207265766e6574206465706c6f796564000000000000000000000000000000006001939091019283015250601101919050565b8051825260208101516020830152604081015160408301526060810151613b44606084018215159052565b506080810151613b58608084018215159052565b5060a0810151613b6c60a084018215159052565b5060c0810151613b8060c084018215159052565b5060e0810151613b9460e084018215159052565b5061010081810151151590830152610120808201511515908301526101408082015115159083015261016080820151151590830152610180808201511515908301526101a0808201511515908301526101c08082015173ffffffffffffffffffffffffffffffffffffffff16908301526101e090810151910152565b600082825180855260208086019550808260051b8401018186016000805b85811015613d01578684037fffffffffffffffffffffffffffffffffffffffffffffffffffffffffffffffe0018a52825180518552850151604086860181905281518187018190529187019160609081880190865b81811015613cea5785518051151584528b8101518c85015285810151868501528481015173ffffffffffffffffffffffffffffffffffffffff908116868601526080808301519086015260a0918201511690840152948a019460c090920191600101613c83565b50509c88019c965050509285019250600101613c2e565b509198975050505050505050565b60008151808452602080850194506020840160005b83811015613d4b578151805188528301518388015260409096019590820190600101613d24565b509495945050505050565b600082825180855260208086019550808260051b84010181860160005b8481101561283e577fffffffffffffffffffffffffffffffffffffffffffffffffffffffffffffffe08684030189528151608073ffffffffffffffffffffffffffffffffffffffff80835116865280878401511687870152506040808301518282880152613de383880182613d0f565b9250505060608083015192508582038187015250613e018183613d0f565b9a86019a9450505090830190600101613d73565b600082825180855260208086019550808260051b8401018186016000805b85811015613d01578684037fffffffffffffffffffffffffffffffffffffffffffffffffffffffffffffffe0018a528251805173ffffffffffffffffffffffffffffffffffffffff908116865290860151604087870181905281519087018190529087019160608701918591905b80831015613ec357845182168452938901939289019260019290920191613ea1565b5050509a86019a94505091840191600101613e33565b600060a073ffffffffffffffffffffffffffffffffffffffff88168352602060a081850152613f0b60a0850189612755565b604085820360408701528189518084528484019150848160051b850101858c0160005b83811015614004577fffffffffffffffffffffffffffffffffffffffffffffffffffffffffffffffe087840301855281516102e081518552898201518a86015287820151888601526060808301518187015250608080830151613fa88288018273ffffffffffffffffffffffffffffffffffffffff169052565b50508a820151613fba8c870182613b19565b5060c0820151816102a0870152613fd382870182613c10565b91505060e082015191508481036102c0860152613ff08183613d56565b968a01969450505090870190600101613f2e565b505088810360608a0152614018818c613e15565b965050505050505082810360808401526140328185612755565b98975050505050505050565b60006020828403121561405057600080fd5b5051919050565b8481526080602082015260006140706080830186612755565b82810360408401526140828186612755565b91505082606083015295945050505050565b600060608083018684526020868186015260406060604087015282875180855260808801915060808160051b890101945083890160005b8281101561419d578987037fffffffffffffffffffffffffffffffffffffffffffffffffffffffffffffff800184528151805188528601518688018690528051868901819052908701906000908a8a01905b808310156141885783518051151583528a8101518b840152898101518a8401528c81015173ffffffffffffffffffffffffffffffffffffffff9081168e8501526080808301519085015260a0918201511690830152928901926001929092019160c09091019061411d565b509850505092850192908501906001016140cb565b50949b9a5050505050505050505050565b7f24000000000000000000000000000000000000000000000000000000000000008152600082516141e6816001850160208701612731565b7f207072656d696e746564000000000000000000000000000000000000000000006001939091019283015250600b01919050565b85815284602082015273ffffffffffffffffffffffffffffffffffffffff8416604082015260a06060820152600061425560a0830185612755565b905082151560808301529695505050505050565b81810381811115610381576103816137a3565b6000835161428e818460208801612731565b8351908301906142a2818360208801612731565b0194935050505056fea2646970667358221220aa240b6402e2186bb4dc70aa539adda1aa1fc16088ca90c6ea9cea43495294e864736f6c63430008170033",
			"devdoc": {
				"kind": "dev",
				"methods": {
					"beforePayRecordedWith((address,address,(address,uint256,uint256,uint256),uint256,uint256,address,uint256,uint256,bytes))": {
						"details": "Part of IJBFundingCycleDataSource.This implementation just sets this contract up to receive a `didPay` call.",
						"params": {
							"context": "The Juicebox standard network payment context. See"
						},
						"returns": {
							"hookSpecifications": "Amount to be sent to pay hooks instead of adding to local balance. Useful for auto-routing funds from a treasury as payment come in.",
							"weight": "The weight that network tokens should get minted relative to. This is useful for optionally customizing how many tokens are issued per payment."
						}
					},
					"constructor": {
						"params": {
							"controller": "The controller that revnets are made from.",
							"suckerRegistry": "The registry that deploys and tracks each project's suckers."
						}
					},
					"deployRevnetWith(((string,string,string,bytes32),uint32,uint256,address,(uint40,uint16,uint112,uint40,uint32,uint16)[]),(address,address[])[],(address,(address,uint24,uint32,uint32)[]),((address,(address,uint32,address,uint256)[])[],bytes32))": {
						"params": {
							"buybackHookConfiguration": "Data used for setting up the buyback hook to use when determining the best price for new participants.",
							"configuration": "The data needed to deploy a basic revnet.",
							"suckerDeploymentConfiguration": "Information about how this revnet relates to other's across chains.",
							"terminalConfigurations": "The terminals that the network uses to accept payments through."
						},
						"returns": {
							"revnetId": "The ID of the newly created revnet."
						}
					},
					"deploySuckersFor(uint256,bytes,((address,(address,uint32,address,uint256)[])[],bytes32))": {
						"params": {
							"encodedConfiguration": "A bytes representation of the revnet's configuration.",
							"revnetId": "The ID of the revnet having new suckers deployed.",
							"suckerDeploymentConfiguration": "The specifics about the suckers being deployed."
						}
					},
					"hasMintPermissionFor(uint256,address)": {
						"params": {
							"addr": "The address to check if has permissions.",
							"revnetId": "The ID of the revnet to check permissions for."
						},
						"returns": {
							"_0": "flag The flag indicating if the address has permissions to mint on the revnet's behalf."
						}
					},
					"onERC721Received(address,address,uint256,bytes)": {
						"details": "Make sure only mints can be received."
					},
					"payHookSpecificationsOf(uint256)": {
						"params": {
							"revnetId": "The ID of the revnet to which the extensions apply."
						},
						"returns": {
							"_0": "payHookSpecifications The pay hooks."
						}
					},
					"replaceOperatorOf(uint256,address)": {
						"params": {
							"newOperator": "The address of the new operator.",
							"revnetId": "The ID of the revnet having its operator replaced."
						}
					},
					"supportsInterface(bytes4)": {
						"details": "See {IERC165-supportsInterface}.",
						"params": {
							"interfaceId": "The ID of the interface to check for adherence to."
						},
						"returns": {
							"_0": "A flag indicating if the provided interface ID is supported."
						}
					}
				},
				"version": 1
			},
			"userdoc": {
				"kind": "user",
				"methods": {
					"CONTROLLER()": {
						"notice": "The controller that networks are made from."
					},
					"EXIT_DELAY()": {
						"notice": "The amount of time from a sucker being deployed to when it can facilitate exits."
					},
					"SUCKER_REGISTRY()": {
						"notice": "The registry that deploys and tracks each project's suckers."
					},
					"beforePayRecordedWith((address,address,(address,uint256,uint256,uint256),uint256,uint256,address,uint256,uint256,bytes))": {
						"notice": "This function gets called when the revnet receives a payment."
					},
					"beforeRedeemRecordedWith((address,address,uint256,uint256,uint256,uint256,(address,uint256,uint256,uint256),bool,uint256,bytes))": {
						"notice": "This function is never called, it needs to be included to adhere to the interface."
					},
					"buybackHookOf(uint256)": {
						"notice": "The data hook that returns the correct values for the buyback hook of each network."
					},
					"deployRevnetWith(((string,string,string,bytes32),uint32,uint256,address,(uint40,uint16,uint112,uint40,uint32,uint16)[]),(address,address[])[],(address,(address,uint24,uint32,uint32)[]),((address,(address,uint32,address,uint256)[])[],bytes32))": {
						"notice": "Deploy a basic revnet."
					},
					"deploySuckersFor(uint256,bytes,((address,(address,uint32,address,uint256)[])[],bytes32))": {
						"notice": "Allows a revnet's operator to deploy new suckers to the revnet after it's deployed."
					},
					"exitDelayOf(uint256)": {
						"notice": "The time at which exits from a revnet become allowed."
					},
					"hasMintPermissionFor(uint256,address)": {
						"notice": "Required by the IJBRulesetDataHook interfaces."
					},
					"payHookSpecificationsOf(uint256)": {
						"notice": "The pay hooks to include during payments to networks."
					},
					"replaceOperatorOf(uint256,address)": {
						"notice": "A revnet's operator can replace itself."
					},
					"supportsInterface(bytes4)": {
						"notice": "Indicates if this contract adheres to the specified interface."
					}
				},
				"version": 1
			},
			"gitCommit": "6c2de14c26489576a0722fd439b82a3ac8f9fe75",
			"sourceName": "src/REVBasicDeployer.sol",
			"chainId": "11155111",
			"linkReferences": {},
			"deployedLinkReferences": {}
		},
		{
			"_format": "sphinx-sol-ct-artifact-1",
			"merkleRoot": "0x3b544fe49380791b3537fa1e7c3ff7403c9cc6291d97bb407dcfd8348e8895e1",
			"contractName": "REVBasicDeployer",
			"address": "0x07cF7D538cde49A1d498D2b625F750a92a53a9A8",
			"abi": [
				{
					"type": "constructor",
					"inputs": [
						{
							"name": "controller",
							"type": "address",
							"internalType": "contract IJBController"
						},
						{
							"name": "suckerRegistry",
							"type": "address",
							"internalType": "contract IBPSuckerRegistry"
						}
					],
					"stateMutability": "nonpayable"
				},
				{
					"type": "function",
					"name": "CONTROLLER",
					"inputs": [],
					"outputs": [
						{
							"name": "",
							"type": "address",
							"internalType": "contract IJBController"
						}
					],
					"stateMutability": "view"
				},
				{
					"type": "function",
					"name": "EXIT_DELAY",
					"inputs": [],
					"outputs": [
						{
							"name": "",
							"type": "uint256",
							"internalType": "uint256"
						}
					],
					"stateMutability": "view"
				},
				{
					"type": "function",
					"name": "SUCKER_REGISTRY",
					"inputs": [],
					"outputs": [
						{
							"name": "",
							"type": "address",
							"internalType": "contract IBPSuckerRegistry"
						}
					],
					"stateMutability": "view"
				},
				{
					"type": "function",
					"name": "beforePayRecordedWith",
					"inputs": [
						{
							"name": "context",
							"type": "tuple",
							"internalType": "struct JBBeforePayRecordedContext",
							"components": [
								{
									"name": "terminal",
									"type": "address",
									"internalType": "address"
								},
								{
									"name": "payer",
									"type": "address",
									"internalType": "address"
								},
								{
									"name": "amount",
									"type": "tuple",
									"internalType": "struct JBTokenAmount",
									"components": [
										{
											"name": "token",
											"type": "address",
											"internalType": "address"
										},
										{
											"name": "value",
											"type": "uint256",
											"internalType": "uint256"
										},
										{
											"name": "decimals",
											"type": "uint256",
											"internalType": "uint256"
										},
										{
											"name": "currency",
											"type": "uint256",
											"internalType": "uint256"
										}
									]
								},
								{
									"name": "projectId",
									"type": "uint256",
									"internalType": "uint256"
								},
								{
									"name": "rulesetId",
									"type": "uint256",
									"internalType": "uint256"
								},
								{
									"name": "beneficiary",
									"type": "address",
									"internalType": "address"
								},
								{
									"name": "weight",
									"type": "uint256",
									"internalType": "uint256"
								},
								{
									"name": "reservedRate",
									"type": "uint256",
									"internalType": "uint256"
								},
								{
									"name": "metadata",
									"type": "bytes",
									"internalType": "bytes"
								}
							]
						}
					],
					"outputs": [
						{
							"name": "weight",
							"type": "uint256",
							"internalType": "uint256"
						},
						{
							"name": "hookSpecifications",
							"type": "tuple[]",
							"internalType": "struct JBPayHookSpecification[]",
							"components": [
								{
									"name": "hook",
									"type": "address",
									"internalType": "contract IJBPayHook"
								},
								{
									"name": "amount",
									"type": "uint256",
									"internalType": "uint256"
								},
								{
									"name": "metadata",
									"type": "bytes",
									"internalType": "bytes"
								}
							]
						}
					],
					"stateMutability": "view"
				},
				{
					"type": "function",
					"name": "beforeRedeemRecordedWith",
					"inputs": [
						{
							"name": "context",
							"type": "tuple",
							"internalType": "struct JBBeforeRedeemRecordedContext",
							"components": [
								{
									"name": "terminal",
									"type": "address",
									"internalType": "address"
								},
								{
									"name": "holder",
									"type": "address",
									"internalType": "address"
								},
								{
									"name": "projectId",
									"type": "uint256",
									"internalType": "uint256"
								},
								{
									"name": "rulesetId",
									"type": "uint256",
									"internalType": "uint256"
								},
								{
									"name": "redeemCount",
									"type": "uint256",
									"internalType": "uint256"
								},
								{
									"name": "totalSupply",
									"type": "uint256",
									"internalType": "uint256"
								},
								{
									"name": "surplus",
									"type": "tuple",
									"internalType": "struct JBTokenAmount",
									"components": [
										{
											"name": "token",
											"type": "address",
											"internalType": "address"
										},
										{
											"name": "value",
											"type": "uint256",
											"internalType": "uint256"
										},
										{
											"name": "decimals",
											"type": "uint256",
											"internalType": "uint256"
										},
										{
											"name": "currency",
											"type": "uint256",
											"internalType": "uint256"
										}
									]
								},
								{
									"name": "useTotalSurplus",
									"type": "bool",
									"internalType": "bool"
								},
								{
									"name": "redemptionRate",
									"type": "uint256",
									"internalType": "uint256"
								},
								{
									"name": "metadata",
									"type": "bytes",
									"internalType": "bytes"
								}
							]
						}
					],
					"outputs": [
						{
							"name": "",
							"type": "uint256",
							"internalType": "uint256"
						},
						{
							"name": "",
							"type": "uint256",
							"internalType": "uint256"
						},
						{
							"name": "",
							"type": "uint256",
							"internalType": "uint256"
						},
						{
							"name": "specifications",
							"type": "tuple[]",
							"internalType": "struct JBRedeemHookSpecification[]",
							"components": [
								{
									"name": "hook",
									"type": "address",
									"internalType": "contract IJBRedeemHook"
								},
								{
									"name": "amount",
									"type": "uint256",
									"internalType": "uint256"
								},
								{
									"name": "metadata",
									"type": "bytes",
									"internalType": "bytes"
								}
							]
						}
					],
					"stateMutability": "view"
				},
				{
					"type": "function",
					"name": "buybackHookOf",
					"inputs": [
						{
							"name": "revnetId",
							"type": "uint256",
							"internalType": "uint256"
						}
					],
					"outputs": [
						{
							"name": "buybackHook",
							"type": "address",
							"internalType": "contract IJBRulesetDataHook"
						}
					],
					"stateMutability": "view"
				},
				{
					"type": "function",
					"name": "deployRevnetWith",
					"inputs": [
						{
							"name": "configuration",
							"type": "tuple",
							"internalType": "struct REVConfig",
							"components": [
								{
									"name": "description",
									"type": "tuple",
									"internalType": "struct REVDescription",
									"components": [
										{
											"name": "name",
											"type": "string",
											"internalType": "string"
										},
										{
											"name": "ticker",
											"type": "string",
											"internalType": "string"
										},
										{
											"name": "uri",
											"type": "string",
											"internalType": "string"
										},
										{
											"name": "salt",
											"type": "bytes32",
											"internalType": "bytes32"
										}
									]
								},
								{
									"name": "baseCurrency",
									"type": "uint32",
									"internalType": "uint32"
								},
								{
									"name": "premintTokenAmount",
									"type": "uint256",
									"internalType": "uint256"
								},
								{
									"name": "premintChainId",
									"type": "uint256",
									"internalType": "uint256"
								},
								{
									"name": "initialSplitOperator",
									"type": "address",
									"internalType": "address"
								},
								{
									"name": "stageConfigurations",
									"type": "tuple[]",
									"internalType": "struct REVStageConfig[]",
									"components": [
										{
											"name": "startsAtOrAfter",
											"type": "uint40",
											"internalType": "uint40"
										},
										{
											"name": "splitRate",
											"type": "uint16",
											"internalType": "uint16"
										},
										{
											"name": "initialIssuanceRate",
											"type": "uint112",
											"internalType": "uint112"
										},
										{
											"name": "priceCeilingIncreaseFrequency",
											"type": "uint40",
											"internalType": "uint40"
										},
										{
											"name": "priceCeilingIncreasePercentage",
											"type": "uint32",
											"internalType": "uint32"
										},
										{
											"name": "priceFloorTaxIntensity",
											"type": "uint16",
											"internalType": "uint16"
										}
									]
								}
							]
						},
						{
							"name": "terminalConfigurations",
							"type": "tuple[]",
							"internalType": "struct JBTerminalConfig[]",
							"components": [
								{
									"name": "terminal",
									"type": "address",
									"internalType": "contract IJBTerminal"
								},
								{
									"name": "tokensToAccept",
									"type": "address[]",
									"internalType": "address[]"
								}
							]
						},
						{
							"name": "buybackHookConfiguration",
							"type": "tuple",
							"internalType": "struct REVBuybackHookConfig",
							"components": [
								{
									"name": "hook",
									"type": "address",
									"internalType": "contract IJBBuybackHook"
								},
								{
									"name": "poolConfigurations",
									"type": "tuple[]",
									"internalType": "struct REVBuybackPoolConfig[]",
									"components": [
										{
											"name": "token",
											"type": "address",
											"internalType": "address"
										},
										{
											"name": "fee",
											"type": "uint24",
											"internalType": "uint24"
										},
										{
											"name": "twapWindow",
											"type": "uint32",
											"internalType": "uint32"
										},
										{
											"name": "twapSlippageTolerance",
											"type": "uint32",
											"internalType": "uint32"
										}
									]
								}
							]
						},
						{
							"name": "suckerDeploymentConfiguration",
							"type": "tuple",
							"internalType": "struct REVSuckerDeploymentConfig",
							"components": [
								{
									"name": "deployerConfigurations",
									"type": "tuple[]",
									"internalType": "struct BPSuckerDeployerConfig[]",
									"components": [
										{
											"name": "deployer",
											"type": "address",
											"internalType": "contract IBPSuckerDeployer"
										},
										{
											"name": "mappings",
											"type": "tuple[]",
											"internalType": "struct BPTokenMapping[]",
											"components": [
												{
													"name": "localToken",
													"type": "address",
													"internalType": "address"
												},
												{
													"name": "minGas",
													"type": "uint32",
													"internalType": "uint32"
												},
												{
													"name": "remoteToken",
													"type": "address",
													"internalType": "address"
												},
												{
													"name": "minBridgeAmount",
													"type": "uint256",
													"internalType": "uint256"
												}
											]
										}
									]
								},
								{
									"name": "salt",
									"type": "bytes32",
									"internalType": "bytes32"
								}
							]
						}
					],
					"outputs": [
						{
							"name": "revnetId",
							"type": "uint256",
							"internalType": "uint256"
						}
					],
					"stateMutability": "nonpayable"
				},
				{
					"type": "function",
					"name": "deploySuckersFor",
					"inputs": [
						{
							"name": "revnetId",
							"type": "uint256",
							"internalType": "uint256"
						},
						{
							"name": "encodedConfiguration",
							"type": "bytes",
							"internalType": "bytes"
						},
						{
							"name": "suckerDeploymentConfiguration",
							"type": "tuple",
							"internalType": "struct REVSuckerDeploymentConfig",
							"components": [
								{
									"name": "deployerConfigurations",
									"type": "tuple[]",
									"internalType": "struct BPSuckerDeployerConfig[]",
									"components": [
										{
											"name": "deployer",
											"type": "address",
											"internalType": "contract IBPSuckerDeployer"
										},
										{
											"name": "mappings",
											"type": "tuple[]",
											"internalType": "struct BPTokenMapping[]",
											"components": [
												{
													"name": "localToken",
													"type": "address",
													"internalType": "address"
												},
												{
													"name": "minGas",
													"type": "uint32",
													"internalType": "uint32"
												},
												{
													"name": "remoteToken",
													"type": "address",
													"internalType": "address"
												},
												{
													"name": "minBridgeAmount",
													"type": "uint256",
													"internalType": "uint256"
												}
											]
										}
									]
								},
								{
									"name": "salt",
									"type": "bytes32",
									"internalType": "bytes32"
								}
							]
						}
					],
					"outputs": [],
					"stateMutability": "nonpayable"
				},
				{
					"type": "function",
					"name": "exitDelayOf",
					"inputs": [
						{
							"name": "revnetId",
							"type": "uint256",
							"internalType": "uint256"
						}
					],
					"outputs": [
						{
							"name": "exitDelay",
							"type": "uint256",
							"internalType": "uint256"
						}
					],
					"stateMutability": "view"
				},
				{
					"type": "function",
					"name": "hasMintPermissionFor",
					"inputs": [
						{
							"name": "revnetId",
							"type": "uint256",
							"internalType": "uint256"
						},
						{
							"name": "addr",
							"type": "address",
							"internalType": "address"
						}
					],
					"outputs": [
						{
							"name": "",
							"type": "bool",
							"internalType": "bool"
						}
					],
					"stateMutability": "view"
				},
				{
					"type": "function",
					"name": "onERC721Received",
					"inputs": [
						{
							"name": "operator",
							"type": "address",
							"internalType": "address"
						},
						{
							"name": "from",
							"type": "address",
							"internalType": "address"
						},
						{
							"name": "tokenId",
							"type": "uint256",
							"internalType": "uint256"
						},
						{
							"name": "data",
							"type": "bytes",
							"internalType": "bytes"
						}
					],
					"outputs": [
						{
							"name": "",
							"type": "bytes4",
							"internalType": "bytes4"
						}
					],
					"stateMutability": "view"
				},
				{
					"type": "function",
					"name": "payHookSpecificationsOf",
					"inputs": [
						{
							"name": "revnetId",
							"type": "uint256",
							"internalType": "uint256"
						}
					],
					"outputs": [
						{
							"name": "",
							"type": "tuple[]",
							"internalType": "struct JBPayHookSpecification[]",
							"components": [
								{
									"name": "hook",
									"type": "address",
									"internalType": "contract IJBPayHook"
								},
								{
									"name": "amount",
									"type": "uint256",
									"internalType": "uint256"
								},
								{
									"name": "metadata",
									"type": "bytes",
									"internalType": "bytes"
								}
							]
						}
					],
					"stateMutability": "view"
				},
				{
					"type": "function",
					"name": "replaceSplitOperatorOf",
					"inputs": [
						{
							"name": "revnetId",
							"type": "uint256",
							"internalType": "uint256"
						},
						{
							"name": "newSplitOperator",
							"type": "address",
							"internalType": "address"
						}
					],
					"outputs": [],
					"stateMutability": "nonpayable"
				},
				{
					"type": "function",
					"name": "supportsInterface",
					"inputs": [
						{
							"name": "interfaceId",
							"type": "bytes4",
							"internalType": "bytes4"
						}
					],
					"outputs": [
						{
							"name": "",
							"type": "bool",
							"internalType": "bool"
						}
					],
					"stateMutability": "view"
				},
				{
					"type": "event",
					"name": "DeployRevnet",
					"inputs": [
						{
							"name": "revnetId",
							"type": "uint256",
							"indexed": true,
							"internalType": "uint256"
						},
						{
							"name": "configuration",
							"type": "tuple",
							"indexed": false,
							"internalType": "struct REVConfig",
							"components": [
								{
									"name": "description",
									"type": "tuple",
									"internalType": "struct REVDescription",
									"components": [
										{
											"name": "name",
											"type": "string",
											"internalType": "string"
										},
										{
											"name": "ticker",
											"type": "string",
											"internalType": "string"
										},
										{
											"name": "uri",
											"type": "string",
											"internalType": "string"
										},
										{
											"name": "salt",
											"type": "bytes32",
											"internalType": "bytes32"
										}
									]
								},
								{
									"name": "baseCurrency",
									"type": "uint32",
									"internalType": "uint32"
								},
								{
									"name": "premintTokenAmount",
									"type": "uint256",
									"internalType": "uint256"
								},
								{
									"name": "premintChainId",
									"type": "uint256",
									"internalType": "uint256"
								},
								{
									"name": "initialSplitOperator",
									"type": "address",
									"internalType": "address"
								},
								{
									"name": "stageConfigurations",
									"type": "tuple[]",
									"internalType": "struct REVStageConfig[]",
									"components": [
										{
											"name": "startsAtOrAfter",
											"type": "uint40",
											"internalType": "uint40"
										},
										{
											"name": "splitRate",
											"type": "uint16",
											"internalType": "uint16"
										},
										{
											"name": "initialIssuanceRate",
											"type": "uint112",
											"internalType": "uint112"
										},
										{
											"name": "priceCeilingIncreaseFrequency",
											"type": "uint40",
											"internalType": "uint40"
										},
										{
											"name": "priceCeilingIncreasePercentage",
											"type": "uint32",
											"internalType": "uint32"
										},
										{
											"name": "priceFloorTaxIntensity",
											"type": "uint16",
											"internalType": "uint16"
										}
									]
								}
							]
						},
						{
							"name": "terminalConfigurations",
							"type": "tuple[]",
							"indexed": false,
							"internalType": "struct JBTerminalConfig[]",
							"components": [
								{
									"name": "terminal",
									"type": "address",
									"internalType": "contract IJBTerminal"
								},
								{
									"name": "tokensToAccept",
									"type": "address[]",
									"internalType": "address[]"
								}
							]
						},
						{
							"name": "buybackHookConfiguration",
							"type": "tuple",
							"indexed": false,
							"internalType": "struct REVBuybackHookConfig",
							"components": [
								{
									"name": "hook",
									"type": "address",
									"internalType": "contract IJBBuybackHook"
								},
								{
									"name": "poolConfigurations",
									"type": "tuple[]",
									"internalType": "struct REVBuybackPoolConfig[]",
									"components": [
										{
											"name": "token",
											"type": "address",
											"internalType": "address"
										},
										{
											"name": "fee",
											"type": "uint24",
											"internalType": "uint24"
										},
										{
											"name": "twapWindow",
											"type": "uint32",
											"internalType": "uint32"
										},
										{
											"name": "twapSlippageTolerance",
											"type": "uint32",
											"internalType": "uint32"
										}
									]
								}
							]
						},
						{
							"name": "suckerDeploymentConfiguration",
							"type": "tuple",
							"indexed": false,
							"internalType": "struct REVSuckerDeploymentConfig",
							"components": [
								{
									"name": "deployerConfigurations",
									"type": "tuple[]",
									"internalType": "struct BPSuckerDeployerConfig[]",
									"components": [
										{
											"name": "deployer",
											"type": "address",
											"internalType": "contract IBPSuckerDeployer"
										},
										{
											"name": "mappings",
											"type": "tuple[]",
											"internalType": "struct BPTokenMapping[]",
											"components": [
												{
													"name": "localToken",
													"type": "address",
													"internalType": "address"
												},
												{
													"name": "minGas",
													"type": "uint32",
													"internalType": "uint32"
												},
												{
													"name": "remoteToken",
													"type": "address",
													"internalType": "address"
												},
												{
													"name": "minBridgeAmount",
													"type": "uint256",
													"internalType": "uint256"
												}
											]
										}
									]
								},
								{
									"name": "salt",
									"type": "bytes32",
									"internalType": "bytes32"
								}
							]
						},
						{
							"name": "rulesetConfigurations",
							"type": "tuple[]",
							"indexed": false,
							"internalType": "struct JBRulesetConfig[]",
							"components": [
								{
									"name": "mustStartAtOrAfter",
									"type": "uint256",
									"internalType": "uint256"
								},
								{
									"name": "duration",
									"type": "uint256",
									"internalType": "uint256"
								},
								{
									"name": "weight",
									"type": "uint256",
									"internalType": "uint256"
								},
								{
									"name": "decayRate",
									"type": "uint256",
									"internalType": "uint256"
								},
								{
									"name": "approvalHook",
									"type": "address",
									"internalType": "contract IJBRulesetApprovalHook"
								},
								{
									"name": "metadata",
									"type": "tuple",
									"internalType": "struct JBRulesetMetadata",
									"components": [
										{
											"name": "reservedRate",
											"type": "uint256",
											"internalType": "uint256"
										},
										{
											"name": "redemptionRate",
											"type": "uint256",
											"internalType": "uint256"
										},
										{
											"name": "baseCurrency",
											"type": "uint256",
											"internalType": "uint256"
										},
										{
											"name": "pausePay",
											"type": "bool",
											"internalType": "bool"
										},
										{
											"name": "pauseCreditTransfers",
											"type": "bool",
											"internalType": "bool"
										},
										{
											"name": "allowOwnerMinting",
											"type": "bool",
											"internalType": "bool"
										},
										{
											"name": "allowTerminalMigration",
											"type": "bool",
											"internalType": "bool"
										},
										{
											"name": "allowSetTerminals",
											"type": "bool",
											"internalType": "bool"
										},
										{
											"name": "allowControllerMigration",
											"type": "bool",
											"internalType": "bool"
										},
										{
											"name": "allowSetController",
											"type": "bool",
											"internalType": "bool"
										},
										{
											"name": "holdFees",
											"type": "bool",
											"internalType": "bool"
										},
										{
											"name": "useTotalSurplusForRedemptions",
											"type": "bool",
											"internalType": "bool"
										},
										{
											"name": "useDataHookForPay",
											"type": "bool",
											"internalType": "bool"
										},
										{
											"name": "useDataHookForRedeem",
											"type": "bool",
											"internalType": "bool"
										},
										{
											"name": "dataHook",
											"type": "address",
											"internalType": "address"
										},
										{
											"name": "metadata",
											"type": "uint256",
											"internalType": "uint256"
										}
									]
								},
								{
									"name": "splitGroups",
									"type": "tuple[]",
									"internalType": "struct JBSplitGroup[]",
									"components": [
										{
											"name": "groupId",
											"type": "uint256",
											"internalType": "uint256"
										},
										{
											"name": "splits",
											"type": "tuple[]",
											"internalType": "struct JBSplit[]",
											"components": [
												{
													"name": "preferAddToBalance",
													"type": "bool",
													"internalType": "bool"
												},
												{
													"name": "percent",
													"type": "uint256",
													"internalType": "uint256"
												},
												{
													"name": "projectId",
													"type": "uint256",
													"internalType": "uint256"
												},
												{
													"name": "beneficiary",
													"type": "address",
													"internalType": "address payable"
												},
												{
													"name": "lockedUntil",
													"type": "uint256",
													"internalType": "uint256"
												},
												{
													"name": "hook",
													"type": "address",
													"internalType": "contract IJBSplitHook"
												}
											]
										}
									]
								},
								{
									"name": "fundAccessLimitGroups",
									"type": "tuple[]",
									"internalType": "struct JBFundAccessLimitGroup[]",
									"components": [
										{
											"name": "terminal",
											"type": "address",
											"internalType": "address"
										},
										{
											"name": "token",
											"type": "address",
											"internalType": "address"
										},
										{
											"name": "payoutLimits",
											"type": "tuple[]",
											"internalType": "struct JBCurrencyAmount[]",
											"components": [
												{
													"name": "amount",
													"type": "uint256",
													"internalType": "uint256"
												},
												{
													"name": "currency",
													"type": "uint256",
													"internalType": "uint256"
												}
											]
										},
										{
											"name": "surplusAllowances",
											"type": "tuple[]",
											"internalType": "struct JBCurrencyAmount[]",
											"components": [
												{
													"name": "amount",
													"type": "uint256",
													"internalType": "uint256"
												},
												{
													"name": "currency",
													"type": "uint256",
													"internalType": "uint256"
												}
											]
										}
									]
								}
							]
						},
						{
							"name": "encodedConfiguration",
							"type": "bytes",
							"indexed": false,
							"internalType": "bytes"
						},
						{
							"name": "isInProgress",
							"type": "bool",
							"indexed": false,
							"internalType": "bool"
						},
						{
							"name": "caller",
							"type": "address",
							"indexed": false,
							"internalType": "address"
						}
					],
					"anonymous": false
				},
				{
					"type": "event",
					"name": "DeploySuckers",
					"inputs": [
						{
							"name": "revnetId",
							"type": "uint256",
							"indexed": true,
							"internalType": "uint256"
						},
						{
							"name": "salt",
							"type": "bytes32",
							"indexed": true,
							"internalType": "bytes32"
						},
						{
							"name": "encodedConfiguration",
							"type": "bytes",
							"indexed": false,
							"internalType": "bytes"
						},
						{
							"name": "suckerDeploymentConfiguration",
							"type": "tuple",
							"indexed": false,
							"internalType": "struct REVSuckerDeploymentConfig",
							"components": [
								{
									"name": "deployerConfigurations",
									"type": "tuple[]",
									"internalType": "struct BPSuckerDeployerConfig[]",
									"components": [
										{
											"name": "deployer",
											"type": "address",
											"internalType": "contract IBPSuckerDeployer"
										},
										{
											"name": "mappings",
											"type": "tuple[]",
											"internalType": "struct BPTokenMapping[]",
											"components": [
												{
													"name": "localToken",
													"type": "address",
													"internalType": "address"
												},
												{
													"name": "minGas",
													"type": "uint32",
													"internalType": "uint32"
												},
												{
													"name": "remoteToken",
													"type": "address",
													"internalType": "address"
												},
												{
													"name": "minBridgeAmount",
													"type": "uint256",
													"internalType": "uint256"
												}
											]
										}
									]
								},
								{
									"name": "salt",
									"type": "bytes32",
									"internalType": "bytes32"
								}
							]
						},
						{
							"name": "caller",
							"type": "address",
							"indexed": false,
							"internalType": "address"
						}
					],
					"anonymous": false
				},
				{
					"type": "event",
					"name": "ReplaceSplitOperator",
					"inputs": [
						{
							"name": "revnetId",
							"type": "uint256",
							"indexed": true,
							"internalType": "uint256"
						},
						{
							"name": "newSplitOperator",
							"type": "address",
							"indexed": true,
							"internalType": "address"
						},
						{
							"name": "caller",
							"type": "address",
							"indexed": false,
							"internalType": "address"
						}
					],
					"anonymous": false
				},
				{
					"type": "error",
					"name": "REVBasicDeployer_ExitDelayInEffect",
					"inputs": []
				},
				{
					"type": "error",
					"name": "REVBasicDeployer_Unauthorized",
					"inputs": []
				}
			],
			"solcInputHash": "8abe45a86bca175ef5bd5651ad7253ca",
			"receipt": {
				"blockHash": "0x401373abcd5ae7874a29d83fe464548190fa463658ea93e068d8e3820e1b92eb",
				"blockNumber": 5520804,
				"contractAddress": null,
				"cumulativeGasUsed": "12362641",
				"from": "0xC034550B542b83BA1De312b21d1C94a9a52B1595",
				"gasPrice": "88643113",
				"gasUsed": "9893903",
				"hash": "0xadab66eccd272e0eac6da0b296d9b67f754c4c1f9e33caaf4477a03001709b0d",
				"index": 39,
				"logs": [
					{
						"address": "0xB5E96127D417b1B3ef8438496a38A143167209c7",
						"blockHash": "0x401373abcd5ae7874a29d83fe464548190fa463658ea93e068d8e3820e1b92eb",
						"blockNumber": 5520804,
						"data": "0x0000000000000000000000000000000000000000000000000000000000000000",
						"index": 34,
						"topics": [
							"0x572f161235911da04685a68c06adf558fc7e4a36909dca394650e0adc19cc93d",
							"0x000000000000000000000000c034550b542b83ba1de312b21d1c94a9a52b1595",
							"0x00000000000000000000000018ed911dda49f125bbadd71f826f1cda550f20fe",
							"0xbe7c1e3c9062b66d1cf55505fb1e5de39fdc69550b499528e27bf078d636c4a9"
						],
						"transactionHash": "0xadab66eccd272e0eac6da0b296d9b67f754c4c1f9e33caaf4477a03001709b0d",
						"transactionIndex": 39
					},
					{
						"address": "0x15B51C7D9DBc4681e54f8b493187C9a2377bd81B",
						"blockHash": "0x401373abcd5ae7874a29d83fe464548190fa463658ea93e068d8e3820e1b92eb",
						"blockNumber": 5520804,
						"data": "0x",
						"index": 35,
						"topics": [
							"0x6895c13664aa4f67288b25d7a21d7aaa34916e355fb9b6fae0a139a9085becb8",
							"0x00000000000000000000000018ed911dda49f125bbadd71f826f1cda550f20fe"
						],
						"transactionHash": "0xadab66eccd272e0eac6da0b296d9b67f754c4c1f9e33caaf4477a03001709b0d",
						"transactionIndex": 39
					},
					{
						"address": "0x18Ed911ddA49f125bbadd71f826F1cDa550f20fE",
						"blockHash": "0x401373abcd5ae7874a29d83fe464548190fa463658ea93e068d8e3820e1b92eb",
						"blockNumber": 5520804,
						"data": "0x0000000000000000000000000000000000000000000000000000000000000001",
						"index": 36,
						"topics": [
							"0xa65fb05c5808f5f389d72edeaf719ce38f4cc55c1f69ca3cbfb31c21501caa07",
							"0x3b544fe49380791b3537fa1e7c3ff7403c9cc6291d97bb407dcfd8348e8895e1"
						],
						"transactionHash": "0xadab66eccd272e0eac6da0b296d9b67f754c4c1f9e33caaf4477a03001709b0d",
						"transactionIndex": 39
					},
					{
						"address": "0x15B51C7D9DBc4681e54f8b493187C9a2377bd81B",
						"blockHash": "0x401373abcd5ae7874a29d83fe464548190fa463658ea93e068d8e3820e1b92eb",
						"blockNumber": 5520804,
						"data": "0x",
						"index": 37,
						"topics": [
							"0x6895c13664aa4f67288b25d7a21d7aaa34916e355fb9b6fae0a139a9085becb8",
							"0x00000000000000000000000018ed911dda49f125bbadd71f826f1cda550f20fe"
						],
						"transactionHash": "0xadab66eccd272e0eac6da0b296d9b67f754c4c1f9e33caaf4477a03001709b0d",
						"transactionIndex": 39
					},
					{
						"address": "0x18Ed911ddA49f125bbadd71f826F1cDa550f20fE",
						"blockHash": "0x401373abcd5ae7874a29d83fe464548190fa463658ea93e068d8e3820e1b92eb",
						"blockNumber": 5520804,
						"data": "0x0000000000000000000000000000000000000000000000000000000000000002",
						"index": 38,
						"topics": [
							"0xa65fb05c5808f5f389d72edeaf719ce38f4cc55c1f69ca3cbfb31c21501caa07",
							"0x3b544fe49380791b3537fa1e7c3ff7403c9cc6291d97bb407dcfd8348e8895e1"
						],
						"transactionHash": "0xadab66eccd272e0eac6da0b296d9b67f754c4c1f9e33caaf4477a03001709b0d",
						"transactionIndex": 39
					},
					{
						"address": "0x18Ed911ddA49f125bbadd71f826F1cDa550f20fE",
						"blockHash": "0x401373abcd5ae7874a29d83fe464548190fa463658ea93e068d8e3820e1b92eb",
						"blockNumber": 5520804,
						"data": "0x",
						"index": 39,
						"topics": [
							"0x4383d976757d67ca920616be0b6430a681ea9d3dcce8d6d61d4603ca4a9bff63",
							"0x3b544fe49380791b3537fa1e7c3ff7403c9cc6291d97bb407dcfd8348e8895e1"
						],
						"transactionHash": "0xadab66eccd272e0eac6da0b296d9b67f754c4c1f9e33caaf4477a03001709b0d",
						"transactionIndex": 39
					}
				],
				"logsBloom": "0x00000000080010001000000000080000000000000008000000000000004010000000000000000010000000001040000000000004000004000000000000000000100000000000200000000000000000000000000000000000000000000000000000000000000010000000000000000000000000000008000000000000008000000000000000000000000100000000000000000000000000000000008000000000004000800010000000000000000001020200000000000000020000000044000000000000000000000000000008000000000000000000000000000000000000010000000000000008000000000000000200000000000000000000000008000000",
				"status": 1,
				"to": "0xB5E96127D417b1B3ef8438496a38A143167209c7"
			},
			"metadata": "{\"compiler\":{\"version\":\"0.8.23+commit.f704f362\"},\"language\":\"Solidity\",\"output\":{\"abi\":[{\"inputs\":[{\"internalType\":\"contract IJBController\",\"name\":\"controller\",\"type\":\"address\"},{\"internalType\":\"contract IBPSuckerRegistry\",\"name\":\"suckerRegistry\",\"type\":\"address\"}],\"stateMutability\":\"nonpayable\",\"type\":\"constructor\"},{\"inputs\":[],\"type\":\"error\",\"name\":\"REVBasicDeployer_ExitDelayInEffect\"},{\"inputs\":[],\"type\":\"error\",\"name\":\"REVBasicDeployer_Unauthorized\"},{\"inputs\":[{\"internalType\":\"uint256\",\"name\":\"revnetId\",\"type\":\"uint256\",\"indexed\":true},{\"internalType\":\"struct REVConfig\",\"name\":\"configuration\",\"type\":\"tuple\",\"components\":[{\"internalType\":\"struct REVDescription\",\"name\":\"description\",\"type\":\"tuple\",\"components\":[{\"internalType\":\"string\",\"name\":\"name\",\"type\":\"string\"},{\"internalType\":\"string\",\"name\":\"ticker\",\"type\":\"string\"},{\"internalType\":\"string\",\"name\":\"uri\",\"type\":\"string\"},{\"internalType\":\"bytes32\",\"name\":\"salt\",\"type\":\"bytes32\"}]},{\"internalType\":\"uint32\",\"name\":\"baseCurrency\",\"type\":\"uint32\"},{\"internalType\":\"uint256\",\"name\":\"premintTokenAmount\",\"type\":\"uint256\"},{\"internalType\":\"uint256\",\"name\":\"premintChainId\",\"type\":\"uint256\"},{\"internalType\":\"address\",\"name\":\"initialSplitOperator\",\"type\":\"address\"},{\"internalType\":\"struct REVStageConfig[]\",\"name\":\"stageConfigurations\",\"type\":\"tuple[]\",\"components\":[{\"internalType\":\"uint40\",\"name\":\"startsAtOrAfter\",\"type\":\"uint40\"},{\"internalType\":\"uint16\",\"name\":\"splitRate\",\"type\":\"uint16\"},{\"internalType\":\"uint112\",\"name\":\"initialIssuanceRate\",\"type\":\"uint112\"},{\"internalType\":\"uint40\",\"name\":\"priceCeilingIncreaseFrequency\",\"type\":\"uint40\"},{\"internalType\":\"uint32\",\"name\":\"priceCeilingIncreasePercentage\",\"type\":\"uint32\"},{\"internalType\":\"uint16\",\"name\":\"priceFloorTaxIntensity\",\"type\":\"uint16\"}]}],\"indexed\":false},{\"internalType\":\"struct JBTerminalConfig[]\",\"name\":\"terminalConfigurations\",\"type\":\"tuple[]\",\"components\":[{\"internalType\":\"contract IJBTerminal\",\"name\":\"terminal\",\"type\":\"address\"},{\"internalType\":\"address[]\",\"name\":\"tokensToAccept\",\"type\":\"address[]\"}],\"indexed\":false},{\"internalType\":\"struct REVBuybackHookConfig\",\"name\":\"buybackHookConfiguration\",\"type\":\"tuple\",\"components\":[{\"internalType\":\"contract IJBBuybackHook\",\"name\":\"hook\",\"type\":\"address\"},{\"internalType\":\"struct REVBuybackPoolConfig[]\",\"name\":\"poolConfigurations\",\"type\":\"tuple[]\",\"components\":[{\"internalType\":\"address\",\"name\":\"token\",\"type\":\"address\"},{\"internalType\":\"uint24\",\"name\":\"fee\",\"type\":\"uint24\"},{\"internalType\":\"uint32\",\"name\":\"twapWindow\",\"type\":\"uint32\"},{\"internalType\":\"uint32\",\"name\":\"twapSlippageTolerance\",\"type\":\"uint32\"}]}],\"indexed\":false},{\"internalType\":\"struct REVSuckerDeploymentConfig\",\"name\":\"suckerDeploymentConfiguration\",\"type\":\"tuple\",\"components\":[{\"internalType\":\"struct BPSuckerDeployerConfig[]\",\"name\":\"deployerConfigurations\",\"type\":\"tuple[]\",\"components\":[{\"internalType\":\"contract IBPSuckerDeployer\",\"name\":\"deployer\",\"type\":\"address\"},{\"internalType\":\"struct BPTokenMapping[]\",\"name\":\"mappings\",\"type\":\"tuple[]\",\"components\":[{\"internalType\":\"address\",\"name\":\"localToken\",\"type\":\"address\"},{\"internalType\":\"uint32\",\"name\":\"minGas\",\"type\":\"uint32\"},{\"internalType\":\"address\",\"name\":\"remoteToken\",\"type\":\"address\"},{\"internalType\":\"uint256\",\"name\":\"minBridgeAmount\",\"type\":\"uint256\"}]}]},{\"internalType\":\"bytes32\",\"name\":\"salt\",\"type\":\"bytes32\"}],\"indexed\":false},{\"internalType\":\"struct JBRulesetConfig[]\",\"name\":\"rulesetConfigurations\",\"type\":\"tuple[]\",\"components\":[{\"internalType\":\"uint256\",\"name\":\"mustStartAtOrAfter\",\"type\":\"uint256\"},{\"internalType\":\"uint256\",\"name\":\"duration\",\"type\":\"uint256\"},{\"internalType\":\"uint256\",\"name\":\"weight\",\"type\":\"uint256\"},{\"internalType\":\"uint256\",\"name\":\"decayRate\",\"type\":\"uint256\"},{\"internalType\":\"contract IJBRulesetApprovalHook\",\"name\":\"approvalHook\",\"type\":\"address\"},{\"internalType\":\"struct JBRulesetMetadata\",\"name\":\"metadata\",\"type\":\"tuple\",\"components\":[{\"internalType\":\"uint256\",\"name\":\"reservedRate\",\"type\":\"uint256\"},{\"internalType\":\"uint256\",\"name\":\"redemptionRate\",\"type\":\"uint256\"},{\"internalType\":\"uint256\",\"name\":\"baseCurrency\",\"type\":\"uint256\"},{\"internalType\":\"bool\",\"name\":\"pausePay\",\"type\":\"bool\"},{\"internalType\":\"bool\",\"name\":\"pauseCreditTransfers\",\"type\":\"bool\"},{\"internalType\":\"bool\",\"name\":\"allowOwnerMinting\",\"type\":\"bool\"},{\"internalType\":\"bool\",\"name\":\"allowTerminalMigration\",\"type\":\"bool\"},{\"internalType\":\"bool\",\"name\":\"allowSetTerminals\",\"type\":\"bool\"},{\"internalType\":\"bool\",\"name\":\"allowControllerMigration\",\"type\":\"bool\"},{\"internalType\":\"bool\",\"name\":\"allowSetController\",\"type\":\"bool\"},{\"internalType\":\"bool\",\"name\":\"holdFees\",\"type\":\"bool\"},{\"internalType\":\"bool\",\"name\":\"useTotalSurplusForRedemptions\",\"type\":\"bool\"},{\"internalType\":\"bool\",\"name\":\"useDataHookForPay\",\"type\":\"bool\"},{\"internalType\":\"bool\",\"name\":\"useDataHookForRedeem\",\"type\":\"bool\"},{\"internalType\":\"address\",\"name\":\"dataHook\",\"type\":\"address\"},{\"internalType\":\"uint256\",\"name\":\"metadata\",\"type\":\"uint256\"}]},{\"internalType\":\"struct JBSplitGroup[]\",\"name\":\"splitGroups\",\"type\":\"tuple[]\",\"components\":[{\"internalType\":\"uint256\",\"name\":\"groupId\",\"type\":\"uint256\"},{\"internalType\":\"struct JBSplit[]\",\"name\":\"splits\",\"type\":\"tuple[]\",\"components\":[{\"internalType\":\"bool\",\"name\":\"preferAddToBalance\",\"type\":\"bool\"},{\"internalType\":\"uint256\",\"name\":\"percent\",\"type\":\"uint256\"},{\"internalType\":\"uint256\",\"name\":\"projectId\",\"type\":\"uint256\"},{\"internalType\":\"address payable\",\"name\":\"beneficiary\",\"type\":\"address\"},{\"internalType\":\"uint256\",\"name\":\"lockedUntil\",\"type\":\"uint256\"},{\"internalType\":\"contract IJBSplitHook\",\"name\":\"hook\",\"type\":\"address\"}]}]},{\"internalType\":\"struct JBFundAccessLimitGroup[]\",\"name\":\"fundAccessLimitGroups\",\"type\":\"tuple[]\",\"components\":[{\"internalType\":\"address\",\"name\":\"terminal\",\"type\":\"address\"},{\"internalType\":\"address\",\"name\":\"token\",\"type\":\"address\"},{\"internalType\":\"struct JBCurrencyAmount[]\",\"name\":\"payoutLimits\",\"type\":\"tuple[]\",\"components\":[{\"internalType\":\"uint256\",\"name\":\"amount\",\"type\":\"uint256\"},{\"internalType\":\"uint256\",\"name\":\"currency\",\"type\":\"uint256\"}]},{\"internalType\":\"struct JBCurrencyAmount[]\",\"name\":\"surplusAllowances\",\"type\":\"tuple[]\",\"components\":[{\"internalType\":\"uint256\",\"name\":\"amount\",\"type\":\"uint256\"},{\"internalType\":\"uint256\",\"name\":\"currency\",\"type\":\"uint256\"}]}]}],\"indexed\":false},{\"internalType\":\"bytes\",\"name\":\"encodedConfiguration\",\"type\":\"bytes\",\"indexed\":false},{\"internalType\":\"bool\",\"name\":\"isInProgress\",\"type\":\"bool\",\"indexed\":false},{\"internalType\":\"address\",\"name\":\"caller\",\"type\":\"address\",\"indexed\":false}],\"type\":\"event\",\"name\":\"DeployRevnet\",\"anonymous\":false},{\"inputs\":[{\"internalType\":\"uint256\",\"name\":\"revnetId\",\"type\":\"uint256\",\"indexed\":true},{\"internalType\":\"bytes32\",\"name\":\"salt\",\"type\":\"bytes32\",\"indexed\":true},{\"internalType\":\"bytes\",\"name\":\"encodedConfiguration\",\"type\":\"bytes\",\"indexed\":false},{\"internalType\":\"struct REVSuckerDeploymentConfig\",\"name\":\"suckerDeploymentConfiguration\",\"type\":\"tuple\",\"components\":[{\"internalType\":\"struct BPSuckerDeployerConfig[]\",\"name\":\"deployerConfigurations\",\"type\":\"tuple[]\",\"components\":[{\"internalType\":\"contract IBPSuckerDeployer\",\"name\":\"deployer\",\"type\":\"address\"},{\"internalType\":\"struct BPTokenMapping[]\",\"name\":\"mappings\",\"type\":\"tuple[]\",\"components\":[{\"internalType\":\"address\",\"name\":\"localToken\",\"type\":\"address\"},{\"internalType\":\"uint32\",\"name\":\"minGas\",\"type\":\"uint32\"},{\"internalType\":\"address\",\"name\":\"remoteToken\",\"type\":\"address\"},{\"internalType\":\"uint256\",\"name\":\"minBridgeAmount\",\"type\":\"uint256\"}]}]},{\"internalType\":\"bytes32\",\"name\":\"salt\",\"type\":\"bytes32\"}],\"indexed\":false},{\"internalType\":\"address\",\"name\":\"caller\",\"type\":\"address\",\"indexed\":false}],\"type\":\"event\",\"name\":\"DeploySuckers\",\"anonymous\":false},{\"inputs\":[{\"internalType\":\"uint256\",\"name\":\"revnetId\",\"type\":\"uint256\",\"indexed\":true},{\"internalType\":\"address\",\"name\":\"newSplitOperator\",\"type\":\"address\",\"indexed\":true},{\"internalType\":\"address\",\"name\":\"caller\",\"type\":\"address\",\"indexed\":false}],\"type\":\"event\",\"name\":\"ReplaceSplitOperator\",\"anonymous\":false},{\"inputs\":[],\"stateMutability\":\"view\",\"type\":\"function\",\"name\":\"CONTROLLER\",\"outputs\":[{\"internalType\":\"contract IJBController\",\"name\":\"\",\"type\":\"address\"}]},{\"inputs\":[],\"stateMutability\":\"view\",\"type\":\"function\",\"name\":\"EXIT_DELAY\",\"outputs\":[{\"internalType\":\"uint256\",\"name\":\"\",\"type\":\"uint256\"}]},{\"inputs\":[],\"stateMutability\":\"view\",\"type\":\"function\",\"name\":\"SUCKER_REGISTRY\",\"outputs\":[{\"internalType\":\"contract IBPSuckerRegistry\",\"name\":\"\",\"type\":\"address\"}]},{\"inputs\":[{\"internalType\":\"struct JBBeforePayRecordedContext\",\"name\":\"context\",\"type\":\"tuple\",\"components\":[{\"internalType\":\"address\",\"name\":\"terminal\",\"type\":\"address\"},{\"internalType\":\"address\",\"name\":\"payer\",\"type\":\"address\"},{\"internalType\":\"struct JBTokenAmount\",\"name\":\"amount\",\"type\":\"tuple\",\"components\":[{\"internalType\":\"address\",\"name\":\"token\",\"type\":\"address\"},{\"internalType\":\"uint256\",\"name\":\"value\",\"type\":\"uint256\"},{\"internalType\":\"uint256\",\"name\":\"decimals\",\"type\":\"uint256\"},{\"internalType\":\"uint256\",\"name\":\"currency\",\"type\":\"uint256\"}]},{\"internalType\":\"uint256\",\"name\":\"projectId\",\"type\":\"uint256\"},{\"internalType\":\"uint256\",\"name\":\"rulesetId\",\"type\":\"uint256\"},{\"internalType\":\"address\",\"name\":\"beneficiary\",\"type\":\"address\"},{\"internalType\":\"uint256\",\"name\":\"weight\",\"type\":\"uint256\"},{\"internalType\":\"uint256\",\"name\":\"reservedRate\",\"type\":\"uint256\"},{\"internalType\":\"bytes\",\"name\":\"metadata\",\"type\":\"bytes\"}]}],\"stateMutability\":\"view\",\"type\":\"function\",\"name\":\"beforePayRecordedWith\",\"outputs\":[{\"internalType\":\"uint256\",\"name\":\"weight\",\"type\":\"uint256\"},{\"internalType\":\"struct JBPayHookSpecification[]\",\"name\":\"hookSpecifications\",\"type\":\"tuple[]\",\"components\":[{\"internalType\":\"contract IJBPayHook\",\"name\":\"hook\",\"type\":\"address\"},{\"internalType\":\"uint256\",\"name\":\"amount\",\"type\":\"uint256\"},{\"internalType\":\"bytes\",\"name\":\"metadata\",\"type\":\"bytes\"}]}]},{\"inputs\":[{\"internalType\":\"struct JBBeforeRedeemRecordedContext\",\"name\":\"context\",\"type\":\"tuple\",\"components\":[{\"internalType\":\"address\",\"name\":\"terminal\",\"type\":\"address\"},{\"internalType\":\"address\",\"name\":\"holder\",\"type\":\"address\"},{\"internalType\":\"uint256\",\"name\":\"projectId\",\"type\":\"uint256\"},{\"internalType\":\"uint256\",\"name\":\"rulesetId\",\"type\":\"uint256\"},{\"internalType\":\"uint256\",\"name\":\"redeemCount\",\"type\":\"uint256\"},{\"internalType\":\"uint256\",\"name\":\"totalSupply\",\"type\":\"uint256\"},{\"internalType\":\"struct JBTokenAmount\",\"name\":\"surplus\",\"type\":\"tuple\",\"components\":[{\"internalType\":\"address\",\"name\":\"token\",\"type\":\"address\"},{\"internalType\":\"uint256\",\"name\":\"value\",\"type\":\"uint256\"},{\"internalType\":\"uint256\",\"name\":\"decimals\",\"type\":\"uint256\"},{\"internalType\":\"uint256\",\"name\":\"currency\",\"type\":\"uint256\"}]},{\"internalType\":\"bool\",\"name\":\"useTotalSurplus\",\"type\":\"bool\"},{\"internalType\":\"uint256\",\"name\":\"redemptionRate\",\"type\":\"uint256\"},{\"internalType\":\"bytes\",\"name\":\"metadata\",\"type\":\"bytes\"}]}],\"stateMutability\":\"view\",\"type\":\"function\",\"name\":\"beforeRedeemRecordedWith\",\"outputs\":[{\"internalType\":\"uint256\",\"name\":\"\",\"type\":\"uint256\"},{\"internalType\":\"uint256\",\"name\":\"\",\"type\":\"uint256\"},{\"internalType\":\"uint256\",\"name\":\"\",\"type\":\"uint256\"},{\"internalType\":\"struct JBRedeemHookSpecification[]\",\"name\":\"specifications\",\"type\":\"tuple[]\",\"components\":[{\"internalType\":\"contract IJBRedeemHook\",\"name\":\"hook\",\"type\":\"address\"},{\"internalType\":\"uint256\",\"name\":\"amount\",\"type\":\"uint256\"},{\"internalType\":\"bytes\",\"name\":\"metadata\",\"type\":\"bytes\"}]}]},{\"inputs\":[{\"internalType\":\"uint256\",\"name\":\"revnetId\",\"type\":\"uint256\"}],\"stateMutability\":\"view\",\"type\":\"function\",\"name\":\"buybackHookOf\",\"outputs\":[{\"internalType\":\"contract IJBRulesetDataHook\",\"name\":\"buybackHook\",\"type\":\"address\"}]},{\"inputs\":[{\"internalType\":\"struct REVConfig\",\"name\":\"configuration\",\"type\":\"tuple\",\"components\":[{\"internalType\":\"struct REVDescription\",\"name\":\"description\",\"type\":\"tuple\",\"components\":[{\"internalType\":\"string\",\"name\":\"name\",\"type\":\"string\"},{\"internalType\":\"string\",\"name\":\"ticker\",\"type\":\"string\"},{\"internalType\":\"string\",\"name\":\"uri\",\"type\":\"string\"},{\"internalType\":\"bytes32\",\"name\":\"salt\",\"type\":\"bytes32\"}]},{\"internalType\":\"uint32\",\"name\":\"baseCurrency\",\"type\":\"uint32\"},{\"internalType\":\"uint256\",\"name\":\"premintTokenAmount\",\"type\":\"uint256\"},{\"internalType\":\"uint256\",\"name\":\"premintChainId\",\"type\":\"uint256\"},{\"internalType\":\"address\",\"name\":\"initialSplitOperator\",\"type\":\"address\"},{\"internalType\":\"struct REVStageConfig[]\",\"name\":\"stageConfigurations\",\"type\":\"tuple[]\",\"components\":[{\"internalType\":\"uint40\",\"name\":\"startsAtOrAfter\",\"type\":\"uint40\"},{\"internalType\":\"uint16\",\"name\":\"splitRate\",\"type\":\"uint16\"},{\"internalType\":\"uint112\",\"name\":\"initialIssuanceRate\",\"type\":\"uint112\"},{\"internalType\":\"uint40\",\"name\":\"priceCeilingIncreaseFrequency\",\"type\":\"uint40\"},{\"internalType\":\"uint32\",\"name\":\"priceCeilingIncreasePercentage\",\"type\":\"uint32\"},{\"internalType\":\"uint16\",\"name\":\"priceFloorTaxIntensity\",\"type\":\"uint16\"}]}]},{\"internalType\":\"struct JBTerminalConfig[]\",\"name\":\"terminalConfigurations\",\"type\":\"tuple[]\",\"components\":[{\"internalType\":\"contract IJBTerminal\",\"name\":\"terminal\",\"type\":\"address\"},{\"internalType\":\"address[]\",\"name\":\"tokensToAccept\",\"type\":\"address[]\"}]},{\"internalType\":\"struct REVBuybackHookConfig\",\"name\":\"buybackHookConfiguration\",\"type\":\"tuple\",\"components\":[{\"internalType\":\"contract IJBBuybackHook\",\"name\":\"hook\",\"type\":\"address\"},{\"internalType\":\"struct REVBuybackPoolConfig[]\",\"name\":\"poolConfigurations\",\"type\":\"tuple[]\",\"components\":[{\"internalType\":\"address\",\"name\":\"token\",\"type\":\"address\"},{\"internalType\":\"uint24\",\"name\":\"fee\",\"type\":\"uint24\"},{\"internalType\":\"uint32\",\"name\":\"twapWindow\",\"type\":\"uint32\"},{\"internalType\":\"uint32\",\"name\":\"twapSlippageTolerance\",\"type\":\"uint32\"}]}]},{\"internalType\":\"struct REVSuckerDeploymentConfig\",\"name\":\"suckerDeploymentConfiguration\",\"type\":\"tuple\",\"components\":[{\"internalType\":\"struct BPSuckerDeployerConfig[]\",\"name\":\"deployerConfigurations\",\"type\":\"tuple[]\",\"components\":[{\"internalType\":\"contract IBPSuckerDeployer\",\"name\":\"deployer\",\"type\":\"address\"},{\"internalType\":\"struct BPTokenMapping[]\",\"name\":\"mappings\",\"type\":\"tuple[]\",\"components\":[{\"internalType\":\"address\",\"name\":\"localToken\",\"type\":\"address\"},{\"internalType\":\"uint32\",\"name\":\"minGas\",\"type\":\"uint32\"},{\"internalType\":\"address\",\"name\":\"remoteToken\",\"type\":\"address\"},{\"internalType\":\"uint256\",\"name\":\"minBridgeAmount\",\"type\":\"uint256\"}]}]},{\"internalType\":\"bytes32\",\"name\":\"salt\",\"type\":\"bytes32\"}]}],\"stateMutability\":\"nonpayable\",\"type\":\"function\",\"name\":\"deployRevnetWith\",\"outputs\":[{\"internalType\":\"uint256\",\"name\":\"revnetId\",\"type\":\"uint256\"}]},{\"inputs\":[{\"internalType\":\"uint256\",\"name\":\"revnetId\",\"type\":\"uint256\"},{\"internalType\":\"bytes\",\"name\":\"encodedConfiguration\",\"type\":\"bytes\"},{\"internalType\":\"struct REVSuckerDeploymentConfig\",\"name\":\"suckerDeploymentConfiguration\",\"type\":\"tuple\",\"components\":[{\"internalType\":\"struct BPSuckerDeployerConfig[]\",\"name\":\"deployerConfigurations\",\"type\":\"tuple[]\",\"components\":[{\"internalType\":\"contract IBPSuckerDeployer\",\"name\":\"deployer\",\"type\":\"address\"},{\"internalType\":\"struct BPTokenMapping[]\",\"name\":\"mappings\",\"type\":\"tuple[]\",\"components\":[{\"internalType\":\"address\",\"name\":\"localToken\",\"type\":\"address\"},{\"internalType\":\"uint32\",\"name\":\"minGas\",\"type\":\"uint32\"},{\"internalType\":\"address\",\"name\":\"remoteToken\",\"type\":\"address\"},{\"internalType\":\"uint256\",\"name\":\"minBridgeAmount\",\"type\":\"uint256\"}]}]},{\"internalType\":\"bytes32\",\"name\":\"salt\",\"type\":\"bytes32\"}]}],\"stateMutability\":\"nonpayable\",\"type\":\"function\",\"name\":\"deploySuckersFor\"},{\"inputs\":[{\"internalType\":\"uint256\",\"name\":\"revnetId\",\"type\":\"uint256\"}],\"stateMutability\":\"view\",\"type\":\"function\",\"name\":\"exitDelayOf\",\"outputs\":[{\"internalType\":\"uint256\",\"name\":\"exitDelay\",\"type\":\"uint256\"}]},{\"inputs\":[{\"internalType\":\"uint256\",\"name\":\"revnetId\",\"type\":\"uint256\"},{\"internalType\":\"address\",\"name\":\"addr\",\"type\":\"address\"}],\"stateMutability\":\"view\",\"type\":\"function\",\"name\":\"hasMintPermissionFor\",\"outputs\":[{\"internalType\":\"bool\",\"name\":\"\",\"type\":\"bool\"}]},{\"inputs\":[{\"internalType\":\"address\",\"name\":\"operator\",\"type\":\"address\"},{\"internalType\":\"address\",\"name\":\"from\",\"type\":\"address\"},{\"internalType\":\"uint256\",\"name\":\"tokenId\",\"type\":\"uint256\"},{\"internalType\":\"bytes\",\"name\":\"data\",\"type\":\"bytes\"}],\"stateMutability\":\"view\",\"type\":\"function\",\"name\":\"onERC721Received\",\"outputs\":[{\"internalType\":\"bytes4\",\"name\":\"\",\"type\":\"bytes4\"}]},{\"inputs\":[{\"internalType\":\"uint256\",\"name\":\"revnetId\",\"type\":\"uint256\"}],\"stateMutability\":\"view\",\"type\":\"function\",\"name\":\"payHookSpecificationsOf\",\"outputs\":[{\"internalType\":\"struct JBPayHookSpecification[]\",\"name\":\"\",\"type\":\"tuple[]\",\"components\":[{\"internalType\":\"contract IJBPayHook\",\"name\":\"hook\",\"type\":\"address\"},{\"internalType\":\"uint256\",\"name\":\"amount\",\"type\":\"uint256\"},{\"internalType\":\"bytes\",\"name\":\"metadata\",\"type\":\"bytes\"}]}]},{\"inputs\":[{\"internalType\":\"uint256\",\"name\":\"revnetId\",\"type\":\"uint256\"},{\"internalType\":\"address\",\"name\":\"newSplitOperator\",\"type\":\"address\"}],\"stateMutability\":\"nonpayable\",\"type\":\"function\",\"name\":\"replaceSplitOperatorOf\"},{\"inputs\":[{\"internalType\":\"bytes4\",\"name\":\"interfaceId\",\"type\":\"bytes4\"}],\"stateMutability\":\"view\",\"type\":\"function\",\"name\":\"supportsInterface\",\"outputs\":[{\"internalType\":\"bool\",\"name\":\"\",\"type\":\"bool\"}]}],\"devdoc\":{\"kind\":\"dev\",\"methods\":{\"beforePayRecordedWith((address,address,(address,uint256,uint256,uint256),uint256,uint256,address,uint256,uint256,bytes))\":{\"details\":\"Part of IJBFundingCycleDataSource.This implementation just sets this contract up to receive a `didPay` call.\",\"params\":{\"context\":\"The Juicebox standard network payment context. See\"},\"returns\":{\"hookSpecifications\":\"Amount to be sent to pay hooks instead of adding to local balance. Useful for auto-routing funds from a treasury as payment come in.\",\"weight\":\"The weight that network tokens should get minted relative to. This is useful for optionally customizing how many tokens are issued per payment.\"}},\"constructor\":{\"params\":{\"controller\":\"The controller that revnets are made from.\",\"suckerRegistry\":\"The registry that deploys and tracks each project's suckers.\"}},\"deployRevnetWith(((string,string,string,bytes32),uint32,uint256,uint256,address,(uint40,uint16,uint112,uint40,uint32,uint16)[]),(address,address[])[],(address,(address,uint24,uint32,uint32)[]),((address,(address,uint32,address,uint256)[])[],bytes32))\":{\"params\":{\"buybackHookConfiguration\":\"Data used for setting up the buyback hook to use when determining the best price for new participants.\",\"configuration\":\"The data needed to deploy a basic revnet.\",\"suckerDeploymentConfiguration\":\"Information about how this revnet relates to other's across chains.\",\"terminalConfigurations\":\"The terminals that the network uses to accept payments through.\"},\"returns\":{\"revnetId\":\"The ID of the newly created revnet.\"}},\"deploySuckersFor(uint256,bytes,((address,(address,uint32,address,uint256)[])[],bytes32))\":{\"params\":{\"encodedConfiguration\":\"A bytes representation of the revnet's configuration.\",\"revnetId\":\"The ID of the revnet having new suckers deployed.\",\"suckerDeploymentConfiguration\":\"The specifics about the suckers being deployed.\"}},\"hasMintPermissionFor(uint256,address)\":{\"params\":{\"addr\":\"The address to check if has permissions.\",\"revnetId\":\"The ID of the revnet to check permissions for.\"},\"returns\":{\"_0\":\"flag The flag indicating if the address has permissions to mint on the revnet's behalf.\"}},\"onERC721Received(address,address,uint256,bytes)\":{\"details\":\"Make sure only mints can be received.\"},\"payHookSpecificationsOf(uint256)\":{\"params\":{\"revnetId\":\"The ID of the revnet to which the extensions apply.\"},\"returns\":{\"_0\":\"payHookSpecifications The pay hooks.\"}},\"replaceSplitOperatorOf(uint256,address)\":{\"params\":{\"newSplitOperator\":\"The address of the new split operator.\",\"revnetId\":\"The ID of the revnet having its operator replaced.\"}},\"supportsInterface(bytes4)\":{\"details\":\"See {IERC165-supportsInterface}.\",\"params\":{\"interfaceId\":\"The ID of the interface to check for adherence to.\"},\"returns\":{\"_0\":\"A flag indicating if the provided interface ID is supported.\"}}},\"version\":1},\"userdoc\":{\"kind\":\"user\",\"methods\":{\"CONTROLLER()\":{\"notice\":\"The controller that networks are made from.\"},\"EXIT_DELAY()\":{\"notice\":\"The amount of time from a sucker being deployed to when it can facilitate exits.\"},\"SUCKER_REGISTRY()\":{\"notice\":\"The registry that deploys and tracks each project's suckers.\"},\"beforePayRecordedWith((address,address,(address,uint256,uint256,uint256),uint256,uint256,address,uint256,uint256,bytes))\":{\"notice\":\"This function gets called when the revnet receives a payment.\"},\"beforeRedeemRecordedWith((address,address,uint256,uint256,uint256,uint256,(address,uint256,uint256,uint256),bool,uint256,bytes))\":{\"notice\":\"This function is never called, it needs to be included to adhere to the interface.\"},\"buybackHookOf(uint256)\":{\"notice\":\"The data hook that returns the correct values for the buyback hook of each network.\"},\"deployRevnetWith(((string,string,string,bytes32),uint32,uint256,uint256,address,(uint40,uint16,uint112,uint40,uint32,uint16)[]),(address,address[])[],(address,(address,uint24,uint32,uint32)[]),((address,(address,uint32,address,uint256)[])[],bytes32))\":{\"notice\":\"Deploy a basic revnet.\"},\"deploySuckersFor(uint256,bytes,((address,(address,uint32,address,uint256)[])[],bytes32))\":{\"notice\":\"Allows a revnet's split operator to deploy new suckers to the revnet after it's deployed.\"},\"exitDelayOf(uint256)\":{\"notice\":\"The time at which exits from a revnet become allowed.\"},\"hasMintPermissionFor(uint256,address)\":{\"notice\":\"Required by the IJBRulesetDataHook interfaces.\"},\"payHookSpecificationsOf(uint256)\":{\"notice\":\"The pay hooks to include during payments to networks.\"},\"replaceSplitOperatorOf(uint256,address)\":{\"notice\":\"A revnet's operator can replace itself.\"},\"supportsInterface(bytes4)\":{\"notice\":\"Indicates if this contract adheres to the specified interface.\"}},\"version\":1}},\"settings\":{\"remappings\":[\"@arbitrum/=node_modules/@arbitrum/\",\"@bananapus/=node_modules/@bananapus/\",\"@chainlink/=node_modules/@chainlink/\",\"@croptop/=node_modules/@croptop/\",\"@eth-optimism/=node_modules/@eth-optimism/\",\"@exhausted-pigeon/=node_modules/@exhausted-pigeon/\",\"@gnosis.pm/=node_modules/@gnosis.pm/\",\"@offchainlabs/=node_modules/@offchainlabs/\",\"@openzeppelin/=node_modules/@openzeppelin/\",\"@prb/=node_modules/@prb/\",\"@sphinx-labs/contracts/=node_modules/@sphinx-labs/contracts/contracts/foundry/\",\"@uniswap/=node_modules/@uniswap/\",\"base64-sol/=node_modules/base64-sol/\",\"ds-test/=lib/forge-std/lib/ds-test/src/\",\"forge-std/=lib/forge-std/src/\",\"hardhat/=node_modules/hardhat/\",\"solmate/=node_modules/solmate/\",\"sphinx-forge-std/=node_modules/sphinx-forge-std/\",\"sphinx-solmate/=node_modules/sphinx-solmate/\",\"sphinx/=lib/sphinx/packages/contracts/contracts/forge-std/src/\"],\"optimizer\":{\"enabled\":true,\"runs\":100000000},\"metadata\":{\"bytecodeHash\":\"ipfs\"},\"compilationTarget\":{\"src/REVBasicDeployer.sol\":\"REVBasicDeployer\"},\"evmVersion\":\"paris\",\"libraries\":{}},\"sources\":{\"node_modules/@bananapus/buyback-hook/src/interfaces/IJBBuybackHook.sol\":{\"keccak256\":\"0xbe5d7f3bf2e18b569676ba9194e248e6b1ed50022f5247b4f1fa124c91bfd418\",\"urls\":[\"bzz-raw://eb221d1570e8aad409c419b6a2f84351e818c3527f3f44b806cd64c84d7a8c86\",\"dweb:/ipfs/QmUPZstaKjPN7VTywg3Mt6bF75E53mQbmXhf3TxCggJbRR\"],\"license\":\"MIT\"},\"node_modules/@bananapus/buyback-hook/src/interfaces/external/IWETH9.sol\":{\"keccak256\":\"0x50083bcaca6c1a8d12c79116fab4f6d8cd452a510cb3f00c4a8bc3a54678efb7\",\"urls\":[\"bzz-raw://726f187112d0953c14bff8099a8c9ce1ead47eb25e90839f77b100feaaf16127\",\"dweb:/ipfs/QmTEnMENpLjcTQLMwz4kEUiQHfiTkaZT3TL37nQ8JiRYh5\"],\"license\":\"GPL-2.0-or-later\"},\"node_modules/@bananapus/core/src/enums/JBApprovalStatus.sol\":{\"keccak256\":\"0x61c69b6bac7d24b566d87cda23a77e4ca9cdb87200b106aba8534cb9a0973e33\",\"urls\":[\"bzz-raw://6a9ca7249de76f77a8252eefe6bd1b63d47952f25a2acfa2c8db967cdff4470c\",\"dweb:/ipfs/QmaxSxptRQNj8bNy96EreENmrnRWdKmhyihBcxyWzBX5BN\"],\"license\":\"MIT\"},\"node_modules/@bananapus/core/src/interfaces/IJBControlled.sol\":{\"keccak256\":\"0x79fb8de7b3f809f1c3c7189f578b7331ec4dfe3350151d5b50240ecb3a2a907b\",\"urls\":[\"bzz-raw://45c82240dd4f0e9aec00d0d86f6b44bdda231db098ebdac17e922771b3e6f342\",\"dweb:/ipfs/QmPUvT8HZeVenrZDpP14HsZofaXPJjih8UAd35rTg3tU7E\"],\"license\":\"MIT\"},\"node_modules/@bananapus/core/src/interfaces/IJBController.sol\":{\"keccak256\":\"0xfe88b4ddf528542fde8f8fcc650281f48ca291d5432ec3f02cf8f064ecd79b22\",\"urls\":[\"bzz-raw://f71da06a55abca8cdcc447fd554df2fa2377a276679b2113f2cec8db635d70a4\",\"dweb:/ipfs/QmT3H3aWByCVVAhiB1DrPuG1Scm4GtyXWVcEP1p7GCmVJA\"],\"license\":\"MIT\"},\"node_modules/@bananapus/core/src/interfaces/IJBDirectory.sol\":{\"keccak256\":\"0xd15957cc32974cde4f9f194b92574df2ad8a7aeec049d947136ce3381f9145f6\",\"urls\":[\"bzz-raw://7543e5cbde75ff777b16067016ff9ac5e995752842f03662137eb4ef3fc3c868\",\"dweb:/ipfs/QmPJZAmqNKRcj1JQ4Kc9hExbMtPPzrRB5hZ787utCfBmXg\"],\"license\":\"MIT\"},\"node_modules/@bananapus/core/src/interfaces/IJBDirectoryAccessControl.sol\":{\"keccak256\":\"0x1e67f56849320a46f834aaa9bd62b170ff8ada7b224b4a81136193740fa0be4d\",\"urls\":[\"bzz-raw://ea8fbcec44abfe49d137bcae129b67e5479d6b17879301f88534c8a7fab00be4\",\"dweb:/ipfs/QmT6wrtYX4GRpffHUzupNwYebJ1dqkkKZLEewWsoyunsqw\"],\"license\":\"MIT\"},\"node_modules/@bananapus/core/src/interfaces/IJBFundAccessLimits.sol\":{\"keccak256\":\"0x2a2ece23837bedde2fddb728476e558bc37c644f641d397a8e08e8a1a85ea390\",\"urls\":[\"bzz-raw://f44187b5a720cdbe5af325331a5e351fc8504853836fb54b997c597949246726\",\"dweb:/ipfs/QmSKM2aMpnof458iCeui2Wkf7S8FfBRGs9zF3QG5DJLf7C\"],\"license\":\"MIT\"},\"node_modules/@bananapus/core/src/interfaces/IJBMigratable.sol\":{\"keccak256\":\"0xd69bd5aba01a68d82c303ef3adde47532abcace030a94296c3ea6988b401789c\",\"urls\":[\"bzz-raw://88f11a1c89899327746beba4fc830abf3ac2eb9c152c778e884a6eed6564971f\",\"dweb:/ipfs/QmTpKhSTVewpz7VyKcz6BJwH2LFKMwT7Qi5HNWmjEjwsdK\"],\"license\":\"MIT\"},\"node_modules/@bananapus/core/src/interfaces/IJBPayHook.sol\":{\"keccak256\":\"0xe24aa2ca52f7a5f24f24ccae101cfc94d0f76705b2d23222f87c7852f8be4267\",\"urls\":[\"bzz-raw://6888140e9a7d4156fd22635654d5d08e21819af8b0356b5415f37b75083b3eb9\",\"dweb:/ipfs/QmbuwBNhar7rEbRhTJPiyo5PVsfaM5nqLow9NAkHhyvjV5\"],\"license\":\"MIT\"},\"node_modules/@bananapus/core/src/interfaces/IJBPermissioned.sol\":{\"keccak256\":\"0x5b038d4dee116584e88b230920e56d48e135053e3f7e5642eaea14a775c1dad7\",\"urls\":[\"bzz-raw://19e43102f349fd4a1da1c0943ffb8f2950007fe4bb4bb7e8f74fc142575d091b\",\"dweb:/ipfs/QmXHAt4KzDTdDZgDDefEXH2WKi7NcfkJb9R7nxW5uDqsNp\"],\"license\":\"MIT\"},\"node_modules/@bananapus/core/src/interfaces/IJBPermissions.sol\":{\"keccak256\":\"0x18870e500edf0fbadc353e273a5574701fb80466376b908c65e7cc3f11044d4d\",\"urls\":[\"bzz-raw://352a47c45853aec80e7acf0d286ade3106eb4cb456776b28a3c2f3f1091bed90\",\"dweb:/ipfs/QmQeYd3YbudYZy2hfbfht9kwhxhw4tuuLKMEYy9UY6dcSy\"],\"license\":\"MIT\"},\"node_modules/@bananapus/core/src/interfaces/IJBProjectUriRegistry.sol\":{\"keccak256\":\"0x2799475228987e4f8334ac33d3935f759c9b8133db7383b4f622dde7a5dc0502\",\"urls\":[\"bzz-raw://d751731740f45df74eea48c9667e847ee2cddb2980ab4939c86bd17e6c6ed89b\",\"dweb:/ipfs/QmXW8SLTuhdUpfn7pRpdsYdcyuim8RTyagU37ULcj5UZhT\"],\"license\":\"MIT\"},\"node_modules/@bananapus/core/src/interfaces/IJBProjects.sol\":{\"keccak256\":\"0x85539f72c5871c53a919edc7db78931155464e9e00fccd30079b17e75820ddb9\",\"urls\":[\"bzz-raw://505466dbfbdeec77f948ce065676897a5b4a74b70bb234c1053b893c4849f3a1\",\"dweb:/ipfs/QmYBpZQub3Mv19xsRWqvzgiQSBAp4UNaKcqWQ2wwH62H95\"],\"license\":\"MIT\"},\"node_modules/@bananapus/core/src/interfaces/IJBRedeemHook.sol\":{\"keccak256\":\"0x4ea5b7ed510c9d29aca47ae3f8b41ef075dff4b9909779ec2c0e5b7bc30250c6\",\"urls\":[\"bzz-raw://770b785134ba71e3284dc7e05e44f429e7a8393423ad45cf8fe540408a5b9633\",\"dweb:/ipfs/QmRjXJxZPA1qZos7QjeCxJZ8sCfXfkyDFbzkdqzaqCD9Ds\"],\"license\":\"MIT\"},\"node_modules/@bananapus/core/src/interfaces/IJBRulesetApprovalHook.sol\":{\"keccak256\":\"0x5e9f921a6aa5d9396a12bbc0a878c3f5e8ae0a4ce8a3abe0de12e300718838d7\",\"urls\":[\"bzz-raw://6c9f0610f5bbe07554a1bdc39041be1284c20d81d930bec1eee2d374b86e03f4\",\"dweb:/ipfs/QmPH57wBoPERwDWkBCcj9c5tEUdeeLNe2kv1oFM7cTKVrd\"],\"license\":\"MIT\"},\"node_modules/@bananapus/core/src/interfaces/IJBRulesetDataHook.sol\":{\"keccak256\":\"0x3fea9fcab6f0335e67f0f052cf5d3446e9310808f88b5878d21586be00f89f85\",\"urls\":[\"bzz-raw://5506848f471d308a14523f91202d76d960f8255e227d29d34b0892ef70315cae\",\"dweb:/ipfs/QmakRKFctSZobpem1caU2zXqhiPQnaYVa7Y6NdAPAonHaU\"],\"license\":\"MIT\"},\"node_modules/@bananapus/core/src/interfaces/IJBRulesets.sol\":{\"keccak256\":\"0xda1a9aef337cf9fede3f638ffa58aea2815b87fde0f79628834aa03af9f582d7\",\"urls\":[\"bzz-raw://7941690ba6d94500474978ff0f02ecc56335eae5937759878e25cc1ac30a8ecc\",\"dweb:/ipfs/QmZFc7wof6PzfBTkVyNkjaQrQbjc36CK4uC3Ee2vgihqyK\"],\"license\":\"MIT\"},\"node_modules/@bananapus/core/src/interfaces/IJBSplitHook.sol\":{\"keccak256\":\"0xc99bb76736acc5c6409d1ff54cb90218b547fdf7f8a7c0d03ddb7ac9eb35645e\",\"urls\":[\"bzz-raw://7fa7e56f426a758e6125e58d81137569964e46bdfeaf9ea081b9382d80b536a9\",\"dweb:/ipfs/Qmc1wwfBP4xoGKe4BcDnwL11y3Gvk4Dk8r6qqWD4jbdKK4\"],\"license\":\"MIT\"},\"node_modules/@bananapus/core/src/interfaces/IJBSplits.sol\":{\"keccak256\":\"0x2f415b55c1d7b7fdd9ee938897a8a2b5b1c81d2ab2233d678953ea8ab9b3fb24\",\"urls\":[\"bzz-raw://f7cd02ef943cb49db501b300cbe56d5d62e4ac59caef5c38d697fdbdd21d5f9a\",\"dweb:/ipfs/QmXcxH6gBiBLes2kzSNDvPqVuDZxu1xyDPjfEziARMJhHb\"],\"license\":\"MIT\"},\"node_modules/@bananapus/core/src/interfaces/IJBToken.sol\":{\"keccak256\":\"0x911c93ec0053c1ce3c3a82ddefc8a2911f244b159b1b88fa2a7697b5455d67e0\",\"urls\":[\"bzz-raw://a29b34338ffe4310d6fa012cce351a8db98ad84dac40b6886fcbaa76145eefb2\",\"dweb:/ipfs/QmctiW2p99TaZLGBnavS3gE89p2KFoPfCPPpPvZDXsyMq9\"],\"license\":\"MIT\"},\"node_modules/@bananapus/core/src/interfaces/IJBTokenUriResolver.sol\":{\"keccak256\":\"0xfa5cb00dcd6085d1ef912d071fe73c63f9478a2cd0f9d8bddaf659b6af2d0967\",\"urls\":[\"bzz-raw://282e4e7c342d65f77cde0e9a08fcaf20ef5cf379c7a48b639842c0ffd0b2afb8\",\"dweb:/ipfs/QmbnN3PEQeZaXdPLT75V1J79kMg7KqSMru37RHrL3z8Yf2\"],\"license\":\"MIT\"},\"node_modules/@bananapus/core/src/interfaces/IJBTokens.sol\":{\"keccak256\":\"0xbbb3764d6b9d253f7a2b4e13636bf1d523d72be87b144dea6bbd7177b0953ffe\",\"urls\":[\"bzz-raw://417cdba44cf58c833785ec180918d297fcda2539d8476a978cd7d1d39c4b33d2\",\"dweb:/ipfs/QmSewvgMsjqS2fek8LXc4dNGBKhX6odnyNpzr9UmDX3WXE\"],\"license\":\"MIT\"},\"node_modules/@bananapus/core/src/interfaces/terminal/IJBTerminal.sol\":{\"keccak256\":\"0x36f23bc27e56fa86d100281a75f5a6ce73f39f32e6a1667ce69f902da1d005ee\",\"urls\":[\"bzz-raw://e8ffa2e264fa12444799cb5706ca577034f3f8be9ff7a2f072981de6a61d706d\",\"dweb:/ipfs/QmR6gQDymvk8JQ77J8VxpFD1Hnxga4w7LLiRvAT3m4LG6T\"],\"license\":\"MIT\"},\"node_modules/@bananapus/core/src/libraries/JBConstants.sol\":{\"keccak256\":\"0x9d3a9a953f859d8ec79a599577f8972de6da7199cc1bfa7fdad017d4d722bcb4\",\"urls\":[\"bzz-raw://f151fcb53a8d2684eff8b9e56ac790bcbcadd8199a4fd4d17c5b224b22936722\",\"dweb:/ipfs/QmdAz1ZtCE8nTiC4AxQNLfJhnY3ndGum2Lbef7seKdvTdR\"],\"license\":\"MIT\"},\"node_modules/@bananapus/core/src/libraries/JBSplitGroupIds.sol\":{\"keccak256\":\"0x932ca2645d443f04f86c8ffb27b5c58c4fbdc7b5a145fba1d43f1db9bd488a0f\",\"urls\":[\"bzz-raw://fa412d2c5726a868a258cd518648726b0784ab7ac7566376b82ba09680f66227\",\"dweb:/ipfs/QmZvfjBt7PQzTWNzrhysyHBegUbbu4aY2xDzBGnwqMaqnF\"],\"license\":\"MIT\"},\"node_modules/@bananapus/core/src/structs/JBAccountingContext.sol\":{\"keccak256\":\"0x2907ff54d1e903cc7e0390dd88c3975884702dc2673642aacbe22b66560b56de\",\"urls\":[\"bzz-raw://a66a5381ce877b32f0e0058ceeaf843e9b6b2bc8af666c0c9f4a9d01091da004\",\"dweb:/ipfs/QmQynCetUr37dBkS1YwDS8evxuXGiqanW6THmeUxXtim8w\"],\"license\":\"MIT\"},\"node_modules/@bananapus/core/src/structs/JBAfterPayRecordedContext.sol\":{\"keccak256\":\"0xd26c3a774ff38be79064085970454fe2603a23a638c76270d5b1b3829206c3e8\",\"urls\":[\"bzz-raw://3b55dbe3bf1ef625b7ca04efab3de35406e6041d5b3d82c7265469c500e2b702\",\"dweb:/ipfs/QmUdBDo4Lt3mcsFcsXT2mqq3czFwZjQJFPLM89YA2VtD7k\"],\"license\":\"MIT\"},\"node_modules/@bananapus/core/src/structs/JBAfterRedeemRecordedContext.sol\":{\"keccak256\":\"0x521f5d23a36f0da72362cd84890cc867bd83baa8dc836ba6c5066d51dba2f163\",\"urls\":[\"bzz-raw://6cc461313286dde62d045d6288e87bae5032e035796326f5b1ed6218e58aa9da\",\"dweb:/ipfs/QmQS2AkQwf2ANQieDuaUnpJEdXChoLv4CCbZqHkfywYPSR\"],\"license\":\"MIT\"},\"node_modules/@bananapus/core/src/structs/JBBeforePayRecordedContext.sol\":{\"keccak256\":\"0x5b04e814da83c7e83ff892ab07eaad6abce6f7b85a75f8da9380e9fc3470bc81\",\"urls\":[\"bzz-raw://11c889aab993fce3e3cc2dedc15fc30dd367e7fef9b7b1bfd6a6a9f248781731\",\"dweb:/ipfs/QmVVtydCD1azeWhGLxA1hthxfLyKzMHZ1eVzCz3a3R5dLy\"],\"license\":\"MIT\"},\"node_modules/@bananapus/core/src/structs/JBBeforeRedeemRecordedContext.sol\":{\"keccak256\":\"0x73eadaf6827e82f6ccbe3a1e2b2b7fc6c59cef471f73335041b30ddcc000989d\",\"urls\":[\"bzz-raw://2f3ee84662eed565dbdaed406ef836fffaf55cccd417575578152e5085d0b1f2\",\"dweb:/ipfs/QmaJGFS7hxJsiUdKvbv5BKhSwceDEzKBnt7t5YeNWvYgMK\"],\"license\":\"MIT\"},\"node_modules/@bananapus/core/src/structs/JBCurrencyAmount.sol\":{\"keccak256\":\"0x12fe4b43f4824994624d4fe0abbd88c3fe7867fd637edb65c7f456dab27e2d6e\",\"urls\":[\"bzz-raw://8003a3e8f932cf891e86b827e67c9d31b0d34c2712e18c2bc333cfe5284ba6d5\",\"dweb:/ipfs/QmSoA6RsDcSnNzk6CB7KZtALkHmeSDAi2g6fg3TDmLDkWX\"],\"license\":\"MIT\"},\"node_modules/@bananapus/core/src/structs/JBFundAccessLimitGroup.sol\":{\"keccak256\":\"0x9fdaa8d017b72da25f583700a444a86849df053f7fb8eac874ec5139bcf651e5\",\"urls\":[\"bzz-raw://c8e44c49ee444a98424a0dbeb6897a76a0bf00d88a613f62ac2012afdac754ee\",\"dweb:/ipfs/QmdYkAiRi5bXM1YYNkc7BiqimHSFodMGn1cjHR5hcpm4xH\"],\"license\":\"MIT\"},\"node_modules/@bananapus/core/src/structs/JBPayHookSpecification.sol\":{\"keccak256\":\"0x955f0bfca97300b9e5927dc181753830ee362f83fa9ca32a90daade32aa0cfd5\",\"urls\":[\"bzz-raw://f517af1597c7c40f8d3da53f7a6684a3e162950a16559d6bf6ea3b727bb11546\",\"dweb:/ipfs/QmRWo2ZTYXmVZTzNJDYhsJNsEaHphjpUfx9eNz2cciyz86\"],\"license\":\"MIT\"},\"node_modules/@bananapus/core/src/structs/JBPermissionsData.sol\":{\"keccak256\":\"0x8f0f69a6ebf5f3704e3dfcb3712fb9d3f94ae7c1ab89bf3e37bad42a3e7a0487\",\"urls\":[\"bzz-raw://57b0c5e52843e2217082889ed47b4da3943e0da4590d5768dcebfe3edad4a6b8\",\"dweb:/ipfs/QmRz48vuWLw81kUP836rh1qzqWiJFGbksgRUA9xGEDNKTY\"],\"license\":\"MIT\"},\"node_modules/@bananapus/core/src/structs/JBRedeemHookSpecification.sol\":{\"keccak256\":\"0x673d16ee1a91bf8de3b37e57284e60451b70a9c2d748c9cdc7a151f5624af18f\",\"urls\":[\"bzz-raw://ceeb5e81effa0f076c5630c756dfcf1548d09f822b255a0a6ee01e54de8c8ae2\",\"dweb:/ipfs/QmSMoMNPRhPMnuJNvWa6S59XRfycGz9o2ApNp63bUW6TdX\"],\"license\":\"MIT\"},\"node_modules/@bananapus/core/src/structs/JBRuleset.sol\":{\"keccak256\":\"0x15b2bf3174d84846a91ccbf5a344dfb125b55ed9cf50102db8d6868844225189\",\"urls\":[\"bzz-raw://647416b025dbd941094db89cbc69f755c155bd6c87be3f322394ccc4a8e0442d\",\"dweb:/ipfs/QmTCL9xcHnxQ4t5AmCPoZvXDUPW5xhzhyyXYbkMdyg44au\"],\"license\":\"MIT\"},\"node_modules/@bananapus/core/src/structs/JBRulesetConfig.sol\":{\"keccak256\":\"0x344405b459a345fa2cb072b162422b4e85e435ff6ee82eb2c382bf52db929f10\",\"urls\":[\"bzz-raw://e067a0c3fd190cd00177800f8f065264985d4f6737a758f068a8bf5ed1cfdad0\",\"dweb:/ipfs/QmPAMiyfi1cDtandkMSXgoNdo3WLvwmvdcPGeKiot9TTaz\"],\"license\":\"MIT\"},\"node_modules/@bananapus/core/src/structs/JBRulesetMetadata.sol\":{\"keccak256\":\"0xfea54c9f98416d2aa05309e7ff76967d6968a614850a1e33e48fde793ea8b514\",\"urls\":[\"bzz-raw://bf55386cbab90dbc1296b2b0cbfdc217a4500d67702e4a093a4c78bd127ecd5c\",\"dweb:/ipfs/QmTRq9mZrNSXu7oCZwti4JbBFrbY6A5msRqi9RbtL49NAj\"],\"license\":\"MIT\"},\"node_modules/@bananapus/core/src/structs/JBRulesetWithMetadata.sol\":{\"keccak256\":\"0x1bcfadf20488f6df65227f8d4d0fbf9b7539456a2389567f7fe3900d23289bc3\",\"urls\":[\"bzz-raw://0a15c399a71e5373f8c0484c6d6b83521eda31e063a2c53e4c5cec4e74550343\",\"dweb:/ipfs/QmQwi8zkjoTVXbK89NeETYimWCacTrNsesJdpLSvGdqMPX\"],\"license\":\"MIT\"},\"node_modules/@bananapus/core/src/structs/JBSplit.sol\":{\"keccak256\":\"0x1d40fa4f1c911a53b9139f3d44d27cb58fa5c5d2cd793c7a21ccf52b9e61f848\",\"urls\":[\"bzz-raw://9897d2c29fc65fe16e4eac0b7b8b6fd8ef0b0cc501986f7f0c3a78c4ec1dbb60\",\"dweb:/ipfs/QmXcHoVjCYWWCz4hm2KZ6JxtB4YNq7jmXa2evLkga59Xwq\"],\"license\":\"MIT\"},\"node_modules/@bananapus/core/src/structs/JBSplitGroup.sol\":{\"keccak256\":\"0xda7da6e88aac2906c7ea4027660088daf217edc632bebca4d72795aae8921564\",\"urls\":[\"bzz-raw://ae1939d17e94cb51484f31ce64cf0df990445a338fb9b38d39a7baf28275ae4a\",\"dweb:/ipfs/QmUhPnJiWnYhFdtLvZnrPopAdbYXxETpGjvxjPDignpTGY\"],\"license\":\"MIT\"},\"node_modules/@bananapus/core/src/structs/JBSplitHookContext.sol\":{\"keccak256\":\"0xfe34e6860b00ca93d71f44e72882281b2c57c31303151af05795c74cfdd2e51d\",\"urls\":[\"bzz-raw://08acab094888e9c929b6f6f972d89ddbb31e5867675e7e7c602d25fcb2c0f402\",\"dweb:/ipfs/QmPNdXM185cTyXQSodVr4JMviHx88jrWu7dipgkp9xTNgJ\"],\"license\":\"MIT\"},\"node_modules/@bananapus/core/src/structs/JBTerminalConfig.sol\":{\"keccak256\":\"0x141b5d45c0b58dcddb1eeab34ec00c18c60415f8e594d1852c53e6f79dfe53ee\",\"urls\":[\"bzz-raw://ca995ea354eac6f5ebc8ef4fd5c8ece8c88698bac96da65c7aaa497a7bc0f582\",\"dweb:/ipfs/Qmf2BS1LHXtoQJuUYt4UisvYpA5dmieSq1gs51iQjNh2bw\"],\"license\":\"MIT\"},\"node_modules/@bananapus/core/src/structs/JBTokenAmount.sol\":{\"keccak256\":\"0x5cf0626b73a596c1e2da17c89ae039a7c0374310b060d48568d3b6c11fbe6180\",\"urls\":[\"bzz-raw://63348b50be95e2995409394a17caffc563a646f0972650a1230bf864fbd3219b\",\"dweb:/ipfs/QmZXZpS3SbFD5nWaCauf6AqbEhLURv5qsKHpThBvQgDU6u\"],\"license\":\"MIT\"},\"node_modules/@bananapus/permission-ids/src/JBPermissionIds.sol\":{\"keccak256\":\"0xa21681d89f2cf9265a10e6fa63301658ccc62635058cd3c8307aaaec1a045ff3\",\"urls\":[\"bzz-raw://0c825382afb76e79feb81425991637d50d1f1fc4ccaa12953f1e1042853db8d3\",\"dweb:/ipfs/QmPAsLuTziQx8R5PzYrLYDKybc6Ykq8fwG46ofRxQwdjgn\"],\"license\":\"UNLICENSED\"},\"node_modules/@bananapus/suckers/src/interfaces/IBPSucker.sol\":{\"keccak256\":\"0xb0ce4e44f966d43f7ded2b59b98fc96a2a71522f44d06245882d2bbd89ff32d9\",\"urls\":[\"bzz-raw://290f1f3630d3749fc88f84944a2fd3a785bcb44a892844de1d0e1078829c7149\",\"dweb:/ipfs/QmcKDnSDxmkkex1Tr9t3ZU7SKNXXK2EtNowu3FZZYH9hZL\"],\"license\":\"MIT\"},\"node_modules/@bananapus/suckers/src/interfaces/IBPSuckerDeployer.sol\":{\"keccak256\":\"0xe252e890c4b5e12d5fa537a11cd2fad936f41be80240301ace8afca3de481222\",\"urls\":[\"bzz-raw://730855964dd0629f3d514ed52f59d80d02786733c3b8b5cf21e69524de7f8829\",\"dweb:/ipfs/QmUuoYEmnzUNn3hANGrg8sDZdjoaEbgWMWLepsSQt9MUyw\"],\"license\":\"MIT\"},\"node_modules/@bananapus/suckers/src/interfaces/IBPSuckerRegistry.sol\":{\"keccak256\":\"0xd6c68475ca7163782ebd2aacc2c9330def7e903c7b58d4990b0851551ec5cfe1\",\"urls\":[\"bzz-raw://776732725d15803f813cf727d5f1b0cf44b414df0611cbdbd821d4d993b184b9\",\"dweb:/ipfs/QmbgZF9KmcLZ6KAZwfuhP9ve7ukeJa2DdZxiVV6dMxzYK6\"],\"license\":\"UNLICENSED\"},\"node_modules/@bananapus/suckers/src/structs/BPSuckerDeployerConfig.sol\":{\"keccak256\":\"0x867e10bc73a07ab19cf5511d047dc885e3cfae58fc5f3441f6a5d3174afe6b78\",\"urls\":[\"bzz-raw://b8c3e72e57958bb2e2b8072ac6055804598c080a748fbc2f40a783575435809e\",\"dweb:/ipfs/QmbY7W6i5qAAj42EsQX8yt8M8nXArXByEGosnHWyxs4BE7\"],\"license\":\"MIT\"},\"node_modules/@bananapus/suckers/src/structs/BPTokenMapping.sol\":{\"keccak256\":\"0x84865bda925cdc9a608cbbfc487619acba391f98ae12bbbfdbc5779d617a17d9\",\"urls\":[\"bzz-raw://3bbc1fdd38feaf64fd4914bddb62cda7e5b8ee0f046a0eac8cfcb15f9493bcc5\",\"dweb:/ipfs/QmXgAx7sr1M8r71YrSeQJGAB1uhvdxpQyS633UgJvLCQfb\"],\"license\":\"MIT\"},\"node_modules/@openzeppelin/contracts/token/ERC20/IERC20.sol\":{\"keccak256\":\"0xc6a8ff0ea489379b61faa647490411b80102578440ab9d84e9a957cc12164e70\",\"urls\":[\"bzz-raw://0ea104e577e63faea3b69c415637e99e755dcbf64c5833d7140c35a714d6d90c\",\"dweb:/ipfs/Qmau6x4Ns9XdyynRCNNp3RhLqijJjFm7z5fyZazfYFGYdq\"],\"license\":\"MIT\"},\"node_modules/@openzeppelin/contracts/token/ERC721/IERC721.sol\":{\"keccak256\":\"0x5ef46daa3b58ef2702279d514780316efaa952915ee1aa3396f041ee2982b0b4\",\"urls\":[\"bzz-raw://2f8f2a76e23b02fc69e8cd24c3cb47da6c7af3a2d6c3a382f8ac25c6e094ade7\",\"dweb:/ipfs/QmPV4ZS4tPVv4mTCf9ejyZ1ai57EEibDRj7mN2ARDCLV5n\"],\"license\":\"MIT\"},\"node_modules/@openzeppelin/contracts/token/ERC721/IERC721Receiver.sol\":{\"keccak256\":\"0x7f7a26306c79a65fb8b3b6c757cd74660c532cd8a02e165488e30027dd34ca49\",\"urls\":[\"bzz-raw://d01e0b2b837ee2f628545e54d8715b49c7ef2befd08356c2e7f6c50dde8a1c22\",\"dweb:/ipfs/QmWBAn6y2D1xgftci97Z3qR9tQnkvwQpYwFwkTvDMvqU4i\"],\"license\":\"MIT\"},\"node_modules/@openzeppelin/contracts/utils/introspection/ERC165.sol\":{\"keccak256\":\"0x9e8778b14317ba9e256c30a76fd6c32b960af621987f56069e1e819c77c6a133\",\"urls\":[\"bzz-raw://1777404f1dcd0fac188e55a288724ec3c67b45288e49cc64723e95e702b49ab8\",\"dweb:/ipfs/QmZFdC626GButBApwDUvvTnUzdinevC3B24d7yyh57XkiA\"],\"license\":\"MIT\"},\"node_modules/@openzeppelin/contracts/utils/introspection/IERC165.sol\":{\"keccak256\":\"0x4296879f55019b23e135000eb36896057e7101fb7fb859c5ef690cf14643757b\",\"urls\":[\"bzz-raw://87b3541437c8c443ccd36795e56a338ed12855eec17f8da624511b8d1a7e14df\",\"dweb:/ipfs/QmeJQCtZrQjtJLr6u7ZHWeH3pBnjtLWzvRrKViAi7UZqxL\"],\"license\":\"MIT\"},\"node_modules/@uniswap/v3-core/contracts/interfaces/IUniswapV3Pool.sol\":{\"keccak256\":\"0x4e64844c56061cd90e0a80de73534a9166704c43eed579eb83f90bc2780ce968\",\"urls\":[\"bzz-raw://cba4fab5cebdddf644b901994a7f0f52b98885d4c56012f4dc51d52c2bf9de0e\",\"dweb:/ipfs/QmVyyrRmqXrAiapewWunRVgiPVFJHpH2hKiE1py1svMSNV\"],\"license\":\"GPL-2.0-or-later\"},\"node_modules/@uniswap/v3-core/contracts/interfaces/callback/IUniswapV3SwapCallback.sol\":{\"keccak256\":\"0x3f485fb1a44e8fbeadefb5da07d66edab3cfe809f0ac4074b1e54e3eb3c4cf69\",\"urls\":[\"bzz-raw://095ce0626b41318c772b3ebf19d548282607f6a8f3d6c41c13edfbd5370c8652\",\"dweb:/ipfs/QmVDZfJJ89UUCE1hMyzqpkZAtQ8jUsBgZNE5AMRG7RzRFS\"],\"license\":\"GPL-2.0-or-later\"},\"node_modules/@uniswap/v3-core/contracts/interfaces/pool/IUniswapV3PoolActions.sol\":{\"keccak256\":\"0x9453dd0e7442188667d01d9b65de3f1e14e9511ff3e303179a15f6fc267f7634\",\"urls\":[\"bzz-raw://982f4328f956c3e60e67501e759eb292ac487f76460c774c50e9ae4fcc92aae5\",\"dweb:/ipfs/QmRnzEDsaqtd9PJEVcgQi7p5aV5pMSvRUoGZJAdwFUJxgZ\"],\"license\":\"GPL-2.0-or-later\"},\"node_modules/@uniswap/v3-core/contracts/interfaces/pool/IUniswapV3PoolDerivedState.sol\":{\"keccak256\":\"0xe603ac5b17ecdee73ba2b27efdf386c257a19c14206e87eee77e2017b742d9e5\",\"urls\":[\"bzz-raw://8febc9bdb399a4d94bb89f5377732652e2400e4a8dee808201ade6848f9004e7\",\"dweb:/ipfs/QmaKDqYYFU4d2W2iN77aDHptfbFmYZRrMYXHeGpJmM8C1c\"],\"license\":\"GPL-2.0-or-later\"},\"node_modules/@uniswap/v3-core/contracts/interfaces/pool/IUniswapV3PoolErrors.sol\":{\"keccak256\":\"0xf80abf13fb1fafc127ba4e792f240dd8ea7c8c893978cdfd8439c27fae9a037b\",\"urls\":[\"bzz-raw://b04fc72a656bbf3631e9c2e67b9870a2d9d235185e833fe050e9606e6816a9aa\",\"dweb:/ipfs/QmUcz4bkEkJ9pwzFu1C3n97hBQ3st9U6qTAqCdyFwddKco\"],\"license\":\"GPL-2.0-or-later\"},\"node_modules/@uniswap/v3-core/contracts/interfaces/pool/IUniswapV3PoolEvents.sol\":{\"keccak256\":\"0x8071514d0fe5d17d6fbd31c191cdfb703031c24e0ece3621d88ab10e871375cd\",\"urls\":[\"bzz-raw://d0b571930cc7488b1d546a7e9cea7c52d8b3c4e207da657ed0e0db7343b8cd03\",\"dweb:/ipfs/QmaGK6vVwB95QSTR1XMYvrh7ivYAYZxi3fD7v6VMA4jZ39\"],\"license\":\"GPL-2.0-or-later\"},\"node_modules/@uniswap/v3-core/contracts/interfaces/pool/IUniswapV3PoolImmutables.sol\":{\"keccak256\":\"0xf6e5d2cd1139c4c276bdbc8e1d2b256e456c866a91f1b868da265c6d2685c3f7\",\"urls\":[\"bzz-raw://b99c8c9ae8e27ee6559e5866bea82cbc9ffc8247f8d15b7422a4deb287d4d047\",\"dweb:/ipfs/QmfL8gaqt3ffAnm6nVj5ksuNpLygXuL3xq5VBqrkwC2JJ3\"],\"license\":\"GPL-2.0-or-later\"},\"node_modules/@uniswap/v3-core/contracts/interfaces/pool/IUniswapV3PoolOwnerActions.sol\":{\"keccak256\":\"0x759b78a2918af9e99e246dc3af084f654e48ef32bb4e4cb8a966aa3dcaece235\",\"urls\":[\"bzz-raw://64144fb96e1c7fdba87305acadb98a198d26a3d46c097cb3a666e567f6f29735\",\"dweb:/ipfs/QmUnWVwN9FKB9uV5Pr8YfLpWZnYM2DENnRMaadZ492JS9u\"],\"license\":\"GPL-2.0-or-later\"},\"node_modules/@uniswap/v3-core/contracts/interfaces/pool/IUniswapV3PoolState.sol\":{\"keccak256\":\"0x44fa2ce1182f6c2f6bead3d1737804bf7e112252ae86e0f2e92f9b8249603f43\",\"urls\":[\"bzz-raw://54154e8665b98d65f5dc91b256551852cb47882180b501b260657122d207c0ea\",\"dweb:/ipfs/QmcfemK1A2PXYrWB5SBFGERpMCderbFRb8BtTzQDj1sUBp\"],\"license\":\"GPL-2.0-or-later\"},\"src/REVBasicDeployer.sol\":{\"keccak256\":\"0x98154a3c70cf351cbeef71d192d0ac066c276535c183d7f2dc80bc48cc1d78f5\",\"urls\":[\"bzz-raw://2fb8b56bd8a3c55744062fd2c74e8cb456d33ab3834b98dd34301268fca1e928\",\"dweb:/ipfs/QmW8NvJZUHb8Y7KEZR3LzKWuQz7nDjeTRr24yqFCkQS1KE\"],\"license\":\"MIT\"},\"src/interfaces/IREVBasicDeployer.sol\":{\"keccak256\":\"0x43701894baa76bdad398d3ed18741dbb8f1a978142afee9999994ddb7348d814\",\"urls\":[\"bzz-raw://51ebf0a3be5fb5edea9fd089ff438d72368b1b5703b18bdb141d1c0c0f09b343\",\"dweb:/ipfs/QmQz8UfS4U9gakxgMenQCsnZ1D5Q39wZGpjA6MUn6JQtxG\"],\"license\":null},\"src/structs/REVBuybackHookConfig.sol\":{\"keccak256\":\"0xdae5ecff2ff2a04c0aab17093f023b2161994dc0e6e2adc5006d36d157eb09aa\",\"urls\":[\"bzz-raw://5e0eed08e652290f59c0d18565df21be3fc7b33ca3fa41c393461472479e4a7f\",\"dweb:/ipfs/QmfZcbmdvYDQwEE4eesGpcxdojAm9BhJ81fdkxjX9LU9Sa\"],\"license\":\"MIT\"},\"src/structs/REVBuybackPoolConfig.sol\":{\"keccak256\":\"0x83f2a3875a8b1955856b72bfddd90c0cc2fbe26697f1dd4e13b33c0319049a14\",\"urls\":[\"bzz-raw://e1e37d0eb626221b6a8774a155a3799dc5cf0b497d26263ef323ed768d61a0dc\",\"dweb:/ipfs/QmcSPDAaPemjh3a1XycV4qDMJwctnuwiKe3wXrRUjotKAB\"],\"license\":\"MIT\"},\"src/structs/REVConfig.sol\":{\"keccak256\":\"0x5b53b84ea0fc0e3f2dca7b13b09d3792a11b3960155d00a1741e750b1cbb2781\",\"urls\":[\"bzz-raw://a35f79a509999bb383bf2086da5df35b9cce76af91e3b3633c022b0cceee789a\",\"dweb:/ipfs/QmXTUQHGfmmFABnqwLcRo88FyuM7TZh9pswdotUeHYMrGH\"],\"license\":\"MIT\"},\"src/structs/REVDescription.sol\":{\"keccak256\":\"0x40bebc53d50dbfb261882f51c7667d7263193e8fc48897b9384c2ca259046c1b\",\"urls\":[\"bzz-raw://24f98bc7ef12f53afa326a266c69683e24501405f72566b7ca7e8dad242e1fe1\",\"dweb:/ipfs/QmNkLsCwhx5pTuMmJLwUNJdPrGjEi3H9JnTX2s9GsoUTAa\"],\"license\":\"MIT\"},\"src/structs/REVStageConfig.sol\":{\"keccak256\":\"0x0356af8b2ac6ae9b2e23562d638a4903d707350a365d90bfd468b8d4f98c41b5\",\"urls\":[\"bzz-raw://85d7712485745986f7d5caa059a80563bad151dadf67eb4752f2f272cbf46a1e\",\"dweb:/ipfs/QmRhbgEfGfvbZAs1hp4cbwpi2aeLzfZTrfpDGCoey7xiCs\"],\"license\":\"MIT\"},\"src/structs/REVSuckerDeploymentConfig.sol\":{\"keccak256\":\"0xed607665da0efa1a1662a7e094095f336bef2d6694f79e5d8158cacf73c34dac\",\"urls\":[\"bzz-raw://c8c68b67a28a7dfc060596cfb98b7fc05ad0c9b61482f60a04810bc68cc0b8e3\",\"dweb:/ipfs/QmeLH5z8J6DDjRQXfJi4BoMmQqY4zTjERYfSzu8Uypkawp\"],\"license\":\"MIT\"}},\"version\":1}",
			"args": [
				"0x698d26DF9F8d5CF0Fd359D26aDD623602a2bC355",
				"0x5c94828C12604A92f39C6974f4cD964a702B81Dc"
			],
			"bytecode": "0x60c06040523480156200001157600080fd5b5060405162004796380380620047968339810160408190526200003491620000b6565b6001600160a01b039182166080521660a0526002805460018181018355600083905260127f405787fa12a823e0f2b7631cc41b3ba8828b3321ca811111fa75cd3aa3bb5ace928301558254808201845560199083015582549081019092556007910155620000f5565b6001600160a01b0381168114620000b357600080fd5b50565b60008060408385031215620000ca57600080fd5b8251620000d7816200009d565b6020840151909250620000ea816200009d565b809150509250929050565b60805160a05161460b6200018b6000396000818161027d0152818161098b01528181610ac601528181610e5c01528181611b1a0152611bb90152600081816102cc015281816103a501528181610c1a01528181610f3e015281816110f1015281816112cd0152818161151e0152818161166f01528181611714015281816117b00152818161194b0152611a64015261460b6000f3fe608060405234801561001057600080fd5b50600436106100ea5760003560e01c80637249a7731161008c578063b5d2553311610066578063b5d2553314610278578063bb1994021461029f578063eb5ad9d9146102b4578063ee0fc121146102c757600080fd5b80637249a773146101f05780639d82ba251461024b578063aaf320d71461025557600080fd5b806343681e15116100c857806343681e151461017c5780634c4ffc711461019c5780635c0a7cee146101bd578063677ce088146101dd57600080fd5b806301ffc9a7146100ef57806302ccf9a114610117578063150b7a0214610138575b600080fd5b6101026100fd36600461252f565b6102ee565b60405190151581526020015b60405180910390f35b61012a610125366004612d9e565b610387565b60405190815260200161010e565b61014b610146366004612ed3565b6103a1565b6040517fffffffff00000000000000000000000000000000000000000000000000000000909116815260200161010e565b61012a61018a366004612f72565b60016020526000908152604090205481565b6101af6101aa366004612f8b565b6104b5565b60405161010e9291906130d4565b6101d06101cb366004612f72565b6107f1565b60405161010e91906130f5565b6101026101eb366004613108565b610922565b6102266101fe366004612f72565b60006020819052908152604090205473ffffffffffffffffffffffffffffffffffffffff1681565b60405173ffffffffffffffffffffffffffffffffffffffff909116815260200161010e565b61012a6276a70081565b610268610263366004613138565b610aa9565b60405161010e9493929190613174565b6102267f000000000000000000000000000000000000000000000000000000000000000081565b6102b26102ad36600461323f565b610c18565b005b6102b26102c2366004613108565b610f3c565b6102267f000000000000000000000000000000000000000000000000000000000000000081565b60007fffffffff0000000000000000000000000000000000000000000000000000000082167f81c03c2e00000000000000000000000000000000000000000000000000000000148061038157507f01ffc9a7000000000000000000000000000000000000000000000000000000007fffffffff000000000000000000000000000000000000000000000000000000008316145b92915050565b600061039885858530600087611505565b95945050505050565b60007f000000000000000000000000000000000000000000000000000000000000000073ffffffffffffffffffffffffffffffffffffffff1663293c49996040518163ffffffff1660e01b8152600401602060405180830381865afa15801561040e573d6000803e3d6000fd5b505050506040513d601f19601f8201168201806040525081019061043291906132c3565b73ffffffffffffffffffffffffffffffffffffffff163373ffffffffffffffffffffffffffffffffffffffff161461046957600080fd5b73ffffffffffffffffffffffffffffffffffffffff85161561048a57600080fd5b507f150b7a020000000000000000000000000000000000000000000000000000000095945050505050565b60c0810135600090815260208190526040812054606090819073ffffffffffffffffffffffffffffffffffffffff1680156105a5576040517f4c4ffc7100000000000000000000000000000000000000000000000000000000815273ffffffffffffffffffffffffffffffffffffffff821690634c4ffc719061053c9088906004016133d6565b600060405180830381865afa158015610559573d6000803e3d6000fd5b505050506040513d6000823e601f3d9081017fffffffffffffffffffffffffffffffffffffffffffffffffffffffffffffffe016820160405261059f91908101906134c5565b90945091505b815160c086013560009081526003602090815260408083208054825181850281018501909352808352941515949192909190849084015b828210156106cd5760008481526020908190206040805160608101825260038602909201805473ffffffffffffffffffffffffffffffffffffffff1683526001810154938301939093526002830180549293929184019161063c9061362b565b80601f01602080910402602001604051908101604052809291908181526020018280546106689061362b565b80156106b55780601f1061068a576101008083540402835291602001916106b5565b820191906000526020600020905b81548152906001019060200180831161069857829003601f168201915b505050505081525050815260200190600101906105dc565b505050509050600081519050826106e55760006106e8565b60015b6106f59060ff16826136ad565b67ffffffffffffffff81111561070d5761070d612578565b60405190808252806020026020018201604052801561075a57816020015b6040805160608082018352600080835260208301529181019190915281526020019060019003908161072b5790505b50955060005b818110156107a75782818151811061077a5761077a6136c0565b6020026020010151878281518110610794576107946136c0565b6020908102919091010152600101610760565b5082156107e757846000815181106107c1576107c16136c0565b60200260200101518682815181106107db576107db6136c0565b60200260200101819052505b5050505050915091565b606060036000838152602001908152602001600020805480602002602001604051908101604052809291908181526020016000905b828210156109175760008481526020908190206040805160608101825260038602909201805473ffffffffffffffffffffffffffffffffffffffff168352600181015493830193909352600283018054929392918401916108869061362b565b80601f01602080910402602001604051908101604052809291908181526020018280546108b29061362b565b80156108ff5780601f106108d4576101008083540402835291602001916108ff565b820191906000526020600020905b8154815290600101906020018083116108e257829003601f168201915b50505050508152505081526020019060010190610826565b505050509050919050565b60008281526020819052604081205473ffffffffffffffffffffffffffffffffffffffff9081169083160361095957506001610381565b6040517f3d12cb87000000000000000000000000000000000000000000000000000000008152600481018490526000907f000000000000000000000000000000000000000000000000000000000000000073ffffffffffffffffffffffffffffffffffffffff1690633d12cb8790602401600060405180830381865afa1580156109e7573d6000803e3d6000fd5b505050506040513d6000823e601f3d9081017fffffffffffffffffffffffffffffffffffffffffffffffffffffffffffffffe0168201604052610a2d91908101906136ef565b805190915060005b81811015610a9d57828181518110610a4f57610a4f6136c0565b602002602001015173ffffffffffffffffffffffffffffffffffffffff168573ffffffffffffffffffffffffffffffffffffffff1603610a955760019350505050610381565b600101610a35565b50600095945050505050565b60008080606073ffffffffffffffffffffffffffffffffffffffff7f0000000000000000000000000000000000000000000000000000000000000000166383db9d0160408701803590610aff9060208a01613789565b6040517fffffffff0000000000000000000000000000000000000000000000000000000060e085901b168152600481019290925273ffffffffffffffffffffffffffffffffffffffff166024820152604401602060405180830381865afa158015610b6e573d6000803e3d6000fd5b505050506040513d601f19601f82011682018060405250810190610b9291906137a6565b15610baf5761271085608001358660a00135935093509350610c11565b604080860135600090815260016020522054421015610bfa576040517f04c3b3cd00000000000000000000000000000000000000000000000000000000815260040160405180910390fd5b84610160013585608001358660a001359350935093505b9193509193565b7f000000000000000000000000000000000000000000000000000000000000000073ffffffffffffffffffffffffffffffffffffffff16631f47ce696040518163ffffffff1660e01b8152600401602060405180830381865afa158015610c83573d6000803e3d6000fd5b505050506040513d601f19601f82011682018060405250810190610ca791906132c3565b73ffffffffffffffffffffffffffffffffffffffff1663f434c9146040518163ffffffff1660e01b8152600401602060405180830381865afa158015610cf1573d6000803e3d6000fd5b505050506040513d601f19601f82011682018060405250810190610d1591906132c3565b73ffffffffffffffffffffffffffffffffffffffff16630f5932f033308660026040518563ffffffff1660e01b8152600401610d5494939291906137c8565b602060405180830381865afa158015610d71573d6000803e3d6000fd5b505050506040513d601f19601f82011682018060405250810190610d9591906137a6565b610dcb576040517f31fb21f300000000000000000000000000000000000000000000000000000000815260040160405180910390fd5b600033838360200151604051602001610de693929190613846565b604080517fffffffffffffffffffffffffffffffffffffffffffffffffffffffffffffffe081840301815290829052805160209091012083517f2f3f50e000000000000000000000000000000000000000000000000000000000835290925073ffffffffffffffffffffffffffffffffffffffff7f00000000000000000000000000000000000000000000000000000000000000001691632f3f50e091610e93918891869160040161398e565b6000604051808303816000875af1158015610eb2573d6000803e3d6000fd5b505050506040513d6000823e601f3d9081017fffffffffffffffffffffffffffffffffffffffffffffffffffffffffffffffe0168201604052610ef891908101906136ef565b5080847f755ecfca2f6e66af8868551556bf7931740a7062db8e0882f4c322fdb0bb3f60858533604051610f2e939291906139d6565b60405180910390a350505050565b7f000000000000000000000000000000000000000000000000000000000000000073ffffffffffffffffffffffffffffffffffffffff16631f47ce696040518163ffffffff1660e01b8152600401602060405180830381865afa158015610fa7573d6000803e3d6000fd5b505050506040513d601f19601f82011682018060405250810190610fcb91906132c3565b73ffffffffffffffffffffffffffffffffffffffff1663f434c9146040518163ffffffff1660e01b8152600401602060405180830381865afa158015611015573d6000803e3d6000fd5b505050506040513d601f19601f8201168201806040525081019061103991906132c3565b73ffffffffffffffffffffffffffffffffffffffff16630f5932f033308560026040518563ffffffff1660e01b815260040161107894939291906137c8565b602060405180830381865afa158015611095573d6000803e3d6000fd5b505050506040513d601f19601f820116820180604052508101906110b991906137a6565b6110ef576040517f31fb21f300000000000000000000000000000000000000000000000000000000815260040160405180910390fd5b7f000000000000000000000000000000000000000000000000000000000000000073ffffffffffffffffffffffffffffffffffffffff16631f47ce696040518163ffffffff1660e01b8152600401602060405180830381865afa15801561115a573d6000803e3d6000fd5b505050506040513d601f19601f8201168201806040525081019061117e91906132c3565b73ffffffffffffffffffffffffffffffffffffffff1663f434c9146040518163ffffffff1660e01b8152600401602060405180830381865afa1580156111c8573d6000803e3d6000fd5b505050506040513d601f19601f820116820180604052508101906111ec91906132c3565b73ffffffffffffffffffffffffffffffffffffffff166305d2912e3060405180606001604052803373ffffffffffffffffffffffffffffffffffffffff168152602001868152602001600067ffffffffffffffff81111561124f5761124f612578565b604051908082528060200260200182016040528015611278578160200160208202803683370190505b508152506040518363ffffffff1660e01b8152600401611299929190613a22565b600060405180830381600087803b1580156112b357600080fd5b505af11580156112c7573d6000803e3d6000fd5b505050507f000000000000000000000000000000000000000000000000000000000000000073ffffffffffffffffffffffffffffffffffffffff16631f47ce696040518163ffffffff1660e01b8152600401602060405180830381865afa158015611336573d6000803e3d6000fd5b505050506040513d601f19601f8201168201806040525081019061135a91906132c3565b73ffffffffffffffffffffffffffffffffffffffff1663f434c9146040518163ffffffff1660e01b8152600401602060405180830381865afa1580156113a4573d6000803e3d6000fd5b505050506040513d601f19601f820116820180604052508101906113c891906132c3565b73ffffffffffffffffffffffffffffffffffffffff166305d2912e3060405180606001604052808573ffffffffffffffffffffffffffffffffffffffff168152602001868152602001600280548060200260200160405190810160405280929190818152602001828054801561145d57602002820191906000526020600020905b815481526020019060010190808311611449575b50505050508152506040518363ffffffff1660e01b8152600401611482929190613a22565b600060405180830381600087803b15801561149c57600080fd5b505af11580156114b0573d6000803e3d6000fd5b505060405133815273ffffffffffffffffffffffffffffffffffffffff841692508491507f0329d6a81434b130c72eb65eea0e32e429dc1277b4aad86ec86454aefb6184519060200160405180910390a35050565b6000806000806115168a8888611d37565b9250925092507f000000000000000000000000000000000000000000000000000000000000000073ffffffffffffffffffffffffffffffffffffffff16630634bae9308c6000015160400151868d8f600001516020015160405160200161157d9190613aaf565b6040516020818303038152906040526040518663ffffffff1660e01b81526004016115ac959493929190613fbd565b6020604051808303816000875af11580156115cb573d6000803e3d6000fd5b505050506040513d601f19601f820116820180604052508101906115ef9190614032565b935080806116015750468a6060015114155b15611623576116136276a700426136ad565b6000858152600160205260409020555b8951805160208201516060909201516040517f5817819100000000000000000000000000000000000000000000000000000000815273ffffffffffffffffffffffffffffffffffffffff7f000000000000000000000000000000000000000000000000000000000000000016936358178191936116a7938a9391929160040161404b565b6020604051808303816000875af11580156116c6573d6000803e3d6000fd5b505050506040513d601f19601f820116820180604052508101906116ea91906132c3565b50875173ffffffffffffffffffffffffffffffffffffffff161561171257611712848961213d565b7f000000000000000000000000000000000000000000000000000000000000000073ffffffffffffffffffffffffffffffffffffffff1663dd5f214a85600061175e8e608001516122c2565b6040518463ffffffff1660e01b815260040161177c93929190614088565b600060405180830381600087803b15801561179657600080fd5b505af11580156117aa573d6000803e3d6000fd5b505050507f000000000000000000000000000000000000000000000000000000000000000073ffffffffffffffffffffffffffffffffffffffff1663f434c9146040518163ffffffff1660e01b8152600401602060405180830381865afa158015611819573d6000803e3d6000fd5b505050506040513d601f19601f8201168201806040525081019061183d91906132c3565b73ffffffffffffffffffffffffffffffffffffffff166305d2912e3060405180606001604052808e6080015173ffffffffffffffffffffffffffffffffffffffff16815260200188815260200160028054806020026020016040519081016040528092919081815260200182805480156118d657602002820191906000526020600020905b8154815260200190600101908083116118c2575b50505050508152506040518363ffffffff1660e01b81526004016118fb929190613a22565b600060405180830381600087803b15801561191557600080fd5b505af1158015611929573d6000803e3d6000fd5b5050505060008a604001511180156119445750468a60600151145b15611a1f577f000000000000000000000000000000000000000000000000000000000000000073ffffffffffffffffffffffffffffffffffffffff1663c7fb92de858c604001518d608001518e60000151602001516040516020016119a991906141a2565b60405160208183030381529060405260006040518663ffffffff1660e01b81526004016119da95949392919061420e565b6020604051808303816000875af11580156119f9573d6000803e3d6000fd5b505050506040513d601f19601f82011682018060405250810190611a1d9190614032565b505b60408051600180825281830190925260009160208083019080368337019050509050601d81600081518110611a5657611a566136c0565b6020026020010181815250507f000000000000000000000000000000000000000000000000000000000000000073ffffffffffffffffffffffffffffffffffffffff1663f434c9146040518163ffffffff1660e01b8152600401602060405180830381865afa158015611acd573d6000803e3d6000fd5b505050506040513d601f19601f82011682018060405250810190611af191906132c3565b73ffffffffffffffffffffffffffffffffffffffff166305d2912e3060405180606001604052807f000000000000000000000000000000000000000000000000000000000000000073ffffffffffffffffffffffffffffffffffffffff168152602001898152602001858152506040518363ffffffff1660e01b8152600401611b7b929190613a22565b600060405180830381600087803b158015611b9557600080fd5b505af1158015611ba9573d6000803e3d6000fd5b50505050602086015115611ce3577f000000000000000000000000000000000000000000000000000000000000000073ffffffffffffffffffffffffffffffffffffffff16632f3f50e08633868a60200151604051602001611c0d93929190613846565b604080517fffffffffffffffffffffffffffffffffffffffffffffffffffffffffffffffe08184030181529082905280516020909101208a517fffffffff0000000000000000000000000000000000000000000000000000000060e086901b168352611c7c939260040161398e565b6000604051808303816000875af1158015611c9b573d6000803e3d6000fd5b505050506040513d6000823e601f3d9081017fffffffffffffffffffffffffffffffffffffffffffffffffffffffffffffffe0168201604052611ce191908101906136ef565b505b847f4b827371715024f69a0bc98c8df6edafe6e471e78488ab1b3849de72f66b12e08c8c8c8a89898933604051611d2198979695949392919061438b565b60405180910390a2505050509695505050505050565b6060806000808660a001515190508067ffffffffffffffff811115611d5e57611d5e612578565b604051908082528060200260200182016040528015611e5057816020015b611e3d6040805161010080820183526000808352602080840182905283850182905260608085018390526080808601849052865161020081018852848152928301849052958201839052810182905293840181905260a084810182905260c0850182905260e0850182905291840181905261012084018190526101408401819052610160840181905261018084018190526101a084018190526101c084018190526101e0840152909190820190815260200160608152602001606081525090565b815260200190600190039081611d7c5790505b509350611e5c87612438565b6040805160c081018252600080825260208201819052918101829052606081018290526080810182905260a081018290529194505b82811015612131578860a001518181518110611eaf57611eaf6136c0565b60200260200101519150816000015164ffffffffff16868281518110611ed757611ed76136c0565b60200260200101516000018181525050816060015164ffffffffff16868281518110611f0557611f056136c0565b6020026020010151602001818152505081604001516dffffffffffffffffffffffffffff16868281518110611f3c57611f3c6136c0565b60200260200101516040018181525050816080015163ffffffff16868281518110611f6957611f696136c0565b602002602001015160600181815250506000868281518110611f8d57611f8d6136c0565b60200260200101516080019073ffffffffffffffffffffffffffffffffffffffff16908173ffffffffffffffffffffffffffffffffffffffff1681525050604051806102000160405280836020015161ffff1681526020018360a0015161ffff16612710611ffb9190614549565b815260208b81015163ffffffff16908201526000604082018190526060820181905260016080830181905260a0830182905260c0830182905260e0830182905261010083018290526101208301829052610140830182905261016083015261018082015273ffffffffffffffffffffffffffffffffffffffff8a166101a08201526101c0018890528651879083908110612097576120976136c0565b602002602001015160a001819052508060001480156120bd5750815164ffffffffff1615155b80156120d3575042826000015164ffffffffff16105b156120dd57600193505b846120e88383612479565b6040516020016120f992919061455c565b604080517fffffffffffffffffffffffffffffffffffffffffffffffffffffffffffffffe08184030181529190529450600101611e91565b50505093509350939050565b602081810151516040805160808101825260008082529381018490529081018390526060810183905290915b828110156122695783602001518181518110612187576121876136c0565b6020908102919091018101518551918101516040808301516060840151845192517f7b621d3a000000000000000000000000000000000000000000000000000000008152600481018c905262ffffff909416602485015263ffffffff918216604485015216606483015273ffffffffffffffffffffffffffffffffffffffff9081166084830152919450911690637b621d3a9060a4016020604051808303816000875af115801561223c573d6000803e3d6000fd5b505050506040513d601f19601f8201168201806040525081019061226091906132c3565b50600101612169565b5050905160009283526020839052604090922080547fffffffffffffffffffffffff00000000000000000000000000000000000000001673ffffffffffffffffffffffffffffffffffffffff9093169290921790915550565b604080516001808252818301909252606091816020015b6040805180820190915260008152606060208201528152602001906001900390816122d957505060408051600180825281830190925291925060009190602082015b6040805160c08101825260008082526020808301829052928201819052606082018190526080820181905260a082015282527fffffffffffffffffffffffffffffffffffffffffffffffffffffffffffffffff90920191018161231b5790505090506040518060c00160405280600015158152602001633b9aca008152602001600081526020018473ffffffffffffffffffffffffffffffffffffffff16815260200160008152602001600073ffffffffffffffffffffffffffffffffffffffff16815250816000815181106123f3576123f36136c0565b60200260200101819052506040518060400160405280600181526020018281525082600081518110612427576124276136c0565b602002602001018190525050919050565b602080820151606083810151845180518186015191840151604051949661246396959293920161458b565b6040516020818303038152906040529050919050565b60608115801561248f5750825164ffffffffff16155b6124a157825164ffffffffff166124a3565b425b83602001518460400151856060015186608001518760a001516040516020016125189695949392919095865261ffff94851660208701526dffffffffffffffffffffffffffff93909316604086015264ffffffffff91909116606085015263ffffffff1660808401521660a082015260c00190565b604051602081830303815290604052905092915050565b60006020828403121561254157600080fd5b81357fffffffff000000000000000000000000000000000000000000000000000000008116811461257157600080fd5b9392505050565b7f4e487b7100000000000000000000000000000000000000000000000000000000600052604160045260246000fd5b6040516080810167ffffffffffffffff811182821017156125ca576125ca612578565b60405290565b60405160c0810167ffffffffffffffff811182821017156125ca576125ca612578565b6040805190810167ffffffffffffffff811182821017156125ca576125ca612578565b6040516060810167ffffffffffffffff811182821017156125ca576125ca612578565b604051601f82017fffffffffffffffffffffffffffffffffffffffffffffffffffffffffffffffe016810167ffffffffffffffff8111828210171561268057612680612578565b604052919050565b600067ffffffffffffffff8211156126a2576126a2612578565b50601f017fffffffffffffffffffffffffffffffffffffffffffffffffffffffffffffffe01660200190565b60006126e16126dc84612688565b612639565b90508281528383830111156126f557600080fd5b828260208301376000602084830101529392505050565b600082601f83011261271d57600080fd5b612571838335602085016126ce565b60006080828403121561273e57600080fd5b6127466125a7565b9050813567ffffffffffffffff8082111561276057600080fd5b61276c8583860161270c565b8352602084013591508082111561278257600080fd5b61278e8583860161270c565b602084015260408401359150808211156127a757600080fd5b506127b48482850161270c565b6040830152506060820135606082015292915050565b803563ffffffff811681146127de57600080fd5b919050565b73ffffffffffffffffffffffffffffffffffffffff8116811461280557600080fd5b50565b80356127de816127e3565b600067ffffffffffffffff82111561282d5761282d612578565b5060051b60200190565b803564ffffffffff811681146127de57600080fd5b803561ffff811681146127de57600080fd5b600082601f83011261286f57600080fd5b8135602061287f6126dc83612813565b82815260c0928302850182019282820191908785111561289e57600080fd5b8387015b858110156129435781818a0312156128ba5760008081fd5b6128c26125d0565b6128cb82612837565b81526128d886830161284c565b868201526040808301356dffffffffffffffffffffffffffff811681146128ff5760008081fd5b908201526060612910838201612837565b9082015260806129218382016127ca565b9082015260a061293283820161284c565b9082015284529284019281016128a2565b5090979650505050505050565b600082601f83011261296157600080fd5b813560206129716126dc83612813565b828152600592831b850182019282820191908785111561299057600080fd5b8387015b8581101561294357803567ffffffffffffffff808211156129b55760008081fd5b818a0191506040807fffffffffffffffffffffffffffffffffffffffffffffffffffffffffffffffe0848e030112156129ee5760008081fd5b6129f66125f3565b88840135612a03816127e3565b81528382013583811115612a175760008081fd5b8085019450508c603f850112612a2f57600092508283fd5b888401359250612a416126dc84612813565b83815292861b8401820192898101908e851115612a5e5760008081fd5b948301945b84861015612a885785359350612a78846127e3565b838252948a0194908a0190612a63565b828b0152508752505050928401928401612994565b60006040808385031215612ab057600080fd5b612ab86125f3565b91508235612ac5816127e3565b825260208381013567ffffffffffffffff811115612ae257600080fd5b8401601f81018613612af357600080fd5b8035612b016126dc82612813565b81815260079190911b82018301908381019088831115612b2057600080fd5b928401925b82841015612b9f576080848a031215612b3e5760008081fd5b612b466125a7565b8435612b51816127e3565b81528486013562ffffff81168114612b695760008081fd5b81870152612b788588016127ca565b878201526060612b898187016127ca565b9082015282526080939093019290840190612b25565b808588015250505050505092915050565b600060408284031215612bc257600080fd5b612bca6125f3565b905067ffffffffffffffff8083351115612be357600080fd5b8235830184601f820112612bf657600080fd5b612c036126dc8235612813565b81358082526020808301929160051b84010187811115612c2257600080fd5b602084015b81811015612d85578581351115612c3d57600080fd5b8035850160407fffffffffffffffffffffffffffffffffffffffffffffffffffffffffffffffe0828c03011215612c7357600080fd5b612c7b6125f3565b612c8860208301356127e3565b602082013581528760408301351115612ca057600080fd5b6040820135820191508a603f830112612cb857600080fd5b6020820135612cc96126dc82612813565b81815260079190911b83016040019060208101908d831115612cea57600080fd5b6040850194505b82851015612d66576080858f031215612d0957600080fd5b612d116125a7565b612d1b86356127e3565b85358152612d2b602087016127ca565b6020820152612d3d60408701356127e3565b604086013560408201526060860135606082015280835250602082019150608085019450612cf1565b8060208501525050508086525050602084019350602081019050612c27565b5050808552505050506020820135602082015292915050565b60008060008060808587031215612db457600080fd5b843567ffffffffffffffff80821115612dcc57600080fd5b9086019060c08289031215612de057600080fd5b612de86125d0565b823582811115612df757600080fd5b612e038a82860161272c565b825250612e12602084016127ca565b60208201526040830135604082015260608301356060820152612e3760808401612808565b608082015260a083013582811115612e4e57600080fd5b612e5a8a82860161285e565b60a08301525095506020870135915080821115612e7657600080fd5b612e8288838901612950565b94506040870135915080821115612e9857600080fd5b612ea488838901612a9d565b93506060870135915080821115612eba57600080fd5b50612ec787828801612bb0565b91505092959194509250565b600080600080600060808688031215612eeb57600080fd5b8535612ef6816127e3565b94506020860135612f06816127e3565b935060408601359250606086013567ffffffffffffffff80821115612f2a57600080fd5b818801915088601f830112612f3e57600080fd5b813581811115612f4d57600080fd5b896020828501011115612f5f57600080fd5b9699959850939650602001949392505050565b600060208284031215612f8457600080fd5b5035919050565b600060208284031215612f9d57600080fd5b813567ffffffffffffffff811115612fb457600080fd5b8201610180818503121561257157600080fd5b60005b83811015612fe2578181015183820152602001612fca565b50506000910152565b60008151808452613003816020860160208601612fc7565b601f017fffffffffffffffffffffffffffffffffffffffffffffffffffffffffffffffe0169290920160200192915050565b600082825180855260208086019550808260051b84010181860160005b84811015612943578583037fffffffffffffffffffffffffffffffffffffffffffffffffffffffffffffffe00189528151805173ffffffffffffffffffffffffffffffffffffffff16845284810151858501526040908101516060918501829052906130c081860183612feb565b9a86019a9450505090830190600101613052565b8281526040602082015260006130ed6040830184613035565b949350505050565b6020815260006125716020830184613035565b6000806040838503121561311b57600080fd5b82359150602083013561312d816127e3565b809150509250929050565b60006020828403121561314a57600080fd5b813567ffffffffffffffff81111561316157600080fd5b82016101a0818503121561257157600080fd5b60006080820186835260208681850152604086604086015260606080606087015283875180865260a08801915060a08160051b890101955084890160005b8281101561322d578988037fffffffffffffffffffffffffffffffffffffffffffffffffffffffffffffff600184528151805173ffffffffffffffffffffffffffffffffffffffff16895287810151888a015286015186890186905261321a868a0182612feb565b98505092860192908601906001016131b2565b50959c9b505050505050505050505050565b60008060006060848603121561325457600080fd5b83359250602084013567ffffffffffffffff8082111561327357600080fd5b818601915086601f83011261328757600080fd5b613296878335602085016126ce565b935060408601359150808211156132ac57600080fd5b506132b986828701612bb0565b9150509250925092565b6000602082840312156132d557600080fd5b8151612571816127e3565b80356132eb816127e3565b73ffffffffffffffffffffffffffffffffffffffff1682526020818101359083015260408082013590830152606090810135910152565b60008083357fffffffffffffffffffffffffffffffffffffffffffffffffffffffffffffffe184360301811261335757600080fd5b830160208101925035905067ffffffffffffffff81111561337757600080fd5b80360382131561338657600080fd5b9250929050565b8183528181602085013750600060208284010152600060207fffffffffffffffffffffffffffffffffffffffffffffffffffffffffffffffe0601f840116840101905092915050565b60208152613404602082016133ea84612808565b73ffffffffffffffffffffffffffffffffffffffff169052565b600061341260208401612808565b73ffffffffffffffffffffffffffffffffffffffff811660408401525061343f60608301604085016132e0565b60c083013560e083015261010060e084013581840152613460818501612808565b90506101206134868185018373ffffffffffffffffffffffffffffffffffffffff169052565b610140915080850135828501525061016081850135818501526134ab81860186613322565b61018086810152925090506103986101a08501838361338d565b60008060408084860312156134d957600080fd5b8351925060208085015167ffffffffffffffff808211156134f957600080fd5b818701915087601f83011261350d57600080fd5b815161351b6126dc82612813565b81815260059190911b8301840190848101908a83111561353a57600080fd5b8585015b838110156136195780518581111561355557600080fd5b86016060818e037fffffffffffffffffffffffffffffffffffffffffffffffffffffffffffffffe001121561358a5760008081fd5b613592612616565b8882015161359f816127e3565b8152818a0151898201526060820151878111156135bc5760008081fd5b8083019250508d603f8301126135d25760008081fd5b888201516135e26126dc82612688565b8181528f8c8386010111156135f75760008081fd5b613606828c83018e8701612fc7565b828c01525084525091860191860161353e565b50809750505050505050509250929050565b600181811c9082168061363f57607f821691505b602082108103613678577f4e487b7100000000000000000000000000000000000000000000000000000000600052602260045260246000fd5b50919050565b7f4e487b7100000000000000000000000000000000000000000000000000000000600052601160045260246000fd5b808201808211156103815761038161367e565b7f4e487b7100000000000000000000000000000000000000000000000000000000600052603260045260246000fd5b6000602080838503121561370257600080fd5b825167ffffffffffffffff81111561371957600080fd5b8301601f8101851361372a57600080fd5b80516137386126dc82612813565b81815260059190911b8201830190838101908783111561375757600080fd5b928401925b8284101561377e57835161376f816127e3565b8252928401929084019061375c565b979650505050505050565b60006020828403121561379b57600080fd5b8135612571816127e3565b6000602082840312156137b857600080fd5b8151801515811461257157600080fd5b60006080820173ffffffffffffffffffffffffffffffffffffffff80881684526020818816602086015286604086015260806060860152829150855480845260a086019250866000526020600020935060005b818110156138375784548452600194850194938301930161381b565b50919998505050505050505050565b7fffffffffffffffffffffffffffffffffffffffff0000000000000000000000008460601b16815260008351613883816014850160208801612fc7565b60149201918201929092526034019392505050565b600082825180855260208086019550808260051b8401018186016000805b85811015613980578684037fffffffffffffffffffffffffffffffffffffffffffffffffffffffffffffffe0018a528251805173ffffffffffffffffffffffffffffffffffffffff908116865290860151604087870181905281518188018190529188019290916060919082890190875b818110156139685786518051851684528c81015163ffffffff168d8501528681015185168785015285015185840152958b0195608090920191600101613927565b50509d89019d975050509386019350506001016138b6565b509198975050505050505050565b8381528260208201526060604082015260006103986060830184613898565b60008151604084526139c26040850182613898565b602093840151949093019390935250919050565b6060815260006139e96060830186612feb565b82810360208401526139fb81866139ad565b91505073ffffffffffffffffffffffffffffffffffffffff83166040830152949350505050565b600073ffffffffffffffffffffffffffffffffffffffff808516835260206040602085015260a0840182865116604086015260208601516060860152604086015192506060608086015280835180835260c087019150602085019450600092505b80831015613aa35784518252938301936001929092019190830190613a83565b50979650505050505050565b7f2400000000000000000000000000000000000000000000000000000000000000815260008251613ae7816001850160208701612fc7565b7f207265766e6574206465706c6f796564000000000000000000000000000000006001939091019283015250601101919050565b8051825260208101516020830152604081015160408301526060810151613b46606084018215159052565b506080810151613b5a608084018215159052565b5060a0810151613b6e60a084018215159052565b5060c0810151613b8260c084018215159052565b5060e0810151613b9660e084018215159052565b5061010081810151151590830152610120808201511515908301526101408082015115159083015261016080820151151590830152610180808201511515908301526101a0808201511515908301526101c08082015173ffffffffffffffffffffffffffffffffffffffff16908301526101e090810151910152565b600082825180855260208086019550808260051b8401018186016000805b85811015613980578684037fffffffffffffffffffffffffffffffffffffffffffffffffffffffffffffffe0018a52825180518552850151604086860181905281518187018190529187019160609081880190865b81811015613cec5785518051151584528b8101518c85015285810151868501528481015173ffffffffffffffffffffffffffffffffffffffff908116868601526080808301519086015260a0918201511690840152948a019460c090920191600101613c85565b50509c88019c965050509285019250600101613c30565b60008151808452602080850194506020840160005b83811015613d3f578151805188528301518388015260409096019590820190600101613d18565b509495945050505050565b600082825180855260208086019550808260051b84010181860160005b84811015612943577fffffffffffffffffffffffffffffffffffffffffffffffffffffffffffffffe08684030189528151608073ffffffffffffffffffffffffffffffffffffffff80835116865280878401511687870152506040808301518282880152613dd783880182613d03565b9250505060608083015192508582038187015250613df58183613d03565b9a86019a9450505090830190600101613d67565b600082825180855260208086019550808260051b84010181860160005b84811015612943577fffffffffffffffffffffffffffffffffffffffffffffffffffffffffffffffe08684030189528151805184528481015185850152604080820151908501526060808201519085015260808082015173ffffffffffffffffffffffffffffffffffffffff169085015260a0808201516102e09190613eae82880182613b1b565b505060c0820151816102a0870152613ec882870182613c12565b91505060e082015191508481036102c0860152613ee58183613d4a565b9a86019a9450505090830190600101613e26565b600082825180855260208086019550808260051b8401018186016000805b85811015613980578684037fffffffffffffffffffffffffffffffffffffffffffffffffffffffffffffffe0018a528251805173ffffffffffffffffffffffffffffffffffffffff908116865290860151604087870181905281519087018190529087019160608701918591905b80831015613fa757845182168452938901939289019260019290920191613f85565b5050509a86019a94505091840191600101613f17565b73ffffffffffffffffffffffffffffffffffffffff8616815260a060208201526000613fec60a0830187612feb565b8281036040840152613ffe8187613e09565b905082810360608401526140128186613ef9565b905082810360808401526140268185612feb565b98975050505050505050565b60006020828403121561404457600080fd5b5051919050565b8481526080602082015260006140646080830186612feb565b82810360408401526140768186612feb565b91505082606083015295945050505050565b600060608083018684526020868186015260406060604087015282875180855260808801915060808160051b890101945083890160005b82811015614191578987037fffffffffffffffffffffffffffffffffffffffffffffffffffffffffffffff800184528151805188528601518688018690528051868901819052908701906000908a8a01905b8083101561417c5783518051151583528a8101518b840152898101518a8401528c81015173ffffffffffffffffffffffffffffffffffffffff9081168e8501526080808301519085015260a0918201511690830152928901926001929092019160c090910190614111565b509850505092850192908501906001016140bf565b50949b9a5050505050505050505050565b7f24000000000000000000000000000000000000000000000000000000000000008152600082516141da816001850160208701612fc7565b7f207072656d696e746564000000000000000000000000000000000000000000006001939091019283015250600b01919050565b85815284602082015273ffffffffffffffffffffffffffffffffffffffff8416604082015260a06060820152600061424960a0830185612feb565b905082151560808301529695505050505050565b60008151808452602080850194506020840160005b83811015613d3f578151805164ffffffffff90811689528482015161ffff908116868b01526040808401516dffffffffffffffffffffffffffff16908b0152606080840151909216918a019190915260808083015163ffffffff16908a015260a091820151169088015260c09096019590820190600101614272565b6000604080840173ffffffffffffffffffffffffffffffffffffffff8085511686526020808601516040828901528381518086526060955060608a019150838301925060005b8181101561437c5783518051871684528581015162ffffff16868501528881015163ffffffff9081168a86015290880151168784015292840192608090920191600101614334565b50909998505050505050505050565b60006101008083528a5160c0828501528051915060806101c08501526143b5610240850183612feb565b915060208101517ffffffffffffffffffffffffffffffffffffffffffffffffffffffffffffffe4080868503016101e08701526143f28483612feb565b9350604083015191508086850301610200870152506144118382612feb565b92505060608101516102208501525060208b015161443861012085018263ffffffff169052565b5060408b015161014084015260608b015161016084015260808b015173ffffffffffffffffffffffffffffffffffffffff1661018084015260a08b01518382037fffffffffffffffffffffffffffffffffffffffffffffffffffffffffffffff00016101a08501526144aa828261425d565b91505082810360208401526144bf818b613ef9565b905082810360408401526144d3818a6142ee565b905082810360608401526144e781896139ad565b905082810360808401526144fb8188613e09565b905082810360a084015261450f8187612feb565b91505061452060c083018515159052565b73ffffffffffffffffffffffffffffffffffffffff831660e08301529998505050505050505050565b818103818111156103815761038161367e565b6000835161456e818460208801612fc7565b835190830190614582818360208801612fc7565b01949350505050565b63ffffffff8616815284602082015260a0604082015260006145b060a0830186612feb565b82810360608401526145c28186612feb565b915050826080830152969550505050505056fea2646970667358221220afb4f64377739909f65a281507a6bf8d950bd6036815ea12125021b6866404d064736f6c63430008170033",
			"deployedBytecode": "0x608060405234801561001057600080fd5b50600436106100ea5760003560e01c80637249a7731161008c578063b5d2553311610066578063b5d2553314610278578063bb1994021461029f578063eb5ad9d9146102b4578063ee0fc121146102c757600080fd5b80637249a773146101f05780639d82ba251461024b578063aaf320d71461025557600080fd5b806343681e15116100c857806343681e151461017c5780634c4ffc711461019c5780635c0a7cee146101bd578063677ce088146101dd57600080fd5b806301ffc9a7146100ef57806302ccf9a114610117578063150b7a0214610138575b600080fd5b6101026100fd36600461252f565b6102ee565b60405190151581526020015b60405180910390f35b61012a610125366004612d9e565b610387565b60405190815260200161010e565b61014b610146366004612ed3565b6103a1565b6040517fffffffff00000000000000000000000000000000000000000000000000000000909116815260200161010e565b61012a61018a366004612f72565b60016020526000908152604090205481565b6101af6101aa366004612f8b565b6104b5565b60405161010e9291906130d4565b6101d06101cb366004612f72565b6107f1565b60405161010e91906130f5565b6101026101eb366004613108565b610922565b6102266101fe366004612f72565b60006020819052908152604090205473ffffffffffffffffffffffffffffffffffffffff1681565b60405173ffffffffffffffffffffffffffffffffffffffff909116815260200161010e565b61012a6276a70081565b610268610263366004613138565b610aa9565b60405161010e9493929190613174565b6102267f0000000000000000000000005c94828c12604a92f39c6974f4cd964a702b81dc81565b6102b26102ad36600461323f565b610c18565b005b6102b26102c2366004613108565b610f3c565b6102267f000000000000000000000000698d26df9f8d5cf0fd359d26add623602a2bc35581565b60007fffffffff0000000000000000000000000000000000000000000000000000000082167f81c03c2e00000000000000000000000000000000000000000000000000000000148061038157507f01ffc9a7000000000000000000000000000000000000000000000000000000007fffffffff000000000000000000000000000000000000000000000000000000008316145b92915050565b600061039885858530600087611505565b95945050505050565b60007f000000000000000000000000698d26df9f8d5cf0fd359d26add623602a2bc35573ffffffffffffffffffffffffffffffffffffffff1663293c49996040518163ffffffff1660e01b8152600401602060405180830381865afa15801561040e573d6000803e3d6000fd5b505050506040513d601f19601f8201168201806040525081019061043291906132c3565b73ffffffffffffffffffffffffffffffffffffffff163373ffffffffffffffffffffffffffffffffffffffff161461046957600080fd5b73ffffffffffffffffffffffffffffffffffffffff85161561048a57600080fd5b507f150b7a020000000000000000000000000000000000000000000000000000000095945050505050565b60c0810135600090815260208190526040812054606090819073ffffffffffffffffffffffffffffffffffffffff1680156105a5576040517f4c4ffc7100000000000000000000000000000000000000000000000000000000815273ffffffffffffffffffffffffffffffffffffffff821690634c4ffc719061053c9088906004016133d6565b600060405180830381865afa158015610559573d6000803e3d6000fd5b505050506040513d6000823e601f3d9081017fffffffffffffffffffffffffffffffffffffffffffffffffffffffffffffffe016820160405261059f91908101906134c5565b90945091505b815160c086013560009081526003602090815260408083208054825181850281018501909352808352941515949192909190849084015b828210156106cd5760008481526020908190206040805160608101825260038602909201805473ffffffffffffffffffffffffffffffffffffffff1683526001810154938301939093526002830180549293929184019161063c9061362b565b80601f01602080910402602001604051908101604052809291908181526020018280546106689061362b565b80156106b55780601f1061068a576101008083540402835291602001916106b5565b820191906000526020600020905b81548152906001019060200180831161069857829003601f168201915b505050505081525050815260200190600101906105dc565b505050509050600081519050826106e55760006106e8565b60015b6106f59060ff16826136ad565b67ffffffffffffffff81111561070d5761070d612578565b60405190808252806020026020018201604052801561075a57816020015b6040805160608082018352600080835260208301529181019190915281526020019060019003908161072b5790505b50955060005b818110156107a75782818151811061077a5761077a6136c0565b6020026020010151878281518110610794576107946136c0565b6020908102919091010152600101610760565b5082156107e757846000815181106107c1576107c16136c0565b60200260200101518682815181106107db576107db6136c0565b60200260200101819052505b5050505050915091565b606060036000838152602001908152602001600020805480602002602001604051908101604052809291908181526020016000905b828210156109175760008481526020908190206040805160608101825260038602909201805473ffffffffffffffffffffffffffffffffffffffff168352600181015493830193909352600283018054929392918401916108869061362b565b80601f01602080910402602001604051908101604052809291908181526020018280546108b29061362b565b80156108ff5780601f106108d4576101008083540402835291602001916108ff565b820191906000526020600020905b8154815290600101906020018083116108e257829003601f168201915b50505050508152505081526020019060010190610826565b505050509050919050565b60008281526020819052604081205473ffffffffffffffffffffffffffffffffffffffff9081169083160361095957506001610381565b6040517f3d12cb87000000000000000000000000000000000000000000000000000000008152600481018490526000907f0000000000000000000000005c94828c12604a92f39c6974f4cd964a702b81dc73ffffffffffffffffffffffffffffffffffffffff1690633d12cb8790602401600060405180830381865afa1580156109e7573d6000803e3d6000fd5b505050506040513d6000823e601f3d9081017fffffffffffffffffffffffffffffffffffffffffffffffffffffffffffffffe0168201604052610a2d91908101906136ef565b805190915060005b81811015610a9d57828181518110610a4f57610a4f6136c0565b602002602001015173ffffffffffffffffffffffffffffffffffffffff168573ffffffffffffffffffffffffffffffffffffffff1603610a955760019350505050610381565b600101610a35565b50600095945050505050565b60008080606073ffffffffffffffffffffffffffffffffffffffff7f0000000000000000000000005c94828c12604a92f39c6974f4cd964a702b81dc166383db9d0160408701803590610aff9060208a01613789565b6040517fffffffff0000000000000000000000000000000000000000000000000000000060e085901b168152600481019290925273ffffffffffffffffffffffffffffffffffffffff166024820152604401602060405180830381865afa158015610b6e573d6000803e3d6000fd5b505050506040513d601f19601f82011682018060405250810190610b9291906137a6565b15610baf5761271085608001358660a00135935093509350610c11565b604080860135600090815260016020522054421015610bfa576040517f04c3b3cd00000000000000000000000000000000000000000000000000000000815260040160405180910390fd5b84610160013585608001358660a001359350935093505b9193509193565b7f000000000000000000000000698d26df9f8d5cf0fd359d26add623602a2bc35573ffffffffffffffffffffffffffffffffffffffff16631f47ce696040518163ffffffff1660e01b8152600401602060405180830381865afa158015610c83573d6000803e3d6000fd5b505050506040513d601f19601f82011682018060405250810190610ca791906132c3565b73ffffffffffffffffffffffffffffffffffffffff1663f434c9146040518163ffffffff1660e01b8152600401602060405180830381865afa158015610cf1573d6000803e3d6000fd5b505050506040513d601f19601f82011682018060405250810190610d1591906132c3565b73ffffffffffffffffffffffffffffffffffffffff16630f5932f033308660026040518563ffffffff1660e01b8152600401610d5494939291906137c8565b602060405180830381865afa158015610d71573d6000803e3d6000fd5b505050506040513d601f19601f82011682018060405250810190610d9591906137a6565b610dcb576040517f31fb21f300000000000000000000000000000000000000000000000000000000815260040160405180910390fd5b600033838360200151604051602001610de693929190613846565b604080517fffffffffffffffffffffffffffffffffffffffffffffffffffffffffffffffe081840301815290829052805160209091012083517f2f3f50e000000000000000000000000000000000000000000000000000000000835290925073ffffffffffffffffffffffffffffffffffffffff7f0000000000000000000000005c94828c12604a92f39c6974f4cd964a702b81dc1691632f3f50e091610e93918891869160040161398e565b6000604051808303816000875af1158015610eb2573d6000803e3d6000fd5b505050506040513d6000823e601f3d9081017fffffffffffffffffffffffffffffffffffffffffffffffffffffffffffffffe0168201604052610ef891908101906136ef565b5080847f755ecfca2f6e66af8868551556bf7931740a7062db8e0882f4c322fdb0bb3f60858533604051610f2e939291906139d6565b60405180910390a350505050565b7f000000000000000000000000698d26df9f8d5cf0fd359d26add623602a2bc35573ffffffffffffffffffffffffffffffffffffffff16631f47ce696040518163ffffffff1660e01b8152600401602060405180830381865afa158015610fa7573d6000803e3d6000fd5b505050506040513d601f19601f82011682018060405250810190610fcb91906132c3565b73ffffffffffffffffffffffffffffffffffffffff1663f434c9146040518163ffffffff1660e01b8152600401602060405180830381865afa158015611015573d6000803e3d6000fd5b505050506040513d601f19601f8201168201806040525081019061103991906132c3565b73ffffffffffffffffffffffffffffffffffffffff16630f5932f033308560026040518563ffffffff1660e01b815260040161107894939291906137c8565b602060405180830381865afa158015611095573d6000803e3d6000fd5b505050506040513d601f19601f820116820180604052508101906110b991906137a6565b6110ef576040517f31fb21f300000000000000000000000000000000000000000000000000000000815260040160405180910390fd5b7f000000000000000000000000698d26df9f8d5cf0fd359d26add623602a2bc35573ffffffffffffffffffffffffffffffffffffffff16631f47ce696040518163ffffffff1660e01b8152600401602060405180830381865afa15801561115a573d6000803e3d6000fd5b505050506040513d601f19601f8201168201806040525081019061117e91906132c3565b73ffffffffffffffffffffffffffffffffffffffff1663f434c9146040518163ffffffff1660e01b8152600401602060405180830381865afa1580156111c8573d6000803e3d6000fd5b505050506040513d601f19601f820116820180604052508101906111ec91906132c3565b73ffffffffffffffffffffffffffffffffffffffff166305d2912e3060405180606001604052803373ffffffffffffffffffffffffffffffffffffffff168152602001868152602001600067ffffffffffffffff81111561124f5761124f612578565b604051908082528060200260200182016040528015611278578160200160208202803683370190505b508152506040518363ffffffff1660e01b8152600401611299929190613a22565b600060405180830381600087803b1580156112b357600080fd5b505af11580156112c7573d6000803e3d6000fd5b505050507f000000000000000000000000698d26df9f8d5cf0fd359d26add623602a2bc35573ffffffffffffffffffffffffffffffffffffffff16631f47ce696040518163ffffffff1660e01b8152600401602060405180830381865afa158015611336573d6000803e3d6000fd5b505050506040513d601f19601f8201168201806040525081019061135a91906132c3565b73ffffffffffffffffffffffffffffffffffffffff1663f434c9146040518163ffffffff1660e01b8152600401602060405180830381865afa1580156113a4573d6000803e3d6000fd5b505050506040513d601f19601f820116820180604052508101906113c891906132c3565b73ffffffffffffffffffffffffffffffffffffffff166305d2912e3060405180606001604052808573ffffffffffffffffffffffffffffffffffffffff168152602001868152602001600280548060200260200160405190810160405280929190818152602001828054801561145d57602002820191906000526020600020905b815481526020019060010190808311611449575b50505050508152506040518363ffffffff1660e01b8152600401611482929190613a22565b600060405180830381600087803b15801561149c57600080fd5b505af11580156114b0573d6000803e3d6000fd5b505060405133815273ffffffffffffffffffffffffffffffffffffffff841692508491507f0329d6a81434b130c72eb65eea0e32e429dc1277b4aad86ec86454aefb6184519060200160405180910390a35050565b6000806000806115168a8888611d37565b9250925092507f000000000000000000000000698d26df9f8d5cf0fd359d26add623602a2bc35573ffffffffffffffffffffffffffffffffffffffff16630634bae9308c6000015160400151868d8f600001516020015160405160200161157d9190613aaf565b6040516020818303038152906040526040518663ffffffff1660e01b81526004016115ac959493929190613fbd565b6020604051808303816000875af11580156115cb573d6000803e3d6000fd5b505050506040513d601f19601f820116820180604052508101906115ef9190614032565b935080806116015750468a6060015114155b15611623576116136276a700426136ad565b6000858152600160205260409020555b8951805160208201516060909201516040517f5817819100000000000000000000000000000000000000000000000000000000815273ffffffffffffffffffffffffffffffffffffffff7f000000000000000000000000698d26df9f8d5cf0fd359d26add623602a2bc35516936358178191936116a7938a9391929160040161404b565b6020604051808303816000875af11580156116c6573d6000803e3d6000fd5b505050506040513d601f19601f820116820180604052508101906116ea91906132c3565b50875173ffffffffffffffffffffffffffffffffffffffff161561171257611712848961213d565b7f000000000000000000000000698d26df9f8d5cf0fd359d26add623602a2bc35573ffffffffffffffffffffffffffffffffffffffff1663dd5f214a85600061175e8e608001516122c2565b6040518463ffffffff1660e01b815260040161177c93929190614088565b600060405180830381600087803b15801561179657600080fd5b505af11580156117aa573d6000803e3d6000fd5b505050507f000000000000000000000000698d26df9f8d5cf0fd359d26add623602a2bc35573ffffffffffffffffffffffffffffffffffffffff1663f434c9146040518163ffffffff1660e01b8152600401602060405180830381865afa158015611819573d6000803e3d6000fd5b505050506040513d601f19601f8201168201806040525081019061183d91906132c3565b73ffffffffffffffffffffffffffffffffffffffff166305d2912e3060405180606001604052808e6080015173ffffffffffffffffffffffffffffffffffffffff16815260200188815260200160028054806020026020016040519081016040528092919081815260200182805480156118d657602002820191906000526020600020905b8154815260200190600101908083116118c2575b50505050508152506040518363ffffffff1660e01b81526004016118fb929190613a22565b600060405180830381600087803b15801561191557600080fd5b505af1158015611929573d6000803e3d6000fd5b5050505060008a604001511180156119445750468a60600151145b15611a1f577f000000000000000000000000698d26df9f8d5cf0fd359d26add623602a2bc35573ffffffffffffffffffffffffffffffffffffffff1663c7fb92de858c604001518d608001518e60000151602001516040516020016119a991906141a2565b60405160208183030381529060405260006040518663ffffffff1660e01b81526004016119da95949392919061420e565b6020604051808303816000875af11580156119f9573d6000803e3d6000fd5b505050506040513d601f19601f82011682018060405250810190611a1d9190614032565b505b60408051600180825281830190925260009160208083019080368337019050509050601d81600081518110611a5657611a566136c0565b6020026020010181815250507f000000000000000000000000698d26df9f8d5cf0fd359d26add623602a2bc35573ffffffffffffffffffffffffffffffffffffffff1663f434c9146040518163ffffffff1660e01b8152600401602060405180830381865afa158015611acd573d6000803e3d6000fd5b505050506040513d601f19601f82011682018060405250810190611af191906132c3565b73ffffffffffffffffffffffffffffffffffffffff166305d2912e3060405180606001604052807f0000000000000000000000005c94828c12604a92f39c6974f4cd964a702b81dc73ffffffffffffffffffffffffffffffffffffffff168152602001898152602001858152506040518363ffffffff1660e01b8152600401611b7b929190613a22565b600060405180830381600087803b158015611b9557600080fd5b505af1158015611ba9573d6000803e3d6000fd5b50505050602086015115611ce3577f0000000000000000000000005c94828c12604a92f39c6974f4cd964a702b81dc73ffffffffffffffffffffffffffffffffffffffff16632f3f50e08633868a60200151604051602001611c0d93929190613846565b604080517fffffffffffffffffffffffffffffffffffffffffffffffffffffffffffffffe08184030181529082905280516020909101208a517fffffffff0000000000000000000000000000000000000000000000000000000060e086901b168352611c7c939260040161398e565b6000604051808303816000875af1158015611c9b573d6000803e3d6000fd5b505050506040513d6000823e601f3d9081017fffffffffffffffffffffffffffffffffffffffffffffffffffffffffffffffe0168201604052611ce191908101906136ef565b505b847f4b827371715024f69a0bc98c8df6edafe6e471e78488ab1b3849de72f66b12e08c8c8c8a89898933604051611d2198979695949392919061438b565b60405180910390a2505050509695505050505050565b6060806000808660a001515190508067ffffffffffffffff811115611d5e57611d5e612578565b604051908082528060200260200182016040528015611e5057816020015b611e3d6040805161010080820183526000808352602080840182905283850182905260608085018390526080808601849052865161020081018852848152928301849052958201839052810182905293840181905260a084810182905260c0850182905260e0850182905291840181905261012084018190526101408401819052610160840181905261018084018190526101a084018190526101c084018190526101e0840152909190820190815260200160608152602001606081525090565b815260200190600190039081611d7c5790505b509350611e5c87612438565b6040805160c081018252600080825260208201819052918101829052606081018290526080810182905260a081018290529194505b82811015612131578860a001518181518110611eaf57611eaf6136c0565b60200260200101519150816000015164ffffffffff16868281518110611ed757611ed76136c0565b60200260200101516000018181525050816060015164ffffffffff16868281518110611f0557611f056136c0565b6020026020010151602001818152505081604001516dffffffffffffffffffffffffffff16868281518110611f3c57611f3c6136c0565b60200260200101516040018181525050816080015163ffffffff16868281518110611f6957611f696136c0565b602002602001015160600181815250506000868281518110611f8d57611f8d6136c0565b60200260200101516080019073ffffffffffffffffffffffffffffffffffffffff16908173ffffffffffffffffffffffffffffffffffffffff1681525050604051806102000160405280836020015161ffff1681526020018360a0015161ffff16612710611ffb9190614549565b815260208b81015163ffffffff16908201526000604082018190526060820181905260016080830181905260a0830182905260c0830182905260e0830182905261010083018290526101208301829052610140830182905261016083015261018082015273ffffffffffffffffffffffffffffffffffffffff8a166101a08201526101c0018890528651879083908110612097576120976136c0565b602002602001015160a001819052508060001480156120bd5750815164ffffffffff1615155b80156120d3575042826000015164ffffffffff16105b156120dd57600193505b846120e88383612479565b6040516020016120f992919061455c565b604080517fffffffffffffffffffffffffffffffffffffffffffffffffffffffffffffffe08184030181529190529450600101611e91565b50505093509350939050565b602081810151516040805160808101825260008082529381018490529081018390526060810183905290915b828110156122695783602001518181518110612187576121876136c0565b6020908102919091018101518551918101516040808301516060840151845192517f7b621d3a000000000000000000000000000000000000000000000000000000008152600481018c905262ffffff909416602485015263ffffffff918216604485015216606483015273ffffffffffffffffffffffffffffffffffffffff9081166084830152919450911690637b621d3a9060a4016020604051808303816000875af115801561223c573d6000803e3d6000fd5b505050506040513d601f19601f8201168201806040525081019061226091906132c3565b50600101612169565b5050905160009283526020839052604090922080547fffffffffffffffffffffffff00000000000000000000000000000000000000001673ffffffffffffffffffffffffffffffffffffffff9093169290921790915550565b604080516001808252818301909252606091816020015b6040805180820190915260008152606060208201528152602001906001900390816122d957505060408051600180825281830190925291925060009190602082015b6040805160c08101825260008082526020808301829052928201819052606082018190526080820181905260a082015282527fffffffffffffffffffffffffffffffffffffffffffffffffffffffffffffffff90920191018161231b5790505090506040518060c00160405280600015158152602001633b9aca008152602001600081526020018473ffffffffffffffffffffffffffffffffffffffff16815260200160008152602001600073ffffffffffffffffffffffffffffffffffffffff16815250816000815181106123f3576123f36136c0565b60200260200101819052506040518060400160405280600181526020018281525082600081518110612427576124276136c0565b602002602001018190525050919050565b602080820151606083810151845180518186015191840151604051949661246396959293920161458b565b6040516020818303038152906040529050919050565b60608115801561248f5750825164ffffffffff16155b6124a157825164ffffffffff166124a3565b425b83602001518460400151856060015186608001518760a001516040516020016125189695949392919095865261ffff94851660208701526dffffffffffffffffffffffffffff93909316604086015264ffffffffff91909116606085015263ffffffff1660808401521660a082015260c00190565b604051602081830303815290604052905092915050565b60006020828403121561254157600080fd5b81357fffffffff000000000000000000000000000000000000000000000000000000008116811461257157600080fd5b9392505050565b7f4e487b7100000000000000000000000000000000000000000000000000000000600052604160045260246000fd5b6040516080810167ffffffffffffffff811182821017156125ca576125ca612578565b60405290565b60405160c0810167ffffffffffffffff811182821017156125ca576125ca612578565b6040805190810167ffffffffffffffff811182821017156125ca576125ca612578565b6040516060810167ffffffffffffffff811182821017156125ca576125ca612578565b604051601f82017fffffffffffffffffffffffffffffffffffffffffffffffffffffffffffffffe016810167ffffffffffffffff8111828210171561268057612680612578565b604052919050565b600067ffffffffffffffff8211156126a2576126a2612578565b50601f017fffffffffffffffffffffffffffffffffffffffffffffffffffffffffffffffe01660200190565b60006126e16126dc84612688565b612639565b90508281528383830111156126f557600080fd5b828260208301376000602084830101529392505050565b600082601f83011261271d57600080fd5b612571838335602085016126ce565b60006080828403121561273e57600080fd5b6127466125a7565b9050813567ffffffffffffffff8082111561276057600080fd5b61276c8583860161270c565b8352602084013591508082111561278257600080fd5b61278e8583860161270c565b602084015260408401359150808211156127a757600080fd5b506127b48482850161270c565b6040830152506060820135606082015292915050565b803563ffffffff811681146127de57600080fd5b919050565b73ffffffffffffffffffffffffffffffffffffffff8116811461280557600080fd5b50565b80356127de816127e3565b600067ffffffffffffffff82111561282d5761282d612578565b5060051b60200190565b803564ffffffffff811681146127de57600080fd5b803561ffff811681146127de57600080fd5b600082601f83011261286f57600080fd5b8135602061287f6126dc83612813565b82815260c0928302850182019282820191908785111561289e57600080fd5b8387015b858110156129435781818a0312156128ba5760008081fd5b6128c26125d0565b6128cb82612837565b81526128d886830161284c565b868201526040808301356dffffffffffffffffffffffffffff811681146128ff5760008081fd5b908201526060612910838201612837565b9082015260806129218382016127ca565b9082015260a061293283820161284c565b9082015284529284019281016128a2565b5090979650505050505050565b600082601f83011261296157600080fd5b813560206129716126dc83612813565b828152600592831b850182019282820191908785111561299057600080fd5b8387015b8581101561294357803567ffffffffffffffff808211156129b55760008081fd5b818a0191506040807fffffffffffffffffffffffffffffffffffffffffffffffffffffffffffffffe0848e030112156129ee5760008081fd5b6129f66125f3565b88840135612a03816127e3565b81528382013583811115612a175760008081fd5b8085019450508c603f850112612a2f57600092508283fd5b888401359250612a416126dc84612813565b83815292861b8401820192898101908e851115612a5e5760008081fd5b948301945b84861015612a885785359350612a78846127e3565b838252948a0194908a0190612a63565b828b0152508752505050928401928401612994565b60006040808385031215612ab057600080fd5b612ab86125f3565b91508235612ac5816127e3565b825260208381013567ffffffffffffffff811115612ae257600080fd5b8401601f81018613612af357600080fd5b8035612b016126dc82612813565b81815260079190911b82018301908381019088831115612b2057600080fd5b928401925b82841015612b9f576080848a031215612b3e5760008081fd5b612b466125a7565b8435612b51816127e3565b81528486013562ffffff81168114612b695760008081fd5b81870152612b788588016127ca565b878201526060612b898187016127ca565b9082015282526080939093019290840190612b25565b808588015250505050505092915050565b600060408284031215612bc257600080fd5b612bca6125f3565b905067ffffffffffffffff8083351115612be357600080fd5b8235830184601f820112612bf657600080fd5b612c036126dc8235612813565b81358082526020808301929160051b84010187811115612c2257600080fd5b602084015b81811015612d85578581351115612c3d57600080fd5b8035850160407fffffffffffffffffffffffffffffffffffffffffffffffffffffffffffffffe0828c03011215612c7357600080fd5b612c7b6125f3565b612c8860208301356127e3565b602082013581528760408301351115612ca057600080fd5b6040820135820191508a603f830112612cb857600080fd5b6020820135612cc96126dc82612813565b81815260079190911b83016040019060208101908d831115612cea57600080fd5b6040850194505b82851015612d66576080858f031215612d0957600080fd5b612d116125a7565b612d1b86356127e3565b85358152612d2b602087016127ca565b6020820152612d3d60408701356127e3565b604086013560408201526060860135606082015280835250602082019150608085019450612cf1565b8060208501525050508086525050602084019350602081019050612c27565b5050808552505050506020820135602082015292915050565b60008060008060808587031215612db457600080fd5b843567ffffffffffffffff80821115612dcc57600080fd5b9086019060c08289031215612de057600080fd5b612de86125d0565b823582811115612df757600080fd5b612e038a82860161272c565b825250612e12602084016127ca565b60208201526040830135604082015260608301356060820152612e3760808401612808565b608082015260a083013582811115612e4e57600080fd5b612e5a8a82860161285e565b60a08301525095506020870135915080821115612e7657600080fd5b612e8288838901612950565b94506040870135915080821115612e9857600080fd5b612ea488838901612a9d565b93506060870135915080821115612eba57600080fd5b50612ec787828801612bb0565b91505092959194509250565b600080600080600060808688031215612eeb57600080fd5b8535612ef6816127e3565b94506020860135612f06816127e3565b935060408601359250606086013567ffffffffffffffff80821115612f2a57600080fd5b818801915088601f830112612f3e57600080fd5b813581811115612f4d57600080fd5b896020828501011115612f5f57600080fd5b9699959850939650602001949392505050565b600060208284031215612f8457600080fd5b5035919050565b600060208284031215612f9d57600080fd5b813567ffffffffffffffff811115612fb457600080fd5b8201610180818503121561257157600080fd5b60005b83811015612fe2578181015183820152602001612fca565b50506000910152565b60008151808452613003816020860160208601612fc7565b601f017fffffffffffffffffffffffffffffffffffffffffffffffffffffffffffffffe0169290920160200192915050565b600082825180855260208086019550808260051b84010181860160005b84811015612943578583037fffffffffffffffffffffffffffffffffffffffffffffffffffffffffffffffe00189528151805173ffffffffffffffffffffffffffffffffffffffff16845284810151858501526040908101516060918501829052906130c081860183612feb565b9a86019a9450505090830190600101613052565b8281526040602082015260006130ed6040830184613035565b949350505050565b6020815260006125716020830184613035565b6000806040838503121561311b57600080fd5b82359150602083013561312d816127e3565b809150509250929050565b60006020828403121561314a57600080fd5b813567ffffffffffffffff81111561316157600080fd5b82016101a0818503121561257157600080fd5b60006080820186835260208681850152604086604086015260606080606087015283875180865260a08801915060a08160051b890101955084890160005b8281101561322d578988037fffffffffffffffffffffffffffffffffffffffffffffffffffffffffffffff600184528151805173ffffffffffffffffffffffffffffffffffffffff16895287810151888a015286015186890186905261321a868a0182612feb565b98505092860192908601906001016131b2565b50959c9b505050505050505050505050565b60008060006060848603121561325457600080fd5b83359250602084013567ffffffffffffffff8082111561327357600080fd5b818601915086601f83011261328757600080fd5b613296878335602085016126ce565b935060408601359150808211156132ac57600080fd5b506132b986828701612bb0565b9150509250925092565b6000602082840312156132d557600080fd5b8151612571816127e3565b80356132eb816127e3565b73ffffffffffffffffffffffffffffffffffffffff1682526020818101359083015260408082013590830152606090810135910152565b60008083357fffffffffffffffffffffffffffffffffffffffffffffffffffffffffffffffe184360301811261335757600080fd5b830160208101925035905067ffffffffffffffff81111561337757600080fd5b80360382131561338657600080fd5b9250929050565b8183528181602085013750600060208284010152600060207fffffffffffffffffffffffffffffffffffffffffffffffffffffffffffffffe0601f840116840101905092915050565b60208152613404602082016133ea84612808565b73ffffffffffffffffffffffffffffffffffffffff169052565b600061341260208401612808565b73ffffffffffffffffffffffffffffffffffffffff811660408401525061343f60608301604085016132e0565b60c083013560e083015261010060e084013581840152613460818501612808565b90506101206134868185018373ffffffffffffffffffffffffffffffffffffffff169052565b610140915080850135828501525061016081850135818501526134ab81860186613322565b61018086810152925090506103986101a08501838361338d565b60008060408084860312156134d957600080fd5b8351925060208085015167ffffffffffffffff808211156134f957600080fd5b818701915087601f83011261350d57600080fd5b815161351b6126dc82612813565b81815260059190911b8301840190848101908a83111561353a57600080fd5b8585015b838110156136195780518581111561355557600080fd5b86016060818e037fffffffffffffffffffffffffffffffffffffffffffffffffffffffffffffffe001121561358a5760008081fd5b613592612616565b8882015161359f816127e3565b8152818a0151898201526060820151878111156135bc5760008081fd5b8083019250508d603f8301126135d25760008081fd5b888201516135e26126dc82612688565b8181528f8c8386010111156135f75760008081fd5b613606828c83018e8701612fc7565b828c01525084525091860191860161353e565b50809750505050505050509250929050565b600181811c9082168061363f57607f821691505b602082108103613678577f4e487b7100000000000000000000000000000000000000000000000000000000600052602260045260246000fd5b50919050565b7f4e487b7100000000000000000000000000000000000000000000000000000000600052601160045260246000fd5b808201808211156103815761038161367e565b7f4e487b7100000000000000000000000000000000000000000000000000000000600052603260045260246000fd5b6000602080838503121561370257600080fd5b825167ffffffffffffffff81111561371957600080fd5b8301601f8101851361372a57600080fd5b80516137386126dc82612813565b81815260059190911b8201830190838101908783111561375757600080fd5b928401925b8284101561377e57835161376f816127e3565b8252928401929084019061375c565b979650505050505050565b60006020828403121561379b57600080fd5b8135612571816127e3565b6000602082840312156137b857600080fd5b8151801515811461257157600080fd5b60006080820173ffffffffffffffffffffffffffffffffffffffff80881684526020818816602086015286604086015260806060860152829150855480845260a086019250866000526020600020935060005b818110156138375784548452600194850194938301930161381b565b50919998505050505050505050565b7fffffffffffffffffffffffffffffffffffffffff0000000000000000000000008460601b16815260008351613883816014850160208801612fc7565b60149201918201929092526034019392505050565b600082825180855260208086019550808260051b8401018186016000805b85811015613980578684037fffffffffffffffffffffffffffffffffffffffffffffffffffffffffffffffe0018a528251805173ffffffffffffffffffffffffffffffffffffffff908116865290860151604087870181905281518188018190529188019290916060919082890190875b818110156139685786518051851684528c81015163ffffffff168d8501528681015185168785015285015185840152958b0195608090920191600101613927565b50509d89019d975050509386019350506001016138b6565b509198975050505050505050565b8381528260208201526060604082015260006103986060830184613898565b60008151604084526139c26040850182613898565b602093840151949093019390935250919050565b6060815260006139e96060830186612feb565b82810360208401526139fb81866139ad565b91505073ffffffffffffffffffffffffffffffffffffffff83166040830152949350505050565b600073ffffffffffffffffffffffffffffffffffffffff808516835260206040602085015260a0840182865116604086015260208601516060860152604086015192506060608086015280835180835260c087019150602085019450600092505b80831015613aa35784518252938301936001929092019190830190613a83565b50979650505050505050565b7f2400000000000000000000000000000000000000000000000000000000000000815260008251613ae7816001850160208701612fc7565b7f207265766e6574206465706c6f796564000000000000000000000000000000006001939091019283015250601101919050565b8051825260208101516020830152604081015160408301526060810151613b46606084018215159052565b506080810151613b5a608084018215159052565b5060a0810151613b6e60a084018215159052565b5060c0810151613b8260c084018215159052565b5060e0810151613b9660e084018215159052565b5061010081810151151590830152610120808201511515908301526101408082015115159083015261016080820151151590830152610180808201511515908301526101a0808201511515908301526101c08082015173ffffffffffffffffffffffffffffffffffffffff16908301526101e090810151910152565b600082825180855260208086019550808260051b8401018186016000805b85811015613980578684037fffffffffffffffffffffffffffffffffffffffffffffffffffffffffffffffe0018a52825180518552850151604086860181905281518187018190529187019160609081880190865b81811015613cec5785518051151584528b8101518c85015285810151868501528481015173ffffffffffffffffffffffffffffffffffffffff908116868601526080808301519086015260a0918201511690840152948a019460c090920191600101613c85565b50509c88019c965050509285019250600101613c30565b60008151808452602080850194506020840160005b83811015613d3f578151805188528301518388015260409096019590820190600101613d18565b509495945050505050565b600082825180855260208086019550808260051b84010181860160005b84811015612943577fffffffffffffffffffffffffffffffffffffffffffffffffffffffffffffffe08684030189528151608073ffffffffffffffffffffffffffffffffffffffff80835116865280878401511687870152506040808301518282880152613dd783880182613d03565b9250505060608083015192508582038187015250613df58183613d03565b9a86019a9450505090830190600101613d67565b600082825180855260208086019550808260051b84010181860160005b84811015612943577fffffffffffffffffffffffffffffffffffffffffffffffffffffffffffffffe08684030189528151805184528481015185850152604080820151908501526060808201519085015260808082015173ffffffffffffffffffffffffffffffffffffffff169085015260a0808201516102e09190613eae82880182613b1b565b505060c0820151816102a0870152613ec882870182613c12565b91505060e082015191508481036102c0860152613ee58183613d4a565b9a86019a9450505090830190600101613e26565b600082825180855260208086019550808260051b8401018186016000805b85811015613980578684037fffffffffffffffffffffffffffffffffffffffffffffffffffffffffffffffe0018a528251805173ffffffffffffffffffffffffffffffffffffffff908116865290860151604087870181905281519087018190529087019160608701918591905b80831015613fa757845182168452938901939289019260019290920191613f85565b5050509a86019a94505091840191600101613f17565b73ffffffffffffffffffffffffffffffffffffffff8616815260a060208201526000613fec60a0830187612feb565b8281036040840152613ffe8187613e09565b905082810360608401526140128186613ef9565b905082810360808401526140268185612feb565b98975050505050505050565b60006020828403121561404457600080fd5b5051919050565b8481526080602082015260006140646080830186612feb565b82810360408401526140768186612feb565b91505082606083015295945050505050565b600060608083018684526020868186015260406060604087015282875180855260808801915060808160051b890101945083890160005b82811015614191578987037fffffffffffffffffffffffffffffffffffffffffffffffffffffffffffffff800184528151805188528601518688018690528051868901819052908701906000908a8a01905b8083101561417c5783518051151583528a8101518b840152898101518a8401528c81015173ffffffffffffffffffffffffffffffffffffffff9081168e8501526080808301519085015260a0918201511690830152928901926001929092019160c090910190614111565b509850505092850192908501906001016140bf565b50949b9a5050505050505050505050565b7f24000000000000000000000000000000000000000000000000000000000000008152600082516141da816001850160208701612fc7565b7f207072656d696e746564000000000000000000000000000000000000000000006001939091019283015250600b01919050565b85815284602082015273ffffffffffffffffffffffffffffffffffffffff8416604082015260a06060820152600061424960a0830185612feb565b905082151560808301529695505050505050565b60008151808452602080850194506020840160005b83811015613d3f578151805164ffffffffff90811689528482015161ffff908116868b01526040808401516dffffffffffffffffffffffffffff16908b0152606080840151909216918a019190915260808083015163ffffffff16908a015260a091820151169088015260c09096019590820190600101614272565b6000604080840173ffffffffffffffffffffffffffffffffffffffff8085511686526020808601516040828901528381518086526060955060608a019150838301925060005b8181101561437c5783518051871684528581015162ffffff16868501528881015163ffffffff9081168a86015290880151168784015292840192608090920191600101614334565b50909998505050505050505050565b60006101008083528a5160c0828501528051915060806101c08501526143b5610240850183612feb565b915060208101517ffffffffffffffffffffffffffffffffffffffffffffffffffffffffffffffe4080868503016101e08701526143f28483612feb565b9350604083015191508086850301610200870152506144118382612feb565b92505060608101516102208501525060208b015161443861012085018263ffffffff169052565b5060408b015161014084015260608b015161016084015260808b015173ffffffffffffffffffffffffffffffffffffffff1661018084015260a08b01518382037fffffffffffffffffffffffffffffffffffffffffffffffffffffffffffffff00016101a08501526144aa828261425d565b91505082810360208401526144bf818b613ef9565b905082810360408401526144d3818a6142ee565b905082810360608401526144e781896139ad565b905082810360808401526144fb8188613e09565b905082810360a084015261450f8187612feb565b91505061452060c083018515159052565b73ffffffffffffffffffffffffffffffffffffffff831660e08301529998505050505050505050565b818103818111156103815761038161367e565b6000835161456e818460208801612fc7565b835190830190614582818360208801612fc7565b01949350505050565b63ffffffff8616815284602082015260a0604082015260006145b060a0830186612feb565b82810360608401526145c28186612feb565b915050826080830152969550505050505056fea2646970667358221220afb4f64377739909f65a281507a6bf8d950bd6036815ea12125021b6866404d064736f6c63430008170033",
			"devdoc": {
				"kind": "dev",
				"methods": {
					"beforePayRecordedWith((address,address,(address,uint256,uint256,uint256),uint256,uint256,address,uint256,uint256,bytes))": {
						"details": "Part of IJBFundingCycleDataSource.This implementation just sets this contract up to receive a `didPay` call.",
						"params": {
							"context": "The Juicebox standard network payment context. See"
						},
						"returns": {
							"hookSpecifications": "Amount to be sent to pay hooks instead of adding to local balance. Useful for auto-routing funds from a treasury as payment come in.",
							"weight": "The weight that network tokens should get minted relative to. This is useful for optionally customizing how many tokens are issued per payment."
						}
					},
					"constructor": {
						"params": {
							"controller": "The controller that revnets are made from.",
							"suckerRegistry": "The registry that deploys and tracks each project's suckers."
						}
					},
					"deployRevnetWith(((string,string,string,bytes32),uint32,uint256,uint256,address,(uint40,uint16,uint112,uint40,uint32,uint16)[]),(address,address[])[],(address,(address,uint24,uint32,uint32)[]),((address,(address,uint32,address,uint256)[])[],bytes32))": {
						"params": {
							"buybackHookConfiguration": "Data used for setting up the buyback hook to use when determining the best price for new participants.",
							"configuration": "The data needed to deploy a basic revnet.",
							"suckerDeploymentConfiguration": "Information about how this revnet relates to other's across chains.",
							"terminalConfigurations": "The terminals that the network uses to accept payments through."
						},
						"returns": {
							"revnetId": "The ID of the newly created revnet."
						}
					},
					"deploySuckersFor(uint256,bytes,((address,(address,uint32,address,uint256)[])[],bytes32))": {
						"params": {
							"encodedConfiguration": "A bytes representation of the revnet's configuration.",
							"revnetId": "The ID of the revnet having new suckers deployed.",
							"suckerDeploymentConfiguration": "The specifics about the suckers being deployed."
						}
					},
					"hasMintPermissionFor(uint256,address)": {
						"params": {
							"addr": "The address to check if has permissions.",
							"revnetId": "The ID of the revnet to check permissions for."
						},
						"returns": {
							"_0": "flag The flag indicating if the address has permissions to mint on the revnet's behalf."
						}
					},
					"onERC721Received(address,address,uint256,bytes)": {
						"details": "Make sure only mints can be received."
					},
					"payHookSpecificationsOf(uint256)": {
						"params": {
							"revnetId": "The ID of the revnet to which the extensions apply."
						},
						"returns": {
							"_0": "payHookSpecifications The pay hooks."
						}
					},
					"replaceSplitOperatorOf(uint256,address)": {
						"params": {
							"newSplitOperator": "The address of the new split operator.",
							"revnetId": "The ID of the revnet having its operator replaced."
						}
					},
					"supportsInterface(bytes4)": {
						"details": "See {IERC165-supportsInterface}.",
						"params": {
							"interfaceId": "The ID of the interface to check for adherence to."
						},
						"returns": {
							"_0": "A flag indicating if the provided interface ID is supported."
						}
					}
				},
				"version": 1
			},
			"userdoc": {
				"kind": "user",
				"methods": {
					"CONTROLLER()": {
						"notice": "The controller that networks are made from."
					},
					"EXIT_DELAY()": {
						"notice": "The amount of time from a sucker being deployed to when it can facilitate exits."
					},
					"SUCKER_REGISTRY()": {
						"notice": "The registry that deploys and tracks each project's suckers."
					},
					"beforePayRecordedWith((address,address,(address,uint256,uint256,uint256),uint256,uint256,address,uint256,uint256,bytes))": {
						"notice": "This function gets called when the revnet receives a payment."
					},
					"beforeRedeemRecordedWith((address,address,uint256,uint256,uint256,uint256,(address,uint256,uint256,uint256),bool,uint256,bytes))": {
						"notice": "This function is never called, it needs to be included to adhere to the interface."
					},
					"buybackHookOf(uint256)": {
						"notice": "The data hook that returns the correct values for the buyback hook of each network."
					},
					"deployRevnetWith(((string,string,string,bytes32),uint32,uint256,uint256,address,(uint40,uint16,uint112,uint40,uint32,uint16)[]),(address,address[])[],(address,(address,uint24,uint32,uint32)[]),((address,(address,uint32,address,uint256)[])[],bytes32))": {
						"notice": "Deploy a basic revnet."
					},
					"deploySuckersFor(uint256,bytes,((address,(address,uint32,address,uint256)[])[],bytes32))": {
						"notice": "Allows a revnet's split operator to deploy new suckers to the revnet after it's deployed."
					},
					"exitDelayOf(uint256)": {
						"notice": "The time at which exits from a revnet become allowed."
					},
					"hasMintPermissionFor(uint256,address)": {
						"notice": "Required by the IJBRulesetDataHook interfaces."
					},
					"payHookSpecificationsOf(uint256)": {
						"notice": "The pay hooks to include during payments to networks."
					},
					"replaceSplitOperatorOf(uint256,address)": {
						"notice": "A revnet's operator can replace itself."
					},
					"supportsInterface(bytes4)": {
						"notice": "Indicates if this contract adheres to the specified interface."
					}
				},
				"version": 1
			},
			"gitCommit": "a807dff8ab1a606db5f42d11f777b9f50de04c8d",
			"sourceName": "src/REVBasicDeployer.sol",
			"chainId": "11155111",
			"linkReferences": {},
			"deployedLinkReferences": {}
		},
		{
			"_format": "sphinx-sol-ct-artifact-1",
			"merkleRoot": "0xe58da842fca91cd8533d4603cbbffa0cfe43bdd3d16e6ae8df7b32caf37fa0f7",
			"contractName": "REVBasicDeployer",
			"address": "0xD09Fe91BFAeb3e301d44B1705b8E5014B42A4AB9",
			"abi": [
				{
					"type": "constructor",
					"inputs": [
						{
							"name": "controller",
							"type": "address",
							"internalType": "contract IJBController"
						},
						{
							"name": "suckerRegistry",
							"type": "address",
							"internalType": "contract IBPSuckerRegistry"
						},
						{
							"name": "trustedForwarder",
							"type": "address",
							"internalType": "address"
						}
					],
					"stateMutability": "nonpayable"
				},
				{
					"type": "function",
					"name": "CONTROLLER",
					"inputs": [],
					"outputs": [
						{
							"name": "",
							"type": "address",
							"internalType": "contract IJBController"
						}
					],
					"stateMutability": "view"
				},
				{
					"type": "function",
					"name": "EXIT_DELAY",
					"inputs": [],
					"outputs": [
						{
							"name": "",
							"type": "uint256",
							"internalType": "uint256"
						}
					],
					"stateMutability": "view"
				},
				{
					"type": "function",
					"name": "SUCKER_REGISTRY",
					"inputs": [],
					"outputs": [
						{
							"name": "",
							"type": "address",
							"internalType": "contract IBPSuckerRegistry"
						}
					],
					"stateMutability": "view"
				},
				{
					"type": "function",
					"name": "beforePayRecordedWith",
					"inputs": [
						{
							"name": "context",
							"type": "tuple",
							"internalType": "struct JBBeforePayRecordedContext",
							"components": [
								{
									"name": "terminal",
									"type": "address",
									"internalType": "address"
								},
								{
									"name": "payer",
									"type": "address",
									"internalType": "address"
								},
								{
									"name": "amount",
									"type": "tuple",
									"internalType": "struct JBTokenAmount",
									"components": [
										{
											"name": "token",
											"type": "address",
											"internalType": "address"
										},
										{
											"name": "value",
											"type": "uint256",
											"internalType": "uint256"
										},
										{
											"name": "decimals",
											"type": "uint256",
											"internalType": "uint256"
										},
										{
											"name": "currency",
											"type": "uint256",
											"internalType": "uint256"
										}
									]
								},
								{
									"name": "projectId",
									"type": "uint256",
									"internalType": "uint256"
								},
								{
									"name": "rulesetId",
									"type": "uint256",
									"internalType": "uint256"
								},
								{
									"name": "beneficiary",
									"type": "address",
									"internalType": "address"
								},
								{
									"name": "weight",
									"type": "uint256",
									"internalType": "uint256"
								},
								{
									"name": "reservedRate",
									"type": "uint256",
									"internalType": "uint256"
								},
								{
									"name": "metadata",
									"type": "bytes",
									"internalType": "bytes"
								}
							]
						}
					],
					"outputs": [
						{
							"name": "weight",
							"type": "uint256",
							"internalType": "uint256"
						},
						{
							"name": "hookSpecifications",
							"type": "tuple[]",
							"internalType": "struct JBPayHookSpecification[]",
							"components": [
								{
									"name": "hook",
									"type": "address",
									"internalType": "contract IJBPayHook"
								},
								{
									"name": "amount",
									"type": "uint256",
									"internalType": "uint256"
								},
								{
									"name": "metadata",
									"type": "bytes",
									"internalType": "bytes"
								}
							]
						}
					],
					"stateMutability": "view"
				},
				{
					"type": "function",
					"name": "beforeRedeemRecordedWith",
					"inputs": [
						{
							"name": "context",
							"type": "tuple",
							"internalType": "struct JBBeforeRedeemRecordedContext",
							"components": [
								{
									"name": "terminal",
									"type": "address",
									"internalType": "address"
								},
								{
									"name": "holder",
									"type": "address",
									"internalType": "address"
								},
								{
									"name": "projectId",
									"type": "uint256",
									"internalType": "uint256"
								},
								{
									"name": "rulesetId",
									"type": "uint256",
									"internalType": "uint256"
								},
								{
									"name": "redeemCount",
									"type": "uint256",
									"internalType": "uint256"
								},
								{
									"name": "totalSupply",
									"type": "uint256",
									"internalType": "uint256"
								},
								{
									"name": "surplus",
									"type": "tuple",
									"internalType": "struct JBTokenAmount",
									"components": [
										{
											"name": "token",
											"type": "address",
											"internalType": "address"
										},
										{
											"name": "value",
											"type": "uint256",
											"internalType": "uint256"
										},
										{
											"name": "decimals",
											"type": "uint256",
											"internalType": "uint256"
										},
										{
											"name": "currency",
											"type": "uint256",
											"internalType": "uint256"
										}
									]
								},
								{
									"name": "useTotalSurplus",
									"type": "bool",
									"internalType": "bool"
								},
								{
									"name": "redemptionRate",
									"type": "uint256",
									"internalType": "uint256"
								},
								{
									"name": "metadata",
									"type": "bytes",
									"internalType": "bytes"
								}
							]
						}
					],
					"outputs": [
						{
							"name": "",
							"type": "uint256",
							"internalType": "uint256"
						},
						{
							"name": "",
							"type": "uint256",
							"internalType": "uint256"
						},
						{
							"name": "",
							"type": "uint256",
							"internalType": "uint256"
						},
						{
							"name": "specifications",
							"type": "tuple[]",
							"internalType": "struct JBRedeemHookSpecification[]",
							"components": [
								{
									"name": "hook",
									"type": "address",
									"internalType": "contract IJBRedeemHook"
								},
								{
									"name": "amount",
									"type": "uint256",
									"internalType": "uint256"
								},
								{
									"name": "metadata",
									"type": "bytes",
									"internalType": "bytes"
								}
							]
						}
					],
					"stateMutability": "view"
				},
				{
					"type": "function",
					"name": "buybackHookOf",
					"inputs": [
						{
							"name": "revnetId",
							"type": "uint256",
							"internalType": "uint256"
						}
					],
					"outputs": [
						{
							"name": "buybackHook",
							"type": "address",
							"internalType": "contract IJBRulesetDataHook"
						}
					],
					"stateMutability": "view"
				},
				{
					"type": "function",
					"name": "deployRevnetWith",
					"inputs": [
						{
							"name": "configuration",
							"type": "tuple",
							"internalType": "struct REVConfig",
							"components": [
								{
									"name": "description",
									"type": "tuple",
									"internalType": "struct REVDescription",
									"components": [
										{
											"name": "name",
											"type": "string",
											"internalType": "string"
										},
										{
											"name": "ticker",
											"type": "string",
											"internalType": "string"
										},
										{
											"name": "uri",
											"type": "string",
											"internalType": "string"
										},
										{
											"name": "salt",
											"type": "bytes32",
											"internalType": "bytes32"
										}
									]
								},
								{
									"name": "baseCurrency",
									"type": "uint32",
									"internalType": "uint32"
								},
								{
									"name": "premintTokenAmount",
									"type": "uint256",
									"internalType": "uint256"
								},
								{
									"name": "premintChainId",
									"type": "uint256",
									"internalType": "uint256"
								},
								{
									"name": "initialSplitOperator",
									"type": "address",
									"internalType": "address"
								},
								{
									"name": "stageConfigurations",
									"type": "tuple[]",
									"internalType": "struct REVStageConfig[]",
									"components": [
										{
											"name": "startsAtOrAfter",
											"type": "uint40",
											"internalType": "uint40"
										},
										{
											"name": "splitRate",
											"type": "uint16",
											"internalType": "uint16"
										},
										{
											"name": "initialIssuanceRate",
											"type": "uint112",
											"internalType": "uint112"
										},
										{
											"name": "priceCeilingIncreaseFrequency",
											"type": "uint40",
											"internalType": "uint40"
										},
										{
											"name": "priceCeilingIncreasePercentage",
											"type": "uint32",
											"internalType": "uint32"
										},
										{
											"name": "priceFloorTaxIntensity",
											"type": "uint16",
											"internalType": "uint16"
										}
									]
								}
							]
						},
						{
							"name": "terminalConfigurations",
							"type": "tuple[]",
							"internalType": "struct JBTerminalConfig[]",
							"components": [
								{
									"name": "terminal",
									"type": "address",
									"internalType": "contract IJBTerminal"
								},
								{
									"name": "tokensToAccept",
									"type": "address[]",
									"internalType": "address[]"
								}
							]
						},
						{
							"name": "buybackHookConfiguration",
							"type": "tuple",
							"internalType": "struct REVBuybackHookConfig",
							"components": [
								{
									"name": "hook",
									"type": "address",
									"internalType": "contract IJBBuybackHook"
								},
								{
									"name": "poolConfigurations",
									"type": "tuple[]",
									"internalType": "struct REVBuybackPoolConfig[]",
									"components": [
										{
											"name": "token",
											"type": "address",
											"internalType": "address"
										},
										{
											"name": "fee",
											"type": "uint24",
											"internalType": "uint24"
										},
										{
											"name": "twapWindow",
											"type": "uint32",
											"internalType": "uint32"
										},
										{
											"name": "twapSlippageTolerance",
											"type": "uint32",
											"internalType": "uint32"
										}
									]
								}
							]
						},
						{
							"name": "suckerDeploymentConfiguration",
							"type": "tuple",
							"internalType": "struct REVSuckerDeploymentConfig",
							"components": [
								{
									"name": "deployerConfigurations",
									"type": "tuple[]",
									"internalType": "struct BPSuckerDeployerConfig[]",
									"components": [
										{
											"name": "deployer",
											"type": "address",
											"internalType": "contract IBPSuckerDeployer"
										},
										{
											"name": "mappings",
											"type": "tuple[]",
											"internalType": "struct BPTokenMapping[]",
											"components": [
												{
													"name": "localToken",
													"type": "address",
													"internalType": "address"
												},
												{
													"name": "minGas",
													"type": "uint32",
													"internalType": "uint32"
												},
												{
													"name": "remoteToken",
													"type": "address",
													"internalType": "address"
												},
												{
													"name": "minBridgeAmount",
													"type": "uint256",
													"internalType": "uint256"
												}
											]
										}
									]
								},
								{
									"name": "salt",
									"type": "bytes32",
									"internalType": "bytes32"
								}
							]
						}
					],
					"outputs": [
						{
							"name": "",
							"type": "uint256",
							"internalType": "uint256"
						}
					],
					"stateMutability": "nonpayable"
				},
				{
					"type": "function",
					"name": "deploySuckersFor",
					"inputs": [
						{
							"name": "revnetId",
							"type": "uint256",
							"internalType": "uint256"
						},
						{
							"name": "encodedConfiguration",
							"type": "bytes",
							"internalType": "bytes"
						},
						{
							"name": "suckerDeploymentConfiguration",
							"type": "tuple",
							"internalType": "struct REVSuckerDeploymentConfig",
							"components": [
								{
									"name": "deployerConfigurations",
									"type": "tuple[]",
									"internalType": "struct BPSuckerDeployerConfig[]",
									"components": [
										{
											"name": "deployer",
											"type": "address",
											"internalType": "contract IBPSuckerDeployer"
										},
										{
											"name": "mappings",
											"type": "tuple[]",
											"internalType": "struct BPTokenMapping[]",
											"components": [
												{
													"name": "localToken",
													"type": "address",
													"internalType": "address"
												},
												{
													"name": "minGas",
													"type": "uint32",
													"internalType": "uint32"
												},
												{
													"name": "remoteToken",
													"type": "address",
													"internalType": "address"
												},
												{
													"name": "minBridgeAmount",
													"type": "uint256",
													"internalType": "uint256"
												}
											]
										}
									]
								},
								{
									"name": "salt",
									"type": "bytes32",
									"internalType": "bytes32"
								}
							]
						}
					],
					"outputs": [],
					"stateMutability": "nonpayable"
				},
				{
					"type": "function",
					"name": "exitDelayOf",
					"inputs": [
						{
							"name": "revnetId",
							"type": "uint256",
							"internalType": "uint256"
						}
					],
					"outputs": [
						{
							"name": "exitDelay",
							"type": "uint256",
							"internalType": "uint256"
						}
					],
					"stateMutability": "view"
				},
				{
					"type": "function",
					"name": "hasMintPermissionFor",
					"inputs": [
						{
							"name": "revnetId",
							"type": "uint256",
							"internalType": "uint256"
						},
						{
							"name": "addr",
							"type": "address",
							"internalType": "address"
						}
					],
					"outputs": [
						{
							"name": "",
							"type": "bool",
							"internalType": "bool"
						}
					],
					"stateMutability": "view"
				},
				{
					"type": "function",
					"name": "isTrustedForwarder",
					"inputs": [
						{
							"name": "forwarder",
							"type": "address",
							"internalType": "address"
						}
					],
					"outputs": [
						{
							"name": "",
							"type": "bool",
							"internalType": "bool"
						}
					],
					"stateMutability": "view"
				},
				{
					"type": "function",
					"name": "launchRevnetFor",
					"inputs": [
						{
							"name": "revnetId",
							"type": "uint256",
							"internalType": "uint256"
						},
						{
							"name": "configuration",
							"type": "tuple",
							"internalType": "struct REVConfig",
							"components": [
								{
									"name": "description",
									"type": "tuple",
									"internalType": "struct REVDescription",
									"components": [
										{
											"name": "name",
											"type": "string",
											"internalType": "string"
										},
										{
											"name": "ticker",
											"type": "string",
											"internalType": "string"
										},
										{
											"name": "uri",
											"type": "string",
											"internalType": "string"
										},
										{
											"name": "salt",
											"type": "bytes32",
											"internalType": "bytes32"
										}
									]
								},
								{
									"name": "baseCurrency",
									"type": "uint32",
									"internalType": "uint32"
								},
								{
									"name": "premintTokenAmount",
									"type": "uint256",
									"internalType": "uint256"
								},
								{
									"name": "premintChainId",
									"type": "uint256",
									"internalType": "uint256"
								},
								{
									"name": "initialSplitOperator",
									"type": "address",
									"internalType": "address"
								},
								{
									"name": "stageConfigurations",
									"type": "tuple[]",
									"internalType": "struct REVStageConfig[]",
									"components": [
										{
											"name": "startsAtOrAfter",
											"type": "uint40",
											"internalType": "uint40"
										},
										{
											"name": "splitRate",
											"type": "uint16",
											"internalType": "uint16"
										},
										{
											"name": "initialIssuanceRate",
											"type": "uint112",
											"internalType": "uint112"
										},
										{
											"name": "priceCeilingIncreaseFrequency",
											"type": "uint40",
											"internalType": "uint40"
										},
										{
											"name": "priceCeilingIncreasePercentage",
											"type": "uint32",
											"internalType": "uint32"
										},
										{
											"name": "priceFloorTaxIntensity",
											"type": "uint16",
											"internalType": "uint16"
										}
									]
								}
							]
						},
						{
							"name": "terminalConfigurations",
							"type": "tuple[]",
							"internalType": "struct JBTerminalConfig[]",
							"components": [
								{
									"name": "terminal",
									"type": "address",
									"internalType": "contract IJBTerminal"
								},
								{
									"name": "tokensToAccept",
									"type": "address[]",
									"internalType": "address[]"
								}
							]
						},
						{
							"name": "buybackHookConfiguration",
							"type": "tuple",
							"internalType": "struct REVBuybackHookConfig",
							"components": [
								{
									"name": "hook",
									"type": "address",
									"internalType": "contract IJBBuybackHook"
								},
								{
									"name": "poolConfigurations",
									"type": "tuple[]",
									"internalType": "struct REVBuybackPoolConfig[]",
									"components": [
										{
											"name": "token",
											"type": "address",
											"internalType": "address"
										},
										{
											"name": "fee",
											"type": "uint24",
											"internalType": "uint24"
										},
										{
											"name": "twapWindow",
											"type": "uint32",
											"internalType": "uint32"
										},
										{
											"name": "twapSlippageTolerance",
											"type": "uint32",
											"internalType": "uint32"
										}
									]
								}
							]
						},
						{
							"name": "suckerDeploymentConfiguration",
							"type": "tuple",
							"internalType": "struct REVSuckerDeploymentConfig",
							"components": [
								{
									"name": "deployerConfigurations",
									"type": "tuple[]",
									"internalType": "struct BPSuckerDeployerConfig[]",
									"components": [
										{
											"name": "deployer",
											"type": "address",
											"internalType": "contract IBPSuckerDeployer"
										},
										{
											"name": "mappings",
											"type": "tuple[]",
											"internalType": "struct BPTokenMapping[]",
											"components": [
												{
													"name": "localToken",
													"type": "address",
													"internalType": "address"
												},
												{
													"name": "minGas",
													"type": "uint32",
													"internalType": "uint32"
												},
												{
													"name": "remoteToken",
													"type": "address",
													"internalType": "address"
												},
												{
													"name": "minBridgeAmount",
													"type": "uint256",
													"internalType": "uint256"
												}
											]
										}
									]
								},
								{
									"name": "salt",
									"type": "bytes32",
									"internalType": "bytes32"
								}
							]
						}
					],
					"outputs": [
						{
							"name": "",
							"type": "uint256",
							"internalType": "uint256"
						}
					],
					"stateMutability": "nonpayable"
				},
				{
					"type": "function",
					"name": "onERC721Received",
					"inputs": [
						{
							"name": "operator",
							"type": "address",
							"internalType": "address"
						},
						{
							"name": "from",
							"type": "address",
							"internalType": "address"
						},
						{
							"name": "tokenId",
							"type": "uint256",
							"internalType": "uint256"
						},
						{
							"name": "data",
							"type": "bytes",
							"internalType": "bytes"
						}
					],
					"outputs": [
						{
							"name": "",
							"type": "bytes4",
							"internalType": "bytes4"
						}
					],
					"stateMutability": "view"
				},
				{
					"type": "function",
					"name": "payHookSpecificationsOf",
					"inputs": [
						{
							"name": "revnetId",
							"type": "uint256",
							"internalType": "uint256"
						}
					],
					"outputs": [
						{
							"name": "",
							"type": "tuple[]",
							"internalType": "struct JBPayHookSpecification[]",
							"components": [
								{
									"name": "hook",
									"type": "address",
									"internalType": "contract IJBPayHook"
								},
								{
									"name": "amount",
									"type": "uint256",
									"internalType": "uint256"
								},
								{
									"name": "metadata",
									"type": "bytes",
									"internalType": "bytes"
								}
							]
						}
					],
					"stateMutability": "view"
				},
				{
					"type": "function",
					"name": "replaceSplitOperatorOf",
					"inputs": [
						{
							"name": "revnetId",
							"type": "uint256",
							"internalType": "uint256"
						},
						{
							"name": "newSplitOperator",
							"type": "address",
							"internalType": "address"
						}
					],
					"outputs": [],
					"stateMutability": "nonpayable"
				},
				{
					"type": "function",
					"name": "supportsInterface",
					"inputs": [
						{
							"name": "interfaceId",
							"type": "bytes4",
							"internalType": "bytes4"
						}
					],
					"outputs": [
						{
							"name": "",
							"type": "bool",
							"internalType": "bool"
						}
					],
					"stateMutability": "view"
				},
				{
					"type": "function",
					"name": "trustedForwarder",
					"inputs": [],
					"outputs": [
						{
							"name": "",
							"type": "address",
							"internalType": "address"
						}
					],
					"stateMutability": "view"
				},
				{
					"type": "event",
					"name": "DeployRevnet",
					"inputs": [
						{
							"name": "revnetId",
							"type": "uint256",
							"indexed": true,
							"internalType": "uint256"
						},
						{
							"name": "configuration",
							"type": "tuple",
							"indexed": false,
							"internalType": "struct REVConfig",
							"components": [
								{
									"name": "description",
									"type": "tuple",
									"internalType": "struct REVDescription",
									"components": [
										{
											"name": "name",
											"type": "string",
											"internalType": "string"
										},
										{
											"name": "ticker",
											"type": "string",
											"internalType": "string"
										},
										{
											"name": "uri",
											"type": "string",
											"internalType": "string"
										},
										{
											"name": "salt",
											"type": "bytes32",
											"internalType": "bytes32"
										}
									]
								},
								{
									"name": "baseCurrency",
									"type": "uint32",
									"internalType": "uint32"
								},
								{
									"name": "premintTokenAmount",
									"type": "uint256",
									"internalType": "uint256"
								},
								{
									"name": "premintChainId",
									"type": "uint256",
									"internalType": "uint256"
								},
								{
									"name": "initialSplitOperator",
									"type": "address",
									"internalType": "address"
								},
								{
									"name": "stageConfigurations",
									"type": "tuple[]",
									"internalType": "struct REVStageConfig[]",
									"components": [
										{
											"name": "startsAtOrAfter",
											"type": "uint40",
											"internalType": "uint40"
										},
										{
											"name": "splitRate",
											"type": "uint16",
											"internalType": "uint16"
										},
										{
											"name": "initialIssuanceRate",
											"type": "uint112",
											"internalType": "uint112"
										},
										{
											"name": "priceCeilingIncreaseFrequency",
											"type": "uint40",
											"internalType": "uint40"
										},
										{
											"name": "priceCeilingIncreasePercentage",
											"type": "uint32",
											"internalType": "uint32"
										},
										{
											"name": "priceFloorTaxIntensity",
											"type": "uint16",
											"internalType": "uint16"
										}
									]
								}
							]
						},
						{
							"name": "terminalConfigurations",
							"type": "tuple[]",
							"indexed": false,
							"internalType": "struct JBTerminalConfig[]",
							"components": [
								{
									"name": "terminal",
									"type": "address",
									"internalType": "contract IJBTerminal"
								},
								{
									"name": "tokensToAccept",
									"type": "address[]",
									"internalType": "address[]"
								}
							]
						},
						{
							"name": "buybackHookConfiguration",
							"type": "tuple",
							"indexed": false,
							"internalType": "struct REVBuybackHookConfig",
							"components": [
								{
									"name": "hook",
									"type": "address",
									"internalType": "contract IJBBuybackHook"
								},
								{
									"name": "poolConfigurations",
									"type": "tuple[]",
									"internalType": "struct REVBuybackPoolConfig[]",
									"components": [
										{
											"name": "token",
											"type": "address",
											"internalType": "address"
										},
										{
											"name": "fee",
											"type": "uint24",
											"internalType": "uint24"
										},
										{
											"name": "twapWindow",
											"type": "uint32",
											"internalType": "uint32"
										},
										{
											"name": "twapSlippageTolerance",
											"type": "uint32",
											"internalType": "uint32"
										}
									]
								}
							]
						},
						{
							"name": "suckerDeploymentConfiguration",
							"type": "tuple",
							"indexed": false,
							"internalType": "struct REVSuckerDeploymentConfig",
							"components": [
								{
									"name": "deployerConfigurations",
									"type": "tuple[]",
									"internalType": "struct BPSuckerDeployerConfig[]",
									"components": [
										{
											"name": "deployer",
											"type": "address",
											"internalType": "contract IBPSuckerDeployer"
										},
										{
											"name": "mappings",
											"type": "tuple[]",
											"internalType": "struct BPTokenMapping[]",
											"components": [
												{
													"name": "localToken",
													"type": "address",
													"internalType": "address"
												},
												{
													"name": "minGas",
													"type": "uint32",
													"internalType": "uint32"
												},
												{
													"name": "remoteToken",
													"type": "address",
													"internalType": "address"
												},
												{
													"name": "minBridgeAmount",
													"type": "uint256",
													"internalType": "uint256"
												}
											]
										}
									]
								},
								{
									"name": "salt",
									"type": "bytes32",
									"internalType": "bytes32"
								}
							]
						},
						{
							"name": "rulesetConfigurations",
							"type": "tuple[]",
							"indexed": false,
							"internalType": "struct JBRulesetConfig[]",
							"components": [
								{
									"name": "mustStartAtOrAfter",
									"type": "uint256",
									"internalType": "uint256"
								},
								{
									"name": "duration",
									"type": "uint256",
									"internalType": "uint256"
								},
								{
									"name": "weight",
									"type": "uint256",
									"internalType": "uint256"
								},
								{
									"name": "decayRate",
									"type": "uint256",
									"internalType": "uint256"
								},
								{
									"name": "approvalHook",
									"type": "address",
									"internalType": "contract IJBRulesetApprovalHook"
								},
								{
									"name": "metadata",
									"type": "tuple",
									"internalType": "struct JBRulesetMetadata",
									"components": [
										{
											"name": "reservedRate",
											"type": "uint256",
											"internalType": "uint256"
										},
										{
											"name": "redemptionRate",
											"type": "uint256",
											"internalType": "uint256"
										},
										{
											"name": "baseCurrency",
											"type": "uint256",
											"internalType": "uint256"
										},
										{
											"name": "pausePay",
											"type": "bool",
											"internalType": "bool"
										},
										{
											"name": "pauseCreditTransfers",
											"type": "bool",
											"internalType": "bool"
										},
										{
											"name": "allowOwnerMinting",
											"type": "bool",
											"internalType": "bool"
										},
										{
											"name": "allowTerminalMigration",
											"type": "bool",
											"internalType": "bool"
										},
										{
											"name": "allowSetTerminals",
											"type": "bool",
											"internalType": "bool"
										},
										{
											"name": "allowControllerMigration",
											"type": "bool",
											"internalType": "bool"
										},
										{
											"name": "allowSetController",
											"type": "bool",
											"internalType": "bool"
										},
										{
											"name": "holdFees",
											"type": "bool",
											"internalType": "bool"
										},
										{
											"name": "useTotalSurplusForRedemptions",
											"type": "bool",
											"internalType": "bool"
										},
										{
											"name": "useDataHookForPay",
											"type": "bool",
											"internalType": "bool"
										},
										{
											"name": "useDataHookForRedeem",
											"type": "bool",
											"internalType": "bool"
										},
										{
											"name": "dataHook",
											"type": "address",
											"internalType": "address"
										},
										{
											"name": "metadata",
											"type": "uint256",
											"internalType": "uint256"
										}
									]
								},
								{
									"name": "splitGroups",
									"type": "tuple[]",
									"internalType": "struct JBSplitGroup[]",
									"components": [
										{
											"name": "groupId",
											"type": "uint256",
											"internalType": "uint256"
										},
										{
											"name": "splits",
											"type": "tuple[]",
											"internalType": "struct JBSplit[]",
											"components": [
												{
													"name": "preferAddToBalance",
													"type": "bool",
													"internalType": "bool"
												},
												{
													"name": "percent",
													"type": "uint256",
													"internalType": "uint256"
												},
												{
													"name": "projectId",
													"type": "uint256",
													"internalType": "uint256"
												},
												{
													"name": "beneficiary",
													"type": "address",
													"internalType": "address payable"
												},
												{
													"name": "lockedUntil",
													"type": "uint256",
													"internalType": "uint256"
												},
												{
													"name": "hook",
													"type": "address",
													"internalType": "contract IJBSplitHook"
												}
											]
										}
									]
								},
								{
									"name": "fundAccessLimitGroups",
									"type": "tuple[]",
									"internalType": "struct JBFundAccessLimitGroup[]",
									"components": [
										{
											"name": "terminal",
											"type": "address",
											"internalType": "address"
										},
										{
											"name": "token",
											"type": "address",
											"internalType": "address"
										},
										{
											"name": "payoutLimits",
											"type": "tuple[]",
											"internalType": "struct JBCurrencyAmount[]",
											"components": [
												{
													"name": "amount",
													"type": "uint256",
													"internalType": "uint256"
												},
												{
													"name": "currency",
													"type": "uint256",
													"internalType": "uint256"
												}
											]
										},
										{
											"name": "surplusAllowances",
											"type": "tuple[]",
											"internalType": "struct JBCurrencyAmount[]",
											"components": [
												{
													"name": "amount",
													"type": "uint256",
													"internalType": "uint256"
												},
												{
													"name": "currency",
													"type": "uint256",
													"internalType": "uint256"
												}
											]
										}
									]
								}
							]
						},
						{
							"name": "encodedConfiguration",
							"type": "bytes",
							"indexed": false,
							"internalType": "bytes"
						},
						{
							"name": "isInProgress",
							"type": "bool",
							"indexed": false,
							"internalType": "bool"
						},
						{
							"name": "caller",
							"type": "address",
							"indexed": false,
							"internalType": "address"
						}
					],
					"anonymous": false
				},
				{
					"type": "event",
					"name": "DeploySuckers",
					"inputs": [
						{
							"name": "revnetId",
							"type": "uint256",
							"indexed": true,
							"internalType": "uint256"
						},
						{
							"name": "salt",
							"type": "bytes32",
							"indexed": true,
							"internalType": "bytes32"
						},
						{
							"name": "encodedConfiguration",
							"type": "bytes",
							"indexed": false,
							"internalType": "bytes"
						},
						{
							"name": "suckerDeploymentConfiguration",
							"type": "tuple",
							"indexed": false,
							"internalType": "struct REVSuckerDeploymentConfig",
							"components": [
								{
									"name": "deployerConfigurations",
									"type": "tuple[]",
									"internalType": "struct BPSuckerDeployerConfig[]",
									"components": [
										{
											"name": "deployer",
											"type": "address",
											"internalType": "contract IBPSuckerDeployer"
										},
										{
											"name": "mappings",
											"type": "tuple[]",
											"internalType": "struct BPTokenMapping[]",
											"components": [
												{
													"name": "localToken",
													"type": "address",
													"internalType": "address"
												},
												{
													"name": "minGas",
													"type": "uint32",
													"internalType": "uint32"
												},
												{
													"name": "remoteToken",
													"type": "address",
													"internalType": "address"
												},
												{
													"name": "minBridgeAmount",
													"type": "uint256",
													"internalType": "uint256"
												}
											]
										}
									]
								},
								{
									"name": "salt",
									"type": "bytes32",
									"internalType": "bytes32"
								}
							]
						},
						{
							"name": "caller",
							"type": "address",
							"indexed": false,
							"internalType": "address"
						}
					],
					"anonymous": false
				},
				{
					"type": "event",
					"name": "ReplaceSplitOperator",
					"inputs": [
						{
							"name": "revnetId",
							"type": "uint256",
							"indexed": true,
							"internalType": "uint256"
						},
						{
							"name": "newSplitOperator",
							"type": "address",
							"indexed": true,
							"internalType": "address"
						},
						{
							"name": "caller",
							"type": "address",
							"indexed": false,
							"internalType": "address"
						}
					],
					"anonymous": false
				},
				{
					"type": "error",
					"name": "REVBasicDeployer_ExitDelayInEffect",
					"inputs": []
				},
				{
					"type": "error",
					"name": "REVBasicDeployer_Unauthorized",
					"inputs": []
				}
			],
			"solcInputHash": "777ee916626d1a456c9ef5d66174a88b",
			"receipt": {
				"blockHash": "0xaeb060d7b4b42dce3814380b8b3bd1bdebae1668e62c2311c2a9ed32cb381406",
				"blockNumber": 5623355,
				"contractAddress": null,
				"cumulativeGasUsed": "16732688",
				"from": "0xC034550B542b83BA1De312b21d1C94a9a52B1595",
				"gasPrice": "1000012288",
				"gasUsed": "9576278",
				"hash": "0x5739c35e84708442b951bb414794f00c0fbf07edfb4ce3604dffffcb1ed3b947",
				"index": 65,
				"logs": [
					{
						"address": "0xB5E96127D417b1B3ef8438496a38A143167209c7",
						"blockHash": "0xaeb060d7b4b42dce3814380b8b3bd1bdebae1668e62c2311c2a9ed32cb381406",
						"blockNumber": 5623355,
						"data": "0x0000000000000000000000000000000000000000000000000000000000000000",
						"index": 93,
						"topics": [
							"0x572f161235911da04685a68c06adf558fc7e4a36909dca394650e0adc19cc93d",
							"0x000000000000000000000000c034550b542b83ba1de312b21d1c94a9a52b1595",
							"0x00000000000000000000000018ed911dda49f125bbadd71f826f1cda550f20fe",
							"0x6d2d5fa9510cd4087aefbd18736c4ea6a78c5d72b4d1c58b80ce6f61a904d4a4"
						],
						"transactionHash": "0x5739c35e84708442b951bb414794f00c0fbf07edfb4ce3604dffffcb1ed3b947",
						"transactionIndex": 65
					},
					{
						"address": "0x15B51C7D9DBc4681e54f8b493187C9a2377bd81B",
						"blockHash": "0xaeb060d7b4b42dce3814380b8b3bd1bdebae1668e62c2311c2a9ed32cb381406",
						"blockNumber": 5623355,
						"data": "0x",
						"index": 94,
						"topics": [
							"0x6895c13664aa4f67288b25d7a21d7aaa34916e355fb9b6fae0a139a9085becb8",
							"0x00000000000000000000000018ed911dda49f125bbadd71f826f1cda550f20fe"
						],
						"transactionHash": "0x5739c35e84708442b951bb414794f00c0fbf07edfb4ce3604dffffcb1ed3b947",
						"transactionIndex": 65
					},
					{
						"address": "0x18Ed911ddA49f125bbadd71f826F1cDa550f20fE",
						"blockHash": "0xaeb060d7b4b42dce3814380b8b3bd1bdebae1668e62c2311c2a9ed32cb381406",
						"blockNumber": 5623355,
						"data": "0x0000000000000000000000000000000000000000000000000000000000000001",
						"index": 95,
						"topics": [
							"0xa65fb05c5808f5f389d72edeaf719ce38f4cc55c1f69ca3cbfb31c21501caa07",
							"0xe58da842fca91cd8533d4603cbbffa0cfe43bdd3d16e6ae8df7b32caf37fa0f7"
						],
						"transactionHash": "0x5739c35e84708442b951bb414794f00c0fbf07edfb4ce3604dffffcb1ed3b947",
						"transactionIndex": 65
					},
					{
						"address": "0x15B51C7D9DBc4681e54f8b493187C9a2377bd81B",
						"blockHash": "0xaeb060d7b4b42dce3814380b8b3bd1bdebae1668e62c2311c2a9ed32cb381406",
						"blockNumber": 5623355,
						"data": "0x",
						"index": 96,
						"topics": [
							"0x6895c13664aa4f67288b25d7a21d7aaa34916e355fb9b6fae0a139a9085becb8",
							"0x00000000000000000000000018ed911dda49f125bbadd71f826f1cda550f20fe"
						],
						"transactionHash": "0x5739c35e84708442b951bb414794f00c0fbf07edfb4ce3604dffffcb1ed3b947",
						"transactionIndex": 65
					},
					{
						"address": "0x18Ed911ddA49f125bbadd71f826F1cDa550f20fE",
						"blockHash": "0xaeb060d7b4b42dce3814380b8b3bd1bdebae1668e62c2311c2a9ed32cb381406",
						"blockNumber": 5623355,
						"data": "0x0000000000000000000000000000000000000000000000000000000000000002",
						"index": 97,
						"topics": [
							"0xa65fb05c5808f5f389d72edeaf719ce38f4cc55c1f69ca3cbfb31c21501caa07",
							"0xe58da842fca91cd8533d4603cbbffa0cfe43bdd3d16e6ae8df7b32caf37fa0f7"
						],
						"transactionHash": "0x5739c35e84708442b951bb414794f00c0fbf07edfb4ce3604dffffcb1ed3b947",
						"transactionIndex": 65
					},
					{
						"address": "0x18Ed911ddA49f125bbadd71f826F1cDa550f20fE",
						"blockHash": "0xaeb060d7b4b42dce3814380b8b3bd1bdebae1668e62c2311c2a9ed32cb381406",
						"blockNumber": 5623355,
						"data": "0x",
						"index": 98,
						"topics": [
							"0x4383d976757d67ca920616be0b6430a681ea9d3dcce8d6d61d4603ca4a9bff63",
							"0xe58da842fca91cd8533d4603cbbffa0cfe43bdd3d16e6ae8df7b32caf37fa0f7"
						],
						"transactionHash": "0x5739c35e84708442b951bb414794f00c0fbf07edfb4ce3604dffffcb1ed3b947",
						"transactionIndex": 65
					}
				],
				"logsBloom": "0x00000000080010001000000000080000000000000008000000000000404000000000000000000000000000001040000000200004000004000000000000000000100000000000200000000000000000000000000000000000000000000000001000000000000000000000000000000000000000000000000000000000000000000000000000000000000100000000000000000000008000000000008000000000004000800010000000000000000001020200000000000000000000000044000000000000040000000000000008002000000000000000000000000000000000010000000000000008000000000000000200000000000000000000000008000000",
				"status": 1,
				"to": "0xB5E96127D417b1B3ef8438496a38A143167209c7"
			},
			"metadata": "{\"compiler\":{\"version\":\"0.8.23+commit.f704f362\"},\"language\":\"Solidity\",\"output\":{\"abi\":[{\"inputs\":[{\"internalType\":\"contract IJBController\",\"name\":\"controller\",\"type\":\"address\"},{\"internalType\":\"contract IBPSuckerRegistry\",\"name\":\"suckerRegistry\",\"type\":\"address\"},{\"internalType\":\"address\",\"name\":\"trustedForwarder\",\"type\":\"address\"}],\"stateMutability\":\"nonpayable\",\"type\":\"constructor\"},{\"inputs\":[],\"type\":\"error\",\"name\":\"REVBasicDeployer_ExitDelayInEffect\"},{\"inputs\":[],\"type\":\"error\",\"name\":\"REVBasicDeployer_Unauthorized\"},{\"inputs\":[{\"internalType\":\"uint256\",\"name\":\"revnetId\",\"type\":\"uint256\",\"indexed\":true},{\"internalType\":\"struct REVConfig\",\"name\":\"configuration\",\"type\":\"tuple\",\"components\":[{\"internalType\":\"struct REVDescription\",\"name\":\"description\",\"type\":\"tuple\",\"components\":[{\"internalType\":\"string\",\"name\":\"name\",\"type\":\"string\"},{\"internalType\":\"string\",\"name\":\"ticker\",\"type\":\"string\"},{\"internalType\":\"string\",\"name\":\"uri\",\"type\":\"string\"},{\"internalType\":\"bytes32\",\"name\":\"salt\",\"type\":\"bytes32\"}]},{\"internalType\":\"uint32\",\"name\":\"baseCurrency\",\"type\":\"uint32\"},{\"internalType\":\"uint256\",\"name\":\"premintTokenAmount\",\"type\":\"uint256\"},{\"internalType\":\"uint256\",\"name\":\"premintChainId\",\"type\":\"uint256\"},{\"internalType\":\"address\",\"name\":\"initialSplitOperator\",\"type\":\"address\"},{\"internalType\":\"struct REVStageConfig[]\",\"name\":\"stageConfigurations\",\"type\":\"tuple[]\",\"components\":[{\"internalType\":\"uint40\",\"name\":\"startsAtOrAfter\",\"type\":\"uint40\"},{\"internalType\":\"uint16\",\"name\":\"splitRate\",\"type\":\"uint16\"},{\"internalType\":\"uint112\",\"name\":\"initialIssuanceRate\",\"type\":\"uint112\"},{\"internalType\":\"uint40\",\"name\":\"priceCeilingIncreaseFrequency\",\"type\":\"uint40\"},{\"internalType\":\"uint32\",\"name\":\"priceCeilingIncreasePercentage\",\"type\":\"uint32\"},{\"internalType\":\"uint16\",\"name\":\"priceFloorTaxIntensity\",\"type\":\"uint16\"}]}],\"indexed\":false},{\"internalType\":\"struct JBTerminalConfig[]\",\"name\":\"terminalConfigurations\",\"type\":\"tuple[]\",\"components\":[{\"internalType\":\"contract IJBTerminal\",\"name\":\"terminal\",\"type\":\"address\"},{\"internalType\":\"address[]\",\"name\":\"tokensToAccept\",\"type\":\"address[]\"}],\"indexed\":false},{\"internalType\":\"struct REVBuybackHookConfig\",\"name\":\"buybackHookConfiguration\",\"type\":\"tuple\",\"components\":[{\"internalType\":\"contract IJBBuybackHook\",\"name\":\"hook\",\"type\":\"address\"},{\"internalType\":\"struct REVBuybackPoolConfig[]\",\"name\":\"poolConfigurations\",\"type\":\"tuple[]\",\"components\":[{\"internalType\":\"address\",\"name\":\"token\",\"type\":\"address\"},{\"internalType\":\"uint24\",\"name\":\"fee\",\"type\":\"uint24\"},{\"internalType\":\"uint32\",\"name\":\"twapWindow\",\"type\":\"uint32\"},{\"internalType\":\"uint32\",\"name\":\"twapSlippageTolerance\",\"type\":\"uint32\"}]}],\"indexed\":false},{\"internalType\":\"struct REVSuckerDeploymentConfig\",\"name\":\"suckerDeploymentConfiguration\",\"type\":\"tuple\",\"components\":[{\"internalType\":\"struct BPSuckerDeployerConfig[]\",\"name\":\"deployerConfigurations\",\"type\":\"tuple[]\",\"components\":[{\"internalType\":\"contract IBPSuckerDeployer\",\"name\":\"deployer\",\"type\":\"address\"},{\"internalType\":\"struct BPTokenMapping[]\",\"name\":\"mappings\",\"type\":\"tuple[]\",\"components\":[{\"internalType\":\"address\",\"name\":\"localToken\",\"type\":\"address\"},{\"internalType\":\"uint32\",\"name\":\"minGas\",\"type\":\"uint32\"},{\"internalType\":\"address\",\"name\":\"remoteToken\",\"type\":\"address\"},{\"internalType\":\"uint256\",\"name\":\"minBridgeAmount\",\"type\":\"uint256\"}]}]},{\"internalType\":\"bytes32\",\"name\":\"salt\",\"type\":\"bytes32\"}],\"indexed\":false},{\"internalType\":\"struct JBRulesetConfig[]\",\"name\":\"rulesetConfigurations\",\"type\":\"tuple[]\",\"components\":[{\"internalType\":\"uint256\",\"name\":\"mustStartAtOrAfter\",\"type\":\"uint256\"},{\"internalType\":\"uint256\",\"name\":\"duration\",\"type\":\"uint256\"},{\"internalType\":\"uint256\",\"name\":\"weight\",\"type\":\"uint256\"},{\"internalType\":\"uint256\",\"name\":\"decayRate\",\"type\":\"uint256\"},{\"internalType\":\"contract IJBRulesetApprovalHook\",\"name\":\"approvalHook\",\"type\":\"address\"},{\"internalType\":\"struct JBRulesetMetadata\",\"name\":\"metadata\",\"type\":\"tuple\",\"components\":[{\"internalType\":\"uint256\",\"name\":\"reservedRate\",\"type\":\"uint256\"},{\"internalType\":\"uint256\",\"name\":\"redemptionRate\",\"type\":\"uint256\"},{\"internalType\":\"uint256\",\"name\":\"baseCurrency\",\"type\":\"uint256\"},{\"internalType\":\"bool\",\"name\":\"pausePay\",\"type\":\"bool\"},{\"internalType\":\"bool\",\"name\":\"pauseCreditTransfers\",\"type\":\"bool\"},{\"internalType\":\"bool\",\"name\":\"allowOwnerMinting\",\"type\":\"bool\"},{\"internalType\":\"bool\",\"name\":\"allowTerminalMigration\",\"type\":\"bool\"},{\"internalType\":\"bool\",\"name\":\"allowSetTerminals\",\"type\":\"bool\"},{\"internalType\":\"bool\",\"name\":\"allowControllerMigration\",\"type\":\"bool\"},{\"internalType\":\"bool\",\"name\":\"allowSetController\",\"type\":\"bool\"},{\"internalType\":\"bool\",\"name\":\"holdFees\",\"type\":\"bool\"},{\"internalType\":\"bool\",\"name\":\"useTotalSurplusForRedemptions\",\"type\":\"bool\"},{\"internalType\":\"bool\",\"name\":\"useDataHookForPay\",\"type\":\"bool\"},{\"internalType\":\"bool\",\"name\":\"useDataHookForRedeem\",\"type\":\"bool\"},{\"internalType\":\"address\",\"name\":\"dataHook\",\"type\":\"address\"},{\"internalType\":\"uint256\",\"name\":\"metadata\",\"type\":\"uint256\"}]},{\"internalType\":\"struct JBSplitGroup[]\",\"name\":\"splitGroups\",\"type\":\"tuple[]\",\"components\":[{\"internalType\":\"uint256\",\"name\":\"groupId\",\"type\":\"uint256\"},{\"internalType\":\"struct JBSplit[]\",\"name\":\"splits\",\"type\":\"tuple[]\",\"components\":[{\"internalType\":\"bool\",\"name\":\"preferAddToBalance\",\"type\":\"bool\"},{\"internalType\":\"uint256\",\"name\":\"percent\",\"type\":\"uint256\"},{\"internalType\":\"uint256\",\"name\":\"projectId\",\"type\":\"uint256\"},{\"internalType\":\"address payable\",\"name\":\"beneficiary\",\"type\":\"address\"},{\"internalType\":\"uint256\",\"name\":\"lockedUntil\",\"type\":\"uint256\"},{\"internalType\":\"contract IJBSplitHook\",\"name\":\"hook\",\"type\":\"address\"}]}]},{\"internalType\":\"struct JBFundAccessLimitGroup[]\",\"name\":\"fundAccessLimitGroups\",\"type\":\"tuple[]\",\"components\":[{\"internalType\":\"address\",\"name\":\"terminal\",\"type\":\"address\"},{\"internalType\":\"address\",\"name\":\"token\",\"type\":\"address\"},{\"internalType\":\"struct JBCurrencyAmount[]\",\"name\":\"payoutLimits\",\"type\":\"tuple[]\",\"components\":[{\"internalType\":\"uint256\",\"name\":\"amount\",\"type\":\"uint256\"},{\"internalType\":\"uint256\",\"name\":\"currency\",\"type\":\"uint256\"}]},{\"internalType\":\"struct JBCurrencyAmount[]\",\"name\":\"surplusAllowances\",\"type\":\"tuple[]\",\"components\":[{\"internalType\":\"uint256\",\"name\":\"amount\",\"type\":\"uint256\"},{\"internalType\":\"uint256\",\"name\":\"currency\",\"type\":\"uint256\"}]}]}],\"indexed\":false},{\"internalType\":\"bytes\",\"name\":\"encodedConfiguration\",\"type\":\"bytes\",\"indexed\":false},{\"internalType\":\"bool\",\"name\":\"isInProgress\",\"type\":\"bool\",\"indexed\":false},{\"internalType\":\"address\",\"name\":\"caller\",\"type\":\"address\",\"indexed\":false}],\"type\":\"event\",\"name\":\"DeployRevnet\",\"anonymous\":false},{\"inputs\":[{\"internalType\":\"uint256\",\"name\":\"revnetId\",\"type\":\"uint256\",\"indexed\":true},{\"internalType\":\"bytes32\",\"name\":\"salt\",\"type\":\"bytes32\",\"indexed\":true},{\"internalType\":\"bytes\",\"name\":\"encodedConfiguration\",\"type\":\"bytes\",\"indexed\":false},{\"internalType\":\"struct REVSuckerDeploymentConfig\",\"name\":\"suckerDeploymentConfiguration\",\"type\":\"tuple\",\"components\":[{\"internalType\":\"struct BPSuckerDeployerConfig[]\",\"name\":\"deployerConfigurations\",\"type\":\"tuple[]\",\"components\":[{\"internalType\":\"contract IBPSuckerDeployer\",\"name\":\"deployer\",\"type\":\"address\"},{\"internalType\":\"struct BPTokenMapping[]\",\"name\":\"mappings\",\"type\":\"tuple[]\",\"components\":[{\"internalType\":\"address\",\"name\":\"localToken\",\"type\":\"address\"},{\"internalType\":\"uint32\",\"name\":\"minGas\",\"type\":\"uint32\"},{\"internalType\":\"address\",\"name\":\"remoteToken\",\"type\":\"address\"},{\"internalType\":\"uint256\",\"name\":\"minBridgeAmount\",\"type\":\"uint256\"}]}]},{\"internalType\":\"bytes32\",\"name\":\"salt\",\"type\":\"bytes32\"}],\"indexed\":false},{\"internalType\":\"address\",\"name\":\"caller\",\"type\":\"address\",\"indexed\":false}],\"type\":\"event\",\"name\":\"DeploySuckers\",\"anonymous\":false},{\"inputs\":[{\"internalType\":\"uint256\",\"name\":\"revnetId\",\"type\":\"uint256\",\"indexed\":true},{\"internalType\":\"address\",\"name\":\"newSplitOperator\",\"type\":\"address\",\"indexed\":true},{\"internalType\":\"address\",\"name\":\"caller\",\"type\":\"address\",\"indexed\":false}],\"type\":\"event\",\"name\":\"ReplaceSplitOperator\",\"anonymous\":false},{\"inputs\":[],\"stateMutability\":\"view\",\"type\":\"function\",\"name\":\"CONTROLLER\",\"outputs\":[{\"internalType\":\"contract IJBController\",\"name\":\"\",\"type\":\"address\"}]},{\"inputs\":[],\"stateMutability\":\"view\",\"type\":\"function\",\"name\":\"EXIT_DELAY\",\"outputs\":[{\"internalType\":\"uint256\",\"name\":\"\",\"type\":\"uint256\"}]},{\"inputs\":[],\"stateMutability\":\"view\",\"type\":\"function\",\"name\":\"SUCKER_REGISTRY\",\"outputs\":[{\"internalType\":\"contract IBPSuckerRegistry\",\"name\":\"\",\"type\":\"address\"}]},{\"inputs\":[{\"internalType\":\"struct JBBeforePayRecordedContext\",\"name\":\"context\",\"type\":\"tuple\",\"components\":[{\"internalType\":\"address\",\"name\":\"terminal\",\"type\":\"address\"},{\"internalType\":\"address\",\"name\":\"payer\",\"type\":\"address\"},{\"internalType\":\"struct JBTokenAmount\",\"name\":\"amount\",\"type\":\"tuple\",\"components\":[{\"internalType\":\"address\",\"name\":\"token\",\"type\":\"address\"},{\"internalType\":\"uint256\",\"name\":\"value\",\"type\":\"uint256\"},{\"internalType\":\"uint256\",\"name\":\"decimals\",\"type\":\"uint256\"},{\"internalType\":\"uint256\",\"name\":\"currency\",\"type\":\"uint256\"}]},{\"internalType\":\"uint256\",\"name\":\"projectId\",\"type\":\"uint256\"},{\"internalType\":\"uint256\",\"name\":\"rulesetId\",\"type\":\"uint256\"},{\"internalType\":\"address\",\"name\":\"beneficiary\",\"type\":\"address\"},{\"internalType\":\"uint256\",\"name\":\"weight\",\"type\":\"uint256\"},{\"internalType\":\"uint256\",\"name\":\"reservedRate\",\"type\":\"uint256\"},{\"internalType\":\"bytes\",\"name\":\"metadata\",\"type\":\"bytes\"}]}],\"stateMutability\":\"view\",\"type\":\"function\",\"name\":\"beforePayRecordedWith\",\"outputs\":[{\"internalType\":\"uint256\",\"name\":\"weight\",\"type\":\"uint256\"},{\"internalType\":\"struct JBPayHookSpecification[]\",\"name\":\"hookSpecifications\",\"type\":\"tuple[]\",\"components\":[{\"internalType\":\"contract IJBPayHook\",\"name\":\"hook\",\"type\":\"address\"},{\"internalType\":\"uint256\",\"name\":\"amount\",\"type\":\"uint256\"},{\"internalType\":\"bytes\",\"name\":\"metadata\",\"type\":\"bytes\"}]}]},{\"inputs\":[{\"internalType\":\"struct JBBeforeRedeemRecordedContext\",\"name\":\"context\",\"type\":\"tuple\",\"components\":[{\"internalType\":\"address\",\"name\":\"terminal\",\"type\":\"address\"},{\"internalType\":\"address\",\"name\":\"holder\",\"type\":\"address\"},{\"internalType\":\"uint256\",\"name\":\"projectId\",\"type\":\"uint256\"},{\"internalType\":\"uint256\",\"name\":\"rulesetId\",\"type\":\"uint256\"},{\"internalType\":\"uint256\",\"name\":\"redeemCount\",\"type\":\"uint256\"},{\"internalType\":\"uint256\",\"name\":\"totalSupply\",\"type\":\"uint256\"},{\"internalType\":\"struct JBTokenAmount\",\"name\":\"surplus\",\"type\":\"tuple\",\"components\":[{\"internalType\":\"address\",\"name\":\"token\",\"type\":\"address\"},{\"internalType\":\"uint256\",\"name\":\"value\",\"type\":\"uint256\"},{\"internalType\":\"uint256\",\"name\":\"decimals\",\"type\":\"uint256\"},{\"internalType\":\"uint256\",\"name\":\"currency\",\"type\":\"uint256\"}]},{\"internalType\":\"bool\",\"name\":\"useTotalSurplus\",\"type\":\"bool\"},{\"internalType\":\"uint256\",\"name\":\"redemptionRate\",\"type\":\"uint256\"},{\"internalType\":\"bytes\",\"name\":\"metadata\",\"type\":\"bytes\"}]}],\"stateMutability\":\"view\",\"type\":\"function\",\"name\":\"beforeRedeemRecordedWith\",\"outputs\":[{\"internalType\":\"uint256\",\"name\":\"\",\"type\":\"uint256\"},{\"internalType\":\"uint256\",\"name\":\"\",\"type\":\"uint256\"},{\"internalType\":\"uint256\",\"name\":\"\",\"type\":\"uint256\"},{\"internalType\":\"struct JBRedeemHookSpecification[]\",\"name\":\"specifications\",\"type\":\"tuple[]\",\"components\":[{\"internalType\":\"contract IJBRedeemHook\",\"name\":\"hook\",\"type\":\"address\"},{\"internalType\":\"uint256\",\"name\":\"amount\",\"type\":\"uint256\"},{\"internalType\":\"bytes\",\"name\":\"metadata\",\"type\":\"bytes\"}]}]},{\"inputs\":[{\"internalType\":\"uint256\",\"name\":\"revnetId\",\"type\":\"uint256\"}],\"stateMutability\":\"view\",\"type\":\"function\",\"name\":\"buybackHookOf\",\"outputs\":[{\"internalType\":\"contract IJBRulesetDataHook\",\"name\":\"buybackHook\",\"type\":\"address\"}]},{\"inputs\":[{\"internalType\":\"struct REVConfig\",\"name\":\"configuration\",\"type\":\"tuple\",\"components\":[{\"internalType\":\"struct REVDescription\",\"name\":\"description\",\"type\":\"tuple\",\"components\":[{\"internalType\":\"string\",\"name\":\"name\",\"type\":\"string\"},{\"internalType\":\"string\",\"name\":\"ticker\",\"type\":\"string\"},{\"internalType\":\"string\",\"name\":\"uri\",\"type\":\"string\"},{\"internalType\":\"bytes32\",\"name\":\"salt\",\"type\":\"bytes32\"}]},{\"internalType\":\"uint32\",\"name\":\"baseCurrency\",\"type\":\"uint32\"},{\"internalType\":\"uint256\",\"name\":\"premintTokenAmount\",\"type\":\"uint256\"},{\"internalType\":\"uint256\",\"name\":\"premintChainId\",\"type\":\"uint256\"},{\"internalType\":\"address\",\"name\":\"initialSplitOperator\",\"type\":\"address\"},{\"internalType\":\"struct REVStageConfig[]\",\"name\":\"stageConfigurations\",\"type\":\"tuple[]\",\"components\":[{\"internalType\":\"uint40\",\"name\":\"startsAtOrAfter\",\"type\":\"uint40\"},{\"internalType\":\"uint16\",\"name\":\"splitRate\",\"type\":\"uint16\"},{\"internalType\":\"uint112\",\"name\":\"initialIssuanceRate\",\"type\":\"uint112\"},{\"internalType\":\"uint40\",\"name\":\"priceCeilingIncreaseFrequency\",\"type\":\"uint40\"},{\"internalType\":\"uint32\",\"name\":\"priceCeilingIncreasePercentage\",\"type\":\"uint32\"},{\"internalType\":\"uint16\",\"name\":\"priceFloorTaxIntensity\",\"type\":\"uint16\"}]}]},{\"internalType\":\"struct JBTerminalConfig[]\",\"name\":\"terminalConfigurations\",\"type\":\"tuple[]\",\"components\":[{\"internalType\":\"contract IJBTerminal\",\"name\":\"terminal\",\"type\":\"address\"},{\"internalType\":\"address[]\",\"name\":\"tokensToAccept\",\"type\":\"address[]\"}]},{\"internalType\":\"struct REVBuybackHookConfig\",\"name\":\"buybackHookConfiguration\",\"type\":\"tuple\",\"components\":[{\"internalType\":\"contract IJBBuybackHook\",\"name\":\"hook\",\"type\":\"address\"},{\"internalType\":\"struct REVBuybackPoolConfig[]\",\"name\":\"poolConfigurations\",\"type\":\"tuple[]\",\"components\":[{\"internalType\":\"address\",\"name\":\"token\",\"type\":\"address\"},{\"internalType\":\"uint24\",\"name\":\"fee\",\"type\":\"uint24\"},{\"internalType\":\"uint32\",\"name\":\"twapWindow\",\"type\":\"uint32\"},{\"internalType\":\"uint32\",\"name\":\"twapSlippageTolerance\",\"type\":\"uint32\"}]}]},{\"internalType\":\"struct REVSuckerDeploymentConfig\",\"name\":\"suckerDeploymentConfiguration\",\"type\":\"tuple\",\"components\":[{\"internalType\":\"struct BPSuckerDeployerConfig[]\",\"name\":\"deployerConfigurations\",\"type\":\"tuple[]\",\"components\":[{\"internalType\":\"contract IBPSuckerDeployer\",\"name\":\"deployer\",\"type\":\"address\"},{\"internalType\":\"struct BPTokenMapping[]\",\"name\":\"mappings\",\"type\":\"tuple[]\",\"components\":[{\"internalType\":\"address\",\"name\":\"localToken\",\"type\":\"address\"},{\"internalType\":\"uint32\",\"name\":\"minGas\",\"type\":\"uint32\"},{\"internalType\":\"address\",\"name\":\"remoteToken\",\"type\":\"address\"},{\"internalType\":\"uint256\",\"name\":\"minBridgeAmount\",\"type\":\"uint256\"}]}]},{\"internalType\":\"bytes32\",\"name\":\"salt\",\"type\":\"bytes32\"}]}],\"stateMutability\":\"nonpayable\",\"type\":\"function\",\"name\":\"deployRevnetWith\",\"outputs\":[{\"internalType\":\"uint256\",\"name\":\"\",\"type\":\"uint256\"}]},{\"inputs\":[{\"internalType\":\"uint256\",\"name\":\"revnetId\",\"type\":\"uint256\"},{\"internalType\":\"bytes\",\"name\":\"encodedConfiguration\",\"type\":\"bytes\"},{\"internalType\":\"struct REVSuckerDeploymentConfig\",\"name\":\"suckerDeploymentConfiguration\",\"type\":\"tuple\",\"components\":[{\"internalType\":\"struct BPSuckerDeployerConfig[]\",\"name\":\"deployerConfigurations\",\"type\":\"tuple[]\",\"components\":[{\"internalType\":\"contract IBPSuckerDeployer\",\"name\":\"deployer\",\"type\":\"address\"},{\"internalType\":\"struct BPTokenMapping[]\",\"name\":\"mappings\",\"type\":\"tuple[]\",\"components\":[{\"internalType\":\"address\",\"name\":\"localToken\",\"type\":\"address\"},{\"internalType\":\"uint32\",\"name\":\"minGas\",\"type\":\"uint32\"},{\"internalType\":\"address\",\"name\":\"remoteToken\",\"type\":\"address\"},{\"internalType\":\"uint256\",\"name\":\"minBridgeAmount\",\"type\":\"uint256\"}]}]},{\"internalType\":\"bytes32\",\"name\":\"salt\",\"type\":\"bytes32\"}]}],\"stateMutability\":\"nonpayable\",\"type\":\"function\",\"name\":\"deploySuckersFor\"},{\"inputs\":[{\"internalType\":\"uint256\",\"name\":\"revnetId\",\"type\":\"uint256\"}],\"stateMutability\":\"view\",\"type\":\"function\",\"name\":\"exitDelayOf\",\"outputs\":[{\"internalType\":\"uint256\",\"name\":\"exitDelay\",\"type\":\"uint256\"}]},{\"inputs\":[{\"internalType\":\"uint256\",\"name\":\"revnetId\",\"type\":\"uint256\"},{\"internalType\":\"address\",\"name\":\"addr\",\"type\":\"address\"}],\"stateMutability\":\"view\",\"type\":\"function\",\"name\":\"hasMintPermissionFor\",\"outputs\":[{\"internalType\":\"bool\",\"name\":\"\",\"type\":\"bool\"}]},{\"inputs\":[{\"internalType\":\"address\",\"name\":\"forwarder\",\"type\":\"address\"}],\"stateMutability\":\"view\",\"type\":\"function\",\"name\":\"isTrustedForwarder\",\"outputs\":[{\"internalType\":\"bool\",\"name\":\"\",\"type\":\"bool\"}]},{\"inputs\":[{\"internalType\":\"uint256\",\"name\":\"revnetId\",\"type\":\"uint256\"},{\"internalType\":\"struct REVConfig\",\"name\":\"configuration\",\"type\":\"tuple\",\"components\":[{\"internalType\":\"struct REVDescription\",\"name\":\"description\",\"type\":\"tuple\",\"components\":[{\"internalType\":\"string\",\"name\":\"name\",\"type\":\"string\"},{\"internalType\":\"string\",\"name\":\"ticker\",\"type\":\"string\"},{\"internalType\":\"string\",\"name\":\"uri\",\"type\":\"string\"},{\"internalType\":\"bytes32\",\"name\":\"salt\",\"type\":\"bytes32\"}]},{\"internalType\":\"uint32\",\"name\":\"baseCurrency\",\"type\":\"uint32\"},{\"internalType\":\"uint256\",\"name\":\"premintTokenAmount\",\"type\":\"uint256\"},{\"internalType\":\"uint256\",\"name\":\"premintChainId\",\"type\":\"uint256\"},{\"internalType\":\"address\",\"name\":\"initialSplitOperator\",\"type\":\"address\"},{\"internalType\":\"struct REVStageConfig[]\",\"name\":\"stageConfigurations\",\"type\":\"tuple[]\",\"components\":[{\"internalType\":\"uint40\",\"name\":\"startsAtOrAfter\",\"type\":\"uint40\"},{\"internalType\":\"uint16\",\"name\":\"splitRate\",\"type\":\"uint16\"},{\"internalType\":\"uint112\",\"name\":\"initialIssuanceRate\",\"type\":\"uint112\"},{\"internalType\":\"uint40\",\"name\":\"priceCeilingIncreaseFrequency\",\"type\":\"uint40\"},{\"internalType\":\"uint32\",\"name\":\"priceCeilingIncreasePercentage\",\"type\":\"uint32\"},{\"internalType\":\"uint16\",\"name\":\"priceFloorTaxIntensity\",\"type\":\"uint16\"}]}]},{\"internalType\":\"struct JBTerminalConfig[]\",\"name\":\"terminalConfigurations\",\"type\":\"tuple[]\",\"components\":[{\"internalType\":\"contract IJBTerminal\",\"name\":\"terminal\",\"type\":\"address\"},{\"internalType\":\"address[]\",\"name\":\"tokensToAccept\",\"type\":\"address[]\"}]},{\"internalType\":\"struct REVBuybackHookConfig\",\"name\":\"buybackHookConfiguration\",\"type\":\"tuple\",\"components\":[{\"internalType\":\"contract IJBBuybackHook\",\"name\":\"hook\",\"type\":\"address\"},{\"internalType\":\"struct REVBuybackPoolConfig[]\",\"name\":\"poolConfigurations\",\"type\":\"tuple[]\",\"components\":[{\"internalType\":\"address\",\"name\":\"token\",\"type\":\"address\"},{\"internalType\":\"uint24\",\"name\":\"fee\",\"type\":\"uint24\"},{\"internalType\":\"uint32\",\"name\":\"twapWindow\",\"type\":\"uint32\"},{\"internalType\":\"uint32\",\"name\":\"twapSlippageTolerance\",\"type\":\"uint32\"}]}]},{\"internalType\":\"struct REVSuckerDeploymentConfig\",\"name\":\"suckerDeploymentConfiguration\",\"type\":\"tuple\",\"components\":[{\"internalType\":\"struct BPSuckerDeployerConfig[]\",\"name\":\"deployerConfigurations\",\"type\":\"tuple[]\",\"components\":[{\"internalType\":\"contract IBPSuckerDeployer\",\"name\":\"deployer\",\"type\":\"address\"},{\"internalType\":\"struct BPTokenMapping[]\",\"name\":\"mappings\",\"type\":\"tuple[]\",\"components\":[{\"internalType\":\"address\",\"name\":\"localToken\",\"type\":\"address\"},{\"internalType\":\"uint32\",\"name\":\"minGas\",\"type\":\"uint32\"},{\"internalType\":\"address\",\"name\":\"remoteToken\",\"type\":\"address\"},{\"internalType\":\"uint256\",\"name\":\"minBridgeAmount\",\"type\":\"uint256\"}]}]},{\"internalType\":\"bytes32\",\"name\":\"salt\",\"type\":\"bytes32\"}]}],\"stateMutability\":\"nonpayable\",\"type\":\"function\",\"name\":\"launchRevnetFor\",\"outputs\":[{\"internalType\":\"uint256\",\"name\":\"\",\"type\":\"uint256\"}]},{\"inputs\":[{\"internalType\":\"address\",\"name\":\"operator\",\"type\":\"address\"},{\"internalType\":\"address\",\"name\":\"from\",\"type\":\"address\"},{\"internalType\":\"uint256\",\"name\":\"tokenId\",\"type\":\"uint256\"},{\"internalType\":\"bytes\",\"name\":\"data\",\"type\":\"bytes\"}],\"stateMutability\":\"view\",\"type\":\"function\",\"name\":\"onERC721Received\",\"outputs\":[{\"internalType\":\"bytes4\",\"name\":\"\",\"type\":\"bytes4\"}]},{\"inputs\":[{\"internalType\":\"uint256\",\"name\":\"revnetId\",\"type\":\"uint256\"}],\"stateMutability\":\"view\",\"type\":\"function\",\"name\":\"payHookSpecificationsOf\",\"outputs\":[{\"internalType\":\"struct JBPayHookSpecification[]\",\"name\":\"\",\"type\":\"tuple[]\",\"components\":[{\"internalType\":\"contract IJBPayHook\",\"name\":\"hook\",\"type\":\"address\"},{\"internalType\":\"uint256\",\"name\":\"amount\",\"type\":\"uint256\"},{\"internalType\":\"bytes\",\"name\":\"metadata\",\"type\":\"bytes\"}]}]},{\"inputs\":[{\"internalType\":\"uint256\",\"name\":\"revnetId\",\"type\":\"uint256\"},{\"internalType\":\"address\",\"name\":\"newSplitOperator\",\"type\":\"address\"}],\"stateMutability\":\"nonpayable\",\"type\":\"function\",\"name\":\"replaceSplitOperatorOf\"},{\"inputs\":[{\"internalType\":\"bytes4\",\"name\":\"interfaceId\",\"type\":\"bytes4\"}],\"stateMutability\":\"view\",\"type\":\"function\",\"name\":\"supportsInterface\",\"outputs\":[{\"internalType\":\"bool\",\"name\":\"\",\"type\":\"bool\"}]},{\"inputs\":[],\"stateMutability\":\"view\",\"type\":\"function\",\"name\":\"trustedForwarder\",\"outputs\":[{\"internalType\":\"address\",\"name\":\"\",\"type\":\"address\"}]}],\"devdoc\":{\"kind\":\"dev\",\"methods\":{\"beforePayRecordedWith((address,address,(address,uint256,uint256,uint256),uint256,uint256,address,uint256,uint256,bytes))\":{\"details\":\"Part of IJBFundingCycleDataSource.This implementation just sets this contract up to receive a `didPay` call.\",\"params\":{\"context\":\"The Juicebox standard network payment context. See\"},\"returns\":{\"hookSpecifications\":\"Amount to be sent to pay hooks instead of adding to local balance. Useful for auto-routing funds from a treasury as payment come in.\",\"weight\":\"The weight that network tokens should get minted relative to. This is useful for optionally customizing how many tokens are issued per payment.\"}},\"constructor\":{\"params\":{\"controller\":\"The controller that revnets are made from.\",\"suckerRegistry\":\"The registry that deploys and tracks each project's suckers.\",\"trustedForwarder\":\"The trusted forwarder for the ERC2771Context.\"}},\"deployRevnetWith(((string,string,string,bytes32),uint32,uint256,uint256,address,(uint40,uint16,uint112,uint40,uint32,uint16)[]),(address,address[])[],(address,(address,uint24,uint32,uint32)[]),((address,(address,uint32,address,uint256)[])[],bytes32))\":{\"params\":{\"buybackHookConfiguration\":\"Data used for setting up the buyback hook to use when determining the best price for new participants.\",\"configuration\":\"The data needed to deploy a basic revnet.\",\"suckerDeploymentConfiguration\":\"Information about how this revnet relates to other's across chains.\",\"terminalConfigurations\":\"The terminals that the network uses to accept payments through.\"},\"returns\":{\"_0\":\"revnetId The ID of the newly created revnet.\"}},\"deploySuckersFor(uint256,bytes,((address,(address,uint32,address,uint256)[])[],bytes32))\":{\"params\":{\"encodedConfiguration\":\"A bytes representation of the revnet's configuration.\",\"revnetId\":\"The ID of the revnet having new suckers deployed.\",\"suckerDeploymentConfiguration\":\"The specifics about the suckers being deployed.\"}},\"hasMintPermissionFor(uint256,address)\":{\"params\":{\"addr\":\"The address to check if has permissions.\",\"revnetId\":\"The ID of the revnet to check permissions for.\"},\"returns\":{\"_0\":\"flag The flag indicating if the address has permissions to mint on the revnet's behalf.\"}},\"isTrustedForwarder(address)\":{\"details\":\"Indicates whether any particular address is the trusted forwarder.\"},\"launchRevnetFor(uint256,((string,string,string,bytes32),uint32,uint256,uint256,address,(uint40,uint16,uint112,uint40,uint32,uint16)[]),(address,address[])[],(address,(address,uint24,uint32,uint32)[]),((address,(address,uint32,address,uint256)[])[],bytes32))\":{\"params\":{\"buybackHookConfiguration\":\"Data used for setting up the buyback hook to use when determining the best price for new participants.\",\"configuration\":\"The data needed to deploy a basic revnet.\",\"revnetId\":\"The ID of the Juicebox project to turn into a revnet. Send 0 to deploy a new revnet.\",\"suckerDeploymentConfiguration\":\"Information about how this revnet relates to other's across chains.\",\"terminalConfigurations\":\"The terminals that the network uses to accept payments through.\"},\"returns\":{\"_0\":\"revnetId The ID of the newly created revnet.\"}},\"onERC721Received(address,address,uint256,bytes)\":{\"details\":\"Make sure only mints can be received.\"},\"payHookSpecificationsOf(uint256)\":{\"params\":{\"revnetId\":\"The ID of the revnet to which the extensions apply.\"},\"returns\":{\"_0\":\"payHookSpecifications The pay hooks.\"}},\"replaceSplitOperatorOf(uint256,address)\":{\"params\":{\"newSplitOperator\":\"The address of the new split operator.\",\"revnetId\":\"The ID of the revnet having its operator replaced.\"}},\"supportsInterface(bytes4)\":{\"details\":\"See {IERC165-supportsInterface}.\",\"params\":{\"interfaceId\":\"The ID of the interface to check for adherence to.\"},\"returns\":{\"_0\":\"A flag indicating if the provided interface ID is supported.\"}},\"trustedForwarder()\":{\"details\":\"Returns the address of the trusted forwarder.\"}},\"version\":1},\"userdoc\":{\"kind\":\"user\",\"methods\":{\"CONTROLLER()\":{\"notice\":\"The controller that networks are made from.\"},\"EXIT_DELAY()\":{\"notice\":\"The amount of time from a sucker being deployed to when it can facilitate exits.\"},\"SUCKER_REGISTRY()\":{\"notice\":\"The registry that deploys and tracks each project's suckers.\"},\"beforePayRecordedWith((address,address,(address,uint256,uint256,uint256),uint256,uint256,address,uint256,uint256,bytes))\":{\"notice\":\"This function gets called when the revnet receives a payment.\"},\"beforeRedeemRecordedWith((address,address,uint256,uint256,uint256,uint256,(address,uint256,uint256,uint256),bool,uint256,bytes))\":{\"notice\":\"This function is never called, it needs to be included to adhere to the interface.\"},\"buybackHookOf(uint256)\":{\"notice\":\"The data hook that returns the correct values for the buyback hook of each network.\"},\"deployRevnetWith(((string,string,string,bytes32),uint32,uint256,uint256,address,(uint40,uint16,uint112,uint40,uint32,uint16)[]),(address,address[])[],(address,(address,uint24,uint32,uint32)[]),((address,(address,uint32,address,uint256)[])[],bytes32))\":{\"notice\":\"Deploy a basic revnet.\"},\"deploySuckersFor(uint256,bytes,((address,(address,uint32,address,uint256)[])[],bytes32))\":{\"notice\":\"Allows a revnet's split operator to deploy new suckers to the revnet after it's deployed.\"},\"exitDelayOf(uint256)\":{\"notice\":\"The time at which exits from a revnet become allowed.\"},\"hasMintPermissionFor(uint256,address)\":{\"notice\":\"Required by the IJBRulesetDataHook interfaces.\"},\"launchRevnetFor(uint256,((string,string,string,bytes32),uint32,uint256,uint256,address,(uint40,uint16,uint112,uint40,uint32,uint16)[]),(address,address[])[],(address,(address,uint24,uint32,uint32)[]),((address,(address,uint32,address,uint256)[])[],bytes32))\":{\"notice\":\"Launch a basic revnet.\"},\"payHookSpecificationsOf(uint256)\":{\"notice\":\"The pay hooks to include during payments to networks.\"},\"replaceSplitOperatorOf(uint256,address)\":{\"notice\":\"A revnet's operator can replace itself.\"},\"supportsInterface(bytes4)\":{\"notice\":\"Indicates if this contract adheres to the specified interface.\"}},\"version\":1}},\"settings\":{\"remappings\":[\"@arbitrum/=node_modules/@arbitrum/\",\"@bananapus/=node_modules/@bananapus/\",\"@chainlink/=node_modules/@chainlink/\",\"@croptop/=node_modules/@croptop/\",\"@eth-optimism/=node_modules/@eth-optimism/\",\"@exhausted-pigeon/=node_modules/@exhausted-pigeon/\",\"@gnosis.pm/=node_modules/@gnosis.pm/\",\"@offchainlabs/=node_modules/@offchainlabs/\",\"@openzeppelin/=node_modules/@openzeppelin/\",\"@prb/=node_modules/@prb/\",\"@sphinx-labs/contracts/=node_modules/@sphinx-labs/contracts/contracts/foundry/\",\"@uniswap/=node_modules/@uniswap/\",\"base64-sol/=node_modules/base64-sol/\",\"ds-test/=lib/forge-std/lib/ds-test/src/\",\"forge-std/=lib/forge-std/src/\",\"hardhat/=node_modules/hardhat/\",\"solmate/=node_modules/solmate/\",\"sphinx-forge-std/=node_modules/sphinx-forge-std/\",\"sphinx-solmate/=node_modules/sphinx-solmate/\",\"sphinx/=lib/sphinx/packages/contracts/contracts/forge-std/src/\"],\"optimizer\":{\"enabled\":true,\"runs\":1000},\"metadata\":{\"bytecodeHash\":\"ipfs\"},\"compilationTarget\":{\"src/REVBasicDeployer.sol\":\"REVBasicDeployer\"},\"evmVersion\":\"paris\",\"libraries\":{}},\"sources\":{\"node_modules/@bananapus/buyback-hook/src/interfaces/IJBBuybackHook.sol\":{\"keccak256\":\"0xbe5d7f3bf2e18b569676ba9194e248e6b1ed50022f5247b4f1fa124c91bfd418\",\"urls\":[\"bzz-raw://eb221d1570e8aad409c419b6a2f84351e818c3527f3f44b806cd64c84d7a8c86\",\"dweb:/ipfs/QmUPZstaKjPN7VTywg3Mt6bF75E53mQbmXhf3TxCggJbRR\"],\"license\":\"MIT\"},\"node_modules/@bananapus/buyback-hook/src/interfaces/external/IWETH9.sol\":{\"keccak256\":\"0x50083bcaca6c1a8d12c79116fab4f6d8cd452a510cb3f00c4a8bc3a54678efb7\",\"urls\":[\"bzz-raw://726f187112d0953c14bff8099a8c9ce1ead47eb25e90839f77b100feaaf16127\",\"dweb:/ipfs/QmTEnMENpLjcTQLMwz4kEUiQHfiTkaZT3TL37nQ8JiRYh5\"],\"license\":\"GPL-2.0-or-later\"},\"node_modules/@bananapus/core/src/enums/JBApprovalStatus.sol\":{\"keccak256\":\"0x61c69b6bac7d24b566d87cda23a77e4ca9cdb87200b106aba8534cb9a0973e33\",\"urls\":[\"bzz-raw://6a9ca7249de76f77a8252eefe6bd1b63d47952f25a2acfa2c8db967cdff4470c\",\"dweb:/ipfs/QmaxSxptRQNj8bNy96EreENmrnRWdKmhyihBcxyWzBX5BN\"],\"license\":\"MIT\"},\"node_modules/@bananapus/core/src/interfaces/IJBControlled.sol\":{\"keccak256\":\"0x79fb8de7b3f809f1c3c7189f578b7331ec4dfe3350151d5b50240ecb3a2a907b\",\"urls\":[\"bzz-raw://45c82240dd4f0e9aec00d0d86f6b44bdda231db098ebdac17e922771b3e6f342\",\"dweb:/ipfs/QmPUvT8HZeVenrZDpP14HsZofaXPJjih8UAd35rTg3tU7E\"],\"license\":\"MIT\"},\"node_modules/@bananapus/core/src/interfaces/IJBController.sol\":{\"keccak256\":\"0xe0b84058192f89e461c4b604388aa11a2f92f0f9969fb70fb3c18706d6f3e16b\",\"urls\":[\"bzz-raw://984fdcff63a17ccab65ff7723a628967e40965fcb4d47909cf8e314e8f044576\",\"dweb:/ipfs/QmaaHZWuaaH3oYxCDrip1rr4u4H1XtR3RcwwKAE73GAqkd\"],\"license\":\"MIT\"},\"node_modules/@bananapus/core/src/interfaces/IJBDirectory.sol\":{\"keccak256\":\"0x9cc380844aef60078ee47a61861e55a29c4a8c947efd556ebd36e6909f7b9d62\",\"urls\":[\"bzz-raw://9f5190ec8b6683d9781ee6e9eedcc91294753242748875d4a06349077e4cbaaf\",\"dweb:/ipfs/QmTQrPuXT9TCA4txwrperMeXSGvGxP8iokUK47f62F388i\"],\"license\":\"MIT\"},\"node_modules/@bananapus/core/src/interfaces/IJBDirectoryAccessControl.sol\":{\"keccak256\":\"0x1e67f56849320a46f834aaa9bd62b170ff8ada7b224b4a81136193740fa0be4d\",\"urls\":[\"bzz-raw://ea8fbcec44abfe49d137bcae129b67e5479d6b17879301f88534c8a7fab00be4\",\"dweb:/ipfs/QmT6wrtYX4GRpffHUzupNwYebJ1dqkkKZLEewWsoyunsqw\"],\"license\":\"MIT\"},\"node_modules/@bananapus/core/src/interfaces/IJBFundAccessLimits.sol\":{\"keccak256\":\"0x284cdb8cefd672f9d83216d73a7754149d061b573a33c62911f23635f3bcd54a\",\"urls\":[\"bzz-raw://e393e679d7f547884496737fc4eb87395d014217461a28dd6aac8e8f0cefd313\",\"dweb:/ipfs/QmRv9JFm4ajJqoVdDbQrFiVwNRzAkTcNNAAgn6K5RvDg6f\"],\"license\":\"MIT\"},\"node_modules/@bananapus/core/src/interfaces/IJBMigratable.sol\":{\"keccak256\":\"0xd69bd5aba01a68d82c303ef3adde47532abcace030a94296c3ea6988b401789c\",\"urls\":[\"bzz-raw://88f11a1c89899327746beba4fc830abf3ac2eb9c152c778e884a6eed6564971f\",\"dweb:/ipfs/QmTpKhSTVewpz7VyKcz6BJwH2LFKMwT7Qi5HNWmjEjwsdK\"],\"license\":\"MIT\"},\"node_modules/@bananapus/core/src/interfaces/IJBPayHook.sol\":{\"keccak256\":\"0x9438866782c652c2942f4d114e35f393cd3c8b0334abce8387eed90bca35e8b2\",\"urls\":[\"bzz-raw://cfd99daf57213f92325aad7d7d16e98476d38e870470e95ba01e3ae3cdecc95d\",\"dweb:/ipfs/QmUKKAVGf7ki8BHksr99tFcRW8APveeB5tNH63ctTbbCW8\"],\"license\":\"MIT\"},\"node_modules/@bananapus/core/src/interfaces/IJBPermissioned.sol\":{\"keccak256\":\"0x5b038d4dee116584e88b230920e56d48e135053e3f7e5642eaea14a775c1dad7\",\"urls\":[\"bzz-raw://19e43102f349fd4a1da1c0943ffb8f2950007fe4bb4bb7e8f74fc142575d091b\",\"dweb:/ipfs/QmXHAt4KzDTdDZgDDefEXH2WKi7NcfkJb9R7nxW5uDqsNp\"],\"license\":\"MIT\"},\"node_modules/@bananapus/core/src/interfaces/IJBPermissions.sol\":{\"keccak256\":\"0x18870e500edf0fbadc353e273a5574701fb80466376b908c65e7cc3f11044d4d\",\"urls\":[\"bzz-raw://352a47c45853aec80e7acf0d286ade3106eb4cb456776b28a3c2f3f1091bed90\",\"dweb:/ipfs/QmQeYd3YbudYZy2hfbfht9kwhxhw4tuuLKMEYy9UY6dcSy\"],\"license\":\"MIT\"},\"node_modules/@bananapus/core/src/interfaces/IJBProjectUriRegistry.sol\":{\"keccak256\":\"0x2799475228987e4f8334ac33d3935f759c9b8133db7383b4f622dde7a5dc0502\",\"urls\":[\"bzz-raw://d751731740f45df74eea48c9667e847ee2cddb2980ab4939c86bd17e6c6ed89b\",\"dweb:/ipfs/QmXW8SLTuhdUpfn7pRpdsYdcyuim8RTyagU37ULcj5UZhT\"],\"license\":\"MIT\"},\"node_modules/@bananapus/core/src/interfaces/IJBProjects.sol\":{\"keccak256\":\"0x735c2fb8f1fa827f054ee77f7a0ae4b312656217acb75b624d2c8fd9dc40151b\",\"urls\":[\"bzz-raw://ee7fc92299a8633a80693ae63ab494dcd125f1789487a54a39dc0e5696e5996f\",\"dweb:/ipfs/QmX7YJD4pS2XhgQb7p3JbBAXynT7YGPXcZe92BiWWRrsCL\"],\"license\":\"MIT\"},\"node_modules/@bananapus/core/src/interfaces/IJBRedeemHook.sol\":{\"keccak256\":\"0x8ab46fcd7d0e739661eb76056ad93ff99106f38420ef0b4eb97fa9f4bb71a68a\",\"urls\":[\"bzz-raw://0ef96fcb7ad26281d444d8e0c677b25114fdd63b1c172d477e030dce8ba53b62\",\"dweb:/ipfs/Qmcx1jRQuwU4pZFuLxsSsx4oMbRaDfktHrPnXextgbWc5m\"],\"license\":\"MIT\"},\"node_modules/@bananapus/core/src/interfaces/IJBRulesetApprovalHook.sol\":{\"keccak256\":\"0x592e95d159494421c6b1bcb362d0cee1df0132921697351304e9cd7af4fbd386\",\"urls\":[\"bzz-raw://5bebfd5fa67c1b6ea16fa2e76e9520e9dfe52a579f48dd94d0c2ec45f78ad178\",\"dweb:/ipfs/QmRUawEGtfYoYSHmHELGhvJoWuMsxLPKtqAXgsrb7fJboP\"],\"license\":\"MIT\"},\"node_modules/@bananapus/core/src/interfaces/IJBRulesetDataHook.sol\":{\"keccak256\":\"0x13b4b9f4b847f62442da1c1a59b399f8f201b31a28edb96aa5a8a78ad57c24d0\",\"urls\":[\"bzz-raw://4fcd00b77d0f40cf6d5ee6590b6ef4ee1f606e89ae4c4faed3710fb462108f8e\",\"dweb:/ipfs/QmeoE54DQ3eGw9EDXfN7aTMmEjubAtirahmytDijo6GSeE\"],\"license\":\"MIT\"},\"node_modules/@bananapus/core/src/interfaces/IJBRulesets.sol\":{\"keccak256\":\"0xda1a9aef337cf9fede3f638ffa58aea2815b87fde0f79628834aa03af9f582d7\",\"urls\":[\"bzz-raw://7941690ba6d94500474978ff0f02ecc56335eae5937759878e25cc1ac30a8ecc\",\"dweb:/ipfs/QmZFc7wof6PzfBTkVyNkjaQrQbjc36CK4uC3Ee2vgihqyK\"],\"license\":\"MIT\"},\"node_modules/@bananapus/core/src/interfaces/IJBSplitHook.sol\":{\"keccak256\":\"0xeb8dfac7a4b81897a1c3b5d0d853a406bcff33720fb187d5ca5bb3dcc0ba3a12\",\"urls\":[\"bzz-raw://36aaeef6107cfe5b0127e063ea215aac7200f8af02e28a48e61111abd3254688\",\"dweb:/ipfs/QmQ8yQANXnhQCAWBGKsKCDsJ3A8hnTKNg5tyo79GfWXTcV\"],\"license\":\"MIT\"},\"node_modules/@bananapus/core/src/interfaces/IJBSplits.sol\":{\"keccak256\":\"0xd360bb3acf33dc1b39d14f5a9f07ad0684d0cba27fdf0a1c85bff188a4d6efde\",\"urls\":[\"bzz-raw://4bae346c94abea3680763c664f0e0f8748c249bef856db2a713c6661eb5fa671\",\"dweb:/ipfs/QmaAn3qzinU3a6NAdbAwCPb5hSPBiHttoRAEaoBNGkN99X\"],\"license\":\"MIT\"},\"node_modules/@bananapus/core/src/interfaces/IJBTerminal.sol\":{\"keccak256\":\"0x19dc9bf8cbdc8f13ee5da9dc3a87047eacb94a3fc19740a286c1f0bad2cc39ca\",\"urls\":[\"bzz-raw://0b05ae6fda9a85672508232fd992b8a5f5ffd8096622eeb12c8a7b3317eb3867\",\"dweb:/ipfs/QmNh9Quj37BXYGdTdcCD1Q58PchRsE5TLbEZep56qS3MpV\"],\"license\":\"MIT\"},\"node_modules/@bananapus/core/src/interfaces/IJBToken.sol\":{\"keccak256\":\"0x71b1f9c3a0edd41910f77396e0be2c65596571176d53eb87e887c3c0da56c0fb\",\"urls\":[\"bzz-raw://6e956f0582f4525e83d845ee9b4a89959abc4f821414f6accbbee5b38960482d\",\"dweb:/ipfs/QmbSvjgmCgnfVmcCTGu8XwrV1Rufsf3M8hB8unFq6fTMdH\"],\"license\":\"MIT\"},\"node_modules/@bananapus/core/src/interfaces/IJBTokenUriResolver.sol\":{\"keccak256\":\"0xfa5cb00dcd6085d1ef912d071fe73c63f9478a2cd0f9d8bddaf659b6af2d0967\",\"urls\":[\"bzz-raw://282e4e7c342d65f77cde0e9a08fcaf20ef5cf379c7a48b639842c0ffd0b2afb8\",\"dweb:/ipfs/QmbnN3PEQeZaXdPLT75V1J79kMg7KqSMru37RHrL3z8Yf2\"],\"license\":\"MIT\"},\"node_modules/@bananapus/core/src/interfaces/IJBTokens.sol\":{\"keccak256\":\"0x3bce94e52a53955fcf1c1a7b29ba4c16ac67473ff88ddc26c85b7989317aaaba\",\"urls\":[\"bzz-raw://78b979750c51857c44fe744fa2252794f826962ad977d55b60e0a9baee43df7f\",\"dweb:/ipfs/QmY1c6NDqtx8v9dEETChFFnY1Khm4ZWpkjUseFf8tLUmtX\"],\"license\":\"MIT\"},\"node_modules/@bananapus/core/src/libraries/JBConstants.sol\":{\"keccak256\":\"0x9d3a9a953f859d8ec79a599577f8972de6da7199cc1bfa7fdad017d4d722bcb4\",\"urls\":[\"bzz-raw://f151fcb53a8d2684eff8b9e56ac790bcbcadd8199a4fd4d17c5b224b22936722\",\"dweb:/ipfs/QmdAz1ZtCE8nTiC4AxQNLfJhnY3ndGum2Lbef7seKdvTdR\"],\"license\":\"MIT\"},\"node_modules/@bananapus/core/src/libraries/JBSplitGroupIds.sol\":{\"keccak256\":\"0x932ca2645d443f04f86c8ffb27b5c58c4fbdc7b5a145fba1d43f1db9bd488a0f\",\"urls\":[\"bzz-raw://fa412d2c5726a868a258cd518648726b0784ab7ac7566376b82ba09680f66227\",\"dweb:/ipfs/QmZvfjBt7PQzTWNzrhysyHBegUbbu4aY2xDzBGnwqMaqnF\"],\"license\":\"MIT\"},\"node_modules/@bananapus/core/src/structs/JBAccountingContext.sol\":{\"keccak256\":\"0x2907ff54d1e903cc7e0390dd88c3975884702dc2673642aacbe22b66560b56de\",\"urls\":[\"bzz-raw://a66a5381ce877b32f0e0058ceeaf843e9b6b2bc8af666c0c9f4a9d01091da004\",\"dweb:/ipfs/QmQynCetUr37dBkS1YwDS8evxuXGiqanW6THmeUxXtim8w\"],\"license\":\"MIT\"},\"node_modules/@bananapus/core/src/structs/JBAfterPayRecordedContext.sol\":{\"keccak256\":\"0xd26c3a774ff38be79064085970454fe2603a23a638c76270d5b1b3829206c3e8\",\"urls\":[\"bzz-raw://3b55dbe3bf1ef625b7ca04efab3de35406e6041d5b3d82c7265469c500e2b702\",\"dweb:/ipfs/QmUdBDo4Lt3mcsFcsXT2mqq3czFwZjQJFPLM89YA2VtD7k\"],\"license\":\"MIT\"},\"node_modules/@bananapus/core/src/structs/JBAfterRedeemRecordedContext.sol\":{\"keccak256\":\"0x521f5d23a36f0da72362cd84890cc867bd83baa8dc836ba6c5066d51dba2f163\",\"urls\":[\"bzz-raw://6cc461313286dde62d045d6288e87bae5032e035796326f5b1ed6218e58aa9da\",\"dweb:/ipfs/QmQS2AkQwf2ANQieDuaUnpJEdXChoLv4CCbZqHkfywYPSR\"],\"license\":\"MIT\"},\"node_modules/@bananapus/core/src/structs/JBBeforePayRecordedContext.sol\":{\"keccak256\":\"0x5b04e814da83c7e83ff892ab07eaad6abce6f7b85a75f8da9380e9fc3470bc81\",\"urls\":[\"bzz-raw://11c889aab993fce3e3cc2dedc15fc30dd367e7fef9b7b1bfd6a6a9f248781731\",\"dweb:/ipfs/QmVVtydCD1azeWhGLxA1hthxfLyKzMHZ1eVzCz3a3R5dLy\"],\"license\":\"MIT\"},\"node_modules/@bananapus/core/src/structs/JBBeforeRedeemRecordedContext.sol\":{\"keccak256\":\"0x73eadaf6827e82f6ccbe3a1e2b2b7fc6c59cef471f73335041b30ddcc000989d\",\"urls\":[\"bzz-raw://2f3ee84662eed565dbdaed406ef836fffaf55cccd417575578152e5085d0b1f2\",\"dweb:/ipfs/QmaJGFS7hxJsiUdKvbv5BKhSwceDEzKBnt7t5YeNWvYgMK\"],\"license\":\"MIT\"},\"node_modules/@bananapus/core/src/structs/JBCurrencyAmount.sol\":{\"keccak256\":\"0x12fe4b43f4824994624d4fe0abbd88c3fe7867fd637edb65c7f456dab27e2d6e\",\"urls\":[\"bzz-raw://8003a3e8f932cf891e86b827e67c9d31b0d34c2712e18c2bc333cfe5284ba6d5\",\"dweb:/ipfs/QmSoA6RsDcSnNzk6CB7KZtALkHmeSDAi2g6fg3TDmLDkWX\"],\"license\":\"MIT\"},\"node_modules/@bananapus/core/src/structs/JBFundAccessLimitGroup.sol\":{\"keccak256\":\"0x9fdaa8d017b72da25f583700a444a86849df053f7fb8eac874ec5139bcf651e5\",\"urls\":[\"bzz-raw://c8e44c49ee444a98424a0dbeb6897a76a0bf00d88a613f62ac2012afdac754ee\",\"dweb:/ipfs/QmdYkAiRi5bXM1YYNkc7BiqimHSFodMGn1cjHR5hcpm4xH\"],\"license\":\"MIT\"},\"node_modules/@bananapus/core/src/structs/JBPayHookSpecification.sol\":{\"keccak256\":\"0x955f0bfca97300b9e5927dc181753830ee362f83fa9ca32a90daade32aa0cfd5\",\"urls\":[\"bzz-raw://f517af1597c7c40f8d3da53f7a6684a3e162950a16559d6bf6ea3b727bb11546\",\"dweb:/ipfs/QmRWo2ZTYXmVZTzNJDYhsJNsEaHphjpUfx9eNz2cciyz86\"],\"license\":\"MIT\"},\"node_modules/@bananapus/core/src/structs/JBPermissionsData.sol\":{\"keccak256\":\"0x8f0f69a6ebf5f3704e3dfcb3712fb9d3f94ae7c1ab89bf3e37bad42a3e7a0487\",\"urls\":[\"bzz-raw://57b0c5e52843e2217082889ed47b4da3943e0da4590d5768dcebfe3edad4a6b8\",\"dweb:/ipfs/QmRz48vuWLw81kUP836rh1qzqWiJFGbksgRUA9xGEDNKTY\"],\"license\":\"MIT\"},\"node_modules/@bananapus/core/src/structs/JBRedeemHookSpecification.sol\":{\"keccak256\":\"0x673d16ee1a91bf8de3b37e57284e60451b70a9c2d748c9cdc7a151f5624af18f\",\"urls\":[\"bzz-raw://ceeb5e81effa0f076c5630c756dfcf1548d09f822b255a0a6ee01e54de8c8ae2\",\"dweb:/ipfs/QmSMoMNPRhPMnuJNvWa6S59XRfycGz9o2ApNp63bUW6TdX\"],\"license\":\"MIT\"},\"node_modules/@bananapus/core/src/structs/JBRuleset.sol\":{\"keccak256\":\"0x15b2bf3174d84846a91ccbf5a344dfb125b55ed9cf50102db8d6868844225189\",\"urls\":[\"bzz-raw://647416b025dbd941094db89cbc69f755c155bd6c87be3f322394ccc4a8e0442d\",\"dweb:/ipfs/QmTCL9xcHnxQ4t5AmCPoZvXDUPW5xhzhyyXYbkMdyg44au\"],\"license\":\"MIT\"},\"node_modules/@bananapus/core/src/structs/JBRulesetConfig.sol\":{\"keccak256\":\"0x0be470df286939259a6b98bc71459e661e81d56a58226d6a574ae1484f8f8e6c\",\"urls\":[\"bzz-raw://64592c279ba7518ac180c835a539897163f299a439065f2cc8aa54086a2c9ad7\",\"dweb:/ipfs/QmaEepVvFJdXcDBMMr7SQYjZSDJXPtCca95kQY5rZbra6U\"],\"license\":\"MIT\"},\"node_modules/@bananapus/core/src/structs/JBRulesetMetadata.sol\":{\"keccak256\":\"0xfea54c9f98416d2aa05309e7ff76967d6968a614850a1e33e48fde793ea8b514\",\"urls\":[\"bzz-raw://bf55386cbab90dbc1296b2b0cbfdc217a4500d67702e4a093a4c78bd127ecd5c\",\"dweb:/ipfs/QmTRq9mZrNSXu7oCZwti4JbBFrbY6A5msRqi9RbtL49NAj\"],\"license\":\"MIT\"},\"node_modules/@bananapus/core/src/structs/JBRulesetWithMetadata.sol\":{\"keccak256\":\"0x1bcfadf20488f6df65227f8d4d0fbf9b7539456a2389567f7fe3900d23289bc3\",\"urls\":[\"bzz-raw://0a15c399a71e5373f8c0484c6d6b83521eda31e063a2c53e4c5cec4e74550343\",\"dweb:/ipfs/QmQwi8zkjoTVXbK89NeETYimWCacTrNsesJdpLSvGdqMPX\"],\"license\":\"MIT\"},\"node_modules/@bananapus/core/src/structs/JBSplit.sol\":{\"keccak256\":\"0x1d40fa4f1c911a53b9139f3d44d27cb58fa5c5d2cd793c7a21ccf52b9e61f848\",\"urls\":[\"bzz-raw://9897d2c29fc65fe16e4eac0b7b8b6fd8ef0b0cc501986f7f0c3a78c4ec1dbb60\",\"dweb:/ipfs/QmXcHoVjCYWWCz4hm2KZ6JxtB4YNq7jmXa2evLkga59Xwq\"],\"license\":\"MIT\"},\"node_modules/@bananapus/core/src/structs/JBSplitGroup.sol\":{\"keccak256\":\"0xda7da6e88aac2906c7ea4027660088daf217edc632bebca4d72795aae8921564\",\"urls\":[\"bzz-raw://ae1939d17e94cb51484f31ce64cf0df990445a338fb9b38d39a7baf28275ae4a\",\"dweb:/ipfs/QmUhPnJiWnYhFdtLvZnrPopAdbYXxETpGjvxjPDignpTGY\"],\"license\":\"MIT\"},\"node_modules/@bananapus/core/src/structs/JBSplitHookContext.sol\":{\"keccak256\":\"0xfe34e6860b00ca93d71f44e72882281b2c57c31303151af05795c74cfdd2e51d\",\"urls\":[\"bzz-raw://08acab094888e9c929b6f6f972d89ddbb31e5867675e7e7c602d25fcb2c0f402\",\"dweb:/ipfs/QmPNdXM185cTyXQSodVr4JMviHx88jrWu7dipgkp9xTNgJ\"],\"license\":\"MIT\"},\"node_modules/@bananapus/core/src/structs/JBTerminalConfig.sol\":{\"keccak256\":\"0xd162f3821a1ccafbc8d7d108369e39ac3048445a8c7fe7a3fa97a6343f9eefaa\",\"urls\":[\"bzz-raw://82172ea0407b6d9edc45e408c7e8edb8e129adf49a94349fe3a5862da9bc044e\",\"dweb:/ipfs/QmWheF5Tjq2hcabnSzfYqdFHUA1YxYEdAPZaRw9N166V1d\"],\"license\":\"MIT\"},\"node_modules/@bananapus/core/src/structs/JBTokenAmount.sol\":{\"keccak256\":\"0x5cf0626b73a596c1e2da17c89ae039a7c0374310b060d48568d3b6c11fbe6180\",\"urls\":[\"bzz-raw://63348b50be95e2995409394a17caffc563a646f0972650a1230bf864fbd3219b\",\"dweb:/ipfs/QmZXZpS3SbFD5nWaCauf6AqbEhLURv5qsKHpThBvQgDU6u\"],\"license\":\"MIT\"},\"node_modules/@bananapus/permission-ids/src/JBPermissionIds.sol\":{\"keccak256\":\"0xf61109f6b217a80d5e5391f548fb6f2e451f7dbee3fabfc04cf17e88722203bc\",\"urls\":[\"bzz-raw://ac776ab1cd621c22bd7973471acdfa187f3abc659ad9a3ef6ed10b6447dfcf9c\",\"dweb:/ipfs/QmYLbaHt68qcuMzkiKpe96jMjiWUq1F3u8yMhxmZ3pnnWu\"],\"license\":\"MIT\"},\"node_modules/@bananapus/suckers/src/interfaces/IBPSucker.sol\":{\"keccak256\":\"0xb0ce4e44f966d43f7ded2b59b98fc96a2a71522f44d06245882d2bbd89ff32d9\",\"urls\":[\"bzz-raw://290f1f3630d3749fc88f84944a2fd3a785bcb44a892844de1d0e1078829c7149\",\"dweb:/ipfs/QmcKDnSDxmkkex1Tr9t3ZU7SKNXXK2EtNowu3FZZYH9hZL\"],\"license\":\"MIT\"},\"node_modules/@bananapus/suckers/src/interfaces/IBPSuckerDeployer.sol\":{\"keccak256\":\"0xe252e890c4b5e12d5fa537a11cd2fad936f41be80240301ace8afca3de481222\",\"urls\":[\"bzz-raw://730855964dd0629f3d514ed52f59d80d02786733c3b8b5cf21e69524de7f8829\",\"dweb:/ipfs/QmUuoYEmnzUNn3hANGrg8sDZdjoaEbgWMWLepsSQt9MUyw\"],\"license\":\"MIT\"},\"node_modules/@bananapus/suckers/src/interfaces/IBPSuckerRegistry.sol\":{\"keccak256\":\"0xd6c68475ca7163782ebd2aacc2c9330def7e903c7b58d4990b0851551ec5cfe1\",\"urls\":[\"bzz-raw://776732725d15803f813cf727d5f1b0cf44b414df0611cbdbd821d4d993b184b9\",\"dweb:/ipfs/QmbgZF9KmcLZ6KAZwfuhP9ve7ukeJa2DdZxiVV6dMxzYK6\"],\"license\":\"UNLICENSED\"},\"node_modules/@bananapus/suckers/src/structs/BPSuckerDeployerConfig.sol\":{\"keccak256\":\"0x867e10bc73a07ab19cf5511d047dc885e3cfae58fc5f3441f6a5d3174afe6b78\",\"urls\":[\"bzz-raw://b8c3e72e57958bb2e2b8072ac6055804598c080a748fbc2f40a783575435809e\",\"dweb:/ipfs/QmbY7W6i5qAAj42EsQX8yt8M8nXArXByEGosnHWyxs4BE7\"],\"license\":\"MIT\"},\"node_modules/@bananapus/suckers/src/structs/BPTokenMapping.sol\":{\"keccak256\":\"0x84865bda925cdc9a608cbbfc487619acba391f98ae12bbbfdbc5779d617a17d9\",\"urls\":[\"bzz-raw://3bbc1fdd38feaf64fd4914bddb62cda7e5b8ee0f046a0eac8cfcb15f9493bcc5\",\"dweb:/ipfs/QmXgAx7sr1M8r71YrSeQJGAB1uhvdxpQyS633UgJvLCQfb\"],\"license\":\"MIT\"},\"node_modules/@openzeppelin/contracts/metatx/ERC2771Context.sol\":{\"keccak256\":\"0x98256cf37b71a69b2f5a8a6fe975ea03590dff703102bd141a830f94e8adebf6\",\"urls\":[\"bzz-raw://6251fe1f6a1e45e6d619d150c123afc88b8646b38ee26a136efa9a6988a31d3f\",\"dweb:/ipfs/QmeXDT85wSZdP31wkz3ah3KhponCiksJLP5o2LR5e1JxcK\"],\"license\":\"MIT\"},\"node_modules/@openzeppelin/contracts/token/ERC20/IERC20.sol\":{\"keccak256\":\"0xc6a8ff0ea489379b61faa647490411b80102578440ab9d84e9a957cc12164e70\",\"urls\":[\"bzz-raw://0ea104e577e63faea3b69c415637e99e755dcbf64c5833d7140c35a714d6d90c\",\"dweb:/ipfs/Qmau6x4Ns9XdyynRCNNp3RhLqijJjFm7z5fyZazfYFGYdq\"],\"license\":\"MIT\"},\"node_modules/@openzeppelin/contracts/token/ERC721/IERC721.sol\":{\"keccak256\":\"0x5ef46daa3b58ef2702279d514780316efaa952915ee1aa3396f041ee2982b0b4\",\"urls\":[\"bzz-raw://2f8f2a76e23b02fc69e8cd24c3cb47da6c7af3a2d6c3a382f8ac25c6e094ade7\",\"dweb:/ipfs/QmPV4ZS4tPVv4mTCf9ejyZ1ai57EEibDRj7mN2ARDCLV5n\"],\"license\":\"MIT\"},\"node_modules/@openzeppelin/contracts/token/ERC721/IERC721Receiver.sol\":{\"keccak256\":\"0x7f7a26306c79a65fb8b3b6c757cd74660c532cd8a02e165488e30027dd34ca49\",\"urls\":[\"bzz-raw://d01e0b2b837ee2f628545e54d8715b49c7ef2befd08356c2e7f6c50dde8a1c22\",\"dweb:/ipfs/QmWBAn6y2D1xgftci97Z3qR9tQnkvwQpYwFwkTvDMvqU4i\"],\"license\":\"MIT\"},\"node_modules/@openzeppelin/contracts/utils/Context.sol\":{\"keccak256\":\"0x493033a8d1b176a037b2cc6a04dad01a5c157722049bbecf632ca876224dd4b2\",\"urls\":[\"bzz-raw://6a708e8a5bdb1011c2c381c9a5cfd8a9a956d7d0a9dc1bd8bcdaf52f76ef2f12\",\"dweb:/ipfs/Qmax9WHBnVsZP46ZxEMNRQpLQnrdE4dK8LehML1Py8FowF\"],\"license\":\"MIT\"},\"node_modules/@openzeppelin/contracts/utils/introspection/ERC165.sol\":{\"keccak256\":\"0x9e8778b14317ba9e256c30a76fd6c32b960af621987f56069e1e819c77c6a133\",\"urls\":[\"bzz-raw://1777404f1dcd0fac188e55a288724ec3c67b45288e49cc64723e95e702b49ab8\",\"dweb:/ipfs/QmZFdC626GButBApwDUvvTnUzdinevC3B24d7yyh57XkiA\"],\"license\":\"MIT\"},\"node_modules/@openzeppelin/contracts/utils/introspection/IERC165.sol\":{\"keccak256\":\"0x4296879f55019b23e135000eb36896057e7101fb7fb859c5ef690cf14643757b\",\"urls\":[\"bzz-raw://87b3541437c8c443ccd36795e56a338ed12855eec17f8da624511b8d1a7e14df\",\"dweb:/ipfs/QmeJQCtZrQjtJLr6u7ZHWeH3pBnjtLWzvRrKViAi7UZqxL\"],\"license\":\"MIT\"},\"node_modules/@uniswap/v3-core/contracts/interfaces/IUniswapV3Pool.sol\":{\"keccak256\":\"0x4e64844c56061cd90e0a80de73534a9166704c43eed579eb83f90bc2780ce968\",\"urls\":[\"bzz-raw://cba4fab5cebdddf644b901994a7f0f52b98885d4c56012f4dc51d52c2bf9de0e\",\"dweb:/ipfs/QmVyyrRmqXrAiapewWunRVgiPVFJHpH2hKiE1py1svMSNV\"],\"license\":\"GPL-2.0-or-later\"},\"node_modules/@uniswap/v3-core/contracts/interfaces/callback/IUniswapV3SwapCallback.sol\":{\"keccak256\":\"0x3f485fb1a44e8fbeadefb5da07d66edab3cfe809f0ac4074b1e54e3eb3c4cf69\",\"urls\":[\"bzz-raw://095ce0626b41318c772b3ebf19d548282607f6a8f3d6c41c13edfbd5370c8652\",\"dweb:/ipfs/QmVDZfJJ89UUCE1hMyzqpkZAtQ8jUsBgZNE5AMRG7RzRFS\"],\"license\":\"GPL-2.0-or-later\"},\"node_modules/@uniswap/v3-core/contracts/interfaces/pool/IUniswapV3PoolActions.sol\":{\"keccak256\":\"0x9453dd0e7442188667d01d9b65de3f1e14e9511ff3e303179a15f6fc267f7634\",\"urls\":[\"bzz-raw://982f4328f956c3e60e67501e759eb292ac487f76460c774c50e9ae4fcc92aae5\",\"dweb:/ipfs/QmRnzEDsaqtd9PJEVcgQi7p5aV5pMSvRUoGZJAdwFUJxgZ\"],\"license\":\"GPL-2.0-or-later\"},\"node_modules/@uniswap/v3-core/contracts/interfaces/pool/IUniswapV3PoolDerivedState.sol\":{\"keccak256\":\"0xe603ac5b17ecdee73ba2b27efdf386c257a19c14206e87eee77e2017b742d9e5\",\"urls\":[\"bzz-raw://8febc9bdb399a4d94bb89f5377732652e2400e4a8dee808201ade6848f9004e7\",\"dweb:/ipfs/QmaKDqYYFU4d2W2iN77aDHptfbFmYZRrMYXHeGpJmM8C1c\"],\"license\":\"GPL-2.0-or-later\"},\"node_modules/@uniswap/v3-core/contracts/interfaces/pool/IUniswapV3PoolErrors.sol\":{\"keccak256\":\"0xf80abf13fb1fafc127ba4e792f240dd8ea7c8c893978cdfd8439c27fae9a037b\",\"urls\":[\"bzz-raw://b04fc72a656bbf3631e9c2e67b9870a2d9d235185e833fe050e9606e6816a9aa\",\"dweb:/ipfs/QmUcz4bkEkJ9pwzFu1C3n97hBQ3st9U6qTAqCdyFwddKco\"],\"license\":\"GPL-2.0-or-later\"},\"node_modules/@uniswap/v3-core/contracts/interfaces/pool/IUniswapV3PoolEvents.sol\":{\"keccak256\":\"0x8071514d0fe5d17d6fbd31c191cdfb703031c24e0ece3621d88ab10e871375cd\",\"urls\":[\"bzz-raw://d0b571930cc7488b1d546a7e9cea7c52d8b3c4e207da657ed0e0db7343b8cd03\",\"dweb:/ipfs/QmaGK6vVwB95QSTR1XMYvrh7ivYAYZxi3fD7v6VMA4jZ39\"],\"license\":\"GPL-2.0-or-later\"},\"node_modules/@uniswap/v3-core/contracts/interfaces/pool/IUniswapV3PoolImmutables.sol\":{\"keccak256\":\"0xf6e5d2cd1139c4c276bdbc8e1d2b256e456c866a91f1b868da265c6d2685c3f7\",\"urls\":[\"bzz-raw://b99c8c9ae8e27ee6559e5866bea82cbc9ffc8247f8d15b7422a4deb287d4d047\",\"dweb:/ipfs/QmfL8gaqt3ffAnm6nVj5ksuNpLygXuL3xq5VBqrkwC2JJ3\"],\"license\":\"GPL-2.0-or-later\"},\"node_modules/@uniswap/v3-core/contracts/interfaces/pool/IUniswapV3PoolOwnerActions.sol\":{\"keccak256\":\"0x759b78a2918af9e99e246dc3af084f654e48ef32bb4e4cb8a966aa3dcaece235\",\"urls\":[\"bzz-raw://64144fb96e1c7fdba87305acadb98a198d26a3d46c097cb3a666e567f6f29735\",\"dweb:/ipfs/QmUnWVwN9FKB9uV5Pr8YfLpWZnYM2DENnRMaadZ492JS9u\"],\"license\":\"GPL-2.0-or-later\"},\"node_modules/@uniswap/v3-core/contracts/interfaces/pool/IUniswapV3PoolState.sol\":{\"keccak256\":\"0x44fa2ce1182f6c2f6bead3d1737804bf7e112252ae86e0f2e92f9b8249603f43\",\"urls\":[\"bzz-raw://54154e8665b98d65f5dc91b256551852cb47882180b501b260657122d207c0ea\",\"dweb:/ipfs/QmcfemK1A2PXYrWB5SBFGERpMCderbFRb8BtTzQDj1sUBp\"],\"license\":\"GPL-2.0-or-later\"},\"src/REVBasicDeployer.sol\":{\"keccak256\":\"0x4119bd6e55fc41070bc4004a7704d8b0b31655d43c3a5ecaa226bb39b65f1782\",\"urls\":[\"bzz-raw://9bc004da9fc1dd0e405c256b409608682fac57d06c0c7b727ab0946bc405fe95\",\"dweb:/ipfs/Qme3BYeWVD5DJG7krWeKSuRqP8aLjqXqGhMnkQk2yQYuot\"],\"license\":\"MIT\"},\"src/interfaces/IREVBasicDeployer.sol\":{\"keccak256\":\"0x64116b0cd833a01af448fadcffb6d38d10263a2cc67e939be1f452b38897caa2\",\"urls\":[\"bzz-raw://6cfe90b4e5ff62026416b92279fa2b6f2296e98032c4e1d711ec1a20ac82faf1\",\"dweb:/ipfs/Qma7rY5yvbcBMJBb9mDaQQCLonHTEisg4pQ7z5WAbGpcj1\"],\"license\":null},\"src/structs/REVBuybackHookConfig.sol\":{\"keccak256\":\"0xdae5ecff2ff2a04c0aab17093f023b2161994dc0e6e2adc5006d36d157eb09aa\",\"urls\":[\"bzz-raw://5e0eed08e652290f59c0d18565df21be3fc7b33ca3fa41c393461472479e4a7f\",\"dweb:/ipfs/QmfZcbmdvYDQwEE4eesGpcxdojAm9BhJ81fdkxjX9LU9Sa\"],\"license\":\"MIT\"},\"src/structs/REVBuybackPoolConfig.sol\":{\"keccak256\":\"0x83f2a3875a8b1955856b72bfddd90c0cc2fbe26697f1dd4e13b33c0319049a14\",\"urls\":[\"bzz-raw://e1e37d0eb626221b6a8774a155a3799dc5cf0b497d26263ef323ed768d61a0dc\",\"dweb:/ipfs/QmcSPDAaPemjh3a1XycV4qDMJwctnuwiKe3wXrRUjotKAB\"],\"license\":\"MIT\"},\"src/structs/REVConfig.sol\":{\"keccak256\":\"0x5b53b84ea0fc0e3f2dca7b13b09d3792a11b3960155d00a1741e750b1cbb2781\",\"urls\":[\"bzz-raw://a35f79a509999bb383bf2086da5df35b9cce76af91e3b3633c022b0cceee789a\",\"dweb:/ipfs/QmXTUQHGfmmFABnqwLcRo88FyuM7TZh9pswdotUeHYMrGH\"],\"license\":\"MIT\"},\"src/structs/REVDescription.sol\":{\"keccak256\":\"0x40bebc53d50dbfb261882f51c7667d7263193e8fc48897b9384c2ca259046c1b\",\"urls\":[\"bzz-raw://24f98bc7ef12f53afa326a266c69683e24501405f72566b7ca7e8dad242e1fe1\",\"dweb:/ipfs/QmNkLsCwhx5pTuMmJLwUNJdPrGjEi3H9JnTX2s9GsoUTAa\"],\"license\":\"MIT\"},\"src/structs/REVStageConfig.sol\":{\"keccak256\":\"0x0356af8b2ac6ae9b2e23562d638a4903d707350a365d90bfd468b8d4f98c41b5\",\"urls\":[\"bzz-raw://85d7712485745986f7d5caa059a80563bad151dadf67eb4752f2f272cbf46a1e\",\"dweb:/ipfs/QmRhbgEfGfvbZAs1hp4cbwpi2aeLzfZTrfpDGCoey7xiCs\"],\"license\":\"MIT\"},\"src/structs/REVSuckerDeploymentConfig.sol\":{\"keccak256\":\"0xed607665da0efa1a1662a7e094095f336bef2d6694f79e5d8158cacf73c34dac\",\"urls\":[\"bzz-raw://c8c68b67a28a7dfc060596cfb98b7fc05ad0c9b61482f60a04810bc68cc0b8e3\",\"dweb:/ipfs/QmeLH5z8J6DDjRQXfJi4BoMmQqY4zTjERYfSzu8Uypkawp\"],\"license\":\"MIT\"}},\"version\":1}",
			"args": [
				"0xBeb17Ba97066906106d72fCA2F05F1E307E74B76",
				"0x0279b704B409A70E23D6aB27544baDb568aA4930",
				"0xB2b5841DBeF766d4b521221732F9B618fCf34A87"
			],
			"bytecode": "0x60e06040523480156200001157600080fd5b5060405162004415380380620044158339810160408190526200003491620000bc565b6001600160a01b0390811660805291821660a0521660c0526002805460018181018355600083905260117f405787fa12a823e0f2b7631cc41b3ba8828b3321ca811111fa75cd3aa3bb5ace92830155825480820184556019908301558254908101909255600691015562000110565b6001600160a01b0381168114620000b957600080fd5b50565b600080600060608486031215620000d257600080fd5b8351620000df81620000a3565b6020850151909350620000f281620000a3565b60408501519092506200010581620000a3565b809150509250925092565b60805160a05160c051614250620001c5600039600081816102f50152818161095b01528181610a4401528181610d5f0152818161185f0152611985015260008181610344015281816103ec01528181610b7301528181610e3701528181610fb00152818161112b01528181611303015281816113d0015281816114c0015281816115880152818161164b01528181611748015261189a0152600081816101f90152818161029f01526122f401526142506000f3fe608060405234801561001057600080fd5b506004361061011b5760003560e01c8063677ce088116100b2578063aaf320d711610081578063bb19940211610066578063bb19940214610317578063eb5ad9d91461032c578063ee0fc1211461033f57600080fd5b8063aaf320d7146102cd578063b5d25533146102f057600080fd5b8063677ce088146102495780637249a7731461025c5780637da0a8771461029d5780639d82ba25146102c357600080fd5b806343681e15116100ee57806343681e15146101a85780634c4ffc71146101c8578063572b6c05146101e95780635c0a7cee1461022957600080fd5b806301ffc9a71461012057806302ccf9a114610148578063150b7a02146101695780631d3eedaa14610195575b600080fd5b61013361012e366004612450565b610366565b60405190151581526020015b60405180910390f35b61015b610156366004612cad565b6103cf565b60405190815260200161013f565b61017c610177366004612d5a565b6103e8565b6040516001600160e01b0319909116815260200161013f565b61015b6101a3366004612df9565b6104c8565b61015b6101b6366004612eb0565b60016020526000908152604090205481565b6101db6101d6366004612ec9565b6104e4565b60405161013f929190612fc9565b6101336101f7366004612fea565b7f00000000000000000000000000000000000000000000000000000000000000006001600160a01b0390811691161490565b61023c610237366004612eb0565b6107db565b60405161013f9190613007565b61013361025736600461301a565b6108ff565b61028561026a366004612eb0565b6000602081905290815260409020546001600160a01b031681565b6040516001600160a01b03909116815260200161013f565b7f0000000000000000000000000000000000000000000000000000000000000000610285565b61015b6276a70081565b6102e06102db36600461304a565b610a34565b60405161013f9493929190613086565b6102857f000000000000000000000000000000000000000000000000000000000000000081565b61032a610325366004613126565b610b71565b005b61032a61033a36600461301a565b610e28565b6102857f000000000000000000000000000000000000000000000000000000000000000081565b60006001600160e01b031982167f81c03c2e0000000000000000000000000000000000000000000000000000000014806103c957507f01ffc9a7000000000000000000000000000000000000000000000000000000006001600160e01b03198316145b92915050565b60006103df6000868686866104c8565b95945050505050565b60007f00000000000000000000000000000000000000000000000000000000000000006001600160a01b031663293c49996040518163ffffffff1660e01b8152600401602060405180830381865afa158015610448573d6000803e3d6000fd5b505050506040513d601f19601f8201168201806040525081019061046c91906131aa565b6001600160a01b0316336001600160a01b03161461048957600080fd5b6001600160a01b0385161561049d57600080fd5b507f150b7a020000000000000000000000000000000000000000000000000000000095945050505050565b60006104da86868686306000886112e2565b9695505050505050565b60c081013560009081526020819052604081205460609081906001600160a01b0316801561059c576040517f4c4ffc710000000000000000000000000000000000000000000000000000000081526001600160a01b03821690634c4ffc7190610551908890600401613272565b600060405180830381865afa15801561056e573d6000803e3d6000fd5b505050506040513d6000823e601f3d908101601f19168201604052610596919081019061333a565b90945091505b815160c086013560009081526004602090815260408083208054825181850281018501909352808352941515949192909190849084015b828210156106b7576000848152602090819020604080516060810182526003860290920180546001600160a01b031683526001810154938301939093526002830180549293929184019161062690613482565b80601f016020809104026020016040519081016040528092919081815260200182805461065290613482565b801561069f5780601f106106745761010080835404028352916020019161069f565b820191906000526020600020905b81548152906001019060200180831161068257829003601f168201915b505050505081525050815260200190600101906105d3565b505050509050600081519050826106cf5760006106d2565b60015b6106df9060ff16826134d2565b67ffffffffffffffff8111156106f7576106f7612481565b60405190808252806020026020018201604052801561074457816020015b604080516060808201835260008083526020830152918101919091528152602001906001900390816107155790505b50955060005b8181101561079157828181518110610764576107646134e5565b602002602001015187828151811061077e5761077e6134e5565b602090810291909101015260010161074a565b5082156107d157846000815181106107ab576107ab6134e5565b60200260200101518682815181106107c5576107c56134e5565b60200260200101819052505b5050505050915091565b606060046000838152602001908152602001600020805480602002602001604051908101604052809291908181526020016000905b828210156108f4576000848152602090819020604080516060810182526003860290920180546001600160a01b031683526001810154938301939093526002830180549293929184019161086390613482565b80601f016020809104026020016040519081016040528092919081815260200182805461088f90613482565b80156108dc5780601f106108b1576101008083540402835291602001916108dc565b820191906000526020600020905b8154815290600101906020018083116108bf57829003601f168201915b50505050508152505081526020019060010190610810565b505050509050919050565b6000828152602081905260408120546001600160a01b0390811690831603610929575060016103c9565b6040517f3d12cb87000000000000000000000000000000000000000000000000000000008152600481018490526000907f00000000000000000000000000000000000000000000000000000000000000006001600160a01b031690633d12cb8790602401600060405180830381865afa1580156109aa573d6000803e3d6000fd5b505050506040513d6000823e601f3d908101601f191682016040526109d291908101906134fb565b805190915060005b81811015610a28578281815181106109f4576109f46134e5565b60200260200101516001600160a01b0316856001600160a01b031603610a2057600193505050506103c9565b6001016109da565b50600095945050505050565b6000808060606001600160a01b037f0000000000000000000000000000000000000000000000000000000000000000166383db9d0160408701803590610a7d9060208a01612fea565b6040516001600160e01b031960e085901b16815260048101929092526001600160a01b03166024820152604401602060405180830381865afa158015610ac7573d6000803e3d6000fd5b505050506040513d601f19601f82011682018060405250810190610aeb9190613595565b15610b085761271085608001358660a00135935093509350610b6a565b604080860135600090815260016020522054421015610b53576040517f04c3b3cd00000000000000000000000000000000000000000000000000000000815260040160405180910390fd5b84610160013585608001358660a001359350935093505b9193509193565b7f00000000000000000000000000000000000000000000000000000000000000006001600160a01b0316631f47ce696040518163ffffffff1660e01b8152600401602060405180830381865afa158015610bcf573d6000803e3d6000fd5b505050506040513d601f19601f82011682018060405250810190610bf391906131aa565b6001600160a01b031663f434c9146040518163ffffffff1660e01b8152600401602060405180830381865afa158015610c30573d6000803e3d6000fd5b505050506040513d601f19601f82011682018060405250810190610c5491906131aa565b6001600160a01b0316630f5932f0610c6a611ab3565b3086610c7588611ac2565b6040518563ffffffff1660e01b8152600401610c9494939291906135f3565b602060405180830381865afa158015610cb1573d6000803e3d6000fd5b505050506040513d601f19601f82011682018060405250810190610cd59190613595565b610cf2576040516331fb21f360e01b815260040160405180910390fd5b6000610cfc611ab3565b838360200151604051602001610d1493929190613625565b60408051601f1981840301815290829052805160209091012083517f2f3f50e00000000000000000000000000000000000000000000000000000000083529092506001600160a01b037f00000000000000000000000000000000000000000000000000000000000000001691632f3f50e091610d96918891869160040161372f565b6000604051808303816000875af1158015610db5573d6000803e3d6000fd5b505050506040513d6000823e601f3d908101601f19168201604052610ddd91908101906134fb565b5080847f755ecfca2f6e66af8868551556bf7931740a7062db8e0882f4c322fdb0bb3f608585610e0b611ab3565b604051610e1a93929190613777565b60405180910390a350505050565b6000610e3383611ac2565b90507f00000000000000000000000000000000000000000000000000000000000000006001600160a01b0316631f47ce696040518163ffffffff1660e01b8152600401602060405180830381865afa158015610e93573d6000803e3d6000fd5b505050506040513d601f19601f82011682018060405250810190610eb791906131aa565b6001600160a01b031663f434c9146040518163ffffffff1660e01b8152600401602060405180830381865afa158015610ef4573d6000803e3d6000fd5b505050506040513d601f19601f82011682018060405250810190610f1891906131aa565b6001600160a01b0316630f5932f0610f2e611ab3565b3086856040518563ffffffff1660e01b8152600401610f5094939291906135f3565b602060405180830381865afa158015610f6d573d6000803e3d6000fd5b505050506040513d601f19601f82011682018060405250810190610f919190613595565b610fae576040516331fb21f360e01b815260040160405180910390fd5b7f00000000000000000000000000000000000000000000000000000000000000006001600160a01b0316631f47ce696040518163ffffffff1660e01b8152600401602060405180830381865afa15801561100c573d6000803e3d6000fd5b505050506040513d601f19601f8201168201806040525081019061103091906131aa565b6001600160a01b031663f434c9146040518163ffffffff1660e01b8152600401602060405180830381865afa15801561106d573d6000803e3d6000fd5b505050506040513d601f19601f8201168201806040525081019061109191906131aa565b6001600160a01b03166305d2912e3060405180606001604052806110b3611ab3565b6001600160a01b0316815260208082018990526040805160008152918201815291820152516001600160e01b031960e085901b1681526110f79291906004016137b6565b600060405180830381600087803b15801561111157600080fd5b505af1158015611125573d6000803e3d6000fd5b505050507f00000000000000000000000000000000000000000000000000000000000000006001600160a01b0316631f47ce696040518163ffffffff1660e01b8152600401602060405180830381865afa158015611187573d6000803e3d6000fd5b505050506040513d601f19601f820116820180604052508101906111ab91906131aa565b6001600160a01b031663f434c9146040518163ffffffff1660e01b8152600401602060405180830381865afa1580156111e8573d6000803e3d6000fd5b505050506040513d601f19601f8201168201806040525081019061120c91906131aa565b6001600160a01b03166305d2912e306040518060600160405280866001600160a01b03168152602001878152602001858152506040518363ffffffff1660e01b815260040161125c9291906137b6565b600060405180830381600087803b15801561127657600080fd5b505af115801561128a573d6000803e3d6000fd5b50505050816001600160a01b0316837f0329d6a81434b130c72eb65eea0e32e429dc1277b4aad86ec86454aefb6184516112c2611ab3565b6040516001600160a01b03909116815260200160405180910390a3505050565b6000806000806112f38a8888611c7a565b9250925092508a6000036113ce577f00000000000000000000000000000000000000000000000000000000000000006001600160a01b0316630634bae9308c6000015160400151868d8f600001516020015160405160200161135591906137f9565b6040516020818303038152906040526040518663ffffffff1660e01b8152600401611384959493929190613c27565b6020604051808303816000875af11580156113a3573d6000803e3d6000fd5b505050506040513d601f19601f820116820180604052508101906113c79190613c8f565b9a5061148c565b7f00000000000000000000000000000000000000000000000000000000000000006001600160a01b0316631ea7bc8c8c858c8e600001516020015160405160200161141991906137f9565b6040516020818303038152906040526040518563ffffffff1660e01b81526004016114479493929190613ca8565b6020604051808303816000875af1158015611466573d6000803e3d6000fd5b505050506040513d601f19601f8201168201806040525081019061148a9190613c8f565b505b808061149c5750468a6060015114155b156114be576114ae6276a700426134d2565b60008c8152600160205260409020555b7f00000000000000000000000000000000000000000000000000000000000000006001600160a01b031663581781918c8c60000151600001518d60000151602001518e60000151606001516040518563ffffffff1660e01b81526004016115289493929190613ce7565b6020604051808303816000875af1158015611547573d6000803e3d6000fd5b505050506040513d601f19601f8201168201806040525081019061156b91906131aa565b5087516001600160a01b031615611586576115868b8961203b565b7f00000000000000000000000000000000000000000000000000000000000000006001600160a01b031663dd5f214a8c60006115c58e608001516121a6565b6040518463ffffffff1660e01b81526004016115e393929190613d24565b600060405180830381600087803b1580156115fd57600080fd5b505af1158015611611573d6000803e3d6000fd5b50505050600060405180606001604052808c608001516001600160a01b031681526020018d81526020016116448e611ac2565b81525090507f00000000000000000000000000000000000000000000000000000000000000006001600160a01b031663f434c9146040518163ffffffff1660e01b8152600401602060405180830381865afa1580156116a7573d6000803e3d6000fd5b505050506040513d601f19601f820116820180604052508101906116cb91906131aa565b6001600160a01b03166305d2912e30836040518363ffffffff1660e01b81526004016116f89291906137b6565b600060405180830381600087803b15801561171257600080fd5b505af1158015611726573d6000803e3d6000fd5b5050505060008b604001511180156117415750468b60600151145b1561180f577f00000000000000000000000000000000000000000000000000000000000000006001600160a01b031663c7fb92de8d8d604001518e608001518f60000151602001516040516020016117999190613e13565b60405160208183030381529060405260006040518663ffffffff1660e01b81526004016117ca959493929190613e63565b6020604051808303816000875af11580156117e9573d6000803e3d6000fd5b505050506040513d601f19601f8201168201806040525081019061180d9190613c8f565b505b60408051600180825281830190925260009160208083019080368337019050509050601c81600081518110611846576118466134e5565b60200260200101818152505060405180606001604052807f00000000000000000000000000000000000000000000000000000000000000006001600160a01b031681526020018e81526020018281525091507f00000000000000000000000000000000000000000000000000000000000000006001600160a01b031663f434c9146040518163ffffffff1660e01b8152600401602060405180830381865afa1580156118f6573d6000803e3d6000fd5b505050506040513d601f19601f8201168201806040525081019061191a91906131aa565b6001600160a01b03166305d2912e30846040518363ffffffff1660e01b81526004016119479291906137b6565b600060405180830381600087803b15801561196157600080fd5b505af1158015611975573d6000803e3d6000fd5b50505050602087015115611a55577f00000000000000000000000000000000000000000000000000000000000000006001600160a01b0316632f3f50e08e6119bb611ab3565b878b602001516040516020016119d393929190613625565b60408051601f198184030181529082905280516020909101208b516001600160e01b031960e086901b168352611a0c939260040161372f565b6000604051808303816000875af1158015611a2b573d6000803e3d6000fd5b505050506040513d6000823e601f3d908101601f19168201604052611a5391908101906134fb565b505b8c7f4b827371715024f69a0bc98c8df6edafe6e471e78488ab1b3849de72f66b12e08d8d8d8b8a8a8a611a86611ab3565b604051611a9a989796959493929190613fc6565b60405180910390a2509a9b9a5050505050505050505050565b6000611abd6122e4565b905090565b606060006002805480602002602001604051908101604052809291908181526020018280548015611b1257602002820191906000526020600020905b815481526020019060010190808311611afe575b50508351600088815260036020908152604080832080548251818502810185019093528083529899509397929650945091925090830182828015611b7557602002820191906000526020600020905b815481526020019060010190808311611b61575b50508351939450611b8c92508391508590506134d2565b67ffffffffffffffff811115611ba457611ba4612481565b604051908082528060200260200182016040528015611bcd578160200160208202803683370190505b50945060005b83811015611c1a57848181518110611bed57611bed6134e5565b6020026020010151868281518110611c0757611c076134e5565b6020908102919091010152600101611bd3565b5060005b81811015611c7057828181518110611c3857611c386134e5565b6020026020010151868286611c4d91906134d2565b81518110611c5d57611c5d6134e5565b6020908102919091010152600101611c1e565b5050505050919050565b6060806000808660a001515190508067ffffffffffffffff811115611ca157611ca1612481565b604051908082528060200260200182016040528015611d9357816020015b611d806040805161010080820183526000808352602080840182905283850182905260608085018390526080808601849052865161020081018852848152928301849052958201839052810182905293840181905260a084810182905260c0850182905260e0850182905291840181905261012084018190526101408401819052610160840181905261018084018190526101a084018190526101c084018190526101e0840152909190820190815260200160608152602001606081525090565b815260200190600190039081611cbf5790505b509350611d9f87612359565b6040805160c081018252600080825260208201819052918101829052606081018290526080810182905260a081018290529194505b8281101561202f578860a001518181518110611df257611df26134e5565b60200260200101519150816000015164ffffffffff16868281518110611e1a57611e1a6134e5565b60200260200101516000018181525050816060015164ffffffffff16868281518110611e4857611e486134e5565b6020026020010151602001818152505081604001516dffffffffffffffffffffffffffff16868281518110611e7f57611e7f6134e5565b60200260200101516040018181525050816080015163ffffffff16868281518110611eac57611eac6134e5565b602002602001015160600181815250506000868281518110611ed057611ed06134e5565b6020026020010151608001906001600160a01b031690816001600160a01b031681525050604051806102000160405280836020015161ffff1681526020018360a0015161ffff16612710611f24919061412f565b815260208b81015163ffffffff16908201526000604082018190526060820181905260016080830181905260a0830182905260c0830182905260e083018290526101008301829052610120830182905261014083018290526101608301526101808201526001600160a01b038a166101a08201526101c0018890528651879083908110611fb357611fb36134e5565b602002602001015160a00181905250806000148015611fd95750815164ffffffffff1615155b8015611fef575042826000015164ffffffffff16105b15611ff957600193505b84612004838361239a565b604051602001612015929190614142565b60408051601f198184030181529190529450600101611dd4565b50505093509350939050565b602081810151516040805160808101825260008082529381018490529081018390526060810183905290915b8281101561215a5783602001518181518110612085576120856134e5565b6020908102919091018101518551918101516040808301516060840151845192517f7b621d3a000000000000000000000000000000000000000000000000000000008152600481018c905262ffffff909416602485015263ffffffff91821660448501521660648301526001600160a01b039081166084830152919450911690637b621d3a9060a4016020604051808303816000875af115801561212d573d6000803e3d6000fd5b505050506040513d601f19601f8201168201806040525081019061215191906131aa565b50600101612067565b5050905160009283526020839052604090922080547fffffffffffffffffffffffff0000000000000000000000000000000000000000166001600160a01b039093169290921790915550565b604080516001808252818301909252606091816020015b6040805180820190915260008152606060208201528152602001906001900390816121bd57505060408051600180825281830190925291925060009190602082015b6040805160c08101825260008082526020808301829052928201819052606082018190526080820181905260a082015282526000199092019101816121ff5790505090506040518060c00160405280600015158152602001633b9aca00815260200160008152602001846001600160a01b031681526020016000815260200160006001600160a01b03168152508160008151811061229f5761229f6134e5565b602002602001018190525060405180604001604052806001815260200182815250826000815181106122d3576122d36134e5565b602002602001018190525050919050565b6000366014336001600160a01b037f0000000000000000000000000000000000000000000000000000000000000000161480156123215750808210155b1561235157600036612333838561412f565b61233e928290614171565b6123479161419b565b60601c9250505090565b339250505090565b60208082015160608381015184518051818601519184015160405194966123849695929392016141d0565b6040516020818303038152906040529050919050565b6060811580156123b05750825164ffffffffff16155b6123c257825164ffffffffff166123c4565b425b83602001518460400151856060015186608001518760a001516040516020016124399695949392919095865261ffff94851660208701526dffffffffffffffffffffffffffff93909316604086015264ffffffffff91909116606085015263ffffffff1660808401521660a082015260c00190565b604051602081830303815290604052905092915050565b60006020828403121561246257600080fd5b81356001600160e01b03198116811461247a57600080fd5b9392505050565b634e487b7160e01b600052604160045260246000fd5b6040516080810167ffffffffffffffff811182821017156124ba576124ba612481565b60405290565b60405160c0810167ffffffffffffffff811182821017156124ba576124ba612481565b6040805190810167ffffffffffffffff811182821017156124ba576124ba612481565b6040516060810167ffffffffffffffff811182821017156124ba576124ba612481565b604051601f8201601f1916810167ffffffffffffffff8111828210171561255257612552612481565b604052919050565b600067ffffffffffffffff82111561257457612574612481565b50601f01601f191660200190565b60006125956125908461255a565b612529565b90508281528383830111156125a957600080fd5b828260208301376000602084830101529392505050565b600082601f8301126125d157600080fd5b61247a83833560208501612582565b6000608082840312156125f257600080fd5b6125fa612497565b9050813567ffffffffffffffff8082111561261457600080fd5b612620858386016125c0565b8352602084013591508082111561263657600080fd5b612642858386016125c0565b6020840152604084013591508082111561265b57600080fd5b50612668848285016125c0565b6040830152506060820135606082015292915050565b803563ffffffff8116811461269257600080fd5b919050565b6001600160a01b03811681146126ac57600080fd5b50565b803561269281612697565b600067ffffffffffffffff8211156126d4576126d4612481565b5060051b60200190565b803564ffffffffff8116811461269257600080fd5b803561ffff8116811461269257600080fd5b600082601f83011261271657600080fd5b81356020612726612590836126ba565b82815260c0928302850182019282820191908785111561274557600080fd5b8387015b858110156127ea5781818a0312156127615760008081fd5b6127696124c0565b612772826126de565b815261277f8683016126f3565b868201526040808301356dffffffffffffffffffffffffffff811681146127a65760008081fd5b9082015260606127b78382016126de565b9082015260806127c883820161267e565b9082015260a06127d98382016126f3565b908201528452928401928101612749565b5090979650505050505050565b600060c0828403121561280957600080fd5b6128116124c0565b9050813567ffffffffffffffff8082111561282b57600080fd5b612837858386016125e0565b83526128456020850161267e565b6020840152604084013560408401526060840135606084015261286a608085016126af565b608084015260a084013591508082111561288357600080fd5b5061289084828501612705565b60a08301525092915050565b600082601f8301126128ad57600080fd5b813560206128bd612590836126ba565b828152600592831b85018201928282019190878511156128dc57600080fd5b8387015b858110156127ea57803567ffffffffffffffff808211156129015760008081fd5b908901906040828c03601f190181131561291b5760008081fd5b6129236124e3565b8884013561293081612697565b815283820135838111156129445760008081fd5b8085019450508c603f85011261295c57600092508283fd5b88840135925061296e612590846126ba565b83815292861b8401820192898101908e85111561298b5760008081fd5b948301945b848610156129b557853593506129a584612697565b838252948a0194908a0190612990565b828b01525087525050509284019284016128e0565b600060408083850312156129dd57600080fd5b6129e56124e3565b915082356129f281612697565b825260208381013567ffffffffffffffff811115612a0f57600080fd5b8401601f81018613612a2057600080fd5b8035612a2e612590826126ba565b81815260079190911b82018301908381019088831115612a4d57600080fd5b928401925b82841015612acc576080848a031215612a6b5760008081fd5b612a73612497565b8435612a7e81612697565b81528486013562ffffff81168114612a965760008081fd5b81870152612aa585880161267e565b878201526060612ab681870161267e565b9082015282526080939093019290840190612a52565b808588015250505050505092915050565b600060408284031215612aef57600080fd5b612af76124e3565b905067ffffffffffffffff8083351115612b1057600080fd5b8235830184601f820112612b2357600080fd5b612b3061259082356126ba565b81358082526020808301929160051b84010187811115612b4f57600080fd5b602084015b81811015612c94578581351115612b6a57600080fd5b803585016040818b03601f19011215612b8257600080fd5b612b8a6124e3565b612b976020830135612697565b602082013581528760408301351115612baf57600080fd5b6040820135820191508a603f830112612bc757600080fd5b6020820135612bd8612590826126ba565b81815260079190911b83016040019060208101908d831115612bf957600080fd5b6040850194505b82851015612c75576080858f031215612c1857600080fd5b612c20612497565b612c2a8635612697565b85358152612c3a6020870161267e565b6020820152612c4c6040870135612697565b604086013560408201526060860135606082015280835250602082019150608085019450612c00565b8060208501525050508086525050602084019350602081019050612b54565b5050808552505050506020820135602082015292915050565b60008060008060808587031215612cc357600080fd5b843567ffffffffffffffff80821115612cdb57600080fd5b612ce7888389016127f7565b95506020870135915080821115612cfd57600080fd5b612d098883890161289c565b94506040870135915080821115612d1f57600080fd5b612d2b888389016129ca565b93506060870135915080821115612d4157600080fd5b50612d4e87828801612add565b91505092959194509250565b600080600080600060808688031215612d7257600080fd5b8535612d7d81612697565b94506020860135612d8d81612697565b935060408601359250606086013567ffffffffffffffff80821115612db157600080fd5b818801915088601f830112612dc557600080fd5b813581811115612dd457600080fd5b896020828501011115612de657600080fd5b9699959850939650602001949392505050565b600080600080600060a08688031215612e1157600080fd5b85359450602086013567ffffffffffffffff80821115612e3057600080fd5b612e3c89838a016127f7565b95506040880135915080821115612e5257600080fd5b612e5e89838a0161289c565b94506060880135915080821115612e7457600080fd5b612e8089838a016129ca565b93506080880135915080821115612e9657600080fd5b50612ea388828901612add565b9150509295509295909350565b600060208284031215612ec257600080fd5b5035919050565b600060208284031215612edb57600080fd5b813567ffffffffffffffff811115612ef257600080fd5b8201610180818503121561247a57600080fd5b60005b83811015612f20578181015183820152602001612f08565b50506000910152565b60008151808452612f41816020860160208601612f05565b601f01601f19169290920160200192915050565b600082825180855260208086019550808260051b84010181860160005b848110156127ea57858303601f19018952815180516001600160a01b031684528481015185850152604090810151606091850182905290612fb581860183612f29565b9a86019a9450505090830190600101612f72565b828152604060208201526000612fe26040830184612f55565b949350505050565b600060208284031215612ffc57600080fd5b813561247a81612697565b60208152600061247a6020830184612f55565b6000806040838503121561302d57600080fd5b82359150602083013561303f81612697565b809150509250929050565b60006020828403121561305c57600080fd5b813567ffffffffffffffff81111561307357600080fd5b82016101a0818503121561247a57600080fd5b60006080820186835260208681850152604086604086015260606080606087015283875180865260a08801915060a08160051b890101955084890160005b8281101561311457898803609f19018452815180516001600160a01b0316895287810151888a0152860151868901869052613101868a0182612f29565b98505092860192908601906001016130c4565b50959c9b505050505050505050505050565b60008060006060848603121561313b57600080fd5b83359250602084013567ffffffffffffffff8082111561315a57600080fd5b818601915086601f83011261316e57600080fd5b61317d87833560208501612582565b9350604086013591508082111561319357600080fd5b506131a086828701612add565b9150509250925092565b6000602082840312156131bc57600080fd5b815161247a81612697565b80356131d281612697565b6001600160a01b031682526020818101359083015260408082013590830152606090810135910152565b6000808335601e1984360301811261321357600080fd5b830160208101925035905067ffffffffffffffff81111561323357600080fd5b80360382131561324257600080fd5b9250929050565b81835281816020850137506000828201602090810191909152601f909101601f19169091010190565b6020815261329360208201613286846126af565b6001600160a01b03169052565b60006132a1602084016126af565b6001600160a01b0381166040840152506132c160608301604085016131c7565b60c083013560e083015261010060e0840135818401526132e28185016126af565b90506101206132fb818501836001600160a01b03169052565b61014091508085013582850152506101608185013581850152613320818601866131fc565b61018086810152925090506103df6101a085018383613249565b600080604080848603121561334e57600080fd5b8351925060208085015167ffffffffffffffff8082111561336e57600080fd5b818701915087601f83011261338257600080fd5b8151613390612590826126ba565b81815260059190911b8301840190848101908a8311156133af57600080fd5b8585015b83811015613470578051858111156133ca57600080fd5b86016060818e03601f190112156133e15760008081fd5b6133e9612506565b888201516133f681612697565b8152818a0151898201526060820151878111156134135760008081fd5b8083019250508d603f8301126134295760008081fd5b888201516134396125908261255a565b8181528f8c83860101111561344e5760008081fd5b61345d828c83018e8701612f05565b828c0152508452509186019186016133b3565b50809750505050505050509250929050565b600181811c9082168061349657607f821691505b6020821081036134b657634e487b7160e01b600052602260045260246000fd5b50919050565b634e487b7160e01b600052601160045260246000fd5b808201808211156103c9576103c96134bc565b634e487b7160e01b600052603260045260246000fd5b6000602080838503121561350e57600080fd5b825167ffffffffffffffff81111561352557600080fd5b8301601f8101851361353657600080fd5b8051613544612590826126ba565b81815260059190911b8201830190838101908783111561356357600080fd5b928401925b8284101561358a57835161357b81612697565b82529284019290840190613568565b979650505050505050565b6000602082840312156135a757600080fd5b8151801515811461247a57600080fd5b60008151808452602080850194506020840160005b838110156135e8578151875295820195908201906001016135cc565b509495945050505050565b60006001600160a01b038087168352808616602084015250836040830152608060608301526104da60808301846135b7565b6bffffffffffffffffffffffff198460601b1681526000835161364f816014850160208801612f05565b60149201918201929092526034019392505050565b600082825180855260208086019550808260051b8401018186016000805b8581101561372157868403601f19018a52825180516001600160a01b03908116865290860151604087870181905281518188018190529188019290916060919082890190875b818110156137095786518051851684528c81015163ffffffff168d8501528681015185168785015285015185840152958b01956080909201916001016136c8565b50509d89019d97505050938601935050600101613682565b509198975050505050505050565b8381528260208201526060604082015260006103df6060830184613664565b60008151604084526137636040850182613664565b602093840151949093019390935250919050565b60608152600061378a6060830186612f29565b828103602084015261379c818661374e565b9150506001600160a01b0383166040830152949350505050565b60006001600160a01b0380851683526040602084015280845116604084015250602083015160608301526040830151606060808401526103df60a08401826135b7565b600960fa1b815260008251613815816001850160208701612f05565b7f207265766e6574206465706c6f796564000000000000000000000000000000006001939091019283015250601101919050565b8051825260208101516020830152604081015160408301526060810151613874606084018215159052565b506080810151613888608084018215159052565b5060a081015161389c60a084018215159052565b5060c08101516138b060c084018215159052565b5060e08101516138c460e084018215159052565b5061010081810151151590830152610120808201511515908301526101408082015115159083015261016080820151151590830152610180808201511515908301526101a0808201511515908301526101c0808201516001600160a01b0316908301526101e090810151910152565b600082825180855260208086019550808260051b8401018186016000805b8581101561372157868403601f19018a52825180518552850151604086860181905281518187018190529187019160609081880190865b818110156139e25785518051151584528b8101518c8501528581015186850152848101516001600160a01b03908116868601526080808301519086015260a0918201511690840152948a019460c090920191600101613988565b50509c88019c965050509285019250600101613951565b60008151808452602080850194506020840160005b838110156135e8578151805188528301518388015260409096019590820190600101613a0e565b600082825180855260208086019550808260051b84010181860160005b848110156127ea57601f19868403018952815160806001600160a01b0380835116865280878401511687870152506040808301518282880152613a97838801826139f9565b9250505060608083015192508582038187015250613ab581836139f9565b9a86019a9450505090830190600101613a52565b600082825180855260208086019550808260051b84010181860160005b848110156127ea57858303601f19018952815180518452848101518585015260408082015190850152606080820151908501526080808201516001600160a01b03169085015260a0808201516102e09190613b4382880182613849565b505060c0820151816102a0870152613b5d82870182613933565b91505060e082015191508481036102c0860152613b7a8183613a35565b9a86019a9450505090830190600101613ae6565b600082825180855260208086019550808260051b8401018186016000805b8581101561372157868403601f19018a52825180516001600160a01b03908116865290860151604087870181905281519087018190529087019160608701918591905b80831015613c1157845182168452938901939289019260019290920191613bef565b5050509a86019a94505091840191600101613bac565b6001600160a01b038616815260a060208201526000613c4960a0830187612f29565b8281036040840152613c5b8187613ac9565b90508281036060840152613c6f8186613b8e565b90508281036080840152613c838185612f29565b98975050505050505050565b600060208284031215613ca157600080fd5b5051919050565b848152608060208201526000613cc16080830186613ac9565b8281036040840152613cd38186613b8e565b9050828103606084015261358a8185612f29565b848152608060208201526000613d006080830186612f29565b8281036040840152613d128186612f29565b91505082606083015295945050505050565b600060608083018684526020868186015260406060604087015282875180855260808801915060808160051b890101945083890160005b82811015613e0257898703607f190184528151805188528601518688018690528051868901819052908701906000908a8a01905b80831015613ded5783518051151583528a8101518b840152898101518a8401528c8101516001600160a01b039081168e8501526080808301519085015260a0918201511690830152928901926001929092019160c090910190613d8f565b50985050509285019290850190600101613d5b565b50949b9a5050505050505050505050565b600960fa1b815260008251613e2f816001850160208701612f05565b7f207072656d696e746564000000000000000000000000000000000000000000006001939091019283015250600b01919050565b8581528460208201526001600160a01b038416604082015260a060608201526000613e9160a0830185612f29565b905082151560808301529695505050505050565b60008151808452602080850194506020840160005b838110156135e8578151805164ffffffffff90811689528482015161ffff908116868b01526040808401516dffffffffffffffffffffffffffff16908b0152606080840151909216918a019190915260808083015163ffffffff16908a015260a091820151169088015260c09096019590820190600101613eba565b600060408084016001600160a01b038085511686526020808601516040828901528381518086526060955060608a019150838301925060005b81811015613fb75783518051871684528581015162ffffff16868501528881015163ffffffff9081168a86015290880151168784015292840192608090920191600101613f6f565b50909998505050505050505050565b60006101008083528a5160c0828501528051915060806101c0850152613ff0610240850183612f29565b915060208101516101bf1980868503016101e08701526140108483612f29565b93506040830151915080868503016102008701525061402f8382612f29565b92505060608101516102208501525060208b015161405661012085018263ffffffff169052565b5060408b015161014084015260608b015161016084015260808b01516001600160a01b031661018084015260a08b015183820360ff19016101a085015261409d8282613ea5565b91505082810360208401526140b2818b613b8e565b905082810360408401526140c6818a613f36565b905082810360608401526140da818961374e565b905082810360808401526140ee8188613ac9565b905082810360a08401526141028187612f29565b91505061411360c083018515159052565b6001600160a01b03831660e08301529998505050505050505050565b818103818111156103c9576103c96134bc565b60008351614154818460208801612f05565b835190830190614168818360208801612f05565b01949350505050565b6000808585111561418157600080fd5b8386111561418e57600080fd5b5050820193919092039150565b6bffffffffffffffffffffffff1981358181169160148510156141c85780818660140360031b1b83161692505b505092915050565b63ffffffff8616815284602082015260a0604082015260006141f560a0830186612f29565b82810360608401526142078186612f29565b915050826080830152969550505050505056fea26469706673582212203fc6b2936803c5ac6b93eff259bc32e395e3109295e483dbcdb53fb0441f14eb64736f6c63430008170033",
			"deployedBytecode": "0x608060405234801561001057600080fd5b506004361061011b5760003560e01c8063677ce088116100b2578063aaf320d711610081578063bb19940211610066578063bb19940214610317578063eb5ad9d91461032c578063ee0fc1211461033f57600080fd5b8063aaf320d7146102cd578063b5d25533146102f057600080fd5b8063677ce088146102495780637249a7731461025c5780637da0a8771461029d5780639d82ba25146102c357600080fd5b806343681e15116100ee57806343681e15146101a85780634c4ffc71146101c8578063572b6c05146101e95780635c0a7cee1461022957600080fd5b806301ffc9a71461012057806302ccf9a114610148578063150b7a02146101695780631d3eedaa14610195575b600080fd5b61013361012e366004612450565b610366565b60405190151581526020015b60405180910390f35b61015b610156366004612cad565b6103cf565b60405190815260200161013f565b61017c610177366004612d5a565b6103e8565b6040516001600160e01b0319909116815260200161013f565b61015b6101a3366004612df9565b6104c8565b61015b6101b6366004612eb0565b60016020526000908152604090205481565b6101db6101d6366004612ec9565b6104e4565b60405161013f929190612fc9565b6101336101f7366004612fea565b7f000000000000000000000000b2b5841dbef766d4b521221732f9b618fcf34a876001600160a01b0390811691161490565b61023c610237366004612eb0565b6107db565b60405161013f9190613007565b61013361025736600461301a565b6108ff565b61028561026a366004612eb0565b6000602081905290815260409020546001600160a01b031681565b6040516001600160a01b03909116815260200161013f565b7f000000000000000000000000b2b5841dbef766d4b521221732f9b618fcf34a87610285565b61015b6276a70081565b6102e06102db36600461304a565b610a34565b60405161013f9493929190613086565b6102857f0000000000000000000000000279b704b409a70e23d6ab27544badb568aa493081565b61032a610325366004613126565b610b71565b005b61032a61033a36600461301a565b610e28565b6102857f000000000000000000000000beb17ba97066906106d72fca2f05f1e307e74b7681565b60006001600160e01b031982167f81c03c2e0000000000000000000000000000000000000000000000000000000014806103c957507f01ffc9a7000000000000000000000000000000000000000000000000000000006001600160e01b03198316145b92915050565b60006103df6000868686866104c8565b95945050505050565b60007f000000000000000000000000beb17ba97066906106d72fca2f05f1e307e74b766001600160a01b031663293c49996040518163ffffffff1660e01b8152600401602060405180830381865afa158015610448573d6000803e3d6000fd5b505050506040513d601f19601f8201168201806040525081019061046c91906131aa565b6001600160a01b0316336001600160a01b03161461048957600080fd5b6001600160a01b0385161561049d57600080fd5b507f150b7a020000000000000000000000000000000000000000000000000000000095945050505050565b60006104da86868686306000886112e2565b9695505050505050565b60c081013560009081526020819052604081205460609081906001600160a01b0316801561059c576040517f4c4ffc710000000000000000000000000000000000000000000000000000000081526001600160a01b03821690634c4ffc7190610551908890600401613272565b600060405180830381865afa15801561056e573d6000803e3d6000fd5b505050506040513d6000823e601f3d908101601f19168201604052610596919081019061333a565b90945091505b815160c086013560009081526004602090815260408083208054825181850281018501909352808352941515949192909190849084015b828210156106b7576000848152602090819020604080516060810182526003860290920180546001600160a01b031683526001810154938301939093526002830180549293929184019161062690613482565b80601f016020809104026020016040519081016040528092919081815260200182805461065290613482565b801561069f5780601f106106745761010080835404028352916020019161069f565b820191906000526020600020905b81548152906001019060200180831161068257829003601f168201915b505050505081525050815260200190600101906105d3565b505050509050600081519050826106cf5760006106d2565b60015b6106df9060ff16826134d2565b67ffffffffffffffff8111156106f7576106f7612481565b60405190808252806020026020018201604052801561074457816020015b604080516060808201835260008083526020830152918101919091528152602001906001900390816107155790505b50955060005b8181101561079157828181518110610764576107646134e5565b602002602001015187828151811061077e5761077e6134e5565b602090810291909101015260010161074a565b5082156107d157846000815181106107ab576107ab6134e5565b60200260200101518682815181106107c5576107c56134e5565b60200260200101819052505b5050505050915091565b606060046000838152602001908152602001600020805480602002602001604051908101604052809291908181526020016000905b828210156108f4576000848152602090819020604080516060810182526003860290920180546001600160a01b031683526001810154938301939093526002830180549293929184019161086390613482565b80601f016020809104026020016040519081016040528092919081815260200182805461088f90613482565b80156108dc5780601f106108b1576101008083540402835291602001916108dc565b820191906000526020600020905b8154815290600101906020018083116108bf57829003601f168201915b50505050508152505081526020019060010190610810565b505050509050919050565b6000828152602081905260408120546001600160a01b0390811690831603610929575060016103c9565b6040517f3d12cb87000000000000000000000000000000000000000000000000000000008152600481018490526000907f0000000000000000000000000279b704b409a70e23d6ab27544badb568aa49306001600160a01b031690633d12cb8790602401600060405180830381865afa1580156109aa573d6000803e3d6000fd5b505050506040513d6000823e601f3d908101601f191682016040526109d291908101906134fb565b805190915060005b81811015610a28578281815181106109f4576109f46134e5565b60200260200101516001600160a01b0316856001600160a01b031603610a2057600193505050506103c9565b6001016109da565b50600095945050505050565b6000808060606001600160a01b037f0000000000000000000000000279b704b409a70e23d6ab27544badb568aa4930166383db9d0160408701803590610a7d9060208a01612fea565b6040516001600160e01b031960e085901b16815260048101929092526001600160a01b03166024820152604401602060405180830381865afa158015610ac7573d6000803e3d6000fd5b505050506040513d601f19601f82011682018060405250810190610aeb9190613595565b15610b085761271085608001358660a00135935093509350610b6a565b604080860135600090815260016020522054421015610b53576040517f04c3b3cd00000000000000000000000000000000000000000000000000000000815260040160405180910390fd5b84610160013585608001358660a001359350935093505b9193509193565b7f000000000000000000000000beb17ba97066906106d72fca2f05f1e307e74b766001600160a01b0316631f47ce696040518163ffffffff1660e01b8152600401602060405180830381865afa158015610bcf573d6000803e3d6000fd5b505050506040513d601f19601f82011682018060405250810190610bf391906131aa565b6001600160a01b031663f434c9146040518163ffffffff1660e01b8152600401602060405180830381865afa158015610c30573d6000803e3d6000fd5b505050506040513d601f19601f82011682018060405250810190610c5491906131aa565b6001600160a01b0316630f5932f0610c6a611ab3565b3086610c7588611ac2565b6040518563ffffffff1660e01b8152600401610c9494939291906135f3565b602060405180830381865afa158015610cb1573d6000803e3d6000fd5b505050506040513d601f19601f82011682018060405250810190610cd59190613595565b610cf2576040516331fb21f360e01b815260040160405180910390fd5b6000610cfc611ab3565b838360200151604051602001610d1493929190613625565b60408051601f1981840301815290829052805160209091012083517f2f3f50e00000000000000000000000000000000000000000000000000000000083529092506001600160a01b037f0000000000000000000000000279b704b409a70e23d6ab27544badb568aa49301691632f3f50e091610d96918891869160040161372f565b6000604051808303816000875af1158015610db5573d6000803e3d6000fd5b505050506040513d6000823e601f3d908101601f19168201604052610ddd91908101906134fb565b5080847f755ecfca2f6e66af8868551556bf7931740a7062db8e0882f4c322fdb0bb3f608585610e0b611ab3565b604051610e1a93929190613777565b60405180910390a350505050565b6000610e3383611ac2565b90507f000000000000000000000000beb17ba97066906106d72fca2f05f1e307e74b766001600160a01b0316631f47ce696040518163ffffffff1660e01b8152600401602060405180830381865afa158015610e93573d6000803e3d6000fd5b505050506040513d601f19601f82011682018060405250810190610eb791906131aa565b6001600160a01b031663f434c9146040518163ffffffff1660e01b8152600401602060405180830381865afa158015610ef4573d6000803e3d6000fd5b505050506040513d601f19601f82011682018060405250810190610f1891906131aa565b6001600160a01b0316630f5932f0610f2e611ab3565b3086856040518563ffffffff1660e01b8152600401610f5094939291906135f3565b602060405180830381865afa158015610f6d573d6000803e3d6000fd5b505050506040513d601f19601f82011682018060405250810190610f919190613595565b610fae576040516331fb21f360e01b815260040160405180910390fd5b7f000000000000000000000000beb17ba97066906106d72fca2f05f1e307e74b766001600160a01b0316631f47ce696040518163ffffffff1660e01b8152600401602060405180830381865afa15801561100c573d6000803e3d6000fd5b505050506040513d601f19601f8201168201806040525081019061103091906131aa565b6001600160a01b031663f434c9146040518163ffffffff1660e01b8152600401602060405180830381865afa15801561106d573d6000803e3d6000fd5b505050506040513d601f19601f8201168201806040525081019061109191906131aa565b6001600160a01b03166305d2912e3060405180606001604052806110b3611ab3565b6001600160a01b0316815260208082018990526040805160008152918201815291820152516001600160e01b031960e085901b1681526110f79291906004016137b6565b600060405180830381600087803b15801561111157600080fd5b505af1158015611125573d6000803e3d6000fd5b505050507f000000000000000000000000beb17ba97066906106d72fca2f05f1e307e74b766001600160a01b0316631f47ce696040518163ffffffff1660e01b8152600401602060405180830381865afa158015611187573d6000803e3d6000fd5b505050506040513d601f19601f820116820180604052508101906111ab91906131aa565b6001600160a01b031663f434c9146040518163ffffffff1660e01b8152600401602060405180830381865afa1580156111e8573d6000803e3d6000fd5b505050506040513d601f19601f8201168201806040525081019061120c91906131aa565b6001600160a01b03166305d2912e306040518060600160405280866001600160a01b03168152602001878152602001858152506040518363ffffffff1660e01b815260040161125c9291906137b6565b600060405180830381600087803b15801561127657600080fd5b505af115801561128a573d6000803e3d6000fd5b50505050816001600160a01b0316837f0329d6a81434b130c72eb65eea0e32e429dc1277b4aad86ec86454aefb6184516112c2611ab3565b6040516001600160a01b03909116815260200160405180910390a3505050565b6000806000806112f38a8888611c7a565b9250925092508a6000036113ce577f000000000000000000000000beb17ba97066906106d72fca2f05f1e307e74b766001600160a01b0316630634bae9308c6000015160400151868d8f600001516020015160405160200161135591906137f9565b6040516020818303038152906040526040518663ffffffff1660e01b8152600401611384959493929190613c27565b6020604051808303816000875af11580156113a3573d6000803e3d6000fd5b505050506040513d601f19601f820116820180604052508101906113c79190613c8f565b9a5061148c565b7f000000000000000000000000beb17ba97066906106d72fca2f05f1e307e74b766001600160a01b0316631ea7bc8c8c858c8e600001516020015160405160200161141991906137f9565b6040516020818303038152906040526040518563ffffffff1660e01b81526004016114479493929190613ca8565b6020604051808303816000875af1158015611466573d6000803e3d6000fd5b505050506040513d601f19601f8201168201806040525081019061148a9190613c8f565b505b808061149c5750468a6060015114155b156114be576114ae6276a700426134d2565b60008c8152600160205260409020555b7f000000000000000000000000beb17ba97066906106d72fca2f05f1e307e74b766001600160a01b031663581781918c8c60000151600001518d60000151602001518e60000151606001516040518563ffffffff1660e01b81526004016115289493929190613ce7565b6020604051808303816000875af1158015611547573d6000803e3d6000fd5b505050506040513d601f19601f8201168201806040525081019061156b91906131aa565b5087516001600160a01b031615611586576115868b8961203b565b7f000000000000000000000000beb17ba97066906106d72fca2f05f1e307e74b766001600160a01b031663dd5f214a8c60006115c58e608001516121a6565b6040518463ffffffff1660e01b81526004016115e393929190613d24565b600060405180830381600087803b1580156115fd57600080fd5b505af1158015611611573d6000803e3d6000fd5b50505050600060405180606001604052808c608001516001600160a01b031681526020018d81526020016116448e611ac2565b81525090507f000000000000000000000000beb17ba97066906106d72fca2f05f1e307e74b766001600160a01b031663f434c9146040518163ffffffff1660e01b8152600401602060405180830381865afa1580156116a7573d6000803e3d6000fd5b505050506040513d601f19601f820116820180604052508101906116cb91906131aa565b6001600160a01b03166305d2912e30836040518363ffffffff1660e01b81526004016116f89291906137b6565b600060405180830381600087803b15801561171257600080fd5b505af1158015611726573d6000803e3d6000fd5b5050505060008b604001511180156117415750468b60600151145b1561180f577f000000000000000000000000beb17ba97066906106d72fca2f05f1e307e74b766001600160a01b031663c7fb92de8d8d604001518e608001518f60000151602001516040516020016117999190613e13565b60405160208183030381529060405260006040518663ffffffff1660e01b81526004016117ca959493929190613e63565b6020604051808303816000875af11580156117e9573d6000803e3d6000fd5b505050506040513d601f19601f8201168201806040525081019061180d9190613c8f565b505b60408051600180825281830190925260009160208083019080368337019050509050601c81600081518110611846576118466134e5565b60200260200101818152505060405180606001604052807f0000000000000000000000000279b704b409a70e23d6ab27544badb568aa49306001600160a01b031681526020018e81526020018281525091507f000000000000000000000000beb17ba97066906106d72fca2f05f1e307e74b766001600160a01b031663f434c9146040518163ffffffff1660e01b8152600401602060405180830381865afa1580156118f6573d6000803e3d6000fd5b505050506040513d601f19601f8201168201806040525081019061191a91906131aa565b6001600160a01b03166305d2912e30846040518363ffffffff1660e01b81526004016119479291906137b6565b600060405180830381600087803b15801561196157600080fd5b505af1158015611975573d6000803e3d6000fd5b50505050602087015115611a55577f0000000000000000000000000279b704b409a70e23d6ab27544badb568aa49306001600160a01b0316632f3f50e08e6119bb611ab3565b878b602001516040516020016119d393929190613625565b60408051601f198184030181529082905280516020909101208b516001600160e01b031960e086901b168352611a0c939260040161372f565b6000604051808303816000875af1158015611a2b573d6000803e3d6000fd5b505050506040513d6000823e601f3d908101601f19168201604052611a5391908101906134fb565b505b8c7f4b827371715024f69a0bc98c8df6edafe6e471e78488ab1b3849de72f66b12e08d8d8d8b8a8a8a611a86611ab3565b604051611a9a989796959493929190613fc6565b60405180910390a2509a9b9a5050505050505050505050565b6000611abd6122e4565b905090565b606060006002805480602002602001604051908101604052809291908181526020018280548015611b1257602002820191906000526020600020905b815481526020019060010190808311611afe575b50508351600088815260036020908152604080832080548251818502810185019093528083529899509397929650945091925090830182828015611b7557602002820191906000526020600020905b815481526020019060010190808311611b61575b50508351939450611b8c92508391508590506134d2565b67ffffffffffffffff811115611ba457611ba4612481565b604051908082528060200260200182016040528015611bcd578160200160208202803683370190505b50945060005b83811015611c1a57848181518110611bed57611bed6134e5565b6020026020010151868281518110611c0757611c076134e5565b6020908102919091010152600101611bd3565b5060005b81811015611c7057828181518110611c3857611c386134e5565b6020026020010151868286611c4d91906134d2565b81518110611c5d57611c5d6134e5565b6020908102919091010152600101611c1e565b5050505050919050565b6060806000808660a001515190508067ffffffffffffffff811115611ca157611ca1612481565b604051908082528060200260200182016040528015611d9357816020015b611d806040805161010080820183526000808352602080840182905283850182905260608085018390526080808601849052865161020081018852848152928301849052958201839052810182905293840181905260a084810182905260c0850182905260e0850182905291840181905261012084018190526101408401819052610160840181905261018084018190526101a084018190526101c084018190526101e0840152909190820190815260200160608152602001606081525090565b815260200190600190039081611cbf5790505b509350611d9f87612359565b6040805160c081018252600080825260208201819052918101829052606081018290526080810182905260a081018290529194505b8281101561202f578860a001518181518110611df257611df26134e5565b60200260200101519150816000015164ffffffffff16868281518110611e1a57611e1a6134e5565b60200260200101516000018181525050816060015164ffffffffff16868281518110611e4857611e486134e5565b6020026020010151602001818152505081604001516dffffffffffffffffffffffffffff16868281518110611e7f57611e7f6134e5565b60200260200101516040018181525050816080015163ffffffff16868281518110611eac57611eac6134e5565b602002602001015160600181815250506000868281518110611ed057611ed06134e5565b6020026020010151608001906001600160a01b031690816001600160a01b031681525050604051806102000160405280836020015161ffff1681526020018360a0015161ffff16612710611f24919061412f565b815260208b81015163ffffffff16908201526000604082018190526060820181905260016080830181905260a0830182905260c0830182905260e083018290526101008301829052610120830182905261014083018290526101608301526101808201526001600160a01b038a166101a08201526101c0018890528651879083908110611fb357611fb36134e5565b602002602001015160a00181905250806000148015611fd95750815164ffffffffff1615155b8015611fef575042826000015164ffffffffff16105b15611ff957600193505b84612004838361239a565b604051602001612015929190614142565b60408051601f198184030181529190529450600101611dd4565b50505093509350939050565b602081810151516040805160808101825260008082529381018490529081018390526060810183905290915b8281101561215a5783602001518181518110612085576120856134e5565b6020908102919091018101518551918101516040808301516060840151845192517f7b621d3a000000000000000000000000000000000000000000000000000000008152600481018c905262ffffff909416602485015263ffffffff91821660448501521660648301526001600160a01b039081166084830152919450911690637b621d3a9060a4016020604051808303816000875af115801561212d573d6000803e3d6000fd5b505050506040513d601f19601f8201168201806040525081019061215191906131aa565b50600101612067565b5050905160009283526020839052604090922080547fffffffffffffffffffffffff0000000000000000000000000000000000000000166001600160a01b039093169290921790915550565b604080516001808252818301909252606091816020015b6040805180820190915260008152606060208201528152602001906001900390816121bd57505060408051600180825281830190925291925060009190602082015b6040805160c08101825260008082526020808301829052928201819052606082018190526080820181905260a082015282526000199092019101816121ff5790505090506040518060c00160405280600015158152602001633b9aca00815260200160008152602001846001600160a01b031681526020016000815260200160006001600160a01b03168152508160008151811061229f5761229f6134e5565b602002602001018190525060405180604001604052806001815260200182815250826000815181106122d3576122d36134e5565b602002602001018190525050919050565b6000366014336001600160a01b037f000000000000000000000000b2b5841dbef766d4b521221732f9b618fcf34a87161480156123215750808210155b1561235157600036612333838561412f565b61233e928290614171565b6123479161419b565b60601c9250505090565b339250505090565b60208082015160608381015184518051818601519184015160405194966123849695929392016141d0565b6040516020818303038152906040529050919050565b6060811580156123b05750825164ffffffffff16155b6123c257825164ffffffffff166123c4565b425b83602001518460400151856060015186608001518760a001516040516020016124399695949392919095865261ffff94851660208701526dffffffffffffffffffffffffffff93909316604086015264ffffffffff91909116606085015263ffffffff1660808401521660a082015260c00190565b604051602081830303815290604052905092915050565b60006020828403121561246257600080fd5b81356001600160e01b03198116811461247a57600080fd5b9392505050565b634e487b7160e01b600052604160045260246000fd5b6040516080810167ffffffffffffffff811182821017156124ba576124ba612481565b60405290565b60405160c0810167ffffffffffffffff811182821017156124ba576124ba612481565b6040805190810167ffffffffffffffff811182821017156124ba576124ba612481565b6040516060810167ffffffffffffffff811182821017156124ba576124ba612481565b604051601f8201601f1916810167ffffffffffffffff8111828210171561255257612552612481565b604052919050565b600067ffffffffffffffff82111561257457612574612481565b50601f01601f191660200190565b60006125956125908461255a565b612529565b90508281528383830111156125a957600080fd5b828260208301376000602084830101529392505050565b600082601f8301126125d157600080fd5b61247a83833560208501612582565b6000608082840312156125f257600080fd5b6125fa612497565b9050813567ffffffffffffffff8082111561261457600080fd5b612620858386016125c0565b8352602084013591508082111561263657600080fd5b612642858386016125c0565b6020840152604084013591508082111561265b57600080fd5b50612668848285016125c0565b6040830152506060820135606082015292915050565b803563ffffffff8116811461269257600080fd5b919050565b6001600160a01b03811681146126ac57600080fd5b50565b803561269281612697565b600067ffffffffffffffff8211156126d4576126d4612481565b5060051b60200190565b803564ffffffffff8116811461269257600080fd5b803561ffff8116811461269257600080fd5b600082601f83011261271657600080fd5b81356020612726612590836126ba565b82815260c0928302850182019282820191908785111561274557600080fd5b8387015b858110156127ea5781818a0312156127615760008081fd5b6127696124c0565b612772826126de565b815261277f8683016126f3565b868201526040808301356dffffffffffffffffffffffffffff811681146127a65760008081fd5b9082015260606127b78382016126de565b9082015260806127c883820161267e565b9082015260a06127d98382016126f3565b908201528452928401928101612749565b5090979650505050505050565b600060c0828403121561280957600080fd5b6128116124c0565b9050813567ffffffffffffffff8082111561282b57600080fd5b612837858386016125e0565b83526128456020850161267e565b6020840152604084013560408401526060840135606084015261286a608085016126af565b608084015260a084013591508082111561288357600080fd5b5061289084828501612705565b60a08301525092915050565b600082601f8301126128ad57600080fd5b813560206128bd612590836126ba565b828152600592831b85018201928282019190878511156128dc57600080fd5b8387015b858110156127ea57803567ffffffffffffffff808211156129015760008081fd5b908901906040828c03601f190181131561291b5760008081fd5b6129236124e3565b8884013561293081612697565b815283820135838111156129445760008081fd5b8085019450508c603f85011261295c57600092508283fd5b88840135925061296e612590846126ba565b83815292861b8401820192898101908e85111561298b5760008081fd5b948301945b848610156129b557853593506129a584612697565b838252948a0194908a0190612990565b828b01525087525050509284019284016128e0565b600060408083850312156129dd57600080fd5b6129e56124e3565b915082356129f281612697565b825260208381013567ffffffffffffffff811115612a0f57600080fd5b8401601f81018613612a2057600080fd5b8035612a2e612590826126ba565b81815260079190911b82018301908381019088831115612a4d57600080fd5b928401925b82841015612acc576080848a031215612a6b5760008081fd5b612a73612497565b8435612a7e81612697565b81528486013562ffffff81168114612a965760008081fd5b81870152612aa585880161267e565b878201526060612ab681870161267e565b9082015282526080939093019290840190612a52565b808588015250505050505092915050565b600060408284031215612aef57600080fd5b612af76124e3565b905067ffffffffffffffff8083351115612b1057600080fd5b8235830184601f820112612b2357600080fd5b612b3061259082356126ba565b81358082526020808301929160051b84010187811115612b4f57600080fd5b602084015b81811015612c94578581351115612b6a57600080fd5b803585016040818b03601f19011215612b8257600080fd5b612b8a6124e3565b612b976020830135612697565b602082013581528760408301351115612baf57600080fd5b6040820135820191508a603f830112612bc757600080fd5b6020820135612bd8612590826126ba565b81815260079190911b83016040019060208101908d831115612bf957600080fd5b6040850194505b82851015612c75576080858f031215612c1857600080fd5b612c20612497565b612c2a8635612697565b85358152612c3a6020870161267e565b6020820152612c4c6040870135612697565b604086013560408201526060860135606082015280835250602082019150608085019450612c00565b8060208501525050508086525050602084019350602081019050612b54565b5050808552505050506020820135602082015292915050565b60008060008060808587031215612cc357600080fd5b843567ffffffffffffffff80821115612cdb57600080fd5b612ce7888389016127f7565b95506020870135915080821115612cfd57600080fd5b612d098883890161289c565b94506040870135915080821115612d1f57600080fd5b612d2b888389016129ca565b93506060870135915080821115612d4157600080fd5b50612d4e87828801612add565b91505092959194509250565b600080600080600060808688031215612d7257600080fd5b8535612d7d81612697565b94506020860135612d8d81612697565b935060408601359250606086013567ffffffffffffffff80821115612db157600080fd5b818801915088601f830112612dc557600080fd5b813581811115612dd457600080fd5b896020828501011115612de657600080fd5b9699959850939650602001949392505050565b600080600080600060a08688031215612e1157600080fd5b85359450602086013567ffffffffffffffff80821115612e3057600080fd5b612e3c89838a016127f7565b95506040880135915080821115612e5257600080fd5b612e5e89838a0161289c565b94506060880135915080821115612e7457600080fd5b612e8089838a016129ca565b93506080880135915080821115612e9657600080fd5b50612ea388828901612add565b9150509295509295909350565b600060208284031215612ec257600080fd5b5035919050565b600060208284031215612edb57600080fd5b813567ffffffffffffffff811115612ef257600080fd5b8201610180818503121561247a57600080fd5b60005b83811015612f20578181015183820152602001612f08565b50506000910152565b60008151808452612f41816020860160208601612f05565b601f01601f19169290920160200192915050565b600082825180855260208086019550808260051b84010181860160005b848110156127ea57858303601f19018952815180516001600160a01b031684528481015185850152604090810151606091850182905290612fb581860183612f29565b9a86019a9450505090830190600101612f72565b828152604060208201526000612fe26040830184612f55565b949350505050565b600060208284031215612ffc57600080fd5b813561247a81612697565b60208152600061247a6020830184612f55565b6000806040838503121561302d57600080fd5b82359150602083013561303f81612697565b809150509250929050565b60006020828403121561305c57600080fd5b813567ffffffffffffffff81111561307357600080fd5b82016101a0818503121561247a57600080fd5b60006080820186835260208681850152604086604086015260606080606087015283875180865260a08801915060a08160051b890101955084890160005b8281101561311457898803609f19018452815180516001600160a01b0316895287810151888a0152860151868901869052613101868a0182612f29565b98505092860192908601906001016130c4565b50959c9b505050505050505050505050565b60008060006060848603121561313b57600080fd5b83359250602084013567ffffffffffffffff8082111561315a57600080fd5b818601915086601f83011261316e57600080fd5b61317d87833560208501612582565b9350604086013591508082111561319357600080fd5b506131a086828701612add565b9150509250925092565b6000602082840312156131bc57600080fd5b815161247a81612697565b80356131d281612697565b6001600160a01b031682526020818101359083015260408082013590830152606090810135910152565b6000808335601e1984360301811261321357600080fd5b830160208101925035905067ffffffffffffffff81111561323357600080fd5b80360382131561324257600080fd5b9250929050565b81835281816020850137506000828201602090810191909152601f909101601f19169091010190565b6020815261329360208201613286846126af565b6001600160a01b03169052565b60006132a1602084016126af565b6001600160a01b0381166040840152506132c160608301604085016131c7565b60c083013560e083015261010060e0840135818401526132e28185016126af565b90506101206132fb818501836001600160a01b03169052565b61014091508085013582850152506101608185013581850152613320818601866131fc565b61018086810152925090506103df6101a085018383613249565b600080604080848603121561334e57600080fd5b8351925060208085015167ffffffffffffffff8082111561336e57600080fd5b818701915087601f83011261338257600080fd5b8151613390612590826126ba565b81815260059190911b8301840190848101908a8311156133af57600080fd5b8585015b83811015613470578051858111156133ca57600080fd5b86016060818e03601f190112156133e15760008081fd5b6133e9612506565b888201516133f681612697565b8152818a0151898201526060820151878111156134135760008081fd5b8083019250508d603f8301126134295760008081fd5b888201516134396125908261255a565b8181528f8c83860101111561344e5760008081fd5b61345d828c83018e8701612f05565b828c0152508452509186019186016133b3565b50809750505050505050509250929050565b600181811c9082168061349657607f821691505b6020821081036134b657634e487b7160e01b600052602260045260246000fd5b50919050565b634e487b7160e01b600052601160045260246000fd5b808201808211156103c9576103c96134bc565b634e487b7160e01b600052603260045260246000fd5b6000602080838503121561350e57600080fd5b825167ffffffffffffffff81111561352557600080fd5b8301601f8101851361353657600080fd5b8051613544612590826126ba565b81815260059190911b8201830190838101908783111561356357600080fd5b928401925b8284101561358a57835161357b81612697565b82529284019290840190613568565b979650505050505050565b6000602082840312156135a757600080fd5b8151801515811461247a57600080fd5b60008151808452602080850194506020840160005b838110156135e8578151875295820195908201906001016135cc565b509495945050505050565b60006001600160a01b038087168352808616602084015250836040830152608060608301526104da60808301846135b7565b6bffffffffffffffffffffffff198460601b1681526000835161364f816014850160208801612f05565b60149201918201929092526034019392505050565b600082825180855260208086019550808260051b8401018186016000805b8581101561372157868403601f19018a52825180516001600160a01b03908116865290860151604087870181905281518188018190529188019290916060919082890190875b818110156137095786518051851684528c81015163ffffffff168d8501528681015185168785015285015185840152958b01956080909201916001016136c8565b50509d89019d97505050938601935050600101613682565b509198975050505050505050565b8381528260208201526060604082015260006103df6060830184613664565b60008151604084526137636040850182613664565b602093840151949093019390935250919050565b60608152600061378a6060830186612f29565b828103602084015261379c818661374e565b9150506001600160a01b0383166040830152949350505050565b60006001600160a01b0380851683526040602084015280845116604084015250602083015160608301526040830151606060808401526103df60a08401826135b7565b600960fa1b815260008251613815816001850160208701612f05565b7f207265766e6574206465706c6f796564000000000000000000000000000000006001939091019283015250601101919050565b8051825260208101516020830152604081015160408301526060810151613874606084018215159052565b506080810151613888608084018215159052565b5060a081015161389c60a084018215159052565b5060c08101516138b060c084018215159052565b5060e08101516138c460e084018215159052565b5061010081810151151590830152610120808201511515908301526101408082015115159083015261016080820151151590830152610180808201511515908301526101a0808201511515908301526101c0808201516001600160a01b0316908301526101e090810151910152565b600082825180855260208086019550808260051b8401018186016000805b8581101561372157868403601f19018a52825180518552850151604086860181905281518187018190529187019160609081880190865b818110156139e25785518051151584528b8101518c8501528581015186850152848101516001600160a01b03908116868601526080808301519086015260a0918201511690840152948a019460c090920191600101613988565b50509c88019c965050509285019250600101613951565b60008151808452602080850194506020840160005b838110156135e8578151805188528301518388015260409096019590820190600101613a0e565b600082825180855260208086019550808260051b84010181860160005b848110156127ea57601f19868403018952815160806001600160a01b0380835116865280878401511687870152506040808301518282880152613a97838801826139f9565b9250505060608083015192508582038187015250613ab581836139f9565b9a86019a9450505090830190600101613a52565b600082825180855260208086019550808260051b84010181860160005b848110156127ea57858303601f19018952815180518452848101518585015260408082015190850152606080820151908501526080808201516001600160a01b03169085015260a0808201516102e09190613b4382880182613849565b505060c0820151816102a0870152613b5d82870182613933565b91505060e082015191508481036102c0860152613b7a8183613a35565b9a86019a9450505090830190600101613ae6565b600082825180855260208086019550808260051b8401018186016000805b8581101561372157868403601f19018a52825180516001600160a01b03908116865290860151604087870181905281519087018190529087019160608701918591905b80831015613c1157845182168452938901939289019260019290920191613bef565b5050509a86019a94505091840191600101613bac565b6001600160a01b038616815260a060208201526000613c4960a0830187612f29565b8281036040840152613c5b8187613ac9565b90508281036060840152613c6f8186613b8e565b90508281036080840152613c838185612f29565b98975050505050505050565b600060208284031215613ca157600080fd5b5051919050565b848152608060208201526000613cc16080830186613ac9565b8281036040840152613cd38186613b8e565b9050828103606084015261358a8185612f29565b848152608060208201526000613d006080830186612f29565b8281036040840152613d128186612f29565b91505082606083015295945050505050565b600060608083018684526020868186015260406060604087015282875180855260808801915060808160051b890101945083890160005b82811015613e0257898703607f190184528151805188528601518688018690528051868901819052908701906000908a8a01905b80831015613ded5783518051151583528a8101518b840152898101518a8401528c8101516001600160a01b039081168e8501526080808301519085015260a0918201511690830152928901926001929092019160c090910190613d8f565b50985050509285019290850190600101613d5b565b50949b9a5050505050505050505050565b600960fa1b815260008251613e2f816001850160208701612f05565b7f207072656d696e746564000000000000000000000000000000000000000000006001939091019283015250600b01919050565b8581528460208201526001600160a01b038416604082015260a060608201526000613e9160a0830185612f29565b905082151560808301529695505050505050565b60008151808452602080850194506020840160005b838110156135e8578151805164ffffffffff90811689528482015161ffff908116868b01526040808401516dffffffffffffffffffffffffffff16908b0152606080840151909216918a019190915260808083015163ffffffff16908a015260a091820151169088015260c09096019590820190600101613eba565b600060408084016001600160a01b038085511686526020808601516040828901528381518086526060955060608a019150838301925060005b81811015613fb75783518051871684528581015162ffffff16868501528881015163ffffffff9081168a86015290880151168784015292840192608090920191600101613f6f565b50909998505050505050505050565b60006101008083528a5160c0828501528051915060806101c0850152613ff0610240850183612f29565b915060208101516101bf1980868503016101e08701526140108483612f29565b93506040830151915080868503016102008701525061402f8382612f29565b92505060608101516102208501525060208b015161405661012085018263ffffffff169052565b5060408b015161014084015260608b015161016084015260808b01516001600160a01b031661018084015260a08b015183820360ff19016101a085015261409d8282613ea5565b91505082810360208401526140b2818b613b8e565b905082810360408401526140c6818a613f36565b905082810360608401526140da818961374e565b905082810360808401526140ee8188613ac9565b905082810360a08401526141028187612f29565b91505061411360c083018515159052565b6001600160a01b03831660e08301529998505050505050505050565b818103818111156103c9576103c96134bc565b60008351614154818460208801612f05565b835190830190614168818360208801612f05565b01949350505050565b6000808585111561418157600080fd5b8386111561418e57600080fd5b5050820193919092039150565b6bffffffffffffffffffffffff1981358181169160148510156141c85780818660140360031b1b83161692505b505092915050565b63ffffffff8616815284602082015260a0604082015260006141f560a0830186612f29565b82810360608401526142078186612f29565b915050826080830152969550505050505056fea26469706673582212203fc6b2936803c5ac6b93eff259bc32e395e3109295e483dbcdb53fb0441f14eb64736f6c63430008170033",
			"devdoc": {
				"kind": "dev",
				"methods": {
					"beforePayRecordedWith((address,address,(address,uint256,uint256,uint256),uint256,uint256,address,uint256,uint256,bytes))": {
						"details": "Part of IJBFundingCycleDataSource.This implementation just sets this contract up to receive a `didPay` call.",
						"params": {
							"context": "The Juicebox standard network payment context. See"
						},
						"returns": {
							"hookSpecifications": "Amount to be sent to pay hooks instead of adding to local balance. Useful for auto-routing funds from a treasury as payment come in.",
							"weight": "The weight that network tokens should get minted relative to. This is useful for optionally customizing how many tokens are issued per payment."
						}
					},
					"constructor": {
						"params": {
							"controller": "The controller that revnets are made from.",
							"suckerRegistry": "The registry that deploys and tracks each project's suckers.",
							"trustedForwarder": "The trusted forwarder for the ERC2771Context."
						}
					},
					"deployRevnetWith(((string,string,string,bytes32),uint32,uint256,uint256,address,(uint40,uint16,uint112,uint40,uint32,uint16)[]),(address,address[])[],(address,(address,uint24,uint32,uint32)[]),((address,(address,uint32,address,uint256)[])[],bytes32))": {
						"params": {
							"buybackHookConfiguration": "Data used for setting up the buyback hook to use when determining the best price for new participants.",
							"configuration": "The data needed to deploy a basic revnet.",
							"suckerDeploymentConfiguration": "Information about how this revnet relates to other's across chains.",
							"terminalConfigurations": "The terminals that the network uses to accept payments through."
						},
						"returns": {
							"_0": "revnetId The ID of the newly created revnet."
						}
					},
					"deploySuckersFor(uint256,bytes,((address,(address,uint32,address,uint256)[])[],bytes32))": {
						"params": {
							"encodedConfiguration": "A bytes representation of the revnet's configuration.",
							"revnetId": "The ID of the revnet having new suckers deployed.",
							"suckerDeploymentConfiguration": "The specifics about the suckers being deployed."
						}
					},
					"hasMintPermissionFor(uint256,address)": {
						"params": {
							"addr": "The address to check if has permissions.",
							"revnetId": "The ID of the revnet to check permissions for."
						},
						"returns": {
							"_0": "flag The flag indicating if the address has permissions to mint on the revnet's behalf."
						}
					},
					"isTrustedForwarder(address)": {
						"details": "Indicates whether any particular address is the trusted forwarder."
					},
					"launchRevnetFor(uint256,((string,string,string,bytes32),uint32,uint256,uint256,address,(uint40,uint16,uint112,uint40,uint32,uint16)[]),(address,address[])[],(address,(address,uint24,uint32,uint32)[]),((address,(address,uint32,address,uint256)[])[],bytes32))": {
						"params": {
							"buybackHookConfiguration": "Data used for setting up the buyback hook to use when determining the best price for new participants.",
							"configuration": "The data needed to deploy a basic revnet.",
							"revnetId": "The ID of the Juicebox project to turn into a revnet. Send 0 to deploy a new revnet.",
							"suckerDeploymentConfiguration": "Information about how this revnet relates to other's across chains.",
							"terminalConfigurations": "The terminals that the network uses to accept payments through."
						},
						"returns": {
							"_0": "revnetId The ID of the newly created revnet."
						}
					},
					"onERC721Received(address,address,uint256,bytes)": {
						"details": "Make sure only mints can be received."
					},
					"payHookSpecificationsOf(uint256)": {
						"params": {
							"revnetId": "The ID of the revnet to which the extensions apply."
						},
						"returns": {
							"_0": "payHookSpecifications The pay hooks."
						}
					},
					"replaceSplitOperatorOf(uint256,address)": {
						"params": {
							"newSplitOperator": "The address of the new split operator.",
							"revnetId": "The ID of the revnet having its operator replaced."
						}
					},
					"supportsInterface(bytes4)": {
						"details": "See {IERC165-supportsInterface}.",
						"params": {
							"interfaceId": "The ID of the interface to check for adherence to."
						},
						"returns": {
							"_0": "A flag indicating if the provided interface ID is supported."
						}
					},
					"trustedForwarder()": {
						"details": "Returns the address of the trusted forwarder."
					}
				},
				"version": 1
			},
			"userdoc": {
				"kind": "user",
				"methods": {
					"CONTROLLER()": {
						"notice": "The controller that networks are made from."
					},
					"EXIT_DELAY()": {
						"notice": "The amount of time from a sucker being deployed to when it can facilitate exits."
					},
					"SUCKER_REGISTRY()": {
						"notice": "The registry that deploys and tracks each project's suckers."
					},
					"beforePayRecordedWith((address,address,(address,uint256,uint256,uint256),uint256,uint256,address,uint256,uint256,bytes))": {
						"notice": "This function gets called when the revnet receives a payment."
					},
					"beforeRedeemRecordedWith((address,address,uint256,uint256,uint256,uint256,(address,uint256,uint256,uint256),bool,uint256,bytes))": {
						"notice": "This function is never called, it needs to be included to adhere to the interface."
					},
					"buybackHookOf(uint256)": {
						"notice": "The data hook that returns the correct values for the buyback hook of each network."
					},
					"deployRevnetWith(((string,string,string,bytes32),uint32,uint256,uint256,address,(uint40,uint16,uint112,uint40,uint32,uint16)[]),(address,address[])[],(address,(address,uint24,uint32,uint32)[]),((address,(address,uint32,address,uint256)[])[],bytes32))": {
						"notice": "Deploy a basic revnet."
					},
					"deploySuckersFor(uint256,bytes,((address,(address,uint32,address,uint256)[])[],bytes32))": {
						"notice": "Allows a revnet's split operator to deploy new suckers to the revnet after it's deployed."
					},
					"exitDelayOf(uint256)": {
						"notice": "The time at which exits from a revnet become allowed."
					},
					"hasMintPermissionFor(uint256,address)": {
						"notice": "Required by the IJBRulesetDataHook interfaces."
					},
					"launchRevnetFor(uint256,((string,string,string,bytes32),uint32,uint256,uint256,address,(uint40,uint16,uint112,uint40,uint32,uint16)[]),(address,address[])[],(address,(address,uint24,uint32,uint32)[]),((address,(address,uint32,address,uint256)[])[],bytes32))": {
						"notice": "Launch a basic revnet."
					},
					"payHookSpecificationsOf(uint256)": {
						"notice": "The pay hooks to include during payments to networks."
					},
					"replaceSplitOperatorOf(uint256,address)": {
						"notice": "A revnet's operator can replace itself."
					},
					"supportsInterface(bytes4)": {
						"notice": "Indicates if this contract adheres to the specified interface."
					}
				},
				"version": 1
			},
			"gitCommit": "e48dc3f1d54ff5f55ece3012b7a37cef0f8cd436",
			"sourceName": "src/REVBasicDeployer.sol",
			"chainId": "11155111",
			"linkReferences": {},
			"deployedLinkReferences": {}
		},
		{
			"_format": "sphinx-sol-ct-artifact-1",
			"merkleRoot": "0x00578d2a20eb7e8fbdc5d82f26d18917102fd037fcc85b447a7a8f0e10ab3a43",
			"contractName": "REVBasicDeployer",
			"address": "0xfc4b4Ea0e4B0e336daf449184515aEB6Fc1A280A",
			"abi": [
				{
					"type": "constructor",
					"inputs": [
						{
							"name": "controller",
							"type": "address",
							"internalType": "contract IJBController"
						},
						{
							"name": "suckerRegistry",
							"type": "address",
							"internalType": "contract IBPSuckerRegistry"
						},
						{
							"name": "trustedForwarder",
							"type": "address",
							"internalType": "address"
						}
					],
					"stateMutability": "nonpayable"
				},
				{
					"type": "function",
					"name": "CONTROLLER",
					"inputs": [],
					"outputs": [
						{
							"name": "",
							"type": "address",
							"internalType": "contract IJBController"
						}
					],
					"stateMutability": "view"
				},
				{
					"type": "function",
					"name": "EXIT_DELAY",
					"inputs": [],
					"outputs": [
						{
							"name": "",
							"type": "uint256",
							"internalType": "uint256"
						}
					],
					"stateMutability": "view"
				},
				{
					"type": "function",
					"name": "SUCKER_REGISTRY",
					"inputs": [],
					"outputs": [
						{
							"name": "",
							"type": "address",
							"internalType": "contract IBPSuckerRegistry"
						}
					],
					"stateMutability": "view"
				},
				{
					"type": "function",
					"name": "beforePayRecordedWith",
					"inputs": [
						{
							"name": "context",
							"type": "tuple",
							"internalType": "struct JBBeforePayRecordedContext",
							"components": [
								{
									"name": "terminal",
									"type": "address",
									"internalType": "address"
								},
								{
									"name": "payer",
									"type": "address",
									"internalType": "address"
								},
								{
									"name": "amount",
									"type": "tuple",
									"internalType": "struct JBTokenAmount",
									"components": [
										{
											"name": "token",
											"type": "address",
											"internalType": "address"
										},
										{
											"name": "value",
											"type": "uint256",
											"internalType": "uint256"
										},
										{
											"name": "decimals",
											"type": "uint256",
											"internalType": "uint256"
										},
										{
											"name": "currency",
											"type": "uint256",
											"internalType": "uint256"
										}
									]
								},
								{
									"name": "projectId",
									"type": "uint256",
									"internalType": "uint256"
								},
								{
									"name": "rulesetId",
									"type": "uint256",
									"internalType": "uint256"
								},
								{
									"name": "beneficiary",
									"type": "address",
									"internalType": "address"
								},
								{
									"name": "weight",
									"type": "uint256",
									"internalType": "uint256"
								},
								{
									"name": "reservedRate",
									"type": "uint256",
									"internalType": "uint256"
								},
								{
									"name": "metadata",
									"type": "bytes",
									"internalType": "bytes"
								}
							]
						}
					],
					"outputs": [
						{
							"name": "weight",
							"type": "uint256",
							"internalType": "uint256"
						},
						{
							"name": "hookSpecifications",
							"type": "tuple[]",
							"internalType": "struct JBPayHookSpecification[]",
							"components": [
								{
									"name": "hook",
									"type": "address",
									"internalType": "contract IJBPayHook"
								},
								{
									"name": "amount",
									"type": "uint256",
									"internalType": "uint256"
								},
								{
									"name": "metadata",
									"type": "bytes",
									"internalType": "bytes"
								}
							]
						}
					],
					"stateMutability": "view"
				},
				{
					"type": "function",
					"name": "beforeRedeemRecordedWith",
					"inputs": [
						{
							"name": "context",
							"type": "tuple",
							"internalType": "struct JBBeforeRedeemRecordedContext",
							"components": [
								{
									"name": "terminal",
									"type": "address",
									"internalType": "address"
								},
								{
									"name": "holder",
									"type": "address",
									"internalType": "address"
								},
								{
									"name": "projectId",
									"type": "uint256",
									"internalType": "uint256"
								},
								{
									"name": "rulesetId",
									"type": "uint256",
									"internalType": "uint256"
								},
								{
									"name": "redeemCount",
									"type": "uint256",
									"internalType": "uint256"
								},
								{
									"name": "totalSupply",
									"type": "uint256",
									"internalType": "uint256"
								},
								{
									"name": "surplus",
									"type": "tuple",
									"internalType": "struct JBTokenAmount",
									"components": [
										{
											"name": "token",
											"type": "address",
											"internalType": "address"
										},
										{
											"name": "value",
											"type": "uint256",
											"internalType": "uint256"
										},
										{
											"name": "decimals",
											"type": "uint256",
											"internalType": "uint256"
										},
										{
											"name": "currency",
											"type": "uint256",
											"internalType": "uint256"
										}
									]
								},
								{
									"name": "useTotalSurplus",
									"type": "bool",
									"internalType": "bool"
								},
								{
									"name": "redemptionRate",
									"type": "uint256",
									"internalType": "uint256"
								},
								{
									"name": "metadata",
									"type": "bytes",
									"internalType": "bytes"
								}
							]
						}
					],
					"outputs": [
						{
							"name": "",
							"type": "uint256",
							"internalType": "uint256"
						},
						{
							"name": "",
							"type": "uint256",
							"internalType": "uint256"
						},
						{
							"name": "",
							"type": "uint256",
							"internalType": "uint256"
						},
						{
							"name": "specifications",
							"type": "tuple[]",
							"internalType": "struct JBRedeemHookSpecification[]",
							"components": [
								{
									"name": "hook",
									"type": "address",
									"internalType": "contract IJBRedeemHook"
								},
								{
									"name": "amount",
									"type": "uint256",
									"internalType": "uint256"
								},
								{
									"name": "metadata",
									"type": "bytes",
									"internalType": "bytes"
								}
							]
						}
					],
					"stateMutability": "view"
				},
				{
					"type": "function",
					"name": "buybackHookOf",
					"inputs": [
						{
							"name": "revnetId",
							"type": "uint256",
							"internalType": "uint256"
						}
					],
					"outputs": [
						{
							"name": "buybackHook",
							"type": "address",
							"internalType": "contract IJBRulesetDataHook"
						}
					],
					"stateMutability": "view"
				},
				{
					"type": "function",
					"name": "deploySuckersFor",
					"inputs": [
						{
							"name": "revnetId",
							"type": "uint256",
							"internalType": "uint256"
						},
						{
							"name": "encodedConfiguration",
							"type": "bytes",
							"internalType": "bytes"
						},
						{
							"name": "suckerDeploymentConfiguration",
							"type": "tuple",
							"internalType": "struct REVSuckerDeploymentConfig",
							"components": [
								{
									"name": "deployerConfigurations",
									"type": "tuple[]",
									"internalType": "struct BPSuckerDeployerConfig[]",
									"components": [
										{
											"name": "deployer",
											"type": "address",
											"internalType": "contract IBPSuckerDeployer"
										},
										{
											"name": "mappings",
											"type": "tuple[]",
											"internalType": "struct BPTokenMapping[]",
											"components": [
												{
													"name": "localToken",
													"type": "address",
													"internalType": "address"
												},
												{
													"name": "minGas",
													"type": "uint32",
													"internalType": "uint32"
												},
												{
													"name": "remoteToken",
													"type": "address",
													"internalType": "address"
												},
												{
													"name": "minBridgeAmount",
													"type": "uint256",
													"internalType": "uint256"
												}
											]
										}
									]
								},
								{
									"name": "salt",
									"type": "bytes32",
									"internalType": "bytes32"
								}
							]
						}
					],
					"outputs": [],
					"stateMutability": "nonpayable"
				},
				{
					"type": "function",
					"name": "exitDelayOf",
					"inputs": [
						{
							"name": "revnetId",
							"type": "uint256",
							"internalType": "uint256"
						}
					],
					"outputs": [
						{
							"name": "exitDelay",
							"type": "uint256",
							"internalType": "uint256"
						}
					],
					"stateMutability": "view"
				},
				{
					"type": "function",
					"name": "hasMintPermissionFor",
					"inputs": [
						{
							"name": "revnetId",
							"type": "uint256",
							"internalType": "uint256"
						},
						{
							"name": "addr",
							"type": "address",
							"internalType": "address"
						}
					],
					"outputs": [
						{
							"name": "",
							"type": "bool",
							"internalType": "bool"
						}
					],
					"stateMutability": "view"
				},
				{
					"type": "function",
					"name": "isTrustedForwarder",
					"inputs": [
						{
							"name": "forwarder",
							"type": "address",
							"internalType": "address"
						}
					],
					"outputs": [
						{
							"name": "",
							"type": "bool",
							"internalType": "bool"
						}
					],
					"stateMutability": "view"
				},
				{
					"type": "function",
					"name": "launchRevnetFor",
					"inputs": [
						{
							"name": "revnetId",
							"type": "uint256",
							"internalType": "uint256"
						},
						{
							"name": "configuration",
							"type": "tuple",
							"internalType": "struct REVConfig",
							"components": [
								{
									"name": "description",
									"type": "tuple",
									"internalType": "struct REVDescription",
									"components": [
										{
											"name": "name",
											"type": "string",
											"internalType": "string"
										},
										{
											"name": "ticker",
											"type": "string",
											"internalType": "string"
										},
										{
											"name": "uri",
											"type": "string",
											"internalType": "string"
										},
										{
											"name": "salt",
											"type": "bytes32",
											"internalType": "bytes32"
										}
									]
								},
								{
									"name": "baseCurrency",
									"type": "uint32",
									"internalType": "uint32"
								},
								{
									"name": "premintTokenAmount",
									"type": "uint256",
									"internalType": "uint256"
								},
								{
									"name": "premintChainId",
									"type": "uint256",
									"internalType": "uint256"
								},
								{
									"name": "initialSplitOperator",
									"type": "address",
									"internalType": "address"
								},
								{
									"name": "stageConfigurations",
									"type": "tuple[]",
									"internalType": "struct REVStageConfig[]",
									"components": [
										{
											"name": "startsAtOrAfter",
											"type": "uint40",
											"internalType": "uint40"
										},
										{
											"name": "splitRate",
											"type": "uint16",
											"internalType": "uint16"
										},
										{
											"name": "initialIssuanceRate",
											"type": "uint112",
											"internalType": "uint112"
										},
										{
											"name": "priceCeilingIncreaseFrequency",
											"type": "uint40",
											"internalType": "uint40"
										},
										{
											"name": "priceCeilingIncreasePercentage",
											"type": "uint32",
											"internalType": "uint32"
										},
										{
											"name": "priceFloorTaxIntensity",
											"type": "uint16",
											"internalType": "uint16"
										}
									]
								}
							]
						},
						{
							"name": "terminalConfigurations",
							"type": "tuple[]",
							"internalType": "struct JBTerminalConfig[]",
							"components": [
								{
									"name": "terminal",
									"type": "address",
									"internalType": "contract IJBTerminal"
								},
								{
									"name": "tokensToAccept",
									"type": "address[]",
									"internalType": "address[]"
								}
							]
						},
						{
							"name": "buybackHookConfiguration",
							"type": "tuple",
							"internalType": "struct REVBuybackHookConfig",
							"components": [
								{
									"name": "hook",
									"type": "address",
									"internalType": "contract IJBBuybackHook"
								},
								{
									"name": "poolConfigurations",
									"type": "tuple[]",
									"internalType": "struct REVBuybackPoolConfig[]",
									"components": [
										{
											"name": "token",
											"type": "address",
											"internalType": "address"
										},
										{
											"name": "fee",
											"type": "uint24",
											"internalType": "uint24"
										},
										{
											"name": "twapWindow",
											"type": "uint32",
											"internalType": "uint32"
										},
										{
											"name": "twapSlippageTolerance",
											"type": "uint32",
											"internalType": "uint32"
										}
									]
								}
							]
						},
						{
							"name": "suckerDeploymentConfiguration",
							"type": "tuple",
							"internalType": "struct REVSuckerDeploymentConfig",
							"components": [
								{
									"name": "deployerConfigurations",
									"type": "tuple[]",
									"internalType": "struct BPSuckerDeployerConfig[]",
									"components": [
										{
											"name": "deployer",
											"type": "address",
											"internalType": "contract IBPSuckerDeployer"
										},
										{
											"name": "mappings",
											"type": "tuple[]",
											"internalType": "struct BPTokenMapping[]",
											"components": [
												{
													"name": "localToken",
													"type": "address",
													"internalType": "address"
												},
												{
													"name": "minGas",
													"type": "uint32",
													"internalType": "uint32"
												},
												{
													"name": "remoteToken",
													"type": "address",
													"internalType": "address"
												},
												{
													"name": "minBridgeAmount",
													"type": "uint256",
													"internalType": "uint256"
												}
											]
										}
									]
								},
								{
									"name": "salt",
									"type": "bytes32",
									"internalType": "bytes32"
								}
							]
						}
					],
					"outputs": [
						{
							"name": "",
							"type": "uint256",
							"internalType": "uint256"
						}
					],
					"stateMutability": "nonpayable"
				},
				{
					"type": "function",
					"name": "onERC721Received",
					"inputs": [
						{
							"name": "operator",
							"type": "address",
							"internalType": "address"
						},
						{
							"name": "",
							"type": "address",
							"internalType": "address"
						},
						{
							"name": "tokenId",
							"type": "uint256",
							"internalType": "uint256"
						},
						{
							"name": "data",
							"type": "bytes",
							"internalType": "bytes"
						}
					],
					"outputs": [
						{
							"name": "",
							"type": "bytes4",
							"internalType": "bytes4"
						}
					],
					"stateMutability": "view"
				},
				{
					"type": "function",
					"name": "payHookSpecificationsOf",
					"inputs": [
						{
							"name": "revnetId",
							"type": "uint256",
							"internalType": "uint256"
						}
					],
					"outputs": [
						{
							"name": "",
							"type": "tuple[]",
							"internalType": "struct JBPayHookSpecification[]",
							"components": [
								{
									"name": "hook",
									"type": "address",
									"internalType": "contract IJBPayHook"
								},
								{
									"name": "amount",
									"type": "uint256",
									"internalType": "uint256"
								},
								{
									"name": "metadata",
									"type": "bytes",
									"internalType": "bytes"
								}
							]
						}
					],
					"stateMutability": "view"
				},
				{
					"type": "function",
					"name": "replaceSplitOperatorOf",
					"inputs": [
						{
							"name": "revnetId",
							"type": "uint256",
							"internalType": "uint256"
						},
						{
							"name": "newSplitOperator",
							"type": "address",
							"internalType": "address"
						}
					],
					"outputs": [],
					"stateMutability": "nonpayable"
				},
				{
					"type": "function",
					"name": "supportsInterface",
					"inputs": [
						{
							"name": "interfaceId",
							"type": "bytes4",
							"internalType": "bytes4"
						}
					],
					"outputs": [
						{
							"name": "",
							"type": "bool",
							"internalType": "bool"
						}
					],
					"stateMutability": "view"
				},
				{
					"type": "function",
					"name": "trustedForwarder",
					"inputs": [],
					"outputs": [
						{
							"name": "",
							"type": "address",
							"internalType": "address"
						}
					],
					"stateMutability": "view"
				},
				{
					"type": "event",
					"name": "DeployRevnet",
					"inputs": [
						{
							"name": "revnetId",
							"type": "uint256",
							"indexed": true,
							"internalType": "uint256"
						},
						{
							"name": "configuration",
							"type": "tuple",
							"indexed": false,
							"internalType": "struct REVConfig",
							"components": [
								{
									"name": "description",
									"type": "tuple",
									"internalType": "struct REVDescription",
									"components": [
										{
											"name": "name",
											"type": "string",
											"internalType": "string"
										},
										{
											"name": "ticker",
											"type": "string",
											"internalType": "string"
										},
										{
											"name": "uri",
											"type": "string",
											"internalType": "string"
										},
										{
											"name": "salt",
											"type": "bytes32",
											"internalType": "bytes32"
										}
									]
								},
								{
									"name": "baseCurrency",
									"type": "uint32",
									"internalType": "uint32"
								},
								{
									"name": "premintTokenAmount",
									"type": "uint256",
									"internalType": "uint256"
								},
								{
									"name": "premintChainId",
									"type": "uint256",
									"internalType": "uint256"
								},
								{
									"name": "initialSplitOperator",
									"type": "address",
									"internalType": "address"
								},
								{
									"name": "stageConfigurations",
									"type": "tuple[]",
									"internalType": "struct REVStageConfig[]",
									"components": [
										{
											"name": "startsAtOrAfter",
											"type": "uint40",
											"internalType": "uint40"
										},
										{
											"name": "splitRate",
											"type": "uint16",
											"internalType": "uint16"
										},
										{
											"name": "initialIssuanceRate",
											"type": "uint112",
											"internalType": "uint112"
										},
										{
											"name": "priceCeilingIncreaseFrequency",
											"type": "uint40",
											"internalType": "uint40"
										},
										{
											"name": "priceCeilingIncreasePercentage",
											"type": "uint32",
											"internalType": "uint32"
										},
										{
											"name": "priceFloorTaxIntensity",
											"type": "uint16",
											"internalType": "uint16"
										}
									]
								}
							]
						},
						{
							"name": "terminalConfigurations",
							"type": "tuple[]",
							"indexed": false,
							"internalType": "struct JBTerminalConfig[]",
							"components": [
								{
									"name": "terminal",
									"type": "address",
									"internalType": "contract IJBTerminal"
								},
								{
									"name": "tokensToAccept",
									"type": "address[]",
									"internalType": "address[]"
								}
							]
						},
						{
							"name": "buybackHookConfiguration",
							"type": "tuple",
							"indexed": false,
							"internalType": "struct REVBuybackHookConfig",
							"components": [
								{
									"name": "hook",
									"type": "address",
									"internalType": "contract IJBBuybackHook"
								},
								{
									"name": "poolConfigurations",
									"type": "tuple[]",
									"internalType": "struct REVBuybackPoolConfig[]",
									"components": [
										{
											"name": "token",
											"type": "address",
											"internalType": "address"
										},
										{
											"name": "fee",
											"type": "uint24",
											"internalType": "uint24"
										},
										{
											"name": "twapWindow",
											"type": "uint32",
											"internalType": "uint32"
										},
										{
											"name": "twapSlippageTolerance",
											"type": "uint32",
											"internalType": "uint32"
										}
									]
								}
							]
						},
						{
							"name": "suckerDeploymentConfiguration",
							"type": "tuple",
							"indexed": false,
							"internalType": "struct REVSuckerDeploymentConfig",
							"components": [
								{
									"name": "deployerConfigurations",
									"type": "tuple[]",
									"internalType": "struct BPSuckerDeployerConfig[]",
									"components": [
										{
											"name": "deployer",
											"type": "address",
											"internalType": "contract IBPSuckerDeployer"
										},
										{
											"name": "mappings",
											"type": "tuple[]",
											"internalType": "struct BPTokenMapping[]",
											"components": [
												{
													"name": "localToken",
													"type": "address",
													"internalType": "address"
												},
												{
													"name": "minGas",
													"type": "uint32",
													"internalType": "uint32"
												},
												{
													"name": "remoteToken",
													"type": "address",
													"internalType": "address"
												},
												{
													"name": "minBridgeAmount",
													"type": "uint256",
													"internalType": "uint256"
												}
											]
										}
									]
								},
								{
									"name": "salt",
									"type": "bytes32",
									"internalType": "bytes32"
								}
							]
						},
						{
							"name": "rulesetConfigurations",
							"type": "tuple[]",
							"indexed": false,
							"internalType": "struct JBRulesetConfig[]",
							"components": [
								{
									"name": "mustStartAtOrAfter",
									"type": "uint256",
									"internalType": "uint256"
								},
								{
									"name": "duration",
									"type": "uint256",
									"internalType": "uint256"
								},
								{
									"name": "weight",
									"type": "uint256",
									"internalType": "uint256"
								},
								{
									"name": "decayRate",
									"type": "uint256",
									"internalType": "uint256"
								},
								{
									"name": "approvalHook",
									"type": "address",
									"internalType": "contract IJBRulesetApprovalHook"
								},
								{
									"name": "metadata",
									"type": "tuple",
									"internalType": "struct JBRulesetMetadata",
									"components": [
										{
											"name": "reservedRate",
											"type": "uint256",
											"internalType": "uint256"
										},
										{
											"name": "redemptionRate",
											"type": "uint256",
											"internalType": "uint256"
										},
										{
											"name": "baseCurrency",
											"type": "uint256",
											"internalType": "uint256"
										},
										{
											"name": "pausePay",
											"type": "bool",
											"internalType": "bool"
										},
										{
											"name": "pauseCreditTransfers",
											"type": "bool",
											"internalType": "bool"
										},
										{
											"name": "allowOwnerMinting",
											"type": "bool",
											"internalType": "bool"
										},
										{
											"name": "allowTerminalMigration",
											"type": "bool",
											"internalType": "bool"
										},
										{
											"name": "allowSetTerminals",
											"type": "bool",
											"internalType": "bool"
										},
										{
											"name": "allowControllerMigration",
											"type": "bool",
											"internalType": "bool"
										},
										{
											"name": "allowSetController",
											"type": "bool",
											"internalType": "bool"
										},
										{
											"name": "holdFees",
											"type": "bool",
											"internalType": "bool"
										},
										{
											"name": "useTotalSurplusForRedemptions",
											"type": "bool",
											"internalType": "bool"
										},
										{
											"name": "useDataHookForPay",
											"type": "bool",
											"internalType": "bool"
										},
										{
											"name": "useDataHookForRedeem",
											"type": "bool",
											"internalType": "bool"
										},
										{
											"name": "dataHook",
											"type": "address",
											"internalType": "address"
										},
										{
											"name": "metadata",
											"type": "uint256",
											"internalType": "uint256"
										}
									]
								},
								{
									"name": "splitGroups",
									"type": "tuple[]",
									"internalType": "struct JBSplitGroup[]",
									"components": [
										{
											"name": "groupId",
											"type": "uint256",
											"internalType": "uint256"
										},
										{
											"name": "splits",
											"type": "tuple[]",
											"internalType": "struct JBSplit[]",
											"components": [
												{
													"name": "preferAddToBalance",
													"type": "bool",
													"internalType": "bool"
												},
												{
													"name": "percent",
													"type": "uint256",
													"internalType": "uint256"
												},
												{
													"name": "projectId",
													"type": "uint256",
													"internalType": "uint256"
												},
												{
													"name": "beneficiary",
													"type": "address",
													"internalType": "address payable"
												},
												{
													"name": "lockedUntil",
													"type": "uint256",
													"internalType": "uint256"
												},
												{
													"name": "hook",
													"type": "address",
													"internalType": "contract IJBSplitHook"
												}
											]
										}
									]
								},
								{
									"name": "fundAccessLimitGroups",
									"type": "tuple[]",
									"internalType": "struct JBFundAccessLimitGroup[]",
									"components": [
										{
											"name": "terminal",
											"type": "address",
											"internalType": "address"
										},
										{
											"name": "token",
											"type": "address",
											"internalType": "address"
										},
										{
											"name": "payoutLimits",
											"type": "tuple[]",
											"internalType": "struct JBCurrencyAmount[]",
											"components": [
												{
													"name": "amount",
													"type": "uint256",
													"internalType": "uint256"
												},
												{
													"name": "currency",
													"type": "uint256",
													"internalType": "uint256"
												}
											]
										},
										{
											"name": "surplusAllowances",
											"type": "tuple[]",
											"internalType": "struct JBCurrencyAmount[]",
											"components": [
												{
													"name": "amount",
													"type": "uint256",
													"internalType": "uint256"
												},
												{
													"name": "currency",
													"type": "uint256",
													"internalType": "uint256"
												}
											]
										}
									]
								}
							]
						},
						{
							"name": "encodedConfiguration",
							"type": "bytes",
							"indexed": false,
							"internalType": "bytes"
						},
						{
							"name": "isInProgress",
							"type": "bool",
							"indexed": false,
							"internalType": "bool"
						},
						{
							"name": "caller",
							"type": "address",
							"indexed": false,
							"internalType": "address"
						}
					],
					"anonymous": false
				},
				{
					"type": "event",
					"name": "DeploySuckers",
					"inputs": [
						{
							"name": "revnetId",
							"type": "uint256",
							"indexed": true,
							"internalType": "uint256"
						},
						{
							"name": "salt",
							"type": "bytes32",
							"indexed": true,
							"internalType": "bytes32"
						},
						{
							"name": "encodedConfiguration",
							"type": "bytes",
							"indexed": false,
							"internalType": "bytes"
						},
						{
							"name": "suckerDeploymentConfiguration",
							"type": "tuple",
							"indexed": false,
							"internalType": "struct REVSuckerDeploymentConfig",
							"components": [
								{
									"name": "deployerConfigurations",
									"type": "tuple[]",
									"internalType": "struct BPSuckerDeployerConfig[]",
									"components": [
										{
											"name": "deployer",
											"type": "address",
											"internalType": "contract IBPSuckerDeployer"
										},
										{
											"name": "mappings",
											"type": "tuple[]",
											"internalType": "struct BPTokenMapping[]",
											"components": [
												{
													"name": "localToken",
													"type": "address",
													"internalType": "address"
												},
												{
													"name": "minGas",
													"type": "uint32",
													"internalType": "uint32"
												},
												{
													"name": "remoteToken",
													"type": "address",
													"internalType": "address"
												},
												{
													"name": "minBridgeAmount",
													"type": "uint256",
													"internalType": "uint256"
												}
											]
										}
									]
								},
								{
									"name": "salt",
									"type": "bytes32",
									"internalType": "bytes32"
								}
							]
						},
						{
							"name": "caller",
							"type": "address",
							"indexed": false,
							"internalType": "address"
						}
					],
					"anonymous": false
				},
				{
					"type": "event",
					"name": "ReplaceSplitOperator",
					"inputs": [
						{
							"name": "revnetId",
							"type": "uint256",
							"indexed": true,
							"internalType": "uint256"
						},
						{
							"name": "newSplitOperator",
							"type": "address",
							"indexed": true,
							"internalType": "address"
						},
						{
							"name": "caller",
							"type": "address",
							"indexed": false,
							"internalType": "address"
						}
					],
					"anonymous": false
				},
				{
					"type": "error",
					"name": "REVBasicDeployer_ExitDelayInEffect",
					"inputs": []
				},
				{
					"type": "error",
					"name": "REVBasicDeployer_Unauthorized",
					"inputs": []
				}
			],
			"solcInputHash": "3a51971c69b48f0721debceb2d298100",
			"receipt": {
				"blockHash": "0x3c627b1f4758247bdc863ae85664db7e828adf8a91464d893b1778f87365c86e",
				"blockNumber": 5675862,
				"contractAddress": null,
				"cumulativeGasUsed": "25338666",
				"from": "0xC034550B542b83BA1De312b21d1C94a9a52B1595",
				"gasPrice": "1152925643",
				"gasUsed": "9233931",
				"hash": "0x726e536289e546eedd4a105d18f509f2c57b20b948ff87cada3b450b7944115b",
				"index": 125,
				"logs": [
					{
						"address": "0xB5E96127D417b1B3ef8438496a38A143167209c7",
						"blockHash": "0x3c627b1f4758247bdc863ae85664db7e828adf8a91464d893b1778f87365c86e",
						"blockNumber": 5675862,
						"data": "0x0000000000000000000000000000000000000000000000000000000000000000",
						"index": 208,
						"topics": [
							"0x572f161235911da04685a68c06adf558fc7e4a36909dca394650e0adc19cc93d",
							"0x000000000000000000000000c034550b542b83ba1de312b21d1c94a9a52b1595",
							"0x00000000000000000000000018ed911dda49f125bbadd71f826f1cda550f20fe",
							"0x5d52a30369a8f3201cec3bf38f7a9f9550fec1fdeff4926b88128f3fc619117a"
						],
						"transactionHash": "0x726e536289e546eedd4a105d18f509f2c57b20b948ff87cada3b450b7944115b",
						"transactionIndex": 125
					},
					{
						"address": "0x15B51C7D9DBc4681e54f8b493187C9a2377bd81B",
						"blockHash": "0x3c627b1f4758247bdc863ae85664db7e828adf8a91464d893b1778f87365c86e",
						"blockNumber": 5675862,
						"data": "0x",
						"index": 209,
						"topics": [
							"0x6895c13664aa4f67288b25d7a21d7aaa34916e355fb9b6fae0a139a9085becb8",
							"0x00000000000000000000000018ed911dda49f125bbadd71f826f1cda550f20fe"
						],
						"transactionHash": "0x726e536289e546eedd4a105d18f509f2c57b20b948ff87cada3b450b7944115b",
						"transactionIndex": 125
					},
					{
						"address": "0x18Ed911ddA49f125bbadd71f826F1cDa550f20fE",
						"blockHash": "0x3c627b1f4758247bdc863ae85664db7e828adf8a91464d893b1778f87365c86e",
						"blockNumber": 5675862,
						"data": "0x0000000000000000000000000000000000000000000000000000000000000001",
						"index": 210,
						"topics": [
							"0xa65fb05c5808f5f389d72edeaf719ce38f4cc55c1f69ca3cbfb31c21501caa07",
							"0x00578d2a20eb7e8fbdc5d82f26d18917102fd037fcc85b447a7a8f0e10ab3a43"
						],
						"transactionHash": "0x726e536289e546eedd4a105d18f509f2c57b20b948ff87cada3b450b7944115b",
						"transactionIndex": 125
					},
					{
						"address": "0x15B51C7D9DBc4681e54f8b493187C9a2377bd81B",
						"blockHash": "0x3c627b1f4758247bdc863ae85664db7e828adf8a91464d893b1778f87365c86e",
						"blockNumber": 5675862,
						"data": "0x",
						"index": 211,
						"topics": [
							"0x6895c13664aa4f67288b25d7a21d7aaa34916e355fb9b6fae0a139a9085becb8",
							"0x00000000000000000000000018ed911dda49f125bbadd71f826f1cda550f20fe"
						],
						"transactionHash": "0x726e536289e546eedd4a105d18f509f2c57b20b948ff87cada3b450b7944115b",
						"transactionIndex": 125
					},
					{
						"address": "0x18Ed911ddA49f125bbadd71f826F1cDa550f20fE",
						"blockHash": "0x3c627b1f4758247bdc863ae85664db7e828adf8a91464d893b1778f87365c86e",
						"blockNumber": 5675862,
						"data": "0x0000000000000000000000000000000000000000000000000000000000000002",
						"index": 212,
						"topics": [
							"0xa65fb05c5808f5f389d72edeaf719ce38f4cc55c1f69ca3cbfb31c21501caa07",
							"0x00578d2a20eb7e8fbdc5d82f26d18917102fd037fcc85b447a7a8f0e10ab3a43"
						],
						"transactionHash": "0x726e536289e546eedd4a105d18f509f2c57b20b948ff87cada3b450b7944115b",
						"transactionIndex": 125
					},
					{
						"address": "0x18Ed911ddA49f125bbadd71f826F1cDa550f20fE",
						"blockHash": "0x3c627b1f4758247bdc863ae85664db7e828adf8a91464d893b1778f87365c86e",
						"blockNumber": 5675862,
						"data": "0x",
						"index": 213,
						"topics": [
							"0x4383d976757d67ca920616be0b6430a681ea9d3dcce8d6d61d4603ca4a9bff63",
							"0x00578d2a20eb7e8fbdc5d82f26d18917102fd037fcc85b447a7a8f0e10ab3a43"
						],
						"transactionHash": "0x726e536289e546eedd4a105d18f509f2c57b20b948ff87cada3b450b7944115b",
						"transactionIndex": 125
					}
				],
				"logsBloom": "0x00000000080010001000000000080000000000000008000000000000004000001000000000000000000000001040000000000004000004000000000000000000100000000000200000100000000000002000000000000000000000000000000000000000000000000004000000000000000000000000000000000000000000000000000000000000000100000000000000000000000000001000008000000000004000800010000000000000000001020200000000000000000000000044000000000000000000000000000008000200000000000000000000000000000000010000000000000008000000000000000200000000000000000000000008000000",
				"status": 1,
				"to": "0xB5E96127D417b1B3ef8438496a38A143167209c7"
			},
			"metadata": "{\"compiler\":{\"version\":\"0.8.23+commit.f704f362\"},\"language\":\"Solidity\",\"output\":{\"abi\":[{\"inputs\":[{\"internalType\":\"contract IJBController\",\"name\":\"controller\",\"type\":\"address\"},{\"internalType\":\"contract IBPSuckerRegistry\",\"name\":\"suckerRegistry\",\"type\":\"address\"},{\"internalType\":\"address\",\"name\":\"trustedForwarder\",\"type\":\"address\"}],\"stateMutability\":\"nonpayable\",\"type\":\"constructor\"},{\"inputs\":[],\"type\":\"error\",\"name\":\"REVBasicDeployer_ExitDelayInEffect\"},{\"inputs\":[],\"type\":\"error\",\"name\":\"REVBasicDeployer_Unauthorized\"},{\"inputs\":[{\"internalType\":\"uint256\",\"name\":\"revnetId\",\"type\":\"uint256\",\"indexed\":true},{\"internalType\":\"struct REVConfig\",\"name\":\"configuration\",\"type\":\"tuple\",\"components\":[{\"internalType\":\"struct REVDescription\",\"name\":\"description\",\"type\":\"tuple\",\"components\":[{\"internalType\":\"string\",\"name\":\"name\",\"type\":\"string\"},{\"internalType\":\"string\",\"name\":\"ticker\",\"type\":\"string\"},{\"internalType\":\"string\",\"name\":\"uri\",\"type\":\"string\"},{\"internalType\":\"bytes32\",\"name\":\"salt\",\"type\":\"bytes32\"}]},{\"internalType\":\"uint32\",\"name\":\"baseCurrency\",\"type\":\"uint32\"},{\"internalType\":\"uint256\",\"name\":\"premintTokenAmount\",\"type\":\"uint256\"},{\"internalType\":\"uint256\",\"name\":\"premintChainId\",\"type\":\"uint256\"},{\"internalType\":\"address\",\"name\":\"initialSplitOperator\",\"type\":\"address\"},{\"internalType\":\"struct REVStageConfig[]\",\"name\":\"stageConfigurations\",\"type\":\"tuple[]\",\"components\":[{\"internalType\":\"uint40\",\"name\":\"startsAtOrAfter\",\"type\":\"uint40\"},{\"internalType\":\"uint16\",\"name\":\"splitRate\",\"type\":\"uint16\"},{\"internalType\":\"uint112\",\"name\":\"initialIssuanceRate\",\"type\":\"uint112\"},{\"internalType\":\"uint40\",\"name\":\"priceCeilingIncreaseFrequency\",\"type\":\"uint40\"},{\"internalType\":\"uint32\",\"name\":\"priceCeilingIncreasePercentage\",\"type\":\"uint32\"},{\"internalType\":\"uint16\",\"name\":\"priceFloorTaxIntensity\",\"type\":\"uint16\"}]}],\"indexed\":false},{\"internalType\":\"struct JBTerminalConfig[]\",\"name\":\"terminalConfigurations\",\"type\":\"tuple[]\",\"components\":[{\"internalType\":\"contract IJBTerminal\",\"name\":\"terminal\",\"type\":\"address\"},{\"internalType\":\"address[]\",\"name\":\"tokensToAccept\",\"type\":\"address[]\"}],\"indexed\":false},{\"internalType\":\"struct REVBuybackHookConfig\",\"name\":\"buybackHookConfiguration\",\"type\":\"tuple\",\"components\":[{\"internalType\":\"contract IJBBuybackHook\",\"name\":\"hook\",\"type\":\"address\"},{\"internalType\":\"struct REVBuybackPoolConfig[]\",\"name\":\"poolConfigurations\",\"type\":\"tuple[]\",\"components\":[{\"internalType\":\"address\",\"name\":\"token\",\"type\":\"address\"},{\"internalType\":\"uint24\",\"name\":\"fee\",\"type\":\"uint24\"},{\"internalType\":\"uint32\",\"name\":\"twapWindow\",\"type\":\"uint32\"},{\"internalType\":\"uint32\",\"name\":\"twapSlippageTolerance\",\"type\":\"uint32\"}]}],\"indexed\":false},{\"internalType\":\"struct REVSuckerDeploymentConfig\",\"name\":\"suckerDeploymentConfiguration\",\"type\":\"tuple\",\"components\":[{\"internalType\":\"struct BPSuckerDeployerConfig[]\",\"name\":\"deployerConfigurations\",\"type\":\"tuple[]\",\"components\":[{\"internalType\":\"contract IBPSuckerDeployer\",\"name\":\"deployer\",\"type\":\"address\"},{\"internalType\":\"struct BPTokenMapping[]\",\"name\":\"mappings\",\"type\":\"tuple[]\",\"components\":[{\"internalType\":\"address\",\"name\":\"localToken\",\"type\":\"address\"},{\"internalType\":\"uint32\",\"name\":\"minGas\",\"type\":\"uint32\"},{\"internalType\":\"address\",\"name\":\"remoteToken\",\"type\":\"address\"},{\"internalType\":\"uint256\",\"name\":\"minBridgeAmount\",\"type\":\"uint256\"}]}]},{\"internalType\":\"bytes32\",\"name\":\"salt\",\"type\":\"bytes32\"}],\"indexed\":false},{\"internalType\":\"struct JBRulesetConfig[]\",\"name\":\"rulesetConfigurations\",\"type\":\"tuple[]\",\"components\":[{\"internalType\":\"uint256\",\"name\":\"mustStartAtOrAfter\",\"type\":\"uint256\"},{\"internalType\":\"uint256\",\"name\":\"duration\",\"type\":\"uint256\"},{\"internalType\":\"uint256\",\"name\":\"weight\",\"type\":\"uint256\"},{\"internalType\":\"uint256\",\"name\":\"decayRate\",\"type\":\"uint256\"},{\"internalType\":\"contract IJBRulesetApprovalHook\",\"name\":\"approvalHook\",\"type\":\"address\"},{\"internalType\":\"struct JBRulesetMetadata\",\"name\":\"metadata\",\"type\":\"tuple\",\"components\":[{\"internalType\":\"uint256\",\"name\":\"reservedRate\",\"type\":\"uint256\"},{\"internalType\":\"uint256\",\"name\":\"redemptionRate\",\"type\":\"uint256\"},{\"internalType\":\"uint256\",\"name\":\"baseCurrency\",\"type\":\"uint256\"},{\"internalType\":\"bool\",\"name\":\"pausePay\",\"type\":\"bool\"},{\"internalType\":\"bool\",\"name\":\"pauseCreditTransfers\",\"type\":\"bool\"},{\"internalType\":\"bool\",\"name\":\"allowOwnerMinting\",\"type\":\"bool\"},{\"internalType\":\"bool\",\"name\":\"allowTerminalMigration\",\"type\":\"bool\"},{\"internalType\":\"bool\",\"name\":\"allowSetTerminals\",\"type\":\"bool\"},{\"internalType\":\"bool\",\"name\":\"allowControllerMigration\",\"type\":\"bool\"},{\"internalType\":\"bool\",\"name\":\"allowSetController\",\"type\":\"bool\"},{\"internalType\":\"bool\",\"name\":\"holdFees\",\"type\":\"bool\"},{\"internalType\":\"bool\",\"name\":\"useTotalSurplusForRedemptions\",\"type\":\"bool\"},{\"internalType\":\"bool\",\"name\":\"useDataHookForPay\",\"type\":\"bool\"},{\"internalType\":\"bool\",\"name\":\"useDataHookForRedeem\",\"type\":\"bool\"},{\"internalType\":\"address\",\"name\":\"dataHook\",\"type\":\"address\"},{\"internalType\":\"uint256\",\"name\":\"metadata\",\"type\":\"uint256\"}]},{\"internalType\":\"struct JBSplitGroup[]\",\"name\":\"splitGroups\",\"type\":\"tuple[]\",\"components\":[{\"internalType\":\"uint256\",\"name\":\"groupId\",\"type\":\"uint256\"},{\"internalType\":\"struct JBSplit[]\",\"name\":\"splits\",\"type\":\"tuple[]\",\"components\":[{\"internalType\":\"bool\",\"name\":\"preferAddToBalance\",\"type\":\"bool\"},{\"internalType\":\"uint256\",\"name\":\"percent\",\"type\":\"uint256\"},{\"internalType\":\"uint256\",\"name\":\"projectId\",\"type\":\"uint256\"},{\"internalType\":\"address payable\",\"name\":\"beneficiary\",\"type\":\"address\"},{\"internalType\":\"uint256\",\"name\":\"lockedUntil\",\"type\":\"uint256\"},{\"internalType\":\"contract IJBSplitHook\",\"name\":\"hook\",\"type\":\"address\"}]}]},{\"internalType\":\"struct JBFundAccessLimitGroup[]\",\"name\":\"fundAccessLimitGroups\",\"type\":\"tuple[]\",\"components\":[{\"internalType\":\"address\",\"name\":\"terminal\",\"type\":\"address\"},{\"internalType\":\"address\",\"name\":\"token\",\"type\":\"address\"},{\"internalType\":\"struct JBCurrencyAmount[]\",\"name\":\"payoutLimits\",\"type\":\"tuple[]\",\"components\":[{\"internalType\":\"uint256\",\"name\":\"amount\",\"type\":\"uint256\"},{\"internalType\":\"uint256\",\"name\":\"currency\",\"type\":\"uint256\"}]},{\"internalType\":\"struct JBCurrencyAmount[]\",\"name\":\"surplusAllowances\",\"type\":\"tuple[]\",\"components\":[{\"internalType\":\"uint256\",\"name\":\"amount\",\"type\":\"uint256\"},{\"internalType\":\"uint256\",\"name\":\"currency\",\"type\":\"uint256\"}]}]}],\"indexed\":false},{\"internalType\":\"bytes\",\"name\":\"encodedConfiguration\",\"type\":\"bytes\",\"indexed\":false},{\"internalType\":\"bool\",\"name\":\"isInProgress\",\"type\":\"bool\",\"indexed\":false},{\"internalType\":\"address\",\"name\":\"caller\",\"type\":\"address\",\"indexed\":false}],\"type\":\"event\",\"name\":\"DeployRevnet\",\"anonymous\":false},{\"inputs\":[{\"internalType\":\"uint256\",\"name\":\"revnetId\",\"type\":\"uint256\",\"indexed\":true},{\"internalType\":\"bytes32\",\"name\":\"salt\",\"type\":\"bytes32\",\"indexed\":true},{\"internalType\":\"bytes\",\"name\":\"encodedConfiguration\",\"type\":\"bytes\",\"indexed\":false},{\"internalType\":\"struct REVSuckerDeploymentConfig\",\"name\":\"suckerDeploymentConfiguration\",\"type\":\"tuple\",\"components\":[{\"internalType\":\"struct BPSuckerDeployerConfig[]\",\"name\":\"deployerConfigurations\",\"type\":\"tuple[]\",\"components\":[{\"internalType\":\"contract IBPSuckerDeployer\",\"name\":\"deployer\",\"type\":\"address\"},{\"internalType\":\"struct BPTokenMapping[]\",\"name\":\"mappings\",\"type\":\"tuple[]\",\"components\":[{\"internalType\":\"address\",\"name\":\"localToken\",\"type\":\"address\"},{\"internalType\":\"uint32\",\"name\":\"minGas\",\"type\":\"uint32\"},{\"internalType\":\"address\",\"name\":\"remoteToken\",\"type\":\"address\"},{\"internalType\":\"uint256\",\"name\":\"minBridgeAmount\",\"type\":\"uint256\"}]}]},{\"internalType\":\"bytes32\",\"name\":\"salt\",\"type\":\"bytes32\"}],\"indexed\":false},{\"internalType\":\"address\",\"name\":\"caller\",\"type\":\"address\",\"indexed\":false}],\"type\":\"event\",\"name\":\"DeploySuckers\",\"anonymous\":false},{\"inputs\":[{\"internalType\":\"uint256\",\"name\":\"revnetId\",\"type\":\"uint256\",\"indexed\":true},{\"internalType\":\"address\",\"name\":\"newSplitOperator\",\"type\":\"address\",\"indexed\":true},{\"internalType\":\"address\",\"name\":\"caller\",\"type\":\"address\",\"indexed\":false}],\"type\":\"event\",\"name\":\"ReplaceSplitOperator\",\"anonymous\":false},{\"inputs\":[],\"stateMutability\":\"view\",\"type\":\"function\",\"name\":\"CONTROLLER\",\"outputs\":[{\"internalType\":\"contract IJBController\",\"name\":\"\",\"type\":\"address\"}]},{\"inputs\":[],\"stateMutability\":\"view\",\"type\":\"function\",\"name\":\"EXIT_DELAY\",\"outputs\":[{\"internalType\":\"uint256\",\"name\":\"\",\"type\":\"uint256\"}]},{\"inputs\":[],\"stateMutability\":\"view\",\"type\":\"function\",\"name\":\"SUCKER_REGISTRY\",\"outputs\":[{\"internalType\":\"contract IBPSuckerRegistry\",\"name\":\"\",\"type\":\"address\"}]},{\"inputs\":[{\"internalType\":\"struct JBBeforePayRecordedContext\",\"name\":\"context\",\"type\":\"tuple\",\"components\":[{\"internalType\":\"address\",\"name\":\"terminal\",\"type\":\"address\"},{\"internalType\":\"address\",\"name\":\"payer\",\"type\":\"address\"},{\"internalType\":\"struct JBTokenAmount\",\"name\":\"amount\",\"type\":\"tuple\",\"components\":[{\"internalType\":\"address\",\"name\":\"token\",\"type\":\"address\"},{\"internalType\":\"uint256\",\"name\":\"value\",\"type\":\"uint256\"},{\"internalType\":\"uint256\",\"name\":\"decimals\",\"type\":\"uint256\"},{\"internalType\":\"uint256\",\"name\":\"currency\",\"type\":\"uint256\"}]},{\"internalType\":\"uint256\",\"name\":\"projectId\",\"type\":\"uint256\"},{\"internalType\":\"uint256\",\"name\":\"rulesetId\",\"type\":\"uint256\"},{\"internalType\":\"address\",\"name\":\"beneficiary\",\"type\":\"address\"},{\"internalType\":\"uint256\",\"name\":\"weight\",\"type\":\"uint256\"},{\"internalType\":\"uint256\",\"name\":\"reservedRate\",\"type\":\"uint256\"},{\"internalType\":\"bytes\",\"name\":\"metadata\",\"type\":\"bytes\"}]}],\"stateMutability\":\"view\",\"type\":\"function\",\"name\":\"beforePayRecordedWith\",\"outputs\":[{\"internalType\":\"uint256\",\"name\":\"weight\",\"type\":\"uint256\"},{\"internalType\":\"struct JBPayHookSpecification[]\",\"name\":\"hookSpecifications\",\"type\":\"tuple[]\",\"components\":[{\"internalType\":\"contract IJBPayHook\",\"name\":\"hook\",\"type\":\"address\"},{\"internalType\":\"uint256\",\"name\":\"amount\",\"type\":\"uint256\"},{\"internalType\":\"bytes\",\"name\":\"metadata\",\"type\":\"bytes\"}]}]},{\"inputs\":[{\"internalType\":\"struct JBBeforeRedeemRecordedContext\",\"name\":\"context\",\"type\":\"tuple\",\"components\":[{\"internalType\":\"address\",\"name\":\"terminal\",\"type\":\"address\"},{\"internalType\":\"address\",\"name\":\"holder\",\"type\":\"address\"},{\"internalType\":\"uint256\",\"name\":\"projectId\",\"type\":\"uint256\"},{\"internalType\":\"uint256\",\"name\":\"rulesetId\",\"type\":\"uint256\"},{\"internalType\":\"uint256\",\"name\":\"redeemCount\",\"type\":\"uint256\"},{\"internalType\":\"uint256\",\"name\":\"totalSupply\",\"type\":\"uint256\"},{\"internalType\":\"struct JBTokenAmount\",\"name\":\"surplus\",\"type\":\"tuple\",\"components\":[{\"internalType\":\"address\",\"name\":\"token\",\"type\":\"address\"},{\"internalType\":\"uint256\",\"name\":\"value\",\"type\":\"uint256\"},{\"internalType\":\"uint256\",\"name\":\"decimals\",\"type\":\"uint256\"},{\"internalType\":\"uint256\",\"name\":\"currency\",\"type\":\"uint256\"}]},{\"internalType\":\"bool\",\"name\":\"useTotalSurplus\",\"type\":\"bool\"},{\"internalType\":\"uint256\",\"name\":\"redemptionRate\",\"type\":\"uint256\"},{\"internalType\":\"bytes\",\"name\":\"metadata\",\"type\":\"bytes\"}]}],\"stateMutability\":\"view\",\"type\":\"function\",\"name\":\"beforeRedeemRecordedWith\",\"outputs\":[{\"internalType\":\"uint256\",\"name\":\"\",\"type\":\"uint256\"},{\"internalType\":\"uint256\",\"name\":\"\",\"type\":\"uint256\"},{\"internalType\":\"uint256\",\"name\":\"\",\"type\":\"uint256\"},{\"internalType\":\"struct JBRedeemHookSpecification[]\",\"name\":\"specifications\",\"type\":\"tuple[]\",\"components\":[{\"internalType\":\"contract IJBRedeemHook\",\"name\":\"hook\",\"type\":\"address\"},{\"internalType\":\"uint256\",\"name\":\"amount\",\"type\":\"uint256\"},{\"internalType\":\"bytes\",\"name\":\"metadata\",\"type\":\"bytes\"}]}]},{\"inputs\":[{\"internalType\":\"uint256\",\"name\":\"revnetId\",\"type\":\"uint256\"}],\"stateMutability\":\"view\",\"type\":\"function\",\"name\":\"buybackHookOf\",\"outputs\":[{\"internalType\":\"contract IJBRulesetDataHook\",\"name\":\"buybackHook\",\"type\":\"address\"}]},{\"inputs\":[{\"internalType\":\"uint256\",\"name\":\"revnetId\",\"type\":\"uint256\"},{\"internalType\":\"bytes\",\"name\":\"encodedConfiguration\",\"type\":\"bytes\"},{\"internalType\":\"struct REVSuckerDeploymentConfig\",\"name\":\"suckerDeploymentConfiguration\",\"type\":\"tuple\",\"components\":[{\"internalType\":\"struct BPSuckerDeployerConfig[]\",\"name\":\"deployerConfigurations\",\"type\":\"tuple[]\",\"components\":[{\"internalType\":\"contract IBPSuckerDeployer\",\"name\":\"deployer\",\"type\":\"address\"},{\"internalType\":\"struct BPTokenMapping[]\",\"name\":\"mappings\",\"type\":\"tuple[]\",\"components\":[{\"internalType\":\"address\",\"name\":\"localToken\",\"type\":\"address\"},{\"internalType\":\"uint32\",\"name\":\"minGas\",\"type\":\"uint32\"},{\"internalType\":\"address\",\"name\":\"remoteToken\",\"type\":\"address\"},{\"internalType\":\"uint256\",\"name\":\"minBridgeAmount\",\"type\":\"uint256\"}]}]},{\"internalType\":\"bytes32\",\"name\":\"salt\",\"type\":\"bytes32\"}]}],\"stateMutability\":\"nonpayable\",\"type\":\"function\",\"name\":\"deploySuckersFor\"},{\"inputs\":[{\"internalType\":\"uint256\",\"name\":\"revnetId\",\"type\":\"uint256\"}],\"stateMutability\":\"view\",\"type\":\"function\",\"name\":\"exitDelayOf\",\"outputs\":[{\"internalType\":\"uint256\",\"name\":\"exitDelay\",\"type\":\"uint256\"}]},{\"inputs\":[{\"internalType\":\"uint256\",\"name\":\"revnetId\",\"type\":\"uint256\"},{\"internalType\":\"address\",\"name\":\"addr\",\"type\":\"address\"}],\"stateMutability\":\"view\",\"type\":\"function\",\"name\":\"hasMintPermissionFor\",\"outputs\":[{\"internalType\":\"bool\",\"name\":\"\",\"type\":\"bool\"}]},{\"inputs\":[{\"internalType\":\"address\",\"name\":\"forwarder\",\"type\":\"address\"}],\"stateMutability\":\"view\",\"type\":\"function\",\"name\":\"isTrustedForwarder\",\"outputs\":[{\"internalType\":\"bool\",\"name\":\"\",\"type\":\"bool\"}]},{\"inputs\":[{\"internalType\":\"uint256\",\"name\":\"revnetId\",\"type\":\"uint256\"},{\"internalType\":\"struct REVConfig\",\"name\":\"configuration\",\"type\":\"tuple\",\"components\":[{\"internalType\":\"struct REVDescription\",\"name\":\"description\",\"type\":\"tuple\",\"components\":[{\"internalType\":\"string\",\"name\":\"name\",\"type\":\"string\"},{\"internalType\":\"string\",\"name\":\"ticker\",\"type\":\"string\"},{\"internalType\":\"string\",\"name\":\"uri\",\"type\":\"string\"},{\"internalType\":\"bytes32\",\"name\":\"salt\",\"type\":\"bytes32\"}]},{\"internalType\":\"uint32\",\"name\":\"baseCurrency\",\"type\":\"uint32\"},{\"internalType\":\"uint256\",\"name\":\"premintTokenAmount\",\"type\":\"uint256\"},{\"internalType\":\"uint256\",\"name\":\"premintChainId\",\"type\":\"uint256\"},{\"internalType\":\"address\",\"name\":\"initialSplitOperator\",\"type\":\"address\"},{\"internalType\":\"struct REVStageConfig[]\",\"name\":\"stageConfigurations\",\"type\":\"tuple[]\",\"components\":[{\"internalType\":\"uint40\",\"name\":\"startsAtOrAfter\",\"type\":\"uint40\"},{\"internalType\":\"uint16\",\"name\":\"splitRate\",\"type\":\"uint16\"},{\"internalType\":\"uint112\",\"name\":\"initialIssuanceRate\",\"type\":\"uint112\"},{\"internalType\":\"uint40\",\"name\":\"priceCeilingIncreaseFrequency\",\"type\":\"uint40\"},{\"internalType\":\"uint32\",\"name\":\"priceCeilingIncreasePercentage\",\"type\":\"uint32\"},{\"internalType\":\"uint16\",\"name\":\"priceFloorTaxIntensity\",\"type\":\"uint16\"}]}]},{\"internalType\":\"struct JBTerminalConfig[]\",\"name\":\"terminalConfigurations\",\"type\":\"tuple[]\",\"components\":[{\"internalType\":\"contract IJBTerminal\",\"name\":\"terminal\",\"type\":\"address\"},{\"internalType\":\"address[]\",\"name\":\"tokensToAccept\",\"type\":\"address[]\"}]},{\"internalType\":\"struct REVBuybackHookConfig\",\"name\":\"buybackHookConfiguration\",\"type\":\"tuple\",\"components\":[{\"internalType\":\"contract IJBBuybackHook\",\"name\":\"hook\",\"type\":\"address\"},{\"internalType\":\"struct REVBuybackPoolConfig[]\",\"name\":\"poolConfigurations\",\"type\":\"tuple[]\",\"components\":[{\"internalType\":\"address\",\"name\":\"token\",\"type\":\"address\"},{\"internalType\":\"uint24\",\"name\":\"fee\",\"type\":\"uint24\"},{\"internalType\":\"uint32\",\"name\":\"twapWindow\",\"type\":\"uint32\"},{\"internalType\":\"uint32\",\"name\":\"twapSlippageTolerance\",\"type\":\"uint32\"}]}]},{\"internalType\":\"struct REVSuckerDeploymentConfig\",\"name\":\"suckerDeploymentConfiguration\",\"type\":\"tuple\",\"components\":[{\"internalType\":\"struct BPSuckerDeployerConfig[]\",\"name\":\"deployerConfigurations\",\"type\":\"tuple[]\",\"components\":[{\"internalType\":\"contract IBPSuckerDeployer\",\"name\":\"deployer\",\"type\":\"address\"},{\"internalType\":\"struct BPTokenMapping[]\",\"name\":\"mappings\",\"type\":\"tuple[]\",\"components\":[{\"internalType\":\"address\",\"name\":\"localToken\",\"type\":\"address\"},{\"internalType\":\"uint32\",\"name\":\"minGas\",\"type\":\"uint32\"},{\"internalType\":\"address\",\"name\":\"remoteToken\",\"type\":\"address\"},{\"internalType\":\"uint256\",\"name\":\"minBridgeAmount\",\"type\":\"uint256\"}]}]},{\"internalType\":\"bytes32\",\"name\":\"salt\",\"type\":\"bytes32\"}]}],\"stateMutability\":\"nonpayable\",\"type\":\"function\",\"name\":\"launchRevnetFor\",\"outputs\":[{\"internalType\":\"uint256\",\"name\":\"\",\"type\":\"uint256\"}]},{\"inputs\":[{\"internalType\":\"address\",\"name\":\"operator\",\"type\":\"address\"},{\"internalType\":\"address\",\"name\":\"\",\"type\":\"address\"},{\"internalType\":\"uint256\",\"name\":\"tokenId\",\"type\":\"uint256\"},{\"internalType\":\"bytes\",\"name\":\"data\",\"type\":\"bytes\"}],\"stateMutability\":\"view\",\"type\":\"function\",\"name\":\"onERC721Received\",\"outputs\":[{\"internalType\":\"bytes4\",\"name\":\"\",\"type\":\"bytes4\"}]},{\"inputs\":[{\"internalType\":\"uint256\",\"name\":\"revnetId\",\"type\":\"uint256\"}],\"stateMutability\":\"view\",\"type\":\"function\",\"name\":\"payHookSpecificationsOf\",\"outputs\":[{\"internalType\":\"struct JBPayHookSpecification[]\",\"name\":\"\",\"type\":\"tuple[]\",\"components\":[{\"internalType\":\"contract IJBPayHook\",\"name\":\"hook\",\"type\":\"address\"},{\"internalType\":\"uint256\",\"name\":\"amount\",\"type\":\"uint256\"},{\"internalType\":\"bytes\",\"name\":\"metadata\",\"type\":\"bytes\"}]}]},{\"inputs\":[{\"internalType\":\"uint256\",\"name\":\"revnetId\",\"type\":\"uint256\"},{\"internalType\":\"address\",\"name\":\"newSplitOperator\",\"type\":\"address\"}],\"stateMutability\":\"nonpayable\",\"type\":\"function\",\"name\":\"replaceSplitOperatorOf\"},{\"inputs\":[{\"internalType\":\"bytes4\",\"name\":\"interfaceId\",\"type\":\"bytes4\"}],\"stateMutability\":\"view\",\"type\":\"function\",\"name\":\"supportsInterface\",\"outputs\":[{\"internalType\":\"bool\",\"name\":\"\",\"type\":\"bool\"}]},{\"inputs\":[],\"stateMutability\":\"view\",\"type\":\"function\",\"name\":\"trustedForwarder\",\"outputs\":[{\"internalType\":\"address\",\"name\":\"\",\"type\":\"address\"}]}],\"devdoc\":{\"kind\":\"dev\",\"methods\":{\"beforePayRecordedWith((address,address,(address,uint256,uint256,uint256),uint256,uint256,address,uint256,uint256,bytes))\":{\"details\":\"Part of IJBFundingCycleDataSource.This implementation just sets this contract up to receive a `didPay` call.\",\"params\":{\"context\":\"The Juicebox standard network payment context. See\"},\"returns\":{\"hookSpecifications\":\"Amount to be sent to pay hooks instead of adding to local balance. Useful for auto-routing funds from a treasury as payment come in.\",\"weight\":\"The weight that network tokens should get minted relative to. This is useful for optionally customizing how many tokens are issued per payment.\"}},\"constructor\":{\"params\":{\"controller\":\"The controller that revnets are made from.\",\"suckerRegistry\":\"The registry that deploys and tracks each project's suckers.\",\"trustedForwarder\":\"The trusted forwarder for the ERC2771Context.\"}},\"deploySuckersFor(uint256,bytes,((address,(address,uint32,address,uint256)[])[],bytes32))\":{\"params\":{\"encodedConfiguration\":\"A bytes representation of the revnet's configuration.\",\"revnetId\":\"The ID of the revnet having new suckers deployed.\",\"suckerDeploymentConfiguration\":\"The specifics about the suckers being deployed.\"}},\"hasMintPermissionFor(uint256,address)\":{\"params\":{\"addr\":\"The address to check if has permissions.\",\"revnetId\":\"The ID of the revnet to check permissions for.\"},\"returns\":{\"_0\":\"flag The flag indicating if the address has permissions to mint on the revnet's behalf.\"}},\"isTrustedForwarder(address)\":{\"details\":\"Indicates whether any particular address is the trusted forwarder.\"},\"launchRevnetFor(uint256,((string,string,string,bytes32),uint32,uint256,uint256,address,(uint40,uint16,uint112,uint40,uint32,uint16)[]),(address,address[])[],(address,(address,uint24,uint32,uint32)[]),((address,(address,uint32,address,uint256)[])[],bytes32))\":{\"params\":{\"buybackHookConfiguration\":\"Data used for setting up the buyback hook to use when determining the best price for new participants.\",\"configuration\":\"The data needed to deploy a basic revnet.\",\"revnetId\":\"The ID of the Juicebox project to turn into a revnet. Send 0 to deploy a new revnet.\",\"suckerDeploymentConfiguration\":\"Information about how this revnet relates to other's across chains.\",\"terminalConfigurations\":\"The terminals that the network uses to accept payments through.\"},\"returns\":{\"_0\":\"revnetId The ID of the newly created revnet.\"}},\"onERC721Received(address,address,uint256,bytes)\":{\"details\":\"Make sure only mints can be received.\"},\"payHookSpecificationsOf(uint256)\":{\"params\":{\"revnetId\":\"The ID of the revnet to which the extensions apply.\"},\"returns\":{\"_0\":\"payHookSpecifications The pay hooks.\"}},\"replaceSplitOperatorOf(uint256,address)\":{\"params\":{\"newSplitOperator\":\"The address of the new split operator.\",\"revnetId\":\"The ID of the revnet having its operator replaced.\"}},\"supportsInterface(bytes4)\":{\"details\":\"See {IERC165-supportsInterface}.\",\"params\":{\"interfaceId\":\"The ID of the interface to check for adherence to.\"},\"returns\":{\"_0\":\"A flag indicating if the provided interface ID is supported.\"}},\"trustedForwarder()\":{\"details\":\"Returns the address of the trusted forwarder.\"}},\"version\":1},\"userdoc\":{\"kind\":\"user\",\"methods\":{\"CONTROLLER()\":{\"notice\":\"The controller that networks are made from.\"},\"EXIT_DELAY()\":{\"notice\":\"The amount of time from a sucker being deployed to when it can facilitate exits.\"},\"SUCKER_REGISTRY()\":{\"notice\":\"The registry that deploys and tracks each project's suckers.\"},\"beforePayRecordedWith((address,address,(address,uint256,uint256,uint256),uint256,uint256,address,uint256,uint256,bytes))\":{\"notice\":\"This function gets called when the revnet receives a payment.\"},\"beforeRedeemRecordedWith((address,address,uint256,uint256,uint256,uint256,(address,uint256,uint256,uint256),bool,uint256,bytes))\":{\"notice\":\"This function is never called, it needs to be included to adhere to the interface.\"},\"buybackHookOf(uint256)\":{\"notice\":\"The data hook that returns the correct values for the buyback hook of each network.\"},\"deploySuckersFor(uint256,bytes,((address,(address,uint32,address,uint256)[])[],bytes32))\":{\"notice\":\"Allows a revnet's split operator to deploy new suckers to the revnet after it's deployed.\"},\"exitDelayOf(uint256)\":{\"notice\":\"The time at which exits from a revnet become allowed.\"},\"hasMintPermissionFor(uint256,address)\":{\"notice\":\"Required by the IJBRulesetDataHook interfaces.\"},\"launchRevnetFor(uint256,((string,string,string,bytes32),uint32,uint256,uint256,address,(uint40,uint16,uint112,uint40,uint32,uint16)[]),(address,address[])[],(address,(address,uint24,uint32,uint32)[]),((address,(address,uint32,address,uint256)[])[],bytes32))\":{\"notice\":\"Launch a basic revnet.\"},\"payHookSpecificationsOf(uint256)\":{\"notice\":\"The pay hooks to include during payments to networks.\"},\"replaceSplitOperatorOf(uint256,address)\":{\"notice\":\"A revnet's operator can replace itself.\"},\"supportsInterface(bytes4)\":{\"notice\":\"Indicates if this contract adheres to the specified interface.\"}},\"version\":1}},\"settings\":{\"remappings\":[\"@arbitrum/=node_modules/@arbitrum/\",\"@bananapus/=node_modules/@bananapus/\",\"@chainlink/=node_modules/@chainlink/\",\"@croptop/=node_modules/@croptop/\",\"@eth-optimism/=node_modules/@eth-optimism/\",\"@exhausted-pigeon/=node_modules/@exhausted-pigeon/\",\"@gnosis.pm/=node_modules/@gnosis.pm/\",\"@offchainlabs/=node_modules/@offchainlabs/\",\"@openzeppelin/=node_modules/@openzeppelin/\",\"@prb/=node_modules/@prb/\",\"@scroll-tech/=node_modules/@scroll-tech/\",\"@sphinx-labs/contracts/=node_modules/@sphinx-labs/contracts/contracts/foundry/\",\"@uniswap/=node_modules/@uniswap/\",\"base64-sol/=node_modules/base64-sol/\",\"ds-test/=lib/forge-std/lib/ds-test/src/\",\"forge-std/=lib/forge-std/src/\",\"hardhat/=node_modules/hardhat/\",\"solmate/=node_modules/solmate/\",\"sphinx-forge-std/=node_modules/sphinx-forge-std/\",\"sphinx-solmate/=node_modules/sphinx-solmate/\",\"sphinx/=lib/sphinx/packages/contracts/contracts/forge-std/src/\"],\"optimizer\":{\"enabled\":true,\"runs\":1000},\"metadata\":{\"bytecodeHash\":\"ipfs\"},\"compilationTarget\":{\"src/REVBasicDeployer.sol\":\"REVBasicDeployer\"},\"evmVersion\":\"paris\",\"libraries\":{}},\"sources\":{\"node_modules/@bananapus/buyback-hook/src/interfaces/IJBBuybackHook.sol\":{\"keccak256\":\"0xbe5d7f3bf2e18b569676ba9194e248e6b1ed50022f5247b4f1fa124c91bfd418\",\"urls\":[\"bzz-raw://eb221d1570e8aad409c419b6a2f84351e818c3527f3f44b806cd64c84d7a8c86\",\"dweb:/ipfs/QmUPZstaKjPN7VTywg3Mt6bF75E53mQbmXhf3TxCggJbRR\"],\"license\":\"MIT\"},\"node_modules/@bananapus/buyback-hook/src/interfaces/external/IWETH9.sol\":{\"keccak256\":\"0x50083bcaca6c1a8d12c79116fab4f6d8cd452a510cb3f00c4a8bc3a54678efb7\",\"urls\":[\"bzz-raw://726f187112d0953c14bff8099a8c9ce1ead47eb25e90839f77b100feaaf16127\",\"dweb:/ipfs/QmTEnMENpLjcTQLMwz4kEUiQHfiTkaZT3TL37nQ8JiRYh5\"],\"license\":\"GPL-2.0-or-later\"},\"node_modules/@bananapus/core/src/enums/JBApprovalStatus.sol\":{\"keccak256\":\"0x61c69b6bac7d24b566d87cda23a77e4ca9cdb87200b106aba8534cb9a0973e33\",\"urls\":[\"bzz-raw://6a9ca7249de76f77a8252eefe6bd1b63d47952f25a2acfa2c8db967cdff4470c\",\"dweb:/ipfs/QmaxSxptRQNj8bNy96EreENmrnRWdKmhyihBcxyWzBX5BN\"],\"license\":\"MIT\"},\"node_modules/@bananapus/core/src/interfaces/IJBController.sol\":{\"keccak256\":\"0xe0b84058192f89e461c4b604388aa11a2f92f0f9969fb70fb3c18706d6f3e16b\",\"urls\":[\"bzz-raw://984fdcff63a17ccab65ff7723a628967e40965fcb4d47909cf8e314e8f044576\",\"dweb:/ipfs/QmaaHZWuaaH3oYxCDrip1rr4u4H1XtR3RcwwKAE73GAqkd\"],\"license\":\"MIT\"},\"node_modules/@bananapus/core/src/interfaces/IJBDirectory.sol\":{\"keccak256\":\"0x9cc380844aef60078ee47a61861e55a29c4a8c947efd556ebd36e6909f7b9d62\",\"urls\":[\"bzz-raw://9f5190ec8b6683d9781ee6e9eedcc91294753242748875d4a06349077e4cbaaf\",\"dweb:/ipfs/QmTQrPuXT9TCA4txwrperMeXSGvGxP8iokUK47f62F388i\"],\"license\":\"MIT\"},\"node_modules/@bananapus/core/src/interfaces/IJBDirectoryAccessControl.sol\":{\"keccak256\":\"0x1e67f56849320a46f834aaa9bd62b170ff8ada7b224b4a81136193740fa0be4d\",\"urls\":[\"bzz-raw://ea8fbcec44abfe49d137bcae129b67e5479d6b17879301f88534c8a7fab00be4\",\"dweb:/ipfs/QmT6wrtYX4GRpffHUzupNwYebJ1dqkkKZLEewWsoyunsqw\"],\"license\":\"MIT\"},\"node_modules/@bananapus/core/src/interfaces/IJBFundAccessLimits.sol\":{\"keccak256\":\"0xf5fd6bdd723b60d490ccbe22cdf1cfe43663d23e6ee48badcd1b71e3282cb16b\",\"urls\":[\"bzz-raw://fe692f0b843ea5fccdfcb68f4ec16e1c0add945bb74b303c9866342be0e31fbf\",\"dweb:/ipfs/QmSRmzpgp3DhNEhNDiLsSu7yEiTeywbzEFbwyGyDazjgKt\"],\"license\":\"MIT\"},\"node_modules/@bananapus/core/src/interfaces/IJBMigratable.sol\":{\"keccak256\":\"0xd69bd5aba01a68d82c303ef3adde47532abcace030a94296c3ea6988b401789c\",\"urls\":[\"bzz-raw://88f11a1c89899327746beba4fc830abf3ac2eb9c152c778e884a6eed6564971f\",\"dweb:/ipfs/QmTpKhSTVewpz7VyKcz6BJwH2LFKMwT7Qi5HNWmjEjwsdK\"],\"license\":\"MIT\"},\"node_modules/@bananapus/core/src/interfaces/IJBPayHook.sol\":{\"keccak256\":\"0x9438866782c652c2942f4d114e35f393cd3c8b0334abce8387eed90bca35e8b2\",\"urls\":[\"bzz-raw://cfd99daf57213f92325aad7d7d16e98476d38e870470e95ba01e3ae3cdecc95d\",\"dweb:/ipfs/QmUKKAVGf7ki8BHksr99tFcRW8APveeB5tNH63ctTbbCW8\"],\"license\":\"MIT\"},\"node_modules/@bananapus/core/src/interfaces/IJBPermissioned.sol\":{\"keccak256\":\"0x5b038d4dee116584e88b230920e56d48e135053e3f7e5642eaea14a775c1dad7\",\"urls\":[\"bzz-raw://19e43102f349fd4a1da1c0943ffb8f2950007fe4bb4bb7e8f74fc142575d091b\",\"dweb:/ipfs/QmXHAt4KzDTdDZgDDefEXH2WKi7NcfkJb9R7nxW5uDqsNp\"],\"license\":\"MIT\"},\"node_modules/@bananapus/core/src/interfaces/IJBPermissions.sol\":{\"keccak256\":\"0x18870e500edf0fbadc353e273a5574701fb80466376b908c65e7cc3f11044d4d\",\"urls\":[\"bzz-raw://352a47c45853aec80e7acf0d286ade3106eb4cb456776b28a3c2f3f1091bed90\",\"dweb:/ipfs/QmQeYd3YbudYZy2hfbfht9kwhxhw4tuuLKMEYy9UY6dcSy\"],\"license\":\"MIT\"},\"node_modules/@bananapus/core/src/interfaces/IJBProjectUriRegistry.sol\":{\"keccak256\":\"0x2799475228987e4f8334ac33d3935f759c9b8133db7383b4f622dde7a5dc0502\",\"urls\":[\"bzz-raw://d751731740f45df74eea48c9667e847ee2cddb2980ab4939c86bd17e6c6ed89b\",\"dweb:/ipfs/QmXW8SLTuhdUpfn7pRpdsYdcyuim8RTyagU37ULcj5UZhT\"],\"license\":\"MIT\"},\"node_modules/@bananapus/core/src/interfaces/IJBProjects.sol\":{\"keccak256\":\"0x735c2fb8f1fa827f054ee77f7a0ae4b312656217acb75b624d2c8fd9dc40151b\",\"urls\":[\"bzz-raw://ee7fc92299a8633a80693ae63ab494dcd125f1789487a54a39dc0e5696e5996f\",\"dweb:/ipfs/QmX7YJD4pS2XhgQb7p3JbBAXynT7YGPXcZe92BiWWRrsCL\"],\"license\":\"MIT\"},\"node_modules/@bananapus/core/src/interfaces/IJBRedeemHook.sol\":{\"keccak256\":\"0x8ab46fcd7d0e739661eb76056ad93ff99106f38420ef0b4eb97fa9f4bb71a68a\",\"urls\":[\"bzz-raw://0ef96fcb7ad26281d444d8e0c677b25114fdd63b1c172d477e030dce8ba53b62\",\"dweb:/ipfs/Qmcx1jRQuwU4pZFuLxsSsx4oMbRaDfktHrPnXextgbWc5m\"],\"license\":\"MIT\"},\"node_modules/@bananapus/core/src/interfaces/IJBRulesetApprovalHook.sol\":{\"keccak256\":\"0x592e95d159494421c6b1bcb362d0cee1df0132921697351304e9cd7af4fbd386\",\"urls\":[\"bzz-raw://5bebfd5fa67c1b6ea16fa2e76e9520e9dfe52a579f48dd94d0c2ec45f78ad178\",\"dweb:/ipfs/QmRUawEGtfYoYSHmHELGhvJoWuMsxLPKtqAXgsrb7fJboP\"],\"license\":\"MIT\"},\"node_modules/@bananapus/core/src/interfaces/IJBRulesetDataHook.sol\":{\"keccak256\":\"0x13b4b9f4b847f62442da1c1a59b399f8f201b31a28edb96aa5a8a78ad57c24d0\",\"urls\":[\"bzz-raw://4fcd00b77d0f40cf6d5ee6590b6ef4ee1f606e89ae4c4faed3710fb462108f8e\",\"dweb:/ipfs/QmeoE54DQ3eGw9EDXfN7aTMmEjubAtirahmytDijo6GSeE\"],\"license\":\"MIT\"},\"node_modules/@bananapus/core/src/interfaces/IJBRulesets.sol\":{\"keccak256\":\"0xd3f817d22ecbe24da63c552c069bf0c4fbbf3bcd5c3b5633002afd24aacf6882\",\"urls\":[\"bzz-raw://c1185aec0f6b6f0f4d93ffeeed0972ccf38420b00fe570b5e1838ed2b1f5db49\",\"dweb:/ipfs/QmWz36azGTFnjFXpFSh6BHt4nactgjtF64L3PeTqs4ZqSR\"],\"license\":\"MIT\"},\"node_modules/@bananapus/core/src/interfaces/IJBSplitHook.sol\":{\"keccak256\":\"0xeb8dfac7a4b81897a1c3b5d0d853a406bcff33720fb187d5ca5bb3dcc0ba3a12\",\"urls\":[\"bzz-raw://36aaeef6107cfe5b0127e063ea215aac7200f8af02e28a48e61111abd3254688\",\"dweb:/ipfs/QmQ8yQANXnhQCAWBGKsKCDsJ3A8hnTKNg5tyo79GfWXTcV\"],\"license\":\"MIT\"},\"node_modules/@bananapus/core/src/interfaces/IJBSplits.sol\":{\"keccak256\":\"0x92deeb9e22ce2aaafc608b85e9250b8ea2deed1ebf64b7442038b157b2bfe0e6\",\"urls\":[\"bzz-raw://08bf29f0c13c2e8be46065277f67e44ecaea960cb5474f13775eece0672566c2\",\"dweb:/ipfs/QmeGu9C6tuBjfmeizmpzptxgGmch6Mbtm34NFwZxzMvqc4\"],\"license\":\"MIT\"},\"node_modules/@bananapus/core/src/interfaces/IJBTerminal.sol\":{\"keccak256\":\"0x19dc9bf8cbdc8f13ee5da9dc3a87047eacb94a3fc19740a286c1f0bad2cc39ca\",\"urls\":[\"bzz-raw://0b05ae6fda9a85672508232fd992b8a5f5ffd8096622eeb12c8a7b3317eb3867\",\"dweb:/ipfs/QmNh9Quj37BXYGdTdcCD1Q58PchRsE5TLbEZep56qS3MpV\"],\"license\":\"MIT\"},\"node_modules/@bananapus/core/src/interfaces/IJBToken.sol\":{\"keccak256\":\"0x71b1f9c3a0edd41910f77396e0be2c65596571176d53eb87e887c3c0da56c0fb\",\"urls\":[\"bzz-raw://6e956f0582f4525e83d845ee9b4a89959abc4f821414f6accbbee5b38960482d\",\"dweb:/ipfs/QmbSvjgmCgnfVmcCTGu8XwrV1Rufsf3M8hB8unFq6fTMdH\"],\"license\":\"MIT\"},\"node_modules/@bananapus/core/src/interfaces/IJBTokenUriResolver.sol\":{\"keccak256\":\"0xfa5cb00dcd6085d1ef912d071fe73c63f9478a2cd0f9d8bddaf659b6af2d0967\",\"urls\":[\"bzz-raw://282e4e7c342d65f77cde0e9a08fcaf20ef5cf379c7a48b639842c0ffd0b2afb8\",\"dweb:/ipfs/QmbnN3PEQeZaXdPLT75V1J79kMg7KqSMru37RHrL3z8Yf2\"],\"license\":\"MIT\"},\"node_modules/@bananapus/core/src/interfaces/IJBTokens.sol\":{\"keccak256\":\"0x6fd67af915dd541d9547c8297aa9ae269690e4ee23531db43f021bcacec6076f\",\"urls\":[\"bzz-raw://2e5e11954e9ab2319fffccb6563f3db400b8f7760d4ffe2165048a02c9c37fa6\",\"dweb:/ipfs/QmbDXtV83dK8EfiTjsTRf55R2XqPZzDKcjtYbW8sxQ5CFm\"],\"license\":\"MIT\"},\"node_modules/@bananapus/core/src/libraries/JBConstants.sol\":{\"keccak256\":\"0x9d3a9a953f859d8ec79a599577f8972de6da7199cc1bfa7fdad017d4d722bcb4\",\"urls\":[\"bzz-raw://f151fcb53a8d2684eff8b9e56ac790bcbcadd8199a4fd4d17c5b224b22936722\",\"dweb:/ipfs/QmdAz1ZtCE8nTiC4AxQNLfJhnY3ndGum2Lbef7seKdvTdR\"],\"license\":\"MIT\"},\"node_modules/@bananapus/core/src/libraries/JBSplitGroupIds.sol\":{\"keccak256\":\"0x932ca2645d443f04f86c8ffb27b5c58c4fbdc7b5a145fba1d43f1db9bd488a0f\",\"urls\":[\"bzz-raw://fa412d2c5726a868a258cd518648726b0784ab7ac7566376b82ba09680f66227\",\"dweb:/ipfs/QmZvfjBt7PQzTWNzrhysyHBegUbbu4aY2xDzBGnwqMaqnF\"],\"license\":\"MIT\"},\"node_modules/@bananapus/core/src/structs/JBAccountingContext.sol\":{\"keccak256\":\"0x2907ff54d1e903cc7e0390dd88c3975884702dc2673642aacbe22b66560b56de\",\"urls\":[\"bzz-raw://a66a5381ce877b32f0e0058ceeaf843e9b6b2bc8af666c0c9f4a9d01091da004\",\"dweb:/ipfs/QmQynCetUr37dBkS1YwDS8evxuXGiqanW6THmeUxXtim8w\"],\"license\":\"MIT\"},\"node_modules/@bananapus/core/src/structs/JBAfterPayRecordedContext.sol\":{\"keccak256\":\"0xd26c3a774ff38be79064085970454fe2603a23a638c76270d5b1b3829206c3e8\",\"urls\":[\"bzz-raw://3b55dbe3bf1ef625b7ca04efab3de35406e6041d5b3d82c7265469c500e2b702\",\"dweb:/ipfs/QmUdBDo4Lt3mcsFcsXT2mqq3czFwZjQJFPLM89YA2VtD7k\"],\"license\":\"MIT\"},\"node_modules/@bananapus/core/src/structs/JBAfterRedeemRecordedContext.sol\":{\"keccak256\":\"0x521f5d23a36f0da72362cd84890cc867bd83baa8dc836ba6c5066d51dba2f163\",\"urls\":[\"bzz-raw://6cc461313286dde62d045d6288e87bae5032e035796326f5b1ed6218e58aa9da\",\"dweb:/ipfs/QmQS2AkQwf2ANQieDuaUnpJEdXChoLv4CCbZqHkfywYPSR\"],\"license\":\"MIT\"},\"node_modules/@bananapus/core/src/structs/JBBeforePayRecordedContext.sol\":{\"keccak256\":\"0x5b04e814da83c7e83ff892ab07eaad6abce6f7b85a75f8da9380e9fc3470bc81\",\"urls\":[\"bzz-raw://11c889aab993fce3e3cc2dedc15fc30dd367e7fef9b7b1bfd6a6a9f248781731\",\"dweb:/ipfs/QmVVtydCD1azeWhGLxA1hthxfLyKzMHZ1eVzCz3a3R5dLy\"],\"license\":\"MIT\"},\"node_modules/@bananapus/core/src/structs/JBBeforeRedeemRecordedContext.sol\":{\"keccak256\":\"0x73eadaf6827e82f6ccbe3a1e2b2b7fc6c59cef471f73335041b30ddcc000989d\",\"urls\":[\"bzz-raw://2f3ee84662eed565dbdaed406ef836fffaf55cccd417575578152e5085d0b1f2\",\"dweb:/ipfs/QmaJGFS7hxJsiUdKvbv5BKhSwceDEzKBnt7t5YeNWvYgMK\"],\"license\":\"MIT\"},\"node_modules/@bananapus/core/src/structs/JBCurrencyAmount.sol\":{\"keccak256\":\"0x12fe4b43f4824994624d4fe0abbd88c3fe7867fd637edb65c7f456dab27e2d6e\",\"urls\":[\"bzz-raw://8003a3e8f932cf891e86b827e67c9d31b0d34c2712e18c2bc333cfe5284ba6d5\",\"dweb:/ipfs/QmSoA6RsDcSnNzk6CB7KZtALkHmeSDAi2g6fg3TDmLDkWX\"],\"license\":\"MIT\"},\"node_modules/@bananapus/core/src/structs/JBFundAccessLimitGroup.sol\":{\"keccak256\":\"0x9fdaa8d017b72da25f583700a444a86849df053f7fb8eac874ec5139bcf651e5\",\"urls\":[\"bzz-raw://c8e44c49ee444a98424a0dbeb6897a76a0bf00d88a613f62ac2012afdac754ee\",\"dweb:/ipfs/QmdYkAiRi5bXM1YYNkc7BiqimHSFodMGn1cjHR5hcpm4xH\"],\"license\":\"MIT\"},\"node_modules/@bananapus/core/src/structs/JBPayHookSpecification.sol\":{\"keccak256\":\"0x955f0bfca97300b9e5927dc181753830ee362f83fa9ca32a90daade32aa0cfd5\",\"urls\":[\"bzz-raw://f517af1597c7c40f8d3da53f7a6684a3e162950a16559d6bf6ea3b727bb11546\",\"dweb:/ipfs/QmRWo2ZTYXmVZTzNJDYhsJNsEaHphjpUfx9eNz2cciyz86\"],\"license\":\"MIT\"},\"node_modules/@bananapus/core/src/structs/JBPermissionsData.sol\":{\"keccak256\":\"0x8f0f69a6ebf5f3704e3dfcb3712fb9d3f94ae7c1ab89bf3e37bad42a3e7a0487\",\"urls\":[\"bzz-raw://57b0c5e52843e2217082889ed47b4da3943e0da4590d5768dcebfe3edad4a6b8\",\"dweb:/ipfs/QmRz48vuWLw81kUP836rh1qzqWiJFGbksgRUA9xGEDNKTY\"],\"license\":\"MIT\"},\"node_modules/@bananapus/core/src/structs/JBRedeemHookSpecification.sol\":{\"keccak256\":\"0x673d16ee1a91bf8de3b37e57284e60451b70a9c2d748c9cdc7a151f5624af18f\",\"urls\":[\"bzz-raw://ceeb5e81effa0f076c5630c756dfcf1548d09f822b255a0a6ee01e54de8c8ae2\",\"dweb:/ipfs/QmSMoMNPRhPMnuJNvWa6S59XRfycGz9o2ApNp63bUW6TdX\"],\"license\":\"MIT\"},\"node_modules/@bananapus/core/src/structs/JBRuleset.sol\":{\"keccak256\":\"0x15b2bf3174d84846a91ccbf5a344dfb125b55ed9cf50102db8d6868844225189\",\"urls\":[\"bzz-raw://647416b025dbd941094db89cbc69f755c155bd6c87be3f322394ccc4a8e0442d\",\"dweb:/ipfs/QmTCL9xcHnxQ4t5AmCPoZvXDUPW5xhzhyyXYbkMdyg44au\"],\"license\":\"MIT\"},\"node_modules/@bananapus/core/src/structs/JBRulesetConfig.sol\":{\"keccak256\":\"0x0be470df286939259a6b98bc71459e661e81d56a58226d6a574ae1484f8f8e6c\",\"urls\":[\"bzz-raw://64592c279ba7518ac180c835a539897163f299a439065f2cc8aa54086a2c9ad7\",\"dweb:/ipfs/QmaEepVvFJdXcDBMMr7SQYjZSDJXPtCca95kQY5rZbra6U\"],\"license\":\"MIT\"},\"node_modules/@bananapus/core/src/structs/JBRulesetMetadata.sol\":{\"keccak256\":\"0xfea54c9f98416d2aa05309e7ff76967d6968a614850a1e33e48fde793ea8b514\",\"urls\":[\"bzz-raw://bf55386cbab90dbc1296b2b0cbfdc217a4500d67702e4a093a4c78bd127ecd5c\",\"dweb:/ipfs/QmTRq9mZrNSXu7oCZwti4JbBFrbY6A5msRqi9RbtL49NAj\"],\"license\":\"MIT\"},\"node_modules/@bananapus/core/src/structs/JBRulesetWithMetadata.sol\":{\"keccak256\":\"0x1bcfadf20488f6df65227f8d4d0fbf9b7539456a2389567f7fe3900d23289bc3\",\"urls\":[\"bzz-raw://0a15c399a71e5373f8c0484c6d6b83521eda31e063a2c53e4c5cec4e74550343\",\"dweb:/ipfs/QmQwi8zkjoTVXbK89NeETYimWCacTrNsesJdpLSvGdqMPX\"],\"license\":\"MIT\"},\"node_modules/@bananapus/core/src/structs/JBSplit.sol\":{\"keccak256\":\"0x1d40fa4f1c911a53b9139f3d44d27cb58fa5c5d2cd793c7a21ccf52b9e61f848\",\"urls\":[\"bzz-raw://9897d2c29fc65fe16e4eac0b7b8b6fd8ef0b0cc501986f7f0c3a78c4ec1dbb60\",\"dweb:/ipfs/QmXcHoVjCYWWCz4hm2KZ6JxtB4YNq7jmXa2evLkga59Xwq\"],\"license\":\"MIT\"},\"node_modules/@bananapus/core/src/structs/JBSplitGroup.sol\":{\"keccak256\":\"0xda7da6e88aac2906c7ea4027660088daf217edc632bebca4d72795aae8921564\",\"urls\":[\"bzz-raw://ae1939d17e94cb51484f31ce64cf0df990445a338fb9b38d39a7baf28275ae4a\",\"dweb:/ipfs/QmUhPnJiWnYhFdtLvZnrPopAdbYXxETpGjvxjPDignpTGY\"],\"license\":\"MIT\"},\"node_modules/@bananapus/core/src/structs/JBSplitHookContext.sol\":{\"keccak256\":\"0xfe34e6860b00ca93d71f44e72882281b2c57c31303151af05795c74cfdd2e51d\",\"urls\":[\"bzz-raw://08acab094888e9c929b6f6f972d89ddbb31e5867675e7e7c602d25fcb2c0f402\",\"dweb:/ipfs/QmPNdXM185cTyXQSodVr4JMviHx88jrWu7dipgkp9xTNgJ\"],\"license\":\"MIT\"},\"node_modules/@bananapus/core/src/structs/JBTerminalConfig.sol\":{\"keccak256\":\"0xd162f3821a1ccafbc8d7d108369e39ac3048445a8c7fe7a3fa97a6343f9eefaa\",\"urls\":[\"bzz-raw://82172ea0407b6d9edc45e408c7e8edb8e129adf49a94349fe3a5862da9bc044e\",\"dweb:/ipfs/QmWheF5Tjq2hcabnSzfYqdFHUA1YxYEdAPZaRw9N166V1d\"],\"license\":\"MIT\"},\"node_modules/@bananapus/core/src/structs/JBTokenAmount.sol\":{\"keccak256\":\"0x5cf0626b73a596c1e2da17c89ae039a7c0374310b060d48568d3b6c11fbe6180\",\"urls\":[\"bzz-raw://63348b50be95e2995409394a17caffc563a646f0972650a1230bf864fbd3219b\",\"dweb:/ipfs/QmZXZpS3SbFD5nWaCauf6AqbEhLURv5qsKHpThBvQgDU6u\"],\"license\":\"MIT\"},\"node_modules/@bananapus/permission-ids/src/JBPermissionIds.sol\":{\"keccak256\":\"0xf61109f6b217a80d5e5391f548fb6f2e451f7dbee3fabfc04cf17e88722203bc\",\"urls\":[\"bzz-raw://ac776ab1cd621c22bd7973471acdfa187f3abc659ad9a3ef6ed10b6447dfcf9c\",\"dweb:/ipfs/QmYLbaHt68qcuMzkiKpe96jMjiWUq1F3u8yMhxmZ3pnnWu\"],\"license\":\"MIT\"},\"node_modules/@bananapus/suckers/src/interfaces/IBPSucker.sol\":{\"keccak256\":\"0xb0ce4e44f966d43f7ded2b59b98fc96a2a71522f44d06245882d2bbd89ff32d9\",\"urls\":[\"bzz-raw://290f1f3630d3749fc88f84944a2fd3a785bcb44a892844de1d0e1078829c7149\",\"dweb:/ipfs/QmcKDnSDxmkkex1Tr9t3ZU7SKNXXK2EtNowu3FZZYH9hZL\"],\"license\":\"MIT\"},\"node_modules/@bananapus/suckers/src/interfaces/IBPSuckerDeployer.sol\":{\"keccak256\":\"0xe252e890c4b5e12d5fa537a11cd2fad936f41be80240301ace8afca3de481222\",\"urls\":[\"bzz-raw://730855964dd0629f3d514ed52f59d80d02786733c3b8b5cf21e69524de7f8829\",\"dweb:/ipfs/QmUuoYEmnzUNn3hANGrg8sDZdjoaEbgWMWLepsSQt9MUyw\"],\"license\":\"MIT\"},\"node_modules/@bananapus/suckers/src/interfaces/IBPSuckerRegistry.sol\":{\"keccak256\":\"0xd6c68475ca7163782ebd2aacc2c9330def7e903c7b58d4990b0851551ec5cfe1\",\"urls\":[\"bzz-raw://776732725d15803f813cf727d5f1b0cf44b414df0611cbdbd821d4d993b184b9\",\"dweb:/ipfs/QmbgZF9KmcLZ6KAZwfuhP9ve7ukeJa2DdZxiVV6dMxzYK6\"],\"license\":\"UNLICENSED\"},\"node_modules/@bananapus/suckers/src/structs/BPSuckerDeployerConfig.sol\":{\"keccak256\":\"0x867e10bc73a07ab19cf5511d047dc885e3cfae58fc5f3441f6a5d3174afe6b78\",\"urls\":[\"bzz-raw://b8c3e72e57958bb2e2b8072ac6055804598c080a748fbc2f40a783575435809e\",\"dweb:/ipfs/QmbY7W6i5qAAj42EsQX8yt8M8nXArXByEGosnHWyxs4BE7\"],\"license\":\"MIT\"},\"node_modules/@bananapus/suckers/src/structs/BPTokenMapping.sol\":{\"keccak256\":\"0x84865bda925cdc9a608cbbfc487619acba391f98ae12bbbfdbc5779d617a17d9\",\"urls\":[\"bzz-raw://3bbc1fdd38feaf64fd4914bddb62cda7e5b8ee0f046a0eac8cfcb15f9493bcc5\",\"dweb:/ipfs/QmXgAx7sr1M8r71YrSeQJGAB1uhvdxpQyS633UgJvLCQfb\"],\"license\":\"MIT\"},\"node_modules/@openzeppelin/contracts/metatx/ERC2771Context.sol\":{\"keccak256\":\"0x98256cf37b71a69b2f5a8a6fe975ea03590dff703102bd141a830f94e8adebf6\",\"urls\":[\"bzz-raw://6251fe1f6a1e45e6d619d150c123afc88b8646b38ee26a136efa9a6988a31d3f\",\"dweb:/ipfs/QmeXDT85wSZdP31wkz3ah3KhponCiksJLP5o2LR5e1JxcK\"],\"license\":\"MIT\"},\"node_modules/@openzeppelin/contracts/token/ERC20/IERC20.sol\":{\"keccak256\":\"0xc6a8ff0ea489379b61faa647490411b80102578440ab9d84e9a957cc12164e70\",\"urls\":[\"bzz-raw://0ea104e577e63faea3b69c415637e99e755dcbf64c5833d7140c35a714d6d90c\",\"dweb:/ipfs/Qmau6x4Ns9XdyynRCNNp3RhLqijJjFm7z5fyZazfYFGYdq\"],\"license\":\"MIT\"},\"node_modules/@openzeppelin/contracts/token/ERC721/IERC721.sol\":{\"keccak256\":\"0x5ef46daa3b58ef2702279d514780316efaa952915ee1aa3396f041ee2982b0b4\",\"urls\":[\"bzz-raw://2f8f2a76e23b02fc69e8cd24c3cb47da6c7af3a2d6c3a382f8ac25c6e094ade7\",\"dweb:/ipfs/QmPV4ZS4tPVv4mTCf9ejyZ1ai57EEibDRj7mN2ARDCLV5n\"],\"license\":\"MIT\"},\"node_modules/@openzeppelin/contracts/token/ERC721/IERC721Receiver.sol\":{\"keccak256\":\"0x7f7a26306c79a65fb8b3b6c757cd74660c532cd8a02e165488e30027dd34ca49\",\"urls\":[\"bzz-raw://d01e0b2b837ee2f628545e54d8715b49c7ef2befd08356c2e7f6c50dde8a1c22\",\"dweb:/ipfs/QmWBAn6y2D1xgftci97Z3qR9tQnkvwQpYwFwkTvDMvqU4i\"],\"license\":\"MIT\"},\"node_modules/@openzeppelin/contracts/utils/Context.sol\":{\"keccak256\":\"0x493033a8d1b176a037b2cc6a04dad01a5c157722049bbecf632ca876224dd4b2\",\"urls\":[\"bzz-raw://6a708e8a5bdb1011c2c381c9a5cfd8a9a956d7d0a9dc1bd8bcdaf52f76ef2f12\",\"dweb:/ipfs/Qmax9WHBnVsZP46ZxEMNRQpLQnrdE4dK8LehML1Py8FowF\"],\"license\":\"MIT\"},\"node_modules/@openzeppelin/contracts/utils/introspection/ERC165.sol\":{\"keccak256\":\"0x9e8778b14317ba9e256c30a76fd6c32b960af621987f56069e1e819c77c6a133\",\"urls\":[\"bzz-raw://1777404f1dcd0fac188e55a288724ec3c67b45288e49cc64723e95e702b49ab8\",\"dweb:/ipfs/QmZFdC626GButBApwDUvvTnUzdinevC3B24d7yyh57XkiA\"],\"license\":\"MIT\"},\"node_modules/@openzeppelin/contracts/utils/introspection/IERC165.sol\":{\"keccak256\":\"0x4296879f55019b23e135000eb36896057e7101fb7fb859c5ef690cf14643757b\",\"urls\":[\"bzz-raw://87b3541437c8c443ccd36795e56a338ed12855eec17f8da624511b8d1a7e14df\",\"dweb:/ipfs/QmeJQCtZrQjtJLr6u7ZHWeH3pBnjtLWzvRrKViAi7UZqxL\"],\"license\":\"MIT\"},\"node_modules/@uniswap/v3-core/contracts/interfaces/IUniswapV3Pool.sol\":{\"keccak256\":\"0x4e64844c56061cd90e0a80de73534a9166704c43eed579eb83f90bc2780ce968\",\"urls\":[\"bzz-raw://cba4fab5cebdddf644b901994a7f0f52b98885d4c56012f4dc51d52c2bf9de0e\",\"dweb:/ipfs/QmVyyrRmqXrAiapewWunRVgiPVFJHpH2hKiE1py1svMSNV\"],\"license\":\"GPL-2.0-or-later\"},\"node_modules/@uniswap/v3-core/contracts/interfaces/callback/IUniswapV3SwapCallback.sol\":{\"keccak256\":\"0x3f485fb1a44e8fbeadefb5da07d66edab3cfe809f0ac4074b1e54e3eb3c4cf69\",\"urls\":[\"bzz-raw://095ce0626b41318c772b3ebf19d548282607f6a8f3d6c41c13edfbd5370c8652\",\"dweb:/ipfs/QmVDZfJJ89UUCE1hMyzqpkZAtQ8jUsBgZNE5AMRG7RzRFS\"],\"license\":\"GPL-2.0-or-later\"},\"node_modules/@uniswap/v3-core/contracts/interfaces/pool/IUniswapV3PoolActions.sol\":{\"keccak256\":\"0x9453dd0e7442188667d01d9b65de3f1e14e9511ff3e303179a15f6fc267f7634\",\"urls\":[\"bzz-raw://982f4328f956c3e60e67501e759eb292ac487f76460c774c50e9ae4fcc92aae5\",\"dweb:/ipfs/QmRnzEDsaqtd9PJEVcgQi7p5aV5pMSvRUoGZJAdwFUJxgZ\"],\"license\":\"GPL-2.0-or-later\"},\"node_modules/@uniswap/v3-core/contracts/interfaces/pool/IUniswapV3PoolDerivedState.sol\":{\"keccak256\":\"0xe603ac5b17ecdee73ba2b27efdf386c257a19c14206e87eee77e2017b742d9e5\",\"urls\":[\"bzz-raw://8febc9bdb399a4d94bb89f5377732652e2400e4a8dee808201ade6848f9004e7\",\"dweb:/ipfs/QmaKDqYYFU4d2W2iN77aDHptfbFmYZRrMYXHeGpJmM8C1c\"],\"license\":\"GPL-2.0-or-later\"},\"node_modules/@uniswap/v3-core/contracts/interfaces/pool/IUniswapV3PoolErrors.sol\":{\"keccak256\":\"0xf80abf13fb1fafc127ba4e792f240dd8ea7c8c893978cdfd8439c27fae9a037b\",\"urls\":[\"bzz-raw://b04fc72a656bbf3631e9c2e67b9870a2d9d235185e833fe050e9606e6816a9aa\",\"dweb:/ipfs/QmUcz4bkEkJ9pwzFu1C3n97hBQ3st9U6qTAqCdyFwddKco\"],\"license\":\"GPL-2.0-or-later\"},\"node_modules/@uniswap/v3-core/contracts/interfaces/pool/IUniswapV3PoolEvents.sol\":{\"keccak256\":\"0x8071514d0fe5d17d6fbd31c191cdfb703031c24e0ece3621d88ab10e871375cd\",\"urls\":[\"bzz-raw://d0b571930cc7488b1d546a7e9cea7c52d8b3c4e207da657ed0e0db7343b8cd03\",\"dweb:/ipfs/QmaGK6vVwB95QSTR1XMYvrh7ivYAYZxi3fD7v6VMA4jZ39\"],\"license\":\"GPL-2.0-or-later\"},\"node_modules/@uniswap/v3-core/contracts/interfaces/pool/IUniswapV3PoolImmutables.sol\":{\"keccak256\":\"0xf6e5d2cd1139c4c276bdbc8e1d2b256e456c866a91f1b868da265c6d2685c3f7\",\"urls\":[\"bzz-raw://b99c8c9ae8e27ee6559e5866bea82cbc9ffc8247f8d15b7422a4deb287d4d047\",\"dweb:/ipfs/QmfL8gaqt3ffAnm6nVj5ksuNpLygXuL3xq5VBqrkwC2JJ3\"],\"license\":\"GPL-2.0-or-later\"},\"node_modules/@uniswap/v3-core/contracts/interfaces/pool/IUniswapV3PoolOwnerActions.sol\":{\"keccak256\":\"0x759b78a2918af9e99e246dc3af084f654e48ef32bb4e4cb8a966aa3dcaece235\",\"urls\":[\"bzz-raw://64144fb96e1c7fdba87305acadb98a198d26a3d46c097cb3a666e567f6f29735\",\"dweb:/ipfs/QmUnWVwN9FKB9uV5Pr8YfLpWZnYM2DENnRMaadZ492JS9u\"],\"license\":\"GPL-2.0-or-later\"},\"node_modules/@uniswap/v3-core/contracts/interfaces/pool/IUniswapV3PoolState.sol\":{\"keccak256\":\"0x44fa2ce1182f6c2f6bead3d1737804bf7e112252ae86e0f2e92f9b8249603f43\",\"urls\":[\"bzz-raw://54154e8665b98d65f5dc91b256551852cb47882180b501b260657122d207c0ea\",\"dweb:/ipfs/QmcfemK1A2PXYrWB5SBFGERpMCderbFRb8BtTzQDj1sUBp\"],\"license\":\"GPL-2.0-or-later\"},\"src/REVBasicDeployer.sol\":{\"keccak256\":\"0x45595b12d2500f2b89b9b669d24548f52a6216dcdeee27ca8d2d632ccc4a6f9d\",\"urls\":[\"bzz-raw://50d77d602ba2c8c699d0814b95f6c79ed560550183eb6b9222d488e27b7175a6\",\"dweb:/ipfs/QmVDVjuYcxisrFDGoLgmsHder9Ajjzv8Fpp5LXVpopJu68\"],\"license\":\"MIT\"},\"src/interfaces/IREVBasicDeployer.sol\":{\"keccak256\":\"0x7f99c061855c2b8e721323fc5d9116d23b3f2b37585d77353a6149f9de61998e\",\"urls\":[\"bzz-raw://aed573a7949f2fdfb71001b19d1b6b88d55142eaa5b3ee588902764843a290cc\",\"dweb:/ipfs/QmYmBrB12UW5cJc2AcbZ68apjqenUCzLw72N3cDebR7VFW\"],\"license\":null},\"src/structs/REVBuybackHookConfig.sol\":{\"keccak256\":\"0xdae5ecff2ff2a04c0aab17093f023b2161994dc0e6e2adc5006d36d157eb09aa\",\"urls\":[\"bzz-raw://5e0eed08e652290f59c0d18565df21be3fc7b33ca3fa41c393461472479e4a7f\",\"dweb:/ipfs/QmfZcbmdvYDQwEE4eesGpcxdojAm9BhJ81fdkxjX9LU9Sa\"],\"license\":\"MIT\"},\"src/structs/REVBuybackPoolConfig.sol\":{\"keccak256\":\"0x83f2a3875a8b1955856b72bfddd90c0cc2fbe26697f1dd4e13b33c0319049a14\",\"urls\":[\"bzz-raw://e1e37d0eb626221b6a8774a155a3799dc5cf0b497d26263ef323ed768d61a0dc\",\"dweb:/ipfs/QmcSPDAaPemjh3a1XycV4qDMJwctnuwiKe3wXrRUjotKAB\"],\"license\":\"MIT\"},\"src/structs/REVConfig.sol\":{\"keccak256\":\"0x5b53b84ea0fc0e3f2dca7b13b09d3792a11b3960155d00a1741e750b1cbb2781\",\"urls\":[\"bzz-raw://a35f79a509999bb383bf2086da5df35b9cce76af91e3b3633c022b0cceee789a\",\"dweb:/ipfs/QmXTUQHGfmmFABnqwLcRo88FyuM7TZh9pswdotUeHYMrGH\"],\"license\":\"MIT\"},\"src/structs/REVDescription.sol\":{\"keccak256\":\"0x40bebc53d50dbfb261882f51c7667d7263193e8fc48897b9384c2ca259046c1b\",\"urls\":[\"bzz-raw://24f98bc7ef12f53afa326a266c69683e24501405f72566b7ca7e8dad242e1fe1\",\"dweb:/ipfs/QmNkLsCwhx5pTuMmJLwUNJdPrGjEi3H9JnTX2s9GsoUTAa\"],\"license\":\"MIT\"},\"src/structs/REVStageConfig.sol\":{\"keccak256\":\"0x0356af8b2ac6ae9b2e23562d638a4903d707350a365d90bfd468b8d4f98c41b5\",\"urls\":[\"bzz-raw://85d7712485745986f7d5caa059a80563bad151dadf67eb4752f2f272cbf46a1e\",\"dweb:/ipfs/QmRhbgEfGfvbZAs1hp4cbwpi2aeLzfZTrfpDGCoey7xiCs\"],\"license\":\"MIT\"},\"src/structs/REVSuckerDeploymentConfig.sol\":{\"keccak256\":\"0xed607665da0efa1a1662a7e094095f336bef2d6694f79e5d8158cacf73c34dac\",\"urls\":[\"bzz-raw://c8c68b67a28a7dfc060596cfb98b7fc05ad0c9b61482f60a04810bc68cc0b8e3\",\"dweb:/ipfs/QmeLH5z8J6DDjRQXfJi4BoMmQqY4zTjERYfSzu8Uypkawp\"],\"license\":\"MIT\"}},\"version\":1}",
			"args": [
				"0x75295C69178F42cfe9Cf710f307891D6cE471920",
				"0xF4C9957E2E1Fab09A8B48658F68b46e47b134724",
				"0xB2b5841DBeF766d4b521221732F9B618fCf34A87"
			],
			"bytecode": "0x60e06040523480156200001157600080fd5b50604051620042f9380380620042f98339810160408190526200003491620000bc565b6001600160a01b0390811660805291821660a0521660c0526002805460018181018355600083905260117f405787fa12a823e0f2b7631cc41b3ba8828b3321ca811111fa75cd3aa3bb5ace92830155825480820184556019908301558254908101909255600691015562000110565b6001600160a01b0381168114620000b957600080fd5b50565b600080600060608486031215620000d257600080fd5b8351620000df81620000a3565b6020850151909350620000f281620000a3565b60408501519092506200010581620000a3565b809150509250925092565b60805160a05160c051614134620001c5600039600081816102c701528181610900015281816109e901528181610d0401528181611804015261192a015260008181610316015281816103a501528181610b1801528181610ddc01528181610f55015281816110d0015281816112a801528181611375015281816114650152818161152d015281816115f0015281816116ed015261183f0152600081816101cb01528181610271015261229901526141346000f3fe608060405234801561001057600080fd5b50600436106101005760003560e01c80637249a77311610097578063b5d2553311610066578063b5d25533146102c2578063bb199402146102e9578063eb5ad9d9146102fe578063ee0fc1211461031157600080fd5b80637249a7731461022e5780637da0a8771461026f5780639d82ba2514610295578063aaf320d71461029f57600080fd5b80634c4ffc71116100d35780634c4ffc711461019a578063572b6c05146101bb5780635c0a7cee146101fb578063677ce0881461021b57600080fd5b806301ffc9a714610105578063150b7a021461012d5780631d3eedaa1461015957806343681e151461017a575b600080fd5b6101186101133660046123f5565b610338565b60405190151581526020015b60405180910390f35b61014061013b36600461244e565b6103a1565b6040516001600160e01b03199091168152602001610124565b61016c610167366004612c4c565b61046d565b604051908152602001610124565b61016c610188366004612d8b565b60016020526000908152604090205481565b6101ad6101a8366004612da4565b610489565b604051610124929190612ea4565b6101186101c9366004612ec5565b7f00000000000000000000000000000000000000000000000000000000000000006001600160a01b0390811691161490565b61020e610209366004612d8b565b610780565b6040516101249190612ee2565b610118610229366004612ef5565b6108a4565b61025761023c366004612d8b565b6000602081905290815260409020546001600160a01b031681565b6040516001600160a01b039091168152602001610124565b7f0000000000000000000000000000000000000000000000000000000000000000610257565b61016c6276a70081565b6102b26102ad366004612f25565b6109d9565b6040516101249493929190612f61565b6102577f000000000000000000000000000000000000000000000000000000000000000081565b6102fc6102f7366004613001565b610b16565b005b6102fc61030c366004612ef5565b610dcd565b6102577f000000000000000000000000000000000000000000000000000000000000000081565b60006001600160e01b031982167f81c03c2e00000000000000000000000000000000000000000000000000000000148061039b57507f01ffc9a7000000000000000000000000000000000000000000000000000000006001600160e01b03198316145b92915050565b60007f00000000000000000000000000000000000000000000000000000000000000006001600160a01b031663293c49996040518163ffffffff1660e01b8152600401602060405180830381865afa158015610401573d6000803e3d6000fd5b505050506040513d601f19601f820116820180604052508101906104259190613085565b6001600160a01b0316336001600160a01b03161461044257600080fd5b507f150b7a020000000000000000000000000000000000000000000000000000000095945050505050565b600061047f8686868630600088611287565b9695505050505050565b60c081013560009081526020819052604081205460609081906001600160a01b03168015610541576040517f4c4ffc710000000000000000000000000000000000000000000000000000000081526001600160a01b03821690634c4ffc71906104f690889060040161314d565b600060405180830381865afa158015610513573d6000803e3d6000fd5b505050506040513d6000823e601f3d908101601f1916820160405261053b919081019061321e565b90945091505b815160c086013560009081526004602090815260408083208054825181850281018501909352808352941515949192909190849084015b8282101561065c576000848152602090819020604080516060810182526003860290920180546001600160a01b03168352600181015493830193909352600283018054929392918401916105cb90613366565b80601f01602080910402602001604051908101604052809291908181526020018280546105f790613366565b80156106445780601f1061061957610100808354040283529160200191610644565b820191906000526020600020905b81548152906001019060200180831161062757829003601f168201915b50505050508152505081526020019060010190610578565b50505050905060008151905082610674576000610677565b60015b6106849060ff16826133b6565b67ffffffffffffffff81111561069c5761069c6124ed565b6040519080825280602002602001820160405280156106e957816020015b604080516060808201835260008083526020830152918101919091528152602001906001900390816106ba5790505b50955060005b8181101561073657828181518110610709576107096133c9565b6020026020010151878281518110610723576107236133c9565b60209081029190910101526001016106ef565b5082156107765784600081518110610750576107506133c9565b602002602001015186828151811061076a5761076a6133c9565b60200260200101819052505b5050505050915091565b606060046000838152602001908152602001600020805480602002602001604051908101604052809291908181526020016000905b82821015610899576000848152602090819020604080516060810182526003860290920180546001600160a01b031683526001810154938301939093526002830180549293929184019161080890613366565b80601f016020809104026020016040519081016040528092919081815260200182805461083490613366565b80156108815780601f1061085657610100808354040283529160200191610881565b820191906000526020600020905b81548152906001019060200180831161086457829003601f168201915b505050505081525050815260200190600101906107b5565b505050509050919050565b6000828152602081905260408120546001600160a01b03908116908316036108ce5750600161039b565b6040517f3d12cb87000000000000000000000000000000000000000000000000000000008152600481018490526000907f00000000000000000000000000000000000000000000000000000000000000006001600160a01b031690633d12cb8790602401600060405180830381865afa15801561094f573d6000803e3d6000fd5b505050506040513d6000823e601f3d908101601f1916820160405261097791908101906133df565b805190915060005b818110156109cd57828181518110610999576109996133c9565b60200260200101516001600160a01b0316856001600160a01b0316036109c5576001935050505061039b565b60010161097f565b50600095945050505050565b6000808060606001600160a01b037f0000000000000000000000000000000000000000000000000000000000000000166383db9d0160408701803590610a229060208a01612ec5565b6040516001600160e01b031960e085901b16815260048101929092526001600160a01b03166024820152604401602060405180830381865afa158015610a6c573d6000803e3d6000fd5b505050506040513d601f19601f82011682018060405250810190610a909190613479565b15610aad5761271085608001358660a00135935093509350610b0f565b604080860135600090815260016020522054421015610af8576040517f04c3b3cd00000000000000000000000000000000000000000000000000000000815260040160405180910390fd5b84610160013585608001358660a001359350935093505b9193509193565b7f00000000000000000000000000000000000000000000000000000000000000006001600160a01b0316631f47ce696040518163ffffffff1660e01b8152600401602060405180830381865afa158015610b74573d6000803e3d6000fd5b505050506040513d601f19601f82011682018060405250810190610b989190613085565b6001600160a01b031663f434c9146040518163ffffffff1660e01b8152600401602060405180830381865afa158015610bd5573d6000803e3d6000fd5b505050506040513d601f19601f82011682018060405250810190610bf99190613085565b6001600160a01b0316630f5932f0610c0f611a58565b3086610c1a88611a67565b6040518563ffffffff1660e01b8152600401610c3994939291906134d7565b602060405180830381865afa158015610c56573d6000803e3d6000fd5b505050506040513d601f19601f82011682018060405250810190610c7a9190613479565b610c97576040516331fb21f360e01b815260040160405180910390fd5b6000610ca1611a58565b838360200151604051602001610cb993929190613509565b60408051601f1981840301815290829052805160209091012083517f2f3f50e00000000000000000000000000000000000000000000000000000000083529092506001600160a01b037f00000000000000000000000000000000000000000000000000000000000000001691632f3f50e091610d3b9188918691600401613613565b6000604051808303816000875af1158015610d5a573d6000803e3d6000fd5b505050506040513d6000823e601f3d908101601f19168201604052610d8291908101906133df565b5080847f755ecfca2f6e66af8868551556bf7931740a7062db8e0882f4c322fdb0bb3f608585610db0611a58565b604051610dbf9392919061365b565b60405180910390a350505050565b6000610dd883611a67565b90507f00000000000000000000000000000000000000000000000000000000000000006001600160a01b0316631f47ce696040518163ffffffff1660e01b8152600401602060405180830381865afa158015610e38573d6000803e3d6000fd5b505050506040513d601f19601f82011682018060405250810190610e5c9190613085565b6001600160a01b031663f434c9146040518163ffffffff1660e01b8152600401602060405180830381865afa158015610e99573d6000803e3d6000fd5b505050506040513d601f19601f82011682018060405250810190610ebd9190613085565b6001600160a01b0316630f5932f0610ed3611a58565b3086856040518563ffffffff1660e01b8152600401610ef594939291906134d7565b602060405180830381865afa158015610f12573d6000803e3d6000fd5b505050506040513d601f19601f82011682018060405250810190610f369190613479565b610f53576040516331fb21f360e01b815260040160405180910390fd5b7f00000000000000000000000000000000000000000000000000000000000000006001600160a01b0316631f47ce696040518163ffffffff1660e01b8152600401602060405180830381865afa158015610fb1573d6000803e3d6000fd5b505050506040513d601f19601f82011682018060405250810190610fd59190613085565b6001600160a01b031663f434c9146040518163ffffffff1660e01b8152600401602060405180830381865afa158015611012573d6000803e3d6000fd5b505050506040513d601f19601f820116820180604052508101906110369190613085565b6001600160a01b03166305d2912e306040518060600160405280611058611a58565b6001600160a01b0316815260208082018990526040805160008152918201815291820152516001600160e01b031960e085901b16815261109c92919060040161369a565b600060405180830381600087803b1580156110b657600080fd5b505af11580156110ca573d6000803e3d6000fd5b505050507f00000000000000000000000000000000000000000000000000000000000000006001600160a01b0316631f47ce696040518163ffffffff1660e01b8152600401602060405180830381865afa15801561112c573d6000803e3d6000fd5b505050506040513d601f19601f820116820180604052508101906111509190613085565b6001600160a01b031663f434c9146040518163ffffffff1660e01b8152600401602060405180830381865afa15801561118d573d6000803e3d6000fd5b505050506040513d601f19601f820116820180604052508101906111b19190613085565b6001600160a01b03166305d2912e306040518060600160405280866001600160a01b03168152602001878152602001858152506040518363ffffffff1660e01b815260040161120192919061369a565b600060405180830381600087803b15801561121b57600080fd5b505af115801561122f573d6000803e3d6000fd5b50505050816001600160a01b0316837f0329d6a81434b130c72eb65eea0e32e429dc1277b4aad86ec86454aefb618451611267611a58565b6040516001600160a01b03909116815260200160405180910390a3505050565b6000806000806112988a8888611c1f565b9250925092508a600003611373577f00000000000000000000000000000000000000000000000000000000000000006001600160a01b0316630634bae9308c6000015160400151868d8f60000151602001516040516020016112fa91906136dd565b6040516020818303038152906040526040518663ffffffff1660e01b8152600401611329959493929190613b0b565b6020604051808303816000875af1158015611348573d6000803e3d6000fd5b505050506040513d601f19601f8201168201806040525081019061136c9190613b73565b9a50611431565b7f00000000000000000000000000000000000000000000000000000000000000006001600160a01b0316631ea7bc8c8c858c8e60000151602001516040516020016113be91906136dd565b6040516020818303038152906040526040518563ffffffff1660e01b81526004016113ec9493929190613b8c565b6020604051808303816000875af115801561140b573d6000803e3d6000fd5b505050506040513d601f19601f8201168201806040525081019061142f9190613b73565b505b80806114415750468a6060015114155b15611463576114536276a700426133b6565b60008c8152600160205260409020555b7f00000000000000000000000000000000000000000000000000000000000000006001600160a01b031663581781918c8c60000151600001518d60000151602001518e60000151606001516040518563ffffffff1660e01b81526004016114cd9493929190613bcb565b6020604051808303816000875af11580156114ec573d6000803e3d6000fd5b505050506040513d601f19601f820116820180604052508101906115109190613085565b5087516001600160a01b03161561152b5761152b8b89611fe0565b7f00000000000000000000000000000000000000000000000000000000000000006001600160a01b031663dd5f214a8c600061156a8e6080015161214b565b6040518463ffffffff1660e01b815260040161158893929190613c08565b600060405180830381600087803b1580156115a257600080fd5b505af11580156115b6573d6000803e3d6000fd5b50505050600060405180606001604052808c608001516001600160a01b031681526020018d81526020016115e98e611a67565b81525090507f00000000000000000000000000000000000000000000000000000000000000006001600160a01b031663f434c9146040518163ffffffff1660e01b8152600401602060405180830381865afa15801561164c573d6000803e3d6000fd5b505050506040513d601f19601f820116820180604052508101906116709190613085565b6001600160a01b03166305d2912e30836040518363ffffffff1660e01b815260040161169d92919061369a565b600060405180830381600087803b1580156116b757600080fd5b505af11580156116cb573d6000803e3d6000fd5b5050505060008b604001511180156116e65750468b60600151145b156117b4577f00000000000000000000000000000000000000000000000000000000000000006001600160a01b031663c7fb92de8d8d604001518e608001518f600001516020015160405160200161173e9190613cf7565b60405160208183030381529060405260006040518663ffffffff1660e01b815260040161176f959493929190613d47565b6020604051808303816000875af115801561178e573d6000803e3d6000fd5b505050506040513d601f19601f820116820180604052508101906117b29190613b73565b505b60408051600180825281830190925260009160208083019080368337019050509050601c816000815181106117eb576117eb6133c9565b60200260200101818152505060405180606001604052807f00000000000000000000000000000000000000000000000000000000000000006001600160a01b031681526020018e81526020018281525091507f00000000000000000000000000000000000000000000000000000000000000006001600160a01b031663f434c9146040518163ffffffff1660e01b8152600401602060405180830381865afa15801561189b573d6000803e3d6000fd5b505050506040513d601f19601f820116820180604052508101906118bf9190613085565b6001600160a01b03166305d2912e30846040518363ffffffff1660e01b81526004016118ec92919061369a565b600060405180830381600087803b15801561190657600080fd5b505af115801561191a573d6000803e3d6000fd5b505050506020870151156119fa577f00000000000000000000000000000000000000000000000000000000000000006001600160a01b0316632f3f50e08e611960611a58565b878b6020015160405160200161197893929190613509565b60408051601f198184030181529082905280516020909101208b516001600160e01b031960e086901b1683526119b19392600401613613565b6000604051808303816000875af11580156119d0573d6000803e3d6000fd5b505050506040513d6000823e601f3d908101601f191682016040526119f891908101906133df565b505b8c7f4b827371715024f69a0bc98c8df6edafe6e471e78488ab1b3849de72f66b12e08d8d8d8b8a8a8a611a2b611a58565b604051611a3f989796959493929190613eaa565b60405180910390a2509a9b9a5050505050505050505050565b6000611a62612289565b905090565b606060006002805480602002602001604051908101604052809291908181526020018280548015611ab757602002820191906000526020600020905b815481526020019060010190808311611aa3575b50508351600088815260036020908152604080832080548251818502810185019093528083529899509397929650945091925090830182828015611b1a57602002820191906000526020600020905b815481526020019060010190808311611b06575b50508351939450611b3192508391508590506133b6565b67ffffffffffffffff811115611b4957611b496124ed565b604051908082528060200260200182016040528015611b72578160200160208202803683370190505b50945060005b83811015611bbf57848181518110611b9257611b926133c9565b6020026020010151868281518110611bac57611bac6133c9565b6020908102919091010152600101611b78565b5060005b81811015611c1557828181518110611bdd57611bdd6133c9565b6020026020010151868286611bf291906133b6565b81518110611c0257611c026133c9565b6020908102919091010152600101611bc3565b5050505050919050565b6060806000808660a001515190508067ffffffffffffffff811115611c4657611c466124ed565b604051908082528060200260200182016040528015611d3857816020015b611d256040805161010080820183526000808352602080840182905283850182905260608085018390526080808601849052865161020081018852848152928301849052958201839052810182905293840181905260a084810182905260c0850182905260e0850182905291840181905261012084018190526101408401819052610160840181905261018084018190526101a084018190526101c084018190526101e0840152909190820190815260200160608152602001606081525090565b815260200190600190039081611c645790505b509350611d44876122fe565b6040805160c081018252600080825260208201819052918101829052606081018290526080810182905260a081018290529194505b82811015611fd4578860a001518181518110611d9757611d976133c9565b60200260200101519150816000015164ffffffffff16868281518110611dbf57611dbf6133c9565b60200260200101516000018181525050816060015164ffffffffff16868281518110611ded57611ded6133c9565b6020026020010151602001818152505081604001516dffffffffffffffffffffffffffff16868281518110611e2457611e246133c9565b60200260200101516040018181525050816080015163ffffffff16868281518110611e5157611e516133c9565b602002602001015160600181815250506000868281518110611e7557611e756133c9565b6020026020010151608001906001600160a01b031690816001600160a01b031681525050604051806102000160405280836020015161ffff1681526020018360a0015161ffff16612710611ec99190614013565b815260208b81015163ffffffff16908201526000604082018190526060820181905260016080830181905260a0830182905260c0830182905260e083018290526101008301829052610120830182905261014083018290526101608301526101808201526001600160a01b038a166101a08201526101c0018890528651879083908110611f5857611f586133c9565b602002602001015160a00181905250806000148015611f7e5750815164ffffffffff1615155b8015611f94575042826000015164ffffffffff16105b15611f9e57600193505b84611fa9838361233f565b604051602001611fba929190614026565b60408051601f198184030181529190529450600101611d79565b50505093509350939050565b602081810151516040805160808101825260008082529381018490529081018390526060810183905290915b828110156120ff578360200151818151811061202a5761202a6133c9565b6020908102919091018101518551918101516040808301516060840151845192517f7b621d3a000000000000000000000000000000000000000000000000000000008152600481018c905262ffffff909416602485015263ffffffff91821660448501521660648301526001600160a01b039081166084830152919450911690637b621d3a9060a4016020604051808303816000875af11580156120d2573d6000803e3d6000fd5b505050506040513d601f19601f820116820180604052508101906120f69190613085565b5060010161200c565b5050905160009283526020839052604090922080547fffffffffffffffffffffffff0000000000000000000000000000000000000000166001600160a01b039093169290921790915550565b604080516001808252818301909252606091816020015b60408051808201909152600081526060602082015281526020019060019003908161216257505060408051600180825281830190925291925060009190602082015b6040805160c08101825260008082526020808301829052928201819052606082018190526080820181905260a082015282526000199092019101816121a45790505090506040518060c00160405280600015158152602001633b9aca00815260200160008152602001846001600160a01b031681526020016000815260200160006001600160a01b031681525081600081518110612244576122446133c9565b60200260200101819052506040518060400160405280600181526020018281525082600081518110612278576122786133c9565b602002602001018190525050919050565b6000366014336001600160a01b037f0000000000000000000000000000000000000000000000000000000000000000161480156122c65750808210155b156122f6576000366122d88385614013565b6122e3928290614055565b6122ec9161407f565b60601c9250505090565b339250505090565b60208082015160608381015184518051818601519184015160405194966123299695929392016140b4565b6040516020818303038152906040529050919050565b6060811580156123555750825164ffffffffff16155b61236757825164ffffffffff16612369565b425b83602001518460400151856060015186608001518760a001516040516020016123de9695949392919095865261ffff94851660208701526dffffffffffffffffffffffffffff93909316604086015264ffffffffff91909116606085015263ffffffff1660808401521660a082015260c00190565b604051602081830303815290604052905092915050565b60006020828403121561240757600080fd5b81356001600160e01b03198116811461241f57600080fd5b9392505050565b6001600160a01b038116811461243b57600080fd5b50565b803561244981612426565b919050565b60008060008060006080868803121561246657600080fd5b853561247181612426565b9450602086013561248181612426565b935060408601359250606086013567ffffffffffffffff808211156124a557600080fd5b818801915088601f8301126124b957600080fd5b8135818111156124c857600080fd5b8960208285010111156124da57600080fd5b9699959850939650602001949392505050565b634e487b7160e01b600052604160045260246000fd5b6040516080810167ffffffffffffffff81118282101715612526576125266124ed565b60405290565b60405160c0810167ffffffffffffffff81118282101715612526576125266124ed565b6040805190810167ffffffffffffffff81118282101715612526576125266124ed565b6040516060810167ffffffffffffffff81118282101715612526576125266124ed565b604051601f8201601f1916810167ffffffffffffffff811182821017156125be576125be6124ed565b604052919050565b600067ffffffffffffffff8211156125e0576125e06124ed565b50601f01601f191660200190565b60006126016125fc846125c6565b612595565b905082815283838301111561261557600080fd5b828260208301376000602084830101529392505050565b600082601f83011261263d57600080fd5b61241f838335602085016125ee565b60006080828403121561265e57600080fd5b612666612503565b9050813567ffffffffffffffff8082111561268057600080fd5b61268c8583860161262c565b835260208401359150808211156126a257600080fd5b6126ae8583860161262c565b602084015260408401359150808211156126c757600080fd5b506126d48482850161262c565b6040830152506060820135606082015292915050565b803563ffffffff8116811461244957600080fd5b600067ffffffffffffffff821115612718576127186124ed565b5060051b60200190565b803564ffffffffff8116811461244957600080fd5b803561ffff8116811461244957600080fd5b600082601f83011261275a57600080fd5b8135602061276a6125fc836126fe565b82815260c0928302850182019282820191908785111561278957600080fd5b8387015b8581101561282e5781818a0312156127a55760008081fd5b6127ad61252c565b6127b682612722565b81526127c3868301612737565b868201526040808301356dffffffffffffffffffffffffffff811681146127ea5760008081fd5b9082015260606127fb838201612722565b90820152608061280c8382016126ea565b9082015260a061281d838201612737565b90820152845292840192810161278d565b5090979650505050505050565b600082601f83011261284c57600080fd5b8135602061285c6125fc836126fe565b828152600592831b850182019282820191908785111561287b57600080fd5b8387015b8581101561282e57803567ffffffffffffffff808211156128a05760008081fd5b908901906040828c03601f19018113156128ba5760008081fd5b6128c261254f565b888401356128cf81612426565b815283820135838111156128e35760008081fd5b8085019450508c603f8501126128fb57600092508283fd5b88840135925061290d6125fc846126fe565b83815292861b8401820192898101908e85111561292a5760008081fd5b948301945b84861015612954578535935061294484612426565b838252948a0194908a019061292f565b828b015250875250505092840192840161287f565b6000604080838503121561297c57600080fd5b61298461254f565b9150823561299181612426565b825260208381013567ffffffffffffffff8111156129ae57600080fd5b8401601f810186136129bf57600080fd5b80356129cd6125fc826126fe565b81815260079190911b820183019083810190888311156129ec57600080fd5b928401925b82841015612a6b576080848a031215612a0a5760008081fd5b612a12612503565b8435612a1d81612426565b81528486013562ffffff81168114612a355760008081fd5b81870152612a448588016126ea565b878201526060612a558187016126ea565b90820152825260809390930192908401906129f1565b808588015250505050505092915050565b600060408284031215612a8e57600080fd5b612a9661254f565b905067ffffffffffffffff8083351115612aaf57600080fd5b8235830184601f820112612ac257600080fd5b612acf6125fc82356126fe565b81358082526020808301929160051b84010187811115612aee57600080fd5b602084015b81811015612c33578581351115612b0957600080fd5b803585016040818b03601f19011215612b2157600080fd5b612b2961254f565b612b366020830135612426565b602082013581528760408301351115612b4e57600080fd5b6040820135820191508a603f830112612b6657600080fd5b6020820135612b776125fc826126fe565b81815260079190911b83016040019060208101908d831115612b9857600080fd5b6040850194505b82851015612c14576080858f031215612bb757600080fd5b612bbf612503565b612bc98635612426565b85358152612bd9602087016126ea565b6020820152612beb6040870135612426565b604086013560408201526060860135606082015280835250602082019150608085019450612b9f565b8060208501525050508086525050602084019350602081019050612af3565b5050808552505050506020820135602082015292915050565b600080600080600060a08688031215612c6457600080fd5b85359450602086013567ffffffffffffffff80821115612c8357600080fd5b9087019060c0828a031215612c9757600080fd5b612c9f61252c565b823582811115612cae57600080fd5b612cba8b82860161264c565b825250612cc9602084016126ea565b60208201526040830135604082015260608301356060820152612cee6080840161243e565b608082015260a083013582811115612d0557600080fd5b612d118b828601612749565b60a08301525095506040880135915080821115612d2d57600080fd5b612d3989838a0161283b565b94506060880135915080821115612d4f57600080fd5b612d5b89838a01612969565b93506080880135915080821115612d7157600080fd5b50612d7e88828901612a7c565b9150509295509295909350565b600060208284031215612d9d57600080fd5b5035919050565b600060208284031215612db657600080fd5b813567ffffffffffffffff811115612dcd57600080fd5b8201610180818503121561241f57600080fd5b60005b83811015612dfb578181015183820152602001612de3565b50506000910152565b60008151808452612e1c816020860160208601612de0565b601f01601f19169290920160200192915050565b600082825180855260208086019550808260051b84010181860160005b8481101561282e57858303601f19018952815180516001600160a01b031684528481015185850152604090810151606091850182905290612e9081860183612e04565b9a86019a9450505090830190600101612e4d565b828152604060208201526000612ebd6040830184612e30565b949350505050565b600060208284031215612ed757600080fd5b813561241f81612426565b60208152600061241f6020830184612e30565b60008060408385031215612f0857600080fd5b823591506020830135612f1a81612426565b809150509250929050565b600060208284031215612f3757600080fd5b813567ffffffffffffffff811115612f4e57600080fd5b82016101a0818503121561241f57600080fd5b60006080820186835260208681850152604086604086015260606080606087015283875180865260a08801915060a08160051b890101955084890160005b82811015612fef57898803609f19018452815180516001600160a01b0316895287810151888a0152860151868901869052612fdc868a0182612e04565b9850509286019290860190600101612f9f565b50959c9b505050505050505050505050565b60008060006060848603121561301657600080fd5b83359250602084013567ffffffffffffffff8082111561303557600080fd5b818601915086601f83011261304957600080fd5b613058878335602085016125ee565b9350604086013591508082111561306e57600080fd5b5061307b86828701612a7c565b9150509250925092565b60006020828403121561309757600080fd5b815161241f81612426565b80356130ad81612426565b6001600160a01b031682526020818101359083015260408082013590830152606090810135910152565b6000808335601e198436030181126130ee57600080fd5b830160208101925035905067ffffffffffffffff81111561310e57600080fd5b80360382131561311d57600080fd5b9250929050565b81835281816020850137506000828201602090810191909152601f909101601f19169091010190565b6020815261316e602082016131618461243e565b6001600160a01b03169052565b600061317c6020840161243e565b6001600160a01b03811660408401525061319c60608301604085016130a2565b60c083013560e083015261010060e0840135818401526131bd81850161243e565b90506101206131d6818501836001600160a01b03169052565b610140915080850135828501525061016081850135818501526131fb818601866130d7565b61018086810152925090506132156101a085018383613124565b95945050505050565b600080604080848603121561323257600080fd5b8351925060208085015167ffffffffffffffff8082111561325257600080fd5b818701915087601f83011261326657600080fd5b81516132746125fc826126fe565b81815260059190911b8301840190848101908a83111561329357600080fd5b8585015b83811015613354578051858111156132ae57600080fd5b86016060818e03601f190112156132c55760008081fd5b6132cd612572565b888201516132da81612426565b8152818a0151898201526060820151878111156132f75760008081fd5b8083019250508d603f83011261330d5760008081fd5b8882015161331d6125fc826125c6565b8181528f8c8386010111156133325760008081fd5b613341828c83018e8701612de0565b828c015250845250918601918601613297565b50809750505050505050509250929050565b600181811c9082168061337a57607f821691505b60208210810361339a57634e487b7160e01b600052602260045260246000fd5b50919050565b634e487b7160e01b600052601160045260246000fd5b8082018082111561039b5761039b6133a0565b634e487b7160e01b600052603260045260246000fd5b600060208083850312156133f257600080fd5b825167ffffffffffffffff81111561340957600080fd5b8301601f8101851361341a57600080fd5b80516134286125fc826126fe565b81815260059190911b8201830190838101908783111561344757600080fd5b928401925b8284101561346e57835161345f81612426565b8252928401929084019061344c565b979650505050505050565b60006020828403121561348b57600080fd5b8151801515811461241f57600080fd5b60008151808452602080850194506020840160005b838110156134cc578151875295820195908201906001016134b0565b509495945050505050565b60006001600160a01b0380871683528086166020840152508360408301526080606083015261047f608083018461349b565b6bffffffffffffffffffffffff198460601b16815260008351613533816014850160208801612de0565b60149201918201929092526034019392505050565b600082825180855260208086019550808260051b8401018186016000805b8581101561360557868403601f19018a52825180516001600160a01b03908116865290860151604087870181905281518188018190529188019290916060919082890190875b818110156135ed5786518051851684528c81015163ffffffff168d8501528681015185168785015285015185840152958b01956080909201916001016135ac565b50509d89019d97505050938601935050600101613566565b509198975050505050505050565b8381528260208201526060604082015260006132156060830184613548565b60008151604084526136476040850182613548565b602093840151949093019390935250919050565b60608152600061366e6060830186612e04565b82810360208401526136808186613632565b9150506001600160a01b0383166040830152949350505050565b60006001600160a01b03808516835260406020840152808451166040840152506020830151606083015260408301516060608084015261321560a084018261349b565b600960fa1b8152600082516136f9816001850160208701612de0565b7f207265766e6574206465706c6f796564000000000000000000000000000000006001939091019283015250601101919050565b8051825260208101516020830152604081015160408301526060810151613758606084018215159052565b50608081015161376c608084018215159052565b5060a081015161378060a084018215159052565b5060c081015161379460c084018215159052565b5060e08101516137a860e084018215159052565b5061010081810151151590830152610120808201511515908301526101408082015115159083015261016080820151151590830152610180808201511515908301526101a0808201511515908301526101c0808201516001600160a01b0316908301526101e090810151910152565b600082825180855260208086019550808260051b8401018186016000805b8581101561360557868403601f19018a52825180518552850151604086860181905281518187018190529187019160609081880190865b818110156138c65785518051151584528b8101518c8501528581015186850152848101516001600160a01b03908116868601526080808301519086015260a0918201511690840152948a019460c09092019160010161386c565b50509c88019c965050509285019250600101613835565b60008151808452602080850194506020840160005b838110156134cc5781518051885283015183880152604090960195908201906001016138f2565b600082825180855260208086019550808260051b84010181860160005b8481101561282e57601f19868403018952815160806001600160a01b038083511686528087840151168787015250604080830151828288015261397b838801826138dd565b925050506060808301519250858203818701525061399981836138dd565b9a86019a9450505090830190600101613936565b600082825180855260208086019550808260051b84010181860160005b8481101561282e57858303601f19018952815180518452848101518585015260408082015190850152606080820151908501526080808201516001600160a01b03169085015260a0808201516102e09190613a278288018261372d565b505060c0820151816102a0870152613a4182870182613817565b91505060e082015191508481036102c0860152613a5e8183613919565b9a86019a94505050908301906001016139ca565b600082825180855260208086019550808260051b8401018186016000805b8581101561360557868403601f19018a52825180516001600160a01b03908116865290860151604087870181905281519087018190529087019160608701918591905b80831015613af557845182168452938901939289019260019290920191613ad3565b5050509a86019a94505091840191600101613a90565b6001600160a01b038616815260a060208201526000613b2d60a0830187612e04565b8281036040840152613b3f81876139ad565b90508281036060840152613b538186613a72565b90508281036080840152613b678185612e04565b98975050505050505050565b600060208284031215613b8557600080fd5b5051919050565b848152608060208201526000613ba560808301866139ad565b8281036040840152613bb78186613a72565b9050828103606084015261346e8185612e04565b848152608060208201526000613be46080830186612e04565b8281036040840152613bf68186612e04565b91505082606083015295945050505050565b600060608083018684526020868186015260406060604087015282875180855260808801915060808160051b890101945083890160005b82811015613ce657898703607f190184528151805188528601518688018690528051868901819052908701906000908a8a01905b80831015613cd15783518051151583528a8101518b840152898101518a8401528c8101516001600160a01b039081168e8501526080808301519085015260a0918201511690830152928901926001929092019160c090910190613c73565b50985050509285019290850190600101613c3f565b50949b9a5050505050505050505050565b600960fa1b815260008251613d13816001850160208701612de0565b7f207072656d696e746564000000000000000000000000000000000000000000006001939091019283015250600b01919050565b8581528460208201526001600160a01b038416604082015260a060608201526000613d7560a0830185612e04565b905082151560808301529695505050505050565b60008151808452602080850194506020840160005b838110156134cc578151805164ffffffffff90811689528482015161ffff908116868b01526040808401516dffffffffffffffffffffffffffff16908b0152606080840151909216918a019190915260808083015163ffffffff16908a015260a091820151169088015260c09096019590820190600101613d9e565b600060408084016001600160a01b038085511686526020808601516040828901528381518086526060955060608a019150838301925060005b81811015613e9b5783518051871684528581015162ffffff16868501528881015163ffffffff9081168a86015290880151168784015292840192608090920191600101613e53565b50909998505050505050505050565b60006101008083528a5160c0828501528051915060806101c0850152613ed4610240850183612e04565b915060208101516101bf1980868503016101e0870152613ef48483612e04565b935060408301519150808685030161020087015250613f138382612e04565b92505060608101516102208501525060208b0151613f3a61012085018263ffffffff169052565b5060408b015161014084015260608b015161016084015260808b01516001600160a01b031661018084015260a08b015183820360ff19016101a0850152613f818282613d89565b9150508281036020840152613f96818b613a72565b90508281036040840152613faa818a613e1a565b90508281036060840152613fbe8189613632565b90508281036080840152613fd281886139ad565b905082810360a0840152613fe68187612e04565b915050613ff760c083018515159052565b6001600160a01b03831660e08301529998505050505050505050565b8181038181111561039b5761039b6133a0565b60008351614038818460208801612de0565b83519083019061404c818360208801612de0565b01949350505050565b6000808585111561406557600080fd5b8386111561407257600080fd5b5050820193919092039150565b6bffffffffffffffffffffffff1981358181169160148510156140ac5780818660140360031b1b83161692505b505092915050565b63ffffffff8616815284602082015260a0604082015260006140d960a0830186612e04565b82810360608401526140eb8186612e04565b915050826080830152969550505050505056fea2646970667358221220026b0cc14d8c87107d3bc7dc7489b681613a91e6f3d5a633aa7a606143fddfc664736f6c63430008170033",
			"deployedBytecode": "0x608060405234801561001057600080fd5b50600436106101005760003560e01c80637249a77311610097578063b5d2553311610066578063b5d25533146102c2578063bb199402146102e9578063eb5ad9d9146102fe578063ee0fc1211461031157600080fd5b80637249a7731461022e5780637da0a8771461026f5780639d82ba2514610295578063aaf320d71461029f57600080fd5b80634c4ffc71116100d35780634c4ffc711461019a578063572b6c05146101bb5780635c0a7cee146101fb578063677ce0881461021b57600080fd5b806301ffc9a714610105578063150b7a021461012d5780631d3eedaa1461015957806343681e151461017a575b600080fd5b6101186101133660046123f5565b610338565b60405190151581526020015b60405180910390f35b61014061013b36600461244e565b6103a1565b6040516001600160e01b03199091168152602001610124565b61016c610167366004612c4c565b61046d565b604051908152602001610124565b61016c610188366004612d8b565b60016020526000908152604090205481565b6101ad6101a8366004612da4565b610489565b604051610124929190612ea4565b6101186101c9366004612ec5565b7f000000000000000000000000b2b5841dbef766d4b521221732f9b618fcf34a876001600160a01b0390811691161490565b61020e610209366004612d8b565b610780565b6040516101249190612ee2565b610118610229366004612ef5565b6108a4565b61025761023c366004612d8b565b6000602081905290815260409020546001600160a01b031681565b6040516001600160a01b039091168152602001610124565b7f000000000000000000000000b2b5841dbef766d4b521221732f9b618fcf34a87610257565b61016c6276a70081565b6102b26102ad366004612f25565b6109d9565b6040516101249493929190612f61565b6102577f000000000000000000000000f4c9957e2e1fab09a8b48658f68b46e47b13472481565b6102fc6102f7366004613001565b610b16565b005b6102fc61030c366004612ef5565b610dcd565b6102577f00000000000000000000000075295c69178f42cfe9cf710f307891d6ce47192081565b60006001600160e01b031982167f81c03c2e00000000000000000000000000000000000000000000000000000000148061039b57507f01ffc9a7000000000000000000000000000000000000000000000000000000006001600160e01b03198316145b92915050565b60007f00000000000000000000000075295c69178f42cfe9cf710f307891d6ce4719206001600160a01b031663293c49996040518163ffffffff1660e01b8152600401602060405180830381865afa158015610401573d6000803e3d6000fd5b505050506040513d601f19601f820116820180604052508101906104259190613085565b6001600160a01b0316336001600160a01b03161461044257600080fd5b507f150b7a020000000000000000000000000000000000000000000000000000000095945050505050565b600061047f8686868630600088611287565b9695505050505050565b60c081013560009081526020819052604081205460609081906001600160a01b03168015610541576040517f4c4ffc710000000000000000000000000000000000000000000000000000000081526001600160a01b03821690634c4ffc71906104f690889060040161314d565b600060405180830381865afa158015610513573d6000803e3d6000fd5b505050506040513d6000823e601f3d908101601f1916820160405261053b919081019061321e565b90945091505b815160c086013560009081526004602090815260408083208054825181850281018501909352808352941515949192909190849084015b8282101561065c576000848152602090819020604080516060810182526003860290920180546001600160a01b03168352600181015493830193909352600283018054929392918401916105cb90613366565b80601f01602080910402602001604051908101604052809291908181526020018280546105f790613366565b80156106445780601f1061061957610100808354040283529160200191610644565b820191906000526020600020905b81548152906001019060200180831161062757829003601f168201915b50505050508152505081526020019060010190610578565b50505050905060008151905082610674576000610677565b60015b6106849060ff16826133b6565b67ffffffffffffffff81111561069c5761069c6124ed565b6040519080825280602002602001820160405280156106e957816020015b604080516060808201835260008083526020830152918101919091528152602001906001900390816106ba5790505b50955060005b8181101561073657828181518110610709576107096133c9565b6020026020010151878281518110610723576107236133c9565b60209081029190910101526001016106ef565b5082156107765784600081518110610750576107506133c9565b602002602001015186828151811061076a5761076a6133c9565b60200260200101819052505b5050505050915091565b606060046000838152602001908152602001600020805480602002602001604051908101604052809291908181526020016000905b82821015610899576000848152602090819020604080516060810182526003860290920180546001600160a01b031683526001810154938301939093526002830180549293929184019161080890613366565b80601f016020809104026020016040519081016040528092919081815260200182805461083490613366565b80156108815780601f1061085657610100808354040283529160200191610881565b820191906000526020600020905b81548152906001019060200180831161086457829003601f168201915b505050505081525050815260200190600101906107b5565b505050509050919050565b6000828152602081905260408120546001600160a01b03908116908316036108ce5750600161039b565b6040517f3d12cb87000000000000000000000000000000000000000000000000000000008152600481018490526000907f000000000000000000000000f4c9957e2e1fab09a8b48658f68b46e47b1347246001600160a01b031690633d12cb8790602401600060405180830381865afa15801561094f573d6000803e3d6000fd5b505050506040513d6000823e601f3d908101601f1916820160405261097791908101906133df565b805190915060005b818110156109cd57828181518110610999576109996133c9565b60200260200101516001600160a01b0316856001600160a01b0316036109c5576001935050505061039b565b60010161097f565b50600095945050505050565b6000808060606001600160a01b037f000000000000000000000000f4c9957e2e1fab09a8b48658f68b46e47b134724166383db9d0160408701803590610a229060208a01612ec5565b6040516001600160e01b031960e085901b16815260048101929092526001600160a01b03166024820152604401602060405180830381865afa158015610a6c573d6000803e3d6000fd5b505050506040513d601f19601f82011682018060405250810190610a909190613479565b15610aad5761271085608001358660a00135935093509350610b0f565b604080860135600090815260016020522054421015610af8576040517f04c3b3cd00000000000000000000000000000000000000000000000000000000815260040160405180910390fd5b84610160013585608001358660a001359350935093505b9193509193565b7f00000000000000000000000075295c69178f42cfe9cf710f307891d6ce4719206001600160a01b0316631f47ce696040518163ffffffff1660e01b8152600401602060405180830381865afa158015610b74573d6000803e3d6000fd5b505050506040513d601f19601f82011682018060405250810190610b989190613085565b6001600160a01b031663f434c9146040518163ffffffff1660e01b8152600401602060405180830381865afa158015610bd5573d6000803e3d6000fd5b505050506040513d601f19601f82011682018060405250810190610bf99190613085565b6001600160a01b0316630f5932f0610c0f611a58565b3086610c1a88611a67565b6040518563ffffffff1660e01b8152600401610c3994939291906134d7565b602060405180830381865afa158015610c56573d6000803e3d6000fd5b505050506040513d601f19601f82011682018060405250810190610c7a9190613479565b610c97576040516331fb21f360e01b815260040160405180910390fd5b6000610ca1611a58565b838360200151604051602001610cb993929190613509565b60408051601f1981840301815290829052805160209091012083517f2f3f50e00000000000000000000000000000000000000000000000000000000083529092506001600160a01b037f000000000000000000000000f4c9957e2e1fab09a8b48658f68b46e47b1347241691632f3f50e091610d3b9188918691600401613613565b6000604051808303816000875af1158015610d5a573d6000803e3d6000fd5b505050506040513d6000823e601f3d908101601f19168201604052610d8291908101906133df565b5080847f755ecfca2f6e66af8868551556bf7931740a7062db8e0882f4c322fdb0bb3f608585610db0611a58565b604051610dbf9392919061365b565b60405180910390a350505050565b6000610dd883611a67565b90507f00000000000000000000000075295c69178f42cfe9cf710f307891d6ce4719206001600160a01b0316631f47ce696040518163ffffffff1660e01b8152600401602060405180830381865afa158015610e38573d6000803e3d6000fd5b505050506040513d601f19601f82011682018060405250810190610e5c9190613085565b6001600160a01b031663f434c9146040518163ffffffff1660e01b8152600401602060405180830381865afa158015610e99573d6000803e3d6000fd5b505050506040513d601f19601f82011682018060405250810190610ebd9190613085565b6001600160a01b0316630f5932f0610ed3611a58565b3086856040518563ffffffff1660e01b8152600401610ef594939291906134d7565b602060405180830381865afa158015610f12573d6000803e3d6000fd5b505050506040513d601f19601f82011682018060405250810190610f369190613479565b610f53576040516331fb21f360e01b815260040160405180910390fd5b7f00000000000000000000000075295c69178f42cfe9cf710f307891d6ce4719206001600160a01b0316631f47ce696040518163ffffffff1660e01b8152600401602060405180830381865afa158015610fb1573d6000803e3d6000fd5b505050506040513d601f19601f82011682018060405250810190610fd59190613085565b6001600160a01b031663f434c9146040518163ffffffff1660e01b8152600401602060405180830381865afa158015611012573d6000803e3d6000fd5b505050506040513d601f19601f820116820180604052508101906110369190613085565b6001600160a01b03166305d2912e306040518060600160405280611058611a58565b6001600160a01b0316815260208082018990526040805160008152918201815291820152516001600160e01b031960e085901b16815261109c92919060040161369a565b600060405180830381600087803b1580156110b657600080fd5b505af11580156110ca573d6000803e3d6000fd5b505050507f00000000000000000000000075295c69178f42cfe9cf710f307891d6ce4719206001600160a01b0316631f47ce696040518163ffffffff1660e01b8152600401602060405180830381865afa15801561112c573d6000803e3d6000fd5b505050506040513d601f19601f820116820180604052508101906111509190613085565b6001600160a01b031663f434c9146040518163ffffffff1660e01b8152600401602060405180830381865afa15801561118d573d6000803e3d6000fd5b505050506040513d601f19601f820116820180604052508101906111b19190613085565b6001600160a01b03166305d2912e306040518060600160405280866001600160a01b03168152602001878152602001858152506040518363ffffffff1660e01b815260040161120192919061369a565b600060405180830381600087803b15801561121b57600080fd5b505af115801561122f573d6000803e3d6000fd5b50505050816001600160a01b0316837f0329d6a81434b130c72eb65eea0e32e429dc1277b4aad86ec86454aefb618451611267611a58565b6040516001600160a01b03909116815260200160405180910390a3505050565b6000806000806112988a8888611c1f565b9250925092508a600003611373577f00000000000000000000000075295c69178f42cfe9cf710f307891d6ce4719206001600160a01b0316630634bae9308c6000015160400151868d8f60000151602001516040516020016112fa91906136dd565b6040516020818303038152906040526040518663ffffffff1660e01b8152600401611329959493929190613b0b565b6020604051808303816000875af1158015611348573d6000803e3d6000fd5b505050506040513d601f19601f8201168201806040525081019061136c9190613b73565b9a50611431565b7f00000000000000000000000075295c69178f42cfe9cf710f307891d6ce4719206001600160a01b0316631ea7bc8c8c858c8e60000151602001516040516020016113be91906136dd565b6040516020818303038152906040526040518563ffffffff1660e01b81526004016113ec9493929190613b8c565b6020604051808303816000875af115801561140b573d6000803e3d6000fd5b505050506040513d601f19601f8201168201806040525081019061142f9190613b73565b505b80806114415750468a6060015114155b15611463576114536276a700426133b6565b60008c8152600160205260409020555b7f00000000000000000000000075295c69178f42cfe9cf710f307891d6ce4719206001600160a01b031663581781918c8c60000151600001518d60000151602001518e60000151606001516040518563ffffffff1660e01b81526004016114cd9493929190613bcb565b6020604051808303816000875af11580156114ec573d6000803e3d6000fd5b505050506040513d601f19601f820116820180604052508101906115109190613085565b5087516001600160a01b03161561152b5761152b8b89611fe0565b7f00000000000000000000000075295c69178f42cfe9cf710f307891d6ce4719206001600160a01b031663dd5f214a8c600061156a8e6080015161214b565b6040518463ffffffff1660e01b815260040161158893929190613c08565b600060405180830381600087803b1580156115a257600080fd5b505af11580156115b6573d6000803e3d6000fd5b50505050600060405180606001604052808c608001516001600160a01b031681526020018d81526020016115e98e611a67565b81525090507f00000000000000000000000075295c69178f42cfe9cf710f307891d6ce4719206001600160a01b031663f434c9146040518163ffffffff1660e01b8152600401602060405180830381865afa15801561164c573d6000803e3d6000fd5b505050506040513d601f19601f820116820180604052508101906116709190613085565b6001600160a01b03166305d2912e30836040518363ffffffff1660e01b815260040161169d92919061369a565b600060405180830381600087803b1580156116b757600080fd5b505af11580156116cb573d6000803e3d6000fd5b5050505060008b604001511180156116e65750468b60600151145b156117b4577f00000000000000000000000075295c69178f42cfe9cf710f307891d6ce4719206001600160a01b031663c7fb92de8d8d604001518e608001518f600001516020015160405160200161173e9190613cf7565b60405160208183030381529060405260006040518663ffffffff1660e01b815260040161176f959493929190613d47565b6020604051808303816000875af115801561178e573d6000803e3d6000fd5b505050506040513d601f19601f820116820180604052508101906117b29190613b73565b505b60408051600180825281830190925260009160208083019080368337019050509050601c816000815181106117eb576117eb6133c9565b60200260200101818152505060405180606001604052807f000000000000000000000000f4c9957e2e1fab09a8b48658f68b46e47b1347246001600160a01b031681526020018e81526020018281525091507f00000000000000000000000075295c69178f42cfe9cf710f307891d6ce4719206001600160a01b031663f434c9146040518163ffffffff1660e01b8152600401602060405180830381865afa15801561189b573d6000803e3d6000fd5b505050506040513d601f19601f820116820180604052508101906118bf9190613085565b6001600160a01b03166305d2912e30846040518363ffffffff1660e01b81526004016118ec92919061369a565b600060405180830381600087803b15801561190657600080fd5b505af115801561191a573d6000803e3d6000fd5b505050506020870151156119fa577f000000000000000000000000f4c9957e2e1fab09a8b48658f68b46e47b1347246001600160a01b0316632f3f50e08e611960611a58565b878b6020015160405160200161197893929190613509565b60408051601f198184030181529082905280516020909101208b516001600160e01b031960e086901b1683526119b19392600401613613565b6000604051808303816000875af11580156119d0573d6000803e3d6000fd5b505050506040513d6000823e601f3d908101601f191682016040526119f891908101906133df565b505b8c7f4b827371715024f69a0bc98c8df6edafe6e471e78488ab1b3849de72f66b12e08d8d8d8b8a8a8a611a2b611a58565b604051611a3f989796959493929190613eaa565b60405180910390a2509a9b9a5050505050505050505050565b6000611a62612289565b905090565b606060006002805480602002602001604051908101604052809291908181526020018280548015611ab757602002820191906000526020600020905b815481526020019060010190808311611aa3575b50508351600088815260036020908152604080832080548251818502810185019093528083529899509397929650945091925090830182828015611b1a57602002820191906000526020600020905b815481526020019060010190808311611b06575b50508351939450611b3192508391508590506133b6565b67ffffffffffffffff811115611b4957611b496124ed565b604051908082528060200260200182016040528015611b72578160200160208202803683370190505b50945060005b83811015611bbf57848181518110611b9257611b926133c9565b6020026020010151868281518110611bac57611bac6133c9565b6020908102919091010152600101611b78565b5060005b81811015611c1557828181518110611bdd57611bdd6133c9565b6020026020010151868286611bf291906133b6565b81518110611c0257611c026133c9565b6020908102919091010152600101611bc3565b5050505050919050565b6060806000808660a001515190508067ffffffffffffffff811115611c4657611c466124ed565b604051908082528060200260200182016040528015611d3857816020015b611d256040805161010080820183526000808352602080840182905283850182905260608085018390526080808601849052865161020081018852848152928301849052958201839052810182905293840181905260a084810182905260c0850182905260e0850182905291840181905261012084018190526101408401819052610160840181905261018084018190526101a084018190526101c084018190526101e0840152909190820190815260200160608152602001606081525090565b815260200190600190039081611c645790505b509350611d44876122fe565b6040805160c081018252600080825260208201819052918101829052606081018290526080810182905260a081018290529194505b82811015611fd4578860a001518181518110611d9757611d976133c9565b60200260200101519150816000015164ffffffffff16868281518110611dbf57611dbf6133c9565b60200260200101516000018181525050816060015164ffffffffff16868281518110611ded57611ded6133c9565b6020026020010151602001818152505081604001516dffffffffffffffffffffffffffff16868281518110611e2457611e246133c9565b60200260200101516040018181525050816080015163ffffffff16868281518110611e5157611e516133c9565b602002602001015160600181815250506000868281518110611e7557611e756133c9565b6020026020010151608001906001600160a01b031690816001600160a01b031681525050604051806102000160405280836020015161ffff1681526020018360a0015161ffff16612710611ec99190614013565b815260208b81015163ffffffff16908201526000604082018190526060820181905260016080830181905260a0830182905260c0830182905260e083018290526101008301829052610120830182905261014083018290526101608301526101808201526001600160a01b038a166101a08201526101c0018890528651879083908110611f5857611f586133c9565b602002602001015160a00181905250806000148015611f7e5750815164ffffffffff1615155b8015611f94575042826000015164ffffffffff16105b15611f9e57600193505b84611fa9838361233f565b604051602001611fba929190614026565b60408051601f198184030181529190529450600101611d79565b50505093509350939050565b602081810151516040805160808101825260008082529381018490529081018390526060810183905290915b828110156120ff578360200151818151811061202a5761202a6133c9565b6020908102919091018101518551918101516040808301516060840151845192517f7b621d3a000000000000000000000000000000000000000000000000000000008152600481018c905262ffffff909416602485015263ffffffff91821660448501521660648301526001600160a01b039081166084830152919450911690637b621d3a9060a4016020604051808303816000875af11580156120d2573d6000803e3d6000fd5b505050506040513d601f19601f820116820180604052508101906120f69190613085565b5060010161200c565b5050905160009283526020839052604090922080547fffffffffffffffffffffffff0000000000000000000000000000000000000000166001600160a01b039093169290921790915550565b604080516001808252818301909252606091816020015b60408051808201909152600081526060602082015281526020019060019003908161216257505060408051600180825281830190925291925060009190602082015b6040805160c08101825260008082526020808301829052928201819052606082018190526080820181905260a082015282526000199092019101816121a45790505090506040518060c00160405280600015158152602001633b9aca00815260200160008152602001846001600160a01b031681526020016000815260200160006001600160a01b031681525081600081518110612244576122446133c9565b60200260200101819052506040518060400160405280600181526020018281525082600081518110612278576122786133c9565b602002602001018190525050919050565b6000366014336001600160a01b037f000000000000000000000000b2b5841dbef766d4b521221732f9b618fcf34a87161480156122c65750808210155b156122f6576000366122d88385614013565b6122e3928290614055565b6122ec9161407f565b60601c9250505090565b339250505090565b60208082015160608381015184518051818601519184015160405194966123299695929392016140b4565b6040516020818303038152906040529050919050565b6060811580156123555750825164ffffffffff16155b61236757825164ffffffffff16612369565b425b83602001518460400151856060015186608001518760a001516040516020016123de9695949392919095865261ffff94851660208701526dffffffffffffffffffffffffffff93909316604086015264ffffffffff91909116606085015263ffffffff1660808401521660a082015260c00190565b604051602081830303815290604052905092915050565b60006020828403121561240757600080fd5b81356001600160e01b03198116811461241f57600080fd5b9392505050565b6001600160a01b038116811461243b57600080fd5b50565b803561244981612426565b919050565b60008060008060006080868803121561246657600080fd5b853561247181612426565b9450602086013561248181612426565b935060408601359250606086013567ffffffffffffffff808211156124a557600080fd5b818801915088601f8301126124b957600080fd5b8135818111156124c857600080fd5b8960208285010111156124da57600080fd5b9699959850939650602001949392505050565b634e487b7160e01b600052604160045260246000fd5b6040516080810167ffffffffffffffff81118282101715612526576125266124ed565b60405290565b60405160c0810167ffffffffffffffff81118282101715612526576125266124ed565b6040805190810167ffffffffffffffff81118282101715612526576125266124ed565b6040516060810167ffffffffffffffff81118282101715612526576125266124ed565b604051601f8201601f1916810167ffffffffffffffff811182821017156125be576125be6124ed565b604052919050565b600067ffffffffffffffff8211156125e0576125e06124ed565b50601f01601f191660200190565b60006126016125fc846125c6565b612595565b905082815283838301111561261557600080fd5b828260208301376000602084830101529392505050565b600082601f83011261263d57600080fd5b61241f838335602085016125ee565b60006080828403121561265e57600080fd5b612666612503565b9050813567ffffffffffffffff8082111561268057600080fd5b61268c8583860161262c565b835260208401359150808211156126a257600080fd5b6126ae8583860161262c565b602084015260408401359150808211156126c757600080fd5b506126d48482850161262c565b6040830152506060820135606082015292915050565b803563ffffffff8116811461244957600080fd5b600067ffffffffffffffff821115612718576127186124ed565b5060051b60200190565b803564ffffffffff8116811461244957600080fd5b803561ffff8116811461244957600080fd5b600082601f83011261275a57600080fd5b8135602061276a6125fc836126fe565b82815260c0928302850182019282820191908785111561278957600080fd5b8387015b8581101561282e5781818a0312156127a55760008081fd5b6127ad61252c565b6127b682612722565b81526127c3868301612737565b868201526040808301356dffffffffffffffffffffffffffff811681146127ea5760008081fd5b9082015260606127fb838201612722565b90820152608061280c8382016126ea565b9082015260a061281d838201612737565b90820152845292840192810161278d565b5090979650505050505050565b600082601f83011261284c57600080fd5b8135602061285c6125fc836126fe565b828152600592831b850182019282820191908785111561287b57600080fd5b8387015b8581101561282e57803567ffffffffffffffff808211156128a05760008081fd5b908901906040828c03601f19018113156128ba5760008081fd5b6128c261254f565b888401356128cf81612426565b815283820135838111156128e35760008081fd5b8085019450508c603f8501126128fb57600092508283fd5b88840135925061290d6125fc846126fe565b83815292861b8401820192898101908e85111561292a5760008081fd5b948301945b84861015612954578535935061294484612426565b838252948a0194908a019061292f565b828b015250875250505092840192840161287f565b6000604080838503121561297c57600080fd5b61298461254f565b9150823561299181612426565b825260208381013567ffffffffffffffff8111156129ae57600080fd5b8401601f810186136129bf57600080fd5b80356129cd6125fc826126fe565b81815260079190911b820183019083810190888311156129ec57600080fd5b928401925b82841015612a6b576080848a031215612a0a5760008081fd5b612a12612503565b8435612a1d81612426565b81528486013562ffffff81168114612a355760008081fd5b81870152612a448588016126ea565b878201526060612a558187016126ea565b90820152825260809390930192908401906129f1565b808588015250505050505092915050565b600060408284031215612a8e57600080fd5b612a9661254f565b905067ffffffffffffffff8083351115612aaf57600080fd5b8235830184601f820112612ac257600080fd5b612acf6125fc82356126fe565b81358082526020808301929160051b84010187811115612aee57600080fd5b602084015b81811015612c33578581351115612b0957600080fd5b803585016040818b03601f19011215612b2157600080fd5b612b2961254f565b612b366020830135612426565b602082013581528760408301351115612b4e57600080fd5b6040820135820191508a603f830112612b6657600080fd5b6020820135612b776125fc826126fe565b81815260079190911b83016040019060208101908d831115612b9857600080fd5b6040850194505b82851015612c14576080858f031215612bb757600080fd5b612bbf612503565b612bc98635612426565b85358152612bd9602087016126ea565b6020820152612beb6040870135612426565b604086013560408201526060860135606082015280835250602082019150608085019450612b9f565b8060208501525050508086525050602084019350602081019050612af3565b5050808552505050506020820135602082015292915050565b600080600080600060a08688031215612c6457600080fd5b85359450602086013567ffffffffffffffff80821115612c8357600080fd5b9087019060c0828a031215612c9757600080fd5b612c9f61252c565b823582811115612cae57600080fd5b612cba8b82860161264c565b825250612cc9602084016126ea565b60208201526040830135604082015260608301356060820152612cee6080840161243e565b608082015260a083013582811115612d0557600080fd5b612d118b828601612749565b60a08301525095506040880135915080821115612d2d57600080fd5b612d3989838a0161283b565b94506060880135915080821115612d4f57600080fd5b612d5b89838a01612969565b93506080880135915080821115612d7157600080fd5b50612d7e88828901612a7c565b9150509295509295909350565b600060208284031215612d9d57600080fd5b5035919050565b600060208284031215612db657600080fd5b813567ffffffffffffffff811115612dcd57600080fd5b8201610180818503121561241f57600080fd5b60005b83811015612dfb578181015183820152602001612de3565b50506000910152565b60008151808452612e1c816020860160208601612de0565b601f01601f19169290920160200192915050565b600082825180855260208086019550808260051b84010181860160005b8481101561282e57858303601f19018952815180516001600160a01b031684528481015185850152604090810151606091850182905290612e9081860183612e04565b9a86019a9450505090830190600101612e4d565b828152604060208201526000612ebd6040830184612e30565b949350505050565b600060208284031215612ed757600080fd5b813561241f81612426565b60208152600061241f6020830184612e30565b60008060408385031215612f0857600080fd5b823591506020830135612f1a81612426565b809150509250929050565b600060208284031215612f3757600080fd5b813567ffffffffffffffff811115612f4e57600080fd5b82016101a0818503121561241f57600080fd5b60006080820186835260208681850152604086604086015260606080606087015283875180865260a08801915060a08160051b890101955084890160005b82811015612fef57898803609f19018452815180516001600160a01b0316895287810151888a0152860151868901869052612fdc868a0182612e04565b9850509286019290860190600101612f9f565b50959c9b505050505050505050505050565b60008060006060848603121561301657600080fd5b83359250602084013567ffffffffffffffff8082111561303557600080fd5b818601915086601f83011261304957600080fd5b613058878335602085016125ee565b9350604086013591508082111561306e57600080fd5b5061307b86828701612a7c565b9150509250925092565b60006020828403121561309757600080fd5b815161241f81612426565b80356130ad81612426565b6001600160a01b031682526020818101359083015260408082013590830152606090810135910152565b6000808335601e198436030181126130ee57600080fd5b830160208101925035905067ffffffffffffffff81111561310e57600080fd5b80360382131561311d57600080fd5b9250929050565b81835281816020850137506000828201602090810191909152601f909101601f19169091010190565b6020815261316e602082016131618461243e565b6001600160a01b03169052565b600061317c6020840161243e565b6001600160a01b03811660408401525061319c60608301604085016130a2565b60c083013560e083015261010060e0840135818401526131bd81850161243e565b90506101206131d6818501836001600160a01b03169052565b610140915080850135828501525061016081850135818501526131fb818601866130d7565b61018086810152925090506132156101a085018383613124565b95945050505050565b600080604080848603121561323257600080fd5b8351925060208085015167ffffffffffffffff8082111561325257600080fd5b818701915087601f83011261326657600080fd5b81516132746125fc826126fe565b81815260059190911b8301840190848101908a83111561329357600080fd5b8585015b83811015613354578051858111156132ae57600080fd5b86016060818e03601f190112156132c55760008081fd5b6132cd612572565b888201516132da81612426565b8152818a0151898201526060820151878111156132f75760008081fd5b8083019250508d603f83011261330d5760008081fd5b8882015161331d6125fc826125c6565b8181528f8c8386010111156133325760008081fd5b613341828c83018e8701612de0565b828c015250845250918601918601613297565b50809750505050505050509250929050565b600181811c9082168061337a57607f821691505b60208210810361339a57634e487b7160e01b600052602260045260246000fd5b50919050565b634e487b7160e01b600052601160045260246000fd5b8082018082111561039b5761039b6133a0565b634e487b7160e01b600052603260045260246000fd5b600060208083850312156133f257600080fd5b825167ffffffffffffffff81111561340957600080fd5b8301601f8101851361341a57600080fd5b80516134286125fc826126fe565b81815260059190911b8201830190838101908783111561344757600080fd5b928401925b8284101561346e57835161345f81612426565b8252928401929084019061344c565b979650505050505050565b60006020828403121561348b57600080fd5b8151801515811461241f57600080fd5b60008151808452602080850194506020840160005b838110156134cc578151875295820195908201906001016134b0565b509495945050505050565b60006001600160a01b0380871683528086166020840152508360408301526080606083015261047f608083018461349b565b6bffffffffffffffffffffffff198460601b16815260008351613533816014850160208801612de0565b60149201918201929092526034019392505050565b600082825180855260208086019550808260051b8401018186016000805b8581101561360557868403601f19018a52825180516001600160a01b03908116865290860151604087870181905281518188018190529188019290916060919082890190875b818110156135ed5786518051851684528c81015163ffffffff168d8501528681015185168785015285015185840152958b01956080909201916001016135ac565b50509d89019d97505050938601935050600101613566565b509198975050505050505050565b8381528260208201526060604082015260006132156060830184613548565b60008151604084526136476040850182613548565b602093840151949093019390935250919050565b60608152600061366e6060830186612e04565b82810360208401526136808186613632565b9150506001600160a01b0383166040830152949350505050565b60006001600160a01b03808516835260406020840152808451166040840152506020830151606083015260408301516060608084015261321560a084018261349b565b600960fa1b8152600082516136f9816001850160208701612de0565b7f207265766e6574206465706c6f796564000000000000000000000000000000006001939091019283015250601101919050565b8051825260208101516020830152604081015160408301526060810151613758606084018215159052565b50608081015161376c608084018215159052565b5060a081015161378060a084018215159052565b5060c081015161379460c084018215159052565b5060e08101516137a860e084018215159052565b5061010081810151151590830152610120808201511515908301526101408082015115159083015261016080820151151590830152610180808201511515908301526101a0808201511515908301526101c0808201516001600160a01b0316908301526101e090810151910152565b600082825180855260208086019550808260051b8401018186016000805b8581101561360557868403601f19018a52825180518552850151604086860181905281518187018190529187019160609081880190865b818110156138c65785518051151584528b8101518c8501528581015186850152848101516001600160a01b03908116868601526080808301519086015260a0918201511690840152948a019460c09092019160010161386c565b50509c88019c965050509285019250600101613835565b60008151808452602080850194506020840160005b838110156134cc5781518051885283015183880152604090960195908201906001016138f2565b600082825180855260208086019550808260051b84010181860160005b8481101561282e57601f19868403018952815160806001600160a01b038083511686528087840151168787015250604080830151828288015261397b838801826138dd565b925050506060808301519250858203818701525061399981836138dd565b9a86019a9450505090830190600101613936565b600082825180855260208086019550808260051b84010181860160005b8481101561282e57858303601f19018952815180518452848101518585015260408082015190850152606080820151908501526080808201516001600160a01b03169085015260a0808201516102e09190613a278288018261372d565b505060c0820151816102a0870152613a4182870182613817565b91505060e082015191508481036102c0860152613a5e8183613919565b9a86019a94505050908301906001016139ca565b600082825180855260208086019550808260051b8401018186016000805b8581101561360557868403601f19018a52825180516001600160a01b03908116865290860151604087870181905281519087018190529087019160608701918591905b80831015613af557845182168452938901939289019260019290920191613ad3565b5050509a86019a94505091840191600101613a90565b6001600160a01b038616815260a060208201526000613b2d60a0830187612e04565b8281036040840152613b3f81876139ad565b90508281036060840152613b538186613a72565b90508281036080840152613b678185612e04565b98975050505050505050565b600060208284031215613b8557600080fd5b5051919050565b848152608060208201526000613ba560808301866139ad565b8281036040840152613bb78186613a72565b9050828103606084015261346e8185612e04565b848152608060208201526000613be46080830186612e04565b8281036040840152613bf68186612e04565b91505082606083015295945050505050565b600060608083018684526020868186015260406060604087015282875180855260808801915060808160051b890101945083890160005b82811015613ce657898703607f190184528151805188528601518688018690528051868901819052908701906000908a8a01905b80831015613cd15783518051151583528a8101518b840152898101518a8401528c8101516001600160a01b039081168e8501526080808301519085015260a0918201511690830152928901926001929092019160c090910190613c73565b50985050509285019290850190600101613c3f565b50949b9a5050505050505050505050565b600960fa1b815260008251613d13816001850160208701612de0565b7f207072656d696e746564000000000000000000000000000000000000000000006001939091019283015250600b01919050565b8581528460208201526001600160a01b038416604082015260a060608201526000613d7560a0830185612e04565b905082151560808301529695505050505050565b60008151808452602080850194506020840160005b838110156134cc578151805164ffffffffff90811689528482015161ffff908116868b01526040808401516dffffffffffffffffffffffffffff16908b0152606080840151909216918a019190915260808083015163ffffffff16908a015260a091820151169088015260c09096019590820190600101613d9e565b600060408084016001600160a01b038085511686526020808601516040828901528381518086526060955060608a019150838301925060005b81811015613e9b5783518051871684528581015162ffffff16868501528881015163ffffffff9081168a86015290880151168784015292840192608090920191600101613e53565b50909998505050505050505050565b60006101008083528a5160c0828501528051915060806101c0850152613ed4610240850183612e04565b915060208101516101bf1980868503016101e0870152613ef48483612e04565b935060408301519150808685030161020087015250613f138382612e04565b92505060608101516102208501525060208b0151613f3a61012085018263ffffffff169052565b5060408b015161014084015260608b015161016084015260808b01516001600160a01b031661018084015260a08b015183820360ff19016101a0850152613f818282613d89565b9150508281036020840152613f96818b613a72565b90508281036040840152613faa818a613e1a565b90508281036060840152613fbe8189613632565b90508281036080840152613fd281886139ad565b905082810360a0840152613fe68187612e04565b915050613ff760c083018515159052565b6001600160a01b03831660e08301529998505050505050505050565b8181038181111561039b5761039b6133a0565b60008351614038818460208801612de0565b83519083019061404c818360208801612de0565b01949350505050565b6000808585111561406557600080fd5b8386111561407257600080fd5b5050820193919092039150565b6bffffffffffffffffffffffff1981358181169160148510156140ac5780818660140360031b1b83161692505b505092915050565b63ffffffff8616815284602082015260a0604082015260006140d960a0830186612e04565b82810360608401526140eb8186612e04565b915050826080830152969550505050505056fea2646970667358221220026b0cc14d8c87107d3bc7dc7489b681613a91e6f3d5a633aa7a606143fddfc664736f6c63430008170033",
			"devdoc": {
				"kind": "dev",
				"methods": {
					"beforePayRecordedWith((address,address,(address,uint256,uint256,uint256),uint256,uint256,address,uint256,uint256,bytes))": {
						"details": "Part of IJBFundingCycleDataSource.This implementation just sets this contract up to receive a `didPay` call.",
						"params": {
							"context": "The Juicebox standard network payment context. See"
						},
						"returns": {
							"hookSpecifications": "Amount to be sent to pay hooks instead of adding to local balance. Useful for auto-routing funds from a treasury as payment come in.",
							"weight": "The weight that network tokens should get minted relative to. This is useful for optionally customizing how many tokens are issued per payment."
						}
					},
					"constructor": {
						"params": {
							"controller": "The controller that revnets are made from.",
							"suckerRegistry": "The registry that deploys and tracks each project's suckers.",
							"trustedForwarder": "The trusted forwarder for the ERC2771Context."
						}
					},
					"deploySuckersFor(uint256,bytes,((address,(address,uint32,address,uint256)[])[],bytes32))": {
						"params": {
							"encodedConfiguration": "A bytes representation of the revnet's configuration.",
							"revnetId": "The ID of the revnet having new suckers deployed.",
							"suckerDeploymentConfiguration": "The specifics about the suckers being deployed."
						}
					},
					"hasMintPermissionFor(uint256,address)": {
						"params": {
							"addr": "The address to check if has permissions.",
							"revnetId": "The ID of the revnet to check permissions for."
						},
						"returns": {
							"_0": "flag The flag indicating if the address has permissions to mint on the revnet's behalf."
						}
					},
					"isTrustedForwarder(address)": {
						"details": "Indicates whether any particular address is the trusted forwarder."
					},
					"launchRevnetFor(uint256,((string,string,string,bytes32),uint32,uint256,uint256,address,(uint40,uint16,uint112,uint40,uint32,uint16)[]),(address,address[])[],(address,(address,uint24,uint32,uint32)[]),((address,(address,uint32,address,uint256)[])[],bytes32))": {
						"params": {
							"buybackHookConfiguration": "Data used for setting up the buyback hook to use when determining the best price for new participants.",
							"configuration": "The data needed to deploy a basic revnet.",
							"revnetId": "The ID of the Juicebox project to turn into a revnet. Send 0 to deploy a new revnet.",
							"suckerDeploymentConfiguration": "Information about how this revnet relates to other's across chains.",
							"terminalConfigurations": "The terminals that the network uses to accept payments through."
						},
						"returns": {
							"_0": "revnetId The ID of the newly created revnet."
						}
					},
					"onERC721Received(address,address,uint256,bytes)": {
						"details": "Make sure only mints can be received."
					},
					"payHookSpecificationsOf(uint256)": {
						"params": {
							"revnetId": "The ID of the revnet to which the extensions apply."
						},
						"returns": {
							"_0": "payHookSpecifications The pay hooks."
						}
					},
					"replaceSplitOperatorOf(uint256,address)": {
						"params": {
							"newSplitOperator": "The address of the new split operator.",
							"revnetId": "The ID of the revnet having its operator replaced."
						}
					},
					"supportsInterface(bytes4)": {
						"details": "See {IERC165-supportsInterface}.",
						"params": {
							"interfaceId": "The ID of the interface to check for adherence to."
						},
						"returns": {
							"_0": "A flag indicating if the provided interface ID is supported."
						}
					},
					"trustedForwarder()": {
						"details": "Returns the address of the trusted forwarder."
					}
				},
				"version": 1
			},
			"userdoc": {
				"kind": "user",
				"methods": {
					"CONTROLLER()": {
						"notice": "The controller that networks are made from."
					},
					"EXIT_DELAY()": {
						"notice": "The amount of time from a sucker being deployed to when it can facilitate exits."
					},
					"SUCKER_REGISTRY()": {
						"notice": "The registry that deploys and tracks each project's suckers."
					},
					"beforePayRecordedWith((address,address,(address,uint256,uint256,uint256),uint256,uint256,address,uint256,uint256,bytes))": {
						"notice": "This function gets called when the revnet receives a payment."
					},
					"beforeRedeemRecordedWith((address,address,uint256,uint256,uint256,uint256,(address,uint256,uint256,uint256),bool,uint256,bytes))": {
						"notice": "This function is never called, it needs to be included to adhere to the interface."
					},
					"buybackHookOf(uint256)": {
						"notice": "The data hook that returns the correct values for the buyback hook of each network."
					},
					"deploySuckersFor(uint256,bytes,((address,(address,uint32,address,uint256)[])[],bytes32))": {
						"notice": "Allows a revnet's split operator to deploy new suckers to the revnet after it's deployed."
					},
					"exitDelayOf(uint256)": {
						"notice": "The time at which exits from a revnet become allowed."
					},
					"hasMintPermissionFor(uint256,address)": {
						"notice": "Required by the IJBRulesetDataHook interfaces."
					},
					"launchRevnetFor(uint256,((string,string,string,bytes32),uint32,uint256,uint256,address,(uint40,uint16,uint112,uint40,uint32,uint16)[]),(address,address[])[],(address,(address,uint24,uint32,uint32)[]),((address,(address,uint32,address,uint256)[])[],bytes32))": {
						"notice": "Launch a basic revnet."
					},
					"payHookSpecificationsOf(uint256)": {
						"notice": "The pay hooks to include during payments to networks."
					},
					"replaceSplitOperatorOf(uint256,address)": {
						"notice": "A revnet's operator can replace itself."
					},
					"supportsInterface(bytes4)": {
						"notice": "Indicates if this contract adheres to the specified interface."
					}
				},
				"version": 1
			},
			"gitCommit": "ec8b7bb50f6b539e1d594b1092b78b13a517c7a3",
			"sourceName": "src/REVBasicDeployer.sol",
			"chainId": "11155111",
			"linkReferences": {},
			"deployedLinkReferences": {}
		},
		{
			"_format": "sphinx-sol-ct-artifact-1",
			"merkleRoot": "0x2df8f06620610415d6ef29d718ef30921b087659677ae2a0ba469618a8ab2a2b",
			"contractName": "REVBasicDeployer",
			"address": "0x586431a0CF041d868034E7446Cb6cbDe43566088",
			"abi": [
				{
					"type": "constructor",
					"inputs": [
						{
							"name": "controller",
							"type": "address",
							"internalType": "contract IJBController"
						},
						{
							"name": "suckerRegistry",
							"type": "address",
							"internalType": "contract IBPSuckerRegistry"
						},
						{
							"name": "trustedForwarder",
							"type": "address",
							"internalType": "address"
						}
					],
					"stateMutability": "nonpayable"
				},
				{
					"type": "function",
					"name": "CONTROLLER",
					"inputs": [],
					"outputs": [
						{
							"name": "",
							"type": "address",
							"internalType": "contract IJBController"
						}
					],
					"stateMutability": "view"
				},
				{
					"type": "function",
					"name": "EXIT_DELAY",
					"inputs": [],
					"outputs": [
						{
							"name": "",
							"type": "uint256",
							"internalType": "uint256"
						}
					],
					"stateMutability": "view"
				},
				{
					"type": "function",
					"name": "SUCKER_REGISTRY",
					"inputs": [],
					"outputs": [
						{
							"name": "",
							"type": "address",
							"internalType": "contract IBPSuckerRegistry"
						}
					],
					"stateMutability": "view"
				},
				{
					"type": "function",
					"name": "beforePayRecordedWith",
					"inputs": [
						{
							"name": "context",
							"type": "tuple",
							"internalType": "struct JBBeforePayRecordedContext",
							"components": [
								{
									"name": "terminal",
									"type": "address",
									"internalType": "address"
								},
								{
									"name": "payer",
									"type": "address",
									"internalType": "address"
								},
								{
									"name": "amount",
									"type": "tuple",
									"internalType": "struct JBTokenAmount",
									"components": [
										{
											"name": "token",
											"type": "address",
											"internalType": "address"
										},
										{
											"name": "value",
											"type": "uint256",
											"internalType": "uint256"
										},
										{
											"name": "decimals",
											"type": "uint256",
											"internalType": "uint256"
										},
										{
											"name": "currency",
											"type": "uint256",
											"internalType": "uint256"
										}
									]
								},
								{
									"name": "projectId",
									"type": "uint256",
									"internalType": "uint256"
								},
								{
									"name": "rulesetId",
									"type": "uint256",
									"internalType": "uint256"
								},
								{
									"name": "beneficiary",
									"type": "address",
									"internalType": "address"
								},
								{
									"name": "weight",
									"type": "uint256",
									"internalType": "uint256"
								},
								{
									"name": "reservedRate",
									"type": "uint256",
									"internalType": "uint256"
								},
								{
									"name": "metadata",
									"type": "bytes",
									"internalType": "bytes"
								}
							]
						}
					],
					"outputs": [
						{
							"name": "weight",
							"type": "uint256",
							"internalType": "uint256"
						},
						{
							"name": "hookSpecifications",
							"type": "tuple[]",
							"internalType": "struct JBPayHookSpecification[]",
							"components": [
								{
									"name": "hook",
									"type": "address",
									"internalType": "contract IJBPayHook"
								},
								{
									"name": "amount",
									"type": "uint256",
									"internalType": "uint256"
								},
								{
									"name": "metadata",
									"type": "bytes",
									"internalType": "bytes"
								}
							]
						}
					],
					"stateMutability": "view"
				},
				{
					"type": "function",
					"name": "beforeRedeemRecordedWith",
					"inputs": [
						{
							"name": "context",
							"type": "tuple",
							"internalType": "struct JBBeforeRedeemRecordedContext",
							"components": [
								{
									"name": "terminal",
									"type": "address",
									"internalType": "address"
								},
								{
									"name": "holder",
									"type": "address",
									"internalType": "address"
								},
								{
									"name": "projectId",
									"type": "uint256",
									"internalType": "uint256"
								},
								{
									"name": "rulesetId",
									"type": "uint256",
									"internalType": "uint256"
								},
								{
									"name": "redeemCount",
									"type": "uint256",
									"internalType": "uint256"
								},
								{
									"name": "totalSupply",
									"type": "uint256",
									"internalType": "uint256"
								},
								{
									"name": "surplus",
									"type": "tuple",
									"internalType": "struct JBTokenAmount",
									"components": [
										{
											"name": "token",
											"type": "address",
											"internalType": "address"
										},
										{
											"name": "value",
											"type": "uint256",
											"internalType": "uint256"
										},
										{
											"name": "decimals",
											"type": "uint256",
											"internalType": "uint256"
										},
										{
											"name": "currency",
											"type": "uint256",
											"internalType": "uint256"
										}
									]
								},
								{
									"name": "useTotalSurplus",
									"type": "bool",
									"internalType": "bool"
								},
								{
									"name": "redemptionRate",
									"type": "uint256",
									"internalType": "uint256"
								},
								{
									"name": "metadata",
									"type": "bytes",
									"internalType": "bytes"
								}
							]
						}
					],
					"outputs": [
						{
							"name": "",
							"type": "uint256",
							"internalType": "uint256"
						},
						{
							"name": "",
							"type": "uint256",
							"internalType": "uint256"
						},
						{
							"name": "",
							"type": "uint256",
							"internalType": "uint256"
						},
						{
							"name": "specifications",
							"type": "tuple[]",
							"internalType": "struct JBRedeemHookSpecification[]",
							"components": [
								{
									"name": "hook",
									"type": "address",
									"internalType": "contract IJBRedeemHook"
								},
								{
									"name": "amount",
									"type": "uint256",
									"internalType": "uint256"
								},
								{
									"name": "metadata",
									"type": "bytes",
									"internalType": "bytes"
								}
							]
						}
					],
					"stateMutability": "view"
				},
				{
					"type": "function",
					"name": "buybackHookOf",
					"inputs": [
						{
							"name": "revnetId",
							"type": "uint256",
							"internalType": "uint256"
						}
					],
					"outputs": [
						{
							"name": "buybackHook",
							"type": "address",
							"internalType": "contract IJBRulesetDataHook"
						}
					],
					"stateMutability": "view"
				},
				{
					"type": "function",
					"name": "deploySuckersFor",
					"inputs": [
						{
							"name": "revnetId",
							"type": "uint256",
							"internalType": "uint256"
						},
						{
							"name": "encodedConfiguration",
							"type": "bytes",
							"internalType": "bytes"
						},
						{
							"name": "suckerDeploymentConfiguration",
							"type": "tuple",
							"internalType": "struct REVSuckerDeploymentConfig",
							"components": [
								{
									"name": "deployerConfigurations",
									"type": "tuple[]",
									"internalType": "struct BPSuckerDeployerConfig[]",
									"components": [
										{
											"name": "deployer",
											"type": "address",
											"internalType": "contract IBPSuckerDeployer"
										},
										{
											"name": "mappings",
											"type": "tuple[]",
											"internalType": "struct BPTokenMapping[]",
											"components": [
												{
													"name": "localToken",
													"type": "address",
													"internalType": "address"
												},
												{
													"name": "minGas",
													"type": "uint32",
													"internalType": "uint32"
												},
												{
													"name": "remoteToken",
													"type": "address",
													"internalType": "address"
												},
												{
													"name": "minBridgeAmount",
													"type": "uint256",
													"internalType": "uint256"
												}
											]
										}
									]
								},
								{
									"name": "salt",
									"type": "bytes32",
									"internalType": "bytes32"
								}
							]
						}
					],
					"outputs": [],
					"stateMutability": "nonpayable"
				},
				{
					"type": "function",
					"name": "exitDelayOf",
					"inputs": [
						{
							"name": "revnetId",
							"type": "uint256",
							"internalType": "uint256"
						}
					],
					"outputs": [
						{
							"name": "exitDelay",
							"type": "uint256",
							"internalType": "uint256"
						}
					],
					"stateMutability": "view"
				},
				{
					"type": "function",
					"name": "hasMintPermissionFor",
					"inputs": [
						{
							"name": "revnetId",
							"type": "uint256",
							"internalType": "uint256"
						},
						{
							"name": "addr",
							"type": "address",
							"internalType": "address"
						}
					],
					"outputs": [
						{
							"name": "",
							"type": "bool",
							"internalType": "bool"
						}
					],
					"stateMutability": "view"
				},
				{
					"type": "function",
					"name": "isTrustedForwarder",
					"inputs": [
						{
							"name": "forwarder",
							"type": "address",
							"internalType": "address"
						}
					],
					"outputs": [
						{
							"name": "",
							"type": "bool",
							"internalType": "bool"
						}
					],
					"stateMutability": "view"
				},
				{
					"type": "function",
					"name": "launchRevnetFor",
					"inputs": [
						{
							"name": "revnetId",
							"type": "uint256",
							"internalType": "uint256"
						},
						{
							"name": "configuration",
							"type": "tuple",
							"internalType": "struct REVConfig",
							"components": [
								{
									"name": "description",
									"type": "tuple",
									"internalType": "struct REVDescription",
									"components": [
										{
											"name": "name",
											"type": "string",
											"internalType": "string"
										},
										{
											"name": "ticker",
											"type": "string",
											"internalType": "string"
										},
										{
											"name": "uri",
											"type": "string",
											"internalType": "string"
										},
										{
											"name": "salt",
											"type": "bytes32",
											"internalType": "bytes32"
										}
									]
								},
								{
									"name": "baseCurrency",
									"type": "uint32",
									"internalType": "uint32"
								},
								{
									"name": "premintTokenAmount",
									"type": "uint256",
									"internalType": "uint256"
								},
								{
									"name": "premintChainId",
									"type": "uint256",
									"internalType": "uint256"
								},
								{
									"name": "initialSplitOperator",
									"type": "address",
									"internalType": "address"
								},
								{
									"name": "stageConfigurations",
									"type": "tuple[]",
									"internalType": "struct REVStageConfig[]",
									"components": [
										{
											"name": "startsAtOrAfter",
											"type": "uint40",
											"internalType": "uint40"
										},
										{
											"name": "splitRate",
											"type": "uint16",
											"internalType": "uint16"
										},
										{
											"name": "initialIssuanceRate",
											"type": "uint112",
											"internalType": "uint112"
										},
										{
											"name": "priceCeilingIncreaseFrequency",
											"type": "uint40",
											"internalType": "uint40"
										},
										{
											"name": "priceCeilingIncreasePercentage",
											"type": "uint32",
											"internalType": "uint32"
										},
										{
											"name": "priceFloorTaxIntensity",
											"type": "uint16",
											"internalType": "uint16"
										}
									]
								}
							]
						},
						{
							"name": "terminalConfigurations",
							"type": "tuple[]",
							"internalType": "struct JBTerminalConfig[]",
							"components": [
								{
									"name": "terminal",
									"type": "address",
									"internalType": "contract IJBTerminal"
								},
								{
									"name": "tokensToAccept",
									"type": "address[]",
									"internalType": "address[]"
								}
							]
						},
						{
							"name": "buybackHookConfiguration",
							"type": "tuple",
							"internalType": "struct REVBuybackHookConfig",
							"components": [
								{
									"name": "hook",
									"type": "address",
									"internalType": "contract IJBBuybackHook"
								},
								{
									"name": "poolConfigurations",
									"type": "tuple[]",
									"internalType": "struct REVBuybackPoolConfig[]",
									"components": [
										{
											"name": "token",
											"type": "address",
											"internalType": "address"
										},
										{
											"name": "fee",
											"type": "uint24",
											"internalType": "uint24"
										},
										{
											"name": "twapWindow",
											"type": "uint32",
											"internalType": "uint32"
										},
										{
											"name": "twapSlippageTolerance",
											"type": "uint32",
											"internalType": "uint32"
										}
									]
								}
							]
						},
						{
							"name": "suckerDeploymentConfiguration",
							"type": "tuple",
							"internalType": "struct REVSuckerDeploymentConfig",
							"components": [
								{
									"name": "deployerConfigurations",
									"type": "tuple[]",
									"internalType": "struct BPSuckerDeployerConfig[]",
									"components": [
										{
											"name": "deployer",
											"type": "address",
											"internalType": "contract IBPSuckerDeployer"
										},
										{
											"name": "mappings",
											"type": "tuple[]",
											"internalType": "struct BPTokenMapping[]",
											"components": [
												{
													"name": "localToken",
													"type": "address",
													"internalType": "address"
												},
												{
													"name": "minGas",
													"type": "uint32",
													"internalType": "uint32"
												},
												{
													"name": "remoteToken",
													"type": "address",
													"internalType": "address"
												},
												{
													"name": "minBridgeAmount",
													"type": "uint256",
													"internalType": "uint256"
												}
											]
										}
									]
								},
								{
									"name": "salt",
									"type": "bytes32",
									"internalType": "bytes32"
								}
							]
						}
					],
					"outputs": [
						{
							"name": "",
							"type": "uint256",
							"internalType": "uint256"
						}
					],
					"stateMutability": "nonpayable"
				},
				{
					"type": "function",
					"name": "onERC721Received",
					"inputs": [
						{
							"name": "operator",
							"type": "address",
							"internalType": "address"
						},
						{
							"name": "",
							"type": "address",
							"internalType": "address"
						},
						{
							"name": "tokenId",
							"type": "uint256",
							"internalType": "uint256"
						},
						{
							"name": "data",
							"type": "bytes",
							"internalType": "bytes"
						}
					],
					"outputs": [
						{
							"name": "",
							"type": "bytes4",
							"internalType": "bytes4"
						}
					],
					"stateMutability": "view"
				},
				{
					"type": "function",
					"name": "payHookSpecificationsOf",
					"inputs": [
						{
							"name": "revnetId",
							"type": "uint256",
							"internalType": "uint256"
						}
					],
					"outputs": [
						{
							"name": "",
							"type": "tuple[]",
							"internalType": "struct JBPayHookSpecification[]",
							"components": [
								{
									"name": "hook",
									"type": "address",
									"internalType": "contract IJBPayHook"
								},
								{
									"name": "amount",
									"type": "uint256",
									"internalType": "uint256"
								},
								{
									"name": "metadata",
									"type": "bytes",
									"internalType": "bytes"
								}
							]
						}
					],
					"stateMutability": "view"
				},
				{
					"type": "function",
					"name": "replaceSplitOperatorOf",
					"inputs": [
						{
							"name": "revnetId",
							"type": "uint256",
							"internalType": "uint256"
						},
						{
							"name": "newSplitOperator",
							"type": "address",
							"internalType": "address"
						}
					],
					"outputs": [],
					"stateMutability": "nonpayable"
				},
				{
					"type": "function",
					"name": "supportsInterface",
					"inputs": [
						{
							"name": "interfaceId",
							"type": "bytes4",
							"internalType": "bytes4"
						}
					],
					"outputs": [
						{
							"name": "",
							"type": "bool",
							"internalType": "bool"
						}
					],
					"stateMutability": "view"
				},
				{
					"type": "function",
					"name": "trustedForwarder",
					"inputs": [],
					"outputs": [
						{
							"name": "",
							"type": "address",
							"internalType": "address"
						}
					],
					"stateMutability": "view"
				},
				{
					"type": "event",
					"name": "DeployRevnet",
					"inputs": [
						{
							"name": "revnetId",
							"type": "uint256",
							"indexed": true,
							"internalType": "uint256"
						},
						{
							"name": "configuration",
							"type": "tuple",
							"indexed": false,
							"internalType": "struct REVConfig",
							"components": [
								{
									"name": "description",
									"type": "tuple",
									"internalType": "struct REVDescription",
									"components": [
										{
											"name": "name",
											"type": "string",
											"internalType": "string"
										},
										{
											"name": "ticker",
											"type": "string",
											"internalType": "string"
										},
										{
											"name": "uri",
											"type": "string",
											"internalType": "string"
										},
										{
											"name": "salt",
											"type": "bytes32",
											"internalType": "bytes32"
										}
									]
								},
								{
									"name": "baseCurrency",
									"type": "uint32",
									"internalType": "uint32"
								},
								{
									"name": "premintTokenAmount",
									"type": "uint256",
									"internalType": "uint256"
								},
								{
									"name": "premintChainId",
									"type": "uint256",
									"internalType": "uint256"
								},
								{
									"name": "initialSplitOperator",
									"type": "address",
									"internalType": "address"
								},
								{
									"name": "stageConfigurations",
									"type": "tuple[]",
									"internalType": "struct REVStageConfig[]",
									"components": [
										{
											"name": "startsAtOrAfter",
											"type": "uint40",
											"internalType": "uint40"
										},
										{
											"name": "splitRate",
											"type": "uint16",
											"internalType": "uint16"
										},
										{
											"name": "initialIssuanceRate",
											"type": "uint112",
											"internalType": "uint112"
										},
										{
											"name": "priceCeilingIncreaseFrequency",
											"type": "uint40",
											"internalType": "uint40"
										},
										{
											"name": "priceCeilingIncreasePercentage",
											"type": "uint32",
											"internalType": "uint32"
										},
										{
											"name": "priceFloorTaxIntensity",
											"type": "uint16",
											"internalType": "uint16"
										}
									]
								}
							]
						},
						{
							"name": "terminalConfigurations",
							"type": "tuple[]",
							"indexed": false,
							"internalType": "struct JBTerminalConfig[]",
							"components": [
								{
									"name": "terminal",
									"type": "address",
									"internalType": "contract IJBTerminal"
								},
								{
									"name": "tokensToAccept",
									"type": "address[]",
									"internalType": "address[]"
								}
							]
						},
						{
							"name": "buybackHookConfiguration",
							"type": "tuple",
							"indexed": false,
							"internalType": "struct REVBuybackHookConfig",
							"components": [
								{
									"name": "hook",
									"type": "address",
									"internalType": "contract IJBBuybackHook"
								},
								{
									"name": "poolConfigurations",
									"type": "tuple[]",
									"internalType": "struct REVBuybackPoolConfig[]",
									"components": [
										{
											"name": "token",
											"type": "address",
											"internalType": "address"
										},
										{
											"name": "fee",
											"type": "uint24",
											"internalType": "uint24"
										},
										{
											"name": "twapWindow",
											"type": "uint32",
											"internalType": "uint32"
										},
										{
											"name": "twapSlippageTolerance",
											"type": "uint32",
											"internalType": "uint32"
										}
									]
								}
							]
						},
						{
							"name": "suckerDeploymentConfiguration",
							"type": "tuple",
							"indexed": false,
							"internalType": "struct REVSuckerDeploymentConfig",
							"components": [
								{
									"name": "deployerConfigurations",
									"type": "tuple[]",
									"internalType": "struct BPSuckerDeployerConfig[]",
									"components": [
										{
											"name": "deployer",
											"type": "address",
											"internalType": "contract IBPSuckerDeployer"
										},
										{
											"name": "mappings",
											"type": "tuple[]",
											"internalType": "struct BPTokenMapping[]",
											"components": [
												{
													"name": "localToken",
													"type": "address",
													"internalType": "address"
												},
												{
													"name": "minGas",
													"type": "uint32",
													"internalType": "uint32"
												},
												{
													"name": "remoteToken",
													"type": "address",
													"internalType": "address"
												},
												{
													"name": "minBridgeAmount",
													"type": "uint256",
													"internalType": "uint256"
												}
											]
										}
									]
								},
								{
									"name": "salt",
									"type": "bytes32",
									"internalType": "bytes32"
								}
							]
						},
						{
							"name": "rulesetConfigurations",
							"type": "tuple[]",
							"indexed": false,
							"internalType": "struct JBRulesetConfig[]",
							"components": [
								{
									"name": "mustStartAtOrAfter",
									"type": "uint256",
									"internalType": "uint256"
								},
								{
									"name": "duration",
									"type": "uint256",
									"internalType": "uint256"
								},
								{
									"name": "weight",
									"type": "uint256",
									"internalType": "uint256"
								},
								{
									"name": "decayRate",
									"type": "uint256",
									"internalType": "uint256"
								},
								{
									"name": "approvalHook",
									"type": "address",
									"internalType": "contract IJBRulesetApprovalHook"
								},
								{
									"name": "metadata",
									"type": "tuple",
									"internalType": "struct JBRulesetMetadata",
									"components": [
										{
											"name": "reservedRate",
											"type": "uint256",
											"internalType": "uint256"
										},
										{
											"name": "redemptionRate",
											"type": "uint256",
											"internalType": "uint256"
										},
										{
											"name": "baseCurrency",
											"type": "uint256",
											"internalType": "uint256"
										},
										{
											"name": "pausePay",
											"type": "bool",
											"internalType": "bool"
										},
										{
											"name": "pauseCreditTransfers",
											"type": "bool",
											"internalType": "bool"
										},
										{
											"name": "allowOwnerMinting",
											"type": "bool",
											"internalType": "bool"
										},
										{
											"name": "allowTerminalMigration",
											"type": "bool",
											"internalType": "bool"
										},
										{
											"name": "allowSetTerminals",
											"type": "bool",
											"internalType": "bool"
										},
										{
											"name": "allowControllerMigration",
											"type": "bool",
											"internalType": "bool"
										},
										{
											"name": "allowSetController",
											"type": "bool",
											"internalType": "bool"
										},
										{
											"name": "holdFees",
											"type": "bool",
											"internalType": "bool"
										},
										{
											"name": "useTotalSurplusForRedemptions",
											"type": "bool",
											"internalType": "bool"
										},
										{
											"name": "useDataHookForPay",
											"type": "bool",
											"internalType": "bool"
										},
										{
											"name": "useDataHookForRedeem",
											"type": "bool",
											"internalType": "bool"
										},
										{
											"name": "dataHook",
											"type": "address",
											"internalType": "address"
										},
										{
											"name": "metadata",
											"type": "uint256",
											"internalType": "uint256"
										}
									]
								},
								{
									"name": "splitGroups",
									"type": "tuple[]",
									"internalType": "struct JBSplitGroup[]",
									"components": [
										{
											"name": "groupId",
											"type": "uint256",
											"internalType": "uint256"
										},
										{
											"name": "splits",
											"type": "tuple[]",
											"internalType": "struct JBSplit[]",
											"components": [
												{
													"name": "preferAddToBalance",
													"type": "bool",
													"internalType": "bool"
												},
												{
													"name": "percent",
													"type": "uint256",
													"internalType": "uint256"
												},
												{
													"name": "projectId",
													"type": "uint256",
													"internalType": "uint256"
												},
												{
													"name": "beneficiary",
													"type": "address",
													"internalType": "address payable"
												},
												{
													"name": "lockedUntil",
													"type": "uint256",
													"internalType": "uint256"
												},
												{
													"name": "hook",
													"type": "address",
													"internalType": "contract IJBSplitHook"
												}
											]
										}
									]
								},
								{
									"name": "fundAccessLimitGroups",
									"type": "tuple[]",
									"internalType": "struct JBFundAccessLimitGroup[]",
									"components": [
										{
											"name": "terminal",
											"type": "address",
											"internalType": "address"
										},
										{
											"name": "token",
											"type": "address",
											"internalType": "address"
										},
										{
											"name": "payoutLimits",
											"type": "tuple[]",
											"internalType": "struct JBCurrencyAmount[]",
											"components": [
												{
													"name": "amount",
													"type": "uint256",
													"internalType": "uint256"
												},
												{
													"name": "currency",
													"type": "uint256",
													"internalType": "uint256"
												}
											]
										},
										{
											"name": "surplusAllowances",
											"type": "tuple[]",
											"internalType": "struct JBCurrencyAmount[]",
											"components": [
												{
													"name": "amount",
													"type": "uint256",
													"internalType": "uint256"
												},
												{
													"name": "currency",
													"type": "uint256",
													"internalType": "uint256"
												}
											]
										}
									]
								}
							]
						},
						{
							"name": "encodedConfiguration",
							"type": "bytes",
							"indexed": false,
							"internalType": "bytes"
						},
						{
							"name": "isInProgress",
							"type": "bool",
							"indexed": false,
							"internalType": "bool"
						},
						{
							"name": "caller",
							"type": "address",
							"indexed": false,
							"internalType": "address"
						}
					],
					"anonymous": false
				},
				{
					"type": "event",
					"name": "DeploySuckers",
					"inputs": [
						{
							"name": "revnetId",
							"type": "uint256",
							"indexed": true,
							"internalType": "uint256"
						},
						{
							"name": "salt",
							"type": "bytes32",
							"indexed": true,
							"internalType": "bytes32"
						},
						{
							"name": "encodedConfiguration",
							"type": "bytes",
							"indexed": false,
							"internalType": "bytes"
						},
						{
							"name": "suckerDeploymentConfiguration",
							"type": "tuple",
							"indexed": false,
							"internalType": "struct REVSuckerDeploymentConfig",
							"components": [
								{
									"name": "deployerConfigurations",
									"type": "tuple[]",
									"internalType": "struct BPSuckerDeployerConfig[]",
									"components": [
										{
											"name": "deployer",
											"type": "address",
											"internalType": "contract IBPSuckerDeployer"
										},
										{
											"name": "mappings",
											"type": "tuple[]",
											"internalType": "struct BPTokenMapping[]",
											"components": [
												{
													"name": "localToken",
													"type": "address",
													"internalType": "address"
												},
												{
													"name": "minGas",
													"type": "uint32",
													"internalType": "uint32"
												},
												{
													"name": "remoteToken",
													"type": "address",
													"internalType": "address"
												},
												{
													"name": "minBridgeAmount",
													"type": "uint256",
													"internalType": "uint256"
												}
											]
										}
									]
								},
								{
									"name": "salt",
									"type": "bytes32",
									"internalType": "bytes32"
								}
							]
						},
						{
							"name": "caller",
							"type": "address",
							"indexed": false,
							"internalType": "address"
						}
					],
					"anonymous": false
				},
				{
					"type": "event",
					"name": "ReplaceSplitOperator",
					"inputs": [
						{
							"name": "revnetId",
							"type": "uint256",
							"indexed": true,
							"internalType": "uint256"
						},
						{
							"name": "newSplitOperator",
							"type": "address",
							"indexed": true,
							"internalType": "address"
						},
						{
							"name": "caller",
							"type": "address",
							"indexed": false,
							"internalType": "address"
						}
					],
					"anonymous": false
				},
				{
					"type": "error",
					"name": "REVBasicDeployer_ExitDelayInEffect",
					"inputs": []
				},
				{
					"type": "error",
					"name": "REVBasicDeployer_Unauthorized",
					"inputs": []
				}
			],
			"solcInputHash": "e375084179cd92018a55327e422b1ddf",
			"receipt": {
				"blockHash": "0xf3c87e0d644ea4be92cb8ee6c0e54191f329d8d315021f5c6d2528a50979802d",
				"blockNumber": 5749182,
				"contractAddress": null,
				"cumulativeGasUsed": "22381849",
				"from": "0xC034550B542b83BA1De312b21d1C94a9a52B1595",
				"gasPrice": "250254962",
				"gasUsed": "9237569",
				"hash": "0xb4738f58fe43b2e71031871589909caece2c51af249b73ac144e9d9a2cc4cd06",
				"index": 76,
				"logs": [
					{
						"address": "0xB5E96127D417b1B3ef8438496a38A143167209c7",
						"blockHash": "0xf3c87e0d644ea4be92cb8ee6c0e54191f329d8d315021f5c6d2528a50979802d",
						"blockNumber": 5749182,
						"data": "0x0000000000000000000000000000000000000000000000000000000000000000",
						"index": 81,
						"topics": [
							"0x572f161235911da04685a68c06adf558fc7e4a36909dca394650e0adc19cc93d",
							"0x000000000000000000000000c034550b542b83ba1de312b21d1c94a9a52b1595",
							"0x00000000000000000000000018ed911dda49f125bbadd71f826f1cda550f20fe",
							"0x4553ae9987eb18ef715f73b6f0ee7044c5c48a26c6f4488e2d88c16ba384cdad"
						],
						"transactionHash": "0xb4738f58fe43b2e71031871589909caece2c51af249b73ac144e9d9a2cc4cd06",
						"transactionIndex": 76
					},
					{
						"address": "0x15B51C7D9DBc4681e54f8b493187C9a2377bd81B",
						"blockHash": "0xf3c87e0d644ea4be92cb8ee6c0e54191f329d8d315021f5c6d2528a50979802d",
						"blockNumber": 5749182,
						"data": "0x",
						"index": 82,
						"topics": [
							"0x6895c13664aa4f67288b25d7a21d7aaa34916e355fb9b6fae0a139a9085becb8",
							"0x00000000000000000000000018ed911dda49f125bbadd71f826f1cda550f20fe"
						],
						"transactionHash": "0xb4738f58fe43b2e71031871589909caece2c51af249b73ac144e9d9a2cc4cd06",
						"transactionIndex": 76
					},
					{
						"address": "0x18Ed911ddA49f125bbadd71f826F1cDa550f20fE",
						"blockHash": "0xf3c87e0d644ea4be92cb8ee6c0e54191f329d8d315021f5c6d2528a50979802d",
						"blockNumber": 5749182,
						"data": "0x0000000000000000000000000000000000000000000000000000000000000001",
						"index": 83,
						"topics": [
							"0xa65fb05c5808f5f389d72edeaf719ce38f4cc55c1f69ca3cbfb31c21501caa07",
							"0x2df8f06620610415d6ef29d718ef30921b087659677ae2a0ba469618a8ab2a2b"
						],
						"transactionHash": "0xb4738f58fe43b2e71031871589909caece2c51af249b73ac144e9d9a2cc4cd06",
						"transactionIndex": 76
					},
					{
						"address": "0x15B51C7D9DBc4681e54f8b493187C9a2377bd81B",
						"blockHash": "0xf3c87e0d644ea4be92cb8ee6c0e54191f329d8d315021f5c6d2528a50979802d",
						"blockNumber": 5749182,
						"data": "0x",
						"index": 84,
						"topics": [
							"0x6895c13664aa4f67288b25d7a21d7aaa34916e355fb9b6fae0a139a9085becb8",
							"0x00000000000000000000000018ed911dda49f125bbadd71f826f1cda550f20fe"
						],
						"transactionHash": "0xb4738f58fe43b2e71031871589909caece2c51af249b73ac144e9d9a2cc4cd06",
						"transactionIndex": 76
					},
					{
						"address": "0x18Ed911ddA49f125bbadd71f826F1cDa550f20fE",
						"blockHash": "0xf3c87e0d644ea4be92cb8ee6c0e54191f329d8d315021f5c6d2528a50979802d",
						"blockNumber": 5749182,
						"data": "0x0000000000000000000000000000000000000000000000000000000000000002",
						"index": 85,
						"topics": [
							"0xa65fb05c5808f5f389d72edeaf719ce38f4cc55c1f69ca3cbfb31c21501caa07",
							"0x2df8f06620610415d6ef29d718ef30921b087659677ae2a0ba469618a8ab2a2b"
						],
						"transactionHash": "0xb4738f58fe43b2e71031871589909caece2c51af249b73ac144e9d9a2cc4cd06",
						"transactionIndex": 76
					},
					{
						"address": "0x18Ed911ddA49f125bbadd71f826F1cDa550f20fE",
						"blockHash": "0xf3c87e0d644ea4be92cb8ee6c0e54191f329d8d315021f5c6d2528a50979802d",
						"blockNumber": 5749182,
						"data": "0x",
						"index": 86,
						"topics": [
							"0x4383d976757d67ca920616be0b6430a681ea9d3dcce8d6d61d4603ca4a9bff63",
							"0x2df8f06620610415d6ef29d718ef30921b087659677ae2a0ba469618a8ab2a2b"
						],
						"transactionHash": "0xb4738f58fe43b2e71031871589909caece2c51af249b73ac144e9d9a2cc4cd06",
						"transactionIndex": 76
					}
				],
				"logsBloom": "0x00000000080010001000000000080000000000000008000000000000004000000000000002000000200000001040000000000004000004000000000000000000100000000000200000000000000000000000000000000000000000000000000000000000000000000000000000000000000000000000000000000000000000000000000000000000000100000000000000000000000000000000008000000000004000800010000000000000000001020200000001000000000000000044000400000000000000000000000008000000000000004000000000000000000000010000000000000008000000000000000200000000000000020000000008000000",
				"status": 1,
				"to": "0xB5E96127D417b1B3ef8438496a38A143167209c7"
			},
			"metadata": "{\"compiler\":{\"version\":\"0.8.23+commit.f704f362\"},\"language\":\"Solidity\",\"output\":{\"abi\":[{\"inputs\":[{\"internalType\":\"contract IJBController\",\"name\":\"controller\",\"type\":\"address\"},{\"internalType\":\"contract IBPSuckerRegistry\",\"name\":\"suckerRegistry\",\"type\":\"address\"},{\"internalType\":\"address\",\"name\":\"trustedForwarder\",\"type\":\"address\"}],\"stateMutability\":\"nonpayable\",\"type\":\"constructor\"},{\"inputs\":[],\"type\":\"error\",\"name\":\"REVBasicDeployer_ExitDelayInEffect\"},{\"inputs\":[],\"type\":\"error\",\"name\":\"REVBasicDeployer_Unauthorized\"},{\"inputs\":[{\"internalType\":\"uint256\",\"name\":\"revnetId\",\"type\":\"uint256\",\"indexed\":true},{\"internalType\":\"struct REVConfig\",\"name\":\"configuration\",\"type\":\"tuple\",\"components\":[{\"internalType\":\"struct REVDescription\",\"name\":\"description\",\"type\":\"tuple\",\"components\":[{\"internalType\":\"string\",\"name\":\"name\",\"type\":\"string\"},{\"internalType\":\"string\",\"name\":\"ticker\",\"type\":\"string\"},{\"internalType\":\"string\",\"name\":\"uri\",\"type\":\"string\"},{\"internalType\":\"bytes32\",\"name\":\"salt\",\"type\":\"bytes32\"}]},{\"internalType\":\"uint32\",\"name\":\"baseCurrency\",\"type\":\"uint32\"},{\"internalType\":\"uint256\",\"name\":\"premintTokenAmount\",\"type\":\"uint256\"},{\"internalType\":\"uint256\",\"name\":\"premintChainId\",\"type\":\"uint256\"},{\"internalType\":\"address\",\"name\":\"initialSplitOperator\",\"type\":\"address\"},{\"internalType\":\"struct REVStageConfig[]\",\"name\":\"stageConfigurations\",\"type\":\"tuple[]\",\"components\":[{\"internalType\":\"uint40\",\"name\":\"startsAtOrAfter\",\"type\":\"uint40\"},{\"internalType\":\"uint16\",\"name\":\"splitRate\",\"type\":\"uint16\"},{\"internalType\":\"uint112\",\"name\":\"initialIssuanceRate\",\"type\":\"uint112\"},{\"internalType\":\"uint40\",\"name\":\"priceCeilingIncreaseFrequency\",\"type\":\"uint40\"},{\"internalType\":\"uint32\",\"name\":\"priceCeilingIncreasePercentage\",\"type\":\"uint32\"},{\"internalType\":\"uint16\",\"name\":\"priceFloorTaxIntensity\",\"type\":\"uint16\"}]}],\"indexed\":false},{\"internalType\":\"struct JBTerminalConfig[]\",\"name\":\"terminalConfigurations\",\"type\":\"tuple[]\",\"components\":[{\"internalType\":\"contract IJBTerminal\",\"name\":\"terminal\",\"type\":\"address\"},{\"internalType\":\"address[]\",\"name\":\"tokensToAccept\",\"type\":\"address[]\"}],\"indexed\":false},{\"internalType\":\"struct REVBuybackHookConfig\",\"name\":\"buybackHookConfiguration\",\"type\":\"tuple\",\"components\":[{\"internalType\":\"contract IJBBuybackHook\",\"name\":\"hook\",\"type\":\"address\"},{\"internalType\":\"struct REVBuybackPoolConfig[]\",\"name\":\"poolConfigurations\",\"type\":\"tuple[]\",\"components\":[{\"internalType\":\"address\",\"name\":\"token\",\"type\":\"address\"},{\"internalType\":\"uint24\",\"name\":\"fee\",\"type\":\"uint24\"},{\"internalType\":\"uint32\",\"name\":\"twapWindow\",\"type\":\"uint32\"},{\"internalType\":\"uint32\",\"name\":\"twapSlippageTolerance\",\"type\":\"uint32\"}]}],\"indexed\":false},{\"internalType\":\"struct REVSuckerDeploymentConfig\",\"name\":\"suckerDeploymentConfiguration\",\"type\":\"tuple\",\"components\":[{\"internalType\":\"struct BPSuckerDeployerConfig[]\",\"name\":\"deployerConfigurations\",\"type\":\"tuple[]\",\"components\":[{\"internalType\":\"contract IBPSuckerDeployer\",\"name\":\"deployer\",\"type\":\"address\"},{\"internalType\":\"struct BPTokenMapping[]\",\"name\":\"mappings\",\"type\":\"tuple[]\",\"components\":[{\"internalType\":\"address\",\"name\":\"localToken\",\"type\":\"address\"},{\"internalType\":\"uint32\",\"name\":\"minGas\",\"type\":\"uint32\"},{\"internalType\":\"address\",\"name\":\"remoteToken\",\"type\":\"address\"},{\"internalType\":\"uint256\",\"name\":\"minBridgeAmount\",\"type\":\"uint256\"}]}]},{\"internalType\":\"bytes32\",\"name\":\"salt\",\"type\":\"bytes32\"}],\"indexed\":false},{\"internalType\":\"struct JBRulesetConfig[]\",\"name\":\"rulesetConfigurations\",\"type\":\"tuple[]\",\"components\":[{\"internalType\":\"uint256\",\"name\":\"mustStartAtOrAfter\",\"type\":\"uint256\"},{\"internalType\":\"uint256\",\"name\":\"duration\",\"type\":\"uint256\"},{\"internalType\":\"uint256\",\"name\":\"weight\",\"type\":\"uint256\"},{\"internalType\":\"uint256\",\"name\":\"decayRate\",\"type\":\"uint256\"},{\"internalType\":\"contract IJBRulesetApprovalHook\",\"name\":\"approvalHook\",\"type\":\"address\"},{\"internalType\":\"struct JBRulesetMetadata\",\"name\":\"metadata\",\"type\":\"tuple\",\"components\":[{\"internalType\":\"uint256\",\"name\":\"reservedRate\",\"type\":\"uint256\"},{\"internalType\":\"uint256\",\"name\":\"redemptionRate\",\"type\":\"uint256\"},{\"internalType\":\"uint256\",\"name\":\"baseCurrency\",\"type\":\"uint256\"},{\"internalType\":\"bool\",\"name\":\"pausePay\",\"type\":\"bool\"},{\"internalType\":\"bool\",\"name\":\"pauseCreditTransfers\",\"type\":\"bool\"},{\"internalType\":\"bool\",\"name\":\"allowOwnerMinting\",\"type\":\"bool\"},{\"internalType\":\"bool\",\"name\":\"allowTerminalMigration\",\"type\":\"bool\"},{\"internalType\":\"bool\",\"name\":\"allowSetTerminals\",\"type\":\"bool\"},{\"internalType\":\"bool\",\"name\":\"allowControllerMigration\",\"type\":\"bool\"},{\"internalType\":\"bool\",\"name\":\"allowSetController\",\"type\":\"bool\"},{\"internalType\":\"bool\",\"name\":\"holdFees\",\"type\":\"bool\"},{\"internalType\":\"bool\",\"name\":\"useTotalSurplusForRedemptions\",\"type\":\"bool\"},{\"internalType\":\"bool\",\"name\":\"useDataHookForPay\",\"type\":\"bool\"},{\"internalType\":\"bool\",\"name\":\"useDataHookForRedeem\",\"type\":\"bool\"},{\"internalType\":\"address\",\"name\":\"dataHook\",\"type\":\"address\"},{\"internalType\":\"uint256\",\"name\":\"metadata\",\"type\":\"uint256\"}]},{\"internalType\":\"struct JBSplitGroup[]\",\"name\":\"splitGroups\",\"type\":\"tuple[]\",\"components\":[{\"internalType\":\"uint256\",\"name\":\"groupId\",\"type\":\"uint256\"},{\"internalType\":\"struct JBSplit[]\",\"name\":\"splits\",\"type\":\"tuple[]\",\"components\":[{\"internalType\":\"bool\",\"name\":\"preferAddToBalance\",\"type\":\"bool\"},{\"internalType\":\"uint256\",\"name\":\"percent\",\"type\":\"uint256\"},{\"internalType\":\"uint256\",\"name\":\"projectId\",\"type\":\"uint256\"},{\"internalType\":\"address payable\",\"name\":\"beneficiary\",\"type\":\"address\"},{\"internalType\":\"uint256\",\"name\":\"lockedUntil\",\"type\":\"uint256\"},{\"internalType\":\"contract IJBSplitHook\",\"name\":\"hook\",\"type\":\"address\"}]}]},{\"internalType\":\"struct JBFundAccessLimitGroup[]\",\"name\":\"fundAccessLimitGroups\",\"type\":\"tuple[]\",\"components\":[{\"internalType\":\"address\",\"name\":\"terminal\",\"type\":\"address\"},{\"internalType\":\"address\",\"name\":\"token\",\"type\":\"address\"},{\"internalType\":\"struct JBCurrencyAmount[]\",\"name\":\"payoutLimits\",\"type\":\"tuple[]\",\"components\":[{\"internalType\":\"uint256\",\"name\":\"amount\",\"type\":\"uint256\"},{\"internalType\":\"uint256\",\"name\":\"currency\",\"type\":\"uint256\"}]},{\"internalType\":\"struct JBCurrencyAmount[]\",\"name\":\"surplusAllowances\",\"type\":\"tuple[]\",\"components\":[{\"internalType\":\"uint256\",\"name\":\"amount\",\"type\":\"uint256\"},{\"internalType\":\"uint256\",\"name\":\"currency\",\"type\":\"uint256\"}]}]}],\"indexed\":false},{\"internalType\":\"bytes\",\"name\":\"encodedConfiguration\",\"type\":\"bytes\",\"indexed\":false},{\"internalType\":\"bool\",\"name\":\"isInProgress\",\"type\":\"bool\",\"indexed\":false},{\"internalType\":\"address\",\"name\":\"caller\",\"type\":\"address\",\"indexed\":false}],\"type\":\"event\",\"name\":\"DeployRevnet\",\"anonymous\":false},{\"inputs\":[{\"internalType\":\"uint256\",\"name\":\"revnetId\",\"type\":\"uint256\",\"indexed\":true},{\"internalType\":\"bytes32\",\"name\":\"salt\",\"type\":\"bytes32\",\"indexed\":true},{\"internalType\":\"bytes\",\"name\":\"encodedConfiguration\",\"type\":\"bytes\",\"indexed\":false},{\"internalType\":\"struct REVSuckerDeploymentConfig\",\"name\":\"suckerDeploymentConfiguration\",\"type\":\"tuple\",\"components\":[{\"internalType\":\"struct BPSuckerDeployerConfig[]\",\"name\":\"deployerConfigurations\",\"type\":\"tuple[]\",\"components\":[{\"internalType\":\"contract IBPSuckerDeployer\",\"name\":\"deployer\",\"type\":\"address\"},{\"internalType\":\"struct BPTokenMapping[]\",\"name\":\"mappings\",\"type\":\"tuple[]\",\"components\":[{\"internalType\":\"address\",\"name\":\"localToken\",\"type\":\"address\"},{\"internalType\":\"uint32\",\"name\":\"minGas\",\"type\":\"uint32\"},{\"internalType\":\"address\",\"name\":\"remoteToken\",\"type\":\"address\"},{\"internalType\":\"uint256\",\"name\":\"minBridgeAmount\",\"type\":\"uint256\"}]}]},{\"internalType\":\"bytes32\",\"name\":\"salt\",\"type\":\"bytes32\"}],\"indexed\":false},{\"internalType\":\"address\",\"name\":\"caller\",\"type\":\"address\",\"indexed\":false}],\"type\":\"event\",\"name\":\"DeploySuckers\",\"anonymous\":false},{\"inputs\":[{\"internalType\":\"uint256\",\"name\":\"revnetId\",\"type\":\"uint256\",\"indexed\":true},{\"internalType\":\"address\",\"name\":\"newSplitOperator\",\"type\":\"address\",\"indexed\":true},{\"internalType\":\"address\",\"name\":\"caller\",\"type\":\"address\",\"indexed\":false}],\"type\":\"event\",\"name\":\"ReplaceSplitOperator\",\"anonymous\":false},{\"inputs\":[],\"stateMutability\":\"view\",\"type\":\"function\",\"name\":\"CONTROLLER\",\"outputs\":[{\"internalType\":\"contract IJBController\",\"name\":\"\",\"type\":\"address\"}]},{\"inputs\":[],\"stateMutability\":\"view\",\"type\":\"function\",\"name\":\"EXIT_DELAY\",\"outputs\":[{\"internalType\":\"uint256\",\"name\":\"\",\"type\":\"uint256\"}]},{\"inputs\":[],\"stateMutability\":\"view\",\"type\":\"function\",\"name\":\"SUCKER_REGISTRY\",\"outputs\":[{\"internalType\":\"contract IBPSuckerRegistry\",\"name\":\"\",\"type\":\"address\"}]},{\"inputs\":[{\"internalType\":\"struct JBBeforePayRecordedContext\",\"name\":\"context\",\"type\":\"tuple\",\"components\":[{\"internalType\":\"address\",\"name\":\"terminal\",\"type\":\"address\"},{\"internalType\":\"address\",\"name\":\"payer\",\"type\":\"address\"},{\"internalType\":\"struct JBTokenAmount\",\"name\":\"amount\",\"type\":\"tuple\",\"components\":[{\"internalType\":\"address\",\"name\":\"token\",\"type\":\"address\"},{\"internalType\":\"uint256\",\"name\":\"value\",\"type\":\"uint256\"},{\"internalType\":\"uint256\",\"name\":\"decimals\",\"type\":\"uint256\"},{\"internalType\":\"uint256\",\"name\":\"currency\",\"type\":\"uint256\"}]},{\"internalType\":\"uint256\",\"name\":\"projectId\",\"type\":\"uint256\"},{\"internalType\":\"uint256\",\"name\":\"rulesetId\",\"type\":\"uint256\"},{\"internalType\":\"address\",\"name\":\"beneficiary\",\"type\":\"address\"},{\"internalType\":\"uint256\",\"name\":\"weight\",\"type\":\"uint256\"},{\"internalType\":\"uint256\",\"name\":\"reservedRate\",\"type\":\"uint256\"},{\"internalType\":\"bytes\",\"name\":\"metadata\",\"type\":\"bytes\"}]}],\"stateMutability\":\"view\",\"type\":\"function\",\"name\":\"beforePayRecordedWith\",\"outputs\":[{\"internalType\":\"uint256\",\"name\":\"weight\",\"type\":\"uint256\"},{\"internalType\":\"struct JBPayHookSpecification[]\",\"name\":\"hookSpecifications\",\"type\":\"tuple[]\",\"components\":[{\"internalType\":\"contract IJBPayHook\",\"name\":\"hook\",\"type\":\"address\"},{\"internalType\":\"uint256\",\"name\":\"amount\",\"type\":\"uint256\"},{\"internalType\":\"bytes\",\"name\":\"metadata\",\"type\":\"bytes\"}]}]},{\"inputs\":[{\"internalType\":\"struct JBBeforeRedeemRecordedContext\",\"name\":\"context\",\"type\":\"tuple\",\"components\":[{\"internalType\":\"address\",\"name\":\"terminal\",\"type\":\"address\"},{\"internalType\":\"address\",\"name\":\"holder\",\"type\":\"address\"},{\"internalType\":\"uint256\",\"name\":\"projectId\",\"type\":\"uint256\"},{\"internalType\":\"uint256\",\"name\":\"rulesetId\",\"type\":\"uint256\"},{\"internalType\":\"uint256\",\"name\":\"redeemCount\",\"type\":\"uint256\"},{\"internalType\":\"uint256\",\"name\":\"totalSupply\",\"type\":\"uint256\"},{\"internalType\":\"struct JBTokenAmount\",\"name\":\"surplus\",\"type\":\"tuple\",\"components\":[{\"internalType\":\"address\",\"name\":\"token\",\"type\":\"address\"},{\"internalType\":\"uint256\",\"name\":\"value\",\"type\":\"uint256\"},{\"internalType\":\"uint256\",\"name\":\"decimals\",\"type\":\"uint256\"},{\"internalType\":\"uint256\",\"name\":\"currency\",\"type\":\"uint256\"}]},{\"internalType\":\"bool\",\"name\":\"useTotalSurplus\",\"type\":\"bool\"},{\"internalType\":\"uint256\",\"name\":\"redemptionRate\",\"type\":\"uint256\"},{\"internalType\":\"bytes\",\"name\":\"metadata\",\"type\":\"bytes\"}]}],\"stateMutability\":\"view\",\"type\":\"function\",\"name\":\"beforeRedeemRecordedWith\",\"outputs\":[{\"internalType\":\"uint256\",\"name\":\"\",\"type\":\"uint256\"},{\"internalType\":\"uint256\",\"name\":\"\",\"type\":\"uint256\"},{\"internalType\":\"uint256\",\"name\":\"\",\"type\":\"uint256\"},{\"internalType\":\"struct JBRedeemHookSpecification[]\",\"name\":\"specifications\",\"type\":\"tuple[]\",\"components\":[{\"internalType\":\"contract IJBRedeemHook\",\"name\":\"hook\",\"type\":\"address\"},{\"internalType\":\"uint256\",\"name\":\"amount\",\"type\":\"uint256\"},{\"internalType\":\"bytes\",\"name\":\"metadata\",\"type\":\"bytes\"}]}]},{\"inputs\":[{\"internalType\":\"uint256\",\"name\":\"revnetId\",\"type\":\"uint256\"}],\"stateMutability\":\"view\",\"type\":\"function\",\"name\":\"buybackHookOf\",\"outputs\":[{\"internalType\":\"contract IJBRulesetDataHook\",\"name\":\"buybackHook\",\"type\":\"address\"}]},{\"inputs\":[{\"internalType\":\"uint256\",\"name\":\"revnetId\",\"type\":\"uint256\"},{\"internalType\":\"bytes\",\"name\":\"encodedConfiguration\",\"type\":\"bytes\"},{\"internalType\":\"struct REVSuckerDeploymentConfig\",\"name\":\"suckerDeploymentConfiguration\",\"type\":\"tuple\",\"components\":[{\"internalType\":\"struct BPSuckerDeployerConfig[]\",\"name\":\"deployerConfigurations\",\"type\":\"tuple[]\",\"components\":[{\"internalType\":\"contract IBPSuckerDeployer\",\"name\":\"deployer\",\"type\":\"address\"},{\"internalType\":\"struct BPTokenMapping[]\",\"name\":\"mappings\",\"type\":\"tuple[]\",\"components\":[{\"internalType\":\"address\",\"name\":\"localToken\",\"type\":\"address\"},{\"internalType\":\"uint32\",\"name\":\"minGas\",\"type\":\"uint32\"},{\"internalType\":\"address\",\"name\":\"remoteToken\",\"type\":\"address\"},{\"internalType\":\"uint256\",\"name\":\"minBridgeAmount\",\"type\":\"uint256\"}]}]},{\"internalType\":\"bytes32\",\"name\":\"salt\",\"type\":\"bytes32\"}]}],\"stateMutability\":\"nonpayable\",\"type\":\"function\",\"name\":\"deploySuckersFor\"},{\"inputs\":[{\"internalType\":\"uint256\",\"name\":\"revnetId\",\"type\":\"uint256\"}],\"stateMutability\":\"view\",\"type\":\"function\",\"name\":\"exitDelayOf\",\"outputs\":[{\"internalType\":\"uint256\",\"name\":\"exitDelay\",\"type\":\"uint256\"}]},{\"inputs\":[{\"internalType\":\"uint256\",\"name\":\"revnetId\",\"type\":\"uint256\"},{\"internalType\":\"address\",\"name\":\"addr\",\"type\":\"address\"}],\"stateMutability\":\"view\",\"type\":\"function\",\"name\":\"hasMintPermissionFor\",\"outputs\":[{\"internalType\":\"bool\",\"name\":\"\",\"type\":\"bool\"}]},{\"inputs\":[{\"internalType\":\"address\",\"name\":\"forwarder\",\"type\":\"address\"}],\"stateMutability\":\"view\",\"type\":\"function\",\"name\":\"isTrustedForwarder\",\"outputs\":[{\"internalType\":\"bool\",\"name\":\"\",\"type\":\"bool\"}]},{\"inputs\":[{\"internalType\":\"uint256\",\"name\":\"revnetId\",\"type\":\"uint256\"},{\"internalType\":\"struct REVConfig\",\"name\":\"configuration\",\"type\":\"tuple\",\"components\":[{\"internalType\":\"struct REVDescription\",\"name\":\"description\",\"type\":\"tuple\",\"components\":[{\"internalType\":\"string\",\"name\":\"name\",\"type\":\"string\"},{\"internalType\":\"string\",\"name\":\"ticker\",\"type\":\"string\"},{\"internalType\":\"string\",\"name\":\"uri\",\"type\":\"string\"},{\"internalType\":\"bytes32\",\"name\":\"salt\",\"type\":\"bytes32\"}]},{\"internalType\":\"uint32\",\"name\":\"baseCurrency\",\"type\":\"uint32\"},{\"internalType\":\"uint256\",\"name\":\"premintTokenAmount\",\"type\":\"uint256\"},{\"internalType\":\"uint256\",\"name\":\"premintChainId\",\"type\":\"uint256\"},{\"internalType\":\"address\",\"name\":\"initialSplitOperator\",\"type\":\"address\"},{\"internalType\":\"struct REVStageConfig[]\",\"name\":\"stageConfigurations\",\"type\":\"tuple[]\",\"components\":[{\"internalType\":\"uint40\",\"name\":\"startsAtOrAfter\",\"type\":\"uint40\"},{\"internalType\":\"uint16\",\"name\":\"splitRate\",\"type\":\"uint16\"},{\"internalType\":\"uint112\",\"name\":\"initialIssuanceRate\",\"type\":\"uint112\"},{\"internalType\":\"uint40\",\"name\":\"priceCeilingIncreaseFrequency\",\"type\":\"uint40\"},{\"internalType\":\"uint32\",\"name\":\"priceCeilingIncreasePercentage\",\"type\":\"uint32\"},{\"internalType\":\"uint16\",\"name\":\"priceFloorTaxIntensity\",\"type\":\"uint16\"}]}]},{\"internalType\":\"struct JBTerminalConfig[]\",\"name\":\"terminalConfigurations\",\"type\":\"tuple[]\",\"components\":[{\"internalType\":\"contract IJBTerminal\",\"name\":\"terminal\",\"type\":\"address\"},{\"internalType\":\"address[]\",\"name\":\"tokensToAccept\",\"type\":\"address[]\"}]},{\"internalType\":\"struct REVBuybackHookConfig\",\"name\":\"buybackHookConfiguration\",\"type\":\"tuple\",\"components\":[{\"internalType\":\"contract IJBBuybackHook\",\"name\":\"hook\",\"type\":\"address\"},{\"internalType\":\"struct REVBuybackPoolConfig[]\",\"name\":\"poolConfigurations\",\"type\":\"tuple[]\",\"components\":[{\"internalType\":\"address\",\"name\":\"token\",\"type\":\"address\"},{\"internalType\":\"uint24\",\"name\":\"fee\",\"type\":\"uint24\"},{\"internalType\":\"uint32\",\"name\":\"twapWindow\",\"type\":\"uint32\"},{\"internalType\":\"uint32\",\"name\":\"twapSlippageTolerance\",\"type\":\"uint32\"}]}]},{\"internalType\":\"struct REVSuckerDeploymentConfig\",\"name\":\"suckerDeploymentConfiguration\",\"type\":\"tuple\",\"components\":[{\"internalType\":\"struct BPSuckerDeployerConfig[]\",\"name\":\"deployerConfigurations\",\"type\":\"tuple[]\",\"components\":[{\"internalType\":\"contract IBPSuckerDeployer\",\"name\":\"deployer\",\"type\":\"address\"},{\"internalType\":\"struct BPTokenMapping[]\",\"name\":\"mappings\",\"type\":\"tuple[]\",\"components\":[{\"internalType\":\"address\",\"name\":\"localToken\",\"type\":\"address\"},{\"internalType\":\"uint32\",\"name\":\"minGas\",\"type\":\"uint32\"},{\"internalType\":\"address\",\"name\":\"remoteToken\",\"type\":\"address\"},{\"internalType\":\"uint256\",\"name\":\"minBridgeAmount\",\"type\":\"uint256\"}]}]},{\"internalType\":\"bytes32\",\"name\":\"salt\",\"type\":\"bytes32\"}]}],\"stateMutability\":\"nonpayable\",\"type\":\"function\",\"name\":\"launchRevnetFor\",\"outputs\":[{\"internalType\":\"uint256\",\"name\":\"\",\"type\":\"uint256\"}]},{\"inputs\":[{\"internalType\":\"address\",\"name\":\"operator\",\"type\":\"address\"},{\"internalType\":\"address\",\"name\":\"\",\"type\":\"address\"},{\"internalType\":\"uint256\",\"name\":\"tokenId\",\"type\":\"uint256\"},{\"internalType\":\"bytes\",\"name\":\"data\",\"type\":\"bytes\"}],\"stateMutability\":\"view\",\"type\":\"function\",\"name\":\"onERC721Received\",\"outputs\":[{\"internalType\":\"bytes4\",\"name\":\"\",\"type\":\"bytes4\"}]},{\"inputs\":[{\"internalType\":\"uint256\",\"name\":\"revnetId\",\"type\":\"uint256\"}],\"stateMutability\":\"view\",\"type\":\"function\",\"name\":\"payHookSpecificationsOf\",\"outputs\":[{\"internalType\":\"struct JBPayHookSpecification[]\",\"name\":\"\",\"type\":\"tuple[]\",\"components\":[{\"internalType\":\"contract IJBPayHook\",\"name\":\"hook\",\"type\":\"address\"},{\"internalType\":\"uint256\",\"name\":\"amount\",\"type\":\"uint256\"},{\"internalType\":\"bytes\",\"name\":\"metadata\",\"type\":\"bytes\"}]}]},{\"inputs\":[{\"internalType\":\"uint256\",\"name\":\"revnetId\",\"type\":\"uint256\"},{\"internalType\":\"address\",\"name\":\"newSplitOperator\",\"type\":\"address\"}],\"stateMutability\":\"nonpayable\",\"type\":\"function\",\"name\":\"replaceSplitOperatorOf\"},{\"inputs\":[{\"internalType\":\"bytes4\",\"name\":\"interfaceId\",\"type\":\"bytes4\"}],\"stateMutability\":\"view\",\"type\":\"function\",\"name\":\"supportsInterface\",\"outputs\":[{\"internalType\":\"bool\",\"name\":\"\",\"type\":\"bool\"}]},{\"inputs\":[],\"stateMutability\":\"view\",\"type\":\"function\",\"name\":\"trustedForwarder\",\"outputs\":[{\"internalType\":\"address\",\"name\":\"\",\"type\":\"address\"}]}],\"devdoc\":{\"kind\":\"dev\",\"methods\":{\"beforePayRecordedWith((address,address,(address,uint256,uint256,uint256),uint256,uint256,address,uint256,uint256,bytes))\":{\"details\":\"Part of IJBFundingCycleDataSource.This implementation just sets this contract up to receive a `didPay` call.\",\"params\":{\"context\":\"The Juicebox standard network payment context. See\"},\"returns\":{\"hookSpecifications\":\"Amount to be sent to pay hooks instead of adding to local balance. Useful for auto-routing funds from a treasury as payment come in.\",\"weight\":\"The weight that network tokens should get minted relative to. This is useful for optionally customizing how many tokens are issued per payment.\"}},\"constructor\":{\"params\":{\"controller\":\"The controller that revnets are made from.\",\"suckerRegistry\":\"The registry that deploys and tracks each project's suckers.\",\"trustedForwarder\":\"The trusted forwarder for the ERC2771Context.\"}},\"deploySuckersFor(uint256,bytes,((address,(address,uint32,address,uint256)[])[],bytes32))\":{\"params\":{\"encodedConfiguration\":\"A bytes representation of the revnet's configuration.\",\"revnetId\":\"The ID of the revnet having new suckers deployed.\",\"suckerDeploymentConfiguration\":\"The specifics about the suckers being deployed.\"}},\"hasMintPermissionFor(uint256,address)\":{\"params\":{\"addr\":\"The address to check if has permissions.\",\"revnetId\":\"The ID of the revnet to check permissions for.\"},\"returns\":{\"_0\":\"flag The flag indicating if the address has permissions to mint on the revnet's behalf.\"}},\"isTrustedForwarder(address)\":{\"details\":\"Indicates whether any particular address is the trusted forwarder.\"},\"launchRevnetFor(uint256,((string,string,string,bytes32),uint32,uint256,uint256,address,(uint40,uint16,uint112,uint40,uint32,uint16)[]),(address,address[])[],(address,(address,uint24,uint32,uint32)[]),((address,(address,uint32,address,uint256)[])[],bytes32))\":{\"params\":{\"buybackHookConfiguration\":\"Data used for setting up the buyback hook to use when determining the best price for new participants.\",\"configuration\":\"The data needed to deploy a basic revnet.\",\"revnetId\":\"The ID of the Juicebox project to turn into a revnet. Send 0 to deploy a new revnet.\",\"suckerDeploymentConfiguration\":\"Information about how this revnet relates to other's across chains.\",\"terminalConfigurations\":\"The terminals that the network uses to accept payments through.\"},\"returns\":{\"_0\":\"revnetId The ID of the newly created revnet.\"}},\"onERC721Received(address,address,uint256,bytes)\":{\"details\":\"Make sure only mints can be received.\"},\"payHookSpecificationsOf(uint256)\":{\"params\":{\"revnetId\":\"The ID of the revnet to which the extensions apply.\"},\"returns\":{\"_0\":\"payHookSpecifications The pay hooks.\"}},\"replaceSplitOperatorOf(uint256,address)\":{\"params\":{\"newSplitOperator\":\"The address of the new split operator.\",\"revnetId\":\"The ID of the revnet having its operator replaced.\"}},\"supportsInterface(bytes4)\":{\"details\":\"See {IERC165-supportsInterface}.\",\"params\":{\"interfaceId\":\"The ID of the interface to check for adherence to.\"},\"returns\":{\"_0\":\"A flag indicating if the provided interface ID is supported.\"}},\"trustedForwarder()\":{\"details\":\"Returns the address of the trusted forwarder.\"}},\"version\":1},\"userdoc\":{\"kind\":\"user\",\"methods\":{\"CONTROLLER()\":{\"notice\":\"The controller that networks are made from.\"},\"EXIT_DELAY()\":{\"notice\":\"The amount of time from a sucker being deployed to when it can facilitate exits.\"},\"SUCKER_REGISTRY()\":{\"notice\":\"The registry that deploys and tracks each project's suckers.\"},\"beforePayRecordedWith((address,address,(address,uint256,uint256,uint256),uint256,uint256,address,uint256,uint256,bytes))\":{\"notice\":\"This function gets called when the revnet receives a payment.\"},\"beforeRedeemRecordedWith((address,address,uint256,uint256,uint256,uint256,(address,uint256,uint256,uint256),bool,uint256,bytes))\":{\"notice\":\"This function is never called, it needs to be included to adhere to the interface.\"},\"buybackHookOf(uint256)\":{\"notice\":\"The data hook that returns the correct values for the buyback hook of each network.\"},\"deploySuckersFor(uint256,bytes,((address,(address,uint32,address,uint256)[])[],bytes32))\":{\"notice\":\"Allows a revnet's split operator to deploy new suckers to the revnet after it's deployed.\"},\"exitDelayOf(uint256)\":{\"notice\":\"The time at which exits from a revnet become allowed.\"},\"hasMintPermissionFor(uint256,address)\":{\"notice\":\"Required by the IJBRulesetDataHook interfaces.\"},\"launchRevnetFor(uint256,((string,string,string,bytes32),uint32,uint256,uint256,address,(uint40,uint16,uint112,uint40,uint32,uint16)[]),(address,address[])[],(address,(address,uint24,uint32,uint32)[]),((address,(address,uint32,address,uint256)[])[],bytes32))\":{\"notice\":\"Launch a basic revnet.\"},\"payHookSpecificationsOf(uint256)\":{\"notice\":\"The pay hooks to include during payments to networks.\"},\"replaceSplitOperatorOf(uint256,address)\":{\"notice\":\"A revnet's operator can replace itself.\"},\"supportsInterface(bytes4)\":{\"notice\":\"Indicates if this contract adheres to the specified interface.\"}},\"version\":1}},\"settings\":{\"remappings\":[\"@arbitrum/=node_modules/@arbitrum/\",\"@bananapus/=node_modules/@bananapus/\",\"@chainlink/=node_modules/@chainlink/\",\"@croptop/=node_modules/@croptop/\",\"@eth-optimism/=node_modules/@eth-optimism/\",\"@exhausted-pigeon/=node_modules/@exhausted-pigeon/\",\"@offchainlabs/=node_modules/@offchainlabs/\",\"@openzeppelin/=node_modules/@openzeppelin/\",\"@prb/=node_modules/@prb/\",\"@scroll-tech/=node_modules/@scroll-tech/\",\"@sphinx-labs/contracts/=node_modules/@sphinx-labs/contracts/contracts/foundry/\",\"@uniswap/=node_modules/@uniswap/\",\"base64-sol/=node_modules/base64-sol/\",\"ds-test/=lib/forge-std/lib/ds-test/src/\",\"forge-std/=lib/forge-std/src/\",\"hardhat/=node_modules/hardhat/\",\"solmate/=node_modules/solmate/\",\"sphinx/=lib/sphinx/packages/contracts/contracts/forge-std/src/\"],\"optimizer\":{\"enabled\":true,\"runs\":1000},\"metadata\":{\"bytecodeHash\":\"ipfs\"},\"compilationTarget\":{\"src/REVBasicDeployer.sol\":\"REVBasicDeployer\"},\"evmVersion\":\"paris\",\"libraries\":{}},\"sources\":{\"node_modules/@bananapus/buyback-hook/src/interfaces/IJBBuybackHook.sol\":{\"keccak256\":\"0xbe5d7f3bf2e18b569676ba9194e248e6b1ed50022f5247b4f1fa124c91bfd418\",\"urls\":[\"bzz-raw://eb221d1570e8aad409c419b6a2f84351e818c3527f3f44b806cd64c84d7a8c86\",\"dweb:/ipfs/QmUPZstaKjPN7VTywg3Mt6bF75E53mQbmXhf3TxCggJbRR\"],\"license\":\"MIT\"},\"node_modules/@bananapus/buyback-hook/src/interfaces/external/IWETH9.sol\":{\"keccak256\":\"0x50083bcaca6c1a8d12c79116fab4f6d8cd452a510cb3f00c4a8bc3a54678efb7\",\"urls\":[\"bzz-raw://726f187112d0953c14bff8099a8c9ce1ead47eb25e90839f77b100feaaf16127\",\"dweb:/ipfs/QmTEnMENpLjcTQLMwz4kEUiQHfiTkaZT3TL37nQ8JiRYh5\"],\"license\":\"GPL-2.0-or-later\"},\"node_modules/@bananapus/core/src/enums/JBApprovalStatus.sol\":{\"keccak256\":\"0x61c69b6bac7d24b566d87cda23a77e4ca9cdb87200b106aba8534cb9a0973e33\",\"urls\":[\"bzz-raw://6a9ca7249de76f77a8252eefe6bd1b63d47952f25a2acfa2c8db967cdff4470c\",\"dweb:/ipfs/QmaxSxptRQNj8bNy96EreENmrnRWdKmhyihBcxyWzBX5BN\"],\"license\":\"MIT\"},\"node_modules/@bananapus/core/src/interfaces/IJBController.sol\":{\"keccak256\":\"0xe0b84058192f89e461c4b604388aa11a2f92f0f9969fb70fb3c18706d6f3e16b\",\"urls\":[\"bzz-raw://984fdcff63a17ccab65ff7723a628967e40965fcb4d47909cf8e314e8f044576\",\"dweb:/ipfs/QmaaHZWuaaH3oYxCDrip1rr4u4H1XtR3RcwwKAE73GAqkd\"],\"license\":\"MIT\"},\"node_modules/@bananapus/core/src/interfaces/IJBDirectory.sol\":{\"keccak256\":\"0x9cc380844aef60078ee47a61861e55a29c4a8c947efd556ebd36e6909f7b9d62\",\"urls\":[\"bzz-raw://9f5190ec8b6683d9781ee6e9eedcc91294753242748875d4a06349077e4cbaaf\",\"dweb:/ipfs/QmTQrPuXT9TCA4txwrperMeXSGvGxP8iokUK47f62F388i\"],\"license\":\"MIT\"},\"node_modules/@bananapus/core/src/interfaces/IJBDirectoryAccessControl.sol\":{\"keccak256\":\"0x1e67f56849320a46f834aaa9bd62b170ff8ada7b224b4a81136193740fa0be4d\",\"urls\":[\"bzz-raw://ea8fbcec44abfe49d137bcae129b67e5479d6b17879301f88534c8a7fab00be4\",\"dweb:/ipfs/QmT6wrtYX4GRpffHUzupNwYebJ1dqkkKZLEewWsoyunsqw\"],\"license\":\"MIT\"},\"node_modules/@bananapus/core/src/interfaces/IJBFundAccessLimits.sol\":{\"keccak256\":\"0xf5fd6bdd723b60d490ccbe22cdf1cfe43663d23e6ee48badcd1b71e3282cb16b\",\"urls\":[\"bzz-raw://fe692f0b843ea5fccdfcb68f4ec16e1c0add945bb74b303c9866342be0e31fbf\",\"dweb:/ipfs/QmSRmzpgp3DhNEhNDiLsSu7yEiTeywbzEFbwyGyDazjgKt\"],\"license\":\"MIT\"},\"node_modules/@bananapus/core/src/interfaces/IJBMigratable.sol\":{\"keccak256\":\"0xd69bd5aba01a68d82c303ef3adde47532abcace030a94296c3ea6988b401789c\",\"urls\":[\"bzz-raw://88f11a1c89899327746beba4fc830abf3ac2eb9c152c778e884a6eed6564971f\",\"dweb:/ipfs/QmTpKhSTVewpz7VyKcz6BJwH2LFKMwT7Qi5HNWmjEjwsdK\"],\"license\":\"MIT\"},\"node_modules/@bananapus/core/src/interfaces/IJBPayHook.sol\":{\"keccak256\":\"0x9438866782c652c2942f4d114e35f393cd3c8b0334abce8387eed90bca35e8b2\",\"urls\":[\"bzz-raw://cfd99daf57213f92325aad7d7d16e98476d38e870470e95ba01e3ae3cdecc95d\",\"dweb:/ipfs/QmUKKAVGf7ki8BHksr99tFcRW8APveeB5tNH63ctTbbCW8\"],\"license\":\"MIT\"},\"node_modules/@bananapus/core/src/interfaces/IJBPermissioned.sol\":{\"keccak256\":\"0x5b038d4dee116584e88b230920e56d48e135053e3f7e5642eaea14a775c1dad7\",\"urls\":[\"bzz-raw://19e43102f349fd4a1da1c0943ffb8f2950007fe4bb4bb7e8f74fc142575d091b\",\"dweb:/ipfs/QmXHAt4KzDTdDZgDDefEXH2WKi7NcfkJb9R7nxW5uDqsNp\"],\"license\":\"MIT\"},\"node_modules/@bananapus/core/src/interfaces/IJBPermissions.sol\":{\"keccak256\":\"0x18870e500edf0fbadc353e273a5574701fb80466376b908c65e7cc3f11044d4d\",\"urls\":[\"bzz-raw://352a47c45853aec80e7acf0d286ade3106eb4cb456776b28a3c2f3f1091bed90\",\"dweb:/ipfs/QmQeYd3YbudYZy2hfbfht9kwhxhw4tuuLKMEYy9UY6dcSy\"],\"license\":\"MIT\"},\"node_modules/@bananapus/core/src/interfaces/IJBProjectUriRegistry.sol\":{\"keccak256\":\"0x2799475228987e4f8334ac33d3935f759c9b8133db7383b4f622dde7a5dc0502\",\"urls\":[\"bzz-raw://d751731740f45df74eea48c9667e847ee2cddb2980ab4939c86bd17e6c6ed89b\",\"dweb:/ipfs/QmXW8SLTuhdUpfn7pRpdsYdcyuim8RTyagU37ULcj5UZhT\"],\"license\":\"MIT\"},\"node_modules/@bananapus/core/src/interfaces/IJBProjects.sol\":{\"keccak256\":\"0x735c2fb8f1fa827f054ee77f7a0ae4b312656217acb75b624d2c8fd9dc40151b\",\"urls\":[\"bzz-raw://ee7fc92299a8633a80693ae63ab494dcd125f1789487a54a39dc0e5696e5996f\",\"dweb:/ipfs/QmX7YJD4pS2XhgQb7p3JbBAXynT7YGPXcZe92BiWWRrsCL\"],\"license\":\"MIT\"},\"node_modules/@bananapus/core/src/interfaces/IJBRedeemHook.sol\":{\"keccak256\":\"0x8ab46fcd7d0e739661eb76056ad93ff99106f38420ef0b4eb97fa9f4bb71a68a\",\"urls\":[\"bzz-raw://0ef96fcb7ad26281d444d8e0c677b25114fdd63b1c172d477e030dce8ba53b62\",\"dweb:/ipfs/Qmcx1jRQuwU4pZFuLxsSsx4oMbRaDfktHrPnXextgbWc5m\"],\"license\":\"MIT\"},\"node_modules/@bananapus/core/src/interfaces/IJBRulesetApprovalHook.sol\":{\"keccak256\":\"0x592e95d159494421c6b1bcb362d0cee1df0132921697351304e9cd7af4fbd386\",\"urls\":[\"bzz-raw://5bebfd5fa67c1b6ea16fa2e76e9520e9dfe52a579f48dd94d0c2ec45f78ad178\",\"dweb:/ipfs/QmRUawEGtfYoYSHmHELGhvJoWuMsxLPKtqAXgsrb7fJboP\"],\"license\":\"MIT\"},\"node_modules/@bananapus/core/src/interfaces/IJBRulesetDataHook.sol\":{\"keccak256\":\"0x13b4b9f4b847f62442da1c1a59b399f8f201b31a28edb96aa5a8a78ad57c24d0\",\"urls\":[\"bzz-raw://4fcd00b77d0f40cf6d5ee6590b6ef4ee1f606e89ae4c4faed3710fb462108f8e\",\"dweb:/ipfs/QmeoE54DQ3eGw9EDXfN7aTMmEjubAtirahmytDijo6GSeE\"],\"license\":\"MIT\"},\"node_modules/@bananapus/core/src/interfaces/IJBRulesets.sol\":{\"keccak256\":\"0xd3f817d22ecbe24da63c552c069bf0c4fbbf3bcd5c3b5633002afd24aacf6882\",\"urls\":[\"bzz-raw://c1185aec0f6b6f0f4d93ffeeed0972ccf38420b00fe570b5e1838ed2b1f5db49\",\"dweb:/ipfs/QmWz36azGTFnjFXpFSh6BHt4nactgjtF64L3PeTqs4ZqSR\"],\"license\":\"MIT\"},\"node_modules/@bananapus/core/src/interfaces/IJBSplitHook.sol\":{\"keccak256\":\"0xeb8dfac7a4b81897a1c3b5d0d853a406bcff33720fb187d5ca5bb3dcc0ba3a12\",\"urls\":[\"bzz-raw://36aaeef6107cfe5b0127e063ea215aac7200f8af02e28a48e61111abd3254688\",\"dweb:/ipfs/QmQ8yQANXnhQCAWBGKsKCDsJ3A8hnTKNg5tyo79GfWXTcV\"],\"license\":\"MIT\"},\"node_modules/@bananapus/core/src/interfaces/IJBSplits.sol\":{\"keccak256\":\"0x92deeb9e22ce2aaafc608b85e9250b8ea2deed1ebf64b7442038b157b2bfe0e6\",\"urls\":[\"bzz-raw://08bf29f0c13c2e8be46065277f67e44ecaea960cb5474f13775eece0672566c2\",\"dweb:/ipfs/QmeGu9C6tuBjfmeizmpzptxgGmch6Mbtm34NFwZxzMvqc4\"],\"license\":\"MIT\"},\"node_modules/@bananapus/core/src/interfaces/IJBTerminal.sol\":{\"keccak256\":\"0x19dc9bf8cbdc8f13ee5da9dc3a87047eacb94a3fc19740a286c1f0bad2cc39ca\",\"urls\":[\"bzz-raw://0b05ae6fda9a85672508232fd992b8a5f5ffd8096622eeb12c8a7b3317eb3867\",\"dweb:/ipfs/QmNh9Quj37BXYGdTdcCD1Q58PchRsE5TLbEZep56qS3MpV\"],\"license\":\"MIT\"},\"node_modules/@bananapus/core/src/interfaces/IJBToken.sol\":{\"keccak256\":\"0x71b1f9c3a0edd41910f77396e0be2c65596571176d53eb87e887c3c0da56c0fb\",\"urls\":[\"bzz-raw://6e956f0582f4525e83d845ee9b4a89959abc4f821414f6accbbee5b38960482d\",\"dweb:/ipfs/QmbSvjgmCgnfVmcCTGu8XwrV1Rufsf3M8hB8unFq6fTMdH\"],\"license\":\"MIT\"},\"node_modules/@bananapus/core/src/interfaces/IJBTokenUriResolver.sol\":{\"keccak256\":\"0xfa5cb00dcd6085d1ef912d071fe73c63f9478a2cd0f9d8bddaf659b6af2d0967\",\"urls\":[\"bzz-raw://282e4e7c342d65f77cde0e9a08fcaf20ef5cf379c7a48b639842c0ffd0b2afb8\",\"dweb:/ipfs/QmbnN3PEQeZaXdPLT75V1J79kMg7KqSMru37RHrL3z8Yf2\"],\"license\":\"MIT\"},\"node_modules/@bananapus/core/src/interfaces/IJBTokens.sol\":{\"keccak256\":\"0x6fd67af915dd541d9547c8297aa9ae269690e4ee23531db43f021bcacec6076f\",\"urls\":[\"bzz-raw://2e5e11954e9ab2319fffccb6563f3db400b8f7760d4ffe2165048a02c9c37fa6\",\"dweb:/ipfs/QmbDXtV83dK8EfiTjsTRf55R2XqPZzDKcjtYbW8sxQ5CFm\"],\"license\":\"MIT\"},\"node_modules/@bananapus/core/src/libraries/JBConstants.sol\":{\"keccak256\":\"0x9d3a9a953f859d8ec79a599577f8972de6da7199cc1bfa7fdad017d4d722bcb4\",\"urls\":[\"bzz-raw://f151fcb53a8d2684eff8b9e56ac790bcbcadd8199a4fd4d17c5b224b22936722\",\"dweb:/ipfs/QmdAz1ZtCE8nTiC4AxQNLfJhnY3ndGum2Lbef7seKdvTdR\"],\"license\":\"MIT\"},\"node_modules/@bananapus/core/src/libraries/JBSplitGroupIds.sol\":{\"keccak256\":\"0x932ca2645d443f04f86c8ffb27b5c58c4fbdc7b5a145fba1d43f1db9bd488a0f\",\"urls\":[\"bzz-raw://fa412d2c5726a868a258cd518648726b0784ab7ac7566376b82ba09680f66227\",\"dweb:/ipfs/QmZvfjBt7PQzTWNzrhysyHBegUbbu4aY2xDzBGnwqMaqnF\"],\"license\":\"MIT\"},\"node_modules/@bananapus/core/src/structs/JBAccountingContext.sol\":{\"keccak256\":\"0x2907ff54d1e903cc7e0390dd88c3975884702dc2673642aacbe22b66560b56de\",\"urls\":[\"bzz-raw://a66a5381ce877b32f0e0058ceeaf843e9b6b2bc8af666c0c9f4a9d01091da004\",\"dweb:/ipfs/QmQynCetUr37dBkS1YwDS8evxuXGiqanW6THmeUxXtim8w\"],\"license\":\"MIT\"},\"node_modules/@bananapus/core/src/structs/JBAfterPayRecordedContext.sol\":{\"keccak256\":\"0xd26c3a774ff38be79064085970454fe2603a23a638c76270d5b1b3829206c3e8\",\"urls\":[\"bzz-raw://3b55dbe3bf1ef625b7ca04efab3de35406e6041d5b3d82c7265469c500e2b702\",\"dweb:/ipfs/QmUdBDo4Lt3mcsFcsXT2mqq3czFwZjQJFPLM89YA2VtD7k\"],\"license\":\"MIT\"},\"node_modules/@bananapus/core/src/structs/JBAfterRedeemRecordedContext.sol\":{\"keccak256\":\"0x521f5d23a36f0da72362cd84890cc867bd83baa8dc836ba6c5066d51dba2f163\",\"urls\":[\"bzz-raw://6cc461313286dde62d045d6288e87bae5032e035796326f5b1ed6218e58aa9da\",\"dweb:/ipfs/QmQS2AkQwf2ANQieDuaUnpJEdXChoLv4CCbZqHkfywYPSR\"],\"license\":\"MIT\"},\"node_modules/@bananapus/core/src/structs/JBBeforePayRecordedContext.sol\":{\"keccak256\":\"0x5b04e814da83c7e83ff892ab07eaad6abce6f7b85a75f8da9380e9fc3470bc81\",\"urls\":[\"bzz-raw://11c889aab993fce3e3cc2dedc15fc30dd367e7fef9b7b1bfd6a6a9f248781731\",\"dweb:/ipfs/QmVVtydCD1azeWhGLxA1hthxfLyKzMHZ1eVzCz3a3R5dLy\"],\"license\":\"MIT\"},\"node_modules/@bananapus/core/src/structs/JBBeforeRedeemRecordedContext.sol\":{\"keccak256\":\"0x73eadaf6827e82f6ccbe3a1e2b2b7fc6c59cef471f73335041b30ddcc000989d\",\"urls\":[\"bzz-raw://2f3ee84662eed565dbdaed406ef836fffaf55cccd417575578152e5085d0b1f2\",\"dweb:/ipfs/QmaJGFS7hxJsiUdKvbv5BKhSwceDEzKBnt7t5YeNWvYgMK\"],\"license\":\"MIT\"},\"node_modules/@bananapus/core/src/structs/JBCurrencyAmount.sol\":{\"keccak256\":\"0x12fe4b43f4824994624d4fe0abbd88c3fe7867fd637edb65c7f456dab27e2d6e\",\"urls\":[\"bzz-raw://8003a3e8f932cf891e86b827e67c9d31b0d34c2712e18c2bc333cfe5284ba6d5\",\"dweb:/ipfs/QmSoA6RsDcSnNzk6CB7KZtALkHmeSDAi2g6fg3TDmLDkWX\"],\"license\":\"MIT\"},\"node_modules/@bananapus/core/src/structs/JBFundAccessLimitGroup.sol\":{\"keccak256\":\"0x9fdaa8d017b72da25f583700a444a86849df053f7fb8eac874ec5139bcf651e5\",\"urls\":[\"bzz-raw://c8e44c49ee444a98424a0dbeb6897a76a0bf00d88a613f62ac2012afdac754ee\",\"dweb:/ipfs/QmdYkAiRi5bXM1YYNkc7BiqimHSFodMGn1cjHR5hcpm4xH\"],\"license\":\"MIT\"},\"node_modules/@bananapus/core/src/structs/JBPayHookSpecification.sol\":{\"keccak256\":\"0x955f0bfca97300b9e5927dc181753830ee362f83fa9ca32a90daade32aa0cfd5\",\"urls\":[\"bzz-raw://f517af1597c7c40f8d3da53f7a6684a3e162950a16559d6bf6ea3b727bb11546\",\"dweb:/ipfs/QmRWo2ZTYXmVZTzNJDYhsJNsEaHphjpUfx9eNz2cciyz86\"],\"license\":\"MIT\"},\"node_modules/@bananapus/core/src/structs/JBPermissionsData.sol\":{\"keccak256\":\"0x8f0f69a6ebf5f3704e3dfcb3712fb9d3f94ae7c1ab89bf3e37bad42a3e7a0487\",\"urls\":[\"bzz-raw://57b0c5e52843e2217082889ed47b4da3943e0da4590d5768dcebfe3edad4a6b8\",\"dweb:/ipfs/QmRz48vuWLw81kUP836rh1qzqWiJFGbksgRUA9xGEDNKTY\"],\"license\":\"MIT\"},\"node_modules/@bananapus/core/src/structs/JBRedeemHookSpecification.sol\":{\"keccak256\":\"0x673d16ee1a91bf8de3b37e57284e60451b70a9c2d748c9cdc7a151f5624af18f\",\"urls\":[\"bzz-raw://ceeb5e81effa0f076c5630c756dfcf1548d09f822b255a0a6ee01e54de8c8ae2\",\"dweb:/ipfs/QmSMoMNPRhPMnuJNvWa6S59XRfycGz9o2ApNp63bUW6TdX\"],\"license\":\"MIT\"},\"node_modules/@bananapus/core/src/structs/JBRuleset.sol\":{\"keccak256\":\"0x15b2bf3174d84846a91ccbf5a344dfb125b55ed9cf50102db8d6868844225189\",\"urls\":[\"bzz-raw://647416b025dbd941094db89cbc69f755c155bd6c87be3f322394ccc4a8e0442d\",\"dweb:/ipfs/QmTCL9xcHnxQ4t5AmCPoZvXDUPW5xhzhyyXYbkMdyg44au\"],\"license\":\"MIT\"},\"node_modules/@bananapus/core/src/structs/JBRulesetConfig.sol\":{\"keccak256\":\"0x0be470df286939259a6b98bc71459e661e81d56a58226d6a574ae1484f8f8e6c\",\"urls\":[\"bzz-raw://64592c279ba7518ac180c835a539897163f299a439065f2cc8aa54086a2c9ad7\",\"dweb:/ipfs/QmaEepVvFJdXcDBMMr7SQYjZSDJXPtCca95kQY5rZbra6U\"],\"license\":\"MIT\"},\"node_modules/@bananapus/core/src/structs/JBRulesetMetadata.sol\":{\"keccak256\":\"0xfea54c9f98416d2aa05309e7ff76967d6968a614850a1e33e48fde793ea8b514\",\"urls\":[\"bzz-raw://bf55386cbab90dbc1296b2b0cbfdc217a4500d67702e4a093a4c78bd127ecd5c\",\"dweb:/ipfs/QmTRq9mZrNSXu7oCZwti4JbBFrbY6A5msRqi9RbtL49NAj\"],\"license\":\"MIT\"},\"node_modules/@bananapus/core/src/structs/JBRulesetWithMetadata.sol\":{\"keccak256\":\"0x1bcfadf20488f6df65227f8d4d0fbf9b7539456a2389567f7fe3900d23289bc3\",\"urls\":[\"bzz-raw://0a15c399a71e5373f8c0484c6d6b83521eda31e063a2c53e4c5cec4e74550343\",\"dweb:/ipfs/QmQwi8zkjoTVXbK89NeETYimWCacTrNsesJdpLSvGdqMPX\"],\"license\":\"MIT\"},\"node_modules/@bananapus/core/src/structs/JBSplit.sol\":{\"keccak256\":\"0x1d40fa4f1c911a53b9139f3d44d27cb58fa5c5d2cd793c7a21ccf52b9e61f848\",\"urls\":[\"bzz-raw://9897d2c29fc65fe16e4eac0b7b8b6fd8ef0b0cc501986f7f0c3a78c4ec1dbb60\",\"dweb:/ipfs/QmXcHoVjCYWWCz4hm2KZ6JxtB4YNq7jmXa2evLkga59Xwq\"],\"license\":\"MIT\"},\"node_modules/@bananapus/core/src/structs/JBSplitGroup.sol\":{\"keccak256\":\"0xda7da6e88aac2906c7ea4027660088daf217edc632bebca4d72795aae8921564\",\"urls\":[\"bzz-raw://ae1939d17e94cb51484f31ce64cf0df990445a338fb9b38d39a7baf28275ae4a\",\"dweb:/ipfs/QmUhPnJiWnYhFdtLvZnrPopAdbYXxETpGjvxjPDignpTGY\"],\"license\":\"MIT\"},\"node_modules/@bananapus/core/src/structs/JBSplitHookContext.sol\":{\"keccak256\":\"0xfe34e6860b00ca93d71f44e72882281b2c57c31303151af05795c74cfdd2e51d\",\"urls\":[\"bzz-raw://08acab094888e9c929b6f6f972d89ddbb31e5867675e7e7c602d25fcb2c0f402\",\"dweb:/ipfs/QmPNdXM185cTyXQSodVr4JMviHx88jrWu7dipgkp9xTNgJ\"],\"license\":\"MIT\"},\"node_modules/@bananapus/core/src/structs/JBTerminalConfig.sol\":{\"keccak256\":\"0xd162f3821a1ccafbc8d7d108369e39ac3048445a8c7fe7a3fa97a6343f9eefaa\",\"urls\":[\"bzz-raw://82172ea0407b6d9edc45e408c7e8edb8e129adf49a94349fe3a5862da9bc044e\",\"dweb:/ipfs/QmWheF5Tjq2hcabnSzfYqdFHUA1YxYEdAPZaRw9N166V1d\"],\"license\":\"MIT\"},\"node_modules/@bananapus/core/src/structs/JBTokenAmount.sol\":{\"keccak256\":\"0x5cf0626b73a596c1e2da17c89ae039a7c0374310b060d48568d3b6c11fbe6180\",\"urls\":[\"bzz-raw://63348b50be95e2995409394a17caffc563a646f0972650a1230bf864fbd3219b\",\"dweb:/ipfs/QmZXZpS3SbFD5nWaCauf6AqbEhLURv5qsKHpThBvQgDU6u\"],\"license\":\"MIT\"},\"node_modules/@bananapus/permission-ids/src/JBPermissionIds.sol\":{\"keccak256\":\"0xf61109f6b217a80d5e5391f548fb6f2e451f7dbee3fabfc04cf17e88722203bc\",\"urls\":[\"bzz-raw://ac776ab1cd621c22bd7973471acdfa187f3abc659ad9a3ef6ed10b6447dfcf9c\",\"dweb:/ipfs/QmYLbaHt68qcuMzkiKpe96jMjiWUq1F3u8yMhxmZ3pnnWu\"],\"license\":\"MIT\"},\"node_modules/@bananapus/suckers/src/interfaces/IBPSucker.sol\":{\"keccak256\":\"0x2a3136ea5608c3e76b9f3114a470980f2a96427535aaccbd65dcc37d3a3dd0f8\",\"urls\":[\"bzz-raw://8cc997a396b183525892a0640ce03aee9fa3f15971266c826a308f6c74ff63f2\",\"dweb:/ipfs/QmZcoMkGbujqLm5B9v5urpFwUVg2uoG7ybPHX8RRxsygpe\"],\"license\":\"MIT\"},\"node_modules/@bananapus/suckers/src/interfaces/IBPSuckerDeployer.sol\":{\"keccak256\":\"0xe252e890c4b5e12d5fa537a11cd2fad936f41be80240301ace8afca3de481222\",\"urls\":[\"bzz-raw://730855964dd0629f3d514ed52f59d80d02786733c3b8b5cf21e69524de7f8829\",\"dweb:/ipfs/QmUuoYEmnzUNn3hANGrg8sDZdjoaEbgWMWLepsSQt9MUyw\"],\"license\":\"MIT\"},\"node_modules/@bananapus/suckers/src/interfaces/IBPSuckerRegistry.sol\":{\"keccak256\":\"0xaed1d396dd1748585f4f16cd72519efadcb089ecd9b8a1786d3d353cffb6218a\",\"urls\":[\"bzz-raw://94de3a0692ac733ab780449431dea24e402b41c7c768fc7868bf0f259a65d80d\",\"dweb:/ipfs/QmR3STDP2YbPi7LTsAC3XSv2gT7GMD83krYeReFVDE4eKU\"],\"license\":\"UNLICENSED\"},\"node_modules/@bananapus/suckers/src/structs/BPSuckerDeployerConfig.sol\":{\"keccak256\":\"0x867e10bc73a07ab19cf5511d047dc885e3cfae58fc5f3441f6a5d3174afe6b78\",\"urls\":[\"bzz-raw://b8c3e72e57958bb2e2b8072ac6055804598c080a748fbc2f40a783575435809e\",\"dweb:/ipfs/QmbY7W6i5qAAj42EsQX8yt8M8nXArXByEGosnHWyxs4BE7\"],\"license\":\"MIT\"},\"node_modules/@bananapus/suckers/src/structs/BPTokenMapping.sol\":{\"keccak256\":\"0x84865bda925cdc9a608cbbfc487619acba391f98ae12bbbfdbc5779d617a17d9\",\"urls\":[\"bzz-raw://3bbc1fdd38feaf64fd4914bddb62cda7e5b8ee0f046a0eac8cfcb15f9493bcc5\",\"dweb:/ipfs/QmXgAx7sr1M8r71YrSeQJGAB1uhvdxpQyS633UgJvLCQfb\"],\"license\":\"MIT\"},\"node_modules/@openzeppelin/contracts/metatx/ERC2771Context.sol\":{\"keccak256\":\"0x98256cf37b71a69b2f5a8a6fe975ea03590dff703102bd141a830f94e8adebf6\",\"urls\":[\"bzz-raw://6251fe1f6a1e45e6d619d150c123afc88b8646b38ee26a136efa9a6988a31d3f\",\"dweb:/ipfs/QmeXDT85wSZdP31wkz3ah3KhponCiksJLP5o2LR5e1JxcK\"],\"license\":\"MIT\"},\"node_modules/@openzeppelin/contracts/token/ERC20/IERC20.sol\":{\"keccak256\":\"0xc6a8ff0ea489379b61faa647490411b80102578440ab9d84e9a957cc12164e70\",\"urls\":[\"bzz-raw://0ea104e577e63faea3b69c415637e99e755dcbf64c5833d7140c35a714d6d90c\",\"dweb:/ipfs/Qmau6x4Ns9XdyynRCNNp3RhLqijJjFm7z5fyZazfYFGYdq\"],\"license\":\"MIT\"},\"node_modules/@openzeppelin/contracts/token/ERC721/IERC721.sol\":{\"keccak256\":\"0x5ef46daa3b58ef2702279d514780316efaa952915ee1aa3396f041ee2982b0b4\",\"urls\":[\"bzz-raw://2f8f2a76e23b02fc69e8cd24c3cb47da6c7af3a2d6c3a382f8ac25c6e094ade7\",\"dweb:/ipfs/QmPV4ZS4tPVv4mTCf9ejyZ1ai57EEibDRj7mN2ARDCLV5n\"],\"license\":\"MIT\"},\"node_modules/@openzeppelin/contracts/token/ERC721/IERC721Receiver.sol\":{\"keccak256\":\"0x7f7a26306c79a65fb8b3b6c757cd74660c532cd8a02e165488e30027dd34ca49\",\"urls\":[\"bzz-raw://d01e0b2b837ee2f628545e54d8715b49c7ef2befd08356c2e7f6c50dde8a1c22\",\"dweb:/ipfs/QmWBAn6y2D1xgftci97Z3qR9tQnkvwQpYwFwkTvDMvqU4i\"],\"license\":\"MIT\"},\"node_modules/@openzeppelin/contracts/utils/Context.sol\":{\"keccak256\":\"0x493033a8d1b176a037b2cc6a04dad01a5c157722049bbecf632ca876224dd4b2\",\"urls\":[\"bzz-raw://6a708e8a5bdb1011c2c381c9a5cfd8a9a956d7d0a9dc1bd8bcdaf52f76ef2f12\",\"dweb:/ipfs/Qmax9WHBnVsZP46ZxEMNRQpLQnrdE4dK8LehML1Py8FowF\"],\"license\":\"MIT\"},\"node_modules/@openzeppelin/contracts/utils/introspection/ERC165.sol\":{\"keccak256\":\"0x9e8778b14317ba9e256c30a76fd6c32b960af621987f56069e1e819c77c6a133\",\"urls\":[\"bzz-raw://1777404f1dcd0fac188e55a288724ec3c67b45288e49cc64723e95e702b49ab8\",\"dweb:/ipfs/QmZFdC626GButBApwDUvvTnUzdinevC3B24d7yyh57XkiA\"],\"license\":\"MIT\"},\"node_modules/@openzeppelin/contracts/utils/introspection/IERC165.sol\":{\"keccak256\":\"0x4296879f55019b23e135000eb36896057e7101fb7fb859c5ef690cf14643757b\",\"urls\":[\"bzz-raw://87b3541437c8c443ccd36795e56a338ed12855eec17f8da624511b8d1a7e14df\",\"dweb:/ipfs/QmeJQCtZrQjtJLr6u7ZHWeH3pBnjtLWzvRrKViAi7UZqxL\"],\"license\":\"MIT\"},\"node_modules/@uniswap/v3-core/contracts/interfaces/IUniswapV3Pool.sol\":{\"keccak256\":\"0x4e64844c56061cd90e0a80de73534a9166704c43eed579eb83f90bc2780ce968\",\"urls\":[\"bzz-raw://cba4fab5cebdddf644b901994a7f0f52b98885d4c56012f4dc51d52c2bf9de0e\",\"dweb:/ipfs/QmVyyrRmqXrAiapewWunRVgiPVFJHpH2hKiE1py1svMSNV\"],\"license\":\"GPL-2.0-or-later\"},\"node_modules/@uniswap/v3-core/contracts/interfaces/callback/IUniswapV3SwapCallback.sol\":{\"keccak256\":\"0x3f485fb1a44e8fbeadefb5da07d66edab3cfe809f0ac4074b1e54e3eb3c4cf69\",\"urls\":[\"bzz-raw://095ce0626b41318c772b3ebf19d548282607f6a8f3d6c41c13edfbd5370c8652\",\"dweb:/ipfs/QmVDZfJJ89UUCE1hMyzqpkZAtQ8jUsBgZNE5AMRG7RzRFS\"],\"license\":\"GPL-2.0-or-later\"},\"node_modules/@uniswap/v3-core/contracts/interfaces/pool/IUniswapV3PoolActions.sol\":{\"keccak256\":\"0x9453dd0e7442188667d01d9b65de3f1e14e9511ff3e303179a15f6fc267f7634\",\"urls\":[\"bzz-raw://982f4328f956c3e60e67501e759eb292ac487f76460c774c50e9ae4fcc92aae5\",\"dweb:/ipfs/QmRnzEDsaqtd9PJEVcgQi7p5aV5pMSvRUoGZJAdwFUJxgZ\"],\"license\":\"GPL-2.0-or-later\"},\"node_modules/@uniswap/v3-core/contracts/interfaces/pool/IUniswapV3PoolDerivedState.sol\":{\"keccak256\":\"0xe603ac5b17ecdee73ba2b27efdf386c257a19c14206e87eee77e2017b742d9e5\",\"urls\":[\"bzz-raw://8febc9bdb399a4d94bb89f5377732652e2400e4a8dee808201ade6848f9004e7\",\"dweb:/ipfs/QmaKDqYYFU4d2W2iN77aDHptfbFmYZRrMYXHeGpJmM8C1c\"],\"license\":\"GPL-2.0-or-later\"},\"node_modules/@uniswap/v3-core/contracts/interfaces/pool/IUniswapV3PoolErrors.sol\":{\"keccak256\":\"0xf80abf13fb1fafc127ba4e792f240dd8ea7c8c893978cdfd8439c27fae9a037b\",\"urls\":[\"bzz-raw://b04fc72a656bbf3631e9c2e67b9870a2d9d235185e833fe050e9606e6816a9aa\",\"dweb:/ipfs/QmUcz4bkEkJ9pwzFu1C3n97hBQ3st9U6qTAqCdyFwddKco\"],\"license\":\"GPL-2.0-or-later\"},\"node_modules/@uniswap/v3-core/contracts/interfaces/pool/IUniswapV3PoolEvents.sol\":{\"keccak256\":\"0x8071514d0fe5d17d6fbd31c191cdfb703031c24e0ece3621d88ab10e871375cd\",\"urls\":[\"bzz-raw://d0b571930cc7488b1d546a7e9cea7c52d8b3c4e207da657ed0e0db7343b8cd03\",\"dweb:/ipfs/QmaGK6vVwB95QSTR1XMYvrh7ivYAYZxi3fD7v6VMA4jZ39\"],\"license\":\"GPL-2.0-or-later\"},\"node_modules/@uniswap/v3-core/contracts/interfaces/pool/IUniswapV3PoolImmutables.sol\":{\"keccak256\":\"0xf6e5d2cd1139c4c276bdbc8e1d2b256e456c866a91f1b868da265c6d2685c3f7\",\"urls\":[\"bzz-raw://b99c8c9ae8e27ee6559e5866bea82cbc9ffc8247f8d15b7422a4deb287d4d047\",\"dweb:/ipfs/QmfL8gaqt3ffAnm6nVj5ksuNpLygXuL3xq5VBqrkwC2JJ3\"],\"license\":\"GPL-2.0-or-later\"},\"node_modules/@uniswap/v3-core/contracts/interfaces/pool/IUniswapV3PoolOwnerActions.sol\":{\"keccak256\":\"0x759b78a2918af9e99e246dc3af084f654e48ef32bb4e4cb8a966aa3dcaece235\",\"urls\":[\"bzz-raw://64144fb96e1c7fdba87305acadb98a198d26a3d46c097cb3a666e567f6f29735\",\"dweb:/ipfs/QmUnWVwN9FKB9uV5Pr8YfLpWZnYM2DENnRMaadZ492JS9u\"],\"license\":\"GPL-2.0-or-later\"},\"node_modules/@uniswap/v3-core/contracts/interfaces/pool/IUniswapV3PoolState.sol\":{\"keccak256\":\"0x44fa2ce1182f6c2f6bead3d1737804bf7e112252ae86e0f2e92f9b8249603f43\",\"urls\":[\"bzz-raw://54154e8665b98d65f5dc91b256551852cb47882180b501b260657122d207c0ea\",\"dweb:/ipfs/QmcfemK1A2PXYrWB5SBFGERpMCderbFRb8BtTzQDj1sUBp\"],\"license\":\"GPL-2.0-or-later\"},\"src/REVBasicDeployer.sol\":{\"keccak256\":\"0x45595b12d2500f2b89b9b669d24548f52a6216dcdeee27ca8d2d632ccc4a6f9d\",\"urls\":[\"bzz-raw://50d77d602ba2c8c699d0814b95f6c79ed560550183eb6b9222d488e27b7175a6\",\"dweb:/ipfs/QmVDVjuYcxisrFDGoLgmsHder9Ajjzv8Fpp5LXVpopJu68\"],\"license\":\"MIT\"},\"src/interfaces/IREVBasicDeployer.sol\":{\"keccak256\":\"0x7f99c061855c2b8e721323fc5d9116d23b3f2b37585d77353a6149f9de61998e\",\"urls\":[\"bzz-raw://aed573a7949f2fdfb71001b19d1b6b88d55142eaa5b3ee588902764843a290cc\",\"dweb:/ipfs/QmYmBrB12UW5cJc2AcbZ68apjqenUCzLw72N3cDebR7VFW\"],\"license\":null},\"src/structs/REVBuybackHookConfig.sol\":{\"keccak256\":\"0xdae5ecff2ff2a04c0aab17093f023b2161994dc0e6e2adc5006d36d157eb09aa\",\"urls\":[\"bzz-raw://5e0eed08e652290f59c0d18565df21be3fc7b33ca3fa41c393461472479e4a7f\",\"dweb:/ipfs/QmfZcbmdvYDQwEE4eesGpcxdojAm9BhJ81fdkxjX9LU9Sa\"],\"license\":\"MIT\"},\"src/structs/REVBuybackPoolConfig.sol\":{\"keccak256\":\"0x83f2a3875a8b1955856b72bfddd90c0cc2fbe26697f1dd4e13b33c0319049a14\",\"urls\":[\"bzz-raw://e1e37d0eb626221b6a8774a155a3799dc5cf0b497d26263ef323ed768d61a0dc\",\"dweb:/ipfs/QmcSPDAaPemjh3a1XycV4qDMJwctnuwiKe3wXrRUjotKAB\"],\"license\":\"MIT\"},\"src/structs/REVConfig.sol\":{\"keccak256\":\"0x5b53b84ea0fc0e3f2dca7b13b09d3792a11b3960155d00a1741e750b1cbb2781\",\"urls\":[\"bzz-raw://a35f79a509999bb383bf2086da5df35b9cce76af91e3b3633c022b0cceee789a\",\"dweb:/ipfs/QmXTUQHGfmmFABnqwLcRo88FyuM7TZh9pswdotUeHYMrGH\"],\"license\":\"MIT\"},\"src/structs/REVDescription.sol\":{\"keccak256\":\"0x40bebc53d50dbfb261882f51c7667d7263193e8fc48897b9384c2ca259046c1b\",\"urls\":[\"bzz-raw://24f98bc7ef12f53afa326a266c69683e24501405f72566b7ca7e8dad242e1fe1\",\"dweb:/ipfs/QmNkLsCwhx5pTuMmJLwUNJdPrGjEi3H9JnTX2s9GsoUTAa\"],\"license\":\"MIT\"},\"src/structs/REVStageConfig.sol\":{\"keccak256\":\"0x0356af8b2ac6ae9b2e23562d638a4903d707350a365d90bfd468b8d4f98c41b5\",\"urls\":[\"bzz-raw://85d7712485745986f7d5caa059a80563bad151dadf67eb4752f2f272cbf46a1e\",\"dweb:/ipfs/QmRhbgEfGfvbZAs1hp4cbwpi2aeLzfZTrfpDGCoey7xiCs\"],\"license\":\"MIT\"},\"src/structs/REVSuckerDeploymentConfig.sol\":{\"keccak256\":\"0xed607665da0efa1a1662a7e094095f336bef2d6694f79e5d8158cacf73c34dac\",\"urls\":[\"bzz-raw://c8c68b67a28a7dfc060596cfb98b7fc05ad0c9b61482f60a04810bc68cc0b8e3\",\"dweb:/ipfs/QmeLH5z8J6DDjRQXfJi4BoMmQqY4zTjERYfSzu8Uypkawp\"],\"license\":\"MIT\"}},\"version\":1}",
			"args": [
				"0x799D42391ed21894b105590300EEd66255d72225",
				"0x3F209aB51b59Bc6C2c9C2f2147d3d51E29A862d7",
				"0xB2b5841DBeF766d4b521221732F9B618fCf34A87"
			],
			"bytecode": "0x60e06040523480156200001157600080fd5b50604051620042f9380380620042f98339810160408190526200003491620000bc565b6001600160a01b0390811660805291821660a0521660c0526002805460018181018355600083905260117f405787fa12a823e0f2b7631cc41b3ba8828b3321ca811111fa75cd3aa3bb5ace92830155825480820184556019908301558254908101909255600691015562000110565b6001600160a01b0381168114620000b957600080fd5b50565b600080600060608486031215620000d257600080fd5b8351620000df81620000a3565b6020850151909350620000f281620000a3565b60408501519092506200010581620000a3565b809150509250925092565b60805160a05160c051614134620001c5600039600081816102c701528181610900015281816109e901528181610d0401528181611804015261192a015260008181610316015281816103a501528181610b1801528181610ddc01528181610f55015281816110d0015281816112a801528181611375015281816114650152818161152d015281816115f0015281816116ed015261183f0152600081816101cb01528181610271015261229901526141346000f3fe608060405234801561001057600080fd5b50600436106101005760003560e01c80637249a77311610097578063b5d2553311610066578063b5d25533146102c2578063bb199402146102e9578063eb5ad9d9146102fe578063ee0fc1211461031157600080fd5b80637249a7731461022e5780637da0a8771461026f5780639d82ba2514610295578063aaf320d71461029f57600080fd5b80634c4ffc71116100d35780634c4ffc711461019a578063572b6c05146101bb5780635c0a7cee146101fb578063677ce0881461021b57600080fd5b806301ffc9a714610105578063150b7a021461012d5780631d3eedaa1461015957806343681e151461017a575b600080fd5b6101186101133660046123f5565b610338565b60405190151581526020015b60405180910390f35b61014061013b36600461244e565b6103a1565b6040516001600160e01b03199091168152602001610124565b61016c610167366004612c4c565b61046d565b604051908152602001610124565b61016c610188366004612d8b565b60016020526000908152604090205481565b6101ad6101a8366004612da4565b610489565b604051610124929190612ea4565b6101186101c9366004612ec5565b7f00000000000000000000000000000000000000000000000000000000000000006001600160a01b0390811691161490565b61020e610209366004612d8b565b610780565b6040516101249190612ee2565b610118610229366004612ef5565b6108a4565b61025761023c366004612d8b565b6000602081905290815260409020546001600160a01b031681565b6040516001600160a01b039091168152602001610124565b7f0000000000000000000000000000000000000000000000000000000000000000610257565b61016c6276a70081565b6102b26102ad366004612f25565b6109d9565b6040516101249493929190612f61565b6102577f000000000000000000000000000000000000000000000000000000000000000081565b6102fc6102f7366004613001565b610b16565b005b6102fc61030c366004612ef5565b610dcd565b6102577f000000000000000000000000000000000000000000000000000000000000000081565b60006001600160e01b031982167f81c03c2e00000000000000000000000000000000000000000000000000000000148061039b57507f01ffc9a7000000000000000000000000000000000000000000000000000000006001600160e01b03198316145b92915050565b60007f00000000000000000000000000000000000000000000000000000000000000006001600160a01b031663293c49996040518163ffffffff1660e01b8152600401602060405180830381865afa158015610401573d6000803e3d6000fd5b505050506040513d601f19601f820116820180604052508101906104259190613085565b6001600160a01b0316336001600160a01b03161461044257600080fd5b507f150b7a020000000000000000000000000000000000000000000000000000000095945050505050565b600061047f8686868630600088611287565b9695505050505050565b60c081013560009081526020819052604081205460609081906001600160a01b03168015610541576040517f4c4ffc710000000000000000000000000000000000000000000000000000000081526001600160a01b03821690634c4ffc71906104f690889060040161314d565b600060405180830381865afa158015610513573d6000803e3d6000fd5b505050506040513d6000823e601f3d908101601f1916820160405261053b919081019061321e565b90945091505b815160c086013560009081526004602090815260408083208054825181850281018501909352808352941515949192909190849084015b8282101561065c576000848152602090819020604080516060810182526003860290920180546001600160a01b03168352600181015493830193909352600283018054929392918401916105cb90613366565b80601f01602080910402602001604051908101604052809291908181526020018280546105f790613366565b80156106445780601f1061061957610100808354040283529160200191610644565b820191906000526020600020905b81548152906001019060200180831161062757829003601f168201915b50505050508152505081526020019060010190610578565b50505050905060008151905082610674576000610677565b60015b6106849060ff16826133b6565b67ffffffffffffffff81111561069c5761069c6124ed565b6040519080825280602002602001820160405280156106e957816020015b604080516060808201835260008083526020830152918101919091528152602001906001900390816106ba5790505b50955060005b8181101561073657828181518110610709576107096133c9565b6020026020010151878281518110610723576107236133c9565b60209081029190910101526001016106ef565b5082156107765784600081518110610750576107506133c9565b602002602001015186828151811061076a5761076a6133c9565b60200260200101819052505b5050505050915091565b606060046000838152602001908152602001600020805480602002602001604051908101604052809291908181526020016000905b82821015610899576000848152602090819020604080516060810182526003860290920180546001600160a01b031683526001810154938301939093526002830180549293929184019161080890613366565b80601f016020809104026020016040519081016040528092919081815260200182805461083490613366565b80156108815780601f1061085657610100808354040283529160200191610881565b820191906000526020600020905b81548152906001019060200180831161086457829003601f168201915b505050505081525050815260200190600101906107b5565b505050509050919050565b6000828152602081905260408120546001600160a01b03908116908316036108ce5750600161039b565b6040517f3d12cb87000000000000000000000000000000000000000000000000000000008152600481018490526000907f00000000000000000000000000000000000000000000000000000000000000006001600160a01b031690633d12cb8790602401600060405180830381865afa15801561094f573d6000803e3d6000fd5b505050506040513d6000823e601f3d908101601f1916820160405261097791908101906133df565b805190915060005b818110156109cd57828181518110610999576109996133c9565b60200260200101516001600160a01b0316856001600160a01b0316036109c5576001935050505061039b565b60010161097f565b50600095945050505050565b6000808060606001600160a01b037f0000000000000000000000000000000000000000000000000000000000000000166383db9d0160408701803590610a229060208a01612ec5565b6040516001600160e01b031960e085901b16815260048101929092526001600160a01b03166024820152604401602060405180830381865afa158015610a6c573d6000803e3d6000fd5b505050506040513d601f19601f82011682018060405250810190610a909190613479565b15610aad5761271085608001358660a00135935093509350610b0f565b604080860135600090815260016020522054421015610af8576040517f04c3b3cd00000000000000000000000000000000000000000000000000000000815260040160405180910390fd5b84610160013585608001358660a001359350935093505b9193509193565b7f00000000000000000000000000000000000000000000000000000000000000006001600160a01b0316631f47ce696040518163ffffffff1660e01b8152600401602060405180830381865afa158015610b74573d6000803e3d6000fd5b505050506040513d601f19601f82011682018060405250810190610b989190613085565b6001600160a01b031663f434c9146040518163ffffffff1660e01b8152600401602060405180830381865afa158015610bd5573d6000803e3d6000fd5b505050506040513d601f19601f82011682018060405250810190610bf99190613085565b6001600160a01b0316630f5932f0610c0f611a58565b3086610c1a88611a67565b6040518563ffffffff1660e01b8152600401610c3994939291906134d7565b602060405180830381865afa158015610c56573d6000803e3d6000fd5b505050506040513d601f19601f82011682018060405250810190610c7a9190613479565b610c97576040516331fb21f360e01b815260040160405180910390fd5b6000610ca1611a58565b838360200151604051602001610cb993929190613509565b60408051601f1981840301815290829052805160209091012083517f2f3f50e00000000000000000000000000000000000000000000000000000000083529092506001600160a01b037f00000000000000000000000000000000000000000000000000000000000000001691632f3f50e091610d3b9188918691600401613613565b6000604051808303816000875af1158015610d5a573d6000803e3d6000fd5b505050506040513d6000823e601f3d908101601f19168201604052610d8291908101906133df565b5080847f755ecfca2f6e66af8868551556bf7931740a7062db8e0882f4c322fdb0bb3f608585610db0611a58565b604051610dbf9392919061365b565b60405180910390a350505050565b6000610dd883611a67565b90507f00000000000000000000000000000000000000000000000000000000000000006001600160a01b0316631f47ce696040518163ffffffff1660e01b8152600401602060405180830381865afa158015610e38573d6000803e3d6000fd5b505050506040513d601f19601f82011682018060405250810190610e5c9190613085565b6001600160a01b031663f434c9146040518163ffffffff1660e01b8152600401602060405180830381865afa158015610e99573d6000803e3d6000fd5b505050506040513d601f19601f82011682018060405250810190610ebd9190613085565b6001600160a01b0316630f5932f0610ed3611a58565b3086856040518563ffffffff1660e01b8152600401610ef594939291906134d7565b602060405180830381865afa158015610f12573d6000803e3d6000fd5b505050506040513d601f19601f82011682018060405250810190610f369190613479565b610f53576040516331fb21f360e01b815260040160405180910390fd5b7f00000000000000000000000000000000000000000000000000000000000000006001600160a01b0316631f47ce696040518163ffffffff1660e01b8152600401602060405180830381865afa158015610fb1573d6000803e3d6000fd5b505050506040513d601f19601f82011682018060405250810190610fd59190613085565b6001600160a01b031663f434c9146040518163ffffffff1660e01b8152600401602060405180830381865afa158015611012573d6000803e3d6000fd5b505050506040513d601f19601f820116820180604052508101906110369190613085565b6001600160a01b03166305d2912e306040518060600160405280611058611a58565b6001600160a01b0316815260208082018990526040805160008152918201815291820152516001600160e01b031960e085901b16815261109c92919060040161369a565b600060405180830381600087803b1580156110b657600080fd5b505af11580156110ca573d6000803e3d6000fd5b505050507f00000000000000000000000000000000000000000000000000000000000000006001600160a01b0316631f47ce696040518163ffffffff1660e01b8152600401602060405180830381865afa15801561112c573d6000803e3d6000fd5b505050506040513d601f19601f820116820180604052508101906111509190613085565b6001600160a01b031663f434c9146040518163ffffffff1660e01b8152600401602060405180830381865afa15801561118d573d6000803e3d6000fd5b505050506040513d601f19601f820116820180604052508101906111b19190613085565b6001600160a01b03166305d2912e306040518060600160405280866001600160a01b03168152602001878152602001858152506040518363ffffffff1660e01b815260040161120192919061369a565b600060405180830381600087803b15801561121b57600080fd5b505af115801561122f573d6000803e3d6000fd5b50505050816001600160a01b0316837f0329d6a81434b130c72eb65eea0e32e429dc1277b4aad86ec86454aefb618451611267611a58565b6040516001600160a01b03909116815260200160405180910390a3505050565b6000806000806112988a8888611c1f565b9250925092508a600003611373577f00000000000000000000000000000000000000000000000000000000000000006001600160a01b0316630634bae9308c6000015160400151868d8f60000151602001516040516020016112fa91906136dd565b6040516020818303038152906040526040518663ffffffff1660e01b8152600401611329959493929190613b0b565b6020604051808303816000875af1158015611348573d6000803e3d6000fd5b505050506040513d601f19601f8201168201806040525081019061136c9190613b73565b9a50611431565b7f00000000000000000000000000000000000000000000000000000000000000006001600160a01b0316631ea7bc8c8c858c8e60000151602001516040516020016113be91906136dd565b6040516020818303038152906040526040518563ffffffff1660e01b81526004016113ec9493929190613b8c565b6020604051808303816000875af115801561140b573d6000803e3d6000fd5b505050506040513d601f19601f8201168201806040525081019061142f9190613b73565b505b80806114415750468a6060015114155b15611463576114536276a700426133b6565b60008c8152600160205260409020555b7f00000000000000000000000000000000000000000000000000000000000000006001600160a01b031663581781918c8c60000151600001518d60000151602001518e60000151606001516040518563ffffffff1660e01b81526004016114cd9493929190613bcb565b6020604051808303816000875af11580156114ec573d6000803e3d6000fd5b505050506040513d601f19601f820116820180604052508101906115109190613085565b5087516001600160a01b03161561152b5761152b8b89611fe0565b7f00000000000000000000000000000000000000000000000000000000000000006001600160a01b031663dd5f214a8c600061156a8e6080015161214b565b6040518463ffffffff1660e01b815260040161158893929190613c08565b600060405180830381600087803b1580156115a257600080fd5b505af11580156115b6573d6000803e3d6000fd5b50505050600060405180606001604052808c608001516001600160a01b031681526020018d81526020016115e98e611a67565b81525090507f00000000000000000000000000000000000000000000000000000000000000006001600160a01b031663f434c9146040518163ffffffff1660e01b8152600401602060405180830381865afa15801561164c573d6000803e3d6000fd5b505050506040513d601f19601f820116820180604052508101906116709190613085565b6001600160a01b03166305d2912e30836040518363ffffffff1660e01b815260040161169d92919061369a565b600060405180830381600087803b1580156116b757600080fd5b505af11580156116cb573d6000803e3d6000fd5b5050505060008b604001511180156116e65750468b60600151145b156117b4577f00000000000000000000000000000000000000000000000000000000000000006001600160a01b031663c7fb92de8d8d604001518e608001518f600001516020015160405160200161173e9190613cf7565b60405160208183030381529060405260006040518663ffffffff1660e01b815260040161176f959493929190613d47565b6020604051808303816000875af115801561178e573d6000803e3d6000fd5b505050506040513d601f19601f820116820180604052508101906117b29190613b73565b505b60408051600180825281830190925260009160208083019080368337019050509050601c816000815181106117eb576117eb6133c9565b60200260200101818152505060405180606001604052807f00000000000000000000000000000000000000000000000000000000000000006001600160a01b031681526020018e81526020018281525091507f00000000000000000000000000000000000000000000000000000000000000006001600160a01b031663f434c9146040518163ffffffff1660e01b8152600401602060405180830381865afa15801561189b573d6000803e3d6000fd5b505050506040513d601f19601f820116820180604052508101906118bf9190613085565b6001600160a01b03166305d2912e30846040518363ffffffff1660e01b81526004016118ec92919061369a565b600060405180830381600087803b15801561190657600080fd5b505af115801561191a573d6000803e3d6000fd5b505050506020870151156119fa577f00000000000000000000000000000000000000000000000000000000000000006001600160a01b0316632f3f50e08e611960611a58565b878b6020015160405160200161197893929190613509565b60408051601f198184030181529082905280516020909101208b516001600160e01b031960e086901b1683526119b19392600401613613565b6000604051808303816000875af11580156119d0573d6000803e3d6000fd5b505050506040513d6000823e601f3d908101601f191682016040526119f891908101906133df565b505b8c7f4b827371715024f69a0bc98c8df6edafe6e471e78488ab1b3849de72f66b12e08d8d8d8b8a8a8a611a2b611a58565b604051611a3f989796959493929190613eaa565b60405180910390a2509a9b9a5050505050505050505050565b6000611a62612289565b905090565b606060006002805480602002602001604051908101604052809291908181526020018280548015611ab757602002820191906000526020600020905b815481526020019060010190808311611aa3575b50508351600088815260036020908152604080832080548251818502810185019093528083529899509397929650945091925090830182828015611b1a57602002820191906000526020600020905b815481526020019060010190808311611b06575b50508351939450611b3192508391508590506133b6565b67ffffffffffffffff811115611b4957611b496124ed565b604051908082528060200260200182016040528015611b72578160200160208202803683370190505b50945060005b83811015611bbf57848181518110611b9257611b926133c9565b6020026020010151868281518110611bac57611bac6133c9565b6020908102919091010152600101611b78565b5060005b81811015611c1557828181518110611bdd57611bdd6133c9565b6020026020010151868286611bf291906133b6565b81518110611c0257611c026133c9565b6020908102919091010152600101611bc3565b5050505050919050565b6060806000808660a001515190508067ffffffffffffffff811115611c4657611c466124ed565b604051908082528060200260200182016040528015611d3857816020015b611d256040805161010080820183526000808352602080840182905283850182905260608085018390526080808601849052865161020081018852848152928301849052958201839052810182905293840181905260a084810182905260c0850182905260e0850182905291840181905261012084018190526101408401819052610160840181905261018084018190526101a084018190526101c084018190526101e0840152909190820190815260200160608152602001606081525090565b815260200190600190039081611c645790505b509350611d44876122fe565b6040805160c081018252600080825260208201819052918101829052606081018290526080810182905260a081018290529194505b82811015611fd4578860a001518181518110611d9757611d976133c9565b60200260200101519150816000015164ffffffffff16868281518110611dbf57611dbf6133c9565b60200260200101516000018181525050816060015164ffffffffff16868281518110611ded57611ded6133c9565b6020026020010151602001818152505081604001516dffffffffffffffffffffffffffff16868281518110611e2457611e246133c9565b60200260200101516040018181525050816080015163ffffffff16868281518110611e5157611e516133c9565b602002602001015160600181815250506000868281518110611e7557611e756133c9565b6020026020010151608001906001600160a01b031690816001600160a01b031681525050604051806102000160405280836020015161ffff1681526020018360a0015161ffff16612710611ec99190614013565b815260208b81015163ffffffff16908201526000604082018190526060820181905260016080830181905260a0830182905260c0830182905260e083018290526101008301829052610120830182905261014083018290526101608301526101808201526001600160a01b038a166101a08201526101c0018890528651879083908110611f5857611f586133c9565b602002602001015160a00181905250806000148015611f7e5750815164ffffffffff1615155b8015611f94575042826000015164ffffffffff16105b15611f9e57600193505b84611fa9838361233f565b604051602001611fba929190614026565b60408051601f198184030181529190529450600101611d79565b50505093509350939050565b602081810151516040805160808101825260008082529381018490529081018390526060810183905290915b828110156120ff578360200151818151811061202a5761202a6133c9565b6020908102919091018101518551918101516040808301516060840151845192517f7b621d3a000000000000000000000000000000000000000000000000000000008152600481018c905262ffffff909416602485015263ffffffff91821660448501521660648301526001600160a01b039081166084830152919450911690637b621d3a9060a4016020604051808303816000875af11580156120d2573d6000803e3d6000fd5b505050506040513d601f19601f820116820180604052508101906120f69190613085565b5060010161200c565b5050905160009283526020839052604090922080547fffffffffffffffffffffffff0000000000000000000000000000000000000000166001600160a01b039093169290921790915550565b604080516001808252818301909252606091816020015b60408051808201909152600081526060602082015281526020019060019003908161216257505060408051600180825281830190925291925060009190602082015b6040805160c08101825260008082526020808301829052928201819052606082018190526080820181905260a082015282526000199092019101816121a45790505090506040518060c00160405280600015158152602001633b9aca00815260200160008152602001846001600160a01b031681526020016000815260200160006001600160a01b031681525081600081518110612244576122446133c9565b60200260200101819052506040518060400160405280600181526020018281525082600081518110612278576122786133c9565b602002602001018190525050919050565b6000366014336001600160a01b037f0000000000000000000000000000000000000000000000000000000000000000161480156122c65750808210155b156122f6576000366122d88385614013565b6122e3928290614055565b6122ec9161407f565b60601c9250505090565b339250505090565b60208082015160608381015184518051818601519184015160405194966123299695929392016140b4565b6040516020818303038152906040529050919050565b6060811580156123555750825164ffffffffff16155b61236757825164ffffffffff16612369565b425b83602001518460400151856060015186608001518760a001516040516020016123de9695949392919095865261ffff94851660208701526dffffffffffffffffffffffffffff93909316604086015264ffffffffff91909116606085015263ffffffff1660808401521660a082015260c00190565b604051602081830303815290604052905092915050565b60006020828403121561240757600080fd5b81356001600160e01b03198116811461241f57600080fd5b9392505050565b6001600160a01b038116811461243b57600080fd5b50565b803561244981612426565b919050565b60008060008060006080868803121561246657600080fd5b853561247181612426565b9450602086013561248181612426565b935060408601359250606086013567ffffffffffffffff808211156124a557600080fd5b818801915088601f8301126124b957600080fd5b8135818111156124c857600080fd5b8960208285010111156124da57600080fd5b9699959850939650602001949392505050565b634e487b7160e01b600052604160045260246000fd5b6040516080810167ffffffffffffffff81118282101715612526576125266124ed565b60405290565b60405160c0810167ffffffffffffffff81118282101715612526576125266124ed565b6040805190810167ffffffffffffffff81118282101715612526576125266124ed565b6040516060810167ffffffffffffffff81118282101715612526576125266124ed565b604051601f8201601f1916810167ffffffffffffffff811182821017156125be576125be6124ed565b604052919050565b600067ffffffffffffffff8211156125e0576125e06124ed565b50601f01601f191660200190565b60006126016125fc846125c6565b612595565b905082815283838301111561261557600080fd5b828260208301376000602084830101529392505050565b600082601f83011261263d57600080fd5b61241f838335602085016125ee565b60006080828403121561265e57600080fd5b612666612503565b9050813567ffffffffffffffff8082111561268057600080fd5b61268c8583860161262c565b835260208401359150808211156126a257600080fd5b6126ae8583860161262c565b602084015260408401359150808211156126c757600080fd5b506126d48482850161262c565b6040830152506060820135606082015292915050565b803563ffffffff8116811461244957600080fd5b600067ffffffffffffffff821115612718576127186124ed565b5060051b60200190565b803564ffffffffff8116811461244957600080fd5b803561ffff8116811461244957600080fd5b600082601f83011261275a57600080fd5b8135602061276a6125fc836126fe565b82815260c0928302850182019282820191908785111561278957600080fd5b8387015b8581101561282e5781818a0312156127a55760008081fd5b6127ad61252c565b6127b682612722565b81526127c3868301612737565b868201526040808301356dffffffffffffffffffffffffffff811681146127ea5760008081fd5b9082015260606127fb838201612722565b90820152608061280c8382016126ea565b9082015260a061281d838201612737565b90820152845292840192810161278d565b5090979650505050505050565b600082601f83011261284c57600080fd5b8135602061285c6125fc836126fe565b828152600592831b850182019282820191908785111561287b57600080fd5b8387015b8581101561282e57803567ffffffffffffffff808211156128a05760008081fd5b908901906040828c03601f19018113156128ba5760008081fd5b6128c261254f565b888401356128cf81612426565b815283820135838111156128e35760008081fd5b8085019450508c603f8501126128fb57600092508283fd5b88840135925061290d6125fc846126fe565b83815292861b8401820192898101908e85111561292a5760008081fd5b948301945b84861015612954578535935061294484612426565b838252948a0194908a019061292f565b828b015250875250505092840192840161287f565b6000604080838503121561297c57600080fd5b61298461254f565b9150823561299181612426565b825260208381013567ffffffffffffffff8111156129ae57600080fd5b8401601f810186136129bf57600080fd5b80356129cd6125fc826126fe565b81815260079190911b820183019083810190888311156129ec57600080fd5b928401925b82841015612a6b576080848a031215612a0a5760008081fd5b612a12612503565b8435612a1d81612426565b81528486013562ffffff81168114612a355760008081fd5b81870152612a448588016126ea565b878201526060612a558187016126ea565b90820152825260809390930192908401906129f1565b808588015250505050505092915050565b600060408284031215612a8e57600080fd5b612a9661254f565b905067ffffffffffffffff8083351115612aaf57600080fd5b8235830184601f820112612ac257600080fd5b612acf6125fc82356126fe565b81358082526020808301929160051b84010187811115612aee57600080fd5b602084015b81811015612c33578581351115612b0957600080fd5b803585016040818b03601f19011215612b2157600080fd5b612b2961254f565b612b366020830135612426565b602082013581528760408301351115612b4e57600080fd5b6040820135820191508a603f830112612b6657600080fd5b6020820135612b776125fc826126fe565b81815260079190911b83016040019060208101908d831115612b9857600080fd5b6040850194505b82851015612c14576080858f031215612bb757600080fd5b612bbf612503565b612bc98635612426565b85358152612bd9602087016126ea565b6020820152612beb6040870135612426565b604086013560408201526060860135606082015280835250602082019150608085019450612b9f565b8060208501525050508086525050602084019350602081019050612af3565b5050808552505050506020820135602082015292915050565b600080600080600060a08688031215612c6457600080fd5b85359450602086013567ffffffffffffffff80821115612c8357600080fd5b9087019060c0828a031215612c9757600080fd5b612c9f61252c565b823582811115612cae57600080fd5b612cba8b82860161264c565b825250612cc9602084016126ea565b60208201526040830135604082015260608301356060820152612cee6080840161243e565b608082015260a083013582811115612d0557600080fd5b612d118b828601612749565b60a08301525095506040880135915080821115612d2d57600080fd5b612d3989838a0161283b565b94506060880135915080821115612d4f57600080fd5b612d5b89838a01612969565b93506080880135915080821115612d7157600080fd5b50612d7e88828901612a7c565b9150509295509295909350565b600060208284031215612d9d57600080fd5b5035919050565b600060208284031215612db657600080fd5b813567ffffffffffffffff811115612dcd57600080fd5b8201610180818503121561241f57600080fd5b60005b83811015612dfb578181015183820152602001612de3565b50506000910152565b60008151808452612e1c816020860160208601612de0565b601f01601f19169290920160200192915050565b600082825180855260208086019550808260051b84010181860160005b8481101561282e57858303601f19018952815180516001600160a01b031684528481015185850152604090810151606091850182905290612e9081860183612e04565b9a86019a9450505090830190600101612e4d565b828152604060208201526000612ebd6040830184612e30565b949350505050565b600060208284031215612ed757600080fd5b813561241f81612426565b60208152600061241f6020830184612e30565b60008060408385031215612f0857600080fd5b823591506020830135612f1a81612426565b809150509250929050565b600060208284031215612f3757600080fd5b813567ffffffffffffffff811115612f4e57600080fd5b82016101a0818503121561241f57600080fd5b60006080820186835260208681850152604086604086015260606080606087015283875180865260a08801915060a08160051b890101955084890160005b82811015612fef57898803609f19018452815180516001600160a01b0316895287810151888a0152860151868901869052612fdc868a0182612e04565b9850509286019290860190600101612f9f565b50959c9b505050505050505050505050565b60008060006060848603121561301657600080fd5b83359250602084013567ffffffffffffffff8082111561303557600080fd5b818601915086601f83011261304957600080fd5b613058878335602085016125ee565b9350604086013591508082111561306e57600080fd5b5061307b86828701612a7c565b9150509250925092565b60006020828403121561309757600080fd5b815161241f81612426565b80356130ad81612426565b6001600160a01b031682526020818101359083015260408082013590830152606090810135910152565b6000808335601e198436030181126130ee57600080fd5b830160208101925035905067ffffffffffffffff81111561310e57600080fd5b80360382131561311d57600080fd5b9250929050565b81835281816020850137506000828201602090810191909152601f909101601f19169091010190565b6020815261316e602082016131618461243e565b6001600160a01b03169052565b600061317c6020840161243e565b6001600160a01b03811660408401525061319c60608301604085016130a2565b60c083013560e083015261010060e0840135818401526131bd81850161243e565b90506101206131d6818501836001600160a01b03169052565b610140915080850135828501525061016081850135818501526131fb818601866130d7565b61018086810152925090506132156101a085018383613124565b95945050505050565b600080604080848603121561323257600080fd5b8351925060208085015167ffffffffffffffff8082111561325257600080fd5b818701915087601f83011261326657600080fd5b81516132746125fc826126fe565b81815260059190911b8301840190848101908a83111561329357600080fd5b8585015b83811015613354578051858111156132ae57600080fd5b86016060818e03601f190112156132c55760008081fd5b6132cd612572565b888201516132da81612426565b8152818a0151898201526060820151878111156132f75760008081fd5b8083019250508d603f83011261330d5760008081fd5b8882015161331d6125fc826125c6565b8181528f8c8386010111156133325760008081fd5b613341828c83018e8701612de0565b828c015250845250918601918601613297565b50809750505050505050509250929050565b600181811c9082168061337a57607f821691505b60208210810361339a57634e487b7160e01b600052602260045260246000fd5b50919050565b634e487b7160e01b600052601160045260246000fd5b8082018082111561039b5761039b6133a0565b634e487b7160e01b600052603260045260246000fd5b600060208083850312156133f257600080fd5b825167ffffffffffffffff81111561340957600080fd5b8301601f8101851361341a57600080fd5b80516134286125fc826126fe565b81815260059190911b8201830190838101908783111561344757600080fd5b928401925b8284101561346e57835161345f81612426565b8252928401929084019061344c565b979650505050505050565b60006020828403121561348b57600080fd5b8151801515811461241f57600080fd5b60008151808452602080850194506020840160005b838110156134cc578151875295820195908201906001016134b0565b509495945050505050565b60006001600160a01b0380871683528086166020840152508360408301526080606083015261047f608083018461349b565b6bffffffffffffffffffffffff198460601b16815260008351613533816014850160208801612de0565b60149201918201929092526034019392505050565b600082825180855260208086019550808260051b8401018186016000805b8581101561360557868403601f19018a52825180516001600160a01b03908116865290860151604087870181905281518188018190529188019290916060919082890190875b818110156135ed5786518051851684528c81015163ffffffff168d8501528681015185168785015285015185840152958b01956080909201916001016135ac565b50509d89019d97505050938601935050600101613566565b509198975050505050505050565b8381528260208201526060604082015260006132156060830184613548565b60008151604084526136476040850182613548565b602093840151949093019390935250919050565b60608152600061366e6060830186612e04565b82810360208401526136808186613632565b9150506001600160a01b0383166040830152949350505050565b60006001600160a01b03808516835260406020840152808451166040840152506020830151606083015260408301516060608084015261321560a084018261349b565b600960fa1b8152600082516136f9816001850160208701612de0565b7f207265766e6574206465706c6f796564000000000000000000000000000000006001939091019283015250601101919050565b8051825260208101516020830152604081015160408301526060810151613758606084018215159052565b50608081015161376c608084018215159052565b5060a081015161378060a084018215159052565b5060c081015161379460c084018215159052565b5060e08101516137a860e084018215159052565b5061010081810151151590830152610120808201511515908301526101408082015115159083015261016080820151151590830152610180808201511515908301526101a0808201511515908301526101c0808201516001600160a01b0316908301526101e090810151910152565b600082825180855260208086019550808260051b8401018186016000805b8581101561360557868403601f19018a52825180518552850151604086860181905281518187018190529187019160609081880190865b818110156138c65785518051151584528b8101518c8501528581015186850152848101516001600160a01b03908116868601526080808301519086015260a0918201511690840152948a019460c09092019160010161386c565b50509c88019c965050509285019250600101613835565b60008151808452602080850194506020840160005b838110156134cc5781518051885283015183880152604090960195908201906001016138f2565b600082825180855260208086019550808260051b84010181860160005b8481101561282e57601f19868403018952815160806001600160a01b038083511686528087840151168787015250604080830151828288015261397b838801826138dd565b925050506060808301519250858203818701525061399981836138dd565b9a86019a9450505090830190600101613936565b600082825180855260208086019550808260051b84010181860160005b8481101561282e57858303601f19018952815180518452848101518585015260408082015190850152606080820151908501526080808201516001600160a01b03169085015260a0808201516102e09190613a278288018261372d565b505060c0820151816102a0870152613a4182870182613817565b91505060e082015191508481036102c0860152613a5e8183613919565b9a86019a94505050908301906001016139ca565b600082825180855260208086019550808260051b8401018186016000805b8581101561360557868403601f19018a52825180516001600160a01b03908116865290860151604087870181905281519087018190529087019160608701918591905b80831015613af557845182168452938901939289019260019290920191613ad3565b5050509a86019a94505091840191600101613a90565b6001600160a01b038616815260a060208201526000613b2d60a0830187612e04565b8281036040840152613b3f81876139ad565b90508281036060840152613b538186613a72565b90508281036080840152613b678185612e04565b98975050505050505050565b600060208284031215613b8557600080fd5b5051919050565b848152608060208201526000613ba560808301866139ad565b8281036040840152613bb78186613a72565b9050828103606084015261346e8185612e04565b848152608060208201526000613be46080830186612e04565b8281036040840152613bf68186612e04565b91505082606083015295945050505050565b600060608083018684526020868186015260406060604087015282875180855260808801915060808160051b890101945083890160005b82811015613ce657898703607f190184528151805188528601518688018690528051868901819052908701906000908a8a01905b80831015613cd15783518051151583528a8101518b840152898101518a8401528c8101516001600160a01b039081168e8501526080808301519085015260a0918201511690830152928901926001929092019160c090910190613c73565b50985050509285019290850190600101613c3f565b50949b9a5050505050505050505050565b600960fa1b815260008251613d13816001850160208701612de0565b7f207072656d696e746564000000000000000000000000000000000000000000006001939091019283015250600b01919050565b8581528460208201526001600160a01b038416604082015260a060608201526000613d7560a0830185612e04565b905082151560808301529695505050505050565b60008151808452602080850194506020840160005b838110156134cc578151805164ffffffffff90811689528482015161ffff908116868b01526040808401516dffffffffffffffffffffffffffff16908b0152606080840151909216918a019190915260808083015163ffffffff16908a015260a091820151169088015260c09096019590820190600101613d9e565b600060408084016001600160a01b038085511686526020808601516040828901528381518086526060955060608a019150838301925060005b81811015613e9b5783518051871684528581015162ffffff16868501528881015163ffffffff9081168a86015290880151168784015292840192608090920191600101613e53565b50909998505050505050505050565b60006101008083528a5160c0828501528051915060806101c0850152613ed4610240850183612e04565b915060208101516101bf1980868503016101e0870152613ef48483612e04565b935060408301519150808685030161020087015250613f138382612e04565b92505060608101516102208501525060208b0151613f3a61012085018263ffffffff169052565b5060408b015161014084015260608b015161016084015260808b01516001600160a01b031661018084015260a08b015183820360ff19016101a0850152613f818282613d89565b9150508281036020840152613f96818b613a72565b90508281036040840152613faa818a613e1a565b90508281036060840152613fbe8189613632565b90508281036080840152613fd281886139ad565b905082810360a0840152613fe68187612e04565b915050613ff760c083018515159052565b6001600160a01b03831660e08301529998505050505050505050565b8181038181111561039b5761039b6133a0565b60008351614038818460208801612de0565b83519083019061404c818360208801612de0565b01949350505050565b6000808585111561406557600080fd5b8386111561407257600080fd5b5050820193919092039150565b6bffffffffffffffffffffffff1981358181169160148510156140ac5780818660140360031b1b83161692505b505092915050565b63ffffffff8616815284602082015260a0604082015260006140d960a0830186612e04565b82810360608401526140eb8186612e04565b915050826080830152969550505050505056fea2646970667358221220f13469abdbdb2f148e15961ebfae3fd6fc9f821034f917e6a60e4a14264c34de64736f6c63430008170033",
			"deployedBytecode": "0x608060405234801561001057600080fd5b50600436106101005760003560e01c80637249a77311610097578063b5d2553311610066578063b5d25533146102c2578063bb199402146102e9578063eb5ad9d9146102fe578063ee0fc1211461031157600080fd5b80637249a7731461022e5780637da0a8771461026f5780639d82ba2514610295578063aaf320d71461029f57600080fd5b80634c4ffc71116100d35780634c4ffc711461019a578063572b6c05146101bb5780635c0a7cee146101fb578063677ce0881461021b57600080fd5b806301ffc9a714610105578063150b7a021461012d5780631d3eedaa1461015957806343681e151461017a575b600080fd5b6101186101133660046123f5565b610338565b60405190151581526020015b60405180910390f35b61014061013b36600461244e565b6103a1565b6040516001600160e01b03199091168152602001610124565b61016c610167366004612c4c565b61046d565b604051908152602001610124565b61016c610188366004612d8b565b60016020526000908152604090205481565b6101ad6101a8366004612da4565b610489565b604051610124929190612ea4565b6101186101c9366004612ec5565b7f000000000000000000000000b2b5841dbef766d4b521221732f9b618fcf34a876001600160a01b0390811691161490565b61020e610209366004612d8b565b610780565b6040516101249190612ee2565b610118610229366004612ef5565b6108a4565b61025761023c366004612d8b565b6000602081905290815260409020546001600160a01b031681565b6040516001600160a01b039091168152602001610124565b7f000000000000000000000000b2b5841dbef766d4b521221732f9b618fcf34a87610257565b61016c6276a70081565b6102b26102ad366004612f25565b6109d9565b6040516101249493929190612f61565b6102577f0000000000000000000000003f209ab51b59bc6c2c9c2f2147d3d51e29a862d781565b6102fc6102f7366004613001565b610b16565b005b6102fc61030c366004612ef5565b610dcd565b6102577f000000000000000000000000799d42391ed21894b105590300eed66255d7222581565b60006001600160e01b031982167f81c03c2e00000000000000000000000000000000000000000000000000000000148061039b57507f01ffc9a7000000000000000000000000000000000000000000000000000000006001600160e01b03198316145b92915050565b60007f000000000000000000000000799d42391ed21894b105590300eed66255d722256001600160a01b031663293c49996040518163ffffffff1660e01b8152600401602060405180830381865afa158015610401573d6000803e3d6000fd5b505050506040513d601f19601f820116820180604052508101906104259190613085565b6001600160a01b0316336001600160a01b03161461044257600080fd5b507f150b7a020000000000000000000000000000000000000000000000000000000095945050505050565b600061047f8686868630600088611287565b9695505050505050565b60c081013560009081526020819052604081205460609081906001600160a01b03168015610541576040517f4c4ffc710000000000000000000000000000000000000000000000000000000081526001600160a01b03821690634c4ffc71906104f690889060040161314d565b600060405180830381865afa158015610513573d6000803e3d6000fd5b505050506040513d6000823e601f3d908101601f1916820160405261053b919081019061321e565b90945091505b815160c086013560009081526004602090815260408083208054825181850281018501909352808352941515949192909190849084015b8282101561065c576000848152602090819020604080516060810182526003860290920180546001600160a01b03168352600181015493830193909352600283018054929392918401916105cb90613366565b80601f01602080910402602001604051908101604052809291908181526020018280546105f790613366565b80156106445780601f1061061957610100808354040283529160200191610644565b820191906000526020600020905b81548152906001019060200180831161062757829003601f168201915b50505050508152505081526020019060010190610578565b50505050905060008151905082610674576000610677565b60015b6106849060ff16826133b6565b67ffffffffffffffff81111561069c5761069c6124ed565b6040519080825280602002602001820160405280156106e957816020015b604080516060808201835260008083526020830152918101919091528152602001906001900390816106ba5790505b50955060005b8181101561073657828181518110610709576107096133c9565b6020026020010151878281518110610723576107236133c9565b60209081029190910101526001016106ef565b5082156107765784600081518110610750576107506133c9565b602002602001015186828151811061076a5761076a6133c9565b60200260200101819052505b5050505050915091565b606060046000838152602001908152602001600020805480602002602001604051908101604052809291908181526020016000905b82821015610899576000848152602090819020604080516060810182526003860290920180546001600160a01b031683526001810154938301939093526002830180549293929184019161080890613366565b80601f016020809104026020016040519081016040528092919081815260200182805461083490613366565b80156108815780601f1061085657610100808354040283529160200191610881565b820191906000526020600020905b81548152906001019060200180831161086457829003601f168201915b505050505081525050815260200190600101906107b5565b505050509050919050565b6000828152602081905260408120546001600160a01b03908116908316036108ce5750600161039b565b6040517f3d12cb87000000000000000000000000000000000000000000000000000000008152600481018490526000907f0000000000000000000000003f209ab51b59bc6c2c9c2f2147d3d51e29a862d76001600160a01b031690633d12cb8790602401600060405180830381865afa15801561094f573d6000803e3d6000fd5b505050506040513d6000823e601f3d908101601f1916820160405261097791908101906133df565b805190915060005b818110156109cd57828181518110610999576109996133c9565b60200260200101516001600160a01b0316856001600160a01b0316036109c5576001935050505061039b565b60010161097f565b50600095945050505050565b6000808060606001600160a01b037f0000000000000000000000003f209ab51b59bc6c2c9c2f2147d3d51e29a862d7166383db9d0160408701803590610a229060208a01612ec5565b6040516001600160e01b031960e085901b16815260048101929092526001600160a01b03166024820152604401602060405180830381865afa158015610a6c573d6000803e3d6000fd5b505050506040513d601f19601f82011682018060405250810190610a909190613479565b15610aad5761271085608001358660a00135935093509350610b0f565b604080860135600090815260016020522054421015610af8576040517f04c3b3cd00000000000000000000000000000000000000000000000000000000815260040160405180910390fd5b84610160013585608001358660a001359350935093505b9193509193565b7f000000000000000000000000799d42391ed21894b105590300eed66255d722256001600160a01b0316631f47ce696040518163ffffffff1660e01b8152600401602060405180830381865afa158015610b74573d6000803e3d6000fd5b505050506040513d601f19601f82011682018060405250810190610b989190613085565b6001600160a01b031663f434c9146040518163ffffffff1660e01b8152600401602060405180830381865afa158015610bd5573d6000803e3d6000fd5b505050506040513d601f19601f82011682018060405250810190610bf99190613085565b6001600160a01b0316630f5932f0610c0f611a58565b3086610c1a88611a67565b6040518563ffffffff1660e01b8152600401610c3994939291906134d7565b602060405180830381865afa158015610c56573d6000803e3d6000fd5b505050506040513d601f19601f82011682018060405250810190610c7a9190613479565b610c97576040516331fb21f360e01b815260040160405180910390fd5b6000610ca1611a58565b838360200151604051602001610cb993929190613509565b60408051601f1981840301815290829052805160209091012083517f2f3f50e00000000000000000000000000000000000000000000000000000000083529092506001600160a01b037f0000000000000000000000003f209ab51b59bc6c2c9c2f2147d3d51e29a862d71691632f3f50e091610d3b9188918691600401613613565b6000604051808303816000875af1158015610d5a573d6000803e3d6000fd5b505050506040513d6000823e601f3d908101601f19168201604052610d8291908101906133df565b5080847f755ecfca2f6e66af8868551556bf7931740a7062db8e0882f4c322fdb0bb3f608585610db0611a58565b604051610dbf9392919061365b565b60405180910390a350505050565b6000610dd883611a67565b90507f000000000000000000000000799d42391ed21894b105590300eed66255d722256001600160a01b0316631f47ce696040518163ffffffff1660e01b8152600401602060405180830381865afa158015610e38573d6000803e3d6000fd5b505050506040513d601f19601f82011682018060405250810190610e5c9190613085565b6001600160a01b031663f434c9146040518163ffffffff1660e01b8152600401602060405180830381865afa158015610e99573d6000803e3d6000fd5b505050506040513d601f19601f82011682018060405250810190610ebd9190613085565b6001600160a01b0316630f5932f0610ed3611a58565b3086856040518563ffffffff1660e01b8152600401610ef594939291906134d7565b602060405180830381865afa158015610f12573d6000803e3d6000fd5b505050506040513d601f19601f82011682018060405250810190610f369190613479565b610f53576040516331fb21f360e01b815260040160405180910390fd5b7f000000000000000000000000799d42391ed21894b105590300eed66255d722256001600160a01b0316631f47ce696040518163ffffffff1660e01b8152600401602060405180830381865afa158015610fb1573d6000803e3d6000fd5b505050506040513d601f19601f82011682018060405250810190610fd59190613085565b6001600160a01b031663f434c9146040518163ffffffff1660e01b8152600401602060405180830381865afa158015611012573d6000803e3d6000fd5b505050506040513d601f19601f820116820180604052508101906110369190613085565b6001600160a01b03166305d2912e306040518060600160405280611058611a58565b6001600160a01b0316815260208082018990526040805160008152918201815291820152516001600160e01b031960e085901b16815261109c92919060040161369a565b600060405180830381600087803b1580156110b657600080fd5b505af11580156110ca573d6000803e3d6000fd5b505050507f000000000000000000000000799d42391ed21894b105590300eed66255d722256001600160a01b0316631f47ce696040518163ffffffff1660e01b8152600401602060405180830381865afa15801561112c573d6000803e3d6000fd5b505050506040513d601f19601f820116820180604052508101906111509190613085565b6001600160a01b031663f434c9146040518163ffffffff1660e01b8152600401602060405180830381865afa15801561118d573d6000803e3d6000fd5b505050506040513d601f19601f820116820180604052508101906111b19190613085565b6001600160a01b03166305d2912e306040518060600160405280866001600160a01b03168152602001878152602001858152506040518363ffffffff1660e01b815260040161120192919061369a565b600060405180830381600087803b15801561121b57600080fd5b505af115801561122f573d6000803e3d6000fd5b50505050816001600160a01b0316837f0329d6a81434b130c72eb65eea0e32e429dc1277b4aad86ec86454aefb618451611267611a58565b6040516001600160a01b03909116815260200160405180910390a3505050565b6000806000806112988a8888611c1f565b9250925092508a600003611373577f000000000000000000000000799d42391ed21894b105590300eed66255d722256001600160a01b0316630634bae9308c6000015160400151868d8f60000151602001516040516020016112fa91906136dd565b6040516020818303038152906040526040518663ffffffff1660e01b8152600401611329959493929190613b0b565b6020604051808303816000875af1158015611348573d6000803e3d6000fd5b505050506040513d601f19601f8201168201806040525081019061136c9190613b73565b9a50611431565b7f000000000000000000000000799d42391ed21894b105590300eed66255d722256001600160a01b0316631ea7bc8c8c858c8e60000151602001516040516020016113be91906136dd565b6040516020818303038152906040526040518563ffffffff1660e01b81526004016113ec9493929190613b8c565b6020604051808303816000875af115801561140b573d6000803e3d6000fd5b505050506040513d601f19601f8201168201806040525081019061142f9190613b73565b505b80806114415750468a6060015114155b15611463576114536276a700426133b6565b60008c8152600160205260409020555b7f000000000000000000000000799d42391ed21894b105590300eed66255d722256001600160a01b031663581781918c8c60000151600001518d60000151602001518e60000151606001516040518563ffffffff1660e01b81526004016114cd9493929190613bcb565b6020604051808303816000875af11580156114ec573d6000803e3d6000fd5b505050506040513d601f19601f820116820180604052508101906115109190613085565b5087516001600160a01b03161561152b5761152b8b89611fe0565b7f000000000000000000000000799d42391ed21894b105590300eed66255d722256001600160a01b031663dd5f214a8c600061156a8e6080015161214b565b6040518463ffffffff1660e01b815260040161158893929190613c08565b600060405180830381600087803b1580156115a257600080fd5b505af11580156115b6573d6000803e3d6000fd5b50505050600060405180606001604052808c608001516001600160a01b031681526020018d81526020016115e98e611a67565b81525090507f000000000000000000000000799d42391ed21894b105590300eed66255d722256001600160a01b031663f434c9146040518163ffffffff1660e01b8152600401602060405180830381865afa15801561164c573d6000803e3d6000fd5b505050506040513d601f19601f820116820180604052508101906116709190613085565b6001600160a01b03166305d2912e30836040518363ffffffff1660e01b815260040161169d92919061369a565b600060405180830381600087803b1580156116b757600080fd5b505af11580156116cb573d6000803e3d6000fd5b5050505060008b604001511180156116e65750468b60600151145b156117b4577f000000000000000000000000799d42391ed21894b105590300eed66255d722256001600160a01b031663c7fb92de8d8d604001518e608001518f600001516020015160405160200161173e9190613cf7565b60405160208183030381529060405260006040518663ffffffff1660e01b815260040161176f959493929190613d47565b6020604051808303816000875af115801561178e573d6000803e3d6000fd5b505050506040513d601f19601f820116820180604052508101906117b29190613b73565b505b60408051600180825281830190925260009160208083019080368337019050509050601c816000815181106117eb576117eb6133c9565b60200260200101818152505060405180606001604052807f0000000000000000000000003f209ab51b59bc6c2c9c2f2147d3d51e29a862d76001600160a01b031681526020018e81526020018281525091507f000000000000000000000000799d42391ed21894b105590300eed66255d722256001600160a01b031663f434c9146040518163ffffffff1660e01b8152600401602060405180830381865afa15801561189b573d6000803e3d6000fd5b505050506040513d601f19601f820116820180604052508101906118bf9190613085565b6001600160a01b03166305d2912e30846040518363ffffffff1660e01b81526004016118ec92919061369a565b600060405180830381600087803b15801561190657600080fd5b505af115801561191a573d6000803e3d6000fd5b505050506020870151156119fa577f0000000000000000000000003f209ab51b59bc6c2c9c2f2147d3d51e29a862d76001600160a01b0316632f3f50e08e611960611a58565b878b6020015160405160200161197893929190613509565b60408051601f198184030181529082905280516020909101208b516001600160e01b031960e086901b1683526119b19392600401613613565b6000604051808303816000875af11580156119d0573d6000803e3d6000fd5b505050506040513d6000823e601f3d908101601f191682016040526119f891908101906133df565b505b8c7f4b827371715024f69a0bc98c8df6edafe6e471e78488ab1b3849de72f66b12e08d8d8d8b8a8a8a611a2b611a58565b604051611a3f989796959493929190613eaa565b60405180910390a2509a9b9a5050505050505050505050565b6000611a62612289565b905090565b606060006002805480602002602001604051908101604052809291908181526020018280548015611ab757602002820191906000526020600020905b815481526020019060010190808311611aa3575b50508351600088815260036020908152604080832080548251818502810185019093528083529899509397929650945091925090830182828015611b1a57602002820191906000526020600020905b815481526020019060010190808311611b06575b50508351939450611b3192508391508590506133b6565b67ffffffffffffffff811115611b4957611b496124ed565b604051908082528060200260200182016040528015611b72578160200160208202803683370190505b50945060005b83811015611bbf57848181518110611b9257611b926133c9565b6020026020010151868281518110611bac57611bac6133c9565b6020908102919091010152600101611b78565b5060005b81811015611c1557828181518110611bdd57611bdd6133c9565b6020026020010151868286611bf291906133b6565b81518110611c0257611c026133c9565b6020908102919091010152600101611bc3565b5050505050919050565b6060806000808660a001515190508067ffffffffffffffff811115611c4657611c466124ed565b604051908082528060200260200182016040528015611d3857816020015b611d256040805161010080820183526000808352602080840182905283850182905260608085018390526080808601849052865161020081018852848152928301849052958201839052810182905293840181905260a084810182905260c0850182905260e0850182905291840181905261012084018190526101408401819052610160840181905261018084018190526101a084018190526101c084018190526101e0840152909190820190815260200160608152602001606081525090565b815260200190600190039081611c645790505b509350611d44876122fe565b6040805160c081018252600080825260208201819052918101829052606081018290526080810182905260a081018290529194505b82811015611fd4578860a001518181518110611d9757611d976133c9565b60200260200101519150816000015164ffffffffff16868281518110611dbf57611dbf6133c9565b60200260200101516000018181525050816060015164ffffffffff16868281518110611ded57611ded6133c9565b6020026020010151602001818152505081604001516dffffffffffffffffffffffffffff16868281518110611e2457611e246133c9565b60200260200101516040018181525050816080015163ffffffff16868281518110611e5157611e516133c9565b602002602001015160600181815250506000868281518110611e7557611e756133c9565b6020026020010151608001906001600160a01b031690816001600160a01b031681525050604051806102000160405280836020015161ffff1681526020018360a0015161ffff16612710611ec99190614013565b815260208b81015163ffffffff16908201526000604082018190526060820181905260016080830181905260a0830182905260c0830182905260e083018290526101008301829052610120830182905261014083018290526101608301526101808201526001600160a01b038a166101a08201526101c0018890528651879083908110611f5857611f586133c9565b602002602001015160a00181905250806000148015611f7e5750815164ffffffffff1615155b8015611f94575042826000015164ffffffffff16105b15611f9e57600193505b84611fa9838361233f565b604051602001611fba929190614026565b60408051601f198184030181529190529450600101611d79565b50505093509350939050565b602081810151516040805160808101825260008082529381018490529081018390526060810183905290915b828110156120ff578360200151818151811061202a5761202a6133c9565b6020908102919091018101518551918101516040808301516060840151845192517f7b621d3a000000000000000000000000000000000000000000000000000000008152600481018c905262ffffff909416602485015263ffffffff91821660448501521660648301526001600160a01b039081166084830152919450911690637b621d3a9060a4016020604051808303816000875af11580156120d2573d6000803e3d6000fd5b505050506040513d601f19601f820116820180604052508101906120f69190613085565b5060010161200c565b5050905160009283526020839052604090922080547fffffffffffffffffffffffff0000000000000000000000000000000000000000166001600160a01b039093169290921790915550565b604080516001808252818301909252606091816020015b60408051808201909152600081526060602082015281526020019060019003908161216257505060408051600180825281830190925291925060009190602082015b6040805160c08101825260008082526020808301829052928201819052606082018190526080820181905260a082015282526000199092019101816121a45790505090506040518060c00160405280600015158152602001633b9aca00815260200160008152602001846001600160a01b031681526020016000815260200160006001600160a01b031681525081600081518110612244576122446133c9565b60200260200101819052506040518060400160405280600181526020018281525082600081518110612278576122786133c9565b602002602001018190525050919050565b6000366014336001600160a01b037f000000000000000000000000b2b5841dbef766d4b521221732f9b618fcf34a87161480156122c65750808210155b156122f6576000366122d88385614013565b6122e3928290614055565b6122ec9161407f565b60601c9250505090565b339250505090565b60208082015160608381015184518051818601519184015160405194966123299695929392016140b4565b6040516020818303038152906040529050919050565b6060811580156123555750825164ffffffffff16155b61236757825164ffffffffff16612369565b425b83602001518460400151856060015186608001518760a001516040516020016123de9695949392919095865261ffff94851660208701526dffffffffffffffffffffffffffff93909316604086015264ffffffffff91909116606085015263ffffffff1660808401521660a082015260c00190565b604051602081830303815290604052905092915050565b60006020828403121561240757600080fd5b81356001600160e01b03198116811461241f57600080fd5b9392505050565b6001600160a01b038116811461243b57600080fd5b50565b803561244981612426565b919050565b60008060008060006080868803121561246657600080fd5b853561247181612426565b9450602086013561248181612426565b935060408601359250606086013567ffffffffffffffff808211156124a557600080fd5b818801915088601f8301126124b957600080fd5b8135818111156124c857600080fd5b8960208285010111156124da57600080fd5b9699959850939650602001949392505050565b634e487b7160e01b600052604160045260246000fd5b6040516080810167ffffffffffffffff81118282101715612526576125266124ed565b60405290565b60405160c0810167ffffffffffffffff81118282101715612526576125266124ed565b6040805190810167ffffffffffffffff81118282101715612526576125266124ed565b6040516060810167ffffffffffffffff81118282101715612526576125266124ed565b604051601f8201601f1916810167ffffffffffffffff811182821017156125be576125be6124ed565b604052919050565b600067ffffffffffffffff8211156125e0576125e06124ed565b50601f01601f191660200190565b60006126016125fc846125c6565b612595565b905082815283838301111561261557600080fd5b828260208301376000602084830101529392505050565b600082601f83011261263d57600080fd5b61241f838335602085016125ee565b60006080828403121561265e57600080fd5b612666612503565b9050813567ffffffffffffffff8082111561268057600080fd5b61268c8583860161262c565b835260208401359150808211156126a257600080fd5b6126ae8583860161262c565b602084015260408401359150808211156126c757600080fd5b506126d48482850161262c565b6040830152506060820135606082015292915050565b803563ffffffff8116811461244957600080fd5b600067ffffffffffffffff821115612718576127186124ed565b5060051b60200190565b803564ffffffffff8116811461244957600080fd5b803561ffff8116811461244957600080fd5b600082601f83011261275a57600080fd5b8135602061276a6125fc836126fe565b82815260c0928302850182019282820191908785111561278957600080fd5b8387015b8581101561282e5781818a0312156127a55760008081fd5b6127ad61252c565b6127b682612722565b81526127c3868301612737565b868201526040808301356dffffffffffffffffffffffffffff811681146127ea5760008081fd5b9082015260606127fb838201612722565b90820152608061280c8382016126ea565b9082015260a061281d838201612737565b90820152845292840192810161278d565b5090979650505050505050565b600082601f83011261284c57600080fd5b8135602061285c6125fc836126fe565b828152600592831b850182019282820191908785111561287b57600080fd5b8387015b8581101561282e57803567ffffffffffffffff808211156128a05760008081fd5b908901906040828c03601f19018113156128ba5760008081fd5b6128c261254f565b888401356128cf81612426565b815283820135838111156128e35760008081fd5b8085019450508c603f8501126128fb57600092508283fd5b88840135925061290d6125fc846126fe565b83815292861b8401820192898101908e85111561292a5760008081fd5b948301945b84861015612954578535935061294484612426565b838252948a0194908a019061292f565b828b015250875250505092840192840161287f565b6000604080838503121561297c57600080fd5b61298461254f565b9150823561299181612426565b825260208381013567ffffffffffffffff8111156129ae57600080fd5b8401601f810186136129bf57600080fd5b80356129cd6125fc826126fe565b81815260079190911b820183019083810190888311156129ec57600080fd5b928401925b82841015612a6b576080848a031215612a0a5760008081fd5b612a12612503565b8435612a1d81612426565b81528486013562ffffff81168114612a355760008081fd5b81870152612a448588016126ea565b878201526060612a558187016126ea565b90820152825260809390930192908401906129f1565b808588015250505050505092915050565b600060408284031215612a8e57600080fd5b612a9661254f565b905067ffffffffffffffff8083351115612aaf57600080fd5b8235830184601f820112612ac257600080fd5b612acf6125fc82356126fe565b81358082526020808301929160051b84010187811115612aee57600080fd5b602084015b81811015612c33578581351115612b0957600080fd5b803585016040818b03601f19011215612b2157600080fd5b612b2961254f565b612b366020830135612426565b602082013581528760408301351115612b4e57600080fd5b6040820135820191508a603f830112612b6657600080fd5b6020820135612b776125fc826126fe565b81815260079190911b83016040019060208101908d831115612b9857600080fd5b6040850194505b82851015612c14576080858f031215612bb757600080fd5b612bbf612503565b612bc98635612426565b85358152612bd9602087016126ea565b6020820152612beb6040870135612426565b604086013560408201526060860135606082015280835250602082019150608085019450612b9f565b8060208501525050508086525050602084019350602081019050612af3565b5050808552505050506020820135602082015292915050565b600080600080600060a08688031215612c6457600080fd5b85359450602086013567ffffffffffffffff80821115612c8357600080fd5b9087019060c0828a031215612c9757600080fd5b612c9f61252c565b823582811115612cae57600080fd5b612cba8b82860161264c565b825250612cc9602084016126ea565b60208201526040830135604082015260608301356060820152612cee6080840161243e565b608082015260a083013582811115612d0557600080fd5b612d118b828601612749565b60a08301525095506040880135915080821115612d2d57600080fd5b612d3989838a0161283b565b94506060880135915080821115612d4f57600080fd5b612d5b89838a01612969565b93506080880135915080821115612d7157600080fd5b50612d7e88828901612a7c565b9150509295509295909350565b600060208284031215612d9d57600080fd5b5035919050565b600060208284031215612db657600080fd5b813567ffffffffffffffff811115612dcd57600080fd5b8201610180818503121561241f57600080fd5b60005b83811015612dfb578181015183820152602001612de3565b50506000910152565b60008151808452612e1c816020860160208601612de0565b601f01601f19169290920160200192915050565b600082825180855260208086019550808260051b84010181860160005b8481101561282e57858303601f19018952815180516001600160a01b031684528481015185850152604090810151606091850182905290612e9081860183612e04565b9a86019a9450505090830190600101612e4d565b828152604060208201526000612ebd6040830184612e30565b949350505050565b600060208284031215612ed757600080fd5b813561241f81612426565b60208152600061241f6020830184612e30565b60008060408385031215612f0857600080fd5b823591506020830135612f1a81612426565b809150509250929050565b600060208284031215612f3757600080fd5b813567ffffffffffffffff811115612f4e57600080fd5b82016101a0818503121561241f57600080fd5b60006080820186835260208681850152604086604086015260606080606087015283875180865260a08801915060a08160051b890101955084890160005b82811015612fef57898803609f19018452815180516001600160a01b0316895287810151888a0152860151868901869052612fdc868a0182612e04565b9850509286019290860190600101612f9f565b50959c9b505050505050505050505050565b60008060006060848603121561301657600080fd5b83359250602084013567ffffffffffffffff8082111561303557600080fd5b818601915086601f83011261304957600080fd5b613058878335602085016125ee565b9350604086013591508082111561306e57600080fd5b5061307b86828701612a7c565b9150509250925092565b60006020828403121561309757600080fd5b815161241f81612426565b80356130ad81612426565b6001600160a01b031682526020818101359083015260408082013590830152606090810135910152565b6000808335601e198436030181126130ee57600080fd5b830160208101925035905067ffffffffffffffff81111561310e57600080fd5b80360382131561311d57600080fd5b9250929050565b81835281816020850137506000828201602090810191909152601f909101601f19169091010190565b6020815261316e602082016131618461243e565b6001600160a01b03169052565b600061317c6020840161243e565b6001600160a01b03811660408401525061319c60608301604085016130a2565b60c083013560e083015261010060e0840135818401526131bd81850161243e565b90506101206131d6818501836001600160a01b03169052565b610140915080850135828501525061016081850135818501526131fb818601866130d7565b61018086810152925090506132156101a085018383613124565b95945050505050565b600080604080848603121561323257600080fd5b8351925060208085015167ffffffffffffffff8082111561325257600080fd5b818701915087601f83011261326657600080fd5b81516132746125fc826126fe565b81815260059190911b8301840190848101908a83111561329357600080fd5b8585015b83811015613354578051858111156132ae57600080fd5b86016060818e03601f190112156132c55760008081fd5b6132cd612572565b888201516132da81612426565b8152818a0151898201526060820151878111156132f75760008081fd5b8083019250508d603f83011261330d5760008081fd5b8882015161331d6125fc826125c6565b8181528f8c8386010111156133325760008081fd5b613341828c83018e8701612de0565b828c015250845250918601918601613297565b50809750505050505050509250929050565b600181811c9082168061337a57607f821691505b60208210810361339a57634e487b7160e01b600052602260045260246000fd5b50919050565b634e487b7160e01b600052601160045260246000fd5b8082018082111561039b5761039b6133a0565b634e487b7160e01b600052603260045260246000fd5b600060208083850312156133f257600080fd5b825167ffffffffffffffff81111561340957600080fd5b8301601f8101851361341a57600080fd5b80516134286125fc826126fe565b81815260059190911b8201830190838101908783111561344757600080fd5b928401925b8284101561346e57835161345f81612426565b8252928401929084019061344c565b979650505050505050565b60006020828403121561348b57600080fd5b8151801515811461241f57600080fd5b60008151808452602080850194506020840160005b838110156134cc578151875295820195908201906001016134b0565b509495945050505050565b60006001600160a01b0380871683528086166020840152508360408301526080606083015261047f608083018461349b565b6bffffffffffffffffffffffff198460601b16815260008351613533816014850160208801612de0565b60149201918201929092526034019392505050565b600082825180855260208086019550808260051b8401018186016000805b8581101561360557868403601f19018a52825180516001600160a01b03908116865290860151604087870181905281518188018190529188019290916060919082890190875b818110156135ed5786518051851684528c81015163ffffffff168d8501528681015185168785015285015185840152958b01956080909201916001016135ac565b50509d89019d97505050938601935050600101613566565b509198975050505050505050565b8381528260208201526060604082015260006132156060830184613548565b60008151604084526136476040850182613548565b602093840151949093019390935250919050565b60608152600061366e6060830186612e04565b82810360208401526136808186613632565b9150506001600160a01b0383166040830152949350505050565b60006001600160a01b03808516835260406020840152808451166040840152506020830151606083015260408301516060608084015261321560a084018261349b565b600960fa1b8152600082516136f9816001850160208701612de0565b7f207265766e6574206465706c6f796564000000000000000000000000000000006001939091019283015250601101919050565b8051825260208101516020830152604081015160408301526060810151613758606084018215159052565b50608081015161376c608084018215159052565b5060a081015161378060a084018215159052565b5060c081015161379460c084018215159052565b5060e08101516137a860e084018215159052565b5061010081810151151590830152610120808201511515908301526101408082015115159083015261016080820151151590830152610180808201511515908301526101a0808201511515908301526101c0808201516001600160a01b0316908301526101e090810151910152565b600082825180855260208086019550808260051b8401018186016000805b8581101561360557868403601f19018a52825180518552850151604086860181905281518187018190529187019160609081880190865b818110156138c65785518051151584528b8101518c8501528581015186850152848101516001600160a01b03908116868601526080808301519086015260a0918201511690840152948a019460c09092019160010161386c565b50509c88019c965050509285019250600101613835565b60008151808452602080850194506020840160005b838110156134cc5781518051885283015183880152604090960195908201906001016138f2565b600082825180855260208086019550808260051b84010181860160005b8481101561282e57601f19868403018952815160806001600160a01b038083511686528087840151168787015250604080830151828288015261397b838801826138dd565b925050506060808301519250858203818701525061399981836138dd565b9a86019a9450505090830190600101613936565b600082825180855260208086019550808260051b84010181860160005b8481101561282e57858303601f19018952815180518452848101518585015260408082015190850152606080820151908501526080808201516001600160a01b03169085015260a0808201516102e09190613a278288018261372d565b505060c0820151816102a0870152613a4182870182613817565b91505060e082015191508481036102c0860152613a5e8183613919565b9a86019a94505050908301906001016139ca565b600082825180855260208086019550808260051b8401018186016000805b8581101561360557868403601f19018a52825180516001600160a01b03908116865290860151604087870181905281519087018190529087019160608701918591905b80831015613af557845182168452938901939289019260019290920191613ad3565b5050509a86019a94505091840191600101613a90565b6001600160a01b038616815260a060208201526000613b2d60a0830187612e04565b8281036040840152613b3f81876139ad565b90508281036060840152613b538186613a72565b90508281036080840152613b678185612e04565b98975050505050505050565b600060208284031215613b8557600080fd5b5051919050565b848152608060208201526000613ba560808301866139ad565b8281036040840152613bb78186613a72565b9050828103606084015261346e8185612e04565b848152608060208201526000613be46080830186612e04565b8281036040840152613bf68186612e04565b91505082606083015295945050505050565b600060608083018684526020868186015260406060604087015282875180855260808801915060808160051b890101945083890160005b82811015613ce657898703607f190184528151805188528601518688018690528051868901819052908701906000908a8a01905b80831015613cd15783518051151583528a8101518b840152898101518a8401528c8101516001600160a01b039081168e8501526080808301519085015260a0918201511690830152928901926001929092019160c090910190613c73565b50985050509285019290850190600101613c3f565b50949b9a5050505050505050505050565b600960fa1b815260008251613d13816001850160208701612de0565b7f207072656d696e746564000000000000000000000000000000000000000000006001939091019283015250600b01919050565b8581528460208201526001600160a01b038416604082015260a060608201526000613d7560a0830185612e04565b905082151560808301529695505050505050565b60008151808452602080850194506020840160005b838110156134cc578151805164ffffffffff90811689528482015161ffff908116868b01526040808401516dffffffffffffffffffffffffffff16908b0152606080840151909216918a019190915260808083015163ffffffff16908a015260a091820151169088015260c09096019590820190600101613d9e565b600060408084016001600160a01b038085511686526020808601516040828901528381518086526060955060608a019150838301925060005b81811015613e9b5783518051871684528581015162ffffff16868501528881015163ffffffff9081168a86015290880151168784015292840192608090920191600101613e53565b50909998505050505050505050565b60006101008083528a5160c0828501528051915060806101c0850152613ed4610240850183612e04565b915060208101516101bf1980868503016101e0870152613ef48483612e04565b935060408301519150808685030161020087015250613f138382612e04565b92505060608101516102208501525060208b0151613f3a61012085018263ffffffff169052565b5060408b015161014084015260608b015161016084015260808b01516001600160a01b031661018084015260a08b015183820360ff19016101a0850152613f818282613d89565b9150508281036020840152613f96818b613a72565b90508281036040840152613faa818a613e1a565b90508281036060840152613fbe8189613632565b90508281036080840152613fd281886139ad565b905082810360a0840152613fe68187612e04565b915050613ff760c083018515159052565b6001600160a01b03831660e08301529998505050505050505050565b8181038181111561039b5761039b6133a0565b60008351614038818460208801612de0565b83519083019061404c818360208801612de0565b01949350505050565b6000808585111561406557600080fd5b8386111561407257600080fd5b5050820193919092039150565b6bffffffffffffffffffffffff1981358181169160148510156140ac5780818660140360031b1b83161692505b505092915050565b63ffffffff8616815284602082015260a0604082015260006140d960a0830186612e04565b82810360608401526140eb8186612e04565b915050826080830152969550505050505056fea2646970667358221220f13469abdbdb2f148e15961ebfae3fd6fc9f821034f917e6a60e4a14264c34de64736f6c63430008170033",
			"devdoc": {
				"kind": "dev",
				"methods": {
					"beforePayRecordedWith((address,address,(address,uint256,uint256,uint256),uint256,uint256,address,uint256,uint256,bytes))": {
						"details": "Part of IJBFundingCycleDataSource.This implementation just sets this contract up to receive a `didPay` call.",
						"params": {
							"context": "The Juicebox standard network payment context. See"
						},
						"returns": {
							"hookSpecifications": "Amount to be sent to pay hooks instead of adding to local balance. Useful for auto-routing funds from a treasury as payment come in.",
							"weight": "The weight that network tokens should get minted relative to. This is useful for optionally customizing how many tokens are issued per payment."
						}
					},
					"constructor": {
						"params": {
							"controller": "The controller that revnets are made from.",
							"suckerRegistry": "The registry that deploys and tracks each project's suckers.",
							"trustedForwarder": "The trusted forwarder for the ERC2771Context."
						}
					},
					"deploySuckersFor(uint256,bytes,((address,(address,uint32,address,uint256)[])[],bytes32))": {
						"params": {
							"encodedConfiguration": "A bytes representation of the revnet's configuration.",
							"revnetId": "The ID of the revnet having new suckers deployed.",
							"suckerDeploymentConfiguration": "The specifics about the suckers being deployed."
						}
					},
					"hasMintPermissionFor(uint256,address)": {
						"params": {
							"addr": "The address to check if has permissions.",
							"revnetId": "The ID of the revnet to check permissions for."
						},
						"returns": {
							"_0": "flag The flag indicating if the address has permissions to mint on the revnet's behalf."
						}
					},
					"isTrustedForwarder(address)": {
						"details": "Indicates whether any particular address is the trusted forwarder."
					},
					"launchRevnetFor(uint256,((string,string,string,bytes32),uint32,uint256,uint256,address,(uint40,uint16,uint112,uint40,uint32,uint16)[]),(address,address[])[],(address,(address,uint24,uint32,uint32)[]),((address,(address,uint32,address,uint256)[])[],bytes32))": {
						"params": {
							"buybackHookConfiguration": "Data used for setting up the buyback hook to use when determining the best price for new participants.",
							"configuration": "The data needed to deploy a basic revnet.",
							"revnetId": "The ID of the Juicebox project to turn into a revnet. Send 0 to deploy a new revnet.",
							"suckerDeploymentConfiguration": "Information about how this revnet relates to other's across chains.",
							"terminalConfigurations": "The terminals that the network uses to accept payments through."
						},
						"returns": {
							"_0": "revnetId The ID of the newly created revnet."
						}
					},
					"onERC721Received(address,address,uint256,bytes)": {
						"details": "Make sure only mints can be received."
					},
					"payHookSpecificationsOf(uint256)": {
						"params": {
							"revnetId": "The ID of the revnet to which the extensions apply."
						},
						"returns": {
							"_0": "payHookSpecifications The pay hooks."
						}
					},
					"replaceSplitOperatorOf(uint256,address)": {
						"params": {
							"newSplitOperator": "The address of the new split operator.",
							"revnetId": "The ID of the revnet having its operator replaced."
						}
					},
					"supportsInterface(bytes4)": {
						"details": "See {IERC165-supportsInterface}.",
						"params": {
							"interfaceId": "The ID of the interface to check for adherence to."
						},
						"returns": {
							"_0": "A flag indicating if the provided interface ID is supported."
						}
					},
					"trustedForwarder()": {
						"details": "Returns the address of the trusted forwarder."
					}
				},
				"version": 1
			},
			"userdoc": {
				"kind": "user",
				"methods": {
					"CONTROLLER()": {
						"notice": "The controller that networks are made from."
					},
					"EXIT_DELAY()": {
						"notice": "The amount of time from a sucker being deployed to when it can facilitate exits."
					},
					"SUCKER_REGISTRY()": {
						"notice": "The registry that deploys and tracks each project's suckers."
					},
					"beforePayRecordedWith((address,address,(address,uint256,uint256,uint256),uint256,uint256,address,uint256,uint256,bytes))": {
						"notice": "This function gets called when the revnet receives a payment."
					},
					"beforeRedeemRecordedWith((address,address,uint256,uint256,uint256,uint256,(address,uint256,uint256,uint256),bool,uint256,bytes))": {
						"notice": "This function is never called, it needs to be included to adhere to the interface."
					},
					"buybackHookOf(uint256)": {
						"notice": "The data hook that returns the correct values for the buyback hook of each network."
					},
					"deploySuckersFor(uint256,bytes,((address,(address,uint32,address,uint256)[])[],bytes32))": {
						"notice": "Allows a revnet's split operator to deploy new suckers to the revnet after it's deployed."
					},
					"exitDelayOf(uint256)": {
						"notice": "The time at which exits from a revnet become allowed."
					},
					"hasMintPermissionFor(uint256,address)": {
						"notice": "Required by the IJBRulesetDataHook interfaces."
					},
					"launchRevnetFor(uint256,((string,string,string,bytes32),uint32,uint256,uint256,address,(uint40,uint16,uint112,uint40,uint32,uint16)[]),(address,address[])[],(address,(address,uint24,uint32,uint32)[]),((address,(address,uint32,address,uint256)[])[],bytes32))": {
						"notice": "Launch a basic revnet."
					},
					"payHookSpecificationsOf(uint256)": {
						"notice": "The pay hooks to include during payments to networks."
					},
					"replaceSplitOperatorOf(uint256,address)": {
						"notice": "A revnet's operator can replace itself."
					},
					"supportsInterface(bytes4)": {
						"notice": "Indicates if this contract adheres to the specified interface."
					}
				},
				"version": 1
			},
			"gitCommit": "62c8b853917233957aae3ca08de224c88087f916",
			"sourceName": "src/REVBasicDeployer.sol",
			"chainId": "11155111",
			"linkReferences": {},
			"deployedLinkReferences": {}
		},
		{
			"_format": "sphinx-sol-ct-artifact-1",
			"merkleRoot": "0x1d085f0c5b331462367b4fa07a86d9fbebfac5b7c4e43d98b139436e2c1c70d3",
			"contractName": "REVBasicDeployer",
			"address": "0x8d68Ba0b6E6Dc9C0f7118e21007C53b810123cd8",
			"abi": [
				{
					"type": "constructor",
					"inputs": [
						{
							"name": "controller",
							"type": "address",
							"internalType": "contract IJBController"
						},
						{
							"name": "suckerRegistry",
							"type": "address",
							"internalType": "contract IBPSuckerRegistry"
						},
						{
							"name": "trustedForwarder",
							"type": "address",
							"internalType": "address"
						}
					],
					"stateMutability": "nonpayable"
				},
				{
					"type": "function",
					"name": "CONTROLLER",
					"inputs": [],
					"outputs": [
						{
							"name": "",
							"type": "address",
							"internalType": "contract IJBController"
						}
					],
					"stateMutability": "view"
				},
				{
					"type": "function",
					"name": "EXIT_DELAY",
					"inputs": [],
					"outputs": [
						{
							"name": "",
							"type": "uint256",
							"internalType": "uint256"
						}
					],
					"stateMutability": "view"
				},
				{
					"type": "function",
					"name": "SUCKER_REGISTRY",
					"inputs": [],
					"outputs": [
						{
							"name": "",
							"type": "address",
							"internalType": "contract IBPSuckerRegistry"
						}
					],
					"stateMutability": "view"
				},
				{
					"type": "function",
					"name": "allowedMintCountOf",
					"inputs": [
						{
							"name": "revnetId",
							"type": "uint256",
							"internalType": "uint256"
						},
						{
							"name": "stageId",
							"type": "uint256",
							"internalType": "uint256"
						},
						{
							"name": "beneficiary",
							"type": "address",
							"internalType": "address"
						}
					],
					"outputs": [
						{
							"name": "",
							"type": "uint256",
							"internalType": "uint256"
						}
					],
					"stateMutability": "view"
				},
				{
					"type": "function",
					"name": "beforePayRecordedWith",
					"inputs": [
						{
							"name": "context",
							"type": "tuple",
							"internalType": "struct JBBeforePayRecordedContext",
							"components": [
								{
									"name": "terminal",
									"type": "address",
									"internalType": "address"
								},
								{
									"name": "payer",
									"type": "address",
									"internalType": "address"
								},
								{
									"name": "amount",
									"type": "tuple",
									"internalType": "struct JBTokenAmount",
									"components": [
										{
											"name": "token",
											"type": "address",
											"internalType": "address"
										},
										{
											"name": "value",
											"type": "uint256",
											"internalType": "uint256"
										},
										{
											"name": "decimals",
											"type": "uint256",
											"internalType": "uint256"
										},
										{
											"name": "currency",
											"type": "uint256",
											"internalType": "uint256"
										}
									]
								},
								{
									"name": "projectId",
									"type": "uint256",
									"internalType": "uint256"
								},
								{
									"name": "rulesetId",
									"type": "uint256",
									"internalType": "uint256"
								},
								{
									"name": "beneficiary",
									"type": "address",
									"internalType": "address"
								},
								{
									"name": "weight",
									"type": "uint256",
									"internalType": "uint256"
								},
								{
									"name": "reservedRate",
									"type": "uint256",
									"internalType": "uint256"
								},
								{
									"name": "metadata",
									"type": "bytes",
									"internalType": "bytes"
								}
							]
						}
					],
					"outputs": [
						{
							"name": "weight",
							"type": "uint256",
							"internalType": "uint256"
						},
						{
							"name": "hookSpecifications",
							"type": "tuple[]",
							"internalType": "struct JBPayHookSpecification[]",
							"components": [
								{
									"name": "hook",
									"type": "address",
									"internalType": "contract IJBPayHook"
								},
								{
									"name": "amount",
									"type": "uint256",
									"internalType": "uint256"
								},
								{
									"name": "metadata",
									"type": "bytes",
									"internalType": "bytes"
								}
							]
						}
					],
					"stateMutability": "view"
				},
				{
					"type": "function",
					"name": "beforeRedeemRecordedWith",
					"inputs": [
						{
							"name": "context",
							"type": "tuple",
							"internalType": "struct JBBeforeRedeemRecordedContext",
							"components": [
								{
									"name": "terminal",
									"type": "address",
									"internalType": "address"
								},
								{
									"name": "holder",
									"type": "address",
									"internalType": "address"
								},
								{
									"name": "projectId",
									"type": "uint256",
									"internalType": "uint256"
								},
								{
									"name": "rulesetId",
									"type": "uint256",
									"internalType": "uint256"
								},
								{
									"name": "redeemCount",
									"type": "uint256",
									"internalType": "uint256"
								},
								{
									"name": "totalSupply",
									"type": "uint256",
									"internalType": "uint256"
								},
								{
									"name": "surplus",
									"type": "tuple",
									"internalType": "struct JBTokenAmount",
									"components": [
										{
											"name": "token",
											"type": "address",
											"internalType": "address"
										},
										{
											"name": "value",
											"type": "uint256",
											"internalType": "uint256"
										},
										{
											"name": "decimals",
											"type": "uint256",
											"internalType": "uint256"
										},
										{
											"name": "currency",
											"type": "uint256",
											"internalType": "uint256"
										}
									]
								},
								{
									"name": "useTotalSurplus",
									"type": "bool",
									"internalType": "bool"
								},
								{
									"name": "redemptionRate",
									"type": "uint256",
									"internalType": "uint256"
								},
								{
									"name": "metadata",
									"type": "bytes",
									"internalType": "bytes"
								}
							]
						}
					],
					"outputs": [
						{
							"name": "",
							"type": "uint256",
							"internalType": "uint256"
						},
						{
							"name": "",
							"type": "uint256",
							"internalType": "uint256"
						},
						{
							"name": "",
							"type": "uint256",
							"internalType": "uint256"
						},
						{
							"name": "specifications",
							"type": "tuple[]",
							"internalType": "struct JBRedeemHookSpecification[]",
							"components": [
								{
									"name": "hook",
									"type": "address",
									"internalType": "contract IJBRedeemHook"
								},
								{
									"name": "amount",
									"type": "uint256",
									"internalType": "uint256"
								},
								{
									"name": "metadata",
									"type": "bytes",
									"internalType": "bytes"
								}
							]
						}
					],
					"stateMutability": "view"
				},
				{
					"type": "function",
					"name": "buybackHookOf",
					"inputs": [
						{
							"name": "revnetId",
							"type": "uint256",
							"internalType": "uint256"
						}
					],
					"outputs": [
						{
							"name": "buybackHook",
							"type": "address",
							"internalType": "contract IJBRulesetDataHook"
						}
					],
					"stateMutability": "view"
				},
				{
					"type": "function",
					"name": "deploySuckersFor",
					"inputs": [
						{
							"name": "revnetId",
							"type": "uint256",
							"internalType": "uint256"
						},
						{
							"name": "encodedConfiguration",
							"type": "bytes",
							"internalType": "bytes"
						},
						{
							"name": "suckerDeploymentConfiguration",
							"type": "tuple",
							"internalType": "struct REVSuckerDeploymentConfig",
							"components": [
								{
									"name": "deployerConfigurations",
									"type": "tuple[]",
									"internalType": "struct BPSuckerDeployerConfig[]",
									"components": [
										{
											"name": "deployer",
											"type": "address",
											"internalType": "contract IBPSuckerDeployer"
										},
										{
											"name": "mappings",
											"type": "tuple[]",
											"internalType": "struct BPTokenMapping[]",
											"components": [
												{
													"name": "localToken",
													"type": "address",
													"internalType": "address"
												},
												{
													"name": "minGas",
													"type": "uint32",
													"internalType": "uint32"
												},
												{
													"name": "remoteToken",
													"type": "address",
													"internalType": "address"
												},
												{
													"name": "minBridgeAmount",
													"type": "uint256",
													"internalType": "uint256"
												}
											]
										}
									]
								},
								{
									"name": "salt",
									"type": "bytes32",
									"internalType": "bytes32"
								}
							]
						}
					],
					"outputs": [],
					"stateMutability": "nonpayable"
				},
				{
					"type": "function",
					"name": "exitDelayOf",
					"inputs": [
						{
							"name": "revnetId",
							"type": "uint256",
							"internalType": "uint256"
						}
					],
					"outputs": [
						{
							"name": "exitDelay",
							"type": "uint256",
							"internalType": "uint256"
						}
					],
					"stateMutability": "view"
				},
				{
					"type": "function",
					"name": "hasMintPermissionFor",
					"inputs": [
						{
							"name": "revnetId",
							"type": "uint256",
							"internalType": "uint256"
						},
						{
							"name": "addr",
							"type": "address",
							"internalType": "address"
						}
					],
					"outputs": [
						{
							"name": "",
							"type": "bool",
							"internalType": "bool"
						}
					],
					"stateMutability": "view"
				},
				{
					"type": "function",
					"name": "isTrustedForwarder",
					"inputs": [
						{
							"name": "forwarder",
							"type": "address",
							"internalType": "address"
						}
					],
					"outputs": [
						{
							"name": "",
							"type": "bool",
							"internalType": "bool"
						}
					],
					"stateMutability": "view"
				},
				{
					"type": "function",
					"name": "launchRevnetFor",
					"inputs": [
						{
							"name": "revnetId",
							"type": "uint256",
							"internalType": "uint256"
						},
						{
							"name": "configuration",
							"type": "tuple",
							"internalType": "struct REVConfig",
							"components": [
								{
									"name": "description",
									"type": "tuple",
									"internalType": "struct REVDescription",
									"components": [
										{
											"name": "name",
											"type": "string",
											"internalType": "string"
										},
										{
											"name": "ticker",
											"type": "string",
											"internalType": "string"
										},
										{
											"name": "uri",
											"type": "string",
											"internalType": "string"
										},
										{
											"name": "salt",
											"type": "bytes32",
											"internalType": "bytes32"
										}
									]
								},
								{
									"name": "baseCurrency",
									"type": "uint32",
									"internalType": "uint32"
								},
								{
									"name": "initialSplitOperator",
									"type": "address",
									"internalType": "address"
								},
								{
									"name": "stageConfigurations",
									"type": "tuple[]",
									"internalType": "struct REVStageConfig[]",
									"components": [
										{
											"name": "startsAtOrAfter",
											"type": "uint40",
											"internalType": "uint40"
										},
										{
											"name": "mintConfigs",
											"type": "tuple[]",
											"internalType": "struct REVMintConfig[]",
											"components": [
												{
													"name": "chainId",
													"type": "uint256",
													"internalType": "uint256"
												},
												{
													"name": "count",
													"type": "uint256",
													"internalType": "uint256"
												},
												{
													"name": "beneficiary",
													"type": "address",
													"internalType": "address"
												}
											]
										},
										{
											"name": "splitRate",
											"type": "uint16",
											"internalType": "uint16"
										},
										{
											"name": "initialIssuanceRate",
											"type": "uint112",
											"internalType": "uint112"
										},
										{
											"name": "priceCeilingIncreaseFrequency",
											"type": "uint40",
											"internalType": "uint40"
										},
										{
											"name": "priceCeilingIncreasePercentage",
											"type": "uint32",
											"internalType": "uint32"
										},
										{
											"name": "priceFloorTaxIntensity",
											"type": "uint16",
											"internalType": "uint16"
										}
									]
								}
							]
						},
						{
							"name": "terminalConfigurations",
							"type": "tuple[]",
							"internalType": "struct JBTerminalConfig[]",
							"components": [
								{
									"name": "terminal",
									"type": "address",
									"internalType": "contract IJBTerminal"
								},
								{
									"name": "tokensToAccept",
									"type": "address[]",
									"internalType": "address[]"
								}
							]
						},
						{
							"name": "buybackHookConfiguration",
							"type": "tuple",
							"internalType": "struct REVBuybackHookConfig",
							"components": [
								{
									"name": "hook",
									"type": "address",
									"internalType": "contract IJBBuybackHook"
								},
								{
									"name": "poolConfigurations",
									"type": "tuple[]",
									"internalType": "struct REVBuybackPoolConfig[]",
									"components": [
										{
											"name": "token",
											"type": "address",
											"internalType": "address"
										},
										{
											"name": "fee",
											"type": "uint24",
											"internalType": "uint24"
										},
										{
											"name": "twapWindow",
											"type": "uint32",
											"internalType": "uint32"
										},
										{
											"name": "twapSlippageTolerance",
											"type": "uint32",
											"internalType": "uint32"
										}
									]
								}
							]
						},
						{
							"name": "suckerDeploymentConfiguration",
							"type": "tuple",
							"internalType": "struct REVSuckerDeploymentConfig",
							"components": [
								{
									"name": "deployerConfigurations",
									"type": "tuple[]",
									"internalType": "struct BPSuckerDeployerConfig[]",
									"components": [
										{
											"name": "deployer",
											"type": "address",
											"internalType": "contract IBPSuckerDeployer"
										},
										{
											"name": "mappings",
											"type": "tuple[]",
											"internalType": "struct BPTokenMapping[]",
											"components": [
												{
													"name": "localToken",
													"type": "address",
													"internalType": "address"
												},
												{
													"name": "minGas",
													"type": "uint32",
													"internalType": "uint32"
												},
												{
													"name": "remoteToken",
													"type": "address",
													"internalType": "address"
												},
												{
													"name": "minBridgeAmount",
													"type": "uint256",
													"internalType": "uint256"
												}
											]
										}
									]
								},
								{
									"name": "salt",
									"type": "bytes32",
									"internalType": "bytes32"
								}
							]
						}
					],
					"outputs": [
						{
							"name": "",
							"type": "uint256",
							"internalType": "uint256"
						}
					],
					"stateMutability": "nonpayable"
				},
				{
					"type": "function",
					"name": "mintFor",
					"inputs": [
						{
							"name": "revnetId",
							"type": "uint256",
							"internalType": "uint256"
						},
						{
							"name": "beneficiary",
							"type": "address",
							"internalType": "address"
						}
					],
					"outputs": [],
					"stateMutability": "nonpayable"
				},
				{
					"type": "function",
					"name": "onERC721Received",
					"inputs": [
						{
							"name": "operator",
							"type": "address",
							"internalType": "address"
						},
						{
							"name": "",
							"type": "address",
							"internalType": "address"
						},
						{
							"name": "tokenId",
							"type": "uint256",
							"internalType": "uint256"
						},
						{
							"name": "data",
							"type": "bytes",
							"internalType": "bytes"
						}
					],
					"outputs": [
						{
							"name": "",
							"type": "bytes4",
							"internalType": "bytes4"
						}
					],
					"stateMutability": "view"
				},
				{
					"type": "function",
					"name": "payHookSpecificationsOf",
					"inputs": [
						{
							"name": "revnetId",
							"type": "uint256",
							"internalType": "uint256"
						}
					],
					"outputs": [
						{
							"name": "",
							"type": "tuple[]",
							"internalType": "struct JBPayHookSpecification[]",
							"components": [
								{
									"name": "hook",
									"type": "address",
									"internalType": "contract IJBPayHook"
								},
								{
									"name": "amount",
									"type": "uint256",
									"internalType": "uint256"
								},
								{
									"name": "metadata",
									"type": "bytes",
									"internalType": "bytes"
								}
							]
						}
					],
					"stateMutability": "view"
				},
				{
					"type": "function",
					"name": "replaceSplitOperatorOf",
					"inputs": [
						{
							"name": "revnetId",
							"type": "uint256",
							"internalType": "uint256"
						},
						{
							"name": "newSplitOperator",
							"type": "address",
							"internalType": "address"
						}
					],
					"outputs": [],
					"stateMutability": "nonpayable"
				},
				{
					"type": "function",
					"name": "supportsInterface",
					"inputs": [
						{
							"name": "interfaceId",
							"type": "bytes4",
							"internalType": "bytes4"
						}
					],
					"outputs": [
						{
							"name": "",
							"type": "bool",
							"internalType": "bool"
						}
					],
					"stateMutability": "view"
				},
				{
					"type": "function",
					"name": "trustedForwarder",
					"inputs": [],
					"outputs": [
						{
							"name": "",
							"type": "address",
							"internalType": "address"
						}
					],
					"stateMutability": "view"
				},
				{
					"type": "event",
					"name": "DeployRevnet",
					"inputs": [
						{
							"name": "revnetId",
							"type": "uint256",
							"indexed": true,
							"internalType": "uint256"
						},
						{
							"name": "configuration",
							"type": "tuple",
							"indexed": false,
							"internalType": "struct REVConfig",
							"components": [
								{
									"name": "description",
									"type": "tuple",
									"internalType": "struct REVDescription",
									"components": [
										{
											"name": "name",
											"type": "string",
											"internalType": "string"
										},
										{
											"name": "ticker",
											"type": "string",
											"internalType": "string"
										},
										{
											"name": "uri",
											"type": "string",
											"internalType": "string"
										},
										{
											"name": "salt",
											"type": "bytes32",
											"internalType": "bytes32"
										}
									]
								},
								{
									"name": "baseCurrency",
									"type": "uint32",
									"internalType": "uint32"
								},
								{
									"name": "initialSplitOperator",
									"type": "address",
									"internalType": "address"
								},
								{
									"name": "stageConfigurations",
									"type": "tuple[]",
									"internalType": "struct REVStageConfig[]",
									"components": [
										{
											"name": "startsAtOrAfter",
											"type": "uint40",
											"internalType": "uint40"
										},
										{
											"name": "mintConfigs",
											"type": "tuple[]",
											"internalType": "struct REVMintConfig[]",
											"components": [
												{
													"name": "chainId",
													"type": "uint256",
													"internalType": "uint256"
												},
												{
													"name": "count",
													"type": "uint256",
													"internalType": "uint256"
												},
												{
													"name": "beneficiary",
													"type": "address",
													"internalType": "address"
												}
											]
										},
										{
											"name": "splitRate",
											"type": "uint16",
											"internalType": "uint16"
										},
										{
											"name": "initialIssuanceRate",
											"type": "uint112",
											"internalType": "uint112"
										},
										{
											"name": "priceCeilingIncreaseFrequency",
											"type": "uint40",
											"internalType": "uint40"
										},
										{
											"name": "priceCeilingIncreasePercentage",
											"type": "uint32",
											"internalType": "uint32"
										},
										{
											"name": "priceFloorTaxIntensity",
											"type": "uint16",
											"internalType": "uint16"
										}
									]
								}
							]
						},
						{
							"name": "terminalConfigurations",
							"type": "tuple[]",
							"indexed": false,
							"internalType": "struct JBTerminalConfig[]",
							"components": [
								{
									"name": "terminal",
									"type": "address",
									"internalType": "contract IJBTerminal"
								},
								{
									"name": "tokensToAccept",
									"type": "address[]",
									"internalType": "address[]"
								}
							]
						},
						{
							"name": "buybackHookConfiguration",
							"type": "tuple",
							"indexed": false,
							"internalType": "struct REVBuybackHookConfig",
							"components": [
								{
									"name": "hook",
									"type": "address",
									"internalType": "contract IJBBuybackHook"
								},
								{
									"name": "poolConfigurations",
									"type": "tuple[]",
									"internalType": "struct REVBuybackPoolConfig[]",
									"components": [
										{
											"name": "token",
											"type": "address",
											"internalType": "address"
										},
										{
											"name": "fee",
											"type": "uint24",
											"internalType": "uint24"
										},
										{
											"name": "twapWindow",
											"type": "uint32",
											"internalType": "uint32"
										},
										{
											"name": "twapSlippageTolerance",
											"type": "uint32",
											"internalType": "uint32"
										}
									]
								}
							]
						},
						{
							"name": "suckerDeploymentConfiguration",
							"type": "tuple",
							"indexed": false,
							"internalType": "struct REVSuckerDeploymentConfig",
							"components": [
								{
									"name": "deployerConfigurations",
									"type": "tuple[]",
									"internalType": "struct BPSuckerDeployerConfig[]",
									"components": [
										{
											"name": "deployer",
											"type": "address",
											"internalType": "contract IBPSuckerDeployer"
										},
										{
											"name": "mappings",
											"type": "tuple[]",
											"internalType": "struct BPTokenMapping[]",
											"components": [
												{
													"name": "localToken",
													"type": "address",
													"internalType": "address"
												},
												{
													"name": "minGas",
													"type": "uint32",
													"internalType": "uint32"
												},
												{
													"name": "remoteToken",
													"type": "address",
													"internalType": "address"
												},
												{
													"name": "minBridgeAmount",
													"type": "uint256",
													"internalType": "uint256"
												}
											]
										}
									]
								},
								{
									"name": "salt",
									"type": "bytes32",
									"internalType": "bytes32"
								}
							]
						},
						{
							"name": "rulesetConfigurations",
							"type": "tuple[]",
							"indexed": false,
							"internalType": "struct JBRulesetConfig[]",
							"components": [
								{
									"name": "mustStartAtOrAfter",
									"type": "uint256",
									"internalType": "uint256"
								},
								{
									"name": "duration",
									"type": "uint256",
									"internalType": "uint256"
								},
								{
									"name": "weight",
									"type": "uint256",
									"internalType": "uint256"
								},
								{
									"name": "decayRate",
									"type": "uint256",
									"internalType": "uint256"
								},
								{
									"name": "approvalHook",
									"type": "address",
									"internalType": "contract IJBRulesetApprovalHook"
								},
								{
									"name": "metadata",
									"type": "tuple",
									"internalType": "struct JBRulesetMetadata",
									"components": [
										{
											"name": "reservedRate",
											"type": "uint256",
											"internalType": "uint256"
										},
										{
											"name": "redemptionRate",
											"type": "uint256",
											"internalType": "uint256"
										},
										{
											"name": "baseCurrency",
											"type": "uint256",
											"internalType": "uint256"
										},
										{
											"name": "pausePay",
											"type": "bool",
											"internalType": "bool"
										},
										{
											"name": "pauseCreditTransfers",
											"type": "bool",
											"internalType": "bool"
										},
										{
											"name": "allowOwnerMinting",
											"type": "bool",
											"internalType": "bool"
										},
										{
											"name": "allowTerminalMigration",
											"type": "bool",
											"internalType": "bool"
										},
										{
											"name": "allowSetTerminals",
											"type": "bool",
											"internalType": "bool"
										},
										{
											"name": "allowControllerMigration",
											"type": "bool",
											"internalType": "bool"
										},
										{
											"name": "allowSetController",
											"type": "bool",
											"internalType": "bool"
										},
										{
											"name": "holdFees",
											"type": "bool",
											"internalType": "bool"
										},
										{
											"name": "useTotalSurplusForRedemptions",
											"type": "bool",
											"internalType": "bool"
										},
										{
											"name": "useDataHookForPay",
											"type": "bool",
											"internalType": "bool"
										},
										{
											"name": "useDataHookForRedeem",
											"type": "bool",
											"internalType": "bool"
										},
										{
											"name": "dataHook",
											"type": "address",
											"internalType": "address"
										},
										{
											"name": "metadata",
											"type": "uint256",
											"internalType": "uint256"
										}
									]
								},
								{
									"name": "splitGroups",
									"type": "tuple[]",
									"internalType": "struct JBSplitGroup[]",
									"components": [
										{
											"name": "groupId",
											"type": "uint256",
											"internalType": "uint256"
										},
										{
											"name": "splits",
											"type": "tuple[]",
											"internalType": "struct JBSplit[]",
											"components": [
												{
													"name": "preferAddToBalance",
													"type": "bool",
													"internalType": "bool"
												},
												{
													"name": "percent",
													"type": "uint256",
													"internalType": "uint256"
												},
												{
													"name": "projectId",
													"type": "uint256",
													"internalType": "uint256"
												},
												{
													"name": "beneficiary",
													"type": "address",
													"internalType": "address payable"
												},
												{
													"name": "lockedUntil",
													"type": "uint256",
													"internalType": "uint256"
												},
												{
													"name": "hook",
													"type": "address",
													"internalType": "contract IJBSplitHook"
												}
											]
										}
									]
								},
								{
									"name": "fundAccessLimitGroups",
									"type": "tuple[]",
									"internalType": "struct JBFundAccessLimitGroup[]",
									"components": [
										{
											"name": "terminal",
											"type": "address",
											"internalType": "address"
										},
										{
											"name": "token",
											"type": "address",
											"internalType": "address"
										},
										{
											"name": "payoutLimits",
											"type": "tuple[]",
											"internalType": "struct JBCurrencyAmount[]",
											"components": [
												{
													"name": "amount",
													"type": "uint256",
													"internalType": "uint256"
												},
												{
													"name": "currency",
													"type": "uint256",
													"internalType": "uint256"
												}
											]
										},
										{
											"name": "surplusAllowances",
											"type": "tuple[]",
											"internalType": "struct JBCurrencyAmount[]",
											"components": [
												{
													"name": "amount",
													"type": "uint256",
													"internalType": "uint256"
												},
												{
													"name": "currency",
													"type": "uint256",
													"internalType": "uint256"
												}
											]
										}
									]
								}
							]
						},
						{
							"name": "encodedConfiguration",
							"type": "bytes",
							"indexed": false,
							"internalType": "bytes"
						},
						{
							"name": "isInProgress",
							"type": "bool",
							"indexed": false,
							"internalType": "bool"
						},
						{
							"name": "caller",
							"type": "address",
							"indexed": false,
							"internalType": "address"
						}
					],
					"anonymous": false
				},
				{
					"type": "event",
					"name": "DeploySuckers",
					"inputs": [
						{
							"name": "revnetId",
							"type": "uint256",
							"indexed": true,
							"internalType": "uint256"
						},
						{
							"name": "salt",
							"type": "bytes32",
							"indexed": true,
							"internalType": "bytes32"
						},
						{
							"name": "encodedConfiguration",
							"type": "bytes",
							"indexed": false,
							"internalType": "bytes"
						},
						{
							"name": "suckerDeploymentConfiguration",
							"type": "tuple",
							"indexed": false,
							"internalType": "struct REVSuckerDeploymentConfig",
							"components": [
								{
									"name": "deployerConfigurations",
									"type": "tuple[]",
									"internalType": "struct BPSuckerDeployerConfig[]",
									"components": [
										{
											"name": "deployer",
											"type": "address",
											"internalType": "contract IBPSuckerDeployer"
										},
										{
											"name": "mappings",
											"type": "tuple[]",
											"internalType": "struct BPTokenMapping[]",
											"components": [
												{
													"name": "localToken",
													"type": "address",
													"internalType": "address"
												},
												{
													"name": "minGas",
													"type": "uint32",
													"internalType": "uint32"
												},
												{
													"name": "remoteToken",
													"type": "address",
													"internalType": "address"
												},
												{
													"name": "minBridgeAmount",
													"type": "uint256",
													"internalType": "uint256"
												}
											]
										}
									]
								},
								{
									"name": "salt",
									"type": "bytes32",
									"internalType": "bytes32"
								}
							]
						},
						{
							"name": "caller",
							"type": "address",
							"indexed": false,
							"internalType": "address"
						}
					],
					"anonymous": false
				},
				{
					"type": "event",
					"name": "Mint",
					"inputs": [
						{
							"name": "revnetId",
							"type": "uint256",
							"indexed": true,
							"internalType": "uint256"
						},
						{
							"name": "stageId",
							"type": "uint256",
							"indexed": true,
							"internalType": "uint256"
						},
						{
							"name": "beneficiary",
							"type": "address",
							"indexed": true,
							"internalType": "address"
						},
						{
							"name": "count",
							"type": "uint256",
							"indexed": false,
							"internalType": "uint256"
						},
						{
							"name": "caller",
							"type": "address",
							"indexed": false,
							"internalType": "address"
						}
					],
					"anonymous": false
				},
				{
					"type": "event",
					"name": "ReplaceSplitOperator",
					"inputs": [
						{
							"name": "revnetId",
							"type": "uint256",
							"indexed": true,
							"internalType": "uint256"
						},
						{
							"name": "newSplitOperator",
							"type": "address",
							"indexed": true,
							"internalType": "address"
						},
						{
							"name": "caller",
							"type": "address",
							"indexed": false,
							"internalType": "address"
						}
					],
					"anonymous": false
				},
				{
					"type": "error",
					"name": "REVBasicDeployer_ExitDelayInEffect",
					"inputs": []
				},
				{
					"type": "error",
					"name": "REVBasicDeployer_Unauthorized",
					"inputs": []
				}
			],
			"solcInputHash": "dc49d42df34264ee46e5c6c92dd005d6",
			"receipt": {
				"blockHash": "0xaecb0199c1b6c393b8416fbf4e2826abd64d4a3b9a2fb2daa5c5cc9b541f9a8f",
				"blockNumber": 5822748,
				"contractAddress": null,
				"cumulativeGasUsed": "17582924",
				"from": "0xC034550B542b83BA1De312b21d1C94a9a52B1595",
				"gasPrice": "18437042373",
				"gasUsed": "9886007",
				"hash": "0x3adcb91e07f022d43c61e258fadd2c6a4ae177f9e83548fe2a8a186e15036819",
				"index": 81,
				"logs": [
					{
						"address": "0xB5E96127D417b1B3ef8438496a38A143167209c7",
						"blockHash": "0xaecb0199c1b6c393b8416fbf4e2826abd64d4a3b9a2fb2daa5c5cc9b541f9a8f",
						"blockNumber": 5822748,
						"data": "0x0000000000000000000000000000000000000000000000000000000000000000",
						"index": 130,
						"topics": [
							"0x572f161235911da04685a68c06adf558fc7e4a36909dca394650e0adc19cc93d",
							"0x000000000000000000000000c034550b542b83ba1de312b21d1c94a9a52b1595",
							"0x00000000000000000000000018ed911dda49f125bbadd71f826f1cda550f20fe",
							"0xecb43198f643356e24026525a3d078de0e55f2db96e6c1ad2685fa69caf0a9d4"
						],
						"transactionHash": "0x3adcb91e07f022d43c61e258fadd2c6a4ae177f9e83548fe2a8a186e15036819",
						"transactionIndex": 81
					},
					{
						"address": "0x15B51C7D9DBc4681e54f8b493187C9a2377bd81B",
						"blockHash": "0xaecb0199c1b6c393b8416fbf4e2826abd64d4a3b9a2fb2daa5c5cc9b541f9a8f",
						"blockNumber": 5822748,
						"data": "0x",
						"index": 131,
						"topics": [
							"0x6895c13664aa4f67288b25d7a21d7aaa34916e355fb9b6fae0a139a9085becb8",
							"0x00000000000000000000000018ed911dda49f125bbadd71f826f1cda550f20fe"
						],
						"transactionHash": "0x3adcb91e07f022d43c61e258fadd2c6a4ae177f9e83548fe2a8a186e15036819",
						"transactionIndex": 81
					},
					{
						"address": "0x18Ed911ddA49f125bbadd71f826F1cDa550f20fE",
						"blockHash": "0xaecb0199c1b6c393b8416fbf4e2826abd64d4a3b9a2fb2daa5c5cc9b541f9a8f",
						"blockNumber": 5822748,
						"data": "0x0000000000000000000000000000000000000000000000000000000000000001",
						"index": 132,
						"topics": [
							"0xa65fb05c5808f5f389d72edeaf719ce38f4cc55c1f69ca3cbfb31c21501caa07",
							"0x1d085f0c5b331462367b4fa07a86d9fbebfac5b7c4e43d98b139436e2c1c70d3"
						],
						"transactionHash": "0x3adcb91e07f022d43c61e258fadd2c6a4ae177f9e83548fe2a8a186e15036819",
						"transactionIndex": 81
					},
					{
						"address": "0x15B51C7D9DBc4681e54f8b493187C9a2377bd81B",
						"blockHash": "0xaecb0199c1b6c393b8416fbf4e2826abd64d4a3b9a2fb2daa5c5cc9b541f9a8f",
						"blockNumber": 5822748,
						"data": "0x",
						"index": 133,
						"topics": [
							"0x6895c13664aa4f67288b25d7a21d7aaa34916e355fb9b6fae0a139a9085becb8",
							"0x00000000000000000000000018ed911dda49f125bbadd71f826f1cda550f20fe"
						],
						"transactionHash": "0x3adcb91e07f022d43c61e258fadd2c6a4ae177f9e83548fe2a8a186e15036819",
						"transactionIndex": 81
					},
					{
						"address": "0x18Ed911ddA49f125bbadd71f826F1cDa550f20fE",
						"blockHash": "0xaecb0199c1b6c393b8416fbf4e2826abd64d4a3b9a2fb2daa5c5cc9b541f9a8f",
						"blockNumber": 5822748,
						"data": "0x0000000000000000000000000000000000000000000000000000000000000002",
						"index": 134,
						"topics": [
							"0xa65fb05c5808f5f389d72edeaf719ce38f4cc55c1f69ca3cbfb31c21501caa07",
							"0x1d085f0c5b331462367b4fa07a86d9fbebfac5b7c4e43d98b139436e2c1c70d3"
						],
						"transactionHash": "0x3adcb91e07f022d43c61e258fadd2c6a4ae177f9e83548fe2a8a186e15036819",
						"transactionIndex": 81
					},
					{
						"address": "0x18Ed911ddA49f125bbadd71f826F1cDa550f20fE",
						"blockHash": "0xaecb0199c1b6c393b8416fbf4e2826abd64d4a3b9a2fb2daa5c5cc9b541f9a8f",
						"blockNumber": 5822748,
						"data": "0x",
						"index": 135,
						"topics": [
							"0x4383d976757d67ca920616be0b6430a681ea9d3dcce8d6d61d4603ca4a9bff63",
							"0x1d085f0c5b331462367b4fa07a86d9fbebfac5b7c4e43d98b139436e2c1c70d3"
						],
						"transactionHash": "0x3adcb91e07f022d43c61e258fadd2c6a4ae177f9e83548fe2a8a186e15036819",
						"transactionIndex": 81
					}
				],
				"logsBloom": "0x00002000080010001000000010080000000000000008000000000000004000000000000000000000000000001040000000000004000004000000000000000000100000000000200000004000000000000000000000000000000000000000000000000000000000000000000000000000000000000000000000000000000000000000000000000000000100000000000800000000000000000000008000000000004000800010000000100000000001020200000000000000000000000044000000000000000000000000000008000000000000000000000000000000000000010000000000000008000000000000000200000000000000000000000008000000",
				"status": 1,
				"to": "0xB5E96127D417b1B3ef8438496a38A143167209c7"
			},
			"metadata": "{\"compiler\":{\"version\":\"0.8.23+commit.f704f362\"},\"language\":\"Solidity\",\"output\":{\"abi\":[{\"inputs\":[{\"internalType\":\"contract IJBController\",\"name\":\"controller\",\"type\":\"address\"},{\"internalType\":\"contract IBPSuckerRegistry\",\"name\":\"suckerRegistry\",\"type\":\"address\"},{\"internalType\":\"address\",\"name\":\"trustedForwarder\",\"type\":\"address\"}],\"stateMutability\":\"nonpayable\",\"type\":\"constructor\"},{\"inputs\":[],\"type\":\"error\",\"name\":\"REVBasicDeployer_ExitDelayInEffect\"},{\"inputs\":[],\"type\":\"error\",\"name\":\"REVBasicDeployer_Unauthorized\"},{\"inputs\":[{\"internalType\":\"uint256\",\"name\":\"revnetId\",\"type\":\"uint256\",\"indexed\":true},{\"internalType\":\"struct REVConfig\",\"name\":\"configuration\",\"type\":\"tuple\",\"components\":[{\"internalType\":\"struct REVDescription\",\"name\":\"description\",\"type\":\"tuple\",\"components\":[{\"internalType\":\"string\",\"name\":\"name\",\"type\":\"string\"},{\"internalType\":\"string\",\"name\":\"ticker\",\"type\":\"string\"},{\"internalType\":\"string\",\"name\":\"uri\",\"type\":\"string\"},{\"internalType\":\"bytes32\",\"name\":\"salt\",\"type\":\"bytes32\"}]},{\"internalType\":\"uint32\",\"name\":\"baseCurrency\",\"type\":\"uint32\"},{\"internalType\":\"address\",\"name\":\"initialSplitOperator\",\"type\":\"address\"},{\"internalType\":\"struct REVStageConfig[]\",\"name\":\"stageConfigurations\",\"type\":\"tuple[]\",\"components\":[{\"internalType\":\"uint40\",\"name\":\"startsAtOrAfter\",\"type\":\"uint40\"},{\"internalType\":\"struct REVMintConfig[]\",\"name\":\"mintConfigs\",\"type\":\"tuple[]\",\"components\":[{\"internalType\":\"uint256\",\"name\":\"chainId\",\"type\":\"uint256\"},{\"internalType\":\"uint256\",\"name\":\"count\",\"type\":\"uint256\"},{\"internalType\":\"address\",\"name\":\"beneficiary\",\"type\":\"address\"}]},{\"internalType\":\"uint16\",\"name\":\"splitRate\",\"type\":\"uint16\"},{\"internalType\":\"uint112\",\"name\":\"initialIssuanceRate\",\"type\":\"uint112\"},{\"internalType\":\"uint40\",\"name\":\"priceCeilingIncreaseFrequency\",\"type\":\"uint40\"},{\"internalType\":\"uint32\",\"name\":\"priceCeilingIncreasePercentage\",\"type\":\"uint32\"},{\"internalType\":\"uint16\",\"name\":\"priceFloorTaxIntensity\",\"type\":\"uint16\"}]}],\"indexed\":false},{\"internalType\":\"struct JBTerminalConfig[]\",\"name\":\"terminalConfigurations\",\"type\":\"tuple[]\",\"components\":[{\"internalType\":\"contract IJBTerminal\",\"name\":\"terminal\",\"type\":\"address\"},{\"internalType\":\"address[]\",\"name\":\"tokensToAccept\",\"type\":\"address[]\"}],\"indexed\":false},{\"internalType\":\"struct REVBuybackHookConfig\",\"name\":\"buybackHookConfiguration\",\"type\":\"tuple\",\"components\":[{\"internalType\":\"contract IJBBuybackHook\",\"name\":\"hook\",\"type\":\"address\"},{\"internalType\":\"struct REVBuybackPoolConfig[]\",\"name\":\"poolConfigurations\",\"type\":\"tuple[]\",\"components\":[{\"internalType\":\"address\",\"name\":\"token\",\"type\":\"address\"},{\"internalType\":\"uint24\",\"name\":\"fee\",\"type\":\"uint24\"},{\"internalType\":\"uint32\",\"name\":\"twapWindow\",\"type\":\"uint32\"},{\"internalType\":\"uint32\",\"name\":\"twapSlippageTolerance\",\"type\":\"uint32\"}]}],\"indexed\":false},{\"internalType\":\"struct REVSuckerDeploymentConfig\",\"name\":\"suckerDeploymentConfiguration\",\"type\":\"tuple\",\"components\":[{\"internalType\":\"struct BPSuckerDeployerConfig[]\",\"name\":\"deployerConfigurations\",\"type\":\"tuple[]\",\"components\":[{\"internalType\":\"contract IBPSuckerDeployer\",\"name\":\"deployer\",\"type\":\"address\"},{\"internalType\":\"struct BPTokenMapping[]\",\"name\":\"mappings\",\"type\":\"tuple[]\",\"components\":[{\"internalType\":\"address\",\"name\":\"localToken\",\"type\":\"address\"},{\"internalType\":\"uint32\",\"name\":\"minGas\",\"type\":\"uint32\"},{\"internalType\":\"address\",\"name\":\"remoteToken\",\"type\":\"address\"},{\"internalType\":\"uint256\",\"name\":\"minBridgeAmount\",\"type\":\"uint256\"}]}]},{\"internalType\":\"bytes32\",\"name\":\"salt\",\"type\":\"bytes32\"}],\"indexed\":false},{\"internalType\":\"struct JBRulesetConfig[]\",\"name\":\"rulesetConfigurations\",\"type\":\"tuple[]\",\"components\":[{\"internalType\":\"uint256\",\"name\":\"mustStartAtOrAfter\",\"type\":\"uint256\"},{\"internalType\":\"uint256\",\"name\":\"duration\",\"type\":\"uint256\"},{\"internalType\":\"uint256\",\"name\":\"weight\",\"type\":\"uint256\"},{\"internalType\":\"uint256\",\"name\":\"decayRate\",\"type\":\"uint256\"},{\"internalType\":\"contract IJBRulesetApprovalHook\",\"name\":\"approvalHook\",\"type\":\"address\"},{\"internalType\":\"struct JBRulesetMetadata\",\"name\":\"metadata\",\"type\":\"tuple\",\"components\":[{\"internalType\":\"uint256\",\"name\":\"reservedRate\",\"type\":\"uint256\"},{\"internalType\":\"uint256\",\"name\":\"redemptionRate\",\"type\":\"uint256\"},{\"internalType\":\"uint256\",\"name\":\"baseCurrency\",\"type\":\"uint256\"},{\"internalType\":\"bool\",\"name\":\"pausePay\",\"type\":\"bool\"},{\"internalType\":\"bool\",\"name\":\"pauseCreditTransfers\",\"type\":\"bool\"},{\"internalType\":\"bool\",\"name\":\"allowOwnerMinting\",\"type\":\"bool\"},{\"internalType\":\"bool\",\"name\":\"allowTerminalMigration\",\"type\":\"bool\"},{\"internalType\":\"bool\",\"name\":\"allowSetTerminals\",\"type\":\"bool\"},{\"internalType\":\"bool\",\"name\":\"allowControllerMigration\",\"type\":\"bool\"},{\"internalType\":\"bool\",\"name\":\"allowSetController\",\"type\":\"bool\"},{\"internalType\":\"bool\",\"name\":\"holdFees\",\"type\":\"bool\"},{\"internalType\":\"bool\",\"name\":\"useTotalSurplusForRedemptions\",\"type\":\"bool\"},{\"internalType\":\"bool\",\"name\":\"useDataHookForPay\",\"type\":\"bool\"},{\"internalType\":\"bool\",\"name\":\"useDataHookForRedeem\",\"type\":\"bool\"},{\"internalType\":\"address\",\"name\":\"dataHook\",\"type\":\"address\"},{\"internalType\":\"uint256\",\"name\":\"metadata\",\"type\":\"uint256\"}]},{\"internalType\":\"struct JBSplitGroup[]\",\"name\":\"splitGroups\",\"type\":\"tuple[]\",\"components\":[{\"internalType\":\"uint256\",\"name\":\"groupId\",\"type\":\"uint256\"},{\"internalType\":\"struct JBSplit[]\",\"name\":\"splits\",\"type\":\"tuple[]\",\"components\":[{\"internalType\":\"bool\",\"name\":\"preferAddToBalance\",\"type\":\"bool\"},{\"internalType\":\"uint256\",\"name\":\"percent\",\"type\":\"uint256\"},{\"internalType\":\"uint256\",\"name\":\"projectId\",\"type\":\"uint256\"},{\"internalType\":\"address payable\",\"name\":\"beneficiary\",\"type\":\"address\"},{\"internalType\":\"uint256\",\"name\":\"lockedUntil\",\"type\":\"uint256\"},{\"internalType\":\"contract IJBSplitHook\",\"name\":\"hook\",\"type\":\"address\"}]}]},{\"internalType\":\"struct JBFundAccessLimitGroup[]\",\"name\":\"fundAccessLimitGroups\",\"type\":\"tuple[]\",\"components\":[{\"internalType\":\"address\",\"name\":\"terminal\",\"type\":\"address\"},{\"internalType\":\"address\",\"name\":\"token\",\"type\":\"address\"},{\"internalType\":\"struct JBCurrencyAmount[]\",\"name\":\"payoutLimits\",\"type\":\"tuple[]\",\"components\":[{\"internalType\":\"uint256\",\"name\":\"amount\",\"type\":\"uint256\"},{\"internalType\":\"uint256\",\"name\":\"currency\",\"type\":\"uint256\"}]},{\"internalType\":\"struct JBCurrencyAmount[]\",\"name\":\"surplusAllowances\",\"type\":\"tuple[]\",\"components\":[{\"internalType\":\"uint256\",\"name\":\"amount\",\"type\":\"uint256\"},{\"internalType\":\"uint256\",\"name\":\"currency\",\"type\":\"uint256\"}]}]}],\"indexed\":false},{\"internalType\":\"bytes\",\"name\":\"encodedConfiguration\",\"type\":\"bytes\",\"indexed\":false},{\"internalType\":\"bool\",\"name\":\"isInProgress\",\"type\":\"bool\",\"indexed\":false},{\"internalType\":\"address\",\"name\":\"caller\",\"type\":\"address\",\"indexed\":false}],\"type\":\"event\",\"name\":\"DeployRevnet\",\"anonymous\":false},{\"inputs\":[{\"internalType\":\"uint256\",\"name\":\"revnetId\",\"type\":\"uint256\",\"indexed\":true},{\"internalType\":\"bytes32\",\"name\":\"salt\",\"type\":\"bytes32\",\"indexed\":true},{\"internalType\":\"bytes\",\"name\":\"encodedConfiguration\",\"type\":\"bytes\",\"indexed\":false},{\"internalType\":\"struct REVSuckerDeploymentConfig\",\"name\":\"suckerDeploymentConfiguration\",\"type\":\"tuple\",\"components\":[{\"internalType\":\"struct BPSuckerDeployerConfig[]\",\"name\":\"deployerConfigurations\",\"type\":\"tuple[]\",\"components\":[{\"internalType\":\"contract IBPSuckerDeployer\",\"name\":\"deployer\",\"type\":\"address\"},{\"internalType\":\"struct BPTokenMapping[]\",\"name\":\"mappings\",\"type\":\"tuple[]\",\"components\":[{\"internalType\":\"address\",\"name\":\"localToken\",\"type\":\"address\"},{\"internalType\":\"uint32\",\"name\":\"minGas\",\"type\":\"uint32\"},{\"internalType\":\"address\",\"name\":\"remoteToken\",\"type\":\"address\"},{\"internalType\":\"uint256\",\"name\":\"minBridgeAmount\",\"type\":\"uint256\"}]}]},{\"internalType\":\"bytes32\",\"name\":\"salt\",\"type\":\"bytes32\"}],\"indexed\":false},{\"internalType\":\"address\",\"name\":\"caller\",\"type\":\"address\",\"indexed\":false}],\"type\":\"event\",\"name\":\"DeploySuckers\",\"anonymous\":false},{\"inputs\":[{\"internalType\":\"uint256\",\"name\":\"revnetId\",\"type\":\"uint256\",\"indexed\":true},{\"internalType\":\"uint256\",\"name\":\"stageId\",\"type\":\"uint256\",\"indexed\":true},{\"internalType\":\"address\",\"name\":\"beneficiary\",\"type\":\"address\",\"indexed\":true},{\"internalType\":\"uint256\",\"name\":\"count\",\"type\":\"uint256\",\"indexed\":false},{\"internalType\":\"address\",\"name\":\"caller\",\"type\":\"address\",\"indexed\":false}],\"type\":\"event\",\"name\":\"Mint\",\"anonymous\":false},{\"inputs\":[{\"internalType\":\"uint256\",\"name\":\"revnetId\",\"type\":\"uint256\",\"indexed\":true},{\"internalType\":\"address\",\"name\":\"newSplitOperator\",\"type\":\"address\",\"indexed\":true},{\"internalType\":\"address\",\"name\":\"caller\",\"type\":\"address\",\"indexed\":false}],\"type\":\"event\",\"name\":\"ReplaceSplitOperator\",\"anonymous\":false},{\"inputs\":[],\"stateMutability\":\"view\",\"type\":\"function\",\"name\":\"CONTROLLER\",\"outputs\":[{\"internalType\":\"contract IJBController\",\"name\":\"\",\"type\":\"address\"}]},{\"inputs\":[],\"stateMutability\":\"view\",\"type\":\"function\",\"name\":\"EXIT_DELAY\",\"outputs\":[{\"internalType\":\"uint256\",\"name\":\"\",\"type\":\"uint256\"}]},{\"inputs\":[],\"stateMutability\":\"view\",\"type\":\"function\",\"name\":\"SUCKER_REGISTRY\",\"outputs\":[{\"internalType\":\"contract IBPSuckerRegistry\",\"name\":\"\",\"type\":\"address\"}]},{\"inputs\":[{\"internalType\":\"uint256\",\"name\":\"revnetId\",\"type\":\"uint256\"},{\"internalType\":\"uint256\",\"name\":\"stageId\",\"type\":\"uint256\"},{\"internalType\":\"address\",\"name\":\"beneficiary\",\"type\":\"address\"}],\"stateMutability\":\"view\",\"type\":\"function\",\"name\":\"allowedMintCountOf\",\"outputs\":[{\"internalType\":\"uint256\",\"name\":\"\",\"type\":\"uint256\"}]},{\"inputs\":[{\"internalType\":\"struct JBBeforePayRecordedContext\",\"name\":\"context\",\"type\":\"tuple\",\"components\":[{\"internalType\":\"address\",\"name\":\"terminal\",\"type\":\"address\"},{\"internalType\":\"address\",\"name\":\"payer\",\"type\":\"address\"},{\"internalType\":\"struct JBTokenAmount\",\"name\":\"amount\",\"type\":\"tuple\",\"components\":[{\"internalType\":\"address\",\"name\":\"token\",\"type\":\"address\"},{\"internalType\":\"uint256\",\"name\":\"value\",\"type\":\"uint256\"},{\"internalType\":\"uint256\",\"name\":\"decimals\",\"type\":\"uint256\"},{\"internalType\":\"uint256\",\"name\":\"currency\",\"type\":\"uint256\"}]},{\"internalType\":\"uint256\",\"name\":\"projectId\",\"type\":\"uint256\"},{\"internalType\":\"uint256\",\"name\":\"rulesetId\",\"type\":\"uint256\"},{\"internalType\":\"address\",\"name\":\"beneficiary\",\"type\":\"address\"},{\"internalType\":\"uint256\",\"name\":\"weight\",\"type\":\"uint256\"},{\"internalType\":\"uint256\",\"name\":\"reservedRate\",\"type\":\"uint256\"},{\"internalType\":\"bytes\",\"name\":\"metadata\",\"type\":\"bytes\"}]}],\"stateMutability\":\"view\",\"type\":\"function\",\"name\":\"beforePayRecordedWith\",\"outputs\":[{\"internalType\":\"uint256\",\"name\":\"weight\",\"type\":\"uint256\"},{\"internalType\":\"struct JBPayHookSpecification[]\",\"name\":\"hookSpecifications\",\"type\":\"tuple[]\",\"components\":[{\"internalType\":\"contract IJBPayHook\",\"name\":\"hook\",\"type\":\"address\"},{\"internalType\":\"uint256\",\"name\":\"amount\",\"type\":\"uint256\"},{\"internalType\":\"bytes\",\"name\":\"metadata\",\"type\":\"bytes\"}]}]},{\"inputs\":[{\"internalType\":\"struct JBBeforeRedeemRecordedContext\",\"name\":\"context\",\"type\":\"tuple\",\"components\":[{\"internalType\":\"address\",\"name\":\"terminal\",\"type\":\"address\"},{\"internalType\":\"address\",\"name\":\"holder\",\"type\":\"address\"},{\"internalType\":\"uint256\",\"name\":\"projectId\",\"type\":\"uint256\"},{\"internalType\":\"uint256\",\"name\":\"rulesetId\",\"type\":\"uint256\"},{\"internalType\":\"uint256\",\"name\":\"redeemCount\",\"type\":\"uint256\"},{\"internalType\":\"uint256\",\"name\":\"totalSupply\",\"type\":\"uint256\"},{\"internalType\":\"struct JBTokenAmount\",\"name\":\"surplus\",\"type\":\"tuple\",\"components\":[{\"internalType\":\"address\",\"name\":\"token\",\"type\":\"address\"},{\"internalType\":\"uint256\",\"name\":\"value\",\"type\":\"uint256\"},{\"internalType\":\"uint256\",\"name\":\"decimals\",\"type\":\"uint256\"},{\"internalType\":\"uint256\",\"name\":\"currency\",\"type\":\"uint256\"}]},{\"internalType\":\"bool\",\"name\":\"useTotalSurplus\",\"type\":\"bool\"},{\"internalType\":\"uint256\",\"name\":\"redemptionRate\",\"type\":\"uint256\"},{\"internalType\":\"bytes\",\"name\":\"metadata\",\"type\":\"bytes\"}]}],\"stateMutability\":\"view\",\"type\":\"function\",\"name\":\"beforeRedeemRecordedWith\",\"outputs\":[{\"internalType\":\"uint256\",\"name\":\"\",\"type\":\"uint256\"},{\"internalType\":\"uint256\",\"name\":\"\",\"type\":\"uint256\"},{\"internalType\":\"uint256\",\"name\":\"\",\"type\":\"uint256\"},{\"internalType\":\"struct JBRedeemHookSpecification[]\",\"name\":\"specifications\",\"type\":\"tuple[]\",\"components\":[{\"internalType\":\"contract IJBRedeemHook\",\"name\":\"hook\",\"type\":\"address\"},{\"internalType\":\"uint256\",\"name\":\"amount\",\"type\":\"uint256\"},{\"internalType\":\"bytes\",\"name\":\"metadata\",\"type\":\"bytes\"}]}]},{\"inputs\":[{\"internalType\":\"uint256\",\"name\":\"revnetId\",\"type\":\"uint256\"}],\"stateMutability\":\"view\",\"type\":\"function\",\"name\":\"buybackHookOf\",\"outputs\":[{\"internalType\":\"contract IJBRulesetDataHook\",\"name\":\"buybackHook\",\"type\":\"address\"}]},{\"inputs\":[{\"internalType\":\"uint256\",\"name\":\"revnetId\",\"type\":\"uint256\"},{\"internalType\":\"bytes\",\"name\":\"encodedConfiguration\",\"type\":\"bytes\"},{\"internalType\":\"struct REVSuckerDeploymentConfig\",\"name\":\"suckerDeploymentConfiguration\",\"type\":\"tuple\",\"components\":[{\"internalType\":\"struct BPSuckerDeployerConfig[]\",\"name\":\"deployerConfigurations\",\"type\":\"tuple[]\",\"components\":[{\"internalType\":\"contract IBPSuckerDeployer\",\"name\":\"deployer\",\"type\":\"address\"},{\"internalType\":\"struct BPTokenMapping[]\",\"name\":\"mappings\",\"type\":\"tuple[]\",\"components\":[{\"internalType\":\"address\",\"name\":\"localToken\",\"type\":\"address\"},{\"internalType\":\"uint32\",\"name\":\"minGas\",\"type\":\"uint32\"},{\"internalType\":\"address\",\"name\":\"remoteToken\",\"type\":\"address\"},{\"internalType\":\"uint256\",\"name\":\"minBridgeAmount\",\"type\":\"uint256\"}]}]},{\"internalType\":\"bytes32\",\"name\":\"salt\",\"type\":\"bytes32\"}]}],\"stateMutability\":\"nonpayable\",\"type\":\"function\",\"name\":\"deploySuckersFor\"},{\"inputs\":[{\"internalType\":\"uint256\",\"name\":\"revnetId\",\"type\":\"uint256\"}],\"stateMutability\":\"view\",\"type\":\"function\",\"name\":\"exitDelayOf\",\"outputs\":[{\"internalType\":\"uint256\",\"name\":\"exitDelay\",\"type\":\"uint256\"}]},{\"inputs\":[{\"internalType\":\"uint256\",\"name\":\"revnetId\",\"type\":\"uint256\"},{\"internalType\":\"address\",\"name\":\"addr\",\"type\":\"address\"}],\"stateMutability\":\"view\",\"type\":\"function\",\"name\":\"hasMintPermissionFor\",\"outputs\":[{\"internalType\":\"bool\",\"name\":\"\",\"type\":\"bool\"}]},{\"inputs\":[{\"internalType\":\"address\",\"name\":\"forwarder\",\"type\":\"address\"}],\"stateMutability\":\"view\",\"type\":\"function\",\"name\":\"isTrustedForwarder\",\"outputs\":[{\"internalType\":\"bool\",\"name\":\"\",\"type\":\"bool\"}]},{\"inputs\":[{\"internalType\":\"uint256\",\"name\":\"revnetId\",\"type\":\"uint256\"},{\"internalType\":\"struct REVConfig\",\"name\":\"configuration\",\"type\":\"tuple\",\"components\":[{\"internalType\":\"struct REVDescription\",\"name\":\"description\",\"type\":\"tuple\",\"components\":[{\"internalType\":\"string\",\"name\":\"name\",\"type\":\"string\"},{\"internalType\":\"string\",\"name\":\"ticker\",\"type\":\"string\"},{\"internalType\":\"string\",\"name\":\"uri\",\"type\":\"string\"},{\"internalType\":\"bytes32\",\"name\":\"salt\",\"type\":\"bytes32\"}]},{\"internalType\":\"uint32\",\"name\":\"baseCurrency\",\"type\":\"uint32\"},{\"internalType\":\"address\",\"name\":\"initialSplitOperator\",\"type\":\"address\"},{\"internalType\":\"struct REVStageConfig[]\",\"name\":\"stageConfigurations\",\"type\":\"tuple[]\",\"components\":[{\"internalType\":\"uint40\",\"name\":\"startsAtOrAfter\",\"type\":\"uint40\"},{\"internalType\":\"struct REVMintConfig[]\",\"name\":\"mintConfigs\",\"type\":\"tuple[]\",\"components\":[{\"internalType\":\"uint256\",\"name\":\"chainId\",\"type\":\"uint256\"},{\"internalType\":\"uint256\",\"name\":\"count\",\"type\":\"uint256\"},{\"internalType\":\"address\",\"name\":\"beneficiary\",\"type\":\"address\"}]},{\"internalType\":\"uint16\",\"name\":\"splitRate\",\"type\":\"uint16\"},{\"internalType\":\"uint112\",\"name\":\"initialIssuanceRate\",\"type\":\"uint112\"},{\"internalType\":\"uint40\",\"name\":\"priceCeilingIncreaseFrequency\",\"type\":\"uint40\"},{\"internalType\":\"uint32\",\"name\":\"priceCeilingIncreasePercentage\",\"type\":\"uint32\"},{\"internalType\":\"uint16\",\"name\":\"priceFloorTaxIntensity\",\"type\":\"uint16\"}]}]},{\"internalType\":\"struct JBTerminalConfig[]\",\"name\":\"terminalConfigurations\",\"type\":\"tuple[]\",\"components\":[{\"internalType\":\"contract IJBTerminal\",\"name\":\"terminal\",\"type\":\"address\"},{\"internalType\":\"address[]\",\"name\":\"tokensToAccept\",\"type\":\"address[]\"}]},{\"internalType\":\"struct REVBuybackHookConfig\",\"name\":\"buybackHookConfiguration\",\"type\":\"tuple\",\"components\":[{\"internalType\":\"contract IJBBuybackHook\",\"name\":\"hook\",\"type\":\"address\"},{\"internalType\":\"struct REVBuybackPoolConfig[]\",\"name\":\"poolConfigurations\",\"type\":\"tuple[]\",\"components\":[{\"internalType\":\"address\",\"name\":\"token\",\"type\":\"address\"},{\"internalType\":\"uint24\",\"name\":\"fee\",\"type\":\"uint24\"},{\"internalType\":\"uint32\",\"name\":\"twapWindow\",\"type\":\"uint32\"},{\"internalType\":\"uint32\",\"name\":\"twapSlippageTolerance\",\"type\":\"uint32\"}]}]},{\"internalType\":\"struct REVSuckerDeploymentConfig\",\"name\":\"suckerDeploymentConfiguration\",\"type\":\"tuple\",\"components\":[{\"internalType\":\"struct BPSuckerDeployerConfig[]\",\"name\":\"deployerConfigurations\",\"type\":\"tuple[]\",\"components\":[{\"internalType\":\"contract IBPSuckerDeployer\",\"name\":\"deployer\",\"type\":\"address\"},{\"internalType\":\"struct BPTokenMapping[]\",\"name\":\"mappings\",\"type\":\"tuple[]\",\"components\":[{\"internalType\":\"address\",\"name\":\"localToken\",\"type\":\"address\"},{\"internalType\":\"uint32\",\"name\":\"minGas\",\"type\":\"uint32\"},{\"internalType\":\"address\",\"name\":\"remoteToken\",\"type\":\"address\"},{\"internalType\":\"uint256\",\"name\":\"minBridgeAmount\",\"type\":\"uint256\"}]}]},{\"internalType\":\"bytes32\",\"name\":\"salt\",\"type\":\"bytes32\"}]}],\"stateMutability\":\"nonpayable\",\"type\":\"function\",\"name\":\"launchRevnetFor\",\"outputs\":[{\"internalType\":\"uint256\",\"name\":\"\",\"type\":\"uint256\"}]},{\"inputs\":[{\"internalType\":\"uint256\",\"name\":\"revnetId\",\"type\":\"uint256\"},{\"internalType\":\"address\",\"name\":\"beneficiary\",\"type\":\"address\"}],\"stateMutability\":\"nonpayable\",\"type\":\"function\",\"name\":\"mintFor\"},{\"inputs\":[{\"internalType\":\"address\",\"name\":\"operator\",\"type\":\"address\"},{\"internalType\":\"address\",\"name\":\"\",\"type\":\"address\"},{\"internalType\":\"uint256\",\"name\":\"tokenId\",\"type\":\"uint256\"},{\"internalType\":\"bytes\",\"name\":\"data\",\"type\":\"bytes\"}],\"stateMutability\":\"view\",\"type\":\"function\",\"name\":\"onERC721Received\",\"outputs\":[{\"internalType\":\"bytes4\",\"name\":\"\",\"type\":\"bytes4\"}]},{\"inputs\":[{\"internalType\":\"uint256\",\"name\":\"revnetId\",\"type\":\"uint256\"}],\"stateMutability\":\"view\",\"type\":\"function\",\"name\":\"payHookSpecificationsOf\",\"outputs\":[{\"internalType\":\"struct JBPayHookSpecification[]\",\"name\":\"\",\"type\":\"tuple[]\",\"components\":[{\"internalType\":\"contract IJBPayHook\",\"name\":\"hook\",\"type\":\"address\"},{\"internalType\":\"uint256\",\"name\":\"amount\",\"type\":\"uint256\"},{\"internalType\":\"bytes\",\"name\":\"metadata\",\"type\":\"bytes\"}]}]},{\"inputs\":[{\"internalType\":\"uint256\",\"name\":\"revnetId\",\"type\":\"uint256\"},{\"internalType\":\"address\",\"name\":\"newSplitOperator\",\"type\":\"address\"}],\"stateMutability\":\"nonpayable\",\"type\":\"function\",\"name\":\"replaceSplitOperatorOf\"},{\"inputs\":[{\"internalType\":\"bytes4\",\"name\":\"interfaceId\",\"type\":\"bytes4\"}],\"stateMutability\":\"view\",\"type\":\"function\",\"name\":\"supportsInterface\",\"outputs\":[{\"internalType\":\"bool\",\"name\":\"\",\"type\":\"bool\"}]},{\"inputs\":[],\"stateMutability\":\"view\",\"type\":\"function\",\"name\":\"trustedForwarder\",\"outputs\":[{\"internalType\":\"address\",\"name\":\"\",\"type\":\"address\"}]}],\"devdoc\":{\"kind\":\"dev\",\"methods\":{\"beforePayRecordedWith((address,address,(address,uint256,uint256,uint256),uint256,uint256,address,uint256,uint256,bytes))\":{\"details\":\"Part of IJBFundingCycleDataSource.This implementation just sets this contract up to receive a `didPay` call.\",\"params\":{\"context\":\"The Juicebox standard network payment context. See\"},\"returns\":{\"hookSpecifications\":\"Amount to be sent to pay hooks instead of adding to local balance. Useful for auto-routing funds from a treasury as payment come in.\",\"weight\":\"The weight that network tokens should get minted relative to. This is useful for optionally customizing how many tokens are issued per payment.\"}},\"constructor\":{\"params\":{\"controller\":\"The controller that revnets are made from.\",\"suckerRegistry\":\"The registry that deploys and tracks each project's suckers.\",\"trustedForwarder\":\"The trusted forwarder for the ERC2771Context.\"}},\"deploySuckersFor(uint256,bytes,((address,(address,uint32,address,uint256)[])[],bytes32))\":{\"params\":{\"encodedConfiguration\":\"A bytes representation of the revnet's configuration.\",\"revnetId\":\"The ID of the revnet having new suckers deployed.\",\"suckerDeploymentConfiguration\":\"The specifics about the suckers being deployed.\"}},\"hasMintPermissionFor(uint256,address)\":{\"params\":{\"addr\":\"The address to check if has permissions.\",\"revnetId\":\"The ID of the revnet to check permissions for.\"},\"returns\":{\"_0\":\"flag The flag indicating if the address has permissions to mint on the revnet's behalf.\"}},\"isTrustedForwarder(address)\":{\"details\":\"Indicates whether any particular address is the trusted forwarder.\"},\"launchRevnetFor(uint256,((string,string,string,bytes32),uint32,address,(uint40,(uint256,uint256,address)[],uint16,uint112,uint40,uint32,uint16)[]),(address,address[])[],(address,(address,uint24,uint32,uint32)[]),((address,(address,uint32,address,uint256)[])[],bytes32))\":{\"params\":{\"buybackHookConfiguration\":\"Data used for setting up the buyback hook to use when determining the best price for new participants.\",\"configuration\":\"The data needed to deploy a basic revnet.\",\"revnetId\":\"The ID of the Juicebox project to turn into a revnet. Send 0 to deploy a new revnet.\",\"suckerDeploymentConfiguration\":\"Information about how this revnet relates to other's across chains.\",\"terminalConfigurations\":\"The terminals that the network uses to accept payments through.\"},\"returns\":{\"_0\":\"revnetId The ID of the newly created revnet.\"}},\"mintFor(uint256,address)\":{\"params\":{\"beneficiary\":\"The address to mint tokens to.\",\"revnetId\":\"The ID of the revnet to mint tokens from.\"}},\"onERC721Received(address,address,uint256,bytes)\":{\"details\":\"Make sure only mints can be received.\"},\"payHookSpecificationsOf(uint256)\":{\"params\":{\"revnetId\":\"The ID of the revnet to which the extensions apply.\"},\"returns\":{\"_0\":\"payHookSpecifications The pay hooks.\"}},\"replaceSplitOperatorOf(uint256,address)\":{\"params\":{\"newSplitOperator\":\"The address of the new split operator.\",\"revnetId\":\"The ID of the revnet having its operator replaced.\"}},\"supportsInterface(bytes4)\":{\"details\":\"See {IERC165-supportsInterface}.\",\"params\":{\"interfaceId\":\"The ID of the interface to check for adherence to.\"},\"returns\":{\"_0\":\"A flag indicating if the provided interface ID is supported.\"}},\"trustedForwarder()\":{\"details\":\"Returns the address of the trusted forwarder.\"}},\"version\":1},\"userdoc\":{\"kind\":\"user\",\"methods\":{\"CONTROLLER()\":{\"notice\":\"The controller that networks are made from.\"},\"EXIT_DELAY()\":{\"notice\":\"The amount of time from a sucker being deployed to when it can facilitate exits.\"},\"SUCKER_REGISTRY()\":{\"notice\":\"The registry that deploys and tracks each project's suckers.\"},\"allowedMintCountOf(uint256,uint256,address)\":{\"notice\":\"The specification of how many tokens are still allowed to be minted at each stage of a revnet.\"},\"beforePayRecordedWith((address,address,(address,uint256,uint256,uint256),uint256,uint256,address,uint256,uint256,bytes))\":{\"notice\":\"This function gets called when the revnet receives a payment.\"},\"beforeRedeemRecordedWith((address,address,uint256,uint256,uint256,uint256,(address,uint256,uint256,uint256),bool,uint256,bytes))\":{\"notice\":\"This function is never called, it needs to be included to adhere to the interface.\"},\"buybackHookOf(uint256)\":{\"notice\":\"The data hook that returns the correct values for the buyback hook of each network.\"},\"deploySuckersFor(uint256,bytes,((address,(address,uint32,address,uint256)[])[],bytes32))\":{\"notice\":\"Allows a revnet's split operator to deploy new suckers to the revnet after it's deployed.\"},\"exitDelayOf(uint256)\":{\"notice\":\"The time at which exits from a revnet become allowed.\"},\"hasMintPermissionFor(uint256,address)\":{\"notice\":\"Required by the IJBRulesetDataHook interfaces.\"},\"launchRevnetFor(uint256,((string,string,string,bytes32),uint32,address,(uint40,(uint256,uint256,address)[],uint16,uint112,uint40,uint32,uint16)[]),(address,address[])[],(address,(address,uint24,uint32,uint32)[]),((address,(address,uint32,address,uint256)[])[],bytes32))\":{\"notice\":\"Launch a basic revnet.\"},\"mintFor(uint256,address)\":{\"notice\":\"Mint tokens from a revnet to a specified beneficiary according to the rules set for the revnet.\"},\"payHookSpecificationsOf(uint256)\":{\"notice\":\"The pay hooks to include during payments to networks.\"},\"replaceSplitOperatorOf(uint256,address)\":{\"notice\":\"A revnet's operator can replace itself.\"},\"supportsInterface(bytes4)\":{\"notice\":\"Indicates if this contract adheres to the specified interface.\"}},\"version\":1}},\"settings\":{\"remappings\":[\"@arbitrum/=node_modules/@arbitrum/\",\"@bananapus/=node_modules/@bananapus/\",\"@chainlink/=node_modules/@chainlink/\",\"@croptop/=node_modules/@croptop/\",\"@eth-optimism/=node_modules/@eth-optimism/\",\"@exhausted-pigeon/=node_modules/@exhausted-pigeon/\",\"@offchainlabs/=node_modules/@offchainlabs/\",\"@openzeppelin/=node_modules/@openzeppelin/\",\"@prb/=node_modules/@prb/\",\"@scroll-tech/=node_modules/@scroll-tech/\",\"@sphinx-labs/contracts/=node_modules/@sphinx-labs/contracts/contracts/foundry/\",\"@uniswap/=node_modules/@uniswap/\",\"base64-sol/=node_modules/base64-sol/\",\"ds-test/=lib/forge-std/lib/ds-test/src/\",\"forge-std/=lib/forge-std/src/\",\"hardhat/=node_modules/hardhat/\",\"solmate/=node_modules/solmate/\",\"sphinx/=lib/sphinx/packages/contracts/contracts/forge-std/src/\"],\"optimizer\":{\"enabled\":true,\"runs\":1000},\"metadata\":{\"bytecodeHash\":\"ipfs\"},\"compilationTarget\":{\"src/REVBasicDeployer.sol\":\"REVBasicDeployer\"},\"evmVersion\":\"paris\",\"libraries\":{}},\"sources\":{\"node_modules/@bananapus/buyback-hook/src/interfaces/IJBBuybackHook.sol\":{\"keccak256\":\"0xbe5d7f3bf2e18b569676ba9194e248e6b1ed50022f5247b4f1fa124c91bfd418\",\"urls\":[\"bzz-raw://eb221d1570e8aad409c419b6a2f84351e818c3527f3f44b806cd64c84d7a8c86\",\"dweb:/ipfs/QmUPZstaKjPN7VTywg3Mt6bF75E53mQbmXhf3TxCggJbRR\"],\"license\":\"MIT\"},\"node_modules/@bananapus/buyback-hook/src/interfaces/external/IWETH9.sol\":{\"keccak256\":\"0x50083bcaca6c1a8d12c79116fab4f6d8cd452a510cb3f00c4a8bc3a54678efb7\",\"urls\":[\"bzz-raw://726f187112d0953c14bff8099a8c9ce1ead47eb25e90839f77b100feaaf16127\",\"dweb:/ipfs/QmTEnMENpLjcTQLMwz4kEUiQHfiTkaZT3TL37nQ8JiRYh5\"],\"license\":\"GPL-2.0-or-later\"},\"node_modules/@bananapus/core/src/enums/JBApprovalStatus.sol\":{\"keccak256\":\"0x61c69b6bac7d24b566d87cda23a77e4ca9cdb87200b106aba8534cb9a0973e33\",\"urls\":[\"bzz-raw://6a9ca7249de76f77a8252eefe6bd1b63d47952f25a2acfa2c8db967cdff4470c\",\"dweb:/ipfs/QmaxSxptRQNj8bNy96EreENmrnRWdKmhyihBcxyWzBX5BN\"],\"license\":\"MIT\"},\"node_modules/@bananapus/core/src/interfaces/IJBController.sol\":{\"keccak256\":\"0xe0b84058192f89e461c4b604388aa11a2f92f0f9969fb70fb3c18706d6f3e16b\",\"urls\":[\"bzz-raw://984fdcff63a17ccab65ff7723a628967e40965fcb4d47909cf8e314e8f044576\",\"dweb:/ipfs/QmaaHZWuaaH3oYxCDrip1rr4u4H1XtR3RcwwKAE73GAqkd\"],\"license\":\"MIT\"},\"node_modules/@bananapus/core/src/interfaces/IJBDirectory.sol\":{\"keccak256\":\"0x9cc380844aef60078ee47a61861e55a29c4a8c947efd556ebd36e6909f7b9d62\",\"urls\":[\"bzz-raw://9f5190ec8b6683d9781ee6e9eedcc91294753242748875d4a06349077e4cbaaf\",\"dweb:/ipfs/QmTQrPuXT9TCA4txwrperMeXSGvGxP8iokUK47f62F388i\"],\"license\":\"MIT\"},\"node_modules/@bananapus/core/src/interfaces/IJBDirectoryAccessControl.sol\":{\"keccak256\":\"0x1e67f56849320a46f834aaa9bd62b170ff8ada7b224b4a81136193740fa0be4d\",\"urls\":[\"bzz-raw://ea8fbcec44abfe49d137bcae129b67e5479d6b17879301f88534c8a7fab00be4\",\"dweb:/ipfs/QmT6wrtYX4GRpffHUzupNwYebJ1dqkkKZLEewWsoyunsqw\"],\"license\":\"MIT\"},\"node_modules/@bananapus/core/src/interfaces/IJBFundAccessLimits.sol\":{\"keccak256\":\"0xf5fd6bdd723b60d490ccbe22cdf1cfe43663d23e6ee48badcd1b71e3282cb16b\",\"urls\":[\"bzz-raw://fe692f0b843ea5fccdfcb68f4ec16e1c0add945bb74b303c9866342be0e31fbf\",\"dweb:/ipfs/QmSRmzpgp3DhNEhNDiLsSu7yEiTeywbzEFbwyGyDazjgKt\"],\"license\":\"MIT\"},\"node_modules/@bananapus/core/src/interfaces/IJBMigratable.sol\":{\"keccak256\":\"0xd69bd5aba01a68d82c303ef3adde47532abcace030a94296c3ea6988b401789c\",\"urls\":[\"bzz-raw://88f11a1c89899327746beba4fc830abf3ac2eb9c152c778e884a6eed6564971f\",\"dweb:/ipfs/QmTpKhSTVewpz7VyKcz6BJwH2LFKMwT7Qi5HNWmjEjwsdK\"],\"license\":\"MIT\"},\"node_modules/@bananapus/core/src/interfaces/IJBPayHook.sol\":{\"keccak256\":\"0x9438866782c652c2942f4d114e35f393cd3c8b0334abce8387eed90bca35e8b2\",\"urls\":[\"bzz-raw://cfd99daf57213f92325aad7d7d16e98476d38e870470e95ba01e3ae3cdecc95d\",\"dweb:/ipfs/QmUKKAVGf7ki8BHksr99tFcRW8APveeB5tNH63ctTbbCW8\"],\"license\":\"MIT\"},\"node_modules/@bananapus/core/src/interfaces/IJBPermissioned.sol\":{\"keccak256\":\"0x5b038d4dee116584e88b230920e56d48e135053e3f7e5642eaea14a775c1dad7\",\"urls\":[\"bzz-raw://19e43102f349fd4a1da1c0943ffb8f2950007fe4bb4bb7e8f74fc142575d091b\",\"dweb:/ipfs/QmXHAt4KzDTdDZgDDefEXH2WKi7NcfkJb9R7nxW5uDqsNp\"],\"license\":\"MIT\"},\"node_modules/@bananapus/core/src/interfaces/IJBPermissions.sol\":{\"keccak256\":\"0x18870e500edf0fbadc353e273a5574701fb80466376b908c65e7cc3f11044d4d\",\"urls\":[\"bzz-raw://352a47c45853aec80e7acf0d286ade3106eb4cb456776b28a3c2f3f1091bed90\",\"dweb:/ipfs/QmQeYd3YbudYZy2hfbfht9kwhxhw4tuuLKMEYy9UY6dcSy\"],\"license\":\"MIT\"},\"node_modules/@bananapus/core/src/interfaces/IJBProjectUriRegistry.sol\":{\"keccak256\":\"0x2799475228987e4f8334ac33d3935f759c9b8133db7383b4f622dde7a5dc0502\",\"urls\":[\"bzz-raw://d751731740f45df74eea48c9667e847ee2cddb2980ab4939c86bd17e6c6ed89b\",\"dweb:/ipfs/QmXW8SLTuhdUpfn7pRpdsYdcyuim8RTyagU37ULcj5UZhT\"],\"license\":\"MIT\"},\"node_modules/@bananapus/core/src/interfaces/IJBProjects.sol\":{\"keccak256\":\"0x735c2fb8f1fa827f054ee77f7a0ae4b312656217acb75b624d2c8fd9dc40151b\",\"urls\":[\"bzz-raw://ee7fc92299a8633a80693ae63ab494dcd125f1789487a54a39dc0e5696e5996f\",\"dweb:/ipfs/QmX7YJD4pS2XhgQb7p3JbBAXynT7YGPXcZe92BiWWRrsCL\"],\"license\":\"MIT\"},\"node_modules/@bananapus/core/src/interfaces/IJBRedeemHook.sol\":{\"keccak256\":\"0x8ab46fcd7d0e739661eb76056ad93ff99106f38420ef0b4eb97fa9f4bb71a68a\",\"urls\":[\"bzz-raw://0ef96fcb7ad26281d444d8e0c677b25114fdd63b1c172d477e030dce8ba53b62\",\"dweb:/ipfs/Qmcx1jRQuwU4pZFuLxsSsx4oMbRaDfktHrPnXextgbWc5m\"],\"license\":\"MIT\"},\"node_modules/@bananapus/core/src/interfaces/IJBRulesetApprovalHook.sol\":{\"keccak256\":\"0x592e95d159494421c6b1bcb362d0cee1df0132921697351304e9cd7af4fbd386\",\"urls\":[\"bzz-raw://5bebfd5fa67c1b6ea16fa2e76e9520e9dfe52a579f48dd94d0c2ec45f78ad178\",\"dweb:/ipfs/QmRUawEGtfYoYSHmHELGhvJoWuMsxLPKtqAXgsrb7fJboP\"],\"license\":\"MIT\"},\"node_modules/@bananapus/core/src/interfaces/IJBRulesetDataHook.sol\":{\"keccak256\":\"0x13b4b9f4b847f62442da1c1a59b399f8f201b31a28edb96aa5a8a78ad57c24d0\",\"urls\":[\"bzz-raw://4fcd00b77d0f40cf6d5ee6590b6ef4ee1f606e89ae4c4faed3710fb462108f8e\",\"dweb:/ipfs/QmeoE54DQ3eGw9EDXfN7aTMmEjubAtirahmytDijo6GSeE\"],\"license\":\"MIT\"},\"node_modules/@bananapus/core/src/interfaces/IJBRulesets.sol\":{\"keccak256\":\"0xd3f817d22ecbe24da63c552c069bf0c4fbbf3bcd5c3b5633002afd24aacf6882\",\"urls\":[\"bzz-raw://c1185aec0f6b6f0f4d93ffeeed0972ccf38420b00fe570b5e1838ed2b1f5db49\",\"dweb:/ipfs/QmWz36azGTFnjFXpFSh6BHt4nactgjtF64L3PeTqs4ZqSR\"],\"license\":\"MIT\"},\"node_modules/@bananapus/core/src/interfaces/IJBSplitHook.sol\":{\"keccak256\":\"0xeb8dfac7a4b81897a1c3b5d0d853a406bcff33720fb187d5ca5bb3dcc0ba3a12\",\"urls\":[\"bzz-raw://36aaeef6107cfe5b0127e063ea215aac7200f8af02e28a48e61111abd3254688\",\"dweb:/ipfs/QmQ8yQANXnhQCAWBGKsKCDsJ3A8hnTKNg5tyo79GfWXTcV\"],\"license\":\"MIT\"},\"node_modules/@bananapus/core/src/interfaces/IJBSplits.sol\":{\"keccak256\":\"0x92deeb9e22ce2aaafc608b85e9250b8ea2deed1ebf64b7442038b157b2bfe0e6\",\"urls\":[\"bzz-raw://08bf29f0c13c2e8be46065277f67e44ecaea960cb5474f13775eece0672566c2\",\"dweb:/ipfs/QmeGu9C6tuBjfmeizmpzptxgGmch6Mbtm34NFwZxzMvqc4\"],\"license\":\"MIT\"},\"node_modules/@bananapus/core/src/interfaces/IJBTerminal.sol\":{\"keccak256\":\"0x19dc9bf8cbdc8f13ee5da9dc3a87047eacb94a3fc19740a286c1f0bad2cc39ca\",\"urls\":[\"bzz-raw://0b05ae6fda9a85672508232fd992b8a5f5ffd8096622eeb12c8a7b3317eb3867\",\"dweb:/ipfs/QmNh9Quj37BXYGdTdcCD1Q58PchRsE5TLbEZep56qS3MpV\"],\"license\":\"MIT\"},\"node_modules/@bananapus/core/src/interfaces/IJBToken.sol\":{\"keccak256\":\"0x71b1f9c3a0edd41910f77396e0be2c65596571176d53eb87e887c3c0da56c0fb\",\"urls\":[\"bzz-raw://6e956f0582f4525e83d845ee9b4a89959abc4f821414f6accbbee5b38960482d\",\"dweb:/ipfs/QmbSvjgmCgnfVmcCTGu8XwrV1Rufsf3M8hB8unFq6fTMdH\"],\"license\":\"MIT\"},\"node_modules/@bananapus/core/src/interfaces/IJBTokenUriResolver.sol\":{\"keccak256\":\"0xfa5cb00dcd6085d1ef912d071fe73c63f9478a2cd0f9d8bddaf659b6af2d0967\",\"urls\":[\"bzz-raw://282e4e7c342d65f77cde0e9a08fcaf20ef5cf379c7a48b639842c0ffd0b2afb8\",\"dweb:/ipfs/QmbnN3PEQeZaXdPLT75V1J79kMg7KqSMru37RHrL3z8Yf2\"],\"license\":\"MIT\"},\"node_modules/@bananapus/core/src/interfaces/IJBTokens.sol\":{\"keccak256\":\"0x6fd67af915dd541d9547c8297aa9ae269690e4ee23531db43f021bcacec6076f\",\"urls\":[\"bzz-raw://2e5e11954e9ab2319fffccb6563f3db400b8f7760d4ffe2165048a02c9c37fa6\",\"dweb:/ipfs/QmbDXtV83dK8EfiTjsTRf55R2XqPZzDKcjtYbW8sxQ5CFm\"],\"license\":\"MIT\"},\"node_modules/@bananapus/core/src/libraries/JBConstants.sol\":{\"keccak256\":\"0x9d3a9a953f859d8ec79a599577f8972de6da7199cc1bfa7fdad017d4d722bcb4\",\"urls\":[\"bzz-raw://f151fcb53a8d2684eff8b9e56ac790bcbcadd8199a4fd4d17c5b224b22936722\",\"dweb:/ipfs/QmdAz1ZtCE8nTiC4AxQNLfJhnY3ndGum2Lbef7seKdvTdR\"],\"license\":\"MIT\"},\"node_modules/@bananapus/core/src/libraries/JBSplitGroupIds.sol\":{\"keccak256\":\"0x932ca2645d443f04f86c8ffb27b5c58c4fbdc7b5a145fba1d43f1db9bd488a0f\",\"urls\":[\"bzz-raw://fa412d2c5726a868a258cd518648726b0784ab7ac7566376b82ba09680f66227\",\"dweb:/ipfs/QmZvfjBt7PQzTWNzrhysyHBegUbbu4aY2xDzBGnwqMaqnF\"],\"license\":\"MIT\"},\"node_modules/@bananapus/core/src/structs/JBAccountingContext.sol\":{\"keccak256\":\"0x2907ff54d1e903cc7e0390dd88c3975884702dc2673642aacbe22b66560b56de\",\"urls\":[\"bzz-raw://a66a5381ce877b32f0e0058ceeaf843e9b6b2bc8af666c0c9f4a9d01091da004\",\"dweb:/ipfs/QmQynCetUr37dBkS1YwDS8evxuXGiqanW6THmeUxXtim8w\"],\"license\":\"MIT\"},\"node_modules/@bananapus/core/src/structs/JBAfterPayRecordedContext.sol\":{\"keccak256\":\"0xd26c3a774ff38be79064085970454fe2603a23a638c76270d5b1b3829206c3e8\",\"urls\":[\"bzz-raw://3b55dbe3bf1ef625b7ca04efab3de35406e6041d5b3d82c7265469c500e2b702\",\"dweb:/ipfs/QmUdBDo4Lt3mcsFcsXT2mqq3czFwZjQJFPLM89YA2VtD7k\"],\"license\":\"MIT\"},\"node_modules/@bananapus/core/src/structs/JBAfterRedeemRecordedContext.sol\":{\"keccak256\":\"0x521f5d23a36f0da72362cd84890cc867bd83baa8dc836ba6c5066d51dba2f163\",\"urls\":[\"bzz-raw://6cc461313286dde62d045d6288e87bae5032e035796326f5b1ed6218e58aa9da\",\"dweb:/ipfs/QmQS2AkQwf2ANQieDuaUnpJEdXChoLv4CCbZqHkfywYPSR\"],\"license\":\"MIT\"},\"node_modules/@bananapus/core/src/structs/JBBeforePayRecordedContext.sol\":{\"keccak256\":\"0x5b04e814da83c7e83ff892ab07eaad6abce6f7b85a75f8da9380e9fc3470bc81\",\"urls\":[\"bzz-raw://11c889aab993fce3e3cc2dedc15fc30dd367e7fef9b7b1bfd6a6a9f248781731\",\"dweb:/ipfs/QmVVtydCD1azeWhGLxA1hthxfLyKzMHZ1eVzCz3a3R5dLy\"],\"license\":\"MIT\"},\"node_modules/@bananapus/core/src/structs/JBBeforeRedeemRecordedContext.sol\":{\"keccak256\":\"0x73eadaf6827e82f6ccbe3a1e2b2b7fc6c59cef471f73335041b30ddcc000989d\",\"urls\":[\"bzz-raw://2f3ee84662eed565dbdaed406ef836fffaf55cccd417575578152e5085d0b1f2\",\"dweb:/ipfs/QmaJGFS7hxJsiUdKvbv5BKhSwceDEzKBnt7t5YeNWvYgMK\"],\"license\":\"MIT\"},\"node_modules/@bananapus/core/src/structs/JBCurrencyAmount.sol\":{\"keccak256\":\"0x12fe4b43f4824994624d4fe0abbd88c3fe7867fd637edb65c7f456dab27e2d6e\",\"urls\":[\"bzz-raw://8003a3e8f932cf891e86b827e67c9d31b0d34c2712e18c2bc333cfe5284ba6d5\",\"dweb:/ipfs/QmSoA6RsDcSnNzk6CB7KZtALkHmeSDAi2g6fg3TDmLDkWX\"],\"license\":\"MIT\"},\"node_modules/@bananapus/core/src/structs/JBFundAccessLimitGroup.sol\":{\"keccak256\":\"0x9fdaa8d017b72da25f583700a444a86849df053f7fb8eac874ec5139bcf651e5\",\"urls\":[\"bzz-raw://c8e44c49ee444a98424a0dbeb6897a76a0bf00d88a613f62ac2012afdac754ee\",\"dweb:/ipfs/QmdYkAiRi5bXM1YYNkc7BiqimHSFodMGn1cjHR5hcpm4xH\"],\"license\":\"MIT\"},\"node_modules/@bananapus/core/src/structs/JBPayHookSpecification.sol\":{\"keccak256\":\"0x955f0bfca97300b9e5927dc181753830ee362f83fa9ca32a90daade32aa0cfd5\",\"urls\":[\"bzz-raw://f517af1597c7c40f8d3da53f7a6684a3e162950a16559d6bf6ea3b727bb11546\",\"dweb:/ipfs/QmRWo2ZTYXmVZTzNJDYhsJNsEaHphjpUfx9eNz2cciyz86\"],\"license\":\"MIT\"},\"node_modules/@bananapus/core/src/structs/JBPermissionsData.sol\":{\"keccak256\":\"0x8f0f69a6ebf5f3704e3dfcb3712fb9d3f94ae7c1ab89bf3e37bad42a3e7a0487\",\"urls\":[\"bzz-raw://57b0c5e52843e2217082889ed47b4da3943e0da4590d5768dcebfe3edad4a6b8\",\"dweb:/ipfs/QmRz48vuWLw81kUP836rh1qzqWiJFGbksgRUA9xGEDNKTY\"],\"license\":\"MIT\"},\"node_modules/@bananapus/core/src/structs/JBRedeemHookSpecification.sol\":{\"keccak256\":\"0x673d16ee1a91bf8de3b37e57284e60451b70a9c2d748c9cdc7a151f5624af18f\",\"urls\":[\"bzz-raw://ceeb5e81effa0f076c5630c756dfcf1548d09f822b255a0a6ee01e54de8c8ae2\",\"dweb:/ipfs/QmSMoMNPRhPMnuJNvWa6S59XRfycGz9o2ApNp63bUW6TdX\"],\"license\":\"MIT\"},\"node_modules/@bananapus/core/src/structs/JBRuleset.sol\":{\"keccak256\":\"0x15b2bf3174d84846a91ccbf5a344dfb125b55ed9cf50102db8d6868844225189\",\"urls\":[\"bzz-raw://647416b025dbd941094db89cbc69f755c155bd6c87be3f322394ccc4a8e0442d\",\"dweb:/ipfs/QmTCL9xcHnxQ4t5AmCPoZvXDUPW5xhzhyyXYbkMdyg44au\"],\"license\":\"MIT\"},\"node_modules/@bananapus/core/src/structs/JBRulesetConfig.sol\":{\"keccak256\":\"0x0be470df286939259a6b98bc71459e661e81d56a58226d6a574ae1484f8f8e6c\",\"urls\":[\"bzz-raw://64592c279ba7518ac180c835a539897163f299a439065f2cc8aa54086a2c9ad7\",\"dweb:/ipfs/QmaEepVvFJdXcDBMMr7SQYjZSDJXPtCca95kQY5rZbra6U\"],\"license\":\"MIT\"},\"node_modules/@bananapus/core/src/structs/JBRulesetMetadata.sol\":{\"keccak256\":\"0xfea54c9f98416d2aa05309e7ff76967d6968a614850a1e33e48fde793ea8b514\",\"urls\":[\"bzz-raw://bf55386cbab90dbc1296b2b0cbfdc217a4500d67702e4a093a4c78bd127ecd5c\",\"dweb:/ipfs/QmTRq9mZrNSXu7oCZwti4JbBFrbY6A5msRqi9RbtL49NAj\"],\"license\":\"MIT\"},\"node_modules/@bananapus/core/src/structs/JBRulesetWithMetadata.sol\":{\"keccak256\":\"0x1bcfadf20488f6df65227f8d4d0fbf9b7539456a2389567f7fe3900d23289bc3\",\"urls\":[\"bzz-raw://0a15c399a71e5373f8c0484c6d6b83521eda31e063a2c53e4c5cec4e74550343\",\"dweb:/ipfs/QmQwi8zkjoTVXbK89NeETYimWCacTrNsesJdpLSvGdqMPX\"],\"license\":\"MIT\"},\"node_modules/@bananapus/core/src/structs/JBSplit.sol\":{\"keccak256\":\"0x1d40fa4f1c911a53b9139f3d44d27cb58fa5c5d2cd793c7a21ccf52b9e61f848\",\"urls\":[\"bzz-raw://9897d2c29fc65fe16e4eac0b7b8b6fd8ef0b0cc501986f7f0c3a78c4ec1dbb60\",\"dweb:/ipfs/QmXcHoVjCYWWCz4hm2KZ6JxtB4YNq7jmXa2evLkga59Xwq\"],\"license\":\"MIT\"},\"node_modules/@bananapus/core/src/structs/JBSplitGroup.sol\":{\"keccak256\":\"0xda7da6e88aac2906c7ea4027660088daf217edc632bebca4d72795aae8921564\",\"urls\":[\"bzz-raw://ae1939d17e94cb51484f31ce64cf0df990445a338fb9b38d39a7baf28275ae4a\",\"dweb:/ipfs/QmUhPnJiWnYhFdtLvZnrPopAdbYXxETpGjvxjPDignpTGY\"],\"license\":\"MIT\"},\"node_modules/@bananapus/core/src/structs/JBSplitHookContext.sol\":{\"keccak256\":\"0xfe34e6860b00ca93d71f44e72882281b2c57c31303151af05795c74cfdd2e51d\",\"urls\":[\"bzz-raw://08acab094888e9c929b6f6f972d89ddbb31e5867675e7e7c602d25fcb2c0f402\",\"dweb:/ipfs/QmPNdXM185cTyXQSodVr4JMviHx88jrWu7dipgkp9xTNgJ\"],\"license\":\"MIT\"},\"node_modules/@bananapus/core/src/structs/JBTerminalConfig.sol\":{\"keccak256\":\"0xd162f3821a1ccafbc8d7d108369e39ac3048445a8c7fe7a3fa97a6343f9eefaa\",\"urls\":[\"bzz-raw://82172ea0407b6d9edc45e408c7e8edb8e129adf49a94349fe3a5862da9bc044e\",\"dweb:/ipfs/QmWheF5Tjq2hcabnSzfYqdFHUA1YxYEdAPZaRw9N166V1d\"],\"license\":\"MIT\"},\"node_modules/@bananapus/core/src/structs/JBTokenAmount.sol\":{\"keccak256\":\"0x5cf0626b73a596c1e2da17c89ae039a7c0374310b060d48568d3b6c11fbe6180\",\"urls\":[\"bzz-raw://63348b50be95e2995409394a17caffc563a646f0972650a1230bf864fbd3219b\",\"dweb:/ipfs/QmZXZpS3SbFD5nWaCauf6AqbEhLURv5qsKHpThBvQgDU6u\"],\"license\":\"MIT\"},\"node_modules/@bananapus/permission-ids/src/JBPermissionIds.sol\":{\"keccak256\":\"0xf61109f6b217a80d5e5391f548fb6f2e451f7dbee3fabfc04cf17e88722203bc\",\"urls\":[\"bzz-raw://ac776ab1cd621c22bd7973471acdfa187f3abc659ad9a3ef6ed10b6447dfcf9c\",\"dweb:/ipfs/QmYLbaHt68qcuMzkiKpe96jMjiWUq1F3u8yMhxmZ3pnnWu\"],\"license\":\"MIT\"},\"node_modules/@bananapus/suckers/src/interfaces/IBPSucker.sol\":{\"keccak256\":\"0x2a3136ea5608c3e76b9f3114a470980f2a96427535aaccbd65dcc37d3a3dd0f8\",\"urls\":[\"bzz-raw://8cc997a396b183525892a0640ce03aee9fa3f15971266c826a308f6c74ff63f2\",\"dweb:/ipfs/QmZcoMkGbujqLm5B9v5urpFwUVg2uoG7ybPHX8RRxsygpe\"],\"license\":\"MIT\"},\"node_modules/@bananapus/suckers/src/interfaces/IBPSuckerDeployer.sol\":{\"keccak256\":\"0x7592282265ffd3000787eb20d1ccdd698cb6f2eb641dfddcd2b61978eb5105a2\",\"urls\":[\"bzz-raw://1f4ac54122cbd52758573f23856e243635be43aa974f234e1a5560eef9990794\",\"dweb:/ipfs/QmXHXr5CGh2hT9UMsLdCZNT4XmRMTf9SuBNRwTtyN9Z2Re\"],\"license\":\"MIT\"},\"node_modules/@bananapus/suckers/src/interfaces/IBPSuckerRegistry.sol\":{\"keccak256\":\"0xaed1d396dd1748585f4f16cd72519efadcb089ecd9b8a1786d3d353cffb6218a\",\"urls\":[\"bzz-raw://94de3a0692ac733ab780449431dea24e402b41c7c768fc7868bf0f259a65d80d\",\"dweb:/ipfs/QmR3STDP2YbPi7LTsAC3XSv2gT7GMD83krYeReFVDE4eKU\"],\"license\":\"UNLICENSED\"},\"node_modules/@bananapus/suckers/src/structs/BPSuckerDeployerConfig.sol\":{\"keccak256\":\"0x867e10bc73a07ab19cf5511d047dc885e3cfae58fc5f3441f6a5d3174afe6b78\",\"urls\":[\"bzz-raw://b8c3e72e57958bb2e2b8072ac6055804598c080a748fbc2f40a783575435809e\",\"dweb:/ipfs/QmbY7W6i5qAAj42EsQX8yt8M8nXArXByEGosnHWyxs4BE7\"],\"license\":\"MIT\"},\"node_modules/@bananapus/suckers/src/structs/BPTokenMapping.sol\":{\"keccak256\":\"0x84865bda925cdc9a608cbbfc487619acba391f98ae12bbbfdbc5779d617a17d9\",\"urls\":[\"bzz-raw://3bbc1fdd38feaf64fd4914bddb62cda7e5b8ee0f046a0eac8cfcb15f9493bcc5\",\"dweb:/ipfs/QmXgAx7sr1M8r71YrSeQJGAB1uhvdxpQyS633UgJvLCQfb\"],\"license\":\"MIT\"},\"node_modules/@openzeppelin/contracts/metatx/ERC2771Context.sol\":{\"keccak256\":\"0x98256cf37b71a69b2f5a8a6fe975ea03590dff703102bd141a830f94e8adebf6\",\"urls\":[\"bzz-raw://6251fe1f6a1e45e6d619d150c123afc88b8646b38ee26a136efa9a6988a31d3f\",\"dweb:/ipfs/QmeXDT85wSZdP31wkz3ah3KhponCiksJLP5o2LR5e1JxcK\"],\"license\":\"MIT\"},\"node_modules/@openzeppelin/contracts/token/ERC20/IERC20.sol\":{\"keccak256\":\"0xc6a8ff0ea489379b61faa647490411b80102578440ab9d84e9a957cc12164e70\",\"urls\":[\"bzz-raw://0ea104e577e63faea3b69c415637e99e755dcbf64c5833d7140c35a714d6d90c\",\"dweb:/ipfs/Qmau6x4Ns9XdyynRCNNp3RhLqijJjFm7z5fyZazfYFGYdq\"],\"license\":\"MIT\"},\"node_modules/@openzeppelin/contracts/token/ERC721/IERC721.sol\":{\"keccak256\":\"0x5ef46daa3b58ef2702279d514780316efaa952915ee1aa3396f041ee2982b0b4\",\"urls\":[\"bzz-raw://2f8f2a76e23b02fc69e8cd24c3cb47da6c7af3a2d6c3a382f8ac25c6e094ade7\",\"dweb:/ipfs/QmPV4ZS4tPVv4mTCf9ejyZ1ai57EEibDRj7mN2ARDCLV5n\"],\"license\":\"MIT\"},\"node_modules/@openzeppelin/contracts/token/ERC721/IERC721Receiver.sol\":{\"keccak256\":\"0x7f7a26306c79a65fb8b3b6c757cd74660c532cd8a02e165488e30027dd34ca49\",\"urls\":[\"bzz-raw://d01e0b2b837ee2f628545e54d8715b49c7ef2befd08356c2e7f6c50dde8a1c22\",\"dweb:/ipfs/QmWBAn6y2D1xgftci97Z3qR9tQnkvwQpYwFwkTvDMvqU4i\"],\"license\":\"MIT\"},\"node_modules/@openzeppelin/contracts/utils/Context.sol\":{\"keccak256\":\"0x493033a8d1b176a037b2cc6a04dad01a5c157722049bbecf632ca876224dd4b2\",\"urls\":[\"bzz-raw://6a708e8a5bdb1011c2c381c9a5cfd8a9a956d7d0a9dc1bd8bcdaf52f76ef2f12\",\"dweb:/ipfs/Qmax9WHBnVsZP46ZxEMNRQpLQnrdE4dK8LehML1Py8FowF\"],\"license\":\"MIT\"},\"node_modules/@openzeppelin/contracts/utils/introspection/ERC165.sol\":{\"keccak256\":\"0x9e8778b14317ba9e256c30a76fd6c32b960af621987f56069e1e819c77c6a133\",\"urls\":[\"bzz-raw://1777404f1dcd0fac188e55a288724ec3c67b45288e49cc64723e95e702b49ab8\",\"dweb:/ipfs/QmZFdC626GButBApwDUvvTnUzdinevC3B24d7yyh57XkiA\"],\"license\":\"MIT\"},\"node_modules/@openzeppelin/contracts/utils/introspection/IERC165.sol\":{\"keccak256\":\"0x4296879f55019b23e135000eb36896057e7101fb7fb859c5ef690cf14643757b\",\"urls\":[\"bzz-raw://87b3541437c8c443ccd36795e56a338ed12855eec17f8da624511b8d1a7e14df\",\"dweb:/ipfs/QmeJQCtZrQjtJLr6u7ZHWeH3pBnjtLWzvRrKViAi7UZqxL\"],\"license\":\"MIT\"},\"node_modules/@uniswap/v3-core/contracts/interfaces/IUniswapV3Pool.sol\":{\"keccak256\":\"0x4e64844c56061cd90e0a80de73534a9166704c43eed579eb83f90bc2780ce968\",\"urls\":[\"bzz-raw://cba4fab5cebdddf644b901994a7f0f52b98885d4c56012f4dc51d52c2bf9de0e\",\"dweb:/ipfs/QmVyyrRmqXrAiapewWunRVgiPVFJHpH2hKiE1py1svMSNV\"],\"license\":\"GPL-2.0-or-later\"},\"node_modules/@uniswap/v3-core/contracts/interfaces/callback/IUniswapV3SwapCallback.sol\":{\"keccak256\":\"0x3f485fb1a44e8fbeadefb5da07d66edab3cfe809f0ac4074b1e54e3eb3c4cf69\",\"urls\":[\"bzz-raw://095ce0626b41318c772b3ebf19d548282607f6a8f3d6c41c13edfbd5370c8652\",\"dweb:/ipfs/QmVDZfJJ89UUCE1hMyzqpkZAtQ8jUsBgZNE5AMRG7RzRFS\"],\"license\":\"GPL-2.0-or-later\"},\"node_modules/@uniswap/v3-core/contracts/interfaces/pool/IUniswapV3PoolActions.sol\":{\"keccak256\":\"0x9453dd0e7442188667d01d9b65de3f1e14e9511ff3e303179a15f6fc267f7634\",\"urls\":[\"bzz-raw://982f4328f956c3e60e67501e759eb292ac487f76460c774c50e9ae4fcc92aae5\",\"dweb:/ipfs/QmRnzEDsaqtd9PJEVcgQi7p5aV5pMSvRUoGZJAdwFUJxgZ\"],\"license\":\"GPL-2.0-or-later\"},\"node_modules/@uniswap/v3-core/contracts/interfaces/pool/IUniswapV3PoolDerivedState.sol\":{\"keccak256\":\"0xe603ac5b17ecdee73ba2b27efdf386c257a19c14206e87eee77e2017b742d9e5\",\"urls\":[\"bzz-raw://8febc9bdb399a4d94bb89f5377732652e2400e4a8dee808201ade6848f9004e7\",\"dweb:/ipfs/QmaKDqYYFU4d2W2iN77aDHptfbFmYZRrMYXHeGpJmM8C1c\"],\"license\":\"GPL-2.0-or-later\"},\"node_modules/@uniswap/v3-core/contracts/interfaces/pool/IUniswapV3PoolErrors.sol\":{\"keccak256\":\"0xf80abf13fb1fafc127ba4e792f240dd8ea7c8c893978cdfd8439c27fae9a037b\",\"urls\":[\"bzz-raw://b04fc72a656bbf3631e9c2e67b9870a2d9d235185e833fe050e9606e6816a9aa\",\"dweb:/ipfs/QmUcz4bkEkJ9pwzFu1C3n97hBQ3st9U6qTAqCdyFwddKco\"],\"license\":\"GPL-2.0-or-later\"},\"node_modules/@uniswap/v3-core/contracts/interfaces/pool/IUniswapV3PoolEvents.sol\":{\"keccak256\":\"0x8071514d0fe5d17d6fbd31c191cdfb703031c24e0ece3621d88ab10e871375cd\",\"urls\":[\"bzz-raw://d0b571930cc7488b1d546a7e9cea7c52d8b3c4e207da657ed0e0db7343b8cd03\",\"dweb:/ipfs/QmaGK6vVwB95QSTR1XMYvrh7ivYAYZxi3fD7v6VMA4jZ39\"],\"license\":\"GPL-2.0-or-later\"},\"node_modules/@uniswap/v3-core/contracts/interfaces/pool/IUniswapV3PoolImmutables.sol\":{\"keccak256\":\"0xf6e5d2cd1139c4c276bdbc8e1d2b256e456c866a91f1b868da265c6d2685c3f7\",\"urls\":[\"bzz-raw://b99c8c9ae8e27ee6559e5866bea82cbc9ffc8247f8d15b7422a4deb287d4d047\",\"dweb:/ipfs/QmfL8gaqt3ffAnm6nVj5ksuNpLygXuL3xq5VBqrkwC2JJ3\"],\"license\":\"GPL-2.0-or-later\"},\"node_modules/@uniswap/v3-core/contracts/interfaces/pool/IUniswapV3PoolOwnerActions.sol\":{\"keccak256\":\"0x759b78a2918af9e99e246dc3af084f654e48ef32bb4e4cb8a966aa3dcaece235\",\"urls\":[\"bzz-raw://64144fb96e1c7fdba87305acadb98a198d26a3d46c097cb3a666e567f6f29735\",\"dweb:/ipfs/QmUnWVwN9FKB9uV5Pr8YfLpWZnYM2DENnRMaadZ492JS9u\"],\"license\":\"GPL-2.0-or-later\"},\"node_modules/@uniswap/v3-core/contracts/interfaces/pool/IUniswapV3PoolState.sol\":{\"keccak256\":\"0x44fa2ce1182f6c2f6bead3d1737804bf7e112252ae86e0f2e92f9b8249603f43\",\"urls\":[\"bzz-raw://54154e8665b98d65f5dc91b256551852cb47882180b501b260657122d207c0ea\",\"dweb:/ipfs/QmcfemK1A2PXYrWB5SBFGERpMCderbFRb8BtTzQDj1sUBp\"],\"license\":\"GPL-2.0-or-later\"},\"src/REVBasicDeployer.sol\":{\"keccak256\":\"0xae31c96931a89f4ab21c5cc8f42f2eaa4b408488dc69a0ade1a3cbc606f7787a\",\"urls\":[\"bzz-raw://17d971afe678ad21b584b980c14dd1e27c0bb34df3fc108bfd8fc881021d6acf\",\"dweb:/ipfs/Qma15QSrBcgYdQ8jyx945Wxb7cjYhXz52pJiaPpz28f6Uf\"],\"license\":\"MIT\"},\"src/interfaces/IREVBasicDeployer.sol\":{\"keccak256\":\"0x5a377ec7c7727bb310ddaec1ab6aba24e151bfa8d24e68deeacf99ca3364cd1a\",\"urls\":[\"bzz-raw://4b968fff3d97b8ff69bb2154dc1b150807bb5aa7ad59611e29b43acc20b97a9c\",\"dweb:/ipfs/QmZUV3JATApSe1ALJrezvuaCyknWCqdUKkCV4wJ2FmkRAV\"],\"license\":null},\"src/structs/REVBuybackHookConfig.sol\":{\"keccak256\":\"0xdae5ecff2ff2a04c0aab17093f023b2161994dc0e6e2adc5006d36d157eb09aa\",\"urls\":[\"bzz-raw://5e0eed08e652290f59c0d18565df21be3fc7b33ca3fa41c393461472479e4a7f\",\"dweb:/ipfs/QmfZcbmdvYDQwEE4eesGpcxdojAm9BhJ81fdkxjX9LU9Sa\"],\"license\":\"MIT\"},\"src/structs/REVBuybackPoolConfig.sol\":{\"keccak256\":\"0x83f2a3875a8b1955856b72bfddd90c0cc2fbe26697f1dd4e13b33c0319049a14\",\"urls\":[\"bzz-raw://e1e37d0eb626221b6a8774a155a3799dc5cf0b497d26263ef323ed768d61a0dc\",\"dweb:/ipfs/QmcSPDAaPemjh3a1XycV4qDMJwctnuwiKe3wXrRUjotKAB\"],\"license\":\"MIT\"},\"src/structs/REVConfig.sol\":{\"keccak256\":\"0x877258466138485e7766cf46171fc7c8fb78736281eeb90bfb7a11c4cd702f4e\",\"urls\":[\"bzz-raw://4544bbe5da29126dd1000a74caae7388c5022a77d70556af9938361a7037be32\",\"dweb:/ipfs/QmNxZVdwgV63pTriMemT3UouK3s3ZC9sVVudA93xAvh1c3\"],\"license\":\"MIT\"},\"src/structs/REVDescription.sol\":{\"keccak256\":\"0x40bebc53d50dbfb261882f51c7667d7263193e8fc48897b9384c2ca259046c1b\",\"urls\":[\"bzz-raw://24f98bc7ef12f53afa326a266c69683e24501405f72566b7ca7e8dad242e1fe1\",\"dweb:/ipfs/QmNkLsCwhx5pTuMmJLwUNJdPrGjEi3H9JnTX2s9GsoUTAa\"],\"license\":\"MIT\"},\"src/structs/REVMintConfig.sol\":{\"keccak256\":\"0xdf4edcbc85faf4cf98db8f49d09a2840dfa6fe876a3ad0b85b27d4f9b497008d\",\"urls\":[\"bzz-raw://c28b8f8b4178d6bfc5bccd300d48d923052cd304ef536e343e00415d5c7ddfe1\",\"dweb:/ipfs/Qmcp8YMy7HN3mpYw4RESmy1BnN6yHrApZigxZeXSFW6eGD\"],\"license\":\"MIT\"},\"src/structs/REVStageConfig.sol\":{\"keccak256\":\"0x5618a55f3e3f2bc5fd280c330c2200029de624bb710774fd8ee2759dbc2c841a\",\"urls\":[\"bzz-raw://446373029a5c429438ae1a8035bb383b028fd29c44fadfa49befc929cd5b65be\",\"dweb:/ipfs/Qme5SnPVGm7ysmFTkc9c6p7iFo1BVYYkMoK2CTA6RkF6wS\"],\"license\":\"MIT\"},\"src/structs/REVSuckerDeploymentConfig.sol\":{\"keccak256\":\"0xed607665da0efa1a1662a7e094095f336bef2d6694f79e5d8158cacf73c34dac\",\"urls\":[\"bzz-raw://c8c68b67a28a7dfc060596cfb98b7fc05ad0c9b61482f60a04810bc68cc0b8e3\",\"dweb:/ipfs/QmeLH5z8J6DDjRQXfJi4BoMmQqY4zTjERYfSzu8Uypkawp\"],\"license\":\"MIT\"}},\"version\":1}",
			"args": [
				"0xFF7e1C600b8af88De885A7c68C3e737401082423",
				"0x0c86d0204C6eCE28122daec16C613D3B69941845",
				"0xB2b5841DBeF766d4b521221732F9B618fCf34A87"
			],
			"bytecode": "0x60e06040523480156200001157600080fd5b50604051620048be380380620048be8339810160408190526200003491620000bc565b6001600160a01b0390811660805291821660a0521660c0526003805460018181018355600083905260117fc2575a0e9e593c00f959f8c92f12db2869c3395a3b0502d05e2516446f71f85b92830155825480820184556019908301558254908101909255600691015562000110565b6001600160a01b0381168114620000b957600080fd5b50565b600080600060608486031215620000d257600080fd5b8351620000df81620000a3565b6020850151909350620000f281620000a3565b60408501519092506200010581620000a3565b809150509250925092565b60805160a05160c0516146f2620001cc600039600081816103430152818161096b01528181610a700152818161100501528181611a600152611b860152600081816103900152818161041f01528181610ba101528181610d4801528181610e19015281816110dd01528181611256015281816113d1015281816115a901528181611676015281816117860152818161184e0152818161191b0152611a9b0152600081816101ee015281816102c5015261265401526146f26000f3fe608060405234801561001057600080fd5b50600436106101365760003560e01c80637da0a877116100b2578063ad62f1ca11610081578063bb19940211610066578063bb19940214610365578063eb5ad9d914610378578063ee0fc1211461038b57600080fd5b8063ad62f1ca14610329578063b5d255331461033e57600080fd5b80637da0a877146102c35780639ab68726146102e95780639d82ba25146102fc578063aaf320d71461030657600080fd5b8063572b6c05116101095780635c0a7cee116100ee5780635c0a7cee1461024f578063677ce0881461026f5780637249a7731461028257600080fd5b8063572b6c05146101de5780635a31dc131461021e57600080fd5b806301ffc9a71461013b578063150b7a021461016357806343681e151461018f5780634c4ffc71146101bd575b600080fd5b61014e610149366004612849565b6103b2565b60405190151581526020015b60405180910390f35b6101766101713660046128a2565b61041b565b6040516001600160e01b0319909116815260200161015a565b6101af61019d366004612941565b60016020526000908152604090205481565b60405190815260200161015a565b6101d06101cb36600461295a565b6104e7565b60405161015a929190612a67565b61014e6101ec366004612a88565b7f00000000000000000000000000000000000000000000000000000000000000006001600160a01b0390811691161490565b6101af61022c366004612aa5565b600260209081526000938452604080852082529284528284209052825290205481565b61026261025d366004612941565b6107eb565b60405161015a9190612ade565b61014e61027d366004612af1565b61090f565b6102ab610290366004612941565b6000602081905290815260409020546001600160a01b031681565b6040516001600160a01b03909116815260200161015a565b7f00000000000000000000000000000000000000000000000000000000000000006102ab565b6101af6102f73660046132ef565b610a44565b6101af62278d0081565b61031961031436600461349a565b610a60565b60405161015a94939291906134d6565b61033c610337366004612af1565b610b9d565b005b6102ab7f000000000000000000000000000000000000000000000000000000000000000081565b61033c610373366004613576565b610e17565b61033c610386366004612af1565b6110ce565b6102ab7f000000000000000000000000000000000000000000000000000000000000000081565b60006001600160e01b031982167f81c03c2e00000000000000000000000000000000000000000000000000000000148061041557507f01ffc9a7000000000000000000000000000000000000000000000000000000006001600160e01b03198316145b92915050565b60007f00000000000000000000000000000000000000000000000000000000000000006001600160a01b031663293c49996040518163ffffffff1660e01b8152600401602060405180830381865afa15801561047b573d6000803e3d6000fd5b505050506040513d601f19601f8201168201806040525081019061049f91906135fa565b6001600160a01b0316336001600160a01b0316146104bc57600080fd5b507f150b7a020000000000000000000000000000000000000000000000000000000095945050505050565b60c081013560009081526020819052604081205460609081906001600160a01b031680156105a3576040517f4c4ffc710000000000000000000000000000000000000000000000000000000081526001600160a01b03821690634c4ffc71906105549088906004016136c2565b600060405180830381865afa158015610571573d6000803e3d6000fd5b505050506040513d6000823e601f3d908101601f191682016040526105999190810190613793565b90945091506105ac565b84610120013593505b815160c086013560009081526005602090815260408083208054825181850281018501909352808352941515949192909190849084015b828210156106c7576000848152602090819020604080516060810182526003860290920180546001600160a01b0316835260018101549383019390935260028301805492939291840191610636906138db565b80601f0160208091040260200160405190810160405280929190818152602001828054610662906138db565b80156106af5780601f10610684576101008083540402835291602001916106af565b820191906000526020600020905b81548152906001019060200180831161069257829003601f168201915b505050505081525050815260200190600101906105e3565b505050509050600081519050826106df5760006106e2565b60015b6106ef9060ff168261392b565b67ffffffffffffffff81111561070757610707612b21565b60405190808252806020026020018201604052801561075457816020015b604080516060808201835260008083526020830152918101919091528152602001906001900390816107255790505b50955060005b818110156107a1578281815181106107745761077461393e565b602002602001015187828151811061078e5761078e61393e565b602090810291909101015260010161075a565b5082156107e157846000815181106107bb576107bb61393e565b60200260200101518682815181106107d5576107d561393e565b60200260200101819052505b5050505050915091565b606060056000838152602001908152602001600020805480602002602001604051908101604052809291908181526020016000905b82821015610904576000848152602090819020604080516060810182526003860290920180546001600160a01b0316835260018101549383019390935260028301805492939291840191610873906138db565b80601f016020809104026020016040519081016040528092919081815260200182805461089f906138db565b80156108ec5780601f106108c1576101008083540402835291602001916108ec565b820191906000526020600020905b8154815290600101906020018083116108cf57829003601f168201915b50505050508152505081526020019060010190610820565b505050509050919050565b6000828152602081905260408120546001600160a01b039081169083160361093957506001610415565b6040517f3d12cb87000000000000000000000000000000000000000000000000000000008152600481018490526000907f00000000000000000000000000000000000000000000000000000000000000006001600160a01b031690633d12cb8790602401600060405180830381865afa1580156109ba573d6000803e3d6000fd5b505050506040513d6000823e601f3d908101601f191682016040526109e29190810190613954565b805190915060005b81811015610a3857828181518110610a0457610a0461393e565b60200260200101516001600160a01b0316856001600160a01b031603610a305760019350505050610415565b6001016109ea565b50600095945050505050565b6000610a568686868630600088611588565b9695505050505050565b6000808060606001600160a01b037f0000000000000000000000000000000000000000000000000000000000000000166383db9d0160408701803590610aa99060208a01612a88565b6040516001600160e01b031960e085901b16815260048101929092526001600160a01b03166024820152604401602060405180830381865afa158015610af3573d6000803e3d6000fd5b505050506040513d601f19601f82011682018060405250810190610b1791906139ee565b15610b345761271085608001358660a00135935093509350610b96565b604080860135600090815260016020522054421015610b7f576040517f04c3b3cd00000000000000000000000000000000000000000000000000000000815260040160405180910390fd5b84610160013585608001358660a001359350935093505b9193509193565b60007f00000000000000000000000000000000000000000000000000000000000000006001600160a01b031663d4a1b4b16040518163ffffffff1660e01b8152600401602060405180830381865afa158015610bfd573d6000803e3d6000fd5b505050506040513d601f19601f82011682018060405250810190610c2191906135fa565b6001600160a01b03166343a266c2846040518263ffffffff1660e01b8152600401610c4e91815260200190565b61012060405180830381865afa158015610c6c573d6000803e3d6000fd5b505050506040513d601f19601f82011682018060405250810190610c909190613a1b565b6000848152600260208181526040808420828601805186528184528286206001600160a01b038a16808852908552838720548b8852958552905186529083528185209085529091528220829055919250819003610ced5750505050565b6040517fc7fb92de00000000000000000000000000000000000000000000000000000000815260048101859052602481018290526001600160a01b03848116604483015260a06064830152600060a4830181905260848301527f0000000000000000000000000000000000000000000000000000000000000000169063c7fb92de9060c4016020604051808303816000875af1158015610d91573d6000803e3d6000fd5b505050506040513d601f19601f82011682018060405250810190610db59190613a9b565b50826001600160a01b03168260200151857f598baf7bf150ca2f42be9e9f8f55e81d45f5715c3ff22bf46d697fabec7f31d68433604051610e099291909182526001600160a01b0316602082015260400190565b60405180910390a450505050565b7f00000000000000000000000000000000000000000000000000000000000000006001600160a01b0316631f47ce696040518163ffffffff1660e01b8152600401602060405180830381865afa158015610e75573d6000803e3d6000fd5b505050506040513d601f19601f82011682018060405250810190610e9991906135fa565b6001600160a01b031663f434c9146040518163ffffffff1660e01b8152600401602060405180830381865afa158015610ed6573d6000803e3d6000fd5b505050506040513d601f19601f82011682018060405250810190610efa91906135fa565b6001600160a01b0316630f5932f0610f10611cb4565b3086610f1b88611cc3565b6040518563ffffffff1660e01b8152600401610f3a9493929190613af0565b602060405180830381865afa158015610f57573d6000803e3d6000fd5b505050506040513d601f19601f82011682018060405250810190610f7b91906139ee565b610f98576040516331fb21f360e01b815260040160405180910390fd5b6000610fa2611cb4565b838360200151604051602001610fba93929190613b22565b60408051601f1981840301815290829052805160209091012083517f2f3f50e00000000000000000000000000000000000000000000000000000000083529092506001600160a01b037f00000000000000000000000000000000000000000000000000000000000000001691632f3f50e09161103c9188918691600401613c2c565b6000604051808303816000875af115801561105b573d6000803e3d6000fd5b505050506040513d6000823e601f3d908101601f191682016040526110839190810190613954565b5080847f755ecfca2f6e66af8868551556bf7931740a7062db8e0882f4c322fdb0bb3f6085856110b1611cb4565b6040516110c093929190613c74565b60405180910390a350505050565b60006110d983611cc3565b90507f00000000000000000000000000000000000000000000000000000000000000006001600160a01b0316631f47ce696040518163ffffffff1660e01b8152600401602060405180830381865afa158015611139573d6000803e3d6000fd5b505050506040513d601f19601f8201168201806040525081019061115d91906135fa565b6001600160a01b031663f434c9146040518163ffffffff1660e01b8152600401602060405180830381865afa15801561119a573d6000803e3d6000fd5b505050506040513d601f19601f820116820180604052508101906111be91906135fa565b6001600160a01b0316630f5932f06111d4611cb4565b3086856040518563ffffffff1660e01b81526004016111f69493929190613af0565b602060405180830381865afa158015611213573d6000803e3d6000fd5b505050506040513d601f19601f8201168201806040525081019061123791906139ee565b611254576040516331fb21f360e01b815260040160405180910390fd5b7f00000000000000000000000000000000000000000000000000000000000000006001600160a01b0316631f47ce696040518163ffffffff1660e01b8152600401602060405180830381865afa1580156112b2573d6000803e3d6000fd5b505050506040513d601f19601f820116820180604052508101906112d691906135fa565b6001600160a01b031663f434c9146040518163ffffffff1660e01b8152600401602060405180830381865afa158015611313573d6000803e3d6000fd5b505050506040513d601f19601f8201168201806040525081019061133791906135fa565b6001600160a01b03166305d2912e306040518060600160405280611359611cb4565b6001600160a01b0316815260208082018990526040805160008152918201815291820152516001600160e01b031960e085901b16815261139d929190600401613cb3565b600060405180830381600087803b1580156113b757600080fd5b505af11580156113cb573d6000803e3d6000fd5b505050507f00000000000000000000000000000000000000000000000000000000000000006001600160a01b0316631f47ce696040518163ffffffff1660e01b8152600401602060405180830381865afa15801561142d573d6000803e3d6000fd5b505050506040513d601f19601f8201168201806040525081019061145191906135fa565b6001600160a01b031663f434c9146040518163ffffffff1660e01b8152600401602060405180830381865afa15801561148e573d6000803e3d6000fd5b505050506040513d601f19601f820116820180604052508101906114b291906135fa565b6001600160a01b03166305d2912e306040518060600160405280866001600160a01b03168152602001878152602001858152506040518363ffffffff1660e01b8152600401611502929190613cb3565b600060405180830381600087803b15801561151c57600080fd5b505af1158015611530573d6000803e3d6000fd5b50505050816001600160a01b0316837f0329d6a81434b130c72eb65eea0e32e429dc1277b4aad86ec86454aefb618451611568611cb4565b6040516001600160a01b03909116815260200160405180910390a3505050565b6000806000806115998a8888611e7b565b9250925092508a600003611674577f00000000000000000000000000000000000000000000000000000000000000006001600160a01b0316630634bae9308c6000015160400151868d8f60000151602001516040516020016115fb9190613cf6565b6040516020818303038152906040526040518663ffffffff1660e01b815260040161162a959493929190614140565b6020604051808303816000875af1158015611649573d6000803e3d6000fd5b505050506040513d601f19601f8201168201806040525081019061166d9190613a9b565b9a50611732565b7f00000000000000000000000000000000000000000000000000000000000000006001600160a01b0316631ea7bc8c8c858c8e60000151602001516040516020016116bf9190613cf6565b6040516020818303038152906040526040518563ffffffff1660e01b81526004016116ed94939291906141a8565b6020604051808303816000875af115801561170c573d6000803e3d6000fd5b505050506040513d601f19601f820116820180604052508101906117309190613a9b565b505b8080611762575089606001516000815181106117505761175061393e565b60200260200101516020015151600014155b156117845761177462278d004261392b565b60008c8152600160205260409020555b7f00000000000000000000000000000000000000000000000000000000000000006001600160a01b031663581781918c8c60000151600001518d60000151602001518e60000151606001516040518563ffffffff1660e01b81526004016117ee94939291906141e7565b6020604051808303816000875af115801561180d573d6000803e3d6000fd5b505050506040513d601f19601f8201168201806040525081019061183191906135fa565b5087516001600160a01b03161561184c5761184c8b89612242565b7f00000000000000000000000000000000000000000000000000000000000000006001600160a01b031663dd5f214a8c600061188b8e604001516123ad565b6040518463ffffffff1660e01b81526004016118a993929190614224565b600060405180830381600087803b1580156118c357600080fd5b505af11580156118d7573d6000803e3d6000fd5b505050506118e58b8b6124eb565b600060405180606001604052808c604001516001600160a01b031681526020018d81526020016119148e611cc3565b81525090507f00000000000000000000000000000000000000000000000000000000000000006001600160a01b031663f434c9146040518163ffffffff1660e01b8152600401602060405180830381865afa158015611977573d6000803e3d6000fd5b505050506040513d601f19601f8201168201806040525081019061199b91906135fa565b6001600160a01b03166305d2912e30836040518363ffffffff1660e01b81526004016119c8929190613cb3565b600060405180830381600087803b1580156119e257600080fd5b505af11580156119f6573d6000803e3d6000fd5b506000925060019150611a069050565b604051908082528060200260200182016040528015611a2f578160200160208202803683370190505b509050601c81600081518110611a4757611a4761393e565b60200260200101818152505060405180606001604052807f00000000000000000000000000000000000000000000000000000000000000006001600160a01b031681526020018e81526020018281525091507f00000000000000000000000000000000000000000000000000000000000000006001600160a01b031663f434c9146040518163ffffffff1660e01b8152600401602060405180830381865afa158015611af7573d6000803e3d6000fd5b505050506040513d601f19601f82011682018060405250810190611b1b91906135fa565b6001600160a01b03166305d2912e30846040518363ffffffff1660e01b8152600401611b48929190613cb3565b600060405180830381600087803b158015611b6257600080fd5b505af1158015611b76573d6000803e3d6000fd5b50505050602087015115611c56577f00000000000000000000000000000000000000000000000000000000000000006001600160a01b0316632f3f50e08e611bbc611cb4565b878b60200151604051602001611bd493929190613b22565b60408051601f198184030181529082905280516020909101208b516001600160e01b031960e086901b168352611c0d9392600401613c2c565b6000604051808303816000875af1158015611c2c573d6000803e3d6000fd5b505050506040513d6000823e601f3d908101601f19168201604052611c549190810190613954565b505b8c7fb00ad164380340ee6f18ec73024e25d390aa777602a69ede3c2da4d2b6cbc8418d8d8d8b8a8a8a611c87611cb4565b604051611c9b9897969594939291906144ab565b60405180910390a2509a9b9a5050505050505050505050565b6000611cbe612644565b905090565b606060006003805480602002602001604051908101604052809291908181526020018280548015611d1357602002820191906000526020600020905b815481526020019060010190808311611cff575b50508351600088815260046020908152604080832080548251818502810185019093528083529899509397929650945091925090830182828015611d7657602002820191906000526020600020905b815481526020019060010190808311611d62575b50508351939450611d8d925083915085905061392b565b67ffffffffffffffff811115611da557611da5612b21565b604051908082528060200260200182016040528015611dce578160200160208202803683370190505b50945060005b83811015611e1b57848181518110611dee57611dee61393e565b6020026020010151868281518110611e0857611e0861393e565b6020908102919091010152600101611dd4565b5060005b81811015611e7157828181518110611e3957611e3961393e565b6020026020010151868286611e4e919061392b565b81518110611e5e57611e5e61393e565b6020908102919091010152600101611e1f565b5050505050919050565b6060838101515181906000908067ffffffffffffffff811115611ea057611ea0612b21565b604051908082528060200260200182016040528015611f9257816020015b611f7f6040805161010080820183526000808352602080840182905283850182905260608085018390526080808601849052865161020081018852848152928301849052958201839052810182905293840181905260a084810182905260c0850182905260e0850182905291840181905261012084018190526101408401819052610160840181905261018084018190526101a084018190526101c084018190526101e0840152909190820190815260200160608152602001606081525090565b815260200190600190039081611ebe5790505b509350611f9e876126b9565b6040805160e08101825260008082526060602083018190529282018190529181018290526080810182905260a0810182905260c081018290529194505b828110156122365788606001518181518110611ff957611ff961393e565b60200260200101519150816000015164ffffffffff168682815181106120215761202161393e565b60200260200101516000018181525050816080015164ffffffffff1686828151811061204f5761204f61393e565b6020026020010151602001818152505081606001516dffffffffffffffffffffffffffff168682815181106120865761208661393e565b602002602001015160400181815250508160a0015163ffffffff168682815181106120b3576120b361393e565b6020026020010151606001818152505060008682815181106120d7576120d761393e565b6020026020010151608001906001600160a01b031690816001600160a01b031681525050604051806102000160405280836040015161ffff1681526020018360c0015161ffff1661271061212b91906145fe565b815260208b81015163ffffffff16908201526000604082018190526060820181905260016080830181905260a0830182905260c0830182905260e083018290526101008301829052610120830182905261014083018290526101608301526101808201526001600160a01b038a166101a08201526101c00188905286518790839081106121ba576121ba61393e565b602002602001015160a001819052508060001480156121e05750815164ffffffffff1615155b80156121f6575042826000015164ffffffffff16105b1561220057600193505b8461220b83836126f3565b60405160200161221c929190614611565b60408051601f198184030181529190529450600101611fdb565b50505093509350939050565b602081810151516040805160808101825260008082529381018490529081018390526060810183905290915b82811015612361578360200151818151811061228c5761228c61393e565b6020908102919091018101518551918101516040808301516060840151845192517f7b621d3a000000000000000000000000000000000000000000000000000000008152600481018c905262ffffff909416602485015263ffffffff91821660448501521660648301526001600160a01b039081166084830152919450911690637b621d3a9060a4016020604051808303816000875af1158015612334573d6000803e3d6000fd5b505050506040513d601f19601f8201168201806040525081019061235891906135fa565b5060010161226e565b5050905160009283526020839052604090922080547fffffffffffffffffffffffff0000000000000000000000000000000000000000166001600160a01b039093169290921790915550565b604080516001808252818301909252606091816020015b6040805180820190915260008152606060208201528152602001906001900390816123c457505060408051600180825281830190925291925060009190602082015b6040805160c08101825260008082526020808301829052928201819052606082018190526080820181905260a082015282526000199092019101816124065790505090506040518060c00160405280600015158152602001633b9aca00815260200160008152602001846001600160a01b031681526020016000815260200160006001600160a01b0316815250816000815181106124a6576124a661393e565b602002602001018190525060405180604001604052806001815260200182815250826000815181106124da576124da61393e565b602002602001018190525050919050565b606080820151516040805160e0810182526000808252602082018590529181018290529283018190526080830181905260a0830181905260c08301529060005b8281101561263d57836060015181815181106125495761254961393e565b602002602001015191506000826020015151905061258a6040518060600160405280600081526020016000815260200160006001600160a01b031681525090565b60005b8281101561263257846020015181815181106125ab576125ab61393e565b602002602001015191504682600001510361262a5760208083015160008a815260029092526040822090916125e0874261392b565b8152602001908152602001600020600084604001516001600160a01b03166001600160a01b031681526020019081526020016000206000828254612624919061392b565b90915550505b60010161258d565b50505060010161252b565b5050505050565b6000366014336001600160a01b037f0000000000000000000000000000000000000000000000000000000000000000161480156126815750808210155b156126b15760003661269383856145fe565b61269e928290614640565b6126a79161466a565b60601c9250505090565b339250505090565b602080820151825180518184015160609283015160405193956126dd95940161469d565b6040516020818303038152906040529050919050565b6060811580156127095750825164ffffffffff16155b61271b57825164ffffffffff1661271d565b425b6040808501516060860151608087015160a088015160c0890151945161278e96959060200195865261ffff94851660208701526dffffffffffffffffffffffffffff93909316604086015264ffffffffff91909116606085015263ffffffff1660808401521660a082015260c00190565b60408051601f1981840301815291905260208401515190915060005b8181101561280457826127d9866020015183815181106127cc576127cc61393e565b602002602001015161280c565b6040516020016127ea929190614611565b60408051601f1981840301815291905292506001016127aa565b505092915050565b60608160000151826040015183602001516040516020016126dd939291909283526001600160a01b03919091166020830152604082015260600190565b60006020828403121561285b57600080fd5b81356001600160e01b03198116811461287357600080fd5b9392505050565b6001600160a01b038116811461288f57600080fd5b50565b803561289d8161287a565b919050565b6000806000806000608086880312156128ba57600080fd5b85356128c58161287a565b945060208601356128d58161287a565b935060408601359250606086013567ffffffffffffffff808211156128f957600080fd5b818801915088601f83011261290d57600080fd5b81358181111561291c57600080fd5b89602082850101111561292e57600080fd5b9699959850939650602001949392505050565b60006020828403121561295357600080fd5b5035919050565b60006020828403121561296c57600080fd5b813567ffffffffffffffff81111561298357600080fd5b8201610180818503121561287357600080fd5b60005b838110156129b1578181015183820152602001612999565b50506000910152565b600081518084526129d2816020860160208601612996565b601f01601f19169290920160200192915050565b600082825180855260208086019550808260051b84010181860160005b84811015612a5a57858303601f19018952815180516001600160a01b031684528481015185850152604090810151606091850182905290612a46818601836129ba565b9a86019a9450505090830190600101612a03565b5090979650505050505050565b828152604060208201526000612a8060408301846129e6565b949350505050565b600060208284031215612a9a57600080fd5b81356128738161287a565b600080600060608486031215612aba57600080fd5b83359250602084013591506040840135612ad38161287a565b809150509250925092565b60208152600061287360208301846129e6565b60008060408385031215612b0457600080fd5b823591506020830135612b168161287a565b809150509250929050565b634e487b7160e01b600052604160045260246000fd5b6040516060810167ffffffffffffffff81118282101715612b5a57612b5a612b21565b60405290565b60405160e0810167ffffffffffffffff81118282101715612b5a57612b5a612b21565b6040805190810167ffffffffffffffff81118282101715612b5a57612b5a612b21565b6040516080810167ffffffffffffffff81118282101715612b5a57612b5a612b21565b604051610120810167ffffffffffffffff81118282101715612b5a57612b5a612b21565b604051601f8201601f1916810167ffffffffffffffff81118282101715612c1657612c16612b21565b604052919050565b600067ffffffffffffffff821115612c3857612c38612b21565b50601f01601f191660200190565b6000612c59612c5484612c1e565b612bed565b9050828152838383011115612c6d57600080fd5b828260208301376000602084830101529392505050565b600082601f830112612c9557600080fd5b61287383833560208501612c46565b803563ffffffff8116811461289d57600080fd5b600067ffffffffffffffff821115612cd257612cd2612b21565b5060051b60200190565b803564ffffffffff8116811461289d57600080fd5b600082601f830112612d0257600080fd5b81356020612d12612c5483612cb8565b82815260609283028501820192828201919087851115612d3157600080fd5b8387015b85811015612a5a5781818a031215612d4d5760008081fd5b612d55612b37565b813581528582013586820152604080830135612d708161287a565b908201528452928401928101612d35565b803561ffff8116811461289d57600080fd5b80356dffffffffffffffffffffffffffff8116811461289d57600080fd5b600082601f830112612dc257600080fd5b81356020612dd2612c5483612cb8565b82815260059290921b84018101918181019086841115612df157600080fd5b8286015b84811015612ed357803567ffffffffffffffff80821115612e165760008081fd5b9088019060e0828b03601f1901811315612e305760008081fd5b612e38612b60565b612e43888501612cdc565b815260408085013584811115612e595760008081fd5b612e678e8b83890101612cf1565b8a8401525060609350612e7b848601612d81565b908201526080612e8c858201612d93565b8483015260a09350612e9f848601612cdc565b9082015260c0612eb0858201612ca4565b84830152612ebf838601612d81565b908201528652505050918301918301612df5565b509695505050505050565b600082601f830112612eef57600080fd5b81356020612eff612c5483612cb8565b828152600592831b8501820192828201919087851115612f1e57600080fd5b8387015b85811015612a5a57803567ffffffffffffffff80821115612f435760008081fd5b908901906040828c03601f1901811315612f5d5760008081fd5b612f65612b83565b88840135612f728161287a565b81528382013583811115612f865760008081fd5b8085019450508c603f850112612f9e57600092508283fd5b888401359250612fb0612c5484612cb8565b83815292861b8401820192898101908e851115612fcd5760008081fd5b948301945b84861015612ff75785359350612fe78461287a565b838252948a0194908a0190612fd2565b828b0152508752505050928401928401612f22565b6000604080838503121561301f57600080fd5b613027612b83565b915082356130348161287a565b825260208381013567ffffffffffffffff81111561305157600080fd5b8401601f8101861361306257600080fd5b8035613070612c5482612cb8565b81815260079190911b8201830190838101908883111561308f57600080fd5b928401925b8284101561310e576080848a0312156130ad5760008081fd5b6130b5612ba6565b84356130c08161287a565b81528486013562ffffff811681146130d85760008081fd5b818701526130e7858801612ca4565b8782015260606130f8818701612ca4565b9082015282526080939093019290840190613094565b808588015250505050505092915050565b60006040828403121561313157600080fd5b613139612b83565b905067ffffffffffffffff808335111561315257600080fd5b8235830184601f82011261316557600080fd5b613172612c548235612cb8565b81358082526020808301929160051b8401018781111561319157600080fd5b602084015b818110156132d65785813511156131ac57600080fd5b803585016040818b03601f190112156131c457600080fd5b6131cc612b83565b6131d9602083013561287a565b6020820135815287604083013511156131f157600080fd5b6040820135820191508a603f83011261320957600080fd5b602082013561321a612c5482612cb8565b81815260079190911b83016040019060208101908d83111561323b57600080fd5b6040850194505b828510156132b7576080858f03121561325a57600080fd5b613262612ba6565b61326c863561287a565b8535815261327c60208701612ca4565b602082015261328e604087013561287a565b604086013560408201526060860135606082015280835250602082019150608085019450613242565b8060208501525050508086525050602084019350602081019050613196565b5050808552505050506020820135602082015292915050565b600080600080600060a0868803121561330757600080fd5b85359450602086013567ffffffffffffffff8082111561332657600080fd5b908701906080828a03121561333a57600080fd5b613342612ba6565b82358281111561335157600080fd5b83016080818c03121561336357600080fd5b61336b612ba6565b81358481111561337a57600080fd5b6133868d828501612c84565b82525060208201358481111561339b57600080fd5b6133a78d828501612c84565b6020830152506040820135848111156133bf57600080fd5b6133cb8d828501612c84565b6040830152506060820135606082015280835250506133ec60208401612ca4565b60208201526133fd60408401612892565b604082015260608301358281111561341457600080fd5b6134208b828601612db1565b6060830152509550604088013591508082111561343c57600080fd5b61344889838a01612ede565b9450606088013591508082111561345e57600080fd5b61346a89838a0161300c565b9350608088013591508082111561348057600080fd5b5061348d8882890161311f565b9150509295509295909350565b6000602082840312156134ac57600080fd5b813567ffffffffffffffff8111156134c357600080fd5b82016101a0818503121561287357600080fd5b60006080820186835260208681850152604086604086015260606080606087015283875180865260a08801915060a08160051b890101955084890160005b8281101561356457898803609f19018452815180516001600160a01b0316895287810151888a0152860151868901869052613551868a01826129ba565b9850509286019290860190600101613514565b50959c9b505050505050505050505050565b60008060006060848603121561358b57600080fd5b83359250602084013567ffffffffffffffff808211156135aa57600080fd5b818601915086601f8301126135be57600080fd5b6135cd87833560208501612c46565b935060408601359150808211156135e357600080fd5b506135f08682870161311f565b9150509250925092565b60006020828403121561360c57600080fd5b81516128738161287a565b80356136228161287a565b6001600160a01b031682526020818101359083015260408082013590830152606090810135910152565b6000808335601e1984360301811261366357600080fd5b830160208101925035905067ffffffffffffffff81111561368357600080fd5b80360382131561369257600080fd5b9250929050565b81835281816020850137506000828201602090810191909152601f909101601f19169091010190565b602081526136e3602082016136d684612892565b6001600160a01b03169052565b60006136f160208401612892565b6001600160a01b0381166040840152506137116060830160408501613617565b60c083013560e083015261010060e084013581840152613732818501612892565b905061012061374b818501836001600160a01b03169052565b610140915080850135828501525061016081850135818501526137708186018661364c565b610180868101529250905061378a6101a085018383613699565b95945050505050565b60008060408084860312156137a757600080fd5b8351925060208085015167ffffffffffffffff808211156137c757600080fd5b818701915087601f8301126137db57600080fd5b81516137e9612c5482612cb8565b81815260059190911b8301840190848101908a83111561380857600080fd5b8585015b838110156138c95780518581111561382357600080fd5b86016060818e03601f1901121561383a5760008081fd5b613842612b37565b8882015161384f8161287a565b8152818a01518982015260608201518781111561386c5760008081fd5b8083019250508d603f8301126138825760008081fd5b88820151613892612c5482612c1e565b8181528f8c8386010111156138a75760008081fd5b6138b6828c83018e8701612996565b828c01525084525091860191860161380c565b50809750505050505050509250929050565b600181811c908216806138ef57607f821691505b60208210810361390f57634e487b7160e01b600052602260045260246000fd5b50919050565b634e487b7160e01b600052601160045260246000fd5b8082018082111561041557610415613915565b634e487b7160e01b600052603260045260246000fd5b6000602080838503121561396757600080fd5b825167ffffffffffffffff81111561397e57600080fd5b8301601f8101851361398f57600080fd5b805161399d612c5482612cb8565b81815260059190911b820183019083810190878311156139bc57600080fd5b928401925b828410156139e35783516139d48161287a565b825292840192908401906139c1565b979650505050505050565b600060208284031215613a0057600080fd5b8151801515811461287357600080fd5b805161289d8161287a565b60006101208284031215613a2e57600080fd5b613a36612bc9565b825181526020830151602082015260408301516040820152606083015160608201526080830151608082015260a083015160a082015260c083015160c0820152613a8260e08401613a10565b60e0820152610100928301519281019290925250919050565b600060208284031215613aad57600080fd5b5051919050565b60008151808452602080850194506020840160005b83811015613ae557815187529582019590820190600101613ac9565b509495945050505050565b60006001600160a01b03808716835280861660208401525083604083015260806060830152610a566080830184613ab4565b6bffffffffffffffffffffffff198460601b16815260008351613b4c816014850160208801612996565b60149201918201929092526034019392505050565b600082825180855260208086019550808260051b8401018186016000805b85811015613c1e57868403601f19018a52825180516001600160a01b03908116865290860151604087870181905281518188018190529188019290916060919082890190875b81811015613c065786518051851684528c81015163ffffffff168d8501528681015185168785015285015185840152958b0195608090920191600101613bc5565b50509d89019d97505050938601935050600101613b7f565b509198975050505050505050565b83815282602082015260606040820152600061378a6060830184613b61565b6000815160408452613c606040850182613b61565b602093840151949093019390935250919050565b606081526000613c8760608301866129ba565b8281036020840152613c998186613c4b565b9150506001600160a01b0383166040830152949350505050565b60006001600160a01b03808516835260406020840152808451166040840152506020830151606083015260408301516060608084015261378a60a0840182613ab4565b7f2400000000000000000000000000000000000000000000000000000000000000815260008251613d2e816001850160208701612996565b7f207265766e6574206465706c6f796564000000000000000000000000000000006001939091019283015250601101919050565b8051825260208101516020830152604081015160408301526060810151613d8d606084018215159052565b506080810151613da1608084018215159052565b5060a0810151613db560a084018215159052565b5060c0810151613dc960c084018215159052565b5060e0810151613ddd60e084018215159052565b5061010081810151151590830152610120808201511515908301526101408082015115159083015261016080820151151590830152610180808201511515908301526101a0808201511515908301526101c0808201516001600160a01b0316908301526101e090810151910152565b600082825180855260208086019550808260051b8401018186016000805b85811015613c1e57868403601f19018a52825180518552850151604086860181905281518187018190529187019160609081880190865b81811015613efb5785518051151584528b8101518c8501528581015186850152848101516001600160a01b03908116868601526080808301519086015260a0918201511690840152948a019460c090920191600101613ea1565b50509c88019c965050509285019250600101613e6a565b60008151808452602080850194506020840160005b83811015613ae5578151805188528301518388015260409096019590820190600101613f27565b600082825180855260208086019550808260051b84010181860160005b84811015612a5a57601f19868403018952815160806001600160a01b0380835116865280878401511687870152506040808301518282880152613fb083880182613f12565b9250505060608083015192508582038187015250613fce8183613f12565b9a86019a9450505090830190600101613f6b565b600082825180855260208086019550808260051b84010181860160005b84811015612a5a57858303601f19018952815180518452848101518585015260408082015190850152606080820151908501526080808201516001600160a01b03169085015260a0808201516102e0919061405c82880182613d62565b505060c0820151816102a087015261407682870182613e4c565b91505060e082015191508481036102c08601526140938183613f4e565b9a86019a9450505090830190600101613fff565b600082825180855260208086019550808260051b8401018186016000805b85811015613c1e57868403601f19018a52825180516001600160a01b03908116865290860151604087870181905281519087018190529087019160608701918591905b8083101561412a57845182168452938901939289019260019290920191614108565b5050509a86019a945050918401916001016140c5565b6001600160a01b038616815260a06020820152600061416260a08301876129ba565b82810360408401526141748187613fe2565b9050828103606084015261418881866140a7565b9050828103608084015261419c81856129ba565b98975050505050505050565b8481526080602082015260006141c16080830186613fe2565b82810360408401526141d381866140a7565b905082810360608401526139e381856129ba565b84815260806020820152600061420060808301866129ba565b828103604084015261421281866129ba565b91505082606083015295945050505050565b600060608083018684526020868186015260406060604087015282875180855260808801915060808160051b890101945083890160005b8281101561430257898703607f190184528151805188528601518688018690528051868901819052908701906000908a8a01905b808310156142ed5783518051151583528a8101518b840152898101518a8401528c8101516001600160a01b039081168e8501526080808301519085015260a0918201511690830152928901926001929092019160c09091019061428f565b5098505050928501929085019060010161425b565b50949b9a5050505050505050505050565b600082825180855260208086019550808260051b8401018186016000805b85811015613c1e57868403601f19018a528251805164ffffffffff1685528581015160e0878701819052815190870181905261010087019188019085905b808210156143ae578251805185528a8101518b8601526040908101516001600160a01b031690850152606090930192918901916001919091019061436f565b50505060408281015161ffff908116918801919091526060808401516dffffffffffffffffffffffffffff169088015260808084015164ffffffffff169088015260a08084015163ffffffff169088015260c0928301511691909501529884019891840191600101614331565b600060408084016001600160a01b038085511686526020808601516040828901528381518086526060955060608a019150838301925060005b8181101561449c5783518051871684528581015162ffffff16868501528881015163ffffffff9081168a86015290880151168784015292840192608090920191600101614454565b50909998505050505050505050565b60006101008083528a516080828501528051915060806101808501526144d56102008501836129ba565b9150602081015161017f1980868503016101a08701526144f584836129ba565b93506040830151915080868503016101c08701525061451483826129ba565b92505060608101516101e08501525060208b015161453b61012085018263ffffffff169052565b5060408b01516001600160a01b031661014084015260608b015183820360ff190161016085015261456c8282614313565b9150508281036020840152614581818b6140a7565b90508281036040840152614595818a61441b565b905082810360608401526145a98189613c4b565b905082810360808401526145bd8188613fe2565b905082810360a08401526145d181876129ba565b9150506145e260c083018515159052565b6001600160a01b03831660e08301529998505050505050505050565b8181038181111561041557610415613915565b60008351614623818460208801612996565b835190830190614637818360208801612996565b01949350505050565b6000808585111561465057600080fd5b8386111561465d57600080fd5b5050820193919092039150565b6bffffffffffffffffffffffff1981358181169160148510156128045760149490940360031b84901b1690921692915050565b63ffffffff8516815260806020820152600061420060808301866129ba56fea2646970667358221220844bc11784b8a228fc9f48bad938cff5e97bcf7540df37f75446c07f5f172d4564736f6c63430008170033",
			"deployedBytecode": "0x608060405234801561001057600080fd5b50600436106101365760003560e01c80637da0a877116100b2578063ad62f1ca11610081578063bb19940211610066578063bb19940214610365578063eb5ad9d914610378578063ee0fc1211461038b57600080fd5b8063ad62f1ca14610329578063b5d255331461033e57600080fd5b80637da0a877146102c35780639ab68726146102e95780639d82ba25146102fc578063aaf320d71461030657600080fd5b8063572b6c05116101095780635c0a7cee116100ee5780635c0a7cee1461024f578063677ce0881461026f5780637249a7731461028257600080fd5b8063572b6c05146101de5780635a31dc131461021e57600080fd5b806301ffc9a71461013b578063150b7a021461016357806343681e151461018f5780634c4ffc71146101bd575b600080fd5b61014e610149366004612849565b6103b2565b60405190151581526020015b60405180910390f35b6101766101713660046128a2565b61041b565b6040516001600160e01b0319909116815260200161015a565b6101af61019d366004612941565b60016020526000908152604090205481565b60405190815260200161015a565b6101d06101cb36600461295a565b6104e7565b60405161015a929190612a67565b61014e6101ec366004612a88565b7f000000000000000000000000b2b5841dbef766d4b521221732f9b618fcf34a876001600160a01b0390811691161490565b6101af61022c366004612aa5565b600260209081526000938452604080852082529284528284209052825290205481565b61026261025d366004612941565b6107eb565b60405161015a9190612ade565b61014e61027d366004612af1565b61090f565b6102ab610290366004612941565b6000602081905290815260409020546001600160a01b031681565b6040516001600160a01b03909116815260200161015a565b7f000000000000000000000000b2b5841dbef766d4b521221732f9b618fcf34a876102ab565b6101af6102f73660046132ef565b610a44565b6101af62278d0081565b61031961031436600461349a565b610a60565b60405161015a94939291906134d6565b61033c610337366004612af1565b610b9d565b005b6102ab7f0000000000000000000000000c86d0204c6ece28122daec16c613d3b6994184581565b61033c610373366004613576565b610e17565b61033c610386366004612af1565b6110ce565b6102ab7f000000000000000000000000ff7e1c600b8af88de885a7c68c3e73740108242381565b60006001600160e01b031982167f81c03c2e00000000000000000000000000000000000000000000000000000000148061041557507f01ffc9a7000000000000000000000000000000000000000000000000000000006001600160e01b03198316145b92915050565b60007f000000000000000000000000ff7e1c600b8af88de885a7c68c3e7374010824236001600160a01b031663293c49996040518163ffffffff1660e01b8152600401602060405180830381865afa15801561047b573d6000803e3d6000fd5b505050506040513d601f19601f8201168201806040525081019061049f91906135fa565b6001600160a01b0316336001600160a01b0316146104bc57600080fd5b507f150b7a020000000000000000000000000000000000000000000000000000000095945050505050565b60c081013560009081526020819052604081205460609081906001600160a01b031680156105a3576040517f4c4ffc710000000000000000000000000000000000000000000000000000000081526001600160a01b03821690634c4ffc71906105549088906004016136c2565b600060405180830381865afa158015610571573d6000803e3d6000fd5b505050506040513d6000823e601f3d908101601f191682016040526105999190810190613793565b90945091506105ac565b84610120013593505b815160c086013560009081526005602090815260408083208054825181850281018501909352808352941515949192909190849084015b828210156106c7576000848152602090819020604080516060810182526003860290920180546001600160a01b0316835260018101549383019390935260028301805492939291840191610636906138db565b80601f0160208091040260200160405190810160405280929190818152602001828054610662906138db565b80156106af5780601f10610684576101008083540402835291602001916106af565b820191906000526020600020905b81548152906001019060200180831161069257829003601f168201915b505050505081525050815260200190600101906105e3565b505050509050600081519050826106df5760006106e2565b60015b6106ef9060ff168261392b565b67ffffffffffffffff81111561070757610707612b21565b60405190808252806020026020018201604052801561075457816020015b604080516060808201835260008083526020830152918101919091528152602001906001900390816107255790505b50955060005b818110156107a1578281815181106107745761077461393e565b602002602001015187828151811061078e5761078e61393e565b602090810291909101015260010161075a565b5082156107e157846000815181106107bb576107bb61393e565b60200260200101518682815181106107d5576107d561393e565b60200260200101819052505b5050505050915091565b606060056000838152602001908152602001600020805480602002602001604051908101604052809291908181526020016000905b82821015610904576000848152602090819020604080516060810182526003860290920180546001600160a01b0316835260018101549383019390935260028301805492939291840191610873906138db565b80601f016020809104026020016040519081016040528092919081815260200182805461089f906138db565b80156108ec5780601f106108c1576101008083540402835291602001916108ec565b820191906000526020600020905b8154815290600101906020018083116108cf57829003601f168201915b50505050508152505081526020019060010190610820565b505050509050919050565b6000828152602081905260408120546001600160a01b039081169083160361093957506001610415565b6040517f3d12cb87000000000000000000000000000000000000000000000000000000008152600481018490526000907f0000000000000000000000000c86d0204c6ece28122daec16c613d3b699418456001600160a01b031690633d12cb8790602401600060405180830381865afa1580156109ba573d6000803e3d6000fd5b505050506040513d6000823e601f3d908101601f191682016040526109e29190810190613954565b805190915060005b81811015610a3857828181518110610a0457610a0461393e565b60200260200101516001600160a01b0316856001600160a01b031603610a305760019350505050610415565b6001016109ea565b50600095945050505050565b6000610a568686868630600088611588565b9695505050505050565b6000808060606001600160a01b037f0000000000000000000000000c86d0204c6ece28122daec16c613d3b69941845166383db9d0160408701803590610aa99060208a01612a88565b6040516001600160e01b031960e085901b16815260048101929092526001600160a01b03166024820152604401602060405180830381865afa158015610af3573d6000803e3d6000fd5b505050506040513d601f19601f82011682018060405250810190610b1791906139ee565b15610b345761271085608001358660a00135935093509350610b96565b604080860135600090815260016020522054421015610b7f576040517f04c3b3cd00000000000000000000000000000000000000000000000000000000815260040160405180910390fd5b84610160013585608001358660a001359350935093505b9193509193565b60007f000000000000000000000000ff7e1c600b8af88de885a7c68c3e7374010824236001600160a01b031663d4a1b4b16040518163ffffffff1660e01b8152600401602060405180830381865afa158015610bfd573d6000803e3d6000fd5b505050506040513d601f19601f82011682018060405250810190610c2191906135fa565b6001600160a01b03166343a266c2846040518263ffffffff1660e01b8152600401610c4e91815260200190565b61012060405180830381865afa158015610c6c573d6000803e3d6000fd5b505050506040513d601f19601f82011682018060405250810190610c909190613a1b565b6000848152600260208181526040808420828601805186528184528286206001600160a01b038a16808852908552838720548b8852958552905186529083528185209085529091528220829055919250819003610ced5750505050565b6040517fc7fb92de00000000000000000000000000000000000000000000000000000000815260048101859052602481018290526001600160a01b03848116604483015260a06064830152600060a4830181905260848301527f000000000000000000000000ff7e1c600b8af88de885a7c68c3e737401082423169063c7fb92de9060c4016020604051808303816000875af1158015610d91573d6000803e3d6000fd5b505050506040513d601f19601f82011682018060405250810190610db59190613a9b565b50826001600160a01b03168260200151857f598baf7bf150ca2f42be9e9f8f55e81d45f5715c3ff22bf46d697fabec7f31d68433604051610e099291909182526001600160a01b0316602082015260400190565b60405180910390a450505050565b7f000000000000000000000000ff7e1c600b8af88de885a7c68c3e7374010824236001600160a01b0316631f47ce696040518163ffffffff1660e01b8152600401602060405180830381865afa158015610e75573d6000803e3d6000fd5b505050506040513d601f19601f82011682018060405250810190610e9991906135fa565b6001600160a01b031663f434c9146040518163ffffffff1660e01b8152600401602060405180830381865afa158015610ed6573d6000803e3d6000fd5b505050506040513d601f19601f82011682018060405250810190610efa91906135fa565b6001600160a01b0316630f5932f0610f10611cb4565b3086610f1b88611cc3565b6040518563ffffffff1660e01b8152600401610f3a9493929190613af0565b602060405180830381865afa158015610f57573d6000803e3d6000fd5b505050506040513d601f19601f82011682018060405250810190610f7b91906139ee565b610f98576040516331fb21f360e01b815260040160405180910390fd5b6000610fa2611cb4565b838360200151604051602001610fba93929190613b22565b60408051601f1981840301815290829052805160209091012083517f2f3f50e00000000000000000000000000000000000000000000000000000000083529092506001600160a01b037f0000000000000000000000000c86d0204c6ece28122daec16c613d3b699418451691632f3f50e09161103c9188918691600401613c2c565b6000604051808303816000875af115801561105b573d6000803e3d6000fd5b505050506040513d6000823e601f3d908101601f191682016040526110839190810190613954565b5080847f755ecfca2f6e66af8868551556bf7931740a7062db8e0882f4c322fdb0bb3f6085856110b1611cb4565b6040516110c093929190613c74565b60405180910390a350505050565b60006110d983611cc3565b90507f000000000000000000000000ff7e1c600b8af88de885a7c68c3e7374010824236001600160a01b0316631f47ce696040518163ffffffff1660e01b8152600401602060405180830381865afa158015611139573d6000803e3d6000fd5b505050506040513d601f19601f8201168201806040525081019061115d91906135fa565b6001600160a01b031663f434c9146040518163ffffffff1660e01b8152600401602060405180830381865afa15801561119a573d6000803e3d6000fd5b505050506040513d601f19601f820116820180604052508101906111be91906135fa565b6001600160a01b0316630f5932f06111d4611cb4565b3086856040518563ffffffff1660e01b81526004016111f69493929190613af0565b602060405180830381865afa158015611213573d6000803e3d6000fd5b505050506040513d601f19601f8201168201806040525081019061123791906139ee565b611254576040516331fb21f360e01b815260040160405180910390fd5b7f000000000000000000000000ff7e1c600b8af88de885a7c68c3e7374010824236001600160a01b0316631f47ce696040518163ffffffff1660e01b8152600401602060405180830381865afa1580156112b2573d6000803e3d6000fd5b505050506040513d601f19601f820116820180604052508101906112d691906135fa565b6001600160a01b031663f434c9146040518163ffffffff1660e01b8152600401602060405180830381865afa158015611313573d6000803e3d6000fd5b505050506040513d601f19601f8201168201806040525081019061133791906135fa565b6001600160a01b03166305d2912e306040518060600160405280611359611cb4565b6001600160a01b0316815260208082018990526040805160008152918201815291820152516001600160e01b031960e085901b16815261139d929190600401613cb3565b600060405180830381600087803b1580156113b757600080fd5b505af11580156113cb573d6000803e3d6000fd5b505050507f000000000000000000000000ff7e1c600b8af88de885a7c68c3e7374010824236001600160a01b0316631f47ce696040518163ffffffff1660e01b8152600401602060405180830381865afa15801561142d573d6000803e3d6000fd5b505050506040513d601f19601f8201168201806040525081019061145191906135fa565b6001600160a01b031663f434c9146040518163ffffffff1660e01b8152600401602060405180830381865afa15801561148e573d6000803e3d6000fd5b505050506040513d601f19601f820116820180604052508101906114b291906135fa565b6001600160a01b03166305d2912e306040518060600160405280866001600160a01b03168152602001878152602001858152506040518363ffffffff1660e01b8152600401611502929190613cb3565b600060405180830381600087803b15801561151c57600080fd5b505af1158015611530573d6000803e3d6000fd5b50505050816001600160a01b0316837f0329d6a81434b130c72eb65eea0e32e429dc1277b4aad86ec86454aefb618451611568611cb4565b6040516001600160a01b03909116815260200160405180910390a3505050565b6000806000806115998a8888611e7b565b9250925092508a600003611674577f000000000000000000000000ff7e1c600b8af88de885a7c68c3e7374010824236001600160a01b0316630634bae9308c6000015160400151868d8f60000151602001516040516020016115fb9190613cf6565b6040516020818303038152906040526040518663ffffffff1660e01b815260040161162a959493929190614140565b6020604051808303816000875af1158015611649573d6000803e3d6000fd5b505050506040513d601f19601f8201168201806040525081019061166d9190613a9b565b9a50611732565b7f000000000000000000000000ff7e1c600b8af88de885a7c68c3e7374010824236001600160a01b0316631ea7bc8c8c858c8e60000151602001516040516020016116bf9190613cf6565b6040516020818303038152906040526040518563ffffffff1660e01b81526004016116ed94939291906141a8565b6020604051808303816000875af115801561170c573d6000803e3d6000fd5b505050506040513d601f19601f820116820180604052508101906117309190613a9b565b505b8080611762575089606001516000815181106117505761175061393e565b60200260200101516020015151600014155b156117845761177462278d004261392b565b60008c8152600160205260409020555b7f000000000000000000000000ff7e1c600b8af88de885a7c68c3e7374010824236001600160a01b031663581781918c8c60000151600001518d60000151602001518e60000151606001516040518563ffffffff1660e01b81526004016117ee94939291906141e7565b6020604051808303816000875af115801561180d573d6000803e3d6000fd5b505050506040513d601f19601f8201168201806040525081019061183191906135fa565b5087516001600160a01b03161561184c5761184c8b89612242565b7f000000000000000000000000ff7e1c600b8af88de885a7c68c3e7374010824236001600160a01b031663dd5f214a8c600061188b8e604001516123ad565b6040518463ffffffff1660e01b81526004016118a993929190614224565b600060405180830381600087803b1580156118c357600080fd5b505af11580156118d7573d6000803e3d6000fd5b505050506118e58b8b6124eb565b600060405180606001604052808c604001516001600160a01b031681526020018d81526020016119148e611cc3565b81525090507f000000000000000000000000ff7e1c600b8af88de885a7c68c3e7374010824236001600160a01b031663f434c9146040518163ffffffff1660e01b8152600401602060405180830381865afa158015611977573d6000803e3d6000fd5b505050506040513d601f19601f8201168201806040525081019061199b91906135fa565b6001600160a01b03166305d2912e30836040518363ffffffff1660e01b81526004016119c8929190613cb3565b600060405180830381600087803b1580156119e257600080fd5b505af11580156119f6573d6000803e3d6000fd5b506000925060019150611a069050565b604051908082528060200260200182016040528015611a2f578160200160208202803683370190505b509050601c81600081518110611a4757611a4761393e565b60200260200101818152505060405180606001604052807f0000000000000000000000000c86d0204c6ece28122daec16c613d3b699418456001600160a01b031681526020018e81526020018281525091507f000000000000000000000000ff7e1c600b8af88de885a7c68c3e7374010824236001600160a01b031663f434c9146040518163ffffffff1660e01b8152600401602060405180830381865afa158015611af7573d6000803e3d6000fd5b505050506040513d601f19601f82011682018060405250810190611b1b91906135fa565b6001600160a01b03166305d2912e30846040518363ffffffff1660e01b8152600401611b48929190613cb3565b600060405180830381600087803b158015611b6257600080fd5b505af1158015611b76573d6000803e3d6000fd5b50505050602087015115611c56577f0000000000000000000000000c86d0204c6ece28122daec16c613d3b699418456001600160a01b0316632f3f50e08e611bbc611cb4565b878b60200151604051602001611bd493929190613b22565b60408051601f198184030181529082905280516020909101208b516001600160e01b031960e086901b168352611c0d9392600401613c2c565b6000604051808303816000875af1158015611c2c573d6000803e3d6000fd5b505050506040513d6000823e601f3d908101601f19168201604052611c549190810190613954565b505b8c7fb00ad164380340ee6f18ec73024e25d390aa777602a69ede3c2da4d2b6cbc8418d8d8d8b8a8a8a611c87611cb4565b604051611c9b9897969594939291906144ab565b60405180910390a2509a9b9a5050505050505050505050565b6000611cbe612644565b905090565b606060006003805480602002602001604051908101604052809291908181526020018280548015611d1357602002820191906000526020600020905b815481526020019060010190808311611cff575b50508351600088815260046020908152604080832080548251818502810185019093528083529899509397929650945091925090830182828015611d7657602002820191906000526020600020905b815481526020019060010190808311611d62575b50508351939450611d8d925083915085905061392b565b67ffffffffffffffff811115611da557611da5612b21565b604051908082528060200260200182016040528015611dce578160200160208202803683370190505b50945060005b83811015611e1b57848181518110611dee57611dee61393e565b6020026020010151868281518110611e0857611e0861393e565b6020908102919091010152600101611dd4565b5060005b81811015611e7157828181518110611e3957611e3961393e565b6020026020010151868286611e4e919061392b565b81518110611e5e57611e5e61393e565b6020908102919091010152600101611e1f565b5050505050919050565b6060838101515181906000908067ffffffffffffffff811115611ea057611ea0612b21565b604051908082528060200260200182016040528015611f9257816020015b611f7f6040805161010080820183526000808352602080840182905283850182905260608085018390526080808601849052865161020081018852848152928301849052958201839052810182905293840181905260a084810182905260c0850182905260e0850182905291840181905261012084018190526101408401819052610160840181905261018084018190526101a084018190526101c084018190526101e0840152909190820190815260200160608152602001606081525090565b815260200190600190039081611ebe5790505b509350611f9e876126b9565b6040805160e08101825260008082526060602083018190529282018190529181018290526080810182905260a0810182905260c081018290529194505b828110156122365788606001518181518110611ff957611ff961393e565b60200260200101519150816000015164ffffffffff168682815181106120215761202161393e565b60200260200101516000018181525050816080015164ffffffffff1686828151811061204f5761204f61393e565b6020026020010151602001818152505081606001516dffffffffffffffffffffffffffff168682815181106120865761208661393e565b602002602001015160400181815250508160a0015163ffffffff168682815181106120b3576120b361393e565b6020026020010151606001818152505060008682815181106120d7576120d761393e565b6020026020010151608001906001600160a01b031690816001600160a01b031681525050604051806102000160405280836040015161ffff1681526020018360c0015161ffff1661271061212b91906145fe565b815260208b81015163ffffffff16908201526000604082018190526060820181905260016080830181905260a0830182905260c0830182905260e083018290526101008301829052610120830182905261014083018290526101608301526101808201526001600160a01b038a166101a08201526101c00188905286518790839081106121ba576121ba61393e565b602002602001015160a001819052508060001480156121e05750815164ffffffffff1615155b80156121f6575042826000015164ffffffffff16105b1561220057600193505b8461220b83836126f3565b60405160200161221c929190614611565b60408051601f198184030181529190529450600101611fdb565b50505093509350939050565b602081810151516040805160808101825260008082529381018490529081018390526060810183905290915b82811015612361578360200151818151811061228c5761228c61393e565b6020908102919091018101518551918101516040808301516060840151845192517f7b621d3a000000000000000000000000000000000000000000000000000000008152600481018c905262ffffff909416602485015263ffffffff91821660448501521660648301526001600160a01b039081166084830152919450911690637b621d3a9060a4016020604051808303816000875af1158015612334573d6000803e3d6000fd5b505050506040513d601f19601f8201168201806040525081019061235891906135fa565b5060010161226e565b5050905160009283526020839052604090922080547fffffffffffffffffffffffff0000000000000000000000000000000000000000166001600160a01b039093169290921790915550565b604080516001808252818301909252606091816020015b6040805180820190915260008152606060208201528152602001906001900390816123c457505060408051600180825281830190925291925060009190602082015b6040805160c08101825260008082526020808301829052928201819052606082018190526080820181905260a082015282526000199092019101816124065790505090506040518060c00160405280600015158152602001633b9aca00815260200160008152602001846001600160a01b031681526020016000815260200160006001600160a01b0316815250816000815181106124a6576124a661393e565b602002602001018190525060405180604001604052806001815260200182815250826000815181106124da576124da61393e565b602002602001018190525050919050565b606080820151516040805160e0810182526000808252602082018590529181018290529283018190526080830181905260a0830181905260c08301529060005b8281101561263d57836060015181815181106125495761254961393e565b602002602001015191506000826020015151905061258a6040518060600160405280600081526020016000815260200160006001600160a01b031681525090565b60005b8281101561263257846020015181815181106125ab576125ab61393e565b602002602001015191504682600001510361262a5760208083015160008a815260029092526040822090916125e0874261392b565b8152602001908152602001600020600084604001516001600160a01b03166001600160a01b031681526020019081526020016000206000828254612624919061392b565b90915550505b60010161258d565b50505060010161252b565b5050505050565b6000366014336001600160a01b037f000000000000000000000000b2b5841dbef766d4b521221732f9b618fcf34a87161480156126815750808210155b156126b15760003661269383856145fe565b61269e928290614640565b6126a79161466a565b60601c9250505090565b339250505090565b602080820151825180518184015160609283015160405193956126dd95940161469d565b6040516020818303038152906040529050919050565b6060811580156127095750825164ffffffffff16155b61271b57825164ffffffffff1661271d565b425b6040808501516060860151608087015160a088015160c0890151945161278e96959060200195865261ffff94851660208701526dffffffffffffffffffffffffffff93909316604086015264ffffffffff91909116606085015263ffffffff1660808401521660a082015260c00190565b60408051601f1981840301815291905260208401515190915060005b8181101561280457826127d9866020015183815181106127cc576127cc61393e565b602002602001015161280c565b6040516020016127ea929190614611565b60408051601f1981840301815291905292506001016127aa565b505092915050565b60608160000151826040015183602001516040516020016126dd939291909283526001600160a01b03919091166020830152604082015260600190565b60006020828403121561285b57600080fd5b81356001600160e01b03198116811461287357600080fd5b9392505050565b6001600160a01b038116811461288f57600080fd5b50565b803561289d8161287a565b919050565b6000806000806000608086880312156128ba57600080fd5b85356128c58161287a565b945060208601356128d58161287a565b935060408601359250606086013567ffffffffffffffff808211156128f957600080fd5b818801915088601f83011261290d57600080fd5b81358181111561291c57600080fd5b89602082850101111561292e57600080fd5b9699959850939650602001949392505050565b60006020828403121561295357600080fd5b5035919050565b60006020828403121561296c57600080fd5b813567ffffffffffffffff81111561298357600080fd5b8201610180818503121561287357600080fd5b60005b838110156129b1578181015183820152602001612999565b50506000910152565b600081518084526129d2816020860160208601612996565b601f01601f19169290920160200192915050565b600082825180855260208086019550808260051b84010181860160005b84811015612a5a57858303601f19018952815180516001600160a01b031684528481015185850152604090810151606091850182905290612a46818601836129ba565b9a86019a9450505090830190600101612a03565b5090979650505050505050565b828152604060208201526000612a8060408301846129e6565b949350505050565b600060208284031215612a9a57600080fd5b81356128738161287a565b600080600060608486031215612aba57600080fd5b83359250602084013591506040840135612ad38161287a565b809150509250925092565b60208152600061287360208301846129e6565b60008060408385031215612b0457600080fd5b823591506020830135612b168161287a565b809150509250929050565b634e487b7160e01b600052604160045260246000fd5b6040516060810167ffffffffffffffff81118282101715612b5a57612b5a612b21565b60405290565b60405160e0810167ffffffffffffffff81118282101715612b5a57612b5a612b21565b6040805190810167ffffffffffffffff81118282101715612b5a57612b5a612b21565b6040516080810167ffffffffffffffff81118282101715612b5a57612b5a612b21565b604051610120810167ffffffffffffffff81118282101715612b5a57612b5a612b21565b604051601f8201601f1916810167ffffffffffffffff81118282101715612c1657612c16612b21565b604052919050565b600067ffffffffffffffff821115612c3857612c38612b21565b50601f01601f191660200190565b6000612c59612c5484612c1e565b612bed565b9050828152838383011115612c6d57600080fd5b828260208301376000602084830101529392505050565b600082601f830112612c9557600080fd5b61287383833560208501612c46565b803563ffffffff8116811461289d57600080fd5b600067ffffffffffffffff821115612cd257612cd2612b21565b5060051b60200190565b803564ffffffffff8116811461289d57600080fd5b600082601f830112612d0257600080fd5b81356020612d12612c5483612cb8565b82815260609283028501820192828201919087851115612d3157600080fd5b8387015b85811015612a5a5781818a031215612d4d5760008081fd5b612d55612b37565b813581528582013586820152604080830135612d708161287a565b908201528452928401928101612d35565b803561ffff8116811461289d57600080fd5b80356dffffffffffffffffffffffffffff8116811461289d57600080fd5b600082601f830112612dc257600080fd5b81356020612dd2612c5483612cb8565b82815260059290921b84018101918181019086841115612df157600080fd5b8286015b84811015612ed357803567ffffffffffffffff80821115612e165760008081fd5b9088019060e0828b03601f1901811315612e305760008081fd5b612e38612b60565b612e43888501612cdc565b815260408085013584811115612e595760008081fd5b612e678e8b83890101612cf1565b8a8401525060609350612e7b848601612d81565b908201526080612e8c858201612d93565b8483015260a09350612e9f848601612cdc565b9082015260c0612eb0858201612ca4565b84830152612ebf838601612d81565b908201528652505050918301918301612df5565b509695505050505050565b600082601f830112612eef57600080fd5b81356020612eff612c5483612cb8565b828152600592831b8501820192828201919087851115612f1e57600080fd5b8387015b85811015612a5a57803567ffffffffffffffff80821115612f435760008081fd5b908901906040828c03601f1901811315612f5d5760008081fd5b612f65612b83565b88840135612f728161287a565b81528382013583811115612f865760008081fd5b8085019450508c603f850112612f9e57600092508283fd5b888401359250612fb0612c5484612cb8565b83815292861b8401820192898101908e851115612fcd5760008081fd5b948301945b84861015612ff75785359350612fe78461287a565b838252948a0194908a0190612fd2565b828b0152508752505050928401928401612f22565b6000604080838503121561301f57600080fd5b613027612b83565b915082356130348161287a565b825260208381013567ffffffffffffffff81111561305157600080fd5b8401601f8101861361306257600080fd5b8035613070612c5482612cb8565b81815260079190911b8201830190838101908883111561308f57600080fd5b928401925b8284101561310e576080848a0312156130ad5760008081fd5b6130b5612ba6565b84356130c08161287a565b81528486013562ffffff811681146130d85760008081fd5b818701526130e7858801612ca4565b8782015260606130f8818701612ca4565b9082015282526080939093019290840190613094565b808588015250505050505092915050565b60006040828403121561313157600080fd5b613139612b83565b905067ffffffffffffffff808335111561315257600080fd5b8235830184601f82011261316557600080fd5b613172612c548235612cb8565b81358082526020808301929160051b8401018781111561319157600080fd5b602084015b818110156132d65785813511156131ac57600080fd5b803585016040818b03601f190112156131c457600080fd5b6131cc612b83565b6131d9602083013561287a565b6020820135815287604083013511156131f157600080fd5b6040820135820191508a603f83011261320957600080fd5b602082013561321a612c5482612cb8565b81815260079190911b83016040019060208101908d83111561323b57600080fd5b6040850194505b828510156132b7576080858f03121561325a57600080fd5b613262612ba6565b61326c863561287a565b8535815261327c60208701612ca4565b602082015261328e604087013561287a565b604086013560408201526060860135606082015280835250602082019150608085019450613242565b8060208501525050508086525050602084019350602081019050613196565b5050808552505050506020820135602082015292915050565b600080600080600060a0868803121561330757600080fd5b85359450602086013567ffffffffffffffff8082111561332657600080fd5b908701906080828a03121561333a57600080fd5b613342612ba6565b82358281111561335157600080fd5b83016080818c03121561336357600080fd5b61336b612ba6565b81358481111561337a57600080fd5b6133868d828501612c84565b82525060208201358481111561339b57600080fd5b6133a78d828501612c84565b6020830152506040820135848111156133bf57600080fd5b6133cb8d828501612c84565b6040830152506060820135606082015280835250506133ec60208401612ca4565b60208201526133fd60408401612892565b604082015260608301358281111561341457600080fd5b6134208b828601612db1565b6060830152509550604088013591508082111561343c57600080fd5b61344889838a01612ede565b9450606088013591508082111561345e57600080fd5b61346a89838a0161300c565b9350608088013591508082111561348057600080fd5b5061348d8882890161311f565b9150509295509295909350565b6000602082840312156134ac57600080fd5b813567ffffffffffffffff8111156134c357600080fd5b82016101a0818503121561287357600080fd5b60006080820186835260208681850152604086604086015260606080606087015283875180865260a08801915060a08160051b890101955084890160005b8281101561356457898803609f19018452815180516001600160a01b0316895287810151888a0152860151868901869052613551868a01826129ba565b9850509286019290860190600101613514565b50959c9b505050505050505050505050565b60008060006060848603121561358b57600080fd5b83359250602084013567ffffffffffffffff808211156135aa57600080fd5b818601915086601f8301126135be57600080fd5b6135cd87833560208501612c46565b935060408601359150808211156135e357600080fd5b506135f08682870161311f565b9150509250925092565b60006020828403121561360c57600080fd5b81516128738161287a565b80356136228161287a565b6001600160a01b031682526020818101359083015260408082013590830152606090810135910152565b6000808335601e1984360301811261366357600080fd5b830160208101925035905067ffffffffffffffff81111561368357600080fd5b80360382131561369257600080fd5b9250929050565b81835281816020850137506000828201602090810191909152601f909101601f19169091010190565b602081526136e3602082016136d684612892565b6001600160a01b03169052565b60006136f160208401612892565b6001600160a01b0381166040840152506137116060830160408501613617565b60c083013560e083015261010060e084013581840152613732818501612892565b905061012061374b818501836001600160a01b03169052565b610140915080850135828501525061016081850135818501526137708186018661364c565b610180868101529250905061378a6101a085018383613699565b95945050505050565b60008060408084860312156137a757600080fd5b8351925060208085015167ffffffffffffffff808211156137c757600080fd5b818701915087601f8301126137db57600080fd5b81516137e9612c5482612cb8565b81815260059190911b8301840190848101908a83111561380857600080fd5b8585015b838110156138c95780518581111561382357600080fd5b86016060818e03601f1901121561383a5760008081fd5b613842612b37565b8882015161384f8161287a565b8152818a01518982015260608201518781111561386c5760008081fd5b8083019250508d603f8301126138825760008081fd5b88820151613892612c5482612c1e565b8181528f8c8386010111156138a75760008081fd5b6138b6828c83018e8701612996565b828c01525084525091860191860161380c565b50809750505050505050509250929050565b600181811c908216806138ef57607f821691505b60208210810361390f57634e487b7160e01b600052602260045260246000fd5b50919050565b634e487b7160e01b600052601160045260246000fd5b8082018082111561041557610415613915565b634e487b7160e01b600052603260045260246000fd5b6000602080838503121561396757600080fd5b825167ffffffffffffffff81111561397e57600080fd5b8301601f8101851361398f57600080fd5b805161399d612c5482612cb8565b81815260059190911b820183019083810190878311156139bc57600080fd5b928401925b828410156139e35783516139d48161287a565b825292840192908401906139c1565b979650505050505050565b600060208284031215613a0057600080fd5b8151801515811461287357600080fd5b805161289d8161287a565b60006101208284031215613a2e57600080fd5b613a36612bc9565b825181526020830151602082015260408301516040820152606083015160608201526080830151608082015260a083015160a082015260c083015160c0820152613a8260e08401613a10565b60e0820152610100928301519281019290925250919050565b600060208284031215613aad57600080fd5b5051919050565b60008151808452602080850194506020840160005b83811015613ae557815187529582019590820190600101613ac9565b509495945050505050565b60006001600160a01b03808716835280861660208401525083604083015260806060830152610a566080830184613ab4565b6bffffffffffffffffffffffff198460601b16815260008351613b4c816014850160208801612996565b60149201918201929092526034019392505050565b600082825180855260208086019550808260051b8401018186016000805b85811015613c1e57868403601f19018a52825180516001600160a01b03908116865290860151604087870181905281518188018190529188019290916060919082890190875b81811015613c065786518051851684528c81015163ffffffff168d8501528681015185168785015285015185840152958b0195608090920191600101613bc5565b50509d89019d97505050938601935050600101613b7f565b509198975050505050505050565b83815282602082015260606040820152600061378a6060830184613b61565b6000815160408452613c606040850182613b61565b602093840151949093019390935250919050565b606081526000613c8760608301866129ba565b8281036020840152613c998186613c4b565b9150506001600160a01b0383166040830152949350505050565b60006001600160a01b03808516835260406020840152808451166040840152506020830151606083015260408301516060608084015261378a60a0840182613ab4565b7f2400000000000000000000000000000000000000000000000000000000000000815260008251613d2e816001850160208701612996565b7f207265766e6574206465706c6f796564000000000000000000000000000000006001939091019283015250601101919050565b8051825260208101516020830152604081015160408301526060810151613d8d606084018215159052565b506080810151613da1608084018215159052565b5060a0810151613db560a084018215159052565b5060c0810151613dc960c084018215159052565b5060e0810151613ddd60e084018215159052565b5061010081810151151590830152610120808201511515908301526101408082015115159083015261016080820151151590830152610180808201511515908301526101a0808201511515908301526101c0808201516001600160a01b0316908301526101e090810151910152565b600082825180855260208086019550808260051b8401018186016000805b85811015613c1e57868403601f19018a52825180518552850151604086860181905281518187018190529187019160609081880190865b81811015613efb5785518051151584528b8101518c8501528581015186850152848101516001600160a01b03908116868601526080808301519086015260a0918201511690840152948a019460c090920191600101613ea1565b50509c88019c965050509285019250600101613e6a565b60008151808452602080850194506020840160005b83811015613ae5578151805188528301518388015260409096019590820190600101613f27565b600082825180855260208086019550808260051b84010181860160005b84811015612a5a57601f19868403018952815160806001600160a01b0380835116865280878401511687870152506040808301518282880152613fb083880182613f12565b9250505060608083015192508582038187015250613fce8183613f12565b9a86019a9450505090830190600101613f6b565b600082825180855260208086019550808260051b84010181860160005b84811015612a5a57858303601f19018952815180518452848101518585015260408082015190850152606080820151908501526080808201516001600160a01b03169085015260a0808201516102e0919061405c82880182613d62565b505060c0820151816102a087015261407682870182613e4c565b91505060e082015191508481036102c08601526140938183613f4e565b9a86019a9450505090830190600101613fff565b600082825180855260208086019550808260051b8401018186016000805b85811015613c1e57868403601f19018a52825180516001600160a01b03908116865290860151604087870181905281519087018190529087019160608701918591905b8083101561412a57845182168452938901939289019260019290920191614108565b5050509a86019a945050918401916001016140c5565b6001600160a01b038616815260a06020820152600061416260a08301876129ba565b82810360408401526141748187613fe2565b9050828103606084015261418881866140a7565b9050828103608084015261419c81856129ba565b98975050505050505050565b8481526080602082015260006141c16080830186613fe2565b82810360408401526141d381866140a7565b905082810360608401526139e381856129ba565b84815260806020820152600061420060808301866129ba565b828103604084015261421281866129ba565b91505082606083015295945050505050565b600060608083018684526020868186015260406060604087015282875180855260808801915060808160051b890101945083890160005b8281101561430257898703607f190184528151805188528601518688018690528051868901819052908701906000908a8a01905b808310156142ed5783518051151583528a8101518b840152898101518a8401528c8101516001600160a01b039081168e8501526080808301519085015260a0918201511690830152928901926001929092019160c09091019061428f565b5098505050928501929085019060010161425b565b50949b9a5050505050505050505050565b600082825180855260208086019550808260051b8401018186016000805b85811015613c1e57868403601f19018a528251805164ffffffffff1685528581015160e0878701819052815190870181905261010087019188019085905b808210156143ae578251805185528a8101518b8601526040908101516001600160a01b031690850152606090930192918901916001919091019061436f565b50505060408281015161ffff908116918801919091526060808401516dffffffffffffffffffffffffffff169088015260808084015164ffffffffff169088015260a08084015163ffffffff169088015260c0928301511691909501529884019891840191600101614331565b600060408084016001600160a01b038085511686526020808601516040828901528381518086526060955060608a019150838301925060005b8181101561449c5783518051871684528581015162ffffff16868501528881015163ffffffff9081168a86015290880151168784015292840192608090920191600101614454565b50909998505050505050505050565b60006101008083528a516080828501528051915060806101808501526144d56102008501836129ba565b9150602081015161017f1980868503016101a08701526144f584836129ba565b93506040830151915080868503016101c08701525061451483826129ba565b92505060608101516101e08501525060208b015161453b61012085018263ffffffff169052565b5060408b01516001600160a01b031661014084015260608b015183820360ff190161016085015261456c8282614313565b9150508281036020840152614581818b6140a7565b90508281036040840152614595818a61441b565b905082810360608401526145a98189613c4b565b905082810360808401526145bd8188613fe2565b905082810360a08401526145d181876129ba565b9150506145e260c083018515159052565b6001600160a01b03831660e08301529998505050505050505050565b8181038181111561041557610415613915565b60008351614623818460208801612996565b835190830190614637818360208801612996565b01949350505050565b6000808585111561465057600080fd5b8386111561465d57600080fd5b5050820193919092039150565b6bffffffffffffffffffffffff1981358181169160148510156128045760149490940360031b84901b1690921692915050565b63ffffffff8516815260806020820152600061420060808301866129ba56fea2646970667358221220844bc11784b8a228fc9f48bad938cff5e97bcf7540df37f75446c07f5f172d4564736f6c63430008170033",
			"devdoc": {
				"kind": "dev",
				"methods": {
					"beforePayRecordedWith((address,address,(address,uint256,uint256,uint256),uint256,uint256,address,uint256,uint256,bytes))": {
						"details": "Part of IJBFundingCycleDataSource.This implementation just sets this contract up to receive a `didPay` call.",
						"params": {
							"context": "The Juicebox standard network payment context. See"
						},
						"returns": {
							"hookSpecifications": "Amount to be sent to pay hooks instead of adding to local balance. Useful for auto-routing funds from a treasury as payment come in.",
							"weight": "The weight that network tokens should get minted relative to. This is useful for optionally customizing how many tokens are issued per payment."
						}
					},
					"constructor": {
						"params": {
							"controller": "The controller that revnets are made from.",
							"suckerRegistry": "The registry that deploys and tracks each project's suckers.",
							"trustedForwarder": "The trusted forwarder for the ERC2771Context."
						}
					},
					"deploySuckersFor(uint256,bytes,((address,(address,uint32,address,uint256)[])[],bytes32))": {
						"params": {
							"encodedConfiguration": "A bytes representation of the revnet's configuration.",
							"revnetId": "The ID of the revnet having new suckers deployed.",
							"suckerDeploymentConfiguration": "The specifics about the suckers being deployed."
						}
					},
					"hasMintPermissionFor(uint256,address)": {
						"params": {
							"addr": "The address to check if has permissions.",
							"revnetId": "The ID of the revnet to check permissions for."
						},
						"returns": {
							"_0": "flag The flag indicating if the address has permissions to mint on the revnet's behalf."
						}
					},
					"isTrustedForwarder(address)": {
						"details": "Indicates whether any particular address is the trusted forwarder."
					},
					"launchRevnetFor(uint256,((string,string,string,bytes32),uint32,address,(uint40,(uint256,uint256,address)[],uint16,uint112,uint40,uint32,uint16)[]),(address,address[])[],(address,(address,uint24,uint32,uint32)[]),((address,(address,uint32,address,uint256)[])[],bytes32))": {
						"params": {
							"buybackHookConfiguration": "Data used for setting up the buyback hook to use when determining the best price for new participants.",
							"configuration": "The data needed to deploy a basic revnet.",
							"revnetId": "The ID of the Juicebox project to turn into a revnet. Send 0 to deploy a new revnet.",
							"suckerDeploymentConfiguration": "Information about how this revnet relates to other's across chains.",
							"terminalConfigurations": "The terminals that the network uses to accept payments through."
						},
						"returns": {
							"_0": "revnetId The ID of the newly created revnet."
						}
					},
					"mintFor(uint256,address)": {
						"params": {
							"beneficiary": "The address to mint tokens to.",
							"revnetId": "The ID of the revnet to mint tokens from."
						}
					},
					"onERC721Received(address,address,uint256,bytes)": {
						"details": "Make sure only mints can be received."
					},
					"payHookSpecificationsOf(uint256)": {
						"params": {
							"revnetId": "The ID of the revnet to which the extensions apply."
						},
						"returns": {
							"_0": "payHookSpecifications The pay hooks."
						}
					},
					"replaceSplitOperatorOf(uint256,address)": {
						"params": {
							"newSplitOperator": "The address of the new split operator.",
							"revnetId": "The ID of the revnet having its operator replaced."
						}
					},
					"supportsInterface(bytes4)": {
						"details": "See {IERC165-supportsInterface}.",
						"params": {
							"interfaceId": "The ID of the interface to check for adherence to."
						},
						"returns": {
							"_0": "A flag indicating if the provided interface ID is supported."
						}
					},
					"trustedForwarder()": {
						"details": "Returns the address of the trusted forwarder."
					}
				},
				"version": 1
			},
			"userdoc": {
				"kind": "user",
				"methods": {
					"CONTROLLER()": {
						"notice": "The controller that networks are made from."
					},
					"EXIT_DELAY()": {
						"notice": "The amount of time from a sucker being deployed to when it can facilitate exits."
					},
					"SUCKER_REGISTRY()": {
						"notice": "The registry that deploys and tracks each project's suckers."
					},
					"allowedMintCountOf(uint256,uint256,address)": {
						"notice": "The specification of how many tokens are still allowed to be minted at each stage of a revnet."
					},
					"beforePayRecordedWith((address,address,(address,uint256,uint256,uint256),uint256,uint256,address,uint256,uint256,bytes))": {
						"notice": "This function gets called when the revnet receives a payment."
					},
					"beforeRedeemRecordedWith((address,address,uint256,uint256,uint256,uint256,(address,uint256,uint256,uint256),bool,uint256,bytes))": {
						"notice": "This function is never called, it needs to be included to adhere to the interface."
					},
					"buybackHookOf(uint256)": {
						"notice": "The data hook that returns the correct values for the buyback hook of each network."
					},
					"deploySuckersFor(uint256,bytes,((address,(address,uint32,address,uint256)[])[],bytes32))": {
						"notice": "Allows a revnet's split operator to deploy new suckers to the revnet after it's deployed."
					},
					"exitDelayOf(uint256)": {
						"notice": "The time at which exits from a revnet become allowed."
					},
					"hasMintPermissionFor(uint256,address)": {
						"notice": "Required by the IJBRulesetDataHook interfaces."
					},
					"launchRevnetFor(uint256,((string,string,string,bytes32),uint32,address,(uint40,(uint256,uint256,address)[],uint16,uint112,uint40,uint32,uint16)[]),(address,address[])[],(address,(address,uint24,uint32,uint32)[]),((address,(address,uint32,address,uint256)[])[],bytes32))": {
						"notice": "Launch a basic revnet."
					},
					"mintFor(uint256,address)": {
						"notice": "Mint tokens from a revnet to a specified beneficiary according to the rules set for the revnet."
					},
					"payHookSpecificationsOf(uint256)": {
						"notice": "The pay hooks to include during payments to networks."
					},
					"replaceSplitOperatorOf(uint256,address)": {
						"notice": "A revnet's operator can replace itself."
					},
					"supportsInterface(bytes4)": {
						"notice": "Indicates if this contract adheres to the specified interface."
					}
				},
				"version": 1
			},
			"gitCommit": "3dc7eec76b2b951d243b941fd4b84957a38a38ff",
			"sourceName": "src/REVBasicDeployer.sol",
			"chainId": "11155111",
			"linkReferences": {},
			"deployedLinkReferences": {}
		}
	]
}