{
	"_format": "sphinx-sol-ct-artifact-1",
	"merkleRoot": "0xd4471c8ae6e1babf0e4157b34143d8db15017448ffd6e7f1d172f37fd4d7b9bd",
	"contractName": "REVBasicDeployer",
	"address": "0x1685250188491Fd677cC5A7A40B3d8252cB1C917",
	"abi": [
		{
			"type": "constructor",
			"inputs": [
				{
					"name": "controller",
					"type": "address",
					"internalType": "contract IJBController"
				},
				{
					"name": "suckerRegistry",
					"type": "address",
					"internalType": "contract IBPSuckerRegistry"
				}
			],
			"stateMutability": "nonpayable"
		},
		{
			"type": "function",
			"name": "CONTROLLER",
			"inputs": [],
			"outputs": [
				{
					"name": "",
					"type": "address",
					"internalType": "contract IJBController"
				}
			],
			"stateMutability": "view"
		},
		{
			"type": "function",
			"name": "EXIT_DELAY",
			"inputs": [],
			"outputs": [
				{
					"name": "",
					"type": "uint256",
					"internalType": "uint256"
				}
			],
			"stateMutability": "view"
		},
		{
			"type": "function",
			"name": "SUCKER_REGISTRY",
			"inputs": [],
			"outputs": [
				{
					"name": "",
					"type": "address",
					"internalType": "contract IBPSuckerRegistry"
				}
			],
			"stateMutability": "view"
		},
		{
			"type": "function",
			"name": "beforePayRecordedWith",
			"inputs": [
				{
					"name": "context",
					"type": "tuple",
					"internalType": "struct JBBeforePayRecordedContext",
					"components": [
						{
							"name": "terminal",
							"type": "address",
							"internalType": "address"
						},
						{
							"name": "payer",
							"type": "address",
							"internalType": "address"
						},
						{
							"name": "amount",
							"type": "tuple",
							"internalType": "struct JBTokenAmount",
							"components": [
								{
									"name": "token",
									"type": "address",
									"internalType": "address"
								},
								{
									"name": "value",
									"type": "uint256",
									"internalType": "uint256"
								},
								{
									"name": "decimals",
									"type": "uint256",
									"internalType": "uint256"
								},
								{
									"name": "currency",
									"type": "uint256",
									"internalType": "uint256"
								}
							]
						},
						{
							"name": "projectId",
							"type": "uint256",
							"internalType": "uint256"
						},
						{
							"name": "rulesetId",
							"type": "uint256",
							"internalType": "uint256"
						},
						{
							"name": "beneficiary",
							"type": "address",
							"internalType": "address"
						},
						{
							"name": "weight",
							"type": "uint256",
							"internalType": "uint256"
						},
						{
							"name": "reservedRate",
							"type": "uint256",
							"internalType": "uint256"
						},
						{
							"name": "metadata",
							"type": "bytes",
							"internalType": "bytes"
						}
					]
				}
			],
			"outputs": [
				{
					"name": "weight",
					"type": "uint256",
					"internalType": "uint256"
				},
				{
					"name": "hookSpecifications",
					"type": "tuple[]",
					"internalType": "struct JBPayHookSpecification[]",
					"components": [
						{
							"name": "hook",
							"type": "address",
							"internalType": "contract IJBPayHook"
						},
						{
							"name": "amount",
							"type": "uint256",
							"internalType": "uint256"
						},
						{
							"name": "metadata",
							"type": "bytes",
							"internalType": "bytes"
						}
					]
				}
			],
			"stateMutability": "view"
		},
		{
			"type": "function",
			"name": "beforeRedeemRecordedWith",
			"inputs": [
				{
					"name": "context",
					"type": "tuple",
					"internalType": "struct JBBeforeRedeemRecordedContext",
					"components": [
						{
							"name": "terminal",
							"type": "address",
							"internalType": "address"
						},
						{
							"name": "holder",
							"type": "address",
							"internalType": "address"
						},
						{
							"name": "projectId",
							"type": "uint256",
							"internalType": "uint256"
						},
						{
							"name": "rulesetId",
							"type": "uint256",
							"internalType": "uint256"
						},
						{
							"name": "redeemCount",
							"type": "uint256",
							"internalType": "uint256"
						},
						{
							"name": "totalSupply",
							"type": "uint256",
							"internalType": "uint256"
						},
						{
							"name": "surplus",
							"type": "tuple",
							"internalType": "struct JBTokenAmount",
							"components": [
								{
									"name": "token",
									"type": "address",
									"internalType": "address"
								},
								{
									"name": "value",
									"type": "uint256",
									"internalType": "uint256"
								},
								{
									"name": "decimals",
									"type": "uint256",
									"internalType": "uint256"
								},
								{
									"name": "currency",
									"type": "uint256",
									"internalType": "uint256"
								}
							]
						},
						{
							"name": "useTotalSurplus",
							"type": "bool",
							"internalType": "bool"
						},
						{
							"name": "redemptionRate",
							"type": "uint256",
							"internalType": "uint256"
						},
						{
							"name": "metadata",
							"type": "bytes",
							"internalType": "bytes"
						}
					]
				}
			],
			"outputs": [
				{
					"name": "",
					"type": "uint256",
					"internalType": "uint256"
				},
				{
					"name": "",
					"type": "uint256",
					"internalType": "uint256"
				},
				{
					"name": "",
					"type": "uint256",
					"internalType": "uint256"
				},
				{
					"name": "specifications",
					"type": "tuple[]",
					"internalType": "struct JBRedeemHookSpecification[]",
					"components": [
						{
							"name": "hook",
							"type": "address",
							"internalType": "contract IJBRedeemHook"
						},
						{
							"name": "amount",
							"type": "uint256",
							"internalType": "uint256"
						},
						{
							"name": "metadata",
							"type": "bytes",
							"internalType": "bytes"
						}
					]
				}
			],
			"stateMutability": "view"
		},
		{
			"type": "function",
			"name": "buybackHookOf",
			"inputs": [
				{
					"name": "revnetId",
					"type": "uint256",
					"internalType": "uint256"
				}
			],
			"outputs": [
				{
					"name": "buybackHook",
					"type": "address",
					"internalType": "contract IJBRulesetDataHook"
				}
			],
			"stateMutability": "view"
		},
		{
			"type": "function",
			"name": "deployRevnetWith",
			"inputs": [
				{
					"name": "configuration",
					"type": "tuple",
					"internalType": "struct REVConfig",
					"components": [
						{
							"name": "description",
							"type": "tuple",
							"internalType": "struct REVDescription",
							"components": [
								{
									"name": "name",
									"type": "string",
									"internalType": "string"
								},
								{
									"name": "symbol",
									"type": "string",
									"internalType": "string"
								},
								{
									"name": "uri",
									"type": "string",
									"internalType": "string"
								},
								{
									"name": "salt",
									"type": "bytes32",
									"internalType": "bytes32"
								}
							]
						},
						{
							"name": "baseCurrency",
							"type": "uint32",
							"internalType": "uint32"
						},
						{
							"name": "premintTokenAmount",
							"type": "uint256",
							"internalType": "uint256"
						},
						{
							"name": "initialOperator",
							"type": "address",
							"internalType": "address"
						},
						{
							"name": "stageConfigurations",
							"type": "tuple[]",
							"internalType": "struct REVStageConfig[]",
							"components": [
								{
									"name": "startsAtOrAfter",
									"type": "uint40",
									"internalType": "uint40"
								},
								{
									"name": "operatorSplitRate",
									"type": "uint16",
									"internalType": "uint16"
								},
								{
									"name": "initialIssuanceRate",
									"type": "uint112",
									"internalType": "uint112"
								},
								{
									"name": "priceCeilingIncreaseFrequency",
									"type": "uint40",
									"internalType": "uint40"
								},
								{
									"name": "priceCeilingIncreasePercentage",
									"type": "uint32",
									"internalType": "uint32"
								},
								{
									"name": "priceFloorTaxIntensity",
									"type": "uint16",
									"internalType": "uint16"
								}
							]
						}
					]
				},
				{
					"name": "terminalConfigurations",
					"type": "tuple[]",
					"internalType": "struct JBTerminalConfig[]",
					"components": [
						{
							"name": "terminal",
							"type": "address",
							"internalType": "contract IJBTerminal"
						},
						{
							"name": "tokensToAccept",
							"type": "address[]",
							"internalType": "address[]"
						}
					]
				},
				{
					"name": "buybackHookConfiguration",
					"type": "tuple",
					"internalType": "struct REVBuybackHookConfig",
					"components": [
						{
							"name": "hook",
							"type": "address",
							"internalType": "contract IJBBuybackHook"
						},
						{
							"name": "poolConfigurations",
							"type": "tuple[]",
							"internalType": "struct REVBuybackPoolConfig[]",
							"components": [
								{
									"name": "token",
									"type": "address",
									"internalType": "address"
								},
								{
									"name": "fee",
									"type": "uint24",
									"internalType": "uint24"
								},
								{
									"name": "twapWindow",
									"type": "uint32",
									"internalType": "uint32"
								},
								{
									"name": "twapSlippageTolerance",
									"type": "uint32",
									"internalType": "uint32"
								}
							]
						}
					]
				},
				{
					"name": "suckerDeploymentConfiguration",
					"type": "tuple",
					"internalType": "struct REVSuckerDeploymentConfig",
					"components": [
						{
							"name": "deployerConfigurations",
							"type": "tuple[]",
							"internalType": "struct BPSuckerDeployerConfig[]",
							"components": [
								{
									"name": "deployer",
									"type": "address",
									"internalType": "contract IBPSuckerDeployer"
								},
								{
									"name": "mappings",
									"type": "tuple[]",
									"internalType": "struct BPTokenMapping[]",
									"components": [
										{
											"name": "localToken",
											"type": "address",
											"internalType": "address"
										},
										{
											"name": "minGas",
											"type": "uint32",
											"internalType": "uint32"
										},
										{
											"name": "remoteToken",
											"type": "address",
											"internalType": "address"
										},
										{
											"name": "minBridgeAmount",
											"type": "uint256",
											"internalType": "uint256"
										}
									]
								}
							]
						},
						{
							"name": "salt",
							"type": "bytes32",
							"internalType": "bytes32"
						}
					]
				}
			],
			"outputs": [
				{
					"name": "revnetId",
					"type": "uint256",
					"internalType": "uint256"
				}
			],
			"stateMutability": "nonpayable"
		},
		{
			"type": "function",
			"name": "deploySuckersFor",
			"inputs": [
				{
					"name": "revnetId",
					"type": "uint256",
					"internalType": "uint256"
				},
				{
					"name": "encodedConfiguration",
					"type": "bytes",
					"internalType": "bytes"
				},
				{
					"name": "suckerDeploymentConfiguration",
					"type": "tuple",
					"internalType": "struct REVSuckerDeploymentConfig",
					"components": [
						{
							"name": "deployerConfigurations",
							"type": "tuple[]",
							"internalType": "struct BPSuckerDeployerConfig[]",
							"components": [
								{
									"name": "deployer",
									"type": "address",
									"internalType": "contract IBPSuckerDeployer"
								},
								{
									"name": "mappings",
									"type": "tuple[]",
									"internalType": "struct BPTokenMapping[]",
									"components": [
										{
											"name": "localToken",
											"type": "address",
											"internalType": "address"
										},
										{
											"name": "minGas",
											"type": "uint32",
											"internalType": "uint32"
										},
										{
											"name": "remoteToken",
											"type": "address",
											"internalType": "address"
										},
										{
											"name": "minBridgeAmount",
											"type": "uint256",
											"internalType": "uint256"
										}
									]
								}
							]
						},
						{
							"name": "salt",
							"type": "bytes32",
							"internalType": "bytes32"
						}
					]
				}
			],
			"outputs": [],
			"stateMutability": "nonpayable"
		},
		{
			"type": "function",
			"name": "exitDelayOf",
			"inputs": [
				{
					"name": "revnetId",
					"type": "uint256",
					"internalType": "uint256"
				}
			],
			"outputs": [
				{
					"name": "exitDelay",
					"type": "uint256",
					"internalType": "uint256"
				}
			],
			"stateMutability": "view"
		},
		{
			"type": "function",
			"name": "hasMintPermissionFor",
			"inputs": [
				{
					"name": "revnetId",
					"type": "uint256",
					"internalType": "uint256"
				},
				{
					"name": "addr",
					"type": "address",
					"internalType": "address"
				}
			],
			"outputs": [
				{
					"name": "",
					"type": "bool",
					"internalType": "bool"
				}
			],
			"stateMutability": "view"
		},
		{
			"type": "function",
			"name": "onERC721Received",
			"inputs": [
				{
					"name": "operator",
					"type": "address",
					"internalType": "address"
				},
				{
					"name": "from",
					"type": "address",
					"internalType": "address"
				},
				{
					"name": "tokenId",
					"type": "uint256",
					"internalType": "uint256"
				},
				{
					"name": "data",
					"type": "bytes",
					"internalType": "bytes"
				}
			],
			"outputs": [
				{
					"name": "",
					"type": "bytes4",
					"internalType": "bytes4"
				}
			],
			"stateMutability": "view"
		},
		{
			"type": "function",
			"name": "payHookSpecificationsOf",
			"inputs": [
				{
					"name": "revnetId",
					"type": "uint256",
					"internalType": "uint256"
				}
			],
			"outputs": [
				{
					"name": "",
					"type": "tuple[]",
					"internalType": "struct JBPayHookSpecification[]",
					"components": [
						{
							"name": "hook",
							"type": "address",
							"internalType": "contract IJBPayHook"
						},
						{
							"name": "amount",
							"type": "uint256",
							"internalType": "uint256"
						},
						{
							"name": "metadata",
							"type": "bytes",
							"internalType": "bytes"
						}
					]
				}
			],
			"stateMutability": "view"
		},
		{
			"type": "function",
			"name": "replaceOperatorOf",
			"inputs": [
				{
					"name": "revnetId",
					"type": "uint256",
					"internalType": "uint256"
				},
				{
					"name": "newOperator",
					"type": "address",
					"internalType": "address"
				}
			],
			"outputs": [],
			"stateMutability": "nonpayable"
		},
		{
			"type": "function",
			"name": "supportsInterface",
			"inputs": [
				{
					"name": "interfaceId",
					"type": "bytes4",
					"internalType": "bytes4"
				}
			],
			"outputs": [
				{
					"name": "",
					"type": "bool",
					"internalType": "bool"
				}
			],
			"stateMutability": "view"
		},
		{
			"type": "error",
			"name": "REVBasicDeployer_ExitDelayInEffect",
			"inputs": []
		},
		{
			"type": "error",
			"name": "REVBasicDeployer_Unauthorized",
			"inputs": []
		}
	],
	"solcInputHash": "755eaa4b05c760d07dfe902eb8cdf8f4",
	"args": [
		"0xdAF6226Aafe296bbCCBEC815133386Cd910Ed582",
		"0x4Be9d88bE6e7A38644EA746cF78cB1BF30051C76"
	],
	"bytecode": "0x60c06040523480156200001157600080fd5b5060405162004466380380620044668339810160408190526200003491620000a9565b6001600160a01b039182166080521660a0526002805460018181018355600083905260127f405787fa12a823e0f2b7631cc41b3ba8828b3321ca811111fa75cd3aa3bb5ace9283015582549081019092556019910155620000e8565b6001600160a01b0381168114620000a657600080fd5b50565b60008060408385031215620000bd57600080fd5b8251620000ca8162000090565b6020840151909250620000dd8162000090565b809150509250929050565b60805160a0516142e162000185600039600081816102920152818161070201528181610aed015281816111be0152818161155401528181611beb0152611c8a0152600081816102cc0152818161038b01528181610c2701528181610dda01528181610fb6015281816113120152818161161001528181611752015281816117f70152818161189301528181611a1c0152611b3501526142e16000f3fe608060405234801561001057600080fd5b50600436106100ea5760003560e01c80637485ecf31161008c578063aaf320d711610066578063aaf320d71461026a578063b5d255331461028d578063bb199402146102b4578063ee0fc121146102c757600080fd5b80637485ecf31461023857806389b396ab1461024b5780639d82ba251461026057600080fd5b80634c4ffc71116100c85780634c4ffc71146101895780635c0a7cee146101aa578063677ce088146101ca5780637249a773146101dd57600080fd5b806301ffc9a7146100ef578063150b7a021461011757806343681e151461015b575b600080fd5b6101026100fd3660046125bf565b6102ee565b60405190151581526020015b60405180910390f35b61012a61012536600461263d565b610387565b6040517fffffffff00000000000000000000000000000000000000000000000000000000909116815260200161010e565b61017b6101693660046126dc565b60016020526000908152604090205481565b60405190815260200161010e565b61019c6101973660046126f5565b61049b565b60405161010e92919061284b565b6101bd6101b83660046126dc565b610953565b60405161010e919061286c565b6101026101d836600461287f565b610a84565b6102136101eb3660046126dc565b60006020819052908152604090205473ffffffffffffffffffffffffffffffffffffffff1681565b60405173ffffffffffffffffffffffffffffffffffffffff909116815260200161010e565b61017b610246366004613018565b610c0b565b61025e61025936600461287f565b610c25565b005b61017b6276a70081565b61027d6102783660046131c3565b6111a1565b60405161010e94939291906131ff565b6102137f000000000000000000000000000000000000000000000000000000000000000081565b61025e6102c23660046132ca565b611310565b6102137f000000000000000000000000000000000000000000000000000000000000000081565b60007fffffffff0000000000000000000000000000000000000000000000000000000082167f81c03c2e00000000000000000000000000000000000000000000000000000000148061038157507f01ffc9a7000000000000000000000000000000000000000000000000000000007fffffffff000000000000000000000000000000000000000000000000000000008316145b92915050565b60007f000000000000000000000000000000000000000000000000000000000000000073ffffffffffffffffffffffffffffffffffffffff1663293c49996040518163ffffffff1660e01b8152600401602060405180830381865afa1580156103f4573d6000803e3d6000fd5b505050506040513d601f19601f82011682018060405250810190610418919061334e565b73ffffffffffffffffffffffffffffffffffffffff163373ffffffffffffffffffffffffffffffffffffffff161461044f57600080fd5b73ffffffffffffffffffffffffffffffffffffffff85161561047057600080fd5b507f150b7a020000000000000000000000000000000000000000000000000000000095945050505050565b60c0810135600090815260208190526040812054606090819073ffffffffffffffffffffffffffffffffffffffff16801561058b576040517f4c4ffc7100000000000000000000000000000000000000000000000000000000815273ffffffffffffffffffffffffffffffffffffffff821690634c4ffc7190610522908890600401613461565b600060405180830381865afa15801561053f573d6000803e3d6000fd5b505050506040513d6000823e601f3d9081017fffffffffffffffffffffffffffffffffffffffffffffffffffffffffffffffe01682016040526105859190810190613550565b90945091505b815160c086013560009081526003602090815260408083208054825181850281018501909352808352941515949192909190849084015b828210156106b35760008481526020908190206040805160608101825260038602909201805473ffffffffffffffffffffffffffffffffffffffff16835260018101549383019390935260028301805492939291840191610622906136b6565b80601f016020809104026020016040519081016040528092919081815260200182805461064e906136b6565b801561069b5780601f106106705761010080835404028352916020019161069b565b820191906000526020600020905b81548152906001019060200180831161067e57829003601f168201915b505050505081525050815260200190600101906105c2565b50506040517f3d12cb8700000000000000000000000000000000000000000000000000000000815260c08b0135600482015292935060009273ffffffffffffffffffffffffffffffffffffffff7f0000000000000000000000000000000000000000000000000000000000000000169250633d12cb879150602401600060405180830381865afa15801561074b573d6000803e3d6000fd5b505050506040513d6000823e601f3d9081017fffffffffffffffffffffffffffffffffffffffffffffffffffffffffffffffe01682016040526107919190810190613709565b8251815191925090846107a55760006107a8565b60015b60ff166107b582846137d2565b6107bf91906137d2565b67ffffffffffffffff8111156107d7576107d76128af565b60405190808252806020026020018201604052801561082457816020015b604080516060808201835260008083526020830152918101919091528152602001906001900390816107f55790505b50975060005b8281101561087157848181518110610844576108446137e5565b602002602001015189828151811061085e5761085e6137e5565b602090810291909101015260010161082a565b5060005b8181101561090757604051806060016040528085838151811061089a5761089a6137e5565b602002602001015173ffffffffffffffffffffffffffffffffffffffff16815260200160008152602001604051806020016040528060008152508152508982856108e491906137d2565b815181106108f4576108f46137e5565b6020908102919091010152600101610875565b5084156109475786600081518110610921576109216137e5565b602002602001015188838151811061093b5761093b6137e5565b60200260200101819052505b50505050505050915091565b606060036000838152602001908152602001600020805480602002602001604051908101604052809291908181526020016000905b82821015610a795760008481526020908190206040805160608101825260038602909201805473ffffffffffffffffffffffffffffffffffffffff168352600181015493830193909352600283018054929392918401916109e8906136b6565b80601f0160208091040260200160405190810160405280929190818152602001828054610a14906136b6565b8015610a615780601f10610a3657610100808354040283529160200191610a61565b820191906000526020600020905b815481529060010190602001808311610a4457829003601f168201915b50505050508152505081526020019060010190610988565b505050509050919050565b60008281526020819052604081205473ffffffffffffffffffffffffffffffffffffffff90811690831603610abb57506001610381565b6040517f3d12cb87000000000000000000000000000000000000000000000000000000008152600481018490526000907f000000000000000000000000000000000000000000000000000000000000000073ffffffffffffffffffffffffffffffffffffffff1690633d12cb8790602401600060405180830381865afa158015610b49573d6000803e3d6000fd5b505050506040513d6000823e601f3d9081017fffffffffffffffffffffffffffffffffffffffffffffffffffffffffffffffe0168201604052610b8f9190810190613709565b805190915060005b81811015610bff57828181518110610bb157610bb16137e5565b602002602001015173ffffffffffffffffffffffffffffffffffffffff168573ffffffffffffffffffffffffffffffffffffffff1603610bf75760019350505050610381565b600101610b97565b50600095945050505050565b6000610c1c858585306000876115f7565b95945050505050565b7f000000000000000000000000000000000000000000000000000000000000000073ffffffffffffffffffffffffffffffffffffffff16631f47ce696040518163ffffffff1660e01b8152600401602060405180830381865afa158015610c90573d6000803e3d6000fd5b505050506040513d601f19601f82011682018060405250810190610cb4919061334e565b73ffffffffffffffffffffffffffffffffffffffff1663f434c9146040518163ffffffff1660e01b8152600401602060405180830381865afa158015610cfe573d6000803e3d6000fd5b505050506040513d601f19601f82011682018060405250810190610d22919061334e565b73ffffffffffffffffffffffffffffffffffffffff16630f5932f033308560026040518563ffffffff1660e01b8152600401610d619493929190613814565b602060405180830381865afa158015610d7e573d6000803e3d6000fd5b505050506040513d601f19601f82011682018060405250810190610da29190613892565b610dd8576040517f31fb21f300000000000000000000000000000000000000000000000000000000815260040160405180910390fd5b7f000000000000000000000000000000000000000000000000000000000000000073ffffffffffffffffffffffffffffffffffffffff16631f47ce696040518163ffffffff1660e01b8152600401602060405180830381865afa158015610e43573d6000803e3d6000fd5b505050506040513d601f19601f82011682018060405250810190610e67919061334e565b73ffffffffffffffffffffffffffffffffffffffff1663f434c9146040518163ffffffff1660e01b8152600401602060405180830381865afa158015610eb1573d6000803e3d6000fd5b505050506040513d601f19601f82011682018060405250810190610ed5919061334e565b73ffffffffffffffffffffffffffffffffffffffff166305d2912e3060405180606001604052803373ffffffffffffffffffffffffffffffffffffffff168152602001868152602001600067ffffffffffffffff811115610f3857610f386128af565b604051908082528060200260200182016040528015610f61578160200160208202803683370190505b508152506040518363ffffffff1660e01b8152600401610f829291906138b4565b600060405180830381600087803b158015610f9c57600080fd5b505af1158015610fb0573d6000803e3d6000fd5b505050507f000000000000000000000000000000000000000000000000000000000000000073ffffffffffffffffffffffffffffffffffffffff16631f47ce696040518163ffffffff1660e01b8152600401602060405180830381865afa15801561101f573d6000803e3d6000fd5b505050506040513d601f19601f82011682018060405250810190611043919061334e565b73ffffffffffffffffffffffffffffffffffffffff1663f434c9146040518163ffffffff1660e01b8152600401602060405180830381865afa15801561108d573d6000803e3d6000fd5b505050506040513d601f19601f820116820180604052508101906110b1919061334e565b73ffffffffffffffffffffffffffffffffffffffff166305d2912e3060405180606001604052808573ffffffffffffffffffffffffffffffffffffffff168152602001868152602001600280548060200260200160405190810160405280929190818152602001828054801561114657602002820191906000526020600020905b815481526020019060010190808311611132575b50505050508152506040518363ffffffff1660e01b815260040161116b9291906138b4565b600060405180830381600087803b15801561118557600080fd5b505af1158015611199573d6000803e3d6000fd5b505050505050565b60008080606073ffffffffffffffffffffffffffffffffffffffff7f0000000000000000000000000000000000000000000000000000000000000000166383db9d01604087018035906111f79060208a01613941565b6040517fffffffff0000000000000000000000000000000000000000000000000000000060e085901b168152600481019290925273ffffffffffffffffffffffffffffffffffffffff166024820152604401602060405180830381865afa158015611266573d6000803e3d6000fd5b505050506040513d601f19601f8201168201806040525081019061128a9190613892565b156112a75761271085608001358660a00135935093509350611309565b6040808601356000908152600160205220544210156112f2576040517f04c3b3cd00000000000000000000000000000000000000000000000000000000815260040160405180910390fd5b84610160013585608001358660a001359350935093505b9193509193565b7f000000000000000000000000000000000000000000000000000000000000000073ffffffffffffffffffffffffffffffffffffffff16631f47ce696040518163ffffffff1660e01b8152600401602060405180830381865afa15801561137b573d6000803e3d6000fd5b505050506040513d601f19601f8201168201806040525081019061139f919061334e565b73ffffffffffffffffffffffffffffffffffffffff1663f434c9146040518163ffffffff1660e01b8152600401602060405180830381865afa1580156113e9573d6000803e3d6000fd5b505050506040513d601f19601f8201168201806040525081019061140d919061334e565b73ffffffffffffffffffffffffffffffffffffffff16630f5932f033308660026040518563ffffffff1660e01b815260040161144c9493929190613814565b602060405180830381865afa158015611469573d6000803e3d6000fd5b505050506040513d601f19601f8201168201806040525081019061148d9190613892565b6114c3576040517f31fb21f300000000000000000000000000000000000000000000000000000000815260040160405180910390fd5b6000338383602001516040516020016114de9392919061395e565b604080517fffffffffffffffffffffffffffffffffffffffffffffffffffffffffffffffe081840301815290829052805160209091012083517f2f3f50e000000000000000000000000000000000000000000000000000000000835290925073ffffffffffffffffffffffffffffffffffffffff7f00000000000000000000000000000000000000000000000000000000000000001691632f3f50e09161158b91889186916004016139b0565b6000604051808303816000875af11580156115aa573d6000803e3d6000fd5b505050506040513d6000823e601f3d9081017fffffffffffffffffffffffffffffffffffffffffffffffffffffffffffffffe01682016040526115f09190810190613709565b5050505050565b6000806000806116088a8888611dc2565b9250925092507f000000000000000000000000000000000000000000000000000000000000000073ffffffffffffffffffffffffffffffffffffffff16630634bae9308c6000015160400151868d8f600001516020015160405160200161166f9190613aad565b6040516020818303038152906040526040518663ffffffff1660e01b815260040161169e959493929190613ed9565b6020604051808303816000875af11580156116bd573d6000803e3d6000fd5b505050506040513d601f19601f820116820180604052508101906116e1919061403e565b93508015611706576116f66276a700426137d2565b6000858152600160205260409020555b8951805160208201516060909201516040517f5817819100000000000000000000000000000000000000000000000000000000815273ffffffffffffffffffffffffffffffffffffffff7f0000000000000000000000000000000000000000000000000000000000000000169363581781919361178a938a93919291600401614057565b6020604051808303816000875af11580156117a9573d6000803e3d6000fd5b505050506040513d601f19601f820116820180604052508101906117cd919061334e565b50875173ffffffffffffffffffffffffffffffffffffffff16156117f5576117f584896122c4565b7f000000000000000000000000000000000000000000000000000000000000000073ffffffffffffffffffffffffffffffffffffffff1663dd5f214a8560006118418e60600151612449565b6040518463ffffffff1660e01b815260040161185f93929190614094565b600060405180830381600087803b15801561187957600080fd5b505af115801561188d573d6000803e3d6000fd5b505050507f000000000000000000000000000000000000000000000000000000000000000073ffffffffffffffffffffffffffffffffffffffff1663f434c9146040518163ffffffff1660e01b8152600401602060405180830381865afa1580156118fc573d6000803e3d6000fd5b505050506040513d601f19601f82011682018060405250810190611920919061334e565b73ffffffffffffffffffffffffffffffffffffffff166305d2912e3060405180606001604052808e6060015173ffffffffffffffffffffffffffffffffffffffff16815260200188815260200160028054806020026020016040519081016040528092919081815260200182805480156119b957602002820191906000526020600020905b8154815260200190600101908083116119a5575b50505050508152506040518363ffffffff1660e01b81526004016119de9291906138b4565b600060405180830381600087803b1580156119f857600080fd5b505af1158015611a0c573d6000803e3d6000fd5b5050505060408a015115611af0577f000000000000000000000000000000000000000000000000000000000000000073ffffffffffffffffffffffffffffffffffffffff1663c7fb92de858c604001518d606001518e6000015160200151604051602001611a7a91906141ae565b60405160208183030381529060405260006040518663ffffffff1660e01b8152600401611aab95949392919061421a565b6020604051808303816000875af1158015611aca573d6000803e3d6000fd5b505050506040513d601f19601f82011682018060405250810190611aee919061403e565b505b60408051600180825281830190925260009160208083019080368337019050509050601d81600081518110611b2757611b276137e5565b6020026020010181815250507f000000000000000000000000000000000000000000000000000000000000000073ffffffffffffffffffffffffffffffffffffffff1663f434c9146040518163ffffffff1660e01b8152600401602060405180830381865afa158015611b9e573d6000803e3d6000fd5b505050506040513d601f19601f82011682018060405250810190611bc2919061334e565b73ffffffffffffffffffffffffffffffffffffffff166305d2912e3060405180606001604052807f000000000000000000000000000000000000000000000000000000000000000073ffffffffffffffffffffffffffffffffffffffff168152602001898152602001858152506040518363ffffffff1660e01b8152600401611c4c9291906138b4565b600060405180830381600087803b158015611c6657600080fd5b505af1158015611c7a573d6000803e3d6000fd5b50505050602086015115611db4577f000000000000000000000000000000000000000000000000000000000000000073ffffffffffffffffffffffffffffffffffffffff16632f3f50e08633868a60200151604051602001611cde9392919061395e565b604080517fffffffffffffffffffffffffffffffffffffffffffffffffffffffffffffffe08184030181529082905280516020909101208a517fffffffff0000000000000000000000000000000000000000000000000000000060e086901b168352611d4d93926004016139b0565b6000604051808303816000875af1158015611d6c573d6000803e3d6000fd5b505050506040513d6000823e601f3d9081017fffffffffffffffffffffffffffffffffffffffffffffffffffffffffffffffe0168201604052611db29190810190613709565b505b505050509695505050505050565b60608060008086608001515190508067ffffffffffffffff811115611de957611de96128af565b604051908082528060200260200182016040528015611edb57816020015b611ec86040805161010080820183526000808352602080840182905283850182905260608085018390526080808601849052865161020081018852848152928301849052958201839052810182905293840181905260a084810182905260c0850182905260e0850182905291840181905261012084018190526101408401819052610160840181905261018084018190526101a084018190526101c084018190526101e0840152909190820190815260200160608152602001606081525090565b815260200190600190039081611e075790505b5093508660200151604051602001611eff919063ffffffff91909116815260200190565b604080518083037fffffffffffffffffffffffffffffffffffffffffffffffffffffffffffffffe001815260c083018252600080845260208401819052918301829052606083018290526080830182905260a0830182905294505b828110156122b85788608001518181518110611f7857611f786137e5565b60200260200101519150816000015164ffffffffff16868281518110611fa057611fa06137e5565b60200260200101516000018181525050816060015164ffffffffff16868281518110611fce57611fce6137e5565b6020026020010151602001818152505081604001516dffffffffffffffffffffffffffff16868281518110612005576120056137e5565b60200260200101516040018181525050816080015163ffffffff16868281518110612032576120326137e5565b602002602001015160600181815250506000868281518110612056576120566137e5565b60200260200101516080019073ffffffffffffffffffffffffffffffffffffffff16908173ffffffffffffffffffffffffffffffffffffffff1681525050604051806102000160405280836020015161ffff1681526020018360a0015161ffff166127106120c49190614269565b815260208b81015163ffffffff16908201526000604082018190526060820181905260016080830181905260a0830182905260c0830182905260e0830182905261010083018290526101208301829052610140830182905261016083015261018082015273ffffffffffffffffffffffffffffffffffffffff8a166101a08201526101c0018890528651879083908110612160576121606137e5565b602002602001015160a001819052508060001480156121865750815164ffffffffff1615155b801561219c575042826000015164ffffffffff16105b156121a657600193505b84811580156121bb5750825164ffffffffff16155b6121cd57825164ffffffffff166121cf565b425b83602001518460400151856060015186608001518760a001516040516020016122449695949392919095865261ffff94851660208701526dffffffffffffffffffffffffffff93909316604086015264ffffffffff91909116606085015263ffffffff1660808401521660a082015260c00190565b604080517fffffffffffffffffffffffffffffffffffffffffffffffffffffffffffffffe081840301815290829052612280929160200161427c565b604080517fffffffffffffffffffffffffffffffffffffffffffffffffffffffffffffffe08184030181529190529450600101611f5a565b50505093509350939050565b602081810151516040805160808101825260008082529381018490529081018390526060810183905290915b828110156123f0578360200151818151811061230e5761230e6137e5565b6020908102919091018101518551918101516040808301516060840151845192517f7b621d3a000000000000000000000000000000000000000000000000000000008152600481018c905262ffffff909416602485015263ffffffff918216604485015216606483015273ffffffffffffffffffffffffffffffffffffffff9081166084830152919450911690637b621d3a9060a4016020604051808303816000875af11580156123c3573d6000803e3d6000fd5b505050506040513d601f19601f820116820180604052508101906123e7919061334e565b506001016122f0565b5050905160009283526020839052604090922080547fffffffffffffffffffffffff00000000000000000000000000000000000000001673ffffffffffffffffffffffffffffffffffffffff9093169290921790915550565b604080516001808252818301909252606091816020015b60408051808201909152600081526060602082015281526020019060019003908161246057505060408051600180825281830190925291925060009190602082015b6040805160c08101825260008082526020808301829052928201819052606082018190526080820181905260a082015282527fffffffffffffffffffffffffffffffffffffffffffffffffffffffffffffffff9092019101816124a25790505090506040518060c00160405280600015158152602001633b9aca008152602001600081526020018473ffffffffffffffffffffffffffffffffffffffff16815260200160008152602001600073ffffffffffffffffffffffffffffffffffffffff168152508160008151811061257a5761257a6137e5565b602002602001018190525060405180604001604052806001815260200182815250826000815181106125ae576125ae6137e5565b602002602001018190525050919050565b6000602082840312156125d157600080fd5b81357fffffffff000000000000000000000000000000000000000000000000000000008116811461260157600080fd5b9392505050565b73ffffffffffffffffffffffffffffffffffffffff8116811461262a57600080fd5b50565b803561263881612608565b919050565b60008060008060006080868803121561265557600080fd5b853561266081612608565b9450602086013561267081612608565b935060408601359250606086013567ffffffffffffffff8082111561269457600080fd5b818801915088601f8301126126a857600080fd5b8135818111156126b757600080fd5b8960208285010111156126c957600080fd5b9699959850939650602001949392505050565b6000602082840312156126ee57600080fd5b5035919050565b60006020828403121561270757600080fd5b813567ffffffffffffffff81111561271e57600080fd5b8201610180818503121561260157600080fd5b60005b8381101561274c578181015183820152602001612734565b50506000910152565b6000815180845261276d816020860160208601612731565b601f017fffffffffffffffffffffffffffffffffffffffffffffffffffffffffffffffe0169290920160200192915050565b600082825180855260208086019550808260051b84010181860160005b8481101561283e578583037fffffffffffffffffffffffffffffffffffffffffffffffffffffffffffffffe00189528151805173ffffffffffffffffffffffffffffffffffffffff168452848101518585015260409081015160609185018290529061282a81860183612755565b9a86019a94505050908301906001016127bc565b5090979650505050505050565b828152604060208201526000612864604083018461279f565b949350505050565b602081526000612601602083018461279f565b6000806040838503121561289257600080fd5b8235915060208301356128a481612608565b809150509250929050565b7f4e487b7100000000000000000000000000000000000000000000000000000000600052604160045260246000fd5b60405160c0810167ffffffffffffffff81118282101715612901576129016128af565b60405290565b6040805190810167ffffffffffffffff81118282101715612901576129016128af565b6040516080810167ffffffffffffffff81118282101715612901576129016128af565b60405160a0810167ffffffffffffffff81118282101715612901576129016128af565b6040516060810167ffffffffffffffff81118282101715612901576129016128af565b604051601f82017fffffffffffffffffffffffffffffffffffffffffffffffffffffffffffffffe016810167ffffffffffffffff811182821017156129da576129da6128af565b604052919050565b600067ffffffffffffffff8211156129fc576129fc6128af565b50601f017fffffffffffffffffffffffffffffffffffffffffffffffffffffffffffffffe01660200190565b6000612a3b612a36846129e2565b612993565b9050828152838383011115612a4f57600080fd5b828260208301376000602084830101529392505050565b600082601f830112612a7757600080fd5b61260183833560208501612a28565b803563ffffffff8116811461263857600080fd5b600067ffffffffffffffff821115612ab457612ab46128af565b5060051b60200190565b803564ffffffffff8116811461263857600080fd5b803561ffff8116811461263857600080fd5b600082601f830112612af657600080fd5b81356020612b06612a3683612a9a565b82815260c09283028501820192828201919087851115612b2557600080fd5b8387015b8581101561283e5781818a031215612b415760008081fd5b612b496128de565b612b5282612abe565b8152612b5f868301612ad3565b868201526040808301356dffffffffffffffffffffffffffff81168114612b865760008081fd5b908201526060612b97838201612abe565b908201526080612ba8838201612a86565b9082015260a0612bb9838201612ad3565b908201528452928401928101612b29565b600082601f830112612bdb57600080fd5b81356020612beb612a3683612a9a565b828152600592831b8501820192828201919087851115612c0a57600080fd5b8387015b8581101561283e57803567ffffffffffffffff80821115612c2f5760008081fd5b818a0191506040807fffffffffffffffffffffffffffffffffffffffffffffffffffffffffffffffe0848e03011215612c685760008081fd5b612c70612907565b88840135612c7d81612608565b81528382013583811115612c915760008081fd5b8085019450508c603f850112612ca957600092508283fd5b888401359250612cbb612a3684612a9a565b83815292861b8401820192898101908e851115612cd85760008081fd5b948301945b84861015612d025785359350612cf284612608565b838252948a0194908a0190612cdd565b828b0152508752505050928401928401612c0e565b60006040808385031215612d2a57600080fd5b612d32612907565b91508235612d3f81612608565b825260208381013567ffffffffffffffff811115612d5c57600080fd5b8401601f81018613612d6d57600080fd5b8035612d7b612a3682612a9a565b81815260079190911b82018301908381019088831115612d9a57600080fd5b928401925b82841015612e19576080848a031215612db85760008081fd5b612dc061292a565b8435612dcb81612608565b81528486013562ffffff81168114612de35760008081fd5b81870152612df2858801612a86565b878201526060612e03818701612a86565b9082015282526080939093019290840190612d9f565b808588015250505050505092915050565b600060408284031215612e3c57600080fd5b612e44612907565b905067ffffffffffffffff8083351115612e5d57600080fd5b8235830184601f820112612e7057600080fd5b612e7d612a368235612a9a565b81358082526020808301929160051b84010187811115612e9c57600080fd5b602084015b81811015612fff578581351115612eb757600080fd5b8035850160407fffffffffffffffffffffffffffffffffffffffffffffffffffffffffffffffe0828c03011215612eed57600080fd5b612ef5612907565b612f026020830135612608565b602082013581528760408301351115612f1a57600080fd5b6040820135820191508a603f830112612f3257600080fd5b6020820135612f43612a3682612a9a565b81815260079190911b83016040019060208101908d831115612f6457600080fd5b6040850194505b82851015612fe0576080858f031215612f8357600080fd5b612f8b61292a565b612f958635612608565b85358152612fa560208701612a86565b6020820152612fb76040870135612608565b604086013560408201526060860135606082015280835250602082019150608085019450612f6b565b8060208501525050508086525050602084019350602081019050612ea1565b5050808552505050506020820135602082015292915050565b6000806000806080858703121561302e57600080fd5b843567ffffffffffffffff8082111561304657600080fd5b9086019060a0828903121561305a57600080fd5b61306261294d565b82358281111561307157600080fd5b83016080818b03121561308357600080fd5b61308b61292a565b81358481111561309a57600080fd5b6130a68c828501612a66565b8252506020820135848111156130bb57600080fd5b6130c78c828501612a66565b6020830152506040820135848111156130df57600080fd5b6130eb8c828501612a66565b60408301525060608201356060820152808352505061310c60208401612a86565b6020820152604083013560408201526131276060840161262d565b606082015260808301358281111561313e57600080fd5b61314a8a828601612ae5565b6080830152509550602087013591508082111561316657600080fd5b61317288838901612bca565b9450604087013591508082111561318857600080fd5b61319488838901612d17565b935060608701359150808211156131aa57600080fd5b506131b787828801612e2a565b91505092959194509250565b6000602082840312156131d557600080fd5b813567ffffffffffffffff8111156131ec57600080fd5b82016101a0818503121561260157600080fd5b60006080820186835260208681850152604086604086015260606080606087015283875180865260a08801915060a08160051b890101955084890160005b828110156132b8578988037fffffffffffffffffffffffffffffffffffffffffffffffffffffffffffffff600184528151805173ffffffffffffffffffffffffffffffffffffffff16895287810151888a01528601518689018690526132a5868a0182612755565b985050928601929086019060010161323d565b50959c9b505050505050505050505050565b6000806000606084860312156132df57600080fd5b83359250602084013567ffffffffffffffff808211156132fe57600080fd5b818601915086601f83011261331257600080fd5b61332187833560208501612a28565b9350604086013591508082111561333757600080fd5b5061334486828701612e2a565b9150509250925092565b60006020828403121561336057600080fd5b815161260181612608565b803561337681612608565b73ffffffffffffffffffffffffffffffffffffffff1682526020818101359083015260408082013590830152606090810135910152565b60008083357fffffffffffffffffffffffffffffffffffffffffffffffffffffffffffffffe18436030181126133e257600080fd5b830160208101925035905067ffffffffffffffff81111561340257600080fd5b80360382131561341157600080fd5b9250929050565b8183528181602085013750600060208284010152600060207fffffffffffffffffffffffffffffffffffffffffffffffffffffffffffffffe0601f840116840101905092915050565b6020815261348f602082016134758461262d565b73ffffffffffffffffffffffffffffffffffffffff169052565b600061349d6020840161262d565b73ffffffffffffffffffffffffffffffffffffffff81166040840152506134ca606083016040850161336b565b60c083013560e083015261010060e0840135818401526134eb81850161262d565b90506101206135118185018373ffffffffffffffffffffffffffffffffffffffff169052565b61014091508085013582850152506101608185013581850152613536818601866133ad565b6101808681015292509050610c1c6101a085018383613418565b600080604080848603121561356457600080fd5b8351925060208085015167ffffffffffffffff8082111561358457600080fd5b818701915087601f83011261359857600080fd5b81516135a6612a3682612a9a565b81815260059190911b8301840190848101908a8311156135c557600080fd5b8585015b838110156136a4578051858111156135e057600080fd5b86016060818e037fffffffffffffffffffffffffffffffffffffffffffffffffffffffffffffffe00112156136155760008081fd5b61361d612970565b8882015161362a81612608565b8152818a0151898201526060820151878111156136475760008081fd5b8083019250508d603f83011261365d5760008081fd5b8882015161366d612a36826129e2565b8181528f8c8386010111156136825760008081fd5b613691828c83018e8701612731565b828c0152508452509186019186016135c9565b50809750505050505050509250929050565b600181811c908216806136ca57607f821691505b602082108103613703577f4e487b7100000000000000000000000000000000000000000000000000000000600052602260045260246000fd5b50919050565b6000602080838503121561371c57600080fd5b825167ffffffffffffffff81111561373357600080fd5b8301601f8101851361374457600080fd5b8051613752612a3682612a9a565b81815260059190911b8201830190838101908783111561377157600080fd5b928401925b8284101561379857835161378981612608565b82529284019290840190613776565b979650505050505050565b7f4e487b7100000000000000000000000000000000000000000000000000000000600052601160045260246000fd5b80820180821115610381576103816137a3565b7f4e487b7100000000000000000000000000000000000000000000000000000000600052603260045260246000fd5b60006080820173ffffffffffffffffffffffffffffffffffffffff80881684526020818816602086015286604086015260806060860152829150855480845260a086019250866000526020600020935060005b8181101561388357845484526001948501949383019301613867565b50919998505050505050505050565b6000602082840312156138a457600080fd5b8151801515811461260157600080fd5b600073ffffffffffffffffffffffffffffffffffffffff808516835260206040602085015260a0840182865116604086015260208601516060860152604086015192506060608086015280835180835260c087019150602085019450600092505b808310156139355784518252938301936001929092019190830190613915565b50979650505050505050565b60006020828403121561395357600080fd5b813561260181612608565b7fffffffffffffffffffffffffffffffffffffffff0000000000000000000000008460601b1681526000835161399b816014850160208801612731565b60149201918201929092526034019392505050565b600060608083018684526020868186015260406060604087015282875180855260808801915060808160051b89010194508389016000805b838110156132b8578a88037fffffffffffffffffffffffffffffffffffffffffffffffffffffffffffffff800185528251805173ffffffffffffffffffffffffffffffffffffffff9081168a5290880151888a018890528051888b018190529089019184918c8c01905b80841015613a975784518051841683528c81015163ffffffff168d8401528b81015184168c8401528e01518e830152938b019360019390930192608090910190613a52565b509a5050509487019450918601916001016139e8565b7f2400000000000000000000000000000000000000000000000000000000000000815260008251613ae5816001850160208701612731565b7f207265766e6574206465706c6f796564000000000000000000000000000000006001939091019283015250601101919050565b8051825260208101516020830152604081015160408301526060810151613b44606084018215159052565b506080810151613b58608084018215159052565b5060a0810151613b6c60a084018215159052565b5060c0810151613b8060c084018215159052565b5060e0810151613b9460e084018215159052565b5061010081810151151590830152610120808201511515908301526101408082015115159083015261016080820151151590830152610180808201511515908301526101a0808201511515908301526101c08082015173ffffffffffffffffffffffffffffffffffffffff16908301526101e090810151910152565b600082825180855260208086019550808260051b8401018186016000805b85811015613d01578684037fffffffffffffffffffffffffffffffffffffffffffffffffffffffffffffffe0018a52825180518552850151604086860181905281518187018190529187019160609081880190865b81811015613cea5785518051151584528b8101518c85015285810151868501528481015173ffffffffffffffffffffffffffffffffffffffff908116868601526080808301519086015260a0918201511690840152948a019460c090920191600101613c83565b50509c88019c965050509285019250600101613c2e565b509198975050505050505050565b60008151808452602080850194506020840160005b83811015613d4b578151805188528301518388015260409096019590820190600101613d24565b509495945050505050565b600082825180855260208086019550808260051b84010181860160005b8481101561283e577fffffffffffffffffffffffffffffffffffffffffffffffffffffffffffffffe08684030189528151608073ffffffffffffffffffffffffffffffffffffffff80835116865280878401511687870152506040808301518282880152613de383880182613d0f565b9250505060608083015192508582038187015250613e018183613d0f565b9a86019a9450505090830190600101613d73565b600082825180855260208086019550808260051b8401018186016000805b85811015613d01578684037fffffffffffffffffffffffffffffffffffffffffffffffffffffffffffffffe0018a528251805173ffffffffffffffffffffffffffffffffffffffff908116865290860151604087870181905281519087018190529087019160608701918591905b80831015613ec357845182168452938901939289019260019290920191613ea1565b5050509a86019a94505091840191600101613e33565b600060a073ffffffffffffffffffffffffffffffffffffffff88168352602060a081850152613f0b60a0850189612755565b604085820360408701528189518084528484019150848160051b850101858c0160005b83811015614004577fffffffffffffffffffffffffffffffffffffffffffffffffffffffffffffffe087840301855281516102e081518552898201518a86015287820151888601526060808301518187015250608080830151613fa88288018273ffffffffffffffffffffffffffffffffffffffff169052565b50508a820151613fba8c870182613b19565b5060c0820151816102a0870152613fd382870182613c10565b91505060e082015191508481036102c0860152613ff08183613d56565b968a01969450505090870190600101613f2e565b505088810360608a0152614018818c613e15565b965050505050505082810360808401526140328185612755565b98975050505050505050565b60006020828403121561405057600080fd5b5051919050565b8481526080602082015260006140706080830186612755565b82810360408401526140828186612755565b91505082606083015295945050505050565b600060608083018684526020868186015260406060604087015282875180855260808801915060808160051b890101945083890160005b8281101561419d578987037fffffffffffffffffffffffffffffffffffffffffffffffffffffffffffffff800184528151805188528601518688018690528051868901819052908701906000908a8a01905b808310156141885783518051151583528a8101518b840152898101518a8401528c81015173ffffffffffffffffffffffffffffffffffffffff9081168e8501526080808301519085015260a0918201511690830152928901926001929092019160c09091019061411d565b509850505092850192908501906001016140cb565b50949b9a5050505050505050505050565b7f24000000000000000000000000000000000000000000000000000000000000008152600082516141e6816001850160208701612731565b7f207072656d696e746564000000000000000000000000000000000000000000006001939091019283015250600b01919050565b85815284602082015273ffffffffffffffffffffffffffffffffffffffff8416604082015260a06060820152600061425560a0830185612755565b905082151560808301529695505050505050565b81810381811115610381576103816137a3565b6000835161428e818460208801612731565b8351908301906142a2818360208801612731565b0194935050505056fea2646970667358221220aa240b6402e2186bb4dc70aa539adda1aa1fc16088ca90c6ea9cea43495294e864736f6c63430008170033",
	"deployedBytecode": "0x608060405234801561001057600080fd5b50600436106100ea5760003560e01c80637485ecf31161008c578063aaf320d711610066578063aaf320d71461026a578063b5d255331461028d578063bb199402146102b4578063ee0fc121146102c757600080fd5b80637485ecf31461023857806389b396ab1461024b5780639d82ba251461026057600080fd5b80634c4ffc71116100c85780634c4ffc71146101895780635c0a7cee146101aa578063677ce088146101ca5780637249a773146101dd57600080fd5b806301ffc9a7146100ef578063150b7a021461011757806343681e151461015b575b600080fd5b6101026100fd3660046125bf565b6102ee565b60405190151581526020015b60405180910390f35b61012a61012536600461263d565b610387565b6040517fffffffff00000000000000000000000000000000000000000000000000000000909116815260200161010e565b61017b6101693660046126dc565b60016020526000908152604090205481565b60405190815260200161010e565b61019c6101973660046126f5565b61049b565b60405161010e92919061284b565b6101bd6101b83660046126dc565b610953565b60405161010e919061286c565b6101026101d836600461287f565b610a84565b6102136101eb3660046126dc565b60006020819052908152604090205473ffffffffffffffffffffffffffffffffffffffff1681565b60405173ffffffffffffffffffffffffffffffffffffffff909116815260200161010e565b61017b610246366004613018565b610c0b565b61025e61025936600461287f565b610c25565b005b61017b6276a70081565b61027d6102783660046131c3565b6111a1565b60405161010e94939291906131ff565b6102137f0000000000000000000000004be9d88be6e7a38644ea746cf78cb1bf30051c7681565b61025e6102c23660046132ca565b611310565b6102137f000000000000000000000000daf6226aafe296bbccbec815133386cd910ed58281565b60007fffffffff0000000000000000000000000000000000000000000000000000000082167f81c03c2e00000000000000000000000000000000000000000000000000000000148061038157507f01ffc9a7000000000000000000000000000000000000000000000000000000007fffffffff000000000000000000000000000000000000000000000000000000008316145b92915050565b60007f000000000000000000000000daf6226aafe296bbccbec815133386cd910ed58273ffffffffffffffffffffffffffffffffffffffff1663293c49996040518163ffffffff1660e01b8152600401602060405180830381865afa1580156103f4573d6000803e3d6000fd5b505050506040513d601f19601f82011682018060405250810190610418919061334e565b73ffffffffffffffffffffffffffffffffffffffff163373ffffffffffffffffffffffffffffffffffffffff161461044f57600080fd5b73ffffffffffffffffffffffffffffffffffffffff85161561047057600080fd5b507f150b7a020000000000000000000000000000000000000000000000000000000095945050505050565b60c0810135600090815260208190526040812054606090819073ffffffffffffffffffffffffffffffffffffffff16801561058b576040517f4c4ffc7100000000000000000000000000000000000000000000000000000000815273ffffffffffffffffffffffffffffffffffffffff821690634c4ffc7190610522908890600401613461565b600060405180830381865afa15801561053f573d6000803e3d6000fd5b505050506040513d6000823e601f3d9081017fffffffffffffffffffffffffffffffffffffffffffffffffffffffffffffffe01682016040526105859190810190613550565b90945091505b815160c086013560009081526003602090815260408083208054825181850281018501909352808352941515949192909190849084015b828210156106b35760008481526020908190206040805160608101825260038602909201805473ffffffffffffffffffffffffffffffffffffffff16835260018101549383019390935260028301805492939291840191610622906136b6565b80601f016020809104026020016040519081016040528092919081815260200182805461064e906136b6565b801561069b5780601f106106705761010080835404028352916020019161069b565b820191906000526020600020905b81548152906001019060200180831161067e57829003601f168201915b505050505081525050815260200190600101906105c2565b50506040517f3d12cb8700000000000000000000000000000000000000000000000000000000815260c08b0135600482015292935060009273ffffffffffffffffffffffffffffffffffffffff7f0000000000000000000000004be9d88be6e7a38644ea746cf78cb1bf30051c76169250633d12cb879150602401600060405180830381865afa15801561074b573d6000803e3d6000fd5b505050506040513d6000823e601f3d9081017fffffffffffffffffffffffffffffffffffffffffffffffffffffffffffffffe01682016040526107919190810190613709565b8251815191925090846107a55760006107a8565b60015b60ff166107b582846137d2565b6107bf91906137d2565b67ffffffffffffffff8111156107d7576107d76128af565b60405190808252806020026020018201604052801561082457816020015b604080516060808201835260008083526020830152918101919091528152602001906001900390816107f55790505b50975060005b8281101561087157848181518110610844576108446137e5565b602002602001015189828151811061085e5761085e6137e5565b602090810291909101015260010161082a565b5060005b8181101561090757604051806060016040528085838151811061089a5761089a6137e5565b602002602001015173ffffffffffffffffffffffffffffffffffffffff16815260200160008152602001604051806020016040528060008152508152508982856108e491906137d2565b815181106108f4576108f46137e5565b6020908102919091010152600101610875565b5084156109475786600081518110610921576109216137e5565b602002602001015188838151811061093b5761093b6137e5565b60200260200101819052505b50505050505050915091565b606060036000838152602001908152602001600020805480602002602001604051908101604052809291908181526020016000905b82821015610a795760008481526020908190206040805160608101825260038602909201805473ffffffffffffffffffffffffffffffffffffffff168352600181015493830193909352600283018054929392918401916109e8906136b6565b80601f0160208091040260200160405190810160405280929190818152602001828054610a14906136b6565b8015610a615780601f10610a3657610100808354040283529160200191610a61565b820191906000526020600020905b815481529060010190602001808311610a4457829003601f168201915b50505050508152505081526020019060010190610988565b505050509050919050565b60008281526020819052604081205473ffffffffffffffffffffffffffffffffffffffff90811690831603610abb57506001610381565b6040517f3d12cb87000000000000000000000000000000000000000000000000000000008152600481018490526000907f0000000000000000000000004be9d88be6e7a38644ea746cf78cb1bf30051c7673ffffffffffffffffffffffffffffffffffffffff1690633d12cb8790602401600060405180830381865afa158015610b49573d6000803e3d6000fd5b505050506040513d6000823e601f3d9081017fffffffffffffffffffffffffffffffffffffffffffffffffffffffffffffffe0168201604052610b8f9190810190613709565b805190915060005b81811015610bff57828181518110610bb157610bb16137e5565b602002602001015173ffffffffffffffffffffffffffffffffffffffff168573ffffffffffffffffffffffffffffffffffffffff1603610bf75760019350505050610381565b600101610b97565b50600095945050505050565b6000610c1c858585306000876115f7565b95945050505050565b7f000000000000000000000000daf6226aafe296bbccbec815133386cd910ed58273ffffffffffffffffffffffffffffffffffffffff16631f47ce696040518163ffffffff1660e01b8152600401602060405180830381865afa158015610c90573d6000803e3d6000fd5b505050506040513d601f19601f82011682018060405250810190610cb4919061334e565b73ffffffffffffffffffffffffffffffffffffffff1663f434c9146040518163ffffffff1660e01b8152600401602060405180830381865afa158015610cfe573d6000803e3d6000fd5b505050506040513d601f19601f82011682018060405250810190610d22919061334e565b73ffffffffffffffffffffffffffffffffffffffff16630f5932f033308560026040518563ffffffff1660e01b8152600401610d619493929190613814565b602060405180830381865afa158015610d7e573d6000803e3d6000fd5b505050506040513d601f19601f82011682018060405250810190610da29190613892565b610dd8576040517f31fb21f300000000000000000000000000000000000000000000000000000000815260040160405180910390fd5b7f000000000000000000000000daf6226aafe296bbccbec815133386cd910ed58273ffffffffffffffffffffffffffffffffffffffff16631f47ce696040518163ffffffff1660e01b8152600401602060405180830381865afa158015610e43573d6000803e3d6000fd5b505050506040513d601f19601f82011682018060405250810190610e67919061334e565b73ffffffffffffffffffffffffffffffffffffffff1663f434c9146040518163ffffffff1660e01b8152600401602060405180830381865afa158015610eb1573d6000803e3d6000fd5b505050506040513d601f19601f82011682018060405250810190610ed5919061334e565b73ffffffffffffffffffffffffffffffffffffffff166305d2912e3060405180606001604052803373ffffffffffffffffffffffffffffffffffffffff168152602001868152602001600067ffffffffffffffff811115610f3857610f386128af565b604051908082528060200260200182016040528015610f61578160200160208202803683370190505b508152506040518363ffffffff1660e01b8152600401610f829291906138b4565b600060405180830381600087803b158015610f9c57600080fd5b505af1158015610fb0573d6000803e3d6000fd5b505050507f000000000000000000000000daf6226aafe296bbccbec815133386cd910ed58273ffffffffffffffffffffffffffffffffffffffff16631f47ce696040518163ffffffff1660e01b8152600401602060405180830381865afa15801561101f573d6000803e3d6000fd5b505050506040513d601f19601f82011682018060405250810190611043919061334e565b73ffffffffffffffffffffffffffffffffffffffff1663f434c9146040518163ffffffff1660e01b8152600401602060405180830381865afa15801561108d573d6000803e3d6000fd5b505050506040513d601f19601f820116820180604052508101906110b1919061334e565b73ffffffffffffffffffffffffffffffffffffffff166305d2912e3060405180606001604052808573ffffffffffffffffffffffffffffffffffffffff168152602001868152602001600280548060200260200160405190810160405280929190818152602001828054801561114657602002820191906000526020600020905b815481526020019060010190808311611132575b50505050508152506040518363ffffffff1660e01b815260040161116b9291906138b4565b600060405180830381600087803b15801561118557600080fd5b505af1158015611199573d6000803e3d6000fd5b505050505050565b60008080606073ffffffffffffffffffffffffffffffffffffffff7f0000000000000000000000004be9d88be6e7a38644ea746cf78cb1bf30051c76166383db9d01604087018035906111f79060208a01613941565b6040517fffffffff0000000000000000000000000000000000000000000000000000000060e085901b168152600481019290925273ffffffffffffffffffffffffffffffffffffffff166024820152604401602060405180830381865afa158015611266573d6000803e3d6000fd5b505050506040513d601f19601f8201168201806040525081019061128a9190613892565b156112a75761271085608001358660a00135935093509350611309565b6040808601356000908152600160205220544210156112f2576040517f04c3b3cd00000000000000000000000000000000000000000000000000000000815260040160405180910390fd5b84610160013585608001358660a001359350935093505b9193509193565b7f000000000000000000000000daf6226aafe296bbccbec815133386cd910ed58273ffffffffffffffffffffffffffffffffffffffff16631f47ce696040518163ffffffff1660e01b8152600401602060405180830381865afa15801561137b573d6000803e3d6000fd5b505050506040513d601f19601f8201168201806040525081019061139f919061334e565b73ffffffffffffffffffffffffffffffffffffffff1663f434c9146040518163ffffffff1660e01b8152600401602060405180830381865afa1580156113e9573d6000803e3d6000fd5b505050506040513d601f19601f8201168201806040525081019061140d919061334e565b73ffffffffffffffffffffffffffffffffffffffff16630f5932f033308660026040518563ffffffff1660e01b815260040161144c9493929190613814565b602060405180830381865afa158015611469573d6000803e3d6000fd5b505050506040513d601f19601f8201168201806040525081019061148d9190613892565b6114c3576040517f31fb21f300000000000000000000000000000000000000000000000000000000815260040160405180910390fd5b6000338383602001516040516020016114de9392919061395e565b604080517fffffffffffffffffffffffffffffffffffffffffffffffffffffffffffffffe081840301815290829052805160209091012083517f2f3f50e000000000000000000000000000000000000000000000000000000000835290925073ffffffffffffffffffffffffffffffffffffffff7f0000000000000000000000004be9d88be6e7a38644ea746cf78cb1bf30051c761691632f3f50e09161158b91889186916004016139b0565b6000604051808303816000875af11580156115aa573d6000803e3d6000fd5b505050506040513d6000823e601f3d9081017fffffffffffffffffffffffffffffffffffffffffffffffffffffffffffffffe01682016040526115f09190810190613709565b5050505050565b6000806000806116088a8888611dc2565b9250925092507f000000000000000000000000daf6226aafe296bbccbec815133386cd910ed58273ffffffffffffffffffffffffffffffffffffffff16630634bae9308c6000015160400151868d8f600001516020015160405160200161166f9190613aad565b6040516020818303038152906040526040518663ffffffff1660e01b815260040161169e959493929190613ed9565b6020604051808303816000875af11580156116bd573d6000803e3d6000fd5b505050506040513d601f19601f820116820180604052508101906116e1919061403e565b93508015611706576116f66276a700426137d2565b6000858152600160205260409020555b8951805160208201516060909201516040517f5817819100000000000000000000000000000000000000000000000000000000815273ffffffffffffffffffffffffffffffffffffffff7f000000000000000000000000daf6226aafe296bbccbec815133386cd910ed582169363581781919361178a938a93919291600401614057565b6020604051808303816000875af11580156117a9573d6000803e3d6000fd5b505050506040513d601f19601f820116820180604052508101906117cd919061334e565b50875173ffffffffffffffffffffffffffffffffffffffff16156117f5576117f584896122c4565b7f000000000000000000000000daf6226aafe296bbccbec815133386cd910ed58273ffffffffffffffffffffffffffffffffffffffff1663dd5f214a8560006118418e60600151612449565b6040518463ffffffff1660e01b815260040161185f93929190614094565b600060405180830381600087803b15801561187957600080fd5b505af115801561188d573d6000803e3d6000fd5b505050507f000000000000000000000000daf6226aafe296bbccbec815133386cd910ed58273ffffffffffffffffffffffffffffffffffffffff1663f434c9146040518163ffffffff1660e01b8152600401602060405180830381865afa1580156118fc573d6000803e3d6000fd5b505050506040513d601f19601f82011682018060405250810190611920919061334e565b73ffffffffffffffffffffffffffffffffffffffff166305d2912e3060405180606001604052808e6060015173ffffffffffffffffffffffffffffffffffffffff16815260200188815260200160028054806020026020016040519081016040528092919081815260200182805480156119b957602002820191906000526020600020905b8154815260200190600101908083116119a5575b50505050508152506040518363ffffffff1660e01b81526004016119de9291906138b4565b600060405180830381600087803b1580156119f857600080fd5b505af1158015611a0c573d6000803e3d6000fd5b5050505060408a015115611af0577f000000000000000000000000daf6226aafe296bbccbec815133386cd910ed58273ffffffffffffffffffffffffffffffffffffffff1663c7fb92de858c604001518d606001518e6000015160200151604051602001611a7a91906141ae565b60405160208183030381529060405260006040518663ffffffff1660e01b8152600401611aab95949392919061421a565b6020604051808303816000875af1158015611aca573d6000803e3d6000fd5b505050506040513d601f19601f82011682018060405250810190611aee919061403e565b505b60408051600180825281830190925260009160208083019080368337019050509050601d81600081518110611b2757611b276137e5565b6020026020010181815250507f000000000000000000000000daf6226aafe296bbccbec815133386cd910ed58273ffffffffffffffffffffffffffffffffffffffff1663f434c9146040518163ffffffff1660e01b8152600401602060405180830381865afa158015611b9e573d6000803e3d6000fd5b505050506040513d601f19601f82011682018060405250810190611bc2919061334e565b73ffffffffffffffffffffffffffffffffffffffff166305d2912e3060405180606001604052807f0000000000000000000000004be9d88be6e7a38644ea746cf78cb1bf30051c7673ffffffffffffffffffffffffffffffffffffffff168152602001898152602001858152506040518363ffffffff1660e01b8152600401611c4c9291906138b4565b600060405180830381600087803b158015611c6657600080fd5b505af1158015611c7a573d6000803e3d6000fd5b50505050602086015115611db4577f0000000000000000000000004be9d88be6e7a38644ea746cf78cb1bf30051c7673ffffffffffffffffffffffffffffffffffffffff16632f3f50e08633868a60200151604051602001611cde9392919061395e565b604080517fffffffffffffffffffffffffffffffffffffffffffffffffffffffffffffffe08184030181529082905280516020909101208a517fffffffff0000000000000000000000000000000000000000000000000000000060e086901b168352611d4d93926004016139b0565b6000604051808303816000875af1158015611d6c573d6000803e3d6000fd5b505050506040513d6000823e601f3d9081017fffffffffffffffffffffffffffffffffffffffffffffffffffffffffffffffe0168201604052611db29190810190613709565b505b505050509695505050505050565b60608060008086608001515190508067ffffffffffffffff811115611de957611de96128af565b604051908082528060200260200182016040528015611edb57816020015b611ec86040805161010080820183526000808352602080840182905283850182905260608085018390526080808601849052865161020081018852848152928301849052958201839052810182905293840181905260a084810182905260c0850182905260e0850182905291840181905261012084018190526101408401819052610160840181905261018084018190526101a084018190526101c084018190526101e0840152909190820190815260200160608152602001606081525090565b815260200190600190039081611e075790505b5093508660200151604051602001611eff919063ffffffff91909116815260200190565b604080518083037fffffffffffffffffffffffffffffffffffffffffffffffffffffffffffffffe001815260c083018252600080845260208401819052918301829052606083018290526080830182905260a0830182905294505b828110156122b85788608001518181518110611f7857611f786137e5565b60200260200101519150816000015164ffffffffff16868281518110611fa057611fa06137e5565b60200260200101516000018181525050816060015164ffffffffff16868281518110611fce57611fce6137e5565b6020026020010151602001818152505081604001516dffffffffffffffffffffffffffff16868281518110612005576120056137e5565b60200260200101516040018181525050816080015163ffffffff16868281518110612032576120326137e5565b602002602001015160600181815250506000868281518110612056576120566137e5565b60200260200101516080019073ffffffffffffffffffffffffffffffffffffffff16908173ffffffffffffffffffffffffffffffffffffffff1681525050604051806102000160405280836020015161ffff1681526020018360a0015161ffff166127106120c49190614269565b815260208b81015163ffffffff16908201526000604082018190526060820181905260016080830181905260a0830182905260c0830182905260e0830182905261010083018290526101208301829052610140830182905261016083015261018082015273ffffffffffffffffffffffffffffffffffffffff8a166101a08201526101c0018890528651879083908110612160576121606137e5565b602002602001015160a001819052508060001480156121865750815164ffffffffff1615155b801561219c575042826000015164ffffffffff16105b156121a657600193505b84811580156121bb5750825164ffffffffff16155b6121cd57825164ffffffffff166121cf565b425b83602001518460400151856060015186608001518760a001516040516020016122449695949392919095865261ffff94851660208701526dffffffffffffffffffffffffffff93909316604086015264ffffffffff91909116606085015263ffffffff1660808401521660a082015260c00190565b604080517fffffffffffffffffffffffffffffffffffffffffffffffffffffffffffffffe081840301815290829052612280929160200161427c565b604080517fffffffffffffffffffffffffffffffffffffffffffffffffffffffffffffffe08184030181529190529450600101611f5a565b50505093509350939050565b602081810151516040805160808101825260008082529381018490529081018390526060810183905290915b828110156123f0578360200151818151811061230e5761230e6137e5565b6020908102919091018101518551918101516040808301516060840151845192517f7b621d3a000000000000000000000000000000000000000000000000000000008152600481018c905262ffffff909416602485015263ffffffff918216604485015216606483015273ffffffffffffffffffffffffffffffffffffffff9081166084830152919450911690637b621d3a9060a4016020604051808303816000875af11580156123c3573d6000803e3d6000fd5b505050506040513d601f19601f820116820180604052508101906123e7919061334e565b506001016122f0565b5050905160009283526020839052604090922080547fffffffffffffffffffffffff00000000000000000000000000000000000000001673ffffffffffffffffffffffffffffffffffffffff9093169290921790915550565b604080516001808252818301909252606091816020015b60408051808201909152600081526060602082015281526020019060019003908161246057505060408051600180825281830190925291925060009190602082015b6040805160c08101825260008082526020808301829052928201819052606082018190526080820181905260a082015282527fffffffffffffffffffffffffffffffffffffffffffffffffffffffffffffffff9092019101816124a25790505090506040518060c00160405280600015158152602001633b9aca008152602001600081526020018473ffffffffffffffffffffffffffffffffffffffff16815260200160008152602001600073ffffffffffffffffffffffffffffffffffffffff168152508160008151811061257a5761257a6137e5565b602002602001018190525060405180604001604052806001815260200182815250826000815181106125ae576125ae6137e5565b602002602001018190525050919050565b6000602082840312156125d157600080fd5b81357fffffffff000000000000000000000000000000000000000000000000000000008116811461260157600080fd5b9392505050565b73ffffffffffffffffffffffffffffffffffffffff8116811461262a57600080fd5b50565b803561263881612608565b919050565b60008060008060006080868803121561265557600080fd5b853561266081612608565b9450602086013561267081612608565b935060408601359250606086013567ffffffffffffffff8082111561269457600080fd5b818801915088601f8301126126a857600080fd5b8135818111156126b757600080fd5b8960208285010111156126c957600080fd5b9699959850939650602001949392505050565b6000602082840312156126ee57600080fd5b5035919050565b60006020828403121561270757600080fd5b813567ffffffffffffffff81111561271e57600080fd5b8201610180818503121561260157600080fd5b60005b8381101561274c578181015183820152602001612734565b50506000910152565b6000815180845261276d816020860160208601612731565b601f017fffffffffffffffffffffffffffffffffffffffffffffffffffffffffffffffe0169290920160200192915050565b600082825180855260208086019550808260051b84010181860160005b8481101561283e578583037fffffffffffffffffffffffffffffffffffffffffffffffffffffffffffffffe00189528151805173ffffffffffffffffffffffffffffffffffffffff168452848101518585015260409081015160609185018290529061282a81860183612755565b9a86019a94505050908301906001016127bc565b5090979650505050505050565b828152604060208201526000612864604083018461279f565b949350505050565b602081526000612601602083018461279f565b6000806040838503121561289257600080fd5b8235915060208301356128a481612608565b809150509250929050565b7f4e487b7100000000000000000000000000000000000000000000000000000000600052604160045260246000fd5b60405160c0810167ffffffffffffffff81118282101715612901576129016128af565b60405290565b6040805190810167ffffffffffffffff81118282101715612901576129016128af565b6040516080810167ffffffffffffffff81118282101715612901576129016128af565b60405160a0810167ffffffffffffffff81118282101715612901576129016128af565b6040516060810167ffffffffffffffff81118282101715612901576129016128af565b604051601f82017fffffffffffffffffffffffffffffffffffffffffffffffffffffffffffffffe016810167ffffffffffffffff811182821017156129da576129da6128af565b604052919050565b600067ffffffffffffffff8211156129fc576129fc6128af565b50601f017fffffffffffffffffffffffffffffffffffffffffffffffffffffffffffffffe01660200190565b6000612a3b612a36846129e2565b612993565b9050828152838383011115612a4f57600080fd5b828260208301376000602084830101529392505050565b600082601f830112612a7757600080fd5b61260183833560208501612a28565b803563ffffffff8116811461263857600080fd5b600067ffffffffffffffff821115612ab457612ab46128af565b5060051b60200190565b803564ffffffffff8116811461263857600080fd5b803561ffff8116811461263857600080fd5b600082601f830112612af657600080fd5b81356020612b06612a3683612a9a565b82815260c09283028501820192828201919087851115612b2557600080fd5b8387015b8581101561283e5781818a031215612b415760008081fd5b612b496128de565b612b5282612abe565b8152612b5f868301612ad3565b868201526040808301356dffffffffffffffffffffffffffff81168114612b865760008081fd5b908201526060612b97838201612abe565b908201526080612ba8838201612a86565b9082015260a0612bb9838201612ad3565b908201528452928401928101612b29565b600082601f830112612bdb57600080fd5b81356020612beb612a3683612a9a565b828152600592831b8501820192828201919087851115612c0a57600080fd5b8387015b8581101561283e57803567ffffffffffffffff80821115612c2f5760008081fd5b818a0191506040807fffffffffffffffffffffffffffffffffffffffffffffffffffffffffffffffe0848e03011215612c685760008081fd5b612c70612907565b88840135612c7d81612608565b81528382013583811115612c915760008081fd5b8085019450508c603f850112612ca957600092508283fd5b888401359250612cbb612a3684612a9a565b83815292861b8401820192898101908e851115612cd85760008081fd5b948301945b84861015612d025785359350612cf284612608565b838252948a0194908a0190612cdd565b828b0152508752505050928401928401612c0e565b60006040808385031215612d2a57600080fd5b612d32612907565b91508235612d3f81612608565b825260208381013567ffffffffffffffff811115612d5c57600080fd5b8401601f81018613612d6d57600080fd5b8035612d7b612a3682612a9a565b81815260079190911b82018301908381019088831115612d9a57600080fd5b928401925b82841015612e19576080848a031215612db85760008081fd5b612dc061292a565b8435612dcb81612608565b81528486013562ffffff81168114612de35760008081fd5b81870152612df2858801612a86565b878201526060612e03818701612a86565b9082015282526080939093019290840190612d9f565b808588015250505050505092915050565b600060408284031215612e3c57600080fd5b612e44612907565b905067ffffffffffffffff8083351115612e5d57600080fd5b8235830184601f820112612e7057600080fd5b612e7d612a368235612a9a565b81358082526020808301929160051b84010187811115612e9c57600080fd5b602084015b81811015612fff578581351115612eb757600080fd5b8035850160407fffffffffffffffffffffffffffffffffffffffffffffffffffffffffffffffe0828c03011215612eed57600080fd5b612ef5612907565b612f026020830135612608565b602082013581528760408301351115612f1a57600080fd5b6040820135820191508a603f830112612f3257600080fd5b6020820135612f43612a3682612a9a565b81815260079190911b83016040019060208101908d831115612f6457600080fd5b6040850194505b82851015612fe0576080858f031215612f8357600080fd5b612f8b61292a565b612f958635612608565b85358152612fa560208701612a86565b6020820152612fb76040870135612608565b604086013560408201526060860135606082015280835250602082019150608085019450612f6b565b8060208501525050508086525050602084019350602081019050612ea1565b5050808552505050506020820135602082015292915050565b6000806000806080858703121561302e57600080fd5b843567ffffffffffffffff8082111561304657600080fd5b9086019060a0828903121561305a57600080fd5b61306261294d565b82358281111561307157600080fd5b83016080818b03121561308357600080fd5b61308b61292a565b81358481111561309a57600080fd5b6130a68c828501612a66565b8252506020820135848111156130bb57600080fd5b6130c78c828501612a66565b6020830152506040820135848111156130df57600080fd5b6130eb8c828501612a66565b60408301525060608201356060820152808352505061310c60208401612a86565b6020820152604083013560408201526131276060840161262d565b606082015260808301358281111561313e57600080fd5b61314a8a828601612ae5565b6080830152509550602087013591508082111561316657600080fd5b61317288838901612bca565b9450604087013591508082111561318857600080fd5b61319488838901612d17565b935060608701359150808211156131aa57600080fd5b506131b787828801612e2a565b91505092959194509250565b6000602082840312156131d557600080fd5b813567ffffffffffffffff8111156131ec57600080fd5b82016101a0818503121561260157600080fd5b60006080820186835260208681850152604086604086015260606080606087015283875180865260a08801915060a08160051b890101955084890160005b828110156132b8578988037fffffffffffffffffffffffffffffffffffffffffffffffffffffffffffffff600184528151805173ffffffffffffffffffffffffffffffffffffffff16895287810151888a01528601518689018690526132a5868a0182612755565b985050928601929086019060010161323d565b50959c9b505050505050505050505050565b6000806000606084860312156132df57600080fd5b83359250602084013567ffffffffffffffff808211156132fe57600080fd5b818601915086601f83011261331257600080fd5b61332187833560208501612a28565b9350604086013591508082111561333757600080fd5b5061334486828701612e2a565b9150509250925092565b60006020828403121561336057600080fd5b815161260181612608565b803561337681612608565b73ffffffffffffffffffffffffffffffffffffffff1682526020818101359083015260408082013590830152606090810135910152565b60008083357fffffffffffffffffffffffffffffffffffffffffffffffffffffffffffffffe18436030181126133e257600080fd5b830160208101925035905067ffffffffffffffff81111561340257600080fd5b80360382131561341157600080fd5b9250929050565b8183528181602085013750600060208284010152600060207fffffffffffffffffffffffffffffffffffffffffffffffffffffffffffffffe0601f840116840101905092915050565b6020815261348f602082016134758461262d565b73ffffffffffffffffffffffffffffffffffffffff169052565b600061349d6020840161262d565b73ffffffffffffffffffffffffffffffffffffffff81166040840152506134ca606083016040850161336b565b60c083013560e083015261010060e0840135818401526134eb81850161262d565b90506101206135118185018373ffffffffffffffffffffffffffffffffffffffff169052565b61014091508085013582850152506101608185013581850152613536818601866133ad565b6101808681015292509050610c1c6101a085018383613418565b600080604080848603121561356457600080fd5b8351925060208085015167ffffffffffffffff8082111561358457600080fd5b818701915087601f83011261359857600080fd5b81516135a6612a3682612a9a565b81815260059190911b8301840190848101908a8311156135c557600080fd5b8585015b838110156136a4578051858111156135e057600080fd5b86016060818e037fffffffffffffffffffffffffffffffffffffffffffffffffffffffffffffffe00112156136155760008081fd5b61361d612970565b8882015161362a81612608565b8152818a0151898201526060820151878111156136475760008081fd5b8083019250508d603f83011261365d5760008081fd5b8882015161366d612a36826129e2565b8181528f8c8386010111156136825760008081fd5b613691828c83018e8701612731565b828c0152508452509186019186016135c9565b50809750505050505050509250929050565b600181811c908216806136ca57607f821691505b602082108103613703577f4e487b7100000000000000000000000000000000000000000000000000000000600052602260045260246000fd5b50919050565b6000602080838503121561371c57600080fd5b825167ffffffffffffffff81111561373357600080fd5b8301601f8101851361374457600080fd5b8051613752612a3682612a9a565b81815260059190911b8201830190838101908783111561377157600080fd5b928401925b8284101561379857835161378981612608565b82529284019290840190613776565b979650505050505050565b7f4e487b7100000000000000000000000000000000000000000000000000000000600052601160045260246000fd5b80820180821115610381576103816137a3565b7f4e487b7100000000000000000000000000000000000000000000000000000000600052603260045260246000fd5b60006080820173ffffffffffffffffffffffffffffffffffffffff80881684526020818816602086015286604086015260806060860152829150855480845260a086019250866000526020600020935060005b8181101561388357845484526001948501949383019301613867565b50919998505050505050505050565b6000602082840312156138a457600080fd5b8151801515811461260157600080fd5b600073ffffffffffffffffffffffffffffffffffffffff808516835260206040602085015260a0840182865116604086015260208601516060860152604086015192506060608086015280835180835260c087019150602085019450600092505b808310156139355784518252938301936001929092019190830190613915565b50979650505050505050565b60006020828403121561395357600080fd5b813561260181612608565b7fffffffffffffffffffffffffffffffffffffffff0000000000000000000000008460601b1681526000835161399b816014850160208801612731565b60149201918201929092526034019392505050565b600060608083018684526020868186015260406060604087015282875180855260808801915060808160051b89010194508389016000805b838110156132b8578a88037fffffffffffffffffffffffffffffffffffffffffffffffffffffffffffffff800185528251805173ffffffffffffffffffffffffffffffffffffffff9081168a5290880151888a018890528051888b018190529089019184918c8c01905b80841015613a975784518051841683528c81015163ffffffff168d8401528b81015184168c8401528e01518e830152938b019360019390930192608090910190613a52565b509a5050509487019450918601916001016139e8565b7f2400000000000000000000000000000000000000000000000000000000000000815260008251613ae5816001850160208701612731565b7f207265766e6574206465706c6f796564000000000000000000000000000000006001939091019283015250601101919050565b8051825260208101516020830152604081015160408301526060810151613b44606084018215159052565b506080810151613b58608084018215159052565b5060a0810151613b6c60a084018215159052565b5060c0810151613b8060c084018215159052565b5060e0810151613b9460e084018215159052565b5061010081810151151590830152610120808201511515908301526101408082015115159083015261016080820151151590830152610180808201511515908301526101a0808201511515908301526101c08082015173ffffffffffffffffffffffffffffffffffffffff16908301526101e090810151910152565b600082825180855260208086019550808260051b8401018186016000805b85811015613d01578684037fffffffffffffffffffffffffffffffffffffffffffffffffffffffffffffffe0018a52825180518552850151604086860181905281518187018190529187019160609081880190865b81811015613cea5785518051151584528b8101518c85015285810151868501528481015173ffffffffffffffffffffffffffffffffffffffff908116868601526080808301519086015260a0918201511690840152948a019460c090920191600101613c83565b50509c88019c965050509285019250600101613c2e565b509198975050505050505050565b60008151808452602080850194506020840160005b83811015613d4b578151805188528301518388015260409096019590820190600101613d24565b509495945050505050565b600082825180855260208086019550808260051b84010181860160005b8481101561283e577fffffffffffffffffffffffffffffffffffffffffffffffffffffffffffffffe08684030189528151608073ffffffffffffffffffffffffffffffffffffffff80835116865280878401511687870152506040808301518282880152613de383880182613d0f565b9250505060608083015192508582038187015250613e018183613d0f565b9a86019a9450505090830190600101613d73565b600082825180855260208086019550808260051b8401018186016000805b85811015613d01578684037fffffffffffffffffffffffffffffffffffffffffffffffffffffffffffffffe0018a528251805173ffffffffffffffffffffffffffffffffffffffff908116865290860151604087870181905281519087018190529087019160608701918591905b80831015613ec357845182168452938901939289019260019290920191613ea1565b5050509a86019a94505091840191600101613e33565b600060a073ffffffffffffffffffffffffffffffffffffffff88168352602060a081850152613f0b60a0850189612755565b604085820360408701528189518084528484019150848160051b850101858c0160005b83811015614004577fffffffffffffffffffffffffffffffffffffffffffffffffffffffffffffffe087840301855281516102e081518552898201518a86015287820151888601526060808301518187015250608080830151613fa88288018273ffffffffffffffffffffffffffffffffffffffff169052565b50508a820151613fba8c870182613b19565b5060c0820151816102a0870152613fd382870182613c10565b91505060e082015191508481036102c0860152613ff08183613d56565b968a01969450505090870190600101613f2e565b505088810360608a0152614018818c613e15565b965050505050505082810360808401526140328185612755565b98975050505050505050565b60006020828403121561405057600080fd5b5051919050565b8481526080602082015260006140706080830186612755565b82810360408401526140828186612755565b91505082606083015295945050505050565b600060608083018684526020868186015260406060604087015282875180855260808801915060808160051b890101945083890160005b8281101561419d578987037fffffffffffffffffffffffffffffffffffffffffffffffffffffffffffffff800184528151805188528601518688018690528051868901819052908701906000908a8a01905b808310156141885783518051151583528a8101518b840152898101518a8401528c81015173ffffffffffffffffffffffffffffffffffffffff9081168e8501526080808301519085015260a0918201511690830152928901926001929092019160c09091019061411d565b509850505092850192908501906001016140cb565b50949b9a5050505050505050505050565b7f24000000000000000000000000000000000000000000000000000000000000008152600082516141e6816001850160208701612731565b7f207072656d696e746564000000000000000000000000000000000000000000006001939091019283015250600b01919050565b85815284602082015273ffffffffffffffffffffffffffffffffffffffff8416604082015260a06060820152600061425560a0830185612755565b905082151560808301529695505050505050565b81810381811115610381576103816137a3565b6000835161428e818460208801612731565b8351908301906142a2818360208801612731565b0194935050505056fea2646970667358221220aa240b6402e2186bb4dc70aa539adda1aa1fc16088ca90c6ea9cea43495294e864736f6c63430008170033",
	"devdoc": {
		"kind": "dev",
		"methods": {
			"beforePayRecordedWith((address,address,(address,uint256,uint256,uint256),uint256,uint256,address,uint256,uint256,bytes))": {
				"details": "Part of IJBFundingCycleDataSource.This implementation just sets this contract up to receive a `didPay` call.",
				"params": {
					"context": "The Juicebox standard network payment context. See"
				},
				"returns": {
					"hookSpecifications": "Amount to be sent to pay hooks instead of adding to local balance. Useful for auto-routing funds from a treasury as payment come in.",
					"weight": "The weight that network tokens should get minted relative to. This is useful for optionally customizing how many tokens are issued per payment."
				}
			},
			"constructor": {
				"params": {
					"controller": "The controller that revnets are made from.",
					"suckerRegistry": "The registry that deploys and tracks each project's suckers."
				}
			},
			"deployRevnetWith(((string,string,string,bytes32),uint32,uint256,address,(uint40,uint16,uint112,uint40,uint32,uint16)[]),(address,address[])[],(address,(address,uint24,uint32,uint32)[]),((address,(address,uint32,address,uint256)[])[],bytes32))": {
				"params": {
					"buybackHookConfiguration": "Data used for setting up the buyback hook to use when determining the best price for new participants.",
					"configuration": "The data needed to deploy a basic revnet.",
					"suckerDeploymentConfiguration": "Information about how this revnet relates to other's across chains.",
					"terminalConfigurations": "The terminals that the network uses to accept payments through."
				},
				"returns": {
					"revnetId": "The ID of the newly created revnet."
				}
			},
			"deploySuckersFor(uint256,bytes,((address,(address,uint32,address,uint256)[])[],bytes32))": {
				"params": {
					"encodedConfiguration": "A bytes representation of the revnet's configuration.",
					"revnetId": "The ID of the revnet having new suckers deployed.",
					"suckerDeploymentConfiguration": "The specifics about the suckers being deployed."
				}
			},
			"hasMintPermissionFor(uint256,address)": {
				"params": {
					"addr": "The address to check if has permissions.",
					"revnetId": "The ID of the revnet to check permissions for."
				},
				"returns": {
					"_0": "flag The flag indicating if the address has permissions to mint on the revnet's behalf."
				}
			},
			"onERC721Received(address,address,uint256,bytes)": {
				"details": "Make sure only mints can be received."
			},
			"payHookSpecificationsOf(uint256)": {
				"params": {
					"revnetId": "The ID of the revnet to which the extensions apply."
				},
				"returns": {
					"_0": "payHookSpecifications The pay hooks."
				}
			},
			"replaceOperatorOf(uint256,address)": {
				"params": {
					"newOperator": "The address of the new operator.",
					"revnetId": "The ID of the revnet having its operator replaced."
				}
			},
			"supportsInterface(bytes4)": {
				"details": "See {IERC165-supportsInterface}.",
				"params": {
					"interfaceId": "The ID of the interface to check for adherence to."
				},
				"returns": {
					"_0": "A flag indicating if the provided interface ID is supported."
				}
			}
		},
		"version": 1
	},
	"userdoc": {
		"kind": "user",
		"methods": {
			"CONTROLLER()": {
				"notice": "The controller that networks are made from."
			},
			"EXIT_DELAY()": {
				"notice": "The amount of time from a sucker being deployed to when it can facilitate exits."
			},
			"SUCKER_REGISTRY()": {
				"notice": "The registry that deploys and tracks each project's suckers."
			},
			"beforePayRecordedWith((address,address,(address,uint256,uint256,uint256),uint256,uint256,address,uint256,uint256,bytes))": {
				"notice": "This function gets called when the revnet receives a payment."
			},
			"beforeRedeemRecordedWith((address,address,uint256,uint256,uint256,uint256,(address,uint256,uint256,uint256),bool,uint256,bytes))": {
				"notice": "This function is never called, it needs to be included to adhere to the interface."
			},
			"buybackHookOf(uint256)": {
				"notice": "The data hook that returns the correct values for the buyback hook of each network."
			},
			"deployRevnetWith(((string,string,string,bytes32),uint32,uint256,address,(uint40,uint16,uint112,uint40,uint32,uint16)[]),(address,address[])[],(address,(address,uint24,uint32,uint32)[]),((address,(address,uint32,address,uint256)[])[],bytes32))": {
				"notice": "Deploy a basic revnet."
			},
			"deploySuckersFor(uint256,bytes,((address,(address,uint32,address,uint256)[])[],bytes32))": {
				"notice": "Allows a revnet's operator to deploy new suckers to the revnet after it's deployed."
			},
			"exitDelayOf(uint256)": {
				"notice": "The time at which exits from a revnet become allowed."
			},
			"hasMintPermissionFor(uint256,address)": {
				"notice": "Required by the IJBRulesetDataHook interfaces."
			},
			"payHookSpecificationsOf(uint256)": {
				"notice": "The pay hooks to include during payments to networks."
			},
			"replaceOperatorOf(uint256,address)": {
				"notice": "A revnet's operator can replace itself."
			},
			"supportsInterface(bytes4)": {
				"notice": "Indicates if this contract adheres to the specified interface."
			}
		},
		"version": 1
	},
	"gitCommit": "6c2de14c26489576a0722fd439b82a3ac8f9fe75",
	"sourceName": "src/REVBasicDeployer.sol",
	"chainId": "11155111",
	"linkReferences": {},
	"deployedLinkReferences": {},
	"history": []
}