{
  "abi": [
    {
      "inputs": [],
      "name": "CHANGE_POOL",
      "outputs": [
        {
          "internalType": "uint256",
          "name": "",
          "type": "uint256"
        }
      ],
      "stateMutability": "view",
      "type": "function"
    },
    {
      "inputs": [],
      "name": "SET_POOL_PARAMS",
      "outputs": [
        {
          "internalType": "uint256",
          "name": "",
          "type": "uint256"
        }
      ],
      "stateMutability": "view",
      "type": "function"
    }
  ],
  "bytecode": {
    "object": "0x6098610038600b82828239805160001a607314602b57634e487b7160e01b600052600060045260246000fd5b30600052607381538281f3fe7300000000000000000000000000000000000000003014608060405260043610603d5760003560e01c8063116e9c0914604257806328b09e9e14605b575b600080fd5b6049601981565b60405190815260200160405180910390f35b604960188156fea264697066735822122047668122e455c19dc783e774fc22522973bd2e8fe7b42ae021e72e812981969464736f6c63430008150033",
    "linkReferences": {}
  },
  "methodIdentifiers": {
    "CHANGE_POOL()": "116e9c09",
    "SET_POOL_PARAMS()": "28b09e9e"
  },
  "id": 33
}