{
	"_format": "sphinx-sol-ct-artifact-1",
	"merkleRoot": "0xe8fdbc6f09b4544257cc6dd29d04f1d282b6573608698470d8a04a078c51e7f7",
	"contractName": "REVDeployer",
	"address": "0x25bC5D5A708c2E426eF3a5196cc18dE6b2d5A3d1",
	"abi": [
		{
			"type": "constructor",
			"inputs": [
				{
					"name": "controller",
					"type": "address",
					"internalType": "contract IJBController"
				},
				{
					"name": "suckerRegistry",
					"type": "address",
					"internalType": "contract IJBSuckerRegistry"
				},
				{
					"name": "feeRevnetId",
					"type": "uint256",
					"internalType": "uint256"
				},
				{
					"name": "hookDeployer",
					"type": "address",
					"internalType": "contract IJB721TiersHookDeployer"
				},
				{
					"name": "publisher",
					"type": "address",
					"internalType": "contract CTPublisher"
				}
			],
			"stateMutability": "nonpayable"
		},
		{
			"type": "function",
			"name": "CASH_OUT_DELAY",
			"inputs": [],
			"outputs": [
				{
					"name": "",
					"type": "uint256",
					"internalType": "uint256"
				}
			],
			"stateMutability": "view"
		},
		{
			"type": "function",
			"name": "CONTROLLER",
			"inputs": [],
			"outputs": [
				{
					"name": "",
					"type": "address",
					"internalType": "contract IJBController"
				}
			],
			"stateMutability": "view"
		},
		{
			"type": "function",
			"name": "DIRECTORY",
			"inputs": [],
			"outputs": [
				{
					"name": "",
					"type": "address",
					"internalType": "contract IJBDirectory"
				}
			],
			"stateMutability": "view"
		},
		{
			"type": "function",
			"name": "FEE",
			"inputs": [],
			"outputs": [
				{
					"name": "",
					"type": "uint256",
					"internalType": "uint256"
				}
			],
			"stateMutability": "view"
		},
		{
			"type": "function",
			"name": "FEE_REVNET_ID",
			"inputs": [],
			"outputs": [
				{
					"name": "",
					"type": "uint256",
					"internalType": "uint256"
				}
			],
			"stateMutability": "view"
		},
		{
			"type": "function",
			"name": "HOOK_DEPLOYER",
			"inputs": [],
			"outputs": [
				{
					"name": "",
					"type": "address",
					"internalType": "contract IJB721TiersHookDeployer"
				}
			],
			"stateMutability": "view"
		},
		{
			"type": "function",
			"name": "PERMISSIONS",
			"inputs": [],
			"outputs": [
				{
					"name": "",
					"type": "address",
					"internalType": "contract IJBPermissions"
				}
			],
			"stateMutability": "view"
		},
		{
			"type": "function",
			"name": "PROJECTS",
			"inputs": [],
			"outputs": [
				{
					"name": "",
					"type": "address",
					"internalType": "contract IJBProjects"
				}
			],
			"stateMutability": "view"
		},
		{
			"type": "function",
			"name": "PUBLISHER",
			"inputs": [],
			"outputs": [
				{
					"name": "",
					"type": "address",
					"internalType": "contract CTPublisher"
				}
			],
			"stateMutability": "view"
		},
		{
			"type": "function",
			"name": "SUCKER_REGISTRY",
			"inputs": [],
			"outputs": [
				{
					"name": "",
					"type": "address",
					"internalType": "contract IJBSuckerRegistry"
				}
			],
			"stateMutability": "view"
		},
		{
			"type": "function",
			"name": "afterRedeemRecordedWith",
			"inputs": [
				{
					"name": "context",
					"type": "tuple",
					"internalType": "struct JBAfterRedeemRecordedContext",
					"components": [
						{
							"name": "holder",
							"type": "address",
							"internalType": "address"
						},
						{
							"name": "projectId",
							"type": "uint256",
							"internalType": "uint256"
						},
						{
							"name": "rulesetId",
							"type": "uint256",
							"internalType": "uint256"
						},
						{
							"name": "redeemCount",
							"type": "uint256",
							"internalType": "uint256"
						},
						{
							"name": "reclaimedAmount",
							"type": "tuple",
							"internalType": "struct JBTokenAmount",
							"components": [
								{
									"name": "token",
									"type": "address",
									"internalType": "address"
								},
								{
									"name": "decimals",
									"type": "uint8",
									"internalType": "uint8"
								},
								{
									"name": "currency",
									"type": "uint32",
									"internalType": "uint32"
								},
								{
									"name": "value",
									"type": "uint256",
									"internalType": "uint256"
								}
							]
						},
						{
							"name": "forwardedAmount",
							"type": "tuple",
							"internalType": "struct JBTokenAmount",
							"components": [
								{
									"name": "token",
									"type": "address",
									"internalType": "address"
								},
								{
									"name": "decimals",
									"type": "uint8",
									"internalType": "uint8"
								},
								{
									"name": "currency",
									"type": "uint32",
									"internalType": "uint32"
								},
								{
									"name": "value",
									"type": "uint256",
									"internalType": "uint256"
								}
							]
						},
						{
							"name": "redemptionRate",
							"type": "uint256",
							"internalType": "uint256"
						},
						{
							"name": "beneficiary",
							"type": "address",
							"internalType": "address payable"
						},
						{
							"name": "hookMetadata",
							"type": "bytes",
							"internalType": "bytes"
						},
						{
							"name": "redeemerMetadata",
							"type": "bytes",
							"internalType": "bytes"
						}
					]
				}
			],
			"outputs": [],
			"stateMutability": "payable"
		},
		{
			"type": "function",
			"name": "amountToAutoMint",
			"inputs": [
				{
					"name": "revnetId",
					"type": "uint256",
					"internalType": "uint256"
				},
				{
					"name": "stageId",
					"type": "uint256",
					"internalType": "uint256"
				},
				{
					"name": "beneficiary",
					"type": "address",
					"internalType": "address"
				}
			],
			"outputs": [
				{
					"name": "",
					"type": "uint256",
					"internalType": "uint256"
				}
			],
			"stateMutability": "view"
		},
		{
			"type": "function",
			"name": "autoMintFor",
			"inputs": [
				{
					"name": "revnetId",
					"type": "uint256",
					"internalType": "uint256"
				},
				{
					"name": "stageId",
					"type": "uint256",
					"internalType": "uint256"
				},
				{
					"name": "beneficiary",
					"type": "address",
					"internalType": "address"
				}
			],
			"outputs": [],
			"stateMutability": "nonpayable"
		},
		{
			"type": "function",
			"name": "beforePayRecordedWith",
			"inputs": [
				{
					"name": "context",
					"type": "tuple",
					"internalType": "struct JBBeforePayRecordedContext",
					"components": [
						{
							"name": "terminal",
							"type": "address",
							"internalType": "address"
						},
						{
							"name": "payer",
							"type": "address",
							"internalType": "address"
						},
						{
							"name": "amount",
							"type": "tuple",
							"internalType": "struct JBTokenAmount",
							"components": [
								{
									"name": "token",
									"type": "address",
									"internalType": "address"
								},
								{
									"name": "decimals",
									"type": "uint8",
									"internalType": "uint8"
								},
								{
									"name": "currency",
									"type": "uint32",
									"internalType": "uint32"
								},
								{
									"name": "value",
									"type": "uint256",
									"internalType": "uint256"
								}
							]
						},
						{
							"name": "projectId",
							"type": "uint256",
							"internalType": "uint256"
						},
						{
							"name": "rulesetId",
							"type": "uint256",
							"internalType": "uint256"
						},
						{
							"name": "beneficiary",
							"type": "address",
							"internalType": "address"
						},
						{
							"name": "weight",
							"type": "uint256",
							"internalType": "uint256"
						},
						{
							"name": "reservedPercent",
							"type": "uint256",
							"internalType": "uint256"
						},
						{
							"name": "metadata",
							"type": "bytes",
							"internalType": "bytes"
						}
					]
				}
			],
			"outputs": [
				{
					"name": "weight",
					"type": "uint256",
					"internalType": "uint256"
				},
				{
					"name": "hookSpecifications",
					"type": "tuple[]",
					"internalType": "struct JBPayHookSpecification[]",
					"components": [
						{
							"name": "hook",
							"type": "address",
							"internalType": "contract IJBPayHook"
						},
						{
							"name": "amount",
							"type": "uint256",
							"internalType": "uint256"
						},
						{
							"name": "metadata",
							"type": "bytes",
							"internalType": "bytes"
						}
					]
				}
			],
			"stateMutability": "view"
		},
		{
			"type": "function",
			"name": "beforeRedeemRecordedWith",
			"inputs": [
				{
					"name": "context",
					"type": "tuple",
					"internalType": "struct JBBeforeRedeemRecordedContext",
					"components": [
						{
							"name": "terminal",
							"type": "address",
							"internalType": "address"
						},
						{
							"name": "holder",
							"type": "address",
							"internalType": "address"
						},
						{
							"name": "projectId",
							"type": "uint256",
							"internalType": "uint256"
						},
						{
							"name": "rulesetId",
							"type": "uint256",
							"internalType": "uint256"
						},
						{
							"name": "redeemCount",
							"type": "uint256",
							"internalType": "uint256"
						},
						{
							"name": "totalSupply",
							"type": "uint256",
							"internalType": "uint256"
						},
						{
							"name": "surplus",
							"type": "tuple",
							"internalType": "struct JBTokenAmount",
							"components": [
								{
									"name": "token",
									"type": "address",
									"internalType": "address"
								},
								{
									"name": "decimals",
									"type": "uint8",
									"internalType": "uint8"
								},
								{
									"name": "currency",
									"type": "uint32",
									"internalType": "uint32"
								},
								{
									"name": "value",
									"type": "uint256",
									"internalType": "uint256"
								}
							]
						},
						{
							"name": "useTotalSurplus",
							"type": "bool",
							"internalType": "bool"
						},
						{
							"name": "redemptionRate",
							"type": "uint256",
							"internalType": "uint256"
						},
						{
							"name": "metadata",
							"type": "bytes",
							"internalType": "bytes"
						}
					]
				}
			],
			"outputs": [
				{
					"name": "redemptionRate",
					"type": "uint256",
					"internalType": "uint256"
				},
				{
					"name": "redeemCount",
					"type": "uint256",
					"internalType": "uint256"
				},
				{
					"name": "totalSupply",
					"type": "uint256",
					"internalType": "uint256"
				},
				{
					"name": "hookSpecifications",
					"type": "tuple[]",
					"internalType": "struct JBRedeemHookSpecification[]",
					"components": [
						{
							"name": "hook",
							"type": "address",
							"internalType": "contract IJBRedeemHook"
						},
						{
							"name": "amount",
							"type": "uint256",
							"internalType": "uint256"
						},
						{
							"name": "metadata",
							"type": "bytes",
							"internalType": "bytes"
						}
					]
				}
			],
			"stateMutability": "view"
		},
		{
			"type": "function",
			"name": "buybackHookOf",
			"inputs": [
				{
					"name": "revnetId",
					"type": "uint256",
					"internalType": "uint256"
				}
			],
			"outputs": [
				{
					"name": "buybackHook",
					"type": "address",
					"internalType": "contract IJBRulesetDataHook"
				}
			],
			"stateMutability": "view"
		},
		{
			"type": "function",
			"name": "cashOutDelayOf",
			"inputs": [
				{
					"name": "revnetId",
					"type": "uint256",
					"internalType": "uint256"
				}
			],
			"outputs": [
				{
					"name": "cashOutDelay",
					"type": "uint256",
					"internalType": "uint256"
				}
			],
			"stateMutability": "view"
		},
		{
			"type": "function",
			"name": "deployFor",
			"inputs": [
				{
					"name": "revnetId",
					"type": "uint256",
					"internalType": "uint256"
				},
				{
					"name": "configuration",
					"type": "tuple",
					"internalType": "struct REVConfig",
					"components": [
						{
							"name": "description",
							"type": "tuple",
							"internalType": "struct REVDescription",
							"components": [
								{
									"name": "name",
									"type": "string",
									"internalType": "string"
								},
								{
									"name": "ticker",
									"type": "string",
									"internalType": "string"
								},
								{
									"name": "uri",
									"type": "string",
									"internalType": "string"
								},
								{
									"name": "salt",
									"type": "bytes32",
									"internalType": "bytes32"
								}
							]
						},
						{
							"name": "baseCurrency",
							"type": "uint32",
							"internalType": "uint32"
						},
						{
							"name": "splitOperator",
							"type": "address",
							"internalType": "address"
						},
						{
							"name": "stageConfigurations",
							"type": "tuple[]",
							"internalType": "struct REVStageConfig[]",
							"components": [
								{
									"name": "startsAtOrAfter",
									"type": "uint40",
									"internalType": "uint40"
								},
								{
									"name": "autoMints",
									"type": "tuple[]",
									"internalType": "struct REVAutoMint[]",
									"components": [
										{
											"name": "chainId",
											"type": "uint32",
											"internalType": "uint32"
										},
										{
											"name": "count",
											"type": "uint104",
											"internalType": "uint104"
										},
										{
											"name": "beneficiary",
											"type": "address",
											"internalType": "address"
										}
									]
								},
								{
									"name": "splitPercent",
									"type": "uint16",
									"internalType": "uint16"
								},
								{
									"name": "initialIssuance",
									"type": "uint112",
									"internalType": "uint112"
								},
								{
									"name": "issuanceDecayFrequency",
									"type": "uint32",
									"internalType": "uint32"
								},
								{
									"name": "issuanceDecayPercent",
									"type": "uint32",
									"internalType": "uint32"
								},
								{
									"name": "cashOutTaxRate",
									"type": "uint16",
									"internalType": "uint16"
								},
								{
									"name": "extraMetadata",
									"type": "uint16",
									"internalType": "uint16"
								}
							]
						},
						{
							"name": "loanSources",
							"type": "tuple[]",
							"internalType": "struct REVLoanSource[]",
							"components": [
								{
									"name": "token",
									"type": "address",
									"internalType": "address"
								},
								{
									"name": "terminal",
									"type": "address",
									"internalType": "contract IJBPayoutTerminal"
								}
							]
						},
						{
							"name": "loans",
							"type": "address",
							"internalType": "address"
						},
						{
							"name": "allowCrosschainSuckerExtension",
							"type": "bool",
							"internalType": "bool"
						}
					]
				},
				{
					"name": "terminalConfigurations",
					"type": "tuple[]",
					"internalType": "struct JBTerminalConfig[]",
					"components": [
						{
							"name": "terminal",
							"type": "address",
							"internalType": "contract IJBTerminal"
						},
						{
							"name": "accountingContextsToAccept",
							"type": "tuple[]",
							"internalType": "struct JBAccountingContext[]",
							"components": [
								{
									"name": "token",
									"type": "address",
									"internalType": "address"
								},
								{
									"name": "decimals",
									"type": "uint8",
									"internalType": "uint8"
								},
								{
									"name": "currency",
									"type": "uint32",
									"internalType": "uint32"
								}
							]
						}
					]
				},
				{
					"name": "buybackHookConfiguration",
					"type": "tuple",
					"internalType": "struct REVBuybackHookConfig",
					"components": [
						{
							"name": "hook",
							"type": "address",
							"internalType": "contract IJBBuybackHook"
						},
						{
							"name": "poolConfigurations",
							"type": "tuple[]",
							"internalType": "struct REVBuybackPoolConfig[]",
							"components": [
								{
									"name": "token",
									"type": "address",
									"internalType": "address"
								},
								{
									"name": "fee",
									"type": "uint24",
									"internalType": "uint24"
								},
								{
									"name": "twapWindow",
									"type": "uint32",
									"internalType": "uint32"
								},
								{
									"name": "twapSlippageTolerance",
									"type": "uint32",
									"internalType": "uint32"
								}
							]
						}
					]
				},
				{
					"name": "suckerDeploymentConfiguration",
					"type": "tuple",
					"internalType": "struct REVSuckerDeploymentConfig",
					"components": [
						{
							"name": "deployerConfigurations",
							"type": "tuple[]",
							"internalType": "struct JBSuckerDeployerConfig[]",
							"components": [
								{
									"name": "deployer",
									"type": "address",
									"internalType": "contract IJBSuckerDeployer"
								},
								{
									"name": "mappings",
									"type": "tuple[]",
									"internalType": "struct JBTokenMapping[]",
									"components": [
										{
											"name": "localToken",
											"type": "address",
											"internalType": "address"
										},
										{
											"name": "minGas",
											"type": "uint32",
											"internalType": "uint32"
										},
										{
											"name": "remoteToken",
											"type": "address",
											"internalType": "address"
										},
										{
											"name": "minBridgeAmount",
											"type": "uint256",
											"internalType": "uint256"
										}
									]
								}
							]
						},
						{
							"name": "salt",
							"type": "bytes32",
							"internalType": "bytes32"
						}
					]
				}
			],
			"outputs": [
				{
					"name": "",
					"type": "uint256",
					"internalType": "uint256"
				}
			],
			"stateMutability": "nonpayable"
		},
		{
			"type": "function",
			"name": "deploySuckersFor",
			"inputs": [
				{
					"name": "revnetId",
					"type": "uint256",
					"internalType": "uint256"
				},
				{
					"name": "encodedConfiguration",
					"type": "bytes",
					"internalType": "bytes"
				},
				{
					"name": "suckerDeploymentConfiguration",
					"type": "tuple",
					"internalType": "struct REVSuckerDeploymentConfig",
					"components": [
						{
							"name": "deployerConfigurations",
							"type": "tuple[]",
							"internalType": "struct JBSuckerDeployerConfig[]",
							"components": [
								{
									"name": "deployer",
									"type": "address",
									"internalType": "contract IJBSuckerDeployer"
								},
								{
									"name": "mappings",
									"type": "tuple[]",
									"internalType": "struct JBTokenMapping[]",
									"components": [
										{
											"name": "localToken",
											"type": "address",
											"internalType": "address"
										},
										{
											"name": "minGas",
											"type": "uint32",
											"internalType": "uint32"
										},
										{
											"name": "remoteToken",
											"type": "address",
											"internalType": "address"
										},
										{
											"name": "minBridgeAmount",
											"type": "uint256",
											"internalType": "uint256"
										}
									]
								}
							]
						},
						{
							"name": "salt",
							"type": "bytes32",
							"internalType": "bytes32"
						}
					]
				}
			],
			"outputs": [
				{
					"name": "suckers",
					"type": "address[]",
					"internalType": "address[]"
				}
			],
			"stateMutability": "nonpayable"
		},
		{
			"type": "function",
			"name": "deployWith721sFor",
			"inputs": [
				{
					"name": "revnetId",
					"type": "uint256",
					"internalType": "uint256"
				},
				{
					"name": "configuration",
					"type": "tuple",
					"internalType": "struct REVConfig",
					"components": [
						{
							"name": "description",
							"type": "tuple",
							"internalType": "struct REVDescription",
							"components": [
								{
									"name": "name",
									"type": "string",
									"internalType": "string"
								},
								{
									"name": "ticker",
									"type": "string",
									"internalType": "string"
								},
								{
									"name": "uri",
									"type": "string",
									"internalType": "string"
								},
								{
									"name": "salt",
									"type": "bytes32",
									"internalType": "bytes32"
								}
							]
						},
						{
							"name": "baseCurrency",
							"type": "uint32",
							"internalType": "uint32"
						},
						{
							"name": "splitOperator",
							"type": "address",
							"internalType": "address"
						},
						{
							"name": "stageConfigurations",
							"type": "tuple[]",
							"internalType": "struct REVStageConfig[]",
							"components": [
								{
									"name": "startsAtOrAfter",
									"type": "uint40",
									"internalType": "uint40"
								},
								{
									"name": "autoMints",
									"type": "tuple[]",
									"internalType": "struct REVAutoMint[]",
									"components": [
										{
											"name": "chainId",
											"type": "uint32",
											"internalType": "uint32"
										},
										{
											"name": "count",
											"type": "uint104",
											"internalType": "uint104"
										},
										{
											"name": "beneficiary",
											"type": "address",
											"internalType": "address"
										}
									]
								},
								{
									"name": "splitPercent",
									"type": "uint16",
									"internalType": "uint16"
								},
								{
									"name": "initialIssuance",
									"type": "uint112",
									"internalType": "uint112"
								},
								{
									"name": "issuanceDecayFrequency",
									"type": "uint32",
									"internalType": "uint32"
								},
								{
									"name": "issuanceDecayPercent",
									"type": "uint32",
									"internalType": "uint32"
								},
								{
									"name": "cashOutTaxRate",
									"type": "uint16",
									"internalType": "uint16"
								},
								{
									"name": "extraMetadata",
									"type": "uint16",
									"internalType": "uint16"
								}
							]
						},
						{
							"name": "loanSources",
							"type": "tuple[]",
							"internalType": "struct REVLoanSource[]",
							"components": [
								{
									"name": "token",
									"type": "address",
									"internalType": "address"
								},
								{
									"name": "terminal",
									"type": "address",
									"internalType": "contract IJBPayoutTerminal"
								}
							]
						},
						{
							"name": "loans",
							"type": "address",
							"internalType": "address"
						},
						{
							"name": "allowCrosschainSuckerExtension",
							"type": "bool",
							"internalType": "bool"
						}
					]
				},
				{
					"name": "terminalConfigurations",
					"type": "tuple[]",
					"internalType": "struct JBTerminalConfig[]",
					"components": [
						{
							"name": "terminal",
							"type": "address",
							"internalType": "contract IJBTerminal"
						},
						{
							"name": "accountingContextsToAccept",
							"type": "tuple[]",
							"internalType": "struct JBAccountingContext[]",
							"components": [
								{
									"name": "token",
									"type": "address",
									"internalType": "address"
								},
								{
									"name": "decimals",
									"type": "uint8",
									"internalType": "uint8"
								},
								{
									"name": "currency",
									"type": "uint32",
									"internalType": "uint32"
								}
							]
						}
					]
				},
				{
					"name": "buybackHookConfiguration",
					"type": "tuple",
					"internalType": "struct REVBuybackHookConfig",
					"components": [
						{
							"name": "hook",
							"type": "address",
							"internalType": "contract IJBBuybackHook"
						},
						{
							"name": "poolConfigurations",
							"type": "tuple[]",
							"internalType": "struct REVBuybackPoolConfig[]",
							"components": [
								{
									"name": "token",
									"type": "address",
									"internalType": "address"
								},
								{
									"name": "fee",
									"type": "uint24",
									"internalType": "uint24"
								},
								{
									"name": "twapWindow",
									"type": "uint32",
									"internalType": "uint32"
								},
								{
									"name": "twapSlippageTolerance",
									"type": "uint32",
									"internalType": "uint32"
								}
							]
						}
					]
				},
				{
					"name": "suckerDeploymentConfiguration",
					"type": "tuple",
					"internalType": "struct REVSuckerDeploymentConfig",
					"components": [
						{
							"name": "deployerConfigurations",
							"type": "tuple[]",
							"internalType": "struct JBSuckerDeployerConfig[]",
							"components": [
								{
									"name": "deployer",
									"type": "address",
									"internalType": "contract IJBSuckerDeployer"
								},
								{
									"name": "mappings",
									"type": "tuple[]",
									"internalType": "struct JBTokenMapping[]",
									"components": [
										{
											"name": "localToken",
											"type": "address",
											"internalType": "address"
										},
										{
											"name": "minGas",
											"type": "uint32",
											"internalType": "uint32"
										},
										{
											"name": "remoteToken",
											"type": "address",
											"internalType": "address"
										},
										{
											"name": "minBridgeAmount",
											"type": "uint256",
											"internalType": "uint256"
										}
									]
								}
							]
						},
						{
							"name": "salt",
							"type": "bytes32",
							"internalType": "bytes32"
						}
					]
				},
				{
					"name": "tiered721HookConfiguration",
					"type": "tuple",
					"internalType": "struct REVDeploy721TiersHookConfig",
					"components": [
						{
							"name": "baseline721HookConfiguration",
							"type": "tuple",
							"internalType": "struct JBDeploy721TiersHookConfig",
							"components": [
								{
									"name": "name",
									"type": "string",
									"internalType": "string"
								},
								{
									"name": "symbol",
									"type": "string",
									"internalType": "string"
								},
								{
									"name": "baseUri",
									"type": "string",
									"internalType": "string"
								},
								{
									"name": "tokenUriResolver",
									"type": "address",
									"internalType": "contract IJB721TokenUriResolver"
								},
								{
									"name": "contractUri",
									"type": "string",
									"internalType": "string"
								},
								{
									"name": "tiersConfig",
									"type": "tuple",
									"internalType": "struct JB721InitTiersConfig",
									"components": [
										{
											"name": "tiers",
											"type": "tuple[]",
											"internalType": "struct JB721TierConfig[]",
											"components": [
												{
													"name": "price",
													"type": "uint104",
													"internalType": "uint104"
												},
												{
													"name": "initialSupply",
													"type": "uint32",
													"internalType": "uint32"
												},
												{
													"name": "votingUnits",
													"type": "uint32",
													"internalType": "uint32"
												},
												{
													"name": "reserveFrequency",
													"type": "uint16",
													"internalType": "uint16"
												},
												{
													"name": "reserveBeneficiary",
													"type": "address",
													"internalType": "address"
												},
												{
													"name": "encodedIPFSUri",
													"type": "bytes32",
													"internalType": "bytes32"
												},
												{
													"name": "category",
													"type": "uint24",
													"internalType": "uint24"
												},
												{
													"name": "discountPercent",
													"type": "uint8",
													"internalType": "uint8"
												},
												{
													"name": "allowOwnerMint",
													"type": "bool",
													"internalType": "bool"
												},
												{
													"name": "useReserveBeneficiaryAsDefault",
													"type": "bool",
													"internalType": "bool"
												},
												{
													"name": "transfersPausable",
													"type": "bool",
													"internalType": "bool"
												},
												{
													"name": "useVotingUnits",
													"type": "bool",
													"internalType": "bool"
												},
												{
													"name": "cannotBeRemoved",
													"type": "bool",
													"internalType": "bool"
												},
												{
													"name": "cannotIncreaseDiscountPercent",
													"type": "bool",
													"internalType": "bool"
												}
											]
										},
										{
											"name": "currency",
											"type": "uint32",
											"internalType": "uint32"
										},
										{
											"name": "decimals",
											"type": "uint8",
											"internalType": "uint8"
										},
										{
											"name": "prices",
											"type": "address",
											"internalType": "contract IJBPrices"
										}
									]
								},
								{
									"name": "reserveBeneficiary",
									"type": "address",
									"internalType": "address"
								},
								{
									"name": "flags",
									"type": "tuple",
									"internalType": "struct JB721TiersHookFlags",
									"components": [
										{
											"name": "noNewTiersWithReserves",
											"type": "bool",
											"internalType": "bool"
										},
										{
											"name": "noNewTiersWithVotes",
											"type": "bool",
											"internalType": "bool"
										},
										{
											"name": "noNewTiersWithOwnerMinting",
											"type": "bool",
											"internalType": "bool"
										},
										{
											"name": "preventOverspending",
											"type": "bool",
											"internalType": "bool"
										}
									]
								}
							]
						},
						{
							"name": "splitOperatorCanAdjustTiers",
							"type": "bool",
							"internalType": "bool"
						},
						{
							"name": "splitOperatorCanUpdateMetadata",
							"type": "bool",
							"internalType": "bool"
						},
						{
							"name": "splitOperatorCanMint",
							"type": "bool",
							"internalType": "bool"
						},
						{
							"name": "splitOperatorCanIncreaseDiscountPercent",
							"type": "bool",
							"internalType": "bool"
						}
					]
				},
				{
					"name": "allowedPosts",
					"type": "tuple[]",
					"internalType": "struct REVCroptopAllowedPost[]",
					"components": [
						{
							"name": "category",
							"type": "uint24",
							"internalType": "uint24"
						},
						{
							"name": "minimumPrice",
							"type": "uint104",
							"internalType": "uint104"
						},
						{
							"name": "minimumTotalSupply",
							"type": "uint32",
							"internalType": "uint32"
						},
						{
							"name": "maximumTotalSupply",
							"type": "uint32",
							"internalType": "uint32"
						},
						{
							"name": "allowedAddresses",
							"type": "address[]",
							"internalType": "address[]"
						}
					]
				}
			],
			"outputs": [
				{
					"name": "",
					"type": "uint256",
					"internalType": "uint256"
				},
				{
					"name": "hook",
					"type": "address",
					"internalType": "contract IJB721TiersHook"
				}
			],
			"stateMutability": "nonpayable"
		},
		{
			"type": "function",
			"name": "hasMintPermissionFor",
			"inputs": [
				{
					"name": "revnetId",
					"type": "uint256",
					"internalType": "uint256"
				},
				{
					"name": "addr",
					"type": "address",
					"internalType": "address"
				}
			],
			"outputs": [
				{
					"name": "",
					"type": "bool",
					"internalType": "bool"
				}
			],
			"stateMutability": "view"
		},
		{
			"type": "function",
			"name": "isSplitOperatorOf",
			"inputs": [
				{
					"name": "revnetId",
					"type": "uint256",
					"internalType": "uint256"
				},
				{
					"name": "addr",
					"type": "address",
					"internalType": "address"
				}
			],
			"outputs": [
				{
					"name": "",
					"type": "bool",
					"internalType": "bool"
				}
			],
			"stateMutability": "view"
		},
		{
			"type": "function",
			"name": "loansOf",
			"inputs": [
				{
					"name": "revnetId",
					"type": "uint256",
					"internalType": "uint256"
				}
			],
			"outputs": [
				{
					"name": "",
					"type": "address",
					"internalType": "address"
				}
			],
			"stateMutability": "view"
		},
		{
			"type": "function",
			"name": "onERC721Received",
			"inputs": [
				{
					"name": "",
					"type": "address",
					"internalType": "address"
				},
				{
					"name": "",
					"type": "address",
					"internalType": "address"
				},
				{
					"name": "",
					"type": "uint256",
					"internalType": "uint256"
				},
				{
					"name": "",
					"type": "bytes",
					"internalType": "bytes"
				}
			],
			"outputs": [
				{
					"name": "",
					"type": "bytes4",
					"internalType": "bytes4"
				}
			],
			"stateMutability": "view"
		},
		{
			"type": "function",
			"name": "setSplitOperatorOf",
			"inputs": [
				{
					"name": "revnetId",
					"type": "uint256",
					"internalType": "uint256"
				},
				{
					"name": "newSplitOperator",
					"type": "address",
					"internalType": "address"
				}
			],
			"outputs": [],
			"stateMutability": "nonpayable"
		},
		{
			"type": "function",
			"name": "supportsInterface",
			"inputs": [
				{
					"name": "interfaceId",
					"type": "bytes4",
					"internalType": "bytes4"
				}
			],
			"outputs": [
				{
					"name": "",
					"type": "bool",
					"internalType": "bool"
				}
			],
			"stateMutability": "view"
		},
		{
			"type": "function",
			"name": "tiered721HookOf",
			"inputs": [
				{
					"name": "revnetId",
					"type": "uint256",
					"internalType": "uint256"
				}
			],
			"outputs": [
				{
					"name": "tiered721Hook",
					"type": "address",
					"internalType": "contract IJB721TiersHook"
				}
			],
			"stateMutability": "view"
		},
		{
			"type": "function",
			"name": "unrealizedAutoMintAmountOf",
			"inputs": [
				{
					"name": "revnetId",
					"type": "uint256",
					"internalType": "uint256"
				}
			],
			"outputs": [
				{
					"name": "",
					"type": "uint256",
					"internalType": "uint256"
				}
			],
			"stateMutability": "view"
		},
		{
			"type": "event",
			"name": "DeployRevnet",
			"inputs": [
				{
					"name": "revnetId",
					"type": "uint256",
					"indexed": true,
					"internalType": "uint256"
				},
				{
					"name": "configuration",
					"type": "tuple",
					"indexed": false,
					"internalType": "struct REVConfig",
					"components": [
						{
							"name": "description",
							"type": "tuple",
							"internalType": "struct REVDescription",
							"components": [
								{
									"name": "name",
									"type": "string",
									"internalType": "string"
								},
								{
									"name": "ticker",
									"type": "string",
									"internalType": "string"
								},
								{
									"name": "uri",
									"type": "string",
									"internalType": "string"
								},
								{
									"name": "salt",
									"type": "bytes32",
									"internalType": "bytes32"
								}
							]
						},
						{
							"name": "baseCurrency",
							"type": "uint32",
							"internalType": "uint32"
						},
						{
							"name": "splitOperator",
							"type": "address",
							"internalType": "address"
						},
						{
							"name": "stageConfigurations",
							"type": "tuple[]",
							"internalType": "struct REVStageConfig[]",
							"components": [
								{
									"name": "startsAtOrAfter",
									"type": "uint40",
									"internalType": "uint40"
								},
								{
									"name": "autoMints",
									"type": "tuple[]",
									"internalType": "struct REVAutoMint[]",
									"components": [
										{
											"name": "chainId",
											"type": "uint32",
											"internalType": "uint32"
										},
										{
											"name": "count",
											"type": "uint104",
											"internalType": "uint104"
										},
										{
											"name": "beneficiary",
											"type": "address",
											"internalType": "address"
										}
									]
								},
								{
									"name": "splitPercent",
									"type": "uint16",
									"internalType": "uint16"
								},
								{
									"name": "initialIssuance",
									"type": "uint112",
									"internalType": "uint112"
								},
								{
									"name": "issuanceDecayFrequency",
									"type": "uint32",
									"internalType": "uint32"
								},
								{
									"name": "issuanceDecayPercent",
									"type": "uint32",
									"internalType": "uint32"
								},
								{
									"name": "cashOutTaxRate",
									"type": "uint16",
									"internalType": "uint16"
								},
								{
									"name": "extraMetadata",
									"type": "uint16",
									"internalType": "uint16"
								}
							]
						},
						{
							"name": "loanSources",
							"type": "tuple[]",
							"internalType": "struct REVLoanSource[]",
							"components": [
								{
									"name": "token",
									"type": "address",
									"internalType": "address"
								},
								{
									"name": "terminal",
									"type": "address",
									"internalType": "contract IJBPayoutTerminal"
								}
							]
						},
						{
							"name": "loans",
							"type": "address",
							"internalType": "address"
						},
						{
							"name": "allowCrosschainSuckerExtension",
							"type": "bool",
							"internalType": "bool"
						}
					]
				},
				{
					"name": "terminalConfigurations",
					"type": "tuple[]",
					"indexed": false,
					"internalType": "struct JBTerminalConfig[]",
					"components": [
						{
							"name": "terminal",
							"type": "address",
							"internalType": "contract IJBTerminal"
						},
						{
							"name": "accountingContextsToAccept",
							"type": "tuple[]",
							"internalType": "struct JBAccountingContext[]",
							"components": [
								{
									"name": "token",
									"type": "address",
									"internalType": "address"
								},
								{
									"name": "decimals",
									"type": "uint8",
									"internalType": "uint8"
								},
								{
									"name": "currency",
									"type": "uint32",
									"internalType": "uint32"
								}
							]
						}
					]
				},
				{
					"name": "buybackHookConfiguration",
					"type": "tuple",
					"indexed": false,
					"internalType": "struct REVBuybackHookConfig",
					"components": [
						{
							"name": "hook",
							"type": "address",
							"internalType": "contract IJBBuybackHook"
						},
						{
							"name": "poolConfigurations",
							"type": "tuple[]",
							"internalType": "struct REVBuybackPoolConfig[]",
							"components": [
								{
									"name": "token",
									"type": "address",
									"internalType": "address"
								},
								{
									"name": "fee",
									"type": "uint24",
									"internalType": "uint24"
								},
								{
									"name": "twapWindow",
									"type": "uint32",
									"internalType": "uint32"
								},
								{
									"name": "twapSlippageTolerance",
									"type": "uint32",
									"internalType": "uint32"
								}
							]
						}
					]
				},
				{
					"name": "suckerDeploymentConfiguration",
					"type": "tuple",
					"indexed": false,
					"internalType": "struct REVSuckerDeploymentConfig",
					"components": [
						{
							"name": "deployerConfigurations",
							"type": "tuple[]",
							"internalType": "struct JBSuckerDeployerConfig[]",
							"components": [
								{
									"name": "deployer",
									"type": "address",
									"internalType": "contract IJBSuckerDeployer"
								},
								{
									"name": "mappings",
									"type": "tuple[]",
									"internalType": "struct JBTokenMapping[]",
									"components": [
										{
											"name": "localToken",
											"type": "address",
											"internalType": "address"
										},
										{
											"name": "minGas",
											"type": "uint32",
											"internalType": "uint32"
										},
										{
											"name": "remoteToken",
											"type": "address",
											"internalType": "address"
										},
										{
											"name": "minBridgeAmount",
											"type": "uint256",
											"internalType": "uint256"
										}
									]
								}
							]
						},
						{
							"name": "salt",
							"type": "bytes32",
							"internalType": "bytes32"
						}
					]
				},
				{
					"name": "rulesetConfigurations",
					"type": "tuple[]",
					"indexed": false,
					"internalType": "struct JBRulesetConfig[]",
					"components": [
						{
							"name": "mustStartAtOrAfter",
							"type": "uint48",
							"internalType": "uint48"
						},
						{
							"name": "duration",
							"type": "uint32",
							"internalType": "uint32"
						},
						{
							"name": "weight",
							"type": "uint112",
							"internalType": "uint112"
						},
						{
							"name": "decayPercent",
							"type": "uint32",
							"internalType": "uint32"
						},
						{
							"name": "approvalHook",
							"type": "address",
							"internalType": "contract IJBRulesetApprovalHook"
						},
						{
							"name": "metadata",
							"type": "tuple",
							"internalType": "struct JBRulesetMetadata",
							"components": [
								{
									"name": "reservedPercent",
									"type": "uint16",
									"internalType": "uint16"
								},
								{
									"name": "redemptionRate",
									"type": "uint16",
									"internalType": "uint16"
								},
								{
									"name": "baseCurrency",
									"type": "uint32",
									"internalType": "uint32"
								},
								{
									"name": "pausePay",
									"type": "bool",
									"internalType": "bool"
								},
								{
									"name": "pauseCreditTransfers",
									"type": "bool",
									"internalType": "bool"
								},
								{
									"name": "allowOwnerMinting",
									"type": "bool",
									"internalType": "bool"
								},
								{
									"name": "allowSetCustomToken",
									"type": "bool",
									"internalType": "bool"
								},
								{
									"name": "allowTerminalMigration",
									"type": "bool",
									"internalType": "bool"
								},
								{
									"name": "allowSetTerminals",
									"type": "bool",
									"internalType": "bool"
								},
								{
									"name": "allowSetController",
									"type": "bool",
									"internalType": "bool"
								},
								{
									"name": "allowAddAccountingContext",
									"type": "bool",
									"internalType": "bool"
								},
								{
									"name": "allowAddPriceFeed",
									"type": "bool",
									"internalType": "bool"
								},
								{
									"name": "allowCrosschainSuckerExtension",
									"type": "bool",
									"internalType": "bool"
								},
								{
									"name": "ownerMustSendPayouts",
									"type": "bool",
									"internalType": "bool"
								},
								{
									"name": "holdFees",
									"type": "bool",
									"internalType": "bool"
								},
								{
									"name": "useTotalSurplusForRedemptions",
									"type": "bool",
									"internalType": "bool"
								},
								{
									"name": "useDataHookForPay",
									"type": "bool",
									"internalType": "bool"
								},
								{
									"name": "useDataHookForRedeem",
									"type": "bool",
									"internalType": "bool"
								},
								{
									"name": "dataHook",
									"type": "address",
									"internalType": "address"
								},
								{
									"name": "metadata",
									"type": "uint16",
									"internalType": "uint16"
								}
							]
						},
						{
							"name": "splitGroups",
							"type": "tuple[]",
							"internalType": "struct JBSplitGroup[]",
							"components": [
								{
									"name": "groupId",
									"type": "uint256",
									"internalType": "uint256"
								},
								{
									"name": "splits",
									"type": "tuple[]",
									"internalType": "struct JBSplit[]",
									"components": [
										{
											"name": "preferAddToBalance",
											"type": "bool",
											"internalType": "bool"
										},
										{
											"name": "percent",
											"type": "uint32",
											"internalType": "uint32"
										},
										{
											"name": "projectId",
											"type": "uint56",
											"internalType": "uint56"
										},
										{
											"name": "beneficiary",
											"type": "address",
											"internalType": "address payable"
										},
										{
											"name": "lockedUntil",
											"type": "uint48",
											"internalType": "uint48"
										},
										{
											"name": "hook",
											"type": "address",
											"internalType": "contract IJBSplitHook"
										}
									]
								}
							]
						},
						{
							"name": "fundAccessLimitGroups",
							"type": "tuple[]",
							"internalType": "struct JBFundAccessLimitGroup[]",
							"components": [
								{
									"name": "terminal",
									"type": "address",
									"internalType": "address"
								},
								{
									"name": "token",
									"type": "address",
									"internalType": "address"
								},
								{
									"name": "payoutLimits",
									"type": "tuple[]",
									"internalType": "struct JBCurrencyAmount[]",
									"components": [
										{
											"name": "amount",
											"type": "uint224",
											"internalType": "uint224"
										},
										{
											"name": "currency",
											"type": "uint32",
											"internalType": "uint32"
										}
									]
								},
								{
									"name": "surplusAllowances",
									"type": "tuple[]",
									"internalType": "struct JBCurrencyAmount[]",
									"components": [
										{
											"name": "amount",
											"type": "uint224",
											"internalType": "uint224"
										},
										{
											"name": "currency",
											"type": "uint32",
											"internalType": "uint32"
										}
									]
								}
							]
						}
					]
				},
				{
					"name": "encodedConfiguration",
					"type": "bytes",
					"indexed": false,
					"internalType": "bytes"
				},
				{
					"name": "caller",
					"type": "address",
					"indexed": false,
					"internalType": "address"
				}
			],
			"anonymous": false
		},
		{
			"type": "event",
			"name": "DeploySuckers",
			"inputs": [
				{
					"name": "revnetId",
					"type": "uint256",
					"indexed": true,
					"internalType": "uint256"
				},
				{
					"name": "operator",
					"type": "address",
					"indexed": true,
					"internalType": "address"
				},
				{
					"name": "salt",
					"type": "bytes32",
					"indexed": true,
					"internalType": "bytes32"
				},
				{
					"name": "encodedConfiguration",
					"type": "bytes",
					"indexed": false,
					"internalType": "bytes"
				},
				{
					"name": "suckerDeploymentConfiguration",
					"type": "tuple",
					"indexed": false,
					"internalType": "struct REVSuckerDeploymentConfig",
					"components": [
						{
							"name": "deployerConfigurations",
							"type": "tuple[]",
							"internalType": "struct JBSuckerDeployerConfig[]",
							"components": [
								{
									"name": "deployer",
									"type": "address",
									"internalType": "contract IJBSuckerDeployer"
								},
								{
									"name": "mappings",
									"type": "tuple[]",
									"internalType": "struct JBTokenMapping[]",
									"components": [
										{
											"name": "localToken",
											"type": "address",
											"internalType": "address"
										},
										{
											"name": "minGas",
											"type": "uint32",
											"internalType": "uint32"
										},
										{
											"name": "remoteToken",
											"type": "address",
											"internalType": "address"
										},
										{
											"name": "minBridgeAmount",
											"type": "uint256",
											"internalType": "uint256"
										}
									]
								}
							]
						},
						{
							"name": "salt",
							"type": "bytes32",
							"internalType": "bytes32"
						}
					]
				},
				{
					"name": "caller",
					"type": "address",
					"indexed": false,
					"internalType": "address"
				}
			],
			"anonymous": false
		},
		{
			"type": "event",
			"name": "Mint",
			"inputs": [
				{
					"name": "revnetId",
					"type": "uint256",
					"indexed": true,
					"internalType": "uint256"
				},
				{
					"name": "stageId",
					"type": "uint256",
					"indexed": true,
					"internalType": "uint256"
				},
				{
					"name": "beneficiary",
					"type": "address",
					"indexed": true,
					"internalType": "address"
				},
				{
					"name": "count",
					"type": "uint256",
					"indexed": false,
					"internalType": "uint256"
				},
				{
					"name": "caller",
					"type": "address",
					"indexed": false,
					"internalType": "address"
				}
			],
			"anonymous": false
		},
		{
			"type": "event",
			"name": "ReplaceSplitOperator",
			"inputs": [
				{
					"name": "revnetId",
					"type": "uint256",
					"indexed": true,
					"internalType": "uint256"
				},
				{
					"name": "newSplitOperator",
					"type": "address",
					"indexed": true,
					"internalType": "address"
				},
				{
					"name": "caller",
					"type": "address",
					"indexed": false,
					"internalType": "address"
				}
			],
			"anonymous": false
		},
		{
			"type": "event",
			"name": "SetAdditionalOperator",
			"inputs": [
				{
					"name": "revnetId",
					"type": "uint256",
					"indexed": false,
					"internalType": "uint256"
				},
				{
					"name": "additionalOperator",
					"type": "address",
					"indexed": false,
					"internalType": "address"
				},
				{
					"name": "permissionIds",
					"type": "uint256[]",
					"indexed": false,
					"internalType": "uint256[]"
				},
				{
					"name": "caller",
					"type": "address",
					"indexed": false,
					"internalType": "address"
				}
			],
			"anonymous": false
		},
		{
			"type": "event",
			"name": "SetCashOutDelay",
			"inputs": [
				{
					"name": "revnetId",
					"type": "uint256",
					"indexed": true,
					"internalType": "uint256"
				},
				{
					"name": "cashOutDelay",
					"type": "uint256",
					"indexed": false,
					"internalType": "uint256"
				},
				{
					"name": "caller",
					"type": "address",
					"indexed": false,
					"internalType": "address"
				}
			],
			"anonymous": false
		},
		{
			"type": "event",
			"name": "StoreAutoMintAmount",
			"inputs": [
				{
					"name": "revnetId",
					"type": "uint256",
					"indexed": true,
					"internalType": "uint256"
				},
				{
					"name": "stageId",
					"type": "uint256",
					"indexed": true,
					"internalType": "uint256"
				},
				{
					"name": "beneficiary",
					"type": "address",
					"indexed": true,
					"internalType": "address"
				},
				{
					"name": "count",
					"type": "uint256",
					"indexed": false,
					"internalType": "uint256"
				},
				{
					"name": "caller",
					"type": "address",
					"indexed": false,
					"internalType": "address"
				}
			],
			"anonymous": false
		},
		{
			"type": "error",
			"name": "PRBMath_MulDiv_Overflow",
			"inputs": [
				{
					"name": "x",
					"type": "uint256",
					"internalType": "uint256"
				},
				{
					"name": "y",
					"type": "uint256",
					"internalType": "uint256"
				},
				{
					"name": "denominator",
					"type": "uint256",
					"internalType": "uint256"
				}
			]
		},
		{
			"type": "error",
			"name": "REVDeployer_CashOutDelayNotFinished",
			"inputs": []
		},
		{
			"type": "error",
			"name": "REVDeployer_CashOutsCantBeTurnedOffCompletely",
			"inputs": []
		},
		{
			"type": "error",
			"name": "REVDeployer_StageNotStarted",
			"inputs": []
		},
		{
			"type": "error",
			"name": "REVDeployer_StageTimesMustIncrease",
			"inputs": []
		},
		{
			"type": "error",
			"name": "REVDeployer_StagesRequired",
			"inputs": []
		},
		{
			"type": "error",
			"name": "REVDeployer_Unauthorized",
			"inputs": []
		}
	],
	"solcInputHash": "d6cfecce5786581feb7c8233ee5e40a4",
	"args": [
		"0x219A5cE6d1c512D5b050ad2E3d380b8746BE0Cb8",
		"0x616D2E084CAbc02D4A7B6c09dee930f9293e3542",
		"3",
		"0x2BAd941E6c2f9CdBbfc9C25F804f060ffEA1d7bE",
		"0xDd0B2C80A18617F9428c1e9b096fE2DcE222d5F8"
	],
	"bytecode": "0x6101806040523480156200001257600080fd5b5060405162006504380380620065048339810160408190526200003591620002f4565b6001600160a01b0385166080819052604080516388bc2ef360e01b815290516388bc2ef3916004808201926020929091908290030181865afa15801562000080573d6000803e3d6000fd5b505050506040513d601f19601f82011682018060405250810190620000a6919062000368565b6001600160a01b031660a0816001600160a01b031681525050846001600160a01b031663293c49996040518163ffffffff1660e01b8152600401602060405180830381865afa158015620000fe573d6000803e3d6000fd5b505050506040513d601f19601f8201168201806040525081019062000124919062000368565b6001600160a01b0316610120816001600160a01b0316815250506080516001600160a01b031663f434c9146040518163ffffffff1660e01b8152600401602060405180830381865afa1580156200017f573d6000803e3d6000fd5b505050506040513d601f19601f82011682018060405250810190620001a5919062000368565b6001600160a01b039081166101005284811661016081905260c085905283821660e05290821661014052620001de906000601c620001e9565b505050505062000432565b6040805160018082528183019092526000916020808301908036833701905050905081816000815181106200022257620002226200038f565b60ff90921660209283029190910190910152620002423085858462000248565b50505050565b604080516060810182526001600160a01b03808616825266ffffffffffffff8516602083015281830184905261010051925163893ce90160e01b81529192169063893ce90190620002a09088908590600401620003a5565b600060405180830381600087803b158015620002bb57600080fd5b505af1158015620002d0573d6000803e3d6000fd5b505050505050505050565b6001600160a01b0381168114620002f157600080fd5b50565b600080600080600060a086880312156200030d57600080fd5b85516200031a81620002db565b60208701519095506200032d81620002db565b6040870151606088015191955093506200034781620002db565b60808701519092506200035a81620002db565b809150509295509295909350565b6000602082840312156200037b57600080fd5b81516200038881620002db565b9392505050565b634e487b7160e01b600052603260045260246000fd5b600060018060a01b03808516835260206040602085015260a0840182865116604086015266ffffffffffffff6020870151166060860152604086015192506060608086015280835180835260c087019150602085019450600092505b808310156200042657845160ff16825293830193600192909201919083019062000401565b50979650505050505050565b60805160a05160c05160e05161010051610120516101405161016051615fd96200052b6000396000818161052d015281816115800152611b6201526000818161060a015281816120fd0152612e730152600081816102ff01528181610a5a015281816116b40152611ec50152600081816106af015281816112c401526114000152600081816104f90152611f8501526000818161027d01528181610bbe01528181610cd701526110de01526000818161044101528181610ad101526110b701526000818161067b01528181610824015281816114d101528181611602015281816117c3015281816118aa01526119a30152615fd96000f3fe6080604052600436106101b65760003560e01c80638cc35846116100ec578063c57981b51161008a578063dbfbe5da11610064578063dbfbe5da146105f8578063eb02ac061461062c578063ee0fc12114610669578063f434c9141461069d57600080fd5b8063c57981b514610593578063cd817cd0146105a8578063db29c892146105d857600080fd5b8063abf8c5c8116100c6578063abf8c5c8146104e7578063b5d255331461051b578063b8a843d71461054f578063bb1994021461056657600080fd5b80638cc3584614610463578063902b742e14610491578063933c609c146104c757600080fd5b8063293c4999116101595780635d6c1f1a116101335780635d6c1f1a1461039c578063677ce088146103d95780637249a773146103f957806388bc2ef31461042f57600080fd5b8063293c4999146102ed5780633b7ae807146103395780634fa9af691461036f57600080fd5b8063150b7a0211610195578063150b7a02146102325780631680e1721461026b5780631727f039146102ad57806318139690146102c057600080fd5b806244a005146101bb57806301ffc9a7146101dd578063035b93aa14610212575b600080fd5b3480156101c757600080fd5b506101db6101d636600461329c565b6106d1565b005b3480156101e957600080fd5b506101fd6101f83660046132cc565b610769565b60405190151581526020015b60405180910390f35b34801561021e57600080fd5b506101db61022d3660046132f6565b610821565b34801561023e57600080fd5b5061025261024d36600461332f565b610a4d565b6040516001600160e01b03199091168152602001610209565b34801561027757600080fd5b5061029f7f000000000000000000000000000000000000000000000000000000000000000081565b604051908152602001610209565b6101db6102bb366004613665565b610a96565b3480156102cc57600080fd5b5061029f6102db36600461376c565b60056020526000908152604090205481565b3480156102f957600080fd5b506103217f000000000000000000000000000000000000000000000000000000000000000081565b6040516001600160a01b039091168152602001610209565b34801561034557600080fd5b5061032161035436600461376c565b6003602052600090815260409020546001600160a01b031681565b34801561037b57600080fd5b5061029f61038a36600461376c565b60026020526000908152604090205481565b3480156103a857600080fd5b5061029f6103b73660046132f6565b6000602081815293815260408082208552928152828120909352825290205481565b3480156103e557600080fd5b506101fd6103f436600461329c565b610d6f565b34801561040557600080fd5b5061032161041436600461376c565b6001602052600090815260409020546001600160a01b031681565b34801561043b57600080fd5b506103217f000000000000000000000000000000000000000000000000000000000000000081565b34801561046f57600080fd5b5061048361047e366004613785565b610dc7565b604051610209929190613811565b34801561049d57600080fd5b506103216104ac36600461376c565b6004602052600090815260409020546001600160a01b031681565b3480156104d357600080fd5b5061029f6104e2366004614193565b610fe8565b3480156104f357600080fd5b506103217f000000000000000000000000000000000000000000000000000000000000000081565b34801561052757600080fd5b506103217f000000000000000000000000000000000000000000000000000000000000000081565b34801561055b57600080fd5b5061029f62278d0081565b34801561057257600080fd5b5061058661058136600461424a565b611001565b60405161020991906142b7565b34801561059f57600080fd5b5061029f601981565b3480156105b457600080fd5b506105c86105c3366004614304565b611021565b6040516102099493929190614340565b3480156105e457600080fd5b506101fd6105f336600461329c565b6112c0565b34801561060457600080fd5b506103217f000000000000000000000000000000000000000000000000000000000000000081565b34801561063857600080fd5b5061064c6106473660046148f1565b611362565b604080519283526001600160a01b03909116602083015201610209565b34801561067557600080fd5b506103217f000000000000000000000000000000000000000000000000000000000000000081565b3480156106a957600080fd5b506103217f000000000000000000000000000000000000000000000000000000000000000081565b6106db8233611384565b6040513381526001600160a01b0382169083907f0329d6a81434b130c72eb65eea0e32e429dc1277b4aad86ec86454aefb6184519060200160405180910390a361075b303366ffffffffffffff85166000604051908082528060200260200182016040528015610755578160200160208202803683370190505b506113ab565b6107658282611451565b5050565b60006001600160e01b031982167fdde487720000000000000000000000000000000000000000000000000000000014806107cc57506001600160e01b031982167f263ec41e00000000000000000000000000000000000000000000000000000000145b8061080057506001600160e01b031982167f1727f03900000000000000000000000000000000000000000000000000000000145b8061081b57506001600160e01b03198216630a85bd0160e11b145b92915050565b427f00000000000000000000000000000000000000000000000000000000000000006001600160a01b031663d4a1b4b16040518163ffffffff1660e01b8152600401602060405180830381865afa158015610880573d6000803e3d6000fd5b505050506040513d601f19601f820116820180604052508101906108a491906149f1565b6040517f25a61d5c00000000000000000000000000000000000000000000000000000000815260048101869052602481018590526001600160a01b0391909116906325a61d5c9060440161012060405180830381865afa15801561090c573d6000803e3d6000fd5b505050506040513d601f19601f820116820180604052508101906109309190614a45565b6060015165ffffffffffff161115610974576040517fa301d70600000000000000000000000000000000000000000000000000000000815260040160405180910390fd5b60008381526020818152604080832085845282528083206001600160a01b0385168452909152812054908190036109ab5750505050565b60008481526020818152604080832086845282528083206001600160a01b038616845282528083208390558683526005909152812080548392906109f0908490614b0c565b9091555050604080518281523360208201526001600160a01b03841691859187917f598baf7bf150ca2f42be9e9f8f55e81d45f5715c3ff22bf46d697fabec7f31d6910160405180910390a4610a47848284611476565b50505050565b6000336001600160a01b037f00000000000000000000000000000000000000000000000000000000000000001614610a8457600080fd5b50630a85bd0160e11b95945050505050565b60208101516040517f6e49181f00000000000000000000000000000000000000000000000000000000815260048101919091523360248201527f00000000000000000000000000000000000000000000000000000000000000006001600160a01b031690636e49181f90604401602060405180830381865afa158015610b20573d6000803e3d6000fd5b505050506040513d601f19601f82011682018060405250810190610b449190614b1f565b610b6157604051635577362560e11b815260040160405180910390fd5b6000816101000151806020019051810190610b7c91906149f1565b60a0830151519091506000906001600160a01b031661eeee14610ba0576000610baa565b8260a00151606001515b9050816001600160a01b031663fef43257827f00000000000000000000000000000000000000000000000000000000000000008660a00151600001518760a0015160600151886000015160008a60200151604051602001610c0d91815260200190565b6040516020818303038152906040526040518863ffffffff1660e01b8152600401610c3d96959493929190614b3c565b60206040518083038185885af193505050508015610c78575060408051601f3d908101601f19168201909252610c7591810190614b96565b60015b610a47573d808015610ca6576040519150601f19603f3d011682016040523d82523d6000602084013e610cab565b606091505b50336001600160a01b0316639e6eec058386602001518760a00151600001518860a001516060015160007f0000000000000000000000000000000000000000000000000000000000000000604051602001610d0891815260200190565b6040516020818303038152906040526040518763ffffffff1660e01b8152600401610d37959493929190614baf565b6000604051808303818588803b158015610d5057600080fd5b505af1158015610d64573d6000803e3d6000fd5b505050505050505050565b6000828152600160205260408120546001600160a01b0383811691161480610db057506000838152600360205260409020546001600160a01b038381169116145b80610dc05750610dc0838361153e565b9392505050565b60c081013560009081526001602052604081205460609081906001600160a01b03168015610e83576040517f8cc358460000000000000000000000000000000000000000000000000000000081526001600160a01b03821690638cc3584690610e34908890600401614cc2565b600060405180830381865afa158015610e51573d6000803e3d6000fd5b505050506040513d6000823e601f3d908101601f19168201604052610e799190810190614d93565b9094509150610e8c565b84610120013593505b815160c0860135600090815260046020526040902054901515906001600160a01b031680151582610ebe576000610ec1565b60015b81610ecd576000610ed0565b60015b610eda9190614edb565b60ff1667ffffffffffffffff811115610ef557610ef56133ce565b604051908082528060200260200182016040528015610f4257816020015b60408051606080820183526000808352602083015291810191909152815260200190600190039081610f135790505b5095508015610f9e576040518060600160405280836001600160a01b03168152602001600081526020016040518060200160405280600081525081525086600081518110610f9257610f92614ef4565b60200260200101819052505b8215610fde5784600081518110610fb757610fb7614ef4565b602002602001015186600181518110610fd257610fd2614ef4565b60200260200101819052505b5050505050915091565b6000610ff786868686866115b1565b9695505050505050565b606061100d8433611384565b61101984338585611ab4565b949350505050565b6000808060606110436040860180359061103e9060208901614f0a565b61153e565b156110605761271093506080850135925060a085013591506112b9565b6040808601356000908152600260205220544210156110ab576040517fcef2c33600000000000000000000000000000000000000000000000000000000815260040160405180910390fd5b60006001600160a01b037f00000000000000000000000000000000000000000000000000000000000000001663862026507f000000000000000000000000000000000000000000000000000000000000000061110d60e08a0160c08b01614f0a565b6040516001600160e01b031960e085901b16815260048101929092526001600160a01b03166024820152604401602060405180830381865afa158015611157573d6000803e3d6000fd5b505050506040513d601f19601f8201168201806040525081019061117b91906149f1565b9050610160860135612710148061119957506001600160a01b038116155b156111ba5785610160013586608001358760a00135945094509450506112b9565b60006111ce608088013560196103e8611be1565b604080516001808252818301909252919250816020015b604080516060808201835260008083526020830152918101919091528152602001906001900390816111e55750506040805160608101909152308152909350602081016112426101208a01358460a08c01356101608d0135611cd1565b81526020018360405160200161126791906001600160a01b0391909116815260200190565b6040516020818303038152906040528152508360008151811061128c5761128c614ef4565b60209081029190910101526101608701356112ab8260808a0135614b0c565b8860a0013595509550955050505b9193509193565b60007f00000000000000000000000000000000000000000000000000000000000000006001600160a01b031663632af95f8330866112fd88611d3d565b6000806040518763ffffffff1660e01b815260040161132196959493929190614f27565b602060405180830381865afa15801561133e573d6000803e3d6000fd5b505050506040513d601f19601f82011682018060405250810190610dc09190614b1f565b60008061137489898989898989611eb8565b909a909950975050505050505050565b61138e82826112c0565b61076557604051635577362560e11b815260040160405180910390fd5b604080516060810182526001600160a01b03808616825266ffffffffffffff8516602083015281830184905291517f893ce90100000000000000000000000000000000000000000000000000000000815290917f0000000000000000000000000000000000000000000000000000000000000000169063893ce901906114379088908590600401614fa2565b600060405180830381600087803b158015610d5057600080fd5b61076530828466ffffffffffffff1661147161146c87611d3d565b612141565b6113ab565b6040517fc7fb92de00000000000000000000000000000000000000000000000000000000815260048101849052602481018390526001600160a01b03828116604483015260a06064830152600060a4830181905260848301527f0000000000000000000000000000000000000000000000000000000000000000169063c7fb92de9060c4016020604051808303816000875af115801561151a573d6000803e3d6000fd5b505050506040513d601f19601f82011682018060405250810190610a479190614b96565b6040517f83db9d01000000000000000000000000000000000000000000000000000000008152600481018390526001600160a01b0382811660248301526000917f0000000000000000000000000000000000000000000000000000000000000000909116906383db9d0190604401611321565b60008060006115bf876121e1565b915091508760000361168557865160409081015190517f9ca61b120000000000000000000000000000000000000000000000000000000081526001600160a01b037f00000000000000000000000000000000000000000000000000000000000000001691639ca61b129161163b91309187908c906004016154f9565b6020604051808303816000875af115801561165a573d6000803e3d6000fd5b505050506040513d601f19601f8201168201806040525081019061167e9190614b96565b9750611843565b6040517f6352211e000000000000000000000000000000000000000000000000000000008152600481018990527f00000000000000000000000000000000000000000000000000000000000000006001600160a01b0316906342842e0e908290636352211e90602401602060405180830381865afa15801561170b573d6000803e3d6000fd5b505050506040513d601f19601f8201168201806040525081019061172f91906149f1565b6040516001600160e01b031960e084901b1681526001600160a01b039091166004820152306024820152604481018b9052606401600060405180830381600087803b15801561177d57600080fd5b505af1158015611791573d6000803e3d6000fd5b50506040517f54aa1f560000000000000000000000000000000000000000000000000000000081526001600160a01b037f00000000000000000000000000000000000000000000000000000000000000001692506354aa1f5691506117fe908b9086908b9060040161555e565b6020604051808303816000875af115801561181d573d6000803e3d6000fd5b505050506040513d601f19601f820116820180604052508101906118419190614b96565b505b61186b88886060015160008151811061185e5761185e614ef4565b60200260200101516126ab565b8651805160208201516060909201516040517f581781910000000000000000000000000000000000000000000000000000000081526001600160a01b037f000000000000000000000000000000000000000000000000000000000000000016936358178191936118e2938e939192916004016155a5565b6020604051808303816000875af1158015611901573d6000803e3d6000fd5b505050506040513d601f19601f8201168201806040525081019061192591906149f1565b5084516001600160a01b03161561194057611940888661273a565b60a08701516001600160a01b0316156119a1576119638760a0015189601061289b565b60a08701516000898152600360205260409020805473ffffffffffffffffffffffffffffffffffffffff19166001600160a01b039092169190911790555b7f00000000000000000000000000000000000000000000000000000000000000006001600160a01b031663ed1159578960006119e08b604001516128f1565b6040518463ffffffff1660e01b81526004016119fe939291906155e2565b600060405180830381600087803b158015611a1857600080fd5b505af1158015611a2c573d6000803e3d6000fd5b50505050611a3a8888612a22565b611a48888860400151611451565b602084015115611a6457611a628888604001518387611ab4565b505b877fd0c7f2548d2801256cfc7b3e1235832dc90e8688fb72c12858f5f2eacbe4655a88888888878733604051611aa097969594939291906158e5565b60405180910390a250959695505050505050565b6060600084848460200151604051602001611ad193929190615a6f565b60405160208183030381529060405280519060200120905080856001600160a01b0316877f72a0d90820a664aeec4eeb3928b5a9047515321452849cc192d1bb12e26ff9a2878733604051611b2893929190615aa1565b60405180910390a482516040517f2f3f50e00000000000000000000000000000000000000000000000000000000081526001600160a01b037f00000000000000000000000000000000000000000000000000000000000000001691632f3f50e091611b9a918a91869190600401615ae0565b6000604051808303816000875af1158015611bb9573d6000803e3d6000fd5b505050506040513d6000823e601f3d908101601f19168201604052610ff79190810190615aff565b6000808060001985870985870292508281108382030391505080600003611c1b57838281611c1157611c11615b8e565b0492505050610dc0565b838110611c69576040517f63a0577800000000000000000000000000000000000000000000000000000000815260048101879052602481018690526044810185905260640160405180910390fd5b600084868809600260036001881981018916988990049182028318808302840302808302840302808302840302808302840302808302840302918202909203026000889003889004909101858311909403939093029303949094049190911702949350505050565b600081600003611ce357506000611019565b828410611cf1575083611019565b6000611cfe868686611be1565b905061270f198301611d11579050611019565b610ff781611d2b611d2486612710614b0c565b8888611be1565b611d359086615ba4565b612710611be1565b6000818152600660209081526040808320805482518185028101850190935280835260609493830182828015611d9257602002820191906000526020600020905b815481526020019060010190808311611d7e575b50508351939450611daa925083915060039050615ba4565b67ffffffffffffffff811115611dc257611dc26133ce565b604051908082528060200260200182016040528015611deb578160200160208202803683370190505b509250601160ff1683600081518110611e0657611e06614ef4565b602002602001018181525050601960ff1683600181518110611e2a57611e2a614ef4565b602002602001018181525050600660ff1683600281518110611e4e57611e4e614ef4565b60200260200101818152505060005b81811015611eb057828181518110611e7757611e77614ef4565b602002602001015184826003611e8d9190615ba4565b81518110611e9d57611e9d614ef4565b6020908102919091010152600101611e5d565b505050919050565b60008088808203611f53577f00000000000000000000000000000000000000000000000000000000000000006001600160a01b03166306661abd6040518163ffffffff1660e01b8152600401602060405180830381865afa158015611f21573d6000803e3d6000fd5b505050506040513d601f19601f82011682018060405250810190611f459190614b96565b611f50906001615ba4565b99505b84516040517fcc7bb31f0000000000000000000000000000000000000000000000000000000081526001600160a01b037f0000000000000000000000000000000000000000000000000000000000000000169163cc7bb31f91611fba918e91600401615cec565b6020604051808303816000875af1158015611fd9573d6000803e3d6000fd5b505050506040513d601f19601f82011682018060405250810190611ffd91906149f1565b60008b8152600460209081526040909120805473ffffffffffffffffffffffffffffffffffffffff19166001600160a01b038416179055860151909250156120625760008a815260066020908152604082208054600181018255908352912060149101555b84604001511561208f5760008a815260066020908152604082208054600181018255908352912060159101555b8460600151156120bc5760008a815260066020908152604082208054600181018255908352912060169101555b8460800151156120e95760008a815260066020908152604082208054600181018255908352912060179101555b6120f38285612cd4565b15612124576121247f00000000000000000000000000000000000000000000000000000000000000008b601461289b565b612131818a8a8a8a6115b1565b5098999098509650505050505050565b6060815167ffffffffffffffff81111561215d5761215d6133ce565b604051908082528060200260200182016040528015612186578160200160208202803683370190505b50905060005b82518110156121db578281815181106121a7576121a7614ef4565b60200260200101518282815181106121c1576121c1614ef4565b60ff9092166020928302919091019091015260010161218c565b50919050565b6060818101515181906000819003612225576040517f141d479400000000000000000000000000000000000000000000000000000000815260040160405180910390fd5b8067ffffffffffffffff81111561223e5761223e6133ce565b60405190808252806020026020018201604052801561235057816020015b61233d6040805161010080820183526000808352602080840182905283850182905260608085018390526080808601849052865161028081018852848152928301849052958201839052810182905293840181905260a084810182905260c0850182905260e0850182905291840181905261012084018190526101408401819052610160840181905261018084018190526101a084018190526101c084018190526101e08401819052610200840181905261022084018190526102408401819052610260840152909190820190815260200160608152602001606081525090565b81526020019060019003908161225c5790505b5060208086015160a087015160c08801518851805181860151606090920151604051979a50612389979596949593949193909101615e00565b60408051808303601f190181526101008301825260008084526060602085018190529284018190529183018290526080830182905260a0830182905260c0830182905260e0830182905293506123de86612ee6565b90506000805b84811015610fde578760600151818151811061240257612402614ef4565b6020026020010151935081846000015164ffffffffff1611612450576040517fb787fe6700000000000000000000000000000000000000000000000000000000815260040160405180910390fd5b61271061ffff168460c0015161ffff1610612497576040517f1e9a99e300000000000000000000000000000000000000000000000000000000815260040160405180910390fd5b6040805161028081018252600080825260208201819052918101829052606081018290526080810182905260a0810182905260c0810182905260e08101829052610100810182905261012081018290526101408101829052610160810182905261018081018290526101a081018290526101c081018290526101e08101829052610200810182905261022081018290526102408101829052610260810191909152604085015161ffff16815260c085015161255490612710615e5c565b61ffff9081166020838101919091528a81015163ffffffff908116604080860191909152600160a080870182905261020087019190915260c0808f015115156101808801523061024088015260e08b01519095166102608701528151610100810183528a5164ffffffffff16815260808b8101518516828701526060808d01516dffffffffffffffffffffffffffff16838601528c84015190951694820194909452600093810184905290810186905281518381529384019091529283019190612641565b6040805180820190915260008152606060208201528152602001906001900390816126195790505b5081526020018581525088838151811061265d5761265d614ef4565b60200260200101819052508661267386846130fe565b604051602001612684929190615e7e565b60408051601f19818403018152919052855190975064ffffffffff169250506001016123e4565b805164ffffffffff1615806126cb575042816000015164ffffffffff1610155b156126d4575050565b60006126e362278d0042615ba4565b6000848152600260209081526040918290208390558151838152339181019190915291925084917f48a9634f50564cfe6648ff5e75795a36873bf96c408523d50017032657e67198910160405180910390a2505050565b6020808201515160408051608081018252600080825293810184905290810183905260608101929092529082516000858152600160205260408120805473ffffffffffffffffffffffffffffffffffffffff19166001600160a01b03909316929092179091555b8281101561289457836020015181815181106127bf576127bf614ef4565b6020908102919091018101518551918101516040808301516060840151845192517f7b621d3a000000000000000000000000000000000000000000000000000000008152600481018c905262ffffff909416602485015263ffffffff91821660448501521660648301526001600160a01b039081166084830152919450911690637b621d3a9060a4016020604051808303816000875af1158015612867573d6000803e3d6000fd5b505050506040513d601f19601f8201168201806040525081019061288b91906149f1565b506001016127a1565b5050505050565b6040805160018082528183019092526000916020808301908036833701905050905081816000815181106128d1576128d1614ef4565b602002602001019060ff16908160ff1681525050610a47308585846113ab565b60408051600180825281830190925260609160009190816020015b6040805160c08101825260008082526020808301829052928201819052606082018190526080820181905260a0820152825260001990920191018161290c5750506040805160c0810182526000808252633b9aca0060208301529181018290526001600160a01b03861660608201526080810182905260a0810182905282519293509183919061299e5761299e614ef4565b602090810291909101015260408051600180825281830190925290816020015b6040805180820190915260008152606060208201528152602001906001900390816129be5790505091506040518060400160405280600181526020018281525082600081518110612a1157612a11614ef4565b602002602001018190525050919050565b6060808201515160408051610100810182526000808252602082018590529181018290529283018190526080830181905260a0830181905260c0830181905260e0830152906000805b83811015612cbb5784606001518181518110612a8957612a89614ef4565b6020026020010151925060008360200151519050612ad96040518060600160405280600063ffffffff16815260200160006001600160681b0316815260200160006001600160a01b031681525090565b60005b82811015612cb05785602001518181518110612afa57612afa614ef4565b6020026020010151915046826000015163ffffffff1603612ca857831580612b2d575042866000015164ffffffffff1611155b15612bb75760408201516001600160a01b0316612b4a8542615ba4565b602080850151604080516001600160681b03909216825233928201929092528c917f598baf7bf150ca2f42be9e9f8f55e81d45f5715c3ff22bf46d697fabec7f31d6910160405180910390a4612bb28983602001516001600160681b03168460400151611476565b612ca8565b60408201516001600160a01b0316612bcf8542615ba4565b602080850151604080516001600160681b03909216825233928201929092528c917fa2efb1fa77bdb4fb9864af281c415f347cba8a6c934a32bd125c701ae4d0382f910160405180910390a460208083015160008b815291829052604082206001600160681b0390911691612c448742615ba4565b8152602001908152602001600020600084604001516001600160a01b03166001600160a01b031681526020019081526020016000206000828254612c889190615ba4565b90915550506020820151612ca5906001600160681b031686615ba4565b94505b600101612adc565b505050600101612a6b565b5060009485526005602052604090942093909355505050565b8051600090808203612cea57600091505061081b565b60008167ffffffffffffffff811115612d0557612d056133ce565b604051908082528060200260200182016040528015612d6757816020015b6040805160c081018252600080825260208083018290529282018190526060808301829052608083019190915260a08201528252600019909201910181612d235790505b506040805160a081018252600080825260208201819052918101829052606080820183905260808201529192505b83811015612e4257858181518110612daf57612daf614ef4565b602002602001015191506040518060c00160405280886001600160a01b03168152602001836000015162ffffff16815260200183602001516001600160681b03168152602001836040015163ffffffff168152602001836060015163ffffffff1681526020018360800151815250838281518110612e2f57612e2f614ef4565b6020908102919091010152600101612d95565b506040517f441e4d340000000000000000000000000000000000000000000000000000000081526001600160a01b037f0000000000000000000000000000000000000000000000000000000000000000169063441e4d3490612ea8908590600401615edd565b600060405180830381600087803b158015612ec257600080fd5b505af1158015612ed6573d6000803e3d6000fd5b5060019998505050505050505050565b6080810151516040805180820182526000808252602082018190528251600180825281850190945260609493816020015b6040805180820190915260008082526020820152815260200190600190039081612f1757905050905060405180604001604052807bffffffffffffffffffffffffffffffffffffffffffffffffffffffff80168152602001866020015163ffffffff1681525081600081518110612f9057612f90614ef4565b60200260200101819052508267ffffffffffffffff811115612fb457612fb46133ce565b60405190808252806020026020018201604052801561300857816020015b6040805160808101825260008082526020820152606091810182905281810191909152815260200190600190039081612fd25790505b50935060005b838110156130f5578560800151818151811061302c5761302c614ef4565b60200260200101519250604051806080016040528084602001516001600160a01b0316815260200184600001516001600160a01b03168152602001600067ffffffffffffffff811115613081576130816133ce565b6040519080825280602002602001820160405280156130c657816020015b604080518082019091526000808252602082015281526020019060019003908161309f5790505b508152602001838152508582815181106130e2576130e2614ef4565b602090810291909101015260010161300e565b50505050919050565b6060811580156131145750825164ffffffffff16155b61312657825164ffffffffff16613128565b425b6040808501516060860151608087015160a088015160c0890151945161319296959060200195865261ffff94851660208701526dffffffffffffffffffffffffffff93909316604086015263ffffffff91821660608601521660808401521660a082015260c00190565b60408051601f1981840301815291905260208401515190915060005b8181101561320857826131dd866020015183815181106131d0576131d0614ef4565b6020026020010151613210565b6040516020016131ee929190615e7e565b60408051601f1981840301815291905292506001016131ae565b505092915050565b606081600001518260400151836020015160405160200161325e9392919063ffffffff9390931683526001600160a01b039190911660208301526001600160681b0316604082015260600190565b6040516020818303038152906040529050919050565b6001600160a01b038116811461328957600080fd5b50565b803561329781613274565b919050565b600080604083850312156132af57600080fd5b8235915060208301356132c181613274565b809150509250929050565b6000602082840312156132de57600080fd5b81356001600160e01b031981168114610dc057600080fd5b60008060006060848603121561330b57600080fd5b8335925060208401359150604084013561332481613274565b809150509250925092565b60008060008060006080868803121561334757600080fd5b853561335281613274565b9450602086013561336281613274565b935060408601359250606086013567ffffffffffffffff8082111561338657600080fd5b818801915088601f83011261339a57600080fd5b8135818111156133a957600080fd5b8960208285010111156133bb57600080fd5b9699959850939650602001949392505050565b634e487b7160e01b600052604160045260246000fd5b6040516080810167ffffffffffffffff81118282101715613407576134076133ce565b60405290565b604051610140810167ffffffffffffffff81118282101715613407576134076133ce565b6040516060810167ffffffffffffffff81118282101715613407576134076133ce565b604051610100810167ffffffffffffffff81118282101715613407576134076133ce565b6040805190810167ffffffffffffffff81118282101715613407576134076133ce565b60405160e0810167ffffffffffffffff81118282101715613407576134076133ce565b6040516101c0810167ffffffffffffffff81118282101715613407576134076133ce565b60405160a0810167ffffffffffffffff81118282101715613407576134076133ce565b604051610120810167ffffffffffffffff81118282101715613407576134076133ce565b604051601f8201601f1916810167ffffffffffffffff81118282101715613552576135526133ce565b604052919050565b803560ff8116811461329757600080fd5b63ffffffff8116811461328957600080fd5b80356132978161356b565b60006080828403121561359a57600080fd5b6135a26133e4565b905081356135af81613274565b81526135bd6020830161355a565b602082015260408201356135d08161356b565b806040830152506060820135606082015292915050565b600067ffffffffffffffff821115613601576136016133ce565b50601f01601f191660200190565b600082601f83011261362057600080fd5b813561363361362e826135e7565b613529565b81815284602083860101111561364857600080fd5b816020850160208301376000918101602001919091529392505050565b60006020828403121561367757600080fd5b813567ffffffffffffffff8082111561368f57600080fd5b9083019061020082860312156136a457600080fd5b6136ac61340d565b6136b58361328c565b81526020830135602082015260408301356040820152606083013560608201526136e28660808501613588565b60808201526101006136f687828601613588565b60a083015261018084013560c08301526137136101a0850161328c565b60e08301526101c08401358381111561372b57600080fd5b6137378882870161360f565b8284015250506101e08301358281111561375057600080fd5b61375c8782860161360f565b6101208301525095945050505050565b60006020828403121561377e57600080fd5b5035919050565b60006020828403121561379757600080fd5b813567ffffffffffffffff8111156137ae57600080fd5b82016101808185031215610dc057600080fd5b60005b838110156137dc5781810151838201526020016137c4565b50506000910152565b600081518084526137fd8160208601602086016137c1565b601f01601f19169290920160200192915050565b6000604080830185845260206040818601528186518084526060935060608701915060608160051b88010183890160005b8381101561389257898303605f19018552815180516001600160a01b03168452868101518785015288015188840188905261387f888501826137e5565b9587019593505090850190600101613842565b50909a9950505050505050505050565b6000608082840312156138b457600080fd5b6138bc6133e4565b9050813567ffffffffffffffff808211156138d657600080fd5b6138e28583860161360f565b835260208401359150808211156138f857600080fd5b6139048583860161360f565b6020840152604084013591508082111561391d57600080fd5b5061392a8482850161360f565b6040830152506060820135606082015292915050565b600067ffffffffffffffff82111561395a5761395a6133ce565b5060051b60200190565b803564ffffffffff8116811461329757600080fd5b80356001600160681b038116811461329757600080fd5b600082601f8301126139a157600080fd5b813560206139b161362e83613940565b828152606092830285018201928282019190878511156139d057600080fd5b8387015b85811015613a305781818a0312156139ec5760008081fd5b6139f4613431565b81356139ff8161356b565b8152613a0c828701613979565b86820152604080830135613a1f81613274565b9082015284529284019281016139d4565b5090979650505050505050565b803561ffff8116811461329757600080fd5b6dffffffffffffffffffffffffffff8116811461328957600080fd5b803561329781613a4f565b600082601f830112613a8757600080fd5b81356020613a9761362e83613940565b82815260059290921b84018101918181019086841115613ab657600080fd5b8286015b84811015613bae57803567ffffffffffffffff80821115613adb5760008081fd5b90880190610100828b03601f1901811315613af65760008081fd5b613afe613454565b613b09888501613964565b815260408085013584811115613b1f5760008081fd5b613b2d8e8b83890101613990565b8a8401525060609350613b41848601613a3d565b908201526080613b52858201613a6b565b8483015260a09350613b6584860161357d565b9082015260c0613b7685820161357d565b8483015260e09350613b89848601613a3d565b90820152613b98848301613a3d565b9281019290925250845250918301918301613aba565b509695505050505050565b600082601f830112613bca57600080fd5b81356020613bda61362e83613940565b82815260069290921b84018101918181019086841115613bf957600080fd5b8286015b84811015613bae5760408189031215613c165760008081fd5b613c1e613478565b8135613c2981613274565b815281850135613c3881613274565b81860152835291830191604001613bfd565b801515811461328957600080fd5b803561329781613c4a565b600060e08284031215613c7557600080fd5b613c7d61349b565b9050813567ffffffffffffffff80821115613c9757600080fd5b613ca3858386016138a2565b8352613cb16020850161357d565b6020840152613cc26040850161328c565b60408401526060840135915080821115613cdb57600080fd5b613ce785838601613a76565b60608401526080840135915080821115613d0057600080fd5b50613d0d84828501613bb9565b608083015250613d1f60a0830161328c565b60a0820152613d3060c08301613c58565b60c082015292915050565b600082601f830112613d4c57600080fd5b81356020613d5c61362e83613940565b82815260059290921b84018101918181019086841115613d7b57600080fd5b8286015b84811015613bae57803567ffffffffffffffff80821115613d9f57600080fd5b908801906040828b03601f1901811315613db857600080fd5b613dc0613478565b87840135613dcd81613274565b81528382013583811115613de057600080fd5b8085019450508b603f850112613df557600080fd5b878401359250613e0761362e84613940565b83815260609093028401820192888101908d851115613e2557600080fd5b948301945b84861015613e89576060868f031215613e4257600080fd5b613e4a613431565b8635613e5581613274565b8152613e62878c0161355a565b8b82015284870135613e738161356b565b8186015282526060959095019490890190613e2a565b828a0152508652505050918301918301613d7f565b803562ffffff8116811461329757600080fd5b60006040808385031215613ec457600080fd5b613ecc613478565b91508235613ed981613274565b825260208381013567ffffffffffffffff811115613ef657600080fd5b8401601f81018613613f0757600080fd5b8035613f1561362e82613940565b81815260079190911b82018301908381019088831115613f3457600080fd5b928401925b82841015613fac576080848a031215613f525760008081fd5b613f5a6133e4565b8435613f6581613274565b8152613f72858701613e9e565b8682015286850135613f838161356b565b81880152606085810135613f968161356b565b9082015282526080939093019290840190613f39565b808588015250505050505092915050565b600060408284031215613fcf57600080fd5b613fd7613478565b905067ffffffffffffffff8083351115613ff057600080fd5b8235830184601f82011261400357600080fd5b61401061362e8235613940565b81358082526020808301929160051b8401018781111561402f57600080fd5b602084015b8181101561417a57858135111561404a57600080fd5b803585016040818b03601f1901121561406257600080fd5b61406a613478565b6140776020830135613274565b60208201358152876040830135111561408f57600080fd5b6040820135820191508a603f8301126140a757600080fd5b60208201356140b861362e82613940565b81815260079190911b83016040019060208101908d8311156140d957600080fd5b6040850194505b8285101561415b576080858f0312156140f857600080fd5b6141006133e4565b61410a8635613274565b8535815261411b602087013561356b565b602086013560208201526141326040870135613274565b6040860135604082015260608601356060820152808352506020820191506080850194506140e0565b8060208501525050508086525050602084019350602081019050614034565b5050808552505050506020820135602082015292915050565b600080600080600060a086880312156141ab57600080fd5b85359450602086013567ffffffffffffffff808211156141ca57600080fd5b6141d689838a01613c63565b955060408801359150808211156141ec57600080fd5b6141f889838a01613d3b565b9450606088013591508082111561420e57600080fd5b61421a89838a01613eb1565b9350608088013591508082111561423057600080fd5b5061423d88828901613fbd565b9150509295509295909350565b60008060006060848603121561425f57600080fd5b83359250602084013567ffffffffffffffff8082111561427e57600080fd5b61428a8783880161360f565b935060408601359150808211156142a057600080fd5b506142ad86828701613fbd565b9150509250925092565b6020808252825182820181905260009190848201906040850190845b818110156142f85783516001600160a01b0316835292840192918401916001016142d3565b50909695505050505050565b60006020828403121561431657600080fd5b813567ffffffffffffffff81111561432d57600080fd5b82016101a08185031215610dc057600080fd5b60006080820186835260208681850152604086604086015260606080606087015283875180865260a08801915060a08160051b890101955084890160005b828110156143ce57898803609f19018452815180516001600160a01b0316895287810151888a01528601518689018690526143bb868a01826137e5565b985050928601929086019060010161437e565b50959c9b505050505050505050505050565b600060808083850312156143f357600080fd5b6143fb6133e4565b9150823567ffffffffffffffff81111561441457600080fd5b8301601f8101851361442557600080fd5b8035602061443561362e83613940565b8281526101c0928302840182019282820191908985111561445557600080fd5b948301945b8486101561456c5780868b0312156144725760008081fd5b61447a6134be565b61448387613979565b815261449085880161357d565b8582015260406144a181890161357d565b9082015260606144b2888201613a3d565b908201526144c187890161328c565b8189015260a0878101359082015260c06144dc818901613e9e565b9082015260e06144ed88820161355a565b908201526101006144ff888201613c58565b90820152610120614511888201613c58565b90820152610140614523888201613c58565b90820152610160614535888201613c58565b90820152610180614547888201613c58565b908201526101a0614559888201613c58565b908201528352948501949183019161445a565b5086525061457b86820161357d565b818601525050505061458f6040830161355a565b60408201526145a06060830161328c565b606082015292915050565b6000608082840312156145bd57600080fd5b6145c56133e4565b905081356145d281613c4a565b815260208201356145e281613c4a565b602082015260408201356145f581613c4a565b604082015260608201356145a081613c4a565b600060a0828403121561461a57600080fd5b6146226134e2565b9050813567ffffffffffffffff8082111561463c57600080fd5b90830190610160828603121561465157600080fd5b614659613454565b82358281111561466857600080fd5b6146748782860161360f565b82525060208301358281111561468957600080fd5b6146958782860161360f565b6020830152506040830135828111156146ad57600080fd5b6146b98782860161360f565b6040830152506146cb6060840161328c565b60608201526080830135828111156146e257600080fd5b6146ee8782860161360f565b60808301525060a08301358281111561470657600080fd5b614712878286016143e0565b60a08301525061472460c0840161328c565b60c08201526147368660e085016145ab565b60e082015283525061474c905060208301613c58565b602082015261475d60408301613c58565b604082015261476e60608301613c58565b606082015261477f60808301613c58565b608082015292915050565b600082601f83011261479b57600080fd5b813560206147ab61362e83613940565b828152600592831b85018201928282019190878511156147ca57600080fd5b8387015b85811015613a3057803567ffffffffffffffff808211156147ef5760008081fd5b9089019060a0828c03601f19018113156148095760008081fd5b6148116134e2565b61481c898501613e9e565b8152604061482b818601613979565b8a83015260608086013561483e8161356b565b838301526080868101356148518161356b565b8483015293860135938585111561486a57600091508182fd5b84870196508f603f88011261488157600095508586fd5b8b870135955061489361362e87613940565b86815295891b87018301958c8101955091508f8611156148b35760008081fd5b958201955b858710156148dd57863592506148cd83613274565b828552958b0195938b01936148b8565b8301525087525050509284019284016147ce565b600080600080600080600060e0888a03121561490c57600080fd5b87359650602088013567ffffffffffffffff8082111561492b57600080fd5b6149378b838c01613c63565b975060408a013591508082111561494d57600080fd5b6149598b838c01613d3b565b965060608a013591508082111561496f57600080fd5b61497b8b838c01613eb1565b955060808a013591508082111561499157600080fd5b61499d8b838c01613fbd565b945060a08a01359150808211156149b357600080fd5b6149bf8b838c01614608565b935060c08a01359150808211156149d557600080fd5b506149e28a828b0161478a565b91505092959891949750929550565b600060208284031215614a0357600080fd5b8151610dc081613274565b805165ffffffffffff8116811461329757600080fd5b80516132978161356b565b805161329781613a4f565b805161329781613274565b60006101208284031215614a5857600080fd5b614a60613505565b614a6983614a0e565b8152614a7760208401614a0e565b6020820152614a8860408401614a0e565b6040820152614a9960608401614a0e565b6060820152614aaa60808401614a24565b6080820152614abb60a08401614a2f565b60a0820152614acc60c08401614a24565b60c0820152614add60e08401614a3a565b60e0820152610100928301519281019290925250919050565b634e487b7160e01b600052601160045260246000fd5b8181038181111561081b5761081b614af6565b600060208284031215614b3157600080fd5b8151610dc081613c4a565b86815260006001600160a01b03808816602084015286604084015280861660608401525083608083015260e060a0830152600060e08301526101008060c0840152614b89818401856137e5565b9998505050505050505050565b600060208284031215614ba857600080fd5b5051919050565b8581526001600160a01b0385166020820152836040820152821515606082015260c06080820152600060c082015260e060a08201526000614bf360e08301846137e5565b979650505050505050565b8035614c0981613274565b6001600160a01b0316825260ff614c226020830161355a565b1660208301526040810135614c368161356b565b63ffffffff166040830152606090810135910152565b6000808335601e19843603018112614c6357600080fd5b830160208101925035905067ffffffffffffffff811115614c8357600080fd5b803603821315614c9257600080fd5b9250929050565b81835281816020850137506000828201602090810191909152601f909101601f19169091010190565b60208152614ce360208201614cd68461328c565b6001600160a01b03169052565b6000614cf16020840161328c565b6001600160a01b038116604084015250614d116060830160408501614bfe565b60c083013560e083015261010060e084013581840152614d3281850161328c565b9050610120614d4b818501836001600160a01b03169052565b61014091508085013582850152506101608185013581850152614d7081860186614c4c565b6101808681015292509050614d8a6101a085018383614c99565b95945050505050565b6000806040808486031215614da757600080fd5b8351925060208085015167ffffffffffffffff80821115614dc757600080fd5b818701915087601f830112614ddb57600080fd5b8151614de961362e82613940565b81815260059190911b8301840190848101908a831115614e0857600080fd5b8585015b83811015614ec957805185811115614e2357600080fd5b86016060818e03601f19011215614e3a5760008081fd5b614e42613431565b88820151614e4f81613274565b8152818a015189820152606082015187811115614e6c5760008081fd5b8083019250508d603f830112614e825760008081fd5b88820151614e9261362e826135e7565b8181528f8c838601011115614ea75760008081fd5b614eb6828c83018e87016137c1565b828c015250845250918601918601614e0c565b50809750505050505050509250929050565b60ff818116838216019081111561081b5761081b614af6565b634e487b7160e01b600052603260045260246000fd5b600060208284031215614f1c57600080fd5b8135610dc081613274565b600060c082016001600160a01b03808a1684526020818a16602086015288604086015260c06060860152829150875180845260e08601925060208901935060005b81811015614f8457845184529382019392820192600101614f68565b5050509415156080840152505090151560a090910152949350505050565b60006001600160a01b03808516835260206040602085015260a0840182865116604086015266ffffffffffffff6020870151166060860152604086015192506060608086015280835180835260c087019150602085019450600092505b8083101561502257845160ff168252938301936001929092019190830190614fff565b50979650505050505050565b805161ffff168252602081015161504b602084018261ffff169052565b506040810151615063604084018263ffffffff169052565b506060810151615077606084018215159052565b50608081015161508b608084018215159052565b5060a081015161509f60a084018215159052565b5060c08101516150b360c084018215159052565b5060e08101516150c760e084018215159052565b5061010081810151151590830152610120808201511515908301526101408082015115159083015261016080820151151590830152610180808201511515908301526101a0808201511515908301526101c0808201511515908301526101e0808201511515908301526102008082015115159083015261022080820151151590830152610240808201516001600160a01b0316908301526102608082015161ffff811682850152610a47565b600082825180855260208086019550808260051b8401018186016000805b8581101561525057868403601f19018a52825180518552850151604086860181905281518187018190529187019160609081880190865b818110156152395785518051151584528b81015163ffffffff168c8501528581015166ffffffffffffff1686850152848101516001600160a01b039081168686015260808083015165ffffffffffff169086015260a0918201511690840152948a019460c0909201916001016151c8565b50509c88019c965050509285019250600101615191565b509198975050505050505050565b60008151808452602080850194506020840160005b838110156152be57815180517bffffffffffffffffffffffffffffffffffffffffffffffffffffffff16885283015163ffffffff168388015260409096019590820190600101615273565b509495945050505050565b600082825180855260208086019550808260051b84010181860160005b84811015613a3057601f19868403018952815160806001600160a01b038083511686528087840151168787015250604080830151828288015261532b8388018261525e565b9250505060608083015192508582038187015250615349818361525e565b9a86019a94505050908301906001016152e6565b600082825180855260208086019550808260051b84010181860160005b84811015613a3057601f198684030189528151805165ffffffffffff1684528481015163ffffffff908116868601526040808301516dffffffffffffffffffffffffffff1690860152606080830151909116908501526080808201516001600160a01b03169085015260a08082015161036091906153fa8288018261502e565b505060c08201518161032087015261541482870182615173565b91505060e0820151915084810361034086015261543181836152c9565b9a86019a945050509083019060010161537a565b600082825180855260208086019550808260051b8401018186016000805b8581101561525057868403601f19018a52825180516001600160a01b03908116865290860151604087870181905281518188018190529188019290916060919082890190875b818110156154e15786518051851684528c81015160ff168d85015286015163ffffffff1686840152958b0195918401916001016154a9565b50509d89019d97505050938601935050600101615463565b6001600160a01b038516815260a06020820152600061551b60a08301866137e5565b828103604084015261552d818661535d565b905082810360608401526155418185615445565b838103608090940193909352505060008152602001949350505050565b838152608060208201526000615577608083018561535d565b82810360408401526155898185615445565b8381036060909401939093525050600081526020019392505050565b8481526080602082015260006155be60808301866137e5565b82810360408401526155d081866137e5565b91505082606083015295945050505050565b838152826020820152606060408201526000614d8a6060830184615173565b600082825180855260208086019550808260051b8401018186016000805b8581101561525057868403601f19018a528251805164ffffffffff16855285810151610100878701819052815190870181905261012087019188019085905b808210156156ac578251805163ffffffff1685528a8101516001600160681b03168b8601526040908101516001600160a01b031690850152606090930192918901916001919091019061565e565b50505060408281015161ffff908116918801919091526060808401516dffffffffffffffffffffffffffff169088015260808084015163ffffffff9081169189019190915260a0808501519091169088015260c08084015182169088015260e092830151169190950152988401989184019160010161561f565b60008151808452602080850194506020840160005b838110156152be57815180516001600160a01b0390811689529084015116838801526040909601959082019060010161573b565b600060408084016001600160a01b038085511686526020808601516040828901528381518086526060955060608a019150838301925060005b818110156157f05783518051871684528581015162ffffff16868501528881015163ffffffff9081168a860152908801511687840152928401926080909201916001016157a8565b50909998505050505050505050565b600082825180855260208086019550808260051b8401018186016000805b8581101561525057868403601f19018a52825180516001600160a01b03908116865290860151604087870181905281518188018190529188019290916060919082890190875b818110156158a45786518051851684528c81015163ffffffff168d8501528681015185168785015285015185840152958b0195608090920191600101615863565b50509d89019d9750505093860193505060010161581d565b60008151604084526158d160408501826157ff565b602093840151949093019390935250919050565b60e081526000885160e080840152805160806101c085015261590b6102408501826137e5565b905060208201516101bf1980868403016101e087015261592b83836137e5565b92506040840151915080868403016102008701525061594a82826137e5565b60609384015161022087015260208d015163ffffffff1661010087015260408d01516001600160a01b0316610120870152928c015185840360df1990810161014088015290939250905061599e8284615601565b925060808c015191508085840301610160860152506159bd8282615726565b91505060a08a01516159db6101808501826001600160a01b03169052565b5060c08a015115156101a084015282810360208401526159fb818a615445565b90508281036040840152615a0f818961576f565b90508281036060840152615a2381886158bc565b90508281036080840152615a37818761535d565b905082810360a0840152615a4b81866137e5565b915050615a6360c08301846001600160a01b03169052565b98975050505050505050565b6001600160a01b0384168152606060208201526000615a9160608301856137e5565b9050826040830152949350505050565b606081526000615ab460608301866137e5565b8281036020840152615ac681866158bc565b9150506001600160a01b0383166040830152949350505050565b838152826020820152606060408201526000614d8a60608301846157ff565b60006020808385031215615b1257600080fd5b825167ffffffffffffffff811115615b2957600080fd5b8301601f81018513615b3a57600080fd5b8051615b4861362e82613940565b81815260059190911b82018301908381019087831115615b6757600080fd5b928401925b82841015614bf3578351615b7f81613274565b82529284019290840190615b6c565b634e487b7160e01b600052601260045260246000fd5b8082018082111561081b5761081b614af6565b80516080808452815184820181905260009260a0916020918201918388019190865b82811015615cb157845180516001600160681b031685528281015163ffffffff908116848701526040808301519091169086015260608082015161ffff1690860152878101516001600160a01b031688860152868101518786015260c08082015162ffffff169086015260e08082015160ff169086015261010080820151151590860152610120808201511515908601526101408082015115159086015261016080820151151590860152610180808201511515908601526101a090810151151590850152938101936101c090930192600101615bd9565b508781015163ffffffff16908901525060408087015160ff16908801526060808701516001600160a01b038116918901919091529350610ff7565b82815260406020820152600082516101606040840152615d106101a08401826137e5565b90506020840151603f1980858403016060860152615d2e83836137e5565b92506040860151915080858403016080860152615d4b83836137e5565b925060608601519150615d6960a08601836001600160a01b03169052565b60808601519150808584030160c0860152615d8483836137e5565b925060a08601519150808584030160e086015250615da28282615bb7565b91505060c0840151615dc06101008501826001600160a01b03169052565b5060e08401518051151561012085015260208101511515610140850152604081015115156101608501526060810151151561018085015250949350505050565b63ffffffff871681526001600160a01b0386166020820152841515604082015260c060608201526000615e3660c08301866137e5565b8281036080840152615e4881866137e5565b9150508260a0830152979650505050505050565b61ffff828116828216039080821115615e7757615e77614af6565b5092915050565b604081526000615e9160408301856137e5565b8281036020840152614d8a81856137e5565b60008151808452602080850194506020840160005b838110156152be5781516001600160a01b031687529582019590820190600101615eb8565b600060208083018184528085518083526040925060408601915060408160051b87010184880160005b83811015615f9557888303603f19018552815180516001600160a01b031684528781015162ffffff1688850152868101516001600160681b03168785015260608082015163ffffffff908116918601919091526080808301519091169085015260a09081015160c091850182905290615f8181860183615ea3565b968901969450505090860190600101615f06565b50909897505050505050505056fea2646970667358221220fd746635e0c9ade7686636acf9920328ab2ab2c9592c5b8cc29bb2174175c2d064736f6c63430008170033",
	"deployedBytecode": "0x6080604052600436106101b65760003560e01c80638cc35846116100ec578063c57981b51161008a578063dbfbe5da11610064578063dbfbe5da146105f8578063eb02ac061461062c578063ee0fc12114610669578063f434c9141461069d57600080fd5b8063c57981b514610593578063cd817cd0146105a8578063db29c892146105d857600080fd5b8063abf8c5c8116100c6578063abf8c5c8146104e7578063b5d255331461051b578063b8a843d71461054f578063bb1994021461056657600080fd5b80638cc3584614610463578063902b742e14610491578063933c609c146104c757600080fd5b8063293c4999116101595780635d6c1f1a116101335780635d6c1f1a1461039c578063677ce088146103d95780637249a773146103f957806388bc2ef31461042f57600080fd5b8063293c4999146102ed5780633b7ae807146103395780634fa9af691461036f57600080fd5b8063150b7a0211610195578063150b7a02146102325780631680e1721461026b5780631727f039146102ad57806318139690146102c057600080fd5b806244a005146101bb57806301ffc9a7146101dd578063035b93aa14610212575b600080fd5b3480156101c757600080fd5b506101db6101d636600461329c565b6106d1565b005b3480156101e957600080fd5b506101fd6101f83660046132cc565b610769565b60405190151581526020015b60405180910390f35b34801561021e57600080fd5b506101db61022d3660046132f6565b610821565b34801561023e57600080fd5b5061025261024d36600461332f565b610a4d565b6040516001600160e01b03199091168152602001610209565b34801561027757600080fd5b5061029f7f000000000000000000000000000000000000000000000000000000000000000381565b604051908152602001610209565b6101db6102bb366004613665565b610a96565b3480156102cc57600080fd5b5061029f6102db36600461376c565b60056020526000908152604090205481565b3480156102f957600080fd5b506103217f000000000000000000000000ecb62030e30bb027f672f24692111492ba2bbc8481565b6040516001600160a01b039091168152602001610209565b34801561034557600080fd5b5061032161035436600461376c565b6003602052600090815260409020546001600160a01b031681565b34801561037b57600080fd5b5061029f61038a36600461376c565b60026020526000908152604090205481565b3480156103a857600080fd5b5061029f6103b73660046132f6565b6000602081815293815260408082208552928152828120909352825290205481565b3480156103e557600080fd5b506101fd6103f436600461329c565b610d6f565b34801561040557600080fd5b5061032161041436600461376c565b6001602052600090815260409020546001600160a01b031681565b34801561043b57600080fd5b506103217f000000000000000000000000e0b2860344ba476e12ed1d559656da9d04f1ad2281565b34801561046f57600080fd5b5061048361047e366004613785565b610dc7565b604051610209929190613811565b34801561049d57600080fd5b506103216104ac36600461376c565b6004602052600090815260409020546001600160a01b031681565b3480156104d357600080fd5b5061029f6104e2366004614193565b610fe8565b3480156104f357600080fd5b506103217f0000000000000000000000002bad941e6c2f9cdbbfc9c25f804f060ffea1d7be81565b34801561052757600080fd5b506103217f000000000000000000000000616d2e084cabc02d4a7b6c09dee930f9293e354281565b34801561055b57600080fd5b5061029f62278d0081565b34801561057257600080fd5b5061058661058136600461424a565b611001565b60405161020991906142b7565b34801561059f57600080fd5b5061029f601981565b3480156105b457600080fd5b506105c86105c3366004614304565b611021565b6040516102099493929190614340565b3480156105e457600080fd5b506101fd6105f336600461329c565b6112c0565b34801561060457600080fd5b506103217f000000000000000000000000dd0b2c80a18617f9428c1e9b096fe2dce222d5f881565b34801561063857600080fd5b5061064c6106473660046148f1565b611362565b604080519283526001600160a01b03909116602083015201610209565b34801561067557600080fd5b506103217f000000000000000000000000219a5ce6d1c512d5b050ad2e3d380b8746be0cb881565b3480156106a957600080fd5b506103217f0000000000000000000000004cdb4200e4e65a277676cd5e8d3c7c7c4da7fbe581565b6106db8233611384565b6040513381526001600160a01b0382169083907f0329d6a81434b130c72eb65eea0e32e429dc1277b4aad86ec86454aefb6184519060200160405180910390a361075b303366ffffffffffffff85166000604051908082528060200260200182016040528015610755578160200160208202803683370190505b506113ab565b6107658282611451565b5050565b60006001600160e01b031982167fdde487720000000000000000000000000000000000000000000000000000000014806107cc57506001600160e01b031982167f263ec41e00000000000000000000000000000000000000000000000000000000145b8061080057506001600160e01b031982167f1727f03900000000000000000000000000000000000000000000000000000000145b8061081b57506001600160e01b03198216630a85bd0160e11b145b92915050565b427f000000000000000000000000219a5ce6d1c512d5b050ad2e3d380b8746be0cb86001600160a01b031663d4a1b4b16040518163ffffffff1660e01b8152600401602060405180830381865afa158015610880573d6000803e3d6000fd5b505050506040513d601f19601f820116820180604052508101906108a491906149f1565b6040517f25a61d5c00000000000000000000000000000000000000000000000000000000815260048101869052602481018590526001600160a01b0391909116906325a61d5c9060440161012060405180830381865afa15801561090c573d6000803e3d6000fd5b505050506040513d601f19601f820116820180604052508101906109309190614a45565b6060015165ffffffffffff161115610974576040517fa301d70600000000000000000000000000000000000000000000000000000000815260040160405180910390fd5b60008381526020818152604080832085845282528083206001600160a01b0385168452909152812054908190036109ab5750505050565b60008481526020818152604080832086845282528083206001600160a01b038616845282528083208390558683526005909152812080548392906109f0908490614b0c565b9091555050604080518281523360208201526001600160a01b03841691859187917f598baf7bf150ca2f42be9e9f8f55e81d45f5715c3ff22bf46d697fabec7f31d6910160405180910390a4610a47848284611476565b50505050565b6000336001600160a01b037f000000000000000000000000ecb62030e30bb027f672f24692111492ba2bbc841614610a8457600080fd5b50630a85bd0160e11b95945050505050565b60208101516040517f6e49181f00000000000000000000000000000000000000000000000000000000815260048101919091523360248201527f000000000000000000000000e0b2860344ba476e12ed1d559656da9d04f1ad226001600160a01b031690636e49181f90604401602060405180830381865afa158015610b20573d6000803e3d6000fd5b505050506040513d601f19601f82011682018060405250810190610b449190614b1f565b610b6157604051635577362560e11b815260040160405180910390fd5b6000816101000151806020019051810190610b7c91906149f1565b60a0830151519091506000906001600160a01b031661eeee14610ba0576000610baa565b8260a00151606001515b9050816001600160a01b031663fef43257827f00000000000000000000000000000000000000000000000000000000000000038660a00151600001518760a0015160600151886000015160008a60200151604051602001610c0d91815260200190565b6040516020818303038152906040526040518863ffffffff1660e01b8152600401610c3d96959493929190614b3c565b60206040518083038185885af193505050508015610c78575060408051601f3d908101601f19168201909252610c7591810190614b96565b60015b610a47573d808015610ca6576040519150601f19603f3d011682016040523d82523d6000602084013e610cab565b606091505b50336001600160a01b0316639e6eec058386602001518760a00151600001518860a001516060015160007f0000000000000000000000000000000000000000000000000000000000000003604051602001610d0891815260200190565b6040516020818303038152906040526040518763ffffffff1660e01b8152600401610d37959493929190614baf565b6000604051808303818588803b158015610d5057600080fd5b505af1158015610d64573d6000803e3d6000fd5b505050505050505050565b6000828152600160205260408120546001600160a01b0383811691161480610db057506000838152600360205260409020546001600160a01b038381169116145b80610dc05750610dc0838361153e565b9392505050565b60c081013560009081526001602052604081205460609081906001600160a01b03168015610e83576040517f8cc358460000000000000000000000000000000000000000000000000000000081526001600160a01b03821690638cc3584690610e34908890600401614cc2565b600060405180830381865afa158015610e51573d6000803e3d6000fd5b505050506040513d6000823e601f3d908101601f19168201604052610e799190810190614d93565b9094509150610e8c565b84610120013593505b815160c0860135600090815260046020526040902054901515906001600160a01b031680151582610ebe576000610ec1565b60015b81610ecd576000610ed0565b60015b610eda9190614edb565b60ff1667ffffffffffffffff811115610ef557610ef56133ce565b604051908082528060200260200182016040528015610f4257816020015b60408051606080820183526000808352602083015291810191909152815260200190600190039081610f135790505b5095508015610f9e576040518060600160405280836001600160a01b03168152602001600081526020016040518060200160405280600081525081525086600081518110610f9257610f92614ef4565b60200260200101819052505b8215610fde5784600081518110610fb757610fb7614ef4565b602002602001015186600181518110610fd257610fd2614ef4565b60200260200101819052505b5050505050915091565b6000610ff786868686866115b1565b9695505050505050565b606061100d8433611384565b61101984338585611ab4565b949350505050565b6000808060606110436040860180359061103e9060208901614f0a565b61153e565b156110605761271093506080850135925060a085013591506112b9565b6040808601356000908152600260205220544210156110ab576040517fcef2c33600000000000000000000000000000000000000000000000000000000815260040160405180910390fd5b60006001600160a01b037f000000000000000000000000e0b2860344ba476e12ed1d559656da9d04f1ad221663862026507f000000000000000000000000000000000000000000000000000000000000000361110d60e08a0160c08b01614f0a565b6040516001600160e01b031960e085901b16815260048101929092526001600160a01b03166024820152604401602060405180830381865afa158015611157573d6000803e3d6000fd5b505050506040513d601f19601f8201168201806040525081019061117b91906149f1565b9050610160860135612710148061119957506001600160a01b038116155b156111ba5785610160013586608001358760a00135945094509450506112b9565b60006111ce608088013560196103e8611be1565b604080516001808252818301909252919250816020015b604080516060808201835260008083526020830152918101919091528152602001906001900390816111e55750506040805160608101909152308152909350602081016112426101208a01358460a08c01356101608d0135611cd1565b81526020018360405160200161126791906001600160a01b0391909116815260200190565b6040516020818303038152906040528152508360008151811061128c5761128c614ef4565b60209081029190910101526101608701356112ab8260808a0135614b0c565b8860a0013595509550955050505b9193509193565b60007f0000000000000000000000004cdb4200e4e65a277676cd5e8d3c7c7c4da7fbe56001600160a01b031663632af95f8330866112fd88611d3d565b6000806040518763ffffffff1660e01b815260040161132196959493929190614f27565b602060405180830381865afa15801561133e573d6000803e3d6000fd5b505050506040513d601f19601f82011682018060405250810190610dc09190614b1f565b60008061137489898989898989611eb8565b909a909950975050505050505050565b61138e82826112c0565b61076557604051635577362560e11b815260040160405180910390fd5b604080516060810182526001600160a01b03808616825266ffffffffffffff8516602083015281830184905291517f893ce90100000000000000000000000000000000000000000000000000000000815290917f0000000000000000000000004cdb4200e4e65a277676cd5e8d3c7c7c4da7fbe5169063893ce901906114379088908590600401614fa2565b600060405180830381600087803b158015610d5057600080fd5b61076530828466ffffffffffffff1661147161146c87611d3d565b612141565b6113ab565b6040517fc7fb92de00000000000000000000000000000000000000000000000000000000815260048101849052602481018390526001600160a01b03828116604483015260a06064830152600060a4830181905260848301527f000000000000000000000000219a5ce6d1c512d5b050ad2e3d380b8746be0cb8169063c7fb92de9060c4016020604051808303816000875af115801561151a573d6000803e3d6000fd5b505050506040513d601f19601f82011682018060405250810190610a479190614b96565b6040517f83db9d01000000000000000000000000000000000000000000000000000000008152600481018390526001600160a01b0382811660248301526000917f000000000000000000000000616d2e084cabc02d4a7b6c09dee930f9293e3542909116906383db9d0190604401611321565b60008060006115bf876121e1565b915091508760000361168557865160409081015190517f9ca61b120000000000000000000000000000000000000000000000000000000081526001600160a01b037f000000000000000000000000219a5ce6d1c512d5b050ad2e3d380b8746be0cb81691639ca61b129161163b91309187908c906004016154f9565b6020604051808303816000875af115801561165a573d6000803e3d6000fd5b505050506040513d601f19601f8201168201806040525081019061167e9190614b96565b9750611843565b6040517f6352211e000000000000000000000000000000000000000000000000000000008152600481018990527f000000000000000000000000ecb62030e30bb027f672f24692111492ba2bbc846001600160a01b0316906342842e0e908290636352211e90602401602060405180830381865afa15801561170b573d6000803e3d6000fd5b505050506040513d601f19601f8201168201806040525081019061172f91906149f1565b6040516001600160e01b031960e084901b1681526001600160a01b039091166004820152306024820152604481018b9052606401600060405180830381600087803b15801561177d57600080fd5b505af1158015611791573d6000803e3d6000fd5b50506040517f54aa1f560000000000000000000000000000000000000000000000000000000081526001600160a01b037f000000000000000000000000219a5ce6d1c512d5b050ad2e3d380b8746be0cb81692506354aa1f5691506117fe908b9086908b9060040161555e565b6020604051808303816000875af115801561181d573d6000803e3d6000fd5b505050506040513d601f19601f820116820180604052508101906118419190614b96565b505b61186b88886060015160008151811061185e5761185e614ef4565b60200260200101516126ab565b8651805160208201516060909201516040517f581781910000000000000000000000000000000000000000000000000000000081526001600160a01b037f000000000000000000000000219a5ce6d1c512d5b050ad2e3d380b8746be0cb816936358178191936118e2938e939192916004016155a5565b6020604051808303816000875af1158015611901573d6000803e3d6000fd5b505050506040513d601f19601f8201168201806040525081019061192591906149f1565b5084516001600160a01b03161561194057611940888661273a565b60a08701516001600160a01b0316156119a1576119638760a0015189601061289b565b60a08701516000898152600360205260409020805473ffffffffffffffffffffffffffffffffffffffff19166001600160a01b039092169190911790555b7f000000000000000000000000219a5ce6d1c512d5b050ad2e3d380b8746be0cb86001600160a01b031663ed1159578960006119e08b604001516128f1565b6040518463ffffffff1660e01b81526004016119fe939291906155e2565b600060405180830381600087803b158015611a1857600080fd5b505af1158015611a2c573d6000803e3d6000fd5b50505050611a3a8888612a22565b611a48888860400151611451565b602084015115611a6457611a628888604001518387611ab4565b505b877fd0c7f2548d2801256cfc7b3e1235832dc90e8688fb72c12858f5f2eacbe4655a88888888878733604051611aa097969594939291906158e5565b60405180910390a250959695505050505050565b6060600084848460200151604051602001611ad193929190615a6f565b60405160208183030381529060405280519060200120905080856001600160a01b0316877f72a0d90820a664aeec4eeb3928b5a9047515321452849cc192d1bb12e26ff9a2878733604051611b2893929190615aa1565b60405180910390a482516040517f2f3f50e00000000000000000000000000000000000000000000000000000000081526001600160a01b037f000000000000000000000000616d2e084cabc02d4a7b6c09dee930f9293e35421691632f3f50e091611b9a918a91869190600401615ae0565b6000604051808303816000875af1158015611bb9573d6000803e3d6000fd5b505050506040513d6000823e601f3d908101601f19168201604052610ff79190810190615aff565b6000808060001985870985870292508281108382030391505080600003611c1b57838281611c1157611c11615b8e565b0492505050610dc0565b838110611c69576040517f63a0577800000000000000000000000000000000000000000000000000000000815260048101879052602481018690526044810185905260640160405180910390fd5b600084868809600260036001881981018916988990049182028318808302840302808302840302808302840302808302840302808302840302918202909203026000889003889004909101858311909403939093029303949094049190911702949350505050565b600081600003611ce357506000611019565b828410611cf1575083611019565b6000611cfe868686611be1565b905061270f198301611d11579050611019565b610ff781611d2b611d2486612710614b0c565b8888611be1565b611d359086615ba4565b612710611be1565b6000818152600660209081526040808320805482518185028101850190935280835260609493830182828015611d9257602002820191906000526020600020905b815481526020019060010190808311611d7e575b50508351939450611daa925083915060039050615ba4565b67ffffffffffffffff811115611dc257611dc26133ce565b604051908082528060200260200182016040528015611deb578160200160208202803683370190505b509250601160ff1683600081518110611e0657611e06614ef4565b602002602001018181525050601960ff1683600181518110611e2a57611e2a614ef4565b602002602001018181525050600660ff1683600281518110611e4e57611e4e614ef4565b60200260200101818152505060005b81811015611eb057828181518110611e7757611e77614ef4565b602002602001015184826003611e8d9190615ba4565b81518110611e9d57611e9d614ef4565b6020908102919091010152600101611e5d565b505050919050565b60008088808203611f53577f000000000000000000000000ecb62030e30bb027f672f24692111492ba2bbc846001600160a01b03166306661abd6040518163ffffffff1660e01b8152600401602060405180830381865afa158015611f21573d6000803e3d6000fd5b505050506040513d601f19601f82011682018060405250810190611f459190614b96565b611f50906001615ba4565b99505b84516040517fcc7bb31f0000000000000000000000000000000000000000000000000000000081526001600160a01b037f0000000000000000000000002bad941e6c2f9cdbbfc9c25f804f060ffea1d7be169163cc7bb31f91611fba918e91600401615cec565b6020604051808303816000875af1158015611fd9573d6000803e3d6000fd5b505050506040513d601f19601f82011682018060405250810190611ffd91906149f1565b60008b8152600460209081526040909120805473ffffffffffffffffffffffffffffffffffffffff19166001600160a01b038416179055860151909250156120625760008a815260066020908152604082208054600181018255908352912060149101555b84604001511561208f5760008a815260066020908152604082208054600181018255908352912060159101555b8460600151156120bc5760008a815260066020908152604082208054600181018255908352912060169101555b8460800151156120e95760008a815260066020908152604082208054600181018255908352912060179101555b6120f38285612cd4565b15612124576121247f000000000000000000000000dd0b2c80a18617f9428c1e9b096fe2dce222d5f88b601461289b565b612131818a8a8a8a6115b1565b5098999098509650505050505050565b6060815167ffffffffffffffff81111561215d5761215d6133ce565b604051908082528060200260200182016040528015612186578160200160208202803683370190505b50905060005b82518110156121db578281815181106121a7576121a7614ef4565b60200260200101518282815181106121c1576121c1614ef4565b60ff9092166020928302919091019091015260010161218c565b50919050565b6060818101515181906000819003612225576040517f141d479400000000000000000000000000000000000000000000000000000000815260040160405180910390fd5b8067ffffffffffffffff81111561223e5761223e6133ce565b60405190808252806020026020018201604052801561235057816020015b61233d6040805161010080820183526000808352602080840182905283850182905260608085018390526080808601849052865161028081018852848152928301849052958201839052810182905293840181905260a084810182905260c0850182905260e0850182905291840181905261012084018190526101408401819052610160840181905261018084018190526101a084018190526101c084018190526101e08401819052610200840181905261022084018190526102408401819052610260840152909190820190815260200160608152602001606081525090565b81526020019060019003908161225c5790505b5060208086015160a087015160c08801518851805181860151606090920151604051979a50612389979596949593949193909101615e00565b60408051808303601f190181526101008301825260008084526060602085018190529284018190529183018290526080830182905260a0830182905260c0830182905260e0830182905293506123de86612ee6565b90506000805b84811015610fde578760600151818151811061240257612402614ef4565b6020026020010151935081846000015164ffffffffff1611612450576040517fb787fe6700000000000000000000000000000000000000000000000000000000815260040160405180910390fd5b61271061ffff168460c0015161ffff1610612497576040517f1e9a99e300000000000000000000000000000000000000000000000000000000815260040160405180910390fd5b6040805161028081018252600080825260208201819052918101829052606081018290526080810182905260a0810182905260c0810182905260e08101829052610100810182905261012081018290526101408101829052610160810182905261018081018290526101a081018290526101c081018290526101e08101829052610200810182905261022081018290526102408101829052610260810191909152604085015161ffff16815260c085015161255490612710615e5c565b61ffff9081166020838101919091528a81015163ffffffff908116604080860191909152600160a080870182905261020087019190915260c0808f015115156101808801523061024088015260e08b01519095166102608701528151610100810183528a5164ffffffffff16815260808b8101518516828701526060808d01516dffffffffffffffffffffffffffff16838601528c84015190951694820194909452600093810184905290810186905281518381529384019091529283019190612641565b6040805180820190915260008152606060208201528152602001906001900390816126195790505b5081526020018581525088838151811061265d5761265d614ef4565b60200260200101819052508661267386846130fe565b604051602001612684929190615e7e565b60408051601f19818403018152919052855190975064ffffffffff169250506001016123e4565b805164ffffffffff1615806126cb575042816000015164ffffffffff1610155b156126d4575050565b60006126e362278d0042615ba4565b6000848152600260209081526040918290208390558151838152339181019190915291925084917f48a9634f50564cfe6648ff5e75795a36873bf96c408523d50017032657e67198910160405180910390a2505050565b6020808201515160408051608081018252600080825293810184905290810183905260608101929092529082516000858152600160205260408120805473ffffffffffffffffffffffffffffffffffffffff19166001600160a01b03909316929092179091555b8281101561289457836020015181815181106127bf576127bf614ef4565b6020908102919091018101518551918101516040808301516060840151845192517f7b621d3a000000000000000000000000000000000000000000000000000000008152600481018c905262ffffff909416602485015263ffffffff91821660448501521660648301526001600160a01b039081166084830152919450911690637b621d3a9060a4016020604051808303816000875af1158015612867573d6000803e3d6000fd5b505050506040513d601f19601f8201168201806040525081019061288b91906149f1565b506001016127a1565b5050505050565b6040805160018082528183019092526000916020808301908036833701905050905081816000815181106128d1576128d1614ef4565b602002602001019060ff16908160ff1681525050610a47308585846113ab565b60408051600180825281830190925260609160009190816020015b6040805160c08101825260008082526020808301829052928201819052606082018190526080820181905260a0820152825260001990920191018161290c5750506040805160c0810182526000808252633b9aca0060208301529181018290526001600160a01b03861660608201526080810182905260a0810182905282519293509183919061299e5761299e614ef4565b602090810291909101015260408051600180825281830190925290816020015b6040805180820190915260008152606060208201528152602001906001900390816129be5790505091506040518060400160405280600181526020018281525082600081518110612a1157612a11614ef4565b602002602001018190525050919050565b6060808201515160408051610100810182526000808252602082018590529181018290529283018190526080830181905260a0830181905260c0830181905260e0830152906000805b83811015612cbb5784606001518181518110612a8957612a89614ef4565b6020026020010151925060008360200151519050612ad96040518060600160405280600063ffffffff16815260200160006001600160681b0316815260200160006001600160a01b031681525090565b60005b82811015612cb05785602001518181518110612afa57612afa614ef4565b6020026020010151915046826000015163ffffffff1603612ca857831580612b2d575042866000015164ffffffffff1611155b15612bb75760408201516001600160a01b0316612b4a8542615ba4565b602080850151604080516001600160681b03909216825233928201929092528c917f598baf7bf150ca2f42be9e9f8f55e81d45f5715c3ff22bf46d697fabec7f31d6910160405180910390a4612bb28983602001516001600160681b03168460400151611476565b612ca8565b60408201516001600160a01b0316612bcf8542615ba4565b602080850151604080516001600160681b03909216825233928201929092528c917fa2efb1fa77bdb4fb9864af281c415f347cba8a6c934a32bd125c701ae4d0382f910160405180910390a460208083015160008b815291829052604082206001600160681b0390911691612c448742615ba4565b8152602001908152602001600020600084604001516001600160a01b03166001600160a01b031681526020019081526020016000206000828254612c889190615ba4565b90915550506020820151612ca5906001600160681b031686615ba4565b94505b600101612adc565b505050600101612a6b565b5060009485526005602052604090942093909355505050565b8051600090808203612cea57600091505061081b565b60008167ffffffffffffffff811115612d0557612d056133ce565b604051908082528060200260200182016040528015612d6757816020015b6040805160c081018252600080825260208083018290529282018190526060808301829052608083019190915260a08201528252600019909201910181612d235790505b506040805160a081018252600080825260208201819052918101829052606080820183905260808201529192505b83811015612e4257858181518110612daf57612daf614ef4565b602002602001015191506040518060c00160405280886001600160a01b03168152602001836000015162ffffff16815260200183602001516001600160681b03168152602001836040015163ffffffff168152602001836060015163ffffffff1681526020018360800151815250838281518110612e2f57612e2f614ef4565b6020908102919091010152600101612d95565b506040517f441e4d340000000000000000000000000000000000000000000000000000000081526001600160a01b037f000000000000000000000000dd0b2c80a18617f9428c1e9b096fe2dce222d5f8169063441e4d3490612ea8908590600401615edd565b600060405180830381600087803b158015612ec257600080fd5b505af1158015612ed6573d6000803e3d6000fd5b5060019998505050505050505050565b6080810151516040805180820182526000808252602082018190528251600180825281850190945260609493816020015b6040805180820190915260008082526020820152815260200190600190039081612f1757905050905060405180604001604052807bffffffffffffffffffffffffffffffffffffffffffffffffffffffff80168152602001866020015163ffffffff1681525081600081518110612f9057612f90614ef4565b60200260200101819052508267ffffffffffffffff811115612fb457612fb46133ce565b60405190808252806020026020018201604052801561300857816020015b6040805160808101825260008082526020820152606091810182905281810191909152815260200190600190039081612fd25790505b50935060005b838110156130f5578560800151818151811061302c5761302c614ef4565b60200260200101519250604051806080016040528084602001516001600160a01b0316815260200184600001516001600160a01b03168152602001600067ffffffffffffffff811115613081576130816133ce565b6040519080825280602002602001820160405280156130c657816020015b604080518082019091526000808252602082015281526020019060019003908161309f5790505b508152602001838152508582815181106130e2576130e2614ef4565b602090810291909101015260010161300e565b50505050919050565b6060811580156131145750825164ffffffffff16155b61312657825164ffffffffff16613128565b425b6040808501516060860151608087015160a088015160c0890151945161319296959060200195865261ffff94851660208701526dffffffffffffffffffffffffffff93909316604086015263ffffffff91821660608601521660808401521660a082015260c00190565b60408051601f1981840301815291905260208401515190915060005b8181101561320857826131dd866020015183815181106131d0576131d0614ef4565b6020026020010151613210565b6040516020016131ee929190615e7e565b60408051601f1981840301815291905292506001016131ae565b505092915050565b606081600001518260400151836020015160405160200161325e9392919063ffffffff9390931683526001600160a01b039190911660208301526001600160681b0316604082015260600190565b6040516020818303038152906040529050919050565b6001600160a01b038116811461328957600080fd5b50565b803561329781613274565b919050565b600080604083850312156132af57600080fd5b8235915060208301356132c181613274565b809150509250929050565b6000602082840312156132de57600080fd5b81356001600160e01b031981168114610dc057600080fd5b60008060006060848603121561330b57600080fd5b8335925060208401359150604084013561332481613274565b809150509250925092565b60008060008060006080868803121561334757600080fd5b853561335281613274565b9450602086013561336281613274565b935060408601359250606086013567ffffffffffffffff8082111561338657600080fd5b818801915088601f83011261339a57600080fd5b8135818111156133a957600080fd5b8960208285010111156133bb57600080fd5b9699959850939650602001949392505050565b634e487b7160e01b600052604160045260246000fd5b6040516080810167ffffffffffffffff81118282101715613407576134076133ce565b60405290565b604051610140810167ffffffffffffffff81118282101715613407576134076133ce565b6040516060810167ffffffffffffffff81118282101715613407576134076133ce565b604051610100810167ffffffffffffffff81118282101715613407576134076133ce565b6040805190810167ffffffffffffffff81118282101715613407576134076133ce565b60405160e0810167ffffffffffffffff81118282101715613407576134076133ce565b6040516101c0810167ffffffffffffffff81118282101715613407576134076133ce565b60405160a0810167ffffffffffffffff81118282101715613407576134076133ce565b604051610120810167ffffffffffffffff81118282101715613407576134076133ce565b604051601f8201601f1916810167ffffffffffffffff81118282101715613552576135526133ce565b604052919050565b803560ff8116811461329757600080fd5b63ffffffff8116811461328957600080fd5b80356132978161356b565b60006080828403121561359a57600080fd5b6135a26133e4565b905081356135af81613274565b81526135bd6020830161355a565b602082015260408201356135d08161356b565b806040830152506060820135606082015292915050565b600067ffffffffffffffff821115613601576136016133ce565b50601f01601f191660200190565b600082601f83011261362057600080fd5b813561363361362e826135e7565b613529565b81815284602083860101111561364857600080fd5b816020850160208301376000918101602001919091529392505050565b60006020828403121561367757600080fd5b813567ffffffffffffffff8082111561368f57600080fd5b9083019061020082860312156136a457600080fd5b6136ac61340d565b6136b58361328c565b81526020830135602082015260408301356040820152606083013560608201526136e28660808501613588565b60808201526101006136f687828601613588565b60a083015261018084013560c08301526137136101a0850161328c565b60e08301526101c08401358381111561372b57600080fd5b6137378882870161360f565b8284015250506101e08301358281111561375057600080fd5b61375c8782860161360f565b6101208301525095945050505050565b60006020828403121561377e57600080fd5b5035919050565b60006020828403121561379757600080fd5b813567ffffffffffffffff8111156137ae57600080fd5b82016101808185031215610dc057600080fd5b60005b838110156137dc5781810151838201526020016137c4565b50506000910152565b600081518084526137fd8160208601602086016137c1565b601f01601f19169290920160200192915050565b6000604080830185845260206040818601528186518084526060935060608701915060608160051b88010183890160005b8381101561389257898303605f19018552815180516001600160a01b03168452868101518785015288015188840188905261387f888501826137e5565b9587019593505090850190600101613842565b50909a9950505050505050505050565b6000608082840312156138b457600080fd5b6138bc6133e4565b9050813567ffffffffffffffff808211156138d657600080fd5b6138e28583860161360f565b835260208401359150808211156138f857600080fd5b6139048583860161360f565b6020840152604084013591508082111561391d57600080fd5b5061392a8482850161360f565b6040830152506060820135606082015292915050565b600067ffffffffffffffff82111561395a5761395a6133ce565b5060051b60200190565b803564ffffffffff8116811461329757600080fd5b80356001600160681b038116811461329757600080fd5b600082601f8301126139a157600080fd5b813560206139b161362e83613940565b828152606092830285018201928282019190878511156139d057600080fd5b8387015b85811015613a305781818a0312156139ec5760008081fd5b6139f4613431565b81356139ff8161356b565b8152613a0c828701613979565b86820152604080830135613a1f81613274565b9082015284529284019281016139d4565b5090979650505050505050565b803561ffff8116811461329757600080fd5b6dffffffffffffffffffffffffffff8116811461328957600080fd5b803561329781613a4f565b600082601f830112613a8757600080fd5b81356020613a9761362e83613940565b82815260059290921b84018101918181019086841115613ab657600080fd5b8286015b84811015613bae57803567ffffffffffffffff80821115613adb5760008081fd5b90880190610100828b03601f1901811315613af65760008081fd5b613afe613454565b613b09888501613964565b815260408085013584811115613b1f5760008081fd5b613b2d8e8b83890101613990565b8a8401525060609350613b41848601613a3d565b908201526080613b52858201613a6b565b8483015260a09350613b6584860161357d565b9082015260c0613b7685820161357d565b8483015260e09350613b89848601613a3d565b90820152613b98848301613a3d565b9281019290925250845250918301918301613aba565b509695505050505050565b600082601f830112613bca57600080fd5b81356020613bda61362e83613940565b82815260069290921b84018101918181019086841115613bf957600080fd5b8286015b84811015613bae5760408189031215613c165760008081fd5b613c1e613478565b8135613c2981613274565b815281850135613c3881613274565b81860152835291830191604001613bfd565b801515811461328957600080fd5b803561329781613c4a565b600060e08284031215613c7557600080fd5b613c7d61349b565b9050813567ffffffffffffffff80821115613c9757600080fd5b613ca3858386016138a2565b8352613cb16020850161357d565b6020840152613cc26040850161328c565b60408401526060840135915080821115613cdb57600080fd5b613ce785838601613a76565b60608401526080840135915080821115613d0057600080fd5b50613d0d84828501613bb9565b608083015250613d1f60a0830161328c565b60a0820152613d3060c08301613c58565b60c082015292915050565b600082601f830112613d4c57600080fd5b81356020613d5c61362e83613940565b82815260059290921b84018101918181019086841115613d7b57600080fd5b8286015b84811015613bae57803567ffffffffffffffff80821115613d9f57600080fd5b908801906040828b03601f1901811315613db857600080fd5b613dc0613478565b87840135613dcd81613274565b81528382013583811115613de057600080fd5b8085019450508b603f850112613df557600080fd5b878401359250613e0761362e84613940565b83815260609093028401820192888101908d851115613e2557600080fd5b948301945b84861015613e89576060868f031215613e4257600080fd5b613e4a613431565b8635613e5581613274565b8152613e62878c0161355a565b8b82015284870135613e738161356b565b8186015282526060959095019490890190613e2a565b828a0152508652505050918301918301613d7f565b803562ffffff8116811461329757600080fd5b60006040808385031215613ec457600080fd5b613ecc613478565b91508235613ed981613274565b825260208381013567ffffffffffffffff811115613ef657600080fd5b8401601f81018613613f0757600080fd5b8035613f1561362e82613940565b81815260079190911b82018301908381019088831115613f3457600080fd5b928401925b82841015613fac576080848a031215613f525760008081fd5b613f5a6133e4565b8435613f6581613274565b8152613f72858701613e9e565b8682015286850135613f838161356b565b81880152606085810135613f968161356b565b9082015282526080939093019290840190613f39565b808588015250505050505092915050565b600060408284031215613fcf57600080fd5b613fd7613478565b905067ffffffffffffffff8083351115613ff057600080fd5b8235830184601f82011261400357600080fd5b61401061362e8235613940565b81358082526020808301929160051b8401018781111561402f57600080fd5b602084015b8181101561417a57858135111561404a57600080fd5b803585016040818b03601f1901121561406257600080fd5b61406a613478565b6140776020830135613274565b60208201358152876040830135111561408f57600080fd5b6040820135820191508a603f8301126140a757600080fd5b60208201356140b861362e82613940565b81815260079190911b83016040019060208101908d8311156140d957600080fd5b6040850194505b8285101561415b576080858f0312156140f857600080fd5b6141006133e4565b61410a8635613274565b8535815261411b602087013561356b565b602086013560208201526141326040870135613274565b6040860135604082015260608601356060820152808352506020820191506080850194506140e0565b8060208501525050508086525050602084019350602081019050614034565b5050808552505050506020820135602082015292915050565b600080600080600060a086880312156141ab57600080fd5b85359450602086013567ffffffffffffffff808211156141ca57600080fd5b6141d689838a01613c63565b955060408801359150808211156141ec57600080fd5b6141f889838a01613d3b565b9450606088013591508082111561420e57600080fd5b61421a89838a01613eb1565b9350608088013591508082111561423057600080fd5b5061423d88828901613fbd565b9150509295509295909350565b60008060006060848603121561425f57600080fd5b83359250602084013567ffffffffffffffff8082111561427e57600080fd5b61428a8783880161360f565b935060408601359150808211156142a057600080fd5b506142ad86828701613fbd565b9150509250925092565b6020808252825182820181905260009190848201906040850190845b818110156142f85783516001600160a01b0316835292840192918401916001016142d3565b50909695505050505050565b60006020828403121561431657600080fd5b813567ffffffffffffffff81111561432d57600080fd5b82016101a08185031215610dc057600080fd5b60006080820186835260208681850152604086604086015260606080606087015283875180865260a08801915060a08160051b890101955084890160005b828110156143ce57898803609f19018452815180516001600160a01b0316895287810151888a01528601518689018690526143bb868a01826137e5565b985050928601929086019060010161437e565b50959c9b505050505050505050505050565b600060808083850312156143f357600080fd5b6143fb6133e4565b9150823567ffffffffffffffff81111561441457600080fd5b8301601f8101851361442557600080fd5b8035602061443561362e83613940565b8281526101c0928302840182019282820191908985111561445557600080fd5b948301945b8486101561456c5780868b0312156144725760008081fd5b61447a6134be565b61448387613979565b815261449085880161357d565b8582015260406144a181890161357d565b9082015260606144b2888201613a3d565b908201526144c187890161328c565b8189015260a0878101359082015260c06144dc818901613e9e565b9082015260e06144ed88820161355a565b908201526101006144ff888201613c58565b90820152610120614511888201613c58565b90820152610140614523888201613c58565b90820152610160614535888201613c58565b90820152610180614547888201613c58565b908201526101a0614559888201613c58565b908201528352948501949183019161445a565b5086525061457b86820161357d565b818601525050505061458f6040830161355a565b60408201526145a06060830161328c565b606082015292915050565b6000608082840312156145bd57600080fd5b6145c56133e4565b905081356145d281613c4a565b815260208201356145e281613c4a565b602082015260408201356145f581613c4a565b604082015260608201356145a081613c4a565b600060a0828403121561461a57600080fd5b6146226134e2565b9050813567ffffffffffffffff8082111561463c57600080fd5b90830190610160828603121561465157600080fd5b614659613454565b82358281111561466857600080fd5b6146748782860161360f565b82525060208301358281111561468957600080fd5b6146958782860161360f565b6020830152506040830135828111156146ad57600080fd5b6146b98782860161360f565b6040830152506146cb6060840161328c565b60608201526080830135828111156146e257600080fd5b6146ee8782860161360f565b60808301525060a08301358281111561470657600080fd5b614712878286016143e0565b60a08301525061472460c0840161328c565b60c08201526147368660e085016145ab565b60e082015283525061474c905060208301613c58565b602082015261475d60408301613c58565b604082015261476e60608301613c58565b606082015261477f60808301613c58565b608082015292915050565b600082601f83011261479b57600080fd5b813560206147ab61362e83613940565b828152600592831b85018201928282019190878511156147ca57600080fd5b8387015b85811015613a3057803567ffffffffffffffff808211156147ef5760008081fd5b9089019060a0828c03601f19018113156148095760008081fd5b6148116134e2565b61481c898501613e9e565b8152604061482b818601613979565b8a83015260608086013561483e8161356b565b838301526080868101356148518161356b565b8483015293860135938585111561486a57600091508182fd5b84870196508f603f88011261488157600095508586fd5b8b870135955061489361362e87613940565b86815295891b87018301958c8101955091508f8611156148b35760008081fd5b958201955b858710156148dd57863592506148cd83613274565b828552958b0195938b01936148b8565b8301525087525050509284019284016147ce565b600080600080600080600060e0888a03121561490c57600080fd5b87359650602088013567ffffffffffffffff8082111561492b57600080fd5b6149378b838c01613c63565b975060408a013591508082111561494d57600080fd5b6149598b838c01613d3b565b965060608a013591508082111561496f57600080fd5b61497b8b838c01613eb1565b955060808a013591508082111561499157600080fd5b61499d8b838c01613fbd565b945060a08a01359150808211156149b357600080fd5b6149bf8b838c01614608565b935060c08a01359150808211156149d557600080fd5b506149e28a828b0161478a565b91505092959891949750929550565b600060208284031215614a0357600080fd5b8151610dc081613274565b805165ffffffffffff8116811461329757600080fd5b80516132978161356b565b805161329781613a4f565b805161329781613274565b60006101208284031215614a5857600080fd5b614a60613505565b614a6983614a0e565b8152614a7760208401614a0e565b6020820152614a8860408401614a0e565b6040820152614a9960608401614a0e565b6060820152614aaa60808401614a24565b6080820152614abb60a08401614a2f565b60a0820152614acc60c08401614a24565b60c0820152614add60e08401614a3a565b60e0820152610100928301519281019290925250919050565b634e487b7160e01b600052601160045260246000fd5b8181038181111561081b5761081b614af6565b600060208284031215614b3157600080fd5b8151610dc081613c4a565b86815260006001600160a01b03808816602084015286604084015280861660608401525083608083015260e060a0830152600060e08301526101008060c0840152614b89818401856137e5565b9998505050505050505050565b600060208284031215614ba857600080fd5b5051919050565b8581526001600160a01b0385166020820152836040820152821515606082015260c06080820152600060c082015260e060a08201526000614bf360e08301846137e5565b979650505050505050565b8035614c0981613274565b6001600160a01b0316825260ff614c226020830161355a565b1660208301526040810135614c368161356b565b63ffffffff166040830152606090810135910152565b6000808335601e19843603018112614c6357600080fd5b830160208101925035905067ffffffffffffffff811115614c8357600080fd5b803603821315614c9257600080fd5b9250929050565b81835281816020850137506000828201602090810191909152601f909101601f19169091010190565b60208152614ce360208201614cd68461328c565b6001600160a01b03169052565b6000614cf16020840161328c565b6001600160a01b038116604084015250614d116060830160408501614bfe565b60c083013560e083015261010060e084013581840152614d3281850161328c565b9050610120614d4b818501836001600160a01b03169052565b61014091508085013582850152506101608185013581850152614d7081860186614c4c565b6101808681015292509050614d8a6101a085018383614c99565b95945050505050565b6000806040808486031215614da757600080fd5b8351925060208085015167ffffffffffffffff80821115614dc757600080fd5b818701915087601f830112614ddb57600080fd5b8151614de961362e82613940565b81815260059190911b8301840190848101908a831115614e0857600080fd5b8585015b83811015614ec957805185811115614e2357600080fd5b86016060818e03601f19011215614e3a5760008081fd5b614e42613431565b88820151614e4f81613274565b8152818a015189820152606082015187811115614e6c5760008081fd5b8083019250508d603f830112614e825760008081fd5b88820151614e9261362e826135e7565b8181528f8c838601011115614ea75760008081fd5b614eb6828c83018e87016137c1565b828c015250845250918601918601614e0c565b50809750505050505050509250929050565b60ff818116838216019081111561081b5761081b614af6565b634e487b7160e01b600052603260045260246000fd5b600060208284031215614f1c57600080fd5b8135610dc081613274565b600060c082016001600160a01b03808a1684526020818a16602086015288604086015260c06060860152829150875180845260e08601925060208901935060005b81811015614f8457845184529382019392820192600101614f68565b5050509415156080840152505090151560a090910152949350505050565b60006001600160a01b03808516835260206040602085015260a0840182865116604086015266ffffffffffffff6020870151166060860152604086015192506060608086015280835180835260c087019150602085019450600092505b8083101561502257845160ff168252938301936001929092019190830190614fff565b50979650505050505050565b805161ffff168252602081015161504b602084018261ffff169052565b506040810151615063604084018263ffffffff169052565b506060810151615077606084018215159052565b50608081015161508b608084018215159052565b5060a081015161509f60a084018215159052565b5060c08101516150b360c084018215159052565b5060e08101516150c760e084018215159052565b5061010081810151151590830152610120808201511515908301526101408082015115159083015261016080820151151590830152610180808201511515908301526101a0808201511515908301526101c0808201511515908301526101e0808201511515908301526102008082015115159083015261022080820151151590830152610240808201516001600160a01b0316908301526102608082015161ffff811682850152610a47565b600082825180855260208086019550808260051b8401018186016000805b8581101561525057868403601f19018a52825180518552850151604086860181905281518187018190529187019160609081880190865b818110156152395785518051151584528b81015163ffffffff168c8501528581015166ffffffffffffff1686850152848101516001600160a01b039081168686015260808083015165ffffffffffff169086015260a0918201511690840152948a019460c0909201916001016151c8565b50509c88019c965050509285019250600101615191565b509198975050505050505050565b60008151808452602080850194506020840160005b838110156152be57815180517bffffffffffffffffffffffffffffffffffffffffffffffffffffffff16885283015163ffffffff168388015260409096019590820190600101615273565b509495945050505050565b600082825180855260208086019550808260051b84010181860160005b84811015613a3057601f19868403018952815160806001600160a01b038083511686528087840151168787015250604080830151828288015261532b8388018261525e565b9250505060608083015192508582038187015250615349818361525e565b9a86019a94505050908301906001016152e6565b600082825180855260208086019550808260051b84010181860160005b84811015613a3057601f198684030189528151805165ffffffffffff1684528481015163ffffffff908116868601526040808301516dffffffffffffffffffffffffffff1690860152606080830151909116908501526080808201516001600160a01b03169085015260a08082015161036091906153fa8288018261502e565b505060c08201518161032087015261541482870182615173565b91505060e0820151915084810361034086015261543181836152c9565b9a86019a945050509083019060010161537a565b600082825180855260208086019550808260051b8401018186016000805b8581101561525057868403601f19018a52825180516001600160a01b03908116865290860151604087870181905281518188018190529188019290916060919082890190875b818110156154e15786518051851684528c81015160ff168d85015286015163ffffffff1686840152958b0195918401916001016154a9565b50509d89019d97505050938601935050600101615463565b6001600160a01b038516815260a06020820152600061551b60a08301866137e5565b828103604084015261552d818661535d565b905082810360608401526155418185615445565b838103608090940193909352505060008152602001949350505050565b838152608060208201526000615577608083018561535d565b82810360408401526155898185615445565b8381036060909401939093525050600081526020019392505050565b8481526080602082015260006155be60808301866137e5565b82810360408401526155d081866137e5565b91505082606083015295945050505050565b838152826020820152606060408201526000614d8a6060830184615173565b600082825180855260208086019550808260051b8401018186016000805b8581101561525057868403601f19018a528251805164ffffffffff16855285810151610100878701819052815190870181905261012087019188019085905b808210156156ac578251805163ffffffff1685528a8101516001600160681b03168b8601526040908101516001600160a01b031690850152606090930192918901916001919091019061565e565b50505060408281015161ffff908116918801919091526060808401516dffffffffffffffffffffffffffff169088015260808084015163ffffffff9081169189019190915260a0808501519091169088015260c08084015182169088015260e092830151169190950152988401989184019160010161561f565b60008151808452602080850194506020840160005b838110156152be57815180516001600160a01b0390811689529084015116838801526040909601959082019060010161573b565b600060408084016001600160a01b038085511686526020808601516040828901528381518086526060955060608a019150838301925060005b818110156157f05783518051871684528581015162ffffff16868501528881015163ffffffff9081168a860152908801511687840152928401926080909201916001016157a8565b50909998505050505050505050565b600082825180855260208086019550808260051b8401018186016000805b8581101561525057868403601f19018a52825180516001600160a01b03908116865290860151604087870181905281518188018190529188019290916060919082890190875b818110156158a45786518051851684528c81015163ffffffff168d8501528681015185168785015285015185840152958b0195608090920191600101615863565b50509d89019d9750505093860193505060010161581d565b60008151604084526158d160408501826157ff565b602093840151949093019390935250919050565b60e081526000885160e080840152805160806101c085015261590b6102408501826137e5565b905060208201516101bf1980868403016101e087015261592b83836137e5565b92506040840151915080868403016102008701525061594a82826137e5565b60609384015161022087015260208d015163ffffffff1661010087015260408d01516001600160a01b0316610120870152928c015185840360df1990810161014088015290939250905061599e8284615601565b925060808c015191508085840301610160860152506159bd8282615726565b91505060a08a01516159db6101808501826001600160a01b03169052565b5060c08a015115156101a084015282810360208401526159fb818a615445565b90508281036040840152615a0f818961576f565b90508281036060840152615a2381886158bc565b90508281036080840152615a37818761535d565b905082810360a0840152615a4b81866137e5565b915050615a6360c08301846001600160a01b03169052565b98975050505050505050565b6001600160a01b0384168152606060208201526000615a9160608301856137e5565b9050826040830152949350505050565b606081526000615ab460608301866137e5565b8281036020840152615ac681866158bc565b9150506001600160a01b0383166040830152949350505050565b838152826020820152606060408201526000614d8a60608301846157ff565b60006020808385031215615b1257600080fd5b825167ffffffffffffffff811115615b2957600080fd5b8301601f81018513615b3a57600080fd5b8051615b4861362e82613940565b81815260059190911b82018301908381019087831115615b6757600080fd5b928401925b82841015614bf3578351615b7f81613274565b82529284019290840190615b6c565b634e487b7160e01b600052601260045260246000fd5b8082018082111561081b5761081b614af6565b80516080808452815184820181905260009260a0916020918201918388019190865b82811015615cb157845180516001600160681b031685528281015163ffffffff908116848701526040808301519091169086015260608082015161ffff1690860152878101516001600160a01b031688860152868101518786015260c08082015162ffffff169086015260e08082015160ff169086015261010080820151151590860152610120808201511515908601526101408082015115159086015261016080820151151590860152610180808201511515908601526101a090810151151590850152938101936101c090930192600101615bd9565b508781015163ffffffff16908901525060408087015160ff16908801526060808701516001600160a01b038116918901919091529350610ff7565b82815260406020820152600082516101606040840152615d106101a08401826137e5565b90506020840151603f1980858403016060860152615d2e83836137e5565b92506040860151915080858403016080860152615d4b83836137e5565b925060608601519150615d6960a08601836001600160a01b03169052565b60808601519150808584030160c0860152615d8483836137e5565b925060a08601519150808584030160e086015250615da28282615bb7565b91505060c0840151615dc06101008501826001600160a01b03169052565b5060e08401518051151561012085015260208101511515610140850152604081015115156101608501526060810151151561018085015250949350505050565b63ffffffff871681526001600160a01b0386166020820152841515604082015260c060608201526000615e3660c08301866137e5565b8281036080840152615e4881866137e5565b9150508260a0830152979650505050505050565b61ffff828116828216039080821115615e7757615e77614af6565b5092915050565b604081526000615e9160408301856137e5565b8281036020840152614d8a81856137e5565b60008151808452602080850194506020840160005b838110156152be5781516001600160a01b031687529582019590820190600101615eb8565b600060208083018184528085518083526040925060408601915060408160051b87010184880160005b83811015615f9557888303603f19018552815180516001600160a01b031684528781015162ffffff1688850152868101516001600160681b03168785015260608082015163ffffffff908116918601919091526080808301519091169085015260a09081015160c091850182905290615f8181860183615ea3565b968901969450505090860190600101615f06565b50909897505050505050505056fea2646970667358221220fd746635e0c9ade7686636acf9920328ab2ab2c9592c5b8cc29bb2174175c2d064736f6c63430008170033",
	"devdoc": {
		"kind": "dev",
		"methods": {
			"afterRedeemRecordedWith((address,uint256,uint256,uint256,(address,uint8,uint32,uint256),(address,uint8,uint32,uint256),uint256,address,bytes,bytes))": {
				"params": {
					"context": "Redemption context passed in by the terminal."
				}
			},
			"autoMintFor(uint256,uint256,address)": {
				"params": {
					"beneficiary": "The address to auto-mint tokens to.",
					"revnetId": "The ID of the revnet to auto-mint tokens from.",
					"stageId": "The ID of the stage auto-mint tokens are available from."
				}
			},
			"beforePayRecordedWith((address,address,(address,uint8,uint32,uint256),uint256,uint256,address,uint256,uint256,bytes))": {
				"details": "This function is part of `IJBRulesetDataHook`, and gets called before the revnet processes a payment.",
				"params": {
					"context": "Standard Juicebox payment context. See `JBBeforePayRecordedContext`."
				},
				"returns": {
					"hookSpecifications": "Amounts (out of what's being paid in) to be sent to pay hooks instead of being paid into the revnet. Useful for automatically routing funds from a treasury as payments come in.",
					"weight": "The weight which revnet tokens are minted relative to. This can be used to customize how many tokens get minted by a payment."
				}
			},
			"beforeRedeemRecordedWith((address,address,uint256,uint256,uint256,uint256,(address,uint8,uint32,uint256),bool,uint256,bytes))": {
				"details": "This function is part of `IJBRulesetDataHook`, and gets called before the revnet processes a redemption.If a sucker is redeeming, no taxes or fees are imposed.",
				"params": {
					"context": "Standard Juicebox redemption context. See `JBBeforeRedeemRecordedContext`."
				},
				"returns": {
					"hookSpecifications": "The amount of funds and the data to send to redeem hooks (this contract).",
					"redeemCount": "The number of revnet tokens that are redeemed.",
					"redemptionRate": "The redemption rate, which influences the amount of terminal tokens which get reclaimed.",
					"totalSupply": "The total revnet token supply."
				}
			},
			"constructor": {
				"params": {
					"controller": "The controller to use for launching and operating the Juicebox projects which will be revnets.",
					"feeRevnetId": "The Juicebox project ID of the revnet that will receive fees.",
					"hookDeployer": "The deployer to use for revnet's tiered ERC-721 hooks.",
					"publisher": "The croptop publisher revnets can use to publish ERC-721 posts to their tiered ERC-721 hooks.",
					"suckerRegistry": "The registry to use for deploying and tracking each revnet's suckers."
				}
			},
			"deployFor(uint256,((string,string,string,bytes32),uint32,address,(uint40,(uint32,uint104,address)[],uint16,uint112,uint32,uint32,uint16,uint16)[],(address,address)[],address,bool),(address,(address,uint8,uint32)[])[],(address,(address,uint24,uint32,uint32)[]),((address,(address,uint32,address,uint256)[])[],bytes32))": {
				"params": {
					"buybackHookConfiguration": "The buyback hook and pools to set up for the revnet. The buyback hook buys tokens from a Uniswap pool if minting new tokens would be more expensive.",
					"configuration": "Core revnet configuration. See `REVConfig`.",
					"revnetId": "The ID of the Juicebox project to turn into a revnet. Send 0 to deploy a new revnet.",
					"suckerDeploymentConfiguration": "The suckers to set up for the revnet. Suckers facilitate cross-chain token transfers between peer revnets on different networks.",
					"terminalConfigurations": "The terminals to set up for the revnet. Used for payments and redemptions."
				},
				"returns": {
					"_0": "revnetId The ID of the newly created revnet."
				}
			},
			"deploySuckersFor(uint256,bytes,((address,(address,uint32,address,uint256)[])[],bytes32))": {
				"details": "Only the revnet's split operator can deploy new suckers.",
				"params": {
					"encodedConfiguration": "A byte-encoded representation of the revnet's configuration. See `_makeRulesetConfigurations()` for encoding details. Clients can read the encoded configuration from the `DeployRevnet` event emitted by this contract.",
					"revnetId": "The ID of the revnet to deploy suckers for.",
					"suckerDeploymentConfiguration": "The suckers to set up for the revnet."
				}
			},
			"deployWith721sFor(uint256,((string,string,string,bytes32),uint32,address,(uint40,(uint32,uint104,address)[],uint16,uint112,uint32,uint32,uint16,uint16)[],(address,address)[],address,bool),(address,(address,uint8,uint32)[])[],(address,(address,uint24,uint32,uint32)[]),((address,(address,uint32,address,uint256)[])[],bytes32),((string,string,string,address,string,((uint104,uint32,uint32,uint16,address,bytes32,uint24,uint8,bool,bool,bool,bool,bool,bool)[],uint32,uint8,address),address,(bool,bool,bool,bool)),bool,bool,bool,bool),(uint24,uint104,uint32,uint32,address[])[])": {
				"params": {
					"allowedPosts": "Restrictions on which croptop posts are allowed on the revnet's ERC-721 tiers.",
					"buybackHookConfiguration": "The buyback hook and pools to set up for the revnet. The buyback hook buys tokens from a Uniswap pool if minting new tokens would be more expensive.",
					"configuration": "Core revnet configuration. See `REVConfig`.",
					"revnetId": "The ID of the Juicebox project to turn into a revnet. Send 0 to deploy a new revnet.",
					"suckerDeploymentConfiguration": "The suckers to set up for the revnet. Suckers facilitate cross-chain token transfers between peer revnets on different networks.",
					"terminalConfigurations": "The terminals to set up for the revnet. Used for payments and redemptions.",
					"tiered721HookConfiguration": "How to set up the tiered ERC-721 hook for the revnet."
				},
				"returns": {
					"_0": "revnetId The ID of the newly created revnet.",
					"hook": "The address of the tiered ERC-721 hook that was deployed for the revnet."
				}
			},
			"hasMintPermissionFor(uint256,address)": {
				"details": "Required by the `IJBRulesetDataHook` interface.",
				"params": {
					"addr": "The address to check the mint permission of.",
					"revnetId": "The ID of the revnet to check permissions for."
				},
				"returns": {
					"_0": "flag A flag indicating whether the address has permission to mint the revnet's tokens on-demand."
				}
			},
			"isSplitOperatorOf(uint256,address)": {
				"params": {
					"addr": "The address to check.",
					"revnetId": "The ID of the revnet."
				},
				"returns": {
					"_0": "flag A flag indicating whether the address is the revnet's split operator."
				}
			},
			"onERC721Received(address,address,uint256,bytes)": {
				"details": "Make sure this contract can only receive project NFTs from `JBProjects`."
			},
			"setSplitOperatorOf(uint256,address)": {
				"details": "Only a revnet's current split operator can set a new split operator.",
				"params": {
					"newSplitOperator": "The new split operator's address.",
					"revnetId": "The ID of the revnet to set the split operator of."
				}
			},
			"supportsInterface(bytes4)": {
				"details": "See `IERC165.supportsInterface`.",
				"returns": {
					"_0": "A flag indicating if the provided interface ID is supported."
				}
			}
		},
		"version": 1
	},
	"userdoc": {
		"kind": "user",
		"methods": {
			"CASH_OUT_DELAY()": {
				"notice": "The number of seconds until a revnet's participants can cash out, starting from the time when that revnet is deployed to a new network. - Only applies to existing revnets which are deploying onto a new network. - To prevent liquidity/arbitrage issues which might arise when an existing revnet adds a brand-new treasury."
			},
			"CONTROLLER()": {
				"notice": "The controller used to create and manage Juicebox projects for revnets."
			},
			"DIRECTORY()": {
				"notice": "The directory of terminals and controllers for Juicebox projects (and revnets)."
			},
			"FEE()": {
				"notice": "The cashout fee (as a fraction out of `JBConstants.MAX_FEE`). Cashout fees are paid to the revnet with the `FEE_REVNET_ID`."
			},
			"FEE_REVNET_ID()": {
				"notice": "The Juicebox project ID of the revnet that receives cashout fees."
			},
			"HOOK_DEPLOYER()": {
				"notice": "Deploys tiered ERC-721 hooks for revnets."
			},
			"PERMISSIONS()": {
				"notice": "Stores Juicebox project (and revnet) access permissions."
			},
			"PROJECTS()": {
				"notice": "Mints ERC-721s that represent Juicebox project (and revnet) ownership and transfers."
			},
			"PUBLISHER()": {
				"notice": "Manages the publishing of ERC-721 posts to revnet's tiered ERC-721 hooks."
			},
			"SUCKER_REGISTRY()": {
				"notice": "Deploys and tracks suckers for revnets."
			},
			"afterRedeemRecordedWith((address,uint256,uint256,uint256,(address,uint8,uint32,uint256),(address,uint8,uint32,uint256),uint256,address,bytes,bytes))": {
				"notice": "Processes the cashout fee from a redemption."
			},
			"amountToAutoMint(uint256,uint256,address)": {
				"notice": "The number of revnet tokens which can be \"auto-minted\" (minted without payments) for a specific beneficiary during a stage. Think of this as a per-stage premint."
			},
			"autoMintFor(uint256,uint256,address)": {
				"notice": "Auto-mint a revnet's tokens from a stage for a beneficiary."
			},
			"beforePayRecordedWith((address,address,(address,uint8,uint32,uint256),uint256,uint256,address,uint256,uint256,bytes))": {
				"notice": "Before a revnet processes an incoming payment, determine the weight and pay hooks to use."
			},
			"beforeRedeemRecordedWith((address,address,uint256,uint256,uint256,uint256,(address,uint8,uint32,uint256),bool,uint256,bytes))": {
				"notice": "Determine how a redemption from a revnet should be processed."
			},
			"buybackHookOf(uint256)": {
				"notice": "Each revnet's buyback data hook. These return buyback hook data."
			},
			"cashOutDelayOf(uint256)": {
				"notice": "The timestamp of when cashouts will become available to a specific revnet's participants."
			},
			"deployFor(uint256,((string,string,string,bytes32),uint32,address,(uint40,(uint32,uint104,address)[],uint16,uint112,uint32,uint32,uint16,uint16)[],(address,address)[],address,bool),(address,(address,uint8,uint32)[])[],(address,(address,uint24,uint32,uint32)[]),((address,(address,uint32,address,uint256)[])[],bytes32))": {
				"notice": "Launch a revnet, or convert an existing Juicebox project into a revnet."
			},
			"deploySuckersFor(uint256,bytes,((address,(address,uint32,address,uint256)[])[],bytes32))": {
				"notice": "Deploy new suckers for an existing revnet."
			},
			"deployWith721sFor(uint256,((string,string,string,bytes32),uint32,address,(uint40,(uint32,uint104,address)[],uint16,uint112,uint32,uint32,uint16,uint16)[],(address,address)[],address,bool),(address,(address,uint8,uint32)[])[],(address,(address,uint24,uint32,uint32)[]),((address,(address,uint32,address,uint256)[])[],bytes32),((string,string,string,address,string,((uint104,uint32,uint32,uint16,address,bytes32,uint24,uint8,bool,bool,bool,bool,bool,bool)[],uint32,uint8,address),address,(bool,bool,bool,bool)),bool,bool,bool,bool),(uint24,uint104,uint32,uint32,address[])[])": {
				"notice": "Launch a revnet which sells tiered ERC-721s and (optionally) allows croptop posts to its ERC-721 tiers."
			},
			"hasMintPermissionFor(uint256,address)": {
				"notice": "A flag indicating whether an address has permission to mint a revnet's tokens on-demand."
			},
			"isSplitOperatorOf(uint256,address)": {
				"notice": "A flag indicating whether an address is a revnet's split operator."
			},
			"loansOf(uint256)": {
				"notice": "Each revnet's loan contract."
			},
			"setSplitOperatorOf(uint256,address)": {
				"notice": "Change a revnet's split operator."
			},
			"supportsInterface(bytes4)": {
				"notice": "Indicates if this contract adheres to the specified interface."
			},
			"tiered721HookOf(uint256)": {
				"notice": "Each revnet's tiered ERC-721 hook."
			},
			"unrealizedAutoMintAmountOf(uint256)": {
				"notice": "The amount of auto-mint tokens which have not been minted yet, including future stages, for each revnet."
			}
		},
		"version": 1
	},
	"gitCommit": "ae583e1b785317aaf42bc006b98075477139b349",
	"sourceName": "src/REVDeployer.sol",
	"chainId": "11155111",
	"linkReferences": {},
	"deployedLinkReferences": {},
	"history": []
}