{
	"_format": "sphinx-sol-ct-artifact-1",
	"merkleRoot": "0x7b6bbddfc3e0fff316ddb1d668a0e3daef8f8c944b04cad19b0e8001735110d3",
	"contractName": "REVLoans",
	"address": "0x21F07184D898fE8fba811978F2c8116DC405F238",
	"abi": [
		{
			"type": "constructor",
			"inputs": [
				{
					"name": "projects",
					"type": "address",
					"internalType": "contract IJBProjects"
				},
				{
					"name": "revId",
					"type": "uint256",
					"internalType": "uint256"
				},
				{
					"name": "owner",
					"type": "address",
					"internalType": "address"
				},
				{
					"name": "permit2",
					"type": "address",
					"internalType": "contract IPermit2"
				},
				{
					"name": "trustedForwarder",
					"type": "address",
					"internalType": "address"
				}
			],
			"stateMutability": "nonpayable"
		},
		{
			"type": "fallback",
			"stateMutability": "payable"
		},
		{
			"type": "receive",
			"stateMutability": "payable"
		},
		{
			"type": "function",
			"name": "LOAN_LIQUIDATION_DURATION",
			"inputs": [],
			"outputs": [
				{
					"name": "",
					"type": "uint256",
					"internalType": "uint256"
				}
			],
			"stateMutability": "view"
		},
		{
			"type": "function",
			"name": "MAX_PREPAID_FEE_PERCENT",
			"inputs": [],
			"outputs": [
				{
					"name": "",
					"type": "uint256",
					"internalType": "uint256"
				}
			],
			"stateMutability": "view"
		},
		{
			"type": "function",
			"name": "PERMIT2",
			"inputs": [],
			"outputs": [
				{
					"name": "",
					"type": "address",
					"internalType": "contract IPermit2"
				}
			],
			"stateMutability": "view"
		},
		{
			"type": "function",
			"name": "PROJECTS",
			"inputs": [],
			"outputs": [
				{
					"name": "",
					"type": "address",
					"internalType": "contract IJBProjects"
				}
			],
			"stateMutability": "view"
		},
		{
			"type": "function",
			"name": "REV_ID",
			"inputs": [],
			"outputs": [
				{
					"name": "",
					"type": "uint256",
					"internalType": "uint256"
				}
			],
			"stateMutability": "view"
		},
		{
			"type": "function",
			"name": "REV_PREPAID_FEE_PERCENT",
			"inputs": [],
			"outputs": [
				{
					"name": "",
					"type": "uint256",
					"internalType": "uint256"
				}
			],
			"stateMutability": "view"
		},
		{
			"type": "function",
			"name": "SOURCE_MIN_PREPAID_FEE_PERCENT",
			"inputs": [],
			"outputs": [
				{
					"name": "",
					"type": "uint256",
					"internalType": "uint256"
				}
			],
			"stateMutability": "view"
		},
		{
			"type": "function",
			"name": "approve",
			"inputs": [
				{
					"name": "to",
					"type": "address",
					"internalType": "address"
				},
				{
					"name": "tokenId",
					"type": "uint256",
					"internalType": "uint256"
				}
			],
			"outputs": [],
			"stateMutability": "nonpayable"
		},
		{
			"type": "function",
			"name": "balanceOf",
			"inputs": [
				{
					"name": "owner",
					"type": "address",
					"internalType": "address"
				}
			],
			"outputs": [
				{
					"name": "",
					"type": "uint256",
					"internalType": "uint256"
				}
			],
			"stateMutability": "view"
		},
		{
			"type": "function",
			"name": "borrowFrom",
			"inputs": [
				{
					"name": "revnetId",
					"type": "uint256",
					"internalType": "uint256"
				},
				{
					"name": "source",
					"type": "tuple",
					"internalType": "struct REVLoanSource",
					"components": [
						{
							"name": "token",
							"type": "address",
							"internalType": "address"
						},
						{
							"name": "terminal",
							"type": "address",
							"internalType": "contract IJBPayoutTerminal"
						}
					]
				},
				{
					"name": "borrowAmount",
					"type": "uint256",
					"internalType": "uint256"
				},
				{
					"name": "collateralAmount",
					"type": "uint256",
					"internalType": "uint256"
				},
				{
					"name": "beneficiary",
					"type": "address",
					"internalType": "address payable"
				},
				{
					"name": "prepaidFeePercent",
					"type": "uint256",
					"internalType": "uint256"
				}
			],
			"outputs": [
				{
					"name": "loanId",
					"type": "uint256",
					"internalType": "uint256"
				},
				{
					"name": "",
					"type": "tuple",
					"internalType": "struct REVLoan",
					"components": [
						{
							"name": "amount",
							"type": "uint112",
							"internalType": "uint112"
						},
						{
							"name": "collateral",
							"type": "uint112",
							"internalType": "uint112"
						},
						{
							"name": "createdAt",
							"type": "uint40",
							"internalType": "uint40"
						},
						{
							"name": "prepaidFeePercent",
							"type": "uint16",
							"internalType": "uint16"
						},
						{
							"name": "prepaidDuration",
							"type": "uint32",
							"internalType": "uint32"
						},
						{
							"name": "source",
							"type": "tuple",
							"internalType": "struct REVLoanSource",
							"components": [
								{
									"name": "token",
									"type": "address",
									"internalType": "address"
								},
								{
									"name": "terminal",
									"type": "address",
									"internalType": "contract IJBPayoutTerminal"
								}
							]
						}
					]
				}
			],
			"stateMutability": "nonpayable"
		},
		{
			"type": "function",
			"name": "borrowableAmountFrom",
			"inputs": [
				{
					"name": "revnetId",
					"type": "uint256",
					"internalType": "uint256"
				},
				{
					"name": "collateralAmount",
					"type": "uint256",
					"internalType": "uint256"
				},
				{
					"name": "decimals",
					"type": "uint256",
					"internalType": "uint256"
				},
				{
					"name": "currency",
					"type": "uint256",
					"internalType": "uint256"
				}
			],
			"outputs": [
				{
					"name": "",
					"type": "uint256",
					"internalType": "uint256"
				}
			],
			"stateMutability": "view"
		},
		{
			"type": "function",
			"name": "determineSourceFeeAmount",
			"inputs": [
				{
					"name": "loan",
					"type": "tuple",
					"internalType": "struct REVLoan",
					"components": [
						{
							"name": "amount",
							"type": "uint112",
							"internalType": "uint112"
						},
						{
							"name": "collateral",
							"type": "uint112",
							"internalType": "uint112"
						},
						{
							"name": "createdAt",
							"type": "uint40",
							"internalType": "uint40"
						},
						{
							"name": "prepaidFeePercent",
							"type": "uint16",
							"internalType": "uint16"
						},
						{
							"name": "prepaidDuration",
							"type": "uint32",
							"internalType": "uint32"
						},
						{
							"name": "source",
							"type": "tuple",
							"internalType": "struct REVLoanSource",
							"components": [
								{
									"name": "token",
									"type": "address",
									"internalType": "address"
								},
								{
									"name": "terminal",
									"type": "address",
									"internalType": "contract IJBPayoutTerminal"
								}
							]
						}
					]
				},
				{
					"name": "amount",
					"type": "uint256",
					"internalType": "uint256"
				}
			],
			"outputs": [
				{
					"name": "",
					"type": "uint256",
					"internalType": "uint256"
				}
			],
			"stateMutability": "view"
		},
		{
			"type": "function",
			"name": "getApproved",
			"inputs": [
				{
					"name": "tokenId",
					"type": "uint256",
					"internalType": "uint256"
				}
			],
			"outputs": [
				{
					"name": "",
					"type": "address",
					"internalType": "address"
				}
			],
			"stateMutability": "view"
		},
		{
			"type": "function",
			"name": "isApprovedForAll",
			"inputs": [
				{
					"name": "owner",
					"type": "address",
					"internalType": "address"
				},
				{
					"name": "operator",
					"type": "address",
					"internalType": "address"
				}
			],
			"outputs": [
				{
					"name": "",
					"type": "bool",
					"internalType": "bool"
				}
			],
			"stateMutability": "view"
		},
		{
			"type": "function",
			"name": "isLoanSourceOf",
			"inputs": [
				{
					"name": "revnetId",
					"type": "uint256",
					"internalType": "uint256"
				},
				{
					"name": "terminal",
					"type": "address",
					"internalType": "contract IJBPayoutTerminal"
				},
				{
					"name": "token",
					"type": "address",
					"internalType": "address"
				}
			],
			"outputs": [
				{
					"name": "",
					"type": "bool",
					"internalType": "bool"
				}
			],
			"stateMutability": "view"
		},
		{
			"type": "function",
			"name": "isTrustedForwarder",
			"inputs": [
				{
					"name": "forwarder",
					"type": "address",
					"internalType": "address"
				}
			],
			"outputs": [
				{
					"name": "",
					"type": "bool",
					"internalType": "bool"
				}
			],
			"stateMutability": "view"
		},
		{
			"type": "function",
			"name": "liquidateExpiredLoansFrom",
			"inputs": [
				{
					"name": "revnetId",
					"type": "uint256",
					"internalType": "uint256"
				},
				{
					"name": "startingLoanId",
					"type": "uint256",
					"internalType": "uint256"
				},
				{
					"name": "count",
					"type": "uint256",
					"internalType": "uint256"
				}
			],
			"outputs": [],
			"stateMutability": "nonpayable"
		},
		{
			"type": "function",
			"name": "loanOf",
			"inputs": [
				{
					"name": "loanId",
					"type": "uint256",
					"internalType": "uint256"
				}
			],
			"outputs": [
				{
					"name": "",
					"type": "tuple",
					"internalType": "struct REVLoan",
					"components": [
						{
							"name": "amount",
							"type": "uint112",
							"internalType": "uint112"
						},
						{
							"name": "collateral",
							"type": "uint112",
							"internalType": "uint112"
						},
						{
							"name": "createdAt",
							"type": "uint40",
							"internalType": "uint40"
						},
						{
							"name": "prepaidFeePercent",
							"type": "uint16",
							"internalType": "uint16"
						},
						{
							"name": "prepaidDuration",
							"type": "uint32",
							"internalType": "uint32"
						},
						{
							"name": "source",
							"type": "tuple",
							"internalType": "struct REVLoanSource",
							"components": [
								{
									"name": "token",
									"type": "address",
									"internalType": "address"
								},
								{
									"name": "terminal",
									"type": "address",
									"internalType": "contract IJBPayoutTerminal"
								}
							]
						}
					]
				}
			],
			"stateMutability": "view"
		},
		{
			"type": "function",
			"name": "loanSourcesOf",
			"inputs": [
				{
					"name": "revnetId",
					"type": "uint256",
					"internalType": "uint256"
				}
			],
			"outputs": [
				{
					"name": "",
					"type": "tuple[]",
					"internalType": "struct REVLoanSource[]",
					"components": [
						{
							"name": "token",
							"type": "address",
							"internalType": "address"
						},
						{
							"name": "terminal",
							"type": "address",
							"internalType": "contract IJBPayoutTerminal"
						}
					]
				}
			],
			"stateMutability": "view"
		},
		{
			"type": "function",
			"name": "name",
			"inputs": [],
			"outputs": [
				{
					"name": "",
					"type": "string",
					"internalType": "string"
				}
			],
			"stateMutability": "view"
		},
		{
			"type": "function",
			"name": "numberOfLoansFor",
			"inputs": [
				{
					"name": "revnetId",
					"type": "uint256",
					"internalType": "uint256"
				}
			],
			"outputs": [
				{
					"name": "",
					"type": "uint256",
					"internalType": "uint256"
				}
			],
			"stateMutability": "view"
		},
		{
			"type": "function",
			"name": "owner",
			"inputs": [],
			"outputs": [
				{
					"name": "",
					"type": "address",
					"internalType": "address"
				}
			],
			"stateMutability": "view"
		},
		{
			"type": "function",
			"name": "ownerOf",
			"inputs": [
				{
					"name": "tokenId",
					"type": "uint256",
					"internalType": "uint256"
				}
			],
			"outputs": [
				{
					"name": "",
					"type": "address",
					"internalType": "address"
				}
			],
			"stateMutability": "view"
		},
		{
			"type": "function",
			"name": "reallocateCollateralFromLoan",
			"inputs": [
				{
					"name": "loanId",
					"type": "uint256",
					"internalType": "uint256"
				},
				{
					"name": "collateralAmountToTransfer",
					"type": "uint256",
					"internalType": "uint256"
				},
				{
					"name": "source",
					"type": "tuple",
					"internalType": "struct REVLoanSource",
					"components": [
						{
							"name": "token",
							"type": "address",
							"internalType": "address"
						},
						{
							"name": "terminal",
							"type": "address",
							"internalType": "contract IJBPayoutTerminal"
						}
					]
				},
				{
					"name": "borrowAmount",
					"type": "uint256",
					"internalType": "uint256"
				},
				{
					"name": "collateralAmountToAdd",
					"type": "uint256",
					"internalType": "uint256"
				},
				{
					"name": "beneficiary",
					"type": "address",
					"internalType": "address payable"
				},
				{
					"name": "prepaidFeePercent",
					"type": "uint256",
					"internalType": "uint256"
				}
			],
			"outputs": [
				{
					"name": "reallocatedLoanId",
					"type": "uint256",
					"internalType": "uint256"
				},
				{
					"name": "newLoanId",
					"type": "uint256",
					"internalType": "uint256"
				},
				{
					"name": "reallocatedLoan",
					"type": "tuple",
					"internalType": "struct REVLoan",
					"components": [
						{
							"name": "amount",
							"type": "uint112",
							"internalType": "uint112"
						},
						{
							"name": "collateral",
							"type": "uint112",
							"internalType": "uint112"
						},
						{
							"name": "createdAt",
							"type": "uint40",
							"internalType": "uint40"
						},
						{
							"name": "prepaidFeePercent",
							"type": "uint16",
							"internalType": "uint16"
						},
						{
							"name": "prepaidDuration",
							"type": "uint32",
							"internalType": "uint32"
						},
						{
							"name": "source",
							"type": "tuple",
							"internalType": "struct REVLoanSource",
							"components": [
								{
									"name": "token",
									"type": "address",
									"internalType": "address"
								},
								{
									"name": "terminal",
									"type": "address",
									"internalType": "contract IJBPayoutTerminal"
								}
							]
						}
					]
				},
				{
					"name": "newLoan",
					"type": "tuple",
					"internalType": "struct REVLoan",
					"components": [
						{
							"name": "amount",
							"type": "uint112",
							"internalType": "uint112"
						},
						{
							"name": "collateral",
							"type": "uint112",
							"internalType": "uint112"
						},
						{
							"name": "createdAt",
							"type": "uint40",
							"internalType": "uint40"
						},
						{
							"name": "prepaidFeePercent",
							"type": "uint16",
							"internalType": "uint16"
						},
						{
							"name": "prepaidDuration",
							"type": "uint32",
							"internalType": "uint32"
						},
						{
							"name": "source",
							"type": "tuple",
							"internalType": "struct REVLoanSource",
							"components": [
								{
									"name": "token",
									"type": "address",
									"internalType": "address"
								},
								{
									"name": "terminal",
									"type": "address",
									"internalType": "contract IJBPayoutTerminal"
								}
							]
						}
					]
				}
			],
			"stateMutability": "payable"
		},
		{
			"type": "function",
			"name": "renounceOwnership",
			"inputs": [],
			"outputs": [],
			"stateMutability": "nonpayable"
		},
		{
			"type": "function",
			"name": "repayLoan",
			"inputs": [
				{
					"name": "loanId",
					"type": "uint256",
					"internalType": "uint256"
				},
				{
					"name": "borrowAmount",
					"type": "uint256",
					"internalType": "uint256"
				},
				{
					"name": "collateralAmountToReturn",
					"type": "uint256",
					"internalType": "uint256"
				},
				{
					"name": "beneficiary",
					"type": "address",
					"internalType": "address payable"
				},
				{
					"name": "allowance",
					"type": "tuple",
					"internalType": "struct JBSingleAllowance",
					"components": [
						{
							"name": "sigDeadline",
							"type": "uint256",
							"internalType": "uint256"
						},
						{
							"name": "amount",
							"type": "uint160",
							"internalType": "uint160"
						},
						{
							"name": "expiration",
							"type": "uint48",
							"internalType": "uint48"
						},
						{
							"name": "nonce",
							"type": "uint48",
							"internalType": "uint48"
						},
						{
							"name": "signature",
							"type": "bytes",
							"internalType": "bytes"
						}
					]
				}
			],
			"outputs": [
				{
					"name": "",
					"type": "uint256",
					"internalType": "uint256"
				},
				{
					"name": "",
					"type": "tuple",
					"internalType": "struct REVLoan",
					"components": [
						{
							"name": "amount",
							"type": "uint112",
							"internalType": "uint112"
						},
						{
							"name": "collateral",
							"type": "uint112",
							"internalType": "uint112"
						},
						{
							"name": "createdAt",
							"type": "uint40",
							"internalType": "uint40"
						},
						{
							"name": "prepaidFeePercent",
							"type": "uint16",
							"internalType": "uint16"
						},
						{
							"name": "prepaidDuration",
							"type": "uint32",
							"internalType": "uint32"
						},
						{
							"name": "source",
							"type": "tuple",
							"internalType": "struct REVLoanSource",
							"components": [
								{
									"name": "token",
									"type": "address",
									"internalType": "address"
								},
								{
									"name": "terminal",
									"type": "address",
									"internalType": "contract IJBPayoutTerminal"
								}
							]
						}
					]
				}
			],
			"stateMutability": "payable"
		},
		{
			"type": "function",
			"name": "revnetIdOfLoanWith",
			"inputs": [
				{
					"name": "loanId",
					"type": "uint256",
					"internalType": "uint256"
				}
			],
			"outputs": [
				{
					"name": "",
					"type": "uint256",
					"internalType": "uint256"
				}
			],
			"stateMutability": "pure"
		},
		{
			"type": "function",
			"name": "safeTransferFrom",
			"inputs": [
				{
					"name": "from",
					"type": "address",
					"internalType": "address"
				},
				{
					"name": "to",
					"type": "address",
					"internalType": "address"
				},
				{
					"name": "tokenId",
					"type": "uint256",
					"internalType": "uint256"
				}
			],
			"outputs": [],
			"stateMutability": "nonpayable"
		},
		{
			"type": "function",
			"name": "safeTransferFrom",
			"inputs": [
				{
					"name": "from",
					"type": "address",
					"internalType": "address"
				},
				{
					"name": "to",
					"type": "address",
					"internalType": "address"
				},
				{
					"name": "tokenId",
					"type": "uint256",
					"internalType": "uint256"
				},
				{
					"name": "data",
					"type": "bytes",
					"internalType": "bytes"
				}
			],
			"outputs": [],
			"stateMutability": "nonpayable"
		},
		{
			"type": "function",
			"name": "setApprovalForAll",
			"inputs": [
				{
					"name": "operator",
					"type": "address",
					"internalType": "address"
				},
				{
					"name": "approved",
					"type": "bool",
					"internalType": "bool"
				}
			],
			"outputs": [],
			"stateMutability": "nonpayable"
		},
		{
			"type": "function",
			"name": "setTokenUriResolver",
			"inputs": [
				{
					"name": "resolver",
					"type": "address",
					"internalType": "contract IJBTokenUriResolver"
				}
			],
			"outputs": [],
			"stateMutability": "nonpayable"
		},
		{
			"type": "function",
			"name": "supportsInterface",
			"inputs": [
				{
					"name": "interfaceId",
					"type": "bytes4",
					"internalType": "bytes4"
				}
			],
			"outputs": [
				{
					"name": "",
					"type": "bool",
					"internalType": "bool"
				}
			],
			"stateMutability": "view"
		},
		{
			"type": "function",
			"name": "symbol",
			"inputs": [],
			"outputs": [
				{
					"name": "",
					"type": "string",
					"internalType": "string"
				}
			],
			"stateMutability": "view"
		},
		{
			"type": "function",
			"name": "tokenURI",
			"inputs": [
				{
					"name": "loanId",
					"type": "uint256",
					"internalType": "uint256"
				}
			],
			"outputs": [
				{
					"name": "",
					"type": "string",
					"internalType": "string"
				}
			],
			"stateMutability": "view"
		},
		{
			"type": "function",
			"name": "tokenUriResolver",
			"inputs": [],
			"outputs": [
				{
					"name": "",
					"type": "address",
					"internalType": "contract IJBTokenUriResolver"
				}
			],
			"stateMutability": "view"
		},
		{
			"type": "function",
			"name": "totalBorrowedFrom",
			"inputs": [
				{
					"name": "revnetId",
					"type": "uint256",
					"internalType": "uint256"
				},
				{
					"name": "terminal",
					"type": "address",
					"internalType": "contract IJBPayoutTerminal"
				},
				{
					"name": "token",
					"type": "address",
					"internalType": "address"
				}
			],
			"outputs": [
				{
					"name": "",
					"type": "uint256",
					"internalType": "uint256"
				}
			],
			"stateMutability": "view"
		},
		{
			"type": "function",
			"name": "totalCollateralOf",
			"inputs": [
				{
					"name": "revnetId",
					"type": "uint256",
					"internalType": "uint256"
				}
			],
			"outputs": [
				{
					"name": "",
					"type": "uint256",
					"internalType": "uint256"
				}
			],
			"stateMutability": "view"
		},
		{
			"type": "function",
			"name": "transferFrom",
			"inputs": [
				{
					"name": "from",
					"type": "address",
					"internalType": "address"
				},
				{
					"name": "to",
					"type": "address",
					"internalType": "address"
				},
				{
					"name": "tokenId",
					"type": "uint256",
					"internalType": "uint256"
				}
			],
			"outputs": [],
			"stateMutability": "nonpayable"
		},
		{
			"type": "function",
			"name": "transferOwnership",
			"inputs": [
				{
					"name": "newOwner",
					"type": "address",
					"internalType": "address"
				}
			],
			"outputs": [],
			"stateMutability": "nonpayable"
		},
		{
			"type": "function",
			"name": "trustedForwarder",
			"inputs": [],
			"outputs": [
				{
					"name": "",
					"type": "address",
					"internalType": "address"
				}
			],
			"stateMutability": "view"
		},
		{
			"type": "event",
			"name": "Approval",
			"inputs": [
				{
					"name": "owner",
					"type": "address",
					"indexed": true,
					"internalType": "address"
				},
				{
					"name": "approved",
					"type": "address",
					"indexed": true,
					"internalType": "address"
				},
				{
					"name": "tokenId",
					"type": "uint256",
					"indexed": true,
					"internalType": "uint256"
				}
			],
			"anonymous": false
		},
		{
			"type": "event",
			"name": "ApprovalForAll",
			"inputs": [
				{
					"name": "owner",
					"type": "address",
					"indexed": true,
					"internalType": "address"
				},
				{
					"name": "operator",
					"type": "address",
					"indexed": true,
					"internalType": "address"
				},
				{
					"name": "approved",
					"type": "bool",
					"indexed": false,
					"internalType": "bool"
				}
			],
			"anonymous": false
		},
		{
			"type": "event",
			"name": "Borrow",
			"inputs": [
				{
					"name": "loanId",
					"type": "uint256",
					"indexed": true,
					"internalType": "uint256"
				},
				{
					"name": "revnetId",
					"type": "uint256",
					"indexed": true,
					"internalType": "uint256"
				},
				{
					"name": "loan",
					"type": "tuple",
					"indexed": false,
					"internalType": "struct REVLoan",
					"components": [
						{
							"name": "amount",
							"type": "uint112",
							"internalType": "uint112"
						},
						{
							"name": "collateral",
							"type": "uint112",
							"internalType": "uint112"
						},
						{
							"name": "createdAt",
							"type": "uint40",
							"internalType": "uint40"
						},
						{
							"name": "prepaidFeePercent",
							"type": "uint16",
							"internalType": "uint16"
						},
						{
							"name": "prepaidDuration",
							"type": "uint32",
							"internalType": "uint32"
						},
						{
							"name": "source",
							"type": "tuple",
							"internalType": "struct REVLoanSource",
							"components": [
								{
									"name": "token",
									"type": "address",
									"internalType": "address"
								},
								{
									"name": "terminal",
									"type": "address",
									"internalType": "contract IJBPayoutTerminal"
								}
							]
						}
					]
				},
				{
					"name": "source",
					"type": "tuple",
					"indexed": false,
					"internalType": "struct REVLoanSource",
					"components": [
						{
							"name": "token",
							"type": "address",
							"internalType": "address"
						},
						{
							"name": "terminal",
							"type": "address",
							"internalType": "contract IJBPayoutTerminal"
						}
					]
				},
				{
					"name": "borrowAmount",
					"type": "uint256",
					"indexed": false,
					"internalType": "uint256"
				},
				{
					"name": "collateralAmount",
					"type": "uint256",
					"indexed": false,
					"internalType": "uint256"
				},
				{
					"name": "beneficiary",
					"type": "address",
					"indexed": false,
					"internalType": "address payable"
				},
				{
					"name": "caller",
					"type": "address",
					"indexed": false,
					"internalType": "address"
				}
			],
			"anonymous": false
		},
		{
			"type": "event",
			"name": "Liquidate",
			"inputs": [
				{
					"name": "loanId",
					"type": "uint256",
					"indexed": true,
					"internalType": "uint256"
				},
				{
					"name": "revnetId",
					"type": "uint256",
					"indexed": true,
					"internalType": "uint256"
				},
				{
					"name": "loan",
					"type": "tuple",
					"indexed": false,
					"internalType": "struct REVLoan",
					"components": [
						{
							"name": "amount",
							"type": "uint112",
							"internalType": "uint112"
						},
						{
							"name": "collateral",
							"type": "uint112",
							"internalType": "uint112"
						},
						{
							"name": "createdAt",
							"type": "uint40",
							"internalType": "uint40"
						},
						{
							"name": "prepaidFeePercent",
							"type": "uint16",
							"internalType": "uint16"
						},
						{
							"name": "prepaidDuration",
							"type": "uint32",
							"internalType": "uint32"
						},
						{
							"name": "source",
							"type": "tuple",
							"internalType": "struct REVLoanSource",
							"components": [
								{
									"name": "token",
									"type": "address",
									"internalType": "address"
								},
								{
									"name": "terminal",
									"type": "address",
									"internalType": "contract IJBPayoutTerminal"
								}
							]
						}
					]
				},
				{
					"name": "caller",
					"type": "address",
					"indexed": false,
					"internalType": "address"
				}
			],
			"anonymous": false
		},
		{
			"type": "event",
			"name": "OwnershipTransferred",
			"inputs": [
				{
					"name": "previousOwner",
					"type": "address",
					"indexed": true,
					"internalType": "address"
				},
				{
					"name": "newOwner",
					"type": "address",
					"indexed": true,
					"internalType": "address"
				}
			],
			"anonymous": false
		},
		{
			"type": "event",
			"name": "ReallocateCollateral",
			"inputs": [
				{
					"name": "loanId",
					"type": "uint256",
					"indexed": true,
					"internalType": "uint256"
				},
				{
					"name": "revnetId",
					"type": "uint256",
					"indexed": true,
					"internalType": "uint256"
				},
				{
					"name": "reallocatedLoanId",
					"type": "uint256",
					"indexed": true,
					"internalType": "uint256"
				},
				{
					"name": "reallocatedLoan",
					"type": "tuple",
					"indexed": false,
					"internalType": "struct REVLoan",
					"components": [
						{
							"name": "amount",
							"type": "uint112",
							"internalType": "uint112"
						},
						{
							"name": "collateral",
							"type": "uint112",
							"internalType": "uint112"
						},
						{
							"name": "createdAt",
							"type": "uint40",
							"internalType": "uint40"
						},
						{
							"name": "prepaidFeePercent",
							"type": "uint16",
							"internalType": "uint16"
						},
						{
							"name": "prepaidDuration",
							"type": "uint32",
							"internalType": "uint32"
						},
						{
							"name": "source",
							"type": "tuple",
							"internalType": "struct REVLoanSource",
							"components": [
								{
									"name": "token",
									"type": "address",
									"internalType": "address"
								},
								{
									"name": "terminal",
									"type": "address",
									"internalType": "contract IJBPayoutTerminal"
								}
							]
						}
					]
				},
				{
					"name": "removedCollateralAmount",
					"type": "uint256",
					"indexed": false,
					"internalType": "uint256"
				},
				{
					"name": "caller",
					"type": "address",
					"indexed": false,
					"internalType": "address"
				}
			],
			"anonymous": false
		},
		{
			"type": "event",
			"name": "RepayLoan",
			"inputs": [
				{
					"name": "loanId",
					"type": "uint256",
					"indexed": true,
					"internalType": "uint256"
				},
				{
					"name": "revnetId",
					"type": "uint256",
					"indexed": true,
					"internalType": "uint256"
				},
				{
					"name": "paidOffLoanId",
					"type": "uint256",
					"indexed": true,
					"internalType": "uint256"
				},
				{
					"name": "loan",
					"type": "tuple",
					"indexed": false,
					"internalType": "struct REVLoan",
					"components": [
						{
							"name": "amount",
							"type": "uint112",
							"internalType": "uint112"
						},
						{
							"name": "collateral",
							"type": "uint112",
							"internalType": "uint112"
						},
						{
							"name": "createdAt",
							"type": "uint40",
							"internalType": "uint40"
						},
						{
							"name": "prepaidFeePercent",
							"type": "uint16",
							"internalType": "uint16"
						},
						{
							"name": "prepaidDuration",
							"type": "uint32",
							"internalType": "uint32"
						},
						{
							"name": "source",
							"type": "tuple",
							"internalType": "struct REVLoanSource",
							"components": [
								{
									"name": "token",
									"type": "address",
									"internalType": "address"
								},
								{
									"name": "terminal",
									"type": "address",
									"internalType": "contract IJBPayoutTerminal"
								}
							]
						}
					]
				},
				{
					"name": "paidOffLoan",
					"type": "tuple",
					"indexed": false,
					"internalType": "struct REVLoan",
					"components": [
						{
							"name": "amount",
							"type": "uint112",
							"internalType": "uint112"
						},
						{
							"name": "collateral",
							"type": "uint112",
							"internalType": "uint112"
						},
						{
							"name": "createdAt",
							"type": "uint40",
							"internalType": "uint40"
						},
						{
							"name": "prepaidFeePercent",
							"type": "uint16",
							"internalType": "uint16"
						},
						{
							"name": "prepaidDuration",
							"type": "uint32",
							"internalType": "uint32"
						},
						{
							"name": "source",
							"type": "tuple",
							"internalType": "struct REVLoanSource",
							"components": [
								{
									"name": "token",
									"type": "address",
									"internalType": "address"
								},
								{
									"name": "terminal",
									"type": "address",
									"internalType": "contract IJBPayoutTerminal"
								}
							]
						}
					]
				},
				{
					"name": "borrowAmount",
					"type": "uint256",
					"indexed": false,
					"internalType": "uint256"
				},
				{
					"name": "sourceFeeAmount",
					"type": "uint256",
					"indexed": false,
					"internalType": "uint256"
				},
				{
					"name": "collateralAmountToReturn",
					"type": "uint256",
					"indexed": false,
					"internalType": "uint256"
				},
				{
					"name": "beneficiary",
					"type": "address",
					"indexed": false,
					"internalType": "address payable"
				},
				{
					"name": "caller",
					"type": "address",
					"indexed": false,
					"internalType": "address"
				}
			],
			"anonymous": false
		},
		{
			"type": "event",
			"name": "SetTokenUriResolver",
			"inputs": [
				{
					"name": "resolver",
					"type": "address",
					"indexed": true,
					"internalType": "contract IJBTokenUriResolver"
				},
				{
					"name": "caller",
					"type": "address",
					"indexed": false,
					"internalType": "address"
				}
			],
			"anonymous": false
		},
		{
			"type": "event",
			"name": "Transfer",
			"inputs": [
				{
					"name": "from",
					"type": "address",
					"indexed": true,
					"internalType": "address"
				},
				{
					"name": "to",
					"type": "address",
					"indexed": true,
					"internalType": "address"
				},
				{
					"name": "tokenId",
					"type": "uint256",
					"indexed": true,
					"internalType": "uint256"
				}
			],
			"anonymous": false
		},
		{
			"type": "error",
			"name": "ERC721IncorrectOwner",
			"inputs": [
				{
					"name": "sender",
					"type": "address",
					"internalType": "address"
				},
				{
					"name": "tokenId",
					"type": "uint256",
					"internalType": "uint256"
				},
				{
					"name": "owner",
					"type": "address",
					"internalType": "address"
				}
			]
		},
		{
			"type": "error",
			"name": "ERC721InsufficientApproval",
			"inputs": [
				{
					"name": "operator",
					"type": "address",
					"internalType": "address"
				},
				{
					"name": "tokenId",
					"type": "uint256",
					"internalType": "uint256"
				}
			]
		},
		{
			"type": "error",
			"name": "ERC721InvalidApprover",
			"inputs": [
				{
					"name": "approver",
					"type": "address",
					"internalType": "address"
				}
			]
		},
		{
			"type": "error",
			"name": "ERC721InvalidOperator",
			"inputs": [
				{
					"name": "operator",
					"type": "address",
					"internalType": "address"
				}
			]
		},
		{
			"type": "error",
			"name": "ERC721InvalidOwner",
			"inputs": [
				{
					"name": "owner",
					"type": "address",
					"internalType": "address"
				}
			]
		},
		{
			"type": "error",
			"name": "ERC721InvalidReceiver",
			"inputs": [
				{
					"name": "receiver",
					"type": "address",
					"internalType": "address"
				}
			]
		},
		{
			"type": "error",
			"name": "ERC721InvalidSender",
			"inputs": [
				{
					"name": "sender",
					"type": "address",
					"internalType": "address"
				}
			]
		},
		{
			"type": "error",
			"name": "ERC721NonexistentToken",
			"inputs": [
				{
					"name": "tokenId",
					"type": "uint256",
					"internalType": "uint256"
				}
			]
		},
		{
			"type": "error",
			"name": "FailedCall",
			"inputs": []
		},
		{
			"type": "error",
			"name": "InsufficientBalance",
			"inputs": [
				{
					"name": "balance",
					"type": "uint256",
					"internalType": "uint256"
				},
				{
					"name": "needed",
					"type": "uint256",
					"internalType": "uint256"
				}
			]
		},
		{
			"type": "error",
			"name": "OwnableInvalidOwner",
			"inputs": [
				{
					"name": "owner",
					"type": "address",
					"internalType": "address"
				}
			]
		},
		{
			"type": "error",
			"name": "OwnableUnauthorizedAccount",
			"inputs": [
				{
					"name": "account",
					"type": "address",
					"internalType": "address"
				}
			]
		},
		{
			"type": "error",
			"name": "PRBMath_MulDiv_Overflow",
			"inputs": [
				{
					"name": "x",
					"type": "uint256",
					"internalType": "uint256"
				},
				{
					"name": "y",
					"type": "uint256",
					"internalType": "uint256"
				},
				{
					"name": "denominator",
					"type": "uint256",
					"internalType": "uint256"
				}
			]
		},
		{
			"type": "error",
			"name": "REVLoans_AmountNotSpecified",
			"inputs": []
		},
		{
			"type": "error",
			"name": "REVLoans_CollateralExceedsLoan",
			"inputs": [
				{
					"name": "collateralToReturn",
					"type": "uint256",
					"internalType": "uint256"
				},
				{
					"name": "loanCollateral",
					"type": "uint256",
					"internalType": "uint256"
				}
			]
		},
		{
			"type": "error",
			"name": "REVLoans_CollateralRequired",
			"inputs": []
		},
		{
			"type": "error",
			"name": "REVLoans_InvalidPrepaidFeePercent",
			"inputs": [
				{
					"name": "prepaidFeePercent",
					"type": "uint256",
					"internalType": "uint256"
				},
				{
					"name": "min",
					"type": "uint256",
					"internalType": "uint256"
				},
				{
					"name": "max",
					"type": "uint256",
					"internalType": "uint256"
				}
			]
		},
		{
			"type": "error",
			"name": "REVLoans_LoanExpired",
			"inputs": [
				{
					"name": "timeSinceLoanCreated",
					"type": "uint256",
					"internalType": "uint256"
				},
				{
					"name": "loanLiquidationDuration",
					"type": "uint256",
					"internalType": "uint256"
				}
			]
		},
		{
			"type": "error",
			"name": "REVLoans_NoMsgValueAllowed",
			"inputs": []
		},
		{
			"type": "error",
			"name": "REVLoans_NotEnoughCollateral",
			"inputs": []
		},
		{
			"type": "error",
			"name": "REVLoans_OverflowAlert",
			"inputs": [
				{
					"name": "value",
					"type": "uint256",
					"internalType": "uint256"
				},
				{
					"name": "limit",
					"type": "uint256",
					"internalType": "uint256"
				}
			]
		},
		{
			"type": "error",
			"name": "REVLoans_PermitAllowanceNotEnough",
			"inputs": [
				{
					"name": "allowanceAmount",
					"type": "uint256",
					"internalType": "uint256"
				},
				{
					"name": "requiredAmount",
					"type": "uint256",
					"internalType": "uint256"
				}
			]
		},
		{
			"type": "error",
			"name": "REVLoans_Unauthorized",
			"inputs": [
				{
					"name": "caller",
					"type": "address",
					"internalType": "address"
				},
				{
					"name": "owner",
					"type": "address",
					"internalType": "address"
				}
			]
		},
		{
			"type": "error",
			"name": "SafeERC20FailedOperation",
			"inputs": [
				{
					"name": "token",
					"type": "address",
					"internalType": "address"
				}
			]
		}
	],
	"solcInputHash": "2fac8ef5790d6d8590d31e03af76ba04",
	"args": [
		"0x9B52A59F108e36cE0a8Eba595Eca22DbadbE655F",
		"3",
		"0x823b92d6a4b2AED4b15675c7917c9f922ea8ADAD",
		"0x000000000022D473030F116dDEE9F6B43aC78BA3",
		"0xB2b5841DBeF766d4b521221732F9B618fCf34A87"
	],
	"bytecode": "0x6101006040523480156200001257600080fd5b506040516200619b3803806200619b833981016040819052620000359162000169565b828160405180604001604052806009815260200168524556204c6f616e7360b81b81525060405180604001604052806008815260200167122922ab2627a0a760c11b81525081600090816200008b919062000284565b5060016200009a828262000284565b5050506001600160a01b039081166080528116620000d257604051631e4fbdf760e01b81526000600482015260240160405180910390fd5b620000dd81620000fe565b50506001600160a01b0393841660c05260e092909252501660a05262000350565b600680546001600160a01b038381166001600160a01b0319831681179093556040519116919082907f8be0079c531659141344cd1fd0a4f28419497f9722a3daafe3b4186f6b6457e090600090a35050565b6001600160a01b03811681146200016657600080fd5b50565b600080600080600060a086880312156200018257600080fd5b85516200018f8162000150565b602087015160408801519196509450620001a98162000150565b6060870151909350620001bc8162000150565b6080870151909250620001cf8162000150565b809150509295509295909350565b634e487b7160e01b600052604160045260246000fd5b600181811c908216806200020857607f821691505b6020821081036200022957634e487b7160e01b600052602260045260246000fd5b50919050565b601f8211156200027f576000816000526020600020601f850160051c810160208610156200025a5750805b601f850160051c820191505b818110156200027b5782815560010162000266565b5050505b505050565b81516001600160401b03811115620002a057620002a0620001dd565b620002b881620002b18454620001f3565b846200022f565b602080601f831160018114620002f05760008415620002d75750858301515b600019600386901b1c1916600185901b1785556200027b565b600085815260208120601f198616915b82811015620003215788860151825594840194600190910190840162000300565b5085821015620003405787850151600019600388901b60f8161c191681555b5050505050600190811b01905550565b60805160a05160c05160e051615dc4620003d76000396000818161046a01528181612eb40152818161327d0152818161408d015261421c015260008181610420015281816112bb0152818161161f01526129b70152600081816105c301528181611d7a0152613cab01526000818161051f0152818161062901526138f30152615dc46000f3fe60806040526004361061028f5760003560e01c80636afdd85011610156578063a4a0481a116100bf578063e131fc0c11610079578063e985e9c511610061578063e985e9c514610828578063f2fde38b14610871578063fbe7f3b11461089157005b8063e131fc0c146107db578063e4ba13c7146107fb57005b8063c4d8ea3c116100a7578063c4d8ea3c1461074d578063c87b56dd1461077a578063ddad52711461079a57005b8063a4a0481a1461070d578063b88d4fde1461072d57005b80638da5cb5b11610110578063a21cd6f8116100f8578063a21cd6f8146106a0578063a22cb465146106cd578063a33853d1146106ed57005b80638da5cb5b1461066d57806395d89b411461068b57005b8063715018a61161013e578063715018a6146106055780637da0a8771461061a57806383b4cf2f1461064d57005b80636afdd850146105b157806370a08231146105e557005b8063293c4999116101f857806350115869116101b25780636352211e1161019a5780636352211e1461054f578063667079891461056f5780636a57728f1461059c57005b806350115869146104c4578063572b6c051461050257005b806331011c54116101e057806331011c54146104585780633e73ec331461048c57806342842e0e146104a457005b8063293c49991461040e5780632cc2cb631461044257005b806309c58621116102495780630f49b199116102315780630f49b199146103b957806323b872dd146103ce5780632407497e146103ee57005b806309c58621146103755780630ba8827d1461039657005b806306fdde031161027757806306fdde03146102fb578063081812fc1461031d578063095ea7b31461035557005b806301ffc9a7146102985780630582928e146102cd57005b3661029657005b005b3480156102a457600080fd5b506102b86102b3366004614bc4565b6108b1565b60405190151581526020015b60405180910390f35b3480156102d957600080fd5b506102ed6102e8366004614be1565b61094e565b6040519081526020016102c4565b34801561030757600080fd5b5061031061095f565b6040516102c49190614c4a565b34801561032957600080fd5b5061033d610338366004614be1565b6109f1565b6040516001600160a01b0390911681526020016102c4565b34801561036157600080fd5b50610296610370366004614c72565b610a1a565b610388610383366004614c9e565b610a30565b6040516102c4929190614d84565b6103a96103a4366004614db1565b610bd4565b6040516102c49493929190614e1a565b3480156103c557600080fd5b506102ed601981565b3480156103da57600080fd5b506102966103e9366004614e44565b610dbf565b3480156103fa57600080fd5b50610296610409366004614e85565b610e6a565b34801561041a57600080fd5b5061033d7f000000000000000000000000000000000000000000000000000000000000000081565b34801561044e57600080fd5b506102ed6101f481565b34801561046457600080fd5b506102ed7f000000000000000000000000000000000000000000000000000000000000000081565b34801561049857600080fd5b506102ed6312cc030081565b3480156104b057600080fd5b506102966104bf366004614e44565b610ed7565b3480156104d057600080fd5b506102ed6104df366004614ea2565b600a60209081526000938452604080852082529284528284209052825290205481565b34801561050e57600080fd5b506102b861051d366004614e85565b7f00000000000000000000000000000000000000000000000000000000000000006001600160a01b0390811691161490565b34801561055b57600080fd5b5061033d61056a366004614be1565b610ef7565b34801561057b57600080fd5b506102ed61058a366004614be1565b600b6020526000908152604090205481565b3480156105a857600080fd5b506102ed600581565b3480156105bd57600080fd5b5061033d7f000000000000000000000000000000000000000000000000000000000000000081565b3480156105f157600080fd5b506102ed610600366004614e85565b610f02565b34801561061157600080fd5b50610296610f63565b34801561062657600080fd5b507f000000000000000000000000000000000000000000000000000000000000000061033d565b34801561065957600080fd5b50610388610668366004614ee4565b610f77565b34801561067957600080fd5b506006546001600160a01b031661033d565b34801561069757600080fd5b506103106111f6565b3480156106ac57600080fd5b506106c06106bb366004614be1565b611205565b6040516102c49190614f41565b3480156106d957600080fd5b506102966106e8366004614fa4565b611290565b3480156106f957600080fd5b50610296610708366004614fe2565b6112a2565b34801561071957600080fd5b506102ed61072836600461500e565b6115fc565b34801561073957600080fd5b50610296610748366004615152565b6119e3565b34801561075957600080fd5b506102ed610768366004614be1565b60086020526000908152604090205481565b34801561078657600080fd5b50610310610795366004614be1565b611a02565b3480156107a657600080fd5b506102b86107b5366004614ea2565b600760209081526000938452604080852082529284528284209052825290205460ff1681565b3480156107e757600080fd5b5060095461033d906001600160a01b031681565b34801561080757600080fd5b5061081b610816366004614be1565b611ab9565b6040516102c491906151be565b34801561083457600080fd5b506102b86108433660046151cc565b6001600160a01b03918216600090815260056020908152604080832093909416825291909152205460ff1690565b34801561087d57600080fd5b5061029661088c366004614e85565b611b9f565b34801561089d57600080fd5b506102ed6108ac3660046152a6565b611bf6565b60006001600160e01b031982167f80ac58cd00000000000000000000000000000000000000000000000000000000148061091457506001600160e01b031982167f5b5e139f00000000000000000000000000000000000000000000000000000000145b8061094857507f01ffc9a7000000000000000000000000000000000000000000000000000000006001600160e01b03198316145b92915050565b600061094864e8d4a510008361537d565b60606000805461096e9061539f565b80601f016020809104026020016040519081016040528092919081815260200182805461099a9061539f565b80156109e75780601f106109bc576101008083540402835291602001916109e7565b820191906000526020600020905b8154815290600101906020018083116109ca57829003601f168201915b5050505050905090565b60006109fc82611c02565b506000828152600460205260409020546001600160a01b0316610948565b610a2c8282610a27611c3b565b611c4a565b5050565b6000610a776040805160c08101825260008082526020808301829052828401829052606083018290526080830182905283518085019094528184528301529060a082015290565b610a7f611c3b565b6001600160a01b0316610aa7886000908152600260205260409020546001600160a01b031690565b6001600160a01b031614610b2057610abd611c3b565b6000888152600260205260409020546001600160a01b03165b6040517f635452f40000000000000000000000000000000000000000000000000000000081526001600160a01b039283166004820152911660248201526044015b60405180910390fd5b6000878152600d602052604090208054600160701b90046001600160701b0316861115610b945780546040517fb9c5041700000000000000000000000000000000000000000000000000000000815260048101889052600160701b9091046001600160701b03166024820152604401610b17565b6002810154610bb5906001600160a01b031688610bb0876153e7565b611c57565b9650610bc48882898989611e6b565b92509250505b9550959350505050565b600080610c1c6040805160c08101825260008082526020808301829052828401829052606083018290526080830182905283518085019094528184528301529060a082015290565b610c616040805160c08101825260008082526020808301829052828401829052606083018290526080830182905283518085019094528184528301529060a082015290565b610c69611c3b565b6001600160a01b0316610c918c6000908152600260205260409020546001600160a01b031690565b6001600160a01b031614610cc457610ca7611c3b565b60008c8152600260205260409020546001600160a01b0316610ad6565b87600003610ce55760405163a81d13d560e01b815260040160405180910390fd5b610cf88b610cf28d61094e565b8c612367565b6040805160c08101825282546001600160701b038082168352600160701b90910416602080830191909152600184015464ffffffffff81168385015265010000000000810461ffff166060840152600160381b900463ffffffff166080830152825180840190935260028401546001600160a01b0390811684526003909401549093169282019290925260a08201529094509150610dab610d988561094e565b8a8a610da48b8f615494565b8a8a610f77565b949c909b5091995092975095505050505050565b6001600160a01b038216610de957604051633250574960e11b815260006004820152602401610b17565b6000610dfd8383610df8611c3b565b612646565b9050836001600160a01b0316816001600160a01b031614610e64576040517f64283d7b0000000000000000000000000000000000000000000000000000000081526001600160a01b0380861660048301526024820184905282166044820152606401610b17565b50505050565b610e7261273f565b600980546001600160a01b0319166001600160a01b0383169081179091557fe7784d93cfbfa4408e19577e6cc0436f4dbb51214b70e100905dfce9def88c16610eb9611c3b565b6040516001600160a01b03909116815260200160405180910390a250565b610ef2838383604051806020016040528060008152506119e3565b505050565b600061094882611c02565b60006001600160a01b038216610f47576040517f89c62b6400000000000000000000000000000000000000000000000000000000815260006004820152602401610b17565b506001600160a01b031660009081526003602052604090205490565b610f6b61273f565b610f7560006127b6565b565b6000610fbe6040805160c08101825260008082526020808301829052828401829052606083018290526080830182905283518085019094528184528301529060a082015290565b85600003610fdf5760405163a81d13d560e01b815260040160405180910390fd5b6019831080610fef57506101f483115b15611038576040517fe9521ce400000000000000000000000000000000000000000000000000000000815260048101849052601960248201526101f46044820152606401610b17565b60008881526008602052604081208054611062928b9291611058906154a7565b9182905550612808565b915061107561106f611c3b565b83612824565b6000828152600d60205260409020876002820161109282826154c0565b505060018101805461ffff8616650100000000000266ffffffffffffff1990911664ffffffffff4216171790556110d0846312cc03006101f46128a2565b8160010160076101000a81548163ffffffff021916908363ffffffff16021790555060006110fe888661298f565b905061110e828b8a8a858b61299e565b89847f263a4ba8c3b0e66367115fe7c402b0f8806adb9d0b42e82794c4f6ba5f072a41848c8c8c8c61113e611c3b565b60405161115096959493929190615515565b60405180910390a3506040805160c08101825282546001600160701b038082168352600160701b90910416602080830191909152600184015464ffffffffff81168385015261ffff65010000000000820416606084015263ffffffff600160381b909104166080830152825180840190935260028401546001600160a01b0390811684526003909401549093169282019290925260a08201529050965096945050505050565b60606001805461096e9061539f565b6060600c6000838152602001908152602001600020805480602002602001604051908101604052809291908181526020016000905b82821015611285576000848152602090819020604080518082019091526002850290910180546001600160a01b0390811683526001918201541682840152908352909201910161123a565b505050509050919050565b610a2c61129b611c3b565b8383613389565b6040516331a9108f60e11b8152600481018490526000907f00000000000000000000000000000000000000000000000000000000000000006001600160a01b031690636352211e90602401602060405180830381865afa15801561130a573d6000803e3d6000fd5b505050506040513d601f19601f8201168201806040525081019061132e91906155e3565b90506000816001600160a01b031663ee0fc1216040518163ffffffff1660e01b8152600401602060405180830381865afa158015611370573d6000803e3d6000fd5b505050506040513d601f19601f8201168201806040525081019061139491906155e3565b905060005b838110156115f45760006113b6876113b18489615494565b612808565b6000818152600d60209081526040808320815160c08101835281546001600160701b038082168352600160701b9091041681850152600182015464ffffffffff80821683860190815265010000000000830461ffff166060850152600160381b90920463ffffffff166080840152845180860190955260028401546001600160a01b0390811686526003909401549093169484019490945260a081019290925291519394509216900361146a5750506115f4565b6000828152600260205260409020546001600160a01b03168015806114a957506312cc0300826040015164ffffffffff166114a59190615494565b4211155b156114b6575050506115ec565b6114bf83613441565b60208201516001600160701b0316156115385781516001600160701b0316600003611502576114fd8983602001516001600160701b0316838861347c565b611538565b81602001516001600160701b0316600b60008b815260200190815260200160002060008282546115329190615600565b90915550505b81516001600160701b0316156115a657815160008a8152600a6020908152604080832060a0870180518401516001600160a01b0390811686529184528285209051519091168452909152812080546001600160701b03909316929091906115a0908490615600565b90915550505b88837fa9a02a1552fffe2e2be37539ca88700878a330ae3baeda8b398580a02c62c878846115d2611c3b565b6040516115e0929190615613565b60405180910390a35050505b600101611399565b505050505050565b6040516331a9108f60e11b81526004810185905260009081906001600160a01b037f00000000000000000000000000000000000000000000000000000000000000001690636352211e90602401602060405180830381865afa158015611666573d6000803e3d6000fd5b505050506040513d601f19601f8201168201806040525081019061168a91906155e3565b90506000816001600160a01b031663ee0fc1216040518163ffffffff1660e01b8152600401602060405180830381865afa1580156116cc573d6000803e3d6000fd5b505050506040513d601f19601f820116820180604052508101906116f091906155e3565b90506119d68787846001600160a01b031663a71dea398b6040518263ffffffff1660e01b815260040161172591815260200190565b602060405180830381865afa158015611742573d6000803e3d6000fd5b505050506040513d601f19601f820116820180604052508101906117669190615638565b8888866001600160a01b031663d4a1b4b16040518163ffffffff1660e01b8152600401602060405180830381865afa1580156117a6573d6000803e3d6000fd5b505050506040513d601f19601f820116820180604052508101906117ca91906155e3565b6001600160a01b03166343a266c28e6040518263ffffffff1660e01b81526004016117f791815260200190565b61012060405180830381865afa158015611815573d6000803e3d6000fd5b505050506040513d601f19601f82011682018060405250810190611839919061567d565b876001600160a01b03166388bc2ef36040518163ffffffff1660e01b8152600401602060405180830381865afa158015611877573d6000803e3d6000fd5b505050506040513d601f19601f8201168201806040525081019061189b91906155e3565b6001600160a01b031663d17541538f6040518263ffffffff1660e01b81526004016118c891815260200190565b600060405180830381865afa1580156118e5573d6000803e3d6000fd5b505050506040513d6000823e601f3d908101601f1916820160405261190d919081019061572e565b886001600160a01b0316631eabcd346040518163ffffffff1660e01b8152600401602060405180830381865afa15801561194b573d6000803e3d6000fd5b505050506040513d601f19601f8201168201806040525081019061196f91906155e3565b896001600160a01b0316631d831d5c6040518163ffffffff1660e01b8152600401602060405180830381865afa1580156119ad573d6000803e3d6000fd5b505050506040513d601f19601f820116820180604052508101906119d191906155e3565b613574565b925050505b949350505050565b6119ee848484610dbf565b610e646119f9611c3b565b858585856136ba565b6009546060906001600160a01b031680611a2c575050604080516020810190915260008152919050565b6040517fda0544aa000000000000000000000000000000000000000000000000000000008152600481018490526001600160a01b0382169063da0544aa90602401600060405180830381865afa158015611a8a573d6000803e3d6000fd5b505050506040513d6000823e601f3d908101601f19168201604052611ab291908101906157e0565b9392505050565b611afe6040805160c08101825260008082526020808301829052828401829052606083018290526080830182905283518085019094528184528301529060a082015290565b506000908152600d6020908152604091829020825160c08101845281546001600160701b038082168352600160701b9091041681840152600182015464ffffffffff81168286015265010000000000810461ffff166060830152600160381b900463ffffffff166080820152835180850190945260028201546001600160a01b0390811685526003909201549091169183019190915260a081019190915290565b611ba761273f565b6001600160a01b038116611bea576040517f1e4fbdf700000000000000000000000000000000000000000000000000000000815260006004820152602401610b17565b611bf3816127b6565b50565b6000611ab283836137dc565b6000818152600260205260408120546001600160a01b03168061094857604051637e27328960e01b815260048101849052602401610b17565b6000611c456138e3565b905090565b610ef28383836001613958565b600061eeed196001600160a01b03851601611c73575034611ab2565b3415611cab576040517f52b1133c00000000000000000000000000000000000000000000000000000000815260040160405180910390fd5b60208201516001600160a01b031615611e2e578282602001516001600160a01b03161015611d1d5760208201516040517fd70aca8c0000000000000000000000000000000000000000000000000000000081526001600160a01b03909116600482015260248101849052604401610b17565b6040805160e0810182526001600160a01b038087166060808401918252602087810151841660808601528786015165ffffffffffff90811660a08701529188015190911660c08501529083523090830152845192820192909252907f000000000000000000000000000000000000000000000000000000000000000016632b67b570611da7611c3b565b8386608001516040518463ffffffff1660e01b8152600401611dcb9392919061584e565b600060405180830381600087803b158015611de557600080fd5b505af1925050508015611df6575060015b611e2c573d808015611e24576040519150601f19603f3d011682016040523d82523d6000602084013e611e29565b606091505b50505b505b6000611e3985613a96565b9050611e4e611e46611c3b565b308787613b37565b80611e5886613a96565b611e629190615600565b95945050505050565b6000611eb26040805160c08101825260008082526020808301829052828401829052606083018290526080830182905283518085019094528184528301529060a082015290565b6040805160c08101825287546001600160701b038082168352600160701b90910416602080830191909152600189015464ffffffffff81168385015265010000000000810461ffff166060840152600160381b900463ffffffff166080830152825180840190935260028901546001600160a01b03908116845260038a0154169083015260a0810191909152600090611f4b90876137dc565b8754909150611f649082906001600160701b0316615494565b861115611fc457611fac30611f77611c3b565b60028a01548a546001600160a01b03909116906001600160701b0316611f9d868c615600565b611fa79190615600565b613b37565b8654611fc1906001600160701b031682615494565b95505b6000611fcf8961094e565b9050611fda89613441565b87546001600160701b0316611fef8389615600565b14801561200c57508754600160701b90046001600160701b031686145b15612105576120208882600080868a61299e565b88818a7f2abbaa875cdd67bcfc3aa06c600ea08ad0e0ce09ad011964de2e1d3474ef2cdd8b8c8c888d8d612052611c3b565b60405161206597969594939291906158c3565b60405180910390a450506040805160c08101825287546001600160701b038082168352600160701b90910416602080830191909152600189015464ffffffffff81168385015265010000000000810461ffff166060840152600160381b900463ffffffff166080830152825180840190935260028901546001600160a01b03908116845260038a0154169083015260a08101919091528792509050610bca565b600081815260086020526040812080546121269184918490611058906154a7565b9050612139612133611c3b565b82612824565b6000818152600d60205260409020895481546001600160701b039182166dffffffffffffffffffffffffffff198216811784558c546001600160e01b031990921617600160701b91829004909216021781556001808b018054918301805464ffffffffff90931664ffffffffff19841681178255825466ffffffffffffff1990941617650100000000009384900461ffff169093029290921780835590546affffffff0000000000000019909116600160381b9182900463ffffffff169091021790556002808b015490820180546001600160a01b039283166001600160a01b0319918216179091556003808d0154908401805491909316911617905561227e8184612245878d615600565b845461225a91906001600160701b0316615600565b8454612277908d90600160701b90046001600160701b0316615600565b888c61299e565b81838c7f2abbaa875cdd67bcfc3aa06c600ea08ad0e0ce09ad011964de2e1d3474ef2cdd8d858e8a8f8f6122b0611c3b565b6040516122c397969594939291906158c3565b60405180910390a46040805160c08101825282546001600160701b038082168352600160701b90910416602080830191909152600184015464ffffffffff81168385015265010000000000810461ffff166060840152600160381b900463ffffffff166080830152825180840190935260028401546001600160a01b0390811684526003909401549093169282019290925260a08201529094509250610bca915050565b60008061237385613441565b6000858152600d602052604090208054600160701b90046001600160701b03168411156123b35760405163c459ec8360e01b815260040160405180910390fd5b8054600160701b90046001600160701b0316841480156123dc575080546001600160701b031615155b15612413576040517f6c82b1c500000000000000000000000000000000000000000000000000000000815260040160405180910390fd5b6000858152600860205260408120805461243392889291611058906154a7565b9250612446612440611c3b565b84612824565b6000838152600d60205260409020815481546001600160701b039182166dffffffffffffffffffffffffffff1982168117845584546001600160e01b031990921617600160701b91829004831682021780845560018086018054918601805464ffffffffff90931664ffffffffff19841681178255825466ffffffffffffff1990941617650100000000009384900461ffff169093029290921780835590546affffffff0000000000000019909116600160381b9182900463ffffffff1690910217905560028086015490850180546001600160a01b039283166001600160a01b0319918216179091556003808801549087018054919093169116179055929450612571928592899282821692612562928b9290910416615600565b600061256c611c3b565b61299e565b8285877ff7760699f4b6789f9aadcc03b7c806b5c7d2d481f0f4b378cce2dbdd592e3feb858861259f611c3b565b6040516126359392919083546001600160701b03808216835260709190911c166020820152600184015464ffffffffff81166040830152602881901c61ffff16606083015260381c63ffffffff16608082015260028401546001600160a01b0390811660a083015260038501541660c082015261012081018360e08301526001600160a01b038316610100830152949350505050565b60405180910390a450935093915050565b6000828152600260205260408120546001600160a01b039081169083161561267357612673818486613d0d565b6001600160a01b038116156126b157612690600085600080613958565b6001600160a01b038116600090815260036020526040902080546000190190555b6001600160a01b038516156126e0576001600160a01b0385166000908152600360205260409020805460010190555b60008481526002602052604080822080546001600160a01b0319166001600160a01b0389811691821790925591518793918516917fddf252ad1be2c89b69c2b068fc378daa952ba7f163c4a11628f55a4df523b3ef91a4949350505050565b612747611c3b565b6001600160a01b03166127626006546001600160a01b031690565b6001600160a01b031614610f7557612778611c3b565b6040517f118cdaa70000000000000000000000000000000000000000000000000000000081526001600160a01b039091166004820152602401610b17565b600680546001600160a01b038381166001600160a01b0319831681179093556040519116919082907f8be0079c531659141344cd1fd0a4f28419497f9722a3daafe3b4186f6b6457e090600090a35050565b60008161281a64e8d4a51000856159dd565b611ab29190615494565b6001600160a01b03821661284e57604051633250574960e11b815260006004820152602401610b17565b600061285c83836000612646565b90506001600160a01b03811615610ef2576040517f73c6ac6e00000000000000000000000000000000000000000000000000000000815260006004820152602401610b17565b60008080600019858709858702925082811083820303915050806000036128dc578382816128d2576128d2615351565b0492505050611ab2565b838110612926576040517f63a05778000000000000000000000000000000000000000000000000000000008152600481018790526024810186905260448101859052606401610b17565b60008486880960026001871981018816978890046003810283188082028403028082028403028082028403028082028403028082028403029081029092039091026000889003889004909101858311909403939093029303949094049190911702949350505050565b6000611ab283836103e86128a2565b6040516331a9108f60e11b8152600481018690526000907f00000000000000000000000000000000000000000000000000000000000000006001600160a01b031690636352211e90602401602060405180830381865afa158015612a06573d6000803e3d6000fd5b505050506040513d601f19601f82011682018060405250810190612a2a91906155e3565b90506000816001600160a01b031663ee0fc1216040518163ffffffff1660e01b8152600401602060405180830381865afa158015612a6c573d6000803e3d6000fd5b505050506040513d601f19601f82011682018060405250810190612a9091906155e3565b90506000816001600160a01b03166388bc2ef36040518163ffffffff1660e01b8152600401602060405180830381865afa158015612ad2573d6000803e3d6000fd5b505050506040513d601f19601f82011682018060405250810190612af691906155e3565b60038a015460028b0154604051633a01714f60e01b8152600481018c90526001600160a01b039182166024820152929350600092911690633a01714f90604401606060405180830381865afa158015612b53573d6000803e3d6000fd5b505050506040513d601f19601f82011682018060405250810190612b7791906159f4565b6040517fa71dea39000000000000000000000000000000000000000000000000000000008152600481018b90529091506000906001600160a01b0386169063a71dea3990602401602060405180830381865afa158015612bdb573d6000803e3d6000fd5b505050506040513d601f19601f82011682018060405250810190612bff9190615638565b90506000846001600160a01b031663d4a1b4b16040518163ffffffff1660e01b8152600401602060405180830381865afa158015612c41573d6000803e3d6000fd5b505050506040513d601f19601f82011682018060405250810190612c6591906155e3565b6001600160a01b03166343a266c28c6040518263ffffffff1660e01b8152600401612c9291815260200190565b61012060405180830381865afa158015612cb0573d6000803e3d6000fd5b505050506040513d601f19601f82011682018060405250810190612cd4919061567d565b6040517fd1754153000000000000000000000000000000000000000000000000000000008152600481018d90529091506000906001600160a01b0386169063d175415390602401600060405180830381865afa158015612d38573d6000803e3d6000fd5b505050506040513d6000823e601f3d908101601f19168201604052612d60919081019061572e565b8d549091506001600160701b03168b1180612d8c57508c54600160701b90046001600160701b03168a14155b8015612e5157508a612e4f8d8c86886020015160ff16896040015163ffffffff1688888e6001600160a01b0316631eabcd346040518163ffffffff1660e01b8152600401602060405180830381865afa158015612ded573d6000803e3d6000fd5b505050506040513d601f19601f82011682018060405250810190612e1191906155e3565b8f6001600160a01b0316631d831d5c6040518163ffffffff1660e01b8152600401602060405180830381865afa1580156119ad573d6000803e3d6000fd5b105b15612e6f5760405163c459ec8360e01b815260040160405180910390fd5b50508a546001600160701b031689111591506130c390505760028901546040517f862026500000000000000000000000000000000000000000000000000000000081527f000000000000000000000000000000000000000000000000000000000000000060048201526001600160a01b039182166024820152600091831690638620265090604401602060405180830381865afa158015612f14573d6000803e3d6000fd5b505050506040513d601f19601f82011682018060405250810190612f3891906155e3565b90506130bd8a6040518060c00160405290816000820160009054906101000a90046001600160701b03166001600160701b03166001600160701b0316815260200160008201600e9054906101000a90046001600160701b03166001600160701b03166001600160701b031681526020016001820160009054906101000a900464ffffffffff1664ffffffffff1664ffffffffff1681526020016001820160059054906101000a900461ffff1661ffff1661ffff1681526020016001820160079054906101000a900463ffffffff1663ffffffff1663ffffffff168152602001600282016040518060400160405290816000820160009054906101000a90046001600160a01b03166001600160a01b03166001600160a01b031681526020016001820160009054906101000a90046001600160a01b03166001600160a01b03166001600160a01b031681525050815250508a8c60000160009054906101000a90046001600160701b03166001600160701b03168b6130b59190615600565b89858a613d8a565b50613178565b88546001600160701b0316871015613178576040805160c0810182528a546001600160701b03808216808452600160701b9092041660208084019190915260018d015464ffffffffff81168486015265010000000000810461ffff166060850152600160381b900463ffffffff166080840152835180850190945260028d01546001600160a01b03908116855260038e0154169084015260a0820192909252613178918a90613173908b90615600565b61418b565b8854600160701b90046001600160701b03168611156131be5788546131b99089906131b390600160701b90046001600160701b031689615600565b846142e1565b613201565b8854600160701b90046001600160701b03168610156132015788546132019089906131fa908990600160701b90046001600160701b0316615600565b868561347c565b600289015460009061321b906001600160a01b0316613a96565b905080156133525760038a015460028b0154600091613247916001600160a01b039182169116846143bb565b60038c015460028d01546040519293506001600160a01b039182169263fef432579285928f9291169087908c906000906132a9907f00000000000000000000000000000000000000000000000000000000000000009060200190815260200190565b6040516020818303038152906040526040518863ffffffff1660e01b81526004016132d996959493929190615a6c565b60206040518083038185885af193505050508015613314575060408051601f3d908101601f1916820190925261331191810190615638565b60015b61334e573d808015613342576040519150601f19603f3d011682016040523d82523d6000602084013e613347565b606091505b5050613350565b505b505b505087546001600160701b03958616600160701b026001600160e01b03199091169590961694909417949094179095555050505050565b6001600160a01b0382166133d4576040517f5b08ba180000000000000000000000000000000000000000000000000000000081526001600160a01b0383166004820152602401610b17565b6001600160a01b03838116600081815260056020908152604080832094871680845294825291829020805460ff191686151590811790915591519182527f17307eab39ab6107e8899845ad3d59bd9653f200f220920489ca2b5937696c31910160405180910390a3505050565b60006134506000836000612646565b90506001600160a01b038116610a2c57604051637e27328960e01b815260048101839052602401610b17565b6000848152600b60205260408120805485929061349a908490615600565b90915550506040517fc7fb92de00000000000000000000000000000000000000000000000000000000815260048101859052602481018490526001600160a01b03838116604483015260a06064830152601d60a48301527f52656d6f76696e6720636f6c6c61746572616c2066726f6d206c6f616e00000060c48301526000608483015282169063c7fb92de9060e4016020604051808303816000875af1158015613549573d6000803e3d6000fd5b505050506040513d601f19601f8201168201806040525081019061356d9190615638565b5050505050565b6040805160008082526020820190925281906135c9908c908790846135c1565b60408051606081018252600080825260208083018290529282015282526000199092019101816135945790505b508b8b6143f5565b905060006135d98c8a8a886144af565b6040517f75b0d9cd000000000000000000000000000000000000000000000000000000008152600481018e90529091506000906001600160a01b038616906375b0d9cd90602401602060405180830381865afa15801561363d573d6000803e3d6000fd5b505050506040513d601f19601f820116820180604052508101906136619190615638565b60008e8152600b60205260409020549091506136a86136808486615494565b8e8e61368c8587615494565b6136969190615494565b6101008d015160141c61ffff1661471b565b9e9d5050505050505050505050505050565b6001600160a01b0383163b1561356d57604051630a85bd0160e11b81526001600160a01b0384169063150b7a02906136fc908890889087908790600401615aed565b6020604051808303816000875af1925050508015613737575060408051601f3d908101601f1916820190925261373491810190615b1f565b60015b6137a0573d808015613765576040519150601f19603f3d011682016040523d82523d6000602084013e61376a565b606091505b50805160000361379857604051633250574960e11b81526001600160a01b0385166004820152602401610b17565b805181602001fd5b6001600160e01b03198116630a85bd0160e11b146115f457604051633250574960e11b81526001600160a01b0385166004820152602401610b17565b600080836040015164ffffffffff16426137f69190615600565b9050836080015163ffffffff168111156138dc576312cc0300811115613855576040517f045be491000000000000000000000000000000000000000000000000000000008152600481018290526312cc03006024820152604401610b17565b600061387685600001516001600160701b0316866060015161ffff1661298f565b905060006138ac8287600001516001600160701b03166138969190615600565b6138a7856103e86312cc03006128a2565b61298f565b905060008187600001516001600160701b03166138c99190615494565b90506138d68287836128a2565b94505050505b5092915050565b6000366014336001600160a01b037f0000000000000000000000000000000000000000000000000000000000000000161480156139205750808210155b15613950576000366139328385615600565b61393d928290615b3c565b61394691615b66565b60601c9250505090565b339250505090565b808061396c57506001600160a01b03821615155b15613a6657600061397c84611c02565b90506001600160a01b038316158015906139a85750826001600160a01b0316816001600160a01b031614155b80156139da57506001600160a01b0380821660009081526005602090815260408083209387168352929052205460ff16155b15613a1c576040517fa9fbf51f0000000000000000000000000000000000000000000000000000000081526001600160a01b0384166004820152602401610b17565b8115613a645783856001600160a01b0316826001600160a01b03167f8c5be1e5ebec7d5bd14f71427d1e84f3dd0314c0f7b2291e5b200ac8c7c3b92560405160405180910390a45b505b5050600090815260046020526040902080546001600160a01b0319166001600160a01b0392909216919091179055565b60006001600160a01b03821661eeee14613b30576040517f70a082310000000000000000000000000000000000000000000000000000000081523060048201526001600160a01b038316906370a0823190602401602060405180830381865afa158015613b07573d6000803e3d6000fd5b505050506040513d601f19601f82011682018060405250810190613b2b9190615638565b610948565b4792915050565b306001600160a01b03851603613b7d5761eeed196001600160a01b03831601613b6957613b648382614792565b610e64565b613b646001600160a01b0383168483614862565b604051636eb1769f60e11b81526001600160a01b03858116600483015230602483015282919084169063dd62ed3e90604401602060405180830381865afa158015613bcc573d6000803e3d6000fd5b505050506040513d601f19601f82011682018060405250810190613bf09190615638565b10613c0a57613b646001600160a01b0383168585846148d6565b6001600160a01b03811115613c5b576040517f34593039000000000000000000000000000000000000000000000000000000008152600481018290526001600160a01b036024820152604401610b17565b6040517f36c785160000000000000000000000000000000000000000000000000000000081526001600160a01b0385811660048301528481166024830152828116604483015283811660648301527f000000000000000000000000000000000000000000000000000000000000000016906336c7851690608401600060405180830381600087803b158015613cef57600080fd5b505af1158015613d03573d6000803e3d6000fd5b5050505050505050565b613d1883838361490f565b610ef2576001600160a01b038316613d4657604051637e27328960e01b815260048101829052602401610b17565b6040517f177e802f0000000000000000000000000000000000000000000000000000000081526001600160a01b038316600482015260248101829052604401610b17565b600085815260076020908152604080832060a08a0180518401516001600160a01b039081168652918452828520905151909116845290915290205460ff16613e7757600085815260076020908152604080832060a08a0180518401516001600160a01b039081168652918452828520815151831686528452828520805460ff191660019081179091558a8652600c85528386208451808601909552825151841685529151850151831684860190815282548083018455928752949095209251600290910290920180549282166001600160a01b031993841617815592519290930180549290931691161790555b6000858152600a6020908152604080832060a08a0180518401516001600160a01b039081168652918452828520905151909116845290915281208054869290613ec1908490615494565b909155505060a086015160208101519051604051633a01714f60e01b81526000926001600160a01b031691633a01714f91613f12918a916004019182526001600160a01b0316602082015260400190565b606060405180830381865afa158015613f2f573d6000803e3d6000fd5b505050506040513d601f19601f82011682018060405250810190613f5391906159f4565b60a08801516020810151905160408381015190517f748e821c000000000000000000000000000000000000000000000000000000008152600481018b90526001600160a01b039283166024820152604481018a905263ffffffff9091166064820152600060848201523060a482015285821660c482015261010060e482015260196101048201527f4c656e64696e67206f757420746f206120626f72726f77657200000000000000610124820152929350169063748e821c90610144016020604051808303816000875af115801561402f573d6000803e3d6000fd5b505050506040513d601f19601f820116820180604052508101906140539190615638565b5050600061406285600561298f565b90506000614079848960a0015160000151846143bb565b9050836001600160a01b031663fef43257827f00000000000000000000000000000000000000000000000000000000000000008b60a0015160000151868860008e6040516020016140cc91815260200190565b6040516020818303038152906040526040518863ffffffff1660e01b81526004016140fc96959493929190615a6c565b60206040518083038185885af193505050508015614137575060408051601f3d908101601f1916820190925261413491810190615638565b60015b614171573d808015614165576040519150601f19603f3d011682016040523d82523d6000602084013e61416a565b606091505b5050614173565b505b60a088015151613d03903090859088611f9d82613a96565b6000828152600a6020908152604080832060a0870180518401516001600160a01b0390811686529184528285209051519091168452909152812080548392906141d5908490615600565b909155505060a0830151602081015190516000916141f391846143bb565b90508360a00151602001516001600160a01b0316639e6eec0582858760a00151600001518660007f000000000000000000000000000000000000000000000000000000000000000060405160200161424d91815260200190565b6040516020818303038152906040526040518763ffffffff1660e01b815260040161427c959493929190615b9b565b6000604051808303818588803b15801561429557600080fd5b505af1935050505080156142a7575060015b610e64573d8080156142d5576040519150601f19603f3d011682016040523d82523d6000602084013e6142da565b606091505b5050610e64565b6000838152600b6020526040812080548492906142ff908490615494565b90915550506001600160a01b03811663a2d532e661431b611c3b565b6040516001600160e01b031960e084901b1681526001600160a01b039091166004820152602481018690526044810185905260806064820152601960848201527f416464696e6720636f6c6c61746572616c20746f206c6f616e0000000000000060a482015260c401600060405180830381600087803b15801561439e57600080fd5b505af11580156143b2573d6000803e3d6000fd5b50505050505050565b600061eeed196001600160a01b038416016143d7575080611ab2565b6143eb6001600160a01b0384168584614992565b5060009392505050565b8351600090815b818110156144a45786818151811061441657614416615c06565b60200260200101516001600160a01b031663edb40950898888886040518563ffffffff1660e01b815260040161444f9493929190615c1c565b602060405180830381865afa15801561446c573d6000803e3d6000fd5b505050506040513d601f19601f820116820180604052508101906144909190615638565b61449a9084615494565b92506001016143fc565b505095945050505050565b6000848152600c6020908152604080832080548251818502810185019093528083528493849084015b82821015614523576000848152602090819020604080518082019091526002850290910180546001600160a01b039081168352600191820154168284015290835290920191016144d8565b50505050905060005b815181101561471157600082828151811061454957614549615c06565b60200260200101519050600081602001516001600160a01b0316633a01714f8a84600001516040518363ffffffff1660e01b815260040161459d9291909182526001600160a01b0316602082015260400190565b606060405180830381865afa1580156145ba573d6000803e3d6000fd5b505050506040513d601f19601f820116820180604052508101906145de91906159f4565b9050600087826040015163ffffffff161461469a5760408281015190517f3be273fa000000000000000000000000000000000000000000000000000000008152600481018c905263ffffffff909116602482015260448101899052606481018a90526001600160a01b03881690633be273fa90608401602060405180830381865afa158015614671573d6000803e3d6000fd5b505050506040513d601f19601f820116820180604052508101906146959190615638565b6146a5565b6146a589600a615d82565b60008b8152600a60208181526040808420888301516001600160a01b03908116865290835281852089519091168552909152909120549192506146f59082906146ef908d90615d82565b846128a2565b6146ff9088615494565b9650506001909301925061452c915050565b5050949350505050565b600061270f19820161472f575060006119db565b82841061473d5750836119db565b600061474a8686866128a2565b90508260000361475b5790506119db565b6147888161476a8588886128a2565b61477686612710615600565b6147809190615494565b6127106128a2565b9695505050505050565b804710156147d5576040517fcf47918100000000000000000000000000000000000000000000000000000000815247600482015260248101829052604401610b17565b6000826001600160a01b03168260405160006040518083038185875af1925050503d8060008114614822576040519150601f19603f3d011682016040523d82523d6000602084013e614827565b606091505b5050905080610ef2576040517fd6bda27500000000000000000000000000000000000000000000000000000000815260040160405180910390fd5b6040516001600160a01b03838116602483015260448201839052610ef291859182169063a9059cbb906064015b604051602081830303815290604052915060e01b6020820180517bffffffffffffffffffffffffffffffffffffffffffffffffffffffff8381831617835250505050614a1c565b6040516001600160a01b038481166024830152838116604483015260648201839052610e649186918216906323b872dd9060840161488f565b60006001600160a01b038316158015906119db5750826001600160a01b0316846001600160a01b0316148061496957506001600160a01b0380851660009081526005602090815260408083209387168352929052205460ff165b806119db5750506000908152600460205260409020546001600160a01b03908116911614919050565b604051636eb1769f60e11b81523060048201526001600160a01b0383811660248301526000919085169063dd62ed3e90604401602060405180830381865afa1580156149e2573d6000803e3d6000fd5b505050506040513d601f19601f82011682018060405250810190614a069190615638565b9050610e648484614a178585615494565b614aa6565b600080602060008451602086016000885af180614a3f576040513d6000823e3d81fd5b50506000513d91508115614a57578060011415614a64565b6001600160a01b0384163b155b15610e64576040517f5274afe70000000000000000000000000000000000000000000000000000000081526001600160a01b0385166004820152602401610b17565b604080516001600160a01b038416602482015260448082018490528251808303909101815260649091019091526020810180517bffffffffffffffffffffffffffffffffffffffffffffffffffffffff167f095ea7b300000000000000000000000000000000000000000000000000000000179052614b258482614b64565b610e64576040516001600160a01b03848116602483015260006044830152614b5a91869182169063095ea7b39060640161488f565b610e648482614a1c565b6000806000806020600086516020880160008a5af192503d9150600051905082801561478857508115614b9a5780600114614788565b50505050506001600160a01b03163b151590565b6001600160e01b031981168114611bf357600080fd5b600060208284031215614bd657600080fd5b8135611ab281614bae565b600060208284031215614bf357600080fd5b5035919050565b60005b83811015614c15578181015183820152602001614bfd565b50506000910152565b60008151808452614c36816020860160208601614bfa565b601f01601f19169290920160200192915050565b602081526000611ab26020830184614c1e565b6001600160a01b0381168114611bf357600080fd5b60008060408385031215614c8557600080fd5b8235614c9081614c5d565b946020939093013593505050565b600080600080600060a08688031215614cb657600080fd5b8535945060208601359350604086013592506060860135614cd681614c5d565b9150608086013567ffffffffffffffff811115614cf257600080fd5b860160a08189031215614d0457600080fd5b809150509295509295909350565b6001600160701b038082511683528060208301511660208401525064ffffffffff604082015116604083015261ffff606082015116606083015263ffffffff608082015116608083015260a0810151610ef260a084018280516001600160a01b03908116835260209182015116910152565b8281526101008101611ab26020830184614d12565b600060408284031215614dab57600080fd5b50919050565b6000806000806000806000610100888a031215614dcd57600080fd5b8735965060208801359550614de58960408a01614d99565b94506080880135935060a0880135925060c0880135614e0381614c5d565b8092505060e0880135905092959891949750929550565b848152602081018490526102008101614e366040830185614d12565b611e62610120830184614d12565b600080600060608486031215614e5957600080fd5b8335614e6481614c5d565b92506020840135614e7481614c5d565b929592945050506040919091013590565b600060208284031215614e9757600080fd5b8135611ab281614c5d565b600080600060608486031215614eb757600080fd5b833592506020840135614ec981614c5d565b91506040840135614ed981614c5d565b809150509250925092565b60008060008060008060e08789031215614efd57600080fd5b86359550614f0e8860208901614d99565b9450606087013593506080870135925060a0870135614f2c81614c5d565b8092505060c087013590509295509295509295565b602080825282518282018190526000919060409081850190868401855b82811015614f9757614f8784835180516001600160a01b03908116835260209182015116910152565b9284019290850190600101614f5e565b5091979650505050505050565b60008060408385031215614fb757600080fd5b8235614fc281614c5d565b915060208301358015158114614fd757600080fd5b809150509250929050565b600080600060608486031215614ff757600080fd5b505081359360208301359350604090920135919050565b6000806000806080858703121561502457600080fd5b5050823594602084013594506040840135936060013592509050565b634e487b7160e01b600052604160045260246000fd5b60405160c0810167ffffffffffffffff8111828210171561507957615079615040565b60405290565b604051610120810167ffffffffffffffff8111828210171561507957615079615040565b604051601f8201601f1916810167ffffffffffffffff811182821017156150cc576150cc615040565b604052919050565b600067ffffffffffffffff8211156150ee576150ee615040565b50601f01601f191660200190565b600082601f83011261510d57600080fd5b813561512061511b826150d4565b6150a3565b81815284602083860101111561513557600080fd5b816020850160208301376000918101602001919091529392505050565b6000806000806080858703121561516857600080fd5b843561517381614c5d565b9350602085013561518381614c5d565b925060408501359150606085013567ffffffffffffffff8111156151a657600080fd5b6151b2878288016150fc565b91505092959194509250565b60e081016109488284614d12565b600080604083850312156151df57600080fd5b82356151ea81614c5d565b91506020830135614fd781614c5d565b6001600160701b0381168114611bf357600080fd5b803561ffff8116811461522157600080fd5b919050565b63ffffffff81168114611bf357600080fd5b803561522181615226565b60006040828403121561525557600080fd5b6040516040810181811067ffffffffffffffff8211171561527857615278615040565b604052905080823561528981614c5d565b8152602083013561529981614c5d565b6020919091015292915050565b6000808284036101008112156152bb57600080fd5b60e08112156152c957600080fd5b506152d2615056565b83356152dd816151fa565b815260208401356152ed816151fa565b6020820152604084013564ffffffffff8116811461530a57600080fd5b604082015261531b6060850161520f565b606082015261532c60808501615238565b608082015261533e8560a08601615243565b60a08201529460e0939093013593505050565b634e487b7160e01b600052601260045260246000fd5b634e487b7160e01b600052601160045260246000fd5b60008261539a57634e487b7160e01b600052601260045260246000fd5b500490565b600181811c908216806153b357607f821691505b602082108103614dab57634e487b7160e01b600052602260045260246000fd5b65ffffffffffff81168114611bf357600080fd5b600060a082360312156153f957600080fd5b60405160a0810167ffffffffffffffff828210818311171561541d5761541d615040565b81604052843583526020850135915061543582614c5d565b8160208401526040850135915061544b826153d3565b81604084015260608501359150615461826153d3565b816060840152608085013591508082111561547b57600080fd5b50615488368286016150fc565b60808301525092915050565b8082018082111561094857610948615367565b6000600182016154b9576154b9615367565b5060010190565b81356154cb81614c5d565b81546001600160a01b0319166001600160a01b0382161782555060208201356154f381614c5d565b6001820180546001600160a01b0319166001600160a01b038316179055505050565b86546001600160701b03808216835260709190911c166020820152600187015464ffffffffff81166040830152602881901c61ffff16606083015260381c63ffffffff16608082015260028701546001600160a01b0390811660a083015260038801541660c08201526101a08101863561558e81614c5d565b6001600160a01b0390811660e08401526020880135906155ad82614c5d565b80821661010085015287610120850152866101408501528086166101608501528085166101808501525050979650505050505050565b6000602082840312156155f557600080fd5b8151611ab281614c5d565b8181038181111561094857610948615367565b61010081016156228285614d12565b6001600160a01b03831660e08301529392505050565b60006020828403121561564a57600080fd5b5051919050565b8051615221816153d3565b805161522181615226565b8051615221816151fa565b805161522181614c5d565b6000610120828403121561569057600080fd5b61569861507f565b6156a183615651565b81526156af60208401615651565b60208201526156c060408401615651565b60408201526156d160608401615651565b60608201526156e26080840161565c565b60808201526156f360a08401615667565b60a082015261570460c0840161565c565b60c082015261571560e08401615672565b60e0820152610100928301519281019290925250919050565b6000602080838503121561574157600080fd5b825167ffffffffffffffff8082111561575957600080fd5b818501915085601f83011261576d57600080fd5b81518181111561577f5761577f615040565b8060051b91506157908483016150a3565b81815291830184019184810190888411156157aa57600080fd5b938501935b838510156157d457845192506157c483614c5d565b82825293850193908501906157af565b98975050505050505050565b6000602082840312156157f257600080fd5b815167ffffffffffffffff81111561580957600080fd5b8201601f8101841361581a57600080fd5b805161582861511b826150d4565b81815285602083850101111561583d57600080fd5b611e62826020830160208601614bfa565b60006101006001600160a01b0380871684528551818151166020860152816020820151166040860152604081015165ffffffffffff80821660608801528060608401511660808801525050508060208701511660a085015250604085015160c08401528060e084015261478881840185614c1e565b87546001600160701b03808216835260709190911c166020820152600188015464ffffffffff81166040830152602881901c61ffff16606083015260381c63ffffffff16608082015260028801546001600160a01b0390811660a083015260038901541660c0820152610260810187546001600160701b0380821660e085015260709190911c16610100830152600188015464ffffffffff8116610120840152602881901c61ffff1661014084015260381c63ffffffff1661016083015260028801546001600160a01b039081166101808401526003890154166101a08301526101c08201969096526101e08101949094526102008401929092526001600160a01b03908116610220840152166102409091015292915050565b808202811582820484141761094857610948615367565b600060608284031215615a0657600080fd5b6040516060810181811067ffffffffffffffff82111715615a2957615a29615040565b6040528251615a3781614c5d565b8152602083015160ff81168114615a4d57600080fd5b60208201526040830151615a6081615226565b60408201529392505050565b86815260006001600160a01b03808816602084015286604084015280861660608401525083608083015260e060a0830152600d60e08301527f4665652066726f6d206c6f616e000000000000000000000000000000000000006101008301526101208060c0840152615ae081840185614c1e565b9998505050505050505050565b60006001600160a01b038087168352808616602084015250836040830152608060608301526147886080830184614c1e565b600060208284031215615b3157600080fd5b8151611ab281614bae565b60008085851115615b4c57600080fd5b83861115615b5957600080fd5b5050820193919092039150565b6bffffffffffffffffffffffff198135818116916014851015615b935780818660140360031b1b83161692505b505092915050565b8581526001600160a01b0385166020820152836040820152821515606082015260c06080820152600f60c08201527f506179696e67206f6666206c6f616e000000000000000000000000000000000060e082015260006101008060a08401526157d481840185614c1e565b634e487b7160e01b600052603260045260246000fd5b60006080820186835260206080602085015281875180845260a08601915060208901935060005b81811015615c8757845180516001600160a01b031684528481015160ff168585015260409081015163ffffffff169084015293830193606090920191600101615c43565b505060408501969096525050506060015292915050565b600181815b80851115615cd9578160001904821115615cbf57615cbf615367565b80851615615ccc57918102915b93841c9390800290615ca3565b509250929050565b600082615cf057506001610948565b81615cfd57506000610948565b8160018114615d135760028114615d1d57615d39565b6001915050610948565b60ff841115615d2e57615d2e615367565b50506001821b610948565b5060208310610133831016604e8410600b8410161715615d5c575081810a610948565b615d668383615c9e565b8060001904821115615d7a57615d7a615367565b029392505050565b6000611ab28383615ce156fea26469706673582212209c95d926428f228b0225b96f8761827a08b2136a01c634c11ccb6abe6e5db00564736f6c63430008170033",
	"deployedBytecode": "0x60806040526004361061028f5760003560e01c80636afdd85011610156578063a4a0481a116100bf578063e131fc0c11610079578063e985e9c511610061578063e985e9c514610828578063f2fde38b14610871578063fbe7f3b11461089157005b8063e131fc0c146107db578063e4ba13c7146107fb57005b8063c4d8ea3c116100a7578063c4d8ea3c1461074d578063c87b56dd1461077a578063ddad52711461079a57005b8063a4a0481a1461070d578063b88d4fde1461072d57005b80638da5cb5b11610110578063a21cd6f8116100f8578063a21cd6f8146106a0578063a22cb465146106cd578063a33853d1146106ed57005b80638da5cb5b1461066d57806395d89b411461068b57005b8063715018a61161013e578063715018a6146106055780637da0a8771461061a57806383b4cf2f1461064d57005b80636afdd850146105b157806370a08231146105e557005b8063293c4999116101f857806350115869116101b25780636352211e1161019a5780636352211e1461054f578063667079891461056f5780636a57728f1461059c57005b806350115869146104c4578063572b6c051461050257005b806331011c54116101e057806331011c54146104585780633e73ec331461048c57806342842e0e146104a457005b8063293c49991461040e5780632cc2cb631461044257005b806309c58621116102495780630f49b199116102315780630f49b199146103b957806323b872dd146103ce5780632407497e146103ee57005b806309c58621146103755780630ba8827d1461039657005b806306fdde031161027757806306fdde03146102fb578063081812fc1461031d578063095ea7b31461035557005b806301ffc9a7146102985780630582928e146102cd57005b3661029657005b005b3480156102a457600080fd5b506102b86102b3366004614bc4565b6108b1565b60405190151581526020015b60405180910390f35b3480156102d957600080fd5b506102ed6102e8366004614be1565b61094e565b6040519081526020016102c4565b34801561030757600080fd5b5061031061095f565b6040516102c49190614c4a565b34801561032957600080fd5b5061033d610338366004614be1565b6109f1565b6040516001600160a01b0390911681526020016102c4565b34801561036157600080fd5b50610296610370366004614c72565b610a1a565b610388610383366004614c9e565b610a30565b6040516102c4929190614d84565b6103a96103a4366004614db1565b610bd4565b6040516102c49493929190614e1a565b3480156103c557600080fd5b506102ed601981565b3480156103da57600080fd5b506102966103e9366004614e44565b610dbf565b3480156103fa57600080fd5b50610296610409366004614e85565b610e6a565b34801561041a57600080fd5b5061033d7f0000000000000000000000009b52a59f108e36ce0a8eba595eca22dbadbe655f81565b34801561044e57600080fd5b506102ed6101f481565b34801561046457600080fd5b506102ed7f000000000000000000000000000000000000000000000000000000000000000381565b34801561049857600080fd5b506102ed6312cc030081565b3480156104b057600080fd5b506102966104bf366004614e44565b610ed7565b3480156104d057600080fd5b506102ed6104df366004614ea2565b600a60209081526000938452604080852082529284528284209052825290205481565b34801561050e57600080fd5b506102b861051d366004614e85565b7f000000000000000000000000b2b5841dbef766d4b521221732f9b618fcf34a876001600160a01b0390811691161490565b34801561055b57600080fd5b5061033d61056a366004614be1565b610ef7565b34801561057b57600080fd5b506102ed61058a366004614be1565b600b6020526000908152604090205481565b3480156105a857600080fd5b506102ed600581565b3480156105bd57600080fd5b5061033d7f000000000000000000000000000000000022d473030f116ddee9f6b43ac78ba381565b3480156105f157600080fd5b506102ed610600366004614e85565b610f02565b34801561061157600080fd5b50610296610f63565b34801561062657600080fd5b507f000000000000000000000000b2b5841dbef766d4b521221732f9b618fcf34a8761033d565b34801561065957600080fd5b50610388610668366004614ee4565b610f77565b34801561067957600080fd5b506006546001600160a01b031661033d565b34801561069757600080fd5b506103106111f6565b3480156106ac57600080fd5b506106c06106bb366004614be1565b611205565b6040516102c49190614f41565b3480156106d957600080fd5b506102966106e8366004614fa4565b611290565b3480156106f957600080fd5b50610296610708366004614fe2565b6112a2565b34801561071957600080fd5b506102ed61072836600461500e565b6115fc565b34801561073957600080fd5b50610296610748366004615152565b6119e3565b34801561075957600080fd5b506102ed610768366004614be1565b60086020526000908152604090205481565b34801561078657600080fd5b50610310610795366004614be1565b611a02565b3480156107a657600080fd5b506102b86107b5366004614ea2565b600760209081526000938452604080852082529284528284209052825290205460ff1681565b3480156107e757600080fd5b5060095461033d906001600160a01b031681565b34801561080757600080fd5b5061081b610816366004614be1565b611ab9565b6040516102c491906151be565b34801561083457600080fd5b506102b86108433660046151cc565b6001600160a01b03918216600090815260056020908152604080832093909416825291909152205460ff1690565b34801561087d57600080fd5b5061029661088c366004614e85565b611b9f565b34801561089d57600080fd5b506102ed6108ac3660046152a6565b611bf6565b60006001600160e01b031982167f80ac58cd00000000000000000000000000000000000000000000000000000000148061091457506001600160e01b031982167f5b5e139f00000000000000000000000000000000000000000000000000000000145b8061094857507f01ffc9a7000000000000000000000000000000000000000000000000000000006001600160e01b03198316145b92915050565b600061094864e8d4a510008361537d565b60606000805461096e9061539f565b80601f016020809104026020016040519081016040528092919081815260200182805461099a9061539f565b80156109e75780601f106109bc576101008083540402835291602001916109e7565b820191906000526020600020905b8154815290600101906020018083116109ca57829003601f168201915b5050505050905090565b60006109fc82611c02565b506000828152600460205260409020546001600160a01b0316610948565b610a2c8282610a27611c3b565b611c4a565b5050565b6000610a776040805160c08101825260008082526020808301829052828401829052606083018290526080830182905283518085019094528184528301529060a082015290565b610a7f611c3b565b6001600160a01b0316610aa7886000908152600260205260409020546001600160a01b031690565b6001600160a01b031614610b2057610abd611c3b565b6000888152600260205260409020546001600160a01b03165b6040517f635452f40000000000000000000000000000000000000000000000000000000081526001600160a01b039283166004820152911660248201526044015b60405180910390fd5b6000878152600d602052604090208054600160701b90046001600160701b0316861115610b945780546040517fb9c5041700000000000000000000000000000000000000000000000000000000815260048101889052600160701b9091046001600160701b03166024820152604401610b17565b6002810154610bb5906001600160a01b031688610bb0876153e7565b611c57565b9650610bc48882898989611e6b565b92509250505b9550959350505050565b600080610c1c6040805160c08101825260008082526020808301829052828401829052606083018290526080830182905283518085019094528184528301529060a082015290565b610c616040805160c08101825260008082526020808301829052828401829052606083018290526080830182905283518085019094528184528301529060a082015290565b610c69611c3b565b6001600160a01b0316610c918c6000908152600260205260409020546001600160a01b031690565b6001600160a01b031614610cc457610ca7611c3b565b60008c8152600260205260409020546001600160a01b0316610ad6565b87600003610ce55760405163a81d13d560e01b815260040160405180910390fd5b610cf88b610cf28d61094e565b8c612367565b6040805160c08101825282546001600160701b038082168352600160701b90910416602080830191909152600184015464ffffffffff81168385015265010000000000810461ffff166060840152600160381b900463ffffffff166080830152825180840190935260028401546001600160a01b0390811684526003909401549093169282019290925260a08201529094509150610dab610d988561094e565b8a8a610da48b8f615494565b8a8a610f77565b949c909b5091995092975095505050505050565b6001600160a01b038216610de957604051633250574960e11b815260006004820152602401610b17565b6000610dfd8383610df8611c3b565b612646565b9050836001600160a01b0316816001600160a01b031614610e64576040517f64283d7b0000000000000000000000000000000000000000000000000000000081526001600160a01b0380861660048301526024820184905282166044820152606401610b17565b50505050565b610e7261273f565b600980546001600160a01b0319166001600160a01b0383169081179091557fe7784d93cfbfa4408e19577e6cc0436f4dbb51214b70e100905dfce9def88c16610eb9611c3b565b6040516001600160a01b03909116815260200160405180910390a250565b610ef2838383604051806020016040528060008152506119e3565b505050565b600061094882611c02565b60006001600160a01b038216610f47576040517f89c62b6400000000000000000000000000000000000000000000000000000000815260006004820152602401610b17565b506001600160a01b031660009081526003602052604090205490565b610f6b61273f565b610f7560006127b6565b565b6000610fbe6040805160c08101825260008082526020808301829052828401829052606083018290526080830182905283518085019094528184528301529060a082015290565b85600003610fdf5760405163a81d13d560e01b815260040160405180910390fd5b6019831080610fef57506101f483115b15611038576040517fe9521ce400000000000000000000000000000000000000000000000000000000815260048101849052601960248201526101f46044820152606401610b17565b60008881526008602052604081208054611062928b9291611058906154a7565b9182905550612808565b915061107561106f611c3b565b83612824565b6000828152600d60205260409020876002820161109282826154c0565b505060018101805461ffff8616650100000000000266ffffffffffffff1990911664ffffffffff4216171790556110d0846312cc03006101f46128a2565b8160010160076101000a81548163ffffffff021916908363ffffffff16021790555060006110fe888661298f565b905061110e828b8a8a858b61299e565b89847f263a4ba8c3b0e66367115fe7c402b0f8806adb9d0b42e82794c4f6ba5f072a41848c8c8c8c61113e611c3b565b60405161115096959493929190615515565b60405180910390a3506040805160c08101825282546001600160701b038082168352600160701b90910416602080830191909152600184015464ffffffffff81168385015261ffff65010000000000820416606084015263ffffffff600160381b909104166080830152825180840190935260028401546001600160a01b0390811684526003909401549093169282019290925260a08201529050965096945050505050565b60606001805461096e9061539f565b6060600c6000838152602001908152602001600020805480602002602001604051908101604052809291908181526020016000905b82821015611285576000848152602090819020604080518082019091526002850290910180546001600160a01b0390811683526001918201541682840152908352909201910161123a565b505050509050919050565b610a2c61129b611c3b565b8383613389565b6040516331a9108f60e11b8152600481018490526000907f0000000000000000000000009b52a59f108e36ce0a8eba595eca22dbadbe655f6001600160a01b031690636352211e90602401602060405180830381865afa15801561130a573d6000803e3d6000fd5b505050506040513d601f19601f8201168201806040525081019061132e91906155e3565b90506000816001600160a01b031663ee0fc1216040518163ffffffff1660e01b8152600401602060405180830381865afa158015611370573d6000803e3d6000fd5b505050506040513d601f19601f8201168201806040525081019061139491906155e3565b905060005b838110156115f45760006113b6876113b18489615494565b612808565b6000818152600d60209081526040808320815160c08101835281546001600160701b038082168352600160701b9091041681850152600182015464ffffffffff80821683860190815265010000000000830461ffff166060850152600160381b90920463ffffffff166080840152845180860190955260028401546001600160a01b0390811686526003909401549093169484019490945260a081019290925291519394509216900361146a5750506115f4565b6000828152600260205260409020546001600160a01b03168015806114a957506312cc0300826040015164ffffffffff166114a59190615494565b4211155b156114b6575050506115ec565b6114bf83613441565b60208201516001600160701b0316156115385781516001600160701b0316600003611502576114fd8983602001516001600160701b0316838861347c565b611538565b81602001516001600160701b0316600b60008b815260200190815260200160002060008282546115329190615600565b90915550505b81516001600160701b0316156115a657815160008a8152600a6020908152604080832060a0870180518401516001600160a01b0390811686529184528285209051519091168452909152812080546001600160701b03909316929091906115a0908490615600565b90915550505b88837fa9a02a1552fffe2e2be37539ca88700878a330ae3baeda8b398580a02c62c878846115d2611c3b565b6040516115e0929190615613565b60405180910390a35050505b600101611399565b505050505050565b6040516331a9108f60e11b81526004810185905260009081906001600160a01b037f0000000000000000000000009b52a59f108e36ce0a8eba595eca22dbadbe655f1690636352211e90602401602060405180830381865afa158015611666573d6000803e3d6000fd5b505050506040513d601f19601f8201168201806040525081019061168a91906155e3565b90506000816001600160a01b031663ee0fc1216040518163ffffffff1660e01b8152600401602060405180830381865afa1580156116cc573d6000803e3d6000fd5b505050506040513d601f19601f820116820180604052508101906116f091906155e3565b90506119d68787846001600160a01b031663a71dea398b6040518263ffffffff1660e01b815260040161172591815260200190565b602060405180830381865afa158015611742573d6000803e3d6000fd5b505050506040513d601f19601f820116820180604052508101906117669190615638565b8888866001600160a01b031663d4a1b4b16040518163ffffffff1660e01b8152600401602060405180830381865afa1580156117a6573d6000803e3d6000fd5b505050506040513d601f19601f820116820180604052508101906117ca91906155e3565b6001600160a01b03166343a266c28e6040518263ffffffff1660e01b81526004016117f791815260200190565b61012060405180830381865afa158015611815573d6000803e3d6000fd5b505050506040513d601f19601f82011682018060405250810190611839919061567d565b876001600160a01b03166388bc2ef36040518163ffffffff1660e01b8152600401602060405180830381865afa158015611877573d6000803e3d6000fd5b505050506040513d601f19601f8201168201806040525081019061189b91906155e3565b6001600160a01b031663d17541538f6040518263ffffffff1660e01b81526004016118c891815260200190565b600060405180830381865afa1580156118e5573d6000803e3d6000fd5b505050506040513d6000823e601f3d908101601f1916820160405261190d919081019061572e565b886001600160a01b0316631eabcd346040518163ffffffff1660e01b8152600401602060405180830381865afa15801561194b573d6000803e3d6000fd5b505050506040513d601f19601f8201168201806040525081019061196f91906155e3565b896001600160a01b0316631d831d5c6040518163ffffffff1660e01b8152600401602060405180830381865afa1580156119ad573d6000803e3d6000fd5b505050506040513d601f19601f820116820180604052508101906119d191906155e3565b613574565b925050505b949350505050565b6119ee848484610dbf565b610e646119f9611c3b565b858585856136ba565b6009546060906001600160a01b031680611a2c575050604080516020810190915260008152919050565b6040517fda0544aa000000000000000000000000000000000000000000000000000000008152600481018490526001600160a01b0382169063da0544aa90602401600060405180830381865afa158015611a8a573d6000803e3d6000fd5b505050506040513d6000823e601f3d908101601f19168201604052611ab291908101906157e0565b9392505050565b611afe6040805160c08101825260008082526020808301829052828401829052606083018290526080830182905283518085019094528184528301529060a082015290565b506000908152600d6020908152604091829020825160c08101845281546001600160701b038082168352600160701b9091041681840152600182015464ffffffffff81168286015265010000000000810461ffff166060830152600160381b900463ffffffff166080820152835180850190945260028201546001600160a01b0390811685526003909201549091169183019190915260a081019190915290565b611ba761273f565b6001600160a01b038116611bea576040517f1e4fbdf700000000000000000000000000000000000000000000000000000000815260006004820152602401610b17565b611bf3816127b6565b50565b6000611ab283836137dc565b6000818152600260205260408120546001600160a01b03168061094857604051637e27328960e01b815260048101849052602401610b17565b6000611c456138e3565b905090565b610ef28383836001613958565b600061eeed196001600160a01b03851601611c73575034611ab2565b3415611cab576040517f52b1133c00000000000000000000000000000000000000000000000000000000815260040160405180910390fd5b60208201516001600160a01b031615611e2e578282602001516001600160a01b03161015611d1d5760208201516040517fd70aca8c0000000000000000000000000000000000000000000000000000000081526001600160a01b03909116600482015260248101849052604401610b17565b6040805160e0810182526001600160a01b038087166060808401918252602087810151841660808601528786015165ffffffffffff90811660a08701529188015190911660c08501529083523090830152845192820192909252907f000000000000000000000000000000000022d473030f116ddee9f6b43ac78ba316632b67b570611da7611c3b565b8386608001516040518463ffffffff1660e01b8152600401611dcb9392919061584e565b600060405180830381600087803b158015611de557600080fd5b505af1925050508015611df6575060015b611e2c573d808015611e24576040519150601f19603f3d011682016040523d82523d6000602084013e611e29565b606091505b50505b505b6000611e3985613a96565b9050611e4e611e46611c3b565b308787613b37565b80611e5886613a96565b611e629190615600565b95945050505050565b6000611eb26040805160c08101825260008082526020808301829052828401829052606083018290526080830182905283518085019094528184528301529060a082015290565b6040805160c08101825287546001600160701b038082168352600160701b90910416602080830191909152600189015464ffffffffff81168385015265010000000000810461ffff166060840152600160381b900463ffffffff166080830152825180840190935260028901546001600160a01b03908116845260038a0154169083015260a0810191909152600090611f4b90876137dc565b8754909150611f649082906001600160701b0316615494565b861115611fc457611fac30611f77611c3b565b60028a01548a546001600160a01b03909116906001600160701b0316611f9d868c615600565b611fa79190615600565b613b37565b8654611fc1906001600160701b031682615494565b95505b6000611fcf8961094e565b9050611fda89613441565b87546001600160701b0316611fef8389615600565b14801561200c57508754600160701b90046001600160701b031686145b15612105576120208882600080868a61299e565b88818a7f2abbaa875cdd67bcfc3aa06c600ea08ad0e0ce09ad011964de2e1d3474ef2cdd8b8c8c888d8d612052611c3b565b60405161206597969594939291906158c3565b60405180910390a450506040805160c08101825287546001600160701b038082168352600160701b90910416602080830191909152600189015464ffffffffff81168385015265010000000000810461ffff166060840152600160381b900463ffffffff166080830152825180840190935260028901546001600160a01b03908116845260038a0154169083015260a08101919091528792509050610bca565b600081815260086020526040812080546121269184918490611058906154a7565b9050612139612133611c3b565b82612824565b6000818152600d60205260409020895481546001600160701b039182166dffffffffffffffffffffffffffff198216811784558c546001600160e01b031990921617600160701b91829004909216021781556001808b018054918301805464ffffffffff90931664ffffffffff19841681178255825466ffffffffffffff1990941617650100000000009384900461ffff169093029290921780835590546affffffff0000000000000019909116600160381b9182900463ffffffff169091021790556002808b015490820180546001600160a01b039283166001600160a01b0319918216179091556003808d0154908401805491909316911617905561227e8184612245878d615600565b845461225a91906001600160701b0316615600565b8454612277908d90600160701b90046001600160701b0316615600565b888c61299e565b81838c7f2abbaa875cdd67bcfc3aa06c600ea08ad0e0ce09ad011964de2e1d3474ef2cdd8d858e8a8f8f6122b0611c3b565b6040516122c397969594939291906158c3565b60405180910390a46040805160c08101825282546001600160701b038082168352600160701b90910416602080830191909152600184015464ffffffffff81168385015265010000000000810461ffff166060840152600160381b900463ffffffff166080830152825180840190935260028401546001600160a01b0390811684526003909401549093169282019290925260a08201529094509250610bca915050565b60008061237385613441565b6000858152600d602052604090208054600160701b90046001600160701b03168411156123b35760405163c459ec8360e01b815260040160405180910390fd5b8054600160701b90046001600160701b0316841480156123dc575080546001600160701b031615155b15612413576040517f6c82b1c500000000000000000000000000000000000000000000000000000000815260040160405180910390fd5b6000858152600860205260408120805461243392889291611058906154a7565b9250612446612440611c3b565b84612824565b6000838152600d60205260409020815481546001600160701b039182166dffffffffffffffffffffffffffff1982168117845584546001600160e01b031990921617600160701b91829004831682021780845560018086018054918601805464ffffffffff90931664ffffffffff19841681178255825466ffffffffffffff1990941617650100000000009384900461ffff169093029290921780835590546affffffff0000000000000019909116600160381b9182900463ffffffff1690910217905560028086015490850180546001600160a01b039283166001600160a01b0319918216179091556003808801549087018054919093169116179055929450612571928592899282821692612562928b9290910416615600565b600061256c611c3b565b61299e565b8285877ff7760699f4b6789f9aadcc03b7c806b5c7d2d481f0f4b378cce2dbdd592e3feb858861259f611c3b565b6040516126359392919083546001600160701b03808216835260709190911c166020820152600184015464ffffffffff81166040830152602881901c61ffff16606083015260381c63ffffffff16608082015260028401546001600160a01b0390811660a083015260038501541660c082015261012081018360e08301526001600160a01b038316610100830152949350505050565b60405180910390a450935093915050565b6000828152600260205260408120546001600160a01b039081169083161561267357612673818486613d0d565b6001600160a01b038116156126b157612690600085600080613958565b6001600160a01b038116600090815260036020526040902080546000190190555b6001600160a01b038516156126e0576001600160a01b0385166000908152600360205260409020805460010190555b60008481526002602052604080822080546001600160a01b0319166001600160a01b0389811691821790925591518793918516917fddf252ad1be2c89b69c2b068fc378daa952ba7f163c4a11628f55a4df523b3ef91a4949350505050565b612747611c3b565b6001600160a01b03166127626006546001600160a01b031690565b6001600160a01b031614610f7557612778611c3b565b6040517f118cdaa70000000000000000000000000000000000000000000000000000000081526001600160a01b039091166004820152602401610b17565b600680546001600160a01b038381166001600160a01b0319831681179093556040519116919082907f8be0079c531659141344cd1fd0a4f28419497f9722a3daafe3b4186f6b6457e090600090a35050565b60008161281a64e8d4a51000856159dd565b611ab29190615494565b6001600160a01b03821661284e57604051633250574960e11b815260006004820152602401610b17565b600061285c83836000612646565b90506001600160a01b03811615610ef2576040517f73c6ac6e00000000000000000000000000000000000000000000000000000000815260006004820152602401610b17565b60008080600019858709858702925082811083820303915050806000036128dc578382816128d2576128d2615351565b0492505050611ab2565b838110612926576040517f63a05778000000000000000000000000000000000000000000000000000000008152600481018790526024810186905260448101859052606401610b17565b60008486880960026001871981018816978890046003810283188082028403028082028403028082028403028082028403028082028403029081029092039091026000889003889004909101858311909403939093029303949094049190911702949350505050565b6000611ab283836103e86128a2565b6040516331a9108f60e11b8152600481018690526000907f0000000000000000000000009b52a59f108e36ce0a8eba595eca22dbadbe655f6001600160a01b031690636352211e90602401602060405180830381865afa158015612a06573d6000803e3d6000fd5b505050506040513d601f19601f82011682018060405250810190612a2a91906155e3565b90506000816001600160a01b031663ee0fc1216040518163ffffffff1660e01b8152600401602060405180830381865afa158015612a6c573d6000803e3d6000fd5b505050506040513d601f19601f82011682018060405250810190612a9091906155e3565b90506000816001600160a01b03166388bc2ef36040518163ffffffff1660e01b8152600401602060405180830381865afa158015612ad2573d6000803e3d6000fd5b505050506040513d601f19601f82011682018060405250810190612af691906155e3565b60038a015460028b0154604051633a01714f60e01b8152600481018c90526001600160a01b039182166024820152929350600092911690633a01714f90604401606060405180830381865afa158015612b53573d6000803e3d6000fd5b505050506040513d601f19601f82011682018060405250810190612b7791906159f4565b6040517fa71dea39000000000000000000000000000000000000000000000000000000008152600481018b90529091506000906001600160a01b0386169063a71dea3990602401602060405180830381865afa158015612bdb573d6000803e3d6000fd5b505050506040513d601f19601f82011682018060405250810190612bff9190615638565b90506000846001600160a01b031663d4a1b4b16040518163ffffffff1660e01b8152600401602060405180830381865afa158015612c41573d6000803e3d6000fd5b505050506040513d601f19601f82011682018060405250810190612c6591906155e3565b6001600160a01b03166343a266c28c6040518263ffffffff1660e01b8152600401612c9291815260200190565b61012060405180830381865afa158015612cb0573d6000803e3d6000fd5b505050506040513d601f19601f82011682018060405250810190612cd4919061567d565b6040517fd1754153000000000000000000000000000000000000000000000000000000008152600481018d90529091506000906001600160a01b0386169063d175415390602401600060405180830381865afa158015612d38573d6000803e3d6000fd5b505050506040513d6000823e601f3d908101601f19168201604052612d60919081019061572e565b8d549091506001600160701b03168b1180612d8c57508c54600160701b90046001600160701b03168a14155b8015612e5157508a612e4f8d8c86886020015160ff16896040015163ffffffff1688888e6001600160a01b0316631eabcd346040518163ffffffff1660e01b8152600401602060405180830381865afa158015612ded573d6000803e3d6000fd5b505050506040513d601f19601f82011682018060405250810190612e1191906155e3565b8f6001600160a01b0316631d831d5c6040518163ffffffff1660e01b8152600401602060405180830381865afa1580156119ad573d6000803e3d6000fd5b105b15612e6f5760405163c459ec8360e01b815260040160405180910390fd5b50508a546001600160701b031689111591506130c390505760028901546040517f862026500000000000000000000000000000000000000000000000000000000081527f000000000000000000000000000000000000000000000000000000000000000360048201526001600160a01b039182166024820152600091831690638620265090604401602060405180830381865afa158015612f14573d6000803e3d6000fd5b505050506040513d601f19601f82011682018060405250810190612f3891906155e3565b90506130bd8a6040518060c00160405290816000820160009054906101000a90046001600160701b03166001600160701b03166001600160701b0316815260200160008201600e9054906101000a90046001600160701b03166001600160701b03166001600160701b031681526020016001820160009054906101000a900464ffffffffff1664ffffffffff1664ffffffffff1681526020016001820160059054906101000a900461ffff1661ffff1661ffff1681526020016001820160079054906101000a900463ffffffff1663ffffffff1663ffffffff168152602001600282016040518060400160405290816000820160009054906101000a90046001600160a01b03166001600160a01b03166001600160a01b031681526020016001820160009054906101000a90046001600160a01b03166001600160a01b03166001600160a01b031681525050815250508a8c60000160009054906101000a90046001600160701b03166001600160701b03168b6130b59190615600565b89858a613d8a565b50613178565b88546001600160701b0316871015613178576040805160c0810182528a546001600160701b03808216808452600160701b9092041660208084019190915260018d015464ffffffffff81168486015265010000000000810461ffff166060850152600160381b900463ffffffff166080840152835180850190945260028d01546001600160a01b03908116855260038e0154169084015260a0820192909252613178918a90613173908b90615600565b61418b565b8854600160701b90046001600160701b03168611156131be5788546131b99089906131b390600160701b90046001600160701b031689615600565b846142e1565b613201565b8854600160701b90046001600160701b03168610156132015788546132019089906131fa908990600160701b90046001600160701b0316615600565b868561347c565b600289015460009061321b906001600160a01b0316613a96565b905080156133525760038a015460028b0154600091613247916001600160a01b039182169116846143bb565b60038c015460028d01546040519293506001600160a01b039182169263fef432579285928f9291169087908c906000906132a9907f00000000000000000000000000000000000000000000000000000000000000039060200190815260200190565b6040516020818303038152906040526040518863ffffffff1660e01b81526004016132d996959493929190615a6c565b60206040518083038185885af193505050508015613314575060408051601f3d908101601f1916820190925261331191810190615638565b60015b61334e573d808015613342576040519150601f19603f3d011682016040523d82523d6000602084013e613347565b606091505b5050613350565b505b505b505087546001600160701b03958616600160701b026001600160e01b03199091169590961694909417949094179095555050505050565b6001600160a01b0382166133d4576040517f5b08ba180000000000000000000000000000000000000000000000000000000081526001600160a01b0383166004820152602401610b17565b6001600160a01b03838116600081815260056020908152604080832094871680845294825291829020805460ff191686151590811790915591519182527f17307eab39ab6107e8899845ad3d59bd9653f200f220920489ca2b5937696c31910160405180910390a3505050565b60006134506000836000612646565b90506001600160a01b038116610a2c57604051637e27328960e01b815260048101839052602401610b17565b6000848152600b60205260408120805485929061349a908490615600565b90915550506040517fc7fb92de00000000000000000000000000000000000000000000000000000000815260048101859052602481018490526001600160a01b03838116604483015260a06064830152601d60a48301527f52656d6f76696e6720636f6c6c61746572616c2066726f6d206c6f616e00000060c48301526000608483015282169063c7fb92de9060e4016020604051808303816000875af1158015613549573d6000803e3d6000fd5b505050506040513d601f19601f8201168201806040525081019061356d9190615638565b5050505050565b6040805160008082526020820190925281906135c9908c908790846135c1565b60408051606081018252600080825260208083018290529282015282526000199092019101816135945790505b508b8b6143f5565b905060006135d98c8a8a886144af565b6040517f75b0d9cd000000000000000000000000000000000000000000000000000000008152600481018e90529091506000906001600160a01b038616906375b0d9cd90602401602060405180830381865afa15801561363d573d6000803e3d6000fd5b505050506040513d601f19601f820116820180604052508101906136619190615638565b60008e8152600b60205260409020549091506136a86136808486615494565b8e8e61368c8587615494565b6136969190615494565b6101008d015160141c61ffff1661471b565b9e9d5050505050505050505050505050565b6001600160a01b0383163b1561356d57604051630a85bd0160e11b81526001600160a01b0384169063150b7a02906136fc908890889087908790600401615aed565b6020604051808303816000875af1925050508015613737575060408051601f3d908101601f1916820190925261373491810190615b1f565b60015b6137a0573d808015613765576040519150601f19603f3d011682016040523d82523d6000602084013e61376a565b606091505b50805160000361379857604051633250574960e11b81526001600160a01b0385166004820152602401610b17565b805181602001fd5b6001600160e01b03198116630a85bd0160e11b146115f457604051633250574960e11b81526001600160a01b0385166004820152602401610b17565b600080836040015164ffffffffff16426137f69190615600565b9050836080015163ffffffff168111156138dc576312cc0300811115613855576040517f045be491000000000000000000000000000000000000000000000000000000008152600481018290526312cc03006024820152604401610b17565b600061387685600001516001600160701b0316866060015161ffff1661298f565b905060006138ac8287600001516001600160701b03166138969190615600565b6138a7856103e86312cc03006128a2565b61298f565b905060008187600001516001600160701b03166138c99190615494565b90506138d68287836128a2565b94505050505b5092915050565b6000366014336001600160a01b037f000000000000000000000000b2b5841dbef766d4b521221732f9b618fcf34a87161480156139205750808210155b15613950576000366139328385615600565b61393d928290615b3c565b61394691615b66565b60601c9250505090565b339250505090565b808061396c57506001600160a01b03821615155b15613a6657600061397c84611c02565b90506001600160a01b038316158015906139a85750826001600160a01b0316816001600160a01b031614155b80156139da57506001600160a01b0380821660009081526005602090815260408083209387168352929052205460ff16155b15613a1c576040517fa9fbf51f0000000000000000000000000000000000000000000000000000000081526001600160a01b0384166004820152602401610b17565b8115613a645783856001600160a01b0316826001600160a01b03167f8c5be1e5ebec7d5bd14f71427d1e84f3dd0314c0f7b2291e5b200ac8c7c3b92560405160405180910390a45b505b5050600090815260046020526040902080546001600160a01b0319166001600160a01b0392909216919091179055565b60006001600160a01b03821661eeee14613b30576040517f70a082310000000000000000000000000000000000000000000000000000000081523060048201526001600160a01b038316906370a0823190602401602060405180830381865afa158015613b07573d6000803e3d6000fd5b505050506040513d601f19601f82011682018060405250810190613b2b9190615638565b610948565b4792915050565b306001600160a01b03851603613b7d5761eeed196001600160a01b03831601613b6957613b648382614792565b610e64565b613b646001600160a01b0383168483614862565b604051636eb1769f60e11b81526001600160a01b03858116600483015230602483015282919084169063dd62ed3e90604401602060405180830381865afa158015613bcc573d6000803e3d6000fd5b505050506040513d601f19601f82011682018060405250810190613bf09190615638565b10613c0a57613b646001600160a01b0383168585846148d6565b6001600160a01b03811115613c5b576040517f34593039000000000000000000000000000000000000000000000000000000008152600481018290526001600160a01b036024820152604401610b17565b6040517f36c785160000000000000000000000000000000000000000000000000000000081526001600160a01b0385811660048301528481166024830152828116604483015283811660648301527f000000000000000000000000000000000022d473030f116ddee9f6b43ac78ba316906336c7851690608401600060405180830381600087803b158015613cef57600080fd5b505af1158015613d03573d6000803e3d6000fd5b5050505050505050565b613d1883838361490f565b610ef2576001600160a01b038316613d4657604051637e27328960e01b815260048101829052602401610b17565b6040517f177e802f0000000000000000000000000000000000000000000000000000000081526001600160a01b038316600482015260248101829052604401610b17565b600085815260076020908152604080832060a08a0180518401516001600160a01b039081168652918452828520905151909116845290915290205460ff16613e7757600085815260076020908152604080832060a08a0180518401516001600160a01b039081168652918452828520815151831686528452828520805460ff191660019081179091558a8652600c85528386208451808601909552825151841685529151850151831684860190815282548083018455928752949095209251600290910290920180549282166001600160a01b031993841617815592519290930180549290931691161790555b6000858152600a6020908152604080832060a08a0180518401516001600160a01b039081168652918452828520905151909116845290915281208054869290613ec1908490615494565b909155505060a086015160208101519051604051633a01714f60e01b81526000926001600160a01b031691633a01714f91613f12918a916004019182526001600160a01b0316602082015260400190565b606060405180830381865afa158015613f2f573d6000803e3d6000fd5b505050506040513d601f19601f82011682018060405250810190613f5391906159f4565b60a08801516020810151905160408381015190517f748e821c000000000000000000000000000000000000000000000000000000008152600481018b90526001600160a01b039283166024820152604481018a905263ffffffff9091166064820152600060848201523060a482015285821660c482015261010060e482015260196101048201527f4c656e64696e67206f757420746f206120626f72726f77657200000000000000610124820152929350169063748e821c90610144016020604051808303816000875af115801561402f573d6000803e3d6000fd5b505050506040513d601f19601f820116820180604052508101906140539190615638565b5050600061406285600561298f565b90506000614079848960a0015160000151846143bb565b9050836001600160a01b031663fef43257827f00000000000000000000000000000000000000000000000000000000000000038b60a0015160000151868860008e6040516020016140cc91815260200190565b6040516020818303038152906040526040518863ffffffff1660e01b81526004016140fc96959493929190615a6c565b60206040518083038185885af193505050508015614137575060408051601f3d908101601f1916820190925261413491810190615638565b60015b614171573d808015614165576040519150601f19603f3d011682016040523d82523d6000602084013e61416a565b606091505b5050614173565b505b60a088015151613d03903090859088611f9d82613a96565b6000828152600a6020908152604080832060a0870180518401516001600160a01b0390811686529184528285209051519091168452909152812080548392906141d5908490615600565b909155505060a0830151602081015190516000916141f391846143bb565b90508360a00151602001516001600160a01b0316639e6eec0582858760a00151600001518660007f000000000000000000000000000000000000000000000000000000000000000360405160200161424d91815260200190565b6040516020818303038152906040526040518763ffffffff1660e01b815260040161427c959493929190615b9b565b6000604051808303818588803b15801561429557600080fd5b505af1935050505080156142a7575060015b610e64573d8080156142d5576040519150601f19603f3d011682016040523d82523d6000602084013e6142da565b606091505b5050610e64565b6000838152600b6020526040812080548492906142ff908490615494565b90915550506001600160a01b03811663a2d532e661431b611c3b565b6040516001600160e01b031960e084901b1681526001600160a01b039091166004820152602481018690526044810185905260806064820152601960848201527f416464696e6720636f6c6c61746572616c20746f206c6f616e0000000000000060a482015260c401600060405180830381600087803b15801561439e57600080fd5b505af11580156143b2573d6000803e3d6000fd5b50505050505050565b600061eeed196001600160a01b038416016143d7575080611ab2565b6143eb6001600160a01b0384168584614992565b5060009392505050565b8351600090815b818110156144a45786818151811061441657614416615c06565b60200260200101516001600160a01b031663edb40950898888886040518563ffffffff1660e01b815260040161444f9493929190615c1c565b602060405180830381865afa15801561446c573d6000803e3d6000fd5b505050506040513d601f19601f820116820180604052508101906144909190615638565b61449a9084615494565b92506001016143fc565b505095945050505050565b6000848152600c6020908152604080832080548251818502810185019093528083528493849084015b82821015614523576000848152602090819020604080518082019091526002850290910180546001600160a01b039081168352600191820154168284015290835290920191016144d8565b50505050905060005b815181101561471157600082828151811061454957614549615c06565b60200260200101519050600081602001516001600160a01b0316633a01714f8a84600001516040518363ffffffff1660e01b815260040161459d9291909182526001600160a01b0316602082015260400190565b606060405180830381865afa1580156145ba573d6000803e3d6000fd5b505050506040513d601f19601f820116820180604052508101906145de91906159f4565b9050600087826040015163ffffffff161461469a5760408281015190517f3be273fa000000000000000000000000000000000000000000000000000000008152600481018c905263ffffffff909116602482015260448101899052606481018a90526001600160a01b03881690633be273fa90608401602060405180830381865afa158015614671573d6000803e3d6000fd5b505050506040513d601f19601f820116820180604052508101906146959190615638565b6146a5565b6146a589600a615d82565b60008b8152600a60208181526040808420888301516001600160a01b03908116865290835281852089519091168552909152909120549192506146f59082906146ef908d90615d82565b846128a2565b6146ff9088615494565b9650506001909301925061452c915050565b5050949350505050565b600061270f19820161472f575060006119db565b82841061473d5750836119db565b600061474a8686866128a2565b90508260000361475b5790506119db565b6147888161476a8588886128a2565b61477686612710615600565b6147809190615494565b6127106128a2565b9695505050505050565b804710156147d5576040517fcf47918100000000000000000000000000000000000000000000000000000000815247600482015260248101829052604401610b17565b6000826001600160a01b03168260405160006040518083038185875af1925050503d8060008114614822576040519150601f19603f3d011682016040523d82523d6000602084013e614827565b606091505b5050905080610ef2576040517fd6bda27500000000000000000000000000000000000000000000000000000000815260040160405180910390fd5b6040516001600160a01b03838116602483015260448201839052610ef291859182169063a9059cbb906064015b604051602081830303815290604052915060e01b6020820180517bffffffffffffffffffffffffffffffffffffffffffffffffffffffff8381831617835250505050614a1c565b6040516001600160a01b038481166024830152838116604483015260648201839052610e649186918216906323b872dd9060840161488f565b60006001600160a01b038316158015906119db5750826001600160a01b0316846001600160a01b0316148061496957506001600160a01b0380851660009081526005602090815260408083209387168352929052205460ff165b806119db5750506000908152600460205260409020546001600160a01b03908116911614919050565b604051636eb1769f60e11b81523060048201526001600160a01b0383811660248301526000919085169063dd62ed3e90604401602060405180830381865afa1580156149e2573d6000803e3d6000fd5b505050506040513d601f19601f82011682018060405250810190614a069190615638565b9050610e648484614a178585615494565b614aa6565b600080602060008451602086016000885af180614a3f576040513d6000823e3d81fd5b50506000513d91508115614a57578060011415614a64565b6001600160a01b0384163b155b15610e64576040517f5274afe70000000000000000000000000000000000000000000000000000000081526001600160a01b0385166004820152602401610b17565b604080516001600160a01b038416602482015260448082018490528251808303909101815260649091019091526020810180517bffffffffffffffffffffffffffffffffffffffffffffffffffffffff167f095ea7b300000000000000000000000000000000000000000000000000000000179052614b258482614b64565b610e64576040516001600160a01b03848116602483015260006044830152614b5a91869182169063095ea7b39060640161488f565b610e648482614a1c565b6000806000806020600086516020880160008a5af192503d9150600051905082801561478857508115614b9a5780600114614788565b50505050506001600160a01b03163b151590565b6001600160e01b031981168114611bf357600080fd5b600060208284031215614bd657600080fd5b8135611ab281614bae565b600060208284031215614bf357600080fd5b5035919050565b60005b83811015614c15578181015183820152602001614bfd565b50506000910152565b60008151808452614c36816020860160208601614bfa565b601f01601f19169290920160200192915050565b602081526000611ab26020830184614c1e565b6001600160a01b0381168114611bf357600080fd5b60008060408385031215614c8557600080fd5b8235614c9081614c5d565b946020939093013593505050565b600080600080600060a08688031215614cb657600080fd5b8535945060208601359350604086013592506060860135614cd681614c5d565b9150608086013567ffffffffffffffff811115614cf257600080fd5b860160a08189031215614d0457600080fd5b809150509295509295909350565b6001600160701b038082511683528060208301511660208401525064ffffffffff604082015116604083015261ffff606082015116606083015263ffffffff608082015116608083015260a0810151610ef260a084018280516001600160a01b03908116835260209182015116910152565b8281526101008101611ab26020830184614d12565b600060408284031215614dab57600080fd5b50919050565b6000806000806000806000610100888a031215614dcd57600080fd5b8735965060208801359550614de58960408a01614d99565b94506080880135935060a0880135925060c0880135614e0381614c5d565b8092505060e0880135905092959891949750929550565b848152602081018490526102008101614e366040830185614d12565b611e62610120830184614d12565b600080600060608486031215614e5957600080fd5b8335614e6481614c5d565b92506020840135614e7481614c5d565b929592945050506040919091013590565b600060208284031215614e9757600080fd5b8135611ab281614c5d565b600080600060608486031215614eb757600080fd5b833592506020840135614ec981614c5d565b91506040840135614ed981614c5d565b809150509250925092565b60008060008060008060e08789031215614efd57600080fd5b86359550614f0e8860208901614d99565b9450606087013593506080870135925060a0870135614f2c81614c5d565b8092505060c087013590509295509295509295565b602080825282518282018190526000919060409081850190868401855b82811015614f9757614f8784835180516001600160a01b03908116835260209182015116910152565b9284019290850190600101614f5e565b5091979650505050505050565b60008060408385031215614fb757600080fd5b8235614fc281614c5d565b915060208301358015158114614fd757600080fd5b809150509250929050565b600080600060608486031215614ff757600080fd5b505081359360208301359350604090920135919050565b6000806000806080858703121561502457600080fd5b5050823594602084013594506040840135936060013592509050565b634e487b7160e01b600052604160045260246000fd5b60405160c0810167ffffffffffffffff8111828210171561507957615079615040565b60405290565b604051610120810167ffffffffffffffff8111828210171561507957615079615040565b604051601f8201601f1916810167ffffffffffffffff811182821017156150cc576150cc615040565b604052919050565b600067ffffffffffffffff8211156150ee576150ee615040565b50601f01601f191660200190565b600082601f83011261510d57600080fd5b813561512061511b826150d4565b6150a3565b81815284602083860101111561513557600080fd5b816020850160208301376000918101602001919091529392505050565b6000806000806080858703121561516857600080fd5b843561517381614c5d565b9350602085013561518381614c5d565b925060408501359150606085013567ffffffffffffffff8111156151a657600080fd5b6151b2878288016150fc565b91505092959194509250565b60e081016109488284614d12565b600080604083850312156151df57600080fd5b82356151ea81614c5d565b91506020830135614fd781614c5d565b6001600160701b0381168114611bf357600080fd5b803561ffff8116811461522157600080fd5b919050565b63ffffffff81168114611bf357600080fd5b803561522181615226565b60006040828403121561525557600080fd5b6040516040810181811067ffffffffffffffff8211171561527857615278615040565b604052905080823561528981614c5d565b8152602083013561529981614c5d565b6020919091015292915050565b6000808284036101008112156152bb57600080fd5b60e08112156152c957600080fd5b506152d2615056565b83356152dd816151fa565b815260208401356152ed816151fa565b6020820152604084013564ffffffffff8116811461530a57600080fd5b604082015261531b6060850161520f565b606082015261532c60808501615238565b608082015261533e8560a08601615243565b60a08201529460e0939093013593505050565b634e487b7160e01b600052601260045260246000fd5b634e487b7160e01b600052601160045260246000fd5b60008261539a57634e487b7160e01b600052601260045260246000fd5b500490565b600181811c908216806153b357607f821691505b602082108103614dab57634e487b7160e01b600052602260045260246000fd5b65ffffffffffff81168114611bf357600080fd5b600060a082360312156153f957600080fd5b60405160a0810167ffffffffffffffff828210818311171561541d5761541d615040565b81604052843583526020850135915061543582614c5d565b8160208401526040850135915061544b826153d3565b81604084015260608501359150615461826153d3565b816060840152608085013591508082111561547b57600080fd5b50615488368286016150fc565b60808301525092915050565b8082018082111561094857610948615367565b6000600182016154b9576154b9615367565b5060010190565b81356154cb81614c5d565b81546001600160a01b0319166001600160a01b0382161782555060208201356154f381614c5d565b6001820180546001600160a01b0319166001600160a01b038316179055505050565b86546001600160701b03808216835260709190911c166020820152600187015464ffffffffff81166040830152602881901c61ffff16606083015260381c63ffffffff16608082015260028701546001600160a01b0390811660a083015260038801541660c08201526101a08101863561558e81614c5d565b6001600160a01b0390811660e08401526020880135906155ad82614c5d565b80821661010085015287610120850152866101408501528086166101608501528085166101808501525050979650505050505050565b6000602082840312156155f557600080fd5b8151611ab281614c5d565b8181038181111561094857610948615367565b61010081016156228285614d12565b6001600160a01b03831660e08301529392505050565b60006020828403121561564a57600080fd5b5051919050565b8051615221816153d3565b805161522181615226565b8051615221816151fa565b805161522181614c5d565b6000610120828403121561569057600080fd5b61569861507f565b6156a183615651565b81526156af60208401615651565b60208201526156c060408401615651565b60408201526156d160608401615651565b60608201526156e26080840161565c565b60808201526156f360a08401615667565b60a082015261570460c0840161565c565b60c082015261571560e08401615672565b60e0820152610100928301519281019290925250919050565b6000602080838503121561574157600080fd5b825167ffffffffffffffff8082111561575957600080fd5b818501915085601f83011261576d57600080fd5b81518181111561577f5761577f615040565b8060051b91506157908483016150a3565b81815291830184019184810190888411156157aa57600080fd5b938501935b838510156157d457845192506157c483614c5d565b82825293850193908501906157af565b98975050505050505050565b6000602082840312156157f257600080fd5b815167ffffffffffffffff81111561580957600080fd5b8201601f8101841361581a57600080fd5b805161582861511b826150d4565b81815285602083850101111561583d57600080fd5b611e62826020830160208601614bfa565b60006101006001600160a01b0380871684528551818151166020860152816020820151166040860152604081015165ffffffffffff80821660608801528060608401511660808801525050508060208701511660a085015250604085015160c08401528060e084015261478881840185614c1e565b87546001600160701b03808216835260709190911c166020820152600188015464ffffffffff81166040830152602881901c61ffff16606083015260381c63ffffffff16608082015260028801546001600160a01b0390811660a083015260038901541660c0820152610260810187546001600160701b0380821660e085015260709190911c16610100830152600188015464ffffffffff8116610120840152602881901c61ffff1661014084015260381c63ffffffff1661016083015260028801546001600160a01b039081166101808401526003890154166101a08301526101c08201969096526101e08101949094526102008401929092526001600160a01b03908116610220840152166102409091015292915050565b808202811582820484141761094857610948615367565b600060608284031215615a0657600080fd5b6040516060810181811067ffffffffffffffff82111715615a2957615a29615040565b6040528251615a3781614c5d565b8152602083015160ff81168114615a4d57600080fd5b60208201526040830151615a6081615226565b60408201529392505050565b86815260006001600160a01b03808816602084015286604084015280861660608401525083608083015260e060a0830152600d60e08301527f4665652066726f6d206c6f616e000000000000000000000000000000000000006101008301526101208060c0840152615ae081840185614c1e565b9998505050505050505050565b60006001600160a01b038087168352808616602084015250836040830152608060608301526147886080830184614c1e565b600060208284031215615b3157600080fd5b8151611ab281614bae565b60008085851115615b4c57600080fd5b83861115615b5957600080fd5b5050820193919092039150565b6bffffffffffffffffffffffff198135818116916014851015615b935780818660140360031b1b83161692505b505092915050565b8581526001600160a01b0385166020820152836040820152821515606082015260c06080820152600f60c08201527f506179696e67206f6666206c6f616e000000000000000000000000000000000060e082015260006101008060a08401526157d481840185614c1e565b634e487b7160e01b600052603260045260246000fd5b60006080820186835260206080602085015281875180845260a08601915060208901935060005b81811015615c8757845180516001600160a01b031684528481015160ff168585015260409081015163ffffffff169084015293830193606090920191600101615c43565b505060408501969096525050506060015292915050565b600181815b80851115615cd9578160001904821115615cbf57615cbf615367565b80851615615ccc57918102915b93841c9390800290615ca3565b509250929050565b600082615cf057506001610948565b81615cfd57506000610948565b8160018114615d135760028114615d1d57615d39565b6001915050610948565b60ff841115615d2e57615d2e615367565b50506001821b610948565b5060208310610133831016604e8410600b8410161715615d5c575081810a610948565b615d668383615c9e565b8060001904821115615d7a57615d7a615367565b029392505050565b6000611ab28383615ce156fea26469706673582212209c95d926428f228b0225b96f8761827a08b2136a01c634c11ccb6abe6e5db00564736f6c63430008170033",
	"devdoc": {
		"kind": "dev",
		"methods": {
			"approve(address,uint256)": {
				"details": "See {IERC721-approve}."
			},
			"balanceOf(address)": {
				"details": "See {IERC721-balanceOf}."
			},
			"borrowFrom(uint256,(address,address),uint256,uint256,address,uint256)": {
				"params": {
					"beneficiary": "The address that'll receive the borrowed funds and the tokens resulting from fee payments.",
					"borrowAmount": "The amount being borrowed, denominated in the currency of the source's accounting context.",
					"collateralAmount": "The amount of tokens to use as collateral for the loan.",
					"prepaidFeePercent": "The fee percent that will be charged upfront from the revnet being borrowed from. Prepaying a fee is cheaper than paying later.",
					"revnetId": "The ID of the revnet being borrowed from.",
					"source": "The source of the loan being borrowed."
				},
				"returns": {
					"_1": "loan The loan created from borrowing.",
					"loanId": "The ID of the loan created from borrowing."
				}
			},
			"borrowableAmountFrom(uint256,uint256,uint256,uint256)": {
				"params": {
					"collateralAmount": "The amount of collateral used to secure the loan.",
					"currency": "The currency that the resulting amount should be in terms of.",
					"decimals": "The decimals the resulting fixed point value will include.",
					"revnetId": "The ID of the revnet to check for borrowable assets from."
				},
				"returns": {
					"_0": "borrowableAmount The amount that can be borrowed from the revnet."
				}
			},
			"constructor": {
				"params": {
					"owner": "The owner of the contract that can set the URI resolver.",
					"permit2": "A permit2 utility.",
					"projects": "A contract which mints ERC-721s that represent project ownership and transfers.",
					"revId": "The ID of the REV revnet that will receive the fees.",
					"trustedForwarder": "A trusted forwarder of transactions to this contract."
				}
			},
			"determineSourceFeeAmount((uint112,uint112,uint40,uint16,uint32,(address,address)),uint256)": {
				"params": {
					"amount": "The amount being paid off.",
					"loan": "The loan having its source fee amount determined."
				},
				"returns": {
					"_0": "sourceFeeAmount The source fee amount for the loan."
				}
			},
			"getApproved(uint256)": {
				"details": "See {IERC721-getApproved}."
			},
			"isApprovedForAll(address,address)": {
				"details": "See {IERC721-isApprovedForAll}."
			},
			"isTrustedForwarder(address)": {
				"details": "Indicates whether any particular address is the trusted forwarder."
			},
			"liquidateExpiredLoansFrom(uint256,uint256,uint256)": {
				"details": "Since some loans may be reallocated or paid off, loans within startingLoanId and startingLoanId + count may be skipped, so choose these parameters carefully to avoid extra gas usage.",
				"params": {
					"count": "The amount of loans iterate over since the last liquidated loan.",
					"revnetId": "The ID of the revnet to liquidate loans from.",
					"startingLoanId": "The ID of the loan to start iterating from."
				}
			},
			"loanOf(uint256)": {
				"custom:member": "The ID of the loan."
			},
			"loanSourcesOf(uint256)": {
				"custom:member": "revnetId The ID of the revnet issuing the loan."
			},
			"name()": {
				"details": "See {IERC721Metadata-name}."
			},
			"owner()": {
				"details": "Returns the address of the current owner."
			},
			"ownerOf(uint256)": {
				"details": "See {IERC721-ownerOf}."
			},
			"reallocateCollateralFromLoan(uint256,uint256,(address,address),uint256,uint256,address,uint256)": {
				"details": "Useful if a loan's collateral has gone up in value since the loan was created.Refinancing a loan will burn the original and create two new loans.",
				"params": {
					"beneficiary": "The address that'll receive the borrowed funds and the tokens resulting from fee payments.",
					"borrowAmount": "The amount being borrowed, denominated in the currency of the source's accounting context.",
					"collateralAmountToAdd": "The amount of collateral to add to the loan.",
					"collateralAmountToTransfer": "The amount of collateral to transfer from the original loan.",
					"loanId": "The ID of the loan to reallocate collateral from.",
					"prepaidFeePercent": "The fee percent that will be charged upfront from the revnet being borrowed from.",
					"source": "The source of the loan to create."
				},
				"returns": {
					"newLoan": "The new loan created from reallocating collateral.",
					"newLoanId": "The ID of the new loan.",
					"reallocatedLoan": "The loan being reallocated.",
					"reallocatedLoanId": "The ID of the loan being reallocated."
				}
			},
			"renounceOwnership()": {
				"details": "Leaves the contract without owner. It will not be possible to call `onlyOwner` functions. Can only be called by the current owner. NOTE: Renouncing ownership will leave the contract without an owner, thereby disabling any functionality that is only available to the owner."
			},
			"repayLoan(uint256,uint256,uint256,address,(uint256,uint160,uint48,uint48,bytes))": {
				"params": {
					"allowance": "An allowance to faciliate permit2 interactions.",
					"beneficiary": "The address receiving the returned collateral and any tokens resulting from paying fees.",
					"borrowAmount": "The amount being paid off, denominated in the currency of the source's accounting context.",
					"collateralAmountToReturn": "The amount of collateral to return being returned from the loan.",
					"loanId": "The ID of the loan being adjusted."
				},
				"returns": {
					"_0": "paidOffLoanId The ID of the loan after it's been paid off.",
					"_1": "paidOffloan The loan after it's been paid off."
				}
			},
			"revnetIdOfLoanWith(uint256)": {
				"params": {
					"loanId": "The loan ID of the loan to get the revent ID of."
				},
				"returns": {
					"_0": "The ID of the revnet."
				}
			},
			"safeTransferFrom(address,address,uint256)": {
				"details": "See {IERC721-safeTransferFrom}."
			},
			"safeTransferFrom(address,address,uint256,bytes)": {
				"details": "See {IERC721-safeTransferFrom}."
			},
			"setApprovalForAll(address,bool)": {
				"details": "See {IERC721-setApprovalForAll}."
			},
			"setTokenUriResolver(address)": {
				"params": {
					"resolver": "The address of the new resolver."
				}
			},
			"supportsInterface(bytes4)": {
				"details": "See {IERC165-supportsInterface}."
			},
			"symbol()": {
				"details": "See {IERC721Metadata-symbol}."
			},
			"tokenURI(uint256)": {
				"params": {
					"loanId": "The ID of the loan to get a URI of."
				},
				"returns": {
					"_0": "The token URI to use for the provided `loanId`."
				}
			},
			"transferFrom(address,address,uint256)": {
				"details": "See {IERC721-transferFrom}."
			},
			"transferOwnership(address)": {
				"details": "Transfers ownership of the contract to a new account (`newOwner`). Can only be called by the current owner."
			},
			"trustedForwarder()": {
				"details": "Returns the address of the trusted forwarder."
			}
		},
		"version": 1
	},
	"userdoc": {
		"kind": "user",
		"methods": {
			"PERMIT2()": {
				"notice": "The permit2 utility."
			},
			"PROJECTS()": {
				"notice": "Mints ERC-721s that represent project ownership and transfers."
			},
			"REV_ID()": {
				"notice": "The ID of the REV revnet that will receive the fees."
			},
			"borrowFrom(uint256,(address,address),uint256,uint256,address,uint256)": {
				"notice": "Open a loan by borrowing from a revnet."
			},
			"borrowableAmountFrom(uint256,uint256,uint256,uint256)": {
				"notice": "The amount that can be borrowed from a revnet."
			},
			"determineSourceFeeAmount((uint112,uint112,uint40,uint16,uint32,(address,address)),uint256)": {
				"notice": "Determines the source fee amount for a loan being paid off a certain amount."
			},
			"isLoanSourceOf(uint256,address,address)": {
				"notice": "An indication if a revnet currently has outstanding loans from the specified terminal in the specified token."
			},
			"liquidateExpiredLoansFrom(uint256,uint256,uint256)": {
				"notice": "Cleans up any liquiditated loans."
			},
			"loanOf(uint256)": {
				"notice": "Get a loan."
			},
			"loanSourcesOf(uint256)": {
				"notice": "The sources of each revnet's loan."
			},
			"numberOfLoansFor(uint256)": {
				"notice": "The amount of loans that have been created."
			},
			"reallocateCollateralFromLoan(uint256,uint256,(address,address),uint256,uint256,address,uint256)": {
				"notice": "Refinances a loan by transferring extra collateral from an existing loan to a new loan."
			},
			"repayLoan(uint256,uint256,uint256,address,(uint256,uint160,uint48,uint48,bytes))": {
				"notice": "Allows the owner of a loan to pay it back or receive returned collateral no longer necessary to support the loan."
			},
			"revnetIdOfLoanWith(uint256)": {
				"notice": "The revnet ID for the loan with the provided loan ID."
			},
			"setTokenUriResolver(address)": {
				"notice": "Sets the address of the resolver used to retrieve the tokenURI of loans."
			},
			"tokenURI(uint256)": {
				"notice": "Returns the URI where the ERC-721 standard JSON of a loan is hosted."
			},
			"tokenUriResolver()": {
				"notice": "The contract resolving each project ID to its ERC721 URI."
			},
			"totalBorrowedFrom(uint256,address,address)": {
				"notice": "The total amount loaned out by a revnet from a specified terminal in a specified token."
			},
			"totalCollateralOf(uint256)": {
				"notice": "The total amount of collateral supporting a revnet's loans."
			}
		},
		"version": 1
	},
	"gitCommit": "28d470b8af715e774602a366a5bb064726ebd099",
	"sourceName": "src/REVLoans.sol",
	"chainId": "11155111",
	"linkReferences": {},
	"deployedLinkReferences": {},
	"history": []
}