{
  "abi": [
    {
      "inputs": [
        {
          "internalType": "bytes4",
          "name": "_idToAdd",
          "type": "bytes4"
        },
        {
          "internalType": "bytes",
          "name": "_dataToAdd",
          "type": "bytes"
        },
        {
          "internalType": "bytes",
          "name": "_originalMetadata",
          "type": "bytes"
        }
      ],
      "name": "addToMetadata",
      "outputs": [
        {
          "internalType": "bytes",
          "name": "_newMetadata",
          "type": "bytes"
        }
      ],
      "stateMutability": "pure",
      "type": "function"
    }
  ],
  "bytecode": {
    "object": "0x6107c161003a600b82828239805160001a60731461002d57634e487b7160e01b600052600060045260246000fd5b30600052607381538281f3fe73000000000000000000000000000000000000000030146080604052600436106100355760003560e01c8063af93f70e1461003a575b600080fd5b61004d610048366004610462565b610063565b60405161005a919061052e565b60405180910390f35b606060008383610075600460206105ae565b818110610084576100846105c7565b919091013560f81c91506000905061009d6001836105f6565b9050600080808060016100b1602088610609565b6100bb91906105f6565b90505b60016100cb602087610609565b6100d591906105f6565b8111156102a8578888828181106100ee576100ee6105c7565b909101357fff00000000000000000000000000000000000000000000000000000000000000161590506102815788888281811061012d5761012d6105c7565b919091013560f81c945090925082905060206101498186610609565b610153908a6105f6565b61015d919061064f565b91508860008961016e8660016105ae565b9261017b93929190610663565b8080601f0160208091040260200160405190810160405280939291908181526020018383808284376000920191909152509299506101c0925060209150889050610609565b6101cb6005836105ae565b1061027c5760006101de600460206105ae565b90505b6101ec8460016105ae565b81101561026d57898982818110610205576102056105c7565b61021792013560f81c9050600161068d565b60f81b88828151811061022c5761022c6105c7565b60200101907effffffffffffffffffffffffffffffffffffffffffffffffffffffffffffff1916908160001a9053506102666005826105ae565b90506101e1565b5083610278816106a6565b9450505b6102a8565b7fffffffffffffffffffffffffffffffffffffffffffffffffffffffffffffffff016100be565b50858b6102b583866105ae565b60f81b6040516020016102ca939291906106de565b60405160208183030381529060405295506000602087516102eb919061074f565b156103195760208088516102ff919061064f565b61030a9060016105ae565b6103149190610609565b61031c565b86515b808852905086898961032f60208a610609565b61033b928c9290610663565b60405160200161034d93929190610763565b60405160208183030381529060405296506020875161036c919061074f565b1561039a576020808851610380919061064f565b61038b9060016105ae565b6103959190610609565b61039d565b86515b9050808752868b8b6040516020016103b793929190610763565b6040516020818303038152906040529650602087516103d6919061074f565b156104045760208088516103ea919061064f565b6103f59060016105ae565b6103ff9190610609565b610407565b86515b875250949a9950505050505050505050565b60008083601f84011261042b57600080fd5b50813567ffffffffffffffff81111561044357600080fd5b60208301915083602082850101111561045b57600080fd5b9250929050565b60008060008060006060868803121561047a57600080fd5b85357fffffffff00000000000000000000000000000000000000000000000000000000811681146104aa57600080fd5b9450602086013567ffffffffffffffff808211156104c757600080fd5b6104d389838a01610419565b909650945060408801359150808211156104ec57600080fd5b506104f988828901610419565b969995985093965092949392505050565b60005b8381101561052557818101518382015260200161050d565b50506000910152565b602081526000825180602084015261054d81604085016020870161050a565b601f017fffffffffffffffffffffffffffffffffffffffffffffffffffffffffffffffe0169190910160400192915050565b7f4e487b7100000000000000000000000000000000000000000000000000000000600052601160045260246000fd5b808201808211156105c1576105c161057f565b92915050565b7f4e487b7100000000000000000000000000000000000000000000000000000000600052603260045260246000fd5b818103818111156105c1576105c161057f565b80820281158282048414176105c1576105c161057f565b7f4e487b7100000000000000000000000000000000000000000000000000000000600052601260045260246000fd5b60008261065e5761065e610620565b500490565b6000808585111561067357600080fd5b8386111561068057600080fd5b5050820193919092039150565b60ff81811683821601908111156105c1576105c161057f565b60007fffffffffffffffffffffffffffffffffffffffffffffffffffffffffffffffff82036106d7576106d761057f565b5060010190565b600084516106f081846020890161050a565b7fffffffff0000000000000000000000000000000000000000000000000000000094909416919093019081527fff0000000000000000000000000000000000000000000000000000000000000091909116600482015260050192915050565b60008261075e5761075e610620565b500690565b6000845161077581846020890161050a565b820183858237600093019283525090939250505056fea26469706673582212205f12540cd454a39e52703df7c3e4ba95848372cfa0ee3f9f52bbc2e23031b37964736f6c63430008150033",
    "linkReferences": {}
  },
  "methodIdentifiers": {
    "addToMetadata(bytes4,bytes,bytes)": "af93f70e"
  },
  "id": 96
}