{
	"_format": "sphinx-sol-ct-artifact-1",
	"merkleRoot": "0x39fa168c56ec7fbed45680314f9554d2b963885dbb4a5403a62ba43526a7f221",
	"contractName": "REVBasicDeployer",
	"address": "0xc22A247C8B8e94484F992909769c74d9dBA2ee39",
	"abi": [
		{
			"type": "constructor",
			"inputs": [
				{
					"name": "controller",
					"type": "address",
					"internalType": "contract IJBController"
				},
				{
					"name": "suckerRegistry",
					"type": "address",
					"internalType": "contract IJBSuckerRegistry"
				},
				{
					"name": "feeRevnetId",
					"type": "uint256",
					"internalType": "uint256"
				}
			],
			"stateMutability": "nonpayable"
		},
		{
			"type": "function",
			"name": "CASH_OUT_DELAY",
			"inputs": [],
			"outputs": [
				{
					"name": "",
					"type": "uint256",
					"internalType": "uint256"
				}
			],
			"stateMutability": "view"
		},
		{
			"type": "function",
			"name": "CONTROLLER",
			"inputs": [],
			"outputs": [
				{
					"name": "",
					"type": "address",
					"internalType": "contract IJBController"
				}
			],
			"stateMutability": "view"
		},
		{
			"type": "function",
			"name": "FEE",
			"inputs": [],
			"outputs": [
				{
					"name": "",
					"type": "uint256",
					"internalType": "uint256"
				}
			],
			"stateMutability": "view"
		},
		{
			"type": "function",
			"name": "FEE_REVNET_ID",
			"inputs": [],
			"outputs": [
				{
					"name": "",
					"type": "uint256",
					"internalType": "uint256"
				}
			],
			"stateMutability": "view"
		},
		{
			"type": "function",
			"name": "SUCKER_REGISTRY",
			"inputs": [],
			"outputs": [
				{
					"name": "",
					"type": "address",
					"internalType": "contract IJBSuckerRegistry"
				}
			],
			"stateMutability": "view"
		},
		{
			"type": "function",
			"name": "afterRedeemRecordedWith",
			"inputs": [
				{
					"name": "context",
					"type": "tuple",
					"internalType": "struct JBAfterRedeemRecordedContext",
					"components": [
						{
							"name": "holder",
							"type": "address",
							"internalType": "address"
						},
						{
							"name": "projectId",
							"type": "uint256",
							"internalType": "uint256"
						},
						{
							"name": "rulesetId",
							"type": "uint256",
							"internalType": "uint256"
						},
						{
							"name": "redeemCount",
							"type": "uint256",
							"internalType": "uint256"
						},
						{
							"name": "reclaimedAmount",
							"type": "tuple",
							"internalType": "struct JBTokenAmount",
							"components": [
								{
									"name": "token",
									"type": "address",
									"internalType": "address"
								},
								{
									"name": "decimals",
									"type": "uint8",
									"internalType": "uint8"
								},
								{
									"name": "currency",
									"type": "uint32",
									"internalType": "uint32"
								},
								{
									"name": "value",
									"type": "uint256",
									"internalType": "uint256"
								}
							]
						},
						{
							"name": "forwardedAmount",
							"type": "tuple",
							"internalType": "struct JBTokenAmount",
							"components": [
								{
									"name": "token",
									"type": "address",
									"internalType": "address"
								},
								{
									"name": "decimals",
									"type": "uint8",
									"internalType": "uint8"
								},
								{
									"name": "currency",
									"type": "uint32",
									"internalType": "uint32"
								},
								{
									"name": "value",
									"type": "uint256",
									"internalType": "uint256"
								}
							]
						},
						{
							"name": "redemptionRate",
							"type": "uint256",
							"internalType": "uint256"
						},
						{
							"name": "beneficiary",
							"type": "address",
							"internalType": "address payable"
						},
						{
							"name": "hookMetadata",
							"type": "bytes",
							"internalType": "bytes"
						},
						{
							"name": "redeemerMetadata",
							"type": "bytes",
							"internalType": "bytes"
						}
					]
				}
			],
			"outputs": [],
			"stateMutability": "payable"
		},
		{
			"type": "function",
			"name": "allowedMintCountOf",
			"inputs": [
				{
					"name": "revnetId",
					"type": "uint256",
					"internalType": "uint256"
				},
				{
					"name": "stageId",
					"type": "uint256",
					"internalType": "uint256"
				},
				{
					"name": "beneficiary",
					"type": "address",
					"internalType": "address"
				}
			],
			"outputs": [
				{
					"name": "",
					"type": "uint256",
					"internalType": "uint256"
				}
			],
			"stateMutability": "view"
		},
		{
			"type": "function",
			"name": "beforePayRecordedWith",
			"inputs": [
				{
					"name": "context",
					"type": "tuple",
					"internalType": "struct JBBeforePayRecordedContext",
					"components": [
						{
							"name": "terminal",
							"type": "address",
							"internalType": "address"
						},
						{
							"name": "payer",
							"type": "address",
							"internalType": "address"
						},
						{
							"name": "amount",
							"type": "tuple",
							"internalType": "struct JBTokenAmount",
							"components": [
								{
									"name": "token",
									"type": "address",
									"internalType": "address"
								},
								{
									"name": "decimals",
									"type": "uint8",
									"internalType": "uint8"
								},
								{
									"name": "currency",
									"type": "uint32",
									"internalType": "uint32"
								},
								{
									"name": "value",
									"type": "uint256",
									"internalType": "uint256"
								}
							]
						},
						{
							"name": "projectId",
							"type": "uint256",
							"internalType": "uint256"
						},
						{
							"name": "rulesetId",
							"type": "uint256",
							"internalType": "uint256"
						},
						{
							"name": "beneficiary",
							"type": "address",
							"internalType": "address"
						},
						{
							"name": "weight",
							"type": "uint256",
							"internalType": "uint256"
						},
						{
							"name": "reservedRate",
							"type": "uint256",
							"internalType": "uint256"
						},
						{
							"name": "metadata",
							"type": "bytes",
							"internalType": "bytes"
						}
					]
				}
			],
			"outputs": [
				{
					"name": "weight",
					"type": "uint256",
					"internalType": "uint256"
				},
				{
					"name": "hookSpecifications",
					"type": "tuple[]",
					"internalType": "struct JBPayHookSpecification[]",
					"components": [
						{
							"name": "hook",
							"type": "address",
							"internalType": "contract IJBPayHook"
						},
						{
							"name": "amount",
							"type": "uint256",
							"internalType": "uint256"
						},
						{
							"name": "metadata",
							"type": "bytes",
							"internalType": "bytes"
						}
					]
				}
			],
			"stateMutability": "view"
		},
		{
			"type": "function",
			"name": "beforeRedeemRecordedWith",
			"inputs": [
				{
					"name": "context",
					"type": "tuple",
					"internalType": "struct JBBeforeRedeemRecordedContext",
					"components": [
						{
							"name": "terminal",
							"type": "address",
							"internalType": "address"
						},
						{
							"name": "holder",
							"type": "address",
							"internalType": "address"
						},
						{
							"name": "projectId",
							"type": "uint256",
							"internalType": "uint256"
						},
						{
							"name": "rulesetId",
							"type": "uint256",
							"internalType": "uint256"
						},
						{
							"name": "redeemCount",
							"type": "uint256",
							"internalType": "uint256"
						},
						{
							"name": "totalSupply",
							"type": "uint256",
							"internalType": "uint256"
						},
						{
							"name": "surplus",
							"type": "tuple",
							"internalType": "struct JBTokenAmount",
							"components": [
								{
									"name": "token",
									"type": "address",
									"internalType": "address"
								},
								{
									"name": "decimals",
									"type": "uint8",
									"internalType": "uint8"
								},
								{
									"name": "currency",
									"type": "uint32",
									"internalType": "uint32"
								},
								{
									"name": "value",
									"type": "uint256",
									"internalType": "uint256"
								}
							]
						},
						{
							"name": "useTotalSurplus",
							"type": "bool",
							"internalType": "bool"
						},
						{
							"name": "redemptionRate",
							"type": "uint256",
							"internalType": "uint256"
						},
						{
							"name": "metadata",
							"type": "bytes",
							"internalType": "bytes"
						}
					]
				}
			],
			"outputs": [
				{
					"name": "",
					"type": "uint256",
					"internalType": "uint256"
				},
				{
					"name": "",
					"type": "uint256",
					"internalType": "uint256"
				},
				{
					"name": "",
					"type": "uint256",
					"internalType": "uint256"
				},
				{
					"name": "hookSpecifications",
					"type": "tuple[]",
					"internalType": "struct JBRedeemHookSpecification[]",
					"components": [
						{
							"name": "hook",
							"type": "address",
							"internalType": "contract IJBRedeemHook"
						},
						{
							"name": "amount",
							"type": "uint256",
							"internalType": "uint256"
						},
						{
							"name": "metadata",
							"type": "bytes",
							"internalType": "bytes"
						}
					]
				}
			],
			"stateMutability": "view"
		},
		{
			"type": "function",
			"name": "buybackHookOf",
			"inputs": [
				{
					"name": "revnetId",
					"type": "uint256",
					"internalType": "uint256"
				}
			],
			"outputs": [
				{
					"name": "buybackHook",
					"type": "address",
					"internalType": "contract IJBRulesetDataHook"
				}
			],
			"stateMutability": "view"
		},
		{
			"type": "function",
			"name": "cashOutDelayOf",
			"inputs": [
				{
					"name": "revnetId",
					"type": "uint256",
					"internalType": "uint256"
				}
			],
			"outputs": [
				{
					"name": "cashOutDelay",
					"type": "uint256",
					"internalType": "uint256"
				}
			],
			"stateMutability": "view"
		},
		{
			"type": "function",
			"name": "deployFor",
			"inputs": [
				{
					"name": "revnetId",
					"type": "uint256",
					"internalType": "uint256"
				},
				{
					"name": "configuration",
					"type": "tuple",
					"internalType": "struct REVConfig",
					"components": [
						{
							"name": "description",
							"type": "tuple",
							"internalType": "struct REVDescription",
							"components": [
								{
									"name": "name",
									"type": "string",
									"internalType": "string"
								},
								{
									"name": "ticker",
									"type": "string",
									"internalType": "string"
								},
								{
									"name": "uri",
									"type": "string",
									"internalType": "string"
								},
								{
									"name": "salt",
									"type": "bytes32",
									"internalType": "bytes32"
								}
							]
						},
						{
							"name": "baseCurrency",
							"type": "uint32",
							"internalType": "uint32"
						},
						{
							"name": "splitOperator",
							"type": "address",
							"internalType": "address"
						},
						{
							"name": "stageConfigurations",
							"type": "tuple[]",
							"internalType": "struct REVStageConfig[]",
							"components": [
								{
									"name": "startsAtOrAfter",
									"type": "uint40",
									"internalType": "uint40"
								},
								{
									"name": "mintConfigs",
									"type": "tuple[]",
									"internalType": "struct REVMintConfig[]",
									"components": [
										{
											"name": "chainId",
											"type": "uint32",
											"internalType": "uint32"
										},
										{
											"name": "count",
											"type": "uint104",
											"internalType": "uint104"
										},
										{
											"name": "beneficiary",
											"type": "address",
											"internalType": "address"
										}
									]
								},
								{
									"name": "splitPercent",
									"type": "uint16",
									"internalType": "uint16"
								},
								{
									"name": "initialPrice",
									"type": "uint112",
									"internalType": "uint112"
								},
								{
									"name": "priceIncreaseFrequency",
									"type": "uint32",
									"internalType": "uint32"
								},
								{
									"name": "priceIncreasePercentage",
									"type": "uint32",
									"internalType": "uint32"
								},
								{
									"name": "cashOutTaxIntensity",
									"type": "uint16",
									"internalType": "uint16"
								}
							]
						}
					]
				},
				{
					"name": "terminalConfigurations",
					"type": "tuple[]",
					"internalType": "struct JBTerminalConfig[]",
					"components": [
						{
							"name": "terminal",
							"type": "address",
							"internalType": "contract IJBTerminal"
						},
						{
							"name": "accountingContextsToAccept",
							"type": "tuple[]",
							"internalType": "struct JBAccountingContext[]",
							"components": [
								{
									"name": "token",
									"type": "address",
									"internalType": "address"
								},
								{
									"name": "decimals",
									"type": "uint8",
									"internalType": "uint8"
								},
								{
									"name": "currency",
									"type": "uint32",
									"internalType": "uint32"
								}
							]
						}
					]
				},
				{
					"name": "buybackHookConfiguration",
					"type": "tuple",
					"internalType": "struct REVBuybackHookConfig",
					"components": [
						{
							"name": "hook",
							"type": "address",
							"internalType": "contract IJBBuybackHook"
						},
						{
							"name": "poolConfigurations",
							"type": "tuple[]",
							"internalType": "struct REVBuybackPoolConfig[]",
							"components": [
								{
									"name": "token",
									"type": "address",
									"internalType": "address"
								},
								{
									"name": "fee",
									"type": "uint24",
									"internalType": "uint24"
								},
								{
									"name": "twapWindow",
									"type": "uint32",
									"internalType": "uint32"
								},
								{
									"name": "twapSlippageTolerance",
									"type": "uint32",
									"internalType": "uint32"
								}
							]
						}
					]
				},
				{
					"name": "suckerDeploymentConfiguration",
					"type": "tuple",
					"internalType": "struct REVSuckerDeploymentConfig",
					"components": [
						{
							"name": "deployerConfigurations",
							"type": "tuple[]",
							"internalType": "struct JBSuckerDeployerConfig[]",
							"components": [
								{
									"name": "deployer",
									"type": "address",
									"internalType": "contract IJBSuckerDeployer"
								},
								{
									"name": "mappings",
									"type": "tuple[]",
									"internalType": "struct JBTokenMapping[]",
									"components": [
										{
											"name": "localToken",
											"type": "address",
											"internalType": "address"
										},
										{
											"name": "minGas",
											"type": "uint32",
											"internalType": "uint32"
										},
										{
											"name": "remoteToken",
											"type": "address",
											"internalType": "address"
										},
										{
											"name": "minBridgeAmount",
											"type": "uint256",
											"internalType": "uint256"
										}
									]
								}
							]
						},
						{
							"name": "salt",
							"type": "bytes32",
							"internalType": "bytes32"
						}
					]
				}
			],
			"outputs": [
				{
					"name": "",
					"type": "uint256",
					"internalType": "uint256"
				}
			],
			"stateMutability": "nonpayable"
		},
		{
			"type": "function",
			"name": "deploySuckersFor",
			"inputs": [
				{
					"name": "revnetId",
					"type": "uint256",
					"internalType": "uint256"
				},
				{
					"name": "encodedConfiguration",
					"type": "bytes",
					"internalType": "bytes"
				},
				{
					"name": "suckerDeploymentConfiguration",
					"type": "tuple",
					"internalType": "struct REVSuckerDeploymentConfig",
					"components": [
						{
							"name": "deployerConfigurations",
							"type": "tuple[]",
							"internalType": "struct JBSuckerDeployerConfig[]",
							"components": [
								{
									"name": "deployer",
									"type": "address",
									"internalType": "contract IJBSuckerDeployer"
								},
								{
									"name": "mappings",
									"type": "tuple[]",
									"internalType": "struct JBTokenMapping[]",
									"components": [
										{
											"name": "localToken",
											"type": "address",
											"internalType": "address"
										},
										{
											"name": "minGas",
											"type": "uint32",
											"internalType": "uint32"
										},
										{
											"name": "remoteToken",
											"type": "address",
											"internalType": "address"
										},
										{
											"name": "minBridgeAmount",
											"type": "uint256",
											"internalType": "uint256"
										}
									]
								}
							]
						},
						{
							"name": "salt",
							"type": "bytes32",
							"internalType": "bytes32"
						}
					]
				}
			],
			"outputs": [],
			"stateMutability": "nonpayable"
		},
		{
			"type": "function",
			"name": "hasMintPermissionFor",
			"inputs": [
				{
					"name": "revnetId",
					"type": "uint256",
					"internalType": "uint256"
				},
				{
					"name": "addr",
					"type": "address",
					"internalType": "address"
				}
			],
			"outputs": [
				{
					"name": "",
					"type": "bool",
					"internalType": "bool"
				}
			],
			"stateMutability": "view"
		},
		{
			"type": "function",
			"name": "isSplitOperatorOf",
			"inputs": [
				{
					"name": "revnetId",
					"type": "uint256",
					"internalType": "uint256"
				},
				{
					"name": "addr",
					"type": "address",
					"internalType": "address"
				}
			],
			"outputs": [
				{
					"name": "",
					"type": "bool",
					"internalType": "bool"
				}
			],
			"stateMutability": "view"
		},
		{
			"type": "function",
			"name": "mintFor",
			"inputs": [
				{
					"name": "revnetId",
					"type": "uint256",
					"internalType": "uint256"
				},
				{
					"name": "stageId",
					"type": "uint256",
					"internalType": "uint256"
				},
				{
					"name": "beneficiary",
					"type": "address",
					"internalType": "address"
				}
			],
			"outputs": [],
			"stateMutability": "nonpayable"
		},
		{
			"type": "function",
			"name": "onERC721Received",
			"inputs": [
				{
					"name": "operator",
					"type": "address",
					"internalType": "address"
				},
				{
					"name": "",
					"type": "address",
					"internalType": "address"
				},
				{
					"name": "tokenId",
					"type": "uint256",
					"internalType": "uint256"
				},
				{
					"name": "data",
					"type": "bytes",
					"internalType": "bytes"
				}
			],
			"outputs": [
				{
					"name": "",
					"type": "bytes4",
					"internalType": "bytes4"
				}
			],
			"stateMutability": "view"
		},
		{
			"type": "function",
			"name": "payHookSpecificationsOf",
			"inputs": [
				{
					"name": "revnetId",
					"type": "uint256",
					"internalType": "uint256"
				}
			],
			"outputs": [
				{
					"name": "",
					"type": "tuple[]",
					"internalType": "struct JBPayHookSpecification[]",
					"components": [
						{
							"name": "hook",
							"type": "address",
							"internalType": "contract IJBPayHook"
						},
						{
							"name": "amount",
							"type": "uint256",
							"internalType": "uint256"
						},
						{
							"name": "metadata",
							"type": "bytes",
							"internalType": "bytes"
						}
					]
				}
			],
			"stateMutability": "view"
		},
		{
			"type": "function",
			"name": "replaceSplitOperatorOf",
			"inputs": [
				{
					"name": "revnetId",
					"type": "uint256",
					"internalType": "uint256"
				},
				{
					"name": "newSplitOperator",
					"type": "address",
					"internalType": "address"
				}
			],
			"outputs": [],
			"stateMutability": "nonpayable"
		},
		{
			"type": "function",
			"name": "supportsInterface",
			"inputs": [
				{
					"name": "",
					"type": "bytes4",
					"internalType": "bytes4"
				}
			],
			"outputs": [
				{
					"name": "",
					"type": "bool",
					"internalType": "bool"
				}
			],
			"stateMutability": "view"
		},
		{
			"type": "event",
			"name": "DeployRevnet",
			"inputs": [
				{
					"name": "revnetId",
					"type": "uint256",
					"indexed": true,
					"internalType": "uint256"
				},
				{
					"name": "suckerSalt",
					"type": "bytes32",
					"indexed": true,
					"internalType": "bytes32"
				},
				{
					"name": "configuration",
					"type": "tuple",
					"indexed": false,
					"internalType": "struct REVConfig",
					"components": [
						{
							"name": "description",
							"type": "tuple",
							"internalType": "struct REVDescription",
							"components": [
								{
									"name": "name",
									"type": "string",
									"internalType": "string"
								},
								{
									"name": "ticker",
									"type": "string",
									"internalType": "string"
								},
								{
									"name": "uri",
									"type": "string",
									"internalType": "string"
								},
								{
									"name": "salt",
									"type": "bytes32",
									"internalType": "bytes32"
								}
							]
						},
						{
							"name": "baseCurrency",
							"type": "uint32",
							"internalType": "uint32"
						},
						{
							"name": "splitOperator",
							"type": "address",
							"internalType": "address"
						},
						{
							"name": "stageConfigurations",
							"type": "tuple[]",
							"internalType": "struct REVStageConfig[]",
							"components": [
								{
									"name": "startsAtOrAfter",
									"type": "uint40",
									"internalType": "uint40"
								},
								{
									"name": "mintConfigs",
									"type": "tuple[]",
									"internalType": "struct REVMintConfig[]",
									"components": [
										{
											"name": "chainId",
											"type": "uint32",
											"internalType": "uint32"
										},
										{
											"name": "count",
											"type": "uint104",
											"internalType": "uint104"
										},
										{
											"name": "beneficiary",
											"type": "address",
											"internalType": "address"
										}
									]
								},
								{
									"name": "splitPercent",
									"type": "uint16",
									"internalType": "uint16"
								},
								{
									"name": "initialPrice",
									"type": "uint112",
									"internalType": "uint112"
								},
								{
									"name": "priceIncreaseFrequency",
									"type": "uint32",
									"internalType": "uint32"
								},
								{
									"name": "priceIncreasePercentage",
									"type": "uint32",
									"internalType": "uint32"
								},
								{
									"name": "cashOutTaxIntensity",
									"type": "uint16",
									"internalType": "uint16"
								}
							]
						}
					]
				},
				{
					"name": "terminalConfigurations",
					"type": "tuple[]",
					"indexed": false,
					"internalType": "struct JBTerminalConfig[]",
					"components": [
						{
							"name": "terminal",
							"type": "address",
							"internalType": "contract IJBTerminal"
						},
						{
							"name": "accountingContextsToAccept",
							"type": "tuple[]",
							"internalType": "struct JBAccountingContext[]",
							"components": [
								{
									"name": "token",
									"type": "address",
									"internalType": "address"
								},
								{
									"name": "decimals",
									"type": "uint8",
									"internalType": "uint8"
								},
								{
									"name": "currency",
									"type": "uint32",
									"internalType": "uint32"
								}
							]
						}
					]
				},
				{
					"name": "buybackHookConfiguration",
					"type": "tuple",
					"indexed": false,
					"internalType": "struct REVBuybackHookConfig",
					"components": [
						{
							"name": "hook",
							"type": "address",
							"internalType": "contract IJBBuybackHook"
						},
						{
							"name": "poolConfigurations",
							"type": "tuple[]",
							"internalType": "struct REVBuybackPoolConfig[]",
							"components": [
								{
									"name": "token",
									"type": "address",
									"internalType": "address"
								},
								{
									"name": "fee",
									"type": "uint24",
									"internalType": "uint24"
								},
								{
									"name": "twapWindow",
									"type": "uint32",
									"internalType": "uint32"
								},
								{
									"name": "twapSlippageTolerance",
									"type": "uint32",
									"internalType": "uint32"
								}
							]
						}
					]
				},
				{
					"name": "suckerDeploymentConfiguration",
					"type": "tuple",
					"indexed": false,
					"internalType": "struct REVSuckerDeploymentConfig",
					"components": [
						{
							"name": "deployerConfigurations",
							"type": "tuple[]",
							"internalType": "struct JBSuckerDeployerConfig[]",
							"components": [
								{
									"name": "deployer",
									"type": "address",
									"internalType": "contract IJBSuckerDeployer"
								},
								{
									"name": "mappings",
									"type": "tuple[]",
									"internalType": "struct JBTokenMapping[]",
									"components": [
										{
											"name": "localToken",
											"type": "address",
											"internalType": "address"
										},
										{
											"name": "minGas",
											"type": "uint32",
											"internalType": "uint32"
										},
										{
											"name": "remoteToken",
											"type": "address",
											"internalType": "address"
										},
										{
											"name": "minBridgeAmount",
											"type": "uint256",
											"internalType": "uint256"
										}
									]
								}
							]
						},
						{
							"name": "salt",
							"type": "bytes32",
							"internalType": "bytes32"
						}
					]
				},
				{
					"name": "rulesetConfigurations",
					"type": "tuple[]",
					"indexed": false,
					"internalType": "struct JBRulesetConfig[]",
					"components": [
						{
							"name": "mustStartAtOrAfter",
							"type": "uint48",
							"internalType": "uint48"
						},
						{
							"name": "duration",
							"type": "uint32",
							"internalType": "uint32"
						},
						{
							"name": "weight",
							"type": "uint112",
							"internalType": "uint112"
						},
						{
							"name": "decayRate",
							"type": "uint32",
							"internalType": "uint32"
						},
						{
							"name": "approvalHook",
							"type": "address",
							"internalType": "contract IJBRulesetApprovalHook"
						},
						{
							"name": "metadata",
							"type": "tuple",
							"internalType": "struct JBRulesetMetadata",
							"components": [
								{
									"name": "reservedRate",
									"type": "uint16",
									"internalType": "uint16"
								},
								{
									"name": "redemptionRate",
									"type": "uint16",
									"internalType": "uint16"
								},
								{
									"name": "baseCurrency",
									"type": "uint32",
									"internalType": "uint32"
								},
								{
									"name": "pausePay",
									"type": "bool",
									"internalType": "bool"
								},
								{
									"name": "pauseCreditTransfers",
									"type": "bool",
									"internalType": "bool"
								},
								{
									"name": "allowOwnerMinting",
									"type": "bool",
									"internalType": "bool"
								},
								{
									"name": "allowSetCustomToken",
									"type": "bool",
									"internalType": "bool"
								},
								{
									"name": "allowTerminalMigration",
									"type": "bool",
									"internalType": "bool"
								},
								{
									"name": "allowSetTerminals",
									"type": "bool",
									"internalType": "bool"
								},
								{
									"name": "allowSetController",
									"type": "bool",
									"internalType": "bool"
								},
								{
									"name": "allowAddAccountingContext",
									"type": "bool",
									"internalType": "bool"
								},
								{
									"name": "allowAddPriceFeed",
									"type": "bool",
									"internalType": "bool"
								},
								{
									"name": "ownerMustSendPayouts",
									"type": "bool",
									"internalType": "bool"
								},
								{
									"name": "holdFees",
									"type": "bool",
									"internalType": "bool"
								},
								{
									"name": "useTotalSurplusForRedemptions",
									"type": "bool",
									"internalType": "bool"
								},
								{
									"name": "useDataHookForPay",
									"type": "bool",
									"internalType": "bool"
								},
								{
									"name": "useDataHookForRedeem",
									"type": "bool",
									"internalType": "bool"
								},
								{
									"name": "dataHook",
									"type": "address",
									"internalType": "address"
								},
								{
									"name": "metadata",
									"type": "uint16",
									"internalType": "uint16"
								}
							]
						},
						{
							"name": "splitGroups",
							"type": "tuple[]",
							"internalType": "struct JBSplitGroup[]",
							"components": [
								{
									"name": "groupId",
									"type": "uint256",
									"internalType": "uint256"
								},
								{
									"name": "splits",
									"type": "tuple[]",
									"internalType": "struct JBSplit[]",
									"components": [
										{
											"name": "preferAddToBalance",
											"type": "bool",
											"internalType": "bool"
										},
										{
											"name": "percent",
											"type": "uint32",
											"internalType": "uint32"
										},
										{
											"name": "projectId",
											"type": "uint56",
											"internalType": "uint56"
										},
										{
											"name": "beneficiary",
											"type": "address",
											"internalType": "address payable"
										},
										{
											"name": "lockedUntil",
											"type": "uint48",
											"internalType": "uint48"
										},
										{
											"name": "hook",
											"type": "address",
											"internalType": "contract IJBSplitHook"
										}
									]
								}
							]
						},
						{
							"name": "fundAccessLimitGroups",
							"type": "tuple[]",
							"internalType": "struct JBFundAccessLimitGroup[]",
							"components": [
								{
									"name": "terminal",
									"type": "address",
									"internalType": "address"
								},
								{
									"name": "token",
									"type": "address",
									"internalType": "address"
								},
								{
									"name": "payoutLimits",
									"type": "tuple[]",
									"internalType": "struct JBCurrencyAmount[]",
									"components": [
										{
											"name": "amount",
											"type": "uint224",
											"internalType": "uint224"
										},
										{
											"name": "currency",
											"type": "uint32",
											"internalType": "uint32"
										}
									]
								},
								{
									"name": "surplusAllowances",
									"type": "tuple[]",
									"internalType": "struct JBCurrencyAmount[]",
									"components": [
										{
											"name": "amount",
											"type": "uint224",
											"internalType": "uint224"
										},
										{
											"name": "currency",
											"type": "uint32",
											"internalType": "uint32"
										}
									]
								}
							]
						}
					]
				},
				{
					"name": "encodedConfiguration",
					"type": "bytes",
					"indexed": false,
					"internalType": "bytes"
				},
				{
					"name": "caller",
					"type": "address",
					"indexed": false,
					"internalType": "address"
				}
			],
			"anonymous": false
		},
		{
			"type": "event",
			"name": "DeploySuckers",
			"inputs": [
				{
					"name": "revnetId",
					"type": "uint256",
					"indexed": true,
					"internalType": "uint256"
				},
				{
					"name": "salt",
					"type": "bytes32",
					"indexed": true,
					"internalType": "bytes32"
				},
				{
					"name": "encodedConfiguration",
					"type": "bytes",
					"indexed": false,
					"internalType": "bytes"
				},
				{
					"name": "suckerDeploymentConfiguration",
					"type": "tuple",
					"indexed": false,
					"internalType": "struct REVSuckerDeploymentConfig",
					"components": [
						{
							"name": "deployerConfigurations",
							"type": "tuple[]",
							"internalType": "struct JBSuckerDeployerConfig[]",
							"components": [
								{
									"name": "deployer",
									"type": "address",
									"internalType": "contract IJBSuckerDeployer"
								},
								{
									"name": "mappings",
									"type": "tuple[]",
									"internalType": "struct JBTokenMapping[]",
									"components": [
										{
											"name": "localToken",
											"type": "address",
											"internalType": "address"
										},
										{
											"name": "minGas",
											"type": "uint32",
											"internalType": "uint32"
										},
										{
											"name": "remoteToken",
											"type": "address",
											"internalType": "address"
										},
										{
											"name": "minBridgeAmount",
											"type": "uint256",
											"internalType": "uint256"
										}
									]
								}
							]
						},
						{
							"name": "salt",
							"type": "bytes32",
							"internalType": "bytes32"
						}
					]
				},
				{
					"name": "caller",
					"type": "address",
					"indexed": false,
					"internalType": "address"
				}
			],
			"anonymous": false
		},
		{
			"type": "event",
			"name": "Mint",
			"inputs": [
				{
					"name": "revnetId",
					"type": "uint256",
					"indexed": true,
					"internalType": "uint256"
				},
				{
					"name": "stageId",
					"type": "uint256",
					"indexed": true,
					"internalType": "uint256"
				},
				{
					"name": "beneficiary",
					"type": "address",
					"indexed": true,
					"internalType": "address"
				},
				{
					"name": "count",
					"type": "uint256",
					"indexed": false,
					"internalType": "uint256"
				},
				{
					"name": "caller",
					"type": "address",
					"indexed": false,
					"internalType": "address"
				}
			],
			"anonymous": false
		},
		{
			"type": "event",
			"name": "ReplaceSplitOperator",
			"inputs": [
				{
					"name": "revnetId",
					"type": "uint256",
					"indexed": true,
					"internalType": "uint256"
				},
				{
					"name": "newSplitOperator",
					"type": "address",
					"indexed": true,
					"internalType": "address"
				},
				{
					"name": "caller",
					"type": "address",
					"indexed": false,
					"internalType": "address"
				}
			],
			"anonymous": false
		},
		{
			"type": "event",
			"name": "SetAdditionalOperator",
			"inputs": [
				{
					"name": "revnetId",
					"type": "uint256",
					"indexed": false,
					"internalType": "uint256"
				},
				{
					"name": "additionalOperator",
					"type": "address",
					"indexed": false,
					"internalType": "address"
				},
				{
					"name": "permissionIds",
					"type": "uint256[]",
					"indexed": false,
					"internalType": "uint256[]"
				},
				{
					"name": "caller",
					"type": "address",
					"indexed": false,
					"internalType": "address"
				}
			],
			"anonymous": false
		},
		{
			"type": "event",
			"name": "SetCashOutDelay",
			"inputs": [
				{
					"name": "revnetId",
					"type": "uint256",
					"indexed": true,
					"internalType": "uint256"
				},
				{
					"name": "cashOutDelay",
					"type": "uint256",
					"indexed": false,
					"internalType": "uint256"
				},
				{
					"name": "caller",
					"type": "address",
					"indexed": false,
					"internalType": "address"
				}
			],
			"anonymous": false
		},
		{
			"type": "event",
			"name": "StoreMintPotential",
			"inputs": [
				{
					"name": "revnetId",
					"type": "uint256",
					"indexed": true,
					"internalType": "uint256"
				},
				{
					"name": "stageId",
					"type": "uint256",
					"indexed": true,
					"internalType": "uint256"
				},
				{
					"name": "beneficiary",
					"type": "address",
					"indexed": true,
					"internalType": "address"
				},
				{
					"name": "count",
					"type": "uint256",
					"indexed": false,
					"internalType": "uint256"
				},
				{
					"name": "caller",
					"type": "address",
					"indexed": false,
					"internalType": "address"
				}
			],
			"anonymous": false
		},
		{
			"type": "error",
			"name": "PRBMath_MulDiv_Overflow",
			"inputs": [
				{
					"name": "x",
					"type": "uint256",
					"internalType": "uint256"
				},
				{
					"name": "y",
					"type": "uint256",
					"internalType": "uint256"
				},
				{
					"name": "denominator",
					"type": "uint256",
					"internalType": "uint256"
				}
			]
		},
		{
			"type": "error",
			"name": "REVBasic_BadStageTimes",
			"inputs": []
		},
		{
			"type": "error",
			"name": "REVBasic_CashOutDelayInEffect",
			"inputs": []
		},
		{
			"type": "error",
			"name": "REVBasic_StageNotStarted",
			"inputs": []
		},
		{
			"type": "error",
			"name": "REVBasic_StagesRequired",
			"inputs": []
		},
		{
			"type": "error",
			"name": "REVBasic_Unauthorized",
			"inputs": []
		}
	],
	"solcInputHash": "410542be1c535d97c862c2863abb477e",
	"args": [
		"0x64c30002444321C4504c8f1b9B04C95DE3731Fd2",
		"0xdba05C1525A7d6255dc637EdD58C849aCb635D25",
		"2"
	],
	"bytecode": "0x60e06040523480156200001157600080fd5b5060405162004fd638038062004fd6833981016040819052620000349162000069565b6001600160a01b0392831660a052911660c052608052620000b1565b6001600160a01b03811681146200006657600080fd5b50565b6000806000606084860312156200007f57600080fd5b83516200008c8162000050565b60208501519093506200009f8162000050565b80925050604084015190509250925092565b60805160a05160c051614e776200015f60003960008181610335015281816108be01528181610f1e01528181611a7a01526129150152600081816104250152818161099d01528181611353015281816113d801528181611468015281816115d10152818161167b01528181611743015281816118a40152818161192d015281816119cb0152611c4d0152600081816101a30152818161059b015281816106bb015261101e0152614e776000f3fe6080604052600436106100ef5760003560e01c806301ffc9a7146100f45780630d7cfa101461012a578063150b7a02146101585780631680e172146101915780631727f039146101c55780634fa9af69146101da5780635a31dc13146102075780635c0a7cee14610245578063677ce088146102725780637249a7731461029257806382a09b30146102d55780638cc35846146102f5578063b5d2553314610323578063b8a843d714610357578063bb1994021461036e578063c57981b51461038e578063cd817cd0146103a3578063db29c892146103d3578063eb5ad9d9146103f3578063ee0fc12114610413575b600080fd5b34801561010057600080fd5b5061011561010f366004612b14565b50600090565b60405190151581526020015b60405180910390f35b34801561013657600080fd5b5061014a61014536600461339c565b610447565b604051908152602001610121565b34801561016457600080fd5b5061017861017336600461358e565b610465565b6040516001600160e01b03199091168152602001610121565b34801561019d57600080fd5b5061014a7f000000000000000000000000000000000000000000000000000000000000000081565b6101d86101d3366004613600565b61049e565b005b3480156101e657600080fd5b5061014a6101f536600461363b565b60016020526000908152604090205481565b34801561021357600080fd5b5061014a610222366004613654565b600260209081526000938452604080852082529284528284209052825290205481565b34801561025157600080fd5b5061026561026036600461363b565b610757565b604051610121919061375e565b34801561027e57600080fd5b5061011561028d366004613771565b61087b565b34801561029e57600080fd5b506102c86102ad36600461363b565b6000602081905290815260409020546001600160a01b031681565b60405161012191906137a1565b3480156102e157600080fd5b506101d86102f0366004613654565b610999565b34801561030157600080fd5b506103156103103660046137b5565b610b80565b6040516101219291906137f0565b34801561032f57600080fd5b506102c87f000000000000000000000000000000000000000000000000000000000000000081565b34801561036357600080fd5b5061014a62278d0081565b34801561037a57600080fd5b506101d8610389366004613809565b610e6a565b34801561039a57600080fd5b5061014a601981565b3480156103af57600080fd5b506103c36103be366004613880565b610f0e565b60405161012194939291906138bb565b3480156103df57600080fd5b506101156103ee366004613771565b6111ef565b3480156103ff57600080fd5b506101d861040e366004613771565b61127f565b34801561041f57600080fd5b506102c87f000000000000000000000000000000000000000000000000000000000000000081565b60006104598686868630600088611319565b90505b95945050505050565b600061046f6118a0565b6001600160a01b0316336001600160a01b03161461048c57600080fd5b50630a85bd0160e11b95945050505050565b6104a6611929565b6001600160a01b0316636e49181f8260200135336040518363ffffffff1660e01b81526004016104d792919061395b565b602060405180830381865afa1580156104f4573d6000803e3d6000fd5b505050506040513d601f19601f820116820180604052508101906105189190613972565b610535576040516385abdc5960e01b815260040160405180910390fd5b60006105456101c0830183613994565b81019061055291906139da565b9050600061eeee61056b610120850161010086016139da565b6001600160a01b031614610580576000610587565b6101608301355b90506001600160a01b03821663fef43257827f00000000000000000000000000000000000000000000000000000000000000006105cc610120880161010089016139da565b6101608801356105df60208a018a6139da565b60008a602001356040516020016105f891815260200190565b6040516020818303038152906040526040518863ffffffff1660e01b8152600401610628969594939291906139f7565b60206040518083038185885af193505050508015610663575060408051601f3d908101601f1916820190925261066091810190613a50565b60015b610751573d808015610691576040519150601f19603f3d011682016040523d82523d6000602084013e610696565b606091505b5033639e6eec058360208701356106b561012089016101008a016139da565b604080517f000000000000000000000000000000000000000000000000000000000000000060208201526101608b013591600091016040516020818303038152906040526040518763ffffffff1660e01b8152600401610719959493929190613a69565b6000604051808303818588803b15801561073257600080fd5b505af1158015610746573d6000803e3d6000fd5b505050505050505050565b50505050565b606060046000838152602001908152602001600020805480602002602001604051908101604052809291908181526020016000905b82821015610870576000848152602090819020604080516060810182526003860290920180546001600160a01b03168352600181015493830193909352600283018054929392918401916107df90613ab7565b80601f016020809104026020016040519081016040528092919081815260200182805461080b90613ab7565b80156108585780601f1061082d57610100808354040283529160200191610858565b820191906000526020600020905b81548152906001019060200180831161083b57829003601f168201915b5050505050815250508152602001906001019061078c565b505050509050919050565b6000828152602081905260408120546001600160a01b03908116908316036108a557506001610993565b604051633d12cb8760e01b8152600481018490526000907f00000000000000000000000000000000000000000000000000000000000000006001600160a01b031690633d12cb8790602401600060405180830381865afa15801561090d573d6000803e3d6000fd5b505050506040513d6000823e601f3d908101601f191682016040526109359190810190613af1565b805190915060005b8181101561098b5782818151811061095757610957613b7f565b60200260200101516001600160a01b0316856001600160a01b0316036109835760019350505050610993565b60010161093d565b506000925050505b92915050565b60007f00000000000000000000000000000000000000000000000000000000000000006001600160a01b031663d4a1b4b16040518163ffffffff1660e01b8152600401602060405180830381865afa1580156109f9573d6000803e3d6000fd5b505050506040513d601f19601f82011682018060405250810190610a1d9190613b95565b604051630969875760e21b815260048101869052602481018590526001600160a01b0391909116906325a61d5c9060440161012060405180830381865afa158015610a6c573d6000803e3d6000fd5b505050506040513d601f19601f82011682018060405250810190610a909190613be9565b905042816060015165ffffffffffff161115610abf57604051633c09460360e11b815260040160405180910390fd5b60008481526002602090815260408083208483015165ffffffffffff16845282528083206001600160a01b038616845290915281205490819003610b04575050505050565b600085815260026020908152604080832087845282528083206001600160a01b0387168452909152812055610b3a858285611989565b826001600160a01b0316826020015165ffffffffffff1686600080516020614e228339815191528433604051610b7192919061395b565b60405180910390a45050505050565b60c081013560009081526020819052604081205460609081906001600160a01b03168015610c2357604051634661ac2360e11b81526001600160a01b03821690638cc3584690610bd4908890600401613d56565b600060405180830381865afa158015610bf1573d6000803e3d6000fd5b505050506040513d6000823e601f3d908101601f19168201604052610c199190810190613e0c565b9094509150610c2c565b84610120013593505b815160c086013560009081526004602090815260408083208054825181850281018501909352808352941515949192909190849084015b82821015610d47576000848152602090819020604080516060810182526003860290920180546001600160a01b0316835260018101549383019390935260028301805492939291840191610cb690613ab7565b80601f0160208091040260200160405190810160405280929190818152602001828054610ce290613ab7565b8015610d2f5780601f10610d0457610100808354040283529160200191610d2f565b820191906000526020600020905b815481529060010190602001808311610d1257829003601f168201915b50505050508152505081526020019060010190610c63565b50505050905060008151905082610d5f576000610d62565b60015b610d6f9060ff1682613f6b565b6001600160401b03811115610d8657610d86612b3e565b604051908082528060200260200182016040528015610dd357816020015b60408051606080820183526000808352602083015291810191909152815260200190600190039081610da45790505b50955060005b81811015610e2057828181518110610df357610df3613b7f565b6020026020010151878281518110610e0d57610e0d613b7f565b6020908102919091010152600101610dd9565b508215610e605784600081518110610e3a57610e3a613b7f565b6020026020010151868281518110610e5457610e54613b7f565b60200260200101819052505b5050505050915091565b610e748433611a38565b60003384848460200135604051602001610e919493929190613f7e565b60408051601f1981840301815291905280516020909101209050610ec88582610eba8580613fb4565b610ec391613ffd565b611a63565b80857f755ecfca2f6e66af8868551556bf7931740a7062db8e0882f4c322fdb0bb3f6086868633604051610eff949392919061400a565b60405180910390a35050505050565b6000808060606001600160a01b037f0000000000000000000000000000000000000000000000000000000000000000166383db9d0160408701803590610f579060208a016139da565b6040518363ffffffff1660e01b8152600401610f7492919061395b565b602060405180830381865afa158015610f91573d6000803e3d6000fd5b505050506040513d601f19601f82011682018060405250810190610fb59190613972565b15610fd25761271093506080850135925060a085013591506111e8565b6040808601356000908152600160205220544210156110045760405163e889f60760e01b815260040160405180910390fd5b600061100e611929565b6001600160a01b031663862026507f000000000000000000000000000000000000000000000000000000000000000061104d60e08a0160c08b016139da565b6040518363ffffffff1660e01b815260040161106a92919061395b565b602060405180830381865afa158015611087573d6000803e3d6000fd5b505050506040513d601f19601f820116820180604052508101906110ab9190613b95565b905061016086013561271014806110c957506001600160a01b038116155b156110ea5785610160013586608001358760a00135945094509450506111e8565b60006110fe608088013560196103e8611afa565b9050600061111c6101208901358360a08b01356101608c0135611bd1565b604080516001808252818301909252919250816020015b604080516060808201835260008083526020830152918101919091528152602001906001900390816111335790505093506040518060600160405280306001600160a01b031681526020018281526020018460405160200161119591906137a1565b604051602081830303815290604052815250846000815181106111ba576111ba613b7f565b60209081029190910101526101608801356111d98360808b01356141c2565b8960a001359650965096505050505b9193509193565b60006111f9611c49565b6001600160a01b031663632af95f83308661121388611ca9565b6000806040518763ffffffff1660e01b8152600401611237969594939291906141d5565b602060405180830381865afa158015611254573d6000803e3d6000fd5b505050506040513d601f19601f820116820180604052508101906112789190613972565b9392505050565b6112898233611a38565b6112c9303366ffffffffffffff851660006040519080825280602002602001820160405280156112c3578160200160208202803683370190505b50611e23565b6112d38282611e9d565b806001600160a01b0316827f0329d6a81434b130c72eb65eea0e32e429dc1277b4aad86ec86454aefb6184513360405161130d91906137a1565b60405180910390a35050565b6000806000611329898787611f61565b91509150896000036113d65788516040908101519051634fb99a3f60e01b81526001600160a01b037f00000000000000000000000000000000000000000000000000000000000000001691634fb99a3f9161138c91309187908e906004016146f4565b6020604051808303816000875af11580156113ab573d6000803e3d6000fd5b505050506040513d601f19601f820116820180604052508101906113cf9190613a50565b9950611651565b7f00000000000000000000000000000000000000000000000000000000000000006001600160a01b031663293c49996040518163ffffffff1660e01b8152600401602060405180830381865afa158015611434573d6000803e3d6000fd5b505050506040513d601f19601f820116820180604052508101906114589190613b95565b6001600160a01b03166342842e0e7f00000000000000000000000000000000000000000000000000000000000000006001600160a01b031663293c49996040518163ffffffff1660e01b8152600401602060405180830381865afa1580156114c4573d6000803e3d6000fd5b505050506040513d601f19601f820116820180604052508101906114e89190613b95565b6001600160a01b0316636352211e8d6040518263ffffffff1660e01b815260040161151591815260200190565b602060405180830381865afa158015611532573d6000803e3d6000fd5b505050506040513d601f19601f820116820180604052508101906115569190613b95565b6040516001600160e01b031960e084901b1681526001600160a01b039091166004820152306024820152604481018d9052606401600060405180830381600087803b1580156115a457600080fd5b505af11580156115b8573d6000803e3d6000fd5b505060405163b1d5968560e01b81526001600160a01b037f000000000000000000000000000000000000000000000000000000000000000016925063b1d59685915061160c908d9086908d9060040161475b565b6020604051808303816000875af115801561162b573d6000803e3d6000fd5b505050506040513d601f19601f8201168201806040525081019061164f9190613a50565b505b6116798a8a6060015160008151811061166c5761166c613b7f565b60200260200101516123b3565b7f00000000000000000000000000000000000000000000000000000000000000006001600160a01b031663581781918b8b60000151600001518c60000151602001518d60000151606001516040518563ffffffff1660e01b81526004016116e394939291906147a2565b6020604051808303816000875af1158015611702573d6000803e3d6000fd5b505050506040513d601f19601f820116820180604052508101906117269190613b95565b5086516001600160a01b031615611741576117418a88612440565b7f00000000000000000000000000000000000000000000000000000000000000006001600160a01b031663ed1159578b60006117808d6040015161257a565b6040518463ffffffff1660e01b815260040161179e939291906147df565b600060405180830381600087803b1580156117b857600080fd5b505af11580156117cc573d6000803e3d6000fd5b505050506117da8a8a6126aa565b6117e88a8a60400151611e9d565b6117f18a6128c4565b6020840151600090156118325733828660200151604051602001611817939291906148e5565b60405160208183030381529060405280519060200120611835565b60005b9050801561184c5761184c8b828760000151611a63565b808b7ff508fc85f2069f367770a68e3aaca6fffdf45a93168764fa7d08aecc9585c4ac8c8c8c8a8989336040516118899796959493929190614ba0565b60405180910390a350989998505050505050505050565b60007f00000000000000000000000000000000000000000000000000000000000000006001600160a01b031663293c49996040518163ffffffff1660e01b8152600401602060405180830381865afa158015611900573d6000803e3d6000fd5b505050506040513d601f19601f820116820180604052508101906119249190613b95565b905090565b60007f00000000000000000000000000000000000000000000000000000000000000006001600160a01b03166388bc2ef36040518163ffffffff1660e01b8152600401602060405180830381865afa158015611900573d6000803e3d6000fd5b6040516363fdc96f60e11b815260048101849052602481018390526001600160a01b03828116604483015260a06064830152600060a4830181905260848301527f0000000000000000000000000000000000000000000000000000000000000000169063c7fb92de9060c4016020604051808303816000875af1158015611a14573d6000803e3d6000fd5b505050506040513d601f19601f820116820180604052508101906107519190613a50565b611a4282826111ef565b611a5f576040516385abdc5960e01b815260040160405180910390fd5b5050565b604051630179fa8760e51b81526001600160a01b037f00000000000000000000000000000000000000000000000000000000000000001690632f3f50e090611ab390869086908690600401614cd9565b6000604051808303816000875af1158015611ad2573d6000803e3d6000fd5b505050506040513d6000823e601f3d908101601f191682016040526107519190810190613af1565b6000808060001985870985870292508281108382030391505080600003611b3457838281611b2a57611b2a614cf8565b0492505050611278565b838110611b6957604051630c740aef60e31b815260048101879052602481018690526044810185905260640160405180910390fd5b600084868809600260036001881981018916988990049182028318808302840302808302840302808302840302808302840302808302840302918202909203026000889003889004909101858311909403939093029303949094049190911702949350505050565b600081600003611be357506000611c41565b828403611bf1575083611c41565b6000611bfe868686611afa565b905061270f198301611c11579050611c41565b611c3d81611c2b87611c25876127106141c2565b88611afa565b611c359086613f6b565b612710611afa565b9150505b949350505050565b60007f00000000000000000000000000000000000000000000000000000000000000006001600160a01b031663f434c9146040518163ffffffff1660e01b8152600401602060405180830381865afa158015611900573d6000803e3d6000fd5b6000818152600360209081526040808320805482518185028101850190935280835260609493830182828015611cfe57602002820191906000526020600020905b815481526020019060010190808311611cea575b50508351939450611d16925083915060039050613f6b565b6001600160401b03811115611d2d57611d2d612b3e565b604051908082528060200260200182016040528015611d56578160200160208202803683370190505b509250601160ff1683600081518110611d7157611d71613b7f565b602002602001018181525050601860ff1683600181518110611d9557611d95613b7f565b602002602001018181525050600660ff1683600281518110611db957611db9613b7f565b60200260200101818152505060005b81811015611e1b57828181518110611de257611de2613b7f565b602002602001015184826003611df89190613f6b565b81518110611e0857611e08613b7f565b6020908102919091010152600101611dc8565b505050919050565b604080516060810182526001600160a01b038516815266ffffffffffffff84166020820152908101829052611e56611c49565b6001600160a01b031663893ce90186836040518363ffffffff1660e01b8152600401611e83929190614d0e565b600060405180830381600087803b15801561073257600080fd5b6000611ea883611ca9565b80519091506000816001600160401b03811115611ec757611ec7612b3e565b604051908082528060200260200182016040528015611ef0578160200160208202803683370190505b50905060005b82811015611f4457838181518110611f1057611f10613b7f565b6020026020010151828281518110611f2a57611f2a613b7f565b60ff90921660209283029190910190910152600101611ef6565b50611f5a30858766ffffffffffffff1684611e23565b5050505050565b6060838101515181906000819003611f8c57604051638ef0479760e01b815260040160405180910390fd5b806001600160401b03811115611fa457611fa4612b3e565b6040519080825280602002602001820160405280156120ae57816020015b61209b6040805161010080820183526000808352602080840182905283850182905260608085018390526080808601849052865161026081018852848152928301849052958201839052810182905293840181905260a084810182905260c0850182905260e0850182905291840181905261012084018190526101408401819052610160840181905261018084018190526101a084018190526101c084018190526101e0840181905261020084018190526102208401819052610240840152909190820190815260200160608152602001606081525090565b815260200190600190039081611fc25790505b5092506120ba86612944565b91506120c4612ad7565b6000805b838110156123a757886060015181815181106120e6576120e6613b7f565b6020026020010151925081836000015164ffffffffff161161211b5760405163cb89a04560e01b815260040160405180910390fd5b826000015164ffffffffff1686828151811061213957612139613b7f565b602090810291909101015165ffffffffffff90911690526080830151865187908390811061216957612169613b7f565b60209081029190910181015163ffffffff90921691015260608301516001600160701b0316156121d55782606001516001600160701b03166001146121ce576121c96001670de0b6b3a764000085606001516001600160701b0316611afa565b6121d8565b60016121d8565b60005b8682815181106121ea576121ea613b7f565b6020026020010151604001906001600160701b031690816001600160701b0316815250508260a0015186828151811061222557612225613b7f565b60200260200101516060019063ffffffff16908163ffffffff1681525050600086828151811061225757612257613b7f565b6020026020010151608001906001600160a01b031690816001600160a01b031681525050604051806102600160405280846040015161ffff1681526020018460c001516127106122a79190614d99565b61ffff908116825260208c81015163ffffffff16908301526000604083018190526060830181905260016080840181905260a0840182905260c0840182905260e08401829052610100840182905261012084018290526101408401829052610160840182905261018084018290526101a084018290526101c08401526101e08301526001600160a01b038b16610200830152891661022090910152865187908390811061235657612356613b7f565b602002602001015160a0018190525084612370848361297e565b604051602001612381929190614dbb565b60408051601f19818403018152919052835190955064ffffffffff1691506001016120c8565b50505050935093915050565b805164ffffffffff1615806123d3575042816000015164ffffffffff1610155b156123dc575050565b60006123eb62278d0042613f6b565b600084815260016020526040908190208290555190915083907f48a9634f50564cfe6648ff5e75795a36873bf96c408523d50017032657e6719890612433908490339061395b565b60405180910390a2505050565b602081810151516040805160808101825260008082529381018490529081018390526060810183905290915b82811015612546578360200151818151811061248a5761248a613b7f565b602090810291909101810151855191810151604080830151606084015184519251633db10e9d60e11b8152600481018c905262ffffff909416602485015263ffffffff91821660448501521660648301526001600160a01b039081166084830152919450911690637b621d3a9060a4016020604051808303816000875af1158015612519573d6000803e3d6000fd5b505050506040513d601f19601f8201168201806040525081019061253d9190613b95565b5060010161246c565b5050905160009283526020839052604090922080546001600160a01b0319166001600160a01b039093169290921790915550565b604080516001808252818301909252606091816020015b60408051808201909152600081526060602082015281526020019060019003908161259157505060408051600180825281830190925291925060009190602082015b6040805160c08101825260008082526020808301829052928201819052606082018190526080820181905260a082015282526000199092019101816125d35750506040805160c0810182526000808252633b9aca0060208301529181018290526001600160a01b03861660608201526080810182905260a0810182905282519293509183919061266557612665613b7f565b6020026020010181905250604051806040016040528060018152602001828152508260008151811061269957612699613b7f565b602002602001018190525050919050565b6060810151516126b8612ad7565b60005b82811015611f5a57836060015181815181106126d9576126d9613b7f565b60200260200101519150600082602001515190506127296040518060600160405280600063ffffffff16815260200160006001600160681b0316815260200160006001600160a01b031681525090565b60005b828110156128b9578460200151818151811061274a5761274a613b7f565b6020026020010151915046826000015163ffffffff16036128b15783158061277d575042856000015164ffffffffff1611155b156127e75761279e8883602001516001600160681b03168460400151611989565b60408201516001600160a01b03166127b68542613f6b565b89600080516020614e228339815191528560200151336040516127da929190614de0565b60405180910390a46128b1565b60208083015160008a81526002909252604082206001600160681b03909116916128118742613f6b565b8152602001908152602001600020600084604001516001600160a01b03166001600160a01b0316815260200190815260200160002060008282546128559190613f6b565b909155505060408201516001600160a01b03166128728542613f6b565b897f9e83979117d75aa75fe101361cf46235d3d0a6fa7afafb275d2b9f8af02273138560200151336040516128a8929190614de0565b60405180910390a45b60010161272c565b5050506001016126bb565b60408051600180825281830190925260009160208083019080368337019050509050601b816000815181106128fb576128fb613b7f565b602002602001019060ff16908160ff1681525050611a5f307f00000000000000000000000000000000000000000000000000000000000000008466ffffffffffffff1684611e23565b60208082015182518051818401516060928301516040519395612968959401614e02565b6040516020818303038152906040529050919050565b6060811580156129945750825164ffffffffff16155b6129a657825164ffffffffff166129a8565b425b6040808501516060860151608087015160a088015160c08901519451612a0b96959060200195865261ffff94851660208701526001600160701b0393909316604086015263ffffffff91821660608601521660808401521660a082015260c00190565b60408051601f1981840301815291905260208401515190915060005b81811015612a815782612a5686602001518381518110612a4957612a49613b7f565b6020026020010151612a89565b604051602001612a67929190614dbb565b60408051601f198184030181529190529250600101612a27565b505092915050565b60608160000151826040015183602001516040516020016129689392919063ffffffff9390931683526001600160a01b039190911660208301526001600160681b0316604082015260600190565b6040805160e08101825260008082526060602083018190529282018190529181018290526080810182905260a0810182905260c081019190915290565b600060208284031215612b2657600080fd5b81356001600160e01b03198116811461127857600080fd5b634e487b7160e01b600052604160045260246000fd5b604051606081016001600160401b0381118282101715612b7657612b76612b3e565b60405290565b60405160e081016001600160401b0381118282101715612b7657612b76612b3e565b604080519081016001600160401b0381118282101715612b7657612b76612b3e565b604051608081016001600160401b0381118282101715612b7657612b76612b3e565b60405161012081016001600160401b0381118282101715612b7657612b76612b3e565b604051601f8201601f191681016001600160401b0381118282101715612c2d57612c2d612b3e565b604052919050565b60006001600160401b03821115612c4e57612c4e612b3e565b50601f01601f191660200190565b600082601f830112612c6d57600080fd5b8135612c80612c7b82612c35565b612c05565b818152846020838601011115612c9557600080fd5b816020850160208301376000918101602001919091529392505050565b63ffffffff81168114612cc457600080fd5b50565b8035612cd281612cb2565b919050565b6001600160a01b0381168114612cc457600080fd5b8035612cd281612cd7565b60006001600160401b03821115612d1057612d10612b3e565b5060051b60200190565b803564ffffffffff81168114612cd257600080fd5b600082601f830112612d4057600080fd5b81356020612d50612c7b83612cf7565b82815260609283028501820192828201919087851115612d6f57600080fd5b8387015b85811015612dde5781818a031215612d8b5760008081fd5b612d93612b54565b8135612d9e81612cb2565b8152818601356001600160681b0381168114612dba5760008081fd5b81870152604082810135612dcd81612cd7565b908201528452928401928101612d73565b5090979650505050505050565b803561ffff81168114612cd257600080fd5b6001600160701b0381168114612cc457600080fd5b8035612cd281612dfd565b600082601f830112612e2e57600080fd5b81356020612e3e612c7b83612cf7565b82815260059290921b84018101918181019086841115612e5d57600080fd5b8286015b84811015612f3e5780356001600160401b0380821115612e815760008081fd5b9088019060e0828b03601f1901811315612e9b5760008081fd5b612ea3612b7c565b612eae888501612d1a565b815260408085013584811115612ec45760008081fd5b612ed28e8b83890101612d2f565b8a8401525060609350612ee6848601612deb565b908201526080612ef7858201612e12565b8483015260a09350612f0a848601612cc7565b9082015260c0612f1b858201612cc7565b84830152612f2a838601612deb565b908201528652505050918301918301612e61565b509695505050505050565b803560ff81168114612cd257600080fd5b600082601f830112612f6b57600080fd5b81356020612f7b612c7b83612cf7565b82815260059290921b84018101918181019086841115612f9a57600080fd5b8286015b84811015612f3e5780356001600160401b0380821115612fbd57600080fd5b908801906040828b03601f1901811315612fd657600080fd5b612fde612b9e565b87840135612feb81612cd7565b81528382013583811115612ffe57600080fd5b8085019450508b603f85011261301357600080fd5b878401359250613025612c7b84612cf7565b83815260609093028401820192888101908d85111561304357600080fd5b948301945b848610156130a7576060868f03121561306057600080fd5b613068612b54565b863561307381612cd7565b8152613080878c01612f49565b8b8201528487013561309181612cb2565b8186015282526060959095019490890190613048565b828a0152508652505050918301918301612f9e565b600060408083850312156130cf57600080fd5b6130d7612b9e565b915082356130e481612cd7565b82526020838101356001600160401b0381111561310057600080fd5b8401601f8101861361311157600080fd5b803561311f612c7b82612cf7565b81815260079190911b8201830190838101908883111561313e57600080fd5b928401925b828410156131c1576080848a03121561315c5760008081fd5b613164612bc0565b843561316f81612cd7565b81528486013562ffffff811681146131875760008081fd5b818701528487013561319881612cb2565b818801526060858101356131ab81612cb2565b9082015282526080939093019290840190613143565b808588015250505050505092915050565b60006131e0612c7b84612cf7565b8381529050602080820190600585901b8401868111156131ff57600080fd5b845b8181101561332c5780356001600160401b03808211156132215760008081fd5b8188019150604080838c0312156132385760008081fd5b613240612b9e565b833561324b81612cd7565b8152838701358381111561325f5760008081fd5b8085019450508b601f85011261327757600092508283fd5b83359250613287612c7b84612cf7565b83815260079390931b8401870192878101908d8511156132a75760008081fd5b948801945b84861015613317576080868f0312156132c55760008081fd5b6132cd612bc0565b86356132d881612cd7565b8152868a01356132e781612cb2565b818b0152868501356132f881612cd7565b81860152606087810135908201528252608090950194908801906132ac565b82890152508752505050928201928201613201565b505050509392505050565b60006040828403121561334957600080fd5b613351612b9e565b905081356001600160401b0381111561336957600080fd5b8201601f8101841361337a57600080fd5b613389848235602084016131d2565b8252506020820135602082015292915050565b600080600080600060a086880312156133b457600080fd5b8535945060208601356001600160401b03808211156133d257600080fd5b908701906080828a0312156133e657600080fd5b6133ee612bc0565b8235828111156133fd57600080fd5b83016080818c03121561340f57600080fd5b613417612bc0565b81358481111561342657600080fd5b6134328d828501612c5c565b82525060208201358481111561344757600080fd5b6134538d828501612c5c565b60208301525060408201358481111561346b57600080fd5b6134778d828501612c5c565b60408301525060608201356060820152808352505061349860208401612cc7565b60208201526134a960408401612cec565b60408201526060830135828111156134c057600080fd5b6134cc8b828601612e1d565b606083015250955060408801359150808211156134e857600080fd5b6134f489838a01612f5a565b9450606088013591508082111561350a57600080fd5b61351689838a016130bc565b9350608088013591508082111561352c57600080fd5b5061353988828901613337565b9150509295509295909350565b60008083601f84011261355857600080fd5b5081356001600160401b0381111561356f57600080fd5b60208301915083602082850101111561358757600080fd5b9250929050565b6000806000806000608086880312156135a657600080fd5b85356135b181612cd7565b945060208601356135c181612cd7565b93506040860135925060608601356001600160401b038111156135e357600080fd5b6135ef88828901613546565b969995985093965092949392505050565b60006020828403121561361257600080fd5b81356001600160401b0381111561362857600080fd5b8201610200818503121561127857600080fd5b60006020828403121561364d57600080fd5b5035919050565b60008060006060848603121561366957600080fd5b8335925060208401359150604084013561368281612cd7565b809150509250925092565b6001600160a01b03169052565b60005b838110156136b557818101518382015260200161369d565b50506000910152565b600081518084526136d681602086016020860161369a565b601f01601f19169290920160200192915050565b600082825180855260208086019550808260051b84010181860160005b84811015612dde57858303601f19018952815180516001600160a01b03168452848101518585015260409081015160609185018290529061374a818601836136be565b9a86019a9450505090830190600101613707565b60208152600061127860208301846136ea565b6000806040838503121561378457600080fd5b82359150602083013561379681612cd7565b809150509250929050565b6001600160a01b0391909116815260200190565b6000602082840312156137c757600080fd5b81356001600160401b038111156137dd57600080fd5b8201610180818503121561127857600080fd5b828152604060208201526000611c4160408301846136ea565b6000806000806060858703121561381f57600080fd5b8435935060208501356001600160401b038082111561383d57600080fd5b61384988838901613546565b9095509350604087013591508082111561386257600080fd5b5085016040818803121561387557600080fd5b939692955090935050565b60006020828403121561389257600080fd5b81356001600160401b038111156138a857600080fd5b82016101a0818503121561127857600080fd5b60006080820186835260208681850152604086604086015260606080606087015283875180865260a08801915060a08160051b890101955084890160005b8281101561394957898803609f19018452815180516001600160a01b0316895287810151888a0152860151868901869052613936868a01826136be565b98505092860192908601906001016138f9565b50959c9b505050505050505050505050565b9182526001600160a01b0316602082015260400190565b60006020828403121561398457600080fd5b8151801515811461127857600080fd5b6000808335601e198436030181126139ab57600080fd5b8301803591506001600160401b038211156139c557600080fd5b60200191503681900382131561358757600080fd5b6000602082840312156139ec57600080fd5b813561127881612cd7565b868152600060018060a01b03808816602084015286604084015280861660608401525083608083015260e060a0830152600060e08301526101008060c0840152613a43818401856136be565b9998505050505050505050565b600060208284031215613a6257600080fd5b5051919050565b85815260018060a01b0385166020820152836040820152821515606082015260c06080820152600060c082015260e060a08201526000613aac60e08301846136be565b979650505050505050565b600181811c90821680613acb57607f821691505b602082108103613aeb57634e487b7160e01b600052602260045260246000fd5b50919050565b60006020808385031215613b0457600080fd5b82516001600160401b03811115613b1a57600080fd5b8301601f81018513613b2b57600080fd5b8051613b39612c7b82612cf7565b81815260059190911b82018301908381019087831115613b5857600080fd5b928401925b82841015613aac578351613b7081612cd7565b82529284019290840190613b5d565b634e487b7160e01b600052603260045260246000fd5b600060208284031215613ba757600080fd5b815161127881612cd7565b805165ffffffffffff81168114612cd257600080fd5b8051612cd281612cb2565b8051612cd281612dfd565b8051612cd281612cd7565b60006101208284031215613bfc57600080fd5b613c04612be2565b613c0d83613bb2565b8152613c1b60208401613bb2565b6020820152613c2c60408401613bb2565b6040820152613c3d60608401613bb2565b6060820152613c4e60808401613bc8565b6080820152613c5f60a08401613bd3565b60a0820152613c7060c08401613bc8565b60c0820152613c8160e08401613bde565b60e0820152610100928301519281019290925250919050565b8035613ca581612cd7565b6001600160a01b0316825260ff613cbe60208301612f49565b1660208301526040810135613cd281612cb2565b63ffffffff166040830152606090810135910152565b6000808335601e19843603018112613cff57600080fd5b83016020810192503590506001600160401b03811115613d1e57600080fd5b80360382131561358757600080fd5b81835281816020850137506000828201602090810191909152601f909101601f19169091010190565b60208152613d6f60208201613d6a84612cec565b61368d565b6000613d7d60208401612cec565b613d8a604084018261368d565b50613d9b6060830160408501613c9a565b60c083013560e083015261010060e084013581840152613dbc818501612cec565b9050610120613dcd8185018361368d565b61014091508085013582850152506101608185013581850152613df281860186613ce8565b610180868101529250905061045c6101a085018383613d2d565b6000806040808486031215613e2057600080fd5b8351602080860151919450906001600160401b0380821115613e4157600080fd5b818701915087601f830112613e5557600080fd5b8151613e63612c7b82612cf7565b81815260059190911b8301840190848101908a831115613e8257600080fd5b8585015b83811015613f4357805185811115613e9d57600080fd5b86016060818e03601f19011215613eb45760008081fd5b613ebc612b54565b88820151613ec981612cd7565b8152818a015189820152606082015187811115613ee65760008081fd5b8083019250508d603f830112613efc5760008081fd5b88820151613f0c612c7b82612c35565b8181528f8c838601011115613f215760008081fd5b613f30828c83018e870161369a565b828c015250845250918601918601613e86565b50809750505050505050509250929050565b634e487b7160e01b600052601160045260246000fd5b8082018082111561099357610993613f55565b6001600160a01b0385168152606060208201819052600090613fa39083018587613d2d565b905082604083015295945050505050565b6000808335601e19843603018112613fcb57600080fd5b8301803591506001600160401b03821115613fe557600080fd5b6020019150600581901b360382131561358757600080fd5b60006112783684846131d2565b60608152600061401e606083018688613d2d565b602083820381850152601e198636030186351261403a57600080fd5b8535860180356001600160401b038082111561405557600080fd5b8160051b3603848401131561406957600080fd5b604085526040850182815260608601905060608360051b8701018585016000605e19873603015b868210156141a057605f198a8503018552808335126140ae57600080fd5b87833501898101356140bf81612cd7565b6001600160a01b03908116865260408201359036839003603e190182126140e557600080fd5b6040928201928301928c0135898111156140fe57600080fd5b8060071b360384131561411057600080fd5b6040888e01819052880181905260608801925060005b81811015614186576141388535612cd7565b8285351684528d85013561414b81612cb2565b63ffffffff16848f0152604085013561416381612cd7565b831660408501526060858101359085015260809485019490930192600101614126565b505050958a01959450509188019160019190910190614090565b505050858b0135868801528097505050505050505061045c604083018461368d565b8181038181111561099357610993613f55565b6001600160a01b03878116825286166020808301919091526040820186905260c06060830181905285519083018190526000918681019160e085019190845b8181101561423057845184529382019392820192600101614214565b5050509415156080840152505090151560a090910152949350505050565b805161ffff168252602081015161426b602084018261ffff169052565b506040810151614283604084018263ffffffff169052565b506060810151614297606084018215159052565b5060808101516142ab608084018215159052565b5060a08101516142bf60a084018215159052565b5060c08101516142d360c084018215159052565b5060e08101516142e760e084018215159052565b5061010081810151151590830152610120808201511515908301526101408082015115159083015261016080820151151590830152610180808201511515908301526101a0808201511515908301526101c0808201511515908301526101e08082015115159083015261020080820151151590830152610220808201516143708285018261368d565b50506102408181015161ffff811684830152610751565b600082825180855260208086019550808260051b8401018186016000805b8581101561446457868403601f19018a52825180518552850151604086860181905281518187018190529187019160609081880190865b8181101561444d5785518051151584528b81015163ffffffff168c8501528581015166ffffffffffffff1686850152848101516001600160a01b039081168686015260808083015165ffffffffffff169086015260a0918201511690840152948a019460c0909201916001016143dc565b50509c88019c9650505092850192506001016143a5565b509198975050505050505050565b60008151808452602080850194506020840160005b838110156144bd57815180516001600160e01b0316885283015163ffffffff168388015260409096019590820190600101614487565b509495945050505050565b600082825180855260208086019550808260051b84010181860160005b84811015612dde57858303601f19018952815180516001600160a01b0390811685528582015116858501526040808201516080828701819052919061452c83880182614472565b925050506060808301519250858203818701525061454a8183614472565b9a86019a94505050908301906001016144e5565b600082825180855260208086019550808260051b84010181860160005b84811015612dde57601f198684030189528151805165ffffffffffff1684528481015163ffffffff908116868601526040808301516001600160701b0316908601526060808301519091169085015260808082015161034091906145e18288018261368d565b505060a0808301516145f58288018261424e565b505060c08201518161030087015261460f82870182614387565b91505060e0820151915084810361032086015261462c81836144c8565b9a86019a945050509083019060010161457b565b600082825180855260208086019550808260051b8401018186016000805b8581101561446457868403601f19018a52825180516001600160a01b03908116865290860151604087870181905281518188018190529188019290916060919082890190875b818110156146dc5786518051851684528c81015160ff168d85015286015163ffffffff1686840152958b0195918401916001016146a4565b50509d89019d9750505093860193505060010161465e565b6001600160a01b038516815260a060208201819052600090614718908301866136be565b828103604084015261472a818661455e565b9050828103606084015261473e8185614640565b838103608090940193909352505060008152602001949350505050565b838152608060208201526000614774608083018561455e565b82810360408401526147868185614640565b8381036060909401939093525050600081526020019392505050565b8481526080602082015260006147bb60808301866136be565b82810360408401526147cd81866136be565b91505082606083015295945050505050565b600060608083018684526020868186015260406060604087015282875180855260808801915060808160051b890101945083890160005b828110156148d457898703607f190184528151805188528601518688018690528051868901819052908701906000908a8a01905b808310156148bf5783518051151583528a81015163ffffffff168b8401528981015166ffffffffffffff168a8401528c8101516001600160a01b039081168e85015260808083015165ffffffffffff169085015260a0918201511690830152928901926001929092019160c09091019061484a565b50985050509285019290850190600101614816565b50949b9a5050505050505050505050565b6001600160a01b0384168152606060208201819052600090614909908301856136be565b9050826040830152949350505050565b600082825180855260208086019550808260051b8401018186016000805b8581101561446457868403601f19018a528251805164ffffffffff1685528581015160e0878701819052815190870181905261010087019188019085905b808210156149c3578251805163ffffffff1685528a8101516001600160681b03168b8601526040908101516001600160a01b0316908501526060909301929189019160019190910190614975565b50505060408281015161ffff908116918801919091526060808401516001600160701b03169088015260808084015163ffffffff9081169189019190915260a0808501519091169088015260c0928301511691909501529884019891840191600101614937565b80516001600160a01b03908116835260208083015160408286018190528151868201819052600094919360609390919082019084890190875b81811015614aab5783518051871684528581015162ffffff16868501528881015163ffffffff9081168a86015290880151168784015292840192608090920191600101614a63565b50909998505050505050505050565b600082825180855260208086019550808260051b8401018186016000805b8581101561446457868403601f19018a52825180516001600160a01b03908116865290860151604087870181905281518188018190529188019290916060919082890190875b81811015614b5f5786518051851684528c81015163ffffffff168d8501528681015185168785015285015185840152958b0195608090920191600101614b1e565b50509d89019d97505050938601935050600101614ad8565b6000815160408452614b8c6040850182614aba565b602093840151949093019390935250919050565b60e0815260008851608060e084015280516080610160850152614bc76101e08501826136be565b9050602082015161015f198086840301610180870152614be783836136be565b92506040840151915080868403016101a087015250614c0682826136be565b606093909301516101c0860152505060208a015163ffffffff1661010084015260408a015190614c3a61012085018361368d565b60608b015184820360df19016101408601529150614c588183614919565b9150508281036020840152614c6d818a614640565b90508281036040840152614c818189614a2a565b90508281036060840152614c958188614b77565b90508281036080840152614ca9818761455e565b905082810360a0840152614cbd81866136be565b915050614ccd60c083018461368d565b98975050505050505050565b83815282602082015260606040820152600061045c6060830184614aba565b634e487b7160e01b600052601260045260246000fd5b600060018060a01b03808516835260206040602085015260a0840182865116604086015266ffffffffffffff6020870151166060860152604086015192506060608086015280835180835260c087019150602085019450600092505b80831015614d8d57845160ff168252938301936001929092019190830190614d6a565b50979650505050505050565b61ffff828116828216039080821115614db457614db4613f55565b5092915050565b604081526000614dce60408301856136be565b828103602084015261045c81856136be565b6001600160681b039290921682526001600160a01b0316602082015260400190565b63ffffffff851681526080602082015260006147bb60808301866136be56fe598baf7bf150ca2f42be9e9f8f55e81d45f5715c3ff22bf46d697fabec7f31d6a2646970667358221220951b089ae92b94782b516e742ae98eb76251549bb4a5b22499fc7a70379ed0c964736f6c63430008170033",
	"deployedBytecode": "0x6080604052600436106100ef5760003560e01c806301ffc9a7146100f45780630d7cfa101461012a578063150b7a02146101585780631680e172146101915780631727f039146101c55780634fa9af69146101da5780635a31dc13146102075780635c0a7cee14610245578063677ce088146102725780637249a7731461029257806382a09b30146102d55780638cc35846146102f5578063b5d2553314610323578063b8a843d714610357578063bb1994021461036e578063c57981b51461038e578063cd817cd0146103a3578063db29c892146103d3578063eb5ad9d9146103f3578063ee0fc12114610413575b600080fd5b34801561010057600080fd5b5061011561010f366004612b14565b50600090565b60405190151581526020015b60405180910390f35b34801561013657600080fd5b5061014a61014536600461339c565b610447565b604051908152602001610121565b34801561016457600080fd5b5061017861017336600461358e565b610465565b6040516001600160e01b03199091168152602001610121565b34801561019d57600080fd5b5061014a7f000000000000000000000000000000000000000000000000000000000000000281565b6101d86101d3366004613600565b61049e565b005b3480156101e657600080fd5b5061014a6101f536600461363b565b60016020526000908152604090205481565b34801561021357600080fd5b5061014a610222366004613654565b600260209081526000938452604080852082529284528284209052825290205481565b34801561025157600080fd5b5061026561026036600461363b565b610757565b604051610121919061375e565b34801561027e57600080fd5b5061011561028d366004613771565b61087b565b34801561029e57600080fd5b506102c86102ad36600461363b565b6000602081905290815260409020546001600160a01b031681565b60405161012191906137a1565b3480156102e157600080fd5b506101d86102f0366004613654565b610999565b34801561030157600080fd5b506103156103103660046137b5565b610b80565b6040516101219291906137f0565b34801561032f57600080fd5b506102c87f000000000000000000000000dba05c1525a7d6255dc637edd58c849acb635d2581565b34801561036357600080fd5b5061014a62278d0081565b34801561037a57600080fd5b506101d8610389366004613809565b610e6a565b34801561039a57600080fd5b5061014a601981565b3480156103af57600080fd5b506103c36103be366004613880565b610f0e565b60405161012194939291906138bb565b3480156103df57600080fd5b506101156103ee366004613771565b6111ef565b3480156103ff57600080fd5b506101d861040e366004613771565b61127f565b34801561041f57600080fd5b506102c87f00000000000000000000000064c30002444321c4504c8f1b9b04c95de3731fd281565b60006104598686868630600088611319565b90505b95945050505050565b600061046f6118a0565b6001600160a01b0316336001600160a01b03161461048c57600080fd5b50630a85bd0160e11b95945050505050565b6104a6611929565b6001600160a01b0316636e49181f8260200135336040518363ffffffff1660e01b81526004016104d792919061395b565b602060405180830381865afa1580156104f4573d6000803e3d6000fd5b505050506040513d601f19601f820116820180604052508101906105189190613972565b610535576040516385abdc5960e01b815260040160405180910390fd5b60006105456101c0830183613994565b81019061055291906139da565b9050600061eeee61056b610120850161010086016139da565b6001600160a01b031614610580576000610587565b6101608301355b90506001600160a01b03821663fef43257827f00000000000000000000000000000000000000000000000000000000000000026105cc610120880161010089016139da565b6101608801356105df60208a018a6139da565b60008a602001356040516020016105f891815260200190565b6040516020818303038152906040526040518863ffffffff1660e01b8152600401610628969594939291906139f7565b60206040518083038185885af193505050508015610663575060408051601f3d908101601f1916820190925261066091810190613a50565b60015b610751573d808015610691576040519150601f19603f3d011682016040523d82523d6000602084013e610696565b606091505b5033639e6eec058360208701356106b561012089016101008a016139da565b604080517f000000000000000000000000000000000000000000000000000000000000000260208201526101608b013591600091016040516020818303038152906040526040518763ffffffff1660e01b8152600401610719959493929190613a69565b6000604051808303818588803b15801561073257600080fd5b505af1158015610746573d6000803e3d6000fd5b505050505050505050565b50505050565b606060046000838152602001908152602001600020805480602002602001604051908101604052809291908181526020016000905b82821015610870576000848152602090819020604080516060810182526003860290920180546001600160a01b03168352600181015493830193909352600283018054929392918401916107df90613ab7565b80601f016020809104026020016040519081016040528092919081815260200182805461080b90613ab7565b80156108585780601f1061082d57610100808354040283529160200191610858565b820191906000526020600020905b81548152906001019060200180831161083b57829003601f168201915b5050505050815250508152602001906001019061078c565b505050509050919050565b6000828152602081905260408120546001600160a01b03908116908316036108a557506001610993565b604051633d12cb8760e01b8152600481018490526000907f000000000000000000000000dba05c1525a7d6255dc637edd58c849acb635d256001600160a01b031690633d12cb8790602401600060405180830381865afa15801561090d573d6000803e3d6000fd5b505050506040513d6000823e601f3d908101601f191682016040526109359190810190613af1565b805190915060005b8181101561098b5782818151811061095757610957613b7f565b60200260200101516001600160a01b0316856001600160a01b0316036109835760019350505050610993565b60010161093d565b506000925050505b92915050565b60007f00000000000000000000000064c30002444321c4504c8f1b9b04c95de3731fd26001600160a01b031663d4a1b4b16040518163ffffffff1660e01b8152600401602060405180830381865afa1580156109f9573d6000803e3d6000fd5b505050506040513d601f19601f82011682018060405250810190610a1d9190613b95565b604051630969875760e21b815260048101869052602481018590526001600160a01b0391909116906325a61d5c9060440161012060405180830381865afa158015610a6c573d6000803e3d6000fd5b505050506040513d601f19601f82011682018060405250810190610a909190613be9565b905042816060015165ffffffffffff161115610abf57604051633c09460360e11b815260040160405180910390fd5b60008481526002602090815260408083208483015165ffffffffffff16845282528083206001600160a01b038616845290915281205490819003610b04575050505050565b600085815260026020908152604080832087845282528083206001600160a01b0387168452909152812055610b3a858285611989565b826001600160a01b0316826020015165ffffffffffff1686600080516020614e228339815191528433604051610b7192919061395b565b60405180910390a45050505050565b60c081013560009081526020819052604081205460609081906001600160a01b03168015610c2357604051634661ac2360e11b81526001600160a01b03821690638cc3584690610bd4908890600401613d56565b600060405180830381865afa158015610bf1573d6000803e3d6000fd5b505050506040513d6000823e601f3d908101601f19168201604052610c199190810190613e0c565b9094509150610c2c565b84610120013593505b815160c086013560009081526004602090815260408083208054825181850281018501909352808352941515949192909190849084015b82821015610d47576000848152602090819020604080516060810182526003860290920180546001600160a01b0316835260018101549383019390935260028301805492939291840191610cb690613ab7565b80601f0160208091040260200160405190810160405280929190818152602001828054610ce290613ab7565b8015610d2f5780601f10610d0457610100808354040283529160200191610d2f565b820191906000526020600020905b815481529060010190602001808311610d1257829003601f168201915b50505050508152505081526020019060010190610c63565b50505050905060008151905082610d5f576000610d62565b60015b610d6f9060ff1682613f6b565b6001600160401b03811115610d8657610d86612b3e565b604051908082528060200260200182016040528015610dd357816020015b60408051606080820183526000808352602083015291810191909152815260200190600190039081610da45790505b50955060005b81811015610e2057828181518110610df357610df3613b7f565b6020026020010151878281518110610e0d57610e0d613b7f565b6020908102919091010152600101610dd9565b508215610e605784600081518110610e3a57610e3a613b7f565b6020026020010151868281518110610e5457610e54613b7f565b60200260200101819052505b5050505050915091565b610e748433611a38565b60003384848460200135604051602001610e919493929190613f7e565b60408051601f1981840301815291905280516020909101209050610ec88582610eba8580613fb4565b610ec391613ffd565b611a63565b80857f755ecfca2f6e66af8868551556bf7931740a7062db8e0882f4c322fdb0bb3f6086868633604051610eff949392919061400a565b60405180910390a35050505050565b6000808060606001600160a01b037f000000000000000000000000dba05c1525a7d6255dc637edd58c849acb635d25166383db9d0160408701803590610f579060208a016139da565b6040518363ffffffff1660e01b8152600401610f7492919061395b565b602060405180830381865afa158015610f91573d6000803e3d6000fd5b505050506040513d601f19601f82011682018060405250810190610fb59190613972565b15610fd25761271093506080850135925060a085013591506111e8565b6040808601356000908152600160205220544210156110045760405163e889f60760e01b815260040160405180910390fd5b600061100e611929565b6001600160a01b031663862026507f000000000000000000000000000000000000000000000000000000000000000261104d60e08a0160c08b016139da565b6040518363ffffffff1660e01b815260040161106a92919061395b565b602060405180830381865afa158015611087573d6000803e3d6000fd5b505050506040513d601f19601f820116820180604052508101906110ab9190613b95565b905061016086013561271014806110c957506001600160a01b038116155b156110ea5785610160013586608001358760a00135945094509450506111e8565b60006110fe608088013560196103e8611afa565b9050600061111c6101208901358360a08b01356101608c0135611bd1565b604080516001808252818301909252919250816020015b604080516060808201835260008083526020830152918101919091528152602001906001900390816111335790505093506040518060600160405280306001600160a01b031681526020018281526020018460405160200161119591906137a1565b604051602081830303815290604052815250846000815181106111ba576111ba613b7f565b60209081029190910101526101608801356111d98360808b01356141c2565b8960a001359650965096505050505b9193509193565b60006111f9611c49565b6001600160a01b031663632af95f83308661121388611ca9565b6000806040518763ffffffff1660e01b8152600401611237969594939291906141d5565b602060405180830381865afa158015611254573d6000803e3d6000fd5b505050506040513d601f19601f820116820180604052508101906112789190613972565b9392505050565b6112898233611a38565b6112c9303366ffffffffffffff851660006040519080825280602002602001820160405280156112c3578160200160208202803683370190505b50611e23565b6112d38282611e9d565b806001600160a01b0316827f0329d6a81434b130c72eb65eea0e32e429dc1277b4aad86ec86454aefb6184513360405161130d91906137a1565b60405180910390a35050565b6000806000611329898787611f61565b91509150896000036113d65788516040908101519051634fb99a3f60e01b81526001600160a01b037f00000000000000000000000064c30002444321c4504c8f1b9b04c95de3731fd21691634fb99a3f9161138c91309187908e906004016146f4565b6020604051808303816000875af11580156113ab573d6000803e3d6000fd5b505050506040513d601f19601f820116820180604052508101906113cf9190613a50565b9950611651565b7f00000000000000000000000064c30002444321c4504c8f1b9b04c95de3731fd26001600160a01b031663293c49996040518163ffffffff1660e01b8152600401602060405180830381865afa158015611434573d6000803e3d6000fd5b505050506040513d601f19601f820116820180604052508101906114589190613b95565b6001600160a01b03166342842e0e7f00000000000000000000000064c30002444321c4504c8f1b9b04c95de3731fd26001600160a01b031663293c49996040518163ffffffff1660e01b8152600401602060405180830381865afa1580156114c4573d6000803e3d6000fd5b505050506040513d601f19601f820116820180604052508101906114e89190613b95565b6001600160a01b0316636352211e8d6040518263ffffffff1660e01b815260040161151591815260200190565b602060405180830381865afa158015611532573d6000803e3d6000fd5b505050506040513d601f19601f820116820180604052508101906115569190613b95565b6040516001600160e01b031960e084901b1681526001600160a01b039091166004820152306024820152604481018d9052606401600060405180830381600087803b1580156115a457600080fd5b505af11580156115b8573d6000803e3d6000fd5b505060405163b1d5968560e01b81526001600160a01b037f00000000000000000000000064c30002444321c4504c8f1b9b04c95de3731fd216925063b1d59685915061160c908d9086908d9060040161475b565b6020604051808303816000875af115801561162b573d6000803e3d6000fd5b505050506040513d601f19601f8201168201806040525081019061164f9190613a50565b505b6116798a8a6060015160008151811061166c5761166c613b7f565b60200260200101516123b3565b7f00000000000000000000000064c30002444321c4504c8f1b9b04c95de3731fd26001600160a01b031663581781918b8b60000151600001518c60000151602001518d60000151606001516040518563ffffffff1660e01b81526004016116e394939291906147a2565b6020604051808303816000875af1158015611702573d6000803e3d6000fd5b505050506040513d601f19601f820116820180604052508101906117269190613b95565b5086516001600160a01b031615611741576117418a88612440565b7f00000000000000000000000064c30002444321c4504c8f1b9b04c95de3731fd26001600160a01b031663ed1159578b60006117808d6040015161257a565b6040518463ffffffff1660e01b815260040161179e939291906147df565b600060405180830381600087803b1580156117b857600080fd5b505af11580156117cc573d6000803e3d6000fd5b505050506117da8a8a6126aa565b6117e88a8a60400151611e9d565b6117f18a6128c4565b6020840151600090156118325733828660200151604051602001611817939291906148e5565b60405160208183030381529060405280519060200120611835565b60005b9050801561184c5761184c8b828760000151611a63565b808b7ff508fc85f2069f367770a68e3aaca6fffdf45a93168764fa7d08aecc9585c4ac8c8c8c8a8989336040516118899796959493929190614ba0565b60405180910390a350989998505050505050505050565b60007f00000000000000000000000064c30002444321c4504c8f1b9b04c95de3731fd26001600160a01b031663293c49996040518163ffffffff1660e01b8152600401602060405180830381865afa158015611900573d6000803e3d6000fd5b505050506040513d601f19601f820116820180604052508101906119249190613b95565b905090565b60007f00000000000000000000000064c30002444321c4504c8f1b9b04c95de3731fd26001600160a01b03166388bc2ef36040518163ffffffff1660e01b8152600401602060405180830381865afa158015611900573d6000803e3d6000fd5b6040516363fdc96f60e11b815260048101849052602481018390526001600160a01b03828116604483015260a06064830152600060a4830181905260848301527f00000000000000000000000064c30002444321c4504c8f1b9b04c95de3731fd2169063c7fb92de9060c4016020604051808303816000875af1158015611a14573d6000803e3d6000fd5b505050506040513d601f19601f820116820180604052508101906107519190613a50565b611a4282826111ef565b611a5f576040516385abdc5960e01b815260040160405180910390fd5b5050565b604051630179fa8760e51b81526001600160a01b037f000000000000000000000000dba05c1525a7d6255dc637edd58c849acb635d251690632f3f50e090611ab390869086908690600401614cd9565b6000604051808303816000875af1158015611ad2573d6000803e3d6000fd5b505050506040513d6000823e601f3d908101601f191682016040526107519190810190613af1565b6000808060001985870985870292508281108382030391505080600003611b3457838281611b2a57611b2a614cf8565b0492505050611278565b838110611b6957604051630c740aef60e31b815260048101879052602481018690526044810185905260640160405180910390fd5b600084868809600260036001881981018916988990049182028318808302840302808302840302808302840302808302840302808302840302918202909203026000889003889004909101858311909403939093029303949094049190911702949350505050565b600081600003611be357506000611c41565b828403611bf1575083611c41565b6000611bfe868686611afa565b905061270f198301611c11579050611c41565b611c3d81611c2b87611c25876127106141c2565b88611afa565b611c359086613f6b565b612710611afa565b9150505b949350505050565b60007f00000000000000000000000064c30002444321c4504c8f1b9b04c95de3731fd26001600160a01b031663f434c9146040518163ffffffff1660e01b8152600401602060405180830381865afa158015611900573d6000803e3d6000fd5b6000818152600360209081526040808320805482518185028101850190935280835260609493830182828015611cfe57602002820191906000526020600020905b815481526020019060010190808311611cea575b50508351939450611d16925083915060039050613f6b565b6001600160401b03811115611d2d57611d2d612b3e565b604051908082528060200260200182016040528015611d56578160200160208202803683370190505b509250601160ff1683600081518110611d7157611d71613b7f565b602002602001018181525050601860ff1683600181518110611d9557611d95613b7f565b602002602001018181525050600660ff1683600281518110611db957611db9613b7f565b60200260200101818152505060005b81811015611e1b57828181518110611de257611de2613b7f565b602002602001015184826003611df89190613f6b565b81518110611e0857611e08613b7f565b6020908102919091010152600101611dc8565b505050919050565b604080516060810182526001600160a01b038516815266ffffffffffffff84166020820152908101829052611e56611c49565b6001600160a01b031663893ce90186836040518363ffffffff1660e01b8152600401611e83929190614d0e565b600060405180830381600087803b15801561073257600080fd5b6000611ea883611ca9565b80519091506000816001600160401b03811115611ec757611ec7612b3e565b604051908082528060200260200182016040528015611ef0578160200160208202803683370190505b50905060005b82811015611f4457838181518110611f1057611f10613b7f565b6020026020010151828281518110611f2a57611f2a613b7f565b60ff90921660209283029190910190910152600101611ef6565b50611f5a30858766ffffffffffffff1684611e23565b5050505050565b6060838101515181906000819003611f8c57604051638ef0479760e01b815260040160405180910390fd5b806001600160401b03811115611fa457611fa4612b3e565b6040519080825280602002602001820160405280156120ae57816020015b61209b6040805161010080820183526000808352602080840182905283850182905260608085018390526080808601849052865161026081018852848152928301849052958201839052810182905293840181905260a084810182905260c0850182905260e0850182905291840181905261012084018190526101408401819052610160840181905261018084018190526101a084018190526101c084018190526101e0840181905261020084018190526102208401819052610240840152909190820190815260200160608152602001606081525090565b815260200190600190039081611fc25790505b5092506120ba86612944565b91506120c4612ad7565b6000805b838110156123a757886060015181815181106120e6576120e6613b7f565b6020026020010151925081836000015164ffffffffff161161211b5760405163cb89a04560e01b815260040160405180910390fd5b826000015164ffffffffff1686828151811061213957612139613b7f565b602090810291909101015165ffffffffffff90911690526080830151865187908390811061216957612169613b7f565b60209081029190910181015163ffffffff90921691015260608301516001600160701b0316156121d55782606001516001600160701b03166001146121ce576121c96001670de0b6b3a764000085606001516001600160701b0316611afa565b6121d8565b60016121d8565b60005b8682815181106121ea576121ea613b7f565b6020026020010151604001906001600160701b031690816001600160701b0316815250508260a0015186828151811061222557612225613b7f565b60200260200101516060019063ffffffff16908163ffffffff1681525050600086828151811061225757612257613b7f565b6020026020010151608001906001600160a01b031690816001600160a01b031681525050604051806102600160405280846040015161ffff1681526020018460c001516127106122a79190614d99565b61ffff908116825260208c81015163ffffffff16908301526000604083018190526060830181905260016080840181905260a0840182905260c0840182905260e08401829052610100840182905261012084018290526101408401829052610160840182905261018084018290526101a084018290526101c08401526101e08301526001600160a01b038b16610200830152891661022090910152865187908390811061235657612356613b7f565b602002602001015160a0018190525084612370848361297e565b604051602001612381929190614dbb565b60408051601f19818403018152919052835190955064ffffffffff1691506001016120c8565b50505050935093915050565b805164ffffffffff1615806123d3575042816000015164ffffffffff1610155b156123dc575050565b60006123eb62278d0042613f6b565b600084815260016020526040908190208290555190915083907f48a9634f50564cfe6648ff5e75795a36873bf96c408523d50017032657e6719890612433908490339061395b565b60405180910390a2505050565b602081810151516040805160808101825260008082529381018490529081018390526060810183905290915b82811015612546578360200151818151811061248a5761248a613b7f565b602090810291909101810151855191810151604080830151606084015184519251633db10e9d60e11b8152600481018c905262ffffff909416602485015263ffffffff91821660448501521660648301526001600160a01b039081166084830152919450911690637b621d3a9060a4016020604051808303816000875af1158015612519573d6000803e3d6000fd5b505050506040513d601f19601f8201168201806040525081019061253d9190613b95565b5060010161246c565b5050905160009283526020839052604090922080546001600160a01b0319166001600160a01b039093169290921790915550565b604080516001808252818301909252606091816020015b60408051808201909152600081526060602082015281526020019060019003908161259157505060408051600180825281830190925291925060009190602082015b6040805160c08101825260008082526020808301829052928201819052606082018190526080820181905260a082015282526000199092019101816125d35750506040805160c0810182526000808252633b9aca0060208301529181018290526001600160a01b03861660608201526080810182905260a0810182905282519293509183919061266557612665613b7f565b6020026020010181905250604051806040016040528060018152602001828152508260008151811061269957612699613b7f565b602002602001018190525050919050565b6060810151516126b8612ad7565b60005b82811015611f5a57836060015181815181106126d9576126d9613b7f565b60200260200101519150600082602001515190506127296040518060600160405280600063ffffffff16815260200160006001600160681b0316815260200160006001600160a01b031681525090565b60005b828110156128b9578460200151818151811061274a5761274a613b7f565b6020026020010151915046826000015163ffffffff16036128b15783158061277d575042856000015164ffffffffff1611155b156127e75761279e8883602001516001600160681b03168460400151611989565b60408201516001600160a01b03166127b68542613f6b565b89600080516020614e228339815191528560200151336040516127da929190614de0565b60405180910390a46128b1565b60208083015160008a81526002909252604082206001600160681b03909116916128118742613f6b565b8152602001908152602001600020600084604001516001600160a01b03166001600160a01b0316815260200190815260200160002060008282546128559190613f6b565b909155505060408201516001600160a01b03166128728542613f6b565b897f9e83979117d75aa75fe101361cf46235d3d0a6fa7afafb275d2b9f8af02273138560200151336040516128a8929190614de0565b60405180910390a45b60010161272c565b5050506001016126bb565b60408051600180825281830190925260009160208083019080368337019050509050601b816000815181106128fb576128fb613b7f565b602002602001019060ff16908160ff1681525050611a5f307f000000000000000000000000dba05c1525a7d6255dc637edd58c849acb635d258466ffffffffffffff1684611e23565b60208082015182518051818401516060928301516040519395612968959401614e02565b6040516020818303038152906040529050919050565b6060811580156129945750825164ffffffffff16155b6129a657825164ffffffffff166129a8565b425b6040808501516060860151608087015160a088015160c08901519451612a0b96959060200195865261ffff94851660208701526001600160701b0393909316604086015263ffffffff91821660608601521660808401521660a082015260c00190565b60408051601f1981840301815291905260208401515190915060005b81811015612a815782612a5686602001518381518110612a4957612a49613b7f565b6020026020010151612a89565b604051602001612a67929190614dbb565b60408051601f198184030181529190529250600101612a27565b505092915050565b60608160000151826040015183602001516040516020016129689392919063ffffffff9390931683526001600160a01b039190911660208301526001600160681b0316604082015260600190565b6040805160e08101825260008082526060602083018190529282018190529181018290526080810182905260a0810182905260c081019190915290565b600060208284031215612b2657600080fd5b81356001600160e01b03198116811461127857600080fd5b634e487b7160e01b600052604160045260246000fd5b604051606081016001600160401b0381118282101715612b7657612b76612b3e565b60405290565b60405160e081016001600160401b0381118282101715612b7657612b76612b3e565b604080519081016001600160401b0381118282101715612b7657612b76612b3e565b604051608081016001600160401b0381118282101715612b7657612b76612b3e565b60405161012081016001600160401b0381118282101715612b7657612b76612b3e565b604051601f8201601f191681016001600160401b0381118282101715612c2d57612c2d612b3e565b604052919050565b60006001600160401b03821115612c4e57612c4e612b3e565b50601f01601f191660200190565b600082601f830112612c6d57600080fd5b8135612c80612c7b82612c35565b612c05565b818152846020838601011115612c9557600080fd5b816020850160208301376000918101602001919091529392505050565b63ffffffff81168114612cc457600080fd5b50565b8035612cd281612cb2565b919050565b6001600160a01b0381168114612cc457600080fd5b8035612cd281612cd7565b60006001600160401b03821115612d1057612d10612b3e565b5060051b60200190565b803564ffffffffff81168114612cd257600080fd5b600082601f830112612d4057600080fd5b81356020612d50612c7b83612cf7565b82815260609283028501820192828201919087851115612d6f57600080fd5b8387015b85811015612dde5781818a031215612d8b5760008081fd5b612d93612b54565b8135612d9e81612cb2565b8152818601356001600160681b0381168114612dba5760008081fd5b81870152604082810135612dcd81612cd7565b908201528452928401928101612d73565b5090979650505050505050565b803561ffff81168114612cd257600080fd5b6001600160701b0381168114612cc457600080fd5b8035612cd281612dfd565b600082601f830112612e2e57600080fd5b81356020612e3e612c7b83612cf7565b82815260059290921b84018101918181019086841115612e5d57600080fd5b8286015b84811015612f3e5780356001600160401b0380821115612e815760008081fd5b9088019060e0828b03601f1901811315612e9b5760008081fd5b612ea3612b7c565b612eae888501612d1a565b815260408085013584811115612ec45760008081fd5b612ed28e8b83890101612d2f565b8a8401525060609350612ee6848601612deb565b908201526080612ef7858201612e12565b8483015260a09350612f0a848601612cc7565b9082015260c0612f1b858201612cc7565b84830152612f2a838601612deb565b908201528652505050918301918301612e61565b509695505050505050565b803560ff81168114612cd257600080fd5b600082601f830112612f6b57600080fd5b81356020612f7b612c7b83612cf7565b82815260059290921b84018101918181019086841115612f9a57600080fd5b8286015b84811015612f3e5780356001600160401b0380821115612fbd57600080fd5b908801906040828b03601f1901811315612fd657600080fd5b612fde612b9e565b87840135612feb81612cd7565b81528382013583811115612ffe57600080fd5b8085019450508b603f85011261301357600080fd5b878401359250613025612c7b84612cf7565b83815260609093028401820192888101908d85111561304357600080fd5b948301945b848610156130a7576060868f03121561306057600080fd5b613068612b54565b863561307381612cd7565b8152613080878c01612f49565b8b8201528487013561309181612cb2565b8186015282526060959095019490890190613048565b828a0152508652505050918301918301612f9e565b600060408083850312156130cf57600080fd5b6130d7612b9e565b915082356130e481612cd7565b82526020838101356001600160401b0381111561310057600080fd5b8401601f8101861361311157600080fd5b803561311f612c7b82612cf7565b81815260079190911b8201830190838101908883111561313e57600080fd5b928401925b828410156131c1576080848a03121561315c5760008081fd5b613164612bc0565b843561316f81612cd7565b81528486013562ffffff811681146131875760008081fd5b818701528487013561319881612cb2565b818801526060858101356131ab81612cb2565b9082015282526080939093019290840190613143565b808588015250505050505092915050565b60006131e0612c7b84612cf7565b8381529050602080820190600585901b8401868111156131ff57600080fd5b845b8181101561332c5780356001600160401b03808211156132215760008081fd5b8188019150604080838c0312156132385760008081fd5b613240612b9e565b833561324b81612cd7565b8152838701358381111561325f5760008081fd5b8085019450508b601f85011261327757600092508283fd5b83359250613287612c7b84612cf7565b83815260079390931b8401870192878101908d8511156132a75760008081fd5b948801945b84861015613317576080868f0312156132c55760008081fd5b6132cd612bc0565b86356132d881612cd7565b8152868a01356132e781612cb2565b818b0152868501356132f881612cd7565b81860152606087810135908201528252608090950194908801906132ac565b82890152508752505050928201928201613201565b505050509392505050565b60006040828403121561334957600080fd5b613351612b9e565b905081356001600160401b0381111561336957600080fd5b8201601f8101841361337a57600080fd5b613389848235602084016131d2565b8252506020820135602082015292915050565b600080600080600060a086880312156133b457600080fd5b8535945060208601356001600160401b03808211156133d257600080fd5b908701906080828a0312156133e657600080fd5b6133ee612bc0565b8235828111156133fd57600080fd5b83016080818c03121561340f57600080fd5b613417612bc0565b81358481111561342657600080fd5b6134328d828501612c5c565b82525060208201358481111561344757600080fd5b6134538d828501612c5c565b60208301525060408201358481111561346b57600080fd5b6134778d828501612c5c565b60408301525060608201356060820152808352505061349860208401612cc7565b60208201526134a960408401612cec565b60408201526060830135828111156134c057600080fd5b6134cc8b828601612e1d565b606083015250955060408801359150808211156134e857600080fd5b6134f489838a01612f5a565b9450606088013591508082111561350a57600080fd5b61351689838a016130bc565b9350608088013591508082111561352c57600080fd5b5061353988828901613337565b9150509295509295909350565b60008083601f84011261355857600080fd5b5081356001600160401b0381111561356f57600080fd5b60208301915083602082850101111561358757600080fd5b9250929050565b6000806000806000608086880312156135a657600080fd5b85356135b181612cd7565b945060208601356135c181612cd7565b93506040860135925060608601356001600160401b038111156135e357600080fd5b6135ef88828901613546565b969995985093965092949392505050565b60006020828403121561361257600080fd5b81356001600160401b0381111561362857600080fd5b8201610200818503121561127857600080fd5b60006020828403121561364d57600080fd5b5035919050565b60008060006060848603121561366957600080fd5b8335925060208401359150604084013561368281612cd7565b809150509250925092565b6001600160a01b03169052565b60005b838110156136b557818101518382015260200161369d565b50506000910152565b600081518084526136d681602086016020860161369a565b601f01601f19169290920160200192915050565b600082825180855260208086019550808260051b84010181860160005b84811015612dde57858303601f19018952815180516001600160a01b03168452848101518585015260409081015160609185018290529061374a818601836136be565b9a86019a9450505090830190600101613707565b60208152600061127860208301846136ea565b6000806040838503121561378457600080fd5b82359150602083013561379681612cd7565b809150509250929050565b6001600160a01b0391909116815260200190565b6000602082840312156137c757600080fd5b81356001600160401b038111156137dd57600080fd5b8201610180818503121561127857600080fd5b828152604060208201526000611c4160408301846136ea565b6000806000806060858703121561381f57600080fd5b8435935060208501356001600160401b038082111561383d57600080fd5b61384988838901613546565b9095509350604087013591508082111561386257600080fd5b5085016040818803121561387557600080fd5b939692955090935050565b60006020828403121561389257600080fd5b81356001600160401b038111156138a857600080fd5b82016101a0818503121561127857600080fd5b60006080820186835260208681850152604086604086015260606080606087015283875180865260a08801915060a08160051b890101955084890160005b8281101561394957898803609f19018452815180516001600160a01b0316895287810151888a0152860151868901869052613936868a01826136be565b98505092860192908601906001016138f9565b50959c9b505050505050505050505050565b9182526001600160a01b0316602082015260400190565b60006020828403121561398457600080fd5b8151801515811461127857600080fd5b6000808335601e198436030181126139ab57600080fd5b8301803591506001600160401b038211156139c557600080fd5b60200191503681900382131561358757600080fd5b6000602082840312156139ec57600080fd5b813561127881612cd7565b868152600060018060a01b03808816602084015286604084015280861660608401525083608083015260e060a0830152600060e08301526101008060c0840152613a43818401856136be565b9998505050505050505050565b600060208284031215613a6257600080fd5b5051919050565b85815260018060a01b0385166020820152836040820152821515606082015260c06080820152600060c082015260e060a08201526000613aac60e08301846136be565b979650505050505050565b600181811c90821680613acb57607f821691505b602082108103613aeb57634e487b7160e01b600052602260045260246000fd5b50919050565b60006020808385031215613b0457600080fd5b82516001600160401b03811115613b1a57600080fd5b8301601f81018513613b2b57600080fd5b8051613b39612c7b82612cf7565b81815260059190911b82018301908381019087831115613b5857600080fd5b928401925b82841015613aac578351613b7081612cd7565b82529284019290840190613b5d565b634e487b7160e01b600052603260045260246000fd5b600060208284031215613ba757600080fd5b815161127881612cd7565b805165ffffffffffff81168114612cd257600080fd5b8051612cd281612cb2565b8051612cd281612dfd565b8051612cd281612cd7565b60006101208284031215613bfc57600080fd5b613c04612be2565b613c0d83613bb2565b8152613c1b60208401613bb2565b6020820152613c2c60408401613bb2565b6040820152613c3d60608401613bb2565b6060820152613c4e60808401613bc8565b6080820152613c5f60a08401613bd3565b60a0820152613c7060c08401613bc8565b60c0820152613c8160e08401613bde565b60e0820152610100928301519281019290925250919050565b8035613ca581612cd7565b6001600160a01b0316825260ff613cbe60208301612f49565b1660208301526040810135613cd281612cb2565b63ffffffff166040830152606090810135910152565b6000808335601e19843603018112613cff57600080fd5b83016020810192503590506001600160401b03811115613d1e57600080fd5b80360382131561358757600080fd5b81835281816020850137506000828201602090810191909152601f909101601f19169091010190565b60208152613d6f60208201613d6a84612cec565b61368d565b6000613d7d60208401612cec565b613d8a604084018261368d565b50613d9b6060830160408501613c9a565b60c083013560e083015261010060e084013581840152613dbc818501612cec565b9050610120613dcd8185018361368d565b61014091508085013582850152506101608185013581850152613df281860186613ce8565b610180868101529250905061045c6101a085018383613d2d565b6000806040808486031215613e2057600080fd5b8351602080860151919450906001600160401b0380821115613e4157600080fd5b818701915087601f830112613e5557600080fd5b8151613e63612c7b82612cf7565b81815260059190911b8301840190848101908a831115613e8257600080fd5b8585015b83811015613f4357805185811115613e9d57600080fd5b86016060818e03601f19011215613eb45760008081fd5b613ebc612b54565b88820151613ec981612cd7565b8152818a015189820152606082015187811115613ee65760008081fd5b8083019250508d603f830112613efc5760008081fd5b88820151613f0c612c7b82612c35565b8181528f8c838601011115613f215760008081fd5b613f30828c83018e870161369a565b828c015250845250918601918601613e86565b50809750505050505050509250929050565b634e487b7160e01b600052601160045260246000fd5b8082018082111561099357610993613f55565b6001600160a01b0385168152606060208201819052600090613fa39083018587613d2d565b905082604083015295945050505050565b6000808335601e19843603018112613fcb57600080fd5b8301803591506001600160401b03821115613fe557600080fd5b6020019150600581901b360382131561358757600080fd5b60006112783684846131d2565b60608152600061401e606083018688613d2d565b602083820381850152601e198636030186351261403a57600080fd5b8535860180356001600160401b038082111561405557600080fd5b8160051b3603848401131561406957600080fd5b604085526040850182815260608601905060608360051b8701018585016000605e19873603015b868210156141a057605f198a8503018552808335126140ae57600080fd5b87833501898101356140bf81612cd7565b6001600160a01b03908116865260408201359036839003603e190182126140e557600080fd5b6040928201928301928c0135898111156140fe57600080fd5b8060071b360384131561411057600080fd5b6040888e01819052880181905260608801925060005b81811015614186576141388535612cd7565b8285351684528d85013561414b81612cb2565b63ffffffff16848f0152604085013561416381612cd7565b831660408501526060858101359085015260809485019490930192600101614126565b505050958a01959450509188019160019190910190614090565b505050858b0135868801528097505050505050505061045c604083018461368d565b8181038181111561099357610993613f55565b6001600160a01b03878116825286166020808301919091526040820186905260c06060830181905285519083018190526000918681019160e085019190845b8181101561423057845184529382019392820192600101614214565b5050509415156080840152505090151560a090910152949350505050565b805161ffff168252602081015161426b602084018261ffff169052565b506040810151614283604084018263ffffffff169052565b506060810151614297606084018215159052565b5060808101516142ab608084018215159052565b5060a08101516142bf60a084018215159052565b5060c08101516142d360c084018215159052565b5060e08101516142e760e084018215159052565b5061010081810151151590830152610120808201511515908301526101408082015115159083015261016080820151151590830152610180808201511515908301526101a0808201511515908301526101c0808201511515908301526101e08082015115159083015261020080820151151590830152610220808201516143708285018261368d565b50506102408181015161ffff811684830152610751565b600082825180855260208086019550808260051b8401018186016000805b8581101561446457868403601f19018a52825180518552850151604086860181905281518187018190529187019160609081880190865b8181101561444d5785518051151584528b81015163ffffffff168c8501528581015166ffffffffffffff1686850152848101516001600160a01b039081168686015260808083015165ffffffffffff169086015260a0918201511690840152948a019460c0909201916001016143dc565b50509c88019c9650505092850192506001016143a5565b509198975050505050505050565b60008151808452602080850194506020840160005b838110156144bd57815180516001600160e01b0316885283015163ffffffff168388015260409096019590820190600101614487565b509495945050505050565b600082825180855260208086019550808260051b84010181860160005b84811015612dde57858303601f19018952815180516001600160a01b0390811685528582015116858501526040808201516080828701819052919061452c83880182614472565b925050506060808301519250858203818701525061454a8183614472565b9a86019a94505050908301906001016144e5565b600082825180855260208086019550808260051b84010181860160005b84811015612dde57601f198684030189528151805165ffffffffffff1684528481015163ffffffff908116868601526040808301516001600160701b0316908601526060808301519091169085015260808082015161034091906145e18288018261368d565b505060a0808301516145f58288018261424e565b505060c08201518161030087015261460f82870182614387565b91505060e0820151915084810361032086015261462c81836144c8565b9a86019a945050509083019060010161457b565b600082825180855260208086019550808260051b8401018186016000805b8581101561446457868403601f19018a52825180516001600160a01b03908116865290860151604087870181905281518188018190529188019290916060919082890190875b818110156146dc5786518051851684528c81015160ff168d85015286015163ffffffff1686840152958b0195918401916001016146a4565b50509d89019d9750505093860193505060010161465e565b6001600160a01b038516815260a060208201819052600090614718908301866136be565b828103604084015261472a818661455e565b9050828103606084015261473e8185614640565b838103608090940193909352505060008152602001949350505050565b838152608060208201526000614774608083018561455e565b82810360408401526147868185614640565b8381036060909401939093525050600081526020019392505050565b8481526080602082015260006147bb60808301866136be565b82810360408401526147cd81866136be565b91505082606083015295945050505050565b600060608083018684526020868186015260406060604087015282875180855260808801915060808160051b890101945083890160005b828110156148d457898703607f190184528151805188528601518688018690528051868901819052908701906000908a8a01905b808310156148bf5783518051151583528a81015163ffffffff168b8401528981015166ffffffffffffff168a8401528c8101516001600160a01b039081168e85015260808083015165ffffffffffff169085015260a0918201511690830152928901926001929092019160c09091019061484a565b50985050509285019290850190600101614816565b50949b9a5050505050505050505050565b6001600160a01b0384168152606060208201819052600090614909908301856136be565b9050826040830152949350505050565b600082825180855260208086019550808260051b8401018186016000805b8581101561446457868403601f19018a528251805164ffffffffff1685528581015160e0878701819052815190870181905261010087019188019085905b808210156149c3578251805163ffffffff1685528a8101516001600160681b03168b8601526040908101516001600160a01b0316908501526060909301929189019160019190910190614975565b50505060408281015161ffff908116918801919091526060808401516001600160701b03169088015260808084015163ffffffff9081169189019190915260a0808501519091169088015260c0928301511691909501529884019891840191600101614937565b80516001600160a01b03908116835260208083015160408286018190528151868201819052600094919360609390919082019084890190875b81811015614aab5783518051871684528581015162ffffff16868501528881015163ffffffff9081168a86015290880151168784015292840192608090920191600101614a63565b50909998505050505050505050565b600082825180855260208086019550808260051b8401018186016000805b8581101561446457868403601f19018a52825180516001600160a01b03908116865290860151604087870181905281518188018190529188019290916060919082890190875b81811015614b5f5786518051851684528c81015163ffffffff168d8501528681015185168785015285015185840152958b0195608090920191600101614b1e565b50509d89019d97505050938601935050600101614ad8565b6000815160408452614b8c6040850182614aba565b602093840151949093019390935250919050565b60e0815260008851608060e084015280516080610160850152614bc76101e08501826136be565b9050602082015161015f198086840301610180870152614be783836136be565b92506040840151915080868403016101a087015250614c0682826136be565b606093909301516101c0860152505060208a015163ffffffff1661010084015260408a015190614c3a61012085018361368d565b60608b015184820360df19016101408601529150614c588183614919565b9150508281036020840152614c6d818a614640565b90508281036040840152614c818189614a2a565b90508281036060840152614c958188614b77565b90508281036080840152614ca9818761455e565b905082810360a0840152614cbd81866136be565b915050614ccd60c083018461368d565b98975050505050505050565b83815282602082015260606040820152600061045c6060830184614aba565b634e487b7160e01b600052601260045260246000fd5b600060018060a01b03808516835260206040602085015260a0840182865116604086015266ffffffffffffff6020870151166060860152604086015192506060608086015280835180835260c087019150602085019450600092505b80831015614d8d57845160ff168252938301936001929092019190830190614d6a565b50979650505050505050565b61ffff828116828216039080821115614db457614db4613f55565b5092915050565b604081526000614dce60408301856136be565b828103602084015261045c81856136be565b6001600160681b039290921682526001600160a01b0316602082015260400190565b63ffffffff851681526080602082015260006147bb60808301866136be56fe598baf7bf150ca2f42be9e9f8f55e81d45f5715c3ff22bf46d697fabec7f31d6a2646970667358221220951b089ae92b94782b516e742ae98eb76251549bb4a5b22499fc7a70379ed0c964736f6c63430008170033",
	"devdoc": {
		"kind": "dev",
		"methods": {
			"afterRedeemRecordedWith((address,uint256,uint256,uint256,(address,uint8,uint32,uint256),(address,uint8,uint32,uint256),uint256,address,bytes,bytes))": {
				"params": {
					"context": "The redemption context passed in by the terminal."
				}
			},
			"beforePayRecordedWith((address,address,(address,uint8,uint32,uint256),uint256,uint256,address,uint256,uint256,bytes))": {
				"details": "Part of IJBFundingCycleDataSource.This implementation just sets this contract up to receive a `didPay` call.",
				"params": {
					"context": "The Juicebox standard network payment context. See"
				},
				"returns": {
					"hookSpecifications": "Amount to be sent to pay hooks instead of adding to local balance. Useful for auto-routing funds from a treasury as payment come in.",
					"weight": "The weight that network tokens should get minted relative to. This is useful for optionally customizing how many tokens are issued per payment."
				}
			},
			"beforeRedeemRecordedWith((address,address,uint256,uint256,uint256,uint256,(address,uint8,uint32,uint256),bool,uint256,bytes))": {
				"details": "If a sucker is redeeming, there should be no tax imposed.Charge a fee on redemptions if there is a cash out tax.",
				"params": {
					"context": "The redemption context passed to this contract by the `redeemTokensOf(...)` function."
				},
				"returns": {
					"_0": "redemptionRate The redemption rate influencing the reclaim amount.",
					"_1": "redeemCount The amount of tokens that should be considered redeemed.",
					"_2": "totalSupply The total amount of tokens that are considered to be existing.",
					"hookSpecifications": "The amount and data to send to redeem hooks (this contract) instead of returning to the beneficiary."
				}
			},
			"constructor": {
				"params": {
					"controller": "The controller that revnets are made from.",
					"feeRevnetId": "The ID of the revnet that will receive fees.",
					"suckerRegistry": "The registry that deploys and tracks each project's suckers."
				}
			},
			"deployFor(uint256,((string,string,string,bytes32),uint32,address,(uint40,(uint32,uint104,address)[],uint16,uint112,uint32,uint32,uint16)[]),(address,(address,uint8,uint32)[])[],(address,(address,uint24,uint32,uint32)[]),((address,(address,uint32,address,uint256)[])[],bytes32))": {
				"params": {
					"buybackHookConfiguration": "Data used for setting up the buyback hook to use when determining the best price for new participants.",
					"configuration": "The data needed to deploy a basic revnet.",
					"revnetId": "The ID of the Juicebox project to turn into a revnet. Send 0 to deploy a new revnet.",
					"suckerDeploymentConfiguration": "Information about how this revnet relates to other's across chains.",
					"terminalConfigurations": "The terminals that the network uses to accept payments through."
				},
				"returns": {
					"_0": "revnetId The ID of the newly created revnet."
				}
			},
			"deploySuckersFor(uint256,bytes,((address,(address,uint32,address,uint256)[])[],bytes32))": {
				"details": "Only the revnet's split operator can deploy new suckers.",
				"params": {
					"encodedConfiguration": "A bytes representation of the revnet's configuration.",
					"revnetId": "The ID of the revnet having new suckers deployed.",
					"suckerDeploymentConfiguration": "The specifics about the suckers being deployed."
				}
			},
			"hasMintPermissionFor(uint256,address)": {
				"params": {
					"addr": "The address to check if has permissions.",
					"revnetId": "The ID of the revnet to check permissions for."
				},
				"returns": {
					"_0": "flag The flag indicating if the address has permissions to mint on the revnet's behalf."
				}
			},
			"isSplitOperatorOf(uint256,address)": {
				"params": {
					"addr": "The address to check if is the split operator.",
					"revnetId": "The ID of the revnet to check the split operator for."
				},
				"returns": {
					"_0": "flag The flag indicating if the address is the split operator."
				}
			},
			"mintFor(uint256,uint256,address)": {
				"params": {
					"beneficiary": "The address to mint tokens to.",
					"revnetId": "The ID of the revnet to mint tokens from.",
					"stageId": "The ID of the stage to mint tokens from."
				}
			},
			"onERC721Received(address,address,uint256,bytes)": {
				"details": "Make sure only mints can be received."
			},
			"payHookSpecificationsOf(uint256)": {
				"params": {
					"revnetId": "The ID of the revnet to which the extensions apply."
				},
				"returns": {
					"_0": "payHookSpecifications The pay hooks."
				}
			},
			"replaceSplitOperatorOf(uint256,address)": {
				"details": "Only the revnet's split operator can replace itself.",
				"params": {
					"newSplitOperator": "The address of the new split operator.",
					"revnetId": "The ID of the revnet having its operator replaced."
				}
			},
			"supportsInterface(bytes4)": {
				"details": "See {IERC165-supportsInterface}.",
				"returns": {
					"_0": "A flag indicating if the provided interface ID is supported."
				}
			}
		},
		"version": 1
	},
	"userdoc": {
		"kind": "user",
		"methods": {
			"CASH_OUT_DELAY()": {
				"notice": "The amount of time from a sucker being deployed to when it can facilitate cashing out."
			},
			"CONTROLLER()": {
				"notice": "The controller that networks are made from."
			},
			"FEE()": {
				"notice": "Revnets' fee (as a fraction out of `JBConstants.MAX_FEE`)."
			},
			"FEE_REVNET_ID()": {
				"notice": "The ID of the revnet that will receive fees."
			},
			"SUCKER_REGISTRY()": {
				"notice": "The registry that deploys and tracks each project's suckers."
			},
			"afterRedeemRecordedWith((address,uint256,uint256,uint256,(address,uint8,uint32,uint256),(address,uint8,uint32,uint256),uint256,address,bytes,bytes))": {
				"notice": "Processes the fee for the redemption."
			},
			"allowedMintCountOf(uint256,uint256,address)": {
				"notice": "The specification of how many tokens are still allowed to be minted at each stage of a revnet."
			},
			"beforePayRecordedWith((address,address,(address,uint8,uint32,uint256),uint256,uint256,address,uint256,uint256,bytes))": {
				"notice": "This function gets called when the revnet receives a payment."
			},
			"beforeRedeemRecordedWith((address,address,uint256,uint256,uint256,uint256,(address,uint8,uint32,uint256),bool,uint256,bytes))": {
				"notice": "Determines how much to redeem."
			},
			"buybackHookOf(uint256)": {
				"notice": "The data hook that returns the correct values for the buyback hook of each network."
			},
			"cashOutDelayOf(uint256)": {
				"notice": "The time at which cashing out from a revnet become allowed."
			},
			"deployFor(uint256,((string,string,string,bytes32),uint32,address,(uint40,(uint32,uint104,address)[],uint16,uint112,uint32,uint32,uint16)[]),(address,(address,uint8,uint32)[])[],(address,(address,uint24,uint32,uint32)[]),((address,(address,uint32,address,uint256)[])[],bytes32))": {
				"notice": "Launch a basic revnet."
			},
			"deploySuckersFor(uint256,bytes,((address,(address,uint32,address,uint256)[])[],bytes32))": {
				"notice": "Allow the split operatAllows a revnet's split operator to deploy new suckers to the revnet after it's deployed."
			},
			"hasMintPermissionFor(uint256,address)": {
				"notice": "Required by the IJBRulesetDataHook interfaces."
			},
			"isSplitOperatorOf(uint256,address)": {
				"notice": "A flag indicating if a given address is the revnets split operator."
			},
			"mintFor(uint256,uint256,address)": {
				"notice": "Mint tokens from a revnet to a specified beneficiary according to the rules set for the revnet."
			},
			"payHookSpecificationsOf(uint256)": {
				"notice": "The pay hooks to include during payments to networks."
			},
			"replaceSplitOperatorOf(uint256,address)": {
				"notice": "A revnet's operator can replace itself."
			},
			"supportsInterface(bytes4)": {
				"notice": "Indicates if this contract adheres to the specified interface."
			}
		},
		"version": 1
	},
	"gitCommit": "4bad482c3bc194837e4de5496e688a75ad75cf4a",
	"sourceName": "src/REVBasicDeployer.sol",
	"chainId": "84532",
	"linkReferences": {},
	"deployedLinkReferences": {},
	"history": []
}