{
	"_format": "sphinx-sol-ct-artifact-1",
	"merkleRoot": "0x39fa168c56ec7fbed45680314f9554d2b963885dbb4a5403a62ba43526a7f221",
	"contractName": "REVCroptopDeployer",
	"address": "0x9D2Ca122BcE1D60C4A3df57901aC3A707dEE60C0",
	"abi": [
		{
			"type": "constructor",
			"inputs": [
				{
					"name": "controller",
					"type": "address",
					"internalType": "contract IJBController"
				},
				{
					"name": "suckerRegistry",
					"type": "address",
					"internalType": "contract IJBSuckerRegistry"
				},
				{
					"name": "feeRevnetId",
					"type": "uint256",
					"internalType": "uint256"
				},
				{
					"name": "hookDeployer",
					"type": "address",
					"internalType": "contract IJB721TiersHookDeployer"
				},
				{
					"name": "publisher",
					"type": "address",
					"internalType": "contract CTPublisher"
				}
			],
			"stateMutability": "nonpayable"
		},
		{
			"type": "function",
			"name": "CASH_OUT_DELAY",
			"inputs": [],
			"outputs": [
				{
					"name": "",
					"type": "uint256",
					"internalType": "uint256"
				}
			],
			"stateMutability": "view"
		},
		{
			"type": "function",
			"name": "CONTROLLER",
			"inputs": [],
			"outputs": [
				{
					"name": "",
					"type": "address",
					"internalType": "contract IJBController"
				}
			],
			"stateMutability": "view"
		},
		{
			"type": "function",
			"name": "FEE",
			"inputs": [],
			"outputs": [
				{
					"name": "",
					"type": "uint256",
					"internalType": "uint256"
				}
			],
			"stateMutability": "view"
		},
		{
			"type": "function",
			"name": "FEE_REVNET_ID",
			"inputs": [],
			"outputs": [
				{
					"name": "",
					"type": "uint256",
					"internalType": "uint256"
				}
			],
			"stateMutability": "view"
		},
		{
			"type": "function",
			"name": "HOOK_DEPLOYER",
			"inputs": [],
			"outputs": [
				{
					"name": "",
					"type": "address",
					"internalType": "contract IJB721TiersHookDeployer"
				}
			],
			"stateMutability": "view"
		},
		{
			"type": "function",
			"name": "PUBLISHER",
			"inputs": [],
			"outputs": [
				{
					"name": "",
					"type": "address",
					"internalType": "contract CTPublisher"
				}
			],
			"stateMutability": "view"
		},
		{
			"type": "function",
			"name": "SUCKER_REGISTRY",
			"inputs": [],
			"outputs": [
				{
					"name": "",
					"type": "address",
					"internalType": "contract IJBSuckerRegistry"
				}
			],
			"stateMutability": "view"
		},
		{
			"type": "function",
			"name": "afterRedeemRecordedWith",
			"inputs": [
				{
					"name": "context",
					"type": "tuple",
					"internalType": "struct JBAfterRedeemRecordedContext",
					"components": [
						{
							"name": "holder",
							"type": "address",
							"internalType": "address"
						},
						{
							"name": "projectId",
							"type": "uint256",
							"internalType": "uint256"
						},
						{
							"name": "rulesetId",
							"type": "uint256",
							"internalType": "uint256"
						},
						{
							"name": "redeemCount",
							"type": "uint256",
							"internalType": "uint256"
						},
						{
							"name": "reclaimedAmount",
							"type": "tuple",
							"internalType": "struct JBTokenAmount",
							"components": [
								{
									"name": "token",
									"type": "address",
									"internalType": "address"
								},
								{
									"name": "decimals",
									"type": "uint8",
									"internalType": "uint8"
								},
								{
									"name": "currency",
									"type": "uint32",
									"internalType": "uint32"
								},
								{
									"name": "value",
									"type": "uint256",
									"internalType": "uint256"
								}
							]
						},
						{
							"name": "forwardedAmount",
							"type": "tuple",
							"internalType": "struct JBTokenAmount",
							"components": [
								{
									"name": "token",
									"type": "address",
									"internalType": "address"
								},
								{
									"name": "decimals",
									"type": "uint8",
									"internalType": "uint8"
								},
								{
									"name": "currency",
									"type": "uint32",
									"internalType": "uint32"
								},
								{
									"name": "value",
									"type": "uint256",
									"internalType": "uint256"
								}
							]
						},
						{
							"name": "redemptionRate",
							"type": "uint256",
							"internalType": "uint256"
						},
						{
							"name": "beneficiary",
							"type": "address",
							"internalType": "address payable"
						},
						{
							"name": "hookMetadata",
							"type": "bytes",
							"internalType": "bytes"
						},
						{
							"name": "redeemerMetadata",
							"type": "bytes",
							"internalType": "bytes"
						}
					]
				}
			],
			"outputs": [],
			"stateMutability": "payable"
		},
		{
			"type": "function",
			"name": "allowedMintCountOf",
			"inputs": [
				{
					"name": "revnetId",
					"type": "uint256",
					"internalType": "uint256"
				},
				{
					"name": "stageId",
					"type": "uint256",
					"internalType": "uint256"
				},
				{
					"name": "beneficiary",
					"type": "address",
					"internalType": "address"
				}
			],
			"outputs": [
				{
					"name": "",
					"type": "uint256",
					"internalType": "uint256"
				}
			],
			"stateMutability": "view"
		},
		{
			"type": "function",
			"name": "beforePayRecordedWith",
			"inputs": [
				{
					"name": "context",
					"type": "tuple",
					"internalType": "struct JBBeforePayRecordedContext",
					"components": [
						{
							"name": "terminal",
							"type": "address",
							"internalType": "address"
						},
						{
							"name": "payer",
							"type": "address",
							"internalType": "address"
						},
						{
							"name": "amount",
							"type": "tuple",
							"internalType": "struct JBTokenAmount",
							"components": [
								{
									"name": "token",
									"type": "address",
									"internalType": "address"
								},
								{
									"name": "decimals",
									"type": "uint8",
									"internalType": "uint8"
								},
								{
									"name": "currency",
									"type": "uint32",
									"internalType": "uint32"
								},
								{
									"name": "value",
									"type": "uint256",
									"internalType": "uint256"
								}
							]
						},
						{
							"name": "projectId",
							"type": "uint256",
							"internalType": "uint256"
						},
						{
							"name": "rulesetId",
							"type": "uint256",
							"internalType": "uint256"
						},
						{
							"name": "beneficiary",
							"type": "address",
							"internalType": "address"
						},
						{
							"name": "weight",
							"type": "uint256",
							"internalType": "uint256"
						},
						{
							"name": "reservedRate",
							"type": "uint256",
							"internalType": "uint256"
						},
						{
							"name": "metadata",
							"type": "bytes",
							"internalType": "bytes"
						}
					]
				}
			],
			"outputs": [
				{
					"name": "weight",
					"type": "uint256",
					"internalType": "uint256"
				},
				{
					"name": "hookSpecifications",
					"type": "tuple[]",
					"internalType": "struct JBPayHookSpecification[]",
					"components": [
						{
							"name": "hook",
							"type": "address",
							"internalType": "contract IJBPayHook"
						},
						{
							"name": "amount",
							"type": "uint256",
							"internalType": "uint256"
						},
						{
							"name": "metadata",
							"type": "bytes",
							"internalType": "bytes"
						}
					]
				}
			],
			"stateMutability": "view"
		},
		{
			"type": "function",
			"name": "beforeRedeemRecordedWith",
			"inputs": [
				{
					"name": "context",
					"type": "tuple",
					"internalType": "struct JBBeforeRedeemRecordedContext",
					"components": [
						{
							"name": "terminal",
							"type": "address",
							"internalType": "address"
						},
						{
							"name": "holder",
							"type": "address",
							"internalType": "address"
						},
						{
							"name": "projectId",
							"type": "uint256",
							"internalType": "uint256"
						},
						{
							"name": "rulesetId",
							"type": "uint256",
							"internalType": "uint256"
						},
						{
							"name": "redeemCount",
							"type": "uint256",
							"internalType": "uint256"
						},
						{
							"name": "totalSupply",
							"type": "uint256",
							"internalType": "uint256"
						},
						{
							"name": "surplus",
							"type": "tuple",
							"internalType": "struct JBTokenAmount",
							"components": [
								{
									"name": "token",
									"type": "address",
									"internalType": "address"
								},
								{
									"name": "decimals",
									"type": "uint8",
									"internalType": "uint8"
								},
								{
									"name": "currency",
									"type": "uint32",
									"internalType": "uint32"
								},
								{
									"name": "value",
									"type": "uint256",
									"internalType": "uint256"
								}
							]
						},
						{
							"name": "useTotalSurplus",
							"type": "bool",
							"internalType": "bool"
						},
						{
							"name": "redemptionRate",
							"type": "uint256",
							"internalType": "uint256"
						},
						{
							"name": "metadata",
							"type": "bytes",
							"internalType": "bytes"
						}
					]
				}
			],
			"outputs": [
				{
					"name": "",
					"type": "uint256",
					"internalType": "uint256"
				},
				{
					"name": "",
					"type": "uint256",
					"internalType": "uint256"
				},
				{
					"name": "",
					"type": "uint256",
					"internalType": "uint256"
				},
				{
					"name": "hookSpecifications",
					"type": "tuple[]",
					"internalType": "struct JBRedeemHookSpecification[]",
					"components": [
						{
							"name": "hook",
							"type": "address",
							"internalType": "contract IJBRedeemHook"
						},
						{
							"name": "amount",
							"type": "uint256",
							"internalType": "uint256"
						},
						{
							"name": "metadata",
							"type": "bytes",
							"internalType": "bytes"
						}
					]
				}
			],
			"stateMutability": "view"
		},
		{
			"type": "function",
			"name": "buybackHookOf",
			"inputs": [
				{
					"name": "revnetId",
					"type": "uint256",
					"internalType": "uint256"
				}
			],
			"outputs": [
				{
					"name": "buybackHook",
					"type": "address",
					"internalType": "contract IJBRulesetDataHook"
				}
			],
			"stateMutability": "view"
		},
		{
			"type": "function",
			"name": "cashOutDelayOf",
			"inputs": [
				{
					"name": "revnetId",
					"type": "uint256",
					"internalType": "uint256"
				}
			],
			"outputs": [
				{
					"name": "cashOutDelay",
					"type": "uint256",
					"internalType": "uint256"
				}
			],
			"stateMutability": "view"
		},
		{
			"type": "function",
			"name": "deployFor",
			"inputs": [
				{
					"name": "revnetId",
					"type": "uint256",
					"internalType": "uint256"
				},
				{
					"name": "configuration",
					"type": "tuple",
					"internalType": "struct REVConfig",
					"components": [
						{
							"name": "description",
							"type": "tuple",
							"internalType": "struct REVDescription",
							"components": [
								{
									"name": "name",
									"type": "string",
									"internalType": "string"
								},
								{
									"name": "ticker",
									"type": "string",
									"internalType": "string"
								},
								{
									"name": "uri",
									"type": "string",
									"internalType": "string"
								},
								{
									"name": "salt",
									"type": "bytes32",
									"internalType": "bytes32"
								}
							]
						},
						{
							"name": "baseCurrency",
							"type": "uint32",
							"internalType": "uint32"
						},
						{
							"name": "splitOperator",
							"type": "address",
							"internalType": "address"
						},
						{
							"name": "stageConfigurations",
							"type": "tuple[]",
							"internalType": "struct REVStageConfig[]",
							"components": [
								{
									"name": "startsAtOrAfter",
									"type": "uint40",
									"internalType": "uint40"
								},
								{
									"name": "mintConfigs",
									"type": "tuple[]",
									"internalType": "struct REVMintConfig[]",
									"components": [
										{
											"name": "chainId",
											"type": "uint32",
											"internalType": "uint32"
										},
										{
											"name": "count",
											"type": "uint104",
											"internalType": "uint104"
										},
										{
											"name": "beneficiary",
											"type": "address",
											"internalType": "address"
										}
									]
								},
								{
									"name": "splitPercent",
									"type": "uint16",
									"internalType": "uint16"
								},
								{
									"name": "initialPrice",
									"type": "uint112",
									"internalType": "uint112"
								},
								{
									"name": "priceIncreaseFrequency",
									"type": "uint32",
									"internalType": "uint32"
								},
								{
									"name": "priceIncreasePercentage",
									"type": "uint32",
									"internalType": "uint32"
								},
								{
									"name": "cashOutTaxIntensity",
									"type": "uint16",
									"internalType": "uint16"
								}
							]
						}
					]
				},
				{
					"name": "terminalConfigurations",
					"type": "tuple[]",
					"internalType": "struct JBTerminalConfig[]",
					"components": [
						{
							"name": "terminal",
							"type": "address",
							"internalType": "contract IJBTerminal"
						},
						{
							"name": "accountingContextsToAccept",
							"type": "tuple[]",
							"internalType": "struct JBAccountingContext[]",
							"components": [
								{
									"name": "token",
									"type": "address",
									"internalType": "address"
								},
								{
									"name": "decimals",
									"type": "uint8",
									"internalType": "uint8"
								},
								{
									"name": "currency",
									"type": "uint32",
									"internalType": "uint32"
								}
							]
						}
					]
				},
				{
					"name": "buybackHookConfiguration",
					"type": "tuple",
					"internalType": "struct REVBuybackHookConfig",
					"components": [
						{
							"name": "hook",
							"type": "address",
							"internalType": "contract IJBBuybackHook"
						},
						{
							"name": "poolConfigurations",
							"type": "tuple[]",
							"internalType": "struct REVBuybackPoolConfig[]",
							"components": [
								{
									"name": "token",
									"type": "address",
									"internalType": "address"
								},
								{
									"name": "fee",
									"type": "uint24",
									"internalType": "uint24"
								},
								{
									"name": "twapWindow",
									"type": "uint32",
									"internalType": "uint32"
								},
								{
									"name": "twapSlippageTolerance",
									"type": "uint32",
									"internalType": "uint32"
								}
							]
						}
					]
				},
				{
					"name": "suckerDeploymentConfiguration",
					"type": "tuple",
					"internalType": "struct REVSuckerDeploymentConfig",
					"components": [
						{
							"name": "deployerConfigurations",
							"type": "tuple[]",
							"internalType": "struct JBSuckerDeployerConfig[]",
							"components": [
								{
									"name": "deployer",
									"type": "address",
									"internalType": "contract IJBSuckerDeployer"
								},
								{
									"name": "mappings",
									"type": "tuple[]",
									"internalType": "struct JBTokenMapping[]",
									"components": [
										{
											"name": "localToken",
											"type": "address",
											"internalType": "address"
										},
										{
											"name": "minGas",
											"type": "uint32",
											"internalType": "uint32"
										},
										{
											"name": "remoteToken",
											"type": "address",
											"internalType": "address"
										},
										{
											"name": "minBridgeAmount",
											"type": "uint256",
											"internalType": "uint256"
										}
									]
								}
							]
						},
						{
							"name": "salt",
							"type": "bytes32",
							"internalType": "bytes32"
						}
					]
				},
				{
					"name": "hookConfiguration",
					"type": "tuple",
					"internalType": "struct REVDeploy721TiersHookConfig",
					"components": [
						{
							"name": "baseline721HookConfiguration",
							"type": "tuple",
							"internalType": "struct JBDeploy721TiersHookConfig",
							"components": [
								{
									"name": "name",
									"type": "string",
									"internalType": "string"
								},
								{
									"name": "symbol",
									"type": "string",
									"internalType": "string"
								},
								{
									"name": "rulesets",
									"type": "address",
									"internalType": "contract IJBRulesets"
								},
								{
									"name": "baseUri",
									"type": "string",
									"internalType": "string"
								},
								{
									"name": "tokenUriResolver",
									"type": "address",
									"internalType": "contract IJB721TokenUriResolver"
								},
								{
									"name": "contractUri",
									"type": "string",
									"internalType": "string"
								},
								{
									"name": "tiersConfig",
									"type": "tuple",
									"internalType": "struct JB721InitTiersConfig",
									"components": [
										{
											"name": "tiers",
											"type": "tuple[]",
											"internalType": "struct JB721TierConfig[]",
											"components": [
												{
													"name": "price",
													"type": "uint104",
													"internalType": "uint104"
												},
												{
													"name": "initialSupply",
													"type": "uint32",
													"internalType": "uint32"
												},
												{
													"name": "votingUnits",
													"type": "uint32",
													"internalType": "uint32"
												},
												{
													"name": "reserveFrequency",
													"type": "uint16",
													"internalType": "uint16"
												},
												{
													"name": "reserveBeneficiary",
													"type": "address",
													"internalType": "address"
												},
												{
													"name": "encodedIPFSUri",
													"type": "bytes32",
													"internalType": "bytes32"
												},
												{
													"name": "category",
													"type": "uint24",
													"internalType": "uint24"
												},
												{
													"name": "allowOwnerMint",
													"type": "bool",
													"internalType": "bool"
												},
												{
													"name": "useReserveBeneficiaryAsDefault",
													"type": "bool",
													"internalType": "bool"
												},
												{
													"name": "transfersPausable",
													"type": "bool",
													"internalType": "bool"
												},
												{
													"name": "useVotingUnits",
													"type": "bool",
													"internalType": "bool"
												},
												{
													"name": "cannotBeRemoved",
													"type": "bool",
													"internalType": "bool"
												}
											]
										},
										{
											"name": "currency",
											"type": "uint32",
											"internalType": "uint32"
										},
										{
											"name": "decimals",
											"type": "uint8",
											"internalType": "uint8"
										},
										{
											"name": "prices",
											"type": "address",
											"internalType": "contract IJBPrices"
										}
									]
								},
								{
									"name": "reserveBeneficiary",
									"type": "address",
									"internalType": "address"
								},
								{
									"name": "flags",
									"type": "tuple",
									"internalType": "struct JB721TiersHookFlags",
									"components": [
										{
											"name": "noNewTiersWithReserves",
											"type": "bool",
											"internalType": "bool"
										},
										{
											"name": "noNewTiersWithVotes",
											"type": "bool",
											"internalType": "bool"
										},
										{
											"name": "noNewTiersWithOwnerMinting",
											"type": "bool",
											"internalType": "bool"
										},
										{
											"name": "preventOverspending",
											"type": "bool",
											"internalType": "bool"
										}
									]
								}
							]
						},
						{
							"name": "splitOperatorCanAdjustTiers",
							"type": "bool",
							"internalType": "bool"
						},
						{
							"name": "splitOperatorCanUpdateMetadata",
							"type": "bool",
							"internalType": "bool"
						},
						{
							"name": "splitOperatorCanMint",
							"type": "bool",
							"internalType": "bool"
						}
					]
				},
				{
					"name": "otherPayHooksSpecifications",
					"type": "tuple[]",
					"internalType": "struct JBPayHookSpecification[]",
					"components": [
						{
							"name": "hook",
							"type": "address",
							"internalType": "contract IJBPayHook"
						},
						{
							"name": "amount",
							"type": "uint256",
							"internalType": "uint256"
						},
						{
							"name": "metadata",
							"type": "bytes",
							"internalType": "bytes"
						}
					]
				},
				{
					"name": "extraHookMetadata",
					"type": "uint16",
					"internalType": "uint16"
				},
				{
					"name": "allowedPosts",
					"type": "tuple[]",
					"internalType": "struct REVCroptopAllowedPost[]",
					"components": [
						{
							"name": "category",
							"type": "uint24",
							"internalType": "uint24"
						},
						{
							"name": "minimumPrice",
							"type": "uint104",
							"internalType": "uint104"
						},
						{
							"name": "minimumTotalSupply",
							"type": "uint32",
							"internalType": "uint32"
						},
						{
							"name": "maximumTotalSupply",
							"type": "uint32",
							"internalType": "uint32"
						},
						{
							"name": "allowedAddresses",
							"type": "address[]",
							"internalType": "address[]"
						}
					]
				}
			],
			"outputs": [
				{
					"name": "",
					"type": "uint256",
					"internalType": "uint256"
				},
				{
					"name": "hook",
					"type": "address",
					"internalType": "contract IJB721TiersHook"
				}
			],
			"stateMutability": "nonpayable"
		},
		{
			"type": "function",
			"name": "deploySuckersFor",
			"inputs": [
				{
					"name": "revnetId",
					"type": "uint256",
					"internalType": "uint256"
				},
				{
					"name": "encodedConfiguration",
					"type": "bytes",
					"internalType": "bytes"
				},
				{
					"name": "suckerDeploymentConfiguration",
					"type": "tuple",
					"internalType": "struct REVSuckerDeploymentConfig",
					"components": [
						{
							"name": "deployerConfigurations",
							"type": "tuple[]",
							"internalType": "struct JBSuckerDeployerConfig[]",
							"components": [
								{
									"name": "deployer",
									"type": "address",
									"internalType": "contract IJBSuckerDeployer"
								},
								{
									"name": "mappings",
									"type": "tuple[]",
									"internalType": "struct JBTokenMapping[]",
									"components": [
										{
											"name": "localToken",
											"type": "address",
											"internalType": "address"
										},
										{
											"name": "minGas",
											"type": "uint32",
											"internalType": "uint32"
										},
										{
											"name": "remoteToken",
											"type": "address",
											"internalType": "address"
										},
										{
											"name": "minBridgeAmount",
											"type": "uint256",
											"internalType": "uint256"
										}
									]
								}
							]
						},
						{
							"name": "salt",
							"type": "bytes32",
							"internalType": "bytes32"
						}
					]
				}
			],
			"outputs": [],
			"stateMutability": "nonpayable"
		},
		{
			"type": "function",
			"name": "hasMintPermissionFor",
			"inputs": [
				{
					"name": "revnetId",
					"type": "uint256",
					"internalType": "uint256"
				},
				{
					"name": "addr",
					"type": "address",
					"internalType": "address"
				}
			],
			"outputs": [
				{
					"name": "",
					"type": "bool",
					"internalType": "bool"
				}
			],
			"stateMutability": "view"
		},
		{
			"type": "function",
			"name": "isSplitOperatorOf",
			"inputs": [
				{
					"name": "revnetId",
					"type": "uint256",
					"internalType": "uint256"
				},
				{
					"name": "addr",
					"type": "address",
					"internalType": "address"
				}
			],
			"outputs": [
				{
					"name": "",
					"type": "bool",
					"internalType": "bool"
				}
			],
			"stateMutability": "view"
		},
		{
			"type": "function",
			"name": "mintFor",
			"inputs": [
				{
					"name": "revnetId",
					"type": "uint256",
					"internalType": "uint256"
				},
				{
					"name": "stageId",
					"type": "uint256",
					"internalType": "uint256"
				},
				{
					"name": "beneficiary",
					"type": "address",
					"internalType": "address"
				}
			],
			"outputs": [],
			"stateMutability": "nonpayable"
		},
		{
			"type": "function",
			"name": "onERC721Received",
			"inputs": [
				{
					"name": "operator",
					"type": "address",
					"internalType": "address"
				},
				{
					"name": "",
					"type": "address",
					"internalType": "address"
				},
				{
					"name": "tokenId",
					"type": "uint256",
					"internalType": "uint256"
				},
				{
					"name": "data",
					"type": "bytes",
					"internalType": "bytes"
				}
			],
			"outputs": [
				{
					"name": "",
					"type": "bytes4",
					"internalType": "bytes4"
				}
			],
			"stateMutability": "view"
		},
		{
			"type": "function",
			"name": "payHookSpecificationsOf",
			"inputs": [
				{
					"name": "revnetId",
					"type": "uint256",
					"internalType": "uint256"
				}
			],
			"outputs": [
				{
					"name": "",
					"type": "tuple[]",
					"internalType": "struct JBPayHookSpecification[]",
					"components": [
						{
							"name": "hook",
							"type": "address",
							"internalType": "contract IJBPayHook"
						},
						{
							"name": "amount",
							"type": "uint256",
							"internalType": "uint256"
						},
						{
							"name": "metadata",
							"type": "bytes",
							"internalType": "bytes"
						}
					]
				}
			],
			"stateMutability": "view"
		},
		{
			"type": "function",
			"name": "replaceSplitOperatorOf",
			"inputs": [
				{
					"name": "revnetId",
					"type": "uint256",
					"internalType": "uint256"
				},
				{
					"name": "newSplitOperator",
					"type": "address",
					"internalType": "address"
				}
			],
			"outputs": [],
			"stateMutability": "nonpayable"
		},
		{
			"type": "function",
			"name": "supportsInterface",
			"inputs": [
				{
					"name": "",
					"type": "bytes4",
					"internalType": "bytes4"
				}
			],
			"outputs": [
				{
					"name": "",
					"type": "bool",
					"internalType": "bool"
				}
			],
			"stateMutability": "view"
		},
		{
			"type": "event",
			"name": "DeployRevnet",
			"inputs": [
				{
					"name": "revnetId",
					"type": "uint256",
					"indexed": true,
					"internalType": "uint256"
				},
				{
					"name": "suckerSalt",
					"type": "bytes32",
					"indexed": true,
					"internalType": "bytes32"
				},
				{
					"name": "configuration",
					"type": "tuple",
					"indexed": false,
					"internalType": "struct REVConfig",
					"components": [
						{
							"name": "description",
							"type": "tuple",
							"internalType": "struct REVDescription",
							"components": [
								{
									"name": "name",
									"type": "string",
									"internalType": "string"
								},
								{
									"name": "ticker",
									"type": "string",
									"internalType": "string"
								},
								{
									"name": "uri",
									"type": "string",
									"internalType": "string"
								},
								{
									"name": "salt",
									"type": "bytes32",
									"internalType": "bytes32"
								}
							]
						},
						{
							"name": "baseCurrency",
							"type": "uint32",
							"internalType": "uint32"
						},
						{
							"name": "splitOperator",
							"type": "address",
							"internalType": "address"
						},
						{
							"name": "stageConfigurations",
							"type": "tuple[]",
							"internalType": "struct REVStageConfig[]",
							"components": [
								{
									"name": "startsAtOrAfter",
									"type": "uint40",
									"internalType": "uint40"
								},
								{
									"name": "mintConfigs",
									"type": "tuple[]",
									"internalType": "struct REVMintConfig[]",
									"components": [
										{
											"name": "chainId",
											"type": "uint32",
											"internalType": "uint32"
										},
										{
											"name": "count",
											"type": "uint104",
											"internalType": "uint104"
										},
										{
											"name": "beneficiary",
											"type": "address",
											"internalType": "address"
										}
									]
								},
								{
									"name": "splitPercent",
									"type": "uint16",
									"internalType": "uint16"
								},
								{
									"name": "initialPrice",
									"type": "uint112",
									"internalType": "uint112"
								},
								{
									"name": "priceIncreaseFrequency",
									"type": "uint32",
									"internalType": "uint32"
								},
								{
									"name": "priceIncreasePercentage",
									"type": "uint32",
									"internalType": "uint32"
								},
								{
									"name": "cashOutTaxIntensity",
									"type": "uint16",
									"internalType": "uint16"
								}
							]
						}
					]
				},
				{
					"name": "terminalConfigurations",
					"type": "tuple[]",
					"indexed": false,
					"internalType": "struct JBTerminalConfig[]",
					"components": [
						{
							"name": "terminal",
							"type": "address",
							"internalType": "contract IJBTerminal"
						},
						{
							"name": "accountingContextsToAccept",
							"type": "tuple[]",
							"internalType": "struct JBAccountingContext[]",
							"components": [
								{
									"name": "token",
									"type": "address",
									"internalType": "address"
								},
								{
									"name": "decimals",
									"type": "uint8",
									"internalType": "uint8"
								},
								{
									"name": "currency",
									"type": "uint32",
									"internalType": "uint32"
								}
							]
						}
					]
				},
				{
					"name": "buybackHookConfiguration",
					"type": "tuple",
					"indexed": false,
					"internalType": "struct REVBuybackHookConfig",
					"components": [
						{
							"name": "hook",
							"type": "address",
							"internalType": "contract IJBBuybackHook"
						},
						{
							"name": "poolConfigurations",
							"type": "tuple[]",
							"internalType": "struct REVBuybackPoolConfig[]",
							"components": [
								{
									"name": "token",
									"type": "address",
									"internalType": "address"
								},
								{
									"name": "fee",
									"type": "uint24",
									"internalType": "uint24"
								},
								{
									"name": "twapWindow",
									"type": "uint32",
									"internalType": "uint32"
								},
								{
									"name": "twapSlippageTolerance",
									"type": "uint32",
									"internalType": "uint32"
								}
							]
						}
					]
				},
				{
					"name": "suckerDeploymentConfiguration",
					"type": "tuple",
					"indexed": false,
					"internalType": "struct REVSuckerDeploymentConfig",
					"components": [
						{
							"name": "deployerConfigurations",
							"type": "tuple[]",
							"internalType": "struct JBSuckerDeployerConfig[]",
							"components": [
								{
									"name": "deployer",
									"type": "address",
									"internalType": "contract IJBSuckerDeployer"
								},
								{
									"name": "mappings",
									"type": "tuple[]",
									"internalType": "struct JBTokenMapping[]",
									"components": [
										{
											"name": "localToken",
											"type": "address",
											"internalType": "address"
										},
										{
											"name": "minGas",
											"type": "uint32",
											"internalType": "uint32"
										},
										{
											"name": "remoteToken",
											"type": "address",
											"internalType": "address"
										},
										{
											"name": "minBridgeAmount",
											"type": "uint256",
											"internalType": "uint256"
										}
									]
								}
							]
						},
						{
							"name": "salt",
							"type": "bytes32",
							"internalType": "bytes32"
						}
					]
				},
				{
					"name": "rulesetConfigurations",
					"type": "tuple[]",
					"indexed": false,
					"internalType": "struct JBRulesetConfig[]",
					"components": [
						{
							"name": "mustStartAtOrAfter",
							"type": "uint48",
							"internalType": "uint48"
						},
						{
							"name": "duration",
							"type": "uint32",
							"internalType": "uint32"
						},
						{
							"name": "weight",
							"type": "uint112",
							"internalType": "uint112"
						},
						{
							"name": "decayRate",
							"type": "uint32",
							"internalType": "uint32"
						},
						{
							"name": "approvalHook",
							"type": "address",
							"internalType": "contract IJBRulesetApprovalHook"
						},
						{
							"name": "metadata",
							"type": "tuple",
							"internalType": "struct JBRulesetMetadata",
							"components": [
								{
									"name": "reservedRate",
									"type": "uint16",
									"internalType": "uint16"
								},
								{
									"name": "redemptionRate",
									"type": "uint16",
									"internalType": "uint16"
								},
								{
									"name": "baseCurrency",
									"type": "uint32",
									"internalType": "uint32"
								},
								{
									"name": "pausePay",
									"type": "bool",
									"internalType": "bool"
								},
								{
									"name": "pauseCreditTransfers",
									"type": "bool",
									"internalType": "bool"
								},
								{
									"name": "allowOwnerMinting",
									"type": "bool",
									"internalType": "bool"
								},
								{
									"name": "allowSetCustomToken",
									"type": "bool",
									"internalType": "bool"
								},
								{
									"name": "allowTerminalMigration",
									"type": "bool",
									"internalType": "bool"
								},
								{
									"name": "allowSetTerminals",
									"type": "bool",
									"internalType": "bool"
								},
								{
									"name": "allowSetController",
									"type": "bool",
									"internalType": "bool"
								},
								{
									"name": "allowAddAccountingContext",
									"type": "bool",
									"internalType": "bool"
								},
								{
									"name": "allowAddPriceFeed",
									"type": "bool",
									"internalType": "bool"
								},
								{
									"name": "ownerMustSendPayouts",
									"type": "bool",
									"internalType": "bool"
								},
								{
									"name": "holdFees",
									"type": "bool",
									"internalType": "bool"
								},
								{
									"name": "useTotalSurplusForRedemptions",
									"type": "bool",
									"internalType": "bool"
								},
								{
									"name": "useDataHookForPay",
									"type": "bool",
									"internalType": "bool"
								},
								{
									"name": "useDataHookForRedeem",
									"type": "bool",
									"internalType": "bool"
								},
								{
									"name": "dataHook",
									"type": "address",
									"internalType": "address"
								},
								{
									"name": "metadata",
									"type": "uint16",
									"internalType": "uint16"
								}
							]
						},
						{
							"name": "splitGroups",
							"type": "tuple[]",
							"internalType": "struct JBSplitGroup[]",
							"components": [
								{
									"name": "groupId",
									"type": "uint256",
									"internalType": "uint256"
								},
								{
									"name": "splits",
									"type": "tuple[]",
									"internalType": "struct JBSplit[]",
									"components": [
										{
											"name": "preferAddToBalance",
											"type": "bool",
											"internalType": "bool"
										},
										{
											"name": "percent",
											"type": "uint32",
											"internalType": "uint32"
										},
										{
											"name": "projectId",
											"type": "uint56",
											"internalType": "uint56"
										},
										{
											"name": "beneficiary",
											"type": "address",
											"internalType": "address payable"
										},
										{
											"name": "lockedUntil",
											"type": "uint48",
											"internalType": "uint48"
										},
										{
											"name": "hook",
											"type": "address",
											"internalType": "contract IJBSplitHook"
										}
									]
								}
							]
						},
						{
							"name": "fundAccessLimitGroups",
							"type": "tuple[]",
							"internalType": "struct JBFundAccessLimitGroup[]",
							"components": [
								{
									"name": "terminal",
									"type": "address",
									"internalType": "address"
								},
								{
									"name": "token",
									"type": "address",
									"internalType": "address"
								},
								{
									"name": "payoutLimits",
									"type": "tuple[]",
									"internalType": "struct JBCurrencyAmount[]",
									"components": [
										{
											"name": "amount",
											"type": "uint224",
											"internalType": "uint224"
										},
										{
											"name": "currency",
											"type": "uint32",
											"internalType": "uint32"
										}
									]
								},
								{
									"name": "surplusAllowances",
									"type": "tuple[]",
									"internalType": "struct JBCurrencyAmount[]",
									"components": [
										{
											"name": "amount",
											"type": "uint224",
											"internalType": "uint224"
										},
										{
											"name": "currency",
											"type": "uint32",
											"internalType": "uint32"
										}
									]
								}
							]
						}
					]
				},
				{
					"name": "encodedConfiguration",
					"type": "bytes",
					"indexed": false,
					"internalType": "bytes"
				},
				{
					"name": "caller",
					"type": "address",
					"indexed": false,
					"internalType": "address"
				}
			],
			"anonymous": false
		},
		{
			"type": "event",
			"name": "DeploySuckers",
			"inputs": [
				{
					"name": "revnetId",
					"type": "uint256",
					"indexed": true,
					"internalType": "uint256"
				},
				{
					"name": "salt",
					"type": "bytes32",
					"indexed": true,
					"internalType": "bytes32"
				},
				{
					"name": "encodedConfiguration",
					"type": "bytes",
					"indexed": false,
					"internalType": "bytes"
				},
				{
					"name": "suckerDeploymentConfiguration",
					"type": "tuple",
					"indexed": false,
					"internalType": "struct REVSuckerDeploymentConfig",
					"components": [
						{
							"name": "deployerConfigurations",
							"type": "tuple[]",
							"internalType": "struct JBSuckerDeployerConfig[]",
							"components": [
								{
									"name": "deployer",
									"type": "address",
									"internalType": "contract IJBSuckerDeployer"
								},
								{
									"name": "mappings",
									"type": "tuple[]",
									"internalType": "struct JBTokenMapping[]",
									"components": [
										{
											"name": "localToken",
											"type": "address",
											"internalType": "address"
										},
										{
											"name": "minGas",
											"type": "uint32",
											"internalType": "uint32"
										},
										{
											"name": "remoteToken",
											"type": "address",
											"internalType": "address"
										},
										{
											"name": "minBridgeAmount",
											"type": "uint256",
											"internalType": "uint256"
										}
									]
								}
							]
						},
						{
							"name": "salt",
							"type": "bytes32",
							"internalType": "bytes32"
						}
					]
				},
				{
					"name": "caller",
					"type": "address",
					"indexed": false,
					"internalType": "address"
				}
			],
			"anonymous": false
		},
		{
			"type": "event",
			"name": "Mint",
			"inputs": [
				{
					"name": "revnetId",
					"type": "uint256",
					"indexed": true,
					"internalType": "uint256"
				},
				{
					"name": "stageId",
					"type": "uint256",
					"indexed": true,
					"internalType": "uint256"
				},
				{
					"name": "beneficiary",
					"type": "address",
					"indexed": true,
					"internalType": "address"
				},
				{
					"name": "count",
					"type": "uint256",
					"indexed": false,
					"internalType": "uint256"
				},
				{
					"name": "caller",
					"type": "address",
					"indexed": false,
					"internalType": "address"
				}
			],
			"anonymous": false
		},
		{
			"type": "event",
			"name": "ReplaceSplitOperator",
			"inputs": [
				{
					"name": "revnetId",
					"type": "uint256",
					"indexed": true,
					"internalType": "uint256"
				},
				{
					"name": "newSplitOperator",
					"type": "address",
					"indexed": true,
					"internalType": "address"
				},
				{
					"name": "caller",
					"type": "address",
					"indexed": false,
					"internalType": "address"
				}
			],
			"anonymous": false
		},
		{
			"type": "event",
			"name": "SetAdditionalOperator",
			"inputs": [
				{
					"name": "revnetId",
					"type": "uint256",
					"indexed": false,
					"internalType": "uint256"
				},
				{
					"name": "additionalOperator",
					"type": "address",
					"indexed": false,
					"internalType": "address"
				},
				{
					"name": "permissionIds",
					"type": "uint256[]",
					"indexed": false,
					"internalType": "uint256[]"
				},
				{
					"name": "caller",
					"type": "address",
					"indexed": false,
					"internalType": "address"
				}
			],
			"anonymous": false
		},
		{
			"type": "event",
			"name": "SetCashOutDelay",
			"inputs": [
				{
					"name": "revnetId",
					"type": "uint256",
					"indexed": true,
					"internalType": "uint256"
				},
				{
					"name": "cashOutDelay",
					"type": "uint256",
					"indexed": false,
					"internalType": "uint256"
				},
				{
					"name": "caller",
					"type": "address",
					"indexed": false,
					"internalType": "address"
				}
			],
			"anonymous": false
		},
		{
			"type": "event",
			"name": "StoreMintPotential",
			"inputs": [
				{
					"name": "revnetId",
					"type": "uint256",
					"indexed": true,
					"internalType": "uint256"
				},
				{
					"name": "stageId",
					"type": "uint256",
					"indexed": true,
					"internalType": "uint256"
				},
				{
					"name": "beneficiary",
					"type": "address",
					"indexed": true,
					"internalType": "address"
				},
				{
					"name": "count",
					"type": "uint256",
					"indexed": false,
					"internalType": "uint256"
				},
				{
					"name": "caller",
					"type": "address",
					"indexed": false,
					"internalType": "address"
				}
			],
			"anonymous": false
		},
		{
			"type": "event",
			"name": "StoredPayHookSpecifications",
			"inputs": [
				{
					"name": "revnetId",
					"type": "uint256",
					"indexed": true,
					"internalType": "uint256"
				},
				{
					"name": "payHookSpecifications",
					"type": "tuple[]",
					"indexed": false,
					"internalType": "struct JBPayHookSpecification[]",
					"components": [
						{
							"name": "hook",
							"type": "address",
							"internalType": "contract IJBPayHook"
						},
						{
							"name": "amount",
							"type": "uint256",
							"internalType": "uint256"
						},
						{
							"name": "metadata",
							"type": "bytes",
							"internalType": "bytes"
						}
					]
				},
				{
					"name": "caller",
					"type": "address",
					"indexed": false,
					"internalType": "address"
				}
			],
			"anonymous": false
		},
		{
			"type": "error",
			"name": "PRBMath_MulDiv_Overflow",
			"inputs": [
				{
					"name": "x",
					"type": "uint256",
					"internalType": "uint256"
				},
				{
					"name": "y",
					"type": "uint256",
					"internalType": "uint256"
				},
				{
					"name": "denominator",
					"type": "uint256",
					"internalType": "uint256"
				}
			]
		},
		{
			"type": "error",
			"name": "REVBasic_BadStageTimes",
			"inputs": []
		},
		{
			"type": "error",
			"name": "REVBasic_CashOutDelayInEffect",
			"inputs": []
		},
		{
			"type": "error",
			"name": "REVBasic_StageNotStarted",
			"inputs": []
		},
		{
			"type": "error",
			"name": "REVBasic_StagesRequired",
			"inputs": []
		},
		{
			"type": "error",
			"name": "REVBasic_Unauthorized",
			"inputs": []
		}
	],
	"solcInputHash": "410542be1c535d97c862c2863abb477e",
	"args": [
		"0x64c30002444321C4504c8f1b9B04C95DE3731Fd2",
		"0xdba05C1525A7d6255dc637EdD58C849aCb635D25",
		"2",
		"0x0681CdAD31DAd70C65f8A68551d5cdA78f39F960",
		"0x6Feee48D69171AbAf554480f2419596731CdE0C6"
	],
	"bytecode": "0x6101006040523480156200001257600080fd5b506040516200619938038062006199833981016040819052620000359162000088565b6001600160a01b0394851660a05292841660c052608091909152821660e052600580546001600160a01b03191691909216179055620000fc565b6001600160a01b03811681146200008557600080fd5b50565b600080600080600060a08688031215620000a157600080fd5b8551620000ae816200006f565b6020870151909550620000c1816200006f565b604087015160608801519195509350620000db816200006f565b6080870151909250620000ee816200006f565b809150509295509295909350565b60805160a05160c05160e051615fde620001bb6000396000818161032b0152611c8b01526000818161035f0152818161091a01528181610f8c015281816115610152612fea01526000818161049d015281816109f90152818161138b01528181611414015281816114b201528181611846015281816120e90152818161216e015281816121fe015281816123670152818161241101526124d901526000818161018b015281816105f601528181610716015261108c0152615fde6000f3fe6080604052600436106101055760003560e01c806301ffc9a71461010a578063150b7a02146101405780631680e172146101795780631727f039146101bb5780634fa9af69146101d05780635a31dc13146101fd5780635c0a7cee1461023b578063677ce088146102685780637249a7731461028857806382a09b30146102cb5780638cc35846146102eb578063abf8c5c814610319578063b5d255331461034d578063b8a843d714610381578063bb19940214610398578063c57981b5146103b8578063c70bba03146103cd578063cd817cd0146103fb578063db29c8921461042b578063dbfbe5da1461044b578063eb5ad9d91461046b578063ee0fc1211461048b575b600080fd5b34801561011657600080fd5b5061012b610125366004613213565b50600090565b60405190151581526020015b60405180910390f35b34801561014c57600080fd5b5061016061015b3660046132ad565b6104bf565b6040516001600160e01b03199091168152602001610137565b34801561018557600080fd5b506101ad7f000000000000000000000000000000000000000000000000000000000000000081565b604051908152602001610137565b6101ce6101c936600461331f565b6104f9565b005b3480156101dc57600080fd5b506101ad6101eb36600461335a565b60016020526000908152604090205481565b34801561020957600080fd5b506101ad610218366004613373565b600260209081526000938452604080852082529284528284209052825290205481565b34801561024757600080fd5b5061025b61025636600461335a565b6107b3565b604051610137919061348a565b34801561027457600080fd5b5061012b61028336600461349d565b6108d7565b34801561029457600080fd5b506102be6102a336600461335a565b6000602081905290815260409020546001600160a01b031681565b60405161013791906134cd565b3480156102d757600080fd5b506101ce6102e6366004613373565b6109f5565b3480156102f757600080fd5b5061030b6103063660046134e1565b610bdc565b60405161013792919061351c565b34801561032557600080fd5b506102be7f000000000000000000000000000000000000000000000000000000000000000081565b34801561035957600080fd5b506102be7f000000000000000000000000000000000000000000000000000000000000000081565b34801561038d57600080fd5b506101ad62278d0081565b3480156103a457600080fd5b506101ce6103b3366004613535565b610eb2565b3480156103c457600080fd5b506101ad601981565b3480156103d957600080fd5b506103ed6103e836600461452b565b610f56565b604051610137929190614660565b34801561040757600080fd5b5061041b610416366004614677565b610f7c565b60405161013794939291906146b2565b34801561043757600080fd5b5061012b61044636600461349d565b61125d565b34801561045757600080fd5b506005546102be906001600160a01b031681565b34801561047757600080fd5b506101ce61048636600461349d565b6112ed565b34801561049757600080fd5b506102be7f000000000000000000000000000000000000000000000000000000000000000081565b60006104c9611387565b6001600160a01b0316336001600160a01b0316146104e657600080fd5b50630a85bd0160e11b5b95945050505050565b610501611410565b6001600160a01b0316636e49181f8260200135336040518363ffffffff1660e01b8152600401610532929190614660565b602060405180830381865afa15801561054f573d6000803e3d6000fd5b505050506040513d601f19601f820116820180604052508101906105739190614752565b610590576040516385abdc5960e01b815260040160405180910390fd5b60006105a06101c083018361476f565b8101906105ad91906147b5565b9050600061eeee6105c6610120850161010086016147b5565b6001600160a01b0316146105db5760006105e2565b6101608301355b90506001600160a01b03821663fef43257827f0000000000000000000000000000000000000000000000000000000000000000610627610120880161010089016147b5565b61016088013561063a60208a018a6147b5565b60008a6020013560405160200161065391815260200190565b6040516020818303038152906040526040518863ffffffff1660e01b8152600401610683969594939291906147d2565b60206040518083038185885af1935050505080156106be575060408051601f3d908101601f191682019092526106bb9181019061482b565b60015b6107ac573d8080156106ec576040519150601f19603f3d011682016040523d82523d6000602084013e6106f1565b606091505b5033639e6eec0583602087013561071061012089016101008a016147b5565b604080517f000000000000000000000000000000000000000000000000000000000000000060208201526101608b013591600091016040516020818303038152906040526040518763ffffffff1660e01b8152600401610774959493929190614844565b6000604051808303818588803b15801561078d57600080fd5b505af11580156107a1573d6000803e3d6000fd5b505050505050505050565b505b505050565b606060046000838152602001908152602001600020805480602002602001604051908101604052809291908181526020016000905b828210156108cc576000848152602090819020604080516060810182526003860290920180546001600160a01b031683526001810154938301939093526002830180549293929184019161083b90614892565b80601f016020809104026020016040519081016040528092919081815260200182805461086790614892565b80156108b45780601f10610889576101008083540402835291602001916108b4565b820191906000526020600020905b81548152906001019060200180831161089757829003601f168201915b505050505081525050815260200190600101906107e8565b505050509050919050565b6000828152602081905260408120546001600160a01b0390811690831603610901575060016109ef565b604051633d12cb8760e01b8152600481018490526000907f00000000000000000000000000000000000000000000000000000000000000006001600160a01b031690633d12cb8790602401600060405180830381865afa158015610969573d6000803e3d6000fd5b505050506040513d6000823e601f3d908101601f1916820160405261099191908101906148cc565b805190915060005b818110156109e7578281815181106109b3576109b361495a565b60200260200101516001600160a01b0316856001600160a01b0316036109df57600193505050506109ef565b600101610999565b506000925050505b92915050565b60007f00000000000000000000000000000000000000000000000000000000000000006001600160a01b031663d4a1b4b16040518163ffffffff1660e01b8152600401602060405180830381865afa158015610a55573d6000803e3d6000fd5b505050506040513d601f19601f82011682018060405250810190610a799190614970565b604051630969875760e21b815260048101869052602481018590526001600160a01b0391909116906325a61d5c9060440161012060405180830381865afa158015610ac8573d6000803e3d6000fd5b505050506040513d601f19601f82011682018060405250810190610aec91906149c4565b905042816060015165ffffffffffff161115610b1b57604051633c09460360e11b815260040160405180910390fd5b60008481526002602090815260408083208483015165ffffffffffff16845282528083206001600160a01b038616845290915281205490819003610b60575050505050565b600085815260026020908152604080832087845282528083206001600160a01b0387168452909152812055610b96858285611470565b826001600160a01b0316826020015165ffffffffffff1686600080516020615f898339815191528433604051610bcd929190614660565b60405180910390a45050505050565b60c081013560009081526020819052604081205460609081906001600160a01b03168015610c7f57604051634661ac2360e11b81526001600160a01b03821690638cc3584690610c30908890600401614b31565b600060405180830381865afa158015610c4d573d6000803e3d6000fd5b505050506040513d6000823e601f3d908101601f19168201604052610c759190810190614be7565b9094509150610c88565b84610120013593505b815160c086013560009081526004602090815260408083208054825181850281018501909352808352941515949192909190849084015b82821015610da3576000848152602090819020604080516060810182526003860290920180546001600160a01b0316835260018101549383019390935260028301805492939291840191610d1290614892565b80601f0160208091040260200160405190810160405280929190818152602001828054610d3e90614892565b8015610d8b5780601f10610d6057610100808354040283529160200191610d8b565b820191906000526020600020905b815481529060010190602001808311610d6e57829003601f168201915b50505050508152505081526020019060010190610cbf565b50505050905060008151905082610dbb576000610dbe565b60015b610dcb9060ff1682614d46565b6001600160401b03811115610de257610de26135ac565b604051908082528060200260200182016040528015610e1b57816020015b610e086131ac565b815260200190600190039081610e005790505b50955060005b81811015610e6857828181518110610e3b57610e3b61495a565b6020026020010151878281518110610e5557610e5561495a565b6020908102919091010152600101610e21565b508215610ea85784600081518110610e8257610e8261495a565b6020026020010151868281518110610e9c57610e9c61495a565b60200260200101819052505b5050505050915091565b610ebc843361151f565b60003384848460200135604051602001610ed99493929190614d59565b60408051601f1981840301815291905280516020909101209050610f108582610f028580614d8f565b610f0b91614dd8565b61154a565b80857f755ecfca2f6e66af8868551556bf7931740a7062db8e0882f4c322fdb0bb3f6086868633604051610f479493929190614de5565b60405180910390a35050505050565b600080610f6a8b8b8b8b8b8b8b8b8b6115e1565b909c909b509950505050505050505050565b6000808060606001600160a01b037f0000000000000000000000000000000000000000000000000000000000000000166383db9d0160408701803590610fc59060208a016147b5565b6040518363ffffffff1660e01b8152600401610fe2929190614660565b602060405180830381865afa158015610fff573d6000803e3d6000fd5b505050506040513d601f19601f820116820180604052508101906110239190614752565b156110405761271093506080850135925060a08501359150611256565b6040808601356000908152600160205220544210156110725760405163e889f60760e01b815260040160405180910390fd5b600061107c611410565b6001600160a01b031663862026507f00000000000000000000000000000000000000000000000000000000000000006110bb60e08a0160c08b016147b5565b6040518363ffffffff1660e01b81526004016110d8929190614660565b602060405180830381865afa1580156110f5573d6000803e3d6000fd5b505050506040513d601f19601f820116820180604052508101906111199190614970565b9050610160860135612710148061113757506001600160a01b038116155b156111585785610160013586608001358760a0013594509450945050611256565b600061116c608088013560196103e86116f3565b9050600061118a6101208901358360a08b01356101608c01356117ca565b604080516001808252818301909252919250816020015b604080516060808201835260008083526020830152918101919091528152602001906001900390816111a15790505093506040518060600160405280306001600160a01b031681526020018281526020018460405160200161120391906134cd565b604051602081830303815290604052815250846000815181106112285761122861495a565b60209081029190910101526101608801356112478360808b0135614f9d565b8960a001359650965096505050505b9193509193565b6000611267611842565b6001600160a01b031663632af95f833086611281886118a2565b6000806040518763ffffffff1660e01b81526004016112a596959493929190614fb0565b602060405180830381865afa1580156112c2573d6000803e3d6000fd5b505050506040513d601f19601f820116820180604052508101906112e69190614752565b9392505050565b6112f7823361151f565b611337303366ffffffffffffff85166000604051908082528060200260200182016040528015611331578160200160208202803683370190505b50611a1c565b6113418282611a96565b806001600160a01b0316827f0329d6a81434b130c72eb65eea0e32e429dc1277b4aad86ec86454aefb6184513360405161137b91906134cd565b60405180910390a35050565b60007f00000000000000000000000000000000000000000000000000000000000000006001600160a01b031663293c49996040518163ffffffff1660e01b8152600401602060405180830381865afa1580156113e7573d6000803e3d6000fd5b505050506040513d601f19601f8201168201806040525081019061140b9190614970565b905090565b60007f00000000000000000000000000000000000000000000000000000000000000006001600160a01b03166388bc2ef36040518163ffffffff1660e01b8152600401602060405180830381865afa1580156113e7573d6000803e3d6000fd5b6040516363fdc96f60e11b815260048101849052602481018390526001600160a01b03828116604483015260a06064830152600060a4830181905260848301527f0000000000000000000000000000000000000000000000000000000000000000169063c7fb92de9060c4016020604051808303816000875af11580156114fb573d6000803e3d6000fd5b505050506040513d601f19601f820116820180604052508101906107ac919061482b565b611529828261125d565b611546576040516385abdc5960e01b815260040160405180910390fd5b5050565b604051630179fa8760e51b81526001600160a01b037f00000000000000000000000000000000000000000000000000000000000000001690632f3f50e09061159a908690869086906004016150f4565b6000604051808303816000875af11580156115b9573d6000803e3d6000fd5b505050506040513d6000823e601f3d908101601f191682016040526107ac91908101906148cc565b6000806115f48b8b8b8b8b8b8b8b611b5a565b909b5090506116038184611e1b565b6040805160018082528183019092526000916020808301908036833701905050905060148160008151811061163a5761163a61495a565b60ff909216602092830291909101820152604080516060810182526005546001600160a01b0316815266ffffffffffffff8f16928101929092528101829052611681611842565b6001600160a01b031663893ce90130836040518363ffffffff1660e01b81526004016116ae929190615113565b600060405180830381600087803b1580156116c857600080fd5b505af11580156116dc573d6000803e3d6000fd5b505050508c93505050995099975050505050505050565b600080806000198587098587029250828110838203039150508060000361172d578382816117235761172361519e565b04925050506112e6565b83811061176257604051630c740aef60e31b815260048101879052602481018690526044810185905260640160405180910390fd5b600084868809600260036001881981018916988990049182028318808302840302808302840302808302840302808302840302808302840302918202909203026000889003889004909101858311909403939093029303949094049190911702949350505050565b6000816000036117dc5750600061183a565b8284036117ea57508361183a565b60006117f78686866116f3565b905061270f19830161180a57905061183a565b611836816118248761181e87612710614f9d565b886116f3565b61182e9086614d46565b6127106116f3565b9150505b949350505050565b60007f00000000000000000000000000000000000000000000000000000000000000006001600160a01b031663f434c9146040518163ffffffff1660e01b8152600401602060405180830381865afa1580156113e7573d6000803e3d6000fd5b60008181526003602090815260408083208054825181850281018501909352808352606094938301828280156118f757602002820191906000526020600020905b8154815260200190600101908083116118e3575b5050835193945061190f925083915060039050614d46565b6001600160401b03811115611926576119266135ac565b60405190808252806020026020018201604052801561194f578160200160208202803683370190505b509250601160ff168360008151811061196a5761196a61495a565b602002602001018181525050601860ff168360018151811061198e5761198e61495a565b602002602001018181525050600660ff16836002815181106119b2576119b261495a565b60200260200101818152505060005b81811015611a14578281815181106119db576119db61495a565b6020026020010151848260036119f19190614d46565b81518110611a0157611a0161495a565b60209081029190910101526001016119c1565b505050919050565b604080516060810182526001600160a01b038516815266ffffffffffffff84166020820152908101829052611a4f611842565b6001600160a01b031663893ce90186836040518363ffffffff1660e01b8152600401611a7c929190615113565b600060405180830381600087803b15801561078d57600080fd5b6000611aa1836118a2565b80519091506000816001600160401b03811115611ac057611ac06135ac565b604051908082528060200260200182016040528015611ae9578160200160208202803683370190505b50905060005b82811015611b3d57838181518110611b0957611b0961495a565b6020026020010151828281518110611b2357611b2361495a565b60ff90921660209283029190910190910152600101611aef565b50611b5330858766ffffffffffffff1684611a1c565b5050505050565b60008089808203611bdc57611b6d611387565b6001600160a01b03166306661abd6040518163ffffffff1660e01b8152600401602060405180830381865afa158015611baa573d6000803e3d6000fd5b505050506040513d601f19601f82011682018060405250810190611bce919061482b565b611bd9906001614d46565b9a505b84516000611beb826001614d46565b6001600160401b03811115611c0257611c026135ac565b604051908082528060200260200182016040528015611c3b57816020015b611c286131ac565b815260200190600190039081611c205790505b50905060005b82811015611c8857878181518110611c5b57611c5b61495a565b6020026020010151828281518110611c7557611c7561495a565b6020908102919091010152600101611c41565b507f00000000000000000000000000000000000000000000000000000000000000006001600160a01b0316632230819f8e8a600001516040518363ffffffff1660e01b8152600401611cdb9291906152ce565b6020604051808303816000875af1158015611cfa573d6000803e3d6000fd5b505050506040513d601f19601f82011682018060405250810190611d1e9190614970565b9350876020015115611d4d5760008d815260036020908152604082208054600181018255908352912060149101555b876040015115611d7a5760008d815260036020908152604082208054600181018255908352912060159101555b876060015115611da75760008d815260036020908152604082208054600181018255908352912060169101555b6040518060600160405280856001600160a01b031681526020016000815260200160405180602001604052806000815250815250818381518110611ded57611ded61495a565b6020026020010181905250611e07838d8d8d8d868c611fb3565b508c94505050509850989650505050505050565b80516000819003611e2b57505050565b6000816001600160401b03811115611e4557611e456135ac565b604051908082528060200260200182016040528015611ea757816020015b6040805160c081018252600080825260208083018290529282018190526060808301829052608083019190915260a08201528252600019909201910181611e635790505b506040805160a081018252600080825260208201819052918101829052606080820183905260808201529192505b83811015611f8257848181518110611eef57611eef61495a565b602002602001015191506040518060c00160405280876001600160a01b03168152602001836000015162ffffff16815260200183602001516001600160681b03168152602001836040015163ffffffff168152602001836060015163ffffffff1681526020018360800151815250838281518110611f6f57611f6f61495a565b6020908102919091010152600101611ed5565b50600554604051631107934d60e21b81526001600160a01b039091169063441e4d3490611a7c908590600401615433565b6000611fc888888888308761ffff168a6120af565b835190985060005b818110156120675760008a81526004602052604090208551869083908110611ffa57611ffa61495a565b602090810291909101810151825460018082018555600094855293839020825160039092020180546001600160a01b0319166001600160a01b0390921691909117815591810151928201929092556040820151600282019061205c9082615549565b505050600101611fd0565b50887fdfaf2737f25eace49d372b472ec03f1df0f9814dfc69d2b95c5e92a041f42e29853360405161209a929190615608565b60405180910390a25096979650505050505050565b60008060006120bf898787612636565b915091508960000361216c5788516040908101519051634fb99a3f60e01b81526001600160a01b037f00000000000000000000000000000000000000000000000000000000000000001691634fb99a3f9161212291309187908e90600401615abf565b6020604051808303816000875af1158015612141573d6000803e3d6000fd5b505050506040513d601f19601f82011682018060405250810190612165919061482b565b99506123e7565b7f00000000000000000000000000000000000000000000000000000000000000006001600160a01b031663293c49996040518163ffffffff1660e01b8152600401602060405180830381865afa1580156121ca573d6000803e3d6000fd5b505050506040513d601f19601f820116820180604052508101906121ee9190614970565b6001600160a01b03166342842e0e7f00000000000000000000000000000000000000000000000000000000000000006001600160a01b031663293c49996040518163ffffffff1660e01b8152600401602060405180830381865afa15801561225a573d6000803e3d6000fd5b505050506040513d601f19601f8201168201806040525081019061227e9190614970565b6001600160a01b0316636352211e8d6040518263ffffffff1660e01b81526004016122ab91815260200190565b602060405180830381865afa1580156122c8573d6000803e3d6000fd5b505050506040513d601f19601f820116820180604052508101906122ec9190614970565b6040516001600160e01b031960e084901b1681526001600160a01b039091166004820152306024820152604481018d9052606401600060405180830381600087803b15801561233a57600080fd5b505af115801561234e573d6000803e3d6000fd5b505060405163b1d5968560e01b81526001600160a01b037f000000000000000000000000000000000000000000000000000000000000000016925063b1d5968591506123a2908d9086908d90600401615b26565b6020604051808303816000875af11580156123c1573d6000803e3d6000fd5b505050506040513d601f19601f820116820180604052508101906123e5919061482b565b505b61240f8a8a606001516000815181106124025761240261495a565b6020026020010151612a88565b7f00000000000000000000000000000000000000000000000000000000000000006001600160a01b031663581781918b8b60000151600001518c60000151602001518d60000151606001516040518563ffffffff1660e01b81526004016124799493929190615b6d565b6020604051808303816000875af1158015612498573d6000803e3d6000fd5b505050506040513d601f19601f820116820180604052508101906124bc9190614970565b5086516001600160a01b0316156124d7576124d78a88612b15565b7f00000000000000000000000000000000000000000000000000000000000000006001600160a01b031663ed1159578b60006125168d60400151612c4f565b6040518463ffffffff1660e01b815260040161253493929190615baa565b600060405180830381600087803b15801561254e57600080fd5b505af1158015612562573d6000803e3d6000fd5b505050506125708a8a612d7f565b61257e8a8a60400151611a96565b6125878a612f99565b6020840151600090156125c857338286602001516040516020016125ad93929190615bc9565b604051602081830303815290604052805190602001206125cb565b60005b905080156125e2576125e28b82876000015161154a565b808b7ff508fc85f2069f367770a68e3aaca6fffdf45a93168764fa7d08aecc9585c4ac8c8c8c8a89893360405161261f9796959493929190615dc7565b60405180910390a350989998505050505050505050565b606083810151518190600081900361266157604051638ef0479760e01b815260040160405180910390fd5b806001600160401b03811115612679576126796135ac565b60405190808252806020026020018201604052801561278357816020015b6127706040805161010080820183526000808352602080840182905283850182905260608085018390526080808601849052865161026081018852848152928301849052958201839052810182905293840181905260a084810182905260c0850182905260e0850182905291840181905261012084018190526101408401819052610160840181905261018084018190526101a084018190526101c084018190526101e0840181905261020084018190526102208401819052610240840152909190820190815260200160608152602001606081525090565b8152602001906001900390816126975790505b50925061278f86613019565b91506127996131d6565b6000805b83811015612a7c57886060015181815181106127bb576127bb61495a565b6020026020010151925081836000015164ffffffffff16116127f05760405163cb89a04560e01b815260040160405180910390fd5b826000015164ffffffffff1686828151811061280e5761280e61495a565b602090810291909101015165ffffffffffff90911690526080830151865187908390811061283e5761283e61495a565b60209081029190910181015163ffffffff90921691015260608301516001600160701b0316156128aa5782606001516001600160701b03166001146128a35761289e6001670de0b6b3a764000085606001516001600160701b03166116f3565b6128ad565b60016128ad565b60005b8682815181106128bf576128bf61495a565b6020026020010151604001906001600160701b031690816001600160701b0316815250508260a001518682815181106128fa576128fa61495a565b60200260200101516060019063ffffffff16908163ffffffff1681525050600086828151811061292c5761292c61495a565b6020026020010151608001906001600160a01b031690816001600160a01b031681525050604051806102600160405280846040015161ffff1681526020018460c0015161271061297c9190615f00565b61ffff908116825260208c81015163ffffffff16908301526000604083018190526060830181905260016080840181905260a0840182905260c0840182905260e08401829052610100840182905261012084018290526101408401829052610160840182905261018084018290526101a084018290526101c08401526101e08301526001600160a01b038b166102008301528916610220909101528651879083908110612a2b57612a2b61495a565b602002602001015160a0018190525084612a458483613053565b604051602001612a56929190615f22565b60408051601f19818403018152919052835190955064ffffffffff16915060010161279d565b50505050935093915050565b805164ffffffffff161580612aa8575042816000015164ffffffffff1610155b15612ab1575050565b6000612ac062278d0042614d46565b600084815260016020526040908190208290555190915083907f48a9634f50564cfe6648ff5e75795a36873bf96c408523d50017032657e6719890612b089084903390614660565b60405180910390a2505050565b602081810151516040805160808101825260008082529381018490529081018390526060810183905290915b82811015612c1b5783602001518181518110612b5f57612b5f61495a565b602090810291909101810151855191810151604080830151606084015184519251633db10e9d60e11b8152600481018c905262ffffff909416602485015263ffffffff91821660448501521660648301526001600160a01b039081166084830152919450911690637b621d3a9060a4016020604051808303816000875af1158015612bee573d6000803e3d6000fd5b505050506040513d601f19601f82011682018060405250810190612c129190614970565b50600101612b41565b5050905160009283526020839052604090922080546001600160a01b0319166001600160a01b039093169290921790915550565b604080516001808252818301909252606091816020015b604080518082019091526000815260606020820152815260200190600190039081612c6657505060408051600180825281830190925291925060009190602082015b6040805160c08101825260008082526020808301829052928201819052606082018190526080820181905260a08201528252600019909201910181612ca85750506040805160c0810182526000808252633b9aca0060208301529181018290526001600160a01b03861660608201526080810182905260a08101829052825192935091839190612d3a57612d3a61495a565b60200260200101819052506040518060400160405280600181526020018281525082600081518110612d6e57612d6e61495a565b602002602001018190525050919050565b606081015151612d8d6131d6565b60005b82811015611b535783606001518181518110612dae57612dae61495a565b6020026020010151915060008260200151519050612dfe6040518060600160405280600063ffffffff16815260200160006001600160681b0316815260200160006001600160a01b031681525090565b60005b82811015612f8e5784602001518181518110612e1f57612e1f61495a565b6020026020010151915046826000015163ffffffff1603612f8657831580612e52575042856000015164ffffffffff1611155b15612ebc57612e738883602001516001600160681b03168460400151611470565b60408201516001600160a01b0316612e8b8542614d46565b89600080516020615f89833981519152856020015133604051612eaf929190615f47565b60405180910390a4612f86565b60208083015160008a81526002909252604082206001600160681b0390911691612ee68742614d46565b8152602001908152602001600020600084604001516001600160a01b03166001600160a01b031681526020019081526020016000206000828254612f2a9190614d46565b909155505060408201516001600160a01b0316612f478542614d46565b897f9e83979117d75aa75fe101361cf46235d3d0a6fa7afafb275d2b9f8af0227313856020015133604051612f7d929190615f47565b60405180910390a45b600101612e01565b505050600101612d90565b60408051600180825281830190925260009160208083019080368337019050509050601b81600081518110612fd057612fd061495a565b602002602001019060ff16908160ff1681525050611546307f00000000000000000000000000000000000000000000000000000000000000008466ffffffffffffff1684611a1c565b6020808201518251805181840151606092830151604051939561303d959401615f69565b6040516020818303038152906040529050919050565b6060811580156130695750825164ffffffffff16155b61307b57825164ffffffffff1661307d565b425b6040808501516060860151608087015160a088015160c089015194516130e096959060200195865261ffff94851660208701526001600160701b0393909316604086015263ffffffff91821660608601521660808401521660a082015260c00190565b60408051601f1981840301815291905260208401515190915060005b81811015613156578261312b8660200151838151811061311e5761311e61495a565b602002602001015161315e565b60405160200161313c929190615f22565b60408051601f1981840301815291905292506001016130fc565b505092915050565b606081600001518260400151836020015160405160200161303d9392919063ffffffff9390931683526001600160a01b039190911660208301526001600160681b0316604082015260600190565b604051806060016040528060006001600160a01b0316815260200160008152602001606081525090565b6040805160e08101825260008082526060602083018190529282018190529181018290526080810182905260a0810182905260c081019190915290565b60006020828403121561322557600080fd5b81356001600160e01b0319811681146112e657600080fd5b6001600160a01b038116811461325257600080fd5b50565b80356132608161323d565b919050565b60008083601f84011261327757600080fd5b5081356001600160401b0381111561328e57600080fd5b6020830191508360208285010111156132a657600080fd5b9250929050565b6000806000806000608086880312156132c557600080fd5b85356132d08161323d565b945060208601356132e08161323d565b93506040860135925060608601356001600160401b0381111561330257600080fd5b61330e88828901613265565b969995985093965092949392505050565b60006020828403121561333157600080fd5b81356001600160401b0381111561334757600080fd5b820161020081850312156112e657600080fd5b60006020828403121561336c57600080fd5b5035919050565b60008060006060848603121561338857600080fd5b833592506020840135915060408401356133a18161323d565b809150509250925092565b6001600160a01b03169052565b60005b838110156133d45781810151838201526020016133bc565b50506000910152565b600081518084526133f58160208601602086016133b9565b601f01601f19169290920160200192915050565b600082825180855260208086019550808260051b84010181860160005b8481101561347d57858303601f19018952815180516001600160a01b031684528481015185850152604090810151606091850182905290613469818601836133dd565b9a86019a9450505090830190600101613426565b5090979650505050505050565b6020815260006112e66020830184613409565b600080604083850312156134b057600080fd5b8235915060208301356134c28161323d565b809150509250929050565b6001600160a01b0391909116815260200190565b6000602082840312156134f357600080fd5b81356001600160401b0381111561350957600080fd5b820161018081850312156112e657600080fd5b82815260406020820152600061183a6040830184613409565b6000806000806060858703121561354b57600080fd5b8435935060208501356001600160401b038082111561356957600080fd5b61357588838901613265565b9095509350604087013591508082111561358e57600080fd5b508501604081880312156135a157600080fd5b939692955090935050565b634e487b7160e01b600052604160045260246000fd5b604051606081016001600160401b03811182821017156135e4576135e46135ac565b60405290565b60405160e081016001600160401b03811182821017156135e4576135e46135ac565b604051608081016001600160401b03811182821017156135e4576135e46135ac565b604080519081016001600160401b03811182821017156135e4576135e46135ac565b60405161018081016001600160401b03811182821017156135e4576135e46135ac565b60405161012081016001600160401b03811182821017156135e4576135e46135ac565b60405160a081016001600160401b03811182821017156135e4576135e46135ac565b604051601f8201601f191681016001600160401b03811182821017156136e0576136e06135ac565b604052919050565b60006001600160401b03821115613701576137016135ac565b50601f01601f191660200190565b600061372261371d846136e8565b6136b8565b905082815283838301111561373657600080fd5b828260208301376000602084830101529392505050565b600082601f83011261375e57600080fd5b6112e68383356020850161370f565b63ffffffff8116811461325257600080fd5b80356132608161376d565b60006001600160401b038211156137a3576137a36135ac565b5060051b60200190565b803564ffffffffff8116811461326057600080fd5b80356001600160681b038116811461326057600080fd5b600082601f8301126137ea57600080fd5b813560206137fa61371d8361378a565b8281526060928302850182019282820191908785111561381957600080fd5b8387015b8581101561347d5781818a0312156138355760008081fd5b61383d6135c2565b81356138488161376d565b81526138558287016137c2565b868201526040808301356138688161323d565b90820152845292840192810161381d565b803561ffff8116811461326057600080fd5b6001600160701b038116811461325257600080fd5b80356132608161388b565b600082601f8301126138bc57600080fd5b813560206138cc61371d8361378a565b82815260059290921b840181019181810190868411156138eb57600080fd5b8286015b848110156139cc5780356001600160401b038082111561390f5760008081fd5b9088019060e0828b03601f19018113156139295760008081fd5b6139316135ea565b61393c8885016137ad565b8152604080850135848111156139525760008081fd5b6139608e8b838901016137d9565b8a8401525060609350613974848601613879565b9082015260806139858582016138a0565b8483015260a0935061399884860161377f565b9082015260c06139a985820161377f565b848301526139b8838601613879565b9082015286525050509183019183016138ef565b509695505050505050565b6000608082840312156139e957600080fd5b6139f161360c565b905081356001600160401b0380821115613a0a57600080fd5b9083019060808286031215613a1e57600080fd5b613a2661360c565b823582811115613a3557600080fd5b613a418782860161374d565b825250602083013582811115613a5657600080fd5b613a628782860161374d565b602083015250604083013582811115613a7a57600080fd5b613a868782860161374d565b604083015250606083810135908201528352613aa46020850161377f565b6020840152613ab560408501613255565b60408401526060840135915080821115613ace57600080fd5b50613adb848285016138ab565b60608301525092915050565b803560ff8116811461326057600080fd5b600082601f830112613b0957600080fd5b81356020613b1961371d8361378a565b82815260059290921b84018101918181019086841115613b3857600080fd5b8286015b848110156139cc5780356001600160401b0380821115613b5b57600080fd5b908801906040828b03601f1901811315613b7457600080fd5b613b7c61362e565b87840135613b898161323d565b81528382013583811115613b9c57600080fd5b8085019450508b603f850112613bb157600080fd5b878401359250613bc361371d8461378a565b83815260609093028401820192888101908d851115613be157600080fd5b948301945b84861015613c45576060868f031215613bfe57600080fd5b613c066135c2565b8635613c118161323d565b8152613c1e878c01613ae7565b8b82015284870135613c2f8161376d565b8186015282526060959095019490890190613be6565b828a0152508652505050918301918301613b3c565b803562ffffff8116811461326057600080fd5b60006040808385031215613c8057600080fd5b613c8861362e565b91508235613c958161323d565b82526020838101356001600160401b03811115613cb157600080fd5b8401601f81018613613cc257600080fd5b8035613cd061371d8261378a565b81815260079190911b82018301908381019088831115613cef57600080fd5b928401925b82841015613d67576080848a031215613d0d5760008081fd5b613d1561360c565b8435613d208161323d565b8152613d2d858701613c5a565b8682015286850135613d3e8161376d565b81880152606085810135613d518161376d565b9082015282526080939093019290840190613cf4565b808588015250505050505092915050565b6000613d8661371d8461378a565b8381529050602080820190600585901b840186811115613da557600080fd5b845b81811015613ed25780356001600160401b0380821115613dc75760008081fd5b8188019150604080838c031215613dde5760008081fd5b613de661362e565b8335613df18161323d565b81528387013583811115613e055760008081fd5b8085019450508b601f850112613e1d57600092508283fd5b83359250613e2d61371d8461378a565b83815260079390931b8401870192878101908d851115613e4d5760008081fd5b948801945b84861015613ebd576080868f031215613e6b5760008081fd5b613e7361360c565b8635613e7e8161323d565b8152868a0135613e8d8161376d565b818b015286850135613e9e8161323d565b8186015260608781013590820152825260809095019490880190613e52565b82890152508752505050928201928201613da7565b505050509392505050565b600060408284031215613eef57600080fd5b613ef761362e565b905081356001600160401b03811115613f0f57600080fd5b8201601f81018413613f2057600080fd5b613f2f84823560208401613d78565b8252506020820135602082015292915050565b801515811461325257600080fd5b803561326081613f42565b60006080808385031215613f6e57600080fd5b613f7661360c565b915082356001600160401b03811115613f8e57600080fd5b8301601f81018513613f9f57600080fd5b80356020613faf61371d8361378a565b8281526101809283028401820192828201919089851115613fcf57600080fd5b948301945b848610156140c25780868b031215613fec5760008081fd5b613ff4613650565b613ffd876137c2565b815261400a85880161377f565b85820152604061401b81890161377f565b90820152606061402c888201613879565b9082015261403b878901613255565b8189015260a0878101359082015260c0614056818901613c5a565b9082015260e0614067888201613f50565b90820152610100614079888201613f50565b9082015261012061408b888201613f50565b9082015261014061409d888201613f50565b908201526101606140af888201613f50565b9082015283529485019491830191613fd4565b508652506140d186820161377f565b81860152505050506140e560408301613ae7565b60408201526140f660608301613255565b606082015292915050565b60006080828403121561411357600080fd5b61411b61360c565b9050813561412881613f42565b8152602082013561413881613f42565b6020820152604082013561414b81613f42565b604082015260608201356140f681613f42565b60006080828403121561417057600080fd5b61417861360c565b905081356001600160401b038082111561419157600080fd5b9083019061018082860312156141a657600080fd5b6141ae613673565b8235828111156141bd57600080fd5b6141c98782860161374d565b8252506020830135828111156141de57600080fd5b6141ea8782860161374d565b6020830152506141fc60408401613255565b604082015260608301358281111561421357600080fd5b61421f8782860161374d565b60608301525061423160808401613255565b608082015260a08301358281111561424857600080fd5b6142548782860161374d565b60a08301525060c08301358281111561426c57600080fd5b61427887828601613f5b565b60c08301525061428a60e08401613255565b60e082015261010091506142a086838501614101565b828201528084525050506142b660208301613f50565b60208201526142c760408301613f50565b60408201526140f660608301613f50565b600082601f8301126142e957600080fd5b813560206142f961371d8361378a565b82815260059290921b8401810191818101908684111561431857600080fd5b8286015b848110156139cc5780356001600160401b038082111561433c5760008081fd5b908801906060828b03601f19018113156143565760008081fd5b61435e6135c2565b8784013561436b8161323d565b81526040848101358983015291840135918383111561438a5760008081fd5b82850194508c603f8601126143a157600093508384fd5b6143b18d8a87013583880161370f565b90820152865250505091830191830161431c565b600082601f8301126143d657600080fd5b813560206143e661371d8361378a565b828152600592831b850182019282820191908785111561440557600080fd5b8387015b8581101561347d5780356001600160401b03808211156144295760008081fd5b9089019060a0828c03601f19018113156144435760008081fd5b61444b613696565b614456898501613c5a565b815260406144658186016137c2565b8a8301526060808601356144788161376d565b8383015260808681013561448b8161376d565b848301529386013593858511156144a457600091508182fd5b84870196508f603f8801126144bb57600095508586fd5b8b87013595506144cd61371d8761378a565b86815295891b87018301958c8101955091508f8611156144ed5760008081fd5b958201955b8587101561451757863592506145078361323d565b828552958b0195938b01936144f2565b830152508752505050928401928401614409565b60008060008060008060008060006101208a8c03121561454a57600080fd5b8935985060208a01356001600160401b038082111561456857600080fd5b6145748d838e016139d7565b995060408c013591508082111561458a57600080fd5b6145968d838e01613af8565b985060608c01359150808211156145ac57600080fd5b6145b88d838e01613c6d565b975060808c01359150808211156145ce57600080fd5b6145da8d838e01613edd565b965060a08c01359150808211156145f057600080fd5b6145fc8d838e0161415e565b955060c08c013591508082111561461257600080fd5b61461e8d838e016142d8565b945061462c60e08d01613879565b93506101008c013591508082111561464357600080fd5b506146508c828d016143c5565b9150509295985092959850929598565b9182526001600160a01b0316602082015260400190565b60006020828403121561468957600080fd5b81356001600160401b0381111561469f57600080fd5b82016101a081850312156112e657600080fd5b60006080820186835260208681850152604086604086015260606080606087015283875180865260a08801915060a08160051b890101955084890160005b8281101561474057898803609f19018452815180516001600160a01b0316895287810151888a015286015186890186905261472d868a01826133dd565b98505092860192908601906001016146f0565b50959c9b505050505050505050505050565b60006020828403121561476457600080fd5b81516112e681613f42565b6000808335601e1984360301811261478657600080fd5b8301803591506001600160401b038211156147a057600080fd5b6020019150368190038213156132a657600080fd5b6000602082840312156147c757600080fd5b81356112e68161323d565b868152600060018060a01b03808816602084015286604084015280861660608401525083608083015260e060a0830152600060e08301526101008060c084015261481e818401856133dd565b9998505050505050505050565b60006020828403121561483d57600080fd5b5051919050565b85815260018060a01b0385166020820152836040820152821515606082015260c06080820152600060c082015260e060a0820152600061488760e08301846133dd565b979650505050505050565b600181811c908216806148a657607f821691505b6020821081036148c657634e487b7160e01b600052602260045260246000fd5b50919050565b600060208083850312156148df57600080fd5b82516001600160401b038111156148f557600080fd5b8301601f8101851361490657600080fd5b805161491461371d8261378a565b81815260059190911b8201830190838101908783111561493357600080fd5b928401925b8284101561488757835161494b8161323d565b82529284019290840190614938565b634e487b7160e01b600052603260045260246000fd5b60006020828403121561498257600080fd5b81516112e68161323d565b805165ffffffffffff8116811461326057600080fd5b80516132608161376d565b80516132608161388b565b80516132608161323d565b600061012082840312156149d757600080fd5b6149df613673565b6149e88361498d565b81526149f66020840161498d565b6020820152614a076040840161498d565b6040820152614a186060840161498d565b6060820152614a29608084016149a3565b6080820152614a3a60a084016149ae565b60a0820152614a4b60c084016149a3565b60c0820152614a5c60e084016149b9565b60e0820152610100928301519281019290925250919050565b8035614a808161323d565b6001600160a01b0316825260ff614a9960208301613ae7565b1660208301526040810135614aad8161376d565b63ffffffff166040830152606090810135910152565b6000808335601e19843603018112614ada57600080fd5b83016020810192503590506001600160401b03811115614af957600080fd5b8036038213156132a657600080fd5b81835281816020850137506000828201602090810191909152601f909101601f19169091010190565b60208152614b4a60208201614b4584613255565b6133ac565b6000614b5860208401613255565b614b6560408401826133ac565b50614b766060830160408501614a75565b60c083013560e083015261010060e084013581840152614b97818501613255565b9050610120614ba8818501836133ac565b61014091508085013582850152506101608185013581850152614bcd81860186614ac3565b61018086810152925090506104f06101a085018383614b08565b6000806040808486031215614bfb57600080fd5b8351602080860151919450906001600160401b0380821115614c1c57600080fd5b818701915087601f830112614c3057600080fd5b8151614c3e61371d8261378a565b81815260059190911b8301840190848101908a831115614c5d57600080fd5b8585015b83811015614d1e57805185811115614c7857600080fd5b86016060818e03601f19011215614c8f5760008081fd5b614c976135c2565b88820151614ca48161323d565b8152818a015189820152606082015187811115614cc15760008081fd5b8083019250508d603f830112614cd75760008081fd5b88820151614ce761371d826136e8565b8181528f8c838601011115614cfc5760008081fd5b614d0b828c83018e87016133b9565b828c015250845250918601918601614c61565b50809750505050505050509250929050565b634e487b7160e01b600052601160045260246000fd5b808201808211156109ef576109ef614d30565b6001600160a01b0385168152606060208201819052600090614d7e9083018587614b08565b905082604083015295945050505050565b6000808335601e19843603018112614da657600080fd5b8301803591506001600160401b03821115614dc057600080fd5b6020019150600581901b36038213156132a657600080fd5b60006112e6368484613d78565b606081526000614df9606083018688614b08565b602083820381850152601e1986360301863512614e1557600080fd5b8535860180356001600160401b0380821115614e3057600080fd5b8160051b36038484011315614e4457600080fd5b604085526040850182815260608601905060608360051b8701018585016000605e19873603015b86821015614f7b57605f198a850301855280833512614e8957600080fd5b8783350189810135614e9a8161323d565b6001600160a01b03908116865260408201359036839003603e19018212614ec057600080fd5b6040928201928301928c013589811115614ed957600080fd5b8060071b3603841315614eeb57600080fd5b6040888e01819052880181905260608801925060005b81811015614f6157614f13853561323d565b8285351684528d850135614f268161376d565b63ffffffff16848f01526040850135614f3e8161323d565b831660408501526060858101359085015260809485019490930192600101614f01565b505050958a01959450509188019160019190910190614e6b565b505050858b013586880152809750505050505050506104f060408301846133ac565b818103818111156109ef576109ef614d30565b6001600160a01b03878116825286166020808301919091526040820186905260c06060830181905285519083018190526000918681019160e085019190845b8181101561500b57845184529382019392820192600101614fef565b5050509415156080840152505090151560a090910152949350505050565b600082825180855260208086019550808260051b8401018186016000805b858110156150e657868403601f19018a52825180516001600160a01b03908116865290860151604087870181905281518188018190529188019290916060919082890190875b818110156150ce5786518051851684528c81015163ffffffff168d8501528681015185168785015285015185840152958b019560809092019160010161508d565b50509d89019d97505050938601935050600101615047565b509198975050505050505050565b8381528260208201526060604082015260006104f06060830184615029565b600060018060a01b03808516835260206040602085015260a0840182865116604086015266ffffffffffffff6020870151166060860152604086015192506060608086015280835180835260c087019150602085019450600092505b8083101561519257845160ff16825293830193600192909201919083019061516f565b50979650505050505050565b634e487b7160e01b600052601260045260246000fd5b80516080808452815184820181905260009260a0916020918201918388019190865b8281101561529357845180516001600160681b031685528281015163ffffffff908116848701526040808301519091169086015260608082015161ffff169086015287810151615228898701826133ac565b50868101518588015260c08082015162ffffff169086015260e0808201511515908601526101008082015115159086015261012080820151151590860152610140808201511515908601526101609081015115159085015293810193610180909301926001016151d6565b508781015163ffffffff16908901525060408087015160ff169088015260608087015194506152c4908801856133ac565b9695505050505050565b828152604060208201526000825161018060408401526152f26101c08401826133dd565b90506020840151603f198085840301606086015261531083836133dd565b92506040860151915061532660808601836133ac565b60608601519150808584030160a086015261534183836133dd565b92506080860151915061535760c08601836133ac565b60a08601519150808584030160e086015261537283836133dd565b925060c0860151915061010081868503018187015261539184846151b4565b935060e087015192506153a86101208701846133ac565b860151805115156101408701526020810151151561016087015260408101511515610180870152606081015115156101a087015291506153e59050565b50949350505050565b60008151808452602080850194506020840160005b838110156154285781516001600160a01b031687529582019590820190600101615403565b509495945050505050565b600060208083018184528085518083526040925060408601915060408160051b87010184880160005b838110156154eb57888303603f19018552815180516001600160a01b031684528781015162ffffff1688850152868101516001600160681b03168785015260608082015163ffffffff908116918601919091526080808301519091169085015260a09081015160c0918501829052906154d7818601836153ee565b96890196945050509086019060010161545c565b509098975050505050505050565b601f8211156107ae576000816000526020600020601f850160051c810160208610156155225750805b601f850160051c820191505b818110156155415782815560010161552e565b505050505050565b81516001600160401b03811115615562576155626135ac565b615576816155708454614892565b846154f9565b602080601f8311600181146155ab57600084156155935750858301515b600019600386901b1c1916600185901b178555615541565b600085815260208120601f198616915b828110156155da578886015182559484019460019091019084016155bb565b50858210156155f85787850151600019600388901b60f8161c191681555b5050505050600190811b01905550565b60408152600061561b6040830185613409565b905060018060a01b03831660208301529392505050565b805161ffff168252602081015161564f602084018261ffff169052565b506040810151615667604084018263ffffffff169052565b50606081015161567b606084018215159052565b50608081015161568f608084018215159052565b5060a08101516156a360a084018215159052565b5060c08101516156b760c084018215159052565b5060e08101516156cb60e084018215159052565b5061010081810151151590830152610120808201511515908301526101408082015115159083015261016080820151151590830152610180808201511515908301526101a0808201511515908301526101c0808201511515908301526101e0808201511515908301526102008082015115159083015261022080820151615754828501826133ac565b50506102408181015161ffff8116848301526107ac565b600082825180855260208086019550808260051b8401018186016000805b858110156150e657868403601f19018a52825180518552850151604086860181905281518187018190529187019160609081880190865b818110156158315785518051151584528b81015163ffffffff168c8501528581015166ffffffffffffff1686850152848101516001600160a01b039081168686015260808083015165ffffffffffff169086015260a0918201511690840152948a019460c0909201916001016157c0565b50509c88019c965050509285019250600101615789565b60008151808452602080850194506020840160005b8381101561542857815180516001600160e01b0316885283015163ffffffff16838801526040909601959082019060010161585d565b600082825180855260208086019550808260051b84010181860160005b8481101561347d57858303601f19018952815180516001600160a01b039081168552858201511685850152604080820151608082870181905291906158f783880182615848565b92505050606080830151925085820381870152506159158183615848565b9a86019a94505050908301906001016158b0565b600082825180855260208086019550808260051b84010181860160005b8481101561347d57601f198684030189528151805165ffffffffffff1684528481015163ffffffff908116868601526040808301516001600160701b0316908601526060808301519091169085015260808082015161034091906159ac828801826133ac565b505060a0808301516159c082880182615632565b505060c0820151816103008701526159da8287018261576b565b91505060e082015191508481036103208601526159f78183615893565b9a86019a9450505090830190600101615946565b600082825180855260208086019550808260051b8401018186016000805b858110156150e657868403601f19018a52825180516001600160a01b03908116865290860151604087870181905281518188018190529188019290916060919082890190875b81811015615aa75786518051851684528c81015160ff168d85015286015163ffffffff1686840152958b019591840191600101615a6f565b50509d89019d97505050938601935050600101615a29565b6001600160a01b038516815260a060208201819052600090615ae3908301866133dd565b8281036040840152615af58186615929565b90508281036060840152615b098185615a0b565b838103608090940193909352505060008152602001949350505050565b838152608060208201526000615b3f6080830185615929565b8281036040840152615b518185615a0b565b8381036060909401939093525050600081526020019392505050565b848152608060208201526000615b8660808301866133dd565b8281036040840152615b9881866133dd565b91505082606083015295945050505050565b8381528260208201526060604082015260006104f0606083018461576b565b6001600160a01b0384168152606060208201819052600090615bed908301856133dd565b9050826040830152949350505050565b600082825180855260208086019550808260051b8401018186016000805b858110156150e657868403601f19018a528251805164ffffffffff1685528581015160e0878701819052815190870181905261010087019188019085905b80821015615ca7578251805163ffffffff1685528a8101516001600160681b03168b8601526040908101516001600160a01b0316908501526060909301929189019160019190910190615c59565b50505060408281015161ffff908116918801919091526060808401516001600160701b03169088015260808084015163ffffffff9081169189019190915260a0808501519091169088015260c0928301511691909501529884019891840191600101615c1b565b80516001600160a01b03908116835260208083015160408286018190528151868201819052600094919360609390919082019084890190875b81811015615d8f5783518051871684528581015162ffffff16868501528881015163ffffffff9081168a86015290880151168784015292840192608090920191600101615d47565b50909998505050505050505050565b6000815160408452615db36040850182615029565b602093840151949093019390935250919050565b60e0815260008851608060e084015280516080610160850152615dee6101e08501826133dd565b9050602082015161015f198086840301610180870152615e0e83836133dd565b92506040840151915080868403016101a087015250615e2d82826133dd565b606093909301516101c0860152505060208a015163ffffffff1661010084015260408a015190615e616101208501836133ac565b60608b015184820360df19016101408601529150615e7f8183615bfd565b9150508281036020840152615e94818a615a0b565b90508281036040840152615ea88189615d0e565b90508281036060840152615ebc8188615d9e565b90508281036080840152615ed08187615929565b905082810360a0840152615ee481866133dd565b915050615ef460c08301846133ac565b98975050505050505050565b61ffff828116828216039080821115615f1b57615f1b614d30565b5092915050565b604081526000615f3560408301856133dd565b82810360208401526104f081856133dd565b6001600160681b039290921682526001600160a01b0316602082015260400190565b63ffffffff85168152608060208201526000615b8660808301866133dd56fe598baf7bf150ca2f42be9e9f8f55e81d45f5715c3ff22bf46d697fabec7f31d6a2646970667358221220b4c12925b8726c6b081e274af5b92294296b26fb52b5d92fb428ccf16faf596a64736f6c63430008170033",
	"deployedBytecode": "0x6080604052600436106101055760003560e01c806301ffc9a71461010a578063150b7a02146101405780631680e172146101795780631727f039146101bb5780634fa9af69146101d05780635a31dc13146101fd5780635c0a7cee1461023b578063677ce088146102685780637249a7731461028857806382a09b30146102cb5780638cc35846146102eb578063abf8c5c814610319578063b5d255331461034d578063b8a843d714610381578063bb19940214610398578063c57981b5146103b8578063c70bba03146103cd578063cd817cd0146103fb578063db29c8921461042b578063dbfbe5da1461044b578063eb5ad9d91461046b578063ee0fc1211461048b575b600080fd5b34801561011657600080fd5b5061012b610125366004613213565b50600090565b60405190151581526020015b60405180910390f35b34801561014c57600080fd5b5061016061015b3660046132ad565b6104bf565b6040516001600160e01b03199091168152602001610137565b34801561018557600080fd5b506101ad7f000000000000000000000000000000000000000000000000000000000000000281565b604051908152602001610137565b6101ce6101c936600461331f565b6104f9565b005b3480156101dc57600080fd5b506101ad6101eb36600461335a565b60016020526000908152604090205481565b34801561020957600080fd5b506101ad610218366004613373565b600260209081526000938452604080852082529284528284209052825290205481565b34801561024757600080fd5b5061025b61025636600461335a565b6107b3565b604051610137919061348a565b34801561027457600080fd5b5061012b61028336600461349d565b6108d7565b34801561029457600080fd5b506102be6102a336600461335a565b6000602081905290815260409020546001600160a01b031681565b60405161013791906134cd565b3480156102d757600080fd5b506101ce6102e6366004613373565b6109f5565b3480156102f757600080fd5b5061030b6103063660046134e1565b610bdc565b60405161013792919061351c565b34801561032557600080fd5b506102be7f0000000000000000000000000681cdad31dad70c65f8a68551d5cda78f39f96081565b34801561035957600080fd5b506102be7f000000000000000000000000dba05c1525a7d6255dc637edd58c849acb635d2581565b34801561038d57600080fd5b506101ad62278d0081565b3480156103a457600080fd5b506101ce6103b3366004613535565b610eb2565b3480156103c457600080fd5b506101ad601981565b3480156103d957600080fd5b506103ed6103e836600461452b565b610f56565b604051610137929190614660565b34801561040757600080fd5b5061041b610416366004614677565b610f7c565b60405161013794939291906146b2565b34801561043757600080fd5b5061012b61044636600461349d565b61125d565b34801561045757600080fd5b506005546102be906001600160a01b031681565b34801561047757600080fd5b506101ce61048636600461349d565b6112ed565b34801561049757600080fd5b506102be7f00000000000000000000000064c30002444321c4504c8f1b9b04c95de3731fd281565b60006104c9611387565b6001600160a01b0316336001600160a01b0316146104e657600080fd5b50630a85bd0160e11b5b95945050505050565b610501611410565b6001600160a01b0316636e49181f8260200135336040518363ffffffff1660e01b8152600401610532929190614660565b602060405180830381865afa15801561054f573d6000803e3d6000fd5b505050506040513d601f19601f820116820180604052508101906105739190614752565b610590576040516385abdc5960e01b815260040160405180910390fd5b60006105a06101c083018361476f565b8101906105ad91906147b5565b9050600061eeee6105c6610120850161010086016147b5565b6001600160a01b0316146105db5760006105e2565b6101608301355b90506001600160a01b03821663fef43257827f0000000000000000000000000000000000000000000000000000000000000002610627610120880161010089016147b5565b61016088013561063a60208a018a6147b5565b60008a6020013560405160200161065391815260200190565b6040516020818303038152906040526040518863ffffffff1660e01b8152600401610683969594939291906147d2565b60206040518083038185885af1935050505080156106be575060408051601f3d908101601f191682019092526106bb9181019061482b565b60015b6107ac573d8080156106ec576040519150601f19603f3d011682016040523d82523d6000602084013e6106f1565b606091505b5033639e6eec0583602087013561071061012089016101008a016147b5565b604080517f000000000000000000000000000000000000000000000000000000000000000260208201526101608b013591600091016040516020818303038152906040526040518763ffffffff1660e01b8152600401610774959493929190614844565b6000604051808303818588803b15801561078d57600080fd5b505af11580156107a1573d6000803e3d6000fd5b505050505050505050565b505b505050565b606060046000838152602001908152602001600020805480602002602001604051908101604052809291908181526020016000905b828210156108cc576000848152602090819020604080516060810182526003860290920180546001600160a01b031683526001810154938301939093526002830180549293929184019161083b90614892565b80601f016020809104026020016040519081016040528092919081815260200182805461086790614892565b80156108b45780601f10610889576101008083540402835291602001916108b4565b820191906000526020600020905b81548152906001019060200180831161089757829003601f168201915b505050505081525050815260200190600101906107e8565b505050509050919050565b6000828152602081905260408120546001600160a01b0390811690831603610901575060016109ef565b604051633d12cb8760e01b8152600481018490526000907f000000000000000000000000dba05c1525a7d6255dc637edd58c849acb635d256001600160a01b031690633d12cb8790602401600060405180830381865afa158015610969573d6000803e3d6000fd5b505050506040513d6000823e601f3d908101601f1916820160405261099191908101906148cc565b805190915060005b818110156109e7578281815181106109b3576109b361495a565b60200260200101516001600160a01b0316856001600160a01b0316036109df57600193505050506109ef565b600101610999565b506000925050505b92915050565b60007f00000000000000000000000064c30002444321c4504c8f1b9b04c95de3731fd26001600160a01b031663d4a1b4b16040518163ffffffff1660e01b8152600401602060405180830381865afa158015610a55573d6000803e3d6000fd5b505050506040513d601f19601f82011682018060405250810190610a799190614970565b604051630969875760e21b815260048101869052602481018590526001600160a01b0391909116906325a61d5c9060440161012060405180830381865afa158015610ac8573d6000803e3d6000fd5b505050506040513d601f19601f82011682018060405250810190610aec91906149c4565b905042816060015165ffffffffffff161115610b1b57604051633c09460360e11b815260040160405180910390fd5b60008481526002602090815260408083208483015165ffffffffffff16845282528083206001600160a01b038616845290915281205490819003610b60575050505050565b600085815260026020908152604080832087845282528083206001600160a01b0387168452909152812055610b96858285611470565b826001600160a01b0316826020015165ffffffffffff1686600080516020615f898339815191528433604051610bcd929190614660565b60405180910390a45050505050565b60c081013560009081526020819052604081205460609081906001600160a01b03168015610c7f57604051634661ac2360e11b81526001600160a01b03821690638cc3584690610c30908890600401614b31565b600060405180830381865afa158015610c4d573d6000803e3d6000fd5b505050506040513d6000823e601f3d908101601f19168201604052610c759190810190614be7565b9094509150610c88565b84610120013593505b815160c086013560009081526004602090815260408083208054825181850281018501909352808352941515949192909190849084015b82821015610da3576000848152602090819020604080516060810182526003860290920180546001600160a01b0316835260018101549383019390935260028301805492939291840191610d1290614892565b80601f0160208091040260200160405190810160405280929190818152602001828054610d3e90614892565b8015610d8b5780601f10610d6057610100808354040283529160200191610d8b565b820191906000526020600020905b815481529060010190602001808311610d6e57829003601f168201915b50505050508152505081526020019060010190610cbf565b50505050905060008151905082610dbb576000610dbe565b60015b610dcb9060ff1682614d46565b6001600160401b03811115610de257610de26135ac565b604051908082528060200260200182016040528015610e1b57816020015b610e086131ac565b815260200190600190039081610e005790505b50955060005b81811015610e6857828181518110610e3b57610e3b61495a565b6020026020010151878281518110610e5557610e5561495a565b6020908102919091010152600101610e21565b508215610ea85784600081518110610e8257610e8261495a565b6020026020010151868281518110610e9c57610e9c61495a565b60200260200101819052505b5050505050915091565b610ebc843361151f565b60003384848460200135604051602001610ed99493929190614d59565b60408051601f1981840301815291905280516020909101209050610f108582610f028580614d8f565b610f0b91614dd8565b61154a565b80857f755ecfca2f6e66af8868551556bf7931740a7062db8e0882f4c322fdb0bb3f6086868633604051610f479493929190614de5565b60405180910390a35050505050565b600080610f6a8b8b8b8b8b8b8b8b8b6115e1565b909c909b509950505050505050505050565b6000808060606001600160a01b037f000000000000000000000000dba05c1525a7d6255dc637edd58c849acb635d25166383db9d0160408701803590610fc59060208a016147b5565b6040518363ffffffff1660e01b8152600401610fe2929190614660565b602060405180830381865afa158015610fff573d6000803e3d6000fd5b505050506040513d601f19601f820116820180604052508101906110239190614752565b156110405761271093506080850135925060a08501359150611256565b6040808601356000908152600160205220544210156110725760405163e889f60760e01b815260040160405180910390fd5b600061107c611410565b6001600160a01b031663862026507f00000000000000000000000000000000000000000000000000000000000000026110bb60e08a0160c08b016147b5565b6040518363ffffffff1660e01b81526004016110d8929190614660565b602060405180830381865afa1580156110f5573d6000803e3d6000fd5b505050506040513d601f19601f820116820180604052508101906111199190614970565b9050610160860135612710148061113757506001600160a01b038116155b156111585785610160013586608001358760a0013594509450945050611256565b600061116c608088013560196103e86116f3565b9050600061118a6101208901358360a08b01356101608c01356117ca565b604080516001808252818301909252919250816020015b604080516060808201835260008083526020830152918101919091528152602001906001900390816111a15790505093506040518060600160405280306001600160a01b031681526020018281526020018460405160200161120391906134cd565b604051602081830303815290604052815250846000815181106112285761122861495a565b60209081029190910101526101608801356112478360808b0135614f9d565b8960a001359650965096505050505b9193509193565b6000611267611842565b6001600160a01b031663632af95f833086611281886118a2565b6000806040518763ffffffff1660e01b81526004016112a596959493929190614fb0565b602060405180830381865afa1580156112c2573d6000803e3d6000fd5b505050506040513d601f19601f820116820180604052508101906112e69190614752565b9392505050565b6112f7823361151f565b611337303366ffffffffffffff85166000604051908082528060200260200182016040528015611331578160200160208202803683370190505b50611a1c565b6113418282611a96565b806001600160a01b0316827f0329d6a81434b130c72eb65eea0e32e429dc1277b4aad86ec86454aefb6184513360405161137b91906134cd565b60405180910390a35050565b60007f00000000000000000000000064c30002444321c4504c8f1b9b04c95de3731fd26001600160a01b031663293c49996040518163ffffffff1660e01b8152600401602060405180830381865afa1580156113e7573d6000803e3d6000fd5b505050506040513d601f19601f8201168201806040525081019061140b9190614970565b905090565b60007f00000000000000000000000064c30002444321c4504c8f1b9b04c95de3731fd26001600160a01b03166388bc2ef36040518163ffffffff1660e01b8152600401602060405180830381865afa1580156113e7573d6000803e3d6000fd5b6040516363fdc96f60e11b815260048101849052602481018390526001600160a01b03828116604483015260a06064830152600060a4830181905260848301527f00000000000000000000000064c30002444321c4504c8f1b9b04c95de3731fd2169063c7fb92de9060c4016020604051808303816000875af11580156114fb573d6000803e3d6000fd5b505050506040513d601f19601f820116820180604052508101906107ac919061482b565b611529828261125d565b611546576040516385abdc5960e01b815260040160405180910390fd5b5050565b604051630179fa8760e51b81526001600160a01b037f000000000000000000000000dba05c1525a7d6255dc637edd58c849acb635d251690632f3f50e09061159a908690869086906004016150f4565b6000604051808303816000875af11580156115b9573d6000803e3d6000fd5b505050506040513d6000823e601f3d908101601f191682016040526107ac91908101906148cc565b6000806115f48b8b8b8b8b8b8b8b611b5a565b909b5090506116038184611e1b565b6040805160018082528183019092526000916020808301908036833701905050905060148160008151811061163a5761163a61495a565b60ff909216602092830291909101820152604080516060810182526005546001600160a01b0316815266ffffffffffffff8f16928101929092528101829052611681611842565b6001600160a01b031663893ce90130836040518363ffffffff1660e01b81526004016116ae929190615113565b600060405180830381600087803b1580156116c857600080fd5b505af11580156116dc573d6000803e3d6000fd5b505050508c93505050995099975050505050505050565b600080806000198587098587029250828110838203039150508060000361172d578382816117235761172361519e565b04925050506112e6565b83811061176257604051630c740aef60e31b815260048101879052602481018690526044810185905260640160405180910390fd5b600084868809600260036001881981018916988990049182028318808302840302808302840302808302840302808302840302808302840302918202909203026000889003889004909101858311909403939093029303949094049190911702949350505050565b6000816000036117dc5750600061183a565b8284036117ea57508361183a565b60006117f78686866116f3565b905061270f19830161180a57905061183a565b611836816118248761181e87612710614f9d565b886116f3565b61182e9086614d46565b6127106116f3565b9150505b949350505050565b60007f00000000000000000000000064c30002444321c4504c8f1b9b04c95de3731fd26001600160a01b031663f434c9146040518163ffffffff1660e01b8152600401602060405180830381865afa1580156113e7573d6000803e3d6000fd5b60008181526003602090815260408083208054825181850281018501909352808352606094938301828280156118f757602002820191906000526020600020905b8154815260200190600101908083116118e3575b5050835193945061190f925083915060039050614d46565b6001600160401b03811115611926576119266135ac565b60405190808252806020026020018201604052801561194f578160200160208202803683370190505b509250601160ff168360008151811061196a5761196a61495a565b602002602001018181525050601860ff168360018151811061198e5761198e61495a565b602002602001018181525050600660ff16836002815181106119b2576119b261495a565b60200260200101818152505060005b81811015611a14578281815181106119db576119db61495a565b6020026020010151848260036119f19190614d46565b81518110611a0157611a0161495a565b60209081029190910101526001016119c1565b505050919050565b604080516060810182526001600160a01b038516815266ffffffffffffff84166020820152908101829052611a4f611842565b6001600160a01b031663893ce90186836040518363ffffffff1660e01b8152600401611a7c929190615113565b600060405180830381600087803b15801561078d57600080fd5b6000611aa1836118a2565b80519091506000816001600160401b03811115611ac057611ac06135ac565b604051908082528060200260200182016040528015611ae9578160200160208202803683370190505b50905060005b82811015611b3d57838181518110611b0957611b0961495a565b6020026020010151828281518110611b2357611b2361495a565b60ff90921660209283029190910190910152600101611aef565b50611b5330858766ffffffffffffff1684611a1c565b5050505050565b60008089808203611bdc57611b6d611387565b6001600160a01b03166306661abd6040518163ffffffff1660e01b8152600401602060405180830381865afa158015611baa573d6000803e3d6000fd5b505050506040513d601f19601f82011682018060405250810190611bce919061482b565b611bd9906001614d46565b9a505b84516000611beb826001614d46565b6001600160401b03811115611c0257611c026135ac565b604051908082528060200260200182016040528015611c3b57816020015b611c286131ac565b815260200190600190039081611c205790505b50905060005b82811015611c8857878181518110611c5b57611c5b61495a565b6020026020010151828281518110611c7557611c7561495a565b6020908102919091010152600101611c41565b507f0000000000000000000000000681cdad31dad70c65f8a68551d5cda78f39f9606001600160a01b0316632230819f8e8a600001516040518363ffffffff1660e01b8152600401611cdb9291906152ce565b6020604051808303816000875af1158015611cfa573d6000803e3d6000fd5b505050506040513d601f19601f82011682018060405250810190611d1e9190614970565b9350876020015115611d4d5760008d815260036020908152604082208054600181018255908352912060149101555b876040015115611d7a5760008d815260036020908152604082208054600181018255908352912060159101555b876060015115611da75760008d815260036020908152604082208054600181018255908352912060169101555b6040518060600160405280856001600160a01b031681526020016000815260200160405180602001604052806000815250815250818381518110611ded57611ded61495a565b6020026020010181905250611e07838d8d8d8d868c611fb3565b508c94505050509850989650505050505050565b80516000819003611e2b57505050565b6000816001600160401b03811115611e4557611e456135ac565b604051908082528060200260200182016040528015611ea757816020015b6040805160c081018252600080825260208083018290529282018190526060808301829052608083019190915260a08201528252600019909201910181611e635790505b506040805160a081018252600080825260208201819052918101829052606080820183905260808201529192505b83811015611f8257848181518110611eef57611eef61495a565b602002602001015191506040518060c00160405280876001600160a01b03168152602001836000015162ffffff16815260200183602001516001600160681b03168152602001836040015163ffffffff168152602001836060015163ffffffff1681526020018360800151815250838281518110611f6f57611f6f61495a565b6020908102919091010152600101611ed5565b50600554604051631107934d60e21b81526001600160a01b039091169063441e4d3490611a7c908590600401615433565b6000611fc888888888308761ffff168a6120af565b835190985060005b818110156120675760008a81526004602052604090208551869083908110611ffa57611ffa61495a565b602090810291909101810151825460018082018555600094855293839020825160039092020180546001600160a01b0319166001600160a01b0390921691909117815591810151928201929092556040820151600282019061205c9082615549565b505050600101611fd0565b50887fdfaf2737f25eace49d372b472ec03f1df0f9814dfc69d2b95c5e92a041f42e29853360405161209a929190615608565b60405180910390a25096979650505050505050565b60008060006120bf898787612636565b915091508960000361216c5788516040908101519051634fb99a3f60e01b81526001600160a01b037f00000000000000000000000064c30002444321c4504c8f1b9b04c95de3731fd21691634fb99a3f9161212291309187908e90600401615abf565b6020604051808303816000875af1158015612141573d6000803e3d6000fd5b505050506040513d601f19601f82011682018060405250810190612165919061482b565b99506123e7565b7f00000000000000000000000064c30002444321c4504c8f1b9b04c95de3731fd26001600160a01b031663293c49996040518163ffffffff1660e01b8152600401602060405180830381865afa1580156121ca573d6000803e3d6000fd5b505050506040513d601f19601f820116820180604052508101906121ee9190614970565b6001600160a01b03166342842e0e7f00000000000000000000000064c30002444321c4504c8f1b9b04c95de3731fd26001600160a01b031663293c49996040518163ffffffff1660e01b8152600401602060405180830381865afa15801561225a573d6000803e3d6000fd5b505050506040513d601f19601f8201168201806040525081019061227e9190614970565b6001600160a01b0316636352211e8d6040518263ffffffff1660e01b81526004016122ab91815260200190565b602060405180830381865afa1580156122c8573d6000803e3d6000fd5b505050506040513d601f19601f820116820180604052508101906122ec9190614970565b6040516001600160e01b031960e084901b1681526001600160a01b039091166004820152306024820152604481018d9052606401600060405180830381600087803b15801561233a57600080fd5b505af115801561234e573d6000803e3d6000fd5b505060405163b1d5968560e01b81526001600160a01b037f00000000000000000000000064c30002444321c4504c8f1b9b04c95de3731fd216925063b1d5968591506123a2908d9086908d90600401615b26565b6020604051808303816000875af11580156123c1573d6000803e3d6000fd5b505050506040513d601f19601f820116820180604052508101906123e5919061482b565b505b61240f8a8a606001516000815181106124025761240261495a565b6020026020010151612a88565b7f00000000000000000000000064c30002444321c4504c8f1b9b04c95de3731fd26001600160a01b031663581781918b8b60000151600001518c60000151602001518d60000151606001516040518563ffffffff1660e01b81526004016124799493929190615b6d565b6020604051808303816000875af1158015612498573d6000803e3d6000fd5b505050506040513d601f19601f820116820180604052508101906124bc9190614970565b5086516001600160a01b0316156124d7576124d78a88612b15565b7f00000000000000000000000064c30002444321c4504c8f1b9b04c95de3731fd26001600160a01b031663ed1159578b60006125168d60400151612c4f565b6040518463ffffffff1660e01b815260040161253493929190615baa565b600060405180830381600087803b15801561254e57600080fd5b505af1158015612562573d6000803e3d6000fd5b505050506125708a8a612d7f565b61257e8a8a60400151611a96565b6125878a612f99565b6020840151600090156125c857338286602001516040516020016125ad93929190615bc9565b604051602081830303815290604052805190602001206125cb565b60005b905080156125e2576125e28b82876000015161154a565b808b7ff508fc85f2069f367770a68e3aaca6fffdf45a93168764fa7d08aecc9585c4ac8c8c8c8a89893360405161261f9796959493929190615dc7565b60405180910390a350989998505050505050505050565b606083810151518190600081900361266157604051638ef0479760e01b815260040160405180910390fd5b806001600160401b03811115612679576126796135ac565b60405190808252806020026020018201604052801561278357816020015b6127706040805161010080820183526000808352602080840182905283850182905260608085018390526080808601849052865161026081018852848152928301849052958201839052810182905293840181905260a084810182905260c0850182905260e0850182905291840181905261012084018190526101408401819052610160840181905261018084018190526101a084018190526101c084018190526101e0840181905261020084018190526102208401819052610240840152909190820190815260200160608152602001606081525090565b8152602001906001900390816126975790505b50925061278f86613019565b91506127996131d6565b6000805b83811015612a7c57886060015181815181106127bb576127bb61495a565b6020026020010151925081836000015164ffffffffff16116127f05760405163cb89a04560e01b815260040160405180910390fd5b826000015164ffffffffff1686828151811061280e5761280e61495a565b602090810291909101015165ffffffffffff90911690526080830151865187908390811061283e5761283e61495a565b60209081029190910181015163ffffffff90921691015260608301516001600160701b0316156128aa5782606001516001600160701b03166001146128a35761289e6001670de0b6b3a764000085606001516001600160701b03166116f3565b6128ad565b60016128ad565b60005b8682815181106128bf576128bf61495a565b6020026020010151604001906001600160701b031690816001600160701b0316815250508260a001518682815181106128fa576128fa61495a565b60200260200101516060019063ffffffff16908163ffffffff1681525050600086828151811061292c5761292c61495a565b6020026020010151608001906001600160a01b031690816001600160a01b031681525050604051806102600160405280846040015161ffff1681526020018460c0015161271061297c9190615f00565b61ffff908116825260208c81015163ffffffff16908301526000604083018190526060830181905260016080840181905260a0840182905260c0840182905260e08401829052610100840182905261012084018290526101408401829052610160840182905261018084018290526101a084018290526101c08401526101e08301526001600160a01b038b166102008301528916610220909101528651879083908110612a2b57612a2b61495a565b602002602001015160a0018190525084612a458483613053565b604051602001612a56929190615f22565b60408051601f19818403018152919052835190955064ffffffffff16915060010161279d565b50505050935093915050565b805164ffffffffff161580612aa8575042816000015164ffffffffff1610155b15612ab1575050565b6000612ac062278d0042614d46565b600084815260016020526040908190208290555190915083907f48a9634f50564cfe6648ff5e75795a36873bf96c408523d50017032657e6719890612b089084903390614660565b60405180910390a2505050565b602081810151516040805160808101825260008082529381018490529081018390526060810183905290915b82811015612c1b5783602001518181518110612b5f57612b5f61495a565b602090810291909101810151855191810151604080830151606084015184519251633db10e9d60e11b8152600481018c905262ffffff909416602485015263ffffffff91821660448501521660648301526001600160a01b039081166084830152919450911690637b621d3a9060a4016020604051808303816000875af1158015612bee573d6000803e3d6000fd5b505050506040513d601f19601f82011682018060405250810190612c129190614970565b50600101612b41565b5050905160009283526020839052604090922080546001600160a01b0319166001600160a01b039093169290921790915550565b604080516001808252818301909252606091816020015b604080518082019091526000815260606020820152815260200190600190039081612c6657505060408051600180825281830190925291925060009190602082015b6040805160c08101825260008082526020808301829052928201819052606082018190526080820181905260a08201528252600019909201910181612ca85750506040805160c0810182526000808252633b9aca0060208301529181018290526001600160a01b03861660608201526080810182905260a08101829052825192935091839190612d3a57612d3a61495a565b60200260200101819052506040518060400160405280600181526020018281525082600081518110612d6e57612d6e61495a565b602002602001018190525050919050565b606081015151612d8d6131d6565b60005b82811015611b535783606001518181518110612dae57612dae61495a565b6020026020010151915060008260200151519050612dfe6040518060600160405280600063ffffffff16815260200160006001600160681b0316815260200160006001600160a01b031681525090565b60005b82811015612f8e5784602001518181518110612e1f57612e1f61495a565b6020026020010151915046826000015163ffffffff1603612f8657831580612e52575042856000015164ffffffffff1611155b15612ebc57612e738883602001516001600160681b03168460400151611470565b60408201516001600160a01b0316612e8b8542614d46565b89600080516020615f89833981519152856020015133604051612eaf929190615f47565b60405180910390a4612f86565b60208083015160008a81526002909252604082206001600160681b0390911691612ee68742614d46565b8152602001908152602001600020600084604001516001600160a01b03166001600160a01b031681526020019081526020016000206000828254612f2a9190614d46565b909155505060408201516001600160a01b0316612f478542614d46565b897f9e83979117d75aa75fe101361cf46235d3d0a6fa7afafb275d2b9f8af0227313856020015133604051612f7d929190615f47565b60405180910390a45b600101612e01565b505050600101612d90565b60408051600180825281830190925260009160208083019080368337019050509050601b81600081518110612fd057612fd061495a565b602002602001019060ff16908160ff1681525050611546307f000000000000000000000000dba05c1525a7d6255dc637edd58c849acb635d258466ffffffffffffff1684611a1c565b6020808201518251805181840151606092830151604051939561303d959401615f69565b6040516020818303038152906040529050919050565b6060811580156130695750825164ffffffffff16155b61307b57825164ffffffffff1661307d565b425b6040808501516060860151608087015160a088015160c089015194516130e096959060200195865261ffff94851660208701526001600160701b0393909316604086015263ffffffff91821660608601521660808401521660a082015260c00190565b60408051601f1981840301815291905260208401515190915060005b81811015613156578261312b8660200151838151811061311e5761311e61495a565b602002602001015161315e565b60405160200161313c929190615f22565b60408051601f1981840301815291905292506001016130fc565b505092915050565b606081600001518260400151836020015160405160200161303d9392919063ffffffff9390931683526001600160a01b039190911660208301526001600160681b0316604082015260600190565b604051806060016040528060006001600160a01b0316815260200160008152602001606081525090565b6040805160e08101825260008082526060602083018190529282018190529181018290526080810182905260a0810182905260c081019190915290565b60006020828403121561322557600080fd5b81356001600160e01b0319811681146112e657600080fd5b6001600160a01b038116811461325257600080fd5b50565b80356132608161323d565b919050565b60008083601f84011261327757600080fd5b5081356001600160401b0381111561328e57600080fd5b6020830191508360208285010111156132a657600080fd5b9250929050565b6000806000806000608086880312156132c557600080fd5b85356132d08161323d565b945060208601356132e08161323d565b93506040860135925060608601356001600160401b0381111561330257600080fd5b61330e88828901613265565b969995985093965092949392505050565b60006020828403121561333157600080fd5b81356001600160401b0381111561334757600080fd5b820161020081850312156112e657600080fd5b60006020828403121561336c57600080fd5b5035919050565b60008060006060848603121561338857600080fd5b833592506020840135915060408401356133a18161323d565b809150509250925092565b6001600160a01b03169052565b60005b838110156133d45781810151838201526020016133bc565b50506000910152565b600081518084526133f58160208601602086016133b9565b601f01601f19169290920160200192915050565b600082825180855260208086019550808260051b84010181860160005b8481101561347d57858303601f19018952815180516001600160a01b031684528481015185850152604090810151606091850182905290613469818601836133dd565b9a86019a9450505090830190600101613426565b5090979650505050505050565b6020815260006112e66020830184613409565b600080604083850312156134b057600080fd5b8235915060208301356134c28161323d565b809150509250929050565b6001600160a01b0391909116815260200190565b6000602082840312156134f357600080fd5b81356001600160401b0381111561350957600080fd5b820161018081850312156112e657600080fd5b82815260406020820152600061183a6040830184613409565b6000806000806060858703121561354b57600080fd5b8435935060208501356001600160401b038082111561356957600080fd5b61357588838901613265565b9095509350604087013591508082111561358e57600080fd5b508501604081880312156135a157600080fd5b939692955090935050565b634e487b7160e01b600052604160045260246000fd5b604051606081016001600160401b03811182821017156135e4576135e46135ac565b60405290565b60405160e081016001600160401b03811182821017156135e4576135e46135ac565b604051608081016001600160401b03811182821017156135e4576135e46135ac565b604080519081016001600160401b03811182821017156135e4576135e46135ac565b60405161018081016001600160401b03811182821017156135e4576135e46135ac565b60405161012081016001600160401b03811182821017156135e4576135e46135ac565b60405160a081016001600160401b03811182821017156135e4576135e46135ac565b604051601f8201601f191681016001600160401b03811182821017156136e0576136e06135ac565b604052919050565b60006001600160401b03821115613701576137016135ac565b50601f01601f191660200190565b600061372261371d846136e8565b6136b8565b905082815283838301111561373657600080fd5b828260208301376000602084830101529392505050565b600082601f83011261375e57600080fd5b6112e68383356020850161370f565b63ffffffff8116811461325257600080fd5b80356132608161376d565b60006001600160401b038211156137a3576137a36135ac565b5060051b60200190565b803564ffffffffff8116811461326057600080fd5b80356001600160681b038116811461326057600080fd5b600082601f8301126137ea57600080fd5b813560206137fa61371d8361378a565b8281526060928302850182019282820191908785111561381957600080fd5b8387015b8581101561347d5781818a0312156138355760008081fd5b61383d6135c2565b81356138488161376d565b81526138558287016137c2565b868201526040808301356138688161323d565b90820152845292840192810161381d565b803561ffff8116811461326057600080fd5b6001600160701b038116811461325257600080fd5b80356132608161388b565b600082601f8301126138bc57600080fd5b813560206138cc61371d8361378a565b82815260059290921b840181019181810190868411156138eb57600080fd5b8286015b848110156139cc5780356001600160401b038082111561390f5760008081fd5b9088019060e0828b03601f19018113156139295760008081fd5b6139316135ea565b61393c8885016137ad565b8152604080850135848111156139525760008081fd5b6139608e8b838901016137d9565b8a8401525060609350613974848601613879565b9082015260806139858582016138a0565b8483015260a0935061399884860161377f565b9082015260c06139a985820161377f565b848301526139b8838601613879565b9082015286525050509183019183016138ef565b509695505050505050565b6000608082840312156139e957600080fd5b6139f161360c565b905081356001600160401b0380821115613a0a57600080fd5b9083019060808286031215613a1e57600080fd5b613a2661360c565b823582811115613a3557600080fd5b613a418782860161374d565b825250602083013582811115613a5657600080fd5b613a628782860161374d565b602083015250604083013582811115613a7a57600080fd5b613a868782860161374d565b604083015250606083810135908201528352613aa46020850161377f565b6020840152613ab560408501613255565b60408401526060840135915080821115613ace57600080fd5b50613adb848285016138ab565b60608301525092915050565b803560ff8116811461326057600080fd5b600082601f830112613b0957600080fd5b81356020613b1961371d8361378a565b82815260059290921b84018101918181019086841115613b3857600080fd5b8286015b848110156139cc5780356001600160401b0380821115613b5b57600080fd5b908801906040828b03601f1901811315613b7457600080fd5b613b7c61362e565b87840135613b898161323d565b81528382013583811115613b9c57600080fd5b8085019450508b603f850112613bb157600080fd5b878401359250613bc361371d8461378a565b83815260609093028401820192888101908d851115613be157600080fd5b948301945b84861015613c45576060868f031215613bfe57600080fd5b613c066135c2565b8635613c118161323d565b8152613c1e878c01613ae7565b8b82015284870135613c2f8161376d565b8186015282526060959095019490890190613be6565b828a0152508652505050918301918301613b3c565b803562ffffff8116811461326057600080fd5b60006040808385031215613c8057600080fd5b613c8861362e565b91508235613c958161323d565b82526020838101356001600160401b03811115613cb157600080fd5b8401601f81018613613cc257600080fd5b8035613cd061371d8261378a565b81815260079190911b82018301908381019088831115613cef57600080fd5b928401925b82841015613d67576080848a031215613d0d5760008081fd5b613d1561360c565b8435613d208161323d565b8152613d2d858701613c5a565b8682015286850135613d3e8161376d565b81880152606085810135613d518161376d565b9082015282526080939093019290840190613cf4565b808588015250505050505092915050565b6000613d8661371d8461378a565b8381529050602080820190600585901b840186811115613da557600080fd5b845b81811015613ed25780356001600160401b0380821115613dc75760008081fd5b8188019150604080838c031215613dde5760008081fd5b613de661362e565b8335613df18161323d565b81528387013583811115613e055760008081fd5b8085019450508b601f850112613e1d57600092508283fd5b83359250613e2d61371d8461378a565b83815260079390931b8401870192878101908d851115613e4d5760008081fd5b948801945b84861015613ebd576080868f031215613e6b5760008081fd5b613e7361360c565b8635613e7e8161323d565b8152868a0135613e8d8161376d565b818b015286850135613e9e8161323d565b8186015260608781013590820152825260809095019490880190613e52565b82890152508752505050928201928201613da7565b505050509392505050565b600060408284031215613eef57600080fd5b613ef761362e565b905081356001600160401b03811115613f0f57600080fd5b8201601f81018413613f2057600080fd5b613f2f84823560208401613d78565b8252506020820135602082015292915050565b801515811461325257600080fd5b803561326081613f42565b60006080808385031215613f6e57600080fd5b613f7661360c565b915082356001600160401b03811115613f8e57600080fd5b8301601f81018513613f9f57600080fd5b80356020613faf61371d8361378a565b8281526101809283028401820192828201919089851115613fcf57600080fd5b948301945b848610156140c25780868b031215613fec5760008081fd5b613ff4613650565b613ffd876137c2565b815261400a85880161377f565b85820152604061401b81890161377f565b90820152606061402c888201613879565b9082015261403b878901613255565b8189015260a0878101359082015260c0614056818901613c5a565b9082015260e0614067888201613f50565b90820152610100614079888201613f50565b9082015261012061408b888201613f50565b9082015261014061409d888201613f50565b908201526101606140af888201613f50565b9082015283529485019491830191613fd4565b508652506140d186820161377f565b81860152505050506140e560408301613ae7565b60408201526140f660608301613255565b606082015292915050565b60006080828403121561411357600080fd5b61411b61360c565b9050813561412881613f42565b8152602082013561413881613f42565b6020820152604082013561414b81613f42565b604082015260608201356140f681613f42565b60006080828403121561417057600080fd5b61417861360c565b905081356001600160401b038082111561419157600080fd5b9083019061018082860312156141a657600080fd5b6141ae613673565b8235828111156141bd57600080fd5b6141c98782860161374d565b8252506020830135828111156141de57600080fd5b6141ea8782860161374d565b6020830152506141fc60408401613255565b604082015260608301358281111561421357600080fd5b61421f8782860161374d565b60608301525061423160808401613255565b608082015260a08301358281111561424857600080fd5b6142548782860161374d565b60a08301525060c08301358281111561426c57600080fd5b61427887828601613f5b565b60c08301525061428a60e08401613255565b60e082015261010091506142a086838501614101565b828201528084525050506142b660208301613f50565b60208201526142c760408301613f50565b60408201526140f660608301613f50565b600082601f8301126142e957600080fd5b813560206142f961371d8361378a565b82815260059290921b8401810191818101908684111561431857600080fd5b8286015b848110156139cc5780356001600160401b038082111561433c5760008081fd5b908801906060828b03601f19018113156143565760008081fd5b61435e6135c2565b8784013561436b8161323d565b81526040848101358983015291840135918383111561438a5760008081fd5b82850194508c603f8601126143a157600093508384fd5b6143b18d8a87013583880161370f565b90820152865250505091830191830161431c565b600082601f8301126143d657600080fd5b813560206143e661371d8361378a565b828152600592831b850182019282820191908785111561440557600080fd5b8387015b8581101561347d5780356001600160401b03808211156144295760008081fd5b9089019060a0828c03601f19018113156144435760008081fd5b61444b613696565b614456898501613c5a565b815260406144658186016137c2565b8a8301526060808601356144788161376d565b8383015260808681013561448b8161376d565b848301529386013593858511156144a457600091508182fd5b84870196508f603f8801126144bb57600095508586fd5b8b87013595506144cd61371d8761378a565b86815295891b87018301958c8101955091508f8611156144ed5760008081fd5b958201955b8587101561451757863592506145078361323d565b828552958b0195938b01936144f2565b830152508752505050928401928401614409565b60008060008060008060008060006101208a8c03121561454a57600080fd5b8935985060208a01356001600160401b038082111561456857600080fd5b6145748d838e016139d7565b995060408c013591508082111561458a57600080fd5b6145968d838e01613af8565b985060608c01359150808211156145ac57600080fd5b6145b88d838e01613c6d565b975060808c01359150808211156145ce57600080fd5b6145da8d838e01613edd565b965060a08c01359150808211156145f057600080fd5b6145fc8d838e0161415e565b955060c08c013591508082111561461257600080fd5b61461e8d838e016142d8565b945061462c60e08d01613879565b93506101008c013591508082111561464357600080fd5b506146508c828d016143c5565b9150509295985092959850929598565b9182526001600160a01b0316602082015260400190565b60006020828403121561468957600080fd5b81356001600160401b0381111561469f57600080fd5b82016101a081850312156112e657600080fd5b60006080820186835260208681850152604086604086015260606080606087015283875180865260a08801915060a08160051b890101955084890160005b8281101561474057898803609f19018452815180516001600160a01b0316895287810151888a015286015186890186905261472d868a01826133dd565b98505092860192908601906001016146f0565b50959c9b505050505050505050505050565b60006020828403121561476457600080fd5b81516112e681613f42565b6000808335601e1984360301811261478657600080fd5b8301803591506001600160401b038211156147a057600080fd5b6020019150368190038213156132a657600080fd5b6000602082840312156147c757600080fd5b81356112e68161323d565b868152600060018060a01b03808816602084015286604084015280861660608401525083608083015260e060a0830152600060e08301526101008060c084015261481e818401856133dd565b9998505050505050505050565b60006020828403121561483d57600080fd5b5051919050565b85815260018060a01b0385166020820152836040820152821515606082015260c06080820152600060c082015260e060a0820152600061488760e08301846133dd565b979650505050505050565b600181811c908216806148a657607f821691505b6020821081036148c657634e487b7160e01b600052602260045260246000fd5b50919050565b600060208083850312156148df57600080fd5b82516001600160401b038111156148f557600080fd5b8301601f8101851361490657600080fd5b805161491461371d8261378a565b81815260059190911b8201830190838101908783111561493357600080fd5b928401925b8284101561488757835161494b8161323d565b82529284019290840190614938565b634e487b7160e01b600052603260045260246000fd5b60006020828403121561498257600080fd5b81516112e68161323d565b805165ffffffffffff8116811461326057600080fd5b80516132608161376d565b80516132608161388b565b80516132608161323d565b600061012082840312156149d757600080fd5b6149df613673565b6149e88361498d565b81526149f66020840161498d565b6020820152614a076040840161498d565b6040820152614a186060840161498d565b6060820152614a29608084016149a3565b6080820152614a3a60a084016149ae565b60a0820152614a4b60c084016149a3565b60c0820152614a5c60e084016149b9565b60e0820152610100928301519281019290925250919050565b8035614a808161323d565b6001600160a01b0316825260ff614a9960208301613ae7565b1660208301526040810135614aad8161376d565b63ffffffff166040830152606090810135910152565b6000808335601e19843603018112614ada57600080fd5b83016020810192503590506001600160401b03811115614af957600080fd5b8036038213156132a657600080fd5b81835281816020850137506000828201602090810191909152601f909101601f19169091010190565b60208152614b4a60208201614b4584613255565b6133ac565b6000614b5860208401613255565b614b6560408401826133ac565b50614b766060830160408501614a75565b60c083013560e083015261010060e084013581840152614b97818501613255565b9050610120614ba8818501836133ac565b61014091508085013582850152506101608185013581850152614bcd81860186614ac3565b61018086810152925090506104f06101a085018383614b08565b6000806040808486031215614bfb57600080fd5b8351602080860151919450906001600160401b0380821115614c1c57600080fd5b818701915087601f830112614c3057600080fd5b8151614c3e61371d8261378a565b81815260059190911b8301840190848101908a831115614c5d57600080fd5b8585015b83811015614d1e57805185811115614c7857600080fd5b86016060818e03601f19011215614c8f5760008081fd5b614c976135c2565b88820151614ca48161323d565b8152818a015189820152606082015187811115614cc15760008081fd5b8083019250508d603f830112614cd75760008081fd5b88820151614ce761371d826136e8565b8181528f8c838601011115614cfc5760008081fd5b614d0b828c83018e87016133b9565b828c015250845250918601918601614c61565b50809750505050505050509250929050565b634e487b7160e01b600052601160045260246000fd5b808201808211156109ef576109ef614d30565b6001600160a01b0385168152606060208201819052600090614d7e9083018587614b08565b905082604083015295945050505050565b6000808335601e19843603018112614da657600080fd5b8301803591506001600160401b03821115614dc057600080fd5b6020019150600581901b36038213156132a657600080fd5b60006112e6368484613d78565b606081526000614df9606083018688614b08565b602083820381850152601e1986360301863512614e1557600080fd5b8535860180356001600160401b0380821115614e3057600080fd5b8160051b36038484011315614e4457600080fd5b604085526040850182815260608601905060608360051b8701018585016000605e19873603015b86821015614f7b57605f198a850301855280833512614e8957600080fd5b8783350189810135614e9a8161323d565b6001600160a01b03908116865260408201359036839003603e19018212614ec057600080fd5b6040928201928301928c013589811115614ed957600080fd5b8060071b3603841315614eeb57600080fd5b6040888e01819052880181905260608801925060005b81811015614f6157614f13853561323d565b8285351684528d850135614f268161376d565b63ffffffff16848f01526040850135614f3e8161323d565b831660408501526060858101359085015260809485019490930192600101614f01565b505050958a01959450509188019160019190910190614e6b565b505050858b013586880152809750505050505050506104f060408301846133ac565b818103818111156109ef576109ef614d30565b6001600160a01b03878116825286166020808301919091526040820186905260c06060830181905285519083018190526000918681019160e085019190845b8181101561500b57845184529382019392820192600101614fef565b5050509415156080840152505090151560a090910152949350505050565b600082825180855260208086019550808260051b8401018186016000805b858110156150e657868403601f19018a52825180516001600160a01b03908116865290860151604087870181905281518188018190529188019290916060919082890190875b818110156150ce5786518051851684528c81015163ffffffff168d8501528681015185168785015285015185840152958b019560809092019160010161508d565b50509d89019d97505050938601935050600101615047565b509198975050505050505050565b8381528260208201526060604082015260006104f06060830184615029565b600060018060a01b03808516835260206040602085015260a0840182865116604086015266ffffffffffffff6020870151166060860152604086015192506060608086015280835180835260c087019150602085019450600092505b8083101561519257845160ff16825293830193600192909201919083019061516f565b50979650505050505050565b634e487b7160e01b600052601260045260246000fd5b80516080808452815184820181905260009260a0916020918201918388019190865b8281101561529357845180516001600160681b031685528281015163ffffffff908116848701526040808301519091169086015260608082015161ffff169086015287810151615228898701826133ac565b50868101518588015260c08082015162ffffff169086015260e0808201511515908601526101008082015115159086015261012080820151151590860152610140808201511515908601526101609081015115159085015293810193610180909301926001016151d6565b508781015163ffffffff16908901525060408087015160ff169088015260608087015194506152c4908801856133ac565b9695505050505050565b828152604060208201526000825161018060408401526152f26101c08401826133dd565b90506020840151603f198085840301606086015261531083836133dd565b92506040860151915061532660808601836133ac565b60608601519150808584030160a086015261534183836133dd565b92506080860151915061535760c08601836133ac565b60a08601519150808584030160e086015261537283836133dd565b925060c0860151915061010081868503018187015261539184846151b4565b935060e087015192506153a86101208701846133ac565b860151805115156101408701526020810151151561016087015260408101511515610180870152606081015115156101a087015291506153e59050565b50949350505050565b60008151808452602080850194506020840160005b838110156154285781516001600160a01b031687529582019590820190600101615403565b509495945050505050565b600060208083018184528085518083526040925060408601915060408160051b87010184880160005b838110156154eb57888303603f19018552815180516001600160a01b031684528781015162ffffff1688850152868101516001600160681b03168785015260608082015163ffffffff908116918601919091526080808301519091169085015260a09081015160c0918501829052906154d7818601836153ee565b96890196945050509086019060010161545c565b509098975050505050505050565b601f8211156107ae576000816000526020600020601f850160051c810160208610156155225750805b601f850160051c820191505b818110156155415782815560010161552e565b505050505050565b81516001600160401b03811115615562576155626135ac565b615576816155708454614892565b846154f9565b602080601f8311600181146155ab57600084156155935750858301515b600019600386901b1c1916600185901b178555615541565b600085815260208120601f198616915b828110156155da578886015182559484019460019091019084016155bb565b50858210156155f85787850151600019600388901b60f8161c191681555b5050505050600190811b01905550565b60408152600061561b6040830185613409565b905060018060a01b03831660208301529392505050565b805161ffff168252602081015161564f602084018261ffff169052565b506040810151615667604084018263ffffffff169052565b50606081015161567b606084018215159052565b50608081015161568f608084018215159052565b5060a08101516156a360a084018215159052565b5060c08101516156b760c084018215159052565b5060e08101516156cb60e084018215159052565b5061010081810151151590830152610120808201511515908301526101408082015115159083015261016080820151151590830152610180808201511515908301526101a0808201511515908301526101c0808201511515908301526101e0808201511515908301526102008082015115159083015261022080820151615754828501826133ac565b50506102408181015161ffff8116848301526107ac565b600082825180855260208086019550808260051b8401018186016000805b858110156150e657868403601f19018a52825180518552850151604086860181905281518187018190529187019160609081880190865b818110156158315785518051151584528b81015163ffffffff168c8501528581015166ffffffffffffff1686850152848101516001600160a01b039081168686015260808083015165ffffffffffff169086015260a0918201511690840152948a019460c0909201916001016157c0565b50509c88019c965050509285019250600101615789565b60008151808452602080850194506020840160005b8381101561542857815180516001600160e01b0316885283015163ffffffff16838801526040909601959082019060010161585d565b600082825180855260208086019550808260051b84010181860160005b8481101561347d57858303601f19018952815180516001600160a01b039081168552858201511685850152604080820151608082870181905291906158f783880182615848565b92505050606080830151925085820381870152506159158183615848565b9a86019a94505050908301906001016158b0565b600082825180855260208086019550808260051b84010181860160005b8481101561347d57601f198684030189528151805165ffffffffffff1684528481015163ffffffff908116868601526040808301516001600160701b0316908601526060808301519091169085015260808082015161034091906159ac828801826133ac565b505060a0808301516159c082880182615632565b505060c0820151816103008701526159da8287018261576b565b91505060e082015191508481036103208601526159f78183615893565b9a86019a9450505090830190600101615946565b600082825180855260208086019550808260051b8401018186016000805b858110156150e657868403601f19018a52825180516001600160a01b03908116865290860151604087870181905281518188018190529188019290916060919082890190875b81811015615aa75786518051851684528c81015160ff168d85015286015163ffffffff1686840152958b019591840191600101615a6f565b50509d89019d97505050938601935050600101615a29565b6001600160a01b038516815260a060208201819052600090615ae3908301866133dd565b8281036040840152615af58186615929565b90508281036060840152615b098185615a0b565b838103608090940193909352505060008152602001949350505050565b838152608060208201526000615b3f6080830185615929565b8281036040840152615b518185615a0b565b8381036060909401939093525050600081526020019392505050565b848152608060208201526000615b8660808301866133dd565b8281036040840152615b9881866133dd565b91505082606083015295945050505050565b8381528260208201526060604082015260006104f0606083018461576b565b6001600160a01b0384168152606060208201819052600090615bed908301856133dd565b9050826040830152949350505050565b600082825180855260208086019550808260051b8401018186016000805b858110156150e657868403601f19018a528251805164ffffffffff1685528581015160e0878701819052815190870181905261010087019188019085905b80821015615ca7578251805163ffffffff1685528a8101516001600160681b03168b8601526040908101516001600160a01b0316908501526060909301929189019160019190910190615c59565b50505060408281015161ffff908116918801919091526060808401516001600160701b03169088015260808084015163ffffffff9081169189019190915260a0808501519091169088015260c0928301511691909501529884019891840191600101615c1b565b80516001600160a01b03908116835260208083015160408286018190528151868201819052600094919360609390919082019084890190875b81811015615d8f5783518051871684528581015162ffffff16868501528881015163ffffffff9081168a86015290880151168784015292840192608090920191600101615d47565b50909998505050505050505050565b6000815160408452615db36040850182615029565b602093840151949093019390935250919050565b60e0815260008851608060e084015280516080610160850152615dee6101e08501826133dd565b9050602082015161015f198086840301610180870152615e0e83836133dd565b92506040840151915080868403016101a087015250615e2d82826133dd565b606093909301516101c0860152505060208a015163ffffffff1661010084015260408a015190615e616101208501836133ac565b60608b015184820360df19016101408601529150615e7f8183615bfd565b9150508281036020840152615e94818a615a0b565b90508281036040840152615ea88189615d0e565b90508281036060840152615ebc8188615d9e565b90508281036080840152615ed08187615929565b905082810360a0840152615ee481866133dd565b915050615ef460c08301846133ac565b98975050505050505050565b61ffff828116828216039080821115615f1b57615f1b614d30565b5092915050565b604081526000615f3560408301856133dd565b82810360208401526104f081856133dd565b6001600160681b039290921682526001600160a01b0316602082015260400190565b63ffffffff85168152608060208201526000615b8660808301866133dd56fe598baf7bf150ca2f42be9e9f8f55e81d45f5715c3ff22bf46d697fabec7f31d6a2646970667358221220b4c12925b8726c6b081e274af5b92294296b26fb52b5d92fb428ccf16faf596a64736f6c63430008170033",
	"devdoc": {
		"kind": "dev",
		"methods": {
			"afterRedeemRecordedWith((address,uint256,uint256,uint256,(address,uint8,uint32,uint256),(address,uint8,uint32,uint256),uint256,address,bytes,bytes))": {
				"params": {
					"context": "The redemption context passed in by the terminal."
				}
			},
			"beforePayRecordedWith((address,address,(address,uint8,uint32,uint256),uint256,uint256,address,uint256,uint256,bytes))": {
				"details": "Part of IJBFundingCycleDataSource.This implementation just sets this contract up to receive a `didPay` call.",
				"params": {
					"context": "The Juicebox standard network payment context. See"
				},
				"returns": {
					"hookSpecifications": "Amount to be sent to pay hooks instead of adding to local balance. Useful for auto-routing funds from a treasury as payment come in.",
					"weight": "The weight that network tokens should get minted relative to. This is useful for optionally customizing how many tokens are issued per payment."
				}
			},
			"beforeRedeemRecordedWith((address,address,uint256,uint256,uint256,uint256,(address,uint8,uint32,uint256),bool,uint256,bytes))": {
				"details": "If a sucker is redeeming, there should be no tax imposed.Charge a fee on redemptions if there is a cash out tax.",
				"params": {
					"context": "The redemption context passed to this contract by the `redeemTokensOf(...)` function."
				},
				"returns": {
					"_0": "redemptionRate The redemption rate influencing the reclaim amount.",
					"_1": "redeemCount The amount of tokens that should be considered redeemed.",
					"_2": "totalSupply The total amount of tokens that are considered to be existing.",
					"hookSpecifications": "The amount and data to send to redeem hooks (this contract) instead of returning to the beneficiary."
				}
			},
			"constructor": {
				"params": {
					"controller": "The controller that revnets are made from.",
					"feeRevnetId": "The ID of the revnet that will receive fees.",
					"hookDeployer": "The 721 tiers hook deployer.",
					"publisher": "The croptop publisher that facilitates the permissioned publishing of 721 posts to a revnet.",
					"suckerRegistry": "The registry that deploys and tracks each project's suckers."
				}
			},
			"deployFor(uint256,((string,string,string,bytes32),uint32,address,(uint40,(uint32,uint104,address)[],uint16,uint112,uint32,uint32,uint16)[]),(address,(address,uint8,uint32)[])[],(address,(address,uint24,uint32,uint32)[]),((address,(address,uint32,address,uint256)[])[],bytes32),((string,string,address,string,address,string,((uint104,uint32,uint32,uint16,address,bytes32,uint24,bool,bool,bool,bool,bool)[],uint32,uint8,address),address,(bool,bool,bool,bool)),bool,bool,bool),(address,uint256,bytes)[],uint16,(uint24,uint104,uint32,uint32,address[])[])": {
				"params": {
					"allowedPosts": "The type of posts that the revent should allow.",
					"buybackHookConfiguration": "Data used for setting up the buyback hook to use when determining the best price for new participants.",
					"configuration": "The data needed to deploy a basic revnet.",
					"extraHookMetadata": "Extra metadata to attach to the cycle for the delegates to use.",
					"hookConfiguration": "Data used for setting up the 721 tiers.",
					"otherPayHooksSpecifications": "Any hooks that should run when the revnet is paid alongside the 721 hook.",
					"revnetId": "The ID of the Juicebox project to turn into a revnet. Send 0 to deploy a new revnet.",
					"suckerDeploymentConfiguration": "Information about how this revnet relates to other's across chains.",
					"terminalConfigurations": "The terminals that the network uses to accept payments through."
				},
				"returns": {
					"_0": "revnetId The ID of the newly created revnet.",
					"hook": "The address of the 721 hook that was deployed on the revnet."
				}
			},
			"deploySuckersFor(uint256,bytes,((address,(address,uint32,address,uint256)[])[],bytes32))": {
				"details": "Only the revnet's split operator can deploy new suckers.",
				"params": {
					"encodedConfiguration": "A bytes representation of the revnet's configuration.",
					"revnetId": "The ID of the revnet having new suckers deployed.",
					"suckerDeploymentConfiguration": "The specifics about the suckers being deployed."
				}
			},
			"hasMintPermissionFor(uint256,address)": {
				"params": {
					"addr": "The address to check if has permissions.",
					"revnetId": "The ID of the revnet to check permissions for."
				},
				"returns": {
					"_0": "flag The flag indicating if the address has permissions to mint on the revnet's behalf."
				}
			},
			"isSplitOperatorOf(uint256,address)": {
				"params": {
					"addr": "The address to check if is the split operator.",
					"revnetId": "The ID of the revnet to check the split operator for."
				},
				"returns": {
					"_0": "flag The flag indicating if the address is the split operator."
				}
			},
			"mintFor(uint256,uint256,address)": {
				"params": {
					"beneficiary": "The address to mint tokens to.",
					"revnetId": "The ID of the revnet to mint tokens from.",
					"stageId": "The ID of the stage to mint tokens from."
				}
			},
			"onERC721Received(address,address,uint256,bytes)": {
				"details": "Make sure only mints can be received."
			},
			"payHookSpecificationsOf(uint256)": {
				"params": {
					"revnetId": "The ID of the revnet to which the extensions apply."
				},
				"returns": {
					"_0": "payHookSpecifications The pay hooks."
				}
			},
			"replaceSplitOperatorOf(uint256,address)": {
				"details": "Only the revnet's split operator can replace itself.",
				"params": {
					"newSplitOperator": "The address of the new split operator.",
					"revnetId": "The ID of the revnet having its operator replaced."
				}
			},
			"supportsInterface(bytes4)": {
				"details": "See {IERC165-supportsInterface}.",
				"returns": {
					"_0": "A flag indicating if the provided interface ID is supported."
				}
			}
		},
		"version": 1
	},
	"userdoc": {
		"kind": "user",
		"methods": {
			"CASH_OUT_DELAY()": {
				"notice": "The amount of time from a sucker being deployed to when it can facilitate cashing out."
			},
			"CONTROLLER()": {
				"notice": "The controller that networks are made from."
			},
			"FEE()": {
				"notice": "Revnets' fee (as a fraction out of `JBConstants.MAX_FEE`)."
			},
			"FEE_REVNET_ID()": {
				"notice": "The ID of the revnet that will receive fees."
			},
			"HOOK_DEPLOYER()": {
				"notice": "The contract responsible for deploying the tiered 721 hook."
			},
			"PUBLISHER()": {
				"notice": "The croptop publisher that facilitates the permissioned publishing of 721 posts to a revnet."
			},
			"SUCKER_REGISTRY()": {
				"notice": "The registry that deploys and tracks each project's suckers."
			},
			"afterRedeemRecordedWith((address,uint256,uint256,uint256,(address,uint8,uint32,uint256),(address,uint8,uint32,uint256),uint256,address,bytes,bytes))": {
				"notice": "Processes the fee for the redemption."
			},
			"allowedMintCountOf(uint256,uint256,address)": {
				"notice": "The specification of how many tokens are still allowed to be minted at each stage of a revnet."
			},
			"beforePayRecordedWith((address,address,(address,uint8,uint32,uint256),uint256,uint256,address,uint256,uint256,bytes))": {
				"notice": "This function gets called when the revnet receives a payment."
			},
			"beforeRedeemRecordedWith((address,address,uint256,uint256,uint256,uint256,(address,uint8,uint32,uint256),bool,uint256,bytes))": {
				"notice": "Determines how much to redeem."
			},
			"buybackHookOf(uint256)": {
				"notice": "The data hook that returns the correct values for the buyback hook of each network."
			},
			"cashOutDelayOf(uint256)": {
				"notice": "The time at which cashing out from a revnet become allowed."
			},
			"deployFor(uint256,((string,string,string,bytes32),uint32,address,(uint40,(uint32,uint104,address)[],uint16,uint112,uint32,uint32,uint16)[]),(address,(address,uint8,uint32)[])[],(address,(address,uint24,uint32,uint32)[]),((address,(address,uint32,address,uint256)[])[],bytes32),((string,string,address,string,address,string,((uint104,uint32,uint32,uint16,address,bytes32,uint24,bool,bool,bool,bool,bool)[],uint32,uint8,address),address,(bool,bool,bool,bool)),bool,bool,bool),(address,uint256,bytes)[],uint16,(uint24,uint104,uint32,uint32,address[])[])": {
				"notice": "Launch a revnet that supports 721 sales."
			},
			"deploySuckersFor(uint256,bytes,((address,(address,uint32,address,uint256)[])[],bytes32))": {
				"notice": "Allow the split operatAllows a revnet's split operator to deploy new suckers to the revnet after it's deployed."
			},
			"hasMintPermissionFor(uint256,address)": {
				"notice": "Required by the IJBRulesetDataHook interfaces."
			},
			"isSplitOperatorOf(uint256,address)": {
				"notice": "A flag indicating if a given address is the revnets split operator."
			},
			"mintFor(uint256,uint256,address)": {
				"notice": "Mint tokens from a revnet to a specified beneficiary according to the rules set for the revnet."
			},
			"payHookSpecificationsOf(uint256)": {
				"notice": "The pay hooks to include during payments to networks."
			},
			"replaceSplitOperatorOf(uint256,address)": {
				"notice": "A revnet's operator can replace itself."
			},
			"supportsInterface(bytes4)": {
				"notice": "Indicates if this contract adheres to the specified interface."
			}
		},
		"version": 1
	},
	"gitCommit": "4bad482c3bc194837e4de5496e688a75ad75cf4a",
	"sourceName": "src/REVCroptopDeployer.sol",
	"chainId": "84532",
	"linkReferences": {},
	"deployedLinkReferences": {},
	"history": []
}