{
	"_format": "sphinx-sol-ct-artifact-1",
	"merkleRoot": "0xd719940efb92b88b7bd1d2aac918de596fc7c11c192b084caa03a46624c88c34",
	"address": "0xb2ea47bc38e64b197e75d17fb88462f327379830",
	"sourceName": "src/REVDeployer.sol",
	"contractName": "REVDeployer",
	"chainId": "0x14a34",
	"abi": [
		{
			"inputs": [
				{
					"internalType": "contract IJBController",
					"name": "controller",
					"type": "address"
				},
				{
					"internalType": "contract IJBSuckerRegistry",
					"name": "suckerRegistry",
					"type": "address"
				},
				{
					"internalType": "uint256",
					"name": "feeRevnetId",
					"type": "uint256"
				},
				{
					"internalType": "contract IJB721TiersHookDeployer",
					"name": "hookDeployer",
					"type": "address"
				},
				{
					"internalType": "contract CTPublisher",
					"name": "publisher",
					"type": "address"
				},
				{
					"internalType": "address",
					"name": "trustedForwarder",
					"type": "address"
				}
			],
			"stateMutability": "nonpayable",
			"type": "constructor"
		},
		{
			"inputs": [],
			"name": "CASH_OUT_DELAY",
			"outputs": [
				{
					"internalType": "uint256",
					"name": "",
					"type": "uint256"
				}
			],
			"stateMutability": "view",
			"type": "function"
		},
		{
			"inputs": [],
			"name": "CONTROLLER",
			"outputs": [
				{
					"internalType": "contract IJBController",
					"name": "",
					"type": "address"
				}
			],
			"stateMutability": "view",
			"type": "function"
		},
		{
			"inputs": [],
			"name": "DIRECTORY",
			"outputs": [
				{
					"internalType": "contract IJBDirectory",
					"name": "",
					"type": "address"
				}
			],
			"stateMutability": "view",
			"type": "function"
		},
		{
			"inputs": [],
			"name": "FEE",
			"outputs": [
				{
					"internalType": "uint256",
					"name": "",
					"type": "uint256"
				}
			],
			"stateMutability": "view",
			"type": "function"
		},
		{
			"inputs": [],
			"name": "FEE_REVNET_ID",
			"outputs": [
				{
					"internalType": "uint256",
					"name": "",
					"type": "uint256"
				}
			],
			"stateMutability": "view",
			"type": "function"
		},
		{
			"inputs": [],
			"name": "HOOK_DEPLOYER",
			"outputs": [
				{
					"internalType": "contract IJB721TiersHookDeployer",
					"name": "",
					"type": "address"
				}
			],
			"stateMutability": "view",
			"type": "function"
		},
		{
			"inputs": [],
			"name": "PERMISSIONS",
			"outputs": [
				{
					"internalType": "contract IJBPermissions",
					"name": "",
					"type": "address"
				}
			],
			"stateMutability": "view",
			"type": "function"
		},
		{
			"inputs": [],
			"name": "PROJECTS",
			"outputs": [
				{
					"internalType": "contract IJBProjects",
					"name": "",
					"type": "address"
				}
			],
			"stateMutability": "view",
			"type": "function"
		},
		{
			"inputs": [],
			"name": "PUBLISHER",
			"outputs": [
				{
					"internalType": "contract CTPublisher",
					"name": "",
					"type": "address"
				}
			],
			"stateMutability": "view",
			"type": "function"
		},
		{
			"inputs": [],
			"name": "SUCKER_REGISTRY",
			"outputs": [
				{
					"internalType": "contract IJBSuckerRegistry",
					"name": "",
					"type": "address"
				}
			],
			"stateMutability": "view",
			"type": "function"
		},
		{
			"inputs": [
				{
					"components": [
						{
							"internalType": "address",
							"name": "holder",
							"type": "address"
						},
						{
							"internalType": "uint256",
							"name": "projectId",
							"type": "uint256"
						},
						{
							"internalType": "uint256",
							"name": "rulesetId",
							"type": "uint256"
						},
						{
							"internalType": "uint256",
							"name": "cashOutCount",
							"type": "uint256"
						},
						{
							"components": [
								{
									"internalType": "address",
									"name": "token",
									"type": "address"
								},
								{
									"internalType": "uint8",
									"name": "decimals",
									"type": "uint8"
								},
								{
									"internalType": "uint32",
									"name": "currency",
									"type": "uint32"
								},
								{
									"internalType": "uint256",
									"name": "value",
									"type": "uint256"
								}
							],
							"internalType": "struct JBTokenAmount",
							"name": "reclaimedAmount",
							"type": "tuple"
						},
						{
							"components": [
								{
									"internalType": "address",
									"name": "token",
									"type": "address"
								},
								{
									"internalType": "uint8",
									"name": "decimals",
									"type": "uint8"
								},
								{
									"internalType": "uint32",
									"name": "currency",
									"type": "uint32"
								},
								{
									"internalType": "uint256",
									"name": "value",
									"type": "uint256"
								}
							],
							"internalType": "struct JBTokenAmount",
							"name": "forwardedAmount",
							"type": "tuple"
						},
						{
							"internalType": "uint256",
							"name": "cashOutTaxRate",
							"type": "uint256"
						},
						{
							"internalType": "address payable",
							"name": "beneficiary",
							"type": "address"
						},
						{
							"internalType": "bytes",
							"name": "hookMetadata",
							"type": "bytes"
						},
						{
							"internalType": "bytes",
							"name": "cashOutMetadata",
							"type": "bytes"
						}
					],
					"internalType": "struct JBAfterCashOutRecordedContext",
					"name": "context",
					"type": "tuple"
				}
			],
			"name": "afterCashOutRecordedWith",
			"outputs": [],
			"stateMutability": "payable",
			"type": "function"
		},
		{
			"inputs": [
				{
					"internalType": "uint256",
					"name": "revnetId",
					"type": "uint256"
				},
				{
					"internalType": "uint256",
					"name": "stageId",
					"type": "uint256"
				},
				{
					"internalType": "address",
					"name": "beneficiary",
					"type": "address"
				}
			],
			"name": "amountToAutoIssue",
			"outputs": [
				{
					"internalType": "uint256",
					"name": "",
					"type": "uint256"
				}
			],
			"stateMutability": "view",
			"type": "function"
		},
		{
			"inputs": [
				{
					"internalType": "uint256",
					"name": "revnetId",
					"type": "uint256"
				},
				{
					"internalType": "uint256",
					"name": "stageId",
					"type": "uint256"
				},
				{
					"internalType": "address",
					"name": "beneficiary",
					"type": "address"
				}
			],
			"name": "autoIssueFor",
			"outputs": [],
			"stateMutability": "nonpayable",
			"type": "function"
		},
		{
			"inputs": [
				{
					"components": [
						{
							"internalType": "address",
							"name": "terminal",
							"type": "address"
						},
						{
							"internalType": "address",
							"name": "holder",
							"type": "address"
						},
						{
							"internalType": "uint256",
							"name": "projectId",
							"type": "uint256"
						},
						{
							"internalType": "uint256",
							"name": "rulesetId",
							"type": "uint256"
						},
						{
							"internalType": "uint256",
							"name": "cashOutCount",
							"type": "uint256"
						},
						{
							"internalType": "uint256",
							"name": "totalSupply",
							"type": "uint256"
						},
						{
							"components": [
								{
									"internalType": "address",
									"name": "token",
									"type": "address"
								},
								{
									"internalType": "uint8",
									"name": "decimals",
									"type": "uint8"
								},
								{
									"internalType": "uint32",
									"name": "currency",
									"type": "uint32"
								},
								{
									"internalType": "uint256",
									"name": "value",
									"type": "uint256"
								}
							],
							"internalType": "struct JBTokenAmount",
							"name": "surplus",
							"type": "tuple"
						},
						{
							"internalType": "bool",
							"name": "useTotalSurplus",
							"type": "bool"
						},
						{
							"internalType": "uint256",
							"name": "cashOutTaxRate",
							"type": "uint256"
						},
						{
							"internalType": "bytes",
							"name": "metadata",
							"type": "bytes"
						}
					],
					"internalType": "struct JBBeforeCashOutRecordedContext",
					"name": "context",
					"type": "tuple"
				}
			],
			"name": "beforeCashOutRecordedWith",
			"outputs": [
				{
					"internalType": "uint256",
					"name": "cashOutTaxRate",
					"type": "uint256"
				},
				{
					"internalType": "uint256",
					"name": "cashOutCount",
					"type": "uint256"
				},
				{
					"internalType": "uint256",
					"name": "totalSupply",
					"type": "uint256"
				},
				{
					"components": [
						{
							"internalType": "contract IJBCashOutHook",
							"name": "hook",
							"type": "address"
						},
						{
							"internalType": "uint256",
							"name": "amount",
							"type": "uint256"
						},
						{
							"internalType": "bytes",
							"name": "metadata",
							"type": "bytes"
						}
					],
					"internalType": "struct JBCashOutHookSpecification[]",
					"name": "hookSpecifications",
					"type": "tuple[]"
				}
			],
			"stateMutability": "view",
			"type": "function"
		},
		{
			"inputs": [
				{
					"components": [
						{
							"internalType": "address",
							"name": "terminal",
							"type": "address"
						},
						{
							"internalType": "address",
							"name": "payer",
							"type": "address"
						},
						{
							"components": [
								{
									"internalType": "address",
									"name": "token",
									"type": "address"
								},
								{
									"internalType": "uint8",
									"name": "decimals",
									"type": "uint8"
								},
								{
									"internalType": "uint32",
									"name": "currency",
									"type": "uint32"
								},
								{
									"internalType": "uint256",
									"name": "value",
									"type": "uint256"
								}
							],
							"internalType": "struct JBTokenAmount",
							"name": "amount",
							"type": "tuple"
						},
						{
							"internalType": "uint256",
							"name": "projectId",
							"type": "uint256"
						},
						{
							"internalType": "uint256",
							"name": "rulesetId",
							"type": "uint256"
						},
						{
							"internalType": "address",
							"name": "beneficiary",
							"type": "address"
						},
						{
							"internalType": "uint256",
							"name": "weight",
							"type": "uint256"
						},
						{
							"internalType": "uint256",
							"name": "reservedPercent",
							"type": "uint256"
						},
						{
							"internalType": "bytes",
							"name": "metadata",
							"type": "bytes"
						}
					],
					"internalType": "struct JBBeforePayRecordedContext",
					"name": "context",
					"type": "tuple"
				}
			],
			"name": "beforePayRecordedWith",
			"outputs": [
				{
					"internalType": "uint256",
					"name": "weight",
					"type": "uint256"
				},
				{
					"components": [
						{
							"internalType": "contract IJBPayHook",
							"name": "hook",
							"type": "address"
						},
						{
							"internalType": "uint256",
							"name": "amount",
							"type": "uint256"
						},
						{
							"internalType": "bytes",
							"name": "metadata",
							"type": "bytes"
						}
					],
					"internalType": "struct JBPayHookSpecification[]",
					"name": "hookSpecifications",
					"type": "tuple[]"
				}
			],
			"stateMutability": "view",
			"type": "function"
		},
		{
			"inputs": [
				{
					"internalType": "uint256",
					"name": "revnetId",
					"type": "uint256"
				}
			],
			"name": "buybackHookOf",
			"outputs": [
				{
					"internalType": "contract IJBRulesetDataHook",
					"name": "buybackHook",
					"type": "address"
				}
			],
			"stateMutability": "view",
			"type": "function"
		},
		{
			"inputs": [
				{
					"internalType": "uint256",
					"name": "revnetId",
					"type": "uint256"
				}
			],
			"name": "cashOutDelayOf",
			"outputs": [
				{
					"internalType": "uint256",
					"name": "cashOutDelay",
					"type": "uint256"
				}
			],
			"stateMutability": "view",
			"type": "function"
		},
		{
			"inputs": [
				{
					"internalType": "uint256",
					"name": "revnetId",
					"type": "uint256"
				},
				{
					"components": [
						{
							"components": [
								{
									"internalType": "string",
									"name": "name",
									"type": "string"
								},
								{
									"internalType": "string",
									"name": "ticker",
									"type": "string"
								},
								{
									"internalType": "string",
									"name": "uri",
									"type": "string"
								},
								{
									"internalType": "bytes32",
									"name": "salt",
									"type": "bytes32"
								}
							],
							"internalType": "struct REVDescription",
							"name": "description",
							"type": "tuple"
						},
						{
							"internalType": "uint32",
							"name": "baseCurrency",
							"type": "uint32"
						},
						{
							"internalType": "address",
							"name": "splitOperator",
							"type": "address"
						},
						{
							"components": [
								{
									"internalType": "uint40",
									"name": "startsAtOrAfter",
									"type": "uint40"
								},
								{
									"components": [
										{
											"internalType": "uint32",
											"name": "chainId",
											"type": "uint32"
										},
										{
											"internalType": "uint104",
											"name": "count",
											"type": "uint104"
										},
										{
											"internalType": "address",
											"name": "beneficiary",
											"type": "address"
										}
									],
									"internalType": "struct REVAutoIssuance[]",
									"name": "autoIssuances",
									"type": "tuple[]"
								},
								{
									"internalType": "uint16",
									"name": "splitPercent",
									"type": "uint16"
								},
								{
									"components": [
										{
											"internalType": "uint32",
											"name": "percent",
											"type": "uint32"
										},
										{
											"internalType": "uint64",
											"name": "projectId",
											"type": "uint64"
										},
										{
											"internalType": "address payable",
											"name": "beneficiary",
											"type": "address"
										},
										{
											"internalType": "bool",
											"name": "preferAddToBalance",
											"type": "bool"
										},
										{
											"internalType": "uint48",
											"name": "lockedUntil",
											"type": "uint48"
										},
										{
											"internalType": "contract IJBSplitHook",
											"name": "hook",
											"type": "address"
										}
									],
									"internalType": "struct JBSplit[]",
									"name": "splits",
									"type": "tuple[]"
								},
								{
									"internalType": "uint112",
									"name": "initialIssuance",
									"type": "uint112"
								},
								{
									"internalType": "uint32",
									"name": "issuanceCutFrequency",
									"type": "uint32"
								},
								{
									"internalType": "uint32",
									"name": "issuanceCutPercent",
									"type": "uint32"
								},
								{
									"internalType": "uint16",
									"name": "cashOutTaxRate",
									"type": "uint16"
								},
								{
									"internalType": "uint16",
									"name": "extraMetadata",
									"type": "uint16"
								}
							],
							"internalType": "struct REVStageConfig[]",
							"name": "stageConfigurations",
							"type": "tuple[]"
						},
						{
							"components": [
								{
									"internalType": "address",
									"name": "token",
									"type": "address"
								},
								{
									"internalType": "contract IJBPayoutTerminal",
									"name": "terminal",
									"type": "address"
								}
							],
							"internalType": "struct REVLoanSource[]",
							"name": "loanSources",
							"type": "tuple[]"
						},
						{
							"internalType": "address",
							"name": "loans",
							"type": "address"
						}
					],
					"internalType": "struct REVConfig",
					"name": "configuration",
					"type": "tuple"
				},
				{
					"components": [
						{
							"internalType": "contract IJBTerminal",
							"name": "terminal",
							"type": "address"
						},
						{
							"components": [
								{
									"internalType": "address",
									"name": "token",
									"type": "address"
								},
								{
									"internalType": "uint8",
									"name": "decimals",
									"type": "uint8"
								},
								{
									"internalType": "uint32",
									"name": "currency",
									"type": "uint32"
								}
							],
							"internalType": "struct JBAccountingContext[]",
							"name": "accountingContextsToAccept",
							"type": "tuple[]"
						}
					],
					"internalType": "struct JBTerminalConfig[]",
					"name": "terminalConfigurations",
					"type": "tuple[]"
				},
				{
					"components": [
						{
							"internalType": "contract IJBBuybackHook",
							"name": "hook",
							"type": "address"
						},
						{
							"components": [
								{
									"internalType": "address",
									"name": "token",
									"type": "address"
								},
								{
									"internalType": "uint24",
									"name": "fee",
									"type": "uint24"
								},
								{
									"internalType": "uint32",
									"name": "twapWindow",
									"type": "uint32"
								},
								{
									"internalType": "uint32",
									"name": "twapSlippageTolerance",
									"type": "uint32"
								}
							],
							"internalType": "struct REVBuybackPoolConfig[]",
							"name": "poolConfigurations",
							"type": "tuple[]"
						}
					],
					"internalType": "struct REVBuybackHookConfig",
					"name": "buybackHookConfiguration",
					"type": "tuple"
				},
				{
					"components": [
						{
							"components": [
								{
									"internalType": "contract IJBSuckerDeployer",
									"name": "deployer",
									"type": "address"
								},
								{
									"components": [
										{
											"internalType": "address",
											"name": "localToken",
											"type": "address"
										},
										{
											"internalType": "uint32",
											"name": "minGas",
											"type": "uint32"
										},
										{
											"internalType": "address",
											"name": "remoteToken",
											"type": "address"
										},
										{
											"internalType": "uint256",
											"name": "minBridgeAmount",
											"type": "uint256"
										}
									],
									"internalType": "struct JBTokenMapping[]",
									"name": "mappings",
									"type": "tuple[]"
								}
							],
							"internalType": "struct JBSuckerDeployerConfig[]",
							"name": "deployerConfigurations",
							"type": "tuple[]"
						},
						{
							"internalType": "bytes32",
							"name": "salt",
							"type": "bytes32"
						}
					],
					"internalType": "struct REVSuckerDeploymentConfig",
					"name": "suckerDeploymentConfiguration",
					"type": "tuple"
				}
			],
			"name": "deployFor",
			"outputs": [
				{
					"internalType": "uint256",
					"name": "",
					"type": "uint256"
				}
			],
			"stateMutability": "nonpayable",
			"type": "function"
		},
		{
			"inputs": [
				{
					"internalType": "uint256",
					"name": "revnetId",
					"type": "uint256"
				},
				{
					"components": [
						{
							"components": [
								{
									"internalType": "contract IJBSuckerDeployer",
									"name": "deployer",
									"type": "address"
								},
								{
									"components": [
										{
											"internalType": "address",
											"name": "localToken",
											"type": "address"
										},
										{
											"internalType": "uint32",
											"name": "minGas",
											"type": "uint32"
										},
										{
											"internalType": "address",
											"name": "remoteToken",
											"type": "address"
										},
										{
											"internalType": "uint256",
											"name": "minBridgeAmount",
											"type": "uint256"
										}
									],
									"internalType": "struct JBTokenMapping[]",
									"name": "mappings",
									"type": "tuple[]"
								}
							],
							"internalType": "struct JBSuckerDeployerConfig[]",
							"name": "deployerConfigurations",
							"type": "tuple[]"
						},
						{
							"internalType": "bytes32",
							"name": "salt",
							"type": "bytes32"
						}
					],
					"internalType": "struct REVSuckerDeploymentConfig",
					"name": "suckerDeploymentConfiguration",
					"type": "tuple"
				}
			],
			"name": "deploySuckersFor",
			"outputs": [
				{
					"internalType": "address[]",
					"name": "suckers",
					"type": "address[]"
				}
			],
			"stateMutability": "nonpayable",
			"type": "function"
		},
		{
			"inputs": [
				{
					"internalType": "uint256",
					"name": "revnetId",
					"type": "uint256"
				},
				{
					"components": [
						{
							"components": [
								{
									"internalType": "string",
									"name": "name",
									"type": "string"
								},
								{
									"internalType": "string",
									"name": "ticker",
									"type": "string"
								},
								{
									"internalType": "string",
									"name": "uri",
									"type": "string"
								},
								{
									"internalType": "bytes32",
									"name": "salt",
									"type": "bytes32"
								}
							],
							"internalType": "struct REVDescription",
							"name": "description",
							"type": "tuple"
						},
						{
							"internalType": "uint32",
							"name": "baseCurrency",
							"type": "uint32"
						},
						{
							"internalType": "address",
							"name": "splitOperator",
							"type": "address"
						},
						{
							"components": [
								{
									"internalType": "uint40",
									"name": "startsAtOrAfter",
									"type": "uint40"
								},
								{
									"components": [
										{
											"internalType": "uint32",
											"name": "chainId",
											"type": "uint32"
										},
										{
											"internalType": "uint104",
											"name": "count",
											"type": "uint104"
										},
										{
											"internalType": "address",
											"name": "beneficiary",
											"type": "address"
										}
									],
									"internalType": "struct REVAutoIssuance[]",
									"name": "autoIssuances",
									"type": "tuple[]"
								},
								{
									"internalType": "uint16",
									"name": "splitPercent",
									"type": "uint16"
								},
								{
									"components": [
										{
											"internalType": "uint32",
											"name": "percent",
											"type": "uint32"
										},
										{
											"internalType": "uint64",
											"name": "projectId",
											"type": "uint64"
										},
										{
											"internalType": "address payable",
											"name": "beneficiary",
											"type": "address"
										},
										{
											"internalType": "bool",
											"name": "preferAddToBalance",
											"type": "bool"
										},
										{
											"internalType": "uint48",
											"name": "lockedUntil",
											"type": "uint48"
										},
										{
											"internalType": "contract IJBSplitHook",
											"name": "hook",
											"type": "address"
										}
									],
									"internalType": "struct JBSplit[]",
									"name": "splits",
									"type": "tuple[]"
								},
								{
									"internalType": "uint112",
									"name": "initialIssuance",
									"type": "uint112"
								},
								{
									"internalType": "uint32",
									"name": "issuanceCutFrequency",
									"type": "uint32"
								},
								{
									"internalType": "uint32",
									"name": "issuanceCutPercent",
									"type": "uint32"
								},
								{
									"internalType": "uint16",
									"name": "cashOutTaxRate",
									"type": "uint16"
								},
								{
									"internalType": "uint16",
									"name": "extraMetadata",
									"type": "uint16"
								}
							],
							"internalType": "struct REVStageConfig[]",
							"name": "stageConfigurations",
							"type": "tuple[]"
						},
						{
							"components": [
								{
									"internalType": "address",
									"name": "token",
									"type": "address"
								},
								{
									"internalType": "contract IJBPayoutTerminal",
									"name": "terminal",
									"type": "address"
								}
							],
							"internalType": "struct REVLoanSource[]",
							"name": "loanSources",
							"type": "tuple[]"
						},
						{
							"internalType": "address",
							"name": "loans",
							"type": "address"
						}
					],
					"internalType": "struct REVConfig",
					"name": "configuration",
					"type": "tuple"
				},
				{
					"components": [
						{
							"internalType": "contract IJBTerminal",
							"name": "terminal",
							"type": "address"
						},
						{
							"components": [
								{
									"internalType": "address",
									"name": "token",
									"type": "address"
								},
								{
									"internalType": "uint8",
									"name": "decimals",
									"type": "uint8"
								},
								{
									"internalType": "uint32",
									"name": "currency",
									"type": "uint32"
								}
							],
							"internalType": "struct JBAccountingContext[]",
							"name": "accountingContextsToAccept",
							"type": "tuple[]"
						}
					],
					"internalType": "struct JBTerminalConfig[]",
					"name": "terminalConfigurations",
					"type": "tuple[]"
				},
				{
					"components": [
						{
							"internalType": "contract IJBBuybackHook",
							"name": "hook",
							"type": "address"
						},
						{
							"components": [
								{
									"internalType": "address",
									"name": "token",
									"type": "address"
								},
								{
									"internalType": "uint24",
									"name": "fee",
									"type": "uint24"
								},
								{
									"internalType": "uint32",
									"name": "twapWindow",
									"type": "uint32"
								},
								{
									"internalType": "uint32",
									"name": "twapSlippageTolerance",
									"type": "uint32"
								}
							],
							"internalType": "struct REVBuybackPoolConfig[]",
							"name": "poolConfigurations",
							"type": "tuple[]"
						}
					],
					"internalType": "struct REVBuybackHookConfig",
					"name": "buybackHookConfiguration",
					"type": "tuple"
				},
				{
					"components": [
						{
							"components": [
								{
									"internalType": "contract IJBSuckerDeployer",
									"name": "deployer",
									"type": "address"
								},
								{
									"components": [
										{
											"internalType": "address",
											"name": "localToken",
											"type": "address"
										},
										{
											"internalType": "uint32",
											"name": "minGas",
											"type": "uint32"
										},
										{
											"internalType": "address",
											"name": "remoteToken",
											"type": "address"
										},
										{
											"internalType": "uint256",
											"name": "minBridgeAmount",
											"type": "uint256"
										}
									],
									"internalType": "struct JBTokenMapping[]",
									"name": "mappings",
									"type": "tuple[]"
								}
							],
							"internalType": "struct JBSuckerDeployerConfig[]",
							"name": "deployerConfigurations",
							"type": "tuple[]"
						},
						{
							"internalType": "bytes32",
							"name": "salt",
							"type": "bytes32"
						}
					],
					"internalType": "struct REVSuckerDeploymentConfig",
					"name": "suckerDeploymentConfiguration",
					"type": "tuple"
				},
				{
					"components": [
						{
							"components": [
								{
									"internalType": "string",
									"name": "name",
									"type": "string"
								},
								{
									"internalType": "string",
									"name": "symbol",
									"type": "string"
								},
								{
									"internalType": "string",
									"name": "baseUri",
									"type": "string"
								},
								{
									"internalType": "contract IJB721TokenUriResolver",
									"name": "tokenUriResolver",
									"type": "address"
								},
								{
									"internalType": "string",
									"name": "contractUri",
									"type": "string"
								},
								{
									"components": [
										{
											"components": [
												{
													"internalType": "uint104",
													"name": "price",
													"type": "uint104"
												},
												{
													"internalType": "uint32",
													"name": "initialSupply",
													"type": "uint32"
												},
												{
													"internalType": "uint32",
													"name": "votingUnits",
													"type": "uint32"
												},
												{
													"internalType": "uint16",
													"name": "reserveFrequency",
													"type": "uint16"
												},
												{
													"internalType": "address",
													"name": "reserveBeneficiary",
													"type": "address"
												},
												{
													"internalType": "bytes32",
													"name": "encodedIPFSUri",
													"type": "bytes32"
												},
												{
													"internalType": "uint24",
													"name": "category",
													"type": "uint24"
												},
												{
													"internalType": "uint8",
													"name": "discountPercent",
													"type": "uint8"
												},
												{
													"internalType": "bool",
													"name": "allowOwnerMint",
													"type": "bool"
												},
												{
													"internalType": "bool",
													"name": "useReserveBeneficiaryAsDefault",
													"type": "bool"
												},
												{
													"internalType": "bool",
													"name": "transfersPausable",
													"type": "bool"
												},
												{
													"internalType": "bool",
													"name": "useVotingUnits",
													"type": "bool"
												},
												{
													"internalType": "bool",
													"name": "cannotBeRemoved",
													"type": "bool"
												},
												{
													"internalType": "bool",
													"name": "cannotIncreaseDiscountPercent",
													"type": "bool"
												}
											],
											"internalType": "struct JB721TierConfig[]",
											"name": "tiers",
											"type": "tuple[]"
										},
										{
											"internalType": "uint32",
											"name": "currency",
											"type": "uint32"
										},
										{
											"internalType": "uint8",
											"name": "decimals",
											"type": "uint8"
										},
										{
											"internalType": "contract IJBPrices",
											"name": "prices",
											"type": "address"
										}
									],
									"internalType": "struct JB721InitTiersConfig",
									"name": "tiersConfig",
									"type": "tuple"
								},
								{
									"internalType": "address",
									"name": "reserveBeneficiary",
									"type": "address"
								},
								{
									"components": [
										{
											"internalType": "bool",
											"name": "noNewTiersWithReserves",
											"type": "bool"
										},
										{
											"internalType": "bool",
											"name": "noNewTiersWithVotes",
											"type": "bool"
										},
										{
											"internalType": "bool",
											"name": "noNewTiersWithOwnerMinting",
											"type": "bool"
										},
										{
											"internalType": "bool",
											"name": "preventOverspending",
											"type": "bool"
										}
									],
									"internalType": "struct JB721TiersHookFlags",
									"name": "flags",
									"type": "tuple"
								}
							],
							"internalType": "struct JBDeploy721TiersHookConfig",
							"name": "baseline721HookConfiguration",
							"type": "tuple"
						},
						{
							"internalType": "bytes32",
							"name": "salt",
							"type": "bytes32"
						},
						{
							"internalType": "bool",
							"name": "splitOperatorCanAdjustTiers",
							"type": "bool"
						},
						{
							"internalType": "bool",
							"name": "splitOperatorCanUpdateMetadata",
							"type": "bool"
						},
						{
							"internalType": "bool",
							"name": "splitOperatorCanMint",
							"type": "bool"
						},
						{
							"internalType": "bool",
							"name": "splitOperatorCanIncreaseDiscountPercent",
							"type": "bool"
						}
					],
					"internalType": "struct REVDeploy721TiersHookConfig",
					"name": "tiered721HookConfiguration",
					"type": "tuple"
				},
				{
					"components": [
						{
							"internalType": "uint24",
							"name": "category",
							"type": "uint24"
						},
						{
							"internalType": "uint104",
							"name": "minimumPrice",
							"type": "uint104"
						},
						{
							"internalType": "uint32",
							"name": "minimumTotalSupply",
							"type": "uint32"
						},
						{
							"internalType": "uint32",
							"name": "maximumTotalSupply",
							"type": "uint32"
						},
						{
							"internalType": "address[]",
							"name": "allowedAddresses",
							"type": "address[]"
						}
					],
					"internalType": "struct REVCroptopAllowedPost[]",
					"name": "allowedPosts",
					"type": "tuple[]"
				}
			],
			"name": "deployWith721sFor",
			"outputs": [
				{
					"internalType": "uint256",
					"name": "",
					"type": "uint256"
				},
				{
					"internalType": "contract IJB721TiersHook",
					"name": "hook",
					"type": "address"
				}
			],
			"stateMutability": "nonpayable",
			"type": "function"
		},
		{
			"inputs": [
				{
					"internalType": "uint256",
					"name": "revnetId",
					"type": "uint256"
				},
				{
					"internalType": "address",
					"name": "addr",
					"type": "address"
				}
			],
			"name": "hasMintPermissionFor",
			"outputs": [
				{
					"internalType": "bool",
					"name": "",
					"type": "bool"
				}
			],
			"stateMutability": "view",
			"type": "function"
		},
		{
			"inputs": [
				{
					"internalType": "uint256",
					"name": "revnetId",
					"type": "uint256"
				}
			],
			"name": "hashedEncodedConfigurationOf",
			"outputs": [
				{
					"internalType": "bytes32",
					"name": "hashedEncodedConfiguration",
					"type": "bytes32"
				}
			],
			"stateMutability": "view",
			"type": "function"
		},
		{
			"inputs": [
				{
					"internalType": "uint256",
					"name": "revnetId",
					"type": "uint256"
				},
				{
					"internalType": "address",
					"name": "addr",
					"type": "address"
				}
			],
			"name": "isSplitOperatorOf",
			"outputs": [
				{
					"internalType": "bool",
					"name": "",
					"type": "bool"
				}
			],
			"stateMutability": "view",
			"type": "function"
		},
		{
			"inputs": [
				{
					"internalType": "address",
					"name": "forwarder",
					"type": "address"
				}
			],
			"name": "isTrustedForwarder",
			"outputs": [
				{
					"internalType": "bool",
					"name": "",
					"type": "bool"
				}
			],
			"stateMutability": "view",
			"type": "function"
		},
		{
			"inputs": [
				{
					"internalType": "uint256",
					"name": "revnetId",
					"type": "uint256"
				}
			],
			"name": "loansOf",
			"outputs": [
				{
					"internalType": "address",
					"name": "",
					"type": "address"
				}
			],
			"stateMutability": "view",
			"type": "function"
		},
		{
			"inputs": [
				{
					"internalType": "address",
					"name": "",
					"type": "address"
				},
				{
					"internalType": "address",
					"name": "",
					"type": "address"
				},
				{
					"internalType": "uint256",
					"name": "",
					"type": "uint256"
				},
				{
					"internalType": "bytes",
					"name": "",
					"type": "bytes"
				}
			],
			"name": "onERC721Received",
			"outputs": [
				{
					"internalType": "bytes4",
					"name": "",
					"type": "bytes4"
				}
			],
			"stateMutability": "view",
			"type": "function"
		},
		{
			"inputs": [
				{
					"internalType": "uint256",
					"name": "revnetId",
					"type": "uint256"
				},
				{
					"internalType": "address",
					"name": "newSplitOperator",
					"type": "address"
				}
			],
			"name": "setSplitOperatorOf",
			"outputs": [],
			"stateMutability": "nonpayable",
			"type": "function"
		},
		{
			"inputs": [
				{
					"internalType": "bytes4",
					"name": "interfaceId",
					"type": "bytes4"
				}
			],
			"name": "supportsInterface",
			"outputs": [
				{
					"internalType": "bool",
					"name": "",
					"type": "bool"
				}
			],
			"stateMutability": "view",
			"type": "function"
		},
		{
			"inputs": [
				{
					"internalType": "uint256",
					"name": "revnetId",
					"type": "uint256"
				}
			],
			"name": "tiered721HookOf",
			"outputs": [
				{
					"internalType": "contract IJB721TiersHook",
					"name": "tiered721Hook",
					"type": "address"
				}
			],
			"stateMutability": "view",
			"type": "function"
		},
		{
			"inputs": [],
			"name": "trustedForwarder",
			"outputs": [
				{
					"internalType": "address",
					"name": "",
					"type": "address"
				}
			],
			"stateMutability": "view",
			"type": "function"
		},
		{
			"inputs": [
				{
					"internalType": "uint256",
					"name": "revnetId",
					"type": "uint256"
				}
			],
			"name": "unrealizedAutoIssuanceAmountOf",
			"outputs": [
				{
					"internalType": "uint256",
					"name": "",
					"type": "uint256"
				}
			],
			"stateMutability": "view",
			"type": "function"
		},
		{
			"anonymous": false,
			"inputs": [
				{
					"indexed": true,
					"internalType": "uint256",
					"name": "revnetId",
					"type": "uint256"
				},
				{
					"indexed": true,
					"internalType": "uint256",
					"name": "stageId",
					"type": "uint256"
				},
				{
					"indexed": true,
					"internalType": "address",
					"name": "beneficiary",
					"type": "address"
				},
				{
					"indexed": false,
					"internalType": "uint256",
					"name": "count",
					"type": "uint256"
				},
				{
					"indexed": false,
					"internalType": "address",
					"name": "caller",
					"type": "address"
				}
			],
			"name": "AutoIssue",
			"type": "event"
		},
		{
			"anonymous": false,
			"inputs": [
				{
					"indexed": true,
					"internalType": "uint256",
					"name": "revnetId",
					"type": "uint256"
				},
				{
					"components": [
						{
							"components": [
								{
									"internalType": "string",
									"name": "name",
									"type": "string"
								},
								{
									"internalType": "string",
									"name": "ticker",
									"type": "string"
								},
								{
									"internalType": "string",
									"name": "uri",
									"type": "string"
								},
								{
									"internalType": "bytes32",
									"name": "salt",
									"type": "bytes32"
								}
							],
							"internalType": "struct REVDescription",
							"name": "description",
							"type": "tuple"
						},
						{
							"internalType": "uint32",
							"name": "baseCurrency",
							"type": "uint32"
						},
						{
							"internalType": "address",
							"name": "splitOperator",
							"type": "address"
						},
						{
							"components": [
								{
									"internalType": "uint40",
									"name": "startsAtOrAfter",
									"type": "uint40"
								},
								{
									"components": [
										{
											"internalType": "uint32",
											"name": "chainId",
											"type": "uint32"
										},
										{
											"internalType": "uint104",
											"name": "count",
											"type": "uint104"
										},
										{
											"internalType": "address",
											"name": "beneficiary",
											"type": "address"
										}
									],
									"internalType": "struct REVAutoIssuance[]",
									"name": "autoIssuances",
									"type": "tuple[]"
								},
								{
									"internalType": "uint16",
									"name": "splitPercent",
									"type": "uint16"
								},
								{
									"components": [
										{
											"internalType": "uint32",
											"name": "percent",
											"type": "uint32"
										},
										{
											"internalType": "uint64",
											"name": "projectId",
											"type": "uint64"
										},
										{
											"internalType": "address payable",
											"name": "beneficiary",
											"type": "address"
										},
										{
											"internalType": "bool",
											"name": "preferAddToBalance",
											"type": "bool"
										},
										{
											"internalType": "uint48",
											"name": "lockedUntil",
											"type": "uint48"
										},
										{
											"internalType": "contract IJBSplitHook",
											"name": "hook",
											"type": "address"
										}
									],
									"internalType": "struct JBSplit[]",
									"name": "splits",
									"type": "tuple[]"
								},
								{
									"internalType": "uint112",
									"name": "initialIssuance",
									"type": "uint112"
								},
								{
									"internalType": "uint32",
									"name": "issuanceCutFrequency",
									"type": "uint32"
								},
								{
									"internalType": "uint32",
									"name": "issuanceCutPercent",
									"type": "uint32"
								},
								{
									"internalType": "uint16",
									"name": "cashOutTaxRate",
									"type": "uint16"
								},
								{
									"internalType": "uint16",
									"name": "extraMetadata",
									"type": "uint16"
								}
							],
							"internalType": "struct REVStageConfig[]",
							"name": "stageConfigurations",
							"type": "tuple[]"
						},
						{
							"components": [
								{
									"internalType": "address",
									"name": "token",
									"type": "address"
								},
								{
									"internalType": "contract IJBPayoutTerminal",
									"name": "terminal",
									"type": "address"
								}
							],
							"internalType": "struct REVLoanSource[]",
							"name": "loanSources",
							"type": "tuple[]"
						},
						{
							"internalType": "address",
							"name": "loans",
							"type": "address"
						}
					],
					"indexed": false,
					"internalType": "struct REVConfig",
					"name": "configuration",
					"type": "tuple"
				},
				{
					"components": [
						{
							"internalType": "contract IJBTerminal",
							"name": "terminal",
							"type": "address"
						},
						{
							"components": [
								{
									"internalType": "address",
									"name": "token",
									"type": "address"
								},
								{
									"internalType": "uint8",
									"name": "decimals",
									"type": "uint8"
								},
								{
									"internalType": "uint32",
									"name": "currency",
									"type": "uint32"
								}
							],
							"internalType": "struct JBAccountingContext[]",
							"name": "accountingContextsToAccept",
							"type": "tuple[]"
						}
					],
					"indexed": false,
					"internalType": "struct JBTerminalConfig[]",
					"name": "terminalConfigurations",
					"type": "tuple[]"
				},
				{
					"components": [
						{
							"internalType": "contract IJBBuybackHook",
							"name": "hook",
							"type": "address"
						},
						{
							"components": [
								{
									"internalType": "address",
									"name": "token",
									"type": "address"
								},
								{
									"internalType": "uint24",
									"name": "fee",
									"type": "uint24"
								},
								{
									"internalType": "uint32",
									"name": "twapWindow",
									"type": "uint32"
								},
								{
									"internalType": "uint32",
									"name": "twapSlippageTolerance",
									"type": "uint32"
								}
							],
							"internalType": "struct REVBuybackPoolConfig[]",
							"name": "poolConfigurations",
							"type": "tuple[]"
						}
					],
					"indexed": false,
					"internalType": "struct REVBuybackHookConfig",
					"name": "buybackHookConfiguration",
					"type": "tuple"
				},
				{
					"components": [
						{
							"components": [
								{
									"internalType": "contract IJBSuckerDeployer",
									"name": "deployer",
									"type": "address"
								},
								{
									"components": [
										{
											"internalType": "address",
											"name": "localToken",
											"type": "address"
										},
										{
											"internalType": "uint32",
											"name": "minGas",
											"type": "uint32"
										},
										{
											"internalType": "address",
											"name": "remoteToken",
											"type": "address"
										},
										{
											"internalType": "uint256",
											"name": "minBridgeAmount",
											"type": "uint256"
										}
									],
									"internalType": "struct JBTokenMapping[]",
									"name": "mappings",
									"type": "tuple[]"
								}
							],
							"internalType": "struct JBSuckerDeployerConfig[]",
							"name": "deployerConfigurations",
							"type": "tuple[]"
						},
						{
							"internalType": "bytes32",
							"name": "salt",
							"type": "bytes32"
						}
					],
					"indexed": false,
					"internalType": "struct REVSuckerDeploymentConfig",
					"name": "suckerDeploymentConfiguration",
					"type": "tuple"
				},
				{
					"components": [
						{
							"internalType": "uint48",
							"name": "mustStartAtOrAfter",
							"type": "uint48"
						},
						{
							"internalType": "uint32",
							"name": "duration",
							"type": "uint32"
						},
						{
							"internalType": "uint112",
							"name": "weight",
							"type": "uint112"
						},
						{
							"internalType": "uint32",
							"name": "weightCutPercent",
							"type": "uint32"
						},
						{
							"internalType": "contract IJBRulesetApprovalHook",
							"name": "approvalHook",
							"type": "address"
						},
						{
							"components": [
								{
									"internalType": "uint16",
									"name": "reservedPercent",
									"type": "uint16"
								},
								{
									"internalType": "uint16",
									"name": "cashOutTaxRate",
									"type": "uint16"
								},
								{
									"internalType": "uint32",
									"name": "baseCurrency",
									"type": "uint32"
								},
								{
									"internalType": "bool",
									"name": "pausePay",
									"type": "bool"
								},
								{
									"internalType": "bool",
									"name": "pauseCreditTransfers",
									"type": "bool"
								},
								{
									"internalType": "bool",
									"name": "allowOwnerMinting",
									"type": "bool"
								},
								{
									"internalType": "bool",
									"name": "allowSetCustomToken",
									"type": "bool"
								},
								{
									"internalType": "bool",
									"name": "allowTerminalMigration",
									"type": "bool"
								},
								{
									"internalType": "bool",
									"name": "allowSetTerminals",
									"type": "bool"
								},
								{
									"internalType": "bool",
									"name": "allowSetController",
									"type": "bool"
								},
								{
									"internalType": "bool",
									"name": "allowAddAccountingContext",
									"type": "bool"
								},
								{
									"internalType": "bool",
									"name": "allowAddPriceFeed",
									"type": "bool"
								},
								{
									"internalType": "bool",
									"name": "ownerMustSendPayouts",
									"type": "bool"
								},
								{
									"internalType": "bool",
									"name": "holdFees",
									"type": "bool"
								},
								{
									"internalType": "bool",
									"name": "useTotalSurplusForCashOuts",
									"type": "bool"
								},
								{
									"internalType": "bool",
									"name": "useDataHookForPay",
									"type": "bool"
								},
								{
									"internalType": "bool",
									"name": "useDataHookForCashOut",
									"type": "bool"
								},
								{
									"internalType": "address",
									"name": "dataHook",
									"type": "address"
								},
								{
									"internalType": "uint16",
									"name": "metadata",
									"type": "uint16"
								}
							],
							"internalType": "struct JBRulesetMetadata",
							"name": "metadata",
							"type": "tuple"
						},
						{
							"components": [
								{
									"internalType": "uint256",
									"name": "groupId",
									"type": "uint256"
								},
								{
									"components": [
										{
											"internalType": "uint32",
											"name": "percent",
											"type": "uint32"
										},
										{
											"internalType": "uint64",
											"name": "projectId",
											"type": "uint64"
										},
										{
											"internalType": "address payable",
											"name": "beneficiary",
											"type": "address"
										},
										{
											"internalType": "bool",
											"name": "preferAddToBalance",
											"type": "bool"
										},
										{
											"internalType": "uint48",
											"name": "lockedUntil",
											"type": "uint48"
										},
										{
											"internalType": "contract IJBSplitHook",
											"name": "hook",
											"type": "address"
										}
									],
									"internalType": "struct JBSplit[]",
									"name": "splits",
									"type": "tuple[]"
								}
							],
							"internalType": "struct JBSplitGroup[]",
							"name": "splitGroups",
							"type": "tuple[]"
						},
						{
							"components": [
								{
									"internalType": "address",
									"name": "terminal",
									"type": "address"
								},
								{
									"internalType": "address",
									"name": "token",
									"type": "address"
								},
								{
									"components": [
										{
											"internalType": "uint224",
											"name": "amount",
											"type": "uint224"
										},
										{
											"internalType": "uint32",
											"name": "currency",
											"type": "uint32"
										}
									],
									"internalType": "struct JBCurrencyAmount[]",
									"name": "payoutLimits",
									"type": "tuple[]"
								},
								{
									"components": [
										{
											"internalType": "uint224",
											"name": "amount",
											"type": "uint224"
										},
										{
											"internalType": "uint32",
											"name": "currency",
											"type": "uint32"
										}
									],
									"internalType": "struct JBCurrencyAmount[]",
									"name": "surplusAllowances",
									"type": "tuple[]"
								}
							],
							"internalType": "struct JBFundAccessLimitGroup[]",
							"name": "fundAccessLimitGroups",
							"type": "tuple[]"
						}
					],
					"indexed": false,
					"internalType": "struct JBRulesetConfig[]",
					"name": "rulesetConfigurations",
					"type": "tuple[]"
				},
				{
					"indexed": false,
					"internalType": "bytes32",
					"name": "encodedConfigurationHash",
					"type": "bytes32"
				},
				{
					"indexed": false,
					"internalType": "address",
					"name": "caller",
					"type": "address"
				}
			],
			"name": "DeployRevnet",
			"type": "event"
		},
		{
			"anonymous": false,
			"inputs": [
				{
					"indexed": true,
					"internalType": "uint256",
					"name": "revnetId",
					"type": "uint256"
				},
				{
					"indexed": true,
					"internalType": "bytes32",
					"name": "salt",
					"type": "bytes32"
				},
				{
					"indexed": false,
					"internalType": "bytes32",
					"name": "encodedConfigurationHash",
					"type": "bytes32"
				},
				{
					"components": [
						{
							"components": [
								{
									"internalType": "contract IJBSuckerDeployer",
									"name": "deployer",
									"type": "address"
								},
								{
									"components": [
										{
											"internalType": "address",
											"name": "localToken",
											"type": "address"
										},
										{
											"internalType": "uint32",
											"name": "minGas",
											"type": "uint32"
										},
										{
											"internalType": "address",
											"name": "remoteToken",
											"type": "address"
										},
										{
											"internalType": "uint256",
											"name": "minBridgeAmount",
											"type": "uint256"
										}
									],
									"internalType": "struct JBTokenMapping[]",
									"name": "mappings",
									"type": "tuple[]"
								}
							],
							"internalType": "struct JBSuckerDeployerConfig[]",
							"name": "deployerConfigurations",
							"type": "tuple[]"
						},
						{
							"internalType": "bytes32",
							"name": "salt",
							"type": "bytes32"
						}
					],
					"indexed": false,
					"internalType": "struct REVSuckerDeploymentConfig",
					"name": "suckerDeploymentConfiguration",
					"type": "tuple"
				},
				{
					"indexed": false,
					"internalType": "address",
					"name": "caller",
					"type": "address"
				}
			],
			"name": "DeploySuckers",
			"type": "event"
		},
		{
			"anonymous": false,
			"inputs": [
				{
					"indexed": true,
					"internalType": "uint256",
					"name": "revnetId",
					"type": "uint256"
				},
				{
					"indexed": true,
					"internalType": "address",
					"name": "newSplitOperator",
					"type": "address"
				},
				{
					"indexed": false,
					"internalType": "address",
					"name": "caller",
					"type": "address"
				}
			],
			"name": "ReplaceSplitOperator",
			"type": "event"
		},
		{
			"anonymous": false,
			"inputs": [
				{
					"indexed": false,
					"internalType": "uint256",
					"name": "revnetId",
					"type": "uint256"
				},
				{
					"indexed": false,
					"internalType": "address",
					"name": "additionalOperator",
					"type": "address"
				},
				{
					"indexed": false,
					"internalType": "uint256[]",
					"name": "permissionIds",
					"type": "uint256[]"
				},
				{
					"indexed": false,
					"internalType": "address",
					"name": "caller",
					"type": "address"
				}
			],
			"name": "SetAdditionalOperator",
			"type": "event"
		},
		{
			"anonymous": false,
			"inputs": [
				{
					"indexed": true,
					"internalType": "uint256",
					"name": "revnetId",
					"type": "uint256"
				},
				{
					"indexed": false,
					"internalType": "uint256",
					"name": "cashOutDelay",
					"type": "uint256"
				},
				{
					"indexed": false,
					"internalType": "address",
					"name": "caller",
					"type": "address"
				}
			],
			"name": "SetCashOutDelay",
			"type": "event"
		},
		{
			"anonymous": false,
			"inputs": [
				{
					"indexed": true,
					"internalType": "uint256",
					"name": "revnetId",
					"type": "uint256"
				},
				{
					"indexed": true,
					"internalType": "uint256",
					"name": "stageId",
					"type": "uint256"
				},
				{
					"indexed": true,
					"internalType": "address",
					"name": "beneficiary",
					"type": "address"
				},
				{
					"indexed": false,
					"internalType": "uint256",
					"name": "count",
					"type": "uint256"
				},
				{
					"indexed": false,
					"internalType": "address",
					"name": "caller",
					"type": "address"
				}
			],
			"name": "StoreAutoIssuanceAmount",
			"type": "event"
		},
		{
			"inputs": [
				{
					"internalType": "uint256",
					"name": "x",
					"type": "uint256"
				},
				{
					"internalType": "uint256",
					"name": "y",
					"type": "uint256"
				},
				{
					"internalType": "uint256",
					"name": "denominator",
					"type": "uint256"
				}
			],
			"name": "PRBMath_MulDiv_Overflow",
			"type": "error"
		},
		{
			"inputs": [],
			"name": "REVDeployer_AutoIssuanceBeneficiaryZeroAddress",
			"type": "error"
		},
		{
			"inputs": [
				{
					"internalType": "uint256",
					"name": "cashOutDelay",
					"type": "uint256"
				},
				{
					"internalType": "uint256",
					"name": "blockTimestamp",
					"type": "uint256"
				}
			],
			"name": "REVDeployer_CashOutDelayNotFinished",
			"type": "error"
		},
		{
			"inputs": [
				{
					"internalType": "uint256",
					"name": "cashOutTaxRate",
					"type": "uint256"
				},
				{
					"internalType": "uint256",
					"name": "maxCashOutTaxRate",
					"type": "uint256"
				}
			],
			"name": "REVDeployer_CashOutsCantBeTurnedOffCompletely",
			"type": "error"
		},
		{
			"inputs": [
				{
					"internalType": "address",
					"name": "token",
					"type": "address"
				},
				{
					"internalType": "address",
					"name": "terminal",
					"type": "address"
				}
			],
			"name": "REVDeployer_LoanSourceDoesntMatchTerminalConfigurations",
			"type": "error"
		},
		{
			"inputs": [],
			"name": "REVDeployer_MustHaveSplits",
			"type": "error"
		},
		{
			"inputs": [],
			"name": "REVDeployer_RulesetDoesNotAllowDeployingSuckers",
			"type": "error"
		},
		{
			"inputs": [
				{
					"internalType": "uint256",
					"name": "stageStartTime",
					"type": "uint256"
				},
				{
					"internalType": "uint256",
					"name": "blockTimestamp",
					"type": "uint256"
				}
			],
			"name": "REVDeployer_StageNotStarted",
			"type": "error"
		},
		{
			"inputs": [],
			"name": "REVDeployer_StageTimesMustIncrease",
			"type": "error"
		},
		{
			"inputs": [],
			"name": "REVDeployer_StagesRequired",
			"type": "error"
		},
		{
			"inputs": [
				{
					"internalType": "uint256",
					"name": "revnetId",
					"type": "uint256"
				},
				{
					"internalType": "address",
					"name": "caller",
					"type": "address"
				}
			],
			"name": "REVDeployer_Unauthorized",
			"type": "error"
		},
		{
			"inputs": [
				{
					"internalType": "address",
					"name": "spender",
					"type": "address"
				},
				{
					"internalType": "uint256",
					"name": "currentAllowance",
					"type": "uint256"
				},
				{
					"internalType": "uint256",
					"name": "requestedDecrease",
					"type": "uint256"
				}
			],
			"name": "SafeERC20FailedDecreaseAllowance",
			"type": "error"
		},
		{
			"inputs": [
				{
					"internalType": "address",
					"name": "token",
					"type": "address"
				}
			],
			"name": "SafeERC20FailedOperation",
			"type": "error"
		}
	],
	"args": [],
	"solcInputHash": "55555b9df351d9650860b97968732577",
	"bytecode": "0x6101a060405234801562000011575f80fd5b5060405162006531380380620065318339810160408190526200003491620002ec565b6001600160a01b03808216608052861660a0819052604080516388bc2ef360e01b815290516388bc2ef3916004808201926020929091908290030181865afa15801562000083573d5f803e3d5ffd5b505050506040513d601f19601f82011682018060405250810190620000a9919062000370565b6001600160a01b031660c0816001600160a01b031681525050856001600160a01b031663293c49996040518163ffffffff1660e01b8152600401602060405180830381865afa158015620000ff573d5f803e3d5ffd5b505050506040513d601f19601f8201168201806040525081019062000125919062000370565b6001600160a01b0316610140816001600160a01b03168152505060a0516001600160a01b031663f434c9146040518163ffffffff1660e01b8152600401602060405180830381865afa1580156200017e573d5f803e3d5ffd5b505050506040513d601f19601f82011682018060405250810190620001a4919062000370565b6001600160a01b039081166101205285811661018081905260e08690528482166101005290831661016052620001dd905f601c620001e9565b50505050505062000434565b6040805160018082528183019092525f916020808301908036833701905050905081815f8151811062000220576200022062000395565b60ff90921660209283029190910190910152620002403085858462000246565b50505050565b604080516060810182526001600160a01b03808616825266ffffffffffffff85166020830152818301849052610120519251631127c92960e21b81529192169063449f24a4906200029e9088908590600401620003a9565b5f604051808303815f87803b158015620002b6575f80fd5b505af1158015620002c9573d5f803e3d5ffd5b505050505050505050565b6001600160a01b0381168114620002e9575f80fd5b50565b5f805f805f8060c0878903121562000302575f80fd5b86516200030f81620002d4565b60208801519096506200032281620002d4565b6040880151606089015191965094506200033c81620002d4565b60808801519093506200034f81620002d4565b60a08801519092506200036281620002d4565b809150509295509295509295565b5f6020828403121562000381575f80fd5b81516200038e81620002d4565b9392505050565b634e487b7160e01b5f52603260045260245ffd5b6001600160a01b03838116825260406020808401829052845190921681840152838201516001600160401b0316606080850191909152908401516080840191909152805160a084018190525f929182019190839060c08601905b808310156200042857845160ff16825293830193600192909201919083019062000403565b50979650505050505050565b60805160a05160c05160e0516101005161012051610140516101605161018051615fef620005425f395f81816105e001528181611a0f015261278a01525f81816106ba0152818161199f0152612ec201525f81816102ee0152818161087801528181610932015281816109ce01528181612137015261222a01525f81816107200152818161125a015261169201525f81816105ad01526117ae01525f81816102ad01528181611030015281816111c0015261139e01525f81816104ee015261137701525f81816106ed01528181610cad01528181610d770152818161206b0152818161229601528181612358015261285d01525f81816103de0152818161049a01526115b00152615fef5ff3fe6080604052600436106101cf575f3560e01c806388bc2ef3116100fd578063b987005d11610092578063dbfbe5da11610062578063dbfbe5da146106a9578063ee0fc121146106dc578063f434c9141461070f578063fb82b1b014610742575f80fd5b8063b987005d14610644578063c22903b214610663578063c57981b514610676578063db29c8921461068a575f80fd5b8063abf8c5c8116100cd578063abf8c5c81461059c578063b5d25533146105cf578063b78edb6614610602578063b8a843d71461062e575f80fd5b806388bc2ef3146104dd5780638cc3584614610510578063902b742e1461053d578063a71dea3914610571575f80fd5b8063437e61071161017357806367d39de21161014357806367d39de21461042d5780637249a773146104585780637da0a8771461048c5780637e11dfb4146104be575f80fd5b8063437e61071461035c5780634fa9af6914610397578063572b6c05146103c2578063677ce0881461040e575f80fd5b8063150b7a02116101ae578063150b7a02146102645780631680e1721461029c578063293c4999146102dd5780633b7ae80714610328575f80fd5b806244a005146101d357806301ffc9a7146101f4578063022d501c14610228575b5f80fd5b3480156101de575f80fd5b506101f26101ed36600461387e565b610771565b005b3480156101ff575f80fd5b5061021361020e3660046138ac565b610800565b60405190151581526020015b60405180910390f35b348015610233575f80fd5b50610247610242366004613940565b61086c565b604080519283526001600160a01b0390911660208301520161021f565b34801561026f575f80fd5b5061028361027e366004613a41565b610926565b6040516001600160e01b0319909116815260200161021f565b3480156102a7575f80fd5b506102cf7f000000000000000000000000000000000000000000000000000000000000000081565b60405190815260200161021f565b3480156102e8575f80fd5b506103107f000000000000000000000000000000000000000000000000000000000000000081565b6040516001600160a01b03909116815260200161021f565b348015610333575f80fd5b50610310610342366004613ad7565b60046020525f90815260409020546001600160a01b031681565b348015610367575f80fd5b506102cf610376366004613aee565b5f602081815293815260408082208552928152828120909352825290205481565b3480156103a2575f80fd5b506102cf6103b1366004613ad7565b60026020525f908152604090205481565b3480156103cd575f80fd5b506102136103dc366004613b24565b7f00000000000000000000000000000000000000000000000000000000000000006001600160a01b0390811691161490565b348015610419575f80fd5b5061021361042836600461387e565b61096d565b348015610438575f80fd5b506102cf610447366004613ad7565b60036020525f908152604090205481565b348015610463575f80fd5b50610310610472366004613ad7565b60016020525f90815260409020546001600160a01b031681565b348015610497575f80fd5b507f0000000000000000000000000000000000000000000000000000000000000000610310565b3480156104c9575f80fd5b506102cf6104d8366004613b3f565b6109c3565b3480156104e8575f80fd5b506103107f000000000000000000000000000000000000000000000000000000000000000081565b34801561051b575f80fd5b5061052f61052a366004613bf1565b610a8b565b60405161021f929190613c75565b348015610548575f80fd5b50610310610557366004613ad7565b60056020525f90815260409020546001600160a01b031681565b34801561057c575f80fd5b506102cf61058b366004613ad7565b60066020525f908152604090205481565b3480156105a7575f80fd5b506103107f000000000000000000000000000000000000000000000000000000000000000081565b3480156105da575f80fd5b506103107f000000000000000000000000000000000000000000000000000000000000000081565b34801561060d575f80fd5b5061062161061c366004613d04565b610c87565b60405161021f9190613d47565b348015610639575f80fd5b506102cf62278d0081565b34801561064f575f80fd5b506101f261065e366004613aee565b610d74565b6101f2610671366004613d93565b610f8b565b348015610681575f80fd5b506102cf601981565b348015610695575f80fd5b506102136106a436600461387e565b611257565b3480156106b4575f80fd5b506103107f000000000000000000000000000000000000000000000000000000000000000081565b3480156106e7575f80fd5b506103107f000000000000000000000000000000000000000000000000000000000000000081565b34801561071a575f80fd5b506103107f000000000000000000000000000000000000000000000000000000000000000081565b34801561074d575f80fd5b5061076161075c366004613dca565b6112f5565b60405161021f9493929190613e01565b6107828261077d6115aa565b61161d565b806001600160a01b0316827f0329d6a81434b130c72eb65eea0e32e429dc1277b4aad86ec86454aefb6184516107b66115aa565b6040516001600160a01b03909116815260200160405180910390a36107f2306107dd6115aa565b604080515f8152602081019091528590611656565b6107fc82826116e0565b5050565b5f6001600160e01b0319821663a962878560e01b148061083057506001600160e01b0319821663081e84bf60e11b145b8061084b57506001600160e01b0319821663611481d960e11b145b8061086657506001600160e01b03198216630a85bd0160e11b145b92915050565b5f808a158015610904577f00000000000000000000000000000000000000000000000000000000000000006001600160a01b03166306661abd6040518163ffffffff1660e01b8152600401602060405180830381865afa1580156108d2573d5f803e3d5ffd5b505050506040513d601f19601f820116820180604052508101906108f69190613eb3565b610901906001613ede565b9b505b6109168c828d8d8d8d8d8d8d8d611790565b9b9c9a5050505050505050505050565b5f336001600160a01b037f0000000000000000000000000000000000000000000000000000000000000000161461095b575f80fd5b50630a85bd0160e11b95945050505050565b5f828152600160205260408120546001600160a01b03838116911614806109ac57505f838152600460205260409020546001600160a01b038381169116145b806109bc57506109bc83836119e7565b9392505050565b5f86158015610a5a577f00000000000000000000000000000000000000000000000000000000000000006001600160a01b03166306661abd6040518163ffffffff1660e01b8152600401602060405180830381865afa158015610a28573d5f803e3d5ffd5b505050506040513d601f19601f82011682018060405250810190610a4c9190613eb3565b610a57906001613ede565b97505b5f80610a688a8a8a8a611a40565b91509150610a7d8a848b8b8b8b8b898961205a565b509798975050505050505050565b60c08101355f9081526001602052604081205460609081906001600160a01b03168015610b2957604051634661ac2360e11b81526001600160a01b03821690638cc3584690610ade908890600401613fd4565b5f60405180830381865afa158015610af8573d5f803e3d5ffd5b505050506040513d5f823e601f3d908101601f19168201604052610b1f919081019061415b565b9094509150610b32565b84610120013593505b815160c08601355f908152600560205260409020546001909114906001600160a01b031680151582610b64575f610b67565b60015b81610b72575f610b75565b60015b610b7f91906142b5565b60ff166001600160401b03811115610b9957610b99613e9f565b604051908082528060200260200182016040528015610be557816020015b60408051606080820183525f808352602083015291810191909152815260200190600190039081610bb75790505b5095508015610c3e576040518060600160405280836001600160a01b031681526020015f815260200160405180602001604052805f815250815250865f81518110610c3257610c326142ce565b60200260200101819052505b8215610c7d57845f81518110610c5657610c566142ce565b602002602001015186600181518110610c7157610c716142ce565b60200260200101819052505b5050505050915091565b6060610c958361077d6115aa565b6040516320c94b1360e11b8152600481018490525f907f00000000000000000000000000000000000000000000000000000000000000006001600160a01b03169063419296269060240161038060405180830381865afa158015610cfb573d5f803e3d5ffd5b505050506040513d601f19601f82011682018060405250810190610d1f9190614416565b61024081015190925060021c600190811614905080610d5157604051631abe0dd960e21b815260040160405180910390fd5b5f85815260036020526040902054610d6b908690866126f0565b95945050505050565b5f7f00000000000000000000000000000000000000000000000000000000000000006001600160a01b031663d4a1b4b16040518163ffffffff1660e01b8152600401602060405180830381865afa158015610dd1573d5f803e3d5ffd5b505050506040513d601f19601f82011682018060405250810190610df591906145ba565b604051630969875760e21b815260048101869052602481018590526001600160a01b0391909116906325a61d5c9060440161012060405180830381865afa158015610e42573d5f803e3d5ffd5b505050506040513d601f19601f82011682018060405250810190610e6691906145d5565b6060015165ffffffffffff16905042811115610ea357604051632f5d721f60e21b8152600481018290524260248201526044015b60405180910390fd5b5f8481526020818152604080832086845282528083206001600160a01b038616845290915281205490819003610eda575050505050565b5f8581526020818152604080832087845282528083206001600160a01b03871684528252808320839055878352600690915281208054839290610f1e9084906145f0565b90915550506001600160a01b03831684867f0ad8046f3d571312df6d1867ac30c26e100f5684a9d7c2d3340c4e2a5b56360f84610f596115aa565b604080519283526001600160a01b0390911660208301520160405180910390a4610f8485828561281c565b5050505050565b61eeee610fa061012083016101008401613b24565b6001600160a01b031614610fdc57610fdc3330610160840135610fcb61012086016101008701613b24565b6001600160a01b03169291906128c7565b5f610feb6101c0830183614603565b810190610ff89190613b24565b90505f61101c8261101161012086016101008701613b24565b61016086013561292e565b90506001600160a01b03821663fef43257827f000000000000000000000000000000000000000000000000000000000000000061106161012088016101008901613b24565b61016088013561107460208a018a613b24565b5f8a6020013560405160200161108c91815260200190565b6040516020818303038152906040526040518863ffffffff1660e01b81526004016110bc96959493929190614645565b60206040518083038185885af1935050505080156110f7575060408051601f3d908101601f191682019092526110f491810190613eb3565b60015b611251573d808015611124576040519150601f19603f3d011682016040523d82523d5f602084013e611129565b606091505b5061eeee61113f61012086016101008701613b24565b6001600160a01b031614611179576111798361016086013561116961012088016101008901613b24565b6001600160a01b03169190612966565b61119a3361118f61012087016101008801613b24565b61016087013561292e565b915033639e6eec058360208701356111ba61012089016101008a01613b24565b604080517f000000000000000000000000000000000000000000000000000000000000000060208201526101608b0135915f91016040516020818303038152906040526040518763ffffffff1660e01b815260040161121d95949392919061469c565b5f604051808303818588803b158015611234575f80fd5b505af1158015611246573d5f803e3d5ffd5b505050505050505050565b50505050565b5f7f00000000000000000000000000000000000000000000000000000000000000006001600160a01b031663632af95f83308661129388612a20565b5f806040518763ffffffff1660e01b81526004016112b6969594939291906146e8565b602060405180830381865afa1580156112d1573d5f803e3d5ffd5b505050506040513d601f19601f820116820180604052508101906109bc9190614760565b5f80806060611316604086018035906113119060208901613b24565b6119e7565b15611331575f85608001358660a001359350935093506115a3565b6040808601355f908152600260205220544281111561136c5760405163e4a9c90760e01b815260048101829052426024820152604401610e9a565b5f6001600160a01b037f00000000000000000000000000000000000000000000000000000000000000001663862026507f00000000000000000000000000000000000000000000000000000000000000006113cd60e08b0160c08c01613b24565b6040516001600160e01b031960e085901b16815260048101929092526001600160a01b03166024820152604401602060405180830381865afa158015611415573d5f803e3d5ffd5b505050506040513d601f19601f8201168201806040525081019061143991906145ba565b9050610160870135158061145457506001600160a01b038116155b156114765786610160013587608001358860a0013595509550955050506115a3565b5f611489608089013560196103e8612bb6565b90505f61149a8260808b01356145f0565b90505f6114b76101208b01358360a08d01356101608e0135612c85565b90505f6114e86114cc836101208e01356145f0565b85858e60a001356114dd91906145f0565b8e6101600135612c85565b604080516001808252818301909252919250816020015b60408051606080820183525f8083526020830152918101919091528152602001906001900390816114ff57505060408051606081018252308152602080820185905282516001600160a01b038a1691810191909152929950918282019101604051602081830303815290604052815250875f81518110611581576115816142ce565b6020908102919091010152505061016089013597509550505060a08601359250505b9193509193565b5f3660147f00000000000000000000000000000000000000000000000000000000000000006001600160a01b0316331480156115e65750808210155b15611615575f366115f783856145f0565b61160292829061477b565b61160b916147a2565b60601c9250505090565b339250505090565b6116278282611257565b6107fc576040516355e03cb160e11b8152600481018390526001600160a01b0382166024820152604401610e9a565b604080516060810182526001600160a01b03808616825266ffffffffffffff851660208301528183018490529151631127c92960e21b815290917f0000000000000000000000000000000000000000000000000000000000000000169063449f24a4906116c990889085906004016147d7565b5f604051808303815f87803b158015611234575f80fd5b5f6116ea83612a20565b90505f81516001600160401b0381111561170657611706613e9f565b60405190808252806020026020018201604052801561172f578160200160208202803683370190505b5090505f5b82518110156117835782818151811061174f5761174f6142ce565b6020026020010151828281518110611769576117696142ce565b60ff90921660209283029190910190910152600101611734565b5061125130848684611656565b5f805f61179f8d8c8c8c611a40565b90925090506001600160a01b037f00000000000000000000000000000000000000000000000000000000000000001663ea74b8af8e6117de8980614860565b8960200135856117ec6115aa565b6040805160208101949094528301919091526001600160a01b03166060820152608001604051602081830303815290604052805190602001206040518463ffffffff1660e01b815260040161184393929190614b10565b6020604051808303815f875af115801561185f573d5f803e3d5ffd5b505050506040513d601f19601f8201168201806040525081019061188391906145ba565b5f8e8152600560205260409081902080546001600160a01b0319166001600160a01b0384161790559093506118be9060608801908801614c39565b156118e5575f8d815260076020908152604082208054600181018255908352912060149101555b6118f56080870160608801614c39565b1561191c575f8d815260076020908152604082208054600181018255908352912060159101555b61192c60a0870160808801614c39565b15611953575f8d815260076020908152604082208054600181018255908352912060169101555b61196360c0870160a08801614c39565b1561198a575f8d815260076020908152604082208054600181018255908352912060179101555b611995838686612cfa565b156119c6576119c67f00000000000000000000000000000000000000000000000000000000000000008e6014612f2f565b6119d78d8d8d8d8d8d8d898961205a565b50509a9950505050505050505050565b6040516383db9d0160e01b8152600481018390526001600160a01b0382811660248301525f917f0000000000000000000000000000000000000000000000000000000000000000909116906383db9d01906044016112b6565b60605f611a4f85830186614c54565b90505f03611a705760405163050751e560e21b815260040160405180910390fd5b611a7d6060860186614c54565b90506001600160401b03811115611a9657611a96613e9f565b604051908082528060200260200182016040528015611acf57816020015b611abc613771565b815260200190600190039081611ab45790505b5091505f611ae36040870160208801614c99565b611af360c0880160a08901613b24565b611afd8880614cb4565b611b079080614603565b611b118a80614cb4565b611b1f906020810190614603565b611b298c80614cb4565b60600135604051602001611b439796959493929190614cc8565b60405160208183030381529060405290505f611b60878787612f83565b90505f5b611b716060890189614c54565b90508110156120445736611b8860608a018a614c54565b83818110611b9857611b986142ce565b9050602002810190611baa9190614d20565b90505f611bbd6060830160408401614d35565b61ffff16118015611bda5750611bd66060820182614d50565b1590505b15611bf8576040516340fb407760e01b815260040160405180910390fd5b5f82118015611c675750611c0f60608a018a614c54565b611c1a6001856145f0565b818110611c2957611c296142ce565b9050602002810190611c3b9190614d20565b611c49906020810190614da8565b64ffffffffff16611c5d6020830183614da8565b64ffffffffff1611155b15611c855760405163b787fe6760e01b815260040160405180910390fd5b612710611c99610100830160e08401614d35565b61ffff1610611cdb57611cb3610100820160e08301614d35565b6040516380922c6d60e01b815261ffff90911660048201526127106024820152604401610e9a565b611cf5611cee60408b0160208c01614c99565b82856131ea565b868381518110611d0757611d076142ce565b602002602001018190525083825f148015611d335750611d2a6020830183614da8565b64ffffffffff16155b611d5057611d446020830183614da8565b64ffffffffff16611d52565b425b611d626060840160408501614d35565b611d7260a0850160808601614dcc565b611d8260c0860160a08701614c99565b611d9260e0870160c08801614c99565b611da3610100880160e08901614d35565b604051602001611db99796959493929190614de7565b60405160208183030381529060405293505f5b611dd96020830183614e40565b905081101561203a5736611df06020840184614e40565b83818110611e0057611e006142ce565b90506060020190505f6001600160a01b0316816040016020810190611e259190613b24565b6001600160a01b031603611e4c5760405163b79e8c7d60e01b815260040160405180910390fd5b611e5c6040820160208301614e84565b6001600160681b03165f03611e715750612032565b85611e7f6020830183614c99565b611e8f6060840160408501613b24565b611e9f6040850160208601614e84565b604051602001611eb29493929190614e9d565b60408051601f19818403018152919052955046611ed26020830183614c99565b63ffffffff1614611ee35750612032565b611ef36060820160408301613b24565b6001600160a01b0316611f068542613ede565b8d7f5c05d79eeb764b1f5069fb55a8558e8a5cec91813a64282bc198dc9084c75df0611f386040860160208701614e84565b611f406115aa565b604080516001600160681b0390931683526001600160a01b0390911660208301520160405180910390a4611f7a6040820160208301614e84565b5f8d81526020819052604081206001600160681b03929092169190611f9f8742613ede565b81526020019081526020015f205f836040016020810190611fc09190613b24565b6001600160a01b03166001600160a01b031681526020019081526020015f205f828254611fed9190613ede565b9091555061200390506040820160208301614e84565b6001600160681b031660065f8e81526020019081526020015f205f82825461202b9190613ede565b9091555050505b600101611dcc565b5050600101611b64565b5081805190602001209250505094509492505050565b871561211f57886001600160a01b037f000000000000000000000000000000000000000000000000000000000000000016635c7465e53061209b8b80614cb4565b6120a9906040810190614603565b878c8c6040518763ffffffff1660e01b81526004016120cd969594939291906153fb565b6020604051808303815f875af11580156120e9573d5f803e3d5ffd5b505050506040513d601f19601f8201168201806040525081019061210d9190613eb3565b1461211a5761211a615464565b612316565b6040516331a9108f60e11b8152600481018a90525f907f00000000000000000000000000000000000000000000000000000000000000006001600160a01b031690636352211e90602401602060405180830381865afa158015612184573d5f803e3d5ffd5b505050506040513d601f19601f820116820180604052508101906121a891906145ba565b9050806001600160a01b03166121bc6115aa565b6001600160a01b0316146121fe57896121d36115aa565b6040516355e03cb160e11b815260048101929092526001600160a01b03166024820152604401610e9a565b604051632142170760e11b81526001600160a01b038281166004830152306024830152604482018c90527f000000000000000000000000000000000000000000000000000000000000000016906342842e0e906064015f604051808303815f87803b15801561226b575f80fd5b505af115801561227d573d5f803e3d5ffd5b50506040516339284f3560e01b81526001600160a01b037f00000000000000000000000000000000000000000000000000000000000000001692506339284f3591506122d3908d9087908c908c90600401615478565b6020604051808303815f875af11580156122ef573d5f803e3d5ffd5b505050506040513d601f19601f820116820180604052508101906123139190613eb3565b50505b61234e8961232760608a018a614c54565b5f818110612337576123376142ce565b90506020028101906123499190614d20565b6133ee565b6001600160a01b037f00000000000000000000000000000000000000000000000000000000000000001663581781918a6123888a80614cb4565b6123929080614603565b61239c8c80614cb4565b6123aa906020810190614603565b6123b48e80614cb4565b60600135886123c16115aa565b6040805160208101949094528301919091526001600160a01b03166060820152608001604051602081830303815290604052805190602001206040518763ffffffff1660e01b815260040161241b969594939291906154bf565b6020604051808303815f875af1158015612437573d5f803e3d5ffd5b505050506040513d601f19601f8201168201806040525081019061245b91906145ba565b505f61246a6020860186613b24565b6001600160a01b0316146125e2576124856020850185613b24565b5f8a815260016020526040812080546001600160a01b0319166001600160a01b0393909316929092179091555b6124bf60208601866154ff565b90508110156125e057366124d660208701876154ff565b838181106124e6576124e66142ce565b6080029190910191506124fe90506020870187613b24565b6001600160a01b0316637b621d3a8c61251d6040850160208601615544565b61252d6060860160408701614c99565b61253d6080870160608801614c99565b61254a6020880188613b24565b6040516001600160e01b031960e088901b168152600481019590955262ffffff909316602485015263ffffffff91821660448501521660648301526001600160a01b0316608482015260a4016020604051808303815f875af11580156125b2573d5f803e3d5ffd5b505050506040513d601f19601f820116820180604052508101906125d691906145ba565b50506001016124b2565b505b5f6125f360c0890160a08a01613b24565b6001600160a01b0316146126585761261c61261460c0890160a08a01613b24565b8a6010612f2f565b61262c60c0880160a08901613b24565b5f8a815260046020526040902080546001600160a01b0319166001600160a01b03929092169190911790555b6126718961266c60608a0160408b01613b24565b6116e0565b602083013515612688576126868982856126f0565b505b5f898152600360205260409020819055887f98d8200d4e1d0ea1a9757f6357d6b7c89b817a5ee106d79165327b7fa3213188888888888888886126c96115aa565b6040516126dd989796959493929190615b0d565b60405180910390a2505050505050505050565b60605f8383602001356127016115aa565b6040805160208101949094528301919091526001600160a01b0316606082015260800160405160208183030381529060405280519060200120905080857f3b7e4c0d90b50b007ff2ff731229262d74c9c8fe9a0eb322ca7debc85f726f2c86866127696115aa565b60405161277893929190615cbe565b60405180910390a36001600160a01b037f000000000000000000000000000000000000000000000000000000000000000016632f3f50e086836127bb8780614c54565b6040518563ffffffff1660e01b81526004016127da9493929190615cee565b5f604051808303815f875af11580156127f5573d5f803e3d5ffd5b505050506040513d5f823e601f3d908101601f19168201604052610d6b9190810190615d0d565b6040516363fdc96f60e11b815260048101849052602481018390526001600160a01b03828116604483015260a060648301525f60a4830181905260848301527f0000000000000000000000000000000000000000000000000000000000000000169063c7fb92de9060c4016020604051808303815f875af11580156128a3573d5f803e3d5ffd5b505050506040513d601f19601f820116820180604052508101906112519190613eb3565b6040516001600160a01b0384811660248301528381166044830152606482018390526112519186918216906323b872dd906084015b604051602081830303815290604052915060e01b6020820180516001600160e01b03838183161783525050505061349a565b5f61eeed196001600160a01b038416016129495750806109bc565b61295d6001600160a01b0384168584613506565b505f9392505050565b604051636eb1769f60e11b81523060048201526001600160a01b0383811660248301525f919085169063dd62ed3e90604401602060405180830381865afa1580156129b3573d5f803e3d5ffd5b505050506040513d601f19601f820116820180604052508101906129d79190613eb3565b905081811015612a135760405163e570110f60e01b81526001600160a01b03841660048201526024810182905260448101839052606401610e9a565b6112518484848403613588565b5f818152600760209081526040808320805482518185028101850190935280835260609493830182828015612a7257602002820191905f5260205f20905b815481526020019060010190808311612a5e575b5050505050905080516004612a879190613ede565b6001600160401b03811115612a9e57612a9e613e9f565b604051908082528060200260200182016040528015612ac7578160200160208202803683370190505b509150601160ff16825f81518110612ae157612ae16142ce565b602002602001018181525050601960ff1682600181518110612b0557612b056142ce565b602002602001018181525050600660ff1682600281518110612b2957612b296142ce565b602002602001018181525050601260ff1682600381518110612b4d57612b4d6142ce565b6020026020010181815250505f5b8151811015612baf57818181518110612b7657612b766142ce565b602002602001015183826003612b8c9190613ede565b81518110612b9c57612b9c6142ce565b6020908102919091010152600101612b5b565b5050919050565b5f80805f19858709858702925082811083820303915050805f03612bed57838281612be357612be3615d96565b04925050506109bc565b838110612c1e57604051630c740aef60e31b8152600481018790526024810186905260448101859052606401610e9a565b5f8486880960026001871981018816978890046003810283188082028403028082028403028082028403028082028403028082028403029081029092039091025f889003889004909101858311909403939093029303949094049190911702949350505050565b5f61270f198201612c9757505f612cf2565b828410612ca5575083612cf2565b5f612cb1868686612bb6565b9050825f03612cc1579050612cf2565b612cee81612cd0858888612bb6565b612cdc866127106145f0565b612ce69190613ede565b612710612bb6565b9150505b949350505050565b5f818103612d0957505f6109bc565b5f826001600160401b03811115612d2257612d22613e9f565b604051908082528060200260200182016040528015612d8257816020015b6040805160c0810182525f80825260208083018290529282018190526060808301829052608083019190915260a082015282525f19909201910181612d405790505b5090505f5b83811015612eaa5736858583818110612da257612da26142ce565b9050602002810190612db49190615daa565b90506040518060c00160405280886001600160a01b03168152602001825f016020810190612de29190615544565b62ffffff168152602001826020016020810190612dff9190614e84565b6001600160681b03168152602001612e1d6060840160408501614c99565b63ffffffff168152602001612e386080840160608501614c99565b63ffffffff168152602001612e506080840184614c54565b808060200260200160405190810160405280939291908181526020018383602002808284375f9201919091525050509152508351849084908110612e9657612e966142ce565b602090810291909101015250600101612d87565b50604051631107934d60e21b81526001600160a01b037f0000000000000000000000000000000000000000000000000000000000000000169063441e4d3490612ef7908490600401615df6565b5f604051808303815f87803b158015612f0e575f80fd5b505af1158015612f20573d5f803e3d5ffd5b50600198975050505050505050565b6040805160018082528183019092525f916020808301908036833701905050905081815f81518110612f6357612f636142ce565b602002602001019060ff16908160ff168152505061125130858584611656565b6060612f926080850185615eba565b90506001600160401b03811115612fab57612fab613e9f565b604051908082528060200260200182016040528015612ffe57816020015b604080516080810182525f8082526020820152606091810182905281810191909152815260200190600190039081612fc95790505b5090505f5b6130106080860186615eba565b90508110156131e257366130276080870187615eba565b83818110613037576130376142ce565b90506040020190505f61304b868684613617565b90508063ffffffff165f036130a3576130676020830183613b24565b6130776040840160208501613b24565b604051631ab3aa5760e01b81526001600160a01b03928316600482015291166024820152604401610e9a565b6040805160018082528183019092525f91816020015b604080518082019091525f80825260208201528152602001906001900390816130b957905050905060405180604001604052806001600160e01b03801681526020018363ffffffff16815250815f81518110613117576131176142ce565b602002602001018190525060405180608001604052808460200160208101906131409190613b24565b6001600160a01b0316815260209081019061315d90860186613b24565b6001600160a01b031681526020015f6040519080825280602002602001820160405280156131b057816020015b604080518082019091525f808252602082015281526020019060019003908161318a5790505b508152602001828152508585815181106131cc576131cc6142ce565b6020908102919091010152505050600101613003565b509392505050565b6131f2613771565b6131fa6137bc565b61320a6060850160408601614d35565b61ffff168152613221610100850160e08601614d35565b61ffff16602082015263ffffffff8516604082015260016101c0820181905260a082018190526101e082018190526102008201523061022082015261326e61012085016101008601614d35565b61ffff166102408201526040805160018082528183019092525f91816020015b604080518082019091525f81526060602082015281526020019060019003908161328e5750506040805180820190915260018152909150602081016132d66060880188614d50565b808060200260200160405190810160405280939291908181526020015f905b828210156133215761331260c08302860136819003810190615eff565b815260200190600101906132f5565b5050505050815250815f8151811061333b5761333b6142ce565b6020026020010181905250604051806101000160405280865f0160208101906133649190614da8565b64ffffffffff16815260200161338060c0880160a08901614c99565b63ffffffff16815260200161339b60a0880160808901614dcc565b6001600160701b031681526020016133b960e0880160c08901614c99565b63ffffffff1681526020015f6001600160a01b0316815260200183815260200182815260200185815250925050509392505050565b6133fb6020820182614da8565b64ffffffffff1615806134215750426134176020830183614da8565b64ffffffffff1610155b1561342a575050565b5f61343862278d0042613ede565b5f8481526002602052604090208190559050827f48a9634f50564cfe6648ff5e75795a36873bf96c408523d50017032657e67198826134756115aa565b604080519283526001600160a01b0390911660208301520160405180910390a2505050565b5f8060205f8451602086015f885af1806134b9576040513d5f823e3d81fd5b50505f513d915081156134d05780600114156134dd565b6001600160a01b0384163b155b1561125157604051635274afe760e01b81526001600160a01b0385166004820152602401610e9a565b604051636eb1769f60e11b81523060048201526001600160a01b0383811660248301525f919085169063dd62ed3e90604401602060405180830381865afa158015613553573d5f803e3d5ffd5b505050506040513d601f19601f820116820180604052508101906135779190613eb3565b905061125184846135888585613ede565b604080516001600160a01b038416602482015260448082018490528251808303909101815260649091019091526020810180516001600160e01b031663095ea7b360e01b1790526135d98482613728565b611251576040516001600160a01b0384811660248301525f604483015261360d91869182169063095ea7b3906064016128fc565b611251848261349a565b5f805b8381101561371e5736858583818110613635576136356142ce565b90506020028101906136479190615fa5565b90506136596040850160208601613b24565b6001600160a01b031661366f6020830183613b24565b6001600160a01b031603613715575f5b61368c6020830183614e40565b905081101561371357366136a36020840184614e40565b838181106136b3576136b36142ce565b6060029190910191506136cb90506020870187613b24565b6001600160a01b03166136e16020830183613b24565b6001600160a01b03160361370a576136ff6060820160408301614c99565b9450505050506109bc565b5060010161367f565b505b5060010161361a565b505f949350505050565b5f805f8060205f8651602088015f8a5af192503d91505f519050828015613767575081156137595780600114613767565b5f866001600160a01b03163b115b9695505050505050565b60408051610100810182525f8082526020820181905291810182905260608101829052608081019190915260a081016137a86137bc565b815260200160608152602001606081525090565b60408051610260810182525f80825260208201819052918101829052606081018290526080810182905260a0810182905260c0810182905260e08101829052610100810182905261012081018290526101408101829052610160810182905261018081018290526101a081018290526101c081018290526101e081018290526102008101829052610220810182905261024081019190915290565b6001600160a01b038116811461386b575f80fd5b50565b803561387981613857565b919050565b5f806040838503121561388f575f80fd5b8235915060208301356138a181613857565b809150509250929050565b5f602082840312156138bc575f80fd5b81356001600160e01b0319811681146109bc575f80fd5b5f60c082840312156138e3575f80fd5b50919050565b5f8083601f8401126138f9575f80fd5b5081356001600160401b0381111561390f575f80fd5b6020830191508360208260051b8501011115613929575f80fd5b9250929050565b5f604082840312156138e3575f80fd5b5f805f805f805f805f60e08a8c031215613958575f80fd5b8935985060208a01356001600160401b0380821115613975575f80fd5b6139818d838e016138d3565b995060408c0135915080821115613996575f80fd5b6139a28d838e016138e9565b909950975060608c01359150808211156139ba575f80fd5b6139c68d838e01613930565b965060808c01359150808211156139db575f80fd5b6139e78d838e01613930565b955060a08c01359150808211156139fc575f80fd5b613a088d838e016138d3565b945060c08c0135915080821115613a1d575f80fd5b50613a2a8c828d016138e9565b915080935050809150509295985092959850929598565b5f805f805f60808688031215613a55575f80fd5b8535613a6081613857565b94506020860135613a7081613857565b93506040860135925060608601356001600160401b0380821115613a92575f80fd5b818801915088601f830112613aa5575f80fd5b813581811115613ab3575f80fd5b896020828501011115613ac4575f80fd5b9699959850939650602001949392505050565b5f60208284031215613ae7575f80fd5b5035919050565b5f805f60608486031215613b00575f80fd5b83359250602084013591506040840135613b1981613857565b809150509250925092565b5f60208284031215613b34575f80fd5b81356109bc81613857565b5f805f805f8060a08789031215613b54575f80fd5b8635955060208701356001600160401b0380821115613b71575f80fd5b613b7d8a838b016138d3565b96506040890135915080821115613b92575f80fd5b613b9e8a838b016138e9565b90965094506060890135915080821115613bb6575f80fd5b613bc28a838b01613930565b93506080890135915080821115613bd7575f80fd5b50613be489828a01613930565b9150509295509295509295565b5f60208284031215613c01575f80fd5b81356001600160401b03811115613c16575f80fd5b820161018081850312156109bc575f80fd5b5f5b83811015613c42578181015183820152602001613c2a565b50505f910152565b5f8151808452613c61816020860160208601613c28565b601f01601f19169290920160200192915050565b5f604080830185845260206040818601528186518084526060935060608701915060608160051b8801018389015f5b83811015613cf457898303605f19018552815180516001600160a01b031684528681015187850152880151888401889052613ce188850182613c4a565b9587019593505090850190600101613ca4565b50909a9950505050505050505050565b5f8060408385031215613d15575f80fd5b8235915060208301356001600160401b03811115613d31575f80fd5b613d3d85828601613930565b9150509250929050565b602080825282518282018190525f9190848201906040850190845b81811015613d875783516001600160a01b031683529284019291840191600101613d62565b50909695505050505050565b5f60208284031215613da3575f80fd5b81356001600160401b03811115613db8575f80fd5b820161020081850312156109bc575f80fd5b5f60208284031215613dda575f80fd5b81356001600160401b03811115613def575f80fd5b82016101a081850312156109bc575f80fd5b5f6080820186835260208681850152604086604086015260606080606087015283875180865260a08801915060a08160051b89010195508489015f5b82811015613e8d57898803609f19018452815180516001600160a01b0316895287810151888a0152860151868901869052613e7a868a0182613c4a565b9850509286019290860190600101613e3d565b50959c9b505050505050505050505050565b634e487b7160e01b5f52604160045260245ffd5b5f60208284031215613ec3575f80fd5b5051919050565b634e487b7160e01b5f52601160045260245ffd5b8082018082111561086657610866613eca565b803560ff81168114613879575f80fd5b63ffffffff8116811461386b575f80fd5b803561387981613f01565b8035613f2881613857565b6001600160a01b0316825260ff613f4160208301613ef1565b1660208301526040810135613f5581613f01565b63ffffffff166040830152606090810135910152565b5f808335601e19843603018112613f80575f80fd5b83016020810192503590506001600160401b03811115613f9e575f80fd5b803603821315613929575f80fd5b81835281816020850137505f828201602090810191909152601f909101601f19169091010190565b60208152613ff560208201613fe88461386e565b6001600160a01b03169052565b5f6140026020840161386e565b6001600160a01b0381166040840152506140226060830160408501613f1d565b60c083013560e083015261010060e08401358184015261404381850161386e565b905061012061405c818501836001600160a01b03169052565b6101409150808501358285015250610160818501358185015261408181860186613f6b565b6101808681015292509050610d6b6101a085018383613fac565b604051606081016001600160401b03811182821017156140bd576140bd613e9f565b60405290565b60405161012081016001600160401b03811182821017156140bd576140bd613e9f565b60405161026081016001600160401b03811182821017156140bd576140bd613e9f565b604051601f8201601f191681016001600160401b038111828210171561413157614131613e9f565b604052919050565b5f6001600160401b0382111561415157614151613e9f565b5060051b60200190565b5f806040838503121561416c575f80fd5b825191506020808401516001600160401b038082111561418a575f80fd5b818601915086601f83011261419d575f80fd5b81516141b06141ab82614139565b614109565b81815260059190911b830184019084810190898311156141ce575f80fd5b8585015b838110156142a4578051858111156141e8575f80fd5b8601601f196060828e03820112156141fe575f80fd5b61420661409b565b8983015161421381613857565b815260408301518a82015260608301518881111561422f575f80fd5b8084019350508d603f840112614243575f80fd5b898301518881111561425757614257613e9f565b6142678b84601f84011601614109565b92508083528e604082860101111561427d575f80fd5b61428d818c850160408701613c28565b5060408101919091528452509186019186016141d2565b508096505050505050509250929050565b60ff818116838216019081111561086657610866613eca565b634e487b7160e01b5f52603260045260245ffd5b65ffffffffffff8116811461386b575f80fd5b8051613879816142e2565b805161387981613f01565b6001600160701b038116811461386b575f80fd5b80516138798161430b565b805161387981613857565b5f6101208284031215614346575f80fd5b61434e6140c3565b9050614359826142f5565b8152614367602083016142f5565b6020820152614378604083016142f5565b6040820152614389606083016142f5565b606082015261439a60808301614300565b60808201526143ab60a0830161431f565b60a08201526143bc60c08301614300565b60c08201526143cd60e0830161432a565b60e082015261010080830151818301525092915050565b61ffff8116811461386b575f80fd5b8051613879816143e4565b801515811461386b575f80fd5b8051613879816143fe565b5f80828403610380811215614429575f80fd5b6144338585614335565b92506102608061011f1983011215614449575f80fd5b6144516140e6565b915061446061012086016143f3565b82526101406144708187016143f3565b6020840152610160614483818801614300565b604085015261018061449681890161440b565b60608601526101a06144a9818a0161440b565b60808701526101c06144bc818b0161440b565b60a08801526101e06144cf818c0161440b565b60c08901526102006144e2818d0161440b565b60e08a01526102206144f5818e0161440b565b6101008b0152610240614509818f0161440b565b6101208c015261451a8a8f0161440b565b898c015261452b6102808f0161440b565b888c015261453c6102a08f0161440b565b878c015261454d6102c08f0161440b565b868c015261455e6102e08f0161440b565b858c015261456f6103008f0161440b565b848c01526145806103208f0161440b565b838c01526145916103408f0161432a565b828c01526145a26103608f016143f3565b908b015250999c979b50969950505050505050505050565b5f602082840312156145ca575f80fd5b81516109bc81613857565b5f61012082840312156145e6575f80fd5b6109bc8383614335565b8181038181111561086657610866613eca565b5f808335601e19843603018112614618575f80fd5b8301803591506001600160401b03821115614631575f80fd5b602001915036819003821315613929575f80fd5b8681525f60018060a01b03808816602084015286604084015280861660608401525083608083015260e060a08301525f60e08301526101008060c084015261468f81840185613c4a565b9998505050505050505050565b85815260018060a01b0385166020820152836040820152821515606082015260c060808201525f60c082015260e060a08201525f6146dd60e0830184613c4a565b979650505050505050565b6001600160a01b03878116825286166020808301919091526040820186905260c06060830181905285519083018190525f918681019160e085019190845b8181101561474257845184529382019392820192600101614726565b5050509415156080840152505090151560a090910152949350505050565b5f60208284031215614770575f80fd5b81516109bc816143fe565b5f8085851115614789575f80fd5b83861115614795575f80fd5b5050820193919092039150565b6bffffffffffffffffffffffff1981358181169160148510156147cf5780818660140360031b1b83161692505b505092915050565b5f60018060a01b03808516835260206040602085015260a084018286511660408601526001600160401b036020870151166060860152604086015192506060608086015280835180835260c0870191506020850194505f92505b8083101561485457845160ff168252938301936001929092019190830190614831565b50979650505050505050565b5f823561015e19833603018112614875575f80fd5b9190910192915050565b5f8235607e19833603018112614893575f80fd5b90910192915050565b80356001600160681b0381168114613879575f80fd5b8035613879816143e4565b803562ffffff81168114613879575f80fd5b8035613879816143fe565b5f60808084018335601e198536030181126148f3575f80fd5b840160208181019135906001600160401b03821115614910575f80fd5b6101c08083023603841315614923575f80fd5b608089529382905260a0938489015f5b84811015614a6857614955826149488861489c565b6001600160681b03169052565b614960848701613f12565b63ffffffff16848301526040614977878201613f12565b63ffffffff1690830152606061498e8782016148b2565b61ffff16908301526149a186890161386e565b6001600160a01b031688830152858701358783015260c06149c38188016148bd565b62ffffff169083015260e06149d9878201613ef1565b60ff16908301526101006149ee8782016148cf565b151590830152610120614a028782016148cf565b151590830152610140614a168782016148cf565b151590830152610160614a2a8782016148cf565b151590830152610180614a3e8782016148cf565b1515908301526101a0614a528782016148cf565b1515908301529482019490820190600101614933565b50614a7560208a01613f12565b63ffffffff811660208c01529650614a8f60408a01613ef1565b60ff811660408c01529650614aa660608a0161386e565b6001600160a01b03811660608c0152965061468f565b8035614ac7816143fe565b151582526020810135614ad9816143fe565b151560208301526040810135614aee816143fe565b151560408301526060810135614b03816143fe565b8015156060840152505050565b838152606060208201525f614b258485613f6b565b6101606060850152614b3c6101c085018284613fac565b915050614b4c6020860186613f6b565b605f1980868503016080870152614b64848385613fac565b9350614b736040890189613f6b565b93509150808685030160a0870152614b8c848484613fac565b9350614b9a6060890161386e565b6001600160a01b03811660c08801529250614bb86080890189613f6b565b93509150808685030160e0870152614bd1848484613fac565b9350614be060a089018961487f565b925080868503016101008701525050614bf982826148da565b915050614c0860c0860161386e565b6001600160a01b0316610120840152614c28610140840160e08701614abc565b604092909201929092529392505050565b5f60208284031215614c49575f80fd5b81356109bc816143fe565b5f808335601e19843603018112614c69575f80fd5b8301803591506001600160401b03821115614c82575f80fd5b6020019150600581901b3603821315613929575f80fd5b5f60208284031215614ca9575f80fd5b81356109bc81613f01565b5f8235607e19833603018112614875575f80fd5b63ffffffff881681526001600160a01b038716602082015260a0604082018190525f90614cf89083018789613fac565b8281036060840152614d0b818688613fac565b91505082608083015298975050505050505050565b5f823561011e19833603018112614875575f80fd5b5f60208284031215614d45575f80fd5b81356109bc816143e4565b5f808335601e19843603018112614d65575f80fd5b8301803591506001600160401b03821115614d7e575f80fd5b602001915060c081023603821315613929575f80fd5b803564ffffffffff81168114613879575f80fd5b5f60208284031215614db8575f80fd5b6109bc82614d94565b80356138798161430b565b5f60208284031215614ddc575f80fd5b81356109bc8161430b565b60e081525f614df960e083018a613c4a565b60208301989098525061ffff95861660408201526001600160701b0394909416606085015263ffffffff9283166080850152911660a083015290911660c090910152919050565b5f808335601e19843603018112614e55575f80fd5b8301803591506001600160401b03821115614e6e575f80fd5b6020019150606081023603821315613929575f80fd5b5f60208284031215614e94575f80fd5b6109bc8261489c565b608081525f614eaf6080830187613c4a565b63ffffffff959095166020830152506001600160a01b039290921660408301526001600160681b0316606090910152919050565b805161ffff1682526020810151614f00602084018261ffff169052565b506040810151614f18604084018263ffffffff169052565b506060810151614f2c606084018215159052565b506080810151614f40608084018215159052565b5060a0810151614f5460a084018215159052565b5060c0810151614f6860c084018215159052565b5060e0810151614f7c60e084018215159052565b5061010081810151151590830152610120808201511515908301526101408082015115159083015261016080820151151590830152610180808201511515908301526101a0808201511515908301526101c0808201511515908301526101e08082015115159083015261020080820151151590830152610220808201516001600160a01b0316908301526102408082015161ffff811682850152611251565b5f82825180855260208086019550808260051b8401018186015f5b848110156150f557858303601f190189528151805184528401516040858501819052815181860181905291860191606090818701905f5b818110156150de578551805163ffffffff1684528a8101516001600160401b03168b850152858101516001600160a01b03908116878601528582015115158686015260808083015165ffffffffffff169086015260a09182015116908401529489019460c09092019160010161506d565b50509b87019b955050509184019150600101615036565b5090979650505050505050565b5f815180845260208085019450602084015f5b8381101561514b57815180516001600160e01b0316885283015163ffffffff168388015260409096019590820190600101615115565b509495945050505050565b5f82825180855260208086019550808260051b8401018186015f5b848110156150f557858303601f19018952815180516001600160a01b039081168552858201511685850152604080820151608082870181905291906151b883880182615102565b92505050606080830151925085820381870152506151d68183615102565b9a86019a9450505090830190600101615171565b5f82825180855260208086019550808260051b8401018186015f5b848110156150f557601f198684030189528151805165ffffffffffff1684528481015163ffffffff908116868601526040808301516001600160701b031690860152606080830151909116908501526080808201516001600160a01b03169085015260a080820151610340919061527e82880182614ee3565b505060c0820151816103008701526152988287018261501b565b91505060e082015191508481036103208601526152b58183615156565b9a86019a9450505090830190600101615205565b5f808335601e198436030181126152de575f80fd5b83016020810192503590506001600160401b038111156152fc575f80fd5b606081023603821315613929575f80fd5b5f8235603e19833603018112614893575f80fd5b5f8383855260208086019550808560051b830101845f5b878110156150f557848303601f19018952615353828861530d565b6040808501823561536381613857565b6001600160a01b03818116885261537c858a01866152c9565b898b018690529384905292945060609291508288015f5b868110156153e35783356153a681613857565b8316825260ff6153b7858d01613ef1565b168b830152858401356153c981613f01565b63ffffffff16828701529284019290840190600101615393565b509d89019d9750505093860193505050600101615338565b6001600160a01b038716815260a0602082018190525f9061541f9083018789613fac565b828103604084015261543181876151ea565b90508281036060840152615446818587615321565b83810360809094019390935250505f81526020019695505050505050565b634e487b7160e01b5f52600160045260245ffd5b848152608060208201525f61549060808301866151ea565b82810360408401526154a3818587615321565b83810360609094019390935250505f8152602001949350505050565b868152608060208201525f6154d8608083018789613fac565b82810360408401526154eb818688613fac565b915050826060830152979650505050505050565b5f808335601e19843603018112615514575f80fd5b8301803591506001600160401b0382111561552d575f80fd5b6020019150600781901b3603821315613929575f80fd5b5f60208284031215615554575f80fd5b6109bc826148bd565b5f808335601e19843603018112615572575f80fd5b83016020810192503590506001600160401b03811115615590575f80fd5b8060051b3603821315613929575f80fd5b8183525f60208085019450825f5b8581101561514b5781356155c281613f01565b63ffffffff1687526001600160681b036155dd83850161489c565b16838801526040808301356155f181613857565b6001600160a01b03169088015260609687019691909101906001016155af565b5f808335601e19843603018112615626575f80fd5b83016020810192503590506001600160401b03811115615644575f80fd5b60c081023603821315613929575f80fd5b80356001600160401b0381168114613879575f80fd5b8183525f60208085019450825f5b8581101561514b57813561568c81613f01565b63ffffffff1687526001600160401b036156a7838501615655565b16838801526040808301356156bb81613857565b6001600160a01b0316908801526060828101356156d7816143fe565b1515908801526080828101356156ec816142e2565b65ffffffffffff169088015260a061570583820161386e565b6001600160a01b03169088015260c0968701969190910190600101615679565b5f8383855260208086019550808560051b830101845f5b878110156150f557848303601f1901895281353688900361011e19018112615762575f80fd5b870161012061577f8561577484614d94565b64ffffffffff169052565b61578b868301836152c9565b828888015261579d83880182846155a1565b9250505060406157ae8184016148b2565b61ffff169086015260606157c483820184615611565b878403838901526157d684828461566b565b935050505060806157e8818401614dc1565b6001600160701b03169086015260a0615802838201613f12565b63ffffffff169086015260c0615819838201613f12565b63ffffffff169086015260e06158308382016148b2565b61ffff16908601526101006158468382016148b2565b61ffff1695019490945250978301979083019060010161573c565b5f808335601e19843603018112615876575f80fd5b83016020810192503590506001600160401b03811115615894575f80fd5b8060061b3603821315613929575f80fd5b8183525f60208085019450825f5b8581101561514b5781356158c681613857565b6001600160a01b03908116885282840135906158e182613857565b168784015260409687019691909101906001016158b3565b5f808335601e1984360301811261590e575f80fd5b83016020810192503590506001600160401b0381111561592c575f80fd5b8060071b3603821315613929575f80fd5b5f6040808401833561594e81613857565b6001600160a01b03908116865260209061596a868301876158f9565b604060208a0152938490526060938489015f5b828110156159e657833561599081613857565b8516825262ffffff6159a38588016148bd565b1686830152878401356159b581613f01565b63ffffffff908116838a015284880135906159cf82613f01565b16828801526080938401939091019060010161597d565b509998505050505050505050565b5f8383855260208086019550808560051b830101845f5b878110156150f557848303601f19018952615a26828861530d565b60408085018235615a3681613857565b6001600160a01b038181168852615a4f858a01866158f9565b898b018690529384905292945060609291508288015f5b86811015615ac1578335615a7981613857565b83168252838b0135615a8a81613f01565b63ffffffff16828c015283860135615aa181613857565b831682870152838501358583015260809384019390910190600101615a66565b509d89019d9750505093860193505050600101615a0b565b5f615ae4828361555d565b60408552615af66040860182846159f4565b915050602083013560208501528091505092915050565b60e081525f615b1c8a8b61487f565b60c060e0840152615b2d8182613f6b565b60806101a0860152615b4461022086018284613fac565b915050615b546020830183613f6b565b61019f1980878503016101c0880152615b6e848385613fac565b9350615b7d6040860186613f6b565b9350915080878503016101e088015250615b98838383613fac565b925050506060820135610200850152615bb360208d01613f12565b63ffffffff81166101008601529150615bce60408d0161386e565b6001600160a01b0381166101208601529150615bed60608d018d61555d565b925060df198086840301610140870152615c08838584615725565b9350615c1760808f018f615861565b93509150808685030161016087015250615c328383836158a5565b92505050615c4260a08c0161386e565b6001600160a01b03166101808401528281036020840152615c64818a8c615321565b90508281036040840152615c78818961593d565b90508281036060840152615c8c8188615ad9565b90508281036080840152615ca081876151ea565b9150508360a083015261468f60c08301846001600160a01b03169052565b838152606060208201525f615cd66060830185615ad9565b905060018060a01b0383166040830152949350505050565b848152836020820152606060408201525f6137676060830184866159f4565b5f6020808385031215615d1e575f80fd5b82516001600160401b03811115615d33575f80fd5b8301601f81018513615d43575f80fd5b8051615d516141ab82614139565b81815260059190911b82018301908381019087831115615d6f575f80fd5b928401925b828410156146dd578351615d8781613857565b82529284019290840190615d74565b634e487b7160e01b5f52601260045260245ffd5b5f8235609e19833603018112614875575f80fd5b5f815180845260208085019450602084015f5b8381101561514b5781516001600160a01b031687529582019590820190600101615dd1565b5f60208083018184528085518083526040925060408601915060408160051b8701018488015f5b83811015615eac57888303603f19018552815180516001600160a01b031684528781015162ffffff1688850152868101516001600160681b03168785015260608082015163ffffffff908116918601919091526080808301519091169085015260a09081015160c091850182905290615e9881860183615dbe565b968901969450505090860190600101615e1d565b509098975050505050505050565b5f808335601e19843603018112615ecf575f80fd5b8301803591506001600160401b03821115615ee8575f80fd5b6020019150600681901b3603821315613929575f80fd5b5f60c08284031215615f0f575f80fd5b60405160c081018181106001600160401b0382111715615f3157615f31613e9f565b6040528235615f3f81613f01565b8152615f4d60208401615655565b60208201526040830135615f6081613857565b60408201526060830135615f73816143fe565b60608201526080830135615f86816142e2565b608082015260a0830135615f9981613857565b60a08201529392505050565b5f8235603e19833603018112614875575f80fdfea26469706673582212208c87b62ed907be70afa676a632037e746675da0ed39c0e9cac5c975436ef757b64736f6c63430008170033",
	"deployedBytecode": "0x",
	"gitCommit": "f28364e7212f182478589ca34815d8a061ecb0de"
}