{
	"_format": "sphinx-sol-ct-artifact-1",
	"merkleRoot": "0x6d08b335de2540f402fc631f7ca3092cc4e63af4b811bf5f517a33aacfff85ef",
	"address": "0x7156009bfcd164799f79a581066c09f27346d8a3",
	"sourceName": "src/REVDeployer.sol",
	"contractName": "REVDeployer",
	"chainId": "0x14a34",
	"abi": [
		{
			"inputs": [
				{
					"internalType": "contract IJBController",
					"name": "controller",
					"type": "address"
				},
				{
					"internalType": "contract IJBSuckerRegistry",
					"name": "suckerRegistry",
					"type": "address"
				},
				{
					"internalType": "uint256",
					"name": "feeRevnetId",
					"type": "uint256"
				},
				{
					"internalType": "contract IJB721TiersHookDeployer",
					"name": "hookDeployer",
					"type": "address"
				},
				{
					"internalType": "contract CTPublisher",
					"name": "publisher",
					"type": "address"
				},
				{
					"internalType": "address",
					"name": "trustedForwarder",
					"type": "address"
				}
			],
			"stateMutability": "nonpayable",
			"type": "constructor"
		},
		{
			"inputs": [],
			"name": "CASH_OUT_DELAY",
			"outputs": [
				{
					"internalType": "uint256",
					"name": "",
					"type": "uint256"
				}
			],
			"stateMutability": "view",
			"type": "function"
		},
		{
			"inputs": [],
			"name": "CONTROLLER",
			"outputs": [
				{
					"internalType": "contract IJBController",
					"name": "",
					"type": "address"
				}
			],
			"stateMutability": "view",
			"type": "function"
		},
		{
			"inputs": [],
			"name": "DIRECTORY",
			"outputs": [
				{
					"internalType": "contract IJBDirectory",
					"name": "",
					"type": "address"
				}
			],
			"stateMutability": "view",
			"type": "function"
		},
		{
			"inputs": [],
			"name": "FEE",
			"outputs": [
				{
					"internalType": "uint256",
					"name": "",
					"type": "uint256"
				}
			],
			"stateMutability": "view",
			"type": "function"
		},
		{
			"inputs": [],
			"name": "FEE_REVNET_ID",
			"outputs": [
				{
					"internalType": "uint256",
					"name": "",
					"type": "uint256"
				}
			],
			"stateMutability": "view",
			"type": "function"
		},
		{
			"inputs": [],
			"name": "HOOK_DEPLOYER",
			"outputs": [
				{
					"internalType": "contract IJB721TiersHookDeployer",
					"name": "",
					"type": "address"
				}
			],
			"stateMutability": "view",
			"type": "function"
		},
		{
			"inputs": [],
			"name": "PERMISSIONS",
			"outputs": [
				{
					"internalType": "contract IJBPermissions",
					"name": "",
					"type": "address"
				}
			],
			"stateMutability": "view",
			"type": "function"
		},
		{
			"inputs": [],
			"name": "PROJECTS",
			"outputs": [
				{
					"internalType": "contract IJBProjects",
					"name": "",
					"type": "address"
				}
			],
			"stateMutability": "view",
			"type": "function"
		},
		{
			"inputs": [],
			"name": "PUBLISHER",
			"outputs": [
				{
					"internalType": "contract CTPublisher",
					"name": "",
					"type": "address"
				}
			],
			"stateMutability": "view",
			"type": "function"
		},
		{
			"inputs": [],
			"name": "SUCKER_REGISTRY",
			"outputs": [
				{
					"internalType": "contract IJBSuckerRegistry",
					"name": "",
					"type": "address"
				}
			],
			"stateMutability": "view",
			"type": "function"
		},
		{
			"inputs": [
				{
					"components": [
						{
							"internalType": "address",
							"name": "holder",
							"type": "address"
						},
						{
							"internalType": "uint256",
							"name": "projectId",
							"type": "uint256"
						},
						{
							"internalType": "uint256",
							"name": "rulesetId",
							"type": "uint256"
						},
						{
							"internalType": "uint256",
							"name": "cashOutCount",
							"type": "uint256"
						},
						{
							"components": [
								{
									"internalType": "address",
									"name": "token",
									"type": "address"
								},
								{
									"internalType": "uint8",
									"name": "decimals",
									"type": "uint8"
								},
								{
									"internalType": "uint32",
									"name": "currency",
									"type": "uint32"
								},
								{
									"internalType": "uint256",
									"name": "value",
									"type": "uint256"
								}
							],
							"internalType": "struct JBTokenAmount",
							"name": "reclaimedAmount",
							"type": "tuple"
						},
						{
							"components": [
								{
									"internalType": "address",
									"name": "token",
									"type": "address"
								},
								{
									"internalType": "uint8",
									"name": "decimals",
									"type": "uint8"
								},
								{
									"internalType": "uint32",
									"name": "currency",
									"type": "uint32"
								},
								{
									"internalType": "uint256",
									"name": "value",
									"type": "uint256"
								}
							],
							"internalType": "struct JBTokenAmount",
							"name": "forwardedAmount",
							"type": "tuple"
						},
						{
							"internalType": "uint256",
							"name": "cashOutTaxRate",
							"type": "uint256"
						},
						{
							"internalType": "address payable",
							"name": "beneficiary",
							"type": "address"
						},
						{
							"internalType": "bytes",
							"name": "hookMetadata",
							"type": "bytes"
						},
						{
							"internalType": "bytes",
							"name": "cashOutMetadata",
							"type": "bytes"
						}
					],
					"internalType": "struct JBAfterCashOutRecordedContext",
					"name": "context",
					"type": "tuple"
				}
			],
			"name": "afterCashOutRecordedWith",
			"outputs": [],
			"stateMutability": "payable",
			"type": "function"
		},
		{
			"inputs": [
				{
					"internalType": "uint256",
					"name": "revnetId",
					"type": "uint256"
				},
				{
					"internalType": "uint256",
					"name": "stageId",
					"type": "uint256"
				},
				{
					"internalType": "address",
					"name": "beneficiary",
					"type": "address"
				}
			],
			"name": "amountToAutoIssue",
			"outputs": [
				{
					"internalType": "uint256",
					"name": "",
					"type": "uint256"
				}
			],
			"stateMutability": "view",
			"type": "function"
		},
		{
			"inputs": [
				{
					"internalType": "uint256",
					"name": "revnetId",
					"type": "uint256"
				},
				{
					"internalType": "uint256",
					"name": "stageId",
					"type": "uint256"
				},
				{
					"internalType": "address",
					"name": "beneficiary",
					"type": "address"
				}
			],
			"name": "autoIssueFor",
			"outputs": [],
			"stateMutability": "nonpayable",
			"type": "function"
		},
		{
			"inputs": [
				{
					"components": [
						{
							"internalType": "address",
							"name": "terminal",
							"type": "address"
						},
						{
							"internalType": "address",
							"name": "holder",
							"type": "address"
						},
						{
							"internalType": "uint256",
							"name": "projectId",
							"type": "uint256"
						},
						{
							"internalType": "uint256",
							"name": "rulesetId",
							"type": "uint256"
						},
						{
							"internalType": "uint256",
							"name": "cashOutCount",
							"type": "uint256"
						},
						{
							"internalType": "uint256",
							"name": "totalSupply",
							"type": "uint256"
						},
						{
							"components": [
								{
									"internalType": "address",
									"name": "token",
									"type": "address"
								},
								{
									"internalType": "uint8",
									"name": "decimals",
									"type": "uint8"
								},
								{
									"internalType": "uint32",
									"name": "currency",
									"type": "uint32"
								},
								{
									"internalType": "uint256",
									"name": "value",
									"type": "uint256"
								}
							],
							"internalType": "struct JBTokenAmount",
							"name": "surplus",
							"type": "tuple"
						},
						{
							"internalType": "bool",
							"name": "useTotalSurplus",
							"type": "bool"
						},
						{
							"internalType": "uint256",
							"name": "cashOutTaxRate",
							"type": "uint256"
						},
						{
							"internalType": "bytes",
							"name": "metadata",
							"type": "bytes"
						}
					],
					"internalType": "struct JBBeforeCashOutRecordedContext",
					"name": "context",
					"type": "tuple"
				}
			],
			"name": "beforeCashOutRecordedWith",
			"outputs": [
				{
					"internalType": "uint256",
					"name": "cashOutTaxRate",
					"type": "uint256"
				},
				{
					"internalType": "uint256",
					"name": "cashOutCount",
					"type": "uint256"
				},
				{
					"internalType": "uint256",
					"name": "totalSupply",
					"type": "uint256"
				},
				{
					"components": [
						{
							"internalType": "contract IJBCashOutHook",
							"name": "hook",
							"type": "address"
						},
						{
							"internalType": "uint256",
							"name": "amount",
							"type": "uint256"
						},
						{
							"internalType": "bytes",
							"name": "metadata",
							"type": "bytes"
						}
					],
					"internalType": "struct JBCashOutHookSpecification[]",
					"name": "hookSpecifications",
					"type": "tuple[]"
				}
			],
			"stateMutability": "view",
			"type": "function"
		},
		{
			"inputs": [
				{
					"components": [
						{
							"internalType": "address",
							"name": "terminal",
							"type": "address"
						},
						{
							"internalType": "address",
							"name": "payer",
							"type": "address"
						},
						{
							"components": [
								{
									"internalType": "address",
									"name": "token",
									"type": "address"
								},
								{
									"internalType": "uint8",
									"name": "decimals",
									"type": "uint8"
								},
								{
									"internalType": "uint32",
									"name": "currency",
									"type": "uint32"
								},
								{
									"internalType": "uint256",
									"name": "value",
									"type": "uint256"
								}
							],
							"internalType": "struct JBTokenAmount",
							"name": "amount",
							"type": "tuple"
						},
						{
							"internalType": "uint256",
							"name": "projectId",
							"type": "uint256"
						},
						{
							"internalType": "uint256",
							"name": "rulesetId",
							"type": "uint256"
						},
						{
							"internalType": "address",
							"name": "beneficiary",
							"type": "address"
						},
						{
							"internalType": "uint256",
							"name": "weight",
							"type": "uint256"
						},
						{
							"internalType": "uint256",
							"name": "reservedPercent",
							"type": "uint256"
						},
						{
							"internalType": "bytes",
							"name": "metadata",
							"type": "bytes"
						}
					],
					"internalType": "struct JBBeforePayRecordedContext",
					"name": "context",
					"type": "tuple"
				}
			],
			"name": "beforePayRecordedWith",
			"outputs": [
				{
					"internalType": "uint256",
					"name": "weight",
					"type": "uint256"
				},
				{
					"components": [
						{
							"internalType": "contract IJBPayHook",
							"name": "hook",
							"type": "address"
						},
						{
							"internalType": "uint256",
							"name": "amount",
							"type": "uint256"
						},
						{
							"internalType": "bytes",
							"name": "metadata",
							"type": "bytes"
						}
					],
					"internalType": "struct JBPayHookSpecification[]",
					"name": "hookSpecifications",
					"type": "tuple[]"
				}
			],
			"stateMutability": "view",
			"type": "function"
		},
		{
			"inputs": [
				{
					"internalType": "uint256",
					"name": "revnetId",
					"type": "uint256"
				}
			],
			"name": "buybackHookOf",
			"outputs": [
				{
					"internalType": "contract IJBRulesetDataHook",
					"name": "buybackHook",
					"type": "address"
				}
			],
			"stateMutability": "view",
			"type": "function"
		},
		{
			"inputs": [
				{
					"internalType": "uint256",
					"name": "revnetId",
					"type": "uint256"
				}
			],
			"name": "cashOutDelayOf",
			"outputs": [
				{
					"internalType": "uint256",
					"name": "cashOutDelay",
					"type": "uint256"
				}
			],
			"stateMutability": "view",
			"type": "function"
		},
		{
			"inputs": [
				{
					"internalType": "uint256",
					"name": "revnetId",
					"type": "uint256"
				},
				{
					"components": [
						{
							"components": [
								{
									"internalType": "string",
									"name": "name",
									"type": "string"
								},
								{
									"internalType": "string",
									"name": "ticker",
									"type": "string"
								},
								{
									"internalType": "string",
									"name": "uri",
									"type": "string"
								},
								{
									"internalType": "bytes32",
									"name": "salt",
									"type": "bytes32"
								}
							],
							"internalType": "struct REVDescription",
							"name": "description",
							"type": "tuple"
						},
						{
							"internalType": "uint32",
							"name": "baseCurrency",
							"type": "uint32"
						},
						{
							"internalType": "address",
							"name": "splitOperator",
							"type": "address"
						},
						{
							"components": [
								{
									"internalType": "uint48",
									"name": "startsAtOrAfter",
									"type": "uint48"
								},
								{
									"components": [
										{
											"internalType": "uint32",
											"name": "chainId",
											"type": "uint32"
										},
										{
											"internalType": "uint104",
											"name": "count",
											"type": "uint104"
										},
										{
											"internalType": "address",
											"name": "beneficiary",
											"type": "address"
										}
									],
									"internalType": "struct REVAutoIssuance[]",
									"name": "autoIssuances",
									"type": "tuple[]"
								},
								{
									"internalType": "uint16",
									"name": "splitPercent",
									"type": "uint16"
								},
								{
									"components": [
										{
											"internalType": "uint32",
											"name": "percent",
											"type": "uint32"
										},
										{
											"internalType": "uint64",
											"name": "projectId",
											"type": "uint64"
										},
										{
											"internalType": "address payable",
											"name": "beneficiary",
											"type": "address"
										},
										{
											"internalType": "bool",
											"name": "preferAddToBalance",
											"type": "bool"
										},
										{
											"internalType": "uint48",
											"name": "lockedUntil",
											"type": "uint48"
										},
										{
											"internalType": "contract IJBSplitHook",
											"name": "hook",
											"type": "address"
										}
									],
									"internalType": "struct JBSplit[]",
									"name": "splits",
									"type": "tuple[]"
								},
								{
									"internalType": "uint112",
									"name": "initialIssuance",
									"type": "uint112"
								},
								{
									"internalType": "uint32",
									"name": "issuanceCutFrequency",
									"type": "uint32"
								},
								{
									"internalType": "uint32",
									"name": "issuanceCutPercent",
									"type": "uint32"
								},
								{
									"internalType": "uint16",
									"name": "cashOutTaxRate",
									"type": "uint16"
								},
								{
									"internalType": "uint16",
									"name": "extraMetadata",
									"type": "uint16"
								}
							],
							"internalType": "struct REVStageConfig[]",
							"name": "stageConfigurations",
							"type": "tuple[]"
						},
						{
							"components": [
								{
									"internalType": "address",
									"name": "token",
									"type": "address"
								},
								{
									"internalType": "contract IJBPayoutTerminal",
									"name": "terminal",
									"type": "address"
								}
							],
							"internalType": "struct REVLoanSource[]",
							"name": "loanSources",
							"type": "tuple[]"
						},
						{
							"internalType": "address",
							"name": "loans",
							"type": "address"
						}
					],
					"internalType": "struct REVConfig",
					"name": "configuration",
					"type": "tuple"
				},
				{
					"components": [
						{
							"internalType": "contract IJBTerminal",
							"name": "terminal",
							"type": "address"
						},
						{
							"components": [
								{
									"internalType": "address",
									"name": "token",
									"type": "address"
								},
								{
									"internalType": "uint8",
									"name": "decimals",
									"type": "uint8"
								},
								{
									"internalType": "uint32",
									"name": "currency",
									"type": "uint32"
								}
							],
							"internalType": "struct JBAccountingContext[]",
							"name": "accountingContextsToAccept",
							"type": "tuple[]"
						}
					],
					"internalType": "struct JBTerminalConfig[]",
					"name": "terminalConfigurations",
					"type": "tuple[]"
				},
				{
					"components": [
						{
							"internalType": "contract IJBBuybackHook",
							"name": "hook",
							"type": "address"
						},
						{
							"components": [
								{
									"internalType": "address",
									"name": "token",
									"type": "address"
								},
								{
									"internalType": "uint24",
									"name": "fee",
									"type": "uint24"
								},
								{
									"internalType": "uint32",
									"name": "twapWindow",
									"type": "uint32"
								},
								{
									"internalType": "uint32",
									"name": "twapSlippageTolerance",
									"type": "uint32"
								}
							],
							"internalType": "struct REVBuybackPoolConfig[]",
							"name": "poolConfigurations",
							"type": "tuple[]"
						}
					],
					"internalType": "struct REVBuybackHookConfig",
					"name": "buybackHookConfiguration",
					"type": "tuple"
				},
				{
					"components": [
						{
							"components": [
								{
									"internalType": "contract IJBSuckerDeployer",
									"name": "deployer",
									"type": "address"
								},
								{
									"components": [
										{
											"internalType": "address",
											"name": "localToken",
											"type": "address"
										},
										{
											"internalType": "uint32",
											"name": "minGas",
											"type": "uint32"
										},
										{
											"internalType": "address",
											"name": "remoteToken",
											"type": "address"
										},
										{
											"internalType": "uint256",
											"name": "minBridgeAmount",
											"type": "uint256"
										}
									],
									"internalType": "struct JBTokenMapping[]",
									"name": "mappings",
									"type": "tuple[]"
								}
							],
							"internalType": "struct JBSuckerDeployerConfig[]",
							"name": "deployerConfigurations",
							"type": "tuple[]"
						},
						{
							"internalType": "bytes32",
							"name": "salt",
							"type": "bytes32"
						}
					],
					"internalType": "struct REVSuckerDeploymentConfig",
					"name": "suckerDeploymentConfiguration",
					"type": "tuple"
				}
			],
			"name": "deployFor",
			"outputs": [
				{
					"internalType": "uint256",
					"name": "",
					"type": "uint256"
				}
			],
			"stateMutability": "nonpayable",
			"type": "function"
		},
		{
			"inputs": [
				{
					"internalType": "uint256",
					"name": "revnetId",
					"type": "uint256"
				},
				{
					"components": [
						{
							"components": [
								{
									"internalType": "contract IJBSuckerDeployer",
									"name": "deployer",
									"type": "address"
								},
								{
									"components": [
										{
											"internalType": "address",
											"name": "localToken",
											"type": "address"
										},
										{
											"internalType": "uint32",
											"name": "minGas",
											"type": "uint32"
										},
										{
											"internalType": "address",
											"name": "remoteToken",
											"type": "address"
										},
										{
											"internalType": "uint256",
											"name": "minBridgeAmount",
											"type": "uint256"
										}
									],
									"internalType": "struct JBTokenMapping[]",
									"name": "mappings",
									"type": "tuple[]"
								}
							],
							"internalType": "struct JBSuckerDeployerConfig[]",
							"name": "deployerConfigurations",
							"type": "tuple[]"
						},
						{
							"internalType": "bytes32",
							"name": "salt",
							"type": "bytes32"
						}
					],
					"internalType": "struct REVSuckerDeploymentConfig",
					"name": "suckerDeploymentConfiguration",
					"type": "tuple"
				}
			],
			"name": "deploySuckersFor",
			"outputs": [
				{
					"internalType": "address[]",
					"name": "suckers",
					"type": "address[]"
				}
			],
			"stateMutability": "nonpayable",
			"type": "function"
		},
		{
			"inputs": [
				{
					"internalType": "uint256",
					"name": "revnetId",
					"type": "uint256"
				},
				{
					"components": [
						{
							"components": [
								{
									"internalType": "string",
									"name": "name",
									"type": "string"
								},
								{
									"internalType": "string",
									"name": "ticker",
									"type": "string"
								},
								{
									"internalType": "string",
									"name": "uri",
									"type": "string"
								},
								{
									"internalType": "bytes32",
									"name": "salt",
									"type": "bytes32"
								}
							],
							"internalType": "struct REVDescription",
							"name": "description",
							"type": "tuple"
						},
						{
							"internalType": "uint32",
							"name": "baseCurrency",
							"type": "uint32"
						},
						{
							"internalType": "address",
							"name": "splitOperator",
							"type": "address"
						},
						{
							"components": [
								{
									"internalType": "uint48",
									"name": "startsAtOrAfter",
									"type": "uint48"
								},
								{
									"components": [
										{
											"internalType": "uint32",
											"name": "chainId",
											"type": "uint32"
										},
										{
											"internalType": "uint104",
											"name": "count",
											"type": "uint104"
										},
										{
											"internalType": "address",
											"name": "beneficiary",
											"type": "address"
										}
									],
									"internalType": "struct REVAutoIssuance[]",
									"name": "autoIssuances",
									"type": "tuple[]"
								},
								{
									"internalType": "uint16",
									"name": "splitPercent",
									"type": "uint16"
								},
								{
									"components": [
										{
											"internalType": "uint32",
											"name": "percent",
											"type": "uint32"
										},
										{
											"internalType": "uint64",
											"name": "projectId",
											"type": "uint64"
										},
										{
											"internalType": "address payable",
											"name": "beneficiary",
											"type": "address"
										},
										{
											"internalType": "bool",
											"name": "preferAddToBalance",
											"type": "bool"
										},
										{
											"internalType": "uint48",
											"name": "lockedUntil",
											"type": "uint48"
										},
										{
											"internalType": "contract IJBSplitHook",
											"name": "hook",
											"type": "address"
										}
									],
									"internalType": "struct JBSplit[]",
									"name": "splits",
									"type": "tuple[]"
								},
								{
									"internalType": "uint112",
									"name": "initialIssuance",
									"type": "uint112"
								},
								{
									"internalType": "uint32",
									"name": "issuanceCutFrequency",
									"type": "uint32"
								},
								{
									"internalType": "uint32",
									"name": "issuanceCutPercent",
									"type": "uint32"
								},
								{
									"internalType": "uint16",
									"name": "cashOutTaxRate",
									"type": "uint16"
								},
								{
									"internalType": "uint16",
									"name": "extraMetadata",
									"type": "uint16"
								}
							],
							"internalType": "struct REVStageConfig[]",
							"name": "stageConfigurations",
							"type": "tuple[]"
						},
						{
							"components": [
								{
									"internalType": "address",
									"name": "token",
									"type": "address"
								},
								{
									"internalType": "contract IJBPayoutTerminal",
									"name": "terminal",
									"type": "address"
								}
							],
							"internalType": "struct REVLoanSource[]",
							"name": "loanSources",
							"type": "tuple[]"
						},
						{
							"internalType": "address",
							"name": "loans",
							"type": "address"
						}
					],
					"internalType": "struct REVConfig",
					"name": "configuration",
					"type": "tuple"
				},
				{
					"components": [
						{
							"internalType": "contract IJBTerminal",
							"name": "terminal",
							"type": "address"
						},
						{
							"components": [
								{
									"internalType": "address",
									"name": "token",
									"type": "address"
								},
								{
									"internalType": "uint8",
									"name": "decimals",
									"type": "uint8"
								},
								{
									"internalType": "uint32",
									"name": "currency",
									"type": "uint32"
								}
							],
							"internalType": "struct JBAccountingContext[]",
							"name": "accountingContextsToAccept",
							"type": "tuple[]"
						}
					],
					"internalType": "struct JBTerminalConfig[]",
					"name": "terminalConfigurations",
					"type": "tuple[]"
				},
				{
					"components": [
						{
							"internalType": "contract IJBBuybackHook",
							"name": "hook",
							"type": "address"
						},
						{
							"components": [
								{
									"internalType": "address",
									"name": "token",
									"type": "address"
								},
								{
									"internalType": "uint24",
									"name": "fee",
									"type": "uint24"
								},
								{
									"internalType": "uint32",
									"name": "twapWindow",
									"type": "uint32"
								},
								{
									"internalType": "uint32",
									"name": "twapSlippageTolerance",
									"type": "uint32"
								}
							],
							"internalType": "struct REVBuybackPoolConfig[]",
							"name": "poolConfigurations",
							"type": "tuple[]"
						}
					],
					"internalType": "struct REVBuybackHookConfig",
					"name": "buybackHookConfiguration",
					"type": "tuple"
				},
				{
					"components": [
						{
							"components": [
								{
									"internalType": "contract IJBSuckerDeployer",
									"name": "deployer",
									"type": "address"
								},
								{
									"components": [
										{
											"internalType": "address",
											"name": "localToken",
											"type": "address"
										},
										{
											"internalType": "uint32",
											"name": "minGas",
											"type": "uint32"
										},
										{
											"internalType": "address",
											"name": "remoteToken",
											"type": "address"
										},
										{
											"internalType": "uint256",
											"name": "minBridgeAmount",
											"type": "uint256"
										}
									],
									"internalType": "struct JBTokenMapping[]",
									"name": "mappings",
									"type": "tuple[]"
								}
							],
							"internalType": "struct JBSuckerDeployerConfig[]",
							"name": "deployerConfigurations",
							"type": "tuple[]"
						},
						{
							"internalType": "bytes32",
							"name": "salt",
							"type": "bytes32"
						}
					],
					"internalType": "struct REVSuckerDeploymentConfig",
					"name": "suckerDeploymentConfiguration",
					"type": "tuple"
				},
				{
					"components": [
						{
							"components": [
								{
									"internalType": "string",
									"name": "name",
									"type": "string"
								},
								{
									"internalType": "string",
									"name": "symbol",
									"type": "string"
								},
								{
									"internalType": "string",
									"name": "baseUri",
									"type": "string"
								},
								{
									"internalType": "contract IJB721TokenUriResolver",
									"name": "tokenUriResolver",
									"type": "address"
								},
								{
									"internalType": "string",
									"name": "contractUri",
									"type": "string"
								},
								{
									"components": [
										{
											"components": [
												{
													"internalType": "uint104",
													"name": "price",
													"type": "uint104"
												},
												{
													"internalType": "uint32",
													"name": "initialSupply",
													"type": "uint32"
												},
												{
													"internalType": "uint32",
													"name": "votingUnits",
													"type": "uint32"
												},
												{
													"internalType": "uint16",
													"name": "reserveFrequency",
													"type": "uint16"
												},
												{
													"internalType": "address",
													"name": "reserveBeneficiary",
													"type": "address"
												},
												{
													"internalType": "bytes32",
													"name": "encodedIPFSUri",
													"type": "bytes32"
												},
												{
													"internalType": "uint24",
													"name": "category",
													"type": "uint24"
												},
												{
													"internalType": "uint8",
													"name": "discountPercent",
													"type": "uint8"
												},
												{
													"internalType": "bool",
													"name": "allowOwnerMint",
													"type": "bool"
												},
												{
													"internalType": "bool",
													"name": "useReserveBeneficiaryAsDefault",
													"type": "bool"
												},
												{
													"internalType": "bool",
													"name": "transfersPausable",
													"type": "bool"
												},
												{
													"internalType": "bool",
													"name": "useVotingUnits",
													"type": "bool"
												},
												{
													"internalType": "bool",
													"name": "cannotBeRemoved",
													"type": "bool"
												},
												{
													"internalType": "bool",
													"name": "cannotIncreaseDiscountPercent",
													"type": "bool"
												}
											],
											"internalType": "struct JB721TierConfig[]",
											"name": "tiers",
											"type": "tuple[]"
										},
										{
											"internalType": "uint32",
											"name": "currency",
											"type": "uint32"
										},
										{
											"internalType": "uint8",
											"name": "decimals",
											"type": "uint8"
										},
										{
											"internalType": "contract IJBPrices",
											"name": "prices",
											"type": "address"
										}
									],
									"internalType": "struct JB721InitTiersConfig",
									"name": "tiersConfig",
									"type": "tuple"
								},
								{
									"internalType": "address",
									"name": "reserveBeneficiary",
									"type": "address"
								},
								{
									"components": [
										{
											"internalType": "bool",
											"name": "noNewTiersWithReserves",
											"type": "bool"
										},
										{
											"internalType": "bool",
											"name": "noNewTiersWithVotes",
											"type": "bool"
										},
										{
											"internalType": "bool",
											"name": "noNewTiersWithOwnerMinting",
											"type": "bool"
										},
										{
											"internalType": "bool",
											"name": "preventOverspending",
											"type": "bool"
										}
									],
									"internalType": "struct JB721TiersHookFlags",
									"name": "flags",
									"type": "tuple"
								}
							],
							"internalType": "struct JBDeploy721TiersHookConfig",
							"name": "baseline721HookConfiguration",
							"type": "tuple"
						},
						{
							"internalType": "bytes32",
							"name": "salt",
							"type": "bytes32"
						},
						{
							"internalType": "bool",
							"name": "splitOperatorCanAdjustTiers",
							"type": "bool"
						},
						{
							"internalType": "bool",
							"name": "splitOperatorCanUpdateMetadata",
							"type": "bool"
						},
						{
							"internalType": "bool",
							"name": "splitOperatorCanMint",
							"type": "bool"
						},
						{
							"internalType": "bool",
							"name": "splitOperatorCanIncreaseDiscountPercent",
							"type": "bool"
						}
					],
					"internalType": "struct REVDeploy721TiersHookConfig",
					"name": "tiered721HookConfiguration",
					"type": "tuple"
				},
				{
					"components": [
						{
							"internalType": "uint24",
							"name": "category",
							"type": "uint24"
						},
						{
							"internalType": "uint104",
							"name": "minimumPrice",
							"type": "uint104"
						},
						{
							"internalType": "uint32",
							"name": "minimumTotalSupply",
							"type": "uint32"
						},
						{
							"internalType": "uint32",
							"name": "maximumTotalSupply",
							"type": "uint32"
						},
						{
							"internalType": "address[]",
							"name": "allowedAddresses",
							"type": "address[]"
						}
					],
					"internalType": "struct REVCroptopAllowedPost[]",
					"name": "allowedPosts",
					"type": "tuple[]"
				}
			],
			"name": "deployWith721sFor",
			"outputs": [
				{
					"internalType": "uint256",
					"name": "",
					"type": "uint256"
				},
				{
					"internalType": "contract IJB721TiersHook",
					"name": "hook",
					"type": "address"
				}
			],
			"stateMutability": "nonpayable",
			"type": "function"
		},
		{
			"inputs": [
				{
					"internalType": "uint256",
					"name": "revnetId",
					"type": "uint256"
				},
				{
					"internalType": "address",
					"name": "addr",
					"type": "address"
				}
			],
			"name": "hasMintPermissionFor",
			"outputs": [
				{
					"internalType": "bool",
					"name": "",
					"type": "bool"
				}
			],
			"stateMutability": "view",
			"type": "function"
		},
		{
			"inputs": [
				{
					"internalType": "uint256",
					"name": "revnetId",
					"type": "uint256"
				}
			],
			"name": "hashedEncodedConfigurationOf",
			"outputs": [
				{
					"internalType": "bytes32",
					"name": "hashedEncodedConfiguration",
					"type": "bytes32"
				}
			],
			"stateMutability": "view",
			"type": "function"
		},
		{
			"inputs": [
				{
					"internalType": "uint256",
					"name": "revnetId",
					"type": "uint256"
				},
				{
					"internalType": "address",
					"name": "addr",
					"type": "address"
				}
			],
			"name": "isSplitOperatorOf",
			"outputs": [
				{
					"internalType": "bool",
					"name": "",
					"type": "bool"
				}
			],
			"stateMutability": "view",
			"type": "function"
		},
		{
			"inputs": [
				{
					"internalType": "address",
					"name": "forwarder",
					"type": "address"
				}
			],
			"name": "isTrustedForwarder",
			"outputs": [
				{
					"internalType": "bool",
					"name": "",
					"type": "bool"
				}
			],
			"stateMutability": "view",
			"type": "function"
		},
		{
			"inputs": [
				{
					"internalType": "uint256",
					"name": "revnetId",
					"type": "uint256"
				}
			],
			"name": "loansOf",
			"outputs": [
				{
					"internalType": "address",
					"name": "",
					"type": "address"
				}
			],
			"stateMutability": "view",
			"type": "function"
		},
		{
			"inputs": [
				{
					"internalType": "address",
					"name": "",
					"type": "address"
				},
				{
					"internalType": "address",
					"name": "",
					"type": "address"
				},
				{
					"internalType": "uint256",
					"name": "",
					"type": "uint256"
				},
				{
					"internalType": "bytes",
					"name": "",
					"type": "bytes"
				}
			],
			"name": "onERC721Received",
			"outputs": [
				{
					"internalType": "bytes4",
					"name": "",
					"type": "bytes4"
				}
			],
			"stateMutability": "view",
			"type": "function"
		},
		{
			"inputs": [
				{
					"internalType": "uint256",
					"name": "revnetId",
					"type": "uint256"
				},
				{
					"internalType": "address",
					"name": "newSplitOperator",
					"type": "address"
				}
			],
			"name": "setSplitOperatorOf",
			"outputs": [],
			"stateMutability": "nonpayable",
			"type": "function"
		},
		{
			"inputs": [
				{
					"internalType": "bytes4",
					"name": "interfaceId",
					"type": "bytes4"
				}
			],
			"name": "supportsInterface",
			"outputs": [
				{
					"internalType": "bool",
					"name": "",
					"type": "bool"
				}
			],
			"stateMutability": "view",
			"type": "function"
		},
		{
			"inputs": [
				{
					"internalType": "uint256",
					"name": "revnetId",
					"type": "uint256"
				}
			],
			"name": "tiered721HookOf",
			"outputs": [
				{
					"internalType": "contract IJB721TiersHook",
					"name": "tiered721Hook",
					"type": "address"
				}
			],
			"stateMutability": "view",
			"type": "function"
		},
		{
			"inputs": [],
			"name": "trustedForwarder",
			"outputs": [
				{
					"internalType": "address",
					"name": "",
					"type": "address"
				}
			],
			"stateMutability": "view",
			"type": "function"
		},
		{
			"anonymous": false,
			"inputs": [
				{
					"indexed": true,
					"internalType": "uint256",
					"name": "revnetId",
					"type": "uint256"
				},
				{
					"indexed": true,
					"internalType": "uint256",
					"name": "stageId",
					"type": "uint256"
				},
				{
					"indexed": true,
					"internalType": "address",
					"name": "beneficiary",
					"type": "address"
				},
				{
					"indexed": false,
					"internalType": "uint256",
					"name": "count",
					"type": "uint256"
				},
				{
					"indexed": false,
					"internalType": "address",
					"name": "caller",
					"type": "address"
				}
			],
			"name": "AutoIssue",
			"type": "event"
		},
		{
			"anonymous": false,
			"inputs": [
				{
					"indexed": true,
					"internalType": "uint256",
					"name": "revnetId",
					"type": "uint256"
				},
				{
					"components": [
						{
							"components": [
								{
									"internalType": "string",
									"name": "name",
									"type": "string"
								},
								{
									"internalType": "string",
									"name": "ticker",
									"type": "string"
								},
								{
									"internalType": "string",
									"name": "uri",
									"type": "string"
								},
								{
									"internalType": "bytes32",
									"name": "salt",
									"type": "bytes32"
								}
							],
							"internalType": "struct REVDescription",
							"name": "description",
							"type": "tuple"
						},
						{
							"internalType": "uint32",
							"name": "baseCurrency",
							"type": "uint32"
						},
						{
							"internalType": "address",
							"name": "splitOperator",
							"type": "address"
						},
						{
							"components": [
								{
									"internalType": "uint48",
									"name": "startsAtOrAfter",
									"type": "uint48"
								},
								{
									"components": [
										{
											"internalType": "uint32",
											"name": "chainId",
											"type": "uint32"
										},
										{
											"internalType": "uint104",
											"name": "count",
											"type": "uint104"
										},
										{
											"internalType": "address",
											"name": "beneficiary",
											"type": "address"
										}
									],
									"internalType": "struct REVAutoIssuance[]",
									"name": "autoIssuances",
									"type": "tuple[]"
								},
								{
									"internalType": "uint16",
									"name": "splitPercent",
									"type": "uint16"
								},
								{
									"components": [
										{
											"internalType": "uint32",
											"name": "percent",
											"type": "uint32"
										},
										{
											"internalType": "uint64",
											"name": "projectId",
											"type": "uint64"
										},
										{
											"internalType": "address payable",
											"name": "beneficiary",
											"type": "address"
										},
										{
											"internalType": "bool",
											"name": "preferAddToBalance",
											"type": "bool"
										},
										{
											"internalType": "uint48",
											"name": "lockedUntil",
											"type": "uint48"
										},
										{
											"internalType": "contract IJBSplitHook",
											"name": "hook",
											"type": "address"
										}
									],
									"internalType": "struct JBSplit[]",
									"name": "splits",
									"type": "tuple[]"
								},
								{
									"internalType": "uint112",
									"name": "initialIssuance",
									"type": "uint112"
								},
								{
									"internalType": "uint32",
									"name": "issuanceCutFrequency",
									"type": "uint32"
								},
								{
									"internalType": "uint32",
									"name": "issuanceCutPercent",
									"type": "uint32"
								},
								{
									"internalType": "uint16",
									"name": "cashOutTaxRate",
									"type": "uint16"
								},
								{
									"internalType": "uint16",
									"name": "extraMetadata",
									"type": "uint16"
								}
							],
							"internalType": "struct REVStageConfig[]",
							"name": "stageConfigurations",
							"type": "tuple[]"
						},
						{
							"components": [
								{
									"internalType": "address",
									"name": "token",
									"type": "address"
								},
								{
									"internalType": "contract IJBPayoutTerminal",
									"name": "terminal",
									"type": "address"
								}
							],
							"internalType": "struct REVLoanSource[]",
							"name": "loanSources",
							"type": "tuple[]"
						},
						{
							"internalType": "address",
							"name": "loans",
							"type": "address"
						}
					],
					"indexed": false,
					"internalType": "struct REVConfig",
					"name": "configuration",
					"type": "tuple"
				},
				{
					"components": [
						{
							"internalType": "contract IJBTerminal",
							"name": "terminal",
							"type": "address"
						},
						{
							"components": [
								{
									"internalType": "address",
									"name": "token",
									"type": "address"
								},
								{
									"internalType": "uint8",
									"name": "decimals",
									"type": "uint8"
								},
								{
									"internalType": "uint32",
									"name": "currency",
									"type": "uint32"
								}
							],
							"internalType": "struct JBAccountingContext[]",
							"name": "accountingContextsToAccept",
							"type": "tuple[]"
						}
					],
					"indexed": false,
					"internalType": "struct JBTerminalConfig[]",
					"name": "terminalConfigurations",
					"type": "tuple[]"
				},
				{
					"components": [
						{
							"internalType": "contract IJBBuybackHook",
							"name": "hook",
							"type": "address"
						},
						{
							"components": [
								{
									"internalType": "address",
									"name": "token",
									"type": "address"
								},
								{
									"internalType": "uint24",
									"name": "fee",
									"type": "uint24"
								},
								{
									"internalType": "uint32",
									"name": "twapWindow",
									"type": "uint32"
								},
								{
									"internalType": "uint32",
									"name": "twapSlippageTolerance",
									"type": "uint32"
								}
							],
							"internalType": "struct REVBuybackPoolConfig[]",
							"name": "poolConfigurations",
							"type": "tuple[]"
						}
					],
					"indexed": false,
					"internalType": "struct REVBuybackHookConfig",
					"name": "buybackHookConfiguration",
					"type": "tuple"
				},
				{
					"components": [
						{
							"components": [
								{
									"internalType": "contract IJBSuckerDeployer",
									"name": "deployer",
									"type": "address"
								},
								{
									"components": [
										{
											"internalType": "address",
											"name": "localToken",
											"type": "address"
										},
										{
											"internalType": "uint32",
											"name": "minGas",
											"type": "uint32"
										},
										{
											"internalType": "address",
											"name": "remoteToken",
											"type": "address"
										},
										{
											"internalType": "uint256",
											"name": "minBridgeAmount",
											"type": "uint256"
										}
									],
									"internalType": "struct JBTokenMapping[]",
									"name": "mappings",
									"type": "tuple[]"
								}
							],
							"internalType": "struct JBSuckerDeployerConfig[]",
							"name": "deployerConfigurations",
							"type": "tuple[]"
						},
						{
							"internalType": "bytes32",
							"name": "salt",
							"type": "bytes32"
						}
					],
					"indexed": false,
					"internalType": "struct REVSuckerDeploymentConfig",
					"name": "suckerDeploymentConfiguration",
					"type": "tuple"
				},
				{
					"components": [
						{
							"internalType": "uint48",
							"name": "mustStartAtOrAfter",
							"type": "uint48"
						},
						{
							"internalType": "uint32",
							"name": "duration",
							"type": "uint32"
						},
						{
							"internalType": "uint112",
							"name": "weight",
							"type": "uint112"
						},
						{
							"internalType": "uint32",
							"name": "weightCutPercent",
							"type": "uint32"
						},
						{
							"internalType": "contract IJBRulesetApprovalHook",
							"name": "approvalHook",
							"type": "address"
						},
						{
							"components": [
								{
									"internalType": "uint16",
									"name": "reservedPercent",
									"type": "uint16"
								},
								{
									"internalType": "uint16",
									"name": "cashOutTaxRate",
									"type": "uint16"
								},
								{
									"internalType": "uint32",
									"name": "baseCurrency",
									"type": "uint32"
								},
								{
									"internalType": "bool",
									"name": "pausePay",
									"type": "bool"
								},
								{
									"internalType": "bool",
									"name": "pauseCreditTransfers",
									"type": "bool"
								},
								{
									"internalType": "bool",
									"name": "allowOwnerMinting",
									"type": "bool"
								},
								{
									"internalType": "bool",
									"name": "allowSetCustomToken",
									"type": "bool"
								},
								{
									"internalType": "bool",
									"name": "allowTerminalMigration",
									"type": "bool"
								},
								{
									"internalType": "bool",
									"name": "allowSetTerminals",
									"type": "bool"
								},
								{
									"internalType": "bool",
									"name": "allowSetController",
									"type": "bool"
								},
								{
									"internalType": "bool",
									"name": "allowAddAccountingContext",
									"type": "bool"
								},
								{
									"internalType": "bool",
									"name": "allowAddPriceFeed",
									"type": "bool"
								},
								{
									"internalType": "bool",
									"name": "ownerMustSendPayouts",
									"type": "bool"
								},
								{
									"internalType": "bool",
									"name": "holdFees",
									"type": "bool"
								},
								{
									"internalType": "bool",
									"name": "useTotalSurplusForCashOuts",
									"type": "bool"
								},
								{
									"internalType": "bool",
									"name": "useDataHookForPay",
									"type": "bool"
								},
								{
									"internalType": "bool",
									"name": "useDataHookForCashOut",
									"type": "bool"
								},
								{
									"internalType": "address",
									"name": "dataHook",
									"type": "address"
								},
								{
									"internalType": "uint16",
									"name": "metadata",
									"type": "uint16"
								}
							],
							"internalType": "struct JBRulesetMetadata",
							"name": "metadata",
							"type": "tuple"
						},
						{
							"components": [
								{
									"internalType": "uint256",
									"name": "groupId",
									"type": "uint256"
								},
								{
									"components": [
										{
											"internalType": "uint32",
											"name": "percent",
											"type": "uint32"
										},
										{
											"internalType": "uint64",
											"name": "projectId",
											"type": "uint64"
										},
										{
											"internalType": "address payable",
											"name": "beneficiary",
											"type": "address"
										},
										{
											"internalType": "bool",
											"name": "preferAddToBalance",
											"type": "bool"
										},
										{
											"internalType": "uint48",
											"name": "lockedUntil",
											"type": "uint48"
										},
										{
											"internalType": "contract IJBSplitHook",
											"name": "hook",
											"type": "address"
										}
									],
									"internalType": "struct JBSplit[]",
									"name": "splits",
									"type": "tuple[]"
								}
							],
							"internalType": "struct JBSplitGroup[]",
							"name": "splitGroups",
							"type": "tuple[]"
						},
						{
							"components": [
								{
									"internalType": "address",
									"name": "terminal",
									"type": "address"
								},
								{
									"internalType": "address",
									"name": "token",
									"type": "address"
								},
								{
									"components": [
										{
											"internalType": "uint224",
											"name": "amount",
											"type": "uint224"
										},
										{
											"internalType": "uint32",
											"name": "currency",
											"type": "uint32"
										}
									],
									"internalType": "struct JBCurrencyAmount[]",
									"name": "payoutLimits",
									"type": "tuple[]"
								},
								{
									"components": [
										{
											"internalType": "uint224",
											"name": "amount",
											"type": "uint224"
										},
										{
											"internalType": "uint32",
											"name": "currency",
											"type": "uint32"
										}
									],
									"internalType": "struct JBCurrencyAmount[]",
									"name": "surplusAllowances",
									"type": "tuple[]"
								}
							],
							"internalType": "struct JBFundAccessLimitGroup[]",
							"name": "fundAccessLimitGroups",
							"type": "tuple[]"
						}
					],
					"indexed": false,
					"internalType": "struct JBRulesetConfig[]",
					"name": "rulesetConfigurations",
					"type": "tuple[]"
				},
				{
					"indexed": false,
					"internalType": "bytes32",
					"name": "encodedConfigurationHash",
					"type": "bytes32"
				},
				{
					"indexed": false,
					"internalType": "address",
					"name": "caller",
					"type": "address"
				}
			],
			"name": "DeployRevnet",
			"type": "event"
		},
		{
			"anonymous": false,
			"inputs": [
				{
					"indexed": true,
					"internalType": "uint256",
					"name": "revnetId",
					"type": "uint256"
				},
				{
					"indexed": true,
					"internalType": "bytes32",
					"name": "salt",
					"type": "bytes32"
				},
				{
					"indexed": false,
					"internalType": "bytes32",
					"name": "encodedConfigurationHash",
					"type": "bytes32"
				},
				{
					"components": [
						{
							"components": [
								{
									"internalType": "contract IJBSuckerDeployer",
									"name": "deployer",
									"type": "address"
								},
								{
									"components": [
										{
											"internalType": "address",
											"name": "localToken",
											"type": "address"
										},
										{
											"internalType": "uint32",
											"name": "minGas",
											"type": "uint32"
										},
										{
											"internalType": "address",
											"name": "remoteToken",
											"type": "address"
										},
										{
											"internalType": "uint256",
											"name": "minBridgeAmount",
											"type": "uint256"
										}
									],
									"internalType": "struct JBTokenMapping[]",
									"name": "mappings",
									"type": "tuple[]"
								}
							],
							"internalType": "struct JBSuckerDeployerConfig[]",
							"name": "deployerConfigurations",
							"type": "tuple[]"
						},
						{
							"internalType": "bytes32",
							"name": "salt",
							"type": "bytes32"
						}
					],
					"indexed": false,
					"internalType": "struct REVSuckerDeploymentConfig",
					"name": "suckerDeploymentConfiguration",
					"type": "tuple"
				},
				{
					"indexed": false,
					"internalType": "address",
					"name": "caller",
					"type": "address"
				}
			],
			"name": "DeploySuckers",
			"type": "event"
		},
		{
			"anonymous": false,
			"inputs": [
				{
					"indexed": true,
					"internalType": "uint256",
					"name": "revnetId",
					"type": "uint256"
				},
				{
					"indexed": true,
					"internalType": "address",
					"name": "newSplitOperator",
					"type": "address"
				},
				{
					"indexed": false,
					"internalType": "address",
					"name": "caller",
					"type": "address"
				}
			],
			"name": "ReplaceSplitOperator",
			"type": "event"
		},
		{
			"anonymous": false,
			"inputs": [
				{
					"indexed": false,
					"internalType": "uint256",
					"name": "revnetId",
					"type": "uint256"
				},
				{
					"indexed": false,
					"internalType": "address",
					"name": "additionalOperator",
					"type": "address"
				},
				{
					"indexed": false,
					"internalType": "uint256[]",
					"name": "permissionIds",
					"type": "uint256[]"
				},
				{
					"indexed": false,
					"internalType": "address",
					"name": "caller",
					"type": "address"
				}
			],
			"name": "SetAdditionalOperator",
			"type": "event"
		},
		{
			"anonymous": false,
			"inputs": [
				{
					"indexed": true,
					"internalType": "uint256",
					"name": "revnetId",
					"type": "uint256"
				},
				{
					"indexed": false,
					"internalType": "uint256",
					"name": "cashOutDelay",
					"type": "uint256"
				},
				{
					"indexed": false,
					"internalType": "address",
					"name": "caller",
					"type": "address"
				}
			],
			"name": "SetCashOutDelay",
			"type": "event"
		},
		{
			"anonymous": false,
			"inputs": [
				{
					"indexed": true,
					"internalType": "uint256",
					"name": "revnetId",
					"type": "uint256"
				},
				{
					"indexed": true,
					"internalType": "uint256",
					"name": "stageId",
					"type": "uint256"
				},
				{
					"indexed": true,
					"internalType": "address",
					"name": "beneficiary",
					"type": "address"
				},
				{
					"indexed": false,
					"internalType": "uint256",
					"name": "count",
					"type": "uint256"
				},
				{
					"indexed": false,
					"internalType": "address",
					"name": "caller",
					"type": "address"
				}
			],
			"name": "StoreAutoIssuanceAmount",
			"type": "event"
		},
		{
			"inputs": [
				{
					"internalType": "uint256",
					"name": "x",
					"type": "uint256"
				},
				{
					"internalType": "uint256",
					"name": "y",
					"type": "uint256"
				},
				{
					"internalType": "uint256",
					"name": "denominator",
					"type": "uint256"
				}
			],
			"name": "PRBMath_MulDiv_Overflow",
			"type": "error"
		},
		{
			"inputs": [],
			"name": "REVDeployer_AutoIssuanceBeneficiaryZeroAddress",
			"type": "error"
		},
		{
			"inputs": [
				{
					"internalType": "uint256",
					"name": "cashOutDelay",
					"type": "uint256"
				},
				{
					"internalType": "uint256",
					"name": "blockTimestamp",
					"type": "uint256"
				}
			],
			"name": "REVDeployer_CashOutDelayNotFinished",
			"type": "error"
		},
		{
			"inputs": [
				{
					"internalType": "uint256",
					"name": "cashOutTaxRate",
					"type": "uint256"
				},
				{
					"internalType": "uint256",
					"name": "maxCashOutTaxRate",
					"type": "uint256"
				}
			],
			"name": "REVDeployer_CashOutsCantBeTurnedOffCompletely",
			"type": "error"
		},
		{
			"inputs": [
				{
					"internalType": "address",
					"name": "token",
					"type": "address"
				},
				{
					"internalType": "address",
					"name": "terminal",
					"type": "address"
				}
			],
			"name": "REVDeployer_LoanSourceDoesntMatchTerminalConfigurations",
			"type": "error"
		},
		{
			"inputs": [],
			"name": "REVDeployer_MustHaveSplits",
			"type": "error"
		},
		{
			"inputs": [],
			"name": "REVDeployer_RulesetDoesNotAllowDeployingSuckers",
			"type": "error"
		},
		{
			"inputs": [
				{
					"internalType": "uint256",
					"name": "stageStartTime",
					"type": "uint256"
				},
				{
					"internalType": "uint256",
					"name": "blockTimestamp",
					"type": "uint256"
				}
			],
			"name": "REVDeployer_StageNotStarted",
			"type": "error"
		},
		{
			"inputs": [],
			"name": "REVDeployer_StageTimesMustIncrease",
			"type": "error"
		},
		{
			"inputs": [],
			"name": "REVDeployer_StagesRequired",
			"type": "error"
		},
		{
			"inputs": [
				{
					"internalType": "uint256",
					"name": "revnetId",
					"type": "uint256"
				},
				{
					"internalType": "address",
					"name": "caller",
					"type": "address"
				}
			],
			"name": "REVDeployer_Unauthorized",
			"type": "error"
		},
		{
			"inputs": [
				{
					"internalType": "address",
					"name": "spender",
					"type": "address"
				},
				{
					"internalType": "uint256",
					"name": "currentAllowance",
					"type": "uint256"
				},
				{
					"internalType": "uint256",
					"name": "requestedDecrease",
					"type": "uint256"
				}
			],
			"name": "SafeERC20FailedDecreaseAllowance",
			"type": "error"
		},
		{
			"inputs": [
				{
					"internalType": "address",
					"name": "token",
					"type": "address"
				}
			],
			"name": "SafeERC20FailedOperation",
			"type": "error"
		}
	],
	"args": [],
	"solcInputHash": "e5bc1577ce0581cc023b89341d728890",
	"bytecode": "0x6101a060405234801562000011575f80fd5b5060405162006548380380620065488339810160408190526200003491620002ec565b6001600160a01b03808216608052861660a0819052604080516388bc2ef360e01b815290516388bc2ef3916004808201926020929091908290030181865afa15801562000083573d5f803e3d5ffd5b505050506040513d601f19601f82011682018060405250810190620000a9919062000370565b6001600160a01b031660c0816001600160a01b031681525050856001600160a01b031663293c49996040518163ffffffff1660e01b8152600401602060405180830381865afa158015620000ff573d5f803e3d5ffd5b505050506040513d601f19601f8201168201806040525081019062000125919062000370565b6001600160a01b0316610140816001600160a01b03168152505060a0516001600160a01b031663f434c9146040518163ffffffff1660e01b8152600401602060405180830381865afa1580156200017e573d5f803e3d5ffd5b505050506040513d601f19601f82011682018060405250810190620001a4919062000370565b6001600160a01b039081166101205285811661018081905260e08690528482166101005290831661016052620001dd905f601c620001e9565b50505050505062000434565b6040805160018082528183019092525f916020808301908036833701905050905081815f8151811062000220576200022062000395565b60ff90921660209283029190910190910152620002403085858462000246565b50505050565b604080516060810182526001600160a01b03808616825266ffffffffffffff85166020830152818301849052610120519251631127c92960e21b81529192169063449f24a4906200029e9088908590600401620003a9565b5f604051808303815f87803b158015620002b6575f80fd5b505af1158015620002c9573d5f803e3d5ffd5b505050505050505050565b6001600160a01b0381168114620002e9575f80fd5b50565b5f805f805f8060c0878903121562000302575f80fd5b86516200030f81620002d4565b60208801519096506200032281620002d4565b6040880151606089015191965094506200033c81620002d4565b60808801519093506200034f81620002d4565b60a08801519092506200036281620002d4565b809150509295509295509295565b5f6020828403121562000381575f80fd5b81516200038e81620002d4565b9392505050565b634e487b7160e01b5f52603260045260245ffd5b6001600160a01b03838116825260406020808401829052845190921681840152838201516001600160401b0316606080850191909152908401516080840191909152805160a084018190525f929182019190839060c08601905b808310156200042857845160ff16825293830193600192909201919083019062000403565b50979650505050505050565b60805160a05160c05160e0516101005161012051610140516101605161018051615fff620005495f395f818161056e01528181612463015261252e01525f8181610684015281816129d301526135a801525f81816102a701528181610842015281816108880152818161114b01528181611def0152611ee201525f81816106ea015281816111fc015261163401525f818161053b01526127e201525f818161026601528181610f18015281816110a8015261134001525f81816104a7015261131901525f81816106b701528181610bbd01528181610c8701528181611d2301528181611f4e01528181611fd6015281816120a3015261260101525f81816103b60152818161047201526115520152615fff5ff3fe6080604052600436106101c4575f3560e01c80638cc35846116100f2578063c22903b211610092578063dbfbe5da11610062578063dbfbe5da14610673578063ee0fc121146106a6578063f434c914146106d9578063fb82b1b01461070c575f80fd5b8063c22903b2146105f1578063c57981b514610604578063d65a55ce14610618578063db29c89214610654575f80fd5b8063b5d25533116100cd578063b5d255331461055d578063b78edb6614610590578063b8a843d7146105bc578063b987005d146105d2575f80fd5b80638cc35846146104c9578063902b742e146104f6578063abf8c5c81461052a575f80fd5b80634d1dc3cc1161016857806367d39de21161013857806367d39de2146104055780637249a773146104305780637da0a8771461046457806388bc2ef314610496575f80fd5b80634d1dc3cc146103505780634fa9af691461036f578063572b6c051461039a578063677ce088146103e6575f80fd5b80631680e172116101a35780631680e17214610255578063293c4999146102965780633b7ae807146102e1578063437e610714610315575f80fd5b806244a005146101c857806301ffc9a7146101e9578063150b7a021461021d575b5f80fd5b3480156101d3575f80fd5b506101e76101e236600461387c565b61073b565b005b3480156101f4575f80fd5b506102086102033660046138aa565b6107ca565b60405190151581526020015b60405180910390f35b348015610228575f80fd5b5061023c6102373660046138d1565b610836565b6040516001600160e01b03199091168152602001610214565b348015610260575f80fd5b506102887f000000000000000000000000000000000000000000000000000000000000000081565b604051908152602001610214565b3480156102a1575f80fd5b506102c97f000000000000000000000000000000000000000000000000000000000000000081565b6040516001600160a01b039091168152602001610214565b3480156102ec575f80fd5b506102c96102fb366004613967565b60046020525f90815260409020546001600160a01b031681565b348015610320575f80fd5b5061028861032f36600461397e565b5f602081815293815260408082208552928152828120909352825290205481565b34801561035b575f80fd5b5061028861036a366004613a21565b61087d565b34801561037a575f80fd5b50610288610389366004613967565b60026020525f908152604090205481565b3480156103a5575f80fd5b506102086103b4366004613ad3565b7f00000000000000000000000000000000000000000000000000000000000000006001600160a01b0390811691161490565b3480156103f1575f80fd5b5061020861040036600461387c565b610945565b348015610410575f80fd5b5061028861041f366004613967565b60036020525f908152604090205481565b34801561043b575f80fd5b506102c961044a366004613967565b60016020525f90815260409020546001600160a01b031681565b34801561046f575f80fd5b507f00000000000000000000000000000000000000000000000000000000000000006102c9565b3480156104a1575f80fd5b506102c97f000000000000000000000000000000000000000000000000000000000000000081565b3480156104d4575f80fd5b506104e86104e3366004613aee565b61099b565b604051610214929190613b72565b348015610501575f80fd5b506102c9610510366004613967565b60056020525f90815260409020546001600160a01b031681565b348015610535575f80fd5b506102c97f000000000000000000000000000000000000000000000000000000000000000081565b348015610568575f80fd5b506102c97f000000000000000000000000000000000000000000000000000000000000000081565b34801561059b575f80fd5b506105af6105aa366004613c01565b610b97565b6040516102149190613c44565b3480156105c7575f80fd5b5061028862278d0081565b3480156105dd575f80fd5b506101e76105ec36600461397e565b610c84565b6101e76105ff366004613c90565b610e73565b34801561060f575f80fd5b50610288601981565b348015610623575f80fd5b50610637610632366004613cc7565b61113f565b604080519283526001600160a01b03909116602083015201610214565b34801561065f575f80fd5b5061020861066e36600461387c565b6111f9565b34801561067e575f80fd5b506102c97f000000000000000000000000000000000000000000000000000000000000000081565b3480156106b1575f80fd5b506102c97f000000000000000000000000000000000000000000000000000000000000000081565b3480156106e4575f80fd5b506102c97f000000000000000000000000000000000000000000000000000000000000000081565b348015610717575f80fd5b5061072b610726366004613dc8565b611297565b6040516102149493929190613dff565b61074c8261074761154c565b6115bf565b806001600160a01b0316827f0329d6a81434b130c72eb65eea0e32e429dc1277b4aad86ec86454aefb61845161078061154c565b6040516001600160a01b03909116815260200160405180910390a36107bc306107a761154c565b604080515f81526020810190915285906115f8565b6107c68282611682565b5050565b5f6001600160e01b031982166374823a0b60e11b14806107fa57506001600160e01b0319821663081e84bf60e11b145b8061081557506001600160e01b0319821663611481d960e11b145b8061083057506001600160e01b03198216630a85bd0160e11b145b92915050565b5f336001600160a01b037f0000000000000000000000000000000000000000000000000000000000000000161461086b575f80fd5b50630a85bd0160e11b95945050505050565b5f86158015610914577f00000000000000000000000000000000000000000000000000000000000000006001600160a01b03166306661abd6040518163ffffffff1660e01b8152600401602060405180830381865afa1580156108e2573d5f803e3d5ffd5b505050506040513d601f19601f820116820180604052508101906109069190613eb1565b610911906001613edc565b97505b5f806109228a8a8a8a611732565b915091506109378a848b8b8b8b8b8989611d12565b509798975050505050505050565b5f828152600160205260408120546001600160a01b038381169116148061098457505f838152600460205260409020546001600160a01b038381169116145b806109945750610994838361243b565b9392505050565b60c08101355f9081526001602052604081205460609081906001600160a01b03168015610a3957604051634661ac2360e11b81526001600160a01b03821690638cc35846906109ee908890600401613fd2565b5f60405180830381865afa158015610a08573d5f803e3d5ffd5b505050506040513d5f823e601f3d908101601f19168201604052610a2f9190810190614159565b9094509150610a42565b84610120013593505b815160c08601355f908152600560205260409020546001909114906001600160a01b031680151582610a74575f610a77565b60015b81610a82575f610a85565b60015b610a8f91906142b3565b60ff166001600160401b03811115610aa957610aa9613e9d565b604051908082528060200260200182016040528015610af557816020015b60408051606080820183525f808352602083015291810191909152815260200190600190039081610ac75790505b5095508015610b4e576040518060600160405280836001600160a01b031681526020015f815260200160405180602001604052805f815250815250865f81518110610b4257610b426142cc565b60200260200101819052505b8215610b8d57845f81518110610b6657610b666142cc565b602002602001015186600181518110610b8157610b816142cc565b60200260200101819052505b5050505050915091565b6060610ba58361074761154c565b6040516320c94b1360e11b8152600481018490525f907f00000000000000000000000000000000000000000000000000000000000000006001600160a01b03169063419296269060240161038060405180830381865afa158015610c0b573d5f803e3d5ffd5b505050506040513d601f19601f82011682018060405250810190610c2f9190614414565b61024081015190925060021c600190811614905080610c6157604051631abe0dd960e21b815260040160405180910390fd5b5f85815260036020526040902054610c7b90869086612494565b95945050505050565b5f7f00000000000000000000000000000000000000000000000000000000000000006001600160a01b031663d4a1b4b16040518163ffffffff1660e01b8152600401602060405180830381865afa158015610ce1573d5f803e3d5ffd5b505050506040513d601f19601f82011682018060405250810190610d0591906145b8565b604051630969875760e21b815260048101869052602481018590526001600160a01b0391909116906325a61d5c9060440161012060405180830381865afa158015610d52573d5f803e3d5ffd5b505050506040513d601f19601f82011682018060405250810190610d7691906145d3565b6060015165ffffffffffff16905042811115610db357604051632f5d721f60e21b8152600481018290524260248201526044015b60405180910390fd5b5f8481526020818152604080832086845282528083206001600160a01b038616845290915281205490819003610dea575050505050565b5f8581526020818152604080832087845282528083206001600160a01b038716808552925282209190915584867f0ad8046f3d571312df6d1867ac30c26e100f5684a9d7c2d3340c4e2a5b56360f84610e4161154c565b604080519283526001600160a01b0390911660208301520160405180910390a4610e6c8582856125c0565b5050505050565b61eeee610e8861012083016101008401613ad3565b6001600160a01b031614610ec457610ec43330610160840135610eb361012086016101008701613ad3565b6001600160a01b031692919061266b565b5f610ed36101c08301836145ee565b810190610ee09190613ad3565b90505f610f0482610ef961012086016101008701613ad3565b6101608601356126d2565b90506001600160a01b03821663fef43257827f0000000000000000000000000000000000000000000000000000000000000000610f4961012088016101008901613ad3565b610160880135610f5c60208a018a613ad3565b5f8a60200135604051602001610f7491815260200190565b6040516020818303038152906040526040518863ffffffff1660e01b8152600401610fa496959493929190614630565b60206040518083038185885af193505050508015610fdf575060408051601f3d908101601f19168201909252610fdc91810190613eb1565b60015b611139573d80801561100c576040519150601f19603f3d011682016040523d82523d5f602084013e611011565b606091505b5061eeee61102761012086016101008701613ad3565b6001600160a01b031614611061576110618361016086013561105161012088016101008901613ad3565b6001600160a01b0316919061270a565b6110823361107761012087016101008801613ad3565b6101608701356126d2565b915033639e6eec058360208701356110a261012089016101008a01613ad3565b604080517f000000000000000000000000000000000000000000000000000000000000000060208201526101608b0135915f91016040516020818303038152906040526040518763ffffffff1660e01b8152600401611105959493929190614688565b5f604051808303818588803b15801561111c575f80fd5b505af115801561112e573d5f803e3d5ffd5b505050505050505050565b50505050565b5f808a1580156111d7577f00000000000000000000000000000000000000000000000000000000000000006001600160a01b03166306661abd6040518163ffffffff1660e01b8152600401602060405180830381865afa1580156111a5573d5f803e3d5ffd5b505050506040513d601f19601f820116820180604052508101906111c99190613eb1565b6111d4906001613edc565b9b505b6111e98c828d8d8d8d8d8d8d8d6127c4565b9b9c9a5050505050505050505050565b5f7f00000000000000000000000000000000000000000000000000000000000000006001600160a01b031663632af95f83308661123588612a1b565b5f806040518763ffffffff1660e01b8152600401611258969594939291906146d5565b602060405180830381865afa158015611273573d5f803e3d5ffd5b505050506040513d601f19601f82011682018060405250810190610994919061474e565b5f808060606112b8604086018035906112b39060208901613ad3565b61243b565b156112d3575f85608001358660a00135935093509350611545565b6040808601355f908152600260205220544281111561130e5760405163e4a9c90760e01b815260048101829052426024820152604401610daa565b5f6001600160a01b037f00000000000000000000000000000000000000000000000000000000000000001663862026507f000000000000000000000000000000000000000000000000000000000000000061136f60e08b0160c08c01613ad3565b6040516001600160e01b031960e085901b16815260048101929092526001600160a01b03166024820152604401602060405180830381865afa1580156113b7573d5f803e3d5ffd5b505050506040513d601f19601f820116820180604052508101906113db91906145b8565b905061016087013515806113f657506001600160a01b038116155b156114185786610160013587608001358860a001359550955095505050611545565b5f61142b608089013560196103e8612bb1565b90505f61143c8260808b0135614769565b90505f6114596101208b01358360a08d01356101608e0135612c80565b90505f61148a61146e836101208e0135614769565b85858e60a0013561147f9190614769565b8e6101600135612c80565b604080516001808252818301909252919250816020015b60408051606080820183525f8083526020830152918101919091528152602001906001900390816114a157505060408051606081018252308152602080820185905282516001600160a01b038a1691810191909152929950918282019101604051602081830303815290604052815250875f81518110611523576115236142cc565b6020908102919091010152505061016089013597509550505060a08601359250505b9193509193565b5f3660147f00000000000000000000000000000000000000000000000000000000000000006001600160a01b0316331480156115885750808210155b156115b7575f366115998385614769565b6115a492829061477c565b6115ad916147a3565b60601c9250505090565b339250505090565b6115c982826111f9565b6107c6576040516355e03cb160e11b8152600481018390526001600160a01b0382166024820152604401610daa565b604080516060810182526001600160a01b03808616825266ffffffffffffff851660208301528183018490529151631127c92960e21b815290917f0000000000000000000000000000000000000000000000000000000000000000169063449f24a49061166b90889085906004016147d8565b5f604051808303815f87803b15801561111c575f80fd5b5f61168c83612a1b565b90505f81516001600160401b038111156116a8576116a8613e9d565b6040519080825280602002602001820160405280156116d1578160200160208202803683370190505b5090505f5b8251811015611725578281815181106116f1576116f16142cc565b602002602001015182828151811061170b5761170b6142cc565b60ff909216602092830291909101909101526001016116d6565b50611139308486846115f8565b60605f61174185830186614862565b90505f036117625760405163050751e560e21b815260040160405180910390fd5b61176f6060860186614862565b90506001600160401b0381111561178857611788613e9d565b6040519080825280602002602001820160405280156117c157816020015b6117ae61376f565b8152602001906001900390816117a65790505b5091505f6117d560408701602088016148a7565b6117e560c0880160a08901613ad3565b6117ef88806148c2565b6117f990806145ee565b6118038a806148c2565b6118119060208101906145ee565b61181b8c806148c2565b6060013560405160200161183597969594939291906148e0565b60405160208183030381529060405290505f611852878787612cf5565b90505f5b6118636060890189614862565b9050811015611cfc573661187a60608a018a614862565b8381811061188a5761188a6142cc565b905060200281019061189c9190614936565b90505f6118af6060830160408401614956565b61ffff161180156118cc57506118c86060820182614971565b1590505b156118ea576040516340fb407760e01b815260040160405180910390fd5b5f8211801561195b575061190160608a018a614862565b61190c600185614769565b81811061191b5761191b6142cc565b905060200281019061192d9190614936565b61193b9060208101906149c0565b65ffffffffffff1661195060208301836149c0565b65ffffffffffff1611155b156119795760405163b787fe6760e01b815260040160405180910390fd5b61271061198d610100830160e08401614956565b61ffff16106119cf576119a7610100820160e08301614956565b6040516380922c6d60e01b815261ffff90911660048201526127106024820152604401610daa565b6119e96119e260408b0160208c016148a7565b8285612f5c565b8683815181106119fb576119fb6142cc565b602002602001018190525083825f148015611a285750611a1e60208301836149c0565b65ffffffffffff16155b611a4657611a3960208301836149c0565b65ffffffffffff16611a48565b425b611a586060840160408501614956565b611a6860a08501608086016149e6565b611a7860c0860160a087016148a7565b611a8860e0870160c088016148a7565b611a99610100880160e08901614956565b604051602001611aaf9796959493929190614a01565b60405160208183030381529060405293505f5b611acf6020830183614a5a565b9050811015611cf25736611ae66020840184614a5a565b83818110611af657611af66142cc565b90506060020190505f6001600160a01b0316816040016020810190611b1b9190613ad3565b6001600160a01b031603611b425760405163b79e8c7d60e01b815260040160405180910390fd5b611b526040820160208301614ab4565b6001600160681b03165f03611b675750611cea565b85611b7560208301836148a7565b611b856060840160408501613ad3565b611b956040850160208601614ab4565b604051602001611ba89493929190614acd565b60408051601f19818403018152919052955046611bc860208301836148a7565b63ffffffff1614611bd95750611cea565b611be96060820160408301613ad3565b6001600160a01b0316611bfc8542613edc565b8d7f5c05d79eeb764b1f5069fb55a8558e8a5cec91813a64282bc198dc9084c75df0611c2e6040860160208701614ab4565b611c3661154c565b604080516001600160681b0390931683526001600160a01b0390911660208301520160405180910390a4611c706040820160208301614ab4565b5f8d81526020819052604081206001600160681b03929092169190611c958742613edc565b81526020019081526020015f205f836040016020810190611cb69190613ad3565b6001600160a01b03166001600160a01b031681526020019081526020015f205f828254611ce39190613edc565b9091555050505b600101611ac2565b5050600101611856565b5081805190602001209250505094509492505050565b8715611dd757886001600160a01b037f000000000000000000000000000000000000000000000000000000000000000016635c7465e530611d538b806148c2565b611d619060408101906145ee565b878c8c6040518763ffffffff1660e01b8152600401611d8596959493929190615032565b6020604051808303815f875af1158015611da1573d5f803e3d5ffd5b505050506040513d601f19601f82011682018060405250810190611dc59190613eb1565b14611dd257611dd2615099565b612061565b6040516331a9108f60e11b8152600481018a90525f907f00000000000000000000000000000000000000000000000000000000000000006001600160a01b031690636352211e90602401602060405180830381865afa158015611e3c573d5f803e3d5ffd5b505050506040513d601f19601f82011682018060405250810190611e6091906145b8565b9050806001600160a01b0316611e7461154c565b6001600160a01b031614611eb65789611e8b61154c565b6040516355e03cb160e11b815260048101929092526001600160a01b03166024820152604401610daa565b604051632142170760e11b81526001600160a01b038281166004830152306024830152604482018c90527f000000000000000000000000000000000000000000000000000000000000000016906342842e0e906064015f604051808303815f87803b158015611f23575f80fd5b505af1158015611f35573d5f803e3d5ffd5b50506040516339284f3560e01b81526001600160a01b037f00000000000000000000000000000000000000000000000000000000000000001692506339284f359150611f8b908d9087908c908c906004016150ad565b6020604051808303815f875af1158015611fa7573d5f803e3d5ffd5b505050506040513d601f19601f82011682018060405250810190611fcb9190613eb1565b506001600160a01b037f00000000000000000000000000000000000000000000000000000000000000001663702a39778b6120068b806148c2565b6120149060408101906145ee565b6040518463ffffffff1660e01b8152600401612032939291906150f4565b5f604051808303815f87803b158015612049575f80fd5b505af115801561205b573d5f803e3d5ffd5b50505050505b6120998961207260608a018a614862565b5f818110612082576120826142cc565b90506020028101906120949190614936565b613161565b6001600160a01b037f00000000000000000000000000000000000000000000000000000000000000001663581781918a6120d38a806148c2565b6120dd90806145ee565b6120e78c806148c2565b6120f59060208101906145ee565b6120ff8e806148c2565b606001358861210c61154c565b6040805160208101949094528301919091526001600160a01b03166060820152608001604051602081830303815290604052805190602001206040518763ffffffff1660e01b81526004016121669695949392919061510d565b6020604051808303815f875af1158015612182573d5f803e3d5ffd5b505050506040513d601f19601f820116820180604052508101906121a691906145b8565b505f6121b56020860186613ad3565b6001600160a01b03161461232d576121d06020850185613ad3565b5f8a815260016020526040812080546001600160a01b0319166001600160a01b0393909316929092179091555b61220a602086018661514d565b905081101561232b5736612221602087018761514d565b83818110612231576122316142cc565b60800291909101915061224990506020870187613ad3565b6001600160a01b0316637b621d3a8c61226860408501602086016151a4565b61227860608601604087016148a7565b61228860808701606088016148a7565b6122956020880188613ad3565b6040516001600160e01b031960e088901b168152600481019590955262ffffff909316602485015263ffffffff91821660448501521660648301526001600160a01b0316608482015260a4016020604051808303815f875af11580156122fd573d5f803e3d5ffd5b505050506040513d601f19601f8201168201806040525081019061232191906145b8565b50506001016121fd565b505b5f61233e60c0890160a08a01613ad3565b6001600160a01b0316146123a35761236761235f60c0890160a08a01613ad3565b8a601061320f565b61237760c0880160a08901613ad3565b5f8a815260046020526040902080546001600160a01b0319166001600160a01b03929092169190911790555b6123bc896123b760608a0160408b01613ad3565b611682565b6020830135156123d3576123d1898285612494565b505b5f898152600360205260409020819055887f50cb038d2850ab4d96526ba72c40c7ab67dfeaadd1afcd7562788b243cbccd618888888888888861241461154c565b60405161242898979695949392919061578d565b60405180910390a2505050505050505050565b6040516383db9d0160e01b8152600481018390526001600160a01b0382811660248301525f917f0000000000000000000000000000000000000000000000000000000000000000909116906383db9d0190604401611258565b60605f8383602001356124a561154c565b6040805160208101949094528301919091526001600160a01b0316606082015260800160405160208183030381529060405280519060200120905080857f3b7e4c0d90b50b007ff2ff731229262d74c9c8fe9a0eb322ca7debc85f726f2c868661250d61154c565b60405161251c9392919061593e565b60405180910390a36001600160a01b037f000000000000000000000000000000000000000000000000000000000000000016632f3f50e0868361255f8780614862565b6040518563ffffffff1660e01b815260040161257e949392919061596f565b5f604051808303815f875af1158015612599573d5f803e3d5ffd5b505050506040513d5f823e601f3d908101601f19168201604052610c7b919081019061598e565b6040516363fdc96f60e11b815260048101849052602481018390526001600160a01b03828116604483015260a060648301525f60a4830181905260848301527f0000000000000000000000000000000000000000000000000000000000000000169063c7fb92de9060c4016020604051808303815f875af1158015612647573d5f803e3d5ffd5b505050506040513d601f19601f820116820180604052508101906111399190613eb1565b6040516001600160a01b0384811660248301528381166044830152606482018390526111399186918216906323b872dd906084015b604051602081830303815290604052915060e01b6020820180516001600160e01b038381831617835250505050613263565b5f61eeed196001600160a01b038416016126ed575080610994565b6127016001600160a01b03841685846132cf565b505f9392505050565b604051636eb1769f60e11b81523060048201526001600160a01b0383811660248301525f919085169063dd62ed3e90604401602060405180830381865afa158015612757573d5f803e3d5ffd5b505050506040513d601f19601f8201168201806040525081019061277b9190613eb1565b9050818110156127b75760405163e570110f60e01b81526001600160a01b03841660048201526024810182905260448101839052606401610daa565b6111398484848403613351565b5f805f6127d38d8c8c8c611732565b90925090506001600160a01b037f00000000000000000000000000000000000000000000000000000000000000001663ea74b8af8e6128128980615a17565b89602001358561282061154c565b6040805160208101949094528301919091526001600160a01b03166060820152608001604051602081830303815290604052805190602001206040518463ffffffff1660e01b815260040161287793929190615c62565b6020604051808303815f875af1158015612893573d5f803e3d5ffd5b505050506040513d601f19601f820116820180604052508101906128b791906145b8565b5f8e8152600560205260409081902080546001600160a01b0319166001600160a01b0384161790559093506128f29060608801908801615d8b565b15612919575f8d815260066020908152604082208054600181018255908352912060149101555b6129296080870160608801615d8b565b15612950575f8d815260066020908152604082208054600181018255908352912060159101555b61296060a0870160808801615d8b565b15612987575f8d815260066020908152604082208054600181018255908352912060169101555b61299760c0870160a08801615d8b565b156129be575f8d815260066020908152604082208054600181018255908352912060179101555b6129c98386866133e0565b156129fa576129fa7f00000000000000000000000000000000000000000000000000000000000000008e601461320f565b612a0b8d8d8d8d8d8d8d8989611d12565b50509a9950505050505050505050565b5f818152600660209081526040808320805482518185028101850190935280835260609493830182828015612a6d57602002820191905f5260205f20905b815481526020019060010190808311612a59575b5050505050905080516004612a829190613edc565b6001600160401b03811115612a9957612a99613e9d565b604051908082528060200260200182016040528015612ac2578160200160208202803683370190505b509150601160ff16825f81518110612adc57612adc6142cc565b602002602001018181525050601960ff1682600181518110612b0057612b006142cc565b602002602001018181525050600660ff1682600281518110612b2457612b246142cc565b602002602001018181525050601260ff1682600381518110612b4857612b486142cc565b6020026020010181815250505f5b8151811015612baa57818181518110612b7157612b716142cc565b602002602001015183826004612b879190613edc565b81518110612b9757612b976142cc565b6020908102919091010152600101612b56565b5050919050565b5f80805f19858709858702925082811083820303915050805f03612be857838281612bde57612bde615da6565b0492505050610994565b838110612c1957604051630c740aef60e31b8152600481018790526024810186905260448101859052606401610daa565b5f8486880960026001871981018816978890046003810283188082028403028082028403028082028403028082028403028082028403029081029092039091025f889003889004909101858311909403939093029303949094049190911702949350505050565b5f61270f198201612c9257505f612ced565b828410612ca0575083612ced565b5f612cac868686612bb1565b9050825f03612cbc579050612ced565b612ce981612ccb858888612bb1565b612cd786612710614769565b612ce19190613edc565b612710612bb1565b9150505b949350505050565b6060612d046080850185615dba565b90506001600160401b03811115612d1d57612d1d613e9d565b604051908082528060200260200182016040528015612d7057816020015b604080516080810182525f8082526020820152606091810182905281810191909152815260200190600190039081612d3b5790505b5090505f5b612d826080860186615dba565b9050811015612f545736612d996080870187615dba565b83818110612da957612da96142cc565b90506040020190505f612dbd868684613615565b90508063ffffffff165f03612e1557612dd96020830183613ad3565b612de96040840160208501613ad3565b604051631ab3aa5760e01b81526001600160a01b03928316600482015291166024820152604401610daa565b6040805160018082528183019092525f91816020015b604080518082019091525f8082526020820152815260200190600190039081612e2b57905050905060405180604001604052806001600160e01b03801681526020018363ffffffff16815250815f81518110612e8957612e896142cc565b60200260200101819052506040518060800160405280846020016020810190612eb29190613ad3565b6001600160a01b03168152602090810190612ecf90860186613ad3565b6001600160a01b031681526020015f604051908082528060200260200182016040528015612f2257816020015b604080518082019091525f8082526020820152815260200190600190039081612efc5790505b50815260200182815250858581518110612f3e57612f3e6142cc565b6020908102919091010152505050600101612d75565b509392505050565b612f6461376f565b612f6c6137ba565b612f7c6060850160408601614956565b61ffff168152612f93610100850160e08601614956565b61ffff16602082015263ffffffff8516604082015260016101c0820181905260a082018190526101e0820181905261020082015230610220820152612fe061012085016101008601614956565b61ffff166102408201526040805160018082528183019092525f91816020015b604080518082019091525f8152606060208201528152602001906001900390816130005750506040805180820190915260018152909150602081016130486060880188614971565b808060200260200160405190810160405280939291908181526020015f905b828210156130935761308460c08302860136819003810190615dff565b81526020019060010190613067565b5050505050815250815f815181106130ad576130ad6142cc565b6020026020010181905250604051806101000160405280865f0160208101906130d691906149c0565b65ffffffffffff1681526020016130f360c0880160a089016148a7565b63ffffffff16815260200161310e60a08801608089016149e6565b6001600160701b0316815260200161312c60e0880160c089016148a7565b63ffffffff1681526020015f6001600160a01b0316815260200183815260200182815260200185815250925050509392505050565b61316e60208201826149c0565b65ffffffffffff16158061319657504261318b60208301836149c0565b65ffffffffffff1610155b1561319f575050565b5f6131ad62278d0042613edc565b5f8481526002602052604090208190559050827f48a9634f50564cfe6648ff5e75795a36873bf96c408523d50017032657e67198826131ea61154c565b604080519283526001600160a01b0390911660208301520160405180910390a2505050565b6040805160018082528183019092525f916020808301908036833701905050905081815f81518110613243576132436142cc565b602002602001019060ff16908160ff1681525050611139308585846115f8565b5f8060205f8451602086015f885af180613282576040513d5f823e3d81fd5b50505f513d915081156132995780600114156132a6565b6001600160a01b0384163b155b1561113957604051635274afe760e01b81526001600160a01b0385166004820152602401610daa565b604051636eb1769f60e11b81523060048201526001600160a01b0383811660248301525f919085169063dd62ed3e90604401602060405180830381865afa15801561331c573d5f803e3d5ffd5b505050506040513d601f19601f820116820180604052508101906133409190613eb1565b905061113984846133518585613edc565b604080516001600160a01b038416602482015260448082018490528251808303909101815260649091019091526020810180516001600160e01b031663095ea7b360e01b1790526133a28482613726565b611139576040516001600160a01b0384811660248301525f60448301526133d691869182169063095ea7b3906064016126a0565b6111398482613263565b5f8181036133ef57505f610994565b5f826001600160401b0381111561340857613408613e9d565b60405190808252806020026020018201604052801561346857816020015b6040805160c0810182525f80825260208083018290529282018190526060808301829052608083019190915260a082015282525f199092019101816134265790505b5090505f5b838110156135905736858583818110613488576134886142cc565b905060200281019061349a9190615ea5565b90506040518060c00160405280886001600160a01b03168152602001825f0160208101906134c891906151a4565b62ffffff1681526020018260200160208101906134e59190614ab4565b6001600160681b0316815260200161350360608401604085016148a7565b63ffffffff16815260200161351e60808401606085016148a7565b63ffffffff1681526020016135366080840184614862565b808060200260200160405190810160405280939291908181526020018383602002808284375f920191909152505050915250835184908490811061357c5761357c6142cc565b60209081029190910101525060010161346d565b50604051631107934d60e21b81526001600160a01b037f0000000000000000000000000000000000000000000000000000000000000000169063441e4d34906135dd908490600401615ef1565b5f604051808303815f87803b1580156135f4575f80fd5b505af1158015613606573d5f803e3d5ffd5b50600198975050505050505050565b5f805b8381101561371c5736858583818110613633576136336142cc565b90506020028101906136459190615fb5565b90506136576040850160208601613ad3565b6001600160a01b031661366d6020830183613ad3565b6001600160a01b031603613713575f5b61368a6020830183614a5a565b905081101561371157366136a16020840184614a5a565b838181106136b1576136b16142cc565b6060029190910191506136c990506020870187613ad3565b6001600160a01b03166136df6020830183613ad3565b6001600160a01b031603613708576136fd60608201604083016148a7565b945050505050610994565b5060010161367d565b505b50600101613618565b505f949350505050565b5f805f8060205f8651602088015f8a5af192503d91505f519050828015613765575081156137575780600114613765565b5f866001600160a01b03163b115b9695505050505050565b60408051610100810182525f8082526020820181905291810182905260608101829052608081019190915260a081016137a66137ba565b815260200160608152602001606081525090565b60408051610260810182525f80825260208201819052918101829052606081018290526080810182905260a0810182905260c0810182905260e08101829052610100810182905261012081018290526101408101829052610160810182905261018081018290526101a081018290526101c081018290526101e081018290526102008101829052610220810182905261024081019190915290565b6001600160a01b0381168114613869575f80fd5b50565b803561387781613855565b919050565b5f806040838503121561388d575f80fd5b82359150602083013561389f81613855565b809150509250929050565b5f602082840312156138ba575f80fd5b81356001600160e01b031981168114610994575f80fd5b5f805f805f608086880312156138e5575f80fd5b85356138f081613855565b9450602086013561390081613855565b93506040860135925060608601356001600160401b0380821115613922575f80fd5b818801915088601f830112613935575f80fd5b813581811115613943575f80fd5b896020828501011115613954575f80fd5b9699959850939650602001949392505050565b5f60208284031215613977575f80fd5b5035919050565b5f805f60608486031215613990575f80fd5b833592506020840135915060408401356139a981613855565b809150509250925092565b5f60c082840312156139c4575f80fd5b50919050565b5f8083601f8401126139da575f80fd5b5081356001600160401b038111156139f0575f80fd5b6020830191508360208260051b8501011115613a0a575f80fd5b9250929050565b5f604082840312156139c4575f80fd5b5f805f805f8060a08789031215613a36575f80fd5b8635955060208701356001600160401b0380821115613a53575f80fd5b613a5f8a838b016139b4565b96506040890135915080821115613a74575f80fd5b613a808a838b016139ca565b90965094506060890135915080821115613a98575f80fd5b613aa48a838b01613a11565b93506080890135915080821115613ab9575f80fd5b50613ac689828a01613a11565b9150509295509295509295565b5f60208284031215613ae3575f80fd5b813561099481613855565b5f60208284031215613afe575f80fd5b81356001600160401b03811115613b13575f80fd5b82016101808185031215610994575f80fd5b5f5b83811015613b3f578181015183820152602001613b27565b50505f910152565b5f8151808452613b5e816020860160208601613b25565b601f01601f19169290920160200192915050565b5f604080830185845260206040818601528186518084526060935060608701915060608160051b8801018389015f5b83811015613bf157898303605f19018552815180516001600160a01b031684528681015187850152880151888401889052613bde88850182613b47565b9587019593505090850190600101613ba1565b50909a9950505050505050505050565b5f8060408385031215613c12575f80fd5b8235915060208301356001600160401b03811115613c2e575f80fd5b613c3a85828601613a11565b9150509250929050565b602080825282518282018190525f9190848201906040850190845b81811015613c845783516001600160a01b031683529284019291840191600101613c5f565b50909695505050505050565b5f60208284031215613ca0575f80fd5b81356001600160401b03811115613cb5575f80fd5b82016102008185031215610994575f80fd5b5f805f805f805f805f60e08a8c031215613cdf575f80fd5b8935985060208a01356001600160401b0380821115613cfc575f80fd5b613d088d838e016139b4565b995060408c0135915080821115613d1d575f80fd5b613d298d838e016139ca565b909950975060608c0135915080821115613d41575f80fd5b613d4d8d838e01613a11565b965060808c0135915080821115613d62575f80fd5b613d6e8d838e01613a11565b955060a08c0135915080821115613d83575f80fd5b613d8f8d838e016139b4565b945060c08c0135915080821115613da4575f80fd5b50613db18c828d016139ca565b915080935050809150509295985092959850929598565b5f60208284031215613dd8575f80fd5b81356001600160401b03811115613ded575f80fd5b82016101a08185031215610994575f80fd5b5f6080820186835260208681850152604086604086015260606080606087015283875180865260a08801915060a08160051b89010195508489015f5b82811015613e8b57898803609f19018452815180516001600160a01b0316895287810151888a0152860151868901869052613e78868a0182613b47565b9850509286019290860190600101613e3b565b50959c9b505050505050505050505050565b634e487b7160e01b5f52604160045260245ffd5b5f60208284031215613ec1575f80fd5b5051919050565b634e487b7160e01b5f52601160045260245ffd5b8082018082111561083057610830613ec8565b803560ff81168114613877575f80fd5b63ffffffff81168114613869575f80fd5b803561387781613eff565b8035613f2681613855565b6001600160a01b0316825260ff613f3f60208301613eef565b1660208301526040810135613f5381613eff565b63ffffffff166040830152606090810135910152565b5f808335601e19843603018112613f7e575f80fd5b83016020810192503590506001600160401b03811115613f9c575f80fd5b803603821315613a0a575f80fd5b81835281816020850137505f828201602090810191909152601f909101601f19169091010190565b60208152613ff360208201613fe68461386c565b6001600160a01b03169052565b5f6140006020840161386c565b6001600160a01b0381166040840152506140206060830160408501613f1b565b60c083013560e083015261010060e08401358184015261404181850161386c565b905061012061405a818501836001600160a01b03169052565b6101409150808501358285015250610160818501358185015261407f81860186613f69565b6101808681015292509050610c7b6101a085018383613faa565b604051606081016001600160401b03811182821017156140bb576140bb613e9d565b60405290565b60405161012081016001600160401b03811182821017156140bb576140bb613e9d565b60405161026081016001600160401b03811182821017156140bb576140bb613e9d565b604051601f8201601f191681016001600160401b038111828210171561412f5761412f613e9d565b604052919050565b5f6001600160401b0382111561414f5761414f613e9d565b5060051b60200190565b5f806040838503121561416a575f80fd5b825191506020808401516001600160401b0380821115614188575f80fd5b818601915086601f83011261419b575f80fd5b81516141ae6141a982614137565b614107565b81815260059190911b830184019084810190898311156141cc575f80fd5b8585015b838110156142a2578051858111156141e6575f80fd5b8601601f196060828e03820112156141fc575f80fd5b614204614099565b8983015161421181613855565b815260408301518a82015260608301518881111561422d575f80fd5b8084019350508d603f840112614241575f80fd5b898301518881111561425557614255613e9d565b6142658b84601f84011601614107565b92508083528e604082860101111561427b575f80fd5b61428b818c850160408701613b25565b5060408101919091528452509186019186016141d0565b508096505050505050509250929050565b60ff818116838216019081111561083057610830613ec8565b634e487b7160e01b5f52603260045260245ffd5b65ffffffffffff81168114613869575f80fd5b8051613877816142e0565b805161387781613eff565b6001600160701b0381168114613869575f80fd5b805161387781614309565b805161387781613855565b5f6101208284031215614344575f80fd5b61434c6140c1565b9050614357826142f3565b8152614365602083016142f3565b6020820152614376604083016142f3565b6040820152614387606083016142f3565b6060820152614398608083016142fe565b60808201526143a960a0830161431d565b60a08201526143ba60c083016142fe565b60c08201526143cb60e08301614328565b60e082015261010080830151818301525092915050565b61ffff81168114613869575f80fd5b8051613877816143e2565b8015158114613869575f80fd5b8051613877816143fc565b5f80828403610380811215614427575f80fd5b6144318585614333565b92506102608061011f1983011215614447575f80fd5b61444f6140e4565b915061445e61012086016143f1565b825261014061446e8187016143f1565b60208401526101606144818188016142fe565b6040850152610180614494818901614409565b60608601526101a06144a7818a01614409565b60808701526101c06144ba818b01614409565b60a08801526101e06144cd818c01614409565b60c08901526102006144e0818d01614409565b60e08a01526102206144f3818e01614409565b6101008b0152610240614507818f01614409565b6101208c01526145188a8f01614409565b898c01526145296102808f01614409565b888c015261453a6102a08f01614409565b878c015261454b6102c08f01614409565b868c015261455c6102e08f01614409565b858c015261456d6103008f01614409565b848c015261457e6103208f01614409565b838c015261458f6103408f01614328565b828c01526145a06103608f016143f1565b908b015250999c979b50969950505050505050505050565b5f602082840312156145c8575f80fd5b815161099481613855565b5f61012082840312156145e4575f80fd5b6109948383614333565b5f808335601e19843603018112614603575f80fd5b8301803591506001600160401b0382111561461c575f80fd5b602001915036819003821315613a0a575f80fd5b8681525f6001600160a01b03808816602084015286604084015280861660608401525083608083015260e060a08301525f60e08301526101008060c084015261467b81840185613b47565b9998505050505050505050565b8581526001600160a01b0385166020820152836040820152821515606082015260c060808201525f60c082015260e060a08201525f6146ca60e0830184613b47565b979650505050505050565b5f60c082016001600160a01b03808a1684526020818a16602086015288604086015260c06060860152829150875180845260e0860192506020890193505f5b8181101561473057845184529382019392820192600101614714565b5050509415156080840152505090151560a090910152949350505050565b5f6020828403121561475e575f80fd5b8151610994816143fc565b8181038181111561083057610830613ec8565b5f808585111561478a575f80fd5b83861115614796575f80fd5b5050820193919092039150565b6bffffffffffffffffffffffff1981358181169160148510156147d05780818660140360031b1b83161692505b505092915050565b5f6001600160a01b03808516835260206040602085015260a084018286511660408601526001600160401b036020870151166060860152604086015192506060608086015280835180835260c0870191506020850194505f92505b8083101561485657845160ff168252938301936001929092019190830190614833565b50979650505050505050565b5f808335601e19843603018112614877575f80fd5b8301803591506001600160401b03821115614890575f80fd5b6020019150600581901b3603821315613a0a575f80fd5b5f602082840312156148b7575f80fd5b813561099481613eff565b5f8235607e198336030181126148d6575f80fd5b9190910192915050565b63ffffffff881681526001600160a01b038716602082015260a060408201525f61490e60a083018789613faa565b8281036060840152614921818688613faa565b91505082608083015298975050505050505050565b5f823561011e198336030181126148d6575f80fd5b8035613877816143e2565b5f60208284031215614966575f80fd5b8135610994816143e2565b5f808335601e19843603018112614986575f80fd5b8301803591506001600160401b0382111561499f575f80fd5b602001915060c081023603821315613a0a575f80fd5b8035613877816142e0565b5f602082840312156149d0575f80fd5b8135610994816142e0565b803561387781614309565b5f602082840312156149f6575f80fd5b813561099481614309565b60e081525f614a1360e083018a613b47565b60208301989098525061ffff95861660408201526001600160701b0394909416606085015263ffffffff9283166080850152911660a083015290911660c090910152919050565b5f808335601e19843603018112614a6f575f80fd5b8301803591506001600160401b03821115614a88575f80fd5b6020019150606081023603821315613a0a575f80fd5b80356001600160681b0381168114613877575f80fd5b5f60208284031215614ac4575f80fd5b61099482614a9e565b608081525f614adf6080830187613b47565b63ffffffff959095166020830152506001600160a01b039290921660408301526001600160681b0316606090910152919050565b805161ffff1682526020810151614b30602084018261ffff169052565b506040810151614b48604084018263ffffffff169052565b506060810151614b5c606084018215159052565b506080810151614b70608084018215159052565b5060a0810151614b8460a084018215159052565b5060c0810151614b9860c084018215159052565b5060e0810151614bac60e084018215159052565b5061010081810151151590830152610120808201511515908301526101408082015115159083015261016080820151151590830152610180808201511515908301526101a0808201511515908301526101c0808201511515908301526101e08082015115159083015261020080820151151590830152610220808201516001600160a01b0316908301526102408082015161ffff811682850152611139565b5f82825180855260208086019550808260051b8401018186015f5b84811015614d2557858303601f190189528151805184528401516040858501819052815181860181905291860191606090818701905f5b81811015614d0e578551805163ffffffff1684528a8101516001600160401b03168b850152858101516001600160a01b03908116878601528582015115158686015260808083015165ffffffffffff169086015260a09182015116908401529489019460c090920191600101614c9d565b50509b87019b955050509184019150600101614c66565b5090979650505050505050565b5f815180845260208085019450602084015f5b83811015614d7b57815180516001600160e01b0316885283015163ffffffff168388015260409096019590820190600101614d45565b509495945050505050565b5f82825180855260208086019550808260051b8401018186015f5b84811015614d2557601f19868403018952815160806001600160a01b0380835116865280878401511687870152506040808301518282880152614de683880182614d32565b9250505060608083015192508582038187015250614e048183614d32565b9a86019a9450505090830190600101614da1565b5f82825180855260208086019550808260051b8401018186015f5b84811015614d2557601f198684030189528151805165ffffffffffff1684528481015163ffffffff908116868601526040808301516001600160701b031690860152606080830151909116908501526080808201516001600160a01b03169085015260a0808201516103409190614eac82880182614b13565b505060c082015181610300870152614ec682870182614c4b565b91505060e08201519150848103610320860152614ee38183614d86565b9a86019a9450505090830190600101614e33565b5f808335601e19843603018112614f0c575f80fd5b83016020810192503590506001600160401b03811115614f2a575f80fd5b606081023603821315613a0a575f80fd5b5f8235603e19833603018112614f4f575f80fd5b90910192915050565b5f8383855260208086019550808560051b830101845f5b87811015614d2557848303601f19018952614f8a8288614f3b565b60408085018235614f9a81613855565b6001600160a01b038082168852614fb389860186614ef7565b898b018690529384905292945060609291508288015f5b8681101561501a578335614fdd81613855565b8316825260ff614fee858d01613eef565b168b8301528584013561500081613eff565b63ffffffff16828701529284019290840190600101614fca565b509d89019d9750505093860193505050600101614f6f565b6001600160a01b038716815260a060208201525f61505460a083018789613faa565b82810360408401526150668187614e18565b9050828103606084015261507b818587614f58565b83810360809094019390935250505f81526020019695505050505050565b634e487b7160e01b5f52600160045260245ffd5b848152608060208201525f6150c56080830186614e18565b82810360408401526150d8818587614f58565b83810360609094019390935250505f8152602001949350505050565b838152604060208201525f610c7b604083018486613faa565b868152608060208201525f615126608083018789613faa565b8281036040840152615139818688613faa565b915050826060830152979650505050505050565b5f808335601e19843603018112615162575f80fd5b8301803591506001600160401b0382111561517b575f80fd5b6020019150600781901b3603821315613a0a575f80fd5b803562ffffff81168114613877575f80fd5b5f602082840312156151b4575f80fd5b61099482615192565b5f8235607e19833603018112614f4f575f80fd5b5f808335601e198436030181126151e6575f80fd5b83016020810192503590506001600160401b03811115615204575f80fd5b8060051b3603821315613a0a575f80fd5b8183525f60208085019450825f5b85811015614d7b57813561523681613eff565b63ffffffff1687526001600160681b03615251838501614a9e565b168388015260408083013561526581613855565b6001600160a01b0316908801526060968701969190910190600101615223565b5f808335601e1984360301811261529a575f80fd5b83016020810192503590506001600160401b038111156152b8575f80fd5b60c081023603821315613a0a575f80fd5b80356001600160401b0381168114613877575f80fd5b8035613877816143fc565b8183525f60208085019450825f5b85811015614d7b57813561530b81613eff565b63ffffffff1687526001600160401b036153268385016152c9565b168388015260408083013561533a81613855565b6001600160a01b031690880152606082810135615356816143fc565b15159088015260808281013561536b816142e0565b65ffffffffffff169088015260a061538483820161386c565b6001600160a01b03169088015260c09687019691909101906001016152f8565b5f8383855260208086019550808560051b830101845f5b87811015614d2557848303601f1901895281353688900361011e190181126153e1575f80fd5b87016101206153ff856153f3846149b5565b65ffffffffffff169052565b61540b86830183614ef7565b828888015261541d8388018284615215565b92505050604061542e81840161494b565b61ffff1690860152606061544483820184615285565b878403838901526154568482846152ea565b935050505060806154688184016149db565b6001600160701b03169086015260a0615482838201613f10565b63ffffffff169086015260c0615499838201613f10565b63ffffffff169086015260e06154b083820161494b565b61ffff16908601526101006154c683820161494b565b61ffff169501949094525097830197908301906001016153bb565b5f808335601e198436030181126154f6575f80fd5b83016020810192503590506001600160401b03811115615514575f80fd5b8060061b3603821315613a0a575f80fd5b8183525f60208085019450825f5b85811015614d7b57813561554681613855565b6001600160a01b039081168852828401359061556182613855565b16878401526040968701969190910190600101615533565b5f808335601e1984360301811261558e575f80fd5b83016020810192503590506001600160401b038111156155ac575f80fd5b8060071b3603821315613a0a575f80fd5b5f604080840183356155ce81613855565b6001600160a01b0390811686526020906155ea86830187615579565b604060208a0152938490526060938489015f5b8281101561566657833561561081613855565b8516825262ffffff615623858801615192565b16868301528784013561563581613eff565b63ffffffff908116838a0152848801359061564f82613eff565b1682880152608093840193909101906001016155fd565b509998505050505050505050565b5f8383855260208086019550808560051b830101845f5b87811015614d2557848303601f190189526156a68288614f3b565b604080850182356156b681613855565b6001600160a01b0380821688526156cf89860186615579565b898b018690529384905292945060609291508288015f5b868110156157415783356156f981613855565b83168252838b013561570a81613eff565b63ffffffff16828c01528386013561572181613855565b8316828701528385013585830152608093840193909101906001016156e6565b509d89019d975050509386019350505060010161568b565b5f61576482836151d1565b60408552615776604086018284615674565b915050602083013560208501528091505092915050565b60e081525f61579c8a8b6151bd565b60c060e08401526157ad8182613f69565b60806101a08601526157c461022086018284613faa565b9150506157d46020830183613f69565b61019f1980878503016101c08801526157ee848385613faa565b93506157fd6040860186613f69565b9350915080878503016101e088015250615818838383613faa565b92505050606082013561020085015261583360208d01613f10565b63ffffffff8116610100860152915061584e60408d0161386c565b6001600160a01b038116610120860152915061586d60608d018d6151d1565b925060df1980868403016101408701526158888385846153a4565b935061589760808f018f6154e1565b935091508086850301610160870152506158b2838383615525565b925050506158c260a08c0161386c565b6001600160a01b031661018084015282810360208401526158e4818a8c614f58565b905082810360408401526158f881896155bd565b9050828103606084015261590c8188615759565b905082810360808401526159208187614e18565b9150508360a083015261467b60c08301846001600160a01b03169052565b838152606060208201525f6159566060830185615759565b90506001600160a01b0383166040830152949350505050565b848152836020820152606060408201525f613765606083018486615674565b5f602080838503121561599f575f80fd5b82516001600160401b038111156159b4575f80fd5b8301601f810185136159c4575f80fd5b80516159d26141a982614137565b81815260059190911b820183019083810190878311156159f0575f80fd5b928401925b828410156146ca578351615a0881613855565b825292840192908401906159f5565b5f823561015e198336030181126148d6575f80fd5b5f60808084018335601e19853603018112615a45575f80fd5b840160208181019135906001600160401b03821115615a62575f80fd5b6101c08083023603841315615a75575f80fd5b608089529382905260a0938489015f5b84811015615bba57615aa782615a9a88614a9e565b6001600160681b03169052565b615ab2848701613f10565b63ffffffff16848301526040615ac9878201613f10565b63ffffffff16908301526060615ae087820161494b565b61ffff1690830152615af386890161386c565b6001600160a01b031688830152858701358783015260c0615b15818801615192565b62ffffff169083015260e0615b2b878201613eef565b60ff1690830152610100615b408782016152df565b151590830152610120615b548782016152df565b151590830152610140615b688782016152df565b151590830152610160615b7c8782016152df565b151590830152610180615b908782016152df565b1515908301526101a0615ba48782016152df565b1515908301529482019490820190600101615a85565b50615bc760208a01613f10565b63ffffffff811660208c01529650615be160408a01613eef565b60ff811660408c01529650615bf860608a0161386c565b6001600160a01b03811660608c0152965061467b565b8035615c19816143fc565b151582526020810135615c2b816143fc565b151560208301526040810135615c40816143fc565b151560408301526060810135615c55816143fc565b8015156060840152505050565b838152606060208201525f615c778485613f69565b6101606060850152615c8e6101c085018284613faa565b915050615c9e6020860186613f69565b605f1980868503016080870152615cb6848385613faa565b9350615cc56040890189613f69565b93509150808685030160a0870152615cde848484613faa565b9350615cec6060890161386c565b6001600160a01b03811660c08801529250615d0a6080890189613f69565b93509150808685030160e0870152615d23848484613faa565b9350615d3260a08901896151bd565b925080868503016101008701525050615d4b8282615a2c565b915050615d5a60c0860161386c565b6001600160a01b0316610120840152615d7a610140840160e08701615c0e565b604092909201929092529392505050565b5f60208284031215615d9b575f80fd5b8135610994816143fc565b634e487b7160e01b5f52601260045260245ffd5b5f808335601e19843603018112615dcf575f80fd5b8301803591506001600160401b03821115615de8575f80fd5b6020019150600681901b3603821315613a0a575f80fd5b5f60c08284031215615e0f575f80fd5b60405160c081018181106001600160401b0382111715615e3157615e31613e9d565b6040528235615e3f81613eff565b8152615e4d602084016152c9565b60208201526040830135615e6081613855565b60408201526060830135615e73816143fc565b60608201526080830135615e86816142e0565b608082015260a0830135615e9981613855565b60a08201529392505050565b5f8235609e198336030181126148d6575f80fd5b5f815180845260208085019450602084015f5b83811015614d7b5781516001600160a01b031687529582019590820190600101615ecc565b5f60208083018184528085518083526040925060408601915060408160051b8701018488015f5b83811015615fa757888303603f19018552815180516001600160a01b031684528781015162ffffff1688850152868101516001600160681b03168785015260608082015163ffffffff908116918601919091526080808301519091169085015260a09081015160c091850182905290615f9381860183615eb9565b968901969450505090860190600101615f18565b509098975050505050505050565b5f8235603e198336030181126148d6575f80fdfea26469706673582212201b381ac800e437a9d14ed9d063e0d4e07407b56ecf703e331bd115417f55704064736f6c63430008170033",
	"deployedBytecode": "0x",
	"gitCommit": "081bb6214292ad191dbaab141533bee2bf076b84"
}