{
	"_format": "sphinx-sol-ct-artifact-1",
	"merkleRoot": "0xe8fdbc6f09b4544257cc6dd29d04f1d282b6573608698470d8a04a078c51e7f7",
	"contractName": "REVLoans",
	"address": "0xAd324D9F65F129e260Ae9F702B4bD57B9B0aE8F1",
	"abi": [
		{
			"type": "constructor",
			"inputs": [
				{
					"name": "projects",
					"type": "address",
					"internalType": "contract IJBProjects"
				},
				{
					"name": "revId",
					"type": "uint256",
					"internalType": "uint256"
				},
				{
					"name": "permit2",
					"type": "address",
					"internalType": "contract IPermit2"
				},
				{
					"name": "trustedForwarder",
					"type": "address",
					"internalType": "address"
				}
			],
			"stateMutability": "nonpayable"
		},
		{
			"type": "fallback",
			"stateMutability": "payable"
		},
		{
			"type": "receive",
			"stateMutability": "payable"
		},
		{
			"type": "function",
			"name": "LOAN_LIQUIDATION_DURATION",
			"inputs": [],
			"outputs": [
				{
					"name": "",
					"type": "uint256",
					"internalType": "uint256"
				}
			],
			"stateMutability": "view"
		},
		{
			"type": "function",
			"name": "MAX_PREPAID_PERCENT",
			"inputs": [],
			"outputs": [
				{
					"name": "",
					"type": "uint256",
					"internalType": "uint256"
				}
			],
			"stateMutability": "view"
		},
		{
			"type": "function",
			"name": "PERMIT2",
			"inputs": [],
			"outputs": [
				{
					"name": "",
					"type": "address",
					"internalType": "contract IPermit2"
				}
			],
			"stateMutability": "view"
		},
		{
			"type": "function",
			"name": "PROJECTS",
			"inputs": [],
			"outputs": [
				{
					"name": "",
					"type": "address",
					"internalType": "contract IJBProjects"
				}
			],
			"stateMutability": "view"
		},
		{
			"type": "function",
			"name": "REV_ID",
			"inputs": [],
			"outputs": [
				{
					"name": "",
					"type": "uint256",
					"internalType": "uint256"
				}
			],
			"stateMutability": "view"
		},
		{
			"type": "function",
			"name": "REV_PREPAID_FEE",
			"inputs": [],
			"outputs": [
				{
					"name": "",
					"type": "uint256",
					"internalType": "uint256"
				}
			],
			"stateMutability": "view"
		},
		{
			"type": "function",
			"name": "approve",
			"inputs": [
				{
					"name": "to",
					"type": "address",
					"internalType": "address"
				},
				{
					"name": "tokenId",
					"type": "uint256",
					"internalType": "uint256"
				}
			],
			"outputs": [],
			"stateMutability": "nonpayable"
		},
		{
			"type": "function",
			"name": "balanceOf",
			"inputs": [
				{
					"name": "owner",
					"type": "address",
					"internalType": "address"
				}
			],
			"outputs": [
				{
					"name": "",
					"type": "uint256",
					"internalType": "uint256"
				}
			],
			"stateMutability": "view"
		},
		{
			"type": "function",
			"name": "borrowFrom",
			"inputs": [
				{
					"name": "revnetId",
					"type": "uint256",
					"internalType": "uint256"
				},
				{
					"name": "source",
					"type": "tuple",
					"internalType": "struct REVLoanSource",
					"components": [
						{
							"name": "token",
							"type": "address",
							"internalType": "address"
						},
						{
							"name": "terminal",
							"type": "address",
							"internalType": "contract IJBPayoutTerminal"
						}
					]
				},
				{
					"name": "amount",
					"type": "uint256",
					"internalType": "uint256"
				},
				{
					"name": "collateral",
					"type": "uint256",
					"internalType": "uint256"
				},
				{
					"name": "beneficiary",
					"type": "address",
					"internalType": "address payable"
				},
				{
					"name": "prepaidFeePercent",
					"type": "uint256",
					"internalType": "uint256"
				}
			],
			"outputs": [
				{
					"name": "loanId",
					"type": "uint256",
					"internalType": "uint256"
				},
				{
					"name": "",
					"type": "tuple",
					"internalType": "struct REVLoan",
					"components": [
						{
							"name": "amount",
							"type": "uint112",
							"internalType": "uint112"
						},
						{
							"name": "collateral",
							"type": "uint112",
							"internalType": "uint112"
						},
						{
							"name": "createdAt",
							"type": "uint40",
							"internalType": "uint40"
						},
						{
							"name": "prepaidFeePercent",
							"type": "uint16",
							"internalType": "uint16"
						},
						{
							"name": "prepaidDuration",
							"type": "uint32",
							"internalType": "uint32"
						},
						{
							"name": "source",
							"type": "tuple",
							"internalType": "struct REVLoanSource",
							"components": [
								{
									"name": "token",
									"type": "address",
									"internalType": "address"
								},
								{
									"name": "terminal",
									"type": "address",
									"internalType": "contract IJBPayoutTerminal"
								}
							]
						}
					]
				}
			],
			"stateMutability": "nonpayable"
		},
		{
			"type": "function",
			"name": "borrowableAmountFrom",
			"inputs": [
				{
					"name": "revnetId",
					"type": "uint256",
					"internalType": "uint256"
				},
				{
					"name": "collateral",
					"type": "uint256",
					"internalType": "uint256"
				},
				{
					"name": "decimals",
					"type": "uint256",
					"internalType": "uint256"
				},
				{
					"name": "currency",
					"type": "uint256",
					"internalType": "uint256"
				}
			],
			"outputs": [
				{
					"name": "",
					"type": "uint256",
					"internalType": "uint256"
				}
			],
			"stateMutability": "view"
		},
		{
			"type": "function",
			"name": "determineSourceFeeAmount",
			"inputs": [
				{
					"name": "loan",
					"type": "tuple",
					"internalType": "struct REVLoan",
					"components": [
						{
							"name": "amount",
							"type": "uint112",
							"internalType": "uint112"
						},
						{
							"name": "collateral",
							"type": "uint112",
							"internalType": "uint112"
						},
						{
							"name": "createdAt",
							"type": "uint40",
							"internalType": "uint40"
						},
						{
							"name": "prepaidFeePercent",
							"type": "uint16",
							"internalType": "uint16"
						},
						{
							"name": "prepaidDuration",
							"type": "uint32",
							"internalType": "uint32"
						},
						{
							"name": "source",
							"type": "tuple",
							"internalType": "struct REVLoanSource",
							"components": [
								{
									"name": "token",
									"type": "address",
									"internalType": "address"
								},
								{
									"name": "terminal",
									"type": "address",
									"internalType": "contract IJBPayoutTerminal"
								}
							]
						}
					]
				},
				{
					"name": "amount",
					"type": "uint256",
					"internalType": "uint256"
				}
			],
			"outputs": [
				{
					"name": "",
					"type": "uint256",
					"internalType": "uint256"
				}
			],
			"stateMutability": "view"
		},
		{
			"type": "function",
			"name": "getApproved",
			"inputs": [
				{
					"name": "tokenId",
					"type": "uint256",
					"internalType": "uint256"
				}
			],
			"outputs": [
				{
					"name": "",
					"type": "address",
					"internalType": "address"
				}
			],
			"stateMutability": "view"
		},
		{
			"type": "function",
			"name": "isApprovedForAll",
			"inputs": [
				{
					"name": "owner",
					"type": "address",
					"internalType": "address"
				},
				{
					"name": "operator",
					"type": "address",
					"internalType": "address"
				}
			],
			"outputs": [
				{
					"name": "",
					"type": "bool",
					"internalType": "bool"
				}
			],
			"stateMutability": "view"
		},
		{
			"type": "function",
			"name": "isLoanSourceOf",
			"inputs": [
				{
					"name": "revnetId",
					"type": "uint256",
					"internalType": "uint256"
				},
				{
					"name": "terminal",
					"type": "address",
					"internalType": "contract IJBPayoutTerminal"
				},
				{
					"name": "token",
					"type": "address",
					"internalType": "address"
				}
			],
			"outputs": [
				{
					"name": "",
					"type": "bool",
					"internalType": "bool"
				}
			],
			"stateMutability": "view"
		},
		{
			"type": "function",
			"name": "isTrustedForwarder",
			"inputs": [
				{
					"name": "forwarder",
					"type": "address",
					"internalType": "address"
				}
			],
			"outputs": [
				{
					"name": "",
					"type": "bool",
					"internalType": "bool"
				}
			],
			"stateMutability": "view"
		},
		{
			"type": "function",
			"name": "lastLoanIdLiquidatedFrom",
			"inputs": [
				{
					"name": "revnetId",
					"type": "uint256",
					"internalType": "uint256"
				}
			],
			"outputs": [
				{
					"name": "",
					"type": "uint256",
					"internalType": "uint256"
				}
			],
			"stateMutability": "view"
		},
		{
			"type": "function",
			"name": "liquidateExpiredLoansFrom",
			"inputs": [
				{
					"name": "revnetId",
					"type": "uint256",
					"internalType": "uint256"
				},
				{
					"name": "count",
					"type": "uint256",
					"internalType": "uint256"
				}
			],
			"outputs": [],
			"stateMutability": "nonpayable"
		},
		{
			"type": "function",
			"name": "loanOf",
			"inputs": [
				{
					"name": "loanId",
					"type": "uint256",
					"internalType": "uint256"
				}
			],
			"outputs": [
				{
					"name": "",
					"type": "tuple",
					"internalType": "struct REVLoan",
					"components": [
						{
							"name": "amount",
							"type": "uint112",
							"internalType": "uint112"
						},
						{
							"name": "collateral",
							"type": "uint112",
							"internalType": "uint112"
						},
						{
							"name": "createdAt",
							"type": "uint40",
							"internalType": "uint40"
						},
						{
							"name": "prepaidFeePercent",
							"type": "uint16",
							"internalType": "uint16"
						},
						{
							"name": "prepaidDuration",
							"type": "uint32",
							"internalType": "uint32"
						},
						{
							"name": "source",
							"type": "tuple",
							"internalType": "struct REVLoanSource",
							"components": [
								{
									"name": "token",
									"type": "address",
									"internalType": "address"
								},
								{
									"name": "terminal",
									"type": "address",
									"internalType": "contract IJBPayoutTerminal"
								}
							]
						}
					]
				}
			],
			"stateMutability": "view"
		},
		{
			"type": "function",
			"name": "loanSourcesOf",
			"inputs": [
				{
					"name": "revnetId",
					"type": "uint256",
					"internalType": "uint256"
				}
			],
			"outputs": [
				{
					"name": "",
					"type": "tuple[]",
					"internalType": "struct REVLoanSource[]",
					"components": [
						{
							"name": "token",
							"type": "address",
							"internalType": "address"
						},
						{
							"name": "terminal",
							"type": "address",
							"internalType": "contract IJBPayoutTerminal"
						}
					]
				}
			],
			"stateMutability": "view"
		},
		{
			"type": "function",
			"name": "name",
			"inputs": [],
			"outputs": [
				{
					"name": "",
					"type": "string",
					"internalType": "string"
				}
			],
			"stateMutability": "view"
		},
		{
			"type": "function",
			"name": "numberOfLoansFor",
			"inputs": [
				{
					"name": "revnetId",
					"type": "uint256",
					"internalType": "uint256"
				}
			],
			"outputs": [
				{
					"name": "",
					"type": "uint256",
					"internalType": "uint256"
				}
			],
			"stateMutability": "view"
		},
		{
			"type": "function",
			"name": "ownerOf",
			"inputs": [
				{
					"name": "tokenId",
					"type": "uint256",
					"internalType": "uint256"
				}
			],
			"outputs": [
				{
					"name": "",
					"type": "address",
					"internalType": "address"
				}
			],
			"stateMutability": "view"
		},
		{
			"type": "function",
			"name": "reallocateCollateralFromLoan",
			"inputs": [
				{
					"name": "loanId",
					"type": "uint256",
					"internalType": "uint256"
				},
				{
					"name": "collateralToTransfer",
					"type": "uint256",
					"internalType": "uint256"
				},
				{
					"name": "source",
					"type": "tuple",
					"internalType": "struct REVLoanSource",
					"components": [
						{
							"name": "token",
							"type": "address",
							"internalType": "address"
						},
						{
							"name": "terminal",
							"type": "address",
							"internalType": "contract IJBPayoutTerminal"
						}
					]
				},
				{
					"name": "amount",
					"type": "uint256",
					"internalType": "uint256"
				},
				{
					"name": "collateralToAdd",
					"type": "uint256",
					"internalType": "uint256"
				},
				{
					"name": "beneficiary",
					"type": "address",
					"internalType": "address payable"
				},
				{
					"name": "prepaidFeePercent",
					"type": "uint256",
					"internalType": "uint256"
				}
			],
			"outputs": [
				{
					"name": "reallocatedLoanId",
					"type": "uint256",
					"internalType": "uint256"
				},
				{
					"name": "newLoanId",
					"type": "uint256",
					"internalType": "uint256"
				},
				{
					"name": "reallocatedLoan",
					"type": "tuple",
					"internalType": "struct REVLoan",
					"components": [
						{
							"name": "amount",
							"type": "uint112",
							"internalType": "uint112"
						},
						{
							"name": "collateral",
							"type": "uint112",
							"internalType": "uint112"
						},
						{
							"name": "createdAt",
							"type": "uint40",
							"internalType": "uint40"
						},
						{
							"name": "prepaidFeePercent",
							"type": "uint16",
							"internalType": "uint16"
						},
						{
							"name": "prepaidDuration",
							"type": "uint32",
							"internalType": "uint32"
						},
						{
							"name": "source",
							"type": "tuple",
							"internalType": "struct REVLoanSource",
							"components": [
								{
									"name": "token",
									"type": "address",
									"internalType": "address"
								},
								{
									"name": "terminal",
									"type": "address",
									"internalType": "contract IJBPayoutTerminal"
								}
							]
						}
					]
				},
				{
					"name": "newLoan",
					"type": "tuple",
					"internalType": "struct REVLoan",
					"components": [
						{
							"name": "amount",
							"type": "uint112",
							"internalType": "uint112"
						},
						{
							"name": "collateral",
							"type": "uint112",
							"internalType": "uint112"
						},
						{
							"name": "createdAt",
							"type": "uint40",
							"internalType": "uint40"
						},
						{
							"name": "prepaidFeePercent",
							"type": "uint16",
							"internalType": "uint16"
						},
						{
							"name": "prepaidDuration",
							"type": "uint32",
							"internalType": "uint32"
						},
						{
							"name": "source",
							"type": "tuple",
							"internalType": "struct REVLoanSource",
							"components": [
								{
									"name": "token",
									"type": "address",
									"internalType": "address"
								},
								{
									"name": "terminal",
									"type": "address",
									"internalType": "contract IJBPayoutTerminal"
								}
							]
						}
					]
				}
			],
			"stateMutability": "payable"
		},
		{
			"type": "function",
			"name": "repayLoan",
			"inputs": [
				{
					"name": "loanId",
					"type": "uint256",
					"internalType": "uint256"
				},
				{
					"name": "amount",
					"type": "uint256",
					"internalType": "uint256"
				},
				{
					"name": "collateralToReturn",
					"type": "uint256",
					"internalType": "uint256"
				},
				{
					"name": "beneficiary",
					"type": "address",
					"internalType": "address payable"
				},
				{
					"name": "allowance",
					"type": "tuple",
					"internalType": "struct JBSingleAllowance",
					"components": [
						{
							"name": "sigDeadline",
							"type": "uint256",
							"internalType": "uint256"
						},
						{
							"name": "amount",
							"type": "uint160",
							"internalType": "uint160"
						},
						{
							"name": "expiration",
							"type": "uint48",
							"internalType": "uint48"
						},
						{
							"name": "nonce",
							"type": "uint48",
							"internalType": "uint48"
						},
						{
							"name": "signature",
							"type": "bytes",
							"internalType": "bytes"
						}
					]
				}
			],
			"outputs": [
				{
					"name": "",
					"type": "uint256",
					"internalType": "uint256"
				},
				{
					"name": "",
					"type": "tuple",
					"internalType": "struct REVLoan",
					"components": [
						{
							"name": "amount",
							"type": "uint112",
							"internalType": "uint112"
						},
						{
							"name": "collateral",
							"type": "uint112",
							"internalType": "uint112"
						},
						{
							"name": "createdAt",
							"type": "uint40",
							"internalType": "uint40"
						},
						{
							"name": "prepaidFeePercent",
							"type": "uint16",
							"internalType": "uint16"
						},
						{
							"name": "prepaidDuration",
							"type": "uint32",
							"internalType": "uint32"
						},
						{
							"name": "source",
							"type": "tuple",
							"internalType": "struct REVLoanSource",
							"components": [
								{
									"name": "token",
									"type": "address",
									"internalType": "address"
								},
								{
									"name": "terminal",
									"type": "address",
									"internalType": "contract IJBPayoutTerminal"
								}
							]
						}
					]
				}
			],
			"stateMutability": "payable"
		},
		{
			"type": "function",
			"name": "revnetIdOfLoanWith",
			"inputs": [
				{
					"name": "loanId",
					"type": "uint256",
					"internalType": "uint256"
				}
			],
			"outputs": [
				{
					"name": "",
					"type": "uint256",
					"internalType": "uint256"
				}
			],
			"stateMutability": "pure"
		},
		{
			"type": "function",
			"name": "safeTransferFrom",
			"inputs": [
				{
					"name": "from",
					"type": "address",
					"internalType": "address"
				},
				{
					"name": "to",
					"type": "address",
					"internalType": "address"
				},
				{
					"name": "tokenId",
					"type": "uint256",
					"internalType": "uint256"
				}
			],
			"outputs": [],
			"stateMutability": "nonpayable"
		},
		{
			"type": "function",
			"name": "safeTransferFrom",
			"inputs": [
				{
					"name": "from",
					"type": "address",
					"internalType": "address"
				},
				{
					"name": "to",
					"type": "address",
					"internalType": "address"
				},
				{
					"name": "tokenId",
					"type": "uint256",
					"internalType": "uint256"
				},
				{
					"name": "data",
					"type": "bytes",
					"internalType": "bytes"
				}
			],
			"outputs": [],
			"stateMutability": "nonpayable"
		},
		{
			"type": "function",
			"name": "setApprovalForAll",
			"inputs": [
				{
					"name": "operator",
					"type": "address",
					"internalType": "address"
				},
				{
					"name": "approved",
					"type": "bool",
					"internalType": "bool"
				}
			],
			"outputs": [],
			"stateMutability": "nonpayable"
		},
		{
			"type": "function",
			"name": "supportsInterface",
			"inputs": [
				{
					"name": "interfaceId",
					"type": "bytes4",
					"internalType": "bytes4"
				}
			],
			"outputs": [
				{
					"name": "",
					"type": "bool",
					"internalType": "bool"
				}
			],
			"stateMutability": "view"
		},
		{
			"type": "function",
			"name": "symbol",
			"inputs": [],
			"outputs": [
				{
					"name": "",
					"type": "string",
					"internalType": "string"
				}
			],
			"stateMutability": "view"
		},
		{
			"type": "function",
			"name": "tokenURI",
			"inputs": [
				{
					"name": "tokenId",
					"type": "uint256",
					"internalType": "uint256"
				}
			],
			"outputs": [
				{
					"name": "",
					"type": "string",
					"internalType": "string"
				}
			],
			"stateMutability": "view"
		},
		{
			"type": "function",
			"name": "totalBorrowedFrom",
			"inputs": [
				{
					"name": "revnetId",
					"type": "uint256",
					"internalType": "uint256"
				},
				{
					"name": "terminal",
					"type": "address",
					"internalType": "contract IJBPayoutTerminal"
				},
				{
					"name": "token",
					"type": "address",
					"internalType": "address"
				}
			],
			"outputs": [
				{
					"name": "",
					"type": "uint256",
					"internalType": "uint256"
				}
			],
			"stateMutability": "view"
		},
		{
			"type": "function",
			"name": "totalCollateralOf",
			"inputs": [
				{
					"name": "revnetId",
					"type": "uint256",
					"internalType": "uint256"
				}
			],
			"outputs": [
				{
					"name": "",
					"type": "uint256",
					"internalType": "uint256"
				}
			],
			"stateMutability": "view"
		},
		{
			"type": "function",
			"name": "transferFrom",
			"inputs": [
				{
					"name": "from",
					"type": "address",
					"internalType": "address"
				},
				{
					"name": "to",
					"type": "address",
					"internalType": "address"
				},
				{
					"name": "tokenId",
					"type": "uint256",
					"internalType": "uint256"
				}
			],
			"outputs": [],
			"stateMutability": "nonpayable"
		},
		{
			"type": "function",
			"name": "trustedForwarder",
			"inputs": [],
			"outputs": [
				{
					"name": "",
					"type": "address",
					"internalType": "address"
				}
			],
			"stateMutability": "view"
		},
		{
			"type": "event",
			"name": "Approval",
			"inputs": [
				{
					"name": "owner",
					"type": "address",
					"indexed": true,
					"internalType": "address"
				},
				{
					"name": "approved",
					"type": "address",
					"indexed": true,
					"internalType": "address"
				},
				{
					"name": "tokenId",
					"type": "uint256",
					"indexed": true,
					"internalType": "uint256"
				}
			],
			"anonymous": false
		},
		{
			"type": "event",
			"name": "ApprovalForAll",
			"inputs": [
				{
					"name": "owner",
					"type": "address",
					"indexed": true,
					"internalType": "address"
				},
				{
					"name": "operator",
					"type": "address",
					"indexed": true,
					"internalType": "address"
				},
				{
					"name": "approved",
					"type": "bool",
					"indexed": false,
					"internalType": "bool"
				}
			],
			"anonymous": false
		},
		{
			"type": "event",
			"name": "Borrow",
			"inputs": [
				{
					"name": "loanId",
					"type": "uint256",
					"indexed": true,
					"internalType": "uint256"
				},
				{
					"name": "revnetId",
					"type": "uint256",
					"indexed": true,
					"internalType": "uint256"
				},
				{
					"name": "loan",
					"type": "tuple",
					"indexed": false,
					"internalType": "struct REVLoan",
					"components": [
						{
							"name": "amount",
							"type": "uint112",
							"internalType": "uint112"
						},
						{
							"name": "collateral",
							"type": "uint112",
							"internalType": "uint112"
						},
						{
							"name": "createdAt",
							"type": "uint40",
							"internalType": "uint40"
						},
						{
							"name": "prepaidFeePercent",
							"type": "uint16",
							"internalType": "uint16"
						},
						{
							"name": "prepaidDuration",
							"type": "uint32",
							"internalType": "uint32"
						},
						{
							"name": "source",
							"type": "tuple",
							"internalType": "struct REVLoanSource",
							"components": [
								{
									"name": "token",
									"type": "address",
									"internalType": "address"
								},
								{
									"name": "terminal",
									"type": "address",
									"internalType": "contract IJBPayoutTerminal"
								}
							]
						}
					]
				},
				{
					"name": "source",
					"type": "tuple",
					"indexed": false,
					"internalType": "struct REVLoanSource",
					"components": [
						{
							"name": "token",
							"type": "address",
							"internalType": "address"
						},
						{
							"name": "terminal",
							"type": "address",
							"internalType": "contract IJBPayoutTerminal"
						}
					]
				},
				{
					"name": "amount",
					"type": "uint256",
					"indexed": false,
					"internalType": "uint256"
				},
				{
					"name": "collateral",
					"type": "uint256",
					"indexed": false,
					"internalType": "uint256"
				},
				{
					"name": "beneficiary",
					"type": "address",
					"indexed": false,
					"internalType": "address payable"
				},
				{
					"name": "caller",
					"type": "address",
					"indexed": false,
					"internalType": "address"
				}
			],
			"anonymous": false
		},
		{
			"type": "event",
			"name": "Liquidate",
			"inputs": [
				{
					"name": "loanId",
					"type": "uint256",
					"indexed": true,
					"internalType": "uint256"
				},
				{
					"name": "revnetId",
					"type": "uint256",
					"indexed": true,
					"internalType": "uint256"
				},
				{
					"name": "loan",
					"type": "tuple",
					"indexed": false,
					"internalType": "struct REVLoan",
					"components": [
						{
							"name": "amount",
							"type": "uint112",
							"internalType": "uint112"
						},
						{
							"name": "collateral",
							"type": "uint112",
							"internalType": "uint112"
						},
						{
							"name": "createdAt",
							"type": "uint40",
							"internalType": "uint40"
						},
						{
							"name": "prepaidFeePercent",
							"type": "uint16",
							"internalType": "uint16"
						},
						{
							"name": "prepaidDuration",
							"type": "uint32",
							"internalType": "uint32"
						},
						{
							"name": "source",
							"type": "tuple",
							"internalType": "struct REVLoanSource",
							"components": [
								{
									"name": "token",
									"type": "address",
									"internalType": "address"
								},
								{
									"name": "terminal",
									"type": "address",
									"internalType": "contract IJBPayoutTerminal"
								}
							]
						}
					]
				},
				{
					"name": "caller",
					"type": "address",
					"indexed": false,
					"internalType": "address"
				}
			],
			"anonymous": false
		},
		{
			"type": "event",
			"name": "ReallocateCollateral",
			"inputs": [
				{
					"name": "loanId",
					"type": "uint256",
					"indexed": true,
					"internalType": "uint256"
				},
				{
					"name": "reallocatedLoanId",
					"type": "uint256",
					"indexed": true,
					"internalType": "uint256"
				},
				{
					"name": "revnetId",
					"type": "uint256",
					"indexed": true,
					"internalType": "uint256"
				},
				{
					"name": "reallocatedLoan",
					"type": "tuple",
					"indexed": false,
					"internalType": "struct REVLoan",
					"components": [
						{
							"name": "amount",
							"type": "uint112",
							"internalType": "uint112"
						},
						{
							"name": "collateral",
							"type": "uint112",
							"internalType": "uint112"
						},
						{
							"name": "createdAt",
							"type": "uint40",
							"internalType": "uint40"
						},
						{
							"name": "prepaidFeePercent",
							"type": "uint16",
							"internalType": "uint16"
						},
						{
							"name": "prepaidDuration",
							"type": "uint32",
							"internalType": "uint32"
						},
						{
							"name": "source",
							"type": "tuple",
							"internalType": "struct REVLoanSource",
							"components": [
								{
									"name": "token",
									"type": "address",
									"internalType": "address"
								},
								{
									"name": "terminal",
									"type": "address",
									"internalType": "contract IJBPayoutTerminal"
								}
							]
						}
					]
				},
				{
					"name": "removedCollateral",
					"type": "uint256",
					"indexed": false,
					"internalType": "uint256"
				},
				{
					"name": "caller",
					"type": "address",
					"indexed": false,
					"internalType": "address"
				}
			],
			"anonymous": false
		},
		{
			"type": "event",
			"name": "RepayLoan",
			"inputs": [
				{
					"name": "loanId",
					"type": "uint256",
					"indexed": true,
					"internalType": "uint256"
				},
				{
					"name": "revnetId",
					"type": "uint256",
					"indexed": true,
					"internalType": "uint256"
				},
				{
					"name": "paidOffLoanId",
					"type": "uint256",
					"indexed": true,
					"internalType": "uint256"
				},
				{
					"name": "loan",
					"type": "tuple",
					"indexed": false,
					"internalType": "struct REVLoan",
					"components": [
						{
							"name": "amount",
							"type": "uint112",
							"internalType": "uint112"
						},
						{
							"name": "collateral",
							"type": "uint112",
							"internalType": "uint112"
						},
						{
							"name": "createdAt",
							"type": "uint40",
							"internalType": "uint40"
						},
						{
							"name": "prepaidFeePercent",
							"type": "uint16",
							"internalType": "uint16"
						},
						{
							"name": "prepaidDuration",
							"type": "uint32",
							"internalType": "uint32"
						},
						{
							"name": "source",
							"type": "tuple",
							"internalType": "struct REVLoanSource",
							"components": [
								{
									"name": "token",
									"type": "address",
									"internalType": "address"
								},
								{
									"name": "terminal",
									"type": "address",
									"internalType": "contract IJBPayoutTerminal"
								}
							]
						}
					]
				},
				{
					"name": "paidOffLoan",
					"type": "tuple",
					"indexed": false,
					"internalType": "struct REVLoan",
					"components": [
						{
							"name": "amount",
							"type": "uint112",
							"internalType": "uint112"
						},
						{
							"name": "collateral",
							"type": "uint112",
							"internalType": "uint112"
						},
						{
							"name": "createdAt",
							"type": "uint40",
							"internalType": "uint40"
						},
						{
							"name": "prepaidFeePercent",
							"type": "uint16",
							"internalType": "uint16"
						},
						{
							"name": "prepaidDuration",
							"type": "uint32",
							"internalType": "uint32"
						},
						{
							"name": "source",
							"type": "tuple",
							"internalType": "struct REVLoanSource",
							"components": [
								{
									"name": "token",
									"type": "address",
									"internalType": "address"
								},
								{
									"name": "terminal",
									"type": "address",
									"internalType": "contract IJBPayoutTerminal"
								}
							]
						}
					]
				},
				{
					"name": "amount",
					"type": "uint256",
					"indexed": false,
					"internalType": "uint256"
				},
				{
					"name": "sourceFeeAmount",
					"type": "uint256",
					"indexed": false,
					"internalType": "uint256"
				},
				{
					"name": "collateralToReturn",
					"type": "uint256",
					"indexed": false,
					"internalType": "uint256"
				},
				{
					"name": "beneficiary",
					"type": "address",
					"indexed": false,
					"internalType": "address payable"
				},
				{
					"name": "caller",
					"type": "address",
					"indexed": false,
					"internalType": "address"
				}
			],
			"anonymous": false
		},
		{
			"type": "event",
			"name": "Transfer",
			"inputs": [
				{
					"name": "from",
					"type": "address",
					"indexed": true,
					"internalType": "address"
				},
				{
					"name": "to",
					"type": "address",
					"indexed": true,
					"internalType": "address"
				},
				{
					"name": "tokenId",
					"type": "uint256",
					"indexed": true,
					"internalType": "uint256"
				}
			],
			"anonymous": false
		},
		{
			"type": "error",
			"name": "AddressEmptyCode",
			"inputs": [
				{
					"name": "target",
					"type": "address",
					"internalType": "address"
				}
			]
		},
		{
			"type": "error",
			"name": "AddressInsufficientBalance",
			"inputs": [
				{
					"name": "account",
					"type": "address",
					"internalType": "address"
				}
			]
		},
		{
			"type": "error",
			"name": "ERC721IncorrectOwner",
			"inputs": [
				{
					"name": "sender",
					"type": "address",
					"internalType": "address"
				},
				{
					"name": "tokenId",
					"type": "uint256",
					"internalType": "uint256"
				},
				{
					"name": "owner",
					"type": "address",
					"internalType": "address"
				}
			]
		},
		{
			"type": "error",
			"name": "ERC721InsufficientApproval",
			"inputs": [
				{
					"name": "operator",
					"type": "address",
					"internalType": "address"
				},
				{
					"name": "tokenId",
					"type": "uint256",
					"internalType": "uint256"
				}
			]
		},
		{
			"type": "error",
			"name": "ERC721InvalidApprover",
			"inputs": [
				{
					"name": "approver",
					"type": "address",
					"internalType": "address"
				}
			]
		},
		{
			"type": "error",
			"name": "ERC721InvalidOperator",
			"inputs": [
				{
					"name": "operator",
					"type": "address",
					"internalType": "address"
				}
			]
		},
		{
			"type": "error",
			"name": "ERC721InvalidOwner",
			"inputs": [
				{
					"name": "owner",
					"type": "address",
					"internalType": "address"
				}
			]
		},
		{
			"type": "error",
			"name": "ERC721InvalidReceiver",
			"inputs": [
				{
					"name": "receiver",
					"type": "address",
					"internalType": "address"
				}
			]
		},
		{
			"type": "error",
			"name": "ERC721InvalidSender",
			"inputs": [
				{
					"name": "sender",
					"type": "address",
					"internalType": "address"
				}
			]
		},
		{
			"type": "error",
			"name": "ERC721NonexistentToken",
			"inputs": [
				{
					"name": "tokenId",
					"type": "uint256",
					"internalType": "uint256"
				}
			]
		},
		{
			"type": "error",
			"name": "FailedInnerCall",
			"inputs": []
		},
		{
			"type": "error",
			"name": "PRBMath_MulDiv_Overflow",
			"inputs": [
				{
					"name": "x",
					"type": "uint256",
					"internalType": "uint256"
				},
				{
					"name": "y",
					"type": "uint256",
					"internalType": "uint256"
				},
				{
					"name": "denominator",
					"type": "uint256",
					"internalType": "uint256"
				}
			]
		},
		{
			"type": "error",
			"name": "REVLoans_AmountNotSpecified",
			"inputs": []
		},
		{
			"type": "error",
			"name": "REVLoans_CollateralExceedsLoan",
			"inputs": []
		},
		{
			"type": "error",
			"name": "REVLoans_InvalidPrepaidFeePercent",
			"inputs": []
		},
		{
			"type": "error",
			"name": "REVLoans_LoanExpired",
			"inputs": []
		},
		{
			"type": "error",
			"name": "REVLoans_NoMsgValueAllowed",
			"inputs": []
		},
		{
			"type": "error",
			"name": "REVLoans_NotEnoughCollateral",
			"inputs": []
		},
		{
			"type": "error",
			"name": "REVLoans_Overpayment",
			"inputs": []
		},
		{
			"type": "error",
			"name": "REVLoans_PermitAllowanceNotEnough",
			"inputs": []
		},
		{
			"type": "error",
			"name": "REVLoans_Unauthorized",
			"inputs": []
		},
		{
			"type": "error",
			"name": "ReentrancyGuardReentrantCall",
			"inputs": []
		},
		{
			"type": "error",
			"name": "SafeERC20FailedOperation",
			"inputs": [
				{
					"name": "token",
					"type": "address",
					"internalType": "address"
				}
			]
		}
	],
	"solcInputHash": "d6cfecce5786581feb7c8233ee5e40a4",
	"args": [
		"0xEcB62030E30Bb027F672F24692111492Ba2Bbc84",
		"3",
		"0x000000000022D473030F116dDEE9F6B43aC78BA3",
		"0xB2b5841DBeF766d4b521221732F9B618fCf34A87"
	],
	"bytecode": "0x6101006040523480156200001257600080fd5b5060405162005e0738038062005e078339810160408190526200003591620000df565b8060405180604001604052806009815260200168524556204c6f616e7360b81b81525060405180604001604052806008815260200167122922ab2627a0a760c11b81525081600090816200008a9190620001e2565b506001620000998282620001e2565b5050506001600160a01b03908116608052600160065593841660c0525060e0919091521660a052620002ae565b6001600160a01b0381168114620000dc57600080fd5b50565b60008060008060808587031215620000f657600080fd5b84516200010381620000c6565b6020860151604087015191955093506200011d81620000c6565b60608601519092506200013081620000c6565b939692955090935050565b634e487b7160e01b600052604160045260246000fd5b600181811c908216806200016657607f821691505b6020821081036200018757634e487b7160e01b600052602260045260246000fd5b50919050565b601f821115620001dd576000816000526020600020601f850160051c81016020861015620001b85750805b601f850160051c820191505b81811015620001d957828155600101620001c4565b5050505b505050565b81516001600160401b03811115620001fe57620001fe6200013b565b62000216816200020f845462000151565b846200018d565b602080601f8311600181146200024e5760008415620002355750858301515b600019600386901b1c1916600185901b178555620001d9565b600085815260208120601f198616915b828110156200027f578886015182559484019460019091019084016200025e565b50858210156200029e5787850151600019600388901b60f8161c191681555b5050505050600190811b01905550565b60805160a05160c05160e051615ad262000335600039600081816103bb01528181612bc401528181612f9001528181613de40152613f91015260008181610387015281816110ea015281816114e001526126c701526000818161052c01528181611d7c01526139f30152600081816104700152818161057d01526136730152615ad26000f3fe6080604052600436106102165760003560e01c806368fbf84e11610126578063a8dcb496116100a7578063ddad527111610079578063e985e9c511610061578063e985e9c51461073e578063f148b41914610787578063fbe7f3b11461079d57005b8063ddad5271146106d0578063e4ba13c71461071157005b8063a8dcb49614610643578063b88d4fde14610663578063c4d8ea3c14610683578063c87b56dd146106b057005b806383b4cf2f116100f8578063a21cd6f8116100e0578063a21cd6f8146105d6578063a22cb46514610603578063a4a0481a1461062357005b806383b4cf2f146105a157806395d89b41146105c157005b806368fbf84e146104ed5780636afdd8501461051a57806370a082311461054e5780637da0a8771461056e57005b806323b872dd116101b057806342842e0e11610182578063572b6c051161016a578063572b6c05146104535780636352211e146104a057806366707989146104c057005b806342842e0e146103f5578063501158691461041557005b806323b872dd14610355578063293c49991461037557806331011c54146103a95780633e73ec33146103dd57005b8063081812fc116101e9578063081812fc146102b9578063095ea7b3146102f157806309c58621146103115780630ba8827d1461033257005b8062cb35551461021f57806301ffc9a7146102475780630582928e1461027757806306fdde031461029757005b3661021d57005b005b34801561022b57600080fd5b50610234600581565b6040519081526020015b60405180910390f35b34801561025357600080fd5b50610267610262366004614969565b6107bd565b604051901515815260200161023e565b34801561028357600080fd5b50610234610292366004614986565b61085a565b3480156102a357600080fd5b506102ac61086b565b60405161023e91906149ef565b3480156102c557600080fd5b506102d96102d4366004614986565b6108fd565b6040516001600160a01b03909116815260200161023e565b3480156102fd57600080fd5b5061021d61030c366004614a17565b610926565b61032461031f366004614a43565b61093c565b60405161023e929190614b29565b610345610340366004614b56565b610a84565b60405161023e9493929190614bbf565b34801561036157600080fd5b5061021d610370366004614be9565b610c67565b34801561038157600080fd5b506102d97f000000000000000000000000000000000000000000000000000000000000000081565b3480156103b557600080fd5b506102347f000000000000000000000000000000000000000000000000000000000000000081565b3480156103e957600080fd5b506102346312cc030081565b34801561040157600080fd5b5061021d610410366004614be9565b610d17565b34801561042157600080fd5b50610234610430366004614c2a565b600a60209081526000938452604080852082529284528284209052825290205481565b34801561045f57600080fd5b5061026761046e366004614c6c565b7f00000000000000000000000000000000000000000000000000000000000000006001600160a01b0390811691161490565b3480156104ac57600080fd5b506102d96104bb366004614986565b610d37565b3480156104cc57600080fd5b506102346104db366004614986565b600b6020526000908152604090205481565b3480156104f957600080fd5b50610234610508366004614986565b60086020526000908152604090205481565b34801561052657600080fd5b506102d97f000000000000000000000000000000000000000000000000000000000000000081565b34801561055a57600080fd5b50610234610569366004614c6c565b610d42565b34801561057a57600080fd5b507f00000000000000000000000000000000000000000000000000000000000000006102d9565b3480156105ad57600080fd5b506103246105bc366004614c89565b610da3565b3480156105cd57600080fd5b506102ac61101b565b3480156105e257600080fd5b506105f66105f1366004614986565b61102a565b60405161023e9190614ce6565b34801561060f57600080fd5b5061021d61061e366004614d57565b6110b5565b34801561062f57600080fd5b5061023461063e366004614d90565b6110c7565b34801561064f57600080fd5b5061021d61065e366004614dc2565b6114ae565b34801561066f57600080fd5b5061021d61067e366004614ee8565b611a57565b34801561068f57600080fd5b5061023461069e366004614986565b60096020526000908152604090205481565b3480156106bc57600080fd5b506102ac6106cb366004614986565b611a6e565b3480156106dc57600080fd5b506102676106eb366004614c2a565b600760209081526000938452604080852082529284528284209052825290205460ff1681565b34801561071d57600080fd5b5061073161072c366004614986565b611ae3565b60405161023e9190614f54565b34801561074a57600080fd5b50610267610759366004614f62565b6001600160a01b03918216600090815260056020908152604080832093909416825291909152205460ff1690565b34801561079357600080fd5b506102346101f481565b3480156107a957600080fd5b506102346107b836600461503c565b611bcd565b60006001600160e01b031982167f80ac58cd00000000000000000000000000000000000000000000000000000000148061082057506001600160e01b031982167f5b5e139f00000000000000000000000000000000000000000000000000000000145b8061085457507f01ffc9a7000000000000000000000000000000000000000000000000000000006001600160e01b03198316145b92915050565b600061085464e8d4a5100083615113565b60606000805461087a90615135565b80601f01602080910402602001604051908101604052809291908181526020018280546108a690615135565b80156108f35780601f106108c8576101008083540402835291602001916108f3565b820191906000526020600020905b8154815290600101906020018083116108d657829003601f168201915b5050505050905090565b600061090882611bd9565b506000828152600460205260409020546001600160a01b0316610854565b6109388282610933611c12565b611c21565b5050565b60006109836040805160c08101825260008082526020808301829052828401829052606083018290526080830182905283518085019094528184528301529060a082015290565b61098b611c2e565b610993611c12565b6001600160a01b03166109bb886000908152600260205260409020546001600160a01b031690565b6001600160a01b0316146109e25760405163e987cc8360e01b815260040160405180910390fd5b6000878152600d602052604090208054600160701b90046001600160701b0316861115610a3b576040517fdcd6f87700000000000000000000000000000000000000000000000000000000815260040160405180910390fd5b6002810154610a5c906001600160a01b031688610a578761517d565b611c71565b9650610a6b8882898989611e6d565b9250925050610a7a6001600655565b9550959350505050565b600080610acc6040805160c08101825260008082526020808301829052828401829052606083018290526080830182905283518085019094528184528301529060a082015290565b610b116040805160c08101825260008082526020808301829052828401829052606083018290526080830182905283518085019094528184528301529060a082015290565b610b19611c12565b6001600160a01b0316610b418c6000908152600260205260409020546001600160a01b031690565b6001600160a01b031614610b685760405163e987cc8360e01b815260040160405180910390fd5b87600003610b895760405163a81d13d560e01b815260040160405180910390fd5b610b9c8b610b968d61085a565b8c612284565b6040805160c08101825282546001600160701b038082168352600160701b90910416602080830191909152600184015464ffffffffff81168385015265010000000000810461ffff166060840152670100000000000000900463ffffffff166080830152825180840190935260028401546001600160a01b0390811684526003909401549093169282019290925260a08201529094509150610c53610c408561085a565b8a8a610c4c8b8f61522a565b8a8a610da3565b949c909b5091995092975095505050505050565b6001600160a01b038216610c9657604051633250574960e11b8152600060048201526024015b60405180910390fd5b6000610caa8383610ca5611c12565b61241f565b9050836001600160a01b0316816001600160a01b031614610d11576040517f64283d7b0000000000000000000000000000000000000000000000000000000081526001600160a01b0380861660048301526024820184905282166044820152606401610c8d565b50505050565b610d3283838360405180602001604052806000815250611a57565b505050565b600061085482611bd9565b60006001600160a01b038216610d87576040517f89c62b6400000000000000000000000000000000000000000000000000000000815260006004820152602401610c8d565b506001600160a01b031660009081526003602052604090205490565b6000610dea6040805160c08101825260008082526020808301829052828401829052606083018290526080830182905283518085019094528184528301529060a082015290565b610df2611c2e565b85600003610e135760405163a81d13d560e01b815260040160405180910390fd5b6101f4831115610e4f576040517f7f05e6b000000000000000000000000000000000000000000000000000000000815260040160405180910390fd5b60008881526009602052604081208054610e79928b9291610e6f9061523d565b9182905550612518565b9150610e8c610e86611c12565b83612534565b6000828152600d602052604090208760028201610ea98282615256565b505060018101805461ffff8616650100000000000266ffffffffffffff1990911664ffffffffff421617179055610ee7846312cc03006101f46125b2565b8160010160076101000a81548163ffffffff021916908363ffffffff1602179055506000610f15888661269f565b9050610f25828b8a8a858b6126ae565b89847f263a4ba8c3b0e66367115fe7c402b0f8806adb9d0b42e82794c4f6ba5f072a41848c8c8c8c610f55611c12565b604051610f67969594939291906152ab565b60405180910390a3506040805160c08101825282546001600160701b038082168352600160701b90910416602080830191909152600184015464ffffffffff81168385015261ffff65010000000000820416606084015263ffffffff670100000000000000909104166080830152825180840190935260028401546001600160a01b0390811684526003909401549093169282019290925260a082015290506110106001600655565b965096945050505050565b60606001805461087a90615135565b6060600c6000838152602001908152602001600020805480602002602001604051908101604052809291908181526020016000905b828210156110aa576000848152602090819020604080518082019091526002850290910180546001600160a01b0390811683526001918201541682840152908352909201910161105f565b505050509050919050565b6109386110c0611c12565b838361309c565b6040516331a9108f60e11b81526004810185905260009081906001600160a01b037f00000000000000000000000000000000000000000000000000000000000000001690636352211e90602401602060405180830381865afa158015611131573d6000803e3d6000fd5b505050506040513d601f19601f820116820180604052508101906111559190615379565b90506000816001600160a01b031663ee0fc1216040518163ffffffff1660e01b8152600401602060405180830381865afa158015611197573d6000803e3d6000fd5b505050506040513d601f19601f820116820180604052508101906111bb9190615379565b90506114a18787846001600160a01b031663181396908b6040518263ffffffff1660e01b81526004016111f091815260200190565b602060405180830381865afa15801561120d573d6000803e3d6000fd5b505050506040513d601f19601f820116820180604052508101906112319190615396565b8888866001600160a01b031663d4a1b4b16040518163ffffffff1660e01b8152600401602060405180830381865afa158015611271573d6000803e3d6000fd5b505050506040513d601f19601f820116820180604052508101906112959190615379565b6001600160a01b03166343a266c28e6040518263ffffffff1660e01b81526004016112c291815260200190565b61012060405180830381865afa1580156112e0573d6000803e3d6000fd5b505050506040513d601f19601f8201168201806040525081019061130491906153db565b876001600160a01b03166388bc2ef36040518163ffffffff1660e01b8152600401602060405180830381865afa158015611342573d6000803e3d6000fd5b505050506040513d601f19601f820116820180604052508101906113669190615379565b6001600160a01b031663d17541538f6040518263ffffffff1660e01b815260040161139391815260200190565b600060405180830381865afa1580156113b0573d6000803e3d6000fd5b505050506040513d6000823e601f3d908101601f191682016040526113d8919081019061548c565b886001600160a01b0316631eabcd346040518163ffffffff1660e01b8152600401602060405180830381865afa158015611416573d6000803e3d6000fd5b505050506040513d601f19601f8201168201806040525081019061143a9190615379565b896001600160a01b0316631d831d5c6040518163ffffffff1660e01b8152600401602060405180830381865afa158015611478573d6000803e3d6000fd5b505050506040513d601f19601f8201168201806040525081019061149c9190615379565b613154565b925050505b949350505050565b6114b6611c2e565b6000828152600860205260408082205490516331a9108f60e11b81526004810185905290919081907f00000000000000000000000000000000000000000000000000000000000000006001600160a01b031690636352211e90602401602060405180830381865afa15801561152f573d6000803e3d6000fd5b505050506040513d601f19601f820116820180604052508101906115539190615379565b90506000816001600160a01b031663ee0fc1216040518163ffffffff1660e01b8152600401602060405180830381865afa158015611595573d6000803e3d6000fd5b505050506040513d601f19601f820116820180604052508101906115b99190615379565b905060005b85811015611a2f5760006115d2828761522a565b90506000600d60008381526020019081526020016000206040518060c00160405290816000820160009054906101000a90046001600160701b03166001600160701b03166001600160701b0316815260200160008201600e9054906101000a90046001600160701b03166001600160701b03166001600160701b031681526020016001820160009054906101000a900464ffffffffff1664ffffffffff1664ffffffffff1681526020016001820160059054906101000a900461ffff1661ffff1661ffff1681526020016001820160079054906101000a900463ffffffff1663ffffffff1663ffffffff168152602001600282016040518060400160405290816000820160009054906101000a90046001600160a01b03166001600160a01b03166001600160a01b031681526020016001820160009054906101000a90046001600160a01b03166001600160a01b03166001600160a01b031681525050815250509050600d60008381526020019081526020016000206040518060c00160405290816000820160009054906101000a90046001600160701b03166001600160701b03166001600160701b0316815260200160008201600e9054906101000a90046001600160701b03166001600160701b03166001600160701b031681526020016001820160009054906101000a900464ffffffffff1664ffffffffff1664ffffffffff1681526020016001820160059054906101000a900461ffff1661ffff1661ffff1681526020016001820160079054906101000a900463ffffffff1663ffffffff1663ffffffff168152602001600282016040518060400160405290816000820160009054906101000a90046001600160a01b03166001600160a01b03166001600160a01b031681526020016001820160009054906101000a90046001600160a01b03166001600160a01b03166001600160a01b031681525050815250509050806040015164ffffffffff166000036118ae575050611a2f565b60006118b983610d37565b90506001600160a01b0381166118d457829650505050611a27565b6312cc0300826040015164ffffffffff166118ef919061522a565b42116118fd57505050611a2f565b81516001600160701b03161580156119225750600082602001516001600160701b0316115b15611940576119408a83602001516001600160701b03168388613254565b815160008b8152600a6020908152604080832060a0870180518401516001600160a01b0390811686529184528285209051519091168452909152812080546001600160701b039093169290919061199890849061553e565b9250508190555081602001516001600160701b0316600b60008c815260200190815260200160002060008282546119cf919061553e565b909155506119de90508361334c565b82965089837fa9a02a1552fffe2e2be37539ca88700878a330ae3baeda8b398580a02c62c87884611a0d611c12565b604051611a1b929190615551565b60405180910390a35050505b6001016115be565b50828414611a495760008681526008602052604090208390555b505050506109386001600655565b611a62848484610c67565b610d1184848484613387565b6060611a7982611bd9565b506000611a9160408051602081019091526000815290565b90506000815111611ab15760405180602001604052806000815250611adc565b80611abb846134c9565b604051602001611acc929190615576565b6040516020818303038152906040525b9392505050565b611b286040805160c08101825260008082526020808301829052828401829052606083018290526080830182905283518085019094528184528301529060a082015290565b506000908152600d6020908152604091829020825160c08101845281546001600160701b038082168352600160701b9091041681840152600182015464ffffffffff81168286015265010000000000810461ffff166060830152670100000000000000900463ffffffff166080820152835180850190945260028201546001600160a01b0390811685526003909201549091169183019190915260a081019190915290565b6000611adc8383613569565b6000818152600260205260408120546001600160a01b03168061085457604051637e27328960e01b815260048101849052602401610c8d565b6000611c1c613663565b905090565b610d3283838360016136d8565b600260065403611c6a576040517f3ee5aeb500000000000000000000000000000000000000000000000000000000815260040160405180910390fd5b6002600655565b600061eeed196001600160a01b03851601611c8d575034611adc565b3415611cc5576040517f52b1133c00000000000000000000000000000000000000000000000000000000815260040160405180910390fd5b60208201516001600160a01b031615611e30578282602001516001600160a01b03161015611d1f576040517f06164f3400000000000000000000000000000000000000000000000000000000815260040160405180910390fd5b6040805160e0810182526001600160a01b038087166060808401918252602087810151841660808601528786015165ffffffffffff90811660a08701529188015190911660c08501529083523090830152845192820192909252907f000000000000000000000000000000000000000000000000000000000000000016632b67b570611da9611c12565b8386608001516040518463ffffffff1660e01b8152600401611dcd939291906155a5565b600060405180830381600087803b158015611de757600080fd5b505af1925050508015611df8575060015b611e2e573d808015611e26576040519150601f19603f3d011682016040523d82523d6000602084013e611e2b565b606091505b50505b505b6000611e3b85613816565b9050611e50611e48611c12565b3087876138b7565b80611e5a86613816565b611e64919061553e565b95945050505050565b6000611eb46040805160c08101825260008082526020808301829052828401829052606083018290526080830182905283518085019094528184528301529060a082015290565b6040805160c08101825287546001600160701b038082168352600160701b90910416602080830191909152600189015464ffffffffff81168385015265010000000000810461ffff166060840152670100000000000000900463ffffffff166080830152825180840190935260028901546001600160a01b03908116845260038a0154169083015260a0810191909152600090611f519087613569565b8754909150611f6a9082906001600160701b031661522a565b861115611fca57611fb230611f7d611c12565b60028a01548a546001600160a01b03909116906001600160701b0316611fa3868c61553e565b611fad919061553e565b6138b7565b8654611fc7906001600160701b03168261522a565b95505b611fd38861334c565b6000611fde8961085a565b88549091506001600160701b0316611ff6838961553e565b14801561201357508754600160701b90046001600160701b031686145b15612110576120278882600080868a6126ae565b88818a7f2abbaa875cdd67bcfc3aa06c600ea08ad0e0ce09ad011964de2e1d3474ef2cdd8b8c8c888d8d612059611c12565b60405161206c979695949392919061561a565b60405180910390a450506040805160c08101825287546001600160701b038082168352600160701b90910416602080830191909152600189015464ffffffffff81168385015265010000000000810461ffff166060840152670100000000000000900463ffffffff166080830152825180840190935260028901546001600160a01b03908116845260038a0154169083015260a08101919091528792509050610a7a565b600081815260096020526040812080546121319184918490610e6f9061523d565b905061214461213e611c12565b82612534565b6000819052600d60205288612197818461215e878d61553e565b845461217391906001600160701b031661553e565b8454612190908d90600160701b90046001600160701b031661553e565b888c6126ae565b81838c7f2abbaa875cdd67bcfc3aa06c600ea08ad0e0ce09ad011964de2e1d3474ef2cdd8d858e8a8f8f6121c9611c12565b6040516121dc979695949392919061561a565b60405180910390a46040805160c08101825282546001600160701b038082168352600160701b90910416602080830191909152600184015464ffffffffff81168385015265010000000000810461ffff166060840152670100000000000000900463ffffffff166080830152825180840190935260028401546001600160a01b0390811684526003909401549093169282019290925260a08201529094509250610a7a915050565b6000806122908561334c565b6000858152600d602052604090208054600160701b90046001600160701b03168411156122d05760405163c459ec8360e01b815260040160405180910390fd5b600085815260096020526040812080546122f092889291610e6f9061523d565b92506123036122fd611c12565b84612534565b6000839052600d6020528054909150819061234a90829087906001600160701b038082169161233b918a91600160701b90041661553e565b6000612345611c12565b6126ae565b8285877ff7760699f4b6789f9aadcc03b7c806b5c7d2d481f0f4b378cce2dbdd592e3feb8588612378611c12565b60405161240e9392919083546001600160701b03808216835260709190911c166020820152600184015464ffffffffff81166040830152602881901c61ffff16606083015260381c63ffffffff16608082015260028401546001600160a01b0390811660a083015260038501541660c082015261012081018360e08301526001600160a01b038316610100830152949350505050565b60405180910390a450935093915050565b6000828152600260205260408120546001600160a01b039081169083161561244c5761244c818486613a55565b6001600160a01b0381161561248a576124696000856000806136d8565b6001600160a01b038116600090815260036020526040902080546000190190555b6001600160a01b038516156124b9576001600160a01b0385166000908152600360205260409020805460010190555b60008481526002602052604080822080546001600160a01b0319166001600160a01b0389811691821790925591518793918516917fddf252ad1be2c89b69c2b068fc378daa952ba7f163c4a11628f55a4df523b3ef91a4949350505050565b60008161252a64e8d4a5100085615734565b611adc919061522a565b6001600160a01b03821661255e57604051633250574960e11b815260006004820152602401610c8d565b600061256c8383600061241f565b90506001600160a01b03811615610d32576040517f73c6ac6e00000000000000000000000000000000000000000000000000000000815260006004820152602401610c8d565b60008080600019858709858702925082811083820303915050806000036125ec578382816125e2576125e26150e7565b0492505050611adc565b838110612636576040517f63a05778000000000000000000000000000000000000000000000000000000008152600481018790526024810186905260448101859052606401610c8d565b60008486880960026001871981018816978890046003810283188082028403028082028403028082028403028082028403028082028403029081029092039091026000889003889004909101858311909403939093029303949094049190911702949350505050565b6000611adc83836103e86125b2565b6040516331a9108f60e11b8152600481018690526000907f00000000000000000000000000000000000000000000000000000000000000006001600160a01b031690636352211e90602401602060405180830381865afa158015612716573d6000803e3d6000fd5b505050506040513d601f19601f8201168201806040525081019061273a9190615379565b90506000816001600160a01b031663ee0fc1216040518163ffffffff1660e01b8152600401602060405180830381865afa15801561277c573d6000803e3d6000fd5b505050506040513d601f19601f820116820180604052508101906127a09190615379565b90506000816001600160a01b03166388bc2ef36040518163ffffffff1660e01b8152600401602060405180830381865afa1580156127e2573d6000803e3d6000fd5b505050506040513d601f19601f820116820180604052508101906128069190615379565b60038a015460028b0154604051633a01714f60e01b8152600481018c90526001600160a01b039182166024820152929350600092911690633a01714f90604401606060405180830381865afa158015612863573d6000803e3d6000fd5b505050506040513d601f19601f82011682018060405250810190612887919061574b565b6040517f18139690000000000000000000000000000000000000000000000000000000008152600481018b90529091506000906001600160a01b03861690631813969090602401602060405180830381865afa1580156128eb573d6000803e3d6000fd5b505050506040513d601f19601f8201168201806040525081019061290f9190615396565b90506000846001600160a01b031663d4a1b4b16040518163ffffffff1660e01b8152600401602060405180830381865afa158015612951573d6000803e3d6000fd5b505050506040513d601f19601f820116820180604052508101906129759190615379565b6001600160a01b03166343a266c28c6040518263ffffffff1660e01b81526004016129a291815260200190565b61012060405180830381865afa1580156129c0573d6000803e3d6000fd5b505050506040513d601f19601f820116820180604052508101906129e491906153db565b6040517fd1754153000000000000000000000000000000000000000000000000000000008152600481018d90529091506000906001600160a01b0386169063d175415390602401600060405180830381865afa158015612a48573d6000803e3d6000fd5b505050506040513d6000823e601f3d908101601f19168201604052612a70919081019061548c565b8d549091506001600160701b03168b1180612a9c57508c54600160701b90046001600160701b03168a14155b8015612b6157508a612b5f8d8c86886020015160ff16896040015163ffffffff1688888e6001600160a01b0316631eabcd346040518163ffffffff1660e01b8152600401602060405180830381865afa158015612afd573d6000803e3d6000fd5b505050506040513d601f19601f82011682018060405250810190612b219190615379565b8f6001600160a01b0316631d831d5c6040518163ffffffff1660e01b8152600401602060405180830381865afa158015611478573d6000803e3d6000fd5b105b15612b7f5760405163c459ec8360e01b815260040160405180910390fd5b50508a546001600160701b03168911159150612dd390505760028901546040517f862026500000000000000000000000000000000000000000000000000000000081527f000000000000000000000000000000000000000000000000000000000000000060048201526001600160a01b039182166024820152600091831690638620265090604401602060405180830381865afa158015612c24573d6000803e3d6000fd5b505050506040513d601f19601f82011682018060405250810190612c489190615379565b9050612dcd8a6040518060c00160405290816000820160009054906101000a90046001600160701b03166001600160701b03166001600160701b0316815260200160008201600e9054906101000a90046001600160701b03166001600160701b03166001600160701b031681526020016001820160009054906101000a900464ffffffffff1664ffffffffff1664ffffffffff1681526020016001820160059054906101000a900461ffff1661ffff1661ffff1681526020016001820160079054906101000a900463ffffffff1663ffffffff1663ffffffff168152602001600282016040518060400160405290816000820160009054906101000a90046001600160a01b03166001600160a01b03166001600160a01b031681526020016001820160009054906101000a90046001600160a01b03166001600160a01b03166001600160a01b031681525050815250508a8c60000160009054906101000a90046001600160701b03166001600160701b03168b612dc5919061553e565b89858a613ad2565b50612e8d565b88546001600160701b0316871015612e8d576040805160c0810182528a546001600160701b03808216808452600160701b9092041660208084019190915260018d015464ffffffffff81168486015265010000000000810461ffff166060850152670100000000000000900463ffffffff166080840152835180850190945260028d01546001600160a01b03908116855260038e0154169084015260a0820192909252612e8d918a90612e87908b9061553e565b88613ee2565b8854600160701b90046001600160701b0316861115612ed3578854612ece908990612ec890600160701b90046001600160701b03168961553e565b8461404d565b612f16565b8854600160701b90046001600160701b0316861015612f16578854612f16908990612f0f908990600160701b90046001600160701b031661553e565b8685613254565b6002890154600090612f30906001600160a01b0316613816565b905080156130655760028a01546000906001600160a01b031661eeee14612f58576000612f5a565b815b60038c015460028d01546040519293506001600160a01b039182169263fef432579285928f9291169087908c90600090612fbc907f00000000000000000000000000000000000000000000000000000000000000009060200190815260200190565b6040516020818303038152906040526040518863ffffffff1660e01b8152600401612fec969594939291906157c3565b60206040518083038185885af193505050508015613027575060408051601f3d908101601f1916820190925261302491810190615396565b60015b613061573d808015613055576040519150601f19603f3d011682016040523d82523d6000602084013e61305a565b606091505b5050613063565b505b505b505087546001600160701b03958616600160701b026001600160e01b03199091169590961694909417949094179095555050505050565b6001600160a01b0382166130e7576040517f5b08ba180000000000000000000000000000000000000000000000000000000081526001600160a01b0383166004820152602401610c8d565b6001600160a01b03838116600081815260056020908152604080832094871680845294825291829020805460ff191686151590811790915591519182527f17307eab39ab6107e8899845ad3d59bd9653f200f220920489ca2b5937696c31910160405180910390a3505050565b6000806131638b868a8a614127565b905060006131738c8a8a88614202565b6040517f75b0d9cd000000000000000000000000000000000000000000000000000000008152600481018e90529091506000906001600160a01b038616906375b0d9cd90602401602060405180830381865afa1580156131d7573d6000803e3d6000fd5b505050506040513d601f19601f820116820180604052508101906131fb9190615396565b60008e8152600b602052604090205490915061324261321a848661522a565b8e8e613226858761522a565b613230919061522a565b6101008d015160141c61ffff1661448b565b9e9d5050505050505050505050505050565b6000848152600b60205260408120805485929061327290849061553e565b90915550506040517fc7fb92de00000000000000000000000000000000000000000000000000000000815260048101859052602481018490526001600160a01b03838116604483015260a06064830152601d60a48301527f52656d6f76696e6720636f6c6c61746572616c2066726f6d206c6f616e00000060c48301526000608483015282169063c7fb92de9060e4016020604051808303816000875af1158015613321573d6000803e3d6000fd5b505050506040513d601f19601f820116820180604052508101906133459190615396565b5050505050565b600061335b600083600061241f565b90506001600160a01b03811661093857604051637e27328960e01b815260048101839052602401610c8d565b6001600160a01b0383163b15610d1157826001600160a01b031663150b7a026133ae611c12565b8685856040518563ffffffff1660e01b81526004016133d09493929190615844565b6020604051808303816000875af192505050801561340b575060408051601f3d908101601f1916820190925261340891810190615876565b60015b613474573d808015613439576040519150601f19603f3d011682016040523d82523d6000602084013e61343e565b606091505b50805160000361346c57604051633250574960e11b81526001600160a01b0385166004820152602401610c8d565b805181602001fd5b6001600160e01b031981167f150b7a02000000000000000000000000000000000000000000000000000000001461334557604051633250574960e11b81526001600160a01b0385166004820152602401610c8d565b606060006134d683614501565b600101905060008167ffffffffffffffff8111156134f6576134f6614de4565b6040519080825280601f01601f191660200182016040528015613520576020820181803683370190505b5090508181016020015b600019017f3031323334353637383961626364656600000000000000000000000000000000600a86061a8153600a850494508461352a57509392505050565b600080836040015164ffffffffff1642613583919061553e565b9050836080015163ffffffff1681111561365c576312cc03008111156135d5576040517fcc6eb84800000000000000000000000000000000000000000000000000000000815260040160405180910390fd5b60006135f685600001516001600160701b0316866060015161ffff1661269f565b9050600061362c8287600001516001600160701b0316613616919061553e565b613627856103e86312cc03006125b2565b61269f565b905060008187600001516001600160701b0316613649919061522a565b90506136568287836125b2565b94505050505b5092915050565b6000366014336001600160a01b037f0000000000000000000000000000000000000000000000000000000000000000161480156136a05750808210155b156136d0576000366136b2838561553e565b6136bd928290615893565b6136c6916158bd565b60601c9250505090565b339250505090565b80806136ec57506001600160a01b03821615155b156137e65760006136fc84611bd9565b90506001600160a01b038316158015906137285750826001600160a01b0316816001600160a01b031614155b801561375a57506001600160a01b0380821660009081526005602090815260408083209387168352929052205460ff16155b1561379c576040517fa9fbf51f0000000000000000000000000000000000000000000000000000000081526001600160a01b0384166004820152602401610c8d565b81156137e45783856001600160a01b0316826001600160a01b03167f8c5be1e5ebec7d5bd14f71427d1e84f3dd0314c0f7b2291e5b200ac8c7c3b92560405160405180910390a45b505b5050600090815260046020526040902080546001600160a01b0319166001600160a01b0392909216919091179055565b60006001600160a01b03821661eeee146138b0576040517f70a082310000000000000000000000000000000000000000000000000000000081523060048201526001600160a01b038316906370a0823190602401602060405180830381865afa158015613887573d6000803e3d6000fd5b505050506040513d601f19601f820116820180604052508101906138ab9190615396565b610854565b4792915050565b306001600160a01b038516036138fd5761eeed196001600160a01b038316016138e9576138e483826145e3565b610d11565b6138e46001600160a01b0383168483614693565b6040517fdd62ed3e0000000000000000000000000000000000000000000000000000000081526001600160a01b03858116600483015230602483015282919084169063dd62ed3e90604401602060405180830381865afa158015613965573d6000803e3d6000fd5b505050506040513d601f19601f820116820180604052508101906139899190615396565b106139a3576138e46001600160a01b038316858584614707565b6040517f36c785160000000000000000000000000000000000000000000000000000000081526001600160a01b0385811660048301528481166024830152828116604483015283811660648301527f000000000000000000000000000000000000000000000000000000000000000016906336c7851690608401600060405180830381600087803b158015613a3757600080fd5b505af1158015613a4b573d6000803e3d6000fd5b5050505050505050565b613a60838383614740565b610d32576001600160a01b038316613a8e57604051637e27328960e01b815260048101829052602401610c8d565b6040517f177e802f0000000000000000000000000000000000000000000000000000000081526001600160a01b038316600482015260248101829052604401610c8d565b600085815260076020908152604080832060a08a0180518401516001600160a01b039081168652918452828520905151909116845290915290205460ff16613bbf57600085815260076020908152604080832060a08a0180518401516001600160a01b039081168652918452828520815151831686528452828520805460ff191660019081179091558a8652600c85528386208451808601909552825151841685529151850151831684860190815282548083018455928752949095209251600290910290920180549282166001600160a01b031993841617815592519290930180549290931691161790555b6000858152600a6020908152604080832060a08a0180518401516001600160a01b039081168652918452828520905151909116845290915281208054869290613c0990849061522a565b909155505060a086015160208101519051604051633a01714f60e01b81526000926001600160a01b031691633a01714f91613c5a918a916004019182526001600160a01b0316602082015260400190565b606060405180830381865afa158015613c77573d6000803e3d6000fd5b505050506040513d601f19601f82011682018060405250810190613c9b919061574b565b60a08801516020810151905160408381015190517f748e821c000000000000000000000000000000000000000000000000000000008152600481018b90526001600160a01b039283166024820152604481018a905263ffffffff9091166064820152600060848201523060a482015285821660c482015261010060e482015260196101048201527f4c656e64696e67206f757420746f206120626f72726f77657200000000000000610124820152929350169063748e821c90610144016020604051808303816000875af1158015613d77573d6000803e3d6000fd5b505050506040513d601f19601f82011682018060405250810190613d9b9190615396565b50506000613daa85600561269f565b60a0880151519091506000906001600160a01b031661eeee14613dce576000613dd0565b815b9050836001600160a01b031663fef43257827f00000000000000000000000000000000000000000000000000000000000000008b60a0015160000151868860008e604051602001613e2391815260200190565b6040516020818303038152906040526040518863ffffffff1660e01b8152600401613e53969594939291906157c3565b60206040518083038185885af193505050508015613e8e575060408051601f3d908101601f19168201909252613e8b91810190615396565b60015b613ec8573d808015613ebc576040519150601f19603f3d011682016040523d82523d6000602084013e613ec1565b606091505b5050613eca565b505b60a088015151613a4b903090859088611fa382613816565b6000838152600a6020908152604080832060a0880180518401516001600160a01b039081168652918452828520905151909116845290915281208054849290613f2c90849061553e565b909155505060a0840151516000906001600160a01b031661eeee14613f52576000613f54565b825b60a0860151602081015190519192506001600160a01b031690639e6eec05908390879086613f8182613816565b613f8b919061553e565b604080517f00000000000000000000000000000000000000000000000000000000000000006020820152600091016040516020818303038152906040526040518763ffffffff1660e01b8152600401613fe89594939291906158f2565b6000604051808303818588803b15801561400157600080fd5b505af193505050508015614013575060015b613345573d808015614041576040519150601f19603f3d011682016040523d82523d6000602084013e614046565b606091505b5050613345565b6000838152600b60205260408120805484929061406b90849061522a565b90915550506001600160a01b03811663a2d532e6614087611c12565b6040516001600160e01b031960e084901b1681526001600160a01b039091166004820152602481018690526044810185905260806064820152601960848201527f416464696e6720636f6c6c61746572616c20746f206c6f616e0000000000000060a482015260c401600060405180830381600087803b15801561410a57600080fd5b505af115801561411e573d6000803e3d6000fd5b50505050505050565b8251600090815b818110156141f8578581815181106141485761414861595d565b60209081029190910101516040517fcc6801270000000000000000000000000000000000000000000000000000000081526004810189905260248101879052604481018690526001600160a01b039091169063cc68012790606401602060405180830381865afa1580156141c0573d6000803e3d6000fd5b505050506040513d601f19601f820116820180604052508101906141e49190615396565b6141ee908461522a565b925060010161412e565b5050949350505050565b6000848152600c6020908152604080832080548251818502810185019093528083528493849084015b82821015614276576000848152602090819020604080518082019091526002850290910180546001600160a01b0390811683526001918201541682840152908352909201910161422b565b50508251604080518082019091526000808252602082015293945092915061429b9050565b60005b8281101561447f578381815181106142b8576142b861595d565b60200260200101519150600082602001516001600160a01b0316633a01714f8b85600001516040518363ffffffff1660e01b815260040161430c9291909182526001600160a01b0316602082015260400190565b606060405180830381865afa158015614329573d6000803e3d6000fd5b505050506040513d601f19601f8201168201806040525081019061434d919061574b565b9050600088826040015163ffffffff16146144095760408083015190517f3be273fa000000000000000000000000000000000000000000000000000000008152600481018d905263ffffffff9091166024820152604481018a9052606481018b90526001600160a01b03891690633be273fa90608401602060405180830381865afa1580156143e0573d6000803e3d6000fd5b505050506040513d601f19601f820116820180604052508101906144049190615396565b614414565b6144148a600a615a57565b60008c8152600a60208181526040808420898301516001600160a01b0390811686529083528185208a5190911685529091529091205491925061446490829061445e908e90615a57565b846125b2565b61446e908961522a565b9750506001909201915061429e9050565b50505050949350505050565b60008160000361449d575060006114a6565b8284106144ab5750836114a6565b60006144b88686866125b2565b905061270f1983016144cb5790506114a6565b6144f7816144e56144de8661271061553e565b88886125b2565b6144ef908661522a565b6127106125b2565b9695505050505050565b6000807a184f03e93ff9f4daa797ed6e38ed64bf6a1f010000000000000000831061454a577a184f03e93ff9f4daa797ed6e38ed64bf6a1f010000000000000000830492506040015b6d04ee2d6d415b85acef81000000008310614576576d04ee2d6d415b85acef8100000000830492506020015b662386f26fc10000831061459457662386f26fc10000830492506010015b6305f5e10083106145ac576305f5e100830492506008015b61271083106145c057612710830492506004015b606483106145d2576064830492506002015b600a83106108545760010192915050565b8047101561461f576040517fcd786059000000000000000000000000000000000000000000000000000000008152306004820152602401610c8d565b6000826001600160a01b03168260405160006040518083038185875af1925050503d806000811461466c576040519150601f19603f3d011682016040523d82523d6000602084013e614671565b606091505b5050905080610d3257604051630a12f52160e11b815260040160405180910390fd5b6040516001600160a01b03838116602483015260448201839052610d3291859182169063a9059cbb906064015b604051602081830303815290604052915060e01b6020820180517bffffffffffffffffffffffffffffffffffffffffffffffffffffffff83818316178352505050506147c3565b6040516001600160a01b038481166024830152838116604483015260648201839052610d119186918216906323b872dd906084016146c0565b60006001600160a01b038316158015906114a65750826001600160a01b0316846001600160a01b0316148061479a57506001600160a01b0380851660009081526005602090815260408083209387168352929052205460ff165b806114a65750506000908152600460205260409020546001600160a01b03908116911614919050565b60006147d86001600160a01b0384168361483f565b905080516000141580156147fd5750808060200190518101906147fb9190615a63565b155b15610d32576040517f5274afe70000000000000000000000000000000000000000000000000000000081526001600160a01b0384166004820152602401610c8d565b6060611adc8383600084600080856001600160a01b031684866040516148659190615a80565b60006040518083038185875af1925050503d80600081146148a2576040519150601f19603f3d011682016040523d82523d6000602084013e6148a7565b606091505b50915091506144f78683836060826148c7576148c282614927565b611adc565b81511580156148de57506001600160a01b0384163b155b15614920576040517f9996b3150000000000000000000000000000000000000000000000000000000081526001600160a01b0385166004820152602401610c8d565b5080611adc565b8051156149375780518082602001fd5b604051630a12f52160e11b815260040160405180910390fd5b50565b6001600160e01b03198116811461495057600080fd5b60006020828403121561497b57600080fd5b8135611adc81614953565b60006020828403121561499857600080fd5b5035919050565b60005b838110156149ba5781810151838201526020016149a2565b50506000910152565b600081518084526149db81602086016020860161499f565b601f01601f19169290920160200192915050565b602081526000611adc60208301846149c3565b6001600160a01b038116811461495057600080fd5b60008060408385031215614a2a57600080fd5b8235614a3581614a02565b946020939093013593505050565b600080600080600060a08688031215614a5b57600080fd5b8535945060208601359350604086013592506060860135614a7b81614a02565b9150608086013567ffffffffffffffff811115614a9757600080fd5b860160a08189031215614aa957600080fd5b809150509295509295909350565b6001600160701b038082511683528060208301511660208401525064ffffffffff604082015116604083015261ffff606082015116606083015263ffffffff608082015116608083015260a0810151610d3260a084018280516001600160a01b03908116835260209182015116910152565b8281526101008101611adc6020830184614ab7565b600060408284031215614b5057600080fd5b50919050565b6000806000806000806000610100888a031215614b7257600080fd5b8735965060208801359550614b8a8960408a01614b3e565b94506080880135935060a0880135925060c0880135614ba881614a02565b8092505060e0880135905092959891949750929550565b848152602081018490526102008101614bdb6040830185614ab7565b611e64610120830184614ab7565b600080600060608486031215614bfe57600080fd5b8335614c0981614a02565b92506020840135614c1981614a02565b929592945050506040919091013590565b600080600060608486031215614c3f57600080fd5b833592506020840135614c5181614a02565b91506040840135614c6181614a02565b809150509250925092565b600060208284031215614c7e57600080fd5b8135611adc81614a02565b60008060008060008060e08789031215614ca257600080fd5b86359550614cb38860208901614b3e565b9450606087013593506080870135925060a0870135614cd181614a02565b8092505060c087013590509295509295509295565b602080825282518282018190526000919060409081850190868401855b82811015614d3c57614d2c84835180516001600160a01b03908116835260209182015116910152565b9284019290850190600101614d03565b5091979650505050505050565b801515811461495057600080fd5b60008060408385031215614d6a57600080fd5b8235614d7581614a02565b91506020830135614d8581614d49565b809150509250929050565b60008060008060808587031215614da657600080fd5b5050823594602084013594506040840135936060013592509050565b60008060408385031215614dd557600080fd5b50508035926020909101359150565b634e487b7160e01b600052604160045260246000fd5b60405160c0810167ffffffffffffffff81118282101715614e1d57614e1d614de4565b60405290565b604051610120810167ffffffffffffffff81118282101715614e1d57614e1d614de4565b604051601f8201601f1916810167ffffffffffffffff81118282101715614e7057614e70614de4565b604052919050565b600082601f830112614e8957600080fd5b813567ffffffffffffffff811115614ea357614ea3614de4565b614eb6601f8201601f1916602001614e47565b818152846020838601011115614ecb57600080fd5b816020850160208301376000918101602001919091529392505050565b60008060008060808587031215614efe57600080fd5b8435614f0981614a02565b93506020850135614f1981614a02565b925060408501359150606085013567ffffffffffffffff811115614f3c57600080fd5b614f4887828801614e78565b91505092959194509250565b60e081016108548284614ab7565b60008060408385031215614f7557600080fd5b8235614f8081614a02565b91506020830135614d8581614a02565b6001600160701b038116811461495057600080fd5b803561ffff81168114614fb757600080fd5b919050565b63ffffffff8116811461495057600080fd5b8035614fb781614fbc565b600060408284031215614feb57600080fd5b6040516040810181811067ffffffffffffffff8211171561500e5761500e614de4565b604052905080823561501f81614a02565b8152602083013561502f81614a02565b6020919091015292915050565b60008082840361010081121561505157600080fd5b60e081121561505f57600080fd5b50615068614dfa565b833561507381614f90565b8152602084013561508381614f90565b6020820152604084013564ffffffffff811681146150a057600080fd5b60408201526150b160608501614fa5565b60608201526150c260808501614fce565b60808201526150d48560a08601614fd9565b60a08201529460e0939093013593505050565b634e487b7160e01b600052601260045260246000fd5b634e487b7160e01b600052601160045260246000fd5b60008261513057634e487b7160e01b600052601260045260246000fd5b500490565b600181811c9082168061514957607f821691505b602082108103614b5057634e487b7160e01b600052602260045260246000fd5b65ffffffffffff8116811461495057600080fd5b600060a0823603121561518f57600080fd5b60405160a0810167ffffffffffffffff82821081831117156151b3576151b3614de4565b8160405284358352602085013591506151cb82614a02565b816020840152604085013591506151e182615169565b816040840152606085013591506151f782615169565b816060840152608085013591508082111561521157600080fd5b5061521e36828601614e78565b60808301525092915050565b80820180821115610854576108546150fd565b60006001820161524f5761524f6150fd565b5060010190565b813561526181614a02565b81546001600160a01b0319166001600160a01b03821617825550602082013561528981614a02565b6001820180546001600160a01b0319166001600160a01b038316179055505050565b86546001600160701b03808216835260709190911c166020820152600187015464ffffffffff81166040830152602881901c61ffff16606083015260381c63ffffffff16608082015260028701546001600160a01b0390811660a083015260038801541660c08201526101a08101863561532481614a02565b6001600160a01b0390811660e084015260208801359061534382614a02565b80821661010085015287610120850152866101408501528086166101608501528085166101808501525050979650505050505050565b60006020828403121561538b57600080fd5b8151611adc81614a02565b6000602082840312156153a857600080fd5b5051919050565b8051614fb781615169565b8051614fb781614fbc565b8051614fb781614f90565b8051614fb781614a02565b600061012082840312156153ee57600080fd5b6153f6614e23565b6153ff836153af565b815261540d602084016153af565b602082015261541e604084016153af565b604082015261542f606084016153af565b6060820152615440608084016153ba565b608082015261545160a084016153c5565b60a082015261546260c084016153ba565b60c082015261547360e084016153d0565b60e0820152610100928301519281019290925250919050565b6000602080838503121561549f57600080fd5b825167ffffffffffffffff808211156154b757600080fd5b818501915085601f8301126154cb57600080fd5b8151818111156154dd576154dd614de4565b8060051b91506154ee848301614e47565b818152918301840191848101908884111561550857600080fd5b938501935b83851015615532578451925061552283614a02565b828252938501939085019061550d565b98975050505050505050565b81810381811115610854576108546150fd565b61010081016155608285614ab7565b6001600160a01b03831660e08301529392505050565b6000835161558881846020880161499f565b83519083019061559c81836020880161499f565b01949350505050565b60006101006001600160a01b0380871684528551818151166020860152816020820151166040860152604081015165ffffffffffff80821660608801528060608401511660808801525050508060208701511660a085015250604085015160c08401528060e08401526144f7818401856149c3565b87546001600160701b03808216835260709190911c166020820152600188015464ffffffffff81166040830152602881901c61ffff16606083015260381c63ffffffff16608082015260028801546001600160a01b0390811660a083015260038901541660c0820152610260810187546001600160701b0380821660e085015260709190911c16610100830152600188015464ffffffffff8116610120840152602881901c61ffff1661014084015260381c63ffffffff1661016083015260028801546001600160a01b039081166101808401526003890154166101a08301526101c08201969096526101e08101949094526102008401929092526001600160a01b03908116610220840152166102409091015292915050565b8082028115828204841417610854576108546150fd565b60006060828403121561575d57600080fd5b6040516060810181811067ffffffffffffffff8211171561578057615780614de4565b604052825161578e81614a02565b8152602083015160ff811681146157a457600080fd5b602082015260408301516157b781614fbc565b60408201529392505050565b86815260006001600160a01b03808816602084015286604084015280861660608401525083608083015260e060a0830152600d60e08301527f4665652066726f6d206c6f616e000000000000000000000000000000000000006101008301526101208060c0840152615837818401856149c3565b9998505050505050505050565b60006001600160a01b038087168352808616602084015250836040830152608060608301526144f760808301846149c3565b60006020828403121561588857600080fd5b8151611adc81614953565b600080858511156158a357600080fd5b838611156158b057600080fd5b5050820193919092039150565b6bffffffffffffffffffffffff1981358181169160148510156158ea5780818660140360031b1b83161692505b505092915050565b8581526001600160a01b0385166020820152836040820152821515606082015260c06080820152600f60c08201527f506179696e67206f6666206c6f616e000000000000000000000000000000000060e082015260006101008060a0840152615532818401856149c3565b634e487b7160e01b600052603260045260246000fd5b600181815b808511156159ae578160001904821115615994576159946150fd565b808516156159a157918102915b93841c9390800290615978565b509250929050565b6000826159c557506001610854565b816159d257506000610854565b81600181146159e857600281146159f257615a0e565b6001915050610854565b60ff841115615a0357615a036150fd565b50506001821b610854565b5060208310610133831016604e8410600b8410161715615a31575081810a610854565b615a3b8383615973565b8060001904821115615a4f57615a4f6150fd565b029392505050565b6000611adc83836159b6565b600060208284031215615a7557600080fd5b8151611adc81614d49565b60008251615a9281846020870161499f565b919091019291505056fea26469706673582212205c6481603c884463777c174cd17973d9c973125981e035964fba49d410f13e9764736f6c63430008170033",
	"deployedBytecode": "0x6080604052600436106102165760003560e01c806368fbf84e11610126578063a8dcb496116100a7578063ddad527111610079578063e985e9c511610061578063e985e9c51461073e578063f148b41914610787578063fbe7f3b11461079d57005b8063ddad5271146106d0578063e4ba13c71461071157005b8063a8dcb49614610643578063b88d4fde14610663578063c4d8ea3c14610683578063c87b56dd146106b057005b806383b4cf2f116100f8578063a21cd6f8116100e0578063a21cd6f8146105d6578063a22cb46514610603578063a4a0481a1461062357005b806383b4cf2f146105a157806395d89b41146105c157005b806368fbf84e146104ed5780636afdd8501461051a57806370a082311461054e5780637da0a8771461056e57005b806323b872dd116101b057806342842e0e11610182578063572b6c051161016a578063572b6c05146104535780636352211e146104a057806366707989146104c057005b806342842e0e146103f5578063501158691461041557005b806323b872dd14610355578063293c49991461037557806331011c54146103a95780633e73ec33146103dd57005b8063081812fc116101e9578063081812fc146102b9578063095ea7b3146102f157806309c58621146103115780630ba8827d1461033257005b8062cb35551461021f57806301ffc9a7146102475780630582928e1461027757806306fdde031461029757005b3661021d57005b005b34801561022b57600080fd5b50610234600581565b6040519081526020015b60405180910390f35b34801561025357600080fd5b50610267610262366004614969565b6107bd565b604051901515815260200161023e565b34801561028357600080fd5b50610234610292366004614986565b61085a565b3480156102a357600080fd5b506102ac61086b565b60405161023e91906149ef565b3480156102c557600080fd5b506102d96102d4366004614986565b6108fd565b6040516001600160a01b03909116815260200161023e565b3480156102fd57600080fd5b5061021d61030c366004614a17565b610926565b61032461031f366004614a43565b61093c565b60405161023e929190614b29565b610345610340366004614b56565b610a84565b60405161023e9493929190614bbf565b34801561036157600080fd5b5061021d610370366004614be9565b610c67565b34801561038157600080fd5b506102d97f000000000000000000000000ecb62030e30bb027f672f24692111492ba2bbc8481565b3480156103b557600080fd5b506102347f000000000000000000000000000000000000000000000000000000000000000381565b3480156103e957600080fd5b506102346312cc030081565b34801561040157600080fd5b5061021d610410366004614be9565b610d17565b34801561042157600080fd5b50610234610430366004614c2a565b600a60209081526000938452604080852082529284528284209052825290205481565b34801561045f57600080fd5b5061026761046e366004614c6c565b7f000000000000000000000000b2b5841dbef766d4b521221732f9b618fcf34a876001600160a01b0390811691161490565b3480156104ac57600080fd5b506102d96104bb366004614986565b610d37565b3480156104cc57600080fd5b506102346104db366004614986565b600b6020526000908152604090205481565b3480156104f957600080fd5b50610234610508366004614986565b60086020526000908152604090205481565b34801561052657600080fd5b506102d97f000000000000000000000000000000000022d473030f116ddee9f6b43ac78ba381565b34801561055a57600080fd5b50610234610569366004614c6c565b610d42565b34801561057a57600080fd5b507f000000000000000000000000b2b5841dbef766d4b521221732f9b618fcf34a876102d9565b3480156105ad57600080fd5b506103246105bc366004614c89565b610da3565b3480156105cd57600080fd5b506102ac61101b565b3480156105e257600080fd5b506105f66105f1366004614986565b61102a565b60405161023e9190614ce6565b34801561060f57600080fd5b5061021d61061e366004614d57565b6110b5565b34801561062f57600080fd5b5061023461063e366004614d90565b6110c7565b34801561064f57600080fd5b5061021d61065e366004614dc2565b6114ae565b34801561066f57600080fd5b5061021d61067e366004614ee8565b611a57565b34801561068f57600080fd5b5061023461069e366004614986565b60096020526000908152604090205481565b3480156106bc57600080fd5b506102ac6106cb366004614986565b611a6e565b3480156106dc57600080fd5b506102676106eb366004614c2a565b600760209081526000938452604080852082529284528284209052825290205460ff1681565b34801561071d57600080fd5b5061073161072c366004614986565b611ae3565b60405161023e9190614f54565b34801561074a57600080fd5b50610267610759366004614f62565b6001600160a01b03918216600090815260056020908152604080832093909416825291909152205460ff1690565b34801561079357600080fd5b506102346101f481565b3480156107a957600080fd5b506102346107b836600461503c565b611bcd565b60006001600160e01b031982167f80ac58cd00000000000000000000000000000000000000000000000000000000148061082057506001600160e01b031982167f5b5e139f00000000000000000000000000000000000000000000000000000000145b8061085457507f01ffc9a7000000000000000000000000000000000000000000000000000000006001600160e01b03198316145b92915050565b600061085464e8d4a5100083615113565b60606000805461087a90615135565b80601f01602080910402602001604051908101604052809291908181526020018280546108a690615135565b80156108f35780601f106108c8576101008083540402835291602001916108f3565b820191906000526020600020905b8154815290600101906020018083116108d657829003601f168201915b5050505050905090565b600061090882611bd9565b506000828152600460205260409020546001600160a01b0316610854565b6109388282610933611c12565b611c21565b5050565b60006109836040805160c08101825260008082526020808301829052828401829052606083018290526080830182905283518085019094528184528301529060a082015290565b61098b611c2e565b610993611c12565b6001600160a01b03166109bb886000908152600260205260409020546001600160a01b031690565b6001600160a01b0316146109e25760405163e987cc8360e01b815260040160405180910390fd5b6000878152600d602052604090208054600160701b90046001600160701b0316861115610a3b576040517fdcd6f87700000000000000000000000000000000000000000000000000000000815260040160405180910390fd5b6002810154610a5c906001600160a01b031688610a578761517d565b611c71565b9650610a6b8882898989611e6d565b9250925050610a7a6001600655565b9550959350505050565b600080610acc6040805160c08101825260008082526020808301829052828401829052606083018290526080830182905283518085019094528184528301529060a082015290565b610b116040805160c08101825260008082526020808301829052828401829052606083018290526080830182905283518085019094528184528301529060a082015290565b610b19611c12565b6001600160a01b0316610b418c6000908152600260205260409020546001600160a01b031690565b6001600160a01b031614610b685760405163e987cc8360e01b815260040160405180910390fd5b87600003610b895760405163a81d13d560e01b815260040160405180910390fd5b610b9c8b610b968d61085a565b8c612284565b6040805160c08101825282546001600160701b038082168352600160701b90910416602080830191909152600184015464ffffffffff81168385015265010000000000810461ffff166060840152670100000000000000900463ffffffff166080830152825180840190935260028401546001600160a01b0390811684526003909401549093169282019290925260a08201529094509150610c53610c408561085a565b8a8a610c4c8b8f61522a565b8a8a610da3565b949c909b5091995092975095505050505050565b6001600160a01b038216610c9657604051633250574960e11b8152600060048201526024015b60405180910390fd5b6000610caa8383610ca5611c12565b61241f565b9050836001600160a01b0316816001600160a01b031614610d11576040517f64283d7b0000000000000000000000000000000000000000000000000000000081526001600160a01b0380861660048301526024820184905282166044820152606401610c8d565b50505050565b610d3283838360405180602001604052806000815250611a57565b505050565b600061085482611bd9565b60006001600160a01b038216610d87576040517f89c62b6400000000000000000000000000000000000000000000000000000000815260006004820152602401610c8d565b506001600160a01b031660009081526003602052604090205490565b6000610dea6040805160c08101825260008082526020808301829052828401829052606083018290526080830182905283518085019094528184528301529060a082015290565b610df2611c2e565b85600003610e135760405163a81d13d560e01b815260040160405180910390fd5b6101f4831115610e4f576040517f7f05e6b000000000000000000000000000000000000000000000000000000000815260040160405180910390fd5b60008881526009602052604081208054610e79928b9291610e6f9061523d565b9182905550612518565b9150610e8c610e86611c12565b83612534565b6000828152600d602052604090208760028201610ea98282615256565b505060018101805461ffff8616650100000000000266ffffffffffffff1990911664ffffffffff421617179055610ee7846312cc03006101f46125b2565b8160010160076101000a81548163ffffffff021916908363ffffffff1602179055506000610f15888661269f565b9050610f25828b8a8a858b6126ae565b89847f263a4ba8c3b0e66367115fe7c402b0f8806adb9d0b42e82794c4f6ba5f072a41848c8c8c8c610f55611c12565b604051610f67969594939291906152ab565b60405180910390a3506040805160c08101825282546001600160701b038082168352600160701b90910416602080830191909152600184015464ffffffffff81168385015261ffff65010000000000820416606084015263ffffffff670100000000000000909104166080830152825180840190935260028401546001600160a01b0390811684526003909401549093169282019290925260a082015290506110106001600655565b965096945050505050565b60606001805461087a90615135565b6060600c6000838152602001908152602001600020805480602002602001604051908101604052809291908181526020016000905b828210156110aa576000848152602090819020604080518082019091526002850290910180546001600160a01b0390811683526001918201541682840152908352909201910161105f565b505050509050919050565b6109386110c0611c12565b838361309c565b6040516331a9108f60e11b81526004810185905260009081906001600160a01b037f000000000000000000000000ecb62030e30bb027f672f24692111492ba2bbc841690636352211e90602401602060405180830381865afa158015611131573d6000803e3d6000fd5b505050506040513d601f19601f820116820180604052508101906111559190615379565b90506000816001600160a01b031663ee0fc1216040518163ffffffff1660e01b8152600401602060405180830381865afa158015611197573d6000803e3d6000fd5b505050506040513d601f19601f820116820180604052508101906111bb9190615379565b90506114a18787846001600160a01b031663181396908b6040518263ffffffff1660e01b81526004016111f091815260200190565b602060405180830381865afa15801561120d573d6000803e3d6000fd5b505050506040513d601f19601f820116820180604052508101906112319190615396565b8888866001600160a01b031663d4a1b4b16040518163ffffffff1660e01b8152600401602060405180830381865afa158015611271573d6000803e3d6000fd5b505050506040513d601f19601f820116820180604052508101906112959190615379565b6001600160a01b03166343a266c28e6040518263ffffffff1660e01b81526004016112c291815260200190565b61012060405180830381865afa1580156112e0573d6000803e3d6000fd5b505050506040513d601f19601f8201168201806040525081019061130491906153db565b876001600160a01b03166388bc2ef36040518163ffffffff1660e01b8152600401602060405180830381865afa158015611342573d6000803e3d6000fd5b505050506040513d601f19601f820116820180604052508101906113669190615379565b6001600160a01b031663d17541538f6040518263ffffffff1660e01b815260040161139391815260200190565b600060405180830381865afa1580156113b0573d6000803e3d6000fd5b505050506040513d6000823e601f3d908101601f191682016040526113d8919081019061548c565b886001600160a01b0316631eabcd346040518163ffffffff1660e01b8152600401602060405180830381865afa158015611416573d6000803e3d6000fd5b505050506040513d601f19601f8201168201806040525081019061143a9190615379565b896001600160a01b0316631d831d5c6040518163ffffffff1660e01b8152600401602060405180830381865afa158015611478573d6000803e3d6000fd5b505050506040513d601f19601f8201168201806040525081019061149c9190615379565b613154565b925050505b949350505050565b6114b6611c2e565b6000828152600860205260408082205490516331a9108f60e11b81526004810185905290919081907f000000000000000000000000ecb62030e30bb027f672f24692111492ba2bbc846001600160a01b031690636352211e90602401602060405180830381865afa15801561152f573d6000803e3d6000fd5b505050506040513d601f19601f820116820180604052508101906115539190615379565b90506000816001600160a01b031663ee0fc1216040518163ffffffff1660e01b8152600401602060405180830381865afa158015611595573d6000803e3d6000fd5b505050506040513d601f19601f820116820180604052508101906115b99190615379565b905060005b85811015611a2f5760006115d2828761522a565b90506000600d60008381526020019081526020016000206040518060c00160405290816000820160009054906101000a90046001600160701b03166001600160701b03166001600160701b0316815260200160008201600e9054906101000a90046001600160701b03166001600160701b03166001600160701b031681526020016001820160009054906101000a900464ffffffffff1664ffffffffff1664ffffffffff1681526020016001820160059054906101000a900461ffff1661ffff1661ffff1681526020016001820160079054906101000a900463ffffffff1663ffffffff1663ffffffff168152602001600282016040518060400160405290816000820160009054906101000a90046001600160a01b03166001600160a01b03166001600160a01b031681526020016001820160009054906101000a90046001600160a01b03166001600160a01b03166001600160a01b031681525050815250509050600d60008381526020019081526020016000206040518060c00160405290816000820160009054906101000a90046001600160701b03166001600160701b03166001600160701b0316815260200160008201600e9054906101000a90046001600160701b03166001600160701b03166001600160701b031681526020016001820160009054906101000a900464ffffffffff1664ffffffffff1664ffffffffff1681526020016001820160059054906101000a900461ffff1661ffff1661ffff1681526020016001820160079054906101000a900463ffffffff1663ffffffff1663ffffffff168152602001600282016040518060400160405290816000820160009054906101000a90046001600160a01b03166001600160a01b03166001600160a01b031681526020016001820160009054906101000a90046001600160a01b03166001600160a01b03166001600160a01b031681525050815250509050806040015164ffffffffff166000036118ae575050611a2f565b60006118b983610d37565b90506001600160a01b0381166118d457829650505050611a27565b6312cc0300826040015164ffffffffff166118ef919061522a565b42116118fd57505050611a2f565b81516001600160701b03161580156119225750600082602001516001600160701b0316115b15611940576119408a83602001516001600160701b03168388613254565b815160008b8152600a6020908152604080832060a0870180518401516001600160a01b0390811686529184528285209051519091168452909152812080546001600160701b039093169290919061199890849061553e565b9250508190555081602001516001600160701b0316600b60008c815260200190815260200160002060008282546119cf919061553e565b909155506119de90508361334c565b82965089837fa9a02a1552fffe2e2be37539ca88700878a330ae3baeda8b398580a02c62c87884611a0d611c12565b604051611a1b929190615551565b60405180910390a35050505b6001016115be565b50828414611a495760008681526008602052604090208390555b505050506109386001600655565b611a62848484610c67565b610d1184848484613387565b6060611a7982611bd9565b506000611a9160408051602081019091526000815290565b90506000815111611ab15760405180602001604052806000815250611adc565b80611abb846134c9565b604051602001611acc929190615576565b6040516020818303038152906040525b9392505050565b611b286040805160c08101825260008082526020808301829052828401829052606083018290526080830182905283518085019094528184528301529060a082015290565b506000908152600d6020908152604091829020825160c08101845281546001600160701b038082168352600160701b9091041681840152600182015464ffffffffff81168286015265010000000000810461ffff166060830152670100000000000000900463ffffffff166080820152835180850190945260028201546001600160a01b0390811685526003909201549091169183019190915260a081019190915290565b6000611adc8383613569565b6000818152600260205260408120546001600160a01b03168061085457604051637e27328960e01b815260048101849052602401610c8d565b6000611c1c613663565b905090565b610d3283838360016136d8565b600260065403611c6a576040517f3ee5aeb500000000000000000000000000000000000000000000000000000000815260040160405180910390fd5b6002600655565b600061eeed196001600160a01b03851601611c8d575034611adc565b3415611cc5576040517f52b1133c00000000000000000000000000000000000000000000000000000000815260040160405180910390fd5b60208201516001600160a01b031615611e30578282602001516001600160a01b03161015611d1f576040517f06164f3400000000000000000000000000000000000000000000000000000000815260040160405180910390fd5b6040805160e0810182526001600160a01b038087166060808401918252602087810151841660808601528786015165ffffffffffff90811660a08701529188015190911660c08501529083523090830152845192820192909252907f000000000000000000000000000000000022d473030f116ddee9f6b43ac78ba316632b67b570611da9611c12565b8386608001516040518463ffffffff1660e01b8152600401611dcd939291906155a5565b600060405180830381600087803b158015611de757600080fd5b505af1925050508015611df8575060015b611e2e573d808015611e26576040519150601f19603f3d011682016040523d82523d6000602084013e611e2b565b606091505b50505b505b6000611e3b85613816565b9050611e50611e48611c12565b3087876138b7565b80611e5a86613816565b611e64919061553e565b95945050505050565b6000611eb46040805160c08101825260008082526020808301829052828401829052606083018290526080830182905283518085019094528184528301529060a082015290565b6040805160c08101825287546001600160701b038082168352600160701b90910416602080830191909152600189015464ffffffffff81168385015265010000000000810461ffff166060840152670100000000000000900463ffffffff166080830152825180840190935260028901546001600160a01b03908116845260038a0154169083015260a0810191909152600090611f519087613569565b8754909150611f6a9082906001600160701b031661522a565b861115611fca57611fb230611f7d611c12565b60028a01548a546001600160a01b03909116906001600160701b0316611fa3868c61553e565b611fad919061553e565b6138b7565b8654611fc7906001600160701b03168261522a565b95505b611fd38861334c565b6000611fde8961085a565b88549091506001600160701b0316611ff6838961553e565b14801561201357508754600160701b90046001600160701b031686145b15612110576120278882600080868a6126ae565b88818a7f2abbaa875cdd67bcfc3aa06c600ea08ad0e0ce09ad011964de2e1d3474ef2cdd8b8c8c888d8d612059611c12565b60405161206c979695949392919061561a565b60405180910390a450506040805160c08101825287546001600160701b038082168352600160701b90910416602080830191909152600189015464ffffffffff81168385015265010000000000810461ffff166060840152670100000000000000900463ffffffff166080830152825180840190935260028901546001600160a01b03908116845260038a0154169083015260a08101919091528792509050610a7a565b600081815260096020526040812080546121319184918490610e6f9061523d565b905061214461213e611c12565b82612534565b6000819052600d60205288612197818461215e878d61553e565b845461217391906001600160701b031661553e565b8454612190908d90600160701b90046001600160701b031661553e565b888c6126ae565b81838c7f2abbaa875cdd67bcfc3aa06c600ea08ad0e0ce09ad011964de2e1d3474ef2cdd8d858e8a8f8f6121c9611c12565b6040516121dc979695949392919061561a565b60405180910390a46040805160c08101825282546001600160701b038082168352600160701b90910416602080830191909152600184015464ffffffffff81168385015265010000000000810461ffff166060840152670100000000000000900463ffffffff166080830152825180840190935260028401546001600160a01b0390811684526003909401549093169282019290925260a08201529094509250610a7a915050565b6000806122908561334c565b6000858152600d602052604090208054600160701b90046001600160701b03168411156122d05760405163c459ec8360e01b815260040160405180910390fd5b600085815260096020526040812080546122f092889291610e6f9061523d565b92506123036122fd611c12565b84612534565b6000839052600d6020528054909150819061234a90829087906001600160701b038082169161233b918a91600160701b90041661553e565b6000612345611c12565b6126ae565b8285877ff7760699f4b6789f9aadcc03b7c806b5c7d2d481f0f4b378cce2dbdd592e3feb8588612378611c12565b60405161240e9392919083546001600160701b03808216835260709190911c166020820152600184015464ffffffffff81166040830152602881901c61ffff16606083015260381c63ffffffff16608082015260028401546001600160a01b0390811660a083015260038501541660c082015261012081018360e08301526001600160a01b038316610100830152949350505050565b60405180910390a450935093915050565b6000828152600260205260408120546001600160a01b039081169083161561244c5761244c818486613a55565b6001600160a01b0381161561248a576124696000856000806136d8565b6001600160a01b038116600090815260036020526040902080546000190190555b6001600160a01b038516156124b9576001600160a01b0385166000908152600360205260409020805460010190555b60008481526002602052604080822080546001600160a01b0319166001600160a01b0389811691821790925591518793918516917fddf252ad1be2c89b69c2b068fc378daa952ba7f163c4a11628f55a4df523b3ef91a4949350505050565b60008161252a64e8d4a5100085615734565b611adc919061522a565b6001600160a01b03821661255e57604051633250574960e11b815260006004820152602401610c8d565b600061256c8383600061241f565b90506001600160a01b03811615610d32576040517f73c6ac6e00000000000000000000000000000000000000000000000000000000815260006004820152602401610c8d565b60008080600019858709858702925082811083820303915050806000036125ec578382816125e2576125e26150e7565b0492505050611adc565b838110612636576040517f63a05778000000000000000000000000000000000000000000000000000000008152600481018790526024810186905260448101859052606401610c8d565b60008486880960026001871981018816978890046003810283188082028403028082028403028082028403028082028403028082028403029081029092039091026000889003889004909101858311909403939093029303949094049190911702949350505050565b6000611adc83836103e86125b2565b6040516331a9108f60e11b8152600481018690526000907f000000000000000000000000ecb62030e30bb027f672f24692111492ba2bbc846001600160a01b031690636352211e90602401602060405180830381865afa158015612716573d6000803e3d6000fd5b505050506040513d601f19601f8201168201806040525081019061273a9190615379565b90506000816001600160a01b031663ee0fc1216040518163ffffffff1660e01b8152600401602060405180830381865afa15801561277c573d6000803e3d6000fd5b505050506040513d601f19601f820116820180604052508101906127a09190615379565b90506000816001600160a01b03166388bc2ef36040518163ffffffff1660e01b8152600401602060405180830381865afa1580156127e2573d6000803e3d6000fd5b505050506040513d601f19601f820116820180604052508101906128069190615379565b60038a015460028b0154604051633a01714f60e01b8152600481018c90526001600160a01b039182166024820152929350600092911690633a01714f90604401606060405180830381865afa158015612863573d6000803e3d6000fd5b505050506040513d601f19601f82011682018060405250810190612887919061574b565b6040517f18139690000000000000000000000000000000000000000000000000000000008152600481018b90529091506000906001600160a01b03861690631813969090602401602060405180830381865afa1580156128eb573d6000803e3d6000fd5b505050506040513d601f19601f8201168201806040525081019061290f9190615396565b90506000846001600160a01b031663d4a1b4b16040518163ffffffff1660e01b8152600401602060405180830381865afa158015612951573d6000803e3d6000fd5b505050506040513d601f19601f820116820180604052508101906129759190615379565b6001600160a01b03166343a266c28c6040518263ffffffff1660e01b81526004016129a291815260200190565b61012060405180830381865afa1580156129c0573d6000803e3d6000fd5b505050506040513d601f19601f820116820180604052508101906129e491906153db565b6040517fd1754153000000000000000000000000000000000000000000000000000000008152600481018d90529091506000906001600160a01b0386169063d175415390602401600060405180830381865afa158015612a48573d6000803e3d6000fd5b505050506040513d6000823e601f3d908101601f19168201604052612a70919081019061548c565b8d549091506001600160701b03168b1180612a9c57508c54600160701b90046001600160701b03168a14155b8015612b6157508a612b5f8d8c86886020015160ff16896040015163ffffffff1688888e6001600160a01b0316631eabcd346040518163ffffffff1660e01b8152600401602060405180830381865afa158015612afd573d6000803e3d6000fd5b505050506040513d601f19601f82011682018060405250810190612b219190615379565b8f6001600160a01b0316631d831d5c6040518163ffffffff1660e01b8152600401602060405180830381865afa158015611478573d6000803e3d6000fd5b105b15612b7f5760405163c459ec8360e01b815260040160405180910390fd5b50508a546001600160701b03168911159150612dd390505760028901546040517f862026500000000000000000000000000000000000000000000000000000000081527f000000000000000000000000000000000000000000000000000000000000000360048201526001600160a01b039182166024820152600091831690638620265090604401602060405180830381865afa158015612c24573d6000803e3d6000fd5b505050506040513d601f19601f82011682018060405250810190612c489190615379565b9050612dcd8a6040518060c00160405290816000820160009054906101000a90046001600160701b03166001600160701b03166001600160701b0316815260200160008201600e9054906101000a90046001600160701b03166001600160701b03166001600160701b031681526020016001820160009054906101000a900464ffffffffff1664ffffffffff1664ffffffffff1681526020016001820160059054906101000a900461ffff1661ffff1661ffff1681526020016001820160079054906101000a900463ffffffff1663ffffffff1663ffffffff168152602001600282016040518060400160405290816000820160009054906101000a90046001600160a01b03166001600160a01b03166001600160a01b031681526020016001820160009054906101000a90046001600160a01b03166001600160a01b03166001600160a01b031681525050815250508a8c60000160009054906101000a90046001600160701b03166001600160701b03168b612dc5919061553e565b89858a613ad2565b50612e8d565b88546001600160701b0316871015612e8d576040805160c0810182528a546001600160701b03808216808452600160701b9092041660208084019190915260018d015464ffffffffff81168486015265010000000000810461ffff166060850152670100000000000000900463ffffffff166080840152835180850190945260028d01546001600160a01b03908116855260038e0154169084015260a0820192909252612e8d918a90612e87908b9061553e565b88613ee2565b8854600160701b90046001600160701b0316861115612ed3578854612ece908990612ec890600160701b90046001600160701b03168961553e565b8461404d565b612f16565b8854600160701b90046001600160701b0316861015612f16578854612f16908990612f0f908990600160701b90046001600160701b031661553e565b8685613254565b6002890154600090612f30906001600160a01b0316613816565b905080156130655760028a01546000906001600160a01b031661eeee14612f58576000612f5a565b815b60038c015460028d01546040519293506001600160a01b039182169263fef432579285928f9291169087908c90600090612fbc907f00000000000000000000000000000000000000000000000000000000000000039060200190815260200190565b6040516020818303038152906040526040518863ffffffff1660e01b8152600401612fec969594939291906157c3565b60206040518083038185885af193505050508015613027575060408051601f3d908101601f1916820190925261302491810190615396565b60015b613061573d808015613055576040519150601f19603f3d011682016040523d82523d6000602084013e61305a565b606091505b5050613063565b505b505b505087546001600160701b03958616600160701b026001600160e01b03199091169590961694909417949094179095555050505050565b6001600160a01b0382166130e7576040517f5b08ba180000000000000000000000000000000000000000000000000000000081526001600160a01b0383166004820152602401610c8d565b6001600160a01b03838116600081815260056020908152604080832094871680845294825291829020805460ff191686151590811790915591519182527f17307eab39ab6107e8899845ad3d59bd9653f200f220920489ca2b5937696c31910160405180910390a3505050565b6000806131638b868a8a614127565b905060006131738c8a8a88614202565b6040517f75b0d9cd000000000000000000000000000000000000000000000000000000008152600481018e90529091506000906001600160a01b038616906375b0d9cd90602401602060405180830381865afa1580156131d7573d6000803e3d6000fd5b505050506040513d601f19601f820116820180604052508101906131fb9190615396565b60008e8152600b602052604090205490915061324261321a848661522a565b8e8e613226858761522a565b613230919061522a565b6101008d015160141c61ffff1661448b565b9e9d5050505050505050505050505050565b6000848152600b60205260408120805485929061327290849061553e565b90915550506040517fc7fb92de00000000000000000000000000000000000000000000000000000000815260048101859052602481018490526001600160a01b03838116604483015260a06064830152601d60a48301527f52656d6f76696e6720636f6c6c61746572616c2066726f6d206c6f616e00000060c48301526000608483015282169063c7fb92de9060e4016020604051808303816000875af1158015613321573d6000803e3d6000fd5b505050506040513d601f19601f820116820180604052508101906133459190615396565b5050505050565b600061335b600083600061241f565b90506001600160a01b03811661093857604051637e27328960e01b815260048101839052602401610c8d565b6001600160a01b0383163b15610d1157826001600160a01b031663150b7a026133ae611c12565b8685856040518563ffffffff1660e01b81526004016133d09493929190615844565b6020604051808303816000875af192505050801561340b575060408051601f3d908101601f1916820190925261340891810190615876565b60015b613474573d808015613439576040519150601f19603f3d011682016040523d82523d6000602084013e61343e565b606091505b50805160000361346c57604051633250574960e11b81526001600160a01b0385166004820152602401610c8d565b805181602001fd5b6001600160e01b031981167f150b7a02000000000000000000000000000000000000000000000000000000001461334557604051633250574960e11b81526001600160a01b0385166004820152602401610c8d565b606060006134d683614501565b600101905060008167ffffffffffffffff8111156134f6576134f6614de4565b6040519080825280601f01601f191660200182016040528015613520576020820181803683370190505b5090508181016020015b600019017f3031323334353637383961626364656600000000000000000000000000000000600a86061a8153600a850494508461352a57509392505050565b600080836040015164ffffffffff1642613583919061553e565b9050836080015163ffffffff1681111561365c576312cc03008111156135d5576040517fcc6eb84800000000000000000000000000000000000000000000000000000000815260040160405180910390fd5b60006135f685600001516001600160701b0316866060015161ffff1661269f565b9050600061362c8287600001516001600160701b0316613616919061553e565b613627856103e86312cc03006125b2565b61269f565b905060008187600001516001600160701b0316613649919061522a565b90506136568287836125b2565b94505050505b5092915050565b6000366014336001600160a01b037f000000000000000000000000b2b5841dbef766d4b521221732f9b618fcf34a87161480156136a05750808210155b156136d0576000366136b2838561553e565b6136bd928290615893565b6136c6916158bd565b60601c9250505090565b339250505090565b80806136ec57506001600160a01b03821615155b156137e65760006136fc84611bd9565b90506001600160a01b038316158015906137285750826001600160a01b0316816001600160a01b031614155b801561375a57506001600160a01b0380821660009081526005602090815260408083209387168352929052205460ff16155b1561379c576040517fa9fbf51f0000000000000000000000000000000000000000000000000000000081526001600160a01b0384166004820152602401610c8d565b81156137e45783856001600160a01b0316826001600160a01b03167f8c5be1e5ebec7d5bd14f71427d1e84f3dd0314c0f7b2291e5b200ac8c7c3b92560405160405180910390a45b505b5050600090815260046020526040902080546001600160a01b0319166001600160a01b0392909216919091179055565b60006001600160a01b03821661eeee146138b0576040517f70a082310000000000000000000000000000000000000000000000000000000081523060048201526001600160a01b038316906370a0823190602401602060405180830381865afa158015613887573d6000803e3d6000fd5b505050506040513d601f19601f820116820180604052508101906138ab9190615396565b610854565b4792915050565b306001600160a01b038516036138fd5761eeed196001600160a01b038316016138e9576138e483826145e3565b610d11565b6138e46001600160a01b0383168483614693565b6040517fdd62ed3e0000000000000000000000000000000000000000000000000000000081526001600160a01b03858116600483015230602483015282919084169063dd62ed3e90604401602060405180830381865afa158015613965573d6000803e3d6000fd5b505050506040513d601f19601f820116820180604052508101906139899190615396565b106139a3576138e46001600160a01b038316858584614707565b6040517f36c785160000000000000000000000000000000000000000000000000000000081526001600160a01b0385811660048301528481166024830152828116604483015283811660648301527f000000000000000000000000000000000022d473030f116ddee9f6b43ac78ba316906336c7851690608401600060405180830381600087803b158015613a3757600080fd5b505af1158015613a4b573d6000803e3d6000fd5b5050505050505050565b613a60838383614740565b610d32576001600160a01b038316613a8e57604051637e27328960e01b815260048101829052602401610c8d565b6040517f177e802f0000000000000000000000000000000000000000000000000000000081526001600160a01b038316600482015260248101829052604401610c8d565b600085815260076020908152604080832060a08a0180518401516001600160a01b039081168652918452828520905151909116845290915290205460ff16613bbf57600085815260076020908152604080832060a08a0180518401516001600160a01b039081168652918452828520815151831686528452828520805460ff191660019081179091558a8652600c85528386208451808601909552825151841685529151850151831684860190815282548083018455928752949095209251600290910290920180549282166001600160a01b031993841617815592519290930180549290931691161790555b6000858152600a6020908152604080832060a08a0180518401516001600160a01b039081168652918452828520905151909116845290915281208054869290613c0990849061522a565b909155505060a086015160208101519051604051633a01714f60e01b81526000926001600160a01b031691633a01714f91613c5a918a916004019182526001600160a01b0316602082015260400190565b606060405180830381865afa158015613c77573d6000803e3d6000fd5b505050506040513d601f19601f82011682018060405250810190613c9b919061574b565b60a08801516020810151905160408381015190517f748e821c000000000000000000000000000000000000000000000000000000008152600481018b90526001600160a01b039283166024820152604481018a905263ffffffff9091166064820152600060848201523060a482015285821660c482015261010060e482015260196101048201527f4c656e64696e67206f757420746f206120626f72726f77657200000000000000610124820152929350169063748e821c90610144016020604051808303816000875af1158015613d77573d6000803e3d6000fd5b505050506040513d601f19601f82011682018060405250810190613d9b9190615396565b50506000613daa85600561269f565b60a0880151519091506000906001600160a01b031661eeee14613dce576000613dd0565b815b9050836001600160a01b031663fef43257827f00000000000000000000000000000000000000000000000000000000000000038b60a0015160000151868860008e604051602001613e2391815260200190565b6040516020818303038152906040526040518863ffffffff1660e01b8152600401613e53969594939291906157c3565b60206040518083038185885af193505050508015613e8e575060408051601f3d908101601f19168201909252613e8b91810190615396565b60015b613ec8573d808015613ebc576040519150601f19603f3d011682016040523d82523d6000602084013e613ec1565b606091505b5050613eca565b505b60a088015151613a4b903090859088611fa382613816565b6000838152600a6020908152604080832060a0880180518401516001600160a01b039081168652918452828520905151909116845290915281208054849290613f2c90849061553e565b909155505060a0840151516000906001600160a01b031661eeee14613f52576000613f54565b825b60a0860151602081015190519192506001600160a01b031690639e6eec05908390879086613f8182613816565b613f8b919061553e565b604080517f00000000000000000000000000000000000000000000000000000000000000036020820152600091016040516020818303038152906040526040518763ffffffff1660e01b8152600401613fe89594939291906158f2565b6000604051808303818588803b15801561400157600080fd5b505af193505050508015614013575060015b613345573d808015614041576040519150601f19603f3d011682016040523d82523d6000602084013e614046565b606091505b5050613345565b6000838152600b60205260408120805484929061406b90849061522a565b90915550506001600160a01b03811663a2d532e6614087611c12565b6040516001600160e01b031960e084901b1681526001600160a01b039091166004820152602481018690526044810185905260806064820152601960848201527f416464696e6720636f6c6c61746572616c20746f206c6f616e0000000000000060a482015260c401600060405180830381600087803b15801561410a57600080fd5b505af115801561411e573d6000803e3d6000fd5b50505050505050565b8251600090815b818110156141f8578581815181106141485761414861595d565b60209081029190910101516040517fcc6801270000000000000000000000000000000000000000000000000000000081526004810189905260248101879052604481018690526001600160a01b039091169063cc68012790606401602060405180830381865afa1580156141c0573d6000803e3d6000fd5b505050506040513d601f19601f820116820180604052508101906141e49190615396565b6141ee908461522a565b925060010161412e565b5050949350505050565b6000848152600c6020908152604080832080548251818502810185019093528083528493849084015b82821015614276576000848152602090819020604080518082019091526002850290910180546001600160a01b0390811683526001918201541682840152908352909201910161422b565b50508251604080518082019091526000808252602082015293945092915061429b9050565b60005b8281101561447f578381815181106142b8576142b861595d565b60200260200101519150600082602001516001600160a01b0316633a01714f8b85600001516040518363ffffffff1660e01b815260040161430c9291909182526001600160a01b0316602082015260400190565b606060405180830381865afa158015614329573d6000803e3d6000fd5b505050506040513d601f19601f8201168201806040525081019061434d919061574b565b9050600088826040015163ffffffff16146144095760408083015190517f3be273fa000000000000000000000000000000000000000000000000000000008152600481018d905263ffffffff9091166024820152604481018a9052606481018b90526001600160a01b03891690633be273fa90608401602060405180830381865afa1580156143e0573d6000803e3d6000fd5b505050506040513d601f19601f820116820180604052508101906144049190615396565b614414565b6144148a600a615a57565b60008c8152600a60208181526040808420898301516001600160a01b0390811686529083528185208a5190911685529091529091205491925061446490829061445e908e90615a57565b846125b2565b61446e908961522a565b9750506001909201915061429e9050565b50505050949350505050565b60008160000361449d575060006114a6565b8284106144ab5750836114a6565b60006144b88686866125b2565b905061270f1983016144cb5790506114a6565b6144f7816144e56144de8661271061553e565b88886125b2565b6144ef908661522a565b6127106125b2565b9695505050505050565b6000807a184f03e93ff9f4daa797ed6e38ed64bf6a1f010000000000000000831061454a577a184f03e93ff9f4daa797ed6e38ed64bf6a1f010000000000000000830492506040015b6d04ee2d6d415b85acef81000000008310614576576d04ee2d6d415b85acef8100000000830492506020015b662386f26fc10000831061459457662386f26fc10000830492506010015b6305f5e10083106145ac576305f5e100830492506008015b61271083106145c057612710830492506004015b606483106145d2576064830492506002015b600a83106108545760010192915050565b8047101561461f576040517fcd786059000000000000000000000000000000000000000000000000000000008152306004820152602401610c8d565b6000826001600160a01b03168260405160006040518083038185875af1925050503d806000811461466c576040519150601f19603f3d011682016040523d82523d6000602084013e614671565b606091505b5050905080610d3257604051630a12f52160e11b815260040160405180910390fd5b6040516001600160a01b03838116602483015260448201839052610d3291859182169063a9059cbb906064015b604051602081830303815290604052915060e01b6020820180517bffffffffffffffffffffffffffffffffffffffffffffffffffffffff83818316178352505050506147c3565b6040516001600160a01b038481166024830152838116604483015260648201839052610d119186918216906323b872dd906084016146c0565b60006001600160a01b038316158015906114a65750826001600160a01b0316846001600160a01b0316148061479a57506001600160a01b0380851660009081526005602090815260408083209387168352929052205460ff165b806114a65750506000908152600460205260409020546001600160a01b03908116911614919050565b60006147d86001600160a01b0384168361483f565b905080516000141580156147fd5750808060200190518101906147fb9190615a63565b155b15610d32576040517f5274afe70000000000000000000000000000000000000000000000000000000081526001600160a01b0384166004820152602401610c8d565b6060611adc8383600084600080856001600160a01b031684866040516148659190615a80565b60006040518083038185875af1925050503d80600081146148a2576040519150601f19603f3d011682016040523d82523d6000602084013e6148a7565b606091505b50915091506144f78683836060826148c7576148c282614927565b611adc565b81511580156148de57506001600160a01b0384163b155b15614920576040517f9996b3150000000000000000000000000000000000000000000000000000000081526001600160a01b0385166004820152602401610c8d565b5080611adc565b8051156149375780518082602001fd5b604051630a12f52160e11b815260040160405180910390fd5b50565b6001600160e01b03198116811461495057600080fd5b60006020828403121561497b57600080fd5b8135611adc81614953565b60006020828403121561499857600080fd5b5035919050565b60005b838110156149ba5781810151838201526020016149a2565b50506000910152565b600081518084526149db81602086016020860161499f565b601f01601f19169290920160200192915050565b602081526000611adc60208301846149c3565b6001600160a01b038116811461495057600080fd5b60008060408385031215614a2a57600080fd5b8235614a3581614a02565b946020939093013593505050565b600080600080600060a08688031215614a5b57600080fd5b8535945060208601359350604086013592506060860135614a7b81614a02565b9150608086013567ffffffffffffffff811115614a9757600080fd5b860160a08189031215614aa957600080fd5b809150509295509295909350565b6001600160701b038082511683528060208301511660208401525064ffffffffff604082015116604083015261ffff606082015116606083015263ffffffff608082015116608083015260a0810151610d3260a084018280516001600160a01b03908116835260209182015116910152565b8281526101008101611adc6020830184614ab7565b600060408284031215614b5057600080fd5b50919050565b6000806000806000806000610100888a031215614b7257600080fd5b8735965060208801359550614b8a8960408a01614b3e565b94506080880135935060a0880135925060c0880135614ba881614a02565b8092505060e0880135905092959891949750929550565b848152602081018490526102008101614bdb6040830185614ab7565b611e64610120830184614ab7565b600080600060608486031215614bfe57600080fd5b8335614c0981614a02565b92506020840135614c1981614a02565b929592945050506040919091013590565b600080600060608486031215614c3f57600080fd5b833592506020840135614c5181614a02565b91506040840135614c6181614a02565b809150509250925092565b600060208284031215614c7e57600080fd5b8135611adc81614a02565b60008060008060008060e08789031215614ca257600080fd5b86359550614cb38860208901614b3e565b9450606087013593506080870135925060a0870135614cd181614a02565b8092505060c087013590509295509295509295565b602080825282518282018190526000919060409081850190868401855b82811015614d3c57614d2c84835180516001600160a01b03908116835260209182015116910152565b9284019290850190600101614d03565b5091979650505050505050565b801515811461495057600080fd5b60008060408385031215614d6a57600080fd5b8235614d7581614a02565b91506020830135614d8581614d49565b809150509250929050565b60008060008060808587031215614da657600080fd5b5050823594602084013594506040840135936060013592509050565b60008060408385031215614dd557600080fd5b50508035926020909101359150565b634e487b7160e01b600052604160045260246000fd5b60405160c0810167ffffffffffffffff81118282101715614e1d57614e1d614de4565b60405290565b604051610120810167ffffffffffffffff81118282101715614e1d57614e1d614de4565b604051601f8201601f1916810167ffffffffffffffff81118282101715614e7057614e70614de4565b604052919050565b600082601f830112614e8957600080fd5b813567ffffffffffffffff811115614ea357614ea3614de4565b614eb6601f8201601f1916602001614e47565b818152846020838601011115614ecb57600080fd5b816020850160208301376000918101602001919091529392505050565b60008060008060808587031215614efe57600080fd5b8435614f0981614a02565b93506020850135614f1981614a02565b925060408501359150606085013567ffffffffffffffff811115614f3c57600080fd5b614f4887828801614e78565b91505092959194509250565b60e081016108548284614ab7565b60008060408385031215614f7557600080fd5b8235614f8081614a02565b91506020830135614d8581614a02565b6001600160701b038116811461495057600080fd5b803561ffff81168114614fb757600080fd5b919050565b63ffffffff8116811461495057600080fd5b8035614fb781614fbc565b600060408284031215614feb57600080fd5b6040516040810181811067ffffffffffffffff8211171561500e5761500e614de4565b604052905080823561501f81614a02565b8152602083013561502f81614a02565b6020919091015292915050565b60008082840361010081121561505157600080fd5b60e081121561505f57600080fd5b50615068614dfa565b833561507381614f90565b8152602084013561508381614f90565b6020820152604084013564ffffffffff811681146150a057600080fd5b60408201526150b160608501614fa5565b60608201526150c260808501614fce565b60808201526150d48560a08601614fd9565b60a08201529460e0939093013593505050565b634e487b7160e01b600052601260045260246000fd5b634e487b7160e01b600052601160045260246000fd5b60008261513057634e487b7160e01b600052601260045260246000fd5b500490565b600181811c9082168061514957607f821691505b602082108103614b5057634e487b7160e01b600052602260045260246000fd5b65ffffffffffff8116811461495057600080fd5b600060a0823603121561518f57600080fd5b60405160a0810167ffffffffffffffff82821081831117156151b3576151b3614de4565b8160405284358352602085013591506151cb82614a02565b816020840152604085013591506151e182615169565b816040840152606085013591506151f782615169565b816060840152608085013591508082111561521157600080fd5b5061521e36828601614e78565b60808301525092915050565b80820180821115610854576108546150fd565b60006001820161524f5761524f6150fd565b5060010190565b813561526181614a02565b81546001600160a01b0319166001600160a01b03821617825550602082013561528981614a02565b6001820180546001600160a01b0319166001600160a01b038316179055505050565b86546001600160701b03808216835260709190911c166020820152600187015464ffffffffff81166040830152602881901c61ffff16606083015260381c63ffffffff16608082015260028701546001600160a01b0390811660a083015260038801541660c08201526101a08101863561532481614a02565b6001600160a01b0390811660e084015260208801359061534382614a02565b80821661010085015287610120850152866101408501528086166101608501528085166101808501525050979650505050505050565b60006020828403121561538b57600080fd5b8151611adc81614a02565b6000602082840312156153a857600080fd5b5051919050565b8051614fb781615169565b8051614fb781614fbc565b8051614fb781614f90565b8051614fb781614a02565b600061012082840312156153ee57600080fd5b6153f6614e23565b6153ff836153af565b815261540d602084016153af565b602082015261541e604084016153af565b604082015261542f606084016153af565b6060820152615440608084016153ba565b608082015261545160a084016153c5565b60a082015261546260c084016153ba565b60c082015261547360e084016153d0565b60e0820152610100928301519281019290925250919050565b6000602080838503121561549f57600080fd5b825167ffffffffffffffff808211156154b757600080fd5b818501915085601f8301126154cb57600080fd5b8151818111156154dd576154dd614de4565b8060051b91506154ee848301614e47565b818152918301840191848101908884111561550857600080fd5b938501935b83851015615532578451925061552283614a02565b828252938501939085019061550d565b98975050505050505050565b81810381811115610854576108546150fd565b61010081016155608285614ab7565b6001600160a01b03831660e08301529392505050565b6000835161558881846020880161499f565b83519083019061559c81836020880161499f565b01949350505050565b60006101006001600160a01b0380871684528551818151166020860152816020820151166040860152604081015165ffffffffffff80821660608801528060608401511660808801525050508060208701511660a085015250604085015160c08401528060e08401526144f7818401856149c3565b87546001600160701b03808216835260709190911c166020820152600188015464ffffffffff81166040830152602881901c61ffff16606083015260381c63ffffffff16608082015260028801546001600160a01b0390811660a083015260038901541660c0820152610260810187546001600160701b0380821660e085015260709190911c16610100830152600188015464ffffffffff8116610120840152602881901c61ffff1661014084015260381c63ffffffff1661016083015260028801546001600160a01b039081166101808401526003890154166101a08301526101c08201969096526101e08101949094526102008401929092526001600160a01b03908116610220840152166102409091015292915050565b8082028115828204841417610854576108546150fd565b60006060828403121561575d57600080fd5b6040516060810181811067ffffffffffffffff8211171561578057615780614de4565b604052825161578e81614a02565b8152602083015160ff811681146157a457600080fd5b602082015260408301516157b781614fbc565b60408201529392505050565b86815260006001600160a01b03808816602084015286604084015280861660608401525083608083015260e060a0830152600d60e08301527f4665652066726f6d206c6f616e000000000000000000000000000000000000006101008301526101208060c0840152615837818401856149c3565b9998505050505050505050565b60006001600160a01b038087168352808616602084015250836040830152608060608301526144f760808301846149c3565b60006020828403121561588857600080fd5b8151611adc81614953565b600080858511156158a357600080fd5b838611156158b057600080fd5b5050820193919092039150565b6bffffffffffffffffffffffff1981358181169160148510156158ea5780818660140360031b1b83161692505b505092915050565b8581526001600160a01b0385166020820152836040820152821515606082015260c06080820152600f60c08201527f506179696e67206f6666206c6f616e000000000000000000000000000000000060e082015260006101008060a0840152615532818401856149c3565b634e487b7160e01b600052603260045260246000fd5b600181815b808511156159ae578160001904821115615994576159946150fd565b808516156159a157918102915b93841c9390800290615978565b509250929050565b6000826159c557506001610854565b816159d257506000610854565b81600181146159e857600281146159f257615a0e565b6001915050610854565b60ff841115615a0357615a036150fd565b50506001821b610854565b5060208310610133831016604e8410600b8410161715615a31575081810a610854565b615a3b8383615973565b8060001904821115615a4f57615a4f6150fd565b029392505050565b6000611adc83836159b6565b600060208284031215615a7557600080fd5b8151611adc81614d49565b60008251615a9281846020870161499f565b919091019291505056fea26469706673582212205c6481603c884463777c174cd17973d9c973125981e035964fba49d410f13e9764736f6c63430008170033",
	"devdoc": {
		"kind": "dev",
		"methods": {
			"approve(address,uint256)": {
				"details": "See {IERC721-approve}."
			},
			"balanceOf(address)": {
				"details": "See {IERC721-balanceOf}."
			},
			"borrowFrom(uint256,(address,address),uint256,uint256,address,uint256)": {
				"params": {
					"amount": "The amount being borrowed.",
					"beneficiary": "The address that'll receive the borrowed funds and the tokens resulting from fee payments.",
					"collateral": "The amount of tokens to use as collateral for the loan.",
					"prepaidFeePercent": "The fee percent that will be charged upfront from the revnet being borrowed from. Prepaying a fee is cheaper than paying later.",
					"revnetId": "The ID of the revnet being borrowed from.",
					"source": "The source of the loan being borrowed."
				},
				"returns": {
					"_1": "loan The loan created from borrowing.",
					"loanId": "The ID of the loan created from borrowing."
				}
			},
			"borrowableAmountFrom(uint256,uint256,uint256,uint256)": {
				"params": {
					"collateral": "The amount of collateral used to secure the loan.",
					"currency": "The currency that the resulting amount should be in terms of.",
					"decimals": "The decimals the resulting fixed point value will include.",
					"revnetId": "The ID of the revnet to check for borrowable assets from."
				},
				"returns": {
					"_0": "borrowableAmount The amount that can be borrowed from the revnet."
				}
			},
			"constructor": {
				"params": {
					"permit2": "A permit2 utility.",
					"projects": "A contract which mints ERC-721s that represent project ownership and transfers.",
					"revId": "The ID of the REV revnet that will receive the fees.",
					"trustedForwarder": "A trusted forwarder of transactions to this contract."
				}
			},
			"determineSourceFeeAmount((uint112,uint112,uint40,uint16,uint32,(address,address)),uint256)": {
				"params": {
					"amount": "The amount being paid off.",
					"loan": "The loan having its source fee amount determined."
				},
				"returns": {
					"_0": "sourceFeeAmount The source fee amount for the loan."
				}
			},
			"getApproved(uint256)": {
				"details": "See {IERC721-getApproved}."
			},
			"isApprovedForAll(address,address)": {
				"details": "See {IERC721-isApprovedForAll}."
			},
			"isTrustedForwarder(address)": {
				"details": "Indicates whether any particular address is the trusted forwarder."
			},
			"liquidateExpiredLoansFrom(uint256,uint256)": {
				"details": "Since loans are created in incremental order, earlier IDs will always be liquidated before later ones.",
				"params": {
					"count": "The amount of loans iterate over since the last liquidated loan.",
					"revnetId": "The ID of the revnet to liquidate loans from."
				}
			},
			"loanOf(uint256)": {
				"custom:member": "The ID of the loan."
			},
			"loanSourcesOf(uint256)": {
				"custom:member": "revnetId The ID of the revnet issuing the loan."
			},
			"name()": {
				"details": "See {IERC721Metadata-name}."
			},
			"ownerOf(uint256)": {
				"details": "See {IERC721-ownerOf}."
			},
			"reallocateCollateralFromLoan(uint256,uint256,(address,address),uint256,uint256,address,uint256)": {
				"details": "Useful if a loan's collateral has gone up in value since the loan was created.Refinancing a loan will burn the original and create two new loans.",
				"params": {
					"amount": "The amount being borrowed.",
					"beneficiary": "The address that'll receive the borrowed funds and the tokens resulting from fee payments.",
					"collateralToAdd": "The amount of collateral to add to the loan.",
					"collateralToTransfer": "The amount of collateral to transfer from the original loan.",
					"loanId": "The ID of the loan to reallocate collateral from.",
					"prepaidFeePercent": "The fee percent that will be charged upfront from the revnet being borrowed from.",
					"source": "The source of the loan to create."
				},
				"returns": {
					"newLoan": "The new loan created from reallocating collateral.",
					"newLoanId": "The ID of the new loan.",
					"reallocatedLoan": "The loan being reallocated.",
					"reallocatedLoanId": "The ID of the loan being reallocated."
				}
			},
			"repayLoan(uint256,uint256,uint256,address,(uint256,uint160,uint48,uint48,bytes))": {
				"params": {
					"allowance": "An allowance to faciliate permit2 interactions.",
					"amount": "The amount being paid off.",
					"beneficiary": "The address receiving the returned collateral and any tokens resulting from paying fees.",
					"collateralToReturn": "The amount of collateral to return being returned from the loan.",
					"loanId": "The ID of the loan being adjusted."
				},
				"returns": {
					"_0": "paidOffLoanId The ID of the loan after it's been paid off.",
					"_1": "paidOffloan The loan after it's been paid off."
				}
			},
			"revnetIdOfLoanWith(uint256)": {
				"params": {
					"loanId": "The loan ID of the loan to get the revent ID of."
				},
				"returns": {
					"_0": "The ID of the revnet."
				}
			},
			"safeTransferFrom(address,address,uint256)": {
				"details": "See {IERC721-safeTransferFrom}."
			},
			"safeTransferFrom(address,address,uint256,bytes)": {
				"details": "See {IERC721-safeTransferFrom}."
			},
			"setApprovalForAll(address,bool)": {
				"details": "See {IERC721-setApprovalForAll}."
			},
			"supportsInterface(bytes4)": {
				"details": "See {IERC165-supportsInterface}."
			},
			"symbol()": {
				"details": "See {IERC721Metadata-symbol}."
			},
			"tokenURI(uint256)": {
				"details": "See {IERC721Metadata-tokenURI}."
			},
			"transferFrom(address,address,uint256)": {
				"details": "See {IERC721-transferFrom}."
			},
			"trustedForwarder()": {
				"details": "Returns the address of the trusted forwarder."
			}
		},
		"version": 1
	},
	"userdoc": {
		"kind": "user",
		"methods": {
			"PERMIT2()": {
				"notice": "The permit2 utility."
			},
			"PROJECTS()": {
				"notice": "Mints ERC-721s that represent project ownership and transfers."
			},
			"REV_ID()": {
				"notice": "The ID of the REV revnet that will receive the fees."
			},
			"borrowFrom(uint256,(address,address),uint256,uint256,address,uint256)": {
				"notice": "Open a loan by borrowing from a revnet."
			},
			"borrowableAmountFrom(uint256,uint256,uint256,uint256)": {
				"notice": "The amount that can be borrowed from a revnet."
			},
			"determineSourceFeeAmount((uint112,uint112,uint40,uint16,uint32,(address,address)),uint256)": {
				"notice": "Determines the source fee amount for a loan being paid off a certain amount."
			},
			"isLoanSourceOf(uint256,address,address)": {
				"notice": "An indication if a revnet currently has outstanding loans from the specified terminal in the specified token."
			},
			"lastLoanIdLiquidatedFrom(uint256)": {
				"notice": "The ID of the last revnet that has been successfully liquiditated after passing the duration."
			},
			"liquidateExpiredLoansFrom(uint256,uint256)": {
				"notice": "Cleans up any liquiditated loans."
			},
			"loanOf(uint256)": {
				"notice": "Get a loan."
			},
			"loanSourcesOf(uint256)": {
				"notice": "The sources of each revnet's loan."
			},
			"numberOfLoansFor(uint256)": {
				"notice": "The amount of loans that have been created."
			},
			"reallocateCollateralFromLoan(uint256,uint256,(address,address),uint256,uint256,address,uint256)": {
				"notice": "Refinances a loan by transferring extra collateral from an existing loan to a new loan."
			},
			"repayLoan(uint256,uint256,uint256,address,(uint256,uint160,uint48,uint48,bytes))": {
				"notice": "Allows the owner of a loan to pay it back or receive returned collateral no longer necessary to support the loan."
			},
			"revnetIdOfLoanWith(uint256)": {
				"notice": "The revnet ID for the loan with the provided loan ID."
			},
			"totalBorrowedFrom(uint256,address,address)": {
				"notice": "The total amount loaned out by a revnet from a specified terminal in a specified token."
			},
			"totalCollateralOf(uint256)": {
				"notice": "The total amount of collateral supporting a revnet's loans."
			}
		},
		"version": 1
	},
	"gitCommit": "ae583e1b785317aaf42bc006b98075477139b349",
	"sourceName": "src/REVLoans.sol",
	"chainId": "84532",
	"linkReferences": {},
	"deployedLinkReferences": {},
	"history": []
}