{
	"_format": "sphinx-sol-ct-artifact-1",
	"merkleRoot": "0x39fa168c56ec7fbed45680314f9554d2b963885dbb4a5403a62ba43526a7f221",
	"contractName": "REVTiered721HookDeployer",
	"address": "0x505271E3EFD549320388B3bD94fAFB5fcAAF87CD",
	"abi": [
		{
			"type": "constructor",
			"inputs": [
				{
					"name": "controller",
					"type": "address",
					"internalType": "contract IJBController"
				},
				{
					"name": "suckerRegistry",
					"type": "address",
					"internalType": "contract IJBSuckerRegistry"
				},
				{
					"name": "feeRevnetId",
					"type": "uint256",
					"internalType": "uint256"
				},
				{
					"name": "hookDeployer",
					"type": "address",
					"internalType": "contract IJB721TiersHookDeployer"
				}
			],
			"stateMutability": "nonpayable"
		},
		{
			"type": "function",
			"name": "CASH_OUT_DELAY",
			"inputs": [],
			"outputs": [
				{
					"name": "",
					"type": "uint256",
					"internalType": "uint256"
				}
			],
			"stateMutability": "view"
		},
		{
			"type": "function",
			"name": "CONTROLLER",
			"inputs": [],
			"outputs": [
				{
					"name": "",
					"type": "address",
					"internalType": "contract IJBController"
				}
			],
			"stateMutability": "view"
		},
		{
			"type": "function",
			"name": "FEE",
			"inputs": [],
			"outputs": [
				{
					"name": "",
					"type": "uint256",
					"internalType": "uint256"
				}
			],
			"stateMutability": "view"
		},
		{
			"type": "function",
			"name": "FEE_REVNET_ID",
			"inputs": [],
			"outputs": [
				{
					"name": "",
					"type": "uint256",
					"internalType": "uint256"
				}
			],
			"stateMutability": "view"
		},
		{
			"type": "function",
			"name": "HOOK_DEPLOYER",
			"inputs": [],
			"outputs": [
				{
					"name": "",
					"type": "address",
					"internalType": "contract IJB721TiersHookDeployer"
				}
			],
			"stateMutability": "view"
		},
		{
			"type": "function",
			"name": "SUCKER_REGISTRY",
			"inputs": [],
			"outputs": [
				{
					"name": "",
					"type": "address",
					"internalType": "contract IJBSuckerRegistry"
				}
			],
			"stateMutability": "view"
		},
		{
			"type": "function",
			"name": "afterRedeemRecordedWith",
			"inputs": [
				{
					"name": "context",
					"type": "tuple",
					"internalType": "struct JBAfterRedeemRecordedContext",
					"components": [
						{
							"name": "holder",
							"type": "address",
							"internalType": "address"
						},
						{
							"name": "projectId",
							"type": "uint256",
							"internalType": "uint256"
						},
						{
							"name": "rulesetId",
							"type": "uint256",
							"internalType": "uint256"
						},
						{
							"name": "redeemCount",
							"type": "uint256",
							"internalType": "uint256"
						},
						{
							"name": "reclaimedAmount",
							"type": "tuple",
							"internalType": "struct JBTokenAmount",
							"components": [
								{
									"name": "token",
									"type": "address",
									"internalType": "address"
								},
								{
									"name": "decimals",
									"type": "uint8",
									"internalType": "uint8"
								},
								{
									"name": "currency",
									"type": "uint32",
									"internalType": "uint32"
								},
								{
									"name": "value",
									"type": "uint256",
									"internalType": "uint256"
								}
							]
						},
						{
							"name": "forwardedAmount",
							"type": "tuple",
							"internalType": "struct JBTokenAmount",
							"components": [
								{
									"name": "token",
									"type": "address",
									"internalType": "address"
								},
								{
									"name": "decimals",
									"type": "uint8",
									"internalType": "uint8"
								},
								{
									"name": "currency",
									"type": "uint32",
									"internalType": "uint32"
								},
								{
									"name": "value",
									"type": "uint256",
									"internalType": "uint256"
								}
							]
						},
						{
							"name": "redemptionRate",
							"type": "uint256",
							"internalType": "uint256"
						},
						{
							"name": "beneficiary",
							"type": "address",
							"internalType": "address payable"
						},
						{
							"name": "hookMetadata",
							"type": "bytes",
							"internalType": "bytes"
						},
						{
							"name": "redeemerMetadata",
							"type": "bytes",
							"internalType": "bytes"
						}
					]
				}
			],
			"outputs": [],
			"stateMutability": "payable"
		},
		{
			"type": "function",
			"name": "allowedMintCountOf",
			"inputs": [
				{
					"name": "revnetId",
					"type": "uint256",
					"internalType": "uint256"
				},
				{
					"name": "stageId",
					"type": "uint256",
					"internalType": "uint256"
				},
				{
					"name": "beneficiary",
					"type": "address",
					"internalType": "address"
				}
			],
			"outputs": [
				{
					"name": "",
					"type": "uint256",
					"internalType": "uint256"
				}
			],
			"stateMutability": "view"
		},
		{
			"type": "function",
			"name": "beforePayRecordedWith",
			"inputs": [
				{
					"name": "context",
					"type": "tuple",
					"internalType": "struct JBBeforePayRecordedContext",
					"components": [
						{
							"name": "terminal",
							"type": "address",
							"internalType": "address"
						},
						{
							"name": "payer",
							"type": "address",
							"internalType": "address"
						},
						{
							"name": "amount",
							"type": "tuple",
							"internalType": "struct JBTokenAmount",
							"components": [
								{
									"name": "token",
									"type": "address",
									"internalType": "address"
								},
								{
									"name": "decimals",
									"type": "uint8",
									"internalType": "uint8"
								},
								{
									"name": "currency",
									"type": "uint32",
									"internalType": "uint32"
								},
								{
									"name": "value",
									"type": "uint256",
									"internalType": "uint256"
								}
							]
						},
						{
							"name": "projectId",
							"type": "uint256",
							"internalType": "uint256"
						},
						{
							"name": "rulesetId",
							"type": "uint256",
							"internalType": "uint256"
						},
						{
							"name": "beneficiary",
							"type": "address",
							"internalType": "address"
						},
						{
							"name": "weight",
							"type": "uint256",
							"internalType": "uint256"
						},
						{
							"name": "reservedRate",
							"type": "uint256",
							"internalType": "uint256"
						},
						{
							"name": "metadata",
							"type": "bytes",
							"internalType": "bytes"
						}
					]
				}
			],
			"outputs": [
				{
					"name": "weight",
					"type": "uint256",
					"internalType": "uint256"
				},
				{
					"name": "hookSpecifications",
					"type": "tuple[]",
					"internalType": "struct JBPayHookSpecification[]",
					"components": [
						{
							"name": "hook",
							"type": "address",
							"internalType": "contract IJBPayHook"
						},
						{
							"name": "amount",
							"type": "uint256",
							"internalType": "uint256"
						},
						{
							"name": "metadata",
							"type": "bytes",
							"internalType": "bytes"
						}
					]
				}
			],
			"stateMutability": "view"
		},
		{
			"type": "function",
			"name": "beforeRedeemRecordedWith",
			"inputs": [
				{
					"name": "context",
					"type": "tuple",
					"internalType": "struct JBBeforeRedeemRecordedContext",
					"components": [
						{
							"name": "terminal",
							"type": "address",
							"internalType": "address"
						},
						{
							"name": "holder",
							"type": "address",
							"internalType": "address"
						},
						{
							"name": "projectId",
							"type": "uint256",
							"internalType": "uint256"
						},
						{
							"name": "rulesetId",
							"type": "uint256",
							"internalType": "uint256"
						},
						{
							"name": "redeemCount",
							"type": "uint256",
							"internalType": "uint256"
						},
						{
							"name": "totalSupply",
							"type": "uint256",
							"internalType": "uint256"
						},
						{
							"name": "surplus",
							"type": "tuple",
							"internalType": "struct JBTokenAmount",
							"components": [
								{
									"name": "token",
									"type": "address",
									"internalType": "address"
								},
								{
									"name": "decimals",
									"type": "uint8",
									"internalType": "uint8"
								},
								{
									"name": "currency",
									"type": "uint32",
									"internalType": "uint32"
								},
								{
									"name": "value",
									"type": "uint256",
									"internalType": "uint256"
								}
							]
						},
						{
							"name": "useTotalSurplus",
							"type": "bool",
							"internalType": "bool"
						},
						{
							"name": "redemptionRate",
							"type": "uint256",
							"internalType": "uint256"
						},
						{
							"name": "metadata",
							"type": "bytes",
							"internalType": "bytes"
						}
					]
				}
			],
			"outputs": [
				{
					"name": "",
					"type": "uint256",
					"internalType": "uint256"
				},
				{
					"name": "",
					"type": "uint256",
					"internalType": "uint256"
				},
				{
					"name": "",
					"type": "uint256",
					"internalType": "uint256"
				},
				{
					"name": "hookSpecifications",
					"type": "tuple[]",
					"internalType": "struct JBRedeemHookSpecification[]",
					"components": [
						{
							"name": "hook",
							"type": "address",
							"internalType": "contract IJBRedeemHook"
						},
						{
							"name": "amount",
							"type": "uint256",
							"internalType": "uint256"
						},
						{
							"name": "metadata",
							"type": "bytes",
							"internalType": "bytes"
						}
					]
				}
			],
			"stateMutability": "view"
		},
		{
			"type": "function",
			"name": "buybackHookOf",
			"inputs": [
				{
					"name": "revnetId",
					"type": "uint256",
					"internalType": "uint256"
				}
			],
			"outputs": [
				{
					"name": "buybackHook",
					"type": "address",
					"internalType": "contract IJBRulesetDataHook"
				}
			],
			"stateMutability": "view"
		},
		{
			"type": "function",
			"name": "cashOutDelayOf",
			"inputs": [
				{
					"name": "revnetId",
					"type": "uint256",
					"internalType": "uint256"
				}
			],
			"outputs": [
				{
					"name": "cashOutDelay",
					"type": "uint256",
					"internalType": "uint256"
				}
			],
			"stateMutability": "view"
		},
		{
			"type": "function",
			"name": "deployFor",
			"inputs": [
				{
					"name": "revnetId",
					"type": "uint256",
					"internalType": "uint256"
				},
				{
					"name": "configuration",
					"type": "tuple",
					"internalType": "struct REVConfig",
					"components": [
						{
							"name": "description",
							"type": "tuple",
							"internalType": "struct REVDescription",
							"components": [
								{
									"name": "name",
									"type": "string",
									"internalType": "string"
								},
								{
									"name": "ticker",
									"type": "string",
									"internalType": "string"
								},
								{
									"name": "uri",
									"type": "string",
									"internalType": "string"
								},
								{
									"name": "salt",
									"type": "bytes32",
									"internalType": "bytes32"
								}
							]
						},
						{
							"name": "baseCurrency",
							"type": "uint32",
							"internalType": "uint32"
						},
						{
							"name": "splitOperator",
							"type": "address",
							"internalType": "address"
						},
						{
							"name": "stageConfigurations",
							"type": "tuple[]",
							"internalType": "struct REVStageConfig[]",
							"components": [
								{
									"name": "startsAtOrAfter",
									"type": "uint40",
									"internalType": "uint40"
								},
								{
									"name": "mintConfigs",
									"type": "tuple[]",
									"internalType": "struct REVMintConfig[]",
									"components": [
										{
											"name": "chainId",
											"type": "uint32",
											"internalType": "uint32"
										},
										{
											"name": "count",
											"type": "uint104",
											"internalType": "uint104"
										},
										{
											"name": "beneficiary",
											"type": "address",
											"internalType": "address"
										}
									]
								},
								{
									"name": "splitPercent",
									"type": "uint16",
									"internalType": "uint16"
								},
								{
									"name": "initialPrice",
									"type": "uint112",
									"internalType": "uint112"
								},
								{
									"name": "priceIncreaseFrequency",
									"type": "uint32",
									"internalType": "uint32"
								},
								{
									"name": "priceIncreasePercentage",
									"type": "uint32",
									"internalType": "uint32"
								},
								{
									"name": "cashOutTaxIntensity",
									"type": "uint16",
									"internalType": "uint16"
								}
							]
						}
					]
				},
				{
					"name": "terminalConfigurations",
					"type": "tuple[]",
					"internalType": "struct JBTerminalConfig[]",
					"components": [
						{
							"name": "terminal",
							"type": "address",
							"internalType": "contract IJBTerminal"
						},
						{
							"name": "accountingContextsToAccept",
							"type": "tuple[]",
							"internalType": "struct JBAccountingContext[]",
							"components": [
								{
									"name": "token",
									"type": "address",
									"internalType": "address"
								},
								{
									"name": "decimals",
									"type": "uint8",
									"internalType": "uint8"
								},
								{
									"name": "currency",
									"type": "uint32",
									"internalType": "uint32"
								}
							]
						}
					]
				},
				{
					"name": "buybackHookConfiguration",
					"type": "tuple",
					"internalType": "struct REVBuybackHookConfig",
					"components": [
						{
							"name": "hook",
							"type": "address",
							"internalType": "contract IJBBuybackHook"
						},
						{
							"name": "poolConfigurations",
							"type": "tuple[]",
							"internalType": "struct REVBuybackPoolConfig[]",
							"components": [
								{
									"name": "token",
									"type": "address",
									"internalType": "address"
								},
								{
									"name": "fee",
									"type": "uint24",
									"internalType": "uint24"
								},
								{
									"name": "twapWindow",
									"type": "uint32",
									"internalType": "uint32"
								},
								{
									"name": "twapSlippageTolerance",
									"type": "uint32",
									"internalType": "uint32"
								}
							]
						}
					]
				},
				{
					"name": "suckerDeploymentConfiguration",
					"type": "tuple",
					"internalType": "struct REVSuckerDeploymentConfig",
					"components": [
						{
							"name": "deployerConfigurations",
							"type": "tuple[]",
							"internalType": "struct JBSuckerDeployerConfig[]",
							"components": [
								{
									"name": "deployer",
									"type": "address",
									"internalType": "contract IJBSuckerDeployer"
								},
								{
									"name": "mappings",
									"type": "tuple[]",
									"internalType": "struct JBTokenMapping[]",
									"components": [
										{
											"name": "localToken",
											"type": "address",
											"internalType": "address"
										},
										{
											"name": "minGas",
											"type": "uint32",
											"internalType": "uint32"
										},
										{
											"name": "remoteToken",
											"type": "address",
											"internalType": "address"
										},
										{
											"name": "minBridgeAmount",
											"type": "uint256",
											"internalType": "uint256"
										}
									]
								}
							]
						},
						{
							"name": "salt",
							"type": "bytes32",
							"internalType": "bytes32"
						}
					]
				},
				{
					"name": "hookConfiguration",
					"type": "tuple",
					"internalType": "struct REVDeploy721TiersHookConfig",
					"components": [
						{
							"name": "baseline721HookConfiguration",
							"type": "tuple",
							"internalType": "struct JBDeploy721TiersHookConfig",
							"components": [
								{
									"name": "name",
									"type": "string",
									"internalType": "string"
								},
								{
									"name": "symbol",
									"type": "string",
									"internalType": "string"
								},
								{
									"name": "rulesets",
									"type": "address",
									"internalType": "contract IJBRulesets"
								},
								{
									"name": "baseUri",
									"type": "string",
									"internalType": "string"
								},
								{
									"name": "tokenUriResolver",
									"type": "address",
									"internalType": "contract IJB721TokenUriResolver"
								},
								{
									"name": "contractUri",
									"type": "string",
									"internalType": "string"
								},
								{
									"name": "tiersConfig",
									"type": "tuple",
									"internalType": "struct JB721InitTiersConfig",
									"components": [
										{
											"name": "tiers",
											"type": "tuple[]",
											"internalType": "struct JB721TierConfig[]",
											"components": [
												{
													"name": "price",
													"type": "uint104",
													"internalType": "uint104"
												},
												{
													"name": "initialSupply",
													"type": "uint32",
													"internalType": "uint32"
												},
												{
													"name": "votingUnits",
													"type": "uint32",
													"internalType": "uint32"
												},
												{
													"name": "reserveFrequency",
													"type": "uint16",
													"internalType": "uint16"
												},
												{
													"name": "reserveBeneficiary",
													"type": "address",
													"internalType": "address"
												},
												{
													"name": "encodedIPFSUri",
													"type": "bytes32",
													"internalType": "bytes32"
												},
												{
													"name": "category",
													"type": "uint24",
													"internalType": "uint24"
												},
												{
													"name": "allowOwnerMint",
													"type": "bool",
													"internalType": "bool"
												},
												{
													"name": "useReserveBeneficiaryAsDefault",
													"type": "bool",
													"internalType": "bool"
												},
												{
													"name": "transfersPausable",
													"type": "bool",
													"internalType": "bool"
												},
												{
													"name": "useVotingUnits",
													"type": "bool",
													"internalType": "bool"
												},
												{
													"name": "cannotBeRemoved",
													"type": "bool",
													"internalType": "bool"
												}
											]
										},
										{
											"name": "currency",
											"type": "uint32",
											"internalType": "uint32"
										},
										{
											"name": "decimals",
											"type": "uint8",
											"internalType": "uint8"
										},
										{
											"name": "prices",
											"type": "address",
											"internalType": "contract IJBPrices"
										}
									]
								},
								{
									"name": "reserveBeneficiary",
									"type": "address",
									"internalType": "address"
								},
								{
									"name": "flags",
									"type": "tuple",
									"internalType": "struct JB721TiersHookFlags",
									"components": [
										{
											"name": "noNewTiersWithReserves",
											"type": "bool",
											"internalType": "bool"
										},
										{
											"name": "noNewTiersWithVotes",
											"type": "bool",
											"internalType": "bool"
										},
										{
											"name": "noNewTiersWithOwnerMinting",
											"type": "bool",
											"internalType": "bool"
										},
										{
											"name": "preventOverspending",
											"type": "bool",
											"internalType": "bool"
										}
									]
								}
							]
						},
						{
							"name": "splitOperatorCanAdjustTiers",
							"type": "bool",
							"internalType": "bool"
						},
						{
							"name": "splitOperatorCanUpdateMetadata",
							"type": "bool",
							"internalType": "bool"
						},
						{
							"name": "splitOperatorCanMint",
							"type": "bool",
							"internalType": "bool"
						}
					]
				},
				{
					"name": "otherPayHooksSpecifications",
					"type": "tuple[]",
					"internalType": "struct JBPayHookSpecification[]",
					"components": [
						{
							"name": "hook",
							"type": "address",
							"internalType": "contract IJBPayHook"
						},
						{
							"name": "amount",
							"type": "uint256",
							"internalType": "uint256"
						},
						{
							"name": "metadata",
							"type": "bytes",
							"internalType": "bytes"
						}
					]
				},
				{
					"name": "extraHookMetadata",
					"type": "uint16",
					"internalType": "uint16"
				}
			],
			"outputs": [
				{
					"name": "",
					"type": "uint256",
					"internalType": "uint256"
				},
				{
					"name": "hook",
					"type": "address",
					"internalType": "contract IJB721TiersHook"
				}
			],
			"stateMutability": "nonpayable"
		},
		{
			"type": "function",
			"name": "deploySuckersFor",
			"inputs": [
				{
					"name": "revnetId",
					"type": "uint256",
					"internalType": "uint256"
				},
				{
					"name": "encodedConfiguration",
					"type": "bytes",
					"internalType": "bytes"
				},
				{
					"name": "suckerDeploymentConfiguration",
					"type": "tuple",
					"internalType": "struct REVSuckerDeploymentConfig",
					"components": [
						{
							"name": "deployerConfigurations",
							"type": "tuple[]",
							"internalType": "struct JBSuckerDeployerConfig[]",
							"components": [
								{
									"name": "deployer",
									"type": "address",
									"internalType": "contract IJBSuckerDeployer"
								},
								{
									"name": "mappings",
									"type": "tuple[]",
									"internalType": "struct JBTokenMapping[]",
									"components": [
										{
											"name": "localToken",
											"type": "address",
											"internalType": "address"
										},
										{
											"name": "minGas",
											"type": "uint32",
											"internalType": "uint32"
										},
										{
											"name": "remoteToken",
											"type": "address",
											"internalType": "address"
										},
										{
											"name": "minBridgeAmount",
											"type": "uint256",
											"internalType": "uint256"
										}
									]
								}
							]
						},
						{
							"name": "salt",
							"type": "bytes32",
							"internalType": "bytes32"
						}
					]
				}
			],
			"outputs": [],
			"stateMutability": "nonpayable"
		},
		{
			"type": "function",
			"name": "hasMintPermissionFor",
			"inputs": [
				{
					"name": "revnetId",
					"type": "uint256",
					"internalType": "uint256"
				},
				{
					"name": "addr",
					"type": "address",
					"internalType": "address"
				}
			],
			"outputs": [
				{
					"name": "",
					"type": "bool",
					"internalType": "bool"
				}
			],
			"stateMutability": "view"
		},
		{
			"type": "function",
			"name": "isSplitOperatorOf",
			"inputs": [
				{
					"name": "revnetId",
					"type": "uint256",
					"internalType": "uint256"
				},
				{
					"name": "addr",
					"type": "address",
					"internalType": "address"
				}
			],
			"outputs": [
				{
					"name": "",
					"type": "bool",
					"internalType": "bool"
				}
			],
			"stateMutability": "view"
		},
		{
			"type": "function",
			"name": "mintFor",
			"inputs": [
				{
					"name": "revnetId",
					"type": "uint256",
					"internalType": "uint256"
				},
				{
					"name": "stageId",
					"type": "uint256",
					"internalType": "uint256"
				},
				{
					"name": "beneficiary",
					"type": "address",
					"internalType": "address"
				}
			],
			"outputs": [],
			"stateMutability": "nonpayable"
		},
		{
			"type": "function",
			"name": "onERC721Received",
			"inputs": [
				{
					"name": "operator",
					"type": "address",
					"internalType": "address"
				},
				{
					"name": "",
					"type": "address",
					"internalType": "address"
				},
				{
					"name": "tokenId",
					"type": "uint256",
					"internalType": "uint256"
				},
				{
					"name": "data",
					"type": "bytes",
					"internalType": "bytes"
				}
			],
			"outputs": [
				{
					"name": "",
					"type": "bytes4",
					"internalType": "bytes4"
				}
			],
			"stateMutability": "view"
		},
		{
			"type": "function",
			"name": "payHookSpecificationsOf",
			"inputs": [
				{
					"name": "revnetId",
					"type": "uint256",
					"internalType": "uint256"
				}
			],
			"outputs": [
				{
					"name": "",
					"type": "tuple[]",
					"internalType": "struct JBPayHookSpecification[]",
					"components": [
						{
							"name": "hook",
							"type": "address",
							"internalType": "contract IJBPayHook"
						},
						{
							"name": "amount",
							"type": "uint256",
							"internalType": "uint256"
						},
						{
							"name": "metadata",
							"type": "bytes",
							"internalType": "bytes"
						}
					]
				}
			],
			"stateMutability": "view"
		},
		{
			"type": "function",
			"name": "replaceSplitOperatorOf",
			"inputs": [
				{
					"name": "revnetId",
					"type": "uint256",
					"internalType": "uint256"
				},
				{
					"name": "newSplitOperator",
					"type": "address",
					"internalType": "address"
				}
			],
			"outputs": [],
			"stateMutability": "nonpayable"
		},
		{
			"type": "function",
			"name": "supportsInterface",
			"inputs": [
				{
					"name": "",
					"type": "bytes4",
					"internalType": "bytes4"
				}
			],
			"outputs": [
				{
					"name": "",
					"type": "bool",
					"internalType": "bool"
				}
			],
			"stateMutability": "view"
		},
		{
			"type": "event",
			"name": "DeployRevnet",
			"inputs": [
				{
					"name": "revnetId",
					"type": "uint256",
					"indexed": true,
					"internalType": "uint256"
				},
				{
					"name": "suckerSalt",
					"type": "bytes32",
					"indexed": true,
					"internalType": "bytes32"
				},
				{
					"name": "configuration",
					"type": "tuple",
					"indexed": false,
					"internalType": "struct REVConfig",
					"components": [
						{
							"name": "description",
							"type": "tuple",
							"internalType": "struct REVDescription",
							"components": [
								{
									"name": "name",
									"type": "string",
									"internalType": "string"
								},
								{
									"name": "ticker",
									"type": "string",
									"internalType": "string"
								},
								{
									"name": "uri",
									"type": "string",
									"internalType": "string"
								},
								{
									"name": "salt",
									"type": "bytes32",
									"internalType": "bytes32"
								}
							]
						},
						{
							"name": "baseCurrency",
							"type": "uint32",
							"internalType": "uint32"
						},
						{
							"name": "splitOperator",
							"type": "address",
							"internalType": "address"
						},
						{
							"name": "stageConfigurations",
							"type": "tuple[]",
							"internalType": "struct REVStageConfig[]",
							"components": [
								{
									"name": "startsAtOrAfter",
									"type": "uint40",
									"internalType": "uint40"
								},
								{
									"name": "mintConfigs",
									"type": "tuple[]",
									"internalType": "struct REVMintConfig[]",
									"components": [
										{
											"name": "chainId",
											"type": "uint32",
											"internalType": "uint32"
										},
										{
											"name": "count",
											"type": "uint104",
											"internalType": "uint104"
										},
										{
											"name": "beneficiary",
											"type": "address",
											"internalType": "address"
										}
									]
								},
								{
									"name": "splitPercent",
									"type": "uint16",
									"internalType": "uint16"
								},
								{
									"name": "initialPrice",
									"type": "uint112",
									"internalType": "uint112"
								},
								{
									"name": "priceIncreaseFrequency",
									"type": "uint32",
									"internalType": "uint32"
								},
								{
									"name": "priceIncreasePercentage",
									"type": "uint32",
									"internalType": "uint32"
								},
								{
									"name": "cashOutTaxIntensity",
									"type": "uint16",
									"internalType": "uint16"
								}
							]
						}
					]
				},
				{
					"name": "terminalConfigurations",
					"type": "tuple[]",
					"indexed": false,
					"internalType": "struct JBTerminalConfig[]",
					"components": [
						{
							"name": "terminal",
							"type": "address",
							"internalType": "contract IJBTerminal"
						},
						{
							"name": "accountingContextsToAccept",
							"type": "tuple[]",
							"internalType": "struct JBAccountingContext[]",
							"components": [
								{
									"name": "token",
									"type": "address",
									"internalType": "address"
								},
								{
									"name": "decimals",
									"type": "uint8",
									"internalType": "uint8"
								},
								{
									"name": "currency",
									"type": "uint32",
									"internalType": "uint32"
								}
							]
						}
					]
				},
				{
					"name": "buybackHookConfiguration",
					"type": "tuple",
					"indexed": false,
					"internalType": "struct REVBuybackHookConfig",
					"components": [
						{
							"name": "hook",
							"type": "address",
							"internalType": "contract IJBBuybackHook"
						},
						{
							"name": "poolConfigurations",
							"type": "tuple[]",
							"internalType": "struct REVBuybackPoolConfig[]",
							"components": [
								{
									"name": "token",
									"type": "address",
									"internalType": "address"
								},
								{
									"name": "fee",
									"type": "uint24",
									"internalType": "uint24"
								},
								{
									"name": "twapWindow",
									"type": "uint32",
									"internalType": "uint32"
								},
								{
									"name": "twapSlippageTolerance",
									"type": "uint32",
									"internalType": "uint32"
								}
							]
						}
					]
				},
				{
					"name": "suckerDeploymentConfiguration",
					"type": "tuple",
					"indexed": false,
					"internalType": "struct REVSuckerDeploymentConfig",
					"components": [
						{
							"name": "deployerConfigurations",
							"type": "tuple[]",
							"internalType": "struct JBSuckerDeployerConfig[]",
							"components": [
								{
									"name": "deployer",
									"type": "address",
									"internalType": "contract IJBSuckerDeployer"
								},
								{
									"name": "mappings",
									"type": "tuple[]",
									"internalType": "struct JBTokenMapping[]",
									"components": [
										{
											"name": "localToken",
											"type": "address",
											"internalType": "address"
										},
										{
											"name": "minGas",
											"type": "uint32",
											"internalType": "uint32"
										},
										{
											"name": "remoteToken",
											"type": "address",
											"internalType": "address"
										},
										{
											"name": "minBridgeAmount",
											"type": "uint256",
											"internalType": "uint256"
										}
									]
								}
							]
						},
						{
							"name": "salt",
							"type": "bytes32",
							"internalType": "bytes32"
						}
					]
				},
				{
					"name": "rulesetConfigurations",
					"type": "tuple[]",
					"indexed": false,
					"internalType": "struct JBRulesetConfig[]",
					"components": [
						{
							"name": "mustStartAtOrAfter",
							"type": "uint48",
							"internalType": "uint48"
						},
						{
							"name": "duration",
							"type": "uint32",
							"internalType": "uint32"
						},
						{
							"name": "weight",
							"type": "uint112",
							"internalType": "uint112"
						},
						{
							"name": "decayRate",
							"type": "uint32",
							"internalType": "uint32"
						},
						{
							"name": "approvalHook",
							"type": "address",
							"internalType": "contract IJBRulesetApprovalHook"
						},
						{
							"name": "metadata",
							"type": "tuple",
							"internalType": "struct JBRulesetMetadata",
							"components": [
								{
									"name": "reservedRate",
									"type": "uint16",
									"internalType": "uint16"
								},
								{
									"name": "redemptionRate",
									"type": "uint16",
									"internalType": "uint16"
								},
								{
									"name": "baseCurrency",
									"type": "uint32",
									"internalType": "uint32"
								},
								{
									"name": "pausePay",
									"type": "bool",
									"internalType": "bool"
								},
								{
									"name": "pauseCreditTransfers",
									"type": "bool",
									"internalType": "bool"
								},
								{
									"name": "allowOwnerMinting",
									"type": "bool",
									"internalType": "bool"
								},
								{
									"name": "allowSetCustomToken",
									"type": "bool",
									"internalType": "bool"
								},
								{
									"name": "allowTerminalMigration",
									"type": "bool",
									"internalType": "bool"
								},
								{
									"name": "allowSetTerminals",
									"type": "bool",
									"internalType": "bool"
								},
								{
									"name": "allowSetController",
									"type": "bool",
									"internalType": "bool"
								},
								{
									"name": "allowAddAccountingContext",
									"type": "bool",
									"internalType": "bool"
								},
								{
									"name": "allowAddPriceFeed",
									"type": "bool",
									"internalType": "bool"
								},
								{
									"name": "ownerMustSendPayouts",
									"type": "bool",
									"internalType": "bool"
								},
								{
									"name": "holdFees",
									"type": "bool",
									"internalType": "bool"
								},
								{
									"name": "useTotalSurplusForRedemptions",
									"type": "bool",
									"internalType": "bool"
								},
								{
									"name": "useDataHookForPay",
									"type": "bool",
									"internalType": "bool"
								},
								{
									"name": "useDataHookForRedeem",
									"type": "bool",
									"internalType": "bool"
								},
								{
									"name": "dataHook",
									"type": "address",
									"internalType": "address"
								},
								{
									"name": "metadata",
									"type": "uint16",
									"internalType": "uint16"
								}
							]
						},
						{
							"name": "splitGroups",
							"type": "tuple[]",
							"internalType": "struct JBSplitGroup[]",
							"components": [
								{
									"name": "groupId",
									"type": "uint256",
									"internalType": "uint256"
								},
								{
									"name": "splits",
									"type": "tuple[]",
									"internalType": "struct JBSplit[]",
									"components": [
										{
											"name": "preferAddToBalance",
											"type": "bool",
											"internalType": "bool"
										},
										{
											"name": "percent",
											"type": "uint32",
											"internalType": "uint32"
										},
										{
											"name": "projectId",
											"type": "uint56",
											"internalType": "uint56"
										},
										{
											"name": "beneficiary",
											"type": "address",
											"internalType": "address payable"
										},
										{
											"name": "lockedUntil",
											"type": "uint48",
											"internalType": "uint48"
										},
										{
											"name": "hook",
											"type": "address",
											"internalType": "contract IJBSplitHook"
										}
									]
								}
							]
						},
						{
							"name": "fundAccessLimitGroups",
							"type": "tuple[]",
							"internalType": "struct JBFundAccessLimitGroup[]",
							"components": [
								{
									"name": "terminal",
									"type": "address",
									"internalType": "address"
								},
								{
									"name": "token",
									"type": "address",
									"internalType": "address"
								},
								{
									"name": "payoutLimits",
									"type": "tuple[]",
									"internalType": "struct JBCurrencyAmount[]",
									"components": [
										{
											"name": "amount",
											"type": "uint224",
											"internalType": "uint224"
										},
										{
											"name": "currency",
											"type": "uint32",
											"internalType": "uint32"
										}
									]
								},
								{
									"name": "surplusAllowances",
									"type": "tuple[]",
									"internalType": "struct JBCurrencyAmount[]",
									"components": [
										{
											"name": "amount",
											"type": "uint224",
											"internalType": "uint224"
										},
										{
											"name": "currency",
											"type": "uint32",
											"internalType": "uint32"
										}
									]
								}
							]
						}
					]
				},
				{
					"name": "encodedConfiguration",
					"type": "bytes",
					"indexed": false,
					"internalType": "bytes"
				},
				{
					"name": "caller",
					"type": "address",
					"indexed": false,
					"internalType": "address"
				}
			],
			"anonymous": false
		},
		{
			"type": "event",
			"name": "DeploySuckers",
			"inputs": [
				{
					"name": "revnetId",
					"type": "uint256",
					"indexed": true,
					"internalType": "uint256"
				},
				{
					"name": "salt",
					"type": "bytes32",
					"indexed": true,
					"internalType": "bytes32"
				},
				{
					"name": "encodedConfiguration",
					"type": "bytes",
					"indexed": false,
					"internalType": "bytes"
				},
				{
					"name": "suckerDeploymentConfiguration",
					"type": "tuple",
					"indexed": false,
					"internalType": "struct REVSuckerDeploymentConfig",
					"components": [
						{
							"name": "deployerConfigurations",
							"type": "tuple[]",
							"internalType": "struct JBSuckerDeployerConfig[]",
							"components": [
								{
									"name": "deployer",
									"type": "address",
									"internalType": "contract IJBSuckerDeployer"
								},
								{
									"name": "mappings",
									"type": "tuple[]",
									"internalType": "struct JBTokenMapping[]",
									"components": [
										{
											"name": "localToken",
											"type": "address",
											"internalType": "address"
										},
										{
											"name": "minGas",
											"type": "uint32",
											"internalType": "uint32"
										},
										{
											"name": "remoteToken",
											"type": "address",
											"internalType": "address"
										},
										{
											"name": "minBridgeAmount",
											"type": "uint256",
											"internalType": "uint256"
										}
									]
								}
							]
						},
						{
							"name": "salt",
							"type": "bytes32",
							"internalType": "bytes32"
						}
					]
				},
				{
					"name": "caller",
					"type": "address",
					"indexed": false,
					"internalType": "address"
				}
			],
			"anonymous": false
		},
		{
			"type": "event",
			"name": "Mint",
			"inputs": [
				{
					"name": "revnetId",
					"type": "uint256",
					"indexed": true,
					"internalType": "uint256"
				},
				{
					"name": "stageId",
					"type": "uint256",
					"indexed": true,
					"internalType": "uint256"
				},
				{
					"name": "beneficiary",
					"type": "address",
					"indexed": true,
					"internalType": "address"
				},
				{
					"name": "count",
					"type": "uint256",
					"indexed": false,
					"internalType": "uint256"
				},
				{
					"name": "caller",
					"type": "address",
					"indexed": false,
					"internalType": "address"
				}
			],
			"anonymous": false
		},
		{
			"type": "event",
			"name": "ReplaceSplitOperator",
			"inputs": [
				{
					"name": "revnetId",
					"type": "uint256",
					"indexed": true,
					"internalType": "uint256"
				},
				{
					"name": "newSplitOperator",
					"type": "address",
					"indexed": true,
					"internalType": "address"
				},
				{
					"name": "caller",
					"type": "address",
					"indexed": false,
					"internalType": "address"
				}
			],
			"anonymous": false
		},
		{
			"type": "event",
			"name": "SetAdditionalOperator",
			"inputs": [
				{
					"name": "revnetId",
					"type": "uint256",
					"indexed": false,
					"internalType": "uint256"
				},
				{
					"name": "additionalOperator",
					"type": "address",
					"indexed": false,
					"internalType": "address"
				},
				{
					"name": "permissionIds",
					"type": "uint256[]",
					"indexed": false,
					"internalType": "uint256[]"
				},
				{
					"name": "caller",
					"type": "address",
					"indexed": false,
					"internalType": "address"
				}
			],
			"anonymous": false
		},
		{
			"type": "event",
			"name": "SetCashOutDelay",
			"inputs": [
				{
					"name": "revnetId",
					"type": "uint256",
					"indexed": true,
					"internalType": "uint256"
				},
				{
					"name": "cashOutDelay",
					"type": "uint256",
					"indexed": false,
					"internalType": "uint256"
				},
				{
					"name": "caller",
					"type": "address",
					"indexed": false,
					"internalType": "address"
				}
			],
			"anonymous": false
		},
		{
			"type": "event",
			"name": "StoreMintPotential",
			"inputs": [
				{
					"name": "revnetId",
					"type": "uint256",
					"indexed": true,
					"internalType": "uint256"
				},
				{
					"name": "stageId",
					"type": "uint256",
					"indexed": true,
					"internalType": "uint256"
				},
				{
					"name": "beneficiary",
					"type": "address",
					"indexed": true,
					"internalType": "address"
				},
				{
					"name": "count",
					"type": "uint256",
					"indexed": false,
					"internalType": "uint256"
				},
				{
					"name": "caller",
					"type": "address",
					"indexed": false,
					"internalType": "address"
				}
			],
			"anonymous": false
		},
		{
			"type": "event",
			"name": "StoredPayHookSpecifications",
			"inputs": [
				{
					"name": "revnetId",
					"type": "uint256",
					"indexed": true,
					"internalType": "uint256"
				},
				{
					"name": "payHookSpecifications",
					"type": "tuple[]",
					"indexed": false,
					"internalType": "struct JBPayHookSpecification[]",
					"components": [
						{
							"name": "hook",
							"type": "address",
							"internalType": "contract IJBPayHook"
						},
						{
							"name": "amount",
							"type": "uint256",
							"internalType": "uint256"
						},
						{
							"name": "metadata",
							"type": "bytes",
							"internalType": "bytes"
						}
					]
				},
				{
					"name": "caller",
					"type": "address",
					"indexed": false,
					"internalType": "address"
				}
			],
			"anonymous": false
		},
		{
			"type": "error",
			"name": "PRBMath_MulDiv_Overflow",
			"inputs": [
				{
					"name": "x",
					"type": "uint256",
					"internalType": "uint256"
				},
				{
					"name": "y",
					"type": "uint256",
					"internalType": "uint256"
				},
				{
					"name": "denominator",
					"type": "uint256",
					"internalType": "uint256"
				}
			]
		},
		{
			"type": "error",
			"name": "REVBasic_BadStageTimes",
			"inputs": []
		},
		{
			"type": "error",
			"name": "REVBasic_CashOutDelayInEffect",
			"inputs": []
		},
		{
			"type": "error",
			"name": "REVBasic_StageNotStarted",
			"inputs": []
		},
		{
			"type": "error",
			"name": "REVBasic_StagesRequired",
			"inputs": []
		},
		{
			"type": "error",
			"name": "REVBasic_Unauthorized",
			"inputs": []
		}
	],
	"solcInputHash": "410542be1c535d97c862c2863abb477e",
	"args": [
		"0x64c30002444321C4504c8f1b9B04C95DE3731Fd2",
		"0xdba05C1525A7d6255dc637EdD58C849aCb635D25",
		"2",
		"0x0681CdAD31DAd70C65f8A68551d5cdA78f39F960"
	],
	"bytecode": "0x6101006040523480156200001257600080fd5b5060405162005be438038062005be483398101604081905262000035916200006f565b6001600160a01b0393841660a05291831660c0526080521660e052620000cb565b6001600160a01b03811681146200006c57600080fd5b50565b600080600080608085870312156200008657600080fd5b8451620000938162000056565b6020860151909450620000a68162000056565b604086015160608701519194509250620000c08162000056565b939692955090935050565b60805160a05160c05160e051615a5a6200018a600039600081816103200152611834015260008181610354015281816108ef01528181610f3b015281816115340152612d13015260008181610472015281816109ce0152818161135e015281816113e701528181611485015281816119c801528181611e1201528181611e9701528181611f27015281816120900152818161213a0152612202015260008181610180015281816105cb015281816106eb015261103b0152615a5a6000f3fe6080604052600436106100fa5760003560e01c806301ffc9a7146100ff578063150b7a02146101355780631680e1721461016e5780631727f039146101b05780634fa9af69146101c55780635a31dc13146101f25780635c0a7cee14610230578063677ce0881461025d5780637249a7731461027d57806382a09b30146102c05780638cc35846146102e0578063abf8c5c81461030e578063b5d2553314610342578063b8a843d714610376578063bb1994021461038d578063c57981b5146103ad578063cd817cd0146103c2578063d290db42146103f2578063db29c89214610420578063eb5ad9d914610440578063ee0fc12114610460575b600080fd5b34801561010b57600080fd5b5061012061011a366004612f3c565b50600090565b60405190151581526020015b60405180910390f35b34801561014157600080fd5b50610155610150366004612fd6565b610494565b6040516001600160e01b0319909116815260200161012c565b34801561017a57600080fd5b506101a27f000000000000000000000000000000000000000000000000000000000000000081565b60405190815260200161012c565b6101c36101be366004613048565b6104ce565b005b3480156101d157600080fd5b506101a26101e0366004613083565b60016020526000908152604090205481565b3480156101fe57600080fd5b506101a261020d36600461309c565b600260209081526000938452604080852082529284528284209052825290205481565b34801561023c57600080fd5b5061025061024b366004613083565b610788565b60405161012c91906131b3565b34801561026957600080fd5b506101206102783660046131c6565b6108ac565b34801561028957600080fd5b506102b3610298366004613083565b6000602081905290815260409020546001600160a01b031681565b60405161012c91906131f6565b3480156102cc57600080fd5b506101c36102db36600461309c565b6109ca565b3480156102ec57600080fd5b506103006102fb36600461320a565b610bb1565b60405161012c929190613245565b34801561031a57600080fd5b506102b37f000000000000000000000000000000000000000000000000000000000000000081565b34801561034e57600080fd5b506102b37f000000000000000000000000000000000000000000000000000000000000000081565b34801561038257600080fd5b506101a262278d0081565b34801561039957600080fd5b506101c36103a836600461325e565b610e87565b3480156103b957600080fd5b506101a2601981565b3480156103ce57600080fd5b506103e26103dd3660046132d5565b610f2b565b60405161012c9493929190613310565b3480156103fe57600080fd5b5061041261040d3660046141a7565b61120c565b60405161012c9291906142b7565b34801561042c57600080fd5b5061012061043b3660046131c6565b611230565b34801561044c57600080fd5b506101c361045b3660046131c6565b6112c0565b34801561046c57600080fd5b506102b37f000000000000000000000000000000000000000000000000000000000000000081565b600061049e61135a565b6001600160a01b0316336001600160a01b0316146104bb57600080fd5b50630a85bd0160e11b5b95945050505050565b6104d66113e3565b6001600160a01b0316636e49181f8260200135336040518363ffffffff1660e01b81526004016105079291906142b7565b602060405180830381865afa158015610524573d6000803e3d6000fd5b505050506040513d601f19601f8201168201806040525081019061054891906142ce565b610565576040516385abdc5960e01b815260040160405180910390fd5b60006105756101c08301836142eb565b8101906105829190614331565b9050600061eeee61059b61012085016101008601614331565b6001600160a01b0316146105b05760006105b7565b6101608301355b90506001600160a01b03821663fef43257827f00000000000000000000000000000000000000000000000000000000000000006105fc61012088016101008901614331565b61016088013561060f60208a018a614331565b60008a6020013560405160200161062891815260200190565b6040516020818303038152906040526040518863ffffffff1660e01b81526004016106589695949392919061434e565b60206040518083038185885af193505050508015610693575060408051601f3d908101601f19168201909252610690918101906143a7565b60015b610781573d8080156106c1576040519150601f19603f3d011682016040523d82523d6000602084013e6106c6565b606091505b5033639e6eec058360208701356106e561012089016101008a01614331565b604080517f000000000000000000000000000000000000000000000000000000000000000060208201526101608b013591600091016040516020818303038152906040526040518763ffffffff1660e01b81526004016107499594939291906143c0565b6000604051808303818588803b15801561076257600080fd5b505af1158015610776573d6000803e3d6000fd5b505050505050505050565b505b505050565b606060046000838152602001908152602001600020805480602002602001604051908101604052809291908181526020016000905b828210156108a1576000848152602090819020604080516060810182526003860290920180546001600160a01b03168352600181015493830193909352600283018054929392918401916108109061440e565b80601f016020809104026020016040519081016040528092919081815260200182805461083c9061440e565b80156108895780601f1061085e57610100808354040283529160200191610889565b820191906000526020600020905b81548152906001019060200180831161086c57829003601f168201915b505050505081525050815260200190600101906107bd565b505050509050919050565b6000828152602081905260408120546001600160a01b03908116908316036108d6575060016109c4565b604051633d12cb8760e01b8152600481018490526000907f00000000000000000000000000000000000000000000000000000000000000006001600160a01b031690633d12cb8790602401600060405180830381865afa15801561093e573d6000803e3d6000fd5b505050506040513d6000823e601f3d908101601f191682016040526109669190810190614448565b805190915060005b818110156109bc57828181518110610988576109886144d6565b60200260200101516001600160a01b0316856001600160a01b0316036109b457600193505050506109c4565b60010161096e565b506000925050505b92915050565b60007f00000000000000000000000000000000000000000000000000000000000000006001600160a01b031663d4a1b4b16040518163ffffffff1660e01b8152600401602060405180830381865afa158015610a2a573d6000803e3d6000fd5b505050506040513d601f19601f82011682018060405250810190610a4e91906144ec565b604051630969875760e21b815260048101869052602481018590526001600160a01b0391909116906325a61d5c9060440161012060405180830381865afa158015610a9d573d6000803e3d6000fd5b505050506040513d601f19601f82011682018060405250810190610ac19190614540565b905042816060015165ffffffffffff161115610af057604051633c09460360e11b815260040160405180910390fd5b60008481526002602090815260408083208483015165ffffffffffff16845282528083206001600160a01b038616845290915281205490819003610b35575050505050565b600085815260026020908152604080832087845282528083206001600160a01b0387168452909152812055610b6b858285611443565b826001600160a01b0316826020015165ffffffffffff1686600080516020615a058339815191528433604051610ba29291906142b7565b60405180910390a45050505050565b60c081013560009081526020819052604081205460609081906001600160a01b03168015610c5457604051634661ac2360e11b81526001600160a01b03821690638cc3584690610c059088906004016146ad565b600060405180830381865afa158015610c22573d6000803e3d6000fd5b505050506040513d6000823e601f3d908101601f19168201604052610c4a9190810190614763565b9094509150610c5d565b84610120013593505b815160c086013560009081526004602090815260408083208054825181850281018501909352808352941515949192909190849084015b82821015610d78576000848152602090819020604080516060810182526003860290920180546001600160a01b0316835260018101549383019390935260028301805492939291840191610ce79061440e565b80601f0160208091040260200160405190810160405280929190818152602001828054610d139061440e565b8015610d605780601f10610d3557610100808354040283529160200191610d60565b820191906000526020600020905b815481529060010190602001808311610d4357829003601f168201915b50505050508152505081526020019060010190610c94565b50505050905060008151905082610d90576000610d93565b60015b610da09060ff16826148c2565b6001600160401b03811115610db757610db76133b0565b604051908082528060200260200182016040528015610df057816020015b610ddd612ed5565b815260200190600190039081610dd55790505b50955060005b81811015610e3d57828181518110610e1057610e106144d6565b6020026020010151878281518110610e2a57610e2a6144d6565b6020908102919091010152600101610df6565b508215610e7d5784600081518110610e5757610e576144d6565b6020026020010151868281518110610e7157610e716144d6565b60200260200101819052505b5050505050915091565b610e9184336114f2565b60003384848460200135604051602001610eae94939291906148d5565b60408051601f1981840301815291905280516020909101209050610ee58582610ed7858061490b565b610ee091614954565b61151d565b80857f755ecfca2f6e66af8868551556bf7931740a7062db8e0882f4c322fdb0bb3f6086868633604051610f1c9493929190614961565b60405180910390a35050505050565b6000808060606001600160a01b037f0000000000000000000000000000000000000000000000000000000000000000166383db9d0160408701803590610f749060208a01614331565b6040518363ffffffff1660e01b8152600401610f919291906142b7565b602060405180830381865afa158015610fae573d6000803e3d6000fd5b505050506040513d601f19601f82011682018060405250810190610fd291906142ce565b15610fef5761271093506080850135925060a08501359150611205565b6040808601356000908152600160205220544210156110215760405163e889f60760e01b815260040160405180910390fd5b600061102b6113e3565b6001600160a01b031663862026507f000000000000000000000000000000000000000000000000000000000000000061106a60e08a0160c08b01614331565b6040518363ffffffff1660e01b81526004016110879291906142b7565b602060405180830381865afa1580156110a4573d6000803e3d6000fd5b505050506040513d601f19601f820116820180604052508101906110c891906144ec565b905061016086013561271014806110e657506001600160a01b038116155b156111075785610160013586608001358760a0013594509450945050611205565b600061111b608088013560196103e86115b4565b905060006111396101208901358360a08b01356101608c013561168b565b604080516001808252818301909252919250816020015b604080516060808201835260008083526020830152918101919091528152602001906001900390816111505790505093506040518060600160405280306001600160a01b03168152602001828152602001846040516020016111b291906131f6565b604051602081830303815290604052815250846000815181106111d7576111d76144d6565b60209081029190910101526101608801356111f68360808b0135614b19565b8960a001359650965096505050505b9193509193565b60008061121f8a8a8a8a8a8a8a8a611703565b909b909a5098505050505050505050565b600061123a6119c4565b6001600160a01b031663632af95f83308661125488611a24565b6000806040518763ffffffff1660e01b815260040161127896959493929190614b2c565b602060405180830381865afa158015611295573d6000803e3d6000fd5b505050506040513d601f19601f820116820180604052508101906112b991906142ce565b9392505050565b6112ca82336114f2565b61130a303366ffffffffffffff85166000604051908082528060200260200182016040528015611304578160200160208202803683370190505b50611b9e565b6113148282611c18565b806001600160a01b0316827f0329d6a81434b130c72eb65eea0e32e429dc1277b4aad86ec86454aefb6184513360405161134e91906131f6565b60405180910390a35050565b60007f00000000000000000000000000000000000000000000000000000000000000006001600160a01b031663293c49996040518163ffffffff1660e01b8152600401602060405180830381865afa1580156113ba573d6000803e3d6000fd5b505050506040513d601f19601f820116820180604052508101906113de91906144ec565b905090565b60007f00000000000000000000000000000000000000000000000000000000000000006001600160a01b03166388bc2ef36040518163ffffffff1660e01b8152600401602060405180830381865afa1580156113ba573d6000803e3d6000fd5b6040516363fdc96f60e11b815260048101849052602481018390526001600160a01b03828116604483015260a06064830152600060a4830181905260848301527f0000000000000000000000000000000000000000000000000000000000000000169063c7fb92de9060c4016020604051808303816000875af11580156114ce573d6000803e3d6000fd5b505050506040513d601f19601f8201168201806040525081019061078191906143a7565b6114fc8282611230565b611519576040516385abdc5960e01b815260040160405180910390fd5b5050565b604051630179fa8760e51b81526001600160a01b037f00000000000000000000000000000000000000000000000000000000000000001690632f3f50e09061156d90869086908690600401614c70565b6000604051808303816000875af115801561158c573d6000803e3d6000fd5b505050506040513d6000823e601f3d908101601f191682016040526107819190810190614448565b60008080600019858709858702925082811083820303915050806000036115ee578382816115e4576115e4614c8f565b04925050506112b9565b83811061162357604051630c740aef60e31b815260048101879052602481018690526044810185905260640160405180910390fd5b600084868809600260036001881981018916988990049182028318808302840302808302840302808302840302808302840302808302840302918202909203026000889003889004909101858311909403939093029303949094049190911702949350505050565b60008160000361169d575060006116fb565b8284036116ab5750836116fb565b60006116b88686866115b4565b905061270f1983016116cb5790506116fb565b6116f7816116e5876116df87612710614b19565b886115b4565b6116ef90866148c2565b6127106115b4565b9150505b949350505050565b600080898082036117855761171661135a565b6001600160a01b03166306661abd6040518163ffffffff1660e01b8152600401602060405180830381865afa158015611753573d6000803e3d6000fd5b505050506040513d601f19601f8201168201806040525081019061177791906143a7565b6117829060016148c2565b9a505b845160006117948260016148c2565b6001600160401b038111156117ab576117ab6133b0565b6040519080825280602002602001820160405280156117e457816020015b6117d1612ed5565b8152602001906001900390816117c95790505b50905060005b8281101561183157878181518110611804576118046144d6565b602002602001015182828151811061181e5761181e6144d6565b60209081029190910101526001016117ea565b507f00000000000000000000000000000000000000000000000000000000000000006001600160a01b0316632230819f8e8a600001516040518363ffffffff1660e01b8152600401611884929190614dbf565b6020604051808303816000875af11580156118a3573d6000803e3d6000fd5b505050506040513d601f19601f820116820180604052508101906118c791906144ec565b93508760200151156118f65760008d815260036020908152604082208054600181018255908352912060149101555b8760400151156119235760008d815260036020908152604082208054600181018255908352912060159101555b8760600151156119505760008d815260036020908152604082208054600181018255908352912060169101555b6040518060600160405280856001600160a01b031681526020016000815260200160405180602001604052806000815250815250818381518110611996576119966144d6565b60200260200101819052506119b0838d8d8d8d868c611cdc565b508c94505050509850989650505050505050565b60007f00000000000000000000000000000000000000000000000000000000000000006001600160a01b031663f434c9146040518163ffffffff1660e01b8152600401602060405180830381865afa1580156113ba573d6000803e3d6000fd5b6000818152600360209081526040808320805482518185028101850190935280835260609493830182828015611a7957602002820191906000526020600020905b815481526020019060010190808311611a65575b50508351939450611a919250839150600390506148c2565b6001600160401b03811115611aa857611aa86133b0565b604051908082528060200260200182016040528015611ad1578160200160208202803683370190505b509250601160ff1683600081518110611aec57611aec6144d6565b602002602001018181525050601860ff1683600181518110611b1057611b106144d6565b602002602001018181525050600660ff1683600281518110611b3457611b346144d6565b60200260200101818152505060005b81811015611b9657828181518110611b5d57611b5d6144d6565b602002602001015184826003611b7391906148c2565b81518110611b8357611b836144d6565b6020908102919091010152600101611b43565b505050919050565b604080516060810182526001600160a01b038516815266ffffffffffffff84166020820152908101829052611bd16119c4565b6001600160a01b031663893ce90186836040518363ffffffff1660e01b8152600401611bfe929190614edf565b600060405180830381600087803b15801561076257600080fd5b6000611c2383611a24565b80519091506000816001600160401b03811115611c4257611c426133b0565b604051908082528060200260200182016040528015611c6b578160200160208202803683370190505b50905060005b82811015611cbf57838181518110611c8b57611c8b6144d6565b6020026020010151828281518110611ca557611ca56144d6565b60ff90921660209283029190910190910152600101611c71565b50611cd530858766ffffffffffffff1684611b9e565b5050505050565b6000611cf188888888308761ffff168a611dd8565b835190985060005b81811015611d905760008a81526004602052604090208551869083908110611d2357611d236144d6565b602090810291909101810151825460018082018555600094855293839020825160039092020180546001600160a01b0319166001600160a01b03909216919091178155918101519282019290925560408201516002820190611d859082614fba565b505050600101611cf9565b50887fdfaf2737f25eace49d372b472ec03f1df0f9814dfc69d2b95c5e92a041f42e298533604051611dc3929190615079565b60405180910390a25096979650505050505050565b6000806000611de889878761235f565b9150915089600003611e955788516040908101519051634fb99a3f60e01b81526001600160a01b037f00000000000000000000000000000000000000000000000000000000000000001691634fb99a3f91611e4b91309187908e9060040161553b565b6020604051808303816000875af1158015611e6a573d6000803e3d6000fd5b505050506040513d601f19601f82011682018060405250810190611e8e91906143a7565b9950612110565b7f00000000000000000000000000000000000000000000000000000000000000006001600160a01b031663293c49996040518163ffffffff1660e01b8152600401602060405180830381865afa158015611ef3573d6000803e3d6000fd5b505050506040513d601f19601f82011682018060405250810190611f1791906144ec565b6001600160a01b03166342842e0e7f00000000000000000000000000000000000000000000000000000000000000006001600160a01b031663293c49996040518163ffffffff1660e01b8152600401602060405180830381865afa158015611f83573d6000803e3d6000fd5b505050506040513d601f19601f82011682018060405250810190611fa791906144ec565b6001600160a01b0316636352211e8d6040518263ffffffff1660e01b8152600401611fd491815260200190565b602060405180830381865afa158015611ff1573d6000803e3d6000fd5b505050506040513d601f19601f8201168201806040525081019061201591906144ec565b6040516001600160e01b031960e084901b1681526001600160a01b039091166004820152306024820152604481018d9052606401600060405180830381600087803b15801561206357600080fd5b505af1158015612077573d6000803e3d6000fd5b505060405163b1d5968560e01b81526001600160a01b037f000000000000000000000000000000000000000000000000000000000000000016925063b1d5968591506120cb908d9086908d906004016155a2565b6020604051808303816000875af11580156120ea573d6000803e3d6000fd5b505050506040513d601f19601f8201168201806040525081019061210e91906143a7565b505b6121388a8a6060015160008151811061212b5761212b6144d6565b60200260200101516127b1565b7f00000000000000000000000000000000000000000000000000000000000000006001600160a01b031663581781918b8b60000151600001518c60000151602001518d60000151606001516040518563ffffffff1660e01b81526004016121a294939291906155e9565b6020604051808303816000875af11580156121c1573d6000803e3d6000fd5b505050506040513d601f19601f820116820180604052508101906121e591906144ec565b5086516001600160a01b031615612200576122008a8861283e565b7f00000000000000000000000000000000000000000000000000000000000000006001600160a01b031663ed1159578b600061223f8d60400151612978565b6040518463ffffffff1660e01b815260040161225d93929190615626565b600060405180830381600087803b15801561227757600080fd5b505af115801561228b573d6000803e3d6000fd5b505050506122998a8a612aa8565b6122a78a8a60400151611c18565b6122b08a612cc2565b6020840151600090156122f157338286602001516040516020016122d693929190615645565b604051602081830303815290604052805190602001206122f4565b60005b9050801561230b5761230b8b82876000015161151d565b808b7ff508fc85f2069f367770a68e3aaca6fffdf45a93168764fa7d08aecc9585c4ac8c8c8c8a8989336040516123489796959493929190615843565b60405180910390a350989998505050505050505050565b606083810151518190600081900361238a57604051638ef0479760e01b815260040160405180910390fd5b806001600160401b038111156123a2576123a26133b0565b6040519080825280602002602001820160405280156124ac57816020015b6124996040805161010080820183526000808352602080840182905283850182905260608085018390526080808601849052865161026081018852848152928301849052958201839052810182905293840181905260a084810182905260c0850182905260e0850182905291840181905261012084018190526101408401819052610160840181905261018084018190526101a084018190526101c084018190526101e0840181905261020084018190526102208401819052610240840152909190820190815260200160608152602001606081525090565b8152602001906001900390816123c05790505b5092506124b886612d42565b91506124c2612eff565b6000805b838110156127a557886060015181815181106124e4576124e46144d6565b6020026020010151925081836000015164ffffffffff16116125195760405163cb89a04560e01b815260040160405180910390fd5b826000015164ffffffffff16868281518110612537576125376144d6565b602090810291909101015165ffffffffffff909116905260808301518651879083908110612567576125676144d6565b60209081029190910181015163ffffffff90921691015260608301516001600160701b0316156125d35782606001516001600160701b03166001146125cc576125c76001670de0b6b3a764000085606001516001600160701b03166115b4565b6125d6565b60016125d6565b60005b8682815181106125e8576125e86144d6565b6020026020010151604001906001600160701b031690816001600160701b0316815250508260a00151868281518110612623576126236144d6565b60200260200101516060019063ffffffff16908163ffffffff16815250506000868281518110612655576126556144d6565b6020026020010151608001906001600160a01b031690816001600160a01b031681525050604051806102600160405280846040015161ffff1681526020018460c001516127106126a5919061597c565b61ffff908116825260208c81015163ffffffff16908301526000604083018190526060830181905260016080840181905260a0840182905260c0840182905260e08401829052610100840182905261012084018290526101408401829052610160840182905261018084018290526101a084018290526101c08401526101e08301526001600160a01b038b166102008301528916610220909101528651879083908110612754576127546144d6565b602002602001015160a001819052508461276e8483612d7c565b60405160200161277f92919061599e565b60408051601f19818403018152919052835190955064ffffffffff1691506001016124c6565b50505050935093915050565b805164ffffffffff1615806127d1575042816000015164ffffffffff1610155b156127da575050565b60006127e962278d00426148c2565b600084815260016020526040908190208290555190915083907f48a9634f50564cfe6648ff5e75795a36873bf96c408523d50017032657e671989061283190849033906142b7565b60405180910390a2505050565b602081810151516040805160808101825260008082529381018490529081018390526060810183905290915b828110156129445783602001518181518110612888576128886144d6565b602090810291909101810151855191810151604080830151606084015184519251633db10e9d60e11b8152600481018c905262ffffff909416602485015263ffffffff91821660448501521660648301526001600160a01b039081166084830152919450911690637b621d3a9060a4016020604051808303816000875af1158015612917573d6000803e3d6000fd5b505050506040513d601f19601f8201168201806040525081019061293b91906144ec565b5060010161286a565b5050905160009283526020839052604090922080546001600160a01b0319166001600160a01b039093169290921790915550565b604080516001808252818301909252606091816020015b60408051808201909152600081526060602082015281526020019060019003908161298f57505060408051600180825281830190925291925060009190602082015b6040805160c08101825260008082526020808301829052928201819052606082018190526080820181905260a082015282526000199092019101816129d15750506040805160c0810182526000808252633b9aca0060208301529181018290526001600160a01b03861660608201526080810182905260a08101829052825192935091839190612a6357612a636144d6565b60200260200101819052506040518060400160405280600181526020018281525082600081518110612a9757612a976144d6565b602002602001018190525050919050565b606081015151612ab6612eff565b60005b82811015611cd55783606001518181518110612ad757612ad76144d6565b6020026020010151915060008260200151519050612b276040518060600160405280600063ffffffff16815260200160006001600160681b0316815260200160006001600160a01b031681525090565b60005b82811015612cb75784602001518181518110612b4857612b486144d6565b6020026020010151915046826000015163ffffffff1603612caf57831580612b7b575042856000015164ffffffffff1611155b15612be557612b9c8883602001516001600160681b03168460400151611443565b60408201516001600160a01b0316612bb485426148c2565b89600080516020615a05833981519152856020015133604051612bd89291906159c3565b60405180910390a4612caf565b60208083015160008a81526002909252604082206001600160681b0390911691612c0f87426148c2565b8152602001908152602001600020600084604001516001600160a01b03166001600160a01b031681526020019081526020016000206000828254612c5391906148c2565b909155505060408201516001600160a01b0316612c7085426148c2565b897f9e83979117d75aa75fe101361cf46235d3d0a6fa7afafb275d2b9f8af0227313856020015133604051612ca69291906159c3565b60405180910390a45b600101612b2a565b505050600101612ab9565b60408051600180825281830190925260009160208083019080368337019050509050601b81600081518110612cf957612cf96144d6565b602002602001019060ff16908160ff1681525050611519307f00000000000000000000000000000000000000000000000000000000000000008466ffffffffffffff1684611b9e565b60208082015182518051818401516060928301516040519395612d669594016159e5565b6040516020818303038152906040529050919050565b606081158015612d925750825164ffffffffff16155b612da457825164ffffffffff16612da6565b425b6040808501516060860151608087015160a088015160c08901519451612e0996959060200195865261ffff94851660208701526001600160701b0393909316604086015263ffffffff91821660608601521660808401521660a082015260c00190565b60408051601f1981840301815291905260208401515190915060005b81811015612e7f5782612e5486602001518381518110612e4757612e476144d6565b6020026020010151612e87565b604051602001612e6592919061599e565b60408051601f198184030181529190529250600101612e25565b505092915050565b6060816000015182604001518360200151604051602001612d669392919063ffffffff9390931683526001600160a01b039190911660208301526001600160681b0316604082015260600190565b604051806060016040528060006001600160a01b0316815260200160008152602001606081525090565b6040805160e08101825260008082526060602083018190529282018190529181018290526080810182905260a0810182905260c081019190915290565b600060208284031215612f4e57600080fd5b81356001600160e01b0319811681146112b957600080fd5b6001600160a01b0381168114612f7b57600080fd5b50565b8035612f8981612f66565b919050565b60008083601f840112612fa057600080fd5b5081356001600160401b03811115612fb757600080fd5b602083019150836020828501011115612fcf57600080fd5b9250929050565b600080600080600060808688031215612fee57600080fd5b8535612ff981612f66565b9450602086013561300981612f66565b93506040860135925060608601356001600160401b0381111561302b57600080fd5b61303788828901612f8e565b969995985093965092949392505050565b60006020828403121561305a57600080fd5b81356001600160401b0381111561307057600080fd5b820161020081850312156112b957600080fd5b60006020828403121561309557600080fd5b5035919050565b6000806000606084860312156130b157600080fd5b833592506020840135915060408401356130ca81612f66565b809150509250925092565b6001600160a01b03169052565b60005b838110156130fd5781810151838201526020016130e5565b50506000910152565b6000815180845261311e8160208601602086016130e2565b601f01601f19169290920160200192915050565b600082825180855260208086019550808260051b84010181860160005b848110156131a657858303601f19018952815180516001600160a01b03168452848101518585015260409081015160609185018290529061319281860183613106565b9a86019a945050509083019060010161314f565b5090979650505050505050565b6020815260006112b96020830184613132565b600080604083850312156131d957600080fd5b8235915060208301356131eb81612f66565b809150509250929050565b6001600160a01b0391909116815260200190565b60006020828403121561321c57600080fd5b81356001600160401b0381111561323257600080fd5b820161018081850312156112b957600080fd5b8281526040602082015260006116fb6040830184613132565b6000806000806060858703121561327457600080fd5b8435935060208501356001600160401b038082111561329257600080fd5b61329e88838901612f8e565b909550935060408701359150808211156132b757600080fd5b508501604081880312156132ca57600080fd5b939692955090935050565b6000602082840312156132e757600080fd5b81356001600160401b038111156132fd57600080fd5b82016101a081850312156112b957600080fd5b60006080820186835260208681850152604086604086015260606080606087015283875180865260a08801915060a08160051b890101955084890160005b8281101561339e57898803609f19018452815180516001600160a01b0316895287810151888a015286015186890186905261338b868a0182613106565b985050928601929086019060010161334e565b50959c9b505050505050505050505050565b634e487b7160e01b600052604160045260246000fd5b604051606081016001600160401b03811182821017156133e8576133e86133b0565b60405290565b60405160e081016001600160401b03811182821017156133e8576133e86133b0565b604051608081016001600160401b03811182821017156133e8576133e86133b0565b604080519081016001600160401b03811182821017156133e8576133e86133b0565b60405161018081016001600160401b03811182821017156133e8576133e86133b0565b60405161012081016001600160401b03811182821017156133e8576133e86133b0565b604051601f8201601f191681016001600160401b03811182821017156134c2576134c26133b0565b604052919050565b60006001600160401b038211156134e3576134e36133b0565b50601f01601f191660200190565b60006135046134ff846134ca565b61349a565b905082815283838301111561351857600080fd5b828260208301376000602084830101529392505050565b600082601f83011261354057600080fd5b6112b9838335602085016134f1565b63ffffffff81168114612f7b57600080fd5b8035612f898161354f565b60006001600160401b03821115613585576135856133b0565b5060051b60200190565b803564ffffffffff81168114612f8957600080fd5b80356001600160681b0381168114612f8957600080fd5b600082601f8301126135cc57600080fd5b813560206135dc6134ff8361356c565b828152606092830285018201928282019190878511156135fb57600080fd5b8387015b858110156131a65781818a0312156136175760008081fd5b61361f6133c6565b813561362a8161354f565b81526136378287016135a4565b8682015260408083013561364a81612f66565b9082015284529284019281016135ff565b803561ffff81168114612f8957600080fd5b6001600160701b0381168114612f7b57600080fd5b8035612f898161366d565b600082601f83011261369e57600080fd5b813560206136ae6134ff8361356c565b82815260059290921b840181019181810190868411156136cd57600080fd5b8286015b848110156137ae5780356001600160401b03808211156136f15760008081fd5b9088019060e0828b03601f190181131561370b5760008081fd5b6137136133ee565b61371e88850161358f565b8152604080850135848111156137345760008081fd5b6137428e8b838901016135bb565b8a840152506060935061375684860161365b565b908201526080613767858201613682565b8483015260a0935061377a848601613561565b9082015260c061378b858201613561565b8483015261379a83860161365b565b9082015286525050509183019183016136d1565b509695505050505050565b6000608082840312156137cb57600080fd5b6137d3613410565b905081356001600160401b03808211156137ec57600080fd5b908301906080828603121561380057600080fd5b613808613410565b82358281111561381757600080fd5b6138238782860161352f565b82525060208301358281111561383857600080fd5b6138448782860161352f565b60208301525060408301358281111561385c57600080fd5b6138688782860161352f565b60408301525060608381013590820152835261388660208501613561565b602084015261389760408501612f7e565b604084015260608401359150808211156138b057600080fd5b506138bd8482850161368d565b60608301525092915050565b803560ff81168114612f8957600080fd5b600082601f8301126138eb57600080fd5b813560206138fb6134ff8361356c565b82815260059290921b8401810191818101908684111561391a57600080fd5b8286015b848110156137ae5780356001600160401b038082111561393d57600080fd5b908801906040828b03601f190181131561395657600080fd5b61395e613432565b8784013561396b81612f66565b8152838201358381111561397e57600080fd5b8085019450508b603f85011261399357600080fd5b8784013592506139a56134ff8461356c565b83815260609093028401820192888101908d8511156139c357600080fd5b948301945b84861015613a27576060868f0312156139e057600080fd5b6139e86133c6565b86356139f381612f66565b8152613a00878c016138c9565b8b82015284870135613a118161354f565b81860152825260609590950194908901906139c8565b828a015250865250505091830191830161391e565b803562ffffff81168114612f8957600080fd5b60006040808385031215613a6257600080fd5b613a6a613432565b91508235613a7781612f66565b82526020838101356001600160401b03811115613a9357600080fd5b8401601f81018613613aa457600080fd5b8035613ab26134ff8261356c565b81815260079190911b82018301908381019088831115613ad157600080fd5b928401925b82841015613b49576080848a031215613aef5760008081fd5b613af7613410565b8435613b0281612f66565b8152613b0f858701613a3c565b8682015286850135613b208161354f565b81880152606085810135613b338161354f565b9082015282526080939093019290840190613ad6565b808588015250505050505092915050565b6000613b686134ff8461356c565b8381529050602080820190600585901b840186811115613b8757600080fd5b845b81811015613cb45780356001600160401b0380821115613ba95760008081fd5b8188019150604080838c031215613bc05760008081fd5b613bc8613432565b8335613bd381612f66565b81528387013583811115613be75760008081fd5b8085019450508b601f850112613bff57600092508283fd5b83359250613c0f6134ff8461356c565b83815260079390931b8401870192878101908d851115613c2f5760008081fd5b948801945b84861015613c9f576080868f031215613c4d5760008081fd5b613c55613410565b8635613c6081612f66565b8152868a0135613c6f8161354f565b818b015286850135613c8081612f66565b8186015260608781013590820152825260809095019490880190613c34565b82890152508752505050928201928201613b89565b505050509392505050565b600060408284031215613cd157600080fd5b613cd9613432565b905081356001600160401b03811115613cf157600080fd5b8201601f81018413613d0257600080fd5b613d1184823560208401613b5a565b8252506020820135602082015292915050565b8015158114612f7b57600080fd5b8035612f8981613d24565b60006080808385031215613d5057600080fd5b613d58613410565b915082356001600160401b03811115613d7057600080fd5b8301601f81018513613d8157600080fd5b80356020613d916134ff8361356c565b8281526101809283028401820192828201919089851115613db157600080fd5b948301945b84861015613ea45780868b031215613dce5760008081fd5b613dd6613454565b613ddf876135a4565b8152613dec858801613561565b858201526040613dfd818901613561565b908201526060613e0e88820161365b565b90820152613e1d878901612f7e565b8189015260a0878101359082015260c0613e38818901613a3c565b9082015260e0613e49888201613d32565b90820152610100613e5b888201613d32565b90820152610120613e6d888201613d32565b90820152610140613e7f888201613d32565b90820152610160613e91888201613d32565b9082015283529485019491830191613db6565b50865250613eb3868201613561565b8186015250505050613ec7604083016138c9565b6040820152613ed860608301612f7e565b606082015292915050565b600060808284031215613ef557600080fd5b613efd613410565b90508135613f0a81613d24565b81526020820135613f1a81613d24565b60208201526040820135613f2d81613d24565b60408201526060820135613ed881613d24565b600060808284031215613f5257600080fd5b613f5a613410565b905081356001600160401b0380821115613f7357600080fd5b908301906101808286031215613f8857600080fd5b613f90613477565b823582811115613f9f57600080fd5b613fab8782860161352f565b825250602083013582811115613fc057600080fd5b613fcc8782860161352f565b602083015250613fde60408401612f7e565b6040820152606083013582811115613ff557600080fd5b6140018782860161352f565b60608301525061401360808401612f7e565b608082015260a08301358281111561402a57600080fd5b6140368782860161352f565b60a08301525060c08301358281111561404e57600080fd5b61405a87828601613d3d565b60c08301525061406c60e08401612f7e565b60e0820152610100915061408286838501613ee3565b8282015280845250505061409860208301613d32565b60208201526140a960408301613d32565b6040820152613ed860608301613d32565b600082601f8301126140cb57600080fd5b813560206140db6134ff8361356c565b82815260059290921b840181019181810190868411156140fa57600080fd5b8286015b848110156137ae5780356001600160401b038082111561411e5760008081fd5b908801906060828b03601f19018113156141385760008081fd5b6141406133c6565b8784013561414d81612f66565b81526040848101358983015291840135918383111561416c5760008081fd5b82850194508c603f86011261418357600093508384fd5b6141938d8a8701358388016134f1565b9082015286525050509183019183016140fe565b600080600080600080600080610100898b0312156141c457600080fd5b8835975060208901356001600160401b03808211156141e257600080fd5b6141ee8c838d016137b9565b985060408b013591508082111561420457600080fd5b6142108c838d016138da565b975060608b013591508082111561422657600080fd5b6142328c838d01613a4f565b965060808b013591508082111561424857600080fd5b6142548c838d01613cbf565b955060a08b013591508082111561426a57600080fd5b6142768c838d01613f40565b945060c08b013591508082111561428c57600080fd5b506142998b828c016140ba565b9250506142a860e08a0161365b565b90509295985092959890939650565b9182526001600160a01b0316602082015260400190565b6000602082840312156142e057600080fd5b81516112b981613d24565b6000808335601e1984360301811261430257600080fd5b8301803591506001600160401b0382111561431c57600080fd5b602001915036819003821315612fcf57600080fd5b60006020828403121561434357600080fd5b81356112b981612f66565b868152600060018060a01b03808816602084015286604084015280861660608401525083608083015260e060a0830152600060e08301526101008060c084015261439a81840185613106565b9998505050505050505050565b6000602082840312156143b957600080fd5b5051919050565b85815260018060a01b0385166020820152836040820152821515606082015260c06080820152600060c082015260e060a0820152600061440360e0830184613106565b979650505050505050565b600181811c9082168061442257607f821691505b60208210810361444257634e487b7160e01b600052602260045260246000fd5b50919050565b6000602080838503121561445b57600080fd5b82516001600160401b0381111561447157600080fd5b8301601f8101851361448257600080fd5b80516144906134ff8261356c565b81815260059190911b820183019083810190878311156144af57600080fd5b928401925b828410156144035783516144c781612f66565b825292840192908401906144b4565b634e487b7160e01b600052603260045260246000fd5b6000602082840312156144fe57600080fd5b81516112b981612f66565b805165ffffffffffff81168114612f8957600080fd5b8051612f898161354f565b8051612f898161366d565b8051612f8981612f66565b6000610120828403121561455357600080fd5b61455b613477565b61456483614509565b815261457260208401614509565b602082015261458360408401614509565b604082015261459460608401614509565b60608201526145a56080840161451f565b60808201526145b660a0840161452a565b60a08201526145c760c0840161451f565b60c08201526145d860e08401614535565b60e0820152610100928301519281019290925250919050565b80356145fc81612f66565b6001600160a01b0316825260ff614615602083016138c9565b16602083015260408101356146298161354f565b63ffffffff166040830152606090810135910152565b6000808335601e1984360301811261465657600080fd5b83016020810192503590506001600160401b0381111561467557600080fd5b803603821315612fcf57600080fd5b81835281816020850137506000828201602090810191909152601f909101601f19169091010190565b602081526146c6602082016146c184612f7e565b6130d5565b60006146d460208401612f7e565b6146e160408401826130d5565b506146f260608301604085016145f1565b60c083013560e083015261010060e084013581840152614713818501612f7e565b9050610120614724818501836130d5565b610140915080850135828501525061016081850135818501526147498186018661463f565b61018086810152925090506104c56101a085018383614684565b600080604080848603121561477757600080fd5b8351602080860151919450906001600160401b038082111561479857600080fd5b818701915087601f8301126147ac57600080fd5b81516147ba6134ff8261356c565b81815260059190911b8301840190848101908a8311156147d957600080fd5b8585015b8381101561489a578051858111156147f457600080fd5b86016060818e03601f1901121561480b5760008081fd5b6148136133c6565b8882015161482081612f66565b8152818a01518982015260608201518781111561483d5760008081fd5b8083019250508d603f8301126148535760008081fd5b888201516148636134ff826134ca565b8181528f8c8386010111156148785760008081fd5b614887828c83018e87016130e2565b828c0152508452509186019186016147dd565b50809750505050505050509250929050565b634e487b7160e01b600052601160045260246000fd5b808201808211156109c4576109c46148ac565b6001600160a01b03851681526060602082018190526000906148fa9083018587614684565b905082604083015295945050505050565b6000808335601e1984360301811261492257600080fd5b8301803591506001600160401b0382111561493c57600080fd5b6020019150600581901b3603821315612fcf57600080fd5b60006112b9368484613b5a565b606081526000614975606083018688614684565b602083820381850152601e198636030186351261499157600080fd5b8535860180356001600160401b03808211156149ac57600080fd5b8160051b360384840113156149c057600080fd5b604085526040850182815260608601905060608360051b8701018585016000605e19873603015b86821015614af757605f198a850301855280833512614a0557600080fd5b8783350189810135614a1681612f66565b6001600160a01b03908116865260408201359036839003603e19018212614a3c57600080fd5b6040928201928301928c013589811115614a5557600080fd5b8060071b3603841315614a6757600080fd5b6040888e01819052880181905260608801925060005b81811015614add57614a8f8535612f66565b8285351684528d850135614aa28161354f565b63ffffffff16848f01526040850135614aba81612f66565b831660408501526060858101359085015260809485019490930192600101614a7d565b505050958a019594505091880191600191909101906149e7565b505050858b013586880152809750505050505050506104c560408301846130d5565b818103818111156109c4576109c46148ac565b6001600160a01b03878116825286166020808301919091526040820186905260c06060830181905285519083018190526000918681019160e085019190845b81811015614b8757845184529382019392820192600101614b6b565b5050509415156080840152505090151560a090910152949350505050565b600082825180855260208086019550808260051b8401018186016000805b85811015614c6257868403601f19018a52825180516001600160a01b03908116865290860151604087870181905281518188018190529188019290916060919082890190875b81811015614c4a5786518051851684528c81015163ffffffff168d8501528681015185168785015285015185840152958b0195608090920191600101614c09565b50509d89019d97505050938601935050600101614bc3565b509198975050505050505050565b8381528260208201526060604082015260006104c56060830184614ba5565b634e487b7160e01b600052601260045260246000fd5b80516080808452815184820181905260009260a0916020918201918388019190865b82811015614d8457845180516001600160681b031685528281015163ffffffff908116848701526040808301519091169086015260608082015161ffff169086015287810151614d19898701826130d5565b50868101518588015260c08082015162ffffff169086015260e080820151151590860152610100808201511515908601526101208082015115159086015261014080820151151590860152610160908101511515908501529381019361018090930192600101614cc7565b508781015163ffffffff16908901525060408087015160ff16908801526060808701519450614db5908801856130d5565b9695505050505050565b82815260406020820152600082516101806040840152614de36101c0840182613106565b90506020840151603f1980858403016060860152614e018383613106565b925060408601519150614e1760808601836130d5565b60608601519150808584030160a0860152614e328383613106565b925060808601519150614e4860c08601836130d5565b60a08601519150808584030160e0860152614e638383613106565b925060c08601519150610100818685030181870152614e828484614ca5565b935060e08701519250614e996101208701846130d5565b860151805115156101408701526020810151151561016087015260408101511515610180870152606081015115156101a08701529150614ed69050565b50949350505050565b600060018060a01b03808516835260206040602085015260a0840182865116604086015266ffffffffffffff6020870151166060860152604086015192506060608086015280835180835260c087019150602085019450600092505b80831015614f5e57845160ff168252938301936001929092019190830190614f3b565b50979650505050505050565b601f821115610783576000816000526020600020601f850160051c81016020861015614f935750805b601f850160051c820191505b81811015614fb257828155600101614f9f565b505050505050565b81516001600160401b03811115614fd357614fd36133b0565b614fe781614fe1845461440e565b84614f6a565b602080601f83116001811461501c57600084156150045750858301515b600019600386901b1c1916600185901b178555614fb2565b600085815260208120601f198616915b8281101561504b5788860151825594840194600190910190840161502c565b50858210156150695787850151600019600388901b60f8161c191681555b5050505050600190811b01905550565b60408152600061508c6040830185613132565b905060018060a01b03831660208301529392505050565b805161ffff16825260208101516150c0602084018261ffff169052565b5060408101516150d8604084018263ffffffff169052565b5060608101516150ec606084018215159052565b506080810151615100608084018215159052565b5060a081015161511460a084018215159052565b5060c081015161512860c084018215159052565b5060e081015161513c60e084018215159052565b5061010081810151151590830152610120808201511515908301526101408082015115159083015261016080820151151590830152610180808201511515908301526101a0808201511515908301526101c0808201511515908301526101e08082015115159083015261020080820151151590830152610220808201516151c5828501826130d5565b50506102408181015161ffff811684830152610781565b600082825180855260208086019550808260051b8401018186016000805b85811015614c6257868403601f19018a52825180518552850151604086860181905281518187018190529187019160609081880190865b818110156152a25785518051151584528b81015163ffffffff168c8501528581015166ffffffffffffff1686850152848101516001600160a01b039081168686015260808083015165ffffffffffff169086015260a0918201511690840152948a019460c090920191600101615231565b50509c88019c9650505092850192506001016151fa565b60008151808452602080850194506020840160005b8381101561530457815180516001600160e01b0316885283015163ffffffff1683880152604090960195908201906001016152ce565b509495945050505050565b600082825180855260208086019550808260051b84010181860160005b848110156131a657858303601f19018952815180516001600160a01b03908116855285820151168585015260408082015160808287018190529190615373838801826152b9565b925050506060808301519250858203818701525061539181836152b9565b9a86019a945050509083019060010161532c565b600082825180855260208086019550808260051b84010181860160005b848110156131a657601f198684030189528151805165ffffffffffff1684528481015163ffffffff908116868601526040808301516001600160701b031690860152606080830151909116908501526080808201516103409190615428828801826130d5565b505060a08083015161543c828801826150a3565b505060c082015181610300870152615456828701826151dc565b91505060e08201519150848103610320860152615473818361530f565b9a86019a94505050908301906001016153c2565b600082825180855260208086019550808260051b8401018186016000805b85811015614c6257868403601f19018a52825180516001600160a01b03908116865290860151604087870181905281518188018190529188019290916060919082890190875b818110156155235786518051851684528c81015160ff168d85015286015163ffffffff1686840152958b0195918401916001016154eb565b50509d89019d975050509386019350506001016154a5565b6001600160a01b038516815260a06020820181905260009061555f90830186613106565b828103604084015261557181866153a5565b905082810360608401526155858185615487565b838103608090940193909352505060008152602001949350505050565b8381526080602082015260006155bb60808301856153a5565b82810360408401526155cd8185615487565b8381036060909401939093525050600081526020019392505050565b8481526080602082015260006156026080830186613106565b82810360408401526156148186613106565b91505082606083015295945050505050565b8381528260208201526060604082015260006104c560608301846151dc565b6001600160a01b038416815260606020820181905260009061566990830185613106565b9050826040830152949350505050565b600082825180855260208086019550808260051b8401018186016000805b85811015614c6257868403601f19018a528251805164ffffffffff1685528581015160e0878701819052815190870181905261010087019188019085905b80821015615723578251805163ffffffff1685528a8101516001600160681b03168b8601526040908101516001600160a01b03169085015260609093019291890191600191909101906156d5565b50505060408281015161ffff908116918801919091526060808401516001600160701b03169088015260808084015163ffffffff9081169189019190915260a0808501519091169088015260c0928301511691909501529884019891840191600101615697565b80516001600160a01b03908116835260208083015160408286018190528151868201819052600094919360609390919082019084890190875b8181101561580b5783518051871684528581015162ffffff16868501528881015163ffffffff9081168a860152908801511687840152928401926080909201916001016157c3565b50909998505050505050505050565b600081516040845261582f6040850182614ba5565b602093840151949093019390935250919050565b60e0815260008851608060e08401528051608061016085015261586a6101e0850182613106565b9050602082015161015f19808684030161018087015261588a8383613106565b92506040840151915080868403016101a0870152506158a98282613106565b606093909301516101c0860152505060208a015163ffffffff1661010084015260408a0151906158dd6101208501836130d5565b60608b015184820360df190161014086015291506158fb8183615679565b9150508281036020840152615910818a615487565b90508281036040840152615924818961578a565b90508281036060840152615938818861581a565b9050828103608084015261594c81876153a5565b905082810360a08401526159608186613106565b91505061597060c08301846130d5565b98975050505050505050565b61ffff828116828216039080821115615997576159976148ac565b5092915050565b6040815260006159b16040830185613106565b82810360208401526104c58185613106565b6001600160681b039290921682526001600160a01b0316602082015260400190565b63ffffffff85168152608060208201526000615602608083018661310656fe598baf7bf150ca2f42be9e9f8f55e81d45f5715c3ff22bf46d697fabec7f31d6a26469706673582212202ed5cfb6f58de016ddd829a1871ea3eafab5dd34d511b4d09189462b269ad64e64736f6c63430008170033",
	"deployedBytecode": "0x6080604052600436106100fa5760003560e01c806301ffc9a7146100ff578063150b7a02146101355780631680e1721461016e5780631727f039146101b05780634fa9af69146101c55780635a31dc13146101f25780635c0a7cee14610230578063677ce0881461025d5780637249a7731461027d57806382a09b30146102c05780638cc35846146102e0578063abf8c5c81461030e578063b5d2553314610342578063b8a843d714610376578063bb1994021461038d578063c57981b5146103ad578063cd817cd0146103c2578063d290db42146103f2578063db29c89214610420578063eb5ad9d914610440578063ee0fc12114610460575b600080fd5b34801561010b57600080fd5b5061012061011a366004612f3c565b50600090565b60405190151581526020015b60405180910390f35b34801561014157600080fd5b50610155610150366004612fd6565b610494565b6040516001600160e01b0319909116815260200161012c565b34801561017a57600080fd5b506101a27f000000000000000000000000000000000000000000000000000000000000000281565b60405190815260200161012c565b6101c36101be366004613048565b6104ce565b005b3480156101d157600080fd5b506101a26101e0366004613083565b60016020526000908152604090205481565b3480156101fe57600080fd5b506101a261020d36600461309c565b600260209081526000938452604080852082529284528284209052825290205481565b34801561023c57600080fd5b5061025061024b366004613083565b610788565b60405161012c91906131b3565b34801561026957600080fd5b506101206102783660046131c6565b6108ac565b34801561028957600080fd5b506102b3610298366004613083565b6000602081905290815260409020546001600160a01b031681565b60405161012c91906131f6565b3480156102cc57600080fd5b506101c36102db36600461309c565b6109ca565b3480156102ec57600080fd5b506103006102fb36600461320a565b610bb1565b60405161012c929190613245565b34801561031a57600080fd5b506102b37f0000000000000000000000000681cdad31dad70c65f8a68551d5cda78f39f96081565b34801561034e57600080fd5b506102b37f000000000000000000000000dba05c1525a7d6255dc637edd58c849acb635d2581565b34801561038257600080fd5b506101a262278d0081565b34801561039957600080fd5b506101c36103a836600461325e565b610e87565b3480156103b957600080fd5b506101a2601981565b3480156103ce57600080fd5b506103e26103dd3660046132d5565b610f2b565b60405161012c9493929190613310565b3480156103fe57600080fd5b5061041261040d3660046141a7565b61120c565b60405161012c9291906142b7565b34801561042c57600080fd5b5061012061043b3660046131c6565b611230565b34801561044c57600080fd5b506101c361045b3660046131c6565b6112c0565b34801561046c57600080fd5b506102b37f00000000000000000000000064c30002444321c4504c8f1b9b04c95de3731fd281565b600061049e61135a565b6001600160a01b0316336001600160a01b0316146104bb57600080fd5b50630a85bd0160e11b5b95945050505050565b6104d66113e3565b6001600160a01b0316636e49181f8260200135336040518363ffffffff1660e01b81526004016105079291906142b7565b602060405180830381865afa158015610524573d6000803e3d6000fd5b505050506040513d601f19601f8201168201806040525081019061054891906142ce565b610565576040516385abdc5960e01b815260040160405180910390fd5b60006105756101c08301836142eb565b8101906105829190614331565b9050600061eeee61059b61012085016101008601614331565b6001600160a01b0316146105b05760006105b7565b6101608301355b90506001600160a01b03821663fef43257827f00000000000000000000000000000000000000000000000000000000000000026105fc61012088016101008901614331565b61016088013561060f60208a018a614331565b60008a6020013560405160200161062891815260200190565b6040516020818303038152906040526040518863ffffffff1660e01b81526004016106589695949392919061434e565b60206040518083038185885af193505050508015610693575060408051601f3d908101601f19168201909252610690918101906143a7565b60015b610781573d8080156106c1576040519150601f19603f3d011682016040523d82523d6000602084013e6106c6565b606091505b5033639e6eec058360208701356106e561012089016101008a01614331565b604080517f000000000000000000000000000000000000000000000000000000000000000260208201526101608b013591600091016040516020818303038152906040526040518763ffffffff1660e01b81526004016107499594939291906143c0565b6000604051808303818588803b15801561076257600080fd5b505af1158015610776573d6000803e3d6000fd5b505050505050505050565b505b505050565b606060046000838152602001908152602001600020805480602002602001604051908101604052809291908181526020016000905b828210156108a1576000848152602090819020604080516060810182526003860290920180546001600160a01b03168352600181015493830193909352600283018054929392918401916108109061440e565b80601f016020809104026020016040519081016040528092919081815260200182805461083c9061440e565b80156108895780601f1061085e57610100808354040283529160200191610889565b820191906000526020600020905b81548152906001019060200180831161086c57829003601f168201915b505050505081525050815260200190600101906107bd565b505050509050919050565b6000828152602081905260408120546001600160a01b03908116908316036108d6575060016109c4565b604051633d12cb8760e01b8152600481018490526000907f000000000000000000000000dba05c1525a7d6255dc637edd58c849acb635d256001600160a01b031690633d12cb8790602401600060405180830381865afa15801561093e573d6000803e3d6000fd5b505050506040513d6000823e601f3d908101601f191682016040526109669190810190614448565b805190915060005b818110156109bc57828181518110610988576109886144d6565b60200260200101516001600160a01b0316856001600160a01b0316036109b457600193505050506109c4565b60010161096e565b506000925050505b92915050565b60007f00000000000000000000000064c30002444321c4504c8f1b9b04c95de3731fd26001600160a01b031663d4a1b4b16040518163ffffffff1660e01b8152600401602060405180830381865afa158015610a2a573d6000803e3d6000fd5b505050506040513d601f19601f82011682018060405250810190610a4e91906144ec565b604051630969875760e21b815260048101869052602481018590526001600160a01b0391909116906325a61d5c9060440161012060405180830381865afa158015610a9d573d6000803e3d6000fd5b505050506040513d601f19601f82011682018060405250810190610ac19190614540565b905042816060015165ffffffffffff161115610af057604051633c09460360e11b815260040160405180910390fd5b60008481526002602090815260408083208483015165ffffffffffff16845282528083206001600160a01b038616845290915281205490819003610b35575050505050565b600085815260026020908152604080832087845282528083206001600160a01b0387168452909152812055610b6b858285611443565b826001600160a01b0316826020015165ffffffffffff1686600080516020615a058339815191528433604051610ba29291906142b7565b60405180910390a45050505050565b60c081013560009081526020819052604081205460609081906001600160a01b03168015610c5457604051634661ac2360e11b81526001600160a01b03821690638cc3584690610c059088906004016146ad565b600060405180830381865afa158015610c22573d6000803e3d6000fd5b505050506040513d6000823e601f3d908101601f19168201604052610c4a9190810190614763565b9094509150610c5d565b84610120013593505b815160c086013560009081526004602090815260408083208054825181850281018501909352808352941515949192909190849084015b82821015610d78576000848152602090819020604080516060810182526003860290920180546001600160a01b0316835260018101549383019390935260028301805492939291840191610ce79061440e565b80601f0160208091040260200160405190810160405280929190818152602001828054610d139061440e565b8015610d605780601f10610d3557610100808354040283529160200191610d60565b820191906000526020600020905b815481529060010190602001808311610d4357829003601f168201915b50505050508152505081526020019060010190610c94565b50505050905060008151905082610d90576000610d93565b60015b610da09060ff16826148c2565b6001600160401b03811115610db757610db76133b0565b604051908082528060200260200182016040528015610df057816020015b610ddd612ed5565b815260200190600190039081610dd55790505b50955060005b81811015610e3d57828181518110610e1057610e106144d6565b6020026020010151878281518110610e2a57610e2a6144d6565b6020908102919091010152600101610df6565b508215610e7d5784600081518110610e5757610e576144d6565b6020026020010151868281518110610e7157610e716144d6565b60200260200101819052505b5050505050915091565b610e9184336114f2565b60003384848460200135604051602001610eae94939291906148d5565b60408051601f1981840301815291905280516020909101209050610ee58582610ed7858061490b565b610ee091614954565b61151d565b80857f755ecfca2f6e66af8868551556bf7931740a7062db8e0882f4c322fdb0bb3f6086868633604051610f1c9493929190614961565b60405180910390a35050505050565b6000808060606001600160a01b037f000000000000000000000000dba05c1525a7d6255dc637edd58c849acb635d25166383db9d0160408701803590610f749060208a01614331565b6040518363ffffffff1660e01b8152600401610f919291906142b7565b602060405180830381865afa158015610fae573d6000803e3d6000fd5b505050506040513d601f19601f82011682018060405250810190610fd291906142ce565b15610fef5761271093506080850135925060a08501359150611205565b6040808601356000908152600160205220544210156110215760405163e889f60760e01b815260040160405180910390fd5b600061102b6113e3565b6001600160a01b031663862026507f000000000000000000000000000000000000000000000000000000000000000261106a60e08a0160c08b01614331565b6040518363ffffffff1660e01b81526004016110879291906142b7565b602060405180830381865afa1580156110a4573d6000803e3d6000fd5b505050506040513d601f19601f820116820180604052508101906110c891906144ec565b905061016086013561271014806110e657506001600160a01b038116155b156111075785610160013586608001358760a0013594509450945050611205565b600061111b608088013560196103e86115b4565b905060006111396101208901358360a08b01356101608c013561168b565b604080516001808252818301909252919250816020015b604080516060808201835260008083526020830152918101919091528152602001906001900390816111505790505093506040518060600160405280306001600160a01b03168152602001828152602001846040516020016111b291906131f6565b604051602081830303815290604052815250846000815181106111d7576111d76144d6565b60209081029190910101526101608801356111f68360808b0135614b19565b8960a001359650965096505050505b9193509193565b60008061121f8a8a8a8a8a8a8a8a611703565b909b909a5098505050505050505050565b600061123a6119c4565b6001600160a01b031663632af95f83308661125488611a24565b6000806040518763ffffffff1660e01b815260040161127896959493929190614b2c565b602060405180830381865afa158015611295573d6000803e3d6000fd5b505050506040513d601f19601f820116820180604052508101906112b991906142ce565b9392505050565b6112ca82336114f2565b61130a303366ffffffffffffff85166000604051908082528060200260200182016040528015611304578160200160208202803683370190505b50611b9e565b6113148282611c18565b806001600160a01b0316827f0329d6a81434b130c72eb65eea0e32e429dc1277b4aad86ec86454aefb6184513360405161134e91906131f6565b60405180910390a35050565b60007f00000000000000000000000064c30002444321c4504c8f1b9b04c95de3731fd26001600160a01b031663293c49996040518163ffffffff1660e01b8152600401602060405180830381865afa1580156113ba573d6000803e3d6000fd5b505050506040513d601f19601f820116820180604052508101906113de91906144ec565b905090565b60007f00000000000000000000000064c30002444321c4504c8f1b9b04c95de3731fd26001600160a01b03166388bc2ef36040518163ffffffff1660e01b8152600401602060405180830381865afa1580156113ba573d6000803e3d6000fd5b6040516363fdc96f60e11b815260048101849052602481018390526001600160a01b03828116604483015260a06064830152600060a4830181905260848301527f00000000000000000000000064c30002444321c4504c8f1b9b04c95de3731fd2169063c7fb92de9060c4016020604051808303816000875af11580156114ce573d6000803e3d6000fd5b505050506040513d601f19601f8201168201806040525081019061078191906143a7565b6114fc8282611230565b611519576040516385abdc5960e01b815260040160405180910390fd5b5050565b604051630179fa8760e51b81526001600160a01b037f000000000000000000000000dba05c1525a7d6255dc637edd58c849acb635d251690632f3f50e09061156d90869086908690600401614c70565b6000604051808303816000875af115801561158c573d6000803e3d6000fd5b505050506040513d6000823e601f3d908101601f191682016040526107819190810190614448565b60008080600019858709858702925082811083820303915050806000036115ee578382816115e4576115e4614c8f565b04925050506112b9565b83811061162357604051630c740aef60e31b815260048101879052602481018690526044810185905260640160405180910390fd5b600084868809600260036001881981018916988990049182028318808302840302808302840302808302840302808302840302808302840302918202909203026000889003889004909101858311909403939093029303949094049190911702949350505050565b60008160000361169d575060006116fb565b8284036116ab5750836116fb565b60006116b88686866115b4565b905061270f1983016116cb5790506116fb565b6116f7816116e5876116df87612710614b19565b886115b4565b6116ef90866148c2565b6127106115b4565b9150505b949350505050565b600080898082036117855761171661135a565b6001600160a01b03166306661abd6040518163ffffffff1660e01b8152600401602060405180830381865afa158015611753573d6000803e3d6000fd5b505050506040513d601f19601f8201168201806040525081019061177791906143a7565b6117829060016148c2565b9a505b845160006117948260016148c2565b6001600160401b038111156117ab576117ab6133b0565b6040519080825280602002602001820160405280156117e457816020015b6117d1612ed5565b8152602001906001900390816117c95790505b50905060005b8281101561183157878181518110611804576118046144d6565b602002602001015182828151811061181e5761181e6144d6565b60209081029190910101526001016117ea565b507f0000000000000000000000000681cdad31dad70c65f8a68551d5cda78f39f9606001600160a01b0316632230819f8e8a600001516040518363ffffffff1660e01b8152600401611884929190614dbf565b6020604051808303816000875af11580156118a3573d6000803e3d6000fd5b505050506040513d601f19601f820116820180604052508101906118c791906144ec565b93508760200151156118f65760008d815260036020908152604082208054600181018255908352912060149101555b8760400151156119235760008d815260036020908152604082208054600181018255908352912060159101555b8760600151156119505760008d815260036020908152604082208054600181018255908352912060169101555b6040518060600160405280856001600160a01b031681526020016000815260200160405180602001604052806000815250815250818381518110611996576119966144d6565b60200260200101819052506119b0838d8d8d8d868c611cdc565b508c94505050509850989650505050505050565b60007f00000000000000000000000064c30002444321c4504c8f1b9b04c95de3731fd26001600160a01b031663f434c9146040518163ffffffff1660e01b8152600401602060405180830381865afa1580156113ba573d6000803e3d6000fd5b6000818152600360209081526040808320805482518185028101850190935280835260609493830182828015611a7957602002820191906000526020600020905b815481526020019060010190808311611a65575b50508351939450611a919250839150600390506148c2565b6001600160401b03811115611aa857611aa86133b0565b604051908082528060200260200182016040528015611ad1578160200160208202803683370190505b509250601160ff1683600081518110611aec57611aec6144d6565b602002602001018181525050601860ff1683600181518110611b1057611b106144d6565b602002602001018181525050600660ff1683600281518110611b3457611b346144d6565b60200260200101818152505060005b81811015611b9657828181518110611b5d57611b5d6144d6565b602002602001015184826003611b7391906148c2565b81518110611b8357611b836144d6565b6020908102919091010152600101611b43565b505050919050565b604080516060810182526001600160a01b038516815266ffffffffffffff84166020820152908101829052611bd16119c4565b6001600160a01b031663893ce90186836040518363ffffffff1660e01b8152600401611bfe929190614edf565b600060405180830381600087803b15801561076257600080fd5b6000611c2383611a24565b80519091506000816001600160401b03811115611c4257611c426133b0565b604051908082528060200260200182016040528015611c6b578160200160208202803683370190505b50905060005b82811015611cbf57838181518110611c8b57611c8b6144d6565b6020026020010151828281518110611ca557611ca56144d6565b60ff90921660209283029190910190910152600101611c71565b50611cd530858766ffffffffffffff1684611b9e565b5050505050565b6000611cf188888888308761ffff168a611dd8565b835190985060005b81811015611d905760008a81526004602052604090208551869083908110611d2357611d236144d6565b602090810291909101810151825460018082018555600094855293839020825160039092020180546001600160a01b0319166001600160a01b03909216919091178155918101519282019290925560408201516002820190611d859082614fba565b505050600101611cf9565b50887fdfaf2737f25eace49d372b472ec03f1df0f9814dfc69d2b95c5e92a041f42e298533604051611dc3929190615079565b60405180910390a25096979650505050505050565b6000806000611de889878761235f565b9150915089600003611e955788516040908101519051634fb99a3f60e01b81526001600160a01b037f00000000000000000000000064c30002444321c4504c8f1b9b04c95de3731fd21691634fb99a3f91611e4b91309187908e9060040161553b565b6020604051808303816000875af1158015611e6a573d6000803e3d6000fd5b505050506040513d601f19601f82011682018060405250810190611e8e91906143a7565b9950612110565b7f00000000000000000000000064c30002444321c4504c8f1b9b04c95de3731fd26001600160a01b031663293c49996040518163ffffffff1660e01b8152600401602060405180830381865afa158015611ef3573d6000803e3d6000fd5b505050506040513d601f19601f82011682018060405250810190611f1791906144ec565b6001600160a01b03166342842e0e7f00000000000000000000000064c30002444321c4504c8f1b9b04c95de3731fd26001600160a01b031663293c49996040518163ffffffff1660e01b8152600401602060405180830381865afa158015611f83573d6000803e3d6000fd5b505050506040513d601f19601f82011682018060405250810190611fa791906144ec565b6001600160a01b0316636352211e8d6040518263ffffffff1660e01b8152600401611fd491815260200190565b602060405180830381865afa158015611ff1573d6000803e3d6000fd5b505050506040513d601f19601f8201168201806040525081019061201591906144ec565b6040516001600160e01b031960e084901b1681526001600160a01b039091166004820152306024820152604481018d9052606401600060405180830381600087803b15801561206357600080fd5b505af1158015612077573d6000803e3d6000fd5b505060405163b1d5968560e01b81526001600160a01b037f00000000000000000000000064c30002444321c4504c8f1b9b04c95de3731fd216925063b1d5968591506120cb908d9086908d906004016155a2565b6020604051808303816000875af11580156120ea573d6000803e3d6000fd5b505050506040513d601f19601f8201168201806040525081019061210e91906143a7565b505b6121388a8a6060015160008151811061212b5761212b6144d6565b60200260200101516127b1565b7f00000000000000000000000064c30002444321c4504c8f1b9b04c95de3731fd26001600160a01b031663581781918b8b60000151600001518c60000151602001518d60000151606001516040518563ffffffff1660e01b81526004016121a294939291906155e9565b6020604051808303816000875af11580156121c1573d6000803e3d6000fd5b505050506040513d601f19601f820116820180604052508101906121e591906144ec565b5086516001600160a01b031615612200576122008a8861283e565b7f00000000000000000000000064c30002444321c4504c8f1b9b04c95de3731fd26001600160a01b031663ed1159578b600061223f8d60400151612978565b6040518463ffffffff1660e01b815260040161225d93929190615626565b600060405180830381600087803b15801561227757600080fd5b505af115801561228b573d6000803e3d6000fd5b505050506122998a8a612aa8565b6122a78a8a60400151611c18565b6122b08a612cc2565b6020840151600090156122f157338286602001516040516020016122d693929190615645565b604051602081830303815290604052805190602001206122f4565b60005b9050801561230b5761230b8b82876000015161151d565b808b7ff508fc85f2069f367770a68e3aaca6fffdf45a93168764fa7d08aecc9585c4ac8c8c8c8a8989336040516123489796959493929190615843565b60405180910390a350989998505050505050505050565b606083810151518190600081900361238a57604051638ef0479760e01b815260040160405180910390fd5b806001600160401b038111156123a2576123a26133b0565b6040519080825280602002602001820160405280156124ac57816020015b6124996040805161010080820183526000808352602080840182905283850182905260608085018390526080808601849052865161026081018852848152928301849052958201839052810182905293840181905260a084810182905260c0850182905260e0850182905291840181905261012084018190526101408401819052610160840181905261018084018190526101a084018190526101c084018190526101e0840181905261020084018190526102208401819052610240840152909190820190815260200160608152602001606081525090565b8152602001906001900390816123c05790505b5092506124b886612d42565b91506124c2612eff565b6000805b838110156127a557886060015181815181106124e4576124e46144d6565b6020026020010151925081836000015164ffffffffff16116125195760405163cb89a04560e01b815260040160405180910390fd5b826000015164ffffffffff16868281518110612537576125376144d6565b602090810291909101015165ffffffffffff909116905260808301518651879083908110612567576125676144d6565b60209081029190910181015163ffffffff90921691015260608301516001600160701b0316156125d35782606001516001600160701b03166001146125cc576125c76001670de0b6b3a764000085606001516001600160701b03166115b4565b6125d6565b60016125d6565b60005b8682815181106125e8576125e86144d6565b6020026020010151604001906001600160701b031690816001600160701b0316815250508260a00151868281518110612623576126236144d6565b60200260200101516060019063ffffffff16908163ffffffff16815250506000868281518110612655576126556144d6565b6020026020010151608001906001600160a01b031690816001600160a01b031681525050604051806102600160405280846040015161ffff1681526020018460c001516127106126a5919061597c565b61ffff908116825260208c81015163ffffffff16908301526000604083018190526060830181905260016080840181905260a0840182905260c0840182905260e08401829052610100840182905261012084018290526101408401829052610160840182905261018084018290526101a084018290526101c08401526101e08301526001600160a01b038b166102008301528916610220909101528651879083908110612754576127546144d6565b602002602001015160a001819052508461276e8483612d7c565b60405160200161277f92919061599e565b60408051601f19818403018152919052835190955064ffffffffff1691506001016124c6565b50505050935093915050565b805164ffffffffff1615806127d1575042816000015164ffffffffff1610155b156127da575050565b60006127e962278d00426148c2565b600084815260016020526040908190208290555190915083907f48a9634f50564cfe6648ff5e75795a36873bf96c408523d50017032657e671989061283190849033906142b7565b60405180910390a2505050565b602081810151516040805160808101825260008082529381018490529081018390526060810183905290915b828110156129445783602001518181518110612888576128886144d6565b602090810291909101810151855191810151604080830151606084015184519251633db10e9d60e11b8152600481018c905262ffffff909416602485015263ffffffff91821660448501521660648301526001600160a01b039081166084830152919450911690637b621d3a9060a4016020604051808303816000875af1158015612917573d6000803e3d6000fd5b505050506040513d601f19601f8201168201806040525081019061293b91906144ec565b5060010161286a565b5050905160009283526020839052604090922080546001600160a01b0319166001600160a01b039093169290921790915550565b604080516001808252818301909252606091816020015b60408051808201909152600081526060602082015281526020019060019003908161298f57505060408051600180825281830190925291925060009190602082015b6040805160c08101825260008082526020808301829052928201819052606082018190526080820181905260a082015282526000199092019101816129d15750506040805160c0810182526000808252633b9aca0060208301529181018290526001600160a01b03861660608201526080810182905260a08101829052825192935091839190612a6357612a636144d6565b60200260200101819052506040518060400160405280600181526020018281525082600081518110612a9757612a976144d6565b602002602001018190525050919050565b606081015151612ab6612eff565b60005b82811015611cd55783606001518181518110612ad757612ad76144d6565b6020026020010151915060008260200151519050612b276040518060600160405280600063ffffffff16815260200160006001600160681b0316815260200160006001600160a01b031681525090565b60005b82811015612cb75784602001518181518110612b4857612b486144d6565b6020026020010151915046826000015163ffffffff1603612caf57831580612b7b575042856000015164ffffffffff1611155b15612be557612b9c8883602001516001600160681b03168460400151611443565b60408201516001600160a01b0316612bb485426148c2565b89600080516020615a05833981519152856020015133604051612bd89291906159c3565b60405180910390a4612caf565b60208083015160008a81526002909252604082206001600160681b0390911691612c0f87426148c2565b8152602001908152602001600020600084604001516001600160a01b03166001600160a01b031681526020019081526020016000206000828254612c5391906148c2565b909155505060408201516001600160a01b0316612c7085426148c2565b897f9e83979117d75aa75fe101361cf46235d3d0a6fa7afafb275d2b9f8af0227313856020015133604051612ca69291906159c3565b60405180910390a45b600101612b2a565b505050600101612ab9565b60408051600180825281830190925260009160208083019080368337019050509050601b81600081518110612cf957612cf96144d6565b602002602001019060ff16908160ff1681525050611519307f000000000000000000000000dba05c1525a7d6255dc637edd58c849acb635d258466ffffffffffffff1684611b9e565b60208082015182518051818401516060928301516040519395612d669594016159e5565b6040516020818303038152906040529050919050565b606081158015612d925750825164ffffffffff16155b612da457825164ffffffffff16612da6565b425b6040808501516060860151608087015160a088015160c08901519451612e0996959060200195865261ffff94851660208701526001600160701b0393909316604086015263ffffffff91821660608601521660808401521660a082015260c00190565b60408051601f1981840301815291905260208401515190915060005b81811015612e7f5782612e5486602001518381518110612e4757612e476144d6565b6020026020010151612e87565b604051602001612e6592919061599e565b60408051601f198184030181529190529250600101612e25565b505092915050565b6060816000015182604001518360200151604051602001612d669392919063ffffffff9390931683526001600160a01b039190911660208301526001600160681b0316604082015260600190565b604051806060016040528060006001600160a01b0316815260200160008152602001606081525090565b6040805160e08101825260008082526060602083018190529282018190529181018290526080810182905260a0810182905260c081019190915290565b600060208284031215612f4e57600080fd5b81356001600160e01b0319811681146112b957600080fd5b6001600160a01b0381168114612f7b57600080fd5b50565b8035612f8981612f66565b919050565b60008083601f840112612fa057600080fd5b5081356001600160401b03811115612fb757600080fd5b602083019150836020828501011115612fcf57600080fd5b9250929050565b600080600080600060808688031215612fee57600080fd5b8535612ff981612f66565b9450602086013561300981612f66565b93506040860135925060608601356001600160401b0381111561302b57600080fd5b61303788828901612f8e565b969995985093965092949392505050565b60006020828403121561305a57600080fd5b81356001600160401b0381111561307057600080fd5b820161020081850312156112b957600080fd5b60006020828403121561309557600080fd5b5035919050565b6000806000606084860312156130b157600080fd5b833592506020840135915060408401356130ca81612f66565b809150509250925092565b6001600160a01b03169052565b60005b838110156130fd5781810151838201526020016130e5565b50506000910152565b6000815180845261311e8160208601602086016130e2565b601f01601f19169290920160200192915050565b600082825180855260208086019550808260051b84010181860160005b848110156131a657858303601f19018952815180516001600160a01b03168452848101518585015260409081015160609185018290529061319281860183613106565b9a86019a945050509083019060010161314f565b5090979650505050505050565b6020815260006112b96020830184613132565b600080604083850312156131d957600080fd5b8235915060208301356131eb81612f66565b809150509250929050565b6001600160a01b0391909116815260200190565b60006020828403121561321c57600080fd5b81356001600160401b0381111561323257600080fd5b820161018081850312156112b957600080fd5b8281526040602082015260006116fb6040830184613132565b6000806000806060858703121561327457600080fd5b8435935060208501356001600160401b038082111561329257600080fd5b61329e88838901612f8e565b909550935060408701359150808211156132b757600080fd5b508501604081880312156132ca57600080fd5b939692955090935050565b6000602082840312156132e757600080fd5b81356001600160401b038111156132fd57600080fd5b82016101a081850312156112b957600080fd5b60006080820186835260208681850152604086604086015260606080606087015283875180865260a08801915060a08160051b890101955084890160005b8281101561339e57898803609f19018452815180516001600160a01b0316895287810151888a015286015186890186905261338b868a0182613106565b985050928601929086019060010161334e565b50959c9b505050505050505050505050565b634e487b7160e01b600052604160045260246000fd5b604051606081016001600160401b03811182821017156133e8576133e86133b0565b60405290565b60405160e081016001600160401b03811182821017156133e8576133e86133b0565b604051608081016001600160401b03811182821017156133e8576133e86133b0565b604080519081016001600160401b03811182821017156133e8576133e86133b0565b60405161018081016001600160401b03811182821017156133e8576133e86133b0565b60405161012081016001600160401b03811182821017156133e8576133e86133b0565b604051601f8201601f191681016001600160401b03811182821017156134c2576134c26133b0565b604052919050565b60006001600160401b038211156134e3576134e36133b0565b50601f01601f191660200190565b60006135046134ff846134ca565b61349a565b905082815283838301111561351857600080fd5b828260208301376000602084830101529392505050565b600082601f83011261354057600080fd5b6112b9838335602085016134f1565b63ffffffff81168114612f7b57600080fd5b8035612f898161354f565b60006001600160401b03821115613585576135856133b0565b5060051b60200190565b803564ffffffffff81168114612f8957600080fd5b80356001600160681b0381168114612f8957600080fd5b600082601f8301126135cc57600080fd5b813560206135dc6134ff8361356c565b828152606092830285018201928282019190878511156135fb57600080fd5b8387015b858110156131a65781818a0312156136175760008081fd5b61361f6133c6565b813561362a8161354f565b81526136378287016135a4565b8682015260408083013561364a81612f66565b9082015284529284019281016135ff565b803561ffff81168114612f8957600080fd5b6001600160701b0381168114612f7b57600080fd5b8035612f898161366d565b600082601f83011261369e57600080fd5b813560206136ae6134ff8361356c565b82815260059290921b840181019181810190868411156136cd57600080fd5b8286015b848110156137ae5780356001600160401b03808211156136f15760008081fd5b9088019060e0828b03601f190181131561370b5760008081fd5b6137136133ee565b61371e88850161358f565b8152604080850135848111156137345760008081fd5b6137428e8b838901016135bb565b8a840152506060935061375684860161365b565b908201526080613767858201613682565b8483015260a0935061377a848601613561565b9082015260c061378b858201613561565b8483015261379a83860161365b565b9082015286525050509183019183016136d1565b509695505050505050565b6000608082840312156137cb57600080fd5b6137d3613410565b905081356001600160401b03808211156137ec57600080fd5b908301906080828603121561380057600080fd5b613808613410565b82358281111561381757600080fd5b6138238782860161352f565b82525060208301358281111561383857600080fd5b6138448782860161352f565b60208301525060408301358281111561385c57600080fd5b6138688782860161352f565b60408301525060608381013590820152835261388660208501613561565b602084015261389760408501612f7e565b604084015260608401359150808211156138b057600080fd5b506138bd8482850161368d565b60608301525092915050565b803560ff81168114612f8957600080fd5b600082601f8301126138eb57600080fd5b813560206138fb6134ff8361356c565b82815260059290921b8401810191818101908684111561391a57600080fd5b8286015b848110156137ae5780356001600160401b038082111561393d57600080fd5b908801906040828b03601f190181131561395657600080fd5b61395e613432565b8784013561396b81612f66565b8152838201358381111561397e57600080fd5b8085019450508b603f85011261399357600080fd5b8784013592506139a56134ff8461356c565b83815260609093028401820192888101908d8511156139c357600080fd5b948301945b84861015613a27576060868f0312156139e057600080fd5b6139e86133c6565b86356139f381612f66565b8152613a00878c016138c9565b8b82015284870135613a118161354f565b81860152825260609590950194908901906139c8565b828a015250865250505091830191830161391e565b803562ffffff81168114612f8957600080fd5b60006040808385031215613a6257600080fd5b613a6a613432565b91508235613a7781612f66565b82526020838101356001600160401b03811115613a9357600080fd5b8401601f81018613613aa457600080fd5b8035613ab26134ff8261356c565b81815260079190911b82018301908381019088831115613ad157600080fd5b928401925b82841015613b49576080848a031215613aef5760008081fd5b613af7613410565b8435613b0281612f66565b8152613b0f858701613a3c565b8682015286850135613b208161354f565b81880152606085810135613b338161354f565b9082015282526080939093019290840190613ad6565b808588015250505050505092915050565b6000613b686134ff8461356c565b8381529050602080820190600585901b840186811115613b8757600080fd5b845b81811015613cb45780356001600160401b0380821115613ba95760008081fd5b8188019150604080838c031215613bc05760008081fd5b613bc8613432565b8335613bd381612f66565b81528387013583811115613be75760008081fd5b8085019450508b601f850112613bff57600092508283fd5b83359250613c0f6134ff8461356c565b83815260079390931b8401870192878101908d851115613c2f5760008081fd5b948801945b84861015613c9f576080868f031215613c4d5760008081fd5b613c55613410565b8635613c6081612f66565b8152868a0135613c6f8161354f565b818b015286850135613c8081612f66565b8186015260608781013590820152825260809095019490880190613c34565b82890152508752505050928201928201613b89565b505050509392505050565b600060408284031215613cd157600080fd5b613cd9613432565b905081356001600160401b03811115613cf157600080fd5b8201601f81018413613d0257600080fd5b613d1184823560208401613b5a565b8252506020820135602082015292915050565b8015158114612f7b57600080fd5b8035612f8981613d24565b60006080808385031215613d5057600080fd5b613d58613410565b915082356001600160401b03811115613d7057600080fd5b8301601f81018513613d8157600080fd5b80356020613d916134ff8361356c565b8281526101809283028401820192828201919089851115613db157600080fd5b948301945b84861015613ea45780868b031215613dce5760008081fd5b613dd6613454565b613ddf876135a4565b8152613dec858801613561565b858201526040613dfd818901613561565b908201526060613e0e88820161365b565b90820152613e1d878901612f7e565b8189015260a0878101359082015260c0613e38818901613a3c565b9082015260e0613e49888201613d32565b90820152610100613e5b888201613d32565b90820152610120613e6d888201613d32565b90820152610140613e7f888201613d32565b90820152610160613e91888201613d32565b9082015283529485019491830191613db6565b50865250613eb3868201613561565b8186015250505050613ec7604083016138c9565b6040820152613ed860608301612f7e565b606082015292915050565b600060808284031215613ef557600080fd5b613efd613410565b90508135613f0a81613d24565b81526020820135613f1a81613d24565b60208201526040820135613f2d81613d24565b60408201526060820135613ed881613d24565b600060808284031215613f5257600080fd5b613f5a613410565b905081356001600160401b0380821115613f7357600080fd5b908301906101808286031215613f8857600080fd5b613f90613477565b823582811115613f9f57600080fd5b613fab8782860161352f565b825250602083013582811115613fc057600080fd5b613fcc8782860161352f565b602083015250613fde60408401612f7e565b6040820152606083013582811115613ff557600080fd5b6140018782860161352f565b60608301525061401360808401612f7e565b608082015260a08301358281111561402a57600080fd5b6140368782860161352f565b60a08301525060c08301358281111561404e57600080fd5b61405a87828601613d3d565b60c08301525061406c60e08401612f7e565b60e0820152610100915061408286838501613ee3565b8282015280845250505061409860208301613d32565b60208201526140a960408301613d32565b6040820152613ed860608301613d32565b600082601f8301126140cb57600080fd5b813560206140db6134ff8361356c565b82815260059290921b840181019181810190868411156140fa57600080fd5b8286015b848110156137ae5780356001600160401b038082111561411e5760008081fd5b908801906060828b03601f19018113156141385760008081fd5b6141406133c6565b8784013561414d81612f66565b81526040848101358983015291840135918383111561416c5760008081fd5b82850194508c603f86011261418357600093508384fd5b6141938d8a8701358388016134f1565b9082015286525050509183019183016140fe565b600080600080600080600080610100898b0312156141c457600080fd5b8835975060208901356001600160401b03808211156141e257600080fd5b6141ee8c838d016137b9565b985060408b013591508082111561420457600080fd5b6142108c838d016138da565b975060608b013591508082111561422657600080fd5b6142328c838d01613a4f565b965060808b013591508082111561424857600080fd5b6142548c838d01613cbf565b955060a08b013591508082111561426a57600080fd5b6142768c838d01613f40565b945060c08b013591508082111561428c57600080fd5b506142998b828c016140ba565b9250506142a860e08a0161365b565b90509295985092959890939650565b9182526001600160a01b0316602082015260400190565b6000602082840312156142e057600080fd5b81516112b981613d24565b6000808335601e1984360301811261430257600080fd5b8301803591506001600160401b0382111561431c57600080fd5b602001915036819003821315612fcf57600080fd5b60006020828403121561434357600080fd5b81356112b981612f66565b868152600060018060a01b03808816602084015286604084015280861660608401525083608083015260e060a0830152600060e08301526101008060c084015261439a81840185613106565b9998505050505050505050565b6000602082840312156143b957600080fd5b5051919050565b85815260018060a01b0385166020820152836040820152821515606082015260c06080820152600060c082015260e060a0820152600061440360e0830184613106565b979650505050505050565b600181811c9082168061442257607f821691505b60208210810361444257634e487b7160e01b600052602260045260246000fd5b50919050565b6000602080838503121561445b57600080fd5b82516001600160401b0381111561447157600080fd5b8301601f8101851361448257600080fd5b80516144906134ff8261356c565b81815260059190911b820183019083810190878311156144af57600080fd5b928401925b828410156144035783516144c781612f66565b825292840192908401906144b4565b634e487b7160e01b600052603260045260246000fd5b6000602082840312156144fe57600080fd5b81516112b981612f66565b805165ffffffffffff81168114612f8957600080fd5b8051612f898161354f565b8051612f898161366d565b8051612f8981612f66565b6000610120828403121561455357600080fd5b61455b613477565b61456483614509565b815261457260208401614509565b602082015261458360408401614509565b604082015261459460608401614509565b60608201526145a56080840161451f565b60808201526145b660a0840161452a565b60a08201526145c760c0840161451f565b60c08201526145d860e08401614535565b60e0820152610100928301519281019290925250919050565b80356145fc81612f66565b6001600160a01b0316825260ff614615602083016138c9565b16602083015260408101356146298161354f565b63ffffffff166040830152606090810135910152565b6000808335601e1984360301811261465657600080fd5b83016020810192503590506001600160401b0381111561467557600080fd5b803603821315612fcf57600080fd5b81835281816020850137506000828201602090810191909152601f909101601f19169091010190565b602081526146c6602082016146c184612f7e565b6130d5565b60006146d460208401612f7e565b6146e160408401826130d5565b506146f260608301604085016145f1565b60c083013560e083015261010060e084013581840152614713818501612f7e565b9050610120614724818501836130d5565b610140915080850135828501525061016081850135818501526147498186018661463f565b61018086810152925090506104c56101a085018383614684565b600080604080848603121561477757600080fd5b8351602080860151919450906001600160401b038082111561479857600080fd5b818701915087601f8301126147ac57600080fd5b81516147ba6134ff8261356c565b81815260059190911b8301840190848101908a8311156147d957600080fd5b8585015b8381101561489a578051858111156147f457600080fd5b86016060818e03601f1901121561480b5760008081fd5b6148136133c6565b8882015161482081612f66565b8152818a01518982015260608201518781111561483d5760008081fd5b8083019250508d603f8301126148535760008081fd5b888201516148636134ff826134ca565b8181528f8c8386010111156148785760008081fd5b614887828c83018e87016130e2565b828c0152508452509186019186016147dd565b50809750505050505050509250929050565b634e487b7160e01b600052601160045260246000fd5b808201808211156109c4576109c46148ac565b6001600160a01b03851681526060602082018190526000906148fa9083018587614684565b905082604083015295945050505050565b6000808335601e1984360301811261492257600080fd5b8301803591506001600160401b0382111561493c57600080fd5b6020019150600581901b3603821315612fcf57600080fd5b60006112b9368484613b5a565b606081526000614975606083018688614684565b602083820381850152601e198636030186351261499157600080fd5b8535860180356001600160401b03808211156149ac57600080fd5b8160051b360384840113156149c057600080fd5b604085526040850182815260608601905060608360051b8701018585016000605e19873603015b86821015614af757605f198a850301855280833512614a0557600080fd5b8783350189810135614a1681612f66565b6001600160a01b03908116865260408201359036839003603e19018212614a3c57600080fd5b6040928201928301928c013589811115614a5557600080fd5b8060071b3603841315614a6757600080fd5b6040888e01819052880181905260608801925060005b81811015614add57614a8f8535612f66565b8285351684528d850135614aa28161354f565b63ffffffff16848f01526040850135614aba81612f66565b831660408501526060858101359085015260809485019490930192600101614a7d565b505050958a019594505091880191600191909101906149e7565b505050858b013586880152809750505050505050506104c560408301846130d5565b818103818111156109c4576109c46148ac565b6001600160a01b03878116825286166020808301919091526040820186905260c06060830181905285519083018190526000918681019160e085019190845b81811015614b8757845184529382019392820192600101614b6b565b5050509415156080840152505090151560a090910152949350505050565b600082825180855260208086019550808260051b8401018186016000805b85811015614c6257868403601f19018a52825180516001600160a01b03908116865290860151604087870181905281518188018190529188019290916060919082890190875b81811015614c4a5786518051851684528c81015163ffffffff168d8501528681015185168785015285015185840152958b0195608090920191600101614c09565b50509d89019d97505050938601935050600101614bc3565b509198975050505050505050565b8381528260208201526060604082015260006104c56060830184614ba5565b634e487b7160e01b600052601260045260246000fd5b80516080808452815184820181905260009260a0916020918201918388019190865b82811015614d8457845180516001600160681b031685528281015163ffffffff908116848701526040808301519091169086015260608082015161ffff169086015287810151614d19898701826130d5565b50868101518588015260c08082015162ffffff169086015260e080820151151590860152610100808201511515908601526101208082015115159086015261014080820151151590860152610160908101511515908501529381019361018090930192600101614cc7565b508781015163ffffffff16908901525060408087015160ff16908801526060808701519450614db5908801856130d5565b9695505050505050565b82815260406020820152600082516101806040840152614de36101c0840182613106565b90506020840151603f1980858403016060860152614e018383613106565b925060408601519150614e1760808601836130d5565b60608601519150808584030160a0860152614e328383613106565b925060808601519150614e4860c08601836130d5565b60a08601519150808584030160e0860152614e638383613106565b925060c08601519150610100818685030181870152614e828484614ca5565b935060e08701519250614e996101208701846130d5565b860151805115156101408701526020810151151561016087015260408101511515610180870152606081015115156101a08701529150614ed69050565b50949350505050565b600060018060a01b03808516835260206040602085015260a0840182865116604086015266ffffffffffffff6020870151166060860152604086015192506060608086015280835180835260c087019150602085019450600092505b80831015614f5e57845160ff168252938301936001929092019190830190614f3b565b50979650505050505050565b601f821115610783576000816000526020600020601f850160051c81016020861015614f935750805b601f850160051c820191505b81811015614fb257828155600101614f9f565b505050505050565b81516001600160401b03811115614fd357614fd36133b0565b614fe781614fe1845461440e565b84614f6a565b602080601f83116001811461501c57600084156150045750858301515b600019600386901b1c1916600185901b178555614fb2565b600085815260208120601f198616915b8281101561504b5788860151825594840194600190910190840161502c565b50858210156150695787850151600019600388901b60f8161c191681555b5050505050600190811b01905550565b60408152600061508c6040830185613132565b905060018060a01b03831660208301529392505050565b805161ffff16825260208101516150c0602084018261ffff169052565b5060408101516150d8604084018263ffffffff169052565b5060608101516150ec606084018215159052565b506080810151615100608084018215159052565b5060a081015161511460a084018215159052565b5060c081015161512860c084018215159052565b5060e081015161513c60e084018215159052565b5061010081810151151590830152610120808201511515908301526101408082015115159083015261016080820151151590830152610180808201511515908301526101a0808201511515908301526101c0808201511515908301526101e08082015115159083015261020080820151151590830152610220808201516151c5828501826130d5565b50506102408181015161ffff811684830152610781565b600082825180855260208086019550808260051b8401018186016000805b85811015614c6257868403601f19018a52825180518552850151604086860181905281518187018190529187019160609081880190865b818110156152a25785518051151584528b81015163ffffffff168c8501528581015166ffffffffffffff1686850152848101516001600160a01b039081168686015260808083015165ffffffffffff169086015260a0918201511690840152948a019460c090920191600101615231565b50509c88019c9650505092850192506001016151fa565b60008151808452602080850194506020840160005b8381101561530457815180516001600160e01b0316885283015163ffffffff1683880152604090960195908201906001016152ce565b509495945050505050565b600082825180855260208086019550808260051b84010181860160005b848110156131a657858303601f19018952815180516001600160a01b03908116855285820151168585015260408082015160808287018190529190615373838801826152b9565b925050506060808301519250858203818701525061539181836152b9565b9a86019a945050509083019060010161532c565b600082825180855260208086019550808260051b84010181860160005b848110156131a657601f198684030189528151805165ffffffffffff1684528481015163ffffffff908116868601526040808301516001600160701b031690860152606080830151909116908501526080808201516103409190615428828801826130d5565b505060a08083015161543c828801826150a3565b505060c082015181610300870152615456828701826151dc565b91505060e08201519150848103610320860152615473818361530f565b9a86019a94505050908301906001016153c2565b600082825180855260208086019550808260051b8401018186016000805b85811015614c6257868403601f19018a52825180516001600160a01b03908116865290860151604087870181905281518188018190529188019290916060919082890190875b818110156155235786518051851684528c81015160ff168d85015286015163ffffffff1686840152958b0195918401916001016154eb565b50509d89019d975050509386019350506001016154a5565b6001600160a01b038516815260a06020820181905260009061555f90830186613106565b828103604084015261557181866153a5565b905082810360608401526155858185615487565b838103608090940193909352505060008152602001949350505050565b8381526080602082015260006155bb60808301856153a5565b82810360408401526155cd8185615487565b8381036060909401939093525050600081526020019392505050565b8481526080602082015260006156026080830186613106565b82810360408401526156148186613106565b91505082606083015295945050505050565b8381528260208201526060604082015260006104c560608301846151dc565b6001600160a01b038416815260606020820181905260009061566990830185613106565b9050826040830152949350505050565b600082825180855260208086019550808260051b8401018186016000805b85811015614c6257868403601f19018a528251805164ffffffffff1685528581015160e0878701819052815190870181905261010087019188019085905b80821015615723578251805163ffffffff1685528a8101516001600160681b03168b8601526040908101516001600160a01b03169085015260609093019291890191600191909101906156d5565b50505060408281015161ffff908116918801919091526060808401516001600160701b03169088015260808084015163ffffffff9081169189019190915260a0808501519091169088015260c0928301511691909501529884019891840191600101615697565b80516001600160a01b03908116835260208083015160408286018190528151868201819052600094919360609390919082019084890190875b8181101561580b5783518051871684528581015162ffffff16868501528881015163ffffffff9081168a860152908801511687840152928401926080909201916001016157c3565b50909998505050505050505050565b600081516040845261582f6040850182614ba5565b602093840151949093019390935250919050565b60e0815260008851608060e08401528051608061016085015261586a6101e0850182613106565b9050602082015161015f19808684030161018087015261588a8383613106565b92506040840151915080868403016101a0870152506158a98282613106565b606093909301516101c0860152505060208a015163ffffffff1661010084015260408a0151906158dd6101208501836130d5565b60608b015184820360df190161014086015291506158fb8183615679565b9150508281036020840152615910818a615487565b90508281036040840152615924818961578a565b90508281036060840152615938818861581a565b9050828103608084015261594c81876153a5565b905082810360a08401526159608186613106565b91505061597060c08301846130d5565b98975050505050505050565b61ffff828116828216039080821115615997576159976148ac565b5092915050565b6040815260006159b16040830185613106565b82810360208401526104c58185613106565b6001600160681b039290921682526001600160a01b0316602082015260400190565b63ffffffff85168152608060208201526000615602608083018661310656fe598baf7bf150ca2f42be9e9f8f55e81d45f5715c3ff22bf46d697fabec7f31d6a26469706673582212202ed5cfb6f58de016ddd829a1871ea3eafab5dd34d511b4d09189462b269ad64e64736f6c63430008170033",
	"devdoc": {
		"kind": "dev",
		"methods": {
			"afterRedeemRecordedWith((address,uint256,uint256,uint256,(address,uint8,uint32,uint256),(address,uint8,uint32,uint256),uint256,address,bytes,bytes))": {
				"params": {
					"context": "The redemption context passed in by the terminal."
				}
			},
			"beforePayRecordedWith((address,address,(address,uint8,uint32,uint256),uint256,uint256,address,uint256,uint256,bytes))": {
				"details": "Part of IJBFundingCycleDataSource.This implementation just sets this contract up to receive a `didPay` call.",
				"params": {
					"context": "The Juicebox standard network payment context. See"
				},
				"returns": {
					"hookSpecifications": "Amount to be sent to pay hooks instead of adding to local balance. Useful for auto-routing funds from a treasury as payment come in.",
					"weight": "The weight that network tokens should get minted relative to. This is useful for optionally customizing how many tokens are issued per payment."
				}
			},
			"beforeRedeemRecordedWith((address,address,uint256,uint256,uint256,uint256,(address,uint8,uint32,uint256),bool,uint256,bytes))": {
				"details": "If a sucker is redeeming, there should be no tax imposed.Charge a fee on redemptions if there is a cash out tax.",
				"params": {
					"context": "The redemption context passed to this contract by the `redeemTokensOf(...)` function."
				},
				"returns": {
					"_0": "redemptionRate The redemption rate influencing the reclaim amount.",
					"_1": "redeemCount The amount of tokens that should be considered redeemed.",
					"_2": "totalSupply The total amount of tokens that are considered to be existing.",
					"hookSpecifications": "The amount and data to send to redeem hooks (this contract) instead of returning to the beneficiary."
				}
			},
			"constructor": {
				"params": {
					"controller": "The controller that revnets are made from.",
					"feeRevnetId": "The ID of the revnet that will receive fees.",
					"hookDeployer": "The 721 tiers hook deployer.",
					"suckerRegistry": "The registry that deploys and tracks each project's suckers."
				}
			},
			"deployFor(uint256,((string,string,string,bytes32),uint32,address,(uint40,(uint32,uint104,address)[],uint16,uint112,uint32,uint32,uint16)[]),(address,(address,uint8,uint32)[])[],(address,(address,uint24,uint32,uint32)[]),((address,(address,uint32,address,uint256)[])[],bytes32),((string,string,address,string,address,string,((uint104,uint32,uint32,uint16,address,bytes32,uint24,bool,bool,bool,bool,bool)[],uint32,uint8,address),address,(bool,bool,bool,bool)),bool,bool,bool),(address,uint256,bytes)[],uint16)": {
				"params": {
					"buybackHookConfiguration": "Data used for setting up the buyback hook to use when determining the best price for new participants.",
					"configuration": "The data needed to deploy a basic revnet.",
					"extraHookMetadata": "Extra metadata to attach to the cycle for the delegates to use.",
					"hookConfiguration": "Data used for setting up the 721 tiers.",
					"otherPayHooksSpecifications": "Any hooks that should run when the revnet is paid alongside the 721 hook.",
					"revnetId": "The ID of the Juicebox project to turn into a revnet. Send 0 to deploy a new revnet.",
					"suckerDeploymentConfiguration": "Information about how this revnet relates to other's across chains.",
					"terminalConfigurations": "The terminals that the network uses to accept payments through."
				},
				"returns": {
					"_0": "revnetId The ID of the newly created revnet.",
					"hook": "The address of the 721 hook that was deployed on the revnet."
				}
			},
			"deploySuckersFor(uint256,bytes,((address,(address,uint32,address,uint256)[])[],bytes32))": {
				"details": "Only the revnet's split operator can deploy new suckers.",
				"params": {
					"encodedConfiguration": "A bytes representation of the revnet's configuration.",
					"revnetId": "The ID of the revnet having new suckers deployed.",
					"suckerDeploymentConfiguration": "The specifics about the suckers being deployed."
				}
			},
			"hasMintPermissionFor(uint256,address)": {
				"params": {
					"addr": "The address to check if has permissions.",
					"revnetId": "The ID of the revnet to check permissions for."
				},
				"returns": {
					"_0": "flag The flag indicating if the address has permissions to mint on the revnet's behalf."
				}
			},
			"isSplitOperatorOf(uint256,address)": {
				"params": {
					"addr": "The address to check if is the split operator.",
					"revnetId": "The ID of the revnet to check the split operator for."
				},
				"returns": {
					"_0": "flag The flag indicating if the address is the split operator."
				}
			},
			"mintFor(uint256,uint256,address)": {
				"params": {
					"beneficiary": "The address to mint tokens to.",
					"revnetId": "The ID of the revnet to mint tokens from.",
					"stageId": "The ID of the stage to mint tokens from."
				}
			},
			"onERC721Received(address,address,uint256,bytes)": {
				"details": "Make sure only mints can be received."
			},
			"payHookSpecificationsOf(uint256)": {
				"params": {
					"revnetId": "The ID of the revnet to which the extensions apply."
				},
				"returns": {
					"_0": "payHookSpecifications The pay hooks."
				}
			},
			"replaceSplitOperatorOf(uint256,address)": {
				"details": "Only the revnet's split operator can replace itself.",
				"params": {
					"newSplitOperator": "The address of the new split operator.",
					"revnetId": "The ID of the revnet having its operator replaced."
				}
			},
			"supportsInterface(bytes4)": {
				"details": "See {IERC165-supportsInterface}.",
				"returns": {
					"_0": "A flag indicating if the provided interface ID is supported."
				}
			}
		},
		"version": 1
	},
	"userdoc": {
		"kind": "user",
		"methods": {
			"CASH_OUT_DELAY()": {
				"notice": "The amount of time from a sucker being deployed to when it can facilitate cashing out."
			},
			"CONTROLLER()": {
				"notice": "The controller that networks are made from."
			},
			"FEE()": {
				"notice": "Revnets' fee (as a fraction out of `JBConstants.MAX_FEE`)."
			},
			"FEE_REVNET_ID()": {
				"notice": "The ID of the revnet that will receive fees."
			},
			"HOOK_DEPLOYER()": {
				"notice": "The contract responsible for deploying the tiered 721 hook."
			},
			"SUCKER_REGISTRY()": {
				"notice": "The registry that deploys and tracks each project's suckers."
			},
			"afterRedeemRecordedWith((address,uint256,uint256,uint256,(address,uint8,uint32,uint256),(address,uint8,uint32,uint256),uint256,address,bytes,bytes))": {
				"notice": "Processes the fee for the redemption."
			},
			"allowedMintCountOf(uint256,uint256,address)": {
				"notice": "The specification of how many tokens are still allowed to be minted at each stage of a revnet."
			},
			"beforePayRecordedWith((address,address,(address,uint8,uint32,uint256),uint256,uint256,address,uint256,uint256,bytes))": {
				"notice": "This function gets called when the revnet receives a payment."
			},
			"beforeRedeemRecordedWith((address,address,uint256,uint256,uint256,uint256,(address,uint8,uint32,uint256),bool,uint256,bytes))": {
				"notice": "Determines how much to redeem."
			},
			"buybackHookOf(uint256)": {
				"notice": "The data hook that returns the correct values for the buyback hook of each network."
			},
			"cashOutDelayOf(uint256)": {
				"notice": "The time at which cashing out from a revnet become allowed."
			},
			"deployFor(uint256,((string,string,string,bytes32),uint32,address,(uint40,(uint32,uint104,address)[],uint16,uint112,uint32,uint32,uint16)[]),(address,(address,uint8,uint32)[])[],(address,(address,uint24,uint32,uint32)[]),((address,(address,uint32,address,uint256)[])[],bytes32),((string,string,address,string,address,string,((uint104,uint32,uint32,uint16,address,bytes32,uint24,bool,bool,bool,bool,bool)[],uint32,uint8,address),address,(bool,bool,bool,bool)),bool,bool,bool),(address,uint256,bytes)[],uint16)": {
				"notice": "Launch a revnet that supports 721 sales."
			},
			"deploySuckersFor(uint256,bytes,((address,(address,uint32,address,uint256)[])[],bytes32))": {
				"notice": "Allow the split operatAllows a revnet's split operator to deploy new suckers to the revnet after it's deployed."
			},
			"hasMintPermissionFor(uint256,address)": {
				"notice": "Required by the IJBRulesetDataHook interfaces."
			},
			"isSplitOperatorOf(uint256,address)": {
				"notice": "A flag indicating if a given address is the revnets split operator."
			},
			"mintFor(uint256,uint256,address)": {
				"notice": "Mint tokens from a revnet to a specified beneficiary according to the rules set for the revnet."
			},
			"payHookSpecificationsOf(uint256)": {
				"notice": "The pay hooks to include during payments to networks."
			},
			"replaceSplitOperatorOf(uint256,address)": {
				"notice": "A revnet's operator can replace itself."
			},
			"supportsInterface(bytes4)": {
				"notice": "Indicates if this contract adheres to the specified interface."
			}
		},
		"version": 1
	},
	"gitCommit": "4bad482c3bc194837e4de5496e688a75ad75cf4a",
	"sourceName": "src/REVTiered721HookDeployer.sol",
	"chainId": "84532",
	"linkReferences": {},
	"deployedLinkReferences": {},
	"history": []
}