{
  "abi": [
    {
      "inputs": [
        {
          "internalType": "contract IJBController3_1",
          "name": "_controller",
          "type": "address"
        },
        {
          "internalType": "contract IJBPayoutRedemptionPaymentTerminal3_1_1",
          "name": "_terminal",
          "type": "address"
        }
      ],
      "stateMutability": "nonpayable",
      "type": "constructor"
    },
    {
      "inputs": [],
      "name": "RECONFIGURATION_ALREADY_SCHEDULED",
      "type": "error"
    },
    {
      "inputs": [],
      "name": "controller",
      "outputs": [
        {
          "internalType": "contract IJBController3_1",
          "name": "",
          "type": "address"
        }
      ],
      "stateMutability": "view",
      "type": "function"
    },
    {
      "inputs": [
        {
          "internalType": "address",
          "name": "_operator",
          "type": "address"
        },
        {
          "components": [
            {
              "internalType": "string",
              "name": "content",
              "type": "string"
            },
            {
              "internalType": "uint256",
              "name": "domain",
              "type": "uint256"
            }
          ],
          "internalType": "struct JBProjectMetadata",
          "name": "_projectMetadata",
          "type": "tuple"
        },
        {
          "internalType": "string",
          "name": "_name",
          "type": "string"
        },
        {
          "internalType": "string",
          "name": "_symbol",
          "type": "string"
        },
        {
          "components": [
            {
              "internalType": "uint256",
              "name": "initialIssuanceRate",
              "type": "uint256"
            },
            {
              "internalType": "uint256",
              "name": "premintTokenAmount",
              "type": "uint256"
            },
            {
              "internalType": "uint256",
              "name": "discountRate",
              "type": "uint256"
            },
            {
              "internalType": "uint256",
              "name": "discountPeriod",
              "type": "uint256"
            },
            {
              "internalType": "uint256",
              "name": "redemptionRate",
              "type": "uint256"
            },
            {
              "internalType": "uint256",
              "name": "reservedRate",
              "type": "uint256"
            },
            {
              "internalType": "uint48",
              "name": "reservedRateDuration",
              "type": "uint48"
            }
          ],
          "internalType": "struct BasicRetailistDeployParams",
          "name": "_data",
          "type": "tuple"
        }
      ],
      "name": "deployProjectFor",
      "outputs": [
        {
          "internalType": "uint256",
          "name": "projectId",
          "type": "uint256"
        }
      ],
      "stateMutability": "nonpayable",
      "type": "function"
    },
    {
      "inputs": [
        {
          "internalType": "address",
          "name": "_operator",
          "type": "address"
        },
        {
          "internalType": "address",
          "name": "_from",
          "type": "address"
        },
        {
          "internalType": "uint256",
          "name": "_tokenId",
          "type": "uint256"
        },
        {
          "internalType": "bytes",
          "name": "_data",
          "type": "bytes"
        }
      ],
      "name": "onERC721Received",
      "outputs": [
        {
          "internalType": "bytes4",
          "name": "",
          "type": "bytes4"
        }
      ],
      "stateMutability": "view",
      "type": "function"
    },
    {
      "inputs": [
        {
          "internalType": "uint256",
          "name": "",
          "type": "uint256"
        }
      ],
      "name": "permissionIndexes",
      "outputs": [
        {
          "internalType": "uint256",
          "name": "",
          "type": "uint256"
        }
      ],
      "stateMutability": "view",
      "type": "function"
    },
    {
      "inputs": [
        {
          "internalType": "uint256",
          "name": "projectId",
          "type": "uint256"
        }
      ],
      "name": "reconfigurationStartTimestampOf",
      "outputs": [
        {
          "internalType": "uint256",
          "name": "",
          "type": "uint256"
        }
      ],
      "stateMutability": "view",
      "type": "function"
    },
    {
      "inputs": [
        {
          "internalType": "uint256",
          "name": "_projectId",
          "type": "uint256"
        }
      ],
      "name": "scheduleReconfigurationOf",
      "outputs": [],
      "stateMutability": "nonpayable",
      "type": "function"
    },
    {
      "inputs": [
        {
          "internalType": "uint256",
          "name": "",
          "type": "uint256"
        }
      ],
      "name": "terminals",
      "outputs": [
        {
          "internalType": "contract IJBPaymentTerminal",
          "name": "",
          "type": "address"
        }
      ],
      "stateMutability": "view",
      "type": "function"
    }
  ],
  "bytecode": {
    "object": "0x60a06040523480156200001157600080fd5b5060405162001e9038038062001e908339810160408190526200003491620000d7565b6001600160a01b0391821660805260008054600180820183557f290decd9548b62a8d60345a988386fc84ba6bc95484008f6362f93160ef3e56390910180546001600160a01b031916939094169290921790925580548082018255915260127fb10e2d527612073b26eecdfd717e6a320cf44b4afac2b0732d9fcbe2b7fa0cf69091015562000116565b6001600160a01b0381168114620000d457600080fd5b50565b60008060408385031215620000eb57600080fd5b8251620000f881620000be565b60208401519092506200010b81620000be565b809150509250929050565b608051611d2d6200016360003960008181610171015281816101ce01528181610327015281816104b9015281816107a9015281816109c501528181610aed0152610baf0152611d2d6000f3fe608060405234801561001057600080fd5b506004361061007d5760003560e01c8063560f7b031161005b578063560f7b031461011857806379925560146101465780639483e77114610159578063f77c47911461016c57600080fd5b80630219758e14610082578063150b7a02146100bf5780633ce6d3e214610103575b600080fd5b610095610090366004610df3565b610193565b60405173ffffffffffffffffffffffffffffffffffffffff90911681526020015b60405180910390f35b6100d26100cd366004610e7a565b6101ca565b6040517fffffffff0000000000000000000000000000000000000000000000000000000090911681526020016100b6565b610116610111366004610df3565b6102de565b005b610138610126366004610df3565b60026020526000908152604090205481565b6040519081526020016100b6565b610138610154366004610eed565b610623565b610138610167366004610df3565b610dd2565b6100957f000000000000000000000000000000000000000000000000000000000000000081565b600081815481106101a357600080fd5b60009182526020909120015473ffffffffffffffffffffffffffffffffffffffff16905081565b60007f000000000000000000000000000000000000000000000000000000000000000073ffffffffffffffffffffffffffffffffffffffff16638b79543c6040518163ffffffff1660e01b8152600401602060405180830381865afa158015610237573d6000803e3d6000fd5b505050506040513d601f19601f8201168201806040525081019061025b9190610fd7565b73ffffffffffffffffffffffffffffffffffffffff163373ffffffffffffffffffffffffffffffffffffffff161461029257600080fd5b73ffffffffffffffffffffffffffffffffffffffff8516156102b357600080fd5b507f150b7a020000000000000000000000000000000000000000000000000000000095945050505050565b6040517f1f51045300000000000000000000000000000000000000000000000000000000815260048101829052600090819073ffffffffffffffffffffffffffffffffffffffff7f00000000000000000000000000000000000000000000000000000000000000001690631f510453906024016103c060405180830381865afa15801561036f573d6000803e3d6000fd5b505050506040513d601f19601f8201168201806040525081019061039391906112a9565b50815191935091506001146103d4576040517fc97554fa00000000000000000000000000000000000000000000000000000000815260040160405180910390fd5b60408051608080820183528481015182526000602080840182905260c08088015185870152606080860184905286516102a0810188526102408101858152610260820186905261028082018690528152808401859052888801518189015290810184905293840183905260a08401839052830182905260e08301829052610100830182905261012083018290526101408301829052610160830182905261018083018290526101a083018290526101c083018290526101e0830182905261020083018290526102208301829052878252600281528482205485518381529182019095527f000000000000000000000000000000000000000000000000000000000000000073ffffffffffffffffffffffffffffffffffffffff169463badbdf289489949093909290610529565b6040805180820190915260008152606060208201528152602001906001900390816105015790505b5060408051600080825260208201909252906105b8565b6105a56040518060c00160405280600073ffffffffffffffffffffffffffffffffffffffff168152602001600073ffffffffffffffffffffffffffffffffffffffff168152602001600081526020016000815260200160008152602001600081525090565b8152602001906001900390816105405790505b506040518763ffffffff1660e01b81526004016105da96959493929190611647565b6020604051808303816000875af11580156105f9573d6000803e3d6000fd5b505050506040513d601f19601f8201168201806040525081019061061d919061173b565b50505050565b604080516001808252818301909252600091829190816020015b60408051808201909152600081526060602082015281526020019060019003908161063d57505060408051600180825281830190925291925060009190602082015b6040805160e08101825260008082526020808301829052928201819052606082018190526080820181905260a0820181905260c082015282527fffffffffffffffffffffffffffffffffffffffffffffffffffffffffffffffff90920191018161067f5790505090506040518060e00160405280600015158152602001600015158152602001633b9aca008152602001600081526020018b73ffffffffffffffffffffffffffffffffffffffff16815260200160008152602001600073ffffffffffffffffffffffffffffffffffffffff168152508160018151811061076757610767611754565b6020026020010181905250604051806040016040528060028152602001828152508260008151811061079b5761079b611754565b6020026020010181905250507f000000000000000000000000000000000000000000000000000000000000000073ffffffffffffffffffffffffffffffffffffffff1663b3c52673308a6040518060800160405280886060013581526020016012896000013561080b91906118d4565b8152604089810135602080840191909152600092820183905281516102a081018352610240810184815261026082018590526102808201859052815260a0808d0135828401526080808e013583860152606083018690528201859052810184905260c0810184905260e08101849052600161010082015261012081018490526101408101849052610160810184905261018081018490526101a081018490526101c081018490526101e08101849052610200810184905261022081018490528251848152918201909252909190889082610958565b6109456040518060c00160405280600073ffffffffffffffffffffffffffffffffffffffff168152602001600073ffffffffffffffffffffffffffffffffffffffff168152602001600081526020016000815260200160008152602001600081525090565b8152602001906001900390816108e05790505b5060006040518963ffffffff1660e01b815260040161097e989796959493929190611977565b6020604051808303816000875af115801561099d573d6000803e3d6000fd5b505050506040513d601f19601f820116820180604052508101906109c1919061173b565b91507f000000000000000000000000000000000000000000000000000000000000000073ffffffffffffffffffffffffffffffffffffffff1663619306306040518163ffffffff1660e01b8152600401602060405180830381865afa158015610a2e573d6000803e3d6000fd5b505050506040513d601f19601f82011682018060405250810190610a529190610fd7565b73ffffffffffffffffffffffffffffffffffffffff1663a7f2a70b83898989896040518663ffffffff1660e01b8152600401610a92959493929190611afa565b6020604051808303816000875af1158015610ab1573d6000803e3d6000fd5b505050506040513d601f19601f82011682018060405250810190610ad59190610fd7565b5073ffffffffffffffffffffffffffffffffffffffff7f000000000000000000000000000000000000000000000000000000000000000016638ae9c07b83610b22601260208801356118d4565b8c8989604051602001610b36929190611b33565b6040516020818303038152906040526000806040518763ffffffff1660e01b8152600401610b6996959493929190611b90565b6020604051808303816000875af1158015610b88573d6000803e3d6000fd5b505050506040513d601f19601f82011682018060405250810190610bac919061173b565b507f000000000000000000000000000000000000000000000000000000000000000073ffffffffffffffffffffffffffffffffffffffff16632bdfe0046040518163ffffffff1660e01b8152600401602060405180830381865afa158015610c18573d6000803e3d6000fd5b505050506040513d601f19601f82011682018060405250810190610c3c9190610fd7565b73ffffffffffffffffffffffffffffffffffffffff1663ad007d636040518163ffffffff1660e01b8152600401602060405180830381865afa158015610c86573d6000803e3d6000fd5b505050506040513d601f19601f82011682018060405250810190610caa9190610fd7565b73ffffffffffffffffffffffffffffffffffffffff1663529cdd2e60405180606001604052808c73ffffffffffffffffffffffffffffffffffffffff1681526020018581526020016001805480602002602001604051908101604052809291908181526020018280548015610d3e57602002820191906000526020600020905b815481526020019060010190808311610d2a575b50505050508152506040518263ffffffff1660e01b8152600401610d629190611c40565b600060405180830381600087803b158015610d7c57600080fd5b505af1158015610d90573d6000803e3d6000fd5b50610da59250505060e0840160c08501611cbc565b610db79065ffffffffffff1642611ce4565b60008381526002602052604090205550979650505050505050565b60018181548110610de257600080fd5b600091825260209091200154905081565b600060208284031215610e0557600080fd5b5035919050565b73ffffffffffffffffffffffffffffffffffffffff81168114610e2e57600080fd5b50565b60008083601f840112610e4357600080fd5b50813567ffffffffffffffff811115610e5b57600080fd5b602083019150836020828501011115610e7357600080fd5b9250929050565b600080600080600060808688031215610e9257600080fd5b8535610e9d81610e0c565b94506020860135610ead81610e0c565b935060408601359250606086013567ffffffffffffffff811115610ed057600080fd5b610edc88828901610e31565b969995985093965092949392505050565b6000806000806000806000878903610160811215610f0a57600080fd5b8835610f1581610e0c565b9750602089013567ffffffffffffffff80821115610f3257600080fd5b908a01906040828d031215610f4657600080fd5b90975060408a01359080821115610f5c57600080fd5b610f688c838d01610e31565b909850965060608b0135915080821115610f8157600080fd5b50610f8e8b828c01610e31565b90955093505060e07fffffffffffffffffffffffffffffffffffffffffffffffffffffffffffffff8082011215610fc457600080fd5b5060808801905092959891949750929550565b600060208284031215610fe957600080fd5b8151610ff481610e0c565b9392505050565b604051610240810167ffffffffffffffff81118282101715611046577f4e487b7100000000000000000000000000000000000000000000000000000000600052604160045260246000fd5b60405290565b604051610120810167ffffffffffffffff81118282101715611046577f4e487b7100000000000000000000000000000000000000000000000000000000600052604160045260246000fd5b80516110a281610e0c565b919050565b805180151581146110a257600080fd5b6000606082840312156110c957600080fd5b6040516060810181811067ffffffffffffffff82111715611113577f4e487b7100000000000000000000000000000000000000000000000000000000600052604160045260246000fd5b604052905080611122836110a7565b8152611130602084016110a7565b6020820152611141604084016110a7565b60408201525092915050565b6000610280828403121561116057600080fd5b611168610ffb565b905061117483836110b7565b8152606082015160208201526080820151604082015260a082015160608201526111a060c083016110a7565b60808201526111b160e083016110a7565b60a08201526101006111c48184016110a7565b60c08301526101206111d78185016110a7565b60e08401526101406111ea8186016110a7565b8385015261016092506111fe8386016110a7565b8285015261018091506112128286016110a7565b908401526101a06112248582016110a7565b838501526101c092506112388386016110a7565b828501526101e0915061124c8286016110a7565b9084015261020061125e8582016110a7565b8385015261022092506112728386016110a7565b828501526112836102408601611097565b818501525050610260830151818301525092915050565b8051600381106110a257600080fd5b60008060008385036103c08112156112c057600080fd5b610120808212156112d057600080fd5b6112d861104c565b9150855182526020860151602083015260408601516040830152606086015160608301526080860151608083015260a086015160a083015260c086015160c083015261132660e08701611097565b60e08301526101008087015181840152508194506113468782880161114d565b935050506113576103a0850161129a565b90509250925092565b6113858282518051151582526020808201511515908301526040908101511515910152565b6020810151606083015260408101516080830152606081015160a083015260808101516113b660c084018215159052565b5060a081015180151560e08401525060c08101516101006113da8185018315159052565b60e083015191506101206113f18186018415159052565b908301519150610140906114088583018415159052565b830151915061016061141d8582018415159052565b908301519150610180906114348583018415159052565b83015191506101a06114498582018415159052565b9083015191506101c0906114608583018415159052565b83015191506101e06114758582018415159052565b9083015191506102009061148c8583018415159052565b83015191506102206114a18582018415159052565b9083015173ffffffffffffffffffffffffffffffffffffffff16610240850152909101516102609092019190915250565b600081518084526020808501808196508360051b810191508286016000805b868110156115b1578385038a52825180518652860151604087870181905281518188018190529188019160609081890190865b8181101561159a5785518051151584528c81015115158d8501528581015186850152848101518585015260808082015173ffffffffffffffffffffffffffffffffffffffff9081169186019190915260a0808301519086015260c0918201511690840152948b019460e090920191600101611524565b50509c89019c9750505092860192506001016114f1565b509298975050505050505050565b600081518084526020808501945080840160005b8381101561163c578151805173ffffffffffffffffffffffffffffffffffffffff908116895284820151168489015260408082015190890152606080820151908901526080808201519089015260a0908101519088015260c090960195908201906001016115d3565b509495945050505050565b60006103a0888352611693602084018980518252602081015160208301526040810151604083015273ffffffffffffffffffffffffffffffffffffffff60608201511660608301525050565b6116a060a0840188611360565b85610320840152806103408401526116ba818401866114d2565b90508281036103608401526116cf81856115bf565b838103610380909401939093525050603481527f5363686564756c6564207265736572766564207261746520657870697279206f60208201527f662052657461696c69737420747265617375727900000000000000000000000060408201526060019695505050505050565b60006020828403121561174d57600080fd5b5051919050565b7f4e487b7100000000000000000000000000000000000000000000000000000000600052603260045260246000fd5b7f4e487b7100000000000000000000000000000000000000000000000000000000600052601160045260246000fd5b600181815b8085111561180b57817fffffffffffffffffffffffffffffffffffffffffffffffffffffffffffffffff048211156117f1576117f1611783565b808516156117fe57918102915b93841c93908002906117b7565b509250929050565b600082611822575060016118ce565b8161182f575060006118ce565b8160018114611845576002811461184f5761186b565b60019150506118ce565b60ff84111561186057611860611783565b50506001821b6118ce565b5060208310610133831016604e8410600b841016171561188e575081810a6118ce565b61189883836117b2565b807fffffffffffffffffffffffffffffffffffffffffffffffffffffffffffffffff048211156118ca576118ca611783565b0290505b92915050565b6000610ff460ff841683611813565b8183528181602085013750600060208284010152600060207fffffffffffffffffffffffffffffffffffffffffffffffffffffffffffffffe0601f840116840101905092915050565b6000815480845260208085019450836000528060002060005b8381101561163c57815473ffffffffffffffffffffffffffffffffffffffff1687529582019560019182019101611945565b60006103e073ffffffffffffffffffffffffffffffffffffffff8b16835280602084015289357fffffffffffffffffffffffffffffffffffffffffffffffffffffffffffffffe18b36030181126119cd57600080fd5b8a0160208101903567ffffffffffffffff8111156119ea57600080fd5b8036038213156119f957600080fd5b604083860152611a0e610420860182846118e3565b9250505060208a0135610400840152611a61604084018a80518252602081015160208301526040810151604083015273ffffffffffffffffffffffffffffffffffffffff60608201511660608301525050565b611a6e60c0840189611360565b86610340840152828103610360840152611a8881876114d2565b9050828103610380840152611a9d81866115bf565b90508281036103a0840152611ab2818561192c565b8381036103c0850152601b81527f4465706c6f7965642052657461696c697374207472656173757279000000000060208201529050604081019b9a5050505050505050505050565b858152606060208201526000611b146060830186886118e3565b8281036040840152611b278185876118e3565b98975050505050505050565b7f5072656d696e746564200000000000000000000000000000000000000000000081528183600a8301377f20746f6b656e732e0000000000000000000000000000000000000000000000009101600a810191909152601201919050565b86815260006020878184015273ffffffffffffffffffffffffffffffffffffffff8716604084015260c0606084015285518060c085015260005b81811015611be65787810183015185820160e001528201611bca565b50600060e0828601015260e07fffffffffffffffffffffffffffffffffffffffffffffffffffffffffffffffe0601f83011685010192505050611c2d608083018515159052565b82151560a0830152979650505050505050565b600060208083526080830173ffffffffffffffffffffffffffffffffffffffff85511682850152818501516040850152604085015160608086015281815180845260a0870191508483019350600092505b80831015611cb15783518252928401926001929092019190840190611c91565b509695505050505050565b600060208284031215611cce57600080fd5b813565ffffffffffff81168114610ff457600080fd5b808201808211156118ce576118ce61178356fea264697066735822122000514320ffc671c96d8d787a4a661b155d99bdd6a6159317e433e36f904a9e8364736f6c63430008140033",
    "linkReferences": {}
  },
  "methodIdentifiers": {
    "controller()": "f77c4791",
    "deployProjectFor(address,(string,uint256),string,string,(uint256,uint256,uint256,uint256,uint256,uint256,uint48))": "79925560",
    "onERC721Received(address,address,uint256,bytes)": "150b7a02",
    "permissionIndexes(uint256)": "9483e771",
    "reconfigurationStartTimestampOf(uint256)": "560f7b03",
    "scheduleReconfigurationOf(uint256)": "3ce6d3e2",
    "terminals(uint256)": "0219758e"
  },
  "id": 64
}