{
	"_format": "sphinx-sol-ct-artifact-1",
	"merkleRoot": "0x7b6bbddfc3e0fff316ddb1d668a0e3daef8f8c944b04cad19b0e8001735110d3",
	"contractName": "REVDeployer",
	"address": "0xA3bD067C7D76Cc2620783aFebD40e3bBE496783D",
	"abi": [
		{
			"type": "constructor",
			"inputs": [
				{
					"name": "controller",
					"type": "address",
					"internalType": "contract IJBController"
				},
				{
					"name": "suckerRegistry",
					"type": "address",
					"internalType": "contract IJBSuckerRegistry"
				},
				{
					"name": "feeRevnetId",
					"type": "uint256",
					"internalType": "uint256"
				},
				{
					"name": "hookDeployer",
					"type": "address",
					"internalType": "contract IJB721TiersHookDeployer"
				},
				{
					"name": "publisher",
					"type": "address",
					"internalType": "contract CTPublisher"
				},
				{
					"name": "trustedForwarder",
					"type": "address",
					"internalType": "address"
				}
			],
			"stateMutability": "nonpayable"
		},
		{
			"type": "function",
			"name": "CASH_OUT_DELAY",
			"inputs": [],
			"outputs": [
				{
					"name": "",
					"type": "uint256",
					"internalType": "uint256"
				}
			],
			"stateMutability": "view"
		},
		{
			"type": "function",
			"name": "CONTROLLER",
			"inputs": [],
			"outputs": [
				{
					"name": "",
					"type": "address",
					"internalType": "contract IJBController"
				}
			],
			"stateMutability": "view"
		},
		{
			"type": "function",
			"name": "DIRECTORY",
			"inputs": [],
			"outputs": [
				{
					"name": "",
					"type": "address",
					"internalType": "contract IJBDirectory"
				}
			],
			"stateMutability": "view"
		},
		{
			"type": "function",
			"name": "FEE",
			"inputs": [],
			"outputs": [
				{
					"name": "",
					"type": "uint256",
					"internalType": "uint256"
				}
			],
			"stateMutability": "view"
		},
		{
			"type": "function",
			"name": "FEE_REVNET_ID",
			"inputs": [],
			"outputs": [
				{
					"name": "",
					"type": "uint256",
					"internalType": "uint256"
				}
			],
			"stateMutability": "view"
		},
		{
			"type": "function",
			"name": "HOOK_DEPLOYER",
			"inputs": [],
			"outputs": [
				{
					"name": "",
					"type": "address",
					"internalType": "contract IJB721TiersHookDeployer"
				}
			],
			"stateMutability": "view"
		},
		{
			"type": "function",
			"name": "PERMISSIONS",
			"inputs": [],
			"outputs": [
				{
					"name": "",
					"type": "address",
					"internalType": "contract IJBPermissions"
				}
			],
			"stateMutability": "view"
		},
		{
			"type": "function",
			"name": "PROJECTS",
			"inputs": [],
			"outputs": [
				{
					"name": "",
					"type": "address",
					"internalType": "contract IJBProjects"
				}
			],
			"stateMutability": "view"
		},
		{
			"type": "function",
			"name": "PUBLISHER",
			"inputs": [],
			"outputs": [
				{
					"name": "",
					"type": "address",
					"internalType": "contract CTPublisher"
				}
			],
			"stateMutability": "view"
		},
		{
			"type": "function",
			"name": "SUCKER_REGISTRY",
			"inputs": [],
			"outputs": [
				{
					"name": "",
					"type": "address",
					"internalType": "contract IJBSuckerRegistry"
				}
			],
			"stateMutability": "view"
		},
		{
			"type": "function",
			"name": "afterCashOutRecordedWith",
			"inputs": [
				{
					"name": "context",
					"type": "tuple",
					"internalType": "struct JBAfterCashOutRecordedContext",
					"components": [
						{
							"name": "holder",
							"type": "address",
							"internalType": "address"
						},
						{
							"name": "projectId",
							"type": "uint256",
							"internalType": "uint256"
						},
						{
							"name": "rulesetId",
							"type": "uint256",
							"internalType": "uint256"
						},
						{
							"name": "cashOutCount",
							"type": "uint256",
							"internalType": "uint256"
						},
						{
							"name": "reclaimedAmount",
							"type": "tuple",
							"internalType": "struct JBTokenAmount",
							"components": [
								{
									"name": "token",
									"type": "address",
									"internalType": "address"
								},
								{
									"name": "decimals",
									"type": "uint8",
									"internalType": "uint8"
								},
								{
									"name": "currency",
									"type": "uint32",
									"internalType": "uint32"
								},
								{
									"name": "value",
									"type": "uint256",
									"internalType": "uint256"
								}
							]
						},
						{
							"name": "forwardedAmount",
							"type": "tuple",
							"internalType": "struct JBTokenAmount",
							"components": [
								{
									"name": "token",
									"type": "address",
									"internalType": "address"
								},
								{
									"name": "decimals",
									"type": "uint8",
									"internalType": "uint8"
								},
								{
									"name": "currency",
									"type": "uint32",
									"internalType": "uint32"
								},
								{
									"name": "value",
									"type": "uint256",
									"internalType": "uint256"
								}
							]
						},
						{
							"name": "cashOutTaxRate",
							"type": "uint256",
							"internalType": "uint256"
						},
						{
							"name": "beneficiary",
							"type": "address",
							"internalType": "address payable"
						},
						{
							"name": "hookMetadata",
							"type": "bytes",
							"internalType": "bytes"
						},
						{
							"name": "cashOutMetadata",
							"type": "bytes",
							"internalType": "bytes"
						}
					]
				}
			],
			"outputs": [],
			"stateMutability": "payable"
		},
		{
			"type": "function",
			"name": "allowsDeployingSuckersInCurrentRulesetOf",
			"inputs": [
				{
					"name": "revnetId",
					"type": "uint256",
					"internalType": "uint256"
				}
			],
			"outputs": [
				{
					"name": "",
					"type": "bool",
					"internalType": "bool"
				}
			],
			"stateMutability": "view"
		},
		{
			"type": "function",
			"name": "amountToAutoIssue",
			"inputs": [
				{
					"name": "revnetId",
					"type": "uint256",
					"internalType": "uint256"
				},
				{
					"name": "stageId",
					"type": "uint256",
					"internalType": "uint256"
				},
				{
					"name": "beneficiary",
					"type": "address",
					"internalType": "address"
				}
			],
			"outputs": [
				{
					"name": "",
					"type": "uint256",
					"internalType": "uint256"
				}
			],
			"stateMutability": "view"
		},
		{
			"type": "function",
			"name": "autoIssueFor",
			"inputs": [
				{
					"name": "revnetId",
					"type": "uint256",
					"internalType": "uint256"
				},
				{
					"name": "stageId",
					"type": "uint256",
					"internalType": "uint256"
				},
				{
					"name": "beneficiary",
					"type": "address",
					"internalType": "address"
				}
			],
			"outputs": [],
			"stateMutability": "nonpayable"
		},
		{
			"type": "function",
			"name": "beforeCashOutRecordedWith",
			"inputs": [
				{
					"name": "context",
					"type": "tuple",
					"internalType": "struct JBBeforeCashOutRecordedContext",
					"components": [
						{
							"name": "terminal",
							"type": "address",
							"internalType": "address"
						},
						{
							"name": "holder",
							"type": "address",
							"internalType": "address"
						},
						{
							"name": "projectId",
							"type": "uint256",
							"internalType": "uint256"
						},
						{
							"name": "rulesetId",
							"type": "uint256",
							"internalType": "uint256"
						},
						{
							"name": "cashOutCount",
							"type": "uint256",
							"internalType": "uint256"
						},
						{
							"name": "totalSupply",
							"type": "uint256",
							"internalType": "uint256"
						},
						{
							"name": "surplus",
							"type": "tuple",
							"internalType": "struct JBTokenAmount",
							"components": [
								{
									"name": "token",
									"type": "address",
									"internalType": "address"
								},
								{
									"name": "decimals",
									"type": "uint8",
									"internalType": "uint8"
								},
								{
									"name": "currency",
									"type": "uint32",
									"internalType": "uint32"
								},
								{
									"name": "value",
									"type": "uint256",
									"internalType": "uint256"
								}
							]
						},
						{
							"name": "useTotalSurplus",
							"type": "bool",
							"internalType": "bool"
						},
						{
							"name": "cashOutTaxRate",
							"type": "uint256",
							"internalType": "uint256"
						},
						{
							"name": "metadata",
							"type": "bytes",
							"internalType": "bytes"
						}
					]
				}
			],
			"outputs": [
				{
					"name": "cashOutTaxRate",
					"type": "uint256",
					"internalType": "uint256"
				},
				{
					"name": "cashOutCount",
					"type": "uint256",
					"internalType": "uint256"
				},
				{
					"name": "totalSupply",
					"type": "uint256",
					"internalType": "uint256"
				},
				{
					"name": "hookSpecifications",
					"type": "tuple[]",
					"internalType": "struct JBCashOutHookSpecification[]",
					"components": [
						{
							"name": "hook",
							"type": "address",
							"internalType": "contract IJBCashOutHook"
						},
						{
							"name": "amount",
							"type": "uint256",
							"internalType": "uint256"
						},
						{
							"name": "metadata",
							"type": "bytes",
							"internalType": "bytes"
						}
					]
				}
			],
			"stateMutability": "view"
		},
		{
			"type": "function",
			"name": "beforePayRecordedWith",
			"inputs": [
				{
					"name": "context",
					"type": "tuple",
					"internalType": "struct JBBeforePayRecordedContext",
					"components": [
						{
							"name": "terminal",
							"type": "address",
							"internalType": "address"
						},
						{
							"name": "payer",
							"type": "address",
							"internalType": "address"
						},
						{
							"name": "amount",
							"type": "tuple",
							"internalType": "struct JBTokenAmount",
							"components": [
								{
									"name": "token",
									"type": "address",
									"internalType": "address"
								},
								{
									"name": "decimals",
									"type": "uint8",
									"internalType": "uint8"
								},
								{
									"name": "currency",
									"type": "uint32",
									"internalType": "uint32"
								},
								{
									"name": "value",
									"type": "uint256",
									"internalType": "uint256"
								}
							]
						},
						{
							"name": "projectId",
							"type": "uint256",
							"internalType": "uint256"
						},
						{
							"name": "rulesetId",
							"type": "uint256",
							"internalType": "uint256"
						},
						{
							"name": "beneficiary",
							"type": "address",
							"internalType": "address"
						},
						{
							"name": "weight",
							"type": "uint256",
							"internalType": "uint256"
						},
						{
							"name": "reservedPercent",
							"type": "uint256",
							"internalType": "uint256"
						},
						{
							"name": "metadata",
							"type": "bytes",
							"internalType": "bytes"
						}
					]
				}
			],
			"outputs": [
				{
					"name": "weight",
					"type": "uint256",
					"internalType": "uint256"
				},
				{
					"name": "hookSpecifications",
					"type": "tuple[]",
					"internalType": "struct JBPayHookSpecification[]",
					"components": [
						{
							"name": "hook",
							"type": "address",
							"internalType": "contract IJBPayHook"
						},
						{
							"name": "amount",
							"type": "uint256",
							"internalType": "uint256"
						},
						{
							"name": "metadata",
							"type": "bytes",
							"internalType": "bytes"
						}
					]
				}
			],
			"stateMutability": "view"
		},
		{
			"type": "function",
			"name": "buybackHookOf",
			"inputs": [
				{
					"name": "revnetId",
					"type": "uint256",
					"internalType": "uint256"
				}
			],
			"outputs": [
				{
					"name": "buybackHook",
					"type": "address",
					"internalType": "contract IJBRulesetDataHook"
				}
			],
			"stateMutability": "view"
		},
		{
			"type": "function",
			"name": "cashOutDelayOf",
			"inputs": [
				{
					"name": "revnetId",
					"type": "uint256",
					"internalType": "uint256"
				}
			],
			"outputs": [
				{
					"name": "cashOutDelay",
					"type": "uint256",
					"internalType": "uint256"
				}
			],
			"stateMutability": "view"
		},
		{
			"type": "function",
			"name": "deployFor",
			"inputs": [
				{
					"name": "revnetId",
					"type": "uint256",
					"internalType": "uint256"
				},
				{
					"name": "configuration",
					"type": "tuple",
					"internalType": "struct REVConfig",
					"components": [
						{
							"name": "description",
							"type": "tuple",
							"internalType": "struct REVDescription",
							"components": [
								{
									"name": "name",
									"type": "string",
									"internalType": "string"
								},
								{
									"name": "ticker",
									"type": "string",
									"internalType": "string"
								},
								{
									"name": "uri",
									"type": "string",
									"internalType": "string"
								},
								{
									"name": "salt",
									"type": "bytes32",
									"internalType": "bytes32"
								}
							]
						},
						{
							"name": "baseCurrency",
							"type": "uint32",
							"internalType": "uint32"
						},
						{
							"name": "splitOperator",
							"type": "address",
							"internalType": "address"
						},
						{
							"name": "stageConfigurations",
							"type": "tuple[]",
							"internalType": "struct REVStageConfig[]",
							"components": [
								{
									"name": "startsAtOrAfter",
									"type": "uint40",
									"internalType": "uint40"
								},
								{
									"name": "autoIssuances",
									"type": "tuple[]",
									"internalType": "struct REVAutoIssuance[]",
									"components": [
										{
											"name": "chainId",
											"type": "uint32",
											"internalType": "uint32"
										},
										{
											"name": "count",
											"type": "uint104",
											"internalType": "uint104"
										},
										{
											"name": "beneficiary",
											"type": "address",
											"internalType": "address"
										}
									]
								},
								{
									"name": "splitPercent",
									"type": "uint16",
									"internalType": "uint16"
								},
								{
									"name": "initialIssuance",
									"type": "uint112",
									"internalType": "uint112"
								},
								{
									"name": "issuanceCutFrequency",
									"type": "uint32",
									"internalType": "uint32"
								},
								{
									"name": "issuanceCutPercent",
									"type": "uint32",
									"internalType": "uint32"
								},
								{
									"name": "cashOutTaxRate",
									"type": "uint16",
									"internalType": "uint16"
								},
								{
									"name": "extraMetadata",
									"type": "uint16",
									"internalType": "uint16"
								}
							]
						},
						{
							"name": "loanSources",
							"type": "tuple[]",
							"internalType": "struct REVLoanSource[]",
							"components": [
								{
									"name": "token",
									"type": "address",
									"internalType": "address"
								},
								{
									"name": "terminal",
									"type": "address",
									"internalType": "contract IJBPayoutTerminal"
								}
							]
						},
						{
							"name": "loans",
							"type": "address",
							"internalType": "address"
						}
					]
				},
				{
					"name": "terminalConfigurations",
					"type": "tuple[]",
					"internalType": "struct JBTerminalConfig[]",
					"components": [
						{
							"name": "terminal",
							"type": "address",
							"internalType": "contract IJBTerminal"
						},
						{
							"name": "accountingContextsToAccept",
							"type": "tuple[]",
							"internalType": "struct JBAccountingContext[]",
							"components": [
								{
									"name": "token",
									"type": "address",
									"internalType": "address"
								},
								{
									"name": "decimals",
									"type": "uint8",
									"internalType": "uint8"
								},
								{
									"name": "currency",
									"type": "uint32",
									"internalType": "uint32"
								}
							]
						}
					]
				},
				{
					"name": "buybackHookConfiguration",
					"type": "tuple",
					"internalType": "struct REVBuybackHookConfig",
					"components": [
						{
							"name": "hook",
							"type": "address",
							"internalType": "contract IJBBuybackHook"
						},
						{
							"name": "poolConfigurations",
							"type": "tuple[]",
							"internalType": "struct REVBuybackPoolConfig[]",
							"components": [
								{
									"name": "token",
									"type": "address",
									"internalType": "address"
								},
								{
									"name": "fee",
									"type": "uint24",
									"internalType": "uint24"
								},
								{
									"name": "twapWindow",
									"type": "uint32",
									"internalType": "uint32"
								},
								{
									"name": "twapSlippageTolerance",
									"type": "uint32",
									"internalType": "uint32"
								}
							]
						}
					]
				},
				{
					"name": "suckerDeploymentConfiguration",
					"type": "tuple",
					"internalType": "struct REVSuckerDeploymentConfig",
					"components": [
						{
							"name": "deployerConfigurations",
							"type": "tuple[]",
							"internalType": "struct JBSuckerDeployerConfig[]",
							"components": [
								{
									"name": "deployer",
									"type": "address",
									"internalType": "contract IJBSuckerDeployer"
								},
								{
									"name": "mappings",
									"type": "tuple[]",
									"internalType": "struct JBTokenMapping[]",
									"components": [
										{
											"name": "localToken",
											"type": "address",
											"internalType": "address"
										},
										{
											"name": "minGas",
											"type": "uint32",
											"internalType": "uint32"
										},
										{
											"name": "remoteToken",
											"type": "address",
											"internalType": "address"
										},
										{
											"name": "minBridgeAmount",
											"type": "uint256",
											"internalType": "uint256"
										}
									]
								}
							]
						},
						{
							"name": "salt",
							"type": "bytes32",
							"internalType": "bytes32"
						}
					]
				}
			],
			"outputs": [
				{
					"name": "",
					"type": "uint256",
					"internalType": "uint256"
				}
			],
			"stateMutability": "nonpayable"
		},
		{
			"type": "function",
			"name": "deploySuckersFor",
			"inputs": [
				{
					"name": "revnetId",
					"type": "uint256",
					"internalType": "uint256"
				},
				{
					"name": "encodedConfiguration",
					"type": "bytes",
					"internalType": "bytes"
				},
				{
					"name": "suckerDeploymentConfiguration",
					"type": "tuple",
					"internalType": "struct REVSuckerDeploymentConfig",
					"components": [
						{
							"name": "deployerConfigurations",
							"type": "tuple[]",
							"internalType": "struct JBSuckerDeployerConfig[]",
							"components": [
								{
									"name": "deployer",
									"type": "address",
									"internalType": "contract IJBSuckerDeployer"
								},
								{
									"name": "mappings",
									"type": "tuple[]",
									"internalType": "struct JBTokenMapping[]",
									"components": [
										{
											"name": "localToken",
											"type": "address",
											"internalType": "address"
										},
										{
											"name": "minGas",
											"type": "uint32",
											"internalType": "uint32"
										},
										{
											"name": "remoteToken",
											"type": "address",
											"internalType": "address"
										},
										{
											"name": "minBridgeAmount",
											"type": "uint256",
											"internalType": "uint256"
										}
									]
								}
							]
						},
						{
							"name": "salt",
							"type": "bytes32",
							"internalType": "bytes32"
						}
					]
				}
			],
			"outputs": [
				{
					"name": "suckers",
					"type": "address[]",
					"internalType": "address[]"
				}
			],
			"stateMutability": "nonpayable"
		},
		{
			"type": "function",
			"name": "deployWith721sFor",
			"inputs": [
				{
					"name": "revnetId",
					"type": "uint256",
					"internalType": "uint256"
				},
				{
					"name": "configuration",
					"type": "tuple",
					"internalType": "struct REVConfig",
					"components": [
						{
							"name": "description",
							"type": "tuple",
							"internalType": "struct REVDescription",
							"components": [
								{
									"name": "name",
									"type": "string",
									"internalType": "string"
								},
								{
									"name": "ticker",
									"type": "string",
									"internalType": "string"
								},
								{
									"name": "uri",
									"type": "string",
									"internalType": "string"
								},
								{
									"name": "salt",
									"type": "bytes32",
									"internalType": "bytes32"
								}
							]
						},
						{
							"name": "baseCurrency",
							"type": "uint32",
							"internalType": "uint32"
						},
						{
							"name": "splitOperator",
							"type": "address",
							"internalType": "address"
						},
						{
							"name": "stageConfigurations",
							"type": "tuple[]",
							"internalType": "struct REVStageConfig[]",
							"components": [
								{
									"name": "startsAtOrAfter",
									"type": "uint40",
									"internalType": "uint40"
								},
								{
									"name": "autoIssuances",
									"type": "tuple[]",
									"internalType": "struct REVAutoIssuance[]",
									"components": [
										{
											"name": "chainId",
											"type": "uint32",
											"internalType": "uint32"
										},
										{
											"name": "count",
											"type": "uint104",
											"internalType": "uint104"
										},
										{
											"name": "beneficiary",
											"type": "address",
											"internalType": "address"
										}
									]
								},
								{
									"name": "splitPercent",
									"type": "uint16",
									"internalType": "uint16"
								},
								{
									"name": "initialIssuance",
									"type": "uint112",
									"internalType": "uint112"
								},
								{
									"name": "issuanceCutFrequency",
									"type": "uint32",
									"internalType": "uint32"
								},
								{
									"name": "issuanceCutPercent",
									"type": "uint32",
									"internalType": "uint32"
								},
								{
									"name": "cashOutTaxRate",
									"type": "uint16",
									"internalType": "uint16"
								},
								{
									"name": "extraMetadata",
									"type": "uint16",
									"internalType": "uint16"
								}
							]
						},
						{
							"name": "loanSources",
							"type": "tuple[]",
							"internalType": "struct REVLoanSource[]",
							"components": [
								{
									"name": "token",
									"type": "address",
									"internalType": "address"
								},
								{
									"name": "terminal",
									"type": "address",
									"internalType": "contract IJBPayoutTerminal"
								}
							]
						},
						{
							"name": "loans",
							"type": "address",
							"internalType": "address"
						}
					]
				},
				{
					"name": "terminalConfigurations",
					"type": "tuple[]",
					"internalType": "struct JBTerminalConfig[]",
					"components": [
						{
							"name": "terminal",
							"type": "address",
							"internalType": "contract IJBTerminal"
						},
						{
							"name": "accountingContextsToAccept",
							"type": "tuple[]",
							"internalType": "struct JBAccountingContext[]",
							"components": [
								{
									"name": "token",
									"type": "address",
									"internalType": "address"
								},
								{
									"name": "decimals",
									"type": "uint8",
									"internalType": "uint8"
								},
								{
									"name": "currency",
									"type": "uint32",
									"internalType": "uint32"
								}
							]
						}
					]
				},
				{
					"name": "buybackHookConfiguration",
					"type": "tuple",
					"internalType": "struct REVBuybackHookConfig",
					"components": [
						{
							"name": "hook",
							"type": "address",
							"internalType": "contract IJBBuybackHook"
						},
						{
							"name": "poolConfigurations",
							"type": "tuple[]",
							"internalType": "struct REVBuybackPoolConfig[]",
							"components": [
								{
									"name": "token",
									"type": "address",
									"internalType": "address"
								},
								{
									"name": "fee",
									"type": "uint24",
									"internalType": "uint24"
								},
								{
									"name": "twapWindow",
									"type": "uint32",
									"internalType": "uint32"
								},
								{
									"name": "twapSlippageTolerance",
									"type": "uint32",
									"internalType": "uint32"
								}
							]
						}
					]
				},
				{
					"name": "suckerDeploymentConfiguration",
					"type": "tuple",
					"internalType": "struct REVSuckerDeploymentConfig",
					"components": [
						{
							"name": "deployerConfigurations",
							"type": "tuple[]",
							"internalType": "struct JBSuckerDeployerConfig[]",
							"components": [
								{
									"name": "deployer",
									"type": "address",
									"internalType": "contract IJBSuckerDeployer"
								},
								{
									"name": "mappings",
									"type": "tuple[]",
									"internalType": "struct JBTokenMapping[]",
									"components": [
										{
											"name": "localToken",
											"type": "address",
											"internalType": "address"
										},
										{
											"name": "minGas",
											"type": "uint32",
											"internalType": "uint32"
										},
										{
											"name": "remoteToken",
											"type": "address",
											"internalType": "address"
										},
										{
											"name": "minBridgeAmount",
											"type": "uint256",
											"internalType": "uint256"
										}
									]
								}
							]
						},
						{
							"name": "salt",
							"type": "bytes32",
							"internalType": "bytes32"
						}
					]
				},
				{
					"name": "tiered721HookConfiguration",
					"type": "tuple",
					"internalType": "struct REVDeploy721TiersHookConfig",
					"components": [
						{
							"name": "baseline721HookConfiguration",
							"type": "tuple",
							"internalType": "struct JBDeploy721TiersHookConfig",
							"components": [
								{
									"name": "name",
									"type": "string",
									"internalType": "string"
								},
								{
									"name": "symbol",
									"type": "string",
									"internalType": "string"
								},
								{
									"name": "baseUri",
									"type": "string",
									"internalType": "string"
								},
								{
									"name": "tokenUriResolver",
									"type": "address",
									"internalType": "contract IJB721TokenUriResolver"
								},
								{
									"name": "contractUri",
									"type": "string",
									"internalType": "string"
								},
								{
									"name": "tiersConfig",
									"type": "tuple",
									"internalType": "struct JB721InitTiersConfig",
									"components": [
										{
											"name": "tiers",
											"type": "tuple[]",
											"internalType": "struct JB721TierConfig[]",
											"components": [
												{
													"name": "price",
													"type": "uint104",
													"internalType": "uint104"
												},
												{
													"name": "initialSupply",
													"type": "uint32",
													"internalType": "uint32"
												},
												{
													"name": "votingUnits",
													"type": "uint32",
													"internalType": "uint32"
												},
												{
													"name": "reserveFrequency",
													"type": "uint16",
													"internalType": "uint16"
												},
												{
													"name": "reserveBeneficiary",
													"type": "address",
													"internalType": "address"
												},
												{
													"name": "encodedIPFSUri",
													"type": "bytes32",
													"internalType": "bytes32"
												},
												{
													"name": "category",
													"type": "uint24",
													"internalType": "uint24"
												},
												{
													"name": "discountPercent",
													"type": "uint8",
													"internalType": "uint8"
												},
												{
													"name": "allowOwnerMint",
													"type": "bool",
													"internalType": "bool"
												},
												{
													"name": "useReserveBeneficiaryAsDefault",
													"type": "bool",
													"internalType": "bool"
												},
												{
													"name": "transfersPausable",
													"type": "bool",
													"internalType": "bool"
												},
												{
													"name": "useVotingUnits",
													"type": "bool",
													"internalType": "bool"
												},
												{
													"name": "cannotBeRemoved",
													"type": "bool",
													"internalType": "bool"
												},
												{
													"name": "cannotIncreaseDiscountPercent",
													"type": "bool",
													"internalType": "bool"
												}
											]
										},
										{
											"name": "currency",
											"type": "uint32",
											"internalType": "uint32"
										},
										{
											"name": "decimals",
											"type": "uint8",
											"internalType": "uint8"
										},
										{
											"name": "prices",
											"type": "address",
											"internalType": "contract IJBPrices"
										}
									]
								},
								{
									"name": "reserveBeneficiary",
									"type": "address",
									"internalType": "address"
								},
								{
									"name": "flags",
									"type": "tuple",
									"internalType": "struct JB721TiersHookFlags",
									"components": [
										{
											"name": "noNewTiersWithReserves",
											"type": "bool",
											"internalType": "bool"
										},
										{
											"name": "noNewTiersWithVotes",
											"type": "bool",
											"internalType": "bool"
										},
										{
											"name": "noNewTiersWithOwnerMinting",
											"type": "bool",
											"internalType": "bool"
										},
										{
											"name": "preventOverspending",
											"type": "bool",
											"internalType": "bool"
										}
									]
								}
							]
						},
						{
							"name": "salt",
							"type": "bytes32",
							"internalType": "bytes32"
						},
						{
							"name": "splitOperatorCanAdjustTiers",
							"type": "bool",
							"internalType": "bool"
						},
						{
							"name": "splitOperatorCanUpdateMetadata",
							"type": "bool",
							"internalType": "bool"
						},
						{
							"name": "splitOperatorCanMint",
							"type": "bool",
							"internalType": "bool"
						},
						{
							"name": "splitOperatorCanIncreaseDiscountPercent",
							"type": "bool",
							"internalType": "bool"
						}
					]
				},
				{
					"name": "allowedPosts",
					"type": "tuple[]",
					"internalType": "struct REVCroptopAllowedPost[]",
					"components": [
						{
							"name": "category",
							"type": "uint24",
							"internalType": "uint24"
						},
						{
							"name": "minimumPrice",
							"type": "uint104",
							"internalType": "uint104"
						},
						{
							"name": "minimumTotalSupply",
							"type": "uint32",
							"internalType": "uint32"
						},
						{
							"name": "maximumTotalSupply",
							"type": "uint32",
							"internalType": "uint32"
						},
						{
							"name": "allowedAddresses",
							"type": "address[]",
							"internalType": "address[]"
						}
					]
				}
			],
			"outputs": [
				{
					"name": "",
					"type": "uint256",
					"internalType": "uint256"
				},
				{
					"name": "hook",
					"type": "address",
					"internalType": "contract IJB721TiersHook"
				}
			],
			"stateMutability": "nonpayable"
		},
		{
			"type": "function",
			"name": "hasMintPermissionFor",
			"inputs": [
				{
					"name": "revnetId",
					"type": "uint256",
					"internalType": "uint256"
				},
				{
					"name": "addr",
					"type": "address",
					"internalType": "address"
				}
			],
			"outputs": [
				{
					"name": "",
					"type": "bool",
					"internalType": "bool"
				}
			],
			"stateMutability": "view"
		},
		{
			"type": "function",
			"name": "isSplitOperatorOf",
			"inputs": [
				{
					"name": "revnetId",
					"type": "uint256",
					"internalType": "uint256"
				},
				{
					"name": "addr",
					"type": "address",
					"internalType": "address"
				}
			],
			"outputs": [
				{
					"name": "",
					"type": "bool",
					"internalType": "bool"
				}
			],
			"stateMutability": "view"
		},
		{
			"type": "function",
			"name": "isTrustedForwarder",
			"inputs": [
				{
					"name": "forwarder",
					"type": "address",
					"internalType": "address"
				}
			],
			"outputs": [
				{
					"name": "",
					"type": "bool",
					"internalType": "bool"
				}
			],
			"stateMutability": "view"
		},
		{
			"type": "function",
			"name": "loansOf",
			"inputs": [
				{
					"name": "revnetId",
					"type": "uint256",
					"internalType": "uint256"
				}
			],
			"outputs": [
				{
					"name": "",
					"type": "address",
					"internalType": "address"
				}
			],
			"stateMutability": "view"
		},
		{
			"type": "function",
			"name": "onERC721Received",
			"inputs": [
				{
					"name": "",
					"type": "address",
					"internalType": "address"
				},
				{
					"name": "",
					"type": "address",
					"internalType": "address"
				},
				{
					"name": "",
					"type": "uint256",
					"internalType": "uint256"
				},
				{
					"name": "",
					"type": "bytes",
					"internalType": "bytes"
				}
			],
			"outputs": [
				{
					"name": "",
					"type": "bytes4",
					"internalType": "bytes4"
				}
			],
			"stateMutability": "view"
		},
		{
			"type": "function",
			"name": "setSplitOperatorOf",
			"inputs": [
				{
					"name": "revnetId",
					"type": "uint256",
					"internalType": "uint256"
				},
				{
					"name": "newSplitOperator",
					"type": "address",
					"internalType": "address"
				}
			],
			"outputs": [],
			"stateMutability": "nonpayable"
		},
		{
			"type": "function",
			"name": "supportsInterface",
			"inputs": [
				{
					"name": "interfaceId",
					"type": "bytes4",
					"internalType": "bytes4"
				}
			],
			"outputs": [
				{
					"name": "",
					"type": "bool",
					"internalType": "bool"
				}
			],
			"stateMutability": "view"
		},
		{
			"type": "function",
			"name": "tiered721HookOf",
			"inputs": [
				{
					"name": "revnetId",
					"type": "uint256",
					"internalType": "uint256"
				}
			],
			"outputs": [
				{
					"name": "tiered721Hook",
					"type": "address",
					"internalType": "contract IJB721TiersHook"
				}
			],
			"stateMutability": "view"
		},
		{
			"type": "function",
			"name": "trustedForwarder",
			"inputs": [],
			"outputs": [
				{
					"name": "",
					"type": "address",
					"internalType": "address"
				}
			],
			"stateMutability": "view"
		},
		{
			"type": "function",
			"name": "unrealizedAutoIssuanceAmountOf",
			"inputs": [
				{
					"name": "revnetId",
					"type": "uint256",
					"internalType": "uint256"
				}
			],
			"outputs": [
				{
					"name": "",
					"type": "uint256",
					"internalType": "uint256"
				}
			],
			"stateMutability": "view"
		},
		{
			"type": "event",
			"name": "AutoIssue",
			"inputs": [
				{
					"name": "revnetId",
					"type": "uint256",
					"indexed": true,
					"internalType": "uint256"
				},
				{
					"name": "stageId",
					"type": "uint256",
					"indexed": true,
					"internalType": "uint256"
				},
				{
					"name": "beneficiary",
					"type": "address",
					"indexed": true,
					"internalType": "address"
				},
				{
					"name": "count",
					"type": "uint256",
					"indexed": false,
					"internalType": "uint256"
				},
				{
					"name": "caller",
					"type": "address",
					"indexed": false,
					"internalType": "address"
				}
			],
			"anonymous": false
		},
		{
			"type": "event",
			"name": "DeployRevnet",
			"inputs": [
				{
					"name": "revnetId",
					"type": "uint256",
					"indexed": true,
					"internalType": "uint256"
				},
				{
					"name": "configuration",
					"type": "tuple",
					"indexed": false,
					"internalType": "struct REVConfig",
					"components": [
						{
							"name": "description",
							"type": "tuple",
							"internalType": "struct REVDescription",
							"components": [
								{
									"name": "name",
									"type": "string",
									"internalType": "string"
								},
								{
									"name": "ticker",
									"type": "string",
									"internalType": "string"
								},
								{
									"name": "uri",
									"type": "string",
									"internalType": "string"
								},
								{
									"name": "salt",
									"type": "bytes32",
									"internalType": "bytes32"
								}
							]
						},
						{
							"name": "baseCurrency",
							"type": "uint32",
							"internalType": "uint32"
						},
						{
							"name": "splitOperator",
							"type": "address",
							"internalType": "address"
						},
						{
							"name": "stageConfigurations",
							"type": "tuple[]",
							"internalType": "struct REVStageConfig[]",
							"components": [
								{
									"name": "startsAtOrAfter",
									"type": "uint40",
									"internalType": "uint40"
								},
								{
									"name": "autoIssuances",
									"type": "tuple[]",
									"internalType": "struct REVAutoIssuance[]",
									"components": [
										{
											"name": "chainId",
											"type": "uint32",
											"internalType": "uint32"
										},
										{
											"name": "count",
											"type": "uint104",
											"internalType": "uint104"
										},
										{
											"name": "beneficiary",
											"type": "address",
											"internalType": "address"
										}
									]
								},
								{
									"name": "splitPercent",
									"type": "uint16",
									"internalType": "uint16"
								},
								{
									"name": "initialIssuance",
									"type": "uint112",
									"internalType": "uint112"
								},
								{
									"name": "issuanceCutFrequency",
									"type": "uint32",
									"internalType": "uint32"
								},
								{
									"name": "issuanceCutPercent",
									"type": "uint32",
									"internalType": "uint32"
								},
								{
									"name": "cashOutTaxRate",
									"type": "uint16",
									"internalType": "uint16"
								},
								{
									"name": "extraMetadata",
									"type": "uint16",
									"internalType": "uint16"
								}
							]
						},
						{
							"name": "loanSources",
							"type": "tuple[]",
							"internalType": "struct REVLoanSource[]",
							"components": [
								{
									"name": "token",
									"type": "address",
									"internalType": "address"
								},
								{
									"name": "terminal",
									"type": "address",
									"internalType": "contract IJBPayoutTerminal"
								}
							]
						},
						{
							"name": "loans",
							"type": "address",
							"internalType": "address"
						}
					]
				},
				{
					"name": "terminalConfigurations",
					"type": "tuple[]",
					"indexed": false,
					"internalType": "struct JBTerminalConfig[]",
					"components": [
						{
							"name": "terminal",
							"type": "address",
							"internalType": "contract IJBTerminal"
						},
						{
							"name": "accountingContextsToAccept",
							"type": "tuple[]",
							"internalType": "struct JBAccountingContext[]",
							"components": [
								{
									"name": "token",
									"type": "address",
									"internalType": "address"
								},
								{
									"name": "decimals",
									"type": "uint8",
									"internalType": "uint8"
								},
								{
									"name": "currency",
									"type": "uint32",
									"internalType": "uint32"
								}
							]
						}
					]
				},
				{
					"name": "buybackHookConfiguration",
					"type": "tuple",
					"indexed": false,
					"internalType": "struct REVBuybackHookConfig",
					"components": [
						{
							"name": "hook",
							"type": "address",
							"internalType": "contract IJBBuybackHook"
						},
						{
							"name": "poolConfigurations",
							"type": "tuple[]",
							"internalType": "struct REVBuybackPoolConfig[]",
							"components": [
								{
									"name": "token",
									"type": "address",
									"internalType": "address"
								},
								{
									"name": "fee",
									"type": "uint24",
									"internalType": "uint24"
								},
								{
									"name": "twapWindow",
									"type": "uint32",
									"internalType": "uint32"
								},
								{
									"name": "twapSlippageTolerance",
									"type": "uint32",
									"internalType": "uint32"
								}
							]
						}
					]
				},
				{
					"name": "suckerDeploymentConfiguration",
					"type": "tuple",
					"indexed": false,
					"internalType": "struct REVSuckerDeploymentConfig",
					"components": [
						{
							"name": "deployerConfigurations",
							"type": "tuple[]",
							"internalType": "struct JBSuckerDeployerConfig[]",
							"components": [
								{
									"name": "deployer",
									"type": "address",
									"internalType": "contract IJBSuckerDeployer"
								},
								{
									"name": "mappings",
									"type": "tuple[]",
									"internalType": "struct JBTokenMapping[]",
									"components": [
										{
											"name": "localToken",
											"type": "address",
											"internalType": "address"
										},
										{
											"name": "minGas",
											"type": "uint32",
											"internalType": "uint32"
										},
										{
											"name": "remoteToken",
											"type": "address",
											"internalType": "address"
										},
										{
											"name": "minBridgeAmount",
											"type": "uint256",
											"internalType": "uint256"
										}
									]
								}
							]
						},
						{
							"name": "salt",
							"type": "bytes32",
							"internalType": "bytes32"
						}
					]
				},
				{
					"name": "rulesetConfigurations",
					"type": "tuple[]",
					"indexed": false,
					"internalType": "struct JBRulesetConfig[]",
					"components": [
						{
							"name": "mustStartAtOrAfter",
							"type": "uint48",
							"internalType": "uint48"
						},
						{
							"name": "duration",
							"type": "uint32",
							"internalType": "uint32"
						},
						{
							"name": "weight",
							"type": "uint112",
							"internalType": "uint112"
						},
						{
							"name": "weightCutPercent",
							"type": "uint32",
							"internalType": "uint32"
						},
						{
							"name": "approvalHook",
							"type": "address",
							"internalType": "contract IJBRulesetApprovalHook"
						},
						{
							"name": "metadata",
							"type": "tuple",
							"internalType": "struct JBRulesetMetadata",
							"components": [
								{
									"name": "reservedPercent",
									"type": "uint16",
									"internalType": "uint16"
								},
								{
									"name": "cashOutTaxRate",
									"type": "uint16",
									"internalType": "uint16"
								},
								{
									"name": "baseCurrency",
									"type": "uint32",
									"internalType": "uint32"
								},
								{
									"name": "pausePay",
									"type": "bool",
									"internalType": "bool"
								},
								{
									"name": "pauseCreditTransfers",
									"type": "bool",
									"internalType": "bool"
								},
								{
									"name": "allowOwnerMinting",
									"type": "bool",
									"internalType": "bool"
								},
								{
									"name": "allowSetCustomToken",
									"type": "bool",
									"internalType": "bool"
								},
								{
									"name": "allowTerminalMigration",
									"type": "bool",
									"internalType": "bool"
								},
								{
									"name": "allowSetTerminals",
									"type": "bool",
									"internalType": "bool"
								},
								{
									"name": "allowSetController",
									"type": "bool",
									"internalType": "bool"
								},
								{
									"name": "allowAddAccountingContext",
									"type": "bool",
									"internalType": "bool"
								},
								{
									"name": "allowAddPriceFeed",
									"type": "bool",
									"internalType": "bool"
								},
								{
									"name": "ownerMustSendPayouts",
									"type": "bool",
									"internalType": "bool"
								},
								{
									"name": "holdFees",
									"type": "bool",
									"internalType": "bool"
								},
								{
									"name": "useTotalSurplusForCashOuts",
									"type": "bool",
									"internalType": "bool"
								},
								{
									"name": "useDataHookForPay",
									"type": "bool",
									"internalType": "bool"
								},
								{
									"name": "useDataHookForCashOut",
									"type": "bool",
									"internalType": "bool"
								},
								{
									"name": "dataHook",
									"type": "address",
									"internalType": "address"
								},
								{
									"name": "metadata",
									"type": "uint16",
									"internalType": "uint16"
								}
							]
						},
						{
							"name": "splitGroups",
							"type": "tuple[]",
							"internalType": "struct JBSplitGroup[]",
							"components": [
								{
									"name": "groupId",
									"type": "uint256",
									"internalType": "uint256"
								},
								{
									"name": "splits",
									"type": "tuple[]",
									"internalType": "struct JBSplit[]",
									"components": [
										{
											"name": "preferAddToBalance",
											"type": "bool",
											"internalType": "bool"
										},
										{
											"name": "percent",
											"type": "uint32",
											"internalType": "uint32"
										},
										{
											"name": "projectId",
											"type": "uint56",
											"internalType": "uint56"
										},
										{
											"name": "beneficiary",
											"type": "address",
											"internalType": "address payable"
										},
										{
											"name": "lockedUntil",
											"type": "uint48",
											"internalType": "uint48"
										},
										{
											"name": "hook",
											"type": "address",
											"internalType": "contract IJBSplitHook"
										}
									]
								}
							]
						},
						{
							"name": "fundAccessLimitGroups",
							"type": "tuple[]",
							"internalType": "struct JBFundAccessLimitGroup[]",
							"components": [
								{
									"name": "terminal",
									"type": "address",
									"internalType": "address"
								},
								{
									"name": "token",
									"type": "address",
									"internalType": "address"
								},
								{
									"name": "payoutLimits",
									"type": "tuple[]",
									"internalType": "struct JBCurrencyAmount[]",
									"components": [
										{
											"name": "amount",
											"type": "uint224",
											"internalType": "uint224"
										},
										{
											"name": "currency",
											"type": "uint32",
											"internalType": "uint32"
										}
									]
								},
								{
									"name": "surplusAllowances",
									"type": "tuple[]",
									"internalType": "struct JBCurrencyAmount[]",
									"components": [
										{
											"name": "amount",
											"type": "uint224",
											"internalType": "uint224"
										},
										{
											"name": "currency",
											"type": "uint32",
											"internalType": "uint32"
										}
									]
								}
							]
						}
					]
				},
				{
					"name": "encodedConfiguration",
					"type": "bytes",
					"indexed": false,
					"internalType": "bytes"
				},
				{
					"name": "caller",
					"type": "address",
					"indexed": false,
					"internalType": "address"
				}
			],
			"anonymous": false
		},
		{
			"type": "event",
			"name": "DeploySuckers",
			"inputs": [
				{
					"name": "revnetId",
					"type": "uint256",
					"indexed": true,
					"internalType": "uint256"
				},
				{
					"name": "salt",
					"type": "bytes32",
					"indexed": true,
					"internalType": "bytes32"
				},
				{
					"name": "encodedConfiguration",
					"type": "bytes",
					"indexed": false,
					"internalType": "bytes"
				},
				{
					"name": "suckerDeploymentConfiguration",
					"type": "tuple",
					"indexed": false,
					"internalType": "struct REVSuckerDeploymentConfig",
					"components": [
						{
							"name": "deployerConfigurations",
							"type": "tuple[]",
							"internalType": "struct JBSuckerDeployerConfig[]",
							"components": [
								{
									"name": "deployer",
									"type": "address",
									"internalType": "contract IJBSuckerDeployer"
								},
								{
									"name": "mappings",
									"type": "tuple[]",
									"internalType": "struct JBTokenMapping[]",
									"components": [
										{
											"name": "localToken",
											"type": "address",
											"internalType": "address"
										},
										{
											"name": "minGas",
											"type": "uint32",
											"internalType": "uint32"
										},
										{
											"name": "remoteToken",
											"type": "address",
											"internalType": "address"
										},
										{
											"name": "minBridgeAmount",
											"type": "uint256",
											"internalType": "uint256"
										}
									]
								}
							]
						},
						{
							"name": "salt",
							"type": "bytes32",
							"internalType": "bytes32"
						}
					]
				},
				{
					"name": "caller",
					"type": "address",
					"indexed": false,
					"internalType": "address"
				}
			],
			"anonymous": false
		},
		{
			"type": "event",
			"name": "ReplaceSplitOperator",
			"inputs": [
				{
					"name": "revnetId",
					"type": "uint256",
					"indexed": true,
					"internalType": "uint256"
				},
				{
					"name": "newSplitOperator",
					"type": "address",
					"indexed": true,
					"internalType": "address"
				},
				{
					"name": "caller",
					"type": "address",
					"indexed": false,
					"internalType": "address"
				}
			],
			"anonymous": false
		},
		{
			"type": "event",
			"name": "SetAdditionalOperator",
			"inputs": [
				{
					"name": "revnetId",
					"type": "uint256",
					"indexed": false,
					"internalType": "uint256"
				},
				{
					"name": "additionalOperator",
					"type": "address",
					"indexed": false,
					"internalType": "address"
				},
				{
					"name": "permissionIds",
					"type": "uint256[]",
					"indexed": false,
					"internalType": "uint256[]"
				},
				{
					"name": "caller",
					"type": "address",
					"indexed": false,
					"internalType": "address"
				}
			],
			"anonymous": false
		},
		{
			"type": "event",
			"name": "SetCashOutDelay",
			"inputs": [
				{
					"name": "revnetId",
					"type": "uint256",
					"indexed": true,
					"internalType": "uint256"
				},
				{
					"name": "cashOutDelay",
					"type": "uint256",
					"indexed": false,
					"internalType": "uint256"
				},
				{
					"name": "caller",
					"type": "address",
					"indexed": false,
					"internalType": "address"
				}
			],
			"anonymous": false
		},
		{
			"type": "event",
			"name": "StoreAutoIssuanceAmount",
			"inputs": [
				{
					"name": "revnetId",
					"type": "uint256",
					"indexed": true,
					"internalType": "uint256"
				},
				{
					"name": "stageId",
					"type": "uint256",
					"indexed": true,
					"internalType": "uint256"
				},
				{
					"name": "beneficiary",
					"type": "address",
					"indexed": true,
					"internalType": "address"
				},
				{
					"name": "count",
					"type": "uint256",
					"indexed": false,
					"internalType": "uint256"
				},
				{
					"name": "caller",
					"type": "address",
					"indexed": false,
					"internalType": "address"
				}
			],
			"anonymous": false
		},
		{
			"type": "error",
			"name": "PRBMath_MulDiv_Overflow",
			"inputs": [
				{
					"name": "x",
					"type": "uint256",
					"internalType": "uint256"
				},
				{
					"name": "y",
					"type": "uint256",
					"internalType": "uint256"
				},
				{
					"name": "denominator",
					"type": "uint256",
					"internalType": "uint256"
				}
			]
		},
		{
			"type": "error",
			"name": "REVDeployer_CashOutDelayNotFinished",
			"inputs": []
		},
		{
			"type": "error",
			"name": "REVDeployer_CashOutsCantBeTurnedOffCompletely",
			"inputs": []
		},
		{
			"type": "error",
			"name": "REVDeployer_RulesetDoesNotAllowDeployingSuckers",
			"inputs": []
		},
		{
			"type": "error",
			"name": "REVDeployer_StageNotStarted",
			"inputs": []
		},
		{
			"type": "error",
			"name": "REVDeployer_StageTimesMustIncrease",
			"inputs": []
		},
		{
			"type": "error",
			"name": "REVDeployer_StagesRequired",
			"inputs": []
		},
		{
			"type": "error",
			"name": "REVDeployer_Unauthorized",
			"inputs": []
		}
	],
	"solcInputHash": "2fac8ef5790d6d8590d31e03af76ba04",
	"args": [
		"0x74fc0e2cB3Eb5A2742f8B9F0D6F1263dD3664b5D",
		"0xf908124d6b59799CB5bC0EA4FA9209461641724f",
		"3",
		"0x739AFa8B58CcEc832aCFf7465f6F640199cF4D35",
		"0x6304Fc4489BA12F36250404882ADedc756d15246",
		"0xB2b5841DBeF766d4b521221732F9B618fCf34A87"
	],
	"bytecode": "0x6101a06040523480156200001257600080fd5b50604051620063f3380380620063f38339810160408190526200003591620002fc565b6001600160a01b03808216608052861660a0819052604080516388bc2ef360e01b815290516388bc2ef3916004808201926020929091908290030181865afa15801562000086573d6000803e3d6000fd5b505050506040513d601f19601f82011682018060405250810190620000ac919062000384565b6001600160a01b031660c0816001600160a01b031681525050856001600160a01b031663293c49996040518163ffffffff1660e01b8152600401602060405180830381865afa15801562000104573d6000803e3d6000fd5b505050506040513d601f19601f820116820180604052508101906200012a919062000384565b6001600160a01b0316610140816001600160a01b03168152505060a0516001600160a01b031663f434c9146040518163ffffffff1660e01b8152600401602060405180830381865afa15801562000185573d6000803e3d6000fd5b505050506040513d601f19601f82011682018060405250810190620001ab919062000384565b6001600160a01b039081166101205285811661018081905260e08690528482166101005290831661016052620001e5906000601c620001f1565b5050505050506200044e565b6040805160018082528183019092526000916020808301908036833701905050905081816000815181106200022a576200022a620003ab565b60ff909216602092830291909101909101526200024a3085858462000250565b50505050565b604080516060810182526001600160a01b03808616825266ffffffffffffff8516602083015281830184905261012051925163893ce90160e01b81529192169063893ce90190620002a89088908590600401620003c1565b600060405180830381600087803b158015620002c357600080fd5b505af1158015620002d8573d6000803e3d6000fd5b505050505050505050565b6001600160a01b0381168114620002f957600080fd5b50565b60008060008060008060c087890312156200031657600080fd5b86516200032381620002e3565b60208801519096506200033681620002e3565b6040880151606089015191965094506200035081620002e3565b60808801519093506200036381620002e3565b60a08801519092506200037681620002e3565b809150509295509295509295565b6000602082840312156200039757600080fd5b8151620003a481620002e3565b9392505050565b634e487b7160e01b600052603260045260246000fd5b600060018060a01b03808516835260206040602085015260a0840182865116604086015266ffffffffffffff6020870151166060860152604086015192506060608086015280835180835260c087019150602085019450600092505b808310156200044257845160ff1682529383019360019290920191908301906200041d565b50979650505050505050565b60805160a05160c05160e0516101005161012051610140516101605161018051615e8c62000567600039600081816105f701528181611fed01526121670152600081816106d701528181611f6401526133880152600081816102df0152818161090a0152818161169f0152611cc701526000818161073f015281816112630152611c440152600081816105c30152611d5f0152600081816102ab015281816110a4015281816111c401526113be0152600081816104fe01528181610fae015261139701526000818161070b01528181610a0001528181610ca6015281816115c4015281816117ae0152818161187301528181611a2f0152612079015260008181610413015281816104c80152611b5a0152615e8c6000f3fe6080604052600436106101d65760003560e01c806388bc2ef311610102578063bb19940211610095578063dbfbe5da11610064578063dbfbe5da146106c5578063ee0fc121146106f9578063f434c9141461072d578063fb82b1b01461076157600080fd5b8063bb19940214610650578063c22903b21461067d578063c57981b514610690578063db29c892146106a557600080fd5b8063abf8c5c8116100d1578063abf8c5c8146105b1578063b5d25533146105e5578063b8a843d714610619578063b987005d1461063057600080fd5b806388bc2ef3146104ec5780638cc3584614610520578063902b742e1461054e578063a71dea391461058457600080fd5b8063437e61071161017a578063677ce08811610149578063677ce088146104435780637249a77314610463578063752141b2146104995780637da0a877146104b957600080fd5b8063437e61071461034f57806347401eab1461038c5780634fa9af69146103c9578063572b6c05146103f657600080fd5b8063150b7a02116101b6578063150b7a02146102605780631680e17214610299578063293c4999146102cd5780633b7ae8071461031957600080fd5b80622c2010146101db57806244a0051461020e57806301ffc9a714610230575b600080fd5b3480156101e757600080fd5b506101fb6101f6366004613869565b610791565b6040519081526020015b60405180910390f35b34801561021a57600080fd5b5061022e61022936600461394c565b6107ac565b005b34801561023c57600080fd5b5061025061024b36600461397c565b610845565b6040519015158152602001610205565b34801561026c57600080fd5b5061028061027b3660046139e8565b6108fd565b6040516001600160e01b03199091168152602001610205565b3480156102a557600080fd5b506101fb7f000000000000000000000000000000000000000000000000000000000000000081565b3480156102d957600080fd5b506103017f000000000000000000000000000000000000000000000000000000000000000081565b6040516001600160a01b039091168152602001610205565b34801561032557600080fd5b50610301610334366004613a5b565b6003602052600090815260409020546001600160a01b031681565b34801561035b57600080fd5b506101fb61036a366004613a74565b6000602081815293815260408082208552928152828120909352825290205481565b34801561039857600080fd5b506103ac6103a7366004613aad565b610946565b604080519283526001600160a01b03909116602083015201610205565b3480156103d557600080fd5b506101fb6103e4366004613a5b565b60026020526000908152604090205481565b34801561040257600080fd5b50610250610411366004613bbb565b7f00000000000000000000000000000000000000000000000000000000000000006001600160a01b0390811691161490565b34801561044f57600080fd5b5061025061045e36600461394c565b61096c565b34801561046f57600080fd5b5061030161047e366004613a5b565b6001602052600090815260409020546001600160a01b031681565b3480156104a557600080fd5b506102506104b4366004613a5b565b6109c4565b3480156104c557600080fd5b507f0000000000000000000000000000000000000000000000000000000000000000610301565b3480156104f857600080fd5b506103017f000000000000000000000000000000000000000000000000000000000000000081565b34801561052c57600080fd5b5061054061053b366004613bd8565b610a82565b604051610205929190613c64565b34801561055a57600080fd5b50610301610569366004613a5b565b6004602052600090815260409020546001600160a01b031681565b34801561059057600080fd5b506101fb61059f366004613a5b565b60056020526000908152604090205481565b3480156105bd57600080fd5b506103017f000000000000000000000000000000000000000000000000000000000000000081565b3480156105f157600080fd5b506103017f000000000000000000000000000000000000000000000000000000000000000081565b34801561062557600080fd5b506101fb62278d0081565b34801561063c57600080fd5b5061022e61064b366004613a74565b610ca3565b34801561065c57600080fd5b5061067061066b366004613cf5565b610ede565b6040516102059190613d68565b61022e61068b366004613db5565b610f76565b34801561069c57600080fd5b506101fb601981565b3480156106b157600080fd5b506102506106c036600461394c565b61125f565b3480156106d157600080fd5b506103017f000000000000000000000000000000000000000000000000000000000000000081565b34801561070557600080fd5b506103017f000000000000000000000000000000000000000000000000000000000000000081565b34801561073957600080fd5b506103017f000000000000000000000000000000000000000000000000000000000000000081565b34801561076d57600080fd5b5061078161077c366004613df1565b611301565b6040516102059493929190613e2d565b60006107a18787878787876115a0565b979650505050505050565b6107bd826107b8611b53565b611bc8565b806001600160a01b0316827f0329d6a81434b130c72eb65eea0e32e429dc1277b4aad86ec86454aefb6184516107f1611b53565b6040516001600160a01b03909116815260200160405180910390a361083730610818611b53565b60408051600081526020810190915266ffffffffffffff861690611bef565b6108418282611c95565b5050565b60006001600160e01b031982167f8c57a5a20000000000000000000000000000000000000000000000000000000014806108a857506001600160e01b031982167f103d097e00000000000000000000000000000000000000000000000000000000145b806108dc57506001600160e01b031982167fc22903b200000000000000000000000000000000000000000000000000000000145b806108f757506001600160e01b03198216630a85bd0160e11b145b92915050565b6000336001600160a01b037f0000000000000000000000000000000000000000000000000000000000000000161461093457600080fd5b50630a85bd0160e11b95945050505050565b60008061095a8b8b8b8b8b8b8b8b8b611cba565b909c909b509950505050505050505050565b6000828152600160205260408120546001600160a01b03838116911614806109ad57506000838152600360205260409020546001600160a01b038381169116145b806109bd57506109bd8383611fab565b9392505050565b6040517f419296260000000000000000000000000000000000000000000000000000000081526004810182905260009081906001600160a01b037f0000000000000000000000000000000000000000000000000000000000000000169063419296269060240161038060405180830381865afa158015610a48573d6000803e3d6000fd5b505050506040513d601f19601f82011682018060405250810190610a6c91906140cf565b610240015160021c600190811614949350505050565b60c081013560009081526001602052604081205460609081906001600160a01b03168015610b3e576040517f8cc358460000000000000000000000000000000000000000000000000000000081526001600160a01b03821690638cc3584690610aef90889060040161434f565b600060405180830381865afa158015610b0c573d6000803e3d6000fd5b505050506040513d6000823e601f3d908101601f19168201604052610b34919081019061443b565b9094509150610b47565b84610120013593505b815160c0860135600090815260046020526040902054901515906001600160a01b031680151582610b79576000610b7c565b60015b81610b88576000610b8b565b60015b610b9591906145b6565b60ff1667ffffffffffffffff811115610bb057610bb0613ecd565b604051908082528060200260200182016040528015610bfd57816020015b60408051606080820183526000808352602083015291810191909152815260200190600190039081610bce5790505b5095508015610c59576040518060600160405280836001600160a01b03168152602001600081526020016040518060200160405280600081525081525086600081518110610c4d57610c4d6145cf565b60200260200101819052505b8215610c995784600081518110610c7257610c726145cf565b602002602001015186600181518110610c8d57610c8d6145cf565b60200260200101819052505b5050505050915091565b427f00000000000000000000000000000000000000000000000000000000000000006001600160a01b031663d4a1b4b16040518163ffffffff1660e01b8152600401602060405180830381865afa158015610d02573d6000803e3d6000fd5b505050506040513d601f19601f82011682018060405250810190610d2691906145e5565b6040517f25a61d5c00000000000000000000000000000000000000000000000000000000815260048101869052602481018590526001600160a01b0391909116906325a61d5c9060440161012060405180830381865afa158015610d8e573d6000803e3d6000fd5b505050506040513d601f19601f82011682018060405250810190610db29190614602565b6060015165ffffffffffff161115610df6576040517fa301d70600000000000000000000000000000000000000000000000000000000815260040160405180910390fd5b60008381526020818152604080832085845282528083206001600160a01b038516845290915281205490819003610e2d5750505050565b60008481526020818152604080832086845282528083206001600160a01b03861684528252808320839055868352600590915281208054839290610e7290849061461f565b90915550506001600160a01b03821683857f0ad8046f3d571312df6d1867ac30c26e100f5684a9d7c2d3340c4e2a5b56360f84610ead611b53565b604080519283526001600160a01b0390911660208301520160405180910390a4610ed884828461201e565b50505050565b6060610eec856107b8611b53565b610ef5856109c4565b610f2b576040517f6af8376400000000000000000000000000000000000000000000000000000000815260040160405180910390fd5b610f6d8585858080601f0160208091040260200160405190810160405280939291908181526020018383808284376000920191909152508792506120e6915050565b95945050505050565b6040517f6e49181f000000000000000000000000000000000000000000000000000000008152602082013560048201523360248201527f00000000000000000000000000000000000000000000000000000000000000006001600160a01b031690636e49181f90604401602060405180830381865afa158015610ffd573d6000803e3d6000fd5b505050506040513d601f19601f820116820180604052508101906110219190614632565b61103e57604051635577362560e11b815260040160405180910390fd5b600061104e6101c083018361464f565b81019061105b9190613bbb565b9050600061eeee61107461012085016101008601613bbb565b6001600160a01b031614611089576000611090565b6101608301355b90506001600160a01b03821663fef43257827f00000000000000000000000000000000000000000000000000000000000000006110d561012088016101008901613bbb565b6101608801356110e860208a018a613bbb565b60008a6020013560405160200161110191815260200190565b6040516020818303038152906040526040518863ffffffff1660e01b815260040161113196959493929190614696565b60206040518083038185885af19350505050801561116c575060408051601f3d908101601f19168201909252611169918101906146f0565b60015b610ed8573d80801561119a576040519150601f19603f3d011682016040523d82523d6000602084013e61119f565b606091505b5033639e6eec058360208701356111be61012089016101008a01613bbb565b604080517f000000000000000000000000000000000000000000000000000000000000000060208201526101608b013591600091016040516020818303038152906040526040518763ffffffff1660e01b8152600401611222959493929190614709565b6000604051808303818588803b15801561123b57600080fd5b505af115801561124f573d6000803e3d6000fd5b505050505050505050565b505050565b60007f00000000000000000000000000000000000000000000000000000000000000006001600160a01b031663632af95f83308661129c886121fe565b6000806040518763ffffffff1660e01b81526004016112c09695949392919061474d565b602060405180830381865afa1580156112dd573d6000803e3d6000fd5b505050506040513d601f19601f820116820180604052508101906109bd9190614632565b6000808060606113236040860180359061131e9060208901613bbb565b611fab565b156113405761271093506080850135925060a08501359150611599565b60408086013560009081526002602052205442101561138b576040517fcef2c33600000000000000000000000000000000000000000000000000000000815260040160405180910390fd5b60006001600160a01b037f00000000000000000000000000000000000000000000000000000000000000001663862026507f00000000000000000000000000000000000000000000000000000000000000006113ed60e08a0160c08b01613bbb565b6040516001600160e01b031960e085901b16815260048101929092526001600160a01b03166024820152604401602060405180830381865afa158015611437573d6000803e3d6000fd5b505050506040513d601f19601f8201168201806040525081019061145b91906145e5565b9050610160860135612710148061147957506001600160a01b038116155b1561149a5785610160013586608001358760a0013594509450945050611599565b60006114ae608088013560196103e8612376565b604080516001808252818301909252919250816020015b604080516060808201835260008083526020830152918101919091528152602001906001900390816114c55750506040805160608101909152308152909350602081016115226101208a01358460a08c01356101608d0135612466565b81526020018360405160200161154791906001600160a01b0391909116815260200190565b6040516020818303038152906040528152508360008151811061156c5761156c6145cf565b602090810291909101015261016087013561158b8260808a013561461f565b8860a0013595509550955050505b9193509193565b60008060006115ae886124df565b9150915088600003611670576001600160a01b037f000000000000000000000000000000000000000000000000000000000000000016634fb99a3f306115f48b806147c8565b61160290604081019061464f565b868c8c6040518763ffffffff1660e01b815260040161162696959493929190614d44565b6020604051808303816000875af1158015611645573d6000803e3d6000fd5b505050506040513d601f19601f8201168201806040525081019061166991906146f0565b9850611830565b6040517f6352211e000000000000000000000000000000000000000000000000000000008152600481018a90527f00000000000000000000000000000000000000000000000000000000000000006001600160a01b0316906342842e0e908290636352211e90602401602060405180830381865afa1580156116f6573d6000803e3d6000fd5b505050506040513d601f19601f8201168201806040525081019061171a91906145e5565b6040516001600160e01b031960e084901b1681526001600160a01b039091166004820152306024820152604481018c9052606401600060405180830381600087803b15801561176857600080fd5b505af115801561177c573d6000803e3d6000fd5b50506040517fb1d596850000000000000000000000000000000000000000000000000000000081526001600160a01b037f000000000000000000000000000000000000000000000000000000000000000016925063b1d5968591506117eb908c9086908c908c90600401614dad565b6020604051808303816000875af115801561180a573d6000803e3d6000fd5b505050506040513d601f19601f8201168201806040525081019061182e91906146f0565b505b6118698961184160608b018b614df6565b6000818110611852576118526145cf565b90506020028101906118649190614e40565b612a34565b6001600160a01b037f00000000000000000000000000000000000000000000000000000000000000001663581781918a6118a38b806147c8565b6118ad908061464f565b6118b78d806147c8565b6118c590602081019061464f565b6118cf8f806147c8565b606001356118db611b53565b6040516020016118fe9291909182526001600160a01b0316602082015260400190565b604051602081830303815290604052805190602001206040518763ffffffff1660e01b815260040161193596959493929190614e56565b6020604051808303816000875af1158015611954573d6000803e3d6000fd5b505050506040513d601f19601f8201168201806040525081019061197891906145e5565b5060006119886020870187613bbb565b6001600160a01b0316146119a0576119a08986612ae2565b60006119b260c08a0160a08b01613bbb565b6001600160a01b031614611a25576119db6119d360c08a0160a08b01613bbb565b8a6010612c5b565b6119eb60c0890160a08a01613bbb565b60008a8152600360205260409020805473ffffffffffffffffffffffffffffffffffffffff19166001600160a01b03929092169190911790555b6001600160a01b037f00000000000000000000000000000000000000000000000000000000000000001663ed1159578a6000611a6f611a6a60608e0160408f01613bbb565b612cb1565b6040518463ffffffff1660e01b8152600401611a8d93929190614e97565b600060405180830381600087803b158015611aa757600080fd5b505af1158015611abb573d6000803e3d6000fd5b50505050611ac98989612de2565b611ae289611add60608b0160408c01613bbb565b611c95565b602084013515611af957611af78982866120e6565b505b887fb46c6a1edcbbb0b6240eb055305610604e7c8af90455460b8d143cb85af8e8f189898989898888611b2a611b53565b604051611b3e9897969594939291906153ac565b60405180910390a25096979650505050505050565b60003660147f00000000000000000000000000000000000000000000000000000000000000006001600160a01b031633148015611b905750808210155b15611bc057600036611ba2838561461f565b611bad92829061556c565b611bb691615596565b60601c9250505090565b339250505090565b611bd2828261125f565b61084157604051635577362560e11b815260040160405180910390fd5b604080516060810182526001600160a01b03808616825266ffffffffffffff8516602083015281830184905291517f893ce90100000000000000000000000000000000000000000000000000000000815290917f0000000000000000000000000000000000000000000000000000000000000000169063893ce90190611c7b90889085906004016155cb565b600060405180830381600087803b15801561123b57600080fd5b61084130828466ffffffffffffff16611cb5611cb0876121fe565b6130fe565b611bef565b6000808a808203611d55577f00000000000000000000000000000000000000000000000000000000000000006001600160a01b03166306661abd6040518163ffffffff1660e01b8152600401602060405180830381865afa158015611d23573d6000803e3d6000fd5b505050506040513d601f19601f82011682018060405250810190611d4791906146f0565b611d52906001615657565b9b505b6001600160a01b037f00000000000000000000000000000000000000000000000000000000000000001663ea74b8af8d611d8f898061566a565b8960200135611d9c611b53565b604051602001611dbf9291909182526001600160a01b0316602082015260400190565b604051602081830303815290604052805190602001206040518463ffffffff1660e01b8152600401611df3939291906158c8565b6020604051808303816000875af1158015611e12573d6000803e3d6000fd5b505050506040513d601f19601f82011682018060405250810190611e3691906145e5565b60008d81526004602052604090819020805473ffffffffffffffffffffffffffffffffffffffff19166001600160a01b038416179055909250611e7f90606088019088016159f2565b15611ea75760008c815260066020908152604082208054600181018255908352912060149101555b611eb760808701606088016159f2565b15611edf5760008c815260066020908152604082208054600181018255908352912060159101555b611eef60a08701608088016159f2565b15611f175760008c815260066020908152604082208054600181018255908352912060169101555b611f2760c0870160a088016159f2565b15611f4f5760008c815260066020908152604082208054600181018255908352912060179101555b611f5a82868661319e565b15611f8b57611f8b7f00000000000000000000000000000000000000000000000000000000000000008d6014612c5b565b611f99818c8c8c8c8c6115a0565b509a9b909a5098505050505050505050565b6040517f83db9d01000000000000000000000000000000000000000000000000000000008152600481018390526001600160a01b0382811660248301526000917f0000000000000000000000000000000000000000000000000000000000000000909116906383db9d01906044016112c0565b6040517fc7fb92de00000000000000000000000000000000000000000000000000000000815260048101849052602481018390526001600160a01b03828116604483015260a06064830152600060a4830181905260848301527f0000000000000000000000000000000000000000000000000000000000000000169063c7fb92de9060c4016020604051808303816000875af11580156120c2573d6000803e3d6000fd5b505050506040513d601f19601f82011682018060405250810190610ed891906146f0565b60606000838360200135604051602001612101929190615a0f565b60405160208183030381529060405280519060200120905080857f755ecfca2f6e66af8868551556bf7931740a7062db8e0882f4c322fdb0bb3f608686612146611b53565b60405161215593929190615a31565b60405180910390a36001600160a01b037f000000000000000000000000000000000000000000000000000000000000000016632f3f50e086836121988780614df6565b6040518563ffffffff1660e01b81526004016121b79493929190615a70565b6000604051808303816000875af11580156121d6573d6000803e3d6000fd5b505050506040513d6000823e601f3d908101601f19168201604052610f6d9190810190615a9a565b600081815260066020908152604080832080548251818502810185019093528083526060949383018282801561225357602002820191906000526020600020905b81548152602001906001019080831161223f575b50505050509050805160036122689190615657565b67ffffffffffffffff81111561228057612280613ecd565b6040519080825280602002602001820160405280156122a9578160200160208202803683370190505b509150601160ff16826000815181106122c4576122c46145cf565b602002602001018181525050601960ff16826001815181106122e8576122e86145cf565b602002602001018181525050600660ff168260028151811061230c5761230c6145cf565b60200260200101818152505060005b815181101561236f57818181518110612336576123366145cf565b60200260200101518382600361234c9190615657565b8151811061235c5761235c6145cf565b602090810291909101015260010161231b565b5050919050565b60008080600019858709858702925082811083820303915050806000036123b0578382816123a6576123a6615b29565b04925050506109bd565b8381106123fe576040517f63a0577800000000000000000000000000000000000000000000000000000000815260048101879052602481018690526044810185905260640160405180910390fd5b600084868809600260036001881981018916988990049182028318808302840302808302840302808302840302808302840302808302840302918202909203026000889003889004909101858311909403939093029303949094049190911702949350505050565b600061270f19820161247a575060006124d7565b8284106124885750836124d7565b6000612495868686612376565b9050826000036124a65790506124d7565b6124d3816124b5858888612376565b6124c18661271061461f565b6124cb9190615657565b612710612376565b9150505b949350505050565b6060806124ee83820184614df6565b9050600003612529576040517f141d479400000000000000000000000000000000000000000000000000000000815260040160405180910390fd5b6125366060840184614df6565b905067ffffffffffffffff81111561255057612550613ecd565b60405190808252806020026020018201604052801561265a57816020015b6126476040805161010080820183526000808352602080840182905283850182905260608085018390526080808601849052865161026081018852848152928301849052958201839052810182905293840181905260a084810182905260c0850182905260e0850182905291840181905261012084018190526101408401819052610160840181905261018084018190526101a084018190526101c084018190526101e0840181905261020084018190526102208401819052610240840152909190820190815260200160608152602001606081525090565b81526020019060019003908161256e5790505b50915061266d6040840160208501615b3f565b61267d60c0850160a08601613bbb565b61268785806147c8565b612691908061464f565b61269b87806147c8565b6126a990602081019061464f565b6126b389806147c8565b606001356040516020016126cd9796959493929190615b5c565b604051602081830303815290604052905060006126e9846133fa565b90506000805b6126fc6060870187614df6565b9050811015612a2c57366127136060880188614df6565b83818110612723576127236145cf565b90506020028101906127359190614e40565b9050826127456020830183615bb3565b64ffffffffff1611612783576040517fb787fe6700000000000000000000000000000000000000000000000000000000815260040160405180910390fd5b61271061279660e0830160c08401615bce565b61ffff16106127d1576040517f1e9a99e300000000000000000000000000000000000000000000000000000000815260040160405180910390fd5b6040805161026081018252600080825260208201819052918101829052606081018290526080810182905260a0810182905260c0810182905260e08101829052610100810182905261012081018290526101408101829052610160810182905261018081018290526101a081018290526101c081018290526101e081018290526102008101829052610220810182905261024081019190915261287a6060830160408401615bce565b61ffff16815261289060e0830160c08401615bce565b61ffff166020808301919091526128ad9060408a01908a01615b3f565b63ffffffff166040820152600160a082018190526101e0820152306102208201526128df610100830160e08401615bce565b61ffff16610240820152604080516101008101909152806129036020850185615bb3565b64ffffffffff16815260200161291f60a0850160808601615b3f565b63ffffffff16815260200161293a6080850160608601615beb565b6dffffffffffffffffffffffffffff16815260200161295f60c0850160a08601615b3f565b63ffffffff16815260006020808301829052604080840186905280518381529182019052606090920191906129b7565b60408051808201909152600081526060602082015281526020019060019003908161298f5790505b508152602001868152508784815181106129d3576129d36145cf565b6020026020010181905250856129e9838561361f565b6040516020016129fa929190615c08565b60408051601f198184030181529190529550612a196020830183615bb3565b64ffffffffff16935050506001016126ef565b505050915091565b612a416020820182615bb3565b64ffffffffff161580612a67575042612a5d6020830183615bb3565b64ffffffffff1610155b15612a70575050565b6000612a7f62278d0042615657565b60008481526002602052604090208190559050827f48a9634f50564cfe6648ff5e75795a36873bf96c408523d50017032657e6719882612abd611b53565b604080519283526001600160a01b0390911660208301520160405180910390a2505050565b612aef6020820182613bbb565b6000838152600160205260408120805473ffffffffffffffffffffffffffffffffffffffff19166001600160a01b0393909316929092179091555b612b376020830183615c2d565b905081101561125a5736612b4e6020840184615c2d565b83818110612b5e57612b5e6145cf565b608002919091019150612b7690506020840184613bbb565b6001600160a01b0316637b621d3a85612b956040850160208601615c77565b612ba56060860160408701615b3f565b612bb56080870160608801615b3f565b612bc26020880188613bbb565b6040516001600160e01b031960e088901b168152600481019590955262ffffff909316602485015263ffffffff91821660448501521660648301526001600160a01b0316608482015260a4016020604051808303816000875af1158015612c2d573d6000803e3d6000fd5b505050506040513d601f19601f82011682018060405250810190612c5191906145e5565b5050600101612b2a565b604080516001808252818301909252600091602080830190803683370190505090508181600081518110612c9157612c916145cf565b602002602001019060ff16908160ff1681525050610ed830858584611bef565b60408051600180825281830190925260609160009190816020015b6040805160c08101825260008082526020808301829052928201819052606082018190526080820181905260a08201528252600019909201910181612ccc5750506040805160c0810182526000808252633b9aca0060208301529181018290526001600160a01b03861660608201526080810182905260a08101829052825192935091839190612d5e57612d5e6145cf565b602090810291909101015260408051600180825281830190925290816020015b604080518082019091526000815260606020820152815260200190600190039081612d7e5790505091506040518060400160405280600181526020018281525082600081518110612dd157612dd16145cf565b602002602001018190525050919050565b6000805b612df36060840184614df6565b90508110156130e75736612e0a6060850185614df6565b83818110612e1a57612e1a6145cf565b9050602002810190612e2c9190614e40565b905060005b612e3e6020830183615c92565b90508110156130dd5736612e556020840184615c92565b83818110612e6557612e656145cf565b606002919091019150469050612e7e6020830183615b3f565b63ffffffff1614612e8f57506130d5565b612e9f6040820160208301615cdb565b6001600160681b0316600003612eb557506130d5565b612ec56060820160408301613bbb565b6001600160a01b0316612ed88542615657565b887f5c05d79eeb764b1f5069fb55a8558e8a5cec91813a64282bc198dc9084c75df0612f0a6040860160208701615cdb565b612f12611b53565b604080516001600160681b0390931683526001600160a01b0390911660208301520160405180910390a4831580612f5c575042612f526020850185615bb3565b64ffffffffff1611155b1561301f57612f716060820160408301613bbb565b6001600160a01b0316612f848542615657565b887f0ad8046f3d571312df6d1867ac30c26e100f5684a9d7c2d3340c4e2a5b56360f612fb66040860160208701615cdb565b612fbe611b53565b604080516001600160681b0390931683526001600160a01b0390911660208301520160405180910390a461301a87612ffc6040840160208501615cdb565b6001600160681b03166130156060850160408601613bbb565b61201e565b6130d3565b61302f6040820160208301615cdb565b60008881526020819052604081206001600160681b039290921691906130558742615657565b815260200190815260200160002060008360400160208101906130789190613bbb565b6001600160a01b03166001600160a01b0316815260200190815260200160002060008282546130a79190615657565b909155506130bd90506040820160208301615cdb565b6130d0906001600160681b031686615657565b94505b505b600101612e31565b5050600101612de6565b506000928352600560205260409092209190915550565b6060815167ffffffffffffffff81111561311a5761311a613ecd565b604051908082528060200260200182016040528015613143578160200160208202803683370190505b50905060005b825181101561319857828181518110613164576131646145cf565b602002602001015182828151811061317e5761317e6145cf565b60ff90921660209283029190910190910152600101613149565b50919050565b60008181036131af575060006109bd565b60008267ffffffffffffffff8111156131ca576131ca613ecd565b60405190808252806020026020018201604052801561322c57816020015b6040805160c081018252600080825260208083018290529282018190526060808301829052608083019190915260a082015282526000199092019101816131e85790505b50905060005b83811015613357573685858381811061324d5761324d6145cf565b905060200281019061325f9190615cf6565b90506040518060c00160405280886001600160a01b0316815260200182600001602081019061328e9190615c77565b62ffffff1681526020018260200160208101906132ab9190615cdb565b6001600160681b031681526020016132c96060840160408501615b3f565b63ffffffff1681526020016132e46080840160608501615b3f565b63ffffffff1681526020016132fc6080840184614df6565b8080602002602001604051908101604052809392919081815260200183836020028082843760009201919091525050509152508351849084908110613343576133436145cf565b602090810291909101015250600101613232565b506040517f441e4d340000000000000000000000000000000000000000000000000000000081526001600160a01b037f0000000000000000000000000000000000000000000000000000000000000000169063441e4d34906133bd908490600401615d46565b600060405180830381600087803b1580156133d757600080fd5b505af11580156133eb573d6000803e3d6000fd5b50600198975050505050505050565b60408051600180825281830190925260609160009190816020015b60408051808201909152600080825260208201528152602001906001900390816134155750506040805180820182527bffffffffffffffffffffffffffffffffffffffffffffffffffffffff815291925060208083019161347b91908701908701615b3f565b63ffffffff1681525081600081518110613497576134976145cf565b60209081029190910101526134af6080840184615e0c565b905067ffffffffffffffff8111156134c9576134c9613ecd565b60405190808252806020026020018201604052801561351d57816020015b60408051608081018252600080825260208201526060918101829052818101919091528152602001906001900390816134e75790505b50915060005b6135306080850185615e0c565b905081101561236f57366135476080860186615e0c565b83818110613557576135576145cf565b9050604002019050604051806080016040528082602001602081019061357d9190613bbb565b6001600160a01b0316815260209081019061359a90840184613bbb565b6001600160a01b0316815260200160006040519080825280602002602001820160405280156135ef57816020015b60408051808201909152600080825260208201528152602001906001900390816135c85790505b5081526020018481525084838151811061360b5761360b6145cf565b602090810291909101015250600101613523565b60608115801561364057506136376020840184615bb3565b64ffffffffff16155b61365d576136516020840184615bb3565b64ffffffffff1661365f565b425b61366f6060850160408601615bce565b61367f6080860160608701615beb565b61368f60a0870160808801615b3f565b61369f60c0880160a08901615b3f565b6136af60e0890160c08a01615bce565b60408051602081019790975261ffff958616908701526dffffffffffffffffffffffffffff909316606086015263ffffffff91821660808601521660a08401521660c082015260e001604051602081830303815290604052905060005b6137196020850185615c92565b9050811015613779578161374e6137336020870187615c92565b84818110613743576137436145cf565b905060600201613780565b60405160200161375f929190615c08565b60408051601f19818403018152919052915060010161370c565b5092915050565b606061378f6020830183615b3f565b61379f6060840160408501613bbb565b6137af6040850160208601615cdb565b6040805163ffffffff90941660208501526001600160a01b03909216918301919091526001600160681b031660608201526080016040516020818303038152906040529050919050565b600060c0828403121561319857600080fd5b60008083601f84011261381d57600080fd5b50813567ffffffffffffffff81111561383557600080fd5b6020830191508360208260051b850101111561385057600080fd5b9250929050565b60006040828403121561319857600080fd5b60008060008060008060a0878903121561388257600080fd5b86359550602087013567ffffffffffffffff808211156138a157600080fd5b6138ad8a838b016137f9565b965060408901359150808211156138c357600080fd5b6138cf8a838b0161380b565b909650945060608901359150808211156138e857600080fd5b6138f48a838b01613857565b9350608089013591508082111561390a57600080fd5b5061391789828a01613857565b9150509295509295509295565b6001600160a01b038116811461393957600080fd5b50565b803561394781613924565b919050565b6000806040838503121561395f57600080fd5b82359150602083013561397181613924565b809150509250929050565b60006020828403121561398e57600080fd5b81356001600160e01b0319811681146109bd57600080fd5b60008083601f8401126139b857600080fd5b50813567ffffffffffffffff8111156139d057600080fd5b60208301915083602082850101111561385057600080fd5b600080600080600060808688031215613a0057600080fd5b8535613a0b81613924565b94506020860135613a1b81613924565b935060408601359250606086013567ffffffffffffffff811115613a3e57600080fd5b613a4a888289016139a6565b969995985093965092949392505050565b600060208284031215613a6d57600080fd5b5035919050565b600080600060608486031215613a8957600080fd5b83359250602084013591506040840135613aa281613924565b809150509250925092565b600080600080600080600080600060e08a8c031215613acb57600080fd5b8935985060208a013567ffffffffffffffff80821115613aea57600080fd5b613af68d838e016137f9565b995060408c0135915080821115613b0c57600080fd5b613b188d838e0161380b565b909950975060608c0135915080821115613b3157600080fd5b613b3d8d838e01613857565b965060808c0135915080821115613b5357600080fd5b613b5f8d838e01613857565b955060a08c0135915080821115613b7557600080fd5b613b818d838e016137f9565b945060c08c0135915080821115613b9757600080fd5b50613ba48c828d0161380b565b915080935050809150509295985092959850929598565b600060208284031215613bcd57600080fd5b81356109bd81613924565b600060208284031215613bea57600080fd5b813567ffffffffffffffff811115613c0157600080fd5b820161018081850312156109bd57600080fd5b60005b83811015613c2f578181015183820152602001613c17565b50506000910152565b60008151808452613c50816020860160208601613c14565b601f01601f19169290920160200192915050565b6000604080830185845260206040818601528186518084526060935060608701915060608160051b88010183890160005b83811015613ce557898303605f19018552815180516001600160a01b031684528681015187850152880151888401889052613cd288850182613c38565b9587019593505090850190600101613c95565b50909a9950505050505050505050565b60008060008060608587031215613d0b57600080fd5b84359350602085013567ffffffffffffffff80821115613d2a57600080fd5b613d36888389016139a6565b90955093506040870135915080821115613d4f57600080fd5b50613d5c87828801613857565b91505092959194509250565b6020808252825182820181905260009190848201906040850190845b81811015613da95783516001600160a01b031683529284019291840191600101613d84565b50909695505050505050565b600060208284031215613dc757600080fd5b813567ffffffffffffffff811115613dde57600080fd5b820161020081850312156109bd57600080fd5b600060208284031215613e0357600080fd5b813567ffffffffffffffff811115613e1a57600080fd5b82016101a081850312156109bd57600080fd5b60006080820186835260208681850152604086604086015260606080606087015283875180865260a08801915060a08160051b890101955084890160005b82811015613ebb57898803609f19018452815180516001600160a01b0316895287810151888a0152860151868901869052613ea8868a0182613c38565b9850509286019290860190600101613e6b565b50959c9b505050505050505050505050565b634e487b7160e01b600052604160045260246000fd5b604051610120810167ffffffffffffffff81118282101715613f0757613f07613ecd565b60405290565b604051610260810167ffffffffffffffff81118282101715613f0757613f07613ecd565b6040516060810167ffffffffffffffff81118282101715613f0757613f07613ecd565b604051601f8201601f1916810167ffffffffffffffff81118282101715613f7d57613f7d613ecd565b604052919050565b805165ffffffffffff8116811461394757600080fd5b63ffffffff8116811461393957600080fd5b805161394781613f9b565b6dffffffffffffffffffffffffffff8116811461393957600080fd5b805161394781613fb8565b805161394781613924565b60006101208284031215613ffd57600080fd5b614005613ee3565b905061401082613f85565b815261401e60208301613f85565b602082015261402f60408301613f85565b604082015261404060608301613f85565b606082015261405160808301613fad565b608082015261406260a08301613fd4565b60a082015261407360c08301613fad565b60c082015261408460e08301613fdf565b60e082015261010080830151818301525092915050565b61ffff8116811461393957600080fd5b80516139478161409b565b801515811461393957600080fd5b8051613947816140b6565b6000808284036103808112156140e457600080fd5b6140ee8585613fea565b92506102608061011f198301121561410557600080fd5b61410d613f0d565b915061411c61012086016140ab565b825261014061412c8187016140ab565b602084015261016061413f818801613fad565b60408501526101806141528189016140c4565b60608601526101a0614165818a016140c4565b60808701526101c0614178818b016140c4565b60a08801526101e061418b818c016140c4565b60c089015261020061419e818d016140c4565b60e08a01526102206141b1818e016140c4565b6101008b01526102406141c5818f016140c4565b6101208c01526141d68a8f016140c4565b898c01526141e76102808f016140c4565b888c01526141f86102a08f016140c4565b878c01526142096102c08f016140c4565b868c015261421a6102e08f016140c4565b858c015261422b6103008f016140c4565b848c015261423c6103208f016140c4565b838c015261424d6103408f01613fdf565b828c015261425e6103608f016140ab565b908b015250999c979b50969950505050505050505050565b803560ff8116811461394757600080fd5b803561394781613f9b565b803561429d81613924565b6001600160a01b0316825260ff6142b660208301614276565b16602083015260408101356142ca81613f9b565b63ffffffff166040830152606090810135910152565b6000808335601e198436030181126142f757600080fd5b830160208101925035905067ffffffffffffffff81111561431757600080fd5b80360382131561385057600080fd5b81835281816020850137506000828201602090810191909152601f909101601f19169091010190565b60208152614370602082016143638461393c565b6001600160a01b03169052565b600061437e6020840161393c565b6001600160a01b03811660408401525061439e6060830160408501614292565b60c083013560e083015261010060e0840135818401526143bf81850161393c565b90506101206143d8818501836001600160a01b03169052565b610140915080850135828501525061016081850135818501526143fd818601866142e0565b6101808681015292509050610f6d6101a085018383614326565b600067ffffffffffffffff82111561443157614431613ecd565b5060051b60200190565b6000806040838503121561444e57600080fd5b8251915060208084015167ffffffffffffffff8082111561446e57600080fd5b818601915086601f83011261448257600080fd5b815161449561449082614417565b613f54565b81815260059190911b830184019084810190898311156144b457600080fd5b8585015b8381101561458f578051858111156144cf57600080fd5b8601601f196060828e03820112156144e657600080fd5b6144ee613f31565b898301516144fb81613924565b815260408301518a82015260608301518881111561451857600080fd5b8084019350508d603f84011261452d57600080fd5b898301518881111561454157614541613ecd565b6145518b84601f84011601613f54565b92508083528e604082860101111561456857600080fd5b614578818c850160408701613c14565b5060408101919091528452509186019186016144b8565b508096505050505050509250929050565b634e487b7160e01b600052601160045260246000fd5b60ff81811683821601908111156108f7576108f76145a0565b634e487b7160e01b600052603260045260246000fd5b6000602082840312156145f757600080fd5b81516109bd81613924565b6000610120828403121561461557600080fd5b6109bd8383613fea565b818103818111156108f7576108f76145a0565b60006020828403121561464457600080fd5b81516109bd816140b6565b6000808335601e1984360301811261466657600080fd5b83018035915067ffffffffffffffff82111561468157600080fd5b60200191503681900382131561385057600080fd5b86815260006001600160a01b03808816602084015286604084015280861660608401525083608083015260e060a0830152600060e08301526101008060c08401526146e381840185613c38565b9998505050505050505050565b60006020828403121561470257600080fd5b5051919050565b8581526001600160a01b0385166020820152836040820152821515606082015260c06080820152600060c082015260e060a082015260006107a160e0830184613c38565b600060c082016001600160a01b03808a1684526020818a16602086015288604086015260c06060860152829150875180845260e08601925060208901935060005b818110156147aa5784518452938201939282019260010161478e565b5050509415156080840152505090151560a090910152949350505050565b60008235607e198336030181126147de57600080fd5b9190910192915050565b805161ffff1682526020810151614805602084018261ffff169052565b50604081015161481d604084018263ffffffff169052565b506060810151614831606084018215159052565b506080810151614845608084018215159052565b5060a081015161485960a084018215159052565b5060c081015161486d60c084018215159052565b5060e081015161488160e084018215159052565b5061010081810151151590830152610120808201511515908301526101408082015115159083015261016080820151151590830152610180808201511515908301526101a0808201511515908301526101c0808201511515908301526101e08082015115159083015261020080820151151590830152610220808201516001600160a01b0316908301526102408082015161ffff811682850152610ed8565b600082825180855260208086019550808260051b8401018186016000805b858110156149fd57868403601f19018a52825180518552850151604086860181905281518187018190529187019160609081880190865b818110156149e65785518051151584528b81015163ffffffff168c8501528581015166ffffffffffffff1686850152848101516001600160a01b039081168686015260808083015165ffffffffffff169086015260a0918201511690840152948a019460c090920191600101614975565b50509c88019c96505050928501925060010161493e565b509198975050505050505050565b60008151808452602080850194506020840160005b83811015614a6b57815180517bffffffffffffffffffffffffffffffffffffffffffffffffffffffff16885283015163ffffffff168388015260409096019590820190600101614a20565b509495945050505050565b600082825180855260208086019550808260051b84010181860160005b84811015614b0a57601f19868403018952815160806001600160a01b0380835116865280878401511687870152506040808301518282880152614ad883880182614a0b565b9250505060608083015192508582038187015250614af68183614a0b565b9a86019a9450505090830190600101614a93565b5090979650505050505050565b600082825180855260208086019550808260051b84010181860160005b84811015614b0a57601f198684030189528151805165ffffffffffff1684528481015163ffffffff908116868601526040808301516dffffffffffffffffffffffffffff1690860152606080830151909116908501526080808201516001600160a01b03169085015260a0808201516103409190614bb4828801826147e8565b505060c082015181610300870152614bce82870182614920565b91505060e08201519150848103610320860152614beb8183614a76565b9a86019a9450505090830190600101614b34565b6000808335601e19843603018112614c1657600080fd5b830160208101925035905067ffffffffffffffff811115614c3657600080fd5b60608102360382131561385057600080fd5b60008235603e19833603018112614c5e57600080fd5b90910192915050565b60008383855260208086019550808560051b830101846000805b888110156149fd57858403601f19018a52614c9c8389614c48565b60408086018235614cac81613924565b6001600160a01b038082168952614cc58a860186614bff565b8a8c01869052938490529294506060929150828901875b86811015614d2c578335614cef81613924565b8316825260ff614d00858e01614276565b168c83015285840135614d1281613f9b565b63ffffffff16828701529284019290840190600101614cdc565b509e8a019e9850505094870194505050600101614c81565b6001600160a01b038716815260a060208201526000614d6760a083018789614326565b8281036040840152614d798187614b17565b90508281036060840152614d8e818587614c67565b8381036080909401939093525050600081526020019695505050505050565b848152608060208201526000614dc66080830186614b17565b8281036040840152614dd9818587614c67565b838103606090940193909352505060008152602001949350505050565b6000808335601e19843603018112614e0d57600080fd5b83018035915067ffffffffffffffff821115614e2857600080fd5b6020019150600581901b360382131561385057600080fd5b6000823560fe198336030181126147de57600080fd5b868152608060208201526000614e70608083018789614326565b8281036040840152614e83818688614326565b915050826060830152979650505050505050565b838152826020820152606060408201526000610f6d6060830184614920565b60008235607e19833603018112614c5e57600080fd5b6000808335601e19843603018112614ee357600080fd5b830160208101925035905067ffffffffffffffff811115614f0357600080fd5b8060051b360382131561385057600080fd5b803564ffffffffff8116811461394757600080fd5b80356001600160681b038116811461394757600080fd5b80356139478161409b565b803561394781613fb8565b60008383855260208086019550808560051b8301018460005b87811015614b0a57848303601f1901895281353688900360fe19018112614f9657600080fd5b870161010084810164ffffffffff614fad84614f15565b168652614fbc87840184614bff565b87890193909352908290526101208601916000905b80821015615037578235614fe481613f9b565b63ffffffff1684526001600160681b03614fff848b01614f2a565b168985015260408084013561501381613924565b6001600160a01b031690850152606093840193929092019160019190910190614fd1565b5050506040615047818401614f41565b61ffff1690860152606061505c838201614f4c565b6dffffffffffffffffffffffffffff1690860152608061507d838201614287565b63ffffffff169086015260a0615094838201614287565b63ffffffff169086015260c06150ab838201614f41565b61ffff169086015260e06150c0838201614f41565b61ffff16950194909452509783019790830190600101614f70565b6000808335601e198436030181126150f257600080fd5b830160208101925035905067ffffffffffffffff81111561511257600080fd5b8060061b360382131561385057600080fd5b8183526000602080850194508260005b85811015614a6b57813561514781613924565b6001600160a01b039081168852828401359061516282613924565b16878401526040968701969190910190600101615134565b6000808335601e1984360301811261519157600080fd5b830160208101925035905067ffffffffffffffff8111156151b157600080fd5b8060071b360382131561385057600080fd5b803562ffffff8116811461394757600080fd5b6000604080840183356151e881613924565b6001600160a01b0390811686526020906152048683018761517a565b604060208a01529384905260609384890160005b8281101561528157833561522b81613924565b8516825262ffffff61523e8588016151c3565b16868301528784013561525081613f9b565b63ffffffff908116838a0152848801359061526a82613f9b565b168288015260809384019390910190600101615218565b509998505050505050505050565b60008383855260208086019550808560051b830101846000805b888110156149fd57858403601f19018a526152c48389614c48565b604080860182356152d481613924565b6001600160a01b0380821689526152ed8a86018661517a565b8a8c01869052938490529294506060929150828901875b8681101561535f57833561531781613924565b83168252838c013561532881613f9b565b63ffffffff16828d01528386013561533f81613924565b831682870152838501358583015260809384019390910190600101615304565b509e8a019e98505050948701945050506001016152a9565b60006153838283614ecc565b6040855261539560408601828461528f565b915050602083013560208501528091505092915050565b60e0815260006153bc8a8b614eb6565b60c060e08401526153cd81826142e0565b60806101a08601526153e461022086018284614326565b9150506153f460208301836142e0565b61019f1980878503016101c088015261540e848385614326565b935061541d60408601866142e0565b9350915080878503016101e088015250615438838383614326565b92505050606082013561020085015261545360208d01614287565b63ffffffff8116610100860152915061546e60408d0161393c565b6001600160a01b038116610120860152915061548d60608d018d614ecc565b925060df1980868403016101408701526154a8838584614f57565b93506154b760808f018f6150db565b935091508086850301610160870152506154d2838383615124565b925050506154e260a08c0161393c565b6001600160a01b03166101808401528281036020840152615504818a8c614c67565b9050828103604084015261551881896151d6565b9050828103606084015261552c8188615377565b905082810360808401526155408187614b17565b905082810360a08401526155548186613c38565b9150506146e360c08301846001600160a01b03169052565b6000808585111561557c57600080fd5b8386111561558957600080fd5b5050820193919092039150565b6bffffffffffffffffffffffff1981358181169160148510156155c35780818660140360031b1b83161692505b505092915050565b60006001600160a01b03808516835260206040602085015260a0840182865116604086015266ffffffffffffff6020870151166060860152604086015192506060608086015280835180835260c087019150602085019450600092505b8083101561564b57845160ff168252938301936001929092019190830190615628565b50979650505050505050565b808201808211156108f7576108f76145a0565b6000823561015e198336030181126147de57600080fd5b8035613947816140b6565b600060808084018335601e198536030181126156a757600080fd5b8401602081810191359067ffffffffffffffff8211156156c657600080fd5b6101c080830236038413156156da57600080fd5b608089529382905260a09384890160005b848110156158205761570d8261570088614f2a565b6001600160681b03169052565b615718848701614287565b63ffffffff1684830152604061572f878201614287565b63ffffffff16908301526060615746878201614f41565b61ffff169083015261575986890161393c565b6001600160a01b031688830152858701358783015260c061577b8188016151c3565b62ffffff169083015260e0615791878201614276565b60ff16908301526101006157a6878201615681565b1515908301526101206157ba878201615681565b1515908301526101406157ce878201615681565b1515908301526101606157e2878201615681565b1515908301526101806157f6878201615681565b1515908301526101a061580a878201615681565b15159083015294820194908201906001016156eb565b5061582d60208a01614287565b63ffffffff811660208c0152965061584760408a01614276565b60ff811660408c0152965061585e60608a0161393c565b6001600160a01b03811660608c015296506146e3565b803561587f816140b6565b151582526020810135615891816140b6565b1515602083015260408101356158a6816140b6565b1515604083015260608101356158bb816140b6565b8015156060840152505050565b8381526060602082015260006158de84856142e0565b61016060608501526158f56101c085018284614326565b91505061590560208601866142e0565b605f198086850301608087015261591d848385614326565b935061592c60408901896142e0565b93509150808685030160a0870152615945848484614326565b93506159536060890161393c565b6001600160a01b03811660c0880152925061597160808901896142e0565b93509150808685030160e087015261598a848484614326565b935061599960a0890189614eb6565b9250808685030161010087015250506159b2828261568c565b9150506159c160c0860161393c565b6001600160a01b03166101208401526159e1610140840160e08701615874565b604092909201929092529392505050565b600060208284031215615a0457600080fd5b81356109bd816140b6565b604081526000615a226040830185613c38565b90508260208301529392505050565b606081526000615a446060830186613c38565b8281036020840152615a568186615377565b9150506001600160a01b0383166040830152949350505050565b848152836020820152606060408201526000615a9060608301848661528f565b9695505050505050565b60006020808385031215615aad57600080fd5b825167ffffffffffffffff811115615ac457600080fd5b8301601f81018513615ad557600080fd5b8051615ae361449082614417565b81815260059190911b82018301908381019087831115615b0257600080fd5b928401925b828410156107a1578351615b1a81613924565b82529284019290840190615b07565b634e487b7160e01b600052601260045260246000fd5b600060208284031215615b5157600080fd5b81356109bd81613f9b565b63ffffffff881681526001600160a01b038716602082015260a060408201526000615b8b60a083018789614326565b8281036060840152615b9e818688614326565b91505082608083015298975050505050505050565b600060208284031215615bc557600080fd5b6109bd82614f15565b600060208284031215615be057600080fd5b81356109bd8161409b565b600060208284031215615bfd57600080fd5b81356109bd81613fb8565b604081526000615c1b6040830185613c38565b8281036020840152610f6d8185613c38565b6000808335601e19843603018112615c4457600080fd5b83018035915067ffffffffffffffff821115615c5f57600080fd5b6020019150600781901b360382131561385057600080fd5b600060208284031215615c8957600080fd5b6109bd826151c3565b6000808335601e19843603018112615ca957600080fd5b83018035915067ffffffffffffffff821115615cc457600080fd5b602001915060608102360382131561385057600080fd5b600060208284031215615ced57600080fd5b6109bd82614f2a565b60008235609e198336030181126147de57600080fd5b60008151808452602080850194506020840160005b83811015614a6b5781516001600160a01b031687529582019590820190600101615d21565b600060208083018184528085518083526040925060408601915060408160051b87010184880160005b83811015615dfe57888303603f19018552815180516001600160a01b031684528781015162ffffff1688850152868101516001600160681b03168785015260608082015163ffffffff908116918601919091526080808301519091169085015260a09081015160c091850182905290615dea81860183615d0c565b968901969450505090860190600101615d6f565b509098975050505050505050565b6000808335601e19843603018112615e2357600080fd5b83018035915067ffffffffffffffff821115615e3e57600080fd5b6020019150600681901b360382131561385057600080fdfea26469706673582212206a7fd79e8c678f448a2e17f43b61998039131a706d0db133cb3da00f8ecec6fa64736f6c63430008170033",
	"deployedBytecode": "0x6080604052600436106101d65760003560e01c806388bc2ef311610102578063bb19940211610095578063dbfbe5da11610064578063dbfbe5da146106c5578063ee0fc121146106f9578063f434c9141461072d578063fb82b1b01461076157600080fd5b8063bb19940214610650578063c22903b21461067d578063c57981b514610690578063db29c892146106a557600080fd5b8063abf8c5c8116100d1578063abf8c5c8146105b1578063b5d25533146105e5578063b8a843d714610619578063b987005d1461063057600080fd5b806388bc2ef3146104ec5780638cc3584614610520578063902b742e1461054e578063a71dea391461058457600080fd5b8063437e61071161017a578063677ce08811610149578063677ce088146104435780637249a77314610463578063752141b2146104995780637da0a877146104b957600080fd5b8063437e61071461034f57806347401eab1461038c5780634fa9af69146103c9578063572b6c05146103f657600080fd5b8063150b7a02116101b6578063150b7a02146102605780631680e17214610299578063293c4999146102cd5780633b7ae8071461031957600080fd5b80622c2010146101db57806244a0051461020e57806301ffc9a714610230575b600080fd5b3480156101e757600080fd5b506101fb6101f6366004613869565b610791565b6040519081526020015b60405180910390f35b34801561021a57600080fd5b5061022e61022936600461394c565b6107ac565b005b34801561023c57600080fd5b5061025061024b36600461397c565b610845565b6040519015158152602001610205565b34801561026c57600080fd5b5061028061027b3660046139e8565b6108fd565b6040516001600160e01b03199091168152602001610205565b3480156102a557600080fd5b506101fb7f000000000000000000000000000000000000000000000000000000000000000381565b3480156102d957600080fd5b506103017f0000000000000000000000009b52a59f108e36ce0a8eba595eca22dbadbe655f81565b6040516001600160a01b039091168152602001610205565b34801561032557600080fd5b50610301610334366004613a5b565b6003602052600090815260409020546001600160a01b031681565b34801561035b57600080fd5b506101fb61036a366004613a74565b6000602081815293815260408082208552928152828120909352825290205481565b34801561039857600080fd5b506103ac6103a7366004613aad565b610946565b604080519283526001600160a01b03909116602083015201610205565b3480156103d557600080fd5b506101fb6103e4366004613a5b565b60026020526000908152604090205481565b34801561040257600080fd5b50610250610411366004613bbb565b7f000000000000000000000000b2b5841dbef766d4b521221732f9b618fcf34a876001600160a01b0390811691161490565b34801561044f57600080fd5b5061025061045e36600461394c565b61096c565b34801561046f57600080fd5b5061030161047e366004613a5b565b6001602052600090815260409020546001600160a01b031681565b3480156104a557600080fd5b506102506104b4366004613a5b565b6109c4565b3480156104c557600080fd5b507f000000000000000000000000b2b5841dbef766d4b521221732f9b618fcf34a87610301565b3480156104f857600080fd5b506103017f0000000000000000000000005adb234602d074064c216c1fdb23c6c2031f0c7581565b34801561052c57600080fd5b5061054061053b366004613bd8565b610a82565b604051610205929190613c64565b34801561055a57600080fd5b50610301610569366004613a5b565b6004602052600090815260409020546001600160a01b031681565b34801561059057600080fd5b506101fb61059f366004613a5b565b60056020526000908152604090205481565b3480156105bd57600080fd5b506103017f000000000000000000000000739afa8b58ccec832acff7465f6f640199cf4d3581565b3480156105f157600080fd5b506103017f000000000000000000000000f908124d6b59799cb5bc0ea4fa9209461641724f81565b34801561062557600080fd5b506101fb62278d0081565b34801561063c57600080fd5b5061022e61064b366004613a74565b610ca3565b34801561065c57600080fd5b5061067061066b366004613cf5565b610ede565b6040516102059190613d68565b61022e61068b366004613db5565b610f76565b34801561069c57600080fd5b506101fb601981565b3480156106b157600080fd5b506102506106c036600461394c565b61125f565b3480156106d157600080fd5b506103017f0000000000000000000000006304fc4489ba12f36250404882adedc756d1524681565b34801561070557600080fd5b506103017f00000000000000000000000074fc0e2cb3eb5a2742f8b9f0d6f1263dd3664b5d81565b34801561073957600080fd5b506103017f0000000000000000000000004886c30c81a17a3a1084fd1812008fa0f71a20b981565b34801561076d57600080fd5b5061078161077c366004613df1565b611301565b6040516102059493929190613e2d565b60006107a18787878787876115a0565b979650505050505050565b6107bd826107b8611b53565b611bc8565b806001600160a01b0316827f0329d6a81434b130c72eb65eea0e32e429dc1277b4aad86ec86454aefb6184516107f1611b53565b6040516001600160a01b03909116815260200160405180910390a361083730610818611b53565b60408051600081526020810190915266ffffffffffffff861690611bef565b6108418282611c95565b5050565b60006001600160e01b031982167f8c57a5a20000000000000000000000000000000000000000000000000000000014806108a857506001600160e01b031982167f103d097e00000000000000000000000000000000000000000000000000000000145b806108dc57506001600160e01b031982167fc22903b200000000000000000000000000000000000000000000000000000000145b806108f757506001600160e01b03198216630a85bd0160e11b145b92915050565b6000336001600160a01b037f0000000000000000000000009b52a59f108e36ce0a8eba595eca22dbadbe655f161461093457600080fd5b50630a85bd0160e11b95945050505050565b60008061095a8b8b8b8b8b8b8b8b8b611cba565b909c909b509950505050505050505050565b6000828152600160205260408120546001600160a01b03838116911614806109ad57506000838152600360205260409020546001600160a01b038381169116145b806109bd57506109bd8383611fab565b9392505050565b6040517f419296260000000000000000000000000000000000000000000000000000000081526004810182905260009081906001600160a01b037f00000000000000000000000074fc0e2cb3eb5a2742f8b9f0d6f1263dd3664b5d169063419296269060240161038060405180830381865afa158015610a48573d6000803e3d6000fd5b505050506040513d601f19601f82011682018060405250810190610a6c91906140cf565b610240015160021c600190811614949350505050565b60c081013560009081526001602052604081205460609081906001600160a01b03168015610b3e576040517f8cc358460000000000000000000000000000000000000000000000000000000081526001600160a01b03821690638cc3584690610aef90889060040161434f565b600060405180830381865afa158015610b0c573d6000803e3d6000fd5b505050506040513d6000823e601f3d908101601f19168201604052610b34919081019061443b565b9094509150610b47565b84610120013593505b815160c0860135600090815260046020526040902054901515906001600160a01b031680151582610b79576000610b7c565b60015b81610b88576000610b8b565b60015b610b9591906145b6565b60ff1667ffffffffffffffff811115610bb057610bb0613ecd565b604051908082528060200260200182016040528015610bfd57816020015b60408051606080820183526000808352602083015291810191909152815260200190600190039081610bce5790505b5095508015610c59576040518060600160405280836001600160a01b03168152602001600081526020016040518060200160405280600081525081525086600081518110610c4d57610c4d6145cf565b60200260200101819052505b8215610c995784600081518110610c7257610c726145cf565b602002602001015186600181518110610c8d57610c8d6145cf565b60200260200101819052505b5050505050915091565b427f00000000000000000000000074fc0e2cb3eb5a2742f8b9f0d6f1263dd3664b5d6001600160a01b031663d4a1b4b16040518163ffffffff1660e01b8152600401602060405180830381865afa158015610d02573d6000803e3d6000fd5b505050506040513d601f19601f82011682018060405250810190610d2691906145e5565b6040517f25a61d5c00000000000000000000000000000000000000000000000000000000815260048101869052602481018590526001600160a01b0391909116906325a61d5c9060440161012060405180830381865afa158015610d8e573d6000803e3d6000fd5b505050506040513d601f19601f82011682018060405250810190610db29190614602565b6060015165ffffffffffff161115610df6576040517fa301d70600000000000000000000000000000000000000000000000000000000815260040160405180910390fd5b60008381526020818152604080832085845282528083206001600160a01b038516845290915281205490819003610e2d5750505050565b60008481526020818152604080832086845282528083206001600160a01b03861684528252808320839055868352600590915281208054839290610e7290849061461f565b90915550506001600160a01b03821683857f0ad8046f3d571312df6d1867ac30c26e100f5684a9d7c2d3340c4e2a5b56360f84610ead611b53565b604080519283526001600160a01b0390911660208301520160405180910390a4610ed884828461201e565b50505050565b6060610eec856107b8611b53565b610ef5856109c4565b610f2b576040517f6af8376400000000000000000000000000000000000000000000000000000000815260040160405180910390fd5b610f6d8585858080601f0160208091040260200160405190810160405280939291908181526020018383808284376000920191909152508792506120e6915050565b95945050505050565b6040517f6e49181f000000000000000000000000000000000000000000000000000000008152602082013560048201523360248201527f0000000000000000000000005adb234602d074064c216c1fdb23c6c2031f0c756001600160a01b031690636e49181f90604401602060405180830381865afa158015610ffd573d6000803e3d6000fd5b505050506040513d601f19601f820116820180604052508101906110219190614632565b61103e57604051635577362560e11b815260040160405180910390fd5b600061104e6101c083018361464f565b81019061105b9190613bbb565b9050600061eeee61107461012085016101008601613bbb565b6001600160a01b031614611089576000611090565b6101608301355b90506001600160a01b03821663fef43257827f00000000000000000000000000000000000000000000000000000000000000036110d561012088016101008901613bbb565b6101608801356110e860208a018a613bbb565b60008a6020013560405160200161110191815260200190565b6040516020818303038152906040526040518863ffffffff1660e01b815260040161113196959493929190614696565b60206040518083038185885af19350505050801561116c575060408051601f3d908101601f19168201909252611169918101906146f0565b60015b610ed8573d80801561119a576040519150601f19603f3d011682016040523d82523d6000602084013e61119f565b606091505b5033639e6eec058360208701356111be61012089016101008a01613bbb565b604080517f000000000000000000000000000000000000000000000000000000000000000360208201526101608b013591600091016040516020818303038152906040526040518763ffffffff1660e01b8152600401611222959493929190614709565b6000604051808303818588803b15801561123b57600080fd5b505af115801561124f573d6000803e3d6000fd5b505050505050505050565b505050565b60007f0000000000000000000000004886c30c81a17a3a1084fd1812008fa0f71a20b96001600160a01b031663632af95f83308661129c886121fe565b6000806040518763ffffffff1660e01b81526004016112c09695949392919061474d565b602060405180830381865afa1580156112dd573d6000803e3d6000fd5b505050506040513d601f19601f820116820180604052508101906109bd9190614632565b6000808060606113236040860180359061131e9060208901613bbb565b611fab565b156113405761271093506080850135925060a08501359150611599565b60408086013560009081526002602052205442101561138b576040517fcef2c33600000000000000000000000000000000000000000000000000000000815260040160405180910390fd5b60006001600160a01b037f0000000000000000000000005adb234602d074064c216c1fdb23c6c2031f0c751663862026507f00000000000000000000000000000000000000000000000000000000000000036113ed60e08a0160c08b01613bbb565b6040516001600160e01b031960e085901b16815260048101929092526001600160a01b03166024820152604401602060405180830381865afa158015611437573d6000803e3d6000fd5b505050506040513d601f19601f8201168201806040525081019061145b91906145e5565b9050610160860135612710148061147957506001600160a01b038116155b1561149a5785610160013586608001358760a0013594509450945050611599565b60006114ae608088013560196103e8612376565b604080516001808252818301909252919250816020015b604080516060808201835260008083526020830152918101919091528152602001906001900390816114c55750506040805160608101909152308152909350602081016115226101208a01358460a08c01356101608d0135612466565b81526020018360405160200161154791906001600160a01b0391909116815260200190565b6040516020818303038152906040528152508360008151811061156c5761156c6145cf565b602090810291909101015261016087013561158b8260808a013561461f565b8860a0013595509550955050505b9193509193565b60008060006115ae886124df565b9150915088600003611670576001600160a01b037f00000000000000000000000074fc0e2cb3eb5a2742f8b9f0d6f1263dd3664b5d16634fb99a3f306115f48b806147c8565b61160290604081019061464f565b868c8c6040518763ffffffff1660e01b815260040161162696959493929190614d44565b6020604051808303816000875af1158015611645573d6000803e3d6000fd5b505050506040513d601f19601f8201168201806040525081019061166991906146f0565b9850611830565b6040517f6352211e000000000000000000000000000000000000000000000000000000008152600481018a90527f0000000000000000000000009b52a59f108e36ce0a8eba595eca22dbadbe655f6001600160a01b0316906342842e0e908290636352211e90602401602060405180830381865afa1580156116f6573d6000803e3d6000fd5b505050506040513d601f19601f8201168201806040525081019061171a91906145e5565b6040516001600160e01b031960e084901b1681526001600160a01b039091166004820152306024820152604481018c9052606401600060405180830381600087803b15801561176857600080fd5b505af115801561177c573d6000803e3d6000fd5b50506040517fb1d596850000000000000000000000000000000000000000000000000000000081526001600160a01b037f00000000000000000000000074fc0e2cb3eb5a2742f8b9f0d6f1263dd3664b5d16925063b1d5968591506117eb908c9086908c908c90600401614dad565b6020604051808303816000875af115801561180a573d6000803e3d6000fd5b505050506040513d601f19601f8201168201806040525081019061182e91906146f0565b505b6118698961184160608b018b614df6565b6000818110611852576118526145cf565b90506020028101906118649190614e40565b612a34565b6001600160a01b037f00000000000000000000000074fc0e2cb3eb5a2742f8b9f0d6f1263dd3664b5d1663581781918a6118a38b806147c8565b6118ad908061464f565b6118b78d806147c8565b6118c590602081019061464f565b6118cf8f806147c8565b606001356118db611b53565b6040516020016118fe9291909182526001600160a01b0316602082015260400190565b604051602081830303815290604052805190602001206040518763ffffffff1660e01b815260040161193596959493929190614e56565b6020604051808303816000875af1158015611954573d6000803e3d6000fd5b505050506040513d601f19601f8201168201806040525081019061197891906145e5565b5060006119886020870187613bbb565b6001600160a01b0316146119a0576119a08986612ae2565b60006119b260c08a0160a08b01613bbb565b6001600160a01b031614611a25576119db6119d360c08a0160a08b01613bbb565b8a6010612c5b565b6119eb60c0890160a08a01613bbb565b60008a8152600360205260409020805473ffffffffffffffffffffffffffffffffffffffff19166001600160a01b03929092169190911790555b6001600160a01b037f00000000000000000000000074fc0e2cb3eb5a2742f8b9f0d6f1263dd3664b5d1663ed1159578a6000611a6f611a6a60608e0160408f01613bbb565b612cb1565b6040518463ffffffff1660e01b8152600401611a8d93929190614e97565b600060405180830381600087803b158015611aa757600080fd5b505af1158015611abb573d6000803e3d6000fd5b50505050611ac98989612de2565b611ae289611add60608b0160408c01613bbb565b611c95565b602084013515611af957611af78982866120e6565b505b887fb46c6a1edcbbb0b6240eb055305610604e7c8af90455460b8d143cb85af8e8f189898989898888611b2a611b53565b604051611b3e9897969594939291906153ac565b60405180910390a25096979650505050505050565b60003660147f000000000000000000000000b2b5841dbef766d4b521221732f9b618fcf34a876001600160a01b031633148015611b905750808210155b15611bc057600036611ba2838561461f565b611bad92829061556c565b611bb691615596565b60601c9250505090565b339250505090565b611bd2828261125f565b61084157604051635577362560e11b815260040160405180910390fd5b604080516060810182526001600160a01b03808616825266ffffffffffffff8516602083015281830184905291517f893ce90100000000000000000000000000000000000000000000000000000000815290917f0000000000000000000000004886c30c81a17a3a1084fd1812008fa0f71a20b9169063893ce90190611c7b90889085906004016155cb565b600060405180830381600087803b15801561123b57600080fd5b61084130828466ffffffffffffff16611cb5611cb0876121fe565b6130fe565b611bef565b6000808a808203611d55577f0000000000000000000000009b52a59f108e36ce0a8eba595eca22dbadbe655f6001600160a01b03166306661abd6040518163ffffffff1660e01b8152600401602060405180830381865afa158015611d23573d6000803e3d6000fd5b505050506040513d601f19601f82011682018060405250810190611d4791906146f0565b611d52906001615657565b9b505b6001600160a01b037f000000000000000000000000739afa8b58ccec832acff7465f6f640199cf4d351663ea74b8af8d611d8f898061566a565b8960200135611d9c611b53565b604051602001611dbf9291909182526001600160a01b0316602082015260400190565b604051602081830303815290604052805190602001206040518463ffffffff1660e01b8152600401611df3939291906158c8565b6020604051808303816000875af1158015611e12573d6000803e3d6000fd5b505050506040513d601f19601f82011682018060405250810190611e3691906145e5565b60008d81526004602052604090819020805473ffffffffffffffffffffffffffffffffffffffff19166001600160a01b038416179055909250611e7f90606088019088016159f2565b15611ea75760008c815260066020908152604082208054600181018255908352912060149101555b611eb760808701606088016159f2565b15611edf5760008c815260066020908152604082208054600181018255908352912060159101555b611eef60a08701608088016159f2565b15611f175760008c815260066020908152604082208054600181018255908352912060169101555b611f2760c0870160a088016159f2565b15611f4f5760008c815260066020908152604082208054600181018255908352912060179101555b611f5a82868661319e565b15611f8b57611f8b7f0000000000000000000000006304fc4489ba12f36250404882adedc756d152468d6014612c5b565b611f99818c8c8c8c8c6115a0565b509a9b909a5098505050505050505050565b6040517f83db9d01000000000000000000000000000000000000000000000000000000008152600481018390526001600160a01b0382811660248301526000917f000000000000000000000000f908124d6b59799cb5bc0ea4fa9209461641724f909116906383db9d01906044016112c0565b6040517fc7fb92de00000000000000000000000000000000000000000000000000000000815260048101849052602481018390526001600160a01b03828116604483015260a06064830152600060a4830181905260848301527f00000000000000000000000074fc0e2cb3eb5a2742f8b9f0d6f1263dd3664b5d169063c7fb92de9060c4016020604051808303816000875af11580156120c2573d6000803e3d6000fd5b505050506040513d601f19601f82011682018060405250810190610ed891906146f0565b60606000838360200135604051602001612101929190615a0f565b60405160208183030381529060405280519060200120905080857f755ecfca2f6e66af8868551556bf7931740a7062db8e0882f4c322fdb0bb3f608686612146611b53565b60405161215593929190615a31565b60405180910390a36001600160a01b037f000000000000000000000000f908124d6b59799cb5bc0ea4fa9209461641724f16632f3f50e086836121988780614df6565b6040518563ffffffff1660e01b81526004016121b79493929190615a70565b6000604051808303816000875af11580156121d6573d6000803e3d6000fd5b505050506040513d6000823e601f3d908101601f19168201604052610f6d9190810190615a9a565b600081815260066020908152604080832080548251818502810185019093528083526060949383018282801561225357602002820191906000526020600020905b81548152602001906001019080831161223f575b50505050509050805160036122689190615657565b67ffffffffffffffff81111561228057612280613ecd565b6040519080825280602002602001820160405280156122a9578160200160208202803683370190505b509150601160ff16826000815181106122c4576122c46145cf565b602002602001018181525050601960ff16826001815181106122e8576122e86145cf565b602002602001018181525050600660ff168260028151811061230c5761230c6145cf565b60200260200101818152505060005b815181101561236f57818181518110612336576123366145cf565b60200260200101518382600361234c9190615657565b8151811061235c5761235c6145cf565b602090810291909101015260010161231b565b5050919050565b60008080600019858709858702925082811083820303915050806000036123b0578382816123a6576123a6615b29565b04925050506109bd565b8381106123fe576040517f63a0577800000000000000000000000000000000000000000000000000000000815260048101879052602481018690526044810185905260640160405180910390fd5b600084868809600260036001881981018916988990049182028318808302840302808302840302808302840302808302840302808302840302918202909203026000889003889004909101858311909403939093029303949094049190911702949350505050565b600061270f19820161247a575060006124d7565b8284106124885750836124d7565b6000612495868686612376565b9050826000036124a65790506124d7565b6124d3816124b5858888612376565b6124c18661271061461f565b6124cb9190615657565b612710612376565b9150505b949350505050565b6060806124ee83820184614df6565b9050600003612529576040517f141d479400000000000000000000000000000000000000000000000000000000815260040160405180910390fd5b6125366060840184614df6565b905067ffffffffffffffff81111561255057612550613ecd565b60405190808252806020026020018201604052801561265a57816020015b6126476040805161010080820183526000808352602080840182905283850182905260608085018390526080808601849052865161026081018852848152928301849052958201839052810182905293840181905260a084810182905260c0850182905260e0850182905291840181905261012084018190526101408401819052610160840181905261018084018190526101a084018190526101c084018190526101e0840181905261020084018190526102208401819052610240840152909190820190815260200160608152602001606081525090565b81526020019060019003908161256e5790505b50915061266d6040840160208501615b3f565b61267d60c0850160a08601613bbb565b61268785806147c8565b612691908061464f565b61269b87806147c8565b6126a990602081019061464f565b6126b389806147c8565b606001356040516020016126cd9796959493929190615b5c565b604051602081830303815290604052905060006126e9846133fa565b90506000805b6126fc6060870187614df6565b9050811015612a2c57366127136060880188614df6565b83818110612723576127236145cf565b90506020028101906127359190614e40565b9050826127456020830183615bb3565b64ffffffffff1611612783576040517fb787fe6700000000000000000000000000000000000000000000000000000000815260040160405180910390fd5b61271061279660e0830160c08401615bce565b61ffff16106127d1576040517f1e9a99e300000000000000000000000000000000000000000000000000000000815260040160405180910390fd5b6040805161026081018252600080825260208201819052918101829052606081018290526080810182905260a0810182905260c0810182905260e08101829052610100810182905261012081018290526101408101829052610160810182905261018081018290526101a081018290526101c081018290526101e081018290526102008101829052610220810182905261024081019190915261287a6060830160408401615bce565b61ffff16815261289060e0830160c08401615bce565b61ffff166020808301919091526128ad9060408a01908a01615b3f565b63ffffffff166040820152600160a082018190526101e0820152306102208201526128df610100830160e08401615bce565b61ffff16610240820152604080516101008101909152806129036020850185615bb3565b64ffffffffff16815260200161291f60a0850160808601615b3f565b63ffffffff16815260200161293a6080850160608601615beb565b6dffffffffffffffffffffffffffff16815260200161295f60c0850160a08601615b3f565b63ffffffff16815260006020808301829052604080840186905280518381529182019052606090920191906129b7565b60408051808201909152600081526060602082015281526020019060019003908161298f5790505b508152602001868152508784815181106129d3576129d36145cf565b6020026020010181905250856129e9838561361f565b6040516020016129fa929190615c08565b60408051601f198184030181529190529550612a196020830183615bb3565b64ffffffffff16935050506001016126ef565b505050915091565b612a416020820182615bb3565b64ffffffffff161580612a67575042612a5d6020830183615bb3565b64ffffffffff1610155b15612a70575050565b6000612a7f62278d0042615657565b60008481526002602052604090208190559050827f48a9634f50564cfe6648ff5e75795a36873bf96c408523d50017032657e6719882612abd611b53565b604080519283526001600160a01b0390911660208301520160405180910390a2505050565b612aef6020820182613bbb565b6000838152600160205260408120805473ffffffffffffffffffffffffffffffffffffffff19166001600160a01b0393909316929092179091555b612b376020830183615c2d565b905081101561125a5736612b4e6020840184615c2d565b83818110612b5e57612b5e6145cf565b608002919091019150612b7690506020840184613bbb565b6001600160a01b0316637b621d3a85612b956040850160208601615c77565b612ba56060860160408701615b3f565b612bb56080870160608801615b3f565b612bc26020880188613bbb565b6040516001600160e01b031960e088901b168152600481019590955262ffffff909316602485015263ffffffff91821660448501521660648301526001600160a01b0316608482015260a4016020604051808303816000875af1158015612c2d573d6000803e3d6000fd5b505050506040513d601f19601f82011682018060405250810190612c5191906145e5565b5050600101612b2a565b604080516001808252818301909252600091602080830190803683370190505090508181600081518110612c9157612c916145cf565b602002602001019060ff16908160ff1681525050610ed830858584611bef565b60408051600180825281830190925260609160009190816020015b6040805160c08101825260008082526020808301829052928201819052606082018190526080820181905260a08201528252600019909201910181612ccc5750506040805160c0810182526000808252633b9aca0060208301529181018290526001600160a01b03861660608201526080810182905260a08101829052825192935091839190612d5e57612d5e6145cf565b602090810291909101015260408051600180825281830190925290816020015b604080518082019091526000815260606020820152815260200190600190039081612d7e5790505091506040518060400160405280600181526020018281525082600081518110612dd157612dd16145cf565b602002602001018190525050919050565b6000805b612df36060840184614df6565b90508110156130e75736612e0a6060850185614df6565b83818110612e1a57612e1a6145cf565b9050602002810190612e2c9190614e40565b905060005b612e3e6020830183615c92565b90508110156130dd5736612e556020840184615c92565b83818110612e6557612e656145cf565b606002919091019150469050612e7e6020830183615b3f565b63ffffffff1614612e8f57506130d5565b612e9f6040820160208301615cdb565b6001600160681b0316600003612eb557506130d5565b612ec56060820160408301613bbb565b6001600160a01b0316612ed88542615657565b887f5c05d79eeb764b1f5069fb55a8558e8a5cec91813a64282bc198dc9084c75df0612f0a6040860160208701615cdb565b612f12611b53565b604080516001600160681b0390931683526001600160a01b0390911660208301520160405180910390a4831580612f5c575042612f526020850185615bb3565b64ffffffffff1611155b1561301f57612f716060820160408301613bbb565b6001600160a01b0316612f848542615657565b887f0ad8046f3d571312df6d1867ac30c26e100f5684a9d7c2d3340c4e2a5b56360f612fb66040860160208701615cdb565b612fbe611b53565b604080516001600160681b0390931683526001600160a01b0390911660208301520160405180910390a461301a87612ffc6040840160208501615cdb565b6001600160681b03166130156060850160408601613bbb565b61201e565b6130d3565b61302f6040820160208301615cdb565b60008881526020819052604081206001600160681b039290921691906130558742615657565b815260200190815260200160002060008360400160208101906130789190613bbb565b6001600160a01b03166001600160a01b0316815260200190815260200160002060008282546130a79190615657565b909155506130bd90506040820160208301615cdb565b6130d0906001600160681b031686615657565b94505b505b600101612e31565b5050600101612de6565b506000928352600560205260409092209190915550565b6060815167ffffffffffffffff81111561311a5761311a613ecd565b604051908082528060200260200182016040528015613143578160200160208202803683370190505b50905060005b825181101561319857828181518110613164576131646145cf565b602002602001015182828151811061317e5761317e6145cf565b60ff90921660209283029190910190910152600101613149565b50919050565b60008181036131af575060006109bd565b60008267ffffffffffffffff8111156131ca576131ca613ecd565b60405190808252806020026020018201604052801561322c57816020015b6040805160c081018252600080825260208083018290529282018190526060808301829052608083019190915260a082015282526000199092019101816131e85790505b50905060005b83811015613357573685858381811061324d5761324d6145cf565b905060200281019061325f9190615cf6565b90506040518060c00160405280886001600160a01b0316815260200182600001602081019061328e9190615c77565b62ffffff1681526020018260200160208101906132ab9190615cdb565b6001600160681b031681526020016132c96060840160408501615b3f565b63ffffffff1681526020016132e46080840160608501615b3f565b63ffffffff1681526020016132fc6080840184614df6565b8080602002602001604051908101604052809392919081815260200183836020028082843760009201919091525050509152508351849084908110613343576133436145cf565b602090810291909101015250600101613232565b506040517f441e4d340000000000000000000000000000000000000000000000000000000081526001600160a01b037f0000000000000000000000006304fc4489ba12f36250404882adedc756d15246169063441e4d34906133bd908490600401615d46565b600060405180830381600087803b1580156133d757600080fd5b505af11580156133eb573d6000803e3d6000fd5b50600198975050505050505050565b60408051600180825281830190925260609160009190816020015b60408051808201909152600080825260208201528152602001906001900390816134155750506040805180820182527bffffffffffffffffffffffffffffffffffffffffffffffffffffffff815291925060208083019161347b91908701908701615b3f565b63ffffffff1681525081600081518110613497576134976145cf565b60209081029190910101526134af6080840184615e0c565b905067ffffffffffffffff8111156134c9576134c9613ecd565b60405190808252806020026020018201604052801561351d57816020015b60408051608081018252600080825260208201526060918101829052818101919091528152602001906001900390816134e75790505b50915060005b6135306080850185615e0c565b905081101561236f57366135476080860186615e0c565b83818110613557576135576145cf565b9050604002019050604051806080016040528082602001602081019061357d9190613bbb565b6001600160a01b0316815260209081019061359a90840184613bbb565b6001600160a01b0316815260200160006040519080825280602002602001820160405280156135ef57816020015b60408051808201909152600080825260208201528152602001906001900390816135c85790505b5081526020018481525084838151811061360b5761360b6145cf565b602090810291909101015250600101613523565b60608115801561364057506136376020840184615bb3565b64ffffffffff16155b61365d576136516020840184615bb3565b64ffffffffff1661365f565b425b61366f6060850160408601615bce565b61367f6080860160608701615beb565b61368f60a0870160808801615b3f565b61369f60c0880160a08901615b3f565b6136af60e0890160c08a01615bce565b60408051602081019790975261ffff958616908701526dffffffffffffffffffffffffffff909316606086015263ffffffff91821660808601521660a08401521660c082015260e001604051602081830303815290604052905060005b6137196020850185615c92565b9050811015613779578161374e6137336020870187615c92565b84818110613743576137436145cf565b905060600201613780565b60405160200161375f929190615c08565b60408051601f19818403018152919052915060010161370c565b5092915050565b606061378f6020830183615b3f565b61379f6060840160408501613bbb565b6137af6040850160208601615cdb565b6040805163ffffffff90941660208501526001600160a01b03909216918301919091526001600160681b031660608201526080016040516020818303038152906040529050919050565b600060c0828403121561319857600080fd5b60008083601f84011261381d57600080fd5b50813567ffffffffffffffff81111561383557600080fd5b6020830191508360208260051b850101111561385057600080fd5b9250929050565b60006040828403121561319857600080fd5b60008060008060008060a0878903121561388257600080fd5b86359550602087013567ffffffffffffffff808211156138a157600080fd5b6138ad8a838b016137f9565b965060408901359150808211156138c357600080fd5b6138cf8a838b0161380b565b909650945060608901359150808211156138e857600080fd5b6138f48a838b01613857565b9350608089013591508082111561390a57600080fd5b5061391789828a01613857565b9150509295509295509295565b6001600160a01b038116811461393957600080fd5b50565b803561394781613924565b919050565b6000806040838503121561395f57600080fd5b82359150602083013561397181613924565b809150509250929050565b60006020828403121561398e57600080fd5b81356001600160e01b0319811681146109bd57600080fd5b60008083601f8401126139b857600080fd5b50813567ffffffffffffffff8111156139d057600080fd5b60208301915083602082850101111561385057600080fd5b600080600080600060808688031215613a0057600080fd5b8535613a0b81613924565b94506020860135613a1b81613924565b935060408601359250606086013567ffffffffffffffff811115613a3e57600080fd5b613a4a888289016139a6565b969995985093965092949392505050565b600060208284031215613a6d57600080fd5b5035919050565b600080600060608486031215613a8957600080fd5b83359250602084013591506040840135613aa281613924565b809150509250925092565b600080600080600080600080600060e08a8c031215613acb57600080fd5b8935985060208a013567ffffffffffffffff80821115613aea57600080fd5b613af68d838e016137f9565b995060408c0135915080821115613b0c57600080fd5b613b188d838e0161380b565b909950975060608c0135915080821115613b3157600080fd5b613b3d8d838e01613857565b965060808c0135915080821115613b5357600080fd5b613b5f8d838e01613857565b955060a08c0135915080821115613b7557600080fd5b613b818d838e016137f9565b945060c08c0135915080821115613b9757600080fd5b50613ba48c828d0161380b565b915080935050809150509295985092959850929598565b600060208284031215613bcd57600080fd5b81356109bd81613924565b600060208284031215613bea57600080fd5b813567ffffffffffffffff811115613c0157600080fd5b820161018081850312156109bd57600080fd5b60005b83811015613c2f578181015183820152602001613c17565b50506000910152565b60008151808452613c50816020860160208601613c14565b601f01601f19169290920160200192915050565b6000604080830185845260206040818601528186518084526060935060608701915060608160051b88010183890160005b83811015613ce557898303605f19018552815180516001600160a01b031684528681015187850152880151888401889052613cd288850182613c38565b9587019593505090850190600101613c95565b50909a9950505050505050505050565b60008060008060608587031215613d0b57600080fd5b84359350602085013567ffffffffffffffff80821115613d2a57600080fd5b613d36888389016139a6565b90955093506040870135915080821115613d4f57600080fd5b50613d5c87828801613857565b91505092959194509250565b6020808252825182820181905260009190848201906040850190845b81811015613da95783516001600160a01b031683529284019291840191600101613d84565b50909695505050505050565b600060208284031215613dc757600080fd5b813567ffffffffffffffff811115613dde57600080fd5b820161020081850312156109bd57600080fd5b600060208284031215613e0357600080fd5b813567ffffffffffffffff811115613e1a57600080fd5b82016101a081850312156109bd57600080fd5b60006080820186835260208681850152604086604086015260606080606087015283875180865260a08801915060a08160051b890101955084890160005b82811015613ebb57898803609f19018452815180516001600160a01b0316895287810151888a0152860151868901869052613ea8868a0182613c38565b9850509286019290860190600101613e6b565b50959c9b505050505050505050505050565b634e487b7160e01b600052604160045260246000fd5b604051610120810167ffffffffffffffff81118282101715613f0757613f07613ecd565b60405290565b604051610260810167ffffffffffffffff81118282101715613f0757613f07613ecd565b6040516060810167ffffffffffffffff81118282101715613f0757613f07613ecd565b604051601f8201601f1916810167ffffffffffffffff81118282101715613f7d57613f7d613ecd565b604052919050565b805165ffffffffffff8116811461394757600080fd5b63ffffffff8116811461393957600080fd5b805161394781613f9b565b6dffffffffffffffffffffffffffff8116811461393957600080fd5b805161394781613fb8565b805161394781613924565b60006101208284031215613ffd57600080fd5b614005613ee3565b905061401082613f85565b815261401e60208301613f85565b602082015261402f60408301613f85565b604082015261404060608301613f85565b606082015261405160808301613fad565b608082015261406260a08301613fd4565b60a082015261407360c08301613fad565b60c082015261408460e08301613fdf565b60e082015261010080830151818301525092915050565b61ffff8116811461393957600080fd5b80516139478161409b565b801515811461393957600080fd5b8051613947816140b6565b6000808284036103808112156140e457600080fd5b6140ee8585613fea565b92506102608061011f198301121561410557600080fd5b61410d613f0d565b915061411c61012086016140ab565b825261014061412c8187016140ab565b602084015261016061413f818801613fad565b60408501526101806141528189016140c4565b60608601526101a0614165818a016140c4565b60808701526101c0614178818b016140c4565b60a08801526101e061418b818c016140c4565b60c089015261020061419e818d016140c4565b60e08a01526102206141b1818e016140c4565b6101008b01526102406141c5818f016140c4565b6101208c01526141d68a8f016140c4565b898c01526141e76102808f016140c4565b888c01526141f86102a08f016140c4565b878c01526142096102c08f016140c4565b868c015261421a6102e08f016140c4565b858c015261422b6103008f016140c4565b848c015261423c6103208f016140c4565b838c015261424d6103408f01613fdf565b828c015261425e6103608f016140ab565b908b015250999c979b50969950505050505050505050565b803560ff8116811461394757600080fd5b803561394781613f9b565b803561429d81613924565b6001600160a01b0316825260ff6142b660208301614276565b16602083015260408101356142ca81613f9b565b63ffffffff166040830152606090810135910152565b6000808335601e198436030181126142f757600080fd5b830160208101925035905067ffffffffffffffff81111561431757600080fd5b80360382131561385057600080fd5b81835281816020850137506000828201602090810191909152601f909101601f19169091010190565b60208152614370602082016143638461393c565b6001600160a01b03169052565b600061437e6020840161393c565b6001600160a01b03811660408401525061439e6060830160408501614292565b60c083013560e083015261010060e0840135818401526143bf81850161393c565b90506101206143d8818501836001600160a01b03169052565b610140915080850135828501525061016081850135818501526143fd818601866142e0565b6101808681015292509050610f6d6101a085018383614326565b600067ffffffffffffffff82111561443157614431613ecd565b5060051b60200190565b6000806040838503121561444e57600080fd5b8251915060208084015167ffffffffffffffff8082111561446e57600080fd5b818601915086601f83011261448257600080fd5b815161449561449082614417565b613f54565b81815260059190911b830184019084810190898311156144b457600080fd5b8585015b8381101561458f578051858111156144cf57600080fd5b8601601f196060828e03820112156144e657600080fd5b6144ee613f31565b898301516144fb81613924565b815260408301518a82015260608301518881111561451857600080fd5b8084019350508d603f84011261452d57600080fd5b898301518881111561454157614541613ecd565b6145518b84601f84011601613f54565b92508083528e604082860101111561456857600080fd5b614578818c850160408701613c14565b5060408101919091528452509186019186016144b8565b508096505050505050509250929050565b634e487b7160e01b600052601160045260246000fd5b60ff81811683821601908111156108f7576108f76145a0565b634e487b7160e01b600052603260045260246000fd5b6000602082840312156145f757600080fd5b81516109bd81613924565b6000610120828403121561461557600080fd5b6109bd8383613fea565b818103818111156108f7576108f76145a0565b60006020828403121561464457600080fd5b81516109bd816140b6565b6000808335601e1984360301811261466657600080fd5b83018035915067ffffffffffffffff82111561468157600080fd5b60200191503681900382131561385057600080fd5b86815260006001600160a01b03808816602084015286604084015280861660608401525083608083015260e060a0830152600060e08301526101008060c08401526146e381840185613c38565b9998505050505050505050565b60006020828403121561470257600080fd5b5051919050565b8581526001600160a01b0385166020820152836040820152821515606082015260c06080820152600060c082015260e060a082015260006107a160e0830184613c38565b600060c082016001600160a01b03808a1684526020818a16602086015288604086015260c06060860152829150875180845260e08601925060208901935060005b818110156147aa5784518452938201939282019260010161478e565b5050509415156080840152505090151560a090910152949350505050565b60008235607e198336030181126147de57600080fd5b9190910192915050565b805161ffff1682526020810151614805602084018261ffff169052565b50604081015161481d604084018263ffffffff169052565b506060810151614831606084018215159052565b506080810151614845608084018215159052565b5060a081015161485960a084018215159052565b5060c081015161486d60c084018215159052565b5060e081015161488160e084018215159052565b5061010081810151151590830152610120808201511515908301526101408082015115159083015261016080820151151590830152610180808201511515908301526101a0808201511515908301526101c0808201511515908301526101e08082015115159083015261020080820151151590830152610220808201516001600160a01b0316908301526102408082015161ffff811682850152610ed8565b600082825180855260208086019550808260051b8401018186016000805b858110156149fd57868403601f19018a52825180518552850151604086860181905281518187018190529187019160609081880190865b818110156149e65785518051151584528b81015163ffffffff168c8501528581015166ffffffffffffff1686850152848101516001600160a01b039081168686015260808083015165ffffffffffff169086015260a0918201511690840152948a019460c090920191600101614975565b50509c88019c96505050928501925060010161493e565b509198975050505050505050565b60008151808452602080850194506020840160005b83811015614a6b57815180517bffffffffffffffffffffffffffffffffffffffffffffffffffffffff16885283015163ffffffff168388015260409096019590820190600101614a20565b509495945050505050565b600082825180855260208086019550808260051b84010181860160005b84811015614b0a57601f19868403018952815160806001600160a01b0380835116865280878401511687870152506040808301518282880152614ad883880182614a0b565b9250505060608083015192508582038187015250614af68183614a0b565b9a86019a9450505090830190600101614a93565b5090979650505050505050565b600082825180855260208086019550808260051b84010181860160005b84811015614b0a57601f198684030189528151805165ffffffffffff1684528481015163ffffffff908116868601526040808301516dffffffffffffffffffffffffffff1690860152606080830151909116908501526080808201516001600160a01b03169085015260a0808201516103409190614bb4828801826147e8565b505060c082015181610300870152614bce82870182614920565b91505060e08201519150848103610320860152614beb8183614a76565b9a86019a9450505090830190600101614b34565b6000808335601e19843603018112614c1657600080fd5b830160208101925035905067ffffffffffffffff811115614c3657600080fd5b60608102360382131561385057600080fd5b60008235603e19833603018112614c5e57600080fd5b90910192915050565b60008383855260208086019550808560051b830101846000805b888110156149fd57858403601f19018a52614c9c8389614c48565b60408086018235614cac81613924565b6001600160a01b038082168952614cc58a860186614bff565b8a8c01869052938490529294506060929150828901875b86811015614d2c578335614cef81613924565b8316825260ff614d00858e01614276565b168c83015285840135614d1281613f9b565b63ffffffff16828701529284019290840190600101614cdc565b509e8a019e9850505094870194505050600101614c81565b6001600160a01b038716815260a060208201526000614d6760a083018789614326565b8281036040840152614d798187614b17565b90508281036060840152614d8e818587614c67565b8381036080909401939093525050600081526020019695505050505050565b848152608060208201526000614dc66080830186614b17565b8281036040840152614dd9818587614c67565b838103606090940193909352505060008152602001949350505050565b6000808335601e19843603018112614e0d57600080fd5b83018035915067ffffffffffffffff821115614e2857600080fd5b6020019150600581901b360382131561385057600080fd5b6000823560fe198336030181126147de57600080fd5b868152608060208201526000614e70608083018789614326565b8281036040840152614e83818688614326565b915050826060830152979650505050505050565b838152826020820152606060408201526000610f6d6060830184614920565b60008235607e19833603018112614c5e57600080fd5b6000808335601e19843603018112614ee357600080fd5b830160208101925035905067ffffffffffffffff811115614f0357600080fd5b8060051b360382131561385057600080fd5b803564ffffffffff8116811461394757600080fd5b80356001600160681b038116811461394757600080fd5b80356139478161409b565b803561394781613fb8565b60008383855260208086019550808560051b8301018460005b87811015614b0a57848303601f1901895281353688900360fe19018112614f9657600080fd5b870161010084810164ffffffffff614fad84614f15565b168652614fbc87840184614bff565b87890193909352908290526101208601916000905b80821015615037578235614fe481613f9b565b63ffffffff1684526001600160681b03614fff848b01614f2a565b168985015260408084013561501381613924565b6001600160a01b031690850152606093840193929092019160019190910190614fd1565b5050506040615047818401614f41565b61ffff1690860152606061505c838201614f4c565b6dffffffffffffffffffffffffffff1690860152608061507d838201614287565b63ffffffff169086015260a0615094838201614287565b63ffffffff169086015260c06150ab838201614f41565b61ffff169086015260e06150c0838201614f41565b61ffff16950194909452509783019790830190600101614f70565b6000808335601e198436030181126150f257600080fd5b830160208101925035905067ffffffffffffffff81111561511257600080fd5b8060061b360382131561385057600080fd5b8183526000602080850194508260005b85811015614a6b57813561514781613924565b6001600160a01b039081168852828401359061516282613924565b16878401526040968701969190910190600101615134565b6000808335601e1984360301811261519157600080fd5b830160208101925035905067ffffffffffffffff8111156151b157600080fd5b8060071b360382131561385057600080fd5b803562ffffff8116811461394757600080fd5b6000604080840183356151e881613924565b6001600160a01b0390811686526020906152048683018761517a565b604060208a01529384905260609384890160005b8281101561528157833561522b81613924565b8516825262ffffff61523e8588016151c3565b16868301528784013561525081613f9b565b63ffffffff908116838a0152848801359061526a82613f9b565b168288015260809384019390910190600101615218565b509998505050505050505050565b60008383855260208086019550808560051b830101846000805b888110156149fd57858403601f19018a526152c48389614c48565b604080860182356152d481613924565b6001600160a01b0380821689526152ed8a86018661517a565b8a8c01869052938490529294506060929150828901875b8681101561535f57833561531781613924565b83168252838c013561532881613f9b565b63ffffffff16828d01528386013561533f81613924565b831682870152838501358583015260809384019390910190600101615304565b509e8a019e98505050948701945050506001016152a9565b60006153838283614ecc565b6040855261539560408601828461528f565b915050602083013560208501528091505092915050565b60e0815260006153bc8a8b614eb6565b60c060e08401526153cd81826142e0565b60806101a08601526153e461022086018284614326565b9150506153f460208301836142e0565b61019f1980878503016101c088015261540e848385614326565b935061541d60408601866142e0565b9350915080878503016101e088015250615438838383614326565b92505050606082013561020085015261545360208d01614287565b63ffffffff8116610100860152915061546e60408d0161393c565b6001600160a01b038116610120860152915061548d60608d018d614ecc565b925060df1980868403016101408701526154a8838584614f57565b93506154b760808f018f6150db565b935091508086850301610160870152506154d2838383615124565b925050506154e260a08c0161393c565b6001600160a01b03166101808401528281036020840152615504818a8c614c67565b9050828103604084015261551881896151d6565b9050828103606084015261552c8188615377565b905082810360808401526155408187614b17565b905082810360a08401526155548186613c38565b9150506146e360c08301846001600160a01b03169052565b6000808585111561557c57600080fd5b8386111561558957600080fd5b5050820193919092039150565b6bffffffffffffffffffffffff1981358181169160148510156155c35780818660140360031b1b83161692505b505092915050565b60006001600160a01b03808516835260206040602085015260a0840182865116604086015266ffffffffffffff6020870151166060860152604086015192506060608086015280835180835260c087019150602085019450600092505b8083101561564b57845160ff168252938301936001929092019190830190615628565b50979650505050505050565b808201808211156108f7576108f76145a0565b6000823561015e198336030181126147de57600080fd5b8035613947816140b6565b600060808084018335601e198536030181126156a757600080fd5b8401602081810191359067ffffffffffffffff8211156156c657600080fd5b6101c080830236038413156156da57600080fd5b608089529382905260a09384890160005b848110156158205761570d8261570088614f2a565b6001600160681b03169052565b615718848701614287565b63ffffffff1684830152604061572f878201614287565b63ffffffff16908301526060615746878201614f41565b61ffff169083015261575986890161393c565b6001600160a01b031688830152858701358783015260c061577b8188016151c3565b62ffffff169083015260e0615791878201614276565b60ff16908301526101006157a6878201615681565b1515908301526101206157ba878201615681565b1515908301526101406157ce878201615681565b1515908301526101606157e2878201615681565b1515908301526101806157f6878201615681565b1515908301526101a061580a878201615681565b15159083015294820194908201906001016156eb565b5061582d60208a01614287565b63ffffffff811660208c0152965061584760408a01614276565b60ff811660408c0152965061585e60608a0161393c565b6001600160a01b03811660608c015296506146e3565b803561587f816140b6565b151582526020810135615891816140b6565b1515602083015260408101356158a6816140b6565b1515604083015260608101356158bb816140b6565b8015156060840152505050565b8381526060602082015260006158de84856142e0565b61016060608501526158f56101c085018284614326565b91505061590560208601866142e0565b605f198086850301608087015261591d848385614326565b935061592c60408901896142e0565b93509150808685030160a0870152615945848484614326565b93506159536060890161393c565b6001600160a01b03811660c0880152925061597160808901896142e0565b93509150808685030160e087015261598a848484614326565b935061599960a0890189614eb6565b9250808685030161010087015250506159b2828261568c565b9150506159c160c0860161393c565b6001600160a01b03166101208401526159e1610140840160e08701615874565b604092909201929092529392505050565b600060208284031215615a0457600080fd5b81356109bd816140b6565b604081526000615a226040830185613c38565b90508260208301529392505050565b606081526000615a446060830186613c38565b8281036020840152615a568186615377565b9150506001600160a01b0383166040830152949350505050565b848152836020820152606060408201526000615a9060608301848661528f565b9695505050505050565b60006020808385031215615aad57600080fd5b825167ffffffffffffffff811115615ac457600080fd5b8301601f81018513615ad557600080fd5b8051615ae361449082614417565b81815260059190911b82018301908381019087831115615b0257600080fd5b928401925b828410156107a1578351615b1a81613924565b82529284019290840190615b07565b634e487b7160e01b600052601260045260246000fd5b600060208284031215615b5157600080fd5b81356109bd81613f9b565b63ffffffff881681526001600160a01b038716602082015260a060408201526000615b8b60a083018789614326565b8281036060840152615b9e818688614326565b91505082608083015298975050505050505050565b600060208284031215615bc557600080fd5b6109bd82614f15565b600060208284031215615be057600080fd5b81356109bd8161409b565b600060208284031215615bfd57600080fd5b81356109bd81613fb8565b604081526000615c1b6040830185613c38565b8281036020840152610f6d8185613c38565b6000808335601e19843603018112615c4457600080fd5b83018035915067ffffffffffffffff821115615c5f57600080fd5b6020019150600781901b360382131561385057600080fd5b600060208284031215615c8957600080fd5b6109bd826151c3565b6000808335601e19843603018112615ca957600080fd5b83018035915067ffffffffffffffff821115615cc457600080fd5b602001915060608102360382131561385057600080fd5b600060208284031215615ced57600080fd5b6109bd82614f2a565b60008235609e198336030181126147de57600080fd5b60008151808452602080850194506020840160005b83811015614a6b5781516001600160a01b031687529582019590820190600101615d21565b600060208083018184528085518083526040925060408601915060408160051b87010184880160005b83811015615dfe57888303603f19018552815180516001600160a01b031684528781015162ffffff1688850152868101516001600160681b03168785015260608082015163ffffffff908116918601919091526080808301519091169085015260a09081015160c091850182905290615dea81860183615d0c565b968901969450505090860190600101615d6f565b509098975050505050505050565b6000808335601e19843603018112615e2357600080fd5b83018035915067ffffffffffffffff821115615e3e57600080fd5b6020019150600681901b360382131561385057600080fdfea26469706673582212206a7fd79e8c678f448a2e17f43b61998039131a706d0db133cb3da00f8ecec6fa64736f6c63430008170033",
	"devdoc": {
		"kind": "dev",
		"methods": {
			"afterCashOutRecordedWith((address,uint256,uint256,uint256,(address,uint8,uint32,uint256),(address,uint8,uint32,uint256),uint256,address,bytes,bytes))": {
				"params": {
					"context": "Cash out context passed in by the terminal."
				}
			},
			"allowsDeployingSuckersInCurrentRulesetOf(uint256)": {
				"params": {
					"revnetId": "The ID of the revnet to check the ruleset of."
				},
				"returns": {
					"_0": "flag A flag indicating if the current ruleset allows deploying new suckers."
				}
			},
			"autoIssueFor(uint256,uint256,address)": {
				"params": {
					"beneficiary": "The address to auto-mint tokens to.",
					"revnetId": "The ID of the revnet to auto-mint tokens from.",
					"stageId": "The ID of the stage auto-mint tokens are available from."
				}
			},
			"beforeCashOutRecordedWith((address,address,uint256,uint256,uint256,uint256,(address,uint8,uint32,uint256),bool,uint256,bytes))": {
				"details": "This function is part of `IJBRulesetDataHook`, and gets called before the revnet processes a cash out.If a sucker is cashing out, no taxes or fees are imposed.",
				"params": {
					"context": "Standard Juicebox cash out context. See `JBBeforeCashOutRecordedContext`."
				},
				"returns": {
					"cashOutCount": "The number of revnet tokens that are cashed out.",
					"cashOutTaxRate": "The cash out tax rate, which influences the amount of terminal tokens which get cashed out.",
					"hookSpecifications": "The amount of funds and the data to send to cash out hooks (this contract).",
					"totalSupply": "The total revnet token supply."
				}
			},
			"beforePayRecordedWith((address,address,(address,uint8,uint32,uint256),uint256,uint256,address,uint256,uint256,bytes))": {
				"details": "This function is part of `IJBRulesetDataHook`, and gets called before the revnet processes a payment.",
				"params": {
					"context": "Standard Juicebox payment context. See `JBBeforePayRecordedContext`."
				},
				"returns": {
					"hookSpecifications": "Amounts (out of what's being paid in) to be sent to pay hooks instead of being paid into the revnet. Useful for automatically routing funds from a treasury as payments come in.",
					"weight": "The weight which revnet tokens are minted relative to. This can be used to customize how many tokens get minted by a payment."
				}
			},
			"constructor": {
				"params": {
					"controller": "The controller to use for launching and operating the Juicebox projects which will be revnets.",
					"feeRevnetId": "The Juicebox project ID of the revnet that will receive fees.",
					"hookDeployer": "The deployer to use for revnet's tiered ERC-721 hooks.",
					"publisher": "The croptop publisher revnets can use to publish ERC-721 posts to their tiered ERC-721 hooks.",
					"suckerRegistry": "The registry to use for deploying and tracking each revnet's suckers."
				}
			},
			"deployFor(uint256,((string,string,string,bytes32),uint32,address,(uint40,(uint32,uint104,address)[],uint16,uint112,uint32,uint32,uint16,uint16)[],(address,address)[],address),(address,(address,uint8,uint32)[])[],(address,(address,uint24,uint32,uint32)[]),((address,(address,uint32,address,uint256)[])[],bytes32))": {
				"params": {
					"buybackHookConfiguration": "The buyback hook and pools to set up for the revnet. The buyback hook buys tokens from a Uniswap pool if minting new tokens would be more expensive.",
					"configuration": "Core revnet configuration. See `REVConfig`.",
					"revnetId": "The ID of the Juicebox project to turn into a revnet. Send 0 to deploy a new revnet.",
					"suckerDeploymentConfiguration": "The suckers to set up for the revnet. Suckers facilitate cross-chain token transfers between peer revnets on different networks.",
					"terminalConfigurations": "The terminals to set up for the revnet. Used for payments and cash outs."
				},
				"returns": {
					"_0": "revnetId The ID of the newly created revnet."
				}
			},
			"deploySuckersFor(uint256,bytes,((address,(address,uint32,address,uint256)[])[],bytes32))": {
				"details": "Only the revnet's split operator can deploy new suckers.",
				"params": {
					"encodedConfiguration": "A byte-encoded representation of the revnet's configuration. See `_makeRulesetConfigurations()` for encoding details. Clients can read the encoded configuration from the `DeployRevnet` event emitted by this contract.",
					"revnetId": "The ID of the revnet to deploy suckers for.",
					"suckerDeploymentConfiguration": "The suckers to set up for the revnet."
				}
			},
			"deployWith721sFor(uint256,((string,string,string,bytes32),uint32,address,(uint40,(uint32,uint104,address)[],uint16,uint112,uint32,uint32,uint16,uint16)[],(address,address)[],address),(address,(address,uint8,uint32)[])[],(address,(address,uint24,uint32,uint32)[]),((address,(address,uint32,address,uint256)[])[],bytes32),((string,string,string,address,string,((uint104,uint32,uint32,uint16,address,bytes32,uint24,uint8,bool,bool,bool,bool,bool,bool)[],uint32,uint8,address),address,(bool,bool,bool,bool)),bytes32,bool,bool,bool,bool),(uint24,uint104,uint32,uint32,address[])[])": {
				"params": {
					"allowedPosts": "Restrictions on which croptop posts are allowed on the revnet's ERC-721 tiers.",
					"buybackHookConfiguration": "The buyback hook and pools to set up for the revnet. The buyback hook buys tokens from a Uniswap pool if minting new tokens would be more expensive.",
					"configuration": "Core revnet configuration. See `REVConfig`.",
					"revnetId": "The ID of the Juicebox project to turn into a revnet. Send 0 to deploy a new revnet.",
					"suckerDeploymentConfiguration": "The suckers to set up for the revnet. Suckers facilitate cross-chain token transfers between peer revnets on different networks.",
					"terminalConfigurations": "The terminals to set up for the revnet. Used for payments and cash outs.",
					"tiered721HookConfiguration": "How to set up the tiered ERC-721 hook for the revnet."
				},
				"returns": {
					"_0": "revnetId The ID of the newly created revnet.",
					"hook": "The address of the tiered ERC-721 hook that was deployed for the revnet."
				}
			},
			"hasMintPermissionFor(uint256,address)": {
				"details": "Required by the `IJBRulesetDataHook` interface.",
				"params": {
					"addr": "The address to check the mint permission of.",
					"revnetId": "The ID of the revnet to check permissions for."
				},
				"returns": {
					"_0": "flag A flag indicating whether the address has permission to mint the revnet's tokens on-demand."
				}
			},
			"isSplitOperatorOf(uint256,address)": {
				"params": {
					"addr": "The address to check.",
					"revnetId": "The ID of the revnet."
				},
				"returns": {
					"_0": "flag A flag indicating whether the address is the revnet's split operator."
				}
			},
			"isTrustedForwarder(address)": {
				"details": "Indicates whether any particular address is the trusted forwarder."
			},
			"onERC721Received(address,address,uint256,bytes)": {
				"details": "Make sure this contract can only receive project NFTs from `JBProjects`."
			},
			"setSplitOperatorOf(uint256,address)": {
				"details": "Only a revnet's current split operator can set a new split operator.",
				"params": {
					"newSplitOperator": "The new split operator's address.",
					"revnetId": "The ID of the revnet to set the split operator of."
				}
			},
			"supportsInterface(bytes4)": {
				"details": "See `IERC165.supportsInterface`.",
				"returns": {
					"_0": "A flag indicating if the provided interface ID is supported."
				}
			},
			"trustedForwarder()": {
				"details": "Returns the address of the trusted forwarder."
			}
		},
		"version": 1
	},
	"userdoc": {
		"kind": "user",
		"methods": {
			"CASH_OUT_DELAY()": {
				"notice": "The number of seconds until a revnet's participants can cash out, starting from the time when that revnet is deployed to a new network. - Only applies to existing revnets which are deploying onto a new network. - To prevent liquidity/arbitrage issues which might arise when an existing revnet adds a brand-new treasury."
			},
			"CONTROLLER()": {
				"notice": "The controller used to create and manage Juicebox projects for revnets."
			},
			"DIRECTORY()": {
				"notice": "The directory of terminals and controllers for Juicebox projects (and revnets)."
			},
			"FEE()": {
				"notice": "The cash out fee (as a fraction out of `JBConstants.MAX_FEE`). Cashout fees are paid to the revnet with the `FEE_REVNET_ID`."
			},
			"FEE_REVNET_ID()": {
				"notice": "The Juicebox project ID of the revnet that receives cash out fees."
			},
			"HOOK_DEPLOYER()": {
				"notice": "Deploys tiered ERC-721 hooks for revnets."
			},
			"PERMISSIONS()": {
				"notice": "Stores Juicebox project (and revnet) access permissions."
			},
			"PROJECTS()": {
				"notice": "Mints ERC-721s that represent Juicebox project (and revnet) ownership and transfers."
			},
			"PUBLISHER()": {
				"notice": "Manages the publishing of ERC-721 posts to revnet's tiered ERC-721 hooks."
			},
			"SUCKER_REGISTRY()": {
				"notice": "Deploys and tracks suckers for revnets."
			},
			"afterCashOutRecordedWith((address,uint256,uint256,uint256,(address,uint8,uint32,uint256),(address,uint8,uint32,uint256),uint256,address,bytes,bytes))": {
				"notice": "Processes the fee from a cash out."
			},
			"allowsDeployingSuckersInCurrentRulesetOf(uint256)": {
				"notice": "A flag indicating if the current ruleset allows deploying new suckers."
			},
			"amountToAutoIssue(uint256,uint256,address)": {
				"notice": "The number of revnet tokens which can be \"auto-minted\" (minted without payments) for a specific beneficiary during a stage. Think of this as a per-stage premint."
			},
			"autoIssueFor(uint256,uint256,address)": {
				"notice": "Auto-mint a revnet's tokens from a stage for a beneficiary."
			},
			"beforeCashOutRecordedWith((address,address,uint256,uint256,uint256,uint256,(address,uint8,uint32,uint256),bool,uint256,bytes))": {
				"notice": "Determine how a cash out from a revnet should be processed."
			},
			"beforePayRecordedWith((address,address,(address,uint8,uint32,uint256),uint256,uint256,address,uint256,uint256,bytes))": {
				"notice": "Before a revnet processes an incoming payment, determine the weight and pay hooks to use."
			},
			"buybackHookOf(uint256)": {
				"notice": "Each revnet's buyback data hook. These return buyback hook data."
			},
			"cashOutDelayOf(uint256)": {
				"notice": "The timestamp of when cashouts will become available to a specific revnet's participants."
			},
			"deployFor(uint256,((string,string,string,bytes32),uint32,address,(uint40,(uint32,uint104,address)[],uint16,uint112,uint32,uint32,uint16,uint16)[],(address,address)[],address),(address,(address,uint8,uint32)[])[],(address,(address,uint24,uint32,uint32)[]),((address,(address,uint32,address,uint256)[])[],bytes32))": {
				"notice": "Launch a revnet, or convert an existing Juicebox project into a revnet."
			},
			"deploySuckersFor(uint256,bytes,((address,(address,uint32,address,uint256)[])[],bytes32))": {
				"notice": "Deploy new suckers for an existing revnet."
			},
			"deployWith721sFor(uint256,((string,string,string,bytes32),uint32,address,(uint40,(uint32,uint104,address)[],uint16,uint112,uint32,uint32,uint16,uint16)[],(address,address)[],address),(address,(address,uint8,uint32)[])[],(address,(address,uint24,uint32,uint32)[]),((address,(address,uint32,address,uint256)[])[],bytes32),((string,string,string,address,string,((uint104,uint32,uint32,uint16,address,bytes32,uint24,uint8,bool,bool,bool,bool,bool,bool)[],uint32,uint8,address),address,(bool,bool,bool,bool)),bytes32,bool,bool,bool,bool),(uint24,uint104,uint32,uint32,address[])[])": {
				"notice": "Launch a revnet which sells tiered ERC-721s and (optionally) allows croptop posts to its ERC-721 tiers."
			},
			"hasMintPermissionFor(uint256,address)": {
				"notice": "A flag indicating whether an address has permission to mint a revnet's tokens on-demand."
			},
			"isSplitOperatorOf(uint256,address)": {
				"notice": "A flag indicating whether an address is a revnet's split operator."
			},
			"loansOf(uint256)": {
				"notice": "Each revnet's loan contract."
			},
			"setSplitOperatorOf(uint256,address)": {
				"notice": "Change a revnet's split operator."
			},
			"supportsInterface(bytes4)": {
				"notice": "Indicates if this contract adheres to the specified interface."
			},
			"tiered721HookOf(uint256)": {
				"notice": "Each revnet's tiered ERC-721 hook."
			},
			"unrealizedAutoIssuanceAmountOf(uint256)": {
				"notice": "The amount of auto-mint tokens which have not been minted yet, including future stages, for each revnet."
			}
		},
		"version": 1
	},
	"gitCommit": "28d470b8af715e774602a366a5bb064726ebd099",
	"sourceName": "src/REVDeployer.sol",
	"chainId": "421614",
	"linkReferences": {},
	"deployedLinkReferences": {},
	"history": []
}