{
	"_format": "sphinx-sol-ct-artifact-1",
	"merkleRoot": "0xf2fd16bc4bd6a304ef9d2575885b315a04608d3a8c61059f3e0e7460eb568a76",
	"contractName": "REVTiered721HookDeployer",
	"address": "0x53fCb9FA35A67ed8273B8541222Dc9ab5F8c57ed",
	"abi": [
		{
			"type": "constructor",
			"inputs": [
				{
					"name": "controller",
					"type": "address",
					"internalType": "contract IJBController"
				},
				{
					"name": "suckerRegistry",
					"type": "address",
					"internalType": "contract IJBSuckerRegistry"
				},
				{
					"name": "feeRevnetId",
					"type": "uint256",
					"internalType": "uint256"
				},
				{
					"name": "hookDeployer",
					"type": "address",
					"internalType": "contract IJB721TiersHookDeployer"
				}
			],
			"stateMutability": "nonpayable"
		},
		{
			"type": "function",
			"name": "CASH_OUT_DELAY",
			"inputs": [],
			"outputs": [
				{
					"name": "",
					"type": "uint256",
					"internalType": "uint256"
				}
			],
			"stateMutability": "view"
		},
		{
			"type": "function",
			"name": "CONTROLLER",
			"inputs": [],
			"outputs": [
				{
					"name": "",
					"type": "address",
					"internalType": "contract IJBController"
				}
			],
			"stateMutability": "view"
		},
		{
			"type": "function",
			"name": "FEE",
			"inputs": [],
			"outputs": [
				{
					"name": "",
					"type": "uint256",
					"internalType": "uint256"
				}
			],
			"stateMutability": "view"
		},
		{
			"type": "function",
			"name": "FEE_REVNET_ID",
			"inputs": [],
			"outputs": [
				{
					"name": "",
					"type": "uint256",
					"internalType": "uint256"
				}
			],
			"stateMutability": "view"
		},
		{
			"type": "function",
			"name": "HOOK_DEPLOYER",
			"inputs": [],
			"outputs": [
				{
					"name": "",
					"type": "address",
					"internalType": "contract IJB721TiersHookDeployer"
				}
			],
			"stateMutability": "view"
		},
		{
			"type": "function",
			"name": "SUCKER_REGISTRY",
			"inputs": [],
			"outputs": [
				{
					"name": "",
					"type": "address",
					"internalType": "contract IJBSuckerRegistry"
				}
			],
			"stateMutability": "view"
		},
		{
			"type": "function",
			"name": "afterRedeemRecordedWith",
			"inputs": [
				{
					"name": "context",
					"type": "tuple",
					"internalType": "struct JBAfterRedeemRecordedContext",
					"components": [
						{
							"name": "holder",
							"type": "address",
							"internalType": "address"
						},
						{
							"name": "projectId",
							"type": "uint256",
							"internalType": "uint256"
						},
						{
							"name": "rulesetId",
							"type": "uint256",
							"internalType": "uint256"
						},
						{
							"name": "redeemCount",
							"type": "uint256",
							"internalType": "uint256"
						},
						{
							"name": "reclaimedAmount",
							"type": "tuple",
							"internalType": "struct JBTokenAmount",
							"components": [
								{
									"name": "token",
									"type": "address",
									"internalType": "address"
								},
								{
									"name": "decimals",
									"type": "uint8",
									"internalType": "uint8"
								},
								{
									"name": "currency",
									"type": "uint32",
									"internalType": "uint32"
								},
								{
									"name": "value",
									"type": "uint256",
									"internalType": "uint256"
								}
							]
						},
						{
							"name": "forwardedAmount",
							"type": "tuple",
							"internalType": "struct JBTokenAmount",
							"components": [
								{
									"name": "token",
									"type": "address",
									"internalType": "address"
								},
								{
									"name": "decimals",
									"type": "uint8",
									"internalType": "uint8"
								},
								{
									"name": "currency",
									"type": "uint32",
									"internalType": "uint32"
								},
								{
									"name": "value",
									"type": "uint256",
									"internalType": "uint256"
								}
							]
						},
						{
							"name": "redemptionRate",
							"type": "uint256",
							"internalType": "uint256"
						},
						{
							"name": "beneficiary",
							"type": "address",
							"internalType": "address payable"
						},
						{
							"name": "hookMetadata",
							"type": "bytes",
							"internalType": "bytes"
						},
						{
							"name": "redeemerMetadata",
							"type": "bytes",
							"internalType": "bytes"
						}
					]
				}
			],
			"outputs": [],
			"stateMutability": "payable"
		},
		{
			"type": "function",
			"name": "allowedMintCountOf",
			"inputs": [
				{
					"name": "revnetId",
					"type": "uint256",
					"internalType": "uint256"
				},
				{
					"name": "stageId",
					"type": "uint256",
					"internalType": "uint256"
				},
				{
					"name": "beneficiary",
					"type": "address",
					"internalType": "address"
				}
			],
			"outputs": [
				{
					"name": "",
					"type": "uint256",
					"internalType": "uint256"
				}
			],
			"stateMutability": "view"
		},
		{
			"type": "function",
			"name": "beforePayRecordedWith",
			"inputs": [
				{
					"name": "context",
					"type": "tuple",
					"internalType": "struct JBBeforePayRecordedContext",
					"components": [
						{
							"name": "terminal",
							"type": "address",
							"internalType": "address"
						},
						{
							"name": "payer",
							"type": "address",
							"internalType": "address"
						},
						{
							"name": "amount",
							"type": "tuple",
							"internalType": "struct JBTokenAmount",
							"components": [
								{
									"name": "token",
									"type": "address",
									"internalType": "address"
								},
								{
									"name": "decimals",
									"type": "uint8",
									"internalType": "uint8"
								},
								{
									"name": "currency",
									"type": "uint32",
									"internalType": "uint32"
								},
								{
									"name": "value",
									"type": "uint256",
									"internalType": "uint256"
								}
							]
						},
						{
							"name": "projectId",
							"type": "uint256",
							"internalType": "uint256"
						},
						{
							"name": "rulesetId",
							"type": "uint256",
							"internalType": "uint256"
						},
						{
							"name": "beneficiary",
							"type": "address",
							"internalType": "address"
						},
						{
							"name": "weight",
							"type": "uint256",
							"internalType": "uint256"
						},
						{
							"name": "reservedPercent",
							"type": "uint256",
							"internalType": "uint256"
						},
						{
							"name": "metadata",
							"type": "bytes",
							"internalType": "bytes"
						}
					]
				}
			],
			"outputs": [
				{
					"name": "weight",
					"type": "uint256",
					"internalType": "uint256"
				},
				{
					"name": "hookSpecifications",
					"type": "tuple[]",
					"internalType": "struct JBPayHookSpecification[]",
					"components": [
						{
							"name": "hook",
							"type": "address",
							"internalType": "contract IJBPayHook"
						},
						{
							"name": "amount",
							"type": "uint256",
							"internalType": "uint256"
						},
						{
							"name": "metadata",
							"type": "bytes",
							"internalType": "bytes"
						}
					]
				}
			],
			"stateMutability": "view"
		},
		{
			"type": "function",
			"name": "beforeRedeemRecordedWith",
			"inputs": [
				{
					"name": "context",
					"type": "tuple",
					"internalType": "struct JBBeforeRedeemRecordedContext",
					"components": [
						{
							"name": "terminal",
							"type": "address",
							"internalType": "address"
						},
						{
							"name": "holder",
							"type": "address",
							"internalType": "address"
						},
						{
							"name": "projectId",
							"type": "uint256",
							"internalType": "uint256"
						},
						{
							"name": "rulesetId",
							"type": "uint256",
							"internalType": "uint256"
						},
						{
							"name": "redeemCount",
							"type": "uint256",
							"internalType": "uint256"
						},
						{
							"name": "totalSupply",
							"type": "uint256",
							"internalType": "uint256"
						},
						{
							"name": "surplus",
							"type": "tuple",
							"internalType": "struct JBTokenAmount",
							"components": [
								{
									"name": "token",
									"type": "address",
									"internalType": "address"
								},
								{
									"name": "decimals",
									"type": "uint8",
									"internalType": "uint8"
								},
								{
									"name": "currency",
									"type": "uint32",
									"internalType": "uint32"
								},
								{
									"name": "value",
									"type": "uint256",
									"internalType": "uint256"
								}
							]
						},
						{
							"name": "useTotalSurplus",
							"type": "bool",
							"internalType": "bool"
						},
						{
							"name": "redemptionRate",
							"type": "uint256",
							"internalType": "uint256"
						},
						{
							"name": "metadata",
							"type": "bytes",
							"internalType": "bytes"
						}
					]
				}
			],
			"outputs": [
				{
					"name": "",
					"type": "uint256",
					"internalType": "uint256"
				},
				{
					"name": "",
					"type": "uint256",
					"internalType": "uint256"
				},
				{
					"name": "",
					"type": "uint256",
					"internalType": "uint256"
				},
				{
					"name": "hookSpecifications",
					"type": "tuple[]",
					"internalType": "struct JBRedeemHookSpecification[]",
					"components": [
						{
							"name": "hook",
							"type": "address",
							"internalType": "contract IJBRedeemHook"
						},
						{
							"name": "amount",
							"type": "uint256",
							"internalType": "uint256"
						},
						{
							"name": "metadata",
							"type": "bytes",
							"internalType": "bytes"
						}
					]
				}
			],
			"stateMutability": "view"
		},
		{
			"type": "function",
			"name": "buybackHookOf",
			"inputs": [
				{
					"name": "revnetId",
					"type": "uint256",
					"internalType": "uint256"
				}
			],
			"outputs": [
				{
					"name": "buybackHook",
					"type": "address",
					"internalType": "contract IJBRulesetDataHook"
				}
			],
			"stateMutability": "view"
		},
		{
			"type": "function",
			"name": "cashOutDelayOf",
			"inputs": [
				{
					"name": "revnetId",
					"type": "uint256",
					"internalType": "uint256"
				}
			],
			"outputs": [
				{
					"name": "cashOutDelay",
					"type": "uint256",
					"internalType": "uint256"
				}
			],
			"stateMutability": "view"
		},
		{
			"type": "function",
			"name": "deployFor",
			"inputs": [
				{
					"name": "revnetId",
					"type": "uint256",
					"internalType": "uint256"
				},
				{
					"name": "configuration",
					"type": "tuple",
					"internalType": "struct REVConfig",
					"components": [
						{
							"name": "description",
							"type": "tuple",
							"internalType": "struct REVDescription",
							"components": [
								{
									"name": "name",
									"type": "string",
									"internalType": "string"
								},
								{
									"name": "ticker",
									"type": "string",
									"internalType": "string"
								},
								{
									"name": "uri",
									"type": "string",
									"internalType": "string"
								},
								{
									"name": "salt",
									"type": "bytes32",
									"internalType": "bytes32"
								}
							]
						},
						{
							"name": "baseCurrency",
							"type": "uint32",
							"internalType": "uint32"
						},
						{
							"name": "splitOperator",
							"type": "address",
							"internalType": "address"
						},
						{
							"name": "stageConfigurations",
							"type": "tuple[]",
							"internalType": "struct REVStageConfig[]",
							"components": [
								{
									"name": "startsAtOrAfter",
									"type": "uint40",
									"internalType": "uint40"
								},
								{
									"name": "mintConfigs",
									"type": "tuple[]",
									"internalType": "struct REVMintConfig[]",
									"components": [
										{
											"name": "chainId",
											"type": "uint32",
											"internalType": "uint32"
										},
										{
											"name": "count",
											"type": "uint104",
											"internalType": "uint104"
										},
										{
											"name": "beneficiary",
											"type": "address",
											"internalType": "address"
										}
									]
								},
								{
									"name": "splitPercent",
									"type": "uint16",
									"internalType": "uint16"
								},
								{
									"name": "initialIssuance",
									"type": "uint112",
									"internalType": "uint112"
								},
								{
									"name": "issuanceDecayFrequency",
									"type": "uint32",
									"internalType": "uint32"
								},
								{
									"name": "issuanceDecayPercent",
									"type": "uint32",
									"internalType": "uint32"
								},
								{
									"name": "cashOutTaxRate",
									"type": "uint16",
									"internalType": "uint16"
								}
							]
						}
					]
				},
				{
					"name": "terminalConfigurations",
					"type": "tuple[]",
					"internalType": "struct JBTerminalConfig[]",
					"components": [
						{
							"name": "terminal",
							"type": "address",
							"internalType": "contract IJBTerminal"
						},
						{
							"name": "accountingContextsToAccept",
							"type": "tuple[]",
							"internalType": "struct JBAccountingContext[]",
							"components": [
								{
									"name": "token",
									"type": "address",
									"internalType": "address"
								},
								{
									"name": "decimals",
									"type": "uint8",
									"internalType": "uint8"
								},
								{
									"name": "currency",
									"type": "uint32",
									"internalType": "uint32"
								}
							]
						}
					]
				},
				{
					"name": "buybackHookConfiguration",
					"type": "tuple",
					"internalType": "struct REVBuybackHookConfig",
					"components": [
						{
							"name": "hook",
							"type": "address",
							"internalType": "contract IJBBuybackHook"
						},
						{
							"name": "poolConfigurations",
							"type": "tuple[]",
							"internalType": "struct REVBuybackPoolConfig[]",
							"components": [
								{
									"name": "token",
									"type": "address",
									"internalType": "address"
								},
								{
									"name": "fee",
									"type": "uint24",
									"internalType": "uint24"
								},
								{
									"name": "twapWindow",
									"type": "uint32",
									"internalType": "uint32"
								},
								{
									"name": "twapSlippageTolerance",
									"type": "uint32",
									"internalType": "uint32"
								}
							]
						}
					]
				},
				{
					"name": "suckerDeploymentConfiguration",
					"type": "tuple",
					"internalType": "struct REVSuckerDeploymentConfig",
					"components": [
						{
							"name": "deployerConfigurations",
							"type": "tuple[]",
							"internalType": "struct JBSuckerDeployerConfig[]",
							"components": [
								{
									"name": "deployer",
									"type": "address",
									"internalType": "contract IJBSuckerDeployer"
								},
								{
									"name": "mappings",
									"type": "tuple[]",
									"internalType": "struct JBTokenMapping[]",
									"components": [
										{
											"name": "localToken",
											"type": "address",
											"internalType": "address"
										},
										{
											"name": "minGas",
											"type": "uint32",
											"internalType": "uint32"
										},
										{
											"name": "remoteToken",
											"type": "address",
											"internalType": "address"
										},
										{
											"name": "minBridgeAmount",
											"type": "uint256",
											"internalType": "uint256"
										}
									]
								}
							]
						},
						{
							"name": "salt",
							"type": "bytes32",
							"internalType": "bytes32"
						}
					]
				},
				{
					"name": "hookConfiguration",
					"type": "tuple",
					"internalType": "struct REVDeploy721TiersHookConfig",
					"components": [
						{
							"name": "baseline721HookConfiguration",
							"type": "tuple",
							"internalType": "struct JBDeploy721TiersHookConfig",
							"components": [
								{
									"name": "name",
									"type": "string",
									"internalType": "string"
								},
								{
									"name": "symbol",
									"type": "string",
									"internalType": "string"
								},
								{
									"name": "rulesets",
									"type": "address",
									"internalType": "contract IJBRulesets"
								},
								{
									"name": "baseUri",
									"type": "string",
									"internalType": "string"
								},
								{
									"name": "tokenUriResolver",
									"type": "address",
									"internalType": "contract IJB721TokenUriResolver"
								},
								{
									"name": "contractUri",
									"type": "string",
									"internalType": "string"
								},
								{
									"name": "tiersConfig",
									"type": "tuple",
									"internalType": "struct JB721InitTiersConfig",
									"components": [
										{
											"name": "tiers",
											"type": "tuple[]",
											"internalType": "struct JB721TierConfig[]",
											"components": [
												{
													"name": "price",
													"type": "uint104",
													"internalType": "uint104"
												},
												{
													"name": "initialSupply",
													"type": "uint32",
													"internalType": "uint32"
												},
												{
													"name": "votingUnits",
													"type": "uint32",
													"internalType": "uint32"
												},
												{
													"name": "reserveFrequency",
													"type": "uint16",
													"internalType": "uint16"
												},
												{
													"name": "reserveBeneficiary",
													"type": "address",
													"internalType": "address"
												},
												{
													"name": "encodedIPFSUri",
													"type": "bytes32",
													"internalType": "bytes32"
												},
												{
													"name": "category",
													"type": "uint24",
													"internalType": "uint24"
												},
												{
													"name": "allowOwnerMint",
													"type": "bool",
													"internalType": "bool"
												},
												{
													"name": "useReserveBeneficiaryAsDefault",
													"type": "bool",
													"internalType": "bool"
												},
												{
													"name": "transfersPausable",
													"type": "bool",
													"internalType": "bool"
												},
												{
													"name": "useVotingUnits",
													"type": "bool",
													"internalType": "bool"
												},
												{
													"name": "cannotBeRemoved",
													"type": "bool",
													"internalType": "bool"
												}
											]
										},
										{
											"name": "currency",
											"type": "uint32",
											"internalType": "uint32"
										},
										{
											"name": "decimals",
											"type": "uint8",
											"internalType": "uint8"
										},
										{
											"name": "prices",
											"type": "address",
											"internalType": "contract IJBPrices"
										}
									]
								},
								{
									"name": "reserveBeneficiary",
									"type": "address",
									"internalType": "address"
								},
								{
									"name": "flags",
									"type": "tuple",
									"internalType": "struct JB721TiersHookFlags",
									"components": [
										{
											"name": "noNewTiersWithReserves",
											"type": "bool",
											"internalType": "bool"
										},
										{
											"name": "noNewTiersWithVotes",
											"type": "bool",
											"internalType": "bool"
										},
										{
											"name": "noNewTiersWithOwnerMinting",
											"type": "bool",
											"internalType": "bool"
										},
										{
											"name": "preventOverspending",
											"type": "bool",
											"internalType": "bool"
										}
									]
								}
							]
						},
						{
							"name": "splitOperatorCanAdjustTiers",
							"type": "bool",
							"internalType": "bool"
						},
						{
							"name": "splitOperatorCanUpdateMetadata",
							"type": "bool",
							"internalType": "bool"
						},
						{
							"name": "splitOperatorCanMint",
							"type": "bool",
							"internalType": "bool"
						}
					]
				},
				{
					"name": "otherPayHooksSpecifications",
					"type": "tuple[]",
					"internalType": "struct JBPayHookSpecification[]",
					"components": [
						{
							"name": "hook",
							"type": "address",
							"internalType": "contract IJBPayHook"
						},
						{
							"name": "amount",
							"type": "uint256",
							"internalType": "uint256"
						},
						{
							"name": "metadata",
							"type": "bytes",
							"internalType": "bytes"
						}
					]
				},
				{
					"name": "extraHookMetadata",
					"type": "uint16",
					"internalType": "uint16"
				}
			],
			"outputs": [
				{
					"name": "",
					"type": "uint256",
					"internalType": "uint256"
				},
				{
					"name": "hook",
					"type": "address",
					"internalType": "contract IJB721TiersHook"
				}
			],
			"stateMutability": "nonpayable"
		},
		{
			"type": "function",
			"name": "deploySuckersFor",
			"inputs": [
				{
					"name": "revnetId",
					"type": "uint256",
					"internalType": "uint256"
				},
				{
					"name": "encodedConfiguration",
					"type": "bytes",
					"internalType": "bytes"
				},
				{
					"name": "suckerDeploymentConfiguration",
					"type": "tuple",
					"internalType": "struct REVSuckerDeploymentConfig",
					"components": [
						{
							"name": "deployerConfigurations",
							"type": "tuple[]",
							"internalType": "struct JBSuckerDeployerConfig[]",
							"components": [
								{
									"name": "deployer",
									"type": "address",
									"internalType": "contract IJBSuckerDeployer"
								},
								{
									"name": "mappings",
									"type": "tuple[]",
									"internalType": "struct JBTokenMapping[]",
									"components": [
										{
											"name": "localToken",
											"type": "address",
											"internalType": "address"
										},
										{
											"name": "minGas",
											"type": "uint32",
											"internalType": "uint32"
										},
										{
											"name": "remoteToken",
											"type": "address",
											"internalType": "address"
										},
										{
											"name": "minBridgeAmount",
											"type": "uint256",
											"internalType": "uint256"
										}
									]
								}
							]
						},
						{
							"name": "salt",
							"type": "bytes32",
							"internalType": "bytes32"
						}
					]
				}
			],
			"outputs": [],
			"stateMutability": "nonpayable"
		},
		{
			"type": "function",
			"name": "hasMintPermissionFor",
			"inputs": [
				{
					"name": "revnetId",
					"type": "uint256",
					"internalType": "uint256"
				},
				{
					"name": "addr",
					"type": "address",
					"internalType": "address"
				}
			],
			"outputs": [
				{
					"name": "",
					"type": "bool",
					"internalType": "bool"
				}
			],
			"stateMutability": "view"
		},
		{
			"type": "function",
			"name": "isSplitOperatorOf",
			"inputs": [
				{
					"name": "revnetId",
					"type": "uint256",
					"internalType": "uint256"
				},
				{
					"name": "addr",
					"type": "address",
					"internalType": "address"
				}
			],
			"outputs": [
				{
					"name": "",
					"type": "bool",
					"internalType": "bool"
				}
			],
			"stateMutability": "view"
		},
		{
			"type": "function",
			"name": "mintFor",
			"inputs": [
				{
					"name": "revnetId",
					"type": "uint256",
					"internalType": "uint256"
				},
				{
					"name": "stageId",
					"type": "uint256",
					"internalType": "uint256"
				},
				{
					"name": "beneficiary",
					"type": "address",
					"internalType": "address"
				}
			],
			"outputs": [],
			"stateMutability": "nonpayable"
		},
		{
			"type": "function",
			"name": "onERC721Received",
			"inputs": [
				{
					"name": "operator",
					"type": "address",
					"internalType": "address"
				},
				{
					"name": "",
					"type": "address",
					"internalType": "address"
				},
				{
					"name": "tokenId",
					"type": "uint256",
					"internalType": "uint256"
				},
				{
					"name": "data",
					"type": "bytes",
					"internalType": "bytes"
				}
			],
			"outputs": [
				{
					"name": "",
					"type": "bytes4",
					"internalType": "bytes4"
				}
			],
			"stateMutability": "view"
		},
		{
			"type": "function",
			"name": "payHookSpecificationsOf",
			"inputs": [
				{
					"name": "revnetId",
					"type": "uint256",
					"internalType": "uint256"
				}
			],
			"outputs": [
				{
					"name": "",
					"type": "tuple[]",
					"internalType": "struct JBPayHookSpecification[]",
					"components": [
						{
							"name": "hook",
							"type": "address",
							"internalType": "contract IJBPayHook"
						},
						{
							"name": "amount",
							"type": "uint256",
							"internalType": "uint256"
						},
						{
							"name": "metadata",
							"type": "bytes",
							"internalType": "bytes"
						}
					]
				}
			],
			"stateMutability": "view"
		},
		{
			"type": "function",
			"name": "replaceSplitOperatorOf",
			"inputs": [
				{
					"name": "revnetId",
					"type": "uint256",
					"internalType": "uint256"
				},
				{
					"name": "newSplitOperator",
					"type": "address",
					"internalType": "address"
				}
			],
			"outputs": [],
			"stateMutability": "nonpayable"
		},
		{
			"type": "function",
			"name": "supportsInterface",
			"inputs": [
				{
					"name": "",
					"type": "bytes4",
					"internalType": "bytes4"
				}
			],
			"outputs": [
				{
					"name": "",
					"type": "bool",
					"internalType": "bool"
				}
			],
			"stateMutability": "view"
		},
		{
			"type": "event",
			"name": "DeployRevnet",
			"inputs": [
				{
					"name": "revnetId",
					"type": "uint256",
					"indexed": true,
					"internalType": "uint256"
				},
				{
					"name": "suckerSalt",
					"type": "bytes32",
					"indexed": true,
					"internalType": "bytes32"
				},
				{
					"name": "configuration",
					"type": "tuple",
					"indexed": false,
					"internalType": "struct REVConfig",
					"components": [
						{
							"name": "description",
							"type": "tuple",
							"internalType": "struct REVDescription",
							"components": [
								{
									"name": "name",
									"type": "string",
									"internalType": "string"
								},
								{
									"name": "ticker",
									"type": "string",
									"internalType": "string"
								},
								{
									"name": "uri",
									"type": "string",
									"internalType": "string"
								},
								{
									"name": "salt",
									"type": "bytes32",
									"internalType": "bytes32"
								}
							]
						},
						{
							"name": "baseCurrency",
							"type": "uint32",
							"internalType": "uint32"
						},
						{
							"name": "splitOperator",
							"type": "address",
							"internalType": "address"
						},
						{
							"name": "stageConfigurations",
							"type": "tuple[]",
							"internalType": "struct REVStageConfig[]",
							"components": [
								{
									"name": "startsAtOrAfter",
									"type": "uint40",
									"internalType": "uint40"
								},
								{
									"name": "mintConfigs",
									"type": "tuple[]",
									"internalType": "struct REVMintConfig[]",
									"components": [
										{
											"name": "chainId",
											"type": "uint32",
											"internalType": "uint32"
										},
										{
											"name": "count",
											"type": "uint104",
											"internalType": "uint104"
										},
										{
											"name": "beneficiary",
											"type": "address",
											"internalType": "address"
										}
									]
								},
								{
									"name": "splitPercent",
									"type": "uint16",
									"internalType": "uint16"
								},
								{
									"name": "initialIssuance",
									"type": "uint112",
									"internalType": "uint112"
								},
								{
									"name": "issuanceDecayFrequency",
									"type": "uint32",
									"internalType": "uint32"
								},
								{
									"name": "issuanceDecayPercent",
									"type": "uint32",
									"internalType": "uint32"
								},
								{
									"name": "cashOutTaxRate",
									"type": "uint16",
									"internalType": "uint16"
								}
							]
						}
					]
				},
				{
					"name": "terminalConfigurations",
					"type": "tuple[]",
					"indexed": false,
					"internalType": "struct JBTerminalConfig[]",
					"components": [
						{
							"name": "terminal",
							"type": "address",
							"internalType": "contract IJBTerminal"
						},
						{
							"name": "accountingContextsToAccept",
							"type": "tuple[]",
							"internalType": "struct JBAccountingContext[]",
							"components": [
								{
									"name": "token",
									"type": "address",
									"internalType": "address"
								},
								{
									"name": "decimals",
									"type": "uint8",
									"internalType": "uint8"
								},
								{
									"name": "currency",
									"type": "uint32",
									"internalType": "uint32"
								}
							]
						}
					]
				},
				{
					"name": "buybackHookConfiguration",
					"type": "tuple",
					"indexed": false,
					"internalType": "struct REVBuybackHookConfig",
					"components": [
						{
							"name": "hook",
							"type": "address",
							"internalType": "contract IJBBuybackHook"
						},
						{
							"name": "poolConfigurations",
							"type": "tuple[]",
							"internalType": "struct REVBuybackPoolConfig[]",
							"components": [
								{
									"name": "token",
									"type": "address",
									"internalType": "address"
								},
								{
									"name": "fee",
									"type": "uint24",
									"internalType": "uint24"
								},
								{
									"name": "twapWindow",
									"type": "uint32",
									"internalType": "uint32"
								},
								{
									"name": "twapSlippageTolerance",
									"type": "uint32",
									"internalType": "uint32"
								}
							]
						}
					]
				},
				{
					"name": "suckerDeploymentConfiguration",
					"type": "tuple",
					"indexed": false,
					"internalType": "struct REVSuckerDeploymentConfig",
					"components": [
						{
							"name": "deployerConfigurations",
							"type": "tuple[]",
							"internalType": "struct JBSuckerDeployerConfig[]",
							"components": [
								{
									"name": "deployer",
									"type": "address",
									"internalType": "contract IJBSuckerDeployer"
								},
								{
									"name": "mappings",
									"type": "tuple[]",
									"internalType": "struct JBTokenMapping[]",
									"components": [
										{
											"name": "localToken",
											"type": "address",
											"internalType": "address"
										},
										{
											"name": "minGas",
											"type": "uint32",
											"internalType": "uint32"
										},
										{
											"name": "remoteToken",
											"type": "address",
											"internalType": "address"
										},
										{
											"name": "minBridgeAmount",
											"type": "uint256",
											"internalType": "uint256"
										}
									]
								}
							]
						},
						{
							"name": "salt",
							"type": "bytes32",
							"internalType": "bytes32"
						}
					]
				},
				{
					"name": "rulesetConfigurations",
					"type": "tuple[]",
					"indexed": false,
					"internalType": "struct JBRulesetConfig[]",
					"components": [
						{
							"name": "mustStartAtOrAfter",
							"type": "uint48",
							"internalType": "uint48"
						},
						{
							"name": "duration",
							"type": "uint32",
							"internalType": "uint32"
						},
						{
							"name": "weight",
							"type": "uint112",
							"internalType": "uint112"
						},
						{
							"name": "decayPercent",
							"type": "uint32",
							"internalType": "uint32"
						},
						{
							"name": "approvalHook",
							"type": "address",
							"internalType": "contract IJBRulesetApprovalHook"
						},
						{
							"name": "metadata",
							"type": "tuple",
							"internalType": "struct JBRulesetMetadata",
							"components": [
								{
									"name": "reservedPercent",
									"type": "uint16",
									"internalType": "uint16"
								},
								{
									"name": "redemptionRate",
									"type": "uint16",
									"internalType": "uint16"
								},
								{
									"name": "baseCurrency",
									"type": "uint32",
									"internalType": "uint32"
								},
								{
									"name": "pausePay",
									"type": "bool",
									"internalType": "bool"
								},
								{
									"name": "pauseCreditTransfers",
									"type": "bool",
									"internalType": "bool"
								},
								{
									"name": "allowOwnerMinting",
									"type": "bool",
									"internalType": "bool"
								},
								{
									"name": "allowSetCustomToken",
									"type": "bool",
									"internalType": "bool"
								},
								{
									"name": "allowTerminalMigration",
									"type": "bool",
									"internalType": "bool"
								},
								{
									"name": "allowSetTerminals",
									"type": "bool",
									"internalType": "bool"
								},
								{
									"name": "allowSetController",
									"type": "bool",
									"internalType": "bool"
								},
								{
									"name": "allowAddAccountingContext",
									"type": "bool",
									"internalType": "bool"
								},
								{
									"name": "allowAddPriceFeed",
									"type": "bool",
									"internalType": "bool"
								},
								{
									"name": "ownerMustSendPayouts",
									"type": "bool",
									"internalType": "bool"
								},
								{
									"name": "holdFees",
									"type": "bool",
									"internalType": "bool"
								},
								{
									"name": "useTotalSurplusForRedemptions",
									"type": "bool",
									"internalType": "bool"
								},
								{
									"name": "useDataHookForPay",
									"type": "bool",
									"internalType": "bool"
								},
								{
									"name": "useDataHookForRedeem",
									"type": "bool",
									"internalType": "bool"
								},
								{
									"name": "dataHook",
									"type": "address",
									"internalType": "address"
								},
								{
									"name": "metadata",
									"type": "uint16",
									"internalType": "uint16"
								}
							]
						},
						{
							"name": "splitGroups",
							"type": "tuple[]",
							"internalType": "struct JBSplitGroup[]",
							"components": [
								{
									"name": "groupId",
									"type": "uint256",
									"internalType": "uint256"
								},
								{
									"name": "splits",
									"type": "tuple[]",
									"internalType": "struct JBSplit[]",
									"components": [
										{
											"name": "preferAddToBalance",
											"type": "bool",
											"internalType": "bool"
										},
										{
											"name": "percent",
											"type": "uint32",
											"internalType": "uint32"
										},
										{
											"name": "projectId",
											"type": "uint56",
											"internalType": "uint56"
										},
										{
											"name": "beneficiary",
											"type": "address",
											"internalType": "address payable"
										},
										{
											"name": "lockedUntil",
											"type": "uint48",
											"internalType": "uint48"
										},
										{
											"name": "hook",
											"type": "address",
											"internalType": "contract IJBSplitHook"
										}
									]
								}
							]
						},
						{
							"name": "fundAccessLimitGroups",
							"type": "tuple[]",
							"internalType": "struct JBFundAccessLimitGroup[]",
							"components": [
								{
									"name": "terminal",
									"type": "address",
									"internalType": "address"
								},
								{
									"name": "token",
									"type": "address",
									"internalType": "address"
								},
								{
									"name": "payoutLimits",
									"type": "tuple[]",
									"internalType": "struct JBCurrencyAmount[]",
									"components": [
										{
											"name": "amount",
											"type": "uint224",
											"internalType": "uint224"
										},
										{
											"name": "currency",
											"type": "uint32",
											"internalType": "uint32"
										}
									]
								},
								{
									"name": "surplusAllowances",
									"type": "tuple[]",
									"internalType": "struct JBCurrencyAmount[]",
									"components": [
										{
											"name": "amount",
											"type": "uint224",
											"internalType": "uint224"
										},
										{
											"name": "currency",
											"type": "uint32",
											"internalType": "uint32"
										}
									]
								}
							]
						}
					]
				},
				{
					"name": "encodedConfiguration",
					"type": "bytes",
					"indexed": false,
					"internalType": "bytes"
				},
				{
					"name": "caller",
					"type": "address",
					"indexed": false,
					"internalType": "address"
				}
			],
			"anonymous": false
		},
		{
			"type": "event",
			"name": "DeploySuckers",
			"inputs": [
				{
					"name": "revnetId",
					"type": "uint256",
					"indexed": true,
					"internalType": "uint256"
				},
				{
					"name": "salt",
					"type": "bytes32",
					"indexed": true,
					"internalType": "bytes32"
				},
				{
					"name": "encodedConfiguration",
					"type": "bytes",
					"indexed": false,
					"internalType": "bytes"
				},
				{
					"name": "suckerDeploymentConfiguration",
					"type": "tuple",
					"indexed": false,
					"internalType": "struct REVSuckerDeploymentConfig",
					"components": [
						{
							"name": "deployerConfigurations",
							"type": "tuple[]",
							"internalType": "struct JBSuckerDeployerConfig[]",
							"components": [
								{
									"name": "deployer",
									"type": "address",
									"internalType": "contract IJBSuckerDeployer"
								},
								{
									"name": "mappings",
									"type": "tuple[]",
									"internalType": "struct JBTokenMapping[]",
									"components": [
										{
											"name": "localToken",
											"type": "address",
											"internalType": "address"
										},
										{
											"name": "minGas",
											"type": "uint32",
											"internalType": "uint32"
										},
										{
											"name": "remoteToken",
											"type": "address",
											"internalType": "address"
										},
										{
											"name": "minBridgeAmount",
											"type": "uint256",
											"internalType": "uint256"
										}
									]
								}
							]
						},
						{
							"name": "salt",
							"type": "bytes32",
							"internalType": "bytes32"
						}
					]
				},
				{
					"name": "caller",
					"type": "address",
					"indexed": false,
					"internalType": "address"
				}
			],
			"anonymous": false
		},
		{
			"type": "event",
			"name": "Mint",
			"inputs": [
				{
					"name": "revnetId",
					"type": "uint256",
					"indexed": true,
					"internalType": "uint256"
				},
				{
					"name": "stageId",
					"type": "uint256",
					"indexed": true,
					"internalType": "uint256"
				},
				{
					"name": "beneficiary",
					"type": "address",
					"indexed": true,
					"internalType": "address"
				},
				{
					"name": "count",
					"type": "uint256",
					"indexed": false,
					"internalType": "uint256"
				},
				{
					"name": "caller",
					"type": "address",
					"indexed": false,
					"internalType": "address"
				}
			],
			"anonymous": false
		},
		{
			"type": "event",
			"name": "ReplaceSplitOperator",
			"inputs": [
				{
					"name": "revnetId",
					"type": "uint256",
					"indexed": true,
					"internalType": "uint256"
				},
				{
					"name": "newSplitOperator",
					"type": "address",
					"indexed": true,
					"internalType": "address"
				},
				{
					"name": "caller",
					"type": "address",
					"indexed": false,
					"internalType": "address"
				}
			],
			"anonymous": false
		},
		{
			"type": "event",
			"name": "SetAdditionalOperator",
			"inputs": [
				{
					"name": "revnetId",
					"type": "uint256",
					"indexed": false,
					"internalType": "uint256"
				},
				{
					"name": "additionalOperator",
					"type": "address",
					"indexed": false,
					"internalType": "address"
				},
				{
					"name": "permissionIds",
					"type": "uint256[]",
					"indexed": false,
					"internalType": "uint256[]"
				},
				{
					"name": "caller",
					"type": "address",
					"indexed": false,
					"internalType": "address"
				}
			],
			"anonymous": false
		},
		{
			"type": "event",
			"name": "SetCashOutDelay",
			"inputs": [
				{
					"name": "revnetId",
					"type": "uint256",
					"indexed": true,
					"internalType": "uint256"
				},
				{
					"name": "cashOutDelay",
					"type": "uint256",
					"indexed": false,
					"internalType": "uint256"
				},
				{
					"name": "caller",
					"type": "address",
					"indexed": false,
					"internalType": "address"
				}
			],
			"anonymous": false
		},
		{
			"type": "event",
			"name": "StoreMintPotential",
			"inputs": [
				{
					"name": "revnetId",
					"type": "uint256",
					"indexed": true,
					"internalType": "uint256"
				},
				{
					"name": "stageId",
					"type": "uint256",
					"indexed": true,
					"internalType": "uint256"
				},
				{
					"name": "beneficiary",
					"type": "address",
					"indexed": true,
					"internalType": "address"
				},
				{
					"name": "count",
					"type": "uint256",
					"indexed": false,
					"internalType": "uint256"
				},
				{
					"name": "caller",
					"type": "address",
					"indexed": false,
					"internalType": "address"
				}
			],
			"anonymous": false
		},
		{
			"type": "event",
			"name": "StoredPayHookSpecifications",
			"inputs": [
				{
					"name": "revnetId",
					"type": "uint256",
					"indexed": true,
					"internalType": "uint256"
				},
				{
					"name": "payHookSpecifications",
					"type": "tuple[]",
					"indexed": false,
					"internalType": "struct JBPayHookSpecification[]",
					"components": [
						{
							"name": "hook",
							"type": "address",
							"internalType": "contract IJBPayHook"
						},
						{
							"name": "amount",
							"type": "uint256",
							"internalType": "uint256"
						},
						{
							"name": "metadata",
							"type": "bytes",
							"internalType": "bytes"
						}
					]
				},
				{
					"name": "caller",
					"type": "address",
					"indexed": false,
					"internalType": "address"
				}
			],
			"anonymous": false
		},
		{
			"type": "error",
			"name": "PRBMath_MulDiv_Overflow",
			"inputs": [
				{
					"name": "x",
					"type": "uint256",
					"internalType": "uint256"
				},
				{
					"name": "y",
					"type": "uint256",
					"internalType": "uint256"
				},
				{
					"name": "denominator",
					"type": "uint256",
					"internalType": "uint256"
				}
			]
		},
		{
			"type": "error",
			"name": "REVBasic_BadStageTimes",
			"inputs": []
		},
		{
			"type": "error",
			"name": "REVBasic_CashOutDelayInEffect",
			"inputs": []
		},
		{
			"type": "error",
			"name": "REVBasic_StageNotStarted",
			"inputs": []
		},
		{
			"type": "error",
			"name": "REVBasic_StagesRequired",
			"inputs": []
		},
		{
			"type": "error",
			"name": "REVBasic_Unauthorized",
			"inputs": []
		}
	],
	"solcInputHash": "e4b47a65af0736bb9d247d7a37c76c7b",
	"args": [
		"0x1e4c8DFfE8D72aeB63e8dDbE9eF89bc368cbbE99",
		"0x51D1089CbB41a0E3884EF5fb886a6f8944f2e44D",
		"2",
		"0xdc3BfA44566319f1cc629B08780b6B80b17A8cDC"
	],
	"bytecode": "0x6101006040523480156200001257600080fd5b5060405162005b9838038062005b9883398101604081905262000035916200006f565b6001600160a01b0393841660a05291831660c0526080521660e052620000cb565b6001600160a01b03811681146200006c57600080fd5b50565b600080600080608085870312156200008657600080fd5b8451620000938162000056565b6020860151909450620000a68162000056565b604086015160608701519194509250620000c08162000056565b939692955090935050565b60805160a05160c05160e051615a0e6200018a600039600081816103200152611834015260008181610354015281816108ef01528181610f3b015281816115340152612cc7015260008181610472015281816109ce0152818161135e015281816113e701528181611485015281816119c801528181611e1201528181611e9701528181611f27015281816120900152818161213a0152612202015260008181610180015281816105cb015281816106eb015261103b0152615a0e6000f3fe6080604052600436106100fa5760003560e01c806301ffc9a7146100ff578063150b7a02146101355780631680e1721461016e5780631727f039146101b05780634fa9af69146101c55780635a31dc13146101f25780635c0a7cee14610230578063677ce0881461025d5780637249a7731461027d57806382a09b30146102c05780638cc35846146102e0578063abf8c5c81461030e578063b5d2553314610342578063b8a843d714610376578063bb1994021461038d578063c57981b5146103ad578063cd817cd0146103c2578063d290db42146103f2578063db29c89214610420578063eb5ad9d914610440578063ee0fc12114610460575b600080fd5b34801561010b57600080fd5b5061012061011a366004612ef0565b50600090565b60405190151581526020015b60405180910390f35b34801561014157600080fd5b50610155610150366004612f8a565b610494565b6040516001600160e01b0319909116815260200161012c565b34801561017a57600080fd5b506101a27f000000000000000000000000000000000000000000000000000000000000000081565b60405190815260200161012c565b6101c36101be366004612ffc565b6104ce565b005b3480156101d157600080fd5b506101a26101e0366004613037565b60016020526000908152604090205481565b3480156101fe57600080fd5b506101a261020d366004613050565b600260209081526000938452604080852082529284528284209052825290205481565b34801561023c57600080fd5b5061025061024b366004613037565b610788565b60405161012c9190613167565b34801561026957600080fd5b5061012061027836600461317a565b6108ac565b34801561028957600080fd5b506102b3610298366004613037565b6000602081905290815260409020546001600160a01b031681565b60405161012c91906131aa565b3480156102cc57600080fd5b506101c36102db366004613050565b6109ca565b3480156102ec57600080fd5b506103006102fb3660046131be565b610bb1565b60405161012c9291906131f9565b34801561031a57600080fd5b506102b37f000000000000000000000000000000000000000000000000000000000000000081565b34801561034e57600080fd5b506102b37f000000000000000000000000000000000000000000000000000000000000000081565b34801561038257600080fd5b506101a262278d0081565b34801561039957600080fd5b506101c36103a8366004613212565b610e87565b3480156103b957600080fd5b506101a2601981565b3480156103ce57600080fd5b506103e26103dd366004613289565b610f2b565b60405161012c94939291906132c4565b3480156103fe57600080fd5b5061041261040d36600461415b565b61120c565b60405161012c92919061426b565b34801561042c57600080fd5b5061012061043b36600461317a565b611230565b34801561044c57600080fd5b506101c361045b36600461317a565b6112c0565b34801561046c57600080fd5b506102b37f000000000000000000000000000000000000000000000000000000000000000081565b600061049e61135a565b6001600160a01b0316336001600160a01b0316146104bb57600080fd5b50630a85bd0160e11b5b95945050505050565b6104d66113e3565b6001600160a01b0316636e49181f8260200135336040518363ffffffff1660e01b815260040161050792919061426b565b602060405180830381865afa158015610524573d6000803e3d6000fd5b505050506040513d601f19601f820116820180604052508101906105489190614282565b610565576040516385abdc5960e01b815260040160405180910390fd5b60006105756101c083018361429f565b81019061058291906142e5565b9050600061eeee61059b610120850161010086016142e5565b6001600160a01b0316146105b05760006105b7565b6101608301355b90506001600160a01b03821663fef43257827f00000000000000000000000000000000000000000000000000000000000000006105fc610120880161010089016142e5565b61016088013561060f60208a018a6142e5565b60008a6020013560405160200161062891815260200190565b6040516020818303038152906040526040518863ffffffff1660e01b815260040161065896959493929190614302565b60206040518083038185885af193505050508015610693575060408051601f3d908101601f191682019092526106909181019061435b565b60015b610781573d8080156106c1576040519150601f19603f3d011682016040523d82523d6000602084013e6106c6565b606091505b5033639e6eec058360208701356106e561012089016101008a016142e5565b604080517f000000000000000000000000000000000000000000000000000000000000000060208201526101608b013591600091016040516020818303038152906040526040518763ffffffff1660e01b8152600401610749959493929190614374565b6000604051808303818588803b15801561076257600080fd5b505af1158015610776573d6000803e3d6000fd5b505050505050505050565b505b505050565b606060046000838152602001908152602001600020805480602002602001604051908101604052809291908181526020016000905b828210156108a1576000848152602090819020604080516060810182526003860290920180546001600160a01b0316835260018101549383019390935260028301805492939291840191610810906143c2565b80601f016020809104026020016040519081016040528092919081815260200182805461083c906143c2565b80156108895780601f1061085e57610100808354040283529160200191610889565b820191906000526020600020905b81548152906001019060200180831161086c57829003601f168201915b505050505081525050815260200190600101906107bd565b505050509050919050565b6000828152602081905260408120546001600160a01b03908116908316036108d6575060016109c4565b604051633d12cb8760e01b8152600481018490526000907f00000000000000000000000000000000000000000000000000000000000000006001600160a01b031690633d12cb8790602401600060405180830381865afa15801561093e573d6000803e3d6000fd5b505050506040513d6000823e601f3d908101601f1916820160405261096691908101906143fc565b805190915060005b818110156109bc578281815181106109885761098861448a565b60200260200101516001600160a01b0316856001600160a01b0316036109b457600193505050506109c4565b60010161096e565b506000925050505b92915050565b60007f00000000000000000000000000000000000000000000000000000000000000006001600160a01b031663d4a1b4b16040518163ffffffff1660e01b8152600401602060405180830381865afa158015610a2a573d6000803e3d6000fd5b505050506040513d601f19601f82011682018060405250810190610a4e91906144a0565b604051630969875760e21b815260048101869052602481018590526001600160a01b0391909116906325a61d5c9060440161012060405180830381865afa158015610a9d573d6000803e3d6000fd5b505050506040513d601f19601f82011682018060405250810190610ac191906144f4565b905042816060015165ffffffffffff161115610af057604051633c09460360e11b815260040160405180910390fd5b60008481526002602090815260408083208483015165ffffffffffff16845282528083206001600160a01b038616845290915281205490819003610b35575050505050565b600085815260026020908152604080832087845282528083206001600160a01b0387168452909152812055610b6b858285611443565b826001600160a01b0316826020015165ffffffffffff16866000805160206159b98339815191528433604051610ba292919061426b565b60405180910390a45050505050565b60c081013560009081526020819052604081205460609081906001600160a01b03168015610c5457604051634661ac2360e11b81526001600160a01b03821690638cc3584690610c05908890600401614661565b600060405180830381865afa158015610c22573d6000803e3d6000fd5b505050506040513d6000823e601f3d908101601f19168201604052610c4a9190810190614717565b9094509150610c5d565b84610120013593505b815160c086013560009081526004602090815260408083208054825181850281018501909352808352941515949192909190849084015b82821015610d78576000848152602090819020604080516060810182526003860290920180546001600160a01b0316835260018101549383019390935260028301805492939291840191610ce7906143c2565b80601f0160208091040260200160405190810160405280929190818152602001828054610d13906143c2565b8015610d605780601f10610d3557610100808354040283529160200191610d60565b820191906000526020600020905b815481529060010190602001808311610d4357829003601f168201915b50505050508152505081526020019060010190610c94565b50505050905060008151905082610d90576000610d93565b60015b610da09060ff1682614876565b6001600160401b03811115610db757610db7613364565b604051908082528060200260200182016040528015610df057816020015b610ddd612e89565b815260200190600190039081610dd55790505b50955060005b81811015610e3d57828181518110610e1057610e1061448a565b6020026020010151878281518110610e2a57610e2a61448a565b6020908102919091010152600101610df6565b508215610e7d5784600081518110610e5757610e5761448a565b6020026020010151868281518110610e7157610e7161448a565b60200260200101819052505b5050505050915091565b610e9184336114f2565b60003384848460200135604051602001610eae9493929190614889565b60408051601f1981840301815291905280516020909101209050610ee58582610ed785806148bf565b610ee091614908565b61151d565b80857f755ecfca2f6e66af8868551556bf7931740a7062db8e0882f4c322fdb0bb3f6086868633604051610f1c9493929190614915565b60405180910390a35050505050565b6000808060606001600160a01b037f0000000000000000000000000000000000000000000000000000000000000000166383db9d0160408701803590610f749060208a016142e5565b6040518363ffffffff1660e01b8152600401610f9192919061426b565b602060405180830381865afa158015610fae573d6000803e3d6000fd5b505050506040513d601f19601f82011682018060405250810190610fd29190614282565b15610fef5761271093506080850135925060a08501359150611205565b6040808601356000908152600160205220544210156110215760405163e889f60760e01b815260040160405180910390fd5b600061102b6113e3565b6001600160a01b031663862026507f000000000000000000000000000000000000000000000000000000000000000061106a60e08a0160c08b016142e5565b6040518363ffffffff1660e01b815260040161108792919061426b565b602060405180830381865afa1580156110a4573d6000803e3d6000fd5b505050506040513d601f19601f820116820180604052508101906110c891906144a0565b905061016086013561271014806110e657506001600160a01b038116155b156111075785610160013586608001358760a0013594509450945050611205565b600061111b608088013560196103e86115b4565b905060006111396101208901358360a08b01356101608c013561168b565b604080516001808252818301909252919250816020015b604080516060808201835260008083526020830152918101919091528152602001906001900390816111505790505093506040518060600160405280306001600160a01b03168152602001828152602001846040516020016111b291906131aa565b604051602081830303815290604052815250846000815181106111d7576111d761448a565b60209081029190910101526101608801356111f68360808b0135614acd565b8960a001359650965096505050505b9193509193565b60008061121f8a8a8a8a8a8a8a8a611703565b909b909a5098505050505050505050565b600061123a6119c4565b6001600160a01b031663632af95f83308661125488611a24565b6000806040518763ffffffff1660e01b815260040161127896959493929190614ae0565b602060405180830381865afa158015611295573d6000803e3d6000fd5b505050506040513d601f19601f820116820180604052508101906112b99190614282565b9392505050565b6112ca82336114f2565b61130a303366ffffffffffffff85166000604051908082528060200260200182016040528015611304578160200160208202803683370190505b50611b9e565b6113148282611c18565b806001600160a01b0316827f0329d6a81434b130c72eb65eea0e32e429dc1277b4aad86ec86454aefb6184513360405161134e91906131aa565b60405180910390a35050565b60007f00000000000000000000000000000000000000000000000000000000000000006001600160a01b031663293c49996040518163ffffffff1660e01b8152600401602060405180830381865afa1580156113ba573d6000803e3d6000fd5b505050506040513d601f19601f820116820180604052508101906113de91906144a0565b905090565b60007f00000000000000000000000000000000000000000000000000000000000000006001600160a01b03166388bc2ef36040518163ffffffff1660e01b8152600401602060405180830381865afa1580156113ba573d6000803e3d6000fd5b6040516363fdc96f60e11b815260048101849052602481018390526001600160a01b03828116604483015260a06064830152600060a4830181905260848301527f0000000000000000000000000000000000000000000000000000000000000000169063c7fb92de9060c4016020604051808303816000875af11580156114ce573d6000803e3d6000fd5b505050506040513d601f19601f82011682018060405250810190610781919061435b565b6114fc8282611230565b611519576040516385abdc5960e01b815260040160405180910390fd5b5050565b604051630179fa8760e51b81526001600160a01b037f00000000000000000000000000000000000000000000000000000000000000001690632f3f50e09061156d90869086908690600401614c24565b6000604051808303816000875af115801561158c573d6000803e3d6000fd5b505050506040513d6000823e601f3d908101601f1916820160405261078191908101906143fc565b60008080600019858709858702925082811083820303915050806000036115ee578382816115e4576115e4614c43565b04925050506112b9565b83811061162357604051630c740aef60e31b815260048101879052602481018690526044810185905260640160405180910390fd5b600084868809600260036001881981018916988990049182028318808302840302808302840302808302840302808302840302808302840302918202909203026000889003889004909101858311909403939093029303949094049190911702949350505050565b60008160000361169d575060006116fb565b8284036116ab5750836116fb565b60006116b88686866115b4565b905061270f1983016116cb5790506116fb565b6116f7816116e5876116df87612710614acd565b886115b4565b6116ef9086614876565b6127106115b4565b9150505b949350505050565b600080898082036117855761171661135a565b6001600160a01b03166306661abd6040518163ffffffff1660e01b8152600401602060405180830381865afa158015611753573d6000803e3d6000fd5b505050506040513d601f19601f82011682018060405250810190611777919061435b565b611782906001614876565b9a505b84516000611794826001614876565b6001600160401b038111156117ab576117ab613364565b6040519080825280602002602001820160405280156117e457816020015b6117d1612e89565b8152602001906001900390816117c95790505b50905060005b82811015611831578781815181106118045761180461448a565b602002602001015182828151811061181e5761181e61448a565b60209081029190910101526001016117ea565b507f00000000000000000000000000000000000000000000000000000000000000006001600160a01b0316632230819f8e8a600001516040518363ffffffff1660e01b8152600401611884929190614d73565b6020604051808303816000875af11580156118a3573d6000803e3d6000fd5b505050506040513d601f19601f820116820180604052508101906118c791906144a0565b93508760200151156118f65760008d815260036020908152604082208054600181018255908352912060149101555b8760400151156119235760008d815260036020908152604082208054600181018255908352912060159101555b8760600151156119505760008d815260036020908152604082208054600181018255908352912060169101555b6040518060600160405280856001600160a01b0316815260200160008152602001604051806020016040528060008152508152508183815181106119965761199661448a565b60200260200101819052506119b0838d8d8d8d868c611cdc565b508c94505050509850989650505050505050565b60007f00000000000000000000000000000000000000000000000000000000000000006001600160a01b031663f434c9146040518163ffffffff1660e01b8152600401602060405180830381865afa1580156113ba573d6000803e3d6000fd5b6000818152600360209081526040808320805482518185028101850190935280835260609493830182828015611a7957602002820191906000526020600020905b815481526020019060010190808311611a65575b50508351939450611a91925083915060039050614876565b6001600160401b03811115611aa857611aa8613364565b604051908082528060200260200182016040528015611ad1578160200160208202803683370190505b509250601160ff1683600081518110611aec57611aec61448a565b602002602001018181525050601860ff1683600181518110611b1057611b1061448a565b602002602001018181525050600660ff1683600281518110611b3457611b3461448a565b60200260200101818152505060005b81811015611b9657828181518110611b5d57611b5d61448a565b602002602001015184826003611b739190614876565b81518110611b8357611b8361448a565b6020908102919091010152600101611b43565b505050919050565b604080516060810182526001600160a01b038516815266ffffffffffffff84166020820152908101829052611bd16119c4565b6001600160a01b031663893ce90186836040518363ffffffff1660e01b8152600401611bfe929190614e93565b600060405180830381600087803b15801561076257600080fd5b6000611c2383611a24565b80519091506000816001600160401b03811115611c4257611c42613364565b604051908082528060200260200182016040528015611c6b578160200160208202803683370190505b50905060005b82811015611cbf57838181518110611c8b57611c8b61448a565b6020026020010151828281518110611ca557611ca561448a565b60ff90921660209283029190910190910152600101611c71565b50611cd530858766ffffffffffffff1684611b9e565b5050505050565b6000611cf188888888308761ffff168a611dd8565b835190985060005b81811015611d905760008a81526004602052604090208551869083908110611d2357611d2361448a565b602090810291909101810151825460018082018555600094855293839020825160039092020180546001600160a01b0319166001600160a01b03909216919091178155918101519282019290925560408201516002820190611d859082614f6e565b505050600101611cf9565b50887fdfaf2737f25eace49d372b472ec03f1df0f9814dfc69d2b95c5e92a041f42e298533604051611dc392919061502d565b60405180910390a25096979650505050505050565b6000806000611de889878761235f565b9150915089600003611e955788516040908101519051634fb99a3f60e01b81526001600160a01b037f00000000000000000000000000000000000000000000000000000000000000001691634fb99a3f91611e4b91309187908e906004016154ef565b6020604051808303816000875af1158015611e6a573d6000803e3d6000fd5b505050506040513d601f19601f82011682018060405250810190611e8e919061435b565b9950612110565b7f00000000000000000000000000000000000000000000000000000000000000006001600160a01b031663293c49996040518163ffffffff1660e01b8152600401602060405180830381865afa158015611ef3573d6000803e3d6000fd5b505050506040513d601f19601f82011682018060405250810190611f1791906144a0565b6001600160a01b03166342842e0e7f00000000000000000000000000000000000000000000000000000000000000006001600160a01b031663293c49996040518163ffffffff1660e01b8152600401602060405180830381865afa158015611f83573d6000803e3d6000fd5b505050506040513d601f19601f82011682018060405250810190611fa791906144a0565b6001600160a01b0316636352211e8d6040518263ffffffff1660e01b8152600401611fd491815260200190565b602060405180830381865afa158015611ff1573d6000803e3d6000fd5b505050506040513d601f19601f8201168201806040525081019061201591906144a0565b6040516001600160e01b031960e084901b1681526001600160a01b039091166004820152306024820152604481018d9052606401600060405180830381600087803b15801561206357600080fd5b505af1158015612077573d6000803e3d6000fd5b505060405163b1d5968560e01b81526001600160a01b037f000000000000000000000000000000000000000000000000000000000000000016925063b1d5968591506120cb908d9086908d90600401615556565b6020604051808303816000875af11580156120ea573d6000803e3d6000fd5b505050506040513d601f19601f8201168201806040525081019061210e919061435b565b505b6121388a8a6060015160008151811061212b5761212b61448a565b6020026020010151612765565b7f00000000000000000000000000000000000000000000000000000000000000006001600160a01b031663581781918b8b60000151600001518c60000151602001518d60000151606001516040518563ffffffff1660e01b81526004016121a2949392919061559d565b6020604051808303816000875af11580156121c1573d6000803e3d6000fd5b505050506040513d601f19601f820116820180604052508101906121e591906144a0565b5086516001600160a01b031615612200576122008a886127f2565b7f00000000000000000000000000000000000000000000000000000000000000006001600160a01b031663ed1159578b600061223f8d6040015161292c565b6040518463ffffffff1660e01b815260040161225d939291906155da565b600060405180830381600087803b15801561227757600080fd5b505af115801561228b573d6000803e3d6000fd5b505050506122998a8a612a5c565b6122a78a8a60400151611c18565b6122b08a612c76565b6020840151600090156122f157338286602001516040516020016122d6939291906155f9565b604051602081830303815290604052805190602001206122f4565b60005b9050801561230b5761230b8b82876000015161151d565b808b7ff508fc85f2069f367770a68e3aaca6fffdf45a93168764fa7d08aecc9585c4ac8c8c8c8a89893360405161234897969594939291906157f7565b60405180910390a350989998505050505050505050565b606083810151518190600081900361238a57604051638ef0479760e01b815260040160405180910390fd5b806001600160401b038111156123a2576123a2613364565b6040519080825280602002602001820160405280156124ac57816020015b6124996040805161010080820183526000808352602080840182905283850182905260608085018390526080808601849052865161026081018852848152928301849052958201839052810182905293840181905260a084810182905260c0850182905260e0850182905291840181905261012084018190526101408401819052610160840181905261018084018190526101a084018190526101c084018190526101e0840181905261020084018190526102208401819052610240840152909190820190815260200160608152602001606081525090565b8152602001906001900390816123c05790505b5092506124b886612cf6565b91506124c2612eb3565b6000805b8381101561275957886060015181815181106124e4576124e461448a565b6020026020010151925081836000015164ffffffffff16116125195760405163cb89a04560e01b815260040160405180910390fd5b826000015164ffffffffff168682815181106125375761253761448a565b602090810291909101015165ffffffffffff9091169052608083015186518790839081106125675761256761448a565b60200260200101516020019063ffffffff16908163ffffffff1681525050826060015186828151811061259c5761259c61448a565b6020026020010151604001906001600160701b031690816001600160701b0316815250508260a001518682815181106125d7576125d761448a565b60200260200101516060019063ffffffff16908163ffffffff168152505060008682815181106126095761260961448a565b6020026020010151608001906001600160a01b031690816001600160a01b031681525050604051806102600160405280846040015161ffff1681526020018460c001516127106126599190615930565b61ffff908116825260208c81015163ffffffff16908301526000604083018190526060830181905260016080840181905260a0840182905260c0840182905260e08401829052610100840182905261012084018290526101408401829052610160840182905261018084018290526101a084018290526101c08401526101e08301526001600160a01b038b1661020083015289166102209091015286518790839081106127085761270861448a565b602002602001015160a00181905250846127228483612d30565b604051602001612733929190615952565b60408051601f19818403018152919052835190955064ffffffffff1691506001016124c6565b50505050935093915050565b805164ffffffffff161580612785575042816000015164ffffffffff1610155b1561278e575050565b600061279d62278d0042614876565b600084815260016020526040908190208290555190915083907f48a9634f50564cfe6648ff5e75795a36873bf96c408523d50017032657e67198906127e5908490339061426b565b60405180910390a2505050565b602081810151516040805160808101825260008082529381018490529081018390526060810183905290915b828110156128f8578360200151818151811061283c5761283c61448a565b602090810291909101810151855191810151604080830151606084015184519251633db10e9d60e11b8152600481018c905262ffffff909416602485015263ffffffff91821660448501521660648301526001600160a01b039081166084830152919450911690637b621d3a9060a4016020604051808303816000875af11580156128cb573d6000803e3d6000fd5b505050506040513d601f19601f820116820180604052508101906128ef91906144a0565b5060010161281e565b5050905160009283526020839052604090922080546001600160a01b0319166001600160a01b039093169290921790915550565b604080516001808252818301909252606091816020015b60408051808201909152600081526060602082015281526020019060019003908161294357505060408051600180825281830190925291925060009190602082015b6040805160c08101825260008082526020808301829052928201819052606082018190526080820181905260a082015282526000199092019101816129855750506040805160c0810182526000808252633b9aca0060208301529181018290526001600160a01b03861660608201526080810182905260a08101829052825192935091839190612a1757612a1761448a565b60200260200101819052506040518060400160405280600181526020018281525082600081518110612a4b57612a4b61448a565b602002602001018190525050919050565b606081015151612a6a612eb3565b60005b82811015611cd55783606001518181518110612a8b57612a8b61448a565b6020026020010151915060008260200151519050612adb6040518060600160405280600063ffffffff16815260200160006001600160681b0316815260200160006001600160a01b031681525090565b60005b82811015612c6b5784602001518181518110612afc57612afc61448a565b6020026020010151915046826000015163ffffffff1603612c6357831580612b2f575042856000015164ffffffffff1611155b15612b9957612b508883602001516001600160681b03168460400151611443565b60408201516001600160a01b0316612b688542614876565b896000805160206159b9833981519152856020015133604051612b8c929190615977565b60405180910390a4612c63565b60208083015160008a81526002909252604082206001600160681b0390911691612bc38742614876565b8152602001908152602001600020600084604001516001600160a01b03166001600160a01b031681526020019081526020016000206000828254612c079190614876565b909155505060408201516001600160a01b0316612c248542614876565b897f9e83979117d75aa75fe101361cf46235d3d0a6fa7afafb275d2b9f8af0227313856020015133604051612c5a929190615977565b60405180910390a45b600101612ade565b505050600101612a6d565b60408051600180825281830190925260009160208083019080368337019050509050601b81600081518110612cad57612cad61448a565b602002602001019060ff16908160ff1681525050611519307f00000000000000000000000000000000000000000000000000000000000000008466ffffffffffffff1684611b9e565b60208082015182518051818401516060928301516040519395612d1a959401615999565b6040516020818303038152906040529050919050565b606081158015612d465750825164ffffffffff16155b612d5857825164ffffffffff16612d5a565b425b6040808501516060860151608087015160a088015160c08901519451612dbd96959060200195865261ffff94851660208701526001600160701b0393909316604086015263ffffffff91821660608601521660808401521660a082015260c00190565b60408051601f1981840301815291905260208401515190915060005b81811015612e335782612e0886602001518381518110612dfb57612dfb61448a565b6020026020010151612e3b565b604051602001612e19929190615952565b60408051601f198184030181529190529250600101612dd9565b505092915050565b6060816000015182604001518360200151604051602001612d1a9392919063ffffffff9390931683526001600160a01b039190911660208301526001600160681b0316604082015260600190565b604051806060016040528060006001600160a01b0316815260200160008152602001606081525090565b6040805160e08101825260008082526060602083018190529282018190529181018290526080810182905260a0810182905260c081019190915290565b600060208284031215612f0257600080fd5b81356001600160e01b0319811681146112b957600080fd5b6001600160a01b0381168114612f2f57600080fd5b50565b8035612f3d81612f1a565b919050565b60008083601f840112612f5457600080fd5b5081356001600160401b03811115612f6b57600080fd5b602083019150836020828501011115612f8357600080fd5b9250929050565b600080600080600060808688031215612fa257600080fd5b8535612fad81612f1a565b94506020860135612fbd81612f1a565b93506040860135925060608601356001600160401b03811115612fdf57600080fd5b612feb88828901612f42565b969995985093965092949392505050565b60006020828403121561300e57600080fd5b81356001600160401b0381111561302457600080fd5b820161020081850312156112b957600080fd5b60006020828403121561304957600080fd5b5035919050565b60008060006060848603121561306557600080fd5b8335925060208401359150604084013561307e81612f1a565b809150509250925092565b6001600160a01b03169052565b60005b838110156130b1578181015183820152602001613099565b50506000910152565b600081518084526130d2816020860160208601613096565b601f01601f19169290920160200192915050565b600082825180855260208086019550808260051b84010181860160005b8481101561315a57858303601f19018952815180516001600160a01b031684528481015185850152604090810151606091850182905290613146818601836130ba565b9a86019a9450505090830190600101613103565b5090979650505050505050565b6020815260006112b960208301846130e6565b6000806040838503121561318d57600080fd5b82359150602083013561319f81612f1a565b809150509250929050565b6001600160a01b0391909116815260200190565b6000602082840312156131d057600080fd5b81356001600160401b038111156131e657600080fd5b820161018081850312156112b957600080fd5b8281526040602082015260006116fb60408301846130e6565b6000806000806060858703121561322857600080fd5b8435935060208501356001600160401b038082111561324657600080fd5b61325288838901612f42565b9095509350604087013591508082111561326b57600080fd5b5085016040818803121561327e57600080fd5b939692955090935050565b60006020828403121561329b57600080fd5b81356001600160401b038111156132b157600080fd5b82016101a081850312156112b957600080fd5b60006080820186835260208681850152604086604086015260606080606087015283875180865260a08801915060a08160051b890101955084890160005b8281101561335257898803609f19018452815180516001600160a01b0316895287810151888a015286015186890186905261333f868a01826130ba565b9850509286019290860190600101613302565b50959c9b505050505050505050505050565b634e487b7160e01b600052604160045260246000fd5b604051606081016001600160401b038111828210171561339c5761339c613364565b60405290565b60405160e081016001600160401b038111828210171561339c5761339c613364565b604051608081016001600160401b038111828210171561339c5761339c613364565b604080519081016001600160401b038111828210171561339c5761339c613364565b60405161018081016001600160401b038111828210171561339c5761339c613364565b60405161012081016001600160401b038111828210171561339c5761339c613364565b604051601f8201601f191681016001600160401b038111828210171561347657613476613364565b604052919050565b60006001600160401b0382111561349757613497613364565b50601f01601f191660200190565b60006134b86134b38461347e565b61344e565b90508281528383830111156134cc57600080fd5b828260208301376000602084830101529392505050565b600082601f8301126134f457600080fd5b6112b9838335602085016134a5565b63ffffffff81168114612f2f57600080fd5b8035612f3d81613503565b60006001600160401b0382111561353957613539613364565b5060051b60200190565b803564ffffffffff81168114612f3d57600080fd5b80356001600160681b0381168114612f3d57600080fd5b600082601f83011261358057600080fd5b813560206135906134b383613520565b828152606092830285018201928282019190878511156135af57600080fd5b8387015b8581101561315a5781818a0312156135cb5760008081fd5b6135d361337a565b81356135de81613503565b81526135eb828701613558565b868201526040808301356135fe81612f1a565b9082015284529284019281016135b3565b803561ffff81168114612f3d57600080fd5b6001600160701b0381168114612f2f57600080fd5b8035612f3d81613621565b600082601f83011261365257600080fd5b813560206136626134b383613520565b82815260059290921b8401810191818101908684111561368157600080fd5b8286015b848110156137625780356001600160401b03808211156136a55760008081fd5b9088019060e0828b03601f19018113156136bf5760008081fd5b6136c76133a2565b6136d2888501613543565b8152604080850135848111156136e85760008081fd5b6136f68e8b8389010161356f565b8a840152506060935061370a84860161360f565b90820152608061371b858201613636565b8483015260a0935061372e848601613515565b9082015260c061373f858201613515565b8483015261374e83860161360f565b908201528652505050918301918301613685565b509695505050505050565b60006080828403121561377f57600080fd5b6137876133c4565b905081356001600160401b03808211156137a057600080fd5b90830190608082860312156137b457600080fd5b6137bc6133c4565b8235828111156137cb57600080fd5b6137d7878286016134e3565b8252506020830135828111156137ec57600080fd5b6137f8878286016134e3565b60208301525060408301358281111561381057600080fd5b61381c878286016134e3565b60408301525060608381013590820152835261383a60208501613515565b602084015261384b60408501612f32565b6040840152606084013591508082111561386457600080fd5b5061387184828501613641565b60608301525092915050565b803560ff81168114612f3d57600080fd5b600082601f83011261389f57600080fd5b813560206138af6134b383613520565b82815260059290921b840181019181810190868411156138ce57600080fd5b8286015b848110156137625780356001600160401b03808211156138f157600080fd5b908801906040828b03601f190181131561390a57600080fd5b6139126133e6565b8784013561391f81612f1a565b8152838201358381111561393257600080fd5b8085019450508b603f85011261394757600080fd5b8784013592506139596134b384613520565b83815260609093028401820192888101908d85111561397757600080fd5b948301945b848610156139db576060868f03121561399457600080fd5b61399c61337a565b86356139a781612f1a565b81526139b4878c0161387d565b8b820152848701356139c581613503565b818601528252606095909501949089019061397c565b828a01525086525050509183019183016138d2565b803562ffffff81168114612f3d57600080fd5b60006040808385031215613a1657600080fd5b613a1e6133e6565b91508235613a2b81612f1a565b82526020838101356001600160401b03811115613a4757600080fd5b8401601f81018613613a5857600080fd5b8035613a666134b382613520565b81815260079190911b82018301908381019088831115613a8557600080fd5b928401925b82841015613afd576080848a031215613aa35760008081fd5b613aab6133c4565b8435613ab681612f1a565b8152613ac38587016139f0565b8682015286850135613ad481613503565b81880152606085810135613ae781613503565b9082015282526080939093019290840190613a8a565b808588015250505050505092915050565b6000613b1c6134b384613520565b8381529050602080820190600585901b840186811115613b3b57600080fd5b845b81811015613c685780356001600160401b0380821115613b5d5760008081fd5b8188019150604080838c031215613b745760008081fd5b613b7c6133e6565b8335613b8781612f1a565b81528387013583811115613b9b5760008081fd5b8085019450508b601f850112613bb357600092508283fd5b83359250613bc36134b384613520565b83815260079390931b8401870192878101908d851115613be35760008081fd5b948801945b84861015613c53576080868f031215613c015760008081fd5b613c096133c4565b8635613c1481612f1a565b8152868a0135613c2381613503565b818b015286850135613c3481612f1a565b8186015260608781013590820152825260809095019490880190613be8565b82890152508752505050928201928201613b3d565b505050509392505050565b600060408284031215613c8557600080fd5b613c8d6133e6565b905081356001600160401b03811115613ca557600080fd5b8201601f81018413613cb657600080fd5b613cc584823560208401613b0e565b8252506020820135602082015292915050565b8015158114612f2f57600080fd5b8035612f3d81613cd8565b60006080808385031215613d0457600080fd5b613d0c6133c4565b915082356001600160401b03811115613d2457600080fd5b8301601f81018513613d3557600080fd5b80356020613d456134b383613520565b8281526101809283028401820192828201919089851115613d6557600080fd5b948301945b84861015613e585780868b031215613d825760008081fd5b613d8a613408565b613d9387613558565b8152613da0858801613515565b858201526040613db1818901613515565b908201526060613dc288820161360f565b90820152613dd1878901612f32565b8189015260a0878101359082015260c0613dec8189016139f0565b9082015260e0613dfd888201613ce6565b90820152610100613e0f888201613ce6565b90820152610120613e21888201613ce6565b90820152610140613e33888201613ce6565b90820152610160613e45888201613ce6565b9082015283529485019491830191613d6a565b50865250613e67868201613515565b8186015250505050613e7b6040830161387d565b6040820152613e8c60608301612f32565b606082015292915050565b600060808284031215613ea957600080fd5b613eb16133c4565b90508135613ebe81613cd8565b81526020820135613ece81613cd8565b60208201526040820135613ee181613cd8565b60408201526060820135613e8c81613cd8565b600060808284031215613f0657600080fd5b613f0e6133c4565b905081356001600160401b0380821115613f2757600080fd5b908301906101808286031215613f3c57600080fd5b613f4461342b565b823582811115613f5357600080fd5b613f5f878286016134e3565b825250602083013582811115613f7457600080fd5b613f80878286016134e3565b602083015250613f9260408401612f32565b6040820152606083013582811115613fa957600080fd5b613fb5878286016134e3565b606083015250613fc760808401612f32565b608082015260a083013582811115613fde57600080fd5b613fea878286016134e3565b60a08301525060c08301358281111561400257600080fd5b61400e87828601613cf1565b60c08301525061402060e08401612f32565b60e0820152610100915061403686838501613e97565b8282015280845250505061404c60208301613ce6565b602082015261405d60408301613ce6565b6040820152613e8c60608301613ce6565b600082601f83011261407f57600080fd5b8135602061408f6134b383613520565b82815260059290921b840181019181810190868411156140ae57600080fd5b8286015b848110156137625780356001600160401b03808211156140d25760008081fd5b908801906060828b03601f19018113156140ec5760008081fd5b6140f461337a565b8784013561410181612f1a565b8152604084810135898301529184013591838311156141205760008081fd5b82850194508c603f86011261413757600093508384fd5b6141478d8a8701358388016134a5565b9082015286525050509183019183016140b2565b600080600080600080600080610100898b03121561417857600080fd5b8835975060208901356001600160401b038082111561419657600080fd5b6141a28c838d0161376d565b985060408b01359150808211156141b857600080fd5b6141c48c838d0161388e565b975060608b01359150808211156141da57600080fd5b6141e68c838d01613a03565b965060808b01359150808211156141fc57600080fd5b6142088c838d01613c73565b955060a08b013591508082111561421e57600080fd5b61422a8c838d01613ef4565b945060c08b013591508082111561424057600080fd5b5061424d8b828c0161406e565b92505061425c60e08a0161360f565b90509295985092959890939650565b9182526001600160a01b0316602082015260400190565b60006020828403121561429457600080fd5b81516112b981613cd8565b6000808335601e198436030181126142b657600080fd5b8301803591506001600160401b038211156142d057600080fd5b602001915036819003821315612f8357600080fd5b6000602082840312156142f757600080fd5b81356112b981612f1a565b868152600060018060a01b03808816602084015286604084015280861660608401525083608083015260e060a0830152600060e08301526101008060c084015261434e818401856130ba565b9998505050505050505050565b60006020828403121561436d57600080fd5b5051919050565b85815260018060a01b0385166020820152836040820152821515606082015260c06080820152600060c082015260e060a082015260006143b760e08301846130ba565b979650505050505050565b600181811c908216806143d657607f821691505b6020821081036143f657634e487b7160e01b600052602260045260246000fd5b50919050565b6000602080838503121561440f57600080fd5b82516001600160401b0381111561442557600080fd5b8301601f8101851361443657600080fd5b80516144446134b382613520565b81815260059190911b8201830190838101908783111561446357600080fd5b928401925b828410156143b757835161447b81612f1a565b82529284019290840190614468565b634e487b7160e01b600052603260045260246000fd5b6000602082840312156144b257600080fd5b81516112b981612f1a565b805165ffffffffffff81168114612f3d57600080fd5b8051612f3d81613503565b8051612f3d81613621565b8051612f3d81612f1a565b6000610120828403121561450757600080fd5b61450f61342b565b614518836144bd565b8152614526602084016144bd565b6020820152614537604084016144bd565b6040820152614548606084016144bd565b6060820152614559608084016144d3565b608082015261456a60a084016144de565b60a082015261457b60c084016144d3565b60c082015261458c60e084016144e9565b60e0820152610100928301519281019290925250919050565b80356145b081612f1a565b6001600160a01b0316825260ff6145c96020830161387d565b16602083015260408101356145dd81613503565b63ffffffff166040830152606090810135910152565b6000808335601e1984360301811261460a57600080fd5b83016020810192503590506001600160401b0381111561462957600080fd5b803603821315612f8357600080fd5b81835281816020850137506000828201602090810191909152601f909101601f19169091010190565b6020815261467a6020820161467584612f32565b613089565b600061468860208401612f32565b6146956040840182613089565b506146a660608301604085016145a5565b60c083013560e083015261010060e0840135818401526146c7818501612f32565b90506101206146d881850183613089565b610140915080850135828501525061016081850135818501526146fd818601866145f3565b61018086810152925090506104c56101a085018383614638565b600080604080848603121561472b57600080fd5b8351602080860151919450906001600160401b038082111561474c57600080fd5b818701915087601f83011261476057600080fd5b815161476e6134b382613520565b81815260059190911b8301840190848101908a83111561478d57600080fd5b8585015b8381101561484e578051858111156147a857600080fd5b86016060818e03601f190112156147bf5760008081fd5b6147c761337a565b888201516147d481612f1a565b8152818a0151898201526060820151878111156147f15760008081fd5b8083019250508d603f8301126148075760008081fd5b888201516148176134b38261347e565b8181528f8c83860101111561482c5760008081fd5b61483b828c83018e8701613096565b828c015250845250918601918601614791565b50809750505050505050509250929050565b634e487b7160e01b600052601160045260246000fd5b808201808211156109c4576109c4614860565b6001600160a01b03851681526060602082018190526000906148ae9083018587614638565b905082604083015295945050505050565b6000808335601e198436030181126148d657600080fd5b8301803591506001600160401b038211156148f057600080fd5b6020019150600581901b3603821315612f8357600080fd5b60006112b9368484613b0e565b606081526000614929606083018688614638565b602083820381850152601e198636030186351261494557600080fd5b8535860180356001600160401b038082111561496057600080fd5b8160051b3603848401131561497457600080fd5b604085526040850182815260608601905060608360051b8701018585016000605e19873603015b86821015614aab57605f198a8503018552808335126149b957600080fd5b87833501898101356149ca81612f1a565b6001600160a01b03908116865260408201359036839003603e190182126149f057600080fd5b6040928201928301928c013589811115614a0957600080fd5b8060071b3603841315614a1b57600080fd5b6040888e01819052880181905260608801925060005b81811015614a9157614a438535612f1a565b8285351684528d850135614a5681613503565b63ffffffff16848f01526040850135614a6e81612f1a565b831660408501526060858101359085015260809485019490930192600101614a31565b505050958a0195945050918801916001919091019061499b565b505050858b013586880152809750505050505050506104c56040830184613089565b818103818111156109c4576109c4614860565b6001600160a01b03878116825286166020808301919091526040820186905260c06060830181905285519083018190526000918681019160e085019190845b81811015614b3b57845184529382019392820192600101614b1f565b5050509415156080840152505090151560a090910152949350505050565b600082825180855260208086019550808260051b8401018186016000805b85811015614c1657868403601f19018a52825180516001600160a01b03908116865290860151604087870181905281518188018190529188019290916060919082890190875b81811015614bfe5786518051851684528c81015163ffffffff168d8501528681015185168785015285015185840152958b0195608090920191600101614bbd565b50509d89019d97505050938601935050600101614b77565b509198975050505050505050565b8381528260208201526060604082015260006104c56060830184614b59565b634e487b7160e01b600052601260045260246000fd5b80516080808452815184820181905260009260a0916020918201918388019190865b82811015614d3857845180516001600160681b031685528281015163ffffffff908116848701526040808301519091169086015260608082015161ffff169086015287810151614ccd89870182613089565b50868101518588015260c08082015162ffffff169086015260e080820151151590860152610100808201511515908601526101208082015115159086015261014080820151151590860152610160908101511515908501529381019361018090930192600101614c7b565b508781015163ffffffff16908901525060408087015160ff16908801526060808701519450614d6990880185613089565b9695505050505050565b82815260406020820152600082516101806040840152614d976101c08401826130ba565b90506020840151603f1980858403016060860152614db583836130ba565b925060408601519150614dcb6080860183613089565b60608601519150808584030160a0860152614de683836130ba565b925060808601519150614dfc60c0860183613089565b60a08601519150808584030160e0860152614e1783836130ba565b925060c08601519150610100818685030181870152614e368484614c59565b935060e08701519250614e4d610120870184613089565b860151805115156101408701526020810151151561016087015260408101511515610180870152606081015115156101a08701529150614e8a9050565b50949350505050565b600060018060a01b03808516835260206040602085015260a0840182865116604086015266ffffffffffffff6020870151166060860152604086015192506060608086015280835180835260c087019150602085019450600092505b80831015614f1257845160ff168252938301936001929092019190830190614eef565b50979650505050505050565b601f821115610783576000816000526020600020601f850160051c81016020861015614f475750805b601f850160051c820191505b81811015614f6657828155600101614f53565b505050505050565b81516001600160401b03811115614f8757614f87613364565b614f9b81614f9584546143c2565b84614f1e565b602080601f831160018114614fd05760008415614fb85750858301515b600019600386901b1c1916600185901b178555614f66565b600085815260208120601f198616915b82811015614fff57888601518255948401946001909101908401614fe0565b508582101561501d5787850151600019600388901b60f8161c191681555b5050505050600190811b01905550565b60408152600061504060408301856130e6565b905060018060a01b03831660208301529392505050565b805161ffff1682526020810151615074602084018261ffff169052565b50604081015161508c604084018263ffffffff169052565b5060608101516150a0606084018215159052565b5060808101516150b4608084018215159052565b5060a08101516150c860a084018215159052565b5060c08101516150dc60c084018215159052565b5060e08101516150f060e084018215159052565b5061010081810151151590830152610120808201511515908301526101408082015115159083015261016080820151151590830152610180808201511515908301526101a0808201511515908301526101c0808201511515908301526101e080820151151590830152610200808201511515908301526102208082015161517982850182613089565b50506102408181015161ffff811684830152610781565b600082825180855260208086019550808260051b8401018186016000805b85811015614c1657868403601f19018a52825180518552850151604086860181905281518187018190529187019160609081880190865b818110156152565785518051151584528b81015163ffffffff168c8501528581015166ffffffffffffff1686850152848101516001600160a01b039081168686015260808083015165ffffffffffff169086015260a0918201511690840152948a019460c0909201916001016151e5565b50509c88019c9650505092850192506001016151ae565b60008151808452602080850194506020840160005b838110156152b857815180516001600160e01b0316885283015163ffffffff168388015260409096019590820190600101615282565b509495945050505050565b600082825180855260208086019550808260051b84010181860160005b8481101561315a57858303601f19018952815180516001600160a01b039081168552858201511685850152604080820151608082870181905291906153278388018261526d565b9250505060608083015192508582038187015250615345818361526d565b9a86019a94505050908301906001016152e0565b600082825180855260208086019550808260051b84010181860160005b8481101561315a57601f198684030189528151805165ffffffffffff1684528481015163ffffffff908116868601526040808301516001600160701b0316908601526060808301519091169085015260808082015161034091906153dc82880182613089565b505060a0808301516153f082880182615057565b505060c08201518161030087015261540a82870182615190565b91505060e0820151915084810361032086015261542781836152c3565b9a86019a9450505090830190600101615376565b600082825180855260208086019550808260051b8401018186016000805b85811015614c1657868403601f19018a52825180516001600160a01b03908116865290860151604087870181905281518188018190529188019290916060919082890190875b818110156154d75786518051851684528c81015160ff168d85015286015163ffffffff1686840152958b01959184019160010161549f565b50509d89019d97505050938601935050600101615459565b6001600160a01b038516815260a060208201819052600090615513908301866130ba565b82810360408401526155258186615359565b90508281036060840152615539818561543b565b838103608090940193909352505060008152602001949350505050565b83815260806020820152600061556f6080830185615359565b8281036040840152615581818561543b565b8381036060909401939093525050600081526020019392505050565b8481526080602082015260006155b660808301866130ba565b82810360408401526155c881866130ba565b91505082606083015295945050505050565b8381528260208201526060604082015260006104c56060830184615190565b6001600160a01b038416815260606020820181905260009061561d908301856130ba565b9050826040830152949350505050565b600082825180855260208086019550808260051b8401018186016000805b85811015614c1657868403601f19018a528251805164ffffffffff1685528581015160e0878701819052815190870181905261010087019188019085905b808210156156d7578251805163ffffffff1685528a8101516001600160681b03168b8601526040908101516001600160a01b0316908501526060909301929189019160019190910190615689565b50505060408281015161ffff908116918801919091526060808401516001600160701b03169088015260808084015163ffffffff9081169189019190915260a0808501519091169088015260c092830151169190950152988401989184019160010161564b565b80516001600160a01b03908116835260208083015160408286018190528151868201819052600094919360609390919082019084890190875b818110156157bf5783518051871684528581015162ffffff16868501528881015163ffffffff9081168a86015290880151168784015292840192608090920191600101615777565b50909998505050505050505050565b60008151604084526157e36040850182614b59565b602093840151949093019390935250919050565b60e0815260008851608060e08401528051608061016085015261581e6101e08501826130ba565b9050602082015161015f19808684030161018087015261583e83836130ba565b92506040840151915080868403016101a08701525061585d82826130ba565b606093909301516101c0860152505060208a015163ffffffff1661010084015260408a015190615891610120850183613089565b60608b015184820360df190161014086015291506158af818361562d565b91505082810360208401526158c4818a61543b565b905082810360408401526158d8818961573e565b905082810360608401526158ec81886157ce565b905082810360808401526159008187615359565b905082810360a084015261591481866130ba565b91505061592460c0830184613089565b98975050505050505050565b61ffff82811682821603908082111561594b5761594b614860565b5092915050565b60408152600061596560408301856130ba565b82810360208401526104c581856130ba565b6001600160681b039290921682526001600160a01b0316602082015260400190565b63ffffffff851681526080602082015260006155b660808301866130ba56fe598baf7bf150ca2f42be9e9f8f55e81d45f5715c3ff22bf46d697fabec7f31d6a26469706673582212204fc1b62bb814f320b141add7fc11f3204cea7419b1846352804aaf408c94bbc664736f6c63430008170033",
	"deployedBytecode": "0x6080604052600436106100fa5760003560e01c806301ffc9a7146100ff578063150b7a02146101355780631680e1721461016e5780631727f039146101b05780634fa9af69146101c55780635a31dc13146101f25780635c0a7cee14610230578063677ce0881461025d5780637249a7731461027d57806382a09b30146102c05780638cc35846146102e0578063abf8c5c81461030e578063b5d2553314610342578063b8a843d714610376578063bb1994021461038d578063c57981b5146103ad578063cd817cd0146103c2578063d290db42146103f2578063db29c89214610420578063eb5ad9d914610440578063ee0fc12114610460575b600080fd5b34801561010b57600080fd5b5061012061011a366004612ef0565b50600090565b60405190151581526020015b60405180910390f35b34801561014157600080fd5b50610155610150366004612f8a565b610494565b6040516001600160e01b0319909116815260200161012c565b34801561017a57600080fd5b506101a27f000000000000000000000000000000000000000000000000000000000000000281565b60405190815260200161012c565b6101c36101be366004612ffc565b6104ce565b005b3480156101d157600080fd5b506101a26101e0366004613037565b60016020526000908152604090205481565b3480156101fe57600080fd5b506101a261020d366004613050565b600260209081526000938452604080852082529284528284209052825290205481565b34801561023c57600080fd5b5061025061024b366004613037565b610788565b60405161012c9190613167565b34801561026957600080fd5b5061012061027836600461317a565b6108ac565b34801561028957600080fd5b506102b3610298366004613037565b6000602081905290815260409020546001600160a01b031681565b60405161012c91906131aa565b3480156102cc57600080fd5b506101c36102db366004613050565b6109ca565b3480156102ec57600080fd5b506103006102fb3660046131be565b610bb1565b60405161012c9291906131f9565b34801561031a57600080fd5b506102b37f000000000000000000000000dc3bfa44566319f1cc629b08780b6b80b17a8cdc81565b34801561034e57600080fd5b506102b37f00000000000000000000000051d1089cbb41a0e3884ef5fb886a6f8944f2e44d81565b34801561038257600080fd5b506101a262278d0081565b34801561039957600080fd5b506101c36103a8366004613212565b610e87565b3480156103b957600080fd5b506101a2601981565b3480156103ce57600080fd5b506103e26103dd366004613289565b610f2b565b60405161012c94939291906132c4565b3480156103fe57600080fd5b5061041261040d36600461415b565b61120c565b60405161012c92919061426b565b34801561042c57600080fd5b5061012061043b36600461317a565b611230565b34801561044c57600080fd5b506101c361045b36600461317a565b6112c0565b34801561046c57600080fd5b506102b37f0000000000000000000000001e4c8dffe8d72aeb63e8ddbe9ef89bc368cbbe9981565b600061049e61135a565b6001600160a01b0316336001600160a01b0316146104bb57600080fd5b50630a85bd0160e11b5b95945050505050565b6104d66113e3565b6001600160a01b0316636e49181f8260200135336040518363ffffffff1660e01b815260040161050792919061426b565b602060405180830381865afa158015610524573d6000803e3d6000fd5b505050506040513d601f19601f820116820180604052508101906105489190614282565b610565576040516385abdc5960e01b815260040160405180910390fd5b60006105756101c083018361429f565b81019061058291906142e5565b9050600061eeee61059b610120850161010086016142e5565b6001600160a01b0316146105b05760006105b7565b6101608301355b90506001600160a01b03821663fef43257827f00000000000000000000000000000000000000000000000000000000000000026105fc610120880161010089016142e5565b61016088013561060f60208a018a6142e5565b60008a6020013560405160200161062891815260200190565b6040516020818303038152906040526040518863ffffffff1660e01b815260040161065896959493929190614302565b60206040518083038185885af193505050508015610693575060408051601f3d908101601f191682019092526106909181019061435b565b60015b610781573d8080156106c1576040519150601f19603f3d011682016040523d82523d6000602084013e6106c6565b606091505b5033639e6eec058360208701356106e561012089016101008a016142e5565b604080517f000000000000000000000000000000000000000000000000000000000000000260208201526101608b013591600091016040516020818303038152906040526040518763ffffffff1660e01b8152600401610749959493929190614374565b6000604051808303818588803b15801561076257600080fd5b505af1158015610776573d6000803e3d6000fd5b505050505050505050565b505b505050565b606060046000838152602001908152602001600020805480602002602001604051908101604052809291908181526020016000905b828210156108a1576000848152602090819020604080516060810182526003860290920180546001600160a01b0316835260018101549383019390935260028301805492939291840191610810906143c2565b80601f016020809104026020016040519081016040528092919081815260200182805461083c906143c2565b80156108895780601f1061085e57610100808354040283529160200191610889565b820191906000526020600020905b81548152906001019060200180831161086c57829003601f168201915b505050505081525050815260200190600101906107bd565b505050509050919050565b6000828152602081905260408120546001600160a01b03908116908316036108d6575060016109c4565b604051633d12cb8760e01b8152600481018490526000907f00000000000000000000000051d1089cbb41a0e3884ef5fb886a6f8944f2e44d6001600160a01b031690633d12cb8790602401600060405180830381865afa15801561093e573d6000803e3d6000fd5b505050506040513d6000823e601f3d908101601f1916820160405261096691908101906143fc565b805190915060005b818110156109bc578281815181106109885761098861448a565b60200260200101516001600160a01b0316856001600160a01b0316036109b457600193505050506109c4565b60010161096e565b506000925050505b92915050565b60007f0000000000000000000000001e4c8dffe8d72aeb63e8ddbe9ef89bc368cbbe996001600160a01b031663d4a1b4b16040518163ffffffff1660e01b8152600401602060405180830381865afa158015610a2a573d6000803e3d6000fd5b505050506040513d601f19601f82011682018060405250810190610a4e91906144a0565b604051630969875760e21b815260048101869052602481018590526001600160a01b0391909116906325a61d5c9060440161012060405180830381865afa158015610a9d573d6000803e3d6000fd5b505050506040513d601f19601f82011682018060405250810190610ac191906144f4565b905042816060015165ffffffffffff161115610af057604051633c09460360e11b815260040160405180910390fd5b60008481526002602090815260408083208483015165ffffffffffff16845282528083206001600160a01b038616845290915281205490819003610b35575050505050565b600085815260026020908152604080832087845282528083206001600160a01b0387168452909152812055610b6b858285611443565b826001600160a01b0316826020015165ffffffffffff16866000805160206159b98339815191528433604051610ba292919061426b565b60405180910390a45050505050565b60c081013560009081526020819052604081205460609081906001600160a01b03168015610c5457604051634661ac2360e11b81526001600160a01b03821690638cc3584690610c05908890600401614661565b600060405180830381865afa158015610c22573d6000803e3d6000fd5b505050506040513d6000823e601f3d908101601f19168201604052610c4a9190810190614717565b9094509150610c5d565b84610120013593505b815160c086013560009081526004602090815260408083208054825181850281018501909352808352941515949192909190849084015b82821015610d78576000848152602090819020604080516060810182526003860290920180546001600160a01b0316835260018101549383019390935260028301805492939291840191610ce7906143c2565b80601f0160208091040260200160405190810160405280929190818152602001828054610d13906143c2565b8015610d605780601f10610d3557610100808354040283529160200191610d60565b820191906000526020600020905b815481529060010190602001808311610d4357829003601f168201915b50505050508152505081526020019060010190610c94565b50505050905060008151905082610d90576000610d93565b60015b610da09060ff1682614876565b6001600160401b03811115610db757610db7613364565b604051908082528060200260200182016040528015610df057816020015b610ddd612e89565b815260200190600190039081610dd55790505b50955060005b81811015610e3d57828181518110610e1057610e1061448a565b6020026020010151878281518110610e2a57610e2a61448a565b6020908102919091010152600101610df6565b508215610e7d5784600081518110610e5757610e5761448a565b6020026020010151868281518110610e7157610e7161448a565b60200260200101819052505b5050505050915091565b610e9184336114f2565b60003384848460200135604051602001610eae9493929190614889565b60408051601f1981840301815291905280516020909101209050610ee58582610ed785806148bf565b610ee091614908565b61151d565b80857f755ecfca2f6e66af8868551556bf7931740a7062db8e0882f4c322fdb0bb3f6086868633604051610f1c9493929190614915565b60405180910390a35050505050565b6000808060606001600160a01b037f00000000000000000000000051d1089cbb41a0e3884ef5fb886a6f8944f2e44d166383db9d0160408701803590610f749060208a016142e5565b6040518363ffffffff1660e01b8152600401610f9192919061426b565b602060405180830381865afa158015610fae573d6000803e3d6000fd5b505050506040513d601f19601f82011682018060405250810190610fd29190614282565b15610fef5761271093506080850135925060a08501359150611205565b6040808601356000908152600160205220544210156110215760405163e889f60760e01b815260040160405180910390fd5b600061102b6113e3565b6001600160a01b031663862026507f000000000000000000000000000000000000000000000000000000000000000261106a60e08a0160c08b016142e5565b6040518363ffffffff1660e01b815260040161108792919061426b565b602060405180830381865afa1580156110a4573d6000803e3d6000fd5b505050506040513d601f19601f820116820180604052508101906110c891906144a0565b905061016086013561271014806110e657506001600160a01b038116155b156111075785610160013586608001358760a0013594509450945050611205565b600061111b608088013560196103e86115b4565b905060006111396101208901358360a08b01356101608c013561168b565b604080516001808252818301909252919250816020015b604080516060808201835260008083526020830152918101919091528152602001906001900390816111505790505093506040518060600160405280306001600160a01b03168152602001828152602001846040516020016111b291906131aa565b604051602081830303815290604052815250846000815181106111d7576111d761448a565b60209081029190910101526101608801356111f68360808b0135614acd565b8960a001359650965096505050505b9193509193565b60008061121f8a8a8a8a8a8a8a8a611703565b909b909a5098505050505050505050565b600061123a6119c4565b6001600160a01b031663632af95f83308661125488611a24565b6000806040518763ffffffff1660e01b815260040161127896959493929190614ae0565b602060405180830381865afa158015611295573d6000803e3d6000fd5b505050506040513d601f19601f820116820180604052508101906112b99190614282565b9392505050565b6112ca82336114f2565b61130a303366ffffffffffffff85166000604051908082528060200260200182016040528015611304578160200160208202803683370190505b50611b9e565b6113148282611c18565b806001600160a01b0316827f0329d6a81434b130c72eb65eea0e32e429dc1277b4aad86ec86454aefb6184513360405161134e91906131aa565b60405180910390a35050565b60007f0000000000000000000000001e4c8dffe8d72aeb63e8ddbe9ef89bc368cbbe996001600160a01b031663293c49996040518163ffffffff1660e01b8152600401602060405180830381865afa1580156113ba573d6000803e3d6000fd5b505050506040513d601f19601f820116820180604052508101906113de91906144a0565b905090565b60007f0000000000000000000000001e4c8dffe8d72aeb63e8ddbe9ef89bc368cbbe996001600160a01b03166388bc2ef36040518163ffffffff1660e01b8152600401602060405180830381865afa1580156113ba573d6000803e3d6000fd5b6040516363fdc96f60e11b815260048101849052602481018390526001600160a01b03828116604483015260a06064830152600060a4830181905260848301527f0000000000000000000000001e4c8dffe8d72aeb63e8ddbe9ef89bc368cbbe99169063c7fb92de9060c4016020604051808303816000875af11580156114ce573d6000803e3d6000fd5b505050506040513d601f19601f82011682018060405250810190610781919061435b565b6114fc8282611230565b611519576040516385abdc5960e01b815260040160405180910390fd5b5050565b604051630179fa8760e51b81526001600160a01b037f00000000000000000000000051d1089cbb41a0e3884ef5fb886a6f8944f2e44d1690632f3f50e09061156d90869086908690600401614c24565b6000604051808303816000875af115801561158c573d6000803e3d6000fd5b505050506040513d6000823e601f3d908101601f1916820160405261078191908101906143fc565b60008080600019858709858702925082811083820303915050806000036115ee578382816115e4576115e4614c43565b04925050506112b9565b83811061162357604051630c740aef60e31b815260048101879052602481018690526044810185905260640160405180910390fd5b600084868809600260036001881981018916988990049182028318808302840302808302840302808302840302808302840302808302840302918202909203026000889003889004909101858311909403939093029303949094049190911702949350505050565b60008160000361169d575060006116fb565b8284036116ab5750836116fb565b60006116b88686866115b4565b905061270f1983016116cb5790506116fb565b6116f7816116e5876116df87612710614acd565b886115b4565b6116ef9086614876565b6127106115b4565b9150505b949350505050565b600080898082036117855761171661135a565b6001600160a01b03166306661abd6040518163ffffffff1660e01b8152600401602060405180830381865afa158015611753573d6000803e3d6000fd5b505050506040513d601f19601f82011682018060405250810190611777919061435b565b611782906001614876565b9a505b84516000611794826001614876565b6001600160401b038111156117ab576117ab613364565b6040519080825280602002602001820160405280156117e457816020015b6117d1612e89565b8152602001906001900390816117c95790505b50905060005b82811015611831578781815181106118045761180461448a565b602002602001015182828151811061181e5761181e61448a565b60209081029190910101526001016117ea565b507f000000000000000000000000dc3bfa44566319f1cc629b08780b6b80b17a8cdc6001600160a01b0316632230819f8e8a600001516040518363ffffffff1660e01b8152600401611884929190614d73565b6020604051808303816000875af11580156118a3573d6000803e3d6000fd5b505050506040513d601f19601f820116820180604052508101906118c791906144a0565b93508760200151156118f65760008d815260036020908152604082208054600181018255908352912060149101555b8760400151156119235760008d815260036020908152604082208054600181018255908352912060159101555b8760600151156119505760008d815260036020908152604082208054600181018255908352912060169101555b6040518060600160405280856001600160a01b0316815260200160008152602001604051806020016040528060008152508152508183815181106119965761199661448a565b60200260200101819052506119b0838d8d8d8d868c611cdc565b508c94505050509850989650505050505050565b60007f0000000000000000000000001e4c8dffe8d72aeb63e8ddbe9ef89bc368cbbe996001600160a01b031663f434c9146040518163ffffffff1660e01b8152600401602060405180830381865afa1580156113ba573d6000803e3d6000fd5b6000818152600360209081526040808320805482518185028101850190935280835260609493830182828015611a7957602002820191906000526020600020905b815481526020019060010190808311611a65575b50508351939450611a91925083915060039050614876565b6001600160401b03811115611aa857611aa8613364565b604051908082528060200260200182016040528015611ad1578160200160208202803683370190505b509250601160ff1683600081518110611aec57611aec61448a565b602002602001018181525050601860ff1683600181518110611b1057611b1061448a565b602002602001018181525050600660ff1683600281518110611b3457611b3461448a565b60200260200101818152505060005b81811015611b9657828181518110611b5d57611b5d61448a565b602002602001015184826003611b739190614876565b81518110611b8357611b8361448a565b6020908102919091010152600101611b43565b505050919050565b604080516060810182526001600160a01b038516815266ffffffffffffff84166020820152908101829052611bd16119c4565b6001600160a01b031663893ce90186836040518363ffffffff1660e01b8152600401611bfe929190614e93565b600060405180830381600087803b15801561076257600080fd5b6000611c2383611a24565b80519091506000816001600160401b03811115611c4257611c42613364565b604051908082528060200260200182016040528015611c6b578160200160208202803683370190505b50905060005b82811015611cbf57838181518110611c8b57611c8b61448a565b6020026020010151828281518110611ca557611ca561448a565b60ff90921660209283029190910190910152600101611c71565b50611cd530858766ffffffffffffff1684611b9e565b5050505050565b6000611cf188888888308761ffff168a611dd8565b835190985060005b81811015611d905760008a81526004602052604090208551869083908110611d2357611d2361448a565b602090810291909101810151825460018082018555600094855293839020825160039092020180546001600160a01b0319166001600160a01b03909216919091178155918101519282019290925560408201516002820190611d859082614f6e565b505050600101611cf9565b50887fdfaf2737f25eace49d372b472ec03f1df0f9814dfc69d2b95c5e92a041f42e298533604051611dc392919061502d565b60405180910390a25096979650505050505050565b6000806000611de889878761235f565b9150915089600003611e955788516040908101519051634fb99a3f60e01b81526001600160a01b037f0000000000000000000000001e4c8dffe8d72aeb63e8ddbe9ef89bc368cbbe991691634fb99a3f91611e4b91309187908e906004016154ef565b6020604051808303816000875af1158015611e6a573d6000803e3d6000fd5b505050506040513d601f19601f82011682018060405250810190611e8e919061435b565b9950612110565b7f0000000000000000000000001e4c8dffe8d72aeb63e8ddbe9ef89bc368cbbe996001600160a01b031663293c49996040518163ffffffff1660e01b8152600401602060405180830381865afa158015611ef3573d6000803e3d6000fd5b505050506040513d601f19601f82011682018060405250810190611f1791906144a0565b6001600160a01b03166342842e0e7f0000000000000000000000001e4c8dffe8d72aeb63e8ddbe9ef89bc368cbbe996001600160a01b031663293c49996040518163ffffffff1660e01b8152600401602060405180830381865afa158015611f83573d6000803e3d6000fd5b505050506040513d601f19601f82011682018060405250810190611fa791906144a0565b6001600160a01b0316636352211e8d6040518263ffffffff1660e01b8152600401611fd491815260200190565b602060405180830381865afa158015611ff1573d6000803e3d6000fd5b505050506040513d601f19601f8201168201806040525081019061201591906144a0565b6040516001600160e01b031960e084901b1681526001600160a01b039091166004820152306024820152604481018d9052606401600060405180830381600087803b15801561206357600080fd5b505af1158015612077573d6000803e3d6000fd5b505060405163b1d5968560e01b81526001600160a01b037f0000000000000000000000001e4c8dffe8d72aeb63e8ddbe9ef89bc368cbbe9916925063b1d5968591506120cb908d9086908d90600401615556565b6020604051808303816000875af11580156120ea573d6000803e3d6000fd5b505050506040513d601f19601f8201168201806040525081019061210e919061435b565b505b6121388a8a6060015160008151811061212b5761212b61448a565b6020026020010151612765565b7f0000000000000000000000001e4c8dffe8d72aeb63e8ddbe9ef89bc368cbbe996001600160a01b031663581781918b8b60000151600001518c60000151602001518d60000151606001516040518563ffffffff1660e01b81526004016121a2949392919061559d565b6020604051808303816000875af11580156121c1573d6000803e3d6000fd5b505050506040513d601f19601f820116820180604052508101906121e591906144a0565b5086516001600160a01b031615612200576122008a886127f2565b7f0000000000000000000000001e4c8dffe8d72aeb63e8ddbe9ef89bc368cbbe996001600160a01b031663ed1159578b600061223f8d6040015161292c565b6040518463ffffffff1660e01b815260040161225d939291906155da565b600060405180830381600087803b15801561227757600080fd5b505af115801561228b573d6000803e3d6000fd5b505050506122998a8a612a5c565b6122a78a8a60400151611c18565b6122b08a612c76565b6020840151600090156122f157338286602001516040516020016122d6939291906155f9565b604051602081830303815290604052805190602001206122f4565b60005b9050801561230b5761230b8b82876000015161151d565b808b7ff508fc85f2069f367770a68e3aaca6fffdf45a93168764fa7d08aecc9585c4ac8c8c8c8a89893360405161234897969594939291906157f7565b60405180910390a350989998505050505050505050565b606083810151518190600081900361238a57604051638ef0479760e01b815260040160405180910390fd5b806001600160401b038111156123a2576123a2613364565b6040519080825280602002602001820160405280156124ac57816020015b6124996040805161010080820183526000808352602080840182905283850182905260608085018390526080808601849052865161026081018852848152928301849052958201839052810182905293840181905260a084810182905260c0850182905260e0850182905291840181905261012084018190526101408401819052610160840181905261018084018190526101a084018190526101c084018190526101e0840181905261020084018190526102208401819052610240840152909190820190815260200160608152602001606081525090565b8152602001906001900390816123c05790505b5092506124b886612cf6565b91506124c2612eb3565b6000805b8381101561275957886060015181815181106124e4576124e461448a565b6020026020010151925081836000015164ffffffffff16116125195760405163cb89a04560e01b815260040160405180910390fd5b826000015164ffffffffff168682815181106125375761253761448a565b602090810291909101015165ffffffffffff9091169052608083015186518790839081106125675761256761448a565b60200260200101516020019063ffffffff16908163ffffffff1681525050826060015186828151811061259c5761259c61448a565b6020026020010151604001906001600160701b031690816001600160701b0316815250508260a001518682815181106125d7576125d761448a565b60200260200101516060019063ffffffff16908163ffffffff168152505060008682815181106126095761260961448a565b6020026020010151608001906001600160a01b031690816001600160a01b031681525050604051806102600160405280846040015161ffff1681526020018460c001516127106126599190615930565b61ffff908116825260208c81015163ffffffff16908301526000604083018190526060830181905260016080840181905260a0840182905260c0840182905260e08401829052610100840182905261012084018290526101408401829052610160840182905261018084018290526101a084018290526101c08401526101e08301526001600160a01b038b1661020083015289166102209091015286518790839081106127085761270861448a565b602002602001015160a00181905250846127228483612d30565b604051602001612733929190615952565b60408051601f19818403018152919052835190955064ffffffffff1691506001016124c6565b50505050935093915050565b805164ffffffffff161580612785575042816000015164ffffffffff1610155b1561278e575050565b600061279d62278d0042614876565b600084815260016020526040908190208290555190915083907f48a9634f50564cfe6648ff5e75795a36873bf96c408523d50017032657e67198906127e5908490339061426b565b60405180910390a2505050565b602081810151516040805160808101825260008082529381018490529081018390526060810183905290915b828110156128f8578360200151818151811061283c5761283c61448a565b602090810291909101810151855191810151604080830151606084015184519251633db10e9d60e11b8152600481018c905262ffffff909416602485015263ffffffff91821660448501521660648301526001600160a01b039081166084830152919450911690637b621d3a9060a4016020604051808303816000875af11580156128cb573d6000803e3d6000fd5b505050506040513d601f19601f820116820180604052508101906128ef91906144a0565b5060010161281e565b5050905160009283526020839052604090922080546001600160a01b0319166001600160a01b039093169290921790915550565b604080516001808252818301909252606091816020015b60408051808201909152600081526060602082015281526020019060019003908161294357505060408051600180825281830190925291925060009190602082015b6040805160c08101825260008082526020808301829052928201819052606082018190526080820181905260a082015282526000199092019101816129855750506040805160c0810182526000808252633b9aca0060208301529181018290526001600160a01b03861660608201526080810182905260a08101829052825192935091839190612a1757612a1761448a565b60200260200101819052506040518060400160405280600181526020018281525082600081518110612a4b57612a4b61448a565b602002602001018190525050919050565b606081015151612a6a612eb3565b60005b82811015611cd55783606001518181518110612a8b57612a8b61448a565b6020026020010151915060008260200151519050612adb6040518060600160405280600063ffffffff16815260200160006001600160681b0316815260200160006001600160a01b031681525090565b60005b82811015612c6b5784602001518181518110612afc57612afc61448a565b6020026020010151915046826000015163ffffffff1603612c6357831580612b2f575042856000015164ffffffffff1611155b15612b9957612b508883602001516001600160681b03168460400151611443565b60408201516001600160a01b0316612b688542614876565b896000805160206159b9833981519152856020015133604051612b8c929190615977565b60405180910390a4612c63565b60208083015160008a81526002909252604082206001600160681b0390911691612bc38742614876565b8152602001908152602001600020600084604001516001600160a01b03166001600160a01b031681526020019081526020016000206000828254612c079190614876565b909155505060408201516001600160a01b0316612c248542614876565b897f9e83979117d75aa75fe101361cf46235d3d0a6fa7afafb275d2b9f8af0227313856020015133604051612c5a929190615977565b60405180910390a45b600101612ade565b505050600101612a6d565b60408051600180825281830190925260009160208083019080368337019050509050601b81600081518110612cad57612cad61448a565b602002602001019060ff16908160ff1681525050611519307f00000000000000000000000051d1089cbb41a0e3884ef5fb886a6f8944f2e44d8466ffffffffffffff1684611b9e565b60208082015182518051818401516060928301516040519395612d1a959401615999565b6040516020818303038152906040529050919050565b606081158015612d465750825164ffffffffff16155b612d5857825164ffffffffff16612d5a565b425b6040808501516060860151608087015160a088015160c08901519451612dbd96959060200195865261ffff94851660208701526001600160701b0393909316604086015263ffffffff91821660608601521660808401521660a082015260c00190565b60408051601f1981840301815291905260208401515190915060005b81811015612e335782612e0886602001518381518110612dfb57612dfb61448a565b6020026020010151612e3b565b604051602001612e19929190615952565b60408051601f198184030181529190529250600101612dd9565b505092915050565b6060816000015182604001518360200151604051602001612d1a9392919063ffffffff9390931683526001600160a01b039190911660208301526001600160681b0316604082015260600190565b604051806060016040528060006001600160a01b0316815260200160008152602001606081525090565b6040805160e08101825260008082526060602083018190529282018190529181018290526080810182905260a0810182905260c081019190915290565b600060208284031215612f0257600080fd5b81356001600160e01b0319811681146112b957600080fd5b6001600160a01b0381168114612f2f57600080fd5b50565b8035612f3d81612f1a565b919050565b60008083601f840112612f5457600080fd5b5081356001600160401b03811115612f6b57600080fd5b602083019150836020828501011115612f8357600080fd5b9250929050565b600080600080600060808688031215612fa257600080fd5b8535612fad81612f1a565b94506020860135612fbd81612f1a565b93506040860135925060608601356001600160401b03811115612fdf57600080fd5b612feb88828901612f42565b969995985093965092949392505050565b60006020828403121561300e57600080fd5b81356001600160401b0381111561302457600080fd5b820161020081850312156112b957600080fd5b60006020828403121561304957600080fd5b5035919050565b60008060006060848603121561306557600080fd5b8335925060208401359150604084013561307e81612f1a565b809150509250925092565b6001600160a01b03169052565b60005b838110156130b1578181015183820152602001613099565b50506000910152565b600081518084526130d2816020860160208601613096565b601f01601f19169290920160200192915050565b600082825180855260208086019550808260051b84010181860160005b8481101561315a57858303601f19018952815180516001600160a01b031684528481015185850152604090810151606091850182905290613146818601836130ba565b9a86019a9450505090830190600101613103565b5090979650505050505050565b6020815260006112b960208301846130e6565b6000806040838503121561318d57600080fd5b82359150602083013561319f81612f1a565b809150509250929050565b6001600160a01b0391909116815260200190565b6000602082840312156131d057600080fd5b81356001600160401b038111156131e657600080fd5b820161018081850312156112b957600080fd5b8281526040602082015260006116fb60408301846130e6565b6000806000806060858703121561322857600080fd5b8435935060208501356001600160401b038082111561324657600080fd5b61325288838901612f42565b9095509350604087013591508082111561326b57600080fd5b5085016040818803121561327e57600080fd5b939692955090935050565b60006020828403121561329b57600080fd5b81356001600160401b038111156132b157600080fd5b82016101a081850312156112b957600080fd5b60006080820186835260208681850152604086604086015260606080606087015283875180865260a08801915060a08160051b890101955084890160005b8281101561335257898803609f19018452815180516001600160a01b0316895287810151888a015286015186890186905261333f868a01826130ba565b9850509286019290860190600101613302565b50959c9b505050505050505050505050565b634e487b7160e01b600052604160045260246000fd5b604051606081016001600160401b038111828210171561339c5761339c613364565b60405290565b60405160e081016001600160401b038111828210171561339c5761339c613364565b604051608081016001600160401b038111828210171561339c5761339c613364565b604080519081016001600160401b038111828210171561339c5761339c613364565b60405161018081016001600160401b038111828210171561339c5761339c613364565b60405161012081016001600160401b038111828210171561339c5761339c613364565b604051601f8201601f191681016001600160401b038111828210171561347657613476613364565b604052919050565b60006001600160401b0382111561349757613497613364565b50601f01601f191660200190565b60006134b86134b38461347e565b61344e565b90508281528383830111156134cc57600080fd5b828260208301376000602084830101529392505050565b600082601f8301126134f457600080fd5b6112b9838335602085016134a5565b63ffffffff81168114612f2f57600080fd5b8035612f3d81613503565b60006001600160401b0382111561353957613539613364565b5060051b60200190565b803564ffffffffff81168114612f3d57600080fd5b80356001600160681b0381168114612f3d57600080fd5b600082601f83011261358057600080fd5b813560206135906134b383613520565b828152606092830285018201928282019190878511156135af57600080fd5b8387015b8581101561315a5781818a0312156135cb5760008081fd5b6135d361337a565b81356135de81613503565b81526135eb828701613558565b868201526040808301356135fe81612f1a565b9082015284529284019281016135b3565b803561ffff81168114612f3d57600080fd5b6001600160701b0381168114612f2f57600080fd5b8035612f3d81613621565b600082601f83011261365257600080fd5b813560206136626134b383613520565b82815260059290921b8401810191818101908684111561368157600080fd5b8286015b848110156137625780356001600160401b03808211156136a55760008081fd5b9088019060e0828b03601f19018113156136bf5760008081fd5b6136c76133a2565b6136d2888501613543565b8152604080850135848111156136e85760008081fd5b6136f68e8b8389010161356f565b8a840152506060935061370a84860161360f565b90820152608061371b858201613636565b8483015260a0935061372e848601613515565b9082015260c061373f858201613515565b8483015261374e83860161360f565b908201528652505050918301918301613685565b509695505050505050565b60006080828403121561377f57600080fd5b6137876133c4565b905081356001600160401b03808211156137a057600080fd5b90830190608082860312156137b457600080fd5b6137bc6133c4565b8235828111156137cb57600080fd5b6137d7878286016134e3565b8252506020830135828111156137ec57600080fd5b6137f8878286016134e3565b60208301525060408301358281111561381057600080fd5b61381c878286016134e3565b60408301525060608381013590820152835261383a60208501613515565b602084015261384b60408501612f32565b6040840152606084013591508082111561386457600080fd5b5061387184828501613641565b60608301525092915050565b803560ff81168114612f3d57600080fd5b600082601f83011261389f57600080fd5b813560206138af6134b383613520565b82815260059290921b840181019181810190868411156138ce57600080fd5b8286015b848110156137625780356001600160401b03808211156138f157600080fd5b908801906040828b03601f190181131561390a57600080fd5b6139126133e6565b8784013561391f81612f1a565b8152838201358381111561393257600080fd5b8085019450508b603f85011261394757600080fd5b8784013592506139596134b384613520565b83815260609093028401820192888101908d85111561397757600080fd5b948301945b848610156139db576060868f03121561399457600080fd5b61399c61337a565b86356139a781612f1a565b81526139b4878c0161387d565b8b820152848701356139c581613503565b818601528252606095909501949089019061397c565b828a01525086525050509183019183016138d2565b803562ffffff81168114612f3d57600080fd5b60006040808385031215613a1657600080fd5b613a1e6133e6565b91508235613a2b81612f1a565b82526020838101356001600160401b03811115613a4757600080fd5b8401601f81018613613a5857600080fd5b8035613a666134b382613520565b81815260079190911b82018301908381019088831115613a8557600080fd5b928401925b82841015613afd576080848a031215613aa35760008081fd5b613aab6133c4565b8435613ab681612f1a565b8152613ac38587016139f0565b8682015286850135613ad481613503565b81880152606085810135613ae781613503565b9082015282526080939093019290840190613a8a565b808588015250505050505092915050565b6000613b1c6134b384613520565b8381529050602080820190600585901b840186811115613b3b57600080fd5b845b81811015613c685780356001600160401b0380821115613b5d5760008081fd5b8188019150604080838c031215613b745760008081fd5b613b7c6133e6565b8335613b8781612f1a565b81528387013583811115613b9b5760008081fd5b8085019450508b601f850112613bb357600092508283fd5b83359250613bc36134b384613520565b83815260079390931b8401870192878101908d851115613be35760008081fd5b948801945b84861015613c53576080868f031215613c015760008081fd5b613c096133c4565b8635613c1481612f1a565b8152868a0135613c2381613503565b818b015286850135613c3481612f1a565b8186015260608781013590820152825260809095019490880190613be8565b82890152508752505050928201928201613b3d565b505050509392505050565b600060408284031215613c8557600080fd5b613c8d6133e6565b905081356001600160401b03811115613ca557600080fd5b8201601f81018413613cb657600080fd5b613cc584823560208401613b0e565b8252506020820135602082015292915050565b8015158114612f2f57600080fd5b8035612f3d81613cd8565b60006080808385031215613d0457600080fd5b613d0c6133c4565b915082356001600160401b03811115613d2457600080fd5b8301601f81018513613d3557600080fd5b80356020613d456134b383613520565b8281526101809283028401820192828201919089851115613d6557600080fd5b948301945b84861015613e585780868b031215613d825760008081fd5b613d8a613408565b613d9387613558565b8152613da0858801613515565b858201526040613db1818901613515565b908201526060613dc288820161360f565b90820152613dd1878901612f32565b8189015260a0878101359082015260c0613dec8189016139f0565b9082015260e0613dfd888201613ce6565b90820152610100613e0f888201613ce6565b90820152610120613e21888201613ce6565b90820152610140613e33888201613ce6565b90820152610160613e45888201613ce6565b9082015283529485019491830191613d6a565b50865250613e67868201613515565b8186015250505050613e7b6040830161387d565b6040820152613e8c60608301612f32565b606082015292915050565b600060808284031215613ea957600080fd5b613eb16133c4565b90508135613ebe81613cd8565b81526020820135613ece81613cd8565b60208201526040820135613ee181613cd8565b60408201526060820135613e8c81613cd8565b600060808284031215613f0657600080fd5b613f0e6133c4565b905081356001600160401b0380821115613f2757600080fd5b908301906101808286031215613f3c57600080fd5b613f4461342b565b823582811115613f5357600080fd5b613f5f878286016134e3565b825250602083013582811115613f7457600080fd5b613f80878286016134e3565b602083015250613f9260408401612f32565b6040820152606083013582811115613fa957600080fd5b613fb5878286016134e3565b606083015250613fc760808401612f32565b608082015260a083013582811115613fde57600080fd5b613fea878286016134e3565b60a08301525060c08301358281111561400257600080fd5b61400e87828601613cf1565b60c08301525061402060e08401612f32565b60e0820152610100915061403686838501613e97565b8282015280845250505061404c60208301613ce6565b602082015261405d60408301613ce6565b6040820152613e8c60608301613ce6565b600082601f83011261407f57600080fd5b8135602061408f6134b383613520565b82815260059290921b840181019181810190868411156140ae57600080fd5b8286015b848110156137625780356001600160401b03808211156140d25760008081fd5b908801906060828b03601f19018113156140ec5760008081fd5b6140f461337a565b8784013561410181612f1a565b8152604084810135898301529184013591838311156141205760008081fd5b82850194508c603f86011261413757600093508384fd5b6141478d8a8701358388016134a5565b9082015286525050509183019183016140b2565b600080600080600080600080610100898b03121561417857600080fd5b8835975060208901356001600160401b038082111561419657600080fd5b6141a28c838d0161376d565b985060408b01359150808211156141b857600080fd5b6141c48c838d0161388e565b975060608b01359150808211156141da57600080fd5b6141e68c838d01613a03565b965060808b01359150808211156141fc57600080fd5b6142088c838d01613c73565b955060a08b013591508082111561421e57600080fd5b61422a8c838d01613ef4565b945060c08b013591508082111561424057600080fd5b5061424d8b828c0161406e565b92505061425c60e08a0161360f565b90509295985092959890939650565b9182526001600160a01b0316602082015260400190565b60006020828403121561429457600080fd5b81516112b981613cd8565b6000808335601e198436030181126142b657600080fd5b8301803591506001600160401b038211156142d057600080fd5b602001915036819003821315612f8357600080fd5b6000602082840312156142f757600080fd5b81356112b981612f1a565b868152600060018060a01b03808816602084015286604084015280861660608401525083608083015260e060a0830152600060e08301526101008060c084015261434e818401856130ba565b9998505050505050505050565b60006020828403121561436d57600080fd5b5051919050565b85815260018060a01b0385166020820152836040820152821515606082015260c06080820152600060c082015260e060a082015260006143b760e08301846130ba565b979650505050505050565b600181811c908216806143d657607f821691505b6020821081036143f657634e487b7160e01b600052602260045260246000fd5b50919050565b6000602080838503121561440f57600080fd5b82516001600160401b0381111561442557600080fd5b8301601f8101851361443657600080fd5b80516144446134b382613520565b81815260059190911b8201830190838101908783111561446357600080fd5b928401925b828410156143b757835161447b81612f1a565b82529284019290840190614468565b634e487b7160e01b600052603260045260246000fd5b6000602082840312156144b257600080fd5b81516112b981612f1a565b805165ffffffffffff81168114612f3d57600080fd5b8051612f3d81613503565b8051612f3d81613621565b8051612f3d81612f1a565b6000610120828403121561450757600080fd5b61450f61342b565b614518836144bd565b8152614526602084016144bd565b6020820152614537604084016144bd565b6040820152614548606084016144bd565b6060820152614559608084016144d3565b608082015261456a60a084016144de565b60a082015261457b60c084016144d3565b60c082015261458c60e084016144e9565b60e0820152610100928301519281019290925250919050565b80356145b081612f1a565b6001600160a01b0316825260ff6145c96020830161387d565b16602083015260408101356145dd81613503565b63ffffffff166040830152606090810135910152565b6000808335601e1984360301811261460a57600080fd5b83016020810192503590506001600160401b0381111561462957600080fd5b803603821315612f8357600080fd5b81835281816020850137506000828201602090810191909152601f909101601f19169091010190565b6020815261467a6020820161467584612f32565b613089565b600061468860208401612f32565b6146956040840182613089565b506146a660608301604085016145a5565b60c083013560e083015261010060e0840135818401526146c7818501612f32565b90506101206146d881850183613089565b610140915080850135828501525061016081850135818501526146fd818601866145f3565b61018086810152925090506104c56101a085018383614638565b600080604080848603121561472b57600080fd5b8351602080860151919450906001600160401b038082111561474c57600080fd5b818701915087601f83011261476057600080fd5b815161476e6134b382613520565b81815260059190911b8301840190848101908a83111561478d57600080fd5b8585015b8381101561484e578051858111156147a857600080fd5b86016060818e03601f190112156147bf5760008081fd5b6147c761337a565b888201516147d481612f1a565b8152818a0151898201526060820151878111156147f15760008081fd5b8083019250508d603f8301126148075760008081fd5b888201516148176134b38261347e565b8181528f8c83860101111561482c5760008081fd5b61483b828c83018e8701613096565b828c015250845250918601918601614791565b50809750505050505050509250929050565b634e487b7160e01b600052601160045260246000fd5b808201808211156109c4576109c4614860565b6001600160a01b03851681526060602082018190526000906148ae9083018587614638565b905082604083015295945050505050565b6000808335601e198436030181126148d657600080fd5b8301803591506001600160401b038211156148f057600080fd5b6020019150600581901b3603821315612f8357600080fd5b60006112b9368484613b0e565b606081526000614929606083018688614638565b602083820381850152601e198636030186351261494557600080fd5b8535860180356001600160401b038082111561496057600080fd5b8160051b3603848401131561497457600080fd5b604085526040850182815260608601905060608360051b8701018585016000605e19873603015b86821015614aab57605f198a8503018552808335126149b957600080fd5b87833501898101356149ca81612f1a565b6001600160a01b03908116865260408201359036839003603e190182126149f057600080fd5b6040928201928301928c013589811115614a0957600080fd5b8060071b3603841315614a1b57600080fd5b6040888e01819052880181905260608801925060005b81811015614a9157614a438535612f1a565b8285351684528d850135614a5681613503565b63ffffffff16848f01526040850135614a6e81612f1a565b831660408501526060858101359085015260809485019490930192600101614a31565b505050958a0195945050918801916001919091019061499b565b505050858b013586880152809750505050505050506104c56040830184613089565b818103818111156109c4576109c4614860565b6001600160a01b03878116825286166020808301919091526040820186905260c06060830181905285519083018190526000918681019160e085019190845b81811015614b3b57845184529382019392820192600101614b1f565b5050509415156080840152505090151560a090910152949350505050565b600082825180855260208086019550808260051b8401018186016000805b85811015614c1657868403601f19018a52825180516001600160a01b03908116865290860151604087870181905281518188018190529188019290916060919082890190875b81811015614bfe5786518051851684528c81015163ffffffff168d8501528681015185168785015285015185840152958b0195608090920191600101614bbd565b50509d89019d97505050938601935050600101614b77565b509198975050505050505050565b8381528260208201526060604082015260006104c56060830184614b59565b634e487b7160e01b600052601260045260246000fd5b80516080808452815184820181905260009260a0916020918201918388019190865b82811015614d3857845180516001600160681b031685528281015163ffffffff908116848701526040808301519091169086015260608082015161ffff169086015287810151614ccd89870182613089565b50868101518588015260c08082015162ffffff169086015260e080820151151590860152610100808201511515908601526101208082015115159086015261014080820151151590860152610160908101511515908501529381019361018090930192600101614c7b565b508781015163ffffffff16908901525060408087015160ff16908801526060808701519450614d6990880185613089565b9695505050505050565b82815260406020820152600082516101806040840152614d976101c08401826130ba565b90506020840151603f1980858403016060860152614db583836130ba565b925060408601519150614dcb6080860183613089565b60608601519150808584030160a0860152614de683836130ba565b925060808601519150614dfc60c0860183613089565b60a08601519150808584030160e0860152614e1783836130ba565b925060c08601519150610100818685030181870152614e368484614c59565b935060e08701519250614e4d610120870184613089565b860151805115156101408701526020810151151561016087015260408101511515610180870152606081015115156101a08701529150614e8a9050565b50949350505050565b600060018060a01b03808516835260206040602085015260a0840182865116604086015266ffffffffffffff6020870151166060860152604086015192506060608086015280835180835260c087019150602085019450600092505b80831015614f1257845160ff168252938301936001929092019190830190614eef565b50979650505050505050565b601f821115610783576000816000526020600020601f850160051c81016020861015614f475750805b601f850160051c820191505b81811015614f6657828155600101614f53565b505050505050565b81516001600160401b03811115614f8757614f87613364565b614f9b81614f9584546143c2565b84614f1e565b602080601f831160018114614fd05760008415614fb85750858301515b600019600386901b1c1916600185901b178555614f66565b600085815260208120601f198616915b82811015614fff57888601518255948401946001909101908401614fe0565b508582101561501d5787850151600019600388901b60f8161c191681555b5050505050600190811b01905550565b60408152600061504060408301856130e6565b905060018060a01b03831660208301529392505050565b805161ffff1682526020810151615074602084018261ffff169052565b50604081015161508c604084018263ffffffff169052565b5060608101516150a0606084018215159052565b5060808101516150b4608084018215159052565b5060a08101516150c860a084018215159052565b5060c08101516150dc60c084018215159052565b5060e08101516150f060e084018215159052565b5061010081810151151590830152610120808201511515908301526101408082015115159083015261016080820151151590830152610180808201511515908301526101a0808201511515908301526101c0808201511515908301526101e080820151151590830152610200808201511515908301526102208082015161517982850182613089565b50506102408181015161ffff811684830152610781565b600082825180855260208086019550808260051b8401018186016000805b85811015614c1657868403601f19018a52825180518552850151604086860181905281518187018190529187019160609081880190865b818110156152565785518051151584528b81015163ffffffff168c8501528581015166ffffffffffffff1686850152848101516001600160a01b039081168686015260808083015165ffffffffffff169086015260a0918201511690840152948a019460c0909201916001016151e5565b50509c88019c9650505092850192506001016151ae565b60008151808452602080850194506020840160005b838110156152b857815180516001600160e01b0316885283015163ffffffff168388015260409096019590820190600101615282565b509495945050505050565b600082825180855260208086019550808260051b84010181860160005b8481101561315a57858303601f19018952815180516001600160a01b039081168552858201511685850152604080820151608082870181905291906153278388018261526d565b9250505060608083015192508582038187015250615345818361526d565b9a86019a94505050908301906001016152e0565b600082825180855260208086019550808260051b84010181860160005b8481101561315a57601f198684030189528151805165ffffffffffff1684528481015163ffffffff908116868601526040808301516001600160701b0316908601526060808301519091169085015260808082015161034091906153dc82880182613089565b505060a0808301516153f082880182615057565b505060c08201518161030087015261540a82870182615190565b91505060e0820151915084810361032086015261542781836152c3565b9a86019a9450505090830190600101615376565b600082825180855260208086019550808260051b8401018186016000805b85811015614c1657868403601f19018a52825180516001600160a01b03908116865290860151604087870181905281518188018190529188019290916060919082890190875b818110156154d75786518051851684528c81015160ff168d85015286015163ffffffff1686840152958b01959184019160010161549f565b50509d89019d97505050938601935050600101615459565b6001600160a01b038516815260a060208201819052600090615513908301866130ba565b82810360408401526155258186615359565b90508281036060840152615539818561543b565b838103608090940193909352505060008152602001949350505050565b83815260806020820152600061556f6080830185615359565b8281036040840152615581818561543b565b8381036060909401939093525050600081526020019392505050565b8481526080602082015260006155b660808301866130ba565b82810360408401526155c881866130ba565b91505082606083015295945050505050565b8381528260208201526060604082015260006104c56060830184615190565b6001600160a01b038416815260606020820181905260009061561d908301856130ba565b9050826040830152949350505050565b600082825180855260208086019550808260051b8401018186016000805b85811015614c1657868403601f19018a528251805164ffffffffff1685528581015160e0878701819052815190870181905261010087019188019085905b808210156156d7578251805163ffffffff1685528a8101516001600160681b03168b8601526040908101516001600160a01b0316908501526060909301929189019160019190910190615689565b50505060408281015161ffff908116918801919091526060808401516001600160701b03169088015260808084015163ffffffff9081169189019190915260a0808501519091169088015260c092830151169190950152988401989184019160010161564b565b80516001600160a01b03908116835260208083015160408286018190528151868201819052600094919360609390919082019084890190875b818110156157bf5783518051871684528581015162ffffff16868501528881015163ffffffff9081168a86015290880151168784015292840192608090920191600101615777565b50909998505050505050505050565b60008151604084526157e36040850182614b59565b602093840151949093019390935250919050565b60e0815260008851608060e08401528051608061016085015261581e6101e08501826130ba565b9050602082015161015f19808684030161018087015261583e83836130ba565b92506040840151915080868403016101a08701525061585d82826130ba565b606093909301516101c0860152505060208a015163ffffffff1661010084015260408a015190615891610120850183613089565b60608b015184820360df190161014086015291506158af818361562d565b91505082810360208401526158c4818a61543b565b905082810360408401526158d8818961573e565b905082810360608401526158ec81886157ce565b905082810360808401526159008187615359565b905082810360a084015261591481866130ba565b91505061592460c0830184613089565b98975050505050505050565b61ffff82811682821603908082111561594b5761594b614860565b5092915050565b60408152600061596560408301856130ba565b82810360208401526104c581856130ba565b6001600160681b039290921682526001600160a01b0316602082015260400190565b63ffffffff851681526080602082015260006155b660808301866130ba56fe598baf7bf150ca2f42be9e9f8f55e81d45f5715c3ff22bf46d697fabec7f31d6a26469706673582212204fc1b62bb814f320b141add7fc11f3204cea7419b1846352804aaf408c94bbc664736f6c63430008170033",
	"devdoc": {
		"kind": "dev",
		"methods": {
			"afterRedeemRecordedWith((address,uint256,uint256,uint256,(address,uint8,uint32,uint256),(address,uint8,uint32,uint256),uint256,address,bytes,bytes))": {
				"params": {
					"context": "The redemption context passed in by the terminal."
				}
			},
			"beforePayRecordedWith((address,address,(address,uint8,uint32,uint256),uint256,uint256,address,uint256,uint256,bytes))": {
				"details": "Part of IJBFundingCycleDataSource.This implementation just sets this contract up to receive a `didPay` call.",
				"params": {
					"context": "The Juicebox standard network payment context. See"
				},
				"returns": {
					"hookSpecifications": "Amount to be sent to pay hooks instead of adding to local balance. Useful for auto-routing funds from a treasury as payment come in.",
					"weight": "The weight that network tokens should get minted relative to. This is useful for optionally customizing how many tokens are issued per payment."
				}
			},
			"beforeRedeemRecordedWith((address,address,uint256,uint256,uint256,uint256,(address,uint8,uint32,uint256),bool,uint256,bytes))": {
				"details": "If a sucker is redeeming, there should be no tax imposed.Charge a fee on redemptions if there is a cash out tax.",
				"params": {
					"context": "The redemption context passed to this contract by the `redeemTokensOf(...)` function."
				},
				"returns": {
					"_0": "redemptionRate The redemption rate influencing the reclaim amount.",
					"_1": "redeemCount The amount of tokens that should be considered redeemed.",
					"_2": "totalSupply The total amount of tokens that are considered to be existing.",
					"hookSpecifications": "The amount and data to send to redeem hooks (this contract) instead of returning to the beneficiary."
				}
			},
			"constructor": {
				"params": {
					"controller": "The controller that revnets are made from.",
					"feeRevnetId": "The ID of the revnet that will receive fees.",
					"hookDeployer": "The 721 tiers hook deployer.",
					"suckerRegistry": "The registry that deploys and tracks each project's suckers."
				}
			},
			"deployFor(uint256,((string,string,string,bytes32),uint32,address,(uint40,(uint32,uint104,address)[],uint16,uint112,uint32,uint32,uint16)[]),(address,(address,uint8,uint32)[])[],(address,(address,uint24,uint32,uint32)[]),((address,(address,uint32,address,uint256)[])[],bytes32),((string,string,address,string,address,string,((uint104,uint32,uint32,uint16,address,bytes32,uint24,bool,bool,bool,bool,bool)[],uint32,uint8,address),address,(bool,bool,bool,bool)),bool,bool,bool),(address,uint256,bytes)[],uint16)": {
				"params": {
					"buybackHookConfiguration": "Data used for setting up the buyback hook to use when determining the best price for new participants.",
					"configuration": "The data needed to deploy a basic revnet.",
					"extraHookMetadata": "Extra metadata to attach to the cycle for the delegates to use.",
					"hookConfiguration": "Data used for setting up the 721 tiers.",
					"otherPayHooksSpecifications": "Any hooks that should run when the revnet is paid alongside the 721 hook.",
					"revnetId": "The ID of the Juicebox project to turn into a revnet. Send 0 to deploy a new revnet.",
					"suckerDeploymentConfiguration": "Information about how this revnet relates to other's across chains.",
					"terminalConfigurations": "The terminals that the network uses to accept payments through."
				},
				"returns": {
					"_0": "revnetId The ID of the newly created revnet.",
					"hook": "The address of the 721 hook that was deployed on the revnet."
				}
			},
			"deploySuckersFor(uint256,bytes,((address,(address,uint32,address,uint256)[])[],bytes32))": {
				"details": "Only the revnet's split operator can deploy new suckers.",
				"params": {
					"encodedConfiguration": "A bytes representation of the revnet's configuration.",
					"revnetId": "The ID of the revnet having new suckers deployed.",
					"suckerDeploymentConfiguration": "The specifics about the suckers being deployed."
				}
			},
			"hasMintPermissionFor(uint256,address)": {
				"params": {
					"addr": "The address to check if has permissions.",
					"revnetId": "The ID of the revnet to check permissions for."
				},
				"returns": {
					"_0": "flag The flag indicating if the address has permissions to mint on the revnet's behalf."
				}
			},
			"isSplitOperatorOf(uint256,address)": {
				"params": {
					"addr": "The address to check if is the split operator.",
					"revnetId": "The ID of the revnet to check the split operator for."
				},
				"returns": {
					"_0": "flag The flag indicating if the address is the split operator."
				}
			},
			"mintFor(uint256,uint256,address)": {
				"params": {
					"beneficiary": "The address to mint tokens to.",
					"revnetId": "The ID of the revnet to mint tokens from.",
					"stageId": "The ID of the stage to mint tokens from."
				}
			},
			"onERC721Received(address,address,uint256,bytes)": {
				"details": "Make sure only mints can be received."
			},
			"payHookSpecificationsOf(uint256)": {
				"params": {
					"revnetId": "The ID of the revnet to which the extensions apply."
				},
				"returns": {
					"_0": "payHookSpecifications The pay hooks."
				}
			},
			"replaceSplitOperatorOf(uint256,address)": {
				"details": "Only the revnet's split operator can replace itself.",
				"params": {
					"newSplitOperator": "The address of the new split operator.",
					"revnetId": "The ID of the revnet having its operator replaced."
				}
			},
			"supportsInterface(bytes4)": {
				"details": "See {IERC165-supportsInterface}.",
				"returns": {
					"_0": "A flag indicating if the provided interface ID is supported."
				}
			}
		},
		"version": 1
	},
	"userdoc": {
		"kind": "user",
		"methods": {
			"CASH_OUT_DELAY()": {
				"notice": "The amount of time from a sucker being deployed to when it can facilitate cashing out."
			},
			"CONTROLLER()": {
				"notice": "The controller that networks are made from."
			},
			"FEE()": {
				"notice": "Revnets' fee (as a fraction out of `JBConstants.MAX_FEE`)."
			},
			"FEE_REVNET_ID()": {
				"notice": "The ID of the revnet that will receive fees."
			},
			"HOOK_DEPLOYER()": {
				"notice": "The contract responsible for deploying the tiered 721 hook."
			},
			"SUCKER_REGISTRY()": {
				"notice": "The registry that deploys and tracks each project's suckers."
			},
			"afterRedeemRecordedWith((address,uint256,uint256,uint256,(address,uint8,uint32,uint256),(address,uint8,uint32,uint256),uint256,address,bytes,bytes))": {
				"notice": "Processes the fee for the redemption."
			},
			"allowedMintCountOf(uint256,uint256,address)": {
				"notice": "The specification of how many tokens are still allowed to be minted at each stage of a revnet."
			},
			"beforePayRecordedWith((address,address,(address,uint8,uint32,uint256),uint256,uint256,address,uint256,uint256,bytes))": {
				"notice": "This function gets called when the revnet receives a payment."
			},
			"beforeRedeemRecordedWith((address,address,uint256,uint256,uint256,uint256,(address,uint8,uint32,uint256),bool,uint256,bytes))": {
				"notice": "Determines how much to redeem."
			},
			"buybackHookOf(uint256)": {
				"notice": "The data hook that returns the correct values for the buyback hook of each network."
			},
			"cashOutDelayOf(uint256)": {
				"notice": "The time at which cashing out from a revnet become allowed."
			},
			"deployFor(uint256,((string,string,string,bytes32),uint32,address,(uint40,(uint32,uint104,address)[],uint16,uint112,uint32,uint32,uint16)[]),(address,(address,uint8,uint32)[])[],(address,(address,uint24,uint32,uint32)[]),((address,(address,uint32,address,uint256)[])[],bytes32),((string,string,address,string,address,string,((uint104,uint32,uint32,uint16,address,bytes32,uint24,bool,bool,bool,bool,bool)[],uint32,uint8,address),address,(bool,bool,bool,bool)),bool,bool,bool),(address,uint256,bytes)[],uint16)": {
				"notice": "Launch a revnet that supports 721 sales."
			},
			"deploySuckersFor(uint256,bytes,((address,(address,uint32,address,uint256)[])[],bytes32))": {
				"notice": "Allow the split operatAllows a revnet's split operator to deploy new suckers to the revnet after it's deployed."
			},
			"hasMintPermissionFor(uint256,address)": {
				"notice": "Required by the IJBRulesetDataHook interfaces."
			},
			"isSplitOperatorOf(uint256,address)": {
				"notice": "A flag indicating if a given address is the revnets split operator."
			},
			"mintFor(uint256,uint256,address)": {
				"notice": "Mint tokens from a revnet to a specified beneficiary according to the rules set for the revnet."
			},
			"payHookSpecificationsOf(uint256)": {
				"notice": "The pay hooks to include during payments to networks."
			},
			"replaceSplitOperatorOf(uint256,address)": {
				"notice": "A revnet's operator can replace itself."
			},
			"supportsInterface(bytes4)": {
				"notice": "Indicates if this contract adheres to the specified interface."
			}
		},
		"version": 1
	},
	"gitCommit": "c2cc86e6e8a4ca077551fa07ada77bad260badf8",
	"sourceName": "src/REVTiered721HookDeployer.sol",
	"chainId": "421614",
	"linkReferences": {},
	"deployedLinkReferences": {},
	"history": []
}