{
  "abi": [
    {
      "inputs": [
        {
          "internalType": "contract IJBDirectory",
          "name": "_directory",
          "type": "address"
        },
        {
          "internalType": "contract IJBTiered721DelegateDeployer",
          "name": "_delegateDeployer",
          "type": "address"
        },
        {
          "internalType": "contract IJBController3_1",
          "name": "_controller",
          "type": "address"
        },
        {
          "internalType": "contract IJBPayoutRedemptionPaymentTerminal3_1_1",
          "name": "_terminal",
          "type": "address"
        }
      ],
      "stateMutability": "nonpayable",
      "type": "constructor"
    },
    {
      "inputs": [],
      "name": "RECONFIGURATION_ALREADY_SCHEDULED",
      "type": "error"
    },
    {
      "inputs": [
        {
          "internalType": "uint256",
          "name": "",
          "type": "uint256"
        }
      ],
      "name": "buybackDelegateDataSourceOf",
      "outputs": [
        {
          "internalType": "contract IJBFundingCycleDataSource3_1_1",
          "name": "",
          "type": "address"
        }
      ],
      "stateMutability": "view",
      "type": "function"
    },
    {
      "inputs": [],
      "name": "controller",
      "outputs": [
        {
          "internalType": "contract IJBController3_1",
          "name": "",
          "type": "address"
        }
      ],
      "stateMutability": "view",
      "type": "function"
    },
    {
      "inputs": [
        {
          "internalType": "uint256",
          "name": "",
          "type": "uint256"
        },
        {
          "internalType": "uint256",
          "name": "",
          "type": "uint256"
        }
      ],
      "name": "delegateAllocationsOf",
      "outputs": [
        {
          "internalType": "contract IJBPayDelegate3_1_1",
          "name": "delegate",
          "type": "address"
        },
        {
          "internalType": "uint256",
          "name": "amount",
          "type": "uint256"
        },
        {
          "internalType": "bytes",
          "name": "metadata",
          "type": "bytes"
        }
      ],
      "stateMutability": "view",
      "type": "function"
    },
    {
      "inputs": [],
      "name": "delegateDeployer",
      "outputs": [
        {
          "internalType": "contract IJBTiered721DelegateDeployer",
          "name": "",
          "type": "address"
        }
      ],
      "stateMutability": "view",
      "type": "function"
    },
    {
      "inputs": [
        {
          "internalType": "address",
          "name": "_operator",
          "type": "address"
        },
        {
          "components": [
            {
              "internalType": "string",
              "name": "content",
              "type": "string"
            },
            {
              "internalType": "uint256",
              "name": "domain",
              "type": "uint256"
            }
          ],
          "internalType": "struct JBProjectMetadata",
          "name": "_projectMetadata",
          "type": "tuple"
        },
        {
          "internalType": "string",
          "name": "_name",
          "type": "string"
        },
        {
          "internalType": "string",
          "name": "_symbol",
          "type": "string"
        },
        {
          "components": [
            {
              "internalType": "uint256",
              "name": "initialIssuanceRate",
              "type": "uint256"
            },
            {
              "internalType": "uint256",
              "name": "premintTokenAmount",
              "type": "uint256"
            },
            {
              "internalType": "uint256",
              "name": "discountRate",
              "type": "uint256"
            },
            {
              "internalType": "uint256",
              "name": "cycleDurations",
              "type": "uint256"
            },
            {
              "internalType": "uint256",
              "name": "redemptionRate",
              "type": "uint256"
            },
            {
              "internalType": "uint256",
              "name": "reservedRate",
              "type": "uint256"
            },
            {
              "internalType": "uint48",
              "name": "reservedRateDuration",
              "type": "uint48"
            }
          ],
          "internalType": "struct BasicRetailistJBParams",
          "name": "_data",
          "type": "tuple"
        }
      ],
      "name": "deployBasicProjectFor",
      "outputs": [
        {
          "internalType": "uint256",
          "name": "projectId",
          "type": "uint256"
        }
      ],
      "stateMutability": "nonpayable",
      "type": "function"
    },
    {
      "inputs": [
        {
          "internalType": "address",
          "name": "_operator",
          "type": "address"
        },
        {
          "components": [
            {
              "internalType": "string",
              "name": "content",
              "type": "string"
            },
            {
              "internalType": "uint256",
              "name": "domain",
              "type": "uint256"
            }
          ],
          "internalType": "struct JBProjectMetadata",
          "name": "_projectMetadata",
          "type": "tuple"
        },
        {
          "internalType": "string",
          "name": "_name",
          "type": "string"
        },
        {
          "internalType": "string",
          "name": "_symbol",
          "type": "string"
        },
        {
          "components": [
            {
              "internalType": "uint256",
              "name": "initialIssuanceRate",
              "type": "uint256"
            },
            {
              "internalType": "uint256",
              "name": "premintTokenAmount",
              "type": "uint256"
            },
            {
              "internalType": "uint256",
              "name": "discountRate",
              "type": "uint256"
            },
            {
              "internalType": "uint256",
              "name": "cycleDurations",
              "type": "uint256"
            },
            {
              "internalType": "uint256",
              "name": "redemptionRate",
              "type": "uint256"
            },
            {
              "internalType": "uint256",
              "name": "reservedRate",
              "type": "uint256"
            },
            {
              "internalType": "uint48",
              "name": "reservedRateDuration",
              "type": "uint48"
            }
          ],
          "internalType": "struct BasicRetailistJBParams",
          "name": "_data",
          "type": "tuple"
        },
        {
          "components": [
            {
              "internalType": "contract IJBPayDelegate3_1_1",
              "name": "delegate",
              "type": "address"
            },
            {
              "internalType": "uint256",
              "name": "amount",
              "type": "uint256"
            },
            {
              "internalType": "bytes",
              "name": "metadata",
              "type": "bytes"
            }
          ],
          "internalType": "struct JBPayDelegateAllocation3_1_1[]",
          "name": "_delegateAllocations",
          "type": "tuple[]"
        },
        {
          "internalType": "uint8",
          "name": "_extraFundingCycleMetadata",
          "type": "uint8"
        }
      ],
      "name": "deployPayAllocatorProjectFor",
      "outputs": [
        {
          "internalType": "uint256",
          "name": "projectId",
          "type": "uint256"
        }
      ],
      "stateMutability": "nonpayable",
      "type": "function"
    },
    {
      "inputs": [
        {
          "internalType": "address",
          "name": "_operator",
          "type": "address"
        },
        {
          "components": [
            {
              "internalType": "string",
              "name": "content",
              "type": "string"
            },
            {
              "internalType": "uint256",
              "name": "domain",
              "type": "uint256"
            }
          ],
          "internalType": "struct JBProjectMetadata",
          "name": "_projectMetadata",
          "type": "tuple"
        },
        {
          "internalType": "string",
          "name": "_name",
          "type": "string"
        },
        {
          "internalType": "string",
          "name": "_symbol",
          "type": "string"
        },
        {
          "components": [
            {
              "internalType": "uint256",
              "name": "initialIssuanceRate",
              "type": "uint256"
            },
            {
              "internalType": "uint256",
              "name": "premintTokenAmount",
              "type": "uint256"
            },
            {
              "internalType": "uint256",
              "name": "discountRate",
              "type": "uint256"
            },
            {
              "internalType": "uint256",
              "name": "cycleDurations",
              "type": "uint256"
            },
            {
              "internalType": "uint256",
              "name": "redemptionRate",
              "type": "uint256"
            },
            {
              "internalType": "uint256",
              "name": "reservedRate",
              "type": "uint256"
            },
            {
              "internalType": "uint48",
              "name": "reservedRateDuration",
              "type": "uint48"
            }
          ],
          "internalType": "struct BasicRetailistJBParams",
          "name": "_data",
          "type": "tuple"
        },
        {
          "components": [
            {
              "internalType": "string",
              "name": "name",
              "type": "string"
            },
            {
              "internalType": "string",
              "name": "symbol",
              "type": "string"
            },
            {
              "internalType": "contract IJBFundingCycleStore",
              "name": "fundingCycleStore",
              "type": "address"
            },
            {
              "internalType": "string",
              "name": "baseUri",
              "type": "string"
            },
            {
              "internalType": "contract IJB721TokenUriResolver",
              "name": "tokenUriResolver",
              "type": "address"
            },
            {
              "internalType": "string",
              "name": "contractUri",
              "type": "string"
            },
            {
              "components": [
                {
                  "components": [
                    {
                      "internalType": "uint104",
                      "name": "price",
                      "type": "uint104"
                    },
                    {
                      "internalType": "uint32",
                      "name": "initialQuantity",
                      "type": "uint32"
                    },
                    {
                      "internalType": "uint32",
                      "name": "votingUnits",
                      "type": "uint32"
                    },
                    {
                      "internalType": "uint16",
                      "name": "reservedRate",
                      "type": "uint16"
                    },
                    {
                      "internalType": "address",
                      "name": "reservedTokenBeneficiary",
                      "type": "address"
                    },
                    {
                      "internalType": "bytes32",
                      "name": "encodedIPFSUri",
                      "type": "bytes32"
                    },
                    {
                      "internalType": "uint24",
                      "name": "category",
                      "type": "uint24"
                    },
                    {
                      "internalType": "bool",
                      "name": "allowManualMint",
                      "type": "bool"
                    },
                    {
                      "internalType": "bool",
                      "name": "shouldUseReservedTokenBeneficiaryAsDefault",
                      "type": "bool"
                    },
                    {
                      "internalType": "bool",
                      "name": "transfersPausable",
                      "type": "bool"
                    },
                    {
                      "internalType": "bool",
                      "name": "useVotingUnits",
                      "type": "bool"
                    }
                  ],
                  "internalType": "struct JB721TierParams[]",
                  "name": "tiers",
                  "type": "tuple[]"
                },
                {
                  "internalType": "uint48",
                  "name": "currency",
                  "type": "uint48"
                },
                {
                  "internalType": "uint48",
                  "name": "decimals",
                  "type": "uint48"
                },
                {
                  "internalType": "contract IJBPrices",
                  "name": "prices",
                  "type": "address"
                }
              ],
              "internalType": "struct JB721PricingParams",
              "name": "pricing",
              "type": "tuple"
            },
            {
              "internalType": "address",
              "name": "reservedTokenBeneficiary",
              "type": "address"
            },
            {
              "internalType": "contract IJBTiered721DelegateStore",
              "name": "store",
              "type": "address"
            },
            {
              "components": [
                {
                  "internalType": "bool",
                  "name": "lockReservedTokenChanges",
                  "type": "bool"
                },
                {
                  "internalType": "bool",
                  "name": "lockVotingUnitChanges",
                  "type": "bool"
                },
                {
                  "internalType": "bool",
                  "name": "lockManualMintingChanges",
                  "type": "bool"
                },
                {
                  "internalType": "bool",
                  "name": "preventOverspending",
                  "type": "bool"
                }
              ],
              "internalType": "struct JBTiered721Flags",
              "name": "flags",
              "type": "tuple"
            },
            {
              "internalType": "enum JB721GovernanceType",
              "name": "governanceType",
              "type": "uint8"
            }
          ],
          "internalType": "struct JBDeployTiered721DelegateData",
          "name": "_deployTiered721DelegateData",
          "type": "tuple"
        },
        {
          "components": [
            {
              "internalType": "contract IJBPayDelegate3_1_1",
              "name": "delegate",
              "type": "address"
            },
            {
              "internalType": "uint256",
              "name": "amount",
              "type": "uint256"
            },
            {
              "internalType": "bytes",
              "name": "metadata",
              "type": "bytes"
            }
          ],
          "internalType": "struct JBPayDelegateAllocation3_1_1[]",
          "name": "_otherDelegateAllocations",
          "type": "tuple[]"
        },
        {
          "internalType": "uint8",
          "name": "_extraFundingCycleMetadata",
          "type": "uint8"
        }
      ],
      "name": "deployTiered721PayAllocatorProjectFor",
      "outputs": [
        {
          "internalType": "uint256",
          "name": "projectId",
          "type": "uint256"
        }
      ],
      "stateMutability": "nonpayable",
      "type": "function"
    },
    {
      "inputs": [],
      "name": "directory",
      "outputs": [
        {
          "internalType": "contract IJBDirectory",
          "name": "",
          "type": "address"
        }
      ],
      "stateMutability": "view",
      "type": "function"
    },
    {
      "inputs": [
        {
          "internalType": "address",
          "name": "_operator",
          "type": "address"
        },
        {
          "internalType": "address",
          "name": "_from",
          "type": "address"
        },
        {
          "internalType": "uint256",
          "name": "_tokenId",
          "type": "uint256"
        },
        {
          "internalType": "bytes",
          "name": "_data",
          "type": "bytes"
        }
      ],
      "name": "onERC721Received",
      "outputs": [
        {
          "internalType": "bytes4",
          "name": "",
          "type": "bytes4"
        }
      ],
      "stateMutability": "view",
      "type": "function"
    },
    {
      "inputs": [
        {
          "components": [
            {
              "internalType": "contract IJBPaymentTerminal",
              "name": "terminal",
              "type": "address"
            },
            {
              "internalType": "address",
              "name": "payer",
              "type": "address"
            },
            {
              "components": [
                {
                  "internalType": "address",
                  "name": "token",
                  "type": "address"
                },
                {
                  "internalType": "uint256",
                  "name": "value",
                  "type": "uint256"
                },
                {
                  "internalType": "uint256",
                  "name": "decimals",
                  "type": "uint256"
                },
                {
                  "internalType": "uint256",
                  "name": "currency",
                  "type": "uint256"
                }
              ],
              "internalType": "struct JBTokenAmount",
              "name": "amount",
              "type": "tuple"
            },
            {
              "internalType": "uint256",
              "name": "projectId",
              "type": "uint256"
            },
            {
              "internalType": "uint256",
              "name": "currentFundingCycleConfiguration",
              "type": "uint256"
            },
            {
              "internalType": "address",
              "name": "beneficiary",
              "type": "address"
            },
            {
              "internalType": "uint256",
              "name": "weight",
              "type": "uint256"
            },
            {
              "internalType": "uint256",
              "name": "reservedRate",
              "type": "uint256"
            },
            {
              "internalType": "string",
              "name": "memo",
              "type": "string"
            },
            {
              "internalType": "bytes",
              "name": "metadata",
              "type": "bytes"
            }
          ],
          "internalType": "struct JBPayParamsData",
          "name": "_data",
          "type": "tuple"
        }
      ],
      "name": "payParams",
      "outputs": [
        {
          "internalType": "uint256",
          "name": "weight",
          "type": "uint256"
        },
        {
          "internalType": "string",
          "name": "memo",
          "type": "string"
        },
        {
          "components": [
            {
              "internalType": "contract IJBPayDelegate3_1_1",
              "name": "delegate",
              "type": "address"
            },
            {
              "internalType": "uint256",
              "name": "amount",
              "type": "uint256"
            },
            {
              "internalType": "bytes",
              "name": "metadata",
              "type": "bytes"
            }
          ],
          "internalType": "struct JBPayDelegateAllocation3_1_1[]",
          "name": "delegateAllocations",
          "type": "tuple[]"
        }
      ],
      "stateMutability": "view",
      "type": "function"
    },
    {
      "inputs": [
        {
          "internalType": "uint256",
          "name": "",
          "type": "uint256"
        }
      ],
      "name": "permissionIndexes",
      "outputs": [
        {
          "internalType": "uint256",
          "name": "",
          "type": "uint256"
        }
      ],
      "stateMutability": "view",
      "type": "function"
    },
    {
      "inputs": [
        {
          "internalType": "uint256",
          "name": "projectId",
          "type": "uint256"
        }
      ],
      "name": "reconfigurationStartTimestampOf",
      "outputs": [
        {
          "internalType": "uint256",
          "name": "",
          "type": "uint256"
        }
      ],
      "stateMutability": "view",
      "type": "function"
    },
    {
      "inputs": [
        {
          "components": [
            {
              "internalType": "contract IJBPaymentTerminal",
              "name": "terminal",
              "type": "address"
            },
            {
              "internalType": "address",
              "name": "holder",
              "type": "address"
            },
            {
              "internalType": "uint256",
              "name": "projectId",
              "type": "uint256"
            },
            {
              "internalType": "uint256",
              "name": "currentFundingCycleConfiguration",
              "type": "uint256"
            },
            {
              "internalType": "uint256",
              "name": "tokenCount",
              "type": "uint256"
            },
            {
              "internalType": "uint256",
              "name": "totalSupply",
              "type": "uint256"
            },
            {
              "internalType": "uint256",
              "name": "overflow",
              "type": "uint256"
            },
            {
              "components": [
                {
                  "internalType": "address",
                  "name": "token",
                  "type": "address"
                },
                {
                  "internalType": "uint256",
                  "name": "value",
                  "type": "uint256"
                },
                {
                  "internalType": "uint256",
                  "name": "decimals",
                  "type": "uint256"
                },
                {
                  "internalType": "uint256",
                  "name": "currency",
                  "type": "uint256"
                }
              ],
              "internalType": "struct JBTokenAmount",
              "name": "reclaimAmount",
              "type": "tuple"
            },
            {
              "internalType": "bool",
              "name": "useTotalOverflow",
              "type": "bool"
            },
            {
              "internalType": "uint256",
              "name": "redemptionRate",
              "type": "uint256"
            },
            {
              "internalType": "string",
              "name": "memo",
              "type": "string"
            },
            {
              "internalType": "bytes",
              "name": "metadata",
              "type": "bytes"
            }
          ],
          "internalType": "struct JBRedeemParamsData",
          "name": "_data",
          "type": "tuple"
        }
      ],
      "name": "redeemParams",
      "outputs": [
        {
          "internalType": "uint256",
          "name": "",
          "type": "uint256"
        },
        {
          "internalType": "string",
          "name": "",
          "type": "string"
        },
        {
          "components": [
            {
              "internalType": "contract IJBRedemptionDelegate3_1_1",
              "name": "delegate",
              "type": "address"
            },
            {
              "internalType": "uint256",
              "name": "amount",
              "type": "uint256"
            },
            {
              "internalType": "bytes",
              "name": "metadata",
              "type": "bytes"
            }
          ],
          "internalType": "struct JBRedemptionDelegateAllocation3_1_1[]",
          "name": "",
          "type": "tuple[]"
        }
      ],
      "stateMutability": "view",
      "type": "function"
    },
    {
      "inputs": [
        {
          "internalType": "uint256",
          "name": "_projectId",
          "type": "uint256"
        }
      ],
      "name": "scheduleReconfigurationOf",
      "outputs": [],
      "stateMutability": "nonpayable",
      "type": "function"
    },
    {
      "inputs": [
        {
          "internalType": "bytes4",
          "name": "_interfaceId",
          "type": "bytes4"
        }
      ],
      "name": "supportsInterface",
      "outputs": [
        {
          "internalType": "bool",
          "name": "",
          "type": "bool"
        }
      ],
      "stateMutability": "view",
      "type": "function"
    },
    {
      "inputs": [
        {
          "internalType": "uint256",
          "name": "",
          "type": "uint256"
        }
      ],
      "name": "terminals",
      "outputs": [
        {
          "internalType": "contract IJBPaymentTerminal",
          "name": "",
          "type": "address"
        }
      ],
      "stateMutability": "view",
      "type": "function"
    }
  ],
  "bytecode": {
    "object": "0x60e06040523480156200001157600080fd5b5060405162004777380380620047778339810160408190526200003491620000e1565b6001600160a01b0391821660805260008054600180820183557f290decd9548b62a8d60345a988386fc84ba6bc95484008f6362f93160ef3e56390910180546001600160a01b031916938516939093179092558154808301835591905260127fb10e2d527612073b26eecdfd717e6a320cf44b4afac2b0732d9fcbe2b7fa0cf69091015591821660a0521660c05262000149565b6001600160a01b0381168114620000de57600080fd5b50565b60008060008060808587031215620000f857600080fd5b84516200010581620000c8565b60208601519094506200011881620000c8565b60408601519093506200012b81620000c8565b60608601519092506200013e81620000c8565b939692955090935050565b60805160a05160c05161458e620001e9600039600081816102170152611dfb01526000818161029501528181611cef0152611e390152600081816103270152818161059f015281816106af015281816107c501528181610a0801528181610aca01528181610cf401528181610e4d01528181611000015281816112db015281816113eb01528181611545015281816117cd015261188d015261458e6000f3fe608060405234801561001057600080fd5b50600436106101005760003560e01c80639483e77111610097578063c7e221d711610066578063c7e221d7146102b7578063d46cf171146102ca578063ef8eadd5146102ec578063f77c47911461032257600080fd5b80639483e77114610239578063a51cfd181461024c578063abc603e31461026e578063c41c2f241461029057600080fd5b80633ce6d3e2116100d35780633ce6d3e2146101ca5780634e777fd7146101df578063560f7b03146101f25780638f3d964b1461021257600080fd5b806301ffc9a7146101055780630219758e1461012d5780630e53d9cc14610165578063150b7a0214610186575b600080fd5b610118610113366004612356565b610349565b60405190151581526020015b60405180910390f35b61014061013b36600461239f565b6103e2565b60405173ffffffffffffffffffffffffffffffffffffffff9091168152602001610124565b61017861017336600461244e565b610419565b604051908152602001610124565b610199610194366004612510565b610cf0565b6040517fffffffff000000000000000000000000000000000000000000000000000000009091168152602001610124565b6101dd6101d836600461239f565b610e04565b005b6101786101ed3660046128be565b611155565b61017861020036600461239f565b60026020526000908152604090205481565b6101407f000000000000000000000000000000000000000000000000000000000000000081565b61017861024736600461239f565b611b7f565b61025f61025a366004612993565b611ba0565b60405161012493929190612a3d565b61028161027c366004612b06565b611c08565b60405161012493929190612b28565b6101407f000000000000000000000000000000000000000000000000000000000000000081565b6101786102c5366004612bbe565b611ceb565b6102dd6102d8366004612ccc565b61200d565b60405161012493929190612d08565b6101406102fa36600461239f565b60036020526000908152604090205473ffffffffffffffffffffffffffffffffffffffff1681565b6101407f000000000000000000000000000000000000000000000000000000000000000081565b60007fffffffff0000000000000000000000000000000000000000000000000000000082167f71700c690000000000000000000000000000000000000000000000000000000014806103dc57507f150b7a02000000000000000000000000000000000000000000000000000000007fffffffff000000000000000000000000000000000000000000000000000000008316145b92915050565b600081815481106103f257600080fd5b60009182526020909120015473ffffffffffffffffffffffffffffffffffffffff16905081565b604080516001808252818301909252600091829190816020015b60408051808201909152600081526060602082015281526020019060019003908161043357505060408051600180825281830190925291925060009190602082015b6040805160e08101825260008082526020808301829052928201819052606082018190526080820181905260a0820181905260c082015282527fffffffffffffffffffffffffffffffffffffffffffffffffffffffffffffffff9092019101816104755790505090506040518060e00160405280600015158152602001600015158152602001633b9aca008152602001600081526020018b73ffffffffffffffffffffffffffffffffffffffff16815260200160008152602001600073ffffffffffffffffffffffffffffffffffffffff168152508160018151811061055d5761055d612dbf565b6020026020010181905250604051806040016040528060028152602001828152508260008151811061059157610591612dbf565b6020026020010181905250507f000000000000000000000000000000000000000000000000000000000000000073ffffffffffffffffffffffffffffffffffffffff16638b79543c6040518163ffffffff1660e01b8152600401602060405180830381865afa158015610608573d6000803e3d6000fd5b505050506040513d601f19601f8201168201806040525081019061062c9190612dee565b73ffffffffffffffffffffffffffffffffffffffff1663666d87a0308a6040518363ffffffff1660e01b8152600401610666929190612eb8565b6020604051808303816000875af1158015610685573d6000803e3d6000fd5b505050506040513d601f19601f820116820180604052508101906106a99190612f10565b915060007f000000000000000000000000000000000000000000000000000000000000000073ffffffffffffffffffffffffffffffffffffffff1663619306306040518163ffffffff1660e01b8152600401602060405180830381865afa158015610718573d6000803e3d6000fd5b505050506040513d601f19601f8201168201806040525081019061073c9190612dee565b73ffffffffffffffffffffffffffffffffffffffff1663a7f2a70b848a8a8a8a6040518663ffffffff1660e01b815260040161077c959493929190612f29565b6020604051808303816000875af115801561079b573d6000803e3d6000fd5b505050506040513d601f19601f820116820180604052508101906107bf9190612dee565b905060007f000000000000000000000000000000000000000000000000000000000000000073ffffffffffffffffffffffffffffffffffffffff1663111d861b8560405180608001604052808960600135815260200160128a6000013561082691906130b1565b815260408a810135602080840191909152600092820183905281516102a081018352610240810184815261026082018590526102808201859052815260a0808e0135828401526080808f013583860152606083018690528201859052810184905260c0810184905260e081018490526001610100820181905261012082018590526101408201859052610160820185905261018082018590526101a082018590526101c08201526101e0810184905273ffffffffffffffffffffffffffffffffffffffff891661020082015261022081018490528251848152918201909252909190899082610988565b6109756040518060c00160405280600073ffffffffffffffffffffffffffffffffffffffff168152602001600073ffffffffffffffffffffffffffffffffffffffff168152602001600081526020016000815260200160008152602001600081525090565b8152602001906001900390816109105790505b5060006040518863ffffffff1660e01b81526004016109ad97969594939291906133a7565b6020604051808303816000875af11580156109cc573d6000803e3d6000fd5b505050506040513d601f19601f820116820180604052508101906109f09190612f10565b5073ffffffffffffffffffffffffffffffffffffffff7f000000000000000000000000000000000000000000000000000000000000000016638ae9c07b85610a3d601260208a01356130b1565b8e8b8b604051602001610a519291906134c8565b6040516020818303038152906040526000806040518763ffffffff1660e01b8152600401610a8496959493929190613525565b6020604051808303816000875af1158015610aa3573d6000803e3d6000fd5b505050506040513d601f19601f82011682018060405250810190610ac79190612f10565b507f000000000000000000000000000000000000000000000000000000000000000073ffffffffffffffffffffffffffffffffffffffff16632bdfe0046040518163ffffffff1660e01b8152600401602060405180830381865afa158015610b33573d6000803e3d6000fd5b505050506040513d601f19601f82011682018060405250810190610b579190612dee565b73ffffffffffffffffffffffffffffffffffffffff1663ad007d636040518163ffffffff1660e01b8152600401602060405180830381865afa158015610ba1573d6000803e3d6000fd5b505050506040513d601f19601f82011682018060405250810190610bc59190612dee565b73ffffffffffffffffffffffffffffffffffffffff1663529cdd2e60405180606001604052808e73ffffffffffffffffffffffffffffffffffffffff1681526020018781526020016001805480602002602001604051908101604052809291908181526020018280548015610c5957602002820191906000526020600020905b815481526020019060010190808311610c45575b50505050508152506040518263ffffffff1660e01b8152600401610c7d919061357a565b600060405180830381600087803b158015610c9757600080fd5b505af1158015610cab573d6000803e3d6000fd5b50610cc09250505060e0860160c08701613601565b610cd29065ffffffffffff164261361c565b60008581526002602052604090205550919998505050505050505050565b60007f000000000000000000000000000000000000000000000000000000000000000073ffffffffffffffffffffffffffffffffffffffff16638b79543c6040518163ffffffff1660e01b8152600401602060405180830381865afa158015610d5d573d6000803e3d6000fd5b505050506040513d601f19601f82011682018060405250810190610d819190612dee565b73ffffffffffffffffffffffffffffffffffffffff163373ffffffffffffffffffffffffffffffffffffffff1614610db857600080fd5b73ffffffffffffffffffffffffffffffffffffffff851615610dd957600080fd5b507f150b7a020000000000000000000000000000000000000000000000000000000095945050505050565b6040517f1f51045300000000000000000000000000000000000000000000000000000000815260048101829052600090819073ffffffffffffffffffffffffffffffffffffffff7f00000000000000000000000000000000000000000000000000000000000000001690631f510453906024016103c060405180830381865afa158015610e95573d6000803e3d6000fd5b505050506040513d601f19601f82011682018060405250810190610eb99190613804565b5081519193509150600114610efa576040517fc97554fa00000000000000000000000000000000000000000000000000000000815260040160405180910390fd5b60408051608080820183528481015182526000602080840182905260c08088015185870152606080860184905286516102a0810188526102408101858152610260820186905261028082018690528152808401859052888801518189015290810184905293840183905260a08401839052830182905260e08301829052610100830182905261012083018290526101408301829052610160830182905261018083018290526101a083018290526101c083018290526101e083018290526102008087015173ffffffffffffffffffffffffffffffffffffffff908116918501919091526102208781015190850152888352600282528583205486518481529283019096527f0000000000000000000000000000000000000000000000000000000000000000169463badbdf28948994909390929061105b565b6040805180820190915260008152606060208201528152602001906001900390816110335790505b5060408051600080825260208201909252906110ea565b6110d76040518060c00160405280600073ffffffffffffffffffffffffffffffffffffffff168152602001600073ffffffffffffffffffffffffffffffffffffffff168152602001600081526020016000815260200160008152602001600081525090565b8152602001906001900390816110725790505b506040518763ffffffff1660e01b815260040161110c969594939291906138bb565b6020604051808303816000875af115801561112b573d6000803e3d6000fd5b505050506040513d601f19601f8201168201806040525081019061114f9190612f10565b50505050565b604080516001808252818301909252600091829190816020015b60408051808201909152600081526060602082015281526020019060019003908161116f57505060408051600180825281830190925291925060009190602082015b6040805160e08101825260008082526020808301829052928201819052606082018190526080820181905260a0820181905260c082015282527fffffffffffffffffffffffffffffffffffffffffffffffffffffffffffffffff9092019101816111b15790505090506040518060e00160405280600015158152602001600015158152602001633b9aca008152602001600081526020018b73ffffffffffffffffffffffffffffffffffffffff16815260200160008152602001600073ffffffffffffffffffffffffffffffffffffffff168152508160018151811061129957611299612dbf565b602002602001018190525060405180604001604052806002815260200182815250826000815181106112cd576112cd612dbf565b6020026020010181905250507f000000000000000000000000000000000000000000000000000000000000000073ffffffffffffffffffffffffffffffffffffffff16638b79543c6040518163ffffffff1660e01b8152600401602060405180830381865afa158015611344573d6000803e3d6000fd5b505050506040513d601f19601f820116820180604052508101906113689190612dee565b73ffffffffffffffffffffffffffffffffffffffff1663666d87a0308a6040518363ffffffff1660e01b81526004016113a29291906139af565b6020604051808303816000875af11580156113c1573d6000803e3d6000fd5b505050506040513d601f19601f820116820180604052508101906113e59190612f10565b915060007f000000000000000000000000000000000000000000000000000000000000000073ffffffffffffffffffffffffffffffffffffffff1663619306306040518163ffffffff1660e01b8152600401602060405180830381865afa158015611454573d6000803e3d6000fd5b505050506040513d601f19601f820116820180604052508101906114789190612dee565b73ffffffffffffffffffffffffffffffffffffffff1663a7f2a70b848a8a6040518463ffffffff1660e01b81526004016114b4939291906139fd565b6020604051808303816000875af11580156114d3573d6000803e3d6000fd5b505050506040513d601f19601f820116820180604052508101906114f79190612dee565b600084815260036020908152604080832080547fffffffffffffffffffffffff000000000000000000000000000000000000000016905580516080810190915260608a0135815292935090917f000000000000000000000000000000000000000000000000000000000000000073ffffffffffffffffffffffffffffffffffffffff169163111d861b918791810161159160128d356130b1565b81526020018b604001358152602001600073ffffffffffffffffffffffffffffffffffffffff1681525060405180610240016040528060405180606001604052806000151581526020016000151581526020016000151581525081526020018c60a0013581526020018c608001358152602001600081526020016000151581526020016000151581526020016000151581526020016000151581526020016001151581526020016000151581526020016000151581526020016000151581526020016000151581526020016000151581526020016001151581526020016000151581526020013073ffffffffffffffffffffffffffffffffffffffff1681526020018a60ff16815250600088600067ffffffffffffffff8111156116b7576116b7612583565b60405190808252806020026020018201604052801561174d57816020015b61173a6040518060c00160405280600073ffffffffffffffffffffffffffffffffffffffff168152602001600073ffffffffffffffffffffffffffffffffffffffff168152602001600081526020016000815260200160008152602001600081525090565b8152602001906001900390816116d55790505b5060006040518863ffffffff1660e01b815260040161177297969594939291906133a7565b6020604051808303816000875af1158015611791573d6000803e3d6000fd5b505050506040513d601f19601f820116820180604052508101906117b59190612f10565b5073ffffffffffffffffffffffffffffffffffffffff7f000000000000000000000000000000000000000000000000000000000000000016638ae9c07b85611802601260208c01356130b1565b8e8c6040516020016118149190613a32565b6040516020818303038152906040526000806040518763ffffffff1660e01b815260040161184796959493929190613525565b6020604051808303816000875af1158015611866573d6000803e3d6000fd5b505050506040513d601f19601f8201168201806040525081019061188a9190612f10565b507f000000000000000000000000000000000000000000000000000000000000000073ffffffffffffffffffffffffffffffffffffffff16632bdfe0046040518163ffffffff1660e01b8152600401602060405180830381865afa1580156118f6573d6000803e3d6000fd5b505050506040513d601f19601f8201168201806040525081019061191a9190612dee565b73ffffffffffffffffffffffffffffffffffffffff1663ad007d636040518163ffffffff1660e01b8152600401602060405180830381865afa158015611964573d6000803e3d6000fd5b505050506040513d601f19601f820116820180604052508101906119889190612dee565b73ffffffffffffffffffffffffffffffffffffffff1663529cdd2e60405180606001604052808e73ffffffffffffffffffffffffffffffffffffffff1681526020018781526020016001805480602002602001604051908101604052809291908181526020018280548015611a1c57602002820191906000526020600020905b815481526020019060010190808311611a08575b50505050508152506040518263ffffffff1660e01b8152600401611a40919061357a565b600060405180830381600087803b158015611a5a57600080fd5b505af1158015611a6e573d6000803e3d6000fd5b50611a839250505060e0880160c08901613601565b611a959065ffffffffffff164261361c565b6000858152600260205260408120919091558651905b81811015611b6f57878181518110611ac557611ac5612dbf565b6020026020010151600460008881526020019081526020016000208281548110611af157611af1612dbf565b600091825260209182902083516003929092020180547fffffffffffffffffffffffff00000000000000000000000000000000000000001673ffffffffffffffffffffffffffffffffffffffff90921691909117815590820151600182015560408201516002820190611b649082613b3a565b505050600101611aab565b5050505050979650505050505050565b60018181548110611b8f57600080fd5b600091825260209091200154905081565b604080516000808252602082019092526060908190839081611bec565b60408051606080820183526000808352602083015291810191909152815260200190600190039081611bbd5790505b5060408051602081019091526000815291969195509350915050565b60046020528160005260406000208181548110611c2457600080fd5b600091825260209091206003909102018054600182015460028301805473ffffffffffffffffffffffffffffffffffffffff909316955090935090611c6890613a9e565b80601f0160208091040260200160405190810160405280929190818152602001828054611c9490613a9e565b8015611ce15780601f10611cb657610100808354040283529160200191611ce1565b820191906000526020600020905b815481529060010190602001808311611cc457829003601f168201915b5050505050905083565b60007f000000000000000000000000000000000000000000000000000000000000000073ffffffffffffffffffffffffffffffffffffffff16638b79543c6040518163ffffffff1660e01b8152600401602060405180830381865afa158015611d58573d6000803e3d6000fd5b505050506040513d601f19601f82011682018060405250810190611d7c9190612dee565b73ffffffffffffffffffffffffffffffffffffffff166306661abd6040518163ffffffff1660e01b8152600401602060405180830381865afa158015611dc6573d6000803e3d6000fd5b505050506040513d601f19601f82011682018060405250810190611dea9190612f10565b611df590600161361c565b905060007f000000000000000000000000000000000000000000000000000000000000000073ffffffffffffffffffffffffffffffffffffffff1663cb5720fb83887f00000000000000000000000000000000000000000000000000000000000000006040518463ffffffff1660e01b8152600401611e7693929190613f85565b6020604051808303816000875af1158015611e95573d6000803e3d6000fd5b505050506040513d601f19601f82011682018060405250810190611eb99190612dee565b9050836000611ec982600161361c565b67ffffffffffffffff811115611ee157611ee1612583565b604051908082528060200260200182016040528015611f2e57816020015b60408051606080820183526000808352602083015291810191909152815260200190600190039081611eff5790505b50905060005b82811015611f8e57878782818110611f4e57611f4e612dbf565b9050602002810190611f60919061417a565b611f69906141b8565b828281518110611f7b57611f7b612dbf565b6020908102919091010152600101611f34565b5060405180606001604052808473ffffffffffffffffffffffffffffffffffffffff1681526020016000815260200160405180602001604052806000815250815250818381518110611fe257611fe2612dbf565b6020026020010181905250611ffc8d8d8d8d8d868b611155565b9d9c50505050505050505050505050565b60c08101356000908152600360205260408082205490517fd46cf1710000000000000000000000000000000000000000000000000000000081526060918291829173ffffffffffffffffffffffffffffffffffffffff169063d46cf17190612079908890600401614206565b600060405180830381865afa158015612096573d6000803e3d6000fd5b505050506040513d6000823e601f3d9081017fffffffffffffffffffffffffffffffffffffffffffffffffffffffffffffffe01682016040526120dc919081019061437a565b60c088013560009081526004602090815260408083208054825181850281018501909352808352969a509396509194919350849084015b828210156122045760008481526020908190206040805160608101825260038602909201805473ffffffffffffffffffffffffffffffffffffffff1683526001810154938301939093526002830180549293929184019161217390613a9e565b80601f016020809104026020016040519081016040528092919081815260200182805461219f90613a9e565b80156121ec5780601f106121c1576101008083540402835291602001916121ec565b820191906000526020600020905b8154815290600101906020018083116121cf57829003601f168201915b50505050508152505081526020019060010190612113565b5050825192935061221a9150829050600161361c565b67ffffffffffffffff81111561223257612232612583565b60405190808252806020026020018201604052801561227f57816020015b604080516060808201835260008083526020830152918101919091528152602001906001900390816122505790505b50935060005b818110156122cc5782818151811061229f5761229f612dbf565b60200260200101518582815181106122b9576122b9612dbf565b6020908102919091010152600101612285565b50826000815181106122e0576122e0612dbf565b60200260200101518482815181106122fa576122fa612dbf565b60209081029190910101526123136101608801886144f3565b8080601f016020809104026020016040519081016040528093929190818152602001838380828437600092019190915250989a9299509597509095505050505050565b60006020828403121561236857600080fd5b81357fffffffff000000000000000000000000000000000000000000000000000000008116811461239857600080fd5b9392505050565b6000602082840312156123b157600080fd5b5035919050565b73ffffffffffffffffffffffffffffffffffffffff811681146123da57600080fd5b50565b80356123e8816123b8565b919050565b60008083601f8401126123ff57600080fd5b50813567ffffffffffffffff81111561241757600080fd5b60208301915083602082850101111561242f57600080fd5b9250929050565b600060e0828403121561244857600080fd5b50919050565b6000806000806000806000610160888a03121561246a57600080fd5b8735612475816123b8565b9650602088013567ffffffffffffffff8082111561249257600080fd5b908901906040828c0312156124a657600080fd5b909650604089013590808211156124bc57600080fd5b6124c88b838c016123ed565b909750955060608a01359150808211156124e157600080fd5b506124ee8a828b016123ed565b909450925061250290508960808a01612436565b905092959891949750929550565b60008060008060006080868803121561252857600080fd5b8535612533816123b8565b94506020860135612543816123b8565b935060408601359250606086013567ffffffffffffffff81111561256657600080fd5b612572888289016123ed565b969995985093965092949392505050565b7f4e487b7100000000000000000000000000000000000000000000000000000000600052604160045260246000fd5b6040516060810167ffffffffffffffff811182821017156125d5576125d5612583565b60405290565b604051610240810167ffffffffffffffff811182821017156125d5576125d5612583565b604051610120810167ffffffffffffffff811182821017156125d5576125d5612583565b604051601f82017fffffffffffffffffffffffffffffffffffffffffffffffffffffffffffffffe016810167ffffffffffffffff8111828210171561266a5761266a612583565b604052919050565b600067ffffffffffffffff82111561268c5761268c612583565b50601f017fffffffffffffffffffffffffffffffffffffffffffffffffffffffffffffffe01660200190565b60006126cb6126c684612672565b612623565b90508281528383830111156126df57600080fd5b828260208301376000602084830101529392505050565b600082601f83011261270757600080fd5b612398838335602085016126b8565b60006040828403121561272857600080fd5b6040516040810167ffffffffffffffff828210818311171561274c5761274c612583565b81604052829350843591508082111561276457600080fd5b50612771858286016126f6565b825250602083013560208201525092915050565b600067ffffffffffffffff82111561279f5761279f612583565b5060051b60200190565b6000606082840312156127bb57600080fd5b6127c36125b2565b905081356127d0816123b8565b815260208281013590820152604082013567ffffffffffffffff8111156127f657600080fd5b8201601f8101841361280757600080fd5b612816848235602084016126b8565b60408301525092915050565b600082601f83011261283357600080fd5b813560206128436126c683612785565b82815260059290921b8401810191818101908684111561286257600080fd5b8286015b848110156128a257803567ffffffffffffffff8111156128865760008081fd5b6128948986838b01016127a9565b845250918301918301612866565b509695505050505050565b803560ff811681146123e857600080fd5b60008060008060008060006101a0888a0312156128da57600080fd5b6128e3886123dd565b9650602088013567ffffffffffffffff8082111561290057600080fd5b61290c8b838c01612716565b975060408a013591508082111561292257600080fd5b61292e8b838c016126f6565b965060608a013591508082111561294457600080fd5b6129508b838c016126f6565b955061295f8b60808c01612436565b94506101608a013591508082111561297657600080fd5b506129838a828b01612822565b92505061250261018089016128ad565b6000602082840312156129a557600080fd5b813567ffffffffffffffff8111156129bc57600080fd5b82016101e0818503121561239857600080fd5b60005b838110156129ea5781810151838201526020016129d2565b50506000910152565b60008151808452612a0b8160208601602086016129cf565b601f017fffffffffffffffffffffffffffffffffffffffffffffffffffffffffffffffe0169290920160200192915050565b6000606085835260208181850152612a57828501876129f3565b6040858203818701528187518084528484019150848160051b850101858a0160005b83811015612af4578683037fffffffffffffffffffffffffffffffffffffffffffffffffffffffffffffffe00185528151805173ffffffffffffffffffffffffffffffffffffffff16845288810151898501528601518684018a9052612ae18a8501826129f3565b9589019593505090870190600101612a79565b50909c9b505050505050505050505050565b60008060408385031215612b1957600080fd5b50508035926020909101359150565b73ffffffffffffffffffffffffffffffffffffffff84168152826020820152606060408201526000612b5d60608301846129f3565b95945050505050565b60006101c0828403121561244857600080fd5b60008083601f840112612b8b57600080fd5b50813567ffffffffffffffff811115612ba357600080fd5b6020830191508360208260051b850101111561242f57600080fd5b60008060008060008060008060006101c08a8c031215612bdd57600080fd5b612be68a6123dd565b985060208a013567ffffffffffffffff80821115612c0357600080fd5b612c0f8d838e01612716565b995060408c0135915080821115612c2557600080fd5b612c318d838e016126f6565b985060608c0135915080821115612c4757600080fd5b612c538d838e016126f6565b9750612c628d60808e01612436565b96506101608c0135915080821115612c7957600080fd5b612c858d838e01612b66565b95506101808c0135915080821115612c9c57600080fd5b50612ca98c828d01612b79565b9094509250612cbd90506101a08b016128ad565b90509295985092959850929598565b600060208284031215612cde57600080fd5b813567ffffffffffffffff811115612cf557600080fd5b82016101a0818503121561239857600080fd5b6000606085835260208181850152612d22828501876129f3565b6040858203818701528187518084528484019150848160051b850101858a0160005b83811015612af4578683037fffffffffffffffffffffffffffffffffffffffffffffffffffffffffffffffe00185528151805173ffffffffffffffffffffffffffffffffffffffff16845288810151898501528601518684018a9052612dac8a8501826129f3565b9589019593505090870190600101612d44565b7f4e487b7100000000000000000000000000000000000000000000000000000000600052603260045260246000fd5b600060208284031215612e0057600080fd5b8151612398816123b8565b60008083357fffffffffffffffffffffffffffffffffffffffffffffffffffffffffffffffe1843603018112612e4057600080fd5b830160208101925035905067ffffffffffffffff811115612e6057600080fd5b80360382131561242f57600080fd5b8183528181602085013750600060208284010152600060207fffffffffffffffffffffffffffffffffffffffffffffffffffffffffffffffe0601f840116840101905092915050565b73ffffffffffffffffffffffffffffffffffffffff83168152604060208201526000612ee48384612e0b565b604080850152612ef8608085018284612e6f565b91505060208401356060840152809150509392505050565b600060208284031215612f2257600080fd5b5051919050565b858152606060208201526000612f43606083018688612e6f565b8281036040840152612f56818587612e6f565b98975050505050505050565b7f4e487b7100000000000000000000000000000000000000000000000000000000600052601160045260246000fd5b600181815b80851115612fea57817fffffffffffffffffffffffffffffffffffffffffffffffffffffffffffffffff04821115612fd057612fd0612f62565b80851615612fdd57918102915b93841c9390800290612f96565b509250929050565b600082613001575060016103dc565b8161300e575060006103dc565b8160018114613024576002811461302e5761304a565b60019150506103dc565b60ff84111561303f5761303f612f62565b50506001821b6103dc565b5060208310610133831016604e8410600b841016171561306d575081810a6103dc565b6130778383612f91565b807fffffffffffffffffffffffffffffffffffffffffffffffffffffffffffffffff048211156130a9576130a9612f62565b029392505050565b600061239860ff841683612ff2565b6130e58282518051151582526020808201511515908301526040908101511515910152565b6020810151606083015260408101516080830152606081015160a0830152608081015161311660c084018215159052565b5060a081015180151560e08401525060c081015161010061313a8185018315159052565b60e083015191506101206131518186018415159052565b908301519150610140906131688583018415159052565b830151915061016061317d8582018415159052565b908301519150610180906131948583018415159052565b83015191506101a06131a98582018415159052565b9083015191506101c0906131c08583018415159052565b83015191506101e06131d58582018415159052565b908301519150610200906131ec8583018415159052565b83015191506102206132018582018415159052565b9083015173ffffffffffffffffffffffffffffffffffffffff16610240850152909101516102609092019190915250565b600081518084526020808501808196508360051b810191508286016000805b86811015613311578385038a52825180518652860151604087870181905281518188018190529188019160609081890190865b818110156132fa5785518051151584528c81015115158d8501528581015186850152848101518585015260808082015173ffffffffffffffffffffffffffffffffffffffff9081169186019190915260a0808301519086015260c0918201511690840152948b019460e090920191600101613284565b50509c89019c975050509286019250600101613251565b509298975050505050505050565b600081518084526020808501945080840160005b8381101561339c578151805173ffffffffffffffffffffffffffffffffffffffff908116895284820151168489015260408082015190890152606080820151908901526080808201519089015260a0908101519088015260c09096019590820190600101613333565b509495945050505050565b60006103c089835260206133f48185018b80518252602081015160208301526040810151604083015273ffffffffffffffffffffffffffffffffffffffff60608201511660608301525050565b61340160a085018a6130c0565b876103208501528161034085015261341b82850188613232565b9150838203610360850152613430828761331f565b848103610380860152855480825260008781528381209450918301915b8181101561347f57845473ffffffffffffffffffffffffffffffffffffffff168352600194850194928401920161344d565b50508481036103a0860152601b81527f4465706c6f7965642052657461696c69737420747265617375727900000000006020820152604081019c9b505050505050505050505050565b7f5072656d696e746564200000000000000000000000000000000000000000000081528183600a8301377f20746f6b656e732e0000000000000000000000000000000000000000000000009101600a810191909152601201919050565b86815285602082015273ffffffffffffffffffffffffffffffffffffffff8516604082015260c06060820152600061356060c08301866129f3565b93151560808301525090151560a090910152949350505050565b600060208083526080830173ffffffffffffffffffffffffffffffffffffffff85511682850152818501516040850152604085015160608086015281815180845260a0870191508483019350600092505b808310156128a257835182529284019260019290920191908401906135cb565b803565ffffffffffff811681146123e857600080fd5b60006020828403121561361357600080fd5b612398826135eb565b808201808211156103dc576103dc612f62565b80516123e8816123b8565b80151581146123da57600080fd5b80516123e88161363a565b60006060828403121561366557600080fd5b61366d6125b2565b9050815161367a8161363a565b8152602082015161368a8161363a565b6020820152604082015161369d8161363a565b604082015292915050565b600061028082840312156136bb57600080fd5b6136c36125db565b90506136cf8383613653565b8152606082015160208201526080820151604082015260a082015160608201526136fb60c08301613648565b608082015261370c60e08301613648565b60a082015261010061371f818401613648565b60c0830152610120613732818501613648565b60e0840152610140613745818601613648565b838501526101609250613759838601613648565b82850152610180915061376d828601613648565b908401526101a061377f858201613648565b838501526101c09250613793838601613648565b828501526101e091506137a7828601613648565b908401526102006137b9858201613648565b8385015261022092506137cd838601613648565b828501526137de610240860161362f565b818501525050610260830151818301525092915050565b8051600381106123e857600080fd5b60008060008385036103c081121561381b57600080fd5b6101208082121561382b57600080fd5b6138336125ff565b9150855182526020860151602083015260408601516040830152606086015160608301526080860151608083015260a086015160a083015260c086015160c083015261388160e0870161362f565b60e08301526101008087015181840152508194506138a1878288016136a8565b935050506138b26103a085016137f5565b90509250925092565b60006103a0888352613907602084018980518252602081015160208301526040810151604083015273ffffffffffffffffffffffffffffffffffffffff60608201511660608301525050565b61391460a08401886130c0565b856103208401528061034084015261392e81840186613232565b9050828103610360840152613943818561331f565b838103610380909401939093525050603481527f5363686564756c6564207265736572766564207261746520657870697279206f60208201527f662052657461696c69737420747265617375727900000000000000000000000060408201526060019695505050505050565b73ffffffffffffffffffffffffffffffffffffffff8316815260406020820152600082516040808401526139e660808401826129f3565b905060208401516060840152809150509392505050565b838152606060208201526000613a1660608301856129f3565b8281036040840152613a2881856129f3565b9695505050505050565b7f5072656d696e7465642000000000000000000000000000000000000000000000815260008251613a6a81600a8501602087016129cf565b7f20746f6b656e732e000000000000000000000000000000000000000000000000600a939091019283015250601201919050565b600181811c90821680613ab257607f821691505b602082108103612448577f4e487b7100000000000000000000000000000000000000000000000000000000600052602260045260246000fd5b601f821115613b3557600081815260208120601f850160051c81016020861015613b125750805b601f850160051c820191505b81811015613b3157828155600101613b1e565b5050505b505050565b815167ffffffffffffffff811115613b5457613b54612583565b613b6881613b628454613a9e565b84613aeb565b602080601f831160018114613bbb5760008415613b855750858301515b7fffffffffffffffffffffffffffffffffffffffffffffffffffffffffffffffff600386901b1c1916600185901b178555613b31565b6000858152602081207fffffffffffffffffffffffffffffffffffffffffffffffffffffffffffffffe08616915b82811015613c0857888601518255948401946001909101908401613be9565b5085821015613c4457878501517fffffffffffffffffffffffffffffffffffffffffffffffffffffffffffffffff600388901b60f8161c191681555b5050505050600190811b01905550565b600082357fffffffffffffffffffffffffffffffffffffffffffffffffffffffffffffff81833603018112613c8857600080fd5b90910192915050565b80356cffffffffffffffffffffffffff811681146123e857600080fd5b803563ffffffff811681146123e857600080fd5b803561ffff811681146123e857600080fd5b803562ffffff811681146123e857600080fd5b80356123e88161363a565b6000608080840183357fffffffffffffffffffffffffffffffffffffffffffffffffffffffffffffffe1853603018112613d2b57600080fd5b8401602081810191359067ffffffffffffffff821115613d4a57600080fd5b6101608083023603841315613d5e57600080fd5b8589529382905260a09384890160005b84811015613e7957613d9682613d8388613c91565b6cffffffffffffffffffffffffff169052565b613da1848701613cae565b63ffffffff16848301526040613db8878201613cae565b63ffffffff16908301526060613dcf878201613cc2565b61ffff1690830152613de28689016123dd565b73ffffffffffffffffffffffffffffffffffffffff1688830152858701358783015260c0613e11818801613cd4565b62ffffff169083015260e0613e27878201613ce7565b151590830152610100613e3b878201613ce7565b151590830152610120613e4f878201613ce7565b151590830152610140613e63878201613ce7565b1515908301529482019490820190600101613d6e565b50613e85838a016135eb565b65ffffffffffff81168b8501529650613ea060408a016135eb565b65ffffffffffff811660408c01529650613ebc60608a016123dd565b73ffffffffffffffffffffffffffffffffffffffff811660608c015296509998505050505050505050565b8035613ef28161363a565b151582526020810135613f048161363a565b151560208301526040810135613f198161363a565b151560408301526060810135613f2e8161363a565b8015156060840152505050565b8035600281106123e857600080fd5b60028110613f81577f4e487b7100000000000000000000000000000000000000000000000000000000600052602160045260246000fd5b9052565b838152606060208201526000613f9b8485612e0b565b6101c06060850152613fb261022085018284612e6f565b915050613fc26020860186612e0b565b7fffffffffffffffffffffffffffffffffffffffffffffffffffffffffffffffa080868503016080870152613ff8848385612e6f565b9350614006604089016123dd565b73ffffffffffffffffffffffffffffffffffffffff811660a088015292506140316060890189612e0b565b93509150808685030160c087015261404a848484612e6f565b9350614058608089016123dd565b73ffffffffffffffffffffffffffffffffffffffff811660e0880152925061408360a0890189612e0b565b9350915061010081878603018188015261409e858585612e6f565b94506140ad60c08a018a613c54565b935061012092508187860301838801526140c78585613cf2565b94506140d560e08a016123dd565b73ffffffffffffffffffffffffffffffffffffffff811661014089015293506140ff818a016123dd565b9350505061412661016086018373ffffffffffffffffffffffffffffffffffffffff169052565b6141366101808601828901613ee7565b50506141456101a08601613f3b565b614153610200850182613f4a565b5073ffffffffffffffffffffffffffffffffffffffff841660408401529050949350505050565b600082357fffffffffffffffffffffffffffffffffffffffffffffffffffffffffffffffa18336030181126141ae57600080fd5b9190910192915050565b60006103dc36836127a9565b80356141cf816123b8565b73ffffffffffffffffffffffffffffffffffffffff1682526020818101359083015260408082013590830152606090810135910152565b602081526142346020820161421a846123dd565b73ffffffffffffffffffffffffffffffffffffffff169052565b6000614242602084016123dd565b73ffffffffffffffffffffffffffffffffffffffff811660408401525061426f60608301604085016141c4565b60c083013560e083015261010060e0840135818401526142908185016123dd565b90506101206142b68185018373ffffffffffffffffffffffffffffffffffffffff169052565b610140915080850135828501525061016081850135818501526142db81860186612e0b565b925090506101a061018081818701526142f96101c087018585612e6f565b935061430781880188612e0b565b935090507fffffffffffffffffffffffffffffffffffffffffffffffffffffffffffffffe0868503018287015261433f848483612e6f565b979650505050505050565b60006143586126c684612672565b905082815283838301111561436c57600080fd5b6123988360208301846129cf565b60008060006060848603121561438f57600080fd5b8351925060208085015167ffffffffffffffff808211156143af57600080fd5b818701915087601f8301126143c357600080fd5b6143d188835185850161434a565b945060408701519150808211156143e757600080fd5b818701915087601f8301126143fb57600080fd5b81516144096126c682612785565b81815260059190911b8301840190848101908a83111561442857600080fd5b8585015b838110156144e25780518581111561444357600080fd5b86016060818e037fffffffffffffffffffffffffffffffffffffffffffffffffffffffffffffffe001121561447757600080fd5b61447f6125b2565b8882015161448c816123b8565b81526040820151898201526060820151878111156144a957600080fd5b8083019250508d603f8301126144be57600080fd5b6144cf8e8a8401516040850161434a565b604082015284525091860191860161442c565b508096505050505050509250925092565b60008083357fffffffffffffffffffffffffffffffffffffffffffffffffffffffffffffffe184360301811261452857600080fd5b83018035915067ffffffffffffffff82111561454357600080fd5b60200191503681900382131561242f57600080fdfea26469706673582212202534738f827a616a86e549a19c186896202c9907efd03aa83da960b11340179564736f6c63430008140033",
    "linkReferences": {}
  },
  "methodIdentifiers": {
    "buybackDelegateDataSourceOf(uint256)": "ef8eadd5",
    "controller()": "f77c4791",
    "delegateAllocationsOf(uint256,uint256)": "abc603e3",
    "delegateDeployer()": "8f3d964b",
    "deployBasicProjectFor(address,(string,uint256),string,string,(uint256,uint256,uint256,uint256,uint256,uint256,uint48))": "0e53d9cc",
    "deployPayAllocatorProjectFor(address,(string,uint256),string,string,(uint256,uint256,uint256,uint256,uint256,uint256,uint48),(address,uint256,bytes)[],uint8)": "4e777fd7",
    "deployTiered721PayAllocatorProjectFor(address,(string,uint256),string,string,(uint256,uint256,uint256,uint256,uint256,uint256,uint48),(string,string,address,string,address,string,((uint104,uint32,uint32,uint16,address,bytes32,uint24,bool,bool,bool,bool)[],uint48,uint48,address),address,address,(bool,bool,bool,bool),uint8),(address,uint256,bytes)[],uint8)": "c7e221d7",
    "directory()": "c41c2f24",
    "onERC721Received(address,address,uint256,bytes)": "150b7a02",
    "payParams((address,address,(address,uint256,uint256,uint256),uint256,uint256,address,uint256,uint256,string,bytes))": "d46cf171",
    "permissionIndexes(uint256)": "9483e771",
    "reconfigurationStartTimestampOf(uint256)": "560f7b03",
    "redeemParams((address,address,uint256,uint256,uint256,uint256,uint256,(address,uint256,uint256,uint256),bool,uint256,string,bytes))": "a51cfd18",
    "scheduleReconfigurationOf(uint256)": "3ce6d3e2",
    "supportsInterface(bytes4)": "01ffc9a7",
    "terminals(uint256)": "0219758e"
  },
  "id": 71
}