{
  "abi": [
    {
      "inputs": [
        {
          "internalType": "contract IJBDirectory",
          "name": "_directory",
          "type": "address"
        },
        {
          "internalType": "contract IJBTiered721DelegateDeployer",
          "name": "_delegateDeployer",
          "type": "address"
        },
        {
          "internalType": "contract IJBController3_1",
          "name": "_controller",
          "type": "address"
        }
      ],
      "stateMutability": "nonpayable",
      "type": "constructor"
    },
    {
      "inputs": [],
      "name": "RECONFIGURATION_ALREADY_SCHEDULED",
      "type": "error"
    },
    {
      "inputs": [
        {
          "internalType": "uint256",
          "name": "",
          "type": "uint256"
        }
      ],
      "name": "buybackDelegateDataSourceOf",
      "outputs": [
        {
          "internalType": "contract IJBFundingCycleDataSource3_1_1",
          "name": "",
          "type": "address"
        }
      ],
      "stateMutability": "view",
      "type": "function"
    },
    {
      "inputs": [],
      "name": "controller",
      "outputs": [
        {
          "internalType": "contract IJBController3_1",
          "name": "",
          "type": "address"
        }
      ],
      "stateMutability": "view",
      "type": "function"
    },
    {
      "inputs": [
        {
          "internalType": "uint256",
          "name": "",
          "type": "uint256"
        },
        {
          "internalType": "uint256",
          "name": "",
          "type": "uint256"
        }
      ],
      "name": "delegateAllocationsOf",
      "outputs": [
        {
          "internalType": "contract IJBPayDelegate3_1_1",
          "name": "delegate",
          "type": "address"
        },
        {
          "internalType": "uint256",
          "name": "amount",
          "type": "uint256"
        },
        {
          "internalType": "bytes",
          "name": "metadata",
          "type": "bytes"
        }
      ],
      "stateMutability": "view",
      "type": "function"
    },
    {
      "inputs": [],
      "name": "delegateDeployer",
      "outputs": [
        {
          "internalType": "contract IJBTiered721DelegateDeployer",
          "name": "",
          "type": "address"
        }
      ],
      "stateMutability": "view",
      "type": "function"
    },
    {
      "inputs": [
        {
          "internalType": "address",
          "name": "_operator",
          "type": "address"
        },
        {
          "components": [
            {
              "internalType": "string",
              "name": "content",
              "type": "string"
            },
            {
              "internalType": "uint256",
              "name": "domain",
              "type": "uint256"
            }
          ],
          "internalType": "struct JBProjectMetadata",
          "name": "_projectMetadata",
          "type": "tuple"
        },
        {
          "internalType": "string",
          "name": "_name",
          "type": "string"
        },
        {
          "internalType": "string",
          "name": "_symbol",
          "type": "string"
        },
        {
          "components": [
            {
              "internalType": "uint256",
              "name": "initialIssuanceRate",
              "type": "uint256"
            },
            {
              "internalType": "uint256",
              "name": "premintTokenAmount",
              "type": "uint256"
            },
            {
              "internalType": "uint256",
              "name": "discountRate",
              "type": "uint256"
            },
            {
              "internalType": "uint256",
              "name": "cycleDurations",
              "type": "uint256"
            },
            {
              "internalType": "uint256",
              "name": "redemptionRate",
              "type": "uint256"
            },
            {
              "internalType": "uint256",
              "name": "reservedRate",
              "type": "uint256"
            },
            {
              "internalType": "uint48",
              "name": "reservedRateDuration",
              "type": "uint48"
            },
            {
              "internalType": "uint24",
              "name": "poolFee",
              "type": "uint24"
            }
          ],
          "internalType": "struct BasicRetailistJBParams",
          "name": "_data",
          "type": "tuple"
        },
        {
          "internalType": "contract IJBPaymentTerminal[]",
          "name": "_terminals",
          "type": "address[]"
        },
        {
          "internalType": "contract IJBGenericBuybackDelegate",
          "name": "_buybackDelegate",
          "type": "address"
        }
      ],
      "name": "deployBasicProjectFor",
      "outputs": [
        {
          "internalType": "uint256",
          "name": "projectId",
          "type": "uint256"
        }
      ],
      "stateMutability": "nonpayable",
      "type": "function"
    },
    {
      "inputs": [
        {
          "internalType": "address",
          "name": "_operator",
          "type": "address"
        },
        {
          "components": [
            {
              "internalType": "string",
              "name": "content",
              "type": "string"
            },
            {
              "internalType": "uint256",
              "name": "domain",
              "type": "uint256"
            }
          ],
          "internalType": "struct JBProjectMetadata",
          "name": "_projectMetadata",
          "type": "tuple"
        },
        {
          "internalType": "string",
          "name": "_name",
          "type": "string"
        },
        {
          "internalType": "string",
          "name": "_symbol",
          "type": "string"
        },
        {
          "components": [
            {
              "internalType": "uint256",
              "name": "initialIssuanceRate",
              "type": "uint256"
            },
            {
              "internalType": "uint256",
              "name": "premintTokenAmount",
              "type": "uint256"
            },
            {
              "internalType": "uint256",
              "name": "discountRate",
              "type": "uint256"
            },
            {
              "internalType": "uint256",
              "name": "cycleDurations",
              "type": "uint256"
            },
            {
              "internalType": "uint256",
              "name": "redemptionRate",
              "type": "uint256"
            },
            {
              "internalType": "uint256",
              "name": "reservedRate",
              "type": "uint256"
            },
            {
              "internalType": "uint48",
              "name": "reservedRateDuration",
              "type": "uint48"
            },
            {
              "internalType": "uint24",
              "name": "poolFee",
              "type": "uint24"
            }
          ],
          "internalType": "struct BasicRetailistJBParams",
          "name": "_data",
          "type": "tuple"
        },
        {
          "internalType": "contract IJBPaymentTerminal[]",
          "name": "_terminals",
          "type": "address[]"
        },
        {
          "internalType": "contract IJBGenericBuybackDelegate",
          "name": "_buybackDelegate",
          "type": "address"
        },
        {
          "components": [
            {
              "internalType": "contract IJBPayDelegate3_1_1",
              "name": "delegate",
              "type": "address"
            },
            {
              "internalType": "uint256",
              "name": "amount",
              "type": "uint256"
            },
            {
              "internalType": "bytes",
              "name": "metadata",
              "type": "bytes"
            }
          ],
          "internalType": "struct JBPayDelegateAllocation3_1_1[]",
          "name": "_delegateAllocations",
          "type": "tuple[]"
        },
        {
          "internalType": "uint8",
          "name": "_extraFundingCycleMetadata",
          "type": "uint8"
        }
      ],
      "name": "deployPayAllocatorProjectFor",
      "outputs": [
        {
          "internalType": "uint256",
          "name": "projectId",
          "type": "uint256"
        }
      ],
      "stateMutability": "nonpayable",
      "type": "function"
    },
    {
      "inputs": [
        {
          "internalType": "address",
          "name": "_operator",
          "type": "address"
        },
        {
          "components": [
            {
              "internalType": "string",
              "name": "content",
              "type": "string"
            },
            {
              "internalType": "uint256",
              "name": "domain",
              "type": "uint256"
            }
          ],
          "internalType": "struct JBProjectMetadata",
          "name": "_projectMetadata",
          "type": "tuple"
        },
        {
          "internalType": "string",
          "name": "_name",
          "type": "string"
        },
        {
          "internalType": "string",
          "name": "_symbol",
          "type": "string"
        },
        {
          "components": [
            {
              "internalType": "uint256",
              "name": "initialIssuanceRate",
              "type": "uint256"
            },
            {
              "internalType": "uint256",
              "name": "premintTokenAmount",
              "type": "uint256"
            },
            {
              "internalType": "uint256",
              "name": "discountRate",
              "type": "uint256"
            },
            {
              "internalType": "uint256",
              "name": "cycleDurations",
              "type": "uint256"
            },
            {
              "internalType": "uint256",
              "name": "redemptionRate",
              "type": "uint256"
            },
            {
              "internalType": "uint256",
              "name": "reservedRate",
              "type": "uint256"
            },
            {
              "internalType": "uint48",
              "name": "reservedRateDuration",
              "type": "uint48"
            },
            {
              "internalType": "uint24",
              "name": "poolFee",
              "type": "uint24"
            }
          ],
          "internalType": "struct BasicRetailistJBParams",
          "name": "_data",
          "type": "tuple"
        },
        {
          "internalType": "contract IJBPaymentTerminal[]",
          "name": "_terminals",
          "type": "address[]"
        },
        {
          "internalType": "contract IJBGenericBuybackDelegate",
          "name": "_buybackDelegate",
          "type": "address"
        },
        {
          "components": [
            {
              "internalType": "string",
              "name": "name",
              "type": "string"
            },
            {
              "internalType": "string",
              "name": "symbol",
              "type": "string"
            },
            {
              "internalType": "contract IJBFundingCycleStore",
              "name": "fundingCycleStore",
              "type": "address"
            },
            {
              "internalType": "string",
              "name": "baseUri",
              "type": "string"
            },
            {
              "internalType": "contract IJB721TokenUriResolver",
              "name": "tokenUriResolver",
              "type": "address"
            },
            {
              "internalType": "string",
              "name": "contractUri",
              "type": "string"
            },
            {
              "components": [
                {
                  "components": [
                    {
                      "internalType": "uint104",
                      "name": "price",
                      "type": "uint104"
                    },
                    {
                      "internalType": "uint32",
                      "name": "initialQuantity",
                      "type": "uint32"
                    },
                    {
                      "internalType": "uint32",
                      "name": "votingUnits",
                      "type": "uint32"
                    },
                    {
                      "internalType": "uint16",
                      "name": "reservedRate",
                      "type": "uint16"
                    },
                    {
                      "internalType": "address",
                      "name": "reservedTokenBeneficiary",
                      "type": "address"
                    },
                    {
                      "internalType": "bytes32",
                      "name": "encodedIPFSUri",
                      "type": "bytes32"
                    },
                    {
                      "internalType": "uint24",
                      "name": "category",
                      "type": "uint24"
                    },
                    {
                      "internalType": "bool",
                      "name": "allowManualMint",
                      "type": "bool"
                    },
                    {
                      "internalType": "bool",
                      "name": "shouldUseReservedTokenBeneficiaryAsDefault",
                      "type": "bool"
                    },
                    {
                      "internalType": "bool",
                      "name": "transfersPausable",
                      "type": "bool"
                    },
                    {
                      "internalType": "bool",
                      "name": "useVotingUnits",
                      "type": "bool"
                    }
                  ],
                  "internalType": "struct JB721TierParams[]",
                  "name": "tiers",
                  "type": "tuple[]"
                },
                {
                  "internalType": "uint48",
                  "name": "currency",
                  "type": "uint48"
                },
                {
                  "internalType": "uint48",
                  "name": "decimals",
                  "type": "uint48"
                },
                {
                  "internalType": "contract IJBPrices",
                  "name": "prices",
                  "type": "address"
                }
              ],
              "internalType": "struct JB721PricingParams",
              "name": "pricing",
              "type": "tuple"
            },
            {
              "internalType": "address",
              "name": "reservedTokenBeneficiary",
              "type": "address"
            },
            {
              "internalType": "contract IJBTiered721DelegateStore",
              "name": "store",
              "type": "address"
            },
            {
              "components": [
                {
                  "internalType": "bool",
                  "name": "lockReservedTokenChanges",
                  "type": "bool"
                },
                {
                  "internalType": "bool",
                  "name": "lockVotingUnitChanges",
                  "type": "bool"
                },
                {
                  "internalType": "bool",
                  "name": "lockManualMintingChanges",
                  "type": "bool"
                },
                {
                  "internalType": "bool",
                  "name": "preventOverspending",
                  "type": "bool"
                }
              ],
              "internalType": "struct JBTiered721Flags",
              "name": "flags",
              "type": "tuple"
            },
            {
              "internalType": "enum JB721GovernanceType",
              "name": "governanceType",
              "type": "uint8"
            }
          ],
          "internalType": "struct JBDeployTiered721DelegateData",
          "name": "_deployTiered721DelegateData",
          "type": "tuple"
        },
        {
          "components": [
            {
              "internalType": "contract IJBPayDelegate3_1_1",
              "name": "delegate",
              "type": "address"
            },
            {
              "internalType": "uint256",
              "name": "amount",
              "type": "uint256"
            },
            {
              "internalType": "bytes",
              "name": "metadata",
              "type": "bytes"
            }
          ],
          "internalType": "struct JBPayDelegateAllocation3_1_1[]",
          "name": "_otherDelegateAllocations",
          "type": "tuple[]"
        },
        {
          "internalType": "uint8",
          "name": "_extraFundingCycleMetadata",
          "type": "uint8"
        }
      ],
      "name": "deployTiered721PayAllocatorProjectFor",
      "outputs": [
        {
          "internalType": "uint256",
          "name": "projectId",
          "type": "uint256"
        }
      ],
      "stateMutability": "nonpayable",
      "type": "function"
    },
    {
      "inputs": [],
      "name": "directory",
      "outputs": [
        {
          "internalType": "contract IJBDirectory",
          "name": "",
          "type": "address"
        }
      ],
      "stateMutability": "view",
      "type": "function"
    },
    {
      "inputs": [
        {
          "internalType": "address",
          "name": "_operator",
          "type": "address"
        },
        {
          "internalType": "address",
          "name": "_from",
          "type": "address"
        },
        {
          "internalType": "uint256",
          "name": "_tokenId",
          "type": "uint256"
        },
        {
          "internalType": "bytes",
          "name": "_data",
          "type": "bytes"
        }
      ],
      "name": "onERC721Received",
      "outputs": [
        {
          "internalType": "bytes4",
          "name": "",
          "type": "bytes4"
        }
      ],
      "stateMutability": "view",
      "type": "function"
    },
    {
      "inputs": [
        {
          "components": [
            {
              "internalType": "contract IJBPaymentTerminal",
              "name": "terminal",
              "type": "address"
            },
            {
              "internalType": "address",
              "name": "payer",
              "type": "address"
            },
            {
              "components": [
                {
                  "internalType": "address",
                  "name": "token",
                  "type": "address"
                },
                {
                  "internalType": "uint256",
                  "name": "value",
                  "type": "uint256"
                },
                {
                  "internalType": "uint256",
                  "name": "decimals",
                  "type": "uint256"
                },
                {
                  "internalType": "uint256",
                  "name": "currency",
                  "type": "uint256"
                }
              ],
              "internalType": "struct JBTokenAmount",
              "name": "amount",
              "type": "tuple"
            },
            {
              "internalType": "uint256",
              "name": "projectId",
              "type": "uint256"
            },
            {
              "internalType": "uint256",
              "name": "currentFundingCycleConfiguration",
              "type": "uint256"
            },
            {
              "internalType": "address",
              "name": "beneficiary",
              "type": "address"
            },
            {
              "internalType": "uint256",
              "name": "weight",
              "type": "uint256"
            },
            {
              "internalType": "uint256",
              "name": "reservedRate",
              "type": "uint256"
            },
            {
              "internalType": "string",
              "name": "memo",
              "type": "string"
            },
            {
              "internalType": "bytes",
              "name": "metadata",
              "type": "bytes"
            }
          ],
          "internalType": "struct JBPayParamsData",
          "name": "_data",
          "type": "tuple"
        }
      ],
      "name": "payParams",
      "outputs": [
        {
          "internalType": "uint256",
          "name": "weight",
          "type": "uint256"
        },
        {
          "internalType": "string",
          "name": "memo",
          "type": "string"
        },
        {
          "components": [
            {
              "internalType": "contract IJBPayDelegate3_1_1",
              "name": "delegate",
              "type": "address"
            },
            {
              "internalType": "uint256",
              "name": "amount",
              "type": "uint256"
            },
            {
              "internalType": "bytes",
              "name": "metadata",
              "type": "bytes"
            }
          ],
          "internalType": "struct JBPayDelegateAllocation3_1_1[]",
          "name": "delegateAllocations",
          "type": "tuple[]"
        }
      ],
      "stateMutability": "view",
      "type": "function"
    },
    {
      "inputs": [
        {
          "internalType": "uint256",
          "name": "",
          "type": "uint256"
        }
      ],
      "name": "permissionIndexes",
      "outputs": [
        {
          "internalType": "uint256",
          "name": "",
          "type": "uint256"
        }
      ],
      "stateMutability": "view",
      "type": "function"
    },
    {
      "inputs": [
        {
          "internalType": "uint256",
          "name": "projectId",
          "type": "uint256"
        }
      ],
      "name": "reconfigurationStartTimestampOf",
      "outputs": [
        {
          "internalType": "uint256",
          "name": "",
          "type": "uint256"
        }
      ],
      "stateMutability": "view",
      "type": "function"
    },
    {
      "inputs": [
        {
          "components": [
            {
              "internalType": "contract IJBPaymentTerminal",
              "name": "terminal",
              "type": "address"
            },
            {
              "internalType": "address",
              "name": "holder",
              "type": "address"
            },
            {
              "internalType": "uint256",
              "name": "projectId",
              "type": "uint256"
            },
            {
              "internalType": "uint256",
              "name": "currentFundingCycleConfiguration",
              "type": "uint256"
            },
            {
              "internalType": "uint256",
              "name": "tokenCount",
              "type": "uint256"
            },
            {
              "internalType": "uint256",
              "name": "totalSupply",
              "type": "uint256"
            },
            {
              "internalType": "uint256",
              "name": "overflow",
              "type": "uint256"
            },
            {
              "components": [
                {
                  "internalType": "address",
                  "name": "token",
                  "type": "address"
                },
                {
                  "internalType": "uint256",
                  "name": "value",
                  "type": "uint256"
                },
                {
                  "internalType": "uint256",
                  "name": "decimals",
                  "type": "uint256"
                },
                {
                  "internalType": "uint256",
                  "name": "currency",
                  "type": "uint256"
                }
              ],
              "internalType": "struct JBTokenAmount",
              "name": "reclaimAmount",
              "type": "tuple"
            },
            {
              "internalType": "bool",
              "name": "useTotalOverflow",
              "type": "bool"
            },
            {
              "internalType": "uint256",
              "name": "redemptionRate",
              "type": "uint256"
            },
            {
              "internalType": "string",
              "name": "memo",
              "type": "string"
            },
            {
              "internalType": "bytes",
              "name": "metadata",
              "type": "bytes"
            }
          ],
          "internalType": "struct JBRedeemParamsData",
          "name": "_data",
          "type": "tuple"
        }
      ],
      "name": "redeemParams",
      "outputs": [
        {
          "internalType": "uint256",
          "name": "",
          "type": "uint256"
        },
        {
          "internalType": "string",
          "name": "",
          "type": "string"
        },
        {
          "components": [
            {
              "internalType": "contract IJBRedemptionDelegate3_1_1",
              "name": "delegate",
              "type": "address"
            },
            {
              "internalType": "uint256",
              "name": "amount",
              "type": "uint256"
            },
            {
              "internalType": "bytes",
              "name": "metadata",
              "type": "bytes"
            }
          ],
          "internalType": "struct JBRedemptionDelegateAllocation3_1_1[]",
          "name": "",
          "type": "tuple[]"
        }
      ],
      "stateMutability": "view",
      "type": "function"
    },
    {
      "inputs": [
        {
          "internalType": "uint256",
          "name": "_projectId",
          "type": "uint256"
        }
      ],
      "name": "scheduleReconfigurationOf",
      "outputs": [],
      "stateMutability": "nonpayable",
      "type": "function"
    },
    {
      "inputs": [
        {
          "internalType": "bytes4",
          "name": "_interfaceId",
          "type": "bytes4"
        }
      ],
      "name": "supportsInterface",
      "outputs": [
        {
          "internalType": "bool",
          "name": "",
          "type": "bool"
        }
      ],
      "stateMutability": "view",
      "type": "function"
    }
  ],
  "bytecode": {
    "object": "0x60e06040523480156200001157600080fd5b5060405162004b9d38038062004b9d8339810160408190526200003491620000ad565b6001600160a01b03908116608052600080546001818101835582805260127f290decd9548b62a8d60345a988386fc84ba6bc95484008f6362f93160ef3e563928301558254908101909255601891015591821660a0521660c05262000101565b6001600160a01b0381168114620000aa57600080fd5b50565b600080600060608486031215620000c357600080fd5b8351620000d08162000094565b6020850151909350620000e38162000094565b6040850151909250620000f68162000094565b809150509250925092565b60805160a05160c051614a036200019a600039600081816101c1015261177f0152600081816102640152611574015260008181610309015281816103c80152818161065e0152818161076c01528181610a1d01528181610cf701528181610dce015281816110fc015281816112af01528181611d4b01528181611e590152818161210a01528181612337015261240e0152614a036000f3fe608060405234801561001057600080fd5b50600436106100f55760003560e01c8063a51cfd1811610097578063d46cf17111610066578063d46cf17114610299578063d87b09e3146102bb578063ef8eadd5146102ce578063f77c47911461030457600080fd5b8063a51cfd181461021b578063abc603e31461023d578063c41c2f241461025f578063cc28d77f1461028657600080fd5b80633ce6d3e2116100d35780633ce6d3e214610187578063560f7b031461019c5780638f3d964b146101bc5780639483e7711461020857600080fd5b806301ffc9a7146100fa578063150b7a02146101225780631f84209a14610166575b600080fd5b61010d610108366004612625565b61032b565b60405190151581526020015b60405180910390f35b6101356101303660046126a3565b6103c4565b6040517fffffffff000000000000000000000000000000000000000000000000000000009091168152602001610119565b610179610174366004612c03565b6104d8565b604051908152602001610119565b61019a610195366004612d1c565b6110b3565b005b6101796101aa366004612d1c565b60016020526000908152604090205481565b6101e37f000000000000000000000000000000000000000000000000000000000000000081565b60405173ffffffffffffffffffffffffffffffffffffffff9091168152602001610119565b610179610216366004612d1c565b611404565b61022e610229366004612d35565b611425565b60405161011993929190612ddf565b61025061024b366004612ea8565b61148d565b60405161011993929190612eca565b6101e37f000000000000000000000000000000000000000000000000000000000000000081565b6101796102943660046132af565b611570565b6102ac6102a73660046133ee565b61187c565b6040516101199392919061342a565b6101796102c93660046134e1565b611bc5565b6101e36102dc366004612d1c565b60026020526000908152604090205473ffffffffffffffffffffffffffffffffffffffff1681565b6101e37f000000000000000000000000000000000000000000000000000000000000000081565b60007fffffffff0000000000000000000000000000000000000000000000000000000082167f71700c690000000000000000000000000000000000000000000000000000000014806103be57507f150b7a02000000000000000000000000000000000000000000000000000000007fffffffff000000000000000000000000000000000000000000000000000000008316145b92915050565b60007f000000000000000000000000000000000000000000000000000000000000000073ffffffffffffffffffffffffffffffffffffffff16638b79543c6040518163ffffffff1660e01b8152600401602060405180830381865afa158015610431573d6000803e3d6000fd5b505050506040513d601f19601f8201168201806040525081019061045591906135c4565b73ffffffffffffffffffffffffffffffffffffffff163373ffffffffffffffffffffffffffffffffffffffff161461048c57600080fd5b73ffffffffffffffffffffffffffffffffffffffff8516156104ad57600080fd5b507f150b7a020000000000000000000000000000000000000000000000000000000095945050505050565b604080516001808252818301909252600091829190816020015b6040805180820190915260008152606060208201528152602001906001900390816104f257505060408051600180825281830190925291925060009190602082015b6040805160e08101825260008082526020808301829052928201819052606082018190526080820181905260a0820181905260c082015282527fffffffffffffffffffffffffffffffffffffffffffffffffffffffffffffffff9092019101816105345790505090506040518060e00160405280600015158152602001600015158152602001633b9aca008152602001600081526020018d73ffffffffffffffffffffffffffffffffffffffff16815260200160008152602001600073ffffffffffffffffffffffffffffffffffffffff168152508160018151811061061c5761061c6135e1565b60200260200101819052506040518060400160405280600281526020018281525082600081518110610650576106506135e1565b6020026020010181905250507f000000000000000000000000000000000000000000000000000000000000000073ffffffffffffffffffffffffffffffffffffffff16638b79543c6040518163ffffffff1660e01b8152600401602060405180830381865afa1580156106c7573d6000803e3d6000fd5b505050506040513d601f19601f820116820180604052508101906106eb91906135c4565b73ffffffffffffffffffffffffffffffffffffffff1663666d87a0308c6040518363ffffffff1660e01b8152600401610725929190613610565b6020604051808303816000875af1158015610744573d6000803e3d6000fd5b505050506040513d601f19601f82011682018060405250810190610768919061365e565b91507f000000000000000000000000000000000000000000000000000000000000000073ffffffffffffffffffffffffffffffffffffffff1663619306306040518163ffffffff1660e01b8152600401602060405180830381865afa1580156107d5573d6000803e3d6000fd5b505050506040513d601f19601f820116820180604052508101906107f991906135c4565b73ffffffffffffffffffffffffffffffffffffffff1663a7f2a70b838b8b6040518463ffffffff1660e01b815260040161083593929190613677565b6020604051808303816000875af1158015610854573d6000803e3d6000fd5b505050506040513d601f19601f8201168201806040525081019061087891906135c4565b508473ffffffffffffffffffffffffffffffffffffffff16637b621d3a838960e001518873ffffffffffffffffffffffffffffffffffffffff166360b3042c6040518163ffffffff1660e01b8152600401602060405180830381865afa1580156108e6573d6000803e3d6000fd5b505050506040513d601f19601f8201168201806040525081019061090a919061365e565b8973ffffffffffffffffffffffffffffffffffffffff1663737a79966040518163ffffffff1660e01b8152600401602060405180830381865afa158015610955573d6000803e3d6000fd5b505050506040513d601f19601f82011682018060405250810190610979919061365e565b6040517fffffffff0000000000000000000000000000000000000000000000000000000060e087901b168152600481019490945262ffffff909216602484015263ffffffff908116604484015216606482015261eeee608482015260a4016020604051808303816000875af11580156109f6573d6000803e3d6000fd5b505050506040513d601f19601f82011682018060405250810190610a1a91906135c4565b507f000000000000000000000000000000000000000000000000000000000000000073ffffffffffffffffffffffffffffffffffffffff1663111d861b8360405180608001604052808b60600151815260200160128c60000151610a7e91906137fb565b81526020018b604001518152602001600073ffffffffffffffffffffffffffffffffffffffff1681525060405180610240016040528060405180606001604052806000151581526020016000151581526020016000151581525081526020018c60a0015181526020018c608001518152602001600081526020016000151581526020016000151581526020016000151581526020016000151581526020016001151581526020016000151581526020016000151581526020016000151581526020016000151581526020016000151581526020016001151581526020016000151581526020013073ffffffffffffffffffffffffffffffffffffffff1681526020018860ff16815250600086600067ffffffffffffffff811115610ba457610ba4612742565b604051908082528060200260200182016040528015610c3a57816020015b610c276040518060c00160405280600073ffffffffffffffffffffffffffffffffffffffff168152602001600073ffffffffffffffffffffffffffffffffffffffff168152602001600081526020016000815260200160008152602001600081525090565b815260200190600190039081610bc25790505b508d6040518863ffffffff1660e01b8152600401610c5e9796959493929190613aee565b6020604051808303816000875af1158015610c7d573d6000803e3d6000fd5b505050506040513d601f19601f82011682018060405250810190610ca1919061365e565b5050836002600083815260200190815260200160002060006101000a81548173ffffffffffffffffffffffffffffffffffffffff021916908373ffffffffffffffffffffffffffffffffffffffff1602179055507f000000000000000000000000000000000000000000000000000000000000000073ffffffffffffffffffffffffffffffffffffffff16638ae9c07b8260128960200151610d4391906137fb565b8d8b604051602001610d559190613c0c565b6040516020818303038152906040526000806040518763ffffffff1660e01b8152600401610d8896959493929190613c51565b6020604051808303816000875af1158015610da7573d6000803e3d6000fd5b505050506040513d601f19601f82011682018060405250810190610dcb919061365e565b507f000000000000000000000000000000000000000000000000000000000000000073ffffffffffffffffffffffffffffffffffffffff16632bdfe0046040518163ffffffff1660e01b8152600401602060405180830381865afa158015610e37573d6000803e3d6000fd5b505050506040513d601f19601f82011682018060405250810190610e5b91906135c4565b73ffffffffffffffffffffffffffffffffffffffff1663ad007d636040518163ffffffff1660e01b8152600401602060405180830381865afa158015610ea5573d6000803e3d6000fd5b505050506040513d601f19601f82011682018060405250810190610ec991906135c4565b73ffffffffffffffffffffffffffffffffffffffff1663529cdd2e60405180606001604052808d73ffffffffffffffffffffffffffffffffffffffff1681526020018481526020016000805480602002602001604051908101604052809291908181526020018280548015610f5d57602002820191906000526020600020905b815481526020019060010190808311610f49575b50505050508152506040518263ffffffff1660e01b8152600401610f819190613ca6565b600060405180830381600087803b158015610f9b57600080fd5b505af1158015610faf573d6000803e3d6000fd5b50505060c0870151610fca915065ffffffffffff1642613d17565b6000828152600160205260408120919091558351905b818110156110a457848181518110610ffa57610ffa6135e1565b6020026020010151600360008581526020019081526020016000208281548110611026576110266135e1565b600091825260209182902083516003929092020180547fffffffffffffffffffffffff00000000000000000000000000000000000000001673ffffffffffffffffffffffffffffffffffffffff909216919091178155908201516001820155604082015160028201906110999082613dcc565b505050600101610fe0565b50509998505050505050505050565b6040517f1f51045300000000000000000000000000000000000000000000000000000000815260048101829052600090819073ffffffffffffffffffffffffffffffffffffffff7f00000000000000000000000000000000000000000000000000000000000000001690631f510453906024016103c060405180830381865afa158015611144573d6000803e3d6000fd5b505050506040513d601f19601f8201168201806040525081019061116891906140ad565b50815191935091506001146111a9576040517fc97554fa00000000000000000000000000000000000000000000000000000000815260040160405180910390fd5b60408051608080820183528481015182526000602080840182905260c08088015185870152606080860184905286516102a0810188526102408101858152610260820186905261028082018690528152808401859052888801518189015290810184905293840183905260a08401839052830182905260e08301829052610100830182905261012083018290526101408301829052610160830182905261018083018290526101a083018290526101c083018290526101e083018290526102008087015173ffffffffffffffffffffffffffffffffffffffff908116918501919091526102208781015190850152888352600182528583205486518481529283019096527f0000000000000000000000000000000000000000000000000000000000000000169463badbdf28948994909390929061130a565b6040805180820190915260008152606060208201528152602001906001900390816112e25790505b506040805160008082526020820190925290611399565b6113866040518060c00160405280600073ffffffffffffffffffffffffffffffffffffffff168152602001600073ffffffffffffffffffffffffffffffffffffffff168152602001600081526020016000815260200160008152602001600081525090565b8152602001906001900390816113215790505b506040518763ffffffff1660e01b81526004016113bb96959493929190614164565b6020604051808303816000875af11580156113da573d6000803e3d6000fd5b505050506040513d601f19601f820116820180604052508101906113fe919061365e565b50505050565b6000818154811061141457600080fd5b600091825260209091200154905081565b604080516000808252602082019092526060908190839081611471565b604080516060808201835260008083526020830152918101919091528152602001906001900390816114425790505b5060408051602081019091526000815291969195509350915050565b600360205281600052604060002081815481106114a957600080fd5b600091825260209091206003909102018054600182015460028301805473ffffffffffffffffffffffffffffffffffffffff9093169550909350906114ed90613d2a565b80601f016020809104026020016040519081016040528092919081815260200182805461151990613d2a565b80156115665780601f1061153b57610100808354040283529160200191611566565b820191906000526020600020905b81548152906001019060200180831161154957829003601f168201915b5050505050905083565b60007f000000000000000000000000000000000000000000000000000000000000000073ffffffffffffffffffffffffffffffffffffffff16638b79543c6040518163ffffffff1660e01b8152600401602060405180830381865afa1580156115dd573d6000803e3d6000fd5b505050506040513d601f19601f8201168201806040525081019061160191906135c4565b73ffffffffffffffffffffffffffffffffffffffff166306661abd6040518163ffffffff1660e01b8152600401602060405180830381865afa15801561164b573d6000803e3d6000fd5b505050506040513d601f19601f8201168201806040525081019061166f919061365e565b61167a906001613d17565b8351909150600061168c826001613d17565b67ffffffffffffffff8111156116a4576116a4612742565b6040519080825280602002602001820160405280156116f157816020015b604080516060808201835260008083526020830152918101919091528152602001906001900390816116c25790505b50905060005b8281101561173e57858181518110611711576117116135e1565b602002602001015182828151811061172b5761172b6135e1565b60209081029190910101526001016116f7565b506040517f70d7f24900000000000000000000000000000000000000000000000000000000815260009073ffffffffffffffffffffffffffffffffffffffff7f000000000000000000000000000000000000000000000000000000000000000016906370d7f249906117b69087908b906004016143d2565b6020604051808303816000875af11580156117d5573d6000803e3d6000fd5b505050506040513d601f19601f820116820180604052508101906117f991906135c4565b905060405180606001604052808273ffffffffffffffffffffffffffffffffffffffff168152602001600081526020016040518060200160405280600081525081525082848151811061184e5761184e6135e1565b60200260200101819052505061186b8d8d8d8d8d8d8d888c6104d8565b5050509a9950505050505050505050565b60c08101356000908152600260205260408082205490517fd46cf1710000000000000000000000000000000000000000000000000000000081526060918291829173ffffffffffffffffffffffffffffffffffffffff169063d46cf171906118e890889060040161467b565b600060405180830381865afa158015611905573d6000803e3d6000fd5b505050506040513d6000823e601f3d9081017fffffffffffffffffffffffffffffffffffffffffffffffffffffffffffffffe016820160405261194b91908101906147ef565b60c088013560009081526003602090815260408083208054825181850281018501909352808352969a509396509194919350849084015b82821015611a735760008481526020908190206040805160608101825260038602909201805473ffffffffffffffffffffffffffffffffffffffff168352600181015493830193909352600283018054929392918401916119e290613d2a565b80601f0160208091040260200160405190810160405280929190818152602001828054611a0e90613d2a565b8015611a5b5780601f10611a3057610100808354040283529160200191611a5b565b820191906000526020600020905b815481529060010190602001808311611a3e57829003601f168201915b50505050508152505081526020019060010190611982565b50508251929350611a8991508290506001613d17565b67ffffffffffffffff811115611aa157611aa1612742565b604051908082528060200260200182016040528015611aee57816020015b60408051606080820183526000808352602083015291810191909152815260200190600190039081611abf5790505b50935060005b81811015611b3b57828181518110611b0e57611b0e6135e1565b6020026020010151858281518110611b2857611b286135e1565b6020908102919091010152600101611af4565b5082600081518110611b4f57611b4f6135e1565b6020026020010151848281518110611b6957611b696135e1565b6020908102919091010152611b82610160880188614968565b8080601f016020809104026020016040519081016040528093929190818152602001838380828437600092019190915250989a9299509597509095505050505050565b604080516001808252818301909252600091829190816020015b604080518082019091526000815260606020820152815260200190600190039081611bdf57505060408051600180825281830190925291925060009190602082015b6040805160e08101825260008082526020808301829052928201819052606082018190526080820181905260a0820181905260c082015282527fffffffffffffffffffffffffffffffffffffffffffffffffffffffffffffffff909201910181611c215790505090506040518060e00160405280600015158152602001600015158152602001633b9aca008152602001600081526020018b73ffffffffffffffffffffffffffffffffffffffff16815260200160008152602001600073ffffffffffffffffffffffffffffffffffffffff1681525081600181518110611d0957611d096135e1565b60200260200101819052506040518060400160405280600281526020018281525082600081518110611d3d57611d3d6135e1565b6020026020010181905250507f000000000000000000000000000000000000000000000000000000000000000073ffffffffffffffffffffffffffffffffffffffff16638b79543c6040518163ffffffff1660e01b8152600401602060405180830381865afa158015611db4573d6000803e3d6000fd5b505050506040513d601f19601f82011682018060405250810190611dd891906135c4565b73ffffffffffffffffffffffffffffffffffffffff1663666d87a0308a6040518363ffffffff1660e01b8152600401611e12929190613610565b6020604051808303816000875af1158015611e31573d6000803e3d6000fd5b505050506040513d601f19601f82011682018060405250810190611e55919061365e565b91507f000000000000000000000000000000000000000000000000000000000000000073ffffffffffffffffffffffffffffffffffffffff1663619306306040518163ffffffff1660e01b8152600401602060405180830381865afa158015611ec2573d6000803e3d6000fd5b505050506040513d601f19601f82011682018060405250810190611ee691906135c4565b73ffffffffffffffffffffffffffffffffffffffff1663a7f2a70b8389896040518463ffffffff1660e01b8152600401611f2293929190613677565b6020604051808303816000875af1158015611f41573d6000803e3d6000fd5b505050506040513d601f19601f82011682018060405250810190611f6591906135c4565b508273ffffffffffffffffffffffffffffffffffffffff16637b621d3a838760e001518673ffffffffffffffffffffffffffffffffffffffff166360b3042c6040518163ffffffff1660e01b8152600401602060405180830381865afa158015611fd3573d6000803e3d6000fd5b505050506040513d601f19601f82011682018060405250810190611ff7919061365e565b8773ffffffffffffffffffffffffffffffffffffffff1663737a79966040518163ffffffff1660e01b8152600401602060405180830381865afa158015612042573d6000803e3d6000fd5b505050506040513d601f19601f82011682018060405250810190612066919061365e565b6040517fffffffff0000000000000000000000000000000000000000000000000000000060e087901b168152600481019490945262ffffff909216602484015263ffffffff908116604484015216606482015261eeee608482015260a4016020604051808303816000875af11580156120e3573d6000803e3d6000fd5b505050506040513d601f19601f8201168201806040525081019061210791906135c4565b507f000000000000000000000000000000000000000000000000000000000000000073ffffffffffffffffffffffffffffffffffffffff1663111d861b8360405180608001604052808960600151815260200160128a6000015161216b91906137fb565b815260408a810151602080840191909152600092820183905281516102a081018352610240810184815261026082018590526102808201859052815260a0808e0151828401526080808f015183860152606083018690528201859052810184905260c0810184905260e081018490526001610100820181905261012082018590526101408201859052610160820185905261018082018590526101a082018590526101c08201526101e0810184905273ffffffffffffffffffffffffffffffffffffffff8b16610200820152610220810184905282518481529182019092529091908790826122cd565b6122ba6040518060c00160405280600073ffffffffffffffffffffffffffffffffffffffff168152602001600073ffffffffffffffffffffffffffffffffffffffff168152602001600081526020016000815260200160008152602001600081525090565b8152602001906001900390816122555790505b508b6040518863ffffffff1660e01b81526004016122f19796959493929190613aee565b6020604051808303816000875af1158015612310573d6000803e3d6000fd5b505050506040513d601f19601f82011682018060405250810190612334919061365e565b507f000000000000000000000000000000000000000000000000000000000000000073ffffffffffffffffffffffffffffffffffffffff16638ae9c07b836012886020015161238391906137fb565b8c8a6040516020016123959190613c0c565b6040516020818303038152906040526000806040518763ffffffff1660e01b81526004016123c896959493929190613c51565b6020604051808303816000875af11580156123e7573d6000803e3d6000fd5b505050506040513d601f19601f8201168201806040525081019061240b919061365e565b507f000000000000000000000000000000000000000000000000000000000000000073ffffffffffffffffffffffffffffffffffffffff16632bdfe0046040518163ffffffff1660e01b8152600401602060405180830381865afa158015612477573d6000803e3d6000fd5b505050506040513d601f19601f8201168201806040525081019061249b91906135c4565b73ffffffffffffffffffffffffffffffffffffffff1663ad007d636040518163ffffffff1660e01b8152600401602060405180830381865afa1580156124e5573d6000803e3d6000fd5b505050506040513d601f19601f8201168201806040525081019061250991906135c4565b73ffffffffffffffffffffffffffffffffffffffff1663529cdd2e60405180606001604052808c73ffffffffffffffffffffffffffffffffffffffff168152602001858152602001600080548060200260200160405190810160405280929190818152602001828054801561259d57602002820191906000526020600020905b815481526020019060010190808311612589575b50505050508152506040518263ffffffff1660e01b81526004016125c19190613ca6565b600060405180830381600087803b1580156125db57600080fd5b505af11580156125ef573d6000803e3d6000fd5b50505060c086015161260a915065ffffffffffff1642613d17565b60008381526001602052604090205550979650505050505050565b60006020828403121561263757600080fd5b81357fffffffff000000000000000000000000000000000000000000000000000000008116811461266757600080fd5b9392505050565b73ffffffffffffffffffffffffffffffffffffffff8116811461269057600080fd5b50565b803561269e8161266e565b919050565b6000806000806000608086880312156126bb57600080fd5b85356126c68161266e565b945060208601356126d68161266e565b935060408601359250606086013567ffffffffffffffff808211156126fa57600080fd5b818801915088601f83011261270e57600080fd5b81358181111561271d57600080fd5b89602082850101111561272f57600080fd5b9699959850939650602001949392505050565b7f4e487b7100000000000000000000000000000000000000000000000000000000600052604160045260246000fd5b6040516060810167ffffffffffffffff8111828210171561279457612794612742565b60405290565b6040516080810167ffffffffffffffff8111828210171561279457612794612742565b604051610160810167ffffffffffffffff8111828210171561279457612794612742565b604051610240810167ffffffffffffffff8111828210171561279457612794612742565b604051610120810167ffffffffffffffff8111828210171561279457612794612742565b604051601f82017fffffffffffffffffffffffffffffffffffffffffffffffffffffffffffffffe016810167ffffffffffffffff8111828210171561287057612870612742565b604052919050565b600067ffffffffffffffff82111561289257612892612742565b50601f017fffffffffffffffffffffffffffffffffffffffffffffffffffffffffffffffe01660200190565b60006128d16128cc84612878565b612829565b90508281528383830111156128e557600080fd5b828260208301376000602084830101529392505050565b600082601f83011261290d57600080fd5b612667838335602085016128be565b60006040828403121561292e57600080fd5b6040516040810167ffffffffffffffff828210818311171561295257612952612742565b81604052829350843591508082111561296a57600080fd5b50612977858286016128fc565b825250602083013560208201525092915050565b803565ffffffffffff8116811461269e57600080fd5b803562ffffff8116811461269e57600080fd5b60006101008083850312156129c857600080fd5b6040519081019067ffffffffffffffff821181831017156129eb576129eb612742565b81604052809250833581526020840135602082015260408401356040820152606084013560608201526080840135608082015260a084013560a0820152612a3460c0850161298b565b60c0820152612a4560e085016129a1565b60e0820152505092915050565b600067ffffffffffffffff821115612a6c57612a6c612742565b5060051b60200190565b600082601f830112612a8757600080fd5b81356020612a976128cc83612a52565b82815260059290921b84018101918181019086841115612ab657600080fd5b8286015b84811015612ada578035612acd8161266e565b8352918301918301612aba565b509695505050505050565b600082601f830112612af657600080fd5b81356020612b066128cc83612a52565b82815260059290921b84018101918181019086841115612b2557600080fd5b8286015b84811015612ada57803567ffffffffffffffff80821115612b4a5760008081fd5b81890191506060807fffffffffffffffffffffffffffffffffffffffffffffffffffffffffffffffe0848d03011215612b835760008081fd5b612b8b612771565b87840135612b988161266e565b815260408481013589830152918401359183831115612bb75760008081fd5b82850194508c603f860112612bce57600093508384fd5b612bde8d8a8701358388016128be565b908201528652505050918301918301612b29565b803560ff8116811461269e57600080fd5b60008060008060008060008060006102008a8c031215612c2257600080fd5b612c2b8a612693565b985060208a013567ffffffffffffffff80821115612c4857600080fd5b612c548d838e0161291c565b995060408c0135915080821115612c6a57600080fd5b612c768d838e016128fc565b985060608c0135915080821115612c8c57600080fd5b612c988d838e016128fc565b9750612ca78d60808e016129b4565b96506101808c0135915080821115612cbe57600080fd5b612cca8d838e01612a76565b9550612cd96101a08d01612693565b94506101c08c0135915080821115612cf057600080fd5b50612cfd8c828d01612ae5565b925050612d0d6101e08b01612bf2565b90509295985092959850929598565b600060208284031215612d2e57600080fd5b5035919050565b600060208284031215612d4757600080fd5b813567ffffffffffffffff811115612d5e57600080fd5b82016101e0818503121561266757600080fd5b60005b83811015612d8c578181015183820152602001612d74565b50506000910152565b60008151808452612dad816020860160208601612d71565b601f017fffffffffffffffffffffffffffffffffffffffffffffffffffffffffffffffe0169290920160200192915050565b6000606085835260208181850152612df982850187612d95565b6040858203818701528187518084528484019150848160051b850101858a0160005b83811015612e96578683037fffffffffffffffffffffffffffffffffffffffffffffffffffffffffffffffe00185528151805173ffffffffffffffffffffffffffffffffffffffff16845288810151898501528601518684018a9052612e838a850182612d95565b9589019593505090870190600101612e1b565b50909c9b505050505050505050505050565b60008060408385031215612ebb57600080fd5b50508035926020909101359150565b73ffffffffffffffffffffffffffffffffffffffff84168152826020820152606060408201526000612eff6060830184612d95565b95945050505050565b80356cffffffffffffffffffffffffff8116811461269e57600080fd5b803563ffffffff8116811461269e57600080fd5b803561ffff8116811461269e57600080fd5b801515811461269057600080fd5b803561269e81612f4b565b60006080808385031215612f7757600080fd5b612f7f61279a565b9150823567ffffffffffffffff811115612f9857600080fd5b8301601f81018513612fa957600080fd5b80356020612fb96128cc83612a52565b8281526101609283028401820192828201919089851115612fd957600080fd5b948301945b848610156130ba5780868b031215612ff65760008081fd5b612ffe6127bd565b61300787612f08565b8152613014858801612f25565b858201526040613025818901612f25565b908201526060613036888201612f39565b90820152613045878901612693565b8189015260a0878101359082015260c06130608189016129a1565b9082015260e0613071888201612f59565b90820152610100613083888201612f59565b90820152610120613095888201612f59565b908201526101406130a7888201612f59565b9082015283529485019491830191612fde565b508652506130c986820161298b565b81860152505050506130dd6040830161298b565b60408201526130ee60608301612693565b606082015292915050565b60006080828403121561310b57600080fd5b61311361279a565b9050813561312081612f4b565b8152602082013561313081612f4b565b6020820152604082013561314381612f4b565b604082015260608201356130ee81612f4b565b80356002811061269e57600080fd5b60006101c0828403121561317857600080fd5b6131806127bd565b9050813567ffffffffffffffff8082111561319a57600080fd5b6131a6858386016128fc565b835260208401359150808211156131bc57600080fd5b6131c8858386016128fc565b60208401526131d960408501612693565b604084015260608401359150808211156131f257600080fd5b6131fe858386016128fc565b606084015261320f60808501612693565b608084015260a084013591508082111561322857600080fd5b613234858386016128fc565b60a084015260c084013591508082111561324d57600080fd5b5061325a84828501612f64565b60c08301525061326c60e08301612693565b60e082015261010061327f818401612693565b90820152610120613292848483016130f9565b908201526132a36101a08301613156565b61014082015292915050565b6000806000806000806000806000806102208b8d0312156132cf57600080fd5b6132d88b612693565b995060208b013567ffffffffffffffff808211156132f557600080fd5b6133018e838f0161291c565b9a5060408d013591508082111561331757600080fd5b6133238e838f016128fc565b995060608d013591508082111561333957600080fd5b6133458e838f016128fc565b98506133548e60808f016129b4565b97506101808d013591508082111561336b57600080fd5b6133778e838f01612a76565b96506133866101a08e01612693565b95506101c08d013591508082111561339d57600080fd5b6133a98e838f01613165565b94506101e08d01359150808211156133c057600080fd5b506133cd8d828e01612ae5565b9250506133dd6102008c01612bf2565b90509295989b9194979a5092959850565b60006020828403121561340057600080fd5b813567ffffffffffffffff81111561341757600080fd5b82016101a0818503121561266757600080fd5b600060608583526020818185015261344482850187612d95565b6040858203818701528187518084528484019150848160051b850101858a0160005b83811015612e96578683037fffffffffffffffffffffffffffffffffffffffffffffffffffffffffffffffe00185528151805173ffffffffffffffffffffffffffffffffffffffff16845288810151898501528601518684018a90526134ce8a850182612d95565b9589019593505090870190600101613466565b60008060008060008060006101c0888a0312156134fd57600080fd5b61350688612693565b9650602088013567ffffffffffffffff8082111561352357600080fd5b61352f8b838c0161291c565b975060408a013591508082111561354557600080fd5b6135518b838c016128fc565b965060608a013591508082111561356757600080fd5b6135738b838c016128fc565b95506135828b60808c016129b4565b94506101808a013591508082111561359957600080fd5b506135a68a828b01612a76565b9250506135b66101a08901612693565b905092959891949750929550565b6000602082840312156135d657600080fd5b81516126678161266e565b7f4e487b7100000000000000000000000000000000000000000000000000000000600052603260045260246000fd5b73ffffffffffffffffffffffffffffffffffffffff8316815260406020820152600082516040808401526136476080840182612d95565b905060208401516060840152809150509392505050565b60006020828403121561367057600080fd5b5051919050565b8381526060602082015260006136906060830185612d95565b82810360408401526136a28185612d95565b9695505050505050565b7f4e487b7100000000000000000000000000000000000000000000000000000000600052601160045260246000fd5b600181815b8085111561373457817fffffffffffffffffffffffffffffffffffffffffffffffffffffffffffffffff0482111561371a5761371a6136ac565b8085161561372757918102915b93841c93908002906136e0565b509250929050565b60008261374b575060016103be565b81613758575060006103be565b816001811461376e576002811461377857613794565b60019150506103be565b60ff841115613789576137896136ac565b50506001821b6103be565b5060208310610133831016604e8410600b84101617156137b7575081810a6103be565b6137c183836136db565b807fffffffffffffffffffffffffffffffffffffffffffffffffffffffffffffffff048211156137f3576137f36136ac565b029392505050565b600061266760ff84168361373c565b61382f8282518051151582526020808201511515908301526040908101511515910152565b6020810151606083015260408101516080830152606081015160a0830152608081015161386060c084018215159052565b5060a081015180151560e08401525060c08101516101006138848185018315159052565b60e0830151915061012061389b8186018415159052565b908301519150610140906138b28583018415159052565b83015191506101606138c78582018415159052565b908301519150610180906138de8583018415159052565b83015191506101a06138f38582018415159052565b9083015191506101c09061390a8583018415159052565b83015191506101e061391f8582018415159052565b908301519150610200906139368583018415159052565b830151915061022061394b8582018415159052565b9083015173ffffffffffffffffffffffffffffffffffffffff16610240850152909101516102609092019190915250565b6000815180845260208085019450848260051b86018286016000805b86811015613a58578484038a52825180518552860151604087860181905281518187018190529188019160609081880190865b81811015613a415785518051151584528c81015115158d8501528581015186850152848101518585015260808082015173ffffffffffffffffffffffffffffffffffffffff9081169186019190915260a0808301519086015260c0918201511690840152948b019460e0909201916001016139cb565b50509c89019c965050509286019250600101613998565b509198975050505050505050565b600081518084526020808501945080840160005b83811015613ae3578151805173ffffffffffffffffffffffffffffffffffffffff908116895284820151168489015260408082015190890152606080820151908901526080808201519089015260a0908101519088015260c09096019590820190600101613a7a565b509495945050505050565b60006103c08983526020613b3b8185018b80518252602081015160208301526040810151604083015273ffffffffffffffffffffffffffffffffffffffff60608201511660608301525050565b613b4860a085018a61380a565b8761032085015281610340850152613b628285018861397c565b9150838203610360850152613b778287613a66565b848103610380860152855180825282870193509082019060005b81811015613bc357845173ffffffffffffffffffffffffffffffffffffffff1683529383019391830191600101613b91565b50508481036103a0860152601b81527f4465706c6f7965642052657461696c69737420747265617375727900000000006020820152604081019c9b505050505050505050505050565b7f5072656d696e7465642024000000000000000000000000000000000000000000815260008251613c4481600b850160208701612d71565b91909101600b0192915050565b86815285602082015273ffffffffffffffffffffffffffffffffffffffff8516604082015260c060608201526000613c8c60c0830186612d95565b93151560808301525090151560a090910152949350505050565b600060208083526080830173ffffffffffffffffffffffffffffffffffffffff85511682850152818501516040850152604085015160608086015281815180845260a0870191508483019350600092505b80831015612ada5783518252928401926001929092019190840190613cf7565b808201808211156103be576103be6136ac565b600181811c90821680613d3e57607f821691505b602082108103613d77577f4e487b7100000000000000000000000000000000000000000000000000000000600052602260045260246000fd5b50919050565b601f821115613dc757600081815260208120601f850160051c81016020861015613da45750805b601f850160051c820191505b81811015613dc357828155600101613db0565b5050505b505050565b815167ffffffffffffffff811115613de657613de6612742565b613dfa81613df48454613d2a565b84613d7d565b602080601f831160018114613e4d5760008415613e175750858301515b7fffffffffffffffffffffffffffffffffffffffffffffffffffffffffffffffff600386901b1c1916600185901b178555613dc3565b6000858152602081207fffffffffffffffffffffffffffffffffffffffffffffffffffffffffffffffe08616915b82811015613e9a57888601518255948401946001909101908401613e7b565b5085821015613ed657878501517fffffffffffffffffffffffffffffffffffffffffffffffffffffffffffffffff600388901b60f8161c191681555b5050505050600190811b01905550565b805161269e8161266e565b805161269e81612f4b565b600060608284031215613f0e57600080fd5b613f16612771565b90508151613f2381612f4b565b81526020820151613f3381612f4b565b60208201526040820151613f4681612f4b565b604082015292915050565b60006102808284031215613f6457600080fd5b613f6c6127e1565b9050613f788383613efc565b8152606082015160208201526080820151604082015260a08201516060820152613fa460c08301613ef1565b6080820152613fb560e08301613ef1565b60a0820152610100613fc8818401613ef1565b60c0830152610120613fdb818501613ef1565b60e0840152610140613fee818601613ef1565b838501526101609250614002838601613ef1565b828501526101809150614016828601613ef1565b908401526101a0614028858201613ef1565b838501526101c0925061403c838601613ef1565b828501526101e09150614050828601613ef1565b90840152610200614062858201613ef1565b838501526102209250614076838601613ef1565b828501526140876102408601613ee6565b818501525050610260830151818301525092915050565b80516003811061269e57600080fd5b60008060008385036103c08112156140c457600080fd5b610120808212156140d457600080fd5b6140dc612805565b9150855182526020860151602083015260408601516040830152606086015160608301526080860151608083015260a086015160a083015260c086015160c083015261412a60e08701613ee6565b60e083015261010080870151818401525081945061414a87828801613f51565b9350505061415b6103a0850161409e565b90509250925092565b60006103a08883526141b0602084018980518252602081015160208301526040810151604083015273ffffffffffffffffffffffffffffffffffffffff60608201511660608301525050565b6141bd60a084018861380a565b85610320840152806103408401526141d78184018661397c565b90508281036103608401526141ec8185613a66565b838103610380909401939093525050602c81527f5363686564756c656420626f6f737420657870697279206f662052657461696c60208201527f697374207472656173757279000000000000000000000000000000000000000060408201526060019695505050505050565b80516080808452815184820181905260009260a0916020918201918388019190865b8281101561433d57845180516cffffffffffffffffffffffffff1685528281015163ffffffff908116848701526040808301519091169086015260608082015161ffff16908601528781015173ffffffffffffffffffffffffffffffffffffffff1688860152868101518786015260c08082015162ffffff169086015260e080820151151590860152610100808201511515908601526101208082015115159086015261014090810151151590850152938101936101609093019260010161427a565b508781015165ffffffffffff81168a830152955050506040860151935061436e604088018565ffffffffffff169052565b606086015193506136a2606088018573ffffffffffffffffffffffffffffffffffffffff169052565b600281106143ce577f4e487b7100000000000000000000000000000000000000000000000000000000600052602160045260246000fd5b9052565b82815260406020820152600082516101c060408401526143f6610200840182612d95565b905060208401517fffffffffffffffffffffffffffffffffffffffffffffffffffffffffffffffc0808584030160608601526144328383612d95565b92506040860151915061445d608086018373ffffffffffffffffffffffffffffffffffffffff169052565b60608601519150808584030160a08601526144788383612d95565b9250608086015191506144a360c086018373ffffffffffffffffffffffffffffffffffffffff169052565b60a08601519150808584030160e08601526144be8383612d95565b925060c086015191506101008186850301818701526144dd8484614258565b935060e08701519250610120915061450c8287018473ffffffffffffffffffffffffffffffffffffffff169052565b86015191506101406145358682018473ffffffffffffffffffffffffffffffffffffffff169052565b908601518051151561016087015260208101511515610180870152604081015115156101a08701526060015115156101c0860152850151905061457c6101e0850182614397565b50949350505050565b80356145908161266e565b73ffffffffffffffffffffffffffffffffffffffff1682526020818101359083015260408082013590830152606090810135910152565b60008083357fffffffffffffffffffffffffffffffffffffffffffffffffffffffffffffffe18436030181126145fc57600080fd5b830160208101925035905067ffffffffffffffff81111561461c57600080fd5b80360382131561462b57600080fd5b9250929050565b8183528181602085013750600060208284010152600060207fffffffffffffffffffffffffffffffffffffffffffffffffffffffffffffffe0601f840116840101905092915050565b602081526146a96020820161468f84612693565b73ffffffffffffffffffffffffffffffffffffffff169052565b60006146b760208401612693565b73ffffffffffffffffffffffffffffffffffffffff81166040840152506146e46060830160408501614585565b60c083013560e083015261010060e084013581840152614705818501612693565b905061012061472b8185018373ffffffffffffffffffffffffffffffffffffffff169052565b61014091508085013582850152506101608185013581850152614750818601866145c7565b925090506101a0610180818187015261476e6101c087018585614632565b935061477c818801886145c7565b935090507fffffffffffffffffffffffffffffffffffffffffffffffffffffffffffffffe086850301828701526147b4848483614632565b979650505050505050565b60006147cd6128cc84612878565b90508281528383830111156147e157600080fd5b612667836020830184612d71565b60008060006060848603121561480457600080fd5b8351925060208085015167ffffffffffffffff8082111561482457600080fd5b818701915087601f83011261483857600080fd5b6148468883518585016147bf565b9450604087015191508082111561485c57600080fd5b818701915087601f83011261487057600080fd5b815161487e6128cc82612a52565b81815260059190911b8301840190848101908a83111561489d57600080fd5b8585015b83811015614957578051858111156148b857600080fd5b86016060818e037fffffffffffffffffffffffffffffffffffffffffffffffffffffffffffffffe00112156148ec57600080fd5b6148f4612771565b888201516149018161266e565b815260408201518982015260608201518781111561491e57600080fd5b8083019250508d603f83011261493357600080fd5b6149448e8a840151604085016147bf565b60408201528452509186019186016148a1565b508096505050505050509250925092565b60008083357fffffffffffffffffffffffffffffffffffffffffffffffffffffffffffffffe184360301811261499d57600080fd5b83018035915067ffffffffffffffff8211156149b857600080fd5b60200191503681900382131561462b57600080fdfea26469706673582212200b5f5546009d20982844c5938c3273d73cdafd8bbdae37066bf34489491f38d764736f6c63430008150033",
    "linkReferences": {}
  },
  "methodIdentifiers": {
    "buybackDelegateDataSourceOf(uint256)": "ef8eadd5",
    "controller()": "f77c4791",
    "delegateAllocationsOf(uint256,uint256)": "abc603e3",
    "delegateDeployer()": "8f3d964b",
    "deployBasicProjectFor(address,(string,uint256),string,string,(uint256,uint256,uint256,uint256,uint256,uint256,uint48,uint24),address[],address)": "d87b09e3",
    "deployPayAllocatorProjectFor(address,(string,uint256),string,string,(uint256,uint256,uint256,uint256,uint256,uint256,uint48,uint24),address[],address,(address,uint256,bytes)[],uint8)": "1f84209a",
    "deployTiered721PayAllocatorProjectFor(address,(string,uint256),string,string,(uint256,uint256,uint256,uint256,uint256,uint256,uint48,uint24),address[],address,(string,string,address,string,address,string,((uint104,uint32,uint32,uint16,address,bytes32,uint24,bool,bool,bool,bool)[],uint48,uint48,address),address,address,(bool,bool,bool,bool),uint8),(address,uint256,bytes)[],uint8)": "cc28d77f",
    "directory()": "c41c2f24",
    "onERC721Received(address,address,uint256,bytes)": "150b7a02",
    "payParams((address,address,(address,uint256,uint256,uint256),uint256,uint256,address,uint256,uint256,string,bytes))": "d46cf171",
    "permissionIndexes(uint256)": "9483e771",
    "reconfigurationStartTimestampOf(uint256)": "560f7b03",
    "redeemParams((address,address,uint256,uint256,uint256,uint256,uint256,(address,uint256,uint256,uint256),bool,uint256,string,bytes))": "a51cfd18",
    "scheduleReconfigurationOf(uint256)": "3ce6d3e2",
    "supportsInterface(bytes4)": "01ffc9a7"
  },
  "id": 105
}