{
  "abi": [
    {
      "inputs": [
        {
          "internalType": "contract IJBDirectory",
          "name": "_directory",
          "type": "address"
        },
        {
          "internalType": "contract IJBTiered721DelegateDeployer",
          "name": "_delegateDeployer",
          "type": "address"
        },
        {
          "internalType": "contract IJBController3_1",
          "name": "_controller",
          "type": "address"
        }
      ],
      "stateMutability": "nonpayable",
      "type": "constructor"
    },
    {
      "inputs": [],
      "name": "RECONFIGURATION_ALREADY_SCHEDULED",
      "type": "error"
    },
    {
      "inputs": [
        {
          "internalType": "uint256",
          "name": "",
          "type": "uint256"
        }
      ],
      "name": "buybackDelegateDataSourceOf",
      "outputs": [
        {
          "internalType": "contract IJBGenericBuybackDelegate",
          "name": "",
          "type": "address"
        }
      ],
      "stateMutability": "view",
      "type": "function"
    },
    {
      "inputs": [],
      "name": "controller",
      "outputs": [
        {
          "internalType": "contract IJBController3_1",
          "name": "",
          "type": "address"
        }
      ],
      "stateMutability": "view",
      "type": "function"
    },
    {
      "inputs": [
        {
          "internalType": "uint256",
          "name": "",
          "type": "uint256"
        },
        {
          "internalType": "uint256",
          "name": "",
          "type": "uint256"
        }
      ],
      "name": "delegateAllocationsOf",
      "outputs": [
        {
          "internalType": "contract IJBPayDelegate3_1_1",
          "name": "delegate",
          "type": "address"
        },
        {
          "internalType": "uint256",
          "name": "amount",
          "type": "uint256"
        },
        {
          "internalType": "bytes",
          "name": "metadata",
          "type": "bytes"
        }
      ],
      "stateMutability": "view",
      "type": "function"
    },
    {
      "inputs": [],
      "name": "delegateDeployer",
      "outputs": [
        {
          "internalType": "contract IJBTiered721DelegateDeployer",
          "name": "",
          "type": "address"
        }
      ],
      "stateMutability": "view",
      "type": "function"
    },
    {
      "inputs": [
        {
          "internalType": "address",
          "name": "_operator",
          "type": "address"
        },
        {
          "components": [
            {
              "internalType": "string",
              "name": "content",
              "type": "string"
            },
            {
              "internalType": "uint256",
              "name": "domain",
              "type": "uint256"
            }
          ],
          "internalType": "struct JBProjectMetadata",
          "name": "_projectMetadata",
          "type": "tuple"
        },
        {
          "internalType": "string",
          "name": "_name",
          "type": "string"
        },
        {
          "internalType": "string",
          "name": "_symbol",
          "type": "string"
        },
        {
          "components": [
            {
              "internalType": "uint256",
              "name": "initialIssuanceRate",
              "type": "uint256"
            },
            {
              "internalType": "uint256",
              "name": "premintTokenAmount",
              "type": "uint256"
            },
            {
              "internalType": "uint256",
              "name": "issuanceReductionRate",
              "type": "uint256"
            },
            {
              "internalType": "uint256",
              "name": "generationDuration",
              "type": "uint256"
            },
            {
              "internalType": "uint256",
              "name": "exitTaxRate",
              "type": "uint256"
            },
            {
              "internalType": "uint256",
              "name": "devTaxRate",
              "type": "uint256"
            },
            {
              "internalType": "uint48",
              "name": "devTaxDuration",
              "type": "uint48"
            },
            {
              "internalType": "uint24",
              "name": "poolFee",
              "type": "uint24"
            }
          ],
          "internalType": "struct BasicRetailistJBParams",
          "name": "_data",
          "type": "tuple"
        },
        {
          "internalType": "contract IJBPaymentTerminal[]",
          "name": "_terminals",
          "type": "address[]"
        },
        {
          "internalType": "contract IJBGenericBuybackDelegate",
          "name": "_buybackDelegate",
          "type": "address"
        }
      ],
      "name": "deployBasicProjectFor",
      "outputs": [
        {
          "internalType": "uint256",
          "name": "projectId",
          "type": "uint256"
        }
      ],
      "stateMutability": "nonpayable",
      "type": "function"
    },
    {
      "inputs": [
        {
          "internalType": "address",
          "name": "_operator",
          "type": "address"
        },
        {
          "components": [
            {
              "internalType": "string",
              "name": "content",
              "type": "string"
            },
            {
              "internalType": "uint256",
              "name": "domain",
              "type": "uint256"
            }
          ],
          "internalType": "struct JBProjectMetadata",
          "name": "_projectMetadata",
          "type": "tuple"
        },
        {
          "internalType": "string",
          "name": "_name",
          "type": "string"
        },
        {
          "internalType": "string",
          "name": "_symbol",
          "type": "string"
        },
        {
          "components": [
            {
              "internalType": "uint256",
              "name": "initialIssuanceRate",
              "type": "uint256"
            },
            {
              "internalType": "uint256",
              "name": "premintTokenAmount",
              "type": "uint256"
            },
            {
              "internalType": "uint256",
              "name": "issuanceReductionRate",
              "type": "uint256"
            },
            {
              "internalType": "uint256",
              "name": "generationDuration",
              "type": "uint256"
            },
            {
              "internalType": "uint256",
              "name": "exitTaxRate",
              "type": "uint256"
            },
            {
              "internalType": "uint256",
              "name": "devTaxRate",
              "type": "uint256"
            },
            {
              "internalType": "uint48",
              "name": "devTaxDuration",
              "type": "uint48"
            },
            {
              "internalType": "uint24",
              "name": "poolFee",
              "type": "uint24"
            }
          ],
          "internalType": "struct BasicRetailistJBParams",
          "name": "_data",
          "type": "tuple"
        },
        {
          "internalType": "contract IJBPaymentTerminal[]",
          "name": "_terminals",
          "type": "address[]"
        },
        {
          "internalType": "contract IJBGenericBuybackDelegate",
          "name": "_buybackDelegate",
          "type": "address"
        },
        {
          "components": [
            {
              "internalType": "contract IJBPayDelegate3_1_1",
              "name": "delegate",
              "type": "address"
            },
            {
              "internalType": "uint256",
              "name": "amount",
              "type": "uint256"
            },
            {
              "internalType": "bytes",
              "name": "metadata",
              "type": "bytes"
            }
          ],
          "internalType": "struct JBPayDelegateAllocation3_1_1[]",
          "name": "_delegateAllocations",
          "type": "tuple[]"
        },
        {
          "internalType": "uint8",
          "name": "_extraFundingCycleMetadata",
          "type": "uint8"
        }
      ],
      "name": "deployPayAllocatorProjectFor",
      "outputs": [
        {
          "internalType": "uint256",
          "name": "projectId",
          "type": "uint256"
        }
      ],
      "stateMutability": "nonpayable",
      "type": "function"
    },
    {
      "inputs": [
        {
          "internalType": "address",
          "name": "_operator",
          "type": "address"
        },
        {
          "components": [
            {
              "internalType": "string",
              "name": "content",
              "type": "string"
            },
            {
              "internalType": "uint256",
              "name": "domain",
              "type": "uint256"
            }
          ],
          "internalType": "struct JBProjectMetadata",
          "name": "_projectMetadata",
          "type": "tuple"
        },
        {
          "internalType": "string",
          "name": "_name",
          "type": "string"
        },
        {
          "internalType": "string",
          "name": "_symbol",
          "type": "string"
        },
        {
          "components": [
            {
              "internalType": "uint256",
              "name": "initialIssuanceRate",
              "type": "uint256"
            },
            {
              "internalType": "uint256",
              "name": "premintTokenAmount",
              "type": "uint256"
            },
            {
              "internalType": "uint256",
              "name": "issuanceReductionRate",
              "type": "uint256"
            },
            {
              "internalType": "uint256",
              "name": "generationDuration",
              "type": "uint256"
            },
            {
              "internalType": "uint256",
              "name": "exitTaxRate",
              "type": "uint256"
            },
            {
              "internalType": "uint256",
              "name": "devTaxRate",
              "type": "uint256"
            },
            {
              "internalType": "uint48",
              "name": "devTaxDuration",
              "type": "uint48"
            },
            {
              "internalType": "uint24",
              "name": "poolFee",
              "type": "uint24"
            }
          ],
          "internalType": "struct BasicRetailistJBParams",
          "name": "_data",
          "type": "tuple"
        },
        {
          "internalType": "contract IJBPaymentTerminal[]",
          "name": "_terminals",
          "type": "address[]"
        },
        {
          "internalType": "contract IJBGenericBuybackDelegate",
          "name": "_buybackDelegate",
          "type": "address"
        },
        {
          "components": [
            {
              "internalType": "string",
              "name": "name",
              "type": "string"
            },
            {
              "internalType": "string",
              "name": "symbol",
              "type": "string"
            },
            {
              "internalType": "contract IJBFundingCycleStore",
              "name": "fundingCycleStore",
              "type": "address"
            },
            {
              "internalType": "string",
              "name": "baseUri",
              "type": "string"
            },
            {
              "internalType": "contract IJB721TokenUriResolver",
              "name": "tokenUriResolver",
              "type": "address"
            },
            {
              "internalType": "string",
              "name": "contractUri",
              "type": "string"
            },
            {
              "components": [
                {
                  "components": [
                    {
                      "internalType": "uint104",
                      "name": "price",
                      "type": "uint104"
                    },
                    {
                      "internalType": "uint32",
                      "name": "initialQuantity",
                      "type": "uint32"
                    },
                    {
                      "internalType": "uint32",
                      "name": "votingUnits",
                      "type": "uint32"
                    },
                    {
                      "internalType": "uint16",
                      "name": "reservedRate",
                      "type": "uint16"
                    },
                    {
                      "internalType": "address",
                      "name": "reservedTokenBeneficiary",
                      "type": "address"
                    },
                    {
                      "internalType": "bytes32",
                      "name": "encodedIPFSUri",
                      "type": "bytes32"
                    },
                    {
                      "internalType": "uint24",
                      "name": "category",
                      "type": "uint24"
                    },
                    {
                      "internalType": "bool",
                      "name": "allowManualMint",
                      "type": "bool"
                    },
                    {
                      "internalType": "bool",
                      "name": "shouldUseReservedTokenBeneficiaryAsDefault",
                      "type": "bool"
                    },
                    {
                      "internalType": "bool",
                      "name": "transfersPausable",
                      "type": "bool"
                    },
                    {
                      "internalType": "bool",
                      "name": "useVotingUnits",
                      "type": "bool"
                    }
                  ],
                  "internalType": "struct JB721TierParams[]",
                  "name": "tiers",
                  "type": "tuple[]"
                },
                {
                  "internalType": "uint48",
                  "name": "currency",
                  "type": "uint48"
                },
                {
                  "internalType": "uint48",
                  "name": "decimals",
                  "type": "uint48"
                },
                {
                  "internalType": "contract IJBPrices",
                  "name": "prices",
                  "type": "address"
                }
              ],
              "internalType": "struct JB721PricingParams",
              "name": "pricing",
              "type": "tuple"
            },
            {
              "internalType": "address",
              "name": "reservedTokenBeneficiary",
              "type": "address"
            },
            {
              "internalType": "contract IJBTiered721DelegateStore",
              "name": "store",
              "type": "address"
            },
            {
              "components": [
                {
                  "internalType": "bool",
                  "name": "lockReservedTokenChanges",
                  "type": "bool"
                },
                {
                  "internalType": "bool",
                  "name": "lockVotingUnitChanges",
                  "type": "bool"
                },
                {
                  "internalType": "bool",
                  "name": "lockManualMintingChanges",
                  "type": "bool"
                },
                {
                  "internalType": "bool",
                  "name": "preventOverspending",
                  "type": "bool"
                }
              ],
              "internalType": "struct JBTiered721Flags",
              "name": "flags",
              "type": "tuple"
            },
            {
              "internalType": "enum JB721GovernanceType",
              "name": "governanceType",
              "type": "uint8"
            }
          ],
          "internalType": "struct JBDeployTiered721DelegateData",
          "name": "_deployTiered721DelegateData",
          "type": "tuple"
        },
        {
          "components": [
            {
              "internalType": "contract IJBPayDelegate3_1_1",
              "name": "delegate",
              "type": "address"
            },
            {
              "internalType": "uint256",
              "name": "amount",
              "type": "uint256"
            },
            {
              "internalType": "bytes",
              "name": "metadata",
              "type": "bytes"
            }
          ],
          "internalType": "struct JBPayDelegateAllocation3_1_1[]",
          "name": "_otherDelegateAllocations",
          "type": "tuple[]"
        },
        {
          "internalType": "uint8",
          "name": "_extraFundingCycleMetadata",
          "type": "uint8"
        }
      ],
      "name": "deployTiered721PayAllocatorProjectFor",
      "outputs": [
        {
          "internalType": "uint256",
          "name": "projectId",
          "type": "uint256"
        }
      ],
      "stateMutability": "nonpayable",
      "type": "function"
    },
    {
      "inputs": [],
      "name": "directory",
      "outputs": [
        {
          "internalType": "contract IJBDirectory",
          "name": "",
          "type": "address"
        }
      ],
      "stateMutability": "view",
      "type": "function"
    },
    {
      "inputs": [
        {
          "internalType": "address",
          "name": "_operator",
          "type": "address"
        },
        {
          "internalType": "address",
          "name": "_from",
          "type": "address"
        },
        {
          "internalType": "uint256",
          "name": "_tokenId",
          "type": "uint256"
        },
        {
          "internalType": "bytes",
          "name": "_data",
          "type": "bytes"
        }
      ],
      "name": "onERC721Received",
      "outputs": [
        {
          "internalType": "bytes4",
          "name": "",
          "type": "bytes4"
        }
      ],
      "stateMutability": "view",
      "type": "function"
    },
    {
      "inputs": [
        {
          "components": [
            {
              "internalType": "contract IJBPaymentTerminal",
              "name": "terminal",
              "type": "address"
            },
            {
              "internalType": "address",
              "name": "payer",
              "type": "address"
            },
            {
              "components": [
                {
                  "internalType": "address",
                  "name": "token",
                  "type": "address"
                },
                {
                  "internalType": "uint256",
                  "name": "value",
                  "type": "uint256"
                },
                {
                  "internalType": "uint256",
                  "name": "decimals",
                  "type": "uint256"
                },
                {
                  "internalType": "uint256",
                  "name": "currency",
                  "type": "uint256"
                }
              ],
              "internalType": "struct JBTokenAmount",
              "name": "amount",
              "type": "tuple"
            },
            {
              "internalType": "uint256",
              "name": "projectId",
              "type": "uint256"
            },
            {
              "internalType": "uint256",
              "name": "currentFundingCycleConfiguration",
              "type": "uint256"
            },
            {
              "internalType": "address",
              "name": "beneficiary",
              "type": "address"
            },
            {
              "internalType": "uint256",
              "name": "weight",
              "type": "uint256"
            },
            {
              "internalType": "uint256",
              "name": "reservedRate",
              "type": "uint256"
            },
            {
              "internalType": "string",
              "name": "memo",
              "type": "string"
            },
            {
              "internalType": "bytes",
              "name": "metadata",
              "type": "bytes"
            }
          ],
          "internalType": "struct JBPayParamsData",
          "name": "_data",
          "type": "tuple"
        }
      ],
      "name": "payParams",
      "outputs": [
        {
          "internalType": "uint256",
          "name": "weight",
          "type": "uint256"
        },
        {
          "internalType": "string",
          "name": "memo",
          "type": "string"
        },
        {
          "components": [
            {
              "internalType": "contract IJBPayDelegate3_1_1",
              "name": "delegate",
              "type": "address"
            },
            {
              "internalType": "uint256",
              "name": "amount",
              "type": "uint256"
            },
            {
              "internalType": "bytes",
              "name": "metadata",
              "type": "bytes"
            }
          ],
          "internalType": "struct JBPayDelegateAllocation3_1_1[]",
          "name": "delegateAllocations",
          "type": "tuple[]"
        }
      ],
      "stateMutability": "view",
      "type": "function"
    },
    {
      "inputs": [
        {
          "internalType": "uint256",
          "name": "",
          "type": "uint256"
        }
      ],
      "name": "permissionIndexes",
      "outputs": [
        {
          "internalType": "uint256",
          "name": "",
          "type": "uint256"
        }
      ],
      "stateMutability": "view",
      "type": "function"
    },
    {
      "inputs": [
        {
          "internalType": "uint256",
          "name": "projectId",
          "type": "uint256"
        }
      ],
      "name": "reconfigurationStartTimestampOf",
      "outputs": [
        {
          "internalType": "uint256",
          "name": "",
          "type": "uint256"
        }
      ],
      "stateMutability": "view",
      "type": "function"
    },
    {
      "inputs": [
        {
          "components": [
            {
              "internalType": "contract IJBPaymentTerminal",
              "name": "terminal",
              "type": "address"
            },
            {
              "internalType": "address",
              "name": "holder",
              "type": "address"
            },
            {
              "internalType": "uint256",
              "name": "projectId",
              "type": "uint256"
            },
            {
              "internalType": "uint256",
              "name": "currentFundingCycleConfiguration",
              "type": "uint256"
            },
            {
              "internalType": "uint256",
              "name": "tokenCount",
              "type": "uint256"
            },
            {
              "internalType": "uint256",
              "name": "totalSupply",
              "type": "uint256"
            },
            {
              "internalType": "uint256",
              "name": "overflow",
              "type": "uint256"
            },
            {
              "components": [
                {
                  "internalType": "address",
                  "name": "token",
                  "type": "address"
                },
                {
                  "internalType": "uint256",
                  "name": "value",
                  "type": "uint256"
                },
                {
                  "internalType": "uint256",
                  "name": "decimals",
                  "type": "uint256"
                },
                {
                  "internalType": "uint256",
                  "name": "currency",
                  "type": "uint256"
                }
              ],
              "internalType": "struct JBTokenAmount",
              "name": "reclaimAmount",
              "type": "tuple"
            },
            {
              "internalType": "bool",
              "name": "useTotalOverflow",
              "type": "bool"
            },
            {
              "internalType": "uint256",
              "name": "redemptionRate",
              "type": "uint256"
            },
            {
              "internalType": "string",
              "name": "memo",
              "type": "string"
            },
            {
              "internalType": "bytes",
              "name": "metadata",
              "type": "bytes"
            }
          ],
          "internalType": "struct JBRedeemParamsData",
          "name": "_data",
          "type": "tuple"
        }
      ],
      "name": "redeemParams",
      "outputs": [
        {
          "internalType": "uint256",
          "name": "",
          "type": "uint256"
        },
        {
          "internalType": "string",
          "name": "",
          "type": "string"
        },
        {
          "components": [
            {
              "internalType": "contract IJBRedemptionDelegate3_1_1",
              "name": "delegate",
              "type": "address"
            },
            {
              "internalType": "uint256",
              "name": "amount",
              "type": "uint256"
            },
            {
              "internalType": "bytes",
              "name": "metadata",
              "type": "bytes"
            }
          ],
          "internalType": "struct JBRedemptionDelegateAllocation3_1_1[]",
          "name": "",
          "type": "tuple[]"
        }
      ],
      "stateMutability": "view",
      "type": "function"
    },
    {
      "inputs": [
        {
          "internalType": "uint256",
          "name": "_projectId",
          "type": "uint256"
        }
      ],
      "name": "scheduleReconfigurationOf",
      "outputs": [],
      "stateMutability": "nonpayable",
      "type": "function"
    },
    {
      "inputs": [
        {
          "internalType": "bytes4",
          "name": "_interfaceId",
          "type": "bytes4"
        }
      ],
      "name": "supportsInterface",
      "outputs": [
        {
          "internalType": "bool",
          "name": "",
          "type": "bool"
        }
      ],
      "stateMutability": "view",
      "type": "function"
    }
  ],
  "bytecode": {
    "object": "0x60e06040523480156200001157600080fd5b5060405162004b6e38038062004b6e8339810160408190526200003491620000ad565b6001600160a01b03908116608052600080546001818101835582805260127f290decd9548b62a8d60345a988386fc84ba6bc95484008f6362f93160ef3e563928301558254908101909255601891015591821660a0521660c05262000101565b6001600160a01b0381168114620000aa57600080fd5b50565b600080600060608486031215620000c357600080fd5b8351620000d08162000094565b6020850151909350620000e38162000094565b6040850151909250620000f68162000094565b809150509250925092565b60805160a05160c0516149d46200019a600039600081816101c10152611727015260008181610264015261151c015260008181610309015281816103c80152818161065d0152818161076b01528181610a1c01528181610c9f01528181610d76015281816110a40152818161125701528181611cf301528181611e01015281816120b2015281816122f201526123c901526149d46000f3fe608060405234801561001057600080fd5b50600436106100f55760003560e01c8063a51cfd1811610097578063d46cf17111610066578063d46cf17114610299578063d87b09e3146102bb578063ef8eadd5146102ce578063f77c47911461030457600080fd5b8063a51cfd181461021b578063abc603e31461023d578063c41c2f241461025f578063cc28d77f1461028657600080fd5b80633ce6d3e2116100d35780633ce6d3e214610187578063560f7b031461019c5780638f3d964b146101bc5780639483e7711461020857600080fd5b806301ffc9a7146100fa578063150b7a02146101225780631f84209a14610166575b600080fd5b61010d6101083660046125e0565b61032b565b60405190151581526020015b60405180910390f35b61013561013036600461265e565b6103c4565b6040517fffffffff000000000000000000000000000000000000000000000000000000009091168152602001610119565b610179610174366004612bbe565b6104d8565b604051908152602001610119565b61019a610195366004612cd7565b61105b565b005b6101796101aa366004612cd7565b60016020526000908152604090205481565b6101e37f000000000000000000000000000000000000000000000000000000000000000081565b60405173ffffffffffffffffffffffffffffffffffffffff9091168152602001610119565b610179610216366004612cd7565b6113ac565b61022e610229366004612cf0565b6113cd565b60405161011993929190612d9a565b61025061024b366004612e63565b611435565b60405161011993929190612e85565b6101e37f000000000000000000000000000000000000000000000000000000000000000081565b61017961029436600461326a565b611518565b6102ac6102a73660046133a9565b611824565b604051610119939291906133e5565b6101796102c936600461349c565b611b6d565b6101e36102dc366004612cd7565b60026020526000908152604090205473ffffffffffffffffffffffffffffffffffffffff1681565b6101e37f000000000000000000000000000000000000000000000000000000000000000081565b60007fffffffff0000000000000000000000000000000000000000000000000000000082167f71700c690000000000000000000000000000000000000000000000000000000014806103be57507f150b7a02000000000000000000000000000000000000000000000000000000007fffffffff000000000000000000000000000000000000000000000000000000008316145b92915050565b60007f000000000000000000000000000000000000000000000000000000000000000073ffffffffffffffffffffffffffffffffffffffff16638b79543c6040518163ffffffff1660e01b8152600401602060405180830381865afa158015610431573d6000803e3d6000fd5b505050506040513d601f19601f82011682018060405250810190610455919061357f565b73ffffffffffffffffffffffffffffffffffffffff163373ffffffffffffffffffffffffffffffffffffffff161461048c57600080fd5b73ffffffffffffffffffffffffffffffffffffffff8516156104ad57600080fd5b507f150b7a020000000000000000000000000000000000000000000000000000000095945050505050565b604080516001808252818301909252600091829190816020015b6040805180820190915260008152606060208201528152602001906001900390816104f257505060408051600180825281830190925291925060009190602082015b6040805160e08101825260008082526020808301829052928201819052606082018190526080820181905260a0820181905260c082015282527fffffffffffffffffffffffffffffffffffffffffffffffffffffffffffffffff9092019101816105345790505090506040518060e00160405280600015158152602001600015158152602001633b9aca008152602001600081526020018d73ffffffffffffffffffffffffffffffffffffffff16815260200160008152602001600073ffffffffffffffffffffffffffffffffffffffff168152508160018151811061061c5761061c61359c565b602002602001018190525060405180604001604052806002815260200182815250826000815181106106505761065061359c565b60200260200101819052507f000000000000000000000000000000000000000000000000000000000000000073ffffffffffffffffffffffffffffffffffffffff16638b79543c6040518163ffffffff1660e01b8152600401602060405180830381865afa1580156106c6573d6000803e3d6000fd5b505050506040513d601f19601f820116820180604052508101906106ea919061357f565b73ffffffffffffffffffffffffffffffffffffffff1663666d87a0308d6040518363ffffffff1660e01b81526004016107249291906135cb565b6020604051808303816000875af1158015610743573d6000803e3d6000fd5b505050506040513d601f19601f820116820180604052508101906107679190613619565b92507f000000000000000000000000000000000000000000000000000000000000000073ffffffffffffffffffffffffffffffffffffffff1663619306306040518163ffffffff1660e01b8152600401602060405180830381865afa1580156107d4573d6000803e3d6000fd5b505050506040513d601f19601f820116820180604052508101906107f8919061357f565b73ffffffffffffffffffffffffffffffffffffffff1663a7f2a70b848c8c6040518463ffffffff1660e01b815260040161083493929190613632565b6020604051808303816000875af1158015610853573d6000803e3d6000fd5b505050506040513d601f19601f82011682018060405250810190610877919061357f565b508573ffffffffffffffffffffffffffffffffffffffff16637b621d3a848a60e001518973ffffffffffffffffffffffffffffffffffffffff166360b3042c6040518163ffffffff1660e01b8152600401602060405180830381865afa1580156108e5573d6000803e3d6000fd5b505050506040513d601f19601f820116820180604052508101906109099190613619565b8a73ffffffffffffffffffffffffffffffffffffffff1663737a79966040518163ffffffff1660e01b8152600401602060405180830381865afa158015610954573d6000803e3d6000fd5b505050506040513d601f19601f820116820180604052508101906109789190613619565b6040517fffffffff0000000000000000000000000000000000000000000000000000000060e087901b168152600481019490945262ffffff909216602484015263ffffffff908116604484015216606482015261eeee608482015260a4016020604051808303816000875af11580156109f5573d6000803e3d6000fd5b505050506040513d601f19601f82011682018060405250810190610a19919061357f565b507f000000000000000000000000000000000000000000000000000000000000000073ffffffffffffffffffffffffffffffffffffffff1663111d861b8460405180608001604052808c60600151815260200160128d60000151610a7d91906137b6565b81526040808e0151602080840191909152600092820183905281516102a0810183526102408101848152610260820185905261028082019490945292835260a08f01519083015260808e015190820190610ad9906127106137c5565b8152600060208083018290526040808401839052606084018390526080840183905260a08401839052600160c0850181905260e0850184905261010085018490526101208501849052610140850184905261016085018490526101808501526101a08401839052306101c085015260ff8d166101e090940193909352825182815290810190925290889082610be1565b610bce6040518060c00160405280600073ffffffffffffffffffffffffffffffffffffffff168152602001600073ffffffffffffffffffffffffffffffffffffffff168152602001600081526020016000815260200160008152602001600081525090565b815260200190600190039081610b695790505b508e6040518863ffffffff1660e01b8152600401610c059796959493929190613abf565b6020604051808303816000875af1158015610c24573d6000803e3d6000fd5b505050506040513d601f19601f82011682018060405250810190610c489190613619565b505050836002600083815260200190815260200160002060006101000a81548173ffffffffffffffffffffffffffffffffffffffff021916908373ffffffffffffffffffffffffffffffffffffffff1602179055507f000000000000000000000000000000000000000000000000000000000000000073ffffffffffffffffffffffffffffffffffffffff16638ae9c07b8260128960200151610ceb91906137b6565b8d8b604051602001610cfd9190613bdd565b6040516020818303038152906040526000806040518763ffffffff1660e01b8152600401610d3096959493929190613c22565b6020604051808303816000875af1158015610d4f573d6000803e3d6000fd5b505050506040513d601f19601f82011682018060405250810190610d739190613619565b507f000000000000000000000000000000000000000000000000000000000000000073ffffffffffffffffffffffffffffffffffffffff16632bdfe0046040518163ffffffff1660e01b8152600401602060405180830381865afa158015610ddf573d6000803e3d6000fd5b505050506040513d601f19601f82011682018060405250810190610e03919061357f565b73ffffffffffffffffffffffffffffffffffffffff1663ad007d636040518163ffffffff1660e01b8152600401602060405180830381865afa158015610e4d573d6000803e3d6000fd5b505050506040513d601f19601f82011682018060405250810190610e71919061357f565b73ffffffffffffffffffffffffffffffffffffffff1663529cdd2e60405180606001604052808d73ffffffffffffffffffffffffffffffffffffffff1681526020018481526020016000805480602002602001604051908101604052809291908181526020018280548015610f0557602002820191906000526020600020905b815481526020019060010190808311610ef1575b50505050508152506040518263ffffffff1660e01b8152600401610f299190613c77565b600060405180830381600087803b158015610f4357600080fd5b505af1158015610f57573d6000803e3d6000fd5b50505060c0870151610f72915065ffffffffffff1642613ce8565b6000828152600160205260408120919091558351905b8181101561104c57848181518110610fa257610fa261359c565b6020026020010151600360008581526020019081526020016000208281548110610fce57610fce61359c565b600091825260209182902083516003929092020180547fffffffffffffffffffffffff00000000000000000000000000000000000000001673ffffffffffffffffffffffffffffffffffffffff909216919091178155908201516001820155604082015160028201906110419082613d9d565b505050600101610f88565b50509998505050505050505050565b6040517f1f51045300000000000000000000000000000000000000000000000000000000815260048101829052600090819073ffffffffffffffffffffffffffffffffffffffff7f00000000000000000000000000000000000000000000000000000000000000001690631f510453906024016103c060405180830381865afa1580156110ec573d6000803e3d6000fd5b505050506040513d601f19601f82011682018060405250810190611110919061407e565b5081519193509150600114611151576040517fc97554fa00000000000000000000000000000000000000000000000000000000815260040160405180910390fd5b60408051608080820183528481015182526000602080840182905260c08088015185870152606080860184905286516102a0810188526102408101858152610260820186905261028082018690528152808401859052888801518189015290810184905293840183905260a08401839052830182905260e08301829052610100830182905261012083018290526101408301829052610160830182905261018083018290526101a083018290526101c083018290526101e083018290526102008087015173ffffffffffffffffffffffffffffffffffffffff908116918501919091526102208781015190850152888352600182528583205486518481529283019096527f0000000000000000000000000000000000000000000000000000000000000000169463badbdf2894899490939092906112b2565b60408051808201909152600081526060602082015281526020019060019003908161128a5790505b506040805160008082526020820190925290611341565b61132e6040518060c00160405280600073ffffffffffffffffffffffffffffffffffffffff168152602001600073ffffffffffffffffffffffffffffffffffffffff168152602001600081526020016000815260200160008152602001600081525090565b8152602001906001900390816112c95790505b506040518763ffffffff1660e01b815260040161136396959493929190614135565b6020604051808303816000875af1158015611382573d6000803e3d6000fd5b505050506040513d601f19601f820116820180604052508101906113a69190613619565b50505050565b600081815481106113bc57600080fd5b600091825260209091200154905081565b604080516000808252602082019092526060908190839081611419565b604080516060808201835260008083526020830152918101919091528152602001906001900390816113ea5790505b5060408051602081019091526000815291969195509350915050565b6003602052816000526040600020818154811061145157600080fd5b600091825260209091206003909102018054600182015460028301805473ffffffffffffffffffffffffffffffffffffffff90931695509093509061149590613cfb565b80601f01602080910402602001604051908101604052809291908181526020018280546114c190613cfb565b801561150e5780601f106114e35761010080835404028352916020019161150e565b820191906000526020600020905b8154815290600101906020018083116114f157829003601f168201915b5050505050905083565b60007f000000000000000000000000000000000000000000000000000000000000000073ffffffffffffffffffffffffffffffffffffffff16638b79543c6040518163ffffffff1660e01b8152600401602060405180830381865afa158015611585573d6000803e3d6000fd5b505050506040513d601f19601f820116820180604052508101906115a9919061357f565b73ffffffffffffffffffffffffffffffffffffffff166306661abd6040518163ffffffff1660e01b8152600401602060405180830381865afa1580156115f3573d6000803e3d6000fd5b505050506040513d601f19601f820116820180604052508101906116179190613619565b611622906001613ce8565b83519091506000611634826001613ce8565b67ffffffffffffffff81111561164c5761164c6126fd565b60405190808252806020026020018201604052801561169957816020015b6040805160608082018352600080835260208301529181019190915281526020019060019003908161166a5790505b50905060005b828110156116e6578581815181106116b9576116b961359c565b60200260200101518282815181106116d3576116d361359c565b602090810291909101015260010161169f565b506040517f70d7f24900000000000000000000000000000000000000000000000000000000815260009073ffffffffffffffffffffffffffffffffffffffff7f000000000000000000000000000000000000000000000000000000000000000016906370d7f2499061175e9087908b906004016143a3565b6020604051808303816000875af115801561177d573d6000803e3d6000fd5b505050506040513d601f19601f820116820180604052508101906117a1919061357f565b905060405180606001604052808273ffffffffffffffffffffffffffffffffffffffff16815260200160008152602001604051806020016040528060008152508152508284815181106117f6576117f661359c565b6020026020010181905250506118138d8d8d8d8d8d8d888c6104d8565b5050509a9950505050505050505050565b60c08101356000908152600260205260408082205490517fd46cf1710000000000000000000000000000000000000000000000000000000081526060918291829173ffffffffffffffffffffffffffffffffffffffff169063d46cf1719061189090889060040161464c565b600060405180830381865afa1580156118ad573d6000803e3d6000fd5b505050506040513d6000823e601f3d9081017fffffffffffffffffffffffffffffffffffffffffffffffffffffffffffffffe01682016040526118f391908101906147c0565b60c088013560009081526003602090815260408083208054825181850281018501909352808352969a509396509194919350849084015b82821015611a1b5760008481526020908190206040805160608101825260038602909201805473ffffffffffffffffffffffffffffffffffffffff1683526001810154938301939093526002830180549293929184019161198a90613cfb565b80601f01602080910402602001604051908101604052809291908181526020018280546119b690613cfb565b8015611a035780601f106119d857610100808354040283529160200191611a03565b820191906000526020600020905b8154815290600101906020018083116119e657829003601f168201915b5050505050815250508152602001906001019061192a565b50508251929350611a3191508290506001613ce8565b67ffffffffffffffff811115611a4957611a496126fd565b604051908082528060200260200182016040528015611a9657816020015b60408051606080820183526000808352602083015291810191909152815260200190600190039081611a675790505b50935060005b81811015611ae357828181518110611ab657611ab661359c565b6020026020010151858281518110611ad057611ad061359c565b6020908102919091010152600101611a9c565b5082600081518110611af757611af761359c565b6020026020010151848281518110611b1157611b1161359c565b6020908102919091010152611b2a610160880188614939565b8080601f016020809104026020016040519081016040528093929190818152602001838380828437600092019190915250989a9299509597509095505050505050565b604080516001808252818301909252600091829190816020015b604080518082019091526000815260606020820152815260200190600190039081611b8757505060408051600180825281830190925291925060009190602082015b6040805160e08101825260008082526020808301829052928201819052606082018190526080820181905260a0820181905260c082015282527fffffffffffffffffffffffffffffffffffffffffffffffffffffffffffffffff909201910181611bc95790505090506040518060e00160405280600015158152602001600015158152602001633b9aca008152602001600081526020018b73ffffffffffffffffffffffffffffffffffffffff16815260200160008152602001600073ffffffffffffffffffffffffffffffffffffffff1681525081600181518110611cb157611cb161359c565b60200260200101819052506040518060400160405280600281526020018281525082600081518110611ce557611ce561359c565b6020026020010181905250507f000000000000000000000000000000000000000000000000000000000000000073ffffffffffffffffffffffffffffffffffffffff16638b79543c6040518163ffffffff1660e01b8152600401602060405180830381865afa158015611d5c573d6000803e3d6000fd5b505050506040513d601f19601f82011682018060405250810190611d80919061357f565b73ffffffffffffffffffffffffffffffffffffffff1663666d87a0308a6040518363ffffffff1660e01b8152600401611dba9291906135cb565b6020604051808303816000875af1158015611dd9573d6000803e3d6000fd5b505050506040513d601f19601f82011682018060405250810190611dfd9190613619565b91507f000000000000000000000000000000000000000000000000000000000000000073ffffffffffffffffffffffffffffffffffffffff1663619306306040518163ffffffff1660e01b8152600401602060405180830381865afa158015611e6a573d6000803e3d6000fd5b505050506040513d601f19601f82011682018060405250810190611e8e919061357f565b73ffffffffffffffffffffffffffffffffffffffff1663a7f2a70b8389896040518463ffffffff1660e01b8152600401611eca93929190613632565b6020604051808303816000875af1158015611ee9573d6000803e3d6000fd5b505050506040513d601f19601f82011682018060405250810190611f0d919061357f565b508273ffffffffffffffffffffffffffffffffffffffff16637b621d3a838760e001518673ffffffffffffffffffffffffffffffffffffffff166360b3042c6040518163ffffffff1660e01b8152600401602060405180830381865afa158015611f7b573d6000803e3d6000fd5b505050506040513d601f19601f82011682018060405250810190611f9f9190613619565b8773ffffffffffffffffffffffffffffffffffffffff1663737a79966040518163ffffffff1660e01b8152600401602060405180830381865afa158015611fea573d6000803e3d6000fd5b505050506040513d601f19601f8201168201806040525081019061200e9190613619565b6040517fffffffff0000000000000000000000000000000000000000000000000000000060e087901b168152600481019490945262ffffff909216602484015263ffffffff908116604484015216606482015261eeee608482015260a4016020604051808303816000875af115801561208b573d6000803e3d6000fd5b505050506040513d601f19601f820116820180604052508101906120af919061357f565b507f000000000000000000000000000000000000000000000000000000000000000073ffffffffffffffffffffffffffffffffffffffff1663111d861b8360405180608001604052808960600151815260200160128a6000015161211391906137b6565b81526040808b0151602080840191909152600092820183905281516102a0810183526102408101848152610260820185905261028082019490945292835260a08c01519083015260808b01519082019061216f906127106137c5565b8152600060208083018290526040808401839052606084018390526080840183905260a08401839052600160c0850181905260e0850184905261010085018490526101208501849052610140850184905261016085018490526101808501526101a0840183905273ffffffffffffffffffffffffffffffffffffffff8c166101c08501526101e0909301829052825182815290810190925290879082612288565b6122756040518060c00160405280600073ffffffffffffffffffffffffffffffffffffffff168152602001600073ffffffffffffffffffffffffffffffffffffffff168152602001600081526020016000815260200160008152602001600081525090565b8152602001906001900390816122105790505b508b6040518863ffffffff1660e01b81526004016122ac9796959493929190613abf565b6020604051808303816000875af11580156122cb573d6000803e3d6000fd5b505050506040513d601f19601f820116820180604052508101906122ef9190613619565b507f000000000000000000000000000000000000000000000000000000000000000073ffffffffffffffffffffffffffffffffffffffff16638ae9c07b836012886020015161233e91906137b6565b8c8a6040516020016123509190613bdd565b6040516020818303038152906040526000806040518763ffffffff1660e01b815260040161238396959493929190613c22565b6020604051808303816000875af11580156123a2573d6000803e3d6000fd5b505050506040513d601f19601f820116820180604052508101906123c69190613619565b507f000000000000000000000000000000000000000000000000000000000000000073ffffffffffffffffffffffffffffffffffffffff16632bdfe0046040518163ffffffff1660e01b8152600401602060405180830381865afa158015612432573d6000803e3d6000fd5b505050506040513d601f19601f82011682018060405250810190612456919061357f565b73ffffffffffffffffffffffffffffffffffffffff1663ad007d636040518163ffffffff1660e01b8152600401602060405180830381865afa1580156124a0573d6000803e3d6000fd5b505050506040513d601f19601f820116820180604052508101906124c4919061357f565b73ffffffffffffffffffffffffffffffffffffffff1663529cdd2e60405180606001604052808c73ffffffffffffffffffffffffffffffffffffffff168152602001858152602001600080548060200260200160405190810160405280929190818152602001828054801561255857602002820191906000526020600020905b815481526020019060010190808311612544575b50505050508152506040518263ffffffff1660e01b815260040161257c9190613c77565b600060405180830381600087803b15801561259657600080fd5b505af11580156125aa573d6000803e3d6000fd5b50505060c08601516125c5915065ffffffffffff1642613ce8565b60008381526001602052604090205550979650505050505050565b6000602082840312156125f257600080fd5b81357fffffffff000000000000000000000000000000000000000000000000000000008116811461262257600080fd5b9392505050565b73ffffffffffffffffffffffffffffffffffffffff8116811461264b57600080fd5b50565b803561265981612629565b919050565b60008060008060006080868803121561267657600080fd5b853561268181612629565b9450602086013561269181612629565b935060408601359250606086013567ffffffffffffffff808211156126b557600080fd5b818801915088601f8301126126c957600080fd5b8135818111156126d857600080fd5b8960208285010111156126ea57600080fd5b9699959850939650602001949392505050565b7f4e487b7100000000000000000000000000000000000000000000000000000000600052604160045260246000fd5b6040516060810167ffffffffffffffff8111828210171561274f5761274f6126fd565b60405290565b6040516080810167ffffffffffffffff8111828210171561274f5761274f6126fd565b604051610160810167ffffffffffffffff8111828210171561274f5761274f6126fd565b604051610240810167ffffffffffffffff8111828210171561274f5761274f6126fd565b604051610120810167ffffffffffffffff8111828210171561274f5761274f6126fd565b604051601f82017fffffffffffffffffffffffffffffffffffffffffffffffffffffffffffffffe016810167ffffffffffffffff8111828210171561282b5761282b6126fd565b604052919050565b600067ffffffffffffffff82111561284d5761284d6126fd565b50601f017fffffffffffffffffffffffffffffffffffffffffffffffffffffffffffffffe01660200190565b600061288c61288784612833565b6127e4565b90508281528383830111156128a057600080fd5b828260208301376000602084830101529392505050565b600082601f8301126128c857600080fd5b61262283833560208501612879565b6000604082840312156128e957600080fd5b6040516040810167ffffffffffffffff828210818311171561290d5761290d6126fd565b81604052829350843591508082111561292557600080fd5b50612932858286016128b7565b825250602083013560208201525092915050565b803565ffffffffffff8116811461265957600080fd5b803562ffffff8116811461265957600080fd5b600061010080838503121561298357600080fd5b6040519081019067ffffffffffffffff821181831017156129a6576129a66126fd565b81604052809250833581526020840135602082015260408401356040820152606084013560608201526080840135608082015260a084013560a08201526129ef60c08501612946565b60c0820152612a0060e0850161295c565b60e0820152505092915050565b600067ffffffffffffffff821115612a2757612a276126fd565b5060051b60200190565b600082601f830112612a4257600080fd5b81356020612a5261288783612a0d565b82815260059290921b84018101918181019086841115612a7157600080fd5b8286015b84811015612a95578035612a8881612629565b8352918301918301612a75565b509695505050505050565b600082601f830112612ab157600080fd5b81356020612ac161288783612a0d565b82815260059290921b84018101918181019086841115612ae057600080fd5b8286015b84811015612a9557803567ffffffffffffffff80821115612b055760008081fd5b81890191506060807fffffffffffffffffffffffffffffffffffffffffffffffffffffffffffffffe0848d03011215612b3e5760008081fd5b612b4661272c565b87840135612b5381612629565b815260408481013589830152918401359183831115612b725760008081fd5b82850194508c603f860112612b8957600093508384fd5b612b998d8a870135838801612879565b908201528652505050918301918301612ae4565b803560ff8116811461265957600080fd5b60008060008060008060008060006102008a8c031215612bdd57600080fd5b612be68a61264e565b985060208a013567ffffffffffffffff80821115612c0357600080fd5b612c0f8d838e016128d7565b995060408c0135915080821115612c2557600080fd5b612c318d838e016128b7565b985060608c0135915080821115612c4757600080fd5b612c538d838e016128b7565b9750612c628d60808e0161296f565b96506101808c0135915080821115612c7957600080fd5b612c858d838e01612a31565b9550612c946101a08d0161264e565b94506101c08c0135915080821115612cab57600080fd5b50612cb88c828d01612aa0565b925050612cc86101e08b01612bad565b90509295985092959850929598565b600060208284031215612ce957600080fd5b5035919050565b600060208284031215612d0257600080fd5b813567ffffffffffffffff811115612d1957600080fd5b82016101e0818503121561262257600080fd5b60005b83811015612d47578181015183820152602001612d2f565b50506000910152565b60008151808452612d68816020860160208601612d2c565b601f017fffffffffffffffffffffffffffffffffffffffffffffffffffffffffffffffe0169290920160200192915050565b6000606085835260208181850152612db482850187612d50565b6040858203818701528187518084528484019150848160051b850101858a0160005b83811015612e51578683037fffffffffffffffffffffffffffffffffffffffffffffffffffffffffffffffe00185528151805173ffffffffffffffffffffffffffffffffffffffff16845288810151898501528601518684018a9052612e3e8a850182612d50565b9589019593505090870190600101612dd6565b50909c9b505050505050505050505050565b60008060408385031215612e7657600080fd5b50508035926020909101359150565b73ffffffffffffffffffffffffffffffffffffffff84168152826020820152606060408201526000612eba6060830184612d50565b95945050505050565b80356cffffffffffffffffffffffffff8116811461265957600080fd5b803563ffffffff8116811461265957600080fd5b803561ffff8116811461265957600080fd5b801515811461264b57600080fd5b803561265981612f06565b60006080808385031215612f3257600080fd5b612f3a612755565b9150823567ffffffffffffffff811115612f5357600080fd5b8301601f81018513612f6457600080fd5b80356020612f7461288783612a0d565b8281526101609283028401820192828201919089851115612f9457600080fd5b948301945b848610156130755780868b031215612fb15760008081fd5b612fb9612778565b612fc287612ec3565b8152612fcf858801612ee0565b858201526040612fe0818901612ee0565b908201526060612ff1888201612ef4565b9082015261300087890161264e565b8189015260a0878101359082015260c061301b81890161295c565b9082015260e061302c888201612f14565b9082015261010061303e888201612f14565b90820152610120613050888201612f14565b90820152610140613062888201612f14565b9082015283529485019491830191612f99565b50865250613084868201612946565b818601525050505061309860408301612946565b60408201526130a96060830161264e565b606082015292915050565b6000608082840312156130c657600080fd5b6130ce612755565b905081356130db81612f06565b815260208201356130eb81612f06565b602082015260408201356130fe81612f06565b604082015260608201356130a981612f06565b80356002811061265957600080fd5b60006101c0828403121561313357600080fd5b61313b612778565b9050813567ffffffffffffffff8082111561315557600080fd5b613161858386016128b7565b8352602084013591508082111561317757600080fd5b613183858386016128b7565b60208401526131946040850161264e565b604084015260608401359150808211156131ad57600080fd5b6131b9858386016128b7565b60608401526131ca6080850161264e565b608084015260a08401359150808211156131e357600080fd5b6131ef858386016128b7565b60a084015260c084013591508082111561320857600080fd5b5061321584828501612f1f565b60c08301525061322760e0830161264e565b60e082015261010061323a81840161264e565b9082015261012061324d848483016130b4565b9082015261325e6101a08301613111565b61014082015292915050565b6000806000806000806000806000806102208b8d03121561328a57600080fd5b6132938b61264e565b995060208b013567ffffffffffffffff808211156132b057600080fd5b6132bc8e838f016128d7565b9a5060408d01359150808211156132d257600080fd5b6132de8e838f016128b7565b995060608d01359150808211156132f457600080fd5b6133008e838f016128b7565b985061330f8e60808f0161296f565b97506101808d013591508082111561332657600080fd5b6133328e838f01612a31565b96506133416101a08e0161264e565b95506101c08d013591508082111561335857600080fd5b6133648e838f01613120565b94506101e08d013591508082111561337b57600080fd5b506133888d828e01612aa0565b9250506133986102008c01612bad565b90509295989b9194979a5092959850565b6000602082840312156133bb57600080fd5b813567ffffffffffffffff8111156133d257600080fd5b82016101a0818503121561262257600080fd5b60006060858352602081818501526133ff82850187612d50565b6040858203818701528187518084528484019150848160051b850101858a0160005b83811015612e51578683037fffffffffffffffffffffffffffffffffffffffffffffffffffffffffffffffe00185528151805173ffffffffffffffffffffffffffffffffffffffff16845288810151898501528601518684018a90526134898a850182612d50565b9589019593505090870190600101613421565b60008060008060008060006101c0888a0312156134b857600080fd5b6134c18861264e565b9650602088013567ffffffffffffffff808211156134de57600080fd5b6134ea8b838c016128d7565b975060408a013591508082111561350057600080fd5b61350c8b838c016128b7565b965060608a013591508082111561352257600080fd5b61352e8b838c016128b7565b955061353d8b60808c0161296f565b94506101808a013591508082111561355457600080fd5b506135618a828b01612a31565b9250506135716101a0890161264e565b905092959891949750929550565b60006020828403121561359157600080fd5b815161262281612629565b7f4e487b7100000000000000000000000000000000000000000000000000000000600052603260045260246000fd5b73ffffffffffffffffffffffffffffffffffffffff8316815260406020820152600082516040808401526136026080840182612d50565b905060208401516060840152809150509392505050565b60006020828403121561362b57600080fd5b5051919050565b83815260606020820152600061364b6060830185612d50565b828103604084015261365d8185612d50565b9695505050505050565b7f4e487b7100000000000000000000000000000000000000000000000000000000600052601160045260246000fd5b600181815b808511156136ef57817fffffffffffffffffffffffffffffffffffffffffffffffffffffffffffffffff048211156136d5576136d5613667565b808516156136e257918102915b93841c939080029061369b565b509250929050565b600082613706575060016103be565b81613713575060006103be565b816001811461372957600281146137335761374f565b60019150506103be565b60ff84111561374457613744613667565b50506001821b6103be565b5060208310610133831016604e8410600b8410161715613772575081810a6103be565b61377c8383613696565b807fffffffffffffffffffffffffffffffffffffffffffffffffffffffffffffffff048211156137ae576137ae613667565b029392505050565b600061262260ff8416836136f7565b818103818111156103be576103be613667565b6137fd8282518051151582526020808201511515908301526040908101511515910152565b6020810151606083015260408101516080830152606081015160a0830152608081015161382e60c084018215159052565b5060a081015180151560e08401525060c08101516101006138528185018315159052565b60e083015191506101206138698186018415159052565b908301519150610140906138808583018415159052565b83015191506101606138958582018415159052565b908301519150610180906138ac8583018415159052565b83015191506101a06138c18582018415159052565b9083015191506101c0906138d88583018415159052565b83015191506101e06138ed8582018415159052565b908301519150610200906139048583018415159052565b83015191506102206139198582018415159052565b9083015173ffffffffffffffffffffffffffffffffffffffff16610240850152909101516102609092019190915250565b600081518084526020808501808196508360051b810191508286016000805b86811015613a29578385038a52825180518652860151604087870181905281518188018190529188019160609081890190865b81811015613a125785518051151584528c81015115158d8501528581015186850152848101518585015260808082015173ffffffffffffffffffffffffffffffffffffffff9081169186019190915260a0808301519086015260c0918201511690840152948b019460e09092019160010161399c565b50509c89019c975050509286019250600101613969565b509298975050505050505050565b600081518084526020808501945080840160005b83811015613ab4578151805173ffffffffffffffffffffffffffffffffffffffff908116895284820151168489015260408082015190890152606080820151908901526080808201519089015260a0908101519088015260c09096019590820190600101613a4b565b509495945050505050565b60006103c08983526020613b0c8185018b80518252602081015160208301526040810151604083015273ffffffffffffffffffffffffffffffffffffffff60608201511660608301525050565b613b1960a085018a6137d8565b8761032085015281610340850152613b338285018861394a565b9150838203610360850152613b488287613a37565b848103610380860152855180825282870193509082019060005b81811015613b9457845173ffffffffffffffffffffffffffffffffffffffff1683529383019391830191600101613b62565b50508481036103a0860152601b81527f4465706c6f7965642052657461696c69737420747265617375727900000000006020820152604081019c9b505050505050505050505050565b7f5072656d696e7465642024000000000000000000000000000000000000000000815260008251613c1581600b850160208701612d2c565b91909101600b0192915050565b86815285602082015273ffffffffffffffffffffffffffffffffffffffff8516604082015260c060608201526000613c5d60c0830186612d50565b93151560808301525090151560a090910152949350505050565b600060208083526080830173ffffffffffffffffffffffffffffffffffffffff85511682850152818501516040850152604085015160608086015281815180845260a0870191508483019350600092505b80831015612a955783518252928401926001929092019190840190613cc8565b808201808211156103be576103be613667565b600181811c90821680613d0f57607f821691505b602082108103613d48577f4e487b7100000000000000000000000000000000000000000000000000000000600052602260045260246000fd5b50919050565b601f821115613d9857600081815260208120601f850160051c81016020861015613d755750805b601f850160051c820191505b81811015613d9457828155600101613d81565b5050505b505050565b815167ffffffffffffffff811115613db757613db76126fd565b613dcb81613dc58454613cfb565b84613d4e565b602080601f831160018114613e1e5760008415613de85750858301515b7fffffffffffffffffffffffffffffffffffffffffffffffffffffffffffffffff600386901b1c1916600185901b178555613d94565b6000858152602081207fffffffffffffffffffffffffffffffffffffffffffffffffffffffffffffffe08616915b82811015613e6b57888601518255948401946001909101908401613e4c565b5085821015613ea757878501517fffffffffffffffffffffffffffffffffffffffffffffffffffffffffffffffff600388901b60f8161c191681555b5050505050600190811b01905550565b805161265981612629565b805161265981612f06565b600060608284031215613edf57600080fd5b613ee761272c565b90508151613ef481612f06565b81526020820151613f0481612f06565b60208201526040820151613f1781612f06565b604082015292915050565b60006102808284031215613f3557600080fd5b613f3d61279c565b9050613f498383613ecd565b8152606082015160208201526080820151604082015260a08201516060820152613f7560c08301613ec2565b6080820152613f8660e08301613ec2565b60a0820152610100613f99818401613ec2565b60c0830152610120613fac818501613ec2565b60e0840152610140613fbf818601613ec2565b838501526101609250613fd3838601613ec2565b828501526101809150613fe7828601613ec2565b908401526101a0613ff9858201613ec2565b838501526101c0925061400d838601613ec2565b828501526101e09150614021828601613ec2565b90840152610200614033858201613ec2565b838501526102209250614047838601613ec2565b828501526140586102408601613eb7565b818501525050610260830151818301525092915050565b80516003811061265957600080fd5b60008060008385036103c081121561409557600080fd5b610120808212156140a557600080fd5b6140ad6127c0565b9150855182526020860151602083015260408601516040830152606086015160608301526080860151608083015260a086015160a083015260c086015160c08301526140fb60e08701613eb7565b60e083015261010080870151818401525081945061411b87828801613f22565b9350505061412c6103a0850161406f565b90509250925092565b60006103a0888352614181602084018980518252602081015160208301526040810151604083015273ffffffffffffffffffffffffffffffffffffffff60608201511660608301525050565b61418e60a08401886137d8565b85610320840152806103408401526141a88184018661394a565b90508281036103608401526141bd8185613a37565b838103610380909401939093525050602c81527f5363686564756c656420626f6f737420657870697279206f662052657461696c60208201527f697374207472656173757279000000000000000000000000000000000000000060408201526060019695505050505050565b80516080808452815184820181905260009260a0916020918201918388019190865b8281101561430e57845180516cffffffffffffffffffffffffff1685528281015163ffffffff908116848701526040808301519091169086015260608082015161ffff16908601528781015173ffffffffffffffffffffffffffffffffffffffff1688860152868101518786015260c08082015162ffffff169086015260e080820151151590860152610100808201511515908601526101208082015115159086015261014090810151151590850152938101936101609093019260010161424b565b508781015165ffffffffffff81168a830152955050506040860151935061433f604088018565ffffffffffff169052565b6060860151935061365d606088018573ffffffffffffffffffffffffffffffffffffffff169052565b6002811061439f577f4e487b7100000000000000000000000000000000000000000000000000000000600052602160045260246000fd5b9052565b82815260406020820152600082516101c060408401526143c7610200840182612d50565b905060208401517fffffffffffffffffffffffffffffffffffffffffffffffffffffffffffffffc0808584030160608601526144038383612d50565b92506040860151915061442e608086018373ffffffffffffffffffffffffffffffffffffffff169052565b60608601519150808584030160a08601526144498383612d50565b92506080860151915061447460c086018373ffffffffffffffffffffffffffffffffffffffff169052565b60a08601519150808584030160e086015261448f8383612d50565b925060c086015191506101008186850301818701526144ae8484614229565b935060e0870151925061012091506144dd8287018473ffffffffffffffffffffffffffffffffffffffff169052565b86015191506101406145068682018473ffffffffffffffffffffffffffffffffffffffff169052565b908601518051151561016087015260208101511515610180870152604081015115156101a08701526060015115156101c0860152850151905061454d6101e0850182614368565b50949350505050565b803561456181612629565b73ffffffffffffffffffffffffffffffffffffffff1682526020818101359083015260408082013590830152606090810135910152565b60008083357fffffffffffffffffffffffffffffffffffffffffffffffffffffffffffffffe18436030181126145cd57600080fd5b830160208101925035905067ffffffffffffffff8111156145ed57600080fd5b8036038213156145fc57600080fd5b9250929050565b8183528181602085013750600060208284010152600060207fffffffffffffffffffffffffffffffffffffffffffffffffffffffffffffffe0601f840116840101905092915050565b6020815261467a602082016146608461264e565b73ffffffffffffffffffffffffffffffffffffffff169052565b60006146886020840161264e565b73ffffffffffffffffffffffffffffffffffffffff81166040840152506146b56060830160408501614556565b60c083013560e083015261010060e0840135818401526146d681850161264e565b90506101206146fc8185018373ffffffffffffffffffffffffffffffffffffffff169052565b6101409150808501358285015250610160818501358185015261472181860186614598565b925090506101a0610180818187015261473f6101c087018585614603565b935061474d81880188614598565b935090507fffffffffffffffffffffffffffffffffffffffffffffffffffffffffffffffe08685030182870152614785848483614603565b979650505050505050565b600061479e61288784612833565b90508281528383830111156147b257600080fd5b612622836020830184612d2c565b6000806000606084860312156147d557600080fd5b8351925060208085015167ffffffffffffffff808211156147f557600080fd5b818701915087601f83011261480957600080fd5b614817888351858501614790565b9450604087015191508082111561482d57600080fd5b818701915087601f83011261484157600080fd5b815161484f61288782612a0d565b81815260059190911b8301840190848101908a83111561486e57600080fd5b8585015b838110156149285780518581111561488957600080fd5b86016060818e037fffffffffffffffffffffffffffffffffffffffffffffffffffffffffffffffe00112156148bd57600080fd5b6148c561272c565b888201516148d281612629565b81526040820151898201526060820151878111156148ef57600080fd5b8083019250508d603f83011261490457600080fd5b6149158e8a84015160408501614790565b6040820152845250918601918601614872565b508096505050505050509250925092565b60008083357fffffffffffffffffffffffffffffffffffffffffffffffffffffffffffffffe184360301811261496e57600080fd5b83018035915067ffffffffffffffff82111561498957600080fd5b6020019150368190038213156145fc57600080fdfea26469706673582212205f6ec0c1a4e39a1b392cfeb2773fee5114ddbb8d4accd65ca5b2a6f17a51011464736f6c63430008150033",
    "linkReferences": {}
  },
  "methodIdentifiers": {
    "buybackDelegateDataSourceOf(uint256)": "ef8eadd5",
    "controller()": "f77c4791",
    "delegateAllocationsOf(uint256,uint256)": "abc603e3",
    "delegateDeployer()": "8f3d964b",
    "deployBasicProjectFor(address,(string,uint256),string,string,(uint256,uint256,uint256,uint256,uint256,uint256,uint48,uint24),address[],address)": "d87b09e3",
    "deployPayAllocatorProjectFor(address,(string,uint256),string,string,(uint256,uint256,uint256,uint256,uint256,uint256,uint48,uint24),address[],address,(address,uint256,bytes)[],uint8)": "1f84209a",
    "deployTiered721PayAllocatorProjectFor(address,(string,uint256),string,string,(uint256,uint256,uint256,uint256,uint256,uint256,uint48,uint24),address[],address,(string,string,address,string,address,string,((uint104,uint32,uint32,uint16,address,bytes32,uint24,bool,bool,bool,bool)[],uint48,uint48,address),address,address,(bool,bool,bool,bool),uint8),(address,uint256,bytes)[],uint8)": "cc28d77f",
    "directory()": "c41c2f24",
    "onERC721Received(address,address,uint256,bytes)": "150b7a02",
    "payParams((address,address,(address,uint256,uint256,uint256),uint256,uint256,address,uint256,uint256,string,bytes))": "d46cf171",
    "permissionIndexes(uint256)": "9483e771",
    "reconfigurationStartTimestampOf(uint256)": "560f7b03",
    "redeemParams((address,address,uint256,uint256,uint256,uint256,uint256,(address,uint256,uint256,uint256),bool,uint256,string,bytes))": "a51cfd18",
    "scheduleReconfigurationOf(uint256)": "3ce6d3e2",
    "supportsInterface(bytes4)": "01ffc9a7"
  },
  "id": 105
}