{
  "abi": [
    {
      "inputs": [
        {
          "internalType": "contract IJBDirectory",
          "name": "_directory",
          "type": "address"
        },
        {
          "internalType": "contract IJBTiered721DelegateDeployer",
          "name": "_delegateDeployer",
          "type": "address"
        },
        {
          "internalType": "contract IJBController3_1",
          "name": "_controller",
          "type": "address"
        },
        {
          "internalType": "contract IJBPayoutRedemptionPaymentTerminal3_1_1",
          "name": "_terminal",
          "type": "address"
        },
        {
          "internalType": "contract IJBGenericBuybackDelegate",
          "name": "_buybackDelegate",
          "type": "address"
        }
      ],
      "stateMutability": "nonpayable",
      "type": "constructor"
    },
    {
      "inputs": [],
      "name": "RECONFIGURATION_ALREADY_SCHEDULED",
      "type": "error"
    },
    {
      "inputs": [],
      "name": "buybackDelegate",
      "outputs": [
        {
          "internalType": "contract IJBGenericBuybackDelegate",
          "name": "",
          "type": "address"
        }
      ],
      "stateMutability": "view",
      "type": "function"
    },
    {
      "inputs": [],
      "name": "controller",
      "outputs": [
        {
          "internalType": "contract IJBController3_1",
          "name": "",
          "type": "address"
        }
      ],
      "stateMutability": "view",
      "type": "function"
    },
    {
      "inputs": [
        {
          "internalType": "uint256",
          "name": "",
          "type": "uint256"
        },
        {
          "internalType": "uint256",
          "name": "",
          "type": "uint256"
        }
      ],
      "name": "delegateAllocationsOf",
      "outputs": [
        {
          "internalType": "contract IJBPayDelegate3_1_1",
          "name": "delegate",
          "type": "address"
        },
        {
          "internalType": "uint256",
          "name": "amount",
          "type": "uint256"
        },
        {
          "internalType": "bytes",
          "name": "metadata",
          "type": "bytes"
        }
      ],
      "stateMutability": "view",
      "type": "function"
    },
    {
      "inputs": [],
      "name": "delegateDeployer",
      "outputs": [
        {
          "internalType": "contract IJBTiered721DelegateDeployer",
          "name": "",
          "type": "address"
        }
      ],
      "stateMutability": "view",
      "type": "function"
    },
    {
      "inputs": [
        {
          "internalType": "address",
          "name": "_operator",
          "type": "address"
        },
        {
          "components": [
            {
              "internalType": "string",
              "name": "content",
              "type": "string"
            },
            {
              "internalType": "uint256",
              "name": "domain",
              "type": "uint256"
            }
          ],
          "internalType": "struct JBProjectMetadata",
          "name": "_projectMetadata",
          "type": "tuple"
        },
        {
          "internalType": "string",
          "name": "_name",
          "type": "string"
        },
        {
          "internalType": "string",
          "name": "_symbol",
          "type": "string"
        },
        {
          "components": [
            {
              "internalType": "uint256",
              "name": "initialIssuanceRate",
              "type": "uint256"
            },
            {
              "internalType": "uint256",
              "name": "premintTokenAmount",
              "type": "uint256"
            },
            {
              "internalType": "uint256",
              "name": "discountRate",
              "type": "uint256"
            },
            {
              "internalType": "uint256",
              "name": "cycleDurations",
              "type": "uint256"
            },
            {
              "internalType": "uint256",
              "name": "redemptionRate",
              "type": "uint256"
            },
            {
              "internalType": "uint256",
              "name": "reservedRate",
              "type": "uint256"
            },
            {
              "internalType": "uint48",
              "name": "reservedRateDuration",
              "type": "uint48"
            }
          ],
          "internalType": "struct BasicRetailistJBParams",
          "name": "_data",
          "type": "tuple"
        }
      ],
      "name": "deployBasicProjectFor",
      "outputs": [
        {
          "internalType": "uint256",
          "name": "projectId",
          "type": "uint256"
        }
      ],
      "stateMutability": "nonpayable",
      "type": "function"
    },
    {
      "inputs": [
        {
          "internalType": "address",
          "name": "_operator",
          "type": "address"
        },
        {
          "components": [
            {
              "internalType": "string",
              "name": "content",
              "type": "string"
            },
            {
              "internalType": "uint256",
              "name": "domain",
              "type": "uint256"
            }
          ],
          "internalType": "struct JBProjectMetadata",
          "name": "_projectMetadata",
          "type": "tuple"
        },
        {
          "internalType": "string",
          "name": "_name",
          "type": "string"
        },
        {
          "internalType": "string",
          "name": "_symbol",
          "type": "string"
        },
        {
          "components": [
            {
              "internalType": "uint256",
              "name": "initialIssuanceRate",
              "type": "uint256"
            },
            {
              "internalType": "uint256",
              "name": "premintTokenAmount",
              "type": "uint256"
            },
            {
              "internalType": "uint256",
              "name": "discountRate",
              "type": "uint256"
            },
            {
              "internalType": "uint256",
              "name": "cycleDurations",
              "type": "uint256"
            },
            {
              "internalType": "uint256",
              "name": "redemptionRate",
              "type": "uint256"
            },
            {
              "internalType": "uint256",
              "name": "reservedRate",
              "type": "uint256"
            },
            {
              "internalType": "uint48",
              "name": "reservedRateDuration",
              "type": "uint48"
            }
          ],
          "internalType": "struct BasicRetailistJBParams",
          "name": "_data",
          "type": "tuple"
        },
        {
          "components": [
            {
              "internalType": "contract IJBPayDelegate3_1_1",
              "name": "delegate",
              "type": "address"
            },
            {
              "internalType": "uint256",
              "name": "amount",
              "type": "uint256"
            },
            {
              "internalType": "bytes",
              "name": "metadata",
              "type": "bytes"
            }
          ],
          "internalType": "struct JBPayDelegateAllocation3_1_1[]",
          "name": "_delegateAllocations",
          "type": "tuple[]"
        },
        {
          "internalType": "uint8",
          "name": "_extraFundingCycleMetadata",
          "type": "uint8"
        }
      ],
      "name": "deployPayAllocatorProjectFor",
      "outputs": [
        {
          "internalType": "uint256",
          "name": "projectId",
          "type": "uint256"
        }
      ],
      "stateMutability": "nonpayable",
      "type": "function"
    },
    {
      "inputs": [
        {
          "internalType": "address",
          "name": "_operator",
          "type": "address"
        },
        {
          "components": [
            {
              "internalType": "string",
              "name": "content",
              "type": "string"
            },
            {
              "internalType": "uint256",
              "name": "domain",
              "type": "uint256"
            }
          ],
          "internalType": "struct JBProjectMetadata",
          "name": "_projectMetadata",
          "type": "tuple"
        },
        {
          "internalType": "string",
          "name": "_name",
          "type": "string"
        },
        {
          "internalType": "string",
          "name": "_symbol",
          "type": "string"
        },
        {
          "components": [
            {
              "internalType": "uint256",
              "name": "initialIssuanceRate",
              "type": "uint256"
            },
            {
              "internalType": "uint256",
              "name": "premintTokenAmount",
              "type": "uint256"
            },
            {
              "internalType": "uint256",
              "name": "discountRate",
              "type": "uint256"
            },
            {
              "internalType": "uint256",
              "name": "cycleDurations",
              "type": "uint256"
            },
            {
              "internalType": "uint256",
              "name": "redemptionRate",
              "type": "uint256"
            },
            {
              "internalType": "uint256",
              "name": "reservedRate",
              "type": "uint256"
            },
            {
              "internalType": "uint48",
              "name": "reservedRateDuration",
              "type": "uint48"
            }
          ],
          "internalType": "struct BasicRetailistJBParams",
          "name": "_data",
          "type": "tuple"
        },
        {
          "components": [
            {
              "internalType": "string",
              "name": "name",
              "type": "string"
            },
            {
              "internalType": "string",
              "name": "symbol",
              "type": "string"
            },
            {
              "internalType": "contract IJBFundingCycleStore",
              "name": "fundingCycleStore",
              "type": "address"
            },
            {
              "internalType": "string",
              "name": "baseUri",
              "type": "string"
            },
            {
              "internalType": "contract IJB721TokenUriResolver",
              "name": "tokenUriResolver",
              "type": "address"
            },
            {
              "internalType": "string",
              "name": "contractUri",
              "type": "string"
            },
            {
              "components": [
                {
                  "components": [
                    {
                      "internalType": "uint104",
                      "name": "price",
                      "type": "uint104"
                    },
                    {
                      "internalType": "uint32",
                      "name": "initialQuantity",
                      "type": "uint32"
                    },
                    {
                      "internalType": "uint32",
                      "name": "votingUnits",
                      "type": "uint32"
                    },
                    {
                      "internalType": "uint16",
                      "name": "reservedRate",
                      "type": "uint16"
                    },
                    {
                      "internalType": "address",
                      "name": "reservedTokenBeneficiary",
                      "type": "address"
                    },
                    {
                      "internalType": "bytes32",
                      "name": "encodedIPFSUri",
                      "type": "bytes32"
                    },
                    {
                      "internalType": "uint24",
                      "name": "category",
                      "type": "uint24"
                    },
                    {
                      "internalType": "bool",
                      "name": "allowManualMint",
                      "type": "bool"
                    },
                    {
                      "internalType": "bool",
                      "name": "shouldUseReservedTokenBeneficiaryAsDefault",
                      "type": "bool"
                    },
                    {
                      "internalType": "bool",
                      "name": "transfersPausable",
                      "type": "bool"
                    },
                    {
                      "internalType": "bool",
                      "name": "useVotingUnits",
                      "type": "bool"
                    }
                  ],
                  "internalType": "struct JB721TierParams[]",
                  "name": "tiers",
                  "type": "tuple[]"
                },
                {
                  "internalType": "uint48",
                  "name": "currency",
                  "type": "uint48"
                },
                {
                  "internalType": "uint48",
                  "name": "decimals",
                  "type": "uint48"
                },
                {
                  "internalType": "contract IJBPrices",
                  "name": "prices",
                  "type": "address"
                }
              ],
              "internalType": "struct JB721PricingParams",
              "name": "pricing",
              "type": "tuple"
            },
            {
              "internalType": "address",
              "name": "reservedTokenBeneficiary",
              "type": "address"
            },
            {
              "internalType": "contract IJBTiered721DelegateStore",
              "name": "store",
              "type": "address"
            },
            {
              "components": [
                {
                  "internalType": "bool",
                  "name": "lockReservedTokenChanges",
                  "type": "bool"
                },
                {
                  "internalType": "bool",
                  "name": "lockVotingUnitChanges",
                  "type": "bool"
                },
                {
                  "internalType": "bool",
                  "name": "lockManualMintingChanges",
                  "type": "bool"
                },
                {
                  "internalType": "bool",
                  "name": "preventOverspending",
                  "type": "bool"
                }
              ],
              "internalType": "struct JBTiered721Flags",
              "name": "flags",
              "type": "tuple"
            },
            {
              "internalType": "enum JB721GovernanceType",
              "name": "governanceType",
              "type": "uint8"
            }
          ],
          "internalType": "struct JBDeployTiered721DelegateData",
          "name": "_deployTiered721DelegateData",
          "type": "tuple"
        },
        {
          "components": [
            {
              "internalType": "contract IJBPayDelegate3_1_1",
              "name": "delegate",
              "type": "address"
            },
            {
              "internalType": "uint256",
              "name": "amount",
              "type": "uint256"
            },
            {
              "internalType": "bytes",
              "name": "metadata",
              "type": "bytes"
            }
          ],
          "internalType": "struct JBPayDelegateAllocation3_1_1[]",
          "name": "_otherDelegateAllocations",
          "type": "tuple[]"
        },
        {
          "internalType": "uint8",
          "name": "_extraFundingCycleMetadata",
          "type": "uint8"
        }
      ],
      "name": "deployTiered721PayAllocatorProjectFor",
      "outputs": [
        {
          "internalType": "uint256",
          "name": "projectId",
          "type": "uint256"
        }
      ],
      "stateMutability": "nonpayable",
      "type": "function"
    },
    {
      "inputs": [],
      "name": "directory",
      "outputs": [
        {
          "internalType": "contract IJBDirectory",
          "name": "",
          "type": "address"
        }
      ],
      "stateMutability": "view",
      "type": "function"
    },
    {
      "inputs": [
        {
          "internalType": "address",
          "name": "_operator",
          "type": "address"
        },
        {
          "internalType": "address",
          "name": "_from",
          "type": "address"
        },
        {
          "internalType": "uint256",
          "name": "_tokenId",
          "type": "uint256"
        },
        {
          "internalType": "bytes",
          "name": "_data",
          "type": "bytes"
        }
      ],
      "name": "onERC721Received",
      "outputs": [
        {
          "internalType": "bytes4",
          "name": "",
          "type": "bytes4"
        }
      ],
      "stateMutability": "view",
      "type": "function"
    },
    {
      "inputs": [
        {
          "components": [
            {
              "internalType": "contract IJBPaymentTerminal",
              "name": "terminal",
              "type": "address"
            },
            {
              "internalType": "address",
              "name": "payer",
              "type": "address"
            },
            {
              "components": [
                {
                  "internalType": "address",
                  "name": "token",
                  "type": "address"
                },
                {
                  "internalType": "uint256",
                  "name": "value",
                  "type": "uint256"
                },
                {
                  "internalType": "uint256",
                  "name": "decimals",
                  "type": "uint256"
                },
                {
                  "internalType": "uint256",
                  "name": "currency",
                  "type": "uint256"
                }
              ],
              "internalType": "struct JBTokenAmount",
              "name": "amount",
              "type": "tuple"
            },
            {
              "internalType": "uint256",
              "name": "projectId",
              "type": "uint256"
            },
            {
              "internalType": "uint256",
              "name": "currentFundingCycleConfiguration",
              "type": "uint256"
            },
            {
              "internalType": "address",
              "name": "beneficiary",
              "type": "address"
            },
            {
              "internalType": "uint256",
              "name": "weight",
              "type": "uint256"
            },
            {
              "internalType": "uint256",
              "name": "reservedRate",
              "type": "uint256"
            },
            {
              "internalType": "string",
              "name": "memo",
              "type": "string"
            },
            {
              "internalType": "bytes",
              "name": "metadata",
              "type": "bytes"
            }
          ],
          "internalType": "struct JBPayParamsData",
          "name": "_data",
          "type": "tuple"
        }
      ],
      "name": "payParams",
      "outputs": [
        {
          "internalType": "uint256",
          "name": "weight",
          "type": "uint256"
        },
        {
          "internalType": "string",
          "name": "memo",
          "type": "string"
        },
        {
          "components": [
            {
              "internalType": "contract IJBPayDelegate3_1_1",
              "name": "delegate",
              "type": "address"
            },
            {
              "internalType": "uint256",
              "name": "amount",
              "type": "uint256"
            },
            {
              "internalType": "bytes",
              "name": "metadata",
              "type": "bytes"
            }
          ],
          "internalType": "struct JBPayDelegateAllocation3_1_1[]",
          "name": "delegateAllocations",
          "type": "tuple[]"
        }
      ],
      "stateMutability": "view",
      "type": "function"
    },
    {
      "inputs": [
        {
          "internalType": "uint256",
          "name": "",
          "type": "uint256"
        }
      ],
      "name": "permissionIndexes",
      "outputs": [
        {
          "internalType": "uint256",
          "name": "",
          "type": "uint256"
        }
      ],
      "stateMutability": "view",
      "type": "function"
    },
    {
      "inputs": [
        {
          "internalType": "uint256",
          "name": "projectId",
          "type": "uint256"
        }
      ],
      "name": "reconfigurationStartTimestampOf",
      "outputs": [
        {
          "internalType": "uint256",
          "name": "",
          "type": "uint256"
        }
      ],
      "stateMutability": "view",
      "type": "function"
    },
    {
      "inputs": [
        {
          "components": [
            {
              "internalType": "contract IJBPaymentTerminal",
              "name": "terminal",
              "type": "address"
            },
            {
              "internalType": "address",
              "name": "holder",
              "type": "address"
            },
            {
              "internalType": "uint256",
              "name": "projectId",
              "type": "uint256"
            },
            {
              "internalType": "uint256",
              "name": "currentFundingCycleConfiguration",
              "type": "uint256"
            },
            {
              "internalType": "uint256",
              "name": "tokenCount",
              "type": "uint256"
            },
            {
              "internalType": "uint256",
              "name": "totalSupply",
              "type": "uint256"
            },
            {
              "internalType": "uint256",
              "name": "overflow",
              "type": "uint256"
            },
            {
              "components": [
                {
                  "internalType": "address",
                  "name": "token",
                  "type": "address"
                },
                {
                  "internalType": "uint256",
                  "name": "value",
                  "type": "uint256"
                },
                {
                  "internalType": "uint256",
                  "name": "decimals",
                  "type": "uint256"
                },
                {
                  "internalType": "uint256",
                  "name": "currency",
                  "type": "uint256"
                }
              ],
              "internalType": "struct JBTokenAmount",
              "name": "reclaimAmount",
              "type": "tuple"
            },
            {
              "internalType": "bool",
              "name": "useTotalOverflow",
              "type": "bool"
            },
            {
              "internalType": "uint256",
              "name": "redemptionRate",
              "type": "uint256"
            },
            {
              "internalType": "string",
              "name": "memo",
              "type": "string"
            },
            {
              "internalType": "bytes",
              "name": "metadata",
              "type": "bytes"
            }
          ],
          "internalType": "struct JBRedeemParamsData",
          "name": "_data",
          "type": "tuple"
        }
      ],
      "name": "redeemParams",
      "outputs": [
        {
          "internalType": "uint256",
          "name": "",
          "type": "uint256"
        },
        {
          "internalType": "string",
          "name": "",
          "type": "string"
        },
        {
          "components": [
            {
              "internalType": "contract IJBRedemptionDelegate3_1_1",
              "name": "delegate",
              "type": "address"
            },
            {
              "internalType": "uint256",
              "name": "amount",
              "type": "uint256"
            },
            {
              "internalType": "bytes",
              "name": "metadata",
              "type": "bytes"
            }
          ],
          "internalType": "struct JBRedemptionDelegateAllocation3_1_1[]",
          "name": "",
          "type": "tuple[]"
        }
      ],
      "stateMutability": "view",
      "type": "function"
    },
    {
      "inputs": [
        {
          "internalType": "uint256",
          "name": "_projectId",
          "type": "uint256"
        }
      ],
      "name": "scheduleReconfigurationOf",
      "outputs": [],
      "stateMutability": "nonpayable",
      "type": "function"
    },
    {
      "inputs": [
        {
          "internalType": "bytes4",
          "name": "_interfaceId",
          "type": "bytes4"
        }
      ],
      "name": "supportsInterface",
      "outputs": [
        {
          "internalType": "bool",
          "name": "",
          "type": "bool"
        }
      ],
      "stateMutability": "view",
      "type": "function"
    },
    {
      "inputs": [
        {
          "internalType": "uint256",
          "name": "",
          "type": "uint256"
        }
      ],
      "name": "terminals",
      "outputs": [
        {
          "internalType": "contract IJBPaymentTerminal",
          "name": "",
          "type": "address"
        }
      ],
      "stateMutability": "view",
      "type": "function"
    }
  ],
  "bytecode": {
    "object": "0x6101006040523480156200001257600080fd5b5060405162004b0338038062004b038339810160408190526200003591620000f5565b6001600160a01b03928316608052821660a05260008054600180820183557f290decd9548b62a8d60345a988386fc84ba6bc95484008f6362f93160ef3e56390910180546001600160a01b03191693851693909317909255815480830183559082905260127fb10e2d527612073b26eecdfd717e6a320cf44b4afac2b0732d9fcbe2b7fa0cf6918201558154808301909255601891015591821660c0521660e05262000175565b6001600160a01b0381168114620000f257600080fd5b50565b600080600080600060a086880312156200010e57600080fd5b85516200011b81620000dc565b60208701519095506200012e81620000dc565b60408701519094506200014181620000dc565b60608701519093506200015481620000dc565b60808701519092506200016781620000dc565b809150509295509295909350565b60805160a05160c05160e0516148b36200025060003960008181610217015261217001526000818161029501526120640152600081816102cf015281816107b1015281816107f00152818161087f01528181610ad70152818161170301528181611742015281816117d10152612369015260008181610318015281816105900152818161069e015281816109b001528181610c1301528181610cd501528181610efc0152818161105501528181611208015281816114e3015281816115f30152818161190201528181611b430152611c0301526148b36000f3fe608060405234801561001057600080fd5b50600436106101005760003560e01c80639483e77111610097578063c7e221d711610066578063c7e221d7146102b7578063d3967525146102ca578063d46cf171146102f1578063f77c47911461031357600080fd5b80639483e77114610239578063a51cfd181461024c578063abc603e31461026e578063c41c2f241461029057600080fd5b80633ce6d3e2116100d35780633ce6d3e2146101ca5780634e777fd7146101df578063560f7b03146101f25780638f3d964b1461021257600080fd5b806301ffc9a7146101055780630219758e1461012d5780630e53d9cc14610165578063150b7a0214610186575b600080fd5b61011861011336600461269d565b61033a565b60405190151581526020015b60405180910390f35b61014061013b3660046126e6565b6103d3565b60405173ffffffffffffffffffffffffffffffffffffffff9091168152602001610124565b610178610173366004612795565b61040a565b604051908152602001610124565b610199610194366004612857565b610ef8565b6040517fffffffff000000000000000000000000000000000000000000000000000000009091168152602001610124565b6101dd6101d83660046126e6565b61100c565b005b6101786101ed366004612c05565b61135d565b6101786102003660046126e6565b60026020526000908152604090205481565b6101407f000000000000000000000000000000000000000000000000000000000000000081565b6101786102473660046126e6565b611ef4565b61025f61025a366004612cda565b611f15565b60405161012493929190612d84565b61028161027c366004612e4d565b611f7d565b60405161012493929190612e6f565b6101407f000000000000000000000000000000000000000000000000000000000000000081565b6101786102c5366004612f05565b612060565b6101407f000000000000000000000000000000000000000000000000000000000000000081565b6103046102ff366004613013565b612360565b6040516101249392919061304f565b6101407f000000000000000000000000000000000000000000000000000000000000000081565b60007fffffffff0000000000000000000000000000000000000000000000000000000082167f71700c690000000000000000000000000000000000000000000000000000000014806103cd57507f150b7a02000000000000000000000000000000000000000000000000000000007fffffffff000000000000000000000000000000000000000000000000000000008316145b92915050565b600081815481106103e357600080fd5b60009182526020909120015473ffffffffffffffffffffffffffffffffffffffff16905081565b604080516001808252818301909252600091829190816020015b60408051808201909152600081526060602082015281526020019060019003908161042457505060408051600180825281830190925291925060009190602082015b6040805160e08101825260008082526020808301829052928201819052606082018190526080820181905260a0820181905260c082015282527fffffffffffffffffffffffffffffffffffffffffffffffffffffffffffffffff9092019101816104665790505090506040518060e00160405280600015158152602001600015158152602001633b9aca008152602001600081526020018b73ffffffffffffffffffffffffffffffffffffffff16815260200160008152602001600073ffffffffffffffffffffffffffffffffffffffff168152508160018151811061054e5761054e613106565b6020026020010181905250604051806040016040528060028152602001828152508260008151811061058257610582613106565b6020026020010181905250507f000000000000000000000000000000000000000000000000000000000000000073ffffffffffffffffffffffffffffffffffffffff16638b79543c6040518163ffffffff1660e01b8152600401602060405180830381865afa1580156105f9573d6000803e3d6000fd5b505050506040513d601f19601f8201168201806040525081019061061d9190613135565b73ffffffffffffffffffffffffffffffffffffffff1663666d87a0308a6040518363ffffffff1660e01b81526004016106579291906131ff565b6020604051808303816000875af1158015610676573d6000803e3d6000fd5b505050506040513d601f19601f8201168201806040525081019061069a9190613257565b91507f000000000000000000000000000000000000000000000000000000000000000073ffffffffffffffffffffffffffffffffffffffff1663619306306040518163ffffffff1660e01b8152600401602060405180830381865afa158015610707573d6000803e3d6000fd5b505050506040513d601f19601f8201168201806040525081019061072b9190613135565b73ffffffffffffffffffffffffffffffffffffffff1663a7f2a70b83898989896040518663ffffffff1660e01b815260040161076b959493929190613270565b6020604051808303816000875af115801561078a573d6000803e3d6000fd5b505050506040513d601f19601f820116820180604052508101906107ae9190613135565b507f000000000000000000000000000000000000000000000000000000000000000073ffffffffffffffffffffffffffffffffffffffff16637b621d3a8360017f000000000000000000000000000000000000000000000000000000000000000073ffffffffffffffffffffffffffffffffffffffff166360b3042c6040518163ffffffff1660e01b8152600401602060405180830381865afa158015610859573d6000803e3d6000fd5b505050506040513d601f19601f8201168201806040525081019061087d9190613257565b7f000000000000000000000000000000000000000000000000000000000000000073ffffffffffffffffffffffffffffffffffffffff1663737a79966040518163ffffffff1660e01b8152600401602060405180830381865afa1580156108e8573d6000803e3d6000fd5b505050506040513d601f19601f8201168201806040525081019061090c9190613257565b6040517fffffffff0000000000000000000000000000000000000000000000000000000060e087901b168152600481019490945262ffffff909216602484015263ffffffff908116604484015216606482015261eeee608482015260a4016020604051808303816000875af1158015610989573d6000803e3d6000fd5b505050506040513d601f19601f820116820180604052508101906109ad9190613135565b507f000000000000000000000000000000000000000000000000000000000000000073ffffffffffffffffffffffffffffffffffffffff1663111d861b8360405180608001604052808760600135815260200160128860000135610a1191906133f8565b8152604088810135602080840191909152600092820183905281516102a081018352610240810184815261026082018590526102808201859052815260a0808c0135828401526080808d013583860152606083018690528201859052810184905260c0810184905260e081018490526001610100820181905261012082018590526101408201859052610160820185905261018082018590526101a082018590526101c08201526101e0810184905273ffffffffffffffffffffffffffffffffffffffff7f00000000000000000000000000000000000000000000000000000000000000001661020082015261022081018490528251848152918201909252909190879082610b93565b610b806040518060c00160405280600073ffffffffffffffffffffffffffffffffffffffff168152602001600073ffffffffffffffffffffffffffffffffffffffff168152602001600081526020016000815260200160008152602001600081525090565b815260200190600190039081610b1b5790505b5060006040518863ffffffff1660e01b8152600401610bb897969594939291906136eb565b6020604051808303816000875af1158015610bd7573d6000803e3d6000fd5b505050506040513d601f19601f82011682018060405250810190610bfb9190613257565b5073ffffffffffffffffffffffffffffffffffffffff7f000000000000000000000000000000000000000000000000000000000000000016638ae9c07b83610c48601260208801356133f8565b8c8989604051602001610c5c92919061380c565b6040516020818303038152906040526000806040518763ffffffff1660e01b8152600401610c8f96959493929190613869565b6020604051808303816000875af1158015610cae573d6000803e3d6000fd5b505050506040513d601f19601f82011682018060405250810190610cd29190613257565b507f000000000000000000000000000000000000000000000000000000000000000073ffffffffffffffffffffffffffffffffffffffff16632bdfe0046040518163ffffffff1660e01b8152600401602060405180830381865afa158015610d3e573d6000803e3d6000fd5b505050506040513d601f19601f82011682018060405250810190610d629190613135565b73ffffffffffffffffffffffffffffffffffffffff1663ad007d636040518163ffffffff1660e01b8152600401602060405180830381865afa158015610dac573d6000803e3d6000fd5b505050506040513d601f19601f82011682018060405250810190610dd09190613135565b73ffffffffffffffffffffffffffffffffffffffff1663529cdd2e60405180606001604052808c73ffffffffffffffffffffffffffffffffffffffff1681526020018581526020016001805480602002602001604051908101604052809291908181526020018280548015610e6457602002820191906000526020600020905b815481526020019060010190808311610e50575b50505050508152506040518263ffffffff1660e01b8152600401610e8891906138be565b600060405180830381600087803b158015610ea257600080fd5b505af1158015610eb6573d6000803e3d6000fd5b50610ecb9250505060e0840160c08501613945565b610edd9065ffffffffffff1642613960565b60008381526002602052604090205550979650505050505050565b60007f000000000000000000000000000000000000000000000000000000000000000073ffffffffffffffffffffffffffffffffffffffff16638b79543c6040518163ffffffff1660e01b8152600401602060405180830381865afa158015610f65573d6000803e3d6000fd5b505050506040513d601f19601f82011682018060405250810190610f899190613135565b73ffffffffffffffffffffffffffffffffffffffff163373ffffffffffffffffffffffffffffffffffffffff1614610fc057600080fd5b73ffffffffffffffffffffffffffffffffffffffff851615610fe157600080fd5b507f150b7a020000000000000000000000000000000000000000000000000000000095945050505050565b6040517f1f51045300000000000000000000000000000000000000000000000000000000815260048101829052600090819073ffffffffffffffffffffffffffffffffffffffff7f00000000000000000000000000000000000000000000000000000000000000001690631f510453906024016103c060405180830381865afa15801561109d573d6000803e3d6000fd5b505050506040513d601f19601f820116820180604052508101906110c19190613b48565b5081519193509150600114611102576040517fc97554fa00000000000000000000000000000000000000000000000000000000815260040160405180910390fd5b60408051608080820183528481015182526000602080840182905260c08088015185870152606080860184905286516102a0810188526102408101858152610260820186905261028082018690528152808401859052888801518189015290810184905293840183905260a08401839052830182905260e08301829052610100830182905261012083018290526101408301829052610160830182905261018083018290526101a083018290526101c083018290526101e083018290526102008087015173ffffffffffffffffffffffffffffffffffffffff908116918501919091526102208781015190850152888352600282528583205486518481529283019096527f0000000000000000000000000000000000000000000000000000000000000000169463badbdf289489949093909290611263565b60408051808201909152600081526060602082015281526020019060019003908161123b5790505b5060408051600080825260208201909252906112f2565b6112df6040518060c00160405280600073ffffffffffffffffffffffffffffffffffffffff168152602001600073ffffffffffffffffffffffffffffffffffffffff168152602001600081526020016000815260200160008152602001600081525090565b81526020019060019003908161127a5790505b506040518763ffffffff1660e01b815260040161131496959493929190613bff565b6020604051808303816000875af1158015611333573d6000803e3d6000fd5b505050506040513d601f19601f820116820180604052508101906113579190613257565b50505050565b604080516001808252818301909252600091829190816020015b60408051808201909152600081526060602082015281526020019060019003908161137757505060408051600180825281830190925291925060009190602082015b6040805160e08101825260008082526020808301829052928201819052606082018190526080820181905260a0820181905260c082015282527fffffffffffffffffffffffffffffffffffffffffffffffffffffffffffffffff9092019101816113b95790505090506040518060e00160405280600015158152602001600015158152602001633b9aca008152602001600081526020018b73ffffffffffffffffffffffffffffffffffffffff16815260200160008152602001600073ffffffffffffffffffffffffffffffffffffffff16815250816001815181106114a1576114a1613106565b602002602001018190525060405180604001604052806002815260200182815250826000815181106114d5576114d5613106565b6020026020010181905250507f000000000000000000000000000000000000000000000000000000000000000073ffffffffffffffffffffffffffffffffffffffff16638b79543c6040518163ffffffff1660e01b8152600401602060405180830381865afa15801561154c573d6000803e3d6000fd5b505050506040513d601f19601f820116820180604052508101906115709190613135565b73ffffffffffffffffffffffffffffffffffffffff1663666d87a0308a6040518363ffffffff1660e01b81526004016115aa929190613cf3565b6020604051808303816000875af11580156115c9573d6000803e3d6000fd5b505050506040513d601f19601f820116820180604052508101906115ed9190613257565b915060007f000000000000000000000000000000000000000000000000000000000000000073ffffffffffffffffffffffffffffffffffffffff1663619306306040518163ffffffff1660e01b8152600401602060405180830381865afa15801561165c573d6000803e3d6000fd5b505050506040513d601f19601f820116820180604052508101906116809190613135565b73ffffffffffffffffffffffffffffffffffffffff1663a7f2a70b848a8a6040518463ffffffff1660e01b81526004016116bc93929190613d41565b6020604051808303816000875af11580156116db573d6000803e3d6000fd5b505050506040513d601f19601f820116820180604052508101906116ff9190613135565b90507f000000000000000000000000000000000000000000000000000000000000000073ffffffffffffffffffffffffffffffffffffffff16637b621d3a8460017f000000000000000000000000000000000000000000000000000000000000000073ffffffffffffffffffffffffffffffffffffffff166360b3042c6040518163ffffffff1660e01b8152600401602060405180830381865afa1580156117ab573d6000803e3d6000fd5b505050506040513d601f19601f820116820180604052508101906117cf9190613257565b7f000000000000000000000000000000000000000000000000000000000000000073ffffffffffffffffffffffffffffffffffffffff1663737a79966040518163ffffffff1660e01b8152600401602060405180830381865afa15801561183a573d6000803e3d6000fd5b505050506040513d601f19601f8201168201806040525081019061185e9190613257565b6040517fffffffff0000000000000000000000000000000000000000000000000000000060e087901b168152600481019490945262ffffff909216602484015263ffffffff908116604484015216606482015261eeee608482015260a4016020604051808303816000875af11580156118db573d6000803e3d6000fd5b505050506040513d601f19601f820116820180604052508101906118ff9190613135565b507f000000000000000000000000000000000000000000000000000000000000000073ffffffffffffffffffffffffffffffffffffffff1663111d861b8460405180608001604052808a60600135815260200160128b6000013561196391906133f8565b81526040808c0135602080840191909152600092820183905281516102a081018352610240810184815261026082018590526102808201859052815260a0808f0135928201929092526080808f01359382019390935260608101849052918201839052810182905260c0810182905260e081018290526001610100820181905261012082018390526101408201839052610160820183905261018082018390526101a082018390526101c08201526101e081018290523061020082015260ff8a16610220820152908781604051908082528060200260200182016040528015611ac357816020015b611ab06040518060c00160405280600073ffffffffffffffffffffffffffffffffffffffff168152602001600073ffffffffffffffffffffffffffffffffffffffff168152602001600081526020016000815260200160008152602001600081525090565b815260200190600190039081611a4b5790505b5060006040518863ffffffff1660e01b8152600401611ae897969594939291906136eb565b6020604051808303816000875af1158015611b07573d6000803e3d6000fd5b505050506040513d601f19601f82011682018060405250810190611b2b9190613257565b5073ffffffffffffffffffffffffffffffffffffffff7f000000000000000000000000000000000000000000000000000000000000000016638ae9c07b84611b78601260208b01356133f8565b8d8b604051602001611b8a9190613d76565b6040516020818303038152906040526000806040518763ffffffff1660e01b8152600401611bbd96959493929190613869565b6020604051808303816000875af1158015611bdc573d6000803e3d6000fd5b505050506040513d601f19601f82011682018060405250810190611c009190613257565b507f000000000000000000000000000000000000000000000000000000000000000073ffffffffffffffffffffffffffffffffffffffff16632bdfe0046040518163ffffffff1660e01b8152600401602060405180830381865afa158015611c6c573d6000803e3d6000fd5b505050506040513d601f19601f82011682018060405250810190611c909190613135565b73ffffffffffffffffffffffffffffffffffffffff1663ad007d636040518163ffffffff1660e01b8152600401602060405180830381865afa158015611cda573d6000803e3d6000fd5b505050506040513d601f19601f82011682018060405250810190611cfe9190613135565b73ffffffffffffffffffffffffffffffffffffffff1663529cdd2e60405180606001604052808d73ffffffffffffffffffffffffffffffffffffffff1681526020018681526020016001805480602002602001604051908101604052809291908181526020018280548015611d9257602002820191906000526020600020905b815481526020019060010190808311611d7e575b50505050508152506040518263ffffffff1660e01b8152600401611db691906138be565b600060405180830381600087803b158015611dd057600080fd5b505af1158015611de4573d6000803e3d6000fd5b50611df99250505060e0870160c08801613945565b611e0b9065ffffffffffff1642613960565b6000848152600260205260408120919091558551905b81811015611ee557868181518110611e3b57611e3b613106565b6020026020010151600360008781526020019081526020016000208281548110611e6757611e67613106565b600091825260209182902083516003929092020180547fffffffffffffffffffffffff00000000000000000000000000000000000000001673ffffffffffffffffffffffffffffffffffffffff90921691909117815590820151600182015560408201516002820190611eda9082613e7e565b505050600101611e21565b50505050979650505050505050565b60018181548110611f0457600080fd5b600091825260209091200154905081565b604080516000808252602082019092526060908190839081611f61565b60408051606080820183526000808352602083015291810191909152815260200190600190039081611f325790505b5060408051602081019091526000815291969195509350915050565b60036020528160005260406000208181548110611f9957600080fd5b600091825260209091206003909102018054600182015460028301805473ffffffffffffffffffffffffffffffffffffffff909316955090935090611fdd90613de2565b80601f016020809104026020016040519081016040528092919081815260200182805461200990613de2565b80156120565780601f1061202b57610100808354040283529160200191612056565b820191906000526020600020905b81548152906001019060200180831161203957829003601f168201915b5050505050905083565b60007f000000000000000000000000000000000000000000000000000000000000000073ffffffffffffffffffffffffffffffffffffffff16638b79543c6040518163ffffffff1660e01b8152600401602060405180830381865afa1580156120cd573d6000803e3d6000fd5b505050506040513d601f19601f820116820180604052508101906120f19190613135565b73ffffffffffffffffffffffffffffffffffffffff166306661abd6040518163ffffffff1660e01b8152600401602060405180830381865afa15801561213b573d6000803e3d6000fd5b505050506040513d601f19601f8201168201806040525081019061215f9190613257565b61216a906001613960565b905060007f000000000000000000000000000000000000000000000000000000000000000073ffffffffffffffffffffffffffffffffffffffff166370d7f24983886040518363ffffffff1660e01b81526004016121c99291906142c9565b6020604051808303816000875af11580156121e8573d6000803e3d6000fd5b505050506040513d601f19601f8201168201806040525081019061220c9190613135565b905083600061221c826001613960565b67ffffffffffffffff811115612234576122346128ca565b60405190808252806020026020018201604052801561228157816020015b604080516060808201835260008083526020830152918101919091528152602001906001900390816122525790505b50905060005b828110156122e1578787828181106122a1576122a1613106565b90506020028101906122b3919061449f565b6122bc906144dd565b8282815181106122ce576122ce613106565b6020908102919091010152600101612287565b5060405180606001604052808473ffffffffffffffffffffffffffffffffffffffff168152602001600081526020016040518060200160405280600081525081525081838151811061233557612335613106565b602002602001018190525061234f8d8d8d8d8d868b61135d565b505050509998505050505050505050565b600060608060607f000000000000000000000000000000000000000000000000000000000000000073ffffffffffffffffffffffffffffffffffffffff1663d46cf171866040518263ffffffff1660e01b81526004016123c0919061452b565b600060405180830381865afa1580156123dd573d6000803e3d6000fd5b505050506040513d6000823e601f3d9081017fffffffffffffffffffffffffffffffffffffffffffffffffffffffffffffffe0168201604052612423919081019061469f565b60c088013560009081526003602090815260408083208054825181850281018501909352808352969a509396509194919350849084015b8282101561254b5760008481526020908190206040805160608101825260038602909201805473ffffffffffffffffffffffffffffffffffffffff168352600181015493830193909352600283018054929392918401916124ba90613de2565b80601f01602080910402602001604051908101604052809291908181526020018280546124e690613de2565b80156125335780601f1061250857610100808354040283529160200191612533565b820191906000526020600020905b81548152906001019060200180831161251657829003601f168201915b5050505050815250508152602001906001019061245a565b5050825192935061256191508290506001613960565b67ffffffffffffffff811115612579576125796128ca565b6040519080825280602002602001820160405280156125c657816020015b604080516060808201835260008083526020830152918101919091528152602001906001900390816125975790505b50935060005b81811015612613578281815181106125e6576125e6613106565b602002602001015185828151811061260057612600613106565b60209081029190910101526001016125cc565b508260008151811061262757612627613106565b602002602001015184828151811061264157612641613106565b602090810291909101015261265a610160880188614818565b8080601f016020809104026020016040519081016040528093929190818152602001838380828437600092019190915250989a9299509597509095505050505050565b6000602082840312156126af57600080fd5b81357fffffffff00000000000000000000000000000000000000000000000000000000811681146126df57600080fd5b9392505050565b6000602082840312156126f857600080fd5b5035919050565b73ffffffffffffffffffffffffffffffffffffffff8116811461272157600080fd5b50565b803561272f816126ff565b919050565b60008083601f84011261274657600080fd5b50813567ffffffffffffffff81111561275e57600080fd5b60208301915083602082850101111561277657600080fd5b9250929050565b600060e0828403121561278f57600080fd5b50919050565b6000806000806000806000610160888a0312156127b157600080fd5b87356127bc816126ff565b9650602088013567ffffffffffffffff808211156127d957600080fd5b908901906040828c0312156127ed57600080fd5b9096506040890135908082111561280357600080fd5b61280f8b838c01612734565b909750955060608a013591508082111561282857600080fd5b506128358a828b01612734565b909450925061284990508960808a0161277d565b905092959891949750929550565b60008060008060006080868803121561286f57600080fd5b853561287a816126ff565b9450602086013561288a816126ff565b935060408601359250606086013567ffffffffffffffff8111156128ad57600080fd5b6128b988828901612734565b969995985093965092949392505050565b7f4e487b7100000000000000000000000000000000000000000000000000000000600052604160045260246000fd5b6040516060810167ffffffffffffffff8111828210171561291c5761291c6128ca565b60405290565b604051610240810167ffffffffffffffff8111828210171561291c5761291c6128ca565b604051610120810167ffffffffffffffff8111828210171561291c5761291c6128ca565b604051601f82017fffffffffffffffffffffffffffffffffffffffffffffffffffffffffffffffe016810167ffffffffffffffff811182821017156129b1576129b16128ca565b604052919050565b600067ffffffffffffffff8211156129d3576129d36128ca565b50601f017fffffffffffffffffffffffffffffffffffffffffffffffffffffffffffffffe01660200190565b6000612a12612a0d846129b9565b61296a565b9050828152838383011115612a2657600080fd5b828260208301376000602084830101529392505050565b600082601f830112612a4e57600080fd5b6126df838335602085016129ff565b600060408284031215612a6f57600080fd5b6040516040810167ffffffffffffffff8282108183111715612a9357612a936128ca565b816040528293508435915080821115612aab57600080fd5b50612ab885828601612a3d565b825250602083013560208201525092915050565b600067ffffffffffffffff821115612ae657612ae66128ca565b5060051b60200190565b600060608284031215612b0257600080fd5b612b0a6128f9565b90508135612b17816126ff565b815260208281013590820152604082013567ffffffffffffffff811115612b3d57600080fd5b8201601f81018413612b4e57600080fd5b612b5d848235602084016129ff565b60408301525092915050565b600082601f830112612b7a57600080fd5b81356020612b8a612a0d83612acc565b82815260059290921b84018101918181019086841115612ba957600080fd5b8286015b84811015612be957803567ffffffffffffffff811115612bcd5760008081fd5b612bdb8986838b0101612af0565b845250918301918301612bad565b509695505050505050565b803560ff8116811461272f57600080fd5b60008060008060008060006101a0888a031215612c2157600080fd5b612c2a88612724565b9650602088013567ffffffffffffffff80821115612c4757600080fd5b612c538b838c01612a5d565b975060408a0135915080821115612c6957600080fd5b612c758b838c01612a3d565b965060608a0135915080821115612c8b57600080fd5b612c978b838c01612a3d565b9550612ca68b60808c0161277d565b94506101608a0135915080821115612cbd57600080fd5b50612cca8a828b01612b69565b9250506128496101808901612bf4565b600060208284031215612cec57600080fd5b813567ffffffffffffffff811115612d0357600080fd5b82016101e081850312156126df57600080fd5b60005b83811015612d31578181015183820152602001612d19565b50506000910152565b60008151808452612d52816020860160208601612d16565b601f017fffffffffffffffffffffffffffffffffffffffffffffffffffffffffffffffe0169290920160200192915050565b6000606085835260208181850152612d9e82850187612d3a565b6040858203818701528187518084528484019150848160051b850101858a0160005b83811015612e3b578683037fffffffffffffffffffffffffffffffffffffffffffffffffffffffffffffffe00185528151805173ffffffffffffffffffffffffffffffffffffffff16845288810151898501528601518684018a9052612e288a850182612d3a565b9589019593505090870190600101612dc0565b50909c9b505050505050505050505050565b60008060408385031215612e6057600080fd5b50508035926020909101359150565b73ffffffffffffffffffffffffffffffffffffffff84168152826020820152606060408201526000612ea46060830184612d3a565b95945050505050565b60006101c0828403121561278f57600080fd5b60008083601f840112612ed257600080fd5b50813567ffffffffffffffff811115612eea57600080fd5b6020830191508360208260051b850101111561277657600080fd5b60008060008060008060008060006101c08a8c031215612f2457600080fd5b612f2d8a612724565b985060208a013567ffffffffffffffff80821115612f4a57600080fd5b612f568d838e01612a5d565b995060408c0135915080821115612f6c57600080fd5b612f788d838e01612a3d565b985060608c0135915080821115612f8e57600080fd5b612f9a8d838e01612a3d565b9750612fa98d60808e0161277d565b96506101608c0135915080821115612fc057600080fd5b612fcc8d838e01612ead565b95506101808c0135915080821115612fe357600080fd5b50612ff08c828d01612ec0565b909450925061300490506101a08b01612bf4565b90509295985092959850929598565b60006020828403121561302557600080fd5b813567ffffffffffffffff81111561303c57600080fd5b82016101a081850312156126df57600080fd5b600060608583526020818185015261306982850187612d3a565b6040858203818701528187518084528484019150848160051b850101858a0160005b83811015612e3b578683037fffffffffffffffffffffffffffffffffffffffffffffffffffffffffffffffe00185528151805173ffffffffffffffffffffffffffffffffffffffff16845288810151898501528601518684018a90526130f38a850182612d3a565b958901959350509087019060010161308b565b7f4e487b7100000000000000000000000000000000000000000000000000000000600052603260045260246000fd5b60006020828403121561314757600080fd5b81516126df816126ff565b60008083357fffffffffffffffffffffffffffffffffffffffffffffffffffffffffffffffe184360301811261318757600080fd5b830160208101925035905067ffffffffffffffff8111156131a757600080fd5b80360382131561277657600080fd5b8183528181602085013750600060208284010152600060207fffffffffffffffffffffffffffffffffffffffffffffffffffffffffffffffe0601f840116840101905092915050565b73ffffffffffffffffffffffffffffffffffffffff8316815260406020820152600061322b8384613152565b60408085015261323f6080850182846131b6565b91505060208401356060840152809150509392505050565b60006020828403121561326957600080fd5b5051919050565b85815260606020820152600061328a6060830186886131b6565b828103604084015261329d8185876131b6565b98975050505050505050565b7f4e487b7100000000000000000000000000000000000000000000000000000000600052601160045260246000fd5b600181815b8085111561333157817fffffffffffffffffffffffffffffffffffffffffffffffffffffffffffffffff04821115613317576133176132a9565b8085161561332457918102915b93841c93908002906132dd565b509250929050565b600082613348575060016103cd565b81613355575060006103cd565b816001811461336b576002811461337557613391565b60019150506103cd565b60ff841115613386576133866132a9565b50506001821b6103cd565b5060208310610133831016604e8410600b84101617156133b4575081810a6103cd565b6133be83836132d8565b807fffffffffffffffffffffffffffffffffffffffffffffffffffffffffffffffff048211156133f0576133f06132a9565b029392505050565b60006126df60ff841683613339565b61342c8282518051151582526020808201511515908301526040908101511515910152565b6020810151606083015260408101516080830152606081015160a0830152608081015161345d60c084018215159052565b5060a081015180151560e08401525060c08101516101006134818185018315159052565b60e083015191506101206134988186018415159052565b908301519150610140906134af8583018415159052565b83015191506101606134c48582018415159052565b908301519150610180906134db8583018415159052565b83015191506101a06134f08582018415159052565b9083015191506101c0906135078583018415159052565b83015191506101e061351c8582018415159052565b908301519150610200906135338583018415159052565b83015191506102206135488582018415159052565b9083015173ffffffffffffffffffffffffffffffffffffffff16610240850152909101516102609092019190915250565b6000815180845260208085019450848260051b86018286016000805b86811015613655578484038a52825180518552860151604087860181905281518187018190529188019160609081880190865b8181101561363e5785518051151584528c81015115158d8501528581015186850152848101518585015260808082015173ffffffffffffffffffffffffffffffffffffffff9081169186019190915260a0808301519086015260c0918201511690840152948b019460e0909201916001016135c8565b50509c89019c965050509286019250600101613595565b509198975050505050505050565b600081518084526020808501945080840160005b838110156136e0578151805173ffffffffffffffffffffffffffffffffffffffff908116895284820151168489015260408082015190890152606080820151908901526080808201519089015260a0908101519088015260c09096019590820190600101613677565b509495945050505050565b60006103c089835260206137388185018b80518252602081015160208301526040810151604083015273ffffffffffffffffffffffffffffffffffffffff60608201511660608301525050565b61374560a085018a613407565b876103208501528161034085015261375f82850188613579565b91508382036103608501526137748287613663565b848103610380860152855480825260008781528381209450918301915b818110156137c357845473ffffffffffffffffffffffffffffffffffffffff1683526001948501949284019201613791565b50508481036103a0860152601b81527f4465706c6f7965642052657461696c69737420747265617375727900000000006020820152604081019c9b505050505050505050505050565b7f5072656d696e746564200000000000000000000000000000000000000000000081528183600a8301377f20746f6b656e732e0000000000000000000000000000000000000000000000009101600a810191909152601201919050565b86815285602082015273ffffffffffffffffffffffffffffffffffffffff8516604082015260c0606082015260006138a460c0830186612d3a565b93151560808301525090151560a090910152949350505050565b600060208083526080830173ffffffffffffffffffffffffffffffffffffffff85511682850152818501516040850152604085015160608086015281815180845260a0870191508483019350600092505b80831015612be9578351825292840192600192909201919084019061390f565b803565ffffffffffff8116811461272f57600080fd5b60006020828403121561395757600080fd5b6126df8261392f565b808201808211156103cd576103cd6132a9565b805161272f816126ff565b801515811461272157600080fd5b805161272f8161397e565b6000606082840312156139a957600080fd5b6139b16128f9565b905081516139be8161397e565b815260208201516139ce8161397e565b602082015260408201516139e18161397e565b604082015292915050565b600061028082840312156139ff57600080fd5b613a07612922565b9050613a138383613997565b8152606082015160208201526080820151604082015260a08201516060820152613a3f60c0830161398c565b6080820152613a5060e0830161398c565b60a0820152610100613a6381840161398c565b60c0830152610120613a7681850161398c565b60e0840152610140613a8981860161398c565b838501526101609250613a9d83860161398c565b828501526101809150613ab182860161398c565b908401526101a0613ac385820161398c565b838501526101c09250613ad783860161398c565b828501526101e09150613aeb82860161398c565b90840152610200613afd85820161398c565b838501526102209250613b1183860161398c565b82850152613b226102408601613973565b818501525050610260830151818301525092915050565b80516003811061272f57600080fd5b60008060008385036103c0811215613b5f57600080fd5b61012080821215613b6f57600080fd5b613b77612946565b9150855182526020860151602083015260408601516040830152606086015160608301526080860151608083015260a086015160a083015260c086015160c0830152613bc560e08701613973565b60e0830152610100808701518184015250819450613be5878288016139ec565b93505050613bf66103a08501613b39565b90509250925092565b60006103a0888352613c4b602084018980518252602081015160208301526040810151604083015273ffffffffffffffffffffffffffffffffffffffff60608201511660608301525050565b613c5860a0840188613407565b8561032084015280610340840152613c7281840186613579565b9050828103610360840152613c878185613663565b838103610380909401939093525050602c81527f5363686564756c656420626f6f737420657870697279206f662052657461696c60208201527f697374207472656173757279000000000000000000000000000000000000000060408201526060019695505050505050565b73ffffffffffffffffffffffffffffffffffffffff831681526040602082015260008251604080840152613d2a6080840182612d3a565b905060208401516060840152809150509392505050565b838152606060208201526000613d5a6060830185612d3a565b8281036040840152613d6c8185612d3a565b9695505050505050565b7f5072656d696e7465642000000000000000000000000000000000000000000000815260008251613dae81600a850160208701612d16565b7f20746f6b656e732e000000000000000000000000000000000000000000000000600a939091019283015250601201919050565b600181811c90821680613df657607f821691505b60208210810361278f577f4e487b7100000000000000000000000000000000000000000000000000000000600052602260045260246000fd5b601f821115613e7957600081815260208120601f850160051c81016020861015613e565750805b601f850160051c820191505b81811015613e7557828155600101613e62565b5050505b505050565b815167ffffffffffffffff811115613e9857613e986128ca565b613eac81613ea68454613de2565b84613e2f565b602080601f831160018114613eff5760008415613ec95750858301515b7fffffffffffffffffffffffffffffffffffffffffffffffffffffffffffffffff600386901b1c1916600185901b178555613e75565b6000858152602081207fffffffffffffffffffffffffffffffffffffffffffffffffffffffffffffffe08616915b82811015613f4c57888601518255948401946001909101908401613f2d565b5085821015613f8857878501517fffffffffffffffffffffffffffffffffffffffffffffffffffffffffffffffff600388901b60f8161c191681555b5050505050600190811b01905550565b600082357fffffffffffffffffffffffffffffffffffffffffffffffffffffffffffffff81833603018112613fcc57600080fd5b90910192915050565b80356cffffffffffffffffffffffffff8116811461272f57600080fd5b803563ffffffff8116811461272f57600080fd5b803561ffff8116811461272f57600080fd5b803562ffffff8116811461272f57600080fd5b803561272f8161397e565b6000608080840183357fffffffffffffffffffffffffffffffffffffffffffffffffffffffffffffffe185360301811261406f57600080fd5b8401602081810191359067ffffffffffffffff82111561408e57600080fd5b61016080830236038413156140a257600080fd5b8589529382905260a09384890160005b848110156141bd576140da826140c788613fd5565b6cffffffffffffffffffffffffff169052565b6140e5848701613ff2565b63ffffffff168483015260406140fc878201613ff2565b63ffffffff16908301526060614113878201614006565b61ffff1690830152614126868901612724565b73ffffffffffffffffffffffffffffffffffffffff1688830152858701358783015260c0614155818801614018565b62ffffff169083015260e061416b87820161402b565b15159083015261010061417f87820161402b565b15159083015261012061419387820161402b565b1515908301526101406141a787820161402b565b15159083015294820194908201906001016140b2565b506141c9838a0161392f565b65ffffffffffff81168b85015296506141e460408a0161392f565b65ffffffffffff811660408c0152965061420060608a01612724565b73ffffffffffffffffffffffffffffffffffffffff811660608c015296509998505050505050505050565b80356142368161397e565b1515825260208101356142488161397e565b15156020830152604081013561425d8161397e565b1515604083015260608101356142728161397e565b8015156060840152505050565b80356002811061272f57600080fd5b600281106142c5577f4e487b7100000000000000000000000000000000000000000000000000000000600052602160045260246000fd5b9052565b8281526040602082015260006142df8384613152565b6101c060408501526142f6610200850182846131b6565b9150506143066020850185613152565b7fffffffffffffffffffffffffffffffffffffffffffffffffffffffffffffffc08086850301606087015261433c8483856131b6565b935061434a60408801612724565b73ffffffffffffffffffffffffffffffffffffffff8116608088015292506143756060880188613152565b93509150808685030160a087015261438e8484846131b6565b935061439c60808801612724565b73ffffffffffffffffffffffffffffffffffffffff811660c088015292506143c760a0880188613152565b93509150808685030160e08701526143e08484846131b6565b93506143ef60c0880188613f98565b925061010091508086850301828701525061440a8383614036565b925061441860e08701612724565b915061012061443e8187018473ffffffffffffffffffffffffffffffffffffffff169052565b614449828801612724565b73ffffffffffffffffffffffffffffffffffffffff81166101408801529250614478610160870182890161422b565b5050506144886101a0850161427f565b6144966101e085018261428e565b50949350505050565b600082357fffffffffffffffffffffffffffffffffffffffffffffffffffffffffffffffa18336030181126144d357600080fd5b9190910192915050565b60006103cd3683612af0565b80356144f4816126ff565b73ffffffffffffffffffffffffffffffffffffffff1682526020818101359083015260408082013590830152606090810135910152565b602081526145596020820161453f84612724565b73ffffffffffffffffffffffffffffffffffffffff169052565b600061456760208401612724565b73ffffffffffffffffffffffffffffffffffffffff811660408401525061459460608301604085016144e9565b60c083013560e083015261010060e0840135818401526145b5818501612724565b90506101206145db8185018373ffffffffffffffffffffffffffffffffffffffff169052565b6101409150808501358285015250610160818501358185015261460081860186613152565b925090506101a0610180818187015261461e6101c0870185856131b6565b935061462c81880188613152565b935090507fffffffffffffffffffffffffffffffffffffffffffffffffffffffffffffffe086850301828701526146648484836131b6565b979650505050505050565b600061467d612a0d846129b9565b905082815283838301111561469157600080fd5b6126df836020830184612d16565b6000806000606084860312156146b457600080fd5b8351925060208085015167ffffffffffffffff808211156146d457600080fd5b818701915087601f8301126146e857600080fd5b6146f688835185850161466f565b9450604087015191508082111561470c57600080fd5b818701915087601f83011261472057600080fd5b815161472e612a0d82612acc565b81815260059190911b8301840190848101908a83111561474d57600080fd5b8585015b838110156148075780518581111561476857600080fd5b86016060818e037fffffffffffffffffffffffffffffffffffffffffffffffffffffffffffffffe001121561479c57600080fd5b6147a46128f9565b888201516147b1816126ff565b81526040820151898201526060820151878111156147ce57600080fd5b8083019250508d603f8301126147e357600080fd5b6147f48e8a8401516040850161466f565b6040820152845250918601918601614751565b508096505050505050509250925092565b60008083357fffffffffffffffffffffffffffffffffffffffffffffffffffffffffffffffe184360301811261484d57600080fd5b83018035915067ffffffffffffffff82111561486857600080fd5b60200191503681900382131561277657600080fdfea26469706673582212208af32e82507aca0ac82fab13d0943cbde747ab23366cc477eaed2005a020360464736f6c63430008150033",
    "linkReferences": {}
  },
  "methodIdentifiers": {
    "buybackDelegate()": "d3967525",
    "controller()": "f77c4791",
    "delegateAllocationsOf(uint256,uint256)": "abc603e3",
    "delegateDeployer()": "8f3d964b",
    "deployBasicProjectFor(address,(string,uint256),string,string,(uint256,uint256,uint256,uint256,uint256,uint256,uint48))": "0e53d9cc",
    "deployPayAllocatorProjectFor(address,(string,uint256),string,string,(uint256,uint256,uint256,uint256,uint256,uint256,uint48),(address,uint256,bytes)[],uint8)": "4e777fd7",
    "deployTiered721PayAllocatorProjectFor(address,(string,uint256),string,string,(uint256,uint256,uint256,uint256,uint256,uint256,uint48),(string,string,address,string,address,string,((uint104,uint32,uint32,uint16,address,bytes32,uint24,bool,bool,bool,bool)[],uint48,uint48,address),address,address,(bool,bool,bool,bool),uint8),(address,uint256,bytes)[],uint8)": "c7e221d7",
    "directory()": "c41c2f24",
    "onERC721Received(address,address,uint256,bytes)": "150b7a02",
    "payParams((address,address,(address,uint256,uint256,uint256),uint256,uint256,address,uint256,uint256,string,bytes))": "d46cf171",
    "permissionIndexes(uint256)": "9483e771",
    "reconfigurationStartTimestampOf(uint256)": "560f7b03",
    "redeemParams((address,address,uint256,uint256,uint256,uint256,uint256,(address,uint256,uint256,uint256),bool,uint256,string,bytes))": "a51cfd18",
    "scheduleReconfigurationOf(uint256)": "3ce6d3e2",
    "supportsInterface(bytes4)": "01ffc9a7",
    "terminals(uint256)": "0219758e"
  },
  "id": 111
}