{
  "abi": [
    {
      "inputs": [
        {
          "internalType": "contract IJBDirectory",
          "name": "_directory",
          "type": "address"
        },
        {
          "internalType": "contract IJBTiered721DelegateDeployer",
          "name": "_delegateDeployer",
          "type": "address"
        },
        {
          "internalType": "contract IJBController3_1",
          "name": "_controller",
          "type": "address"
        }
      ],
      "stateMutability": "nonpayable",
      "type": "constructor"
    },
    {
      "inputs": [],
      "name": "BAD_DEV_TAX_SEQUENCE",
      "type": "error"
    },
    {
      "inputs": [],
      "name": "RECONFIGURATION_ALREADY_SCHEDULED",
      "type": "error"
    },
    {
      "inputs": [],
      "name": "RECONFIGURATION_NOT_POSSIBLE",
      "type": "error"
    },
    {
      "inputs": [
        {
          "internalType": "uint256",
          "name": "",
          "type": "uint256"
        }
      ],
      "name": "buybackDelegateDataSourceOf",
      "outputs": [
        {
          "internalType": "contract IJBGenericBuybackDelegate",
          "name": "",
          "type": "address"
        }
      ],
      "stateMutability": "view",
      "type": "function"
    },
    {
      "inputs": [
        {
          "internalType": "uint256",
          "name": "",
          "type": "uint256"
        }
      ],
      "name": "buybackDelegatePermissionIndexes",
      "outputs": [
        {
          "internalType": "uint256",
          "name": "",
          "type": "uint256"
        }
      ],
      "stateMutability": "view",
      "type": "function"
    },
    {
      "inputs": [],
      "name": "controller",
      "outputs": [
        {
          "internalType": "contract IJBController3_1",
          "name": "",
          "type": "address"
        }
      ],
      "stateMutability": "view",
      "type": "function"
    },
    {
      "inputs": [
        {
          "internalType": "uint256",
          "name": "networkId",
          "type": "uint256"
        }
      ],
      "name": "currentDevTaxPeriodNumberOf",
      "outputs": [
        {
          "internalType": "uint256",
          "name": "",
          "type": "uint256"
        }
      ],
      "stateMutability": "view",
      "type": "function"
    },
    {
      "inputs": [
        {
          "internalType": "uint256",
          "name": "",
          "type": "uint256"
        },
        {
          "internalType": "uint256",
          "name": "",
          "type": "uint256"
        }
      ],
      "name": "delegateAllocationsOf",
      "outputs": [
        {
          "internalType": "contract IJBPayDelegate3_1_1",
          "name": "delegate",
          "type": "address"
        },
        {
          "internalType": "uint256",
          "name": "amount",
          "type": "uint256"
        },
        {
          "internalType": "bytes",
          "name": "metadata",
          "type": "bytes"
        }
      ],
      "stateMutability": "view",
      "type": "function"
    },
    {
      "inputs": [],
      "name": "delegateDeployer",
      "outputs": [
        {
          "internalType": "contract IJBTiered721DelegateDeployer",
          "name": "",
          "type": "address"
        }
      ],
      "stateMutability": "view",
      "type": "function"
    },
    {
      "inputs": [
        {
          "internalType": "address",
          "name": "_operator",
          "type": "address"
        },
        {
          "components": [
            {
              "internalType": "string",
              "name": "content",
              "type": "string"
            },
            {
              "internalType": "uint256",
              "name": "domain",
              "type": "uint256"
            }
          ],
          "internalType": "struct JBProjectMetadata",
          "name": "_networkMetadata",
          "type": "tuple"
        },
        {
          "internalType": "string",
          "name": "_name",
          "type": "string"
        },
        {
          "internalType": "string",
          "name": "_symbol",
          "type": "string"
        },
        {
          "components": [
            {
              "internalType": "uint256",
              "name": "initialIssuanceRate",
              "type": "uint256"
            },
            {
              "internalType": "uint256",
              "name": "premintTokenAmount",
              "type": "uint256"
            },
            {
              "internalType": "uint256",
              "name": "generationTax",
              "type": "uint256"
            },
            {
              "internalType": "uint256",
              "name": "generationDuration",
              "type": "uint256"
            },
            {
              "internalType": "uint256",
              "name": "exitTaxRate",
              "type": "uint256"
            },
            {
              "components": [
                {
                  "internalType": "uint128",
                  "name": "rate",
                  "type": "uint128"
                },
                {
                  "internalType": "uint128",
                  "name": "startsAtOrAfter",
                  "type": "uint128"
                }
              ],
              "internalType": "struct DevTaxPeriod[]",
              "name": "devTaxPeriods",
              "type": "tuple[]"
            },
            {
              "internalType": "uint24",
              "name": "poolFee",
              "type": "uint24"
            }
          ],
          "internalType": "struct BasicRetailistJBParams",
          "name": "_data",
          "type": "tuple"
        },
        {
          "internalType": "contract IJBPaymentTerminal[]",
          "name": "_terminals",
          "type": "address[]"
        },
        {
          "internalType": "contract IJBGenericBuybackDelegate",
          "name": "_buybackDelegate",
          "type": "address"
        }
      ],
      "name": "deployBasicNetworkFor",
      "outputs": [
        {
          "internalType": "uint256",
          "name": "networkId",
          "type": "uint256"
        }
      ],
      "stateMutability": "nonpayable",
      "type": "function"
    },
    {
      "inputs": [
        {
          "internalType": "address",
          "name": "_operator",
          "type": "address"
        },
        {
          "components": [
            {
              "internalType": "string",
              "name": "content",
              "type": "string"
            },
            {
              "internalType": "uint256",
              "name": "domain",
              "type": "uint256"
            }
          ],
          "internalType": "struct JBProjectMetadata",
          "name": "_networkMetadata",
          "type": "tuple"
        },
        {
          "internalType": "string",
          "name": "_name",
          "type": "string"
        },
        {
          "internalType": "string",
          "name": "_symbol",
          "type": "string"
        },
        {
          "components": [
            {
              "internalType": "uint256",
              "name": "initialIssuanceRate",
              "type": "uint256"
            },
            {
              "internalType": "uint256",
              "name": "premintTokenAmount",
              "type": "uint256"
            },
            {
              "internalType": "uint256",
              "name": "generationTax",
              "type": "uint256"
            },
            {
              "internalType": "uint256",
              "name": "generationDuration",
              "type": "uint256"
            },
            {
              "internalType": "uint256",
              "name": "exitTaxRate",
              "type": "uint256"
            },
            {
              "components": [
                {
                  "internalType": "uint128",
                  "name": "rate",
                  "type": "uint128"
                },
                {
                  "internalType": "uint128",
                  "name": "startsAtOrAfter",
                  "type": "uint128"
                }
              ],
              "internalType": "struct DevTaxPeriod[]",
              "name": "devTaxPeriods",
              "type": "tuple[]"
            },
            {
              "internalType": "uint24",
              "name": "poolFee",
              "type": "uint24"
            }
          ],
          "internalType": "struct BasicRetailistJBParams",
          "name": "_data",
          "type": "tuple"
        },
        {
          "internalType": "contract IJBPaymentTerminal[]",
          "name": "_terminals",
          "type": "address[]"
        },
        {
          "internalType": "contract IJBGenericBuybackDelegate",
          "name": "_buybackDelegate",
          "type": "address"
        },
        {
          "components": [
            {
              "internalType": "contract IJBPayDelegate3_1_1",
              "name": "delegate",
              "type": "address"
            },
            {
              "internalType": "uint256",
              "name": "amount",
              "type": "uint256"
            },
            {
              "internalType": "bytes",
              "name": "metadata",
              "type": "bytes"
            }
          ],
          "internalType": "struct JBPayDelegateAllocation3_1_1[]",
          "name": "_delegateAllocations",
          "type": "tuple[]"
        },
        {
          "internalType": "uint8",
          "name": "_extraFundingCycleMetadata",
          "type": "uint8"
        }
      ],
      "name": "deployPayAllocatorNetworkFor",
      "outputs": [
        {
          "internalType": "uint256",
          "name": "networkId",
          "type": "uint256"
        }
      ],
      "stateMutability": "nonpayable",
      "type": "function"
    },
    {
      "inputs": [
        {
          "internalType": "address",
          "name": "_operator",
          "type": "address"
        },
        {
          "components": [
            {
              "internalType": "string",
              "name": "content",
              "type": "string"
            },
            {
              "internalType": "uint256",
              "name": "domain",
              "type": "uint256"
            }
          ],
          "internalType": "struct JBProjectMetadata",
          "name": "_networkMetadata",
          "type": "tuple"
        },
        {
          "internalType": "string",
          "name": "_name",
          "type": "string"
        },
        {
          "internalType": "string",
          "name": "_symbol",
          "type": "string"
        },
        {
          "components": [
            {
              "internalType": "uint256",
              "name": "initialIssuanceRate",
              "type": "uint256"
            },
            {
              "internalType": "uint256",
              "name": "premintTokenAmount",
              "type": "uint256"
            },
            {
              "internalType": "uint256",
              "name": "generationTax",
              "type": "uint256"
            },
            {
              "internalType": "uint256",
              "name": "generationDuration",
              "type": "uint256"
            },
            {
              "internalType": "uint256",
              "name": "exitTaxRate",
              "type": "uint256"
            },
            {
              "components": [
                {
                  "internalType": "uint128",
                  "name": "rate",
                  "type": "uint128"
                },
                {
                  "internalType": "uint128",
                  "name": "startsAtOrAfter",
                  "type": "uint128"
                }
              ],
              "internalType": "struct DevTaxPeriod[]",
              "name": "devTaxPeriods",
              "type": "tuple[]"
            },
            {
              "internalType": "uint24",
              "name": "poolFee",
              "type": "uint24"
            }
          ],
          "internalType": "struct BasicRetailistJBParams",
          "name": "_data",
          "type": "tuple"
        },
        {
          "internalType": "contract IJBPaymentTerminal[]",
          "name": "_terminals",
          "type": "address[]"
        },
        {
          "internalType": "contract IJBGenericBuybackDelegate",
          "name": "_buybackDelegate",
          "type": "address"
        },
        {
          "components": [
            {
              "internalType": "string",
              "name": "name",
              "type": "string"
            },
            {
              "internalType": "string",
              "name": "symbol",
              "type": "string"
            },
            {
              "internalType": "contract IJBFundingCycleStore",
              "name": "fundingCycleStore",
              "type": "address"
            },
            {
              "internalType": "string",
              "name": "baseUri",
              "type": "string"
            },
            {
              "internalType": "contract IJB721TokenUriResolver",
              "name": "tokenUriResolver",
              "type": "address"
            },
            {
              "internalType": "string",
              "name": "contractUri",
              "type": "string"
            },
            {
              "components": [
                {
                  "components": [
                    {
                      "internalType": "uint104",
                      "name": "price",
                      "type": "uint104"
                    },
                    {
                      "internalType": "uint32",
                      "name": "initialQuantity",
                      "type": "uint32"
                    },
                    {
                      "internalType": "uint32",
                      "name": "votingUnits",
                      "type": "uint32"
                    },
                    {
                      "internalType": "uint16",
                      "name": "reservedRate",
                      "type": "uint16"
                    },
                    {
                      "internalType": "address",
                      "name": "reservedTokenBeneficiary",
                      "type": "address"
                    },
                    {
                      "internalType": "bytes32",
                      "name": "encodedIPFSUri",
                      "type": "bytes32"
                    },
                    {
                      "internalType": "uint24",
                      "name": "category",
                      "type": "uint24"
                    },
                    {
                      "internalType": "bool",
                      "name": "allowManualMint",
                      "type": "bool"
                    },
                    {
                      "internalType": "bool",
                      "name": "shouldUseReservedTokenBeneficiaryAsDefault",
                      "type": "bool"
                    },
                    {
                      "internalType": "bool",
                      "name": "transfersPausable",
                      "type": "bool"
                    },
                    {
                      "internalType": "bool",
                      "name": "useVotingUnits",
                      "type": "bool"
                    }
                  ],
                  "internalType": "struct JB721TierParams[]",
                  "name": "tiers",
                  "type": "tuple[]"
                },
                {
                  "internalType": "uint48",
                  "name": "currency",
                  "type": "uint48"
                },
                {
                  "internalType": "uint48",
                  "name": "decimals",
                  "type": "uint48"
                },
                {
                  "internalType": "contract IJBPrices",
                  "name": "prices",
                  "type": "address"
                }
              ],
              "internalType": "struct JB721PricingParams",
              "name": "pricing",
              "type": "tuple"
            },
            {
              "internalType": "address",
              "name": "reservedTokenBeneficiary",
              "type": "address"
            },
            {
              "internalType": "contract IJBTiered721DelegateStore",
              "name": "store",
              "type": "address"
            },
            {
              "components": [
                {
                  "internalType": "bool",
                  "name": "lockReservedTokenChanges",
                  "type": "bool"
                },
                {
                  "internalType": "bool",
                  "name": "lockVotingUnitChanges",
                  "type": "bool"
                },
                {
                  "internalType": "bool",
                  "name": "lockManualMintingChanges",
                  "type": "bool"
                },
                {
                  "internalType": "bool",
                  "name": "preventOverspending",
                  "type": "bool"
                }
              ],
              "internalType": "struct JBTiered721Flags",
              "name": "flags",
              "type": "tuple"
            },
            {
              "internalType": "enum JB721GovernanceType",
              "name": "governanceType",
              "type": "uint8"
            }
          ],
          "internalType": "struct JBDeployTiered721DelegateData",
          "name": "_deployTiered721DelegateData",
          "type": "tuple"
        },
        {
          "components": [
            {
              "internalType": "contract IJBPayDelegate3_1_1",
              "name": "delegate",
              "type": "address"
            },
            {
              "internalType": "uint256",
              "name": "amount",
              "type": "uint256"
            },
            {
              "internalType": "bytes",
              "name": "metadata",
              "type": "bytes"
            }
          ],
          "internalType": "struct JBPayDelegateAllocation3_1_1[]",
          "name": "_otherDelegateAllocations",
          "type": "tuple[]"
        },
        {
          "internalType": "uint8",
          "name": "_extraFundingCycleMetadata",
          "type": "uint8"
        }
      ],
      "name": "deployTiered721PayAllocatorNetworkFor",
      "outputs": [
        {
          "internalType": "uint256",
          "name": "networkId",
          "type": "uint256"
        }
      ],
      "stateMutability": "nonpayable",
      "type": "function"
    },
    {
      "inputs": [
        {
          "internalType": "uint256",
          "name": "networkId",
          "type": "uint256"
        },
        {
          "internalType": "uint256",
          "name": "",
          "type": "uint256"
        }
      ],
      "name": "devTaxPeriodsOf",
      "outputs": [
        {
          "internalType": "uint128",
          "name": "rate",
          "type": "uint128"
        },
        {
          "internalType": "uint128",
          "name": "startsAtOrAfter",
          "type": "uint128"
        }
      ],
      "stateMutability": "view",
      "type": "function"
    },
    {
      "inputs": [],
      "name": "directory",
      "outputs": [
        {
          "internalType": "contract IJBDirectory",
          "name": "",
          "type": "address"
        }
      ],
      "stateMutability": "view",
      "type": "function"
    },
    {
      "inputs": [
        {
          "internalType": "address",
          "name": "_operator",
          "type": "address"
        },
        {
          "internalType": "address",
          "name": "_from",
          "type": "address"
        },
        {
          "internalType": "uint256",
          "name": "_tokenId",
          "type": "uint256"
        },
        {
          "internalType": "bytes",
          "name": "_data",
          "type": "bytes"
        }
      ],
      "name": "onERC721Received",
      "outputs": [
        {
          "internalType": "bytes4",
          "name": "",
          "type": "bytes4"
        }
      ],
      "stateMutability": "view",
      "type": "function"
    },
    {
      "inputs": [
        {
          "internalType": "uint256",
          "name": "",
          "type": "uint256"
        }
      ],
      "name": "operatorPermissionIndexes",
      "outputs": [
        {
          "internalType": "uint256",
          "name": "",
          "type": "uint256"
        }
      ],
      "stateMutability": "view",
      "type": "function"
    },
    {
      "inputs": [
        {
          "components": [
            {
              "internalType": "contract IJBPaymentTerminal",
              "name": "terminal",
              "type": "address"
            },
            {
              "internalType": "address",
              "name": "payer",
              "type": "address"
            },
            {
              "components": [
                {
                  "internalType": "address",
                  "name": "token",
                  "type": "address"
                },
                {
                  "internalType": "uint256",
                  "name": "value",
                  "type": "uint256"
                },
                {
                  "internalType": "uint256",
                  "name": "decimals",
                  "type": "uint256"
                },
                {
                  "internalType": "uint256",
                  "name": "currency",
                  "type": "uint256"
                }
              ],
              "internalType": "struct JBTokenAmount",
              "name": "amount",
              "type": "tuple"
            },
            {
              "internalType": "uint256",
              "name": "projectId",
              "type": "uint256"
            },
            {
              "internalType": "uint256",
              "name": "currentFundingCycleConfiguration",
              "type": "uint256"
            },
            {
              "internalType": "address",
              "name": "beneficiary",
              "type": "address"
            },
            {
              "internalType": "uint256",
              "name": "weight",
              "type": "uint256"
            },
            {
              "internalType": "uint256",
              "name": "reservedRate",
              "type": "uint256"
            },
            {
              "internalType": "string",
              "name": "memo",
              "type": "string"
            },
            {
              "internalType": "bytes",
              "name": "metadata",
              "type": "bytes"
            }
          ],
          "internalType": "struct JBPayParamsData",
          "name": "_data",
          "type": "tuple"
        }
      ],
      "name": "payParams",
      "outputs": [
        {
          "internalType": "uint256",
          "name": "weight",
          "type": "uint256"
        },
        {
          "internalType": "string",
          "name": "memo",
          "type": "string"
        },
        {
          "components": [
            {
              "internalType": "contract IJBPayDelegate3_1_1",
              "name": "delegate",
              "type": "address"
            },
            {
              "internalType": "uint256",
              "name": "amount",
              "type": "uint256"
            },
            {
              "internalType": "bytes",
              "name": "metadata",
              "type": "bytes"
            }
          ],
          "internalType": "struct JBPayDelegateAllocation3_1_1[]",
          "name": "delegateAllocations",
          "type": "tuple[]"
        }
      ],
      "stateMutability": "view",
      "type": "function"
    },
    {
      "inputs": [
        {
          "components": [
            {
              "internalType": "contract IJBPaymentTerminal",
              "name": "terminal",
              "type": "address"
            },
            {
              "internalType": "address",
              "name": "holder",
              "type": "address"
            },
            {
              "internalType": "uint256",
              "name": "projectId",
              "type": "uint256"
            },
            {
              "internalType": "uint256",
              "name": "currentFundingCycleConfiguration",
              "type": "uint256"
            },
            {
              "internalType": "uint256",
              "name": "tokenCount",
              "type": "uint256"
            },
            {
              "internalType": "uint256",
              "name": "totalSupply",
              "type": "uint256"
            },
            {
              "internalType": "uint256",
              "name": "overflow",
              "type": "uint256"
            },
            {
              "components": [
                {
                  "internalType": "address",
                  "name": "token",
                  "type": "address"
                },
                {
                  "internalType": "uint256",
                  "name": "value",
                  "type": "uint256"
                },
                {
                  "internalType": "uint256",
                  "name": "decimals",
                  "type": "uint256"
                },
                {
                  "internalType": "uint256",
                  "name": "currency",
                  "type": "uint256"
                }
              ],
              "internalType": "struct JBTokenAmount",
              "name": "reclaimAmount",
              "type": "tuple"
            },
            {
              "internalType": "bool",
              "name": "useTotalOverflow",
              "type": "bool"
            },
            {
              "internalType": "uint256",
              "name": "redemptionRate",
              "type": "uint256"
            },
            {
              "internalType": "string",
              "name": "memo",
              "type": "string"
            },
            {
              "internalType": "bytes",
              "name": "metadata",
              "type": "bytes"
            }
          ],
          "internalType": "struct JBRedeemParamsData",
          "name": "_data",
          "type": "tuple"
        }
      ],
      "name": "redeemParams",
      "outputs": [
        {
          "internalType": "uint256",
          "name": "",
          "type": "uint256"
        },
        {
          "internalType": "string",
          "name": "",
          "type": "string"
        },
        {
          "components": [
            {
              "internalType": "contract IJBRedemptionDelegate3_1_1",
              "name": "delegate",
              "type": "address"
            },
            {
              "internalType": "uint256",
              "name": "amount",
              "type": "uint256"
            },
            {
              "internalType": "bytes",
              "name": "metadata",
              "type": "bytes"
            }
          ],
          "internalType": "struct JBRedemptionDelegateAllocation3_1_1[]",
          "name": "",
          "type": "tuple[]"
        }
      ],
      "stateMutability": "view",
      "type": "function"
    },
    {
      "inputs": [
        {
          "internalType": "uint256",
          "name": "_networkId",
          "type": "uint256"
        }
      ],
      "name": "scheduleNextDevTaxPeriodOf",
      "outputs": [],
      "stateMutability": "nonpayable",
      "type": "function"
    },
    {
      "inputs": [
        {
          "internalType": "bytes4",
          "name": "_interfaceId",
          "type": "bytes4"
        }
      ],
      "name": "supportsInterface",
      "outputs": [
        {
          "internalType": "bool",
          "name": "",
          "type": "bool"
        }
      ],
      "stateMutability": "view",
      "type": "function"
    }
  ],
  "bytecode": {
    "object": "0x60e06040523480156200001157600080fd5b50604051620054d9380380620054d98339810160408190526200003491620000df565b6001600160a01b03908116608052600080546001818101835560127f290decd9548b62a8d60345a988386fc84ba6bc95484008f6362f93160ef3e5639283015582548082018455601892019190915560058054918201815590915260097f036b6384b5eca791c62761152d0c79bb0604c104a5fb6f4eb0703f3154bb3db09091015591821660a0521660c05262000133565b6001600160a01b0381168114620000dc57600080fd5b50565b600080600060608486031215620000f557600080fd5b83516200010281620000c6565b60208501519093506200011581620000c6565b60408501519092506200012881620000c6565b809150509250925092565b60805160a05160c0516152ff620001da6000396000818161020001526125ac0152600081816102ff01526123a101526000818161037e01528181610482015281816106e0015281816109bc01528181610aca01528181610d7b015281816110360152818161110d01528181611315015281816115cb015281816116d90152818161198a01528181611c8b01528181611d6201528181611f4901526120cb01526152ff6000f3fe608060405234801561001057600080fd5b506004361061011b5760003560e01c80639e8c513a116100b2578063abc603e311610081578063d46cf17111610066578063d46cf17114610321578063ef8eadd514610343578063f77c47911461037957600080fd5b8063abc603e3146102d8578063c41c2f24146102fa57600080fd5b80639e8c513a146102475780639f665eee1461025a578063a26711ae1461027a578063a51cfd18146102b657600080fd5b80634d757720116100ee5780634d757720146101c2578063522aa551146101d55780635bd26667146101e85780638f3d964b146101fb57600080fd5b806301ffc9a7146101205780630310850e146101485780630a801f471461015d578063150b7a021461017e575b600080fd5b61013361012e366004612d23565b6103a0565b60405190151581526020015b60405180910390f35b61015b610156366004612d6c565b610439565b005b61017061016b36600461320a565b610836565b60405190815260200161013f565b61019161018c3660046132fd565b611311565b6040517fffffffff00000000000000000000000000000000000000000000000000000000909116815260200161013f565b6101706101d0366004612d6c565b611425565b6101706101e33660046134ba565b611446565b6101706101f63660046139a0565b61239d565b6102227f000000000000000000000000000000000000000000000000000000000000000081565b60405173ffffffffffffffffffffffffffffffffffffffff909116815260200161013f565b610170610255366004612d6c565b6126a9565b610170610268366004612d6c565b60026020526000908152604090205481565b61028d610288366004613aef565b6126b9565b604080516fffffffffffffffffffffffffffffffff93841681529290911660208301520161013f565b6102c96102c4366004613b11565b612712565b60405161013f93929190613bbb565b6102eb6102e6366004613aef565b61277a565b60405161013f93929190613c84565b6102227f000000000000000000000000000000000000000000000000000000000000000081565b61033461032f366004613cc2565b61285d565b60405161013f93929190613cfe565b610222610351366004612d6c565b60036020526000908152604090205473ffffffffffffffffffffffffffffffffffffffff1681565b6102227f000000000000000000000000000000000000000000000000000000000000000081565b60007fffffffff0000000000000000000000000000000000000000000000000000000082167f71700c6900000000000000000000000000000000000000000000000000000000148061043357507f150b7a02000000000000000000000000000000000000000000000000000000007fffffffff000000000000000000000000000000000000000000000000000000008316145b92915050565b6040517f1f51045300000000000000000000000000000000000000000000000000000000815260048101829052600090819073ffffffffffffffffffffffffffffffffffffffff7f00000000000000000000000000000000000000000000000000000000000000001690631f510453906024016103c060405180830381865afa1580156104ca573d6000803e3d6000fd5b505050506040513d601f19601f820116820180604052508101906104ee9190613f7c565b506000858152600260205260408120805493955091935091829061051190614062565b918290555060008581526001602052604090205490915080158061053457508082145b806105425750428460600151115b15610579576040517fc97554fa00000000000000000000000000000000000000000000000000000000815260040160405180910390fd5b60008581526001602052604081208054849081106105995761059961409a565b6000918252602080832060408051808201825293909101546fffffffffffffffffffffffffffffffff808216855270010000000000000000000000000000000090910481168484019081528251608080820185528c810151825281860188905260c0808e01518387015260608084018a905286516102a08101885261024081018b815261026082018c905261028082018c905281528951909616868901528d87015186880152850189905290840188905260a08401889052830187905260e08301879052610100830187905261012083018790526101408301879052610160830187905261018083018790526101a083018790526101c083018790526101e08301879052610200808c015173ffffffffffffffffffffffffffffffffffffffff908116918501919091526102208c81015190850152915184518881529586019094529496507f0000000000000000000000000000000000000000000000000000000000000000169463badbdf28948c94909391610739565b6040805180820190915260008152606060208201528152602001906001900390816107115790505b5060408051600080825260208201909252906107c8565b6107b56040518060c00160405280600073ffffffffffffffffffffffffffffffffffffffff168152602001600073ffffffffffffffffffffffffffffffffffffffff168152602001600081526020016000815260200160008152602001600081525090565b8152602001906001900390816107505790505b506040518763ffffffff1660e01b81526004016107ea969594939291906143b0565b6020604051808303816000875af1158015610809573d6000803e3d6000fd5b505050506040513d601f19601f8201168201806040525081019061082d91906144b6565b50505050505050565b604080516001808252818301909252600091829190816020015b60408051808201909152600081526060602082015281526020019060019003908161085057505060408051600180825281830190925291925060009190602082015b6040805160e08101825260008082526020808301829052928201819052606082018190526080820181905260a0820181905260c082015282527fffffffffffffffffffffffffffffffffffffffffffffffffffffffffffffffff9092019101816108925790505090506040518060e00160405280600015158152602001600015158152602001633b9aca008152602001600081526020018b73ffffffffffffffffffffffffffffffffffffffff16815260200160008152602001600073ffffffffffffffffffffffffffffffffffffffff168152508160018151811061097a5761097a61409a565b602002602001018190525060405180604001604052806002815260200182815250826000815181106109ae576109ae61409a565b6020026020010181905250507f000000000000000000000000000000000000000000000000000000000000000073ffffffffffffffffffffffffffffffffffffffff16638b79543c6040518163ffffffff1660e01b8152600401602060405180830381865afa158015610a25573d6000803e3d6000fd5b505050506040513d601f19601f82011682018060405250810190610a4991906144cf565b73ffffffffffffffffffffffffffffffffffffffff1663666d87a0308a6040518363ffffffff1660e01b8152600401610a839291906144ec565b6020604051808303816000875af1158015610aa2573d6000803e3d6000fd5b505050506040513d601f19601f82011682018060405250810190610ac691906144b6565b91507f000000000000000000000000000000000000000000000000000000000000000073ffffffffffffffffffffffffffffffffffffffff1663619306306040518163ffffffff1660e01b8152600401602060405180830381865afa158015610b33573d6000803e3d6000fd5b505050506040513d601f19601f82011682018060405250810190610b5791906144cf565b73ffffffffffffffffffffffffffffffffffffffff1663a7f2a70b8389896040518463ffffffff1660e01b8152600401610b939392919061453a565b6020604051808303816000875af1158015610bb2573d6000803e3d6000fd5b505050506040513d601f19601f82011682018060405250810190610bd691906144cf565b508273ffffffffffffffffffffffffffffffffffffffff16637b621d3a838760c001518673ffffffffffffffffffffffffffffffffffffffff166360b3042c6040518163ffffffff1660e01b8152600401602060405180830381865afa158015610c44573d6000803e3d6000fd5b505050506040513d601f19601f82011682018060405250810190610c6891906144b6565b8773ffffffffffffffffffffffffffffffffffffffff1663737a79966040518163ffffffff1660e01b8152600401602060405180830381865afa158015610cb3573d6000803e3d6000fd5b505050506040513d601f19601f82011682018060405250810190610cd791906144b6565b6040517fffffffff0000000000000000000000000000000000000000000000000000000060e087901b168152600481019490945262ffffff909216602484015263ffffffff908116604484015216606482015261eeee608482015260a4016020604051808303816000875af1158015610d54573d6000803e3d6000fd5b505050506040513d601f19601f82011682018060405250810190610d7891906144cf565b507f000000000000000000000000000000000000000000000000000000000000000073ffffffffffffffffffffffffffffffffffffffff1663111d861b8360405180608001604052808960600151815260200160128a60000151610ddc919061468f565b81526040808b0151602080840191909152600092820183905281516102a081019092526102408201838152610260830184905261028083019390935291815260a08b015151909182019015610e53578a60a00151600081518110610e4257610e4261409a565b602002602001015160000151610e56565b60005b6fffffffffffffffffffffffffffffffff1681526020018a60800151612710610e7f919061469e565b815260006020820181905260408201819052606082018190526080820181905260a0808301829052600160c0840181905260e0840183905261010084018390526101208401839052610140840183905261016084018390526101808401526101a0830182905273ffffffffffffffffffffffffffffffffffffffff8b166101c08401526101e0909201528a01515115610f3a578960a00151600081518110610f2957610f2961409a565b602002602001015160200151610f3d565b60005b604080516000808252602082019092528891610fcc565b610fb96040518060c00160405280600073ffffffffffffffffffffffffffffffffffffffff168152602001600073ffffffffffffffffffffffffffffffffffffffff168152602001600081526020016000815260200160008152602001600081525090565b815260200190600190039081610f545790505b508b6040518863ffffffff1660e01b8152600401610ff097969594939291906146b1565b6020604051808303816000875af115801561100f573d6000803e3d6000fd5b505050506040513d601f19601f8201168201806040525081019061103391906144b6565b507f000000000000000000000000000000000000000000000000000000000000000073ffffffffffffffffffffffffffffffffffffffff16638ae9c07b8360128860200151611082919061468f565b8c8a60405160200161109491906147e1565b6040516020818303038152906040526000806040518763ffffffff1660e01b81526004016110c796959493929190614826565b6020604051808303816000875af11580156110e6573d6000803e3d6000fd5b505050506040513d601f19601f8201168201806040525081019061110a91906144b6565b507f000000000000000000000000000000000000000000000000000000000000000073ffffffffffffffffffffffffffffffffffffffff16632bdfe0046040518163ffffffff1660e01b8152600401602060405180830381865afa158015611176573d6000803e3d6000fd5b505050506040513d601f19601f8201168201806040525081019061119a91906144cf565b73ffffffffffffffffffffffffffffffffffffffff1663ad007d636040518163ffffffff1660e01b8152600401602060405180830381865afa1580156111e4573d6000803e3d6000fd5b505050506040513d601f19601f8201168201806040525081019061120891906144cf565b73ffffffffffffffffffffffffffffffffffffffff1663529cdd2e60405180606001604052808c73ffffffffffffffffffffffffffffffffffffffff168152602001858152602001600080548060200260200160405190810160405280929190818152602001828054801561129c57602002820191906000526020600020905b815481526020019060010190808311611288575b50505050508152506040518263ffffffff1660e01b81526004016112c0919061487b565b600060405180830381600087803b1580156112da57600080fd5b505af11580156112ee573d6000803e3d6000fd5b50505050611305828660a001518760600151612bc7565b50979650505050505050565b60007f000000000000000000000000000000000000000000000000000000000000000073ffffffffffffffffffffffffffffffffffffffff16638b79543c6040518163ffffffff1660e01b8152600401602060405180830381865afa15801561137e573d6000803e3d6000fd5b505050506040513d601f19601f820116820180604052508101906113a291906144cf565b73ffffffffffffffffffffffffffffffffffffffff163373ffffffffffffffffffffffffffffffffffffffff16146113d957600080fd5b73ffffffffffffffffffffffffffffffffffffffff8516156113fa57600080fd5b507f150b7a020000000000000000000000000000000000000000000000000000000095945050505050565b6000818154811061143557600080fd5b600091825260209091200154905081565b604080516001808252818301909252600091829190816020015b60408051808201909152600081526060602082015281526020019060019003908161146057505060408051600180825281830190925291925060009190602082015b6040805160e08101825260008082526020808301829052928201819052606082018190526080820181905260a0820181905260c082015282527fffffffffffffffffffffffffffffffffffffffffffffffffffffffffffffffff9092019101816114a25790505090506040518060e00160405280600015158152602001600015158152602001633b9aca008152602001600081526020018d73ffffffffffffffffffffffffffffffffffffffff16815260200160008152602001600073ffffffffffffffffffffffffffffffffffffffff168152508160018151811061158a5761158a61409a565b602002602001018190525060405180604001604052806002815260200182815250826000815181106115be576115be61409a565b60200260200101819052507f000000000000000000000000000000000000000000000000000000000000000073ffffffffffffffffffffffffffffffffffffffff16638b79543c6040518163ffffffff1660e01b8152600401602060405180830381865afa158015611634573d6000803e3d6000fd5b505050506040513d601f19601f8201168201806040525081019061165891906144cf565b73ffffffffffffffffffffffffffffffffffffffff1663666d87a0308d6040518363ffffffff1660e01b81526004016116929291906144ec565b6020604051808303816000875af11580156116b1573d6000803e3d6000fd5b505050506040513d601f19601f820116820180604052508101906116d591906144b6565b92507f000000000000000000000000000000000000000000000000000000000000000073ffffffffffffffffffffffffffffffffffffffff1663619306306040518163ffffffff1660e01b8152600401602060405180830381865afa158015611742573d6000803e3d6000fd5b505050506040513d601f19601f8201168201806040525081019061176691906144cf565b73ffffffffffffffffffffffffffffffffffffffff1663a7f2a70b848c8c6040518463ffffffff1660e01b81526004016117a29392919061453a565b6020604051808303816000875af11580156117c1573d6000803e3d6000fd5b505050506040513d601f19601f820116820180604052508101906117e591906144cf565b508573ffffffffffffffffffffffffffffffffffffffff16637b621d3a848a60c001518973ffffffffffffffffffffffffffffffffffffffff166360b3042c6040518163ffffffff1660e01b8152600401602060405180830381865afa158015611853573d6000803e3d6000fd5b505050506040513d601f19601f8201168201806040525081019061187791906144b6565b8a73ffffffffffffffffffffffffffffffffffffffff1663737a79966040518163ffffffff1660e01b8152600401602060405180830381865afa1580156118c2573d6000803e3d6000fd5b505050506040513d601f19601f820116820180604052508101906118e691906144b6565b6040517fffffffff0000000000000000000000000000000000000000000000000000000060e087901b168152600481019490945262ffffff909216602484015263ffffffff908116604484015216606482015261eeee608482015260a4016020604051808303816000875af1158015611963573d6000803e3d6000fd5b505050506040513d601f19601f8201168201806040525081019061198791906144cf565b507f000000000000000000000000000000000000000000000000000000000000000073ffffffffffffffffffffffffffffffffffffffff1663111d861b8460405180608001604052808c60600151815260200160128d600001516119eb919061468f565b81526040808e0151602080840191909152600092820183905281516102a081019092526102408201838152610260830184905261028083019390935291815260a08e015151909182019015611a62578d60a00151600081518110611a5157611a5161409a565b602002602001015160000151611a65565b60005b6fffffffffffffffffffffffffffffffff1681526020018d60800151612710611a8e919061469e565b815260006020820181905260408201819052606082018190526080820181905260a0808301829052600160c0840181905260e0840183905261010084018390526101208401839052610140840183905261016084018390526101808401526101a0830191909152306101c083015260ff8b166101e0909201919091528d01515115611b3b578c60a00151600081518110611b2a57611b2a61409a565b602002602001015160200151611b3e565b60005b604080516000808252602082019092528991611bcd565b611bba6040518060c00160405280600073ffffffffffffffffffffffffffffffffffffffff168152602001600073ffffffffffffffffffffffffffffffffffffffff168152602001600081526020016000815260200160008152602001600081525090565b815260200190600190039081611b555790505b508e6040518863ffffffff1660e01b8152600401611bf197969594939291906146b1565b6020604051808303816000875af1158015611c10573d6000803e3d6000fd5b505050506040513d601f19601f82011682018060405250810190611c3491906144b6565b505050836003600083815260200190815260200160002060006101000a81548173ffffffffffffffffffffffffffffffffffffffff021916908373ffffffffffffffffffffffffffffffffffffffff1602179055507f000000000000000000000000000000000000000000000000000000000000000073ffffffffffffffffffffffffffffffffffffffff16638ae9c07b8260128960200151611cd7919061468f565b8d8b604051602001611ce991906147e1565b6040516020818303038152906040526000806040518763ffffffff1660e01b8152600401611d1c96959493929190614826565b6020604051808303816000875af1158015611d3b573d6000803e3d6000fd5b505050506040513d601f19601f82011682018060405250810190611d5f91906144b6565b507f000000000000000000000000000000000000000000000000000000000000000073ffffffffffffffffffffffffffffffffffffffff16632bdfe0046040518163ffffffff1660e01b8152600401602060405180830381865afa158015611dcb573d6000803e3d6000fd5b505050506040513d601f19601f82011682018060405250810190611def91906144cf565b73ffffffffffffffffffffffffffffffffffffffff1663ad007d636040518163ffffffff1660e01b8152600401602060405180830381865afa158015611e39573d6000803e3d6000fd5b505050506040513d601f19601f82011682018060405250810190611e5d91906144cf565b73ffffffffffffffffffffffffffffffffffffffff1663529cdd2e60405180606001604052808d73ffffffffffffffffffffffffffffffffffffffff1681526020018481526020016000805480602002602001604051908101604052809291908181526020018280548015611ef157602002820191906000526020600020905b815481526020019060010190808311611edd575b50505050508152506040518263ffffffff1660e01b8152600401611f15919061487b565b600060405180830381600087803b158015611f2f57600080fd5b505af1158015611f43573d6000803e3d6000fd5b505050507f000000000000000000000000000000000000000000000000000000000000000073ffffffffffffffffffffffffffffffffffffffff16632bdfe0046040518163ffffffff1660e01b8152600401602060405180830381865afa158015611fb2573d6000803e3d6000fd5b505050506040513d601f19601f82011682018060405250810190611fd691906144cf565b73ffffffffffffffffffffffffffffffffffffffff1663ad007d636040518163ffffffff1660e01b8152600401602060405180830381865afa158015612020573d6000803e3d6000fd5b505050506040513d601f19601f8201168201806040525081019061204491906144cf565b73ffffffffffffffffffffffffffffffffffffffff16630f5932f08530600060056040518563ffffffff1660e01b815260040161208494939291906148ec565b602060405180830381865afa1580156120a1573d6000803e3d6000fd5b505050506040513d601f19601f820116820180604052508101906120c59190614968565b6122b2577f000000000000000000000000000000000000000000000000000000000000000073ffffffffffffffffffffffffffffffffffffffff16632bdfe0046040518163ffffffff1660e01b8152600401602060405180830381865afa158015612134573d6000803e3d6000fd5b505050506040513d601f19601f8201168201806040525081019061215891906144cf565b73ffffffffffffffffffffffffffffffffffffffff1663ad007d636040518163ffffffff1660e01b8152600401602060405180830381865afa1580156121a2573d6000803e3d6000fd5b505050506040513d601f19601f820116820180604052508101906121c691906144cf565b73ffffffffffffffffffffffffffffffffffffffff1663529cdd2e60405180606001604052808773ffffffffffffffffffffffffffffffffffffffff16815260200160008152602001600580548060200260200160405190810160405280929190818152602001828054801561225b57602002820191906000526020600020905b815481526020019060010190808311612247575b50505050508152506040518263ffffffff1660e01b815260040161227f919061487b565b600060405180830381600087803b15801561229957600080fd5b505af11580156122ad573d6000803e3d6000fd5b505050505b6122c5818760a001518860600151612bc7565b825160005b8181101561238e578481815181106122e4576122e461409a565b60200260200101516004600085815260200190815260200160002082815481106123105761231061409a565b600091825260209182902083516003929092020180547fffffffffffffffffffffffff00000000000000000000000000000000000000001673ffffffffffffffffffffffffffffffffffffffff909216919091178155908201516001820155604082015160028201906123839082614a27565b5050506001016122ca565b50509998505050505050505050565b60007f000000000000000000000000000000000000000000000000000000000000000073ffffffffffffffffffffffffffffffffffffffff16638b79543c6040518163ffffffff1660e01b8152600401602060405180830381865afa15801561240a573d6000803e3d6000fd5b505050506040513d601f19601f8201168201806040525081019061242e91906144cf565b73ffffffffffffffffffffffffffffffffffffffff166306661abd6040518163ffffffff1660e01b8152600401602060405180830381865afa158015612478573d6000803e3d6000fd5b505050506040513d601f19601f8201168201806040525081019061249c91906144b6565b6124a7906001614b41565b835190915060006124b9826001614b41565b67ffffffffffffffff8111156124d1576124d1612dba565b60405190808252806020026020018201604052801561251e57816020015b604080516060808201835260008083526020830152918101919091528152602001906001900390816124ef5790505b50905060005b8281101561256b5785818151811061253e5761253e61409a565b60200260200101518282815181106125585761255861409a565b6020908102919091010152600101612524565b506040517f70d7f24900000000000000000000000000000000000000000000000000000000815260009073ffffffffffffffffffffffffffffffffffffffff7f000000000000000000000000000000000000000000000000000000000000000016906370d7f249906125e39087908b90600401614cce565b6020604051808303816000875af1158015612602573d6000803e3d6000fd5b505050506040513d601f19601f8201168201806040525081019061262691906144cf565b905060405180606001604052808273ffffffffffffffffffffffffffffffffffffffff168152602001600081526020016040518060200160405280600081525081525082848151811061267b5761267b61409a565b6020026020010181905250506126988d8d8d8d8d8d8d888c611446565b5050509a9950505050505050505050565b6005818154811061143557600080fd5b600160205281600052604060002081815481106126d557600080fd5b6000918252602090912001546fffffffffffffffffffffffffffffffff808216935070010000000000000000000000000000000090910416905082565b60408051600080825260208201909252606090819083908161275e565b6040805160608082018352600080835260208301529181019190915281526020019060019003908161272f5790505b5060408051602081019091526000815291969195509350915050565b6004602052816000526040600020818154811061279657600080fd5b600091825260209091206003909102018054600182015460028301805473ffffffffffffffffffffffffffffffffffffffff9093169550909350906127da90614985565b80601f016020809104026020016040519081016040528092919081815260200182805461280690614985565b80156128535780601f1061282857610100808354040283529160200191612853565b820191906000526020600020905b81548152906001019060200180831161283657829003601f168201915b5050505050905083565b60c08101356000908152600360205260408082205490517fd46cf1710000000000000000000000000000000000000000000000000000000081526060918291829173ffffffffffffffffffffffffffffffffffffffff169063d46cf171906128c9908890600401614f77565b600060405180830381865afa1580156128e6573d6000803e3d6000fd5b505050506040513d6000823e601f3d9081017fffffffffffffffffffffffffffffffffffffffffffffffffffffffffffffffe016820160405261292c91908101906150eb565b805160c089013560009081526004602090815260408083208054825181850281018501909352808352979b5094975092151595919450919291849084015b82821015612a5b5760008481526020908190206040805160608101825260038602909201805473ffffffffffffffffffffffffffffffffffffffff168352600181015493830193909352600283018054929392918401916129ca90614985565b80601f01602080910402602001604051908101604052809291908181526020018280546129f690614985565b8015612a435780601f10612a1857610100808354040283529160200191612a43565b820191906000526020600020905b815481529060010190602001808311612a2657829003601f168201915b5050505050815250508152602001906001019061296a565b50505050905060008151905082612a73576000612a76565b60015b612a839060ff1682614b41565b67ffffffffffffffff811115612a9b57612a9b612dba565b604051908082528060200260200182016040528015612ae857816020015b60408051606080820183526000808352602083015291810191909152815260200190600190039081612ab95790505b50945060005b81811015612b3557828181518110612b0857612b0861409a565b6020026020010151868281518110612b2257612b2261409a565b6020908102919091010152600101612aee565b508215612b755783600081518110612b4f57612b4f61409a565b6020026020010151858281518110612b6957612b6961409a565b60200260200101819052505b612b83610160890189615264565b8080601f016020809104026020016040519081016040528093929190818152602001838380828437600092019190915250999b929a50969850909650505050505050565b81518015612d1d5760005b81811015612d1b578015801590612c5c57508284612bf160018461469e565b81518110612c0157612c0161409a565b6020026020010151602001516fffffffffffffffffffffffffffffffff16612c299190614b41565b848281518110612c3b57612c3b61409a565b6020026020010151602001516fffffffffffffffffffffffffffffffff1611155b15612c93576040517fc5c2978500000000000000000000000000000000000000000000000000000000815260040160405180910390fd5b838181518110612ca557612ca561409a565b6020026020010151600160008781526020019081526020016000208281548110612cd157612cd161409a565b6000918252602091829020835193909201516fffffffffffffffffffffffffffffffff90811670010000000000000000000000000000000002931692909217910155600101612bd2565b505b50505050565b600060208284031215612d3557600080fd5b81357fffffffff0000000000000000000000000000000000000000000000000000000081168114612d6557600080fd5b9392505050565b600060208284031215612d7e57600080fd5b5035919050565b73ffffffffffffffffffffffffffffffffffffffff81168114612da757600080fd5b50565b8035612db581612d85565b919050565b7f4e487b7100000000000000000000000000000000000000000000000000000000600052604160045260246000fd5b6040805190810167ffffffffffffffff81118282101715612e0c57612e0c612dba565b60405290565b60405160e0810167ffffffffffffffff81118282101715612e0c57612e0c612dba565b6040516060810167ffffffffffffffff81118282101715612e0c57612e0c612dba565b6040516080810167ffffffffffffffff81118282101715612e0c57612e0c612dba565b604051610160810167ffffffffffffffff81118282101715612e0c57612e0c612dba565b604051610240810167ffffffffffffffff81118282101715612e0c57612e0c612dba565b604051610120810167ffffffffffffffff81118282101715612e0c57612e0c612dba565b604051601f82017fffffffffffffffffffffffffffffffffffffffffffffffffffffffffffffffe016810167ffffffffffffffff81118282101715612f2e57612f2e612dba565b604052919050565b600067ffffffffffffffff821115612f5057612f50612dba565b50601f017fffffffffffffffffffffffffffffffffffffffffffffffffffffffffffffffe01660200190565b6000612f8f612f8a84612f36565b612ee7565b9050828152838383011115612fa357600080fd5b828260208301376000602084830101529392505050565b600082601f830112612fcb57600080fd5b612d6583833560208501612f7c565b600060408284031215612fec57600080fd5b612ff4612de9565b9050813567ffffffffffffffff81111561300d57600080fd5b61301984828501612fba565b8252506020820135602082015292915050565b600067ffffffffffffffff82111561304657613046612dba565b5060051b60200190565b80356fffffffffffffffffffffffffffffffff81168114612db557600080fd5b600082601f83011261308157600080fd5b81356020613091612f8a8361302c565b82815260069290921b840181019181810190868411156130b057600080fd5b8286015b848110156130fd57604081890312156130cd5760008081fd5b6130d5612de9565b6130de82613050565b81526130eb858301613050565b818601528352918301916040016130b4565b509695505050505050565b803562ffffff81168114612db557600080fd5b600060e0828403121561312d57600080fd5b613135612e12565b9050813581526020820135602082015260408201356040820152606082013560608201526080820135608082015260a082013567ffffffffffffffff81111561317d57600080fd5b61318984828501613070565b60a08301525061319b60c08301613108565b60c082015292915050565b600082601f8301126131b757600080fd5b813560206131c7612f8a8361302c565b82815260059290921b840181019181810190868411156131e657600080fd5b8286015b848110156130fd5780356131fd81612d85565b83529183019183016131ea565b600080600080600080600060e0888a03121561322557600080fd5b61322e88612daa565b9650602088013567ffffffffffffffff8082111561324b57600080fd5b6132578b838c01612fda565b975060408a013591508082111561326d57600080fd5b6132798b838c01612fba565b965060608a013591508082111561328f57600080fd5b61329b8b838c01612fba565b955060808a01359150808211156132b157600080fd5b6132bd8b838c0161311b565b945060a08a01359150808211156132d357600080fd5b506132e08a828b016131a6565b9250506132ef60c08901612daa565b905092959891949750929550565b60008060008060006080868803121561331557600080fd5b853561332081612d85565b9450602086013561333081612d85565b935060408601359250606086013567ffffffffffffffff8082111561335457600080fd5b818801915088601f83011261336857600080fd5b81358181111561337757600080fd5b89602082850101111561338957600080fd5b9699959850939650602001949392505050565b600082601f8301126133ad57600080fd5b813560206133bd612f8a8361302c565b82815260059290921b840181019181810190868411156133dc57600080fd5b8286015b848110156130fd57803567ffffffffffffffff808211156134015760008081fd5b81890191506060807fffffffffffffffffffffffffffffffffffffffffffffffffffffffffffffffe0848d0301121561343a5760008081fd5b613442612e35565b8784013561344f81612d85565b81526040848101358983015291840135918383111561346e5760008081fd5b82850194508c603f86011261348557600093508384fd5b6134958d8a870135838801612f7c565b9082015286525050509183019183016133e0565b803560ff81168114612db557600080fd5b60008060008060008060008060006101208a8c0312156134d957600080fd5b6134e28a612daa565b985060208a013567ffffffffffffffff808211156134ff57600080fd5b61350b8d838e01612fda565b995060408c013591508082111561352157600080fd5b61352d8d838e01612fba565b985060608c013591508082111561354357600080fd5b61354f8d838e01612fba565b975060808c013591508082111561356557600080fd5b6135718d838e0161311b565b965060a08c013591508082111561358757600080fd5b6135938d838e016131a6565b95506135a160c08d01612daa565b945060e08c01359150808211156135b757600080fd5b506135c48c828d0161339c565b9250506135d46101008b016134a9565b90509295985092959850929598565b80356cffffffffffffffffffffffffff81168114612db557600080fd5b803563ffffffff81168114612db557600080fd5b803561ffff81168114612db557600080fd5b8015158114612da757600080fd5b8035612db581613626565b803565ffffffffffff81168114612db557600080fd5b6000608080838503121561366857600080fd5b613670612e58565b9150823567ffffffffffffffff81111561368957600080fd5b8301601f8101851361369a57600080fd5b803560206136aa612f8a8361302c565b82815261016092830284018201928282019190898511156136ca57600080fd5b948301945b848610156137ab5780868b0312156136e75760008081fd5b6136ef612e7b565b6136f8876135e3565b8152613705858801613600565b858201526040613716818901613600565b908201526060613727888201613614565b90820152613736878901612daa565b8189015260a0878101359082015260c0613751818901613108565b9082015260e0613762888201613634565b90820152610100613774888201613634565b90820152610120613786888201613634565b90820152610140613798888201613634565b90820152835294850194918301916136cf565b508652506137ba86820161363f565b81860152505050506137ce6040830161363f565b60408201526137df60608301612daa565b606082015292915050565b6000608082840312156137fc57600080fd5b613804612e58565b9050813561381181613626565b8152602082013561382181613626565b6020820152604082013561383481613626565b604082015260608201356137df81613626565b803560028110612db557600080fd5b60006101c0828403121561386957600080fd5b613871612e7b565b9050813567ffffffffffffffff8082111561388b57600080fd5b61389785838601612fba565b835260208401359150808211156138ad57600080fd5b6138b985838601612fba565b60208401526138ca60408501612daa565b604084015260608401359150808211156138e357600080fd5b6138ef85838601612fba565b606084015261390060808501612daa565b608084015260a084013591508082111561391957600080fd5b61392585838601612fba565b60a084015260c084013591508082111561393e57600080fd5b5061394b84828501613655565b60c08301525061395d60e08301612daa565b60e0820152610100613970818401612daa565b90820152610120613983848483016137ea565b908201526139946101a08301613847565b61014082015292915050565b6000806000806000806000806000806101408b8d0312156139c057600080fd5b6139c98b612daa565b995060208b013567ffffffffffffffff808211156139e657600080fd5b6139f28e838f01612fda565b9a5060408d0135915080821115613a0857600080fd5b613a148e838f01612fba565b995060608d0135915080821115613a2a57600080fd5b613a368e838f01612fba565b985060808d0135915080821115613a4c57600080fd5b613a588e838f0161311b565b975060a08d0135915080821115613a6e57600080fd5b613a7a8e838f016131a6565b9650613a8860c08e01612daa565b955060e08d0135915080821115613a9e57600080fd5b613aaa8e838f01613856565b94506101008d0135915080821115613ac157600080fd5b50613ace8d828e0161339c565b925050613ade6101208c016134a9565b90509295989b9194979a5092959850565b60008060408385031215613b0257600080fd5b50508035926020909101359150565b600060208284031215613b2357600080fd5b813567ffffffffffffffff811115613b3a57600080fd5b82016101e08185031215612d6557600080fd5b60005b83811015613b68578181015183820152602001613b50565b50506000910152565b60008151808452613b89816020860160208601613b4d565b601f017fffffffffffffffffffffffffffffffffffffffffffffffffffffffffffffffe0169290920160200192915050565b6000606085835260208181850152613bd582850187613b71565b6040858203818701528187518084528484019150848160051b850101858a0160005b83811015613c72578683037fffffffffffffffffffffffffffffffffffffffffffffffffffffffffffffffe00185528151805173ffffffffffffffffffffffffffffffffffffffff16845288810151898501528601518684018a9052613c5f8a850182613b71565b9589019593505090870190600101613bf7565b50909c9b505050505050505050505050565b73ffffffffffffffffffffffffffffffffffffffff84168152826020820152606060408201526000613cb96060830184613b71565b95945050505050565b600060208284031215613cd457600080fd5b813567ffffffffffffffff811115613ceb57600080fd5b82016101a08185031215612d6557600080fd5b6000606085835260208181850152613d1882850187613b71565b6040858203818701528187518084528484019150848160051b850101858a0160005b83811015613c72578683037fffffffffffffffffffffffffffffffffffffffffffffffffffffffffffffffe00185528151805173ffffffffffffffffffffffffffffffffffffffff16845288810151898501528601518684018a9052613da28a850182613b71565b9589019593505090870190600101613d3a565b8051612db581612d85565b8051612db581613626565b600060608284031215613ddd57600080fd5b613de5612e35565b90508151613df281613626565b81526020820151613e0281613626565b60208201526040820151613e1581613626565b604082015292915050565b60006102808284031215613e3357600080fd5b613e3b612e9f565b9050613e478383613dcb565b8152606082015160208201526080820151604082015260a08201516060820152613e7360c08301613dc0565b6080820152613e8460e08301613dc0565b60a0820152610100613e97818401613dc0565b60c0830152610120613eaa818501613dc0565b60e0840152610140613ebd818601613dc0565b838501526101609250613ed1838601613dc0565b828501526101809150613ee5828601613dc0565b908401526101a0613ef7858201613dc0565b838501526101c09250613f0b838601613dc0565b828501526101e09150613f1f828601613dc0565b90840152610200613f31858201613dc0565b838501526102209250613f45838601613dc0565b82850152613f566102408601613db5565b818501525050610260830151818301525092915050565b805160038110612db557600080fd5b60008060008385036103c0811215613f9357600080fd5b61012080821215613fa357600080fd5b613fab612ec3565b9150855182526020860151602083015260408601516040830152606086015160608301526080860151608083015260a086015160a083015260c086015160c0830152613ff960e08701613db5565b60e083015261010080870151818401525081945061401987828801613e20565b9350505061402a6103a08501613f6d565b90509250925092565b7f4e487b7100000000000000000000000000000000000000000000000000000000600052601160045260246000fd5b60007fffffffffffffffffffffffffffffffffffffffffffffffffffffffffffffffff820361409357614093614033565b5060010190565b7f4e487b7100000000000000000000000000000000000000000000000000000000600052603260045260246000fd5b6140ee8282518051151582526020808201511515908301526040908101511515910152565b6020810151606083015260408101516080830152606081015160a0830152608081015161411f60c084018215159052565b5060a081015180151560e08401525060c08101516101006141438185018315159052565b60e0830151915061012061415a8186018415159052565b908301519150610140906141718583018415159052565b83015191506101606141868582018415159052565b9083015191506101809061419d8583018415159052565b83015191506101a06141b28582018415159052565b9083015191506101c0906141c98583018415159052565b83015191506101e06141de8582018415159052565b908301519150610200906141f58583018415159052565b830151915061022061420a8582018415159052565b9083015173ffffffffffffffffffffffffffffffffffffffff16610240850152909101516102609092019190915250565b600081518084526020808501808196508360051b810191508286016000805b8681101561431a578385038a52825180518652860151604087870181905281518188018190529188019160609081890190865b818110156143035785518051151584528c81015115158d8501528581015186850152848101518585015260808082015173ffffffffffffffffffffffffffffffffffffffff9081169186019190915260a0808301519086015260c0918201511690840152948b019460e09092019160010161428d565b50509c89019c97505050928601925060010161425a565b509298975050505050505050565b600081518084526020808501945080840160005b838110156143a5578151805173ffffffffffffffffffffffffffffffffffffffff908116895284820151168489015260408082015190890152606080820151908901526080808201519089015260a0908101519088015260c0909601959082019060010161433c565b509495945050505050565b60006103a08883526143fc602084018980518252602081015160208301526040810151604083015273ffffffffffffffffffffffffffffffffffffffff60608201511660608301525050565b61440960a08401886140c9565b6fffffffffffffffffffffffffffffffff8616610320840152806103408401526144358184018661423b565b905082810361036084015261444a8185614328565b838103610380909401939093525050603281527f5363686564756c6564206e657874206465762074617820706572696f64206f6660208201527f2052657461696c697374206e6574776f726b000000000000000000000000000060408201526060019695505050505050565b6000602082840312156144c857600080fd5b5051919050565b6000602082840312156144e157600080fd5b8151612d6581612d85565b73ffffffffffffffffffffffffffffffffffffffff8316815260406020820152600082516040808401526145236080840182613b71565b905060208401516060840152809150509392505050565b8381526060602082015260006145536060830185613b71565b82810360408401526145658185613b71565b9695505050505050565b600181815b808511156145c857817fffffffffffffffffffffffffffffffffffffffffffffffffffffffffffffffff048211156145ae576145ae614033565b808516156145bb57918102915b93841c9390800290614574565b509250929050565b6000826145df57506001610433565b816145ec57506000610433565b8160018114614602576002811461460c57614628565b6001915050610433565b60ff84111561461d5761461d614033565b50506001821b610433565b5060208310610133831016604e8410600b841016171561464b575081810a610433565b614655838361456f565b807fffffffffffffffffffffffffffffffffffffffffffffffffffffffffffffffff0482111561468757614687614033565b029392505050565b6000612d6560ff8416836145d0565b8181038181111561043357610433614033565b60006103c089835260206146fe8185018b80518252602081015160208301526040810151604083015273ffffffffffffffffffffffffffffffffffffffff60608201511660608301525050565b61470b60a085018a6140c9565b6fffffffffffffffffffffffffffffffff8816610320850152816103408501526147378285018861423b565b915083820361036085015261474c8287614328565b848103610380860152855180825282870193509082019060005b8181101561479857845173ffffffffffffffffffffffffffffffffffffffff1683529383019391830191600101614766565b50508481036103a0860152601a81527f4465706c6f7965642052657461696c697374206e6574776f726b0000000000006020820152604081019c9b505050505050505050505050565b7f5072656d696e746564202400000000000000000000000000000000000000000081526000825161481981600b850160208701613b4d565b91909101600b0192915050565b86815285602082015273ffffffffffffffffffffffffffffffffffffffff8516604082015260c06060820152600061486160c0830186613b71565b93151560808301525090151560a090910152949350505050565b600060208083526080830173ffffffffffffffffffffffffffffffffffffffff85511682850152818501516040850152604085015160608086015281815180845260a0870191508483019350600092505b808310156130fd57835182529284019260019290920191908401906148cc565b60006080820173ffffffffffffffffffffffffffffffffffffffff808816845260208188168186015286604086015260806060860152829150855480845260a0860192508660005281600020935060005b818110156149595784548452600194850194938301930161493d565b50919998505050505050505050565b60006020828403121561497a57600080fd5b8151612d6581613626565b600181811c9082168061499957607f821691505b6020821081036149d2577f4e487b7100000000000000000000000000000000000000000000000000000000600052602260045260246000fd5b50919050565b601f821115614a2257600081815260208120601f850160051c810160208610156149ff5750805b601f850160051c820191505b81811015614a1e57828155600101614a0b565b5050505b505050565b815167ffffffffffffffff811115614a4157614a41612dba565b614a5581614a4f8454614985565b846149d8565b602080601f831160018114614aa85760008415614a725750858301515b7fffffffffffffffffffffffffffffffffffffffffffffffffffffffffffffffff600386901b1c1916600185901b178555614a1e565b6000858152602081207fffffffffffffffffffffffffffffffffffffffffffffffffffffffffffffffe08616915b82811015614af557888601518255948401946001909101908401614ad6565b5085821015614b3157878501517fffffffffffffffffffffffffffffffffffffffffffffffffffffffffffffffff600388901b60f8161c191681555b5050505050600190811b01905550565b8082018082111561043357610433614033565b80516080808452815184820181905260009260a0916020918201918388019190865b82811015614c3957845180516cffffffffffffffffffffffffff1685528281015163ffffffff908116848701526040808301519091169086015260608082015161ffff16908601528781015173ffffffffffffffffffffffffffffffffffffffff1688860152868101518786015260c08082015162ffffff169086015260e0808201511515908601526101008082015115159086015261012080820151151590860152610140908101511515908501529381019361016090930192600101614b76565b508781015165ffffffffffff81168a8301529550505060408601519350614c6a604088018565ffffffffffff169052565b60608601519350614565606088018573ffffffffffffffffffffffffffffffffffffffff169052565b60028110614cca577f4e487b7100000000000000000000000000000000000000000000000000000000600052602160045260246000fd5b9052565b82815260406020820152600082516101c06040840152614cf2610200840182613b71565b905060208401517fffffffffffffffffffffffffffffffffffffffffffffffffffffffffffffffc080858403016060860152614d2e8383613b71565b925060408601519150614d59608086018373ffffffffffffffffffffffffffffffffffffffff169052565b60608601519150808584030160a0860152614d748383613b71565b925060808601519150614d9f60c086018373ffffffffffffffffffffffffffffffffffffffff169052565b60a08601519150808584030160e0860152614dba8383613b71565b925060c08601519150610100818685030181870152614dd98484614b54565b935060e087015192506101209150614e088287018473ffffffffffffffffffffffffffffffffffffffff169052565b8601519150610140614e318682018473ffffffffffffffffffffffffffffffffffffffff169052565b908601518051151561016087015260208101511515610180870152604081015115156101a08701526060015115156101c08601528501519050614e786101e0850182614c93565b50949350505050565b8035614e8c81612d85565b73ffffffffffffffffffffffffffffffffffffffff1682526020818101359083015260408082013590830152606090810135910152565b60008083357fffffffffffffffffffffffffffffffffffffffffffffffffffffffffffffffe1843603018112614ef857600080fd5b830160208101925035905067ffffffffffffffff811115614f1857600080fd5b803603821315614f2757600080fd5b9250929050565b8183528181602085013750600060208284010152600060207fffffffffffffffffffffffffffffffffffffffffffffffffffffffffffffffe0601f840116840101905092915050565b60208152614fa560208201614f8b84612daa565b73ffffffffffffffffffffffffffffffffffffffff169052565b6000614fb360208401612daa565b73ffffffffffffffffffffffffffffffffffffffff8116604084015250614fe06060830160408501614e81565b60c083013560e083015261010060e084013581840152615001818501612daa565b90506101206150278185018373ffffffffffffffffffffffffffffffffffffffff169052565b6101409150808501358285015250610160818501358185015261504c81860186614ec3565b925090506101a0610180818187015261506a6101c087018585614f2e565b935061507881880188614ec3565b935090507fffffffffffffffffffffffffffffffffffffffffffffffffffffffffffffffe086850301828701526150b0848483614f2e565b979650505050505050565b60006150c9612f8a84612f36565b90508281528383830111156150dd57600080fd5b612d65836020830184613b4d565b60008060006060848603121561510057600080fd5b8351925060208085015167ffffffffffffffff8082111561512057600080fd5b818701915087601f83011261513457600080fd5b6151428883518585016150bb565b9450604087015191508082111561515857600080fd5b818701915087601f83011261516c57600080fd5b815161517a612f8a8261302c565b81815260059190911b8301840190848101908a83111561519957600080fd5b8585015b83811015615253578051858111156151b457600080fd5b86016060818e037fffffffffffffffffffffffffffffffffffffffffffffffffffffffffffffffe00112156151e857600080fd5b6151f0612e35565b888201516151fd81612d85565b815260408201518982015260608201518781111561521a57600080fd5b8083019250508d603f83011261522f57600080fd5b6152408e8a840151604085016150bb565b604082015284525091860191860161519d565b508096505050505050509250925092565b60008083357fffffffffffffffffffffffffffffffffffffffffffffffffffffffffffffffe184360301811261529957600080fd5b83018035915067ffffffffffffffff8211156152b457600080fd5b602001915036819003821315614f2757600080fdfea26469706673582212209cf92e3826569f7e0ed38c4c0d8bb2d42d6c83d3b23e2c9d8fd1ed9f3b56fbd464736f6c63430008150033",
    "linkReferences": {}
  },
  "methodIdentifiers": {
    "buybackDelegateDataSourceOf(uint256)": "ef8eadd5",
    "buybackDelegatePermissionIndexes(uint256)": "9e8c513a",
    "controller()": "f77c4791",
    "currentDevTaxPeriodNumberOf(uint256)": "9f665eee",
    "delegateAllocationsOf(uint256,uint256)": "abc603e3",
    "delegateDeployer()": "8f3d964b",
    "deployBasicNetworkFor(address,(string,uint256),string,string,(uint256,uint256,uint256,uint256,uint256,(uint128,uint128)[],uint24),address[],address)": "0a801f47",
    "deployPayAllocatorNetworkFor(address,(string,uint256),string,string,(uint256,uint256,uint256,uint256,uint256,(uint128,uint128)[],uint24),address[],address,(address,uint256,bytes)[],uint8)": "522aa551",
    "deployTiered721PayAllocatorNetworkFor(address,(string,uint256),string,string,(uint256,uint256,uint256,uint256,uint256,(uint128,uint128)[],uint24),address[],address,(string,string,address,string,address,string,((uint104,uint32,uint32,uint16,address,bytes32,uint24,bool,bool,bool,bool)[],uint48,uint48,address),address,address,(bool,bool,bool,bool),uint8),(address,uint256,bytes)[],uint8)": "5bd26667",
    "devTaxPeriodsOf(uint256,uint256)": "a26711ae",
    "directory()": "c41c2f24",
    "onERC721Received(address,address,uint256,bytes)": "150b7a02",
    "operatorPermissionIndexes(uint256)": "4d757720",
    "payParams((address,address,(address,uint256,uint256,uint256),uint256,uint256,address,uint256,uint256,string,bytes))": "d46cf171",
    "redeemParams((address,address,uint256,uint256,uint256,uint256,uint256,(address,uint256,uint256,uint256),bool,uint256,string,bytes))": "a51cfd18",
    "scheduleNextDevTaxPeriodOf(uint256)": "0310850e",
    "supportsInterface(bytes4)": "01ffc9a7"
  },
  "id": 105
}