{
  "abi": [
    {
      "inputs": [
        {
          "internalType": "contract IJBDirectory",
          "name": "_directory",
          "type": "address"
        },
        {
          "internalType": "contract IJBTiered721DelegateDeployer",
          "name": "_delegateDeployer",
          "type": "address"
        },
        {
          "internalType": "contract IJBController3_1",
          "name": "_controller",
          "type": "address"
        },
        {
          "internalType": "contract IJBGenericBuybackDelegate",
          "name": "_buybackDelegate",
          "type": "address"
        }
      ],
      "stateMutability": "nonpayable",
      "type": "constructor"
    },
    {
      "inputs": [],
      "name": "RECONFIGURATION_ALREADY_SCHEDULED",
      "type": "error"
    },
    {
      "inputs": [],
      "name": "buybackDelegate",
      "outputs": [
        {
          "internalType": "contract IJBGenericBuybackDelegate",
          "name": "",
          "type": "address"
        }
      ],
      "stateMutability": "view",
      "type": "function"
    },
    {
      "inputs": [],
      "name": "controller",
      "outputs": [
        {
          "internalType": "contract IJBController3_1",
          "name": "",
          "type": "address"
        }
      ],
      "stateMutability": "view",
      "type": "function"
    },
    {
      "inputs": [
        {
          "internalType": "uint256",
          "name": "",
          "type": "uint256"
        },
        {
          "internalType": "uint256",
          "name": "",
          "type": "uint256"
        }
      ],
      "name": "delegateAllocationsOf",
      "outputs": [
        {
          "internalType": "contract IJBPayDelegate3_1_1",
          "name": "delegate",
          "type": "address"
        },
        {
          "internalType": "uint256",
          "name": "amount",
          "type": "uint256"
        },
        {
          "internalType": "bytes",
          "name": "metadata",
          "type": "bytes"
        }
      ],
      "stateMutability": "view",
      "type": "function"
    },
    {
      "inputs": [],
      "name": "delegateDeployer",
      "outputs": [
        {
          "internalType": "contract IJBTiered721DelegateDeployer",
          "name": "",
          "type": "address"
        }
      ],
      "stateMutability": "view",
      "type": "function"
    },
    {
      "inputs": [
        {
          "internalType": "address",
          "name": "_operator",
          "type": "address"
        },
        {
          "components": [
            {
              "internalType": "string",
              "name": "content",
              "type": "string"
            },
            {
              "internalType": "uint256",
              "name": "domain",
              "type": "uint256"
            }
          ],
          "internalType": "struct JBProjectMetadata",
          "name": "_projectMetadata",
          "type": "tuple"
        },
        {
          "internalType": "string",
          "name": "_name",
          "type": "string"
        },
        {
          "internalType": "string",
          "name": "_symbol",
          "type": "string"
        },
        {
          "components": [
            {
              "internalType": "uint256",
              "name": "initialIssuanceRate",
              "type": "uint256"
            },
            {
              "internalType": "uint256",
              "name": "premintTokenAmount",
              "type": "uint256"
            },
            {
              "internalType": "uint256",
              "name": "discountRate",
              "type": "uint256"
            },
            {
              "internalType": "uint256",
              "name": "cycleDurations",
              "type": "uint256"
            },
            {
              "internalType": "uint256",
              "name": "redemptionRate",
              "type": "uint256"
            },
            {
              "internalType": "uint256",
              "name": "reservedRate",
              "type": "uint256"
            },
            {
              "internalType": "uint48",
              "name": "reservedRateDuration",
              "type": "uint48"
            },
            {
              "internalType": "uint24",
              "name": "poolFee",
              "type": "uint24"
            }
          ],
          "internalType": "struct BasicRetailistJBParams",
          "name": "_data",
          "type": "tuple"
        },
        {
          "internalType": "contract IJBPaymentTerminal[]",
          "name": "_terminals",
          "type": "address[]"
        }
      ],
      "name": "deployBasicProjectFor",
      "outputs": [
        {
          "internalType": "uint256",
          "name": "projectId",
          "type": "uint256"
        }
      ],
      "stateMutability": "nonpayable",
      "type": "function"
    },
    {
      "inputs": [
        {
          "internalType": "address",
          "name": "_operator",
          "type": "address"
        },
        {
          "components": [
            {
              "internalType": "string",
              "name": "content",
              "type": "string"
            },
            {
              "internalType": "uint256",
              "name": "domain",
              "type": "uint256"
            }
          ],
          "internalType": "struct JBProjectMetadata",
          "name": "_projectMetadata",
          "type": "tuple"
        },
        {
          "internalType": "string",
          "name": "_name",
          "type": "string"
        },
        {
          "internalType": "string",
          "name": "_symbol",
          "type": "string"
        },
        {
          "components": [
            {
              "internalType": "uint256",
              "name": "initialIssuanceRate",
              "type": "uint256"
            },
            {
              "internalType": "uint256",
              "name": "premintTokenAmount",
              "type": "uint256"
            },
            {
              "internalType": "uint256",
              "name": "discountRate",
              "type": "uint256"
            },
            {
              "internalType": "uint256",
              "name": "cycleDurations",
              "type": "uint256"
            },
            {
              "internalType": "uint256",
              "name": "redemptionRate",
              "type": "uint256"
            },
            {
              "internalType": "uint256",
              "name": "reservedRate",
              "type": "uint256"
            },
            {
              "internalType": "uint48",
              "name": "reservedRateDuration",
              "type": "uint48"
            },
            {
              "internalType": "uint24",
              "name": "poolFee",
              "type": "uint24"
            }
          ],
          "internalType": "struct BasicRetailistJBParams",
          "name": "_data",
          "type": "tuple"
        },
        {
          "internalType": "contract IJBPaymentTerminal[]",
          "name": "_terminals",
          "type": "address[]"
        },
        {
          "components": [
            {
              "internalType": "contract IJBPayDelegate3_1_1",
              "name": "delegate",
              "type": "address"
            },
            {
              "internalType": "uint256",
              "name": "amount",
              "type": "uint256"
            },
            {
              "internalType": "bytes",
              "name": "metadata",
              "type": "bytes"
            }
          ],
          "internalType": "struct JBPayDelegateAllocation3_1_1[]",
          "name": "_delegateAllocations",
          "type": "tuple[]"
        },
        {
          "internalType": "uint8",
          "name": "_extraFundingCycleMetadata",
          "type": "uint8"
        }
      ],
      "name": "deployPayAllocatorProjectFor",
      "outputs": [
        {
          "internalType": "uint256",
          "name": "projectId",
          "type": "uint256"
        }
      ],
      "stateMutability": "nonpayable",
      "type": "function"
    },
    {
      "inputs": [
        {
          "internalType": "address",
          "name": "_operator",
          "type": "address"
        },
        {
          "components": [
            {
              "internalType": "string",
              "name": "content",
              "type": "string"
            },
            {
              "internalType": "uint256",
              "name": "domain",
              "type": "uint256"
            }
          ],
          "internalType": "struct JBProjectMetadata",
          "name": "_projectMetadata",
          "type": "tuple"
        },
        {
          "internalType": "string",
          "name": "_name",
          "type": "string"
        },
        {
          "internalType": "string",
          "name": "_symbol",
          "type": "string"
        },
        {
          "components": [
            {
              "internalType": "uint256",
              "name": "initialIssuanceRate",
              "type": "uint256"
            },
            {
              "internalType": "uint256",
              "name": "premintTokenAmount",
              "type": "uint256"
            },
            {
              "internalType": "uint256",
              "name": "discountRate",
              "type": "uint256"
            },
            {
              "internalType": "uint256",
              "name": "cycleDurations",
              "type": "uint256"
            },
            {
              "internalType": "uint256",
              "name": "redemptionRate",
              "type": "uint256"
            },
            {
              "internalType": "uint256",
              "name": "reservedRate",
              "type": "uint256"
            },
            {
              "internalType": "uint48",
              "name": "reservedRateDuration",
              "type": "uint48"
            },
            {
              "internalType": "uint24",
              "name": "poolFee",
              "type": "uint24"
            }
          ],
          "internalType": "struct BasicRetailistJBParams",
          "name": "_data",
          "type": "tuple"
        },
        {
          "internalType": "contract IJBPaymentTerminal[]",
          "name": "_terminals",
          "type": "address[]"
        },
        {
          "components": [
            {
              "internalType": "string",
              "name": "name",
              "type": "string"
            },
            {
              "internalType": "string",
              "name": "symbol",
              "type": "string"
            },
            {
              "internalType": "contract IJBFundingCycleStore",
              "name": "fundingCycleStore",
              "type": "address"
            },
            {
              "internalType": "string",
              "name": "baseUri",
              "type": "string"
            },
            {
              "internalType": "contract IJB721TokenUriResolver",
              "name": "tokenUriResolver",
              "type": "address"
            },
            {
              "internalType": "string",
              "name": "contractUri",
              "type": "string"
            },
            {
              "components": [
                {
                  "components": [
                    {
                      "internalType": "uint104",
                      "name": "price",
                      "type": "uint104"
                    },
                    {
                      "internalType": "uint32",
                      "name": "initialQuantity",
                      "type": "uint32"
                    },
                    {
                      "internalType": "uint32",
                      "name": "votingUnits",
                      "type": "uint32"
                    },
                    {
                      "internalType": "uint16",
                      "name": "reservedRate",
                      "type": "uint16"
                    },
                    {
                      "internalType": "address",
                      "name": "reservedTokenBeneficiary",
                      "type": "address"
                    },
                    {
                      "internalType": "bytes32",
                      "name": "encodedIPFSUri",
                      "type": "bytes32"
                    },
                    {
                      "internalType": "uint24",
                      "name": "category",
                      "type": "uint24"
                    },
                    {
                      "internalType": "bool",
                      "name": "allowManualMint",
                      "type": "bool"
                    },
                    {
                      "internalType": "bool",
                      "name": "shouldUseReservedTokenBeneficiaryAsDefault",
                      "type": "bool"
                    },
                    {
                      "internalType": "bool",
                      "name": "transfersPausable",
                      "type": "bool"
                    },
                    {
                      "internalType": "bool",
                      "name": "useVotingUnits",
                      "type": "bool"
                    }
                  ],
                  "internalType": "struct JB721TierParams[]",
                  "name": "tiers",
                  "type": "tuple[]"
                },
                {
                  "internalType": "uint48",
                  "name": "currency",
                  "type": "uint48"
                },
                {
                  "internalType": "uint48",
                  "name": "decimals",
                  "type": "uint48"
                },
                {
                  "internalType": "contract IJBPrices",
                  "name": "prices",
                  "type": "address"
                }
              ],
              "internalType": "struct JB721PricingParams",
              "name": "pricing",
              "type": "tuple"
            },
            {
              "internalType": "address",
              "name": "reservedTokenBeneficiary",
              "type": "address"
            },
            {
              "internalType": "contract IJBTiered721DelegateStore",
              "name": "store",
              "type": "address"
            },
            {
              "components": [
                {
                  "internalType": "bool",
                  "name": "lockReservedTokenChanges",
                  "type": "bool"
                },
                {
                  "internalType": "bool",
                  "name": "lockVotingUnitChanges",
                  "type": "bool"
                },
                {
                  "internalType": "bool",
                  "name": "lockManualMintingChanges",
                  "type": "bool"
                },
                {
                  "internalType": "bool",
                  "name": "preventOverspending",
                  "type": "bool"
                }
              ],
              "internalType": "struct JBTiered721Flags",
              "name": "flags",
              "type": "tuple"
            },
            {
              "internalType": "enum JB721GovernanceType",
              "name": "governanceType",
              "type": "uint8"
            }
          ],
          "internalType": "struct JBDeployTiered721DelegateData",
          "name": "_deployTiered721DelegateData",
          "type": "tuple"
        },
        {
          "components": [
            {
              "internalType": "contract IJBPayDelegate3_1_1",
              "name": "delegate",
              "type": "address"
            },
            {
              "internalType": "uint256",
              "name": "amount",
              "type": "uint256"
            },
            {
              "internalType": "bytes",
              "name": "metadata",
              "type": "bytes"
            }
          ],
          "internalType": "struct JBPayDelegateAllocation3_1_1[]",
          "name": "_otherDelegateAllocations",
          "type": "tuple[]"
        },
        {
          "internalType": "uint8",
          "name": "_extraFundingCycleMetadata",
          "type": "uint8"
        }
      ],
      "name": "deployTiered721PayAllocatorProjectFor",
      "outputs": [
        {
          "internalType": "uint256",
          "name": "projectId",
          "type": "uint256"
        }
      ],
      "stateMutability": "nonpayable",
      "type": "function"
    },
    {
      "inputs": [],
      "name": "directory",
      "outputs": [
        {
          "internalType": "contract IJBDirectory",
          "name": "",
          "type": "address"
        }
      ],
      "stateMutability": "view",
      "type": "function"
    },
    {
      "inputs": [
        {
          "internalType": "address",
          "name": "_operator",
          "type": "address"
        },
        {
          "internalType": "address",
          "name": "_from",
          "type": "address"
        },
        {
          "internalType": "uint256",
          "name": "_tokenId",
          "type": "uint256"
        },
        {
          "internalType": "bytes",
          "name": "_data",
          "type": "bytes"
        }
      ],
      "name": "onERC721Received",
      "outputs": [
        {
          "internalType": "bytes4",
          "name": "",
          "type": "bytes4"
        }
      ],
      "stateMutability": "view",
      "type": "function"
    },
    {
      "inputs": [
        {
          "components": [
            {
              "internalType": "contract IJBPaymentTerminal",
              "name": "terminal",
              "type": "address"
            },
            {
              "internalType": "address",
              "name": "payer",
              "type": "address"
            },
            {
              "components": [
                {
                  "internalType": "address",
                  "name": "token",
                  "type": "address"
                },
                {
                  "internalType": "uint256",
                  "name": "value",
                  "type": "uint256"
                },
                {
                  "internalType": "uint256",
                  "name": "decimals",
                  "type": "uint256"
                },
                {
                  "internalType": "uint256",
                  "name": "currency",
                  "type": "uint256"
                }
              ],
              "internalType": "struct JBTokenAmount",
              "name": "amount",
              "type": "tuple"
            },
            {
              "internalType": "uint256",
              "name": "projectId",
              "type": "uint256"
            },
            {
              "internalType": "uint256",
              "name": "currentFundingCycleConfiguration",
              "type": "uint256"
            },
            {
              "internalType": "address",
              "name": "beneficiary",
              "type": "address"
            },
            {
              "internalType": "uint256",
              "name": "weight",
              "type": "uint256"
            },
            {
              "internalType": "uint256",
              "name": "reservedRate",
              "type": "uint256"
            },
            {
              "internalType": "string",
              "name": "memo",
              "type": "string"
            },
            {
              "internalType": "bytes",
              "name": "metadata",
              "type": "bytes"
            }
          ],
          "internalType": "struct JBPayParamsData",
          "name": "_data",
          "type": "tuple"
        }
      ],
      "name": "payParams",
      "outputs": [
        {
          "internalType": "uint256",
          "name": "weight",
          "type": "uint256"
        },
        {
          "internalType": "string",
          "name": "memo",
          "type": "string"
        },
        {
          "components": [
            {
              "internalType": "contract IJBPayDelegate3_1_1",
              "name": "delegate",
              "type": "address"
            },
            {
              "internalType": "uint256",
              "name": "amount",
              "type": "uint256"
            },
            {
              "internalType": "bytes",
              "name": "metadata",
              "type": "bytes"
            }
          ],
          "internalType": "struct JBPayDelegateAllocation3_1_1[]",
          "name": "delegateAllocations",
          "type": "tuple[]"
        }
      ],
      "stateMutability": "view",
      "type": "function"
    },
    {
      "inputs": [
        {
          "internalType": "uint256",
          "name": "",
          "type": "uint256"
        }
      ],
      "name": "permissionIndexes",
      "outputs": [
        {
          "internalType": "uint256",
          "name": "",
          "type": "uint256"
        }
      ],
      "stateMutability": "view",
      "type": "function"
    },
    {
      "inputs": [
        {
          "internalType": "uint256",
          "name": "projectId",
          "type": "uint256"
        }
      ],
      "name": "reconfigurationStartTimestampOf",
      "outputs": [
        {
          "internalType": "uint256",
          "name": "",
          "type": "uint256"
        }
      ],
      "stateMutability": "view",
      "type": "function"
    },
    {
      "inputs": [
        {
          "components": [
            {
              "internalType": "contract IJBPaymentTerminal",
              "name": "terminal",
              "type": "address"
            },
            {
              "internalType": "address",
              "name": "holder",
              "type": "address"
            },
            {
              "internalType": "uint256",
              "name": "projectId",
              "type": "uint256"
            },
            {
              "internalType": "uint256",
              "name": "currentFundingCycleConfiguration",
              "type": "uint256"
            },
            {
              "internalType": "uint256",
              "name": "tokenCount",
              "type": "uint256"
            },
            {
              "internalType": "uint256",
              "name": "totalSupply",
              "type": "uint256"
            },
            {
              "internalType": "uint256",
              "name": "overflow",
              "type": "uint256"
            },
            {
              "components": [
                {
                  "internalType": "address",
                  "name": "token",
                  "type": "address"
                },
                {
                  "internalType": "uint256",
                  "name": "value",
                  "type": "uint256"
                },
                {
                  "internalType": "uint256",
                  "name": "decimals",
                  "type": "uint256"
                },
                {
                  "internalType": "uint256",
                  "name": "currency",
                  "type": "uint256"
                }
              ],
              "internalType": "struct JBTokenAmount",
              "name": "reclaimAmount",
              "type": "tuple"
            },
            {
              "internalType": "bool",
              "name": "useTotalOverflow",
              "type": "bool"
            },
            {
              "internalType": "uint256",
              "name": "redemptionRate",
              "type": "uint256"
            },
            {
              "internalType": "string",
              "name": "memo",
              "type": "string"
            },
            {
              "internalType": "bytes",
              "name": "metadata",
              "type": "bytes"
            }
          ],
          "internalType": "struct JBRedeemParamsData",
          "name": "_data",
          "type": "tuple"
        }
      ],
      "name": "redeemParams",
      "outputs": [
        {
          "internalType": "uint256",
          "name": "",
          "type": "uint256"
        },
        {
          "internalType": "string",
          "name": "",
          "type": "string"
        },
        {
          "components": [
            {
              "internalType": "contract IJBRedemptionDelegate3_1_1",
              "name": "delegate",
              "type": "address"
            },
            {
              "internalType": "uint256",
              "name": "amount",
              "type": "uint256"
            },
            {
              "internalType": "bytes",
              "name": "metadata",
              "type": "bytes"
            }
          ],
          "internalType": "struct JBRedemptionDelegateAllocation3_1_1[]",
          "name": "",
          "type": "tuple[]"
        }
      ],
      "stateMutability": "view",
      "type": "function"
    },
    {
      "inputs": [
        {
          "internalType": "uint256",
          "name": "_projectId",
          "type": "uint256"
        }
      ],
      "name": "scheduleReconfigurationOf",
      "outputs": [],
      "stateMutability": "nonpayable",
      "type": "function"
    },
    {
      "inputs": [
        {
          "internalType": "bytes4",
          "name": "_interfaceId",
          "type": "bytes4"
        }
      ],
      "name": "supportsInterface",
      "outputs": [
        {
          "internalType": "bool",
          "name": "",
          "type": "bool"
        }
      ],
      "stateMutability": "view",
      "type": "function"
    }
  ],
  "bytecode": {
    "object": "0x6101006040523480156200001257600080fd5b5060405162004ba238038062004ba28339810160408190526200003591620000b3565b6001600160a01b03918216608052811660a052600080546001818101835582805260127f290decd9548b62a8d60345a988386fc84ba6bc95484008f6362f93160ef3e563928301558254908101909255601891015591821660c0521660e0526200011b565b6001600160a01b0381168114620000b057600080fd5b50565b60008060008060808587031215620000ca57600080fd5b8451620000d7816200009a565b6020860151909450620000ea816200009a565b6040860151909350620000fd816200009a565b606086015190925062000110816200009a565b939692955090935050565b60805160a05160c05160e0516149ac620001f6600039600081816101d401526110d60152600081816102770152610fca01526000818161029e01528181610885015281816108be0152818161094d01528181610ba50152818161178001528181611e7001528181611ea90152611f380152600081816102fa015281816103b90152818161064f0152818161075d01528181610a7e01528181610ce001528181610da201528181611303015281816114b601528181611c3a01528181611d4801528181612069015281816122a9015261236b01526149ac6000f3fe608060405234801561001057600080fd5b50600436106100f55760003560e01c80639483e77111610097578063d396752511610066578063d396752514610299578063d46cf171146102c0578063f1089241146102e2578063f77c4791146102f557600080fd5b80639483e7711461021b578063a51cfd181461022e578063abc603e314610250578063c41c2f241461027257600080fd5b806331ff35fd116100d357806331ff35fd146101875780633ce6d3e21461019a578063560f7b03146101af5780638f3d964b146101cf57600080fd5b806301ffc9a7146100fa578063150b7a0214610122578063179d2ada14610166575b600080fd5b61010d61010836600461265e565b61031c565b60405190151581526020015b60405180910390f35b610135610130366004612725565b6103b5565b6040517fffffffff000000000000000000000000000000000000000000000000000000009091168152602001610119565b610179610174366004612991565b6104c9565b604051908152602001610119565b610179610195366004612ffd565b610fc6565b6101ad6101a8366004613140565b6112ba565b005b6101796101bd366004613140565b60016020526000908152604090205481565b6101f67f000000000000000000000000000000000000000000000000000000000000000081565b60405173ffffffffffffffffffffffffffffffffffffffff9091168152602001610119565b610179610229366004613140565b61160b565b61024161023c366004613159565b61162c565b60405161011993929190613203565b61026361025e3660046132cc565b611694565b604051610119939291906132ee565b6101f67f000000000000000000000000000000000000000000000000000000000000000081565b6101f67f000000000000000000000000000000000000000000000000000000000000000081565b6102d36102ce36600461332c565b611777565b60405161011993929190613368565b6101796102f036600461341f565b611ab4565b6101f67f000000000000000000000000000000000000000000000000000000000000000081565b60007fffffffff0000000000000000000000000000000000000000000000000000000082167f71700c690000000000000000000000000000000000000000000000000000000014806103af57507f150b7a02000000000000000000000000000000000000000000000000000000007fffffffff000000000000000000000000000000000000000000000000000000008316145b92915050565b60007f000000000000000000000000000000000000000000000000000000000000000073ffffffffffffffffffffffffffffffffffffffff16638b79543c6040518163ffffffff1660e01b8152600401602060405180830381865afa158015610422573d6000803e3d6000fd5b505050506040513d601f19601f820116820180604052508101906104469190613535565b73ffffffffffffffffffffffffffffffffffffffff163373ffffffffffffffffffffffffffffffffffffffff161461047d57600080fd5b73ffffffffffffffffffffffffffffffffffffffff85161561049e57600080fd5b507f150b7a020000000000000000000000000000000000000000000000000000000095945050505050565b604080516001808252818301909252600091829190816020015b6040805180820190915260008152606060208201528152602001906001900390816104e357505060408051600180825281830190925291925060009190602082015b6040805160e08101825260008082526020808301829052928201819052606082018190526080820181905260a0820181905260c082015282527fffffffffffffffffffffffffffffffffffffffffffffffffffffffffffffffff9092019101816105255790505090506040518060e00160405280600015158152602001600015158152602001633b9aca008152602001600081526020018c73ffffffffffffffffffffffffffffffffffffffff16815260200160008152602001600073ffffffffffffffffffffffffffffffffffffffff168152508160018151811061060d5761060d613552565b6020026020010181905250604051806040016040528060028152602001828152508260008151811061064157610641613552565b6020026020010181905250507f000000000000000000000000000000000000000000000000000000000000000073ffffffffffffffffffffffffffffffffffffffff16638b79543c6040518163ffffffff1660e01b8152600401602060405180830381865afa1580156106b8573d6000803e3d6000fd5b505050506040513d601f19601f820116820180604052508101906106dc9190613535565b73ffffffffffffffffffffffffffffffffffffffff1663666d87a0308b6040518363ffffffff1660e01b815260040161071692919061362e565b6020604051808303816000875af1158015610735573d6000803e3d6000fd5b505050506040513d601f19601f820116820180604052508101906107599190613686565b91507f000000000000000000000000000000000000000000000000000000000000000073ffffffffffffffffffffffffffffffffffffffff1663619306306040518163ffffffff1660e01b8152600401602060405180830381865afa1580156107c6573d6000803e3d6000fd5b505050506040513d601f19601f820116820180604052508101906107ea9190613535565b73ffffffffffffffffffffffffffffffffffffffff1663a7f2a70b838a8a8a8a6040518663ffffffff1660e01b815260040161082a95949392919061369f565b6020604051808303816000875af1158015610849573d6000803e3d6000fd5b505050506040513d601f19601f8201168201806040525081019061086d9190613535565b5073ffffffffffffffffffffffffffffffffffffffff7f000000000000000000000000000000000000000000000000000000000000000016637b621d3a836108bc610100880160e089016136d8565b7f000000000000000000000000000000000000000000000000000000000000000073ffffffffffffffffffffffffffffffffffffffff166360b3042c6040518163ffffffff1660e01b8152600401602060405180830381865afa158015610927573d6000803e3d6000fd5b505050506040513d601f19601f8201168201806040525081019061094b9190613686565b7f000000000000000000000000000000000000000000000000000000000000000073ffffffffffffffffffffffffffffffffffffffff1663737a79966040518163ffffffff1660e01b8152600401602060405180830381865afa1580156109b6573d6000803e3d6000fd5b505050506040513d601f19601f820116820180604052508101906109da9190613686565b6040517fffffffff0000000000000000000000000000000000000000000000000000000060e087901b168152600481019490945262ffffff909216602484015263ffffffff908116604484015216606482015261eeee608482015260a4016020604051808303816000875af1158015610a57573d6000803e3d6000fd5b505050506040513d601f19601f82011682018060405250810190610a7b9190613535565b507f000000000000000000000000000000000000000000000000000000000000000073ffffffffffffffffffffffffffffffffffffffff1663111d861b8360405180608001604052808860600135815260200160128960000135610adf9190613842565b8152604089810135602080840191909152600092820183905281516102a081018352610240810184815261026082018590526102808201859052815260a0808d0135828401526080808e013583860152606083018690528201859052810184905260c0810184905260e081018490526001610100820181905261012082018590526101408201859052610160820185905261018082018590526101a082018590526101c08201526101e0810184905273ffffffffffffffffffffffffffffffffffffffff7f00000000000000000000000000000000000000000000000000000000000000001661020082015261022081018490528251848152918201909252909190879082610c61565b610c4e6040518060c00160405280600073ffffffffffffffffffffffffffffffffffffffff168152602001600073ffffffffffffffffffffffffffffffffffffffff168152602001600081526020016000815260200160008152602001600081525090565b815260200190600190039081610be95790505b508a6040518863ffffffff1660e01b8152600401610c859796959493929190613b38565b6020604051808303816000875af1158015610ca4573d6000803e3d6000fd5b505050506040513d601f19601f82011682018060405250810190610cc89190613686565b5073ffffffffffffffffffffffffffffffffffffffff7f000000000000000000000000000000000000000000000000000000000000000016638ae9c07b83610d1560126020890135613842565b8d8a8a604051602001610d29929190613c56565b6040516020818303038152906040526000806040518763ffffffff1660e01b8152600401610d5c96959493929190613c8f565b6020604051808303816000875af1158015610d7b573d6000803e3d6000fd5b505050506040513d601f19601f82011682018060405250810190610d9f9190613686565b507f000000000000000000000000000000000000000000000000000000000000000073ffffffffffffffffffffffffffffffffffffffff16632bdfe0046040518163ffffffff1660e01b8152600401602060405180830381865afa158015610e0b573d6000803e3d6000fd5b505050506040513d601f19601f82011682018060405250810190610e2f9190613535565b73ffffffffffffffffffffffffffffffffffffffff1663ad007d636040518163ffffffff1660e01b8152600401602060405180830381865afa158015610e79573d6000803e3d6000fd5b505050506040513d601f19601f82011682018060405250810190610e9d9190613535565b73ffffffffffffffffffffffffffffffffffffffff1663529cdd2e60405180606001604052808d73ffffffffffffffffffffffffffffffffffffffff1681526020018581526020016000805480602002602001604051908101604052809291908181526020018280548015610f3157602002820191906000526020600020905b815481526020019060010190808311610f1d575b50505050508152506040518263ffffffff1660e01b8152600401610f559190613ce4565b600060405180830381600087803b158015610f6f57600080fd5b505af1158015610f83573d6000803e3d6000fd5b50610f989250505060e0850160c08601613d55565b610faa9065ffffffffffff1642613d70565b6000838152600160205260409020555098975050505050505050565b60007f000000000000000000000000000000000000000000000000000000000000000073ffffffffffffffffffffffffffffffffffffffff16638b79543c6040518163ffffffff1660e01b8152600401602060405180830381865afa158015611033573d6000803e3d6000fd5b505050506040513d601f19601f820116820180604052508101906110579190613535565b73ffffffffffffffffffffffffffffffffffffffff166306661abd6040518163ffffffff1660e01b8152600401602060405180830381865afa1580156110a1573d6000803e3d6000fd5b505050506040513d601f19601f820116820180604052508101906110c59190613686565b6110d0906001613d70565b905060007f000000000000000000000000000000000000000000000000000000000000000073ffffffffffffffffffffffffffffffffffffffff166370d7f24983876040518363ffffffff1660e01b815260040161112f929190613f07565b6020604051808303816000875af115801561114e573d6000803e3d6000fd5b505050506040513d601f19601f820116820180604052508101906111729190613535565b84519091506000611184826001613d70565b67ffffffffffffffff81111561119c5761119c6127c3565b6040519080825280602002602001820160405280156111e957816020015b604080516060808201835260008083526020830152918101919091528152602001906001900390816111ba5790505b50905060005b828110156112365786818151811061120957611209613552565b602002602001015182828151811061122357611223613552565b60209081029190910101526001016111ef565b5060405180606001604052808473ffffffffffffffffffffffffffffffffffffffff168152602001600081526020016040518060200160405280600081525081525081838151811061128a5761128a613552565b60200260200101819052506112a78f8f8f8f8f8f8f8f898e611ab4565b505050509b9a5050505050505050505050565b6040517f1f51045300000000000000000000000000000000000000000000000000000000815260048101829052600090819073ffffffffffffffffffffffffffffffffffffffff7f00000000000000000000000000000000000000000000000000000000000000001690631f510453906024016103c060405180830381865afa15801561134b573d6000803e3d6000fd5b505050506040513d601f19601f8201168201806040525081019061136f9190614281565b50815191935091506001146113b0576040517fc97554fa00000000000000000000000000000000000000000000000000000000815260040160405180910390fd5b60408051608080820183528481015182526000602080840182905260c08088015185870152606080860184905286516102a0810188526102408101858152610260820186905261028082018690528152808401859052888801518189015290810184905293840183905260a08401839052830182905260e08301829052610100830182905261012083018290526101408301829052610160830182905261018083018290526101a083018290526101c083018290526101e083018290526102008087015173ffffffffffffffffffffffffffffffffffffffff908116918501919091526102208781015190850152888352600182528583205486518481529283019096527f0000000000000000000000000000000000000000000000000000000000000000169463badbdf289489949093909290611511565b6040805180820190915260008152606060208201528152602001906001900390816114e95790505b5060408051600080825260208201909252906115a0565b61158d6040518060c00160405280600073ffffffffffffffffffffffffffffffffffffffff168152602001600073ffffffffffffffffffffffffffffffffffffffff168152602001600081526020016000815260200160008152602001600081525090565b8152602001906001900390816115285790505b506040518763ffffffff1660e01b81526004016115c296959493929190614338565b6020604051808303816000875af11580156115e1573d6000803e3d6000fd5b505050506040513d601f19601f820116820180604052508101906116059190613686565b50505050565b6000818154811061161b57600080fd5b600091825260209091200154905081565b604080516000808252602082019092526060908190839081611678565b604080516060808201835260008083526020830152918101919091528152602001906001900390816116495790505b5060408051602081019091526000815291969195509350915050565b600260205281600052604060002081815481106116b057600080fd5b600091825260209091206003909102018054600182015460028301805473ffffffffffffffffffffffffffffffffffffffff9093169550909350906116f49061442c565b80601f01602080910402602001604051908101604052809291908181526020018280546117209061442c565b801561176d5780601f106117425761010080835404028352916020019161176d565b820191906000526020600020905b81548152906001019060200180831161175057829003601f168201915b5050505050905083565b600060608060607f000000000000000000000000000000000000000000000000000000000000000073ffffffffffffffffffffffffffffffffffffffff1663d46cf171866040518263ffffffff1660e01b81526004016117d791906144bb565b600060405180830381865afa1580156117f4573d6000803e3d6000fd5b505050506040513d6000823e601f3d9081017fffffffffffffffffffffffffffffffffffffffffffffffffffffffffffffffe016820160405261183a919081019061462f565b60c088013560009081526002602090815260408083208054825181850281018501909352808352969a509396509194919350849084015b828210156119625760008481526020908190206040805160608101825260038602909201805473ffffffffffffffffffffffffffffffffffffffff168352600181015493830193909352600283018054929392918401916118d19061442c565b80601f01602080910402602001604051908101604052809291908181526020018280546118fd9061442c565b801561194a5780601f1061191f5761010080835404028352916020019161194a565b820191906000526020600020905b81548152906001019060200180831161192d57829003601f168201915b50505050508152505081526020019060010190611871565b5050825192935061197891508290506001613d70565b67ffffffffffffffff811115611990576119906127c3565b6040519080825280602002602001820160405280156119dd57816020015b604080516060808201835260008083526020830152918101919091528152602001906001900390816119ae5790505b50935060005b81811015611a2a578281815181106119fd576119fd613552565b6020026020010151858281518110611a1757611a17613552565b60209081029190910101526001016119e3565b5082600081518110611a3e57611a3e613552565b6020026020010151848281518110611a5857611a58613552565b6020908102919091010152611a716101608801886147a8565b8080601f016020809104026020016040519081016040528093929190818152602001838380828437600092019190915250989a9299509597509095505050505050565b604080516001808252818301909252600091829190816020015b604080518082019091526000815260606020820152815260200190600190039081611ace57505060408051600180825281830190925291925060009190602082015b6040805160e08101825260008082526020808301829052928201819052606082018190526080820181905260a0820181905260c082015282527fffffffffffffffffffffffffffffffffffffffffffffffffffffffffffffffff909201910181611b105790505090506040518060e00160405280600015158152602001600015158152602001633b9aca008152602001600081526020018e73ffffffffffffffffffffffffffffffffffffffff16815260200160008152602001600073ffffffffffffffffffffffffffffffffffffffff1681525081600181518110611bf857611bf8613552565b60200260200101819052506040518060400160405280600281526020018281525082600081518110611c2c57611c2c613552565b6020026020010181905250507f000000000000000000000000000000000000000000000000000000000000000073ffffffffffffffffffffffffffffffffffffffff16638b79543c6040518163ffffffff1660e01b8152600401602060405180830381865afa158015611ca3573d6000803e3d6000fd5b505050506040513d601f19601f82011682018060405250810190611cc79190613535565b73ffffffffffffffffffffffffffffffffffffffff1663666d87a0308d6040518363ffffffff1660e01b8152600401611d0192919061362e565b6020604051808303816000875af1158015611d20573d6000803e3d6000fd5b505050506040513d601f19601f82011682018060405250810190611d449190613686565b91507f000000000000000000000000000000000000000000000000000000000000000073ffffffffffffffffffffffffffffffffffffffff1663619306306040518163ffffffff1660e01b8152600401602060405180830381865afa158015611db1573d6000803e3d6000fd5b505050506040513d601f19601f82011682018060405250810190611dd59190613535565b73ffffffffffffffffffffffffffffffffffffffff1663a7f2a70b838c8c8c8c6040518663ffffffff1660e01b8152600401611e1595949392919061369f565b6020604051808303816000875af1158015611e34573d6000803e3d6000fd5b505050506040513d601f19601f82011682018060405250810190611e589190613535565b5073ffffffffffffffffffffffffffffffffffffffff7f000000000000000000000000000000000000000000000000000000000000000016637b621d3a83611ea76101008a0160e08b016136d8565b7f000000000000000000000000000000000000000000000000000000000000000073ffffffffffffffffffffffffffffffffffffffff166360b3042c6040518163ffffffff1660e01b8152600401602060405180830381865afa158015611f12573d6000803e3d6000fd5b505050506040513d601f19601f82011682018060405250810190611f369190613686565b7f000000000000000000000000000000000000000000000000000000000000000073ffffffffffffffffffffffffffffffffffffffff1663737a79966040518163ffffffff1660e01b8152600401602060405180830381865afa158015611fa1573d6000803e3d6000fd5b505050506040513d601f19601f82011682018060405250810190611fc59190613686565b6040517fffffffff0000000000000000000000000000000000000000000000000000000060e087901b168152600481019490945262ffffff909216602484015263ffffffff908116604484015216606482015261eeee608482015260a4016020604051808303816000875af1158015612042573d6000803e3d6000fd5b505050506040513d601f19601f820116820180604052508101906120669190613535565b507f000000000000000000000000000000000000000000000000000000000000000073ffffffffffffffffffffffffffffffffffffffff1663111d861b8360405180608001604052808a60600135815260200160128b600001356120ca9190613842565b81526040808c0135602080840191909152600092820183905281516102a081018352610240810184815261026082018590526102808201859052815260a0808f0135928201929092526080808f01359382019390935260608101849052918201839052810182905260c0810182905260e081018290526001610100820181905261012082018390526101408201839052610160820183905261018082018390526101a082018390526101c08201526101e081018290523061020082015260ff891661022082015290868160405190808252806020026020018201604052801561222a57816020015b6122176040518060c00160405280600073ffffffffffffffffffffffffffffffffffffffff168152602001600073ffffffffffffffffffffffffffffffffffffffff168152602001600081526020016000815260200160008152602001600081525090565b8152602001906001900390816121b25790505b508c6040518863ffffffff1660e01b815260040161224e9796959493929190613b38565b6020604051808303816000875af115801561226d573d6000803e3d6000fd5b505050506040513d601f19601f820116820180604052508101906122919190613686565b5073ffffffffffffffffffffffffffffffffffffffff7f000000000000000000000000000000000000000000000000000000000000000016638ae9c07b836122de601260208b0135613842565b8f8c8c6040516020016122f2929190613c56565b6040516020818303038152906040526000806040518763ffffffff1660e01b815260040161232596959493929190613c8f565b6020604051808303816000875af1158015612344573d6000803e3d6000fd5b505050506040513d601f19601f820116820180604052508101906123689190613686565b507f000000000000000000000000000000000000000000000000000000000000000073ffffffffffffffffffffffffffffffffffffffff16632bdfe0046040518163ffffffff1660e01b8152600401602060405180830381865afa1580156123d4573d6000803e3d6000fd5b505050506040513d601f19601f820116820180604052508101906123f89190613535565b73ffffffffffffffffffffffffffffffffffffffff1663ad007d636040518163ffffffff1660e01b8152600401602060405180830381865afa158015612442573d6000803e3d6000fd5b505050506040513d601f19601f820116820180604052508101906124669190613535565b73ffffffffffffffffffffffffffffffffffffffff1663529cdd2e60405180606001604052808f73ffffffffffffffffffffffffffffffffffffffff16815260200185815260200160008054806020026020016040519081016040528092919081815260200182805480156124fa57602002820191906000526020600020905b8154815260200190600101908083116124e6575b50505050508152506040518263ffffffff1660e01b815260040161251e9190613ce4565b600060405180830381600087803b15801561253857600080fd5b505af115801561254c573d6000803e3d6000fd5b506125619250505060e0870160c08801613d55565b6125739065ffffffffffff1642613d70565b6000838152600160205260408120919091558451905b8181101561264d578581815181106125a3576125a3613552565b60200260200101516002600086815260200190815260200160002082815481106125cf576125cf613552565b600091825260209182902083516003929092020180547fffffffffffffffffffffffff00000000000000000000000000000000000000001673ffffffffffffffffffffffffffffffffffffffff90921691909117815590820151600182015560408201516002820190612642908261485c565b505050600101612589565b5050509a9950505050505050505050565b60006020828403121561267057600080fd5b81357fffffffff00000000000000000000000000000000000000000000000000000000811681146126a057600080fd5b9392505050565b73ffffffffffffffffffffffffffffffffffffffff811681146126c957600080fd5b50565b80356126d7816126a7565b919050565b60008083601f8401126126ee57600080fd5b50813567ffffffffffffffff81111561270657600080fd5b60208301915083602082850101111561271e57600080fd5b9250929050565b60008060008060006080868803121561273d57600080fd5b8535612748816126a7565b94506020860135612758816126a7565b935060408601359250606086013567ffffffffffffffff81111561277b57600080fd5b612787888289016126dc565b969995985093965092949392505050565b6000604082840312156127aa57600080fd5b50919050565b600061010082840312156127aa57600080fd5b7f4e487b7100000000000000000000000000000000000000000000000000000000600052604160045260246000fd5b6040516080810167ffffffffffffffff81118282101715612815576128156127c3565b60405290565b604051610160810167ffffffffffffffff81118282101715612815576128156127c3565b6040516060810167ffffffffffffffff81118282101715612815576128156127c3565b604051610240810167ffffffffffffffff81118282101715612815576128156127c3565b604051610120810167ffffffffffffffff81118282101715612815576128156127c3565b604051601f82017fffffffffffffffffffffffffffffffffffffffffffffffffffffffffffffffe016810167ffffffffffffffff811182821017156128f1576128f16127c3565b604052919050565b600067ffffffffffffffff821115612913576129136127c3565b5060051b60200190565b600082601f83011261292e57600080fd5b8135602061294361293e836128f9565b6128aa565b82815260059290921b8401810191818101908684111561296257600080fd5b8286015b84811015612986578035612979816126a7565b8352918301918301612966565b509695505050505050565b6000806000806000806000806101a0898b0312156129ae57600080fd5b6129b7896126cc565b9750602089013567ffffffffffffffff808211156129d457600080fd5b6129e08c838d01612798565b985060408b01359150808211156129f657600080fd5b612a028c838d016126dc565b909850965060608b0135915080821115612a1b57600080fd5b612a278c838d016126dc565b9096509450849150612a3c8c60808d016127b0565b93506101808b0135915080821115612a5357600080fd5b50612a608b828c0161291d565b9150509295985092959890939650565b600067ffffffffffffffff821115612a8a57612a8a6127c3565b50601f017fffffffffffffffffffffffffffffffffffffffffffffffffffffffffffffffe01660200190565b6000612ac461293e84612a70565b9050828152838383011115612ad857600080fd5b828260208301376000602084830101529392505050565b600082601f830112612b0057600080fd5b6126a083833560208501612ab6565b80356cffffffffffffffffffffffffff811681146126d757600080fd5b803563ffffffff811681146126d757600080fd5b803561ffff811681146126d757600080fd5b803562ffffff811681146126d757600080fd5b80151581146126c957600080fd5b80356126d781612b65565b803565ffffffffffff811681146126d757600080fd5b60006080808385031215612ba757600080fd5b612baf6127f2565b9150823567ffffffffffffffff811115612bc857600080fd5b8301601f81018513612bd957600080fd5b80356020612be961293e836128f9565b8281526101609283028401820192828201919089851115612c0957600080fd5b948301945b84861015612cea5780868b031215612c265760008081fd5b612c2e61281b565b612c3787612b0f565b8152612c44858801612b2c565b858201526040612c55818901612b2c565b908201526060612c66888201612b40565b90820152612c758789016126cc565b8189015260a0878101359082015260c0612c90818901612b52565b9082015260e0612ca1888201612b73565b90820152610100612cb3888201612b73565b90820152610120612cc5888201612b73565b90820152610140612cd7888201612b73565b9082015283529485019491830191612c0e565b50865250612cf9868201612b7e565b8186015250505050612d0d60408301612b7e565b6040820152612d1e606083016126cc565b606082015292915050565b600060808284031215612d3b57600080fd5b612d436127f2565b90508135612d5081612b65565b81526020820135612d6081612b65565b60208201526040820135612d7381612b65565b60408201526060820135612d1e81612b65565b8035600281106126d757600080fd5b60006101c08284031215612da857600080fd5b612db061281b565b9050813567ffffffffffffffff80821115612dca57600080fd5b612dd685838601612aef565b83526020840135915080821115612dec57600080fd5b612df885838601612aef565b6020840152612e09604085016126cc565b60408401526060840135915080821115612e2257600080fd5b612e2e85838601612aef565b6060840152612e3f608085016126cc565b608084015260a0840135915080821115612e5857600080fd5b612e6485838601612aef565b60a084015260c0840135915080821115612e7d57600080fd5b50612e8a84828501612b94565b60c083015250612e9c60e083016126cc565b60e0820152610100612eaf8184016126cc565b90820152610120612ec284848301612d29565b90820152612ed36101a08301612d86565b61014082015292915050565b600082601f830112612ef057600080fd5b81356020612f0061293e836128f9565b82815260059290921b84018101918181019086841115612f1f57600080fd5b8286015b8481101561298657803567ffffffffffffffff80821115612f445760008081fd5b81890191506060807fffffffffffffffffffffffffffffffffffffffffffffffffffffffffffffffe0848d03011215612f7d5760008081fd5b612f8561283f565b87840135612f92816126a7565b815260408481013589830152918401359183831115612fb15760008081fd5b82850194508c603f860112612fc857600093508384fd5b612fd88d8a870135838801612ab6565b908201528652505050918301918301612f23565b803560ff811681146126d757600080fd5b60008060008060008060008060008060006102008c8e03121561301f57600080fd5b6130288c6126cc565b9a5067ffffffffffffffff8060208e0135111561304457600080fd5b6130548e60208f01358f01612798565b9a508060408e0135111561306757600080fd5b6130778e60408f01358f016126dc565b909a50985060608d013581101561308d57600080fd5b61309d8e60608f01358f016126dc565b90985096506130af8e60808f016127b0565b9550806101808e013511156130c357600080fd5b6130d48e6101808f01358f0161291d565b9450806101a08e013511156130e857600080fd5b6130f98e6101a08f01358f01612d95565b9350806101c08e0135111561310d57600080fd5b5061311f8d6101c08e01358e01612edf565b915061312e6101e08d01612fec565b90509295989b509295989b9093969950565b60006020828403121561315257600080fd5b5035919050565b60006020828403121561316b57600080fd5b813567ffffffffffffffff81111561318257600080fd5b82016101e081850312156126a057600080fd5b60005b838110156131b0578181015183820152602001613198565b50506000910152565b600081518084526131d1816020860160208601613195565b601f017fffffffffffffffffffffffffffffffffffffffffffffffffffffffffffffffe0169290920160200192915050565b600060608583526020818185015261321d828501876131b9565b6040858203818701528187518084528484019150848160051b850101858a0160005b838110156132ba578683037fffffffffffffffffffffffffffffffffffffffffffffffffffffffffffffffe00185528151805173ffffffffffffffffffffffffffffffffffffffff16845288810151898501528601518684018a90526132a78a8501826131b9565b958901959350509087019060010161323f565b50909c9b505050505050505050505050565b600080604083850312156132df57600080fd5b50508035926020909101359150565b73ffffffffffffffffffffffffffffffffffffffff8416815282602082015260606040820152600061332360608301846131b9565b95945050505050565b60006020828403121561333e57600080fd5b813567ffffffffffffffff81111561335557600080fd5b82016101a081850312156126a057600080fd5b6000606085835260208181850152613382828501876131b9565b6040858203818701528187518084528484019150848160051b850101858a0160005b838110156132ba578683037fffffffffffffffffffffffffffffffffffffffffffffffffffffffffffffffe00185528151805173ffffffffffffffffffffffffffffffffffffffff16845288810151898501528601518684018a905261340c8a8501826131b9565b95890195935050908701906001016133a4565b6000806000806000806000806000806101e08b8d03121561343f57600080fd5b6134488b6126cc565b995060208b013567ffffffffffffffff8082111561346557600080fd5b6134718e838f01612798565b9a5060408d013591508082111561348757600080fd5b6134938e838f016126dc565b909a50985060608d01359150808211156134ac57600080fd5b6134b88e838f016126dc565b90985096508691506134cd8e60808f016127b0565b95506101808d01359150808211156134e457600080fd5b6134f08e838f0161291d565b94506101a08d013591508082111561350757600080fd5b506135148d828e01612edf565b9250506135246101c08c01612fec565b90509295989b9194979a5092959850565b60006020828403121561354757600080fd5b81516126a0816126a7565b7f4e487b7100000000000000000000000000000000000000000000000000000000600052603260045260246000fd5b60008083357fffffffffffffffffffffffffffffffffffffffffffffffffffffffffffffffe18436030181126135b657600080fd5b830160208101925035905067ffffffffffffffff8111156135d657600080fd5b80360382131561271e57600080fd5b8183528181602085013750600060208284010152600060207fffffffffffffffffffffffffffffffffffffffffffffffffffffffffffffffe0601f840116840101905092915050565b73ffffffffffffffffffffffffffffffffffffffff8316815260406020820152600061365a8384613581565b60408085015261366e6080850182846135e5565b91505060208401356060840152809150509392505050565b60006020828403121561369857600080fd5b5051919050565b8581526060602082015260006136b96060830186886135e5565b82810360408401526136cc8185876135e5565b98975050505050505050565b6000602082840312156136ea57600080fd5b6126a082612b52565b7f4e487b7100000000000000000000000000000000000000000000000000000000600052601160045260246000fd5b600181815b8085111561377b57817fffffffffffffffffffffffffffffffffffffffffffffffffffffffffffffffff04821115613761576137616136f3565b8085161561376e57918102915b93841c9390800290613727565b509250929050565b600082613792575060016103af565b8161379f575060006103af565b81600181146137b557600281146137bf576137db565b60019150506103af565b60ff8411156137d0576137d06136f3565b50506001821b6103af565b5060208310610133831016604e8410600b84101617156137fe575081810a6103af565b6138088383613722565b807fffffffffffffffffffffffffffffffffffffffffffffffffffffffffffffffff0482111561383a5761383a6136f3565b029392505050565b60006126a060ff841683613783565b6138768282518051151582526020808201511515908301526040908101511515910152565b6020810151606083015260408101516080830152606081015160a083015260808101516138a760c084018215159052565b5060a081015180151560e08401525060c08101516101006138cb8185018315159052565b60e083015191506101206138e28186018415159052565b908301519150610140906138f98583018415159052565b830151915061016061390e8582018415159052565b908301519150610180906139258583018415159052565b83015191506101a061393a8582018415159052565b9083015191506101c0906139518583018415159052565b83015191506101e06139668582018415159052565b9083015191506102009061397d8583018415159052565b83015191506102206139928582018415159052565b9083015173ffffffffffffffffffffffffffffffffffffffff16610240850152909101516102609092019190915250565b600081518084526020808501808196508360051b810191508286016000805b86811015613aa2578385038a52825180518652860151604087870181905281518188018190529188019160609081890190865b81811015613a8b5785518051151584528c81015115158d8501528581015186850152848101518585015260808082015173ffffffffffffffffffffffffffffffffffffffff9081169186019190915260a0808301519086015260c0918201511690840152948b019460e090920191600101613a15565b50509c89019c9750505092860192506001016139e2565b509298975050505050505050565b600081518084526020808501945080840160005b83811015613b2d578151805173ffffffffffffffffffffffffffffffffffffffff908116895284820151168489015260408082015190890152606080820151908901526080808201519089015260a0908101519088015260c09096019590820190600101613ac4565b509495945050505050565b60006103c08983526020613b858185018b80518252602081015160208301526040810151604083015273ffffffffffffffffffffffffffffffffffffffff60608201511660608301525050565b613b9260a085018a613851565b8761032085015281610340850152613bac828501886139c3565b9150838203610360850152613bc18287613ab0565b848103610380860152855180825282870193509082019060005b81811015613c0d57845173ffffffffffffffffffffffffffffffffffffffff1683529383019391830191600101613bdb565b50508481036103a0860152601b81527f4465706c6f7965642052657461696c69737420747265617375727900000000006020820152604081019c9b505050505050505050505050565b7f5072656d696e746564202400000000000000000000000000000000000000000081528183600b83013760009101600b01908152919050565b86815285602082015273ffffffffffffffffffffffffffffffffffffffff8516604082015260c060608201526000613cca60c08301866131b9565b93151560808301525090151560a090910152949350505050565b600060208083526080830173ffffffffffffffffffffffffffffffffffffffff85511682850152818501516040850152604085015160608086015281815180845260a0870191508483019350600092505b808310156129865783518252928401926001929092019190840190613d35565b600060208284031215613d6757600080fd5b6126a082612b7e565b808201808211156103af576103af6136f3565b80516080808452815184820181905260009260a0916020918201918388019190865b82811015613e6857845180516cffffffffffffffffffffffffff1685528281015163ffffffff908116848701526040808301519091169086015260608082015161ffff16908601528781015173ffffffffffffffffffffffffffffffffffffffff1688860152868101518786015260c08082015162ffffff169086015260e0808201511515908601526101008082015115159086015261012080820151151590860152610140908101511515908501529381019361016090930192600101613da5565b508781015165ffffffffffff81168a8301529550505060408601519350613e99604088018565ffffffffffff169052565b60608601519350613ec2606088018573ffffffffffffffffffffffffffffffffffffffff169052565b9695505050505050565b60028110613f03577f4e487b7100000000000000000000000000000000000000000000000000000000600052602160045260246000fd5b9052565b82815260406020820152600082516101c06040840152613f2b6102008401826131b9565b905060208401517fffffffffffffffffffffffffffffffffffffffffffffffffffffffffffffffc080858403016060860152613f6783836131b9565b925060408601519150613f92608086018373ffffffffffffffffffffffffffffffffffffffff169052565b60608601519150808584030160a0860152613fad83836131b9565b925060808601519150613fd860c086018373ffffffffffffffffffffffffffffffffffffffff169052565b60a08601519150808584030160e0860152613ff383836131b9565b925060c086015191506101008186850301818701526140128484613d83565b935060e0870151925061012091506140418287018473ffffffffffffffffffffffffffffffffffffffff169052565b860151915061014061406a8682018473ffffffffffffffffffffffffffffffffffffffff169052565b908601518051151561016087015260208101511515610180870152604081015115156101a08701526060015115156101c086015285015190506140b16101e0850182613ecc565b50949350505050565b80516126d7816126a7565b80516126d781612b65565b6000606082840312156140e257600080fd5b6140ea61283f565b905081516140f781612b65565b8152602082015161410781612b65565b6020820152604082015161411a81612b65565b604082015292915050565b6000610280828403121561413857600080fd5b614140612862565b905061414c83836140d0565b8152606082015160208201526080820151604082015260a0820151606082015261417860c083016140c5565b608082015261418960e083016140c5565b60a082015261010061419c8184016140c5565b60c08301526101206141af8185016140c5565b60e08401526101406141c28186016140c5565b8385015261016092506141d68386016140c5565b8285015261018091506141ea8286016140c5565b908401526101a06141fc8582016140c5565b838501526101c092506142108386016140c5565b828501526101e091506142248286016140c5565b908401526102006142368582016140c5565b83850152610220925061424a8386016140c5565b8285015261425b61024086016140ba565b818501525050610260830151818301525092915050565b8051600381106126d757600080fd5b60008060008385036103c081121561429857600080fd5b610120808212156142a857600080fd5b6142b0612886565b9150855182526020860151602083015260408601516040830152606086015160608301526080860151608083015260a086015160a083015260c086015160c08301526142fe60e087016140ba565b60e083015261010080870151818401525081945061431e87828801614125565b9350505061432f6103a08501614272565b90509250925092565b60006103a0888352614384602084018980518252602081015160208301526040810151604083015273ffffffffffffffffffffffffffffffffffffffff60608201511660608301525050565b61439160a0840188613851565b85610320840152806103408401526143ab818401866139c3565b90508281036103608401526143c08185613ab0565b838103610380909401939093525050602c81527f5363686564756c656420626f6f737420657870697279206f662052657461696c60208201527f697374207472656173757279000000000000000000000000000000000000000060408201526060019695505050505050565b600181811c9082168061444057607f821691505b6020821081036127aa577f4e487b7100000000000000000000000000000000000000000000000000000000600052602260045260246000fd5b8035614484816126a7565b73ffffffffffffffffffffffffffffffffffffffff1682526020818101359083015260408082013590830152606090810135910152565b602081526144e9602082016144cf846126cc565b73ffffffffffffffffffffffffffffffffffffffff169052565b60006144f7602084016126cc565b73ffffffffffffffffffffffffffffffffffffffff81166040840152506145246060830160408501614479565b60c083013560e083015261010060e0840135818401526145458185016126cc565b905061012061456b8185018373ffffffffffffffffffffffffffffffffffffffff169052565b6101409150808501358285015250610160818501358185015261459081860186613581565b925090506101a061018081818701526145ae6101c0870185856135e5565b93506145bc81880188613581565b935090507fffffffffffffffffffffffffffffffffffffffffffffffffffffffffffffffe086850301828701526145f48484836135e5565b979650505050505050565b600061460d61293e84612a70565b905082815283838301111561462157600080fd5b6126a0836020830184613195565b60008060006060848603121561464457600080fd5b8351925060208085015167ffffffffffffffff8082111561466457600080fd5b818701915087601f83011261467857600080fd5b6146868883518585016145ff565b9450604087015191508082111561469c57600080fd5b818701915087601f8301126146b057600080fd5b81516146be61293e826128f9565b81815260059190911b8301840190848101908a8311156146dd57600080fd5b8585015b83811015614797578051858111156146f857600080fd5b86016060818e037fffffffffffffffffffffffffffffffffffffffffffffffffffffffffffffffe001121561472c57600080fd5b61473461283f565b88820151614741816126a7565b815260408201518982015260608201518781111561475e57600080fd5b8083019250508d603f83011261477357600080fd5b6147848e8a840151604085016145ff565b60408201528452509186019186016146e1565b508096505050505050509250925092565b60008083357fffffffffffffffffffffffffffffffffffffffffffffffffffffffffffffffe18436030181126147dd57600080fd5b83018035915067ffffffffffffffff8211156147f857600080fd5b60200191503681900382131561271e57600080fd5b601f82111561485757600081815260208120601f850160051c810160208610156148345750805b601f850160051c820191505b8181101561485357828155600101614840565b5050505b505050565b815167ffffffffffffffff811115614876576148766127c3565b61488a81614884845461442c565b8461480d565b602080601f8311600181146148dd57600084156148a75750858301515b7fffffffffffffffffffffffffffffffffffffffffffffffffffffffffffffffff600386901b1c1916600185901b178555614853565b6000858152602081207fffffffffffffffffffffffffffffffffffffffffffffffffffffffffffffffe08616915b8281101561492a5788860151825594840194600190910190840161490b565b508582101561496657878501517fffffffffffffffffffffffffffffffffffffffffffffffffffffffffffffffff600388901b60f8161c191681555b5050505050600190811b0190555056fea26469706673582212203c4848152162c86b8fa35f4b65309da2f77c389bf92d49d4f838ffa94cc3ae3a64736f6c63430008150033",
    "linkReferences": {}
  },
  "methodIdentifiers": {
    "buybackDelegate()": "d3967525",
    "controller()": "f77c4791",
    "delegateAllocationsOf(uint256,uint256)": "abc603e3",
    "delegateDeployer()": "8f3d964b",
    "deployBasicProjectFor(address,(string,uint256),string,string,(uint256,uint256,uint256,uint256,uint256,uint256,uint48,uint24),address[])": "179d2ada",
    "deployPayAllocatorProjectFor(address,(string,uint256),string,string,(uint256,uint256,uint256,uint256,uint256,uint256,uint48,uint24),address[],(address,uint256,bytes)[],uint8)": "f1089241",
    "deployTiered721PayAllocatorProjectFor(address,(string,uint256),string,string,(uint256,uint256,uint256,uint256,uint256,uint256,uint48,uint24),address[],(string,string,address,string,address,string,((uint104,uint32,uint32,uint16,address,bytes32,uint24,bool,bool,bool,bool)[],uint48,uint48,address),address,address,(bool,bool,bool,bool),uint8),(address,uint256,bytes)[],uint8)": "31ff35fd",
    "directory()": "c41c2f24",
    "onERC721Received(address,address,uint256,bytes)": "150b7a02",
    "payParams((address,address,(address,uint256,uint256,uint256),uint256,uint256,address,uint256,uint256,string,bytes))": "d46cf171",
    "permissionIndexes(uint256)": "9483e771",
    "reconfigurationStartTimestampOf(uint256)": "560f7b03",
    "redeemParams((address,address,uint256,uint256,uint256,uint256,uint256,(address,uint256,uint256,uint256),bool,uint256,string,bytes))": "a51cfd18",
    "scheduleReconfigurationOf(uint256)": "3ce6d3e2",
    "supportsInterface(bytes4)": "01ffc9a7"
  },
  "id": 105
}