{
  "abi": [
    {
      "inputs": [
        {
          "internalType": "contract IJBDirectory",
          "name": "_directory",
          "type": "address"
        },
        {
          "internalType": "contract IJBTiered721DelegateDeployer",
          "name": "_delegateDeployer",
          "type": "address"
        },
        {
          "internalType": "contract IJBController3_1",
          "name": "_controller",
          "type": "address"
        }
      ],
      "stateMutability": "nonpayable",
      "type": "constructor"
    },
    {
      "inputs": [],
      "name": "BAD_DEV_TAX_SEQUENCE",
      "type": "error"
    },
    {
      "inputs": [],
      "name": "RECONFIGURATION_ALREADY_SCHEDULED",
      "type": "error"
    },
    {
      "inputs": [],
      "name": "RECONFIGURATION_NOT_POSSIBLE",
      "type": "error"
    },
    {
      "inputs": [
        {
          "internalType": "uint256",
          "name": "",
          "type": "uint256"
        }
      ],
      "name": "buybackDelegateDataSourceOf",
      "outputs": [
        {
          "internalType": "contract IJBGenericBuybackDelegate",
          "name": "",
          "type": "address"
        }
      ],
      "stateMutability": "view",
      "type": "function"
    },
    {
      "inputs": [
        {
          "internalType": "uint256",
          "name": "",
          "type": "uint256"
        }
      ],
      "name": "buybackDelegatePermissionIndexes",
      "outputs": [
        {
          "internalType": "uint256",
          "name": "",
          "type": "uint256"
        }
      ],
      "stateMutability": "view",
      "type": "function"
    },
    {
      "inputs": [],
      "name": "controller",
      "outputs": [
        {
          "internalType": "contract IJBController3_1",
          "name": "",
          "type": "address"
        }
      ],
      "stateMutability": "view",
      "type": "function"
    },
    {
      "inputs": [
        {
          "internalType": "uint256",
          "name": "_networkId",
          "type": "uint256"
        }
      ],
      "name": "currentDevTaxPeriodNumberOf",
      "outputs": [
        {
          "internalType": "uint256",
          "name": "",
          "type": "uint256"
        }
      ],
      "stateMutability": "view",
      "type": "function"
    },
    {
      "inputs": [
        {
          "internalType": "uint256",
          "name": "",
          "type": "uint256"
        },
        {
          "internalType": "uint256",
          "name": "",
          "type": "uint256"
        }
      ],
      "name": "delegateAllocationsOf",
      "outputs": [
        {
          "internalType": "contract IJBPayDelegate3_1_1",
          "name": "delegate",
          "type": "address"
        },
        {
          "internalType": "uint256",
          "name": "amount",
          "type": "uint256"
        },
        {
          "internalType": "bytes",
          "name": "metadata",
          "type": "bytes"
        }
      ],
      "stateMutability": "view",
      "type": "function"
    },
    {
      "inputs": [],
      "name": "delegateDeployer",
      "outputs": [
        {
          "internalType": "contract IJBTiered721DelegateDeployer",
          "name": "",
          "type": "address"
        }
      ],
      "stateMutability": "view",
      "type": "function"
    },
    {
      "inputs": [
        {
          "internalType": "address",
          "name": "_operator",
          "type": "address"
        },
        {
          "components": [
            {
              "internalType": "string",
              "name": "content",
              "type": "string"
            },
            {
              "internalType": "uint256",
              "name": "domain",
              "type": "uint256"
            }
          ],
          "internalType": "struct JBProjectMetadata",
          "name": "_networkMetadata",
          "type": "tuple"
        },
        {
          "internalType": "string",
          "name": "_name",
          "type": "string"
        },
        {
          "internalType": "string",
          "name": "_symbol",
          "type": "string"
        },
        {
          "components": [
            {
              "internalType": "uint256",
              "name": "initialIssuanceRate",
              "type": "uint256"
            },
            {
              "internalType": "uint256",
              "name": "premintTokenAmount",
              "type": "uint256"
            },
            {
              "internalType": "uint256",
              "name": "generationTax",
              "type": "uint256"
            },
            {
              "internalType": "uint256",
              "name": "generationDuration",
              "type": "uint256"
            },
            {
              "internalType": "uint256",
              "name": "exitTaxRate",
              "type": "uint256"
            },
            {
              "components": [
                {
                  "internalType": "uint128",
                  "name": "rate",
                  "type": "uint128"
                },
                {
                  "internalType": "uint128",
                  "name": "startsAtOrAfter",
                  "type": "uint128"
                }
              ],
              "internalType": "struct DevTaxPeriod[]",
              "name": "devTaxPeriods",
              "type": "tuple[]"
            },
            {
              "internalType": "uint24",
              "name": "poolFee",
              "type": "uint24"
            }
          ],
          "internalType": "struct BasicRetailistJBParams",
          "name": "_data",
          "type": "tuple"
        },
        {
          "internalType": "contract IJBPaymentTerminal[]",
          "name": "_terminals",
          "type": "address[]"
        },
        {
          "internalType": "contract IJBGenericBuybackDelegate",
          "name": "_buybackDelegate",
          "type": "address"
        }
      ],
      "name": "deployBasicNetworkFor",
      "outputs": [
        {
          "internalType": "uint256",
          "name": "networkId",
          "type": "uint256"
        }
      ],
      "stateMutability": "nonpayable",
      "type": "function"
    },
    {
      "inputs": [
        {
          "internalType": "address",
          "name": "_operator",
          "type": "address"
        },
        {
          "components": [
            {
              "internalType": "string",
              "name": "content",
              "type": "string"
            },
            {
              "internalType": "uint256",
              "name": "domain",
              "type": "uint256"
            }
          ],
          "internalType": "struct JBProjectMetadata",
          "name": "_networkMetadata",
          "type": "tuple"
        },
        {
          "internalType": "string",
          "name": "_name",
          "type": "string"
        },
        {
          "internalType": "string",
          "name": "_symbol",
          "type": "string"
        },
        {
          "components": [
            {
              "internalType": "uint256",
              "name": "initialIssuanceRate",
              "type": "uint256"
            },
            {
              "internalType": "uint256",
              "name": "premintTokenAmount",
              "type": "uint256"
            },
            {
              "internalType": "uint256",
              "name": "generationTax",
              "type": "uint256"
            },
            {
              "internalType": "uint256",
              "name": "generationDuration",
              "type": "uint256"
            },
            {
              "internalType": "uint256",
              "name": "exitTaxRate",
              "type": "uint256"
            },
            {
              "components": [
                {
                  "internalType": "uint128",
                  "name": "rate",
                  "type": "uint128"
                },
                {
                  "internalType": "uint128",
                  "name": "startsAtOrAfter",
                  "type": "uint128"
                }
              ],
              "internalType": "struct DevTaxPeriod[]",
              "name": "devTaxPeriods",
              "type": "tuple[]"
            },
            {
              "internalType": "uint24",
              "name": "poolFee",
              "type": "uint24"
            }
          ],
          "internalType": "struct BasicRetailistJBParams",
          "name": "_data",
          "type": "tuple"
        },
        {
          "internalType": "contract IJBPaymentTerminal[]",
          "name": "_terminals",
          "type": "address[]"
        },
        {
          "internalType": "contract IJBGenericBuybackDelegate",
          "name": "_buybackDelegate",
          "type": "address"
        },
        {
          "components": [
            {
              "internalType": "contract IJBPayDelegate3_1_1",
              "name": "delegate",
              "type": "address"
            },
            {
              "internalType": "uint256",
              "name": "amount",
              "type": "uint256"
            },
            {
              "internalType": "bytes",
              "name": "metadata",
              "type": "bytes"
            }
          ],
          "internalType": "struct JBPayDelegateAllocation3_1_1[]",
          "name": "_delegateAllocations",
          "type": "tuple[]"
        },
        {
          "internalType": "uint8",
          "name": "_extraFundingCycleMetadata",
          "type": "uint8"
        }
      ],
      "name": "deployPayAllocatorNetworkFor",
      "outputs": [
        {
          "internalType": "uint256",
          "name": "networkId",
          "type": "uint256"
        }
      ],
      "stateMutability": "nonpayable",
      "type": "function"
    },
    {
      "inputs": [
        {
          "internalType": "address",
          "name": "_operator",
          "type": "address"
        },
        {
          "components": [
            {
              "internalType": "string",
              "name": "content",
              "type": "string"
            },
            {
              "internalType": "uint256",
              "name": "domain",
              "type": "uint256"
            }
          ],
          "internalType": "struct JBProjectMetadata",
          "name": "_networkMetadata",
          "type": "tuple"
        },
        {
          "internalType": "string",
          "name": "_name",
          "type": "string"
        },
        {
          "internalType": "string",
          "name": "_symbol",
          "type": "string"
        },
        {
          "components": [
            {
              "internalType": "uint256",
              "name": "initialIssuanceRate",
              "type": "uint256"
            },
            {
              "internalType": "uint256",
              "name": "premintTokenAmount",
              "type": "uint256"
            },
            {
              "internalType": "uint256",
              "name": "generationTax",
              "type": "uint256"
            },
            {
              "internalType": "uint256",
              "name": "generationDuration",
              "type": "uint256"
            },
            {
              "internalType": "uint256",
              "name": "exitTaxRate",
              "type": "uint256"
            },
            {
              "components": [
                {
                  "internalType": "uint128",
                  "name": "rate",
                  "type": "uint128"
                },
                {
                  "internalType": "uint128",
                  "name": "startsAtOrAfter",
                  "type": "uint128"
                }
              ],
              "internalType": "struct DevTaxPeriod[]",
              "name": "devTaxPeriods",
              "type": "tuple[]"
            },
            {
              "internalType": "uint24",
              "name": "poolFee",
              "type": "uint24"
            }
          ],
          "internalType": "struct BasicRetailistJBParams",
          "name": "_data",
          "type": "tuple"
        },
        {
          "internalType": "contract IJBPaymentTerminal[]",
          "name": "_terminals",
          "type": "address[]"
        },
        {
          "internalType": "contract IJBGenericBuybackDelegate",
          "name": "_buybackDelegate",
          "type": "address"
        },
        {
          "components": [
            {
              "internalType": "string",
              "name": "name",
              "type": "string"
            },
            {
              "internalType": "string",
              "name": "symbol",
              "type": "string"
            },
            {
              "internalType": "contract IJBFundingCycleStore",
              "name": "fundingCycleStore",
              "type": "address"
            },
            {
              "internalType": "string",
              "name": "baseUri",
              "type": "string"
            },
            {
              "internalType": "contract IJB721TokenUriResolver",
              "name": "tokenUriResolver",
              "type": "address"
            },
            {
              "internalType": "string",
              "name": "contractUri",
              "type": "string"
            },
            {
              "components": [
                {
                  "components": [
                    {
                      "internalType": "uint104",
                      "name": "price",
                      "type": "uint104"
                    },
                    {
                      "internalType": "uint32",
                      "name": "initialQuantity",
                      "type": "uint32"
                    },
                    {
                      "internalType": "uint32",
                      "name": "votingUnits",
                      "type": "uint32"
                    },
                    {
                      "internalType": "uint16",
                      "name": "reservedRate",
                      "type": "uint16"
                    },
                    {
                      "internalType": "address",
                      "name": "reservedTokenBeneficiary",
                      "type": "address"
                    },
                    {
                      "internalType": "bytes32",
                      "name": "encodedIPFSUri",
                      "type": "bytes32"
                    },
                    {
                      "internalType": "uint24",
                      "name": "category",
                      "type": "uint24"
                    },
                    {
                      "internalType": "bool",
                      "name": "allowManualMint",
                      "type": "bool"
                    },
                    {
                      "internalType": "bool",
                      "name": "shouldUseReservedTokenBeneficiaryAsDefault",
                      "type": "bool"
                    },
                    {
                      "internalType": "bool",
                      "name": "transfersPausable",
                      "type": "bool"
                    },
                    {
                      "internalType": "bool",
                      "name": "useVotingUnits",
                      "type": "bool"
                    }
                  ],
                  "internalType": "struct JB721TierParams[]",
                  "name": "tiers",
                  "type": "tuple[]"
                },
                {
                  "internalType": "uint48",
                  "name": "currency",
                  "type": "uint48"
                },
                {
                  "internalType": "uint48",
                  "name": "decimals",
                  "type": "uint48"
                },
                {
                  "internalType": "contract IJBPrices",
                  "name": "prices",
                  "type": "address"
                }
              ],
              "internalType": "struct JB721PricingParams",
              "name": "pricing",
              "type": "tuple"
            },
            {
              "internalType": "address",
              "name": "reservedTokenBeneficiary",
              "type": "address"
            },
            {
              "internalType": "contract IJBTiered721DelegateStore",
              "name": "store",
              "type": "address"
            },
            {
              "components": [
                {
                  "internalType": "bool",
                  "name": "lockReservedTokenChanges",
                  "type": "bool"
                },
                {
                  "internalType": "bool",
                  "name": "lockVotingUnitChanges",
                  "type": "bool"
                },
                {
                  "internalType": "bool",
                  "name": "lockManualMintingChanges",
                  "type": "bool"
                },
                {
                  "internalType": "bool",
                  "name": "preventOverspending",
                  "type": "bool"
                }
              ],
              "internalType": "struct JBTiered721Flags",
              "name": "flags",
              "type": "tuple"
            },
            {
              "internalType": "enum JB721GovernanceType",
              "name": "governanceType",
              "type": "uint8"
            }
          ],
          "internalType": "struct JBDeployTiered721DelegateData",
          "name": "_deployTiered721DelegateData",
          "type": "tuple"
        },
        {
          "components": [
            {
              "internalType": "contract IJBPayDelegate3_1_1",
              "name": "delegate",
              "type": "address"
            },
            {
              "internalType": "uint256",
              "name": "amount",
              "type": "uint256"
            },
            {
              "internalType": "bytes",
              "name": "metadata",
              "type": "bytes"
            }
          ],
          "internalType": "struct JBPayDelegateAllocation3_1_1[]",
          "name": "_otherDelegateAllocations",
          "type": "tuple[]"
        },
        {
          "internalType": "uint8",
          "name": "_extraFundingCycleMetadata",
          "type": "uint8"
        }
      ],
      "name": "deployTiered721PayAllocatorNetworkFor",
      "outputs": [
        {
          "internalType": "uint256",
          "name": "networkId",
          "type": "uint256"
        }
      ],
      "stateMutability": "nonpayable",
      "type": "function"
    },
    {
      "inputs": [
        {
          "internalType": "uint256",
          "name": "_networkId",
          "type": "uint256"
        }
      ],
      "name": "devTaxPeriodsOf",
      "outputs": [
        {
          "components": [
            {
              "internalType": "uint128",
              "name": "rate",
              "type": "uint128"
            },
            {
              "internalType": "uint128",
              "name": "startsAtOrAfter",
              "type": "uint128"
            }
          ],
          "internalType": "struct DevTaxPeriod[]",
          "name": "",
          "type": "tuple[]"
        }
      ],
      "stateMutability": "view",
      "type": "function"
    },
    {
      "inputs": [],
      "name": "directory",
      "outputs": [
        {
          "internalType": "contract IJBDirectory",
          "name": "",
          "type": "address"
        }
      ],
      "stateMutability": "view",
      "type": "function"
    },
    {
      "inputs": [
        {
          "internalType": "address",
          "name": "_operator",
          "type": "address"
        },
        {
          "internalType": "address",
          "name": "_from",
          "type": "address"
        },
        {
          "internalType": "uint256",
          "name": "_tokenId",
          "type": "uint256"
        },
        {
          "internalType": "bytes",
          "name": "_data",
          "type": "bytes"
        }
      ],
      "name": "onERC721Received",
      "outputs": [
        {
          "internalType": "bytes4",
          "name": "",
          "type": "bytes4"
        }
      ],
      "stateMutability": "view",
      "type": "function"
    },
    {
      "inputs": [
        {
          "internalType": "uint256",
          "name": "",
          "type": "uint256"
        }
      ],
      "name": "operatorPermissionIndexes",
      "outputs": [
        {
          "internalType": "uint256",
          "name": "",
          "type": "uint256"
        }
      ],
      "stateMutability": "view",
      "type": "function"
    },
    {
      "inputs": [
        {
          "components": [
            {
              "internalType": "contract IJBPaymentTerminal",
              "name": "terminal",
              "type": "address"
            },
            {
              "internalType": "address",
              "name": "payer",
              "type": "address"
            },
            {
              "components": [
                {
                  "internalType": "address",
                  "name": "token",
                  "type": "address"
                },
                {
                  "internalType": "uint256",
                  "name": "value",
                  "type": "uint256"
                },
                {
                  "internalType": "uint256",
                  "name": "decimals",
                  "type": "uint256"
                },
                {
                  "internalType": "uint256",
                  "name": "currency",
                  "type": "uint256"
                }
              ],
              "internalType": "struct JBTokenAmount",
              "name": "amount",
              "type": "tuple"
            },
            {
              "internalType": "uint256",
              "name": "projectId",
              "type": "uint256"
            },
            {
              "internalType": "uint256",
              "name": "currentFundingCycleConfiguration",
              "type": "uint256"
            },
            {
              "internalType": "address",
              "name": "beneficiary",
              "type": "address"
            },
            {
              "internalType": "uint256",
              "name": "weight",
              "type": "uint256"
            },
            {
              "internalType": "uint256",
              "name": "reservedRate",
              "type": "uint256"
            },
            {
              "internalType": "string",
              "name": "memo",
              "type": "string"
            },
            {
              "internalType": "bytes",
              "name": "metadata",
              "type": "bytes"
            }
          ],
          "internalType": "struct JBPayParamsData",
          "name": "_data",
          "type": "tuple"
        }
      ],
      "name": "payParams",
      "outputs": [
        {
          "internalType": "uint256",
          "name": "weight",
          "type": "uint256"
        },
        {
          "internalType": "string",
          "name": "memo",
          "type": "string"
        },
        {
          "components": [
            {
              "internalType": "contract IJBPayDelegate3_1_1",
              "name": "delegate",
              "type": "address"
            },
            {
              "internalType": "uint256",
              "name": "amount",
              "type": "uint256"
            },
            {
              "internalType": "bytes",
              "name": "metadata",
              "type": "bytes"
            }
          ],
          "internalType": "struct JBPayDelegateAllocation3_1_1[]",
          "name": "delegateAllocations",
          "type": "tuple[]"
        }
      ],
      "stateMutability": "view",
      "type": "function"
    },
    {
      "inputs": [
        {
          "components": [
            {
              "internalType": "contract IJBPaymentTerminal",
              "name": "terminal",
              "type": "address"
            },
            {
              "internalType": "address",
              "name": "holder",
              "type": "address"
            },
            {
              "internalType": "uint256",
              "name": "projectId",
              "type": "uint256"
            },
            {
              "internalType": "uint256",
              "name": "currentFundingCycleConfiguration",
              "type": "uint256"
            },
            {
              "internalType": "uint256",
              "name": "tokenCount",
              "type": "uint256"
            },
            {
              "internalType": "uint256",
              "name": "totalSupply",
              "type": "uint256"
            },
            {
              "internalType": "uint256",
              "name": "overflow",
              "type": "uint256"
            },
            {
              "components": [
                {
                  "internalType": "address",
                  "name": "token",
                  "type": "address"
                },
                {
                  "internalType": "uint256",
                  "name": "value",
                  "type": "uint256"
                },
                {
                  "internalType": "uint256",
                  "name": "decimals",
                  "type": "uint256"
                },
                {
                  "internalType": "uint256",
                  "name": "currency",
                  "type": "uint256"
                }
              ],
              "internalType": "struct JBTokenAmount",
              "name": "reclaimAmount",
              "type": "tuple"
            },
            {
              "internalType": "bool",
              "name": "useTotalOverflow",
              "type": "bool"
            },
            {
              "internalType": "uint256",
              "name": "redemptionRate",
              "type": "uint256"
            },
            {
              "internalType": "string",
              "name": "memo",
              "type": "string"
            },
            {
              "internalType": "bytes",
              "name": "metadata",
              "type": "bytes"
            }
          ],
          "internalType": "struct JBRedeemParamsData",
          "name": "_data",
          "type": "tuple"
        }
      ],
      "name": "redeemParams",
      "outputs": [
        {
          "internalType": "uint256",
          "name": "",
          "type": "uint256"
        },
        {
          "internalType": "string",
          "name": "",
          "type": "string"
        },
        {
          "components": [
            {
              "internalType": "contract IJBRedemptionDelegate3_1_1",
              "name": "delegate",
              "type": "address"
            },
            {
              "internalType": "uint256",
              "name": "amount",
              "type": "uint256"
            },
            {
              "internalType": "bytes",
              "name": "metadata",
              "type": "bytes"
            }
          ],
          "internalType": "struct JBRedemptionDelegateAllocation3_1_1[]",
          "name": "",
          "type": "tuple[]"
        }
      ],
      "stateMutability": "view",
      "type": "function"
    },
    {
      "inputs": [
        {
          "internalType": "uint256",
          "name": "_networkId",
          "type": "uint256"
        }
      ],
      "name": "scheduleNextDevTaxPeriodOf",
      "outputs": [],
      "stateMutability": "nonpayable",
      "type": "function"
    },
    {
      "inputs": [
        {
          "internalType": "bytes4",
          "name": "_interfaceId",
          "type": "bytes4"
        }
      ],
      "name": "supportsInterface",
      "outputs": [
        {
          "internalType": "bool",
          "name": "",
          "type": "bool"
        }
      ],
      "stateMutability": "view",
      "type": "function"
    }
  ],
  "bytecode": {
    "object": "0x60e06040523480156200001157600080fd5b50604051620056cc380380620056cc8339810160408190526200003491620000da565b6001600160a01b0390811660805260018054808201825560127fb10e2d527612073b26eecdfd717e6a320cf44b4afac2b0732d9fcbe2b7fa0cf69182015581548083018355601891015560058054918201815560005260097f036b6384b5eca791c62761152d0c79bb0604c104a5fb6f4eb0703f3154bb3db09091015591821660a0521660c0526200012e565b6001600160a01b0381168114620000d757600080fd5b50565b600080600060608486031215620000f057600080fd5b8351620000fd81620000c1565b60208501519093506200011081620000c1565b60408501519092506200012381620000c1565b809150509250925092565b60805160a05160c0516154f0620001dc6000396000818161022001526122540152600081816102e3015261204901526000818161036201528181610466015281816106c2015281816108050152818161091301528181610bc401528181610e7f01528181610f560152818161115e0152818161133501528181611443015281816116f4015281816119f301528181611aca01528181611cb101528181611e33015261285b01526154f06000f3fe608060405234801561001057600080fd5b506004361061011b5760003560e01c80638f3d964b116100b2578063abc603e311610081578063d46cf17111610066578063d46cf17114610305578063ef8eadd514610327578063f77c47911461035d57600080fd5b8063abc603e3146102bc578063c41c2f24146102de57600080fd5b80638f3d964b1461021b5780639e8c513a146102675780639f665eee1461027a578063a51cfd181461029a57600080fd5b8063263950ae116100ee578063263950ae146101c25780634d757720146101e2578063522aa551146101f55780635bd266671461020857600080fd5b806301ffc9a7146101205780630310850e146101485780630a801f471461015d578063150b7a021461017e575b600080fd5b61013361012e366004612d90565b610384565b60405190151581526020015b60405180910390f35b61015b610156366004612dd9565b61041d565b005b61017061016b366004613277565b6107f5565b60405190815260200161013f565b61019161018c36600461336a565b61115a565b6040517fffffffff00000000000000000000000000000000000000000000000000000000909116815260200161013f565b6101d56101d0366004612dd9565b61126e565b60405161013f9190613409565b6101706101f0366004612dd9565b611304565b61017061020336600461358c565b611325565b610170610216366004613a72565b612045565b6102427f000000000000000000000000000000000000000000000000000000000000000081565b60405173ffffffffffffffffffffffffffffffffffffffff909116815260200161013f565b610170610275366004612dd9565b612351565b610170610288366004612dd9565b60026020526000908152604090205481565b6102ad6102a8366004613bc1565b612361565b60405161013f93929190613c6b565b6102cf6102ca366004613d34565b6123c9565b60405161013f93929190613d56565b6102427f000000000000000000000000000000000000000000000000000000000000000081565b610318610313366004613d94565b6124ac565b60405161013f93929190613dd0565b610242610335366004612dd9565b60036020526000908152604090205473ffffffffffffffffffffffffffffffffffffffff1681565b6102427f000000000000000000000000000000000000000000000000000000000000000081565b60007fffffffff0000000000000000000000000000000000000000000000000000000082167f71700c6900000000000000000000000000000000000000000000000000000000148061041757507f150b7a02000000000000000000000000000000000000000000000000000000007fffffffff000000000000000000000000000000000000000000000000000000008316145b92915050565b6040517f1f51045300000000000000000000000000000000000000000000000000000000815260048101829052600090819073ffffffffffffffffffffffffffffffffffffffff7f00000000000000000000000000000000000000000000000000000000000000001690631f510453906024016103c060405180830381865afa1580156104ae573d6000803e3d6000fd5b505050506040513d601f19601f820116820180604052508101906104d2919061404e565b50600085815260026020526040812080549395509193509182906104f590614134565b918290555060008581526020819052604090205490915080158061051857508082145b806105265750428460600151115b1561055d576040517fc97554fa00000000000000000000000000000000000000000000000000000000815260040160405180910390fd5b600085815260208190526040812080548490811061057d5761057d61416c565b6000918252602080832060408051808201825293909101546fffffffffffffffffffffffffffffffff808216855270010000000000000000000000000000000090910481168484019081528251608080820185528c810151825281860188905260c0808e01518387015260608084018a905286516102a08101885261024081018b815261026082018c905261028082018c905281528951909616868901528d87015196860196909652948401889052830187905260a0830187905292820186905260e08201869052610100820186905261012082018690526101408201869052610160820186905261018082018690526101a082018690526101c082018690526101e0820195909552610200808a015173ffffffffffffffffffffffffffffffffffffffff908116918301919091526102208a810151908301529451928a01519395507f00000000000000000000000000000000000000000000000000000000000000009094169363badbdf28938b93906106f9908590612816565b6040805160008082526020820190925290610787565b6107746040518060c00160405280600073ffffffffffffffffffffffffffffffffffffffff168152602001600073ffffffffffffffffffffffffffffffffffffffff168152602001600081526020016000815260200160008152602001600081525090565b81526020019060019003908161070f5790505b506040518763ffffffff1660e01b81526004016107a9969594939291906144a3565b6020604051808303816000875af11580156107c8573d6000803e3d6000fd5b505050506040513d601f19601f820116820180604052508101906107ec91906145a9565b50505050505050565b600080610801896129e6565b90507f000000000000000000000000000000000000000000000000000000000000000073ffffffffffffffffffffffffffffffffffffffff16638b79543c6040518163ffffffff1660e01b8152600401602060405180830381865afa15801561086e573d6000803e3d6000fd5b505050506040513d601f19601f8201168201806040525081019061089291906145c2565b73ffffffffffffffffffffffffffffffffffffffff1663666d87a0308a6040518363ffffffff1660e01b81526004016108cc9291906145df565b6020604051808303816000875af11580156108eb573d6000803e3d6000fd5b505050506040513d601f19601f8201168201806040525081019061090f91906145a9565b91507f000000000000000000000000000000000000000000000000000000000000000073ffffffffffffffffffffffffffffffffffffffff1663619306306040518163ffffffff1660e01b8152600401602060405180830381865afa15801561097c573d6000803e3d6000fd5b505050506040513d601f19601f820116820180604052508101906109a091906145c2565b73ffffffffffffffffffffffffffffffffffffffff1663a7f2a70b8389896040518463ffffffff1660e01b81526004016109dc9392919061462d565b6020604051808303816000875af11580156109fb573d6000803e3d6000fd5b505050506040513d601f19601f82011682018060405250810190610a1f91906145c2565b508273ffffffffffffffffffffffffffffffffffffffff16637b621d3a838760c001518673ffffffffffffffffffffffffffffffffffffffff166360b3042c6040518163ffffffff1660e01b8152600401602060405180830381865afa158015610a8d573d6000803e3d6000fd5b505050506040513d601f19601f82011682018060405250810190610ab191906145a9565b8773ffffffffffffffffffffffffffffffffffffffff1663737a79966040518163ffffffff1660e01b8152600401602060405180830381865afa158015610afc573d6000803e3d6000fd5b505050506040513d601f19601f82011682018060405250810190610b2091906145a9565b6040517fffffffff0000000000000000000000000000000000000000000000000000000060e087901b168152600481019490945262ffffff909216602484015263ffffffff908116604484015216606482015261eeee608482015260a4016020604051808303816000875af1158015610b9d573d6000803e3d6000fd5b505050506040513d601f19601f82011682018060405250810190610bc191906145c2565b507f000000000000000000000000000000000000000000000000000000000000000073ffffffffffffffffffffffffffffffffffffffff1663111d861b8360405180608001604052808960600151815260200160128a60000151610c259190614782565b81526040808b0151602080840191909152600092820183905281516102a081019092526102408201838152610260830184905261028083019390935291815260a08b015151909182019015610c9c578a60a00151600081518110610c8b57610c8b61416c565b602002602001015160000151610c9f565b60005b6fffffffffffffffffffffffffffffffff1681526020018a60800151612710610cc89190614791565b815260006020820181905260408201819052606082018190526080820181905260a0808301829052600160c0840181905260e0840183905261010084018390526101208401839052610140840183905261016084018390526101808401526101a0830182905273ffffffffffffffffffffffffffffffffffffffff8b166101c08401526101e0909201528a01515115610d83578960a00151600081518110610d7257610d7261416c565b602002602001015160200151610d86565b60005b604080516000808252602082019092528891610e15565b610e026040518060c00160405280600073ffffffffffffffffffffffffffffffffffffffff168152602001600073ffffffffffffffffffffffffffffffffffffffff168152602001600081526020016000815260200160008152602001600081525090565b815260200190600190039081610d9d5790505b508b6040518863ffffffff1660e01b8152600401610e3997969594939291906147a4565b6020604051808303816000875af1158015610e58573d6000803e3d6000fd5b505050506040513d601f19601f82011682018060405250810190610e7c91906145a9565b507f000000000000000000000000000000000000000000000000000000000000000073ffffffffffffffffffffffffffffffffffffffff16638ae9c07b8360128860200151610ecb9190614782565b8c8a604051602001610edd91906148d4565b6040516020818303038152906040526000806040518763ffffffff1660e01b8152600401610f1096959493929190614919565b6020604051808303816000875af1158015610f2f573d6000803e3d6000fd5b505050506040513d601f19601f82011682018060405250810190610f5391906145a9565b507f000000000000000000000000000000000000000000000000000000000000000073ffffffffffffffffffffffffffffffffffffffff16632bdfe0046040518163ffffffff1660e01b8152600401602060405180830381865afa158015610fbf573d6000803e3d6000fd5b505050506040513d601f19601f82011682018060405250810190610fe391906145c2565b73ffffffffffffffffffffffffffffffffffffffff1663ad007d636040518163ffffffff1660e01b8152600401602060405180830381865afa15801561102d573d6000803e3d6000fd5b505050506040513d601f19601f8201168201806040525081019061105191906145c2565b73ffffffffffffffffffffffffffffffffffffffff1663529cdd2e60405180606001604052808c73ffffffffffffffffffffffffffffffffffffffff16815260200185815260200160018054806020026020016040519081016040528092919081815260200182805480156110e557602002820191906000526020600020905b8154815260200190600101908083116110d1575b50505050508152506040518263ffffffff1660e01b8152600401611109919061496e565b600060405180830381600087803b15801561112357600080fd5b505af1158015611137573d6000803e3d6000fd5b5050505061114e828660a001518760600151612b6c565b50979650505050505050565b60007f000000000000000000000000000000000000000000000000000000000000000073ffffffffffffffffffffffffffffffffffffffff16638b79543c6040518163ffffffff1660e01b8152600401602060405180830381865afa1580156111c7573d6000803e3d6000fd5b505050506040513d601f19601f820116820180604052508101906111eb91906145c2565b73ffffffffffffffffffffffffffffffffffffffff163373ffffffffffffffffffffffffffffffffffffffff161461122257600080fd5b73ffffffffffffffffffffffffffffffffffffffff85161561124357600080fd5b507f150b7a020000000000000000000000000000000000000000000000000000000095945050505050565b600081815260208181526040808320805482518185028101850190935280835260609492939192909184015b828210156112f957600084815260209081902060408051808201909152908401546fffffffffffffffffffffffffffffffff8082168352700100000000000000000000000000000000909104168183015282526001909201910161129a565b505050509050919050565b6001818154811061131457600080fd5b600091825260209091200154905081565b6000806113318b6129e6565b90507f000000000000000000000000000000000000000000000000000000000000000073ffffffffffffffffffffffffffffffffffffffff16638b79543c6040518163ffffffff1660e01b8152600401602060405180830381865afa15801561139e573d6000803e3d6000fd5b505050506040513d601f19601f820116820180604052508101906113c291906145c2565b73ffffffffffffffffffffffffffffffffffffffff1663666d87a0308c6040518363ffffffff1660e01b81526004016113fc9291906145df565b6020604051808303816000875af115801561141b573d6000803e3d6000fd5b505050506040513d601f19601f8201168201806040525081019061143f91906145a9565b91507f000000000000000000000000000000000000000000000000000000000000000073ffffffffffffffffffffffffffffffffffffffff1663619306306040518163ffffffff1660e01b8152600401602060405180830381865afa1580156114ac573d6000803e3d6000fd5b505050506040513d601f19601f820116820180604052508101906114d091906145c2565b73ffffffffffffffffffffffffffffffffffffffff1663a7f2a70b838b8b6040518463ffffffff1660e01b815260040161150c9392919061462d565b6020604051808303816000875af115801561152b573d6000803e3d6000fd5b505050506040513d601f19601f8201168201806040525081019061154f91906145c2565b508473ffffffffffffffffffffffffffffffffffffffff16637b621d3a838960c001518873ffffffffffffffffffffffffffffffffffffffff166360b3042c6040518163ffffffff1660e01b8152600401602060405180830381865afa1580156115bd573d6000803e3d6000fd5b505050506040513d601f19601f820116820180604052508101906115e191906145a9565b8973ffffffffffffffffffffffffffffffffffffffff1663737a79966040518163ffffffff1660e01b8152600401602060405180830381865afa15801561162c573d6000803e3d6000fd5b505050506040513d601f19601f8201168201806040525081019061165091906145a9565b6040517fffffffff0000000000000000000000000000000000000000000000000000000060e087901b168152600481019490945262ffffff909216602484015263ffffffff908116604484015216606482015261eeee608482015260a4016020604051808303816000875af11580156116cd573d6000803e3d6000fd5b505050506040513d601f19601f820116820180604052508101906116f191906145c2565b507f000000000000000000000000000000000000000000000000000000000000000073ffffffffffffffffffffffffffffffffffffffff1663111d861b8360405180608001604052808b60600151815260200160128c600001516117559190614782565b81526040808d0151602080840191909152600092820183905281516102a081019092526102408201838152610260830184905261028083019390935291815260a08d0151519091820190156117cc578c60a001516000815181106117bb576117bb61416c565b6020026020010151600001516117cf565b60005b6fffffffffffffffffffffffffffffffff1681526020018c608001516127106117f89190614791565b815260006020820181905260408201819052606082018190526080820181905260a0808301829052600160c0840181905260e0840183905261010084018390526101208401839052610140840183905261016084018390526101808401526101a0830191909152306101c083015260ff8a166101e0909201919091528c015151156118a5578b60a001516000815181106118945761189461416c565b6020026020010151602001516118a8565b60005b604080516000808252602082019092528891611937565b6119246040518060c00160405280600073ffffffffffffffffffffffffffffffffffffffff168152602001600073ffffffffffffffffffffffffffffffffffffffff168152602001600081526020016000815260200160008152602001600081525090565b8152602001906001900390816118bf5790505b508d6040518863ffffffff1660e01b815260040161195b97969594939291906147a4565b6020604051808303816000875af115801561197a573d6000803e3d6000fd5b505050506040513d601f19601f8201168201806040525081019061199e91906145a9565b50846003600084815260200190815260200160002060006101000a81548173ffffffffffffffffffffffffffffffffffffffff021916908373ffffffffffffffffffffffffffffffffffffffff1602179055507f000000000000000000000000000000000000000000000000000000000000000073ffffffffffffffffffffffffffffffffffffffff16638ae9c07b8360128a60200151611a3f9190614782565b8e8c604051602001611a5191906148d4565b6040516020818303038152906040526000806040518763ffffffff1660e01b8152600401611a8496959493929190614919565b6020604051808303816000875af1158015611aa3573d6000803e3d6000fd5b505050506040513d601f19601f82011682018060405250810190611ac791906145a9565b507f000000000000000000000000000000000000000000000000000000000000000073ffffffffffffffffffffffffffffffffffffffff16632bdfe0046040518163ffffffff1660e01b8152600401602060405180830381865afa158015611b33573d6000803e3d6000fd5b505050506040513d601f19601f82011682018060405250810190611b5791906145c2565b73ffffffffffffffffffffffffffffffffffffffff1663ad007d636040518163ffffffff1660e01b8152600401602060405180830381865afa158015611ba1573d6000803e3d6000fd5b505050506040513d601f19601f82011682018060405250810190611bc591906145c2565b73ffffffffffffffffffffffffffffffffffffffff1663529cdd2e60405180606001604052808e73ffffffffffffffffffffffffffffffffffffffff1681526020018581526020016001805480602002602001604051908101604052809291908181526020018280548015611c5957602002820191906000526020600020905b815481526020019060010190808311611c45575b50505050508152506040518263ffffffff1660e01b8152600401611c7d919061496e565b600060405180830381600087803b158015611c9757600080fd5b505af1158015611cab573d6000803e3d6000fd5b505050507f000000000000000000000000000000000000000000000000000000000000000073ffffffffffffffffffffffffffffffffffffffff16632bdfe0046040518163ffffffff1660e01b8152600401602060405180830381865afa158015611d1a573d6000803e3d6000fd5b505050506040513d601f19601f82011682018060405250810190611d3e91906145c2565b73ffffffffffffffffffffffffffffffffffffffff1663ad007d636040518163ffffffff1660e01b8152600401602060405180830381865afa158015611d88573d6000803e3d6000fd5b505050506040513d601f19601f82011682018060405250810190611dac91906145c2565b73ffffffffffffffffffffffffffffffffffffffff16630f5932f08630600060056040518563ffffffff1660e01b8152600401611dec94939291906149df565b602060405180830381865afa158015611e09573d6000803e3d6000fd5b505050506040513d601f19601f82011682018060405250810190611e2d9190614a5b565b61201a577f000000000000000000000000000000000000000000000000000000000000000073ffffffffffffffffffffffffffffffffffffffff16632bdfe0046040518163ffffffff1660e01b8152600401602060405180830381865afa158015611e9c573d6000803e3d6000fd5b505050506040513d601f19601f82011682018060405250810190611ec091906145c2565b73ffffffffffffffffffffffffffffffffffffffff1663ad007d636040518163ffffffff1660e01b8152600401602060405180830381865afa158015611f0a573d6000803e3d6000fd5b505050506040513d601f19601f82011682018060405250810190611f2e91906145c2565b73ffffffffffffffffffffffffffffffffffffffff1663529cdd2e60405180606001604052808873ffffffffffffffffffffffffffffffffffffffff168152602001600081526020016005805480602002602001604051908101604052809291908181526020018280548015611fc357602002820191906000526020600020905b815481526020019060010190808311611faf575b50505050508152506040518263ffffffff1660e01b8152600401611fe7919061496e565b600060405180830381600087803b15801561200157600080fd5b505af1158015612015573d6000803e3d6000fd5b505050505b61202d828860a001518960600151612b6c565b6120378285612cc7565b509998505050505050505050565b60007f000000000000000000000000000000000000000000000000000000000000000073ffffffffffffffffffffffffffffffffffffffff16638b79543c6040518163ffffffff1660e01b8152600401602060405180830381865afa1580156120b2573d6000803e3d6000fd5b505050506040513d601f19601f820116820180604052508101906120d691906145c2565b73ffffffffffffffffffffffffffffffffffffffff166306661abd6040518163ffffffff1660e01b8152600401602060405180830381865afa158015612120573d6000803e3d6000fd5b505050506040513d601f19601f8201168201806040525081019061214491906145a9565b61214f906001614a78565b83519091506000612161826001614a78565b67ffffffffffffffff81111561217957612179612e27565b6040519080825280602002602001820160405280156121c657816020015b604080516060808201835260008083526020830152918101919091528152602001906001900390816121975790505b50905060005b82811015612213578581815181106121e6576121e661416c565b60200260200101518282815181106122005761220061416c565b60209081029190910101526001016121cc565b506040517f70d7f24900000000000000000000000000000000000000000000000000000000815260009073ffffffffffffffffffffffffffffffffffffffff7f000000000000000000000000000000000000000000000000000000000000000016906370d7f2499061228b9087908b90600401614c05565b6020604051808303816000875af11580156122aa573d6000803e3d6000fd5b505050506040513d601f19601f820116820180604052508101906122ce91906145c2565b905060405180606001604052808273ffffffffffffffffffffffffffffffffffffffff16815260200160008152602001604051806020016040528060008152508152508284815181106123235761232361416c565b602002602001018190525061233f8e8e8e8e8e8e8e898d611325565b505050509a9950505050505050505050565b6005818154811061131457600080fd5b6040805160008082526020820190925260609081908390816123ad565b6040805160608082018352600080835260208301529181019190915281526020019060019003908161237e5790505b5060408051602081019091526000815291969195509350915050565b600460205281600052604060002081815481106123e557600080fd5b600091825260209091206003909102018054600182015460028301805473ffffffffffffffffffffffffffffffffffffffff90931695509093509061242990614db8565b80601f016020809104026020016040519081016040528092919081815260200182805461245590614db8565b80156124a25780601f10612477576101008083540402835291602001916124a2565b820191906000526020600020905b81548152906001019060200180831161248557829003601f168201915b5050505050905083565b60c08101356000908152600360205260408082205490517fd46cf1710000000000000000000000000000000000000000000000000000000081526060918291829173ffffffffffffffffffffffffffffffffffffffff169063d46cf17190612518908890600401614f01565b600060405180830381865afa158015612535573d6000803e3d6000fd5b505050506040513d6000823e601f3d9081017fffffffffffffffffffffffffffffffffffffffffffffffffffffffffffffffe016820160405261257b9190810190615075565b805160c089013560009081526004602090815260408083208054825181850281018501909352808352979b5094975092151595919450919291849084015b828210156126aa5760008481526020908190206040805160608101825260038602909201805473ffffffffffffffffffffffffffffffffffffffff1683526001810154938301939093526002830180549293929184019161261990614db8565b80601f016020809104026020016040519081016040528092919081815260200182805461264590614db8565b80156126925780601f1061266757610100808354040283529160200191612692565b820191906000526020600020905b81548152906001019060200180831161267557829003601f168201915b505050505081525050815260200190600101906125b9565b505050509050600081519050826126c25760006126c5565b60015b6126d29060ff1682614a78565b67ffffffffffffffff8111156126ea576126ea612e27565b60405190808252806020026020018201604052801561273757816020015b604080516060808201835260008083526020830152918101919091528152602001906001900390816127085790505b50945060005b81811015612784578281815181106127575761275761416c565b60200260200101518682815181106127715761277161416c565b602090810291909101015260010161273d565b5082156127c4578360008151811061279e5761279e61416c565b60200260200101518582815181106127b8576127b861416c565b60200260200101819052505b6127d26101608901896151ee565b8080601f016020809104026020016040519081016040528093929190818152602001838380828437600092019190915250999b929a50969850909650505050505050565b604080516001808252818301909252606091816020015b60408051808201909152600081526060602082015281526020019060019003908161282d57905050905060007f000000000000000000000000000000000000000000000000000000000000000073ffffffffffffffffffffffffffffffffffffffff16632bdfe0046040518163ffffffff1660e01b8152600401602060405180830381865afa1580156128c4573d6000803e3d6000fd5b505050506040513d601f19601f820116820180604052508101906128e891906145c2565b6040517f69e11cc500000000000000000000000000000000000000000000000000000000815260048101869052602481018590526002604482015273ffffffffffffffffffffffffffffffffffffffff91909116906369e11cc590606401600060405180830381865afa158015612963573d6000803e3d6000fd5b505050506040513d6000823e601f3d9081017fffffffffffffffffffffffffffffffffffffffffffffffffffffffffffffffe01682016040526129a99190810190615253565b905060405180604001604052806002815260200182815250826000815181106129d4576129d461416c565b60200260200101819052505092915050565b604080516001808252818301909252606091816020015b6040805180820190915260008152606060208201528152602001906001900390816129fd57505060408051600180825281830190925291925060009190602082015b6040805160e08101825260008082526020808301829052928201819052606082018190526080820181905260a0820181905260c082015282527fffffffffffffffffffffffffffffffffffffffffffffffffffffffffffffffff909201910181612a3f5790505090506040518060e00160405280600015158152602001600015158152602001633b9aca008152602001600081526020018473ffffffffffffffffffffffffffffffffffffffff16815260200160008152602001600073ffffffffffffffffffffffffffffffffffffffff1681525081600181518110612b2757612b2761416c565b60200260200101819052506040518060400160405280600281526020018281525082600081518110612b5b57612b5b61416c565b602002602001018190525050919050565b81518015612cc15760005b81811015612cbf578015801590612c0157508284612b96600184614791565b81518110612ba657612ba661416c565b6020026020010151602001516fffffffffffffffffffffffffffffffff16612bce9190614a78565b848281518110612be057612be061416c565b6020026020010151602001516fffffffffffffffffffffffffffffffff1611155b15612c38576040517fc5c2978500000000000000000000000000000000000000000000000000000000815260040160405180910390fd5b838181518110612c4a57612c4a61416c565b60200260200101516000808781526020019081526020016000208281548110612c7557612c7561416c565b6000918252602091829020835193909201516fffffffffffffffffffffffffffffffff90811670010000000000000000000000000000000002931692909217910155600101612b77565b505b50505050565b805160005b81811015612cc157828181518110612ce657612ce661416c565b6020026020010151600460008681526020019081526020016000208281548110612d1257612d1261416c565b600091825260209182902083516003929092020180547fffffffffffffffffffffffff00000000000000000000000000000000000000001673ffffffffffffffffffffffffffffffffffffffff90921691909117815590820151600182015560408201516002820190612d8590826153a0565b505050600101612ccc565b600060208284031215612da257600080fd5b81357fffffffff0000000000000000000000000000000000000000000000000000000081168114612dd257600080fd5b9392505050565b600060208284031215612deb57600080fd5b5035919050565b73ffffffffffffffffffffffffffffffffffffffff81168114612e1457600080fd5b50565b8035612e2281612df2565b919050565b7f4e487b7100000000000000000000000000000000000000000000000000000000600052604160045260246000fd5b6040805190810167ffffffffffffffff81118282101715612e7957612e79612e27565b60405290565b60405160e0810167ffffffffffffffff81118282101715612e7957612e79612e27565b6040516060810167ffffffffffffffff81118282101715612e7957612e79612e27565b6040516080810167ffffffffffffffff81118282101715612e7957612e79612e27565b604051610160810167ffffffffffffffff81118282101715612e7957612e79612e27565b604051610240810167ffffffffffffffff81118282101715612e7957612e79612e27565b604051610120810167ffffffffffffffff81118282101715612e7957612e79612e27565b604051601f82017fffffffffffffffffffffffffffffffffffffffffffffffffffffffffffffffe016810167ffffffffffffffff81118282101715612f9b57612f9b612e27565b604052919050565b600067ffffffffffffffff821115612fbd57612fbd612e27565b50601f017fffffffffffffffffffffffffffffffffffffffffffffffffffffffffffffffe01660200190565b6000612ffc612ff784612fa3565b612f54565b905082815283838301111561301057600080fd5b828260208301376000602084830101529392505050565b600082601f83011261303857600080fd5b612dd283833560208501612fe9565b60006040828403121561305957600080fd5b613061612e56565b9050813567ffffffffffffffff81111561307a57600080fd5b61308684828501613027565b8252506020820135602082015292915050565b600067ffffffffffffffff8211156130b3576130b3612e27565b5060051b60200190565b80356fffffffffffffffffffffffffffffffff81168114612e2257600080fd5b600082601f8301126130ee57600080fd5b813560206130fe612ff783613099565b82815260069290921b8401810191818101908684111561311d57600080fd5b8286015b8481101561316a576040818903121561313a5760008081fd5b613142612e56565b61314b826130bd565b81526131588583016130bd565b81860152835291830191604001613121565b509695505050505050565b803562ffffff81168114612e2257600080fd5b600060e0828403121561319a57600080fd5b6131a2612e7f565b9050813581526020820135602082015260408201356040820152606082013560608201526080820135608082015260a082013567ffffffffffffffff8111156131ea57600080fd5b6131f6848285016130dd565b60a08301525061320860c08301613175565b60c082015292915050565b600082601f83011261322457600080fd5b81356020613234612ff783613099565b82815260059290921b8401810191818101908684111561325357600080fd5b8286015b8481101561316a57803561326a81612df2565b8352918301918301613257565b600080600080600080600060e0888a03121561329257600080fd5b61329b88612e17565b9650602088013567ffffffffffffffff808211156132b857600080fd5b6132c48b838c01613047565b975060408a01359150808211156132da57600080fd5b6132e68b838c01613027565b965060608a01359150808211156132fc57600080fd5b6133088b838c01613027565b955060808a013591508082111561331e57600080fd5b61332a8b838c01613188565b945060a08a013591508082111561334057600080fd5b5061334d8a828b01613213565b92505061335c60c08901612e17565b905092959891949750929550565b60008060008060006080868803121561338257600080fd5b853561338d81612df2565b9450602086013561339d81612df2565b935060408601359250606086013567ffffffffffffffff808211156133c157600080fd5b818801915088601f8301126133d557600080fd5b8135818111156133e457600080fd5b8960208285010111156133f657600080fd5b9699959850939650602001949392505050565b602080825282518282018190526000919060409081850190868401855b8281101561346157815180516fffffffffffffffffffffffffffffffff90811686529087015116868501529284019290850190600101613426565b5091979650505050505050565b600082601f83011261347f57600080fd5b8135602061348f612ff783613099565b82815260059290921b840181019181810190868411156134ae57600080fd5b8286015b8481101561316a57803567ffffffffffffffff808211156134d35760008081fd5b81890191506060807fffffffffffffffffffffffffffffffffffffffffffffffffffffffffffffffe0848d0301121561350c5760008081fd5b613514612ea2565b8784013561352181612df2565b8152604084810135898301529184013591838311156135405760008081fd5b82850194508c603f86011261355757600093508384fd5b6135678d8a870135838801612fe9565b9082015286525050509183019183016134b2565b803560ff81168114612e2257600080fd5b60008060008060008060008060006101208a8c0312156135ab57600080fd5b6135b48a612e17565b985060208a013567ffffffffffffffff808211156135d157600080fd5b6135dd8d838e01613047565b995060408c01359150808211156135f357600080fd5b6135ff8d838e01613027565b985060608c013591508082111561361557600080fd5b6136218d838e01613027565b975060808c013591508082111561363757600080fd5b6136438d838e01613188565b965060a08c013591508082111561365957600080fd5b6136658d838e01613213565b955061367360c08d01612e17565b945060e08c013591508082111561368957600080fd5b506136968c828d0161346e565b9250506136a66101008b0161357b565b90509295985092959850929598565b80356cffffffffffffffffffffffffff81168114612e2257600080fd5b803563ffffffff81168114612e2257600080fd5b803561ffff81168114612e2257600080fd5b8015158114612e1457600080fd5b8035612e22816136f8565b803565ffffffffffff81168114612e2257600080fd5b6000608080838503121561373a57600080fd5b613742612ec5565b9150823567ffffffffffffffff81111561375b57600080fd5b8301601f8101851361376c57600080fd5b8035602061377c612ff783613099565b828152610160928302840182019282820191908985111561379c57600080fd5b948301945b8486101561387d5780868b0312156137b95760008081fd5b6137c1612ee8565b6137ca876136b5565b81526137d78588016136d2565b8582015260406137e88189016136d2565b9082015260606137f98882016136e6565b90820152613808878901612e17565b8189015260a0878101359082015260c0613823818901613175565b9082015260e0613834888201613706565b90820152610100613846888201613706565b90820152610120613858888201613706565b9082015261014061386a888201613706565b90820152835294850194918301916137a1565b5086525061388c868201613711565b81860152505050506138a060408301613711565b60408201526138b160608301612e17565b606082015292915050565b6000608082840312156138ce57600080fd5b6138d6612ec5565b905081356138e3816136f8565b815260208201356138f3816136f8565b60208201526040820135613906816136f8565b604082015260608201356138b1816136f8565b803560028110612e2257600080fd5b60006101c0828403121561393b57600080fd5b613943612ee8565b9050813567ffffffffffffffff8082111561395d57600080fd5b61396985838601613027565b8352602084013591508082111561397f57600080fd5b61398b85838601613027565b602084015261399c60408501612e17565b604084015260608401359150808211156139b557600080fd5b6139c185838601613027565b60608401526139d260808501612e17565b608084015260a08401359150808211156139eb57600080fd5b6139f785838601613027565b60a084015260c0840135915080821115613a1057600080fd5b50613a1d84828501613727565b60c083015250613a2f60e08301612e17565b60e0820152610100613a42818401612e17565b90820152610120613a55848483016138bc565b90820152613a666101a08301613919565b61014082015292915050565b6000806000806000806000806000806101408b8d031215613a9257600080fd5b613a9b8b612e17565b995060208b013567ffffffffffffffff80821115613ab857600080fd5b613ac48e838f01613047565b9a5060408d0135915080821115613ada57600080fd5b613ae68e838f01613027565b995060608d0135915080821115613afc57600080fd5b613b088e838f01613027565b985060808d0135915080821115613b1e57600080fd5b613b2a8e838f01613188565b975060a08d0135915080821115613b4057600080fd5b613b4c8e838f01613213565b9650613b5a60c08e01612e17565b955060e08d0135915080821115613b7057600080fd5b613b7c8e838f01613928565b94506101008d0135915080821115613b9357600080fd5b50613ba08d828e0161346e565b925050613bb06101208c0161357b565b90509295989b9194979a5092959850565b600060208284031215613bd357600080fd5b813567ffffffffffffffff811115613bea57600080fd5b82016101e08185031215612dd257600080fd5b60005b83811015613c18578181015183820152602001613c00565b50506000910152565b60008151808452613c39816020860160208601613bfd565b601f017fffffffffffffffffffffffffffffffffffffffffffffffffffffffffffffffe0169290920160200192915050565b6000606085835260208181850152613c8582850187613c21565b6040858203818701528187518084528484019150848160051b850101858a0160005b83811015613d22578683037fffffffffffffffffffffffffffffffffffffffffffffffffffffffffffffffe00185528151805173ffffffffffffffffffffffffffffffffffffffff16845288810151898501528601518684018a9052613d0f8a850182613c21565b9589019593505090870190600101613ca7565b50909c9b505050505050505050505050565b60008060408385031215613d4757600080fd5b50508035926020909101359150565b73ffffffffffffffffffffffffffffffffffffffff84168152826020820152606060408201526000613d8b6060830184613c21565b95945050505050565b600060208284031215613da657600080fd5b813567ffffffffffffffff811115613dbd57600080fd5b82016101a08185031215612dd257600080fd5b6000606085835260208181850152613dea82850187613c21565b6040858203818701528187518084528484019150848160051b850101858a0160005b83811015613d22578683037fffffffffffffffffffffffffffffffffffffffffffffffffffffffffffffffe00185528151805173ffffffffffffffffffffffffffffffffffffffff16845288810151898501528601518684018a9052613e748a850182613c21565b9589019593505090870190600101613e0c565b8051612e2281612df2565b8051612e22816136f8565b600060608284031215613eaf57600080fd5b613eb7612ea2565b90508151613ec4816136f8565b81526020820151613ed4816136f8565b60208201526040820151613ee7816136f8565b604082015292915050565b60006102808284031215613f0557600080fd5b613f0d612f0c565b9050613f198383613e9d565b8152606082015160208201526080820151604082015260a08201516060820152613f4560c08301613e92565b6080820152613f5660e08301613e92565b60a0820152610100613f69818401613e92565b60c0830152610120613f7c818501613e92565b60e0840152610140613f8f818601613e92565b838501526101609250613fa3838601613e92565b828501526101809150613fb7828601613e92565b908401526101a0613fc9858201613e92565b838501526101c09250613fdd838601613e92565b828501526101e09150613ff1828601613e92565b90840152610200614003858201613e92565b838501526102209250614017838601613e92565b828501526140286102408601613e87565b818501525050610260830151818301525092915050565b805160038110612e2257600080fd5b60008060008385036103c081121561406557600080fd5b6101208082121561407557600080fd5b61407d612f30565b9150855182526020860151602083015260408601516040830152606086015160608301526080860151608083015260a086015160a083015260c086015160c08301526140cb60e08701613e87565b60e08301526101008087015181840152508194506140eb87828801613ef2565b935050506140fc6103a0850161403f565b90509250925092565b7f4e487b7100000000000000000000000000000000000000000000000000000000600052601160045260246000fd5b60007fffffffffffffffffffffffffffffffffffffffffffffffffffffffffffffffff820361416557614165614105565b5060010190565b7f4e487b7100000000000000000000000000000000000000000000000000000000600052603260045260246000fd5b6141c08282518051151582526020808201511515908301526040908101511515910152565b6020810151606083015260408101516080830152606081015160a083015260808101516141f160c084018215159052565b5060a081015180151560e08401525060c08101516101006142158185018315159052565b60e0830151915061012061422c8186018415159052565b908301519150610140906142438583018415159052565b83015191506101606142588582018415159052565b9083015191506101809061426f8583018415159052565b83015191506101a06142848582018415159052565b9083015191506101c09061429b8583018415159052565b83015191506101e06142b08582018415159052565b908301519150610200906142c78583018415159052565b83015191506102206142dc8582018415159052565b9083015173ffffffffffffffffffffffffffffffffffffffff16610240850152909101516102609092019190915250565b600082825180855260208086019550808260051b8401018186016000805b8581101561440d578684037fffffffffffffffffffffffffffffffffffffffffffffffffffffffffffffffe0018a52825180518552850151604086860181905281518187018190529187019160609081880190865b818110156143f65785518051151584528b81015115158c8501528581015186850152848101518585015260808082015173ffffffffffffffffffffffffffffffffffffffff9081169186019190915260a0808301519086015260c0918201511690840152948a019460e090920191600101614380565b50509c88019c96505050928501925060010161432b565b509198975050505050505050565b600081518084526020808501945080840160005b83811015614498578151805173ffffffffffffffffffffffffffffffffffffffff908116895284820151168489015260408082015190890152606080820151908901526080808201519089015260a0908101519088015260c0909601959082019060010161442f565b509495945050505050565b60006103a08883526144ef602084018980518252602081015160208301526040810151604083015273ffffffffffffffffffffffffffffffffffffffff60608201511660608301525050565b6144fc60a084018861419b565b6fffffffffffffffffffffffffffffffff8616610320840152806103408401526145288184018661430d565b905082810361036084015261453d818561441b565b838103610380909401939093525050603281527f5363686564756c6564206e657874206465762074617820706572696f64206f6660208201527f2052657461696c697374206e6574776f726b000000000000000000000000000060408201526060019695505050505050565b6000602082840312156145bb57600080fd5b5051919050565b6000602082840312156145d457600080fd5b8151612dd281612df2565b73ffffffffffffffffffffffffffffffffffffffff8316815260406020820152600082516040808401526146166080840182613c21565b905060208401516060840152809150509392505050565b8381526060602082015260006146466060830185613c21565b82810360408401526146588185613c21565b9695505050505050565b600181815b808511156146bb57817fffffffffffffffffffffffffffffffffffffffffffffffffffffffffffffffff048211156146a1576146a1614105565b808516156146ae57918102915b93841c9390800290614667565b509250929050565b6000826146d257506001610417565b816146df57506000610417565b81600181146146f557600281146146ff5761471b565b6001915050610417565b60ff84111561471057614710614105565b50506001821b610417565b5060208310610133831016604e8410600b841016171561473e575081810a610417565b6147488383614662565b807fffffffffffffffffffffffffffffffffffffffffffffffffffffffffffffffff0482111561477a5761477a614105565b029392505050565b6000612dd260ff8416836146c3565b8181038181111561041757610417614105565b60006103c089835260206147f18185018b80518252602081015160208301526040810151604083015273ffffffffffffffffffffffffffffffffffffffff60608201511660608301525050565b6147fe60a085018a61419b565b6fffffffffffffffffffffffffffffffff88166103208501528161034085015261482a8285018861430d565b915083820361036085015261483f828761441b565b848103610380860152855180825282870193509082019060005b8181101561488b57845173ffffffffffffffffffffffffffffffffffffffff1683529383019391830191600101614859565b50508481036103a0860152601a81527f4465706c6f7965642052657461696c697374206e6574776f726b0000000000006020820152604081019c9b505050505050505050505050565b7f5072656d696e746564202400000000000000000000000000000000000000000081526000825161490c81600b850160208701613bfd565b91909101600b0192915050565b86815285602082015273ffffffffffffffffffffffffffffffffffffffff8516604082015260c06060820152600061495460c0830186613c21565b93151560808301525090151560a090910152949350505050565b600060208083526080830173ffffffffffffffffffffffffffffffffffffffff85511682850152818501516040850152604085015160608086015281815180845260a0870191508483019350600092505b8083101561316a57835182529284019260019290920191908401906149bf565b60006080820173ffffffffffffffffffffffffffffffffffffffff808816845260208188168186015286604086015260806060860152829150855480845260a0860192508660005281600020935060005b81811015614a4c57845484526001948501949383019301614a30565b50919998505050505050505050565b600060208284031215614a6d57600080fd5b8151612dd2816136f8565b8082018082111561041757610417614105565b80516080808452815184820181905260009260a0916020918201918388019190865b82811015614b7057845180516cffffffffffffffffffffffffff1685528281015163ffffffff908116848701526040808301519091169086015260608082015161ffff16908601528781015173ffffffffffffffffffffffffffffffffffffffff1688860152868101518786015260c08082015162ffffff169086015260e0808201511515908601526101008082015115159086015261012080820151151590860152610140908101511515908501529381019361016090930192600101614aad565b508781015165ffffffffffff81168a8301529550505060408601519350614ba1604088018565ffffffffffff169052565b60608601519350614658606088018573ffffffffffffffffffffffffffffffffffffffff169052565b60028110614c01577f4e487b7100000000000000000000000000000000000000000000000000000000600052602160045260246000fd5b9052565b82815260406020820152600082516101c06040840152614c29610200840182613c21565b905060208401517fffffffffffffffffffffffffffffffffffffffffffffffffffffffffffffffc080858403016060860152614c658383613c21565b925060408601519150614c90608086018373ffffffffffffffffffffffffffffffffffffffff169052565b60608601519150808584030160a0860152614cab8383613c21565b925060808601519150614cd660c086018373ffffffffffffffffffffffffffffffffffffffff169052565b60a08601519150808584030160e0860152614cf18383613c21565b925060c08601519150610100818685030181870152614d108484614a8b565b935060e087015192506101209150614d3f8287018473ffffffffffffffffffffffffffffffffffffffff169052565b8601519150610140614d688682018473ffffffffffffffffffffffffffffffffffffffff169052565b908601518051151561016087015260208101511515610180870152604081015115156101a08701526060015115156101c08601528501519050614daf6101e0850182614bca565b50949350505050565b600181811c90821680614dcc57607f821691505b602082108103614e05577f4e487b7100000000000000000000000000000000000000000000000000000000600052602260045260246000fd5b50919050565b8035614e1681612df2565b73ffffffffffffffffffffffffffffffffffffffff1682526020818101359083015260408082013590830152606090810135910152565b60008083357fffffffffffffffffffffffffffffffffffffffffffffffffffffffffffffffe1843603018112614e8257600080fd5b830160208101925035905067ffffffffffffffff811115614ea257600080fd5b803603821315614eb157600080fd5b9250929050565b8183528181602085013750600060208284010152600060207fffffffffffffffffffffffffffffffffffffffffffffffffffffffffffffffe0601f840116840101905092915050565b60208152614f2f60208201614f1584612e17565b73ffffffffffffffffffffffffffffffffffffffff169052565b6000614f3d60208401612e17565b73ffffffffffffffffffffffffffffffffffffffff8116604084015250614f6a6060830160408501614e0b565b60c083013560e083015261010060e084013581840152614f8b818501612e17565b9050610120614fb18185018373ffffffffffffffffffffffffffffffffffffffff169052565b61014091508085013582850152506101608185013581850152614fd681860186614e4d565b925090506101a06101808181870152614ff46101c087018585614eb8565b935061500281880188614e4d565b935090507fffffffffffffffffffffffffffffffffffffffffffffffffffffffffffffffe0868503018287015261503a848483614eb8565b979650505050505050565b6000615053612ff784612fa3565b905082815283838301111561506757600080fd5b612dd2836020830184613bfd565b60008060006060848603121561508a57600080fd5b8351925060208085015167ffffffffffffffff808211156150aa57600080fd5b818701915087601f8301126150be57600080fd5b6150cc888351858501615045565b945060408701519150808211156150e257600080fd5b818701915087601f8301126150f657600080fd5b8151615104612ff782613099565b81815260059190911b8301840190848101908a83111561512357600080fd5b8585015b838110156151dd5780518581111561513e57600080fd5b86016060818e037fffffffffffffffffffffffffffffffffffffffffffffffffffffffffffffffe001121561517257600080fd5b61517a612ea2565b8882015161518781612df2565b81526040820151898201526060820151878111156151a457600080fd5b8083019250508d603f8301126151b957600080fd5b6151ca8e8a84015160408501615045565b6040820152845250918601918601615127565b508096505050505050509250925092565b60008083357fffffffffffffffffffffffffffffffffffffffffffffffffffffffffffffffe184360301811261522357600080fd5b83018035915067ffffffffffffffff82111561523e57600080fd5b602001915036819003821315614eb157600080fd5b6000602080838503121561526657600080fd5b825167ffffffffffffffff81111561527d57600080fd5b8301601f8101851361528e57600080fd5b805161529c612ff782613099565b81815260e091820283018401918482019190888411156152bb57600080fd5b938501935b8385101561114e5780858a0312156152d85760008081fd5b6152e0612e7f565b85516152eb816136f8565b8152858701516152fa816136f8565b81880152604086810151908201526060808701519082015260808087015161532181612df2565b9082015260a0868101519082015260c08087015161533e81612df2565b90820152835293840193918501916152c0565b601f82111561539b57600081815260208120601f850160051c810160208610156153785750805b601f850160051c820191505b8181101561539757828155600101615384565b5050505b505050565b815167ffffffffffffffff8111156153ba576153ba612e27565b6153ce816153c88454614db8565b84615351565b602080601f83116001811461542157600084156153eb5750858301515b7fffffffffffffffffffffffffffffffffffffffffffffffffffffffffffffffff600386901b1c1916600185901b178555615397565b6000858152602081207fffffffffffffffffffffffffffffffffffffffffffffffffffffffffffffffe08616915b8281101561546e5788860151825594840194600190910190840161544f565b50858210156154aa57878501517fffffffffffffffffffffffffffffffffffffffffffffffffffffffffffffffff600388901b60f8161c191681555b5050505050600190811b0190555056fea26469706673582212205bc1a2d6fa6351270ccdafc8860c22bd0bf60dd26018f35b1fad6cd28ed4001064736f6c63430008150033",
    "linkReferences": {}
  },
  "methodIdentifiers": {
    "buybackDelegateDataSourceOf(uint256)": "ef8eadd5",
    "buybackDelegatePermissionIndexes(uint256)": "9e8c513a",
    "controller()": "f77c4791",
    "currentDevTaxPeriodNumberOf(uint256)": "9f665eee",
    "delegateAllocationsOf(uint256,uint256)": "abc603e3",
    "delegateDeployer()": "8f3d964b",
    "deployBasicNetworkFor(address,(string,uint256),string,string,(uint256,uint256,uint256,uint256,uint256,(uint128,uint128)[],uint24),address[],address)": "0a801f47",
    "deployPayAllocatorNetworkFor(address,(string,uint256),string,string,(uint256,uint256,uint256,uint256,uint256,(uint128,uint128)[],uint24),address[],address,(address,uint256,bytes)[],uint8)": "522aa551",
    "deployTiered721PayAllocatorNetworkFor(address,(string,uint256),string,string,(uint256,uint256,uint256,uint256,uint256,(uint128,uint128)[],uint24),address[],address,(string,string,address,string,address,string,((uint104,uint32,uint32,uint16,address,bytes32,uint24,bool,bool,bool,bool)[],uint48,uint48,address),address,address,(bool,bool,bool,bool),uint8),(address,uint256,bytes)[],uint8)": "5bd26667",
    "devTaxPeriodsOf(uint256)": "263950ae",
    "directory()": "c41c2f24",
    "onERC721Received(address,address,uint256,bytes)": "150b7a02",
    "operatorPermissionIndexes(uint256)": "4d757720",
    "payParams((address,address,(address,uint256,uint256,uint256),uint256,uint256,address,uint256,uint256,string,bytes))": "d46cf171",
    "redeemParams((address,address,uint256,uint256,uint256,uint256,uint256,(address,uint256,uint256,uint256),bool,uint256,string,bytes))": "a51cfd18",
    "scheduleNextDevTaxPeriodOf(uint256)": "0310850e",
    "supportsInterface(bytes4)": "01ffc9a7"
  },
  "id": 105
}