{
  "abi": [
    {
      "inputs": [
        {
          "internalType": "contract IJBDirectory",
          "name": "_directory",
          "type": "address"
        },
        {
          "internalType": "contract IJBTiered721DelegateDeployer",
          "name": "_delegateDeployer",
          "type": "address"
        },
        {
          "internalType": "contract IJBController3_1",
          "name": "_controller",
          "type": "address"
        },
        {
          "internalType": "contract IJBPayoutRedemptionPaymentTerminal3_1_1",
          "name": "_terminal",
          "type": "address"
        }
      ],
      "stateMutability": "nonpayable",
      "type": "constructor"
    },
    {
      "inputs": [],
      "name": "RECONFIGURATION_ALREADY_SCHEDULED",
      "type": "error"
    },
    {
      "inputs": [
        {
          "internalType": "uint256",
          "name": "",
          "type": "uint256"
        }
      ],
      "name": "buybackDelegateDataSourceOf",
      "outputs": [
        {
          "internalType": "contract IJBFundingCycleDataSource3_1_1",
          "name": "",
          "type": "address"
        }
      ],
      "stateMutability": "view",
      "type": "function"
    },
    {
      "inputs": [],
      "name": "controller",
      "outputs": [
        {
          "internalType": "contract IJBController3_1",
          "name": "",
          "type": "address"
        }
      ],
      "stateMutability": "view",
      "type": "function"
    },
    {
      "inputs": [
        {
          "internalType": "uint256",
          "name": "",
          "type": "uint256"
        },
        {
          "internalType": "uint256",
          "name": "",
          "type": "uint256"
        }
      ],
      "name": "delegateAllocationsOf",
      "outputs": [
        {
          "internalType": "contract IJBPayDelegate3_1_1",
          "name": "delegate",
          "type": "address"
        },
        {
          "internalType": "uint256",
          "name": "amount",
          "type": "uint256"
        },
        {
          "internalType": "bytes",
          "name": "metadata",
          "type": "bytes"
        }
      ],
      "stateMutability": "view",
      "type": "function"
    },
    {
      "inputs": [],
      "name": "delegateDeployer",
      "outputs": [
        {
          "internalType": "contract IJBTiered721DelegateDeployer",
          "name": "",
          "type": "address"
        }
      ],
      "stateMutability": "view",
      "type": "function"
    },
    {
      "inputs": [
        {
          "internalType": "address",
          "name": "_operator",
          "type": "address"
        },
        {
          "components": [
            {
              "internalType": "string",
              "name": "content",
              "type": "string"
            },
            {
              "internalType": "uint256",
              "name": "domain",
              "type": "uint256"
            }
          ],
          "internalType": "struct JBProjectMetadata",
          "name": "_projectMetadata",
          "type": "tuple"
        },
        {
          "internalType": "string",
          "name": "_name",
          "type": "string"
        },
        {
          "internalType": "string",
          "name": "_symbol",
          "type": "string"
        },
        {
          "components": [
            {
              "internalType": "uint256",
              "name": "initialIssuanceRate",
              "type": "uint256"
            },
            {
              "internalType": "uint256",
              "name": "premintTokenAmount",
              "type": "uint256"
            },
            {
              "internalType": "uint256",
              "name": "discountRate",
              "type": "uint256"
            },
            {
              "internalType": "uint256",
              "name": "discountPeriod",
              "type": "uint256"
            },
            {
              "internalType": "uint256",
              "name": "redemptionRate",
              "type": "uint256"
            },
            {
              "internalType": "uint256",
              "name": "reservedRate",
              "type": "uint256"
            },
            {
              "internalType": "uint48",
              "name": "reservedRateDuration",
              "type": "uint48"
            }
          ],
          "internalType": "struct BasicRetailistJBParams",
          "name": "_data",
          "type": "tuple"
        }
      ],
      "name": "deployBasicProjectFor",
      "outputs": [
        {
          "internalType": "uint256",
          "name": "projectId",
          "type": "uint256"
        }
      ],
      "stateMutability": "nonpayable",
      "type": "function"
    },
    {
      "inputs": [
        {
          "internalType": "address",
          "name": "_operator",
          "type": "address"
        },
        {
          "components": [
            {
              "internalType": "string",
              "name": "content",
              "type": "string"
            },
            {
              "internalType": "uint256",
              "name": "domain",
              "type": "uint256"
            }
          ],
          "internalType": "struct JBProjectMetadata",
          "name": "_projectMetadata",
          "type": "tuple"
        },
        {
          "internalType": "string",
          "name": "_name",
          "type": "string"
        },
        {
          "internalType": "string",
          "name": "_symbol",
          "type": "string"
        },
        {
          "components": [
            {
              "internalType": "uint256",
              "name": "initialIssuanceRate",
              "type": "uint256"
            },
            {
              "internalType": "uint256",
              "name": "premintTokenAmount",
              "type": "uint256"
            },
            {
              "internalType": "uint256",
              "name": "discountRate",
              "type": "uint256"
            },
            {
              "internalType": "uint256",
              "name": "discountPeriod",
              "type": "uint256"
            },
            {
              "internalType": "uint256",
              "name": "redemptionRate",
              "type": "uint256"
            },
            {
              "internalType": "uint256",
              "name": "reservedRate",
              "type": "uint256"
            },
            {
              "internalType": "uint48",
              "name": "reservedRateDuration",
              "type": "uint48"
            }
          ],
          "internalType": "struct BasicRetailistJBParams",
          "name": "_data",
          "type": "tuple"
        },
        {
          "components": [
            {
              "internalType": "contract IJBPayDelegate3_1_1",
              "name": "delegate",
              "type": "address"
            },
            {
              "internalType": "uint256",
              "name": "amount",
              "type": "uint256"
            },
            {
              "internalType": "bytes",
              "name": "metadata",
              "type": "bytes"
            }
          ],
          "internalType": "struct JBPayDelegateAllocation3_1_1[]",
          "name": "_delegateAllocations",
          "type": "tuple[]"
        },
        {
          "internalType": "uint256",
          "name": "_metadata",
          "type": "uint256"
        }
      ],
      "name": "deployPayAllocatorProjectFor",
      "outputs": [
        {
          "internalType": "uint256",
          "name": "projectId",
          "type": "uint256"
        }
      ],
      "stateMutability": "nonpayable",
      "type": "function"
    },
    {
      "inputs": [
        {
          "internalType": "address",
          "name": "_operator",
          "type": "address"
        },
        {
          "components": [
            {
              "internalType": "string",
              "name": "content",
              "type": "string"
            },
            {
              "internalType": "uint256",
              "name": "domain",
              "type": "uint256"
            }
          ],
          "internalType": "struct JBProjectMetadata",
          "name": "_projectMetadata",
          "type": "tuple"
        },
        {
          "internalType": "string",
          "name": "_name",
          "type": "string"
        },
        {
          "internalType": "string",
          "name": "_symbol",
          "type": "string"
        },
        {
          "components": [
            {
              "internalType": "uint256",
              "name": "initialIssuanceRate",
              "type": "uint256"
            },
            {
              "internalType": "uint256",
              "name": "premintTokenAmount",
              "type": "uint256"
            },
            {
              "internalType": "uint256",
              "name": "discountRate",
              "type": "uint256"
            },
            {
              "internalType": "uint256",
              "name": "discountPeriod",
              "type": "uint256"
            },
            {
              "internalType": "uint256",
              "name": "redemptionRate",
              "type": "uint256"
            },
            {
              "internalType": "uint256",
              "name": "reservedRate",
              "type": "uint256"
            },
            {
              "internalType": "uint48",
              "name": "reservedRateDuration",
              "type": "uint48"
            }
          ],
          "internalType": "struct BasicRetailistJBParams",
          "name": "_data",
          "type": "tuple"
        },
        {
          "components": [
            {
              "internalType": "contract IJBPayDelegate3_1_1",
              "name": "delegate",
              "type": "address"
            },
            {
              "internalType": "uint256",
              "name": "amount",
              "type": "uint256"
            },
            {
              "internalType": "bytes",
              "name": "metadata",
              "type": "bytes"
            }
          ],
          "internalType": "struct JBPayDelegateAllocation3_1_1[]",
          "name": "_delegateAllocations",
          "type": "tuple[]"
        },
        {
          "components": [
            {
              "internalType": "bool",
              "name": "pauseTransfers",
              "type": "bool"
            },
            {
              "internalType": "bool",
              "name": "pauseMintingReserves",
              "type": "bool"
            }
          ],
          "internalType": "struct JBTiered721FundingCycleMetadata",
          "name": "_metadata",
          "type": "tuple"
        },
        {
          "components": [
            {
              "internalType": "string",
              "name": "name",
              "type": "string"
            },
            {
              "internalType": "string",
              "name": "symbol",
              "type": "string"
            },
            {
              "internalType": "contract IJBFundingCycleStore",
              "name": "fundingCycleStore",
              "type": "address"
            },
            {
              "internalType": "string",
              "name": "baseUri",
              "type": "string"
            },
            {
              "internalType": "contract IJB721TokenUriResolver",
              "name": "tokenUriResolver",
              "type": "address"
            },
            {
              "internalType": "string",
              "name": "contractUri",
              "type": "string"
            },
            {
              "components": [
                {
                  "components": [
                    {
                      "internalType": "uint104",
                      "name": "price",
                      "type": "uint104"
                    },
                    {
                      "internalType": "uint32",
                      "name": "initialQuantity",
                      "type": "uint32"
                    },
                    {
                      "internalType": "uint32",
                      "name": "votingUnits",
                      "type": "uint32"
                    },
                    {
                      "internalType": "uint16",
                      "name": "reservedRate",
                      "type": "uint16"
                    },
                    {
                      "internalType": "address",
                      "name": "reservedTokenBeneficiary",
                      "type": "address"
                    },
                    {
                      "internalType": "bytes32",
                      "name": "encodedIPFSUri",
                      "type": "bytes32"
                    },
                    {
                      "internalType": "uint24",
                      "name": "category",
                      "type": "uint24"
                    },
                    {
                      "internalType": "bool",
                      "name": "allowManualMint",
                      "type": "bool"
                    },
                    {
                      "internalType": "bool",
                      "name": "shouldUseReservedTokenBeneficiaryAsDefault",
                      "type": "bool"
                    },
                    {
                      "internalType": "bool",
                      "name": "transfersPausable",
                      "type": "bool"
                    },
                    {
                      "internalType": "bool",
                      "name": "useVotingUnits",
                      "type": "bool"
                    }
                  ],
                  "internalType": "struct JB721TierParams[]",
                  "name": "tiers",
                  "type": "tuple[]"
                },
                {
                  "internalType": "uint48",
                  "name": "currency",
                  "type": "uint48"
                },
                {
                  "internalType": "uint48",
                  "name": "decimals",
                  "type": "uint48"
                },
                {
                  "internalType": "contract IJBPrices",
                  "name": "prices",
                  "type": "address"
                }
              ],
              "internalType": "struct JB721PricingParams",
              "name": "pricing",
              "type": "tuple"
            },
            {
              "internalType": "address",
              "name": "reservedTokenBeneficiary",
              "type": "address"
            },
            {
              "internalType": "contract IJBTiered721DelegateStore",
              "name": "store",
              "type": "address"
            },
            {
              "components": [
                {
                  "internalType": "bool",
                  "name": "lockReservedTokenChanges",
                  "type": "bool"
                },
                {
                  "internalType": "bool",
                  "name": "lockVotingUnitChanges",
                  "type": "bool"
                },
                {
                  "internalType": "bool",
                  "name": "lockManualMintingChanges",
                  "type": "bool"
                },
                {
                  "internalType": "bool",
                  "name": "preventOverspending",
                  "type": "bool"
                }
              ],
              "internalType": "struct JBTiered721Flags",
              "name": "flags",
              "type": "tuple"
            },
            {
              "internalType": "enum JB721GovernanceType",
              "name": "governanceType",
              "type": "uint8"
            }
          ],
          "internalType": "struct JBDeployTiered721DelegateData",
          "name": "_deployTiered721DelegateData",
          "type": "tuple"
        }
      ],
      "name": "deployTiered721PayAllocatorProjectFor",
      "outputs": [
        {
          "internalType": "uint256",
          "name": "projectId",
          "type": "uint256"
        }
      ],
      "stateMutability": "nonpayable",
      "type": "function"
    },
    {
      "inputs": [],
      "name": "directory",
      "outputs": [
        {
          "internalType": "contract IJBDirectory",
          "name": "",
          "type": "address"
        }
      ],
      "stateMutability": "view",
      "type": "function"
    },
    {
      "inputs": [
        {
          "internalType": "address",
          "name": "_operator",
          "type": "address"
        },
        {
          "internalType": "address",
          "name": "_from",
          "type": "address"
        },
        {
          "internalType": "uint256",
          "name": "_tokenId",
          "type": "uint256"
        },
        {
          "internalType": "bytes",
          "name": "_data",
          "type": "bytes"
        }
      ],
      "name": "onERC721Received",
      "outputs": [
        {
          "internalType": "bytes4",
          "name": "",
          "type": "bytes4"
        }
      ],
      "stateMutability": "view",
      "type": "function"
    },
    {
      "inputs": [
        {
          "components": [
            {
              "internalType": "contract IJBPaymentTerminal",
              "name": "terminal",
              "type": "address"
            },
            {
              "internalType": "address",
              "name": "payer",
              "type": "address"
            },
            {
              "components": [
                {
                  "internalType": "address",
                  "name": "token",
                  "type": "address"
                },
                {
                  "internalType": "uint256",
                  "name": "value",
                  "type": "uint256"
                },
                {
                  "internalType": "uint256",
                  "name": "decimals",
                  "type": "uint256"
                },
                {
                  "internalType": "uint256",
                  "name": "currency",
                  "type": "uint256"
                }
              ],
              "internalType": "struct JBTokenAmount",
              "name": "amount",
              "type": "tuple"
            },
            {
              "internalType": "uint256",
              "name": "projectId",
              "type": "uint256"
            },
            {
              "internalType": "uint256",
              "name": "currentFundingCycleConfiguration",
              "type": "uint256"
            },
            {
              "internalType": "address",
              "name": "beneficiary",
              "type": "address"
            },
            {
              "internalType": "uint256",
              "name": "weight",
              "type": "uint256"
            },
            {
              "internalType": "uint256",
              "name": "reservedRate",
              "type": "uint256"
            },
            {
              "internalType": "string",
              "name": "memo",
              "type": "string"
            },
            {
              "internalType": "bytes",
              "name": "metadata",
              "type": "bytes"
            }
          ],
          "internalType": "struct JBPayParamsData",
          "name": "_data",
          "type": "tuple"
        }
      ],
      "name": "payParams",
      "outputs": [
        {
          "internalType": "uint256",
          "name": "weight",
          "type": "uint256"
        },
        {
          "internalType": "string",
          "name": "memo",
          "type": "string"
        },
        {
          "components": [
            {
              "internalType": "contract IJBPayDelegate3_1_1",
              "name": "delegate",
              "type": "address"
            },
            {
              "internalType": "uint256",
              "name": "amount",
              "type": "uint256"
            },
            {
              "internalType": "bytes",
              "name": "metadata",
              "type": "bytes"
            }
          ],
          "internalType": "struct JBPayDelegateAllocation3_1_1[]",
          "name": "delegateAllocations",
          "type": "tuple[]"
        }
      ],
      "stateMutability": "view",
      "type": "function"
    },
    {
      "inputs": [
        {
          "internalType": "uint256",
          "name": "",
          "type": "uint256"
        }
      ],
      "name": "permissionIndexes",
      "outputs": [
        {
          "internalType": "uint256",
          "name": "",
          "type": "uint256"
        }
      ],
      "stateMutability": "view",
      "type": "function"
    },
    {
      "inputs": [
        {
          "internalType": "uint256",
          "name": "projectId",
          "type": "uint256"
        }
      ],
      "name": "reconfigurationStartTimestampOf",
      "outputs": [
        {
          "internalType": "uint256",
          "name": "",
          "type": "uint256"
        }
      ],
      "stateMutability": "view",
      "type": "function"
    },
    {
      "inputs": [
        {
          "components": [
            {
              "internalType": "contract IJBPaymentTerminal",
              "name": "terminal",
              "type": "address"
            },
            {
              "internalType": "address",
              "name": "holder",
              "type": "address"
            },
            {
              "internalType": "uint256",
              "name": "projectId",
              "type": "uint256"
            },
            {
              "internalType": "uint256",
              "name": "currentFundingCycleConfiguration",
              "type": "uint256"
            },
            {
              "internalType": "uint256",
              "name": "tokenCount",
              "type": "uint256"
            },
            {
              "internalType": "uint256",
              "name": "totalSupply",
              "type": "uint256"
            },
            {
              "internalType": "uint256",
              "name": "overflow",
              "type": "uint256"
            },
            {
              "components": [
                {
                  "internalType": "address",
                  "name": "token",
                  "type": "address"
                },
                {
                  "internalType": "uint256",
                  "name": "value",
                  "type": "uint256"
                },
                {
                  "internalType": "uint256",
                  "name": "decimals",
                  "type": "uint256"
                },
                {
                  "internalType": "uint256",
                  "name": "currency",
                  "type": "uint256"
                }
              ],
              "internalType": "struct JBTokenAmount",
              "name": "reclaimAmount",
              "type": "tuple"
            },
            {
              "internalType": "bool",
              "name": "useTotalOverflow",
              "type": "bool"
            },
            {
              "internalType": "uint256",
              "name": "redemptionRate",
              "type": "uint256"
            },
            {
              "internalType": "string",
              "name": "memo",
              "type": "string"
            },
            {
              "internalType": "bytes",
              "name": "metadata",
              "type": "bytes"
            }
          ],
          "internalType": "struct JBRedeemParamsData",
          "name": "_data",
          "type": "tuple"
        }
      ],
      "name": "redeemParams",
      "outputs": [
        {
          "internalType": "uint256",
          "name": "",
          "type": "uint256"
        },
        {
          "internalType": "string",
          "name": "",
          "type": "string"
        },
        {
          "components": [
            {
              "internalType": "contract IJBRedemptionDelegate3_1_1",
              "name": "delegate",
              "type": "address"
            },
            {
              "internalType": "uint256",
              "name": "amount",
              "type": "uint256"
            },
            {
              "internalType": "bytes",
              "name": "metadata",
              "type": "bytes"
            }
          ],
          "internalType": "struct JBRedemptionDelegateAllocation3_1_1[]",
          "name": "",
          "type": "tuple[]"
        }
      ],
      "stateMutability": "view",
      "type": "function"
    },
    {
      "inputs": [
        {
          "internalType": "uint256",
          "name": "_projectId",
          "type": "uint256"
        }
      ],
      "name": "scheduleReconfigurationOf",
      "outputs": [],
      "stateMutability": "nonpayable",
      "type": "function"
    },
    {
      "inputs": [
        {
          "internalType": "bytes4",
          "name": "_interfaceId",
          "type": "bytes4"
        }
      ],
      "name": "supportsInterface",
      "outputs": [
        {
          "internalType": "bool",
          "name": "",
          "type": "bool"
        }
      ],
      "stateMutability": "view",
      "type": "function"
    },
    {
      "inputs": [
        {
          "internalType": "uint256",
          "name": "",
          "type": "uint256"
        }
      ],
      "name": "terminals",
      "outputs": [
        {
          "internalType": "contract IJBPaymentTerminal",
          "name": "",
          "type": "address"
        }
      ],
      "stateMutability": "view",
      "type": "function"
    }
  ],
  "bytecode": {
    "object": "0x60e06040523480156200001157600080fd5b506040516200480c3803806200480c8339810160408190526200003491620000e1565b6001600160a01b0391821660805260008054600180820183557f290decd9548b62a8d60345a988386fc84ba6bc95484008f6362f93160ef3e56390910180546001600160a01b031916938516939093179092558154808301835591905260127fb10e2d527612073b26eecdfd717e6a320cf44b4afac2b0732d9fcbe2b7fa0cf69091015591821660a0521660c05262000149565b6001600160a01b0381168114620000de57600080fd5b50565b60008060008060808587031215620000f857600080fd5b84516200010581620000c8565b60208601519094506200011881620000c8565b60408601519093506200012b81620000c8565b60608601519092506200013e81620000c8565b939692955090935050565b60805160a05160c051614623620001e96000396000818161022a01526105290152600081816102a80152818161041d0152610567015260008181610327015281816108d2015281816109e201528181610af801528181610d3b01528181610dfd0152818161102701528181611180015281816113330152818161160e0152818161171e0152818161187801528181611afd0152611bbd01526146236000f3fe608060405234801561001057600080fd5b50600436106101005760003560e01c80638f3d964b11610097578063c41c2f2411610066578063c41c2f24146102a3578063d46cf171146102ca578063ef8eadd5146102ec578063f77c47911461032257600080fd5b80638f3d964b146102255780639483e7711461024c578063a51cfd181461025f578063abc603e31461028157600080fd5b8063150b7a02116100d3578063150b7a02146101995780633ce6d3e2146101dd578063560f7b03146101f25780638a7cf0221461021257600080fd5b806301ffc9a7146101055780630219758e1461012d57806304d7fb38146101655780630e53d9cc14610186575b600080fd5b610118610113366004612385565b610349565b60405190151581526020015b60405180910390f35b61014061013b3660046123ce565b6103e2565b60405173ffffffffffffffffffffffffffffffffffffffff9091168152602001610124565b6101786101733660046126a8565b610419565b604051908152602001610124565b6101786101943660046127fb565b61074c565b6101ac6101a73660046128b5565b611023565b6040517fffffffff000000000000000000000000000000000000000000000000000000009091168152602001610124565b6101f06101eb3660046123ce565b611137565b005b6101786102003660046123ce565b60026020526000908152604090205481565b610178610220366004612a50565b611488565b6101407f000000000000000000000000000000000000000000000000000000000000000081565b61017861025a3660046123ce565b611eaf565b61027261026d366004612b2c565b611ed0565b60405161012493929190612bd6565b61029461028f366004612c9f565b611f38565b60405161012493929190612cc1565b6101407f000000000000000000000000000000000000000000000000000000000000000081565b6102dd6102d8366004612cff565b61201b565b60405161012493929190612d3b565b6101406102fa3660046123ce565b60036020526000908152604090205473ffffffffffffffffffffffffffffffffffffffff1681565b6101407f000000000000000000000000000000000000000000000000000000000000000081565b60007fffffffff0000000000000000000000000000000000000000000000000000000082167f71700c690000000000000000000000000000000000000000000000000000000014806103dc57507f150b7a02000000000000000000000000000000000000000000000000000000007fffffffff000000000000000000000000000000000000000000000000000000008316145b92915050565b600081815481106103f257600080fd5b60009182526020909120015473ffffffffffffffffffffffffffffffffffffffff16905081565b60007f000000000000000000000000000000000000000000000000000000000000000073ffffffffffffffffffffffffffffffffffffffff16638b79543c6040518163ffffffff1660e01b8152600401602060405180830381865afa158015610486573d6000803e3d6000fd5b505050506040513d601f19601f820116820180604052508101906104aa9190612df2565b73ffffffffffffffffffffffffffffffffffffffff166306661abd6040518163ffffffff1660e01b8152600401602060405180830381865afa1580156104f4573d6000803e3d6000fd5b505050506040513d601f19601f820116820180604052508101906105189190612e0f565b610523906001612e57565b905060007f000000000000000000000000000000000000000000000000000000000000000073ffffffffffffffffffffffffffffffffffffffff1663cb5720fb83857f00000000000000000000000000000000000000000000000000000000000000006040518463ffffffff1660e01b81526004016105a49392919061326c565b6020604051808303816000875af11580156105c3573d6000803e3d6000fd5b505050506040513d601f19601f820116820180604052508101906105e79190612df2565b90508460006105f7826001612e57565b67ffffffffffffffff81111561060f5761060f612417565b60405190808252806020026020018201604052801561065c57816020015b6040805160608082018352600080835260208301529181019190915281526020019060019003908161062d5790505b50905060005b828110156106bc5788888281811061067c5761067c613461565b905060200281019061068e9190613490565b610697906134ce565b8282815181106106a9576106a9613461565b6020908102919091010152600101610662565b5060405180606001604052808473ffffffffffffffffffffffffffffffffffffffff168152602001600081526020016040518060200160405280600081525081525081838151811061071057610710613461565b602090810291909101015261073b8d8d8d8d8d86610220610736368f90038f018f6134da565b612364565b9d9c50505050505050505050505050565b604080516001808252818301909252600091829190816020015b60408051808201909152600081526060602082015281526020019060019003908161076657505060408051600180825281830190925291925060009190602082015b6040805160e08101825260008082526020808301829052928201819052606082018190526080820181905260a0820181905260c082015282527fffffffffffffffffffffffffffffffffffffffffffffffffffffffffffffffff9092019101816107a85790505090506040518060e00160405280600015158152602001600015158152602001633b9aca008152602001600081526020018b73ffffffffffffffffffffffffffffffffffffffff16815260200160008152602001600073ffffffffffffffffffffffffffffffffffffffff168152508160018151811061089057610890613461565b602002602001018190525060405180604001604052806002815260200182815250826000815181106108c4576108c4613461565b6020026020010181905250507f000000000000000000000000000000000000000000000000000000000000000073ffffffffffffffffffffffffffffffffffffffff16638b79543c6040518163ffffffff1660e01b8152600401602060405180830381865afa15801561093b573d6000803e3d6000fd5b505050506040513d601f19601f8201168201806040525081019061095f9190612df2565b73ffffffffffffffffffffffffffffffffffffffff1663666d87a0308a6040518363ffffffff1660e01b815260040161099992919061351b565b6020604051808303816000875af11580156109b8573d6000803e3d6000fd5b505050506040513d601f19601f820116820180604052508101906109dc9190612e0f565b915060007f000000000000000000000000000000000000000000000000000000000000000073ffffffffffffffffffffffffffffffffffffffff1663619306306040518163ffffffff1660e01b8152600401602060405180830381865afa158015610a4b573d6000803e3d6000fd5b505050506040513d601f19601f82011682018060405250810190610a6f9190612df2565b73ffffffffffffffffffffffffffffffffffffffff1663a7f2a70b848a8a8a8a6040518663ffffffff1660e01b8152600401610aaf959493929190613573565b6020604051808303816000875af1158015610ace573d6000803e3d6000fd5b505050506040513d601f19601f82011682018060405250810190610af29190612df2565b905060007f000000000000000000000000000000000000000000000000000000000000000073ffffffffffffffffffffffffffffffffffffffff1663111d861b8560405180608001604052808960600135815260200160128a60000135610b5991906136cc565b815260408a810135602080840191909152600092820183905281516102a081018352610240810184815261026082018590526102808201859052815260a0808e0135828401526080808f013583860152606083018690528201859052810184905260c0810184905260e081018490526001610100820181905261012082018590526101408201859052610160820185905261018082018590526101a082018590526101c08201526101e0810184905273ffffffffffffffffffffffffffffffffffffffff891661020082015261022081018490528251848152918201909252909190899082610cbb565b610ca86040518060c00160405280600073ffffffffffffffffffffffffffffffffffffffff168152602001600073ffffffffffffffffffffffffffffffffffffffff168152602001600081526020016000815260200160008152602001600081525090565b815260200190600190039081610c435790505b5060006040518863ffffffff1660e01b8152600401610ce097969594939291906139e3565b6020604051808303816000875af1158015610cff573d6000803e3d6000fd5b505050506040513d601f19601f82011682018060405250810190610d239190612e0f565b5073ffffffffffffffffffffffffffffffffffffffff7f000000000000000000000000000000000000000000000000000000000000000016638ae9c07b85610d70601260208a01356136cc565b8e8b8b604051602001610d84929190613b04565b6040516020818303038152906040526000806040518763ffffffff1660e01b8152600401610db796959493929190613b61565b6020604051808303816000875af1158015610dd6573d6000803e3d6000fd5b505050506040513d601f19601f82011682018060405250810190610dfa9190612e0f565b507f000000000000000000000000000000000000000000000000000000000000000073ffffffffffffffffffffffffffffffffffffffff16632bdfe0046040518163ffffffff1660e01b8152600401602060405180830381865afa158015610e66573d6000803e3d6000fd5b505050506040513d601f19601f82011682018060405250810190610e8a9190612df2565b73ffffffffffffffffffffffffffffffffffffffff1663ad007d636040518163ffffffff1660e01b8152600401602060405180830381865afa158015610ed4573d6000803e3d6000fd5b505050506040513d601f19601f82011682018060405250810190610ef89190612df2565b73ffffffffffffffffffffffffffffffffffffffff1663529cdd2e60405180606001604052808e73ffffffffffffffffffffffffffffffffffffffff1681526020018781526020016001805480602002602001604051908101604052809291908181526020018280548015610f8c57602002820191906000526020600020905b815481526020019060010190808311610f78575b50505050508152506040518263ffffffff1660e01b8152600401610fb09190613bb6565b600060405180830381600087803b158015610fca57600080fd5b505af1158015610fde573d6000803e3d6000fd5b50610ff39250505060e0860160c08701613c27565b6110059065ffffffffffff1642612e57565b60008581526002602052604090205550919998505050505050505050565b60007f000000000000000000000000000000000000000000000000000000000000000073ffffffffffffffffffffffffffffffffffffffff16638b79543c6040518163ffffffff1660e01b8152600401602060405180830381865afa158015611090573d6000803e3d6000fd5b505050506040513d601f19601f820116820180604052508101906110b49190612df2565b73ffffffffffffffffffffffffffffffffffffffff163373ffffffffffffffffffffffffffffffffffffffff16146110eb57600080fd5b73ffffffffffffffffffffffffffffffffffffffff85161561110c57600080fd5b507f150b7a020000000000000000000000000000000000000000000000000000000095945050505050565b6040517f1f51045300000000000000000000000000000000000000000000000000000000815260048101829052600090819073ffffffffffffffffffffffffffffffffffffffff7f00000000000000000000000000000000000000000000000000000000000000001690631f510453906024016103c060405180830381865afa1580156111c8573d6000803e3d6000fd5b505050506040513d601f19601f820116820180604052508101906111ec9190613e09565b508151919350915060011461122d576040517fc97554fa00000000000000000000000000000000000000000000000000000000815260040160405180910390fd5b60408051608080820183528481015182526000602080840182905260c08088015185870152606080860184905286516102a0810188526102408101858152610260820186905261028082018690528152808401859052888801518189015290810184905293840183905260a08401839052830182905260e08301829052610100830182905261012083018290526101408301829052610160830182905261018083018290526101a083018290526101c083018290526101e083018290526102008087015173ffffffffffffffffffffffffffffffffffffffff908116918501919091526102208781015190850152888352600282528583205486518481529283019096527f0000000000000000000000000000000000000000000000000000000000000000169463badbdf28948994909390929061138e565b6040805180820190915260008152606060208201528152602001906001900390816113665790505b50604080516000808252602082019092529061141d565b61140a6040518060c00160405280600073ffffffffffffffffffffffffffffffffffffffff168152602001600073ffffffffffffffffffffffffffffffffffffffff168152602001600081526020016000815260200160008152602001600081525090565b8152602001906001900390816113a55790505b506040518763ffffffff1660e01b815260040161143f96959493929190613ec0565b6020604051808303816000875af115801561145e573d6000803e3d6000fd5b505050506040513d601f19601f820116820180604052508101906114829190612e0f565b50505050565b604080516001808252818301909252600091829190816020015b6040805180820190915260008152606060208201528152602001906001900390816114a257505060408051600180825281830190925291925060009190602082015b6040805160e08101825260008082526020808301829052928201819052606082018190526080820181905260a0820181905260c082015282527fffffffffffffffffffffffffffffffffffffffffffffffffffffffffffffffff9092019101816114e45790505090506040518060e00160405280600015158152602001600015158152602001633b9aca008152602001600081526020018b73ffffffffffffffffffffffffffffffffffffffff16815260200160008152602001600073ffffffffffffffffffffffffffffffffffffffff16815250816001815181106115cc576115cc613461565b6020026020010181905250604051806040016040528060028152602001828152508260008151811061160057611600613461565b6020026020010181905250507f000000000000000000000000000000000000000000000000000000000000000073ffffffffffffffffffffffffffffffffffffffff16638b79543c6040518163ffffffff1660e01b8152600401602060405180830381865afa158015611677573d6000803e3d6000fd5b505050506040513d601f19601f8201168201806040525081019061169b9190612df2565b73ffffffffffffffffffffffffffffffffffffffff1663666d87a0308a6040518363ffffffff1660e01b81526004016116d5929190613fb4565b6020604051808303816000875af11580156116f4573d6000803e3d6000fd5b505050506040513d601f19601f820116820180604052508101906117189190612e0f565b915060007f000000000000000000000000000000000000000000000000000000000000000073ffffffffffffffffffffffffffffffffffffffff1663619306306040518163ffffffff1660e01b8152600401602060405180830381865afa158015611787573d6000803e3d6000fd5b505050506040513d601f19601f820116820180604052508101906117ab9190612df2565b73ffffffffffffffffffffffffffffffffffffffff1663a7f2a70b848a8a6040518463ffffffff1660e01b81526004016117e793929190614002565b6020604051808303816000875af1158015611806573d6000803e3d6000fd5b505050506040513d601f19601f8201168201806040525081019061182a9190612df2565b600084815260036020908152604080832080547fffffffffffffffffffffffff000000000000000000000000000000000000000016905580516080810190915260608a0135815292935090917f000000000000000000000000000000000000000000000000000000000000000073ffffffffffffffffffffffffffffffffffffffff169163111d861b91879181016118c460128d356136cc565b81526020018b604001358152602001600073ffffffffffffffffffffffffffffffffffffffff1681525060405180610240016040528060405180606001604052806000151581526020016000151581526020016000151581525081526020018c60a0013581526020018c608001358152602001600081526020016000151581526020016000151581526020016000151581526020016000151581526020016001151581526020016000151581526020016000151581526020016000151581526020016000151581526020016000151581526020016001151581526020016000151581526020013073ffffffffffffffffffffffffffffffffffffffff1681526020018a815250600088600067ffffffffffffffff8111156119e7576119e7612417565b604051908082528060200260200182016040528015611a7d57816020015b611a6a6040518060c00160405280600073ffffffffffffffffffffffffffffffffffffffff168152602001600073ffffffffffffffffffffffffffffffffffffffff168152602001600081526020016000815260200160008152602001600081525090565b815260200190600190039081611a055790505b5060006040518863ffffffff1660e01b8152600401611aa297969594939291906139e3565b6020604051808303816000875af1158015611ac1573d6000803e3d6000fd5b505050506040513d601f19601f82011682018060405250810190611ae59190612e0f565b5073ffffffffffffffffffffffffffffffffffffffff7f000000000000000000000000000000000000000000000000000000000000000016638ae9c07b85611b32601260208c01356136cc565b8e8c604051602001611b449190614037565b6040516020818303038152906040526000806040518763ffffffff1660e01b8152600401611b7796959493929190613b61565b6020604051808303816000875af1158015611b96573d6000803e3d6000fd5b505050506040513d601f19601f82011682018060405250810190611bba9190612e0f565b507f000000000000000000000000000000000000000000000000000000000000000073ffffffffffffffffffffffffffffffffffffffff16632bdfe0046040518163ffffffff1660e01b8152600401602060405180830381865afa158015611c26573d6000803e3d6000fd5b505050506040513d601f19601f82011682018060405250810190611c4a9190612df2565b73ffffffffffffffffffffffffffffffffffffffff1663ad007d636040518163ffffffff1660e01b8152600401602060405180830381865afa158015611c94573d6000803e3d6000fd5b505050506040513d601f19601f82011682018060405250810190611cb89190612df2565b73ffffffffffffffffffffffffffffffffffffffff1663529cdd2e60405180606001604052808e73ffffffffffffffffffffffffffffffffffffffff1681526020018781526020016001805480602002602001604051908101604052809291908181526020018280548015611d4c57602002820191906000526020600020905b815481526020019060010190808311611d38575b50505050508152506040518263ffffffff1660e01b8152600401611d709190613bb6565b600060405180830381600087803b158015611d8a57600080fd5b505af1158015611d9e573d6000803e3d6000fd5b50611db39250505060e0880160c08901613c27565b611dc59065ffffffffffff1642612e57565b6000858152600260205260408120919091558651905b81811015611e9f57878181518110611df557611df5613461565b6020026020010151600460008881526020019081526020016000208281548110611e2157611e21613461565b600091825260209182902083516003929092020180547fffffffffffffffffffffffff00000000000000000000000000000000000000001673ffffffffffffffffffffffffffffffffffffffff90921691909117815590820151600182015560408201516002820190611e94908261413f565b505050600101611ddb565b5050505050979650505050505050565b60018181548110611ebf57600080fd5b600091825260209091200154905081565b604080516000808252602082019092526060908190839081611f1c565b60408051606080820183526000808352602083015291810191909152815260200190600190039081611eed5790505b5060408051602081019091526000815291969195509350915050565b60046020528160005260406000208181548110611f5457600080fd5b600091825260209091206003909102018054600182015460028301805473ffffffffffffffffffffffffffffffffffffffff909316955090935090611f98906140a3565b80601f0160208091040260200160405190810160405280929190818152602001828054611fc4906140a3565b80156120115780601f10611fe657610100808354040283529160200191612011565b820191906000526020600020905b815481529060010190602001808311611ff457829003601f168201915b5050505050905083565b60c08101356000908152600360205260408082205490517fd46cf1710000000000000000000000000000000000000000000000000000000081526060918291829173ffffffffffffffffffffffffffffffffffffffff169063d46cf1719061208790889060040161429b565b600060405180830381865afa1580156120a4573d6000803e3d6000fd5b505050506040513d6000823e601f3d9081017fffffffffffffffffffffffffffffffffffffffffffffffffffffffffffffffe01682016040526120ea919081019061440f565b60c088013560009081526004602090815260408083208054825181850281018501909352808352969a509396509194919350849084015b828210156122125760008481526020908190206040805160608101825260038602909201805473ffffffffffffffffffffffffffffffffffffffff16835260018101549383019390935260028301805492939291840191612181906140a3565b80601f01602080910402602001604051908101604052809291908181526020018280546121ad906140a3565b80156121fa5780601f106121cf576101008083540402835291602001916121fa565b820191906000526020600020905b8154815290600101906020018083116121dd57829003601f168201915b50505050508152505081526020019060010190612121565b5050825192935061222891508290506001612e57565b67ffffffffffffffff81111561224057612240612417565b60405190808252806020026020018201604052801561228d57816020015b6040805160608082018352600080835260208301529181019190915281526020019060019003908161225e5790505b50935060005b818110156122da578281815181106122ad576122ad613461565b60200260200101518582815181106122c7576122c7613461565b6020908102919091010152600101612293565b50826000815181106122ee576122ee613461565b602002602001015184828151811061230857612308613461565b6020908102919091010152612321610160880188614588565b8080601f016020809104026020016040519081016040528093929190818152602001838380828437600092019190915250989a9299509597509095505050505050565b805160009015612372576001175b816020015115612380576002175b919050565b60006020828403121561239757600080fd5b81357fffffffff00000000000000000000000000000000000000000000000000000000811681146123c757600080fd5b9392505050565b6000602082840312156123e057600080fd5b5035919050565b73ffffffffffffffffffffffffffffffffffffffff8116811461240957600080fd5b50565b8035612380816123e7565b7f4e487b7100000000000000000000000000000000000000000000000000000000600052604160045260246000fd5b6040805190810167ffffffffffffffff8111828210171561246957612469612417565b60405290565b6040516060810167ffffffffffffffff8111828210171561246957612469612417565b604051610240810167ffffffffffffffff8111828210171561246957612469612417565b604051610120810167ffffffffffffffff8111828210171561246957612469612417565b604051601f82017fffffffffffffffffffffffffffffffffffffffffffffffffffffffffffffffe016810167ffffffffffffffff8111828210171561252157612521612417565b604052919050565b600067ffffffffffffffff82111561254357612543612417565b50601f017fffffffffffffffffffffffffffffffffffffffffffffffffffffffffffffffe01660200190565b600061258261257d84612529565b6124da565b905082815283838301111561259657600080fd5b828260208301376000602084830101529392505050565b600082601f8301126125be57600080fd5b6123c78383356020850161256f565b6000604082840312156125df57600080fd5b6125e7612446565b9050813567ffffffffffffffff81111561260057600080fd5b61260c848285016125ad565b8252506020820135602082015292915050565b600060e0828403121561263157600080fd5b50919050565b60008083601f84011261264957600080fd5b50813567ffffffffffffffff81111561266157600080fd5b6020830191508360208260051b850101111561267c57600080fd5b9250929050565b60006040828403121561263157600080fd5b60006101c0828403121561263157600080fd5b60008060008060008060008060006101e08a8c0312156126c757600080fd5b6126d08a61240c565b985060208a013567ffffffffffffffff808211156126ed57600080fd5b6126f98d838e016125cd565b995060408c013591508082111561270f57600080fd5b61271b8d838e016125ad565b985060608c013591508082111561273157600080fd5b61273d8d838e016125ad565b975061274c8d60808e0161261f565b96506101608c013591508082111561276357600080fd5b61276f8d838e01612637565b90965094508491506127858d6101808e01612683565b93506101c08c013591508082111561279c57600080fd5b506127a98c828d01612695565b9150509295985092959850929598565b60008083601f8401126127cb57600080fd5b50813567ffffffffffffffff8111156127e357600080fd5b60208301915083602082850101111561267c57600080fd5b6000806000806000806000610160888a03121561281757600080fd5b8735612822816123e7565b9650602088013567ffffffffffffffff8082111561283f57600080fd5b61284b8b838c01612683565b975060408a013591508082111561286157600080fd5b61286d8b838c016127b9565b909750955060608a013591508082111561288657600080fd5b506128938a828b016127b9565b90945092506128a790508960808a0161261f565b905092959891949750929550565b6000806000806000608086880312156128cd57600080fd5b85356128d8816123e7565b945060208601356128e8816123e7565b935060408601359250606086013567ffffffffffffffff81111561290b57600080fd5b612917888289016127b9565b969995985093965092949392505050565b600067ffffffffffffffff82111561294257612942612417565b5060051b60200190565b60006060828403121561295e57600080fd5b61296661246f565b90508135612973816123e7565b815260208281013590820152604082013567ffffffffffffffff81111561299957600080fd5b8201601f810184136129aa57600080fd5b6129b98482356020840161256f565b60408301525092915050565b600082601f8301126129d657600080fd5b813560206129e661257d83612928565b82815260059290921b84018101918181019086841115612a0557600080fd5b8286015b84811015612a4557803567ffffffffffffffff811115612a295760008081fd5b612a378986838b010161294c565b845250918301918301612a09565b509695505050505050565b60008060008060008060006101a0888a031215612a6c57600080fd5b612a758861240c565b9650602088013567ffffffffffffffff80821115612a9257600080fd5b612a9e8b838c016125cd565b975060408a0135915080821115612ab457600080fd5b612ac08b838c016125ad565b965060608a0135915080821115612ad657600080fd5b612ae28b838c016125ad565b9550612af18b60808c0161261f565b94506101608a0135915080821115612b0857600080fd5b50612b158a828b016129c5565b925050610180880135905092959891949750929550565b600060208284031215612b3e57600080fd5b813567ffffffffffffffff811115612b5557600080fd5b82016101e081850312156123c757600080fd5b60005b83811015612b83578181015183820152602001612b6b565b50506000910152565b60008151808452612ba4816020860160208601612b68565b601f017fffffffffffffffffffffffffffffffffffffffffffffffffffffffffffffffe0169290920160200192915050565b6000606085835260208181850152612bf082850187612b8c565b6040858203818701528187518084528484019150848160051b850101858a0160005b83811015612c8d578683037fffffffffffffffffffffffffffffffffffffffffffffffffffffffffffffffe00185528151805173ffffffffffffffffffffffffffffffffffffffff16845288810151898501528601518684018a9052612c7a8a850182612b8c565b9589019593505090870190600101612c12565b50909c9b505050505050505050505050565b60008060408385031215612cb257600080fd5b50508035926020909101359150565b73ffffffffffffffffffffffffffffffffffffffff84168152826020820152606060408201526000612cf66060830184612b8c565b95945050505050565b600060208284031215612d1157600080fd5b813567ffffffffffffffff811115612d2857600080fd5b82016101a081850312156123c757600080fd5b6000606085835260208181850152612d5582850187612b8c565b6040858203818701528187518084528484019150848160051b850101858a0160005b83811015612c8d578683037fffffffffffffffffffffffffffffffffffffffffffffffffffffffffffffffe00185528151805173ffffffffffffffffffffffffffffffffffffffff16845288810151898501528601518684018a9052612ddf8a850182612b8c565b9589019593505090870190600101612d77565b600060208284031215612e0457600080fd5b81516123c7816123e7565b600060208284031215612e2157600080fd5b5051919050565b7f4e487b7100000000000000000000000000000000000000000000000000000000600052601160045260246000fd5b808201808211156103dc576103dc612e28565b60008083357fffffffffffffffffffffffffffffffffffffffffffffffffffffffffffffffe1843603018112612e9f57600080fd5b830160208101925035905067ffffffffffffffff811115612ebf57600080fd5b80360382131561267c57600080fd5b8183528181602085013750600060208284010152600060207fffffffffffffffffffffffffffffffffffffffffffffffffffffffffffffffe0601f840116840101905092915050565b600082357fffffffffffffffffffffffffffffffffffffffffffffffffffffffffffffff81833603018112612f4b57600080fd5b90910192915050565b80356cffffffffffffffffffffffffff8116811461238057600080fd5b803563ffffffff8116811461238057600080fd5b803561ffff8116811461238057600080fd5b803562ffffff8116811461238057600080fd5b801515811461240957600080fd5b803561238081612faa565b803565ffffffffffff8116811461238057600080fd5b6000608080840183357fffffffffffffffffffffffffffffffffffffffffffffffffffffffffffffffe185360301811261301257600080fd5b8401602081810191359067ffffffffffffffff82111561303157600080fd5b610160808302360384131561304557600080fd5b8589529382905260a09384890160005b848110156131605761307d8261306a88612f54565b6cffffffffffffffffffffffffff169052565b613088848701612f71565b63ffffffff1684830152604061309f878201612f71565b63ffffffff169083015260606130b6878201612f85565b61ffff16908301526130c986890161240c565b73ffffffffffffffffffffffffffffffffffffffff1688830152858701358783015260c06130f8818801612f97565b62ffffff169083015260e061310e878201612fb8565b151590830152610100613122878201612fb8565b151590830152610120613136878201612fb8565b15159083015261014061314a878201612fb8565b1515908301529482019490820190600101613055565b5061316c838a01612fc3565b65ffffffffffff81168b850152965061318760408a01612fc3565b65ffffffffffff811660408c015296506131a360608a0161240c565b73ffffffffffffffffffffffffffffffffffffffff811660608c015296509998505050505050505050565b80356131d981612faa565b1515825260208101356131eb81612faa565b15156020830152604081013561320081612faa565b15156040830152606081013561321581612faa565b8015156060840152505050565b80356002811061238057600080fd5b60028110613268577f4e487b7100000000000000000000000000000000000000000000000000000000600052602160045260246000fd5b9052565b8381526060602082015260006132828485612e6a565b6101c0606085015261329961022085018284612ece565b9150506132a96020860186612e6a565b7fffffffffffffffffffffffffffffffffffffffffffffffffffffffffffffffa0808685030160808701526132df848385612ece565b93506132ed6040890161240c565b73ffffffffffffffffffffffffffffffffffffffff811660a088015292506133186060890189612e6a565b93509150808685030160c0870152613331848484612ece565b935061333f6080890161240c565b73ffffffffffffffffffffffffffffffffffffffff811660e0880152925061336a60a0890189612e6a565b93509150610100818786030181880152613385858585612ece565b945061339460c08a018a612f17565b935061012092508187860301838801526133ae8585612fd9565b94506133bc60e08a0161240c565b73ffffffffffffffffffffffffffffffffffffffff811661014089015293506133e6818a0161240c565b9350505061340d61016086018373ffffffffffffffffffffffffffffffffffffffff169052565b61341d61018086018289016131ce565b505061342c6101a08601613222565b61343a610200850182613231565b5073ffffffffffffffffffffffffffffffffffffffff841660408401529050949350505050565b7f4e487b7100000000000000000000000000000000000000000000000000000000600052603260045260246000fd5b600082357fffffffffffffffffffffffffffffffffffffffffffffffffffffffffffffffa18336030181126134c457600080fd5b9190910192915050565b60006103dc368361294c565b6000604082840312156134ec57600080fd5b6134f4612446565b82356134ff81612faa565b8152602083013561350f81612faa565b60208201529392505050565b73ffffffffffffffffffffffffffffffffffffffff831681526040602082015260006135478384612e6a565b60408085015261355b608085018284612ece565b91505060208401356060840152809150509392505050565b85815260606020820152600061358d606083018688612ece565b82810360408401526135a0818587612ece565b98975050505050505050565b600181815b8085111561360557817fffffffffffffffffffffffffffffffffffffffffffffffffffffffffffffffff048211156135eb576135eb612e28565b808516156135f857918102915b93841c93908002906135b1565b509250929050565b60008261361c575060016103dc565b81613629575060006103dc565b816001811461363f576002811461364957613665565b60019150506103dc565b60ff84111561365a5761365a612e28565b50506001821b6103dc565b5060208310610133831016604e8410600b8410161715613688575081810a6103dc565b61369283836135ac565b807fffffffffffffffffffffffffffffffffffffffffffffffffffffffffffffffff048211156136c4576136c4612e28565b029392505050565b60006123c760ff84168361360d565b6137008282518051151582526020808201511515908301526040908101511515910152565b6020810151606083015260408101516080830152606081015160a0830152608081015161373160c084018215159052565b5060a081015180151560e08401525060c08101516101006137558185018315159052565b60e0830151915061012061376c8186018415159052565b908301519150610140906137838583018415159052565b83015191506101606137988582018415159052565b908301519150610180906137af8583018415159052565b83015191506101a06137c48582018415159052565b9083015191506101c0906137db8583018415159052565b83015191506101e06137f08582018415159052565b908301519150610200906138078583018415159052565b830151915061022061381c8582018415159052565b9083015173ffffffffffffffffffffffffffffffffffffffff16610240850152909101516102609092019190915250565b600082825180855260208086019550808260051b8401018186016000805b8581101561394d578684037fffffffffffffffffffffffffffffffffffffffffffffffffffffffffffffffe0018a52825180518552850151604086860181905281518187018190529187019160609081880190865b818110156139365785518051151584528b81015115158c8501528581015186850152848101518585015260808082015173ffffffffffffffffffffffffffffffffffffffff9081169186019190915260a0808301519086015260c0918201511690840152948a019460e0909201916001016138c0565b50509c88019c96505050928501925060010161386b565b509198975050505050505050565b600081518084526020808501945080840160005b838110156139d8578151805173ffffffffffffffffffffffffffffffffffffffff908116895284820151168489015260408082015190890152606080820151908901526080808201519089015260a0908101519088015260c0909601959082019060010161396f565b509495945050505050565b60006103c08983526020613a308185018b80518252602081015160208301526040810151604083015273ffffffffffffffffffffffffffffffffffffffff60608201511660608301525050565b613a3d60a085018a6136db565b8761032085015281610340850152613a578285018861384d565b9150838203610360850152613a6c828761395b565b848103610380860152855480825260008781528381209450918301915b81811015613abb57845473ffffffffffffffffffffffffffffffffffffffff1683526001948501949284019201613a89565b50508481036103a0860152601b81527f4465706c6f7965642052657461696c69737420747265617375727900000000006020820152604081019c9b505050505050505050505050565b7f5072656d696e746564200000000000000000000000000000000000000000000081528183600a8301377f20746f6b656e732e0000000000000000000000000000000000000000000000009101600a810191909152601201919050565b86815285602082015273ffffffffffffffffffffffffffffffffffffffff8516604082015260c060608201526000613b9c60c0830186612b8c565b93151560808301525090151560a090910152949350505050565b600060208083526080830173ffffffffffffffffffffffffffffffffffffffff85511682850152818501516040850152604085015160608086015281815180845260a0870191508483019350600092505b80831015612a455783518252928401926001929092019190840190613c07565b600060208284031215613c3957600080fd5b6123c782612fc3565b8051612380816123e7565b805161238081612faa565b600060608284031215613c6a57600080fd5b613c7261246f565b90508151613c7f81612faa565b81526020820151613c8f81612faa565b60208201526040820151613ca281612faa565b604082015292915050565b60006102808284031215613cc057600080fd5b613cc8612492565b9050613cd48383613c58565b8152606082015160208201526080820151604082015260a08201516060820152613d0060c08301613c4d565b6080820152613d1160e08301613c4d565b60a0820152610100613d24818401613c4d565b60c0830152610120613d37818501613c4d565b60e0840152610140613d4a818601613c4d565b838501526101609250613d5e838601613c4d565b828501526101809150613d72828601613c4d565b908401526101a0613d84858201613c4d565b838501526101c09250613d98838601613c4d565b828501526101e09150613dac828601613c4d565b90840152610200613dbe858201613c4d565b838501526102209250613dd2838601613c4d565b82850152613de36102408601613c42565b818501525050610260830151818301525092915050565b80516003811061238057600080fd5b60008060008385036103c0811215613e2057600080fd5b61012080821215613e3057600080fd5b613e386124b6565b9150855182526020860151602083015260408601516040830152606086015160608301526080860151608083015260a086015160a083015260c086015160c0830152613e8660e08701613c42565b60e0830152610100808701518184015250819450613ea687828801613cad565b93505050613eb76103a08501613dfa565b90509250925092565b60006103a0888352613f0c602084018980518252602081015160208301526040810151604083015273ffffffffffffffffffffffffffffffffffffffff60608201511660608301525050565b613f1960a08401886136db565b8561032084015280610340840152613f338184018661384d565b9050828103610360840152613f48818561395b565b838103610380909401939093525050603481527f5363686564756c6564207265736572766564207261746520657870697279206f60208201527f662052657461696c69737420747265617375727900000000000000000000000060408201526060019695505050505050565b73ffffffffffffffffffffffffffffffffffffffff831681526040602082015260008251604080840152613feb6080840182612b8c565b905060208401516060840152809150509392505050565b83815260606020820152600061401b6060830185612b8c565b828103604084015261402d8185612b8c565b9695505050505050565b7f5072656d696e746564200000000000000000000000000000000000000000000081526000825161406f81600a850160208701612b68565b7f20746f6b656e732e000000000000000000000000000000000000000000000000600a939091019283015250601201919050565b600181811c908216806140b757607f821691505b602082108103612631577f4e487b7100000000000000000000000000000000000000000000000000000000600052602260045260246000fd5b601f82111561413a57600081815260208120601f850160051c810160208610156141175750805b601f850160051c820191505b8181101561413657828155600101614123565b5050505b505050565b815167ffffffffffffffff81111561415957614159612417565b61416d8161416784546140a3565b846140f0565b602080601f8311600181146141c0576000841561418a5750858301515b7fffffffffffffffffffffffffffffffffffffffffffffffffffffffffffffffff600386901b1c1916600185901b178555614136565b6000858152602081207fffffffffffffffffffffffffffffffffffffffffffffffffffffffffffffffe08616915b8281101561420d578886015182559484019460019091019084016141ee565b508582101561424957878501517fffffffffffffffffffffffffffffffffffffffffffffffffffffffffffffffff600388901b60f8161c191681555b5050505050600190811b01905550565b8035614264816123e7565b73ffffffffffffffffffffffffffffffffffffffff1682526020818101359083015260408082013590830152606090810135910152565b602081526142c9602082016142af8461240c565b73ffffffffffffffffffffffffffffffffffffffff169052565b60006142d76020840161240c565b73ffffffffffffffffffffffffffffffffffffffff81166040840152506143046060830160408501614259565b60c083013560e083015261010060e08401358184015261432581850161240c565b905061012061434b8185018373ffffffffffffffffffffffffffffffffffffffff169052565b6101409150808501358285015250610160818501358185015261437081860186612e6a565b925090506101a0610180818187015261438e6101c087018585612ece565b935061439c81880188612e6a565b935090507fffffffffffffffffffffffffffffffffffffffffffffffffffffffffffffffe086850301828701526143d4848483612ece565b979650505050505050565b60006143ed61257d84612529565b905082815283838301111561440157600080fd5b6123c7836020830184612b68565b60008060006060848603121561442457600080fd5b8351925060208085015167ffffffffffffffff8082111561444457600080fd5b818701915087601f83011261445857600080fd5b6144668883518585016143df565b9450604087015191508082111561447c57600080fd5b818701915087601f83011261449057600080fd5b815161449e61257d82612928565b81815260059190911b8301840190848101908a8311156144bd57600080fd5b8585015b83811015614577578051858111156144d857600080fd5b86016060818e037fffffffffffffffffffffffffffffffffffffffffffffffffffffffffffffffe001121561450c57600080fd5b61451461246f565b88820151614521816123e7565b815260408201518982015260608201518781111561453e57600080fd5b8083019250508d603f83011261455357600080fd5b6145648e8a840151604085016143df565b60408201528452509186019186016144c1565b508096505050505050509250925092565b60008083357fffffffffffffffffffffffffffffffffffffffffffffffffffffffffffffffe18436030181126145bd57600080fd5b83018035915067ffffffffffffffff8211156145d857600080fd5b60200191503681900382131561267c57600080fdfea2646970667358221220a0b1b540c1b580650cac6457ae3fdaea02d488fa8e17a8993cac2c606c1da45064736f6c63430008140033",
    "linkReferences": {}
  },
  "methodIdentifiers": {
    "buybackDelegateDataSourceOf(uint256)": "ef8eadd5",
    "controller()": "f77c4791",
    "delegateAllocationsOf(uint256,uint256)": "abc603e3",
    "delegateDeployer()": "8f3d964b",
    "deployBasicProjectFor(address,(string,uint256),string,string,(uint256,uint256,uint256,uint256,uint256,uint256,uint48))": "0e53d9cc",
    "deployPayAllocatorProjectFor(address,(string,uint256),string,string,(uint256,uint256,uint256,uint256,uint256,uint256,uint48),(address,uint256,bytes)[],uint256)": "8a7cf022",
    "deployTiered721PayAllocatorProjectFor(address,(string,uint256),string,string,(uint256,uint256,uint256,uint256,uint256,uint256,uint48),(address,uint256,bytes)[],(bool,bool),(string,string,address,string,address,string,((uint104,uint32,uint32,uint16,address,bytes32,uint24,bool,bool,bool,bool)[],uint48,uint48,address),address,address,(bool,bool,bool,bool),uint8))": "04d7fb38",
    "directory()": "c41c2f24",
    "onERC721Received(address,address,uint256,bytes)": "150b7a02",
    "payParams((address,address,(address,uint256,uint256,uint256),uint256,uint256,address,uint256,uint256,string,bytes))": "d46cf171",
    "permissionIndexes(uint256)": "9483e771",
    "reconfigurationStartTimestampOf(uint256)": "560f7b03",
    "redeemParams((address,address,uint256,uint256,uint256,uint256,uint256,(address,uint256,uint256,uint256),bool,uint256,string,bytes))": "a51cfd18",
    "scheduleReconfigurationOf(uint256)": "3ce6d3e2",
    "supportsInterface(bytes4)": "01ffc9a7",
    "terminals(uint256)": "0219758e"
  },
  "id": 73
}