{
  "abi": [
    {
      "inputs": [
        {
          "internalType": "contract IJBDirectory",
          "name": "_directory",
          "type": "address"
        },
        {
          "internalType": "contract IJBTiered721DelegateDeployer",
          "name": "_delegateDeployer",
          "type": "address"
        },
        {
          "internalType": "contract IJBController3_1",
          "name": "_controller",
          "type": "address"
        }
      ],
      "stateMutability": "nonpayable",
      "type": "constructor"
    },
    {
      "inputs": [],
      "name": "BAD_DEV_TAX_SEQUENCE",
      "type": "error"
    },
    {
      "inputs": [],
      "name": "RECONFIGURATION_ALREADY_SCHEDULED",
      "type": "error"
    },
    {
      "inputs": [],
      "name": "RECONFIGURATION_NOT_POSSIBLE",
      "type": "error"
    },
    {
      "inputs": [
        {
          "internalType": "uint256",
          "name": "",
          "type": "uint256"
        }
      ],
      "name": "buybackDelegateDataSourceOf",
      "outputs": [
        {
          "internalType": "contract IJBGenericBuybackDelegate",
          "name": "",
          "type": "address"
        }
      ],
      "stateMutability": "view",
      "type": "function"
    },
    {
      "inputs": [
        {
          "internalType": "uint256",
          "name": "",
          "type": "uint256"
        }
      ],
      "name": "buybackDelegatePermissionIndexes",
      "outputs": [
        {
          "internalType": "uint256",
          "name": "",
          "type": "uint256"
        }
      ],
      "stateMutability": "view",
      "type": "function"
    },
    {
      "inputs": [],
      "name": "controller",
      "outputs": [
        {
          "internalType": "contract IJBController3_1",
          "name": "",
          "type": "address"
        }
      ],
      "stateMutability": "view",
      "type": "function"
    },
    {
      "inputs": [
        {
          "internalType": "uint256",
          "name": "_networkId",
          "type": "uint256"
        }
      ],
      "name": "currentDevTaxPeriodNumberOf",
      "outputs": [
        {
          "internalType": "uint256",
          "name": "",
          "type": "uint256"
        }
      ],
      "stateMutability": "view",
      "type": "function"
    },
    {
      "inputs": [
        {
          "internalType": "uint256",
          "name": "",
          "type": "uint256"
        },
        {
          "internalType": "uint256",
          "name": "",
          "type": "uint256"
        }
      ],
      "name": "delegateAllocationsOf",
      "outputs": [
        {
          "internalType": "contract IJBPayDelegate3_1_1",
          "name": "delegate",
          "type": "address"
        },
        {
          "internalType": "uint256",
          "name": "amount",
          "type": "uint256"
        },
        {
          "internalType": "bytes",
          "name": "metadata",
          "type": "bytes"
        }
      ],
      "stateMutability": "view",
      "type": "function"
    },
    {
      "inputs": [],
      "name": "delegateDeployer",
      "outputs": [
        {
          "internalType": "contract IJBTiered721DelegateDeployer",
          "name": "",
          "type": "address"
        }
      ],
      "stateMutability": "view",
      "type": "function"
    },
    {
      "inputs": [
        {
          "internalType": "address",
          "name": "_operator",
          "type": "address"
        },
        {
          "components": [
            {
              "internalType": "string",
              "name": "content",
              "type": "string"
            },
            {
              "internalType": "uint256",
              "name": "domain",
              "type": "uint256"
            }
          ],
          "internalType": "struct JBProjectMetadata",
          "name": "_networkMetadata",
          "type": "tuple"
        },
        {
          "internalType": "string",
          "name": "_name",
          "type": "string"
        },
        {
          "internalType": "string",
          "name": "_symbol",
          "type": "string"
        },
        {
          "components": [
            {
              "internalType": "uint256",
              "name": "initialIssuanceRate",
              "type": "uint256"
            },
            {
              "internalType": "uint256",
              "name": "premintTokenAmount",
              "type": "uint256"
            },
            {
              "internalType": "uint256",
              "name": "generationTax",
              "type": "uint256"
            },
            {
              "internalType": "uint256",
              "name": "generationDuration",
              "type": "uint256"
            },
            {
              "internalType": "uint256",
              "name": "exitTaxRate",
              "type": "uint256"
            },
            {
              "components": [
                {
                  "internalType": "uint128",
                  "name": "rate",
                  "type": "uint128"
                },
                {
                  "internalType": "uint128",
                  "name": "startsAtOrAfter",
                  "type": "uint128"
                }
              ],
              "internalType": "struct DevTaxPeriod[]",
              "name": "devTaxPeriods",
              "type": "tuple[]"
            }
          ],
          "internalType": "struct BasicRetailistJBParams",
          "name": "_data",
          "type": "tuple"
        },
        {
          "internalType": "contract IJBPaymentTerminal[]",
          "name": "_terminals",
          "type": "address[]"
        },
        {
          "components": [
            {
              "internalType": "contract IJBGenericBuybackDelegate",
              "name": "delegate",
              "type": "address"
            },
            {
              "components": [
                {
                  "internalType": "address",
                  "name": "token",
                  "type": "address"
                },
                {
                  "internalType": "uint24",
                  "name": "fee",
                  "type": "uint24"
                },
                {
                  "internalType": "uint32",
                  "name": "secondsAgo",
                  "type": "uint32"
                },
                {
                  "internalType": "uint32",
                  "name": "delta",
                  "type": "uint32"
                }
              ],
              "internalType": "struct BuybackDelegatePool[]",
              "name": "pools",
              "type": "tuple[]"
            }
          ],
          "internalType": "struct BuybackDelegateSetup",
          "name": "_buybackDelegateSetup",
          "type": "tuple"
        }
      ],
      "name": "deployBasicNetworkFor",
      "outputs": [
        {
          "internalType": "uint256",
          "name": "networkId",
          "type": "uint256"
        }
      ],
      "stateMutability": "nonpayable",
      "type": "function"
    },
    {
      "inputs": [
        {
          "internalType": "address",
          "name": "_operator",
          "type": "address"
        },
        {
          "components": [
            {
              "internalType": "string",
              "name": "content",
              "type": "string"
            },
            {
              "internalType": "uint256",
              "name": "domain",
              "type": "uint256"
            }
          ],
          "internalType": "struct JBProjectMetadata",
          "name": "_networkMetadata",
          "type": "tuple"
        },
        {
          "internalType": "string",
          "name": "_name",
          "type": "string"
        },
        {
          "internalType": "string",
          "name": "_symbol",
          "type": "string"
        },
        {
          "components": [
            {
              "internalType": "uint256",
              "name": "initialIssuanceRate",
              "type": "uint256"
            },
            {
              "internalType": "uint256",
              "name": "premintTokenAmount",
              "type": "uint256"
            },
            {
              "internalType": "uint256",
              "name": "generationTax",
              "type": "uint256"
            },
            {
              "internalType": "uint256",
              "name": "generationDuration",
              "type": "uint256"
            },
            {
              "internalType": "uint256",
              "name": "exitTaxRate",
              "type": "uint256"
            },
            {
              "components": [
                {
                  "internalType": "uint128",
                  "name": "rate",
                  "type": "uint128"
                },
                {
                  "internalType": "uint128",
                  "name": "startsAtOrAfter",
                  "type": "uint128"
                }
              ],
              "internalType": "struct DevTaxPeriod[]",
              "name": "devTaxPeriods",
              "type": "tuple[]"
            }
          ],
          "internalType": "struct BasicRetailistJBParams",
          "name": "_data",
          "type": "tuple"
        },
        {
          "internalType": "contract IJBPaymentTerminal[]",
          "name": "_terminals",
          "type": "address[]"
        },
        {
          "components": [
            {
              "internalType": "contract IJBGenericBuybackDelegate",
              "name": "delegate",
              "type": "address"
            },
            {
              "components": [
                {
                  "internalType": "address",
                  "name": "token",
                  "type": "address"
                },
                {
                  "internalType": "uint24",
                  "name": "fee",
                  "type": "uint24"
                },
                {
                  "internalType": "uint32",
                  "name": "secondsAgo",
                  "type": "uint32"
                },
                {
                  "internalType": "uint32",
                  "name": "delta",
                  "type": "uint32"
                }
              ],
              "internalType": "struct BuybackDelegatePool[]",
              "name": "pools",
              "type": "tuple[]"
            }
          ],
          "internalType": "struct BuybackDelegateSetup",
          "name": "_buybackDelegateSetup",
          "type": "tuple"
        },
        {
          "components": [
            {
              "internalType": "contract IJBPayDelegate3_1_1",
              "name": "delegate",
              "type": "address"
            },
            {
              "internalType": "uint256",
              "name": "amount",
              "type": "uint256"
            },
            {
              "internalType": "bytes",
              "name": "metadata",
              "type": "bytes"
            }
          ],
          "internalType": "struct JBPayDelegateAllocation3_1_1[]",
          "name": "_delegateAllocations",
          "type": "tuple[]"
        },
        {
          "internalType": "uint8",
          "name": "_extraFundingCycleMetadata",
          "type": "uint8"
        }
      ],
      "name": "deployPayAllocatorNetworkFor",
      "outputs": [
        {
          "internalType": "uint256",
          "name": "networkId",
          "type": "uint256"
        }
      ],
      "stateMutability": "nonpayable",
      "type": "function"
    },
    {
      "inputs": [
        {
          "internalType": "address",
          "name": "_operator",
          "type": "address"
        },
        {
          "components": [
            {
              "internalType": "string",
              "name": "content",
              "type": "string"
            },
            {
              "internalType": "uint256",
              "name": "domain",
              "type": "uint256"
            }
          ],
          "internalType": "struct JBProjectMetadata",
          "name": "_networkMetadata",
          "type": "tuple"
        },
        {
          "internalType": "string",
          "name": "_name",
          "type": "string"
        },
        {
          "internalType": "string",
          "name": "_symbol",
          "type": "string"
        },
        {
          "components": [
            {
              "internalType": "uint256",
              "name": "initialIssuanceRate",
              "type": "uint256"
            },
            {
              "internalType": "uint256",
              "name": "premintTokenAmount",
              "type": "uint256"
            },
            {
              "internalType": "uint256",
              "name": "generationTax",
              "type": "uint256"
            },
            {
              "internalType": "uint256",
              "name": "generationDuration",
              "type": "uint256"
            },
            {
              "internalType": "uint256",
              "name": "exitTaxRate",
              "type": "uint256"
            },
            {
              "components": [
                {
                  "internalType": "uint128",
                  "name": "rate",
                  "type": "uint128"
                },
                {
                  "internalType": "uint128",
                  "name": "startsAtOrAfter",
                  "type": "uint128"
                }
              ],
              "internalType": "struct DevTaxPeriod[]",
              "name": "devTaxPeriods",
              "type": "tuple[]"
            }
          ],
          "internalType": "struct BasicRetailistJBParams",
          "name": "_data",
          "type": "tuple"
        },
        {
          "internalType": "contract IJBPaymentTerminal[]",
          "name": "_terminals",
          "type": "address[]"
        },
        {
          "components": [
            {
              "internalType": "contract IJBGenericBuybackDelegate",
              "name": "delegate",
              "type": "address"
            },
            {
              "components": [
                {
                  "internalType": "address",
                  "name": "token",
                  "type": "address"
                },
                {
                  "internalType": "uint24",
                  "name": "fee",
                  "type": "uint24"
                },
                {
                  "internalType": "uint32",
                  "name": "secondsAgo",
                  "type": "uint32"
                },
                {
                  "internalType": "uint32",
                  "name": "delta",
                  "type": "uint32"
                }
              ],
              "internalType": "struct BuybackDelegatePool[]",
              "name": "pools",
              "type": "tuple[]"
            }
          ],
          "internalType": "struct BuybackDelegateSetup",
          "name": "_buybackDelegateSetup",
          "type": "tuple"
        },
        {
          "components": [
            {
              "internalType": "string",
              "name": "name",
              "type": "string"
            },
            {
              "internalType": "string",
              "name": "symbol",
              "type": "string"
            },
            {
              "internalType": "contract IJBFundingCycleStore",
              "name": "fundingCycleStore",
              "type": "address"
            },
            {
              "internalType": "string",
              "name": "baseUri",
              "type": "string"
            },
            {
              "internalType": "contract IJB721TokenUriResolver",
              "name": "tokenUriResolver",
              "type": "address"
            },
            {
              "internalType": "string",
              "name": "contractUri",
              "type": "string"
            },
            {
              "components": [
                {
                  "components": [
                    {
                      "internalType": "uint104",
                      "name": "price",
                      "type": "uint104"
                    },
                    {
                      "internalType": "uint32",
                      "name": "initialQuantity",
                      "type": "uint32"
                    },
                    {
                      "internalType": "uint32",
                      "name": "votingUnits",
                      "type": "uint32"
                    },
                    {
                      "internalType": "uint16",
                      "name": "reservedRate",
                      "type": "uint16"
                    },
                    {
                      "internalType": "address",
                      "name": "reservedTokenBeneficiary",
                      "type": "address"
                    },
                    {
                      "internalType": "bytes32",
                      "name": "encodedIPFSUri",
                      "type": "bytes32"
                    },
                    {
                      "internalType": "uint24",
                      "name": "category",
                      "type": "uint24"
                    },
                    {
                      "internalType": "bool",
                      "name": "allowManualMint",
                      "type": "bool"
                    },
                    {
                      "internalType": "bool",
                      "name": "shouldUseReservedTokenBeneficiaryAsDefault",
                      "type": "bool"
                    },
                    {
                      "internalType": "bool",
                      "name": "transfersPausable",
                      "type": "bool"
                    },
                    {
                      "internalType": "bool",
                      "name": "useVotingUnits",
                      "type": "bool"
                    }
                  ],
                  "internalType": "struct JB721TierParams[]",
                  "name": "tiers",
                  "type": "tuple[]"
                },
                {
                  "internalType": "uint48",
                  "name": "currency",
                  "type": "uint48"
                },
                {
                  "internalType": "uint48",
                  "name": "decimals",
                  "type": "uint48"
                },
                {
                  "internalType": "contract IJBPrices",
                  "name": "prices",
                  "type": "address"
                }
              ],
              "internalType": "struct JB721PricingParams",
              "name": "pricing",
              "type": "tuple"
            },
            {
              "internalType": "address",
              "name": "reservedTokenBeneficiary",
              "type": "address"
            },
            {
              "internalType": "contract IJBTiered721DelegateStore",
              "name": "store",
              "type": "address"
            },
            {
              "components": [
                {
                  "internalType": "bool",
                  "name": "lockReservedTokenChanges",
                  "type": "bool"
                },
                {
                  "internalType": "bool",
                  "name": "lockVotingUnitChanges",
                  "type": "bool"
                },
                {
                  "internalType": "bool",
                  "name": "lockManualMintingChanges",
                  "type": "bool"
                },
                {
                  "internalType": "bool",
                  "name": "preventOverspending",
                  "type": "bool"
                }
              ],
              "internalType": "struct JBTiered721Flags",
              "name": "flags",
              "type": "tuple"
            },
            {
              "internalType": "enum JB721GovernanceType",
              "name": "governanceType",
              "type": "uint8"
            }
          ],
          "internalType": "struct JBDeployTiered721DelegateData",
          "name": "_deployTiered721DelegateData",
          "type": "tuple"
        },
        {
          "components": [
            {
              "internalType": "contract IJBPayDelegate3_1_1",
              "name": "delegate",
              "type": "address"
            },
            {
              "internalType": "uint256",
              "name": "amount",
              "type": "uint256"
            },
            {
              "internalType": "bytes",
              "name": "metadata",
              "type": "bytes"
            }
          ],
          "internalType": "struct JBPayDelegateAllocation3_1_1[]",
          "name": "_otherDelegateAllocations",
          "type": "tuple[]"
        },
        {
          "internalType": "uint8",
          "name": "_extraFundingCycleMetadata",
          "type": "uint8"
        }
      ],
      "name": "deployTiered721PayAllocatorNetworkFor",
      "outputs": [
        {
          "internalType": "uint256",
          "name": "networkId",
          "type": "uint256"
        }
      ],
      "stateMutability": "nonpayable",
      "type": "function"
    },
    {
      "inputs": [
        {
          "internalType": "uint256",
          "name": "_networkId",
          "type": "uint256"
        }
      ],
      "name": "devTaxPeriodsOf",
      "outputs": [
        {
          "components": [
            {
              "internalType": "uint128",
              "name": "rate",
              "type": "uint128"
            },
            {
              "internalType": "uint128",
              "name": "startsAtOrAfter",
              "type": "uint128"
            }
          ],
          "internalType": "struct DevTaxPeriod[]",
          "name": "",
          "type": "tuple[]"
        }
      ],
      "stateMutability": "view",
      "type": "function"
    },
    {
      "inputs": [],
      "name": "directory",
      "outputs": [
        {
          "internalType": "contract IJBDirectory",
          "name": "",
          "type": "address"
        }
      ],
      "stateMutability": "view",
      "type": "function"
    },
    {
      "inputs": [
        {
          "internalType": "address",
          "name": "_operator",
          "type": "address"
        },
        {
          "internalType": "address",
          "name": "_from",
          "type": "address"
        },
        {
          "internalType": "uint256",
          "name": "_tokenId",
          "type": "uint256"
        },
        {
          "internalType": "bytes",
          "name": "_data",
          "type": "bytes"
        }
      ],
      "name": "onERC721Received",
      "outputs": [
        {
          "internalType": "bytes4",
          "name": "",
          "type": "bytes4"
        }
      ],
      "stateMutability": "view",
      "type": "function"
    },
    {
      "inputs": [
        {
          "internalType": "uint256",
          "name": "",
          "type": "uint256"
        }
      ],
      "name": "operatorPermissionIndexes",
      "outputs": [
        {
          "internalType": "uint256",
          "name": "",
          "type": "uint256"
        }
      ],
      "stateMutability": "view",
      "type": "function"
    },
    {
      "inputs": [
        {
          "components": [
            {
              "internalType": "contract IJBPaymentTerminal",
              "name": "terminal",
              "type": "address"
            },
            {
              "internalType": "address",
              "name": "payer",
              "type": "address"
            },
            {
              "components": [
                {
                  "internalType": "address",
                  "name": "token",
                  "type": "address"
                },
                {
                  "internalType": "uint256",
                  "name": "value",
                  "type": "uint256"
                },
                {
                  "internalType": "uint256",
                  "name": "decimals",
                  "type": "uint256"
                },
                {
                  "internalType": "uint256",
                  "name": "currency",
                  "type": "uint256"
                }
              ],
              "internalType": "struct JBTokenAmount",
              "name": "amount",
              "type": "tuple"
            },
            {
              "internalType": "uint256",
              "name": "projectId",
              "type": "uint256"
            },
            {
              "internalType": "uint256",
              "name": "currentFundingCycleConfiguration",
              "type": "uint256"
            },
            {
              "internalType": "address",
              "name": "beneficiary",
              "type": "address"
            },
            {
              "internalType": "uint256",
              "name": "weight",
              "type": "uint256"
            },
            {
              "internalType": "uint256",
              "name": "reservedRate",
              "type": "uint256"
            },
            {
              "internalType": "string",
              "name": "memo",
              "type": "string"
            },
            {
              "internalType": "bytes",
              "name": "metadata",
              "type": "bytes"
            }
          ],
          "internalType": "struct JBPayParamsData",
          "name": "_data",
          "type": "tuple"
        }
      ],
      "name": "payParams",
      "outputs": [
        {
          "internalType": "uint256",
          "name": "weight",
          "type": "uint256"
        },
        {
          "internalType": "string",
          "name": "memo",
          "type": "string"
        },
        {
          "components": [
            {
              "internalType": "contract IJBPayDelegate3_1_1",
              "name": "delegate",
              "type": "address"
            },
            {
              "internalType": "uint256",
              "name": "amount",
              "type": "uint256"
            },
            {
              "internalType": "bytes",
              "name": "metadata",
              "type": "bytes"
            }
          ],
          "internalType": "struct JBPayDelegateAllocation3_1_1[]",
          "name": "delegateAllocations",
          "type": "tuple[]"
        }
      ],
      "stateMutability": "view",
      "type": "function"
    },
    {
      "inputs": [
        {
          "components": [
            {
              "internalType": "contract IJBPaymentTerminal",
              "name": "terminal",
              "type": "address"
            },
            {
              "internalType": "address",
              "name": "holder",
              "type": "address"
            },
            {
              "internalType": "uint256",
              "name": "projectId",
              "type": "uint256"
            },
            {
              "internalType": "uint256",
              "name": "currentFundingCycleConfiguration",
              "type": "uint256"
            },
            {
              "internalType": "uint256",
              "name": "tokenCount",
              "type": "uint256"
            },
            {
              "internalType": "uint256",
              "name": "totalSupply",
              "type": "uint256"
            },
            {
              "internalType": "uint256",
              "name": "overflow",
              "type": "uint256"
            },
            {
              "components": [
                {
                  "internalType": "address",
                  "name": "token",
                  "type": "address"
                },
                {
                  "internalType": "uint256",
                  "name": "value",
                  "type": "uint256"
                },
                {
                  "internalType": "uint256",
                  "name": "decimals",
                  "type": "uint256"
                },
                {
                  "internalType": "uint256",
                  "name": "currency",
                  "type": "uint256"
                }
              ],
              "internalType": "struct JBTokenAmount",
              "name": "reclaimAmount",
              "type": "tuple"
            },
            {
              "internalType": "bool",
              "name": "useTotalOverflow",
              "type": "bool"
            },
            {
              "internalType": "uint256",
              "name": "redemptionRate",
              "type": "uint256"
            },
            {
              "internalType": "string",
              "name": "memo",
              "type": "string"
            },
            {
              "internalType": "bytes",
              "name": "metadata",
              "type": "bytes"
            }
          ],
          "internalType": "struct JBRedeemParamsData",
          "name": "_data",
          "type": "tuple"
        }
      ],
      "name": "redeemParams",
      "outputs": [
        {
          "internalType": "uint256",
          "name": "",
          "type": "uint256"
        },
        {
          "internalType": "string",
          "name": "",
          "type": "string"
        },
        {
          "components": [
            {
              "internalType": "contract IJBRedemptionDelegate3_1_1",
              "name": "delegate",
              "type": "address"
            },
            {
              "internalType": "uint256",
              "name": "amount",
              "type": "uint256"
            },
            {
              "internalType": "bytes",
              "name": "metadata",
              "type": "bytes"
            }
          ],
          "internalType": "struct JBRedemptionDelegateAllocation3_1_1[]",
          "name": "",
          "type": "tuple[]"
        }
      ],
      "stateMutability": "view",
      "type": "function"
    },
    {
      "inputs": [
        {
          "internalType": "uint256",
          "name": "_networkId",
          "type": "uint256"
        }
      ],
      "name": "scheduleNextDevTaxPeriodOf",
      "outputs": [],
      "stateMutability": "nonpayable",
      "type": "function"
    },
    {
      "inputs": [
        {
          "internalType": "bytes4",
          "name": "_interfaceId",
          "type": "bytes4"
        }
      ],
      "name": "supportsInterface",
      "outputs": [
        {
          "internalType": "bool",
          "name": "",
          "type": "bool"
        }
      ],
      "stateMutability": "view",
      "type": "function"
    }
  ],
  "bytecode": {
    "object": "0x60e06040523480156200001157600080fd5b506040516200560a3803806200560a8339810160408190526200003491620000da565b6001600160a01b0390811660805260018054808201825560127fb10e2d527612073b26eecdfd717e6a320cf44b4afac2b0732d9fcbe2b7fa0cf69182015581548083018355601891015560058054918201815560005260097f036b6384b5eca791c62761152d0c79bb0604c104a5fb6f4eb0703f3154bb3db09091015591821660a0521660c0526200012e565b6001600160a01b0381168114620000d757600080fd5b50565b600080600060608486031215620000f057600080fd5b8351620000fd81620000c1565b60208501519093506200011081620000c1565b60408501519092506200012381620000c1565b809150509250925092565b60805160a05160c05161542e620001dc600039600081816102200152611f340152600081816102e30152611d2901526000818161036201528181610466015281816106c3015281816108060152818161091401528181610a2d01528181610d2f01528181610df101528181610fd80152818161117601528181611390015281816114b0015281816115be015281816116d70152818161199301528181611a6a015261253b015261542e6000f3fe608060405234801561001057600080fd5b506004361061011b5760003560e01c80638f3d964b116100b2578063abc603e311610081578063d46cf17111610066578063d46cf17114610305578063ef8eadd514610327578063f77c47911461035d57600080fd5b8063abc603e3146102bc578063c41c2f24146102de57600080fd5b80638f3d964b1461021b5780639e8c513a146102675780639f665eee1461027a578063a51cfd181461029a57600080fd5b8063256b8370116100ee578063256b8370146101c2578063263950ae146101d55780634d757720146101f5578063838340941461020857600080fd5b806301ffc9a7146101205780630310850e1461014857806310c5f4461461015d578063150b7a021461017e575b600080fd5b61013361012e366004612ba1565b610384565b60405190151581526020015b60405180910390f35b61015b610156366004612bea565b61041d565b005b61017061016b3660046132cc565b6107f6565b60405190815260200161013f565b61019161018c366004613409565b61138c565b6040517fffffffff00000000000000000000000000000000000000000000000000000000909116815260200161013f565b6101706101d03660046134a8565b6114a0565b6101e86101e3366004612bea565b611c6e565b60405161013f91906135af565b610170610203366004612bea565b611d04565b6101706102163660046139bd565b611d25565b6102427f000000000000000000000000000000000000000000000000000000000000000081565b60405173ffffffffffffffffffffffffffffffffffffffff909116815260200161013f565b610170610275366004612bea565b612031565b610170610288366004612bea565b60026020526000908152604090205481565b6102ad6102a8366004613b20565b612041565b60405161013f93929190613bca565b6102cf6102ca366004613c93565b6120a9565b60405161013f93929190613cb5565b6102427f000000000000000000000000000000000000000000000000000000000000000081565b610318610313366004613cf3565b61218c565b60405161013f93929190613d2f565b610242610335366004612bea565b60036020526000908152604090205473ffffffffffffffffffffffffffffffffffffffff1681565b6102427f000000000000000000000000000000000000000000000000000000000000000081565b60007fffffffff0000000000000000000000000000000000000000000000000000000082167f71700c6900000000000000000000000000000000000000000000000000000000148061041757507f150b7a02000000000000000000000000000000000000000000000000000000007fffffffff000000000000000000000000000000000000000000000000000000008316145b92915050565b6040517f1f51045300000000000000000000000000000000000000000000000000000000815260048101829052600090819073ffffffffffffffffffffffffffffffffffffffff7f00000000000000000000000000000000000000000000000000000000000000001690631f510453906024016103c060405180830381865afa1580156104ae573d6000803e3d6000fd5b505050506040513d601f19601f820116820180604052508101906104d29190613fad565b50600085815260026020526040812080549395509193509182906104f590614093565b918290555060008581526020819052604090205490915080158061051857508082145b80610527575042846060015110155b1561055e576040517fc97554fa00000000000000000000000000000000000000000000000000000000815260040160405180910390fd5b600085815260208190526040812080548490811061057e5761057e6140cb565b6000918252602080832060408051808201825293909101546fffffffffffffffffffffffffffffffff808216855270010000000000000000000000000000000090910481168484019081528251608080820185528c810151825281860188905260c0808e01518387015260608084018a905286516102a08101885261024081018b815261026082018c905261028082018c905281528951909616868901528d87015196860196909652948401889052830187905260a0830187905292820186905260e08201869052610100820186905261012082018690526101408201869052610160820186905261018082018690526101a082018690526101c082018690526101e0820195909552610200808a015173ffffffffffffffffffffffffffffffffffffffff908116918301919091526102208a810151908301529451928a01519395507f00000000000000000000000000000000000000000000000000000000000000009094169363badbdf28938b93906106fa9085906124f6565b6040805160008082526020820190925290610788565b6107756040518060c00160405280600073ffffffffffffffffffffffffffffffffffffffff168152602001600073ffffffffffffffffffffffffffffffffffffffff168152602001600081526020016000815260200160008152602001600081525090565b8152602001906001900390816107105790505b506040518763ffffffff1660e01b81526004016107aa969594939291906143e1565b6020604051808303816000875af11580156107c9573d6000803e3d6000fd5b505050506040513d601f19601f820116820180604052508101906107ed91906144e7565b50505050505050565b6000806108028b6126c6565b90507f000000000000000000000000000000000000000000000000000000000000000073ffffffffffffffffffffffffffffffffffffffff16638b79543c6040518163ffffffff1660e01b8152600401602060405180830381865afa15801561086f573d6000803e3d6000fd5b505050506040513d601f19601f820116820180604052508101906108939190614500565b73ffffffffffffffffffffffffffffffffffffffff1663666d87a0308c6040518363ffffffff1660e01b81526004016108cd92919061451d565b6020604051808303816000875af11580156108ec573d6000803e3d6000fd5b505050506040513d601f19601f8201168201806040525081019061091091906144e7565b91507f000000000000000000000000000000000000000000000000000000000000000073ffffffffffffffffffffffffffffffffffffffff1663619306306040518163ffffffff1660e01b8152600401602060405180830381865afa15801561097d573d6000803e3d6000fd5b505050506040513d601f19601f820116820180604052508101906109a19190614500565b73ffffffffffffffffffffffffffffffffffffffff1663a7f2a70b838b8b6040518463ffffffff1660e01b81526004016109dd9392919061456b565b6020604051808303816000875af11580156109fc573d6000803e3d6000fd5b505050506040513d601f19601f82011682018060405250810190610a209190614500565b50610a2b828661284c565b7f000000000000000000000000000000000000000000000000000000000000000073ffffffffffffffffffffffffffffffffffffffff1663111d861b8360405180608001604052808b60600151815260200160128c60000151610a8e91906146c0565b81526040808d0151602080840191909152600092820183905281516102a081019092526102408201838152610260830184905261028083019390935291815260a08d015151909182019015610b05578c60a00151600081518110610af457610af46140cb565b602002602001015160000151610b08565b60005b6fffffffffffffffffffffffffffffffff1681526020018c60800151612710610b3191906146cf565b815260006020820181905260408201819052606082018190526080820181905260a0808301829052600160c0840181905260e0840183905261010084018390526101208401839052610140840183905261016084018390526101808401526101a0830191909152306101c083015260ff8a166101e0909201919091528c01515115610bde578b60a00151600081518110610bcd57610bcd6140cb565b602002602001015160200151610be1565b60005b604080516000808252602082019092528891610c70565b610c5d6040518060c00160405280600073ffffffffffffffffffffffffffffffffffffffff168152602001600073ffffffffffffffffffffffffffffffffffffffff168152602001600081526020016000815260200160008152602001600081525090565b815260200190600190039081610bf85790505b508d6040518863ffffffff1660e01b8152600401610c9497969594939291906146e2565b6020604051808303816000875af1158015610cb3573d6000803e3d6000fd5b505050506040513d601f19601f82011682018060405250810190610cd791906144e7565b508451600083815260036020908152604090912080547fffffffffffffffffffffffff00000000000000000000000000000000000000001673ffffffffffffffffffffffffffffffffffffffff9384161790558801517f000000000000000000000000000000000000000000000000000000000000000090911690638ae9c07b908490610d66906012906146c0565b8e8c604051602001610d789190614812565b6040516020818303038152906040526000806040518763ffffffff1660e01b8152600401610dab96959493929190614857565b6020604051808303816000875af1158015610dca573d6000803e3d6000fd5b505050506040513d601f19601f82011682018060405250810190610dee91906144e7565b507f000000000000000000000000000000000000000000000000000000000000000073ffffffffffffffffffffffffffffffffffffffff16632bdfe0046040518163ffffffff1660e01b8152600401602060405180830381865afa158015610e5a573d6000803e3d6000fd5b505050506040513d601f19601f82011682018060405250810190610e7e9190614500565b73ffffffffffffffffffffffffffffffffffffffff1663ad007d636040518163ffffffff1660e01b8152600401602060405180830381865afa158015610ec8573d6000803e3d6000fd5b505050506040513d601f19601f82011682018060405250810190610eec9190614500565b73ffffffffffffffffffffffffffffffffffffffff1663529cdd2e60405180606001604052808e73ffffffffffffffffffffffffffffffffffffffff1681526020018581526020016001805480602002602001604051908101604052809291908181526020018280548015610f8057602002820191906000526020600020905b815481526020019060010190808311610f6c575b50505050508152506040518263ffffffff1660e01b8152600401610fa491906148ac565b600060405180830381600087803b158015610fbe57600080fd5b505af1158015610fd2573d6000803e3d6000fd5b505050507f000000000000000000000000000000000000000000000000000000000000000073ffffffffffffffffffffffffffffffffffffffff16632bdfe0046040518163ffffffff1660e01b8152600401602060405180830381865afa158015611041573d6000803e3d6000fd5b505050506040513d601f19601f820116820180604052508101906110659190614500565b73ffffffffffffffffffffffffffffffffffffffff1663ad007d636040518163ffffffff1660e01b8152600401602060405180830381865afa1580156110af573d6000803e3d6000fd5b505050506040513d601f19601f820116820180604052508101906110d39190614500565b85516040517f0f5932f000000000000000000000000000000000000000000000000000000000815273ffffffffffffffffffffffffffffffffffffffff9290921691630f5932f09161112f91309060009060059060040161491d565b602060405180830381865afa15801561114c573d6000803e3d6000fd5b505050506040513d601f19601f820116820180604052508101906111709190614999565b611361577f000000000000000000000000000000000000000000000000000000000000000073ffffffffffffffffffffffffffffffffffffffff16632bdfe0046040518163ffffffff1660e01b8152600401602060405180830381865afa1580156111df573d6000803e3d6000fd5b505050506040513d601f19601f820116820180604052508101906112039190614500565b73ffffffffffffffffffffffffffffffffffffffff1663ad007d636040518163ffffffff1660e01b8152600401602060405180830381865afa15801561124d573d6000803e3d6000fd5b505050506040513d601f19601f820116820180604052508101906112719190614500565b73ffffffffffffffffffffffffffffffffffffffff1663529cdd2e6040518060600160405280886000015173ffffffffffffffffffffffffffffffffffffffff16815260200160008152602001600580548060200260200160405190810160405280929190818152602001828054801561130a57602002820191906000526020600020905b8154815260200190600101908083116112f6575b50505050508152506040518263ffffffff1660e01b815260040161132e91906148ac565b600060405180830381600087803b15801561134857600080fd5b505af115801561135c573d6000803e3d6000fd5b505050505b611374828860a00151896060015161297f565b61137e8285612ad8565b509998505050505050505050565b60007f000000000000000000000000000000000000000000000000000000000000000073ffffffffffffffffffffffffffffffffffffffff16638b79543c6040518163ffffffff1660e01b8152600401602060405180830381865afa1580156113f9573d6000803e3d6000fd5b505050506040513d601f19601f8201168201806040525081019061141d9190614500565b73ffffffffffffffffffffffffffffffffffffffff163373ffffffffffffffffffffffffffffffffffffffff161461145457600080fd5b73ffffffffffffffffffffffffffffffffffffffff85161561147557600080fd5b507f150b7a020000000000000000000000000000000000000000000000000000000095945050505050565b6000806114ac896126c6565b90507f000000000000000000000000000000000000000000000000000000000000000073ffffffffffffffffffffffffffffffffffffffff16638b79543c6040518163ffffffff1660e01b8152600401602060405180830381865afa158015611519573d6000803e3d6000fd5b505050506040513d601f19601f8201168201806040525081019061153d9190614500565b73ffffffffffffffffffffffffffffffffffffffff1663666d87a0308a6040518363ffffffff1660e01b815260040161157792919061451d565b6020604051808303816000875af1158015611596573d6000803e3d6000fd5b505050506040513d601f19601f820116820180604052508101906115ba91906144e7565b91507f000000000000000000000000000000000000000000000000000000000000000073ffffffffffffffffffffffffffffffffffffffff1663619306306040518163ffffffff1660e01b8152600401602060405180830381865afa158015611627573d6000803e3d6000fd5b505050506040513d601f19601f8201168201806040525081019061164b9190614500565b73ffffffffffffffffffffffffffffffffffffffff1663a7f2a70b8389896040518463ffffffff1660e01b81526004016116879392919061456b565b6020604051808303816000875af11580156116a6573d6000803e3d6000fd5b505050506040513d601f19601f820116820180604052508101906116ca9190614500565b506116d5828461284c565b7f000000000000000000000000000000000000000000000000000000000000000073ffffffffffffffffffffffffffffffffffffffff1663111d861b8360405180608001604052808960600151815260200160128a6000015161173891906146c0565b81526040808b0151602080840191909152600092820183905281516102a081019092526102408201838152610260830184905261028083019390935291815260a08b0151519091820190156117af578a60a0015160008151811061179e5761179e6140cb565b6020026020010151600001516117b2565b60005b6fffffffffffffffffffffffffffffffff1681526020018a608001516127106117db91906146cf565b815260006020820181905260408201819052606082018190526080820181905260a0808301829052600160c0840181905260e0840183905261010084018390526101208401839052610140840183905261016084018390526101808401526101a083018290528a5173ffffffffffffffffffffffffffffffffffffffff166101c08401526101e0909201528a01515115611897578960a00151600081518110611886576118866140cb565b60200260200101516020015161189a565b60005b604080516000808252602082019092528891611929565b6119166040518060c00160405280600073ffffffffffffffffffffffffffffffffffffffff168152602001600073ffffffffffffffffffffffffffffffffffffffff168152602001600081526020016000815260200160008152602001600081525090565b8152602001906001900390816118b15790505b508b6040518863ffffffff1660e01b815260040161194d97969594939291906146e2565b6020604051808303816000875af115801561196c573d6000803e3d6000fd5b505050506040513d601f19601f8201168201806040525081019061199091906144e7565b507f000000000000000000000000000000000000000000000000000000000000000073ffffffffffffffffffffffffffffffffffffffff16638ae9c07b83601288602001516119df91906146c0565b8c8a6040516020016119f19190614812565b6040516020818303038152906040526000806040518763ffffffff1660e01b8152600401611a2496959493929190614857565b6020604051808303816000875af1158015611a43573d6000803e3d6000fd5b505050506040513d601f19601f82011682018060405250810190611a6791906144e7565b507f000000000000000000000000000000000000000000000000000000000000000073ffffffffffffffffffffffffffffffffffffffff16632bdfe0046040518163ffffffff1660e01b8152600401602060405180830381865afa158015611ad3573d6000803e3d6000fd5b505050506040513d601f19601f82011682018060405250810190611af79190614500565b73ffffffffffffffffffffffffffffffffffffffff1663ad007d636040518163ffffffff1660e01b8152600401602060405180830381865afa158015611b41573d6000803e3d6000fd5b505050506040513d601f19601f82011682018060405250810190611b659190614500565b73ffffffffffffffffffffffffffffffffffffffff1663529cdd2e60405180606001604052808c73ffffffffffffffffffffffffffffffffffffffff1681526020018581526020016001805480602002602001604051908101604052809291908181526020018280548015611bf957602002820191906000526020600020905b815481526020019060010190808311611be5575b50505050508152506040518263ffffffff1660e01b8152600401611c1d91906148ac565b600060405180830381600087803b158015611c3757600080fd5b505af1158015611c4b573d6000803e3d6000fd5b50505050611c62828660a00151876060015161297f565b50979650505050505050565b600081815260208181526040808320805482518185028101850190935280835260609492939192909184015b82821015611cf957600084815260209081902060408051808201909152908401546fffffffffffffffffffffffffffffffff80821683527001000000000000000000000000000000009091041681830152825260019092019101611c9a565b505050509050919050565b60018181548110611d1457600080fd5b600091825260209091200154905081565b60007f000000000000000000000000000000000000000000000000000000000000000073ffffffffffffffffffffffffffffffffffffffff16638b79543c6040518163ffffffff1660e01b8152600401602060405180830381865afa158015611d92573d6000803e3d6000fd5b505050506040513d601f19601f82011682018060405250810190611db69190614500565b73ffffffffffffffffffffffffffffffffffffffff166306661abd6040518163ffffffff1660e01b8152600401602060405180830381865afa158015611e00573d6000803e3d6000fd5b505050506040513d601f19601f82011682018060405250810190611e2491906144e7565b611e2f9060016149b6565b83519091506000611e418260016149b6565b67ffffffffffffffff811115611e5957611e59612c38565b604051908082528060200260200182016040528015611ea657816020015b60408051606080820183526000808352602083015291810191909152815260200190600190039081611e775790505b50905060005b82811015611ef357858181518110611ec657611ec66140cb565b6020026020010151828281518110611ee057611ee06140cb565b6020908102919091010152600101611eac565b506040517f70d7f24900000000000000000000000000000000000000000000000000000000815260009073ffffffffffffffffffffffffffffffffffffffff7f000000000000000000000000000000000000000000000000000000000000000016906370d7f24990611f6b9087908b90600401614b43565b6020604051808303816000875af1158015611f8a573d6000803e3d6000fd5b505050506040513d601f19601f82011682018060405250810190611fae9190614500565b905060405180606001604052808273ffffffffffffffffffffffffffffffffffffffff1681526020016000815260200160405180602001604052806000815250815250828481518110612003576120036140cb565b602002602001018190525061201f8e8e8e8e8e8e8e898d6107f6565b505050509a9950505050505050505050565b60058181548110611d1457600080fd5b60408051600080825260208201909252606090819083908161208d565b6040805160608082018352600080835260208301529181019190915281526020019060019003908161205e5790505b5060408051602081019091526000815291969195509350915050565b600460205281600052604060002081815481106120c557600080fd5b600091825260209091206003909102018054600182015460028301805473ffffffffffffffffffffffffffffffffffffffff90931695509093509061210990614cf6565b80601f016020809104026020016040519081016040528092919081815260200182805461213590614cf6565b80156121825780601f1061215757610100808354040283529160200191612182565b820191906000526020600020905b81548152906001019060200180831161216557829003601f168201915b5050505050905083565b60c08101356000908152600360205260408082205490517fd46cf1710000000000000000000000000000000000000000000000000000000081526060918291829173ffffffffffffffffffffffffffffffffffffffff169063d46cf171906121f8908890600401614e3f565b600060405180830381865afa158015612215573d6000803e3d6000fd5b505050506040513d6000823e601f3d9081017fffffffffffffffffffffffffffffffffffffffffffffffffffffffffffffffe016820160405261225b9190810190614fb3565b805160c089013560009081526004602090815260408083208054825181850281018501909352808352979b5094975092151595919450919291849084015b8282101561238a5760008481526020908190206040805160608101825260038602909201805473ffffffffffffffffffffffffffffffffffffffff168352600181015493830193909352600283018054929392918401916122f990614cf6565b80601f016020809104026020016040519081016040528092919081815260200182805461232590614cf6565b80156123725780601f1061234757610100808354040283529160200191612372565b820191906000526020600020905b81548152906001019060200180831161235557829003601f168201915b50505050508152505081526020019060010190612299565b505050509050600081519050826123a25760006123a5565b60015b6123b29060ff16826149b6565b67ffffffffffffffff8111156123ca576123ca612c38565b60405190808252806020026020018201604052801561241757816020015b604080516060808201835260008083526020830152918101919091528152602001906001900390816123e85790505b50945060005b8181101561246457828181518110612437576124376140cb565b6020026020010151868281518110612451576124516140cb565b602090810291909101015260010161241d565b5082156124a4578360008151811061247e5761247e6140cb565b6020026020010151858281518110612498576124986140cb565b60200260200101819052505b6124b261016089018961512c565b8080601f016020809104026020016040519081016040528093929190818152602001838380828437600092019190915250999b929a50969850909650505050505050565b604080516001808252818301909252606091816020015b60408051808201909152600081526060602082015281526020019060019003908161250d57905050905060007f000000000000000000000000000000000000000000000000000000000000000073ffffffffffffffffffffffffffffffffffffffff16632bdfe0046040518163ffffffff1660e01b8152600401602060405180830381865afa1580156125a4573d6000803e3d6000fd5b505050506040513d601f19601f820116820180604052508101906125c89190614500565b6040517f69e11cc500000000000000000000000000000000000000000000000000000000815260048101869052602481018590526002604482015273ffffffffffffffffffffffffffffffffffffffff91909116906369e11cc590606401600060405180830381865afa158015612643573d6000803e3d6000fd5b505050506040513d6000823e601f3d9081017fffffffffffffffffffffffffffffffffffffffffffffffffffffffffffffffe01682016040526126899190810190615191565b905060405180604001604052806002815260200182815250826000815181106126b4576126b46140cb565b60200260200101819052505092915050565b604080516001808252818301909252606091816020015b6040805180820190915260008152606060208201528152602001906001900390816126dd57505060408051600180825281830190925291925060009190602082015b6040805160e08101825260008082526020808301829052928201819052606082018190526080820181905260a0820181905260c082015282527fffffffffffffffffffffffffffffffffffffffffffffffffffffffffffffffff90920191018161271f5790505090506040518060e00160405280600015158152602001600015158152602001633b9aca008152602001600081526020018473ffffffffffffffffffffffffffffffffffffffff16815260200160008152602001600073ffffffffffffffffffffffffffffffffffffffff1681525081600181518110612807576128076140cb565b6020026020010181905250604051806040016040528060028152602001828152508260008151811061283b5761283b6140cb565b602002602001018190525050919050565b602081810151516040805160808101825260008082529381018490529081018390526060810183905290915b828110156129785783602001518181518110612896576128966140cb565b6020908102919091018101518551918101516040808301516060840151845192517f7b621d3a000000000000000000000000000000000000000000000000000000008152600481018c905262ffffff909416602485015263ffffffff918216604485015216606483015273ffffffffffffffffffffffffffffffffffffffff9081166084830152919450911690637b621d3a9060a4016020604051808303816000875af115801561294b573d6000803e3d6000fd5b505050506040513d601f19601f8201168201806040525081019061296f9190614500565b50600101612878565b5050505050565b81518015612ad25760005b81811015612978578015801590612a14575082846129a96001846146cf565b815181106129b9576129b96140cb565b6020026020010151602001516fffffffffffffffffffffffffffffffff166129e191906149b6565b8482815181106129f3576129f36140cb565b6020026020010151602001516fffffffffffffffffffffffffffffffff1611155b15612a4b576040517fc5c2978500000000000000000000000000000000000000000000000000000000815260040160405180910390fd5b838181518110612a5d57612a5d6140cb565b60200260200101516000808781526020019081526020016000208281548110612a8857612a886140cb565b6000918252602091829020835193909201516fffffffffffffffffffffffffffffffff9081167001000000000000000000000000000000000293169290921791015560010161298a565b50505050565b805160005b81811015612ad257828181518110612af757612af76140cb565b6020026020010151600460008681526020019081526020016000208281548110612b2357612b236140cb565b600091825260209182902083516003929092020180547fffffffffffffffffffffffff00000000000000000000000000000000000000001673ffffffffffffffffffffffffffffffffffffffff90921691909117815590820151600182015560408201516002820190612b9690826152de565b505050600101612add565b600060208284031215612bb357600080fd5b81357fffffffff0000000000000000000000000000000000000000000000000000000081168114612be357600080fd5b9392505050565b600060208284031215612bfc57600080fd5b5035919050565b73ffffffffffffffffffffffffffffffffffffffff81168114612c2557600080fd5b50565b8035612c3381612c03565b919050565b7f4e487b7100000000000000000000000000000000000000000000000000000000600052604160045260246000fd5b6040805190810167ffffffffffffffff81118282101715612c8a57612c8a612c38565b60405290565b60405160c0810167ffffffffffffffff81118282101715612c8a57612c8a612c38565b6040516080810167ffffffffffffffff81118282101715612c8a57612c8a612c38565b6040516060810167ffffffffffffffff81118282101715612c8a57612c8a612c38565b604051610160810167ffffffffffffffff81118282101715612c8a57612c8a612c38565b604051610240810167ffffffffffffffff81118282101715612c8a57612c8a612c38565b604051610120810167ffffffffffffffff81118282101715612c8a57612c8a612c38565b60405160e0810167ffffffffffffffff81118282101715612c8a57612c8a612c38565b604051601f82017fffffffffffffffffffffffffffffffffffffffffffffffffffffffffffffffe016810167ffffffffffffffff81118282101715612dcf57612dcf612c38565b604052919050565b600067ffffffffffffffff821115612df157612df1612c38565b50601f017fffffffffffffffffffffffffffffffffffffffffffffffffffffffffffffffe01660200190565b6000612e30612e2b84612dd7565b612d88565b9050828152838383011115612e4457600080fd5b828260208301376000602084830101529392505050565b600082601f830112612e6c57600080fd5b612be383833560208501612e1d565b600060408284031215612e8d57600080fd5b612e95612c67565b9050813567ffffffffffffffff811115612eae57600080fd5b612eba84828501612e5b565b8252506020820135602082015292915050565b600067ffffffffffffffff821115612ee757612ee7612c38565b5060051b60200190565b80356fffffffffffffffffffffffffffffffff81168114612c3357600080fd5b600060c08284031215612f2357600080fd5b612f2b612c90565b9050813581526020808301358183015260408084013581840152606084013560608401526080840135608084015260a084013567ffffffffffffffff811115612f7357600080fd5b8401601f81018613612f8457600080fd5b8035612f92612e2b82612ecd565b81815260069190911b82018401908481019088831115612fb157600080fd5b928501925b82841015612fff5784848a031215612fce5760008081fd5b612fd6612c67565b612fdf85612ef1565b8152612fec878601612ef1565b8188015282529284019290850190612fb6565b60a087015250939695505050505050565b600082601f83011261302157600080fd5b81356020613031612e2b83612ecd565b82815260059290921b8401810191818101908684111561305057600080fd5b8286015b8481101561307457803561306781612c03565b8352918301918301613054565b509695505050505050565b803562ffffff81168114612c3357600080fd5b803563ffffffff81168114612c3357600080fd5b600060408083850312156130b957600080fd5b6130c1612c67565b915082356130ce81612c03565b825260208381013567ffffffffffffffff8111156130eb57600080fd5b8401601f810186136130fc57600080fd5b803561310a612e2b82612ecd565b81815260079190911b8201830190838101908883111561312957600080fd5b928401925b8284101561319d576080848a0312156131475760008081fd5b61314f612cb3565b843561315a81612c03565b815261316785870161307f565b86820152613176878601613092565b878201526060613187818701613092565b908201528252608093909301929084019061312e565b808588015250505050505092915050565b600082601f8301126131bf57600080fd5b813560206131cf612e2b83612ecd565b82815260059290921b840181019181810190868411156131ee57600080fd5b8286015b8481101561307457803567ffffffffffffffff808211156132135760008081fd5b81890191506060807fffffffffffffffffffffffffffffffffffffffffffffffffffffffffffffffe0848d0301121561324c5760008081fd5b613254612cd6565b8784013561326181612c03565b8152604084810135898301529184013591838311156132805760008081fd5b82850194508c603f86011261329757600093508384fd5b6132a78d8a870135838801612e1d565b9082015286525050509183019183016131f2565b803560ff81168114612c3357600080fd5b60008060008060008060008060006101208a8c0312156132eb57600080fd5b6132f48a612c28565b985060208a013567ffffffffffffffff8082111561331157600080fd5b61331d8d838e01612e7b565b995060408c013591508082111561333357600080fd5b61333f8d838e01612e5b565b985060608c013591508082111561335557600080fd5b6133618d838e01612e5b565b975060808c013591508082111561337757600080fd5b6133838d838e01612f11565b965060a08c013591508082111561339957600080fd5b6133a58d838e01613010565b955060c08c01359150808211156133bb57600080fd5b6133c78d838e016130a6565b945060e08c01359150808211156133dd57600080fd5b506133ea8c828d016131ae565b9250506133fa6101008b016132bb565b90509295985092959850929598565b60008060008060006080868803121561342157600080fd5b853561342c81612c03565b9450602086013561343c81612c03565b935060408601359250606086013567ffffffffffffffff8082111561346057600080fd5b818801915088601f83011261347457600080fd5b81358181111561348357600080fd5b89602082850101111561349557600080fd5b9699959850939650602001949392505050565b600080600080600080600060e0888a0312156134c357600080fd5b6134cc88612c28565b9650602088013567ffffffffffffffff808211156134e957600080fd5b6134f58b838c01612e7b565b975060408a013591508082111561350b57600080fd5b6135178b838c01612e5b565b965060608a013591508082111561352d57600080fd5b6135398b838c01612e5b565b955060808a013591508082111561354f57600080fd5b61355b8b838c01612f11565b945060a08a013591508082111561357157600080fd5b61357d8b838c01613010565b935060c08a013591508082111561359357600080fd5b506135a08a828b016130a6565b91505092959891949750929550565b602080825282518282018190526000919060409081850190868401855b8281101561360757815180516fffffffffffffffffffffffffffffffff908116865290870151168685015292840192908501906001016135cc565b5091979650505050505050565b80356cffffffffffffffffffffffffff81168114612c3357600080fd5b803561ffff81168114612c3357600080fd5b8015158114612c2557600080fd5b8035612c3381613643565b803565ffffffffffff81168114612c3357600080fd5b6000608080838503121561368557600080fd5b61368d612cb3565b9150823567ffffffffffffffff8111156136a657600080fd5b8301601f810185136136b757600080fd5b803560206136c7612e2b83612ecd565b82815261016092830284018201928282019190898511156136e757600080fd5b948301945b848610156137c85780868b0312156137045760008081fd5b61370c612cf9565b61371587613614565b8152613722858801613092565b858201526040613733818901613092565b908201526060613744888201613631565b90820152613753878901612c28565b8189015260a0878101359082015260c061376e81890161307f565b9082015260e061377f888201613651565b90820152610100613791888201613651565b908201526101206137a3888201613651565b908201526101406137b5888201613651565b90820152835294850194918301916136ec565b508652506137d786820161365c565b81860152505050506137eb6040830161365c565b60408201526137fc60608301612c28565b606082015292915050565b60006080828403121561381957600080fd5b613821612cb3565b9050813561382e81613643565b8152602082013561383e81613643565b6020820152604082013561385181613643565b604082015260608201356137fc81613643565b803560028110612c3357600080fd5b60006101c0828403121561388657600080fd5b61388e612cf9565b9050813567ffffffffffffffff808211156138a857600080fd5b6138b485838601612e5b565b835260208401359150808211156138ca57600080fd5b6138d685838601612e5b565b60208401526138e760408501612c28565b6040840152606084013591508082111561390057600080fd5b61390c85838601612e5b565b606084015261391d60808501612c28565b608084015260a084013591508082111561393657600080fd5b61394285838601612e5b565b60a084015260c084013591508082111561395b57600080fd5b5061396884828501613672565b60c08301525061397a60e08301612c28565b60e082015261010061398d818401612c28565b908201526101206139a084848301613807565b908201526139b16101a08301613864565b61014082015292915050565b6000806000806000806000806000806101408b8d0312156139dd57600080fd5b6139e68b612c28565b995060208b013567ffffffffffffffff80821115613a0357600080fd5b613a0f8e838f01612e7b565b9a5060408d0135915080821115613a2557600080fd5b613a318e838f01612e5b565b995060608d0135915080821115613a4757600080fd5b613a538e838f01612e5b565b985060808d0135915080821115613a6957600080fd5b613a758e838f01612f11565b975060a08d0135915080821115613a8b57600080fd5b613a978e838f01613010565b965060c08d0135915080821115613aad57600080fd5b613ab98e838f016130a6565b955060e08d0135915080821115613acf57600080fd5b613adb8e838f01613873565b94506101008d0135915080821115613af257600080fd5b50613aff8d828e016131ae565b925050613b0f6101208c016132bb565b90509295989b9194979a5092959850565b600060208284031215613b3257600080fd5b813567ffffffffffffffff811115613b4957600080fd5b82016101e08185031215612be357600080fd5b60005b83811015613b77578181015183820152602001613b5f565b50506000910152565b60008151808452613b98816020860160208601613b5c565b601f017fffffffffffffffffffffffffffffffffffffffffffffffffffffffffffffffe0169290920160200192915050565b6000606085835260208181850152613be482850187613b80565b6040858203818701528187518084528484019150848160051b850101858a0160005b83811015613c81578683037fffffffffffffffffffffffffffffffffffffffffffffffffffffffffffffffe00185528151805173ffffffffffffffffffffffffffffffffffffffff16845288810151898501528601518684018a9052613c6e8a850182613b80565b9589019593505090870190600101613c06565b50909c9b505050505050505050505050565b60008060408385031215613ca657600080fd5b50508035926020909101359150565b73ffffffffffffffffffffffffffffffffffffffff84168152826020820152606060408201526000613cea6060830184613b80565b95945050505050565b600060208284031215613d0557600080fd5b813567ffffffffffffffff811115613d1c57600080fd5b82016101a08185031215612be357600080fd5b6000606085835260208181850152613d4982850187613b80565b6040858203818701528187518084528484019150848160051b850101858a0160005b83811015613c81578683037fffffffffffffffffffffffffffffffffffffffffffffffffffffffffffffffe00185528151805173ffffffffffffffffffffffffffffffffffffffff16845288810151898501528601518684018a9052613dd38a850182613b80565b9589019593505090870190600101613d6b565b8051612c3381612c03565b8051612c3381613643565b600060608284031215613e0e57600080fd5b613e16612cd6565b90508151613e2381613643565b81526020820151613e3381613643565b60208201526040820151613e4681613643565b604082015292915050565b60006102808284031215613e6457600080fd5b613e6c612d1d565b9050613e788383613dfc565b8152606082015160208201526080820151604082015260a08201516060820152613ea460c08301613df1565b6080820152613eb560e08301613df1565b60a0820152610100613ec8818401613df1565b60c0830152610120613edb818501613df1565b60e0840152610140613eee818601613df1565b838501526101609250613f02838601613df1565b828501526101809150613f16828601613df1565b908401526101a0613f28858201613df1565b838501526101c09250613f3c838601613df1565b828501526101e09150613f50828601613df1565b90840152610200613f62858201613df1565b838501526102209250613f76838601613df1565b82850152613f876102408601613de6565b818501525050610260830151818301525092915050565b805160038110612c3357600080fd5b60008060008385036103c0811215613fc457600080fd5b61012080821215613fd457600080fd5b613fdc612d41565b9150855182526020860151602083015260408601516040830152606086015160608301526080860151608083015260a086015160a083015260c086015160c083015261402a60e08701613de6565b60e083015261010080870151818401525081945061404a87828801613e51565b9350505061405b6103a08501613f9e565b90509250925092565b7f4e487b7100000000000000000000000000000000000000000000000000000000600052601160045260246000fd5b60007fffffffffffffffffffffffffffffffffffffffffffffffffffffffffffffffff82036140c4576140c4614064565b5060010190565b7f4e487b7100000000000000000000000000000000000000000000000000000000600052603260045260246000fd5b61411f8282518051151582526020808201511515908301526040908101511515910152565b6020810151606083015260408101516080830152606081015160a0830152608081015161415060c084018215159052565b5060a081015180151560e08401525060c08101516101006141748185018315159052565b60e0830151915061012061418b8186018415159052565b908301519150610140906141a28583018415159052565b83015191506101606141b78582018415159052565b908301519150610180906141ce8583018415159052565b83015191506101a06141e38582018415159052565b9083015191506101c0906141fa8583018415159052565b83015191506101e061420f8582018415159052565b908301519150610200906142268583018415159052565b830151915061022061423b8582018415159052565b9083015173ffffffffffffffffffffffffffffffffffffffff16610240850152909101516102609092019190915250565b600081518084526020808501808196508360051b810191508286016000805b8681101561434b578385038a52825180518652860151604087870181905281518188018190529188019160609081890190865b818110156143345785518051151584528c81015115158d8501528581015186850152848101518585015260808082015173ffffffffffffffffffffffffffffffffffffffff9081169186019190915260a0808301519086015260c0918201511690840152948b019460e0909201916001016142be565b50509c89019c97505050928601925060010161428b565b509298975050505050505050565b600081518084526020808501945080840160005b838110156143d6578151805173ffffffffffffffffffffffffffffffffffffffff908116895284820151168489015260408082015190890152606080820151908901526080808201519089015260a0908101519088015260c0909601959082019060010161436d565b509495945050505050565b60006103a088835261442d602084018980518252602081015160208301526040810151604083015273ffffffffffffffffffffffffffffffffffffffff60608201511660608301525050565b61443a60a08401886140fa565b6fffffffffffffffffffffffffffffffff8616610320840152806103408401526144668184018661426c565b905082810361036084015261447b8185614359565b838103610380909401939093525050603281527f5363686564756c6564206e657874206465762074617820706572696f64206f6660208201527f2052657461696c697374206e6574776f726b000000000000000000000000000060408201526060019695505050505050565b6000602082840312156144f957600080fd5b5051919050565b60006020828403121561451257600080fd5b8151612be381612c03565b73ffffffffffffffffffffffffffffffffffffffff8316815260406020820152600082516040808401526145546080840182613b80565b905060208401516060840152809150509392505050565b8381526060602082015260006145846060830185613b80565b82810360408401526145968185613b80565b9695505050505050565b600181815b808511156145f957817fffffffffffffffffffffffffffffffffffffffffffffffffffffffffffffffff048211156145df576145df614064565b808516156145ec57918102915b93841c93908002906145a5565b509250929050565b60008261461057506001610417565b8161461d57506000610417565b8160018114614633576002811461463d57614659565b6001915050610417565b60ff84111561464e5761464e614064565b50506001821b610417565b5060208310610133831016604e8410600b841016171561467c575081810a610417565b61468683836145a0565b807fffffffffffffffffffffffffffffffffffffffffffffffffffffffffffffffff048211156146b8576146b8614064565b029392505050565b6000612be360ff841683614601565b8181038181111561041757610417614064565b60006103c0898352602061472f8185018b80518252602081015160208301526040810151604083015273ffffffffffffffffffffffffffffffffffffffff60608201511660608301525050565b61473c60a085018a6140fa565b6fffffffffffffffffffffffffffffffff8816610320850152816103408501526147688285018861426c565b915083820361036085015261477d8287614359565b848103610380860152855180825282870193509082019060005b818110156147c957845173ffffffffffffffffffffffffffffffffffffffff1683529383019391830191600101614797565b50508481036103a0860152601a81527f4465706c6f7965642052657461696c697374206e6574776f726b0000000000006020820152604081019c9b505050505050505050505050565b7f5072656d696e746564202400000000000000000000000000000000000000000081526000825161484a81600b850160208701613b5c565b91909101600b0192915050565b86815285602082015273ffffffffffffffffffffffffffffffffffffffff8516604082015260c06060820152600061489260c0830186613b80565b93151560808301525090151560a090910152949350505050565b600060208083526080830173ffffffffffffffffffffffffffffffffffffffff85511682850152818501516040850152604085015160608086015281815180845260a0870191508483019350600092505b8083101561307457835182529284019260019290920191908401906148fd565b60006080820173ffffffffffffffffffffffffffffffffffffffff808816845260208188168186015286604086015260806060860152829150855480845260a0860192508660005281600020935060005b8181101561498a5784548452600194850194938301930161496e565b50919998505050505050505050565b6000602082840312156149ab57600080fd5b8151612be381613643565b8082018082111561041757610417614064565b80516080808452815184820181905260009260a0916020918201918388019190865b82811015614aae57845180516cffffffffffffffffffffffffff1685528281015163ffffffff908116848701526040808301519091169086015260608082015161ffff16908601528781015173ffffffffffffffffffffffffffffffffffffffff1688860152868101518786015260c08082015162ffffff169086015260e08082015115159086015261010080820151151590860152610120808201511515908601526101409081015115159085015293810193610160909301926001016149eb565b508781015165ffffffffffff81168a8301529550505060408601519350614adf604088018565ffffffffffff169052565b60608601519350614596606088018573ffffffffffffffffffffffffffffffffffffffff169052565b60028110614b3f577f4e487b7100000000000000000000000000000000000000000000000000000000600052602160045260246000fd5b9052565b82815260406020820152600082516101c06040840152614b67610200840182613b80565b905060208401517fffffffffffffffffffffffffffffffffffffffffffffffffffffffffffffffc080858403016060860152614ba38383613b80565b925060408601519150614bce608086018373ffffffffffffffffffffffffffffffffffffffff169052565b60608601519150808584030160a0860152614be98383613b80565b925060808601519150614c1460c086018373ffffffffffffffffffffffffffffffffffffffff169052565b60a08601519150808584030160e0860152614c2f8383613b80565b925060c08601519150610100818685030181870152614c4e84846149c9565b935060e087015192506101209150614c7d8287018473ffffffffffffffffffffffffffffffffffffffff169052565b8601519150610140614ca68682018473ffffffffffffffffffffffffffffffffffffffff169052565b908601518051151561016087015260208101511515610180870152604081015115156101a08701526060015115156101c08601528501519050614ced6101e0850182614b08565b50949350505050565b600181811c90821680614d0a57607f821691505b602082108103614d43577f4e487b7100000000000000000000000000000000000000000000000000000000600052602260045260246000fd5b50919050565b8035614d5481612c03565b73ffffffffffffffffffffffffffffffffffffffff1682526020818101359083015260408082013590830152606090810135910152565b60008083357fffffffffffffffffffffffffffffffffffffffffffffffffffffffffffffffe1843603018112614dc057600080fd5b830160208101925035905067ffffffffffffffff811115614de057600080fd5b803603821315614def57600080fd5b9250929050565b8183528181602085013750600060208284010152600060207fffffffffffffffffffffffffffffffffffffffffffffffffffffffffffffffe0601f840116840101905092915050565b60208152614e6d60208201614e5384612c28565b73ffffffffffffffffffffffffffffffffffffffff169052565b6000614e7b60208401612c28565b73ffffffffffffffffffffffffffffffffffffffff8116604084015250614ea86060830160408501614d49565b60c083013560e083015261010060e084013581840152614ec9818501612c28565b9050610120614eef8185018373ffffffffffffffffffffffffffffffffffffffff169052565b61014091508085013582850152506101608185013581850152614f1481860186614d8b565b925090506101a06101808181870152614f326101c087018585614df6565b9350614f4081880188614d8b565b935090507fffffffffffffffffffffffffffffffffffffffffffffffffffffffffffffffe08685030182870152614f78848483614df6565b979650505050505050565b6000614f91612e2b84612dd7565b9050828152838383011115614fa557600080fd5b612be3836020830184613b5c565b600080600060608486031215614fc857600080fd5b8351925060208085015167ffffffffffffffff80821115614fe857600080fd5b818701915087601f830112614ffc57600080fd5b61500a888351858501614f83565b9450604087015191508082111561502057600080fd5b818701915087601f83011261503457600080fd5b8151615042612e2b82612ecd565b81815260059190911b8301840190848101908a83111561506157600080fd5b8585015b8381101561511b5780518581111561507c57600080fd5b86016060818e037fffffffffffffffffffffffffffffffffffffffffffffffffffffffffffffffe00112156150b057600080fd5b6150b8612cd6565b888201516150c581612c03565b81526040820151898201526060820151878111156150e257600080fd5b8083019250508d603f8301126150f757600080fd5b6151088e8a84015160408501614f83565b6040820152845250918601918601615065565b508096505050505050509250925092565b60008083357fffffffffffffffffffffffffffffffffffffffffffffffffffffffffffffffe184360301811261516157600080fd5b83018035915067ffffffffffffffff82111561517c57600080fd5b602001915036819003821315614def57600080fd5b600060208083850312156151a457600080fd5b825167ffffffffffffffff8111156151bb57600080fd5b8301601f810185136151cc57600080fd5b80516151da612e2b82612ecd565b81815260e091820283018401918482019190888411156151f957600080fd5b938501935b83851015611c625780858a0312156152165760008081fd5b61521e612d65565b855161522981613643565b81528587015161523881613643565b81880152604086810151908201526060808701519082015260808087015161525f81612c03565b9082015260a0868101519082015260c08087015161527c81612c03565b90820152835293840193918501916151fe565b601f8211156152d957600081815260208120601f850160051c810160208610156152b65750805b601f850160051c820191505b818110156152d5578281556001016152c2565b5050505b505050565b815167ffffffffffffffff8111156152f8576152f8612c38565b61530c816153068454614cf6565b8461528f565b602080601f83116001811461535f57600084156153295750858301515b7fffffffffffffffffffffffffffffffffffffffffffffffffffffffffffffffff600386901b1c1916600185901b1785556152d5565b6000858152602081207fffffffffffffffffffffffffffffffffffffffffffffffffffffffffffffffe08616915b828110156153ac5788860151825594840194600190910190840161538d565b50858210156153e857878501517fffffffffffffffffffffffffffffffffffffffffffffffffffffffffffffffff600388901b60f8161c191681555b5050505050600190811b0190555056fea2646970667358221220a08516155fd60a23369ca1d28c058cc00d420f9627c3d8124b3f45bffc9e485264736f6c63430008150033",
    "linkReferences": {}
  },
  "methodIdentifiers": {
    "buybackDelegateDataSourceOf(uint256)": "ef8eadd5",
    "buybackDelegatePermissionIndexes(uint256)": "9e8c513a",
    "controller()": "f77c4791",
    "currentDevTaxPeriodNumberOf(uint256)": "9f665eee",
    "delegateAllocationsOf(uint256,uint256)": "abc603e3",
    "delegateDeployer()": "8f3d964b",
    "deployBasicNetworkFor(address,(string,uint256),string,string,(uint256,uint256,uint256,uint256,uint256,(uint128,uint128)[]),address[],(address,(address,uint24,uint32,uint32)[]))": "256b8370",
    "deployPayAllocatorNetworkFor(address,(string,uint256),string,string,(uint256,uint256,uint256,uint256,uint256,(uint128,uint128)[]),address[],(address,(address,uint24,uint32,uint32)[]),(address,uint256,bytes)[],uint8)": "10c5f446",
    "deployTiered721PayAllocatorNetworkFor(address,(string,uint256),string,string,(uint256,uint256,uint256,uint256,uint256,(uint128,uint128)[]),address[],(address,(address,uint24,uint32,uint32)[]),(string,string,address,string,address,string,((uint104,uint32,uint32,uint16,address,bytes32,uint24,bool,bool,bool,bool)[],uint48,uint48,address),address,address,(bool,bool,bool,bool),uint8),(address,uint256,bytes)[],uint8)": "83834094",
    "devTaxPeriodsOf(uint256)": "263950ae",
    "directory()": "c41c2f24",
    "onERC721Received(address,address,uint256,bytes)": "150b7a02",
    "operatorPermissionIndexes(uint256)": "4d757720",
    "payParams((address,address,(address,uint256,uint256,uint256),uint256,uint256,address,uint256,uint256,string,bytes))": "d46cf171",
    "redeemParams((address,address,uint256,uint256,uint256,uint256,uint256,(address,uint256,uint256,uint256),bool,uint256,string,bytes))": "a51cfd18",
    "scheduleNextDevTaxPeriodOf(uint256)": "0310850e",
    "supportsInterface(bytes4)": "01ffc9a7"
  },
  "id": 105
}