{
  "abi": [
    {
      "inputs": [
        {
          "internalType": "contract IJBDirectory",
          "name": "_directory",
          "type": "address"
        },
        {
          "internalType": "contract IJBTiered721DelegateDeployer",
          "name": "_delegateDeployer",
          "type": "address"
        },
        {
          "internalType": "contract IJBController3_1",
          "name": "_controller",
          "type": "address"
        }
      ],
      "stateMutability": "nonpayable",
      "type": "constructor"
    },
    {
      "inputs": [],
      "name": "BAD_DEV_TAX_SEQUENCE",
      "type": "error"
    },
    {
      "inputs": [],
      "name": "RECONFIGURATION_ALREADY_SCHEDULED",
      "type": "error"
    },
    {
      "inputs": [],
      "name": "RECONFIGURATION_NOT_POSSIBLE",
      "type": "error"
    },
    {
      "inputs": [
        {
          "internalType": "uint256",
          "name": "",
          "type": "uint256"
        }
      ],
      "name": "buybackDelegateDataSourceOf",
      "outputs": [
        {
          "internalType": "contract IJBGenericBuybackDelegate",
          "name": "",
          "type": "address"
        }
      ],
      "stateMutability": "view",
      "type": "function"
    },
    {
      "inputs": [
        {
          "internalType": "uint256",
          "name": "",
          "type": "uint256"
        }
      ],
      "name": "buybackDelegatePermissionIndexes",
      "outputs": [
        {
          "internalType": "uint256",
          "name": "",
          "type": "uint256"
        }
      ],
      "stateMutability": "view",
      "type": "function"
    },
    {
      "inputs": [],
      "name": "controller",
      "outputs": [
        {
          "internalType": "contract IJBController3_1",
          "name": "",
          "type": "address"
        }
      ],
      "stateMutability": "view",
      "type": "function"
    },
    {
      "inputs": [
        {
          "internalType": "uint256",
          "name": "_networkId",
          "type": "uint256"
        }
      ],
      "name": "currentDevTaxPeriodNumberOf",
      "outputs": [
        {
          "internalType": "uint256",
          "name": "",
          "type": "uint256"
        }
      ],
      "stateMutability": "view",
      "type": "function"
    },
    {
      "inputs": [
        {
          "internalType": "uint256",
          "name": "",
          "type": "uint256"
        },
        {
          "internalType": "uint256",
          "name": "",
          "type": "uint256"
        }
      ],
      "name": "delegateAllocationsOf",
      "outputs": [
        {
          "internalType": "contract IJBPayDelegate3_1_1",
          "name": "delegate",
          "type": "address"
        },
        {
          "internalType": "uint256",
          "name": "amount",
          "type": "uint256"
        },
        {
          "internalType": "bytes",
          "name": "metadata",
          "type": "bytes"
        }
      ],
      "stateMutability": "view",
      "type": "function"
    },
    {
      "inputs": [],
      "name": "delegateDeployer",
      "outputs": [
        {
          "internalType": "contract IJBTiered721DelegateDeployer",
          "name": "",
          "type": "address"
        }
      ],
      "stateMutability": "view",
      "type": "function"
    },
    {
      "inputs": [
        {
          "internalType": "address",
          "name": "_operator",
          "type": "address"
        },
        {
          "components": [
            {
              "internalType": "string",
              "name": "content",
              "type": "string"
            },
            {
              "internalType": "uint256",
              "name": "domain",
              "type": "uint256"
            }
          ],
          "internalType": "struct JBProjectMetadata",
          "name": "_networkMetadata",
          "type": "tuple"
        },
        {
          "internalType": "string",
          "name": "_name",
          "type": "string"
        },
        {
          "internalType": "string",
          "name": "_symbol",
          "type": "string"
        },
        {
          "components": [
            {
              "internalType": "uint256",
              "name": "initialIssuanceRate",
              "type": "uint256"
            },
            {
              "internalType": "uint256",
              "name": "premintTokenAmount",
              "type": "uint256"
            },
            {
              "internalType": "uint256",
              "name": "generationTax",
              "type": "uint256"
            },
            {
              "internalType": "uint256",
              "name": "generationDuration",
              "type": "uint256"
            },
            {
              "internalType": "uint256",
              "name": "exitTaxRate",
              "type": "uint256"
            },
            {
              "components": [
                {
                  "internalType": "uint128",
                  "name": "rate",
                  "type": "uint128"
                },
                {
                  "internalType": "uint128",
                  "name": "startsAtOrAfter",
                  "type": "uint128"
                }
              ],
              "internalType": "struct DevTaxPeriod[]",
              "name": "devTaxPeriods",
              "type": "tuple[]"
            },
            {
              "internalType": "uint24",
              "name": "poolFee",
              "type": "uint24"
            }
          ],
          "internalType": "struct BasicRetailistJBParams",
          "name": "_data",
          "type": "tuple"
        },
        {
          "internalType": "contract IJBPaymentTerminal[]",
          "name": "_terminals",
          "type": "address[]"
        },
        {
          "internalType": "contract IJBGenericBuybackDelegate",
          "name": "_buybackDelegate",
          "type": "address"
        }
      ],
      "name": "deployBasicNetworkFor",
      "outputs": [
        {
          "internalType": "uint256",
          "name": "networkId",
          "type": "uint256"
        }
      ],
      "stateMutability": "nonpayable",
      "type": "function"
    },
    {
      "inputs": [
        {
          "internalType": "address",
          "name": "_operator",
          "type": "address"
        },
        {
          "components": [
            {
              "internalType": "string",
              "name": "content",
              "type": "string"
            },
            {
              "internalType": "uint256",
              "name": "domain",
              "type": "uint256"
            }
          ],
          "internalType": "struct JBProjectMetadata",
          "name": "_networkMetadata",
          "type": "tuple"
        },
        {
          "internalType": "string",
          "name": "_name",
          "type": "string"
        },
        {
          "internalType": "string",
          "name": "_symbol",
          "type": "string"
        },
        {
          "components": [
            {
              "internalType": "uint256",
              "name": "initialIssuanceRate",
              "type": "uint256"
            },
            {
              "internalType": "uint256",
              "name": "premintTokenAmount",
              "type": "uint256"
            },
            {
              "internalType": "uint256",
              "name": "generationTax",
              "type": "uint256"
            },
            {
              "internalType": "uint256",
              "name": "generationDuration",
              "type": "uint256"
            },
            {
              "internalType": "uint256",
              "name": "exitTaxRate",
              "type": "uint256"
            },
            {
              "components": [
                {
                  "internalType": "uint128",
                  "name": "rate",
                  "type": "uint128"
                },
                {
                  "internalType": "uint128",
                  "name": "startsAtOrAfter",
                  "type": "uint128"
                }
              ],
              "internalType": "struct DevTaxPeriod[]",
              "name": "devTaxPeriods",
              "type": "tuple[]"
            },
            {
              "internalType": "uint24",
              "name": "poolFee",
              "type": "uint24"
            }
          ],
          "internalType": "struct BasicRetailistJBParams",
          "name": "_data",
          "type": "tuple"
        },
        {
          "internalType": "contract IJBPaymentTerminal[]",
          "name": "_terminals",
          "type": "address[]"
        },
        {
          "internalType": "contract IJBGenericBuybackDelegate",
          "name": "_buybackDelegate",
          "type": "address"
        },
        {
          "components": [
            {
              "internalType": "contract IJBPayDelegate3_1_1",
              "name": "delegate",
              "type": "address"
            },
            {
              "internalType": "uint256",
              "name": "amount",
              "type": "uint256"
            },
            {
              "internalType": "bytes",
              "name": "metadata",
              "type": "bytes"
            }
          ],
          "internalType": "struct JBPayDelegateAllocation3_1_1[]",
          "name": "_delegateAllocations",
          "type": "tuple[]"
        },
        {
          "internalType": "uint8",
          "name": "_extraFundingCycleMetadata",
          "type": "uint8"
        }
      ],
      "name": "deployPayAllocatorNetworkFor",
      "outputs": [
        {
          "internalType": "uint256",
          "name": "networkId",
          "type": "uint256"
        }
      ],
      "stateMutability": "nonpayable",
      "type": "function"
    },
    {
      "inputs": [
        {
          "internalType": "address",
          "name": "_operator",
          "type": "address"
        },
        {
          "components": [
            {
              "internalType": "string",
              "name": "content",
              "type": "string"
            },
            {
              "internalType": "uint256",
              "name": "domain",
              "type": "uint256"
            }
          ],
          "internalType": "struct JBProjectMetadata",
          "name": "_networkMetadata",
          "type": "tuple"
        },
        {
          "internalType": "string",
          "name": "_name",
          "type": "string"
        },
        {
          "internalType": "string",
          "name": "_symbol",
          "type": "string"
        },
        {
          "components": [
            {
              "internalType": "uint256",
              "name": "initialIssuanceRate",
              "type": "uint256"
            },
            {
              "internalType": "uint256",
              "name": "premintTokenAmount",
              "type": "uint256"
            },
            {
              "internalType": "uint256",
              "name": "generationTax",
              "type": "uint256"
            },
            {
              "internalType": "uint256",
              "name": "generationDuration",
              "type": "uint256"
            },
            {
              "internalType": "uint256",
              "name": "exitTaxRate",
              "type": "uint256"
            },
            {
              "components": [
                {
                  "internalType": "uint128",
                  "name": "rate",
                  "type": "uint128"
                },
                {
                  "internalType": "uint128",
                  "name": "startsAtOrAfter",
                  "type": "uint128"
                }
              ],
              "internalType": "struct DevTaxPeriod[]",
              "name": "devTaxPeriods",
              "type": "tuple[]"
            },
            {
              "internalType": "uint24",
              "name": "poolFee",
              "type": "uint24"
            }
          ],
          "internalType": "struct BasicRetailistJBParams",
          "name": "_data",
          "type": "tuple"
        },
        {
          "internalType": "contract IJBPaymentTerminal[]",
          "name": "_terminals",
          "type": "address[]"
        },
        {
          "internalType": "contract IJBGenericBuybackDelegate",
          "name": "_buybackDelegate",
          "type": "address"
        },
        {
          "components": [
            {
              "internalType": "string",
              "name": "name",
              "type": "string"
            },
            {
              "internalType": "string",
              "name": "symbol",
              "type": "string"
            },
            {
              "internalType": "contract IJBFundingCycleStore",
              "name": "fundingCycleStore",
              "type": "address"
            },
            {
              "internalType": "string",
              "name": "baseUri",
              "type": "string"
            },
            {
              "internalType": "contract IJB721TokenUriResolver",
              "name": "tokenUriResolver",
              "type": "address"
            },
            {
              "internalType": "string",
              "name": "contractUri",
              "type": "string"
            },
            {
              "components": [
                {
                  "components": [
                    {
                      "internalType": "uint104",
                      "name": "price",
                      "type": "uint104"
                    },
                    {
                      "internalType": "uint32",
                      "name": "initialQuantity",
                      "type": "uint32"
                    },
                    {
                      "internalType": "uint32",
                      "name": "votingUnits",
                      "type": "uint32"
                    },
                    {
                      "internalType": "uint16",
                      "name": "reservedRate",
                      "type": "uint16"
                    },
                    {
                      "internalType": "address",
                      "name": "reservedTokenBeneficiary",
                      "type": "address"
                    },
                    {
                      "internalType": "bytes32",
                      "name": "encodedIPFSUri",
                      "type": "bytes32"
                    },
                    {
                      "internalType": "uint24",
                      "name": "category",
                      "type": "uint24"
                    },
                    {
                      "internalType": "bool",
                      "name": "allowManualMint",
                      "type": "bool"
                    },
                    {
                      "internalType": "bool",
                      "name": "shouldUseReservedTokenBeneficiaryAsDefault",
                      "type": "bool"
                    },
                    {
                      "internalType": "bool",
                      "name": "transfersPausable",
                      "type": "bool"
                    },
                    {
                      "internalType": "bool",
                      "name": "useVotingUnits",
                      "type": "bool"
                    }
                  ],
                  "internalType": "struct JB721TierParams[]",
                  "name": "tiers",
                  "type": "tuple[]"
                },
                {
                  "internalType": "uint48",
                  "name": "currency",
                  "type": "uint48"
                },
                {
                  "internalType": "uint48",
                  "name": "decimals",
                  "type": "uint48"
                },
                {
                  "internalType": "contract IJBPrices",
                  "name": "prices",
                  "type": "address"
                }
              ],
              "internalType": "struct JB721PricingParams",
              "name": "pricing",
              "type": "tuple"
            },
            {
              "internalType": "address",
              "name": "reservedTokenBeneficiary",
              "type": "address"
            },
            {
              "internalType": "contract IJBTiered721DelegateStore",
              "name": "store",
              "type": "address"
            },
            {
              "components": [
                {
                  "internalType": "bool",
                  "name": "lockReservedTokenChanges",
                  "type": "bool"
                },
                {
                  "internalType": "bool",
                  "name": "lockVotingUnitChanges",
                  "type": "bool"
                },
                {
                  "internalType": "bool",
                  "name": "lockManualMintingChanges",
                  "type": "bool"
                },
                {
                  "internalType": "bool",
                  "name": "preventOverspending",
                  "type": "bool"
                }
              ],
              "internalType": "struct JBTiered721Flags",
              "name": "flags",
              "type": "tuple"
            },
            {
              "internalType": "enum JB721GovernanceType",
              "name": "governanceType",
              "type": "uint8"
            }
          ],
          "internalType": "struct JBDeployTiered721DelegateData",
          "name": "_deployTiered721DelegateData",
          "type": "tuple"
        },
        {
          "components": [
            {
              "internalType": "contract IJBPayDelegate3_1_1",
              "name": "delegate",
              "type": "address"
            },
            {
              "internalType": "uint256",
              "name": "amount",
              "type": "uint256"
            },
            {
              "internalType": "bytes",
              "name": "metadata",
              "type": "bytes"
            }
          ],
          "internalType": "struct JBPayDelegateAllocation3_1_1[]",
          "name": "_otherDelegateAllocations",
          "type": "tuple[]"
        },
        {
          "internalType": "uint8",
          "name": "_extraFundingCycleMetadata",
          "type": "uint8"
        }
      ],
      "name": "deployTiered721PayAllocatorNetworkFor",
      "outputs": [
        {
          "internalType": "uint256",
          "name": "networkId",
          "type": "uint256"
        }
      ],
      "stateMutability": "nonpayable",
      "type": "function"
    },
    {
      "inputs": [
        {
          "internalType": "uint256",
          "name": "_networkId",
          "type": "uint256"
        }
      ],
      "name": "devTaxPeriodsOf",
      "outputs": [
        {
          "components": [
            {
              "internalType": "uint128",
              "name": "rate",
              "type": "uint128"
            },
            {
              "internalType": "uint128",
              "name": "startsAtOrAfter",
              "type": "uint128"
            }
          ],
          "internalType": "struct DevTaxPeriod[]",
          "name": "",
          "type": "tuple[]"
        }
      ],
      "stateMutability": "view",
      "type": "function"
    },
    {
      "inputs": [],
      "name": "directory",
      "outputs": [
        {
          "internalType": "contract IJBDirectory",
          "name": "",
          "type": "address"
        }
      ],
      "stateMutability": "view",
      "type": "function"
    },
    {
      "inputs": [
        {
          "internalType": "address",
          "name": "_operator",
          "type": "address"
        },
        {
          "internalType": "address",
          "name": "_from",
          "type": "address"
        },
        {
          "internalType": "uint256",
          "name": "_tokenId",
          "type": "uint256"
        },
        {
          "internalType": "bytes",
          "name": "_data",
          "type": "bytes"
        }
      ],
      "name": "onERC721Received",
      "outputs": [
        {
          "internalType": "bytes4",
          "name": "",
          "type": "bytes4"
        }
      ],
      "stateMutability": "view",
      "type": "function"
    },
    {
      "inputs": [
        {
          "internalType": "uint256",
          "name": "",
          "type": "uint256"
        }
      ],
      "name": "operatorPermissionIndexes",
      "outputs": [
        {
          "internalType": "uint256",
          "name": "",
          "type": "uint256"
        }
      ],
      "stateMutability": "view",
      "type": "function"
    },
    {
      "inputs": [
        {
          "components": [
            {
              "internalType": "contract IJBPaymentTerminal",
              "name": "terminal",
              "type": "address"
            },
            {
              "internalType": "address",
              "name": "payer",
              "type": "address"
            },
            {
              "components": [
                {
                  "internalType": "address",
                  "name": "token",
                  "type": "address"
                },
                {
                  "internalType": "uint256",
                  "name": "value",
                  "type": "uint256"
                },
                {
                  "internalType": "uint256",
                  "name": "decimals",
                  "type": "uint256"
                },
                {
                  "internalType": "uint256",
                  "name": "currency",
                  "type": "uint256"
                }
              ],
              "internalType": "struct JBTokenAmount",
              "name": "amount",
              "type": "tuple"
            },
            {
              "internalType": "uint256",
              "name": "projectId",
              "type": "uint256"
            },
            {
              "internalType": "uint256",
              "name": "currentFundingCycleConfiguration",
              "type": "uint256"
            },
            {
              "internalType": "address",
              "name": "beneficiary",
              "type": "address"
            },
            {
              "internalType": "uint256",
              "name": "weight",
              "type": "uint256"
            },
            {
              "internalType": "uint256",
              "name": "reservedRate",
              "type": "uint256"
            },
            {
              "internalType": "string",
              "name": "memo",
              "type": "string"
            },
            {
              "internalType": "bytes",
              "name": "metadata",
              "type": "bytes"
            }
          ],
          "internalType": "struct JBPayParamsData",
          "name": "_data",
          "type": "tuple"
        }
      ],
      "name": "payParams",
      "outputs": [
        {
          "internalType": "uint256",
          "name": "weight",
          "type": "uint256"
        },
        {
          "internalType": "string",
          "name": "memo",
          "type": "string"
        },
        {
          "components": [
            {
              "internalType": "contract IJBPayDelegate3_1_1",
              "name": "delegate",
              "type": "address"
            },
            {
              "internalType": "uint256",
              "name": "amount",
              "type": "uint256"
            },
            {
              "internalType": "bytes",
              "name": "metadata",
              "type": "bytes"
            }
          ],
          "internalType": "struct JBPayDelegateAllocation3_1_1[]",
          "name": "delegateAllocations",
          "type": "tuple[]"
        }
      ],
      "stateMutability": "view",
      "type": "function"
    },
    {
      "inputs": [
        {
          "components": [
            {
              "internalType": "contract IJBPaymentTerminal",
              "name": "terminal",
              "type": "address"
            },
            {
              "internalType": "address",
              "name": "holder",
              "type": "address"
            },
            {
              "internalType": "uint256",
              "name": "projectId",
              "type": "uint256"
            },
            {
              "internalType": "uint256",
              "name": "currentFundingCycleConfiguration",
              "type": "uint256"
            },
            {
              "internalType": "uint256",
              "name": "tokenCount",
              "type": "uint256"
            },
            {
              "internalType": "uint256",
              "name": "totalSupply",
              "type": "uint256"
            },
            {
              "internalType": "uint256",
              "name": "overflow",
              "type": "uint256"
            },
            {
              "components": [
                {
                  "internalType": "address",
                  "name": "token",
                  "type": "address"
                },
                {
                  "internalType": "uint256",
                  "name": "value",
                  "type": "uint256"
                },
                {
                  "internalType": "uint256",
                  "name": "decimals",
                  "type": "uint256"
                },
                {
                  "internalType": "uint256",
                  "name": "currency",
                  "type": "uint256"
                }
              ],
              "internalType": "struct JBTokenAmount",
              "name": "reclaimAmount",
              "type": "tuple"
            },
            {
              "internalType": "bool",
              "name": "useTotalOverflow",
              "type": "bool"
            },
            {
              "internalType": "uint256",
              "name": "redemptionRate",
              "type": "uint256"
            },
            {
              "internalType": "string",
              "name": "memo",
              "type": "string"
            },
            {
              "internalType": "bytes",
              "name": "metadata",
              "type": "bytes"
            }
          ],
          "internalType": "struct JBRedeemParamsData",
          "name": "_data",
          "type": "tuple"
        }
      ],
      "name": "redeemParams",
      "outputs": [
        {
          "internalType": "uint256",
          "name": "",
          "type": "uint256"
        },
        {
          "internalType": "string",
          "name": "",
          "type": "string"
        },
        {
          "components": [
            {
              "internalType": "contract IJBRedemptionDelegate3_1_1",
              "name": "delegate",
              "type": "address"
            },
            {
              "internalType": "uint256",
              "name": "amount",
              "type": "uint256"
            },
            {
              "internalType": "bytes",
              "name": "metadata",
              "type": "bytes"
            }
          ],
          "internalType": "struct JBRedemptionDelegateAllocation3_1_1[]",
          "name": "",
          "type": "tuple[]"
        }
      ],
      "stateMutability": "view",
      "type": "function"
    },
    {
      "inputs": [
        {
          "internalType": "uint256",
          "name": "_networkId",
          "type": "uint256"
        }
      ],
      "name": "scheduleNextDevTaxPeriodOf",
      "outputs": [],
      "stateMutability": "nonpayable",
      "type": "function"
    },
    {
      "inputs": [
        {
          "internalType": "bytes4",
          "name": "_interfaceId",
          "type": "bytes4"
        }
      ],
      "name": "supportsInterface",
      "outputs": [
        {
          "internalType": "bool",
          "name": "",
          "type": "bool"
        }
      ],
      "stateMutability": "view",
      "type": "function"
    }
  ],
  "bytecode": {
    "object": "0x60e06040523480156200001157600080fd5b50604051620056c4380380620056c48339810160408190526200003491620000da565b6001600160a01b0390811660805260018054808201825560127fb10e2d527612073b26eecdfd717e6a320cf44b4afac2b0732d9fcbe2b7fa0cf69182015581548083018355601891015560058054918201815560005260097f036b6384b5eca791c62761152d0c79bb0604c104a5fb6f4eb0703f3154bb3db09091015591821660a0521660c0526200012e565b6001600160a01b0381168114620000d757600080fd5b50565b600080600060608486031215620000f057600080fd5b8351620000fd81620000c1565b60208501519093506200011081620000c1565b60408501519092506200012381620000c1565b809150509250925092565b60805160a05160c0516154e8620001dc6000396000818161022001526123150152600081816102e3015261210a01526000818161036201528181610466015281816106c2015281816108050152818161091301528181610bc401528181610e7f01528181610f560152818161115e0152818161133501528181611443015281816116f4015281816119f301528181611aca01528181611cb101528181611e33015261291c01526154e86000f3fe608060405234801561001057600080fd5b506004361061011b5760003560e01c80638f3d964b116100b2578063abc603e311610081578063d46cf17111610066578063d46cf17114610305578063ef8eadd514610327578063f77c47911461035d57600080fd5b8063abc603e3146102bc578063c41c2f24146102de57600080fd5b80638f3d964b1461021b5780639e8c513a146102675780639f665eee1461027a578063a51cfd181461029a57600080fd5b8063263950ae116100ee578063263950ae146101c25780634d757720146101e2578063522aa551146101f55780635bd266671461020857600080fd5b806301ffc9a7146101205780630310850e146101485780630a801f471461015d578063150b7a021461017e575b600080fd5b61013361012e366004612d88565b610384565b60405190151581526020015b60405180910390f35b61015b610156366004612dd1565b61041d565b005b61017061016b36600461326f565b6107f5565b60405190815260200161013f565b61019161018c366004613362565b61115a565b6040517fffffffff00000000000000000000000000000000000000000000000000000000909116815260200161013f565b6101d56101d0366004612dd1565b61126e565b60405161013f9190613401565b6101706101f0366004612dd1565b611304565b610170610203366004613584565b611325565b610170610216366004613a6a565b612106565b6102427f000000000000000000000000000000000000000000000000000000000000000081565b60405173ffffffffffffffffffffffffffffffffffffffff909116815260200161013f565b610170610275366004612dd1565b612412565b610170610288366004612dd1565b60026020526000908152604090205481565b6102ad6102a8366004613bb9565b612422565b60405161013f93929190613c63565b6102cf6102ca366004613d2c565b61248a565b60405161013f93929190613d4e565b6102427f000000000000000000000000000000000000000000000000000000000000000081565b610318610313366004613d8c565b61256d565b60405161013f93929190613dc8565b610242610335366004612dd1565b60036020526000908152604090205473ffffffffffffffffffffffffffffffffffffffff1681565b6102427f000000000000000000000000000000000000000000000000000000000000000081565b60007fffffffff0000000000000000000000000000000000000000000000000000000082167f71700c6900000000000000000000000000000000000000000000000000000000148061041757507f150b7a02000000000000000000000000000000000000000000000000000000007fffffffff000000000000000000000000000000000000000000000000000000008316145b92915050565b6040517f1f51045300000000000000000000000000000000000000000000000000000000815260048101829052600090819073ffffffffffffffffffffffffffffffffffffffff7f00000000000000000000000000000000000000000000000000000000000000001690631f510453906024016103c060405180830381865afa1580156104ae573d6000803e3d6000fd5b505050506040513d601f19601f820116820180604052508101906104d29190614046565b50600085815260026020526040812080549395509193509182906104f59061412c565b918290555060008581526020819052604090205490915080158061051857508082145b806105265750428460600151115b1561055d576040517fc97554fa00000000000000000000000000000000000000000000000000000000815260040160405180910390fd5b600085815260208190526040812080548490811061057d5761057d614164565b6000918252602080832060408051808201825293909101546fffffffffffffffffffffffffffffffff808216855270010000000000000000000000000000000090910481168484019081528251608080820185528c810151825281860188905260c0808e01518387015260608084018a905286516102a08101885261024081018b815261026082018c905261028082018c905281528951909616868901528d87015196860196909652948401889052830187905260a0830187905292820186905260e08201869052610100820186905261012082018690526101408201869052610160820186905261018082018690526101a082018690526101c082018690526101e0820195909552610200808a015173ffffffffffffffffffffffffffffffffffffffff908116918301919091526102208a810151908301529451928a01519395507f00000000000000000000000000000000000000000000000000000000000000009094169363badbdf28938b93906106f99085906128d7565b6040805160008082526020820190925290610787565b6107746040518060c00160405280600073ffffffffffffffffffffffffffffffffffffffff168152602001600073ffffffffffffffffffffffffffffffffffffffff168152602001600081526020016000815260200160008152602001600081525090565b81526020019060019003908161070f5790505b506040518763ffffffff1660e01b81526004016107a99695949392919061449b565b6020604051808303816000875af11580156107c8573d6000803e3d6000fd5b505050506040513d601f19601f820116820180604052508101906107ec91906145a1565b50505050505050565b60008061080189612aa7565b90507f000000000000000000000000000000000000000000000000000000000000000073ffffffffffffffffffffffffffffffffffffffff16638b79543c6040518163ffffffff1660e01b8152600401602060405180830381865afa15801561086e573d6000803e3d6000fd5b505050506040513d601f19601f8201168201806040525081019061089291906145ba565b73ffffffffffffffffffffffffffffffffffffffff1663666d87a0308a6040518363ffffffff1660e01b81526004016108cc9291906145d7565b6020604051808303816000875af11580156108eb573d6000803e3d6000fd5b505050506040513d601f19601f8201168201806040525081019061090f91906145a1565b91507f000000000000000000000000000000000000000000000000000000000000000073ffffffffffffffffffffffffffffffffffffffff1663619306306040518163ffffffff1660e01b8152600401602060405180830381865afa15801561097c573d6000803e3d6000fd5b505050506040513d601f19601f820116820180604052508101906109a091906145ba565b73ffffffffffffffffffffffffffffffffffffffff1663a7f2a70b8389896040518463ffffffff1660e01b81526004016109dc93929190614625565b6020604051808303816000875af11580156109fb573d6000803e3d6000fd5b505050506040513d601f19601f82011682018060405250810190610a1f91906145ba565b508273ffffffffffffffffffffffffffffffffffffffff16637b621d3a838760c001518673ffffffffffffffffffffffffffffffffffffffff166360b3042c6040518163ffffffff1660e01b8152600401602060405180830381865afa158015610a8d573d6000803e3d6000fd5b505050506040513d601f19601f82011682018060405250810190610ab191906145a1565b8773ffffffffffffffffffffffffffffffffffffffff1663737a79966040518163ffffffff1660e01b8152600401602060405180830381865afa158015610afc573d6000803e3d6000fd5b505050506040513d601f19601f82011682018060405250810190610b2091906145a1565b6040517fffffffff0000000000000000000000000000000000000000000000000000000060e087901b168152600481019490945262ffffff909216602484015263ffffffff908116604484015216606482015261eeee608482015260a4016020604051808303816000875af1158015610b9d573d6000803e3d6000fd5b505050506040513d601f19601f82011682018060405250810190610bc191906145ba565b507f000000000000000000000000000000000000000000000000000000000000000073ffffffffffffffffffffffffffffffffffffffff1663111d861b8360405180608001604052808960600151815260200160128a60000151610c25919061477a565b81526040808b0151602080840191909152600092820183905281516102a081019092526102408201838152610260830184905261028083019390935291815260a08b015151909182019015610c9c578a60a00151600081518110610c8b57610c8b614164565b602002602001015160000151610c9f565b60005b6fffffffffffffffffffffffffffffffff1681526020018a60800151612710610cc89190614789565b815260006020820181905260408201819052606082018190526080820181905260a0808301829052600160c0840181905260e0840183905261010084018390526101208401839052610140840183905261016084018390526101808401526101a0830182905273ffffffffffffffffffffffffffffffffffffffff8b166101c08401526101e0909201528a01515115610d83578960a00151600081518110610d7257610d72614164565b602002602001015160200151610d86565b60005b604080516000808252602082019092528891610e15565b610e026040518060c00160405280600073ffffffffffffffffffffffffffffffffffffffff168152602001600073ffffffffffffffffffffffffffffffffffffffff168152602001600081526020016000815260200160008152602001600081525090565b815260200190600190039081610d9d5790505b508b6040518863ffffffff1660e01b8152600401610e39979695949392919061479c565b6020604051808303816000875af1158015610e58573d6000803e3d6000fd5b505050506040513d601f19601f82011682018060405250810190610e7c91906145a1565b507f000000000000000000000000000000000000000000000000000000000000000073ffffffffffffffffffffffffffffffffffffffff16638ae9c07b8360128860200151610ecb919061477a565b8c8a604051602001610edd91906148cc565b6040516020818303038152906040526000806040518763ffffffff1660e01b8152600401610f1096959493929190614911565b6020604051808303816000875af1158015610f2f573d6000803e3d6000fd5b505050506040513d601f19601f82011682018060405250810190610f5391906145a1565b507f000000000000000000000000000000000000000000000000000000000000000073ffffffffffffffffffffffffffffffffffffffff16632bdfe0046040518163ffffffff1660e01b8152600401602060405180830381865afa158015610fbf573d6000803e3d6000fd5b505050506040513d601f19601f82011682018060405250810190610fe391906145ba565b73ffffffffffffffffffffffffffffffffffffffff1663ad007d636040518163ffffffff1660e01b8152600401602060405180830381865afa15801561102d573d6000803e3d6000fd5b505050506040513d601f19601f8201168201806040525081019061105191906145ba565b73ffffffffffffffffffffffffffffffffffffffff1663529cdd2e60405180606001604052808c73ffffffffffffffffffffffffffffffffffffffff16815260200185815260200160018054806020026020016040519081016040528092919081815260200182805480156110e557602002820191906000526020600020905b8154815260200190600101908083116110d1575b50505050508152506040518263ffffffff1660e01b81526004016111099190614966565b600060405180830381600087803b15801561112357600080fd5b505af1158015611137573d6000803e3d6000fd5b5050505061114e828660a001518760600151612c2d565b50979650505050505050565b60007f000000000000000000000000000000000000000000000000000000000000000073ffffffffffffffffffffffffffffffffffffffff16638b79543c6040518163ffffffff1660e01b8152600401602060405180830381865afa1580156111c7573d6000803e3d6000fd5b505050506040513d601f19601f820116820180604052508101906111eb91906145ba565b73ffffffffffffffffffffffffffffffffffffffff163373ffffffffffffffffffffffffffffffffffffffff161461122257600080fd5b73ffffffffffffffffffffffffffffffffffffffff85161561124357600080fd5b507f150b7a020000000000000000000000000000000000000000000000000000000095945050505050565b600081815260208181526040808320805482518185028101850190935280835260609492939192909184015b828210156112f957600084815260209081902060408051808201909152908401546fffffffffffffffffffffffffffffffff8082168352700100000000000000000000000000000000909104168183015282526001909201910161129a565b505050509050919050565b6001818154811061131457600080fd5b600091825260209091200154905081565b6000806113318b612aa7565b90507f000000000000000000000000000000000000000000000000000000000000000073ffffffffffffffffffffffffffffffffffffffff16638b79543c6040518163ffffffff1660e01b8152600401602060405180830381865afa15801561139e573d6000803e3d6000fd5b505050506040513d601f19601f820116820180604052508101906113c291906145ba565b73ffffffffffffffffffffffffffffffffffffffff1663666d87a0308c6040518363ffffffff1660e01b81526004016113fc9291906145d7565b6020604051808303816000875af115801561141b573d6000803e3d6000fd5b505050506040513d601f19601f8201168201806040525081019061143f91906145a1565b91507f000000000000000000000000000000000000000000000000000000000000000073ffffffffffffffffffffffffffffffffffffffff1663619306306040518163ffffffff1660e01b8152600401602060405180830381865afa1580156114ac573d6000803e3d6000fd5b505050506040513d601f19601f820116820180604052508101906114d091906145ba565b73ffffffffffffffffffffffffffffffffffffffff1663a7f2a70b838b8b6040518463ffffffff1660e01b815260040161150c93929190614625565b6020604051808303816000875af115801561152b573d6000803e3d6000fd5b505050506040513d601f19601f8201168201806040525081019061154f91906145ba565b508473ffffffffffffffffffffffffffffffffffffffff16637b621d3a838960c001518873ffffffffffffffffffffffffffffffffffffffff166360b3042c6040518163ffffffff1660e01b8152600401602060405180830381865afa1580156115bd573d6000803e3d6000fd5b505050506040513d601f19601f820116820180604052508101906115e191906145a1565b8973ffffffffffffffffffffffffffffffffffffffff1663737a79966040518163ffffffff1660e01b8152600401602060405180830381865afa15801561162c573d6000803e3d6000fd5b505050506040513d601f19601f8201168201806040525081019061165091906145a1565b6040517fffffffff0000000000000000000000000000000000000000000000000000000060e087901b168152600481019490945262ffffff909216602484015263ffffffff908116604484015216606482015261eeee608482015260a4016020604051808303816000875af11580156116cd573d6000803e3d6000fd5b505050506040513d601f19601f820116820180604052508101906116f191906145ba565b507f000000000000000000000000000000000000000000000000000000000000000073ffffffffffffffffffffffffffffffffffffffff1663111d861b8360405180608001604052808b60600151815260200160128c60000151611755919061477a565b81526040808d0151602080840191909152600092820183905281516102a081019092526102408201838152610260830184905261028083019390935291815260a08d0151519091820190156117cc578c60a001516000815181106117bb576117bb614164565b6020026020010151600001516117cf565b60005b6fffffffffffffffffffffffffffffffff1681526020018c608001516127106117f89190614789565b815260006020820181905260408201819052606082018190526080820181905260a0808301829052600160c0840181905260e0840183905261010084018390526101208401839052610140840183905261016084018390526101808401526101a0830191909152306101c083015260ff8a166101e0909201919091528c015151156118a5578b60a0015160008151811061189457611894614164565b6020026020010151602001516118a8565b60005b604080516000808252602082019092528891611937565b6119246040518060c00160405280600073ffffffffffffffffffffffffffffffffffffffff168152602001600073ffffffffffffffffffffffffffffffffffffffff168152602001600081526020016000815260200160008152602001600081525090565b8152602001906001900390816118bf5790505b508d6040518863ffffffff1660e01b815260040161195b979695949392919061479c565b6020604051808303816000875af115801561197a573d6000803e3d6000fd5b505050506040513d601f19601f8201168201806040525081019061199e91906145a1565b50846003600084815260200190815260200160002060006101000a81548173ffffffffffffffffffffffffffffffffffffffff021916908373ffffffffffffffffffffffffffffffffffffffff1602179055507f000000000000000000000000000000000000000000000000000000000000000073ffffffffffffffffffffffffffffffffffffffff16638ae9c07b8360128a60200151611a3f919061477a565b8e8c604051602001611a5191906148cc565b6040516020818303038152906040526000806040518763ffffffff1660e01b8152600401611a8496959493929190614911565b6020604051808303816000875af1158015611aa3573d6000803e3d6000fd5b505050506040513d601f19601f82011682018060405250810190611ac791906145a1565b507f000000000000000000000000000000000000000000000000000000000000000073ffffffffffffffffffffffffffffffffffffffff16632bdfe0046040518163ffffffff1660e01b8152600401602060405180830381865afa158015611b33573d6000803e3d6000fd5b505050506040513d601f19601f82011682018060405250810190611b5791906145ba565b73ffffffffffffffffffffffffffffffffffffffff1663ad007d636040518163ffffffff1660e01b8152600401602060405180830381865afa158015611ba1573d6000803e3d6000fd5b505050506040513d601f19601f82011682018060405250810190611bc591906145ba565b73ffffffffffffffffffffffffffffffffffffffff1663529cdd2e60405180606001604052808e73ffffffffffffffffffffffffffffffffffffffff1681526020018581526020016001805480602002602001604051908101604052809291908181526020018280548015611c5957602002820191906000526020600020905b815481526020019060010190808311611c45575b50505050508152506040518263ffffffff1660e01b8152600401611c7d9190614966565b600060405180830381600087803b158015611c9757600080fd5b505af1158015611cab573d6000803e3d6000fd5b505050507f000000000000000000000000000000000000000000000000000000000000000073ffffffffffffffffffffffffffffffffffffffff16632bdfe0046040518163ffffffff1660e01b8152600401602060405180830381865afa158015611d1a573d6000803e3d6000fd5b505050506040513d601f19601f82011682018060405250810190611d3e91906145ba565b73ffffffffffffffffffffffffffffffffffffffff1663ad007d636040518163ffffffff1660e01b8152600401602060405180830381865afa158015611d88573d6000803e3d6000fd5b505050506040513d601f19601f82011682018060405250810190611dac91906145ba565b73ffffffffffffffffffffffffffffffffffffffff16630f5932f08630600060056040518563ffffffff1660e01b8152600401611dec94939291906149d7565b602060405180830381865afa158015611e09573d6000803e3d6000fd5b505050506040513d601f19601f82011682018060405250810190611e2d9190614a53565b61201a577f000000000000000000000000000000000000000000000000000000000000000073ffffffffffffffffffffffffffffffffffffffff16632bdfe0046040518163ffffffff1660e01b8152600401602060405180830381865afa158015611e9c573d6000803e3d6000fd5b505050506040513d601f19601f82011682018060405250810190611ec091906145ba565b73ffffffffffffffffffffffffffffffffffffffff1663ad007d636040518163ffffffff1660e01b8152600401602060405180830381865afa158015611f0a573d6000803e3d6000fd5b505050506040513d601f19601f82011682018060405250810190611f2e91906145ba565b73ffffffffffffffffffffffffffffffffffffffff1663529cdd2e60405180606001604052808873ffffffffffffffffffffffffffffffffffffffff168152602001600081526020016005805480602002602001604051908101604052809291908181526020018280548015611fc357602002820191906000526020600020905b815481526020019060010190808311611faf575b50505050508152506040518263ffffffff1660e01b8152600401611fe79190614966565b600060405180830381600087803b15801561200157600080fd5b505af1158015612015573d6000803e3d6000fd5b505050505b61202d828860a001518960600151612c2d565b835160005b818110156120f65785818151811061204c5761204c614164565b602002602001015160046000868152602001908152602001600020828154811061207857612078614164565b600091825260209182902083516003929092020180547fffffffffffffffffffffffff00000000000000000000000000000000000000001673ffffffffffffffffffffffffffffffffffffffff909216919091178155908201516001820155604082015160028201906120eb9082614b12565b505050600101612032565b5050509998505050505050505050565b60007f000000000000000000000000000000000000000000000000000000000000000073ffffffffffffffffffffffffffffffffffffffff16638b79543c6040518163ffffffff1660e01b8152600401602060405180830381865afa158015612173573d6000803e3d6000fd5b505050506040513d601f19601f8201168201806040525081019061219791906145ba565b73ffffffffffffffffffffffffffffffffffffffff166306661abd6040518163ffffffff1660e01b8152600401602060405180830381865afa1580156121e1573d6000803e3d6000fd5b505050506040513d601f19601f8201168201806040525081019061220591906145a1565b612210906001614c2c565b83519091506000612222826001614c2c565b67ffffffffffffffff81111561223a5761223a612e1f565b60405190808252806020026020018201604052801561228757816020015b604080516060808201835260008083526020830152918101919091528152602001906001900390816122585790505b50905060005b828110156122d4578581815181106122a7576122a7614164565b60200260200101518282815181106122c1576122c1614164565b602090810291909101015260010161228d565b506040517f70d7f24900000000000000000000000000000000000000000000000000000000815260009073ffffffffffffffffffffffffffffffffffffffff7f000000000000000000000000000000000000000000000000000000000000000016906370d7f2499061234c9087908b90600401614db9565b6020604051808303816000875af115801561236b573d6000803e3d6000fd5b505050506040513d601f19601f8201168201806040525081019061238f91906145ba565b905060405180606001604052808273ffffffffffffffffffffffffffffffffffffffff16815260200160008152602001604051806020016040528060008152508152508284815181106123e4576123e4614164565b6020026020010181905250506124018d8d8d8d8d8d8d888c611325565b5050509a9950505050505050505050565b6005818154811061131457600080fd5b60408051600080825260208201909252606090819083908161246e565b6040805160608082018352600080835260208301529181019190915281526020019060019003908161243f5790505b5060408051602081019091526000815291969195509350915050565b600460205281600052604060002081815481106124a657600080fd5b600091825260209091206003909102018054600182015460028301805473ffffffffffffffffffffffffffffffffffffffff9093169550909350906124ea90614a70565b80601f016020809104026020016040519081016040528092919081815260200182805461251690614a70565b80156125635780601f1061253857610100808354040283529160200191612563565b820191906000526020600020905b81548152906001019060200180831161254657829003601f168201915b5050505050905083565b60c08101356000908152600360205260408082205490517fd46cf1710000000000000000000000000000000000000000000000000000000081526060918291829173ffffffffffffffffffffffffffffffffffffffff169063d46cf171906125d9908890600401615062565b600060405180830381865afa1580156125f6573d6000803e3d6000fd5b505050506040513d6000823e601f3d9081017fffffffffffffffffffffffffffffffffffffffffffffffffffffffffffffffe016820160405261263c91908101906151d6565b805160c089013560009081526004602090815260408083208054825181850281018501909352808352979b5094975092151595919450919291849084015b8282101561276b5760008481526020908190206040805160608101825260038602909201805473ffffffffffffffffffffffffffffffffffffffff168352600181015493830193909352600283018054929392918401916126da90614a70565b80601f016020809104026020016040519081016040528092919081815260200182805461270690614a70565b80156127535780601f1061272857610100808354040283529160200191612753565b820191906000526020600020905b81548152906001019060200180831161273657829003601f168201915b5050505050815250508152602001906001019061267a565b50505050905060008151905082612783576000612786565b60015b6127939060ff1682614c2c565b67ffffffffffffffff8111156127ab576127ab612e1f565b6040519080825280602002602001820160405280156127f857816020015b604080516060808201835260008083526020830152918101919091528152602001906001900390816127c95790505b50945060005b818110156128455782818151811061281857612818614164565b602002602001015186828151811061283257612832614164565b60209081029190910101526001016127fe565b508215612885578360008151811061285f5761285f614164565b602002602001015185828151811061287957612879614164565b60200260200101819052505b61289361016089018961534f565b8080601f016020809104026020016040519081016040528093929190818152602001838380828437600092019190915250999b929a50969850909650505050505050565b604080516001808252818301909252606091816020015b6040805180820190915260008152606060208201528152602001906001900390816128ee57905050905060007f000000000000000000000000000000000000000000000000000000000000000073ffffffffffffffffffffffffffffffffffffffff16632bdfe0046040518163ffffffff1660e01b8152600401602060405180830381865afa158015612985573d6000803e3d6000fd5b505050506040513d601f19601f820116820180604052508101906129a991906145ba565b6040517f69e11cc500000000000000000000000000000000000000000000000000000000815260048101869052602481018590526002604482015273ffffffffffffffffffffffffffffffffffffffff91909116906369e11cc590606401600060405180830381865afa158015612a24573d6000803e3d6000fd5b505050506040513d6000823e601f3d9081017fffffffffffffffffffffffffffffffffffffffffffffffffffffffffffffffe0168201604052612a6a91908101906153b4565b90506040518060400160405280600281526020018281525082600081518110612a9557612a95614164565b60200260200101819052505092915050565b604080516001808252818301909252606091816020015b604080518082019091526000815260606020820152815260200190600190039081612abe57505060408051600180825281830190925291925060009190602082015b6040805160e08101825260008082526020808301829052928201819052606082018190526080820181905260a0820181905260c082015282527fffffffffffffffffffffffffffffffffffffffffffffffffffffffffffffffff909201910181612b005790505090506040518060e00160405280600015158152602001600015158152602001633b9aca008152602001600081526020018473ffffffffffffffffffffffffffffffffffffffff16815260200160008152602001600073ffffffffffffffffffffffffffffffffffffffff1681525081600181518110612be857612be8614164565b60200260200101819052506040518060400160405280600281526020018281525082600081518110612c1c57612c1c614164565b602002602001018190525050919050565b81518015612d825760005b81811015612d80578015801590612cc257508284612c57600184614789565b81518110612c6757612c67614164565b6020026020010151602001516fffffffffffffffffffffffffffffffff16612c8f9190614c2c565b848281518110612ca157612ca1614164565b6020026020010151602001516fffffffffffffffffffffffffffffffff1611155b15612cf9576040517fc5c2978500000000000000000000000000000000000000000000000000000000815260040160405180910390fd5b838181518110612d0b57612d0b614164565b60200260200101516000808781526020019081526020016000208281548110612d3657612d36614164565b6000918252602091829020835193909201516fffffffffffffffffffffffffffffffff90811670010000000000000000000000000000000002931692909217910155600101612c38565b505b50505050565b600060208284031215612d9a57600080fd5b81357fffffffff0000000000000000000000000000000000000000000000000000000081168114612dca57600080fd5b9392505050565b600060208284031215612de357600080fd5b5035919050565b73ffffffffffffffffffffffffffffffffffffffff81168114612e0c57600080fd5b50565b8035612e1a81612dea565b919050565b7f4e487b7100000000000000000000000000000000000000000000000000000000600052604160045260246000fd5b6040805190810167ffffffffffffffff81118282101715612e7157612e71612e1f565b60405290565b60405160e0810167ffffffffffffffff81118282101715612e7157612e71612e1f565b6040516060810167ffffffffffffffff81118282101715612e7157612e71612e1f565b6040516080810167ffffffffffffffff81118282101715612e7157612e71612e1f565b604051610160810167ffffffffffffffff81118282101715612e7157612e71612e1f565b604051610240810167ffffffffffffffff81118282101715612e7157612e71612e1f565b604051610120810167ffffffffffffffff81118282101715612e7157612e71612e1f565b604051601f82017fffffffffffffffffffffffffffffffffffffffffffffffffffffffffffffffe016810167ffffffffffffffff81118282101715612f9357612f93612e1f565b604052919050565b600067ffffffffffffffff821115612fb557612fb5612e1f565b50601f017fffffffffffffffffffffffffffffffffffffffffffffffffffffffffffffffe01660200190565b6000612ff4612fef84612f9b565b612f4c565b905082815283838301111561300857600080fd5b828260208301376000602084830101529392505050565b600082601f83011261303057600080fd5b612dca83833560208501612fe1565b60006040828403121561305157600080fd5b613059612e4e565b9050813567ffffffffffffffff81111561307257600080fd5b61307e8482850161301f565b8252506020820135602082015292915050565b600067ffffffffffffffff8211156130ab576130ab612e1f565b5060051b60200190565b80356fffffffffffffffffffffffffffffffff81168114612e1a57600080fd5b600082601f8301126130e657600080fd5b813560206130f6612fef83613091565b82815260069290921b8401810191818101908684111561311557600080fd5b8286015b8481101561316257604081890312156131325760008081fd5b61313a612e4e565b613143826130b5565b81526131508583016130b5565b81860152835291830191604001613119565b509695505050505050565b803562ffffff81168114612e1a57600080fd5b600060e0828403121561319257600080fd5b61319a612e77565b9050813581526020820135602082015260408201356040820152606082013560608201526080820135608082015260a082013567ffffffffffffffff8111156131e257600080fd5b6131ee848285016130d5565b60a08301525061320060c0830161316d565b60c082015292915050565b600082601f83011261321c57600080fd5b8135602061322c612fef83613091565b82815260059290921b8401810191818101908684111561324b57600080fd5b8286015b8481101561316257803561326281612dea565b835291830191830161324f565b600080600080600080600060e0888a03121561328a57600080fd5b61329388612e0f565b9650602088013567ffffffffffffffff808211156132b057600080fd5b6132bc8b838c0161303f565b975060408a01359150808211156132d257600080fd5b6132de8b838c0161301f565b965060608a01359150808211156132f457600080fd5b6133008b838c0161301f565b955060808a013591508082111561331657600080fd5b6133228b838c01613180565b945060a08a013591508082111561333857600080fd5b506133458a828b0161320b565b92505061335460c08901612e0f565b905092959891949750929550565b60008060008060006080868803121561337a57600080fd5b853561338581612dea565b9450602086013561339581612dea565b935060408601359250606086013567ffffffffffffffff808211156133b957600080fd5b818801915088601f8301126133cd57600080fd5b8135818111156133dc57600080fd5b8960208285010111156133ee57600080fd5b9699959850939650602001949392505050565b602080825282518282018190526000919060409081850190868401855b8281101561345957815180516fffffffffffffffffffffffffffffffff9081168652908701511686850152928401929085019060010161341e565b5091979650505050505050565b600082601f83011261347757600080fd5b81356020613487612fef83613091565b82815260059290921b840181019181810190868411156134a657600080fd5b8286015b8481101561316257803567ffffffffffffffff808211156134cb5760008081fd5b81890191506060807fffffffffffffffffffffffffffffffffffffffffffffffffffffffffffffffe0848d030112156135045760008081fd5b61350c612e9a565b8784013561351981612dea565b8152604084810135898301529184013591838311156135385760008081fd5b82850194508c603f86011261354f57600093508384fd5b61355f8d8a870135838801612fe1565b9082015286525050509183019183016134aa565b803560ff81168114612e1a57600080fd5b60008060008060008060008060006101208a8c0312156135a357600080fd5b6135ac8a612e0f565b985060208a013567ffffffffffffffff808211156135c957600080fd5b6135d58d838e0161303f565b995060408c01359150808211156135eb57600080fd5b6135f78d838e0161301f565b985060608c013591508082111561360d57600080fd5b6136198d838e0161301f565b975060808c013591508082111561362f57600080fd5b61363b8d838e01613180565b965060a08c013591508082111561365157600080fd5b61365d8d838e0161320b565b955061366b60c08d01612e0f565b945060e08c013591508082111561368157600080fd5b5061368e8c828d01613466565b92505061369e6101008b01613573565b90509295985092959850929598565b80356cffffffffffffffffffffffffff81168114612e1a57600080fd5b803563ffffffff81168114612e1a57600080fd5b803561ffff81168114612e1a57600080fd5b8015158114612e0c57600080fd5b8035612e1a816136f0565b803565ffffffffffff81168114612e1a57600080fd5b6000608080838503121561373257600080fd5b61373a612ebd565b9150823567ffffffffffffffff81111561375357600080fd5b8301601f8101851361376457600080fd5b80356020613774612fef83613091565b828152610160928302840182019282820191908985111561379457600080fd5b948301945b848610156138755780868b0312156137b15760008081fd5b6137b9612ee0565b6137c2876136ad565b81526137cf8588016136ca565b8582015260406137e08189016136ca565b9082015260606137f18882016136de565b90820152613800878901612e0f565b8189015260a0878101359082015260c061381b81890161316d565b9082015260e061382c8882016136fe565b9082015261010061383e8882016136fe565b908201526101206138508882016136fe565b908201526101406138628882016136fe565b9082015283529485019491830191613799565b50865250613884868201613709565b818601525050505061389860408301613709565b60408201526138a960608301612e0f565b606082015292915050565b6000608082840312156138c657600080fd5b6138ce612ebd565b905081356138db816136f0565b815260208201356138eb816136f0565b602082015260408201356138fe816136f0565b604082015260608201356138a9816136f0565b803560028110612e1a57600080fd5b60006101c0828403121561393357600080fd5b61393b612ee0565b9050813567ffffffffffffffff8082111561395557600080fd5b6139618583860161301f565b8352602084013591508082111561397757600080fd5b6139838583860161301f565b602084015261399460408501612e0f565b604084015260608401359150808211156139ad57600080fd5b6139b98583860161301f565b60608401526139ca60808501612e0f565b608084015260a08401359150808211156139e357600080fd5b6139ef8583860161301f565b60a084015260c0840135915080821115613a0857600080fd5b50613a158482850161371f565b60c083015250613a2760e08301612e0f565b60e0820152610100613a3a818401612e0f565b90820152610120613a4d848483016138b4565b90820152613a5e6101a08301613911565b61014082015292915050565b6000806000806000806000806000806101408b8d031215613a8a57600080fd5b613a938b612e0f565b995060208b013567ffffffffffffffff80821115613ab057600080fd5b613abc8e838f0161303f565b9a5060408d0135915080821115613ad257600080fd5b613ade8e838f0161301f565b995060608d0135915080821115613af457600080fd5b613b008e838f0161301f565b985060808d0135915080821115613b1657600080fd5b613b228e838f01613180565b975060a08d0135915080821115613b3857600080fd5b613b448e838f0161320b565b9650613b5260c08e01612e0f565b955060e08d0135915080821115613b6857600080fd5b613b748e838f01613920565b94506101008d0135915080821115613b8b57600080fd5b50613b988d828e01613466565b925050613ba86101208c01613573565b90509295989b9194979a5092959850565b600060208284031215613bcb57600080fd5b813567ffffffffffffffff811115613be257600080fd5b82016101e08185031215612dca57600080fd5b60005b83811015613c10578181015183820152602001613bf8565b50506000910152565b60008151808452613c31816020860160208601613bf5565b601f017fffffffffffffffffffffffffffffffffffffffffffffffffffffffffffffffe0169290920160200192915050565b6000606085835260208181850152613c7d82850187613c19565b6040858203818701528187518084528484019150848160051b850101858a0160005b83811015613d1a578683037fffffffffffffffffffffffffffffffffffffffffffffffffffffffffffffffe00185528151805173ffffffffffffffffffffffffffffffffffffffff16845288810151898501528601518684018a9052613d078a850182613c19565b9589019593505090870190600101613c9f565b50909c9b505050505050505050505050565b60008060408385031215613d3f57600080fd5b50508035926020909101359150565b73ffffffffffffffffffffffffffffffffffffffff84168152826020820152606060408201526000613d836060830184613c19565b95945050505050565b600060208284031215613d9e57600080fd5b813567ffffffffffffffff811115613db557600080fd5b82016101a08185031215612dca57600080fd5b6000606085835260208181850152613de282850187613c19565b6040858203818701528187518084528484019150848160051b850101858a0160005b83811015613d1a578683037fffffffffffffffffffffffffffffffffffffffffffffffffffffffffffffffe00185528151805173ffffffffffffffffffffffffffffffffffffffff16845288810151898501528601518684018a9052613e6c8a850182613c19565b9589019593505090870190600101613e04565b8051612e1a81612dea565b8051612e1a816136f0565b600060608284031215613ea757600080fd5b613eaf612e9a565b90508151613ebc816136f0565b81526020820151613ecc816136f0565b60208201526040820151613edf816136f0565b604082015292915050565b60006102808284031215613efd57600080fd5b613f05612f04565b9050613f118383613e95565b8152606082015160208201526080820151604082015260a08201516060820152613f3d60c08301613e8a565b6080820152613f4e60e08301613e8a565b60a0820152610100613f61818401613e8a565b60c0830152610120613f74818501613e8a565b60e0840152610140613f87818601613e8a565b838501526101609250613f9b838601613e8a565b828501526101809150613faf828601613e8a565b908401526101a0613fc1858201613e8a565b838501526101c09250613fd5838601613e8a565b828501526101e09150613fe9828601613e8a565b90840152610200613ffb858201613e8a565b83850152610220925061400f838601613e8a565b828501526140206102408601613e7f565b818501525050610260830151818301525092915050565b805160038110612e1a57600080fd5b60008060008385036103c081121561405d57600080fd5b6101208082121561406d57600080fd5b614075612f28565b9150855182526020860151602083015260408601516040830152606086015160608301526080860151608083015260a086015160a083015260c086015160c08301526140c360e08701613e7f565b60e08301526101008087015181840152508194506140e387828801613eea565b935050506140f46103a08501614037565b90509250925092565b7f4e487b7100000000000000000000000000000000000000000000000000000000600052601160045260246000fd5b60007fffffffffffffffffffffffffffffffffffffffffffffffffffffffffffffffff820361415d5761415d6140fd565b5060010190565b7f4e487b7100000000000000000000000000000000000000000000000000000000600052603260045260246000fd5b6141b88282518051151582526020808201511515908301526040908101511515910152565b6020810151606083015260408101516080830152606081015160a083015260808101516141e960c084018215159052565b5060a081015180151560e08401525060c081015161010061420d8185018315159052565b60e083015191506101206142248186018415159052565b9083015191506101409061423b8583018415159052565b83015191506101606142508582018415159052565b908301519150610180906142678583018415159052565b83015191506101a061427c8582018415159052565b9083015191506101c0906142938583018415159052565b83015191506101e06142a88582018415159052565b908301519150610200906142bf8583018415159052565b83015191506102206142d48582018415159052565b9083015173ffffffffffffffffffffffffffffffffffffffff16610240850152909101516102609092019190915250565b600082825180855260208086019550808260051b8401018186016000805b85811015614405578684037fffffffffffffffffffffffffffffffffffffffffffffffffffffffffffffffe0018a52825180518552850151604086860181905281518187018190529187019160609081880190865b818110156143ee5785518051151584528b81015115158c8501528581015186850152848101518585015260808082015173ffffffffffffffffffffffffffffffffffffffff9081169186019190915260a0808301519086015260c0918201511690840152948a019460e090920191600101614378565b50509c88019c965050509285019250600101614323565b509198975050505050505050565b600081518084526020808501945080840160005b83811015614490578151805173ffffffffffffffffffffffffffffffffffffffff908116895284820151168489015260408082015190890152606080820151908901526080808201519089015260a0908101519088015260c09096019590820190600101614427565b509495945050505050565b60006103a08883526144e7602084018980518252602081015160208301526040810151604083015273ffffffffffffffffffffffffffffffffffffffff60608201511660608301525050565b6144f460a0840188614193565b6fffffffffffffffffffffffffffffffff86166103208401528061034084015261452081840186614305565b90508281036103608401526145358185614413565b838103610380909401939093525050603281527f5363686564756c6564206e657874206465762074617820706572696f64206f6660208201527f2052657461696c697374206e6574776f726b000000000000000000000000000060408201526060019695505050505050565b6000602082840312156145b357600080fd5b5051919050565b6000602082840312156145cc57600080fd5b8151612dca81612dea565b73ffffffffffffffffffffffffffffffffffffffff83168152604060208201526000825160408084015261460e6080840182613c19565b905060208401516060840152809150509392505050565b83815260606020820152600061463e6060830185613c19565b82810360408401526146508185613c19565b9695505050505050565b600181815b808511156146b357817fffffffffffffffffffffffffffffffffffffffffffffffffffffffffffffffff04821115614699576146996140fd565b808516156146a657918102915b93841c939080029061465f565b509250929050565b6000826146ca57506001610417565b816146d757506000610417565b81600181146146ed57600281146146f757614713565b6001915050610417565b60ff841115614708576147086140fd565b50506001821b610417565b5060208310610133831016604e8410600b8410161715614736575081810a610417565b614740838361465a565b807fffffffffffffffffffffffffffffffffffffffffffffffffffffffffffffffff04821115614772576147726140fd565b029392505050565b6000612dca60ff8416836146bb565b81810381811115610417576104176140fd565b60006103c089835260206147e98185018b80518252602081015160208301526040810151604083015273ffffffffffffffffffffffffffffffffffffffff60608201511660608301525050565b6147f660a085018a614193565b6fffffffffffffffffffffffffffffffff88166103208501528161034085015261482282850188614305565b91508382036103608501526148378287614413565b848103610380860152855180825282870193509082019060005b8181101561488357845173ffffffffffffffffffffffffffffffffffffffff1683529383019391830191600101614851565b50508481036103a0860152601a81527f4465706c6f7965642052657461696c697374206e6574776f726b0000000000006020820152604081019c9b505050505050505050505050565b7f5072656d696e746564202400000000000000000000000000000000000000000081526000825161490481600b850160208701613bf5565b91909101600b0192915050565b86815285602082015273ffffffffffffffffffffffffffffffffffffffff8516604082015260c06060820152600061494c60c0830186613c19565b93151560808301525090151560a090910152949350505050565b600060208083526080830173ffffffffffffffffffffffffffffffffffffffff85511682850152818501516040850152604085015160608086015281815180845260a0870191508483019350600092505b8083101561316257835182529284019260019290920191908401906149b7565b60006080820173ffffffffffffffffffffffffffffffffffffffff808816845260208188168186015286604086015260806060860152829150855480845260a0860192508660005281600020935060005b81811015614a4457845484526001948501949383019301614a28565b50919998505050505050505050565b600060208284031215614a6557600080fd5b8151612dca816136f0565b600181811c90821680614a8457607f821691505b602082108103614abd577f4e487b7100000000000000000000000000000000000000000000000000000000600052602260045260246000fd5b50919050565b601f821115614b0d57600081815260208120601f850160051c81016020861015614aea5750805b601f850160051c820191505b81811015614b0957828155600101614af6565b5050505b505050565b815167ffffffffffffffff811115614b2c57614b2c612e1f565b614b4081614b3a8454614a70565b84614ac3565b602080601f831160018114614b935760008415614b5d5750858301515b7fffffffffffffffffffffffffffffffffffffffffffffffffffffffffffffffff600386901b1c1916600185901b178555614b09565b6000858152602081207fffffffffffffffffffffffffffffffffffffffffffffffffffffffffffffffe08616915b82811015614be057888601518255948401946001909101908401614bc1565b5085821015614c1c57878501517fffffffffffffffffffffffffffffffffffffffffffffffffffffffffffffffff600388901b60f8161c191681555b5050505050600190811b01905550565b80820180821115610417576104176140fd565b80516080808452815184820181905260009260a0916020918201918388019190865b82811015614d2457845180516cffffffffffffffffffffffffff1685528281015163ffffffff908116848701526040808301519091169086015260608082015161ffff16908601528781015173ffffffffffffffffffffffffffffffffffffffff1688860152868101518786015260c08082015162ffffff169086015260e0808201511515908601526101008082015115159086015261012080820151151590860152610140908101511515908501529381019361016090930192600101614c61565b508781015165ffffffffffff81168a8301529550505060408601519350614d55604088018565ffffffffffff169052565b60608601519350614650606088018573ffffffffffffffffffffffffffffffffffffffff169052565b60028110614db5577f4e487b7100000000000000000000000000000000000000000000000000000000600052602160045260246000fd5b9052565b82815260406020820152600082516101c06040840152614ddd610200840182613c19565b905060208401517fffffffffffffffffffffffffffffffffffffffffffffffffffffffffffffffc080858403016060860152614e198383613c19565b925060408601519150614e44608086018373ffffffffffffffffffffffffffffffffffffffff169052565b60608601519150808584030160a0860152614e5f8383613c19565b925060808601519150614e8a60c086018373ffffffffffffffffffffffffffffffffffffffff169052565b60a08601519150808584030160e0860152614ea58383613c19565b925060c08601519150610100818685030181870152614ec48484614c3f565b935060e087015192506101209150614ef38287018473ffffffffffffffffffffffffffffffffffffffff169052565b8601519150610140614f1c8682018473ffffffffffffffffffffffffffffffffffffffff169052565b908601518051151561016087015260208101511515610180870152604081015115156101a08701526060015115156101c08601528501519050614f636101e0850182614d7e565b50949350505050565b8035614f7781612dea565b73ffffffffffffffffffffffffffffffffffffffff1682526020818101359083015260408082013590830152606090810135910152565b60008083357fffffffffffffffffffffffffffffffffffffffffffffffffffffffffffffffe1843603018112614fe357600080fd5b830160208101925035905067ffffffffffffffff81111561500357600080fd5b80360382131561501257600080fd5b9250929050565b8183528181602085013750600060208284010152600060207fffffffffffffffffffffffffffffffffffffffffffffffffffffffffffffffe0601f840116840101905092915050565b602081526150906020820161507684612e0f565b73ffffffffffffffffffffffffffffffffffffffff169052565b600061509e60208401612e0f565b73ffffffffffffffffffffffffffffffffffffffff81166040840152506150cb6060830160408501614f6c565b60c083013560e083015261010060e0840135818401526150ec818501612e0f565b90506101206151128185018373ffffffffffffffffffffffffffffffffffffffff169052565b6101409150808501358285015250610160818501358185015261513781860186614fae565b925090506101a061018081818701526151556101c087018585615019565b935061516381880188614fae565b935090507fffffffffffffffffffffffffffffffffffffffffffffffffffffffffffffffe0868503018287015261519b848483615019565b979650505050505050565b60006151b4612fef84612f9b565b90508281528383830111156151c857600080fd5b612dca836020830184613bf5565b6000806000606084860312156151eb57600080fd5b8351925060208085015167ffffffffffffffff8082111561520b57600080fd5b818701915087601f83011261521f57600080fd5b61522d8883518585016151a6565b9450604087015191508082111561524357600080fd5b818701915087601f83011261525757600080fd5b8151615265612fef82613091565b81815260059190911b8301840190848101908a83111561528457600080fd5b8585015b8381101561533e5780518581111561529f57600080fd5b86016060818e037fffffffffffffffffffffffffffffffffffffffffffffffffffffffffffffffe00112156152d357600080fd5b6152db612e9a565b888201516152e881612dea565b815260408201518982015260608201518781111561530557600080fd5b8083019250508d603f83011261531a57600080fd5b61532b8e8a840151604085016151a6565b6040820152845250918601918601615288565b508096505050505050509250925092565b60008083357fffffffffffffffffffffffffffffffffffffffffffffffffffffffffffffffe184360301811261538457600080fd5b83018035915067ffffffffffffffff82111561539f57600080fd5b60200191503681900382131561501257600080fd5b600060208083850312156153c757600080fd5b825167ffffffffffffffff8111156153de57600080fd5b8301601f810185136153ef57600080fd5b80516153fd612fef82613091565b81815260e0918202830184019184820191908884111561541c57600080fd5b938501935b8385101561114e5780858a0312156154395760008081fd5b615441612e77565b855161544c816136f0565b81528587015161545b816136f0565b81880152604086810151908201526060808701519082015260808087015161548281612dea565b9082015260a0868101519082015260c08087015161549f81612dea565b908201528352938401939185019161542156fea2646970667358221220b4bf96bf82c800296d28b20cc87486dfb4e44142db2a0e5d0342ea5b7f256d4064736f6c63430008150033",
    "linkReferences": {}
  },
  "methodIdentifiers": {
    "buybackDelegateDataSourceOf(uint256)": "ef8eadd5",
    "buybackDelegatePermissionIndexes(uint256)": "9e8c513a",
    "controller()": "f77c4791",
    "currentDevTaxPeriodNumberOf(uint256)": "9f665eee",
    "delegateAllocationsOf(uint256,uint256)": "abc603e3",
    "delegateDeployer()": "8f3d964b",
    "deployBasicNetworkFor(address,(string,uint256),string,string,(uint256,uint256,uint256,uint256,uint256,(uint128,uint128)[],uint24),address[],address)": "0a801f47",
    "deployPayAllocatorNetworkFor(address,(string,uint256),string,string,(uint256,uint256,uint256,uint256,uint256,(uint128,uint128)[],uint24),address[],address,(address,uint256,bytes)[],uint8)": "522aa551",
    "deployTiered721PayAllocatorNetworkFor(address,(string,uint256),string,string,(uint256,uint256,uint256,uint256,uint256,(uint128,uint128)[],uint24),address[],address,(string,string,address,string,address,string,((uint104,uint32,uint32,uint16,address,bytes32,uint24,bool,bool,bool,bool)[],uint48,uint48,address),address,address,(bool,bool,bool,bool),uint8),(address,uint256,bytes)[],uint8)": "5bd26667",
    "devTaxPeriodsOf(uint256)": "263950ae",
    "directory()": "c41c2f24",
    "onERC721Received(address,address,uint256,bytes)": "150b7a02",
    "operatorPermissionIndexes(uint256)": "4d757720",
    "payParams((address,address,(address,uint256,uint256,uint256),uint256,uint256,address,uint256,uint256,string,bytes))": "d46cf171",
    "redeemParams((address,address,uint256,uint256,uint256,uint256,uint256,(address,uint256,uint256,uint256),bool,uint256,string,bytes))": "a51cfd18",
    "scheduleNextDevTaxPeriodOf(uint256)": "0310850e",
    "supportsInterface(bytes4)": "01ffc9a7"
  },
  "id": 105
}