{
  "abi": [
    {
      "inputs": [
        {
          "internalType": "contract IJBController3_1",
          "name": "_controller",
          "type": "address"
        }
      ],
      "stateMutability": "nonpayable",
      "type": "constructor"
    },
    {
      "inputs": [],
      "name": "BAD_BOOST_SEQUENCE",
      "type": "error"
    },
    {
      "inputs": [],
      "name": "RECONFIGURATION_ALREADY_SCHEDULED",
      "type": "error"
    },
    {
      "inputs": [],
      "name": "RECONFIGURATION_NOT_POSSIBLE",
      "type": "error"
    },
    {
      "inputs": [],
      "name": "UNAUTHORIZED",
      "type": "error"
    },
    {
      "inputs": [
        {
          "internalType": "uint256",
          "name": "",
          "type": "uint256"
        }
      ],
      "name": "boostOperatorPermissionIndexes",
      "outputs": [
        {
          "internalType": "uint256",
          "name": "",
          "type": "uint256"
        }
      ],
      "stateMutability": "view",
      "type": "function"
    },
    {
      "inputs": [
        {
          "internalType": "uint256",
          "name": "_revnetId",
          "type": "uint256"
        }
      ],
      "name": "boostsOf",
      "outputs": [
        {
          "components": [
            {
              "internalType": "uint128",
              "name": "rate",
              "type": "uint128"
            },
            {
              "internalType": "uint128",
              "name": "startsAtOrAfter",
              "type": "uint128"
            }
          ],
          "internalType": "struct Boost[]",
          "name": "",
          "type": "tuple[]"
        }
      ],
      "stateMutability": "view",
      "type": "function"
    },
    {
      "inputs": [],
      "name": "controller",
      "outputs": [
        {
          "internalType": "contract IJBController3_1",
          "name": "",
          "type": "address"
        }
      ],
      "stateMutability": "view",
      "type": "function"
    },
    {
      "inputs": [
        {
          "internalType": "uint256",
          "name": "_revnetId",
          "type": "uint256"
        }
      ],
      "name": "currentBoostNumberOf",
      "outputs": [
        {
          "internalType": "uint256",
          "name": "",
          "type": "uint256"
        }
      ],
      "stateMutability": "view",
      "type": "function"
    },
    {
      "inputs": [
        {
          "internalType": "address",
          "name": "_boostOperator",
          "type": "address"
        },
        {
          "components": [
            {
              "internalType": "string",
              "name": "content",
              "type": "string"
            },
            {
              "internalType": "uint256",
              "name": "domain",
              "type": "uint256"
            }
          ],
          "internalType": "struct JBProjectMetadata",
          "name": "_revnetMetadata",
          "type": "tuple"
        },
        {
          "internalType": "string",
          "name": "_name",
          "type": "string"
        },
        {
          "internalType": "string",
          "name": "_symbol",
          "type": "string"
        },
        {
          "components": [
            {
              "internalType": "uint256",
              "name": "initialIssuanceRate",
              "type": "uint256"
            },
            {
              "internalType": "uint256",
              "name": "premintTokenAmount",
              "type": "uint256"
            },
            {
              "internalType": "uint256",
              "name": "priceCeilingIncreaseFrequency",
              "type": "uint256"
            },
            {
              "internalType": "uint256",
              "name": "priceCeilingIncreasePercentage",
              "type": "uint256"
            },
            {
              "internalType": "uint256",
              "name": "priceFloorTaxIntensity",
              "type": "uint256"
            },
            {
              "components": [
                {
                  "internalType": "uint128",
                  "name": "rate",
                  "type": "uint128"
                },
                {
                  "internalType": "uint128",
                  "name": "startsAtOrAfter",
                  "type": "uint128"
                }
              ],
              "internalType": "struct Boost[]",
              "name": "boosts",
              "type": "tuple[]"
            }
          ],
          "internalType": "struct RevnetParams",
          "name": "_revnetData",
          "type": "tuple"
        },
        {
          "internalType": "contract IJBPaymentTerminal[]",
          "name": "_terminals",
          "type": "address[]"
        },
        {
          "components": [
            {
              "internalType": "contract IJBGenericBuybackDelegate",
              "name": "hook",
              "type": "address"
            },
            {
              "components": [
                {
                  "internalType": "address",
                  "name": "token",
                  "type": "address"
                },
                {
                  "internalType": "uint24",
                  "name": "fee",
                  "type": "uint24"
                },
                {
                  "internalType": "uint32",
                  "name": "twapWindow",
                  "type": "uint32"
                },
                {
                  "internalType": "uint32",
                  "name": "twapSlippageTolerance",
                  "type": "uint32"
                }
              ],
              "internalType": "struct BuybackPool[]",
              "name": "pools",
              "type": "tuple[]"
            }
          ],
          "internalType": "struct BuybackHookSetupData",
          "name": "_buybackHookSetupData",
          "type": "tuple"
        }
      ],
      "name": "deployRevnetFor",
      "outputs": [
        {
          "internalType": "uint256",
          "name": "revnetId",
          "type": "uint256"
        }
      ],
      "stateMutability": "nonpayable",
      "type": "function"
    },
    {
      "inputs": [
        {
          "internalType": "address",
          "name": "_operator",
          "type": "address"
        },
        {
          "internalType": "address",
          "name": "_from",
          "type": "address"
        },
        {
          "internalType": "uint256",
          "name": "_tokenId",
          "type": "uint256"
        },
        {
          "internalType": "bytes",
          "name": "_data",
          "type": "bytes"
        }
      ],
      "name": "onERC721Received",
      "outputs": [
        {
          "internalType": "bytes4",
          "name": "",
          "type": "bytes4"
        }
      ],
      "stateMutability": "view",
      "type": "function"
    },
    {
      "inputs": [
        {
          "internalType": "uint256",
          "name": "_revnetId",
          "type": "uint256"
        },
        {
          "internalType": "address",
          "name": "_newBoostOperator",
          "type": "address"
        }
      ],
      "name": "replaceBoostOperatorOf",
      "outputs": [],
      "stateMutability": "nonpayable",
      "type": "function"
    },
    {
      "inputs": [
        {
          "internalType": "uint256",
          "name": "_revnetId",
          "type": "uint256"
        }
      ],
      "name": "scheduleNextBoostOf",
      "outputs": [],
      "stateMutability": "nonpayable",
      "type": "function"
    },
    {
      "inputs": [
        {
          "internalType": "bytes4",
          "name": "_interfaceId",
          "type": "bytes4"
        }
      ],
      "name": "supportsInterface",
      "outputs": [
        {
          "internalType": "bool",
          "name": "",
          "type": "bool"
        }
      ],
      "stateMutability": "view",
      "type": "function"
    }
  ],
  "bytecode": {
    "object": "0x60a06040523480156200001157600080fd5b50604051620030b4380380620030b4833981016040819052620000349162000088565b6001600160a01b0316608052600180548082018255600082905260127fb10e2d527612073b26eecdfd717e6a320cf44b4afac2b0732d9fcbe2b7fa0cf69182015581548083019092556018910155620000ba565b6000602082840312156200009b57600080fd5b81516001600160a01b0381168114620000b357600080fd5b9392505050565b608051612f8a6200012a600039600081816101fb015281816102dc015281816103ee015281816105a10152818161077b0152818161097401528181610a8201528181610b9b01528181610e5d01528181610f3b015281816111a901528181611406015261198a0152612f8a6000f3fe608060405234801561001057600080fd5b50600436106100a35760003560e01c806348dc59b611610076578063b82f18c11161005b578063b82f18c1146101d0578063ec3004ac146101e3578063f77c4791146101f657600080fd5b806348dc59b61461018f578063ad011669146101b057600080fd5b806301a7d01a146100a857806301ffc9a7146100d1578063150b7a0214610136578063440cfb7b1461017a575b600080fd5b6100bb6100b6366004611b15565b610242565b6040516100c89190611b2e565b60405180910390f35b6101266100df366004611b93565b7fffffffff00000000000000000000000000000000000000000000000000000000167f150b7a02000000000000000000000000000000000000000000000000000000001490565b60405190151581526020016100c8565b610149610144366004611c11565b6102d8565b6040517fffffffff0000000000000000000000000000000000000000000000000000000090911681526020016100c8565b61018d610188366004611cb0565b6103ec565b005b6101a261019d3660046121f6565b610964565b6040519081526020016100c8565b6101a26101be366004611b15565b60026020526000908152604090205481565b6101a26101de366004611b15565b61113f565b61018d6101f1366004611b15565b611160565b61021d7f000000000000000000000000000000000000000000000000000000000000000081565b60405173ffffffffffffffffffffffffffffffffffffffff90911681526020016100c8565b600081815260208181526040808320805482518185028101850190935280835260609492939192909184015b828210156102cd57600084815260209081902060408051808201909152908401546fffffffffffffffffffffffffffffffff8082168352700100000000000000000000000000000000909104168183015282526001909201910161026e565b505050509050919050565b60007f000000000000000000000000000000000000000000000000000000000000000073ffffffffffffffffffffffffffffffffffffffff16638b79543c6040518163ffffffff1660e01b8152600401602060405180830381865afa158015610345573d6000803e3d6000fd5b505050506040513d601f19601f8201168201806040525081019061036991906122fd565b73ffffffffffffffffffffffffffffffffffffffff163373ffffffffffffffffffffffffffffffffffffffff16146103a057600080fd5b73ffffffffffffffffffffffffffffffffffffffff8516156103c157600080fd5b507f150b7a020000000000000000000000000000000000000000000000000000000095945050505050565b7f000000000000000000000000000000000000000000000000000000000000000073ffffffffffffffffffffffffffffffffffffffff16632bdfe0046040518163ffffffff1660e01b8152600401602060405180830381865afa158015610457573d6000803e3d6000fd5b505050506040513d601f19601f8201168201806040525081019061047b91906122fd565b73ffffffffffffffffffffffffffffffffffffffff1663ad007d636040518163ffffffff1660e01b8152600401602060405180830381865afa1580156104c5573d6000803e3d6000fd5b505050506040513d601f19601f820116820180604052508101906104e991906122fd565b73ffffffffffffffffffffffffffffffffffffffff16630f5932f033308560016040518563ffffffff1660e01b8152600401610528949392919061231a565b602060405180830381865afa158015610545573d6000803e3d6000fd5b505050506040513d601f19601f8201168201806040525081019061056991906123a6565b61059f576040517f075fd2b100000000000000000000000000000000000000000000000000000000815260040160405180910390fd5b7f000000000000000000000000000000000000000000000000000000000000000073ffffffffffffffffffffffffffffffffffffffff16632bdfe0046040518163ffffffff1660e01b8152600401602060405180830381865afa15801561060a573d6000803e3d6000fd5b505050506040513d601f19601f8201168201806040525081019061062e91906122fd565b73ffffffffffffffffffffffffffffffffffffffff1663ad007d636040518163ffffffff1660e01b8152600401602060405180830381865afa158015610678573d6000803e3d6000fd5b505050506040513d601f19601f8201168201806040525081019061069c91906122fd565b73ffffffffffffffffffffffffffffffffffffffff1663529cdd2e60405180606001604052803373ffffffffffffffffffffffffffffffffffffffff168152602001858152602001600067ffffffffffffffff8111156106fe576106fe611ce0565b604051908082528060200260200182016040528015610727578160200160208202803683370190505b508152506040518263ffffffff1660e01b815260040161074791906123c1565b600060405180830381600087803b15801561076157600080fd5b505af1158015610775573d6000803e3d6000fd5b505050507f000000000000000000000000000000000000000000000000000000000000000073ffffffffffffffffffffffffffffffffffffffff16632bdfe0046040518163ffffffff1660e01b8152600401602060405180830381865afa1580156107e4573d6000803e3d6000fd5b505050506040513d601f19601f8201168201806040525081019061080891906122fd565b73ffffffffffffffffffffffffffffffffffffffff1663ad007d636040518163ffffffff1660e01b8152600401602060405180830381865afa158015610852573d6000803e3d6000fd5b505050506040513d601f19601f8201168201806040525081019061087691906122fd565b73ffffffffffffffffffffffffffffffffffffffff1663529cdd2e60405180606001604052808473ffffffffffffffffffffffffffffffffffffffff168152602001858152602001600180548060200260200160405190810160405280929190818152602001828054801561090a57602002820191906000526020600020905b8154815260200190600101908083116108f6575b50505050508152506040518263ffffffff1660e01b815260040161092e91906123c1565b600060405180830381600087803b15801561094857600080fd5b505af115801561095c573d6000803e3d6000fd5b505050505050565b60008061097089611539565b90507f000000000000000000000000000000000000000000000000000000000000000073ffffffffffffffffffffffffffffffffffffffff16638b79543c6040518163ffffffff1660e01b8152600401602060405180830381865afa1580156109dd573d6000803e3d6000fd5b505050506040513d601f19601f82011682018060405250810190610a0191906122fd565b73ffffffffffffffffffffffffffffffffffffffff1663666d87a0308a6040518363ffffffff1660e01b8152600401610a3b9291906124a0565b6020604051808303816000875af1158015610a5a573d6000803e3d6000fd5b505050506040513d601f19601f82011682018060405250810190610a7e91906124ee565b91507f000000000000000000000000000000000000000000000000000000000000000073ffffffffffffffffffffffffffffffffffffffff1663619306306040518163ffffffff1660e01b8152600401602060405180830381865afa158015610aeb573d6000803e3d6000fd5b505050506040513d601f19601f82011682018060405250810190610b0f91906122fd565b73ffffffffffffffffffffffffffffffffffffffff1663a7f2a70b8389896040518463ffffffff1660e01b8152600401610b4b93929190612507565b6020604051808303816000875af1158015610b6a573d6000803e3d6000fd5b505050506040513d601f19601f82011682018060405250810190610b8e91906122fd565b50610b9982846116bf565b7f000000000000000000000000000000000000000000000000000000000000000073ffffffffffffffffffffffffffffffffffffffff1663111d861b836040518060800160405280896040015181526020018960000151670de0b6b3a7640000610c03919061256b565b815260608a01516020808301919091526000604092830181905282516102a0810190935261024083018181526102608401829052610280840191909152825260a08b0151519082019015610c79578a60a00151600081518110610c6857610c68612588565b602002602001015160000151610c7c565b60005b6fffffffffffffffffffffffffffffffff1681526020018a60800151612710610ca591906125b7565b815260006020820181905260408201819052606082018190526080820181905260a0808301829052600160c0840181905260e0840183905261010084018390526101208401839052610140840183905261016084018390526101808401526101a083018290528a5173ffffffffffffffffffffffffffffffffffffffff166101c08401526101e0909201528a01515115610d61578960a00151600081518110610d5057610d50612588565b602002602001015160200151610d64565b60005b604080516000808252602082019092528891610df3565b610de06040518060c00160405280600073ffffffffffffffffffffffffffffffffffffffff168152602001600073ffffffffffffffffffffffffffffffffffffffff168152602001600081526020016000815260200160008152602001600081525090565b815260200190600190039081610d7b5790505b508b6040518863ffffffff1660e01b8152600401610e1797969594939291906128b1565b6020604051808303816000875af1158015610e36573d6000803e3d6000fd5b505050506040513d601f19601f82011682018060405250810190610e5a91906124ee565b507f000000000000000000000000000000000000000000000000000000000000000073ffffffffffffffffffffffffffffffffffffffff16638ae9c07b838760200151670de0b6b3a7640000610eb0919061256b565b8c8a604051602001610ec291906129e1565b6040516020818303038152906040526000806040518763ffffffff1660e01b8152600401610ef596959493929190612a4d565b6020604051808303816000875af1158015610f14573d6000803e3d6000fd5b505050506040513d601f19601f82011682018060405250810190610f3891906124ee565b507f000000000000000000000000000000000000000000000000000000000000000073ffffffffffffffffffffffffffffffffffffffff16632bdfe0046040518163ffffffff1660e01b8152600401602060405180830381865afa158015610fa4573d6000803e3d6000fd5b505050506040513d601f19601f82011682018060405250810190610fc891906122fd565b73ffffffffffffffffffffffffffffffffffffffff1663ad007d636040518163ffffffff1660e01b8152600401602060405180830381865afa158015611012573d6000803e3d6000fd5b505050506040513d601f19601f8201168201806040525081019061103691906122fd565b73ffffffffffffffffffffffffffffffffffffffff1663529cdd2e60405180606001604052808c73ffffffffffffffffffffffffffffffffffffffff16815260200185815260200160018054806020026020016040519081016040528092919081815260200182805480156110ca57602002820191906000526020600020905b8154815260200190600101908083116110b6575b50505050508152506040518263ffffffff1660e01b81526004016110ee91906123c1565b600060405180830381600087803b15801561110857600080fd5b505af115801561111c573d6000803e3d6000fd5b50505050611133828660a0015187604001516117f2565b50979650505050505050565b6001818154811061114f57600080fd5b600091825260209091200154905081565b6040517f1f51045300000000000000000000000000000000000000000000000000000000815260048101829052600090819073ffffffffffffffffffffffffffffffffffffffff7f00000000000000000000000000000000000000000000000000000000000000001690631f510453906024016103c060405180830381865afa1580156111f1573d6000803e3d6000fd5b505050506040513d601f19601f820116820180604052508101906112159190612c78565b506000858152600260205260408120805493955091935091829061123890612d2f565b918290555060008581526020819052604090205490915080158061125b57508082145b8061126a575042846060015110155b156112a1576040517fc97554fa00000000000000000000000000000000000000000000000000000000815260040160405180910390fd5b60008581526020819052604081208054849081106112c1576112c1612588565b6000918252602080832060408051808201825293909101546fffffffffffffffffffffffffffffffff808216855270010000000000000000000000000000000090910481168484019081528251608080820185528c810151825281860188905260c0808e01518387015260608084018a905286516102a08101885261024081018b815261026082018c905261028082018c905281528951909616868901528d87015196860196909652948401889052830187905260a0830187905292820186905260e08201869052610100820186905261012082018690526101408201869052610160820186905261018082018690526101a082018690526101c082018690526101e0820195909552610200808a015173ffffffffffffffffffffffffffffffffffffffff908116918301919091526102208a810151908301529451928a01519395507f00000000000000000000000000000000000000000000000000000000000000009094169363badbdf28938b939061143d908590611945565b60408051600080825260208201909252906114cb565b6114b86040518060c00160405280600073ffffffffffffffffffffffffffffffffffffffff168152602001600073ffffffffffffffffffffffffffffffffffffffff168152602001600081526020016000815260200160008152602001600081525090565b8152602001906001900390816114535790505b506040518763ffffffff1660e01b81526004016114ed96959493929190612d67565b6020604051808303816000875af115801561150c573d6000803e3d6000fd5b505050506040513d601f19601f8201168201806040525081019061153091906124ee565b50505050505050565b604080516001808252818301909252606091816020015b60408051808201909152600081526060602082015281526020019060019003908161155057505060408051600180825281830190925291925060009190602082015b6040805160e08101825260008082526020808301829052928201819052606082018190526080820181905260a0820181905260c082015282527fffffffffffffffffffffffffffffffffffffffffffffffffffffffffffffffff9092019101816115925790505090506040518060e00160405280600015158152602001600015158152602001633b9aca008152602001600081526020018473ffffffffffffffffffffffffffffffffffffffff16815260200160008152602001600073ffffffffffffffffffffffffffffffffffffffff168152508160018151811061167a5761167a612588565b602002602001018190525060405180604001604052806002815260200182815250826000815181106116ae576116ae612588565b602002602001018190525050919050565b602081810151516040805160808101825260008082529381018490529081018390526060810183905290915b828110156117eb578360200151818151811061170957611709612588565b6020908102919091018101518551918101516040808301516060840151845192517f7b621d3a000000000000000000000000000000000000000000000000000000008152600481018c905262ffffff909416602485015263ffffffff918216604485015216606483015273ffffffffffffffffffffffffffffffffffffffff9081166084830152919450911690637b621d3a9060a4016020604051808303816000875af11580156117be573d6000803e3d6000fd5b505050506040513d601f19601f820116820180604052508101906117e291906122fd565b506001016116eb565b5050505050565b8151604080518082019091526000808252602082015281156117eb5760005b8281101561095c5784818151811061182b5761182b612588565b60200260200101519150806000141580156118a05750838561184e6001846125b7565b8151811061185e5761185e612588565b6020026020010151602001516fffffffffffffffffffffffffffffffff166118869190612e47565b82602001516fffffffffffffffffffffffffffffffff1611155b156118d7576040517f2d9548a900000000000000000000000000000000000000000000000000000000815260040160405180910390fd5b8160008088815260200190815260200160002082815481106118fb576118fb612588565b6000918252602091829020835193909201516fffffffffffffffffffffffffffffffff90811670010000000000000000000000000000000002931692909217910155600101611811565b604080516001808252818301909252606091816020015b60408051808201909152600081526060602082015281526020019060019003908161195c57905050905060007f000000000000000000000000000000000000000000000000000000000000000073ffffffffffffffffffffffffffffffffffffffff16632bdfe0046040518163ffffffff1660e01b8152600401602060405180830381865afa1580156119f3573d6000803e3d6000fd5b505050506040513d601f19601f82011682018060405250810190611a1791906122fd565b6040517f69e11cc500000000000000000000000000000000000000000000000000000000815260048101869052602481018590526002604482015273ffffffffffffffffffffffffffffffffffffffff91909116906369e11cc590606401600060405180830381865afa158015611a92573d6000803e3d6000fd5b505050506040513d6000823e601f3d9081017fffffffffffffffffffffffffffffffffffffffffffffffffffffffffffffffe0168201604052611ad89190810190612e5a565b90506040518060400160405280600281526020018281525082600081518110611b0357611b03612588565b60200260200101819052505092915050565b600060208284031215611b2757600080fd5b5035919050565b602080825282518282018190526000919060409081850190868401855b82811015611b8657815180516fffffffffffffffffffffffffffffffff90811686529087015116868501529284019290850190600101611b4b565b5091979650505050505050565b600060208284031215611ba557600080fd5b81357fffffffff0000000000000000000000000000000000000000000000000000000081168114611bd557600080fd5b9392505050565b73ffffffffffffffffffffffffffffffffffffffff81168114611bfe57600080fd5b50565b8035611c0c81611bdc565b919050565b600080600080600060808688031215611c2957600080fd5b8535611c3481611bdc565b94506020860135611c4481611bdc565b935060408601359250606086013567ffffffffffffffff80821115611c6857600080fd5b818801915088601f830112611c7c57600080fd5b813581811115611c8b57600080fd5b896020828501011115611c9d57600080fd5b9699959850939650602001949392505050565b60008060408385031215611cc357600080fd5b823591506020830135611cd581611bdc565b809150509250929050565b7f4e487b7100000000000000000000000000000000000000000000000000000000600052604160045260246000fd5b6040805190810167ffffffffffffffff81118282101715611d3257611d32611ce0565b60405290565b60405160c0810167ffffffffffffffff81118282101715611d3257611d32611ce0565b6040516080810167ffffffffffffffff81118282101715611d3257611d32611ce0565b604051610240810167ffffffffffffffff81118282101715611d3257611d32611ce0565b604051610120810167ffffffffffffffff81118282101715611d3257611d32611ce0565b60405160e0810167ffffffffffffffff81118282101715611d3257611d32611ce0565b604051601f82017fffffffffffffffffffffffffffffffffffffffffffffffffffffffffffffffe016810167ffffffffffffffff81118282101715611e3057611e30611ce0565b604052919050565b600082601f830112611e4957600080fd5b813567ffffffffffffffff811115611e6357611e63611ce0565b611e9460207fffffffffffffffffffffffffffffffffffffffffffffffffffffffffffffffe0601f84011601611de9565b818152846020838601011115611ea957600080fd5b816020850160208301376000918101602001919091529392505050565b600060408284031215611ed857600080fd5b611ee0611d0f565b9050813567ffffffffffffffff811115611ef957600080fd5b611f0584828501611e38565b8252506020820135602082015292915050565b600067ffffffffffffffff821115611f3257611f32611ce0565b5060051b60200190565b80356fffffffffffffffffffffffffffffffff81168114611c0c57600080fd5b600060c08284031215611f6e57600080fd5b611f76611d38565b9050813581526020808301358183015260408084013581840152606084013560608401526080840135608084015260a084013567ffffffffffffffff811115611fbe57600080fd5b8401601f81018613611fcf57600080fd5b8035611fe2611fdd82611f18565b611de9565b81815260069190911b8201840190848101908883111561200157600080fd5b928501925b8284101561204f5784848a03121561201e5760008081fd5b612026611d0f565b61202f85611f3c565b815261203c878601611f3c565b8188015282529284019290850190612006565b60a087015250939695505050505050565b600082601f83011261207157600080fd5b81356020612081611fdd83611f18565b82815260059290921b840181019181810190868411156120a057600080fd5b8286015b848110156120c45780356120b781611bdc565b83529183019183016120a4565b509695505050505050565b803563ffffffff81168114611c0c57600080fd5b600060408083850312156120f657600080fd5b6120fe611d0f565b9150823561210b81611bdc565b825260208381013567ffffffffffffffff81111561212857600080fd5b8401601f8101861361213957600080fd5b8035612147611fdd82611f18565b81815260079190911b8201830190838101908883111561216657600080fd5b928401925b828410156121e5576080848a0312156121845760008081fd5b61218c611d5b565b843561219781611bdc565b81528486013562ffffff811681146121af5760008081fd5b818701526121be8588016120cf565b8782015260606121cf8187016120cf565b908201528252608093909301929084019061216b565b808588015250505050505092915050565b600080600080600080600060e0888a03121561221157600080fd5b61221a88611c01565b9650602088013567ffffffffffffffff8082111561223757600080fd5b6122438b838c01611ec6565b975060408a013591508082111561225957600080fd5b6122658b838c01611e38565b965060608a013591508082111561227b57600080fd5b6122878b838c01611e38565b955060808a013591508082111561229d57600080fd5b6122a98b838c01611f5c565b945060a08a01359150808211156122bf57600080fd5b6122cb8b838c01612060565b935060c08a01359150808211156122e157600080fd5b506122ee8a828b016120e3565b91505092959891949750929550565b60006020828403121561230f57600080fd5b8151611bd581611bdc565b60006080820173ffffffffffffffffffffffffffffffffffffffff808816845260208188168186015286604086015260806060860152829150855480845260a0860192508660005281600020935060005b818110156123875784548452600194850194938301930161236b565b50919998505050505050505050565b80518015158114611c0c57600080fd5b6000602082840312156123b857600080fd5b611bd582612396565b600060208083526080830173ffffffffffffffffffffffffffffffffffffffff85511682850152818501516040850152604085015160608086015281815180845260a0870191508483019350600092505b808310156120c45783518252928401926001929092019190840190612412565b60005b8381101561244d578181015183820152602001612435565b50506000910152565b6000815180845261246e816020860160208601612432565b601f017fffffffffffffffffffffffffffffffffffffffffffffffffffffffffffffffe0169290920160200192915050565b73ffffffffffffffffffffffffffffffffffffffff8316815260406020820152600082516040808401526124d76080840182612456565b905060208401516060840152809150509392505050565b60006020828403121561250057600080fd5b5051919050565b8381526060602082015260006125206060830185612456565b82810360408401526125328185612456565b9695505050505050565b7f4e487b7100000000000000000000000000000000000000000000000000000000600052601160045260246000fd5b80820281158282048414176125825761258261253c565b92915050565b7f4e487b7100000000000000000000000000000000000000000000000000000000600052603260045260246000fd5b818103818111156125825761258261253c565b6125ef8282518051151582526020808201511515908301526040908101511515910152565b6020810151606083015260408101516080830152606081015160a0830152608081015161262060c084018215159052565b5060a081015180151560e08401525060c08101516101006126448185018315159052565b60e0830151915061012061265b8186018415159052565b908301519150610140906126728583018415159052565b83015191506101606126878582018415159052565b9083015191506101809061269e8583018415159052565b83015191506101a06126b38582018415159052565b9083015191506101c0906126ca8583018415159052565b83015191506101e06126df8582018415159052565b908301519150610200906126f68583018415159052565b830151915061022061270b8582018415159052565b9083015173ffffffffffffffffffffffffffffffffffffffff16610240850152909101516102609092019190915250565b600081518084526020808501808196508360051b810191508286016000805b8681101561281b578385038a52825180518652860151604087870181905281518188018190529188019160609081890190865b818110156128045785518051151584528c81015115158d8501528581015186850152848101518585015260808082015173ffffffffffffffffffffffffffffffffffffffff9081169186019190915260a0808301519086015260c0918201511690840152948b019460e09092019160010161278e565b50509c89019c97505050928601925060010161275b565b509298975050505050505050565b600081518084526020808501945080840160005b838110156128a6578151805173ffffffffffffffffffffffffffffffffffffffff908116895284820151168489015260408082015190890152606080820151908901526080808201519089015260a0908101519088015260c0909601959082019060010161283d565b509495945050505050565b60006103c089835260206128fe8185018b80518252602081015160208301526040810151604083015273ffffffffffffffffffffffffffffffffffffffff60608201511660608301525050565b61290b60a085018a6125ca565b6fffffffffffffffffffffffffffffffff8816610320850152816103408501526129378285018861273c565b915083820361036085015261294c8287612829565b848103610380860152855180825282870193509082019060005b8181101561299857845173ffffffffffffffffffffffffffffffffffffffff1683529383019391830191600101612966565b50508481036103a0860152600f81527f7265766e6574206465706c6f79656400000000000000000000000000000000006020820152604081019c9b505050505050505050505050565b7f2400000000000000000000000000000000000000000000000000000000000000815260008251612a19816001850160208701612432565b7f207072656d696e746564000000000000000000000000000000000000000000006001939091019283015250600b01919050565b86815285602082015273ffffffffffffffffffffffffffffffffffffffff8516604082015260c060608201526000612a8860c0830186612456565b93151560808301525090151560a090910152949350505050565b8051611c0c81611bdc565b600060608284031215612abf57600080fd5b6040516060810181811067ffffffffffffffff82111715612ae257612ae2611ce0565b604052905080612af183612396565b8152612aff60208401612396565b6020820152612b1060408401612396565b60408201525092915050565b60006102808284031215612b2f57600080fd5b612b37611d7e565b9050612b438383612aad565b8152606082015160208201526080820151604082015260a08201516060820152612b6f60c08301612396565b6080820152612b8060e08301612396565b60a0820152610100612b93818401612396565b60c0830152610120612ba6818501612396565b60e0840152610140612bb9818601612396565b838501526101609250612bcd838601612396565b828501526101809150612be1828601612396565b908401526101a0612bf3858201612396565b838501526101c09250612c07838601612396565b828501526101e09150612c1b828601612396565b90840152610200612c2d858201612396565b838501526102209250612c41838601612396565b82850152612c526102408601612aa2565b818501525050610260830151818301525092915050565b805160038110611c0c57600080fd5b60008060008385036103c0811215612c8f57600080fd5b61012080821215612c9f57600080fd5b612ca7611da2565b9150855182526020860151602083015260408601516040830152606086015160608301526080860151608083015260a086015160a083015260c086015160c0830152612cf560e08701612aa2565b60e0830152610100808701518184015250819450612d1587828801612b1c565b93505050612d266103a08501612c69565b90509250925092565b60007fffffffffffffffffffffffffffffffffffffffffffffffffffffffffffffffff8203612d6057612d6061253c565b5060010190565b60006103a0888352612db3602084018980518252602081015160208301526040810151604083015273ffffffffffffffffffffffffffffffffffffffff60608201511660608301525050565b612dc060a08401886125ca565b6fffffffffffffffffffffffffffffffff861661032084015280610340840152612dec8184018661273c565b9050828103610360840152612e018185612829565b838103610380909401939093525050601681527f7265766e657420626f6f7374207363686564756c65640000000000000000000060208201526040019695505050505050565b808201808211156125825761258261253c565b60006020808385031215612e6d57600080fd5b825167ffffffffffffffff811115612e8457600080fd5b8301601f81018513612e9557600080fd5b8051612ea3611fdd82611f18565b81815260e09182028301840191848201919088841115612ec257600080fd5b938501935b838510156111335780858a031215612edf5760008081fd5b612ee7611dc6565b612ef086612396565b8152612efd878701612396565b818801526040868101519082015260608087015190820152608080870151612f2481611bdc565b9082015260a0868101519082015260c080870151612f4181611bdc565b9082015283529384019391850191612ec756fea26469706673582212201a9252d44bb68030bd22b3d1e4bd99aacb2f19b642fd6e4942233baa9e260b4c64736f6c63430008150033",
    "linkReferences": {}
  },
  "methodIdentifiers": {
    "boostOperatorPermissionIndexes(uint256)": "b82f18c1",
    "boostsOf(uint256)": "01a7d01a",
    "controller()": "f77c4791",
    "currentBoostNumberOf(uint256)": "ad011669",
    "deployRevnetFor(address,(string,uint256),string,string,(uint256,uint256,uint256,uint256,uint256,(uint128,uint128)[]),address[],(address,(address,uint24,uint32,uint32)[]))": "48dc59b6",
    "onERC721Received(address,address,uint256,bytes)": "150b7a02",
    "replaceBoostOperatorOf(uint256,address)": "440cfb7b",
    "scheduleNextBoostOf(uint256)": "ec3004ac",
    "supportsInterface(bytes4)": "01ffc9a7"
  },
  "id": 102
}