{
  "abi": [
    {
      "inputs": [
        {
          "internalType": "contract IJBController3_1",
          "name": "_controller",
          "type": "address"
        }
      ],
      "stateMutability": "nonpayable",
      "type": "constructor"
    },
    {
      "inputs": [],
      "name": "BAD_BOOST_SEQUENCE",
      "type": "error"
    },
    {
      "inputs": [],
      "name": "RECONFIGURATION_ALREADY_SCHEDULED",
      "type": "error"
    },
    {
      "inputs": [],
      "name": "RECONFIGURATION_NOT_POSSIBLE",
      "type": "error"
    },
    {
      "inputs": [],
      "name": "UNAUTHORIZED",
      "type": "error"
    },
    {
      "inputs": [
        {
          "internalType": "uint256",
          "name": "",
          "type": "uint256"
        }
      ],
      "name": "boostOperatorPermissionIndexes",
      "outputs": [
        {
          "internalType": "uint256",
          "name": "",
          "type": "uint256"
        }
      ],
      "stateMutability": "view",
      "type": "function"
    },
    {
      "inputs": [
        {
          "internalType": "uint256",
          "name": "_revnetId",
          "type": "uint256"
        }
      ],
      "name": "boostsOf",
      "outputs": [
        {
          "components": [
            {
              "internalType": "uint128",
              "name": "rate",
              "type": "uint128"
            },
            {
              "internalType": "uint128",
              "name": "startsAtOrAfter",
              "type": "uint128"
            }
          ],
          "internalType": "struct Boost[]",
          "name": "",
          "type": "tuple[]"
        }
      ],
      "stateMutability": "view",
      "type": "function"
    },
    {
      "inputs": [],
      "name": "controller",
      "outputs": [
        {
          "internalType": "contract IJBController3_1",
          "name": "",
          "type": "address"
        }
      ],
      "stateMutability": "view",
      "type": "function"
    },
    {
      "inputs": [
        {
          "internalType": "uint256",
          "name": "_revnetId",
          "type": "uint256"
        }
      ],
      "name": "currentBoostNumberOf",
      "outputs": [
        {
          "internalType": "uint256",
          "name": "",
          "type": "uint256"
        }
      ],
      "stateMutability": "view",
      "type": "function"
    },
    {
      "inputs": [
        {
          "internalType": "address",
          "name": "_boostOperator",
          "type": "address"
        },
        {
          "components": [
            {
              "internalType": "string",
              "name": "content",
              "type": "string"
            },
            {
              "internalType": "uint256",
              "name": "domain",
              "type": "uint256"
            }
          ],
          "internalType": "struct JBProjectMetadata",
          "name": "_revnetMetadata",
          "type": "tuple"
        },
        {
          "internalType": "string",
          "name": "_name",
          "type": "string"
        },
        {
          "internalType": "string",
          "name": "_symbol",
          "type": "string"
        },
        {
          "components": [
            {
              "internalType": "uint256",
              "name": "initialIssuanceRate",
              "type": "uint256"
            },
            {
              "internalType": "uint256",
              "name": "premintTokenAmount",
              "type": "uint256"
            },
            {
              "internalType": "uint256",
              "name": "priceCeilingIncreaseFrequency",
              "type": "uint256"
            },
            {
              "internalType": "uint256",
              "name": "priceCeilingIncreasePercentage",
              "type": "uint256"
            },
            {
              "internalType": "uint256",
              "name": "priceFloorTaxIntensity",
              "type": "uint256"
            },
            {
              "components": [
                {
                  "internalType": "uint128",
                  "name": "rate",
                  "type": "uint128"
                },
                {
                  "internalType": "uint128",
                  "name": "startsAtOrAfter",
                  "type": "uint128"
                }
              ],
              "internalType": "struct Boost[]",
              "name": "boosts",
              "type": "tuple[]"
            }
          ],
          "internalType": "struct RevnetParams",
          "name": "_revnetData",
          "type": "tuple"
        },
        {
          "internalType": "contract IJBPaymentTerminal[]",
          "name": "_terminals",
          "type": "address[]"
        },
        {
          "components": [
            {
              "internalType": "contract IJBGenericBuybackDelegate",
              "name": "hook",
              "type": "address"
            },
            {
              "components": [
                {
                  "internalType": "address",
                  "name": "token",
                  "type": "address"
                },
                {
                  "internalType": "uint24",
                  "name": "fee",
                  "type": "uint24"
                },
                {
                  "internalType": "uint32",
                  "name": "twapWindow",
                  "type": "uint32"
                },
                {
                  "internalType": "uint32",
                  "name": "twapSlippageTolerance",
                  "type": "uint32"
                }
              ],
              "internalType": "struct BuybackPool[]",
              "name": "pools",
              "type": "tuple[]"
            }
          ],
          "internalType": "struct BuybackHookSetupData",
          "name": "_buybackHookSetupData",
          "type": "tuple"
        }
      ],
      "name": "deployRevnetFor",
      "outputs": [
        {
          "internalType": "uint256",
          "name": "revnetId",
          "type": "uint256"
        }
      ],
      "stateMutability": "nonpayable",
      "type": "function"
    },
    {
      "inputs": [
        {
          "internalType": "address",
          "name": "_operator",
          "type": "address"
        },
        {
          "internalType": "address",
          "name": "_from",
          "type": "address"
        },
        {
          "internalType": "uint256",
          "name": "_tokenId",
          "type": "uint256"
        },
        {
          "internalType": "bytes",
          "name": "_data",
          "type": "bytes"
        }
      ],
      "name": "onERC721Received",
      "outputs": [
        {
          "internalType": "bytes4",
          "name": "",
          "type": "bytes4"
        }
      ],
      "stateMutability": "view",
      "type": "function"
    },
    {
      "inputs": [
        {
          "internalType": "uint256",
          "name": "_revnetId",
          "type": "uint256"
        },
        {
          "internalType": "address",
          "name": "_newBoostOperator",
          "type": "address"
        }
      ],
      "name": "replaceBoostOperatorOf",
      "outputs": [],
      "stateMutability": "nonpayable",
      "type": "function"
    },
    {
      "inputs": [
        {
          "internalType": "uint256",
          "name": "_revnetId",
          "type": "uint256"
        }
      ],
      "name": "scheduleNextBoostOf",
      "outputs": [],
      "stateMutability": "nonpayable",
      "type": "function"
    },
    {
      "inputs": [
        {
          "internalType": "bytes4",
          "name": "_interfaceId",
          "type": "bytes4"
        }
      ],
      "name": "supportsInterface",
      "outputs": [
        {
          "internalType": "bool",
          "name": "",
          "type": "bool"
        }
      ],
      "stateMutability": "view",
      "type": "function"
    }
  ],
  "bytecode": {
    "object": "0x60a06040523480156200001157600080fd5b5060405162002fed38038062002fed833981016040819052620000349162000088565b6001600160a01b0316608052600180548082018255600082905260127fb10e2d527612073b26eecdfd717e6a320cf44b4afac2b0732d9fcbe2b7fa0cf69182015581548083019092556018910155620000ba565b6000602082840312156200009b57600080fd5b81516001600160a01b0381168114620000b357600080fd5b9392505050565b608051612ec36200012a600039600081816101fb015281816102dc015281816103ee015281816105a10152818161077b0152818161097401528181610a8201528181610b9b01528181610e6701528181610f46015281816111af0152818161140b01526118d60152612ec36000f3fe608060405234801561001057600080fd5b50600436106100a35760003560e01c806348dc59b611610076578063b82f18c11161005b578063b82f18c1146101d0578063ec3004ac146101e3578063f77c4791146101f657600080fd5b806348dc59b61461018f578063ad011669146101b057600080fd5b806301a7d01a146100a857806301ffc9a7146100d1578063150b7a0214610136578063440cfb7b1461017a575b600080fd5b6100bb6100b6366004611a61565b610242565b6040516100c89190611a7a565b60405180910390f35b6101266100df366004611adf565b7fffffffff00000000000000000000000000000000000000000000000000000000167f150b7a02000000000000000000000000000000000000000000000000000000001490565b60405190151581526020016100c8565b610149610144366004611b5d565b6102d8565b6040517fffffffff0000000000000000000000000000000000000000000000000000000090911681526020016100c8565b61018d610188366004611bfc565b6103ec565b005b6101a261019d366004612142565b610964565b6040519081526020016100c8565b6101a26101be366004611a61565b60026020526000908152604090205481565b6101a26101de366004611a61565b611145565b61018d6101f1366004611a61565b611166565b61021d7f000000000000000000000000000000000000000000000000000000000000000081565b60405173ffffffffffffffffffffffffffffffffffffffff90911681526020016100c8565b600081815260208181526040808320805482518185028101850190935280835260609492939192909184015b828210156102cd57600084815260209081902060408051808201909152908401546fffffffffffffffffffffffffffffffff8082168352700100000000000000000000000000000000909104168183015282526001909201910161026e565b505050509050919050565b60007f000000000000000000000000000000000000000000000000000000000000000073ffffffffffffffffffffffffffffffffffffffff16638b79543c6040518163ffffffff1660e01b8152600401602060405180830381865afa158015610345573d6000803e3d6000fd5b505050506040513d601f19601f820116820180604052508101906103699190612249565b73ffffffffffffffffffffffffffffffffffffffff163373ffffffffffffffffffffffffffffffffffffffff16146103a057600080fd5b73ffffffffffffffffffffffffffffffffffffffff8516156103c157600080fd5b507f150b7a020000000000000000000000000000000000000000000000000000000095945050505050565b7f000000000000000000000000000000000000000000000000000000000000000073ffffffffffffffffffffffffffffffffffffffff16632bdfe0046040518163ffffffff1660e01b8152600401602060405180830381865afa158015610457573d6000803e3d6000fd5b505050506040513d601f19601f8201168201806040525081019061047b9190612249565b73ffffffffffffffffffffffffffffffffffffffff1663ad007d636040518163ffffffff1660e01b8152600401602060405180830381865afa1580156104c5573d6000803e3d6000fd5b505050506040513d601f19601f820116820180604052508101906104e99190612249565b73ffffffffffffffffffffffffffffffffffffffff16630f5932f033308560016040518563ffffffff1660e01b81526004016105289493929190612266565b602060405180830381865afa158015610545573d6000803e3d6000fd5b505050506040513d601f19601f8201168201806040525081019061056991906122f2565b61059f576040517f075fd2b100000000000000000000000000000000000000000000000000000000815260040160405180910390fd5b7f000000000000000000000000000000000000000000000000000000000000000073ffffffffffffffffffffffffffffffffffffffff16632bdfe0046040518163ffffffff1660e01b8152600401602060405180830381865afa15801561060a573d6000803e3d6000fd5b505050506040513d601f19601f8201168201806040525081019061062e9190612249565b73ffffffffffffffffffffffffffffffffffffffff1663ad007d636040518163ffffffff1660e01b8152600401602060405180830381865afa158015610678573d6000803e3d6000fd5b505050506040513d601f19601f8201168201806040525081019061069c9190612249565b73ffffffffffffffffffffffffffffffffffffffff1663529cdd2e60405180606001604052803373ffffffffffffffffffffffffffffffffffffffff168152602001858152602001600067ffffffffffffffff8111156106fe576106fe611c2c565b604051908082528060200260200182016040528015610727578160200160208202803683370190505b508152506040518263ffffffff1660e01b8152600401610747919061230d565b600060405180830381600087803b15801561076157600080fd5b505af1158015610775573d6000803e3d6000fd5b505050507f000000000000000000000000000000000000000000000000000000000000000073ffffffffffffffffffffffffffffffffffffffff16632bdfe0046040518163ffffffff1660e01b8152600401602060405180830381865afa1580156107e4573d6000803e3d6000fd5b505050506040513d601f19601f820116820180604052508101906108089190612249565b73ffffffffffffffffffffffffffffffffffffffff1663ad007d636040518163ffffffff1660e01b8152600401602060405180830381865afa158015610852573d6000803e3d6000fd5b505050506040513d601f19601f820116820180604052508101906108769190612249565b73ffffffffffffffffffffffffffffffffffffffff1663529cdd2e60405180606001604052808473ffffffffffffffffffffffffffffffffffffffff168152602001858152602001600180548060200260200160405190810160405280929190818152602001828054801561090a57602002820191906000526020600020905b8154815260200190600101908083116108f6575b50505050508152506040518263ffffffff1660e01b815260040161092e919061230d565b600060405180830381600087803b15801561094857600080fd5b505af115801561095c573d6000803e3d6000fd5b505050505050565b6000806109708961153e565b90507f000000000000000000000000000000000000000000000000000000000000000073ffffffffffffffffffffffffffffffffffffffff16638b79543c6040518163ffffffff1660e01b8152600401602060405180830381865afa1580156109dd573d6000803e3d6000fd5b505050506040513d601f19601f82011682018060405250810190610a019190612249565b73ffffffffffffffffffffffffffffffffffffffff1663666d87a0308a6040518363ffffffff1660e01b8152600401610a3b9291906123ec565b6020604051808303816000875af1158015610a5a573d6000803e3d6000fd5b505050506040513d601f19601f82011682018060405250810190610a7e919061243a565b91507f000000000000000000000000000000000000000000000000000000000000000073ffffffffffffffffffffffffffffffffffffffff1663619306306040518163ffffffff1660e01b8152600401602060405180830381865afa158015610aeb573d6000803e3d6000fd5b505050506040513d601f19601f82011682018060405250810190610b0f9190612249565b73ffffffffffffffffffffffffffffffffffffffff1663a7f2a70b8389896040518463ffffffff1660e01b8152600401610b4b93929190612453565b6020604051808303816000875af1158015610b6a573d6000803e3d6000fd5b505050506040513d601f19601f82011682018060405250810190610b8e9190612249565b50610b9982846116c4565b7f000000000000000000000000000000000000000000000000000000000000000073ffffffffffffffffffffffffffffffffffffffff1663111d861b836040518060800160405280896040015181526020018960000151670de0b6b3a7640000610c0391906124b7565b815260608a01516020808301919091526000604092830181905282516102a0810190935261024083018181526102608401829052610280840191909152825260a08b0151519082019015610c79578a60a00151600081518110610c6857610c686124d4565b602002602001015160000151610c7c565b60005b6fffffffffffffffffffffffffffffffff1681526020018a60800151612710610ca59190612503565b815260006020820181905260408201819052606082018190526080820181905260a0808301829052600160c0840181905260e0840183905261010084018390526101208401839052610140840183905261016084018390526101808401526101a083018290528a5173ffffffffffffffffffffffffffffffffffffffff166101c08401526101e0909201528a01515115610d61578960a00151600081518110610d5057610d506124d4565b602002602001015160200151610d64565b60005b604080516000808252602082019092528891610df3565b610de06040518060c00160405280600073ffffffffffffffffffffffffffffffffffffffff168152602001600073ffffffffffffffffffffffffffffffffffffffff168152602001600081526020016000815260200160008152602001600081525090565b815260200190600190039081610d7b5790505b508b6040518863ffffffff1660e01b8152600401610e1797969594939291906127fd565b6020604051808303816000875af1158015610e36573d6000803e3d6000fd5b505050506040513d601f19601f82011682018060405250810190610e5a919061243a565b50602085015115610f44577f000000000000000000000000000000000000000000000000000000000000000073ffffffffffffffffffffffffffffffffffffffff16638ae9c07b838760200151670de0b6b3a7640000610eba91906124b7565b8c8a604051602001610ecc919061292d565b6040516020818303038152906040526000806040518763ffffffff1660e01b8152600401610eff96959493929190612999565b6020604051808303816000875af1158015610f1e573d6000803e3d6000fd5b505050506040513d601f19601f82011682018060405250810190610f42919061243a565b505b7f000000000000000000000000000000000000000000000000000000000000000073ffffffffffffffffffffffffffffffffffffffff16632bdfe0046040518163ffffffff1660e01b8152600401602060405180830381865afa158015610faf573d6000803e3d6000fd5b505050506040513d601f19601f82011682018060405250810190610fd39190612249565b73ffffffffffffffffffffffffffffffffffffffff1663ad007d636040518163ffffffff1660e01b8152600401602060405180830381865afa15801561101d573d6000803e3d6000fd5b505050506040513d601f19601f820116820180604052508101906110419190612249565b73ffffffffffffffffffffffffffffffffffffffff1663529cdd2e60405180606001604052808c73ffffffffffffffffffffffffffffffffffffffff16815260200185815260200160018054806020026020016040519081016040528092919081815260200182805480156110d557602002820191906000526020600020905b8154815260200190600101908083116110c1575b50505050508152506040518263ffffffff1660e01b81526004016110f9919061230d565b600060405180830381600087803b15801561111357600080fd5b505af1158015611127573d6000803e3d6000fd5b50505050611139828660a001516117f7565b50979650505050505050565b6001818154811061115557600080fd5b600091825260209091200154905081565b6040517f1f51045300000000000000000000000000000000000000000000000000000000815260048101829052600090819073ffffffffffffffffffffffffffffffffffffffff7f00000000000000000000000000000000000000000000000000000000000000001690631f510453906024016103c060405180830381865afa1580156111f7573d6000803e3d6000fd5b505050506040513d601f19601f8201168201806040525081019061121b9190612bc4565b506000858152600260205260408120805493955091935091908261123e83612c7b565b9091555060008581526020819052604090205490915080158061126057508082145b8061126f575042846060015110155b156112a6576040517fc97554fa00000000000000000000000000000000000000000000000000000000815260040160405180910390fd5b60008581526020819052604081208054849081106112c6576112c66124d4565b6000918252602080832060408051808201825293909101546fffffffffffffffffffffffffffffffff808216855270010000000000000000000000000000000090910481168484019081528251608080820185528c810151825281860188905260c0808e01518387015260608084018a905286516102a08101885261024081018b815261026082018c905261028082018c905281528951909616868901528d87015196860196909652948401889052830187905260a0830187905292820186905260e08201869052610100820186905261012082018690526101408201869052610160820186905261018082018690526101a082018690526101c082018690526101e0820195909552610200808a015173ffffffffffffffffffffffffffffffffffffffff908116918301919091526102208a810151908301529451928a01519395507f00000000000000000000000000000000000000000000000000000000000000009094169363badbdf28938b9390611442908590611891565b60408051600080825260208201909252906114d0565b6114bd6040518060c00160405280600073ffffffffffffffffffffffffffffffffffffffff168152602001600073ffffffffffffffffffffffffffffffffffffffff168152602001600081526020016000815260200160008152602001600081525090565b8152602001906001900390816114585790505b506040518763ffffffff1660e01b81526004016114f296959493929190612cb3565b6020604051808303816000875af1158015611511573d6000803e3d6000fd5b505050506040513d601f19601f82011682018060405250810190611535919061243a565b50505050505050565b604080516001808252818301909252606091816020015b60408051808201909152600081526060602082015281526020019060019003908161155557505060408051600180825281830190925291925060009190602082015b6040805160e08101825260008082526020808301829052928201819052606082018190526080820181905260a0820181905260c082015282527fffffffffffffffffffffffffffffffffffffffffffffffffffffffffffffffff9092019101816115975790505090506040518060e00160405280600015158152602001600015158152602001633b9aca008152602001600081526020018473ffffffffffffffffffffffffffffffffffffffff16815260200160008152602001600073ffffffffffffffffffffffffffffffffffffffff168152508160008151811061167f5761167f6124d4565b602002602001018190525060405180604001604052806002815260200182815250826000815181106116b3576116b36124d4565b602002602001018190525050919050565b602081810151516040805160808101825260008082529381018490529081018390526060810183905290915b828110156117f0578360200151818151811061170e5761170e6124d4565b6020908102919091018101518551918101516040808301516060840151845192517f7b621d3a000000000000000000000000000000000000000000000000000000008152600481018c905262ffffff909416602485015263ffffffff918216604485015216606483015273ffffffffffffffffffffffffffffffffffffffff9081166084830152919450911690637b621d3a9060a4016020604051808303816000875af11580156117c3573d6000803e3d6000fd5b505050506040513d601f19601f820116820180604052508101906117e79190612249565b506001016116f0565b5050505050565b8051600181111561188c5760015b8181101561188a576000848152602081905260409020835184908390811061182f5761182f6124d4565b602090810291909101810151825460018181018555600094855293839020825192909301516fffffffffffffffffffffffffffffffff9081167001000000000000000000000000000000000292169190911791015501611805565b505b505050565b604080516001808252818301909252606091816020015b6040805180820190915260008152606060208201528152602001906001900390816118a857905050905060007f000000000000000000000000000000000000000000000000000000000000000073ffffffffffffffffffffffffffffffffffffffff16632bdfe0046040518163ffffffff1660e01b8152600401602060405180830381865afa15801561193f573d6000803e3d6000fd5b505050506040513d601f19601f820116820180604052508101906119639190612249565b6040517f69e11cc500000000000000000000000000000000000000000000000000000000815260048101869052602481018590526002604482015273ffffffffffffffffffffffffffffffffffffffff91909116906369e11cc590606401600060405180830381865afa1580156119de573d6000803e3d6000fd5b505050506040513d6000823e601f3d9081017fffffffffffffffffffffffffffffffffffffffffffffffffffffffffffffffe0168201604052611a249190810190612d93565b90506040518060400160405280600281526020018281525082600081518110611a4f57611a4f6124d4565b60200260200101819052505092915050565b600060208284031215611a7357600080fd5b5035919050565b602080825282518282018190526000919060409081850190868401855b82811015611ad257815180516fffffffffffffffffffffffffffffffff90811686529087015116868501529284019290850190600101611a97565b5091979650505050505050565b600060208284031215611af157600080fd5b81357fffffffff0000000000000000000000000000000000000000000000000000000081168114611b2157600080fd5b9392505050565b73ffffffffffffffffffffffffffffffffffffffff81168114611b4a57600080fd5b50565b8035611b5881611b28565b919050565b600080600080600060808688031215611b7557600080fd5b8535611b8081611b28565b94506020860135611b9081611b28565b935060408601359250606086013567ffffffffffffffff80821115611bb457600080fd5b818801915088601f830112611bc857600080fd5b813581811115611bd757600080fd5b896020828501011115611be957600080fd5b9699959850939650602001949392505050565b60008060408385031215611c0f57600080fd5b823591506020830135611c2181611b28565b809150509250929050565b7f4e487b7100000000000000000000000000000000000000000000000000000000600052604160045260246000fd5b6040805190810167ffffffffffffffff81118282101715611c7e57611c7e611c2c565b60405290565b60405160c0810167ffffffffffffffff81118282101715611c7e57611c7e611c2c565b6040516080810167ffffffffffffffff81118282101715611c7e57611c7e611c2c565b604051610240810167ffffffffffffffff81118282101715611c7e57611c7e611c2c565b604051610120810167ffffffffffffffff81118282101715611c7e57611c7e611c2c565b60405160e0810167ffffffffffffffff81118282101715611c7e57611c7e611c2c565b604051601f82017fffffffffffffffffffffffffffffffffffffffffffffffffffffffffffffffe016810167ffffffffffffffff81118282101715611d7c57611d7c611c2c565b604052919050565b600082601f830112611d9557600080fd5b813567ffffffffffffffff811115611daf57611daf611c2c565b611de060207fffffffffffffffffffffffffffffffffffffffffffffffffffffffffffffffe0601f84011601611d35565b818152846020838601011115611df557600080fd5b816020850160208301376000918101602001919091529392505050565b600060408284031215611e2457600080fd5b611e2c611c5b565b9050813567ffffffffffffffff811115611e4557600080fd5b611e5184828501611d84565b8252506020820135602082015292915050565b600067ffffffffffffffff821115611e7e57611e7e611c2c565b5060051b60200190565b80356fffffffffffffffffffffffffffffffff81168114611b5857600080fd5b600060c08284031215611eba57600080fd5b611ec2611c84565b9050813581526020808301358183015260408084013581840152606084013560608401526080840135608084015260a084013567ffffffffffffffff811115611f0a57600080fd5b8401601f81018613611f1b57600080fd5b8035611f2e611f2982611e64565b611d35565b81815260069190911b82018401908481019088831115611f4d57600080fd5b928501925b82841015611f9b5784848a031215611f6a5760008081fd5b611f72611c5b565b611f7b85611e88565b8152611f88878601611e88565b8188015282529284019290850190611f52565b60a087015250939695505050505050565b600082601f830112611fbd57600080fd5b81356020611fcd611f2983611e64565b82815260059290921b84018101918181019086841115611fec57600080fd5b8286015b8481101561201057803561200381611b28565b8352918301918301611ff0565b509695505050505050565b803563ffffffff81168114611b5857600080fd5b6000604080838503121561204257600080fd5b61204a611c5b565b9150823561205781611b28565b825260208381013567ffffffffffffffff81111561207457600080fd5b8401601f8101861361208557600080fd5b8035612093611f2982611e64565b81815260079190911b820183019083810190888311156120b257600080fd5b928401925b82841015612131576080848a0312156120d05760008081fd5b6120d8611ca7565b84356120e381611b28565b81528486013562ffffff811681146120fb5760008081fd5b8187015261210a85880161201b565b87820152606061211b81870161201b565b90820152825260809390930192908401906120b7565b808588015250505050505092915050565b600080600080600080600060e0888a03121561215d57600080fd5b61216688611b4d565b9650602088013567ffffffffffffffff8082111561218357600080fd5b61218f8b838c01611e12565b975060408a01359150808211156121a557600080fd5b6121b18b838c01611d84565b965060608a01359150808211156121c757600080fd5b6121d38b838c01611d84565b955060808a01359150808211156121e957600080fd5b6121f58b838c01611ea8565b945060a08a013591508082111561220b57600080fd5b6122178b838c01611fac565b935060c08a013591508082111561222d57600080fd5b5061223a8a828b0161202f565b91505092959891949750929550565b60006020828403121561225b57600080fd5b8151611b2181611b28565b60006080820173ffffffffffffffffffffffffffffffffffffffff808816845260208188168186015286604086015260806060860152829150855480845260a0860192508660005281600020935060005b818110156122d3578454845260019485019493830193016122b7565b50919998505050505050505050565b80518015158114611b5857600080fd5b60006020828403121561230457600080fd5b611b21826122e2565b600060208083526080830173ffffffffffffffffffffffffffffffffffffffff85511682850152818501516040850152604085015160608086015281815180845260a0870191508483019350600092505b80831015612010578351825292840192600192909201919084019061235e565b60005b83811015612399578181015183820152602001612381565b50506000910152565b600081518084526123ba81602086016020860161237e565b601f017fffffffffffffffffffffffffffffffffffffffffffffffffffffffffffffffe0169290920160200192915050565b73ffffffffffffffffffffffffffffffffffffffff83168152604060208201526000825160408084015261242360808401826123a2565b905060208401516060840152809150509392505050565b60006020828403121561244c57600080fd5b5051919050565b83815260606020820152600061246c60608301856123a2565b828103604084015261247e81856123a2565b9695505050505050565b7f4e487b7100000000000000000000000000000000000000000000000000000000600052601160045260246000fd5b80820281158282048414176124ce576124ce612488565b92915050565b7f4e487b7100000000000000000000000000000000000000000000000000000000600052603260045260246000fd5b818103818111156124ce576124ce612488565b61253b8282518051151582526020808201511515908301526040908101511515910152565b6020810151606083015260408101516080830152606081015160a0830152608081015161256c60c084018215159052565b5060a081015180151560e08401525060c08101516101006125908185018315159052565b60e083015191506101206125a78186018415159052565b908301519150610140906125be8583018415159052565b83015191506101606125d38582018415159052565b908301519150610180906125ea8583018415159052565b83015191506101a06125ff8582018415159052565b9083015191506101c0906126168583018415159052565b83015191506101e061262b8582018415159052565b908301519150610200906126428583018415159052565b83015191506102206126578582018415159052565b9083015173ffffffffffffffffffffffffffffffffffffffff16610240850152909101516102609092019190915250565b600081518084526020808501808196508360051b810191508286016000805b86811015612767578385038a52825180518652860151604087870181905281518188018190529188019160609081890190865b818110156127505785518051151584528c81015115158d8501528581015186850152848101518585015260808082015173ffffffffffffffffffffffffffffffffffffffff9081169186019190915260a0808301519086015260c0918201511690840152948b019460e0909201916001016126da565b50509c89019c9750505092860192506001016126a7565b509298975050505050505050565b600081518084526020808501945080840160005b838110156127f2578151805173ffffffffffffffffffffffffffffffffffffffff908116895284820151168489015260408082015190890152606080820151908901526080808201519089015260a0908101519088015260c09096019590820190600101612789565b509495945050505050565b60006103c0898352602061284a8185018b80518252602081015160208301526040810151604083015273ffffffffffffffffffffffffffffffffffffffff60608201511660608301525050565b61285760a085018a612516565b6fffffffffffffffffffffffffffffffff88166103208501528161034085015261288382850188612688565b91508382036103608501526128988287612775565b848103610380860152855180825282870193509082019060005b818110156128e457845173ffffffffffffffffffffffffffffffffffffffff16835293830193918301916001016128b2565b50508481036103a0860152600f81527f7265766e6574206465706c6f79656400000000000000000000000000000000006020820152604081019c9b505050505050505050505050565b7f240000000000000000000000000000000000000000000000000000000000000081526000825161296581600185016020870161237e565b7f207072656d696e746564000000000000000000000000000000000000000000006001939091019283015250600b01919050565b86815285602082015273ffffffffffffffffffffffffffffffffffffffff8516604082015260c0606082015260006129d460c08301866123a2565b93151560808301525090151560a090910152949350505050565b8051611b5881611b28565b600060608284031215612a0b57600080fd5b6040516060810181811067ffffffffffffffff82111715612a2e57612a2e611c2c565b604052905080612a3d836122e2565b8152612a4b602084016122e2565b6020820152612a5c604084016122e2565b60408201525092915050565b60006102808284031215612a7b57600080fd5b612a83611cca565b9050612a8f83836129f9565b8152606082015160208201526080820151604082015260a08201516060820152612abb60c083016122e2565b6080820152612acc60e083016122e2565b60a0820152610100612adf8184016122e2565b60c0830152610120612af28185016122e2565b60e0840152610140612b058186016122e2565b838501526101609250612b198386016122e2565b828501526101809150612b2d8286016122e2565b908401526101a0612b3f8582016122e2565b838501526101c09250612b538386016122e2565b828501526101e09150612b678286016122e2565b90840152610200612b798582016122e2565b838501526102209250612b8d8386016122e2565b82850152612b9e61024086016129ee565b818501525050610260830151818301525092915050565b805160038110611b5857600080fd5b60008060008385036103c0811215612bdb57600080fd5b61012080821215612beb57600080fd5b612bf3611cee565b9150855182526020860151602083015260408601516040830152606086015160608301526080860151608083015260a086015160a083015260c086015160c0830152612c4160e087016129ee565b60e0830152610100808701518184015250819450612c6187828801612a68565b93505050612c726103a08501612bb5565b90509250925092565b60007fffffffffffffffffffffffffffffffffffffffffffffffffffffffffffffffff8203612cac57612cac612488565b5060010190565b60006103a0888352612cff602084018980518252602081015160208301526040810151604083015273ffffffffffffffffffffffffffffffffffffffff60608201511660608301525050565b612d0c60a0840188612516565b6fffffffffffffffffffffffffffffffff861661032084015280610340840152612d3881840186612688565b9050828103610360840152612d4d8185612775565b838103610380909401939093525050601681527f7265766e657420626f6f7374207363686564756c65640000000000000000000060208201526040019695505050505050565b60006020808385031215612da657600080fd5b825167ffffffffffffffff811115612dbd57600080fd5b8301601f81018513612dce57600080fd5b8051612ddc611f2982611e64565b81815260e09182028301840191848201919088841115612dfb57600080fd5b938501935b838510156111395780858a031215612e185760008081fd5b612e20611d12565b612e29866122e2565b8152612e368787016122e2565b818801526040868101519082015260608087015190820152608080870151612e5d81611b28565b9082015260a0868101519082015260c080870151612e7a81611b28565b9082015283529384019391850191612e0056fea2646970667358221220c6ab73e7c208e6841aa86b89bcade966e8f084d09a90c48c7be33bf48761723164736f6c63430008140033",
    "linkReferences": {}
  },
  "methodIdentifiers": {
    "boostOperatorPermissionIndexes(uint256)": "b82f18c1",
    "boostsOf(uint256)": "01a7d01a",
    "controller()": "f77c4791",
    "currentBoostNumberOf(uint256)": "ad011669",
    "deployRevnetFor(address,(string,uint256),string,string,(uint256,uint256,uint256,uint256,uint256,(uint128,uint128)[]),address[],(address,(address,uint24,uint32,uint32)[]))": "48dc59b6",
    "onERC721Received(address,address,uint256,bytes)": "150b7a02",
    "replaceBoostOperatorOf(uint256,address)": "440cfb7b",
    "scheduleNextBoostOf(uint256)": "ec3004ac",
    "supportsInterface(bytes4)": "01ffc9a7"
  },
  "id": 110
}