{
	"_format": "sphinx-sol-ct-artifact-1",
	"merkleRoot": "0x3b544fe49380791b3537fa1e7c3ff7403c9cc6291d97bb407dcfd8348e8895e1",
	"contractName": "REVCroptopDeployer",
	"address": "0x85aaA6924bcaa4613F560eaF981359C04264E6D7",
	"abi": [
		{
			"type": "constructor",
			"inputs": [
				{
					"name": "controller",
					"type": "address",
					"internalType": "contract IJBController"
				},
				{
					"name": "hookDeployer",
					"type": "address",
					"internalType": "contract IJB721TiersHookDeployer"
				},
				{
					"name": "publisher",
					"type": "address",
					"internalType": "contract CTPublisher"
				},
				{
					"name": "suckerRegistry",
					"type": "address",
					"internalType": "contract IBPSuckerRegistry"
				}
			],
			"stateMutability": "nonpayable"
		},
		{
			"type": "function",
			"name": "CONTROLLER",
			"inputs": [],
			"outputs": [
				{
					"name": "",
					"type": "address",
					"internalType": "contract IJBController"
				}
			],
			"stateMutability": "view"
		},
		{
			"type": "function",
			"name": "EXIT_DELAY",
			"inputs": [],
			"outputs": [
				{
					"name": "",
					"type": "uint256",
					"internalType": "uint256"
				}
			],
			"stateMutability": "view"
		},
		{
			"type": "function",
			"name": "HOOK_DEPLOYER",
			"inputs": [],
			"outputs": [
				{
					"name": "",
					"type": "address",
					"internalType": "contract IJB721TiersHookDeployer"
				}
			],
			"stateMutability": "view"
		},
		{
			"type": "function",
			"name": "PUBLISHER",
			"inputs": [],
			"outputs": [
				{
					"name": "",
					"type": "address",
					"internalType": "contract CTPublisher"
				}
			],
			"stateMutability": "view"
		},
		{
			"type": "function",
			"name": "SUCKER_REGISTRY",
			"inputs": [],
			"outputs": [
				{
					"name": "",
					"type": "address",
					"internalType": "contract IBPSuckerRegistry"
				}
			],
			"stateMutability": "view"
		},
		{
			"type": "function",
			"name": "beforePayRecordedWith",
			"inputs": [
				{
					"name": "context",
					"type": "tuple",
					"internalType": "struct JBBeforePayRecordedContext",
					"components": [
						{
							"name": "terminal",
							"type": "address",
							"internalType": "address"
						},
						{
							"name": "payer",
							"type": "address",
							"internalType": "address"
						},
						{
							"name": "amount",
							"type": "tuple",
							"internalType": "struct JBTokenAmount",
							"components": [
								{
									"name": "token",
									"type": "address",
									"internalType": "address"
								},
								{
									"name": "value",
									"type": "uint256",
									"internalType": "uint256"
								},
								{
									"name": "decimals",
									"type": "uint256",
									"internalType": "uint256"
								},
								{
									"name": "currency",
									"type": "uint256",
									"internalType": "uint256"
								}
							]
						},
						{
							"name": "projectId",
							"type": "uint256",
							"internalType": "uint256"
						},
						{
							"name": "rulesetId",
							"type": "uint256",
							"internalType": "uint256"
						},
						{
							"name": "beneficiary",
							"type": "address",
							"internalType": "address"
						},
						{
							"name": "weight",
							"type": "uint256",
							"internalType": "uint256"
						},
						{
							"name": "reservedRate",
							"type": "uint256",
							"internalType": "uint256"
						},
						{
							"name": "metadata",
							"type": "bytes",
							"internalType": "bytes"
						}
					]
				}
			],
			"outputs": [
				{
					"name": "weight",
					"type": "uint256",
					"internalType": "uint256"
				},
				{
					"name": "hookSpecifications",
					"type": "tuple[]",
					"internalType": "struct JBPayHookSpecification[]",
					"components": [
						{
							"name": "hook",
							"type": "address",
							"internalType": "contract IJBPayHook"
						},
						{
							"name": "amount",
							"type": "uint256",
							"internalType": "uint256"
						},
						{
							"name": "metadata",
							"type": "bytes",
							"internalType": "bytes"
						}
					]
				}
			],
			"stateMutability": "view"
		},
		{
			"type": "function",
			"name": "beforeRedeemRecordedWith",
			"inputs": [
				{
					"name": "context",
					"type": "tuple",
					"internalType": "struct JBBeforeRedeemRecordedContext",
					"components": [
						{
							"name": "terminal",
							"type": "address",
							"internalType": "address"
						},
						{
							"name": "holder",
							"type": "address",
							"internalType": "address"
						},
						{
							"name": "projectId",
							"type": "uint256",
							"internalType": "uint256"
						},
						{
							"name": "rulesetId",
							"type": "uint256",
							"internalType": "uint256"
						},
						{
							"name": "redeemCount",
							"type": "uint256",
							"internalType": "uint256"
						},
						{
							"name": "totalSupply",
							"type": "uint256",
							"internalType": "uint256"
						},
						{
							"name": "surplus",
							"type": "tuple",
							"internalType": "struct JBTokenAmount",
							"components": [
								{
									"name": "token",
									"type": "address",
									"internalType": "address"
								},
								{
									"name": "value",
									"type": "uint256",
									"internalType": "uint256"
								},
								{
									"name": "decimals",
									"type": "uint256",
									"internalType": "uint256"
								},
								{
									"name": "currency",
									"type": "uint256",
									"internalType": "uint256"
								}
							]
						},
						{
							"name": "useTotalSurplus",
							"type": "bool",
							"internalType": "bool"
						},
						{
							"name": "redemptionRate",
							"type": "uint256",
							"internalType": "uint256"
						},
						{
							"name": "metadata",
							"type": "bytes",
							"internalType": "bytes"
						}
					]
				}
			],
			"outputs": [
				{
					"name": "",
					"type": "uint256",
					"internalType": "uint256"
				},
				{
					"name": "",
					"type": "uint256",
					"internalType": "uint256"
				},
				{
					"name": "",
					"type": "uint256",
					"internalType": "uint256"
				},
				{
					"name": "specifications",
					"type": "tuple[]",
					"internalType": "struct JBRedeemHookSpecification[]",
					"components": [
						{
							"name": "hook",
							"type": "address",
							"internalType": "contract IJBRedeemHook"
						},
						{
							"name": "amount",
							"type": "uint256",
							"internalType": "uint256"
						},
						{
							"name": "metadata",
							"type": "bytes",
							"internalType": "bytes"
						}
					]
				}
			],
			"stateMutability": "view"
		},
		{
			"type": "function",
			"name": "buybackHookOf",
			"inputs": [
				{
					"name": "revnetId",
					"type": "uint256",
					"internalType": "uint256"
				}
			],
			"outputs": [
				{
					"name": "buybackHook",
					"type": "address",
					"internalType": "contract IJBRulesetDataHook"
				}
			],
			"stateMutability": "view"
		},
		{
			"type": "function",
			"name": "deployCroptopRevnetWith",
			"inputs": [
				{
					"name": "configuration",
					"type": "tuple",
					"internalType": "struct REVConfig",
					"components": [
						{
							"name": "description",
							"type": "tuple",
							"internalType": "struct REVDescription",
							"components": [
								{
									"name": "name",
									"type": "string",
									"internalType": "string"
								},
								{
									"name": "ticker",
									"type": "string",
									"internalType": "string"
								},
								{
									"name": "uri",
									"type": "string",
									"internalType": "string"
								},
								{
									"name": "salt",
									"type": "bytes32",
									"internalType": "bytes32"
								}
							]
						},
						{
							"name": "baseCurrency",
							"type": "uint32",
							"internalType": "uint32"
						},
						{
							"name": "premintTokenAmount",
							"type": "uint256",
							"internalType": "uint256"
						},
						{
							"name": "premintChainId",
							"type": "uint256",
							"internalType": "uint256"
						},
						{
							"name": "initialSplitOperator",
							"type": "address",
							"internalType": "address"
						},
						{
							"name": "stageConfigurations",
							"type": "tuple[]",
							"internalType": "struct REVStageConfig[]",
							"components": [
								{
									"name": "startsAtOrAfter",
									"type": "uint40",
									"internalType": "uint40"
								},
								{
									"name": "splitRate",
									"type": "uint16",
									"internalType": "uint16"
								},
								{
									"name": "initialIssuanceRate",
									"type": "uint112",
									"internalType": "uint112"
								},
								{
									"name": "priceCeilingIncreaseFrequency",
									"type": "uint40",
									"internalType": "uint40"
								},
								{
									"name": "priceCeilingIncreasePercentage",
									"type": "uint32",
									"internalType": "uint32"
								},
								{
									"name": "priceFloorTaxIntensity",
									"type": "uint16",
									"internalType": "uint16"
								}
							]
						}
					]
				},
				{
					"name": "terminalConfigurations",
					"type": "tuple[]",
					"internalType": "struct JBTerminalConfig[]",
					"components": [
						{
							"name": "terminal",
							"type": "address",
							"internalType": "contract IJBTerminal"
						},
						{
							"name": "tokensToAccept",
							"type": "address[]",
							"internalType": "address[]"
						}
					]
				},
				{
					"name": "buybackHookConfiguration",
					"type": "tuple",
					"internalType": "struct REVBuybackHookConfig",
					"components": [
						{
							"name": "hook",
							"type": "address",
							"internalType": "contract IJBBuybackHook"
						},
						{
							"name": "poolConfigurations",
							"type": "tuple[]",
							"internalType": "struct REVBuybackPoolConfig[]",
							"components": [
								{
									"name": "token",
									"type": "address",
									"internalType": "address"
								},
								{
									"name": "fee",
									"type": "uint24",
									"internalType": "uint24"
								},
								{
									"name": "twapWindow",
									"type": "uint32",
									"internalType": "uint32"
								},
								{
									"name": "twapSlippageTolerance",
									"type": "uint32",
									"internalType": "uint32"
								}
							]
						}
					]
				},
				{
					"name": "suckerDeploymentConfiguration",
					"type": "tuple",
					"internalType": "struct REVSuckerDeploymentConfig",
					"components": [
						{
							"name": "deployerConfigurations",
							"type": "tuple[]",
							"internalType": "struct BPSuckerDeployerConfig[]",
							"components": [
								{
									"name": "deployer",
									"type": "address",
									"internalType": "contract IBPSuckerDeployer"
								},
								{
									"name": "mappings",
									"type": "tuple[]",
									"internalType": "struct BPTokenMapping[]",
									"components": [
										{
											"name": "localToken",
											"type": "address",
											"internalType": "address"
										},
										{
											"name": "minGas",
											"type": "uint32",
											"internalType": "uint32"
										},
										{
											"name": "remoteToken",
											"type": "address",
											"internalType": "address"
										},
										{
											"name": "minBridgeAmount",
											"type": "uint256",
											"internalType": "uint256"
										}
									]
								}
							]
						},
						{
							"name": "salt",
							"type": "bytes32",
							"internalType": "bytes32"
						}
					]
				},
				{
					"name": "hookConfiguration",
					"type": "tuple",
					"internalType": "struct REVDeploy721TiersHookConfig",
					"components": [
						{
							"name": "baseline721HookConfiguration",
							"type": "tuple",
							"internalType": "struct JBDeploy721TiersHookConfig",
							"components": [
								{
									"name": "name",
									"type": "string",
									"internalType": "string"
								},
								{
									"name": "symbol",
									"type": "string",
									"internalType": "string"
								},
								{
									"name": "rulesets",
									"type": "address",
									"internalType": "contract IJBRulesets"
								},
								{
									"name": "baseUri",
									"type": "string",
									"internalType": "string"
								},
								{
									"name": "tokenUriResolver",
									"type": "address",
									"internalType": "contract IJB721TokenUriResolver"
								},
								{
									"name": "contractUri",
									"type": "string",
									"internalType": "string"
								},
								{
									"name": "tiersConfig",
									"type": "tuple",
									"internalType": "struct JB721InitTiersConfig",
									"components": [
										{
											"name": "tiers",
											"type": "tuple[]",
											"internalType": "struct JB721TierConfig[]",
											"components": [
												{
													"name": "price",
													"type": "uint104",
													"internalType": "uint104"
												},
												{
													"name": "initialSupply",
													"type": "uint32",
													"internalType": "uint32"
												},
												{
													"name": "votingUnits",
													"type": "uint32",
													"internalType": "uint32"
												},
												{
													"name": "reserveFrequency",
													"type": "uint16",
													"internalType": "uint16"
												},
												{
													"name": "reserveBeneficiary",
													"type": "address",
													"internalType": "address"
												},
												{
													"name": "encodedIPFSUri",
													"type": "bytes32",
													"internalType": "bytes32"
												},
												{
													"name": "category",
													"type": "uint24",
													"internalType": "uint24"
												},
												{
													"name": "allowOwnerMint",
													"type": "bool",
													"internalType": "bool"
												},
												{
													"name": "useReserveBeneficiaryAsDefault",
													"type": "bool",
													"internalType": "bool"
												},
												{
													"name": "transfersPausable",
													"type": "bool",
													"internalType": "bool"
												},
												{
													"name": "useVotingUnits",
													"type": "bool",
													"internalType": "bool"
												},
												{
													"name": "cannotBeRemoved",
													"type": "bool",
													"internalType": "bool"
												}
											]
										},
										{
											"name": "currency",
											"type": "uint32",
											"internalType": "uint32"
										},
										{
											"name": "decimals",
											"type": "uint8",
											"internalType": "uint8"
										},
										{
											"name": "prices",
											"type": "address",
											"internalType": "contract IJBPrices"
										}
									]
								},
								{
									"name": "reserveBeneficiary",
									"type": "address",
									"internalType": "address"
								},
								{
									"name": "flags",
									"type": "tuple",
									"internalType": "struct JB721TiersHookFlags",
									"components": [
										{
											"name": "noNewTiersWithReserves",
											"type": "bool",
											"internalType": "bool"
										},
										{
											"name": "noNewTiersWithVotes",
											"type": "bool",
											"internalType": "bool"
										},
										{
											"name": "noNewTiersWithOwnerMinting",
											"type": "bool",
											"internalType": "bool"
										},
										{
											"name": "preventOverspending",
											"type": "bool",
											"internalType": "bool"
										}
									]
								}
							]
						},
						{
							"name": "operatorCanAdjustTiers",
							"type": "bool",
							"internalType": "bool"
						},
						{
							"name": "operatorCanUpdateMetadata",
							"type": "bool",
							"internalType": "bool"
						},
						{
							"name": "operatorCanMint",
							"type": "bool",
							"internalType": "bool"
						}
					]
				},
				{
					"name": "otherPayHooksSpecifications",
					"type": "tuple[]",
					"internalType": "struct JBPayHookSpecification[]",
					"components": [
						{
							"name": "hook",
							"type": "address",
							"internalType": "contract IJBPayHook"
						},
						{
							"name": "amount",
							"type": "uint256",
							"internalType": "uint256"
						},
						{
							"name": "metadata",
							"type": "bytes",
							"internalType": "bytes"
						}
					]
				},
				{
					"name": "extraHookMetadata",
					"type": "uint16",
					"internalType": "uint16"
				},
				{
					"name": "allowedPosts",
					"type": "tuple[]",
					"internalType": "struct REVCroptopAllowedPost[]",
					"components": [
						{
							"name": "category",
							"type": "uint256",
							"internalType": "uint256"
						},
						{
							"name": "minimumPrice",
							"type": "uint256",
							"internalType": "uint256"
						},
						{
							"name": "minimumTotalSupply",
							"type": "uint256",
							"internalType": "uint256"
						},
						{
							"name": "maximumTotalSupply",
							"type": "uint256",
							"internalType": "uint256"
						},
						{
							"name": "allowedAddresses",
							"type": "address[]",
							"internalType": "address[]"
						}
					]
				}
			],
			"outputs": [
				{
					"name": "revnetId",
					"type": "uint256",
					"internalType": "uint256"
				},
				{
					"name": "hook",
					"type": "address",
					"internalType": "contract IJB721TiersHook"
				}
			],
			"stateMutability": "nonpayable"
		},
		{
			"type": "function",
			"name": "deployPayHookRevnetWith",
			"inputs": [
				{
					"name": "configuration",
					"type": "tuple",
					"internalType": "struct REVConfig",
					"components": [
						{
							"name": "description",
							"type": "tuple",
							"internalType": "struct REVDescription",
							"components": [
								{
									"name": "name",
									"type": "string",
									"internalType": "string"
								},
								{
									"name": "ticker",
									"type": "string",
									"internalType": "string"
								},
								{
									"name": "uri",
									"type": "string",
									"internalType": "string"
								},
								{
									"name": "salt",
									"type": "bytes32",
									"internalType": "bytes32"
								}
							]
						},
						{
							"name": "baseCurrency",
							"type": "uint32",
							"internalType": "uint32"
						},
						{
							"name": "premintTokenAmount",
							"type": "uint256",
							"internalType": "uint256"
						},
						{
							"name": "premintChainId",
							"type": "uint256",
							"internalType": "uint256"
						},
						{
							"name": "initialSplitOperator",
							"type": "address",
							"internalType": "address"
						},
						{
							"name": "stageConfigurations",
							"type": "tuple[]",
							"internalType": "struct REVStageConfig[]",
							"components": [
								{
									"name": "startsAtOrAfter",
									"type": "uint40",
									"internalType": "uint40"
								},
								{
									"name": "splitRate",
									"type": "uint16",
									"internalType": "uint16"
								},
								{
									"name": "initialIssuanceRate",
									"type": "uint112",
									"internalType": "uint112"
								},
								{
									"name": "priceCeilingIncreaseFrequency",
									"type": "uint40",
									"internalType": "uint40"
								},
								{
									"name": "priceCeilingIncreasePercentage",
									"type": "uint32",
									"internalType": "uint32"
								},
								{
									"name": "priceFloorTaxIntensity",
									"type": "uint16",
									"internalType": "uint16"
								}
							]
						}
					]
				},
				{
					"name": "terminalConfigurations",
					"type": "tuple[]",
					"internalType": "struct JBTerminalConfig[]",
					"components": [
						{
							"name": "terminal",
							"type": "address",
							"internalType": "contract IJBTerminal"
						},
						{
							"name": "tokensToAccept",
							"type": "address[]",
							"internalType": "address[]"
						}
					]
				},
				{
					"name": "buybackHookConfiguration",
					"type": "tuple",
					"internalType": "struct REVBuybackHookConfig",
					"components": [
						{
							"name": "hook",
							"type": "address",
							"internalType": "contract IJBBuybackHook"
						},
						{
							"name": "poolConfigurations",
							"type": "tuple[]",
							"internalType": "struct REVBuybackPoolConfig[]",
							"components": [
								{
									"name": "token",
									"type": "address",
									"internalType": "address"
								},
								{
									"name": "fee",
									"type": "uint24",
									"internalType": "uint24"
								},
								{
									"name": "twapWindow",
									"type": "uint32",
									"internalType": "uint32"
								},
								{
									"name": "twapSlippageTolerance",
									"type": "uint32",
									"internalType": "uint32"
								}
							]
						}
					]
				},
				{
					"name": "suckerDeploymentConfiguration",
					"type": "tuple",
					"internalType": "struct REVSuckerDeploymentConfig",
					"components": [
						{
							"name": "deployerConfigurations",
							"type": "tuple[]",
							"internalType": "struct BPSuckerDeployerConfig[]",
							"components": [
								{
									"name": "deployer",
									"type": "address",
									"internalType": "contract IBPSuckerDeployer"
								},
								{
									"name": "mappings",
									"type": "tuple[]",
									"internalType": "struct BPTokenMapping[]",
									"components": [
										{
											"name": "localToken",
											"type": "address",
											"internalType": "address"
										},
										{
											"name": "minGas",
											"type": "uint32",
											"internalType": "uint32"
										},
										{
											"name": "remoteToken",
											"type": "address",
											"internalType": "address"
										},
										{
											"name": "minBridgeAmount",
											"type": "uint256",
											"internalType": "uint256"
										}
									]
								}
							]
						},
						{
							"name": "salt",
							"type": "bytes32",
							"internalType": "bytes32"
						}
					]
				},
				{
					"name": "payHookSpecifications",
					"type": "tuple[]",
					"internalType": "struct JBPayHookSpecification[]",
					"components": [
						{
							"name": "hook",
							"type": "address",
							"internalType": "contract IJBPayHook"
						},
						{
							"name": "amount",
							"type": "uint256",
							"internalType": "uint256"
						},
						{
							"name": "metadata",
							"type": "bytes",
							"internalType": "bytes"
						}
					]
				},
				{
					"name": "extraHookMetadata",
					"type": "uint16",
					"internalType": "uint16"
				}
			],
			"outputs": [
				{
					"name": "revnetId",
					"type": "uint256",
					"internalType": "uint256"
				}
			],
			"stateMutability": "nonpayable"
		},
		{
			"type": "function",
			"name": "deployRevnetWith",
			"inputs": [
				{
					"name": "configuration",
					"type": "tuple",
					"internalType": "struct REVConfig",
					"components": [
						{
							"name": "description",
							"type": "tuple",
							"internalType": "struct REVDescription",
							"components": [
								{
									"name": "name",
									"type": "string",
									"internalType": "string"
								},
								{
									"name": "ticker",
									"type": "string",
									"internalType": "string"
								},
								{
									"name": "uri",
									"type": "string",
									"internalType": "string"
								},
								{
									"name": "salt",
									"type": "bytes32",
									"internalType": "bytes32"
								}
							]
						},
						{
							"name": "baseCurrency",
							"type": "uint32",
							"internalType": "uint32"
						},
						{
							"name": "premintTokenAmount",
							"type": "uint256",
							"internalType": "uint256"
						},
						{
							"name": "premintChainId",
							"type": "uint256",
							"internalType": "uint256"
						},
						{
							"name": "initialSplitOperator",
							"type": "address",
							"internalType": "address"
						},
						{
							"name": "stageConfigurations",
							"type": "tuple[]",
							"internalType": "struct REVStageConfig[]",
							"components": [
								{
									"name": "startsAtOrAfter",
									"type": "uint40",
									"internalType": "uint40"
								},
								{
									"name": "splitRate",
									"type": "uint16",
									"internalType": "uint16"
								},
								{
									"name": "initialIssuanceRate",
									"type": "uint112",
									"internalType": "uint112"
								},
								{
									"name": "priceCeilingIncreaseFrequency",
									"type": "uint40",
									"internalType": "uint40"
								},
								{
									"name": "priceCeilingIncreasePercentage",
									"type": "uint32",
									"internalType": "uint32"
								},
								{
									"name": "priceFloorTaxIntensity",
									"type": "uint16",
									"internalType": "uint16"
								}
							]
						}
					]
				},
				{
					"name": "terminalConfigurations",
					"type": "tuple[]",
					"internalType": "struct JBTerminalConfig[]",
					"components": [
						{
							"name": "terminal",
							"type": "address",
							"internalType": "contract IJBTerminal"
						},
						{
							"name": "tokensToAccept",
							"type": "address[]",
							"internalType": "address[]"
						}
					]
				},
				{
					"name": "buybackHookConfiguration",
					"type": "tuple",
					"internalType": "struct REVBuybackHookConfig",
					"components": [
						{
							"name": "hook",
							"type": "address",
							"internalType": "contract IJBBuybackHook"
						},
						{
							"name": "poolConfigurations",
							"type": "tuple[]",
							"internalType": "struct REVBuybackPoolConfig[]",
							"components": [
								{
									"name": "token",
									"type": "address",
									"internalType": "address"
								},
								{
									"name": "fee",
									"type": "uint24",
									"internalType": "uint24"
								},
								{
									"name": "twapWindow",
									"type": "uint32",
									"internalType": "uint32"
								},
								{
									"name": "twapSlippageTolerance",
									"type": "uint32",
									"internalType": "uint32"
								}
							]
						}
					]
				},
				{
					"name": "suckerDeploymentConfiguration",
					"type": "tuple",
					"internalType": "struct REVSuckerDeploymentConfig",
					"components": [
						{
							"name": "deployerConfigurations",
							"type": "tuple[]",
							"internalType": "struct BPSuckerDeployerConfig[]",
							"components": [
								{
									"name": "deployer",
									"type": "address",
									"internalType": "contract IBPSuckerDeployer"
								},
								{
									"name": "mappings",
									"type": "tuple[]",
									"internalType": "struct BPTokenMapping[]",
									"components": [
										{
											"name": "localToken",
											"type": "address",
											"internalType": "address"
										},
										{
											"name": "minGas",
											"type": "uint32",
											"internalType": "uint32"
										},
										{
											"name": "remoteToken",
											"type": "address",
											"internalType": "address"
										},
										{
											"name": "minBridgeAmount",
											"type": "uint256",
											"internalType": "uint256"
										}
									]
								}
							]
						},
						{
							"name": "salt",
							"type": "bytes32",
							"internalType": "bytes32"
						}
					]
				}
			],
			"outputs": [
				{
					"name": "revnetId",
					"type": "uint256",
					"internalType": "uint256"
				}
			],
			"stateMutability": "nonpayable"
		},
		{
			"type": "function",
			"name": "deploySuckersFor",
			"inputs": [
				{
					"name": "revnetId",
					"type": "uint256",
					"internalType": "uint256"
				},
				{
					"name": "encodedConfiguration",
					"type": "bytes",
					"internalType": "bytes"
				},
				{
					"name": "suckerDeploymentConfiguration",
					"type": "tuple",
					"internalType": "struct REVSuckerDeploymentConfig",
					"components": [
						{
							"name": "deployerConfigurations",
							"type": "tuple[]",
							"internalType": "struct BPSuckerDeployerConfig[]",
							"components": [
								{
									"name": "deployer",
									"type": "address",
									"internalType": "contract IBPSuckerDeployer"
								},
								{
									"name": "mappings",
									"type": "tuple[]",
									"internalType": "struct BPTokenMapping[]",
									"components": [
										{
											"name": "localToken",
											"type": "address",
											"internalType": "address"
										},
										{
											"name": "minGas",
											"type": "uint32",
											"internalType": "uint32"
										},
										{
											"name": "remoteToken",
											"type": "address",
											"internalType": "address"
										},
										{
											"name": "minBridgeAmount",
											"type": "uint256",
											"internalType": "uint256"
										}
									]
								}
							]
						},
						{
							"name": "salt",
							"type": "bytes32",
							"internalType": "bytes32"
						}
					]
				}
			],
			"outputs": [],
			"stateMutability": "nonpayable"
		},
		{
			"type": "function",
			"name": "deployTiered721RevnetWith",
			"inputs": [
				{
					"name": "configuration",
					"type": "tuple",
					"internalType": "struct REVConfig",
					"components": [
						{
							"name": "description",
							"type": "tuple",
							"internalType": "struct REVDescription",
							"components": [
								{
									"name": "name",
									"type": "string",
									"internalType": "string"
								},
								{
									"name": "ticker",
									"type": "string",
									"internalType": "string"
								},
								{
									"name": "uri",
									"type": "string",
									"internalType": "string"
								},
								{
									"name": "salt",
									"type": "bytes32",
									"internalType": "bytes32"
								}
							]
						},
						{
							"name": "baseCurrency",
							"type": "uint32",
							"internalType": "uint32"
						},
						{
							"name": "premintTokenAmount",
							"type": "uint256",
							"internalType": "uint256"
						},
						{
							"name": "premintChainId",
							"type": "uint256",
							"internalType": "uint256"
						},
						{
							"name": "initialSplitOperator",
							"type": "address",
							"internalType": "address"
						},
						{
							"name": "stageConfigurations",
							"type": "tuple[]",
							"internalType": "struct REVStageConfig[]",
							"components": [
								{
									"name": "startsAtOrAfter",
									"type": "uint40",
									"internalType": "uint40"
								},
								{
									"name": "splitRate",
									"type": "uint16",
									"internalType": "uint16"
								},
								{
									"name": "initialIssuanceRate",
									"type": "uint112",
									"internalType": "uint112"
								},
								{
									"name": "priceCeilingIncreaseFrequency",
									"type": "uint40",
									"internalType": "uint40"
								},
								{
									"name": "priceCeilingIncreasePercentage",
									"type": "uint32",
									"internalType": "uint32"
								},
								{
									"name": "priceFloorTaxIntensity",
									"type": "uint16",
									"internalType": "uint16"
								}
							]
						}
					]
				},
				{
					"name": "terminalConfigurations",
					"type": "tuple[]",
					"internalType": "struct JBTerminalConfig[]",
					"components": [
						{
							"name": "terminal",
							"type": "address",
							"internalType": "contract IJBTerminal"
						},
						{
							"name": "tokensToAccept",
							"type": "address[]",
							"internalType": "address[]"
						}
					]
				},
				{
					"name": "buybackHookConfiguration",
					"type": "tuple",
					"internalType": "struct REVBuybackHookConfig",
					"components": [
						{
							"name": "hook",
							"type": "address",
							"internalType": "contract IJBBuybackHook"
						},
						{
							"name": "poolConfigurations",
							"type": "tuple[]",
							"internalType": "struct REVBuybackPoolConfig[]",
							"components": [
								{
									"name": "token",
									"type": "address",
									"internalType": "address"
								},
								{
									"name": "fee",
									"type": "uint24",
									"internalType": "uint24"
								},
								{
									"name": "twapWindow",
									"type": "uint32",
									"internalType": "uint32"
								},
								{
									"name": "twapSlippageTolerance",
									"type": "uint32",
									"internalType": "uint32"
								}
							]
						}
					]
				},
				{
					"name": "suckerDeploymentConfiguration",
					"type": "tuple",
					"internalType": "struct REVSuckerDeploymentConfig",
					"components": [
						{
							"name": "deployerConfigurations",
							"type": "tuple[]",
							"internalType": "struct BPSuckerDeployerConfig[]",
							"components": [
								{
									"name": "deployer",
									"type": "address",
									"internalType": "contract IBPSuckerDeployer"
								},
								{
									"name": "mappings",
									"type": "tuple[]",
									"internalType": "struct BPTokenMapping[]",
									"components": [
										{
											"name": "localToken",
											"type": "address",
											"internalType": "address"
										},
										{
											"name": "minGas",
											"type": "uint32",
											"internalType": "uint32"
										},
										{
											"name": "remoteToken",
											"type": "address",
											"internalType": "address"
										},
										{
											"name": "minBridgeAmount",
											"type": "uint256",
											"internalType": "uint256"
										}
									]
								}
							]
						},
						{
							"name": "salt",
							"type": "bytes32",
							"internalType": "bytes32"
						}
					]
				},
				{
					"name": "hookConfiguration",
					"type": "tuple",
					"internalType": "struct REVDeploy721TiersHookConfig",
					"components": [
						{
							"name": "baseline721HookConfiguration",
							"type": "tuple",
							"internalType": "struct JBDeploy721TiersHookConfig",
							"components": [
								{
									"name": "name",
									"type": "string",
									"internalType": "string"
								},
								{
									"name": "symbol",
									"type": "string",
									"internalType": "string"
								},
								{
									"name": "rulesets",
									"type": "address",
									"internalType": "contract IJBRulesets"
								},
								{
									"name": "baseUri",
									"type": "string",
									"internalType": "string"
								},
								{
									"name": "tokenUriResolver",
									"type": "address",
									"internalType": "contract IJB721TokenUriResolver"
								},
								{
									"name": "contractUri",
									"type": "string",
									"internalType": "string"
								},
								{
									"name": "tiersConfig",
									"type": "tuple",
									"internalType": "struct JB721InitTiersConfig",
									"components": [
										{
											"name": "tiers",
											"type": "tuple[]",
											"internalType": "struct JB721TierConfig[]",
											"components": [
												{
													"name": "price",
													"type": "uint104",
													"internalType": "uint104"
												},
												{
													"name": "initialSupply",
													"type": "uint32",
													"internalType": "uint32"
												},
												{
													"name": "votingUnits",
													"type": "uint32",
													"internalType": "uint32"
												},
												{
													"name": "reserveFrequency",
													"type": "uint16",
													"internalType": "uint16"
												},
												{
													"name": "reserveBeneficiary",
													"type": "address",
													"internalType": "address"
												},
												{
													"name": "encodedIPFSUri",
													"type": "bytes32",
													"internalType": "bytes32"
												},
												{
													"name": "category",
													"type": "uint24",
													"internalType": "uint24"
												},
												{
													"name": "allowOwnerMint",
													"type": "bool",
													"internalType": "bool"
												},
												{
													"name": "useReserveBeneficiaryAsDefault",
													"type": "bool",
													"internalType": "bool"
												},
												{
													"name": "transfersPausable",
													"type": "bool",
													"internalType": "bool"
												},
												{
													"name": "useVotingUnits",
													"type": "bool",
													"internalType": "bool"
												},
												{
													"name": "cannotBeRemoved",
													"type": "bool",
													"internalType": "bool"
												}
											]
										},
										{
											"name": "currency",
											"type": "uint32",
											"internalType": "uint32"
										},
										{
											"name": "decimals",
											"type": "uint8",
											"internalType": "uint8"
										},
										{
											"name": "prices",
											"type": "address",
											"internalType": "contract IJBPrices"
										}
									]
								},
								{
									"name": "reserveBeneficiary",
									"type": "address",
									"internalType": "address"
								},
								{
									"name": "flags",
									"type": "tuple",
									"internalType": "struct JB721TiersHookFlags",
									"components": [
										{
											"name": "noNewTiersWithReserves",
											"type": "bool",
											"internalType": "bool"
										},
										{
											"name": "noNewTiersWithVotes",
											"type": "bool",
											"internalType": "bool"
										},
										{
											"name": "noNewTiersWithOwnerMinting",
											"type": "bool",
											"internalType": "bool"
										},
										{
											"name": "preventOverspending",
											"type": "bool",
											"internalType": "bool"
										}
									]
								}
							]
						},
						{
							"name": "operatorCanAdjustTiers",
							"type": "bool",
							"internalType": "bool"
						},
						{
							"name": "operatorCanUpdateMetadata",
							"type": "bool",
							"internalType": "bool"
						},
						{
							"name": "operatorCanMint",
							"type": "bool",
							"internalType": "bool"
						}
					]
				},
				{
					"name": "otherPayHooksSpecifications",
					"type": "tuple[]",
					"internalType": "struct JBPayHookSpecification[]",
					"components": [
						{
							"name": "hook",
							"type": "address",
							"internalType": "contract IJBPayHook"
						},
						{
							"name": "amount",
							"type": "uint256",
							"internalType": "uint256"
						},
						{
							"name": "metadata",
							"type": "bytes",
							"internalType": "bytes"
						}
					]
				},
				{
					"name": "extraHookMetadata",
					"type": "uint16",
					"internalType": "uint16"
				}
			],
			"outputs": [
				{
					"name": "revnetId",
					"type": "uint256",
					"internalType": "uint256"
				},
				{
					"name": "hook",
					"type": "address",
					"internalType": "contract IJB721TiersHook"
				}
			],
			"stateMutability": "nonpayable"
		},
		{
			"type": "function",
			"name": "exitDelayOf",
			"inputs": [
				{
					"name": "revnetId",
					"type": "uint256",
					"internalType": "uint256"
				}
			],
			"outputs": [
				{
					"name": "exitDelay",
					"type": "uint256",
					"internalType": "uint256"
				}
			],
			"stateMutability": "view"
		},
		{
			"type": "function",
			"name": "hasMintPermissionFor",
			"inputs": [
				{
					"name": "revnetId",
					"type": "uint256",
					"internalType": "uint256"
				},
				{
					"name": "addr",
					"type": "address",
					"internalType": "address"
				}
			],
			"outputs": [
				{
					"name": "",
					"type": "bool",
					"internalType": "bool"
				}
			],
			"stateMutability": "view"
		},
		{
			"type": "function",
			"name": "onERC721Received",
			"inputs": [
				{
					"name": "operator",
					"type": "address",
					"internalType": "address"
				},
				{
					"name": "from",
					"type": "address",
					"internalType": "address"
				},
				{
					"name": "tokenId",
					"type": "uint256",
					"internalType": "uint256"
				},
				{
					"name": "data",
					"type": "bytes",
					"internalType": "bytes"
				}
			],
			"outputs": [
				{
					"name": "",
					"type": "bytes4",
					"internalType": "bytes4"
				}
			],
			"stateMutability": "view"
		},
		{
			"type": "function",
			"name": "payHookSpecificationsOf",
			"inputs": [
				{
					"name": "revnetId",
					"type": "uint256",
					"internalType": "uint256"
				}
			],
			"outputs": [
				{
					"name": "",
					"type": "tuple[]",
					"internalType": "struct JBPayHookSpecification[]",
					"components": [
						{
							"name": "hook",
							"type": "address",
							"internalType": "contract IJBPayHook"
						},
						{
							"name": "amount",
							"type": "uint256",
							"internalType": "uint256"
						},
						{
							"name": "metadata",
							"type": "bytes",
							"internalType": "bytes"
						}
					]
				}
			],
			"stateMutability": "view"
		},
		{
			"type": "function",
			"name": "replaceSplitOperatorOf",
			"inputs": [
				{
					"name": "revnetId",
					"type": "uint256",
					"internalType": "uint256"
				},
				{
					"name": "newSplitOperator",
					"type": "address",
					"internalType": "address"
				}
			],
			"outputs": [],
			"stateMutability": "nonpayable"
		},
		{
			"type": "function",
			"name": "supportsInterface",
			"inputs": [
				{
					"name": "interfaceId",
					"type": "bytes4",
					"internalType": "bytes4"
				}
			],
			"outputs": [
				{
					"name": "",
					"type": "bool",
					"internalType": "bool"
				}
			],
			"stateMutability": "view"
		},
		{
			"type": "event",
			"name": "DeployRevnet",
			"inputs": [
				{
					"name": "revnetId",
					"type": "uint256",
					"indexed": true,
					"internalType": "uint256"
				},
				{
					"name": "configuration",
					"type": "tuple",
					"indexed": false,
					"internalType": "struct REVConfig",
					"components": [
						{
							"name": "description",
							"type": "tuple",
							"internalType": "struct REVDescription",
							"components": [
								{
									"name": "name",
									"type": "string",
									"internalType": "string"
								},
								{
									"name": "ticker",
									"type": "string",
									"internalType": "string"
								},
								{
									"name": "uri",
									"type": "string",
									"internalType": "string"
								},
								{
									"name": "salt",
									"type": "bytes32",
									"internalType": "bytes32"
								}
							]
						},
						{
							"name": "baseCurrency",
							"type": "uint32",
							"internalType": "uint32"
						},
						{
							"name": "premintTokenAmount",
							"type": "uint256",
							"internalType": "uint256"
						},
						{
							"name": "premintChainId",
							"type": "uint256",
							"internalType": "uint256"
						},
						{
							"name": "initialSplitOperator",
							"type": "address",
							"internalType": "address"
						},
						{
							"name": "stageConfigurations",
							"type": "tuple[]",
							"internalType": "struct REVStageConfig[]",
							"components": [
								{
									"name": "startsAtOrAfter",
									"type": "uint40",
									"internalType": "uint40"
								},
								{
									"name": "splitRate",
									"type": "uint16",
									"internalType": "uint16"
								},
								{
									"name": "initialIssuanceRate",
									"type": "uint112",
									"internalType": "uint112"
								},
								{
									"name": "priceCeilingIncreaseFrequency",
									"type": "uint40",
									"internalType": "uint40"
								},
								{
									"name": "priceCeilingIncreasePercentage",
									"type": "uint32",
									"internalType": "uint32"
								},
								{
									"name": "priceFloorTaxIntensity",
									"type": "uint16",
									"internalType": "uint16"
								}
							]
						}
					]
				},
				{
					"name": "terminalConfigurations",
					"type": "tuple[]",
					"indexed": false,
					"internalType": "struct JBTerminalConfig[]",
					"components": [
						{
							"name": "terminal",
							"type": "address",
							"internalType": "contract IJBTerminal"
						},
						{
							"name": "tokensToAccept",
							"type": "address[]",
							"internalType": "address[]"
						}
					]
				},
				{
					"name": "buybackHookConfiguration",
					"type": "tuple",
					"indexed": false,
					"internalType": "struct REVBuybackHookConfig",
					"components": [
						{
							"name": "hook",
							"type": "address",
							"internalType": "contract IJBBuybackHook"
						},
						{
							"name": "poolConfigurations",
							"type": "tuple[]",
							"internalType": "struct REVBuybackPoolConfig[]",
							"components": [
								{
									"name": "token",
									"type": "address",
									"internalType": "address"
								},
								{
									"name": "fee",
									"type": "uint24",
									"internalType": "uint24"
								},
								{
									"name": "twapWindow",
									"type": "uint32",
									"internalType": "uint32"
								},
								{
									"name": "twapSlippageTolerance",
									"type": "uint32",
									"internalType": "uint32"
								}
							]
						}
					]
				},
				{
					"name": "suckerDeploymentConfiguration",
					"type": "tuple",
					"indexed": false,
					"internalType": "struct REVSuckerDeploymentConfig",
					"components": [
						{
							"name": "deployerConfigurations",
							"type": "tuple[]",
							"internalType": "struct BPSuckerDeployerConfig[]",
							"components": [
								{
									"name": "deployer",
									"type": "address",
									"internalType": "contract IBPSuckerDeployer"
								},
								{
									"name": "mappings",
									"type": "tuple[]",
									"internalType": "struct BPTokenMapping[]",
									"components": [
										{
											"name": "localToken",
											"type": "address",
											"internalType": "address"
										},
										{
											"name": "minGas",
											"type": "uint32",
											"internalType": "uint32"
										},
										{
											"name": "remoteToken",
											"type": "address",
											"internalType": "address"
										},
										{
											"name": "minBridgeAmount",
											"type": "uint256",
											"internalType": "uint256"
										}
									]
								}
							]
						},
						{
							"name": "salt",
							"type": "bytes32",
							"internalType": "bytes32"
						}
					]
				},
				{
					"name": "rulesetConfigurations",
					"type": "tuple[]",
					"indexed": false,
					"internalType": "struct JBRulesetConfig[]",
					"components": [
						{
							"name": "mustStartAtOrAfter",
							"type": "uint256",
							"internalType": "uint256"
						},
						{
							"name": "duration",
							"type": "uint256",
							"internalType": "uint256"
						},
						{
							"name": "weight",
							"type": "uint256",
							"internalType": "uint256"
						},
						{
							"name": "decayRate",
							"type": "uint256",
							"internalType": "uint256"
						},
						{
							"name": "approvalHook",
							"type": "address",
							"internalType": "contract IJBRulesetApprovalHook"
						},
						{
							"name": "metadata",
							"type": "tuple",
							"internalType": "struct JBRulesetMetadata",
							"components": [
								{
									"name": "reservedRate",
									"type": "uint256",
									"internalType": "uint256"
								},
								{
									"name": "redemptionRate",
									"type": "uint256",
									"internalType": "uint256"
								},
								{
									"name": "baseCurrency",
									"type": "uint256",
									"internalType": "uint256"
								},
								{
									"name": "pausePay",
									"type": "bool",
									"internalType": "bool"
								},
								{
									"name": "pauseCreditTransfers",
									"type": "bool",
									"internalType": "bool"
								},
								{
									"name": "allowOwnerMinting",
									"type": "bool",
									"internalType": "bool"
								},
								{
									"name": "allowTerminalMigration",
									"type": "bool",
									"internalType": "bool"
								},
								{
									"name": "allowSetTerminals",
									"type": "bool",
									"internalType": "bool"
								},
								{
									"name": "allowControllerMigration",
									"type": "bool",
									"internalType": "bool"
								},
								{
									"name": "allowSetController",
									"type": "bool",
									"internalType": "bool"
								},
								{
									"name": "holdFees",
									"type": "bool",
									"internalType": "bool"
								},
								{
									"name": "useTotalSurplusForRedemptions",
									"type": "bool",
									"internalType": "bool"
								},
								{
									"name": "useDataHookForPay",
									"type": "bool",
									"internalType": "bool"
								},
								{
									"name": "useDataHookForRedeem",
									"type": "bool",
									"internalType": "bool"
								},
								{
									"name": "dataHook",
									"type": "address",
									"internalType": "address"
								},
								{
									"name": "metadata",
									"type": "uint256",
									"internalType": "uint256"
								}
							]
						},
						{
							"name": "splitGroups",
							"type": "tuple[]",
							"internalType": "struct JBSplitGroup[]",
							"components": [
								{
									"name": "groupId",
									"type": "uint256",
									"internalType": "uint256"
								},
								{
									"name": "splits",
									"type": "tuple[]",
									"internalType": "struct JBSplit[]",
									"components": [
										{
											"name": "preferAddToBalance",
											"type": "bool",
											"internalType": "bool"
										},
										{
											"name": "percent",
											"type": "uint256",
											"internalType": "uint256"
										},
										{
											"name": "projectId",
											"type": "uint256",
											"internalType": "uint256"
										},
										{
											"name": "beneficiary",
											"type": "address",
											"internalType": "address payable"
										},
										{
											"name": "lockedUntil",
											"type": "uint256",
											"internalType": "uint256"
										},
										{
											"name": "hook",
											"type": "address",
											"internalType": "contract IJBSplitHook"
										}
									]
								}
							]
						},
						{
							"name": "fundAccessLimitGroups",
							"type": "tuple[]",
							"internalType": "struct JBFundAccessLimitGroup[]",
							"components": [
								{
									"name": "terminal",
									"type": "address",
									"internalType": "address"
								},
								{
									"name": "token",
									"type": "address",
									"internalType": "address"
								},
								{
									"name": "payoutLimits",
									"type": "tuple[]",
									"internalType": "struct JBCurrencyAmount[]",
									"components": [
										{
											"name": "amount",
											"type": "uint256",
											"internalType": "uint256"
										},
										{
											"name": "currency",
											"type": "uint256",
											"internalType": "uint256"
										}
									]
								},
								{
									"name": "surplusAllowances",
									"type": "tuple[]",
									"internalType": "struct JBCurrencyAmount[]",
									"components": [
										{
											"name": "amount",
											"type": "uint256",
											"internalType": "uint256"
										},
										{
											"name": "currency",
											"type": "uint256",
											"internalType": "uint256"
										}
									]
								}
							]
						}
					]
				},
				{
					"name": "encodedConfiguration",
					"type": "bytes",
					"indexed": false,
					"internalType": "bytes"
				},
				{
					"name": "isInProgress",
					"type": "bool",
					"indexed": false,
					"internalType": "bool"
				},
				{
					"name": "caller",
					"type": "address",
					"indexed": false,
					"internalType": "address"
				}
			],
			"anonymous": false
		},
		{
			"type": "event",
			"name": "DeploySuckers",
			"inputs": [
				{
					"name": "revnetId",
					"type": "uint256",
					"indexed": true,
					"internalType": "uint256"
				},
				{
					"name": "salt",
					"type": "bytes32",
					"indexed": true,
					"internalType": "bytes32"
				},
				{
					"name": "encodedConfiguration",
					"type": "bytes",
					"indexed": false,
					"internalType": "bytes"
				},
				{
					"name": "suckerDeploymentConfiguration",
					"type": "tuple",
					"indexed": false,
					"internalType": "struct REVSuckerDeploymentConfig",
					"components": [
						{
							"name": "deployerConfigurations",
							"type": "tuple[]",
							"internalType": "struct BPSuckerDeployerConfig[]",
							"components": [
								{
									"name": "deployer",
									"type": "address",
									"internalType": "contract IBPSuckerDeployer"
								},
								{
									"name": "mappings",
									"type": "tuple[]",
									"internalType": "struct BPTokenMapping[]",
									"components": [
										{
											"name": "localToken",
											"type": "address",
											"internalType": "address"
										},
										{
											"name": "minGas",
											"type": "uint32",
											"internalType": "uint32"
										},
										{
											"name": "remoteToken",
											"type": "address",
											"internalType": "address"
										},
										{
											"name": "minBridgeAmount",
											"type": "uint256",
											"internalType": "uint256"
										}
									]
								}
							]
						},
						{
							"name": "salt",
							"type": "bytes32",
							"internalType": "bytes32"
						}
					]
				},
				{
					"name": "caller",
					"type": "address",
					"indexed": false,
					"internalType": "address"
				}
			],
			"anonymous": false
		},
		{
			"type": "event",
			"name": "ReplaceSplitOperator",
			"inputs": [
				{
					"name": "revnetId",
					"type": "uint256",
					"indexed": true,
					"internalType": "uint256"
				},
				{
					"name": "newSplitOperator",
					"type": "address",
					"indexed": true,
					"internalType": "address"
				},
				{
					"name": "caller",
					"type": "address",
					"indexed": false,
					"internalType": "address"
				}
			],
			"anonymous": false
		},
		{
			"type": "event",
			"name": "StoredPayHookSpecifications",
			"inputs": [
				{
					"name": "revnetId",
					"type": "uint256",
					"indexed": true,
					"internalType": "uint256"
				},
				{
					"name": "payHookSpecifications",
					"type": "tuple[]",
					"indexed": false,
					"internalType": "struct JBPayHookSpecification[]",
					"components": [
						{
							"name": "hook",
							"type": "address",
							"internalType": "contract IJBPayHook"
						},
						{
							"name": "amount",
							"type": "uint256",
							"internalType": "uint256"
						},
						{
							"name": "metadata",
							"type": "bytes",
							"internalType": "bytes"
						}
					]
				},
				{
					"name": "caller",
					"type": "address",
					"indexed": false,
					"internalType": "address"
				}
			],
			"anonymous": false
		},
		{
			"type": "error",
			"name": "REVBasicDeployer_ExitDelayInEffect",
			"inputs": []
		},
		{
			"type": "error",
			"name": "REVBasicDeployer_Unauthorized",
			"inputs": []
		}
	],
	"solcInputHash": "8abe45a86bca175ef5bd5651ad7253ca",
	"args": [
		"0x698d26DF9F8d5CF0Fd359D26aDD623602a2bC355",
		"0x7a8F8386Bf3D331B216ae301BEA5EC47CC51A8B2",
		"0xa511BBd7FabEBC41e4491645716DE9E3362B19F2",
		"0x5c94828C12604A92f39C6974f4cD964a702B81Dc"
	],
	"bytecode": "0x60e06040523480156200001157600080fd5b5060405162005f9338038062005f93833981016040819052620000349162000106565b6001600160a01b03938416608052831660a052600280546001808201835560127f405787fa12a823e0f2b7631cc41b3ba8828b3321ca811111fa75cd3aa3bb5ace928301558254808201845560199083015582548082019093556007929091019190915591831660c052600480546001600160a01b031916919093161790915560058054918201815560005260167f036b6384b5eca791c62761152d0c79bb0604c104a5fb6f4eb0703f3154bb3db0909101556200016e565b6001600160a01b03811681146200010357600080fd5b50565b600080600080608085870312156200011d57600080fd5b84516200012a81620000ed565b60208601519094506200013d81620000ed565b60408601519093506200015081620000ed565b60608601519092506200016381620000ed565b939692955090935050565b60805160a05160c051615d706200022360003960008181610334015261174501526000818161035b01528181610a9c015281816110c001528181611456015281816124de015261257d0152600081816103dd015281816104b601528181610ef8015281816112140152818161153b0152818161190201528181611ab501528181611c9101528181611ee201528181612033015281816120d8015281816121740152818161230f01526124280152615d706000f3fe608060405234801561001057600080fd5b50600436106101515760003560e01c80639d82ba25116100cd578063bb19940211610081578063dbfbe5da11610066578063dbfbe5da146103a5578063eb5ad9d9146103c5578063ee0fc121146103d857600080fd5b8063bb1994021461037d578063c8bcb88c1461039257600080fd5b8063aaf320d7116100b2578063aaf320d71461030c578063abf8c5c81461032f578063b5d255331461035657600080fd5b80639d82ba25146102c5578063a9cf730b146102cf57600080fd5b80634c4ffc7111610124578063677ce08811610109578063677ce0881461024457806371f6878d146102575780637249a7731461026a57600080fd5b80634c4ffc71146102035780635c0a7cee1461022457600080fd5b806301ffc9a71461015657806302ccf9a11461017e578063150b7a021461019f57806343681e15146101e3575b600080fd5b610169610164366004612ef3565b6103ff565b60405190151581526020015b60405180910390f35b61019161018c366004613882565b610498565b604051908152602001610175565b6101b26101ad36600461392f565b6104b2565b6040517fffffffff000000000000000000000000000000000000000000000000000000009091168152602001610175565b6101916101f13660046139ce565b60016020526000908152604090205481565b6102166102113660046139e7565b6105c6565b604051610175929190613b30565b6102376102323660046139ce565b610902565b6040516101759190613b51565b610169610252366004613b64565b610a33565b610191610265366004613c88565b610bba565b6102a06102783660046139ce565b60006020819052908152604090205473ffffffffffffffffffffffffffffffffffffffff1681565b60405173ffffffffffffffffffffffffffffffffffffffff9091168152602001610175565b6101916276a70081565b6102e26102dd366004614232565b610cd8565b6040805192835273ffffffffffffffffffffffffffffffffffffffff909116602083015201610175565b61031f61031a36600461435e565b6110a3565b604051610175949392919061439a565b6102a07f000000000000000000000000000000000000000000000000000000000000000081565b6102a07f000000000000000000000000000000000000000000000000000000000000000081565b61039061038b366004614465565b611212565b005b6102e26103a03660046144d2565b611536565b6004546102a09073ffffffffffffffffffffffffffffffffffffffff1681565b6103906103d3366004613b64565b611900565b6102a07f000000000000000000000000000000000000000000000000000000000000000081565b60007fffffffff0000000000000000000000000000000000000000000000000000000082167f81c03c2e00000000000000000000000000000000000000000000000000000000148061049257507f01ffc9a7000000000000000000000000000000000000000000000000000000007fffffffff000000000000000000000000000000000000000000000000000000008316145b92915050565b60006104a985858530600087611ec9565b95945050505050565b60007f000000000000000000000000000000000000000000000000000000000000000073ffffffffffffffffffffffffffffffffffffffff1663293c49996040518163ffffffff1660e01b8152600401602060405180830381865afa15801561051f573d6000803e3d6000fd5b505050506040513d601f19601f8201168201806040525081019061054391906145d9565b73ffffffffffffffffffffffffffffffffffffffff163373ffffffffffffffffffffffffffffffffffffffff161461057a57600080fd5b73ffffffffffffffffffffffffffffffffffffffff85161561059b57600080fd5b507f150b7a020000000000000000000000000000000000000000000000000000000095945050505050565b60c0810135600090815260208190526040812054606090819073ffffffffffffffffffffffffffffffffffffffff1680156106b6576040517f4c4ffc7100000000000000000000000000000000000000000000000000000000815273ffffffffffffffffffffffffffffffffffffffff821690634c4ffc719061064d9088906004016146ec565b600060405180830381865afa15801561066a573d6000803e3d6000fd5b505050506040513d6000823e601f3d9081017fffffffffffffffffffffffffffffffffffffffffffffffffffffffffffffffe01682016040526106b091908101906147db565b90945091505b815160c086013560009081526003602090815260408083208054825181850281018501909352808352941515949192909190849084015b828210156107de5760008481526020908190206040805160608101825260038602909201805473ffffffffffffffffffffffffffffffffffffffff1683526001810154938301939093526002830180549293929184019161074d90614941565b80601f016020809104026020016040519081016040528092919081815260200182805461077990614941565b80156107c65780601f1061079b576101008083540402835291602001916107c6565b820191906000526020600020905b8154815290600101906020018083116107a957829003601f168201915b505050505081525050815260200190600101906106ed565b505050509050600081519050826107f65760006107f9565b60015b6108069060ff16826149c3565b67ffffffffffffffff81111561081e5761081e612f3c565b60405190808252806020026020018201604052801561086b57816020015b6040805160608082018352600080835260208301529181019190915281526020019060019003908161083c5790505b50955060005b818110156108b85782818151811061088b5761088b6149d6565b60200260200101518782815181106108a5576108a56149d6565b6020908102919091010152600101610871565b5082156108f857846000815181106108d2576108d26149d6565b60200260200101518682815181106108ec576108ec6149d6565b60200260200101819052505b5050505050915091565b606060036000838152602001908152602001600020805480602002602001604051908101604052809291908181526020016000905b82821015610a285760008481526020908190206040805160608101825260038602909201805473ffffffffffffffffffffffffffffffffffffffff1683526001810154938301939093526002830180549293929184019161099790614941565b80601f01602080910402602001604051908101604052809291908181526020018280546109c390614941565b8015610a105780601f106109e557610100808354040283529160200191610a10565b820191906000526020600020905b8154815290600101906020018083116109f357829003601f168201915b50505050508152505081526020019060010190610937565b505050509050919050565b60008281526020819052604081205473ffffffffffffffffffffffffffffffffffffffff90811690831603610a6a57506001610492565b6040517f3d12cb87000000000000000000000000000000000000000000000000000000008152600481018490526000907f000000000000000000000000000000000000000000000000000000000000000073ffffffffffffffffffffffffffffffffffffffff1690633d12cb8790602401600060405180830381865afa158015610af8573d6000803e3d6000fd5b505050506040513d6000823e601f3d9081017fffffffffffffffffffffffffffffffffffffffffffffffffffffffffffffffe0168201604052610b3e9190810190614a05565b805190915060005b81811015610bae57828181518110610b6057610b606149d6565b602002602001015173ffffffffffffffffffffffffffffffffffffffff168573ffffffffffffffffffffffffffffffffffffffff1603610ba65760019350505050610492565b600101610b46565b50600095945050505050565b6000610bce878787308661ffff1689611ec9565b835190915060005b81811015610c925760008381526003602052604090208551869083908110610c0057610c006149d6565b602090810291909101810151825460018082018555600094855293839020825160039092020180547fffffffffffffffffffffffff00000000000000000000000000000000000000001673ffffffffffffffffffffffffffffffffffffffff909216919091178155918101519282019290925560408201516002820190610c879082614af0565b505050600101610bd6565b50817fdfaf2737f25eace49d372b472ec03f1df0f9814dfc69d2b95c5e92a041f42e298533604051610cc5929190614c0a565b60405180910390a2509695505050505050565b600080610cea8a8a8a8a8a8a8a611536565b8451919350915060008167ffffffffffffffff811115610d0c57610d0c612f3c565b604051908082528060200260200182016040528015610d8c57816020015b610d796040518060c00160405280600073ffffffffffffffffffffffffffffffffffffffff16815260200160008152602001600081526020016000815260200160008152602001606081525090565b815260200190600190039081610d2a5790505b509050610dc16040518060a0016040528060008152602001600081526020016000815260200160008152602001606081525090565b60005b83811015610e6457868181518110610dde57610dde6149d6565b602002602001015191506040518060c001604052808673ffffffffffffffffffffffffffffffffffffffff168152602001836000015181526020018360200151815260200183604001518152602001836060015181526020018360800151815250838281518110610e5157610e516149d6565b6020908102919091010152600101610dc4565b50855115610ef657600480546040517fab54877a00000000000000000000000000000000000000000000000000000000815273ffffffffffffffffffffffffffffffffffffffff9091169163ab54877a91610ec3918991879101614c94565b600060405180830381600087803b158015610edd57600080fd5b505af1158015610ef1573d6000803e3d6000fd5b505050505b7f000000000000000000000000000000000000000000000000000000000000000073ffffffffffffffffffffffffffffffffffffffff1663f434c9146040518163ffffffff1660e01b8152600401602060405180830381865afa158015610f61573d6000803e3d6000fd5b505050506040513d601f19601f82011682018060405250810190610f8591906145d9565b73ffffffffffffffffffffffffffffffffffffffff166305d2912e306040518060600160405280600460009054906101000a900473ffffffffffffffffffffffffffffffffffffffff1673ffffffffffffffffffffffffffffffffffffffff168152602001898152602001600580548060200260200160405190810160405280929190818152602001828054801561103c57602002820191906000526020600020905b815481526020019060010190808311611028575b50505050508152506040518363ffffffff1660e01b8152600401611061929190614d71565b600060405180830381600087803b15801561107b57600080fd5b505af115801561108f573d6000803e3d6000fd5b505050505050509850989650505050505050565b60008080606073ffffffffffffffffffffffffffffffffffffffff7f0000000000000000000000000000000000000000000000000000000000000000166383db9d01604087018035906110f99060208a01614dfe565b6040517fffffffff0000000000000000000000000000000000000000000000000000000060e085901b168152600481019290925273ffffffffffffffffffffffffffffffffffffffff166024820152604401602060405180830381865afa158015611168573d6000803e3d6000fd5b505050506040513d601f19601f8201168201806040525081019061118c9190614e1b565b156111a95761271085608001358660a0013593509350935061120b565b6040808601356000908152600160205220544210156111f4576040517f04c3b3cd00000000000000000000000000000000000000000000000000000000815260040160405180910390fd5b84610160013585608001358660a001359350935093505b9193509193565b7f000000000000000000000000000000000000000000000000000000000000000073ffffffffffffffffffffffffffffffffffffffff16631f47ce696040518163ffffffff1660e01b8152600401602060405180830381865afa15801561127d573d6000803e3d6000fd5b505050506040513d601f19601f820116820180604052508101906112a191906145d9565b73ffffffffffffffffffffffffffffffffffffffff1663f434c9146040518163ffffffff1660e01b8152600401602060405180830381865afa1580156112eb573d6000803e3d6000fd5b505050506040513d601f19601f8201168201806040525081019061130f91906145d9565b73ffffffffffffffffffffffffffffffffffffffff16630f5932f033308660026040518563ffffffff1660e01b815260040161134e9493929190614e38565b602060405180830381865afa15801561136b573d6000803e3d6000fd5b505050506040513d601f19601f8201168201806040525081019061138f9190614e1b565b6113c5576040517f31fb21f300000000000000000000000000000000000000000000000000000000815260040160405180910390fd5b6000338383602001516040516020016113e093929190614eb6565b604080517fffffffffffffffffffffffffffffffffffffffffffffffffffffffffffffffe081840301815290829052805160209091012083517f2f3f50e000000000000000000000000000000000000000000000000000000000835290925073ffffffffffffffffffffffffffffffffffffffff7f00000000000000000000000000000000000000000000000000000000000000001691632f3f50e09161148d9188918691600401614ffe565b6000604051808303816000875af11580156114ac573d6000803e3d6000fd5b505050506040513d6000823e601f3d9081017fffffffffffffffffffffffffffffffffffffffffffffffffffffffffffffffe01682016040526114f29190810190614a05565b5080847f755ecfca2f6e66af8868551556bf7931740a7062db8e0882f4c322fdb0bb3f6085853360405161152893929190615046565b60405180910390a350505050565b6000807f000000000000000000000000000000000000000000000000000000000000000073ffffffffffffffffffffffffffffffffffffffff1663293c49996040518163ffffffff1660e01b8152600401602060405180830381865afa1580156115a4573d6000803e3d6000fd5b505050506040513d601f19601f820116820180604052508101906115c891906145d9565b73ffffffffffffffffffffffffffffffffffffffff166306661abd6040518163ffffffff1660e01b8152600401602060405180830381865afa158015611612573d6000803e3d6000fd5b505050506040513d601f19601f820116820180604052508101906116369190615092565b6116419060016149c3565b845190925060006116538260016149c3565b67ffffffffffffffff81111561166b5761166b612f3c565b6040519080825280602002602001820160405280156116b857816020015b604080516060808201835260008083526020830152918101919091528152602001906001900390816116895790505b50905060005b82811015611705578681815181106116d8576116d86149d6565b60200260200101518282815181106116f2576116f26149d6565b60209081029190910101526001016116be565b5086516040517f2230819f00000000000000000000000000000000000000000000000000000000815273ffffffffffffffffffffffffffffffffffffffff7f00000000000000000000000000000000000000000000000000000000000000001691632230819f9161177a9188916004016151e7565b6020604051808303816000875af1158015611799573d6000803e3d6000fd5b505050506040513d601f19601f820116820180604052508101906117bd91906145d9565b9250866020015115611801576002805460018101825560009190915260167f405787fa12a823e0f2b7631cc41b3ba8828b3321ca811111fa75cd3aa3bb5ace909101555b866040015115611843576002805460018101825560009190915260177f405787fa12a823e0f2b7631cc41b3ba8828b3321ca811111fa75cd3aa3bb5ace909101555b866060015115611885576002805460018101825560009190915260187f405787fa12a823e0f2b7631cc41b3ba8828b3321ca811111fa75cd3aa3bb5ace909101555b60405180606001604052808473ffffffffffffffffffffffffffffffffffffffff16815260200160008152602001604051806020016040528060008152508152508183815181106118d8576118d86149d6565b60200260200101819052506118f18b8b8b8b858a610bba565b50505097509795505050505050565b7f000000000000000000000000000000000000000000000000000000000000000073ffffffffffffffffffffffffffffffffffffffff16631f47ce696040518163ffffffff1660e01b8152600401602060405180830381865afa15801561196b573d6000803e3d6000fd5b505050506040513d601f19601f8201168201806040525081019061198f91906145d9565b73ffffffffffffffffffffffffffffffffffffffff1663f434c9146040518163ffffffff1660e01b8152600401602060405180830381865afa1580156119d9573d6000803e3d6000fd5b505050506040513d601f19601f820116820180604052508101906119fd91906145d9565b73ffffffffffffffffffffffffffffffffffffffff16630f5932f033308560026040518563ffffffff1660e01b8152600401611a3c9493929190614e38565b602060405180830381865afa158015611a59573d6000803e3d6000fd5b505050506040513d601f19601f82011682018060405250810190611a7d9190614e1b565b611ab3576040517f31fb21f300000000000000000000000000000000000000000000000000000000815260040160405180910390fd5b7f000000000000000000000000000000000000000000000000000000000000000073ffffffffffffffffffffffffffffffffffffffff16631f47ce696040518163ffffffff1660e01b8152600401602060405180830381865afa158015611b1e573d6000803e3d6000fd5b505050506040513d601f19601f82011682018060405250810190611b4291906145d9565b73ffffffffffffffffffffffffffffffffffffffff1663f434c9146040518163ffffffff1660e01b8152600401602060405180830381865afa158015611b8c573d6000803e3d6000fd5b505050506040513d601f19601f82011682018060405250810190611bb091906145d9565b73ffffffffffffffffffffffffffffffffffffffff166305d2912e3060405180606001604052803373ffffffffffffffffffffffffffffffffffffffff168152602001868152602001600067ffffffffffffffff811115611c1357611c13612f3c565b604051908082528060200260200182016040528015611c3c578160200160208202803683370190505b508152506040518363ffffffff1660e01b8152600401611c5d929190614d71565b600060405180830381600087803b158015611c7757600080fd5b505af1158015611c8b573d6000803e3d6000fd5b505050507f000000000000000000000000000000000000000000000000000000000000000073ffffffffffffffffffffffffffffffffffffffff16631f47ce696040518163ffffffff1660e01b8152600401602060405180830381865afa158015611cfa573d6000803e3d6000fd5b505050506040513d601f19601f82011682018060405250810190611d1e91906145d9565b73ffffffffffffffffffffffffffffffffffffffff1663f434c9146040518163ffffffff1660e01b8152600401602060405180830381865afa158015611d68573d6000803e3d6000fd5b505050506040513d601f19601f82011682018060405250810190611d8c91906145d9565b73ffffffffffffffffffffffffffffffffffffffff166305d2912e3060405180606001604052808573ffffffffffffffffffffffffffffffffffffffff1681526020018681526020016002805480602002602001604051908101604052809291908181526020018280548015611e2157602002820191906000526020600020905b815481526020019060010190808311611e0d575b50505050508152506040518363ffffffff1660e01b8152600401611e46929190614d71565b600060405180830381600087803b158015611e6057600080fd5b505af1158015611e74573d6000803e3d6000fd5b505060405133815273ffffffffffffffffffffffffffffffffffffffff841692508491507f0329d6a81434b130c72eb65eea0e32e429dc1277b4aad86ec86454aefb6184519060200160405180910390a35050565b600080600080611eda8a88886126fb565b9250925092507f000000000000000000000000000000000000000000000000000000000000000073ffffffffffffffffffffffffffffffffffffffff16630634bae9308c6000015160400151868d8f6000015160200151604051602001611f419190615364565b6040516020818303038152906040526040518663ffffffff1660e01b8152600401611f70959493929190615836565b6020604051808303816000875af1158015611f8f573d6000803e3d6000fd5b505050506040513d601f19601f82011682018060405250810190611fb39190615092565b93508080611fc55750468a6060015114155b15611fe757611fd76276a700426149c3565b6000858152600160205260409020555b8951805160208201516060909201516040517f5817819100000000000000000000000000000000000000000000000000000000815273ffffffffffffffffffffffffffffffffffffffff7f0000000000000000000000000000000000000000000000000000000000000000169363581781919361206b938a939192916004016158ab565b6020604051808303816000875af115801561208a573d6000803e3d6000fd5b505050506040513d601f19601f820116820180604052508101906120ae91906145d9565b50875173ffffffffffffffffffffffffffffffffffffffff16156120d6576120d68489612b01565b7f000000000000000000000000000000000000000000000000000000000000000073ffffffffffffffffffffffffffffffffffffffff1663dd5f214a8560006121228e60800151612c86565b6040518463ffffffff1660e01b8152600401612140939291906158e8565b600060405180830381600087803b15801561215a57600080fd5b505af115801561216e573d6000803e3d6000fd5b505050507f000000000000000000000000000000000000000000000000000000000000000073ffffffffffffffffffffffffffffffffffffffff1663f434c9146040518163ffffffff1660e01b8152600401602060405180830381865afa1580156121dd573d6000803e3d6000fd5b505050506040513d601f19601f8201168201806040525081019061220191906145d9565b73ffffffffffffffffffffffffffffffffffffffff166305d2912e3060405180606001604052808e6080015173ffffffffffffffffffffffffffffffffffffffff168152602001888152602001600280548060200260200160405190810160405280929190818152602001828054801561229a57602002820191906000526020600020905b815481526020019060010190808311612286575b50505050508152506040518363ffffffff1660e01b81526004016122bf929190614d71565b600060405180830381600087803b1580156122d957600080fd5b505af11580156122ed573d6000803e3d6000fd5b5050505060008a604001511180156123085750468a60600151145b156123e3577f000000000000000000000000000000000000000000000000000000000000000073ffffffffffffffffffffffffffffffffffffffff1663c7fb92de858c604001518d608001518e600001516020015160405160200161236d9190615907565b60405160208183030381529060405260006040518663ffffffff1660e01b815260040161239e959493929190615973565b6020604051808303816000875af11580156123bd573d6000803e3d6000fd5b505050506040513d601f19601f820116820180604052508101906123e19190615092565b505b60408051600180825281830190925260009160208083019080368337019050509050601d8160008151811061241a5761241a6149d6565b6020026020010181815250507f000000000000000000000000000000000000000000000000000000000000000073ffffffffffffffffffffffffffffffffffffffff1663f434c9146040518163ffffffff1660e01b8152600401602060405180830381865afa158015612491573d6000803e3d6000fd5b505050506040513d601f19601f820116820180604052508101906124b591906145d9565b73ffffffffffffffffffffffffffffffffffffffff166305d2912e3060405180606001604052807f000000000000000000000000000000000000000000000000000000000000000073ffffffffffffffffffffffffffffffffffffffff168152602001898152602001858152506040518363ffffffff1660e01b815260040161253f929190614d71565b600060405180830381600087803b15801561255957600080fd5b505af115801561256d573d6000803e3d6000fd5b505050506020860151156126a7577f000000000000000000000000000000000000000000000000000000000000000073ffffffffffffffffffffffffffffffffffffffff16632f3f50e08633868a602001516040516020016125d193929190614eb6565b604080517fffffffffffffffffffffffffffffffffffffffffffffffffffffffffffffffe08184030181529082905280516020909101208a517fffffffff0000000000000000000000000000000000000000000000000000000060e086901b1683526126409392600401614ffe565b6000604051808303816000875af115801561265f573d6000803e3d6000fd5b505050506040513d6000823e601f3d9081017fffffffffffffffffffffffffffffffffffffffffffffffffffffffffffffffe01682016040526126a59190810190614a05565b505b847f4b827371715024f69a0bc98c8df6edafe6e471e78488ab1b3849de72f66b12e08c8c8c8a898989336040516126e5989796959493929190615af0565b60405180910390a2505050509695505050505050565b6060806000808660a001515190508067ffffffffffffffff81111561272257612722612f3c565b60405190808252806020026020018201604052801561281457816020015b6128016040805161010080820183526000808352602080840182905283850182905260608085018390526080808601849052865161020081018852848152928301849052958201839052810182905293840181905260a084810182905260c0850182905260e0850182905291840181905261012084018190526101408401819052610160840181905261018084018190526101a084018190526101c084018190526101e0840152909190820190815260200160608152602001606081525090565b8152602001906001900390816127405790505b50935061282087612dfc565b6040805160c081018252600080825260208201819052918101829052606081018290526080810182905260a081018290529194505b82811015612af5578860a001518181518110612873576128736149d6565b60200260200101519150816000015164ffffffffff1686828151811061289b5761289b6149d6565b60200260200101516000018181525050816060015164ffffffffff168682815181106128c9576128c96149d6565b6020026020010151602001818152505081604001516dffffffffffffffffffffffffffff16868281518110612900576129006149d6565b60200260200101516040018181525050816080015163ffffffff1686828151811061292d5761292d6149d6565b602002602001015160600181815250506000868281518110612951576129516149d6565b60200260200101516080019073ffffffffffffffffffffffffffffffffffffffff16908173ffffffffffffffffffffffffffffffffffffffff1681525050604051806102000160405280836020015161ffff1681526020018360a0015161ffff166127106129bf9190615cae565b815260208b81015163ffffffff16908201526000604082018190526060820181905260016080830181905260a0830182905260c0830182905260e0830182905261010083018290526101208301829052610140830182905261016083015261018082015273ffffffffffffffffffffffffffffffffffffffff8a166101a08201526101c0018890528651879083908110612a5b57612a5b6149d6565b602002602001015160a00181905250806000148015612a815750815164ffffffffff1615155b8015612a97575042826000015164ffffffffff16105b15612aa157600193505b84612aac8383612e3d565b604051602001612abd929190615cc1565b604080517fffffffffffffffffffffffffffffffffffffffffffffffffffffffffffffffe08184030181529190529450600101612855565b50505093509350939050565b602081810151516040805160808101825260008082529381018490529081018390526060810183905290915b82811015612c2d5783602001518181518110612b4b57612b4b6149d6565b6020908102919091018101518551918101516040808301516060840151845192517f7b621d3a000000000000000000000000000000000000000000000000000000008152600481018c905262ffffff909416602485015263ffffffff918216604485015216606483015273ffffffffffffffffffffffffffffffffffffffff9081166084830152919450911690637b621d3a9060a4016020604051808303816000875af1158015612c00573d6000803e3d6000fd5b505050506040513d601f19601f82011682018060405250810190612c2491906145d9565b50600101612b2d565b5050905160009283526020839052604090922080547fffffffffffffffffffffffff00000000000000000000000000000000000000001673ffffffffffffffffffffffffffffffffffffffff9093169290921790915550565b604080516001808252818301909252606091816020015b604080518082019091526000815260606020820152815260200190600190039081612c9d57505060408051600180825281830190925291925060009190602082015b6040805160c08101825260008082526020808301829052928201819052606082018190526080820181905260a082015282527fffffffffffffffffffffffffffffffffffffffffffffffffffffffffffffffff909201910181612cdf5790505090506040518060c00160405280600015158152602001633b9aca008152602001600081526020018473ffffffffffffffffffffffffffffffffffffffff16815260200160008152602001600073ffffffffffffffffffffffffffffffffffffffff1681525081600081518110612db757612db76149d6565b60200260200101819052506040518060400160405280600181526020018281525082600081518110612deb57612deb6149d6565b602002602001018190525050919050565b6020808201516060838101518451805181860151918401516040519496612e27969592939201615cf0565b6040516020818303038152906040529050919050565b606081158015612e535750825164ffffffffff16155b612e6557825164ffffffffff16612e67565b425b83602001518460400151856060015186608001518760a00151604051602001612edc9695949392919095865261ffff94851660208701526dffffffffffffffffffffffffffff93909316604086015264ffffffffff91909116606085015263ffffffff1660808401521660a082015260c00190565b604051602081830303815290604052905092915050565b600060208284031215612f0557600080fd5b81357fffffffff0000000000000000000000000000000000000000000000000000000081168114612f3557600080fd5b9392505050565b7f4e487b7100000000000000000000000000000000000000000000000000000000600052604160045260246000fd5b6040516080810167ffffffffffffffff81118282101715612f8e57612f8e612f3c565b60405290565b60405160c0810167ffffffffffffffff81118282101715612f8e57612f8e612f3c565b6040805190810167ffffffffffffffff81118282101715612f8e57612f8e612f3c565b6040516060810167ffffffffffffffff81118282101715612f8e57612f8e612f3c565b604051610180810167ffffffffffffffff81118282101715612f8e57612f8e612f3c565b604051610120810167ffffffffffffffff81118282101715612f8e57612f8e612f3c565b60405160a0810167ffffffffffffffff81118282101715612f8e57612f8e612f3c565b604051601f82017fffffffffffffffffffffffffffffffffffffffffffffffffffffffffffffffe016810167ffffffffffffffff811182821017156130af576130af612f3c565b604052919050565b600067ffffffffffffffff8211156130d1576130d1612f3c565b50601f017fffffffffffffffffffffffffffffffffffffffffffffffffffffffffffffffe01660200190565b600082601f83011261310e57600080fd5b813561312161311c826130b7565b613068565b81815284602083860101111561313657600080fd5b816020850160208301376000918101602001919091529392505050565b60006080828403121561316557600080fd5b61316d612f6b565b9050813567ffffffffffffffff8082111561318757600080fd5b613193858386016130fd565b835260208401359150808211156131a957600080fd5b6131b5858386016130fd565b602084015260408401359150808211156131ce57600080fd5b506131db848285016130fd565b6040830152506060820135606082015292915050565b803563ffffffff8116811461320557600080fd5b919050565b73ffffffffffffffffffffffffffffffffffffffff8116811461322c57600080fd5b50565b80356132058161320a565b600067ffffffffffffffff82111561325457613254612f3c565b5060051b60200190565b803564ffffffffff8116811461320557600080fd5b803561ffff8116811461320557600080fd5b600082601f83011261329657600080fd5b813560206132a661311c8361323a565b82815260c092830285018201928282019190878511156132c557600080fd5b8387015b8581101561336a5781818a0312156132e15760008081fd5b6132e9612f94565b6132f28261325e565b81526132ff868301613273565b868201526040808301356dffffffffffffffffffffffffffff811681146133265760008081fd5b90820152606061333783820161325e565b9082015260806133488382016131f1565b9082015260a0613359838201613273565b9082015284529284019281016132c9565b5090979650505050505050565b600060c0828403121561338957600080fd5b613391612f94565b9050813567ffffffffffffffff808211156133ab57600080fd5b6133b785838601613153565b83526133c5602085016131f1565b602084015260408401356040840152606084013560608401526133ea6080850161322f565b608084015260a084013591508082111561340357600080fd5b5061341084828501613285565b60a08301525092915050565b600082601f83011261342d57600080fd5b8135602061343d61311c8361323a565b8083825260208201915060208460051b87010193508684111561345f57600080fd5b602086015b848110156134845780356134778161320a565b8352918301918301613464565b509695505050505050565b600082601f8301126134a057600080fd5b813560206134b061311c8361323a565b82815260059290921b840181019181810190868411156134cf57600080fd5b8286015b8481101561348457803567ffffffffffffffff808211156134f45760008081fd5b81890191506040807fffffffffffffffffffffffffffffffffffffffffffffffffffffffffffffffe0848d0301121561352d5760008081fd5b613535612fb7565b878401356135428161320a565b81529083013590828211156135575760008081fd5b6135658c898487010161341c565b8189015286525050509183019183016134d3565b803562ffffff8116811461320557600080fd5b6000604080838503121561359f57600080fd5b6135a7612fb7565b915082356135b48161320a565b825260208381013567ffffffffffffffff8111156135d157600080fd5b8401601f810186136135e257600080fd5b80356135f061311c8261323a565b81815260079190911b8201830190838101908883111561360f57600080fd5b928401925b82841015613683576080848a03121561362d5760008081fd5b613635612f6b565b84356136408161320a565b815261364d858701613579565b8682015261365c8786016131f1565b87820152606061366d8187016131f1565b9082015282526080939093019290840190613614565b808588015250505050505092915050565b6000604082840312156136a657600080fd5b6136ae612fb7565b905067ffffffffffffffff80833511156136c757600080fd5b8235830184601f8201126136da57600080fd5b6136e761311c823561323a565b81358082526020808301929160051b8401018781111561370657600080fd5b602084015b8181101561386957858135111561372157600080fd5b8035850160407fffffffffffffffffffffffffffffffffffffffffffffffffffffffffffffffe0828c0301121561375757600080fd5b61375f612fb7565b61376c602083013561320a565b60208201358152876040830135111561378457600080fd5b6040820135820191508a603f83011261379c57600080fd5b60208201356137ad61311c8261323a565b81815260079190911b83016040019060208101908d8311156137ce57600080fd5b6040850194505b8285101561384a576080858f0312156137ed57600080fd5b6137f5612f6b565b6137ff863561320a565b8535815261380f602087016131f1565b6020820152613821604087013561320a565b6040860135604082015260608601356060820152808352506020820191506080850194506137d5565b806020850152505050808652505060208401935060208101905061370b565b5050808552505050506020820135602082015292915050565b6000806000806080858703121561389857600080fd5b843567ffffffffffffffff808211156138b057600080fd5b6138bc88838901613377565b955060208701359150808211156138d257600080fd5b6138de8883890161348f565b945060408701359150808211156138f457600080fd5b6139008883890161358c565b9350606087013591508082111561391657600080fd5b5061392387828801613694565b91505092959194509250565b60008060008060006080868803121561394757600080fd5b85356139528161320a565b945060208601356139628161320a565b935060408601359250606086013567ffffffffffffffff8082111561398657600080fd5b818801915088601f83011261399a57600080fd5b8135818111156139a957600080fd5b8960208285010111156139bb57600080fd5b9699959850939650602001949392505050565b6000602082840312156139e057600080fd5b5035919050565b6000602082840312156139f957600080fd5b813567ffffffffffffffff811115613a1057600080fd5b82016101808185031215612f3557600080fd5b60005b83811015613a3e578181015183820152602001613a26565b50506000910152565b60008151808452613a5f816020860160208601613a23565b601f017fffffffffffffffffffffffffffffffffffffffffffffffffffffffffffffffe0169290920160200192915050565b600082825180855260208086019550808260051b84010181860160005b8481101561336a578583037fffffffffffffffffffffffffffffffffffffffffffffffffffffffffffffffe00189528151805173ffffffffffffffffffffffffffffffffffffffff1684528481015185850152604090810151606091850182905290613b1c81860183613a47565b9a86019a9450505090830190600101613aae565b828152604060208201526000613b496040830184613a91565b949350505050565b602081526000612f356020830184613a91565b60008060408385031215613b7757600080fd5b823591506020830135613b898161320a565b809150509250929050565b600082601f830112613ba557600080fd5b81356020613bb561311c8361323a565b82815260059290921b84018101918181019086841115613bd457600080fd5b8286015b8481101561348457803567ffffffffffffffff80821115613bf95760008081fd5b81890191506060807fffffffffffffffffffffffffffffffffffffffffffffffffffffffffffffffe0848d03011215613c325760008081fd5b613c3a612fda565b87840135613c478161320a565b815260408481013589830152918401359183831115613c665760008081fd5b613c748d8a858801016130fd565b908201528652505050918301918301613bd8565b60008060008060008060c08789031215613ca157600080fd5b863567ffffffffffffffff80821115613cb957600080fd5b613cc58a838b01613377565b97506020890135915080821115613cdb57600080fd5b613ce78a838b0161348f565b96506040890135915080821115613cfd57600080fd5b613d098a838b0161358c565b95506060890135915080821115613d1f57600080fd5b613d2b8a838b01613694565b94506080890135915080821115613d4157600080fd5b50613d4e89828a01613b94565b925050613d5d60a08801613273565b90509295509295509295565b80356cffffffffffffffffffffffffff8116811461320557600080fd5b801515811461322c57600080fd5b803561320581613d86565b803560ff8116811461320557600080fd5b60006080808385031215613dc357600080fd5b613dcb612f6b565b9150823567ffffffffffffffff811115613de457600080fd5b8301601f81018513613df557600080fd5b80356020613e0561311c8361323a565b8281526101809283028401820192828201919089851115613e2557600080fd5b948301945b84861015613f185780868b031215613e425760008081fd5b613e4a612ffd565b613e5387613d69565b8152613e608588016131f1565b858201526040613e718189016131f1565b908201526060613e82888201613273565b90820152613e9187890161322f565b8189015260a0878101359082015260c0613eac818901613579565b9082015260e0613ebd888201613d94565b90820152610100613ecf888201613d94565b90820152610120613ee1888201613d94565b90820152610140613ef3888201613d94565b90820152610160613f05888201613d94565b9082015283529485019491830191613e2a565b50865250613f278682016131f1565b8186015250505050613f3b60408301613d9f565b6040820152613f4c6060830161322f565b606082015292915050565b600060808284031215613f6957600080fd5b613f71612f6b565b90508135613f7e81613d86565b81526020820135613f8e81613d86565b60208201526040820135613fa181613d86565b60408201526060820135613f4c81613d86565b600060808284031215613fc657600080fd5b613fce612f6b565b9050813567ffffffffffffffff80821115613fe857600080fd5b908301906101808286031215613ffd57600080fd5b614005613021565b82358281111561401457600080fd5b614020878286016130fd565b82525060208301358281111561403557600080fd5b614041878286016130fd565b6020830152506140536040840161322f565b604082015260608301358281111561406a57600080fd5b614076878286016130fd565b6060830152506140886080840161322f565b608082015260a08301358281111561409f57600080fd5b6140ab878286016130fd565b60a08301525060c0830135828111156140c357600080fd5b6140cf87828601613db0565b60c0830152506140e160e0840161322f565b60e082015261010091506140f786838501613f57565b8282015280845250505061410d60208301613d94565b602082015261411e60408301613d94565b6040820152613f4c60608301613d94565b600082601f83011261414057600080fd5b8135602061415061311c8361323a565b82815260059290921b8401810191818101908684111561416f57600080fd5b8286015b8481101561348457803567ffffffffffffffff808211156141945760008081fd5b818901915060a0807fffffffffffffffffffffffffffffffffffffffffffffffffffffffffffffffe0848d030112156141cd5760008081fd5b6141d5613045565b878401358152604080850135898301526060808601358284015260809150818601358184015250828501359250838311156142105760008081fd5b61421e8d8a8588010161341c565b908201528652505050918301918301614173565b600080600080600080600080610100898b03121561424f57600080fd5b883567ffffffffffffffff8082111561426757600080fd5b6142738c838d01613377565b995060208b013591508082111561428957600080fd5b6142958c838d0161348f565b985060408b01359150808211156142ab57600080fd5b6142b78c838d0161358c565b975060608b01359150808211156142cd57600080fd5b6142d98c838d01613694565b965060808b01359150808211156142ef57600080fd5b6142fb8c838d01613fb4565b955060a08b013591508082111561431157600080fd5b61431d8c838d01613b94565b945061432b60c08c01613273565b935060e08b013591508082111561434157600080fd5b5061434e8b828c0161412f565b9150509295985092959890939650565b60006020828403121561437057600080fd5b813567ffffffffffffffff81111561438757600080fd5b82016101a08185031215612f3557600080fd5b60006080820186835260208681850152604086604086015260606080606087015283875180865260a08801915060a08160051b890101955084890160005b82811015614453578988037fffffffffffffffffffffffffffffffffffffffffffffffffffffffffffffff600184528151805173ffffffffffffffffffffffffffffffffffffffff16895287810151888a0152860151868901869052614440868a0182613a47565b98505092860192908601906001016143d8565b50959c9b505050505050505050505050565b60008060006060848603121561447a57600080fd5b83359250602084013567ffffffffffffffff8082111561449957600080fd5b6144a5878388016130fd565b935060408601359150808211156144bb57600080fd5b506144c886828701613694565b9150509250925092565b600080600080600080600060e0888a0312156144ed57600080fd5b873567ffffffffffffffff8082111561450557600080fd5b6145118b838c01613377565b985060208a013591508082111561452757600080fd5b6145338b838c0161348f565b975060408a013591508082111561454957600080fd5b6145558b838c0161358c565b965060608a013591508082111561456b57600080fd5b6145778b838c01613694565b955060808a013591508082111561458d57600080fd5b6145998b838c01613fb4565b945060a08a01359150808211156145af57600080fd5b506145bc8a828b01613b94565b9250506145cb60c08901613273565b905092959891949750929550565b6000602082840312156145eb57600080fd5b8151612f358161320a565b80356146018161320a565b73ffffffffffffffffffffffffffffffffffffffff1682526020818101359083015260408082013590830152606090810135910152565b60008083357fffffffffffffffffffffffffffffffffffffffffffffffffffffffffffffffe184360301811261466d57600080fd5b830160208101925035905067ffffffffffffffff81111561468d57600080fd5b80360382131561469c57600080fd5b9250929050565b8183528181602085013750600060208284010152600060207fffffffffffffffffffffffffffffffffffffffffffffffffffffffffffffffe0601f840116840101905092915050565b6020815261471a602082016147008461322f565b73ffffffffffffffffffffffffffffffffffffffff169052565b60006147286020840161322f565b73ffffffffffffffffffffffffffffffffffffffff811660408401525061475560608301604085016145f6565b60c083013560e083015261010060e08401358184015261477681850161322f565b905061012061479c8185018373ffffffffffffffffffffffffffffffffffffffff169052565b610140915080850135828501525061016081850135818501526147c181860186614638565b61018086810152925090506104a96101a0850183836146a3565b60008060408084860312156147ef57600080fd5b8351925060208085015167ffffffffffffffff8082111561480f57600080fd5b818701915087601f83011261482357600080fd5b815161483161311c8261323a565b81815260059190911b8301840190848101908a83111561485057600080fd5b8585015b8381101561492f5780518581111561486b57600080fd5b86016060818e037fffffffffffffffffffffffffffffffffffffffffffffffffffffffffffffffe00112156148a05760008081fd5b6148a8612fda565b888201516148b58161320a565b8152818a0151898201526060820151878111156148d25760008081fd5b8083019250508d603f8301126148e85760008081fd5b888201516148f861311c826130b7565b8181528f8c83860101111561490d5760008081fd5b61491c828c83018e8701613a23565b828c015250845250918601918601614854565b50809750505050505050509250929050565b600181811c9082168061495557607f821691505b60208210810361498e577f4e487b7100000000000000000000000000000000000000000000000000000000600052602260045260246000fd5b50919050565b7f4e487b7100000000000000000000000000000000000000000000000000000000600052601160045260246000fd5b8082018082111561049257610492614994565b7f4e487b7100000000000000000000000000000000000000000000000000000000600052603260045260246000fd5b60006020808385031215614a1857600080fd5b825167ffffffffffffffff811115614a2f57600080fd5b8301601f81018513614a4057600080fd5b8051614a4e61311c8261323a565b81815260059190911b82018301908381019087831115614a6d57600080fd5b928401925b82841015614a94578351614a858161320a565b82529284019290840190614a72565b979650505050505050565b601f821115614aeb576000816000526020600020601f850160051c81016020861015614ac85750805b601f850160051c820191505b81811015614ae757828155600101614ad4565b5050505b505050565b815167ffffffffffffffff811115614b0a57614b0a612f3c565b614b1e81614b188454614941565b84614a9f565b602080601f831160018114614b715760008415614b3b5750858301515b7fffffffffffffffffffffffffffffffffffffffffffffffffffffffffffffffff600386901b1c1916600185901b178555614ae7565b6000858152602081207fffffffffffffffffffffffffffffffffffffffffffffffffffffffffffffffe08616915b82811015614bbe57888601518255948401946001909101908401614b9f565b5085821015614bfa57878501517fffffffffffffffffffffffffffffffffffffffffffffffffffffffffffffffff600388901b60f8161c191681555b5050505050600190811b01905550565b604081526000614c1d6040830185613a91565b905073ffffffffffffffffffffffffffffffffffffffff831660208301529392505050565b60008151808452602080850194506020840160005b83811015614c8957815173ffffffffffffffffffffffffffffffffffffffff1687529582019590820190600101614c57565b509495945050505050565b6000604080830185845260206040818601528186518084526060935060608701915060608160051b88010183890160005b83811015614d61578983037fffffffffffffffffffffffffffffffffffffffffffffffffffffffffffffffa00185528151805173ffffffffffffffffffffffffffffffffffffffff1684528681015187850152888101518985015287810151888501526080808201519085015260a09081015160c091850182905290614d4d81860183614c42565b968801969450505090850190600101614cc5565b50909a9950505050505050505050565b600073ffffffffffffffffffffffffffffffffffffffff808516835260206040602085015260a0840182865116604086015260208601516060860152604086015192506060608086015280835180835260c087019150602085019450600092505b80831015614df25784518252938301936001929092019190830190614dd2565b50979650505050505050565b600060208284031215614e1057600080fd5b8135612f358161320a565b600060208284031215614e2d57600080fd5b8151612f3581613d86565b60006080820173ffffffffffffffffffffffffffffffffffffffff80881684526020818816602086015286604086015260806060860152829150855480845260a086019250866000526020600020935060005b81811015614ea757845484526001948501949383019301614e8b565b50919998505050505050505050565b7fffffffffffffffffffffffffffffffffffffffff0000000000000000000000008460601b16815260008351614ef3816014850160208801613a23565b60149201918201929092526034019392505050565b600082825180855260208086019550808260051b8401018186016000805b85811015614ff0578684037fffffffffffffffffffffffffffffffffffffffffffffffffffffffffffffffe0018a528251805173ffffffffffffffffffffffffffffffffffffffff908116865290860151604087870181905281518188018190529188019290916060919082890190875b81811015614fd85786518051851684528c81015163ffffffff168d8501528681015185168785015285015185840152958b0195608090920191600101614f97565b50509d89019d97505050938601935050600101614f26565b509198975050505050505050565b8381528260208201526060604082015260006104a96060830184614f08565b60008151604084526150326040850182614f08565b602093840151949093019390935250919050565b6060815260006150596060830186613a47565b828103602084015261506b818661501d565b91505073ffffffffffffffffffffffffffffffffffffffff83166040830152949350505050565b6000602082840312156150a457600080fd5b5051919050565b80516080808452815184820181905260009260a0916020918201918388019190865b8281101561519d57845180516cffffffffffffffffffffffffff1685528281015163ffffffff908116848701526040808301519091169086015260608082015161ffff16908601528781015173ffffffffffffffffffffffffffffffffffffffff1688860152868101518786015260c08082015162ffffff169086015260e0808201511515908601526101008082015115159086015261012080820151151590860152610140808201511515908601526101609081015115159085015293810193610180909301926001016150cd565b508088015163ffffffff16908901525060408087015160ff169088015260609586015173ffffffffffffffffffffffffffffffffffffffff16959096019490945250929392505050565b8281526040602082015260008251610180604084015261520b6101c0840182613a47565b905060208401517fffffffffffffffffffffffffffffffffffffffffffffffffffffffffffffffc0808584030160608601526152478383613a47565b925060408601519150615272608086018373ffffffffffffffffffffffffffffffffffffffff169052565b60608601519150808584030160a086015261528d8383613a47565b9250608086015191506152b860c086018373ffffffffffffffffffffffffffffffffffffffff169052565b60a08601519150808584030160e08601526152d38383613a47565b925060c086015191506101008186850301818701526152f284846150ab565b935060e0870151925061531e61012087018473ffffffffffffffffffffffffffffffffffffffff169052565b860151805115156101408701526020810151151561016087015260408101511515610180870152606081015115156101a0870152915061535b9050565b50949350505050565b7f240000000000000000000000000000000000000000000000000000000000000081526000825161539c816001850160208701613a23565b7f207265766e6574206465706c6f796564000000000000000000000000000000006001939091019283015250601101919050565b80518252602081015160208301526040810151604083015260608101516153fb606084018215159052565b50608081015161540f608084018215159052565b5060a081015161542360a084018215159052565b5060c081015161543760c084018215159052565b5060e081015161544b60e084018215159052565b5061010081810151151590830152610120808201511515908301526101408082015115159083015261016080820151151590830152610180808201511515908301526101a0808201511515908301526101c08082015173ffffffffffffffffffffffffffffffffffffffff16908301526101e090810151910152565b600082825180855260208086019550808260051b8401018186016000805b85811015614ff0578684037fffffffffffffffffffffffffffffffffffffffffffffffffffffffffffffffe0018a52825180518552850151604086860181905281518187018190529187019160609081880190865b818110156155a15785518051151584528b8101518c85015285810151868501528481015173ffffffffffffffffffffffffffffffffffffffff908116868601526080808301519086015260a0918201511690840152948a019460c09092019160010161553a565b50509c88019c9650505092850192506001016154e5565b60008151808452602080850194506020840160005b83811015614c895781518051885283015183880152604090960195908201906001016155cd565b600082825180855260208086019550808260051b84010181860160005b8481101561336a577fffffffffffffffffffffffffffffffffffffffffffffffffffffffffffffffe08684030189528151608073ffffffffffffffffffffffffffffffffffffffff80835116865280878401511687870152506040808301518282880152615681838801826155b8565b925050506060808301519250858203818701525061569f81836155b8565b9a86019a9450505090830190600101615611565b600082825180855260208086019550808260051b84010181860160005b8481101561336a577fffffffffffffffffffffffffffffffffffffffffffffffffffffffffffffffe08684030189528151805184528481015185850152604080820151908501526060808201519085015260808082015173ffffffffffffffffffffffffffffffffffffffff169085015260a0808201516102e09190615758828801826153d0565b505060c0820151816102a0870152615772828701826154c7565b91505060e082015191508481036102c086015261578f81836155f4565b9a86019a94505050908301906001016156d0565b600082825180855260208086019550808260051b84010181860160005b8481101561336a578583037fffffffffffffffffffffffffffffffffffffffffffffffffffffffffffffffe00189528151805173ffffffffffffffffffffffffffffffffffffffff168452840151604085850181905261582281860183614c42565b9a86019a94505050908301906001016157c0565b73ffffffffffffffffffffffffffffffffffffffff8616815260a06020820152600061586560a0830187613a47565b828103604084015261587781876156b3565b9050828103606084015261588b81866157a3565b9050828103608084015261589f8185613a47565b98975050505050505050565b8481526080602082015260006158c46080830186613a47565b82810360408401526158d68186613a47565b91505082606083015295945050505050565b8381528260208201526060604082015260006104a960608301846154c7565b7f240000000000000000000000000000000000000000000000000000000000000081526000825161593f816001850160208701613a23565b7f207072656d696e746564000000000000000000000000000000000000000000006001939091019283015250600b01919050565b85815284602082015273ffffffffffffffffffffffffffffffffffffffff8416604082015260a0606082015260006159ae60a0830185613a47565b905082151560808301529695505050505050565b60008151808452602080850194506020840160005b83811015614c89578151805164ffffffffff90811689528482015161ffff908116868b01526040808401516dffffffffffffffffffffffffffff16908b0152606080840151909216918a019190915260808083015163ffffffff16908a015260a091820151169088015260c090960195908201906001016159d7565b6000604080840173ffffffffffffffffffffffffffffffffffffffff8085511686526020808601516040828901528381518086526060955060608a019150838301925060005b81811015615ae15783518051871684528581015162ffffff16868501528881015163ffffffff9081168a86015290880151168784015292840192608090920191600101615a99565b50909998505050505050505050565b60006101008083528a5160c0828501528051915060806101c0850152615b1a610240850183613a47565b915060208101517ffffffffffffffffffffffffffffffffffffffffffffffffffffffffffffffe4080868503016101e0870152615b578483613a47565b935060408301519150808685030161020087015250615b768382613a47565b92505060608101516102208501525060208b0151615b9d61012085018263ffffffff169052565b5060408b015161014084015260608b015161016084015260808b015173ffffffffffffffffffffffffffffffffffffffff1661018084015260a08b01518382037fffffffffffffffffffffffffffffffffffffffffffffffffffffffffffffff00016101a0850152615c0f82826159c2565b9150508281036020840152615c24818b6157a3565b90508281036040840152615c38818a615a53565b90508281036060840152615c4c818961501d565b90508281036080840152615c6081886156b3565b905082810360a0840152615c748187613a47565b915050615c8560c083018515159052565b73ffffffffffffffffffffffffffffffffffffffff831660e08301529998505050505050505050565b8181038181111561049257610492614994565b60008351615cd3818460208801613a23565b835190830190615ce7818360208801613a23565b01949350505050565b63ffffffff8616815284602082015260a060408201526000615d1560a0830186613a47565b8281036060840152615d278186613a47565b915050826080830152969550505050505056fea2646970667358221220c007ab749cf646cce58a0be5d4aa55942a8a5e5d77f4d71529645b35e120f5dc64736f6c63430008170033",
	"deployedBytecode": "0x608060405234801561001057600080fd5b50600436106101515760003560e01c80639d82ba25116100cd578063bb19940211610081578063dbfbe5da11610066578063dbfbe5da146103a5578063eb5ad9d9146103c5578063ee0fc121146103d857600080fd5b8063bb1994021461037d578063c8bcb88c1461039257600080fd5b8063aaf320d7116100b2578063aaf320d71461030c578063abf8c5c81461032f578063b5d255331461035657600080fd5b80639d82ba25146102c5578063a9cf730b146102cf57600080fd5b80634c4ffc7111610124578063677ce08811610109578063677ce0881461024457806371f6878d146102575780637249a7731461026a57600080fd5b80634c4ffc71146102035780635c0a7cee1461022457600080fd5b806301ffc9a71461015657806302ccf9a11461017e578063150b7a021461019f57806343681e15146101e3575b600080fd5b610169610164366004612ef3565b6103ff565b60405190151581526020015b60405180910390f35b61019161018c366004613882565b610498565b604051908152602001610175565b6101b26101ad36600461392f565b6104b2565b6040517fffffffff000000000000000000000000000000000000000000000000000000009091168152602001610175565b6101916101f13660046139ce565b60016020526000908152604090205481565b6102166102113660046139e7565b6105c6565b604051610175929190613b30565b6102376102323660046139ce565b610902565b6040516101759190613b51565b610169610252366004613b64565b610a33565b610191610265366004613c88565b610bba565b6102a06102783660046139ce565b60006020819052908152604090205473ffffffffffffffffffffffffffffffffffffffff1681565b60405173ffffffffffffffffffffffffffffffffffffffff9091168152602001610175565b6101916276a70081565b6102e26102dd366004614232565b610cd8565b6040805192835273ffffffffffffffffffffffffffffffffffffffff909116602083015201610175565b61031f61031a36600461435e565b6110a3565b604051610175949392919061439a565b6102a07f0000000000000000000000007a8f8386bf3d331b216ae301bea5ec47cc51a8b281565b6102a07f0000000000000000000000005c94828c12604a92f39c6974f4cd964a702b81dc81565b61039061038b366004614465565b611212565b005b6102e26103a03660046144d2565b611536565b6004546102a09073ffffffffffffffffffffffffffffffffffffffff1681565b6103906103d3366004613b64565b611900565b6102a07f000000000000000000000000698d26df9f8d5cf0fd359d26add623602a2bc35581565b60007fffffffff0000000000000000000000000000000000000000000000000000000082167f81c03c2e00000000000000000000000000000000000000000000000000000000148061049257507f01ffc9a7000000000000000000000000000000000000000000000000000000007fffffffff000000000000000000000000000000000000000000000000000000008316145b92915050565b60006104a985858530600087611ec9565b95945050505050565b60007f000000000000000000000000698d26df9f8d5cf0fd359d26add623602a2bc35573ffffffffffffffffffffffffffffffffffffffff1663293c49996040518163ffffffff1660e01b8152600401602060405180830381865afa15801561051f573d6000803e3d6000fd5b505050506040513d601f19601f8201168201806040525081019061054391906145d9565b73ffffffffffffffffffffffffffffffffffffffff163373ffffffffffffffffffffffffffffffffffffffff161461057a57600080fd5b73ffffffffffffffffffffffffffffffffffffffff85161561059b57600080fd5b507f150b7a020000000000000000000000000000000000000000000000000000000095945050505050565b60c0810135600090815260208190526040812054606090819073ffffffffffffffffffffffffffffffffffffffff1680156106b6576040517f4c4ffc7100000000000000000000000000000000000000000000000000000000815273ffffffffffffffffffffffffffffffffffffffff821690634c4ffc719061064d9088906004016146ec565b600060405180830381865afa15801561066a573d6000803e3d6000fd5b505050506040513d6000823e601f3d9081017fffffffffffffffffffffffffffffffffffffffffffffffffffffffffffffffe01682016040526106b091908101906147db565b90945091505b815160c086013560009081526003602090815260408083208054825181850281018501909352808352941515949192909190849084015b828210156107de5760008481526020908190206040805160608101825260038602909201805473ffffffffffffffffffffffffffffffffffffffff1683526001810154938301939093526002830180549293929184019161074d90614941565b80601f016020809104026020016040519081016040528092919081815260200182805461077990614941565b80156107c65780601f1061079b576101008083540402835291602001916107c6565b820191906000526020600020905b8154815290600101906020018083116107a957829003601f168201915b505050505081525050815260200190600101906106ed565b505050509050600081519050826107f65760006107f9565b60015b6108069060ff16826149c3565b67ffffffffffffffff81111561081e5761081e612f3c565b60405190808252806020026020018201604052801561086b57816020015b6040805160608082018352600080835260208301529181019190915281526020019060019003908161083c5790505b50955060005b818110156108b85782818151811061088b5761088b6149d6565b60200260200101518782815181106108a5576108a56149d6565b6020908102919091010152600101610871565b5082156108f857846000815181106108d2576108d26149d6565b60200260200101518682815181106108ec576108ec6149d6565b60200260200101819052505b5050505050915091565b606060036000838152602001908152602001600020805480602002602001604051908101604052809291908181526020016000905b82821015610a285760008481526020908190206040805160608101825260038602909201805473ffffffffffffffffffffffffffffffffffffffff1683526001810154938301939093526002830180549293929184019161099790614941565b80601f01602080910402602001604051908101604052809291908181526020018280546109c390614941565b8015610a105780601f106109e557610100808354040283529160200191610a10565b820191906000526020600020905b8154815290600101906020018083116109f357829003601f168201915b50505050508152505081526020019060010190610937565b505050509050919050565b60008281526020819052604081205473ffffffffffffffffffffffffffffffffffffffff90811690831603610a6a57506001610492565b6040517f3d12cb87000000000000000000000000000000000000000000000000000000008152600481018490526000907f0000000000000000000000005c94828c12604a92f39c6974f4cd964a702b81dc73ffffffffffffffffffffffffffffffffffffffff1690633d12cb8790602401600060405180830381865afa158015610af8573d6000803e3d6000fd5b505050506040513d6000823e601f3d9081017fffffffffffffffffffffffffffffffffffffffffffffffffffffffffffffffe0168201604052610b3e9190810190614a05565b805190915060005b81811015610bae57828181518110610b6057610b606149d6565b602002602001015173ffffffffffffffffffffffffffffffffffffffff168573ffffffffffffffffffffffffffffffffffffffff1603610ba65760019350505050610492565b600101610b46565b50600095945050505050565b6000610bce878787308661ffff1689611ec9565b835190915060005b81811015610c925760008381526003602052604090208551869083908110610c0057610c006149d6565b602090810291909101810151825460018082018555600094855293839020825160039092020180547fffffffffffffffffffffffff00000000000000000000000000000000000000001673ffffffffffffffffffffffffffffffffffffffff909216919091178155918101519282019290925560408201516002820190610c879082614af0565b505050600101610bd6565b50817fdfaf2737f25eace49d372b472ec03f1df0f9814dfc69d2b95c5e92a041f42e298533604051610cc5929190614c0a565b60405180910390a2509695505050505050565b600080610cea8a8a8a8a8a8a8a611536565b8451919350915060008167ffffffffffffffff811115610d0c57610d0c612f3c565b604051908082528060200260200182016040528015610d8c57816020015b610d796040518060c00160405280600073ffffffffffffffffffffffffffffffffffffffff16815260200160008152602001600081526020016000815260200160008152602001606081525090565b815260200190600190039081610d2a5790505b509050610dc16040518060a0016040528060008152602001600081526020016000815260200160008152602001606081525090565b60005b83811015610e6457868181518110610dde57610dde6149d6565b602002602001015191506040518060c001604052808673ffffffffffffffffffffffffffffffffffffffff168152602001836000015181526020018360200151815260200183604001518152602001836060015181526020018360800151815250838281518110610e5157610e516149d6565b6020908102919091010152600101610dc4565b50855115610ef657600480546040517fab54877a00000000000000000000000000000000000000000000000000000000815273ffffffffffffffffffffffffffffffffffffffff9091169163ab54877a91610ec3918991879101614c94565b600060405180830381600087803b158015610edd57600080fd5b505af1158015610ef1573d6000803e3d6000fd5b505050505b7f000000000000000000000000698d26df9f8d5cf0fd359d26add623602a2bc35573ffffffffffffffffffffffffffffffffffffffff1663f434c9146040518163ffffffff1660e01b8152600401602060405180830381865afa158015610f61573d6000803e3d6000fd5b505050506040513d601f19601f82011682018060405250810190610f8591906145d9565b73ffffffffffffffffffffffffffffffffffffffff166305d2912e306040518060600160405280600460009054906101000a900473ffffffffffffffffffffffffffffffffffffffff1673ffffffffffffffffffffffffffffffffffffffff168152602001898152602001600580548060200260200160405190810160405280929190818152602001828054801561103c57602002820191906000526020600020905b815481526020019060010190808311611028575b50505050508152506040518363ffffffff1660e01b8152600401611061929190614d71565b600060405180830381600087803b15801561107b57600080fd5b505af115801561108f573d6000803e3d6000fd5b505050505050509850989650505050505050565b60008080606073ffffffffffffffffffffffffffffffffffffffff7f0000000000000000000000005c94828c12604a92f39c6974f4cd964a702b81dc166383db9d01604087018035906110f99060208a01614dfe565b6040517fffffffff0000000000000000000000000000000000000000000000000000000060e085901b168152600481019290925273ffffffffffffffffffffffffffffffffffffffff166024820152604401602060405180830381865afa158015611168573d6000803e3d6000fd5b505050506040513d601f19601f8201168201806040525081019061118c9190614e1b565b156111a95761271085608001358660a0013593509350935061120b565b6040808601356000908152600160205220544210156111f4576040517f04c3b3cd00000000000000000000000000000000000000000000000000000000815260040160405180910390fd5b84610160013585608001358660a001359350935093505b9193509193565b7f000000000000000000000000698d26df9f8d5cf0fd359d26add623602a2bc35573ffffffffffffffffffffffffffffffffffffffff16631f47ce696040518163ffffffff1660e01b8152600401602060405180830381865afa15801561127d573d6000803e3d6000fd5b505050506040513d601f19601f820116820180604052508101906112a191906145d9565b73ffffffffffffffffffffffffffffffffffffffff1663f434c9146040518163ffffffff1660e01b8152600401602060405180830381865afa1580156112eb573d6000803e3d6000fd5b505050506040513d601f19601f8201168201806040525081019061130f91906145d9565b73ffffffffffffffffffffffffffffffffffffffff16630f5932f033308660026040518563ffffffff1660e01b815260040161134e9493929190614e38565b602060405180830381865afa15801561136b573d6000803e3d6000fd5b505050506040513d601f19601f8201168201806040525081019061138f9190614e1b565b6113c5576040517f31fb21f300000000000000000000000000000000000000000000000000000000815260040160405180910390fd5b6000338383602001516040516020016113e093929190614eb6565b604080517fffffffffffffffffffffffffffffffffffffffffffffffffffffffffffffffe081840301815290829052805160209091012083517f2f3f50e000000000000000000000000000000000000000000000000000000000835290925073ffffffffffffffffffffffffffffffffffffffff7f0000000000000000000000005c94828c12604a92f39c6974f4cd964a702b81dc1691632f3f50e09161148d9188918691600401614ffe565b6000604051808303816000875af11580156114ac573d6000803e3d6000fd5b505050506040513d6000823e601f3d9081017fffffffffffffffffffffffffffffffffffffffffffffffffffffffffffffffe01682016040526114f29190810190614a05565b5080847f755ecfca2f6e66af8868551556bf7931740a7062db8e0882f4c322fdb0bb3f6085853360405161152893929190615046565b60405180910390a350505050565b6000807f000000000000000000000000698d26df9f8d5cf0fd359d26add623602a2bc35573ffffffffffffffffffffffffffffffffffffffff1663293c49996040518163ffffffff1660e01b8152600401602060405180830381865afa1580156115a4573d6000803e3d6000fd5b505050506040513d601f19601f820116820180604052508101906115c891906145d9565b73ffffffffffffffffffffffffffffffffffffffff166306661abd6040518163ffffffff1660e01b8152600401602060405180830381865afa158015611612573d6000803e3d6000fd5b505050506040513d601f19601f820116820180604052508101906116369190615092565b6116419060016149c3565b845190925060006116538260016149c3565b67ffffffffffffffff81111561166b5761166b612f3c565b6040519080825280602002602001820160405280156116b857816020015b604080516060808201835260008083526020830152918101919091528152602001906001900390816116895790505b50905060005b82811015611705578681815181106116d8576116d86149d6565b60200260200101518282815181106116f2576116f26149d6565b60209081029190910101526001016116be565b5086516040517f2230819f00000000000000000000000000000000000000000000000000000000815273ffffffffffffffffffffffffffffffffffffffff7f0000000000000000000000007a8f8386bf3d331b216ae301bea5ec47cc51a8b21691632230819f9161177a9188916004016151e7565b6020604051808303816000875af1158015611799573d6000803e3d6000fd5b505050506040513d601f19601f820116820180604052508101906117bd91906145d9565b9250866020015115611801576002805460018101825560009190915260167f405787fa12a823e0f2b7631cc41b3ba8828b3321ca811111fa75cd3aa3bb5ace909101555b866040015115611843576002805460018101825560009190915260177f405787fa12a823e0f2b7631cc41b3ba8828b3321ca811111fa75cd3aa3bb5ace909101555b866060015115611885576002805460018101825560009190915260187f405787fa12a823e0f2b7631cc41b3ba8828b3321ca811111fa75cd3aa3bb5ace909101555b60405180606001604052808473ffffffffffffffffffffffffffffffffffffffff16815260200160008152602001604051806020016040528060008152508152508183815181106118d8576118d86149d6565b60200260200101819052506118f18b8b8b8b858a610bba565b50505097509795505050505050565b7f000000000000000000000000698d26df9f8d5cf0fd359d26add623602a2bc35573ffffffffffffffffffffffffffffffffffffffff16631f47ce696040518163ffffffff1660e01b8152600401602060405180830381865afa15801561196b573d6000803e3d6000fd5b505050506040513d601f19601f8201168201806040525081019061198f91906145d9565b73ffffffffffffffffffffffffffffffffffffffff1663f434c9146040518163ffffffff1660e01b8152600401602060405180830381865afa1580156119d9573d6000803e3d6000fd5b505050506040513d601f19601f820116820180604052508101906119fd91906145d9565b73ffffffffffffffffffffffffffffffffffffffff16630f5932f033308560026040518563ffffffff1660e01b8152600401611a3c9493929190614e38565b602060405180830381865afa158015611a59573d6000803e3d6000fd5b505050506040513d601f19601f82011682018060405250810190611a7d9190614e1b565b611ab3576040517f31fb21f300000000000000000000000000000000000000000000000000000000815260040160405180910390fd5b7f000000000000000000000000698d26df9f8d5cf0fd359d26add623602a2bc35573ffffffffffffffffffffffffffffffffffffffff16631f47ce696040518163ffffffff1660e01b8152600401602060405180830381865afa158015611b1e573d6000803e3d6000fd5b505050506040513d601f19601f82011682018060405250810190611b4291906145d9565b73ffffffffffffffffffffffffffffffffffffffff1663f434c9146040518163ffffffff1660e01b8152600401602060405180830381865afa158015611b8c573d6000803e3d6000fd5b505050506040513d601f19601f82011682018060405250810190611bb091906145d9565b73ffffffffffffffffffffffffffffffffffffffff166305d2912e3060405180606001604052803373ffffffffffffffffffffffffffffffffffffffff168152602001868152602001600067ffffffffffffffff811115611c1357611c13612f3c565b604051908082528060200260200182016040528015611c3c578160200160208202803683370190505b508152506040518363ffffffff1660e01b8152600401611c5d929190614d71565b600060405180830381600087803b158015611c7757600080fd5b505af1158015611c8b573d6000803e3d6000fd5b505050507f000000000000000000000000698d26df9f8d5cf0fd359d26add623602a2bc35573ffffffffffffffffffffffffffffffffffffffff16631f47ce696040518163ffffffff1660e01b8152600401602060405180830381865afa158015611cfa573d6000803e3d6000fd5b505050506040513d601f19601f82011682018060405250810190611d1e91906145d9565b73ffffffffffffffffffffffffffffffffffffffff1663f434c9146040518163ffffffff1660e01b8152600401602060405180830381865afa158015611d68573d6000803e3d6000fd5b505050506040513d601f19601f82011682018060405250810190611d8c91906145d9565b73ffffffffffffffffffffffffffffffffffffffff166305d2912e3060405180606001604052808573ffffffffffffffffffffffffffffffffffffffff1681526020018681526020016002805480602002602001604051908101604052809291908181526020018280548015611e2157602002820191906000526020600020905b815481526020019060010190808311611e0d575b50505050508152506040518363ffffffff1660e01b8152600401611e46929190614d71565b600060405180830381600087803b158015611e6057600080fd5b505af1158015611e74573d6000803e3d6000fd5b505060405133815273ffffffffffffffffffffffffffffffffffffffff841692508491507f0329d6a81434b130c72eb65eea0e32e429dc1277b4aad86ec86454aefb6184519060200160405180910390a35050565b600080600080611eda8a88886126fb565b9250925092507f000000000000000000000000698d26df9f8d5cf0fd359d26add623602a2bc35573ffffffffffffffffffffffffffffffffffffffff16630634bae9308c6000015160400151868d8f6000015160200151604051602001611f419190615364565b6040516020818303038152906040526040518663ffffffff1660e01b8152600401611f70959493929190615836565b6020604051808303816000875af1158015611f8f573d6000803e3d6000fd5b505050506040513d601f19601f82011682018060405250810190611fb39190615092565b93508080611fc55750468a6060015114155b15611fe757611fd76276a700426149c3565b6000858152600160205260409020555b8951805160208201516060909201516040517f5817819100000000000000000000000000000000000000000000000000000000815273ffffffffffffffffffffffffffffffffffffffff7f000000000000000000000000698d26df9f8d5cf0fd359d26add623602a2bc355169363581781919361206b938a939192916004016158ab565b6020604051808303816000875af115801561208a573d6000803e3d6000fd5b505050506040513d601f19601f820116820180604052508101906120ae91906145d9565b50875173ffffffffffffffffffffffffffffffffffffffff16156120d6576120d68489612b01565b7f000000000000000000000000698d26df9f8d5cf0fd359d26add623602a2bc35573ffffffffffffffffffffffffffffffffffffffff1663dd5f214a8560006121228e60800151612c86565b6040518463ffffffff1660e01b8152600401612140939291906158e8565b600060405180830381600087803b15801561215a57600080fd5b505af115801561216e573d6000803e3d6000fd5b505050507f000000000000000000000000698d26df9f8d5cf0fd359d26add623602a2bc35573ffffffffffffffffffffffffffffffffffffffff1663f434c9146040518163ffffffff1660e01b8152600401602060405180830381865afa1580156121dd573d6000803e3d6000fd5b505050506040513d601f19601f8201168201806040525081019061220191906145d9565b73ffffffffffffffffffffffffffffffffffffffff166305d2912e3060405180606001604052808e6080015173ffffffffffffffffffffffffffffffffffffffff168152602001888152602001600280548060200260200160405190810160405280929190818152602001828054801561229a57602002820191906000526020600020905b815481526020019060010190808311612286575b50505050508152506040518363ffffffff1660e01b81526004016122bf929190614d71565b600060405180830381600087803b1580156122d957600080fd5b505af11580156122ed573d6000803e3d6000fd5b5050505060008a604001511180156123085750468a60600151145b156123e3577f000000000000000000000000698d26df9f8d5cf0fd359d26add623602a2bc35573ffffffffffffffffffffffffffffffffffffffff1663c7fb92de858c604001518d608001518e600001516020015160405160200161236d9190615907565b60405160208183030381529060405260006040518663ffffffff1660e01b815260040161239e959493929190615973565b6020604051808303816000875af11580156123bd573d6000803e3d6000fd5b505050506040513d601f19601f820116820180604052508101906123e19190615092565b505b60408051600180825281830190925260009160208083019080368337019050509050601d8160008151811061241a5761241a6149d6565b6020026020010181815250507f000000000000000000000000698d26df9f8d5cf0fd359d26add623602a2bc35573ffffffffffffffffffffffffffffffffffffffff1663f434c9146040518163ffffffff1660e01b8152600401602060405180830381865afa158015612491573d6000803e3d6000fd5b505050506040513d601f19601f820116820180604052508101906124b591906145d9565b73ffffffffffffffffffffffffffffffffffffffff166305d2912e3060405180606001604052807f0000000000000000000000005c94828c12604a92f39c6974f4cd964a702b81dc73ffffffffffffffffffffffffffffffffffffffff168152602001898152602001858152506040518363ffffffff1660e01b815260040161253f929190614d71565b600060405180830381600087803b15801561255957600080fd5b505af115801561256d573d6000803e3d6000fd5b505050506020860151156126a7577f0000000000000000000000005c94828c12604a92f39c6974f4cd964a702b81dc73ffffffffffffffffffffffffffffffffffffffff16632f3f50e08633868a602001516040516020016125d193929190614eb6565b604080517fffffffffffffffffffffffffffffffffffffffffffffffffffffffffffffffe08184030181529082905280516020909101208a517fffffffff0000000000000000000000000000000000000000000000000000000060e086901b1683526126409392600401614ffe565b6000604051808303816000875af115801561265f573d6000803e3d6000fd5b505050506040513d6000823e601f3d9081017fffffffffffffffffffffffffffffffffffffffffffffffffffffffffffffffe01682016040526126a59190810190614a05565b505b847f4b827371715024f69a0bc98c8df6edafe6e471e78488ab1b3849de72f66b12e08c8c8c8a898989336040516126e5989796959493929190615af0565b60405180910390a2505050509695505050505050565b6060806000808660a001515190508067ffffffffffffffff81111561272257612722612f3c565b60405190808252806020026020018201604052801561281457816020015b6128016040805161010080820183526000808352602080840182905283850182905260608085018390526080808601849052865161020081018852848152928301849052958201839052810182905293840181905260a084810182905260c0850182905260e0850182905291840181905261012084018190526101408401819052610160840181905261018084018190526101a084018190526101c084018190526101e0840152909190820190815260200160608152602001606081525090565b8152602001906001900390816127405790505b50935061282087612dfc565b6040805160c081018252600080825260208201819052918101829052606081018290526080810182905260a081018290529194505b82811015612af5578860a001518181518110612873576128736149d6565b60200260200101519150816000015164ffffffffff1686828151811061289b5761289b6149d6565b60200260200101516000018181525050816060015164ffffffffff168682815181106128c9576128c96149d6565b6020026020010151602001818152505081604001516dffffffffffffffffffffffffffff16868281518110612900576129006149d6565b60200260200101516040018181525050816080015163ffffffff1686828151811061292d5761292d6149d6565b602002602001015160600181815250506000868281518110612951576129516149d6565b60200260200101516080019073ffffffffffffffffffffffffffffffffffffffff16908173ffffffffffffffffffffffffffffffffffffffff1681525050604051806102000160405280836020015161ffff1681526020018360a0015161ffff166127106129bf9190615cae565b815260208b81015163ffffffff16908201526000604082018190526060820181905260016080830181905260a0830182905260c0830182905260e0830182905261010083018290526101208301829052610140830182905261016083015261018082015273ffffffffffffffffffffffffffffffffffffffff8a166101a08201526101c0018890528651879083908110612a5b57612a5b6149d6565b602002602001015160a00181905250806000148015612a815750815164ffffffffff1615155b8015612a97575042826000015164ffffffffff16105b15612aa157600193505b84612aac8383612e3d565b604051602001612abd929190615cc1565b604080517fffffffffffffffffffffffffffffffffffffffffffffffffffffffffffffffe08184030181529190529450600101612855565b50505093509350939050565b602081810151516040805160808101825260008082529381018490529081018390526060810183905290915b82811015612c2d5783602001518181518110612b4b57612b4b6149d6565b6020908102919091018101518551918101516040808301516060840151845192517f7b621d3a000000000000000000000000000000000000000000000000000000008152600481018c905262ffffff909416602485015263ffffffff918216604485015216606483015273ffffffffffffffffffffffffffffffffffffffff9081166084830152919450911690637b621d3a9060a4016020604051808303816000875af1158015612c00573d6000803e3d6000fd5b505050506040513d601f19601f82011682018060405250810190612c2491906145d9565b50600101612b2d565b5050905160009283526020839052604090922080547fffffffffffffffffffffffff00000000000000000000000000000000000000001673ffffffffffffffffffffffffffffffffffffffff9093169290921790915550565b604080516001808252818301909252606091816020015b604080518082019091526000815260606020820152815260200190600190039081612c9d57505060408051600180825281830190925291925060009190602082015b6040805160c08101825260008082526020808301829052928201819052606082018190526080820181905260a082015282527fffffffffffffffffffffffffffffffffffffffffffffffffffffffffffffffff909201910181612cdf5790505090506040518060c00160405280600015158152602001633b9aca008152602001600081526020018473ffffffffffffffffffffffffffffffffffffffff16815260200160008152602001600073ffffffffffffffffffffffffffffffffffffffff1681525081600081518110612db757612db76149d6565b60200260200101819052506040518060400160405280600181526020018281525082600081518110612deb57612deb6149d6565b602002602001018190525050919050565b6020808201516060838101518451805181860151918401516040519496612e27969592939201615cf0565b6040516020818303038152906040529050919050565b606081158015612e535750825164ffffffffff16155b612e6557825164ffffffffff16612e67565b425b83602001518460400151856060015186608001518760a00151604051602001612edc9695949392919095865261ffff94851660208701526dffffffffffffffffffffffffffff93909316604086015264ffffffffff91909116606085015263ffffffff1660808401521660a082015260c00190565b604051602081830303815290604052905092915050565b600060208284031215612f0557600080fd5b81357fffffffff0000000000000000000000000000000000000000000000000000000081168114612f3557600080fd5b9392505050565b7f4e487b7100000000000000000000000000000000000000000000000000000000600052604160045260246000fd5b6040516080810167ffffffffffffffff81118282101715612f8e57612f8e612f3c565b60405290565b60405160c0810167ffffffffffffffff81118282101715612f8e57612f8e612f3c565b6040805190810167ffffffffffffffff81118282101715612f8e57612f8e612f3c565b6040516060810167ffffffffffffffff81118282101715612f8e57612f8e612f3c565b604051610180810167ffffffffffffffff81118282101715612f8e57612f8e612f3c565b604051610120810167ffffffffffffffff81118282101715612f8e57612f8e612f3c565b60405160a0810167ffffffffffffffff81118282101715612f8e57612f8e612f3c565b604051601f82017fffffffffffffffffffffffffffffffffffffffffffffffffffffffffffffffe016810167ffffffffffffffff811182821017156130af576130af612f3c565b604052919050565b600067ffffffffffffffff8211156130d1576130d1612f3c565b50601f017fffffffffffffffffffffffffffffffffffffffffffffffffffffffffffffffe01660200190565b600082601f83011261310e57600080fd5b813561312161311c826130b7565b613068565b81815284602083860101111561313657600080fd5b816020850160208301376000918101602001919091529392505050565b60006080828403121561316557600080fd5b61316d612f6b565b9050813567ffffffffffffffff8082111561318757600080fd5b613193858386016130fd565b835260208401359150808211156131a957600080fd5b6131b5858386016130fd565b602084015260408401359150808211156131ce57600080fd5b506131db848285016130fd565b6040830152506060820135606082015292915050565b803563ffffffff8116811461320557600080fd5b919050565b73ffffffffffffffffffffffffffffffffffffffff8116811461322c57600080fd5b50565b80356132058161320a565b600067ffffffffffffffff82111561325457613254612f3c565b5060051b60200190565b803564ffffffffff8116811461320557600080fd5b803561ffff8116811461320557600080fd5b600082601f83011261329657600080fd5b813560206132a661311c8361323a565b82815260c092830285018201928282019190878511156132c557600080fd5b8387015b8581101561336a5781818a0312156132e15760008081fd5b6132e9612f94565b6132f28261325e565b81526132ff868301613273565b868201526040808301356dffffffffffffffffffffffffffff811681146133265760008081fd5b90820152606061333783820161325e565b9082015260806133488382016131f1565b9082015260a0613359838201613273565b9082015284529284019281016132c9565b5090979650505050505050565b600060c0828403121561338957600080fd5b613391612f94565b9050813567ffffffffffffffff808211156133ab57600080fd5b6133b785838601613153565b83526133c5602085016131f1565b602084015260408401356040840152606084013560608401526133ea6080850161322f565b608084015260a084013591508082111561340357600080fd5b5061341084828501613285565b60a08301525092915050565b600082601f83011261342d57600080fd5b8135602061343d61311c8361323a565b8083825260208201915060208460051b87010193508684111561345f57600080fd5b602086015b848110156134845780356134778161320a565b8352918301918301613464565b509695505050505050565b600082601f8301126134a057600080fd5b813560206134b061311c8361323a565b82815260059290921b840181019181810190868411156134cf57600080fd5b8286015b8481101561348457803567ffffffffffffffff808211156134f45760008081fd5b81890191506040807fffffffffffffffffffffffffffffffffffffffffffffffffffffffffffffffe0848d0301121561352d5760008081fd5b613535612fb7565b878401356135428161320a565b81529083013590828211156135575760008081fd5b6135658c898487010161341c565b8189015286525050509183019183016134d3565b803562ffffff8116811461320557600080fd5b6000604080838503121561359f57600080fd5b6135a7612fb7565b915082356135b48161320a565b825260208381013567ffffffffffffffff8111156135d157600080fd5b8401601f810186136135e257600080fd5b80356135f061311c8261323a565b81815260079190911b8201830190838101908883111561360f57600080fd5b928401925b82841015613683576080848a03121561362d5760008081fd5b613635612f6b565b84356136408161320a565b815261364d858701613579565b8682015261365c8786016131f1565b87820152606061366d8187016131f1565b9082015282526080939093019290840190613614565b808588015250505050505092915050565b6000604082840312156136a657600080fd5b6136ae612fb7565b905067ffffffffffffffff80833511156136c757600080fd5b8235830184601f8201126136da57600080fd5b6136e761311c823561323a565b81358082526020808301929160051b8401018781111561370657600080fd5b602084015b8181101561386957858135111561372157600080fd5b8035850160407fffffffffffffffffffffffffffffffffffffffffffffffffffffffffffffffe0828c0301121561375757600080fd5b61375f612fb7565b61376c602083013561320a565b60208201358152876040830135111561378457600080fd5b6040820135820191508a603f83011261379c57600080fd5b60208201356137ad61311c8261323a565b81815260079190911b83016040019060208101908d8311156137ce57600080fd5b6040850194505b8285101561384a576080858f0312156137ed57600080fd5b6137f5612f6b565b6137ff863561320a565b8535815261380f602087016131f1565b6020820152613821604087013561320a565b6040860135604082015260608601356060820152808352506020820191506080850194506137d5565b806020850152505050808652505060208401935060208101905061370b565b5050808552505050506020820135602082015292915050565b6000806000806080858703121561389857600080fd5b843567ffffffffffffffff808211156138b057600080fd5b6138bc88838901613377565b955060208701359150808211156138d257600080fd5b6138de8883890161348f565b945060408701359150808211156138f457600080fd5b6139008883890161358c565b9350606087013591508082111561391657600080fd5b5061392387828801613694565b91505092959194509250565b60008060008060006080868803121561394757600080fd5b85356139528161320a565b945060208601356139628161320a565b935060408601359250606086013567ffffffffffffffff8082111561398657600080fd5b818801915088601f83011261399a57600080fd5b8135818111156139a957600080fd5b8960208285010111156139bb57600080fd5b9699959850939650602001949392505050565b6000602082840312156139e057600080fd5b5035919050565b6000602082840312156139f957600080fd5b813567ffffffffffffffff811115613a1057600080fd5b82016101808185031215612f3557600080fd5b60005b83811015613a3e578181015183820152602001613a26565b50506000910152565b60008151808452613a5f816020860160208601613a23565b601f017fffffffffffffffffffffffffffffffffffffffffffffffffffffffffffffffe0169290920160200192915050565b600082825180855260208086019550808260051b84010181860160005b8481101561336a578583037fffffffffffffffffffffffffffffffffffffffffffffffffffffffffffffffe00189528151805173ffffffffffffffffffffffffffffffffffffffff1684528481015185850152604090810151606091850182905290613b1c81860183613a47565b9a86019a9450505090830190600101613aae565b828152604060208201526000613b496040830184613a91565b949350505050565b602081526000612f356020830184613a91565b60008060408385031215613b7757600080fd5b823591506020830135613b898161320a565b809150509250929050565b600082601f830112613ba557600080fd5b81356020613bb561311c8361323a565b82815260059290921b84018101918181019086841115613bd457600080fd5b8286015b8481101561348457803567ffffffffffffffff80821115613bf95760008081fd5b81890191506060807fffffffffffffffffffffffffffffffffffffffffffffffffffffffffffffffe0848d03011215613c325760008081fd5b613c3a612fda565b87840135613c478161320a565b815260408481013589830152918401359183831115613c665760008081fd5b613c748d8a858801016130fd565b908201528652505050918301918301613bd8565b60008060008060008060c08789031215613ca157600080fd5b863567ffffffffffffffff80821115613cb957600080fd5b613cc58a838b01613377565b97506020890135915080821115613cdb57600080fd5b613ce78a838b0161348f565b96506040890135915080821115613cfd57600080fd5b613d098a838b0161358c565b95506060890135915080821115613d1f57600080fd5b613d2b8a838b01613694565b94506080890135915080821115613d4157600080fd5b50613d4e89828a01613b94565b925050613d5d60a08801613273565b90509295509295509295565b80356cffffffffffffffffffffffffff8116811461320557600080fd5b801515811461322c57600080fd5b803561320581613d86565b803560ff8116811461320557600080fd5b60006080808385031215613dc357600080fd5b613dcb612f6b565b9150823567ffffffffffffffff811115613de457600080fd5b8301601f81018513613df557600080fd5b80356020613e0561311c8361323a565b8281526101809283028401820192828201919089851115613e2557600080fd5b948301945b84861015613f185780868b031215613e425760008081fd5b613e4a612ffd565b613e5387613d69565b8152613e608588016131f1565b858201526040613e718189016131f1565b908201526060613e82888201613273565b90820152613e9187890161322f565b8189015260a0878101359082015260c0613eac818901613579565b9082015260e0613ebd888201613d94565b90820152610100613ecf888201613d94565b90820152610120613ee1888201613d94565b90820152610140613ef3888201613d94565b90820152610160613f05888201613d94565b9082015283529485019491830191613e2a565b50865250613f278682016131f1565b8186015250505050613f3b60408301613d9f565b6040820152613f4c6060830161322f565b606082015292915050565b600060808284031215613f6957600080fd5b613f71612f6b565b90508135613f7e81613d86565b81526020820135613f8e81613d86565b60208201526040820135613fa181613d86565b60408201526060820135613f4c81613d86565b600060808284031215613fc657600080fd5b613fce612f6b565b9050813567ffffffffffffffff80821115613fe857600080fd5b908301906101808286031215613ffd57600080fd5b614005613021565b82358281111561401457600080fd5b614020878286016130fd565b82525060208301358281111561403557600080fd5b614041878286016130fd565b6020830152506140536040840161322f565b604082015260608301358281111561406a57600080fd5b614076878286016130fd565b6060830152506140886080840161322f565b608082015260a08301358281111561409f57600080fd5b6140ab878286016130fd565b60a08301525060c0830135828111156140c357600080fd5b6140cf87828601613db0565b60c0830152506140e160e0840161322f565b60e082015261010091506140f786838501613f57565b8282015280845250505061410d60208301613d94565b602082015261411e60408301613d94565b6040820152613f4c60608301613d94565b600082601f83011261414057600080fd5b8135602061415061311c8361323a565b82815260059290921b8401810191818101908684111561416f57600080fd5b8286015b8481101561348457803567ffffffffffffffff808211156141945760008081fd5b818901915060a0807fffffffffffffffffffffffffffffffffffffffffffffffffffffffffffffffe0848d030112156141cd5760008081fd5b6141d5613045565b878401358152604080850135898301526060808601358284015260809150818601358184015250828501359250838311156142105760008081fd5b61421e8d8a8588010161341c565b908201528652505050918301918301614173565b600080600080600080600080610100898b03121561424f57600080fd5b883567ffffffffffffffff8082111561426757600080fd5b6142738c838d01613377565b995060208b013591508082111561428957600080fd5b6142958c838d0161348f565b985060408b01359150808211156142ab57600080fd5b6142b78c838d0161358c565b975060608b01359150808211156142cd57600080fd5b6142d98c838d01613694565b965060808b01359150808211156142ef57600080fd5b6142fb8c838d01613fb4565b955060a08b013591508082111561431157600080fd5b61431d8c838d01613b94565b945061432b60c08c01613273565b935060e08b013591508082111561434157600080fd5b5061434e8b828c0161412f565b9150509295985092959890939650565b60006020828403121561437057600080fd5b813567ffffffffffffffff81111561438757600080fd5b82016101a08185031215612f3557600080fd5b60006080820186835260208681850152604086604086015260606080606087015283875180865260a08801915060a08160051b890101955084890160005b82811015614453578988037fffffffffffffffffffffffffffffffffffffffffffffffffffffffffffffff600184528151805173ffffffffffffffffffffffffffffffffffffffff16895287810151888a0152860151868901869052614440868a0182613a47565b98505092860192908601906001016143d8565b50959c9b505050505050505050505050565b60008060006060848603121561447a57600080fd5b83359250602084013567ffffffffffffffff8082111561449957600080fd5b6144a5878388016130fd565b935060408601359150808211156144bb57600080fd5b506144c886828701613694565b9150509250925092565b600080600080600080600060e0888a0312156144ed57600080fd5b873567ffffffffffffffff8082111561450557600080fd5b6145118b838c01613377565b985060208a013591508082111561452757600080fd5b6145338b838c0161348f565b975060408a013591508082111561454957600080fd5b6145558b838c0161358c565b965060608a013591508082111561456b57600080fd5b6145778b838c01613694565b955060808a013591508082111561458d57600080fd5b6145998b838c01613fb4565b945060a08a01359150808211156145af57600080fd5b506145bc8a828b01613b94565b9250506145cb60c08901613273565b905092959891949750929550565b6000602082840312156145eb57600080fd5b8151612f358161320a565b80356146018161320a565b73ffffffffffffffffffffffffffffffffffffffff1682526020818101359083015260408082013590830152606090810135910152565b60008083357fffffffffffffffffffffffffffffffffffffffffffffffffffffffffffffffe184360301811261466d57600080fd5b830160208101925035905067ffffffffffffffff81111561468d57600080fd5b80360382131561469c57600080fd5b9250929050565b8183528181602085013750600060208284010152600060207fffffffffffffffffffffffffffffffffffffffffffffffffffffffffffffffe0601f840116840101905092915050565b6020815261471a602082016147008461322f565b73ffffffffffffffffffffffffffffffffffffffff169052565b60006147286020840161322f565b73ffffffffffffffffffffffffffffffffffffffff811660408401525061475560608301604085016145f6565b60c083013560e083015261010060e08401358184015261477681850161322f565b905061012061479c8185018373ffffffffffffffffffffffffffffffffffffffff169052565b610140915080850135828501525061016081850135818501526147c181860186614638565b61018086810152925090506104a96101a0850183836146a3565b60008060408084860312156147ef57600080fd5b8351925060208085015167ffffffffffffffff8082111561480f57600080fd5b818701915087601f83011261482357600080fd5b815161483161311c8261323a565b81815260059190911b8301840190848101908a83111561485057600080fd5b8585015b8381101561492f5780518581111561486b57600080fd5b86016060818e037fffffffffffffffffffffffffffffffffffffffffffffffffffffffffffffffe00112156148a05760008081fd5b6148a8612fda565b888201516148b58161320a565b8152818a0151898201526060820151878111156148d25760008081fd5b8083019250508d603f8301126148e85760008081fd5b888201516148f861311c826130b7565b8181528f8c83860101111561490d5760008081fd5b61491c828c83018e8701613a23565b828c015250845250918601918601614854565b50809750505050505050509250929050565b600181811c9082168061495557607f821691505b60208210810361498e577f4e487b7100000000000000000000000000000000000000000000000000000000600052602260045260246000fd5b50919050565b7f4e487b7100000000000000000000000000000000000000000000000000000000600052601160045260246000fd5b8082018082111561049257610492614994565b7f4e487b7100000000000000000000000000000000000000000000000000000000600052603260045260246000fd5b60006020808385031215614a1857600080fd5b825167ffffffffffffffff811115614a2f57600080fd5b8301601f81018513614a4057600080fd5b8051614a4e61311c8261323a565b81815260059190911b82018301908381019087831115614a6d57600080fd5b928401925b82841015614a94578351614a858161320a565b82529284019290840190614a72565b979650505050505050565b601f821115614aeb576000816000526020600020601f850160051c81016020861015614ac85750805b601f850160051c820191505b81811015614ae757828155600101614ad4565b5050505b505050565b815167ffffffffffffffff811115614b0a57614b0a612f3c565b614b1e81614b188454614941565b84614a9f565b602080601f831160018114614b715760008415614b3b5750858301515b7fffffffffffffffffffffffffffffffffffffffffffffffffffffffffffffffff600386901b1c1916600185901b178555614ae7565b6000858152602081207fffffffffffffffffffffffffffffffffffffffffffffffffffffffffffffffe08616915b82811015614bbe57888601518255948401946001909101908401614b9f565b5085821015614bfa57878501517fffffffffffffffffffffffffffffffffffffffffffffffffffffffffffffffff600388901b60f8161c191681555b5050505050600190811b01905550565b604081526000614c1d6040830185613a91565b905073ffffffffffffffffffffffffffffffffffffffff831660208301529392505050565b60008151808452602080850194506020840160005b83811015614c8957815173ffffffffffffffffffffffffffffffffffffffff1687529582019590820190600101614c57565b509495945050505050565b6000604080830185845260206040818601528186518084526060935060608701915060608160051b88010183890160005b83811015614d61578983037fffffffffffffffffffffffffffffffffffffffffffffffffffffffffffffffa00185528151805173ffffffffffffffffffffffffffffffffffffffff1684528681015187850152888101518985015287810151888501526080808201519085015260a09081015160c091850182905290614d4d81860183614c42565b968801969450505090850190600101614cc5565b50909a9950505050505050505050565b600073ffffffffffffffffffffffffffffffffffffffff808516835260206040602085015260a0840182865116604086015260208601516060860152604086015192506060608086015280835180835260c087019150602085019450600092505b80831015614df25784518252938301936001929092019190830190614dd2565b50979650505050505050565b600060208284031215614e1057600080fd5b8135612f358161320a565b600060208284031215614e2d57600080fd5b8151612f3581613d86565b60006080820173ffffffffffffffffffffffffffffffffffffffff80881684526020818816602086015286604086015260806060860152829150855480845260a086019250866000526020600020935060005b81811015614ea757845484526001948501949383019301614e8b565b50919998505050505050505050565b7fffffffffffffffffffffffffffffffffffffffff0000000000000000000000008460601b16815260008351614ef3816014850160208801613a23565b60149201918201929092526034019392505050565b600082825180855260208086019550808260051b8401018186016000805b85811015614ff0578684037fffffffffffffffffffffffffffffffffffffffffffffffffffffffffffffffe0018a528251805173ffffffffffffffffffffffffffffffffffffffff908116865290860151604087870181905281518188018190529188019290916060919082890190875b81811015614fd85786518051851684528c81015163ffffffff168d8501528681015185168785015285015185840152958b0195608090920191600101614f97565b50509d89019d97505050938601935050600101614f26565b509198975050505050505050565b8381528260208201526060604082015260006104a96060830184614f08565b60008151604084526150326040850182614f08565b602093840151949093019390935250919050565b6060815260006150596060830186613a47565b828103602084015261506b818661501d565b91505073ffffffffffffffffffffffffffffffffffffffff83166040830152949350505050565b6000602082840312156150a457600080fd5b5051919050565b80516080808452815184820181905260009260a0916020918201918388019190865b8281101561519d57845180516cffffffffffffffffffffffffff1685528281015163ffffffff908116848701526040808301519091169086015260608082015161ffff16908601528781015173ffffffffffffffffffffffffffffffffffffffff1688860152868101518786015260c08082015162ffffff169086015260e0808201511515908601526101008082015115159086015261012080820151151590860152610140808201511515908601526101609081015115159085015293810193610180909301926001016150cd565b508088015163ffffffff16908901525060408087015160ff169088015260609586015173ffffffffffffffffffffffffffffffffffffffff16959096019490945250929392505050565b8281526040602082015260008251610180604084015261520b6101c0840182613a47565b905060208401517fffffffffffffffffffffffffffffffffffffffffffffffffffffffffffffffc0808584030160608601526152478383613a47565b925060408601519150615272608086018373ffffffffffffffffffffffffffffffffffffffff169052565b60608601519150808584030160a086015261528d8383613a47565b9250608086015191506152b860c086018373ffffffffffffffffffffffffffffffffffffffff169052565b60a08601519150808584030160e08601526152d38383613a47565b925060c086015191506101008186850301818701526152f284846150ab565b935060e0870151925061531e61012087018473ffffffffffffffffffffffffffffffffffffffff169052565b860151805115156101408701526020810151151561016087015260408101511515610180870152606081015115156101a0870152915061535b9050565b50949350505050565b7f240000000000000000000000000000000000000000000000000000000000000081526000825161539c816001850160208701613a23565b7f207265766e6574206465706c6f796564000000000000000000000000000000006001939091019283015250601101919050565b80518252602081015160208301526040810151604083015260608101516153fb606084018215159052565b50608081015161540f608084018215159052565b5060a081015161542360a084018215159052565b5060c081015161543760c084018215159052565b5060e081015161544b60e084018215159052565b5061010081810151151590830152610120808201511515908301526101408082015115159083015261016080820151151590830152610180808201511515908301526101a0808201511515908301526101c08082015173ffffffffffffffffffffffffffffffffffffffff16908301526101e090810151910152565b600082825180855260208086019550808260051b8401018186016000805b85811015614ff0578684037fffffffffffffffffffffffffffffffffffffffffffffffffffffffffffffffe0018a52825180518552850151604086860181905281518187018190529187019160609081880190865b818110156155a15785518051151584528b8101518c85015285810151868501528481015173ffffffffffffffffffffffffffffffffffffffff908116868601526080808301519086015260a0918201511690840152948a019460c09092019160010161553a565b50509c88019c9650505092850192506001016154e5565b60008151808452602080850194506020840160005b83811015614c895781518051885283015183880152604090960195908201906001016155cd565b600082825180855260208086019550808260051b84010181860160005b8481101561336a577fffffffffffffffffffffffffffffffffffffffffffffffffffffffffffffffe08684030189528151608073ffffffffffffffffffffffffffffffffffffffff80835116865280878401511687870152506040808301518282880152615681838801826155b8565b925050506060808301519250858203818701525061569f81836155b8565b9a86019a9450505090830190600101615611565b600082825180855260208086019550808260051b84010181860160005b8481101561336a577fffffffffffffffffffffffffffffffffffffffffffffffffffffffffffffffe08684030189528151805184528481015185850152604080820151908501526060808201519085015260808082015173ffffffffffffffffffffffffffffffffffffffff169085015260a0808201516102e09190615758828801826153d0565b505060c0820151816102a0870152615772828701826154c7565b91505060e082015191508481036102c086015261578f81836155f4565b9a86019a94505050908301906001016156d0565b600082825180855260208086019550808260051b84010181860160005b8481101561336a578583037fffffffffffffffffffffffffffffffffffffffffffffffffffffffffffffffe00189528151805173ffffffffffffffffffffffffffffffffffffffff168452840151604085850181905261582281860183614c42565b9a86019a94505050908301906001016157c0565b73ffffffffffffffffffffffffffffffffffffffff8616815260a06020820152600061586560a0830187613a47565b828103604084015261587781876156b3565b9050828103606084015261588b81866157a3565b9050828103608084015261589f8185613a47565b98975050505050505050565b8481526080602082015260006158c46080830186613a47565b82810360408401526158d68186613a47565b91505082606083015295945050505050565b8381528260208201526060604082015260006104a960608301846154c7565b7f240000000000000000000000000000000000000000000000000000000000000081526000825161593f816001850160208701613a23565b7f207072656d696e746564000000000000000000000000000000000000000000006001939091019283015250600b01919050565b85815284602082015273ffffffffffffffffffffffffffffffffffffffff8416604082015260a0606082015260006159ae60a0830185613a47565b905082151560808301529695505050505050565b60008151808452602080850194506020840160005b83811015614c89578151805164ffffffffff90811689528482015161ffff908116868b01526040808401516dffffffffffffffffffffffffffff16908b0152606080840151909216918a019190915260808083015163ffffffff16908a015260a091820151169088015260c090960195908201906001016159d7565b6000604080840173ffffffffffffffffffffffffffffffffffffffff8085511686526020808601516040828901528381518086526060955060608a019150838301925060005b81811015615ae15783518051871684528581015162ffffff16868501528881015163ffffffff9081168a86015290880151168784015292840192608090920191600101615a99565b50909998505050505050505050565b60006101008083528a5160c0828501528051915060806101c0850152615b1a610240850183613a47565b915060208101517ffffffffffffffffffffffffffffffffffffffffffffffffffffffffffffffe4080868503016101e0870152615b578483613a47565b935060408301519150808685030161020087015250615b768382613a47565b92505060608101516102208501525060208b0151615b9d61012085018263ffffffff169052565b5060408b015161014084015260608b015161016084015260808b015173ffffffffffffffffffffffffffffffffffffffff1661018084015260a08b01518382037fffffffffffffffffffffffffffffffffffffffffffffffffffffffffffffff00016101a0850152615c0f82826159c2565b9150508281036020840152615c24818b6157a3565b90508281036040840152615c38818a615a53565b90508281036060840152615c4c818961501d565b90508281036080840152615c6081886156b3565b905082810360a0840152615c748187613a47565b915050615c8560c083018515159052565b73ffffffffffffffffffffffffffffffffffffffff831660e08301529998505050505050505050565b8181038181111561049257610492614994565b60008351615cd3818460208801613a23565b835190830190615ce7818360208801613a23565b01949350505050565b63ffffffff8616815284602082015260a060408201526000615d1560a0830186613a47565b8281036060840152615d278186613a47565b915050826080830152969550505050505056fea2646970667358221220c007ab749cf646cce58a0be5d4aa55942a8a5e5d77f4d71529645b35e120f5dc64736f6c63430008170033",
	"devdoc": {
		"kind": "dev",
		"methods": {
			"beforePayRecordedWith((address,address,(address,uint256,uint256,uint256),uint256,uint256,address,uint256,uint256,bytes))": {
				"details": "Part of IJBFundingCycleDataSource.This implementation just sets this contract up to receive a `didPay` call.",
				"params": {
					"context": "The Juicebox standard network payment context. See"
				},
				"returns": {
					"hookSpecifications": "Amount to be sent to pay hooks instead of adding to local balance. Useful for auto-routing funds from a treasury as payment come in.",
					"weight": "The weight that network tokens should get minted relative to. This is useful for optionally customizing how many tokens are issued per payment."
				}
			},
			"constructor": {
				"params": {
					"controller": "The controller that revnets are made from.",
					"hookDeployer": "The 721 tiers hook deployer.",
					"publisher": "The croptop publisher that facilitates the permissioned publishing of 721 posts to a revnet.",
					"suckerRegistry": "The registry that deploys and tracks each project's suckers."
				}
			},
			"deployCroptopRevnetWith(((string,string,string,bytes32),uint32,uint256,uint256,address,(uint40,uint16,uint112,uint40,uint32,uint16)[]),(address,address[])[],(address,(address,uint24,uint32,uint32)[]),((address,(address,uint32,address,uint256)[])[],bytes32),((string,string,address,string,address,string,((uint104,uint32,uint32,uint16,address,bytes32,uint24,bool,bool,bool,bool,bool)[],uint32,uint8,address),address,(bool,bool,bool,bool)),bool,bool,bool),(address,uint256,bytes)[],uint16,(uint256,uint256,uint256,uint256,address[])[])": {
				"params": {
					"allowedPosts": "The type of posts that the network should allow.",
					"buybackHookConfiguration": "Data used for setting up the buyback hook to use when determining the best price for new participants.",
					"configuration": "The data needed to deploy a basic revnet.",
					"extraHookMetadata": "Extra metadata to attach to the cycle for the delegates to use.",
					"hookConfiguration": "Data used for setting up the 721 tiers.",
					"otherPayHooksSpecifications": "Any hooks that should run when the revnet is paid alongside the 721 hook.",
					"suckerDeploymentConfiguration": "Information about how this revnet relates to other's across chains.",
					"terminalConfigurations": "The terminals that the network uses to accept payments through."
				},
				"returns": {
					"hook": "The address of the 721 hook that was deployed on the revnet.",
					"revnetId": "The ID of the newly created revnet."
				}
			},
			"deployPayHookRevnetWith(((string,string,string,bytes32),uint32,uint256,uint256,address,(uint40,uint16,uint112,uint40,uint32,uint16)[]),(address,address[])[],(address,(address,uint24,uint32,uint32)[]),((address,(address,uint32,address,uint256)[])[],bytes32),(address,uint256,bytes)[],uint16)": {
				"params": {
					"buybackHookConfiguration": "Data used for setting up the buyback hook to use when determining the best price for new participants.",
					"configuration": "The data needed to deploy a basic revnet.",
					"extraHookMetadata": "Extra metadata to attach to the cycle for the delegates to use.",
					"payHookSpecifications": "Any hooks that should run when the revnet is paid.",
					"suckerDeploymentConfiguration": "Information about how this revnet relates to other's across chains.",
					"terminalConfigurations": "The terminals that the network uses to accept payments through."
				},
				"returns": {
					"revnetId": "The ID of the newly created revnet."
				}
			},
			"deployRevnetWith(((string,string,string,bytes32),uint32,uint256,uint256,address,(uint40,uint16,uint112,uint40,uint32,uint16)[]),(address,address[])[],(address,(address,uint24,uint32,uint32)[]),((address,(address,uint32,address,uint256)[])[],bytes32))": {
				"params": {
					"buybackHookConfiguration": "Data used for setting up the buyback hook to use when determining the best price for new participants.",
					"configuration": "The data needed to deploy a basic revnet.",
					"suckerDeploymentConfiguration": "Information about how this revnet relates to other's across chains.",
					"terminalConfigurations": "The terminals that the network uses to accept payments through."
				},
				"returns": {
					"revnetId": "The ID of the newly created revnet."
				}
			},
			"deploySuckersFor(uint256,bytes,((address,(address,uint32,address,uint256)[])[],bytes32))": {
				"params": {
					"encodedConfiguration": "A bytes representation of the revnet's configuration.",
					"revnetId": "The ID of the revnet having new suckers deployed.",
					"suckerDeploymentConfiguration": "The specifics about the suckers being deployed."
				}
			},
			"deployTiered721RevnetWith(((string,string,string,bytes32),uint32,uint256,uint256,address,(uint40,uint16,uint112,uint40,uint32,uint16)[]),(address,address[])[],(address,(address,uint24,uint32,uint32)[]),((address,(address,uint32,address,uint256)[])[],bytes32),((string,string,address,string,address,string,((uint104,uint32,uint32,uint16,address,bytes32,uint24,bool,bool,bool,bool,bool)[],uint32,uint8,address),address,(bool,bool,bool,bool)),bool,bool,bool),(address,uint256,bytes)[],uint16)": {
				"params": {
					"buybackHookConfiguration": "Data used for setting up the buyback hook to use when determining the best price for new participants.",
					"configuration": "The data needed to deploy a basic revnet.",
					"extraHookMetadata": "Extra metadata to attach to the cycle for the delegates to use.",
					"hookConfiguration": "Data used for setting up the 721 tiers.",
					"otherPayHooksSpecifications": "Any hooks that should run when the revnet is paid alongside the 721 hook.",
					"suckerDeploymentConfiguration": "Information about how this revnet relates to other's across chains.",
					"terminalConfigurations": "The terminals that the network uses to accept payments through."
				},
				"returns": {
					"hook": "The address of the 721 hook that was deployed on the revnet.",
					"revnetId": "The ID of the newly created revnet."
				}
			},
			"hasMintPermissionFor(uint256,address)": {
				"params": {
					"addr": "The address to check if has permissions.",
					"revnetId": "The ID of the revnet to check permissions for."
				},
				"returns": {
					"_0": "flag The flag indicating if the address has permissions to mint on the revnet's behalf."
				}
			},
			"onERC721Received(address,address,uint256,bytes)": {
				"details": "Make sure only mints can be received."
			},
			"payHookSpecificationsOf(uint256)": {
				"params": {
					"revnetId": "The ID of the revnet to which the extensions apply."
				},
				"returns": {
					"_0": "payHookSpecifications The pay hooks."
				}
			},
			"replaceSplitOperatorOf(uint256,address)": {
				"params": {
					"newSplitOperator": "The address of the new split operator.",
					"revnetId": "The ID of the revnet having its operator replaced."
				}
			},
			"supportsInterface(bytes4)": {
				"details": "See {IERC165-supportsInterface}.",
				"params": {
					"interfaceId": "The ID of the interface to check for adherence to."
				},
				"returns": {
					"_0": "A flag indicating if the provided interface ID is supported."
				}
			}
		},
		"version": 1
	},
	"userdoc": {
		"kind": "user",
		"methods": {
			"CONTROLLER()": {
				"notice": "The controller that networks are made from."
			},
			"EXIT_DELAY()": {
				"notice": "The amount of time from a sucker being deployed to when it can facilitate exits."
			},
			"HOOK_DEPLOYER()": {
				"notice": "The contract responsible for deploying the tiered 721 hook."
			},
			"PUBLISHER()": {
				"notice": "The croptop publisher that facilitates the permissioned publishing of 721 posts to a revnet."
			},
			"SUCKER_REGISTRY()": {
				"notice": "The registry that deploys and tracks each project's suckers."
			},
			"beforePayRecordedWith((address,address,(address,uint256,uint256,uint256),uint256,uint256,address,uint256,uint256,bytes))": {
				"notice": "This function gets called when the revnet receives a payment."
			},
			"beforeRedeemRecordedWith((address,address,uint256,uint256,uint256,uint256,(address,uint256,uint256,uint256),bool,uint256,bytes))": {
				"notice": "This function is never called, it needs to be included to adhere to the interface."
			},
			"buybackHookOf(uint256)": {
				"notice": "The data hook that returns the correct values for the buyback hook of each network."
			},
			"deployCroptopRevnetWith(((string,string,string,bytes32),uint32,uint256,uint256,address,(uint40,uint16,uint112,uint40,uint32,uint16)[]),(address,address[])[],(address,(address,uint24,uint32,uint32)[]),((address,(address,uint32,address,uint256)[])[],bytes32),((string,string,address,string,address,string,((uint104,uint32,uint32,uint16,address,bytes32,uint24,bool,bool,bool,bool,bool)[],uint32,uint8,address),address,(bool,bool,bool,bool)),bool,bool,bool),(address,uint256,bytes)[],uint16,(uint256,uint256,uint256,uint256,address[])[])": {
				"notice": "Deploy a revnet that supports 721 sales."
			},
			"deployPayHookRevnetWith(((string,string,string,bytes32),uint32,uint256,uint256,address,(uint40,uint16,uint112,uint40,uint32,uint16)[]),(address,address[])[],(address,(address,uint24,uint32,uint32)[]),((address,(address,uint32,address,uint256)[])[],bytes32),(address,uint256,bytes)[],uint16)": {
				"notice": "Deploy a basic revnet that also calls other specified pay hooks."
			},
			"deployRevnetWith(((string,string,string,bytes32),uint32,uint256,uint256,address,(uint40,uint16,uint112,uint40,uint32,uint16)[]),(address,address[])[],(address,(address,uint24,uint32,uint32)[]),((address,(address,uint32,address,uint256)[])[],bytes32))": {
				"notice": "Deploy a basic revnet."
			},
			"deploySuckersFor(uint256,bytes,((address,(address,uint32,address,uint256)[])[],bytes32))": {
				"notice": "Allows a revnet's split operator to deploy new suckers to the revnet after it's deployed."
			},
			"deployTiered721RevnetWith(((string,string,string,bytes32),uint32,uint256,uint256,address,(uint40,uint16,uint112,uint40,uint32,uint16)[]),(address,address[])[],(address,(address,uint24,uint32,uint32)[]),((address,(address,uint32,address,uint256)[])[],bytes32),((string,string,address,string,address,string,((uint104,uint32,uint32,uint16,address,bytes32,uint24,bool,bool,bool,bool,bool)[],uint32,uint8,address),address,(bool,bool,bool,bool)),bool,bool,bool),(address,uint256,bytes)[],uint16)": {
				"notice": "Deploy a revnet that supports 721 sales."
			},
			"exitDelayOf(uint256)": {
				"notice": "The time at which exits from a revnet become allowed."
			},
			"hasMintPermissionFor(uint256,address)": {
				"notice": "Required by the IJBRulesetDataHook interfaces."
			},
			"payHookSpecificationsOf(uint256)": {
				"notice": "The pay hooks to include during payments to networks."
			},
			"replaceSplitOperatorOf(uint256,address)": {
				"notice": "A revnet's operator can replace itself."
			},
			"supportsInterface(bytes4)": {
				"notice": "Indicates if this contract adheres to the specified interface."
			}
		},
		"version": 1
	},
	"gitCommit": "a807dff8ab1a606db5f42d11f777b9f50de04c8d",
	"sourceName": "src/REVCroptopDeployer.sol",
	"chainId": "11155420",
	"linkReferences": {},
	"deployedLinkReferences": {},
	"history": [
		{
			"_format": "sphinx-sol-ct-artifact-1",
			"merkleRoot": "0xd4471c8ae6e1babf0e4157b34143d8db15017448ffd6e7f1d172f37fd4d7b9bd",
			"contractName": "REVCroptopDeployer",
			"address": "0x1369CCe8B184Fe5C5d80c2f6938Ad9A838537Cbd",
			"abi": [
				{
					"type": "constructor",
					"inputs": [
						{
							"name": "controller",
							"type": "address",
							"internalType": "contract IJBController"
						},
						{
							"name": "hookDeployer",
							"type": "address",
							"internalType": "contract IJB721TiersHookDeployer"
						},
						{
							"name": "publisher",
							"type": "address",
							"internalType": "contract CTPublisher"
						},
						{
							"name": "suckerRegistry",
							"type": "address",
							"internalType": "contract IBPSuckerRegistry"
						}
					],
					"stateMutability": "nonpayable"
				},
				{
					"type": "function",
					"name": "CONTROLLER",
					"inputs": [],
					"outputs": [
						{
							"name": "",
							"type": "address",
							"internalType": "contract IJBController"
						}
					],
					"stateMutability": "view"
				},
				{
					"type": "function",
					"name": "EXIT_DELAY",
					"inputs": [],
					"outputs": [
						{
							"name": "",
							"type": "uint256",
							"internalType": "uint256"
						}
					],
					"stateMutability": "view"
				},
				{
					"type": "function",
					"name": "HOOK_DEPLOYER",
					"inputs": [],
					"outputs": [
						{
							"name": "",
							"type": "address",
							"internalType": "contract IJB721TiersHookDeployer"
						}
					],
					"stateMutability": "view"
				},
				{
					"type": "function",
					"name": "PUBLISHER",
					"inputs": [],
					"outputs": [
						{
							"name": "",
							"type": "address",
							"internalType": "contract CTPublisher"
						}
					],
					"stateMutability": "view"
				},
				{
					"type": "function",
					"name": "SUCKER_REGISTRY",
					"inputs": [],
					"outputs": [
						{
							"name": "",
							"type": "address",
							"internalType": "contract IBPSuckerRegistry"
						}
					],
					"stateMutability": "view"
				},
				{
					"type": "function",
					"name": "beforePayRecordedWith",
					"inputs": [
						{
							"name": "context",
							"type": "tuple",
							"internalType": "struct JBBeforePayRecordedContext",
							"components": [
								{
									"name": "terminal",
									"type": "address",
									"internalType": "address"
								},
								{
									"name": "payer",
									"type": "address",
									"internalType": "address"
								},
								{
									"name": "amount",
									"type": "tuple",
									"internalType": "struct JBTokenAmount",
									"components": [
										{
											"name": "token",
											"type": "address",
											"internalType": "address"
										},
										{
											"name": "value",
											"type": "uint256",
											"internalType": "uint256"
										},
										{
											"name": "decimals",
											"type": "uint256",
											"internalType": "uint256"
										},
										{
											"name": "currency",
											"type": "uint256",
											"internalType": "uint256"
										}
									]
								},
								{
									"name": "projectId",
									"type": "uint256",
									"internalType": "uint256"
								},
								{
									"name": "rulesetId",
									"type": "uint256",
									"internalType": "uint256"
								},
								{
									"name": "beneficiary",
									"type": "address",
									"internalType": "address"
								},
								{
									"name": "weight",
									"type": "uint256",
									"internalType": "uint256"
								},
								{
									"name": "reservedRate",
									"type": "uint256",
									"internalType": "uint256"
								},
								{
									"name": "metadata",
									"type": "bytes",
									"internalType": "bytes"
								}
							]
						}
					],
					"outputs": [
						{
							"name": "weight",
							"type": "uint256",
							"internalType": "uint256"
						},
						{
							"name": "hookSpecifications",
							"type": "tuple[]",
							"internalType": "struct JBPayHookSpecification[]",
							"components": [
								{
									"name": "hook",
									"type": "address",
									"internalType": "contract IJBPayHook"
								},
								{
									"name": "amount",
									"type": "uint256",
									"internalType": "uint256"
								},
								{
									"name": "metadata",
									"type": "bytes",
									"internalType": "bytes"
								}
							]
						}
					],
					"stateMutability": "view"
				},
				{
					"type": "function",
					"name": "beforeRedeemRecordedWith",
					"inputs": [
						{
							"name": "context",
							"type": "tuple",
							"internalType": "struct JBBeforeRedeemRecordedContext",
							"components": [
								{
									"name": "terminal",
									"type": "address",
									"internalType": "address"
								},
								{
									"name": "holder",
									"type": "address",
									"internalType": "address"
								},
								{
									"name": "projectId",
									"type": "uint256",
									"internalType": "uint256"
								},
								{
									"name": "rulesetId",
									"type": "uint256",
									"internalType": "uint256"
								},
								{
									"name": "redeemCount",
									"type": "uint256",
									"internalType": "uint256"
								},
								{
									"name": "totalSupply",
									"type": "uint256",
									"internalType": "uint256"
								},
								{
									"name": "surplus",
									"type": "tuple",
									"internalType": "struct JBTokenAmount",
									"components": [
										{
											"name": "token",
											"type": "address",
											"internalType": "address"
										},
										{
											"name": "value",
											"type": "uint256",
											"internalType": "uint256"
										},
										{
											"name": "decimals",
											"type": "uint256",
											"internalType": "uint256"
										},
										{
											"name": "currency",
											"type": "uint256",
											"internalType": "uint256"
										}
									]
								},
								{
									"name": "useTotalSurplus",
									"type": "bool",
									"internalType": "bool"
								},
								{
									"name": "redemptionRate",
									"type": "uint256",
									"internalType": "uint256"
								},
								{
									"name": "metadata",
									"type": "bytes",
									"internalType": "bytes"
								}
							]
						}
					],
					"outputs": [
						{
							"name": "",
							"type": "uint256",
							"internalType": "uint256"
						},
						{
							"name": "",
							"type": "uint256",
							"internalType": "uint256"
						},
						{
							"name": "",
							"type": "uint256",
							"internalType": "uint256"
						},
						{
							"name": "specifications",
							"type": "tuple[]",
							"internalType": "struct JBRedeemHookSpecification[]",
							"components": [
								{
									"name": "hook",
									"type": "address",
									"internalType": "contract IJBRedeemHook"
								},
								{
									"name": "amount",
									"type": "uint256",
									"internalType": "uint256"
								},
								{
									"name": "metadata",
									"type": "bytes",
									"internalType": "bytes"
								}
							]
						}
					],
					"stateMutability": "view"
				},
				{
					"type": "function",
					"name": "buybackHookOf",
					"inputs": [
						{
							"name": "revnetId",
							"type": "uint256",
							"internalType": "uint256"
						}
					],
					"outputs": [
						{
							"name": "buybackHook",
							"type": "address",
							"internalType": "contract IJBRulesetDataHook"
						}
					],
					"stateMutability": "view"
				},
				{
					"type": "function",
					"name": "deployCroptopRevnetWith",
					"inputs": [
						{
							"name": "configuration",
							"type": "tuple",
							"internalType": "struct REVConfig",
							"components": [
								{
									"name": "description",
									"type": "tuple",
									"internalType": "struct REVDescription",
									"components": [
										{
											"name": "name",
											"type": "string",
											"internalType": "string"
										},
										{
											"name": "symbol",
											"type": "string",
											"internalType": "string"
										},
										{
											"name": "uri",
											"type": "string",
											"internalType": "string"
										},
										{
											"name": "salt",
											"type": "bytes32",
											"internalType": "bytes32"
										}
									]
								},
								{
									"name": "baseCurrency",
									"type": "uint32",
									"internalType": "uint32"
								},
								{
									"name": "premintTokenAmount",
									"type": "uint256",
									"internalType": "uint256"
								},
								{
									"name": "initialOperator",
									"type": "address",
									"internalType": "address"
								},
								{
									"name": "stageConfigurations",
									"type": "tuple[]",
									"internalType": "struct REVStageConfig[]",
									"components": [
										{
											"name": "startsAtOrAfter",
											"type": "uint40",
											"internalType": "uint40"
										},
										{
											"name": "operatorSplitRate",
											"type": "uint16",
											"internalType": "uint16"
										},
										{
											"name": "initialIssuanceRate",
											"type": "uint112",
											"internalType": "uint112"
										},
										{
											"name": "priceCeilingIncreaseFrequency",
											"type": "uint40",
											"internalType": "uint40"
										},
										{
											"name": "priceCeilingIncreasePercentage",
											"type": "uint32",
											"internalType": "uint32"
										},
										{
											"name": "priceFloorTaxIntensity",
											"type": "uint16",
											"internalType": "uint16"
										}
									]
								}
							]
						},
						{
							"name": "terminalConfigurations",
							"type": "tuple[]",
							"internalType": "struct JBTerminalConfig[]",
							"components": [
								{
									"name": "terminal",
									"type": "address",
									"internalType": "contract IJBTerminal"
								},
								{
									"name": "tokensToAccept",
									"type": "address[]",
									"internalType": "address[]"
								}
							]
						},
						{
							"name": "buybackHookConfiguration",
							"type": "tuple",
							"internalType": "struct REVBuybackHookConfig",
							"components": [
								{
									"name": "hook",
									"type": "address",
									"internalType": "contract IJBBuybackHook"
								},
								{
									"name": "poolConfigurations",
									"type": "tuple[]",
									"internalType": "struct REVBuybackPoolConfig[]",
									"components": [
										{
											"name": "token",
											"type": "address",
											"internalType": "address"
										},
										{
											"name": "fee",
											"type": "uint24",
											"internalType": "uint24"
										},
										{
											"name": "twapWindow",
											"type": "uint32",
											"internalType": "uint32"
										},
										{
											"name": "twapSlippageTolerance",
											"type": "uint32",
											"internalType": "uint32"
										}
									]
								}
							]
						},
						{
							"name": "suckerDeploymentConfiguration",
							"type": "tuple",
							"internalType": "struct REVSuckerDeploymentConfig",
							"components": [
								{
									"name": "deployerConfigurations",
									"type": "tuple[]",
									"internalType": "struct BPSuckerDeployerConfig[]",
									"components": [
										{
											"name": "deployer",
											"type": "address",
											"internalType": "contract IBPSuckerDeployer"
										},
										{
											"name": "mappings",
											"type": "tuple[]",
											"internalType": "struct BPTokenMapping[]",
											"components": [
												{
													"name": "localToken",
													"type": "address",
													"internalType": "address"
												},
												{
													"name": "minGas",
													"type": "uint32",
													"internalType": "uint32"
												},
												{
													"name": "remoteToken",
													"type": "address",
													"internalType": "address"
												},
												{
													"name": "minBridgeAmount",
													"type": "uint256",
													"internalType": "uint256"
												}
											]
										}
									]
								},
								{
									"name": "salt",
									"type": "bytes32",
									"internalType": "bytes32"
								}
							]
						},
						{
							"name": "hookConfiguration",
							"type": "tuple",
							"internalType": "struct REVDeploy721TiersHookConfig",
							"components": [
								{
									"name": "baseline721HookConfiguration",
									"type": "tuple",
									"internalType": "struct JBDeploy721TiersHookConfig",
									"components": [
										{
											"name": "name",
											"type": "string",
											"internalType": "string"
										},
										{
											"name": "symbol",
											"type": "string",
											"internalType": "string"
										},
										{
											"name": "rulesets",
											"type": "address",
											"internalType": "contract IJBRulesets"
										},
										{
											"name": "baseUri",
											"type": "string",
											"internalType": "string"
										},
										{
											"name": "tokenUriResolver",
											"type": "address",
											"internalType": "contract IJB721TokenUriResolver"
										},
										{
											"name": "contractUri",
											"type": "string",
											"internalType": "string"
										},
										{
											"name": "tiersConfig",
											"type": "tuple",
											"internalType": "struct JB721InitTiersConfig",
											"components": [
												{
													"name": "tiers",
													"type": "tuple[]",
													"internalType": "struct JB721TierConfig[]",
													"components": [
														{
															"name": "price",
															"type": "uint104",
															"internalType": "uint104"
														},
														{
															"name": "initialSupply",
															"type": "uint32",
															"internalType": "uint32"
														},
														{
															"name": "votingUnits",
															"type": "uint32",
															"internalType": "uint32"
														},
														{
															"name": "reserveFrequency",
															"type": "uint16",
															"internalType": "uint16"
														},
														{
															"name": "reserveBeneficiary",
															"type": "address",
															"internalType": "address"
														},
														{
															"name": "encodedIPFSUri",
															"type": "bytes32",
															"internalType": "bytes32"
														},
														{
															"name": "category",
															"type": "uint24",
															"internalType": "uint24"
														},
														{
															"name": "allowOwnerMint",
															"type": "bool",
															"internalType": "bool"
														},
														{
															"name": "useReserveBeneficiaryAsDefault",
															"type": "bool",
															"internalType": "bool"
														},
														{
															"name": "transfersPausable",
															"type": "bool",
															"internalType": "bool"
														},
														{
															"name": "useVotingUnits",
															"type": "bool",
															"internalType": "bool"
														},
														{
															"name": "cannotBeRemoved",
															"type": "bool",
															"internalType": "bool"
														}
													]
												},
												{
													"name": "currency",
													"type": "uint32",
													"internalType": "uint32"
												},
												{
													"name": "decimals",
													"type": "uint8",
													"internalType": "uint8"
												},
												{
													"name": "prices",
													"type": "address",
													"internalType": "contract IJBPrices"
												}
											]
										},
										{
											"name": "reserveBeneficiary",
											"type": "address",
											"internalType": "address"
										},
										{
											"name": "flags",
											"type": "tuple",
											"internalType": "struct JB721TiersHookFlags",
											"components": [
												{
													"name": "noNewTiersWithReserves",
													"type": "bool",
													"internalType": "bool"
												},
												{
													"name": "noNewTiersWithVotes",
													"type": "bool",
													"internalType": "bool"
												},
												{
													"name": "noNewTiersWithOwnerMinting",
													"type": "bool",
													"internalType": "bool"
												},
												{
													"name": "preventOverspending",
													"type": "bool",
													"internalType": "bool"
												}
											]
										}
									]
								},
								{
									"name": "operatorCanAdjustTiers",
									"type": "bool",
									"internalType": "bool"
								},
								{
									"name": "operatorCanUpdateMetadata",
									"type": "bool",
									"internalType": "bool"
								},
								{
									"name": "operatorCanMint",
									"type": "bool",
									"internalType": "bool"
								}
							]
						},
						{
							"name": "otherPayHooksSpecifications",
							"type": "tuple[]",
							"internalType": "struct JBPayHookSpecification[]",
							"components": [
								{
									"name": "hook",
									"type": "address",
									"internalType": "contract IJBPayHook"
								},
								{
									"name": "amount",
									"type": "uint256",
									"internalType": "uint256"
								},
								{
									"name": "metadata",
									"type": "bytes",
									"internalType": "bytes"
								}
							]
						},
						{
							"name": "extraHookMetadata",
							"type": "uint16",
							"internalType": "uint16"
						},
						{
							"name": "allowedPosts",
							"type": "tuple[]",
							"internalType": "struct REVCroptopAllowedPost[]",
							"components": [
								{
									"name": "category",
									"type": "uint256",
									"internalType": "uint256"
								},
								{
									"name": "minimumPrice",
									"type": "uint256",
									"internalType": "uint256"
								},
								{
									"name": "minimumTotalSupply",
									"type": "uint256",
									"internalType": "uint256"
								},
								{
									"name": "maximumTotalSupply",
									"type": "uint256",
									"internalType": "uint256"
								},
								{
									"name": "allowedAddresses",
									"type": "address[]",
									"internalType": "address[]"
								}
							]
						}
					],
					"outputs": [
						{
							"name": "revnetId",
							"type": "uint256",
							"internalType": "uint256"
						},
						{
							"name": "hook",
							"type": "address",
							"internalType": "contract IJB721TiersHook"
						}
					],
					"stateMutability": "nonpayable"
				},
				{
					"type": "function",
					"name": "deployPayHookRevnetWith",
					"inputs": [
						{
							"name": "configuration",
							"type": "tuple",
							"internalType": "struct REVConfig",
							"components": [
								{
									"name": "description",
									"type": "tuple",
									"internalType": "struct REVDescription",
									"components": [
										{
											"name": "name",
											"type": "string",
											"internalType": "string"
										},
										{
											"name": "symbol",
											"type": "string",
											"internalType": "string"
										},
										{
											"name": "uri",
											"type": "string",
											"internalType": "string"
										},
										{
											"name": "salt",
											"type": "bytes32",
											"internalType": "bytes32"
										}
									]
								},
								{
									"name": "baseCurrency",
									"type": "uint32",
									"internalType": "uint32"
								},
								{
									"name": "premintTokenAmount",
									"type": "uint256",
									"internalType": "uint256"
								},
								{
									"name": "initialOperator",
									"type": "address",
									"internalType": "address"
								},
								{
									"name": "stageConfigurations",
									"type": "tuple[]",
									"internalType": "struct REVStageConfig[]",
									"components": [
										{
											"name": "startsAtOrAfter",
											"type": "uint40",
											"internalType": "uint40"
										},
										{
											"name": "operatorSplitRate",
											"type": "uint16",
											"internalType": "uint16"
										},
										{
											"name": "initialIssuanceRate",
											"type": "uint112",
											"internalType": "uint112"
										},
										{
											"name": "priceCeilingIncreaseFrequency",
											"type": "uint40",
											"internalType": "uint40"
										},
										{
											"name": "priceCeilingIncreasePercentage",
											"type": "uint32",
											"internalType": "uint32"
										},
										{
											"name": "priceFloorTaxIntensity",
											"type": "uint16",
											"internalType": "uint16"
										}
									]
								}
							]
						},
						{
							"name": "terminalConfigurations",
							"type": "tuple[]",
							"internalType": "struct JBTerminalConfig[]",
							"components": [
								{
									"name": "terminal",
									"type": "address",
									"internalType": "contract IJBTerminal"
								},
								{
									"name": "tokensToAccept",
									"type": "address[]",
									"internalType": "address[]"
								}
							]
						},
						{
							"name": "buybackHookConfiguration",
							"type": "tuple",
							"internalType": "struct REVBuybackHookConfig",
							"components": [
								{
									"name": "hook",
									"type": "address",
									"internalType": "contract IJBBuybackHook"
								},
								{
									"name": "poolConfigurations",
									"type": "tuple[]",
									"internalType": "struct REVBuybackPoolConfig[]",
									"components": [
										{
											"name": "token",
											"type": "address",
											"internalType": "address"
										},
										{
											"name": "fee",
											"type": "uint24",
											"internalType": "uint24"
										},
										{
											"name": "twapWindow",
											"type": "uint32",
											"internalType": "uint32"
										},
										{
											"name": "twapSlippageTolerance",
											"type": "uint32",
											"internalType": "uint32"
										}
									]
								}
							]
						},
						{
							"name": "suckerDeploymentConfiguration",
							"type": "tuple",
							"internalType": "struct REVSuckerDeploymentConfig",
							"components": [
								{
									"name": "deployerConfigurations",
									"type": "tuple[]",
									"internalType": "struct BPSuckerDeployerConfig[]",
									"components": [
										{
											"name": "deployer",
											"type": "address",
											"internalType": "contract IBPSuckerDeployer"
										},
										{
											"name": "mappings",
											"type": "tuple[]",
											"internalType": "struct BPTokenMapping[]",
											"components": [
												{
													"name": "localToken",
													"type": "address",
													"internalType": "address"
												},
												{
													"name": "minGas",
													"type": "uint32",
													"internalType": "uint32"
												},
												{
													"name": "remoteToken",
													"type": "address",
													"internalType": "address"
												},
												{
													"name": "minBridgeAmount",
													"type": "uint256",
													"internalType": "uint256"
												}
											]
										}
									]
								},
								{
									"name": "salt",
									"type": "bytes32",
									"internalType": "bytes32"
								}
							]
						},
						{
							"name": "payHookSpecifications",
							"type": "tuple[]",
							"internalType": "struct JBPayHookSpecification[]",
							"components": [
								{
									"name": "hook",
									"type": "address",
									"internalType": "contract IJBPayHook"
								},
								{
									"name": "amount",
									"type": "uint256",
									"internalType": "uint256"
								},
								{
									"name": "metadata",
									"type": "bytes",
									"internalType": "bytes"
								}
							]
						},
						{
							"name": "extraHookMetadata",
							"type": "uint16",
							"internalType": "uint16"
						}
					],
					"outputs": [
						{
							"name": "revnetId",
							"type": "uint256",
							"internalType": "uint256"
						}
					],
					"stateMutability": "nonpayable"
				},
				{
					"type": "function",
					"name": "deployRevnetWith",
					"inputs": [
						{
							"name": "configuration",
							"type": "tuple",
							"internalType": "struct REVConfig",
							"components": [
								{
									"name": "description",
									"type": "tuple",
									"internalType": "struct REVDescription",
									"components": [
										{
											"name": "name",
											"type": "string",
											"internalType": "string"
										},
										{
											"name": "symbol",
											"type": "string",
											"internalType": "string"
										},
										{
											"name": "uri",
											"type": "string",
											"internalType": "string"
										},
										{
											"name": "salt",
											"type": "bytes32",
											"internalType": "bytes32"
										}
									]
								},
								{
									"name": "baseCurrency",
									"type": "uint32",
									"internalType": "uint32"
								},
								{
									"name": "premintTokenAmount",
									"type": "uint256",
									"internalType": "uint256"
								},
								{
									"name": "initialOperator",
									"type": "address",
									"internalType": "address"
								},
								{
									"name": "stageConfigurations",
									"type": "tuple[]",
									"internalType": "struct REVStageConfig[]",
									"components": [
										{
											"name": "startsAtOrAfter",
											"type": "uint40",
											"internalType": "uint40"
										},
										{
											"name": "operatorSplitRate",
											"type": "uint16",
											"internalType": "uint16"
										},
										{
											"name": "initialIssuanceRate",
											"type": "uint112",
											"internalType": "uint112"
										},
										{
											"name": "priceCeilingIncreaseFrequency",
											"type": "uint40",
											"internalType": "uint40"
										},
										{
											"name": "priceCeilingIncreasePercentage",
											"type": "uint32",
											"internalType": "uint32"
										},
										{
											"name": "priceFloorTaxIntensity",
											"type": "uint16",
											"internalType": "uint16"
										}
									]
								}
							]
						},
						{
							"name": "terminalConfigurations",
							"type": "tuple[]",
							"internalType": "struct JBTerminalConfig[]",
							"components": [
								{
									"name": "terminal",
									"type": "address",
									"internalType": "contract IJBTerminal"
								},
								{
									"name": "tokensToAccept",
									"type": "address[]",
									"internalType": "address[]"
								}
							]
						},
						{
							"name": "buybackHookConfiguration",
							"type": "tuple",
							"internalType": "struct REVBuybackHookConfig",
							"components": [
								{
									"name": "hook",
									"type": "address",
									"internalType": "contract IJBBuybackHook"
								},
								{
									"name": "poolConfigurations",
									"type": "tuple[]",
									"internalType": "struct REVBuybackPoolConfig[]",
									"components": [
										{
											"name": "token",
											"type": "address",
											"internalType": "address"
										},
										{
											"name": "fee",
											"type": "uint24",
											"internalType": "uint24"
										},
										{
											"name": "twapWindow",
											"type": "uint32",
											"internalType": "uint32"
										},
										{
											"name": "twapSlippageTolerance",
											"type": "uint32",
											"internalType": "uint32"
										}
									]
								}
							]
						},
						{
							"name": "suckerDeploymentConfiguration",
							"type": "tuple",
							"internalType": "struct REVSuckerDeploymentConfig",
							"components": [
								{
									"name": "deployerConfigurations",
									"type": "tuple[]",
									"internalType": "struct BPSuckerDeployerConfig[]",
									"components": [
										{
											"name": "deployer",
											"type": "address",
											"internalType": "contract IBPSuckerDeployer"
										},
										{
											"name": "mappings",
											"type": "tuple[]",
											"internalType": "struct BPTokenMapping[]",
											"components": [
												{
													"name": "localToken",
													"type": "address",
													"internalType": "address"
												},
												{
													"name": "minGas",
													"type": "uint32",
													"internalType": "uint32"
												},
												{
													"name": "remoteToken",
													"type": "address",
													"internalType": "address"
												},
												{
													"name": "minBridgeAmount",
													"type": "uint256",
													"internalType": "uint256"
												}
											]
										}
									]
								},
								{
									"name": "salt",
									"type": "bytes32",
									"internalType": "bytes32"
								}
							]
						}
					],
					"outputs": [
						{
							"name": "revnetId",
							"type": "uint256",
							"internalType": "uint256"
						}
					],
					"stateMutability": "nonpayable"
				},
				{
					"type": "function",
					"name": "deploySuckersFor",
					"inputs": [
						{
							"name": "revnetId",
							"type": "uint256",
							"internalType": "uint256"
						},
						{
							"name": "encodedConfiguration",
							"type": "bytes",
							"internalType": "bytes"
						},
						{
							"name": "suckerDeploymentConfiguration",
							"type": "tuple",
							"internalType": "struct REVSuckerDeploymentConfig",
							"components": [
								{
									"name": "deployerConfigurations",
									"type": "tuple[]",
									"internalType": "struct BPSuckerDeployerConfig[]",
									"components": [
										{
											"name": "deployer",
											"type": "address",
											"internalType": "contract IBPSuckerDeployer"
										},
										{
											"name": "mappings",
											"type": "tuple[]",
											"internalType": "struct BPTokenMapping[]",
											"components": [
												{
													"name": "localToken",
													"type": "address",
													"internalType": "address"
												},
												{
													"name": "minGas",
													"type": "uint32",
													"internalType": "uint32"
												},
												{
													"name": "remoteToken",
													"type": "address",
													"internalType": "address"
												},
												{
													"name": "minBridgeAmount",
													"type": "uint256",
													"internalType": "uint256"
												}
											]
										}
									]
								},
								{
									"name": "salt",
									"type": "bytes32",
									"internalType": "bytes32"
								}
							]
						}
					],
					"outputs": [],
					"stateMutability": "nonpayable"
				},
				{
					"type": "function",
					"name": "deployTiered721RevnetWith",
					"inputs": [
						{
							"name": "configuration",
							"type": "tuple",
							"internalType": "struct REVConfig",
							"components": [
								{
									"name": "description",
									"type": "tuple",
									"internalType": "struct REVDescription",
									"components": [
										{
											"name": "name",
											"type": "string",
											"internalType": "string"
										},
										{
											"name": "symbol",
											"type": "string",
											"internalType": "string"
										},
										{
											"name": "uri",
											"type": "string",
											"internalType": "string"
										},
										{
											"name": "salt",
											"type": "bytes32",
											"internalType": "bytes32"
										}
									]
								},
								{
									"name": "baseCurrency",
									"type": "uint32",
									"internalType": "uint32"
								},
								{
									"name": "premintTokenAmount",
									"type": "uint256",
									"internalType": "uint256"
								},
								{
									"name": "initialOperator",
									"type": "address",
									"internalType": "address"
								},
								{
									"name": "stageConfigurations",
									"type": "tuple[]",
									"internalType": "struct REVStageConfig[]",
									"components": [
										{
											"name": "startsAtOrAfter",
											"type": "uint40",
											"internalType": "uint40"
										},
										{
											"name": "operatorSplitRate",
											"type": "uint16",
											"internalType": "uint16"
										},
										{
											"name": "initialIssuanceRate",
											"type": "uint112",
											"internalType": "uint112"
										},
										{
											"name": "priceCeilingIncreaseFrequency",
											"type": "uint40",
											"internalType": "uint40"
										},
										{
											"name": "priceCeilingIncreasePercentage",
											"type": "uint32",
											"internalType": "uint32"
										},
										{
											"name": "priceFloorTaxIntensity",
											"type": "uint16",
											"internalType": "uint16"
										}
									]
								}
							]
						},
						{
							"name": "terminalConfigurations",
							"type": "tuple[]",
							"internalType": "struct JBTerminalConfig[]",
							"components": [
								{
									"name": "terminal",
									"type": "address",
									"internalType": "contract IJBTerminal"
								},
								{
									"name": "tokensToAccept",
									"type": "address[]",
									"internalType": "address[]"
								}
							]
						},
						{
							"name": "buybackHookConfiguration",
							"type": "tuple",
							"internalType": "struct REVBuybackHookConfig",
							"components": [
								{
									"name": "hook",
									"type": "address",
									"internalType": "contract IJBBuybackHook"
								},
								{
									"name": "poolConfigurations",
									"type": "tuple[]",
									"internalType": "struct REVBuybackPoolConfig[]",
									"components": [
										{
											"name": "token",
											"type": "address",
											"internalType": "address"
										},
										{
											"name": "fee",
											"type": "uint24",
											"internalType": "uint24"
										},
										{
											"name": "twapWindow",
											"type": "uint32",
											"internalType": "uint32"
										},
										{
											"name": "twapSlippageTolerance",
											"type": "uint32",
											"internalType": "uint32"
										}
									]
								}
							]
						},
						{
							"name": "suckerDeploymentConfiguration",
							"type": "tuple",
							"internalType": "struct REVSuckerDeploymentConfig",
							"components": [
								{
									"name": "deployerConfigurations",
									"type": "tuple[]",
									"internalType": "struct BPSuckerDeployerConfig[]",
									"components": [
										{
											"name": "deployer",
											"type": "address",
											"internalType": "contract IBPSuckerDeployer"
										},
										{
											"name": "mappings",
											"type": "tuple[]",
											"internalType": "struct BPTokenMapping[]",
											"components": [
												{
													"name": "localToken",
													"type": "address",
													"internalType": "address"
												},
												{
													"name": "minGas",
													"type": "uint32",
													"internalType": "uint32"
												},
												{
													"name": "remoteToken",
													"type": "address",
													"internalType": "address"
												},
												{
													"name": "minBridgeAmount",
													"type": "uint256",
													"internalType": "uint256"
												}
											]
										}
									]
								},
								{
									"name": "salt",
									"type": "bytes32",
									"internalType": "bytes32"
								}
							]
						},
						{
							"name": "hookConfiguration",
							"type": "tuple",
							"internalType": "struct REVDeploy721TiersHookConfig",
							"components": [
								{
									"name": "baseline721HookConfiguration",
									"type": "tuple",
									"internalType": "struct JBDeploy721TiersHookConfig",
									"components": [
										{
											"name": "name",
											"type": "string",
											"internalType": "string"
										},
										{
											"name": "symbol",
											"type": "string",
											"internalType": "string"
										},
										{
											"name": "rulesets",
											"type": "address",
											"internalType": "contract IJBRulesets"
										},
										{
											"name": "baseUri",
											"type": "string",
											"internalType": "string"
										},
										{
											"name": "tokenUriResolver",
											"type": "address",
											"internalType": "contract IJB721TokenUriResolver"
										},
										{
											"name": "contractUri",
											"type": "string",
											"internalType": "string"
										},
										{
											"name": "tiersConfig",
											"type": "tuple",
											"internalType": "struct JB721InitTiersConfig",
											"components": [
												{
													"name": "tiers",
													"type": "tuple[]",
													"internalType": "struct JB721TierConfig[]",
													"components": [
														{
															"name": "price",
															"type": "uint104",
															"internalType": "uint104"
														},
														{
															"name": "initialSupply",
															"type": "uint32",
															"internalType": "uint32"
														},
														{
															"name": "votingUnits",
															"type": "uint32",
															"internalType": "uint32"
														},
														{
															"name": "reserveFrequency",
															"type": "uint16",
															"internalType": "uint16"
														},
														{
															"name": "reserveBeneficiary",
															"type": "address",
															"internalType": "address"
														},
														{
															"name": "encodedIPFSUri",
															"type": "bytes32",
															"internalType": "bytes32"
														},
														{
															"name": "category",
															"type": "uint24",
															"internalType": "uint24"
														},
														{
															"name": "allowOwnerMint",
															"type": "bool",
															"internalType": "bool"
														},
														{
															"name": "useReserveBeneficiaryAsDefault",
															"type": "bool",
															"internalType": "bool"
														},
														{
															"name": "transfersPausable",
															"type": "bool",
															"internalType": "bool"
														},
														{
															"name": "useVotingUnits",
															"type": "bool",
															"internalType": "bool"
														},
														{
															"name": "cannotBeRemoved",
															"type": "bool",
															"internalType": "bool"
														}
													]
												},
												{
													"name": "currency",
													"type": "uint32",
													"internalType": "uint32"
												},
												{
													"name": "decimals",
													"type": "uint8",
													"internalType": "uint8"
												},
												{
													"name": "prices",
													"type": "address",
													"internalType": "contract IJBPrices"
												}
											]
										},
										{
											"name": "reserveBeneficiary",
											"type": "address",
											"internalType": "address"
										},
										{
											"name": "flags",
											"type": "tuple",
											"internalType": "struct JB721TiersHookFlags",
											"components": [
												{
													"name": "noNewTiersWithReserves",
													"type": "bool",
													"internalType": "bool"
												},
												{
													"name": "noNewTiersWithVotes",
													"type": "bool",
													"internalType": "bool"
												},
												{
													"name": "noNewTiersWithOwnerMinting",
													"type": "bool",
													"internalType": "bool"
												},
												{
													"name": "preventOverspending",
													"type": "bool",
													"internalType": "bool"
												}
											]
										}
									]
								},
								{
									"name": "operatorCanAdjustTiers",
									"type": "bool",
									"internalType": "bool"
								},
								{
									"name": "operatorCanUpdateMetadata",
									"type": "bool",
									"internalType": "bool"
								},
								{
									"name": "operatorCanMint",
									"type": "bool",
									"internalType": "bool"
								}
							]
						},
						{
							"name": "otherPayHooksSpecifications",
							"type": "tuple[]",
							"internalType": "struct JBPayHookSpecification[]",
							"components": [
								{
									"name": "hook",
									"type": "address",
									"internalType": "contract IJBPayHook"
								},
								{
									"name": "amount",
									"type": "uint256",
									"internalType": "uint256"
								},
								{
									"name": "metadata",
									"type": "bytes",
									"internalType": "bytes"
								}
							]
						},
						{
							"name": "extraHookMetadata",
							"type": "uint16",
							"internalType": "uint16"
						}
					],
					"outputs": [
						{
							"name": "revnetId",
							"type": "uint256",
							"internalType": "uint256"
						},
						{
							"name": "hook",
							"type": "address",
							"internalType": "contract IJB721TiersHook"
						}
					],
					"stateMutability": "nonpayable"
				},
				{
					"type": "function",
					"name": "exitDelayOf",
					"inputs": [
						{
							"name": "revnetId",
							"type": "uint256",
							"internalType": "uint256"
						}
					],
					"outputs": [
						{
							"name": "exitDelay",
							"type": "uint256",
							"internalType": "uint256"
						}
					],
					"stateMutability": "view"
				},
				{
					"type": "function",
					"name": "hasMintPermissionFor",
					"inputs": [
						{
							"name": "revnetId",
							"type": "uint256",
							"internalType": "uint256"
						},
						{
							"name": "addr",
							"type": "address",
							"internalType": "address"
						}
					],
					"outputs": [
						{
							"name": "",
							"type": "bool",
							"internalType": "bool"
						}
					],
					"stateMutability": "view"
				},
				{
					"type": "function",
					"name": "onERC721Received",
					"inputs": [
						{
							"name": "operator",
							"type": "address",
							"internalType": "address"
						},
						{
							"name": "from",
							"type": "address",
							"internalType": "address"
						},
						{
							"name": "tokenId",
							"type": "uint256",
							"internalType": "uint256"
						},
						{
							"name": "data",
							"type": "bytes",
							"internalType": "bytes"
						}
					],
					"outputs": [
						{
							"name": "",
							"type": "bytes4",
							"internalType": "bytes4"
						}
					],
					"stateMutability": "view"
				},
				{
					"type": "function",
					"name": "payHookSpecificationsOf",
					"inputs": [
						{
							"name": "revnetId",
							"type": "uint256",
							"internalType": "uint256"
						}
					],
					"outputs": [
						{
							"name": "",
							"type": "tuple[]",
							"internalType": "struct JBPayHookSpecification[]",
							"components": [
								{
									"name": "hook",
									"type": "address",
									"internalType": "contract IJBPayHook"
								},
								{
									"name": "amount",
									"type": "uint256",
									"internalType": "uint256"
								},
								{
									"name": "metadata",
									"type": "bytes",
									"internalType": "bytes"
								}
							]
						}
					],
					"stateMutability": "view"
				},
				{
					"type": "function",
					"name": "replaceOperatorOf",
					"inputs": [
						{
							"name": "revnetId",
							"type": "uint256",
							"internalType": "uint256"
						},
						{
							"name": "newOperator",
							"type": "address",
							"internalType": "address"
						}
					],
					"outputs": [],
					"stateMutability": "nonpayable"
				},
				{
					"type": "function",
					"name": "supportsInterface",
					"inputs": [
						{
							"name": "interfaceId",
							"type": "bytes4",
							"internalType": "bytes4"
						}
					],
					"outputs": [
						{
							"name": "",
							"type": "bool",
							"internalType": "bool"
						}
					],
					"stateMutability": "view"
				},
				{
					"type": "error",
					"name": "REVBasicDeployer_ExitDelayInEffect",
					"inputs": []
				},
				{
					"type": "error",
					"name": "REVBasicDeployer_Unauthorized",
					"inputs": []
				}
			],
			"solcInputHash": "755eaa4b05c760d07dfe902eb8cdf8f4",
			"receipt": {
				"blockHash": "0x00e15354ffc22016ab692f1b8bec5b4fa5731ea638d1eba8a07216bd5ca1b1da",
				"blockNumber": 9238444,
				"contractAddress": null,
				"cumulativeGasUsed": "10041124",
				"from": "0xC034550B542b83BA1De312b21d1C94a9a52B1595",
				"gasPrice": "1000252",
				"gasUsed": "9447439",
				"hash": "0x6fb2e822de5a1d6fc2a26db63f9f761026022d5f3543548d3624aa73a8245f49",
				"index": 6,
				"logs": [
					{
						"address": "0xB5E96127D417b1B3ef8438496a38A143167209c7",
						"blockHash": "0x00e15354ffc22016ab692f1b8bec5b4fa5731ea638d1eba8a07216bd5ca1b1da",
						"blockNumber": 9238444,
						"data": "0x0000000000000000000000000000000000000000000000000000000000000000",
						"index": 13,
						"topics": [
							"0x572f161235911da04685a68c06adf558fc7e4a36909dca394650e0adc19cc93d",
							"0x000000000000000000000000c034550b542b83ba1de312b21d1c94a9a52b1595",
							"0x00000000000000000000000018ed911dda49f125bbadd71f826f1cda550f20fe",
							"0x904ea3d47228fac9c724598ab79f02cd9d3db80bc493ea84756ab1f0b2c4af9a"
						],
						"transactionHash": "0x6fb2e822de5a1d6fc2a26db63f9f761026022d5f3543548d3624aa73a8245f49",
						"transactionIndex": 6
					},
					{
						"address": "0x15B51C7D9DBc4681e54f8b493187C9a2377bd81B",
						"blockHash": "0x00e15354ffc22016ab692f1b8bec5b4fa5731ea638d1eba8a07216bd5ca1b1da",
						"blockNumber": 9238444,
						"data": "0x",
						"index": 14,
						"topics": [
							"0x6895c13664aa4f67288b25d7a21d7aaa34916e355fb9b6fae0a139a9085becb8",
							"0x00000000000000000000000018ed911dda49f125bbadd71f826f1cda550f20fe"
						],
						"transactionHash": "0x6fb2e822de5a1d6fc2a26db63f9f761026022d5f3543548d3624aa73a8245f49",
						"transactionIndex": 6
					},
					{
						"address": "0x18Ed911ddA49f125bbadd71f826F1cDa550f20fE",
						"blockHash": "0x00e15354ffc22016ab692f1b8bec5b4fa5731ea638d1eba8a07216bd5ca1b1da",
						"blockNumber": 9238444,
						"data": "0x0000000000000000000000000000000000000000000000000000000000000001",
						"index": 15,
						"topics": [
							"0xa65fb05c5808f5f389d72edeaf719ce38f4cc55c1f69ca3cbfb31c21501caa07",
							"0xd4471c8ae6e1babf0e4157b34143d8db15017448ffd6e7f1d172f37fd4d7b9bd"
						],
						"transactionHash": "0x6fb2e822de5a1d6fc2a26db63f9f761026022d5f3543548d3624aa73a8245f49",
						"transactionIndex": 6
					},
					{
						"address": "0x15B51C7D9DBc4681e54f8b493187C9a2377bd81B",
						"blockHash": "0x00e15354ffc22016ab692f1b8bec5b4fa5731ea638d1eba8a07216bd5ca1b1da",
						"blockNumber": 9238444,
						"data": "0x",
						"index": 16,
						"topics": [
							"0x6895c13664aa4f67288b25d7a21d7aaa34916e355fb9b6fae0a139a9085becb8",
							"0x00000000000000000000000018ed911dda49f125bbadd71f826f1cda550f20fe"
						],
						"transactionHash": "0x6fb2e822de5a1d6fc2a26db63f9f761026022d5f3543548d3624aa73a8245f49",
						"transactionIndex": 6
					},
					{
						"address": "0x18Ed911ddA49f125bbadd71f826F1cDa550f20fE",
						"blockHash": "0x00e15354ffc22016ab692f1b8bec5b4fa5731ea638d1eba8a07216bd5ca1b1da",
						"blockNumber": 9238444,
						"data": "0x0000000000000000000000000000000000000000000000000000000000000002",
						"index": 17,
						"topics": [
							"0xa65fb05c5808f5f389d72edeaf719ce38f4cc55c1f69ca3cbfb31c21501caa07",
							"0xd4471c8ae6e1babf0e4157b34143d8db15017448ffd6e7f1d172f37fd4d7b9bd"
						],
						"transactionHash": "0x6fb2e822de5a1d6fc2a26db63f9f761026022d5f3543548d3624aa73a8245f49",
						"transactionIndex": 6
					},
					{
						"address": "0x18Ed911ddA49f125bbadd71f826F1cDa550f20fE",
						"blockHash": "0x00e15354ffc22016ab692f1b8bec5b4fa5731ea638d1eba8a07216bd5ca1b1da",
						"blockNumber": 9238444,
						"data": "0x",
						"index": 18,
						"topics": [
							"0x4383d976757d67ca920616be0b6430a681ea9d3dcce8d6d61d4603ca4a9bff63",
							"0xd4471c8ae6e1babf0e4157b34143d8db15017448ffd6e7f1d172f37fd4d7b9bd"
						],
						"transactionHash": "0x6fb2e822de5a1d6fc2a26db63f9f761026022d5f3543548d3624aa73a8245f49",
						"transactionIndex": 6
					}
				],
				"logsBloom": "0x00000000080010001000000000080000000000000008800000000000004000000000000000000000000000001040000000000004000004000000000000000008100000000000200000000000000000000000000000000000000000000000000000000000000000000400000000000000000000000000000800000000000000000000000000000000000100000000000000000000000000000000008000000000004000800010000000000000000001020200000000000000000000000044000000100000000000000000000008000000000000000000000000000000000000010000000000000008004000000000000200000000000000000000000008000000",
				"status": 1,
				"to": "0xB5E96127D417b1B3ef8438496a38A143167209c7"
			},
			"metadata": "{\"compiler\":{\"version\":\"0.8.23+commit.f704f362\"},\"language\":\"Solidity\",\"output\":{\"abi\":[{\"inputs\":[{\"internalType\":\"contract IJBController\",\"name\":\"controller\",\"type\":\"address\"},{\"internalType\":\"contract IJB721TiersHookDeployer\",\"name\":\"hookDeployer\",\"type\":\"address\"},{\"internalType\":\"contract CTPublisher\",\"name\":\"publisher\",\"type\":\"address\"},{\"internalType\":\"contract IBPSuckerRegistry\",\"name\":\"suckerRegistry\",\"type\":\"address\"}],\"stateMutability\":\"nonpayable\",\"type\":\"constructor\"},{\"inputs\":[],\"type\":\"error\",\"name\":\"REVBasicDeployer_ExitDelayInEffect\"},{\"inputs\":[],\"type\":\"error\",\"name\":\"REVBasicDeployer_Unauthorized\"},{\"inputs\":[],\"stateMutability\":\"view\",\"type\":\"function\",\"name\":\"CONTROLLER\",\"outputs\":[{\"internalType\":\"contract IJBController\",\"name\":\"\",\"type\":\"address\"}]},{\"inputs\":[],\"stateMutability\":\"view\",\"type\":\"function\",\"name\":\"EXIT_DELAY\",\"outputs\":[{\"internalType\":\"uint256\",\"name\":\"\",\"type\":\"uint256\"}]},{\"inputs\":[],\"stateMutability\":\"view\",\"type\":\"function\",\"name\":\"HOOK_DEPLOYER\",\"outputs\":[{\"internalType\":\"contract IJB721TiersHookDeployer\",\"name\":\"\",\"type\":\"address\"}]},{\"inputs\":[],\"stateMutability\":\"view\",\"type\":\"function\",\"name\":\"PUBLISHER\",\"outputs\":[{\"internalType\":\"contract CTPublisher\",\"name\":\"\",\"type\":\"address\"}]},{\"inputs\":[],\"stateMutability\":\"view\",\"type\":\"function\",\"name\":\"SUCKER_REGISTRY\",\"outputs\":[{\"internalType\":\"contract IBPSuckerRegistry\",\"name\":\"\",\"type\":\"address\"}]},{\"inputs\":[{\"internalType\":\"struct JBBeforePayRecordedContext\",\"name\":\"context\",\"type\":\"tuple\",\"components\":[{\"internalType\":\"address\",\"name\":\"terminal\",\"type\":\"address\"},{\"internalType\":\"address\",\"name\":\"payer\",\"type\":\"address\"},{\"internalType\":\"struct JBTokenAmount\",\"name\":\"amount\",\"type\":\"tuple\",\"components\":[{\"internalType\":\"address\",\"name\":\"token\",\"type\":\"address\"},{\"internalType\":\"uint256\",\"name\":\"value\",\"type\":\"uint256\"},{\"internalType\":\"uint256\",\"name\":\"decimals\",\"type\":\"uint256\"},{\"internalType\":\"uint256\",\"name\":\"currency\",\"type\":\"uint256\"}]},{\"internalType\":\"uint256\",\"name\":\"projectId\",\"type\":\"uint256\"},{\"internalType\":\"uint256\",\"name\":\"rulesetId\",\"type\":\"uint256\"},{\"internalType\":\"address\",\"name\":\"beneficiary\",\"type\":\"address\"},{\"internalType\":\"uint256\",\"name\":\"weight\",\"type\":\"uint256\"},{\"internalType\":\"uint256\",\"name\":\"reservedRate\",\"type\":\"uint256\"},{\"internalType\":\"bytes\",\"name\":\"metadata\",\"type\":\"bytes\"}]}],\"stateMutability\":\"view\",\"type\":\"function\",\"name\":\"beforePayRecordedWith\",\"outputs\":[{\"internalType\":\"uint256\",\"name\":\"weight\",\"type\":\"uint256\"},{\"internalType\":\"struct JBPayHookSpecification[]\",\"name\":\"hookSpecifications\",\"type\":\"tuple[]\",\"components\":[{\"internalType\":\"contract IJBPayHook\",\"name\":\"hook\",\"type\":\"address\"},{\"internalType\":\"uint256\",\"name\":\"amount\",\"type\":\"uint256\"},{\"internalType\":\"bytes\",\"name\":\"metadata\",\"type\":\"bytes\"}]}]},{\"inputs\":[{\"internalType\":\"struct JBBeforeRedeemRecordedContext\",\"name\":\"context\",\"type\":\"tuple\",\"components\":[{\"internalType\":\"address\",\"name\":\"terminal\",\"type\":\"address\"},{\"internalType\":\"address\",\"name\":\"holder\",\"type\":\"address\"},{\"internalType\":\"uint256\",\"name\":\"projectId\",\"type\":\"uint256\"},{\"internalType\":\"uint256\",\"name\":\"rulesetId\",\"type\":\"uint256\"},{\"internalType\":\"uint256\",\"name\":\"redeemCount\",\"type\":\"uint256\"},{\"internalType\":\"uint256\",\"name\":\"totalSupply\",\"type\":\"uint256\"},{\"internalType\":\"struct JBTokenAmount\",\"name\":\"surplus\",\"type\":\"tuple\",\"components\":[{\"internalType\":\"address\",\"name\":\"token\",\"type\":\"address\"},{\"internalType\":\"uint256\",\"name\":\"value\",\"type\":\"uint256\"},{\"internalType\":\"uint256\",\"name\":\"decimals\",\"type\":\"uint256\"},{\"internalType\":\"uint256\",\"name\":\"currency\",\"type\":\"uint256\"}]},{\"internalType\":\"bool\",\"name\":\"useTotalSurplus\",\"type\":\"bool\"},{\"internalType\":\"uint256\",\"name\":\"redemptionRate\",\"type\":\"uint256\"},{\"internalType\":\"bytes\",\"name\":\"metadata\",\"type\":\"bytes\"}]}],\"stateMutability\":\"view\",\"type\":\"function\",\"name\":\"beforeRedeemRecordedWith\",\"outputs\":[{\"internalType\":\"uint256\",\"name\":\"\",\"type\":\"uint256\"},{\"internalType\":\"uint256\",\"name\":\"\",\"type\":\"uint256\"},{\"internalType\":\"uint256\",\"name\":\"\",\"type\":\"uint256\"},{\"internalType\":\"struct JBRedeemHookSpecification[]\",\"name\":\"specifications\",\"type\":\"tuple[]\",\"components\":[{\"internalType\":\"contract IJBRedeemHook\",\"name\":\"hook\",\"type\":\"address\"},{\"internalType\":\"uint256\",\"name\":\"amount\",\"type\":\"uint256\"},{\"internalType\":\"bytes\",\"name\":\"metadata\",\"type\":\"bytes\"}]}]},{\"inputs\":[{\"internalType\":\"uint256\",\"name\":\"revnetId\",\"type\":\"uint256\"}],\"stateMutability\":\"view\",\"type\":\"function\",\"name\":\"buybackHookOf\",\"outputs\":[{\"internalType\":\"contract IJBRulesetDataHook\",\"name\":\"buybackHook\",\"type\":\"address\"}]},{\"inputs\":[{\"internalType\":\"struct REVConfig\",\"name\":\"configuration\",\"type\":\"tuple\",\"components\":[{\"internalType\":\"struct REVDescription\",\"name\":\"description\",\"type\":\"tuple\",\"components\":[{\"internalType\":\"string\",\"name\":\"name\",\"type\":\"string\"},{\"internalType\":\"string\",\"name\":\"symbol\",\"type\":\"string\"},{\"internalType\":\"string\",\"name\":\"uri\",\"type\":\"string\"},{\"internalType\":\"bytes32\",\"name\":\"salt\",\"type\":\"bytes32\"}]},{\"internalType\":\"uint32\",\"name\":\"baseCurrency\",\"type\":\"uint32\"},{\"internalType\":\"uint256\",\"name\":\"premintTokenAmount\",\"type\":\"uint256\"},{\"internalType\":\"address\",\"name\":\"initialOperator\",\"type\":\"address\"},{\"internalType\":\"struct REVStageConfig[]\",\"name\":\"stageConfigurations\",\"type\":\"tuple[]\",\"components\":[{\"internalType\":\"uint40\",\"name\":\"startsAtOrAfter\",\"type\":\"uint40\"},{\"internalType\":\"uint16\",\"name\":\"operatorSplitRate\",\"type\":\"uint16\"},{\"internalType\":\"uint112\",\"name\":\"initialIssuanceRate\",\"type\":\"uint112\"},{\"internalType\":\"uint40\",\"name\":\"priceCeilingIncreaseFrequency\",\"type\":\"uint40\"},{\"internalType\":\"uint32\",\"name\":\"priceCeilingIncreasePercentage\",\"type\":\"uint32\"},{\"internalType\":\"uint16\",\"name\":\"priceFloorTaxIntensity\",\"type\":\"uint16\"}]}]},{\"internalType\":\"struct JBTerminalConfig[]\",\"name\":\"terminalConfigurations\",\"type\":\"tuple[]\",\"components\":[{\"internalType\":\"contract IJBTerminal\",\"name\":\"terminal\",\"type\":\"address\"},{\"internalType\":\"address[]\",\"name\":\"tokensToAccept\",\"type\":\"address[]\"}]},{\"internalType\":\"struct REVBuybackHookConfig\",\"name\":\"buybackHookConfiguration\",\"type\":\"tuple\",\"components\":[{\"internalType\":\"contract IJBBuybackHook\",\"name\":\"hook\",\"type\":\"address\"},{\"internalType\":\"struct REVBuybackPoolConfig[]\",\"name\":\"poolConfigurations\",\"type\":\"tuple[]\",\"components\":[{\"internalType\":\"address\",\"name\":\"token\",\"type\":\"address\"},{\"internalType\":\"uint24\",\"name\":\"fee\",\"type\":\"uint24\"},{\"internalType\":\"uint32\",\"name\":\"twapWindow\",\"type\":\"uint32\"},{\"internalType\":\"uint32\",\"name\":\"twapSlippageTolerance\",\"type\":\"uint32\"}]}]},{\"internalType\":\"struct REVSuckerDeploymentConfig\",\"name\":\"suckerDeploymentConfiguration\",\"type\":\"tuple\",\"components\":[{\"internalType\":\"struct BPSuckerDeployerConfig[]\",\"name\":\"deployerConfigurations\",\"type\":\"tuple[]\",\"components\":[{\"internalType\":\"contract IBPSuckerDeployer\",\"name\":\"deployer\",\"type\":\"address\"},{\"internalType\":\"struct BPTokenMapping[]\",\"name\":\"mappings\",\"type\":\"tuple[]\",\"components\":[{\"internalType\":\"address\",\"name\":\"localToken\",\"type\":\"address\"},{\"internalType\":\"uint32\",\"name\":\"minGas\",\"type\":\"uint32\"},{\"internalType\":\"address\",\"name\":\"remoteToken\",\"type\":\"address\"},{\"internalType\":\"uint256\",\"name\":\"minBridgeAmount\",\"type\":\"uint256\"}]}]},{\"internalType\":\"bytes32\",\"name\":\"salt\",\"type\":\"bytes32\"}]},{\"internalType\":\"struct REVDeploy721TiersHookConfig\",\"name\":\"hookConfiguration\",\"type\":\"tuple\",\"components\":[{\"internalType\":\"struct JBDeploy721TiersHookConfig\",\"name\":\"baseline721HookConfiguration\",\"type\":\"tuple\",\"components\":[{\"internalType\":\"string\",\"name\":\"name\",\"type\":\"string\"},{\"internalType\":\"string\",\"name\":\"symbol\",\"type\":\"string\"},{\"internalType\":\"contract IJBRulesets\",\"name\":\"rulesets\",\"type\":\"address\"},{\"internalType\":\"string\",\"name\":\"baseUri\",\"type\":\"string\"},{\"internalType\":\"contract IJB721TokenUriResolver\",\"name\":\"tokenUriResolver\",\"type\":\"address\"},{\"internalType\":\"string\",\"name\":\"contractUri\",\"type\":\"string\"},{\"internalType\":\"struct JB721InitTiersConfig\",\"name\":\"tiersConfig\",\"type\":\"tuple\",\"components\":[{\"internalType\":\"struct JB721TierConfig[]\",\"name\":\"tiers\",\"type\":\"tuple[]\",\"components\":[{\"internalType\":\"uint104\",\"name\":\"price\",\"type\":\"uint104\"},{\"internalType\":\"uint32\",\"name\":\"initialSupply\",\"type\":\"uint32\"},{\"internalType\":\"uint32\",\"name\":\"votingUnits\",\"type\":\"uint32\"},{\"internalType\":\"uint16\",\"name\":\"reserveFrequency\",\"type\":\"uint16\"},{\"internalType\":\"address\",\"name\":\"reserveBeneficiary\",\"type\":\"address\"},{\"internalType\":\"bytes32\",\"name\":\"encodedIPFSUri\",\"type\":\"bytes32\"},{\"internalType\":\"uint24\",\"name\":\"category\",\"type\":\"uint24\"},{\"internalType\":\"bool\",\"name\":\"allowOwnerMint\",\"type\":\"bool\"},{\"internalType\":\"bool\",\"name\":\"useReserveBeneficiaryAsDefault\",\"type\":\"bool\"},{\"internalType\":\"bool\",\"name\":\"transfersPausable\",\"type\":\"bool\"},{\"internalType\":\"bool\",\"name\":\"useVotingUnits\",\"type\":\"bool\"},{\"internalType\":\"bool\",\"name\":\"cannotBeRemoved\",\"type\":\"bool\"}]},{\"internalType\":\"uint32\",\"name\":\"currency\",\"type\":\"uint32\"},{\"internalType\":\"uint8\",\"name\":\"decimals\",\"type\":\"uint8\"},{\"internalType\":\"contract IJBPrices\",\"name\":\"prices\",\"type\":\"address\"}]},{\"internalType\":\"address\",\"name\":\"reserveBeneficiary\",\"type\":\"address\"},{\"internalType\":\"struct JB721TiersHookFlags\",\"name\":\"flags\",\"type\":\"tuple\",\"components\":[{\"internalType\":\"bool\",\"name\":\"noNewTiersWithReserves\",\"type\":\"bool\"},{\"internalType\":\"bool\",\"name\":\"noNewTiersWithVotes\",\"type\":\"bool\"},{\"internalType\":\"bool\",\"name\":\"noNewTiersWithOwnerMinting\",\"type\":\"bool\"},{\"internalType\":\"bool\",\"name\":\"preventOverspending\",\"type\":\"bool\"}]}]},{\"internalType\":\"bool\",\"name\":\"operatorCanAdjustTiers\",\"type\":\"bool\"},{\"internalType\":\"bool\",\"name\":\"operatorCanUpdateMetadata\",\"type\":\"bool\"},{\"internalType\":\"bool\",\"name\":\"operatorCanMint\",\"type\":\"bool\"}]},{\"internalType\":\"struct JBPayHookSpecification[]\",\"name\":\"otherPayHooksSpecifications\",\"type\":\"tuple[]\",\"components\":[{\"internalType\":\"contract IJBPayHook\",\"name\":\"hook\",\"type\":\"address\"},{\"internalType\":\"uint256\",\"name\":\"amount\",\"type\":\"uint256\"},{\"internalType\":\"bytes\",\"name\":\"metadata\",\"type\":\"bytes\"}]},{\"internalType\":\"uint16\",\"name\":\"extraHookMetadata\",\"type\":\"uint16\"},{\"internalType\":\"struct REVCroptopAllowedPost[]\",\"name\":\"allowedPosts\",\"type\":\"tuple[]\",\"components\":[{\"internalType\":\"uint256\",\"name\":\"category\",\"type\":\"uint256\"},{\"internalType\":\"uint256\",\"name\":\"minimumPrice\",\"type\":\"uint256\"},{\"internalType\":\"uint256\",\"name\":\"minimumTotalSupply\",\"type\":\"uint256\"},{\"internalType\":\"uint256\",\"name\":\"maximumTotalSupply\",\"type\":\"uint256\"},{\"internalType\":\"address[]\",\"name\":\"allowedAddresses\",\"type\":\"address[]\"}]}],\"stateMutability\":\"nonpayable\",\"type\":\"function\",\"name\":\"deployCroptopRevnetWith\",\"outputs\":[{\"internalType\":\"uint256\",\"name\":\"revnetId\",\"type\":\"uint256\"},{\"internalType\":\"contract IJB721TiersHook\",\"name\":\"hook\",\"type\":\"address\"}]},{\"inputs\":[{\"internalType\":\"struct REVConfig\",\"name\":\"configuration\",\"type\":\"tuple\",\"components\":[{\"internalType\":\"struct REVDescription\",\"name\":\"description\",\"type\":\"tuple\",\"components\":[{\"internalType\":\"string\",\"name\":\"name\",\"type\":\"string\"},{\"internalType\":\"string\",\"name\":\"symbol\",\"type\":\"string\"},{\"internalType\":\"string\",\"name\":\"uri\",\"type\":\"string\"},{\"internalType\":\"bytes32\",\"name\":\"salt\",\"type\":\"bytes32\"}]},{\"internalType\":\"uint32\",\"name\":\"baseCurrency\",\"type\":\"uint32\"},{\"internalType\":\"uint256\",\"name\":\"premintTokenAmount\",\"type\":\"uint256\"},{\"internalType\":\"address\",\"name\":\"initialOperator\",\"type\":\"address\"},{\"internalType\":\"struct REVStageConfig[]\",\"name\":\"stageConfigurations\",\"type\":\"tuple[]\",\"components\":[{\"internalType\":\"uint40\",\"name\":\"startsAtOrAfter\",\"type\":\"uint40\"},{\"internalType\":\"uint16\",\"name\":\"operatorSplitRate\",\"type\":\"uint16\"},{\"internalType\":\"uint112\",\"name\":\"initialIssuanceRate\",\"type\":\"uint112\"},{\"internalType\":\"uint40\",\"name\":\"priceCeilingIncreaseFrequency\",\"type\":\"uint40\"},{\"internalType\":\"uint32\",\"name\":\"priceCeilingIncreasePercentage\",\"type\":\"uint32\"},{\"internalType\":\"uint16\",\"name\":\"priceFloorTaxIntensity\",\"type\":\"uint16\"}]}]},{\"internalType\":\"struct JBTerminalConfig[]\",\"name\":\"terminalConfigurations\",\"type\":\"tuple[]\",\"components\":[{\"internalType\":\"contract IJBTerminal\",\"name\":\"terminal\",\"type\":\"address\"},{\"internalType\":\"address[]\",\"name\":\"tokensToAccept\",\"type\":\"address[]\"}]},{\"internalType\":\"struct REVBuybackHookConfig\",\"name\":\"buybackHookConfiguration\",\"type\":\"tuple\",\"components\":[{\"internalType\":\"contract IJBBuybackHook\",\"name\":\"hook\",\"type\":\"address\"},{\"internalType\":\"struct REVBuybackPoolConfig[]\",\"name\":\"poolConfigurations\",\"type\":\"tuple[]\",\"components\":[{\"internalType\":\"address\",\"name\":\"token\",\"type\":\"address\"},{\"internalType\":\"uint24\",\"name\":\"fee\",\"type\":\"uint24\"},{\"internalType\":\"uint32\",\"name\":\"twapWindow\",\"type\":\"uint32\"},{\"internalType\":\"uint32\",\"name\":\"twapSlippageTolerance\",\"type\":\"uint32\"}]}]},{\"internalType\":\"struct REVSuckerDeploymentConfig\",\"name\":\"suckerDeploymentConfiguration\",\"type\":\"tuple\",\"components\":[{\"internalType\":\"struct BPSuckerDeployerConfig[]\",\"name\":\"deployerConfigurations\",\"type\":\"tuple[]\",\"components\":[{\"internalType\":\"contract IBPSuckerDeployer\",\"name\":\"deployer\",\"type\":\"address\"},{\"internalType\":\"struct BPTokenMapping[]\",\"name\":\"mappings\",\"type\":\"tuple[]\",\"components\":[{\"internalType\":\"address\",\"name\":\"localToken\",\"type\":\"address\"},{\"internalType\":\"uint32\",\"name\":\"minGas\",\"type\":\"uint32\"},{\"internalType\":\"address\",\"name\":\"remoteToken\",\"type\":\"address\"},{\"internalType\":\"uint256\",\"name\":\"minBridgeAmount\",\"type\":\"uint256\"}]}]},{\"internalType\":\"bytes32\",\"name\":\"salt\",\"type\":\"bytes32\"}]},{\"internalType\":\"struct JBPayHookSpecification[]\",\"name\":\"payHookSpecifications\",\"type\":\"tuple[]\",\"components\":[{\"internalType\":\"contract IJBPayHook\",\"name\":\"hook\",\"type\":\"address\"},{\"internalType\":\"uint256\",\"name\":\"amount\",\"type\":\"uint256\"},{\"internalType\":\"bytes\",\"name\":\"metadata\",\"type\":\"bytes\"}]},{\"internalType\":\"uint16\",\"name\":\"extraHookMetadata\",\"type\":\"uint16\"}],\"stateMutability\":\"nonpayable\",\"type\":\"function\",\"name\":\"deployPayHookRevnetWith\",\"outputs\":[{\"internalType\":\"uint256\",\"name\":\"revnetId\",\"type\":\"uint256\"}]},{\"inputs\":[{\"internalType\":\"struct REVConfig\",\"name\":\"configuration\",\"type\":\"tuple\",\"components\":[{\"internalType\":\"struct REVDescription\",\"name\":\"description\",\"type\":\"tuple\",\"components\":[{\"internalType\":\"string\",\"name\":\"name\",\"type\":\"string\"},{\"internalType\":\"string\",\"name\":\"symbol\",\"type\":\"string\"},{\"internalType\":\"string\",\"name\":\"uri\",\"type\":\"string\"},{\"internalType\":\"bytes32\",\"name\":\"salt\",\"type\":\"bytes32\"}]},{\"internalType\":\"uint32\",\"name\":\"baseCurrency\",\"type\":\"uint32\"},{\"internalType\":\"uint256\",\"name\":\"premintTokenAmount\",\"type\":\"uint256\"},{\"internalType\":\"address\",\"name\":\"initialOperator\",\"type\":\"address\"},{\"internalType\":\"struct REVStageConfig[]\",\"name\":\"stageConfigurations\",\"type\":\"tuple[]\",\"components\":[{\"internalType\":\"uint40\",\"name\":\"startsAtOrAfter\",\"type\":\"uint40\"},{\"internalType\":\"uint16\",\"name\":\"operatorSplitRate\",\"type\":\"uint16\"},{\"internalType\":\"uint112\",\"name\":\"initialIssuanceRate\",\"type\":\"uint112\"},{\"internalType\":\"uint40\",\"name\":\"priceCeilingIncreaseFrequency\",\"type\":\"uint40\"},{\"internalType\":\"uint32\",\"name\":\"priceCeilingIncreasePercentage\",\"type\":\"uint32\"},{\"internalType\":\"uint16\",\"name\":\"priceFloorTaxIntensity\",\"type\":\"uint16\"}]}]},{\"internalType\":\"struct JBTerminalConfig[]\",\"name\":\"terminalConfigurations\",\"type\":\"tuple[]\",\"components\":[{\"internalType\":\"contract IJBTerminal\",\"name\":\"terminal\",\"type\":\"address\"},{\"internalType\":\"address[]\",\"name\":\"tokensToAccept\",\"type\":\"address[]\"}]},{\"internalType\":\"struct REVBuybackHookConfig\",\"name\":\"buybackHookConfiguration\",\"type\":\"tuple\",\"components\":[{\"internalType\":\"contract IJBBuybackHook\",\"name\":\"hook\",\"type\":\"address\"},{\"internalType\":\"struct REVBuybackPoolConfig[]\",\"name\":\"poolConfigurations\",\"type\":\"tuple[]\",\"components\":[{\"internalType\":\"address\",\"name\":\"token\",\"type\":\"address\"},{\"internalType\":\"uint24\",\"name\":\"fee\",\"type\":\"uint24\"},{\"internalType\":\"uint32\",\"name\":\"twapWindow\",\"type\":\"uint32\"},{\"internalType\":\"uint32\",\"name\":\"twapSlippageTolerance\",\"type\":\"uint32\"}]}]},{\"internalType\":\"struct REVSuckerDeploymentConfig\",\"name\":\"suckerDeploymentConfiguration\",\"type\":\"tuple\",\"components\":[{\"internalType\":\"struct BPSuckerDeployerConfig[]\",\"name\":\"deployerConfigurations\",\"type\":\"tuple[]\",\"components\":[{\"internalType\":\"contract IBPSuckerDeployer\",\"name\":\"deployer\",\"type\":\"address\"},{\"internalType\":\"struct BPTokenMapping[]\",\"name\":\"mappings\",\"type\":\"tuple[]\",\"components\":[{\"internalType\":\"address\",\"name\":\"localToken\",\"type\":\"address\"},{\"internalType\":\"uint32\",\"name\":\"minGas\",\"type\":\"uint32\"},{\"internalType\":\"address\",\"name\":\"remoteToken\",\"type\":\"address\"},{\"internalType\":\"uint256\",\"name\":\"minBridgeAmount\",\"type\":\"uint256\"}]}]},{\"internalType\":\"bytes32\",\"name\":\"salt\",\"type\":\"bytes32\"}]}],\"stateMutability\":\"nonpayable\",\"type\":\"function\",\"name\":\"deployRevnetWith\",\"outputs\":[{\"internalType\":\"uint256\",\"name\":\"revnetId\",\"type\":\"uint256\"}]},{\"inputs\":[{\"internalType\":\"uint256\",\"name\":\"revnetId\",\"type\":\"uint256\"},{\"internalType\":\"bytes\",\"name\":\"encodedConfiguration\",\"type\":\"bytes\"},{\"internalType\":\"struct REVSuckerDeploymentConfig\",\"name\":\"suckerDeploymentConfiguration\",\"type\":\"tuple\",\"components\":[{\"internalType\":\"struct BPSuckerDeployerConfig[]\",\"name\":\"deployerConfigurations\",\"type\":\"tuple[]\",\"components\":[{\"internalType\":\"contract IBPSuckerDeployer\",\"name\":\"deployer\",\"type\":\"address\"},{\"internalType\":\"struct BPTokenMapping[]\",\"name\":\"mappings\",\"type\":\"tuple[]\",\"components\":[{\"internalType\":\"address\",\"name\":\"localToken\",\"type\":\"address\"},{\"internalType\":\"uint32\",\"name\":\"minGas\",\"type\":\"uint32\"},{\"internalType\":\"address\",\"name\":\"remoteToken\",\"type\":\"address\"},{\"internalType\":\"uint256\",\"name\":\"minBridgeAmount\",\"type\":\"uint256\"}]}]},{\"internalType\":\"bytes32\",\"name\":\"salt\",\"type\":\"bytes32\"}]}],\"stateMutability\":\"nonpayable\",\"type\":\"function\",\"name\":\"deploySuckersFor\"},{\"inputs\":[{\"internalType\":\"struct REVConfig\",\"name\":\"configuration\",\"type\":\"tuple\",\"components\":[{\"internalType\":\"struct REVDescription\",\"name\":\"description\",\"type\":\"tuple\",\"components\":[{\"internalType\":\"string\",\"name\":\"name\",\"type\":\"string\"},{\"internalType\":\"string\",\"name\":\"symbol\",\"type\":\"string\"},{\"internalType\":\"string\",\"name\":\"uri\",\"type\":\"string\"},{\"internalType\":\"bytes32\",\"name\":\"salt\",\"type\":\"bytes32\"}]},{\"internalType\":\"uint32\",\"name\":\"baseCurrency\",\"type\":\"uint32\"},{\"internalType\":\"uint256\",\"name\":\"premintTokenAmount\",\"type\":\"uint256\"},{\"internalType\":\"address\",\"name\":\"initialOperator\",\"type\":\"address\"},{\"internalType\":\"struct REVStageConfig[]\",\"name\":\"stageConfigurations\",\"type\":\"tuple[]\",\"components\":[{\"internalType\":\"uint40\",\"name\":\"startsAtOrAfter\",\"type\":\"uint40\"},{\"internalType\":\"uint16\",\"name\":\"operatorSplitRate\",\"type\":\"uint16\"},{\"internalType\":\"uint112\",\"name\":\"initialIssuanceRate\",\"type\":\"uint112\"},{\"internalType\":\"uint40\",\"name\":\"priceCeilingIncreaseFrequency\",\"type\":\"uint40\"},{\"internalType\":\"uint32\",\"name\":\"priceCeilingIncreasePercentage\",\"type\":\"uint32\"},{\"internalType\":\"uint16\",\"name\":\"priceFloorTaxIntensity\",\"type\":\"uint16\"}]}]},{\"internalType\":\"struct JBTerminalConfig[]\",\"name\":\"terminalConfigurations\",\"type\":\"tuple[]\",\"components\":[{\"internalType\":\"contract IJBTerminal\",\"name\":\"terminal\",\"type\":\"address\"},{\"internalType\":\"address[]\",\"name\":\"tokensToAccept\",\"type\":\"address[]\"}]},{\"internalType\":\"struct REVBuybackHookConfig\",\"name\":\"buybackHookConfiguration\",\"type\":\"tuple\",\"components\":[{\"internalType\":\"contract IJBBuybackHook\",\"name\":\"hook\",\"type\":\"address\"},{\"internalType\":\"struct REVBuybackPoolConfig[]\",\"name\":\"poolConfigurations\",\"type\":\"tuple[]\",\"components\":[{\"internalType\":\"address\",\"name\":\"token\",\"type\":\"address\"},{\"internalType\":\"uint24\",\"name\":\"fee\",\"type\":\"uint24\"},{\"internalType\":\"uint32\",\"name\":\"twapWindow\",\"type\":\"uint32\"},{\"internalType\":\"uint32\",\"name\":\"twapSlippageTolerance\",\"type\":\"uint32\"}]}]},{\"internalType\":\"struct REVSuckerDeploymentConfig\",\"name\":\"suckerDeploymentConfiguration\",\"type\":\"tuple\",\"components\":[{\"internalType\":\"struct BPSuckerDeployerConfig[]\",\"name\":\"deployerConfigurations\",\"type\":\"tuple[]\",\"components\":[{\"internalType\":\"contract IBPSuckerDeployer\",\"name\":\"deployer\",\"type\":\"address\"},{\"internalType\":\"struct BPTokenMapping[]\",\"name\":\"mappings\",\"type\":\"tuple[]\",\"components\":[{\"internalType\":\"address\",\"name\":\"localToken\",\"type\":\"address\"},{\"internalType\":\"uint32\",\"name\":\"minGas\",\"type\":\"uint32\"},{\"internalType\":\"address\",\"name\":\"remoteToken\",\"type\":\"address\"},{\"internalType\":\"uint256\",\"name\":\"minBridgeAmount\",\"type\":\"uint256\"}]}]},{\"internalType\":\"bytes32\",\"name\":\"salt\",\"type\":\"bytes32\"}]},{\"internalType\":\"struct REVDeploy721TiersHookConfig\",\"name\":\"hookConfiguration\",\"type\":\"tuple\",\"components\":[{\"internalType\":\"struct JBDeploy721TiersHookConfig\",\"name\":\"baseline721HookConfiguration\",\"type\":\"tuple\",\"components\":[{\"internalType\":\"string\",\"name\":\"name\",\"type\":\"string\"},{\"internalType\":\"string\",\"name\":\"symbol\",\"type\":\"string\"},{\"internalType\":\"contract IJBRulesets\",\"name\":\"rulesets\",\"type\":\"address\"},{\"internalType\":\"string\",\"name\":\"baseUri\",\"type\":\"string\"},{\"internalType\":\"contract IJB721TokenUriResolver\",\"name\":\"tokenUriResolver\",\"type\":\"address\"},{\"internalType\":\"string\",\"name\":\"contractUri\",\"type\":\"string\"},{\"internalType\":\"struct JB721InitTiersConfig\",\"name\":\"tiersConfig\",\"type\":\"tuple\",\"components\":[{\"internalType\":\"struct JB721TierConfig[]\",\"name\":\"tiers\",\"type\":\"tuple[]\",\"components\":[{\"internalType\":\"uint104\",\"name\":\"price\",\"type\":\"uint104\"},{\"internalType\":\"uint32\",\"name\":\"initialSupply\",\"type\":\"uint32\"},{\"internalType\":\"uint32\",\"name\":\"votingUnits\",\"type\":\"uint32\"},{\"internalType\":\"uint16\",\"name\":\"reserveFrequency\",\"type\":\"uint16\"},{\"internalType\":\"address\",\"name\":\"reserveBeneficiary\",\"type\":\"address\"},{\"internalType\":\"bytes32\",\"name\":\"encodedIPFSUri\",\"type\":\"bytes32\"},{\"internalType\":\"uint24\",\"name\":\"category\",\"type\":\"uint24\"},{\"internalType\":\"bool\",\"name\":\"allowOwnerMint\",\"type\":\"bool\"},{\"internalType\":\"bool\",\"name\":\"useReserveBeneficiaryAsDefault\",\"type\":\"bool\"},{\"internalType\":\"bool\",\"name\":\"transfersPausable\",\"type\":\"bool\"},{\"internalType\":\"bool\",\"name\":\"useVotingUnits\",\"type\":\"bool\"},{\"internalType\":\"bool\",\"name\":\"cannotBeRemoved\",\"type\":\"bool\"}]},{\"internalType\":\"uint32\",\"name\":\"currency\",\"type\":\"uint32\"},{\"internalType\":\"uint8\",\"name\":\"decimals\",\"type\":\"uint8\"},{\"internalType\":\"contract IJBPrices\",\"name\":\"prices\",\"type\":\"address\"}]},{\"internalType\":\"address\",\"name\":\"reserveBeneficiary\",\"type\":\"address\"},{\"internalType\":\"struct JB721TiersHookFlags\",\"name\":\"flags\",\"type\":\"tuple\",\"components\":[{\"internalType\":\"bool\",\"name\":\"noNewTiersWithReserves\",\"type\":\"bool\"},{\"internalType\":\"bool\",\"name\":\"noNewTiersWithVotes\",\"type\":\"bool\"},{\"internalType\":\"bool\",\"name\":\"noNewTiersWithOwnerMinting\",\"type\":\"bool\"},{\"internalType\":\"bool\",\"name\":\"preventOverspending\",\"type\":\"bool\"}]}]},{\"internalType\":\"bool\",\"name\":\"operatorCanAdjustTiers\",\"type\":\"bool\"},{\"internalType\":\"bool\",\"name\":\"operatorCanUpdateMetadata\",\"type\":\"bool\"},{\"internalType\":\"bool\",\"name\":\"operatorCanMint\",\"type\":\"bool\"}]},{\"internalType\":\"struct JBPayHookSpecification[]\",\"name\":\"otherPayHooksSpecifications\",\"type\":\"tuple[]\",\"components\":[{\"internalType\":\"contract IJBPayHook\",\"name\":\"hook\",\"type\":\"address\"},{\"internalType\":\"uint256\",\"name\":\"amount\",\"type\":\"uint256\"},{\"internalType\":\"bytes\",\"name\":\"metadata\",\"type\":\"bytes\"}]},{\"internalType\":\"uint16\",\"name\":\"extraHookMetadata\",\"type\":\"uint16\"}],\"stateMutability\":\"nonpayable\",\"type\":\"function\",\"name\":\"deployTiered721RevnetWith\",\"outputs\":[{\"internalType\":\"uint256\",\"name\":\"revnetId\",\"type\":\"uint256\"},{\"internalType\":\"contract IJB721TiersHook\",\"name\":\"hook\",\"type\":\"address\"}]},{\"inputs\":[{\"internalType\":\"uint256\",\"name\":\"revnetId\",\"type\":\"uint256\"}],\"stateMutability\":\"view\",\"type\":\"function\",\"name\":\"exitDelayOf\",\"outputs\":[{\"internalType\":\"uint256\",\"name\":\"exitDelay\",\"type\":\"uint256\"}]},{\"inputs\":[{\"internalType\":\"uint256\",\"name\":\"revnetId\",\"type\":\"uint256\"},{\"internalType\":\"address\",\"name\":\"addr\",\"type\":\"address\"}],\"stateMutability\":\"view\",\"type\":\"function\",\"name\":\"hasMintPermissionFor\",\"outputs\":[{\"internalType\":\"bool\",\"name\":\"\",\"type\":\"bool\"}]},{\"inputs\":[{\"internalType\":\"address\",\"name\":\"operator\",\"type\":\"address\"},{\"internalType\":\"address\",\"name\":\"from\",\"type\":\"address\"},{\"internalType\":\"uint256\",\"name\":\"tokenId\",\"type\":\"uint256\"},{\"internalType\":\"bytes\",\"name\":\"data\",\"type\":\"bytes\"}],\"stateMutability\":\"view\",\"type\":\"function\",\"name\":\"onERC721Received\",\"outputs\":[{\"internalType\":\"bytes4\",\"name\":\"\",\"type\":\"bytes4\"}]},{\"inputs\":[{\"internalType\":\"uint256\",\"name\":\"revnetId\",\"type\":\"uint256\"}],\"stateMutability\":\"view\",\"type\":\"function\",\"name\":\"payHookSpecificationsOf\",\"outputs\":[{\"internalType\":\"struct JBPayHookSpecification[]\",\"name\":\"\",\"type\":\"tuple[]\",\"components\":[{\"internalType\":\"contract IJBPayHook\",\"name\":\"hook\",\"type\":\"address\"},{\"internalType\":\"uint256\",\"name\":\"amount\",\"type\":\"uint256\"},{\"internalType\":\"bytes\",\"name\":\"metadata\",\"type\":\"bytes\"}]}]},{\"inputs\":[{\"internalType\":\"uint256\",\"name\":\"revnetId\",\"type\":\"uint256\"},{\"internalType\":\"address\",\"name\":\"newOperator\",\"type\":\"address\"}],\"stateMutability\":\"nonpayable\",\"type\":\"function\",\"name\":\"replaceOperatorOf\"},{\"inputs\":[{\"internalType\":\"bytes4\",\"name\":\"interfaceId\",\"type\":\"bytes4\"}],\"stateMutability\":\"view\",\"type\":\"function\",\"name\":\"supportsInterface\",\"outputs\":[{\"internalType\":\"bool\",\"name\":\"\",\"type\":\"bool\"}]}],\"devdoc\":{\"kind\":\"dev\",\"methods\":{\"beforePayRecordedWith((address,address,(address,uint256,uint256,uint256),uint256,uint256,address,uint256,uint256,bytes))\":{\"details\":\"Part of IJBFundingCycleDataSource.This implementation just sets this contract up to receive a `didPay` call.\",\"params\":{\"context\":\"The Juicebox standard network payment context. See\"},\"returns\":{\"hookSpecifications\":\"Amount to be sent to pay hooks instead of adding to local balance. Useful for auto-routing funds from a treasury as payment come in.\",\"weight\":\"The weight that network tokens should get minted relative to. This is useful for optionally customizing how many tokens are issued per payment.\"}},\"constructor\":{\"params\":{\"controller\":\"The controller that revnets are made from.\",\"hookDeployer\":\"The 721 tiers hook deployer.\",\"publisher\":\"The croptop publisher that facilitates the permissioned publishing of 721 posts to a revnet.\",\"suckerRegistry\":\"The registry that deploys and tracks each project's suckers.\"}},\"deployCroptopRevnetWith(((string,string,string,bytes32),uint32,uint256,address,(uint40,uint16,uint112,uint40,uint32,uint16)[]),(address,address[])[],(address,(address,uint24,uint32,uint32)[]),((address,(address,uint32,address,uint256)[])[],bytes32),((string,string,address,string,address,string,((uint104,uint32,uint32,uint16,address,bytes32,uint24,bool,bool,bool,bool,bool)[],uint32,uint8,address),address,(bool,bool,bool,bool)),bool,bool,bool),(address,uint256,bytes)[],uint16,(uint256,uint256,uint256,uint256,address[])[])\":{\"params\":{\"allowedPosts\":\"The type of posts that the network should allow.\",\"buybackHookConfiguration\":\"Data used for setting up the buyback hook to use when determining the best price for new participants.\",\"configuration\":\"The data needed to deploy a basic revnet.\",\"extraHookMetadata\":\"Extra metadata to attach to the cycle for the delegates to use.\",\"hookConfiguration\":\"Data used for setting up the 721 tiers.\",\"otherPayHooksSpecifications\":\"Any hooks that should run when the revnet is paid alongside the 721 hook.\",\"suckerDeploymentConfiguration\":\"Information about how this revnet relates to other's across chains.\",\"terminalConfigurations\":\"The terminals that the network uses to accept payments through.\"},\"returns\":{\"hook\":\"The address of the 721 hook that was deployed on the revnet.\",\"revnetId\":\"The ID of the newly created revnet.\"}},\"deployPayHookRevnetWith(((string,string,string,bytes32),uint32,uint256,address,(uint40,uint16,uint112,uint40,uint32,uint16)[]),(address,address[])[],(address,(address,uint24,uint32,uint32)[]),((address,(address,uint32,address,uint256)[])[],bytes32),(address,uint256,bytes)[],uint16)\":{\"params\":{\"buybackHookConfiguration\":\"Data used for setting up the buyback hook to use when determining the best price for new participants.\",\"configuration\":\"The data needed to deploy a basic revnet.\",\"extraHookMetadata\":\"Extra metadata to attach to the cycle for the delegates to use.\",\"payHookSpecifications\":\"Any hooks that should run when the revnet is paid.\",\"suckerDeploymentConfiguration\":\"Information about how this revnet relates to other's across chains.\",\"terminalConfigurations\":\"The terminals that the network uses to accept payments through.\"},\"returns\":{\"revnetId\":\"The ID of the newly created revnet.\"}},\"deployRevnetWith(((string,string,string,bytes32),uint32,uint256,address,(uint40,uint16,uint112,uint40,uint32,uint16)[]),(address,address[])[],(address,(address,uint24,uint32,uint32)[]),((address,(address,uint32,address,uint256)[])[],bytes32))\":{\"params\":{\"buybackHookConfiguration\":\"Data used for setting up the buyback hook to use when determining the best price for new participants.\",\"configuration\":\"The data needed to deploy a basic revnet.\",\"suckerDeploymentConfiguration\":\"Information about how this revnet relates to other's across chains.\",\"terminalConfigurations\":\"The terminals that the network uses to accept payments through.\"},\"returns\":{\"revnetId\":\"The ID of the newly created revnet.\"}},\"deploySuckersFor(uint256,bytes,((address,(address,uint32,address,uint256)[])[],bytes32))\":{\"params\":{\"encodedConfiguration\":\"A bytes representation of the revnet's configuration.\",\"revnetId\":\"The ID of the revnet having new suckers deployed.\",\"suckerDeploymentConfiguration\":\"The specifics about the suckers being deployed.\"}},\"deployTiered721RevnetWith(((string,string,string,bytes32),uint32,uint256,address,(uint40,uint16,uint112,uint40,uint32,uint16)[]),(address,address[])[],(address,(address,uint24,uint32,uint32)[]),((address,(address,uint32,address,uint256)[])[],bytes32),((string,string,address,string,address,string,((uint104,uint32,uint32,uint16,address,bytes32,uint24,bool,bool,bool,bool,bool)[],uint32,uint8,address),address,(bool,bool,bool,bool)),bool,bool,bool),(address,uint256,bytes)[],uint16)\":{\"params\":{\"buybackHookConfiguration\":\"Data used for setting up the buyback hook to use when determining the best price for new participants.\",\"configuration\":\"The data needed to deploy a basic revnet.\",\"extraHookMetadata\":\"Extra metadata to attach to the cycle for the delegates to use.\",\"hookConfiguration\":\"Data used for setting up the 721 tiers.\",\"otherPayHooksSpecifications\":\"Any hooks that should run when the revnet is paid alongside the 721 hook.\",\"suckerDeploymentConfiguration\":\"Information about how this revnet relates to other's across chains.\",\"terminalConfigurations\":\"The terminals that the network uses to accept payments through.\"},\"returns\":{\"hook\":\"The address of the 721 hook that was deployed on the revnet.\",\"revnetId\":\"The ID of the newly created revnet.\"}},\"hasMintPermissionFor(uint256,address)\":{\"params\":{\"addr\":\"The address to check if has permissions.\",\"revnetId\":\"The ID of the revnet to check permissions for.\"},\"returns\":{\"_0\":\"flag The flag indicating if the address has permissions to mint on the revnet's behalf.\"}},\"onERC721Received(address,address,uint256,bytes)\":{\"details\":\"Make sure only mints can be received.\"},\"payHookSpecificationsOf(uint256)\":{\"params\":{\"revnetId\":\"The ID of the revnet to which the extensions apply.\"},\"returns\":{\"_0\":\"payHookSpecifications The pay hooks.\"}},\"replaceOperatorOf(uint256,address)\":{\"params\":{\"newOperator\":\"The address of the new operator.\",\"revnetId\":\"The ID of the revnet having its operator replaced.\"}},\"supportsInterface(bytes4)\":{\"details\":\"See {IERC165-supportsInterface}.\",\"params\":{\"interfaceId\":\"The ID of the interface to check for adherence to.\"},\"returns\":{\"_0\":\"A flag indicating if the provided interface ID is supported.\"}}},\"version\":1},\"userdoc\":{\"kind\":\"user\",\"methods\":{\"CONTROLLER()\":{\"notice\":\"The controller that networks are made from.\"},\"EXIT_DELAY()\":{\"notice\":\"The amount of time from a sucker being deployed to when it can facilitate exits.\"},\"HOOK_DEPLOYER()\":{\"notice\":\"The contract responsible for deploying the tiered 721 hook.\"},\"PUBLISHER()\":{\"notice\":\"The croptop publisher that facilitates the permissioned publishing of 721 posts to a revnet.\"},\"SUCKER_REGISTRY()\":{\"notice\":\"The registry that deploys and tracks each project's suckers.\"},\"beforePayRecordedWith((address,address,(address,uint256,uint256,uint256),uint256,uint256,address,uint256,uint256,bytes))\":{\"notice\":\"This function gets called when the revnet receives a payment.\"},\"beforeRedeemRecordedWith((address,address,uint256,uint256,uint256,uint256,(address,uint256,uint256,uint256),bool,uint256,bytes))\":{\"notice\":\"This function is never called, it needs to be included to adhere to the interface.\"},\"buybackHookOf(uint256)\":{\"notice\":\"The data hook that returns the correct values for the buyback hook of each network.\"},\"deployCroptopRevnetWith(((string,string,string,bytes32),uint32,uint256,address,(uint40,uint16,uint112,uint40,uint32,uint16)[]),(address,address[])[],(address,(address,uint24,uint32,uint32)[]),((address,(address,uint32,address,uint256)[])[],bytes32),((string,string,address,string,address,string,((uint104,uint32,uint32,uint16,address,bytes32,uint24,bool,bool,bool,bool,bool)[],uint32,uint8,address),address,(bool,bool,bool,bool)),bool,bool,bool),(address,uint256,bytes)[],uint16,(uint256,uint256,uint256,uint256,address[])[])\":{\"notice\":\"Deploy a revnet that supports 721 sales.\"},\"deployPayHookRevnetWith(((string,string,string,bytes32),uint32,uint256,address,(uint40,uint16,uint112,uint40,uint32,uint16)[]),(address,address[])[],(address,(address,uint24,uint32,uint32)[]),((address,(address,uint32,address,uint256)[])[],bytes32),(address,uint256,bytes)[],uint16)\":{\"notice\":\"Deploy a basic revnet that also calls other specified pay hooks.\"},\"deployRevnetWith(((string,string,string,bytes32),uint32,uint256,address,(uint40,uint16,uint112,uint40,uint32,uint16)[]),(address,address[])[],(address,(address,uint24,uint32,uint32)[]),((address,(address,uint32,address,uint256)[])[],bytes32))\":{\"notice\":\"Deploy a basic revnet.\"},\"deploySuckersFor(uint256,bytes,((address,(address,uint32,address,uint256)[])[],bytes32))\":{\"notice\":\"Allows a revnet's operator to deploy new suckers to the revnet after it's deployed.\"},\"deployTiered721RevnetWith(((string,string,string,bytes32),uint32,uint256,address,(uint40,uint16,uint112,uint40,uint32,uint16)[]),(address,address[])[],(address,(address,uint24,uint32,uint32)[]),((address,(address,uint32,address,uint256)[])[],bytes32),((string,string,address,string,address,string,((uint104,uint32,uint32,uint16,address,bytes32,uint24,bool,bool,bool,bool,bool)[],uint32,uint8,address),address,(bool,bool,bool,bool)),bool,bool,bool),(address,uint256,bytes)[],uint16)\":{\"notice\":\"Deploy a revnet that supports 721 sales.\"},\"exitDelayOf(uint256)\":{\"notice\":\"The time at which exits from a revnet become allowed.\"},\"hasMintPermissionFor(uint256,address)\":{\"notice\":\"Required by the IJBRulesetDataHook interfaces.\"},\"payHookSpecificationsOf(uint256)\":{\"notice\":\"The pay hooks to include during payments to networks.\"},\"replaceOperatorOf(uint256,address)\":{\"notice\":\"A revnet's operator can replace itself.\"},\"supportsInterface(bytes4)\":{\"notice\":\"Indicates if this contract adheres to the specified interface.\"}},\"version\":1}},\"settings\":{\"remappings\":[\"@arbitrum/=node_modules/@arbitrum/\",\"@bananapus/=node_modules/@bananapus/\",\"@chainlink/=node_modules/@chainlink/\",\"@croptop/=node_modules/@croptop/\",\"@eth-optimism/=node_modules/@eth-optimism/\",\"@exhausted-pigeon/=node_modules/@exhausted-pigeon/\",\"@gnosis.pm/=node_modules/@gnosis.pm/\",\"@offchainlabs/=node_modules/@offchainlabs/\",\"@openzeppelin/=node_modules/@openzeppelin/\",\"@prb/=node_modules/@prb/\",\"@sphinx-labs/contracts/=node_modules/@sphinx-labs/contracts/contracts/foundry/\",\"@uniswap/=node_modules/@uniswap/\",\"base64-sol/=node_modules/base64-sol/\",\"ds-test/=lib/forge-std/lib/ds-test/src/\",\"forge-std/=lib/forge-std/src/\",\"hardhat/=node_modules/hardhat/\",\"solmate/=node_modules/solmate/\",\"sphinx-forge-std/=node_modules/sphinx-forge-std/\",\"sphinx-solmate/=node_modules/sphinx-solmate/\",\"sphinx/=lib/sphinx/packages/contracts/contracts/forge-std/src/\"],\"optimizer\":{\"enabled\":true,\"runs\":100000000},\"metadata\":{\"bytecodeHash\":\"ipfs\"},\"compilationTarget\":{\"src/REVCroptopDeployer.sol\":\"REVCroptopDeployer\"},\"evmVersion\":\"paris\",\"libraries\":{}},\"sources\":{\"node_modules/@bananapus/721-hook/src/interfaces/IJB721Hook.sol\":{\"keccak256\":\"0x6cc09b57796ce71a103adb88ee851a9e2f4b5dc42cf7e153371e5c2157c4444d\",\"urls\":[\"bzz-raw://a2d0518c1f6803ab197049839de78debdd97908aa0fc7e44c6742ee209587b46\",\"dweb:/ipfs/QmXzoxr3DNH3NpwvTmRJcwKXFwUZQzCbAeTVh4NZzJedb7\"],\"license\":\"MIT\"},\"node_modules/@bananapus/721-hook/src/interfaces/IJB721TiersHook.sol\":{\"keccak256\":\"0xae662e642cb039931f0cac1a73e3c6b6833cf5edb6c5e3d4864f37cb07791684\",\"urls\":[\"bzz-raw://0942d829b0ba82ececd6de9148c6f3e85c0ecf398d23358086434e31e792b68b\",\"dweb:/ipfs/QmPdtTtoawqq2yTHBhqfs72DVHAQ3dbrjDGnQ3NmkHzLer\"],\"license\":\"MIT\"},\"node_modules/@bananapus/721-hook/src/interfaces/IJB721TiersHookDeployer.sol\":{\"keccak256\":\"0xc4c6dfd2573fe1f130bc5193da68a622959a11562010fa261ffd3a8893e08a7b\",\"urls\":[\"bzz-raw://0c34f79121f6c777bca3df6c2e87c0caa05146bec45e9ae29f41b0532d16c88e\",\"dweb:/ipfs/QmZJQVZC8uuuSssXtLnhsvisz7V2PCKs2s1Hbzo8hmZ9ZP\"],\"license\":\"MIT\"},\"node_modules/@bananapus/721-hook/src/interfaces/IJB721TiersHookStore.sol\":{\"keccak256\":\"0x8550e216c12c9cda865c1b1b0eb3f244aeaa8d465b197d4bd0dd8d4df265682e\",\"urls\":[\"bzz-raw://674a312f1eaffd7c6b21f58f8d4a628104e71220daf48a22237fa3bd035ddf21\",\"dweb:/ipfs/QmSRSW6cSwdpoGjVxDqiwJmJyCxfHWhCxZ2iaqeJcN2Ccy\"],\"license\":\"MIT\"},\"node_modules/@bananapus/721-hook/src/interfaces/IJB721TokenUriResolver.sol\":{\"keccak256\":\"0xfa599167098f4459320ec4141a98a17b2dfffbce422baa27d8b4e4530f61ece1\",\"urls\":[\"bzz-raw://8b758b161f4c7b520b2c34b4d91e585e961b8f4ca278eebb91d791f7f2f45140\",\"dweb:/ipfs/QmcD9DF7NJ9QykQpT4KPzm4bs3fkjzukdAUWwdU6Atfw85\"],\"license\":\"MIT\"},\"node_modules/@bananapus/721-hook/src/structs/JB721InitTiersConfig.sol\":{\"keccak256\":\"0xfb78486cec94189d0ecf2050dc9cfc11245b426c73a0711a85bff1359d774307\",\"urls\":[\"bzz-raw://a8fa01f6e64dd204dbde07a60851e9a5a74e439e1411139ae16b7cf67d2a2692\",\"dweb:/ipfs/QmZAnHyfpKr3xr7NWHj5sGaCEEtG8RtmHhkRUJJvNauym5\"],\"license\":\"MIT\"},\"node_modules/@bananapus/721-hook/src/structs/JB721Tier.sol\":{\"keccak256\":\"0x2e267a8af02f125465cdda9308477346ae4a94b024c3b2c2a6af0c00027944dd\",\"urls\":[\"bzz-raw://367ccea2c8fa815d498d771d4367ef1ded718a76e89644102034bfe4a3636b82\",\"dweb:/ipfs/QmYiFFa6ei9wZBSSVUHfY2Cb35zCDVXvbmLcgLj2BTiC1u\"],\"license\":\"MIT\"},\"node_modules/@bananapus/721-hook/src/structs/JB721TierConfig.sol\":{\"keccak256\":\"0x2fa9c5c8cec182b854a656d3b284e9d5306be35ad3dc4da79d65dca12b804af0\",\"urls\":[\"bzz-raw://b443a5f70195a66145ea1dade04454ce9a3ff1209e1aaecf53c8a9909b294d79\",\"dweb:/ipfs/QmUDPFZ4L6XpV3zLQUNVchUvecD4XfddKz2S46BKek5XL1\"],\"license\":\"MIT\"},\"node_modules/@bananapus/721-hook/src/structs/JB721TiersHookFlags.sol\":{\"keccak256\":\"0x283d8429f31bd58875c056515aa42abd09c95362bd929e85cfc44a0d92585766\",\"urls\":[\"bzz-raw://9a580b89fe99d9f8e930c58a4d0d63a5ff7c01c79d210af01373d066c9e72ed6\",\"dweb:/ipfs/QmdY1eSGSoTjv4KSdsG4Tm5CzJN6iqk3qTRga5ZWNbejRz\"],\"license\":\"MIT\"},\"node_modules/@bananapus/721-hook/src/structs/JB721TiersMintReservesConfig.sol\":{\"keccak256\":\"0xab3b319dc4e736586ae595de194d93dcdfeba365bc7a54cf6c37e697f6074ad9\",\"urls\":[\"bzz-raw://a84ae2cf2e8c3e39e831dbb39a67a8eb43c78a6de6bb78b1be2e1f1e80c69efe\",\"dweb:/ipfs/QmboGXEMqsYTxc4a7oft9rggNU7ShWSa9yB4HFMVmzXCHz\"],\"license\":\"MIT\"},\"node_modules/@bananapus/721-hook/src/structs/JBDeploy721TiersHookConfig.sol\":{\"keccak256\":\"0x4f0b8bbc19a405a096a16977fa1eedc0c56640ef777add89c050f989a62a6a35\",\"urls\":[\"bzz-raw://bd009c66aa748a2ce04720a6376683ce01ced3c0bd7f9534e145263aa49d95d3\",\"dweb:/ipfs/QmXyJCS1uQevdkw1Gc4UrRs8fZKtW9wPWFY9pxUWHKLo4e\"],\"license\":\"MIT\"},\"node_modules/@bananapus/buyback-hook/src/interfaces/IJBBuybackHook.sol\":{\"keccak256\":\"0xbe5d7f3bf2e18b569676ba9194e248e6b1ed50022f5247b4f1fa124c91bfd418\",\"urls\":[\"bzz-raw://eb221d1570e8aad409c419b6a2f84351e818c3527f3f44b806cd64c84d7a8c86\",\"dweb:/ipfs/QmUPZstaKjPN7VTywg3Mt6bF75E53mQbmXhf3TxCggJbRR\"],\"license\":\"MIT\"},\"node_modules/@bananapus/buyback-hook/src/interfaces/external/IWETH9.sol\":{\"keccak256\":\"0x50083bcaca6c1a8d12c79116fab4f6d8cd452a510cb3f00c4a8bc3a54678efb7\",\"urls\":[\"bzz-raw://726f187112d0953c14bff8099a8c9ce1ead47eb25e90839f77b100feaaf16127\",\"dweb:/ipfs/QmTEnMENpLjcTQLMwz4kEUiQHfiTkaZT3TL37nQ8JiRYh5\"],\"license\":\"GPL-2.0-or-later\"},\"node_modules/@bananapus/core/src/abstract/JBPermissioned.sol\":{\"keccak256\":\"0xbe593894bc9893f7fe5c96f14c013add8f50df762538e3d7cb96ed39ad195664\",\"urls\":[\"bzz-raw://efb81264b24776e6be537680abaeb8c4893e70d8a62231748d860e25a7c2340d\",\"dweb:/ipfs/QmacN9gFgPqkhTEwRD7Zben3whq9DRr2ZkSmScGvioTXXR\"],\"license\":\"MIT\"},\"node_modules/@bananapus/core/src/enums/JBApprovalStatus.sol\":{\"keccak256\":\"0x61c69b6bac7d24b566d87cda23a77e4ca9cdb87200b106aba8534cb9a0973e33\",\"urls\":[\"bzz-raw://6a9ca7249de76f77a8252eefe6bd1b63d47952f25a2acfa2c8db967cdff4470c\",\"dweb:/ipfs/QmaxSxptRQNj8bNy96EreENmrnRWdKmhyihBcxyWzBX5BN\"],\"license\":\"MIT\"},\"node_modules/@bananapus/core/src/interfaces/IJBControlled.sol\":{\"keccak256\":\"0x79fb8de7b3f809f1c3c7189f578b7331ec4dfe3350151d5b50240ecb3a2a907b\",\"urls\":[\"bzz-raw://45c82240dd4f0e9aec00d0d86f6b44bdda231db098ebdac17e922771b3e6f342\",\"dweb:/ipfs/QmPUvT8HZeVenrZDpP14HsZofaXPJjih8UAd35rTg3tU7E\"],\"license\":\"MIT\"},\"node_modules/@bananapus/core/src/interfaces/IJBController.sol\":{\"keccak256\":\"0xfe88b4ddf528542fde8f8fcc650281f48ca291d5432ec3f02cf8f064ecd79b22\",\"urls\":[\"bzz-raw://f71da06a55abca8cdcc447fd554df2fa2377a276679b2113f2cec8db635d70a4\",\"dweb:/ipfs/QmT3H3aWByCVVAhiB1DrPuG1Scm4GtyXWVcEP1p7GCmVJA\"],\"license\":\"MIT\"},\"node_modules/@bananapus/core/src/interfaces/IJBDirectory.sol\":{\"keccak256\":\"0xd15957cc32974cde4f9f194b92574df2ad8a7aeec049d947136ce3381f9145f6\",\"urls\":[\"bzz-raw://7543e5cbde75ff777b16067016ff9ac5e995752842f03662137eb4ef3fc3c868\",\"dweb:/ipfs/QmPJZAmqNKRcj1JQ4Kc9hExbMtPPzrRB5hZ787utCfBmXg\"],\"license\":\"MIT\"},\"node_modules/@bananapus/core/src/interfaces/IJBDirectoryAccessControl.sol\":{\"keccak256\":\"0x1e67f56849320a46f834aaa9bd62b170ff8ada7b224b4a81136193740fa0be4d\",\"urls\":[\"bzz-raw://ea8fbcec44abfe49d137bcae129b67e5479d6b17879301f88534c8a7fab00be4\",\"dweb:/ipfs/QmT6wrtYX4GRpffHUzupNwYebJ1dqkkKZLEewWsoyunsqw\"],\"license\":\"MIT\"},\"node_modules/@bananapus/core/src/interfaces/IJBFundAccessLimits.sol\":{\"keccak256\":\"0x2a2ece23837bedde2fddb728476e558bc37c644f641d397a8e08e8a1a85ea390\",\"urls\":[\"bzz-raw://f44187b5a720cdbe5af325331a5e351fc8504853836fb54b997c597949246726\",\"dweb:/ipfs/QmSKM2aMpnof458iCeui2Wkf7S8FfBRGs9zF3QG5DJLf7C\"],\"license\":\"MIT\"},\"node_modules/@bananapus/core/src/interfaces/IJBMigratable.sol\":{\"keccak256\":\"0xd69bd5aba01a68d82c303ef3adde47532abcace030a94296c3ea6988b401789c\",\"urls\":[\"bzz-raw://88f11a1c89899327746beba4fc830abf3ac2eb9c152c778e884a6eed6564971f\",\"dweb:/ipfs/QmTpKhSTVewpz7VyKcz6BJwH2LFKMwT7Qi5HNWmjEjwsdK\"],\"license\":\"MIT\"},\"node_modules/@bananapus/core/src/interfaces/IJBPayHook.sol\":{\"keccak256\":\"0xe24aa2ca52f7a5f24f24ccae101cfc94d0f76705b2d23222f87c7852f8be4267\",\"urls\":[\"bzz-raw://6888140e9a7d4156fd22635654d5d08e21819af8b0356b5415f37b75083b3eb9\",\"dweb:/ipfs/QmbuwBNhar7rEbRhTJPiyo5PVsfaM5nqLow9NAkHhyvjV5\"],\"license\":\"MIT\"},\"node_modules/@bananapus/core/src/interfaces/IJBPermissioned.sol\":{\"keccak256\":\"0x5b038d4dee116584e88b230920e56d48e135053e3f7e5642eaea14a775c1dad7\",\"urls\":[\"bzz-raw://19e43102f349fd4a1da1c0943ffb8f2950007fe4bb4bb7e8f74fc142575d091b\",\"dweb:/ipfs/QmXHAt4KzDTdDZgDDefEXH2WKi7NcfkJb9R7nxW5uDqsNp\"],\"license\":\"MIT\"},\"node_modules/@bananapus/core/src/interfaces/IJBPermissions.sol\":{\"keccak256\":\"0x18870e500edf0fbadc353e273a5574701fb80466376b908c65e7cc3f11044d4d\",\"urls\":[\"bzz-raw://352a47c45853aec80e7acf0d286ade3106eb4cb456776b28a3c2f3f1091bed90\",\"dweb:/ipfs/QmQeYd3YbudYZy2hfbfht9kwhxhw4tuuLKMEYy9UY6dcSy\"],\"license\":\"MIT\"},\"node_modules/@bananapus/core/src/interfaces/IJBPriceFeed.sol\":{\"keccak256\":\"0x4bd84c0f1a5d4729ed709bcddd43f4c50ec4a165ece79780af8dce482ed07d4a\",\"urls\":[\"bzz-raw://62bac4bfb6982fb002f620c77e5c445e62d50241a5aa64a07e51d929f5a42180\",\"dweb:/ipfs/QmWgJUDreVY2BuMX38a1iUUR5kNbMwGnKG3VvurB7oZtuM\"],\"license\":\"MIT\"},\"node_modules/@bananapus/core/src/interfaces/IJBPrices.sol\":{\"keccak256\":\"0x99525f31440b955742dce84ba57de9fc1221139b5367c1f834723bef9e13e6e1\",\"urls\":[\"bzz-raw://6fa03f0cd4ad87dd7cbae7bf7f54463450874291773c8f70f2c31ef2cae62bb0\",\"dweb:/ipfs/QmSPajPV5ismteJuB6Spzm9VmhTj2iS3eVrfpJC1Zuzg8n\"],\"license\":\"MIT\"},\"node_modules/@bananapus/core/src/interfaces/IJBProjectUriRegistry.sol\":{\"keccak256\":\"0x2799475228987e4f8334ac33d3935f759c9b8133db7383b4f622dde7a5dc0502\",\"urls\":[\"bzz-raw://d751731740f45df74eea48c9667e847ee2cddb2980ab4939c86bd17e6c6ed89b\",\"dweb:/ipfs/QmXW8SLTuhdUpfn7pRpdsYdcyuim8RTyagU37ULcj5UZhT\"],\"license\":\"MIT\"},\"node_modules/@bananapus/core/src/interfaces/IJBProjects.sol\":{\"keccak256\":\"0x85539f72c5871c53a919edc7db78931155464e9e00fccd30079b17e75820ddb9\",\"urls\":[\"bzz-raw://505466dbfbdeec77f948ce065676897a5b4a74b70bb234c1053b893c4849f3a1\",\"dweb:/ipfs/QmYBpZQub3Mv19xsRWqvzgiQSBAp4UNaKcqWQ2wwH62H95\"],\"license\":\"MIT\"},\"node_modules/@bananapus/core/src/interfaces/IJBRedeemHook.sol\":{\"keccak256\":\"0x4ea5b7ed510c9d29aca47ae3f8b41ef075dff4b9909779ec2c0e5b7bc30250c6\",\"urls\":[\"bzz-raw://770b785134ba71e3284dc7e05e44f429e7a8393423ad45cf8fe540408a5b9633\",\"dweb:/ipfs/QmRjXJxZPA1qZos7QjeCxJZ8sCfXfkyDFbzkdqzaqCD9Ds\"],\"license\":\"MIT\"},\"node_modules/@bananapus/core/src/interfaces/IJBRulesetApprovalHook.sol\":{\"keccak256\":\"0x5e9f921a6aa5d9396a12bbc0a878c3f5e8ae0a4ce8a3abe0de12e300718838d7\",\"urls\":[\"bzz-raw://6c9f0610f5bbe07554a1bdc39041be1284c20d81d930bec1eee2d374b86e03f4\",\"dweb:/ipfs/QmPH57wBoPERwDWkBCcj9c5tEUdeeLNe2kv1oFM7cTKVrd\"],\"license\":\"MIT\"},\"node_modules/@bananapus/core/src/interfaces/IJBRulesetDataHook.sol\":{\"keccak256\":\"0x3fea9fcab6f0335e67f0f052cf5d3446e9310808f88b5878d21586be00f89f85\",\"urls\":[\"bzz-raw://5506848f471d308a14523f91202d76d960f8255e227d29d34b0892ef70315cae\",\"dweb:/ipfs/QmakRKFctSZobpem1caU2zXqhiPQnaYVa7Y6NdAPAonHaU\"],\"license\":\"MIT\"},\"node_modules/@bananapus/core/src/interfaces/IJBRulesets.sol\":{\"keccak256\":\"0xda1a9aef337cf9fede3f638ffa58aea2815b87fde0f79628834aa03af9f582d7\",\"urls\":[\"bzz-raw://7941690ba6d94500474978ff0f02ecc56335eae5937759878e25cc1ac30a8ecc\",\"dweb:/ipfs/QmZFc7wof6PzfBTkVyNkjaQrQbjc36CK4uC3Ee2vgihqyK\"],\"license\":\"MIT\"},\"node_modules/@bananapus/core/src/interfaces/IJBSplitHook.sol\":{\"keccak256\":\"0xc99bb76736acc5c6409d1ff54cb90218b547fdf7f8a7c0d03ddb7ac9eb35645e\",\"urls\":[\"bzz-raw://7fa7e56f426a758e6125e58d81137569964e46bdfeaf9ea081b9382d80b536a9\",\"dweb:/ipfs/Qmc1wwfBP4xoGKe4BcDnwL11y3Gvk4Dk8r6qqWD4jbdKK4\"],\"license\":\"MIT\"},\"node_modules/@bananapus/core/src/interfaces/IJBSplits.sol\":{\"keccak256\":\"0x2f415b55c1d7b7fdd9ee938897a8a2b5b1c81d2ab2233d678953ea8ab9b3fb24\",\"urls\":[\"bzz-raw://f7cd02ef943cb49db501b300cbe56d5d62e4ac59caef5c38d697fdbdd21d5f9a\",\"dweb:/ipfs/QmXcxH6gBiBLes2kzSNDvPqVuDZxu1xyDPjfEziARMJhHb\"],\"license\":\"MIT\"},\"node_modules/@bananapus/core/src/interfaces/IJBToken.sol\":{\"keccak256\":\"0x911c93ec0053c1ce3c3a82ddefc8a2911f244b159b1b88fa2a7697b5455d67e0\",\"urls\":[\"bzz-raw://a29b34338ffe4310d6fa012cce351a8db98ad84dac40b6886fcbaa76145eefb2\",\"dweb:/ipfs/QmctiW2p99TaZLGBnavS3gE89p2KFoPfCPPpPvZDXsyMq9\"],\"license\":\"MIT\"},\"node_modules/@bananapus/core/src/interfaces/IJBTokenUriResolver.sol\":{\"keccak256\":\"0xfa5cb00dcd6085d1ef912d071fe73c63f9478a2cd0f9d8bddaf659b6af2d0967\",\"urls\":[\"bzz-raw://282e4e7c342d65f77cde0e9a08fcaf20ef5cf379c7a48b639842c0ffd0b2afb8\",\"dweb:/ipfs/QmbnN3PEQeZaXdPLT75V1J79kMg7KqSMru37RHrL3z8Yf2\"],\"license\":\"MIT\"},\"node_modules/@bananapus/core/src/interfaces/IJBTokens.sol\":{\"keccak256\":\"0xbbb3764d6b9d253f7a2b4e13636bf1d523d72be87b144dea6bbd7177b0953ffe\",\"urls\":[\"bzz-raw://417cdba44cf58c833785ec180918d297fcda2539d8476a978cd7d1d39c4b33d2\",\"dweb:/ipfs/QmSewvgMsjqS2fek8LXc4dNGBKhX6odnyNpzr9UmDX3WXE\"],\"license\":\"MIT\"},\"node_modules/@bananapus/core/src/interfaces/terminal/IJBTerminal.sol\":{\"keccak256\":\"0x36f23bc27e56fa86d100281a75f5a6ce73f39f32e6a1667ce69f902da1d005ee\",\"urls\":[\"bzz-raw://e8ffa2e264fa12444799cb5706ca577034f3f8be9ff7a2f072981de6a61d706d\",\"dweb:/ipfs/QmR6gQDymvk8JQ77J8VxpFD1Hnxga4w7LLiRvAT3m4LG6T\"],\"license\":\"MIT\"},\"node_modules/@bananapus/core/src/libraries/JBConstants.sol\":{\"keccak256\":\"0x9d3a9a953f859d8ec79a599577f8972de6da7199cc1bfa7fdad017d4d722bcb4\",\"urls\":[\"bzz-raw://f151fcb53a8d2684eff8b9e56ac790bcbcadd8199a4fd4d17c5b224b22936722\",\"dweb:/ipfs/QmdAz1ZtCE8nTiC4AxQNLfJhnY3ndGum2Lbef7seKdvTdR\"],\"license\":\"MIT\"},\"node_modules/@bananapus/core/src/libraries/JBMetadataResolver.sol\":{\"keccak256\":\"0xdbe40563934ac1618c9ba15f92d3efc47383534b5b8889bf5aae092927be9e87\",\"urls\":[\"bzz-raw://630534d226e7b1f86907f48c70b0d5593ad5682936330fe2737082e4383e8a56\",\"dweb:/ipfs/QmfTVQ6M3eVYBJRZH3693Axo7yBoR5mr2YvHHwx6nvJojZ\"],\"license\":\"MIT\"},\"node_modules/@bananapus/core/src/libraries/JBSplitGroupIds.sol\":{\"keccak256\":\"0x932ca2645d443f04f86c8ffb27b5c58c4fbdc7b5a145fba1d43f1db9bd488a0f\",\"urls\":[\"bzz-raw://fa412d2c5726a868a258cd518648726b0784ab7ac7566376b82ba09680f66227\",\"dweb:/ipfs/QmZvfjBt7PQzTWNzrhysyHBegUbbu4aY2xDzBGnwqMaqnF\"],\"license\":\"MIT\"},\"node_modules/@bananapus/core/src/structs/JBAccountingContext.sol\":{\"keccak256\":\"0x2907ff54d1e903cc7e0390dd88c3975884702dc2673642aacbe22b66560b56de\",\"urls\":[\"bzz-raw://a66a5381ce877b32f0e0058ceeaf843e9b6b2bc8af666c0c9f4a9d01091da004\",\"dweb:/ipfs/QmQynCetUr37dBkS1YwDS8evxuXGiqanW6THmeUxXtim8w\"],\"license\":\"MIT\"},\"node_modules/@bananapus/core/src/structs/JBAfterPayRecordedContext.sol\":{\"keccak256\":\"0xd26c3a774ff38be79064085970454fe2603a23a638c76270d5b1b3829206c3e8\",\"urls\":[\"bzz-raw://3b55dbe3bf1ef625b7ca04efab3de35406e6041d5b3d82c7265469c500e2b702\",\"dweb:/ipfs/QmUdBDo4Lt3mcsFcsXT2mqq3czFwZjQJFPLM89YA2VtD7k\"],\"license\":\"MIT\"},\"node_modules/@bananapus/core/src/structs/JBAfterRedeemRecordedContext.sol\":{\"keccak256\":\"0x521f5d23a36f0da72362cd84890cc867bd83baa8dc836ba6c5066d51dba2f163\",\"urls\":[\"bzz-raw://6cc461313286dde62d045d6288e87bae5032e035796326f5b1ed6218e58aa9da\",\"dweb:/ipfs/QmQS2AkQwf2ANQieDuaUnpJEdXChoLv4CCbZqHkfywYPSR\"],\"license\":\"MIT\"},\"node_modules/@bananapus/core/src/structs/JBBeforePayRecordedContext.sol\":{\"keccak256\":\"0x5b04e814da83c7e83ff892ab07eaad6abce6f7b85a75f8da9380e9fc3470bc81\",\"urls\":[\"bzz-raw://11c889aab993fce3e3cc2dedc15fc30dd367e7fef9b7b1bfd6a6a9f248781731\",\"dweb:/ipfs/QmVVtydCD1azeWhGLxA1hthxfLyKzMHZ1eVzCz3a3R5dLy\"],\"license\":\"MIT\"},\"node_modules/@bananapus/core/src/structs/JBBeforeRedeemRecordedContext.sol\":{\"keccak256\":\"0x73eadaf6827e82f6ccbe3a1e2b2b7fc6c59cef471f73335041b30ddcc000989d\",\"urls\":[\"bzz-raw://2f3ee84662eed565dbdaed406ef836fffaf55cccd417575578152e5085d0b1f2\",\"dweb:/ipfs/QmaJGFS7hxJsiUdKvbv5BKhSwceDEzKBnt7t5YeNWvYgMK\"],\"license\":\"MIT\"},\"node_modules/@bananapus/core/src/structs/JBCurrencyAmount.sol\":{\"keccak256\":\"0x12fe4b43f4824994624d4fe0abbd88c3fe7867fd637edb65c7f456dab27e2d6e\",\"urls\":[\"bzz-raw://8003a3e8f932cf891e86b827e67c9d31b0d34c2712e18c2bc333cfe5284ba6d5\",\"dweb:/ipfs/QmSoA6RsDcSnNzk6CB7KZtALkHmeSDAi2g6fg3TDmLDkWX\"],\"license\":\"MIT\"},\"node_modules/@bananapus/core/src/structs/JBFundAccessLimitGroup.sol\":{\"keccak256\":\"0x9fdaa8d017b72da25f583700a444a86849df053f7fb8eac874ec5139bcf651e5\",\"urls\":[\"bzz-raw://c8e44c49ee444a98424a0dbeb6897a76a0bf00d88a613f62ac2012afdac754ee\",\"dweb:/ipfs/QmdYkAiRi5bXM1YYNkc7BiqimHSFodMGn1cjHR5hcpm4xH\"],\"license\":\"MIT\"},\"node_modules/@bananapus/core/src/structs/JBPayHookSpecification.sol\":{\"keccak256\":\"0x955f0bfca97300b9e5927dc181753830ee362f83fa9ca32a90daade32aa0cfd5\",\"urls\":[\"bzz-raw://f517af1597c7c40f8d3da53f7a6684a3e162950a16559d6bf6ea3b727bb11546\",\"dweb:/ipfs/QmRWo2ZTYXmVZTzNJDYhsJNsEaHphjpUfx9eNz2cciyz86\"],\"license\":\"MIT\"},\"node_modules/@bananapus/core/src/structs/JBPermissionsData.sol\":{\"keccak256\":\"0x8f0f69a6ebf5f3704e3dfcb3712fb9d3f94ae7c1ab89bf3e37bad42a3e7a0487\",\"urls\":[\"bzz-raw://57b0c5e52843e2217082889ed47b4da3943e0da4590d5768dcebfe3edad4a6b8\",\"dweb:/ipfs/QmRz48vuWLw81kUP836rh1qzqWiJFGbksgRUA9xGEDNKTY\"],\"license\":\"MIT\"},\"node_modules/@bananapus/core/src/structs/JBRedeemHookSpecification.sol\":{\"keccak256\":\"0x673d16ee1a91bf8de3b37e57284e60451b70a9c2d748c9cdc7a151f5624af18f\",\"urls\":[\"bzz-raw://ceeb5e81effa0f076c5630c756dfcf1548d09f822b255a0a6ee01e54de8c8ae2\",\"dweb:/ipfs/QmSMoMNPRhPMnuJNvWa6S59XRfycGz9o2ApNp63bUW6TdX\"],\"license\":\"MIT\"},\"node_modules/@bananapus/core/src/structs/JBRuleset.sol\":{\"keccak256\":\"0x15b2bf3174d84846a91ccbf5a344dfb125b55ed9cf50102db8d6868844225189\",\"urls\":[\"bzz-raw://647416b025dbd941094db89cbc69f755c155bd6c87be3f322394ccc4a8e0442d\",\"dweb:/ipfs/QmTCL9xcHnxQ4t5AmCPoZvXDUPW5xhzhyyXYbkMdyg44au\"],\"license\":\"MIT\"},\"node_modules/@bananapus/core/src/structs/JBRulesetConfig.sol\":{\"keccak256\":\"0x344405b459a345fa2cb072b162422b4e85e435ff6ee82eb2c382bf52db929f10\",\"urls\":[\"bzz-raw://e067a0c3fd190cd00177800f8f065264985d4f6737a758f068a8bf5ed1cfdad0\",\"dweb:/ipfs/QmPAMiyfi1cDtandkMSXgoNdo3WLvwmvdcPGeKiot9TTaz\"],\"license\":\"MIT\"},\"node_modules/@bananapus/core/src/structs/JBRulesetMetadata.sol\":{\"keccak256\":\"0xfea54c9f98416d2aa05309e7ff76967d6968a614850a1e33e48fde793ea8b514\",\"urls\":[\"bzz-raw://bf55386cbab90dbc1296b2b0cbfdc217a4500d67702e4a093a4c78bd127ecd5c\",\"dweb:/ipfs/QmTRq9mZrNSXu7oCZwti4JbBFrbY6A5msRqi9RbtL49NAj\"],\"license\":\"MIT\"},\"node_modules/@bananapus/core/src/structs/JBRulesetWithMetadata.sol\":{\"keccak256\":\"0x1bcfadf20488f6df65227f8d4d0fbf9b7539456a2389567f7fe3900d23289bc3\",\"urls\":[\"bzz-raw://0a15c399a71e5373f8c0484c6d6b83521eda31e063a2c53e4c5cec4e74550343\",\"dweb:/ipfs/QmQwi8zkjoTVXbK89NeETYimWCacTrNsesJdpLSvGdqMPX\"],\"license\":\"MIT\"},\"node_modules/@bananapus/core/src/structs/JBSplit.sol\":{\"keccak256\":\"0x1d40fa4f1c911a53b9139f3d44d27cb58fa5c5d2cd793c7a21ccf52b9e61f848\",\"urls\":[\"bzz-raw://9897d2c29fc65fe16e4eac0b7b8b6fd8ef0b0cc501986f7f0c3a78c4ec1dbb60\",\"dweb:/ipfs/QmXcHoVjCYWWCz4hm2KZ6JxtB4YNq7jmXa2evLkga59Xwq\"],\"license\":\"MIT\"},\"node_modules/@bananapus/core/src/structs/JBSplitGroup.sol\":{\"keccak256\":\"0xda7da6e88aac2906c7ea4027660088daf217edc632bebca4d72795aae8921564\",\"urls\":[\"bzz-raw://ae1939d17e94cb51484f31ce64cf0df990445a338fb9b38d39a7baf28275ae4a\",\"dweb:/ipfs/QmUhPnJiWnYhFdtLvZnrPopAdbYXxETpGjvxjPDignpTGY\"],\"license\":\"MIT\"},\"node_modules/@bananapus/core/src/structs/JBSplitHookContext.sol\":{\"keccak256\":\"0xfe34e6860b00ca93d71f44e72882281b2c57c31303151af05795c74cfdd2e51d\",\"urls\":[\"bzz-raw://08acab094888e9c929b6f6f972d89ddbb31e5867675e7e7c602d25fcb2c0f402\",\"dweb:/ipfs/QmPNdXM185cTyXQSodVr4JMviHx88jrWu7dipgkp9xTNgJ\"],\"license\":\"MIT\"},\"node_modules/@bananapus/core/src/structs/JBTerminalConfig.sol\":{\"keccak256\":\"0x141b5d45c0b58dcddb1eeab34ec00c18c60415f8e594d1852c53e6f79dfe53ee\",\"urls\":[\"bzz-raw://ca995ea354eac6f5ebc8ef4fd5c8ece8c88698bac96da65c7aaa497a7bc0f582\",\"dweb:/ipfs/Qmf2BS1LHXtoQJuUYt4UisvYpA5dmieSq1gs51iQjNh2bw\"],\"license\":\"MIT\"},\"node_modules/@bananapus/core/src/structs/JBTokenAmount.sol\":{\"keccak256\":\"0x5cf0626b73a596c1e2da17c89ae039a7c0374310b060d48568d3b6c11fbe6180\",\"urls\":[\"bzz-raw://63348b50be95e2995409394a17caffc563a646f0972650a1230bf864fbd3219b\",\"dweb:/ipfs/QmZXZpS3SbFD5nWaCauf6AqbEhLURv5qsKHpThBvQgDU6u\"],\"license\":\"MIT\"},\"node_modules/@bananapus/ownable/src/JBOwnable.sol\":{\"keccak256\":\"0x4e8cfa06094e28b2b2ff682a58c1826708e00d18c3f7fa3d090dc1704d1754a0\",\"urls\":[\"bzz-raw://304b60474cd8ba0841d443c50961dcfaeea153757200935e7552919792b31041\",\"dweb:/ipfs/QmfXSn24EAZwesWLqzsdRKpQSbHq5s2K4fdJSMTSDxgSkL\"],\"license\":\"MIT\"},\"node_modules/@bananapus/ownable/src/JBOwnableOverrides.sol\":{\"keccak256\":\"0xdd96e5107de0e59aab8549a705815929aa40bb3caca06092783cdee7cbc4def1\",\"urls\":[\"bzz-raw://678846e476ce1fc6504fff7f1245593fdd49a5881e4657e820eaee3510038160\",\"dweb:/ipfs/QmPNSgJkZJpbSWQfkQBmhKAXjD8CC8spqv3MYLPb3utXca\"],\"license\":\"MIT\"},\"node_modules/@bananapus/ownable/src/interfaces/IJBOwnable.sol\":{\"keccak256\":\"0x2c513558439d763df03e8a68c1aef698618182fd44c285405c35597d52c65ad1\",\"urls\":[\"bzz-raw://11cc25c41fccc20cca29f93dd120e67760188fd2040ef0330a093d37fbfa2f8f\",\"dweb:/ipfs/QmWpxcv41eYmsNYT3ph1nts5pC7sp3EzwJxKDGebMqEbsH\"],\"license\":\"MIT\"},\"node_modules/@bananapus/ownable/src/struct/JBOwner.sol\":{\"keccak256\":\"0x5624ba356f01f722984c1b857a106f413b12e57bae1f762a81c16ee511e3325a\",\"urls\":[\"bzz-raw://3120b5649ac8b55158df138dcac03f6850fc988cc5a24a7cb06e6581265ca284\",\"dweb:/ipfs/QmQBSLxRT9j1MEERUt8dWbSsAjianbHpM2CFwciLK7MwaP\"],\"license\":\"MIT\"},\"node_modules/@bananapus/permission-ids/src/JBPermissionIds.sol\":{\"keccak256\":\"0xa21681d89f2cf9265a10e6fa63301658ccc62635058cd3c8307aaaec1a045ff3\",\"urls\":[\"bzz-raw://0c825382afb76e79feb81425991637d50d1f1fc4ccaa12953f1e1042853db8d3\",\"dweb:/ipfs/QmPAsLuTziQx8R5PzYrLYDKybc6Ykq8fwG46ofRxQwdjgn\"],\"license\":\"UNLICENSED\"},\"node_modules/@bananapus/suckers/src/interfaces/IBPSucker.sol\":{\"keccak256\":\"0x02a78d0c6d048fc4ead0fc2f0582bc81a216dc1f097d1e0e3a34a7b2c9490894\",\"urls\":[\"bzz-raw://173df43569bcb1a0daea23b997d67f4c68150cd722b2ce858e5c9fe01cf113e6\",\"dweb:/ipfs/QmaDXu6Xp9sRksBdry2p5turGJ5Uvhnzpwhs6UEXhqorM4\"],\"license\":\"MIT\"},\"node_modules/@bananapus/suckers/src/interfaces/IBPSuckerDeployer.sol\":{\"keccak256\":\"0xe252e890c4b5e12d5fa537a11cd2fad936f41be80240301ace8afca3de481222\",\"urls\":[\"bzz-raw://730855964dd0629f3d514ed52f59d80d02786733c3b8b5cf21e69524de7f8829\",\"dweb:/ipfs/QmUuoYEmnzUNn3hANGrg8sDZdjoaEbgWMWLepsSQt9MUyw\"],\"license\":\"MIT\"},\"node_modules/@bananapus/suckers/src/interfaces/IBPSuckerRegistry.sol\":{\"keccak256\":\"0xd6c68475ca7163782ebd2aacc2c9330def7e903c7b58d4990b0851551ec5cfe1\",\"urls\":[\"bzz-raw://776732725d15803f813cf727d5f1b0cf44b414df0611cbdbd821d4d993b184b9\",\"dweb:/ipfs/QmbgZF9KmcLZ6KAZwfuhP9ve7ukeJa2DdZxiVV6dMxzYK6\"],\"license\":\"UNLICENSED\"},\"node_modules/@bananapus/suckers/src/structs/BPSuckerDeployerConfig.sol\":{\"keccak256\":\"0x867e10bc73a07ab19cf5511d047dc885e3cfae58fc5f3441f6a5d3174afe6b78\",\"urls\":[\"bzz-raw://b8c3e72e57958bb2e2b8072ac6055804598c080a748fbc2f40a783575435809e\",\"dweb:/ipfs/QmbY7W6i5qAAj42EsQX8yt8M8nXArXByEGosnHWyxs4BE7\"],\"license\":\"MIT\"},\"node_modules/@bananapus/suckers/src/structs/BPTokenMapping.sol\":{\"keccak256\":\"0x84865bda925cdc9a608cbbfc487619acba391f98ae12bbbfdbc5779d617a17d9\",\"urls\":[\"bzz-raw://3bbc1fdd38feaf64fd4914bddb62cda7e5b8ee0f046a0eac8cfcb15f9493bcc5\",\"dweb:/ipfs/QmXgAx7sr1M8r71YrSeQJGAB1uhvdxpQyS633UgJvLCQfb\"],\"license\":\"MIT\"},\"node_modules/@croptop/core/src/CTPublisher.sol\":{\"keccak256\":\"0xfbe142d1a360651b86c105f32aaae7ec9bd476f93b6367138a90a5680e81adca\",\"urls\":[\"bzz-raw://63fccce679658cdafd516bee0c8757173c7adfabfe25a4d8b2ea057f46c321aa\",\"dweb:/ipfs/QmfL6NTxTcrJVTRxyiBku1hJSkZPLdBJse1SPmjjszw3cS\"],\"license\":\"MIT\"},\"node_modules/@croptop/core/src/structs/CTAllowedPost.sol\":{\"keccak256\":\"0x82f6cd062f1cba83c988a426c44151cfc1eae0b301c4dc135e5e7dac3e73eb40\",\"urls\":[\"bzz-raw://f76d5ae0e1aabb45e34450ffaa2a97804162a1ba1f1aa649de1c20312db7fcca\",\"dweb:/ipfs/QmdDggUUfQYagnXGGThcUevADHPyokvGtGBsDMCc9RxU1A\"],\"license\":\"MIT\"},\"node_modules/@croptop/core/src/structs/CTPost.sol\":{\"keccak256\":\"0x7e3dd85bc455816d7cf1b260fe53c7b1ff7512fce75ce3b6d9fdc094bcda33c8\",\"urls\":[\"bzz-raw://6cc25819e7ef95cb45ea71c54af01db95f75d0ccf1a23390a6153f4ae7df1c88\",\"dweb:/ipfs/QmTJCj1Rn7uEXRcaZBNqxrBXWXM9f24dphb9TaoLe3Ts41\"],\"license\":\"MIT\"},\"node_modules/@openzeppelin/contracts/token/ERC20/IERC20.sol\":{\"keccak256\":\"0xc6a8ff0ea489379b61faa647490411b80102578440ab9d84e9a957cc12164e70\",\"urls\":[\"bzz-raw://0ea104e577e63faea3b69c415637e99e755dcbf64c5833d7140c35a714d6d90c\",\"dweb:/ipfs/Qmau6x4Ns9XdyynRCNNp3RhLqijJjFm7z5fyZazfYFGYdq\"],\"license\":\"MIT\"},\"node_modules/@openzeppelin/contracts/token/ERC721/IERC721.sol\":{\"keccak256\":\"0x5ef46daa3b58ef2702279d514780316efaa952915ee1aa3396f041ee2982b0b4\",\"urls\":[\"bzz-raw://2f8f2a76e23b02fc69e8cd24c3cb47da6c7af3a2d6c3a382f8ac25c6e094ade7\",\"dweb:/ipfs/QmPV4ZS4tPVv4mTCf9ejyZ1ai57EEibDRj7mN2ARDCLV5n\"],\"license\":\"MIT\"},\"node_modules/@openzeppelin/contracts/token/ERC721/IERC721Receiver.sol\":{\"keccak256\":\"0x7f7a26306c79a65fb8b3b6c757cd74660c532cd8a02e165488e30027dd34ca49\",\"urls\":[\"bzz-raw://d01e0b2b837ee2f628545e54d8715b49c7ef2befd08356c2e7f6c50dde8a1c22\",\"dweb:/ipfs/QmWBAn6y2D1xgftci97Z3qR9tQnkvwQpYwFwkTvDMvqU4i\"],\"license\":\"MIT\"},\"node_modules/@openzeppelin/contracts/utils/Context.sol\":{\"keccak256\":\"0x493033a8d1b176a037b2cc6a04dad01a5c157722049bbecf632ca876224dd4b2\",\"urls\":[\"bzz-raw://6a708e8a5bdb1011c2c381c9a5cfd8a9a956d7d0a9dc1bd8bcdaf52f76ef2f12\",\"dweb:/ipfs/Qmax9WHBnVsZP46ZxEMNRQpLQnrdE4dK8LehML1Py8FowF\"],\"license\":\"MIT\"},\"node_modules/@openzeppelin/contracts/utils/introspection/ERC165.sol\":{\"keccak256\":\"0x9e8778b14317ba9e256c30a76fd6c32b960af621987f56069e1e819c77c6a133\",\"urls\":[\"bzz-raw://1777404f1dcd0fac188e55a288724ec3c67b45288e49cc64723e95e702b49ab8\",\"dweb:/ipfs/QmZFdC626GButBApwDUvvTnUzdinevC3B24d7yyh57XkiA\"],\"license\":\"MIT\"},\"node_modules/@openzeppelin/contracts/utils/introspection/IERC165.sol\":{\"keccak256\":\"0x4296879f55019b23e135000eb36896057e7101fb7fb859c5ef690cf14643757b\",\"urls\":[\"bzz-raw://87b3541437c8c443ccd36795e56a338ed12855eec17f8da624511b8d1a7e14df\",\"dweb:/ipfs/QmeJQCtZrQjtJLr6u7ZHWeH3pBnjtLWzvRrKViAi7UZqxL\"],\"license\":\"MIT\"},\"node_modules/@uniswap/v3-core/contracts/interfaces/IUniswapV3Pool.sol\":{\"keccak256\":\"0x4e64844c56061cd90e0a80de73534a9166704c43eed579eb83f90bc2780ce968\",\"urls\":[\"bzz-raw://cba4fab5cebdddf644b901994a7f0f52b98885d4c56012f4dc51d52c2bf9de0e\",\"dweb:/ipfs/QmVyyrRmqXrAiapewWunRVgiPVFJHpH2hKiE1py1svMSNV\"],\"license\":\"GPL-2.0-or-later\"},\"node_modules/@uniswap/v3-core/contracts/interfaces/callback/IUniswapV3SwapCallback.sol\":{\"keccak256\":\"0x3f485fb1a44e8fbeadefb5da07d66edab3cfe809f0ac4074b1e54e3eb3c4cf69\",\"urls\":[\"bzz-raw://095ce0626b41318c772b3ebf19d548282607f6a8f3d6c41c13edfbd5370c8652\",\"dweb:/ipfs/QmVDZfJJ89UUCE1hMyzqpkZAtQ8jUsBgZNE5AMRG7RzRFS\"],\"license\":\"GPL-2.0-or-later\"},\"node_modules/@uniswap/v3-core/contracts/interfaces/pool/IUniswapV3PoolActions.sol\":{\"keccak256\":\"0x9453dd0e7442188667d01d9b65de3f1e14e9511ff3e303179a15f6fc267f7634\",\"urls\":[\"bzz-raw://982f4328f956c3e60e67501e759eb292ac487f76460c774c50e9ae4fcc92aae5\",\"dweb:/ipfs/QmRnzEDsaqtd9PJEVcgQi7p5aV5pMSvRUoGZJAdwFUJxgZ\"],\"license\":\"GPL-2.0-or-later\"},\"node_modules/@uniswap/v3-core/contracts/interfaces/pool/IUniswapV3PoolDerivedState.sol\":{\"keccak256\":\"0xe603ac5b17ecdee73ba2b27efdf386c257a19c14206e87eee77e2017b742d9e5\",\"urls\":[\"bzz-raw://8febc9bdb399a4d94bb89f5377732652e2400e4a8dee808201ade6848f9004e7\",\"dweb:/ipfs/QmaKDqYYFU4d2W2iN77aDHptfbFmYZRrMYXHeGpJmM8C1c\"],\"license\":\"GPL-2.0-or-later\"},\"node_modules/@uniswap/v3-core/contracts/interfaces/pool/IUniswapV3PoolErrors.sol\":{\"keccak256\":\"0xf80abf13fb1fafc127ba4e792f240dd8ea7c8c893978cdfd8439c27fae9a037b\",\"urls\":[\"bzz-raw://b04fc72a656bbf3631e9c2e67b9870a2d9d235185e833fe050e9606e6816a9aa\",\"dweb:/ipfs/QmUcz4bkEkJ9pwzFu1C3n97hBQ3st9U6qTAqCdyFwddKco\"],\"license\":\"GPL-2.0-or-later\"},\"node_modules/@uniswap/v3-core/contracts/interfaces/pool/IUniswapV3PoolEvents.sol\":{\"keccak256\":\"0x8071514d0fe5d17d6fbd31c191cdfb703031c24e0ece3621d88ab10e871375cd\",\"urls\":[\"bzz-raw://d0b571930cc7488b1d546a7e9cea7c52d8b3c4e207da657ed0e0db7343b8cd03\",\"dweb:/ipfs/QmaGK6vVwB95QSTR1XMYvrh7ivYAYZxi3fD7v6VMA4jZ39\"],\"license\":\"GPL-2.0-or-later\"},\"node_modules/@uniswap/v3-core/contracts/interfaces/pool/IUniswapV3PoolImmutables.sol\":{\"keccak256\":\"0xf6e5d2cd1139c4c276bdbc8e1d2b256e456c866a91f1b868da265c6d2685c3f7\",\"urls\":[\"bzz-raw://b99c8c9ae8e27ee6559e5866bea82cbc9ffc8247f8d15b7422a4deb287d4d047\",\"dweb:/ipfs/QmfL8gaqt3ffAnm6nVj5ksuNpLygXuL3xq5VBqrkwC2JJ3\"],\"license\":\"GPL-2.0-or-later\"},\"node_modules/@uniswap/v3-core/contracts/interfaces/pool/IUniswapV3PoolOwnerActions.sol\":{\"keccak256\":\"0x759b78a2918af9e99e246dc3af084f654e48ef32bb4e4cb8a966aa3dcaece235\",\"urls\":[\"bzz-raw://64144fb96e1c7fdba87305acadb98a198d26a3d46c097cb3a666e567f6f29735\",\"dweb:/ipfs/QmUnWVwN9FKB9uV5Pr8YfLpWZnYM2DENnRMaadZ492JS9u\"],\"license\":\"GPL-2.0-or-later\"},\"node_modules/@uniswap/v3-core/contracts/interfaces/pool/IUniswapV3PoolState.sol\":{\"keccak256\":\"0x44fa2ce1182f6c2f6bead3d1737804bf7e112252ae86e0f2e92f9b8249603f43\",\"urls\":[\"bzz-raw://54154e8665b98d65f5dc91b256551852cb47882180b501b260657122d207c0ea\",\"dweb:/ipfs/QmcfemK1A2PXYrWB5SBFGERpMCderbFRb8BtTzQDj1sUBp\"],\"license\":\"GPL-2.0-or-later\"},\"src/REVBasicDeployer.sol\":{\"keccak256\":\"0x716d989428131382b33ca935104e2a801788e5e4b7882bdda4b08ea0a727a25f\",\"urls\":[\"bzz-raw://d8f31ae29acac7e7eaaede62f460cebd2ce6cbc4de71de7f5fc1267ace85161a\",\"dweb:/ipfs/QmaJwuYjF3VhPwHkB5w6X3mUhd6KQtqKawhZMY1Mj61Cny\"],\"license\":\"MIT\"},\"src/REVCroptopDeployer.sol\":{\"keccak256\":\"0x9db8770d63a85439f10b2e744d70fd09155f81e1d111c06987dc6b02ced6927a\",\"urls\":[\"bzz-raw://935a104cf31a5976387512c6ca6b6c90fd37897a19731758a37681a8722c9bb8\",\"dweb:/ipfs/QmTdZh3vJ1dtd8dcRcHqQocPwggGrH2r1JKQNhmWo6BwZy\"],\"license\":\"MIT\"},\"src/REVPayHookDeployer.sol\":{\"keccak256\":\"0x71ece8c11b2bfdde4729de07279d424db586c1f4e835e7d3a262325d1fa7000f\",\"urls\":[\"bzz-raw://6678f04b157eccee26b8283c36748b7209e7b43ec5c93895d7fc91d5473dc8ab\",\"dweb:/ipfs/QmUiAVcJfnTdHKCTreC6fp7p8ug2R24yfyyUgaXiA37iBu\"],\"license\":\"MIT\"},\"src/REVTiered721HookDeployer.sol\":{\"keccak256\":\"0x9d232113ce1c89d447b2cdf4aa80f96dabaa6f677e117129d4741317a7815554\",\"urls\":[\"bzz-raw://b0a9eb0bfefaac444e6fd8024a00d6458ed495e36123f96846d3b2e8b4d165aa\",\"dweb:/ipfs/QmZVf7NiV53X34TvfHDcLVYPXrtxZBU56gvdAR3LCv1TJH\"],\"license\":\"MIT\"},\"src/interfaces/IREVBasicDeployer.sol\":{\"keccak256\":\"0x423c94dc2bccf82fcf5f9cf6554ab6951cb1d5c853066e01381560123d5e7b8d\",\"urls\":[\"bzz-raw://7f035583b823f96c6b96ead45fdcac6f1cd0c2046b7da5c50bc7f8f2f35a93c0\",\"dweb:/ipfs/QmSfyNXGNXF62sHeQ5qHBuokQNpsemnwqs1imrxGjQ2MeK\"],\"license\":null},\"src/structs/REVBuybackHookConfig.sol\":{\"keccak256\":\"0xdae5ecff2ff2a04c0aab17093f023b2161994dc0e6e2adc5006d36d157eb09aa\",\"urls\":[\"bzz-raw://5e0eed08e652290f59c0d18565df21be3fc7b33ca3fa41c393461472479e4a7f\",\"dweb:/ipfs/QmfZcbmdvYDQwEE4eesGpcxdojAm9BhJ81fdkxjX9LU9Sa\"],\"license\":\"MIT\"},\"src/structs/REVBuybackPoolConfig.sol\":{\"keccak256\":\"0x83f2a3875a8b1955856b72bfddd90c0cc2fbe26697f1dd4e13b33c0319049a14\",\"urls\":[\"bzz-raw://e1e37d0eb626221b6a8774a155a3799dc5cf0b497d26263ef323ed768d61a0dc\",\"dweb:/ipfs/QmcSPDAaPemjh3a1XycV4qDMJwctnuwiKe3wXrRUjotKAB\"],\"license\":\"MIT\"},\"src/structs/REVConfig.sol\":{\"keccak256\":\"0x4f8dc19d47b7bc25bf9e0c00c88c8c2fb67a54eb6218e44ae142df779e5a7841\",\"urls\":[\"bzz-raw://3acc4ce8cf6295d5e4e29923fa3fb53dd001a61eec699308124cde47129a4d8d\",\"dweb:/ipfs/QmRVJDwLm5E8HaN7jV2d4vee1ZZwhuY2o9jrfHromggj7J\"],\"license\":\"MIT\"},\"src/structs/REVCroptopAllowedPost.sol\":{\"keccak256\":\"0xbeba2acfc8a139c2c9d7c3feb5ba14b369e030aeaa21b3d1ef35fc08ea5ecb7b\",\"urls\":[\"bzz-raw://34e756eb728e230de3b411b92272a10807c3a25adab48eba41b4da6c233a7ecc\",\"dweb:/ipfs/QmSDm1FYFXo8MVTutjyPMrCrNzsJproX8guN2htT3Jzsxq\"],\"license\":\"MIT\"},\"src/structs/REVDeploy721TiersHookConfig.sol\":{\"keccak256\":\"0x6dec52939e342a5e7c687850b3e7222857f49fd7819c0056bafe8fcabfe8f216\",\"urls\":[\"bzz-raw://afb89096d51603b25e68c099eb92741821fcbf7e876fc71955d6a2c2ca27c32b\",\"dweb:/ipfs/QmSy8GS1NJL1FCtPBS4nvVp4KsLJvJRmvTtuLbmgLSR2vt\"],\"license\":\"MIT\"},\"src/structs/REVDescription.sol\":{\"keccak256\":\"0x442ed3ba702044b41ca22679ad953bba22dcaef32ae6bb5b2dafac05652ba71d\",\"urls\":[\"bzz-raw://fafc3ad3ef04a26877cce8d6f53b1d1b2402a97b27e2f6154ee3a85414fa7914\",\"dweb:/ipfs/Qmd5gvhjRJk7ZkWQT31Wc2ssSqCZ3zyrc5n4CeffWuh8xd\"],\"license\":\"MIT\"},\"src/structs/REVStageConfig.sol\":{\"keccak256\":\"0x283d1e0c8cb246bca2be6a04c6f4ed9d657c07fa97f14cbca19ef9536d40057b\",\"urls\":[\"bzz-raw://0c6333266729cbb9e18ade3e215d8aa4774df4050c281691d12d18b89ab74513\",\"dweb:/ipfs/QmVmPPEm5pD57wA4mAbz4LPLPwWR4Wt3WT3DbEALa9PmxM\"],\"license\":\"MIT\"},\"src/structs/REVSuckerDeploymentConfig.sol\":{\"keccak256\":\"0xed607665da0efa1a1662a7e094095f336bef2d6694f79e5d8158cacf73c34dac\",\"urls\":[\"bzz-raw://c8c68b67a28a7dfc060596cfb98b7fc05ad0c9b61482f60a04810bc68cc0b8e3\",\"dweb:/ipfs/QmeLH5z8J6DDjRQXfJi4BoMmQqY4zTjERYfSzu8Uypkawp\"],\"license\":\"MIT\"}},\"version\":1}",
			"args": [
				"0xdAF6226Aafe296bbCCBEC815133386Cd910Ed582",
				"0xcDFA45A183fa6841eD1Ef8550FCa0a8aAb42eC34",
				"0x06350909758b8c7B07f2782dB1b9B821d807D06C",
				"0x4Be9d88bE6e7A38644EA746cF78cB1BF30051C76"
			],
			"bytecode": "0x60e06040523480156200001157600080fd5b5060405162005bd538038062005bd58339810160408190526200003491620000f9565b6001600160a01b03938416608052831660a052600280546001808201835560127f405787fa12a823e0f2b7631cc41b3ba8828b3321ca811111fa75cd3aa3bb5ace9283015582548082019093556019929091019190915591831660c052600480546001600160a01b031916919093161790915560058054918201815560005260167f036b6384b5eca791c62761152d0c79bb0604c104a5fb6f4eb0703f3154bb3db09091015562000161565b6001600160a01b0381168114620000f657600080fd5b50565b600080600080608085870312156200011057600080fd5b84516200011d81620000e0565b60208601519094506200013081620000e0565b60408601519093506200014381620000e0565b60608601519092506200015681620000e0565b939692955090935050565b60805160a05160c0516159b86200021d600039600081816103490152611d0c01526000818161037001528181610c0801528181610ff3015281816116c401528181611a5a015281816124bb015261255a0152600081816103dd0152818161049c015281816107cc0152818161112d015281816112e0015281816114bc0152818161181801528181611b0201528181611ee001528181612022015281816120c701528181612163015281816122ec015261240501526159b86000f3fe608060405234801561001057600080fd5b50600436106101515760003560e01c80637485ecf3116100cd578063b5d2553311610081578063d3cee0ee11610066578063d3cee0ee146103a5578063dbfbe5da146103b8578063ee0fc121146103d857600080fd5b8063b5d255331461036b578063bb1994021461039257600080fd5b80639d82ba25116100b25780639d82ba2514610317578063aaf320d714610321578063abf8c5c81461034457600080fd5b80637485ecf3146102ef57806389b396ab1461030257600080fd5b806343681e15116101245780635c0a7cee116101095780635c0a7cee14610261578063677ce088146102815780637249a7731461029457600080fd5b806343681e15146102205780634c4ffc711461024057600080fd5b806301ffc9a714610156578063150b7a021461017e578063158b48b5146101c25780633fe422bd146101ff575b600080fd5b610169610164366004612f56565b6103ff565b60405190151581526020015b60405180910390f35b61019161018c366004612fd4565b610498565b6040517fffffffff000000000000000000000000000000000000000000000000000000009091168152602001610175565b6101d56101d0366004613f19565b6105ac565b6040805192835273ffffffffffffffffffffffffffffffffffffffff909116602083015201610175565b61021261020d366004614045565b610977565b604051908152602001610175565b61021261022e366004614126565b60016020526000908152604090205481565b61025361024e36600461413f565b6109a1565b604051610175929190614288565b61027461026f366004614126565b610e59565b60405161017591906142a9565b61016961028f3660046142bc565b610f8a565b6102ca6102a2366004614126565b60006020819052908152604090205473ffffffffffffffffffffffffffffffffffffffff1681565b60405173ffffffffffffffffffffffffffffffffffffffff9091168152602001610175565b6102126102fd3660046142ec565b611111565b6103156103103660046142bc565b61112b565b005b6102126276a70081565b61033461032f366004614399565b6116a7565b60405161017594939291906143d5565b6102ca7f000000000000000000000000000000000000000000000000000000000000000081565b6102ca7f000000000000000000000000000000000000000000000000000000000000000081565b6103156103a03660046144a0565b611816565b6101d56103b336600461450d565b611afd565b6004546102ca9073ffffffffffffffffffffffffffffffffffffffff1681565b6102ca7f000000000000000000000000000000000000000000000000000000000000000081565b60007fffffffff0000000000000000000000000000000000000000000000000000000082167f81c03c2e00000000000000000000000000000000000000000000000000000000148061049257507f01ffc9a7000000000000000000000000000000000000000000000000000000007fffffffff000000000000000000000000000000000000000000000000000000008316145b92915050565b60007f000000000000000000000000000000000000000000000000000000000000000073ffffffffffffffffffffffffffffffffffffffff1663293c49996040518163ffffffff1660e01b8152600401602060405180830381865afa158015610505573d6000803e3d6000fd5b505050506040513d601f19601f820116820180604052508101906105299190614614565b73ffffffffffffffffffffffffffffffffffffffff163373ffffffffffffffffffffffffffffffffffffffff161461056057600080fd5b73ffffffffffffffffffffffffffffffffffffffff85161561058157600080fd5b507f150b7a020000000000000000000000000000000000000000000000000000000095945050505050565b6000806105be8a8a8a8a8a8a8a611afd565b8451919350915060008167ffffffffffffffff8111156105e0576105e0613073565b60405190808252806020026020018201604052801561066057816020015b61064d6040518060c00160405280600073ffffffffffffffffffffffffffffffffffffffff16815260200160008152602001600081526020016000815260200160008152602001606081525090565b8152602001906001900390816105fe5790505b5090506106956040518060a0016040528060008152602001600081526020016000815260200160008152602001606081525090565b60005b83811015610738578681815181106106b2576106b2614631565b602002602001015191506040518060c001604052808673ffffffffffffffffffffffffffffffffffffffff16815260200183600001518152602001836020015181526020018360400151815260200183606001518152602001836080015181525083828151811061072557610725614631565b6020908102919091010152600101610698565b508551156107ca57600480546040517fab54877a00000000000000000000000000000000000000000000000000000000815273ffffffffffffffffffffffffffffffffffffffff9091169163ab54877a916107979189918791016146b2565b600060405180830381600087803b1580156107b157600080fd5b505af11580156107c5573d6000803e3d6000fd5b505050505b7f000000000000000000000000000000000000000000000000000000000000000073ffffffffffffffffffffffffffffffffffffffff1663f434c9146040518163ffffffff1660e01b8152600401602060405180830381865afa158015610835573d6000803e3d6000fd5b505050506040513d601f19601f820116820180604052508101906108599190614614565b73ffffffffffffffffffffffffffffffffffffffff166305d2912e306040518060600160405280600460009054906101000a900473ffffffffffffffffffffffffffffffffffffffff1673ffffffffffffffffffffffffffffffffffffffff168152602001898152602001600580548060200260200160405190810160405280929190818152602001828054801561091057602002820191906000526020600020905b8154815260200190600101908083116108fc575b50505050508152506040518363ffffffff1660e01b815260040161093592919061478f565b600060405180830381600087803b15801561094f57600080fd5b505af1158015610963573d6000803e3d6000fd5b505050505050509850989650505050505050565b600061098b878787308661ffff1689611ec7565b90506109978184612692565b9695505050505050565b60c0810135600090815260208190526040812054606090819073ffffffffffffffffffffffffffffffffffffffff168015610a91576040517f4c4ffc7100000000000000000000000000000000000000000000000000000000815273ffffffffffffffffffffffffffffffffffffffff821690634c4ffc7190610a28908890600401614912565b600060405180830381865afa158015610a45573d6000803e3d6000fd5b505050506040513d6000823e601f3d9081017fffffffffffffffffffffffffffffffffffffffffffffffffffffffffffffffe0168201604052610a8b9190810190614a01565b90945091505b815160c086013560009081526003602090815260408083208054825181850281018501909352808352941515949192909190849084015b82821015610bb95760008481526020908190206040805160608101825260038602909201805473ffffffffffffffffffffffffffffffffffffffff16835260018101549383019390935260028301805492939291840191610b2890614b67565b80601f0160208091040260200160405190810160405280929190818152602001828054610b5490614b67565b8015610ba15780601f10610b7657610100808354040283529160200191610ba1565b820191906000526020600020905b815481529060010190602001808311610b8457829003601f168201915b50505050508152505081526020019060010190610ac8565b50506040517f3d12cb8700000000000000000000000000000000000000000000000000000000815260c08b0135600482015292935060009273ffffffffffffffffffffffffffffffffffffffff7f0000000000000000000000000000000000000000000000000000000000000000169250633d12cb879150602401600060405180830381865afa158015610c51573d6000803e3d6000fd5b505050506040513d6000823e601f3d9081017fffffffffffffffffffffffffffffffffffffffffffffffffffffffffffffffe0168201604052610c979190810190614bba565b825181519192509084610cab576000610cae565b60015b60ff16610cbb8284614c83565b610cc59190614c83565b67ffffffffffffffff811115610cdd57610cdd613073565b604051908082528060200260200182016040528015610d2a57816020015b60408051606080820183526000808352602083015291810191909152815260200190600190039081610cfb5790505b50975060005b82811015610d7757848181518110610d4a57610d4a614631565b6020026020010151898281518110610d6457610d64614631565b6020908102919091010152600101610d30565b5060005b81811015610e0d576040518060600160405280858381518110610da057610da0614631565b602002602001015173ffffffffffffffffffffffffffffffffffffffff1681526020016000815260200160405180602001604052806000815250815250898285610dea9190614c83565b81518110610dfa57610dfa614631565b6020908102919091010152600101610d7b565b508415610e4d5786600081518110610e2757610e27614631565b6020026020010151888381518110610e4157610e41614631565b60200260200101819052505b50505050505050915091565b606060036000838152602001908152602001600020805480602002602001604051908101604052809291908181526020016000905b82821015610f7f5760008481526020908190206040805160608101825260038602909201805473ffffffffffffffffffffffffffffffffffffffff16835260018101549383019390935260028301805492939291840191610eee90614b67565b80601f0160208091040260200160405190810160405280929190818152602001828054610f1a90614b67565b8015610f675780601f10610f3c57610100808354040283529160200191610f67565b820191906000526020600020905b815481529060010190602001808311610f4a57829003601f168201915b50505050508152505081526020019060010190610e8e565b505050509050919050565b60008281526020819052604081205473ffffffffffffffffffffffffffffffffffffffff90811690831603610fc157506001610492565b6040517f3d12cb87000000000000000000000000000000000000000000000000000000008152600481018490526000907f000000000000000000000000000000000000000000000000000000000000000073ffffffffffffffffffffffffffffffffffffffff1690633d12cb8790602401600060405180830381865afa15801561104f573d6000803e3d6000fd5b505050506040513d6000823e601f3d9081017fffffffffffffffffffffffffffffffffffffffffffffffffffffffffffffffe01682016040526110959190810190614bba565b805190915060005b81811015611105578281815181106110b7576110b7614631565b602002602001015173ffffffffffffffffffffffffffffffffffffffff168573ffffffffffffffffffffffffffffffffffffffff16036110fd5760019350505050610492565b60010161109d565b50600095945050505050565b600061112285858530600087611ec7565b95945050505050565b7f000000000000000000000000000000000000000000000000000000000000000073ffffffffffffffffffffffffffffffffffffffff16631f47ce696040518163ffffffff1660e01b8152600401602060405180830381865afa158015611196573d6000803e3d6000fd5b505050506040513d601f19601f820116820180604052508101906111ba9190614614565b73ffffffffffffffffffffffffffffffffffffffff1663f434c9146040518163ffffffff1660e01b8152600401602060405180830381865afa158015611204573d6000803e3d6000fd5b505050506040513d601f19601f820116820180604052508101906112289190614614565b73ffffffffffffffffffffffffffffffffffffffff16630f5932f033308560026040518563ffffffff1660e01b81526004016112679493929190614c96565b602060405180830381865afa158015611284573d6000803e3d6000fd5b505050506040513d601f19601f820116820180604052508101906112a89190614d14565b6112de576040517f31fb21f300000000000000000000000000000000000000000000000000000000815260040160405180910390fd5b7f000000000000000000000000000000000000000000000000000000000000000073ffffffffffffffffffffffffffffffffffffffff16631f47ce696040518163ffffffff1660e01b8152600401602060405180830381865afa158015611349573d6000803e3d6000fd5b505050506040513d601f19601f8201168201806040525081019061136d9190614614565b73ffffffffffffffffffffffffffffffffffffffff1663f434c9146040518163ffffffff1660e01b8152600401602060405180830381865afa1580156113b7573d6000803e3d6000fd5b505050506040513d601f19601f820116820180604052508101906113db9190614614565b73ffffffffffffffffffffffffffffffffffffffff166305d2912e3060405180606001604052803373ffffffffffffffffffffffffffffffffffffffff168152602001868152602001600067ffffffffffffffff81111561143e5761143e613073565b604051908082528060200260200182016040528015611467578160200160208202803683370190505b508152506040518363ffffffff1660e01b815260040161148892919061478f565b600060405180830381600087803b1580156114a257600080fd5b505af11580156114b6573d6000803e3d6000fd5b505050507f000000000000000000000000000000000000000000000000000000000000000073ffffffffffffffffffffffffffffffffffffffff16631f47ce696040518163ffffffff1660e01b8152600401602060405180830381865afa158015611525573d6000803e3d6000fd5b505050506040513d601f19601f820116820180604052508101906115499190614614565b73ffffffffffffffffffffffffffffffffffffffff1663f434c9146040518163ffffffff1660e01b8152600401602060405180830381865afa158015611593573d6000803e3d6000fd5b505050506040513d601f19601f820116820180604052508101906115b79190614614565b73ffffffffffffffffffffffffffffffffffffffff166305d2912e3060405180606001604052808573ffffffffffffffffffffffffffffffffffffffff168152602001868152602001600280548060200260200160405190810160405280929190818152602001828054801561164c57602002820191906000526020600020905b815481526020019060010190808311611638575b50505050508152506040518363ffffffff1660e01b815260040161167192919061478f565b600060405180830381600087803b15801561168b57600080fd5b505af115801561169f573d6000803e3d6000fd5b505050505050565b60008080606073ffffffffffffffffffffffffffffffffffffffff7f0000000000000000000000000000000000000000000000000000000000000000166383db9d01604087018035906116fd9060208a01614d31565b6040517fffffffff0000000000000000000000000000000000000000000000000000000060e085901b168152600481019290925273ffffffffffffffffffffffffffffffffffffffff166024820152604401602060405180830381865afa15801561176c573d6000803e3d6000fd5b505050506040513d601f19601f820116820180604052508101906117909190614d14565b156117ad5761271085608001358660a0013593509350935061180f565b6040808601356000908152600160205220544210156117f8576040517f04c3b3cd00000000000000000000000000000000000000000000000000000000815260040160405180910390fd5b84610160013585608001358660a001359350935093505b9193509193565b7f000000000000000000000000000000000000000000000000000000000000000073ffffffffffffffffffffffffffffffffffffffff16631f47ce696040518163ffffffff1660e01b8152600401602060405180830381865afa158015611881573d6000803e3d6000fd5b505050506040513d601f19601f820116820180604052508101906118a59190614614565b73ffffffffffffffffffffffffffffffffffffffff1663f434c9146040518163ffffffff1660e01b8152600401602060405180830381865afa1580156118ef573d6000803e3d6000fd5b505050506040513d601f19601f820116820180604052508101906119139190614614565b73ffffffffffffffffffffffffffffffffffffffff16630f5932f033308660026040518563ffffffff1660e01b81526004016119529493929190614c96565b602060405180830381865afa15801561196f573d6000803e3d6000fd5b505050506040513d601f19601f820116820180604052508101906119939190614d14565b6119c9576040517f31fb21f300000000000000000000000000000000000000000000000000000000815260040160405180910390fd5b6000338383602001516040516020016119e493929190614d4e565b604080517fffffffffffffffffffffffffffffffffffffffffffffffffffffffffffffffe081840301815290829052805160209091012083517f2f3f50e000000000000000000000000000000000000000000000000000000000835290925073ffffffffffffffffffffffffffffffffffffffff7f00000000000000000000000000000000000000000000000000000000000000001691632f3f50e091611a919188918691600401614da0565b6000604051808303816000875af1158015611ab0573d6000803e3d6000fd5b505050506040513d6000823e601f3d9081017fffffffffffffffffffffffffffffffffffffffffffffffffffffffffffffffe0168201604052611af69190810190614bba565b5050505050565b6000807f000000000000000000000000000000000000000000000000000000000000000073ffffffffffffffffffffffffffffffffffffffff1663293c49996040518163ffffffff1660e01b8152600401602060405180830381865afa158015611b6b573d6000803e3d6000fd5b505050506040513d601f19601f82011682018060405250810190611b8f9190614614565b73ffffffffffffffffffffffffffffffffffffffff166306661abd6040518163ffffffff1660e01b8152600401602060405180830381865afa158015611bd9573d6000803e3d6000fd5b505050506040513d601f19601f82011682018060405250810190611bfd9190614e9d565b611c08906001614c83565b84519092506000611c1a826001614c83565b67ffffffffffffffff811115611c3257611c32613073565b604051908082528060200260200182016040528015611c7f57816020015b60408051606080820183526000808352602083015291810191909152815260200190600190039081611c505790505b50905060005b82811015611ccc57868181518110611c9f57611c9f614631565b6020026020010151828281518110611cb957611cb9614631565b6020908102919091010152600101611c85565b5086516040517f2230819f00000000000000000000000000000000000000000000000000000000815273ffffffffffffffffffffffffffffffffffffffff7f00000000000000000000000000000000000000000000000000000000000000001691632230819f91611d41918891600401614ff0565b6020604051808303816000875af1158015611d60573d6000803e3d6000fd5b505050506040513d601f19601f82011682018060405250810190611d849190614614565b9250866020015115611dc8576002805460018101825560009190915260167f405787fa12a823e0f2b7631cc41b3ba8828b3321ca811111fa75cd3aa3bb5ace909101555b866040015115611e0a576002805460018101825560009190915260177f405787fa12a823e0f2b7631cc41b3ba8828b3321ca811111fa75cd3aa3bb5ace909101555b866060015115611e4c576002805460018101825560009190915260187f405787fa12a823e0f2b7631cc41b3ba8828b3321ca811111fa75cd3aa3bb5ace909101555b60405180606001604052808473ffffffffffffffffffffffffffffffffffffffff1681526020016000815260200160405180602001604052806000815250815250818381518110611e9f57611e9f614631565b6020026020010181905250611eb88b8b8b8b858a610977565b50505097509795505050505050565b600080600080611ed88a8888612759565b9250925092507f000000000000000000000000000000000000000000000000000000000000000073ffffffffffffffffffffffffffffffffffffffff16630634bae9308c6000015160400151868d8f6000015160200151604051602001611f3f919061516d565b6040516020818303038152906040526040518663ffffffff1660e01b8152600401611f6e95949392919061555d565b6020604051808303816000875af1158015611f8d573d6000803e3d6000fd5b505050506040513d601f19601f82011682018060405250810190611fb19190614e9d565b93508015611fd657611fc66276a70042614c83565b6000858152600160205260409020555b8951805160208201516060909201516040517f5817819100000000000000000000000000000000000000000000000000000000815273ffffffffffffffffffffffffffffffffffffffff7f0000000000000000000000000000000000000000000000000000000000000000169363581781919361205a938a939192916004016156c2565b6020604051808303816000875af1158015612079573d6000803e3d6000fd5b505050506040513d601f19601f8201168201806040525081019061209d9190614614565b50875173ffffffffffffffffffffffffffffffffffffffff16156120c5576120c58489612c5b565b7f000000000000000000000000000000000000000000000000000000000000000073ffffffffffffffffffffffffffffffffffffffff1663dd5f214a8560006121118e60600151612de0565b6040518463ffffffff1660e01b815260040161212f939291906156ff565b600060405180830381600087803b15801561214957600080fd5b505af115801561215d573d6000803e3d6000fd5b505050507f000000000000000000000000000000000000000000000000000000000000000073ffffffffffffffffffffffffffffffffffffffff1663f434c9146040518163ffffffff1660e01b8152600401602060405180830381865afa1580156121cc573d6000803e3d6000fd5b505050506040513d601f19601f820116820180604052508101906121f09190614614565b73ffffffffffffffffffffffffffffffffffffffff166305d2912e3060405180606001604052808e6060015173ffffffffffffffffffffffffffffffffffffffff168152602001888152602001600280548060200260200160405190810160405280929190818152602001828054801561228957602002820191906000526020600020905b815481526020019060010190808311612275575b50505050508152506040518363ffffffff1660e01b81526004016122ae92919061478f565b600060405180830381600087803b1580156122c857600080fd5b505af11580156122dc573d6000803e3d6000fd5b5050505060408a0151156123c0577f000000000000000000000000000000000000000000000000000000000000000073ffffffffffffffffffffffffffffffffffffffff1663c7fb92de858c604001518d606001518e600001516020015160405160200161234a919061571e565b60405160208183030381529060405260006040518663ffffffff1660e01b815260040161237b95949392919061578a565b6020604051808303816000875af115801561239a573d6000803e3d6000fd5b505050506040513d601f19601f820116820180604052508101906123be9190614e9d565b505b60408051600180825281830190925260009160208083019080368337019050509050601d816000815181106123f7576123f7614631565b6020026020010181815250507f000000000000000000000000000000000000000000000000000000000000000073ffffffffffffffffffffffffffffffffffffffff1663f434c9146040518163ffffffff1660e01b8152600401602060405180830381865afa15801561246e573d6000803e3d6000fd5b505050506040513d601f19601f820116820180604052508101906124929190614614565b73ffffffffffffffffffffffffffffffffffffffff166305d2912e3060405180606001604052807f000000000000000000000000000000000000000000000000000000000000000073ffffffffffffffffffffffffffffffffffffffff168152602001898152602001858152506040518363ffffffff1660e01b815260040161251c92919061478f565b600060405180830381600087803b15801561253657600080fd5b505af115801561254a573d6000803e3d6000fd5b50505050602086015115612684577f000000000000000000000000000000000000000000000000000000000000000073ffffffffffffffffffffffffffffffffffffffff16632f3f50e08633868a602001516040516020016125ae93929190614d4e565b604080517fffffffffffffffffffffffffffffffffffffffffffffffffffffffffffffffe08184030181529082905280516020909101208a517fffffffff0000000000000000000000000000000000000000000000000000000060e086901b16835261261d9392600401614da0565b6000604051808303816000875af115801561263c573d6000803e3d6000fd5b505050506040513d6000823e601f3d9081017fffffffffffffffffffffffffffffffffffffffffffffffffffffffffffffffe01682016040526126829190810190614bba565b505b505050509695505050505050565b805160005b8181101561275357600084815260036020526040902083518490839081106126c1576126c1614631565b602090810291909101810151825460018082018555600094855293839020825160039092020180547fffffffffffffffffffffffff00000000000000000000000000000000000000001673ffffffffffffffffffffffffffffffffffffffff9092169190911781559181015192820192909255604082015160028201906127489082615826565b505050600101612697565b50505050565b60608060008086608001515190508067ffffffffffffffff81111561278057612780613073565b60405190808252806020026020018201604052801561287257816020015b61285f6040805161010080820183526000808352602080840182905283850182905260608085018390526080808601849052865161020081018852848152928301849052958201839052810182905293840181905260a084810182905260c0850182905260e0850182905291840181905261012084018190526101408401819052610160840181905261018084018190526101a084018190526101c084018190526101e0840152909190820190815260200160608152602001606081525090565b81526020019060019003908161279e5790505b5093508660200151604051602001612896919063ffffffff91909116815260200190565b604080518083037fffffffffffffffffffffffffffffffffffffffffffffffffffffffffffffffe001815260c083018252600080845260208401819052918301829052606083018290526080830182905260a0830182905294505b82811015612c4f578860800151818151811061290f5761290f614631565b60200260200101519150816000015164ffffffffff1686828151811061293757612937614631565b60200260200101516000018181525050816060015164ffffffffff1686828151811061296557612965614631565b6020026020010151602001818152505081604001516dffffffffffffffffffffffffffff1686828151811061299c5761299c614631565b60200260200101516040018181525050816080015163ffffffff168682815181106129c9576129c9614631565b6020026020010151606001818152505060008682815181106129ed576129ed614631565b60200260200101516080019073ffffffffffffffffffffffffffffffffffffffff16908173ffffffffffffffffffffffffffffffffffffffff1681525050604051806102000160405280836020015161ffff1681526020018360a0015161ffff16612710612a5b9190615940565b815260208b81015163ffffffff16908201526000604082018190526060820181905260016080830181905260a0830182905260c0830182905260e0830182905261010083018290526101208301829052610140830182905261016083015261018082015273ffffffffffffffffffffffffffffffffffffffff8a166101a08201526101c0018890528651879083908110612af757612af7614631565b602002602001015160a00181905250806000148015612b1d5750815164ffffffffff1615155b8015612b33575042826000015164ffffffffff16105b15612b3d57600193505b8481158015612b525750825164ffffffffff16155b612b6457825164ffffffffff16612b66565b425b83602001518460400151856060015186608001518760a00151604051602001612bdb9695949392919095865261ffff94851660208701526dffffffffffffffffffffffffffff93909316604086015264ffffffffff91909116606085015263ffffffff1660808401521660a082015260c00190565b604080517fffffffffffffffffffffffffffffffffffffffffffffffffffffffffffffffe081840301815290829052612c179291602001615953565b604080517fffffffffffffffffffffffffffffffffffffffffffffffffffffffffffffffe081840301815291905294506001016128f1565b50505093509350939050565b602081810151516040805160808101825260008082529381018490529081018390526060810183905290915b82811015612d875783602001518181518110612ca557612ca5614631565b6020908102919091018101518551918101516040808301516060840151845192517f7b621d3a000000000000000000000000000000000000000000000000000000008152600481018c905262ffffff909416602485015263ffffffff918216604485015216606483015273ffffffffffffffffffffffffffffffffffffffff9081166084830152919450911690637b621d3a9060a4016020604051808303816000875af1158015612d5a573d6000803e3d6000fd5b505050506040513d601f19601f82011682018060405250810190612d7e9190614614565b50600101612c87565b5050905160009283526020839052604090922080547fffffffffffffffffffffffff00000000000000000000000000000000000000001673ffffffffffffffffffffffffffffffffffffffff9093169290921790915550565b604080516001808252818301909252606091816020015b604080518082019091526000815260606020820152815260200190600190039081612df757505060408051600180825281830190925291925060009190602082015b6040805160c08101825260008082526020808301829052928201819052606082018190526080820181905260a082015282527fffffffffffffffffffffffffffffffffffffffffffffffffffffffffffffffff909201910181612e395790505090506040518060c00160405280600015158152602001633b9aca008152602001600081526020018473ffffffffffffffffffffffffffffffffffffffff16815260200160008152602001600073ffffffffffffffffffffffffffffffffffffffff1681525081600081518110612f1157612f11614631565b60200260200101819052506040518060400160405280600181526020018281525082600081518110612f4557612f45614631565b602002602001018190525050919050565b600060208284031215612f6857600080fd5b81357fffffffff0000000000000000000000000000000000000000000000000000000081168114612f9857600080fd5b9392505050565b73ffffffffffffffffffffffffffffffffffffffff81168114612fc157600080fd5b50565b8035612fcf81612f9f565b919050565b600080600080600060808688031215612fec57600080fd5b8535612ff781612f9f565b9450602086013561300781612f9f565b935060408601359250606086013567ffffffffffffffff8082111561302b57600080fd5b818801915088601f83011261303f57600080fd5b81358181111561304e57600080fd5b89602082850101111561306057600080fd5b9699959850939650602001949392505050565b7f4e487b7100000000000000000000000000000000000000000000000000000000600052604160045260246000fd5b60405160c0810167ffffffffffffffff811182821017156130c5576130c5613073565b60405290565b60405160a0810167ffffffffffffffff811182821017156130c5576130c5613073565b6040516080810167ffffffffffffffff811182821017156130c5576130c5613073565b6040805190810167ffffffffffffffff811182821017156130c5576130c5613073565b604051610180810167ffffffffffffffff811182821017156130c5576130c5613073565b604051610120810167ffffffffffffffff811182821017156130c5576130c5613073565b6040516060810167ffffffffffffffff811182821017156130c5576130c5613073565b604051601f82017fffffffffffffffffffffffffffffffffffffffffffffffffffffffffffffffe016810167ffffffffffffffff811182821017156131e6576131e6613073565b604052919050565b600067ffffffffffffffff82111561320857613208613073565b50601f017fffffffffffffffffffffffffffffffffffffffffffffffffffffffffffffffe01660200190565b600082601f83011261324557600080fd5b8135613258613253826131ee565b61319f565b81815284602083860101111561326d57600080fd5b816020850160208301376000918101602001919091529392505050565b803563ffffffff81168114612fcf57600080fd5b600067ffffffffffffffff8211156132b8576132b8613073565b5060051b60200190565b803564ffffffffff81168114612fcf57600080fd5b803561ffff81168114612fcf57600080fd5b600082601f8301126132fa57600080fd5b8135602061330a6132538361329e565b82815260c0928302850182019282820191908785111561332957600080fd5b8387015b858110156133ce5781818a0312156133455760008081fd5b61334d6130a2565b613356826132c2565b81526133638683016132d7565b868201526040808301356dffffffffffffffffffffffffffff8116811461338a5760008081fd5b90820152606061339b8382016132c2565b9082015260806133ac83820161328a565b9082015260a06133bd8382016132d7565b90820152845292840192810161332d565b5090979650505050505050565b600060a082840312156133ed57600080fd5b6133f56130cb565b9050813567ffffffffffffffff8082111561340f57600080fd5b908301906080828603121561342357600080fd5b61342b6130ee565b82358281111561343a57600080fd5b61344687828601613234565b82525060208301358281111561345b57600080fd5b61346787828601613234565b60208301525060408301358281111561347f57600080fd5b61348b87828601613234565b6040830152506060838101359082015283526134a96020850161328a565b6020840152604084013560408401526134c460608501612fc4565b606084015260808401359150808211156134dd57600080fd5b506134ea848285016132e9565b60808301525092915050565b600082601f83011261350757600080fd5b813560206135176132538361329e565b8083825260208201915060208460051b87010193508684111561353957600080fd5b602086015b8481101561355e57803561355181612f9f565b835291830191830161353e565b509695505050505050565b600082601f83011261357a57600080fd5b8135602061358a6132538361329e565b82815260059290921b840181019181810190868411156135a957600080fd5b8286015b8481101561355e57803567ffffffffffffffff808211156135ce5760008081fd5b81890191506040807fffffffffffffffffffffffffffffffffffffffffffffffffffffffffffffffe0848d030112156136075760008081fd5b61360f613111565b8784013561361c81612f9f565b81529083013590828211156136315760008081fd5b61363f8c89848701016134f6565b8189015286525050509183019183016135ad565b803562ffffff81168114612fcf57600080fd5b6000604080838503121561367957600080fd5b613681613111565b9150823561368e81612f9f565b825260208381013567ffffffffffffffff8111156136ab57600080fd5b8401601f810186136136bc57600080fd5b80356136ca6132538261329e565b81815260079190911b820183019083810190888311156136e957600080fd5b928401925b8284101561375d576080848a0312156137075760008081fd5b61370f6130ee565b843561371a81612f9f565b8152613727858701613653565b8682015261373687860161328a565b87820152606061374781870161328a565b90820152825260809390930192908401906136ee565b808588015250505050505092915050565b60006040828403121561378057600080fd5b613788613111565b905067ffffffffffffffff80833511156137a157600080fd5b8235830184601f8201126137b457600080fd5b6137c1613253823561329e565b81358082526020808301929160051b840101878111156137e057600080fd5b602084015b818110156139435785813511156137fb57600080fd5b8035850160407fffffffffffffffffffffffffffffffffffffffffffffffffffffffffffffffe0828c0301121561383157600080fd5b613839613111565b6138466020830135612f9f565b60208201358152876040830135111561385e57600080fd5b6040820135820191508a603f83011261387657600080fd5b60208201356138876132538261329e565b81815260079190911b83016040019060208101908d8311156138a857600080fd5b6040850194505b82851015613924576080858f0312156138c757600080fd5b6138cf6130ee565b6138d98635612f9f565b853581526138e96020870161328a565b60208201526138fb6040870135612f9f565b6040860135604082015260608601356060820152808352506020820191506080850194506138af565b80602085015250505080865250506020840193506020810190506137e5565b5050808552505050506020820135602082015292915050565b80356cffffffffffffffffffffffffff81168114612fcf57600080fd5b8015158114612fc157600080fd5b8035612fcf81613979565b803560ff81168114612fcf57600080fd5b600060808083850312156139b657600080fd5b6139be6130ee565b9150823567ffffffffffffffff8111156139d757600080fd5b8301601f810185136139e857600080fd5b803560206139f86132538361329e565b8281526101809283028401820192828201919089851115613a1857600080fd5b948301945b84861015613b0b5780868b031215613a355760008081fd5b613a3d613134565b613a468761395c565b8152613a5385880161328a565b858201526040613a6481890161328a565b908201526060613a758882016132d7565b90820152613a84878901612fc4565b8189015260a0878101359082015260c0613a9f818901613653565b9082015260e0613ab0888201613987565b90820152610100613ac2888201613987565b90820152610120613ad4888201613987565b90820152610140613ae6888201613987565b90820152610160613af8888201613987565b9082015283529485019491830191613a1d565b50865250613b1a86820161328a565b8186015250505050613b2e60408301613992565b6040820152613b3f60608301612fc4565b606082015292915050565b600060808284031215613b5c57600080fd5b613b646130ee565b90508135613b7181613979565b81526020820135613b8181613979565b60208201526040820135613b9481613979565b60408201526060820135613b3f81613979565b600060808284031215613bb957600080fd5b613bc16130ee565b9050813567ffffffffffffffff80821115613bdb57600080fd5b908301906101808286031215613bf057600080fd5b613bf8613158565b823582811115613c0757600080fd5b613c1387828601613234565b825250602083013582811115613c2857600080fd5b613c3487828601613234565b602083015250613c4660408401612fc4565b6040820152606083013582811115613c5d57600080fd5b613c6987828601613234565b606083015250613c7b60808401612fc4565b608082015260a083013582811115613c9257600080fd5b613c9e87828601613234565b60a08301525060c083013582811115613cb657600080fd5b613cc2878286016139a3565b60c083015250613cd460e08401612fc4565b60e08201526101009150613cea86838501613b4a565b82820152808452505050613d0060208301613987565b6020820152613d1160408301613987565b6040820152613b3f60608301613987565b600082601f830112613d3357600080fd5b81356020613d436132538361329e565b82815260059290921b84018101918181019086841115613d6257600080fd5b8286015b8481101561355e57803567ffffffffffffffff80821115613d875760008081fd5b81890191506060807fffffffffffffffffffffffffffffffffffffffffffffffffffffffffffffffe0848d03011215613dc05760008081fd5b613dc861317c565b87840135613dd581612f9f565b815260408481013589830152918401359183831115613df45760008081fd5b613e028d8a85880101613234565b908201528652505050918301918301613d66565b600082601f830112613e2757600080fd5b81356020613e376132538361329e565b82815260059290921b84018101918181019086841115613e5657600080fd5b8286015b8481101561355e57803567ffffffffffffffff80821115613e7b5760008081fd5b818901915060a0807fffffffffffffffffffffffffffffffffffffffffffffffffffffffffffffffe0848d03011215613eb45760008081fd5b613ebc6130cb565b87840135815260408085013589830152606080860135828401526080915081860135818401525082850135925083831115613ef75760008081fd5b613f058d8a858801016134f6565b908201528652505050918301918301613e5a565b600080600080600080600080610100898b031215613f3657600080fd5b883567ffffffffffffffff80821115613f4e57600080fd5b613f5a8c838d016133db565b995060208b0135915080821115613f7057600080fd5b613f7c8c838d01613569565b985060408b0135915080821115613f9257600080fd5b613f9e8c838d01613666565b975060608b0135915080821115613fb457600080fd5b613fc08c838d0161376e565b965060808b0135915080821115613fd657600080fd5b613fe28c838d01613ba7565b955060a08b0135915080821115613ff857600080fd5b6140048c838d01613d22565b945061401260c08c016132d7565b935060e08b013591508082111561402857600080fd5b506140358b828c01613e16565b9150509295985092959890939650565b60008060008060008060c0878903121561405e57600080fd5b863567ffffffffffffffff8082111561407657600080fd5b6140828a838b016133db565b9750602089013591508082111561409857600080fd5b6140a48a838b01613569565b965060408901359150808211156140ba57600080fd5b6140c68a838b01613666565b955060608901359150808211156140dc57600080fd5b6140e88a838b0161376e565b945060808901359150808211156140fe57600080fd5b5061410b89828a01613d22565b92505061411a60a088016132d7565b90509295509295509295565b60006020828403121561413857600080fd5b5035919050565b60006020828403121561415157600080fd5b813567ffffffffffffffff81111561416857600080fd5b82016101808185031215612f9857600080fd5b60005b8381101561419657818101518382015260200161417e565b50506000910152565b600081518084526141b781602086016020860161417b565b601f017fffffffffffffffffffffffffffffffffffffffffffffffffffffffffffffffe0169290920160200192915050565b600082825180855260208086019550808260051b84010181860160005b848110156133ce578583037fffffffffffffffffffffffffffffffffffffffffffffffffffffffffffffffe00189528151805173ffffffffffffffffffffffffffffffffffffffff16845284810151858501526040908101516060918501829052906142748186018361419f565b9a86019a9450505090830190600101614206565b8281526040602082015260006142a160408301846141e9565b949350505050565b602081526000612f9860208301846141e9565b600080604083850312156142cf57600080fd5b8235915060208301356142e181612f9f565b809150509250929050565b6000806000806080858703121561430257600080fd5b843567ffffffffffffffff8082111561431a57600080fd5b614326888389016133db565b9550602087013591508082111561433c57600080fd5b61434888838901613569565b9450604087013591508082111561435e57600080fd5b61436a88838901613666565b9350606087013591508082111561438057600080fd5b5061438d8782880161376e565b91505092959194509250565b6000602082840312156143ab57600080fd5b813567ffffffffffffffff8111156143c257600080fd5b82016101a08185031215612f9857600080fd5b60006080820186835260208681850152604086604086015260606080606087015283875180865260a08801915060a08160051b890101955084890160005b8281101561448e578988037fffffffffffffffffffffffffffffffffffffffffffffffffffffffffffffff600184528151805173ffffffffffffffffffffffffffffffffffffffff16895287810151888a015286015186890186905261447b868a018261419f565b9850509286019290860190600101614413565b50959c9b505050505050505050505050565b6000806000606084860312156144b557600080fd5b83359250602084013567ffffffffffffffff808211156144d457600080fd5b6144e087838801613234565b935060408601359150808211156144f657600080fd5b506145038682870161376e565b9150509250925092565b600080600080600080600060e0888a03121561452857600080fd5b873567ffffffffffffffff8082111561454057600080fd5b61454c8b838c016133db565b985060208a013591508082111561456257600080fd5b61456e8b838c01613569565b975060408a013591508082111561458457600080fd5b6145908b838c01613666565b965060608a01359150808211156145a657600080fd5b6145b28b838c0161376e565b955060808a01359150808211156145c857600080fd5b6145d48b838c01613ba7565b945060a08a01359150808211156145ea57600080fd5b506145f78a828b01613d22565b92505061460660c089016132d7565b905092959891949750929550565b60006020828403121561462657600080fd5b8151612f9881612f9f565b7f4e487b7100000000000000000000000000000000000000000000000000000000600052603260045260246000fd5b60008151808452602080850194506020840160005b838110156146a757815173ffffffffffffffffffffffffffffffffffffffff1687529582019590820190600101614675565b509495945050505050565b6000604080830185845260206040818601528186518084526060935060608701915060608160051b88010183890160005b8381101561477f578983037fffffffffffffffffffffffffffffffffffffffffffffffffffffffffffffffa00185528151805173ffffffffffffffffffffffffffffffffffffffff1684528681015187850152888101518985015287810151888501526080808201519085015260a09081015160c09185018290529061476b81860183614660565b9688019694505050908501906001016146e3565b50909a9950505050505050505050565b600073ffffffffffffffffffffffffffffffffffffffff808516835260206040602085015260a0840182865116604086015260208601516060860152604086015192506060608086015280835180835260c087019150602085019450600092505b8083101561481057845182529383019360019290920191908301906147f0565b50979650505050505050565b803561482781612f9f565b73ffffffffffffffffffffffffffffffffffffffff1682526020818101359083015260408082013590830152606090810135910152565b60008083357fffffffffffffffffffffffffffffffffffffffffffffffffffffffffffffffe184360301811261489357600080fd5b830160208101925035905067ffffffffffffffff8111156148b357600080fd5b8036038213156148c257600080fd5b9250929050565b8183528181602085013750600060208284010152600060207fffffffffffffffffffffffffffffffffffffffffffffffffffffffffffffffe0601f840116840101905092915050565b602081526149406020820161492684612fc4565b73ffffffffffffffffffffffffffffffffffffffff169052565b600061494e60208401612fc4565b73ffffffffffffffffffffffffffffffffffffffff811660408401525061497b606083016040850161481c565b60c083013560e083015261010060e08401358184015261499c818501612fc4565b90506101206149c28185018373ffffffffffffffffffffffffffffffffffffffff169052565b610140915080850135828501525061016081850135818501526149e78186018661485e565b61018086810152925090506111226101a0850183836148c9565b6000806040808486031215614a1557600080fd5b8351925060208085015167ffffffffffffffff80821115614a3557600080fd5b818701915087601f830112614a4957600080fd5b8151614a576132538261329e565b81815260059190911b8301840190848101908a831115614a7657600080fd5b8585015b83811015614b5557805185811115614a9157600080fd5b86016060818e037fffffffffffffffffffffffffffffffffffffffffffffffffffffffffffffffe0011215614ac65760008081fd5b614ace61317c565b88820151614adb81612f9f565b8152818a015189820152606082015187811115614af85760008081fd5b8083019250508d603f830112614b0e5760008081fd5b88820151614b1e613253826131ee565b8181528f8c838601011115614b335760008081fd5b614b42828c83018e870161417b565b828c015250845250918601918601614a7a565b50809750505050505050509250929050565b600181811c90821680614b7b57607f821691505b602082108103614bb4577f4e487b7100000000000000000000000000000000000000000000000000000000600052602260045260246000fd5b50919050565b60006020808385031215614bcd57600080fd5b825167ffffffffffffffff811115614be457600080fd5b8301601f81018513614bf557600080fd5b8051614c036132538261329e565b81815260059190911b82018301908381019087831115614c2257600080fd5b928401925b82841015614c49578351614c3a81612f9f565b82529284019290840190614c27565b979650505050505050565b7f4e487b7100000000000000000000000000000000000000000000000000000000600052601160045260246000fd5b8082018082111561049257610492614c54565b60006080820173ffffffffffffffffffffffffffffffffffffffff80881684526020818816602086015286604086015260806060860152829150855480845260a086019250866000526020600020935060005b81811015614d0557845484526001948501949383019301614ce9565b50919998505050505050505050565b600060208284031215614d2657600080fd5b8151612f9881613979565b600060208284031215614d4357600080fd5b8135612f9881612f9f565b7fffffffffffffffffffffffffffffffffffffffff0000000000000000000000008460601b16815260008351614d8b81601485016020880161417b565b60149201918201929092526034019392505050565b600060608083018684526020868186015260406060604087015282875180855260808801915060808160051b89010194508389016000805b8381101561448e578a88037fffffffffffffffffffffffffffffffffffffffffffffffffffffffffffffff800185528251805173ffffffffffffffffffffffffffffffffffffffff9081168a5290880151888a018890528051888b018190529089019184918c8c01905b80841015614e875784518051841683528c81015163ffffffff168d8401528b81015184168c8401528e01518e830152938b019360019390930192608090910190614e42565b509a505050948701945091860191600101614dd8565b600060208284031215614eaf57600080fd5b5051919050565b80516080808452815184820181905260009260a0916020918201918388019190865b82811015614fa857845180516cffffffffffffffffffffffffff1685528281015163ffffffff908116848701526040808301519091169086015260608082015161ffff16908601528781015173ffffffffffffffffffffffffffffffffffffffff1688860152868101518786015260c08082015162ffffff169086015260e080820151151590860152610100808201511515908601526101208082015115159086015261014080820151151590860152610160908101511515908501529381019361018090930192600101614ed8565b508781015163ffffffff16908901525060408087015160ff169088015260608087015173ffffffffffffffffffffffffffffffffffffffff8116918901919091529350610997565b828152604060208201526000825161018060408401526150146101c084018261419f565b905060208401517fffffffffffffffffffffffffffffffffffffffffffffffffffffffffffffffc080858403016060860152615050838361419f565b92506040860151915061507b608086018373ffffffffffffffffffffffffffffffffffffffff169052565b60608601519150808584030160a0860152615096838361419f565b9250608086015191506150c160c086018373ffffffffffffffffffffffffffffffffffffffff169052565b60a08601519150808584030160e08601526150dc838361419f565b925060c086015191506101008186850301818701526150fb8484614eb6565b935060e0870151925061512761012087018473ffffffffffffffffffffffffffffffffffffffff169052565b860151805115156101408701526020810151151561016087015260408101511515610180870152606081015115156101a087015291506151649050565b50949350505050565b7f24000000000000000000000000000000000000000000000000000000000000008152600082516151a581600185016020870161417b565b7f207265766e6574206465706c6f796564000000000000000000000000000000006001939091019283015250601101919050565b8051825260208101516020830152604081015160408301526060810151615204606084018215159052565b506080810151615218608084018215159052565b5060a081015161522c60a084018215159052565b5060c081015161524060c084018215159052565b5060e081015161525460e084018215159052565b5061010081810151151590830152610120808201511515908301526101408082015115159083015261016080820151151590830152610180808201511515908301526101a0808201511515908301526101c08082015173ffffffffffffffffffffffffffffffffffffffff16908301526101e090810151910152565b600082825180855260208086019550808260051b8401018186016000805b858110156153c1578684037fffffffffffffffffffffffffffffffffffffffffffffffffffffffffffffffe0018a52825180518552850151604086860181905281518187018190529187019160609081880190865b818110156153aa5785518051151584528b8101518c85015285810151868501528481015173ffffffffffffffffffffffffffffffffffffffff908116868601526080808301519086015260a0918201511690840152948a019460c090920191600101615343565b50509c88019c9650505092850192506001016152ee565b509198975050505050505050565b60008151808452602080850194506020840160005b838110156146a75781518051885283015183880152604090960195908201906001016153e4565b600082825180855260208086019550808260051b84010181860160005b848110156133ce577fffffffffffffffffffffffffffffffffffffffffffffffffffffffffffffffe08684030189528151608073ffffffffffffffffffffffffffffffffffffffff80835116865280878401511687870152506040808301518282880152615498838801826153cf565b92505050606080830151925085820381870152506154b681836153cf565b9a86019a9450505090830190600101615428565b600082825180855260208086019550808260051b84010181860160005b848110156133ce578583037fffffffffffffffffffffffffffffffffffffffffffffffffffffffffffffffe00189528151805173ffffffffffffffffffffffffffffffffffffffff168452840151604085850181905261554981860183614660565b9a86019a94505050908301906001016154e7565b600060a073ffffffffffffffffffffffffffffffffffffffff88168352602060a08185015261558f60a085018961419f565b604085820360408701528189518084528484019150848160051b850101858c0160005b83811015615688577fffffffffffffffffffffffffffffffffffffffffffffffffffffffffffffffe087840301855281516102e081518552898201518a8601528782015188860152606080830151818701525060808083015161562c8288018273ffffffffffffffffffffffffffffffffffffffff169052565b50508a82015161563e8c8701826151d9565b5060c0820151816102a0870152615657828701826152d0565b91505060e082015191508481036102c0860152615674818361540b565b968a019694505050908701906001016155b2565b505088810360608a015261569c818c6154ca565b965050505050505082810360808401526156b6818561419f565b98975050505050505050565b8481526080602082015260006156db608083018661419f565b82810360408401526156ed818661419f565b91505082606083015295945050505050565b83815282602082015260606040820152600061112260608301846152d0565b7f240000000000000000000000000000000000000000000000000000000000000081526000825161575681600185016020870161417b565b7f207072656d696e746564000000000000000000000000000000000000000000006001939091019283015250600b01919050565b85815284602082015273ffffffffffffffffffffffffffffffffffffffff8416604082015260a0606082015260006157c560a083018561419f565b905082151560808301529695505050505050565b601f821115615821576000816000526020600020601f850160051c810160208610156158025750805b601f850160051c820191505b8181101561169f5782815560010161580e565b505050565b815167ffffffffffffffff81111561584057615840613073565b6158548161584e8454614b67565b846157d9565b602080601f8311600181146158a757600084156158715750858301515b7fffffffffffffffffffffffffffffffffffffffffffffffffffffffffffffffff600386901b1c1916600185901b17855561169f565b6000858152602081207fffffffffffffffffffffffffffffffffffffffffffffffffffffffffffffffe08616915b828110156158f4578886015182559484019460019091019084016158d5565b508582101561593057878501517fffffffffffffffffffffffffffffffffffffffffffffffffffffffffffffffff600388901b60f8161c191681555b5050505050600190811b01905550565b8181038181111561049257610492614c54565b6000835161596581846020880161417b565b83519083019061597981836020880161417b565b0194935050505056fea26469706673582212200d8526601dbb535e8e512b2f806caea5968ae535e85165f3485341081d55b81b64736f6c63430008170033",
			"deployedBytecode": "0x608060405234801561001057600080fd5b50600436106101515760003560e01c80637485ecf3116100cd578063b5d2553311610081578063d3cee0ee11610066578063d3cee0ee146103a5578063dbfbe5da146103b8578063ee0fc121146103d857600080fd5b8063b5d255331461036b578063bb1994021461039257600080fd5b80639d82ba25116100b25780639d82ba2514610317578063aaf320d714610321578063abf8c5c81461034457600080fd5b80637485ecf3146102ef57806389b396ab1461030257600080fd5b806343681e15116101245780635c0a7cee116101095780635c0a7cee14610261578063677ce088146102815780637249a7731461029457600080fd5b806343681e15146102205780634c4ffc711461024057600080fd5b806301ffc9a714610156578063150b7a021461017e578063158b48b5146101c25780633fe422bd146101ff575b600080fd5b610169610164366004612f56565b6103ff565b60405190151581526020015b60405180910390f35b61019161018c366004612fd4565b610498565b6040517fffffffff000000000000000000000000000000000000000000000000000000009091168152602001610175565b6101d56101d0366004613f19565b6105ac565b6040805192835273ffffffffffffffffffffffffffffffffffffffff909116602083015201610175565b61021261020d366004614045565b610977565b604051908152602001610175565b61021261022e366004614126565b60016020526000908152604090205481565b61025361024e36600461413f565b6109a1565b604051610175929190614288565b61027461026f366004614126565b610e59565b60405161017591906142a9565b61016961028f3660046142bc565b610f8a565b6102ca6102a2366004614126565b60006020819052908152604090205473ffffffffffffffffffffffffffffffffffffffff1681565b60405173ffffffffffffffffffffffffffffffffffffffff9091168152602001610175565b6102126102fd3660046142ec565b611111565b6103156103103660046142bc565b61112b565b005b6102126276a70081565b61033461032f366004614399565b6116a7565b60405161017594939291906143d5565b6102ca7f000000000000000000000000cdfa45a183fa6841ed1ef8550fca0a8aab42ec3481565b6102ca7f0000000000000000000000004be9d88be6e7a38644ea746cf78cb1bf30051c7681565b6103156103a03660046144a0565b611816565b6101d56103b336600461450d565b611afd565b6004546102ca9073ffffffffffffffffffffffffffffffffffffffff1681565b6102ca7f000000000000000000000000daf6226aafe296bbccbec815133386cd910ed58281565b60007fffffffff0000000000000000000000000000000000000000000000000000000082167f81c03c2e00000000000000000000000000000000000000000000000000000000148061049257507f01ffc9a7000000000000000000000000000000000000000000000000000000007fffffffff000000000000000000000000000000000000000000000000000000008316145b92915050565b60007f000000000000000000000000daf6226aafe296bbccbec815133386cd910ed58273ffffffffffffffffffffffffffffffffffffffff1663293c49996040518163ffffffff1660e01b8152600401602060405180830381865afa158015610505573d6000803e3d6000fd5b505050506040513d601f19601f820116820180604052508101906105299190614614565b73ffffffffffffffffffffffffffffffffffffffff163373ffffffffffffffffffffffffffffffffffffffff161461056057600080fd5b73ffffffffffffffffffffffffffffffffffffffff85161561058157600080fd5b507f150b7a020000000000000000000000000000000000000000000000000000000095945050505050565b6000806105be8a8a8a8a8a8a8a611afd565b8451919350915060008167ffffffffffffffff8111156105e0576105e0613073565b60405190808252806020026020018201604052801561066057816020015b61064d6040518060c00160405280600073ffffffffffffffffffffffffffffffffffffffff16815260200160008152602001600081526020016000815260200160008152602001606081525090565b8152602001906001900390816105fe5790505b5090506106956040518060a0016040528060008152602001600081526020016000815260200160008152602001606081525090565b60005b83811015610738578681815181106106b2576106b2614631565b602002602001015191506040518060c001604052808673ffffffffffffffffffffffffffffffffffffffff16815260200183600001518152602001836020015181526020018360400151815260200183606001518152602001836080015181525083828151811061072557610725614631565b6020908102919091010152600101610698565b508551156107ca57600480546040517fab54877a00000000000000000000000000000000000000000000000000000000815273ffffffffffffffffffffffffffffffffffffffff9091169163ab54877a916107979189918791016146b2565b600060405180830381600087803b1580156107b157600080fd5b505af11580156107c5573d6000803e3d6000fd5b505050505b7f000000000000000000000000daf6226aafe296bbccbec815133386cd910ed58273ffffffffffffffffffffffffffffffffffffffff1663f434c9146040518163ffffffff1660e01b8152600401602060405180830381865afa158015610835573d6000803e3d6000fd5b505050506040513d601f19601f820116820180604052508101906108599190614614565b73ffffffffffffffffffffffffffffffffffffffff166305d2912e306040518060600160405280600460009054906101000a900473ffffffffffffffffffffffffffffffffffffffff1673ffffffffffffffffffffffffffffffffffffffff168152602001898152602001600580548060200260200160405190810160405280929190818152602001828054801561091057602002820191906000526020600020905b8154815260200190600101908083116108fc575b50505050508152506040518363ffffffff1660e01b815260040161093592919061478f565b600060405180830381600087803b15801561094f57600080fd5b505af1158015610963573d6000803e3d6000fd5b505050505050509850989650505050505050565b600061098b878787308661ffff1689611ec7565b90506109978184612692565b9695505050505050565b60c0810135600090815260208190526040812054606090819073ffffffffffffffffffffffffffffffffffffffff168015610a91576040517f4c4ffc7100000000000000000000000000000000000000000000000000000000815273ffffffffffffffffffffffffffffffffffffffff821690634c4ffc7190610a28908890600401614912565b600060405180830381865afa158015610a45573d6000803e3d6000fd5b505050506040513d6000823e601f3d9081017fffffffffffffffffffffffffffffffffffffffffffffffffffffffffffffffe0168201604052610a8b9190810190614a01565b90945091505b815160c086013560009081526003602090815260408083208054825181850281018501909352808352941515949192909190849084015b82821015610bb95760008481526020908190206040805160608101825260038602909201805473ffffffffffffffffffffffffffffffffffffffff16835260018101549383019390935260028301805492939291840191610b2890614b67565b80601f0160208091040260200160405190810160405280929190818152602001828054610b5490614b67565b8015610ba15780601f10610b7657610100808354040283529160200191610ba1565b820191906000526020600020905b815481529060010190602001808311610b8457829003601f168201915b50505050508152505081526020019060010190610ac8565b50506040517f3d12cb8700000000000000000000000000000000000000000000000000000000815260c08b0135600482015292935060009273ffffffffffffffffffffffffffffffffffffffff7f0000000000000000000000004be9d88be6e7a38644ea746cf78cb1bf30051c76169250633d12cb879150602401600060405180830381865afa158015610c51573d6000803e3d6000fd5b505050506040513d6000823e601f3d9081017fffffffffffffffffffffffffffffffffffffffffffffffffffffffffffffffe0168201604052610c979190810190614bba565b825181519192509084610cab576000610cae565b60015b60ff16610cbb8284614c83565b610cc59190614c83565b67ffffffffffffffff811115610cdd57610cdd613073565b604051908082528060200260200182016040528015610d2a57816020015b60408051606080820183526000808352602083015291810191909152815260200190600190039081610cfb5790505b50975060005b82811015610d7757848181518110610d4a57610d4a614631565b6020026020010151898281518110610d6457610d64614631565b6020908102919091010152600101610d30565b5060005b81811015610e0d576040518060600160405280858381518110610da057610da0614631565b602002602001015173ffffffffffffffffffffffffffffffffffffffff1681526020016000815260200160405180602001604052806000815250815250898285610dea9190614c83565b81518110610dfa57610dfa614631565b6020908102919091010152600101610d7b565b508415610e4d5786600081518110610e2757610e27614631565b6020026020010151888381518110610e4157610e41614631565b60200260200101819052505b50505050505050915091565b606060036000838152602001908152602001600020805480602002602001604051908101604052809291908181526020016000905b82821015610f7f5760008481526020908190206040805160608101825260038602909201805473ffffffffffffffffffffffffffffffffffffffff16835260018101549383019390935260028301805492939291840191610eee90614b67565b80601f0160208091040260200160405190810160405280929190818152602001828054610f1a90614b67565b8015610f675780601f10610f3c57610100808354040283529160200191610f67565b820191906000526020600020905b815481529060010190602001808311610f4a57829003601f168201915b50505050508152505081526020019060010190610e8e565b505050509050919050565b60008281526020819052604081205473ffffffffffffffffffffffffffffffffffffffff90811690831603610fc157506001610492565b6040517f3d12cb87000000000000000000000000000000000000000000000000000000008152600481018490526000907f0000000000000000000000004be9d88be6e7a38644ea746cf78cb1bf30051c7673ffffffffffffffffffffffffffffffffffffffff1690633d12cb8790602401600060405180830381865afa15801561104f573d6000803e3d6000fd5b505050506040513d6000823e601f3d9081017fffffffffffffffffffffffffffffffffffffffffffffffffffffffffffffffe01682016040526110959190810190614bba565b805190915060005b81811015611105578281815181106110b7576110b7614631565b602002602001015173ffffffffffffffffffffffffffffffffffffffff168573ffffffffffffffffffffffffffffffffffffffff16036110fd5760019350505050610492565b60010161109d565b50600095945050505050565b600061112285858530600087611ec7565b95945050505050565b7f000000000000000000000000daf6226aafe296bbccbec815133386cd910ed58273ffffffffffffffffffffffffffffffffffffffff16631f47ce696040518163ffffffff1660e01b8152600401602060405180830381865afa158015611196573d6000803e3d6000fd5b505050506040513d601f19601f820116820180604052508101906111ba9190614614565b73ffffffffffffffffffffffffffffffffffffffff1663f434c9146040518163ffffffff1660e01b8152600401602060405180830381865afa158015611204573d6000803e3d6000fd5b505050506040513d601f19601f820116820180604052508101906112289190614614565b73ffffffffffffffffffffffffffffffffffffffff16630f5932f033308560026040518563ffffffff1660e01b81526004016112679493929190614c96565b602060405180830381865afa158015611284573d6000803e3d6000fd5b505050506040513d601f19601f820116820180604052508101906112a89190614d14565b6112de576040517f31fb21f300000000000000000000000000000000000000000000000000000000815260040160405180910390fd5b7f000000000000000000000000daf6226aafe296bbccbec815133386cd910ed58273ffffffffffffffffffffffffffffffffffffffff16631f47ce696040518163ffffffff1660e01b8152600401602060405180830381865afa158015611349573d6000803e3d6000fd5b505050506040513d601f19601f8201168201806040525081019061136d9190614614565b73ffffffffffffffffffffffffffffffffffffffff1663f434c9146040518163ffffffff1660e01b8152600401602060405180830381865afa1580156113b7573d6000803e3d6000fd5b505050506040513d601f19601f820116820180604052508101906113db9190614614565b73ffffffffffffffffffffffffffffffffffffffff166305d2912e3060405180606001604052803373ffffffffffffffffffffffffffffffffffffffff168152602001868152602001600067ffffffffffffffff81111561143e5761143e613073565b604051908082528060200260200182016040528015611467578160200160208202803683370190505b508152506040518363ffffffff1660e01b815260040161148892919061478f565b600060405180830381600087803b1580156114a257600080fd5b505af11580156114b6573d6000803e3d6000fd5b505050507f000000000000000000000000daf6226aafe296bbccbec815133386cd910ed58273ffffffffffffffffffffffffffffffffffffffff16631f47ce696040518163ffffffff1660e01b8152600401602060405180830381865afa158015611525573d6000803e3d6000fd5b505050506040513d601f19601f820116820180604052508101906115499190614614565b73ffffffffffffffffffffffffffffffffffffffff1663f434c9146040518163ffffffff1660e01b8152600401602060405180830381865afa158015611593573d6000803e3d6000fd5b505050506040513d601f19601f820116820180604052508101906115b79190614614565b73ffffffffffffffffffffffffffffffffffffffff166305d2912e3060405180606001604052808573ffffffffffffffffffffffffffffffffffffffff168152602001868152602001600280548060200260200160405190810160405280929190818152602001828054801561164c57602002820191906000526020600020905b815481526020019060010190808311611638575b50505050508152506040518363ffffffff1660e01b815260040161167192919061478f565b600060405180830381600087803b15801561168b57600080fd5b505af115801561169f573d6000803e3d6000fd5b505050505050565b60008080606073ffffffffffffffffffffffffffffffffffffffff7f0000000000000000000000004be9d88be6e7a38644ea746cf78cb1bf30051c76166383db9d01604087018035906116fd9060208a01614d31565b6040517fffffffff0000000000000000000000000000000000000000000000000000000060e085901b168152600481019290925273ffffffffffffffffffffffffffffffffffffffff166024820152604401602060405180830381865afa15801561176c573d6000803e3d6000fd5b505050506040513d601f19601f820116820180604052508101906117909190614d14565b156117ad5761271085608001358660a0013593509350935061180f565b6040808601356000908152600160205220544210156117f8576040517f04c3b3cd00000000000000000000000000000000000000000000000000000000815260040160405180910390fd5b84610160013585608001358660a001359350935093505b9193509193565b7f000000000000000000000000daf6226aafe296bbccbec815133386cd910ed58273ffffffffffffffffffffffffffffffffffffffff16631f47ce696040518163ffffffff1660e01b8152600401602060405180830381865afa158015611881573d6000803e3d6000fd5b505050506040513d601f19601f820116820180604052508101906118a59190614614565b73ffffffffffffffffffffffffffffffffffffffff1663f434c9146040518163ffffffff1660e01b8152600401602060405180830381865afa1580156118ef573d6000803e3d6000fd5b505050506040513d601f19601f820116820180604052508101906119139190614614565b73ffffffffffffffffffffffffffffffffffffffff16630f5932f033308660026040518563ffffffff1660e01b81526004016119529493929190614c96565b602060405180830381865afa15801561196f573d6000803e3d6000fd5b505050506040513d601f19601f820116820180604052508101906119939190614d14565b6119c9576040517f31fb21f300000000000000000000000000000000000000000000000000000000815260040160405180910390fd5b6000338383602001516040516020016119e493929190614d4e565b604080517fffffffffffffffffffffffffffffffffffffffffffffffffffffffffffffffe081840301815290829052805160209091012083517f2f3f50e000000000000000000000000000000000000000000000000000000000835290925073ffffffffffffffffffffffffffffffffffffffff7f0000000000000000000000004be9d88be6e7a38644ea746cf78cb1bf30051c761691632f3f50e091611a919188918691600401614da0565b6000604051808303816000875af1158015611ab0573d6000803e3d6000fd5b505050506040513d6000823e601f3d9081017fffffffffffffffffffffffffffffffffffffffffffffffffffffffffffffffe0168201604052611af69190810190614bba565b5050505050565b6000807f000000000000000000000000daf6226aafe296bbccbec815133386cd910ed58273ffffffffffffffffffffffffffffffffffffffff1663293c49996040518163ffffffff1660e01b8152600401602060405180830381865afa158015611b6b573d6000803e3d6000fd5b505050506040513d601f19601f82011682018060405250810190611b8f9190614614565b73ffffffffffffffffffffffffffffffffffffffff166306661abd6040518163ffffffff1660e01b8152600401602060405180830381865afa158015611bd9573d6000803e3d6000fd5b505050506040513d601f19601f82011682018060405250810190611bfd9190614e9d565b611c08906001614c83565b84519092506000611c1a826001614c83565b67ffffffffffffffff811115611c3257611c32613073565b604051908082528060200260200182016040528015611c7f57816020015b60408051606080820183526000808352602083015291810191909152815260200190600190039081611c505790505b50905060005b82811015611ccc57868181518110611c9f57611c9f614631565b6020026020010151828281518110611cb957611cb9614631565b6020908102919091010152600101611c85565b5086516040517f2230819f00000000000000000000000000000000000000000000000000000000815273ffffffffffffffffffffffffffffffffffffffff7f000000000000000000000000cdfa45a183fa6841ed1ef8550fca0a8aab42ec341691632230819f91611d41918891600401614ff0565b6020604051808303816000875af1158015611d60573d6000803e3d6000fd5b505050506040513d601f19601f82011682018060405250810190611d849190614614565b9250866020015115611dc8576002805460018101825560009190915260167f405787fa12a823e0f2b7631cc41b3ba8828b3321ca811111fa75cd3aa3bb5ace909101555b866040015115611e0a576002805460018101825560009190915260177f405787fa12a823e0f2b7631cc41b3ba8828b3321ca811111fa75cd3aa3bb5ace909101555b866060015115611e4c576002805460018101825560009190915260187f405787fa12a823e0f2b7631cc41b3ba8828b3321ca811111fa75cd3aa3bb5ace909101555b60405180606001604052808473ffffffffffffffffffffffffffffffffffffffff1681526020016000815260200160405180602001604052806000815250815250818381518110611e9f57611e9f614631565b6020026020010181905250611eb88b8b8b8b858a610977565b50505097509795505050505050565b600080600080611ed88a8888612759565b9250925092507f000000000000000000000000daf6226aafe296bbccbec815133386cd910ed58273ffffffffffffffffffffffffffffffffffffffff16630634bae9308c6000015160400151868d8f6000015160200151604051602001611f3f919061516d565b6040516020818303038152906040526040518663ffffffff1660e01b8152600401611f6e95949392919061555d565b6020604051808303816000875af1158015611f8d573d6000803e3d6000fd5b505050506040513d601f19601f82011682018060405250810190611fb19190614e9d565b93508015611fd657611fc66276a70042614c83565b6000858152600160205260409020555b8951805160208201516060909201516040517f5817819100000000000000000000000000000000000000000000000000000000815273ffffffffffffffffffffffffffffffffffffffff7f000000000000000000000000daf6226aafe296bbccbec815133386cd910ed582169363581781919361205a938a939192916004016156c2565b6020604051808303816000875af1158015612079573d6000803e3d6000fd5b505050506040513d601f19601f8201168201806040525081019061209d9190614614565b50875173ffffffffffffffffffffffffffffffffffffffff16156120c5576120c58489612c5b565b7f000000000000000000000000daf6226aafe296bbccbec815133386cd910ed58273ffffffffffffffffffffffffffffffffffffffff1663dd5f214a8560006121118e60600151612de0565b6040518463ffffffff1660e01b815260040161212f939291906156ff565b600060405180830381600087803b15801561214957600080fd5b505af115801561215d573d6000803e3d6000fd5b505050507f000000000000000000000000daf6226aafe296bbccbec815133386cd910ed58273ffffffffffffffffffffffffffffffffffffffff1663f434c9146040518163ffffffff1660e01b8152600401602060405180830381865afa1580156121cc573d6000803e3d6000fd5b505050506040513d601f19601f820116820180604052508101906121f09190614614565b73ffffffffffffffffffffffffffffffffffffffff166305d2912e3060405180606001604052808e6060015173ffffffffffffffffffffffffffffffffffffffff168152602001888152602001600280548060200260200160405190810160405280929190818152602001828054801561228957602002820191906000526020600020905b815481526020019060010190808311612275575b50505050508152506040518363ffffffff1660e01b81526004016122ae92919061478f565b600060405180830381600087803b1580156122c857600080fd5b505af11580156122dc573d6000803e3d6000fd5b5050505060408a0151156123c0577f000000000000000000000000daf6226aafe296bbccbec815133386cd910ed58273ffffffffffffffffffffffffffffffffffffffff1663c7fb92de858c604001518d606001518e600001516020015160405160200161234a919061571e565b60405160208183030381529060405260006040518663ffffffff1660e01b815260040161237b95949392919061578a565b6020604051808303816000875af115801561239a573d6000803e3d6000fd5b505050506040513d601f19601f820116820180604052508101906123be9190614e9d565b505b60408051600180825281830190925260009160208083019080368337019050509050601d816000815181106123f7576123f7614631565b6020026020010181815250507f000000000000000000000000daf6226aafe296bbccbec815133386cd910ed58273ffffffffffffffffffffffffffffffffffffffff1663f434c9146040518163ffffffff1660e01b8152600401602060405180830381865afa15801561246e573d6000803e3d6000fd5b505050506040513d601f19601f820116820180604052508101906124929190614614565b73ffffffffffffffffffffffffffffffffffffffff166305d2912e3060405180606001604052807f0000000000000000000000004be9d88be6e7a38644ea746cf78cb1bf30051c7673ffffffffffffffffffffffffffffffffffffffff168152602001898152602001858152506040518363ffffffff1660e01b815260040161251c92919061478f565b600060405180830381600087803b15801561253657600080fd5b505af115801561254a573d6000803e3d6000fd5b50505050602086015115612684577f0000000000000000000000004be9d88be6e7a38644ea746cf78cb1bf30051c7673ffffffffffffffffffffffffffffffffffffffff16632f3f50e08633868a602001516040516020016125ae93929190614d4e565b604080517fffffffffffffffffffffffffffffffffffffffffffffffffffffffffffffffe08184030181529082905280516020909101208a517fffffffff0000000000000000000000000000000000000000000000000000000060e086901b16835261261d9392600401614da0565b6000604051808303816000875af115801561263c573d6000803e3d6000fd5b505050506040513d6000823e601f3d9081017fffffffffffffffffffffffffffffffffffffffffffffffffffffffffffffffe01682016040526126829190810190614bba565b505b505050509695505050505050565b805160005b8181101561275357600084815260036020526040902083518490839081106126c1576126c1614631565b602090810291909101810151825460018082018555600094855293839020825160039092020180547fffffffffffffffffffffffff00000000000000000000000000000000000000001673ffffffffffffffffffffffffffffffffffffffff9092169190911781559181015192820192909255604082015160028201906127489082615826565b505050600101612697565b50505050565b60608060008086608001515190508067ffffffffffffffff81111561278057612780613073565b60405190808252806020026020018201604052801561287257816020015b61285f6040805161010080820183526000808352602080840182905283850182905260608085018390526080808601849052865161020081018852848152928301849052958201839052810182905293840181905260a084810182905260c0850182905260e0850182905291840181905261012084018190526101408401819052610160840181905261018084018190526101a084018190526101c084018190526101e0840152909190820190815260200160608152602001606081525090565b81526020019060019003908161279e5790505b5093508660200151604051602001612896919063ffffffff91909116815260200190565b604080518083037fffffffffffffffffffffffffffffffffffffffffffffffffffffffffffffffe001815260c083018252600080845260208401819052918301829052606083018290526080830182905260a0830182905294505b82811015612c4f578860800151818151811061290f5761290f614631565b60200260200101519150816000015164ffffffffff1686828151811061293757612937614631565b60200260200101516000018181525050816060015164ffffffffff1686828151811061296557612965614631565b6020026020010151602001818152505081604001516dffffffffffffffffffffffffffff1686828151811061299c5761299c614631565b60200260200101516040018181525050816080015163ffffffff168682815181106129c9576129c9614631565b6020026020010151606001818152505060008682815181106129ed576129ed614631565b60200260200101516080019073ffffffffffffffffffffffffffffffffffffffff16908173ffffffffffffffffffffffffffffffffffffffff1681525050604051806102000160405280836020015161ffff1681526020018360a0015161ffff16612710612a5b9190615940565b815260208b81015163ffffffff16908201526000604082018190526060820181905260016080830181905260a0830182905260c0830182905260e0830182905261010083018290526101208301829052610140830182905261016083015261018082015273ffffffffffffffffffffffffffffffffffffffff8a166101a08201526101c0018890528651879083908110612af757612af7614631565b602002602001015160a00181905250806000148015612b1d5750815164ffffffffff1615155b8015612b33575042826000015164ffffffffff16105b15612b3d57600193505b8481158015612b525750825164ffffffffff16155b612b6457825164ffffffffff16612b66565b425b83602001518460400151856060015186608001518760a00151604051602001612bdb9695949392919095865261ffff94851660208701526dffffffffffffffffffffffffffff93909316604086015264ffffffffff91909116606085015263ffffffff1660808401521660a082015260c00190565b604080517fffffffffffffffffffffffffffffffffffffffffffffffffffffffffffffffe081840301815290829052612c179291602001615953565b604080517fffffffffffffffffffffffffffffffffffffffffffffffffffffffffffffffe081840301815291905294506001016128f1565b50505093509350939050565b602081810151516040805160808101825260008082529381018490529081018390526060810183905290915b82811015612d875783602001518181518110612ca557612ca5614631565b6020908102919091018101518551918101516040808301516060840151845192517f7b621d3a000000000000000000000000000000000000000000000000000000008152600481018c905262ffffff909416602485015263ffffffff918216604485015216606483015273ffffffffffffffffffffffffffffffffffffffff9081166084830152919450911690637b621d3a9060a4016020604051808303816000875af1158015612d5a573d6000803e3d6000fd5b505050506040513d601f19601f82011682018060405250810190612d7e9190614614565b50600101612c87565b5050905160009283526020839052604090922080547fffffffffffffffffffffffff00000000000000000000000000000000000000001673ffffffffffffffffffffffffffffffffffffffff9093169290921790915550565b604080516001808252818301909252606091816020015b604080518082019091526000815260606020820152815260200190600190039081612df757505060408051600180825281830190925291925060009190602082015b6040805160c08101825260008082526020808301829052928201819052606082018190526080820181905260a082015282527fffffffffffffffffffffffffffffffffffffffffffffffffffffffffffffffff909201910181612e395790505090506040518060c00160405280600015158152602001633b9aca008152602001600081526020018473ffffffffffffffffffffffffffffffffffffffff16815260200160008152602001600073ffffffffffffffffffffffffffffffffffffffff1681525081600081518110612f1157612f11614631565b60200260200101819052506040518060400160405280600181526020018281525082600081518110612f4557612f45614631565b602002602001018190525050919050565b600060208284031215612f6857600080fd5b81357fffffffff0000000000000000000000000000000000000000000000000000000081168114612f9857600080fd5b9392505050565b73ffffffffffffffffffffffffffffffffffffffff81168114612fc157600080fd5b50565b8035612fcf81612f9f565b919050565b600080600080600060808688031215612fec57600080fd5b8535612ff781612f9f565b9450602086013561300781612f9f565b935060408601359250606086013567ffffffffffffffff8082111561302b57600080fd5b818801915088601f83011261303f57600080fd5b81358181111561304e57600080fd5b89602082850101111561306057600080fd5b9699959850939650602001949392505050565b7f4e487b7100000000000000000000000000000000000000000000000000000000600052604160045260246000fd5b60405160c0810167ffffffffffffffff811182821017156130c5576130c5613073565b60405290565b60405160a0810167ffffffffffffffff811182821017156130c5576130c5613073565b6040516080810167ffffffffffffffff811182821017156130c5576130c5613073565b6040805190810167ffffffffffffffff811182821017156130c5576130c5613073565b604051610180810167ffffffffffffffff811182821017156130c5576130c5613073565b604051610120810167ffffffffffffffff811182821017156130c5576130c5613073565b6040516060810167ffffffffffffffff811182821017156130c5576130c5613073565b604051601f82017fffffffffffffffffffffffffffffffffffffffffffffffffffffffffffffffe016810167ffffffffffffffff811182821017156131e6576131e6613073565b604052919050565b600067ffffffffffffffff82111561320857613208613073565b50601f017fffffffffffffffffffffffffffffffffffffffffffffffffffffffffffffffe01660200190565b600082601f83011261324557600080fd5b8135613258613253826131ee565b61319f565b81815284602083860101111561326d57600080fd5b816020850160208301376000918101602001919091529392505050565b803563ffffffff81168114612fcf57600080fd5b600067ffffffffffffffff8211156132b8576132b8613073565b5060051b60200190565b803564ffffffffff81168114612fcf57600080fd5b803561ffff81168114612fcf57600080fd5b600082601f8301126132fa57600080fd5b8135602061330a6132538361329e565b82815260c0928302850182019282820191908785111561332957600080fd5b8387015b858110156133ce5781818a0312156133455760008081fd5b61334d6130a2565b613356826132c2565b81526133638683016132d7565b868201526040808301356dffffffffffffffffffffffffffff8116811461338a5760008081fd5b90820152606061339b8382016132c2565b9082015260806133ac83820161328a565b9082015260a06133bd8382016132d7565b90820152845292840192810161332d565b5090979650505050505050565b600060a082840312156133ed57600080fd5b6133f56130cb565b9050813567ffffffffffffffff8082111561340f57600080fd5b908301906080828603121561342357600080fd5b61342b6130ee565b82358281111561343a57600080fd5b61344687828601613234565b82525060208301358281111561345b57600080fd5b61346787828601613234565b60208301525060408301358281111561347f57600080fd5b61348b87828601613234565b6040830152506060838101359082015283526134a96020850161328a565b6020840152604084013560408401526134c460608501612fc4565b606084015260808401359150808211156134dd57600080fd5b506134ea848285016132e9565b60808301525092915050565b600082601f83011261350757600080fd5b813560206135176132538361329e565b8083825260208201915060208460051b87010193508684111561353957600080fd5b602086015b8481101561355e57803561355181612f9f565b835291830191830161353e565b509695505050505050565b600082601f83011261357a57600080fd5b8135602061358a6132538361329e565b82815260059290921b840181019181810190868411156135a957600080fd5b8286015b8481101561355e57803567ffffffffffffffff808211156135ce5760008081fd5b81890191506040807fffffffffffffffffffffffffffffffffffffffffffffffffffffffffffffffe0848d030112156136075760008081fd5b61360f613111565b8784013561361c81612f9f565b81529083013590828211156136315760008081fd5b61363f8c89848701016134f6565b8189015286525050509183019183016135ad565b803562ffffff81168114612fcf57600080fd5b6000604080838503121561367957600080fd5b613681613111565b9150823561368e81612f9f565b825260208381013567ffffffffffffffff8111156136ab57600080fd5b8401601f810186136136bc57600080fd5b80356136ca6132538261329e565b81815260079190911b820183019083810190888311156136e957600080fd5b928401925b8284101561375d576080848a0312156137075760008081fd5b61370f6130ee565b843561371a81612f9f565b8152613727858701613653565b8682015261373687860161328a565b87820152606061374781870161328a565b90820152825260809390930192908401906136ee565b808588015250505050505092915050565b60006040828403121561378057600080fd5b613788613111565b905067ffffffffffffffff80833511156137a157600080fd5b8235830184601f8201126137b457600080fd5b6137c1613253823561329e565b81358082526020808301929160051b840101878111156137e057600080fd5b602084015b818110156139435785813511156137fb57600080fd5b8035850160407fffffffffffffffffffffffffffffffffffffffffffffffffffffffffffffffe0828c0301121561383157600080fd5b613839613111565b6138466020830135612f9f565b60208201358152876040830135111561385e57600080fd5b6040820135820191508a603f83011261387657600080fd5b60208201356138876132538261329e565b81815260079190911b83016040019060208101908d8311156138a857600080fd5b6040850194505b82851015613924576080858f0312156138c757600080fd5b6138cf6130ee565b6138d98635612f9f565b853581526138e96020870161328a565b60208201526138fb6040870135612f9f565b6040860135604082015260608601356060820152808352506020820191506080850194506138af565b80602085015250505080865250506020840193506020810190506137e5565b5050808552505050506020820135602082015292915050565b80356cffffffffffffffffffffffffff81168114612fcf57600080fd5b8015158114612fc157600080fd5b8035612fcf81613979565b803560ff81168114612fcf57600080fd5b600060808083850312156139b657600080fd5b6139be6130ee565b9150823567ffffffffffffffff8111156139d757600080fd5b8301601f810185136139e857600080fd5b803560206139f86132538361329e565b8281526101809283028401820192828201919089851115613a1857600080fd5b948301945b84861015613b0b5780868b031215613a355760008081fd5b613a3d613134565b613a468761395c565b8152613a5385880161328a565b858201526040613a6481890161328a565b908201526060613a758882016132d7565b90820152613a84878901612fc4565b8189015260a0878101359082015260c0613a9f818901613653565b9082015260e0613ab0888201613987565b90820152610100613ac2888201613987565b90820152610120613ad4888201613987565b90820152610140613ae6888201613987565b90820152610160613af8888201613987565b9082015283529485019491830191613a1d565b50865250613b1a86820161328a565b8186015250505050613b2e60408301613992565b6040820152613b3f60608301612fc4565b606082015292915050565b600060808284031215613b5c57600080fd5b613b646130ee565b90508135613b7181613979565b81526020820135613b8181613979565b60208201526040820135613b9481613979565b60408201526060820135613b3f81613979565b600060808284031215613bb957600080fd5b613bc16130ee565b9050813567ffffffffffffffff80821115613bdb57600080fd5b908301906101808286031215613bf057600080fd5b613bf8613158565b823582811115613c0757600080fd5b613c1387828601613234565b825250602083013582811115613c2857600080fd5b613c3487828601613234565b602083015250613c4660408401612fc4565b6040820152606083013582811115613c5d57600080fd5b613c6987828601613234565b606083015250613c7b60808401612fc4565b608082015260a083013582811115613c9257600080fd5b613c9e87828601613234565b60a08301525060c083013582811115613cb657600080fd5b613cc2878286016139a3565b60c083015250613cd460e08401612fc4565b60e08201526101009150613cea86838501613b4a565b82820152808452505050613d0060208301613987565b6020820152613d1160408301613987565b6040820152613b3f60608301613987565b600082601f830112613d3357600080fd5b81356020613d436132538361329e565b82815260059290921b84018101918181019086841115613d6257600080fd5b8286015b8481101561355e57803567ffffffffffffffff80821115613d875760008081fd5b81890191506060807fffffffffffffffffffffffffffffffffffffffffffffffffffffffffffffffe0848d03011215613dc05760008081fd5b613dc861317c565b87840135613dd581612f9f565b815260408481013589830152918401359183831115613df45760008081fd5b613e028d8a85880101613234565b908201528652505050918301918301613d66565b600082601f830112613e2757600080fd5b81356020613e376132538361329e565b82815260059290921b84018101918181019086841115613e5657600080fd5b8286015b8481101561355e57803567ffffffffffffffff80821115613e7b5760008081fd5b818901915060a0807fffffffffffffffffffffffffffffffffffffffffffffffffffffffffffffffe0848d03011215613eb45760008081fd5b613ebc6130cb565b87840135815260408085013589830152606080860135828401526080915081860135818401525082850135925083831115613ef75760008081fd5b613f058d8a858801016134f6565b908201528652505050918301918301613e5a565b600080600080600080600080610100898b031215613f3657600080fd5b883567ffffffffffffffff80821115613f4e57600080fd5b613f5a8c838d016133db565b995060208b0135915080821115613f7057600080fd5b613f7c8c838d01613569565b985060408b0135915080821115613f9257600080fd5b613f9e8c838d01613666565b975060608b0135915080821115613fb457600080fd5b613fc08c838d0161376e565b965060808b0135915080821115613fd657600080fd5b613fe28c838d01613ba7565b955060a08b0135915080821115613ff857600080fd5b6140048c838d01613d22565b945061401260c08c016132d7565b935060e08b013591508082111561402857600080fd5b506140358b828c01613e16565b9150509295985092959890939650565b60008060008060008060c0878903121561405e57600080fd5b863567ffffffffffffffff8082111561407657600080fd5b6140828a838b016133db565b9750602089013591508082111561409857600080fd5b6140a48a838b01613569565b965060408901359150808211156140ba57600080fd5b6140c68a838b01613666565b955060608901359150808211156140dc57600080fd5b6140e88a838b0161376e565b945060808901359150808211156140fe57600080fd5b5061410b89828a01613d22565b92505061411a60a088016132d7565b90509295509295509295565b60006020828403121561413857600080fd5b5035919050565b60006020828403121561415157600080fd5b813567ffffffffffffffff81111561416857600080fd5b82016101808185031215612f9857600080fd5b60005b8381101561419657818101518382015260200161417e565b50506000910152565b600081518084526141b781602086016020860161417b565b601f017fffffffffffffffffffffffffffffffffffffffffffffffffffffffffffffffe0169290920160200192915050565b600082825180855260208086019550808260051b84010181860160005b848110156133ce578583037fffffffffffffffffffffffffffffffffffffffffffffffffffffffffffffffe00189528151805173ffffffffffffffffffffffffffffffffffffffff16845284810151858501526040908101516060918501829052906142748186018361419f565b9a86019a9450505090830190600101614206565b8281526040602082015260006142a160408301846141e9565b949350505050565b602081526000612f9860208301846141e9565b600080604083850312156142cf57600080fd5b8235915060208301356142e181612f9f565b809150509250929050565b6000806000806080858703121561430257600080fd5b843567ffffffffffffffff8082111561431a57600080fd5b614326888389016133db565b9550602087013591508082111561433c57600080fd5b61434888838901613569565b9450604087013591508082111561435e57600080fd5b61436a88838901613666565b9350606087013591508082111561438057600080fd5b5061438d8782880161376e565b91505092959194509250565b6000602082840312156143ab57600080fd5b813567ffffffffffffffff8111156143c257600080fd5b82016101a08185031215612f9857600080fd5b60006080820186835260208681850152604086604086015260606080606087015283875180865260a08801915060a08160051b890101955084890160005b8281101561448e578988037fffffffffffffffffffffffffffffffffffffffffffffffffffffffffffffff600184528151805173ffffffffffffffffffffffffffffffffffffffff16895287810151888a015286015186890186905261447b868a018261419f565b9850509286019290860190600101614413565b50959c9b505050505050505050505050565b6000806000606084860312156144b557600080fd5b83359250602084013567ffffffffffffffff808211156144d457600080fd5b6144e087838801613234565b935060408601359150808211156144f657600080fd5b506145038682870161376e565b9150509250925092565b600080600080600080600060e0888a03121561452857600080fd5b873567ffffffffffffffff8082111561454057600080fd5b61454c8b838c016133db565b985060208a013591508082111561456257600080fd5b61456e8b838c01613569565b975060408a013591508082111561458457600080fd5b6145908b838c01613666565b965060608a01359150808211156145a657600080fd5b6145b28b838c0161376e565b955060808a01359150808211156145c857600080fd5b6145d48b838c01613ba7565b945060a08a01359150808211156145ea57600080fd5b506145f78a828b01613d22565b92505061460660c089016132d7565b905092959891949750929550565b60006020828403121561462657600080fd5b8151612f9881612f9f565b7f4e487b7100000000000000000000000000000000000000000000000000000000600052603260045260246000fd5b60008151808452602080850194506020840160005b838110156146a757815173ffffffffffffffffffffffffffffffffffffffff1687529582019590820190600101614675565b509495945050505050565b6000604080830185845260206040818601528186518084526060935060608701915060608160051b88010183890160005b8381101561477f578983037fffffffffffffffffffffffffffffffffffffffffffffffffffffffffffffffa00185528151805173ffffffffffffffffffffffffffffffffffffffff1684528681015187850152888101518985015287810151888501526080808201519085015260a09081015160c09185018290529061476b81860183614660565b9688019694505050908501906001016146e3565b50909a9950505050505050505050565b600073ffffffffffffffffffffffffffffffffffffffff808516835260206040602085015260a0840182865116604086015260208601516060860152604086015192506060608086015280835180835260c087019150602085019450600092505b8083101561481057845182529383019360019290920191908301906147f0565b50979650505050505050565b803561482781612f9f565b73ffffffffffffffffffffffffffffffffffffffff1682526020818101359083015260408082013590830152606090810135910152565b60008083357fffffffffffffffffffffffffffffffffffffffffffffffffffffffffffffffe184360301811261489357600080fd5b830160208101925035905067ffffffffffffffff8111156148b357600080fd5b8036038213156148c257600080fd5b9250929050565b8183528181602085013750600060208284010152600060207fffffffffffffffffffffffffffffffffffffffffffffffffffffffffffffffe0601f840116840101905092915050565b602081526149406020820161492684612fc4565b73ffffffffffffffffffffffffffffffffffffffff169052565b600061494e60208401612fc4565b73ffffffffffffffffffffffffffffffffffffffff811660408401525061497b606083016040850161481c565b60c083013560e083015261010060e08401358184015261499c818501612fc4565b90506101206149c28185018373ffffffffffffffffffffffffffffffffffffffff169052565b610140915080850135828501525061016081850135818501526149e78186018661485e565b61018086810152925090506111226101a0850183836148c9565b6000806040808486031215614a1557600080fd5b8351925060208085015167ffffffffffffffff80821115614a3557600080fd5b818701915087601f830112614a4957600080fd5b8151614a576132538261329e565b81815260059190911b8301840190848101908a831115614a7657600080fd5b8585015b83811015614b5557805185811115614a9157600080fd5b86016060818e037fffffffffffffffffffffffffffffffffffffffffffffffffffffffffffffffe0011215614ac65760008081fd5b614ace61317c565b88820151614adb81612f9f565b8152818a015189820152606082015187811115614af85760008081fd5b8083019250508d603f830112614b0e5760008081fd5b88820151614b1e613253826131ee565b8181528f8c838601011115614b335760008081fd5b614b42828c83018e870161417b565b828c015250845250918601918601614a7a565b50809750505050505050509250929050565b600181811c90821680614b7b57607f821691505b602082108103614bb4577f4e487b7100000000000000000000000000000000000000000000000000000000600052602260045260246000fd5b50919050565b60006020808385031215614bcd57600080fd5b825167ffffffffffffffff811115614be457600080fd5b8301601f81018513614bf557600080fd5b8051614c036132538261329e565b81815260059190911b82018301908381019087831115614c2257600080fd5b928401925b82841015614c49578351614c3a81612f9f565b82529284019290840190614c27565b979650505050505050565b7f4e487b7100000000000000000000000000000000000000000000000000000000600052601160045260246000fd5b8082018082111561049257610492614c54565b60006080820173ffffffffffffffffffffffffffffffffffffffff80881684526020818816602086015286604086015260806060860152829150855480845260a086019250866000526020600020935060005b81811015614d0557845484526001948501949383019301614ce9565b50919998505050505050505050565b600060208284031215614d2657600080fd5b8151612f9881613979565b600060208284031215614d4357600080fd5b8135612f9881612f9f565b7fffffffffffffffffffffffffffffffffffffffff0000000000000000000000008460601b16815260008351614d8b81601485016020880161417b565b60149201918201929092526034019392505050565b600060608083018684526020868186015260406060604087015282875180855260808801915060808160051b89010194508389016000805b8381101561448e578a88037fffffffffffffffffffffffffffffffffffffffffffffffffffffffffffffff800185528251805173ffffffffffffffffffffffffffffffffffffffff9081168a5290880151888a018890528051888b018190529089019184918c8c01905b80841015614e875784518051841683528c81015163ffffffff168d8401528b81015184168c8401528e01518e830152938b019360019390930192608090910190614e42565b509a505050948701945091860191600101614dd8565b600060208284031215614eaf57600080fd5b5051919050565b80516080808452815184820181905260009260a0916020918201918388019190865b82811015614fa857845180516cffffffffffffffffffffffffff1685528281015163ffffffff908116848701526040808301519091169086015260608082015161ffff16908601528781015173ffffffffffffffffffffffffffffffffffffffff1688860152868101518786015260c08082015162ffffff169086015260e080820151151590860152610100808201511515908601526101208082015115159086015261014080820151151590860152610160908101511515908501529381019361018090930192600101614ed8565b508781015163ffffffff16908901525060408087015160ff169088015260608087015173ffffffffffffffffffffffffffffffffffffffff8116918901919091529350610997565b828152604060208201526000825161018060408401526150146101c084018261419f565b905060208401517fffffffffffffffffffffffffffffffffffffffffffffffffffffffffffffffc080858403016060860152615050838361419f565b92506040860151915061507b608086018373ffffffffffffffffffffffffffffffffffffffff169052565b60608601519150808584030160a0860152615096838361419f565b9250608086015191506150c160c086018373ffffffffffffffffffffffffffffffffffffffff169052565b60a08601519150808584030160e08601526150dc838361419f565b925060c086015191506101008186850301818701526150fb8484614eb6565b935060e0870151925061512761012087018473ffffffffffffffffffffffffffffffffffffffff169052565b860151805115156101408701526020810151151561016087015260408101511515610180870152606081015115156101a087015291506151649050565b50949350505050565b7f24000000000000000000000000000000000000000000000000000000000000008152600082516151a581600185016020870161417b565b7f207265766e6574206465706c6f796564000000000000000000000000000000006001939091019283015250601101919050565b8051825260208101516020830152604081015160408301526060810151615204606084018215159052565b506080810151615218608084018215159052565b5060a081015161522c60a084018215159052565b5060c081015161524060c084018215159052565b5060e081015161525460e084018215159052565b5061010081810151151590830152610120808201511515908301526101408082015115159083015261016080820151151590830152610180808201511515908301526101a0808201511515908301526101c08082015173ffffffffffffffffffffffffffffffffffffffff16908301526101e090810151910152565b600082825180855260208086019550808260051b8401018186016000805b858110156153c1578684037fffffffffffffffffffffffffffffffffffffffffffffffffffffffffffffffe0018a52825180518552850151604086860181905281518187018190529187019160609081880190865b818110156153aa5785518051151584528b8101518c85015285810151868501528481015173ffffffffffffffffffffffffffffffffffffffff908116868601526080808301519086015260a0918201511690840152948a019460c090920191600101615343565b50509c88019c9650505092850192506001016152ee565b509198975050505050505050565b60008151808452602080850194506020840160005b838110156146a75781518051885283015183880152604090960195908201906001016153e4565b600082825180855260208086019550808260051b84010181860160005b848110156133ce577fffffffffffffffffffffffffffffffffffffffffffffffffffffffffffffffe08684030189528151608073ffffffffffffffffffffffffffffffffffffffff80835116865280878401511687870152506040808301518282880152615498838801826153cf565b92505050606080830151925085820381870152506154b681836153cf565b9a86019a9450505090830190600101615428565b600082825180855260208086019550808260051b84010181860160005b848110156133ce578583037fffffffffffffffffffffffffffffffffffffffffffffffffffffffffffffffe00189528151805173ffffffffffffffffffffffffffffffffffffffff168452840151604085850181905261554981860183614660565b9a86019a94505050908301906001016154e7565b600060a073ffffffffffffffffffffffffffffffffffffffff88168352602060a08185015261558f60a085018961419f565b604085820360408701528189518084528484019150848160051b850101858c0160005b83811015615688577fffffffffffffffffffffffffffffffffffffffffffffffffffffffffffffffe087840301855281516102e081518552898201518a8601528782015188860152606080830151818701525060808083015161562c8288018273ffffffffffffffffffffffffffffffffffffffff169052565b50508a82015161563e8c8701826151d9565b5060c0820151816102a0870152615657828701826152d0565b91505060e082015191508481036102c0860152615674818361540b565b968a019694505050908701906001016155b2565b505088810360608a015261569c818c6154ca565b965050505050505082810360808401526156b6818561419f565b98975050505050505050565b8481526080602082015260006156db608083018661419f565b82810360408401526156ed818661419f565b91505082606083015295945050505050565b83815282602082015260606040820152600061112260608301846152d0565b7f240000000000000000000000000000000000000000000000000000000000000081526000825161575681600185016020870161417b565b7f207072656d696e746564000000000000000000000000000000000000000000006001939091019283015250600b01919050565b85815284602082015273ffffffffffffffffffffffffffffffffffffffff8416604082015260a0606082015260006157c560a083018561419f565b905082151560808301529695505050505050565b601f821115615821576000816000526020600020601f850160051c810160208610156158025750805b601f850160051c820191505b8181101561169f5782815560010161580e565b505050565b815167ffffffffffffffff81111561584057615840613073565b6158548161584e8454614b67565b846157d9565b602080601f8311600181146158a757600084156158715750858301515b7fffffffffffffffffffffffffffffffffffffffffffffffffffffffffffffffff600386901b1c1916600185901b17855561169f565b6000858152602081207fffffffffffffffffffffffffffffffffffffffffffffffffffffffffffffffe08616915b828110156158f4578886015182559484019460019091019084016158d5565b508582101561593057878501517fffffffffffffffffffffffffffffffffffffffffffffffffffffffffffffffff600388901b60f8161c191681555b5050505050600190811b01905550565b8181038181111561049257610492614c54565b6000835161596581846020880161417b565b83519083019061597981836020880161417b565b0194935050505056fea26469706673582212200d8526601dbb535e8e512b2f806caea5968ae535e85165f3485341081d55b81b64736f6c63430008170033",
			"devdoc": {
				"kind": "dev",
				"methods": {
					"beforePayRecordedWith((address,address,(address,uint256,uint256,uint256),uint256,uint256,address,uint256,uint256,bytes))": {
						"details": "Part of IJBFundingCycleDataSource.This implementation just sets this contract up to receive a `didPay` call.",
						"params": {
							"context": "The Juicebox standard network payment context. See"
						},
						"returns": {
							"hookSpecifications": "Amount to be sent to pay hooks instead of adding to local balance. Useful for auto-routing funds from a treasury as payment come in.",
							"weight": "The weight that network tokens should get minted relative to. This is useful for optionally customizing how many tokens are issued per payment."
						}
					},
					"constructor": {
						"params": {
							"controller": "The controller that revnets are made from.",
							"hookDeployer": "The 721 tiers hook deployer.",
							"publisher": "The croptop publisher that facilitates the permissioned publishing of 721 posts to a revnet.",
							"suckerRegistry": "The registry that deploys and tracks each project's suckers."
						}
					},
					"deployCroptopRevnetWith(((string,string,string,bytes32),uint32,uint256,address,(uint40,uint16,uint112,uint40,uint32,uint16)[]),(address,address[])[],(address,(address,uint24,uint32,uint32)[]),((address,(address,uint32,address,uint256)[])[],bytes32),((string,string,address,string,address,string,((uint104,uint32,uint32,uint16,address,bytes32,uint24,bool,bool,bool,bool,bool)[],uint32,uint8,address),address,(bool,bool,bool,bool)),bool,bool,bool),(address,uint256,bytes)[],uint16,(uint256,uint256,uint256,uint256,address[])[])": {
						"params": {
							"allowedPosts": "The type of posts that the network should allow.",
							"buybackHookConfiguration": "Data used for setting up the buyback hook to use when determining the best price for new participants.",
							"configuration": "The data needed to deploy a basic revnet.",
							"extraHookMetadata": "Extra metadata to attach to the cycle for the delegates to use.",
							"hookConfiguration": "Data used for setting up the 721 tiers.",
							"otherPayHooksSpecifications": "Any hooks that should run when the revnet is paid alongside the 721 hook.",
							"suckerDeploymentConfiguration": "Information about how this revnet relates to other's across chains.",
							"terminalConfigurations": "The terminals that the network uses to accept payments through."
						},
						"returns": {
							"hook": "The address of the 721 hook that was deployed on the revnet.",
							"revnetId": "The ID of the newly created revnet."
						}
					},
					"deployPayHookRevnetWith(((string,string,string,bytes32),uint32,uint256,address,(uint40,uint16,uint112,uint40,uint32,uint16)[]),(address,address[])[],(address,(address,uint24,uint32,uint32)[]),((address,(address,uint32,address,uint256)[])[],bytes32),(address,uint256,bytes)[],uint16)": {
						"params": {
							"buybackHookConfiguration": "Data used for setting up the buyback hook to use when determining the best price for new participants.",
							"configuration": "The data needed to deploy a basic revnet.",
							"extraHookMetadata": "Extra metadata to attach to the cycle for the delegates to use.",
							"payHookSpecifications": "Any hooks that should run when the revnet is paid.",
							"suckerDeploymentConfiguration": "Information about how this revnet relates to other's across chains.",
							"terminalConfigurations": "The terminals that the network uses to accept payments through."
						},
						"returns": {
							"revnetId": "The ID of the newly created revnet."
						}
					},
					"deployRevnetWith(((string,string,string,bytes32),uint32,uint256,address,(uint40,uint16,uint112,uint40,uint32,uint16)[]),(address,address[])[],(address,(address,uint24,uint32,uint32)[]),((address,(address,uint32,address,uint256)[])[],bytes32))": {
						"params": {
							"buybackHookConfiguration": "Data used for setting up the buyback hook to use when determining the best price for new participants.",
							"configuration": "The data needed to deploy a basic revnet.",
							"suckerDeploymentConfiguration": "Information about how this revnet relates to other's across chains.",
							"terminalConfigurations": "The terminals that the network uses to accept payments through."
						},
						"returns": {
							"revnetId": "The ID of the newly created revnet."
						}
					},
					"deploySuckersFor(uint256,bytes,((address,(address,uint32,address,uint256)[])[],bytes32))": {
						"params": {
							"encodedConfiguration": "A bytes representation of the revnet's configuration.",
							"revnetId": "The ID of the revnet having new suckers deployed.",
							"suckerDeploymentConfiguration": "The specifics about the suckers being deployed."
						}
					},
					"deployTiered721RevnetWith(((string,string,string,bytes32),uint32,uint256,address,(uint40,uint16,uint112,uint40,uint32,uint16)[]),(address,address[])[],(address,(address,uint24,uint32,uint32)[]),((address,(address,uint32,address,uint256)[])[],bytes32),((string,string,address,string,address,string,((uint104,uint32,uint32,uint16,address,bytes32,uint24,bool,bool,bool,bool,bool)[],uint32,uint8,address),address,(bool,bool,bool,bool)),bool,bool,bool),(address,uint256,bytes)[],uint16)": {
						"params": {
							"buybackHookConfiguration": "Data used for setting up the buyback hook to use when determining the best price for new participants.",
							"configuration": "The data needed to deploy a basic revnet.",
							"extraHookMetadata": "Extra metadata to attach to the cycle for the delegates to use.",
							"hookConfiguration": "Data used for setting up the 721 tiers.",
							"otherPayHooksSpecifications": "Any hooks that should run when the revnet is paid alongside the 721 hook.",
							"suckerDeploymentConfiguration": "Information about how this revnet relates to other's across chains.",
							"terminalConfigurations": "The terminals that the network uses to accept payments through."
						},
						"returns": {
							"hook": "The address of the 721 hook that was deployed on the revnet.",
							"revnetId": "The ID of the newly created revnet."
						}
					},
					"hasMintPermissionFor(uint256,address)": {
						"params": {
							"addr": "The address to check if has permissions.",
							"revnetId": "The ID of the revnet to check permissions for."
						},
						"returns": {
							"_0": "flag The flag indicating if the address has permissions to mint on the revnet's behalf."
						}
					},
					"onERC721Received(address,address,uint256,bytes)": {
						"details": "Make sure only mints can be received."
					},
					"payHookSpecificationsOf(uint256)": {
						"params": {
							"revnetId": "The ID of the revnet to which the extensions apply."
						},
						"returns": {
							"_0": "payHookSpecifications The pay hooks."
						}
					},
					"replaceOperatorOf(uint256,address)": {
						"params": {
							"newOperator": "The address of the new operator.",
							"revnetId": "The ID of the revnet having its operator replaced."
						}
					},
					"supportsInterface(bytes4)": {
						"details": "See {IERC165-supportsInterface}.",
						"params": {
							"interfaceId": "The ID of the interface to check for adherence to."
						},
						"returns": {
							"_0": "A flag indicating if the provided interface ID is supported."
						}
					}
				},
				"version": 1
			},
			"userdoc": {
				"kind": "user",
				"methods": {
					"CONTROLLER()": {
						"notice": "The controller that networks are made from."
					},
					"EXIT_DELAY()": {
						"notice": "The amount of time from a sucker being deployed to when it can facilitate exits."
					},
					"HOOK_DEPLOYER()": {
						"notice": "The contract responsible for deploying the tiered 721 hook."
					},
					"PUBLISHER()": {
						"notice": "The croptop publisher that facilitates the permissioned publishing of 721 posts to a revnet."
					},
					"SUCKER_REGISTRY()": {
						"notice": "The registry that deploys and tracks each project's suckers."
					},
					"beforePayRecordedWith((address,address,(address,uint256,uint256,uint256),uint256,uint256,address,uint256,uint256,bytes))": {
						"notice": "This function gets called when the revnet receives a payment."
					},
					"beforeRedeemRecordedWith((address,address,uint256,uint256,uint256,uint256,(address,uint256,uint256,uint256),bool,uint256,bytes))": {
						"notice": "This function is never called, it needs to be included to adhere to the interface."
					},
					"buybackHookOf(uint256)": {
						"notice": "The data hook that returns the correct values for the buyback hook of each network."
					},
					"deployCroptopRevnetWith(((string,string,string,bytes32),uint32,uint256,address,(uint40,uint16,uint112,uint40,uint32,uint16)[]),(address,address[])[],(address,(address,uint24,uint32,uint32)[]),((address,(address,uint32,address,uint256)[])[],bytes32),((string,string,address,string,address,string,((uint104,uint32,uint32,uint16,address,bytes32,uint24,bool,bool,bool,bool,bool)[],uint32,uint8,address),address,(bool,bool,bool,bool)),bool,bool,bool),(address,uint256,bytes)[],uint16,(uint256,uint256,uint256,uint256,address[])[])": {
						"notice": "Deploy a revnet that supports 721 sales."
					},
					"deployPayHookRevnetWith(((string,string,string,bytes32),uint32,uint256,address,(uint40,uint16,uint112,uint40,uint32,uint16)[]),(address,address[])[],(address,(address,uint24,uint32,uint32)[]),((address,(address,uint32,address,uint256)[])[],bytes32),(address,uint256,bytes)[],uint16)": {
						"notice": "Deploy a basic revnet that also calls other specified pay hooks."
					},
					"deployRevnetWith(((string,string,string,bytes32),uint32,uint256,address,(uint40,uint16,uint112,uint40,uint32,uint16)[]),(address,address[])[],(address,(address,uint24,uint32,uint32)[]),((address,(address,uint32,address,uint256)[])[],bytes32))": {
						"notice": "Deploy a basic revnet."
					},
					"deploySuckersFor(uint256,bytes,((address,(address,uint32,address,uint256)[])[],bytes32))": {
						"notice": "Allows a revnet's operator to deploy new suckers to the revnet after it's deployed."
					},
					"deployTiered721RevnetWith(((string,string,string,bytes32),uint32,uint256,address,(uint40,uint16,uint112,uint40,uint32,uint16)[]),(address,address[])[],(address,(address,uint24,uint32,uint32)[]),((address,(address,uint32,address,uint256)[])[],bytes32),((string,string,address,string,address,string,((uint104,uint32,uint32,uint16,address,bytes32,uint24,bool,bool,bool,bool,bool)[],uint32,uint8,address),address,(bool,bool,bool,bool)),bool,bool,bool),(address,uint256,bytes)[],uint16)": {
						"notice": "Deploy a revnet that supports 721 sales."
					},
					"exitDelayOf(uint256)": {
						"notice": "The time at which exits from a revnet become allowed."
					},
					"hasMintPermissionFor(uint256,address)": {
						"notice": "Required by the IJBRulesetDataHook interfaces."
					},
					"payHookSpecificationsOf(uint256)": {
						"notice": "The pay hooks to include during payments to networks."
					},
					"replaceOperatorOf(uint256,address)": {
						"notice": "A revnet's operator can replace itself."
					},
					"supportsInterface(bytes4)": {
						"notice": "Indicates if this contract adheres to the specified interface."
					}
				},
				"version": 1
			},
			"gitCommit": "6c2de14c26489576a0722fd439b82a3ac8f9fe75",
			"sourceName": "src/REVCroptopDeployer.sol",
			"chainId": "11155420",
			"linkReferences": {},
			"deployedLinkReferences": {}
		}
	]
}