{
	"_format": "sphinx-sol-ct-artifact-1",
	"merkleRoot": "0xa036b14f525b2c85d82b4188c7173e6b50997447f905379a2855f54a524c1952",
	"contractName": "REVCroptopDeployer",
	"address": "0x22300Cf0Cc5F03C7c3Db71b64529D2C8A9b93389",
	"abi": [
		{
			"type": "constructor",
			"inputs": [
				{
					"name": "controller",
					"type": "address",
					"internalType": "contract IJBController"
				},
				{
					"name": "suckerRegistry",
					"type": "address",
					"internalType": "contract IBPSuckerRegistry"
				},
				{
					"name": "trustedForwarder",
					"type": "address",
					"internalType": "address"
				},
				{
					"name": "hookDeployer",
					"type": "address",
					"internalType": "contract IJB721TiersHookDeployer"
				},
				{
					"name": "publisher",
					"type": "address",
					"internalType": "contract CTPublisher"
				}
			],
			"stateMutability": "nonpayable"
		},
		{
			"type": "function",
			"name": "CONTROLLER",
			"inputs": [],
			"outputs": [
				{
					"name": "",
					"type": "address",
					"internalType": "contract IJBController"
				}
			],
			"stateMutability": "view"
		},
		{
			"type": "function",
			"name": "EXIT_DELAY",
			"inputs": [],
			"outputs": [
				{
					"name": "",
					"type": "uint256",
					"internalType": "uint256"
				}
			],
			"stateMutability": "view"
		},
		{
			"type": "function",
			"name": "HOOK_DEPLOYER",
			"inputs": [],
			"outputs": [
				{
					"name": "",
					"type": "address",
					"internalType": "contract IJB721TiersHookDeployer"
				}
			],
			"stateMutability": "view"
		},
		{
			"type": "function",
			"name": "PUBLISHER",
			"inputs": [],
			"outputs": [
				{
					"name": "",
					"type": "address",
					"internalType": "contract CTPublisher"
				}
			],
			"stateMutability": "view"
		},
		{
			"type": "function",
			"name": "SUCKER_REGISTRY",
			"inputs": [],
			"outputs": [
				{
					"name": "",
					"type": "address",
					"internalType": "contract IBPSuckerRegistry"
				}
			],
			"stateMutability": "view"
		},
		{
			"type": "function",
			"name": "beforePayRecordedWith",
			"inputs": [
				{
					"name": "context",
					"type": "tuple",
					"internalType": "struct JBBeforePayRecordedContext",
					"components": [
						{
							"name": "terminal",
							"type": "address",
							"internalType": "address"
						},
						{
							"name": "payer",
							"type": "address",
							"internalType": "address"
						},
						{
							"name": "amount",
							"type": "tuple",
							"internalType": "struct JBTokenAmount",
							"components": [
								{
									"name": "token",
									"type": "address",
									"internalType": "address"
								},
								{
									"name": "value",
									"type": "uint256",
									"internalType": "uint256"
								},
								{
									"name": "decimals",
									"type": "uint256",
									"internalType": "uint256"
								},
								{
									"name": "currency",
									"type": "uint256",
									"internalType": "uint256"
								}
							]
						},
						{
							"name": "projectId",
							"type": "uint256",
							"internalType": "uint256"
						},
						{
							"name": "rulesetId",
							"type": "uint256",
							"internalType": "uint256"
						},
						{
							"name": "beneficiary",
							"type": "address",
							"internalType": "address"
						},
						{
							"name": "weight",
							"type": "uint256",
							"internalType": "uint256"
						},
						{
							"name": "reservedRate",
							"type": "uint256",
							"internalType": "uint256"
						},
						{
							"name": "metadata",
							"type": "bytes",
							"internalType": "bytes"
						}
					]
				}
			],
			"outputs": [
				{
					"name": "weight",
					"type": "uint256",
					"internalType": "uint256"
				},
				{
					"name": "hookSpecifications",
					"type": "tuple[]",
					"internalType": "struct JBPayHookSpecification[]",
					"components": [
						{
							"name": "hook",
							"type": "address",
							"internalType": "contract IJBPayHook"
						},
						{
							"name": "amount",
							"type": "uint256",
							"internalType": "uint256"
						},
						{
							"name": "metadata",
							"type": "bytes",
							"internalType": "bytes"
						}
					]
				}
			],
			"stateMutability": "view"
		},
		{
			"type": "function",
			"name": "beforeRedeemRecordedWith",
			"inputs": [
				{
					"name": "context",
					"type": "tuple",
					"internalType": "struct JBBeforeRedeemRecordedContext",
					"components": [
						{
							"name": "terminal",
							"type": "address",
							"internalType": "address"
						},
						{
							"name": "holder",
							"type": "address",
							"internalType": "address"
						},
						{
							"name": "projectId",
							"type": "uint256",
							"internalType": "uint256"
						},
						{
							"name": "rulesetId",
							"type": "uint256",
							"internalType": "uint256"
						},
						{
							"name": "redeemCount",
							"type": "uint256",
							"internalType": "uint256"
						},
						{
							"name": "totalSupply",
							"type": "uint256",
							"internalType": "uint256"
						},
						{
							"name": "surplus",
							"type": "tuple",
							"internalType": "struct JBTokenAmount",
							"components": [
								{
									"name": "token",
									"type": "address",
									"internalType": "address"
								},
								{
									"name": "value",
									"type": "uint256",
									"internalType": "uint256"
								},
								{
									"name": "decimals",
									"type": "uint256",
									"internalType": "uint256"
								},
								{
									"name": "currency",
									"type": "uint256",
									"internalType": "uint256"
								}
							]
						},
						{
							"name": "useTotalSurplus",
							"type": "bool",
							"internalType": "bool"
						},
						{
							"name": "redemptionRate",
							"type": "uint256",
							"internalType": "uint256"
						},
						{
							"name": "metadata",
							"type": "bytes",
							"internalType": "bytes"
						}
					]
				}
			],
			"outputs": [
				{
					"name": "",
					"type": "uint256",
					"internalType": "uint256"
				},
				{
					"name": "",
					"type": "uint256",
					"internalType": "uint256"
				},
				{
					"name": "",
					"type": "uint256",
					"internalType": "uint256"
				},
				{
					"name": "specifications",
					"type": "tuple[]",
					"internalType": "struct JBRedeemHookSpecification[]",
					"components": [
						{
							"name": "hook",
							"type": "address",
							"internalType": "contract IJBRedeemHook"
						},
						{
							"name": "amount",
							"type": "uint256",
							"internalType": "uint256"
						},
						{
							"name": "metadata",
							"type": "bytes",
							"internalType": "bytes"
						}
					]
				}
			],
			"stateMutability": "view"
		},
		{
			"type": "function",
			"name": "buybackHookOf",
			"inputs": [
				{
					"name": "revnetId",
					"type": "uint256",
					"internalType": "uint256"
				}
			],
			"outputs": [
				{
					"name": "buybackHook",
					"type": "address",
					"internalType": "contract IJBRulesetDataHook"
				}
			],
			"stateMutability": "view"
		},
		{
			"type": "function",
			"name": "deploySuckersFor",
			"inputs": [
				{
					"name": "revnetId",
					"type": "uint256",
					"internalType": "uint256"
				},
				{
					"name": "encodedConfiguration",
					"type": "bytes",
					"internalType": "bytes"
				},
				{
					"name": "suckerDeploymentConfiguration",
					"type": "tuple",
					"internalType": "struct REVSuckerDeploymentConfig",
					"components": [
						{
							"name": "deployerConfigurations",
							"type": "tuple[]",
							"internalType": "struct BPSuckerDeployerConfig[]",
							"components": [
								{
									"name": "deployer",
									"type": "address",
									"internalType": "contract IBPSuckerDeployer"
								},
								{
									"name": "mappings",
									"type": "tuple[]",
									"internalType": "struct BPTokenMapping[]",
									"components": [
										{
											"name": "localToken",
											"type": "address",
											"internalType": "address"
										},
										{
											"name": "minGas",
											"type": "uint32",
											"internalType": "uint32"
										},
										{
											"name": "remoteToken",
											"type": "address",
											"internalType": "address"
										},
										{
											"name": "minBridgeAmount",
											"type": "uint256",
											"internalType": "uint256"
										}
									]
								}
							]
						},
						{
							"name": "salt",
							"type": "bytes32",
							"internalType": "bytes32"
						}
					]
				}
			],
			"outputs": [],
			"stateMutability": "nonpayable"
		},
		{
			"type": "function",
			"name": "exitDelayOf",
			"inputs": [
				{
					"name": "revnetId",
					"type": "uint256",
					"internalType": "uint256"
				}
			],
			"outputs": [
				{
					"name": "exitDelay",
					"type": "uint256",
					"internalType": "uint256"
				}
			],
			"stateMutability": "view"
		},
		{
			"type": "function",
			"name": "hasMintPermissionFor",
			"inputs": [
				{
					"name": "revnetId",
					"type": "uint256",
					"internalType": "uint256"
				},
				{
					"name": "addr",
					"type": "address",
					"internalType": "address"
				}
			],
			"outputs": [
				{
					"name": "",
					"type": "bool",
					"internalType": "bool"
				}
			],
			"stateMutability": "view"
		},
		{
			"type": "function",
			"name": "isTrustedForwarder",
			"inputs": [
				{
					"name": "forwarder",
					"type": "address",
					"internalType": "address"
				}
			],
			"outputs": [
				{
					"name": "",
					"type": "bool",
					"internalType": "bool"
				}
			],
			"stateMutability": "view"
		},
		{
			"type": "function",
			"name": "launchCroptopRevnetFor",
			"inputs": [
				{
					"name": "revnetId",
					"type": "uint256",
					"internalType": "uint256"
				},
				{
					"name": "configuration",
					"type": "tuple",
					"internalType": "struct REVConfig",
					"components": [
						{
							"name": "description",
							"type": "tuple",
							"internalType": "struct REVDescription",
							"components": [
								{
									"name": "name",
									"type": "string",
									"internalType": "string"
								},
								{
									"name": "ticker",
									"type": "string",
									"internalType": "string"
								},
								{
									"name": "uri",
									"type": "string",
									"internalType": "string"
								},
								{
									"name": "salt",
									"type": "bytes32",
									"internalType": "bytes32"
								}
							]
						},
						{
							"name": "baseCurrency",
							"type": "uint32",
							"internalType": "uint32"
						},
						{
							"name": "premintTokenAmount",
							"type": "uint256",
							"internalType": "uint256"
						},
						{
							"name": "premintChainId",
							"type": "uint256",
							"internalType": "uint256"
						},
						{
							"name": "initialSplitOperator",
							"type": "address",
							"internalType": "address"
						},
						{
							"name": "stageConfigurations",
							"type": "tuple[]",
							"internalType": "struct REVStageConfig[]",
							"components": [
								{
									"name": "startsAtOrAfter",
									"type": "uint40",
									"internalType": "uint40"
								},
								{
									"name": "splitRate",
									"type": "uint16",
									"internalType": "uint16"
								},
								{
									"name": "initialIssuanceRate",
									"type": "uint112",
									"internalType": "uint112"
								},
								{
									"name": "priceCeilingIncreaseFrequency",
									"type": "uint40",
									"internalType": "uint40"
								},
								{
									"name": "priceCeilingIncreasePercentage",
									"type": "uint32",
									"internalType": "uint32"
								},
								{
									"name": "priceFloorTaxIntensity",
									"type": "uint16",
									"internalType": "uint16"
								}
							]
						}
					]
				},
				{
					"name": "terminalConfigurations",
					"type": "tuple[]",
					"internalType": "struct JBTerminalConfig[]",
					"components": [
						{
							"name": "terminal",
							"type": "address",
							"internalType": "contract IJBTerminal"
						},
						{
							"name": "tokensToAccept",
							"type": "address[]",
							"internalType": "address[]"
						}
					]
				},
				{
					"name": "buybackHookConfiguration",
					"type": "tuple",
					"internalType": "struct REVBuybackHookConfig",
					"components": [
						{
							"name": "hook",
							"type": "address",
							"internalType": "contract IJBBuybackHook"
						},
						{
							"name": "poolConfigurations",
							"type": "tuple[]",
							"internalType": "struct REVBuybackPoolConfig[]",
							"components": [
								{
									"name": "token",
									"type": "address",
									"internalType": "address"
								},
								{
									"name": "fee",
									"type": "uint24",
									"internalType": "uint24"
								},
								{
									"name": "twapWindow",
									"type": "uint32",
									"internalType": "uint32"
								},
								{
									"name": "twapSlippageTolerance",
									"type": "uint32",
									"internalType": "uint32"
								}
							]
						}
					]
				},
				{
					"name": "suckerDeploymentConfiguration",
					"type": "tuple",
					"internalType": "struct REVSuckerDeploymentConfig",
					"components": [
						{
							"name": "deployerConfigurations",
							"type": "tuple[]",
							"internalType": "struct BPSuckerDeployerConfig[]",
							"components": [
								{
									"name": "deployer",
									"type": "address",
									"internalType": "contract IBPSuckerDeployer"
								},
								{
									"name": "mappings",
									"type": "tuple[]",
									"internalType": "struct BPTokenMapping[]",
									"components": [
										{
											"name": "localToken",
											"type": "address",
											"internalType": "address"
										},
										{
											"name": "minGas",
											"type": "uint32",
											"internalType": "uint32"
										},
										{
											"name": "remoteToken",
											"type": "address",
											"internalType": "address"
										},
										{
											"name": "minBridgeAmount",
											"type": "uint256",
											"internalType": "uint256"
										}
									]
								}
							]
						},
						{
							"name": "salt",
							"type": "bytes32",
							"internalType": "bytes32"
						}
					]
				},
				{
					"name": "hookConfiguration",
					"type": "tuple",
					"internalType": "struct REVDeploy721TiersHookConfig",
					"components": [
						{
							"name": "baseline721HookConfiguration",
							"type": "tuple",
							"internalType": "struct JBDeploy721TiersHookConfig",
							"components": [
								{
									"name": "name",
									"type": "string",
									"internalType": "string"
								},
								{
									"name": "symbol",
									"type": "string",
									"internalType": "string"
								},
								{
									"name": "rulesets",
									"type": "address",
									"internalType": "contract IJBRulesets"
								},
								{
									"name": "baseUri",
									"type": "string",
									"internalType": "string"
								},
								{
									"name": "tokenUriResolver",
									"type": "address",
									"internalType": "contract IJB721TokenUriResolver"
								},
								{
									"name": "contractUri",
									"type": "string",
									"internalType": "string"
								},
								{
									"name": "tiersConfig",
									"type": "tuple",
									"internalType": "struct JB721InitTiersConfig",
									"components": [
										{
											"name": "tiers",
											"type": "tuple[]",
											"internalType": "struct JB721TierConfig[]",
											"components": [
												{
													"name": "price",
													"type": "uint104",
													"internalType": "uint104"
												},
												{
													"name": "initialSupply",
													"type": "uint32",
													"internalType": "uint32"
												},
												{
													"name": "votingUnits",
													"type": "uint32",
													"internalType": "uint32"
												},
												{
													"name": "reserveFrequency",
													"type": "uint16",
													"internalType": "uint16"
												},
												{
													"name": "reserveBeneficiary",
													"type": "address",
													"internalType": "address"
												},
												{
													"name": "encodedIPFSUri",
													"type": "bytes32",
													"internalType": "bytes32"
												},
												{
													"name": "category",
													"type": "uint24",
													"internalType": "uint24"
												},
												{
													"name": "allowOwnerMint",
													"type": "bool",
													"internalType": "bool"
												},
												{
													"name": "useReserveBeneficiaryAsDefault",
													"type": "bool",
													"internalType": "bool"
												},
												{
													"name": "transfersPausable",
													"type": "bool",
													"internalType": "bool"
												},
												{
													"name": "useVotingUnits",
													"type": "bool",
													"internalType": "bool"
												},
												{
													"name": "cannotBeRemoved",
													"type": "bool",
													"internalType": "bool"
												}
											]
										},
										{
											"name": "currency",
											"type": "uint32",
											"internalType": "uint32"
										},
										{
											"name": "decimals",
											"type": "uint8",
											"internalType": "uint8"
										},
										{
											"name": "prices",
											"type": "address",
											"internalType": "contract IJBPrices"
										}
									]
								},
								{
									"name": "reserveBeneficiary",
									"type": "address",
									"internalType": "address"
								},
								{
									"name": "flags",
									"type": "tuple",
									"internalType": "struct JB721TiersHookFlags",
									"components": [
										{
											"name": "noNewTiersWithReserves",
											"type": "bool",
											"internalType": "bool"
										},
										{
											"name": "noNewTiersWithVotes",
											"type": "bool",
											"internalType": "bool"
										},
										{
											"name": "noNewTiersWithOwnerMinting",
											"type": "bool",
											"internalType": "bool"
										},
										{
											"name": "preventOverspending",
											"type": "bool",
											"internalType": "bool"
										}
									]
								}
							]
						},
						{
							"name": "operatorCanAdjustTiers",
							"type": "bool",
							"internalType": "bool"
						},
						{
							"name": "operatorCanUpdateMetadata",
							"type": "bool",
							"internalType": "bool"
						},
						{
							"name": "operatorCanMint",
							"type": "bool",
							"internalType": "bool"
						}
					]
				},
				{
					"name": "otherPayHooksSpecifications",
					"type": "tuple[]",
					"internalType": "struct JBPayHookSpecification[]",
					"components": [
						{
							"name": "hook",
							"type": "address",
							"internalType": "contract IJBPayHook"
						},
						{
							"name": "amount",
							"type": "uint256",
							"internalType": "uint256"
						},
						{
							"name": "metadata",
							"type": "bytes",
							"internalType": "bytes"
						}
					]
				},
				{
					"name": "extraHookMetadata",
					"type": "uint16",
					"internalType": "uint16"
				},
				{
					"name": "allowedPosts",
					"type": "tuple[]",
					"internalType": "struct REVCroptopAllowedPost[]",
					"components": [
						{
							"name": "category",
							"type": "uint256",
							"internalType": "uint256"
						},
						{
							"name": "minimumPrice",
							"type": "uint256",
							"internalType": "uint256"
						},
						{
							"name": "minimumTotalSupply",
							"type": "uint256",
							"internalType": "uint256"
						},
						{
							"name": "maximumTotalSupply",
							"type": "uint256",
							"internalType": "uint256"
						},
						{
							"name": "allowedAddresses",
							"type": "address[]",
							"internalType": "address[]"
						}
					]
				}
			],
			"outputs": [
				{
					"name": "",
					"type": "uint256",
					"internalType": "uint256"
				},
				{
					"name": "hook",
					"type": "address",
					"internalType": "contract IJB721TiersHook"
				}
			],
			"stateMutability": "nonpayable"
		},
		{
			"type": "function",
			"name": "launchPayHookRevnetFor",
			"inputs": [
				{
					"name": "revnetId",
					"type": "uint256",
					"internalType": "uint256"
				},
				{
					"name": "configuration",
					"type": "tuple",
					"internalType": "struct REVConfig",
					"components": [
						{
							"name": "description",
							"type": "tuple",
							"internalType": "struct REVDescription",
							"components": [
								{
									"name": "name",
									"type": "string",
									"internalType": "string"
								},
								{
									"name": "ticker",
									"type": "string",
									"internalType": "string"
								},
								{
									"name": "uri",
									"type": "string",
									"internalType": "string"
								},
								{
									"name": "salt",
									"type": "bytes32",
									"internalType": "bytes32"
								}
							]
						},
						{
							"name": "baseCurrency",
							"type": "uint32",
							"internalType": "uint32"
						},
						{
							"name": "premintTokenAmount",
							"type": "uint256",
							"internalType": "uint256"
						},
						{
							"name": "premintChainId",
							"type": "uint256",
							"internalType": "uint256"
						},
						{
							"name": "initialSplitOperator",
							"type": "address",
							"internalType": "address"
						},
						{
							"name": "stageConfigurations",
							"type": "tuple[]",
							"internalType": "struct REVStageConfig[]",
							"components": [
								{
									"name": "startsAtOrAfter",
									"type": "uint40",
									"internalType": "uint40"
								},
								{
									"name": "splitRate",
									"type": "uint16",
									"internalType": "uint16"
								},
								{
									"name": "initialIssuanceRate",
									"type": "uint112",
									"internalType": "uint112"
								},
								{
									"name": "priceCeilingIncreaseFrequency",
									"type": "uint40",
									"internalType": "uint40"
								},
								{
									"name": "priceCeilingIncreasePercentage",
									"type": "uint32",
									"internalType": "uint32"
								},
								{
									"name": "priceFloorTaxIntensity",
									"type": "uint16",
									"internalType": "uint16"
								}
							]
						}
					]
				},
				{
					"name": "terminalConfigurations",
					"type": "tuple[]",
					"internalType": "struct JBTerminalConfig[]",
					"components": [
						{
							"name": "terminal",
							"type": "address",
							"internalType": "contract IJBTerminal"
						},
						{
							"name": "tokensToAccept",
							"type": "address[]",
							"internalType": "address[]"
						}
					]
				},
				{
					"name": "buybackHookConfiguration",
					"type": "tuple",
					"internalType": "struct REVBuybackHookConfig",
					"components": [
						{
							"name": "hook",
							"type": "address",
							"internalType": "contract IJBBuybackHook"
						},
						{
							"name": "poolConfigurations",
							"type": "tuple[]",
							"internalType": "struct REVBuybackPoolConfig[]",
							"components": [
								{
									"name": "token",
									"type": "address",
									"internalType": "address"
								},
								{
									"name": "fee",
									"type": "uint24",
									"internalType": "uint24"
								},
								{
									"name": "twapWindow",
									"type": "uint32",
									"internalType": "uint32"
								},
								{
									"name": "twapSlippageTolerance",
									"type": "uint32",
									"internalType": "uint32"
								}
							]
						}
					]
				},
				{
					"name": "suckerDeploymentConfiguration",
					"type": "tuple",
					"internalType": "struct REVSuckerDeploymentConfig",
					"components": [
						{
							"name": "deployerConfigurations",
							"type": "tuple[]",
							"internalType": "struct BPSuckerDeployerConfig[]",
							"components": [
								{
									"name": "deployer",
									"type": "address",
									"internalType": "contract IBPSuckerDeployer"
								},
								{
									"name": "mappings",
									"type": "tuple[]",
									"internalType": "struct BPTokenMapping[]",
									"components": [
										{
											"name": "localToken",
											"type": "address",
											"internalType": "address"
										},
										{
											"name": "minGas",
											"type": "uint32",
											"internalType": "uint32"
										},
										{
											"name": "remoteToken",
											"type": "address",
											"internalType": "address"
										},
										{
											"name": "minBridgeAmount",
											"type": "uint256",
											"internalType": "uint256"
										}
									]
								}
							]
						},
						{
							"name": "salt",
							"type": "bytes32",
							"internalType": "bytes32"
						}
					]
				},
				{
					"name": "payHookSpecifications",
					"type": "tuple[]",
					"internalType": "struct JBPayHookSpecification[]",
					"components": [
						{
							"name": "hook",
							"type": "address",
							"internalType": "contract IJBPayHook"
						},
						{
							"name": "amount",
							"type": "uint256",
							"internalType": "uint256"
						},
						{
							"name": "metadata",
							"type": "bytes",
							"internalType": "bytes"
						}
					]
				},
				{
					"name": "extraHookMetadata",
					"type": "uint16",
					"internalType": "uint16"
				}
			],
			"outputs": [
				{
					"name": "",
					"type": "uint256",
					"internalType": "uint256"
				}
			],
			"stateMutability": "nonpayable"
		},
		{
			"type": "function",
			"name": "launchRevnetFor",
			"inputs": [
				{
					"name": "revnetId",
					"type": "uint256",
					"internalType": "uint256"
				},
				{
					"name": "configuration",
					"type": "tuple",
					"internalType": "struct REVConfig",
					"components": [
						{
							"name": "description",
							"type": "tuple",
							"internalType": "struct REVDescription",
							"components": [
								{
									"name": "name",
									"type": "string",
									"internalType": "string"
								},
								{
									"name": "ticker",
									"type": "string",
									"internalType": "string"
								},
								{
									"name": "uri",
									"type": "string",
									"internalType": "string"
								},
								{
									"name": "salt",
									"type": "bytes32",
									"internalType": "bytes32"
								}
							]
						},
						{
							"name": "baseCurrency",
							"type": "uint32",
							"internalType": "uint32"
						},
						{
							"name": "premintTokenAmount",
							"type": "uint256",
							"internalType": "uint256"
						},
						{
							"name": "premintChainId",
							"type": "uint256",
							"internalType": "uint256"
						},
						{
							"name": "initialSplitOperator",
							"type": "address",
							"internalType": "address"
						},
						{
							"name": "stageConfigurations",
							"type": "tuple[]",
							"internalType": "struct REVStageConfig[]",
							"components": [
								{
									"name": "startsAtOrAfter",
									"type": "uint40",
									"internalType": "uint40"
								},
								{
									"name": "splitRate",
									"type": "uint16",
									"internalType": "uint16"
								},
								{
									"name": "initialIssuanceRate",
									"type": "uint112",
									"internalType": "uint112"
								},
								{
									"name": "priceCeilingIncreaseFrequency",
									"type": "uint40",
									"internalType": "uint40"
								},
								{
									"name": "priceCeilingIncreasePercentage",
									"type": "uint32",
									"internalType": "uint32"
								},
								{
									"name": "priceFloorTaxIntensity",
									"type": "uint16",
									"internalType": "uint16"
								}
							]
						}
					]
				},
				{
					"name": "terminalConfigurations",
					"type": "tuple[]",
					"internalType": "struct JBTerminalConfig[]",
					"components": [
						{
							"name": "terminal",
							"type": "address",
							"internalType": "contract IJBTerminal"
						},
						{
							"name": "tokensToAccept",
							"type": "address[]",
							"internalType": "address[]"
						}
					]
				},
				{
					"name": "buybackHookConfiguration",
					"type": "tuple",
					"internalType": "struct REVBuybackHookConfig",
					"components": [
						{
							"name": "hook",
							"type": "address",
							"internalType": "contract IJBBuybackHook"
						},
						{
							"name": "poolConfigurations",
							"type": "tuple[]",
							"internalType": "struct REVBuybackPoolConfig[]",
							"components": [
								{
									"name": "token",
									"type": "address",
									"internalType": "address"
								},
								{
									"name": "fee",
									"type": "uint24",
									"internalType": "uint24"
								},
								{
									"name": "twapWindow",
									"type": "uint32",
									"internalType": "uint32"
								},
								{
									"name": "twapSlippageTolerance",
									"type": "uint32",
									"internalType": "uint32"
								}
							]
						}
					]
				},
				{
					"name": "suckerDeploymentConfiguration",
					"type": "tuple",
					"internalType": "struct REVSuckerDeploymentConfig",
					"components": [
						{
							"name": "deployerConfigurations",
							"type": "tuple[]",
							"internalType": "struct BPSuckerDeployerConfig[]",
							"components": [
								{
									"name": "deployer",
									"type": "address",
									"internalType": "contract IBPSuckerDeployer"
								},
								{
									"name": "mappings",
									"type": "tuple[]",
									"internalType": "struct BPTokenMapping[]",
									"components": [
										{
											"name": "localToken",
											"type": "address",
											"internalType": "address"
										},
										{
											"name": "minGas",
											"type": "uint32",
											"internalType": "uint32"
										},
										{
											"name": "remoteToken",
											"type": "address",
											"internalType": "address"
										},
										{
											"name": "minBridgeAmount",
											"type": "uint256",
											"internalType": "uint256"
										}
									]
								}
							]
						},
						{
							"name": "salt",
							"type": "bytes32",
							"internalType": "bytes32"
						}
					]
				}
			],
			"outputs": [
				{
					"name": "",
					"type": "uint256",
					"internalType": "uint256"
				}
			],
			"stateMutability": "nonpayable"
		},
		{
			"type": "function",
			"name": "launchTiered721RevnetFor",
			"inputs": [
				{
					"name": "revnetId",
					"type": "uint256",
					"internalType": "uint256"
				},
				{
					"name": "configuration",
					"type": "tuple",
					"internalType": "struct REVConfig",
					"components": [
						{
							"name": "description",
							"type": "tuple",
							"internalType": "struct REVDescription",
							"components": [
								{
									"name": "name",
									"type": "string",
									"internalType": "string"
								},
								{
									"name": "ticker",
									"type": "string",
									"internalType": "string"
								},
								{
									"name": "uri",
									"type": "string",
									"internalType": "string"
								},
								{
									"name": "salt",
									"type": "bytes32",
									"internalType": "bytes32"
								}
							]
						},
						{
							"name": "baseCurrency",
							"type": "uint32",
							"internalType": "uint32"
						},
						{
							"name": "premintTokenAmount",
							"type": "uint256",
							"internalType": "uint256"
						},
						{
							"name": "premintChainId",
							"type": "uint256",
							"internalType": "uint256"
						},
						{
							"name": "initialSplitOperator",
							"type": "address",
							"internalType": "address"
						},
						{
							"name": "stageConfigurations",
							"type": "tuple[]",
							"internalType": "struct REVStageConfig[]",
							"components": [
								{
									"name": "startsAtOrAfter",
									"type": "uint40",
									"internalType": "uint40"
								},
								{
									"name": "splitRate",
									"type": "uint16",
									"internalType": "uint16"
								},
								{
									"name": "initialIssuanceRate",
									"type": "uint112",
									"internalType": "uint112"
								},
								{
									"name": "priceCeilingIncreaseFrequency",
									"type": "uint40",
									"internalType": "uint40"
								},
								{
									"name": "priceCeilingIncreasePercentage",
									"type": "uint32",
									"internalType": "uint32"
								},
								{
									"name": "priceFloorTaxIntensity",
									"type": "uint16",
									"internalType": "uint16"
								}
							]
						}
					]
				},
				{
					"name": "terminalConfigurations",
					"type": "tuple[]",
					"internalType": "struct JBTerminalConfig[]",
					"components": [
						{
							"name": "terminal",
							"type": "address",
							"internalType": "contract IJBTerminal"
						},
						{
							"name": "tokensToAccept",
							"type": "address[]",
							"internalType": "address[]"
						}
					]
				},
				{
					"name": "buybackHookConfiguration",
					"type": "tuple",
					"internalType": "struct REVBuybackHookConfig",
					"components": [
						{
							"name": "hook",
							"type": "address",
							"internalType": "contract IJBBuybackHook"
						},
						{
							"name": "poolConfigurations",
							"type": "tuple[]",
							"internalType": "struct REVBuybackPoolConfig[]",
							"components": [
								{
									"name": "token",
									"type": "address",
									"internalType": "address"
								},
								{
									"name": "fee",
									"type": "uint24",
									"internalType": "uint24"
								},
								{
									"name": "twapWindow",
									"type": "uint32",
									"internalType": "uint32"
								},
								{
									"name": "twapSlippageTolerance",
									"type": "uint32",
									"internalType": "uint32"
								}
							]
						}
					]
				},
				{
					"name": "suckerDeploymentConfiguration",
					"type": "tuple",
					"internalType": "struct REVSuckerDeploymentConfig",
					"components": [
						{
							"name": "deployerConfigurations",
							"type": "tuple[]",
							"internalType": "struct BPSuckerDeployerConfig[]",
							"components": [
								{
									"name": "deployer",
									"type": "address",
									"internalType": "contract IBPSuckerDeployer"
								},
								{
									"name": "mappings",
									"type": "tuple[]",
									"internalType": "struct BPTokenMapping[]",
									"components": [
										{
											"name": "localToken",
											"type": "address",
											"internalType": "address"
										},
										{
											"name": "minGas",
											"type": "uint32",
											"internalType": "uint32"
										},
										{
											"name": "remoteToken",
											"type": "address",
											"internalType": "address"
										},
										{
											"name": "minBridgeAmount",
											"type": "uint256",
											"internalType": "uint256"
										}
									]
								}
							]
						},
						{
							"name": "salt",
							"type": "bytes32",
							"internalType": "bytes32"
						}
					]
				},
				{
					"name": "hookConfiguration",
					"type": "tuple",
					"internalType": "struct REVDeploy721TiersHookConfig",
					"components": [
						{
							"name": "baseline721HookConfiguration",
							"type": "tuple",
							"internalType": "struct JBDeploy721TiersHookConfig",
							"components": [
								{
									"name": "name",
									"type": "string",
									"internalType": "string"
								},
								{
									"name": "symbol",
									"type": "string",
									"internalType": "string"
								},
								{
									"name": "rulesets",
									"type": "address",
									"internalType": "contract IJBRulesets"
								},
								{
									"name": "baseUri",
									"type": "string",
									"internalType": "string"
								},
								{
									"name": "tokenUriResolver",
									"type": "address",
									"internalType": "contract IJB721TokenUriResolver"
								},
								{
									"name": "contractUri",
									"type": "string",
									"internalType": "string"
								},
								{
									"name": "tiersConfig",
									"type": "tuple",
									"internalType": "struct JB721InitTiersConfig",
									"components": [
										{
											"name": "tiers",
											"type": "tuple[]",
											"internalType": "struct JB721TierConfig[]",
											"components": [
												{
													"name": "price",
													"type": "uint104",
													"internalType": "uint104"
												},
												{
													"name": "initialSupply",
													"type": "uint32",
													"internalType": "uint32"
												},
												{
													"name": "votingUnits",
													"type": "uint32",
													"internalType": "uint32"
												},
												{
													"name": "reserveFrequency",
													"type": "uint16",
													"internalType": "uint16"
												},
												{
													"name": "reserveBeneficiary",
													"type": "address",
													"internalType": "address"
												},
												{
													"name": "encodedIPFSUri",
													"type": "bytes32",
													"internalType": "bytes32"
												},
												{
													"name": "category",
													"type": "uint24",
													"internalType": "uint24"
												},
												{
													"name": "allowOwnerMint",
													"type": "bool",
													"internalType": "bool"
												},
												{
													"name": "useReserveBeneficiaryAsDefault",
													"type": "bool",
													"internalType": "bool"
												},
												{
													"name": "transfersPausable",
													"type": "bool",
													"internalType": "bool"
												},
												{
													"name": "useVotingUnits",
													"type": "bool",
													"internalType": "bool"
												},
												{
													"name": "cannotBeRemoved",
													"type": "bool",
													"internalType": "bool"
												}
											]
										},
										{
											"name": "currency",
											"type": "uint32",
											"internalType": "uint32"
										},
										{
											"name": "decimals",
											"type": "uint8",
											"internalType": "uint8"
										},
										{
											"name": "prices",
											"type": "address",
											"internalType": "contract IJBPrices"
										}
									]
								},
								{
									"name": "reserveBeneficiary",
									"type": "address",
									"internalType": "address"
								},
								{
									"name": "flags",
									"type": "tuple",
									"internalType": "struct JB721TiersHookFlags",
									"components": [
										{
											"name": "noNewTiersWithReserves",
											"type": "bool",
											"internalType": "bool"
										},
										{
											"name": "noNewTiersWithVotes",
											"type": "bool",
											"internalType": "bool"
										},
										{
											"name": "noNewTiersWithOwnerMinting",
											"type": "bool",
											"internalType": "bool"
										},
										{
											"name": "preventOverspending",
											"type": "bool",
											"internalType": "bool"
										}
									]
								}
							]
						},
						{
							"name": "operatorCanAdjustTiers",
							"type": "bool",
							"internalType": "bool"
						},
						{
							"name": "operatorCanUpdateMetadata",
							"type": "bool",
							"internalType": "bool"
						},
						{
							"name": "operatorCanMint",
							"type": "bool",
							"internalType": "bool"
						}
					]
				},
				{
					"name": "otherPayHooksSpecifications",
					"type": "tuple[]",
					"internalType": "struct JBPayHookSpecification[]",
					"components": [
						{
							"name": "hook",
							"type": "address",
							"internalType": "contract IJBPayHook"
						},
						{
							"name": "amount",
							"type": "uint256",
							"internalType": "uint256"
						},
						{
							"name": "metadata",
							"type": "bytes",
							"internalType": "bytes"
						}
					]
				},
				{
					"name": "extraHookMetadata",
					"type": "uint16",
					"internalType": "uint16"
				}
			],
			"outputs": [
				{
					"name": "",
					"type": "uint256",
					"internalType": "uint256"
				},
				{
					"name": "hook",
					"type": "address",
					"internalType": "contract IJB721TiersHook"
				}
			],
			"stateMutability": "nonpayable"
		},
		{
			"type": "function",
			"name": "onERC721Received",
			"inputs": [
				{
					"name": "operator",
					"type": "address",
					"internalType": "address"
				},
				{
					"name": "",
					"type": "address",
					"internalType": "address"
				},
				{
					"name": "tokenId",
					"type": "uint256",
					"internalType": "uint256"
				},
				{
					"name": "data",
					"type": "bytes",
					"internalType": "bytes"
				}
			],
			"outputs": [
				{
					"name": "",
					"type": "bytes4",
					"internalType": "bytes4"
				}
			],
			"stateMutability": "view"
		},
		{
			"type": "function",
			"name": "payHookSpecificationsOf",
			"inputs": [
				{
					"name": "revnetId",
					"type": "uint256",
					"internalType": "uint256"
				}
			],
			"outputs": [
				{
					"name": "",
					"type": "tuple[]",
					"internalType": "struct JBPayHookSpecification[]",
					"components": [
						{
							"name": "hook",
							"type": "address",
							"internalType": "contract IJBPayHook"
						},
						{
							"name": "amount",
							"type": "uint256",
							"internalType": "uint256"
						},
						{
							"name": "metadata",
							"type": "bytes",
							"internalType": "bytes"
						}
					]
				}
			],
			"stateMutability": "view"
		},
		{
			"type": "function",
			"name": "replaceSplitOperatorOf",
			"inputs": [
				{
					"name": "revnetId",
					"type": "uint256",
					"internalType": "uint256"
				},
				{
					"name": "newSplitOperator",
					"type": "address",
					"internalType": "address"
				}
			],
			"outputs": [],
			"stateMutability": "nonpayable"
		},
		{
			"type": "function",
			"name": "supportsInterface",
			"inputs": [
				{
					"name": "interfaceId",
					"type": "bytes4",
					"internalType": "bytes4"
				}
			],
			"outputs": [
				{
					"name": "",
					"type": "bool",
					"internalType": "bool"
				}
			],
			"stateMutability": "view"
		},
		{
			"type": "function",
			"name": "trustedForwarder",
			"inputs": [],
			"outputs": [
				{
					"name": "",
					"type": "address",
					"internalType": "address"
				}
			],
			"stateMutability": "view"
		},
		{
			"type": "event",
			"name": "DeployRevnet",
			"inputs": [
				{
					"name": "revnetId",
					"type": "uint256",
					"indexed": true,
					"internalType": "uint256"
				},
				{
					"name": "configuration",
					"type": "tuple",
					"indexed": false,
					"internalType": "struct REVConfig",
					"components": [
						{
							"name": "description",
							"type": "tuple",
							"internalType": "struct REVDescription",
							"components": [
								{
									"name": "name",
									"type": "string",
									"internalType": "string"
								},
								{
									"name": "ticker",
									"type": "string",
									"internalType": "string"
								},
								{
									"name": "uri",
									"type": "string",
									"internalType": "string"
								},
								{
									"name": "salt",
									"type": "bytes32",
									"internalType": "bytes32"
								}
							]
						},
						{
							"name": "baseCurrency",
							"type": "uint32",
							"internalType": "uint32"
						},
						{
							"name": "premintTokenAmount",
							"type": "uint256",
							"internalType": "uint256"
						},
						{
							"name": "premintChainId",
							"type": "uint256",
							"internalType": "uint256"
						},
						{
							"name": "initialSplitOperator",
							"type": "address",
							"internalType": "address"
						},
						{
							"name": "stageConfigurations",
							"type": "tuple[]",
							"internalType": "struct REVStageConfig[]",
							"components": [
								{
									"name": "startsAtOrAfter",
									"type": "uint40",
									"internalType": "uint40"
								},
								{
									"name": "splitRate",
									"type": "uint16",
									"internalType": "uint16"
								},
								{
									"name": "initialIssuanceRate",
									"type": "uint112",
									"internalType": "uint112"
								},
								{
									"name": "priceCeilingIncreaseFrequency",
									"type": "uint40",
									"internalType": "uint40"
								},
								{
									"name": "priceCeilingIncreasePercentage",
									"type": "uint32",
									"internalType": "uint32"
								},
								{
									"name": "priceFloorTaxIntensity",
									"type": "uint16",
									"internalType": "uint16"
								}
							]
						}
					]
				},
				{
					"name": "terminalConfigurations",
					"type": "tuple[]",
					"indexed": false,
					"internalType": "struct JBTerminalConfig[]",
					"components": [
						{
							"name": "terminal",
							"type": "address",
							"internalType": "contract IJBTerminal"
						},
						{
							"name": "tokensToAccept",
							"type": "address[]",
							"internalType": "address[]"
						}
					]
				},
				{
					"name": "buybackHookConfiguration",
					"type": "tuple",
					"indexed": false,
					"internalType": "struct REVBuybackHookConfig",
					"components": [
						{
							"name": "hook",
							"type": "address",
							"internalType": "contract IJBBuybackHook"
						},
						{
							"name": "poolConfigurations",
							"type": "tuple[]",
							"internalType": "struct REVBuybackPoolConfig[]",
							"components": [
								{
									"name": "token",
									"type": "address",
									"internalType": "address"
								},
								{
									"name": "fee",
									"type": "uint24",
									"internalType": "uint24"
								},
								{
									"name": "twapWindow",
									"type": "uint32",
									"internalType": "uint32"
								},
								{
									"name": "twapSlippageTolerance",
									"type": "uint32",
									"internalType": "uint32"
								}
							]
						}
					]
				},
				{
					"name": "suckerDeploymentConfiguration",
					"type": "tuple",
					"indexed": false,
					"internalType": "struct REVSuckerDeploymentConfig",
					"components": [
						{
							"name": "deployerConfigurations",
							"type": "tuple[]",
							"internalType": "struct BPSuckerDeployerConfig[]",
							"components": [
								{
									"name": "deployer",
									"type": "address",
									"internalType": "contract IBPSuckerDeployer"
								},
								{
									"name": "mappings",
									"type": "tuple[]",
									"internalType": "struct BPTokenMapping[]",
									"components": [
										{
											"name": "localToken",
											"type": "address",
											"internalType": "address"
										},
										{
											"name": "minGas",
											"type": "uint32",
											"internalType": "uint32"
										},
										{
											"name": "remoteToken",
											"type": "address",
											"internalType": "address"
										},
										{
											"name": "minBridgeAmount",
											"type": "uint256",
											"internalType": "uint256"
										}
									]
								}
							]
						},
						{
							"name": "salt",
							"type": "bytes32",
							"internalType": "bytes32"
						}
					]
				},
				{
					"name": "rulesetConfigurations",
					"type": "tuple[]",
					"indexed": false,
					"internalType": "struct JBRulesetConfig[]",
					"components": [
						{
							"name": "mustStartAtOrAfter",
							"type": "uint256",
							"internalType": "uint256"
						},
						{
							"name": "duration",
							"type": "uint256",
							"internalType": "uint256"
						},
						{
							"name": "weight",
							"type": "uint256",
							"internalType": "uint256"
						},
						{
							"name": "decayRate",
							"type": "uint256",
							"internalType": "uint256"
						},
						{
							"name": "approvalHook",
							"type": "address",
							"internalType": "contract IJBRulesetApprovalHook"
						},
						{
							"name": "metadata",
							"type": "tuple",
							"internalType": "struct JBRulesetMetadata",
							"components": [
								{
									"name": "reservedRate",
									"type": "uint256",
									"internalType": "uint256"
								},
								{
									"name": "redemptionRate",
									"type": "uint256",
									"internalType": "uint256"
								},
								{
									"name": "baseCurrency",
									"type": "uint256",
									"internalType": "uint256"
								},
								{
									"name": "pausePay",
									"type": "bool",
									"internalType": "bool"
								},
								{
									"name": "pauseCreditTransfers",
									"type": "bool",
									"internalType": "bool"
								},
								{
									"name": "allowOwnerMinting",
									"type": "bool",
									"internalType": "bool"
								},
								{
									"name": "allowTerminalMigration",
									"type": "bool",
									"internalType": "bool"
								},
								{
									"name": "allowSetTerminals",
									"type": "bool",
									"internalType": "bool"
								},
								{
									"name": "allowControllerMigration",
									"type": "bool",
									"internalType": "bool"
								},
								{
									"name": "allowSetController",
									"type": "bool",
									"internalType": "bool"
								},
								{
									"name": "holdFees",
									"type": "bool",
									"internalType": "bool"
								},
								{
									"name": "useTotalSurplusForRedemptions",
									"type": "bool",
									"internalType": "bool"
								},
								{
									"name": "useDataHookForPay",
									"type": "bool",
									"internalType": "bool"
								},
								{
									"name": "useDataHookForRedeem",
									"type": "bool",
									"internalType": "bool"
								},
								{
									"name": "dataHook",
									"type": "address",
									"internalType": "address"
								},
								{
									"name": "metadata",
									"type": "uint256",
									"internalType": "uint256"
								}
							]
						},
						{
							"name": "splitGroups",
							"type": "tuple[]",
							"internalType": "struct JBSplitGroup[]",
							"components": [
								{
									"name": "groupId",
									"type": "uint256",
									"internalType": "uint256"
								},
								{
									"name": "splits",
									"type": "tuple[]",
									"internalType": "struct JBSplit[]",
									"components": [
										{
											"name": "preferAddToBalance",
											"type": "bool",
											"internalType": "bool"
										},
										{
											"name": "percent",
											"type": "uint256",
											"internalType": "uint256"
										},
										{
											"name": "projectId",
											"type": "uint256",
											"internalType": "uint256"
										},
										{
											"name": "beneficiary",
											"type": "address",
											"internalType": "address payable"
										},
										{
											"name": "lockedUntil",
											"type": "uint256",
											"internalType": "uint256"
										},
										{
											"name": "hook",
											"type": "address",
											"internalType": "contract IJBSplitHook"
										}
									]
								}
							]
						},
						{
							"name": "fundAccessLimitGroups",
							"type": "tuple[]",
							"internalType": "struct JBFundAccessLimitGroup[]",
							"components": [
								{
									"name": "terminal",
									"type": "address",
									"internalType": "address"
								},
								{
									"name": "token",
									"type": "address",
									"internalType": "address"
								},
								{
									"name": "payoutLimits",
									"type": "tuple[]",
									"internalType": "struct JBCurrencyAmount[]",
									"components": [
										{
											"name": "amount",
											"type": "uint256",
											"internalType": "uint256"
										},
										{
											"name": "currency",
											"type": "uint256",
											"internalType": "uint256"
										}
									]
								},
								{
									"name": "surplusAllowances",
									"type": "tuple[]",
									"internalType": "struct JBCurrencyAmount[]",
									"components": [
										{
											"name": "amount",
											"type": "uint256",
											"internalType": "uint256"
										},
										{
											"name": "currency",
											"type": "uint256",
											"internalType": "uint256"
										}
									]
								}
							]
						}
					]
				},
				{
					"name": "encodedConfiguration",
					"type": "bytes",
					"indexed": false,
					"internalType": "bytes"
				},
				{
					"name": "isInProgress",
					"type": "bool",
					"indexed": false,
					"internalType": "bool"
				},
				{
					"name": "caller",
					"type": "address",
					"indexed": false,
					"internalType": "address"
				}
			],
			"anonymous": false
		},
		{
			"type": "event",
			"name": "DeploySuckers",
			"inputs": [
				{
					"name": "revnetId",
					"type": "uint256",
					"indexed": true,
					"internalType": "uint256"
				},
				{
					"name": "salt",
					"type": "bytes32",
					"indexed": true,
					"internalType": "bytes32"
				},
				{
					"name": "encodedConfiguration",
					"type": "bytes",
					"indexed": false,
					"internalType": "bytes"
				},
				{
					"name": "suckerDeploymentConfiguration",
					"type": "tuple",
					"indexed": false,
					"internalType": "struct REVSuckerDeploymentConfig",
					"components": [
						{
							"name": "deployerConfigurations",
							"type": "tuple[]",
							"internalType": "struct BPSuckerDeployerConfig[]",
							"components": [
								{
									"name": "deployer",
									"type": "address",
									"internalType": "contract IBPSuckerDeployer"
								},
								{
									"name": "mappings",
									"type": "tuple[]",
									"internalType": "struct BPTokenMapping[]",
									"components": [
										{
											"name": "localToken",
											"type": "address",
											"internalType": "address"
										},
										{
											"name": "minGas",
											"type": "uint32",
											"internalType": "uint32"
										},
										{
											"name": "remoteToken",
											"type": "address",
											"internalType": "address"
										},
										{
											"name": "minBridgeAmount",
											"type": "uint256",
											"internalType": "uint256"
										}
									]
								}
							]
						},
						{
							"name": "salt",
							"type": "bytes32",
							"internalType": "bytes32"
						}
					]
				},
				{
					"name": "caller",
					"type": "address",
					"indexed": false,
					"internalType": "address"
				}
			],
			"anonymous": false
		},
		{
			"type": "event",
			"name": "ReplaceSplitOperator",
			"inputs": [
				{
					"name": "revnetId",
					"type": "uint256",
					"indexed": true,
					"internalType": "uint256"
				},
				{
					"name": "newSplitOperator",
					"type": "address",
					"indexed": true,
					"internalType": "address"
				},
				{
					"name": "caller",
					"type": "address",
					"indexed": false,
					"internalType": "address"
				}
			],
			"anonymous": false
		},
		{
			"type": "event",
			"name": "StoredPayHookSpecifications",
			"inputs": [
				{
					"name": "revnetId",
					"type": "uint256",
					"indexed": true,
					"internalType": "uint256"
				},
				{
					"name": "payHookSpecifications",
					"type": "tuple[]",
					"indexed": false,
					"internalType": "struct JBPayHookSpecification[]",
					"components": [
						{
							"name": "hook",
							"type": "address",
							"internalType": "contract IJBPayHook"
						},
						{
							"name": "amount",
							"type": "uint256",
							"internalType": "uint256"
						},
						{
							"name": "metadata",
							"type": "bytes",
							"internalType": "bytes"
						}
					]
				},
				{
					"name": "caller",
					"type": "address",
					"indexed": false,
					"internalType": "address"
				}
			],
			"anonymous": false
		},
		{
			"type": "error",
			"name": "REVBasicDeployer_ExitDelayInEffect",
			"inputs": []
		},
		{
			"type": "error",
			"name": "REVBasicDeployer_Unauthorized",
			"inputs": []
		}
	],
	"solcInputHash": "e712720a47254c07ad9395db94fa83e5",
	"args": [
		"0x75295C69178F42cfe9Cf710f307891D6cE471920",
		"0xF4C9957E2E1Fab09A8B48658F68b46e47b134724",
		"0xB2b5841DBeF766d4b521221732F9B618fCf34A87",
		"0x0f9A3E14f7fB9aC89Ce32D50a2eAdE21ffeb97F3",
		"0xC3644756f243Ad1BDE2b4a65061Fc929803f72CA"
	],
	"bytecode": "0x6101006040523480156200001257600080fd5b506040516200592338038062005923833981016040819052620000359162000110565b6001600160a01b0392831660805293821660a05291811660c052600280546001808201835560117f405787fa12a823e0f2b7631cc41b3ba8828b3321ca811111fa75cd3aa3bb5ace9283015582548082018455601990830155825480820190935560069290910182905592821660e052600580546001600160a01b031916949092169390931790558154908101825560009190915260157ff652222313e28459528d920b65115c16c04f3efc82aaedc97be59f3f377c0d3f9091015562000190565b6001600160a01b03811681146200010d57600080fd5b50565b600080600080600060a086880312156200012957600080fd5b85516200013681620000f7565b60208701519095506200014981620000f7565b60408701519094506200015c81620000f7565b60608701519093506200016f81620000f7565b60808701519092506200018281620000f7565b809150509295509295909350565b60805160a05160c05160e0516156bf62000264600039600081816103810152610a470152600081816103a801528181610ef401528181610fdd015281816112f801528181611f08015261202e01526000818161041d015281816104ac0152818161089401528181610bfc0152818161110c015281816114e001528181611659015281816117d4015281816119ac01528181611a7901528181611b6901528181611c3101528181611cf401528181611df10152611f430152600081816102850152818161032b0152612b7b01526156bf6000f3fe608060405234801561001057600080fd5b50600436106101775760003560e01c80637249a773116100d8578063b5d255331161008c578063dbfbe5da11610066578063dbfbe5da146103f2578063eb5ad9d914610405578063ee0fc1211461041857600080fd5b8063b5d25533146103a3578063bb199402146103ca578063c4b0efa8146103df57600080fd5b80639d82ba25116100bd5780639d82ba251461034f578063aaf320d714610359578063abf8c5c81461037c57600080fd5b80637249a773146102e85780637da0a8771461032957600080fd5b80634c6034ef1161012f578063572b6c0511610114578063572b6c05146102755780635c0a7cee146102b5578063677ce088146102d557600080fd5b80634c6034ef146102325780634f6a01381461026257600080fd5b80631d3eedaa116101605780631d3eedaa146101d057806343681e15146101f15780634c4ffc711461021157600080fd5b806301ffc9a71461017c578063150b7a02146101a4575b600080fd5b61018f61018a366004612cd7565b61043f565b60405190151581526020015b60405180910390f35b6101b76101b2366004612d30565b6104a8565b6040516001600160e01b0319909116815260200161019b565b6101e36101de36600461364e565b610574565b60405190815260200161019b565b6101e36101ff366004613705565b60016020526000908152604090205481565b61022461021f36600461371e565b610590565b60405161019b92919061381e565b610245610240366004613cda565b610887565b604080519283526001600160a01b0390911660208301520161019b565b610245610270366004613ecf565b610bd7565b61018f610283366004614005565b7f00000000000000000000000000000000000000000000000000000000000000006001600160a01b0390811691161490565b6102c86102c3366004613705565b610d74565b60405161019b9190614022565b61018f6102e3366004614035565b610e98565b6103116102f6366004613705565b6000602081905290815260409020546001600160a01b031681565b6040516001600160a01b03909116815260200161019b565b7f0000000000000000000000000000000000000000000000000000000000000000610311565b6101e36276a70081565b61036c610367366004614065565b610fcd565b60405161019b94939291906140a1565b6103117f000000000000000000000000000000000000000000000000000000000000000081565b6103117f000000000000000000000000000000000000000000000000000000000000000081565b6103dd6103d8366004614141565b61110a565b005b6101e36103ed3660046141ae565b6113c1565b600554610311906001600160a01b031681565b6103dd610413366004614035565b6114d1565b6103117f000000000000000000000000000000000000000000000000000000000000000081565b60006001600160e01b031982167f81c03c2e0000000000000000000000000000000000000000000000000000000014806104a257507f01ffc9a7000000000000000000000000000000000000000000000000000000006001600160e01b03198316145b92915050565b60007f00000000000000000000000000000000000000000000000000000000000000006001600160a01b031663293c49996040518163ffffffff1660e01b8152600401602060405180830381865afa158015610508573d6000803e3d6000fd5b505050506040513d601f19601f8201168201806040525081019061052c919061429a565b6001600160a01b0316336001600160a01b03161461054957600080fd5b507f150b7a020000000000000000000000000000000000000000000000000000000095945050505050565b6000610586868686863060008861198b565b9695505050505050565b60c081013560009081526020819052604081205460609081906001600160a01b03168015610648576040517f4c4ffc710000000000000000000000000000000000000000000000000000000081526001600160a01b03821690634c4ffc71906105fd908890600401614362565b600060405180830381865afa15801561061a573d6000803e3d6000fd5b505050506040513d6000823e601f3d908101601f191682016040526106429190810190614433565b90945091505b815160c086013560009081526004602090815260408083208054825181850281018501909352808352941515949192909190849084015b82821015610763576000848152602090819020604080516060810182526003860290920180546001600160a01b03168352600181015493830193909352600283018054929392918401916106d29061457b565b80601f01602080910402602001604051908101604052809291908181526020018280546106fe9061457b565b801561074b5780601f106107205761010080835404028352916020019161074b565b820191906000526020600020905b81548152906001019060200180831161072e57829003601f168201915b5050505050815250508152602001906001019061067f565b5050505090506000815190508261077b57600061077e565b60015b61078b9060ff16826145cb565b67ffffffffffffffff8111156107a3576107a3612dcf565b6040519080825280602002602001820160405280156107f057816020015b604080516060808201835260008083526020830152918101919091528152602001906001900390816107c15790505b50955060005b8181101561083d57828181518110610810576108106145de565b602002602001015187828151811061082a5761082a6145de565b60209081029190910101526001016107f6565b50821561087d5784600081518110610857576108576145de565b6020026020010151868281518110610871576108716145de565b60200260200101819052505b5050505050915091565b60008089808203610983577f00000000000000000000000000000000000000000000000000000000000000006001600160a01b031663293c49996040518163ffffffff1660e01b8152600401602060405180830381865afa1580156108f0573d6000803e3d6000fd5b505050506040513d601f19601f82011682018060405250810190610914919061429a565b6001600160a01b03166306661abd6040518163ffffffff1660e01b8152600401602060405180830381865afa158015610951573d6000803e3d6000fd5b505050506040513d601f19601f8201168201806040525081019061097591906145f4565b6109809060016145cb565b9a505b845160006109928260016145cb565b67ffffffffffffffff8111156109aa576109aa612dcf565b6040519080825280602002602001820160405280156109f757816020015b604080516060808201835260008083526020830152918101919091528152602001906001900390816109c85790505b50905060005b82811015610a4457878181518110610a1757610a176145de565b6020026020010151828281518110610a3157610a316145de565b60209081029190910101526001016109fd565b507f00000000000000000000000000000000000000000000000000000000000000006001600160a01b0316632230819f8e8a600001516040518363ffffffff1660e01b8152600401610a9792919061472d565b6020604051808303816000875af1158015610ab6573d6000803e3d6000fd5b505050506040513d601f19601f82011682018060405250810190610ada919061429a565b9350876020015115610b095760008d815260036020908152604082208054600181018255908352912060159101555b876040015115610b365760008d815260036020908152604082208054600181018255908352912060169101555b876060015115610b635760008d815260036020908152604082208054600181018255908352912060179101555b6040518060600160405280856001600160a01b031681526020016000815260200160405180602001604052806000815250815250818381518110610ba957610ba96145de565b6020026020010181905250610bc3838d8d8d8d868c6113c1565b508c94505050509850989650505050505050565b600080610bea8b8b8b8b8b8b8b8b610887565b909b509050610bfa8b828561215c565b7f00000000000000000000000000000000000000000000000000000000000000006001600160a01b031663f434c9146040518163ffffffff1660e01b8152600401602060405180830381865afa158015610c58573d6000803e3d6000fd5b505050506040513d601f19601f82011682018060405250810190610c7c919061429a565b6001600160a01b03166305d2912e306040518060600160405280600560009054906101000a90046001600160a01b03166001600160a01b031681526020018f81526020016006805480602002602001604051908101604052809291908181526020018280548015610d0c57602002820191906000526020600020905b815481526020019060010190808311610cf8575b50505050508152506040518363ffffffff1660e01b8152600401610d319291906148a1565b600060405180830381600087803b158015610d4b57600080fd5b505af1158015610d5f573d6000803e3d6000fd5b505050508a9150995099975050505050505050565b606060046000838152602001908152602001600020805480602002602001604051908101604052809291908181526020016000905b82821015610e8d576000848152602090819020604080516060810182526003860290920180546001600160a01b0316835260018101549383019390935260028301805492939291840191610dfc9061457b565b80601f0160208091040260200160405190810160405280929190818152602001828054610e289061457b565b8015610e755780601f10610e4a57610100808354040283529160200191610e75565b820191906000526020600020905b815481529060010190602001808311610e5857829003601f168201915b50505050508152505081526020019060010190610da9565b505050509050919050565b6000828152602081905260408120546001600160a01b0390811690831603610ec2575060016104a2565b6040517f3d12cb87000000000000000000000000000000000000000000000000000000008152600481018490526000907f00000000000000000000000000000000000000000000000000000000000000006001600160a01b031690633d12cb8790602401600060405180830381865afa158015610f43573d6000803e3d6000fd5b505050506040513d6000823e601f3d908101601f19168201604052610f6b91908101906148e4565b805190915060005b81811015610fc157828181518110610f8d57610f8d6145de565b60200260200101516001600160a01b0316856001600160a01b031603610fb957600193505050506104a2565b600101610f73565b50600095945050505050565b6000808060606001600160a01b037f0000000000000000000000000000000000000000000000000000000000000000166383db9d01604087018035906110169060208a01614005565b6040516001600160e01b031960e085901b16815260048101929092526001600160a01b03166024820152604401602060405180830381865afa158015611060573d6000803e3d6000fd5b505050506040513d601f19601f82011682018060405250810190611084919061497e565b156110a15761271085608001358660a00135935093509350611103565b6040808601356000908152600160205220544210156110ec576040517f04c3b3cd00000000000000000000000000000000000000000000000000000000815260040160405180910390fd5b84610160013585608001358660a001359350935093505b9193509193565b7f00000000000000000000000000000000000000000000000000000000000000006001600160a01b0316631f47ce696040518163ffffffff1660e01b8152600401602060405180830381865afa158015611168573d6000803e3d6000fd5b505050506040513d601f19601f8201168201806040525081019061118c919061429a565b6001600160a01b031663f434c9146040518163ffffffff1660e01b8152600401602060405180830381865afa1580156111c9573d6000803e3d6000fd5b505050506040513d601f19601f820116820180604052508101906111ed919061429a565b6001600160a01b0316630f5932f0611203612345565b308661120e88612354565b6040518563ffffffff1660e01b815260040161122d949392919061499b565b602060405180830381865afa15801561124a573d6000803e3d6000fd5b505050506040513d601f19601f8201168201806040525081019061126e919061497e565b61128b576040516331fb21f360e01b815260040160405180910390fd5b6000611295612345565b8383602001516040516020016112ad939291906149cd565b60408051601f1981840301815290829052805160209091012083517f2f3f50e00000000000000000000000000000000000000000000000000000000083529092506001600160a01b037f00000000000000000000000000000000000000000000000000000000000000001691632f3f50e09161132f9188918691600401614ad7565b6000604051808303816000875af115801561134e573d6000803e3d6000fd5b505050506040513d6000823e601f3d908101601f1916820160405261137691908101906148e4565b5080847f755ecfca2f6e66af8868551556bf7931740a7062db8e0882f4c322fdb0bb3f6085856113a4612345565b6040516113b393929190614b1f565b60405180910390a350505050565b60006113d688888888308761ffff168a61198b565b835190985060005b818110156114825760008a81526004602052604090208551869083908110611408576114086145de565b6020908102919091018101518254600180820185556000948552938390208251600390920201805473ffffffffffffffffffffffffffffffffffffffff19166001600160a01b039092169190911781559181015192820192909255604082015160028201906114779082614bab565b5050506001016113de565b50887fdfaf2737f25eace49d372b472ec03f1df0f9814dfc69d2b95c5e92a041f42e29856114ae612345565b6040516114bc929190614c6b565b60405180910390a25096979650505050505050565b60006114dc83612354565b90507f00000000000000000000000000000000000000000000000000000000000000006001600160a01b0316631f47ce696040518163ffffffff1660e01b8152600401602060405180830381865afa15801561153c573d6000803e3d6000fd5b505050506040513d601f19601f82011682018060405250810190611560919061429a565b6001600160a01b031663f434c9146040518163ffffffff1660e01b8152600401602060405180830381865afa15801561159d573d6000803e3d6000fd5b505050506040513d601f19601f820116820180604052508101906115c1919061429a565b6001600160a01b0316630f5932f06115d7612345565b3086856040518563ffffffff1660e01b81526004016115f9949392919061499b565b602060405180830381865afa158015611616573d6000803e3d6000fd5b505050506040513d601f19601f8201168201806040525081019061163a919061497e565b611657576040516331fb21f360e01b815260040160405180910390fd5b7f00000000000000000000000000000000000000000000000000000000000000006001600160a01b0316631f47ce696040518163ffffffff1660e01b8152600401602060405180830381865afa1580156116b5573d6000803e3d6000fd5b505050506040513d601f19601f820116820180604052508101906116d9919061429a565b6001600160a01b031663f434c9146040518163ffffffff1660e01b8152600401602060405180830381865afa158015611716573d6000803e3d6000fd5b505050506040513d601f19601f8201168201806040525081019061173a919061429a565b6001600160a01b03166305d2912e30604051806060016040528061175c612345565b6001600160a01b0316815260208082018990526040805160008152918201815291820152516001600160e01b031960e085901b1681526117a09291906004016148a1565b600060405180830381600087803b1580156117ba57600080fd5b505af11580156117ce573d6000803e3d6000fd5b505050507f00000000000000000000000000000000000000000000000000000000000000006001600160a01b0316631f47ce696040518163ffffffff1660e01b8152600401602060405180830381865afa158015611830573d6000803e3d6000fd5b505050506040513d601f19601f82011682018060405250810190611854919061429a565b6001600160a01b031663f434c9146040518163ffffffff1660e01b8152600401602060405180830381865afa158015611891573d6000803e3d6000fd5b505050506040513d601f19601f820116820180604052508101906118b5919061429a565b6001600160a01b03166305d2912e306040518060600160405280866001600160a01b03168152602001878152602001858152506040518363ffffffff1660e01b81526004016119059291906148a1565b600060405180830381600087803b15801561191f57600080fd5b505af1158015611933573d6000803e3d6000fd5b50505050816001600160a01b0316837f0329d6a81434b130c72eb65eea0e32e429dc1277b4aad86ec86454aefb61845161196b612345565b6040516001600160a01b03909116815260200160405180910390a3505050565b60008060008061199c8a888861250c565b9250925092508a600003611a77577f00000000000000000000000000000000000000000000000000000000000000006001600160a01b0316630634bae9308c6000015160400151868d8f60000151602001516040516020016119fe9190614c96565b6040516020818303038152906040526040518663ffffffff1660e01b8152600401611a2d9594939291906150cd565b6020604051808303816000875af1158015611a4c573d6000803e3d6000fd5b505050506040513d601f19601f82011682018060405250810190611a7091906145f4565b9a50611b35565b7f00000000000000000000000000000000000000000000000000000000000000006001600160a01b0316631ea7bc8c8c858c8e6000015160200151604051602001611ac29190614c96565b6040516020818303038152906040526040518563ffffffff1660e01b8152600401611af09493929190615135565b6020604051808303816000875af1158015611b0f573d6000803e3d6000fd5b505050506040513d601f19601f82011682018060405250810190611b3391906145f4565b505b8080611b455750468a6060015114155b15611b6757611b576276a700426145cb565b60008c8152600160205260409020555b7f00000000000000000000000000000000000000000000000000000000000000006001600160a01b031663581781918c8c60000151600001518d60000151602001518e60000151606001516040518563ffffffff1660e01b8152600401611bd19493929190615174565b6020604051808303816000875af1158015611bf0573d6000803e3d6000fd5b505050506040513d601f19601f82011682018060405250810190611c14919061429a565b5087516001600160a01b031615611c2f57611c2f8b896128cd565b7f00000000000000000000000000000000000000000000000000000000000000006001600160a01b031663dd5f214a8c6000611c6e8e60800151612a2d565b6040518463ffffffff1660e01b8152600401611c8c939291906151b1565b600060405180830381600087803b158015611ca657600080fd5b505af1158015611cba573d6000803e3d6000fd5b50505050600060405180606001604052808c608001516001600160a01b031681526020018d8152602001611ced8e612354565b81525090507f00000000000000000000000000000000000000000000000000000000000000006001600160a01b031663f434c9146040518163ffffffff1660e01b8152600401602060405180830381865afa158015611d50573d6000803e3d6000fd5b505050506040513d601f19601f82011682018060405250810190611d74919061429a565b6001600160a01b03166305d2912e30836040518363ffffffff1660e01b8152600401611da19291906148a1565b600060405180830381600087803b158015611dbb57600080fd5b505af1158015611dcf573d6000803e3d6000fd5b5050505060008b60400151118015611dea5750468b60600151145b15611eb8577f00000000000000000000000000000000000000000000000000000000000000006001600160a01b031663c7fb92de8d8d604001518e608001518f6000015160200151604051602001611e4291906151d0565b60405160208183030381529060405260006040518663ffffffff1660e01b8152600401611e73959493929190615220565b6020604051808303816000875af1158015611e92573d6000803e3d6000fd5b505050506040513d601f19601f82011682018060405250810190611eb691906145f4565b505b60408051600180825281830190925260009160208083019080368337019050509050601c81600081518110611eef57611eef6145de565b60200260200101818152505060405180606001604052807f00000000000000000000000000000000000000000000000000000000000000006001600160a01b031681526020018e81526020018281525091507f00000000000000000000000000000000000000000000000000000000000000006001600160a01b031663f434c9146040518163ffffffff1660e01b8152600401602060405180830381865afa158015611f9f573d6000803e3d6000fd5b505050506040513d601f19601f82011682018060405250810190611fc3919061429a565b6001600160a01b03166305d2912e30846040518363ffffffff1660e01b8152600401611ff09291906148a1565b600060405180830381600087803b15801561200a57600080fd5b505af115801561201e573d6000803e3d6000fd5b505050506020870151156120fe577f00000000000000000000000000000000000000000000000000000000000000006001600160a01b0316632f3f50e08e612064612345565b878b6020015160405160200161207c939291906149cd565b60408051601f198184030181529082905280516020909101208b516001600160e01b031960e086901b1683526120b59392600401614ad7565b6000604051808303816000875af11580156120d4573d6000803e3d6000fd5b505050506040513d6000823e601f3d908101601f191682016040526120fc91908101906148e4565b505b8c7f4b827371715024f69a0bc98c8df6edafe6e471e78488ab1b3849de72f66b12e08d8d8d8b8a8a8a61212f612345565b604051612143989796959493929190615383565b60405180910390a2509a9b9a5050505050505050505050565b805160008167ffffffffffffffff81111561217957612179612dcf565b6040519080825280602002602001820160405280156121ec57816020015b6121d96040518060c0016040528060006001600160a01b0316815260200160008152602001600081526020016000815260200160008152602001606081525090565b8152602001906001900390816121975790505b5090506122216040518060a0016040528060008152602001600081526020016000815260200160008152602001606081525090565b60005b838110156122b75784818151811061223e5761223e6145de565b602002602001015191506040518060c00160405280876001600160a01b031681526020018360000151815260200183602001518152602001836040015181526020018360600151815260200183608001518152508382815181106122a4576122a46145de565b6020908102919091010152600101612224565b5083511561233d576005546040517fab54877a0000000000000000000000000000000000000000000000000000000081526001600160a01b039091169063ab54877a9061230a90899086906004016154ec565b600060405180830381600087803b15801561232457600080fd5b505af1158015612338573d6000803e3d6000fd5b505050505b505050505050565b600061234f612b6b565b905090565b6060600060028054806020026020016040519081016040528092919081815260200182805480156123a457602002820191906000526020600020905b815481526020019060010190808311612390575b5050835160008881526003602090815260408083208054825181850281018501909352808352989950939792965094509192509083018282801561240757602002820191906000526020600020905b8154815260200190600101908083116123f3575b5050835193945061241e92508391508590506145cb565b67ffffffffffffffff81111561243657612436612dcf565b60405190808252806020026020018201604052801561245f578160200160208202803683370190505b50945060005b838110156124ac5784818151811061247f5761247f6145de565b6020026020010151868281518110612499576124996145de565b6020908102919091010152600101612465565b5060005b81811015612502578281815181106124ca576124ca6145de565b60200260200101518682866124df91906145cb565b815181106124ef576124ef6145de565b60209081029190910101526001016124b0565b5050505050919050565b6060806000808660a001515190508067ffffffffffffffff81111561253357612533612dcf565b60405190808252806020026020018201604052801561262557816020015b6126126040805161010080820183526000808352602080840182905283850182905260608085018390526080808601849052865161020081018852848152928301849052958201839052810182905293840181905260a084810182905260c0850182905260e0850182905291840181905261012084018190526101408401819052610160840181905261018084018190526101a084018190526101c084018190526101e0840152909190820190815260200160608152602001606081525090565b8152602001906001900390816125515790505b50935061263187612be0565b6040805160c081018252600080825260208201819052918101829052606081018290526080810182905260a081018290529194505b828110156128c1578860a001518181518110612684576126846145de565b60200260200101519150816000015164ffffffffff168682815181106126ac576126ac6145de565b60200260200101516000018181525050816060015164ffffffffff168682815181106126da576126da6145de565b6020026020010151602001818152505081604001516dffffffffffffffffffffffffffff16868281518110612711576127116145de565b60200260200101516040018181525050816080015163ffffffff1686828151811061273e5761273e6145de565b602002602001015160600181815250506000868281518110612762576127626145de565b6020026020010151608001906001600160a01b031690816001600160a01b031681525050604051806102000160405280836020015161ffff1681526020018360a0015161ffff166127106127b6919061559e565b815260208b81015163ffffffff16908201526000604082018190526060820181905260016080830181905260a0830182905260c0830182905260e083018290526101008301829052610120830182905261014083018290526101608301526101808201526001600160a01b038a166101a08201526101c0018890528651879083908110612845576128456145de565b602002602001015160a0018190525080600014801561286b5750815164ffffffffff1615155b8015612881575042826000015164ffffffffff16105b1561288b57600193505b846128968383612c21565b6040516020016128a79291906155b1565b60408051601f198184030181529190529450600101612666565b50505093509350939050565b602081810151516040805160808101825260008082529381018490529081018390526060810183905290915b828110156129ec5783602001518181518110612917576129176145de565b6020908102919091018101518551918101516040808301516060840151845192517f7b621d3a000000000000000000000000000000000000000000000000000000008152600481018c905262ffffff909416602485015263ffffffff91821660448501521660648301526001600160a01b039081166084830152919450911690637b621d3a9060a4016020604051808303816000875af11580156129bf573d6000803e3d6000fd5b505050506040513d601f19601f820116820180604052508101906129e3919061429a565b506001016128f9565b50509051600092835260208390526040909220805473ffffffffffffffffffffffffffffffffffffffff19166001600160a01b039093169290921790915550565b604080516001808252818301909252606091816020015b604080518082019091526000815260606020820152815260200190600190039081612a4457505060408051600180825281830190925291925060009190602082015b6040805160c08101825260008082526020808301829052928201819052606082018190526080820181905260a08201528252600019909201910181612a865790505090506040518060c00160405280600015158152602001633b9aca00815260200160008152602001846001600160a01b031681526020016000815260200160006001600160a01b031681525081600081518110612b2657612b266145de565b60200260200101819052506040518060400160405280600181526020018281525082600081518110612b5a57612b5a6145de565b602002602001018190525050919050565b6000366014336001600160a01b037f000000000000000000000000000000000000000000000000000000000000000016148015612ba85750808210155b15612bd857600036612bba838561559e565b612bc59282906155e0565b612bce9161560a565b60601c9250505090565b339250505090565b6020808201516060838101518451805181860151918401516040519496612c0b96959293920161563f565b6040516020818303038152906040529050919050565b606081158015612c375750825164ffffffffff16155b612c4957825164ffffffffff16612c4b565b425b83602001518460400151856060015186608001518760a00151604051602001612cc09695949392919095865261ffff94851660208701526dffffffffffffffffffffffffffff93909316604086015264ffffffffff91909116606085015263ffffffff1660808401521660a082015260c00190565b604051602081830303815290604052905092915050565b600060208284031215612ce957600080fd5b81356001600160e01b031981168114612d0157600080fd5b9392505050565b6001600160a01b0381168114612d1d57600080fd5b50565b8035612d2b81612d08565b919050565b600080600080600060808688031215612d4857600080fd5b8535612d5381612d08565b94506020860135612d6381612d08565b935060408601359250606086013567ffffffffffffffff80821115612d8757600080fd5b818801915088601f830112612d9b57600080fd5b813581811115612daa57600080fd5b896020828501011115612dbc57600080fd5b9699959850939650602001949392505050565b634e487b7160e01b600052604160045260246000fd5b6040516080810167ffffffffffffffff81118282101715612e0857612e08612dcf565b60405290565b60405160c0810167ffffffffffffffff81118282101715612e0857612e08612dcf565b6040805190810167ffffffffffffffff81118282101715612e0857612e08612dcf565b604051610180810167ffffffffffffffff81118282101715612e0857612e08612dcf565b604051610120810167ffffffffffffffff81118282101715612e0857612e08612dcf565b6040516060810167ffffffffffffffff81118282101715612e0857612e08612dcf565b60405160a0810167ffffffffffffffff81118282101715612e0857612e08612dcf565b604051601f8201601f1916810167ffffffffffffffff81118282101715612f0b57612f0b612dcf565b604052919050565b600067ffffffffffffffff821115612f2d57612f2d612dcf565b50601f01601f191660200190565b600082601f830112612f4c57600080fd5b8135612f5f612f5a82612f13565b612ee2565b818152846020838601011115612f7457600080fd5b816020850160208301376000918101602001919091529392505050565b600060808284031215612fa357600080fd5b612fab612de5565b9050813567ffffffffffffffff80821115612fc557600080fd5b612fd185838601612f3b565b83526020840135915080821115612fe757600080fd5b612ff385838601612f3b565b6020840152604084013591508082111561300c57600080fd5b5061301984828501612f3b565b6040830152506060820135606082015292915050565b803563ffffffff81168114612d2b57600080fd5b600067ffffffffffffffff82111561305d5761305d612dcf565b5060051b60200190565b803564ffffffffff81168114612d2b57600080fd5b803561ffff81168114612d2b57600080fd5b600082601f83011261309f57600080fd5b813560206130af612f5a83613043565b82815260c092830285018201928282019190878511156130ce57600080fd5b8387015b858110156131735781818a0312156130ea5760008081fd5b6130f2612e0e565b6130fb82613067565b815261310886830161307c565b868201526040808301356dffffffffffffffffffffffffffff8116811461312f5760008081fd5b908201526060613140838201613067565b90820152608061315183820161302f565b9082015260a061316283820161307c565b9082015284529284019281016130d2565b5090979650505050505050565b600060c0828403121561319257600080fd5b61319a612e0e565b9050813567ffffffffffffffff808211156131b457600080fd5b6131c085838601612f91565b83526131ce6020850161302f565b602084015260408401356040840152606084013560608401526131f360808501612d20565b608084015260a084013591508082111561320c57600080fd5b506132198482850161308e565b60a08301525092915050565b600082601f83011261323657600080fd5b81356020613246612f5a83613043565b8083825260208201915060208460051b87010193508684111561326857600080fd5b602086015b8481101561328d57803561328081612d08565b835291830191830161326d565b509695505050505050565b600082601f8301126132a957600080fd5b813560206132b9612f5a83613043565b82815260059290921b840181019181810190868411156132d857600080fd5b8286015b8481101561328d57803567ffffffffffffffff808211156132fd5760008081fd5b908801906040828b03601f19018113156133175760008081fd5b61331f612e31565b8784013561332c81612d08565b81529083013590828211156133415760008081fd5b61334f8c8984870101613225565b8189015286525050509183019183016132dc565b803562ffffff81168114612d2b57600080fd5b6000604080838503121561338957600080fd5b613391612e31565b9150823561339e81612d08565b825260208381013567ffffffffffffffff8111156133bb57600080fd5b8401601f810186136133cc57600080fd5b80356133da612f5a82613043565b81815260079190911b820183019083810190888311156133f957600080fd5b928401925b8284101561346d576080848a0312156134175760008081fd5b61341f612de5565b843561342a81612d08565b8152613437858701613363565b8682015261344687860161302f565b87820152606061345781870161302f565b90820152825260809390930192908401906133fe565b808588015250505050505092915050565b60006040828403121561349057600080fd5b613498612e31565b905067ffffffffffffffff80833511156134b157600080fd5b8235830184601f8201126134c457600080fd5b6134d1612f5a8235613043565b81358082526020808301929160051b840101878111156134f057600080fd5b602084015b8181101561363557858135111561350b57600080fd5b803585016040818b03601f1901121561352357600080fd5b61352b612e31565b6135386020830135612d08565b60208201358152876040830135111561355057600080fd5b6040820135820191508a603f83011261356857600080fd5b6020820135613579612f5a82613043565b81815260079190911b83016040019060208101908d83111561359a57600080fd5b6040850194505b82851015613616576080858f0312156135b957600080fd5b6135c1612de5565b6135cb8635612d08565b853581526135db6020870161302f565b60208201526135ed6040870135612d08565b6040860135604082015260608601356060820152808352506020820191506080850194506135a1565b80602085015250505080865250506020840193506020810190506134f5565b5050808552505050506020820135602082015292915050565b600080600080600060a0868803121561366657600080fd5b85359450602086013567ffffffffffffffff8082111561368557600080fd5b61369189838a01613180565b955060408801359150808211156136a757600080fd5b6136b389838a01613298565b945060608801359150808211156136c957600080fd5b6136d589838a01613376565b935060808801359150808211156136eb57600080fd5b506136f88882890161347e565b9150509295509295909350565b60006020828403121561371757600080fd5b5035919050565b60006020828403121561373057600080fd5b813567ffffffffffffffff81111561374757600080fd5b82016101808185031215612d0157600080fd5b60005b8381101561377557818101518382015260200161375d565b50506000910152565b6000815180845261379681602086016020860161375a565b601f01601f19169290920160200192915050565b600082825180855260208086019550808260051b84010181860160005b8481101561317357858303601f19018952815180516001600160a01b03168452848101518585015260409081015160609185018290529061380a8186018361377e565b9a86019a94505050908301906001016137c7565b82815260406020820152600061383760408301846137aa565b949350505050565b80356cffffffffffffffffffffffffff81168114612d2b57600080fd5b8015158114612d1d57600080fd5b8035612d2b8161385c565b803560ff81168114612d2b57600080fd5b6000608080838503121561389957600080fd5b6138a1612de5565b9150823567ffffffffffffffff8111156138ba57600080fd5b8301601f810185136138cb57600080fd5b803560206138db612f5a83613043565b82815261018092830284018201928282019190898511156138fb57600080fd5b948301945b848610156139ee5780868b0312156139185760008081fd5b613920612e54565b6139298761383f565b815261393685880161302f565b85820152604061394781890161302f565b90820152606061395888820161307c565b90820152613967878901612d20565b8189015260a0878101359082015260c0613982818901613363565b9082015260e061399388820161386a565b908201526101006139a588820161386a565b908201526101206139b788820161386a565b908201526101406139c988820161386a565b908201526101606139db88820161386a565b9082015283529485019491830191613900565b508652506139fd86820161302f565b8186015250505050613a1160408301613875565b6040820152613a2260608301612d20565b606082015292915050565b600060808284031215613a3f57600080fd5b613a47612de5565b90508135613a548161385c565b81526020820135613a648161385c565b60208201526040820135613a778161385c565b60408201526060820135613a228161385c565b600060808284031215613a9c57600080fd5b613aa4612de5565b9050813567ffffffffffffffff80821115613abe57600080fd5b908301906101808286031215613ad357600080fd5b613adb612e78565b823582811115613aea57600080fd5b613af687828601612f3b565b825250602083013582811115613b0b57600080fd5b613b1787828601612f3b565b602083015250613b2960408401612d20565b6040820152606083013582811115613b4057600080fd5b613b4c87828601612f3b565b606083015250613b5e60808401612d20565b608082015260a083013582811115613b7557600080fd5b613b8187828601612f3b565b60a08301525060c083013582811115613b9957600080fd5b613ba587828601613886565b60c083015250613bb760e08401612d20565b60e08201526101009150613bcd86838501613a2d565b82820152808452505050613be36020830161386a565b6020820152613bf46040830161386a565b6040820152613a226060830161386a565b600082601f830112613c1657600080fd5b81356020613c26612f5a83613043565b82815260059290921b84018101918181019086841115613c4557600080fd5b8286015b8481101561328d57803567ffffffffffffffff80821115613c6a5760008081fd5b908801906060828b03601f1901811315613c845760008081fd5b613c8c612e9c565b87840135613c9981612d08565b815260408481013589830152918401359183831115613cb85760008081fd5b613cc68d8a85880101612f3b565b908201528652505050918301918301613c49565b600080600080600080600080610100898b031215613cf757600080fd5b88359750602089013567ffffffffffffffff80821115613d1657600080fd5b613d228c838d01613180565b985060408b0135915080821115613d3857600080fd5b613d448c838d01613298565b975060608b0135915080821115613d5a57600080fd5b613d668c838d01613376565b965060808b0135915080821115613d7c57600080fd5b613d888c838d0161347e565b955060a08b0135915080821115613d9e57600080fd5b613daa8c838d01613a8a565b945060c08b0135915080821115613dc057600080fd5b50613dcd8b828c01613c05565b925050613ddc60e08a0161307c565b90509295985092959890939650565b600082601f830112613dfc57600080fd5b81356020613e0c612f5a83613043565b82815260059290921b84018101918181019086841115613e2b57600080fd5b8286015b8481101561328d57803567ffffffffffffffff80821115613e505760008081fd5b9088019060a0828b03601f1901811315613e6a5760008081fd5b613e72612ebf565b87840135815260408085013589830152606080860135828401526080915081860135818401525082850135925083831115613ead5760008081fd5b613ebb8d8a85880101613225565b908201528652505050918301918301613e2f565b60008060008060008060008060006101208a8c031215613eee57600080fd5b8935985060208a013567ffffffffffffffff80821115613f0d57600080fd5b613f198d838e01613180565b995060408c0135915080821115613f2f57600080fd5b613f3b8d838e01613298565b985060608c0135915080821115613f5157600080fd5b613f5d8d838e01613376565b975060808c0135915080821115613f7357600080fd5b613f7f8d838e0161347e565b965060a08c0135915080821115613f9557600080fd5b613fa18d838e01613a8a565b955060c08c0135915080821115613fb757600080fd5b613fc38d838e01613c05565b9450613fd160e08d0161307c565b93506101008c0135915080821115613fe857600080fd5b50613ff58c828d01613deb565b9150509295985092959850929598565b60006020828403121561401757600080fd5b8135612d0181612d08565b602081526000612d0160208301846137aa565b6000806040838503121561404857600080fd5b82359150602083013561405a81612d08565b809150509250929050565b60006020828403121561407757600080fd5b813567ffffffffffffffff81111561408e57600080fd5b82016101a08185031215612d0157600080fd5b60006080820186835260208681850152604086604086015260606080606087015283875180865260a08801915060a08160051b890101955084890160005b8281101561412f57898803609f19018452815180516001600160a01b0316895287810151888a015286015186890186905261411c868a018261377e565b98505092860192908601906001016140df565b50959c9b505050505050505050505050565b60008060006060848603121561415657600080fd5b83359250602084013567ffffffffffffffff8082111561417557600080fd5b61418187838801612f3b565b9350604086013591508082111561419757600080fd5b506141a48682870161347e565b9150509250925092565b600080600080600080600060e0888a0312156141c957600080fd5b87359650602088013567ffffffffffffffff808211156141e857600080fd5b6141f48b838c01613180565b975060408a013591508082111561420a57600080fd5b6142168b838c01613298565b965060608a013591508082111561422c57600080fd5b6142388b838c01613376565b955060808a013591508082111561424e57600080fd5b61425a8b838c0161347e565b945060a08a013591508082111561427057600080fd5b5061427d8a828b01613c05565b92505061428c60c0890161307c565b905092959891949750929550565b6000602082840312156142ac57600080fd5b8151612d0181612d08565b80356142c281612d08565b6001600160a01b031682526020818101359083015260408082013590830152606090810135910152565b6000808335601e1984360301811261430357600080fd5b830160208101925035905067ffffffffffffffff81111561432357600080fd5b80360382131561433257600080fd5b9250929050565b81835281816020850137506000828201602090810191909152601f909101601f19169091010190565b602081526143836020820161437684612d20565b6001600160a01b03169052565b600061439160208401612d20565b6001600160a01b0381166040840152506143b160608301604085016142b7565b60c083013560e083015261010060e0840135818401526143d2818501612d20565b90506101206143eb818501836001600160a01b03169052565b61014091508085013582850152506101608185013581850152614410818601866142ec565b610180868101529250905061442a6101a085018383614339565b95945050505050565b600080604080848603121561444757600080fd5b8351925060208085015167ffffffffffffffff8082111561446757600080fd5b818701915087601f83011261447b57600080fd5b8151614489612f5a82613043565b81815260059190911b8301840190848101908a8311156144a857600080fd5b8585015b83811015614569578051858111156144c357600080fd5b86016060818e03601f190112156144da5760008081fd5b6144e2612e9c565b888201516144ef81612d08565b8152818a01518982015260608201518781111561450c5760008081fd5b8083019250508d603f8301126145225760008081fd5b88820151614532612f5a82612f13565b8181528f8c8386010111156145475760008081fd5b614556828c83018e870161375a565b828c0152508452509186019186016144ac565b50809750505050505050509250929050565b600181811c9082168061458f57607f821691505b6020821081036145af57634e487b7160e01b600052602260045260246000fd5b50919050565b634e487b7160e01b600052601160045260246000fd5b808201808211156104a2576104a26145b5565b634e487b7160e01b600052603260045260246000fd5b60006020828403121561460657600080fd5b5051919050565b80516080808452815184820181905260009260a0916020918201918388019190865b828110156146f257845180516cffffffffffffffffffffffffff1685528281015163ffffffff908116848701526040808301519091169086015260608082015161ffff1690860152878101516001600160a01b031688860152868101518786015260c08082015162ffffff169086015260e08082015115159086015261010080820151151590860152610120808201511515908601526101408082015115159086015261016090810151151590850152938101936101809093019260010161462f565b508781015163ffffffff16908901525060408087015160ff16908801526060808701516001600160a01b038116918901919091529350610586565b828152604060208201526000825161018060408401526147516101c084018261377e565b90506020840151603f198085840301606086015261476f838361377e565b92506040860151915061478d60808601836001600160a01b03169052565b60608601519150808584030160a08601526147a8838361377e565b9250608086015191506147c660c08601836001600160a01b03169052565b60a08601519150808584030160e08601526147e1838361377e565b925060c08601519150610100818685030181870152614800848461460d565b935060e0870151925061481f6101208701846001600160a01b03169052565b860151805115156101408701526020810151151561016087015260408101511515610180870152606081015115156101a0870152915061485c9050565b50949350505050565b60008151808452602080850194506020840160005b838110156148965781518752958201959082019060010161487a565b509495945050505050565b60006001600160a01b03808516835260406020840152808451166040840152506020830151606083015260408301516060608084015261442a60a0840182614865565b600060208083850312156148f757600080fd5b825167ffffffffffffffff81111561490e57600080fd5b8301601f8101851361491f57600080fd5b805161492d612f5a82613043565b81815260059190911b8201830190838101908783111561494c57600080fd5b928401925b8284101561497357835161496481612d08565b82529284019290840190614951565b979650505050505050565b60006020828403121561499057600080fd5b8151612d018161385c565b60006001600160a01b038087168352808616602084015250836040830152608060608301526105866080830184614865565b6bffffffffffffffffffffffff198460601b168152600083516149f781601485016020880161375a565b60149201918201929092526034019392505050565b600082825180855260208086019550808260051b8401018186016000805b85811015614ac957868403601f19018a52825180516001600160a01b03908116865290860151604087870181905281518188018190529188019290916060919082890190875b81811015614ab15786518051851684528c81015163ffffffff168d8501528681015185168785015285015185840152958b0195608090920191600101614a70565b50509d89019d97505050938601935050600101614a2a565b509198975050505050505050565b83815282602082015260606040820152600061442a6060830184614a0c565b6000815160408452614b0b6040850182614a0c565b602093840151949093019390935250919050565b606081526000614b32606083018661377e565b8281036020840152614b448186614af6565b9150506001600160a01b0383166040830152949350505050565b601f821115614ba6576000816000526020600020601f850160051c81016020861015614b875750805b601f850160051c820191505b8181101561233d57828155600101614b93565b505050565b815167ffffffffffffffff811115614bc557614bc5612dcf565b614bd981614bd3845461457b565b84614b5e565b602080601f831160018114614c0e5760008415614bf65750858301515b600019600386901b1c1916600185901b17855561233d565b600085815260208120601f198616915b82811015614c3d57888601518255948401946001909101908401614c1e565b5085821015614c5b5787850151600019600388901b60f8161c191681555b5050505050600190811b01905550565b604081526000614c7e60408301856137aa565b90506001600160a01b03831660208301529392505050565b600960fa1b815260008251614cb281600185016020870161375a565b7f207265766e6574206465706c6f796564000000000000000000000000000000006001939091019283015250601101919050565b8051825260208101516020830152604081015160408301526060810151614d11606084018215159052565b506080810151614d25608084018215159052565b5060a0810151614d3960a084018215159052565b5060c0810151614d4d60c084018215159052565b5060e0810151614d6160e084018215159052565b5061010081810151151590830152610120808201511515908301526101408082015115159083015261016080820151151590830152610180808201511515908301526101a0808201511515908301526101c0808201516001600160a01b0316908301526101e090810151910152565b600082825180855260208086019550808260051b8401018186016000805b85811015614ac957868403601f19018a52825180518552850151604086860181905281518187018190529187019160609081880190865b81811015614e7f5785518051151584528b8101518c8501528581015186850152848101516001600160a01b03908116868601526080808301519086015260a0918201511690840152948a019460c090920191600101614e25565b50509c88019c965050509285019250600101614dee565b60008151808452602080850194506020840160005b83811015614896578151805188528301518388015260409096019590820190600101614eab565b600082825180855260208086019550808260051b84010181860160005b8481101561317357601f19868403018952815160806001600160a01b0380835116865280878401511687870152506040808301518282880152614f3483880182614e96565b9250505060608083015192508582038187015250614f528183614e96565b9a86019a9450505090830190600101614eef565b600082825180855260208086019550808260051b84010181860160005b8481101561317357858303601f19018952815180518452848101518585015260408082015190850152606080820151908501526080808201516001600160a01b03169085015260a0808201516102e09190614fe082880182614ce6565b505060c0820151816102a0870152614ffa82870182614dd0565b91505060e082015191508481036102c08601526150178183614ed2565b9a86019a9450505090830190600101614f83565b60008151808452602080850194506020840160005b838110156148965781516001600160a01b031687529582019590820190600101615040565b600082825180855260208086019550808260051b84010181860160005b8481101561317357858303601f19018952815180516001600160a01b0316845284015160408585018190526150b98186018361502b565b9a86019a9450505090830190600101615082565b6001600160a01b038616815260a0602082015260006150ef60a083018761377e565b82810360408401526151018187614f66565b905082810360608401526151158186615065565b90508281036080840152615129818561377e565b98975050505050505050565b84815260806020820152600061514e6080830186614f66565b82810360408401526151608186615065565b90508281036060840152614973818561377e565b84815260806020820152600061518d608083018661377e565b828103604084015261519f818661377e565b91505082606083015295945050505050565b83815282602082015260606040820152600061442a6060830184614dd0565b600960fa1b8152600082516151ec81600185016020870161375a565b7f207072656d696e746564000000000000000000000000000000000000000000006001939091019283015250600b01919050565b8581528460208201526001600160a01b038416604082015260a06060820152600061524e60a083018561377e565b905082151560808301529695505050505050565b60008151808452602080850194506020840160005b83811015614896578151805164ffffffffff90811689528482015161ffff908116868b01526040808401516dffffffffffffffffffffffffffff16908b0152606080840151909216918a019190915260808083015163ffffffff16908a015260a091820151169088015260c09096019590820190600101615277565b600060408084016001600160a01b038085511686526020808601516040828901528381518086526060955060608a019150838301925060005b818110156153745783518051871684528581015162ffffff16868501528881015163ffffffff9081168a8601529088015116878401529284019260809092019160010161532c565b50909998505050505050505050565b60006101008083528a5160c0828501528051915060806101c08501526153ad61024085018361377e565b915060208101516101bf1980868503016101e08701526153cd848361377e565b9350604083015191508086850301610200870152506153ec838261377e565b92505060608101516102208501525060208b015161541361012085018263ffffffff169052565b5060408b015161014084015260608b015161016084015260808b01516001600160a01b031661018084015260a08b015183820360ff19016101a085015261545a8282615262565b915050828103602084015261546f818b615065565b90508281036040840152615483818a6152f3565b905082810360608401526154978189614af6565b905082810360808401526154ab8188614f66565b905082810360a08401526154bf818761377e565b9150506154d060c083018515159052565b6001600160a01b03831660e08301529998505050505050505050565b6000604080830185845260206040818601528186518084526060935060608701915060608160051b88010183890160005b8381101561558e57898303605f19018552815180516001600160a01b031684528681015187850152888101518985015287810151888501526080808201519085015260a09081015160c09185018290529061557a8186018361502b565b96880196945050509085019060010161551d565b50909a9950505050505050505050565b818103818111156104a2576104a26145b5565b600083516155c381846020880161375a565b8351908301906155d781836020880161375a565b01949350505050565b600080858511156155f057600080fd5b838611156155fd57600080fd5b5050820193919092039150565b6bffffffffffffffffffffffff1981358181169160148510156156375780818660140360031b1b83161692505b505092915050565b63ffffffff8616815284602082015260a06040820152600061566460a083018661377e565b8281036060840152615676818661377e565b915050826080830152969550505050505056fea26469706673582212209d9ee8e2f09e47847ca349e3f0d5cc816dcdad7bbb74ac64afe46c6e6f4d6bb064736f6c63430008170033",
	"deployedBytecode": "0x608060405234801561001057600080fd5b50600436106101775760003560e01c80637249a773116100d8578063b5d255331161008c578063dbfbe5da11610066578063dbfbe5da146103f2578063eb5ad9d914610405578063ee0fc1211461041857600080fd5b8063b5d25533146103a3578063bb199402146103ca578063c4b0efa8146103df57600080fd5b80639d82ba25116100bd5780639d82ba251461034f578063aaf320d714610359578063abf8c5c81461037c57600080fd5b80637249a773146102e85780637da0a8771461032957600080fd5b80634c6034ef1161012f578063572b6c0511610114578063572b6c05146102755780635c0a7cee146102b5578063677ce088146102d557600080fd5b80634c6034ef146102325780634f6a01381461026257600080fd5b80631d3eedaa116101605780631d3eedaa146101d057806343681e15146101f15780634c4ffc711461021157600080fd5b806301ffc9a71461017c578063150b7a02146101a4575b600080fd5b61018f61018a366004612cd7565b61043f565b60405190151581526020015b60405180910390f35b6101b76101b2366004612d30565b6104a8565b6040516001600160e01b0319909116815260200161019b565b6101e36101de36600461364e565b610574565b60405190815260200161019b565b6101e36101ff366004613705565b60016020526000908152604090205481565b61022461021f36600461371e565b610590565b60405161019b92919061381e565b610245610240366004613cda565b610887565b604080519283526001600160a01b0390911660208301520161019b565b610245610270366004613ecf565b610bd7565b61018f610283366004614005565b7f000000000000000000000000b2b5841dbef766d4b521221732f9b618fcf34a876001600160a01b0390811691161490565b6102c86102c3366004613705565b610d74565b60405161019b9190614022565b61018f6102e3366004614035565b610e98565b6103116102f6366004613705565b6000602081905290815260409020546001600160a01b031681565b6040516001600160a01b03909116815260200161019b565b7f000000000000000000000000b2b5841dbef766d4b521221732f9b618fcf34a87610311565b6101e36276a70081565b61036c610367366004614065565b610fcd565b60405161019b94939291906140a1565b6103117f0000000000000000000000000f9a3e14f7fb9ac89ce32d50a2eade21ffeb97f381565b6103117f000000000000000000000000f4c9957e2e1fab09a8b48658f68b46e47b13472481565b6103dd6103d8366004614141565b61110a565b005b6101e36103ed3660046141ae565b6113c1565b600554610311906001600160a01b031681565b6103dd610413366004614035565b6114d1565b6103117f00000000000000000000000075295c69178f42cfe9cf710f307891d6ce47192081565b60006001600160e01b031982167f81c03c2e0000000000000000000000000000000000000000000000000000000014806104a257507f01ffc9a7000000000000000000000000000000000000000000000000000000006001600160e01b03198316145b92915050565b60007f00000000000000000000000075295c69178f42cfe9cf710f307891d6ce4719206001600160a01b031663293c49996040518163ffffffff1660e01b8152600401602060405180830381865afa158015610508573d6000803e3d6000fd5b505050506040513d601f19601f8201168201806040525081019061052c919061429a565b6001600160a01b0316336001600160a01b03161461054957600080fd5b507f150b7a020000000000000000000000000000000000000000000000000000000095945050505050565b6000610586868686863060008861198b565b9695505050505050565b60c081013560009081526020819052604081205460609081906001600160a01b03168015610648576040517f4c4ffc710000000000000000000000000000000000000000000000000000000081526001600160a01b03821690634c4ffc71906105fd908890600401614362565b600060405180830381865afa15801561061a573d6000803e3d6000fd5b505050506040513d6000823e601f3d908101601f191682016040526106429190810190614433565b90945091505b815160c086013560009081526004602090815260408083208054825181850281018501909352808352941515949192909190849084015b82821015610763576000848152602090819020604080516060810182526003860290920180546001600160a01b03168352600181015493830193909352600283018054929392918401916106d29061457b565b80601f01602080910402602001604051908101604052809291908181526020018280546106fe9061457b565b801561074b5780601f106107205761010080835404028352916020019161074b565b820191906000526020600020905b81548152906001019060200180831161072e57829003601f168201915b5050505050815250508152602001906001019061067f565b5050505090506000815190508261077b57600061077e565b60015b61078b9060ff16826145cb565b67ffffffffffffffff8111156107a3576107a3612dcf565b6040519080825280602002602001820160405280156107f057816020015b604080516060808201835260008083526020830152918101919091528152602001906001900390816107c15790505b50955060005b8181101561083d57828181518110610810576108106145de565b602002602001015187828151811061082a5761082a6145de565b60209081029190910101526001016107f6565b50821561087d5784600081518110610857576108576145de565b6020026020010151868281518110610871576108716145de565b60200260200101819052505b5050505050915091565b60008089808203610983577f00000000000000000000000075295c69178f42cfe9cf710f307891d6ce4719206001600160a01b031663293c49996040518163ffffffff1660e01b8152600401602060405180830381865afa1580156108f0573d6000803e3d6000fd5b505050506040513d601f19601f82011682018060405250810190610914919061429a565b6001600160a01b03166306661abd6040518163ffffffff1660e01b8152600401602060405180830381865afa158015610951573d6000803e3d6000fd5b505050506040513d601f19601f8201168201806040525081019061097591906145f4565b6109809060016145cb565b9a505b845160006109928260016145cb565b67ffffffffffffffff8111156109aa576109aa612dcf565b6040519080825280602002602001820160405280156109f757816020015b604080516060808201835260008083526020830152918101919091528152602001906001900390816109c85790505b50905060005b82811015610a4457878181518110610a1757610a176145de565b6020026020010151828281518110610a3157610a316145de565b60209081029190910101526001016109fd565b507f0000000000000000000000000f9a3e14f7fb9ac89ce32d50a2eade21ffeb97f36001600160a01b0316632230819f8e8a600001516040518363ffffffff1660e01b8152600401610a9792919061472d565b6020604051808303816000875af1158015610ab6573d6000803e3d6000fd5b505050506040513d601f19601f82011682018060405250810190610ada919061429a565b9350876020015115610b095760008d815260036020908152604082208054600181018255908352912060159101555b876040015115610b365760008d815260036020908152604082208054600181018255908352912060169101555b876060015115610b635760008d815260036020908152604082208054600181018255908352912060179101555b6040518060600160405280856001600160a01b031681526020016000815260200160405180602001604052806000815250815250818381518110610ba957610ba96145de565b6020026020010181905250610bc3838d8d8d8d868c6113c1565b508c94505050509850989650505050505050565b600080610bea8b8b8b8b8b8b8b8b610887565b909b509050610bfa8b828561215c565b7f00000000000000000000000075295c69178f42cfe9cf710f307891d6ce4719206001600160a01b031663f434c9146040518163ffffffff1660e01b8152600401602060405180830381865afa158015610c58573d6000803e3d6000fd5b505050506040513d601f19601f82011682018060405250810190610c7c919061429a565b6001600160a01b03166305d2912e306040518060600160405280600560009054906101000a90046001600160a01b03166001600160a01b031681526020018f81526020016006805480602002602001604051908101604052809291908181526020018280548015610d0c57602002820191906000526020600020905b815481526020019060010190808311610cf8575b50505050508152506040518363ffffffff1660e01b8152600401610d319291906148a1565b600060405180830381600087803b158015610d4b57600080fd5b505af1158015610d5f573d6000803e3d6000fd5b505050508a9150995099975050505050505050565b606060046000838152602001908152602001600020805480602002602001604051908101604052809291908181526020016000905b82821015610e8d576000848152602090819020604080516060810182526003860290920180546001600160a01b0316835260018101549383019390935260028301805492939291840191610dfc9061457b565b80601f0160208091040260200160405190810160405280929190818152602001828054610e289061457b565b8015610e755780601f10610e4a57610100808354040283529160200191610e75565b820191906000526020600020905b815481529060010190602001808311610e5857829003601f168201915b50505050508152505081526020019060010190610da9565b505050509050919050565b6000828152602081905260408120546001600160a01b0390811690831603610ec2575060016104a2565b6040517f3d12cb87000000000000000000000000000000000000000000000000000000008152600481018490526000907f000000000000000000000000f4c9957e2e1fab09a8b48658f68b46e47b1347246001600160a01b031690633d12cb8790602401600060405180830381865afa158015610f43573d6000803e3d6000fd5b505050506040513d6000823e601f3d908101601f19168201604052610f6b91908101906148e4565b805190915060005b81811015610fc157828181518110610f8d57610f8d6145de565b60200260200101516001600160a01b0316856001600160a01b031603610fb957600193505050506104a2565b600101610f73565b50600095945050505050565b6000808060606001600160a01b037f000000000000000000000000f4c9957e2e1fab09a8b48658f68b46e47b134724166383db9d01604087018035906110169060208a01614005565b6040516001600160e01b031960e085901b16815260048101929092526001600160a01b03166024820152604401602060405180830381865afa158015611060573d6000803e3d6000fd5b505050506040513d601f19601f82011682018060405250810190611084919061497e565b156110a15761271085608001358660a00135935093509350611103565b6040808601356000908152600160205220544210156110ec576040517f04c3b3cd00000000000000000000000000000000000000000000000000000000815260040160405180910390fd5b84610160013585608001358660a001359350935093505b9193509193565b7f00000000000000000000000075295c69178f42cfe9cf710f307891d6ce4719206001600160a01b0316631f47ce696040518163ffffffff1660e01b8152600401602060405180830381865afa158015611168573d6000803e3d6000fd5b505050506040513d601f19601f8201168201806040525081019061118c919061429a565b6001600160a01b031663f434c9146040518163ffffffff1660e01b8152600401602060405180830381865afa1580156111c9573d6000803e3d6000fd5b505050506040513d601f19601f820116820180604052508101906111ed919061429a565b6001600160a01b0316630f5932f0611203612345565b308661120e88612354565b6040518563ffffffff1660e01b815260040161122d949392919061499b565b602060405180830381865afa15801561124a573d6000803e3d6000fd5b505050506040513d601f19601f8201168201806040525081019061126e919061497e565b61128b576040516331fb21f360e01b815260040160405180910390fd5b6000611295612345565b8383602001516040516020016112ad939291906149cd565b60408051601f1981840301815290829052805160209091012083517f2f3f50e00000000000000000000000000000000000000000000000000000000083529092506001600160a01b037f000000000000000000000000f4c9957e2e1fab09a8b48658f68b46e47b1347241691632f3f50e09161132f9188918691600401614ad7565b6000604051808303816000875af115801561134e573d6000803e3d6000fd5b505050506040513d6000823e601f3d908101601f1916820160405261137691908101906148e4565b5080847f755ecfca2f6e66af8868551556bf7931740a7062db8e0882f4c322fdb0bb3f6085856113a4612345565b6040516113b393929190614b1f565b60405180910390a350505050565b60006113d688888888308761ffff168a61198b565b835190985060005b818110156114825760008a81526004602052604090208551869083908110611408576114086145de565b6020908102919091018101518254600180820185556000948552938390208251600390920201805473ffffffffffffffffffffffffffffffffffffffff19166001600160a01b039092169190911781559181015192820192909255604082015160028201906114779082614bab565b5050506001016113de565b50887fdfaf2737f25eace49d372b472ec03f1df0f9814dfc69d2b95c5e92a041f42e29856114ae612345565b6040516114bc929190614c6b565b60405180910390a25096979650505050505050565b60006114dc83612354565b90507f00000000000000000000000075295c69178f42cfe9cf710f307891d6ce4719206001600160a01b0316631f47ce696040518163ffffffff1660e01b8152600401602060405180830381865afa15801561153c573d6000803e3d6000fd5b505050506040513d601f19601f82011682018060405250810190611560919061429a565b6001600160a01b031663f434c9146040518163ffffffff1660e01b8152600401602060405180830381865afa15801561159d573d6000803e3d6000fd5b505050506040513d601f19601f820116820180604052508101906115c1919061429a565b6001600160a01b0316630f5932f06115d7612345565b3086856040518563ffffffff1660e01b81526004016115f9949392919061499b565b602060405180830381865afa158015611616573d6000803e3d6000fd5b505050506040513d601f19601f8201168201806040525081019061163a919061497e565b611657576040516331fb21f360e01b815260040160405180910390fd5b7f00000000000000000000000075295c69178f42cfe9cf710f307891d6ce4719206001600160a01b0316631f47ce696040518163ffffffff1660e01b8152600401602060405180830381865afa1580156116b5573d6000803e3d6000fd5b505050506040513d601f19601f820116820180604052508101906116d9919061429a565b6001600160a01b031663f434c9146040518163ffffffff1660e01b8152600401602060405180830381865afa158015611716573d6000803e3d6000fd5b505050506040513d601f19601f8201168201806040525081019061173a919061429a565b6001600160a01b03166305d2912e30604051806060016040528061175c612345565b6001600160a01b0316815260208082018990526040805160008152918201815291820152516001600160e01b031960e085901b1681526117a09291906004016148a1565b600060405180830381600087803b1580156117ba57600080fd5b505af11580156117ce573d6000803e3d6000fd5b505050507f00000000000000000000000075295c69178f42cfe9cf710f307891d6ce4719206001600160a01b0316631f47ce696040518163ffffffff1660e01b8152600401602060405180830381865afa158015611830573d6000803e3d6000fd5b505050506040513d601f19601f82011682018060405250810190611854919061429a565b6001600160a01b031663f434c9146040518163ffffffff1660e01b8152600401602060405180830381865afa158015611891573d6000803e3d6000fd5b505050506040513d601f19601f820116820180604052508101906118b5919061429a565b6001600160a01b03166305d2912e306040518060600160405280866001600160a01b03168152602001878152602001858152506040518363ffffffff1660e01b81526004016119059291906148a1565b600060405180830381600087803b15801561191f57600080fd5b505af1158015611933573d6000803e3d6000fd5b50505050816001600160a01b0316837f0329d6a81434b130c72eb65eea0e32e429dc1277b4aad86ec86454aefb61845161196b612345565b6040516001600160a01b03909116815260200160405180910390a3505050565b60008060008061199c8a888861250c565b9250925092508a600003611a77577f00000000000000000000000075295c69178f42cfe9cf710f307891d6ce4719206001600160a01b0316630634bae9308c6000015160400151868d8f60000151602001516040516020016119fe9190614c96565b6040516020818303038152906040526040518663ffffffff1660e01b8152600401611a2d9594939291906150cd565b6020604051808303816000875af1158015611a4c573d6000803e3d6000fd5b505050506040513d601f19601f82011682018060405250810190611a7091906145f4565b9a50611b35565b7f00000000000000000000000075295c69178f42cfe9cf710f307891d6ce4719206001600160a01b0316631ea7bc8c8c858c8e6000015160200151604051602001611ac29190614c96565b6040516020818303038152906040526040518563ffffffff1660e01b8152600401611af09493929190615135565b6020604051808303816000875af1158015611b0f573d6000803e3d6000fd5b505050506040513d601f19601f82011682018060405250810190611b3391906145f4565b505b8080611b455750468a6060015114155b15611b6757611b576276a700426145cb565b60008c8152600160205260409020555b7f00000000000000000000000075295c69178f42cfe9cf710f307891d6ce4719206001600160a01b031663581781918c8c60000151600001518d60000151602001518e60000151606001516040518563ffffffff1660e01b8152600401611bd19493929190615174565b6020604051808303816000875af1158015611bf0573d6000803e3d6000fd5b505050506040513d601f19601f82011682018060405250810190611c14919061429a565b5087516001600160a01b031615611c2f57611c2f8b896128cd565b7f00000000000000000000000075295c69178f42cfe9cf710f307891d6ce4719206001600160a01b031663dd5f214a8c6000611c6e8e60800151612a2d565b6040518463ffffffff1660e01b8152600401611c8c939291906151b1565b600060405180830381600087803b158015611ca657600080fd5b505af1158015611cba573d6000803e3d6000fd5b50505050600060405180606001604052808c608001516001600160a01b031681526020018d8152602001611ced8e612354565b81525090507f00000000000000000000000075295c69178f42cfe9cf710f307891d6ce4719206001600160a01b031663f434c9146040518163ffffffff1660e01b8152600401602060405180830381865afa158015611d50573d6000803e3d6000fd5b505050506040513d601f19601f82011682018060405250810190611d74919061429a565b6001600160a01b03166305d2912e30836040518363ffffffff1660e01b8152600401611da19291906148a1565b600060405180830381600087803b158015611dbb57600080fd5b505af1158015611dcf573d6000803e3d6000fd5b5050505060008b60400151118015611dea5750468b60600151145b15611eb8577f00000000000000000000000075295c69178f42cfe9cf710f307891d6ce4719206001600160a01b031663c7fb92de8d8d604001518e608001518f6000015160200151604051602001611e4291906151d0565b60405160208183030381529060405260006040518663ffffffff1660e01b8152600401611e73959493929190615220565b6020604051808303816000875af1158015611e92573d6000803e3d6000fd5b505050506040513d601f19601f82011682018060405250810190611eb691906145f4565b505b60408051600180825281830190925260009160208083019080368337019050509050601c81600081518110611eef57611eef6145de565b60200260200101818152505060405180606001604052807f000000000000000000000000f4c9957e2e1fab09a8b48658f68b46e47b1347246001600160a01b031681526020018e81526020018281525091507f00000000000000000000000075295c69178f42cfe9cf710f307891d6ce4719206001600160a01b031663f434c9146040518163ffffffff1660e01b8152600401602060405180830381865afa158015611f9f573d6000803e3d6000fd5b505050506040513d601f19601f82011682018060405250810190611fc3919061429a565b6001600160a01b03166305d2912e30846040518363ffffffff1660e01b8152600401611ff09291906148a1565b600060405180830381600087803b15801561200a57600080fd5b505af115801561201e573d6000803e3d6000fd5b505050506020870151156120fe577f000000000000000000000000f4c9957e2e1fab09a8b48658f68b46e47b1347246001600160a01b0316632f3f50e08e612064612345565b878b6020015160405160200161207c939291906149cd565b60408051601f198184030181529082905280516020909101208b516001600160e01b031960e086901b1683526120b59392600401614ad7565b6000604051808303816000875af11580156120d4573d6000803e3d6000fd5b505050506040513d6000823e601f3d908101601f191682016040526120fc91908101906148e4565b505b8c7f4b827371715024f69a0bc98c8df6edafe6e471e78488ab1b3849de72f66b12e08d8d8d8b8a8a8a61212f612345565b604051612143989796959493929190615383565b60405180910390a2509a9b9a5050505050505050505050565b805160008167ffffffffffffffff81111561217957612179612dcf565b6040519080825280602002602001820160405280156121ec57816020015b6121d96040518060c0016040528060006001600160a01b0316815260200160008152602001600081526020016000815260200160008152602001606081525090565b8152602001906001900390816121975790505b5090506122216040518060a0016040528060008152602001600081526020016000815260200160008152602001606081525090565b60005b838110156122b75784818151811061223e5761223e6145de565b602002602001015191506040518060c00160405280876001600160a01b031681526020018360000151815260200183602001518152602001836040015181526020018360600151815260200183608001518152508382815181106122a4576122a46145de565b6020908102919091010152600101612224565b5083511561233d576005546040517fab54877a0000000000000000000000000000000000000000000000000000000081526001600160a01b039091169063ab54877a9061230a90899086906004016154ec565b600060405180830381600087803b15801561232457600080fd5b505af1158015612338573d6000803e3d6000fd5b505050505b505050505050565b600061234f612b6b565b905090565b6060600060028054806020026020016040519081016040528092919081815260200182805480156123a457602002820191906000526020600020905b815481526020019060010190808311612390575b5050835160008881526003602090815260408083208054825181850281018501909352808352989950939792965094509192509083018282801561240757602002820191906000526020600020905b8154815260200190600101908083116123f3575b5050835193945061241e92508391508590506145cb565b67ffffffffffffffff81111561243657612436612dcf565b60405190808252806020026020018201604052801561245f578160200160208202803683370190505b50945060005b838110156124ac5784818151811061247f5761247f6145de565b6020026020010151868281518110612499576124996145de565b6020908102919091010152600101612465565b5060005b81811015612502578281815181106124ca576124ca6145de565b60200260200101518682866124df91906145cb565b815181106124ef576124ef6145de565b60209081029190910101526001016124b0565b5050505050919050565b6060806000808660a001515190508067ffffffffffffffff81111561253357612533612dcf565b60405190808252806020026020018201604052801561262557816020015b6126126040805161010080820183526000808352602080840182905283850182905260608085018390526080808601849052865161020081018852848152928301849052958201839052810182905293840181905260a084810182905260c0850182905260e0850182905291840181905261012084018190526101408401819052610160840181905261018084018190526101a084018190526101c084018190526101e0840152909190820190815260200160608152602001606081525090565b8152602001906001900390816125515790505b50935061263187612be0565b6040805160c081018252600080825260208201819052918101829052606081018290526080810182905260a081018290529194505b828110156128c1578860a001518181518110612684576126846145de565b60200260200101519150816000015164ffffffffff168682815181106126ac576126ac6145de565b60200260200101516000018181525050816060015164ffffffffff168682815181106126da576126da6145de565b6020026020010151602001818152505081604001516dffffffffffffffffffffffffffff16868281518110612711576127116145de565b60200260200101516040018181525050816080015163ffffffff1686828151811061273e5761273e6145de565b602002602001015160600181815250506000868281518110612762576127626145de565b6020026020010151608001906001600160a01b031690816001600160a01b031681525050604051806102000160405280836020015161ffff1681526020018360a0015161ffff166127106127b6919061559e565b815260208b81015163ffffffff16908201526000604082018190526060820181905260016080830181905260a0830182905260c0830182905260e083018290526101008301829052610120830182905261014083018290526101608301526101808201526001600160a01b038a166101a08201526101c0018890528651879083908110612845576128456145de565b602002602001015160a0018190525080600014801561286b5750815164ffffffffff1615155b8015612881575042826000015164ffffffffff16105b1561288b57600193505b846128968383612c21565b6040516020016128a79291906155b1565b60408051601f198184030181529190529450600101612666565b50505093509350939050565b602081810151516040805160808101825260008082529381018490529081018390526060810183905290915b828110156129ec5783602001518181518110612917576129176145de565b6020908102919091018101518551918101516040808301516060840151845192517f7b621d3a000000000000000000000000000000000000000000000000000000008152600481018c905262ffffff909416602485015263ffffffff91821660448501521660648301526001600160a01b039081166084830152919450911690637b621d3a9060a4016020604051808303816000875af11580156129bf573d6000803e3d6000fd5b505050506040513d601f19601f820116820180604052508101906129e3919061429a565b506001016128f9565b50509051600092835260208390526040909220805473ffffffffffffffffffffffffffffffffffffffff19166001600160a01b039093169290921790915550565b604080516001808252818301909252606091816020015b604080518082019091526000815260606020820152815260200190600190039081612a4457505060408051600180825281830190925291925060009190602082015b6040805160c08101825260008082526020808301829052928201819052606082018190526080820181905260a08201528252600019909201910181612a865790505090506040518060c00160405280600015158152602001633b9aca00815260200160008152602001846001600160a01b031681526020016000815260200160006001600160a01b031681525081600081518110612b2657612b266145de565b60200260200101819052506040518060400160405280600181526020018281525082600081518110612b5a57612b5a6145de565b602002602001018190525050919050565b6000366014336001600160a01b037f000000000000000000000000b2b5841dbef766d4b521221732f9b618fcf34a8716148015612ba85750808210155b15612bd857600036612bba838561559e565b612bc59282906155e0565b612bce9161560a565b60601c9250505090565b339250505090565b6020808201516060838101518451805181860151918401516040519496612c0b96959293920161563f565b6040516020818303038152906040529050919050565b606081158015612c375750825164ffffffffff16155b612c4957825164ffffffffff16612c4b565b425b83602001518460400151856060015186608001518760a00151604051602001612cc09695949392919095865261ffff94851660208701526dffffffffffffffffffffffffffff93909316604086015264ffffffffff91909116606085015263ffffffff1660808401521660a082015260c00190565b604051602081830303815290604052905092915050565b600060208284031215612ce957600080fd5b81356001600160e01b031981168114612d0157600080fd5b9392505050565b6001600160a01b0381168114612d1d57600080fd5b50565b8035612d2b81612d08565b919050565b600080600080600060808688031215612d4857600080fd5b8535612d5381612d08565b94506020860135612d6381612d08565b935060408601359250606086013567ffffffffffffffff80821115612d8757600080fd5b818801915088601f830112612d9b57600080fd5b813581811115612daa57600080fd5b896020828501011115612dbc57600080fd5b9699959850939650602001949392505050565b634e487b7160e01b600052604160045260246000fd5b6040516080810167ffffffffffffffff81118282101715612e0857612e08612dcf565b60405290565b60405160c0810167ffffffffffffffff81118282101715612e0857612e08612dcf565b6040805190810167ffffffffffffffff81118282101715612e0857612e08612dcf565b604051610180810167ffffffffffffffff81118282101715612e0857612e08612dcf565b604051610120810167ffffffffffffffff81118282101715612e0857612e08612dcf565b6040516060810167ffffffffffffffff81118282101715612e0857612e08612dcf565b60405160a0810167ffffffffffffffff81118282101715612e0857612e08612dcf565b604051601f8201601f1916810167ffffffffffffffff81118282101715612f0b57612f0b612dcf565b604052919050565b600067ffffffffffffffff821115612f2d57612f2d612dcf565b50601f01601f191660200190565b600082601f830112612f4c57600080fd5b8135612f5f612f5a82612f13565b612ee2565b818152846020838601011115612f7457600080fd5b816020850160208301376000918101602001919091529392505050565b600060808284031215612fa357600080fd5b612fab612de5565b9050813567ffffffffffffffff80821115612fc557600080fd5b612fd185838601612f3b565b83526020840135915080821115612fe757600080fd5b612ff385838601612f3b565b6020840152604084013591508082111561300c57600080fd5b5061301984828501612f3b565b6040830152506060820135606082015292915050565b803563ffffffff81168114612d2b57600080fd5b600067ffffffffffffffff82111561305d5761305d612dcf565b5060051b60200190565b803564ffffffffff81168114612d2b57600080fd5b803561ffff81168114612d2b57600080fd5b600082601f83011261309f57600080fd5b813560206130af612f5a83613043565b82815260c092830285018201928282019190878511156130ce57600080fd5b8387015b858110156131735781818a0312156130ea5760008081fd5b6130f2612e0e565b6130fb82613067565b815261310886830161307c565b868201526040808301356dffffffffffffffffffffffffffff8116811461312f5760008081fd5b908201526060613140838201613067565b90820152608061315183820161302f565b9082015260a061316283820161307c565b9082015284529284019281016130d2565b5090979650505050505050565b600060c0828403121561319257600080fd5b61319a612e0e565b9050813567ffffffffffffffff808211156131b457600080fd5b6131c085838601612f91565b83526131ce6020850161302f565b602084015260408401356040840152606084013560608401526131f360808501612d20565b608084015260a084013591508082111561320c57600080fd5b506132198482850161308e565b60a08301525092915050565b600082601f83011261323657600080fd5b81356020613246612f5a83613043565b8083825260208201915060208460051b87010193508684111561326857600080fd5b602086015b8481101561328d57803561328081612d08565b835291830191830161326d565b509695505050505050565b600082601f8301126132a957600080fd5b813560206132b9612f5a83613043565b82815260059290921b840181019181810190868411156132d857600080fd5b8286015b8481101561328d57803567ffffffffffffffff808211156132fd5760008081fd5b908801906040828b03601f19018113156133175760008081fd5b61331f612e31565b8784013561332c81612d08565b81529083013590828211156133415760008081fd5b61334f8c8984870101613225565b8189015286525050509183019183016132dc565b803562ffffff81168114612d2b57600080fd5b6000604080838503121561338957600080fd5b613391612e31565b9150823561339e81612d08565b825260208381013567ffffffffffffffff8111156133bb57600080fd5b8401601f810186136133cc57600080fd5b80356133da612f5a82613043565b81815260079190911b820183019083810190888311156133f957600080fd5b928401925b8284101561346d576080848a0312156134175760008081fd5b61341f612de5565b843561342a81612d08565b8152613437858701613363565b8682015261344687860161302f565b87820152606061345781870161302f565b90820152825260809390930192908401906133fe565b808588015250505050505092915050565b60006040828403121561349057600080fd5b613498612e31565b905067ffffffffffffffff80833511156134b157600080fd5b8235830184601f8201126134c457600080fd5b6134d1612f5a8235613043565b81358082526020808301929160051b840101878111156134f057600080fd5b602084015b8181101561363557858135111561350b57600080fd5b803585016040818b03601f1901121561352357600080fd5b61352b612e31565b6135386020830135612d08565b60208201358152876040830135111561355057600080fd5b6040820135820191508a603f83011261356857600080fd5b6020820135613579612f5a82613043565b81815260079190911b83016040019060208101908d83111561359a57600080fd5b6040850194505b82851015613616576080858f0312156135b957600080fd5b6135c1612de5565b6135cb8635612d08565b853581526135db6020870161302f565b60208201526135ed6040870135612d08565b6040860135604082015260608601356060820152808352506020820191506080850194506135a1565b80602085015250505080865250506020840193506020810190506134f5565b5050808552505050506020820135602082015292915050565b600080600080600060a0868803121561366657600080fd5b85359450602086013567ffffffffffffffff8082111561368557600080fd5b61369189838a01613180565b955060408801359150808211156136a757600080fd5b6136b389838a01613298565b945060608801359150808211156136c957600080fd5b6136d589838a01613376565b935060808801359150808211156136eb57600080fd5b506136f88882890161347e565b9150509295509295909350565b60006020828403121561371757600080fd5b5035919050565b60006020828403121561373057600080fd5b813567ffffffffffffffff81111561374757600080fd5b82016101808185031215612d0157600080fd5b60005b8381101561377557818101518382015260200161375d565b50506000910152565b6000815180845261379681602086016020860161375a565b601f01601f19169290920160200192915050565b600082825180855260208086019550808260051b84010181860160005b8481101561317357858303601f19018952815180516001600160a01b03168452848101518585015260409081015160609185018290529061380a8186018361377e565b9a86019a94505050908301906001016137c7565b82815260406020820152600061383760408301846137aa565b949350505050565b80356cffffffffffffffffffffffffff81168114612d2b57600080fd5b8015158114612d1d57600080fd5b8035612d2b8161385c565b803560ff81168114612d2b57600080fd5b6000608080838503121561389957600080fd5b6138a1612de5565b9150823567ffffffffffffffff8111156138ba57600080fd5b8301601f810185136138cb57600080fd5b803560206138db612f5a83613043565b82815261018092830284018201928282019190898511156138fb57600080fd5b948301945b848610156139ee5780868b0312156139185760008081fd5b613920612e54565b6139298761383f565b815261393685880161302f565b85820152604061394781890161302f565b90820152606061395888820161307c565b90820152613967878901612d20565b8189015260a0878101359082015260c0613982818901613363565b9082015260e061399388820161386a565b908201526101006139a588820161386a565b908201526101206139b788820161386a565b908201526101406139c988820161386a565b908201526101606139db88820161386a565b9082015283529485019491830191613900565b508652506139fd86820161302f565b8186015250505050613a1160408301613875565b6040820152613a2260608301612d20565b606082015292915050565b600060808284031215613a3f57600080fd5b613a47612de5565b90508135613a548161385c565b81526020820135613a648161385c565b60208201526040820135613a778161385c565b60408201526060820135613a228161385c565b600060808284031215613a9c57600080fd5b613aa4612de5565b9050813567ffffffffffffffff80821115613abe57600080fd5b908301906101808286031215613ad357600080fd5b613adb612e78565b823582811115613aea57600080fd5b613af687828601612f3b565b825250602083013582811115613b0b57600080fd5b613b1787828601612f3b565b602083015250613b2960408401612d20565b6040820152606083013582811115613b4057600080fd5b613b4c87828601612f3b565b606083015250613b5e60808401612d20565b608082015260a083013582811115613b7557600080fd5b613b8187828601612f3b565b60a08301525060c083013582811115613b9957600080fd5b613ba587828601613886565b60c083015250613bb760e08401612d20565b60e08201526101009150613bcd86838501613a2d565b82820152808452505050613be36020830161386a565b6020820152613bf46040830161386a565b6040820152613a226060830161386a565b600082601f830112613c1657600080fd5b81356020613c26612f5a83613043565b82815260059290921b84018101918181019086841115613c4557600080fd5b8286015b8481101561328d57803567ffffffffffffffff80821115613c6a5760008081fd5b908801906060828b03601f1901811315613c845760008081fd5b613c8c612e9c565b87840135613c9981612d08565b815260408481013589830152918401359183831115613cb85760008081fd5b613cc68d8a85880101612f3b565b908201528652505050918301918301613c49565b600080600080600080600080610100898b031215613cf757600080fd5b88359750602089013567ffffffffffffffff80821115613d1657600080fd5b613d228c838d01613180565b985060408b0135915080821115613d3857600080fd5b613d448c838d01613298565b975060608b0135915080821115613d5a57600080fd5b613d668c838d01613376565b965060808b0135915080821115613d7c57600080fd5b613d888c838d0161347e565b955060a08b0135915080821115613d9e57600080fd5b613daa8c838d01613a8a565b945060c08b0135915080821115613dc057600080fd5b50613dcd8b828c01613c05565b925050613ddc60e08a0161307c565b90509295985092959890939650565b600082601f830112613dfc57600080fd5b81356020613e0c612f5a83613043565b82815260059290921b84018101918181019086841115613e2b57600080fd5b8286015b8481101561328d57803567ffffffffffffffff80821115613e505760008081fd5b9088019060a0828b03601f1901811315613e6a5760008081fd5b613e72612ebf565b87840135815260408085013589830152606080860135828401526080915081860135818401525082850135925083831115613ead5760008081fd5b613ebb8d8a85880101613225565b908201528652505050918301918301613e2f565b60008060008060008060008060006101208a8c031215613eee57600080fd5b8935985060208a013567ffffffffffffffff80821115613f0d57600080fd5b613f198d838e01613180565b995060408c0135915080821115613f2f57600080fd5b613f3b8d838e01613298565b985060608c0135915080821115613f5157600080fd5b613f5d8d838e01613376565b975060808c0135915080821115613f7357600080fd5b613f7f8d838e0161347e565b965060a08c0135915080821115613f9557600080fd5b613fa18d838e01613a8a565b955060c08c0135915080821115613fb757600080fd5b613fc38d838e01613c05565b9450613fd160e08d0161307c565b93506101008c0135915080821115613fe857600080fd5b50613ff58c828d01613deb565b9150509295985092959850929598565b60006020828403121561401757600080fd5b8135612d0181612d08565b602081526000612d0160208301846137aa565b6000806040838503121561404857600080fd5b82359150602083013561405a81612d08565b809150509250929050565b60006020828403121561407757600080fd5b813567ffffffffffffffff81111561408e57600080fd5b82016101a08185031215612d0157600080fd5b60006080820186835260208681850152604086604086015260606080606087015283875180865260a08801915060a08160051b890101955084890160005b8281101561412f57898803609f19018452815180516001600160a01b0316895287810151888a015286015186890186905261411c868a018261377e565b98505092860192908601906001016140df565b50959c9b505050505050505050505050565b60008060006060848603121561415657600080fd5b83359250602084013567ffffffffffffffff8082111561417557600080fd5b61418187838801612f3b565b9350604086013591508082111561419757600080fd5b506141a48682870161347e565b9150509250925092565b600080600080600080600060e0888a0312156141c957600080fd5b87359650602088013567ffffffffffffffff808211156141e857600080fd5b6141f48b838c01613180565b975060408a013591508082111561420a57600080fd5b6142168b838c01613298565b965060608a013591508082111561422c57600080fd5b6142388b838c01613376565b955060808a013591508082111561424e57600080fd5b61425a8b838c0161347e565b945060a08a013591508082111561427057600080fd5b5061427d8a828b01613c05565b92505061428c60c0890161307c565b905092959891949750929550565b6000602082840312156142ac57600080fd5b8151612d0181612d08565b80356142c281612d08565b6001600160a01b031682526020818101359083015260408082013590830152606090810135910152565b6000808335601e1984360301811261430357600080fd5b830160208101925035905067ffffffffffffffff81111561432357600080fd5b80360382131561433257600080fd5b9250929050565b81835281816020850137506000828201602090810191909152601f909101601f19169091010190565b602081526143836020820161437684612d20565b6001600160a01b03169052565b600061439160208401612d20565b6001600160a01b0381166040840152506143b160608301604085016142b7565b60c083013560e083015261010060e0840135818401526143d2818501612d20565b90506101206143eb818501836001600160a01b03169052565b61014091508085013582850152506101608185013581850152614410818601866142ec565b610180868101529250905061442a6101a085018383614339565b95945050505050565b600080604080848603121561444757600080fd5b8351925060208085015167ffffffffffffffff8082111561446757600080fd5b818701915087601f83011261447b57600080fd5b8151614489612f5a82613043565b81815260059190911b8301840190848101908a8311156144a857600080fd5b8585015b83811015614569578051858111156144c357600080fd5b86016060818e03601f190112156144da5760008081fd5b6144e2612e9c565b888201516144ef81612d08565b8152818a01518982015260608201518781111561450c5760008081fd5b8083019250508d603f8301126145225760008081fd5b88820151614532612f5a82612f13565b8181528f8c8386010111156145475760008081fd5b614556828c83018e870161375a565b828c0152508452509186019186016144ac565b50809750505050505050509250929050565b600181811c9082168061458f57607f821691505b6020821081036145af57634e487b7160e01b600052602260045260246000fd5b50919050565b634e487b7160e01b600052601160045260246000fd5b808201808211156104a2576104a26145b5565b634e487b7160e01b600052603260045260246000fd5b60006020828403121561460657600080fd5b5051919050565b80516080808452815184820181905260009260a0916020918201918388019190865b828110156146f257845180516cffffffffffffffffffffffffff1685528281015163ffffffff908116848701526040808301519091169086015260608082015161ffff1690860152878101516001600160a01b031688860152868101518786015260c08082015162ffffff169086015260e08082015115159086015261010080820151151590860152610120808201511515908601526101408082015115159086015261016090810151151590850152938101936101809093019260010161462f565b508781015163ffffffff16908901525060408087015160ff16908801526060808701516001600160a01b038116918901919091529350610586565b828152604060208201526000825161018060408401526147516101c084018261377e565b90506020840151603f198085840301606086015261476f838361377e565b92506040860151915061478d60808601836001600160a01b03169052565b60608601519150808584030160a08601526147a8838361377e565b9250608086015191506147c660c08601836001600160a01b03169052565b60a08601519150808584030160e08601526147e1838361377e565b925060c08601519150610100818685030181870152614800848461460d565b935060e0870151925061481f6101208701846001600160a01b03169052565b860151805115156101408701526020810151151561016087015260408101511515610180870152606081015115156101a0870152915061485c9050565b50949350505050565b60008151808452602080850194506020840160005b838110156148965781518752958201959082019060010161487a565b509495945050505050565b60006001600160a01b03808516835260406020840152808451166040840152506020830151606083015260408301516060608084015261442a60a0840182614865565b600060208083850312156148f757600080fd5b825167ffffffffffffffff81111561490e57600080fd5b8301601f8101851361491f57600080fd5b805161492d612f5a82613043565b81815260059190911b8201830190838101908783111561494c57600080fd5b928401925b8284101561497357835161496481612d08565b82529284019290840190614951565b979650505050505050565b60006020828403121561499057600080fd5b8151612d018161385c565b60006001600160a01b038087168352808616602084015250836040830152608060608301526105866080830184614865565b6bffffffffffffffffffffffff198460601b168152600083516149f781601485016020880161375a565b60149201918201929092526034019392505050565b600082825180855260208086019550808260051b8401018186016000805b85811015614ac957868403601f19018a52825180516001600160a01b03908116865290860151604087870181905281518188018190529188019290916060919082890190875b81811015614ab15786518051851684528c81015163ffffffff168d8501528681015185168785015285015185840152958b0195608090920191600101614a70565b50509d89019d97505050938601935050600101614a2a565b509198975050505050505050565b83815282602082015260606040820152600061442a6060830184614a0c565b6000815160408452614b0b6040850182614a0c565b602093840151949093019390935250919050565b606081526000614b32606083018661377e565b8281036020840152614b448186614af6565b9150506001600160a01b0383166040830152949350505050565b601f821115614ba6576000816000526020600020601f850160051c81016020861015614b875750805b601f850160051c820191505b8181101561233d57828155600101614b93565b505050565b815167ffffffffffffffff811115614bc557614bc5612dcf565b614bd981614bd3845461457b565b84614b5e565b602080601f831160018114614c0e5760008415614bf65750858301515b600019600386901b1c1916600185901b17855561233d565b600085815260208120601f198616915b82811015614c3d57888601518255948401946001909101908401614c1e565b5085821015614c5b5787850151600019600388901b60f8161c191681555b5050505050600190811b01905550565b604081526000614c7e60408301856137aa565b90506001600160a01b03831660208301529392505050565b600960fa1b815260008251614cb281600185016020870161375a565b7f207265766e6574206465706c6f796564000000000000000000000000000000006001939091019283015250601101919050565b8051825260208101516020830152604081015160408301526060810151614d11606084018215159052565b506080810151614d25608084018215159052565b5060a0810151614d3960a084018215159052565b5060c0810151614d4d60c084018215159052565b5060e0810151614d6160e084018215159052565b5061010081810151151590830152610120808201511515908301526101408082015115159083015261016080820151151590830152610180808201511515908301526101a0808201511515908301526101c0808201516001600160a01b0316908301526101e090810151910152565b600082825180855260208086019550808260051b8401018186016000805b85811015614ac957868403601f19018a52825180518552850151604086860181905281518187018190529187019160609081880190865b81811015614e7f5785518051151584528b8101518c8501528581015186850152848101516001600160a01b03908116868601526080808301519086015260a0918201511690840152948a019460c090920191600101614e25565b50509c88019c965050509285019250600101614dee565b60008151808452602080850194506020840160005b83811015614896578151805188528301518388015260409096019590820190600101614eab565b600082825180855260208086019550808260051b84010181860160005b8481101561317357601f19868403018952815160806001600160a01b0380835116865280878401511687870152506040808301518282880152614f3483880182614e96565b9250505060608083015192508582038187015250614f528183614e96565b9a86019a9450505090830190600101614eef565b600082825180855260208086019550808260051b84010181860160005b8481101561317357858303601f19018952815180518452848101518585015260408082015190850152606080820151908501526080808201516001600160a01b03169085015260a0808201516102e09190614fe082880182614ce6565b505060c0820151816102a0870152614ffa82870182614dd0565b91505060e082015191508481036102c08601526150178183614ed2565b9a86019a9450505090830190600101614f83565b60008151808452602080850194506020840160005b838110156148965781516001600160a01b031687529582019590820190600101615040565b600082825180855260208086019550808260051b84010181860160005b8481101561317357858303601f19018952815180516001600160a01b0316845284015160408585018190526150b98186018361502b565b9a86019a9450505090830190600101615082565b6001600160a01b038616815260a0602082015260006150ef60a083018761377e565b82810360408401526151018187614f66565b905082810360608401526151158186615065565b90508281036080840152615129818561377e565b98975050505050505050565b84815260806020820152600061514e6080830186614f66565b82810360408401526151608186615065565b90508281036060840152614973818561377e565b84815260806020820152600061518d608083018661377e565b828103604084015261519f818661377e565b91505082606083015295945050505050565b83815282602082015260606040820152600061442a6060830184614dd0565b600960fa1b8152600082516151ec81600185016020870161375a565b7f207072656d696e746564000000000000000000000000000000000000000000006001939091019283015250600b01919050565b8581528460208201526001600160a01b038416604082015260a06060820152600061524e60a083018561377e565b905082151560808301529695505050505050565b60008151808452602080850194506020840160005b83811015614896578151805164ffffffffff90811689528482015161ffff908116868b01526040808401516dffffffffffffffffffffffffffff16908b0152606080840151909216918a019190915260808083015163ffffffff16908a015260a091820151169088015260c09096019590820190600101615277565b600060408084016001600160a01b038085511686526020808601516040828901528381518086526060955060608a019150838301925060005b818110156153745783518051871684528581015162ffffff16868501528881015163ffffffff9081168a8601529088015116878401529284019260809092019160010161532c565b50909998505050505050505050565b60006101008083528a5160c0828501528051915060806101c08501526153ad61024085018361377e565b915060208101516101bf1980868503016101e08701526153cd848361377e565b9350604083015191508086850301610200870152506153ec838261377e565b92505060608101516102208501525060208b015161541361012085018263ffffffff169052565b5060408b015161014084015260608b015161016084015260808b01516001600160a01b031661018084015260a08b015183820360ff19016101a085015261545a8282615262565b915050828103602084015261546f818b615065565b90508281036040840152615483818a6152f3565b905082810360608401526154978189614af6565b905082810360808401526154ab8188614f66565b905082810360a08401526154bf818761377e565b9150506154d060c083018515159052565b6001600160a01b03831660e08301529998505050505050505050565b6000604080830185845260206040818601528186518084526060935060608701915060608160051b88010183890160005b8381101561558e57898303605f19018552815180516001600160a01b031684528681015187850152888101518985015287810151888501526080808201519085015260a09081015160c09185018290529061557a8186018361502b565b96880196945050509085019060010161551d565b50909a9950505050505050505050565b818103818111156104a2576104a26145b5565b600083516155c381846020880161375a565b8351908301906155d781836020880161375a565b01949350505050565b600080858511156155f057600080fd5b838611156155fd57600080fd5b5050820193919092039150565b6bffffffffffffffffffffffff1981358181169160148510156156375780818660140360031b1b83161692505b505092915050565b63ffffffff8616815284602082015260a06040820152600061566460a083018661377e565b8281036060840152615676818661377e565b915050826080830152969550505050505056fea26469706673582212209d9ee8e2f09e47847ca349e3f0d5cc816dcdad7bbb74ac64afe46c6e6f4d6bb064736f6c63430008170033",
	"devdoc": {
		"kind": "dev",
		"methods": {
			"beforePayRecordedWith((address,address,(address,uint256,uint256,uint256),uint256,uint256,address,uint256,uint256,bytes))": {
				"details": "Part of IJBFundingCycleDataSource.This implementation just sets this contract up to receive a `didPay` call.",
				"params": {
					"context": "The Juicebox standard network payment context. See"
				},
				"returns": {
					"hookSpecifications": "Amount to be sent to pay hooks instead of adding to local balance. Useful for auto-routing funds from a treasury as payment come in.",
					"weight": "The weight that network tokens should get minted relative to. This is useful for optionally customizing how many tokens are issued per payment."
				}
			},
			"constructor": {
				"params": {
					"controller": "The controller that revnets are made from.",
					"hookDeployer": "The 721 tiers hook deployer.",
					"publisher": "The croptop publisher that facilitates the permissioned publishing of 721 posts to a revnet.",
					"suckerRegistry": "The registry that deploys and tracks each project's suckers.",
					"trustedForwarder": "The trusted forwarder for the ERC2771Context."
				}
			},
			"deploySuckersFor(uint256,bytes,((address,(address,uint32,address,uint256)[])[],bytes32))": {
				"params": {
					"encodedConfiguration": "A bytes representation of the revnet's configuration.",
					"revnetId": "The ID of the revnet having new suckers deployed.",
					"suckerDeploymentConfiguration": "The specifics about the suckers being deployed."
				}
			},
			"hasMintPermissionFor(uint256,address)": {
				"params": {
					"addr": "The address to check if has permissions.",
					"revnetId": "The ID of the revnet to check permissions for."
				},
				"returns": {
					"_0": "flag The flag indicating if the address has permissions to mint on the revnet's behalf."
				}
			},
			"isTrustedForwarder(address)": {
				"details": "Indicates whether any particular address is the trusted forwarder."
			},
			"launchCroptopRevnetFor(uint256,((string,string,string,bytes32),uint32,uint256,uint256,address,(uint40,uint16,uint112,uint40,uint32,uint16)[]),(address,address[])[],(address,(address,uint24,uint32,uint32)[]),((address,(address,uint32,address,uint256)[])[],bytes32),((string,string,address,string,address,string,((uint104,uint32,uint32,uint16,address,bytes32,uint24,bool,bool,bool,bool,bool)[],uint32,uint8,address),address,(bool,bool,bool,bool)),bool,bool,bool),(address,uint256,bytes)[],uint16,(uint256,uint256,uint256,uint256,address[])[])": {
				"params": {
					"allowedPosts": "The type of posts that the revent should allow.",
					"buybackHookConfiguration": "Data used for setting up the buyback hook to use when determining the best price for new participants.",
					"configuration": "The data needed to deploy a basic revnet.",
					"extraHookMetadata": "Extra metadata to attach to the cycle for the delegates to use.",
					"hookConfiguration": "Data used for setting up the 721 tiers.",
					"otherPayHooksSpecifications": "Any hooks that should run when the revnet is paid alongside the 721 hook.",
					"revnetId": "The ID of the Juicebox project to turn into a revnet. Send 0 to deploy a new revnet.",
					"suckerDeploymentConfiguration": "Information about how this revnet relates to other's across chains.",
					"terminalConfigurations": "The terminals that the network uses to accept payments through."
				},
				"returns": {
					"_0": "revnetId The ID of the newly created revnet.",
					"hook": "The address of the 721 hook that was deployed on the revnet."
				}
			},
			"launchPayHookRevnetFor(uint256,((string,string,string,bytes32),uint32,uint256,uint256,address,(uint40,uint16,uint112,uint40,uint32,uint16)[]),(address,address[])[],(address,(address,uint24,uint32,uint32)[]),((address,(address,uint32,address,uint256)[])[],bytes32),(address,uint256,bytes)[],uint16)": {
				"params": {
					"buybackHookConfiguration": "Data used for setting up the buyback hook to use when determining the best price for new participants.",
					"configuration": "The data needed to deploy a basic revnet.",
					"extraHookMetadata": "Extra metadata to attach to the cycle for the delegates to use.",
					"payHookSpecifications": "Any hooks that should run when the revnet is paid.",
					"revnetId": "The ID of the Juicebox project to turn into a revnet. Send 0 to deploy a new revnet.",
					"suckerDeploymentConfiguration": "Information about how this revnet relates to other's across chains.",
					"terminalConfigurations": "The terminals that the network uses to accept payments through."
				},
				"returns": {
					"_0": "revnetId The ID of the newly created revnet."
				}
			},
			"launchRevnetFor(uint256,((string,string,string,bytes32),uint32,uint256,uint256,address,(uint40,uint16,uint112,uint40,uint32,uint16)[]),(address,address[])[],(address,(address,uint24,uint32,uint32)[]),((address,(address,uint32,address,uint256)[])[],bytes32))": {
				"params": {
					"buybackHookConfiguration": "Data used for setting up the buyback hook to use when determining the best price for new participants.",
					"configuration": "The data needed to deploy a basic revnet.",
					"revnetId": "The ID of the Juicebox project to turn into a revnet. Send 0 to deploy a new revnet.",
					"suckerDeploymentConfiguration": "Information about how this revnet relates to other's across chains.",
					"terminalConfigurations": "The terminals that the network uses to accept payments through."
				},
				"returns": {
					"_0": "revnetId The ID of the newly created revnet."
				}
			},
			"launchTiered721RevnetFor(uint256,((string,string,string,bytes32),uint32,uint256,uint256,address,(uint40,uint16,uint112,uint40,uint32,uint16)[]),(address,address[])[],(address,(address,uint24,uint32,uint32)[]),((address,(address,uint32,address,uint256)[])[],bytes32),((string,string,address,string,address,string,((uint104,uint32,uint32,uint16,address,bytes32,uint24,bool,bool,bool,bool,bool)[],uint32,uint8,address),address,(bool,bool,bool,bool)),bool,bool,bool),(address,uint256,bytes)[],uint16)": {
				"params": {
					"buybackHookConfiguration": "Data used for setting up the buyback hook to use when determining the best price for new participants.",
					"configuration": "The data needed to deploy a basic revnet.",
					"extraHookMetadata": "Extra metadata to attach to the cycle for the delegates to use.",
					"hookConfiguration": "Data used for setting up the 721 tiers.",
					"otherPayHooksSpecifications": "Any hooks that should run when the revnet is paid alongside the 721 hook.",
					"revnetId": "The ID of the Juicebox project to turn into a revnet. Send 0 to deploy a new revnet.",
					"suckerDeploymentConfiguration": "Information about how this revnet relates to other's across chains.",
					"terminalConfigurations": "The terminals that the network uses to accept payments through."
				},
				"returns": {
					"_0": "revnetId The ID of the newly created revnet.",
					"hook": "The address of the 721 hook that was deployed on the revnet."
				}
			},
			"onERC721Received(address,address,uint256,bytes)": {
				"details": "Make sure only mints can be received."
			},
			"payHookSpecificationsOf(uint256)": {
				"params": {
					"revnetId": "The ID of the revnet to which the extensions apply."
				},
				"returns": {
					"_0": "payHookSpecifications The pay hooks."
				}
			},
			"replaceSplitOperatorOf(uint256,address)": {
				"params": {
					"newSplitOperator": "The address of the new split operator.",
					"revnetId": "The ID of the revnet having its operator replaced."
				}
			},
			"supportsInterface(bytes4)": {
				"details": "See {IERC165-supportsInterface}.",
				"params": {
					"interfaceId": "The ID of the interface to check for adherence to."
				},
				"returns": {
					"_0": "A flag indicating if the provided interface ID is supported."
				}
			},
			"trustedForwarder()": {
				"details": "Returns the address of the trusted forwarder."
			}
		},
		"version": 1
	},
	"userdoc": {
		"kind": "user",
		"methods": {
			"CONTROLLER()": {
				"notice": "The controller that networks are made from."
			},
			"EXIT_DELAY()": {
				"notice": "The amount of time from a sucker being deployed to when it can facilitate exits."
			},
			"HOOK_DEPLOYER()": {
				"notice": "The contract responsible for deploying the tiered 721 hook."
			},
			"PUBLISHER()": {
				"notice": "The croptop publisher that facilitates the permissioned publishing of 721 posts to a revnet."
			},
			"SUCKER_REGISTRY()": {
				"notice": "The registry that deploys and tracks each project's suckers."
			},
			"beforePayRecordedWith((address,address,(address,uint256,uint256,uint256),uint256,uint256,address,uint256,uint256,bytes))": {
				"notice": "This function gets called when the revnet receives a payment."
			},
			"beforeRedeemRecordedWith((address,address,uint256,uint256,uint256,uint256,(address,uint256,uint256,uint256),bool,uint256,bytes))": {
				"notice": "This function is never called, it needs to be included to adhere to the interface."
			},
			"buybackHookOf(uint256)": {
				"notice": "The data hook that returns the correct values for the buyback hook of each network."
			},
			"deploySuckersFor(uint256,bytes,((address,(address,uint32,address,uint256)[])[],bytes32))": {
				"notice": "Allows a revnet's split operator to deploy new suckers to the revnet after it's deployed."
			},
			"exitDelayOf(uint256)": {
				"notice": "The time at which exits from a revnet become allowed."
			},
			"hasMintPermissionFor(uint256,address)": {
				"notice": "Required by the IJBRulesetDataHook interfaces."
			},
			"launchCroptopRevnetFor(uint256,((string,string,string,bytes32),uint32,uint256,uint256,address,(uint40,uint16,uint112,uint40,uint32,uint16)[]),(address,address[])[],(address,(address,uint24,uint32,uint32)[]),((address,(address,uint32,address,uint256)[])[],bytes32),((string,string,address,string,address,string,((uint104,uint32,uint32,uint16,address,bytes32,uint24,bool,bool,bool,bool,bool)[],uint32,uint8,address),address,(bool,bool,bool,bool)),bool,bool,bool),(address,uint256,bytes)[],uint16,(uint256,uint256,uint256,uint256,address[])[])": {
				"notice": "Launch a revnet that supports 721 sales."
			},
			"launchPayHookRevnetFor(uint256,((string,string,string,bytes32),uint32,uint256,uint256,address,(uint40,uint16,uint112,uint40,uint32,uint16)[]),(address,address[])[],(address,(address,uint24,uint32,uint32)[]),((address,(address,uint32,address,uint256)[])[],bytes32),(address,uint256,bytes)[],uint16)": {
				"notice": "Launch a basic revnet that also calls other specified pay hooks."
			},
			"launchRevnetFor(uint256,((string,string,string,bytes32),uint32,uint256,uint256,address,(uint40,uint16,uint112,uint40,uint32,uint16)[]),(address,address[])[],(address,(address,uint24,uint32,uint32)[]),((address,(address,uint32,address,uint256)[])[],bytes32))": {
				"notice": "Launch a basic revnet."
			},
			"launchTiered721RevnetFor(uint256,((string,string,string,bytes32),uint32,uint256,uint256,address,(uint40,uint16,uint112,uint40,uint32,uint16)[]),(address,address[])[],(address,(address,uint24,uint32,uint32)[]),((address,(address,uint32,address,uint256)[])[],bytes32),((string,string,address,string,address,string,((uint104,uint32,uint32,uint16,address,bytes32,uint24,bool,bool,bool,bool,bool)[],uint32,uint8,address),address,(bool,bool,bool,bool)),bool,bool,bool),(address,uint256,bytes)[],uint16)": {
				"notice": "Launch a revnet that supports 721 sales."
			},
			"payHookSpecificationsOf(uint256)": {
				"notice": "The pay hooks to include during payments to networks."
			},
			"replaceSplitOperatorOf(uint256,address)": {
				"notice": "A revnet's operator can replace itself."
			},
			"supportsInterface(bytes4)": {
				"notice": "Indicates if this contract adheres to the specified interface."
			}
		},
		"version": 1
	},
	"gitCommit": "aff1f8e685d1824e79400923bc099f73bb7ec891",
	"sourceName": "src/REVCroptopDeployer.sol",
	"chainId": "11155420",
	"linkReferences": {},
	"deployedLinkReferences": {},
	"history": [
		{
			"_format": "sphinx-sol-ct-artifact-1",
			"merkleRoot": "0xd4471c8ae6e1babf0e4157b34143d8db15017448ffd6e7f1d172f37fd4d7b9bd",
			"contractName": "REVCroptopDeployer",
			"address": "0x1369CCe8B184Fe5C5d80c2f6938Ad9A838537Cbd",
			"abi": [
				{
					"type": "constructor",
					"inputs": [
						{
							"name": "controller",
							"type": "address",
							"internalType": "contract IJBController"
						},
						{
							"name": "hookDeployer",
							"type": "address",
							"internalType": "contract IJB721TiersHookDeployer"
						},
						{
							"name": "publisher",
							"type": "address",
							"internalType": "contract CTPublisher"
						},
						{
							"name": "suckerRegistry",
							"type": "address",
							"internalType": "contract IBPSuckerRegistry"
						}
					],
					"stateMutability": "nonpayable"
				},
				{
					"type": "function",
					"name": "CONTROLLER",
					"inputs": [],
					"outputs": [
						{
							"name": "",
							"type": "address",
							"internalType": "contract IJBController"
						}
					],
					"stateMutability": "view"
				},
				{
					"type": "function",
					"name": "EXIT_DELAY",
					"inputs": [],
					"outputs": [
						{
							"name": "",
							"type": "uint256",
							"internalType": "uint256"
						}
					],
					"stateMutability": "view"
				},
				{
					"type": "function",
					"name": "HOOK_DEPLOYER",
					"inputs": [],
					"outputs": [
						{
							"name": "",
							"type": "address",
							"internalType": "contract IJB721TiersHookDeployer"
						}
					],
					"stateMutability": "view"
				},
				{
					"type": "function",
					"name": "PUBLISHER",
					"inputs": [],
					"outputs": [
						{
							"name": "",
							"type": "address",
							"internalType": "contract CTPublisher"
						}
					],
					"stateMutability": "view"
				},
				{
					"type": "function",
					"name": "SUCKER_REGISTRY",
					"inputs": [],
					"outputs": [
						{
							"name": "",
							"type": "address",
							"internalType": "contract IBPSuckerRegistry"
						}
					],
					"stateMutability": "view"
				},
				{
					"type": "function",
					"name": "beforePayRecordedWith",
					"inputs": [
						{
							"name": "context",
							"type": "tuple",
							"internalType": "struct JBBeforePayRecordedContext",
							"components": [
								{
									"name": "terminal",
									"type": "address",
									"internalType": "address"
								},
								{
									"name": "payer",
									"type": "address",
									"internalType": "address"
								},
								{
									"name": "amount",
									"type": "tuple",
									"internalType": "struct JBTokenAmount",
									"components": [
										{
											"name": "token",
											"type": "address",
											"internalType": "address"
										},
										{
											"name": "value",
											"type": "uint256",
											"internalType": "uint256"
										},
										{
											"name": "decimals",
											"type": "uint256",
											"internalType": "uint256"
										},
										{
											"name": "currency",
											"type": "uint256",
											"internalType": "uint256"
										}
									]
								},
								{
									"name": "projectId",
									"type": "uint256",
									"internalType": "uint256"
								},
								{
									"name": "rulesetId",
									"type": "uint256",
									"internalType": "uint256"
								},
								{
									"name": "beneficiary",
									"type": "address",
									"internalType": "address"
								},
								{
									"name": "weight",
									"type": "uint256",
									"internalType": "uint256"
								},
								{
									"name": "reservedRate",
									"type": "uint256",
									"internalType": "uint256"
								},
								{
									"name": "metadata",
									"type": "bytes",
									"internalType": "bytes"
								}
							]
						}
					],
					"outputs": [
						{
							"name": "weight",
							"type": "uint256",
							"internalType": "uint256"
						},
						{
							"name": "hookSpecifications",
							"type": "tuple[]",
							"internalType": "struct JBPayHookSpecification[]",
							"components": [
								{
									"name": "hook",
									"type": "address",
									"internalType": "contract IJBPayHook"
								},
								{
									"name": "amount",
									"type": "uint256",
									"internalType": "uint256"
								},
								{
									"name": "metadata",
									"type": "bytes",
									"internalType": "bytes"
								}
							]
						}
					],
					"stateMutability": "view"
				},
				{
					"type": "function",
					"name": "beforeRedeemRecordedWith",
					"inputs": [
						{
							"name": "context",
							"type": "tuple",
							"internalType": "struct JBBeforeRedeemRecordedContext",
							"components": [
								{
									"name": "terminal",
									"type": "address",
									"internalType": "address"
								},
								{
									"name": "holder",
									"type": "address",
									"internalType": "address"
								},
								{
									"name": "projectId",
									"type": "uint256",
									"internalType": "uint256"
								},
								{
									"name": "rulesetId",
									"type": "uint256",
									"internalType": "uint256"
								},
								{
									"name": "redeemCount",
									"type": "uint256",
									"internalType": "uint256"
								},
								{
									"name": "totalSupply",
									"type": "uint256",
									"internalType": "uint256"
								},
								{
									"name": "surplus",
									"type": "tuple",
									"internalType": "struct JBTokenAmount",
									"components": [
										{
											"name": "token",
											"type": "address",
											"internalType": "address"
										},
										{
											"name": "value",
											"type": "uint256",
											"internalType": "uint256"
										},
										{
											"name": "decimals",
											"type": "uint256",
											"internalType": "uint256"
										},
										{
											"name": "currency",
											"type": "uint256",
											"internalType": "uint256"
										}
									]
								},
								{
									"name": "useTotalSurplus",
									"type": "bool",
									"internalType": "bool"
								},
								{
									"name": "redemptionRate",
									"type": "uint256",
									"internalType": "uint256"
								},
								{
									"name": "metadata",
									"type": "bytes",
									"internalType": "bytes"
								}
							]
						}
					],
					"outputs": [
						{
							"name": "",
							"type": "uint256",
							"internalType": "uint256"
						},
						{
							"name": "",
							"type": "uint256",
							"internalType": "uint256"
						},
						{
							"name": "",
							"type": "uint256",
							"internalType": "uint256"
						},
						{
							"name": "specifications",
							"type": "tuple[]",
							"internalType": "struct JBRedeemHookSpecification[]",
							"components": [
								{
									"name": "hook",
									"type": "address",
									"internalType": "contract IJBRedeemHook"
								},
								{
									"name": "amount",
									"type": "uint256",
									"internalType": "uint256"
								},
								{
									"name": "metadata",
									"type": "bytes",
									"internalType": "bytes"
								}
							]
						}
					],
					"stateMutability": "view"
				},
				{
					"type": "function",
					"name": "buybackHookOf",
					"inputs": [
						{
							"name": "revnetId",
							"type": "uint256",
							"internalType": "uint256"
						}
					],
					"outputs": [
						{
							"name": "buybackHook",
							"type": "address",
							"internalType": "contract IJBRulesetDataHook"
						}
					],
					"stateMutability": "view"
				},
				{
					"type": "function",
					"name": "deployCroptopRevnetWith",
					"inputs": [
						{
							"name": "configuration",
							"type": "tuple",
							"internalType": "struct REVConfig",
							"components": [
								{
									"name": "description",
									"type": "tuple",
									"internalType": "struct REVDescription",
									"components": [
										{
											"name": "name",
											"type": "string",
											"internalType": "string"
										},
										{
											"name": "symbol",
											"type": "string",
											"internalType": "string"
										},
										{
											"name": "uri",
											"type": "string",
											"internalType": "string"
										},
										{
											"name": "salt",
											"type": "bytes32",
											"internalType": "bytes32"
										}
									]
								},
								{
									"name": "baseCurrency",
									"type": "uint32",
									"internalType": "uint32"
								},
								{
									"name": "premintTokenAmount",
									"type": "uint256",
									"internalType": "uint256"
								},
								{
									"name": "initialOperator",
									"type": "address",
									"internalType": "address"
								},
								{
									"name": "stageConfigurations",
									"type": "tuple[]",
									"internalType": "struct REVStageConfig[]",
									"components": [
										{
											"name": "startsAtOrAfter",
											"type": "uint40",
											"internalType": "uint40"
										},
										{
											"name": "operatorSplitRate",
											"type": "uint16",
											"internalType": "uint16"
										},
										{
											"name": "initialIssuanceRate",
											"type": "uint112",
											"internalType": "uint112"
										},
										{
											"name": "priceCeilingIncreaseFrequency",
											"type": "uint40",
											"internalType": "uint40"
										},
										{
											"name": "priceCeilingIncreasePercentage",
											"type": "uint32",
											"internalType": "uint32"
										},
										{
											"name": "priceFloorTaxIntensity",
											"type": "uint16",
											"internalType": "uint16"
										}
									]
								}
							]
						},
						{
							"name": "terminalConfigurations",
							"type": "tuple[]",
							"internalType": "struct JBTerminalConfig[]",
							"components": [
								{
									"name": "terminal",
									"type": "address",
									"internalType": "contract IJBTerminal"
								},
								{
									"name": "tokensToAccept",
									"type": "address[]",
									"internalType": "address[]"
								}
							]
						},
						{
							"name": "buybackHookConfiguration",
							"type": "tuple",
							"internalType": "struct REVBuybackHookConfig",
							"components": [
								{
									"name": "hook",
									"type": "address",
									"internalType": "contract IJBBuybackHook"
								},
								{
									"name": "poolConfigurations",
									"type": "tuple[]",
									"internalType": "struct REVBuybackPoolConfig[]",
									"components": [
										{
											"name": "token",
											"type": "address",
											"internalType": "address"
										},
										{
											"name": "fee",
											"type": "uint24",
											"internalType": "uint24"
										},
										{
											"name": "twapWindow",
											"type": "uint32",
											"internalType": "uint32"
										},
										{
											"name": "twapSlippageTolerance",
											"type": "uint32",
											"internalType": "uint32"
										}
									]
								}
							]
						},
						{
							"name": "suckerDeploymentConfiguration",
							"type": "tuple",
							"internalType": "struct REVSuckerDeploymentConfig",
							"components": [
								{
									"name": "deployerConfigurations",
									"type": "tuple[]",
									"internalType": "struct BPSuckerDeployerConfig[]",
									"components": [
										{
											"name": "deployer",
											"type": "address",
											"internalType": "contract IBPSuckerDeployer"
										},
										{
											"name": "mappings",
											"type": "tuple[]",
											"internalType": "struct BPTokenMapping[]",
											"components": [
												{
													"name": "localToken",
													"type": "address",
													"internalType": "address"
												},
												{
													"name": "minGas",
													"type": "uint32",
													"internalType": "uint32"
												},
												{
													"name": "remoteToken",
													"type": "address",
													"internalType": "address"
												},
												{
													"name": "minBridgeAmount",
													"type": "uint256",
													"internalType": "uint256"
												}
											]
										}
									]
								},
								{
									"name": "salt",
									"type": "bytes32",
									"internalType": "bytes32"
								}
							]
						},
						{
							"name": "hookConfiguration",
							"type": "tuple",
							"internalType": "struct REVDeploy721TiersHookConfig",
							"components": [
								{
									"name": "baseline721HookConfiguration",
									"type": "tuple",
									"internalType": "struct JBDeploy721TiersHookConfig",
									"components": [
										{
											"name": "name",
											"type": "string",
											"internalType": "string"
										},
										{
											"name": "symbol",
											"type": "string",
											"internalType": "string"
										},
										{
											"name": "rulesets",
											"type": "address",
											"internalType": "contract IJBRulesets"
										},
										{
											"name": "baseUri",
											"type": "string",
											"internalType": "string"
										},
										{
											"name": "tokenUriResolver",
											"type": "address",
											"internalType": "contract IJB721TokenUriResolver"
										},
										{
											"name": "contractUri",
											"type": "string",
											"internalType": "string"
										},
										{
											"name": "tiersConfig",
											"type": "tuple",
											"internalType": "struct JB721InitTiersConfig",
											"components": [
												{
													"name": "tiers",
													"type": "tuple[]",
													"internalType": "struct JB721TierConfig[]",
													"components": [
														{
															"name": "price",
															"type": "uint104",
															"internalType": "uint104"
														},
														{
															"name": "initialSupply",
															"type": "uint32",
															"internalType": "uint32"
														},
														{
															"name": "votingUnits",
															"type": "uint32",
															"internalType": "uint32"
														},
														{
															"name": "reserveFrequency",
															"type": "uint16",
															"internalType": "uint16"
														},
														{
															"name": "reserveBeneficiary",
															"type": "address",
															"internalType": "address"
														},
														{
															"name": "encodedIPFSUri",
															"type": "bytes32",
															"internalType": "bytes32"
														},
														{
															"name": "category",
															"type": "uint24",
															"internalType": "uint24"
														},
														{
															"name": "allowOwnerMint",
															"type": "bool",
															"internalType": "bool"
														},
														{
															"name": "useReserveBeneficiaryAsDefault",
															"type": "bool",
															"internalType": "bool"
														},
														{
															"name": "transfersPausable",
															"type": "bool",
															"internalType": "bool"
														},
														{
															"name": "useVotingUnits",
															"type": "bool",
															"internalType": "bool"
														},
														{
															"name": "cannotBeRemoved",
															"type": "bool",
															"internalType": "bool"
														}
													]
												},
												{
													"name": "currency",
													"type": "uint32",
													"internalType": "uint32"
												},
												{
													"name": "decimals",
													"type": "uint8",
													"internalType": "uint8"
												},
												{
													"name": "prices",
													"type": "address",
													"internalType": "contract IJBPrices"
												}
											]
										},
										{
											"name": "reserveBeneficiary",
											"type": "address",
											"internalType": "address"
										},
										{
											"name": "flags",
											"type": "tuple",
											"internalType": "struct JB721TiersHookFlags",
											"components": [
												{
													"name": "noNewTiersWithReserves",
													"type": "bool",
													"internalType": "bool"
												},
												{
													"name": "noNewTiersWithVotes",
													"type": "bool",
													"internalType": "bool"
												},
												{
													"name": "noNewTiersWithOwnerMinting",
													"type": "bool",
													"internalType": "bool"
												},
												{
													"name": "preventOverspending",
													"type": "bool",
													"internalType": "bool"
												}
											]
										}
									]
								},
								{
									"name": "operatorCanAdjustTiers",
									"type": "bool",
									"internalType": "bool"
								},
								{
									"name": "operatorCanUpdateMetadata",
									"type": "bool",
									"internalType": "bool"
								},
								{
									"name": "operatorCanMint",
									"type": "bool",
									"internalType": "bool"
								}
							]
						},
						{
							"name": "otherPayHooksSpecifications",
							"type": "tuple[]",
							"internalType": "struct JBPayHookSpecification[]",
							"components": [
								{
									"name": "hook",
									"type": "address",
									"internalType": "contract IJBPayHook"
								},
								{
									"name": "amount",
									"type": "uint256",
									"internalType": "uint256"
								},
								{
									"name": "metadata",
									"type": "bytes",
									"internalType": "bytes"
								}
							]
						},
						{
							"name": "extraHookMetadata",
							"type": "uint16",
							"internalType": "uint16"
						},
						{
							"name": "allowedPosts",
							"type": "tuple[]",
							"internalType": "struct REVCroptopAllowedPost[]",
							"components": [
								{
									"name": "category",
									"type": "uint256",
									"internalType": "uint256"
								},
								{
									"name": "minimumPrice",
									"type": "uint256",
									"internalType": "uint256"
								},
								{
									"name": "minimumTotalSupply",
									"type": "uint256",
									"internalType": "uint256"
								},
								{
									"name": "maximumTotalSupply",
									"type": "uint256",
									"internalType": "uint256"
								},
								{
									"name": "allowedAddresses",
									"type": "address[]",
									"internalType": "address[]"
								}
							]
						}
					],
					"outputs": [
						{
							"name": "revnetId",
							"type": "uint256",
							"internalType": "uint256"
						},
						{
							"name": "hook",
							"type": "address",
							"internalType": "contract IJB721TiersHook"
						}
					],
					"stateMutability": "nonpayable"
				},
				{
					"type": "function",
					"name": "deployPayHookRevnetWith",
					"inputs": [
						{
							"name": "configuration",
							"type": "tuple",
							"internalType": "struct REVConfig",
							"components": [
								{
									"name": "description",
									"type": "tuple",
									"internalType": "struct REVDescription",
									"components": [
										{
											"name": "name",
											"type": "string",
											"internalType": "string"
										},
										{
											"name": "symbol",
											"type": "string",
											"internalType": "string"
										},
										{
											"name": "uri",
											"type": "string",
											"internalType": "string"
										},
										{
											"name": "salt",
											"type": "bytes32",
											"internalType": "bytes32"
										}
									]
								},
								{
									"name": "baseCurrency",
									"type": "uint32",
									"internalType": "uint32"
								},
								{
									"name": "premintTokenAmount",
									"type": "uint256",
									"internalType": "uint256"
								},
								{
									"name": "initialOperator",
									"type": "address",
									"internalType": "address"
								},
								{
									"name": "stageConfigurations",
									"type": "tuple[]",
									"internalType": "struct REVStageConfig[]",
									"components": [
										{
											"name": "startsAtOrAfter",
											"type": "uint40",
											"internalType": "uint40"
										},
										{
											"name": "operatorSplitRate",
											"type": "uint16",
											"internalType": "uint16"
										},
										{
											"name": "initialIssuanceRate",
											"type": "uint112",
											"internalType": "uint112"
										},
										{
											"name": "priceCeilingIncreaseFrequency",
											"type": "uint40",
											"internalType": "uint40"
										},
										{
											"name": "priceCeilingIncreasePercentage",
											"type": "uint32",
											"internalType": "uint32"
										},
										{
											"name": "priceFloorTaxIntensity",
											"type": "uint16",
											"internalType": "uint16"
										}
									]
								}
							]
						},
						{
							"name": "terminalConfigurations",
							"type": "tuple[]",
							"internalType": "struct JBTerminalConfig[]",
							"components": [
								{
									"name": "terminal",
									"type": "address",
									"internalType": "contract IJBTerminal"
								},
								{
									"name": "tokensToAccept",
									"type": "address[]",
									"internalType": "address[]"
								}
							]
						},
						{
							"name": "buybackHookConfiguration",
							"type": "tuple",
							"internalType": "struct REVBuybackHookConfig",
							"components": [
								{
									"name": "hook",
									"type": "address",
									"internalType": "contract IJBBuybackHook"
								},
								{
									"name": "poolConfigurations",
									"type": "tuple[]",
									"internalType": "struct REVBuybackPoolConfig[]",
									"components": [
										{
											"name": "token",
											"type": "address",
											"internalType": "address"
										},
										{
											"name": "fee",
											"type": "uint24",
											"internalType": "uint24"
										},
										{
											"name": "twapWindow",
											"type": "uint32",
											"internalType": "uint32"
										},
										{
											"name": "twapSlippageTolerance",
											"type": "uint32",
											"internalType": "uint32"
										}
									]
								}
							]
						},
						{
							"name": "suckerDeploymentConfiguration",
							"type": "tuple",
							"internalType": "struct REVSuckerDeploymentConfig",
							"components": [
								{
									"name": "deployerConfigurations",
									"type": "tuple[]",
									"internalType": "struct BPSuckerDeployerConfig[]",
									"components": [
										{
											"name": "deployer",
											"type": "address",
											"internalType": "contract IBPSuckerDeployer"
										},
										{
											"name": "mappings",
											"type": "tuple[]",
											"internalType": "struct BPTokenMapping[]",
											"components": [
												{
													"name": "localToken",
													"type": "address",
													"internalType": "address"
												},
												{
													"name": "minGas",
													"type": "uint32",
													"internalType": "uint32"
												},
												{
													"name": "remoteToken",
													"type": "address",
													"internalType": "address"
												},
												{
													"name": "minBridgeAmount",
													"type": "uint256",
													"internalType": "uint256"
												}
											]
										}
									]
								},
								{
									"name": "salt",
									"type": "bytes32",
									"internalType": "bytes32"
								}
							]
						},
						{
							"name": "payHookSpecifications",
							"type": "tuple[]",
							"internalType": "struct JBPayHookSpecification[]",
							"components": [
								{
									"name": "hook",
									"type": "address",
									"internalType": "contract IJBPayHook"
								},
								{
									"name": "amount",
									"type": "uint256",
									"internalType": "uint256"
								},
								{
									"name": "metadata",
									"type": "bytes",
									"internalType": "bytes"
								}
							]
						},
						{
							"name": "extraHookMetadata",
							"type": "uint16",
							"internalType": "uint16"
						}
					],
					"outputs": [
						{
							"name": "revnetId",
							"type": "uint256",
							"internalType": "uint256"
						}
					],
					"stateMutability": "nonpayable"
				},
				{
					"type": "function",
					"name": "deployRevnetWith",
					"inputs": [
						{
							"name": "configuration",
							"type": "tuple",
							"internalType": "struct REVConfig",
							"components": [
								{
									"name": "description",
									"type": "tuple",
									"internalType": "struct REVDescription",
									"components": [
										{
											"name": "name",
											"type": "string",
											"internalType": "string"
										},
										{
											"name": "symbol",
											"type": "string",
											"internalType": "string"
										},
										{
											"name": "uri",
											"type": "string",
											"internalType": "string"
										},
										{
											"name": "salt",
											"type": "bytes32",
											"internalType": "bytes32"
										}
									]
								},
								{
									"name": "baseCurrency",
									"type": "uint32",
									"internalType": "uint32"
								},
								{
									"name": "premintTokenAmount",
									"type": "uint256",
									"internalType": "uint256"
								},
								{
									"name": "initialOperator",
									"type": "address",
									"internalType": "address"
								},
								{
									"name": "stageConfigurations",
									"type": "tuple[]",
									"internalType": "struct REVStageConfig[]",
									"components": [
										{
											"name": "startsAtOrAfter",
											"type": "uint40",
											"internalType": "uint40"
										},
										{
											"name": "operatorSplitRate",
											"type": "uint16",
											"internalType": "uint16"
										},
										{
											"name": "initialIssuanceRate",
											"type": "uint112",
											"internalType": "uint112"
										},
										{
											"name": "priceCeilingIncreaseFrequency",
											"type": "uint40",
											"internalType": "uint40"
										},
										{
											"name": "priceCeilingIncreasePercentage",
											"type": "uint32",
											"internalType": "uint32"
										},
										{
											"name": "priceFloorTaxIntensity",
											"type": "uint16",
											"internalType": "uint16"
										}
									]
								}
							]
						},
						{
							"name": "terminalConfigurations",
							"type": "tuple[]",
							"internalType": "struct JBTerminalConfig[]",
							"components": [
								{
									"name": "terminal",
									"type": "address",
									"internalType": "contract IJBTerminal"
								},
								{
									"name": "tokensToAccept",
									"type": "address[]",
									"internalType": "address[]"
								}
							]
						},
						{
							"name": "buybackHookConfiguration",
							"type": "tuple",
							"internalType": "struct REVBuybackHookConfig",
							"components": [
								{
									"name": "hook",
									"type": "address",
									"internalType": "contract IJBBuybackHook"
								},
								{
									"name": "poolConfigurations",
									"type": "tuple[]",
									"internalType": "struct REVBuybackPoolConfig[]",
									"components": [
										{
											"name": "token",
											"type": "address",
											"internalType": "address"
										},
										{
											"name": "fee",
											"type": "uint24",
											"internalType": "uint24"
										},
										{
											"name": "twapWindow",
											"type": "uint32",
											"internalType": "uint32"
										},
										{
											"name": "twapSlippageTolerance",
											"type": "uint32",
											"internalType": "uint32"
										}
									]
								}
							]
						},
						{
							"name": "suckerDeploymentConfiguration",
							"type": "tuple",
							"internalType": "struct REVSuckerDeploymentConfig",
							"components": [
								{
									"name": "deployerConfigurations",
									"type": "tuple[]",
									"internalType": "struct BPSuckerDeployerConfig[]",
									"components": [
										{
											"name": "deployer",
											"type": "address",
											"internalType": "contract IBPSuckerDeployer"
										},
										{
											"name": "mappings",
											"type": "tuple[]",
											"internalType": "struct BPTokenMapping[]",
											"components": [
												{
													"name": "localToken",
													"type": "address",
													"internalType": "address"
												},
												{
													"name": "minGas",
													"type": "uint32",
													"internalType": "uint32"
												},
												{
													"name": "remoteToken",
													"type": "address",
													"internalType": "address"
												},
												{
													"name": "minBridgeAmount",
													"type": "uint256",
													"internalType": "uint256"
												}
											]
										}
									]
								},
								{
									"name": "salt",
									"type": "bytes32",
									"internalType": "bytes32"
								}
							]
						}
					],
					"outputs": [
						{
							"name": "revnetId",
							"type": "uint256",
							"internalType": "uint256"
						}
					],
					"stateMutability": "nonpayable"
				},
				{
					"type": "function",
					"name": "deploySuckersFor",
					"inputs": [
						{
							"name": "revnetId",
							"type": "uint256",
							"internalType": "uint256"
						},
						{
							"name": "encodedConfiguration",
							"type": "bytes",
							"internalType": "bytes"
						},
						{
							"name": "suckerDeploymentConfiguration",
							"type": "tuple",
							"internalType": "struct REVSuckerDeploymentConfig",
							"components": [
								{
									"name": "deployerConfigurations",
									"type": "tuple[]",
									"internalType": "struct BPSuckerDeployerConfig[]",
									"components": [
										{
											"name": "deployer",
											"type": "address",
											"internalType": "contract IBPSuckerDeployer"
										},
										{
											"name": "mappings",
											"type": "tuple[]",
											"internalType": "struct BPTokenMapping[]",
											"components": [
												{
													"name": "localToken",
													"type": "address",
													"internalType": "address"
												},
												{
													"name": "minGas",
													"type": "uint32",
													"internalType": "uint32"
												},
												{
													"name": "remoteToken",
													"type": "address",
													"internalType": "address"
												},
												{
													"name": "minBridgeAmount",
													"type": "uint256",
													"internalType": "uint256"
												}
											]
										}
									]
								},
								{
									"name": "salt",
									"type": "bytes32",
									"internalType": "bytes32"
								}
							]
						}
					],
					"outputs": [],
					"stateMutability": "nonpayable"
				},
				{
					"type": "function",
					"name": "deployTiered721RevnetWith",
					"inputs": [
						{
							"name": "configuration",
							"type": "tuple",
							"internalType": "struct REVConfig",
							"components": [
								{
									"name": "description",
									"type": "tuple",
									"internalType": "struct REVDescription",
									"components": [
										{
											"name": "name",
											"type": "string",
											"internalType": "string"
										},
										{
											"name": "symbol",
											"type": "string",
											"internalType": "string"
										},
										{
											"name": "uri",
											"type": "string",
											"internalType": "string"
										},
										{
											"name": "salt",
											"type": "bytes32",
											"internalType": "bytes32"
										}
									]
								},
								{
									"name": "baseCurrency",
									"type": "uint32",
									"internalType": "uint32"
								},
								{
									"name": "premintTokenAmount",
									"type": "uint256",
									"internalType": "uint256"
								},
								{
									"name": "initialOperator",
									"type": "address",
									"internalType": "address"
								},
								{
									"name": "stageConfigurations",
									"type": "tuple[]",
									"internalType": "struct REVStageConfig[]",
									"components": [
										{
											"name": "startsAtOrAfter",
											"type": "uint40",
											"internalType": "uint40"
										},
										{
											"name": "operatorSplitRate",
											"type": "uint16",
											"internalType": "uint16"
										},
										{
											"name": "initialIssuanceRate",
											"type": "uint112",
											"internalType": "uint112"
										},
										{
											"name": "priceCeilingIncreaseFrequency",
											"type": "uint40",
											"internalType": "uint40"
										},
										{
											"name": "priceCeilingIncreasePercentage",
											"type": "uint32",
											"internalType": "uint32"
										},
										{
											"name": "priceFloorTaxIntensity",
											"type": "uint16",
											"internalType": "uint16"
										}
									]
								}
							]
						},
						{
							"name": "terminalConfigurations",
							"type": "tuple[]",
							"internalType": "struct JBTerminalConfig[]",
							"components": [
								{
									"name": "terminal",
									"type": "address",
									"internalType": "contract IJBTerminal"
								},
								{
									"name": "tokensToAccept",
									"type": "address[]",
									"internalType": "address[]"
								}
							]
						},
						{
							"name": "buybackHookConfiguration",
							"type": "tuple",
							"internalType": "struct REVBuybackHookConfig",
							"components": [
								{
									"name": "hook",
									"type": "address",
									"internalType": "contract IJBBuybackHook"
								},
								{
									"name": "poolConfigurations",
									"type": "tuple[]",
									"internalType": "struct REVBuybackPoolConfig[]",
									"components": [
										{
											"name": "token",
											"type": "address",
											"internalType": "address"
										},
										{
											"name": "fee",
											"type": "uint24",
											"internalType": "uint24"
										},
										{
											"name": "twapWindow",
											"type": "uint32",
											"internalType": "uint32"
										},
										{
											"name": "twapSlippageTolerance",
											"type": "uint32",
											"internalType": "uint32"
										}
									]
								}
							]
						},
						{
							"name": "suckerDeploymentConfiguration",
							"type": "tuple",
							"internalType": "struct REVSuckerDeploymentConfig",
							"components": [
								{
									"name": "deployerConfigurations",
									"type": "tuple[]",
									"internalType": "struct BPSuckerDeployerConfig[]",
									"components": [
										{
											"name": "deployer",
											"type": "address",
											"internalType": "contract IBPSuckerDeployer"
										},
										{
											"name": "mappings",
											"type": "tuple[]",
											"internalType": "struct BPTokenMapping[]",
											"components": [
												{
													"name": "localToken",
													"type": "address",
													"internalType": "address"
												},
												{
													"name": "minGas",
													"type": "uint32",
													"internalType": "uint32"
												},
												{
													"name": "remoteToken",
													"type": "address",
													"internalType": "address"
												},
												{
													"name": "minBridgeAmount",
													"type": "uint256",
													"internalType": "uint256"
												}
											]
										}
									]
								},
								{
									"name": "salt",
									"type": "bytes32",
									"internalType": "bytes32"
								}
							]
						},
						{
							"name": "hookConfiguration",
							"type": "tuple",
							"internalType": "struct REVDeploy721TiersHookConfig",
							"components": [
								{
									"name": "baseline721HookConfiguration",
									"type": "tuple",
									"internalType": "struct JBDeploy721TiersHookConfig",
									"components": [
										{
											"name": "name",
											"type": "string",
											"internalType": "string"
										},
										{
											"name": "symbol",
											"type": "string",
											"internalType": "string"
										},
										{
											"name": "rulesets",
											"type": "address",
											"internalType": "contract IJBRulesets"
										},
										{
											"name": "baseUri",
											"type": "string",
											"internalType": "string"
										},
										{
											"name": "tokenUriResolver",
											"type": "address",
											"internalType": "contract IJB721TokenUriResolver"
										},
										{
											"name": "contractUri",
											"type": "string",
											"internalType": "string"
										},
										{
											"name": "tiersConfig",
											"type": "tuple",
											"internalType": "struct JB721InitTiersConfig",
											"components": [
												{
													"name": "tiers",
													"type": "tuple[]",
													"internalType": "struct JB721TierConfig[]",
													"components": [
														{
															"name": "price",
															"type": "uint104",
															"internalType": "uint104"
														},
														{
															"name": "initialSupply",
															"type": "uint32",
															"internalType": "uint32"
														},
														{
															"name": "votingUnits",
															"type": "uint32",
															"internalType": "uint32"
														},
														{
															"name": "reserveFrequency",
															"type": "uint16",
															"internalType": "uint16"
														},
														{
															"name": "reserveBeneficiary",
															"type": "address",
															"internalType": "address"
														},
														{
															"name": "encodedIPFSUri",
															"type": "bytes32",
															"internalType": "bytes32"
														},
														{
															"name": "category",
															"type": "uint24",
															"internalType": "uint24"
														},
														{
															"name": "allowOwnerMint",
															"type": "bool",
															"internalType": "bool"
														},
														{
															"name": "useReserveBeneficiaryAsDefault",
															"type": "bool",
															"internalType": "bool"
														},
														{
															"name": "transfersPausable",
															"type": "bool",
															"internalType": "bool"
														},
														{
															"name": "useVotingUnits",
															"type": "bool",
															"internalType": "bool"
														},
														{
															"name": "cannotBeRemoved",
															"type": "bool",
															"internalType": "bool"
														}
													]
												},
												{
													"name": "currency",
													"type": "uint32",
													"internalType": "uint32"
												},
												{
													"name": "decimals",
													"type": "uint8",
													"internalType": "uint8"
												},
												{
													"name": "prices",
													"type": "address",
													"internalType": "contract IJBPrices"
												}
											]
										},
										{
											"name": "reserveBeneficiary",
											"type": "address",
											"internalType": "address"
										},
										{
											"name": "flags",
											"type": "tuple",
											"internalType": "struct JB721TiersHookFlags",
											"components": [
												{
													"name": "noNewTiersWithReserves",
													"type": "bool",
													"internalType": "bool"
												},
												{
													"name": "noNewTiersWithVotes",
													"type": "bool",
													"internalType": "bool"
												},
												{
													"name": "noNewTiersWithOwnerMinting",
													"type": "bool",
													"internalType": "bool"
												},
												{
													"name": "preventOverspending",
													"type": "bool",
													"internalType": "bool"
												}
											]
										}
									]
								},
								{
									"name": "operatorCanAdjustTiers",
									"type": "bool",
									"internalType": "bool"
								},
								{
									"name": "operatorCanUpdateMetadata",
									"type": "bool",
									"internalType": "bool"
								},
								{
									"name": "operatorCanMint",
									"type": "bool",
									"internalType": "bool"
								}
							]
						},
						{
							"name": "otherPayHooksSpecifications",
							"type": "tuple[]",
							"internalType": "struct JBPayHookSpecification[]",
							"components": [
								{
									"name": "hook",
									"type": "address",
									"internalType": "contract IJBPayHook"
								},
								{
									"name": "amount",
									"type": "uint256",
									"internalType": "uint256"
								},
								{
									"name": "metadata",
									"type": "bytes",
									"internalType": "bytes"
								}
							]
						},
						{
							"name": "extraHookMetadata",
							"type": "uint16",
							"internalType": "uint16"
						}
					],
					"outputs": [
						{
							"name": "revnetId",
							"type": "uint256",
							"internalType": "uint256"
						},
						{
							"name": "hook",
							"type": "address",
							"internalType": "contract IJB721TiersHook"
						}
					],
					"stateMutability": "nonpayable"
				},
				{
					"type": "function",
					"name": "exitDelayOf",
					"inputs": [
						{
							"name": "revnetId",
							"type": "uint256",
							"internalType": "uint256"
						}
					],
					"outputs": [
						{
							"name": "exitDelay",
							"type": "uint256",
							"internalType": "uint256"
						}
					],
					"stateMutability": "view"
				},
				{
					"type": "function",
					"name": "hasMintPermissionFor",
					"inputs": [
						{
							"name": "revnetId",
							"type": "uint256",
							"internalType": "uint256"
						},
						{
							"name": "addr",
							"type": "address",
							"internalType": "address"
						}
					],
					"outputs": [
						{
							"name": "",
							"type": "bool",
							"internalType": "bool"
						}
					],
					"stateMutability": "view"
				},
				{
					"type": "function",
					"name": "onERC721Received",
					"inputs": [
						{
							"name": "operator",
							"type": "address",
							"internalType": "address"
						},
						{
							"name": "from",
							"type": "address",
							"internalType": "address"
						},
						{
							"name": "tokenId",
							"type": "uint256",
							"internalType": "uint256"
						},
						{
							"name": "data",
							"type": "bytes",
							"internalType": "bytes"
						}
					],
					"outputs": [
						{
							"name": "",
							"type": "bytes4",
							"internalType": "bytes4"
						}
					],
					"stateMutability": "view"
				},
				{
					"type": "function",
					"name": "payHookSpecificationsOf",
					"inputs": [
						{
							"name": "revnetId",
							"type": "uint256",
							"internalType": "uint256"
						}
					],
					"outputs": [
						{
							"name": "",
							"type": "tuple[]",
							"internalType": "struct JBPayHookSpecification[]",
							"components": [
								{
									"name": "hook",
									"type": "address",
									"internalType": "contract IJBPayHook"
								},
								{
									"name": "amount",
									"type": "uint256",
									"internalType": "uint256"
								},
								{
									"name": "metadata",
									"type": "bytes",
									"internalType": "bytes"
								}
							]
						}
					],
					"stateMutability": "view"
				},
				{
					"type": "function",
					"name": "replaceOperatorOf",
					"inputs": [
						{
							"name": "revnetId",
							"type": "uint256",
							"internalType": "uint256"
						},
						{
							"name": "newOperator",
							"type": "address",
							"internalType": "address"
						}
					],
					"outputs": [],
					"stateMutability": "nonpayable"
				},
				{
					"type": "function",
					"name": "supportsInterface",
					"inputs": [
						{
							"name": "interfaceId",
							"type": "bytes4",
							"internalType": "bytes4"
						}
					],
					"outputs": [
						{
							"name": "",
							"type": "bool",
							"internalType": "bool"
						}
					],
					"stateMutability": "view"
				},
				{
					"type": "error",
					"name": "REVBasicDeployer_ExitDelayInEffect",
					"inputs": []
				},
				{
					"type": "error",
					"name": "REVBasicDeployer_Unauthorized",
					"inputs": []
				}
			],
			"solcInputHash": "755eaa4b05c760d07dfe902eb8cdf8f4",
			"receipt": {
				"blockHash": "0x00e15354ffc22016ab692f1b8bec5b4fa5731ea638d1eba8a07216bd5ca1b1da",
				"blockNumber": 9238444,
				"contractAddress": null,
				"cumulativeGasUsed": "10041124",
				"from": "0xC034550B542b83BA1De312b21d1C94a9a52B1595",
				"gasPrice": "1000252",
				"gasUsed": "9447439",
				"hash": "0x6fb2e822de5a1d6fc2a26db63f9f761026022d5f3543548d3624aa73a8245f49",
				"index": 6,
				"logs": [
					{
						"address": "0xB5E96127D417b1B3ef8438496a38A143167209c7",
						"blockHash": "0x00e15354ffc22016ab692f1b8bec5b4fa5731ea638d1eba8a07216bd5ca1b1da",
						"blockNumber": 9238444,
						"data": "0x0000000000000000000000000000000000000000000000000000000000000000",
						"index": 13,
						"topics": [
							"0x572f161235911da04685a68c06adf558fc7e4a36909dca394650e0adc19cc93d",
							"0x000000000000000000000000c034550b542b83ba1de312b21d1c94a9a52b1595",
							"0x00000000000000000000000018ed911dda49f125bbadd71f826f1cda550f20fe",
							"0x904ea3d47228fac9c724598ab79f02cd9d3db80bc493ea84756ab1f0b2c4af9a"
						],
						"transactionHash": "0x6fb2e822de5a1d6fc2a26db63f9f761026022d5f3543548d3624aa73a8245f49",
						"transactionIndex": 6
					},
					{
						"address": "0x15B51C7D9DBc4681e54f8b493187C9a2377bd81B",
						"blockHash": "0x00e15354ffc22016ab692f1b8bec5b4fa5731ea638d1eba8a07216bd5ca1b1da",
						"blockNumber": 9238444,
						"data": "0x",
						"index": 14,
						"topics": [
							"0x6895c13664aa4f67288b25d7a21d7aaa34916e355fb9b6fae0a139a9085becb8",
							"0x00000000000000000000000018ed911dda49f125bbadd71f826f1cda550f20fe"
						],
						"transactionHash": "0x6fb2e822de5a1d6fc2a26db63f9f761026022d5f3543548d3624aa73a8245f49",
						"transactionIndex": 6
					},
					{
						"address": "0x18Ed911ddA49f125bbadd71f826F1cDa550f20fE",
						"blockHash": "0x00e15354ffc22016ab692f1b8bec5b4fa5731ea638d1eba8a07216bd5ca1b1da",
						"blockNumber": 9238444,
						"data": "0x0000000000000000000000000000000000000000000000000000000000000001",
						"index": 15,
						"topics": [
							"0xa65fb05c5808f5f389d72edeaf719ce38f4cc55c1f69ca3cbfb31c21501caa07",
							"0xd4471c8ae6e1babf0e4157b34143d8db15017448ffd6e7f1d172f37fd4d7b9bd"
						],
						"transactionHash": "0x6fb2e822de5a1d6fc2a26db63f9f761026022d5f3543548d3624aa73a8245f49",
						"transactionIndex": 6
					},
					{
						"address": "0x15B51C7D9DBc4681e54f8b493187C9a2377bd81B",
						"blockHash": "0x00e15354ffc22016ab692f1b8bec5b4fa5731ea638d1eba8a07216bd5ca1b1da",
						"blockNumber": 9238444,
						"data": "0x",
						"index": 16,
						"topics": [
							"0x6895c13664aa4f67288b25d7a21d7aaa34916e355fb9b6fae0a139a9085becb8",
							"0x00000000000000000000000018ed911dda49f125bbadd71f826f1cda550f20fe"
						],
						"transactionHash": "0x6fb2e822de5a1d6fc2a26db63f9f761026022d5f3543548d3624aa73a8245f49",
						"transactionIndex": 6
					},
					{
						"address": "0x18Ed911ddA49f125bbadd71f826F1cDa550f20fE",
						"blockHash": "0x00e15354ffc22016ab692f1b8bec5b4fa5731ea638d1eba8a07216bd5ca1b1da",
						"blockNumber": 9238444,
						"data": "0x0000000000000000000000000000000000000000000000000000000000000002",
						"index": 17,
						"topics": [
							"0xa65fb05c5808f5f389d72edeaf719ce38f4cc55c1f69ca3cbfb31c21501caa07",
							"0xd4471c8ae6e1babf0e4157b34143d8db15017448ffd6e7f1d172f37fd4d7b9bd"
						],
						"transactionHash": "0x6fb2e822de5a1d6fc2a26db63f9f761026022d5f3543548d3624aa73a8245f49",
						"transactionIndex": 6
					},
					{
						"address": "0x18Ed911ddA49f125bbadd71f826F1cDa550f20fE",
						"blockHash": "0x00e15354ffc22016ab692f1b8bec5b4fa5731ea638d1eba8a07216bd5ca1b1da",
						"blockNumber": 9238444,
						"data": "0x",
						"index": 18,
						"topics": [
							"0x4383d976757d67ca920616be0b6430a681ea9d3dcce8d6d61d4603ca4a9bff63",
							"0xd4471c8ae6e1babf0e4157b34143d8db15017448ffd6e7f1d172f37fd4d7b9bd"
						],
						"transactionHash": "0x6fb2e822de5a1d6fc2a26db63f9f761026022d5f3543548d3624aa73a8245f49",
						"transactionIndex": 6
					}
				],
				"logsBloom": "0x00000000080010001000000000080000000000000008800000000000004000000000000000000000000000001040000000000004000004000000000000000008100000000000200000000000000000000000000000000000000000000000000000000000000000000400000000000000000000000000000800000000000000000000000000000000000100000000000000000000000000000000008000000000004000800010000000000000000001020200000000000000000000000044000000100000000000000000000008000000000000000000000000000000000000010000000000000008004000000000000200000000000000000000000008000000",
				"status": 1,
				"to": "0xB5E96127D417b1B3ef8438496a38A143167209c7"
			},
			"metadata": "{\"compiler\":{\"version\":\"0.8.23+commit.f704f362\"},\"language\":\"Solidity\",\"output\":{\"abi\":[{\"inputs\":[{\"internalType\":\"contract IJBController\",\"name\":\"controller\",\"type\":\"address\"},{\"internalType\":\"contract IJB721TiersHookDeployer\",\"name\":\"hookDeployer\",\"type\":\"address\"},{\"internalType\":\"contract CTPublisher\",\"name\":\"publisher\",\"type\":\"address\"},{\"internalType\":\"contract IBPSuckerRegistry\",\"name\":\"suckerRegistry\",\"type\":\"address\"}],\"stateMutability\":\"nonpayable\",\"type\":\"constructor\"},{\"inputs\":[],\"type\":\"error\",\"name\":\"REVBasicDeployer_ExitDelayInEffect\"},{\"inputs\":[],\"type\":\"error\",\"name\":\"REVBasicDeployer_Unauthorized\"},{\"inputs\":[],\"stateMutability\":\"view\",\"type\":\"function\",\"name\":\"CONTROLLER\",\"outputs\":[{\"internalType\":\"contract IJBController\",\"name\":\"\",\"type\":\"address\"}]},{\"inputs\":[],\"stateMutability\":\"view\",\"type\":\"function\",\"name\":\"EXIT_DELAY\",\"outputs\":[{\"internalType\":\"uint256\",\"name\":\"\",\"type\":\"uint256\"}]},{\"inputs\":[],\"stateMutability\":\"view\",\"type\":\"function\",\"name\":\"HOOK_DEPLOYER\",\"outputs\":[{\"internalType\":\"contract IJB721TiersHookDeployer\",\"name\":\"\",\"type\":\"address\"}]},{\"inputs\":[],\"stateMutability\":\"view\",\"type\":\"function\",\"name\":\"PUBLISHER\",\"outputs\":[{\"internalType\":\"contract CTPublisher\",\"name\":\"\",\"type\":\"address\"}]},{\"inputs\":[],\"stateMutability\":\"view\",\"type\":\"function\",\"name\":\"SUCKER_REGISTRY\",\"outputs\":[{\"internalType\":\"contract IBPSuckerRegistry\",\"name\":\"\",\"type\":\"address\"}]},{\"inputs\":[{\"internalType\":\"struct JBBeforePayRecordedContext\",\"name\":\"context\",\"type\":\"tuple\",\"components\":[{\"internalType\":\"address\",\"name\":\"terminal\",\"type\":\"address\"},{\"internalType\":\"address\",\"name\":\"payer\",\"type\":\"address\"},{\"internalType\":\"struct JBTokenAmount\",\"name\":\"amount\",\"type\":\"tuple\",\"components\":[{\"internalType\":\"address\",\"name\":\"token\",\"type\":\"address\"},{\"internalType\":\"uint256\",\"name\":\"value\",\"type\":\"uint256\"},{\"internalType\":\"uint256\",\"name\":\"decimals\",\"type\":\"uint256\"},{\"internalType\":\"uint256\",\"name\":\"currency\",\"type\":\"uint256\"}]},{\"internalType\":\"uint256\",\"name\":\"projectId\",\"type\":\"uint256\"},{\"internalType\":\"uint256\",\"name\":\"rulesetId\",\"type\":\"uint256\"},{\"internalType\":\"address\",\"name\":\"beneficiary\",\"type\":\"address\"},{\"internalType\":\"uint256\",\"name\":\"weight\",\"type\":\"uint256\"},{\"internalType\":\"uint256\",\"name\":\"reservedRate\",\"type\":\"uint256\"},{\"internalType\":\"bytes\",\"name\":\"metadata\",\"type\":\"bytes\"}]}],\"stateMutability\":\"view\",\"type\":\"function\",\"name\":\"beforePayRecordedWith\",\"outputs\":[{\"internalType\":\"uint256\",\"name\":\"weight\",\"type\":\"uint256\"},{\"internalType\":\"struct JBPayHookSpecification[]\",\"name\":\"hookSpecifications\",\"type\":\"tuple[]\",\"components\":[{\"internalType\":\"contract IJBPayHook\",\"name\":\"hook\",\"type\":\"address\"},{\"internalType\":\"uint256\",\"name\":\"amount\",\"type\":\"uint256\"},{\"internalType\":\"bytes\",\"name\":\"metadata\",\"type\":\"bytes\"}]}]},{\"inputs\":[{\"internalType\":\"struct JBBeforeRedeemRecordedContext\",\"name\":\"context\",\"type\":\"tuple\",\"components\":[{\"internalType\":\"address\",\"name\":\"terminal\",\"type\":\"address\"},{\"internalType\":\"address\",\"name\":\"holder\",\"type\":\"address\"},{\"internalType\":\"uint256\",\"name\":\"projectId\",\"type\":\"uint256\"},{\"internalType\":\"uint256\",\"name\":\"rulesetId\",\"type\":\"uint256\"},{\"internalType\":\"uint256\",\"name\":\"redeemCount\",\"type\":\"uint256\"},{\"internalType\":\"uint256\",\"name\":\"totalSupply\",\"type\":\"uint256\"},{\"internalType\":\"struct JBTokenAmount\",\"name\":\"surplus\",\"type\":\"tuple\",\"components\":[{\"internalType\":\"address\",\"name\":\"token\",\"type\":\"address\"},{\"internalType\":\"uint256\",\"name\":\"value\",\"type\":\"uint256\"},{\"internalType\":\"uint256\",\"name\":\"decimals\",\"type\":\"uint256\"},{\"internalType\":\"uint256\",\"name\":\"currency\",\"type\":\"uint256\"}]},{\"internalType\":\"bool\",\"name\":\"useTotalSurplus\",\"type\":\"bool\"},{\"internalType\":\"uint256\",\"name\":\"redemptionRate\",\"type\":\"uint256\"},{\"internalType\":\"bytes\",\"name\":\"metadata\",\"type\":\"bytes\"}]}],\"stateMutability\":\"view\",\"type\":\"function\",\"name\":\"beforeRedeemRecordedWith\",\"outputs\":[{\"internalType\":\"uint256\",\"name\":\"\",\"type\":\"uint256\"},{\"internalType\":\"uint256\",\"name\":\"\",\"type\":\"uint256\"},{\"internalType\":\"uint256\",\"name\":\"\",\"type\":\"uint256\"},{\"internalType\":\"struct JBRedeemHookSpecification[]\",\"name\":\"specifications\",\"type\":\"tuple[]\",\"components\":[{\"internalType\":\"contract IJBRedeemHook\",\"name\":\"hook\",\"type\":\"address\"},{\"internalType\":\"uint256\",\"name\":\"amount\",\"type\":\"uint256\"},{\"internalType\":\"bytes\",\"name\":\"metadata\",\"type\":\"bytes\"}]}]},{\"inputs\":[{\"internalType\":\"uint256\",\"name\":\"revnetId\",\"type\":\"uint256\"}],\"stateMutability\":\"view\",\"type\":\"function\",\"name\":\"buybackHookOf\",\"outputs\":[{\"internalType\":\"contract IJBRulesetDataHook\",\"name\":\"buybackHook\",\"type\":\"address\"}]},{\"inputs\":[{\"internalType\":\"struct REVConfig\",\"name\":\"configuration\",\"type\":\"tuple\",\"components\":[{\"internalType\":\"struct REVDescription\",\"name\":\"description\",\"type\":\"tuple\",\"components\":[{\"internalType\":\"string\",\"name\":\"name\",\"type\":\"string\"},{\"internalType\":\"string\",\"name\":\"symbol\",\"type\":\"string\"},{\"internalType\":\"string\",\"name\":\"uri\",\"type\":\"string\"},{\"internalType\":\"bytes32\",\"name\":\"salt\",\"type\":\"bytes32\"}]},{\"internalType\":\"uint32\",\"name\":\"baseCurrency\",\"type\":\"uint32\"},{\"internalType\":\"uint256\",\"name\":\"premintTokenAmount\",\"type\":\"uint256\"},{\"internalType\":\"address\",\"name\":\"initialOperator\",\"type\":\"address\"},{\"internalType\":\"struct REVStageConfig[]\",\"name\":\"stageConfigurations\",\"type\":\"tuple[]\",\"components\":[{\"internalType\":\"uint40\",\"name\":\"startsAtOrAfter\",\"type\":\"uint40\"},{\"internalType\":\"uint16\",\"name\":\"operatorSplitRate\",\"type\":\"uint16\"},{\"internalType\":\"uint112\",\"name\":\"initialIssuanceRate\",\"type\":\"uint112\"},{\"internalType\":\"uint40\",\"name\":\"priceCeilingIncreaseFrequency\",\"type\":\"uint40\"},{\"internalType\":\"uint32\",\"name\":\"priceCeilingIncreasePercentage\",\"type\":\"uint32\"},{\"internalType\":\"uint16\",\"name\":\"priceFloorTaxIntensity\",\"type\":\"uint16\"}]}]},{\"internalType\":\"struct JBTerminalConfig[]\",\"name\":\"terminalConfigurations\",\"type\":\"tuple[]\",\"components\":[{\"internalType\":\"contract IJBTerminal\",\"name\":\"terminal\",\"type\":\"address\"},{\"internalType\":\"address[]\",\"name\":\"tokensToAccept\",\"type\":\"address[]\"}]},{\"internalType\":\"struct REVBuybackHookConfig\",\"name\":\"buybackHookConfiguration\",\"type\":\"tuple\",\"components\":[{\"internalType\":\"contract IJBBuybackHook\",\"name\":\"hook\",\"type\":\"address\"},{\"internalType\":\"struct REVBuybackPoolConfig[]\",\"name\":\"poolConfigurations\",\"type\":\"tuple[]\",\"components\":[{\"internalType\":\"address\",\"name\":\"token\",\"type\":\"address\"},{\"internalType\":\"uint24\",\"name\":\"fee\",\"type\":\"uint24\"},{\"internalType\":\"uint32\",\"name\":\"twapWindow\",\"type\":\"uint32\"},{\"internalType\":\"uint32\",\"name\":\"twapSlippageTolerance\",\"type\":\"uint32\"}]}]},{\"internalType\":\"struct REVSuckerDeploymentConfig\",\"name\":\"suckerDeploymentConfiguration\",\"type\":\"tuple\",\"components\":[{\"internalType\":\"struct BPSuckerDeployerConfig[]\",\"name\":\"deployerConfigurations\",\"type\":\"tuple[]\",\"components\":[{\"internalType\":\"contract IBPSuckerDeployer\",\"name\":\"deployer\",\"type\":\"address\"},{\"internalType\":\"struct BPTokenMapping[]\",\"name\":\"mappings\",\"type\":\"tuple[]\",\"components\":[{\"internalType\":\"address\",\"name\":\"localToken\",\"type\":\"address\"},{\"internalType\":\"uint32\",\"name\":\"minGas\",\"type\":\"uint32\"},{\"internalType\":\"address\",\"name\":\"remoteToken\",\"type\":\"address\"},{\"internalType\":\"uint256\",\"name\":\"minBridgeAmount\",\"type\":\"uint256\"}]}]},{\"internalType\":\"bytes32\",\"name\":\"salt\",\"type\":\"bytes32\"}]},{\"internalType\":\"struct REVDeploy721TiersHookConfig\",\"name\":\"hookConfiguration\",\"type\":\"tuple\",\"components\":[{\"internalType\":\"struct JBDeploy721TiersHookConfig\",\"name\":\"baseline721HookConfiguration\",\"type\":\"tuple\",\"components\":[{\"internalType\":\"string\",\"name\":\"name\",\"type\":\"string\"},{\"internalType\":\"string\",\"name\":\"symbol\",\"type\":\"string\"},{\"internalType\":\"contract IJBRulesets\",\"name\":\"rulesets\",\"type\":\"address\"},{\"internalType\":\"string\",\"name\":\"baseUri\",\"type\":\"string\"},{\"internalType\":\"contract IJB721TokenUriResolver\",\"name\":\"tokenUriResolver\",\"type\":\"address\"},{\"internalType\":\"string\",\"name\":\"contractUri\",\"type\":\"string\"},{\"internalType\":\"struct JB721InitTiersConfig\",\"name\":\"tiersConfig\",\"type\":\"tuple\",\"components\":[{\"internalType\":\"struct JB721TierConfig[]\",\"name\":\"tiers\",\"type\":\"tuple[]\",\"components\":[{\"internalType\":\"uint104\",\"name\":\"price\",\"type\":\"uint104\"},{\"internalType\":\"uint32\",\"name\":\"initialSupply\",\"type\":\"uint32\"},{\"internalType\":\"uint32\",\"name\":\"votingUnits\",\"type\":\"uint32\"},{\"internalType\":\"uint16\",\"name\":\"reserveFrequency\",\"type\":\"uint16\"},{\"internalType\":\"address\",\"name\":\"reserveBeneficiary\",\"type\":\"address\"},{\"internalType\":\"bytes32\",\"name\":\"encodedIPFSUri\",\"type\":\"bytes32\"},{\"internalType\":\"uint24\",\"name\":\"category\",\"type\":\"uint24\"},{\"internalType\":\"bool\",\"name\":\"allowOwnerMint\",\"type\":\"bool\"},{\"internalType\":\"bool\",\"name\":\"useReserveBeneficiaryAsDefault\",\"type\":\"bool\"},{\"internalType\":\"bool\",\"name\":\"transfersPausable\",\"type\":\"bool\"},{\"internalType\":\"bool\",\"name\":\"useVotingUnits\",\"type\":\"bool\"},{\"internalType\":\"bool\",\"name\":\"cannotBeRemoved\",\"type\":\"bool\"}]},{\"internalType\":\"uint32\",\"name\":\"currency\",\"type\":\"uint32\"},{\"internalType\":\"uint8\",\"name\":\"decimals\",\"type\":\"uint8\"},{\"internalType\":\"contract IJBPrices\",\"name\":\"prices\",\"type\":\"address\"}]},{\"internalType\":\"address\",\"name\":\"reserveBeneficiary\",\"type\":\"address\"},{\"internalType\":\"struct JB721TiersHookFlags\",\"name\":\"flags\",\"type\":\"tuple\",\"components\":[{\"internalType\":\"bool\",\"name\":\"noNewTiersWithReserves\",\"type\":\"bool\"},{\"internalType\":\"bool\",\"name\":\"noNewTiersWithVotes\",\"type\":\"bool\"},{\"internalType\":\"bool\",\"name\":\"noNewTiersWithOwnerMinting\",\"type\":\"bool\"},{\"internalType\":\"bool\",\"name\":\"preventOverspending\",\"type\":\"bool\"}]}]},{\"internalType\":\"bool\",\"name\":\"operatorCanAdjustTiers\",\"type\":\"bool\"},{\"internalType\":\"bool\",\"name\":\"operatorCanUpdateMetadata\",\"type\":\"bool\"},{\"internalType\":\"bool\",\"name\":\"operatorCanMint\",\"type\":\"bool\"}]},{\"internalType\":\"struct JBPayHookSpecification[]\",\"name\":\"otherPayHooksSpecifications\",\"type\":\"tuple[]\",\"components\":[{\"internalType\":\"contract IJBPayHook\",\"name\":\"hook\",\"type\":\"address\"},{\"internalType\":\"uint256\",\"name\":\"amount\",\"type\":\"uint256\"},{\"internalType\":\"bytes\",\"name\":\"metadata\",\"type\":\"bytes\"}]},{\"internalType\":\"uint16\",\"name\":\"extraHookMetadata\",\"type\":\"uint16\"},{\"internalType\":\"struct REVCroptopAllowedPost[]\",\"name\":\"allowedPosts\",\"type\":\"tuple[]\",\"components\":[{\"internalType\":\"uint256\",\"name\":\"category\",\"type\":\"uint256\"},{\"internalType\":\"uint256\",\"name\":\"minimumPrice\",\"type\":\"uint256\"},{\"internalType\":\"uint256\",\"name\":\"minimumTotalSupply\",\"type\":\"uint256\"},{\"internalType\":\"uint256\",\"name\":\"maximumTotalSupply\",\"type\":\"uint256\"},{\"internalType\":\"address[]\",\"name\":\"allowedAddresses\",\"type\":\"address[]\"}]}],\"stateMutability\":\"nonpayable\",\"type\":\"function\",\"name\":\"deployCroptopRevnetWith\",\"outputs\":[{\"internalType\":\"uint256\",\"name\":\"revnetId\",\"type\":\"uint256\"},{\"internalType\":\"contract IJB721TiersHook\",\"name\":\"hook\",\"type\":\"address\"}]},{\"inputs\":[{\"internalType\":\"struct REVConfig\",\"name\":\"configuration\",\"type\":\"tuple\",\"components\":[{\"internalType\":\"struct REVDescription\",\"name\":\"description\",\"type\":\"tuple\",\"components\":[{\"internalType\":\"string\",\"name\":\"name\",\"type\":\"string\"},{\"internalType\":\"string\",\"name\":\"symbol\",\"type\":\"string\"},{\"internalType\":\"string\",\"name\":\"uri\",\"type\":\"string\"},{\"internalType\":\"bytes32\",\"name\":\"salt\",\"type\":\"bytes32\"}]},{\"internalType\":\"uint32\",\"name\":\"baseCurrency\",\"type\":\"uint32\"},{\"internalType\":\"uint256\",\"name\":\"premintTokenAmount\",\"type\":\"uint256\"},{\"internalType\":\"address\",\"name\":\"initialOperator\",\"type\":\"address\"},{\"internalType\":\"struct REVStageConfig[]\",\"name\":\"stageConfigurations\",\"type\":\"tuple[]\",\"components\":[{\"internalType\":\"uint40\",\"name\":\"startsAtOrAfter\",\"type\":\"uint40\"},{\"internalType\":\"uint16\",\"name\":\"operatorSplitRate\",\"type\":\"uint16\"},{\"internalType\":\"uint112\",\"name\":\"initialIssuanceRate\",\"type\":\"uint112\"},{\"internalType\":\"uint40\",\"name\":\"priceCeilingIncreaseFrequency\",\"type\":\"uint40\"},{\"internalType\":\"uint32\",\"name\":\"priceCeilingIncreasePercentage\",\"type\":\"uint32\"},{\"internalType\":\"uint16\",\"name\":\"priceFloorTaxIntensity\",\"type\":\"uint16\"}]}]},{\"internalType\":\"struct JBTerminalConfig[]\",\"name\":\"terminalConfigurations\",\"type\":\"tuple[]\",\"components\":[{\"internalType\":\"contract IJBTerminal\",\"name\":\"terminal\",\"type\":\"address\"},{\"internalType\":\"address[]\",\"name\":\"tokensToAccept\",\"type\":\"address[]\"}]},{\"internalType\":\"struct REVBuybackHookConfig\",\"name\":\"buybackHookConfiguration\",\"type\":\"tuple\",\"components\":[{\"internalType\":\"contract IJBBuybackHook\",\"name\":\"hook\",\"type\":\"address\"},{\"internalType\":\"struct REVBuybackPoolConfig[]\",\"name\":\"poolConfigurations\",\"type\":\"tuple[]\",\"components\":[{\"internalType\":\"address\",\"name\":\"token\",\"type\":\"address\"},{\"internalType\":\"uint24\",\"name\":\"fee\",\"type\":\"uint24\"},{\"internalType\":\"uint32\",\"name\":\"twapWindow\",\"type\":\"uint32\"},{\"internalType\":\"uint32\",\"name\":\"twapSlippageTolerance\",\"type\":\"uint32\"}]}]},{\"internalType\":\"struct REVSuckerDeploymentConfig\",\"name\":\"suckerDeploymentConfiguration\",\"type\":\"tuple\",\"components\":[{\"internalType\":\"struct BPSuckerDeployerConfig[]\",\"name\":\"deployerConfigurations\",\"type\":\"tuple[]\",\"components\":[{\"internalType\":\"contract IBPSuckerDeployer\",\"name\":\"deployer\",\"type\":\"address\"},{\"internalType\":\"struct BPTokenMapping[]\",\"name\":\"mappings\",\"type\":\"tuple[]\",\"components\":[{\"internalType\":\"address\",\"name\":\"localToken\",\"type\":\"address\"},{\"internalType\":\"uint32\",\"name\":\"minGas\",\"type\":\"uint32\"},{\"internalType\":\"address\",\"name\":\"remoteToken\",\"type\":\"address\"},{\"internalType\":\"uint256\",\"name\":\"minBridgeAmount\",\"type\":\"uint256\"}]}]},{\"internalType\":\"bytes32\",\"name\":\"salt\",\"type\":\"bytes32\"}]},{\"internalType\":\"struct JBPayHookSpecification[]\",\"name\":\"payHookSpecifications\",\"type\":\"tuple[]\",\"components\":[{\"internalType\":\"contract IJBPayHook\",\"name\":\"hook\",\"type\":\"address\"},{\"internalType\":\"uint256\",\"name\":\"amount\",\"type\":\"uint256\"},{\"internalType\":\"bytes\",\"name\":\"metadata\",\"type\":\"bytes\"}]},{\"internalType\":\"uint16\",\"name\":\"extraHookMetadata\",\"type\":\"uint16\"}],\"stateMutability\":\"nonpayable\",\"type\":\"function\",\"name\":\"deployPayHookRevnetWith\",\"outputs\":[{\"internalType\":\"uint256\",\"name\":\"revnetId\",\"type\":\"uint256\"}]},{\"inputs\":[{\"internalType\":\"struct REVConfig\",\"name\":\"configuration\",\"type\":\"tuple\",\"components\":[{\"internalType\":\"struct REVDescription\",\"name\":\"description\",\"type\":\"tuple\",\"components\":[{\"internalType\":\"string\",\"name\":\"name\",\"type\":\"string\"},{\"internalType\":\"string\",\"name\":\"symbol\",\"type\":\"string\"},{\"internalType\":\"string\",\"name\":\"uri\",\"type\":\"string\"},{\"internalType\":\"bytes32\",\"name\":\"salt\",\"type\":\"bytes32\"}]},{\"internalType\":\"uint32\",\"name\":\"baseCurrency\",\"type\":\"uint32\"},{\"internalType\":\"uint256\",\"name\":\"premintTokenAmount\",\"type\":\"uint256\"},{\"internalType\":\"address\",\"name\":\"initialOperator\",\"type\":\"address\"},{\"internalType\":\"struct REVStageConfig[]\",\"name\":\"stageConfigurations\",\"type\":\"tuple[]\",\"components\":[{\"internalType\":\"uint40\",\"name\":\"startsAtOrAfter\",\"type\":\"uint40\"},{\"internalType\":\"uint16\",\"name\":\"operatorSplitRate\",\"type\":\"uint16\"},{\"internalType\":\"uint112\",\"name\":\"initialIssuanceRate\",\"type\":\"uint112\"},{\"internalType\":\"uint40\",\"name\":\"priceCeilingIncreaseFrequency\",\"type\":\"uint40\"},{\"internalType\":\"uint32\",\"name\":\"priceCeilingIncreasePercentage\",\"type\":\"uint32\"},{\"internalType\":\"uint16\",\"name\":\"priceFloorTaxIntensity\",\"type\":\"uint16\"}]}]},{\"internalType\":\"struct JBTerminalConfig[]\",\"name\":\"terminalConfigurations\",\"type\":\"tuple[]\",\"components\":[{\"internalType\":\"contract IJBTerminal\",\"name\":\"terminal\",\"type\":\"address\"},{\"internalType\":\"address[]\",\"name\":\"tokensToAccept\",\"type\":\"address[]\"}]},{\"internalType\":\"struct REVBuybackHookConfig\",\"name\":\"buybackHookConfiguration\",\"type\":\"tuple\",\"components\":[{\"internalType\":\"contract IJBBuybackHook\",\"name\":\"hook\",\"type\":\"address\"},{\"internalType\":\"struct REVBuybackPoolConfig[]\",\"name\":\"poolConfigurations\",\"type\":\"tuple[]\",\"components\":[{\"internalType\":\"address\",\"name\":\"token\",\"type\":\"address\"},{\"internalType\":\"uint24\",\"name\":\"fee\",\"type\":\"uint24\"},{\"internalType\":\"uint32\",\"name\":\"twapWindow\",\"type\":\"uint32\"},{\"internalType\":\"uint32\",\"name\":\"twapSlippageTolerance\",\"type\":\"uint32\"}]}]},{\"internalType\":\"struct REVSuckerDeploymentConfig\",\"name\":\"suckerDeploymentConfiguration\",\"type\":\"tuple\",\"components\":[{\"internalType\":\"struct BPSuckerDeployerConfig[]\",\"name\":\"deployerConfigurations\",\"type\":\"tuple[]\",\"components\":[{\"internalType\":\"contract IBPSuckerDeployer\",\"name\":\"deployer\",\"type\":\"address\"},{\"internalType\":\"struct BPTokenMapping[]\",\"name\":\"mappings\",\"type\":\"tuple[]\",\"components\":[{\"internalType\":\"address\",\"name\":\"localToken\",\"type\":\"address\"},{\"internalType\":\"uint32\",\"name\":\"minGas\",\"type\":\"uint32\"},{\"internalType\":\"address\",\"name\":\"remoteToken\",\"type\":\"address\"},{\"internalType\":\"uint256\",\"name\":\"minBridgeAmount\",\"type\":\"uint256\"}]}]},{\"internalType\":\"bytes32\",\"name\":\"salt\",\"type\":\"bytes32\"}]}],\"stateMutability\":\"nonpayable\",\"type\":\"function\",\"name\":\"deployRevnetWith\",\"outputs\":[{\"internalType\":\"uint256\",\"name\":\"revnetId\",\"type\":\"uint256\"}]},{\"inputs\":[{\"internalType\":\"uint256\",\"name\":\"revnetId\",\"type\":\"uint256\"},{\"internalType\":\"bytes\",\"name\":\"encodedConfiguration\",\"type\":\"bytes\"},{\"internalType\":\"struct REVSuckerDeploymentConfig\",\"name\":\"suckerDeploymentConfiguration\",\"type\":\"tuple\",\"components\":[{\"internalType\":\"struct BPSuckerDeployerConfig[]\",\"name\":\"deployerConfigurations\",\"type\":\"tuple[]\",\"components\":[{\"internalType\":\"contract IBPSuckerDeployer\",\"name\":\"deployer\",\"type\":\"address\"},{\"internalType\":\"struct BPTokenMapping[]\",\"name\":\"mappings\",\"type\":\"tuple[]\",\"components\":[{\"internalType\":\"address\",\"name\":\"localToken\",\"type\":\"address\"},{\"internalType\":\"uint32\",\"name\":\"minGas\",\"type\":\"uint32\"},{\"internalType\":\"address\",\"name\":\"remoteToken\",\"type\":\"address\"},{\"internalType\":\"uint256\",\"name\":\"minBridgeAmount\",\"type\":\"uint256\"}]}]},{\"internalType\":\"bytes32\",\"name\":\"salt\",\"type\":\"bytes32\"}]}],\"stateMutability\":\"nonpayable\",\"type\":\"function\",\"name\":\"deploySuckersFor\"},{\"inputs\":[{\"internalType\":\"struct REVConfig\",\"name\":\"configuration\",\"type\":\"tuple\",\"components\":[{\"internalType\":\"struct REVDescription\",\"name\":\"description\",\"type\":\"tuple\",\"components\":[{\"internalType\":\"string\",\"name\":\"name\",\"type\":\"string\"},{\"internalType\":\"string\",\"name\":\"symbol\",\"type\":\"string\"},{\"internalType\":\"string\",\"name\":\"uri\",\"type\":\"string\"},{\"internalType\":\"bytes32\",\"name\":\"salt\",\"type\":\"bytes32\"}]},{\"internalType\":\"uint32\",\"name\":\"baseCurrency\",\"type\":\"uint32\"},{\"internalType\":\"uint256\",\"name\":\"premintTokenAmount\",\"type\":\"uint256\"},{\"internalType\":\"address\",\"name\":\"initialOperator\",\"type\":\"address\"},{\"internalType\":\"struct REVStageConfig[]\",\"name\":\"stageConfigurations\",\"type\":\"tuple[]\",\"components\":[{\"internalType\":\"uint40\",\"name\":\"startsAtOrAfter\",\"type\":\"uint40\"},{\"internalType\":\"uint16\",\"name\":\"operatorSplitRate\",\"type\":\"uint16\"},{\"internalType\":\"uint112\",\"name\":\"initialIssuanceRate\",\"type\":\"uint112\"},{\"internalType\":\"uint40\",\"name\":\"priceCeilingIncreaseFrequency\",\"type\":\"uint40\"},{\"internalType\":\"uint32\",\"name\":\"priceCeilingIncreasePercentage\",\"type\":\"uint32\"},{\"internalType\":\"uint16\",\"name\":\"priceFloorTaxIntensity\",\"type\":\"uint16\"}]}]},{\"internalType\":\"struct JBTerminalConfig[]\",\"name\":\"terminalConfigurations\",\"type\":\"tuple[]\",\"components\":[{\"internalType\":\"contract IJBTerminal\",\"name\":\"terminal\",\"type\":\"address\"},{\"internalType\":\"address[]\",\"name\":\"tokensToAccept\",\"type\":\"address[]\"}]},{\"internalType\":\"struct REVBuybackHookConfig\",\"name\":\"buybackHookConfiguration\",\"type\":\"tuple\",\"components\":[{\"internalType\":\"contract IJBBuybackHook\",\"name\":\"hook\",\"type\":\"address\"},{\"internalType\":\"struct REVBuybackPoolConfig[]\",\"name\":\"poolConfigurations\",\"type\":\"tuple[]\",\"components\":[{\"internalType\":\"address\",\"name\":\"token\",\"type\":\"address\"},{\"internalType\":\"uint24\",\"name\":\"fee\",\"type\":\"uint24\"},{\"internalType\":\"uint32\",\"name\":\"twapWindow\",\"type\":\"uint32\"},{\"internalType\":\"uint32\",\"name\":\"twapSlippageTolerance\",\"type\":\"uint32\"}]}]},{\"internalType\":\"struct REVSuckerDeploymentConfig\",\"name\":\"suckerDeploymentConfiguration\",\"type\":\"tuple\",\"components\":[{\"internalType\":\"struct BPSuckerDeployerConfig[]\",\"name\":\"deployerConfigurations\",\"type\":\"tuple[]\",\"components\":[{\"internalType\":\"contract IBPSuckerDeployer\",\"name\":\"deployer\",\"type\":\"address\"},{\"internalType\":\"struct BPTokenMapping[]\",\"name\":\"mappings\",\"type\":\"tuple[]\",\"components\":[{\"internalType\":\"address\",\"name\":\"localToken\",\"type\":\"address\"},{\"internalType\":\"uint32\",\"name\":\"minGas\",\"type\":\"uint32\"},{\"internalType\":\"address\",\"name\":\"remoteToken\",\"type\":\"address\"},{\"internalType\":\"uint256\",\"name\":\"minBridgeAmount\",\"type\":\"uint256\"}]}]},{\"internalType\":\"bytes32\",\"name\":\"salt\",\"type\":\"bytes32\"}]},{\"internalType\":\"struct REVDeploy721TiersHookConfig\",\"name\":\"hookConfiguration\",\"type\":\"tuple\",\"components\":[{\"internalType\":\"struct JBDeploy721TiersHookConfig\",\"name\":\"baseline721HookConfiguration\",\"type\":\"tuple\",\"components\":[{\"internalType\":\"string\",\"name\":\"name\",\"type\":\"string\"},{\"internalType\":\"string\",\"name\":\"symbol\",\"type\":\"string\"},{\"internalType\":\"contract IJBRulesets\",\"name\":\"rulesets\",\"type\":\"address\"},{\"internalType\":\"string\",\"name\":\"baseUri\",\"type\":\"string\"},{\"internalType\":\"contract IJB721TokenUriResolver\",\"name\":\"tokenUriResolver\",\"type\":\"address\"},{\"internalType\":\"string\",\"name\":\"contractUri\",\"type\":\"string\"},{\"internalType\":\"struct JB721InitTiersConfig\",\"name\":\"tiersConfig\",\"type\":\"tuple\",\"components\":[{\"internalType\":\"struct JB721TierConfig[]\",\"name\":\"tiers\",\"type\":\"tuple[]\",\"components\":[{\"internalType\":\"uint104\",\"name\":\"price\",\"type\":\"uint104\"},{\"internalType\":\"uint32\",\"name\":\"initialSupply\",\"type\":\"uint32\"},{\"internalType\":\"uint32\",\"name\":\"votingUnits\",\"type\":\"uint32\"},{\"internalType\":\"uint16\",\"name\":\"reserveFrequency\",\"type\":\"uint16\"},{\"internalType\":\"address\",\"name\":\"reserveBeneficiary\",\"type\":\"address\"},{\"internalType\":\"bytes32\",\"name\":\"encodedIPFSUri\",\"type\":\"bytes32\"},{\"internalType\":\"uint24\",\"name\":\"category\",\"type\":\"uint24\"},{\"internalType\":\"bool\",\"name\":\"allowOwnerMint\",\"type\":\"bool\"},{\"internalType\":\"bool\",\"name\":\"useReserveBeneficiaryAsDefault\",\"type\":\"bool\"},{\"internalType\":\"bool\",\"name\":\"transfersPausable\",\"type\":\"bool\"},{\"internalType\":\"bool\",\"name\":\"useVotingUnits\",\"type\":\"bool\"},{\"internalType\":\"bool\",\"name\":\"cannotBeRemoved\",\"type\":\"bool\"}]},{\"internalType\":\"uint32\",\"name\":\"currency\",\"type\":\"uint32\"},{\"internalType\":\"uint8\",\"name\":\"decimals\",\"type\":\"uint8\"},{\"internalType\":\"contract IJBPrices\",\"name\":\"prices\",\"type\":\"address\"}]},{\"internalType\":\"address\",\"name\":\"reserveBeneficiary\",\"type\":\"address\"},{\"internalType\":\"struct JB721TiersHookFlags\",\"name\":\"flags\",\"type\":\"tuple\",\"components\":[{\"internalType\":\"bool\",\"name\":\"noNewTiersWithReserves\",\"type\":\"bool\"},{\"internalType\":\"bool\",\"name\":\"noNewTiersWithVotes\",\"type\":\"bool\"},{\"internalType\":\"bool\",\"name\":\"noNewTiersWithOwnerMinting\",\"type\":\"bool\"},{\"internalType\":\"bool\",\"name\":\"preventOverspending\",\"type\":\"bool\"}]}]},{\"internalType\":\"bool\",\"name\":\"operatorCanAdjustTiers\",\"type\":\"bool\"},{\"internalType\":\"bool\",\"name\":\"operatorCanUpdateMetadata\",\"type\":\"bool\"},{\"internalType\":\"bool\",\"name\":\"operatorCanMint\",\"type\":\"bool\"}]},{\"internalType\":\"struct JBPayHookSpecification[]\",\"name\":\"otherPayHooksSpecifications\",\"type\":\"tuple[]\",\"components\":[{\"internalType\":\"contract IJBPayHook\",\"name\":\"hook\",\"type\":\"address\"},{\"internalType\":\"uint256\",\"name\":\"amount\",\"type\":\"uint256\"},{\"internalType\":\"bytes\",\"name\":\"metadata\",\"type\":\"bytes\"}]},{\"internalType\":\"uint16\",\"name\":\"extraHookMetadata\",\"type\":\"uint16\"}],\"stateMutability\":\"nonpayable\",\"type\":\"function\",\"name\":\"deployTiered721RevnetWith\",\"outputs\":[{\"internalType\":\"uint256\",\"name\":\"revnetId\",\"type\":\"uint256\"},{\"internalType\":\"contract IJB721TiersHook\",\"name\":\"hook\",\"type\":\"address\"}]},{\"inputs\":[{\"internalType\":\"uint256\",\"name\":\"revnetId\",\"type\":\"uint256\"}],\"stateMutability\":\"view\",\"type\":\"function\",\"name\":\"exitDelayOf\",\"outputs\":[{\"internalType\":\"uint256\",\"name\":\"exitDelay\",\"type\":\"uint256\"}]},{\"inputs\":[{\"internalType\":\"uint256\",\"name\":\"revnetId\",\"type\":\"uint256\"},{\"internalType\":\"address\",\"name\":\"addr\",\"type\":\"address\"}],\"stateMutability\":\"view\",\"type\":\"function\",\"name\":\"hasMintPermissionFor\",\"outputs\":[{\"internalType\":\"bool\",\"name\":\"\",\"type\":\"bool\"}]},{\"inputs\":[{\"internalType\":\"address\",\"name\":\"operator\",\"type\":\"address\"},{\"internalType\":\"address\",\"name\":\"from\",\"type\":\"address\"},{\"internalType\":\"uint256\",\"name\":\"tokenId\",\"type\":\"uint256\"},{\"internalType\":\"bytes\",\"name\":\"data\",\"type\":\"bytes\"}],\"stateMutability\":\"view\",\"type\":\"function\",\"name\":\"onERC721Received\",\"outputs\":[{\"internalType\":\"bytes4\",\"name\":\"\",\"type\":\"bytes4\"}]},{\"inputs\":[{\"internalType\":\"uint256\",\"name\":\"revnetId\",\"type\":\"uint256\"}],\"stateMutability\":\"view\",\"type\":\"function\",\"name\":\"payHookSpecificationsOf\",\"outputs\":[{\"internalType\":\"struct JBPayHookSpecification[]\",\"name\":\"\",\"type\":\"tuple[]\",\"components\":[{\"internalType\":\"contract IJBPayHook\",\"name\":\"hook\",\"type\":\"address\"},{\"internalType\":\"uint256\",\"name\":\"amount\",\"type\":\"uint256\"},{\"internalType\":\"bytes\",\"name\":\"metadata\",\"type\":\"bytes\"}]}]},{\"inputs\":[{\"internalType\":\"uint256\",\"name\":\"revnetId\",\"type\":\"uint256\"},{\"internalType\":\"address\",\"name\":\"newOperator\",\"type\":\"address\"}],\"stateMutability\":\"nonpayable\",\"type\":\"function\",\"name\":\"replaceOperatorOf\"},{\"inputs\":[{\"internalType\":\"bytes4\",\"name\":\"interfaceId\",\"type\":\"bytes4\"}],\"stateMutability\":\"view\",\"type\":\"function\",\"name\":\"supportsInterface\",\"outputs\":[{\"internalType\":\"bool\",\"name\":\"\",\"type\":\"bool\"}]}],\"devdoc\":{\"kind\":\"dev\",\"methods\":{\"beforePayRecordedWith((address,address,(address,uint256,uint256,uint256),uint256,uint256,address,uint256,uint256,bytes))\":{\"details\":\"Part of IJBFundingCycleDataSource.This implementation just sets this contract up to receive a `didPay` call.\",\"params\":{\"context\":\"The Juicebox standard network payment context. See\"},\"returns\":{\"hookSpecifications\":\"Amount to be sent to pay hooks instead of adding to local balance. Useful for auto-routing funds from a treasury as payment come in.\",\"weight\":\"The weight that network tokens should get minted relative to. This is useful for optionally customizing how many tokens are issued per payment.\"}},\"constructor\":{\"params\":{\"controller\":\"The controller that revnets are made from.\",\"hookDeployer\":\"The 721 tiers hook deployer.\",\"publisher\":\"The croptop publisher that facilitates the permissioned publishing of 721 posts to a revnet.\",\"suckerRegistry\":\"The registry that deploys and tracks each project's suckers.\"}},\"deployCroptopRevnetWith(((string,string,string,bytes32),uint32,uint256,address,(uint40,uint16,uint112,uint40,uint32,uint16)[]),(address,address[])[],(address,(address,uint24,uint32,uint32)[]),((address,(address,uint32,address,uint256)[])[],bytes32),((string,string,address,string,address,string,((uint104,uint32,uint32,uint16,address,bytes32,uint24,bool,bool,bool,bool,bool)[],uint32,uint8,address),address,(bool,bool,bool,bool)),bool,bool,bool),(address,uint256,bytes)[],uint16,(uint256,uint256,uint256,uint256,address[])[])\":{\"params\":{\"allowedPosts\":\"The type of posts that the network should allow.\",\"buybackHookConfiguration\":\"Data used for setting up the buyback hook to use when determining the best price for new participants.\",\"configuration\":\"The data needed to deploy a basic revnet.\",\"extraHookMetadata\":\"Extra metadata to attach to the cycle for the delegates to use.\",\"hookConfiguration\":\"Data used for setting up the 721 tiers.\",\"otherPayHooksSpecifications\":\"Any hooks that should run when the revnet is paid alongside the 721 hook.\",\"suckerDeploymentConfiguration\":\"Information about how this revnet relates to other's across chains.\",\"terminalConfigurations\":\"The terminals that the network uses to accept payments through.\"},\"returns\":{\"hook\":\"The address of the 721 hook that was deployed on the revnet.\",\"revnetId\":\"The ID of the newly created revnet.\"}},\"deployPayHookRevnetWith(((string,string,string,bytes32),uint32,uint256,address,(uint40,uint16,uint112,uint40,uint32,uint16)[]),(address,address[])[],(address,(address,uint24,uint32,uint32)[]),((address,(address,uint32,address,uint256)[])[],bytes32),(address,uint256,bytes)[],uint16)\":{\"params\":{\"buybackHookConfiguration\":\"Data used for setting up the buyback hook to use when determining the best price for new participants.\",\"configuration\":\"The data needed to deploy a basic revnet.\",\"extraHookMetadata\":\"Extra metadata to attach to the cycle for the delegates to use.\",\"payHookSpecifications\":\"Any hooks that should run when the revnet is paid.\",\"suckerDeploymentConfiguration\":\"Information about how this revnet relates to other's across chains.\",\"terminalConfigurations\":\"The terminals that the network uses to accept payments through.\"},\"returns\":{\"revnetId\":\"The ID of the newly created revnet.\"}},\"deployRevnetWith(((string,string,string,bytes32),uint32,uint256,address,(uint40,uint16,uint112,uint40,uint32,uint16)[]),(address,address[])[],(address,(address,uint24,uint32,uint32)[]),((address,(address,uint32,address,uint256)[])[],bytes32))\":{\"params\":{\"buybackHookConfiguration\":\"Data used for setting up the buyback hook to use when determining the best price for new participants.\",\"configuration\":\"The data needed to deploy a basic revnet.\",\"suckerDeploymentConfiguration\":\"Information about how this revnet relates to other's across chains.\",\"terminalConfigurations\":\"The terminals that the network uses to accept payments through.\"},\"returns\":{\"revnetId\":\"The ID of the newly created revnet.\"}},\"deploySuckersFor(uint256,bytes,((address,(address,uint32,address,uint256)[])[],bytes32))\":{\"params\":{\"encodedConfiguration\":\"A bytes representation of the revnet's configuration.\",\"revnetId\":\"The ID of the revnet having new suckers deployed.\",\"suckerDeploymentConfiguration\":\"The specifics about the suckers being deployed.\"}},\"deployTiered721RevnetWith(((string,string,string,bytes32),uint32,uint256,address,(uint40,uint16,uint112,uint40,uint32,uint16)[]),(address,address[])[],(address,(address,uint24,uint32,uint32)[]),((address,(address,uint32,address,uint256)[])[],bytes32),((string,string,address,string,address,string,((uint104,uint32,uint32,uint16,address,bytes32,uint24,bool,bool,bool,bool,bool)[],uint32,uint8,address),address,(bool,bool,bool,bool)),bool,bool,bool),(address,uint256,bytes)[],uint16)\":{\"params\":{\"buybackHookConfiguration\":\"Data used for setting up the buyback hook to use when determining the best price for new participants.\",\"configuration\":\"The data needed to deploy a basic revnet.\",\"extraHookMetadata\":\"Extra metadata to attach to the cycle for the delegates to use.\",\"hookConfiguration\":\"Data used for setting up the 721 tiers.\",\"otherPayHooksSpecifications\":\"Any hooks that should run when the revnet is paid alongside the 721 hook.\",\"suckerDeploymentConfiguration\":\"Information about how this revnet relates to other's across chains.\",\"terminalConfigurations\":\"The terminals that the network uses to accept payments through.\"},\"returns\":{\"hook\":\"The address of the 721 hook that was deployed on the revnet.\",\"revnetId\":\"The ID of the newly created revnet.\"}},\"hasMintPermissionFor(uint256,address)\":{\"params\":{\"addr\":\"The address to check if has permissions.\",\"revnetId\":\"The ID of the revnet to check permissions for.\"},\"returns\":{\"_0\":\"flag The flag indicating if the address has permissions to mint on the revnet's behalf.\"}},\"onERC721Received(address,address,uint256,bytes)\":{\"details\":\"Make sure only mints can be received.\"},\"payHookSpecificationsOf(uint256)\":{\"params\":{\"revnetId\":\"The ID of the revnet to which the extensions apply.\"},\"returns\":{\"_0\":\"payHookSpecifications The pay hooks.\"}},\"replaceOperatorOf(uint256,address)\":{\"params\":{\"newOperator\":\"The address of the new operator.\",\"revnetId\":\"The ID of the revnet having its operator replaced.\"}},\"supportsInterface(bytes4)\":{\"details\":\"See {IERC165-supportsInterface}.\",\"params\":{\"interfaceId\":\"The ID of the interface to check for adherence to.\"},\"returns\":{\"_0\":\"A flag indicating if the provided interface ID is supported.\"}}},\"version\":1},\"userdoc\":{\"kind\":\"user\",\"methods\":{\"CONTROLLER()\":{\"notice\":\"The controller that networks are made from.\"},\"EXIT_DELAY()\":{\"notice\":\"The amount of time from a sucker being deployed to when it can facilitate exits.\"},\"HOOK_DEPLOYER()\":{\"notice\":\"The contract responsible for deploying the tiered 721 hook.\"},\"PUBLISHER()\":{\"notice\":\"The croptop publisher that facilitates the permissioned publishing of 721 posts to a revnet.\"},\"SUCKER_REGISTRY()\":{\"notice\":\"The registry that deploys and tracks each project's suckers.\"},\"beforePayRecordedWith((address,address,(address,uint256,uint256,uint256),uint256,uint256,address,uint256,uint256,bytes))\":{\"notice\":\"This function gets called when the revnet receives a payment.\"},\"beforeRedeemRecordedWith((address,address,uint256,uint256,uint256,uint256,(address,uint256,uint256,uint256),bool,uint256,bytes))\":{\"notice\":\"This function is never called, it needs to be included to adhere to the interface.\"},\"buybackHookOf(uint256)\":{\"notice\":\"The data hook that returns the correct values for the buyback hook of each network.\"},\"deployCroptopRevnetWith(((string,string,string,bytes32),uint32,uint256,address,(uint40,uint16,uint112,uint40,uint32,uint16)[]),(address,address[])[],(address,(address,uint24,uint32,uint32)[]),((address,(address,uint32,address,uint256)[])[],bytes32),((string,string,address,string,address,string,((uint104,uint32,uint32,uint16,address,bytes32,uint24,bool,bool,bool,bool,bool)[],uint32,uint8,address),address,(bool,bool,bool,bool)),bool,bool,bool),(address,uint256,bytes)[],uint16,(uint256,uint256,uint256,uint256,address[])[])\":{\"notice\":\"Deploy a revnet that supports 721 sales.\"},\"deployPayHookRevnetWith(((string,string,string,bytes32),uint32,uint256,address,(uint40,uint16,uint112,uint40,uint32,uint16)[]),(address,address[])[],(address,(address,uint24,uint32,uint32)[]),((address,(address,uint32,address,uint256)[])[],bytes32),(address,uint256,bytes)[],uint16)\":{\"notice\":\"Deploy a basic revnet that also calls other specified pay hooks.\"},\"deployRevnetWith(((string,string,string,bytes32),uint32,uint256,address,(uint40,uint16,uint112,uint40,uint32,uint16)[]),(address,address[])[],(address,(address,uint24,uint32,uint32)[]),((address,(address,uint32,address,uint256)[])[],bytes32))\":{\"notice\":\"Deploy a basic revnet.\"},\"deploySuckersFor(uint256,bytes,((address,(address,uint32,address,uint256)[])[],bytes32))\":{\"notice\":\"Allows a revnet's operator to deploy new suckers to the revnet after it's deployed.\"},\"deployTiered721RevnetWith(((string,string,string,bytes32),uint32,uint256,address,(uint40,uint16,uint112,uint40,uint32,uint16)[]),(address,address[])[],(address,(address,uint24,uint32,uint32)[]),((address,(address,uint32,address,uint256)[])[],bytes32),((string,string,address,string,address,string,((uint104,uint32,uint32,uint16,address,bytes32,uint24,bool,bool,bool,bool,bool)[],uint32,uint8,address),address,(bool,bool,bool,bool)),bool,bool,bool),(address,uint256,bytes)[],uint16)\":{\"notice\":\"Deploy a revnet that supports 721 sales.\"},\"exitDelayOf(uint256)\":{\"notice\":\"The time at which exits from a revnet become allowed.\"},\"hasMintPermissionFor(uint256,address)\":{\"notice\":\"Required by the IJBRulesetDataHook interfaces.\"},\"payHookSpecificationsOf(uint256)\":{\"notice\":\"The pay hooks to include during payments to networks.\"},\"replaceOperatorOf(uint256,address)\":{\"notice\":\"A revnet's operator can replace itself.\"},\"supportsInterface(bytes4)\":{\"notice\":\"Indicates if this contract adheres to the specified interface.\"}},\"version\":1}},\"settings\":{\"remappings\":[\"@arbitrum/=node_modules/@arbitrum/\",\"@bananapus/=node_modules/@bananapus/\",\"@chainlink/=node_modules/@chainlink/\",\"@croptop/=node_modules/@croptop/\",\"@eth-optimism/=node_modules/@eth-optimism/\",\"@exhausted-pigeon/=node_modules/@exhausted-pigeon/\",\"@gnosis.pm/=node_modules/@gnosis.pm/\",\"@offchainlabs/=node_modules/@offchainlabs/\",\"@openzeppelin/=node_modules/@openzeppelin/\",\"@prb/=node_modules/@prb/\",\"@sphinx-labs/contracts/=node_modules/@sphinx-labs/contracts/contracts/foundry/\",\"@uniswap/=node_modules/@uniswap/\",\"base64-sol/=node_modules/base64-sol/\",\"ds-test/=lib/forge-std/lib/ds-test/src/\",\"forge-std/=lib/forge-std/src/\",\"hardhat/=node_modules/hardhat/\",\"solmate/=node_modules/solmate/\",\"sphinx-forge-std/=node_modules/sphinx-forge-std/\",\"sphinx-solmate/=node_modules/sphinx-solmate/\",\"sphinx/=lib/sphinx/packages/contracts/contracts/forge-std/src/\"],\"optimizer\":{\"enabled\":true,\"runs\":100000000},\"metadata\":{\"bytecodeHash\":\"ipfs\"},\"compilationTarget\":{\"src/REVCroptopDeployer.sol\":\"REVCroptopDeployer\"},\"evmVersion\":\"paris\",\"libraries\":{}},\"sources\":{\"node_modules/@bananapus/721-hook/src/interfaces/IJB721Hook.sol\":{\"keccak256\":\"0x6cc09b57796ce71a103adb88ee851a9e2f4b5dc42cf7e153371e5c2157c4444d\",\"urls\":[\"bzz-raw://a2d0518c1f6803ab197049839de78debdd97908aa0fc7e44c6742ee209587b46\",\"dweb:/ipfs/QmXzoxr3DNH3NpwvTmRJcwKXFwUZQzCbAeTVh4NZzJedb7\"],\"license\":\"MIT\"},\"node_modules/@bananapus/721-hook/src/interfaces/IJB721TiersHook.sol\":{\"keccak256\":\"0xae662e642cb039931f0cac1a73e3c6b6833cf5edb6c5e3d4864f37cb07791684\",\"urls\":[\"bzz-raw://0942d829b0ba82ececd6de9148c6f3e85c0ecf398d23358086434e31e792b68b\",\"dweb:/ipfs/QmPdtTtoawqq2yTHBhqfs72DVHAQ3dbrjDGnQ3NmkHzLer\"],\"license\":\"MIT\"},\"node_modules/@bananapus/721-hook/src/interfaces/IJB721TiersHookDeployer.sol\":{\"keccak256\":\"0xc4c6dfd2573fe1f130bc5193da68a622959a11562010fa261ffd3a8893e08a7b\",\"urls\":[\"bzz-raw://0c34f79121f6c777bca3df6c2e87c0caa05146bec45e9ae29f41b0532d16c88e\",\"dweb:/ipfs/QmZJQVZC8uuuSssXtLnhsvisz7V2PCKs2s1Hbzo8hmZ9ZP\"],\"license\":\"MIT\"},\"node_modules/@bananapus/721-hook/src/interfaces/IJB721TiersHookStore.sol\":{\"keccak256\":\"0x8550e216c12c9cda865c1b1b0eb3f244aeaa8d465b197d4bd0dd8d4df265682e\",\"urls\":[\"bzz-raw://674a312f1eaffd7c6b21f58f8d4a628104e71220daf48a22237fa3bd035ddf21\",\"dweb:/ipfs/QmSRSW6cSwdpoGjVxDqiwJmJyCxfHWhCxZ2iaqeJcN2Ccy\"],\"license\":\"MIT\"},\"node_modules/@bananapus/721-hook/src/interfaces/IJB721TokenUriResolver.sol\":{\"keccak256\":\"0xfa599167098f4459320ec4141a98a17b2dfffbce422baa27d8b4e4530f61ece1\",\"urls\":[\"bzz-raw://8b758b161f4c7b520b2c34b4d91e585e961b8f4ca278eebb91d791f7f2f45140\",\"dweb:/ipfs/QmcD9DF7NJ9QykQpT4KPzm4bs3fkjzukdAUWwdU6Atfw85\"],\"license\":\"MIT\"},\"node_modules/@bananapus/721-hook/src/structs/JB721InitTiersConfig.sol\":{\"keccak256\":\"0xfb78486cec94189d0ecf2050dc9cfc11245b426c73a0711a85bff1359d774307\",\"urls\":[\"bzz-raw://a8fa01f6e64dd204dbde07a60851e9a5a74e439e1411139ae16b7cf67d2a2692\",\"dweb:/ipfs/QmZAnHyfpKr3xr7NWHj5sGaCEEtG8RtmHhkRUJJvNauym5\"],\"license\":\"MIT\"},\"node_modules/@bananapus/721-hook/src/structs/JB721Tier.sol\":{\"keccak256\":\"0x2e267a8af02f125465cdda9308477346ae4a94b024c3b2c2a6af0c00027944dd\",\"urls\":[\"bzz-raw://367ccea2c8fa815d498d771d4367ef1ded718a76e89644102034bfe4a3636b82\",\"dweb:/ipfs/QmYiFFa6ei9wZBSSVUHfY2Cb35zCDVXvbmLcgLj2BTiC1u\"],\"license\":\"MIT\"},\"node_modules/@bananapus/721-hook/src/structs/JB721TierConfig.sol\":{\"keccak256\":\"0x2fa9c5c8cec182b854a656d3b284e9d5306be35ad3dc4da79d65dca12b804af0\",\"urls\":[\"bzz-raw://b443a5f70195a66145ea1dade04454ce9a3ff1209e1aaecf53c8a9909b294d79\",\"dweb:/ipfs/QmUDPFZ4L6XpV3zLQUNVchUvecD4XfddKz2S46BKek5XL1\"],\"license\":\"MIT\"},\"node_modules/@bananapus/721-hook/src/structs/JB721TiersHookFlags.sol\":{\"keccak256\":\"0x283d8429f31bd58875c056515aa42abd09c95362bd929e85cfc44a0d92585766\",\"urls\":[\"bzz-raw://9a580b89fe99d9f8e930c58a4d0d63a5ff7c01c79d210af01373d066c9e72ed6\",\"dweb:/ipfs/QmdY1eSGSoTjv4KSdsG4Tm5CzJN6iqk3qTRga5ZWNbejRz\"],\"license\":\"MIT\"},\"node_modules/@bananapus/721-hook/src/structs/JB721TiersMintReservesConfig.sol\":{\"keccak256\":\"0xab3b319dc4e736586ae595de194d93dcdfeba365bc7a54cf6c37e697f6074ad9\",\"urls\":[\"bzz-raw://a84ae2cf2e8c3e39e831dbb39a67a8eb43c78a6de6bb78b1be2e1f1e80c69efe\",\"dweb:/ipfs/QmboGXEMqsYTxc4a7oft9rggNU7ShWSa9yB4HFMVmzXCHz\"],\"license\":\"MIT\"},\"node_modules/@bananapus/721-hook/src/structs/JBDeploy721TiersHookConfig.sol\":{\"keccak256\":\"0x4f0b8bbc19a405a096a16977fa1eedc0c56640ef777add89c050f989a62a6a35\",\"urls\":[\"bzz-raw://bd009c66aa748a2ce04720a6376683ce01ced3c0bd7f9534e145263aa49d95d3\",\"dweb:/ipfs/QmXyJCS1uQevdkw1Gc4UrRs8fZKtW9wPWFY9pxUWHKLo4e\"],\"license\":\"MIT\"},\"node_modules/@bananapus/buyback-hook/src/interfaces/IJBBuybackHook.sol\":{\"keccak256\":\"0xbe5d7f3bf2e18b569676ba9194e248e6b1ed50022f5247b4f1fa124c91bfd418\",\"urls\":[\"bzz-raw://eb221d1570e8aad409c419b6a2f84351e818c3527f3f44b806cd64c84d7a8c86\",\"dweb:/ipfs/QmUPZstaKjPN7VTywg3Mt6bF75E53mQbmXhf3TxCggJbRR\"],\"license\":\"MIT\"},\"node_modules/@bananapus/buyback-hook/src/interfaces/external/IWETH9.sol\":{\"keccak256\":\"0x50083bcaca6c1a8d12c79116fab4f6d8cd452a510cb3f00c4a8bc3a54678efb7\",\"urls\":[\"bzz-raw://726f187112d0953c14bff8099a8c9ce1ead47eb25e90839f77b100feaaf16127\",\"dweb:/ipfs/QmTEnMENpLjcTQLMwz4kEUiQHfiTkaZT3TL37nQ8JiRYh5\"],\"license\":\"GPL-2.0-or-later\"},\"node_modules/@bananapus/core/src/abstract/JBPermissioned.sol\":{\"keccak256\":\"0xbe593894bc9893f7fe5c96f14c013add8f50df762538e3d7cb96ed39ad195664\",\"urls\":[\"bzz-raw://efb81264b24776e6be537680abaeb8c4893e70d8a62231748d860e25a7c2340d\",\"dweb:/ipfs/QmacN9gFgPqkhTEwRD7Zben3whq9DRr2ZkSmScGvioTXXR\"],\"license\":\"MIT\"},\"node_modules/@bananapus/core/src/enums/JBApprovalStatus.sol\":{\"keccak256\":\"0x61c69b6bac7d24b566d87cda23a77e4ca9cdb87200b106aba8534cb9a0973e33\",\"urls\":[\"bzz-raw://6a9ca7249de76f77a8252eefe6bd1b63d47952f25a2acfa2c8db967cdff4470c\",\"dweb:/ipfs/QmaxSxptRQNj8bNy96EreENmrnRWdKmhyihBcxyWzBX5BN\"],\"license\":\"MIT\"},\"node_modules/@bananapus/core/src/interfaces/IJBControlled.sol\":{\"keccak256\":\"0x79fb8de7b3f809f1c3c7189f578b7331ec4dfe3350151d5b50240ecb3a2a907b\",\"urls\":[\"bzz-raw://45c82240dd4f0e9aec00d0d86f6b44bdda231db098ebdac17e922771b3e6f342\",\"dweb:/ipfs/QmPUvT8HZeVenrZDpP14HsZofaXPJjih8UAd35rTg3tU7E\"],\"license\":\"MIT\"},\"node_modules/@bananapus/core/src/interfaces/IJBController.sol\":{\"keccak256\":\"0xfe88b4ddf528542fde8f8fcc650281f48ca291d5432ec3f02cf8f064ecd79b22\",\"urls\":[\"bzz-raw://f71da06a55abca8cdcc447fd554df2fa2377a276679b2113f2cec8db635d70a4\",\"dweb:/ipfs/QmT3H3aWByCVVAhiB1DrPuG1Scm4GtyXWVcEP1p7GCmVJA\"],\"license\":\"MIT\"},\"node_modules/@bananapus/core/src/interfaces/IJBDirectory.sol\":{\"keccak256\":\"0xd15957cc32974cde4f9f194b92574df2ad8a7aeec049d947136ce3381f9145f6\",\"urls\":[\"bzz-raw://7543e5cbde75ff777b16067016ff9ac5e995752842f03662137eb4ef3fc3c868\",\"dweb:/ipfs/QmPJZAmqNKRcj1JQ4Kc9hExbMtPPzrRB5hZ787utCfBmXg\"],\"license\":\"MIT\"},\"node_modules/@bananapus/core/src/interfaces/IJBDirectoryAccessControl.sol\":{\"keccak256\":\"0x1e67f56849320a46f834aaa9bd62b170ff8ada7b224b4a81136193740fa0be4d\",\"urls\":[\"bzz-raw://ea8fbcec44abfe49d137bcae129b67e5479d6b17879301f88534c8a7fab00be4\",\"dweb:/ipfs/QmT6wrtYX4GRpffHUzupNwYebJ1dqkkKZLEewWsoyunsqw\"],\"license\":\"MIT\"},\"node_modules/@bananapus/core/src/interfaces/IJBFundAccessLimits.sol\":{\"keccak256\":\"0x2a2ece23837bedde2fddb728476e558bc37c644f641d397a8e08e8a1a85ea390\",\"urls\":[\"bzz-raw://f44187b5a720cdbe5af325331a5e351fc8504853836fb54b997c597949246726\",\"dweb:/ipfs/QmSKM2aMpnof458iCeui2Wkf7S8FfBRGs9zF3QG5DJLf7C\"],\"license\":\"MIT\"},\"node_modules/@bananapus/core/src/interfaces/IJBMigratable.sol\":{\"keccak256\":\"0xd69bd5aba01a68d82c303ef3adde47532abcace030a94296c3ea6988b401789c\",\"urls\":[\"bzz-raw://88f11a1c89899327746beba4fc830abf3ac2eb9c152c778e884a6eed6564971f\",\"dweb:/ipfs/QmTpKhSTVewpz7VyKcz6BJwH2LFKMwT7Qi5HNWmjEjwsdK\"],\"license\":\"MIT\"},\"node_modules/@bananapus/core/src/interfaces/IJBPayHook.sol\":{\"keccak256\":\"0xe24aa2ca52f7a5f24f24ccae101cfc94d0f76705b2d23222f87c7852f8be4267\",\"urls\":[\"bzz-raw://6888140e9a7d4156fd22635654d5d08e21819af8b0356b5415f37b75083b3eb9\",\"dweb:/ipfs/QmbuwBNhar7rEbRhTJPiyo5PVsfaM5nqLow9NAkHhyvjV5\"],\"license\":\"MIT\"},\"node_modules/@bananapus/core/src/interfaces/IJBPermissioned.sol\":{\"keccak256\":\"0x5b038d4dee116584e88b230920e56d48e135053e3f7e5642eaea14a775c1dad7\",\"urls\":[\"bzz-raw://19e43102f349fd4a1da1c0943ffb8f2950007fe4bb4bb7e8f74fc142575d091b\",\"dweb:/ipfs/QmXHAt4KzDTdDZgDDefEXH2WKi7NcfkJb9R7nxW5uDqsNp\"],\"license\":\"MIT\"},\"node_modules/@bananapus/core/src/interfaces/IJBPermissions.sol\":{\"keccak256\":\"0x18870e500edf0fbadc353e273a5574701fb80466376b908c65e7cc3f11044d4d\",\"urls\":[\"bzz-raw://352a47c45853aec80e7acf0d286ade3106eb4cb456776b28a3c2f3f1091bed90\",\"dweb:/ipfs/QmQeYd3YbudYZy2hfbfht9kwhxhw4tuuLKMEYy9UY6dcSy\"],\"license\":\"MIT\"},\"node_modules/@bananapus/core/src/interfaces/IJBPriceFeed.sol\":{\"keccak256\":\"0x4bd84c0f1a5d4729ed709bcddd43f4c50ec4a165ece79780af8dce482ed07d4a\",\"urls\":[\"bzz-raw://62bac4bfb6982fb002f620c77e5c445e62d50241a5aa64a07e51d929f5a42180\",\"dweb:/ipfs/QmWgJUDreVY2BuMX38a1iUUR5kNbMwGnKG3VvurB7oZtuM\"],\"license\":\"MIT\"},\"node_modules/@bananapus/core/src/interfaces/IJBPrices.sol\":{\"keccak256\":\"0x99525f31440b955742dce84ba57de9fc1221139b5367c1f834723bef9e13e6e1\",\"urls\":[\"bzz-raw://6fa03f0cd4ad87dd7cbae7bf7f54463450874291773c8f70f2c31ef2cae62bb0\",\"dweb:/ipfs/QmSPajPV5ismteJuB6Spzm9VmhTj2iS3eVrfpJC1Zuzg8n\"],\"license\":\"MIT\"},\"node_modules/@bananapus/core/src/interfaces/IJBProjectUriRegistry.sol\":{\"keccak256\":\"0x2799475228987e4f8334ac33d3935f759c9b8133db7383b4f622dde7a5dc0502\",\"urls\":[\"bzz-raw://d751731740f45df74eea48c9667e847ee2cddb2980ab4939c86bd17e6c6ed89b\",\"dweb:/ipfs/QmXW8SLTuhdUpfn7pRpdsYdcyuim8RTyagU37ULcj5UZhT\"],\"license\":\"MIT\"},\"node_modules/@bananapus/core/src/interfaces/IJBProjects.sol\":{\"keccak256\":\"0x85539f72c5871c53a919edc7db78931155464e9e00fccd30079b17e75820ddb9\",\"urls\":[\"bzz-raw://505466dbfbdeec77f948ce065676897a5b4a74b70bb234c1053b893c4849f3a1\",\"dweb:/ipfs/QmYBpZQub3Mv19xsRWqvzgiQSBAp4UNaKcqWQ2wwH62H95\"],\"license\":\"MIT\"},\"node_modules/@bananapus/core/src/interfaces/IJBRedeemHook.sol\":{\"keccak256\":\"0x4ea5b7ed510c9d29aca47ae3f8b41ef075dff4b9909779ec2c0e5b7bc30250c6\",\"urls\":[\"bzz-raw://770b785134ba71e3284dc7e05e44f429e7a8393423ad45cf8fe540408a5b9633\",\"dweb:/ipfs/QmRjXJxZPA1qZos7QjeCxJZ8sCfXfkyDFbzkdqzaqCD9Ds\"],\"license\":\"MIT\"},\"node_modules/@bananapus/core/src/interfaces/IJBRulesetApprovalHook.sol\":{\"keccak256\":\"0x5e9f921a6aa5d9396a12bbc0a878c3f5e8ae0a4ce8a3abe0de12e300718838d7\",\"urls\":[\"bzz-raw://6c9f0610f5bbe07554a1bdc39041be1284c20d81d930bec1eee2d374b86e03f4\",\"dweb:/ipfs/QmPH57wBoPERwDWkBCcj9c5tEUdeeLNe2kv1oFM7cTKVrd\"],\"license\":\"MIT\"},\"node_modules/@bananapus/core/src/interfaces/IJBRulesetDataHook.sol\":{\"keccak256\":\"0x3fea9fcab6f0335e67f0f052cf5d3446e9310808f88b5878d21586be00f89f85\",\"urls\":[\"bzz-raw://5506848f471d308a14523f91202d76d960f8255e227d29d34b0892ef70315cae\",\"dweb:/ipfs/QmakRKFctSZobpem1caU2zXqhiPQnaYVa7Y6NdAPAonHaU\"],\"license\":\"MIT\"},\"node_modules/@bananapus/core/src/interfaces/IJBRulesets.sol\":{\"keccak256\":\"0xda1a9aef337cf9fede3f638ffa58aea2815b87fde0f79628834aa03af9f582d7\",\"urls\":[\"bzz-raw://7941690ba6d94500474978ff0f02ecc56335eae5937759878e25cc1ac30a8ecc\",\"dweb:/ipfs/QmZFc7wof6PzfBTkVyNkjaQrQbjc36CK4uC3Ee2vgihqyK\"],\"license\":\"MIT\"},\"node_modules/@bananapus/core/src/interfaces/IJBSplitHook.sol\":{\"keccak256\":\"0xc99bb76736acc5c6409d1ff54cb90218b547fdf7f8a7c0d03ddb7ac9eb35645e\",\"urls\":[\"bzz-raw://7fa7e56f426a758e6125e58d81137569964e46bdfeaf9ea081b9382d80b536a9\",\"dweb:/ipfs/Qmc1wwfBP4xoGKe4BcDnwL11y3Gvk4Dk8r6qqWD4jbdKK4\"],\"license\":\"MIT\"},\"node_modules/@bananapus/core/src/interfaces/IJBSplits.sol\":{\"keccak256\":\"0x2f415b55c1d7b7fdd9ee938897a8a2b5b1c81d2ab2233d678953ea8ab9b3fb24\",\"urls\":[\"bzz-raw://f7cd02ef943cb49db501b300cbe56d5d62e4ac59caef5c38d697fdbdd21d5f9a\",\"dweb:/ipfs/QmXcxH6gBiBLes2kzSNDvPqVuDZxu1xyDPjfEziARMJhHb\"],\"license\":\"MIT\"},\"node_modules/@bananapus/core/src/interfaces/IJBToken.sol\":{\"keccak256\":\"0x911c93ec0053c1ce3c3a82ddefc8a2911f244b159b1b88fa2a7697b5455d67e0\",\"urls\":[\"bzz-raw://a29b34338ffe4310d6fa012cce351a8db98ad84dac40b6886fcbaa76145eefb2\",\"dweb:/ipfs/QmctiW2p99TaZLGBnavS3gE89p2KFoPfCPPpPvZDXsyMq9\"],\"license\":\"MIT\"},\"node_modules/@bananapus/core/src/interfaces/IJBTokenUriResolver.sol\":{\"keccak256\":\"0xfa5cb00dcd6085d1ef912d071fe73c63f9478a2cd0f9d8bddaf659b6af2d0967\",\"urls\":[\"bzz-raw://282e4e7c342d65f77cde0e9a08fcaf20ef5cf379c7a48b639842c0ffd0b2afb8\",\"dweb:/ipfs/QmbnN3PEQeZaXdPLT75V1J79kMg7KqSMru37RHrL3z8Yf2\"],\"license\":\"MIT\"},\"node_modules/@bananapus/core/src/interfaces/IJBTokens.sol\":{\"keccak256\":\"0xbbb3764d6b9d253f7a2b4e13636bf1d523d72be87b144dea6bbd7177b0953ffe\",\"urls\":[\"bzz-raw://417cdba44cf58c833785ec180918d297fcda2539d8476a978cd7d1d39c4b33d2\",\"dweb:/ipfs/QmSewvgMsjqS2fek8LXc4dNGBKhX6odnyNpzr9UmDX3WXE\"],\"license\":\"MIT\"},\"node_modules/@bananapus/core/src/interfaces/terminal/IJBTerminal.sol\":{\"keccak256\":\"0x36f23bc27e56fa86d100281a75f5a6ce73f39f32e6a1667ce69f902da1d005ee\",\"urls\":[\"bzz-raw://e8ffa2e264fa12444799cb5706ca577034f3f8be9ff7a2f072981de6a61d706d\",\"dweb:/ipfs/QmR6gQDymvk8JQ77J8VxpFD1Hnxga4w7LLiRvAT3m4LG6T\"],\"license\":\"MIT\"},\"node_modules/@bananapus/core/src/libraries/JBConstants.sol\":{\"keccak256\":\"0x9d3a9a953f859d8ec79a599577f8972de6da7199cc1bfa7fdad017d4d722bcb4\",\"urls\":[\"bzz-raw://f151fcb53a8d2684eff8b9e56ac790bcbcadd8199a4fd4d17c5b224b22936722\",\"dweb:/ipfs/QmdAz1ZtCE8nTiC4AxQNLfJhnY3ndGum2Lbef7seKdvTdR\"],\"license\":\"MIT\"},\"node_modules/@bananapus/core/src/libraries/JBMetadataResolver.sol\":{\"keccak256\":\"0xdbe40563934ac1618c9ba15f92d3efc47383534b5b8889bf5aae092927be9e87\",\"urls\":[\"bzz-raw://630534d226e7b1f86907f48c70b0d5593ad5682936330fe2737082e4383e8a56\",\"dweb:/ipfs/QmfTVQ6M3eVYBJRZH3693Axo7yBoR5mr2YvHHwx6nvJojZ\"],\"license\":\"MIT\"},\"node_modules/@bananapus/core/src/libraries/JBSplitGroupIds.sol\":{\"keccak256\":\"0x932ca2645d443f04f86c8ffb27b5c58c4fbdc7b5a145fba1d43f1db9bd488a0f\",\"urls\":[\"bzz-raw://fa412d2c5726a868a258cd518648726b0784ab7ac7566376b82ba09680f66227\",\"dweb:/ipfs/QmZvfjBt7PQzTWNzrhysyHBegUbbu4aY2xDzBGnwqMaqnF\"],\"license\":\"MIT\"},\"node_modules/@bananapus/core/src/structs/JBAccountingContext.sol\":{\"keccak256\":\"0x2907ff54d1e903cc7e0390dd88c3975884702dc2673642aacbe22b66560b56de\",\"urls\":[\"bzz-raw://a66a5381ce877b32f0e0058ceeaf843e9b6b2bc8af666c0c9f4a9d01091da004\",\"dweb:/ipfs/QmQynCetUr37dBkS1YwDS8evxuXGiqanW6THmeUxXtim8w\"],\"license\":\"MIT\"},\"node_modules/@bananapus/core/src/structs/JBAfterPayRecordedContext.sol\":{\"keccak256\":\"0xd26c3a774ff38be79064085970454fe2603a23a638c76270d5b1b3829206c3e8\",\"urls\":[\"bzz-raw://3b55dbe3bf1ef625b7ca04efab3de35406e6041d5b3d82c7265469c500e2b702\",\"dweb:/ipfs/QmUdBDo4Lt3mcsFcsXT2mqq3czFwZjQJFPLM89YA2VtD7k\"],\"license\":\"MIT\"},\"node_modules/@bananapus/core/src/structs/JBAfterRedeemRecordedContext.sol\":{\"keccak256\":\"0x521f5d23a36f0da72362cd84890cc867bd83baa8dc836ba6c5066d51dba2f163\",\"urls\":[\"bzz-raw://6cc461313286dde62d045d6288e87bae5032e035796326f5b1ed6218e58aa9da\",\"dweb:/ipfs/QmQS2AkQwf2ANQieDuaUnpJEdXChoLv4CCbZqHkfywYPSR\"],\"license\":\"MIT\"},\"node_modules/@bananapus/core/src/structs/JBBeforePayRecordedContext.sol\":{\"keccak256\":\"0x5b04e814da83c7e83ff892ab07eaad6abce6f7b85a75f8da9380e9fc3470bc81\",\"urls\":[\"bzz-raw://11c889aab993fce3e3cc2dedc15fc30dd367e7fef9b7b1bfd6a6a9f248781731\",\"dweb:/ipfs/QmVVtydCD1azeWhGLxA1hthxfLyKzMHZ1eVzCz3a3R5dLy\"],\"license\":\"MIT\"},\"node_modules/@bananapus/core/src/structs/JBBeforeRedeemRecordedContext.sol\":{\"keccak256\":\"0x73eadaf6827e82f6ccbe3a1e2b2b7fc6c59cef471f73335041b30ddcc000989d\",\"urls\":[\"bzz-raw://2f3ee84662eed565dbdaed406ef836fffaf55cccd417575578152e5085d0b1f2\",\"dweb:/ipfs/QmaJGFS7hxJsiUdKvbv5BKhSwceDEzKBnt7t5YeNWvYgMK\"],\"license\":\"MIT\"},\"node_modules/@bananapus/core/src/structs/JBCurrencyAmount.sol\":{\"keccak256\":\"0x12fe4b43f4824994624d4fe0abbd88c3fe7867fd637edb65c7f456dab27e2d6e\",\"urls\":[\"bzz-raw://8003a3e8f932cf891e86b827e67c9d31b0d34c2712e18c2bc333cfe5284ba6d5\",\"dweb:/ipfs/QmSoA6RsDcSnNzk6CB7KZtALkHmeSDAi2g6fg3TDmLDkWX\"],\"license\":\"MIT\"},\"node_modules/@bananapus/core/src/structs/JBFundAccessLimitGroup.sol\":{\"keccak256\":\"0x9fdaa8d017b72da25f583700a444a86849df053f7fb8eac874ec5139bcf651e5\",\"urls\":[\"bzz-raw://c8e44c49ee444a98424a0dbeb6897a76a0bf00d88a613f62ac2012afdac754ee\",\"dweb:/ipfs/QmdYkAiRi5bXM1YYNkc7BiqimHSFodMGn1cjHR5hcpm4xH\"],\"license\":\"MIT\"},\"node_modules/@bananapus/core/src/structs/JBPayHookSpecification.sol\":{\"keccak256\":\"0x955f0bfca97300b9e5927dc181753830ee362f83fa9ca32a90daade32aa0cfd5\",\"urls\":[\"bzz-raw://f517af1597c7c40f8d3da53f7a6684a3e162950a16559d6bf6ea3b727bb11546\",\"dweb:/ipfs/QmRWo2ZTYXmVZTzNJDYhsJNsEaHphjpUfx9eNz2cciyz86\"],\"license\":\"MIT\"},\"node_modules/@bananapus/core/src/structs/JBPermissionsData.sol\":{\"keccak256\":\"0x8f0f69a6ebf5f3704e3dfcb3712fb9d3f94ae7c1ab89bf3e37bad42a3e7a0487\",\"urls\":[\"bzz-raw://57b0c5e52843e2217082889ed47b4da3943e0da4590d5768dcebfe3edad4a6b8\",\"dweb:/ipfs/QmRz48vuWLw81kUP836rh1qzqWiJFGbksgRUA9xGEDNKTY\"],\"license\":\"MIT\"},\"node_modules/@bananapus/core/src/structs/JBRedeemHookSpecification.sol\":{\"keccak256\":\"0x673d16ee1a91bf8de3b37e57284e60451b70a9c2d748c9cdc7a151f5624af18f\",\"urls\":[\"bzz-raw://ceeb5e81effa0f076c5630c756dfcf1548d09f822b255a0a6ee01e54de8c8ae2\",\"dweb:/ipfs/QmSMoMNPRhPMnuJNvWa6S59XRfycGz9o2ApNp63bUW6TdX\"],\"license\":\"MIT\"},\"node_modules/@bananapus/core/src/structs/JBRuleset.sol\":{\"keccak256\":\"0x15b2bf3174d84846a91ccbf5a344dfb125b55ed9cf50102db8d6868844225189\",\"urls\":[\"bzz-raw://647416b025dbd941094db89cbc69f755c155bd6c87be3f322394ccc4a8e0442d\",\"dweb:/ipfs/QmTCL9xcHnxQ4t5AmCPoZvXDUPW5xhzhyyXYbkMdyg44au\"],\"license\":\"MIT\"},\"node_modules/@bananapus/core/src/structs/JBRulesetConfig.sol\":{\"keccak256\":\"0x344405b459a345fa2cb072b162422b4e85e435ff6ee82eb2c382bf52db929f10\",\"urls\":[\"bzz-raw://e067a0c3fd190cd00177800f8f065264985d4f6737a758f068a8bf5ed1cfdad0\",\"dweb:/ipfs/QmPAMiyfi1cDtandkMSXgoNdo3WLvwmvdcPGeKiot9TTaz\"],\"license\":\"MIT\"},\"node_modules/@bananapus/core/src/structs/JBRulesetMetadata.sol\":{\"keccak256\":\"0xfea54c9f98416d2aa05309e7ff76967d6968a614850a1e33e48fde793ea8b514\",\"urls\":[\"bzz-raw://bf55386cbab90dbc1296b2b0cbfdc217a4500d67702e4a093a4c78bd127ecd5c\",\"dweb:/ipfs/QmTRq9mZrNSXu7oCZwti4JbBFrbY6A5msRqi9RbtL49NAj\"],\"license\":\"MIT\"},\"node_modules/@bananapus/core/src/structs/JBRulesetWithMetadata.sol\":{\"keccak256\":\"0x1bcfadf20488f6df65227f8d4d0fbf9b7539456a2389567f7fe3900d23289bc3\",\"urls\":[\"bzz-raw://0a15c399a71e5373f8c0484c6d6b83521eda31e063a2c53e4c5cec4e74550343\",\"dweb:/ipfs/QmQwi8zkjoTVXbK89NeETYimWCacTrNsesJdpLSvGdqMPX\"],\"license\":\"MIT\"},\"node_modules/@bananapus/core/src/structs/JBSplit.sol\":{\"keccak256\":\"0x1d40fa4f1c911a53b9139f3d44d27cb58fa5c5d2cd793c7a21ccf52b9e61f848\",\"urls\":[\"bzz-raw://9897d2c29fc65fe16e4eac0b7b8b6fd8ef0b0cc501986f7f0c3a78c4ec1dbb60\",\"dweb:/ipfs/QmXcHoVjCYWWCz4hm2KZ6JxtB4YNq7jmXa2evLkga59Xwq\"],\"license\":\"MIT\"},\"node_modules/@bananapus/core/src/structs/JBSplitGroup.sol\":{\"keccak256\":\"0xda7da6e88aac2906c7ea4027660088daf217edc632bebca4d72795aae8921564\",\"urls\":[\"bzz-raw://ae1939d17e94cb51484f31ce64cf0df990445a338fb9b38d39a7baf28275ae4a\",\"dweb:/ipfs/QmUhPnJiWnYhFdtLvZnrPopAdbYXxETpGjvxjPDignpTGY\"],\"license\":\"MIT\"},\"node_modules/@bananapus/core/src/structs/JBSplitHookContext.sol\":{\"keccak256\":\"0xfe34e6860b00ca93d71f44e72882281b2c57c31303151af05795c74cfdd2e51d\",\"urls\":[\"bzz-raw://08acab094888e9c929b6f6f972d89ddbb31e5867675e7e7c602d25fcb2c0f402\",\"dweb:/ipfs/QmPNdXM185cTyXQSodVr4JMviHx88jrWu7dipgkp9xTNgJ\"],\"license\":\"MIT\"},\"node_modules/@bananapus/core/src/structs/JBTerminalConfig.sol\":{\"keccak256\":\"0x141b5d45c0b58dcddb1eeab34ec00c18c60415f8e594d1852c53e6f79dfe53ee\",\"urls\":[\"bzz-raw://ca995ea354eac6f5ebc8ef4fd5c8ece8c88698bac96da65c7aaa497a7bc0f582\",\"dweb:/ipfs/Qmf2BS1LHXtoQJuUYt4UisvYpA5dmieSq1gs51iQjNh2bw\"],\"license\":\"MIT\"},\"node_modules/@bananapus/core/src/structs/JBTokenAmount.sol\":{\"keccak256\":\"0x5cf0626b73a596c1e2da17c89ae039a7c0374310b060d48568d3b6c11fbe6180\",\"urls\":[\"bzz-raw://63348b50be95e2995409394a17caffc563a646f0972650a1230bf864fbd3219b\",\"dweb:/ipfs/QmZXZpS3SbFD5nWaCauf6AqbEhLURv5qsKHpThBvQgDU6u\"],\"license\":\"MIT\"},\"node_modules/@bananapus/ownable/src/JBOwnable.sol\":{\"keccak256\":\"0x4e8cfa06094e28b2b2ff682a58c1826708e00d18c3f7fa3d090dc1704d1754a0\",\"urls\":[\"bzz-raw://304b60474cd8ba0841d443c50961dcfaeea153757200935e7552919792b31041\",\"dweb:/ipfs/QmfXSn24EAZwesWLqzsdRKpQSbHq5s2K4fdJSMTSDxgSkL\"],\"license\":\"MIT\"},\"node_modules/@bananapus/ownable/src/JBOwnableOverrides.sol\":{\"keccak256\":\"0xdd96e5107de0e59aab8549a705815929aa40bb3caca06092783cdee7cbc4def1\",\"urls\":[\"bzz-raw://678846e476ce1fc6504fff7f1245593fdd49a5881e4657e820eaee3510038160\",\"dweb:/ipfs/QmPNSgJkZJpbSWQfkQBmhKAXjD8CC8spqv3MYLPb3utXca\"],\"license\":\"MIT\"},\"node_modules/@bananapus/ownable/src/interfaces/IJBOwnable.sol\":{\"keccak256\":\"0x2c513558439d763df03e8a68c1aef698618182fd44c285405c35597d52c65ad1\",\"urls\":[\"bzz-raw://11cc25c41fccc20cca29f93dd120e67760188fd2040ef0330a093d37fbfa2f8f\",\"dweb:/ipfs/QmWpxcv41eYmsNYT3ph1nts5pC7sp3EzwJxKDGebMqEbsH\"],\"license\":\"MIT\"},\"node_modules/@bananapus/ownable/src/struct/JBOwner.sol\":{\"keccak256\":\"0x5624ba356f01f722984c1b857a106f413b12e57bae1f762a81c16ee511e3325a\",\"urls\":[\"bzz-raw://3120b5649ac8b55158df138dcac03f6850fc988cc5a24a7cb06e6581265ca284\",\"dweb:/ipfs/QmQBSLxRT9j1MEERUt8dWbSsAjianbHpM2CFwciLK7MwaP\"],\"license\":\"MIT\"},\"node_modules/@bananapus/permission-ids/src/JBPermissionIds.sol\":{\"keccak256\":\"0xa21681d89f2cf9265a10e6fa63301658ccc62635058cd3c8307aaaec1a045ff3\",\"urls\":[\"bzz-raw://0c825382afb76e79feb81425991637d50d1f1fc4ccaa12953f1e1042853db8d3\",\"dweb:/ipfs/QmPAsLuTziQx8R5PzYrLYDKybc6Ykq8fwG46ofRxQwdjgn\"],\"license\":\"UNLICENSED\"},\"node_modules/@bananapus/suckers/src/interfaces/IBPSucker.sol\":{\"keccak256\":\"0x02a78d0c6d048fc4ead0fc2f0582bc81a216dc1f097d1e0e3a34a7b2c9490894\",\"urls\":[\"bzz-raw://173df43569bcb1a0daea23b997d67f4c68150cd722b2ce858e5c9fe01cf113e6\",\"dweb:/ipfs/QmaDXu6Xp9sRksBdry2p5turGJ5Uvhnzpwhs6UEXhqorM4\"],\"license\":\"MIT\"},\"node_modules/@bananapus/suckers/src/interfaces/IBPSuckerDeployer.sol\":{\"keccak256\":\"0xe252e890c4b5e12d5fa537a11cd2fad936f41be80240301ace8afca3de481222\",\"urls\":[\"bzz-raw://730855964dd0629f3d514ed52f59d80d02786733c3b8b5cf21e69524de7f8829\",\"dweb:/ipfs/QmUuoYEmnzUNn3hANGrg8sDZdjoaEbgWMWLepsSQt9MUyw\"],\"license\":\"MIT\"},\"node_modules/@bananapus/suckers/src/interfaces/IBPSuckerRegistry.sol\":{\"keccak256\":\"0xd6c68475ca7163782ebd2aacc2c9330def7e903c7b58d4990b0851551ec5cfe1\",\"urls\":[\"bzz-raw://776732725d15803f813cf727d5f1b0cf44b414df0611cbdbd821d4d993b184b9\",\"dweb:/ipfs/QmbgZF9KmcLZ6KAZwfuhP9ve7ukeJa2DdZxiVV6dMxzYK6\"],\"license\":\"UNLICENSED\"},\"node_modules/@bananapus/suckers/src/structs/BPSuckerDeployerConfig.sol\":{\"keccak256\":\"0x867e10bc73a07ab19cf5511d047dc885e3cfae58fc5f3441f6a5d3174afe6b78\",\"urls\":[\"bzz-raw://b8c3e72e57958bb2e2b8072ac6055804598c080a748fbc2f40a783575435809e\",\"dweb:/ipfs/QmbY7W6i5qAAj42EsQX8yt8M8nXArXByEGosnHWyxs4BE7\"],\"license\":\"MIT\"},\"node_modules/@bananapus/suckers/src/structs/BPTokenMapping.sol\":{\"keccak256\":\"0x84865bda925cdc9a608cbbfc487619acba391f98ae12bbbfdbc5779d617a17d9\",\"urls\":[\"bzz-raw://3bbc1fdd38feaf64fd4914bddb62cda7e5b8ee0f046a0eac8cfcb15f9493bcc5\",\"dweb:/ipfs/QmXgAx7sr1M8r71YrSeQJGAB1uhvdxpQyS633UgJvLCQfb\"],\"license\":\"MIT\"},\"node_modules/@croptop/core/src/CTPublisher.sol\":{\"keccak256\":\"0xfbe142d1a360651b86c105f32aaae7ec9bd476f93b6367138a90a5680e81adca\",\"urls\":[\"bzz-raw://63fccce679658cdafd516bee0c8757173c7adfabfe25a4d8b2ea057f46c321aa\",\"dweb:/ipfs/QmfL6NTxTcrJVTRxyiBku1hJSkZPLdBJse1SPmjjszw3cS\"],\"license\":\"MIT\"},\"node_modules/@croptop/core/src/structs/CTAllowedPost.sol\":{\"keccak256\":\"0x82f6cd062f1cba83c988a426c44151cfc1eae0b301c4dc135e5e7dac3e73eb40\",\"urls\":[\"bzz-raw://f76d5ae0e1aabb45e34450ffaa2a97804162a1ba1f1aa649de1c20312db7fcca\",\"dweb:/ipfs/QmdDggUUfQYagnXGGThcUevADHPyokvGtGBsDMCc9RxU1A\"],\"license\":\"MIT\"},\"node_modules/@croptop/core/src/structs/CTPost.sol\":{\"keccak256\":\"0x7e3dd85bc455816d7cf1b260fe53c7b1ff7512fce75ce3b6d9fdc094bcda33c8\",\"urls\":[\"bzz-raw://6cc25819e7ef95cb45ea71c54af01db95f75d0ccf1a23390a6153f4ae7df1c88\",\"dweb:/ipfs/QmTJCj1Rn7uEXRcaZBNqxrBXWXM9f24dphb9TaoLe3Ts41\"],\"license\":\"MIT\"},\"node_modules/@openzeppelin/contracts/token/ERC20/IERC20.sol\":{\"keccak256\":\"0xc6a8ff0ea489379b61faa647490411b80102578440ab9d84e9a957cc12164e70\",\"urls\":[\"bzz-raw://0ea104e577e63faea3b69c415637e99e755dcbf64c5833d7140c35a714d6d90c\",\"dweb:/ipfs/Qmau6x4Ns9XdyynRCNNp3RhLqijJjFm7z5fyZazfYFGYdq\"],\"license\":\"MIT\"},\"node_modules/@openzeppelin/contracts/token/ERC721/IERC721.sol\":{\"keccak256\":\"0x5ef46daa3b58ef2702279d514780316efaa952915ee1aa3396f041ee2982b0b4\",\"urls\":[\"bzz-raw://2f8f2a76e23b02fc69e8cd24c3cb47da6c7af3a2d6c3a382f8ac25c6e094ade7\",\"dweb:/ipfs/QmPV4ZS4tPVv4mTCf9ejyZ1ai57EEibDRj7mN2ARDCLV5n\"],\"license\":\"MIT\"},\"node_modules/@openzeppelin/contracts/token/ERC721/IERC721Receiver.sol\":{\"keccak256\":\"0x7f7a26306c79a65fb8b3b6c757cd74660c532cd8a02e165488e30027dd34ca49\",\"urls\":[\"bzz-raw://d01e0b2b837ee2f628545e54d8715b49c7ef2befd08356c2e7f6c50dde8a1c22\",\"dweb:/ipfs/QmWBAn6y2D1xgftci97Z3qR9tQnkvwQpYwFwkTvDMvqU4i\"],\"license\":\"MIT\"},\"node_modules/@openzeppelin/contracts/utils/Context.sol\":{\"keccak256\":\"0x493033a8d1b176a037b2cc6a04dad01a5c157722049bbecf632ca876224dd4b2\",\"urls\":[\"bzz-raw://6a708e8a5bdb1011c2c381c9a5cfd8a9a956d7d0a9dc1bd8bcdaf52f76ef2f12\",\"dweb:/ipfs/Qmax9WHBnVsZP46ZxEMNRQpLQnrdE4dK8LehML1Py8FowF\"],\"license\":\"MIT\"},\"node_modules/@openzeppelin/contracts/utils/introspection/ERC165.sol\":{\"keccak256\":\"0x9e8778b14317ba9e256c30a76fd6c32b960af621987f56069e1e819c77c6a133\",\"urls\":[\"bzz-raw://1777404f1dcd0fac188e55a288724ec3c67b45288e49cc64723e95e702b49ab8\",\"dweb:/ipfs/QmZFdC626GButBApwDUvvTnUzdinevC3B24d7yyh57XkiA\"],\"license\":\"MIT\"},\"node_modules/@openzeppelin/contracts/utils/introspection/IERC165.sol\":{\"keccak256\":\"0x4296879f55019b23e135000eb36896057e7101fb7fb859c5ef690cf14643757b\",\"urls\":[\"bzz-raw://87b3541437c8c443ccd36795e56a338ed12855eec17f8da624511b8d1a7e14df\",\"dweb:/ipfs/QmeJQCtZrQjtJLr6u7ZHWeH3pBnjtLWzvRrKViAi7UZqxL\"],\"license\":\"MIT\"},\"node_modules/@uniswap/v3-core/contracts/interfaces/IUniswapV3Pool.sol\":{\"keccak256\":\"0x4e64844c56061cd90e0a80de73534a9166704c43eed579eb83f90bc2780ce968\",\"urls\":[\"bzz-raw://cba4fab5cebdddf644b901994a7f0f52b98885d4c56012f4dc51d52c2bf9de0e\",\"dweb:/ipfs/QmVyyrRmqXrAiapewWunRVgiPVFJHpH2hKiE1py1svMSNV\"],\"license\":\"GPL-2.0-or-later\"},\"node_modules/@uniswap/v3-core/contracts/interfaces/callback/IUniswapV3SwapCallback.sol\":{\"keccak256\":\"0x3f485fb1a44e8fbeadefb5da07d66edab3cfe809f0ac4074b1e54e3eb3c4cf69\",\"urls\":[\"bzz-raw://095ce0626b41318c772b3ebf19d548282607f6a8f3d6c41c13edfbd5370c8652\",\"dweb:/ipfs/QmVDZfJJ89UUCE1hMyzqpkZAtQ8jUsBgZNE5AMRG7RzRFS\"],\"license\":\"GPL-2.0-or-later\"},\"node_modules/@uniswap/v3-core/contracts/interfaces/pool/IUniswapV3PoolActions.sol\":{\"keccak256\":\"0x9453dd0e7442188667d01d9b65de3f1e14e9511ff3e303179a15f6fc267f7634\",\"urls\":[\"bzz-raw://982f4328f956c3e60e67501e759eb292ac487f76460c774c50e9ae4fcc92aae5\",\"dweb:/ipfs/QmRnzEDsaqtd9PJEVcgQi7p5aV5pMSvRUoGZJAdwFUJxgZ\"],\"license\":\"GPL-2.0-or-later\"},\"node_modules/@uniswap/v3-core/contracts/interfaces/pool/IUniswapV3PoolDerivedState.sol\":{\"keccak256\":\"0xe603ac5b17ecdee73ba2b27efdf386c257a19c14206e87eee77e2017b742d9e5\",\"urls\":[\"bzz-raw://8febc9bdb399a4d94bb89f5377732652e2400e4a8dee808201ade6848f9004e7\",\"dweb:/ipfs/QmaKDqYYFU4d2W2iN77aDHptfbFmYZRrMYXHeGpJmM8C1c\"],\"license\":\"GPL-2.0-or-later\"},\"node_modules/@uniswap/v3-core/contracts/interfaces/pool/IUniswapV3PoolErrors.sol\":{\"keccak256\":\"0xf80abf13fb1fafc127ba4e792f240dd8ea7c8c893978cdfd8439c27fae9a037b\",\"urls\":[\"bzz-raw://b04fc72a656bbf3631e9c2e67b9870a2d9d235185e833fe050e9606e6816a9aa\",\"dweb:/ipfs/QmUcz4bkEkJ9pwzFu1C3n97hBQ3st9U6qTAqCdyFwddKco\"],\"license\":\"GPL-2.0-or-later\"},\"node_modules/@uniswap/v3-core/contracts/interfaces/pool/IUniswapV3PoolEvents.sol\":{\"keccak256\":\"0x8071514d0fe5d17d6fbd31c191cdfb703031c24e0ece3621d88ab10e871375cd\",\"urls\":[\"bzz-raw://d0b571930cc7488b1d546a7e9cea7c52d8b3c4e207da657ed0e0db7343b8cd03\",\"dweb:/ipfs/QmaGK6vVwB95QSTR1XMYvrh7ivYAYZxi3fD7v6VMA4jZ39\"],\"license\":\"GPL-2.0-or-later\"},\"node_modules/@uniswap/v3-core/contracts/interfaces/pool/IUniswapV3PoolImmutables.sol\":{\"keccak256\":\"0xf6e5d2cd1139c4c276bdbc8e1d2b256e456c866a91f1b868da265c6d2685c3f7\",\"urls\":[\"bzz-raw://b99c8c9ae8e27ee6559e5866bea82cbc9ffc8247f8d15b7422a4deb287d4d047\",\"dweb:/ipfs/QmfL8gaqt3ffAnm6nVj5ksuNpLygXuL3xq5VBqrkwC2JJ3\"],\"license\":\"GPL-2.0-or-later\"},\"node_modules/@uniswap/v3-core/contracts/interfaces/pool/IUniswapV3PoolOwnerActions.sol\":{\"keccak256\":\"0x759b78a2918af9e99e246dc3af084f654e48ef32bb4e4cb8a966aa3dcaece235\",\"urls\":[\"bzz-raw://64144fb96e1c7fdba87305acadb98a198d26a3d46c097cb3a666e567f6f29735\",\"dweb:/ipfs/QmUnWVwN9FKB9uV5Pr8YfLpWZnYM2DENnRMaadZ492JS9u\"],\"license\":\"GPL-2.0-or-later\"},\"node_modules/@uniswap/v3-core/contracts/interfaces/pool/IUniswapV3PoolState.sol\":{\"keccak256\":\"0x44fa2ce1182f6c2f6bead3d1737804bf7e112252ae86e0f2e92f9b8249603f43\",\"urls\":[\"bzz-raw://54154e8665b98d65f5dc91b256551852cb47882180b501b260657122d207c0ea\",\"dweb:/ipfs/QmcfemK1A2PXYrWB5SBFGERpMCderbFRb8BtTzQDj1sUBp\"],\"license\":\"GPL-2.0-or-later\"},\"src/REVBasicDeployer.sol\":{\"keccak256\":\"0x716d989428131382b33ca935104e2a801788e5e4b7882bdda4b08ea0a727a25f\",\"urls\":[\"bzz-raw://d8f31ae29acac7e7eaaede62f460cebd2ce6cbc4de71de7f5fc1267ace85161a\",\"dweb:/ipfs/QmaJwuYjF3VhPwHkB5w6X3mUhd6KQtqKawhZMY1Mj61Cny\"],\"license\":\"MIT\"},\"src/REVCroptopDeployer.sol\":{\"keccak256\":\"0x9db8770d63a85439f10b2e744d70fd09155f81e1d111c06987dc6b02ced6927a\",\"urls\":[\"bzz-raw://935a104cf31a5976387512c6ca6b6c90fd37897a19731758a37681a8722c9bb8\",\"dweb:/ipfs/QmTdZh3vJ1dtd8dcRcHqQocPwggGrH2r1JKQNhmWo6BwZy\"],\"license\":\"MIT\"},\"src/REVPayHookDeployer.sol\":{\"keccak256\":\"0x71ece8c11b2bfdde4729de07279d424db586c1f4e835e7d3a262325d1fa7000f\",\"urls\":[\"bzz-raw://6678f04b157eccee26b8283c36748b7209e7b43ec5c93895d7fc91d5473dc8ab\",\"dweb:/ipfs/QmUiAVcJfnTdHKCTreC6fp7p8ug2R24yfyyUgaXiA37iBu\"],\"license\":\"MIT\"},\"src/REVTiered721HookDeployer.sol\":{\"keccak256\":\"0x9d232113ce1c89d447b2cdf4aa80f96dabaa6f677e117129d4741317a7815554\",\"urls\":[\"bzz-raw://b0a9eb0bfefaac444e6fd8024a00d6458ed495e36123f96846d3b2e8b4d165aa\",\"dweb:/ipfs/QmZVf7NiV53X34TvfHDcLVYPXrtxZBU56gvdAR3LCv1TJH\"],\"license\":\"MIT\"},\"src/interfaces/IREVBasicDeployer.sol\":{\"keccak256\":\"0x423c94dc2bccf82fcf5f9cf6554ab6951cb1d5c853066e01381560123d5e7b8d\",\"urls\":[\"bzz-raw://7f035583b823f96c6b96ead45fdcac6f1cd0c2046b7da5c50bc7f8f2f35a93c0\",\"dweb:/ipfs/QmSfyNXGNXF62sHeQ5qHBuokQNpsemnwqs1imrxGjQ2MeK\"],\"license\":null},\"src/structs/REVBuybackHookConfig.sol\":{\"keccak256\":\"0xdae5ecff2ff2a04c0aab17093f023b2161994dc0e6e2adc5006d36d157eb09aa\",\"urls\":[\"bzz-raw://5e0eed08e652290f59c0d18565df21be3fc7b33ca3fa41c393461472479e4a7f\",\"dweb:/ipfs/QmfZcbmdvYDQwEE4eesGpcxdojAm9BhJ81fdkxjX9LU9Sa\"],\"license\":\"MIT\"},\"src/structs/REVBuybackPoolConfig.sol\":{\"keccak256\":\"0x83f2a3875a8b1955856b72bfddd90c0cc2fbe26697f1dd4e13b33c0319049a14\",\"urls\":[\"bzz-raw://e1e37d0eb626221b6a8774a155a3799dc5cf0b497d26263ef323ed768d61a0dc\",\"dweb:/ipfs/QmcSPDAaPemjh3a1XycV4qDMJwctnuwiKe3wXrRUjotKAB\"],\"license\":\"MIT\"},\"src/structs/REVConfig.sol\":{\"keccak256\":\"0x4f8dc19d47b7bc25bf9e0c00c88c8c2fb67a54eb6218e44ae142df779e5a7841\",\"urls\":[\"bzz-raw://3acc4ce8cf6295d5e4e29923fa3fb53dd001a61eec699308124cde47129a4d8d\",\"dweb:/ipfs/QmRVJDwLm5E8HaN7jV2d4vee1ZZwhuY2o9jrfHromggj7J\"],\"license\":\"MIT\"},\"src/structs/REVCroptopAllowedPost.sol\":{\"keccak256\":\"0xbeba2acfc8a139c2c9d7c3feb5ba14b369e030aeaa21b3d1ef35fc08ea5ecb7b\",\"urls\":[\"bzz-raw://34e756eb728e230de3b411b92272a10807c3a25adab48eba41b4da6c233a7ecc\",\"dweb:/ipfs/QmSDm1FYFXo8MVTutjyPMrCrNzsJproX8guN2htT3Jzsxq\"],\"license\":\"MIT\"},\"src/structs/REVDeploy721TiersHookConfig.sol\":{\"keccak256\":\"0x6dec52939e342a5e7c687850b3e7222857f49fd7819c0056bafe8fcabfe8f216\",\"urls\":[\"bzz-raw://afb89096d51603b25e68c099eb92741821fcbf7e876fc71955d6a2c2ca27c32b\",\"dweb:/ipfs/QmSy8GS1NJL1FCtPBS4nvVp4KsLJvJRmvTtuLbmgLSR2vt\"],\"license\":\"MIT\"},\"src/structs/REVDescription.sol\":{\"keccak256\":\"0x442ed3ba702044b41ca22679ad953bba22dcaef32ae6bb5b2dafac05652ba71d\",\"urls\":[\"bzz-raw://fafc3ad3ef04a26877cce8d6f53b1d1b2402a97b27e2f6154ee3a85414fa7914\",\"dweb:/ipfs/Qmd5gvhjRJk7ZkWQT31Wc2ssSqCZ3zyrc5n4CeffWuh8xd\"],\"license\":\"MIT\"},\"src/structs/REVStageConfig.sol\":{\"keccak256\":\"0x283d1e0c8cb246bca2be6a04c6f4ed9d657c07fa97f14cbca19ef9536d40057b\",\"urls\":[\"bzz-raw://0c6333266729cbb9e18ade3e215d8aa4774df4050c281691d12d18b89ab74513\",\"dweb:/ipfs/QmVmPPEm5pD57wA4mAbz4LPLPwWR4Wt3WT3DbEALa9PmxM\"],\"license\":\"MIT\"},\"src/structs/REVSuckerDeploymentConfig.sol\":{\"keccak256\":\"0xed607665da0efa1a1662a7e094095f336bef2d6694f79e5d8158cacf73c34dac\",\"urls\":[\"bzz-raw://c8c68b67a28a7dfc060596cfb98b7fc05ad0c9b61482f60a04810bc68cc0b8e3\",\"dweb:/ipfs/QmeLH5z8J6DDjRQXfJi4BoMmQqY4zTjERYfSzu8Uypkawp\"],\"license\":\"MIT\"}},\"version\":1}",
			"args": [
				"0xdAF6226Aafe296bbCCBEC815133386Cd910Ed582",
				"0xcDFA45A183fa6841eD1Ef8550FCa0a8aAb42eC34",
				"0x06350909758b8c7B07f2782dB1b9B821d807D06C",
				"0x4Be9d88bE6e7A38644EA746cF78cB1BF30051C76"
			],
			"bytecode": "0x60e06040523480156200001157600080fd5b5060405162005bd538038062005bd58339810160408190526200003491620000f9565b6001600160a01b03938416608052831660a052600280546001808201835560127f405787fa12a823e0f2b7631cc41b3ba8828b3321ca811111fa75cd3aa3bb5ace9283015582548082019093556019929091019190915591831660c052600480546001600160a01b031916919093161790915560058054918201815560005260167f036b6384b5eca791c62761152d0c79bb0604c104a5fb6f4eb0703f3154bb3db09091015562000161565b6001600160a01b0381168114620000f657600080fd5b50565b600080600080608085870312156200011057600080fd5b84516200011d81620000e0565b60208601519094506200013081620000e0565b60408601519093506200014381620000e0565b60608601519092506200015681620000e0565b939692955090935050565b60805160a05160c0516159b86200021d600039600081816103490152611d0c01526000818161037001528181610c0801528181610ff3015281816116c401528181611a5a015281816124bb015261255a0152600081816103dd0152818161049c015281816107cc0152818161112d015281816112e0015281816114bc0152818161181801528181611b0201528181611ee001528181612022015281816120c701528181612163015281816122ec015261240501526159b86000f3fe608060405234801561001057600080fd5b50600436106101515760003560e01c80637485ecf3116100cd578063b5d2553311610081578063d3cee0ee11610066578063d3cee0ee146103a5578063dbfbe5da146103b8578063ee0fc121146103d857600080fd5b8063b5d255331461036b578063bb1994021461039257600080fd5b80639d82ba25116100b25780639d82ba2514610317578063aaf320d714610321578063abf8c5c81461034457600080fd5b80637485ecf3146102ef57806389b396ab1461030257600080fd5b806343681e15116101245780635c0a7cee116101095780635c0a7cee14610261578063677ce088146102815780637249a7731461029457600080fd5b806343681e15146102205780634c4ffc711461024057600080fd5b806301ffc9a714610156578063150b7a021461017e578063158b48b5146101c25780633fe422bd146101ff575b600080fd5b610169610164366004612f56565b6103ff565b60405190151581526020015b60405180910390f35b61019161018c366004612fd4565b610498565b6040517fffffffff000000000000000000000000000000000000000000000000000000009091168152602001610175565b6101d56101d0366004613f19565b6105ac565b6040805192835273ffffffffffffffffffffffffffffffffffffffff909116602083015201610175565b61021261020d366004614045565b610977565b604051908152602001610175565b61021261022e366004614126565b60016020526000908152604090205481565b61025361024e36600461413f565b6109a1565b604051610175929190614288565b61027461026f366004614126565b610e59565b60405161017591906142a9565b61016961028f3660046142bc565b610f8a565b6102ca6102a2366004614126565b60006020819052908152604090205473ffffffffffffffffffffffffffffffffffffffff1681565b60405173ffffffffffffffffffffffffffffffffffffffff9091168152602001610175565b6102126102fd3660046142ec565b611111565b6103156103103660046142bc565b61112b565b005b6102126276a70081565b61033461032f366004614399565b6116a7565b60405161017594939291906143d5565b6102ca7f000000000000000000000000000000000000000000000000000000000000000081565b6102ca7f000000000000000000000000000000000000000000000000000000000000000081565b6103156103a03660046144a0565b611816565b6101d56103b336600461450d565b611afd565b6004546102ca9073ffffffffffffffffffffffffffffffffffffffff1681565b6102ca7f000000000000000000000000000000000000000000000000000000000000000081565b60007fffffffff0000000000000000000000000000000000000000000000000000000082167f81c03c2e00000000000000000000000000000000000000000000000000000000148061049257507f01ffc9a7000000000000000000000000000000000000000000000000000000007fffffffff000000000000000000000000000000000000000000000000000000008316145b92915050565b60007f000000000000000000000000000000000000000000000000000000000000000073ffffffffffffffffffffffffffffffffffffffff1663293c49996040518163ffffffff1660e01b8152600401602060405180830381865afa158015610505573d6000803e3d6000fd5b505050506040513d601f19601f820116820180604052508101906105299190614614565b73ffffffffffffffffffffffffffffffffffffffff163373ffffffffffffffffffffffffffffffffffffffff161461056057600080fd5b73ffffffffffffffffffffffffffffffffffffffff85161561058157600080fd5b507f150b7a020000000000000000000000000000000000000000000000000000000095945050505050565b6000806105be8a8a8a8a8a8a8a611afd565b8451919350915060008167ffffffffffffffff8111156105e0576105e0613073565b60405190808252806020026020018201604052801561066057816020015b61064d6040518060c00160405280600073ffffffffffffffffffffffffffffffffffffffff16815260200160008152602001600081526020016000815260200160008152602001606081525090565b8152602001906001900390816105fe5790505b5090506106956040518060a0016040528060008152602001600081526020016000815260200160008152602001606081525090565b60005b83811015610738578681815181106106b2576106b2614631565b602002602001015191506040518060c001604052808673ffffffffffffffffffffffffffffffffffffffff16815260200183600001518152602001836020015181526020018360400151815260200183606001518152602001836080015181525083828151811061072557610725614631565b6020908102919091010152600101610698565b508551156107ca57600480546040517fab54877a00000000000000000000000000000000000000000000000000000000815273ffffffffffffffffffffffffffffffffffffffff9091169163ab54877a916107979189918791016146b2565b600060405180830381600087803b1580156107b157600080fd5b505af11580156107c5573d6000803e3d6000fd5b505050505b7f000000000000000000000000000000000000000000000000000000000000000073ffffffffffffffffffffffffffffffffffffffff1663f434c9146040518163ffffffff1660e01b8152600401602060405180830381865afa158015610835573d6000803e3d6000fd5b505050506040513d601f19601f820116820180604052508101906108599190614614565b73ffffffffffffffffffffffffffffffffffffffff166305d2912e306040518060600160405280600460009054906101000a900473ffffffffffffffffffffffffffffffffffffffff1673ffffffffffffffffffffffffffffffffffffffff168152602001898152602001600580548060200260200160405190810160405280929190818152602001828054801561091057602002820191906000526020600020905b8154815260200190600101908083116108fc575b50505050508152506040518363ffffffff1660e01b815260040161093592919061478f565b600060405180830381600087803b15801561094f57600080fd5b505af1158015610963573d6000803e3d6000fd5b505050505050509850989650505050505050565b600061098b878787308661ffff1689611ec7565b90506109978184612692565b9695505050505050565b60c0810135600090815260208190526040812054606090819073ffffffffffffffffffffffffffffffffffffffff168015610a91576040517f4c4ffc7100000000000000000000000000000000000000000000000000000000815273ffffffffffffffffffffffffffffffffffffffff821690634c4ffc7190610a28908890600401614912565b600060405180830381865afa158015610a45573d6000803e3d6000fd5b505050506040513d6000823e601f3d9081017fffffffffffffffffffffffffffffffffffffffffffffffffffffffffffffffe0168201604052610a8b9190810190614a01565b90945091505b815160c086013560009081526003602090815260408083208054825181850281018501909352808352941515949192909190849084015b82821015610bb95760008481526020908190206040805160608101825260038602909201805473ffffffffffffffffffffffffffffffffffffffff16835260018101549383019390935260028301805492939291840191610b2890614b67565b80601f0160208091040260200160405190810160405280929190818152602001828054610b5490614b67565b8015610ba15780601f10610b7657610100808354040283529160200191610ba1565b820191906000526020600020905b815481529060010190602001808311610b8457829003601f168201915b50505050508152505081526020019060010190610ac8565b50506040517f3d12cb8700000000000000000000000000000000000000000000000000000000815260c08b0135600482015292935060009273ffffffffffffffffffffffffffffffffffffffff7f0000000000000000000000000000000000000000000000000000000000000000169250633d12cb879150602401600060405180830381865afa158015610c51573d6000803e3d6000fd5b505050506040513d6000823e601f3d9081017fffffffffffffffffffffffffffffffffffffffffffffffffffffffffffffffe0168201604052610c979190810190614bba565b825181519192509084610cab576000610cae565b60015b60ff16610cbb8284614c83565b610cc59190614c83565b67ffffffffffffffff811115610cdd57610cdd613073565b604051908082528060200260200182016040528015610d2a57816020015b60408051606080820183526000808352602083015291810191909152815260200190600190039081610cfb5790505b50975060005b82811015610d7757848181518110610d4a57610d4a614631565b6020026020010151898281518110610d6457610d64614631565b6020908102919091010152600101610d30565b5060005b81811015610e0d576040518060600160405280858381518110610da057610da0614631565b602002602001015173ffffffffffffffffffffffffffffffffffffffff1681526020016000815260200160405180602001604052806000815250815250898285610dea9190614c83565b81518110610dfa57610dfa614631565b6020908102919091010152600101610d7b565b508415610e4d5786600081518110610e2757610e27614631565b6020026020010151888381518110610e4157610e41614631565b60200260200101819052505b50505050505050915091565b606060036000838152602001908152602001600020805480602002602001604051908101604052809291908181526020016000905b82821015610f7f5760008481526020908190206040805160608101825260038602909201805473ffffffffffffffffffffffffffffffffffffffff16835260018101549383019390935260028301805492939291840191610eee90614b67565b80601f0160208091040260200160405190810160405280929190818152602001828054610f1a90614b67565b8015610f675780601f10610f3c57610100808354040283529160200191610f67565b820191906000526020600020905b815481529060010190602001808311610f4a57829003601f168201915b50505050508152505081526020019060010190610e8e565b505050509050919050565b60008281526020819052604081205473ffffffffffffffffffffffffffffffffffffffff90811690831603610fc157506001610492565b6040517f3d12cb87000000000000000000000000000000000000000000000000000000008152600481018490526000907f000000000000000000000000000000000000000000000000000000000000000073ffffffffffffffffffffffffffffffffffffffff1690633d12cb8790602401600060405180830381865afa15801561104f573d6000803e3d6000fd5b505050506040513d6000823e601f3d9081017fffffffffffffffffffffffffffffffffffffffffffffffffffffffffffffffe01682016040526110959190810190614bba565b805190915060005b81811015611105578281815181106110b7576110b7614631565b602002602001015173ffffffffffffffffffffffffffffffffffffffff168573ffffffffffffffffffffffffffffffffffffffff16036110fd5760019350505050610492565b60010161109d565b50600095945050505050565b600061112285858530600087611ec7565b95945050505050565b7f000000000000000000000000000000000000000000000000000000000000000073ffffffffffffffffffffffffffffffffffffffff16631f47ce696040518163ffffffff1660e01b8152600401602060405180830381865afa158015611196573d6000803e3d6000fd5b505050506040513d601f19601f820116820180604052508101906111ba9190614614565b73ffffffffffffffffffffffffffffffffffffffff1663f434c9146040518163ffffffff1660e01b8152600401602060405180830381865afa158015611204573d6000803e3d6000fd5b505050506040513d601f19601f820116820180604052508101906112289190614614565b73ffffffffffffffffffffffffffffffffffffffff16630f5932f033308560026040518563ffffffff1660e01b81526004016112679493929190614c96565b602060405180830381865afa158015611284573d6000803e3d6000fd5b505050506040513d601f19601f820116820180604052508101906112a89190614d14565b6112de576040517f31fb21f300000000000000000000000000000000000000000000000000000000815260040160405180910390fd5b7f000000000000000000000000000000000000000000000000000000000000000073ffffffffffffffffffffffffffffffffffffffff16631f47ce696040518163ffffffff1660e01b8152600401602060405180830381865afa158015611349573d6000803e3d6000fd5b505050506040513d601f19601f8201168201806040525081019061136d9190614614565b73ffffffffffffffffffffffffffffffffffffffff1663f434c9146040518163ffffffff1660e01b8152600401602060405180830381865afa1580156113b7573d6000803e3d6000fd5b505050506040513d601f19601f820116820180604052508101906113db9190614614565b73ffffffffffffffffffffffffffffffffffffffff166305d2912e3060405180606001604052803373ffffffffffffffffffffffffffffffffffffffff168152602001868152602001600067ffffffffffffffff81111561143e5761143e613073565b604051908082528060200260200182016040528015611467578160200160208202803683370190505b508152506040518363ffffffff1660e01b815260040161148892919061478f565b600060405180830381600087803b1580156114a257600080fd5b505af11580156114b6573d6000803e3d6000fd5b505050507f000000000000000000000000000000000000000000000000000000000000000073ffffffffffffffffffffffffffffffffffffffff16631f47ce696040518163ffffffff1660e01b8152600401602060405180830381865afa158015611525573d6000803e3d6000fd5b505050506040513d601f19601f820116820180604052508101906115499190614614565b73ffffffffffffffffffffffffffffffffffffffff1663f434c9146040518163ffffffff1660e01b8152600401602060405180830381865afa158015611593573d6000803e3d6000fd5b505050506040513d601f19601f820116820180604052508101906115b79190614614565b73ffffffffffffffffffffffffffffffffffffffff166305d2912e3060405180606001604052808573ffffffffffffffffffffffffffffffffffffffff168152602001868152602001600280548060200260200160405190810160405280929190818152602001828054801561164c57602002820191906000526020600020905b815481526020019060010190808311611638575b50505050508152506040518363ffffffff1660e01b815260040161167192919061478f565b600060405180830381600087803b15801561168b57600080fd5b505af115801561169f573d6000803e3d6000fd5b505050505050565b60008080606073ffffffffffffffffffffffffffffffffffffffff7f0000000000000000000000000000000000000000000000000000000000000000166383db9d01604087018035906116fd9060208a01614d31565b6040517fffffffff0000000000000000000000000000000000000000000000000000000060e085901b168152600481019290925273ffffffffffffffffffffffffffffffffffffffff166024820152604401602060405180830381865afa15801561176c573d6000803e3d6000fd5b505050506040513d601f19601f820116820180604052508101906117909190614d14565b156117ad5761271085608001358660a0013593509350935061180f565b6040808601356000908152600160205220544210156117f8576040517f04c3b3cd00000000000000000000000000000000000000000000000000000000815260040160405180910390fd5b84610160013585608001358660a001359350935093505b9193509193565b7f000000000000000000000000000000000000000000000000000000000000000073ffffffffffffffffffffffffffffffffffffffff16631f47ce696040518163ffffffff1660e01b8152600401602060405180830381865afa158015611881573d6000803e3d6000fd5b505050506040513d601f19601f820116820180604052508101906118a59190614614565b73ffffffffffffffffffffffffffffffffffffffff1663f434c9146040518163ffffffff1660e01b8152600401602060405180830381865afa1580156118ef573d6000803e3d6000fd5b505050506040513d601f19601f820116820180604052508101906119139190614614565b73ffffffffffffffffffffffffffffffffffffffff16630f5932f033308660026040518563ffffffff1660e01b81526004016119529493929190614c96565b602060405180830381865afa15801561196f573d6000803e3d6000fd5b505050506040513d601f19601f820116820180604052508101906119939190614d14565b6119c9576040517f31fb21f300000000000000000000000000000000000000000000000000000000815260040160405180910390fd5b6000338383602001516040516020016119e493929190614d4e565b604080517fffffffffffffffffffffffffffffffffffffffffffffffffffffffffffffffe081840301815290829052805160209091012083517f2f3f50e000000000000000000000000000000000000000000000000000000000835290925073ffffffffffffffffffffffffffffffffffffffff7f00000000000000000000000000000000000000000000000000000000000000001691632f3f50e091611a919188918691600401614da0565b6000604051808303816000875af1158015611ab0573d6000803e3d6000fd5b505050506040513d6000823e601f3d9081017fffffffffffffffffffffffffffffffffffffffffffffffffffffffffffffffe0168201604052611af69190810190614bba565b5050505050565b6000807f000000000000000000000000000000000000000000000000000000000000000073ffffffffffffffffffffffffffffffffffffffff1663293c49996040518163ffffffff1660e01b8152600401602060405180830381865afa158015611b6b573d6000803e3d6000fd5b505050506040513d601f19601f82011682018060405250810190611b8f9190614614565b73ffffffffffffffffffffffffffffffffffffffff166306661abd6040518163ffffffff1660e01b8152600401602060405180830381865afa158015611bd9573d6000803e3d6000fd5b505050506040513d601f19601f82011682018060405250810190611bfd9190614e9d565b611c08906001614c83565b84519092506000611c1a826001614c83565b67ffffffffffffffff811115611c3257611c32613073565b604051908082528060200260200182016040528015611c7f57816020015b60408051606080820183526000808352602083015291810191909152815260200190600190039081611c505790505b50905060005b82811015611ccc57868181518110611c9f57611c9f614631565b6020026020010151828281518110611cb957611cb9614631565b6020908102919091010152600101611c85565b5086516040517f2230819f00000000000000000000000000000000000000000000000000000000815273ffffffffffffffffffffffffffffffffffffffff7f00000000000000000000000000000000000000000000000000000000000000001691632230819f91611d41918891600401614ff0565b6020604051808303816000875af1158015611d60573d6000803e3d6000fd5b505050506040513d601f19601f82011682018060405250810190611d849190614614565b9250866020015115611dc8576002805460018101825560009190915260167f405787fa12a823e0f2b7631cc41b3ba8828b3321ca811111fa75cd3aa3bb5ace909101555b866040015115611e0a576002805460018101825560009190915260177f405787fa12a823e0f2b7631cc41b3ba8828b3321ca811111fa75cd3aa3bb5ace909101555b866060015115611e4c576002805460018101825560009190915260187f405787fa12a823e0f2b7631cc41b3ba8828b3321ca811111fa75cd3aa3bb5ace909101555b60405180606001604052808473ffffffffffffffffffffffffffffffffffffffff1681526020016000815260200160405180602001604052806000815250815250818381518110611e9f57611e9f614631565b6020026020010181905250611eb88b8b8b8b858a610977565b50505097509795505050505050565b600080600080611ed88a8888612759565b9250925092507f000000000000000000000000000000000000000000000000000000000000000073ffffffffffffffffffffffffffffffffffffffff16630634bae9308c6000015160400151868d8f6000015160200151604051602001611f3f919061516d565b6040516020818303038152906040526040518663ffffffff1660e01b8152600401611f6e95949392919061555d565b6020604051808303816000875af1158015611f8d573d6000803e3d6000fd5b505050506040513d601f19601f82011682018060405250810190611fb19190614e9d565b93508015611fd657611fc66276a70042614c83565b6000858152600160205260409020555b8951805160208201516060909201516040517f5817819100000000000000000000000000000000000000000000000000000000815273ffffffffffffffffffffffffffffffffffffffff7f0000000000000000000000000000000000000000000000000000000000000000169363581781919361205a938a939192916004016156c2565b6020604051808303816000875af1158015612079573d6000803e3d6000fd5b505050506040513d601f19601f8201168201806040525081019061209d9190614614565b50875173ffffffffffffffffffffffffffffffffffffffff16156120c5576120c58489612c5b565b7f000000000000000000000000000000000000000000000000000000000000000073ffffffffffffffffffffffffffffffffffffffff1663dd5f214a8560006121118e60600151612de0565b6040518463ffffffff1660e01b815260040161212f939291906156ff565b600060405180830381600087803b15801561214957600080fd5b505af115801561215d573d6000803e3d6000fd5b505050507f000000000000000000000000000000000000000000000000000000000000000073ffffffffffffffffffffffffffffffffffffffff1663f434c9146040518163ffffffff1660e01b8152600401602060405180830381865afa1580156121cc573d6000803e3d6000fd5b505050506040513d601f19601f820116820180604052508101906121f09190614614565b73ffffffffffffffffffffffffffffffffffffffff166305d2912e3060405180606001604052808e6060015173ffffffffffffffffffffffffffffffffffffffff168152602001888152602001600280548060200260200160405190810160405280929190818152602001828054801561228957602002820191906000526020600020905b815481526020019060010190808311612275575b50505050508152506040518363ffffffff1660e01b81526004016122ae92919061478f565b600060405180830381600087803b1580156122c857600080fd5b505af11580156122dc573d6000803e3d6000fd5b5050505060408a0151156123c0577f000000000000000000000000000000000000000000000000000000000000000073ffffffffffffffffffffffffffffffffffffffff1663c7fb92de858c604001518d606001518e600001516020015160405160200161234a919061571e565b60405160208183030381529060405260006040518663ffffffff1660e01b815260040161237b95949392919061578a565b6020604051808303816000875af115801561239a573d6000803e3d6000fd5b505050506040513d601f19601f820116820180604052508101906123be9190614e9d565b505b60408051600180825281830190925260009160208083019080368337019050509050601d816000815181106123f7576123f7614631565b6020026020010181815250507f000000000000000000000000000000000000000000000000000000000000000073ffffffffffffffffffffffffffffffffffffffff1663f434c9146040518163ffffffff1660e01b8152600401602060405180830381865afa15801561246e573d6000803e3d6000fd5b505050506040513d601f19601f820116820180604052508101906124929190614614565b73ffffffffffffffffffffffffffffffffffffffff166305d2912e3060405180606001604052807f000000000000000000000000000000000000000000000000000000000000000073ffffffffffffffffffffffffffffffffffffffff168152602001898152602001858152506040518363ffffffff1660e01b815260040161251c92919061478f565b600060405180830381600087803b15801561253657600080fd5b505af115801561254a573d6000803e3d6000fd5b50505050602086015115612684577f000000000000000000000000000000000000000000000000000000000000000073ffffffffffffffffffffffffffffffffffffffff16632f3f50e08633868a602001516040516020016125ae93929190614d4e565b604080517fffffffffffffffffffffffffffffffffffffffffffffffffffffffffffffffe08184030181529082905280516020909101208a517fffffffff0000000000000000000000000000000000000000000000000000000060e086901b16835261261d9392600401614da0565b6000604051808303816000875af115801561263c573d6000803e3d6000fd5b505050506040513d6000823e601f3d9081017fffffffffffffffffffffffffffffffffffffffffffffffffffffffffffffffe01682016040526126829190810190614bba565b505b505050509695505050505050565b805160005b8181101561275357600084815260036020526040902083518490839081106126c1576126c1614631565b602090810291909101810151825460018082018555600094855293839020825160039092020180547fffffffffffffffffffffffff00000000000000000000000000000000000000001673ffffffffffffffffffffffffffffffffffffffff9092169190911781559181015192820192909255604082015160028201906127489082615826565b505050600101612697565b50505050565b60608060008086608001515190508067ffffffffffffffff81111561278057612780613073565b60405190808252806020026020018201604052801561287257816020015b61285f6040805161010080820183526000808352602080840182905283850182905260608085018390526080808601849052865161020081018852848152928301849052958201839052810182905293840181905260a084810182905260c0850182905260e0850182905291840181905261012084018190526101408401819052610160840181905261018084018190526101a084018190526101c084018190526101e0840152909190820190815260200160608152602001606081525090565b81526020019060019003908161279e5790505b5093508660200151604051602001612896919063ffffffff91909116815260200190565b604080518083037fffffffffffffffffffffffffffffffffffffffffffffffffffffffffffffffe001815260c083018252600080845260208401819052918301829052606083018290526080830182905260a0830182905294505b82811015612c4f578860800151818151811061290f5761290f614631565b60200260200101519150816000015164ffffffffff1686828151811061293757612937614631565b60200260200101516000018181525050816060015164ffffffffff1686828151811061296557612965614631565b6020026020010151602001818152505081604001516dffffffffffffffffffffffffffff1686828151811061299c5761299c614631565b60200260200101516040018181525050816080015163ffffffff168682815181106129c9576129c9614631565b6020026020010151606001818152505060008682815181106129ed576129ed614631565b60200260200101516080019073ffffffffffffffffffffffffffffffffffffffff16908173ffffffffffffffffffffffffffffffffffffffff1681525050604051806102000160405280836020015161ffff1681526020018360a0015161ffff16612710612a5b9190615940565b815260208b81015163ffffffff16908201526000604082018190526060820181905260016080830181905260a0830182905260c0830182905260e0830182905261010083018290526101208301829052610140830182905261016083015261018082015273ffffffffffffffffffffffffffffffffffffffff8a166101a08201526101c0018890528651879083908110612af757612af7614631565b602002602001015160a00181905250806000148015612b1d5750815164ffffffffff1615155b8015612b33575042826000015164ffffffffff16105b15612b3d57600193505b8481158015612b525750825164ffffffffff16155b612b6457825164ffffffffff16612b66565b425b83602001518460400151856060015186608001518760a00151604051602001612bdb9695949392919095865261ffff94851660208701526dffffffffffffffffffffffffffff93909316604086015264ffffffffff91909116606085015263ffffffff1660808401521660a082015260c00190565b604080517fffffffffffffffffffffffffffffffffffffffffffffffffffffffffffffffe081840301815290829052612c179291602001615953565b604080517fffffffffffffffffffffffffffffffffffffffffffffffffffffffffffffffe081840301815291905294506001016128f1565b50505093509350939050565b602081810151516040805160808101825260008082529381018490529081018390526060810183905290915b82811015612d875783602001518181518110612ca557612ca5614631565b6020908102919091018101518551918101516040808301516060840151845192517f7b621d3a000000000000000000000000000000000000000000000000000000008152600481018c905262ffffff909416602485015263ffffffff918216604485015216606483015273ffffffffffffffffffffffffffffffffffffffff9081166084830152919450911690637b621d3a9060a4016020604051808303816000875af1158015612d5a573d6000803e3d6000fd5b505050506040513d601f19601f82011682018060405250810190612d7e9190614614565b50600101612c87565b5050905160009283526020839052604090922080547fffffffffffffffffffffffff00000000000000000000000000000000000000001673ffffffffffffffffffffffffffffffffffffffff9093169290921790915550565b604080516001808252818301909252606091816020015b604080518082019091526000815260606020820152815260200190600190039081612df757505060408051600180825281830190925291925060009190602082015b6040805160c08101825260008082526020808301829052928201819052606082018190526080820181905260a082015282527fffffffffffffffffffffffffffffffffffffffffffffffffffffffffffffffff909201910181612e395790505090506040518060c00160405280600015158152602001633b9aca008152602001600081526020018473ffffffffffffffffffffffffffffffffffffffff16815260200160008152602001600073ffffffffffffffffffffffffffffffffffffffff1681525081600081518110612f1157612f11614631565b60200260200101819052506040518060400160405280600181526020018281525082600081518110612f4557612f45614631565b602002602001018190525050919050565b600060208284031215612f6857600080fd5b81357fffffffff0000000000000000000000000000000000000000000000000000000081168114612f9857600080fd5b9392505050565b73ffffffffffffffffffffffffffffffffffffffff81168114612fc157600080fd5b50565b8035612fcf81612f9f565b919050565b600080600080600060808688031215612fec57600080fd5b8535612ff781612f9f565b9450602086013561300781612f9f565b935060408601359250606086013567ffffffffffffffff8082111561302b57600080fd5b818801915088601f83011261303f57600080fd5b81358181111561304e57600080fd5b89602082850101111561306057600080fd5b9699959850939650602001949392505050565b7f4e487b7100000000000000000000000000000000000000000000000000000000600052604160045260246000fd5b60405160c0810167ffffffffffffffff811182821017156130c5576130c5613073565b60405290565b60405160a0810167ffffffffffffffff811182821017156130c5576130c5613073565b6040516080810167ffffffffffffffff811182821017156130c5576130c5613073565b6040805190810167ffffffffffffffff811182821017156130c5576130c5613073565b604051610180810167ffffffffffffffff811182821017156130c5576130c5613073565b604051610120810167ffffffffffffffff811182821017156130c5576130c5613073565b6040516060810167ffffffffffffffff811182821017156130c5576130c5613073565b604051601f82017fffffffffffffffffffffffffffffffffffffffffffffffffffffffffffffffe016810167ffffffffffffffff811182821017156131e6576131e6613073565b604052919050565b600067ffffffffffffffff82111561320857613208613073565b50601f017fffffffffffffffffffffffffffffffffffffffffffffffffffffffffffffffe01660200190565b600082601f83011261324557600080fd5b8135613258613253826131ee565b61319f565b81815284602083860101111561326d57600080fd5b816020850160208301376000918101602001919091529392505050565b803563ffffffff81168114612fcf57600080fd5b600067ffffffffffffffff8211156132b8576132b8613073565b5060051b60200190565b803564ffffffffff81168114612fcf57600080fd5b803561ffff81168114612fcf57600080fd5b600082601f8301126132fa57600080fd5b8135602061330a6132538361329e565b82815260c0928302850182019282820191908785111561332957600080fd5b8387015b858110156133ce5781818a0312156133455760008081fd5b61334d6130a2565b613356826132c2565b81526133638683016132d7565b868201526040808301356dffffffffffffffffffffffffffff8116811461338a5760008081fd5b90820152606061339b8382016132c2565b9082015260806133ac83820161328a565b9082015260a06133bd8382016132d7565b90820152845292840192810161332d565b5090979650505050505050565b600060a082840312156133ed57600080fd5b6133f56130cb565b9050813567ffffffffffffffff8082111561340f57600080fd5b908301906080828603121561342357600080fd5b61342b6130ee565b82358281111561343a57600080fd5b61344687828601613234565b82525060208301358281111561345b57600080fd5b61346787828601613234565b60208301525060408301358281111561347f57600080fd5b61348b87828601613234565b6040830152506060838101359082015283526134a96020850161328a565b6020840152604084013560408401526134c460608501612fc4565b606084015260808401359150808211156134dd57600080fd5b506134ea848285016132e9565b60808301525092915050565b600082601f83011261350757600080fd5b813560206135176132538361329e565b8083825260208201915060208460051b87010193508684111561353957600080fd5b602086015b8481101561355e57803561355181612f9f565b835291830191830161353e565b509695505050505050565b600082601f83011261357a57600080fd5b8135602061358a6132538361329e565b82815260059290921b840181019181810190868411156135a957600080fd5b8286015b8481101561355e57803567ffffffffffffffff808211156135ce5760008081fd5b81890191506040807fffffffffffffffffffffffffffffffffffffffffffffffffffffffffffffffe0848d030112156136075760008081fd5b61360f613111565b8784013561361c81612f9f565b81529083013590828211156136315760008081fd5b61363f8c89848701016134f6565b8189015286525050509183019183016135ad565b803562ffffff81168114612fcf57600080fd5b6000604080838503121561367957600080fd5b613681613111565b9150823561368e81612f9f565b825260208381013567ffffffffffffffff8111156136ab57600080fd5b8401601f810186136136bc57600080fd5b80356136ca6132538261329e565b81815260079190911b820183019083810190888311156136e957600080fd5b928401925b8284101561375d576080848a0312156137075760008081fd5b61370f6130ee565b843561371a81612f9f565b8152613727858701613653565b8682015261373687860161328a565b87820152606061374781870161328a565b90820152825260809390930192908401906136ee565b808588015250505050505092915050565b60006040828403121561378057600080fd5b613788613111565b905067ffffffffffffffff80833511156137a157600080fd5b8235830184601f8201126137b457600080fd5b6137c1613253823561329e565b81358082526020808301929160051b840101878111156137e057600080fd5b602084015b818110156139435785813511156137fb57600080fd5b8035850160407fffffffffffffffffffffffffffffffffffffffffffffffffffffffffffffffe0828c0301121561383157600080fd5b613839613111565b6138466020830135612f9f565b60208201358152876040830135111561385e57600080fd5b6040820135820191508a603f83011261387657600080fd5b60208201356138876132538261329e565b81815260079190911b83016040019060208101908d8311156138a857600080fd5b6040850194505b82851015613924576080858f0312156138c757600080fd5b6138cf6130ee565b6138d98635612f9f565b853581526138e96020870161328a565b60208201526138fb6040870135612f9f565b6040860135604082015260608601356060820152808352506020820191506080850194506138af565b80602085015250505080865250506020840193506020810190506137e5565b5050808552505050506020820135602082015292915050565b80356cffffffffffffffffffffffffff81168114612fcf57600080fd5b8015158114612fc157600080fd5b8035612fcf81613979565b803560ff81168114612fcf57600080fd5b600060808083850312156139b657600080fd5b6139be6130ee565b9150823567ffffffffffffffff8111156139d757600080fd5b8301601f810185136139e857600080fd5b803560206139f86132538361329e565b8281526101809283028401820192828201919089851115613a1857600080fd5b948301945b84861015613b0b5780868b031215613a355760008081fd5b613a3d613134565b613a468761395c565b8152613a5385880161328a565b858201526040613a6481890161328a565b908201526060613a758882016132d7565b90820152613a84878901612fc4565b8189015260a0878101359082015260c0613a9f818901613653565b9082015260e0613ab0888201613987565b90820152610100613ac2888201613987565b90820152610120613ad4888201613987565b90820152610140613ae6888201613987565b90820152610160613af8888201613987565b9082015283529485019491830191613a1d565b50865250613b1a86820161328a565b8186015250505050613b2e60408301613992565b6040820152613b3f60608301612fc4565b606082015292915050565b600060808284031215613b5c57600080fd5b613b646130ee565b90508135613b7181613979565b81526020820135613b8181613979565b60208201526040820135613b9481613979565b60408201526060820135613b3f81613979565b600060808284031215613bb957600080fd5b613bc16130ee565b9050813567ffffffffffffffff80821115613bdb57600080fd5b908301906101808286031215613bf057600080fd5b613bf8613158565b823582811115613c0757600080fd5b613c1387828601613234565b825250602083013582811115613c2857600080fd5b613c3487828601613234565b602083015250613c4660408401612fc4565b6040820152606083013582811115613c5d57600080fd5b613c6987828601613234565b606083015250613c7b60808401612fc4565b608082015260a083013582811115613c9257600080fd5b613c9e87828601613234565b60a08301525060c083013582811115613cb657600080fd5b613cc2878286016139a3565b60c083015250613cd460e08401612fc4565b60e08201526101009150613cea86838501613b4a565b82820152808452505050613d0060208301613987565b6020820152613d1160408301613987565b6040820152613b3f60608301613987565b600082601f830112613d3357600080fd5b81356020613d436132538361329e565b82815260059290921b84018101918181019086841115613d6257600080fd5b8286015b8481101561355e57803567ffffffffffffffff80821115613d875760008081fd5b81890191506060807fffffffffffffffffffffffffffffffffffffffffffffffffffffffffffffffe0848d03011215613dc05760008081fd5b613dc861317c565b87840135613dd581612f9f565b815260408481013589830152918401359183831115613df45760008081fd5b613e028d8a85880101613234565b908201528652505050918301918301613d66565b600082601f830112613e2757600080fd5b81356020613e376132538361329e565b82815260059290921b84018101918181019086841115613e5657600080fd5b8286015b8481101561355e57803567ffffffffffffffff80821115613e7b5760008081fd5b818901915060a0807fffffffffffffffffffffffffffffffffffffffffffffffffffffffffffffffe0848d03011215613eb45760008081fd5b613ebc6130cb565b87840135815260408085013589830152606080860135828401526080915081860135818401525082850135925083831115613ef75760008081fd5b613f058d8a858801016134f6565b908201528652505050918301918301613e5a565b600080600080600080600080610100898b031215613f3657600080fd5b883567ffffffffffffffff80821115613f4e57600080fd5b613f5a8c838d016133db565b995060208b0135915080821115613f7057600080fd5b613f7c8c838d01613569565b985060408b0135915080821115613f9257600080fd5b613f9e8c838d01613666565b975060608b0135915080821115613fb457600080fd5b613fc08c838d0161376e565b965060808b0135915080821115613fd657600080fd5b613fe28c838d01613ba7565b955060a08b0135915080821115613ff857600080fd5b6140048c838d01613d22565b945061401260c08c016132d7565b935060e08b013591508082111561402857600080fd5b506140358b828c01613e16565b9150509295985092959890939650565b60008060008060008060c0878903121561405e57600080fd5b863567ffffffffffffffff8082111561407657600080fd5b6140828a838b016133db565b9750602089013591508082111561409857600080fd5b6140a48a838b01613569565b965060408901359150808211156140ba57600080fd5b6140c68a838b01613666565b955060608901359150808211156140dc57600080fd5b6140e88a838b0161376e565b945060808901359150808211156140fe57600080fd5b5061410b89828a01613d22565b92505061411a60a088016132d7565b90509295509295509295565b60006020828403121561413857600080fd5b5035919050565b60006020828403121561415157600080fd5b813567ffffffffffffffff81111561416857600080fd5b82016101808185031215612f9857600080fd5b60005b8381101561419657818101518382015260200161417e565b50506000910152565b600081518084526141b781602086016020860161417b565b601f017fffffffffffffffffffffffffffffffffffffffffffffffffffffffffffffffe0169290920160200192915050565b600082825180855260208086019550808260051b84010181860160005b848110156133ce578583037fffffffffffffffffffffffffffffffffffffffffffffffffffffffffffffffe00189528151805173ffffffffffffffffffffffffffffffffffffffff16845284810151858501526040908101516060918501829052906142748186018361419f565b9a86019a9450505090830190600101614206565b8281526040602082015260006142a160408301846141e9565b949350505050565b602081526000612f9860208301846141e9565b600080604083850312156142cf57600080fd5b8235915060208301356142e181612f9f565b809150509250929050565b6000806000806080858703121561430257600080fd5b843567ffffffffffffffff8082111561431a57600080fd5b614326888389016133db565b9550602087013591508082111561433c57600080fd5b61434888838901613569565b9450604087013591508082111561435e57600080fd5b61436a88838901613666565b9350606087013591508082111561438057600080fd5b5061438d8782880161376e565b91505092959194509250565b6000602082840312156143ab57600080fd5b813567ffffffffffffffff8111156143c257600080fd5b82016101a08185031215612f9857600080fd5b60006080820186835260208681850152604086604086015260606080606087015283875180865260a08801915060a08160051b890101955084890160005b8281101561448e578988037fffffffffffffffffffffffffffffffffffffffffffffffffffffffffffffff600184528151805173ffffffffffffffffffffffffffffffffffffffff16895287810151888a015286015186890186905261447b868a018261419f565b9850509286019290860190600101614413565b50959c9b505050505050505050505050565b6000806000606084860312156144b557600080fd5b83359250602084013567ffffffffffffffff808211156144d457600080fd5b6144e087838801613234565b935060408601359150808211156144f657600080fd5b506145038682870161376e565b9150509250925092565b600080600080600080600060e0888a03121561452857600080fd5b873567ffffffffffffffff8082111561454057600080fd5b61454c8b838c016133db565b985060208a013591508082111561456257600080fd5b61456e8b838c01613569565b975060408a013591508082111561458457600080fd5b6145908b838c01613666565b965060608a01359150808211156145a657600080fd5b6145b28b838c0161376e565b955060808a01359150808211156145c857600080fd5b6145d48b838c01613ba7565b945060a08a01359150808211156145ea57600080fd5b506145f78a828b01613d22565b92505061460660c089016132d7565b905092959891949750929550565b60006020828403121561462657600080fd5b8151612f9881612f9f565b7f4e487b7100000000000000000000000000000000000000000000000000000000600052603260045260246000fd5b60008151808452602080850194506020840160005b838110156146a757815173ffffffffffffffffffffffffffffffffffffffff1687529582019590820190600101614675565b509495945050505050565b6000604080830185845260206040818601528186518084526060935060608701915060608160051b88010183890160005b8381101561477f578983037fffffffffffffffffffffffffffffffffffffffffffffffffffffffffffffffa00185528151805173ffffffffffffffffffffffffffffffffffffffff1684528681015187850152888101518985015287810151888501526080808201519085015260a09081015160c09185018290529061476b81860183614660565b9688019694505050908501906001016146e3565b50909a9950505050505050505050565b600073ffffffffffffffffffffffffffffffffffffffff808516835260206040602085015260a0840182865116604086015260208601516060860152604086015192506060608086015280835180835260c087019150602085019450600092505b8083101561481057845182529383019360019290920191908301906147f0565b50979650505050505050565b803561482781612f9f565b73ffffffffffffffffffffffffffffffffffffffff1682526020818101359083015260408082013590830152606090810135910152565b60008083357fffffffffffffffffffffffffffffffffffffffffffffffffffffffffffffffe184360301811261489357600080fd5b830160208101925035905067ffffffffffffffff8111156148b357600080fd5b8036038213156148c257600080fd5b9250929050565b8183528181602085013750600060208284010152600060207fffffffffffffffffffffffffffffffffffffffffffffffffffffffffffffffe0601f840116840101905092915050565b602081526149406020820161492684612fc4565b73ffffffffffffffffffffffffffffffffffffffff169052565b600061494e60208401612fc4565b73ffffffffffffffffffffffffffffffffffffffff811660408401525061497b606083016040850161481c565b60c083013560e083015261010060e08401358184015261499c818501612fc4565b90506101206149c28185018373ffffffffffffffffffffffffffffffffffffffff169052565b610140915080850135828501525061016081850135818501526149e78186018661485e565b61018086810152925090506111226101a0850183836148c9565b6000806040808486031215614a1557600080fd5b8351925060208085015167ffffffffffffffff80821115614a3557600080fd5b818701915087601f830112614a4957600080fd5b8151614a576132538261329e565b81815260059190911b8301840190848101908a831115614a7657600080fd5b8585015b83811015614b5557805185811115614a9157600080fd5b86016060818e037fffffffffffffffffffffffffffffffffffffffffffffffffffffffffffffffe0011215614ac65760008081fd5b614ace61317c565b88820151614adb81612f9f565b8152818a015189820152606082015187811115614af85760008081fd5b8083019250508d603f830112614b0e5760008081fd5b88820151614b1e613253826131ee565b8181528f8c838601011115614b335760008081fd5b614b42828c83018e870161417b565b828c015250845250918601918601614a7a565b50809750505050505050509250929050565b600181811c90821680614b7b57607f821691505b602082108103614bb4577f4e487b7100000000000000000000000000000000000000000000000000000000600052602260045260246000fd5b50919050565b60006020808385031215614bcd57600080fd5b825167ffffffffffffffff811115614be457600080fd5b8301601f81018513614bf557600080fd5b8051614c036132538261329e565b81815260059190911b82018301908381019087831115614c2257600080fd5b928401925b82841015614c49578351614c3a81612f9f565b82529284019290840190614c27565b979650505050505050565b7f4e487b7100000000000000000000000000000000000000000000000000000000600052601160045260246000fd5b8082018082111561049257610492614c54565b60006080820173ffffffffffffffffffffffffffffffffffffffff80881684526020818816602086015286604086015260806060860152829150855480845260a086019250866000526020600020935060005b81811015614d0557845484526001948501949383019301614ce9565b50919998505050505050505050565b600060208284031215614d2657600080fd5b8151612f9881613979565b600060208284031215614d4357600080fd5b8135612f9881612f9f565b7fffffffffffffffffffffffffffffffffffffffff0000000000000000000000008460601b16815260008351614d8b81601485016020880161417b565b60149201918201929092526034019392505050565b600060608083018684526020868186015260406060604087015282875180855260808801915060808160051b89010194508389016000805b8381101561448e578a88037fffffffffffffffffffffffffffffffffffffffffffffffffffffffffffffff800185528251805173ffffffffffffffffffffffffffffffffffffffff9081168a5290880151888a018890528051888b018190529089019184918c8c01905b80841015614e875784518051841683528c81015163ffffffff168d8401528b81015184168c8401528e01518e830152938b019360019390930192608090910190614e42565b509a505050948701945091860191600101614dd8565b600060208284031215614eaf57600080fd5b5051919050565b80516080808452815184820181905260009260a0916020918201918388019190865b82811015614fa857845180516cffffffffffffffffffffffffff1685528281015163ffffffff908116848701526040808301519091169086015260608082015161ffff16908601528781015173ffffffffffffffffffffffffffffffffffffffff1688860152868101518786015260c08082015162ffffff169086015260e080820151151590860152610100808201511515908601526101208082015115159086015261014080820151151590860152610160908101511515908501529381019361018090930192600101614ed8565b508781015163ffffffff16908901525060408087015160ff169088015260608087015173ffffffffffffffffffffffffffffffffffffffff8116918901919091529350610997565b828152604060208201526000825161018060408401526150146101c084018261419f565b905060208401517fffffffffffffffffffffffffffffffffffffffffffffffffffffffffffffffc080858403016060860152615050838361419f565b92506040860151915061507b608086018373ffffffffffffffffffffffffffffffffffffffff169052565b60608601519150808584030160a0860152615096838361419f565b9250608086015191506150c160c086018373ffffffffffffffffffffffffffffffffffffffff169052565b60a08601519150808584030160e08601526150dc838361419f565b925060c086015191506101008186850301818701526150fb8484614eb6565b935060e0870151925061512761012087018473ffffffffffffffffffffffffffffffffffffffff169052565b860151805115156101408701526020810151151561016087015260408101511515610180870152606081015115156101a087015291506151649050565b50949350505050565b7f24000000000000000000000000000000000000000000000000000000000000008152600082516151a581600185016020870161417b565b7f207265766e6574206465706c6f796564000000000000000000000000000000006001939091019283015250601101919050565b8051825260208101516020830152604081015160408301526060810151615204606084018215159052565b506080810151615218608084018215159052565b5060a081015161522c60a084018215159052565b5060c081015161524060c084018215159052565b5060e081015161525460e084018215159052565b5061010081810151151590830152610120808201511515908301526101408082015115159083015261016080820151151590830152610180808201511515908301526101a0808201511515908301526101c08082015173ffffffffffffffffffffffffffffffffffffffff16908301526101e090810151910152565b600082825180855260208086019550808260051b8401018186016000805b858110156153c1578684037fffffffffffffffffffffffffffffffffffffffffffffffffffffffffffffffe0018a52825180518552850151604086860181905281518187018190529187019160609081880190865b818110156153aa5785518051151584528b8101518c85015285810151868501528481015173ffffffffffffffffffffffffffffffffffffffff908116868601526080808301519086015260a0918201511690840152948a019460c090920191600101615343565b50509c88019c9650505092850192506001016152ee565b509198975050505050505050565b60008151808452602080850194506020840160005b838110156146a75781518051885283015183880152604090960195908201906001016153e4565b600082825180855260208086019550808260051b84010181860160005b848110156133ce577fffffffffffffffffffffffffffffffffffffffffffffffffffffffffffffffe08684030189528151608073ffffffffffffffffffffffffffffffffffffffff80835116865280878401511687870152506040808301518282880152615498838801826153cf565b92505050606080830151925085820381870152506154b681836153cf565b9a86019a9450505090830190600101615428565b600082825180855260208086019550808260051b84010181860160005b848110156133ce578583037fffffffffffffffffffffffffffffffffffffffffffffffffffffffffffffffe00189528151805173ffffffffffffffffffffffffffffffffffffffff168452840151604085850181905261554981860183614660565b9a86019a94505050908301906001016154e7565b600060a073ffffffffffffffffffffffffffffffffffffffff88168352602060a08185015261558f60a085018961419f565b604085820360408701528189518084528484019150848160051b850101858c0160005b83811015615688577fffffffffffffffffffffffffffffffffffffffffffffffffffffffffffffffe087840301855281516102e081518552898201518a8601528782015188860152606080830151818701525060808083015161562c8288018273ffffffffffffffffffffffffffffffffffffffff169052565b50508a82015161563e8c8701826151d9565b5060c0820151816102a0870152615657828701826152d0565b91505060e082015191508481036102c0860152615674818361540b565b968a019694505050908701906001016155b2565b505088810360608a015261569c818c6154ca565b965050505050505082810360808401526156b6818561419f565b98975050505050505050565b8481526080602082015260006156db608083018661419f565b82810360408401526156ed818661419f565b91505082606083015295945050505050565b83815282602082015260606040820152600061112260608301846152d0565b7f240000000000000000000000000000000000000000000000000000000000000081526000825161575681600185016020870161417b565b7f207072656d696e746564000000000000000000000000000000000000000000006001939091019283015250600b01919050565b85815284602082015273ffffffffffffffffffffffffffffffffffffffff8416604082015260a0606082015260006157c560a083018561419f565b905082151560808301529695505050505050565b601f821115615821576000816000526020600020601f850160051c810160208610156158025750805b601f850160051c820191505b8181101561169f5782815560010161580e565b505050565b815167ffffffffffffffff81111561584057615840613073565b6158548161584e8454614b67565b846157d9565b602080601f8311600181146158a757600084156158715750858301515b7fffffffffffffffffffffffffffffffffffffffffffffffffffffffffffffffff600386901b1c1916600185901b17855561169f565b6000858152602081207fffffffffffffffffffffffffffffffffffffffffffffffffffffffffffffffe08616915b828110156158f4578886015182559484019460019091019084016158d5565b508582101561593057878501517fffffffffffffffffffffffffffffffffffffffffffffffffffffffffffffffff600388901b60f8161c191681555b5050505050600190811b01905550565b8181038181111561049257610492614c54565b6000835161596581846020880161417b565b83519083019061597981836020880161417b565b0194935050505056fea26469706673582212200d8526601dbb535e8e512b2f806caea5968ae535e85165f3485341081d55b81b64736f6c63430008170033",
			"deployedBytecode": "0x608060405234801561001057600080fd5b50600436106101515760003560e01c80637485ecf3116100cd578063b5d2553311610081578063d3cee0ee11610066578063d3cee0ee146103a5578063dbfbe5da146103b8578063ee0fc121146103d857600080fd5b8063b5d255331461036b578063bb1994021461039257600080fd5b80639d82ba25116100b25780639d82ba2514610317578063aaf320d714610321578063abf8c5c81461034457600080fd5b80637485ecf3146102ef57806389b396ab1461030257600080fd5b806343681e15116101245780635c0a7cee116101095780635c0a7cee14610261578063677ce088146102815780637249a7731461029457600080fd5b806343681e15146102205780634c4ffc711461024057600080fd5b806301ffc9a714610156578063150b7a021461017e578063158b48b5146101c25780633fe422bd146101ff575b600080fd5b610169610164366004612f56565b6103ff565b60405190151581526020015b60405180910390f35b61019161018c366004612fd4565b610498565b6040517fffffffff000000000000000000000000000000000000000000000000000000009091168152602001610175565b6101d56101d0366004613f19565b6105ac565b6040805192835273ffffffffffffffffffffffffffffffffffffffff909116602083015201610175565b61021261020d366004614045565b610977565b604051908152602001610175565b61021261022e366004614126565b60016020526000908152604090205481565b61025361024e36600461413f565b6109a1565b604051610175929190614288565b61027461026f366004614126565b610e59565b60405161017591906142a9565b61016961028f3660046142bc565b610f8a565b6102ca6102a2366004614126565b60006020819052908152604090205473ffffffffffffffffffffffffffffffffffffffff1681565b60405173ffffffffffffffffffffffffffffffffffffffff9091168152602001610175565b6102126102fd3660046142ec565b611111565b6103156103103660046142bc565b61112b565b005b6102126276a70081565b61033461032f366004614399565b6116a7565b60405161017594939291906143d5565b6102ca7f000000000000000000000000cdfa45a183fa6841ed1ef8550fca0a8aab42ec3481565b6102ca7f0000000000000000000000004be9d88be6e7a38644ea746cf78cb1bf30051c7681565b6103156103a03660046144a0565b611816565b6101d56103b336600461450d565b611afd565b6004546102ca9073ffffffffffffffffffffffffffffffffffffffff1681565b6102ca7f000000000000000000000000daf6226aafe296bbccbec815133386cd910ed58281565b60007fffffffff0000000000000000000000000000000000000000000000000000000082167f81c03c2e00000000000000000000000000000000000000000000000000000000148061049257507f01ffc9a7000000000000000000000000000000000000000000000000000000007fffffffff000000000000000000000000000000000000000000000000000000008316145b92915050565b60007f000000000000000000000000daf6226aafe296bbccbec815133386cd910ed58273ffffffffffffffffffffffffffffffffffffffff1663293c49996040518163ffffffff1660e01b8152600401602060405180830381865afa158015610505573d6000803e3d6000fd5b505050506040513d601f19601f820116820180604052508101906105299190614614565b73ffffffffffffffffffffffffffffffffffffffff163373ffffffffffffffffffffffffffffffffffffffff161461056057600080fd5b73ffffffffffffffffffffffffffffffffffffffff85161561058157600080fd5b507f150b7a020000000000000000000000000000000000000000000000000000000095945050505050565b6000806105be8a8a8a8a8a8a8a611afd565b8451919350915060008167ffffffffffffffff8111156105e0576105e0613073565b60405190808252806020026020018201604052801561066057816020015b61064d6040518060c00160405280600073ffffffffffffffffffffffffffffffffffffffff16815260200160008152602001600081526020016000815260200160008152602001606081525090565b8152602001906001900390816105fe5790505b5090506106956040518060a0016040528060008152602001600081526020016000815260200160008152602001606081525090565b60005b83811015610738578681815181106106b2576106b2614631565b602002602001015191506040518060c001604052808673ffffffffffffffffffffffffffffffffffffffff16815260200183600001518152602001836020015181526020018360400151815260200183606001518152602001836080015181525083828151811061072557610725614631565b6020908102919091010152600101610698565b508551156107ca57600480546040517fab54877a00000000000000000000000000000000000000000000000000000000815273ffffffffffffffffffffffffffffffffffffffff9091169163ab54877a916107979189918791016146b2565b600060405180830381600087803b1580156107b157600080fd5b505af11580156107c5573d6000803e3d6000fd5b505050505b7f000000000000000000000000daf6226aafe296bbccbec815133386cd910ed58273ffffffffffffffffffffffffffffffffffffffff1663f434c9146040518163ffffffff1660e01b8152600401602060405180830381865afa158015610835573d6000803e3d6000fd5b505050506040513d601f19601f820116820180604052508101906108599190614614565b73ffffffffffffffffffffffffffffffffffffffff166305d2912e306040518060600160405280600460009054906101000a900473ffffffffffffffffffffffffffffffffffffffff1673ffffffffffffffffffffffffffffffffffffffff168152602001898152602001600580548060200260200160405190810160405280929190818152602001828054801561091057602002820191906000526020600020905b8154815260200190600101908083116108fc575b50505050508152506040518363ffffffff1660e01b815260040161093592919061478f565b600060405180830381600087803b15801561094f57600080fd5b505af1158015610963573d6000803e3d6000fd5b505050505050509850989650505050505050565b600061098b878787308661ffff1689611ec7565b90506109978184612692565b9695505050505050565b60c0810135600090815260208190526040812054606090819073ffffffffffffffffffffffffffffffffffffffff168015610a91576040517f4c4ffc7100000000000000000000000000000000000000000000000000000000815273ffffffffffffffffffffffffffffffffffffffff821690634c4ffc7190610a28908890600401614912565b600060405180830381865afa158015610a45573d6000803e3d6000fd5b505050506040513d6000823e601f3d9081017fffffffffffffffffffffffffffffffffffffffffffffffffffffffffffffffe0168201604052610a8b9190810190614a01565b90945091505b815160c086013560009081526003602090815260408083208054825181850281018501909352808352941515949192909190849084015b82821015610bb95760008481526020908190206040805160608101825260038602909201805473ffffffffffffffffffffffffffffffffffffffff16835260018101549383019390935260028301805492939291840191610b2890614b67565b80601f0160208091040260200160405190810160405280929190818152602001828054610b5490614b67565b8015610ba15780601f10610b7657610100808354040283529160200191610ba1565b820191906000526020600020905b815481529060010190602001808311610b8457829003601f168201915b50505050508152505081526020019060010190610ac8565b50506040517f3d12cb8700000000000000000000000000000000000000000000000000000000815260c08b0135600482015292935060009273ffffffffffffffffffffffffffffffffffffffff7f0000000000000000000000004be9d88be6e7a38644ea746cf78cb1bf30051c76169250633d12cb879150602401600060405180830381865afa158015610c51573d6000803e3d6000fd5b505050506040513d6000823e601f3d9081017fffffffffffffffffffffffffffffffffffffffffffffffffffffffffffffffe0168201604052610c979190810190614bba565b825181519192509084610cab576000610cae565b60015b60ff16610cbb8284614c83565b610cc59190614c83565b67ffffffffffffffff811115610cdd57610cdd613073565b604051908082528060200260200182016040528015610d2a57816020015b60408051606080820183526000808352602083015291810191909152815260200190600190039081610cfb5790505b50975060005b82811015610d7757848181518110610d4a57610d4a614631565b6020026020010151898281518110610d6457610d64614631565b6020908102919091010152600101610d30565b5060005b81811015610e0d576040518060600160405280858381518110610da057610da0614631565b602002602001015173ffffffffffffffffffffffffffffffffffffffff1681526020016000815260200160405180602001604052806000815250815250898285610dea9190614c83565b81518110610dfa57610dfa614631565b6020908102919091010152600101610d7b565b508415610e4d5786600081518110610e2757610e27614631565b6020026020010151888381518110610e4157610e41614631565b60200260200101819052505b50505050505050915091565b606060036000838152602001908152602001600020805480602002602001604051908101604052809291908181526020016000905b82821015610f7f5760008481526020908190206040805160608101825260038602909201805473ffffffffffffffffffffffffffffffffffffffff16835260018101549383019390935260028301805492939291840191610eee90614b67565b80601f0160208091040260200160405190810160405280929190818152602001828054610f1a90614b67565b8015610f675780601f10610f3c57610100808354040283529160200191610f67565b820191906000526020600020905b815481529060010190602001808311610f4a57829003601f168201915b50505050508152505081526020019060010190610e8e565b505050509050919050565b60008281526020819052604081205473ffffffffffffffffffffffffffffffffffffffff90811690831603610fc157506001610492565b6040517f3d12cb87000000000000000000000000000000000000000000000000000000008152600481018490526000907f0000000000000000000000004be9d88be6e7a38644ea746cf78cb1bf30051c7673ffffffffffffffffffffffffffffffffffffffff1690633d12cb8790602401600060405180830381865afa15801561104f573d6000803e3d6000fd5b505050506040513d6000823e601f3d9081017fffffffffffffffffffffffffffffffffffffffffffffffffffffffffffffffe01682016040526110959190810190614bba565b805190915060005b81811015611105578281815181106110b7576110b7614631565b602002602001015173ffffffffffffffffffffffffffffffffffffffff168573ffffffffffffffffffffffffffffffffffffffff16036110fd5760019350505050610492565b60010161109d565b50600095945050505050565b600061112285858530600087611ec7565b95945050505050565b7f000000000000000000000000daf6226aafe296bbccbec815133386cd910ed58273ffffffffffffffffffffffffffffffffffffffff16631f47ce696040518163ffffffff1660e01b8152600401602060405180830381865afa158015611196573d6000803e3d6000fd5b505050506040513d601f19601f820116820180604052508101906111ba9190614614565b73ffffffffffffffffffffffffffffffffffffffff1663f434c9146040518163ffffffff1660e01b8152600401602060405180830381865afa158015611204573d6000803e3d6000fd5b505050506040513d601f19601f820116820180604052508101906112289190614614565b73ffffffffffffffffffffffffffffffffffffffff16630f5932f033308560026040518563ffffffff1660e01b81526004016112679493929190614c96565b602060405180830381865afa158015611284573d6000803e3d6000fd5b505050506040513d601f19601f820116820180604052508101906112a89190614d14565b6112de576040517f31fb21f300000000000000000000000000000000000000000000000000000000815260040160405180910390fd5b7f000000000000000000000000daf6226aafe296bbccbec815133386cd910ed58273ffffffffffffffffffffffffffffffffffffffff16631f47ce696040518163ffffffff1660e01b8152600401602060405180830381865afa158015611349573d6000803e3d6000fd5b505050506040513d601f19601f8201168201806040525081019061136d9190614614565b73ffffffffffffffffffffffffffffffffffffffff1663f434c9146040518163ffffffff1660e01b8152600401602060405180830381865afa1580156113b7573d6000803e3d6000fd5b505050506040513d601f19601f820116820180604052508101906113db9190614614565b73ffffffffffffffffffffffffffffffffffffffff166305d2912e3060405180606001604052803373ffffffffffffffffffffffffffffffffffffffff168152602001868152602001600067ffffffffffffffff81111561143e5761143e613073565b604051908082528060200260200182016040528015611467578160200160208202803683370190505b508152506040518363ffffffff1660e01b815260040161148892919061478f565b600060405180830381600087803b1580156114a257600080fd5b505af11580156114b6573d6000803e3d6000fd5b505050507f000000000000000000000000daf6226aafe296bbccbec815133386cd910ed58273ffffffffffffffffffffffffffffffffffffffff16631f47ce696040518163ffffffff1660e01b8152600401602060405180830381865afa158015611525573d6000803e3d6000fd5b505050506040513d601f19601f820116820180604052508101906115499190614614565b73ffffffffffffffffffffffffffffffffffffffff1663f434c9146040518163ffffffff1660e01b8152600401602060405180830381865afa158015611593573d6000803e3d6000fd5b505050506040513d601f19601f820116820180604052508101906115b79190614614565b73ffffffffffffffffffffffffffffffffffffffff166305d2912e3060405180606001604052808573ffffffffffffffffffffffffffffffffffffffff168152602001868152602001600280548060200260200160405190810160405280929190818152602001828054801561164c57602002820191906000526020600020905b815481526020019060010190808311611638575b50505050508152506040518363ffffffff1660e01b815260040161167192919061478f565b600060405180830381600087803b15801561168b57600080fd5b505af115801561169f573d6000803e3d6000fd5b505050505050565b60008080606073ffffffffffffffffffffffffffffffffffffffff7f0000000000000000000000004be9d88be6e7a38644ea746cf78cb1bf30051c76166383db9d01604087018035906116fd9060208a01614d31565b6040517fffffffff0000000000000000000000000000000000000000000000000000000060e085901b168152600481019290925273ffffffffffffffffffffffffffffffffffffffff166024820152604401602060405180830381865afa15801561176c573d6000803e3d6000fd5b505050506040513d601f19601f820116820180604052508101906117909190614d14565b156117ad5761271085608001358660a0013593509350935061180f565b6040808601356000908152600160205220544210156117f8576040517f04c3b3cd00000000000000000000000000000000000000000000000000000000815260040160405180910390fd5b84610160013585608001358660a001359350935093505b9193509193565b7f000000000000000000000000daf6226aafe296bbccbec815133386cd910ed58273ffffffffffffffffffffffffffffffffffffffff16631f47ce696040518163ffffffff1660e01b8152600401602060405180830381865afa158015611881573d6000803e3d6000fd5b505050506040513d601f19601f820116820180604052508101906118a59190614614565b73ffffffffffffffffffffffffffffffffffffffff1663f434c9146040518163ffffffff1660e01b8152600401602060405180830381865afa1580156118ef573d6000803e3d6000fd5b505050506040513d601f19601f820116820180604052508101906119139190614614565b73ffffffffffffffffffffffffffffffffffffffff16630f5932f033308660026040518563ffffffff1660e01b81526004016119529493929190614c96565b602060405180830381865afa15801561196f573d6000803e3d6000fd5b505050506040513d601f19601f820116820180604052508101906119939190614d14565b6119c9576040517f31fb21f300000000000000000000000000000000000000000000000000000000815260040160405180910390fd5b6000338383602001516040516020016119e493929190614d4e565b604080517fffffffffffffffffffffffffffffffffffffffffffffffffffffffffffffffe081840301815290829052805160209091012083517f2f3f50e000000000000000000000000000000000000000000000000000000000835290925073ffffffffffffffffffffffffffffffffffffffff7f0000000000000000000000004be9d88be6e7a38644ea746cf78cb1bf30051c761691632f3f50e091611a919188918691600401614da0565b6000604051808303816000875af1158015611ab0573d6000803e3d6000fd5b505050506040513d6000823e601f3d9081017fffffffffffffffffffffffffffffffffffffffffffffffffffffffffffffffe0168201604052611af69190810190614bba565b5050505050565b6000807f000000000000000000000000daf6226aafe296bbccbec815133386cd910ed58273ffffffffffffffffffffffffffffffffffffffff1663293c49996040518163ffffffff1660e01b8152600401602060405180830381865afa158015611b6b573d6000803e3d6000fd5b505050506040513d601f19601f82011682018060405250810190611b8f9190614614565b73ffffffffffffffffffffffffffffffffffffffff166306661abd6040518163ffffffff1660e01b8152600401602060405180830381865afa158015611bd9573d6000803e3d6000fd5b505050506040513d601f19601f82011682018060405250810190611bfd9190614e9d565b611c08906001614c83565b84519092506000611c1a826001614c83565b67ffffffffffffffff811115611c3257611c32613073565b604051908082528060200260200182016040528015611c7f57816020015b60408051606080820183526000808352602083015291810191909152815260200190600190039081611c505790505b50905060005b82811015611ccc57868181518110611c9f57611c9f614631565b6020026020010151828281518110611cb957611cb9614631565b6020908102919091010152600101611c85565b5086516040517f2230819f00000000000000000000000000000000000000000000000000000000815273ffffffffffffffffffffffffffffffffffffffff7f000000000000000000000000cdfa45a183fa6841ed1ef8550fca0a8aab42ec341691632230819f91611d41918891600401614ff0565b6020604051808303816000875af1158015611d60573d6000803e3d6000fd5b505050506040513d601f19601f82011682018060405250810190611d849190614614565b9250866020015115611dc8576002805460018101825560009190915260167f405787fa12a823e0f2b7631cc41b3ba8828b3321ca811111fa75cd3aa3bb5ace909101555b866040015115611e0a576002805460018101825560009190915260177f405787fa12a823e0f2b7631cc41b3ba8828b3321ca811111fa75cd3aa3bb5ace909101555b866060015115611e4c576002805460018101825560009190915260187f405787fa12a823e0f2b7631cc41b3ba8828b3321ca811111fa75cd3aa3bb5ace909101555b60405180606001604052808473ffffffffffffffffffffffffffffffffffffffff1681526020016000815260200160405180602001604052806000815250815250818381518110611e9f57611e9f614631565b6020026020010181905250611eb88b8b8b8b858a610977565b50505097509795505050505050565b600080600080611ed88a8888612759565b9250925092507f000000000000000000000000daf6226aafe296bbccbec815133386cd910ed58273ffffffffffffffffffffffffffffffffffffffff16630634bae9308c6000015160400151868d8f6000015160200151604051602001611f3f919061516d565b6040516020818303038152906040526040518663ffffffff1660e01b8152600401611f6e95949392919061555d565b6020604051808303816000875af1158015611f8d573d6000803e3d6000fd5b505050506040513d601f19601f82011682018060405250810190611fb19190614e9d565b93508015611fd657611fc66276a70042614c83565b6000858152600160205260409020555b8951805160208201516060909201516040517f5817819100000000000000000000000000000000000000000000000000000000815273ffffffffffffffffffffffffffffffffffffffff7f000000000000000000000000daf6226aafe296bbccbec815133386cd910ed582169363581781919361205a938a939192916004016156c2565b6020604051808303816000875af1158015612079573d6000803e3d6000fd5b505050506040513d601f19601f8201168201806040525081019061209d9190614614565b50875173ffffffffffffffffffffffffffffffffffffffff16156120c5576120c58489612c5b565b7f000000000000000000000000daf6226aafe296bbccbec815133386cd910ed58273ffffffffffffffffffffffffffffffffffffffff1663dd5f214a8560006121118e60600151612de0565b6040518463ffffffff1660e01b815260040161212f939291906156ff565b600060405180830381600087803b15801561214957600080fd5b505af115801561215d573d6000803e3d6000fd5b505050507f000000000000000000000000daf6226aafe296bbccbec815133386cd910ed58273ffffffffffffffffffffffffffffffffffffffff1663f434c9146040518163ffffffff1660e01b8152600401602060405180830381865afa1580156121cc573d6000803e3d6000fd5b505050506040513d601f19601f820116820180604052508101906121f09190614614565b73ffffffffffffffffffffffffffffffffffffffff166305d2912e3060405180606001604052808e6060015173ffffffffffffffffffffffffffffffffffffffff168152602001888152602001600280548060200260200160405190810160405280929190818152602001828054801561228957602002820191906000526020600020905b815481526020019060010190808311612275575b50505050508152506040518363ffffffff1660e01b81526004016122ae92919061478f565b600060405180830381600087803b1580156122c857600080fd5b505af11580156122dc573d6000803e3d6000fd5b5050505060408a0151156123c0577f000000000000000000000000daf6226aafe296bbccbec815133386cd910ed58273ffffffffffffffffffffffffffffffffffffffff1663c7fb92de858c604001518d606001518e600001516020015160405160200161234a919061571e565b60405160208183030381529060405260006040518663ffffffff1660e01b815260040161237b95949392919061578a565b6020604051808303816000875af115801561239a573d6000803e3d6000fd5b505050506040513d601f19601f820116820180604052508101906123be9190614e9d565b505b60408051600180825281830190925260009160208083019080368337019050509050601d816000815181106123f7576123f7614631565b6020026020010181815250507f000000000000000000000000daf6226aafe296bbccbec815133386cd910ed58273ffffffffffffffffffffffffffffffffffffffff1663f434c9146040518163ffffffff1660e01b8152600401602060405180830381865afa15801561246e573d6000803e3d6000fd5b505050506040513d601f19601f820116820180604052508101906124929190614614565b73ffffffffffffffffffffffffffffffffffffffff166305d2912e3060405180606001604052807f0000000000000000000000004be9d88be6e7a38644ea746cf78cb1bf30051c7673ffffffffffffffffffffffffffffffffffffffff168152602001898152602001858152506040518363ffffffff1660e01b815260040161251c92919061478f565b600060405180830381600087803b15801561253657600080fd5b505af115801561254a573d6000803e3d6000fd5b50505050602086015115612684577f0000000000000000000000004be9d88be6e7a38644ea746cf78cb1bf30051c7673ffffffffffffffffffffffffffffffffffffffff16632f3f50e08633868a602001516040516020016125ae93929190614d4e565b604080517fffffffffffffffffffffffffffffffffffffffffffffffffffffffffffffffe08184030181529082905280516020909101208a517fffffffff0000000000000000000000000000000000000000000000000000000060e086901b16835261261d9392600401614da0565b6000604051808303816000875af115801561263c573d6000803e3d6000fd5b505050506040513d6000823e601f3d9081017fffffffffffffffffffffffffffffffffffffffffffffffffffffffffffffffe01682016040526126829190810190614bba565b505b505050509695505050505050565b805160005b8181101561275357600084815260036020526040902083518490839081106126c1576126c1614631565b602090810291909101810151825460018082018555600094855293839020825160039092020180547fffffffffffffffffffffffff00000000000000000000000000000000000000001673ffffffffffffffffffffffffffffffffffffffff9092169190911781559181015192820192909255604082015160028201906127489082615826565b505050600101612697565b50505050565b60608060008086608001515190508067ffffffffffffffff81111561278057612780613073565b60405190808252806020026020018201604052801561287257816020015b61285f6040805161010080820183526000808352602080840182905283850182905260608085018390526080808601849052865161020081018852848152928301849052958201839052810182905293840181905260a084810182905260c0850182905260e0850182905291840181905261012084018190526101408401819052610160840181905261018084018190526101a084018190526101c084018190526101e0840152909190820190815260200160608152602001606081525090565b81526020019060019003908161279e5790505b5093508660200151604051602001612896919063ffffffff91909116815260200190565b604080518083037fffffffffffffffffffffffffffffffffffffffffffffffffffffffffffffffe001815260c083018252600080845260208401819052918301829052606083018290526080830182905260a0830182905294505b82811015612c4f578860800151818151811061290f5761290f614631565b60200260200101519150816000015164ffffffffff1686828151811061293757612937614631565b60200260200101516000018181525050816060015164ffffffffff1686828151811061296557612965614631565b6020026020010151602001818152505081604001516dffffffffffffffffffffffffffff1686828151811061299c5761299c614631565b60200260200101516040018181525050816080015163ffffffff168682815181106129c9576129c9614631565b6020026020010151606001818152505060008682815181106129ed576129ed614631565b60200260200101516080019073ffffffffffffffffffffffffffffffffffffffff16908173ffffffffffffffffffffffffffffffffffffffff1681525050604051806102000160405280836020015161ffff1681526020018360a0015161ffff16612710612a5b9190615940565b815260208b81015163ffffffff16908201526000604082018190526060820181905260016080830181905260a0830182905260c0830182905260e0830182905261010083018290526101208301829052610140830182905261016083015261018082015273ffffffffffffffffffffffffffffffffffffffff8a166101a08201526101c0018890528651879083908110612af757612af7614631565b602002602001015160a00181905250806000148015612b1d5750815164ffffffffff1615155b8015612b33575042826000015164ffffffffff16105b15612b3d57600193505b8481158015612b525750825164ffffffffff16155b612b6457825164ffffffffff16612b66565b425b83602001518460400151856060015186608001518760a00151604051602001612bdb9695949392919095865261ffff94851660208701526dffffffffffffffffffffffffffff93909316604086015264ffffffffff91909116606085015263ffffffff1660808401521660a082015260c00190565b604080517fffffffffffffffffffffffffffffffffffffffffffffffffffffffffffffffe081840301815290829052612c179291602001615953565b604080517fffffffffffffffffffffffffffffffffffffffffffffffffffffffffffffffe081840301815291905294506001016128f1565b50505093509350939050565b602081810151516040805160808101825260008082529381018490529081018390526060810183905290915b82811015612d875783602001518181518110612ca557612ca5614631565b6020908102919091018101518551918101516040808301516060840151845192517f7b621d3a000000000000000000000000000000000000000000000000000000008152600481018c905262ffffff909416602485015263ffffffff918216604485015216606483015273ffffffffffffffffffffffffffffffffffffffff9081166084830152919450911690637b621d3a9060a4016020604051808303816000875af1158015612d5a573d6000803e3d6000fd5b505050506040513d601f19601f82011682018060405250810190612d7e9190614614565b50600101612c87565b5050905160009283526020839052604090922080547fffffffffffffffffffffffff00000000000000000000000000000000000000001673ffffffffffffffffffffffffffffffffffffffff9093169290921790915550565b604080516001808252818301909252606091816020015b604080518082019091526000815260606020820152815260200190600190039081612df757505060408051600180825281830190925291925060009190602082015b6040805160c08101825260008082526020808301829052928201819052606082018190526080820181905260a082015282527fffffffffffffffffffffffffffffffffffffffffffffffffffffffffffffffff909201910181612e395790505090506040518060c00160405280600015158152602001633b9aca008152602001600081526020018473ffffffffffffffffffffffffffffffffffffffff16815260200160008152602001600073ffffffffffffffffffffffffffffffffffffffff1681525081600081518110612f1157612f11614631565b60200260200101819052506040518060400160405280600181526020018281525082600081518110612f4557612f45614631565b602002602001018190525050919050565b600060208284031215612f6857600080fd5b81357fffffffff0000000000000000000000000000000000000000000000000000000081168114612f9857600080fd5b9392505050565b73ffffffffffffffffffffffffffffffffffffffff81168114612fc157600080fd5b50565b8035612fcf81612f9f565b919050565b600080600080600060808688031215612fec57600080fd5b8535612ff781612f9f565b9450602086013561300781612f9f565b935060408601359250606086013567ffffffffffffffff8082111561302b57600080fd5b818801915088601f83011261303f57600080fd5b81358181111561304e57600080fd5b89602082850101111561306057600080fd5b9699959850939650602001949392505050565b7f4e487b7100000000000000000000000000000000000000000000000000000000600052604160045260246000fd5b60405160c0810167ffffffffffffffff811182821017156130c5576130c5613073565b60405290565b60405160a0810167ffffffffffffffff811182821017156130c5576130c5613073565b6040516080810167ffffffffffffffff811182821017156130c5576130c5613073565b6040805190810167ffffffffffffffff811182821017156130c5576130c5613073565b604051610180810167ffffffffffffffff811182821017156130c5576130c5613073565b604051610120810167ffffffffffffffff811182821017156130c5576130c5613073565b6040516060810167ffffffffffffffff811182821017156130c5576130c5613073565b604051601f82017fffffffffffffffffffffffffffffffffffffffffffffffffffffffffffffffe016810167ffffffffffffffff811182821017156131e6576131e6613073565b604052919050565b600067ffffffffffffffff82111561320857613208613073565b50601f017fffffffffffffffffffffffffffffffffffffffffffffffffffffffffffffffe01660200190565b600082601f83011261324557600080fd5b8135613258613253826131ee565b61319f565b81815284602083860101111561326d57600080fd5b816020850160208301376000918101602001919091529392505050565b803563ffffffff81168114612fcf57600080fd5b600067ffffffffffffffff8211156132b8576132b8613073565b5060051b60200190565b803564ffffffffff81168114612fcf57600080fd5b803561ffff81168114612fcf57600080fd5b600082601f8301126132fa57600080fd5b8135602061330a6132538361329e565b82815260c0928302850182019282820191908785111561332957600080fd5b8387015b858110156133ce5781818a0312156133455760008081fd5b61334d6130a2565b613356826132c2565b81526133638683016132d7565b868201526040808301356dffffffffffffffffffffffffffff8116811461338a5760008081fd5b90820152606061339b8382016132c2565b9082015260806133ac83820161328a565b9082015260a06133bd8382016132d7565b90820152845292840192810161332d565b5090979650505050505050565b600060a082840312156133ed57600080fd5b6133f56130cb565b9050813567ffffffffffffffff8082111561340f57600080fd5b908301906080828603121561342357600080fd5b61342b6130ee565b82358281111561343a57600080fd5b61344687828601613234565b82525060208301358281111561345b57600080fd5b61346787828601613234565b60208301525060408301358281111561347f57600080fd5b61348b87828601613234565b6040830152506060838101359082015283526134a96020850161328a565b6020840152604084013560408401526134c460608501612fc4565b606084015260808401359150808211156134dd57600080fd5b506134ea848285016132e9565b60808301525092915050565b600082601f83011261350757600080fd5b813560206135176132538361329e565b8083825260208201915060208460051b87010193508684111561353957600080fd5b602086015b8481101561355e57803561355181612f9f565b835291830191830161353e565b509695505050505050565b600082601f83011261357a57600080fd5b8135602061358a6132538361329e565b82815260059290921b840181019181810190868411156135a957600080fd5b8286015b8481101561355e57803567ffffffffffffffff808211156135ce5760008081fd5b81890191506040807fffffffffffffffffffffffffffffffffffffffffffffffffffffffffffffffe0848d030112156136075760008081fd5b61360f613111565b8784013561361c81612f9f565b81529083013590828211156136315760008081fd5b61363f8c89848701016134f6565b8189015286525050509183019183016135ad565b803562ffffff81168114612fcf57600080fd5b6000604080838503121561367957600080fd5b613681613111565b9150823561368e81612f9f565b825260208381013567ffffffffffffffff8111156136ab57600080fd5b8401601f810186136136bc57600080fd5b80356136ca6132538261329e565b81815260079190911b820183019083810190888311156136e957600080fd5b928401925b8284101561375d576080848a0312156137075760008081fd5b61370f6130ee565b843561371a81612f9f565b8152613727858701613653565b8682015261373687860161328a565b87820152606061374781870161328a565b90820152825260809390930192908401906136ee565b808588015250505050505092915050565b60006040828403121561378057600080fd5b613788613111565b905067ffffffffffffffff80833511156137a157600080fd5b8235830184601f8201126137b457600080fd5b6137c1613253823561329e565b81358082526020808301929160051b840101878111156137e057600080fd5b602084015b818110156139435785813511156137fb57600080fd5b8035850160407fffffffffffffffffffffffffffffffffffffffffffffffffffffffffffffffe0828c0301121561383157600080fd5b613839613111565b6138466020830135612f9f565b60208201358152876040830135111561385e57600080fd5b6040820135820191508a603f83011261387657600080fd5b60208201356138876132538261329e565b81815260079190911b83016040019060208101908d8311156138a857600080fd5b6040850194505b82851015613924576080858f0312156138c757600080fd5b6138cf6130ee565b6138d98635612f9f565b853581526138e96020870161328a565b60208201526138fb6040870135612f9f565b6040860135604082015260608601356060820152808352506020820191506080850194506138af565b80602085015250505080865250506020840193506020810190506137e5565b5050808552505050506020820135602082015292915050565b80356cffffffffffffffffffffffffff81168114612fcf57600080fd5b8015158114612fc157600080fd5b8035612fcf81613979565b803560ff81168114612fcf57600080fd5b600060808083850312156139b657600080fd5b6139be6130ee565b9150823567ffffffffffffffff8111156139d757600080fd5b8301601f810185136139e857600080fd5b803560206139f86132538361329e565b8281526101809283028401820192828201919089851115613a1857600080fd5b948301945b84861015613b0b5780868b031215613a355760008081fd5b613a3d613134565b613a468761395c565b8152613a5385880161328a565b858201526040613a6481890161328a565b908201526060613a758882016132d7565b90820152613a84878901612fc4565b8189015260a0878101359082015260c0613a9f818901613653565b9082015260e0613ab0888201613987565b90820152610100613ac2888201613987565b90820152610120613ad4888201613987565b90820152610140613ae6888201613987565b90820152610160613af8888201613987565b9082015283529485019491830191613a1d565b50865250613b1a86820161328a565b8186015250505050613b2e60408301613992565b6040820152613b3f60608301612fc4565b606082015292915050565b600060808284031215613b5c57600080fd5b613b646130ee565b90508135613b7181613979565b81526020820135613b8181613979565b60208201526040820135613b9481613979565b60408201526060820135613b3f81613979565b600060808284031215613bb957600080fd5b613bc16130ee565b9050813567ffffffffffffffff80821115613bdb57600080fd5b908301906101808286031215613bf057600080fd5b613bf8613158565b823582811115613c0757600080fd5b613c1387828601613234565b825250602083013582811115613c2857600080fd5b613c3487828601613234565b602083015250613c4660408401612fc4565b6040820152606083013582811115613c5d57600080fd5b613c6987828601613234565b606083015250613c7b60808401612fc4565b608082015260a083013582811115613c9257600080fd5b613c9e87828601613234565b60a08301525060c083013582811115613cb657600080fd5b613cc2878286016139a3565b60c083015250613cd460e08401612fc4565b60e08201526101009150613cea86838501613b4a565b82820152808452505050613d0060208301613987565b6020820152613d1160408301613987565b6040820152613b3f60608301613987565b600082601f830112613d3357600080fd5b81356020613d436132538361329e565b82815260059290921b84018101918181019086841115613d6257600080fd5b8286015b8481101561355e57803567ffffffffffffffff80821115613d875760008081fd5b81890191506060807fffffffffffffffffffffffffffffffffffffffffffffffffffffffffffffffe0848d03011215613dc05760008081fd5b613dc861317c565b87840135613dd581612f9f565b815260408481013589830152918401359183831115613df45760008081fd5b613e028d8a85880101613234565b908201528652505050918301918301613d66565b600082601f830112613e2757600080fd5b81356020613e376132538361329e565b82815260059290921b84018101918181019086841115613e5657600080fd5b8286015b8481101561355e57803567ffffffffffffffff80821115613e7b5760008081fd5b818901915060a0807fffffffffffffffffffffffffffffffffffffffffffffffffffffffffffffffe0848d03011215613eb45760008081fd5b613ebc6130cb565b87840135815260408085013589830152606080860135828401526080915081860135818401525082850135925083831115613ef75760008081fd5b613f058d8a858801016134f6565b908201528652505050918301918301613e5a565b600080600080600080600080610100898b031215613f3657600080fd5b883567ffffffffffffffff80821115613f4e57600080fd5b613f5a8c838d016133db565b995060208b0135915080821115613f7057600080fd5b613f7c8c838d01613569565b985060408b0135915080821115613f9257600080fd5b613f9e8c838d01613666565b975060608b0135915080821115613fb457600080fd5b613fc08c838d0161376e565b965060808b0135915080821115613fd657600080fd5b613fe28c838d01613ba7565b955060a08b0135915080821115613ff857600080fd5b6140048c838d01613d22565b945061401260c08c016132d7565b935060e08b013591508082111561402857600080fd5b506140358b828c01613e16565b9150509295985092959890939650565b60008060008060008060c0878903121561405e57600080fd5b863567ffffffffffffffff8082111561407657600080fd5b6140828a838b016133db565b9750602089013591508082111561409857600080fd5b6140a48a838b01613569565b965060408901359150808211156140ba57600080fd5b6140c68a838b01613666565b955060608901359150808211156140dc57600080fd5b6140e88a838b0161376e565b945060808901359150808211156140fe57600080fd5b5061410b89828a01613d22565b92505061411a60a088016132d7565b90509295509295509295565b60006020828403121561413857600080fd5b5035919050565b60006020828403121561415157600080fd5b813567ffffffffffffffff81111561416857600080fd5b82016101808185031215612f9857600080fd5b60005b8381101561419657818101518382015260200161417e565b50506000910152565b600081518084526141b781602086016020860161417b565b601f017fffffffffffffffffffffffffffffffffffffffffffffffffffffffffffffffe0169290920160200192915050565b600082825180855260208086019550808260051b84010181860160005b848110156133ce578583037fffffffffffffffffffffffffffffffffffffffffffffffffffffffffffffffe00189528151805173ffffffffffffffffffffffffffffffffffffffff16845284810151858501526040908101516060918501829052906142748186018361419f565b9a86019a9450505090830190600101614206565b8281526040602082015260006142a160408301846141e9565b949350505050565b602081526000612f9860208301846141e9565b600080604083850312156142cf57600080fd5b8235915060208301356142e181612f9f565b809150509250929050565b6000806000806080858703121561430257600080fd5b843567ffffffffffffffff8082111561431a57600080fd5b614326888389016133db565b9550602087013591508082111561433c57600080fd5b61434888838901613569565b9450604087013591508082111561435e57600080fd5b61436a88838901613666565b9350606087013591508082111561438057600080fd5b5061438d8782880161376e565b91505092959194509250565b6000602082840312156143ab57600080fd5b813567ffffffffffffffff8111156143c257600080fd5b82016101a08185031215612f9857600080fd5b60006080820186835260208681850152604086604086015260606080606087015283875180865260a08801915060a08160051b890101955084890160005b8281101561448e578988037fffffffffffffffffffffffffffffffffffffffffffffffffffffffffffffff600184528151805173ffffffffffffffffffffffffffffffffffffffff16895287810151888a015286015186890186905261447b868a018261419f565b9850509286019290860190600101614413565b50959c9b505050505050505050505050565b6000806000606084860312156144b557600080fd5b83359250602084013567ffffffffffffffff808211156144d457600080fd5b6144e087838801613234565b935060408601359150808211156144f657600080fd5b506145038682870161376e565b9150509250925092565b600080600080600080600060e0888a03121561452857600080fd5b873567ffffffffffffffff8082111561454057600080fd5b61454c8b838c016133db565b985060208a013591508082111561456257600080fd5b61456e8b838c01613569565b975060408a013591508082111561458457600080fd5b6145908b838c01613666565b965060608a01359150808211156145a657600080fd5b6145b28b838c0161376e565b955060808a01359150808211156145c857600080fd5b6145d48b838c01613ba7565b945060a08a01359150808211156145ea57600080fd5b506145f78a828b01613d22565b92505061460660c089016132d7565b905092959891949750929550565b60006020828403121561462657600080fd5b8151612f9881612f9f565b7f4e487b7100000000000000000000000000000000000000000000000000000000600052603260045260246000fd5b60008151808452602080850194506020840160005b838110156146a757815173ffffffffffffffffffffffffffffffffffffffff1687529582019590820190600101614675565b509495945050505050565b6000604080830185845260206040818601528186518084526060935060608701915060608160051b88010183890160005b8381101561477f578983037fffffffffffffffffffffffffffffffffffffffffffffffffffffffffffffffa00185528151805173ffffffffffffffffffffffffffffffffffffffff1684528681015187850152888101518985015287810151888501526080808201519085015260a09081015160c09185018290529061476b81860183614660565b9688019694505050908501906001016146e3565b50909a9950505050505050505050565b600073ffffffffffffffffffffffffffffffffffffffff808516835260206040602085015260a0840182865116604086015260208601516060860152604086015192506060608086015280835180835260c087019150602085019450600092505b8083101561481057845182529383019360019290920191908301906147f0565b50979650505050505050565b803561482781612f9f565b73ffffffffffffffffffffffffffffffffffffffff1682526020818101359083015260408082013590830152606090810135910152565b60008083357fffffffffffffffffffffffffffffffffffffffffffffffffffffffffffffffe184360301811261489357600080fd5b830160208101925035905067ffffffffffffffff8111156148b357600080fd5b8036038213156148c257600080fd5b9250929050565b8183528181602085013750600060208284010152600060207fffffffffffffffffffffffffffffffffffffffffffffffffffffffffffffffe0601f840116840101905092915050565b602081526149406020820161492684612fc4565b73ffffffffffffffffffffffffffffffffffffffff169052565b600061494e60208401612fc4565b73ffffffffffffffffffffffffffffffffffffffff811660408401525061497b606083016040850161481c565b60c083013560e083015261010060e08401358184015261499c818501612fc4565b90506101206149c28185018373ffffffffffffffffffffffffffffffffffffffff169052565b610140915080850135828501525061016081850135818501526149e78186018661485e565b61018086810152925090506111226101a0850183836148c9565b6000806040808486031215614a1557600080fd5b8351925060208085015167ffffffffffffffff80821115614a3557600080fd5b818701915087601f830112614a4957600080fd5b8151614a576132538261329e565b81815260059190911b8301840190848101908a831115614a7657600080fd5b8585015b83811015614b5557805185811115614a9157600080fd5b86016060818e037fffffffffffffffffffffffffffffffffffffffffffffffffffffffffffffffe0011215614ac65760008081fd5b614ace61317c565b88820151614adb81612f9f565b8152818a015189820152606082015187811115614af85760008081fd5b8083019250508d603f830112614b0e5760008081fd5b88820151614b1e613253826131ee565b8181528f8c838601011115614b335760008081fd5b614b42828c83018e870161417b565b828c015250845250918601918601614a7a565b50809750505050505050509250929050565b600181811c90821680614b7b57607f821691505b602082108103614bb4577f4e487b7100000000000000000000000000000000000000000000000000000000600052602260045260246000fd5b50919050565b60006020808385031215614bcd57600080fd5b825167ffffffffffffffff811115614be457600080fd5b8301601f81018513614bf557600080fd5b8051614c036132538261329e565b81815260059190911b82018301908381019087831115614c2257600080fd5b928401925b82841015614c49578351614c3a81612f9f565b82529284019290840190614c27565b979650505050505050565b7f4e487b7100000000000000000000000000000000000000000000000000000000600052601160045260246000fd5b8082018082111561049257610492614c54565b60006080820173ffffffffffffffffffffffffffffffffffffffff80881684526020818816602086015286604086015260806060860152829150855480845260a086019250866000526020600020935060005b81811015614d0557845484526001948501949383019301614ce9565b50919998505050505050505050565b600060208284031215614d2657600080fd5b8151612f9881613979565b600060208284031215614d4357600080fd5b8135612f9881612f9f565b7fffffffffffffffffffffffffffffffffffffffff0000000000000000000000008460601b16815260008351614d8b81601485016020880161417b565b60149201918201929092526034019392505050565b600060608083018684526020868186015260406060604087015282875180855260808801915060808160051b89010194508389016000805b8381101561448e578a88037fffffffffffffffffffffffffffffffffffffffffffffffffffffffffffffff800185528251805173ffffffffffffffffffffffffffffffffffffffff9081168a5290880151888a018890528051888b018190529089019184918c8c01905b80841015614e875784518051841683528c81015163ffffffff168d8401528b81015184168c8401528e01518e830152938b019360019390930192608090910190614e42565b509a505050948701945091860191600101614dd8565b600060208284031215614eaf57600080fd5b5051919050565b80516080808452815184820181905260009260a0916020918201918388019190865b82811015614fa857845180516cffffffffffffffffffffffffff1685528281015163ffffffff908116848701526040808301519091169086015260608082015161ffff16908601528781015173ffffffffffffffffffffffffffffffffffffffff1688860152868101518786015260c08082015162ffffff169086015260e080820151151590860152610100808201511515908601526101208082015115159086015261014080820151151590860152610160908101511515908501529381019361018090930192600101614ed8565b508781015163ffffffff16908901525060408087015160ff169088015260608087015173ffffffffffffffffffffffffffffffffffffffff8116918901919091529350610997565b828152604060208201526000825161018060408401526150146101c084018261419f565b905060208401517fffffffffffffffffffffffffffffffffffffffffffffffffffffffffffffffc080858403016060860152615050838361419f565b92506040860151915061507b608086018373ffffffffffffffffffffffffffffffffffffffff169052565b60608601519150808584030160a0860152615096838361419f565b9250608086015191506150c160c086018373ffffffffffffffffffffffffffffffffffffffff169052565b60a08601519150808584030160e08601526150dc838361419f565b925060c086015191506101008186850301818701526150fb8484614eb6565b935060e0870151925061512761012087018473ffffffffffffffffffffffffffffffffffffffff169052565b860151805115156101408701526020810151151561016087015260408101511515610180870152606081015115156101a087015291506151649050565b50949350505050565b7f24000000000000000000000000000000000000000000000000000000000000008152600082516151a581600185016020870161417b565b7f207265766e6574206465706c6f796564000000000000000000000000000000006001939091019283015250601101919050565b8051825260208101516020830152604081015160408301526060810151615204606084018215159052565b506080810151615218608084018215159052565b5060a081015161522c60a084018215159052565b5060c081015161524060c084018215159052565b5060e081015161525460e084018215159052565b5061010081810151151590830152610120808201511515908301526101408082015115159083015261016080820151151590830152610180808201511515908301526101a0808201511515908301526101c08082015173ffffffffffffffffffffffffffffffffffffffff16908301526101e090810151910152565b600082825180855260208086019550808260051b8401018186016000805b858110156153c1578684037fffffffffffffffffffffffffffffffffffffffffffffffffffffffffffffffe0018a52825180518552850151604086860181905281518187018190529187019160609081880190865b818110156153aa5785518051151584528b8101518c85015285810151868501528481015173ffffffffffffffffffffffffffffffffffffffff908116868601526080808301519086015260a0918201511690840152948a019460c090920191600101615343565b50509c88019c9650505092850192506001016152ee565b509198975050505050505050565b60008151808452602080850194506020840160005b838110156146a75781518051885283015183880152604090960195908201906001016153e4565b600082825180855260208086019550808260051b84010181860160005b848110156133ce577fffffffffffffffffffffffffffffffffffffffffffffffffffffffffffffffe08684030189528151608073ffffffffffffffffffffffffffffffffffffffff80835116865280878401511687870152506040808301518282880152615498838801826153cf565b92505050606080830151925085820381870152506154b681836153cf565b9a86019a9450505090830190600101615428565b600082825180855260208086019550808260051b84010181860160005b848110156133ce578583037fffffffffffffffffffffffffffffffffffffffffffffffffffffffffffffffe00189528151805173ffffffffffffffffffffffffffffffffffffffff168452840151604085850181905261554981860183614660565b9a86019a94505050908301906001016154e7565b600060a073ffffffffffffffffffffffffffffffffffffffff88168352602060a08185015261558f60a085018961419f565b604085820360408701528189518084528484019150848160051b850101858c0160005b83811015615688577fffffffffffffffffffffffffffffffffffffffffffffffffffffffffffffffe087840301855281516102e081518552898201518a8601528782015188860152606080830151818701525060808083015161562c8288018273ffffffffffffffffffffffffffffffffffffffff169052565b50508a82015161563e8c8701826151d9565b5060c0820151816102a0870152615657828701826152d0565b91505060e082015191508481036102c0860152615674818361540b565b968a019694505050908701906001016155b2565b505088810360608a015261569c818c6154ca565b965050505050505082810360808401526156b6818561419f565b98975050505050505050565b8481526080602082015260006156db608083018661419f565b82810360408401526156ed818661419f565b91505082606083015295945050505050565b83815282602082015260606040820152600061112260608301846152d0565b7f240000000000000000000000000000000000000000000000000000000000000081526000825161575681600185016020870161417b565b7f207072656d696e746564000000000000000000000000000000000000000000006001939091019283015250600b01919050565b85815284602082015273ffffffffffffffffffffffffffffffffffffffff8416604082015260a0606082015260006157c560a083018561419f565b905082151560808301529695505050505050565b601f821115615821576000816000526020600020601f850160051c810160208610156158025750805b601f850160051c820191505b8181101561169f5782815560010161580e565b505050565b815167ffffffffffffffff81111561584057615840613073565b6158548161584e8454614b67565b846157d9565b602080601f8311600181146158a757600084156158715750858301515b7fffffffffffffffffffffffffffffffffffffffffffffffffffffffffffffffff600386901b1c1916600185901b17855561169f565b6000858152602081207fffffffffffffffffffffffffffffffffffffffffffffffffffffffffffffffe08616915b828110156158f4578886015182559484019460019091019084016158d5565b508582101561593057878501517fffffffffffffffffffffffffffffffffffffffffffffffffffffffffffffffff600388901b60f8161c191681555b5050505050600190811b01905550565b8181038181111561049257610492614c54565b6000835161596581846020880161417b565b83519083019061597981836020880161417b565b0194935050505056fea26469706673582212200d8526601dbb535e8e512b2f806caea5968ae535e85165f3485341081d55b81b64736f6c63430008170033",
			"devdoc": {
				"kind": "dev",
				"methods": {
					"beforePayRecordedWith((address,address,(address,uint256,uint256,uint256),uint256,uint256,address,uint256,uint256,bytes))": {
						"details": "Part of IJBFundingCycleDataSource.This implementation just sets this contract up to receive a `didPay` call.",
						"params": {
							"context": "The Juicebox standard network payment context. See"
						},
						"returns": {
							"hookSpecifications": "Amount to be sent to pay hooks instead of adding to local balance. Useful for auto-routing funds from a treasury as payment come in.",
							"weight": "The weight that network tokens should get minted relative to. This is useful for optionally customizing how many tokens are issued per payment."
						}
					},
					"constructor": {
						"params": {
							"controller": "The controller that revnets are made from.",
							"hookDeployer": "The 721 tiers hook deployer.",
							"publisher": "The croptop publisher that facilitates the permissioned publishing of 721 posts to a revnet.",
							"suckerRegistry": "The registry that deploys and tracks each project's suckers."
						}
					},
					"deployCroptopRevnetWith(((string,string,string,bytes32),uint32,uint256,address,(uint40,uint16,uint112,uint40,uint32,uint16)[]),(address,address[])[],(address,(address,uint24,uint32,uint32)[]),((address,(address,uint32,address,uint256)[])[],bytes32),((string,string,address,string,address,string,((uint104,uint32,uint32,uint16,address,bytes32,uint24,bool,bool,bool,bool,bool)[],uint32,uint8,address),address,(bool,bool,bool,bool)),bool,bool,bool),(address,uint256,bytes)[],uint16,(uint256,uint256,uint256,uint256,address[])[])": {
						"params": {
							"allowedPosts": "The type of posts that the network should allow.",
							"buybackHookConfiguration": "Data used for setting up the buyback hook to use when determining the best price for new participants.",
							"configuration": "The data needed to deploy a basic revnet.",
							"extraHookMetadata": "Extra metadata to attach to the cycle for the delegates to use.",
							"hookConfiguration": "Data used for setting up the 721 tiers.",
							"otherPayHooksSpecifications": "Any hooks that should run when the revnet is paid alongside the 721 hook.",
							"suckerDeploymentConfiguration": "Information about how this revnet relates to other's across chains.",
							"terminalConfigurations": "The terminals that the network uses to accept payments through."
						},
						"returns": {
							"hook": "The address of the 721 hook that was deployed on the revnet.",
							"revnetId": "The ID of the newly created revnet."
						}
					},
					"deployPayHookRevnetWith(((string,string,string,bytes32),uint32,uint256,address,(uint40,uint16,uint112,uint40,uint32,uint16)[]),(address,address[])[],(address,(address,uint24,uint32,uint32)[]),((address,(address,uint32,address,uint256)[])[],bytes32),(address,uint256,bytes)[],uint16)": {
						"params": {
							"buybackHookConfiguration": "Data used for setting up the buyback hook to use when determining the best price for new participants.",
							"configuration": "The data needed to deploy a basic revnet.",
							"extraHookMetadata": "Extra metadata to attach to the cycle for the delegates to use.",
							"payHookSpecifications": "Any hooks that should run when the revnet is paid.",
							"suckerDeploymentConfiguration": "Information about how this revnet relates to other's across chains.",
							"terminalConfigurations": "The terminals that the network uses to accept payments through."
						},
						"returns": {
							"revnetId": "The ID of the newly created revnet."
						}
					},
					"deployRevnetWith(((string,string,string,bytes32),uint32,uint256,address,(uint40,uint16,uint112,uint40,uint32,uint16)[]),(address,address[])[],(address,(address,uint24,uint32,uint32)[]),((address,(address,uint32,address,uint256)[])[],bytes32))": {
						"params": {
							"buybackHookConfiguration": "Data used for setting up the buyback hook to use when determining the best price for new participants.",
							"configuration": "The data needed to deploy a basic revnet.",
							"suckerDeploymentConfiguration": "Information about how this revnet relates to other's across chains.",
							"terminalConfigurations": "The terminals that the network uses to accept payments through."
						},
						"returns": {
							"revnetId": "The ID of the newly created revnet."
						}
					},
					"deploySuckersFor(uint256,bytes,((address,(address,uint32,address,uint256)[])[],bytes32))": {
						"params": {
							"encodedConfiguration": "A bytes representation of the revnet's configuration.",
							"revnetId": "The ID of the revnet having new suckers deployed.",
							"suckerDeploymentConfiguration": "The specifics about the suckers being deployed."
						}
					},
					"deployTiered721RevnetWith(((string,string,string,bytes32),uint32,uint256,address,(uint40,uint16,uint112,uint40,uint32,uint16)[]),(address,address[])[],(address,(address,uint24,uint32,uint32)[]),((address,(address,uint32,address,uint256)[])[],bytes32),((string,string,address,string,address,string,((uint104,uint32,uint32,uint16,address,bytes32,uint24,bool,bool,bool,bool,bool)[],uint32,uint8,address),address,(bool,bool,bool,bool)),bool,bool,bool),(address,uint256,bytes)[],uint16)": {
						"params": {
							"buybackHookConfiguration": "Data used for setting up the buyback hook to use when determining the best price for new participants.",
							"configuration": "The data needed to deploy a basic revnet.",
							"extraHookMetadata": "Extra metadata to attach to the cycle for the delegates to use.",
							"hookConfiguration": "Data used for setting up the 721 tiers.",
							"otherPayHooksSpecifications": "Any hooks that should run when the revnet is paid alongside the 721 hook.",
							"suckerDeploymentConfiguration": "Information about how this revnet relates to other's across chains.",
							"terminalConfigurations": "The terminals that the network uses to accept payments through."
						},
						"returns": {
							"hook": "The address of the 721 hook that was deployed on the revnet.",
							"revnetId": "The ID of the newly created revnet."
						}
					},
					"hasMintPermissionFor(uint256,address)": {
						"params": {
							"addr": "The address to check if has permissions.",
							"revnetId": "The ID of the revnet to check permissions for."
						},
						"returns": {
							"_0": "flag The flag indicating if the address has permissions to mint on the revnet's behalf."
						}
					},
					"onERC721Received(address,address,uint256,bytes)": {
						"details": "Make sure only mints can be received."
					},
					"payHookSpecificationsOf(uint256)": {
						"params": {
							"revnetId": "The ID of the revnet to which the extensions apply."
						},
						"returns": {
							"_0": "payHookSpecifications The pay hooks."
						}
					},
					"replaceOperatorOf(uint256,address)": {
						"params": {
							"newOperator": "The address of the new operator.",
							"revnetId": "The ID of the revnet having its operator replaced."
						}
					},
					"supportsInterface(bytes4)": {
						"details": "See {IERC165-supportsInterface}.",
						"params": {
							"interfaceId": "The ID of the interface to check for adherence to."
						},
						"returns": {
							"_0": "A flag indicating if the provided interface ID is supported."
						}
					}
				},
				"version": 1
			},
			"userdoc": {
				"kind": "user",
				"methods": {
					"CONTROLLER()": {
						"notice": "The controller that networks are made from."
					},
					"EXIT_DELAY()": {
						"notice": "The amount of time from a sucker being deployed to when it can facilitate exits."
					},
					"HOOK_DEPLOYER()": {
						"notice": "The contract responsible for deploying the tiered 721 hook."
					},
					"PUBLISHER()": {
						"notice": "The croptop publisher that facilitates the permissioned publishing of 721 posts to a revnet."
					},
					"SUCKER_REGISTRY()": {
						"notice": "The registry that deploys and tracks each project's suckers."
					},
					"beforePayRecordedWith((address,address,(address,uint256,uint256,uint256),uint256,uint256,address,uint256,uint256,bytes))": {
						"notice": "This function gets called when the revnet receives a payment."
					},
					"beforeRedeemRecordedWith((address,address,uint256,uint256,uint256,uint256,(address,uint256,uint256,uint256),bool,uint256,bytes))": {
						"notice": "This function is never called, it needs to be included to adhere to the interface."
					},
					"buybackHookOf(uint256)": {
						"notice": "The data hook that returns the correct values for the buyback hook of each network."
					},
					"deployCroptopRevnetWith(((string,string,string,bytes32),uint32,uint256,address,(uint40,uint16,uint112,uint40,uint32,uint16)[]),(address,address[])[],(address,(address,uint24,uint32,uint32)[]),((address,(address,uint32,address,uint256)[])[],bytes32),((string,string,address,string,address,string,((uint104,uint32,uint32,uint16,address,bytes32,uint24,bool,bool,bool,bool,bool)[],uint32,uint8,address),address,(bool,bool,bool,bool)),bool,bool,bool),(address,uint256,bytes)[],uint16,(uint256,uint256,uint256,uint256,address[])[])": {
						"notice": "Deploy a revnet that supports 721 sales."
					},
					"deployPayHookRevnetWith(((string,string,string,bytes32),uint32,uint256,address,(uint40,uint16,uint112,uint40,uint32,uint16)[]),(address,address[])[],(address,(address,uint24,uint32,uint32)[]),((address,(address,uint32,address,uint256)[])[],bytes32),(address,uint256,bytes)[],uint16)": {
						"notice": "Deploy a basic revnet that also calls other specified pay hooks."
					},
					"deployRevnetWith(((string,string,string,bytes32),uint32,uint256,address,(uint40,uint16,uint112,uint40,uint32,uint16)[]),(address,address[])[],(address,(address,uint24,uint32,uint32)[]),((address,(address,uint32,address,uint256)[])[],bytes32))": {
						"notice": "Deploy a basic revnet."
					},
					"deploySuckersFor(uint256,bytes,((address,(address,uint32,address,uint256)[])[],bytes32))": {
						"notice": "Allows a revnet's operator to deploy new suckers to the revnet after it's deployed."
					},
					"deployTiered721RevnetWith(((string,string,string,bytes32),uint32,uint256,address,(uint40,uint16,uint112,uint40,uint32,uint16)[]),(address,address[])[],(address,(address,uint24,uint32,uint32)[]),((address,(address,uint32,address,uint256)[])[],bytes32),((string,string,address,string,address,string,((uint104,uint32,uint32,uint16,address,bytes32,uint24,bool,bool,bool,bool,bool)[],uint32,uint8,address),address,(bool,bool,bool,bool)),bool,bool,bool),(address,uint256,bytes)[],uint16)": {
						"notice": "Deploy a revnet that supports 721 sales."
					},
					"exitDelayOf(uint256)": {
						"notice": "The time at which exits from a revnet become allowed."
					},
					"hasMintPermissionFor(uint256,address)": {
						"notice": "Required by the IJBRulesetDataHook interfaces."
					},
					"payHookSpecificationsOf(uint256)": {
						"notice": "The pay hooks to include during payments to networks."
					},
					"replaceOperatorOf(uint256,address)": {
						"notice": "A revnet's operator can replace itself."
					},
					"supportsInterface(bytes4)": {
						"notice": "Indicates if this contract adheres to the specified interface."
					}
				},
				"version": 1
			},
			"gitCommit": "6c2de14c26489576a0722fd439b82a3ac8f9fe75",
			"sourceName": "src/REVCroptopDeployer.sol",
			"chainId": "11155420",
			"linkReferences": {},
			"deployedLinkReferences": {}
		}
	]
}