{
	"_format": "sphinx-sol-ct-artifact-1",
	"merkleRoot": "0xd4471c8ae6e1babf0e4157b34143d8db15017448ffd6e7f1d172f37fd4d7b9bd",
	"contractName": "REVCroptopDeployer",
	"address": "0x1369CCe8B184Fe5C5d80c2f6938Ad9A838537Cbd",
	"abi": [
		{
			"type": "constructor",
			"inputs": [
				{
					"name": "controller",
					"type": "address",
					"internalType": "contract IJBController"
				},
				{
					"name": "hookDeployer",
					"type": "address",
					"internalType": "contract IJB721TiersHookDeployer"
				},
				{
					"name": "publisher",
					"type": "address",
					"internalType": "contract CTPublisher"
				},
				{
					"name": "suckerRegistry",
					"type": "address",
					"internalType": "contract IBPSuckerRegistry"
				}
			],
			"stateMutability": "nonpayable"
		},
		{
			"type": "function",
			"name": "CONTROLLER",
			"inputs": [],
			"outputs": [
				{
					"name": "",
					"type": "address",
					"internalType": "contract IJBController"
				}
			],
			"stateMutability": "view"
		},
		{
			"type": "function",
			"name": "EXIT_DELAY",
			"inputs": [],
			"outputs": [
				{
					"name": "",
					"type": "uint256",
					"internalType": "uint256"
				}
			],
			"stateMutability": "view"
		},
		{
			"type": "function",
			"name": "HOOK_DEPLOYER",
			"inputs": [],
			"outputs": [
				{
					"name": "",
					"type": "address",
					"internalType": "contract IJB721TiersHookDeployer"
				}
			],
			"stateMutability": "view"
		},
		{
			"type": "function",
			"name": "PUBLISHER",
			"inputs": [],
			"outputs": [
				{
					"name": "",
					"type": "address",
					"internalType": "contract CTPublisher"
				}
			],
			"stateMutability": "view"
		},
		{
			"type": "function",
			"name": "SUCKER_REGISTRY",
			"inputs": [],
			"outputs": [
				{
					"name": "",
					"type": "address",
					"internalType": "contract IBPSuckerRegistry"
				}
			],
			"stateMutability": "view"
		},
		{
			"type": "function",
			"name": "beforePayRecordedWith",
			"inputs": [
				{
					"name": "context",
					"type": "tuple",
					"internalType": "struct JBBeforePayRecordedContext",
					"components": [
						{
							"name": "terminal",
							"type": "address",
							"internalType": "address"
						},
						{
							"name": "payer",
							"type": "address",
							"internalType": "address"
						},
						{
							"name": "amount",
							"type": "tuple",
							"internalType": "struct JBTokenAmount",
							"components": [
								{
									"name": "token",
									"type": "address",
									"internalType": "address"
								},
								{
									"name": "value",
									"type": "uint256",
									"internalType": "uint256"
								},
								{
									"name": "decimals",
									"type": "uint256",
									"internalType": "uint256"
								},
								{
									"name": "currency",
									"type": "uint256",
									"internalType": "uint256"
								}
							]
						},
						{
							"name": "projectId",
							"type": "uint256",
							"internalType": "uint256"
						},
						{
							"name": "rulesetId",
							"type": "uint256",
							"internalType": "uint256"
						},
						{
							"name": "beneficiary",
							"type": "address",
							"internalType": "address"
						},
						{
							"name": "weight",
							"type": "uint256",
							"internalType": "uint256"
						},
						{
							"name": "reservedRate",
							"type": "uint256",
							"internalType": "uint256"
						},
						{
							"name": "metadata",
							"type": "bytes",
							"internalType": "bytes"
						}
					]
				}
			],
			"outputs": [
				{
					"name": "weight",
					"type": "uint256",
					"internalType": "uint256"
				},
				{
					"name": "hookSpecifications",
					"type": "tuple[]",
					"internalType": "struct JBPayHookSpecification[]",
					"components": [
						{
							"name": "hook",
							"type": "address",
							"internalType": "contract IJBPayHook"
						},
						{
							"name": "amount",
							"type": "uint256",
							"internalType": "uint256"
						},
						{
							"name": "metadata",
							"type": "bytes",
							"internalType": "bytes"
						}
					]
				}
			],
			"stateMutability": "view"
		},
		{
			"type": "function",
			"name": "beforeRedeemRecordedWith",
			"inputs": [
				{
					"name": "context",
					"type": "tuple",
					"internalType": "struct JBBeforeRedeemRecordedContext",
					"components": [
						{
							"name": "terminal",
							"type": "address",
							"internalType": "address"
						},
						{
							"name": "holder",
							"type": "address",
							"internalType": "address"
						},
						{
							"name": "projectId",
							"type": "uint256",
							"internalType": "uint256"
						},
						{
							"name": "rulesetId",
							"type": "uint256",
							"internalType": "uint256"
						},
						{
							"name": "redeemCount",
							"type": "uint256",
							"internalType": "uint256"
						},
						{
							"name": "totalSupply",
							"type": "uint256",
							"internalType": "uint256"
						},
						{
							"name": "surplus",
							"type": "tuple",
							"internalType": "struct JBTokenAmount",
							"components": [
								{
									"name": "token",
									"type": "address",
									"internalType": "address"
								},
								{
									"name": "value",
									"type": "uint256",
									"internalType": "uint256"
								},
								{
									"name": "decimals",
									"type": "uint256",
									"internalType": "uint256"
								},
								{
									"name": "currency",
									"type": "uint256",
									"internalType": "uint256"
								}
							]
						},
						{
							"name": "useTotalSurplus",
							"type": "bool",
							"internalType": "bool"
						},
						{
							"name": "redemptionRate",
							"type": "uint256",
							"internalType": "uint256"
						},
						{
							"name": "metadata",
							"type": "bytes",
							"internalType": "bytes"
						}
					]
				}
			],
			"outputs": [
				{
					"name": "",
					"type": "uint256",
					"internalType": "uint256"
				},
				{
					"name": "",
					"type": "uint256",
					"internalType": "uint256"
				},
				{
					"name": "",
					"type": "uint256",
					"internalType": "uint256"
				},
				{
					"name": "specifications",
					"type": "tuple[]",
					"internalType": "struct JBRedeemHookSpecification[]",
					"components": [
						{
							"name": "hook",
							"type": "address",
							"internalType": "contract IJBRedeemHook"
						},
						{
							"name": "amount",
							"type": "uint256",
							"internalType": "uint256"
						},
						{
							"name": "metadata",
							"type": "bytes",
							"internalType": "bytes"
						}
					]
				}
			],
			"stateMutability": "view"
		},
		{
			"type": "function",
			"name": "buybackHookOf",
			"inputs": [
				{
					"name": "revnetId",
					"type": "uint256",
					"internalType": "uint256"
				}
			],
			"outputs": [
				{
					"name": "buybackHook",
					"type": "address",
					"internalType": "contract IJBRulesetDataHook"
				}
			],
			"stateMutability": "view"
		},
		{
			"type": "function",
			"name": "deployCroptopRevnetWith",
			"inputs": [
				{
					"name": "configuration",
					"type": "tuple",
					"internalType": "struct REVConfig",
					"components": [
						{
							"name": "description",
							"type": "tuple",
							"internalType": "struct REVDescription",
							"components": [
								{
									"name": "name",
									"type": "string",
									"internalType": "string"
								},
								{
									"name": "symbol",
									"type": "string",
									"internalType": "string"
								},
								{
									"name": "uri",
									"type": "string",
									"internalType": "string"
								},
								{
									"name": "salt",
									"type": "bytes32",
									"internalType": "bytes32"
								}
							]
						},
						{
							"name": "baseCurrency",
							"type": "uint32",
							"internalType": "uint32"
						},
						{
							"name": "premintTokenAmount",
							"type": "uint256",
							"internalType": "uint256"
						},
						{
							"name": "initialOperator",
							"type": "address",
							"internalType": "address"
						},
						{
							"name": "stageConfigurations",
							"type": "tuple[]",
							"internalType": "struct REVStageConfig[]",
							"components": [
								{
									"name": "startsAtOrAfter",
									"type": "uint40",
									"internalType": "uint40"
								},
								{
									"name": "operatorSplitRate",
									"type": "uint16",
									"internalType": "uint16"
								},
								{
									"name": "initialIssuanceRate",
									"type": "uint112",
									"internalType": "uint112"
								},
								{
									"name": "priceCeilingIncreaseFrequency",
									"type": "uint40",
									"internalType": "uint40"
								},
								{
									"name": "priceCeilingIncreasePercentage",
									"type": "uint32",
									"internalType": "uint32"
								},
								{
									"name": "priceFloorTaxIntensity",
									"type": "uint16",
									"internalType": "uint16"
								}
							]
						}
					]
				},
				{
					"name": "terminalConfigurations",
					"type": "tuple[]",
					"internalType": "struct JBTerminalConfig[]",
					"components": [
						{
							"name": "terminal",
							"type": "address",
							"internalType": "contract IJBTerminal"
						},
						{
							"name": "tokensToAccept",
							"type": "address[]",
							"internalType": "address[]"
						}
					]
				},
				{
					"name": "buybackHookConfiguration",
					"type": "tuple",
					"internalType": "struct REVBuybackHookConfig",
					"components": [
						{
							"name": "hook",
							"type": "address",
							"internalType": "contract IJBBuybackHook"
						},
						{
							"name": "poolConfigurations",
							"type": "tuple[]",
							"internalType": "struct REVBuybackPoolConfig[]",
							"components": [
								{
									"name": "token",
									"type": "address",
									"internalType": "address"
								},
								{
									"name": "fee",
									"type": "uint24",
									"internalType": "uint24"
								},
								{
									"name": "twapWindow",
									"type": "uint32",
									"internalType": "uint32"
								},
								{
									"name": "twapSlippageTolerance",
									"type": "uint32",
									"internalType": "uint32"
								}
							]
						}
					]
				},
				{
					"name": "suckerDeploymentConfiguration",
					"type": "tuple",
					"internalType": "struct REVSuckerDeploymentConfig",
					"components": [
						{
							"name": "deployerConfigurations",
							"type": "tuple[]",
							"internalType": "struct BPSuckerDeployerConfig[]",
							"components": [
								{
									"name": "deployer",
									"type": "address",
									"internalType": "contract IBPSuckerDeployer"
								},
								{
									"name": "mappings",
									"type": "tuple[]",
									"internalType": "struct BPTokenMapping[]",
									"components": [
										{
											"name": "localToken",
											"type": "address",
											"internalType": "address"
										},
										{
											"name": "minGas",
											"type": "uint32",
											"internalType": "uint32"
										},
										{
											"name": "remoteToken",
											"type": "address",
											"internalType": "address"
										},
										{
											"name": "minBridgeAmount",
											"type": "uint256",
											"internalType": "uint256"
										}
									]
								}
							]
						},
						{
							"name": "salt",
							"type": "bytes32",
							"internalType": "bytes32"
						}
					]
				},
				{
					"name": "hookConfiguration",
					"type": "tuple",
					"internalType": "struct REVDeploy721TiersHookConfig",
					"components": [
						{
							"name": "baseline721HookConfiguration",
							"type": "tuple",
							"internalType": "struct JBDeploy721TiersHookConfig",
							"components": [
								{
									"name": "name",
									"type": "string",
									"internalType": "string"
								},
								{
									"name": "symbol",
									"type": "string",
									"internalType": "string"
								},
								{
									"name": "rulesets",
									"type": "address",
									"internalType": "contract IJBRulesets"
								},
								{
									"name": "baseUri",
									"type": "string",
									"internalType": "string"
								},
								{
									"name": "tokenUriResolver",
									"type": "address",
									"internalType": "contract IJB721TokenUriResolver"
								},
								{
									"name": "contractUri",
									"type": "string",
									"internalType": "string"
								},
								{
									"name": "tiersConfig",
									"type": "tuple",
									"internalType": "struct JB721InitTiersConfig",
									"components": [
										{
											"name": "tiers",
											"type": "tuple[]",
											"internalType": "struct JB721TierConfig[]",
											"components": [
												{
													"name": "price",
													"type": "uint104",
													"internalType": "uint104"
												},
												{
													"name": "initialSupply",
													"type": "uint32",
													"internalType": "uint32"
												},
												{
													"name": "votingUnits",
													"type": "uint32",
													"internalType": "uint32"
												},
												{
													"name": "reserveFrequency",
													"type": "uint16",
													"internalType": "uint16"
												},
												{
													"name": "reserveBeneficiary",
													"type": "address",
													"internalType": "address"
												},
												{
													"name": "encodedIPFSUri",
													"type": "bytes32",
													"internalType": "bytes32"
												},
												{
													"name": "category",
													"type": "uint24",
													"internalType": "uint24"
												},
												{
													"name": "allowOwnerMint",
													"type": "bool",
													"internalType": "bool"
												},
												{
													"name": "useReserveBeneficiaryAsDefault",
													"type": "bool",
													"internalType": "bool"
												},
												{
													"name": "transfersPausable",
													"type": "bool",
													"internalType": "bool"
												},
												{
													"name": "useVotingUnits",
													"type": "bool",
													"internalType": "bool"
												},
												{
													"name": "cannotBeRemoved",
													"type": "bool",
													"internalType": "bool"
												}
											]
										},
										{
											"name": "currency",
											"type": "uint32",
											"internalType": "uint32"
										},
										{
											"name": "decimals",
											"type": "uint8",
											"internalType": "uint8"
										},
										{
											"name": "prices",
											"type": "address",
											"internalType": "contract IJBPrices"
										}
									]
								},
								{
									"name": "reserveBeneficiary",
									"type": "address",
									"internalType": "address"
								},
								{
									"name": "flags",
									"type": "tuple",
									"internalType": "struct JB721TiersHookFlags",
									"components": [
										{
											"name": "noNewTiersWithReserves",
											"type": "bool",
											"internalType": "bool"
										},
										{
											"name": "noNewTiersWithVotes",
											"type": "bool",
											"internalType": "bool"
										},
										{
											"name": "noNewTiersWithOwnerMinting",
											"type": "bool",
											"internalType": "bool"
										},
										{
											"name": "preventOverspending",
											"type": "bool",
											"internalType": "bool"
										}
									]
								}
							]
						},
						{
							"name": "operatorCanAdjustTiers",
							"type": "bool",
							"internalType": "bool"
						},
						{
							"name": "operatorCanUpdateMetadata",
							"type": "bool",
							"internalType": "bool"
						},
						{
							"name": "operatorCanMint",
							"type": "bool",
							"internalType": "bool"
						}
					]
				},
				{
					"name": "otherPayHooksSpecifications",
					"type": "tuple[]",
					"internalType": "struct JBPayHookSpecification[]",
					"components": [
						{
							"name": "hook",
							"type": "address",
							"internalType": "contract IJBPayHook"
						},
						{
							"name": "amount",
							"type": "uint256",
							"internalType": "uint256"
						},
						{
							"name": "metadata",
							"type": "bytes",
							"internalType": "bytes"
						}
					]
				},
				{
					"name": "extraHookMetadata",
					"type": "uint16",
					"internalType": "uint16"
				},
				{
					"name": "allowedPosts",
					"type": "tuple[]",
					"internalType": "struct REVCroptopAllowedPost[]",
					"components": [
						{
							"name": "category",
							"type": "uint256",
							"internalType": "uint256"
						},
						{
							"name": "minimumPrice",
							"type": "uint256",
							"internalType": "uint256"
						},
						{
							"name": "minimumTotalSupply",
							"type": "uint256",
							"internalType": "uint256"
						},
						{
							"name": "maximumTotalSupply",
							"type": "uint256",
							"internalType": "uint256"
						},
						{
							"name": "allowedAddresses",
							"type": "address[]",
							"internalType": "address[]"
						}
					]
				}
			],
			"outputs": [
				{
					"name": "revnetId",
					"type": "uint256",
					"internalType": "uint256"
				},
				{
					"name": "hook",
					"type": "address",
					"internalType": "contract IJB721TiersHook"
				}
			],
			"stateMutability": "nonpayable"
		},
		{
			"type": "function",
			"name": "deployPayHookRevnetWith",
			"inputs": [
				{
					"name": "configuration",
					"type": "tuple",
					"internalType": "struct REVConfig",
					"components": [
						{
							"name": "description",
							"type": "tuple",
							"internalType": "struct REVDescription",
							"components": [
								{
									"name": "name",
									"type": "string",
									"internalType": "string"
								},
								{
									"name": "symbol",
									"type": "string",
									"internalType": "string"
								},
								{
									"name": "uri",
									"type": "string",
									"internalType": "string"
								},
								{
									"name": "salt",
									"type": "bytes32",
									"internalType": "bytes32"
								}
							]
						},
						{
							"name": "baseCurrency",
							"type": "uint32",
							"internalType": "uint32"
						},
						{
							"name": "premintTokenAmount",
							"type": "uint256",
							"internalType": "uint256"
						},
						{
							"name": "initialOperator",
							"type": "address",
							"internalType": "address"
						},
						{
							"name": "stageConfigurations",
							"type": "tuple[]",
							"internalType": "struct REVStageConfig[]",
							"components": [
								{
									"name": "startsAtOrAfter",
									"type": "uint40",
									"internalType": "uint40"
								},
								{
									"name": "operatorSplitRate",
									"type": "uint16",
									"internalType": "uint16"
								},
								{
									"name": "initialIssuanceRate",
									"type": "uint112",
									"internalType": "uint112"
								},
								{
									"name": "priceCeilingIncreaseFrequency",
									"type": "uint40",
									"internalType": "uint40"
								},
								{
									"name": "priceCeilingIncreasePercentage",
									"type": "uint32",
									"internalType": "uint32"
								},
								{
									"name": "priceFloorTaxIntensity",
									"type": "uint16",
									"internalType": "uint16"
								}
							]
						}
					]
				},
				{
					"name": "terminalConfigurations",
					"type": "tuple[]",
					"internalType": "struct JBTerminalConfig[]",
					"components": [
						{
							"name": "terminal",
							"type": "address",
							"internalType": "contract IJBTerminal"
						},
						{
							"name": "tokensToAccept",
							"type": "address[]",
							"internalType": "address[]"
						}
					]
				},
				{
					"name": "buybackHookConfiguration",
					"type": "tuple",
					"internalType": "struct REVBuybackHookConfig",
					"components": [
						{
							"name": "hook",
							"type": "address",
							"internalType": "contract IJBBuybackHook"
						},
						{
							"name": "poolConfigurations",
							"type": "tuple[]",
							"internalType": "struct REVBuybackPoolConfig[]",
							"components": [
								{
									"name": "token",
									"type": "address",
									"internalType": "address"
								},
								{
									"name": "fee",
									"type": "uint24",
									"internalType": "uint24"
								},
								{
									"name": "twapWindow",
									"type": "uint32",
									"internalType": "uint32"
								},
								{
									"name": "twapSlippageTolerance",
									"type": "uint32",
									"internalType": "uint32"
								}
							]
						}
					]
				},
				{
					"name": "suckerDeploymentConfiguration",
					"type": "tuple",
					"internalType": "struct REVSuckerDeploymentConfig",
					"components": [
						{
							"name": "deployerConfigurations",
							"type": "tuple[]",
							"internalType": "struct BPSuckerDeployerConfig[]",
							"components": [
								{
									"name": "deployer",
									"type": "address",
									"internalType": "contract IBPSuckerDeployer"
								},
								{
									"name": "mappings",
									"type": "tuple[]",
									"internalType": "struct BPTokenMapping[]",
									"components": [
										{
											"name": "localToken",
											"type": "address",
											"internalType": "address"
										},
										{
											"name": "minGas",
											"type": "uint32",
											"internalType": "uint32"
										},
										{
											"name": "remoteToken",
											"type": "address",
											"internalType": "address"
										},
										{
											"name": "minBridgeAmount",
											"type": "uint256",
											"internalType": "uint256"
										}
									]
								}
							]
						},
						{
							"name": "salt",
							"type": "bytes32",
							"internalType": "bytes32"
						}
					]
				},
				{
					"name": "payHookSpecifications",
					"type": "tuple[]",
					"internalType": "struct JBPayHookSpecification[]",
					"components": [
						{
							"name": "hook",
							"type": "address",
							"internalType": "contract IJBPayHook"
						},
						{
							"name": "amount",
							"type": "uint256",
							"internalType": "uint256"
						},
						{
							"name": "metadata",
							"type": "bytes",
							"internalType": "bytes"
						}
					]
				},
				{
					"name": "extraHookMetadata",
					"type": "uint16",
					"internalType": "uint16"
				}
			],
			"outputs": [
				{
					"name": "revnetId",
					"type": "uint256",
					"internalType": "uint256"
				}
			],
			"stateMutability": "nonpayable"
		},
		{
			"type": "function",
			"name": "deployRevnetWith",
			"inputs": [
				{
					"name": "configuration",
					"type": "tuple",
					"internalType": "struct REVConfig",
					"components": [
						{
							"name": "description",
							"type": "tuple",
							"internalType": "struct REVDescription",
							"components": [
								{
									"name": "name",
									"type": "string",
									"internalType": "string"
								},
								{
									"name": "symbol",
									"type": "string",
									"internalType": "string"
								},
								{
									"name": "uri",
									"type": "string",
									"internalType": "string"
								},
								{
									"name": "salt",
									"type": "bytes32",
									"internalType": "bytes32"
								}
							]
						},
						{
							"name": "baseCurrency",
							"type": "uint32",
							"internalType": "uint32"
						},
						{
							"name": "premintTokenAmount",
							"type": "uint256",
							"internalType": "uint256"
						},
						{
							"name": "initialOperator",
							"type": "address",
							"internalType": "address"
						},
						{
							"name": "stageConfigurations",
							"type": "tuple[]",
							"internalType": "struct REVStageConfig[]",
							"components": [
								{
									"name": "startsAtOrAfter",
									"type": "uint40",
									"internalType": "uint40"
								},
								{
									"name": "operatorSplitRate",
									"type": "uint16",
									"internalType": "uint16"
								},
								{
									"name": "initialIssuanceRate",
									"type": "uint112",
									"internalType": "uint112"
								},
								{
									"name": "priceCeilingIncreaseFrequency",
									"type": "uint40",
									"internalType": "uint40"
								},
								{
									"name": "priceCeilingIncreasePercentage",
									"type": "uint32",
									"internalType": "uint32"
								},
								{
									"name": "priceFloorTaxIntensity",
									"type": "uint16",
									"internalType": "uint16"
								}
							]
						}
					]
				},
				{
					"name": "terminalConfigurations",
					"type": "tuple[]",
					"internalType": "struct JBTerminalConfig[]",
					"components": [
						{
							"name": "terminal",
							"type": "address",
							"internalType": "contract IJBTerminal"
						},
						{
							"name": "tokensToAccept",
							"type": "address[]",
							"internalType": "address[]"
						}
					]
				},
				{
					"name": "buybackHookConfiguration",
					"type": "tuple",
					"internalType": "struct REVBuybackHookConfig",
					"components": [
						{
							"name": "hook",
							"type": "address",
							"internalType": "contract IJBBuybackHook"
						},
						{
							"name": "poolConfigurations",
							"type": "tuple[]",
							"internalType": "struct REVBuybackPoolConfig[]",
							"components": [
								{
									"name": "token",
									"type": "address",
									"internalType": "address"
								},
								{
									"name": "fee",
									"type": "uint24",
									"internalType": "uint24"
								},
								{
									"name": "twapWindow",
									"type": "uint32",
									"internalType": "uint32"
								},
								{
									"name": "twapSlippageTolerance",
									"type": "uint32",
									"internalType": "uint32"
								}
							]
						}
					]
				},
				{
					"name": "suckerDeploymentConfiguration",
					"type": "tuple",
					"internalType": "struct REVSuckerDeploymentConfig",
					"components": [
						{
							"name": "deployerConfigurations",
							"type": "tuple[]",
							"internalType": "struct BPSuckerDeployerConfig[]",
							"components": [
								{
									"name": "deployer",
									"type": "address",
									"internalType": "contract IBPSuckerDeployer"
								},
								{
									"name": "mappings",
									"type": "tuple[]",
									"internalType": "struct BPTokenMapping[]",
									"components": [
										{
											"name": "localToken",
											"type": "address",
											"internalType": "address"
										},
										{
											"name": "minGas",
											"type": "uint32",
											"internalType": "uint32"
										},
										{
											"name": "remoteToken",
											"type": "address",
											"internalType": "address"
										},
										{
											"name": "minBridgeAmount",
											"type": "uint256",
											"internalType": "uint256"
										}
									]
								}
							]
						},
						{
							"name": "salt",
							"type": "bytes32",
							"internalType": "bytes32"
						}
					]
				}
			],
			"outputs": [
				{
					"name": "revnetId",
					"type": "uint256",
					"internalType": "uint256"
				}
			],
			"stateMutability": "nonpayable"
		},
		{
			"type": "function",
			"name": "deploySuckersFor",
			"inputs": [
				{
					"name": "revnetId",
					"type": "uint256",
					"internalType": "uint256"
				},
				{
					"name": "encodedConfiguration",
					"type": "bytes",
					"internalType": "bytes"
				},
				{
					"name": "suckerDeploymentConfiguration",
					"type": "tuple",
					"internalType": "struct REVSuckerDeploymentConfig",
					"components": [
						{
							"name": "deployerConfigurations",
							"type": "tuple[]",
							"internalType": "struct BPSuckerDeployerConfig[]",
							"components": [
								{
									"name": "deployer",
									"type": "address",
									"internalType": "contract IBPSuckerDeployer"
								},
								{
									"name": "mappings",
									"type": "tuple[]",
									"internalType": "struct BPTokenMapping[]",
									"components": [
										{
											"name": "localToken",
											"type": "address",
											"internalType": "address"
										},
										{
											"name": "minGas",
											"type": "uint32",
											"internalType": "uint32"
										},
										{
											"name": "remoteToken",
											"type": "address",
											"internalType": "address"
										},
										{
											"name": "minBridgeAmount",
											"type": "uint256",
											"internalType": "uint256"
										}
									]
								}
							]
						},
						{
							"name": "salt",
							"type": "bytes32",
							"internalType": "bytes32"
						}
					]
				}
			],
			"outputs": [],
			"stateMutability": "nonpayable"
		},
		{
			"type": "function",
			"name": "deployTiered721RevnetWith",
			"inputs": [
				{
					"name": "configuration",
					"type": "tuple",
					"internalType": "struct REVConfig",
					"components": [
						{
							"name": "description",
							"type": "tuple",
							"internalType": "struct REVDescription",
							"components": [
								{
									"name": "name",
									"type": "string",
									"internalType": "string"
								},
								{
									"name": "symbol",
									"type": "string",
									"internalType": "string"
								},
								{
									"name": "uri",
									"type": "string",
									"internalType": "string"
								},
								{
									"name": "salt",
									"type": "bytes32",
									"internalType": "bytes32"
								}
							]
						},
						{
							"name": "baseCurrency",
							"type": "uint32",
							"internalType": "uint32"
						},
						{
							"name": "premintTokenAmount",
							"type": "uint256",
							"internalType": "uint256"
						},
						{
							"name": "initialOperator",
							"type": "address",
							"internalType": "address"
						},
						{
							"name": "stageConfigurations",
							"type": "tuple[]",
							"internalType": "struct REVStageConfig[]",
							"components": [
								{
									"name": "startsAtOrAfter",
									"type": "uint40",
									"internalType": "uint40"
								},
								{
									"name": "operatorSplitRate",
									"type": "uint16",
									"internalType": "uint16"
								},
								{
									"name": "initialIssuanceRate",
									"type": "uint112",
									"internalType": "uint112"
								},
								{
									"name": "priceCeilingIncreaseFrequency",
									"type": "uint40",
									"internalType": "uint40"
								},
								{
									"name": "priceCeilingIncreasePercentage",
									"type": "uint32",
									"internalType": "uint32"
								},
								{
									"name": "priceFloorTaxIntensity",
									"type": "uint16",
									"internalType": "uint16"
								}
							]
						}
					]
				},
				{
					"name": "terminalConfigurations",
					"type": "tuple[]",
					"internalType": "struct JBTerminalConfig[]",
					"components": [
						{
							"name": "terminal",
							"type": "address",
							"internalType": "contract IJBTerminal"
						},
						{
							"name": "tokensToAccept",
							"type": "address[]",
							"internalType": "address[]"
						}
					]
				},
				{
					"name": "buybackHookConfiguration",
					"type": "tuple",
					"internalType": "struct REVBuybackHookConfig",
					"components": [
						{
							"name": "hook",
							"type": "address",
							"internalType": "contract IJBBuybackHook"
						},
						{
							"name": "poolConfigurations",
							"type": "tuple[]",
							"internalType": "struct REVBuybackPoolConfig[]",
							"components": [
								{
									"name": "token",
									"type": "address",
									"internalType": "address"
								},
								{
									"name": "fee",
									"type": "uint24",
									"internalType": "uint24"
								},
								{
									"name": "twapWindow",
									"type": "uint32",
									"internalType": "uint32"
								},
								{
									"name": "twapSlippageTolerance",
									"type": "uint32",
									"internalType": "uint32"
								}
							]
						}
					]
				},
				{
					"name": "suckerDeploymentConfiguration",
					"type": "tuple",
					"internalType": "struct REVSuckerDeploymentConfig",
					"components": [
						{
							"name": "deployerConfigurations",
							"type": "tuple[]",
							"internalType": "struct BPSuckerDeployerConfig[]",
							"components": [
								{
									"name": "deployer",
									"type": "address",
									"internalType": "contract IBPSuckerDeployer"
								},
								{
									"name": "mappings",
									"type": "tuple[]",
									"internalType": "struct BPTokenMapping[]",
									"components": [
										{
											"name": "localToken",
											"type": "address",
											"internalType": "address"
										},
										{
											"name": "minGas",
											"type": "uint32",
											"internalType": "uint32"
										},
										{
											"name": "remoteToken",
											"type": "address",
											"internalType": "address"
										},
										{
											"name": "minBridgeAmount",
											"type": "uint256",
											"internalType": "uint256"
										}
									]
								}
							]
						},
						{
							"name": "salt",
							"type": "bytes32",
							"internalType": "bytes32"
						}
					]
				},
				{
					"name": "hookConfiguration",
					"type": "tuple",
					"internalType": "struct REVDeploy721TiersHookConfig",
					"components": [
						{
							"name": "baseline721HookConfiguration",
							"type": "tuple",
							"internalType": "struct JBDeploy721TiersHookConfig",
							"components": [
								{
									"name": "name",
									"type": "string",
									"internalType": "string"
								},
								{
									"name": "symbol",
									"type": "string",
									"internalType": "string"
								},
								{
									"name": "rulesets",
									"type": "address",
									"internalType": "contract IJBRulesets"
								},
								{
									"name": "baseUri",
									"type": "string",
									"internalType": "string"
								},
								{
									"name": "tokenUriResolver",
									"type": "address",
									"internalType": "contract IJB721TokenUriResolver"
								},
								{
									"name": "contractUri",
									"type": "string",
									"internalType": "string"
								},
								{
									"name": "tiersConfig",
									"type": "tuple",
									"internalType": "struct JB721InitTiersConfig",
									"components": [
										{
											"name": "tiers",
											"type": "tuple[]",
											"internalType": "struct JB721TierConfig[]",
											"components": [
												{
													"name": "price",
													"type": "uint104",
													"internalType": "uint104"
												},
												{
													"name": "initialSupply",
													"type": "uint32",
													"internalType": "uint32"
												},
												{
													"name": "votingUnits",
													"type": "uint32",
													"internalType": "uint32"
												},
												{
													"name": "reserveFrequency",
													"type": "uint16",
													"internalType": "uint16"
												},
												{
													"name": "reserveBeneficiary",
													"type": "address",
													"internalType": "address"
												},
												{
													"name": "encodedIPFSUri",
													"type": "bytes32",
													"internalType": "bytes32"
												},
												{
													"name": "category",
													"type": "uint24",
													"internalType": "uint24"
												},
												{
													"name": "allowOwnerMint",
													"type": "bool",
													"internalType": "bool"
												},
												{
													"name": "useReserveBeneficiaryAsDefault",
													"type": "bool",
													"internalType": "bool"
												},
												{
													"name": "transfersPausable",
													"type": "bool",
													"internalType": "bool"
												},
												{
													"name": "useVotingUnits",
													"type": "bool",
													"internalType": "bool"
												},
												{
													"name": "cannotBeRemoved",
													"type": "bool",
													"internalType": "bool"
												}
											]
										},
										{
											"name": "currency",
											"type": "uint32",
											"internalType": "uint32"
										},
										{
											"name": "decimals",
											"type": "uint8",
											"internalType": "uint8"
										},
										{
											"name": "prices",
											"type": "address",
											"internalType": "contract IJBPrices"
										}
									]
								},
								{
									"name": "reserveBeneficiary",
									"type": "address",
									"internalType": "address"
								},
								{
									"name": "flags",
									"type": "tuple",
									"internalType": "struct JB721TiersHookFlags",
									"components": [
										{
											"name": "noNewTiersWithReserves",
											"type": "bool",
											"internalType": "bool"
										},
										{
											"name": "noNewTiersWithVotes",
											"type": "bool",
											"internalType": "bool"
										},
										{
											"name": "noNewTiersWithOwnerMinting",
											"type": "bool",
											"internalType": "bool"
										},
										{
											"name": "preventOverspending",
											"type": "bool",
											"internalType": "bool"
										}
									]
								}
							]
						},
						{
							"name": "operatorCanAdjustTiers",
							"type": "bool",
							"internalType": "bool"
						},
						{
							"name": "operatorCanUpdateMetadata",
							"type": "bool",
							"internalType": "bool"
						},
						{
							"name": "operatorCanMint",
							"type": "bool",
							"internalType": "bool"
						}
					]
				},
				{
					"name": "otherPayHooksSpecifications",
					"type": "tuple[]",
					"internalType": "struct JBPayHookSpecification[]",
					"components": [
						{
							"name": "hook",
							"type": "address",
							"internalType": "contract IJBPayHook"
						},
						{
							"name": "amount",
							"type": "uint256",
							"internalType": "uint256"
						},
						{
							"name": "metadata",
							"type": "bytes",
							"internalType": "bytes"
						}
					]
				},
				{
					"name": "extraHookMetadata",
					"type": "uint16",
					"internalType": "uint16"
				}
			],
			"outputs": [
				{
					"name": "revnetId",
					"type": "uint256",
					"internalType": "uint256"
				},
				{
					"name": "hook",
					"type": "address",
					"internalType": "contract IJB721TiersHook"
				}
			],
			"stateMutability": "nonpayable"
		},
		{
			"type": "function",
			"name": "exitDelayOf",
			"inputs": [
				{
					"name": "revnetId",
					"type": "uint256",
					"internalType": "uint256"
				}
			],
			"outputs": [
				{
					"name": "exitDelay",
					"type": "uint256",
					"internalType": "uint256"
				}
			],
			"stateMutability": "view"
		},
		{
			"type": "function",
			"name": "hasMintPermissionFor",
			"inputs": [
				{
					"name": "revnetId",
					"type": "uint256",
					"internalType": "uint256"
				},
				{
					"name": "addr",
					"type": "address",
					"internalType": "address"
				}
			],
			"outputs": [
				{
					"name": "",
					"type": "bool",
					"internalType": "bool"
				}
			],
			"stateMutability": "view"
		},
		{
			"type": "function",
			"name": "onERC721Received",
			"inputs": [
				{
					"name": "operator",
					"type": "address",
					"internalType": "address"
				},
				{
					"name": "from",
					"type": "address",
					"internalType": "address"
				},
				{
					"name": "tokenId",
					"type": "uint256",
					"internalType": "uint256"
				},
				{
					"name": "data",
					"type": "bytes",
					"internalType": "bytes"
				}
			],
			"outputs": [
				{
					"name": "",
					"type": "bytes4",
					"internalType": "bytes4"
				}
			],
			"stateMutability": "view"
		},
		{
			"type": "function",
			"name": "payHookSpecificationsOf",
			"inputs": [
				{
					"name": "revnetId",
					"type": "uint256",
					"internalType": "uint256"
				}
			],
			"outputs": [
				{
					"name": "",
					"type": "tuple[]",
					"internalType": "struct JBPayHookSpecification[]",
					"components": [
						{
							"name": "hook",
							"type": "address",
							"internalType": "contract IJBPayHook"
						},
						{
							"name": "amount",
							"type": "uint256",
							"internalType": "uint256"
						},
						{
							"name": "metadata",
							"type": "bytes",
							"internalType": "bytes"
						}
					]
				}
			],
			"stateMutability": "view"
		},
		{
			"type": "function",
			"name": "replaceOperatorOf",
			"inputs": [
				{
					"name": "revnetId",
					"type": "uint256",
					"internalType": "uint256"
				},
				{
					"name": "newOperator",
					"type": "address",
					"internalType": "address"
				}
			],
			"outputs": [],
			"stateMutability": "nonpayable"
		},
		{
			"type": "function",
			"name": "supportsInterface",
			"inputs": [
				{
					"name": "interfaceId",
					"type": "bytes4",
					"internalType": "bytes4"
				}
			],
			"outputs": [
				{
					"name": "",
					"type": "bool",
					"internalType": "bool"
				}
			],
			"stateMutability": "view"
		},
		{
			"type": "error",
			"name": "REVBasicDeployer_ExitDelayInEffect",
			"inputs": []
		},
		{
			"type": "error",
			"name": "REVBasicDeployer_Unauthorized",
			"inputs": []
		}
	],
	"solcInputHash": "755eaa4b05c760d07dfe902eb8cdf8f4",
	"args": [
		"0xdAF6226Aafe296bbCCBEC815133386Cd910Ed582",
		"0xcDFA45A183fa6841eD1Ef8550FCa0a8aAb42eC34",
		"0x06350909758b8c7B07f2782dB1b9B821d807D06C",
		"0x4Be9d88bE6e7A38644EA746cF78cB1BF30051C76"
	],
	"bytecode": "0x60e06040523480156200001157600080fd5b5060405162005bd538038062005bd58339810160408190526200003491620000f9565b6001600160a01b03938416608052831660a052600280546001808201835560127f405787fa12a823e0f2b7631cc41b3ba8828b3321ca811111fa75cd3aa3bb5ace9283015582548082019093556019929091019190915591831660c052600480546001600160a01b031916919093161790915560058054918201815560005260167f036b6384b5eca791c62761152d0c79bb0604c104a5fb6f4eb0703f3154bb3db09091015562000161565b6001600160a01b0381168114620000f657600080fd5b50565b600080600080608085870312156200011057600080fd5b84516200011d81620000e0565b60208601519094506200013081620000e0565b60408601519093506200014381620000e0565b60608601519092506200015681620000e0565b939692955090935050565b60805160a05160c0516159b86200021d600039600081816103490152611d0c01526000818161037001528181610c0801528181610ff3015281816116c401528181611a5a015281816124bb015261255a0152600081816103dd0152818161049c015281816107cc0152818161112d015281816112e0015281816114bc0152818161181801528181611b0201528181611ee001528181612022015281816120c701528181612163015281816122ec015261240501526159b86000f3fe608060405234801561001057600080fd5b50600436106101515760003560e01c80637485ecf3116100cd578063b5d2553311610081578063d3cee0ee11610066578063d3cee0ee146103a5578063dbfbe5da146103b8578063ee0fc121146103d857600080fd5b8063b5d255331461036b578063bb1994021461039257600080fd5b80639d82ba25116100b25780639d82ba2514610317578063aaf320d714610321578063abf8c5c81461034457600080fd5b80637485ecf3146102ef57806389b396ab1461030257600080fd5b806343681e15116101245780635c0a7cee116101095780635c0a7cee14610261578063677ce088146102815780637249a7731461029457600080fd5b806343681e15146102205780634c4ffc711461024057600080fd5b806301ffc9a714610156578063150b7a021461017e578063158b48b5146101c25780633fe422bd146101ff575b600080fd5b610169610164366004612f56565b6103ff565b60405190151581526020015b60405180910390f35b61019161018c366004612fd4565b610498565b6040517fffffffff000000000000000000000000000000000000000000000000000000009091168152602001610175565b6101d56101d0366004613f19565b6105ac565b6040805192835273ffffffffffffffffffffffffffffffffffffffff909116602083015201610175565b61021261020d366004614045565b610977565b604051908152602001610175565b61021261022e366004614126565b60016020526000908152604090205481565b61025361024e36600461413f565b6109a1565b604051610175929190614288565b61027461026f366004614126565b610e59565b60405161017591906142a9565b61016961028f3660046142bc565b610f8a565b6102ca6102a2366004614126565b60006020819052908152604090205473ffffffffffffffffffffffffffffffffffffffff1681565b60405173ffffffffffffffffffffffffffffffffffffffff9091168152602001610175565b6102126102fd3660046142ec565b611111565b6103156103103660046142bc565b61112b565b005b6102126276a70081565b61033461032f366004614399565b6116a7565b60405161017594939291906143d5565b6102ca7f000000000000000000000000000000000000000000000000000000000000000081565b6102ca7f000000000000000000000000000000000000000000000000000000000000000081565b6103156103a03660046144a0565b611816565b6101d56103b336600461450d565b611afd565b6004546102ca9073ffffffffffffffffffffffffffffffffffffffff1681565b6102ca7f000000000000000000000000000000000000000000000000000000000000000081565b60007fffffffff0000000000000000000000000000000000000000000000000000000082167f81c03c2e00000000000000000000000000000000000000000000000000000000148061049257507f01ffc9a7000000000000000000000000000000000000000000000000000000007fffffffff000000000000000000000000000000000000000000000000000000008316145b92915050565b60007f000000000000000000000000000000000000000000000000000000000000000073ffffffffffffffffffffffffffffffffffffffff1663293c49996040518163ffffffff1660e01b8152600401602060405180830381865afa158015610505573d6000803e3d6000fd5b505050506040513d601f19601f820116820180604052508101906105299190614614565b73ffffffffffffffffffffffffffffffffffffffff163373ffffffffffffffffffffffffffffffffffffffff161461056057600080fd5b73ffffffffffffffffffffffffffffffffffffffff85161561058157600080fd5b507f150b7a020000000000000000000000000000000000000000000000000000000095945050505050565b6000806105be8a8a8a8a8a8a8a611afd565b8451919350915060008167ffffffffffffffff8111156105e0576105e0613073565b60405190808252806020026020018201604052801561066057816020015b61064d6040518060c00160405280600073ffffffffffffffffffffffffffffffffffffffff16815260200160008152602001600081526020016000815260200160008152602001606081525090565b8152602001906001900390816105fe5790505b5090506106956040518060a0016040528060008152602001600081526020016000815260200160008152602001606081525090565b60005b83811015610738578681815181106106b2576106b2614631565b602002602001015191506040518060c001604052808673ffffffffffffffffffffffffffffffffffffffff16815260200183600001518152602001836020015181526020018360400151815260200183606001518152602001836080015181525083828151811061072557610725614631565b6020908102919091010152600101610698565b508551156107ca57600480546040517fab54877a00000000000000000000000000000000000000000000000000000000815273ffffffffffffffffffffffffffffffffffffffff9091169163ab54877a916107979189918791016146b2565b600060405180830381600087803b1580156107b157600080fd5b505af11580156107c5573d6000803e3d6000fd5b505050505b7f000000000000000000000000000000000000000000000000000000000000000073ffffffffffffffffffffffffffffffffffffffff1663f434c9146040518163ffffffff1660e01b8152600401602060405180830381865afa158015610835573d6000803e3d6000fd5b505050506040513d601f19601f820116820180604052508101906108599190614614565b73ffffffffffffffffffffffffffffffffffffffff166305d2912e306040518060600160405280600460009054906101000a900473ffffffffffffffffffffffffffffffffffffffff1673ffffffffffffffffffffffffffffffffffffffff168152602001898152602001600580548060200260200160405190810160405280929190818152602001828054801561091057602002820191906000526020600020905b8154815260200190600101908083116108fc575b50505050508152506040518363ffffffff1660e01b815260040161093592919061478f565b600060405180830381600087803b15801561094f57600080fd5b505af1158015610963573d6000803e3d6000fd5b505050505050509850989650505050505050565b600061098b878787308661ffff1689611ec7565b90506109978184612692565b9695505050505050565b60c0810135600090815260208190526040812054606090819073ffffffffffffffffffffffffffffffffffffffff168015610a91576040517f4c4ffc7100000000000000000000000000000000000000000000000000000000815273ffffffffffffffffffffffffffffffffffffffff821690634c4ffc7190610a28908890600401614912565b600060405180830381865afa158015610a45573d6000803e3d6000fd5b505050506040513d6000823e601f3d9081017fffffffffffffffffffffffffffffffffffffffffffffffffffffffffffffffe0168201604052610a8b9190810190614a01565b90945091505b815160c086013560009081526003602090815260408083208054825181850281018501909352808352941515949192909190849084015b82821015610bb95760008481526020908190206040805160608101825260038602909201805473ffffffffffffffffffffffffffffffffffffffff16835260018101549383019390935260028301805492939291840191610b2890614b67565b80601f0160208091040260200160405190810160405280929190818152602001828054610b5490614b67565b8015610ba15780601f10610b7657610100808354040283529160200191610ba1565b820191906000526020600020905b815481529060010190602001808311610b8457829003601f168201915b50505050508152505081526020019060010190610ac8565b50506040517f3d12cb8700000000000000000000000000000000000000000000000000000000815260c08b0135600482015292935060009273ffffffffffffffffffffffffffffffffffffffff7f0000000000000000000000000000000000000000000000000000000000000000169250633d12cb879150602401600060405180830381865afa158015610c51573d6000803e3d6000fd5b505050506040513d6000823e601f3d9081017fffffffffffffffffffffffffffffffffffffffffffffffffffffffffffffffe0168201604052610c979190810190614bba565b825181519192509084610cab576000610cae565b60015b60ff16610cbb8284614c83565b610cc59190614c83565b67ffffffffffffffff811115610cdd57610cdd613073565b604051908082528060200260200182016040528015610d2a57816020015b60408051606080820183526000808352602083015291810191909152815260200190600190039081610cfb5790505b50975060005b82811015610d7757848181518110610d4a57610d4a614631565b6020026020010151898281518110610d6457610d64614631565b6020908102919091010152600101610d30565b5060005b81811015610e0d576040518060600160405280858381518110610da057610da0614631565b602002602001015173ffffffffffffffffffffffffffffffffffffffff1681526020016000815260200160405180602001604052806000815250815250898285610dea9190614c83565b81518110610dfa57610dfa614631565b6020908102919091010152600101610d7b565b508415610e4d5786600081518110610e2757610e27614631565b6020026020010151888381518110610e4157610e41614631565b60200260200101819052505b50505050505050915091565b606060036000838152602001908152602001600020805480602002602001604051908101604052809291908181526020016000905b82821015610f7f5760008481526020908190206040805160608101825260038602909201805473ffffffffffffffffffffffffffffffffffffffff16835260018101549383019390935260028301805492939291840191610eee90614b67565b80601f0160208091040260200160405190810160405280929190818152602001828054610f1a90614b67565b8015610f675780601f10610f3c57610100808354040283529160200191610f67565b820191906000526020600020905b815481529060010190602001808311610f4a57829003601f168201915b50505050508152505081526020019060010190610e8e565b505050509050919050565b60008281526020819052604081205473ffffffffffffffffffffffffffffffffffffffff90811690831603610fc157506001610492565b6040517f3d12cb87000000000000000000000000000000000000000000000000000000008152600481018490526000907f000000000000000000000000000000000000000000000000000000000000000073ffffffffffffffffffffffffffffffffffffffff1690633d12cb8790602401600060405180830381865afa15801561104f573d6000803e3d6000fd5b505050506040513d6000823e601f3d9081017fffffffffffffffffffffffffffffffffffffffffffffffffffffffffffffffe01682016040526110959190810190614bba565b805190915060005b81811015611105578281815181106110b7576110b7614631565b602002602001015173ffffffffffffffffffffffffffffffffffffffff168573ffffffffffffffffffffffffffffffffffffffff16036110fd5760019350505050610492565b60010161109d565b50600095945050505050565b600061112285858530600087611ec7565b95945050505050565b7f000000000000000000000000000000000000000000000000000000000000000073ffffffffffffffffffffffffffffffffffffffff16631f47ce696040518163ffffffff1660e01b8152600401602060405180830381865afa158015611196573d6000803e3d6000fd5b505050506040513d601f19601f820116820180604052508101906111ba9190614614565b73ffffffffffffffffffffffffffffffffffffffff1663f434c9146040518163ffffffff1660e01b8152600401602060405180830381865afa158015611204573d6000803e3d6000fd5b505050506040513d601f19601f820116820180604052508101906112289190614614565b73ffffffffffffffffffffffffffffffffffffffff16630f5932f033308560026040518563ffffffff1660e01b81526004016112679493929190614c96565b602060405180830381865afa158015611284573d6000803e3d6000fd5b505050506040513d601f19601f820116820180604052508101906112a89190614d14565b6112de576040517f31fb21f300000000000000000000000000000000000000000000000000000000815260040160405180910390fd5b7f000000000000000000000000000000000000000000000000000000000000000073ffffffffffffffffffffffffffffffffffffffff16631f47ce696040518163ffffffff1660e01b8152600401602060405180830381865afa158015611349573d6000803e3d6000fd5b505050506040513d601f19601f8201168201806040525081019061136d9190614614565b73ffffffffffffffffffffffffffffffffffffffff1663f434c9146040518163ffffffff1660e01b8152600401602060405180830381865afa1580156113b7573d6000803e3d6000fd5b505050506040513d601f19601f820116820180604052508101906113db9190614614565b73ffffffffffffffffffffffffffffffffffffffff166305d2912e3060405180606001604052803373ffffffffffffffffffffffffffffffffffffffff168152602001868152602001600067ffffffffffffffff81111561143e5761143e613073565b604051908082528060200260200182016040528015611467578160200160208202803683370190505b508152506040518363ffffffff1660e01b815260040161148892919061478f565b600060405180830381600087803b1580156114a257600080fd5b505af11580156114b6573d6000803e3d6000fd5b505050507f000000000000000000000000000000000000000000000000000000000000000073ffffffffffffffffffffffffffffffffffffffff16631f47ce696040518163ffffffff1660e01b8152600401602060405180830381865afa158015611525573d6000803e3d6000fd5b505050506040513d601f19601f820116820180604052508101906115499190614614565b73ffffffffffffffffffffffffffffffffffffffff1663f434c9146040518163ffffffff1660e01b8152600401602060405180830381865afa158015611593573d6000803e3d6000fd5b505050506040513d601f19601f820116820180604052508101906115b79190614614565b73ffffffffffffffffffffffffffffffffffffffff166305d2912e3060405180606001604052808573ffffffffffffffffffffffffffffffffffffffff168152602001868152602001600280548060200260200160405190810160405280929190818152602001828054801561164c57602002820191906000526020600020905b815481526020019060010190808311611638575b50505050508152506040518363ffffffff1660e01b815260040161167192919061478f565b600060405180830381600087803b15801561168b57600080fd5b505af115801561169f573d6000803e3d6000fd5b505050505050565b60008080606073ffffffffffffffffffffffffffffffffffffffff7f0000000000000000000000000000000000000000000000000000000000000000166383db9d01604087018035906116fd9060208a01614d31565b6040517fffffffff0000000000000000000000000000000000000000000000000000000060e085901b168152600481019290925273ffffffffffffffffffffffffffffffffffffffff166024820152604401602060405180830381865afa15801561176c573d6000803e3d6000fd5b505050506040513d601f19601f820116820180604052508101906117909190614d14565b156117ad5761271085608001358660a0013593509350935061180f565b6040808601356000908152600160205220544210156117f8576040517f04c3b3cd00000000000000000000000000000000000000000000000000000000815260040160405180910390fd5b84610160013585608001358660a001359350935093505b9193509193565b7f000000000000000000000000000000000000000000000000000000000000000073ffffffffffffffffffffffffffffffffffffffff16631f47ce696040518163ffffffff1660e01b8152600401602060405180830381865afa158015611881573d6000803e3d6000fd5b505050506040513d601f19601f820116820180604052508101906118a59190614614565b73ffffffffffffffffffffffffffffffffffffffff1663f434c9146040518163ffffffff1660e01b8152600401602060405180830381865afa1580156118ef573d6000803e3d6000fd5b505050506040513d601f19601f820116820180604052508101906119139190614614565b73ffffffffffffffffffffffffffffffffffffffff16630f5932f033308660026040518563ffffffff1660e01b81526004016119529493929190614c96565b602060405180830381865afa15801561196f573d6000803e3d6000fd5b505050506040513d601f19601f820116820180604052508101906119939190614d14565b6119c9576040517f31fb21f300000000000000000000000000000000000000000000000000000000815260040160405180910390fd5b6000338383602001516040516020016119e493929190614d4e565b604080517fffffffffffffffffffffffffffffffffffffffffffffffffffffffffffffffe081840301815290829052805160209091012083517f2f3f50e000000000000000000000000000000000000000000000000000000000835290925073ffffffffffffffffffffffffffffffffffffffff7f00000000000000000000000000000000000000000000000000000000000000001691632f3f50e091611a919188918691600401614da0565b6000604051808303816000875af1158015611ab0573d6000803e3d6000fd5b505050506040513d6000823e601f3d9081017fffffffffffffffffffffffffffffffffffffffffffffffffffffffffffffffe0168201604052611af69190810190614bba565b5050505050565b6000807f000000000000000000000000000000000000000000000000000000000000000073ffffffffffffffffffffffffffffffffffffffff1663293c49996040518163ffffffff1660e01b8152600401602060405180830381865afa158015611b6b573d6000803e3d6000fd5b505050506040513d601f19601f82011682018060405250810190611b8f9190614614565b73ffffffffffffffffffffffffffffffffffffffff166306661abd6040518163ffffffff1660e01b8152600401602060405180830381865afa158015611bd9573d6000803e3d6000fd5b505050506040513d601f19601f82011682018060405250810190611bfd9190614e9d565b611c08906001614c83565b84519092506000611c1a826001614c83565b67ffffffffffffffff811115611c3257611c32613073565b604051908082528060200260200182016040528015611c7f57816020015b60408051606080820183526000808352602083015291810191909152815260200190600190039081611c505790505b50905060005b82811015611ccc57868181518110611c9f57611c9f614631565b6020026020010151828281518110611cb957611cb9614631565b6020908102919091010152600101611c85565b5086516040517f2230819f00000000000000000000000000000000000000000000000000000000815273ffffffffffffffffffffffffffffffffffffffff7f00000000000000000000000000000000000000000000000000000000000000001691632230819f91611d41918891600401614ff0565b6020604051808303816000875af1158015611d60573d6000803e3d6000fd5b505050506040513d601f19601f82011682018060405250810190611d849190614614565b9250866020015115611dc8576002805460018101825560009190915260167f405787fa12a823e0f2b7631cc41b3ba8828b3321ca811111fa75cd3aa3bb5ace909101555b866040015115611e0a576002805460018101825560009190915260177f405787fa12a823e0f2b7631cc41b3ba8828b3321ca811111fa75cd3aa3bb5ace909101555b866060015115611e4c576002805460018101825560009190915260187f405787fa12a823e0f2b7631cc41b3ba8828b3321ca811111fa75cd3aa3bb5ace909101555b60405180606001604052808473ffffffffffffffffffffffffffffffffffffffff1681526020016000815260200160405180602001604052806000815250815250818381518110611e9f57611e9f614631565b6020026020010181905250611eb88b8b8b8b858a610977565b50505097509795505050505050565b600080600080611ed88a8888612759565b9250925092507f000000000000000000000000000000000000000000000000000000000000000073ffffffffffffffffffffffffffffffffffffffff16630634bae9308c6000015160400151868d8f6000015160200151604051602001611f3f919061516d565b6040516020818303038152906040526040518663ffffffff1660e01b8152600401611f6e95949392919061555d565b6020604051808303816000875af1158015611f8d573d6000803e3d6000fd5b505050506040513d601f19601f82011682018060405250810190611fb19190614e9d565b93508015611fd657611fc66276a70042614c83565b6000858152600160205260409020555b8951805160208201516060909201516040517f5817819100000000000000000000000000000000000000000000000000000000815273ffffffffffffffffffffffffffffffffffffffff7f0000000000000000000000000000000000000000000000000000000000000000169363581781919361205a938a939192916004016156c2565b6020604051808303816000875af1158015612079573d6000803e3d6000fd5b505050506040513d601f19601f8201168201806040525081019061209d9190614614565b50875173ffffffffffffffffffffffffffffffffffffffff16156120c5576120c58489612c5b565b7f000000000000000000000000000000000000000000000000000000000000000073ffffffffffffffffffffffffffffffffffffffff1663dd5f214a8560006121118e60600151612de0565b6040518463ffffffff1660e01b815260040161212f939291906156ff565b600060405180830381600087803b15801561214957600080fd5b505af115801561215d573d6000803e3d6000fd5b505050507f000000000000000000000000000000000000000000000000000000000000000073ffffffffffffffffffffffffffffffffffffffff1663f434c9146040518163ffffffff1660e01b8152600401602060405180830381865afa1580156121cc573d6000803e3d6000fd5b505050506040513d601f19601f820116820180604052508101906121f09190614614565b73ffffffffffffffffffffffffffffffffffffffff166305d2912e3060405180606001604052808e6060015173ffffffffffffffffffffffffffffffffffffffff168152602001888152602001600280548060200260200160405190810160405280929190818152602001828054801561228957602002820191906000526020600020905b815481526020019060010190808311612275575b50505050508152506040518363ffffffff1660e01b81526004016122ae92919061478f565b600060405180830381600087803b1580156122c857600080fd5b505af11580156122dc573d6000803e3d6000fd5b5050505060408a0151156123c0577f000000000000000000000000000000000000000000000000000000000000000073ffffffffffffffffffffffffffffffffffffffff1663c7fb92de858c604001518d606001518e600001516020015160405160200161234a919061571e565b60405160208183030381529060405260006040518663ffffffff1660e01b815260040161237b95949392919061578a565b6020604051808303816000875af115801561239a573d6000803e3d6000fd5b505050506040513d601f19601f820116820180604052508101906123be9190614e9d565b505b60408051600180825281830190925260009160208083019080368337019050509050601d816000815181106123f7576123f7614631565b6020026020010181815250507f000000000000000000000000000000000000000000000000000000000000000073ffffffffffffffffffffffffffffffffffffffff1663f434c9146040518163ffffffff1660e01b8152600401602060405180830381865afa15801561246e573d6000803e3d6000fd5b505050506040513d601f19601f820116820180604052508101906124929190614614565b73ffffffffffffffffffffffffffffffffffffffff166305d2912e3060405180606001604052807f000000000000000000000000000000000000000000000000000000000000000073ffffffffffffffffffffffffffffffffffffffff168152602001898152602001858152506040518363ffffffff1660e01b815260040161251c92919061478f565b600060405180830381600087803b15801561253657600080fd5b505af115801561254a573d6000803e3d6000fd5b50505050602086015115612684577f000000000000000000000000000000000000000000000000000000000000000073ffffffffffffffffffffffffffffffffffffffff16632f3f50e08633868a602001516040516020016125ae93929190614d4e565b604080517fffffffffffffffffffffffffffffffffffffffffffffffffffffffffffffffe08184030181529082905280516020909101208a517fffffffff0000000000000000000000000000000000000000000000000000000060e086901b16835261261d9392600401614da0565b6000604051808303816000875af115801561263c573d6000803e3d6000fd5b505050506040513d6000823e601f3d9081017fffffffffffffffffffffffffffffffffffffffffffffffffffffffffffffffe01682016040526126829190810190614bba565b505b505050509695505050505050565b805160005b8181101561275357600084815260036020526040902083518490839081106126c1576126c1614631565b602090810291909101810151825460018082018555600094855293839020825160039092020180547fffffffffffffffffffffffff00000000000000000000000000000000000000001673ffffffffffffffffffffffffffffffffffffffff9092169190911781559181015192820192909255604082015160028201906127489082615826565b505050600101612697565b50505050565b60608060008086608001515190508067ffffffffffffffff81111561278057612780613073565b60405190808252806020026020018201604052801561287257816020015b61285f6040805161010080820183526000808352602080840182905283850182905260608085018390526080808601849052865161020081018852848152928301849052958201839052810182905293840181905260a084810182905260c0850182905260e0850182905291840181905261012084018190526101408401819052610160840181905261018084018190526101a084018190526101c084018190526101e0840152909190820190815260200160608152602001606081525090565b81526020019060019003908161279e5790505b5093508660200151604051602001612896919063ffffffff91909116815260200190565b604080518083037fffffffffffffffffffffffffffffffffffffffffffffffffffffffffffffffe001815260c083018252600080845260208401819052918301829052606083018290526080830182905260a0830182905294505b82811015612c4f578860800151818151811061290f5761290f614631565b60200260200101519150816000015164ffffffffff1686828151811061293757612937614631565b60200260200101516000018181525050816060015164ffffffffff1686828151811061296557612965614631565b6020026020010151602001818152505081604001516dffffffffffffffffffffffffffff1686828151811061299c5761299c614631565b60200260200101516040018181525050816080015163ffffffff168682815181106129c9576129c9614631565b6020026020010151606001818152505060008682815181106129ed576129ed614631565b60200260200101516080019073ffffffffffffffffffffffffffffffffffffffff16908173ffffffffffffffffffffffffffffffffffffffff1681525050604051806102000160405280836020015161ffff1681526020018360a0015161ffff16612710612a5b9190615940565b815260208b81015163ffffffff16908201526000604082018190526060820181905260016080830181905260a0830182905260c0830182905260e0830182905261010083018290526101208301829052610140830182905261016083015261018082015273ffffffffffffffffffffffffffffffffffffffff8a166101a08201526101c0018890528651879083908110612af757612af7614631565b602002602001015160a00181905250806000148015612b1d5750815164ffffffffff1615155b8015612b33575042826000015164ffffffffff16105b15612b3d57600193505b8481158015612b525750825164ffffffffff16155b612b6457825164ffffffffff16612b66565b425b83602001518460400151856060015186608001518760a00151604051602001612bdb9695949392919095865261ffff94851660208701526dffffffffffffffffffffffffffff93909316604086015264ffffffffff91909116606085015263ffffffff1660808401521660a082015260c00190565b604080517fffffffffffffffffffffffffffffffffffffffffffffffffffffffffffffffe081840301815290829052612c179291602001615953565b604080517fffffffffffffffffffffffffffffffffffffffffffffffffffffffffffffffe081840301815291905294506001016128f1565b50505093509350939050565b602081810151516040805160808101825260008082529381018490529081018390526060810183905290915b82811015612d875783602001518181518110612ca557612ca5614631565b6020908102919091018101518551918101516040808301516060840151845192517f7b621d3a000000000000000000000000000000000000000000000000000000008152600481018c905262ffffff909416602485015263ffffffff918216604485015216606483015273ffffffffffffffffffffffffffffffffffffffff9081166084830152919450911690637b621d3a9060a4016020604051808303816000875af1158015612d5a573d6000803e3d6000fd5b505050506040513d601f19601f82011682018060405250810190612d7e9190614614565b50600101612c87565b5050905160009283526020839052604090922080547fffffffffffffffffffffffff00000000000000000000000000000000000000001673ffffffffffffffffffffffffffffffffffffffff9093169290921790915550565b604080516001808252818301909252606091816020015b604080518082019091526000815260606020820152815260200190600190039081612df757505060408051600180825281830190925291925060009190602082015b6040805160c08101825260008082526020808301829052928201819052606082018190526080820181905260a082015282527fffffffffffffffffffffffffffffffffffffffffffffffffffffffffffffffff909201910181612e395790505090506040518060c00160405280600015158152602001633b9aca008152602001600081526020018473ffffffffffffffffffffffffffffffffffffffff16815260200160008152602001600073ffffffffffffffffffffffffffffffffffffffff1681525081600081518110612f1157612f11614631565b60200260200101819052506040518060400160405280600181526020018281525082600081518110612f4557612f45614631565b602002602001018190525050919050565b600060208284031215612f6857600080fd5b81357fffffffff0000000000000000000000000000000000000000000000000000000081168114612f9857600080fd5b9392505050565b73ffffffffffffffffffffffffffffffffffffffff81168114612fc157600080fd5b50565b8035612fcf81612f9f565b919050565b600080600080600060808688031215612fec57600080fd5b8535612ff781612f9f565b9450602086013561300781612f9f565b935060408601359250606086013567ffffffffffffffff8082111561302b57600080fd5b818801915088601f83011261303f57600080fd5b81358181111561304e57600080fd5b89602082850101111561306057600080fd5b9699959850939650602001949392505050565b7f4e487b7100000000000000000000000000000000000000000000000000000000600052604160045260246000fd5b60405160c0810167ffffffffffffffff811182821017156130c5576130c5613073565b60405290565b60405160a0810167ffffffffffffffff811182821017156130c5576130c5613073565b6040516080810167ffffffffffffffff811182821017156130c5576130c5613073565b6040805190810167ffffffffffffffff811182821017156130c5576130c5613073565b604051610180810167ffffffffffffffff811182821017156130c5576130c5613073565b604051610120810167ffffffffffffffff811182821017156130c5576130c5613073565b6040516060810167ffffffffffffffff811182821017156130c5576130c5613073565b604051601f82017fffffffffffffffffffffffffffffffffffffffffffffffffffffffffffffffe016810167ffffffffffffffff811182821017156131e6576131e6613073565b604052919050565b600067ffffffffffffffff82111561320857613208613073565b50601f017fffffffffffffffffffffffffffffffffffffffffffffffffffffffffffffffe01660200190565b600082601f83011261324557600080fd5b8135613258613253826131ee565b61319f565b81815284602083860101111561326d57600080fd5b816020850160208301376000918101602001919091529392505050565b803563ffffffff81168114612fcf57600080fd5b600067ffffffffffffffff8211156132b8576132b8613073565b5060051b60200190565b803564ffffffffff81168114612fcf57600080fd5b803561ffff81168114612fcf57600080fd5b600082601f8301126132fa57600080fd5b8135602061330a6132538361329e565b82815260c0928302850182019282820191908785111561332957600080fd5b8387015b858110156133ce5781818a0312156133455760008081fd5b61334d6130a2565b613356826132c2565b81526133638683016132d7565b868201526040808301356dffffffffffffffffffffffffffff8116811461338a5760008081fd5b90820152606061339b8382016132c2565b9082015260806133ac83820161328a565b9082015260a06133bd8382016132d7565b90820152845292840192810161332d565b5090979650505050505050565b600060a082840312156133ed57600080fd5b6133f56130cb565b9050813567ffffffffffffffff8082111561340f57600080fd5b908301906080828603121561342357600080fd5b61342b6130ee565b82358281111561343a57600080fd5b61344687828601613234565b82525060208301358281111561345b57600080fd5b61346787828601613234565b60208301525060408301358281111561347f57600080fd5b61348b87828601613234565b6040830152506060838101359082015283526134a96020850161328a565b6020840152604084013560408401526134c460608501612fc4565b606084015260808401359150808211156134dd57600080fd5b506134ea848285016132e9565b60808301525092915050565b600082601f83011261350757600080fd5b813560206135176132538361329e565b8083825260208201915060208460051b87010193508684111561353957600080fd5b602086015b8481101561355e57803561355181612f9f565b835291830191830161353e565b509695505050505050565b600082601f83011261357a57600080fd5b8135602061358a6132538361329e565b82815260059290921b840181019181810190868411156135a957600080fd5b8286015b8481101561355e57803567ffffffffffffffff808211156135ce5760008081fd5b81890191506040807fffffffffffffffffffffffffffffffffffffffffffffffffffffffffffffffe0848d030112156136075760008081fd5b61360f613111565b8784013561361c81612f9f565b81529083013590828211156136315760008081fd5b61363f8c89848701016134f6565b8189015286525050509183019183016135ad565b803562ffffff81168114612fcf57600080fd5b6000604080838503121561367957600080fd5b613681613111565b9150823561368e81612f9f565b825260208381013567ffffffffffffffff8111156136ab57600080fd5b8401601f810186136136bc57600080fd5b80356136ca6132538261329e565b81815260079190911b820183019083810190888311156136e957600080fd5b928401925b8284101561375d576080848a0312156137075760008081fd5b61370f6130ee565b843561371a81612f9f565b8152613727858701613653565b8682015261373687860161328a565b87820152606061374781870161328a565b90820152825260809390930192908401906136ee565b808588015250505050505092915050565b60006040828403121561378057600080fd5b613788613111565b905067ffffffffffffffff80833511156137a157600080fd5b8235830184601f8201126137b457600080fd5b6137c1613253823561329e565b81358082526020808301929160051b840101878111156137e057600080fd5b602084015b818110156139435785813511156137fb57600080fd5b8035850160407fffffffffffffffffffffffffffffffffffffffffffffffffffffffffffffffe0828c0301121561383157600080fd5b613839613111565b6138466020830135612f9f565b60208201358152876040830135111561385e57600080fd5b6040820135820191508a603f83011261387657600080fd5b60208201356138876132538261329e565b81815260079190911b83016040019060208101908d8311156138a857600080fd5b6040850194505b82851015613924576080858f0312156138c757600080fd5b6138cf6130ee565b6138d98635612f9f565b853581526138e96020870161328a565b60208201526138fb6040870135612f9f565b6040860135604082015260608601356060820152808352506020820191506080850194506138af565b80602085015250505080865250506020840193506020810190506137e5565b5050808552505050506020820135602082015292915050565b80356cffffffffffffffffffffffffff81168114612fcf57600080fd5b8015158114612fc157600080fd5b8035612fcf81613979565b803560ff81168114612fcf57600080fd5b600060808083850312156139b657600080fd5b6139be6130ee565b9150823567ffffffffffffffff8111156139d757600080fd5b8301601f810185136139e857600080fd5b803560206139f86132538361329e565b8281526101809283028401820192828201919089851115613a1857600080fd5b948301945b84861015613b0b5780868b031215613a355760008081fd5b613a3d613134565b613a468761395c565b8152613a5385880161328a565b858201526040613a6481890161328a565b908201526060613a758882016132d7565b90820152613a84878901612fc4565b8189015260a0878101359082015260c0613a9f818901613653565b9082015260e0613ab0888201613987565b90820152610100613ac2888201613987565b90820152610120613ad4888201613987565b90820152610140613ae6888201613987565b90820152610160613af8888201613987565b9082015283529485019491830191613a1d565b50865250613b1a86820161328a565b8186015250505050613b2e60408301613992565b6040820152613b3f60608301612fc4565b606082015292915050565b600060808284031215613b5c57600080fd5b613b646130ee565b90508135613b7181613979565b81526020820135613b8181613979565b60208201526040820135613b9481613979565b60408201526060820135613b3f81613979565b600060808284031215613bb957600080fd5b613bc16130ee565b9050813567ffffffffffffffff80821115613bdb57600080fd5b908301906101808286031215613bf057600080fd5b613bf8613158565b823582811115613c0757600080fd5b613c1387828601613234565b825250602083013582811115613c2857600080fd5b613c3487828601613234565b602083015250613c4660408401612fc4565b6040820152606083013582811115613c5d57600080fd5b613c6987828601613234565b606083015250613c7b60808401612fc4565b608082015260a083013582811115613c9257600080fd5b613c9e87828601613234565b60a08301525060c083013582811115613cb657600080fd5b613cc2878286016139a3565b60c083015250613cd460e08401612fc4565b60e08201526101009150613cea86838501613b4a565b82820152808452505050613d0060208301613987565b6020820152613d1160408301613987565b6040820152613b3f60608301613987565b600082601f830112613d3357600080fd5b81356020613d436132538361329e565b82815260059290921b84018101918181019086841115613d6257600080fd5b8286015b8481101561355e57803567ffffffffffffffff80821115613d875760008081fd5b81890191506060807fffffffffffffffffffffffffffffffffffffffffffffffffffffffffffffffe0848d03011215613dc05760008081fd5b613dc861317c565b87840135613dd581612f9f565b815260408481013589830152918401359183831115613df45760008081fd5b613e028d8a85880101613234565b908201528652505050918301918301613d66565b600082601f830112613e2757600080fd5b81356020613e376132538361329e565b82815260059290921b84018101918181019086841115613e5657600080fd5b8286015b8481101561355e57803567ffffffffffffffff80821115613e7b5760008081fd5b818901915060a0807fffffffffffffffffffffffffffffffffffffffffffffffffffffffffffffffe0848d03011215613eb45760008081fd5b613ebc6130cb565b87840135815260408085013589830152606080860135828401526080915081860135818401525082850135925083831115613ef75760008081fd5b613f058d8a858801016134f6565b908201528652505050918301918301613e5a565b600080600080600080600080610100898b031215613f3657600080fd5b883567ffffffffffffffff80821115613f4e57600080fd5b613f5a8c838d016133db565b995060208b0135915080821115613f7057600080fd5b613f7c8c838d01613569565b985060408b0135915080821115613f9257600080fd5b613f9e8c838d01613666565b975060608b0135915080821115613fb457600080fd5b613fc08c838d0161376e565b965060808b0135915080821115613fd657600080fd5b613fe28c838d01613ba7565b955060a08b0135915080821115613ff857600080fd5b6140048c838d01613d22565b945061401260c08c016132d7565b935060e08b013591508082111561402857600080fd5b506140358b828c01613e16565b9150509295985092959890939650565b60008060008060008060c0878903121561405e57600080fd5b863567ffffffffffffffff8082111561407657600080fd5b6140828a838b016133db565b9750602089013591508082111561409857600080fd5b6140a48a838b01613569565b965060408901359150808211156140ba57600080fd5b6140c68a838b01613666565b955060608901359150808211156140dc57600080fd5b6140e88a838b0161376e565b945060808901359150808211156140fe57600080fd5b5061410b89828a01613d22565b92505061411a60a088016132d7565b90509295509295509295565b60006020828403121561413857600080fd5b5035919050565b60006020828403121561415157600080fd5b813567ffffffffffffffff81111561416857600080fd5b82016101808185031215612f9857600080fd5b60005b8381101561419657818101518382015260200161417e565b50506000910152565b600081518084526141b781602086016020860161417b565b601f017fffffffffffffffffffffffffffffffffffffffffffffffffffffffffffffffe0169290920160200192915050565b600082825180855260208086019550808260051b84010181860160005b848110156133ce578583037fffffffffffffffffffffffffffffffffffffffffffffffffffffffffffffffe00189528151805173ffffffffffffffffffffffffffffffffffffffff16845284810151858501526040908101516060918501829052906142748186018361419f565b9a86019a9450505090830190600101614206565b8281526040602082015260006142a160408301846141e9565b949350505050565b602081526000612f9860208301846141e9565b600080604083850312156142cf57600080fd5b8235915060208301356142e181612f9f565b809150509250929050565b6000806000806080858703121561430257600080fd5b843567ffffffffffffffff8082111561431a57600080fd5b614326888389016133db565b9550602087013591508082111561433c57600080fd5b61434888838901613569565b9450604087013591508082111561435e57600080fd5b61436a88838901613666565b9350606087013591508082111561438057600080fd5b5061438d8782880161376e565b91505092959194509250565b6000602082840312156143ab57600080fd5b813567ffffffffffffffff8111156143c257600080fd5b82016101a08185031215612f9857600080fd5b60006080820186835260208681850152604086604086015260606080606087015283875180865260a08801915060a08160051b890101955084890160005b8281101561448e578988037fffffffffffffffffffffffffffffffffffffffffffffffffffffffffffffff600184528151805173ffffffffffffffffffffffffffffffffffffffff16895287810151888a015286015186890186905261447b868a018261419f565b9850509286019290860190600101614413565b50959c9b505050505050505050505050565b6000806000606084860312156144b557600080fd5b83359250602084013567ffffffffffffffff808211156144d457600080fd5b6144e087838801613234565b935060408601359150808211156144f657600080fd5b506145038682870161376e565b9150509250925092565b600080600080600080600060e0888a03121561452857600080fd5b873567ffffffffffffffff8082111561454057600080fd5b61454c8b838c016133db565b985060208a013591508082111561456257600080fd5b61456e8b838c01613569565b975060408a013591508082111561458457600080fd5b6145908b838c01613666565b965060608a01359150808211156145a657600080fd5b6145b28b838c0161376e565b955060808a01359150808211156145c857600080fd5b6145d48b838c01613ba7565b945060a08a01359150808211156145ea57600080fd5b506145f78a828b01613d22565b92505061460660c089016132d7565b905092959891949750929550565b60006020828403121561462657600080fd5b8151612f9881612f9f565b7f4e487b7100000000000000000000000000000000000000000000000000000000600052603260045260246000fd5b60008151808452602080850194506020840160005b838110156146a757815173ffffffffffffffffffffffffffffffffffffffff1687529582019590820190600101614675565b509495945050505050565b6000604080830185845260206040818601528186518084526060935060608701915060608160051b88010183890160005b8381101561477f578983037fffffffffffffffffffffffffffffffffffffffffffffffffffffffffffffffa00185528151805173ffffffffffffffffffffffffffffffffffffffff1684528681015187850152888101518985015287810151888501526080808201519085015260a09081015160c09185018290529061476b81860183614660565b9688019694505050908501906001016146e3565b50909a9950505050505050505050565b600073ffffffffffffffffffffffffffffffffffffffff808516835260206040602085015260a0840182865116604086015260208601516060860152604086015192506060608086015280835180835260c087019150602085019450600092505b8083101561481057845182529383019360019290920191908301906147f0565b50979650505050505050565b803561482781612f9f565b73ffffffffffffffffffffffffffffffffffffffff1682526020818101359083015260408082013590830152606090810135910152565b60008083357fffffffffffffffffffffffffffffffffffffffffffffffffffffffffffffffe184360301811261489357600080fd5b830160208101925035905067ffffffffffffffff8111156148b357600080fd5b8036038213156148c257600080fd5b9250929050565b8183528181602085013750600060208284010152600060207fffffffffffffffffffffffffffffffffffffffffffffffffffffffffffffffe0601f840116840101905092915050565b602081526149406020820161492684612fc4565b73ffffffffffffffffffffffffffffffffffffffff169052565b600061494e60208401612fc4565b73ffffffffffffffffffffffffffffffffffffffff811660408401525061497b606083016040850161481c565b60c083013560e083015261010060e08401358184015261499c818501612fc4565b90506101206149c28185018373ffffffffffffffffffffffffffffffffffffffff169052565b610140915080850135828501525061016081850135818501526149e78186018661485e565b61018086810152925090506111226101a0850183836148c9565b6000806040808486031215614a1557600080fd5b8351925060208085015167ffffffffffffffff80821115614a3557600080fd5b818701915087601f830112614a4957600080fd5b8151614a576132538261329e565b81815260059190911b8301840190848101908a831115614a7657600080fd5b8585015b83811015614b5557805185811115614a9157600080fd5b86016060818e037fffffffffffffffffffffffffffffffffffffffffffffffffffffffffffffffe0011215614ac65760008081fd5b614ace61317c565b88820151614adb81612f9f565b8152818a015189820152606082015187811115614af85760008081fd5b8083019250508d603f830112614b0e5760008081fd5b88820151614b1e613253826131ee565b8181528f8c838601011115614b335760008081fd5b614b42828c83018e870161417b565b828c015250845250918601918601614a7a565b50809750505050505050509250929050565b600181811c90821680614b7b57607f821691505b602082108103614bb4577f4e487b7100000000000000000000000000000000000000000000000000000000600052602260045260246000fd5b50919050565b60006020808385031215614bcd57600080fd5b825167ffffffffffffffff811115614be457600080fd5b8301601f81018513614bf557600080fd5b8051614c036132538261329e565b81815260059190911b82018301908381019087831115614c2257600080fd5b928401925b82841015614c49578351614c3a81612f9f565b82529284019290840190614c27565b979650505050505050565b7f4e487b7100000000000000000000000000000000000000000000000000000000600052601160045260246000fd5b8082018082111561049257610492614c54565b60006080820173ffffffffffffffffffffffffffffffffffffffff80881684526020818816602086015286604086015260806060860152829150855480845260a086019250866000526020600020935060005b81811015614d0557845484526001948501949383019301614ce9565b50919998505050505050505050565b600060208284031215614d2657600080fd5b8151612f9881613979565b600060208284031215614d4357600080fd5b8135612f9881612f9f565b7fffffffffffffffffffffffffffffffffffffffff0000000000000000000000008460601b16815260008351614d8b81601485016020880161417b565b60149201918201929092526034019392505050565b600060608083018684526020868186015260406060604087015282875180855260808801915060808160051b89010194508389016000805b8381101561448e578a88037fffffffffffffffffffffffffffffffffffffffffffffffffffffffffffffff800185528251805173ffffffffffffffffffffffffffffffffffffffff9081168a5290880151888a018890528051888b018190529089019184918c8c01905b80841015614e875784518051841683528c81015163ffffffff168d8401528b81015184168c8401528e01518e830152938b019360019390930192608090910190614e42565b509a505050948701945091860191600101614dd8565b600060208284031215614eaf57600080fd5b5051919050565b80516080808452815184820181905260009260a0916020918201918388019190865b82811015614fa857845180516cffffffffffffffffffffffffff1685528281015163ffffffff908116848701526040808301519091169086015260608082015161ffff16908601528781015173ffffffffffffffffffffffffffffffffffffffff1688860152868101518786015260c08082015162ffffff169086015260e080820151151590860152610100808201511515908601526101208082015115159086015261014080820151151590860152610160908101511515908501529381019361018090930192600101614ed8565b508781015163ffffffff16908901525060408087015160ff169088015260608087015173ffffffffffffffffffffffffffffffffffffffff8116918901919091529350610997565b828152604060208201526000825161018060408401526150146101c084018261419f565b905060208401517fffffffffffffffffffffffffffffffffffffffffffffffffffffffffffffffc080858403016060860152615050838361419f565b92506040860151915061507b608086018373ffffffffffffffffffffffffffffffffffffffff169052565b60608601519150808584030160a0860152615096838361419f565b9250608086015191506150c160c086018373ffffffffffffffffffffffffffffffffffffffff169052565b60a08601519150808584030160e08601526150dc838361419f565b925060c086015191506101008186850301818701526150fb8484614eb6565b935060e0870151925061512761012087018473ffffffffffffffffffffffffffffffffffffffff169052565b860151805115156101408701526020810151151561016087015260408101511515610180870152606081015115156101a087015291506151649050565b50949350505050565b7f24000000000000000000000000000000000000000000000000000000000000008152600082516151a581600185016020870161417b565b7f207265766e6574206465706c6f796564000000000000000000000000000000006001939091019283015250601101919050565b8051825260208101516020830152604081015160408301526060810151615204606084018215159052565b506080810151615218608084018215159052565b5060a081015161522c60a084018215159052565b5060c081015161524060c084018215159052565b5060e081015161525460e084018215159052565b5061010081810151151590830152610120808201511515908301526101408082015115159083015261016080820151151590830152610180808201511515908301526101a0808201511515908301526101c08082015173ffffffffffffffffffffffffffffffffffffffff16908301526101e090810151910152565b600082825180855260208086019550808260051b8401018186016000805b858110156153c1578684037fffffffffffffffffffffffffffffffffffffffffffffffffffffffffffffffe0018a52825180518552850151604086860181905281518187018190529187019160609081880190865b818110156153aa5785518051151584528b8101518c85015285810151868501528481015173ffffffffffffffffffffffffffffffffffffffff908116868601526080808301519086015260a0918201511690840152948a019460c090920191600101615343565b50509c88019c9650505092850192506001016152ee565b509198975050505050505050565b60008151808452602080850194506020840160005b838110156146a75781518051885283015183880152604090960195908201906001016153e4565b600082825180855260208086019550808260051b84010181860160005b848110156133ce577fffffffffffffffffffffffffffffffffffffffffffffffffffffffffffffffe08684030189528151608073ffffffffffffffffffffffffffffffffffffffff80835116865280878401511687870152506040808301518282880152615498838801826153cf565b92505050606080830151925085820381870152506154b681836153cf565b9a86019a9450505090830190600101615428565b600082825180855260208086019550808260051b84010181860160005b848110156133ce578583037fffffffffffffffffffffffffffffffffffffffffffffffffffffffffffffffe00189528151805173ffffffffffffffffffffffffffffffffffffffff168452840151604085850181905261554981860183614660565b9a86019a94505050908301906001016154e7565b600060a073ffffffffffffffffffffffffffffffffffffffff88168352602060a08185015261558f60a085018961419f565b604085820360408701528189518084528484019150848160051b850101858c0160005b83811015615688577fffffffffffffffffffffffffffffffffffffffffffffffffffffffffffffffe087840301855281516102e081518552898201518a8601528782015188860152606080830151818701525060808083015161562c8288018273ffffffffffffffffffffffffffffffffffffffff169052565b50508a82015161563e8c8701826151d9565b5060c0820151816102a0870152615657828701826152d0565b91505060e082015191508481036102c0860152615674818361540b565b968a019694505050908701906001016155b2565b505088810360608a015261569c818c6154ca565b965050505050505082810360808401526156b6818561419f565b98975050505050505050565b8481526080602082015260006156db608083018661419f565b82810360408401526156ed818661419f565b91505082606083015295945050505050565b83815282602082015260606040820152600061112260608301846152d0565b7f240000000000000000000000000000000000000000000000000000000000000081526000825161575681600185016020870161417b565b7f207072656d696e746564000000000000000000000000000000000000000000006001939091019283015250600b01919050565b85815284602082015273ffffffffffffffffffffffffffffffffffffffff8416604082015260a0606082015260006157c560a083018561419f565b905082151560808301529695505050505050565b601f821115615821576000816000526020600020601f850160051c810160208610156158025750805b601f850160051c820191505b8181101561169f5782815560010161580e565b505050565b815167ffffffffffffffff81111561584057615840613073565b6158548161584e8454614b67565b846157d9565b602080601f8311600181146158a757600084156158715750858301515b7fffffffffffffffffffffffffffffffffffffffffffffffffffffffffffffffff600386901b1c1916600185901b17855561169f565b6000858152602081207fffffffffffffffffffffffffffffffffffffffffffffffffffffffffffffffe08616915b828110156158f4578886015182559484019460019091019084016158d5565b508582101561593057878501517fffffffffffffffffffffffffffffffffffffffffffffffffffffffffffffffff600388901b60f8161c191681555b5050505050600190811b01905550565b8181038181111561049257610492614c54565b6000835161596581846020880161417b565b83519083019061597981836020880161417b565b0194935050505056fea26469706673582212200d8526601dbb535e8e512b2f806caea5968ae535e85165f3485341081d55b81b64736f6c63430008170033",
	"deployedBytecode": "0x608060405234801561001057600080fd5b50600436106101515760003560e01c80637485ecf3116100cd578063b5d2553311610081578063d3cee0ee11610066578063d3cee0ee146103a5578063dbfbe5da146103b8578063ee0fc121146103d857600080fd5b8063b5d255331461036b578063bb1994021461039257600080fd5b80639d82ba25116100b25780639d82ba2514610317578063aaf320d714610321578063abf8c5c81461034457600080fd5b80637485ecf3146102ef57806389b396ab1461030257600080fd5b806343681e15116101245780635c0a7cee116101095780635c0a7cee14610261578063677ce088146102815780637249a7731461029457600080fd5b806343681e15146102205780634c4ffc711461024057600080fd5b806301ffc9a714610156578063150b7a021461017e578063158b48b5146101c25780633fe422bd146101ff575b600080fd5b610169610164366004612f56565b6103ff565b60405190151581526020015b60405180910390f35b61019161018c366004612fd4565b610498565b6040517fffffffff000000000000000000000000000000000000000000000000000000009091168152602001610175565b6101d56101d0366004613f19565b6105ac565b6040805192835273ffffffffffffffffffffffffffffffffffffffff909116602083015201610175565b61021261020d366004614045565b610977565b604051908152602001610175565b61021261022e366004614126565b60016020526000908152604090205481565b61025361024e36600461413f565b6109a1565b604051610175929190614288565b61027461026f366004614126565b610e59565b60405161017591906142a9565b61016961028f3660046142bc565b610f8a565b6102ca6102a2366004614126565b60006020819052908152604090205473ffffffffffffffffffffffffffffffffffffffff1681565b60405173ffffffffffffffffffffffffffffffffffffffff9091168152602001610175565b6102126102fd3660046142ec565b611111565b6103156103103660046142bc565b61112b565b005b6102126276a70081565b61033461032f366004614399565b6116a7565b60405161017594939291906143d5565b6102ca7f000000000000000000000000cdfa45a183fa6841ed1ef8550fca0a8aab42ec3481565b6102ca7f0000000000000000000000004be9d88be6e7a38644ea746cf78cb1bf30051c7681565b6103156103a03660046144a0565b611816565b6101d56103b336600461450d565b611afd565b6004546102ca9073ffffffffffffffffffffffffffffffffffffffff1681565b6102ca7f000000000000000000000000daf6226aafe296bbccbec815133386cd910ed58281565b60007fffffffff0000000000000000000000000000000000000000000000000000000082167f81c03c2e00000000000000000000000000000000000000000000000000000000148061049257507f01ffc9a7000000000000000000000000000000000000000000000000000000007fffffffff000000000000000000000000000000000000000000000000000000008316145b92915050565b60007f000000000000000000000000daf6226aafe296bbccbec815133386cd910ed58273ffffffffffffffffffffffffffffffffffffffff1663293c49996040518163ffffffff1660e01b8152600401602060405180830381865afa158015610505573d6000803e3d6000fd5b505050506040513d601f19601f820116820180604052508101906105299190614614565b73ffffffffffffffffffffffffffffffffffffffff163373ffffffffffffffffffffffffffffffffffffffff161461056057600080fd5b73ffffffffffffffffffffffffffffffffffffffff85161561058157600080fd5b507f150b7a020000000000000000000000000000000000000000000000000000000095945050505050565b6000806105be8a8a8a8a8a8a8a611afd565b8451919350915060008167ffffffffffffffff8111156105e0576105e0613073565b60405190808252806020026020018201604052801561066057816020015b61064d6040518060c00160405280600073ffffffffffffffffffffffffffffffffffffffff16815260200160008152602001600081526020016000815260200160008152602001606081525090565b8152602001906001900390816105fe5790505b5090506106956040518060a0016040528060008152602001600081526020016000815260200160008152602001606081525090565b60005b83811015610738578681815181106106b2576106b2614631565b602002602001015191506040518060c001604052808673ffffffffffffffffffffffffffffffffffffffff16815260200183600001518152602001836020015181526020018360400151815260200183606001518152602001836080015181525083828151811061072557610725614631565b6020908102919091010152600101610698565b508551156107ca57600480546040517fab54877a00000000000000000000000000000000000000000000000000000000815273ffffffffffffffffffffffffffffffffffffffff9091169163ab54877a916107979189918791016146b2565b600060405180830381600087803b1580156107b157600080fd5b505af11580156107c5573d6000803e3d6000fd5b505050505b7f000000000000000000000000daf6226aafe296bbccbec815133386cd910ed58273ffffffffffffffffffffffffffffffffffffffff1663f434c9146040518163ffffffff1660e01b8152600401602060405180830381865afa158015610835573d6000803e3d6000fd5b505050506040513d601f19601f820116820180604052508101906108599190614614565b73ffffffffffffffffffffffffffffffffffffffff166305d2912e306040518060600160405280600460009054906101000a900473ffffffffffffffffffffffffffffffffffffffff1673ffffffffffffffffffffffffffffffffffffffff168152602001898152602001600580548060200260200160405190810160405280929190818152602001828054801561091057602002820191906000526020600020905b8154815260200190600101908083116108fc575b50505050508152506040518363ffffffff1660e01b815260040161093592919061478f565b600060405180830381600087803b15801561094f57600080fd5b505af1158015610963573d6000803e3d6000fd5b505050505050509850989650505050505050565b600061098b878787308661ffff1689611ec7565b90506109978184612692565b9695505050505050565b60c0810135600090815260208190526040812054606090819073ffffffffffffffffffffffffffffffffffffffff168015610a91576040517f4c4ffc7100000000000000000000000000000000000000000000000000000000815273ffffffffffffffffffffffffffffffffffffffff821690634c4ffc7190610a28908890600401614912565b600060405180830381865afa158015610a45573d6000803e3d6000fd5b505050506040513d6000823e601f3d9081017fffffffffffffffffffffffffffffffffffffffffffffffffffffffffffffffe0168201604052610a8b9190810190614a01565b90945091505b815160c086013560009081526003602090815260408083208054825181850281018501909352808352941515949192909190849084015b82821015610bb95760008481526020908190206040805160608101825260038602909201805473ffffffffffffffffffffffffffffffffffffffff16835260018101549383019390935260028301805492939291840191610b2890614b67565b80601f0160208091040260200160405190810160405280929190818152602001828054610b5490614b67565b8015610ba15780601f10610b7657610100808354040283529160200191610ba1565b820191906000526020600020905b815481529060010190602001808311610b8457829003601f168201915b50505050508152505081526020019060010190610ac8565b50506040517f3d12cb8700000000000000000000000000000000000000000000000000000000815260c08b0135600482015292935060009273ffffffffffffffffffffffffffffffffffffffff7f0000000000000000000000004be9d88be6e7a38644ea746cf78cb1bf30051c76169250633d12cb879150602401600060405180830381865afa158015610c51573d6000803e3d6000fd5b505050506040513d6000823e601f3d9081017fffffffffffffffffffffffffffffffffffffffffffffffffffffffffffffffe0168201604052610c979190810190614bba565b825181519192509084610cab576000610cae565b60015b60ff16610cbb8284614c83565b610cc59190614c83565b67ffffffffffffffff811115610cdd57610cdd613073565b604051908082528060200260200182016040528015610d2a57816020015b60408051606080820183526000808352602083015291810191909152815260200190600190039081610cfb5790505b50975060005b82811015610d7757848181518110610d4a57610d4a614631565b6020026020010151898281518110610d6457610d64614631565b6020908102919091010152600101610d30565b5060005b81811015610e0d576040518060600160405280858381518110610da057610da0614631565b602002602001015173ffffffffffffffffffffffffffffffffffffffff1681526020016000815260200160405180602001604052806000815250815250898285610dea9190614c83565b81518110610dfa57610dfa614631565b6020908102919091010152600101610d7b565b508415610e4d5786600081518110610e2757610e27614631565b6020026020010151888381518110610e4157610e41614631565b60200260200101819052505b50505050505050915091565b606060036000838152602001908152602001600020805480602002602001604051908101604052809291908181526020016000905b82821015610f7f5760008481526020908190206040805160608101825260038602909201805473ffffffffffffffffffffffffffffffffffffffff16835260018101549383019390935260028301805492939291840191610eee90614b67565b80601f0160208091040260200160405190810160405280929190818152602001828054610f1a90614b67565b8015610f675780601f10610f3c57610100808354040283529160200191610f67565b820191906000526020600020905b815481529060010190602001808311610f4a57829003601f168201915b50505050508152505081526020019060010190610e8e565b505050509050919050565b60008281526020819052604081205473ffffffffffffffffffffffffffffffffffffffff90811690831603610fc157506001610492565b6040517f3d12cb87000000000000000000000000000000000000000000000000000000008152600481018490526000907f0000000000000000000000004be9d88be6e7a38644ea746cf78cb1bf30051c7673ffffffffffffffffffffffffffffffffffffffff1690633d12cb8790602401600060405180830381865afa15801561104f573d6000803e3d6000fd5b505050506040513d6000823e601f3d9081017fffffffffffffffffffffffffffffffffffffffffffffffffffffffffffffffe01682016040526110959190810190614bba565b805190915060005b81811015611105578281815181106110b7576110b7614631565b602002602001015173ffffffffffffffffffffffffffffffffffffffff168573ffffffffffffffffffffffffffffffffffffffff16036110fd5760019350505050610492565b60010161109d565b50600095945050505050565b600061112285858530600087611ec7565b95945050505050565b7f000000000000000000000000daf6226aafe296bbccbec815133386cd910ed58273ffffffffffffffffffffffffffffffffffffffff16631f47ce696040518163ffffffff1660e01b8152600401602060405180830381865afa158015611196573d6000803e3d6000fd5b505050506040513d601f19601f820116820180604052508101906111ba9190614614565b73ffffffffffffffffffffffffffffffffffffffff1663f434c9146040518163ffffffff1660e01b8152600401602060405180830381865afa158015611204573d6000803e3d6000fd5b505050506040513d601f19601f820116820180604052508101906112289190614614565b73ffffffffffffffffffffffffffffffffffffffff16630f5932f033308560026040518563ffffffff1660e01b81526004016112679493929190614c96565b602060405180830381865afa158015611284573d6000803e3d6000fd5b505050506040513d601f19601f820116820180604052508101906112a89190614d14565b6112de576040517f31fb21f300000000000000000000000000000000000000000000000000000000815260040160405180910390fd5b7f000000000000000000000000daf6226aafe296bbccbec815133386cd910ed58273ffffffffffffffffffffffffffffffffffffffff16631f47ce696040518163ffffffff1660e01b8152600401602060405180830381865afa158015611349573d6000803e3d6000fd5b505050506040513d601f19601f8201168201806040525081019061136d9190614614565b73ffffffffffffffffffffffffffffffffffffffff1663f434c9146040518163ffffffff1660e01b8152600401602060405180830381865afa1580156113b7573d6000803e3d6000fd5b505050506040513d601f19601f820116820180604052508101906113db9190614614565b73ffffffffffffffffffffffffffffffffffffffff166305d2912e3060405180606001604052803373ffffffffffffffffffffffffffffffffffffffff168152602001868152602001600067ffffffffffffffff81111561143e5761143e613073565b604051908082528060200260200182016040528015611467578160200160208202803683370190505b508152506040518363ffffffff1660e01b815260040161148892919061478f565b600060405180830381600087803b1580156114a257600080fd5b505af11580156114b6573d6000803e3d6000fd5b505050507f000000000000000000000000daf6226aafe296bbccbec815133386cd910ed58273ffffffffffffffffffffffffffffffffffffffff16631f47ce696040518163ffffffff1660e01b8152600401602060405180830381865afa158015611525573d6000803e3d6000fd5b505050506040513d601f19601f820116820180604052508101906115499190614614565b73ffffffffffffffffffffffffffffffffffffffff1663f434c9146040518163ffffffff1660e01b8152600401602060405180830381865afa158015611593573d6000803e3d6000fd5b505050506040513d601f19601f820116820180604052508101906115b79190614614565b73ffffffffffffffffffffffffffffffffffffffff166305d2912e3060405180606001604052808573ffffffffffffffffffffffffffffffffffffffff168152602001868152602001600280548060200260200160405190810160405280929190818152602001828054801561164c57602002820191906000526020600020905b815481526020019060010190808311611638575b50505050508152506040518363ffffffff1660e01b815260040161167192919061478f565b600060405180830381600087803b15801561168b57600080fd5b505af115801561169f573d6000803e3d6000fd5b505050505050565b60008080606073ffffffffffffffffffffffffffffffffffffffff7f0000000000000000000000004be9d88be6e7a38644ea746cf78cb1bf30051c76166383db9d01604087018035906116fd9060208a01614d31565b6040517fffffffff0000000000000000000000000000000000000000000000000000000060e085901b168152600481019290925273ffffffffffffffffffffffffffffffffffffffff166024820152604401602060405180830381865afa15801561176c573d6000803e3d6000fd5b505050506040513d601f19601f820116820180604052508101906117909190614d14565b156117ad5761271085608001358660a0013593509350935061180f565b6040808601356000908152600160205220544210156117f8576040517f04c3b3cd00000000000000000000000000000000000000000000000000000000815260040160405180910390fd5b84610160013585608001358660a001359350935093505b9193509193565b7f000000000000000000000000daf6226aafe296bbccbec815133386cd910ed58273ffffffffffffffffffffffffffffffffffffffff16631f47ce696040518163ffffffff1660e01b8152600401602060405180830381865afa158015611881573d6000803e3d6000fd5b505050506040513d601f19601f820116820180604052508101906118a59190614614565b73ffffffffffffffffffffffffffffffffffffffff1663f434c9146040518163ffffffff1660e01b8152600401602060405180830381865afa1580156118ef573d6000803e3d6000fd5b505050506040513d601f19601f820116820180604052508101906119139190614614565b73ffffffffffffffffffffffffffffffffffffffff16630f5932f033308660026040518563ffffffff1660e01b81526004016119529493929190614c96565b602060405180830381865afa15801561196f573d6000803e3d6000fd5b505050506040513d601f19601f820116820180604052508101906119939190614d14565b6119c9576040517f31fb21f300000000000000000000000000000000000000000000000000000000815260040160405180910390fd5b6000338383602001516040516020016119e493929190614d4e565b604080517fffffffffffffffffffffffffffffffffffffffffffffffffffffffffffffffe081840301815290829052805160209091012083517f2f3f50e000000000000000000000000000000000000000000000000000000000835290925073ffffffffffffffffffffffffffffffffffffffff7f0000000000000000000000004be9d88be6e7a38644ea746cf78cb1bf30051c761691632f3f50e091611a919188918691600401614da0565b6000604051808303816000875af1158015611ab0573d6000803e3d6000fd5b505050506040513d6000823e601f3d9081017fffffffffffffffffffffffffffffffffffffffffffffffffffffffffffffffe0168201604052611af69190810190614bba565b5050505050565b6000807f000000000000000000000000daf6226aafe296bbccbec815133386cd910ed58273ffffffffffffffffffffffffffffffffffffffff1663293c49996040518163ffffffff1660e01b8152600401602060405180830381865afa158015611b6b573d6000803e3d6000fd5b505050506040513d601f19601f82011682018060405250810190611b8f9190614614565b73ffffffffffffffffffffffffffffffffffffffff166306661abd6040518163ffffffff1660e01b8152600401602060405180830381865afa158015611bd9573d6000803e3d6000fd5b505050506040513d601f19601f82011682018060405250810190611bfd9190614e9d565b611c08906001614c83565b84519092506000611c1a826001614c83565b67ffffffffffffffff811115611c3257611c32613073565b604051908082528060200260200182016040528015611c7f57816020015b60408051606080820183526000808352602083015291810191909152815260200190600190039081611c505790505b50905060005b82811015611ccc57868181518110611c9f57611c9f614631565b6020026020010151828281518110611cb957611cb9614631565b6020908102919091010152600101611c85565b5086516040517f2230819f00000000000000000000000000000000000000000000000000000000815273ffffffffffffffffffffffffffffffffffffffff7f000000000000000000000000cdfa45a183fa6841ed1ef8550fca0a8aab42ec341691632230819f91611d41918891600401614ff0565b6020604051808303816000875af1158015611d60573d6000803e3d6000fd5b505050506040513d601f19601f82011682018060405250810190611d849190614614565b9250866020015115611dc8576002805460018101825560009190915260167f405787fa12a823e0f2b7631cc41b3ba8828b3321ca811111fa75cd3aa3bb5ace909101555b866040015115611e0a576002805460018101825560009190915260177f405787fa12a823e0f2b7631cc41b3ba8828b3321ca811111fa75cd3aa3bb5ace909101555b866060015115611e4c576002805460018101825560009190915260187f405787fa12a823e0f2b7631cc41b3ba8828b3321ca811111fa75cd3aa3bb5ace909101555b60405180606001604052808473ffffffffffffffffffffffffffffffffffffffff1681526020016000815260200160405180602001604052806000815250815250818381518110611e9f57611e9f614631565b6020026020010181905250611eb88b8b8b8b858a610977565b50505097509795505050505050565b600080600080611ed88a8888612759565b9250925092507f000000000000000000000000daf6226aafe296bbccbec815133386cd910ed58273ffffffffffffffffffffffffffffffffffffffff16630634bae9308c6000015160400151868d8f6000015160200151604051602001611f3f919061516d565b6040516020818303038152906040526040518663ffffffff1660e01b8152600401611f6e95949392919061555d565b6020604051808303816000875af1158015611f8d573d6000803e3d6000fd5b505050506040513d601f19601f82011682018060405250810190611fb19190614e9d565b93508015611fd657611fc66276a70042614c83565b6000858152600160205260409020555b8951805160208201516060909201516040517f5817819100000000000000000000000000000000000000000000000000000000815273ffffffffffffffffffffffffffffffffffffffff7f000000000000000000000000daf6226aafe296bbccbec815133386cd910ed582169363581781919361205a938a939192916004016156c2565b6020604051808303816000875af1158015612079573d6000803e3d6000fd5b505050506040513d601f19601f8201168201806040525081019061209d9190614614565b50875173ffffffffffffffffffffffffffffffffffffffff16156120c5576120c58489612c5b565b7f000000000000000000000000daf6226aafe296bbccbec815133386cd910ed58273ffffffffffffffffffffffffffffffffffffffff1663dd5f214a8560006121118e60600151612de0565b6040518463ffffffff1660e01b815260040161212f939291906156ff565b600060405180830381600087803b15801561214957600080fd5b505af115801561215d573d6000803e3d6000fd5b505050507f000000000000000000000000daf6226aafe296bbccbec815133386cd910ed58273ffffffffffffffffffffffffffffffffffffffff1663f434c9146040518163ffffffff1660e01b8152600401602060405180830381865afa1580156121cc573d6000803e3d6000fd5b505050506040513d601f19601f820116820180604052508101906121f09190614614565b73ffffffffffffffffffffffffffffffffffffffff166305d2912e3060405180606001604052808e6060015173ffffffffffffffffffffffffffffffffffffffff168152602001888152602001600280548060200260200160405190810160405280929190818152602001828054801561228957602002820191906000526020600020905b815481526020019060010190808311612275575b50505050508152506040518363ffffffff1660e01b81526004016122ae92919061478f565b600060405180830381600087803b1580156122c857600080fd5b505af11580156122dc573d6000803e3d6000fd5b5050505060408a0151156123c0577f000000000000000000000000daf6226aafe296bbccbec815133386cd910ed58273ffffffffffffffffffffffffffffffffffffffff1663c7fb92de858c604001518d606001518e600001516020015160405160200161234a919061571e565b60405160208183030381529060405260006040518663ffffffff1660e01b815260040161237b95949392919061578a565b6020604051808303816000875af115801561239a573d6000803e3d6000fd5b505050506040513d601f19601f820116820180604052508101906123be9190614e9d565b505b60408051600180825281830190925260009160208083019080368337019050509050601d816000815181106123f7576123f7614631565b6020026020010181815250507f000000000000000000000000daf6226aafe296bbccbec815133386cd910ed58273ffffffffffffffffffffffffffffffffffffffff1663f434c9146040518163ffffffff1660e01b8152600401602060405180830381865afa15801561246e573d6000803e3d6000fd5b505050506040513d601f19601f820116820180604052508101906124929190614614565b73ffffffffffffffffffffffffffffffffffffffff166305d2912e3060405180606001604052807f0000000000000000000000004be9d88be6e7a38644ea746cf78cb1bf30051c7673ffffffffffffffffffffffffffffffffffffffff168152602001898152602001858152506040518363ffffffff1660e01b815260040161251c92919061478f565b600060405180830381600087803b15801561253657600080fd5b505af115801561254a573d6000803e3d6000fd5b50505050602086015115612684577f0000000000000000000000004be9d88be6e7a38644ea746cf78cb1bf30051c7673ffffffffffffffffffffffffffffffffffffffff16632f3f50e08633868a602001516040516020016125ae93929190614d4e565b604080517fffffffffffffffffffffffffffffffffffffffffffffffffffffffffffffffe08184030181529082905280516020909101208a517fffffffff0000000000000000000000000000000000000000000000000000000060e086901b16835261261d9392600401614da0565b6000604051808303816000875af115801561263c573d6000803e3d6000fd5b505050506040513d6000823e601f3d9081017fffffffffffffffffffffffffffffffffffffffffffffffffffffffffffffffe01682016040526126829190810190614bba565b505b505050509695505050505050565b805160005b8181101561275357600084815260036020526040902083518490839081106126c1576126c1614631565b602090810291909101810151825460018082018555600094855293839020825160039092020180547fffffffffffffffffffffffff00000000000000000000000000000000000000001673ffffffffffffffffffffffffffffffffffffffff9092169190911781559181015192820192909255604082015160028201906127489082615826565b505050600101612697565b50505050565b60608060008086608001515190508067ffffffffffffffff81111561278057612780613073565b60405190808252806020026020018201604052801561287257816020015b61285f6040805161010080820183526000808352602080840182905283850182905260608085018390526080808601849052865161020081018852848152928301849052958201839052810182905293840181905260a084810182905260c0850182905260e0850182905291840181905261012084018190526101408401819052610160840181905261018084018190526101a084018190526101c084018190526101e0840152909190820190815260200160608152602001606081525090565b81526020019060019003908161279e5790505b5093508660200151604051602001612896919063ffffffff91909116815260200190565b604080518083037fffffffffffffffffffffffffffffffffffffffffffffffffffffffffffffffe001815260c083018252600080845260208401819052918301829052606083018290526080830182905260a0830182905294505b82811015612c4f578860800151818151811061290f5761290f614631565b60200260200101519150816000015164ffffffffff1686828151811061293757612937614631565b60200260200101516000018181525050816060015164ffffffffff1686828151811061296557612965614631565b6020026020010151602001818152505081604001516dffffffffffffffffffffffffffff1686828151811061299c5761299c614631565b60200260200101516040018181525050816080015163ffffffff168682815181106129c9576129c9614631565b6020026020010151606001818152505060008682815181106129ed576129ed614631565b60200260200101516080019073ffffffffffffffffffffffffffffffffffffffff16908173ffffffffffffffffffffffffffffffffffffffff1681525050604051806102000160405280836020015161ffff1681526020018360a0015161ffff16612710612a5b9190615940565b815260208b81015163ffffffff16908201526000604082018190526060820181905260016080830181905260a0830182905260c0830182905260e0830182905261010083018290526101208301829052610140830182905261016083015261018082015273ffffffffffffffffffffffffffffffffffffffff8a166101a08201526101c0018890528651879083908110612af757612af7614631565b602002602001015160a00181905250806000148015612b1d5750815164ffffffffff1615155b8015612b33575042826000015164ffffffffff16105b15612b3d57600193505b8481158015612b525750825164ffffffffff16155b612b6457825164ffffffffff16612b66565b425b83602001518460400151856060015186608001518760a00151604051602001612bdb9695949392919095865261ffff94851660208701526dffffffffffffffffffffffffffff93909316604086015264ffffffffff91909116606085015263ffffffff1660808401521660a082015260c00190565b604080517fffffffffffffffffffffffffffffffffffffffffffffffffffffffffffffffe081840301815290829052612c179291602001615953565b604080517fffffffffffffffffffffffffffffffffffffffffffffffffffffffffffffffe081840301815291905294506001016128f1565b50505093509350939050565b602081810151516040805160808101825260008082529381018490529081018390526060810183905290915b82811015612d875783602001518181518110612ca557612ca5614631565b6020908102919091018101518551918101516040808301516060840151845192517f7b621d3a000000000000000000000000000000000000000000000000000000008152600481018c905262ffffff909416602485015263ffffffff918216604485015216606483015273ffffffffffffffffffffffffffffffffffffffff9081166084830152919450911690637b621d3a9060a4016020604051808303816000875af1158015612d5a573d6000803e3d6000fd5b505050506040513d601f19601f82011682018060405250810190612d7e9190614614565b50600101612c87565b5050905160009283526020839052604090922080547fffffffffffffffffffffffff00000000000000000000000000000000000000001673ffffffffffffffffffffffffffffffffffffffff9093169290921790915550565b604080516001808252818301909252606091816020015b604080518082019091526000815260606020820152815260200190600190039081612df757505060408051600180825281830190925291925060009190602082015b6040805160c08101825260008082526020808301829052928201819052606082018190526080820181905260a082015282527fffffffffffffffffffffffffffffffffffffffffffffffffffffffffffffffff909201910181612e395790505090506040518060c00160405280600015158152602001633b9aca008152602001600081526020018473ffffffffffffffffffffffffffffffffffffffff16815260200160008152602001600073ffffffffffffffffffffffffffffffffffffffff1681525081600081518110612f1157612f11614631565b60200260200101819052506040518060400160405280600181526020018281525082600081518110612f4557612f45614631565b602002602001018190525050919050565b600060208284031215612f6857600080fd5b81357fffffffff0000000000000000000000000000000000000000000000000000000081168114612f9857600080fd5b9392505050565b73ffffffffffffffffffffffffffffffffffffffff81168114612fc157600080fd5b50565b8035612fcf81612f9f565b919050565b600080600080600060808688031215612fec57600080fd5b8535612ff781612f9f565b9450602086013561300781612f9f565b935060408601359250606086013567ffffffffffffffff8082111561302b57600080fd5b818801915088601f83011261303f57600080fd5b81358181111561304e57600080fd5b89602082850101111561306057600080fd5b9699959850939650602001949392505050565b7f4e487b7100000000000000000000000000000000000000000000000000000000600052604160045260246000fd5b60405160c0810167ffffffffffffffff811182821017156130c5576130c5613073565b60405290565b60405160a0810167ffffffffffffffff811182821017156130c5576130c5613073565b6040516080810167ffffffffffffffff811182821017156130c5576130c5613073565b6040805190810167ffffffffffffffff811182821017156130c5576130c5613073565b604051610180810167ffffffffffffffff811182821017156130c5576130c5613073565b604051610120810167ffffffffffffffff811182821017156130c5576130c5613073565b6040516060810167ffffffffffffffff811182821017156130c5576130c5613073565b604051601f82017fffffffffffffffffffffffffffffffffffffffffffffffffffffffffffffffe016810167ffffffffffffffff811182821017156131e6576131e6613073565b604052919050565b600067ffffffffffffffff82111561320857613208613073565b50601f017fffffffffffffffffffffffffffffffffffffffffffffffffffffffffffffffe01660200190565b600082601f83011261324557600080fd5b8135613258613253826131ee565b61319f565b81815284602083860101111561326d57600080fd5b816020850160208301376000918101602001919091529392505050565b803563ffffffff81168114612fcf57600080fd5b600067ffffffffffffffff8211156132b8576132b8613073565b5060051b60200190565b803564ffffffffff81168114612fcf57600080fd5b803561ffff81168114612fcf57600080fd5b600082601f8301126132fa57600080fd5b8135602061330a6132538361329e565b82815260c0928302850182019282820191908785111561332957600080fd5b8387015b858110156133ce5781818a0312156133455760008081fd5b61334d6130a2565b613356826132c2565b81526133638683016132d7565b868201526040808301356dffffffffffffffffffffffffffff8116811461338a5760008081fd5b90820152606061339b8382016132c2565b9082015260806133ac83820161328a565b9082015260a06133bd8382016132d7565b90820152845292840192810161332d565b5090979650505050505050565b600060a082840312156133ed57600080fd5b6133f56130cb565b9050813567ffffffffffffffff8082111561340f57600080fd5b908301906080828603121561342357600080fd5b61342b6130ee565b82358281111561343a57600080fd5b61344687828601613234565b82525060208301358281111561345b57600080fd5b61346787828601613234565b60208301525060408301358281111561347f57600080fd5b61348b87828601613234565b6040830152506060838101359082015283526134a96020850161328a565b6020840152604084013560408401526134c460608501612fc4565b606084015260808401359150808211156134dd57600080fd5b506134ea848285016132e9565b60808301525092915050565b600082601f83011261350757600080fd5b813560206135176132538361329e565b8083825260208201915060208460051b87010193508684111561353957600080fd5b602086015b8481101561355e57803561355181612f9f565b835291830191830161353e565b509695505050505050565b600082601f83011261357a57600080fd5b8135602061358a6132538361329e565b82815260059290921b840181019181810190868411156135a957600080fd5b8286015b8481101561355e57803567ffffffffffffffff808211156135ce5760008081fd5b81890191506040807fffffffffffffffffffffffffffffffffffffffffffffffffffffffffffffffe0848d030112156136075760008081fd5b61360f613111565b8784013561361c81612f9f565b81529083013590828211156136315760008081fd5b61363f8c89848701016134f6565b8189015286525050509183019183016135ad565b803562ffffff81168114612fcf57600080fd5b6000604080838503121561367957600080fd5b613681613111565b9150823561368e81612f9f565b825260208381013567ffffffffffffffff8111156136ab57600080fd5b8401601f810186136136bc57600080fd5b80356136ca6132538261329e565b81815260079190911b820183019083810190888311156136e957600080fd5b928401925b8284101561375d576080848a0312156137075760008081fd5b61370f6130ee565b843561371a81612f9f565b8152613727858701613653565b8682015261373687860161328a565b87820152606061374781870161328a565b90820152825260809390930192908401906136ee565b808588015250505050505092915050565b60006040828403121561378057600080fd5b613788613111565b905067ffffffffffffffff80833511156137a157600080fd5b8235830184601f8201126137b457600080fd5b6137c1613253823561329e565b81358082526020808301929160051b840101878111156137e057600080fd5b602084015b818110156139435785813511156137fb57600080fd5b8035850160407fffffffffffffffffffffffffffffffffffffffffffffffffffffffffffffffe0828c0301121561383157600080fd5b613839613111565b6138466020830135612f9f565b60208201358152876040830135111561385e57600080fd5b6040820135820191508a603f83011261387657600080fd5b60208201356138876132538261329e565b81815260079190911b83016040019060208101908d8311156138a857600080fd5b6040850194505b82851015613924576080858f0312156138c757600080fd5b6138cf6130ee565b6138d98635612f9f565b853581526138e96020870161328a565b60208201526138fb6040870135612f9f565b6040860135604082015260608601356060820152808352506020820191506080850194506138af565b80602085015250505080865250506020840193506020810190506137e5565b5050808552505050506020820135602082015292915050565b80356cffffffffffffffffffffffffff81168114612fcf57600080fd5b8015158114612fc157600080fd5b8035612fcf81613979565b803560ff81168114612fcf57600080fd5b600060808083850312156139b657600080fd5b6139be6130ee565b9150823567ffffffffffffffff8111156139d757600080fd5b8301601f810185136139e857600080fd5b803560206139f86132538361329e565b8281526101809283028401820192828201919089851115613a1857600080fd5b948301945b84861015613b0b5780868b031215613a355760008081fd5b613a3d613134565b613a468761395c565b8152613a5385880161328a565b858201526040613a6481890161328a565b908201526060613a758882016132d7565b90820152613a84878901612fc4565b8189015260a0878101359082015260c0613a9f818901613653565b9082015260e0613ab0888201613987565b90820152610100613ac2888201613987565b90820152610120613ad4888201613987565b90820152610140613ae6888201613987565b90820152610160613af8888201613987565b9082015283529485019491830191613a1d565b50865250613b1a86820161328a565b8186015250505050613b2e60408301613992565b6040820152613b3f60608301612fc4565b606082015292915050565b600060808284031215613b5c57600080fd5b613b646130ee565b90508135613b7181613979565b81526020820135613b8181613979565b60208201526040820135613b9481613979565b60408201526060820135613b3f81613979565b600060808284031215613bb957600080fd5b613bc16130ee565b9050813567ffffffffffffffff80821115613bdb57600080fd5b908301906101808286031215613bf057600080fd5b613bf8613158565b823582811115613c0757600080fd5b613c1387828601613234565b825250602083013582811115613c2857600080fd5b613c3487828601613234565b602083015250613c4660408401612fc4565b6040820152606083013582811115613c5d57600080fd5b613c6987828601613234565b606083015250613c7b60808401612fc4565b608082015260a083013582811115613c9257600080fd5b613c9e87828601613234565b60a08301525060c083013582811115613cb657600080fd5b613cc2878286016139a3565b60c083015250613cd460e08401612fc4565b60e08201526101009150613cea86838501613b4a565b82820152808452505050613d0060208301613987565b6020820152613d1160408301613987565b6040820152613b3f60608301613987565b600082601f830112613d3357600080fd5b81356020613d436132538361329e565b82815260059290921b84018101918181019086841115613d6257600080fd5b8286015b8481101561355e57803567ffffffffffffffff80821115613d875760008081fd5b81890191506060807fffffffffffffffffffffffffffffffffffffffffffffffffffffffffffffffe0848d03011215613dc05760008081fd5b613dc861317c565b87840135613dd581612f9f565b815260408481013589830152918401359183831115613df45760008081fd5b613e028d8a85880101613234565b908201528652505050918301918301613d66565b600082601f830112613e2757600080fd5b81356020613e376132538361329e565b82815260059290921b84018101918181019086841115613e5657600080fd5b8286015b8481101561355e57803567ffffffffffffffff80821115613e7b5760008081fd5b818901915060a0807fffffffffffffffffffffffffffffffffffffffffffffffffffffffffffffffe0848d03011215613eb45760008081fd5b613ebc6130cb565b87840135815260408085013589830152606080860135828401526080915081860135818401525082850135925083831115613ef75760008081fd5b613f058d8a858801016134f6565b908201528652505050918301918301613e5a565b600080600080600080600080610100898b031215613f3657600080fd5b883567ffffffffffffffff80821115613f4e57600080fd5b613f5a8c838d016133db565b995060208b0135915080821115613f7057600080fd5b613f7c8c838d01613569565b985060408b0135915080821115613f9257600080fd5b613f9e8c838d01613666565b975060608b0135915080821115613fb457600080fd5b613fc08c838d0161376e565b965060808b0135915080821115613fd657600080fd5b613fe28c838d01613ba7565b955060a08b0135915080821115613ff857600080fd5b6140048c838d01613d22565b945061401260c08c016132d7565b935060e08b013591508082111561402857600080fd5b506140358b828c01613e16565b9150509295985092959890939650565b60008060008060008060c0878903121561405e57600080fd5b863567ffffffffffffffff8082111561407657600080fd5b6140828a838b016133db565b9750602089013591508082111561409857600080fd5b6140a48a838b01613569565b965060408901359150808211156140ba57600080fd5b6140c68a838b01613666565b955060608901359150808211156140dc57600080fd5b6140e88a838b0161376e565b945060808901359150808211156140fe57600080fd5b5061410b89828a01613d22565b92505061411a60a088016132d7565b90509295509295509295565b60006020828403121561413857600080fd5b5035919050565b60006020828403121561415157600080fd5b813567ffffffffffffffff81111561416857600080fd5b82016101808185031215612f9857600080fd5b60005b8381101561419657818101518382015260200161417e565b50506000910152565b600081518084526141b781602086016020860161417b565b601f017fffffffffffffffffffffffffffffffffffffffffffffffffffffffffffffffe0169290920160200192915050565b600082825180855260208086019550808260051b84010181860160005b848110156133ce578583037fffffffffffffffffffffffffffffffffffffffffffffffffffffffffffffffe00189528151805173ffffffffffffffffffffffffffffffffffffffff16845284810151858501526040908101516060918501829052906142748186018361419f565b9a86019a9450505090830190600101614206565b8281526040602082015260006142a160408301846141e9565b949350505050565b602081526000612f9860208301846141e9565b600080604083850312156142cf57600080fd5b8235915060208301356142e181612f9f565b809150509250929050565b6000806000806080858703121561430257600080fd5b843567ffffffffffffffff8082111561431a57600080fd5b614326888389016133db565b9550602087013591508082111561433c57600080fd5b61434888838901613569565b9450604087013591508082111561435e57600080fd5b61436a88838901613666565b9350606087013591508082111561438057600080fd5b5061438d8782880161376e565b91505092959194509250565b6000602082840312156143ab57600080fd5b813567ffffffffffffffff8111156143c257600080fd5b82016101a08185031215612f9857600080fd5b60006080820186835260208681850152604086604086015260606080606087015283875180865260a08801915060a08160051b890101955084890160005b8281101561448e578988037fffffffffffffffffffffffffffffffffffffffffffffffffffffffffffffff600184528151805173ffffffffffffffffffffffffffffffffffffffff16895287810151888a015286015186890186905261447b868a018261419f565b9850509286019290860190600101614413565b50959c9b505050505050505050505050565b6000806000606084860312156144b557600080fd5b83359250602084013567ffffffffffffffff808211156144d457600080fd5b6144e087838801613234565b935060408601359150808211156144f657600080fd5b506145038682870161376e565b9150509250925092565b600080600080600080600060e0888a03121561452857600080fd5b873567ffffffffffffffff8082111561454057600080fd5b61454c8b838c016133db565b985060208a013591508082111561456257600080fd5b61456e8b838c01613569565b975060408a013591508082111561458457600080fd5b6145908b838c01613666565b965060608a01359150808211156145a657600080fd5b6145b28b838c0161376e565b955060808a01359150808211156145c857600080fd5b6145d48b838c01613ba7565b945060a08a01359150808211156145ea57600080fd5b506145f78a828b01613d22565b92505061460660c089016132d7565b905092959891949750929550565b60006020828403121561462657600080fd5b8151612f9881612f9f565b7f4e487b7100000000000000000000000000000000000000000000000000000000600052603260045260246000fd5b60008151808452602080850194506020840160005b838110156146a757815173ffffffffffffffffffffffffffffffffffffffff1687529582019590820190600101614675565b509495945050505050565b6000604080830185845260206040818601528186518084526060935060608701915060608160051b88010183890160005b8381101561477f578983037fffffffffffffffffffffffffffffffffffffffffffffffffffffffffffffffa00185528151805173ffffffffffffffffffffffffffffffffffffffff1684528681015187850152888101518985015287810151888501526080808201519085015260a09081015160c09185018290529061476b81860183614660565b9688019694505050908501906001016146e3565b50909a9950505050505050505050565b600073ffffffffffffffffffffffffffffffffffffffff808516835260206040602085015260a0840182865116604086015260208601516060860152604086015192506060608086015280835180835260c087019150602085019450600092505b8083101561481057845182529383019360019290920191908301906147f0565b50979650505050505050565b803561482781612f9f565b73ffffffffffffffffffffffffffffffffffffffff1682526020818101359083015260408082013590830152606090810135910152565b60008083357fffffffffffffffffffffffffffffffffffffffffffffffffffffffffffffffe184360301811261489357600080fd5b830160208101925035905067ffffffffffffffff8111156148b357600080fd5b8036038213156148c257600080fd5b9250929050565b8183528181602085013750600060208284010152600060207fffffffffffffffffffffffffffffffffffffffffffffffffffffffffffffffe0601f840116840101905092915050565b602081526149406020820161492684612fc4565b73ffffffffffffffffffffffffffffffffffffffff169052565b600061494e60208401612fc4565b73ffffffffffffffffffffffffffffffffffffffff811660408401525061497b606083016040850161481c565b60c083013560e083015261010060e08401358184015261499c818501612fc4565b90506101206149c28185018373ffffffffffffffffffffffffffffffffffffffff169052565b610140915080850135828501525061016081850135818501526149e78186018661485e565b61018086810152925090506111226101a0850183836148c9565b6000806040808486031215614a1557600080fd5b8351925060208085015167ffffffffffffffff80821115614a3557600080fd5b818701915087601f830112614a4957600080fd5b8151614a576132538261329e565b81815260059190911b8301840190848101908a831115614a7657600080fd5b8585015b83811015614b5557805185811115614a9157600080fd5b86016060818e037fffffffffffffffffffffffffffffffffffffffffffffffffffffffffffffffe0011215614ac65760008081fd5b614ace61317c565b88820151614adb81612f9f565b8152818a015189820152606082015187811115614af85760008081fd5b8083019250508d603f830112614b0e5760008081fd5b88820151614b1e613253826131ee565b8181528f8c838601011115614b335760008081fd5b614b42828c83018e870161417b565b828c015250845250918601918601614a7a565b50809750505050505050509250929050565b600181811c90821680614b7b57607f821691505b602082108103614bb4577f4e487b7100000000000000000000000000000000000000000000000000000000600052602260045260246000fd5b50919050565b60006020808385031215614bcd57600080fd5b825167ffffffffffffffff811115614be457600080fd5b8301601f81018513614bf557600080fd5b8051614c036132538261329e565b81815260059190911b82018301908381019087831115614c2257600080fd5b928401925b82841015614c49578351614c3a81612f9f565b82529284019290840190614c27565b979650505050505050565b7f4e487b7100000000000000000000000000000000000000000000000000000000600052601160045260246000fd5b8082018082111561049257610492614c54565b60006080820173ffffffffffffffffffffffffffffffffffffffff80881684526020818816602086015286604086015260806060860152829150855480845260a086019250866000526020600020935060005b81811015614d0557845484526001948501949383019301614ce9565b50919998505050505050505050565b600060208284031215614d2657600080fd5b8151612f9881613979565b600060208284031215614d4357600080fd5b8135612f9881612f9f565b7fffffffffffffffffffffffffffffffffffffffff0000000000000000000000008460601b16815260008351614d8b81601485016020880161417b565b60149201918201929092526034019392505050565b600060608083018684526020868186015260406060604087015282875180855260808801915060808160051b89010194508389016000805b8381101561448e578a88037fffffffffffffffffffffffffffffffffffffffffffffffffffffffffffffff800185528251805173ffffffffffffffffffffffffffffffffffffffff9081168a5290880151888a018890528051888b018190529089019184918c8c01905b80841015614e875784518051841683528c81015163ffffffff168d8401528b81015184168c8401528e01518e830152938b019360019390930192608090910190614e42565b509a505050948701945091860191600101614dd8565b600060208284031215614eaf57600080fd5b5051919050565b80516080808452815184820181905260009260a0916020918201918388019190865b82811015614fa857845180516cffffffffffffffffffffffffff1685528281015163ffffffff908116848701526040808301519091169086015260608082015161ffff16908601528781015173ffffffffffffffffffffffffffffffffffffffff1688860152868101518786015260c08082015162ffffff169086015260e080820151151590860152610100808201511515908601526101208082015115159086015261014080820151151590860152610160908101511515908501529381019361018090930192600101614ed8565b508781015163ffffffff16908901525060408087015160ff169088015260608087015173ffffffffffffffffffffffffffffffffffffffff8116918901919091529350610997565b828152604060208201526000825161018060408401526150146101c084018261419f565b905060208401517fffffffffffffffffffffffffffffffffffffffffffffffffffffffffffffffc080858403016060860152615050838361419f565b92506040860151915061507b608086018373ffffffffffffffffffffffffffffffffffffffff169052565b60608601519150808584030160a0860152615096838361419f565b9250608086015191506150c160c086018373ffffffffffffffffffffffffffffffffffffffff169052565b60a08601519150808584030160e08601526150dc838361419f565b925060c086015191506101008186850301818701526150fb8484614eb6565b935060e0870151925061512761012087018473ffffffffffffffffffffffffffffffffffffffff169052565b860151805115156101408701526020810151151561016087015260408101511515610180870152606081015115156101a087015291506151649050565b50949350505050565b7f24000000000000000000000000000000000000000000000000000000000000008152600082516151a581600185016020870161417b565b7f207265766e6574206465706c6f796564000000000000000000000000000000006001939091019283015250601101919050565b8051825260208101516020830152604081015160408301526060810151615204606084018215159052565b506080810151615218608084018215159052565b5060a081015161522c60a084018215159052565b5060c081015161524060c084018215159052565b5060e081015161525460e084018215159052565b5061010081810151151590830152610120808201511515908301526101408082015115159083015261016080820151151590830152610180808201511515908301526101a0808201511515908301526101c08082015173ffffffffffffffffffffffffffffffffffffffff16908301526101e090810151910152565b600082825180855260208086019550808260051b8401018186016000805b858110156153c1578684037fffffffffffffffffffffffffffffffffffffffffffffffffffffffffffffffe0018a52825180518552850151604086860181905281518187018190529187019160609081880190865b818110156153aa5785518051151584528b8101518c85015285810151868501528481015173ffffffffffffffffffffffffffffffffffffffff908116868601526080808301519086015260a0918201511690840152948a019460c090920191600101615343565b50509c88019c9650505092850192506001016152ee565b509198975050505050505050565b60008151808452602080850194506020840160005b838110156146a75781518051885283015183880152604090960195908201906001016153e4565b600082825180855260208086019550808260051b84010181860160005b848110156133ce577fffffffffffffffffffffffffffffffffffffffffffffffffffffffffffffffe08684030189528151608073ffffffffffffffffffffffffffffffffffffffff80835116865280878401511687870152506040808301518282880152615498838801826153cf565b92505050606080830151925085820381870152506154b681836153cf565b9a86019a9450505090830190600101615428565b600082825180855260208086019550808260051b84010181860160005b848110156133ce578583037fffffffffffffffffffffffffffffffffffffffffffffffffffffffffffffffe00189528151805173ffffffffffffffffffffffffffffffffffffffff168452840151604085850181905261554981860183614660565b9a86019a94505050908301906001016154e7565b600060a073ffffffffffffffffffffffffffffffffffffffff88168352602060a08185015261558f60a085018961419f565b604085820360408701528189518084528484019150848160051b850101858c0160005b83811015615688577fffffffffffffffffffffffffffffffffffffffffffffffffffffffffffffffe087840301855281516102e081518552898201518a8601528782015188860152606080830151818701525060808083015161562c8288018273ffffffffffffffffffffffffffffffffffffffff169052565b50508a82015161563e8c8701826151d9565b5060c0820151816102a0870152615657828701826152d0565b91505060e082015191508481036102c0860152615674818361540b565b968a019694505050908701906001016155b2565b505088810360608a015261569c818c6154ca565b965050505050505082810360808401526156b6818561419f565b98975050505050505050565b8481526080602082015260006156db608083018661419f565b82810360408401526156ed818661419f565b91505082606083015295945050505050565b83815282602082015260606040820152600061112260608301846152d0565b7f240000000000000000000000000000000000000000000000000000000000000081526000825161575681600185016020870161417b565b7f207072656d696e746564000000000000000000000000000000000000000000006001939091019283015250600b01919050565b85815284602082015273ffffffffffffffffffffffffffffffffffffffff8416604082015260a0606082015260006157c560a083018561419f565b905082151560808301529695505050505050565b601f821115615821576000816000526020600020601f850160051c810160208610156158025750805b601f850160051c820191505b8181101561169f5782815560010161580e565b505050565b815167ffffffffffffffff81111561584057615840613073565b6158548161584e8454614b67565b846157d9565b602080601f8311600181146158a757600084156158715750858301515b7fffffffffffffffffffffffffffffffffffffffffffffffffffffffffffffffff600386901b1c1916600185901b17855561169f565b6000858152602081207fffffffffffffffffffffffffffffffffffffffffffffffffffffffffffffffe08616915b828110156158f4578886015182559484019460019091019084016158d5565b508582101561593057878501517fffffffffffffffffffffffffffffffffffffffffffffffffffffffffffffffff600388901b60f8161c191681555b5050505050600190811b01905550565b8181038181111561049257610492614c54565b6000835161596581846020880161417b565b83519083019061597981836020880161417b565b0194935050505056fea26469706673582212200d8526601dbb535e8e512b2f806caea5968ae535e85165f3485341081d55b81b64736f6c63430008170033",
	"devdoc": {
		"kind": "dev",
		"methods": {
			"beforePayRecordedWith((address,address,(address,uint256,uint256,uint256),uint256,uint256,address,uint256,uint256,bytes))": {
				"details": "Part of IJBFundingCycleDataSource.This implementation just sets this contract up to receive a `didPay` call.",
				"params": {
					"context": "The Juicebox standard network payment context. See"
				},
				"returns": {
					"hookSpecifications": "Amount to be sent to pay hooks instead of adding to local balance. Useful for auto-routing funds from a treasury as payment come in.",
					"weight": "The weight that network tokens should get minted relative to. This is useful for optionally customizing how many tokens are issued per payment."
				}
			},
			"constructor": {
				"params": {
					"controller": "The controller that revnets are made from.",
					"hookDeployer": "The 721 tiers hook deployer.",
					"publisher": "The croptop publisher that facilitates the permissioned publishing of 721 posts to a revnet.",
					"suckerRegistry": "The registry that deploys and tracks each project's suckers."
				}
			},
			"deployCroptopRevnetWith(((string,string,string,bytes32),uint32,uint256,address,(uint40,uint16,uint112,uint40,uint32,uint16)[]),(address,address[])[],(address,(address,uint24,uint32,uint32)[]),((address,(address,uint32,address,uint256)[])[],bytes32),((string,string,address,string,address,string,((uint104,uint32,uint32,uint16,address,bytes32,uint24,bool,bool,bool,bool,bool)[],uint32,uint8,address),address,(bool,bool,bool,bool)),bool,bool,bool),(address,uint256,bytes)[],uint16,(uint256,uint256,uint256,uint256,address[])[])": {
				"params": {
					"allowedPosts": "The type of posts that the network should allow.",
					"buybackHookConfiguration": "Data used for setting up the buyback hook to use when determining the best price for new participants.",
					"configuration": "The data needed to deploy a basic revnet.",
					"extraHookMetadata": "Extra metadata to attach to the cycle for the delegates to use.",
					"hookConfiguration": "Data used for setting up the 721 tiers.",
					"otherPayHooksSpecifications": "Any hooks that should run when the revnet is paid alongside the 721 hook.",
					"suckerDeploymentConfiguration": "Information about how this revnet relates to other's across chains.",
					"terminalConfigurations": "The terminals that the network uses to accept payments through."
				},
				"returns": {
					"hook": "The address of the 721 hook that was deployed on the revnet.",
					"revnetId": "The ID of the newly created revnet."
				}
			},
			"deployPayHookRevnetWith(((string,string,string,bytes32),uint32,uint256,address,(uint40,uint16,uint112,uint40,uint32,uint16)[]),(address,address[])[],(address,(address,uint24,uint32,uint32)[]),((address,(address,uint32,address,uint256)[])[],bytes32),(address,uint256,bytes)[],uint16)": {
				"params": {
					"buybackHookConfiguration": "Data used for setting up the buyback hook to use when determining the best price for new participants.",
					"configuration": "The data needed to deploy a basic revnet.",
					"extraHookMetadata": "Extra metadata to attach to the cycle for the delegates to use.",
					"payHookSpecifications": "Any hooks that should run when the revnet is paid.",
					"suckerDeploymentConfiguration": "Information about how this revnet relates to other's across chains.",
					"terminalConfigurations": "The terminals that the network uses to accept payments through."
				},
				"returns": {
					"revnetId": "The ID of the newly created revnet."
				}
			},
			"deployRevnetWith(((string,string,string,bytes32),uint32,uint256,address,(uint40,uint16,uint112,uint40,uint32,uint16)[]),(address,address[])[],(address,(address,uint24,uint32,uint32)[]),((address,(address,uint32,address,uint256)[])[],bytes32))": {
				"params": {
					"buybackHookConfiguration": "Data used for setting up the buyback hook to use when determining the best price for new participants.",
					"configuration": "The data needed to deploy a basic revnet.",
					"suckerDeploymentConfiguration": "Information about how this revnet relates to other's across chains.",
					"terminalConfigurations": "The terminals that the network uses to accept payments through."
				},
				"returns": {
					"revnetId": "The ID of the newly created revnet."
				}
			},
			"deploySuckersFor(uint256,bytes,((address,(address,uint32,address,uint256)[])[],bytes32))": {
				"params": {
					"encodedConfiguration": "A bytes representation of the revnet's configuration.",
					"revnetId": "The ID of the revnet having new suckers deployed.",
					"suckerDeploymentConfiguration": "The specifics about the suckers being deployed."
				}
			},
			"deployTiered721RevnetWith(((string,string,string,bytes32),uint32,uint256,address,(uint40,uint16,uint112,uint40,uint32,uint16)[]),(address,address[])[],(address,(address,uint24,uint32,uint32)[]),((address,(address,uint32,address,uint256)[])[],bytes32),((string,string,address,string,address,string,((uint104,uint32,uint32,uint16,address,bytes32,uint24,bool,bool,bool,bool,bool)[],uint32,uint8,address),address,(bool,bool,bool,bool)),bool,bool,bool),(address,uint256,bytes)[],uint16)": {
				"params": {
					"buybackHookConfiguration": "Data used for setting up the buyback hook to use when determining the best price for new participants.",
					"configuration": "The data needed to deploy a basic revnet.",
					"extraHookMetadata": "Extra metadata to attach to the cycle for the delegates to use.",
					"hookConfiguration": "Data used for setting up the 721 tiers.",
					"otherPayHooksSpecifications": "Any hooks that should run when the revnet is paid alongside the 721 hook.",
					"suckerDeploymentConfiguration": "Information about how this revnet relates to other's across chains.",
					"terminalConfigurations": "The terminals that the network uses to accept payments through."
				},
				"returns": {
					"hook": "The address of the 721 hook that was deployed on the revnet.",
					"revnetId": "The ID of the newly created revnet."
				}
			},
			"hasMintPermissionFor(uint256,address)": {
				"params": {
					"addr": "The address to check if has permissions.",
					"revnetId": "The ID of the revnet to check permissions for."
				},
				"returns": {
					"_0": "flag The flag indicating if the address has permissions to mint on the revnet's behalf."
				}
			},
			"onERC721Received(address,address,uint256,bytes)": {
				"details": "Make sure only mints can be received."
			},
			"payHookSpecificationsOf(uint256)": {
				"params": {
					"revnetId": "The ID of the revnet to which the extensions apply."
				},
				"returns": {
					"_0": "payHookSpecifications The pay hooks."
				}
			},
			"replaceOperatorOf(uint256,address)": {
				"params": {
					"newOperator": "The address of the new operator.",
					"revnetId": "The ID of the revnet having its operator replaced."
				}
			},
			"supportsInterface(bytes4)": {
				"details": "See {IERC165-supportsInterface}.",
				"params": {
					"interfaceId": "The ID of the interface to check for adherence to."
				},
				"returns": {
					"_0": "A flag indicating if the provided interface ID is supported."
				}
			}
		},
		"version": 1
	},
	"userdoc": {
		"kind": "user",
		"methods": {
			"CONTROLLER()": {
				"notice": "The controller that networks are made from."
			},
			"EXIT_DELAY()": {
				"notice": "The amount of time from a sucker being deployed to when it can facilitate exits."
			},
			"HOOK_DEPLOYER()": {
				"notice": "The contract responsible for deploying the tiered 721 hook."
			},
			"PUBLISHER()": {
				"notice": "The croptop publisher that facilitates the permissioned publishing of 721 posts to a revnet."
			},
			"SUCKER_REGISTRY()": {
				"notice": "The registry that deploys and tracks each project's suckers."
			},
			"beforePayRecordedWith((address,address,(address,uint256,uint256,uint256),uint256,uint256,address,uint256,uint256,bytes))": {
				"notice": "This function gets called when the revnet receives a payment."
			},
			"beforeRedeemRecordedWith((address,address,uint256,uint256,uint256,uint256,(address,uint256,uint256,uint256),bool,uint256,bytes))": {
				"notice": "This function is never called, it needs to be included to adhere to the interface."
			},
			"buybackHookOf(uint256)": {
				"notice": "The data hook that returns the correct values for the buyback hook of each network."
			},
			"deployCroptopRevnetWith(((string,string,string,bytes32),uint32,uint256,address,(uint40,uint16,uint112,uint40,uint32,uint16)[]),(address,address[])[],(address,(address,uint24,uint32,uint32)[]),((address,(address,uint32,address,uint256)[])[],bytes32),((string,string,address,string,address,string,((uint104,uint32,uint32,uint16,address,bytes32,uint24,bool,bool,bool,bool,bool)[],uint32,uint8,address),address,(bool,bool,bool,bool)),bool,bool,bool),(address,uint256,bytes)[],uint16,(uint256,uint256,uint256,uint256,address[])[])": {
				"notice": "Deploy a revnet that supports 721 sales."
			},
			"deployPayHookRevnetWith(((string,string,string,bytes32),uint32,uint256,address,(uint40,uint16,uint112,uint40,uint32,uint16)[]),(address,address[])[],(address,(address,uint24,uint32,uint32)[]),((address,(address,uint32,address,uint256)[])[],bytes32),(address,uint256,bytes)[],uint16)": {
				"notice": "Deploy a basic revnet that also calls other specified pay hooks."
			},
			"deployRevnetWith(((string,string,string,bytes32),uint32,uint256,address,(uint40,uint16,uint112,uint40,uint32,uint16)[]),(address,address[])[],(address,(address,uint24,uint32,uint32)[]),((address,(address,uint32,address,uint256)[])[],bytes32))": {
				"notice": "Deploy a basic revnet."
			},
			"deploySuckersFor(uint256,bytes,((address,(address,uint32,address,uint256)[])[],bytes32))": {
				"notice": "Allows a revnet's operator to deploy new suckers to the revnet after it's deployed."
			},
			"deployTiered721RevnetWith(((string,string,string,bytes32),uint32,uint256,address,(uint40,uint16,uint112,uint40,uint32,uint16)[]),(address,address[])[],(address,(address,uint24,uint32,uint32)[]),((address,(address,uint32,address,uint256)[])[],bytes32),((string,string,address,string,address,string,((uint104,uint32,uint32,uint16,address,bytes32,uint24,bool,bool,bool,bool,bool)[],uint32,uint8,address),address,(bool,bool,bool,bool)),bool,bool,bool),(address,uint256,bytes)[],uint16)": {
				"notice": "Deploy a revnet that supports 721 sales."
			},
			"exitDelayOf(uint256)": {
				"notice": "The time at which exits from a revnet become allowed."
			},
			"hasMintPermissionFor(uint256,address)": {
				"notice": "Required by the IJBRulesetDataHook interfaces."
			},
			"payHookSpecificationsOf(uint256)": {
				"notice": "The pay hooks to include during payments to networks."
			},
			"replaceOperatorOf(uint256,address)": {
				"notice": "A revnet's operator can replace itself."
			},
			"supportsInterface(bytes4)": {
				"notice": "Indicates if this contract adheres to the specified interface."
			}
		},
		"version": 1
	},
	"gitCommit": "6c2de14c26489576a0722fd439b82a3ac8f9fe75",
	"sourceName": "src/REVCroptopDeployer.sol",
	"chainId": "11155420",
	"linkReferences": {},
	"deployedLinkReferences": {},
	"history": []
}