{
	"format": "sphinx-sol-ct-artifact-1",
	"merkleRoot": "0x976683439ca40a5cfaef0aa733aea68f62d818cb3f6b8401a9547f730e484c99",
	"address": "0x027f1684c6d31066c3f2468117f2508e8134fdfc",
	"sourceName": "src/REVDeployer.sol",
	"contractName": "REVDeployer",
	"chainId": "0xaa37dc",
	"abi": [
		{
			"inputs": [
				{
					"internalType": "contract IJBController",
					"name": "controller",
					"type": "address"
				},
				{
					"internalType": "contract IJBSuckerRegistry",
					"name": "suckerRegistry",
					"type": "address"
				},
				{
					"internalType": "uint256",
					"name": "feeRevnetId",
					"type": "uint256"
				},
				{
					"internalType": "contract IJB721TiersHookDeployer",
					"name": "hookDeployer",
					"type": "address"
				},
				{
					"internalType": "contract CTPublisher",
					"name": "publisher",
					"type": "address"
				},
				{
					"internalType": "address",
					"name": "trustedForwarder",
					"type": "address"
				}
			],
			"stateMutability": "nonpayable",
			"type": "constructor"
		},
		{
			"inputs": [],
			"name": "CASH_OUT_DELAY",
			"outputs": [
				{
					"internalType": "uint256",
					"name": "",
					"type": "uint256"
				}
			],
			"stateMutability": "view",
			"type": "function"
		},
		{
			"inputs": [],
			"name": "CONTROLLER",
			"outputs": [
				{
					"internalType": "contract IJBController",
					"name": "",
					"type": "address"
				}
			],
			"stateMutability": "view",
			"type": "function"
		},
		{
			"inputs": [],
			"name": "DIRECTORY",
			"outputs": [
				{
					"internalType": "contract IJBDirectory",
					"name": "",
					"type": "address"
				}
			],
			"stateMutability": "view",
			"type": "function"
		},
		{
			"inputs": [],
			"name": "FEE",
			"outputs": [
				{
					"internalType": "uint256",
					"name": "",
					"type": "uint256"
				}
			],
			"stateMutability": "view",
			"type": "function"
		},
		{
			"inputs": [],
			"name": "FEE_REVNET_ID",
			"outputs": [
				{
					"internalType": "uint256",
					"name": "",
					"type": "uint256"
				}
			],
			"stateMutability": "view",
			"type": "function"
		},
		{
			"inputs": [],
			"name": "HOOK_DEPLOYER",
			"outputs": [
				{
					"internalType": "contract IJB721TiersHookDeployer",
					"name": "",
					"type": "address"
				}
			],
			"stateMutability": "view",
			"type": "function"
		},
		{
			"inputs": [],
			"name": "PERMISSIONS",
			"outputs": [
				{
					"internalType": "contract IJBPermissions",
					"name": "",
					"type": "address"
				}
			],
			"stateMutability": "view",
			"type": "function"
		},
		{
			"inputs": [],
			"name": "PROJECTS",
			"outputs": [
				{
					"internalType": "contract IJBProjects",
					"name": "",
					"type": "address"
				}
			],
			"stateMutability": "view",
			"type": "function"
		},
		{
			"inputs": [],
			"name": "PUBLISHER",
			"outputs": [
				{
					"internalType": "contract CTPublisher",
					"name": "",
					"type": "address"
				}
			],
			"stateMutability": "view",
			"type": "function"
		},
		{
			"inputs": [],
			"name": "SUCKER_REGISTRY",
			"outputs": [
				{
					"internalType": "contract IJBSuckerRegistry",
					"name": "",
					"type": "address"
				}
			],
			"stateMutability": "view",
			"type": "function"
		},
		{
			"inputs": [
				{
					"components": [
						{
							"internalType": "address",
							"name": "holder",
							"type": "address"
						},
						{
							"internalType": "uint256",
							"name": "projectId",
							"type": "uint256"
						},
						{
							"internalType": "uint256",
							"name": "rulesetId",
							"type": "uint256"
						},
						{
							"internalType": "uint256",
							"name": "cashOutCount",
							"type": "uint256"
						},
						{
							"components": [
								{
									"internalType": "address",
									"name": "token",
									"type": "address"
								},
								{
									"internalType": "uint8",
									"name": "decimals",
									"type": "uint8"
								},
								{
									"internalType": "uint32",
									"name": "currency",
									"type": "uint32"
								},
								{
									"internalType": "uint256",
									"name": "value",
									"type": "uint256"
								}
							],
							"internalType": "struct JBTokenAmount",
							"name": "reclaimedAmount",
							"type": "tuple"
						},
						{
							"components": [
								{
									"internalType": "address",
									"name": "token",
									"type": "address"
								},
								{
									"internalType": "uint8",
									"name": "decimals",
									"type": "uint8"
								},
								{
									"internalType": "uint32",
									"name": "currency",
									"type": "uint32"
								},
								{
									"internalType": "uint256",
									"name": "value",
									"type": "uint256"
								}
							],
							"internalType": "struct JBTokenAmount",
							"name": "forwardedAmount",
							"type": "tuple"
						},
						{
							"internalType": "uint256",
							"name": "cashOutTaxRate",
							"type": "uint256"
						},
						{
							"internalType": "address payable",
							"name": "beneficiary",
							"type": "address"
						},
						{
							"internalType": "bytes",
							"name": "hookMetadata",
							"type": "bytes"
						},
						{
							"internalType": "bytes",
							"name": "cashOutMetadata",
							"type": "bytes"
						}
					],
					"internalType": "struct JBAfterCashOutRecordedContext",
					"name": "context",
					"type": "tuple"
				}
			],
			"name": "afterCashOutRecordedWith",
			"outputs": [],
			"stateMutability": "payable",
			"type": "function"
		},
		{
			"inputs": [
				{
					"internalType": "uint256",
					"name": "revnetId",
					"type": "uint256"
				},
				{
					"internalType": "uint256",
					"name": "stageId",
					"type": "uint256"
				},
				{
					"internalType": "address",
					"name": "beneficiary",
					"type": "address"
				}
			],
			"name": "amountToAutoIssue",
			"outputs": [
				{
					"internalType": "uint256",
					"name": "",
					"type": "uint256"
				}
			],
			"stateMutability": "view",
			"type": "function"
		},
		{
			"inputs": [
				{
					"internalType": "uint256",
					"name": "revnetId",
					"type": "uint256"
				},
				{
					"internalType": "uint256",
					"name": "stageId",
					"type": "uint256"
				},
				{
					"internalType": "address",
					"name": "beneficiary",
					"type": "address"
				}
			],
			"name": "autoIssueFor",
			"outputs": [],
			"stateMutability": "nonpayable",
			"type": "function"
		},
		{
			"inputs": [
				{
					"components": [
						{
							"internalType": "address",
							"name": "terminal",
							"type": "address"
						},
						{
							"internalType": "address",
							"name": "holder",
							"type": "address"
						},
						{
							"internalType": "uint256",
							"name": "projectId",
							"type": "uint256"
						},
						{
							"internalType": "uint256",
							"name": "rulesetId",
							"type": "uint256"
						},
						{
							"internalType": "uint256",
							"name": "cashOutCount",
							"type": "uint256"
						},
						{
							"internalType": "uint256",
							"name": "totalSupply",
							"type": "uint256"
						},
						{
							"components": [
								{
									"internalType": "address",
									"name": "token",
									"type": "address"
								},
								{
									"internalType": "uint8",
									"name": "decimals",
									"type": "uint8"
								},
								{
									"internalType": "uint32",
									"name": "currency",
									"type": "uint32"
								},
								{
									"internalType": "uint256",
									"name": "value",
									"type": "uint256"
								}
							],
							"internalType": "struct JBTokenAmount",
							"name": "surplus",
							"type": "tuple"
						},
						{
							"internalType": "bool",
							"name": "useTotalSurplus",
							"type": "bool"
						},
						{
							"internalType": "uint256",
							"name": "cashOutTaxRate",
							"type": "uint256"
						},
						{
							"internalType": "bytes",
							"name": "metadata",
							"type": "bytes"
						}
					],
					"internalType": "struct JBBeforeCashOutRecordedContext",
					"name": "context",
					"type": "tuple"
				}
			],
			"name": "beforeCashOutRecordedWith",
			"outputs": [
				{
					"internalType": "uint256",
					"name": "cashOutTaxRate",
					"type": "uint256"
				},
				{
					"internalType": "uint256",
					"name": "cashOutCount",
					"type": "uint256"
				},
				{
					"internalType": "uint256",
					"name": "totalSupply",
					"type": "uint256"
				},
				{
					"components": [
						{
							"internalType": "contract IJBCashOutHook",
							"name": "hook",
							"type": "address"
						},
						{
							"internalType": "uint256",
							"name": "amount",
							"type": "uint256"
						},
						{
							"internalType": "bytes",
							"name": "metadata",
							"type": "bytes"
						}
					],
					"internalType": "struct JBCashOutHookSpecification[]",
					"name": "hookSpecifications",
					"type": "tuple[]"
				}
			],
			"stateMutability": "view",
			"type": "function"
		},
		{
			"inputs": [
				{
					"components": [
						{
							"internalType": "address",
							"name": "terminal",
							"type": "address"
						},
						{
							"internalType": "address",
							"name": "payer",
							"type": "address"
						},
						{
							"components": [
								{
									"internalType": "address",
									"name": "token",
									"type": "address"
								},
								{
									"internalType": "uint8",
									"name": "decimals",
									"type": "uint8"
								},
								{
									"internalType": "uint32",
									"name": "currency",
									"type": "uint32"
								},
								{
									"internalType": "uint256",
									"name": "value",
									"type": "uint256"
								}
							],
							"internalType": "struct JBTokenAmount",
							"name": "amount",
							"type": "tuple"
						},
						{
							"internalType": "uint256",
							"name": "projectId",
							"type": "uint256"
						},
						{
							"internalType": "uint256",
							"name": "rulesetId",
							"type": "uint256"
						},
						{
							"internalType": "address",
							"name": "beneficiary",
							"type": "address"
						},
						{
							"internalType": "uint256",
							"name": "weight",
							"type": "uint256"
						},
						{
							"internalType": "uint256",
							"name": "reservedPercent",
							"type": "uint256"
						},
						{
							"internalType": "bytes",
							"name": "metadata",
							"type": "bytes"
						}
					],
					"internalType": "struct JBBeforePayRecordedContext",
					"name": "context",
					"type": "tuple"
				}
			],
			"name": "beforePayRecordedWith",
			"outputs": [
				{
					"internalType": "uint256",
					"name": "weight",
					"type": "uint256"
				},
				{
					"components": [
						{
							"internalType": "contract IJBPayHook",
							"name": "hook",
							"type": "address"
						},
						{
							"internalType": "uint256",
							"name": "amount",
							"type": "uint256"
						},
						{
							"internalType": "bytes",
							"name": "metadata",
							"type": "bytes"
						}
					],
					"internalType": "struct JBPayHookSpecification[]",
					"name": "hookSpecifications",
					"type": "tuple[]"
				}
			],
			"stateMutability": "view",
			"type": "function"
		},
		{
			"inputs": [
				{
					"internalType": "uint256",
					"name": "revnetId",
					"type": "uint256"
				}
			],
			"name": "buybackHookOf",
			"outputs": [
				{
					"internalType": "contract IJBRulesetDataHook",
					"name": "buybackHook",
					"type": "address"
				}
			],
			"stateMutability": "view",
			"type": "function"
		},
		{
			"inputs": [
				{
					"internalType": "uint256",
					"name": "revnetId",
					"type": "uint256"
				}
			],
			"name": "cashOutDelayOf",
			"outputs": [
				{
					"internalType": "uint256",
					"name": "cashOutDelay",
					"type": "uint256"
				}
			],
			"stateMutability": "view",
			"type": "function"
		},
		{
			"inputs": [
				{
					"internalType": "uint256",
					"name": "revnetId",
					"type": "uint256"
				},
				{
					"components": [
						{
							"components": [
								{
									"internalType": "string",
									"name": "name",
									"type": "string"
								},
								{
									"internalType": "string",
									"name": "ticker",
									"type": "string"
								},
								{
									"internalType": "string",
									"name": "uri",
									"type": "string"
								},
								{
									"internalType": "bytes32",
									"name": "salt",
									"type": "bytes32"
								}
							],
							"internalType": "struct REVDescription",
							"name": "description",
							"type": "tuple"
						},
						{
							"internalType": "uint32",
							"name": "baseCurrency",
							"type": "uint32"
						},
						{
							"internalType": "address",
							"name": "splitOperator",
							"type": "address"
						},
						{
							"components": [
								{
									"internalType": "uint48",
									"name": "startsAtOrAfter",
									"type": "uint48"
								},
								{
									"components": [
										{
											"internalType": "uint32",
											"name": "chainId",
											"type": "uint32"
										},
										{
											"internalType": "uint104",
											"name": "count",
											"type": "uint104"
										},
										{
											"internalType": "address",
											"name": "beneficiary",
											"type": "address"
										}
									],
									"internalType": "struct REVAutoIssuance[]",
									"name": "autoIssuances",
									"type": "tuple[]"
								},
								{
									"internalType": "uint16",
									"name": "splitPercent",
									"type": "uint16"
								},
								{
									"components": [
										{
											"internalType": "uint32",
											"name": "percent",
											"type": "uint32"
										},
										{
											"internalType": "uint64",
											"name": "projectId",
											"type": "uint64"
										},
										{
											"internalType": "address payable",
											"name": "beneficiary",
											"type": "address"
										},
										{
											"internalType": "bool",
											"name": "preferAddToBalance",
											"type": "bool"
										},
										{
											"internalType": "uint48",
											"name": "lockedUntil",
											"type": "uint48"
										},
										{
											"internalType": "contract IJBSplitHook",
											"name": "hook",
											"type": "address"
										}
									],
									"internalType": "struct JBSplit[]",
									"name": "splits",
									"type": "tuple[]"
								},
								{
									"internalType": "uint112",
									"name": "initialIssuance",
									"type": "uint112"
								},
								{
									"internalType": "uint32",
									"name": "issuanceCutFrequency",
									"type": "uint32"
								},
								{
									"internalType": "uint32",
									"name": "issuanceCutPercent",
									"type": "uint32"
								},
								{
									"internalType": "uint16",
									"name": "cashOutTaxRate",
									"type": "uint16"
								},
								{
									"internalType": "uint16",
									"name": "extraMetadata",
									"type": "uint16"
								}
							],
							"internalType": "struct REVStageConfig[]",
							"name": "stageConfigurations",
							"type": "tuple[]"
						},
						{
							"components": [
								{
									"internalType": "address",
									"name": "token",
									"type": "address"
								},
								{
									"internalType": "contract IJBPayoutTerminal",
									"name": "terminal",
									"type": "address"
								}
							],
							"internalType": "struct REVLoanSource[]",
							"name": "loanSources",
							"type": "tuple[]"
						},
						{
							"internalType": "address",
							"name": "loans",
							"type": "address"
						}
					],
					"internalType": "struct REVConfig",
					"name": "configuration",
					"type": "tuple"
				},
				{
					"components": [
						{
							"internalType": "contract IJBTerminal",
							"name": "terminal",
							"type": "address"
						},
						{
							"components": [
								{
									"internalType": "address",
									"name": "token",
									"type": "address"
								},
								{
									"internalType": "uint8",
									"name": "decimals",
									"type": "uint8"
								},
								{
									"internalType": "uint32",
									"name": "currency",
									"type": "uint32"
								}
							],
							"internalType": "struct JBAccountingContext[]",
							"name": "accountingContextsToAccept",
							"type": "tuple[]"
						}
					],
					"internalType": "struct JBTerminalConfig[]",
					"name": "terminalConfigurations",
					"type": "tuple[]"
				},
				{
					"components": [
						{
							"internalType": "contract IJBBuybackHook",
							"name": "hook",
							"type": "address"
						},
						{
							"components": [
								{
									"internalType": "address",
									"name": "token",
									"type": "address"
								},
								{
									"internalType": "uint24",
									"name": "fee",
									"type": "uint24"
								},
								{
									"internalType": "uint32",
									"name": "twapWindow",
									"type": "uint32"
								},
								{
									"internalType": "uint32",
									"name": "twapSlippageTolerance",
									"type": "uint32"
								}
							],
							"internalType": "struct REVBuybackPoolConfig[]",
							"name": "poolConfigurations",
							"type": "tuple[]"
						}
					],
					"internalType": "struct REVBuybackHookConfig",
					"name": "buybackHookConfiguration",
					"type": "tuple"
				},
				{
					"components": [
						{
							"components": [
								{
									"internalType": "contract IJBSuckerDeployer",
									"name": "deployer",
									"type": "address"
								},
								{
									"components": [
										{
											"internalType": "address",
											"name": "localToken",
											"type": "address"
										},
										{
											"internalType": "uint32",
											"name": "minGas",
											"type": "uint32"
										},
										{
											"internalType": "address",
											"name": "remoteToken",
											"type": "address"
										},
										{
											"internalType": "uint256",
											"name": "minBridgeAmount",
											"type": "uint256"
										}
									],
									"internalType": "struct JBTokenMapping[]",
									"name": "mappings",
									"type": "tuple[]"
								}
							],
							"internalType": "struct JBSuckerDeployerConfig[]",
							"name": "deployerConfigurations",
							"type": "tuple[]"
						},
						{
							"internalType": "bytes32",
							"name": "salt",
							"type": "bytes32"
						}
					],
					"internalType": "struct REVSuckerDeploymentConfig",
					"name": "suckerDeploymentConfiguration",
					"type": "tuple"
				}
			],
			"name": "deployFor",
			"outputs": [
				{
					"internalType": "uint256",
					"name": "",
					"type": "uint256"
				}
			],
			"stateMutability": "nonpayable",
			"type": "function"
		},
		{
			"inputs": [
				{
					"internalType": "uint256",
					"name": "revnetId",
					"type": "uint256"
				},
				{
					"components": [
						{
							"components": [
								{
									"internalType": "contract IJBSuckerDeployer",
									"name": "deployer",
									"type": "address"
								},
								{
									"components": [
										{
											"internalType": "address",
											"name": "localToken",
											"type": "address"
										},
										{
											"internalType": "uint32",
											"name": "minGas",
											"type": "uint32"
										},
										{
											"internalType": "address",
											"name": "remoteToken",
											"type": "address"
										},
										{
											"internalType": "uint256",
											"name": "minBridgeAmount",
											"type": "uint256"
										}
									],
									"internalType": "struct JBTokenMapping[]",
									"name": "mappings",
									"type": "tuple[]"
								}
							],
							"internalType": "struct JBSuckerDeployerConfig[]",
							"name": "deployerConfigurations",
							"type": "tuple[]"
						},
						{
							"internalType": "bytes32",
							"name": "salt",
							"type": "bytes32"
						}
					],
					"internalType": "struct REVSuckerDeploymentConfig",
					"name": "suckerDeploymentConfiguration",
					"type": "tuple"
				}
			],
			"name": "deploySuckersFor",
			"outputs": [
				{
					"internalType": "address[]",
					"name": "suckers",
					"type": "address[]"
				}
			],
			"stateMutability": "nonpayable",
			"type": "function"
		},
		{
			"inputs": [
				{
					"internalType": "uint256",
					"name": "revnetId",
					"type": "uint256"
				},
				{
					"components": [
						{
							"components": [
								{
									"internalType": "string",
									"name": "name",
									"type": "string"
								},
								{
									"internalType": "string",
									"name": "ticker",
									"type": "string"
								},
								{
									"internalType": "string",
									"name": "uri",
									"type": "string"
								},
								{
									"internalType": "bytes32",
									"name": "salt",
									"type": "bytes32"
								}
							],
							"internalType": "struct REVDescription",
							"name": "description",
							"type": "tuple"
						},
						{
							"internalType": "uint32",
							"name": "baseCurrency",
							"type": "uint32"
						},
						{
							"internalType": "address",
							"name": "splitOperator",
							"type": "address"
						},
						{
							"components": [
								{
									"internalType": "uint48",
									"name": "startsAtOrAfter",
									"type": "uint48"
								},
								{
									"components": [
										{
											"internalType": "uint32",
											"name": "chainId",
											"type": "uint32"
										},
										{
											"internalType": "uint104",
											"name": "count",
											"type": "uint104"
										},
										{
											"internalType": "address",
											"name": "beneficiary",
											"type": "address"
										}
									],
									"internalType": "struct REVAutoIssuance[]",
									"name": "autoIssuances",
									"type": "tuple[]"
								},
								{
									"internalType": "uint16",
									"name": "splitPercent",
									"type": "uint16"
								},
								{
									"components": [
										{
											"internalType": "uint32",
											"name": "percent",
											"type": "uint32"
										},
										{
											"internalType": "uint64",
											"name": "projectId",
											"type": "uint64"
										},
										{
											"internalType": "address payable",
											"name": "beneficiary",
											"type": "address"
										},
										{
											"internalType": "bool",
											"name": "preferAddToBalance",
											"type": "bool"
										},
										{
											"internalType": "uint48",
											"name": "lockedUntil",
											"type": "uint48"
										},
										{
											"internalType": "contract IJBSplitHook",
											"name": "hook",
											"type": "address"
										}
									],
									"internalType": "struct JBSplit[]",
									"name": "splits",
									"type": "tuple[]"
								},
								{
									"internalType": "uint112",
									"name": "initialIssuance",
									"type": "uint112"
								},
								{
									"internalType": "uint32",
									"name": "issuanceCutFrequency",
									"type": "uint32"
								},
								{
									"internalType": "uint32",
									"name": "issuanceCutPercent",
									"type": "uint32"
								},
								{
									"internalType": "uint16",
									"name": "cashOutTaxRate",
									"type": "uint16"
								},
								{
									"internalType": "uint16",
									"name": "extraMetadata",
									"type": "uint16"
								}
							],
							"internalType": "struct REVStageConfig[]",
							"name": "stageConfigurations",
							"type": "tuple[]"
						},
						{
							"components": [
								{
									"internalType": "address",
									"name": "token",
									"type": "address"
								},
								{
									"internalType": "contract IJBPayoutTerminal",
									"name": "terminal",
									"type": "address"
								}
							],
							"internalType": "struct REVLoanSource[]",
							"name": "loanSources",
							"type": "tuple[]"
						},
						{
							"internalType": "address",
							"name": "loans",
							"type": "address"
						}
					],
					"internalType": "struct REVConfig",
					"name": "configuration",
					"type": "tuple"
				},
				{
					"components": [
						{
							"internalType": "contract IJBTerminal",
							"name": "terminal",
							"type": "address"
						},
						{
							"components": [
								{
									"internalType": "address",
									"name": "token",
									"type": "address"
								},
								{
									"internalType": "uint8",
									"name": "decimals",
									"type": "uint8"
								},
								{
									"internalType": "uint32",
									"name": "currency",
									"type": "uint32"
								}
							],
							"internalType": "struct JBAccountingContext[]",
							"name": "accountingContextsToAccept",
							"type": "tuple[]"
						}
					],
					"internalType": "struct JBTerminalConfig[]",
					"name": "terminalConfigurations",
					"type": "tuple[]"
				},
				{
					"components": [
						{
							"internalType": "contract IJBBuybackHook",
							"name": "hook",
							"type": "address"
						},
						{
							"components": [
								{
									"internalType": "address",
									"name": "token",
									"type": "address"
								},
								{
									"internalType": "uint24",
									"name": "fee",
									"type": "uint24"
								},
								{
									"internalType": "uint32",
									"name": "twapWindow",
									"type": "uint32"
								},
								{
									"internalType": "uint32",
									"name": "twapSlippageTolerance",
									"type": "uint32"
								}
							],
							"internalType": "struct REVBuybackPoolConfig[]",
							"name": "poolConfigurations",
							"type": "tuple[]"
						}
					],
					"internalType": "struct REVBuybackHookConfig",
					"name": "buybackHookConfiguration",
					"type": "tuple"
				},
				{
					"components": [
						{
							"components": [
								{
									"internalType": "contract IJBSuckerDeployer",
									"name": "deployer",
									"type": "address"
								},
								{
									"components": [
										{
											"internalType": "address",
											"name": "localToken",
											"type": "address"
										},
										{
											"internalType": "uint32",
											"name": "minGas",
											"type": "uint32"
										},
										{
											"internalType": "address",
											"name": "remoteToken",
											"type": "address"
										},
										{
											"internalType": "uint256",
											"name": "minBridgeAmount",
											"type": "uint256"
										}
									],
									"internalType": "struct JBTokenMapping[]",
									"name": "mappings",
									"type": "tuple[]"
								}
							],
							"internalType": "struct JBSuckerDeployerConfig[]",
							"name": "deployerConfigurations",
							"type": "tuple[]"
						},
						{
							"internalType": "bytes32",
							"name": "salt",
							"type": "bytes32"
						}
					],
					"internalType": "struct REVSuckerDeploymentConfig",
					"name": "suckerDeploymentConfiguration",
					"type": "tuple"
				},
				{
					"components": [
						{
							"components": [
								{
									"internalType": "string",
									"name": "name",
									"type": "string"
								},
								{
									"internalType": "string",
									"name": "symbol",
									"type": "string"
								},
								{
									"internalType": "string",
									"name": "baseUri",
									"type": "string"
								},
								{
									"internalType": "contract IJB721TokenUriResolver",
									"name": "tokenUriResolver",
									"type": "address"
								},
								{
									"internalType": "string",
									"name": "contractUri",
									"type": "string"
								},
								{
									"components": [
										{
											"components": [
												{
													"internalType": "uint104",
													"name": "price",
													"type": "uint104"
												},
												{
													"internalType": "uint32",
													"name": "initialSupply",
													"type": "uint32"
												},
												{
													"internalType": "uint32",
													"name": "votingUnits",
													"type": "uint32"
												},
												{
													"internalType": "uint16",
													"name": "reserveFrequency",
													"type": "uint16"
												},
												{
													"internalType": "address",
													"name": "reserveBeneficiary",
													"type": "address"
												},
												{
													"internalType": "bytes32",
													"name": "encodedIPFSUri",
													"type": "bytes32"
												},
												{
													"internalType": "uint24",
													"name": "category",
													"type": "uint24"
												},
												{
													"internalType": "uint8",
													"name": "discountPercent",
													"type": "uint8"
												},
												{
													"internalType": "bool",
													"name": "allowOwnerMint",
													"type": "bool"
												},
												{
													"internalType": "bool",
													"name": "useReserveBeneficiaryAsDefault",
													"type": "bool"
												},
												{
													"internalType": "bool",
													"name": "transfersPausable",
													"type": "bool"
												},
												{
													"internalType": "bool",
													"name": "useVotingUnits",
													"type": "bool"
												},
												{
													"internalType": "bool",
													"name": "cannotBeRemoved",
													"type": "bool"
												},
												{
													"internalType": "bool",
													"name": "cannotIncreaseDiscountPercent",
													"type": "bool"
												}
											],
											"internalType": "struct JB721TierConfig[]",
											"name": "tiers",
											"type": "tuple[]"
										},
										{
											"internalType": "uint32",
											"name": "currency",
											"type": "uint32"
										},
										{
											"internalType": "uint8",
											"name": "decimals",
											"type": "uint8"
										},
										{
											"internalType": "contract IJBPrices",
											"name": "prices",
											"type": "address"
										}
									],
									"internalType": "struct JB721InitTiersConfig",
									"name": "tiersConfig",
									"type": "tuple"
								},
								{
									"internalType": "address",
									"name": "reserveBeneficiary",
									"type": "address"
								},
								{
									"components": [
										{
											"internalType": "bool",
											"name": "noNewTiersWithReserves",
											"type": "bool"
										},
										{
											"internalType": "bool",
											"name": "noNewTiersWithVotes",
											"type": "bool"
										},
										{
											"internalType": "bool",
											"name": "noNewTiersWithOwnerMinting",
											"type": "bool"
										},
										{
											"internalType": "bool",
											"name": "preventOverspending",
											"type": "bool"
										}
									],
									"internalType": "struct JB721TiersHookFlags",
									"name": "flags",
									"type": "tuple"
								}
							],
							"internalType": "struct JBDeploy721TiersHookConfig",
							"name": "baseline721HookConfiguration",
							"type": "tuple"
						},
						{
							"internalType": "bytes32",
							"name": "salt",
							"type": "bytes32"
						},
						{
							"internalType": "bool",
							"name": "splitOperatorCanAdjustTiers",
							"type": "bool"
						},
						{
							"internalType": "bool",
							"name": "splitOperatorCanUpdateMetadata",
							"type": "bool"
						},
						{
							"internalType": "bool",
							"name": "splitOperatorCanMint",
							"type": "bool"
						},
						{
							"internalType": "bool",
							"name": "splitOperatorCanIncreaseDiscountPercent",
							"type": "bool"
						}
					],
					"internalType": "struct REVDeploy721TiersHookConfig",
					"name": "tiered721HookConfiguration",
					"type": "tuple"
				},
				{
					"components": [
						{
							"internalType": "uint24",
							"name": "category",
							"type": "uint24"
						},
						{
							"internalType": "uint104",
							"name": "minimumPrice",
							"type": "uint104"
						},
						{
							"internalType": "uint32",
							"name": "minimumTotalSupply",
							"type": "uint32"
						},
						{
							"internalType": "uint32",
							"name": "maximumTotalSupply",
							"type": "uint32"
						},
						{
							"internalType": "address[]",
							"name": "allowedAddresses",
							"type": "address[]"
						}
					],
					"internalType": "struct REVCroptopAllowedPost[]",
					"name": "allowedPosts",
					"type": "tuple[]"
				}
			],
			"name": "deployWith721sFor",
			"outputs": [
				{
					"internalType": "uint256",
					"name": "",
					"type": "uint256"
				},
				{
					"internalType": "contract IJB721TiersHook",
					"name": "hook",
					"type": "address"
				}
			],
			"stateMutability": "nonpayable",
			"type": "function"
		},
		{
			"inputs": [
				{
					"internalType": "uint256",
					"name": "revnetId",
					"type": "uint256"
				},
				{
					"internalType": "address",
					"name": "addr",
					"type": "address"
				}
			],
			"name": "hasMintPermissionFor",
			"outputs": [
				{
					"internalType": "bool",
					"name": "",
					"type": "bool"
				}
			],
			"stateMutability": "view",
			"type": "function"
		},
		{
			"inputs": [
				{
					"internalType": "uint256",
					"name": "revnetId",
					"type": "uint256"
				}
			],
			"name": "hashedEncodedConfigurationOf",
			"outputs": [
				{
					"internalType": "bytes32",
					"name": "hashedEncodedConfiguration",
					"type": "bytes32"
				}
			],
			"stateMutability": "view",
			"type": "function"
		},
		{
			"inputs": [
				{
					"internalType": "uint256",
					"name": "revnetId",
					"type": "uint256"
				},
				{
					"internalType": "address",
					"name": "addr",
					"type": "address"
				}
			],
			"name": "isSplitOperatorOf",
			"outputs": [
				{
					"internalType": "bool",
					"name": "",
					"type": "bool"
				}
			],
			"stateMutability": "view",
			"type": "function"
		},
		{
			"inputs": [
				{
					"internalType": "address",
					"name": "forwarder",
					"type": "address"
				}
			],
			"name": "isTrustedForwarder",
			"outputs": [
				{
					"internalType": "bool",
					"name": "",
					"type": "bool"
				}
			],
			"stateMutability": "view",
			"type": "function"
		},
		{
			"inputs": [
				{
					"internalType": "uint256",
					"name": "revnetId",
					"type": "uint256"
				}
			],
			"name": "loansOf",
			"outputs": [
				{
					"internalType": "address",
					"name": "",
					"type": "address"
				}
			],
			"stateMutability": "view",
			"type": "function"
		},
		{
			"inputs": [
				{
					"internalType": "address",
					"name": "",
					"type": "address"
				},
				{
					"internalType": "address",
					"name": "",
					"type": "address"
				},
				{
					"internalType": "uint256",
					"name": "",
					"type": "uint256"
				},
				{
					"internalType": "bytes",
					"name": "",
					"type": "bytes"
				}
			],
			"name": "onERC721Received",
			"outputs": [
				{
					"internalType": "bytes4",
					"name": "",
					"type": "bytes4"
				}
			],
			"stateMutability": "view",
			"type": "function"
		},
		{
			"inputs": [
				{
					"internalType": "uint256",
					"name": "revnetId",
					"type": "uint256"
				},
				{
					"internalType": "address",
					"name": "newSplitOperator",
					"type": "address"
				}
			],
			"name": "setSplitOperatorOf",
			"outputs": [],
			"stateMutability": "nonpayable",
			"type": "function"
		},
		{
			"inputs": [
				{
					"internalType": "bytes4",
					"name": "interfaceId",
					"type": "bytes4"
				}
			],
			"name": "supportsInterface",
			"outputs": [
				{
					"internalType": "bool",
					"name": "",
					"type": "bool"
				}
			],
			"stateMutability": "view",
			"type": "function"
		},
		{
			"inputs": [
				{
					"internalType": "uint256",
					"name": "revnetId",
					"type": "uint256"
				}
			],
			"name": "tiered721HookOf",
			"outputs": [
				{
					"internalType": "contract IJB721TiersHook",
					"name": "tiered721Hook",
					"type": "address"
				}
			],
			"stateMutability": "view",
			"type": "function"
		},
		{
			"inputs": [],
			"name": "trustedForwarder",
			"outputs": [
				{
					"internalType": "address",
					"name": "",
					"type": "address"
				}
			],
			"stateMutability": "view",
			"type": "function"
		},
		{
			"anonymous": false,
			"inputs": [
				{
					"indexed": true,
					"internalType": "uint256",
					"name": "revnetId",
					"type": "uint256"
				},
				{
					"indexed": true,
					"internalType": "uint256",
					"name": "stageId",
					"type": "uint256"
				},
				{
					"indexed": true,
					"internalType": "address",
					"name": "beneficiary",
					"type": "address"
				},
				{
					"indexed": false,
					"internalType": "uint256",
					"name": "count",
					"type": "uint256"
				},
				{
					"indexed": false,
					"internalType": "address",
					"name": "caller",
					"type": "address"
				}
			],
			"name": "AutoIssue",
			"type": "event"
		},
		{
			"anonymous": false,
			"inputs": [
				{
					"indexed": true,
					"internalType": "uint256",
					"name": "revnetId",
					"type": "uint256"
				},
				{
					"components": [
						{
							"components": [
								{
									"internalType": "string",
									"name": "name",
									"type": "string"
								},
								{
									"internalType": "string",
									"name": "ticker",
									"type": "string"
								},
								{
									"internalType": "string",
									"name": "uri",
									"type": "string"
								},
								{
									"internalType": "bytes32",
									"name": "salt",
									"type": "bytes32"
								}
							],
							"internalType": "struct REVDescription",
							"name": "description",
							"type": "tuple"
						},
						{
							"internalType": "uint32",
							"name": "baseCurrency",
							"type": "uint32"
						},
						{
							"internalType": "address",
							"name": "splitOperator",
							"type": "address"
						},
						{
							"components": [
								{
									"internalType": "uint48",
									"name": "startsAtOrAfter",
									"type": "uint48"
								},
								{
									"components": [
										{
											"internalType": "uint32",
											"name": "chainId",
											"type": "uint32"
										},
										{
											"internalType": "uint104",
											"name": "count",
											"type": "uint104"
										},
										{
											"internalType": "address",
											"name": "beneficiary",
											"type": "address"
										}
									],
									"internalType": "struct REVAutoIssuance[]",
									"name": "autoIssuances",
									"type": "tuple[]"
								},
								{
									"internalType": "uint16",
									"name": "splitPercent",
									"type": "uint16"
								},
								{
									"components": [
										{
											"internalType": "uint32",
											"name": "percent",
											"type": "uint32"
										},
										{
											"internalType": "uint64",
											"name": "projectId",
											"type": "uint64"
										},
										{
											"internalType": "address payable",
											"name": "beneficiary",
											"type": "address"
										},
										{
											"internalType": "bool",
											"name": "preferAddToBalance",
											"type": "bool"
										},
										{
											"internalType": "uint48",
											"name": "lockedUntil",
											"type": "uint48"
										},
										{
											"internalType": "contract IJBSplitHook",
											"name": "hook",
											"type": "address"
										}
									],
									"internalType": "struct JBSplit[]",
									"name": "splits",
									"type": "tuple[]"
								},
								{
									"internalType": "uint112",
									"name": "initialIssuance",
									"type": "uint112"
								},
								{
									"internalType": "uint32",
									"name": "issuanceCutFrequency",
									"type": "uint32"
								},
								{
									"internalType": "uint32",
									"name": "issuanceCutPercent",
									"type": "uint32"
								},
								{
									"internalType": "uint16",
									"name": "cashOutTaxRate",
									"type": "uint16"
								},
								{
									"internalType": "uint16",
									"name": "extraMetadata",
									"type": "uint16"
								}
							],
							"internalType": "struct REVStageConfig[]",
							"name": "stageConfigurations",
							"type": "tuple[]"
						},
						{
							"components": [
								{
									"internalType": "address",
									"name": "token",
									"type": "address"
								},
								{
									"internalType": "contract IJBPayoutTerminal",
									"name": "terminal",
									"type": "address"
								}
							],
							"internalType": "struct REVLoanSource[]",
							"name": "loanSources",
							"type": "tuple[]"
						},
						{
							"internalType": "address",
							"name": "loans",
							"type": "address"
						}
					],
					"indexed": false,
					"internalType": "struct REVConfig",
					"name": "configuration",
					"type": "tuple"
				},
				{
					"components": [
						{
							"internalType": "contract IJBTerminal",
							"name": "terminal",
							"type": "address"
						},
						{
							"components": [
								{
									"internalType": "address",
									"name": "token",
									"type": "address"
								},
								{
									"internalType": "uint8",
									"name": "decimals",
									"type": "uint8"
								},
								{
									"internalType": "uint32",
									"name": "currency",
									"type": "uint32"
								}
							],
							"internalType": "struct JBAccountingContext[]",
							"name": "accountingContextsToAccept",
							"type": "tuple[]"
						}
					],
					"indexed": false,
					"internalType": "struct JBTerminalConfig[]",
					"name": "terminalConfigurations",
					"type": "tuple[]"
				},
				{
					"components": [
						{
							"internalType": "contract IJBBuybackHook",
							"name": "hook",
							"type": "address"
						},
						{
							"components": [
								{
									"internalType": "address",
									"name": "token",
									"type": "address"
								},
								{
									"internalType": "uint24",
									"name": "fee",
									"type": "uint24"
								},
								{
									"internalType": "uint32",
									"name": "twapWindow",
									"type": "uint32"
								},
								{
									"internalType": "uint32",
									"name": "twapSlippageTolerance",
									"type": "uint32"
								}
							],
							"internalType": "struct REVBuybackPoolConfig[]",
							"name": "poolConfigurations",
							"type": "tuple[]"
						}
					],
					"indexed": false,
					"internalType": "struct REVBuybackHookConfig",
					"name": "buybackHookConfiguration",
					"type": "tuple"
				},
				{
					"components": [
						{
							"components": [
								{
									"internalType": "contract IJBSuckerDeployer",
									"name": "deployer",
									"type": "address"
								},
								{
									"components": [
										{
											"internalType": "address",
											"name": "localToken",
											"type": "address"
										},
										{
											"internalType": "uint32",
											"name": "minGas",
											"type": "uint32"
										},
										{
											"internalType": "address",
											"name": "remoteToken",
											"type": "address"
										},
										{
											"internalType": "uint256",
											"name": "minBridgeAmount",
											"type": "uint256"
										}
									],
									"internalType": "struct JBTokenMapping[]",
									"name": "mappings",
									"type": "tuple[]"
								}
							],
							"internalType": "struct JBSuckerDeployerConfig[]",
							"name": "deployerConfigurations",
							"type": "tuple[]"
						},
						{
							"internalType": "bytes32",
							"name": "salt",
							"type": "bytes32"
						}
					],
					"indexed": false,
					"internalType": "struct REVSuckerDeploymentConfig",
					"name": "suckerDeploymentConfiguration",
					"type": "tuple"
				},
				{
					"components": [
						{
							"internalType": "uint48",
							"name": "mustStartAtOrAfter",
							"type": "uint48"
						},
						{
							"internalType": "uint32",
							"name": "duration",
							"type": "uint32"
						},
						{
							"internalType": "uint112",
							"name": "weight",
							"type": "uint112"
						},
						{
							"internalType": "uint32",
							"name": "weightCutPercent",
							"type": "uint32"
						},
						{
							"internalType": "contract IJBRulesetApprovalHook",
							"name": "approvalHook",
							"type": "address"
						},
						{
							"components": [
								{
									"internalType": "uint16",
									"name": "reservedPercent",
									"type": "uint16"
								},
								{
									"internalType": "uint16",
									"name": "cashOutTaxRate",
									"type": "uint16"
								},
								{
									"internalType": "uint32",
									"name": "baseCurrency",
									"type": "uint32"
								},
								{
									"internalType": "bool",
									"name": "pausePay",
									"type": "bool"
								},
								{
									"internalType": "bool",
									"name": "pauseCreditTransfers",
									"type": "bool"
								},
								{
									"internalType": "bool",
									"name": "allowOwnerMinting",
									"type": "bool"
								},
								{
									"internalType": "bool",
									"name": "allowSetCustomToken",
									"type": "bool"
								},
								{
									"internalType": "bool",
									"name": "allowTerminalMigration",
									"type": "bool"
								},
								{
									"internalType": "bool",
									"name": "allowSetTerminals",
									"type": "bool"
								},
								{
									"internalType": "bool",
									"name": "allowSetController",
									"type": "bool"
								},
								{
									"internalType": "bool",
									"name": "allowAddAccountingContext",
									"type": "bool"
								},
								{
									"internalType": "bool",
									"name": "allowAddPriceFeed",
									"type": "bool"
								},
								{
									"internalType": "bool",
									"name": "ownerMustSendPayouts",
									"type": "bool"
								},
								{
									"internalType": "bool",
									"name": "holdFees",
									"type": "bool"
								},
								{
									"internalType": "bool",
									"name": "useTotalSurplusForCashOuts",
									"type": "bool"
								},
								{
									"internalType": "bool",
									"name": "useDataHookForPay",
									"type": "bool"
								},
								{
									"internalType": "bool",
									"name": "useDataHookForCashOut",
									"type": "bool"
								},
								{
									"internalType": "address",
									"name": "dataHook",
									"type": "address"
								},
								{
									"internalType": "uint16",
									"name": "metadata",
									"type": "uint16"
								}
							],
							"internalType": "struct JBRulesetMetadata",
							"name": "metadata",
							"type": "tuple"
						},
						{
							"components": [
								{
									"internalType": "uint256",
									"name": "groupId",
									"type": "uint256"
								},
								{
									"components": [
										{
											"internalType": "uint32",
											"name": "percent",
											"type": "uint32"
										},
										{
											"internalType": "uint64",
											"name": "projectId",
											"type": "uint64"
										},
										{
											"internalType": "address payable",
											"name": "beneficiary",
											"type": "address"
										},
										{
											"internalType": "bool",
											"name": "preferAddToBalance",
											"type": "bool"
										},
										{
											"internalType": "uint48",
											"name": "lockedUntil",
											"type": "uint48"
										},
										{
											"internalType": "contract IJBSplitHook",
											"name": "hook",
											"type": "address"
										}
									],
									"internalType": "struct JBSplit[]",
									"name": "splits",
									"type": "tuple[]"
								}
							],
							"internalType": "struct JBSplitGroup[]",
							"name": "splitGroups",
							"type": "tuple[]"
						},
						{
							"components": [
								{
									"internalType": "address",
									"name": "terminal",
									"type": "address"
								},
								{
									"internalType": "address",
									"name": "token",
									"type": "address"
								},
								{
									"components": [
										{
											"internalType": "uint224",
											"name": "amount",
											"type": "uint224"
										},
										{
											"internalType": "uint32",
											"name": "currency",
											"type": "uint32"
										}
									],
									"internalType": "struct JBCurrencyAmount[]",
									"name": "payoutLimits",
									"type": "tuple[]"
								},
								{
									"components": [
										{
											"internalType": "uint224",
											"name": "amount",
											"type": "uint224"
										},
										{
											"internalType": "uint32",
											"name": "currency",
											"type": "uint32"
										}
									],
									"internalType": "struct JBCurrencyAmount[]",
									"name": "surplusAllowances",
									"type": "tuple[]"
								}
							],
							"internalType": "struct JBFundAccessLimitGroup[]",
							"name": "fundAccessLimitGroups",
							"type": "tuple[]"
						}
					],
					"indexed": false,
					"internalType": "struct JBRulesetConfig[]",
					"name": "rulesetConfigurations",
					"type": "tuple[]"
				},
				{
					"indexed": false,
					"internalType": "bytes32",
					"name": "encodedConfigurationHash",
					"type": "bytes32"
				},
				{
					"indexed": false,
					"internalType": "address",
					"name": "caller",
					"type": "address"
				}
			],
			"name": "DeployRevnet",
			"type": "event"
		},
		{
			"anonymous": false,
			"inputs": [
				{
					"indexed": true,
					"internalType": "uint256",
					"name": "revnetId",
					"type": "uint256"
				},
				{
					"indexed": false,
					"internalType": "bytes32",
					"name": "encodedConfigurationHash",
					"type": "bytes32"
				},
				{
					"components": [
						{
							"components": [
								{
									"internalType": "contract IJBSuckerDeployer",
									"name": "deployer",
									"type": "address"
								},
								{
									"components": [
										{
											"internalType": "address",
											"name": "localToken",
											"type": "address"
										},
										{
											"internalType": "uint32",
											"name": "minGas",
											"type": "uint32"
										},
										{
											"internalType": "address",
											"name": "remoteToken",
											"type": "address"
										},
										{
											"internalType": "uint256",
											"name": "minBridgeAmount",
											"type": "uint256"
										}
									],
									"internalType": "struct JBTokenMapping[]",
									"name": "mappings",
									"type": "tuple[]"
								}
							],
							"internalType": "struct JBSuckerDeployerConfig[]",
							"name": "deployerConfigurations",
							"type": "tuple[]"
						},
						{
							"internalType": "bytes32",
							"name": "salt",
							"type": "bytes32"
						}
					],
					"indexed": false,
					"internalType": "struct REVSuckerDeploymentConfig",
					"name": "suckerDeploymentConfiguration",
					"type": "tuple"
				},
				{
					"indexed": false,
					"internalType": "address",
					"name": "caller",
					"type": "address"
				}
			],
			"name": "DeploySuckers",
			"type": "event"
		},
		{
			"anonymous": false,
			"inputs": [
				{
					"indexed": true,
					"internalType": "uint256",
					"name": "revnetId",
					"type": "uint256"
				},
				{
					"indexed": true,
					"internalType": "address",
					"name": "newSplitOperator",
					"type": "address"
				},
				{
					"indexed": false,
					"internalType": "address",
					"name": "caller",
					"type": "address"
				}
			],
			"name": "ReplaceSplitOperator",
			"type": "event"
		},
		{
			"anonymous": false,
			"inputs": [
				{
					"indexed": false,
					"internalType": "uint256",
					"name": "revnetId",
					"type": "uint256"
				},
				{
					"indexed": false,
					"internalType": "address",
					"name": "additionalOperator",
					"type": "address"
				},
				{
					"indexed": false,
					"internalType": "uint256[]",
					"name": "permissionIds",
					"type": "uint256[]"
				},
				{
					"indexed": false,
					"internalType": "address",
					"name": "caller",
					"type": "address"
				}
			],
			"name": "SetAdditionalOperator",
			"type": "event"
		},
		{
			"anonymous": false,
			"inputs": [
				{
					"indexed": true,
					"internalType": "uint256",
					"name": "revnetId",
					"type": "uint256"
				},
				{
					"indexed": false,
					"internalType": "uint256",
					"name": "cashOutDelay",
					"type": "uint256"
				},
				{
					"indexed": false,
					"internalType": "address",
					"name": "caller",
					"type": "address"
				}
			],
			"name": "SetCashOutDelay",
			"type": "event"
		},
		{
			"anonymous": false,
			"inputs": [
				{
					"indexed": true,
					"internalType": "uint256",
					"name": "revnetId",
					"type": "uint256"
				},
				{
					"indexed": true,
					"internalType": "uint256",
					"name": "stageId",
					"type": "uint256"
				},
				{
					"indexed": true,
					"internalType": "address",
					"name": "beneficiary",
					"type": "address"
				},
				{
					"indexed": false,
					"internalType": "uint256",
					"name": "count",
					"type": "uint256"
				},
				{
					"indexed": false,
					"internalType": "address",
					"name": "caller",
					"type": "address"
				}
			],
			"name": "StoreAutoIssuanceAmount",
			"type": "event"
		},
		{
			"inputs": [
				{
					"internalType": "uint256",
					"name": "x",
					"type": "uint256"
				},
				{
					"internalType": "uint256",
					"name": "y",
					"type": "uint256"
				},
				{
					"internalType": "uint256",
					"name": "denominator",
					"type": "uint256"
				}
			],
			"name": "PRBMath_MulDiv_Overflow",
			"type": "error"
		},
		{
			"inputs": [],
			"name": "REVDeployer_AutoIssuanceBeneficiaryZeroAddress",
			"type": "error"
		},
		{
			"inputs": [
				{
					"internalType": "uint256",
					"name": "cashOutDelay",
					"type": "uint256"
				},
				{
					"internalType": "uint256",
					"name": "blockTimestamp",
					"type": "uint256"
				}
			],
			"name": "REVDeployer_CashOutDelayNotFinished",
			"type": "error"
		},
		{
			"inputs": [
				{
					"internalType": "uint256",
					"name": "cashOutTaxRate",
					"type": "uint256"
				},
				{
					"internalType": "uint256",
					"name": "maxCashOutTaxRate",
					"type": "uint256"
				}
			],
			"name": "REVDeployer_CashOutsCantBeTurnedOffCompletely",
			"type": "error"
		},
		{
			"inputs": [
				{
					"internalType": "address",
					"name": "token",
					"type": "address"
				},
				{
					"internalType": "address",
					"name": "terminal",
					"type": "address"
				}
			],
			"name": "REVDeployer_LoanSourceDoesntMatchTerminalConfigurations",
			"type": "error"
		},
		{
			"inputs": [],
			"name": "REVDeployer_MustHaveSplits",
			"type": "error"
		},
		{
			"inputs": [],
			"name": "REVDeployer_NothingToAutoIssue",
			"type": "error"
		},
		{
			"inputs": [],
			"name": "REVDeployer_RulesetDoesNotAllowDeployingSuckers",
			"type": "error"
		},
		{
			"inputs": [
				{
					"internalType": "uint256",
					"name": "stageId",
					"type": "uint256"
				}
			],
			"name": "REVDeployer_StageNotStarted",
			"type": "error"
		},
		{
			"inputs": [],
			"name": "REVDeployer_StageTimesMustIncrease",
			"type": "error"
		},
		{
			"inputs": [],
			"name": "REVDeployer_StagesRequired",
			"type": "error"
		},
		{
			"inputs": [
				{
					"internalType": "uint256",
					"name": "revnetId",
					"type": "uint256"
				},
				{
					"internalType": "address",
					"name": "caller",
					"type": "address"
				}
			],
			"name": "REVDeployer_Unauthorized",
			"type": "error"
		},
		{
			"inputs": [
				{
					"internalType": "address",
					"name": "spender",
					"type": "address"
				},
				{
					"internalType": "uint256",
					"name": "currentAllowance",
					"type": "uint256"
				},
				{
					"internalType": "uint256",
					"name": "requestedDecrease",
					"type": "uint256"
				}
			],
			"name": "SafeERC20FailedDecreaseAllowance",
			"type": "error"
		},
		{
			"inputs": [
				{
					"internalType": "address",
					"name": "token",
					"type": "address"
				}
			],
			"name": "SafeERC20FailedOperation",
			"type": "error"
		}
	],
	"args": [],
	"solcInputHash": "3009b587d2d071c445a7d47d0a1e4ee4",
	"bytecode": "0x6101a060405234801562000011575f80fd5b5060405162006546380380620065468339810160408190526200003491620002ec565b6001600160a01b03808216608052861660a0819052604080516388bc2ef360e01b815290516388bc2ef3916004808201926020929091908290030181865afa15801562000083573d5f803e3d5ffd5b505050506040513d601f19601f82011682018060405250810190620000a9919062000370565b6001600160a01b031660c0816001600160a01b031681525050856001600160a01b031663293c49996040518163ffffffff1660e01b8152600401602060405180830381865afa158015620000ff573d5f803e3d5ffd5b505050506040513d601f19601f8201168201806040525081019062000125919062000370565b6001600160a01b0316610140816001600160a01b03168152505060a0516001600160a01b031663f434c9146040518163ffffffff1660e01b8152600401602060405180830381865afa1580156200017e573d5f803e3d5ffd5b505050506040513d601f19601f82011682018060405250810190620001a4919062000370565b6001600160a01b039081166101205285811661018081905260e08690528482166101005290831661016052620001dd905f601c620001e9565b50505050505062000434565b6040805160018082528183019092525f916020808301908036833701905050905081815f8151811062000220576200022062000395565b60ff90921660209283029190910190910152620002403085858462000246565b50505050565b604080516060810182526001600160a01b0380861682526001600160401b0385166020830152818301849052610120519251631127c92960e21b81529192169063449f24a4906200029e9088908590600401620003a9565b5f604051808303815f87803b158015620002b6575f80fd5b505af1158015620002c9573d5f803e3d5ffd5b505050505050505050565b6001600160a01b0381168114620002e9575f80fd5b50565b5f805f805f8060c0878903121562000302575f80fd5b86516200030f81620002d4565b60208801519096506200032281620002d4565b6040880151606089015191965094506200033c81620002d4565b60808801519093506200034f81620002d4565b60a08801519092506200036281620002d4565b809150509295509295509295565b5f6020828403121562000381575f80fd5b81516200038e81620002d4565b9392505050565b634e487b7160e01b5f52603260045260245ffd5b6001600160a01b03838116825260406020808401829052845190921681840152838201516001600160401b0316606080850191909152908401516080840191909152805160a084018190525f929182019190839060c08601905b808310156200042857845160ff16825293830193600192909201919083019062000403565b50979650505050505050565b60805160a05160c05160e0516101005161012051610140516101605161018051615ffd620005495f395f818161056e0152818161250b015261258301525f818161068401528181612b7f0152612be601525f81816102a70152818161084201528181610888015281816111f301528181611e970152611f8a01525f81816106ea015281816112a401526116dc01525f818161053b01526127e401525f818161026601528181610fc00152818161115001526113e801525f81816104a701526113c101525f81816106b701528181610bbd01528181610c8701528181610eaa01528181611dcb01528181611ff60152818161207e015261214b01525f81816103b60152818161047201526115fa0152615ffd5ff3fe6080604052600436106101c4575f3560e01c80638cc35846116100f2578063c22903b211610092578063dbfbe5da11610062578063dbfbe5da14610673578063ee0fc121146106a6578063f434c914146106d9578063fb82b1b01461070c575f80fd5b8063c22903b2146105f1578063c57981b514610604578063d65a55ce14610618578063db29c89214610654575f80fd5b8063b5d25533116100cd578063b5d255331461055d578063b78edb6614610590578063b8a843d7146105bc578063b987005d146105d2575f80fd5b80638cc35846146104c9578063902b742e146104f6578063abf8c5c81461052a575f80fd5b80634d1dc3cc1161016857806367d39de21161013857806367d39de2146104055780637249a773146104305780637da0a8771461046457806388bc2ef314610496575f80fd5b80634d1dc3cc146103505780634fa9af691461036f578063572b6c051461039a578063677ce088146103e6575f80fd5b80631680e172116101a35780631680e17214610255578063293c4999146102965780633b7ae807146102e1578063437e610714610315575f80fd5b806244a005146101c857806301ffc9a7146101e9578063150b7a021461021d575b5f80fd5b3480156101d3575f80fd5b506101e76101e236600461387a565b61073b565b005b3480156101f4575f80fd5b506102086102033660046138a8565b6107ca565b60405190151581526020015b60405180910390f35b348015610228575f80fd5b5061023c6102373660046138cf565b610836565b6040516001600160e01b03199091168152602001610214565b348015610260575f80fd5b506102887f000000000000000000000000000000000000000000000000000000000000000081565b604051908152602001610214565b3480156102a1575f80fd5b506102c97f000000000000000000000000000000000000000000000000000000000000000081565b6040516001600160a01b039091168152602001610214565b3480156102ec575f80fd5b506102c96102fb366004613965565b60046020525f90815260409020546001600160a01b031681565b348015610320575f80fd5b5061028861032f36600461397c565b5f602081815293815260408082208552928152828120909352825290205481565b34801561035b575f80fd5b5061028861036a366004613a1f565b61087d565b34801561037a575f80fd5b50610288610389366004613965565b60026020525f908152604090205481565b3480156103a5575f80fd5b506102086103b4366004613ad1565b7f00000000000000000000000000000000000000000000000000000000000000006001600160a01b0390811691161490565b3480156103f1575f80fd5b5061020861040036600461387a565b610945565b348015610410575f80fd5b5061028861041f366004613965565b60036020525f908152604090205481565b34801561043b575f80fd5b506102c961044a366004613965565b60016020525f90815260409020546001600160a01b031681565b34801561046f575f80fd5b507f00000000000000000000000000000000000000000000000000000000000000006102c9565b3480156104a1575f80fd5b506102c97f000000000000000000000000000000000000000000000000000000000000000081565b3480156104d4575f80fd5b506104e86104e3366004613aec565b61099b565b604051610214929190613b70565b348015610501575f80fd5b506102c9610510366004613965565b60056020525f90815260409020546001600160a01b031681565b348015610535575f80fd5b506102c97f000000000000000000000000000000000000000000000000000000000000000081565b348015610568575f80fd5b506102c97f000000000000000000000000000000000000000000000000000000000000000081565b34801561059b575f80fd5b506105af6105aa366004613bff565b610b97565b6040516102149190613c42565b3480156105c7575f80fd5b5061028862278d0081565b3480156105dd575f80fd5b506101e76105ec36600461397c565b610c84565b6101e76105ff366004613c8e565b610f1b565b34801561060f575f80fd5b50610288601981565b348015610623575f80fd5b50610637610632366004613cc5565b6111e7565b604080519283526001600160a01b03909116602083015201610214565b34801561065f575f80fd5b5061020861066e36600461387a565b6112a1565b34801561067e575f80fd5b506102c97f000000000000000000000000000000000000000000000000000000000000000081565b3480156106b1575f80fd5b506102c97f000000000000000000000000000000000000000000000000000000000000000081565b3480156106e4575f80fd5b506102c97f000000000000000000000000000000000000000000000000000000000000000081565b348015610717575f80fd5b5061072b610726366004613dc6565b61133f565b6040516102149493929190613dfd565b61074c826107476115f4565b611667565b806001600160a01b0316827f0329d6a81434b130c72eb65eea0e32e429dc1277b4aad86ec86454aefb6184516107806115f4565b6040516001600160a01b03909116815260200160405180910390a36107bc306107a76115f4565b604080515f81526020810190915285906116a0565b6107c6828261172a565b5050565b5f6001600160e01b031982166374823a0b60e11b14806107fa57506001600160e01b0319821663081e84bf60e11b145b8061081557506001600160e01b0319821663611481d960e11b145b8061083057506001600160e01b03198216630a85bd0160e11b145b92915050565b5f336001600160a01b037f0000000000000000000000000000000000000000000000000000000000000000161461086b575f80fd5b50630a85bd0160e11b95945050505050565b5f86158015610914577f00000000000000000000000000000000000000000000000000000000000000006001600160a01b03166306661abd6040518163ffffffff1660e01b8152600401602060405180830381865afa1580156108e2573d5f803e3d5ffd5b505050506040513d601f19601f820116820180604052508101906109069190613eaf565b610911906001613eda565b97505b5f806109228a8a8a8a6117da565b915091506109378a848b8b8b8b8b8989611dba565b509798975050505050505050565b5f828152600160205260408120546001600160a01b038381169116148061098457505f838152600460205260409020546001600160a01b038381169116145b80610994575061099483836124e3565b9392505050565b60c08101355f9081526001602052604081205460609081906001600160a01b03168015610a3957604051634661ac2360e11b81526001600160a01b03821690638cc35846906109ee908890600401613fd0565b5f60405180830381865afa158015610a08573d5f803e3d5ffd5b505050506040513d5f823e601f3d908101601f19168201604052610a2f9190810190614157565b9094509150610a42565b84610120013593505b815160c08601355f908152600560205260409020546001909114906001600160a01b031680151582610a74575f610a77565b60015b81610a82575f610a85565b60015b610a8f91906142b1565b60ff166001600160401b03811115610aa957610aa9613e9b565b604051908082528060200260200182016040528015610af557816020015b60408051606080820183525f808352602083015291810191909152815260200190600190039081610ac75790505b5095508015610b4e576040518060600160405280836001600160a01b031681526020015f815260200160405180602001604052805f815250815250865f81518110610b4257610b426142ca565b60200260200101819052505b8215610b8d57845f81518110610b6657610b666142ca565b602002602001015186600181518110610b8157610b816142ca565b60200260200101819052505b5050505050915091565b6060610ba5836107476115f4565b6040516320c94b1360e11b8152600481018490525f907f00000000000000000000000000000000000000000000000000000000000000006001600160a01b03169063419296269060240161038060405180830381865afa158015610c0b573d5f803e3d5ffd5b505050506040513d601f19601f82011682018060405250810190610c2f9190614412565b61024081015190925060021c600190811614905080610c6157604051631abe0dd960e21b815260040160405180910390fd5b5f85815260036020526040902054610c7b9086908661253c565b95945050505050565b427f00000000000000000000000000000000000000000000000000000000000000006001600160a01b031663d4a1b4b16040518163ffffffff1660e01b8152600401602060405180830381865afa158015610ce1573d5f803e3d5ffd5b505050506040513d601f19601f82011682018060405250810190610d0591906145b6565b604051630969875760e21b815260048101869052602481018590526001600160a01b0391909116906325a61d5c9060440161012060405180830381865afa158015610d52573d5f803e3d5ffd5b505050506040513d601f19601f82011682018060405250810190610d7691906145d1565b6060015165ffffffffffff161115610da9576040516374e6881560e11b8152600481018390526024015b60405180910390fd5b5f8381526020818152604080832085845282528083206001600160a01b038516845290915281205490819003610df25760405163357db1e760e21b815260040160405180910390fd5b5f8481526020818152604080832086845282528083206001600160a01b038616808552925282209190915583857f0ad8046f3d571312df6d1867ac30c26e100f5684a9d7c2d3340c4e2a5b56360f84610e496115f4565b604080519283526001600160a01b0390911660208301520160405180910390a46040516363fdc96f60e11b815260048101859052602481018290526001600160a01b03838116604483015260a060648301525f60a4830181905260848301527f0000000000000000000000000000000000000000000000000000000000000000169063c7fb92de9060c4016020604051808303815f875af1158015610ef0573d5f803e3d5ffd5b505050506040513d601f19601f82011682018060405250810190610f149190613eaf565b5050505050565b61eeee610f3061012083016101008401613ad1565b6001600160a01b031614610f6c57610f6c3330610160840135610f5b61012086016101008701613ad1565b6001600160a01b031692919061266d565b5f610f7b6101c08301836145ec565b810190610f889190613ad1565b90505f610fac82610fa161012086016101008701613ad1565b6101608601356126d4565b90506001600160a01b03821663fef43257827f0000000000000000000000000000000000000000000000000000000000000000610ff161012088016101008901613ad1565b61016088013561100460208a018a613ad1565b5f8a6020013560405160200161101c91815260200190565b6040516020818303038152906040526040518863ffffffff1660e01b815260040161104c9695949392919061462e565b60206040518083038185885af193505050508015611087575060408051601f3d908101601f1916820190925261108491810190613eaf565b60015b6111e1573d8080156110b4576040519150601f19603f3d011682016040523d82523d5f602084013e6110b9565b606091505b5061eeee6110cf61012086016101008701613ad1565b6001600160a01b03161461110957611109836101608601356110f961012088016101008901613ad1565b6001600160a01b0316919061270c565b61112a3361111f61012087016101008801613ad1565b6101608701356126d4565b915033639e6eec0583602087013561114a61012089016101008a01613ad1565b604080517f000000000000000000000000000000000000000000000000000000000000000060208201526101608b0135915f91016040516020818303038152906040526040518763ffffffff1660e01b81526004016111ad959493929190614686565b5f604051808303818588803b1580156111c4575f80fd5b505af11580156111d6573d5f803e3d5ffd5b505050505050505050565b50505050565b5f808a15801561127f577f00000000000000000000000000000000000000000000000000000000000000006001600160a01b03166306661abd6040518163ffffffff1660e01b8152600401602060405180830381865afa15801561124d573d5f803e3d5ffd5b505050506040513d601f19601f820116820180604052508101906112719190613eaf565b61127c906001613eda565b9b505b6112918c828d8d8d8d8d8d8d8d6127c6565b9b9c9a5050505050505050505050565b5f7f00000000000000000000000000000000000000000000000000000000000000006001600160a01b031663632af95f8330866112dd88612c30565b5f806040518763ffffffff1660e01b8152600401611300969594939291906146d3565b602060405180830381865afa15801561131b573d5f803e3d5ffd5b505050506040513d601f19601f82011682018060405250810190610994919061474c565b5f808060606113606040860180359061135b9060208901613ad1565b6124e3565b1561137b575f85608001358660a001359350935093506115ed565b6040808601355f90815260026020522054428111156113b65760405163e4a9c90760e01b815260048101829052426024820152604401610da0565b5f6001600160a01b037f00000000000000000000000000000000000000000000000000000000000000001663862026507f000000000000000000000000000000000000000000000000000000000000000061141760e08b0160c08c01613ad1565b6040516001600160e01b031960e085901b16815260048101929092526001600160a01b03166024820152604401602060405180830381865afa15801561145f573d5f803e3d5ffd5b505050506040513d601f19601f8201168201806040525081019061148391906145b6565b9050610160870135158061149e57506001600160a01b038116155b156114c05786610160013587608001358860a0013595509550955050506115ed565b5f6114d3608089013560196103e8612dea565b90505f6114e48260808b0135614767565b90505f6115016101208b01358360a08d01356101608e0135612eb9565b90505f611532611516836101208e0135614767565b85858e60a001356115279190614767565b8e6101600135612eb9565b604080516001808252818301909252919250816020015b60408051606080820183525f80835260208301529181019190915281526020019060019003908161154957505060408051606081018252308152602080820185905282516001600160a01b038a1691810191909152929950918282019101604051602081830303815290604052815250875f815181106115cb576115cb6142ca565b6020908102919091010152505061016089013597509550505060a08601359250505b9193509193565b5f3660147f00000000000000000000000000000000000000000000000000000000000000006001600160a01b0316331480156116305750808210155b1561165f575f366116418385614767565b61164c92829061477a565b611655916147a1565b60601c9250505090565b339250505090565b61167182826112a1565b6107c6576040516355e03cb160e11b8152600481018390526001600160a01b0382166024820152604401610da0565b604080516060810182526001600160a01b0380861682526001600160401b03851660208301528183018490529151631127c92960e21b815290917f0000000000000000000000000000000000000000000000000000000000000000169063449f24a49061171390889085906004016147d6565b5f604051808303815f87803b1580156111c4575f80fd5b5f61173483612c30565b90505f81516001600160401b0381111561175057611750613e9b565b604051908082528060200260200182016040528015611779578160200160208202803683370190505b5090505f5b82518110156117cd57828181518110611799576117996142ca565b60200260200101518282815181106117b3576117b36142ca565b60ff9092166020928302919091019091015260010161177e565b506111e1308486846116a0565b60605f6117e985830186614860565b90505f0361180a5760405163050751e560e21b815260040160405180910390fd5b6118176060860186614860565b90506001600160401b0381111561183057611830613e9b565b60405190808252806020026020018201604052801561186957816020015b61185661376d565b81526020019060019003908161184e5790505b5091505f61187d60408701602088016148a5565b61188d60c0880160a08901613ad1565b61189788806148c0565b6118a190806145ec565b6118ab8a806148c0565b6118b99060208101906145ec565b6118c38c806148c0565b606001356040516020016118dd97969594939291906148de565b60405160208183030381529060405290505f6118fa878787612f2c565b90505f5b61190b6060890189614860565b9050811015611da4573661192260608a018a614860565b83818110611932576119326142ca565b90506020028101906119449190614934565b90505f6119576060830160408401614954565b61ffff161180156119745750611970606082018261496f565b1590505b15611992576040516340fb407760e01b815260040160405180910390fd5b5f82118015611a0357506119a960608a018a614860565b6119b4600185614767565b8181106119c3576119c36142ca565b90506020028101906119d59190614934565b6119e39060208101906149be565b65ffffffffffff166119f860208301836149be565b65ffffffffffff1611155b15611a215760405163b787fe6760e01b815260040160405180910390fd5b612710611a35610100830160e08401614954565b61ffff1610611a7757611a4f610100820160e08301614954565b6040516380922c6d60e01b815261ffff90911660048201526127106024820152604401610da0565b611a91611a8a60408b0160208c016148a5565b8285613193565b868381518110611aa357611aa36142ca565b602002602001018190525083825f148015611ad05750611ac660208301836149be565b65ffffffffffff16155b611aee57611ae160208301836149be565b65ffffffffffff16611af0565b425b611b006060840160408501614954565b611b1060a08501608086016149e4565b611b2060c0860160a087016148a5565b611b3060e0870160c088016148a5565b611b41610100880160e08901614954565b604051602001611b5797969594939291906149ff565b60405160208183030381529060405293505f5b611b776020830183614a58565b9050811015611d9a5736611b8e6020840184614a58565b83818110611b9e57611b9e6142ca565b90506060020190505f6001600160a01b0316816040016020810190611bc39190613ad1565b6001600160a01b031603611bea5760405163b79e8c7d60e01b815260040160405180910390fd5b611bfa6040820160208301614ab2565b6001600160681b03165f03611c0f5750611d92565b85611c1d60208301836148a5565b611c2d6060840160408501613ad1565b611c3d6040850160208601614ab2565b604051602001611c509493929190614acb565b60408051601f19818403018152919052955046611c7060208301836148a5565b63ffffffff1614611c815750611d92565b611c916060820160408301613ad1565b6001600160a01b0316611ca48542613eda565b8d7f5c05d79eeb764b1f5069fb55a8558e8a5cec91813a64282bc198dc9084c75df0611cd66040860160208701614ab2565b611cde6115f4565b604080516001600160681b0390931683526001600160a01b0390911660208301520160405180910390a4611d186040820160208301614ab2565b5f8d81526020819052604081206001600160681b03929092169190611d3d8742613eda565b81526020019081526020015f205f836040016020810190611d5e9190613ad1565b6001600160a01b03166001600160a01b031681526020019081526020015f205f828254611d8b9190613eda565b9091555050505b600101611b6a565b50506001016118fe565b5081805190602001209250505094509492505050565b8715611e7f57886001600160a01b037f000000000000000000000000000000000000000000000000000000000000000016635c7465e530611dfb8b806148c0565b611e099060408101906145ec565b878c8c6040518763ffffffff1660e01b8152600401611e2d96959493929190615030565b6020604051808303815f875af1158015611e49573d5f803e3d5ffd5b505050506040513d601f19601f82011682018060405250810190611e6d9190613eaf565b14611e7a57611e7a615097565b612109565b6040516331a9108f60e11b8152600481018a90525f907f00000000000000000000000000000000000000000000000000000000000000006001600160a01b031690636352211e90602401602060405180830381865afa158015611ee4573d5f803e3d5ffd5b505050506040513d601f19601f82011682018060405250810190611f0891906145b6565b9050806001600160a01b0316611f1c6115f4565b6001600160a01b031614611f5e5789611f336115f4565b6040516355e03cb160e11b815260048101929092526001600160a01b03166024820152604401610da0565b604051632142170760e11b81526001600160a01b038281166004830152306024830152604482018c90527f000000000000000000000000000000000000000000000000000000000000000016906342842e0e906064015f604051808303815f87803b158015611fcb575f80fd5b505af1158015611fdd573d5f803e3d5ffd5b50506040516339284f3560e01b81526001600160a01b037f00000000000000000000000000000000000000000000000000000000000000001692506339284f359150612033908d9087908c908c906004016150ab565b6020604051808303815f875af115801561204f573d5f803e3d5ffd5b505050506040513d601f19601f820116820180604052508101906120739190613eaf565b506001600160a01b037f00000000000000000000000000000000000000000000000000000000000000001663702a39778b6120ae8b806148c0565b6120bc9060408101906145ec565b6040518463ffffffff1660e01b81526004016120da939291906150f2565b5f604051808303815f87803b1580156120f1575f80fd5b505af1158015612103573d5f803e3d5ffd5b50505050505b6121418961211a60608a018a614860565b5f81811061212a5761212a6142ca565b905060200281019061213c9190614934565b613398565b6001600160a01b037f00000000000000000000000000000000000000000000000000000000000000001663581781918a61217b8a806148c0565b61218590806145ec565b61218f8c806148c0565b61219d9060208101906145ec565b6121a78e806148c0565b60600135886121b46115f4565b6040805160208101949094528301919091526001600160a01b03166060820152608001604051602081830303815290604052805190602001206040518763ffffffff1660e01b815260040161220e9695949392919061510b565b6020604051808303815f875af115801561222a573d5f803e3d5ffd5b505050506040513d601f19601f8201168201806040525081019061224e91906145b6565b505f61225d6020860186613ad1565b6001600160a01b0316146123d5576122786020850185613ad1565b5f8a815260016020526040812080546001600160a01b0319166001600160a01b0393909316929092179091555b6122b2602086018661514b565b90508110156123d357366122c9602087018761514b565b838181106122d9576122d96142ca565b6080029190910191506122f190506020870187613ad1565b6001600160a01b0316637b621d3a8c61231060408501602086016151a2565b61232060608601604087016148a5565b61233060808701606088016148a5565b61233d6020880188613ad1565b6040516001600160e01b031960e088901b168152600481019590955262ffffff909316602485015263ffffffff91821660448501521660648301526001600160a01b0316608482015260a4016020604051808303815f875af11580156123a5573d5f803e3d5ffd5b505050506040513d601f19601f820116820180604052508101906123c991906145b6565b50506001016122a5565b505b5f6123e660c0890160a08a01613ad1565b6001600160a01b03161461244b5761240f61240760c0890160a08a01613ad1565b8a6010613446565b61241f60c0880160a08901613ad1565b5f8a815260046020526040902080546001600160a01b0319166001600160a01b03929092169190911790555b6124648961245f60608a0160408b01613ad1565b61172a565b60208301351561247b5761247989828561253c565b505b5f898152600360205260409020819055887f50cb038d2850ab4d96526ba72c40c7ab67dfeaadd1afcd7562788b243cbccd61888888888888886124bc6115f4565b6040516124d098979695949392919061578b565b60405180910390a2505050505050505050565b6040516383db9d0160e01b8152600481018390526001600160a01b0382811660248301525f917f0000000000000000000000000000000000000000000000000000000000000000909116906383db9d0190604401611300565b6060837fd1ae357f26434a99ce1f9e98bc6f3b593847697f1a14b95622dd27cd9bffb140848461256a6115f4565b6040516125799392919061593c565b60405180910390a27f00000000000000000000000000000000000000000000000000000000000000006001600160a01b0316632f3f50e0858585602001356125bf6115f4565b6040805160208101949094528301919091526001600160a01b0316606082015260800160408051601f1981840301815291905280516020909101206126048680614860565b6040518563ffffffff1660e01b8152600401612623949392919061596d565b5f604051808303815f875af115801561263e573d5f803e3d5ffd5b505050506040513d5f823e601f3d908101601f19168201604052612665919081019061598c565b949350505050565b6040516001600160a01b0384811660248301528381166044830152606482018390526111e19186918216906323b872dd906084015b604051602081830303815290604052915060e01b6020820180516001600160e01b03838183161783525050505061349a565b5f61eeed196001600160a01b038416016126ef575080610994565b6127036001600160a01b0384168584613506565b505f9392505050565b604051636eb1769f60e11b81523060048201526001600160a01b0383811660248301525f919085169063dd62ed3e90604401602060405180830381865afa158015612759573d5f803e3d5ffd5b505050506040513d601f19601f8201168201806040525081019061277d9190613eaf565b9050818110156127b95760405163e570110f60e01b81526001600160a01b03841660048201526024810182905260448101839052606401610da0565b6111e18484848403613588565b5f805f6127d58d8c8c8c6117da565b90925090506001600160a01b037f00000000000000000000000000000000000000000000000000000000000000001663ea74b8af8e6128148980615a15565b8960200135856128226115f4565b6040805160208101949094528301919091526001600160a01b03166060820152608001604051602081830303815290604052805190602001206040518463ffffffff1660e01b815260040161287993929190615c60565b6020604051808303815f875af1158015612895573d5f803e3d5ffd5b505050506040513d601f19601f820116820180604052508101906128b991906145b6565b5f8e8152600560205260409081902080546001600160a01b0319166001600160a01b0384161790559093506128f49060608801908801615d89565b1561291b575f8d815260066020908152604082208054600181018255908352912060149101555b61292b6080870160608801615d89565b15612952575f8d815260066020908152604082208054600181018255908352912060159101555b61296260a0870160808801615d89565b15612989575f8d815260066020908152604082208054600181018255908352912060169101555b61299960c0870160a08801615d89565b156129c0575f8d815260066020908152604082208054600181018255908352912060179101555b8315612c0f575f846001600160401b038111156129df576129df613e9b565b604051908082528060200260200182016040528015612a3f57816020015b6040805160c0810182525f80825260208083018290529282018190526060808301829052608083019190915260a082015282525f199092019101816129fd5790505b5090505f5b85811015612b675736878783818110612a5f57612a5f6142ca565b9050602002810190612a719190615da4565b90506040518060c00160405280876001600160a01b03168152602001825f016020810190612a9f91906151a2565b62ffffff168152602001826020016020810190612abc9190614ab2565b6001600160681b03168152602001612ada60608401604085016148a5565b63ffffffff168152602001612af560808401606085016148a5565b63ffffffff168152602001612b0d6080840184614860565b808060200260200160405190810160405280939291908181526020018383602002808284375f9201919091525050509152508351849084908110612b5357612b536142ca565b602090810291909101015250600101612a44565b50604051631107934d60e21b81526001600160a01b037f0000000000000000000000000000000000000000000000000000000000000000169063441e4d3490612bb4908490600401615df0565b5f604051808303815f87803b158015612bcb575f80fd5b505af1158015612bdd573d5f803e3d5ffd5b50505050612c0d7f00000000000000000000000000000000000000000000000000000000000000008f6014613446565b505b612c208d8d8d8d8d8d8d8989611dba565b50509a9950505050505050505050565b5f818152600660209081526040808320805482518185028101850190935280835260609493830182828015612c8257602002820191905f5260205f20905b815481526020019060010190808311612c6e575b5050505050905080516005612c979190613eda565b6001600160401b03811115612cae57612cae613e9b565b604051908082528060200260200182016040528015612cd7578160200160208202803683370190505b509150601160ff16825f81518110612cf157612cf16142ca565b602002602001018181525050601960ff1682600181518110612d1557612d156142ca565b602002602001018181525050600660ff1682600281518110612d3957612d396142ca565b602002602001018181525050601260ff1682600381518110612d5d57612d5d6142ca565b602002602001018181525050601e60ff1682600481518110612d8157612d816142ca565b6020026020010181815250505f5b8151811015612de357818181518110612daa57612daa6142ca565b602002602001015183826005612dc09190613eda565b81518110612dd057612dd06142ca565b6020908102919091010152600101612d8f565b5050919050565b5f80805f19858709858702925082811083820303915050805f03612e2157838281612e1757612e17615eb4565b0492505050610994565b838110612e5257604051630c740aef60e31b8152600481018790526024810186905260448101859052606401610da0565b5f8486880960026001871981018816978890046003810283188082028403028082028403028082028403028082028403028082028403029081029092039091025f889003889004909101858311909403939093029303949094049190911702949350505050565b5f61270f198201612ecb57505f612665565b828410612ed9575083612665565b5f612ee5868686612dea565b9050825f03612ef5579050612665565b612f2281612f04858888612dea565b612f1086612710614767565b612f1a9190613eda565b612710612dea565b9695505050505050565b6060612f3b6080850185615ec8565b90506001600160401b03811115612f5457612f54613e9b565b604051908082528060200260200182016040528015612fa757816020015b604080516080810182525f8082526020820152606091810182905281810191909152815260200190600190039081612f725790505b5090505f5b612fb96080860186615ec8565b905081101561318b5736612fd06080870187615ec8565b83818110612fe057612fe06142ca565b90506040020190505f612ff4868684613617565b90508063ffffffff165f0361304c576130106020830183613ad1565b6130206040840160208501613ad1565b604051631ab3aa5760e01b81526001600160a01b03928316600482015291166024820152604401610da0565b6040805160018082528183019092525f91816020015b604080518082019091525f808252602082015281526020019060019003908161306257905050905060405180604001604052806001600160e01b03801681526020018363ffffffff16815250815f815181106130c0576130c06142ca565b602002602001018190525060405180608001604052808460200160208101906130e99190613ad1565b6001600160a01b0316815260209081019061310690860186613ad1565b6001600160a01b031681526020015f60405190808252806020026020018201604052801561315957816020015b604080518082019091525f80825260208201528152602001906001900390816131335790505b50815260200182815250858581518110613175576131756142ca565b6020908102919091010152505050600101612fac565b509392505050565b61319b61376d565b6131a36137b8565b6131b36060850160408601614954565b61ffff1681526131ca610100850160e08601614954565b61ffff16602082015263ffffffff8516604082015260016101c0820181905260a082018190526101e082018190526102008201523061022082015261321761012085016101008601614954565b61ffff166102408201526040805160018082528183019092525f91816020015b604080518082019091525f81526060602082015281526020019060019003908161323757505060408051808201909152600181529091506020810161327f606088018861496f565b808060200260200160405190810160405280939291908181526020015f905b828210156132ca576132bb60c08302860136819003810190615f0d565b8152602001906001019061329e565b5050505050815250815f815181106132e4576132e46142ca565b6020026020010181905250604051806101000160405280865f01602081019061330d91906149be565b65ffffffffffff16815260200161332a60c0880160a089016148a5565b63ffffffff16815260200161334560a08801608089016149e4565b6001600160701b0316815260200161336360e0880160c089016148a5565b63ffffffff1681526020015f6001600160a01b0316815260200183815260200182815260200185815250925050509392505050565b6133a560208201826149be565b65ffffffffffff1615806133cd5750426133c260208301836149be565b65ffffffffffff1610155b156133d6575050565b5f6133e462278d0042613eda565b5f8481526002602052604090208190559050827f48a9634f50564cfe6648ff5e75795a36873bf96c408523d50017032657e67198826134216115f4565b604080519283526001600160a01b0390911660208301520160405180910390a2505050565b6040805160018082528183019092525f916020808301908036833701905050905081815f8151811061347a5761347a6142ca565b602002602001019060ff16908160ff16815250506111e1308585846116a0565b5f8060205f8451602086015f885af1806134b9576040513d5f823e3d81fd5b50505f513d915081156134d05780600114156134dd565b6001600160a01b0384163b155b156111e157604051635274afe760e01b81526001600160a01b0385166004820152602401610da0565b604051636eb1769f60e11b81523060048201526001600160a01b0383811660248301525f919085169063dd62ed3e90604401602060405180830381865afa158015613553573d5f803e3d5ffd5b505050506040513d601f19601f820116820180604052508101906135779190613eaf565b90506111e184846135888585613eda565b604080516001600160a01b038416602482015260448082018490528251808303909101815260649091019091526020810180516001600160e01b031663095ea7b360e01b1790526135d98482613728565b6111e1576040516001600160a01b0384811660248301525f604483015261360d91869182169063095ea7b3906064016126a2565b6111e1848261349a565b5f805b8381101561371e5736858583818110613635576136356142ca565b90506020028101906136479190615fb3565b90506136596040850160208601613ad1565b6001600160a01b031661366f6020830183613ad1565b6001600160a01b031603613715575f5b61368c6020830183614a58565b905081101561371357366136a36020840184614a58565b838181106136b3576136b36142ca565b6060029190910191506136cb90506020870187613ad1565b6001600160a01b03166136e16020830183613ad1565b6001600160a01b03160361370a576136ff60608201604083016148a5565b945050505050610994565b5060010161367f565b505b5060010161361a565b505f949350505050565b5f805f8060205f8651602088015f8a5af192503d91505f519050828015612f22575081156137595780600114612f22565b50505050506001600160a01b03163b151590565b60408051610100810182525f8082526020820181905291810182905260608101829052608081019190915260a081016137a46137b8565b815260200160608152602001606081525090565b60408051610260810182525f80825260208201819052918101829052606081018290526080810182905260a0810182905260c0810182905260e08101829052610100810182905261012081018290526101408101829052610160810182905261018081018290526101a081018290526101c081018290526101e081018290526102008101829052610220810182905261024081019190915290565b6001600160a01b0381168114613867575f80fd5b50565b803561387581613853565b919050565b5f806040838503121561388b575f80fd5b82359150602083013561389d81613853565b809150509250929050565b5f602082840312156138b8575f80fd5b81356001600160e01b031981168114610994575f80fd5b5f805f805f608086880312156138e3575f80fd5b85356138ee81613853565b945060208601356138fe81613853565b93506040860135925060608601356001600160401b0380821115613920575f80fd5b818801915088601f830112613933575f80fd5b813581811115613941575f80fd5b896020828501011115613952575f80fd5b9699959850939650602001949392505050565b5f60208284031215613975575f80fd5b5035919050565b5f805f6060848603121561398e575f80fd5b833592506020840135915060408401356139a781613853565b809150509250925092565b5f60c082840312156139c2575f80fd5b50919050565b5f8083601f8401126139d8575f80fd5b5081356001600160401b038111156139ee575f80fd5b6020830191508360208260051b8501011115613a08575f80fd5b9250929050565b5f604082840312156139c2575f80fd5b5f805f805f8060a08789031215613a34575f80fd5b8635955060208701356001600160401b0380821115613a51575f80fd5b613a5d8a838b016139b2565b96506040890135915080821115613a72575f80fd5b613a7e8a838b016139c8565b90965094506060890135915080821115613a96575f80fd5b613aa28a838b01613a0f565b93506080890135915080821115613ab7575f80fd5b50613ac489828a01613a0f565b9150509295509295509295565b5f60208284031215613ae1575f80fd5b813561099481613853565b5f60208284031215613afc575f80fd5b81356001600160401b03811115613b11575f80fd5b82016101808185031215610994575f80fd5b5f5b83811015613b3d578181015183820152602001613b25565b50505f910152565b5f8151808452613b5c816020860160208601613b23565b601f01601f19169290920160200192915050565b5f604080830185845260206040818601528186518084526060935060608701915060608160051b8801018389015f5b83811015613bef57898303605f19018552815180516001600160a01b031684528681015187850152880151888401889052613bdc88850182613b45565b9587019593505090850190600101613b9f565b50909a9950505050505050505050565b5f8060408385031215613c10575f80fd5b8235915060208301356001600160401b03811115613c2c575f80fd5b613c3885828601613a0f565b9150509250929050565b602080825282518282018190525f9190848201906040850190845b81811015613c825783516001600160a01b031683529284019291840191600101613c5d565b50909695505050505050565b5f60208284031215613c9e575f80fd5b81356001600160401b03811115613cb3575f80fd5b82016102008185031215610994575f80fd5b5f805f805f805f805f60e08a8c031215613cdd575f80fd5b8935985060208a01356001600160401b0380821115613cfa575f80fd5b613d068d838e016139b2565b995060408c0135915080821115613d1b575f80fd5b613d278d838e016139c8565b909950975060608c0135915080821115613d3f575f80fd5b613d4b8d838e01613a0f565b965060808c0135915080821115613d60575f80fd5b613d6c8d838e01613a0f565b955060a08c0135915080821115613d81575f80fd5b613d8d8d838e016139b2565b945060c08c0135915080821115613da2575f80fd5b50613daf8c828d016139c8565b915080935050809150509295985092959850929598565b5f60208284031215613dd6575f80fd5b81356001600160401b03811115613deb575f80fd5b82016101a08185031215610994575f80fd5b5f6080820186835260208681850152604086604086015260606080606087015283875180865260a08801915060a08160051b89010195508489015f5b82811015613e8957898803609f19018452815180516001600160a01b0316895287810151888a0152860151868901869052613e76868a0182613b45565b9850509286019290860190600101613e39565b50959c9b505050505050505050505050565b634e487b7160e01b5f52604160045260245ffd5b5f60208284031215613ebf575f80fd5b5051919050565b634e487b7160e01b5f52601160045260245ffd5b8082018082111561083057610830613ec6565b803560ff81168114613875575f80fd5b63ffffffff81168114613867575f80fd5b803561387581613efd565b8035613f2481613853565b6001600160a01b0316825260ff613f3d60208301613eed565b1660208301526040810135613f5181613efd565b63ffffffff166040830152606090810135910152565b5f808335601e19843603018112613f7c575f80fd5b83016020810192503590506001600160401b03811115613f9a575f80fd5b803603821315613a08575f80fd5b81835281816020850137505f828201602090810191909152601f909101601f19169091010190565b60208152613ff160208201613fe48461386a565b6001600160a01b03169052565b5f613ffe6020840161386a565b6001600160a01b03811660408401525061401e6060830160408501613f19565b60c083013560e083015261010060e08401358184015261403f81850161386a565b9050610120614058818501836001600160a01b03169052565b6101409150808501358285015250610160818501358185015261407d81860186613f67565b6101808681015292509050610c7b6101a085018383613fa8565b604051606081016001600160401b03811182821017156140b9576140b9613e9b565b60405290565b60405161012081016001600160401b03811182821017156140b9576140b9613e9b565b60405161026081016001600160401b03811182821017156140b9576140b9613e9b565b604051601f8201601f191681016001600160401b038111828210171561412d5761412d613e9b565b604052919050565b5f6001600160401b0382111561414d5761414d613e9b565b5060051b60200190565b5f8060408385031215614168575f80fd5b825191506020808401516001600160401b0380821115614186575f80fd5b818601915086601f830112614199575f80fd5b81516141ac6141a782614135565b614105565b81815260059190911b830184019084810190898311156141ca575f80fd5b8585015b838110156142a0578051858111156141e4575f80fd5b8601601f196060828e03820112156141fa575f80fd5b614202614097565b8983015161420f81613853565b815260408301518a82015260608301518881111561422b575f80fd5b8084019350508d603f84011261423f575f80fd5b898301518881111561425357614253613e9b565b6142638b84601f84011601614105565b92508083528e6040828601011115614279575f80fd5b614289818c850160408701613b23565b5060408101919091528452509186019186016141ce565b508096505050505050509250929050565b60ff818116838216019081111561083057610830613ec6565b634e487b7160e01b5f52603260045260245ffd5b65ffffffffffff81168114613867575f80fd5b8051613875816142de565b805161387581613efd565b6001600160701b0381168114613867575f80fd5b805161387581614307565b805161387581613853565b5f6101208284031215614342575f80fd5b61434a6140bf565b9050614355826142f1565b8152614363602083016142f1565b6020820152614374604083016142f1565b6040820152614385606083016142f1565b6060820152614396608083016142fc565b60808201526143a760a0830161431b565b60a08201526143b860c083016142fc565b60c08201526143c960e08301614326565b60e082015261010080830151818301525092915050565b61ffff81168114613867575f80fd5b8051613875816143e0565b8015158114613867575f80fd5b8051613875816143fa565b5f80828403610380811215614425575f80fd5b61442f8585614331565b92506102608061011f1983011215614445575f80fd5b61444d6140e2565b915061445c61012086016143ef565b825261014061446c8187016143ef565b602084015261016061447f8188016142fc565b6040850152610180614492818901614407565b60608601526101a06144a5818a01614407565b60808701526101c06144b8818b01614407565b60a08801526101e06144cb818c01614407565b60c08901526102006144de818d01614407565b60e08a01526102206144f1818e01614407565b6101008b0152610240614505818f01614407565b6101208c01526145168a8f01614407565b898c01526145276102808f01614407565b888c01526145386102a08f01614407565b878c01526145496102c08f01614407565b868c015261455a6102e08f01614407565b858c015261456b6103008f01614407565b848c015261457c6103208f01614407565b838c015261458d6103408f01614326565b828c015261459e6103608f016143ef565b908b015250999c979b50969950505050505050505050565b5f602082840312156145c6575f80fd5b815161099481613853565b5f61012082840312156145e2575f80fd5b6109948383614331565b5f808335601e19843603018112614601575f80fd5b8301803591506001600160401b0382111561461a575f80fd5b602001915036819003821315613a08575f80fd5b8681525f6001600160a01b03808816602084015286604084015280861660608401525083608083015260e060a08301525f60e08301526101008060c084015261467981840185613b45565b9998505050505050505050565b8581526001600160a01b0385166020820152836040820152821515606082015260c060808201525f60c082015260e060a08201525f6146c860e0830184613b45565b979650505050505050565b5f60c082016001600160a01b03808a1684526020818a16602086015288604086015260c06060860152829150875180845260e0860192506020890193505f5b8181101561472e57845184529382019392820192600101614712565b5050509415156080840152505090151560a090910152949350505050565b5f6020828403121561475c575f80fd5b8151610994816143fa565b8181038181111561083057610830613ec6565b5f8085851115614788575f80fd5b83861115614794575f80fd5b5050820193919092039150565b6bffffffffffffffffffffffff1981358181169160148510156147ce5780818660140360031b1b83161692505b505092915050565b5f6001600160a01b03808516835260206040602085015260a084018286511660408601526001600160401b036020870151166060860152604086015192506060608086015280835180835260c0870191506020850194505f92505b8083101561485457845160ff168252938301936001929092019190830190614831565b50979650505050505050565b5f808335601e19843603018112614875575f80fd5b8301803591506001600160401b0382111561488e575f80fd5b6020019150600581901b3603821315613a08575f80fd5b5f602082840312156148b5575f80fd5b813561099481613efd565b5f8235607e198336030181126148d4575f80fd5b9190910192915050565b63ffffffff881681526001600160a01b038716602082015260a060408201525f61490c60a083018789613fa8565b828103606084015261491f818688613fa8565b91505082608083015298975050505050505050565b5f823561011e198336030181126148d4575f80fd5b8035613875816143e0565b5f60208284031215614964575f80fd5b8135610994816143e0565b5f808335601e19843603018112614984575f80fd5b8301803591506001600160401b0382111561499d575f80fd5b602001915060c081023603821315613a08575f80fd5b8035613875816142de565b5f602082840312156149ce575f80fd5b8135610994816142de565b803561387581614307565b5f602082840312156149f4575f80fd5b813561099481614307565b60e081525f614a1160e083018a613b45565b60208301989098525061ffff95861660408201526001600160701b0394909416606085015263ffffffff9283166080850152911660a083015290911660c090910152919050565b5f808335601e19843603018112614a6d575f80fd5b8301803591506001600160401b03821115614a86575f80fd5b6020019150606081023603821315613a08575f80fd5b80356001600160681b0381168114613875575f80fd5b5f60208284031215614ac2575f80fd5b61099482614a9c565b608081525f614add6080830187613b45565b63ffffffff959095166020830152506001600160a01b039290921660408301526001600160681b0316606090910152919050565b805161ffff1682526020810151614b2e602084018261ffff169052565b506040810151614b46604084018263ffffffff169052565b506060810151614b5a606084018215159052565b506080810151614b6e608084018215159052565b5060a0810151614b8260a084018215159052565b5060c0810151614b9660c084018215159052565b5060e0810151614baa60e084018215159052565b5061010081810151151590830152610120808201511515908301526101408082015115159083015261016080820151151590830152610180808201511515908301526101a0808201511515908301526101c0808201511515908301526101e08082015115159083015261020080820151151590830152610220808201516001600160a01b0316908301526102408082015161ffff8116828501526111e1565b5f82825180855260208086019550808260051b8401018186015f5b84811015614d2357858303601f190189528151805184528401516040858501819052815181860181905291860191606090818701905f5b81811015614d0c578551805163ffffffff1684528a8101516001600160401b03168b850152858101516001600160a01b03908116878601528582015115158686015260808083015165ffffffffffff169086015260a09182015116908401529489019460c090920191600101614c9b565b50509b87019b955050509184019150600101614c64565b5090979650505050505050565b5f815180845260208085019450602084015f5b83811015614d7957815180516001600160e01b0316885283015163ffffffff168388015260409096019590820190600101614d43565b509495945050505050565b5f82825180855260208086019550808260051b8401018186015f5b84811015614d2357601f19868403018952815160806001600160a01b0380835116865280878401511687870152506040808301518282880152614de483880182614d30565b9250505060608083015192508582038187015250614e028183614d30565b9a86019a9450505090830190600101614d9f565b5f82825180855260208086019550808260051b8401018186015f5b84811015614d2357601f198684030189528151805165ffffffffffff1684528481015163ffffffff908116868601526040808301516001600160701b031690860152606080830151909116908501526080808201516001600160a01b03169085015260a0808201516103409190614eaa82880182614b11565b505060c082015181610300870152614ec482870182614c49565b91505060e08201519150848103610320860152614ee18183614d84565b9a86019a9450505090830190600101614e31565b5f808335601e19843603018112614f0a575f80fd5b83016020810192503590506001600160401b03811115614f28575f80fd5b606081023603821315613a08575f80fd5b5f8235603e19833603018112614f4d575f80fd5b90910192915050565b5f8383855260208086019550808560051b830101845f5b87811015614d2357848303601f19018952614f888288614f39565b60408085018235614f9881613853565b6001600160a01b038082168852614fb189860186614ef5565b898b018690529384905292945060609291508288015f5b86811015615018578335614fdb81613853565b8316825260ff614fec858d01613eed565b168b83015285840135614ffe81613efd565b63ffffffff16828701529284019290840190600101614fc8565b509d89019d9750505093860193505050600101614f6d565b6001600160a01b038716815260a060208201525f61505260a083018789613fa8565b82810360408401526150648187614e16565b90508281036060840152615079818587614f56565b83810360809094019390935250505f81526020019695505050505050565b634e487b7160e01b5f52600160045260245ffd5b848152608060208201525f6150c36080830186614e16565b82810360408401526150d6818587614f56565b83810360609094019390935250505f8152602001949350505050565b838152604060208201525f610c7b604083018486613fa8565b868152608060208201525f615124608083018789613fa8565b8281036040840152615137818688613fa8565b915050826060830152979650505050505050565b5f808335601e19843603018112615160575f80fd5b8301803591506001600160401b03821115615179575f80fd5b6020019150600781901b3603821315613a08575f80fd5b803562ffffff81168114613875575f80fd5b5f602082840312156151b2575f80fd5b61099482615190565b5f8235607e19833603018112614f4d575f80fd5b5f808335601e198436030181126151e4575f80fd5b83016020810192503590506001600160401b03811115615202575f80fd5b8060051b3603821315613a08575f80fd5b8183525f60208085019450825f5b85811015614d7957813561523481613efd565b63ffffffff1687526001600160681b0361524f838501614a9c565b168388015260408083013561526381613853565b6001600160a01b0316908801526060968701969190910190600101615221565b5f808335601e19843603018112615298575f80fd5b83016020810192503590506001600160401b038111156152b6575f80fd5b60c081023603821315613a08575f80fd5b80356001600160401b0381168114613875575f80fd5b8035613875816143fa565b8183525f60208085019450825f5b85811015614d7957813561530981613efd565b63ffffffff1687526001600160401b036153248385016152c7565b168388015260408083013561533881613853565b6001600160a01b031690880152606082810135615354816143fa565b151590880152608082810135615369816142de565b65ffffffffffff169088015260a061538283820161386a565b6001600160a01b03169088015260c09687019691909101906001016152f6565b5f8383855260208086019550808560051b830101845f5b87811015614d2357848303601f1901895281353688900361011e190181126153df575f80fd5b87016101206153fd856153f1846149b3565b65ffffffffffff169052565b61540986830183614ef5565b828888015261541b8388018284615213565b92505050604061542c818401614949565b61ffff1690860152606061544283820184615283565b878403838901526154548482846152e8565b935050505060806154668184016149d9565b6001600160701b03169086015260a0615480838201613f0e565b63ffffffff169086015260c0615497838201613f0e565b63ffffffff169086015260e06154ae838201614949565b61ffff16908601526101006154c4838201614949565b61ffff169501949094525097830197908301906001016153b9565b5f808335601e198436030181126154f4575f80fd5b83016020810192503590506001600160401b03811115615512575f80fd5b8060061b3603821315613a08575f80fd5b8183525f60208085019450825f5b85811015614d7957813561554481613853565b6001600160a01b039081168852828401359061555f82613853565b16878401526040968701969190910190600101615531565b5f808335601e1984360301811261558c575f80fd5b83016020810192503590506001600160401b038111156155aa575f80fd5b8060071b3603821315613a08575f80fd5b5f604080840183356155cc81613853565b6001600160a01b0390811686526020906155e886830187615577565b604060208a0152938490526060938489015f5b8281101561566457833561560e81613853565b8516825262ffffff615621858801615190565b16868301528784013561563381613efd565b63ffffffff908116838a0152848801359061564d82613efd565b1682880152608093840193909101906001016155fb565b509998505050505050505050565b5f8383855260208086019550808560051b830101845f5b87811015614d2357848303601f190189526156a48288614f39565b604080850182356156b481613853565b6001600160a01b0380821688526156cd89860186615577565b898b018690529384905292945060609291508288015f5b8681101561573f5783356156f781613853565b83168252838b013561570881613efd565b63ffffffff16828c01528386013561571f81613853565b8316828701528385013585830152608093840193909101906001016156e4565b509d89019d9750505093860193505050600101615689565b5f61576282836151cf565b60408552615774604086018284615672565b915050602083013560208501528091505092915050565b60e081525f61579a8a8b6151bb565b60c060e08401526157ab8182613f67565b60806101a08601526157c261022086018284613fa8565b9150506157d26020830183613f67565b61019f1980878503016101c08801526157ec848385613fa8565b93506157fb6040860186613f67565b9350915080878503016101e088015250615816838383613fa8565b92505050606082013561020085015261583160208d01613f0e565b63ffffffff8116610100860152915061584c60408d0161386a565b6001600160a01b038116610120860152915061586b60608d018d6151cf565b925060df1980868403016101408701526158868385846153a2565b935061589560808f018f6154df565b935091508086850301610160870152506158b0838383615523565b925050506158c060a08c0161386a565b6001600160a01b031661018084015282810360208401526158e2818a8c614f56565b905082810360408401526158f681896155bb565b9050828103606084015261590a8188615757565b9050828103608084015261591e8187614e16565b9150508360a083015261467960c08301846001600160a01b03169052565b838152606060208201525f6159546060830185615757565b90506001600160a01b0383166040830152949350505050565b848152836020820152606060408201525f612f22606083018486615672565b5f602080838503121561599d575f80fd5b82516001600160401b038111156159b2575f80fd5b8301601f810185136159c2575f80fd5b80516159d06141a782614135565b81815260059190911b820183019083810190878311156159ee575f80fd5b928401925b828410156146c8578351615a0681613853565b825292840192908401906159f3565b5f823561015e198336030181126148d4575f80fd5b5f60808084018335601e19853603018112615a43575f80fd5b840160208181019135906001600160401b03821115615a60575f80fd5b6101c08083023603841315615a73575f80fd5b608089529382905260a0938489015f5b84811015615bb857615aa582615a9888614a9c565b6001600160681b03169052565b615ab0848701613f0e565b63ffffffff16848301526040615ac7878201613f0e565b63ffffffff16908301526060615ade878201614949565b61ffff1690830152615af186890161386a565b6001600160a01b031688830152858701358783015260c0615b13818801615190565b62ffffff169083015260e0615b29878201613eed565b60ff1690830152610100615b3e8782016152dd565b151590830152610120615b528782016152dd565b151590830152610140615b668782016152dd565b151590830152610160615b7a8782016152dd565b151590830152610180615b8e8782016152dd565b1515908301526101a0615ba28782016152dd565b1515908301529482019490820190600101615a83565b50615bc560208a01613f0e565b63ffffffff811660208c01529650615bdf60408a01613eed565b60ff811660408c01529650615bf660608a0161386a565b6001600160a01b03811660608c01529650614679565b8035615c17816143fa565b151582526020810135615c29816143fa565b151560208301526040810135615c3e816143fa565b151560408301526060810135615c53816143fa565b8015156060840152505050565b838152606060208201525f615c758485613f67565b6101606060850152615c8c6101c085018284613fa8565b915050615c9c6020860186613f67565b605f1980868503016080870152615cb4848385613fa8565b9350615cc36040890189613f67565b93509150808685030160a0870152615cdc848484613fa8565b9350615cea6060890161386a565b6001600160a01b03811660c08801529250615d086080890189613f67565b93509150808685030160e0870152615d21848484613fa8565b9350615d3060a08901896151bb565b925080868503016101008701525050615d498282615a2a565b915050615d5860c0860161386a565b6001600160a01b0316610120840152615d78610140840160e08701615c0c565b604092909201929092529392505050565b5f60208284031215615d99575f80fd5b8135610994816143fa565b5f8235609e198336030181126148d4575f80fd5b5f815180845260208085019450602084015f5b83811015614d795781516001600160a01b031687529582019590820190600101615dcb565b5f60208083018184528085518083526040925060408601915060408160051b8701018488015f5b83811015615ea657888303603f19018552815180516001600160a01b031684528781015162ffffff1688850152868101516001600160681b03168785015260608082015163ffffffff908116918601919091526080808301519091169085015260a09081015160c091850182905290615e9281860183615db8565b968901969450505090860190600101615e17565b509098975050505050505050565b634e487b7160e01b5f52601260045260245ffd5b5f808335601e19843603018112615edd575f80fd5b8301803591506001600160401b03821115615ef6575f80fd5b6020019150600681901b3603821315613a08575f80fd5b5f60c08284031215615f1d575f80fd5b60405160c081018181106001600160401b0382111715615f3f57615f3f613e9b565b6040528235615f4d81613efd565b8152615f5b602084016152c7565b60208201526040830135615f6e81613853565b60408201526060830135615f81816143fa565b60608201526080830135615f94816142de565b608082015260a0830135615fa781613853565b60a08201529392505050565b5f8235603e198336030181126148d4575f80fdfea26469706673582212203432f6b08c199bbecc362f338e1bfc89ee283ecd1d12a747a9ae046d189b09e764736f6c63430008170033",
	"deployedBytecode": "0x6080604052600436106101c4575f3560e01c80638cc35846116100f2578063c22903b211610092578063dbfbe5da11610062578063dbfbe5da14610673578063ee0fc121146106a6578063f434c914146106d9578063fb82b1b01461070c575f80fd5b8063c22903b2146105f1578063c57981b514610604578063d65a55ce14610618578063db29c89214610654575f80fd5b8063b5d25533116100cd578063b5d255331461055d578063b78edb6614610590578063b8a843d7146105bc578063b987005d146105d2575f80fd5b80638cc35846146104c9578063902b742e146104f6578063abf8c5c81461052a575f80fd5b80634d1dc3cc1161016857806367d39de21161013857806367d39de2146104055780637249a773146104305780637da0a8771461046457806388bc2ef314610496575f80fd5b80634d1dc3cc146103505780634fa9af691461036f578063572b6c051461039a578063677ce088146103e6575f80fd5b80631680e172116101a35780631680e17214610255578063293c4999146102965780633b7ae807146102e1578063437e610714610315575f80fd5b806244a005146101c857806301ffc9a7146101e9578063150b7a021461021d575b5f80fd5b3480156101d3575f80fd5b506101e76101e236600461387a565b61073b565b005b3480156101f4575f80fd5b506102086102033660046138a8565b6107ca565b60405190151581526020015b60405180910390f35b348015610228575f80fd5b5061023c6102373660046138cf565b610836565b6040516001600160e01b03199091168152602001610214565b348015610260575f80fd5b506102887f000000000000000000000000000000000000000000000000000000000000000381565b604051908152602001610214565b3480156102a1575f80fd5b506102c97f0000000000000000000000000b538a02610d7d3cc91ce2870f423e0a34d646ad81565b6040516001600160a01b039091168152602001610214565b3480156102ec575f80fd5b506102c96102fb366004613965565b60046020525f90815260409020546001600160a01b031681565b348015610320575f80fd5b5061028861032f36600461397c565b5f602081815293815260408082208552928152828120909352825290205481565b34801561035b575f80fd5b5061028861036a366004613a1f565b61087d565b34801561037a575f80fd5b50610288610389366004613965565b60026020525f908152604090205481565b3480156103a5575f80fd5b506102086103b4366004613ad1565b7f0000000000000000000000008a5ba591ed2bed5691a378c65611ed492500f8876001600160a01b0390811691161490565b3480156103f1575f80fd5b5061020861040036600461387a565b610945565b348015610410575f80fd5b5061028861041f366004613965565b60036020525f908152604090205481565b34801561043b575f80fd5b506102c961044a366004613965565b60016020525f90815260409020546001600160a01b031681565b34801561046f575f80fd5b507f0000000000000000000000008a5ba591ed2bed5691a378c65611ed492500f8876102c9565b3480156104a1575f80fd5b506102c97f0000000000000000000000000bc9f153dee4d3d474ce0903775b9b2aaae9aa4181565b3480156104d4575f80fd5b506104e86104e3366004613aec565b61099b565b604051610214929190613b70565b348015610501575f80fd5b506102c9610510366004613965565b60056020525f90815260409020546001600160a01b031681565b348015610535575f80fd5b506102c97f000000000000000000000000defb489d101bf74bbf8f60eec6ff2f078c9d520681565b348015610568575f80fd5b506102c97f000000000000000000000000696c7e9b37d28edbefa3fce06e26041b7197c1a581565b34801561059b575f80fd5b506105af6105aa366004613bff565b610b97565b6040516102149190613c42565b3480156105c7575f80fd5b5061028862278d0081565b3480156105dd575f80fd5b506101e76105ec36600461397c565b610c84565b6101e76105ff366004613c8e565b610f1b565b34801561060f575f80fd5b50610288601981565b348015610623575f80fd5b50610637610632366004613cc5565b6111e7565b604080519283526001600160a01b03909116602083015201610214565b34801561065f575f80fd5b5061020861066e36600461387a565b6112a1565b34801561067e575f80fd5b506102c97f00000000000000000000000036438bcb3bdc7c4e042e6886bbc2a0541ecae1ac81565b3480156106b1575f80fd5b506102c97f000000000000000000000000b291844f213047eb9e1621ae555b1eae6700d55381565b3480156106e4575f80fd5b506102c97f000000000000000000000000f5ca295dc286a176e35ebb7833031fd95550eb1481565b348015610717575f80fd5b5061072b610726366004613dc6565b61133f565b6040516102149493929190613dfd565b61074c826107476115f4565b611667565b806001600160a01b0316827f0329d6a81434b130c72eb65eea0e32e429dc1277b4aad86ec86454aefb6184516107806115f4565b6040516001600160a01b03909116815260200160405180910390a36107bc306107a76115f4565b604080515f81526020810190915285906116a0565b6107c6828261172a565b5050565b5f6001600160e01b031982166374823a0b60e11b14806107fa57506001600160e01b0319821663081e84bf60e11b145b8061081557506001600160e01b0319821663611481d960e11b145b8061083057506001600160e01b03198216630a85bd0160e11b145b92915050565b5f336001600160a01b037f0000000000000000000000000b538a02610d7d3cc91ce2870f423e0a34d646ad161461086b575f80fd5b50630a85bd0160e11b95945050505050565b5f86158015610914577f0000000000000000000000000b538a02610d7d3cc91ce2870f423e0a34d646ad6001600160a01b03166306661abd6040518163ffffffff1660e01b8152600401602060405180830381865afa1580156108e2573d5f803e3d5ffd5b505050506040513d601f19601f820116820180604052508101906109069190613eaf565b610911906001613eda565b97505b5f806109228a8a8a8a6117da565b915091506109378a848b8b8b8b8b8989611dba565b509798975050505050505050565b5f828152600160205260408120546001600160a01b038381169116148061098457505f838152600460205260409020546001600160a01b038381169116145b80610994575061099483836124e3565b9392505050565b60c08101355f9081526001602052604081205460609081906001600160a01b03168015610a3957604051634661ac2360e11b81526001600160a01b03821690638cc35846906109ee908890600401613fd0565b5f60405180830381865afa158015610a08573d5f803e3d5ffd5b505050506040513d5f823e601f3d908101601f19168201604052610a2f9190810190614157565b9094509150610a42565b84610120013593505b815160c08601355f908152600560205260409020546001909114906001600160a01b031680151582610a74575f610a77565b60015b81610a82575f610a85565b60015b610a8f91906142b1565b60ff166001600160401b03811115610aa957610aa9613e9b565b604051908082528060200260200182016040528015610af557816020015b60408051606080820183525f808352602083015291810191909152815260200190600190039081610ac75790505b5095508015610b4e576040518060600160405280836001600160a01b031681526020015f815260200160405180602001604052805f815250815250865f81518110610b4257610b426142ca565b60200260200101819052505b8215610b8d57845f81518110610b6657610b666142ca565b602002602001015186600181518110610b8157610b816142ca565b60200260200101819052505b5050505050915091565b6060610ba5836107476115f4565b6040516320c94b1360e11b8152600481018490525f907f000000000000000000000000b291844f213047eb9e1621ae555b1eae6700d5536001600160a01b03169063419296269060240161038060405180830381865afa158015610c0b573d5f803e3d5ffd5b505050506040513d601f19601f82011682018060405250810190610c2f9190614412565b61024081015190925060021c600190811614905080610c6157604051631abe0dd960e21b815260040160405180910390fd5b5f85815260036020526040902054610c7b9086908661253c565b95945050505050565b427f000000000000000000000000b291844f213047eb9e1621ae555b1eae6700d5536001600160a01b031663d4a1b4b16040518163ffffffff1660e01b8152600401602060405180830381865afa158015610ce1573d5f803e3d5ffd5b505050506040513d601f19601f82011682018060405250810190610d0591906145b6565b604051630969875760e21b815260048101869052602481018590526001600160a01b0391909116906325a61d5c9060440161012060405180830381865afa158015610d52573d5f803e3d5ffd5b505050506040513d601f19601f82011682018060405250810190610d7691906145d1565b6060015165ffffffffffff161115610da9576040516374e6881560e11b8152600481018390526024015b60405180910390fd5b5f8381526020818152604080832085845282528083206001600160a01b038516845290915281205490819003610df25760405163357db1e760e21b815260040160405180910390fd5b5f8481526020818152604080832086845282528083206001600160a01b038616808552925282209190915583857f0ad8046f3d571312df6d1867ac30c26e100f5684a9d7c2d3340c4e2a5b56360f84610e496115f4565b604080519283526001600160a01b0390911660208301520160405180910390a46040516363fdc96f60e11b815260048101859052602481018290526001600160a01b03838116604483015260a060648301525f60a4830181905260848301527f000000000000000000000000b291844f213047eb9e1621ae555b1eae6700d553169063c7fb92de9060c4016020604051808303815f875af1158015610ef0573d5f803e3d5ffd5b505050506040513d601f19601f82011682018060405250810190610f149190613eaf565b5050505050565b61eeee610f3061012083016101008401613ad1565b6001600160a01b031614610f6c57610f6c3330610160840135610f5b61012086016101008701613ad1565b6001600160a01b031692919061266d565b5f610f7b6101c08301836145ec565b810190610f889190613ad1565b90505f610fac82610fa161012086016101008701613ad1565b6101608601356126d4565b90506001600160a01b03821663fef43257827f0000000000000000000000000000000000000000000000000000000000000003610ff161012088016101008901613ad1565b61016088013561100460208a018a613ad1565b5f8a6020013560405160200161101c91815260200190565b6040516020818303038152906040526040518863ffffffff1660e01b815260040161104c9695949392919061462e565b60206040518083038185885af193505050508015611087575060408051601f3d908101601f1916820190925261108491810190613eaf565b60015b6111e1573d8080156110b4576040519150601f19603f3d011682016040523d82523d5f602084013e6110b9565b606091505b5061eeee6110cf61012086016101008701613ad1565b6001600160a01b03161461110957611109836101608601356110f961012088016101008901613ad1565b6001600160a01b0316919061270c565b61112a3361111f61012087016101008801613ad1565b6101608701356126d4565b915033639e6eec0583602087013561114a61012089016101008a01613ad1565b604080517f000000000000000000000000000000000000000000000000000000000000000360208201526101608b0135915f91016040516020818303038152906040526040518763ffffffff1660e01b81526004016111ad959493929190614686565b5f604051808303818588803b1580156111c4575f80fd5b505af11580156111d6573d5f803e3d5ffd5b505050505050505050565b50505050565b5f808a15801561127f577f0000000000000000000000000b538a02610d7d3cc91ce2870f423e0a34d646ad6001600160a01b03166306661abd6040518163ffffffff1660e01b8152600401602060405180830381865afa15801561124d573d5f803e3d5ffd5b505050506040513d601f19601f820116820180604052508101906112719190613eaf565b61127c906001613eda565b9b505b6112918c828d8d8d8d8d8d8d8d6127c6565b9b9c9a5050505050505050505050565b5f7f000000000000000000000000f5ca295dc286a176e35ebb7833031fd95550eb146001600160a01b031663632af95f8330866112dd88612c30565b5f806040518763ffffffff1660e01b8152600401611300969594939291906146d3565b602060405180830381865afa15801561131b573d5f803e3d5ffd5b505050506040513d601f19601f82011682018060405250810190610994919061474c565b5f808060606113606040860180359061135b9060208901613ad1565b6124e3565b1561137b575f85608001358660a001359350935093506115ed565b6040808601355f90815260026020522054428111156113b65760405163e4a9c90760e01b815260048101829052426024820152604401610da0565b5f6001600160a01b037f0000000000000000000000000bc9f153dee4d3d474ce0903775b9b2aaae9aa411663862026507f000000000000000000000000000000000000000000000000000000000000000361141760e08b0160c08c01613ad1565b6040516001600160e01b031960e085901b16815260048101929092526001600160a01b03166024820152604401602060405180830381865afa15801561145f573d5f803e3d5ffd5b505050506040513d601f19601f8201168201806040525081019061148391906145b6565b9050610160870135158061149e57506001600160a01b038116155b156114c05786610160013587608001358860a0013595509550955050506115ed565b5f6114d3608089013560196103e8612dea565b90505f6114e48260808b0135614767565b90505f6115016101208b01358360a08d01356101608e0135612eb9565b90505f611532611516836101208e0135614767565b85858e60a001356115279190614767565b8e6101600135612eb9565b604080516001808252818301909252919250816020015b60408051606080820183525f80835260208301529181019190915281526020019060019003908161154957505060408051606081018252308152602080820185905282516001600160a01b038a1691810191909152929950918282019101604051602081830303815290604052815250875f815181106115cb576115cb6142ca565b6020908102919091010152505061016089013597509550505060a08601359250505b9193509193565b5f3660147f0000000000000000000000008a5ba591ed2bed5691a378c65611ed492500f8876001600160a01b0316331480156116305750808210155b1561165f575f366116418385614767565b61164c92829061477a565b611655916147a1565b60601c9250505090565b339250505090565b61167182826112a1565b6107c6576040516355e03cb160e11b8152600481018390526001600160a01b0382166024820152604401610da0565b604080516060810182526001600160a01b0380861682526001600160401b03851660208301528183018490529151631127c92960e21b815290917f000000000000000000000000f5ca295dc286a176e35ebb7833031fd95550eb14169063449f24a49061171390889085906004016147d6565b5f604051808303815f87803b1580156111c4575f80fd5b5f61173483612c30565b90505f81516001600160401b0381111561175057611750613e9b565b604051908082528060200260200182016040528015611779578160200160208202803683370190505b5090505f5b82518110156117cd57828181518110611799576117996142ca565b60200260200101518282815181106117b3576117b36142ca565b60ff9092166020928302919091019091015260010161177e565b506111e1308486846116a0565b60605f6117e985830186614860565b90505f0361180a5760405163050751e560e21b815260040160405180910390fd5b6118176060860186614860565b90506001600160401b0381111561183057611830613e9b565b60405190808252806020026020018201604052801561186957816020015b61185661376d565b81526020019060019003908161184e5790505b5091505f61187d60408701602088016148a5565b61188d60c0880160a08901613ad1565b61189788806148c0565b6118a190806145ec565b6118ab8a806148c0565b6118b99060208101906145ec565b6118c38c806148c0565b606001356040516020016118dd97969594939291906148de565b60405160208183030381529060405290505f6118fa878787612f2c565b90505f5b61190b6060890189614860565b9050811015611da4573661192260608a018a614860565b83818110611932576119326142ca565b90506020028101906119449190614934565b90505f6119576060830160408401614954565b61ffff161180156119745750611970606082018261496f565b1590505b15611992576040516340fb407760e01b815260040160405180910390fd5b5f82118015611a0357506119a960608a018a614860565b6119b4600185614767565b8181106119c3576119c36142ca565b90506020028101906119d59190614934565b6119e39060208101906149be565b65ffffffffffff166119f860208301836149be565b65ffffffffffff1611155b15611a215760405163b787fe6760e01b815260040160405180910390fd5b612710611a35610100830160e08401614954565b61ffff1610611a7757611a4f610100820160e08301614954565b6040516380922c6d60e01b815261ffff90911660048201526127106024820152604401610da0565b611a91611a8a60408b0160208c016148a5565b8285613193565b868381518110611aa357611aa36142ca565b602002602001018190525083825f148015611ad05750611ac660208301836149be565b65ffffffffffff16155b611aee57611ae160208301836149be565b65ffffffffffff16611af0565b425b611b006060840160408501614954565b611b1060a08501608086016149e4565b611b2060c0860160a087016148a5565b611b3060e0870160c088016148a5565b611b41610100880160e08901614954565b604051602001611b5797969594939291906149ff565b60405160208183030381529060405293505f5b611b776020830183614a58565b9050811015611d9a5736611b8e6020840184614a58565b83818110611b9e57611b9e6142ca565b90506060020190505f6001600160a01b0316816040016020810190611bc39190613ad1565b6001600160a01b031603611bea5760405163b79e8c7d60e01b815260040160405180910390fd5b611bfa6040820160208301614ab2565b6001600160681b03165f03611c0f5750611d92565b85611c1d60208301836148a5565b611c2d6060840160408501613ad1565b611c3d6040850160208601614ab2565b604051602001611c509493929190614acb565b60408051601f19818403018152919052955046611c7060208301836148a5565b63ffffffff1614611c815750611d92565b611c916060820160408301613ad1565b6001600160a01b0316611ca48542613eda565b8d7f5c05d79eeb764b1f5069fb55a8558e8a5cec91813a64282bc198dc9084c75df0611cd66040860160208701614ab2565b611cde6115f4565b604080516001600160681b0390931683526001600160a01b0390911660208301520160405180910390a4611d186040820160208301614ab2565b5f8d81526020819052604081206001600160681b03929092169190611d3d8742613eda565b81526020019081526020015f205f836040016020810190611d5e9190613ad1565b6001600160a01b03166001600160a01b031681526020019081526020015f205f828254611d8b9190613eda565b9091555050505b600101611b6a565b50506001016118fe565b5081805190602001209250505094509492505050565b8715611e7f57886001600160a01b037f000000000000000000000000b291844f213047eb9e1621ae555b1eae6700d55316635c7465e530611dfb8b806148c0565b611e099060408101906145ec565b878c8c6040518763ffffffff1660e01b8152600401611e2d96959493929190615030565b6020604051808303815f875af1158015611e49573d5f803e3d5ffd5b505050506040513d601f19601f82011682018060405250810190611e6d9190613eaf565b14611e7a57611e7a615097565b612109565b6040516331a9108f60e11b8152600481018a90525f907f0000000000000000000000000b538a02610d7d3cc91ce2870f423e0a34d646ad6001600160a01b031690636352211e90602401602060405180830381865afa158015611ee4573d5f803e3d5ffd5b505050506040513d601f19601f82011682018060405250810190611f0891906145b6565b9050806001600160a01b0316611f1c6115f4565b6001600160a01b031614611f5e5789611f336115f4565b6040516355e03cb160e11b815260048101929092526001600160a01b03166024820152604401610da0565b604051632142170760e11b81526001600160a01b038281166004830152306024830152604482018c90527f0000000000000000000000000b538a02610d7d3cc91ce2870f423e0a34d646ad16906342842e0e906064015f604051808303815f87803b158015611fcb575f80fd5b505af1158015611fdd573d5f803e3d5ffd5b50506040516339284f3560e01b81526001600160a01b037f000000000000000000000000b291844f213047eb9e1621ae555b1eae6700d5531692506339284f359150612033908d9087908c908c906004016150ab565b6020604051808303815f875af115801561204f573d5f803e3d5ffd5b505050506040513d601f19601f820116820180604052508101906120739190613eaf565b506001600160a01b037f000000000000000000000000b291844f213047eb9e1621ae555b1eae6700d5531663702a39778b6120ae8b806148c0565b6120bc9060408101906145ec565b6040518463ffffffff1660e01b81526004016120da939291906150f2565b5f604051808303815f87803b1580156120f1575f80fd5b505af1158015612103573d5f803e3d5ffd5b50505050505b6121418961211a60608a018a614860565b5f81811061212a5761212a6142ca565b905060200281019061213c9190614934565b613398565b6001600160a01b037f000000000000000000000000b291844f213047eb9e1621ae555b1eae6700d5531663581781918a61217b8a806148c0565b61218590806145ec565b61218f8c806148c0565b61219d9060208101906145ec565b6121a78e806148c0565b60600135886121b46115f4565b6040805160208101949094528301919091526001600160a01b03166060820152608001604051602081830303815290604052805190602001206040518763ffffffff1660e01b815260040161220e9695949392919061510b565b6020604051808303815f875af115801561222a573d5f803e3d5ffd5b505050506040513d601f19601f8201168201806040525081019061224e91906145b6565b505f61225d6020860186613ad1565b6001600160a01b0316146123d5576122786020850185613ad1565b5f8a815260016020526040812080546001600160a01b0319166001600160a01b0393909316929092179091555b6122b2602086018661514b565b90508110156123d357366122c9602087018761514b565b838181106122d9576122d96142ca565b6080029190910191506122f190506020870187613ad1565b6001600160a01b0316637b621d3a8c61231060408501602086016151a2565b61232060608601604087016148a5565b61233060808701606088016148a5565b61233d6020880188613ad1565b6040516001600160e01b031960e088901b168152600481019590955262ffffff909316602485015263ffffffff91821660448501521660648301526001600160a01b0316608482015260a4016020604051808303815f875af11580156123a5573d5f803e3d5ffd5b505050506040513d601f19601f820116820180604052508101906123c991906145b6565b50506001016122a5565b505b5f6123e660c0890160a08a01613ad1565b6001600160a01b03161461244b5761240f61240760c0890160a08a01613ad1565b8a6010613446565b61241f60c0880160a08901613ad1565b5f8a815260046020526040902080546001600160a01b0319166001600160a01b03929092169190911790555b6124648961245f60608a0160408b01613ad1565b61172a565b60208301351561247b5761247989828561253c565b505b5f898152600360205260409020819055887f50cb038d2850ab4d96526ba72c40c7ab67dfeaadd1afcd7562788b243cbccd61888888888888886124bc6115f4565b6040516124d098979695949392919061578b565b60405180910390a2505050505050505050565b6040516383db9d0160e01b8152600481018390526001600160a01b0382811660248301525f917f000000000000000000000000696c7e9b37d28edbefa3fce06e26041b7197c1a5909116906383db9d0190604401611300565b6060837fd1ae357f26434a99ce1f9e98bc6f3b593847697f1a14b95622dd27cd9bffb140848461256a6115f4565b6040516125799392919061593c565b60405180910390a27f000000000000000000000000696c7e9b37d28edbefa3fce06e26041b7197c1a56001600160a01b0316632f3f50e0858585602001356125bf6115f4565b6040805160208101949094528301919091526001600160a01b0316606082015260800160408051601f1981840301815291905280516020909101206126048680614860565b6040518563ffffffff1660e01b8152600401612623949392919061596d565b5f604051808303815f875af115801561263e573d5f803e3d5ffd5b505050506040513d5f823e601f3d908101601f19168201604052612665919081019061598c565b949350505050565b6040516001600160a01b0384811660248301528381166044830152606482018390526111e19186918216906323b872dd906084015b604051602081830303815290604052915060e01b6020820180516001600160e01b03838183161783525050505061349a565b5f61eeed196001600160a01b038416016126ef575080610994565b6127036001600160a01b0384168584613506565b505f9392505050565b604051636eb1769f60e11b81523060048201526001600160a01b0383811660248301525f919085169063dd62ed3e90604401602060405180830381865afa158015612759573d5f803e3d5ffd5b505050506040513d601f19601f8201168201806040525081019061277d9190613eaf565b9050818110156127b95760405163e570110f60e01b81526001600160a01b03841660048201526024810182905260448101839052606401610da0565b6111e18484848403613588565b5f805f6127d58d8c8c8c6117da565b90925090506001600160a01b037f000000000000000000000000defb489d101bf74bbf8f60eec6ff2f078c9d52061663ea74b8af8e6128148980615a15565b8960200135856128226115f4565b6040805160208101949094528301919091526001600160a01b03166060820152608001604051602081830303815290604052805190602001206040518463ffffffff1660e01b815260040161287993929190615c60565b6020604051808303815f875af1158015612895573d5f803e3d5ffd5b505050506040513d601f19601f820116820180604052508101906128b991906145b6565b5f8e8152600560205260409081902080546001600160a01b0319166001600160a01b0384161790559093506128f49060608801908801615d89565b1561291b575f8d815260066020908152604082208054600181018255908352912060149101555b61292b6080870160608801615d89565b15612952575f8d815260066020908152604082208054600181018255908352912060159101555b61296260a0870160808801615d89565b15612989575f8d815260066020908152604082208054600181018255908352912060169101555b61299960c0870160a08801615d89565b156129c0575f8d815260066020908152604082208054600181018255908352912060179101555b8315612c0f575f846001600160401b038111156129df576129df613e9b565b604051908082528060200260200182016040528015612a3f57816020015b6040805160c0810182525f80825260208083018290529282018190526060808301829052608083019190915260a082015282525f199092019101816129fd5790505b5090505f5b85811015612b675736878783818110612a5f57612a5f6142ca565b9050602002810190612a719190615da4565b90506040518060c00160405280876001600160a01b03168152602001825f016020810190612a9f91906151a2565b62ffffff168152602001826020016020810190612abc9190614ab2565b6001600160681b03168152602001612ada60608401604085016148a5565b63ffffffff168152602001612af560808401606085016148a5565b63ffffffff168152602001612b0d6080840184614860565b808060200260200160405190810160405280939291908181526020018383602002808284375f9201919091525050509152508351849084908110612b5357612b536142ca565b602090810291909101015250600101612a44565b50604051631107934d60e21b81526001600160a01b037f00000000000000000000000036438bcb3bdc7c4e042e6886bbc2a0541ecae1ac169063441e4d3490612bb4908490600401615df0565b5f604051808303815f87803b158015612bcb575f80fd5b505af1158015612bdd573d5f803e3d5ffd5b50505050612c0d7f00000000000000000000000036438bcb3bdc7c4e042e6886bbc2a0541ecae1ac8f6014613446565b505b612c208d8d8d8d8d8d8d8989611dba565b50509a9950505050505050505050565b5f818152600660209081526040808320805482518185028101850190935280835260609493830182828015612c8257602002820191905f5260205f20905b815481526020019060010190808311612c6e575b5050505050905080516005612c979190613eda565b6001600160401b03811115612cae57612cae613e9b565b604051908082528060200260200182016040528015612cd7578160200160208202803683370190505b509150601160ff16825f81518110612cf157612cf16142ca565b602002602001018181525050601960ff1682600181518110612d1557612d156142ca565b602002602001018181525050600660ff1682600281518110612d3957612d396142ca565b602002602001018181525050601260ff1682600381518110612d5d57612d5d6142ca565b602002602001018181525050601e60ff1682600481518110612d8157612d816142ca565b6020026020010181815250505f5b8151811015612de357818181518110612daa57612daa6142ca565b602002602001015183826005612dc09190613eda565b81518110612dd057612dd06142ca565b6020908102919091010152600101612d8f565b5050919050565b5f80805f19858709858702925082811083820303915050805f03612e2157838281612e1757612e17615eb4565b0492505050610994565b838110612e5257604051630c740aef60e31b8152600481018790526024810186905260448101859052606401610da0565b5f8486880960026001871981018816978890046003810283188082028403028082028403028082028403028082028403028082028403029081029092039091025f889003889004909101858311909403939093029303949094049190911702949350505050565b5f61270f198201612ecb57505f612665565b828410612ed9575083612665565b5f612ee5868686612dea565b9050825f03612ef5579050612665565b612f2281612f04858888612dea565b612f1086612710614767565b612f1a9190613eda565b612710612dea565b9695505050505050565b6060612f3b6080850185615ec8565b90506001600160401b03811115612f5457612f54613e9b565b604051908082528060200260200182016040528015612fa757816020015b604080516080810182525f8082526020820152606091810182905281810191909152815260200190600190039081612f725790505b5090505f5b612fb96080860186615ec8565b905081101561318b5736612fd06080870187615ec8565b83818110612fe057612fe06142ca565b90506040020190505f612ff4868684613617565b90508063ffffffff165f0361304c576130106020830183613ad1565b6130206040840160208501613ad1565b604051631ab3aa5760e01b81526001600160a01b03928316600482015291166024820152604401610da0565b6040805160018082528183019092525f91816020015b604080518082019091525f808252602082015281526020019060019003908161306257905050905060405180604001604052806001600160e01b03801681526020018363ffffffff16815250815f815181106130c0576130c06142ca565b602002602001018190525060405180608001604052808460200160208101906130e99190613ad1565b6001600160a01b0316815260209081019061310690860186613ad1565b6001600160a01b031681526020015f60405190808252806020026020018201604052801561315957816020015b604080518082019091525f80825260208201528152602001906001900390816131335790505b50815260200182815250858581518110613175576131756142ca565b6020908102919091010152505050600101612fac565b509392505050565b61319b61376d565b6131a36137b8565b6131b36060850160408601614954565b61ffff1681526131ca610100850160e08601614954565b61ffff16602082015263ffffffff8516604082015260016101c0820181905260a082018190526101e082018190526102008201523061022082015261321761012085016101008601614954565b61ffff166102408201526040805160018082528183019092525f91816020015b604080518082019091525f81526060602082015281526020019060019003908161323757505060408051808201909152600181529091506020810161327f606088018861496f565b808060200260200160405190810160405280939291908181526020015f905b828210156132ca576132bb60c08302860136819003810190615f0d565b8152602001906001019061329e565b5050505050815250815f815181106132e4576132e46142ca565b6020026020010181905250604051806101000160405280865f01602081019061330d91906149be565b65ffffffffffff16815260200161332a60c0880160a089016148a5565b63ffffffff16815260200161334560a08801608089016149e4565b6001600160701b0316815260200161336360e0880160c089016148a5565b63ffffffff1681526020015f6001600160a01b0316815260200183815260200182815260200185815250925050509392505050565b6133a560208201826149be565b65ffffffffffff1615806133cd5750426133c260208301836149be565b65ffffffffffff1610155b156133d6575050565b5f6133e462278d0042613eda565b5f8481526002602052604090208190559050827f48a9634f50564cfe6648ff5e75795a36873bf96c408523d50017032657e67198826134216115f4565b604080519283526001600160a01b0390911660208301520160405180910390a2505050565b6040805160018082528183019092525f916020808301908036833701905050905081815f8151811061347a5761347a6142ca565b602002602001019060ff16908160ff16815250506111e1308585846116a0565b5f8060205f8451602086015f885af1806134b9576040513d5f823e3d81fd5b50505f513d915081156134d05780600114156134dd565b6001600160a01b0384163b155b156111e157604051635274afe760e01b81526001600160a01b0385166004820152602401610da0565b604051636eb1769f60e11b81523060048201526001600160a01b0383811660248301525f919085169063dd62ed3e90604401602060405180830381865afa158015613553573d5f803e3d5ffd5b505050506040513d601f19601f820116820180604052508101906135779190613eaf565b90506111e184846135888585613eda565b604080516001600160a01b038416602482015260448082018490528251808303909101815260649091019091526020810180516001600160e01b031663095ea7b360e01b1790526135d98482613728565b6111e1576040516001600160a01b0384811660248301525f604483015261360d91869182169063095ea7b3906064016126a2565b6111e1848261349a565b5f805b8381101561371e5736858583818110613635576136356142ca565b90506020028101906136479190615fb3565b90506136596040850160208601613ad1565b6001600160a01b031661366f6020830183613ad1565b6001600160a01b031603613715575f5b61368c6020830183614a58565b905081101561371357366136a36020840184614a58565b838181106136b3576136b36142ca565b6060029190910191506136cb90506020870187613ad1565b6001600160a01b03166136e16020830183613ad1565b6001600160a01b03160361370a576136ff60608201604083016148a5565b945050505050610994565b5060010161367f565b505b5060010161361a565b505f949350505050565b5f805f8060205f8651602088015f8a5af192503d91505f519050828015612f22575081156137595780600114612f22565b50505050506001600160a01b03163b151590565b60408051610100810182525f8082526020820181905291810182905260608101829052608081019190915260a081016137a46137b8565b815260200160608152602001606081525090565b60408051610260810182525f80825260208201819052918101829052606081018290526080810182905260a0810182905260c0810182905260e08101829052610100810182905261012081018290526101408101829052610160810182905261018081018290526101a081018290526101c081018290526101e081018290526102008101829052610220810182905261024081019190915290565b6001600160a01b0381168114613867575f80fd5b50565b803561387581613853565b919050565b5f806040838503121561388b575f80fd5b82359150602083013561389d81613853565b809150509250929050565b5f602082840312156138b8575f80fd5b81356001600160e01b031981168114610994575f80fd5b5f805f805f608086880312156138e3575f80fd5b85356138ee81613853565b945060208601356138fe81613853565b93506040860135925060608601356001600160401b0380821115613920575f80fd5b818801915088601f830112613933575f80fd5b813581811115613941575f80fd5b896020828501011115613952575f80fd5b9699959850939650602001949392505050565b5f60208284031215613975575f80fd5b5035919050565b5f805f6060848603121561398e575f80fd5b833592506020840135915060408401356139a781613853565b809150509250925092565b5f60c082840312156139c2575f80fd5b50919050565b5f8083601f8401126139d8575f80fd5b5081356001600160401b038111156139ee575f80fd5b6020830191508360208260051b8501011115613a08575f80fd5b9250929050565b5f604082840312156139c2575f80fd5b5f805f805f8060a08789031215613a34575f80fd5b8635955060208701356001600160401b0380821115613a51575f80fd5b613a5d8a838b016139b2565b96506040890135915080821115613a72575f80fd5b613a7e8a838b016139c8565b90965094506060890135915080821115613a96575f80fd5b613aa28a838b01613a0f565b93506080890135915080821115613ab7575f80fd5b50613ac489828a01613a0f565b9150509295509295509295565b5f60208284031215613ae1575f80fd5b813561099481613853565b5f60208284031215613afc575f80fd5b81356001600160401b03811115613b11575f80fd5b82016101808185031215610994575f80fd5b5f5b83811015613b3d578181015183820152602001613b25565b50505f910152565b5f8151808452613b5c816020860160208601613b23565b601f01601f19169290920160200192915050565b5f604080830185845260206040818601528186518084526060935060608701915060608160051b8801018389015f5b83811015613bef57898303605f19018552815180516001600160a01b031684528681015187850152880151888401889052613bdc88850182613b45565b9587019593505090850190600101613b9f565b50909a9950505050505050505050565b5f8060408385031215613c10575f80fd5b8235915060208301356001600160401b03811115613c2c575f80fd5b613c3885828601613a0f565b9150509250929050565b602080825282518282018190525f9190848201906040850190845b81811015613c825783516001600160a01b031683529284019291840191600101613c5d565b50909695505050505050565b5f60208284031215613c9e575f80fd5b81356001600160401b03811115613cb3575f80fd5b82016102008185031215610994575f80fd5b5f805f805f805f805f60e08a8c031215613cdd575f80fd5b8935985060208a01356001600160401b0380821115613cfa575f80fd5b613d068d838e016139b2565b995060408c0135915080821115613d1b575f80fd5b613d278d838e016139c8565b909950975060608c0135915080821115613d3f575f80fd5b613d4b8d838e01613a0f565b965060808c0135915080821115613d60575f80fd5b613d6c8d838e01613a0f565b955060a08c0135915080821115613d81575f80fd5b613d8d8d838e016139b2565b945060c08c0135915080821115613da2575f80fd5b50613daf8c828d016139c8565b915080935050809150509295985092959850929598565b5f60208284031215613dd6575f80fd5b81356001600160401b03811115613deb575f80fd5b82016101a08185031215610994575f80fd5b5f6080820186835260208681850152604086604086015260606080606087015283875180865260a08801915060a08160051b89010195508489015f5b82811015613e8957898803609f19018452815180516001600160a01b0316895287810151888a0152860151868901869052613e76868a0182613b45565b9850509286019290860190600101613e39565b50959c9b505050505050505050505050565b634e487b7160e01b5f52604160045260245ffd5b5f60208284031215613ebf575f80fd5b5051919050565b634e487b7160e01b5f52601160045260245ffd5b8082018082111561083057610830613ec6565b803560ff81168114613875575f80fd5b63ffffffff81168114613867575f80fd5b803561387581613efd565b8035613f2481613853565b6001600160a01b0316825260ff613f3d60208301613eed565b1660208301526040810135613f5181613efd565b63ffffffff166040830152606090810135910152565b5f808335601e19843603018112613f7c575f80fd5b83016020810192503590506001600160401b03811115613f9a575f80fd5b803603821315613a08575f80fd5b81835281816020850137505f828201602090810191909152601f909101601f19169091010190565b60208152613ff160208201613fe48461386a565b6001600160a01b03169052565b5f613ffe6020840161386a565b6001600160a01b03811660408401525061401e6060830160408501613f19565b60c083013560e083015261010060e08401358184015261403f81850161386a565b9050610120614058818501836001600160a01b03169052565b6101409150808501358285015250610160818501358185015261407d81860186613f67565b6101808681015292509050610c7b6101a085018383613fa8565b604051606081016001600160401b03811182821017156140b9576140b9613e9b565b60405290565b60405161012081016001600160401b03811182821017156140b9576140b9613e9b565b60405161026081016001600160401b03811182821017156140b9576140b9613e9b565b604051601f8201601f191681016001600160401b038111828210171561412d5761412d613e9b565b604052919050565b5f6001600160401b0382111561414d5761414d613e9b565b5060051b60200190565b5f8060408385031215614168575f80fd5b825191506020808401516001600160401b0380821115614186575f80fd5b818601915086601f830112614199575f80fd5b81516141ac6141a782614135565b614105565b81815260059190911b830184019084810190898311156141ca575f80fd5b8585015b838110156142a0578051858111156141e4575f80fd5b8601601f196060828e03820112156141fa575f80fd5b614202614097565b8983015161420f81613853565b815260408301518a82015260608301518881111561422b575f80fd5b8084019350508d603f84011261423f575f80fd5b898301518881111561425357614253613e9b565b6142638b84601f84011601614105565b92508083528e6040828601011115614279575f80fd5b614289818c850160408701613b23565b5060408101919091528452509186019186016141ce565b508096505050505050509250929050565b60ff818116838216019081111561083057610830613ec6565b634e487b7160e01b5f52603260045260245ffd5b65ffffffffffff81168114613867575f80fd5b8051613875816142de565b805161387581613efd565b6001600160701b0381168114613867575f80fd5b805161387581614307565b805161387581613853565b5f6101208284031215614342575f80fd5b61434a6140bf565b9050614355826142f1565b8152614363602083016142f1565b6020820152614374604083016142f1565b6040820152614385606083016142f1565b6060820152614396608083016142fc565b60808201526143a760a0830161431b565b60a08201526143b860c083016142fc565b60c08201526143c960e08301614326565b60e082015261010080830151818301525092915050565b61ffff81168114613867575f80fd5b8051613875816143e0565b8015158114613867575f80fd5b8051613875816143fa565b5f80828403610380811215614425575f80fd5b61442f8585614331565b92506102608061011f1983011215614445575f80fd5b61444d6140e2565b915061445c61012086016143ef565b825261014061446c8187016143ef565b602084015261016061447f8188016142fc565b6040850152610180614492818901614407565b60608601526101a06144a5818a01614407565b60808701526101c06144b8818b01614407565b60a08801526101e06144cb818c01614407565b60c08901526102006144de818d01614407565b60e08a01526102206144f1818e01614407565b6101008b0152610240614505818f01614407565b6101208c01526145168a8f01614407565b898c01526145276102808f01614407565b888c01526145386102a08f01614407565b878c01526145496102c08f01614407565b868c015261455a6102e08f01614407565b858c015261456b6103008f01614407565b848c015261457c6103208f01614407565b838c015261458d6103408f01614326565b828c015261459e6103608f016143ef565b908b015250999c979b50969950505050505050505050565b5f602082840312156145c6575f80fd5b815161099481613853565b5f61012082840312156145e2575f80fd5b6109948383614331565b5f808335601e19843603018112614601575f80fd5b8301803591506001600160401b0382111561461a575f80fd5b602001915036819003821315613a08575f80fd5b8681525f6001600160a01b03808816602084015286604084015280861660608401525083608083015260e060a08301525f60e08301526101008060c084015261467981840185613b45565b9998505050505050505050565b8581526001600160a01b0385166020820152836040820152821515606082015260c060808201525f60c082015260e060a08201525f6146c860e0830184613b45565b979650505050505050565b5f60c082016001600160a01b03808a1684526020818a16602086015288604086015260c06060860152829150875180845260e0860192506020890193505f5b8181101561472e57845184529382019392820192600101614712565b5050509415156080840152505090151560a090910152949350505050565b5f6020828403121561475c575f80fd5b8151610994816143fa565b8181038181111561083057610830613ec6565b5f8085851115614788575f80fd5b83861115614794575f80fd5b5050820193919092039150565b6bffffffffffffffffffffffff1981358181169160148510156147ce5780818660140360031b1b83161692505b505092915050565b5f6001600160a01b03808516835260206040602085015260a084018286511660408601526001600160401b036020870151166060860152604086015192506060608086015280835180835260c0870191506020850194505f92505b8083101561485457845160ff168252938301936001929092019190830190614831565b50979650505050505050565b5f808335601e19843603018112614875575f80fd5b8301803591506001600160401b0382111561488e575f80fd5b6020019150600581901b3603821315613a08575f80fd5b5f602082840312156148b5575f80fd5b813561099481613efd565b5f8235607e198336030181126148d4575f80fd5b9190910192915050565b63ffffffff881681526001600160a01b038716602082015260a060408201525f61490c60a083018789613fa8565b828103606084015261491f818688613fa8565b91505082608083015298975050505050505050565b5f823561011e198336030181126148d4575f80fd5b8035613875816143e0565b5f60208284031215614964575f80fd5b8135610994816143e0565b5f808335601e19843603018112614984575f80fd5b8301803591506001600160401b0382111561499d575f80fd5b602001915060c081023603821315613a08575f80fd5b8035613875816142de565b5f602082840312156149ce575f80fd5b8135610994816142de565b803561387581614307565b5f602082840312156149f4575f80fd5b813561099481614307565b60e081525f614a1160e083018a613b45565b60208301989098525061ffff95861660408201526001600160701b0394909416606085015263ffffffff9283166080850152911660a083015290911660c090910152919050565b5f808335601e19843603018112614a6d575f80fd5b8301803591506001600160401b03821115614a86575f80fd5b6020019150606081023603821315613a08575f80fd5b80356001600160681b0381168114613875575f80fd5b5f60208284031215614ac2575f80fd5b61099482614a9c565b608081525f614add6080830187613b45565b63ffffffff959095166020830152506001600160a01b039290921660408301526001600160681b0316606090910152919050565b805161ffff1682526020810151614b2e602084018261ffff169052565b506040810151614b46604084018263ffffffff169052565b506060810151614b5a606084018215159052565b506080810151614b6e608084018215159052565b5060a0810151614b8260a084018215159052565b5060c0810151614b9660c084018215159052565b5060e0810151614baa60e084018215159052565b5061010081810151151590830152610120808201511515908301526101408082015115159083015261016080820151151590830152610180808201511515908301526101a0808201511515908301526101c0808201511515908301526101e08082015115159083015261020080820151151590830152610220808201516001600160a01b0316908301526102408082015161ffff8116828501526111e1565b5f82825180855260208086019550808260051b8401018186015f5b84811015614d2357858303601f190189528151805184528401516040858501819052815181860181905291860191606090818701905f5b81811015614d0c578551805163ffffffff1684528a8101516001600160401b03168b850152858101516001600160a01b03908116878601528582015115158686015260808083015165ffffffffffff169086015260a09182015116908401529489019460c090920191600101614c9b565b50509b87019b955050509184019150600101614c64565b5090979650505050505050565b5f815180845260208085019450602084015f5b83811015614d7957815180516001600160e01b0316885283015163ffffffff168388015260409096019590820190600101614d43565b509495945050505050565b5f82825180855260208086019550808260051b8401018186015f5b84811015614d2357601f19868403018952815160806001600160a01b0380835116865280878401511687870152506040808301518282880152614de483880182614d30565b9250505060608083015192508582038187015250614e028183614d30565b9a86019a9450505090830190600101614d9f565b5f82825180855260208086019550808260051b8401018186015f5b84811015614d2357601f198684030189528151805165ffffffffffff1684528481015163ffffffff908116868601526040808301516001600160701b031690860152606080830151909116908501526080808201516001600160a01b03169085015260a0808201516103409190614eaa82880182614b11565b505060c082015181610300870152614ec482870182614c49565b91505060e08201519150848103610320860152614ee18183614d84565b9a86019a9450505090830190600101614e31565b5f808335601e19843603018112614f0a575f80fd5b83016020810192503590506001600160401b03811115614f28575f80fd5b606081023603821315613a08575f80fd5b5f8235603e19833603018112614f4d575f80fd5b90910192915050565b5f8383855260208086019550808560051b830101845f5b87811015614d2357848303601f19018952614f888288614f39565b60408085018235614f9881613853565b6001600160a01b038082168852614fb189860186614ef5565b898b018690529384905292945060609291508288015f5b86811015615018578335614fdb81613853565b8316825260ff614fec858d01613eed565b168b83015285840135614ffe81613efd565b63ffffffff16828701529284019290840190600101614fc8565b509d89019d9750505093860193505050600101614f6d565b6001600160a01b038716815260a060208201525f61505260a083018789613fa8565b82810360408401526150648187614e16565b90508281036060840152615079818587614f56565b83810360809094019390935250505f81526020019695505050505050565b634e487b7160e01b5f52600160045260245ffd5b848152608060208201525f6150c36080830186614e16565b82810360408401526150d6818587614f56565b83810360609094019390935250505f8152602001949350505050565b838152604060208201525f610c7b604083018486613fa8565b868152608060208201525f615124608083018789613fa8565b8281036040840152615137818688613fa8565b915050826060830152979650505050505050565b5f808335601e19843603018112615160575f80fd5b8301803591506001600160401b03821115615179575f80fd5b6020019150600781901b3603821315613a08575f80fd5b803562ffffff81168114613875575f80fd5b5f602082840312156151b2575f80fd5b61099482615190565b5f8235607e19833603018112614f4d575f80fd5b5f808335601e198436030181126151e4575f80fd5b83016020810192503590506001600160401b03811115615202575f80fd5b8060051b3603821315613a08575f80fd5b8183525f60208085019450825f5b85811015614d7957813561523481613efd565b63ffffffff1687526001600160681b0361524f838501614a9c565b168388015260408083013561526381613853565b6001600160a01b0316908801526060968701969190910190600101615221565b5f808335601e19843603018112615298575f80fd5b83016020810192503590506001600160401b038111156152b6575f80fd5b60c081023603821315613a08575f80fd5b80356001600160401b0381168114613875575f80fd5b8035613875816143fa565b8183525f60208085019450825f5b85811015614d7957813561530981613efd565b63ffffffff1687526001600160401b036153248385016152c7565b168388015260408083013561533881613853565b6001600160a01b031690880152606082810135615354816143fa565b151590880152608082810135615369816142de565b65ffffffffffff169088015260a061538283820161386a565b6001600160a01b03169088015260c09687019691909101906001016152f6565b5f8383855260208086019550808560051b830101845f5b87811015614d2357848303601f1901895281353688900361011e190181126153df575f80fd5b87016101206153fd856153f1846149b3565b65ffffffffffff169052565b61540986830183614ef5565b828888015261541b8388018284615213565b92505050604061542c818401614949565b61ffff1690860152606061544283820184615283565b878403838901526154548482846152e8565b935050505060806154668184016149d9565b6001600160701b03169086015260a0615480838201613f0e565b63ffffffff169086015260c0615497838201613f0e565b63ffffffff169086015260e06154ae838201614949565b61ffff16908601526101006154c4838201614949565b61ffff169501949094525097830197908301906001016153b9565b5f808335601e198436030181126154f4575f80fd5b83016020810192503590506001600160401b03811115615512575f80fd5b8060061b3603821315613a08575f80fd5b8183525f60208085019450825f5b85811015614d7957813561554481613853565b6001600160a01b039081168852828401359061555f82613853565b16878401526040968701969190910190600101615531565b5f808335601e1984360301811261558c575f80fd5b83016020810192503590506001600160401b038111156155aa575f80fd5b8060071b3603821315613a08575f80fd5b5f604080840183356155cc81613853565b6001600160a01b0390811686526020906155e886830187615577565b604060208a0152938490526060938489015f5b8281101561566457833561560e81613853565b8516825262ffffff615621858801615190565b16868301528784013561563381613efd565b63ffffffff908116838a0152848801359061564d82613efd565b1682880152608093840193909101906001016155fb565b509998505050505050505050565b5f8383855260208086019550808560051b830101845f5b87811015614d2357848303601f190189526156a48288614f39565b604080850182356156b481613853565b6001600160a01b0380821688526156cd89860186615577565b898b018690529384905292945060609291508288015f5b8681101561573f5783356156f781613853565b83168252838b013561570881613efd565b63ffffffff16828c01528386013561571f81613853565b8316828701528385013585830152608093840193909101906001016156e4565b509d89019d9750505093860193505050600101615689565b5f61576282836151cf565b60408552615774604086018284615672565b915050602083013560208501528091505092915050565b60e081525f61579a8a8b6151bb565b60c060e08401526157ab8182613f67565b60806101a08601526157c261022086018284613fa8565b9150506157d26020830183613f67565b61019f1980878503016101c08801526157ec848385613fa8565b93506157fb6040860186613f67565b9350915080878503016101e088015250615816838383613fa8565b92505050606082013561020085015261583160208d01613f0e565b63ffffffff8116610100860152915061584c60408d0161386a565b6001600160a01b038116610120860152915061586b60608d018d6151cf565b925060df1980868403016101408701526158868385846153a2565b935061589560808f018f6154df565b935091508086850301610160870152506158b0838383615523565b925050506158c060a08c0161386a565b6001600160a01b031661018084015282810360208401526158e2818a8c614f56565b905082810360408401526158f681896155bb565b9050828103606084015261590a8188615757565b9050828103608084015261591e8187614e16565b9150508360a083015261467960c08301846001600160a01b03169052565b838152606060208201525f6159546060830185615757565b90506001600160a01b0383166040830152949350505050565b848152836020820152606060408201525f612f22606083018486615672565b5f602080838503121561599d575f80fd5b82516001600160401b038111156159b2575f80fd5b8301601f810185136159c2575f80fd5b80516159d06141a782614135565b81815260059190911b820183019083810190878311156159ee575f80fd5b928401925b828410156146c8578351615a0681613853565b825292840192908401906159f3565b5f823561015e198336030181126148d4575f80fd5b5f60808084018335601e19853603018112615a43575f80fd5b840160208181019135906001600160401b03821115615a60575f80fd5b6101c08083023603841315615a73575f80fd5b608089529382905260a0938489015f5b84811015615bb857615aa582615a9888614a9c565b6001600160681b03169052565b615ab0848701613f0e565b63ffffffff16848301526040615ac7878201613f0e565b63ffffffff16908301526060615ade878201614949565b61ffff1690830152615af186890161386a565b6001600160a01b031688830152858701358783015260c0615b13818801615190565b62ffffff169083015260e0615b29878201613eed565b60ff1690830152610100615b3e8782016152dd565b151590830152610120615b528782016152dd565b151590830152610140615b668782016152dd565b151590830152610160615b7a8782016152dd565b151590830152610180615b8e8782016152dd565b1515908301526101a0615ba28782016152dd565b1515908301529482019490820190600101615a83565b50615bc560208a01613f0e565b63ffffffff811660208c01529650615bdf60408a01613eed565b60ff811660408c01529650615bf660608a0161386a565b6001600160a01b03811660608c01529650614679565b8035615c17816143fa565b151582526020810135615c29816143fa565b151560208301526040810135615c3e816143fa565b151560408301526060810135615c53816143fa565b8015156060840152505050565b838152606060208201525f615c758485613f67565b6101606060850152615c8c6101c085018284613fa8565b915050615c9c6020860186613f67565b605f1980868503016080870152615cb4848385613fa8565b9350615cc36040890189613f67565b93509150808685030160a0870152615cdc848484613fa8565b9350615cea6060890161386a565b6001600160a01b03811660c08801529250615d086080890189613f67565b93509150808685030160e0870152615d21848484613fa8565b9350615d3060a08901896151bb565b925080868503016101008701525050615d498282615a2a565b915050615d5860c0860161386a565b6001600160a01b0316610120840152615d78610140840160e08701615c0c565b604092909201929092529392505050565b5f60208284031215615d99575f80fd5b8135610994816143fa565b5f8235609e198336030181126148d4575f80fd5b5f815180845260208085019450602084015f5b83811015614d795781516001600160a01b031687529582019590820190600101615dcb565b5f60208083018184528085518083526040925060408601915060408160051b8701018488015f5b83811015615ea657888303603f19018552815180516001600160a01b031684528781015162ffffff1688850152868101516001600160681b03168785015260608082015163ffffffff908116918601919091526080808301519091169085015260a09081015160c091850182905290615e9281860183615db8565b968901969450505090860190600101615e17565b509098975050505050505050565b634e487b7160e01b5f52601260045260245ffd5b5f808335601e19843603018112615edd575f80fd5b8301803591506001600160401b03821115615ef6575f80fd5b6020019150600681901b3603821315613a08575f80fd5b5f60c08284031215615f1d575f80fd5b60405160c081018181106001600160401b0382111715615f3f57615f3f613e9b565b6040528235615f4d81613efd565b8152615f5b602084016152c7565b60208201526040830135615f6e81613853565b60408201526060830135615f81816143fa565b60608201526080830135615f94816142de565b608082015260a0830135615fa781613853565b60a08201529392505050565b5f8235603e198336030181126148d4575f80fdfea26469706673582212203432f6b08c199bbecc362f338e1bfc89ee283ecd1d12a747a9ae046d189b09e764736f6c63430008170033",
	"gitCommit": "a93eef635a341f5ca1d21468913fec90023df461"
}