{
  "abi": [
    {
      "inputs": [],
      "name": "BURN",
      "outputs": [
        {
          "internalType": "uint256",
          "name": "",
          "type": "uint256"
        }
      ],
      "stateMutability": "view",
      "type": "function"
    },
    {
      "inputs": [],
      "name": "CLAIM",
      "outputs": [
        {
          "internalType": "uint256",
          "name": "",
          "type": "uint256"
        }
      ],
      "stateMutability": "view",
      "type": "function"
    },
    {
      "inputs": [],
      "name": "ISSUE",
      "outputs": [
        {
          "internalType": "uint256",
          "name": "",
          "type": "uint256"
        }
      ],
      "stateMutability": "view",
      "type": "function"
    },
    {
      "inputs": [],
      "name": "MIGRATE_CONTROLLER",
      "outputs": [
        {
          "internalType": "uint256",
          "name": "",
          "type": "uint256"
        }
      ],
      "stateMutability": "view",
      "type": "function"
    },
    {
      "inputs": [],
      "name": "MIGRATE_TERMINAL",
      "outputs": [
        {
          "internalType": "uint256",
          "name": "",
          "type": "uint256"
        }
      ],
      "stateMutability": "view",
      "type": "function"
    },
    {
      "inputs": [],
      "name": "MINT",
      "outputs": [
        {
          "internalType": "uint256",
          "name": "",
          "type": "uint256"
        }
      ],
      "stateMutability": "view",
      "type": "function"
    },
    {
      "inputs": [],
      "name": "PROCESS_FEES",
      "outputs": [
        {
          "internalType": "uint256",
          "name": "",
          "type": "uint256"
        }
      ],
      "stateMutability": "view",
      "type": "function"
    },
    {
      "inputs": [],
      "name": "RECONFIGURE",
      "outputs": [
        {
          "internalType": "uint256",
          "name": "",
          "type": "uint256"
        }
      ],
      "stateMutability": "view",
      "type": "function"
    },
    {
      "inputs": [],
      "name": "REDEEM",
      "outputs": [
        {
          "internalType": "uint256",
          "name": "",
          "type": "uint256"
        }
      ],
      "stateMutability": "view",
      "type": "function"
    },
    {
      "inputs": [],
      "name": "REQUIRE_CLAIM",
      "outputs": [
        {
          "internalType": "uint256",
          "name": "",
          "type": "uint256"
        }
      ],
      "stateMutability": "view",
      "type": "function"
    },
    {
      "inputs": [],
      "name": "SET_CONTROLLER",
      "outputs": [
        {
          "internalType": "uint256",
          "name": "",
          "type": "uint256"
        }
      ],
      "stateMutability": "view",
      "type": "function"
    },
    {
      "inputs": [],
      "name": "SET_METADATA",
      "outputs": [
        {
          "internalType": "uint256",
          "name": "",
          "type": "uint256"
        }
      ],
      "stateMutability": "view",
      "type": "function"
    },
    {
      "inputs": [],
      "name": "SET_PRIMARY_TERMINAL",
      "outputs": [
        {
          "internalType": "uint256",
          "name": "",
          "type": "uint256"
        }
      ],
      "stateMutability": "view",
      "type": "function"
    },
    {
      "inputs": [],
      "name": "SET_SPLITS",
      "outputs": [
        {
          "internalType": "uint256",
          "name": "",
          "type": "uint256"
        }
      ],
      "stateMutability": "view",
      "type": "function"
    },
    {
      "inputs": [],
      "name": "SET_TERMINALS",
      "outputs": [
        {
          "internalType": "uint256",
          "name": "",
          "type": "uint256"
        }
      ],
      "stateMutability": "view",
      "type": "function"
    },
    {
      "inputs": [],
      "name": "SET_TOKEN",
      "outputs": [
        {
          "internalType": "uint256",
          "name": "",
          "type": "uint256"
        }
      ],
      "stateMutability": "view",
      "type": "function"
    },
    {
      "inputs": [],
      "name": "TRANSFER",
      "outputs": [
        {
          "internalType": "uint256",
          "name": "",
          "type": "uint256"
        }
      ],
      "stateMutability": "view",
      "type": "function"
    },
    {
      "inputs": [],
      "name": "USE_ALLOWANCE",
      "outputs": [
        {
          "internalType": "uint256",
          "name": "",
          "type": "uint256"
        }
      ],
      "stateMutability": "view",
      "type": "function"
    }
  ],
  "bytecode": {
    "object": "0x61021d61003a600b82828239805160001a60731461002d57634e487b7160e01b600052600060045260246000fd5b30600052607381538281f3fe73000000000000000000000000000000000000000030146080604052600436106101405760003560e01c80639694c99a116100bc578063b56dcf9e1161008b578063c577af3011610070578063c577af30146101cf578063ef1b4f3b146101d7578063f5edee14146101df57600080fd5b8063b56dcf9e146101bf578063c0a2526c146101c757600080fd5b80639694c99a1461019f578063a264ed78146101a7578063aae78103146101af578063af0c22a0146101b757600080fd5b806373b6dec611610113578063757616e1116100f8578063757616e11461018757806376190b601461018f57806376420e1d1461019757600080fd5b806373b6dec61461017757806373d748761461017f57600080fd5b80631d4b9a431461014557806332235cdf1461015f5780633e36f4c7146101675780636c1943be1461016f575b600080fd5b61014d600181565b60405190815260200160405180910390f35b61014d600781565b61014d600981565b61014d600f81565b61014d601181565b61014d600b81565b61014d600d81565b61014d600881565b61014d600c81565b61014d600581565b61014d600381565b61014d601081565b61014d600681565b61014d600481565b61014d600a81565b61014d600281565b61014d601281565b61014d600e8156fea264697066735822122015e86e3e41a657b8dd8d6080171553dea1da6ab959ebba806b90ac35fec1f0dd64736f6c63430008150033",
    "linkReferences": {}
  },
  "methodIdentifiers": {
    "BURN()": "c0a2526c",
    "CLAIM()": "73d74876",
    "ISSUE()": "32235cdf",
    "MIGRATE_CONTROLLER()": "a264ed78",
    "MIGRATE_TERMINAL()": "b56dcf9e",
    "MINT()": "3e36f4c7",
    "PROCESS_FEES()": "9694c99a",
    "RECONFIGURE()": "1d4b9a43",
    "REDEEM()": "c577af30",
    "REQUIRE_CLAIM()": "757616e1",
    "SET_CONTROLLER()": "f5edee14",
    "SET_METADATA()": "af0c22a0",
    "SET_PRIMARY_TERMINAL()": "aae78103",
    "SET_SPLITS()": "ef1b4f3b",
    "SET_TERMINALS()": "6c1943be",
    "SET_TOKEN()": "76190b60",
    "TRANSFER()": "76420e1d",
    "USE_ALLOWANCE()": "73b6dec6"
  },
  "id": 69
}