{
  "abi": [
    {
      "inputs": [],
      "name": "ADJUST_TIERS",
      "outputs": [
        {
          "internalType": "uint256",
          "name": "",
          "type": "uint256"
        }
      ],
      "stateMutability": "view",
      "type": "function"
    },
    {
      "inputs": [],
      "name": "MINT",
      "outputs": [
        {
          "internalType": "uint256",
          "name": "",
          "type": "uint256"
        }
      ],
      "stateMutability": "view",
      "type": "function"
    },
    {
      "inputs": [],
      "name": "UPDATE_METADATA",
      "outputs": [
        {
          "internalType": "uint256",
          "name": "",
          "type": "uint256"
        }
      ],
      "stateMutability": "view",
      "type": "function"
    }
  ],
  "bytecode": {
    "object": "0x60a9610039600b82828239805160001a60731461002c57634e487b7160e01b600052600060045260246000fd5b30600052607381538281f3fe730000000000000000000000000000000000000000301460806040526004361060475760003560e01c8063184c79c514604c5780633e36f4c7146065578063967dad6314606c575b600080fd5b6053601681565b60405190815260200160405180910390f35b6053601781565b605360158156fea264697066735822122021dda90e5d7d119907ac7e3eea8506f64e2d4f4555d06b697c3ef8efa3b39d2764736f6c63430008140033",
    "linkReferences": {}
  },
  "methodIdentifiers": {
    "ADJUST_TIERS()": "967dad63",
    "MINT()": "3e36f4c7",
    "UPDATE_METADATA()": "184c79c5"
  },
  "id": 7
}